{
  "contractName": "AddressLibrary",
  "abi": [
    {
      "inputs": [
        {
          "internalType": "address",
          "name": "add",
          "type": "address"
        },
        {
          "internalType": "address[]",
          "name": "list",
          "type": "address[]"
        }
      ],
      "name": "FindAddress",
      "outputs": [
        {
          "internalType": "bool",
          "name": "",
          "type": "bool"
        }
      ],
      "stateMutability": "pure",
      "type": "function"
    },
    {
      "inputs": [
        {
          "internalType": "address",
          "name": "add",
          "type": "address"
        },
        {
          "internalType": "address[]",
          "name": "list",
          "type": "address[]"
        }
      ],
      "name": "FindAddressPosition",
      "outputs": [
        {
          "internalType": "uint256",
          "name": "",
          "type": "uint256"
        }
      ],
      "stateMutability": "pure",
      "type": "function"
    },
    {
      "inputs": [
        {
          "internalType": "uint256",
          "name": "index",
          "type": "uint256"
        },
        {
          "internalType": "address[]",
          "name": "array",
          "type": "address[]"
        }
      ],
      "name": "AddressArrayRemoveResize",
      "outputs": [
        {
          "internalType": "address[]",
          "name": "",
          "type": "address[]"
        }
      ],
      "stateMutability": "pure",
      "type": "function"
    },
    {
      "inputs": [
        {
          "internalType": "address[]",
          "name": "array",
          "type": "address[]"
        }
      ],
      "name": "AddressArrayToBytes32Array",
      "outputs": [
        {
          "internalType": "bytes32[]",
          "name": "",
          "type": "bytes32[]"
        }
      ],
      "stateMutability": "pure",
      "type": "function"
    },
    {
      "inputs": [
        {
          "internalType": "address",
          "name": "element",
          "type": "address"
        }
      ],
      "name": "AddressToBytes32",
      "outputs": [
        {
          "internalType": "bytes32",
          "name": "",
          "type": "bytes32"
        }
      ],
      "stateMutability": "pure",
      "type": "function"
    },
    {
      "inputs": [
        {
          "internalType": "bytes32[]",
          "name": "array",
          "type": "bytes32[]"
        }
      ],
      "name": "Bytes32ArrayToAddressArray",
      "outputs": [
        {
          "internalType": "address[]",
          "name": "",
          "type": "address[]"
        }
      ],
      "stateMutability": "pure",
      "type": "function"
    },
    {
      "inputs": [
        {
          "internalType": "bytes32",
          "name": "element",
          "type": "bytes32"
        }
      ],
      "name": "Bytes32ToAddress",
      "outputs": [
        {
          "internalType": "address",
          "name": "",
          "type": "address"
        }
      ],
      "stateMutability": "pure",
      "type": "function"
    },
    {
      "inputs": [
        {
          "internalType": "uint256",
          "name": "element",
          "type": "uint256"
        }
      ],
      "name": "UintToAddress",
      "outputs": [
        {
          "internalType": "address",
          "name": "",
          "type": "address"
        }
      ],
      "stateMutability": "pure",
      "type": "function"
    },
    {
      "inputs": [
        {
          "internalType": "address",
          "name": "element",
          "type": "address"
        }
      ],
      "name": "AddressToUint",
      "outputs": [
        {
          "internalType": "uint256",
          "name": "",
          "type": "uint256"
        }
      ],
      "stateMutability": "pure",
      "type": "function"
    }
  ],
  "bytecode": "0x6108da61003a600b82828239805160001a60731461002d57634e487b7160e01b600052600060045260246000fd5b30600052607381538281f3fe730000000000000000000000000000000000000000301460806040526004361061008d5760003560e01c80632491ddcc1461009257806329a4797e146100bb57806391421b11146100db578063b1e27714146100ee578063bc215e8514610117578063cf0668ed14610138578063f4ce9ae8146100ee578063f7cf62d714610152578063ffe6eda114610175575b600080fd5b6100a56100a0366004610718565b610188565b6040516100b29190610783565b60405180910390f35b6100ce6100c9366004610588565b61022b565b6040516100b291906107d0565b6100a56100e93660046105c4565b6102d8565b6100ff6100fc3660046106e6565b90565b6040516001600160a01b0390911681526020016100b2565b61012a610125366004610520565b610146565b6040519081526020016100b2565b61012a610146366004610520565b6001600160a01b031690565b61016561016036600461053b565b610389565b60405190151581526020016100b2565b61012a61018336600461053b565b6103ef565b606061022273__Library_______________________________635b28cf63856101b18661022b565b6040518363ffffffff1660e01b81526004016101ce9291906107e3565b60006040518083038186803b1580156101e657600080fd5b505af41580156101fa573d6000803e3d6000fd5b505050506040513d6000823e601f3d908101601f191682016040526100e9919081019061065b565b90505b92915050565b6060600082516001600160401b038111156102485761024861088e565b604051908082528060200260200182016040528015610271578160200160208202803683370190505b50905060005b81518110156102d1576102a284828151811061029557610295610878565b6020026020010151610146565b8282815181106102b4576102b4610878565b6020908102919091010152806102c98161084f565b915050610277565b5092915050565b6060600082516001600160401b038111156102f5576102f561088e565b60405190808252806020026020018201604052801561031e578160200160208202803683370190505b50905060005b81518110156102d15761034d84828151811061034257610342610878565b602002602001015190565b82828151811061035f5761035f610878565b6001600160a01b0390921660209283029190910190910152806103818161084f565b915050610324565b6000805b82518110156103e5578281815181106103a8576103a8610878565b60200260200101516001600160a01b0316846001600160a01b031614156103d3576001915050610225565b806103dd8161084f565b91505061038d565b5060009392505050565b600073__Library_______________________________632b01313e6001600160a01b03851661041e8561022b565b6040518363ffffffff1660e01b815260040161043b9291906107e3565b60206040518083038186803b15801561045357600080fd5b505af4158015610467573d6000803e3d6000fd5b505050506040513d601f19601f8201168201806040525081019061022291906106ff565b80356001600160a01b03811681146104a257600080fd5b919050565b600082601f8301126104b857600080fd5b813560206104cd6104c88361082c565b6107fc565b80838252828201915082860187848660051b89010111156104ed57600080fd5b60005b85811015610513576105018261048b565b845292840192908401906001016104f0565b5090979650505050505050565b60006020828403121561053257600080fd5b6102228261048b565b6000806040838503121561054e57600080fd5b6105578361048b565b915060208301356001600160401b0381111561057257600080fd5b61057e858286016104a7565b9150509250929050565b60006020828403121561059a57600080fd5b81356001600160401b038111156105b057600080fd5b6105bc848285016104a7565b949350505050565b600060208083850312156105d757600080fd5b82356001600160401b038111156105ed57600080fd5b8301601f810185136105fe57600080fd5b803561060c6104c88261082c565b80828252848201915084840188868560051b870101111561062c57600080fd5b600094505b8385101561064f578035835260019490940193918501918501610631565b50979650505050505050565b6000602080838503121561066e57600080fd5b82516001600160401b0381111561068457600080fd5b8301601f8101851361069557600080fd5b80516106a36104c88261082c565b80828252848201915084840188868560051b87010111156106c357600080fd5b600094505b8385101561064f5780518352600194909401939185019185016106c8565b6000602082840312156106f857600080fd5b5035919050565b60006020828403121561071157600080fd5b5051919050565b6000806040838503121561072b57600080fd5b8235915060208301356001600160401b0381111561057257600080fd5b600081518084526020808501945080840160005b838110156107785781518752958201959082019060010161075c565b509495945050505050565b6020808252825182820181905260009190848201906040850190845b818110156107c45783516001600160a01b03168352928401929184019160010161079f565b50909695505050505050565b6020815260006102226020830184610748565b8281526040602082015260006105bc6040830184610748565b604051601f8201601f191681016001600160401b03811182821017156108245761082461088e565b604052919050565b60006001600160401b038211156108455761084561088e565b5060051b60200190565b600060001982141561087157634e487b7160e01b600052601160045260246000fd5b5060010190565b634e487b7160e01b600052603260045260246000fd5b634e487b7160e01b600052604160045260246000fdfea2646970667358221220b1f722d91240fcd33f8e778a9b2e01d1d326b0f619d6f7894b941b3667cfd5c764736f6c63430008070033",
  "immutableReferences": {},
  "source": "// SPDX-License-Identifier: GPL-3.0\r\n\r\npragma solidity >=0.7.0 <0.9.0;\r\n\r\n/**\r\n * @title Storage\r\n * @dev Store & retrieve value in a variable\r\n */\r\n\r\n import \"./Library.sol\";\r\n\r\nlibrary AddressLibrary{\r\n    using Library for *;\r\n\r\n    // auxiliary functions\r\n    function FindAddress(address add, address[] memory list) public pure returns (bool){\r\n        for(uint i=0; i < list.length; i++){\r\n            if(add == list[i]) return true;\r\n        }\r\n\r\n        return false;\r\n    }\r\n\r\n    function FindAddressPosition(address add, address[] memory list) public pure returns (uint){\r\n        return Library.FindPosition(bytes32(uint256(uint160(add))), AddressArrayToBytes32Array(list));\r\n    }\r\n\r\n    function AddressArrayRemoveResize(uint index, address[] memory array) public \r\n    pure returns(address[] memory) \r\n    {\r\n        return Bytes32ArrayToAddressArray(Library.ArrayRemoveResize(index, AddressArrayToBytes32Array(array)));\r\n    }\r\n\r\n    function AddressArrayToBytes32Array(address[] memory array) public pure returns(bytes32[] memory){\r\n        bytes32[] memory arrayInBytes = new bytes32[](array.length);\r\n\r\n        for(uint i=0; i < arrayInBytes.length; i++){\r\n            arrayInBytes[i] = AddressToBytes32(array[i]);\r\n        }\r\n\r\n        return arrayInBytes;\r\n    }\r\n\r\n    function AddressToBytes32(address element) public pure returns(bytes32){\r\n        return bytes32(uint256(uint160(element)));\r\n    }\r\n\r\n    function Bytes32ArrayToAddressArray(bytes32[] memory array) public pure returns(address[] memory){\r\n        address[] memory arrayInAddress = new address[](array.length);\r\n\r\n        for(uint i=0; i < arrayInAddress.length; i++){\r\n            arrayInAddress[i] = Bytes32ToAddress(array[i]);\r\n        }\r\n\r\n        return arrayInAddress;\r\n    }\r\n\r\n    function Bytes32ToAddress(bytes32 element) public pure returns(address){\r\n        return address(uint160(uint256(element)));\r\n    }\r\n\r\n    function UintToAddress(uint element) public pure returns(address){\r\n        return address(uint160(element));\r\n    }\r\n\r\n    function AddressToUint(address element) public pure returns(uint){\r\n        return uint256(uint160(element));\r\n    }\r\n\r\n}",
  "sourcePath": "C:\\Users\\d-aam\\GitHub\\Certificates\\contracts\\Libraries\\AddressLibrary.sol",
  "compiler": {
    "name": "solc",
    "version": "0.8.7+commit.e28d00a7.Emscripten.clang"
  },
  "schemaVersion": "3.3.4",
  "updatedAt": "2021-08-16T11:58:38.248Z",
  "devdoc": {
    "kind": "dev",
    "methods": {},
    "version": 1
  },
  "userdoc": {
    "kind": "user",
    "methods": {},
    "version": 1
  }
}