{
  "contractName": "AddressLibrary",
  "abi": [
    {
      "inputs": [
        {
          "internalType": "address",
          "name": "add",
          "type": "address"
        },
        {
          "internalType": "address[]",
          "name": "list",
          "type": "address[]"
        }
      ],
      "name": "FindAddress",
      "outputs": [
        {
          "internalType": "bool",
          "name": "",
          "type": "bool"
        }
      ],
      "stateMutability": "pure",
      "type": "function"
    },
    {
      "inputs": [
        {
          "internalType": "address",
          "name": "element",
          "type": "address"
        }
      ],
      "name": "AddressToBytes32",
      "outputs": [
        {
          "internalType": "bytes32",
          "name": "",
          "type": "bytes32"
        }
      ],
      "stateMutability": "pure",
      "type": "function"
    },
    {
      "inputs": [
        {
          "internalType": "bytes32",
          "name": "element",
          "type": "bytes32"
        }
      ],
      "name": "Bytes32ToAddress",
      "outputs": [
        {
          "internalType": "address",
          "name": "",
          "type": "address"
        }
      ],
      "stateMutability": "pure",
      "type": "function"
    },
    {
      "inputs": [
        {
          "internalType": "uint256",
          "name": "element",
          "type": "uint256"
        }
      ],
      "name": "UintToAddress",
      "outputs": [
        {
          "internalType": "address",
          "name": "",
          "type": "address"
        }
      ],
      "stateMutability": "pure",
      "type": "function"
    },
    {
      "inputs": [
        {
          "internalType": "address",
          "name": "element",
          "type": "address"
        }
      ],
      "name": "AddressToUint",
      "outputs": [
        {
          "internalType": "uint256",
          "name": "",
          "type": "uint256"
        }
      ],
      "stateMutability": "pure",
      "type": "function"
    }
  ],
  "bytecode": "0x61043f61003a600b82828239805160001a60731461002d57634e487b7160e01b600052600060045260246000fd5b30600052607381538281f3fe730000000000000000000000000000000000000000301460806040526004361061006c5760003560e01c80637873833e14610071578063b1e2771414610093578063bc215e85146100c1578063cf0668ed146100c1578063f4ce9ae814610093578063f7cf62d7146100e9575b600080fd5b81801561007d57600080fd5b5061009161008c36600461035d565b61010c565b005b6100a46100a1366004610344565b90565b6040516001600160a01b0390911681526020015b60405180910390f35b6100db6100cf366004610244565b6001600160a01b031690565b6040519081526020016100b8565b6100fc6100f7366004610266565b6101c0565b60405190151581526020016100b8565b8054819061011c9060019061037f565b8154811061012c5761012c6103dd565b9060005260206000200160009054906101000a90046001600160a01b031681838154811061015c5761015c6103dd565b9060005260206000200160006101000a8154816001600160a01b0302191690836001600160a01b031602179055508080548061019a5761019a6103c7565b600082815260209020810160001990810180546001600160a01b03191690550190555050565b6000805b825181101561021c578281815181106101df576101df6103dd565b60200260200101516001600160a01b0316846001600160a01b0316141561020a576001915050610222565b8061021481610396565b9150506101c4565b50600090505b92915050565b80356001600160a01b038116811461023f57600080fd5b919050565b60006020828403121561025657600080fd5b61025f82610228565b9392505050565b6000806040838503121561027957600080fd5b61028283610228565b91506020838101356001600160401b038082111561029f57600080fd5b818601915086601f8301126102b357600080fd5b8135818111156102c5576102c56103f3565b8060051b604051601f19603f830116810181811085821117156102ea576102ea6103f3565b604052828152858101935084860182860187018b101561030957600080fd5b600095505b838610156103335761031f81610228565b85526001959095019493860193860161030e565b508096505050505050509250929050565b60006020828403121561035657600080fd5b5035919050565b6000806040838503121561037057600080fd5b50508035926020909101359150565b600082821015610391576103916103b1565b500390565b60006000198214156103aa576103aa6103b1565b5060010190565b634e487b7160e01b600052601160045260246000fd5b634e487b7160e01b600052603160045260246000fd5b634e487b7160e01b600052603260045260246000fd5b634e487b7160e01b600052604160045260246000fdfea26469706673582212200c260a84156ff81bd8b83d40d2cf525e65089b7714c197ae419345f7aaa65b9264736f6c63430008070033",
  "immutableReferences": {},
  "source": "// SPDX-License-Identifier: GPL-3.0\r\n\r\npragma solidity >=0.7.0 <0.9.0;\r\n\r\n/**\r\n * @title Storage\r\n * @dev Store & retrieve value in a variable\r\n */\r\n\r\n import \"./Library.sol\";\r\n\r\nlibrary AddressLibrary{\r\n    using Library for *;\r\n\r\n    // auxiliary functions\r\n    function FindAddress(address add, address[] memory list) public pure returns (bool){\r\n        for(uint i=0; i < list.length; i++){\r\n            if(add == list[i]) return true;\r\n        }\r\n\r\n        return false;\r\n    }\r\n\r\n    function AddressArrayRemoveResize(uint index, address[] storage array) public \r\n    {\r\n        array[index] = array[array.length - 1];\r\n        array.pop();\r\n    }\r\n\r\n    function AddressToBytes32(address element) public pure returns(bytes32){\r\n        return bytes32(uint256(uint160(element)));\r\n    }\r\n\r\n    function Bytes32ToAddress(bytes32 element) public pure returns(address){\r\n        return address(uint160(uint256(element)));\r\n    }\r\n\r\n    function UintToAddress(uint element) public pure returns(address){\r\n        return address(uint160(element));\r\n    }\r\n\r\n    function AddressToUint(address element) public pure returns(uint){\r\n        return uint256(uint160(element));\r\n    }\r\n\r\n}",
  "sourcePath": "C:\\Users\\d-aam\\GitHub\\Certificates\\contracts\\Libraries\\AddressLibrary.sol",
  "compiler": {
    "name": "solc",
    "version": "0.8.7+commit.e28d00a7.Emscripten.clang"
  },
  "schemaVersion": "3.3.4",
  "updatedAt": "2021-08-19T06:39:00.981Z",
  "devdoc": {
    "kind": "dev",
    "methods": {},
    "version": 1
  },
  "userdoc": {
    "kind": "user",
    "methods": {},
    "version": 1
  }
}