{
  "contractName": "AddressLibrary",
  "abi": [
    {
      "inputs": [
        {
          "internalType": "address",
          "name": "add",
          "type": "address"
        },
        {
          "internalType": "address[]",
          "name": "list",
          "type": "address[]"
        }
      ],
      "name": "FindAddress",
      "outputs": [
        {
          "internalType": "bool",
          "name": "",
          "type": "bool"
        }
      ],
      "stateMutability": "pure",
      "type": "function"
    },
    {
      "inputs": [
        {
          "internalType": "address",
          "name": "add",
          "type": "address"
        },
        {
          "internalType": "address[]",
          "name": "list",
          "type": "address[]"
        }
      ],
      "name": "FindAddressPosition",
      "outputs": [
        {
          "internalType": "uint256",
          "name": "",
          "type": "uint256"
        }
      ],
      "stateMutability": "pure",
      "type": "function"
    },
    {
      "inputs": [
        {
          "internalType": "uint256",
          "name": "index",
          "type": "uint256"
        },
        {
          "internalType": "address[]",
          "name": "array",
          "type": "address[]"
        }
      ],
      "name": "AddressArrayRemoveResize",
      "outputs": [
        {
          "internalType": "address[]",
          "name": "",
          "type": "address[]"
        }
      ],
      "stateMutability": "pure",
      "type": "function"
    },
    {
      "inputs": [
        {
          "internalType": "address[]",
          "name": "array",
          "type": "address[]"
        }
      ],
      "name": "AddressArrayToBytes",
      "outputs": [
        {
          "internalType": "bytes32[]",
          "name": "",
          "type": "bytes32[]"
        }
      ],
      "stateMutability": "pure",
      "type": "function"
    },
    {
      "inputs": [
        {
          "internalType": "address",
          "name": "element",
          "type": "address"
        }
      ],
      "name": "AddressToBytes",
      "outputs": [
        {
          "internalType": "bytes32",
          "name": "",
          "type": "bytes32"
        }
      ],
      "stateMutability": "pure",
      "type": "function"
    },
    {
      "inputs": [
        {
          "internalType": "bytes32[]",
          "name": "array",
          "type": "bytes32[]"
        }
      ],
      "name": "BytesArrayToAddress",
      "outputs": [
        {
          "internalType": "address[]",
          "name": "",
          "type": "address[]"
        }
      ],
      "stateMutability": "pure",
      "type": "function"
    },
    {
      "inputs": [
        {
          "internalType": "bytes32",
          "name": "element",
          "type": "bytes32"
        }
      ],
      "name": "BytesToAddress",
      "outputs": [
        {
          "internalType": "address",
          "name": "",
          "type": "address"
        }
      ],
      "stateMutability": "pure",
      "type": "function"
    },
    {
      "inputs": [
        {
          "internalType": "address",
          "name": "element",
          "type": "address"
        }
      ],
      "name": "AddressToString",
      "outputs": [
        {
          "internalType": "string",
          "name": "",
          "type": "string"
        }
      ],
      "stateMutability": "pure",
      "type": "function"
    },
    {
      "inputs": [
        {
          "internalType": "uint256",
          "name": "element",
          "type": "uint256"
        }
      ],
      "name": "UintToAddress",
      "outputs": [
        {
          "internalType": "address",
          "name": "",
          "type": "address"
        }
      ],
      "stateMutability": "pure",
      "type": "function"
    },
    {
      "inputs": [
        {
          "internalType": "address",
          "name": "element",
          "type": "address"
        }
      ],
      "name": "AddressToUint",
      "outputs": [
        {
          "internalType": "uint256",
          "name": "",
          "type": "uint256"
        }
      ],
      "stateMutability": "pure",
      "type": "function"
    }
  ],
  "bytecode": "0x610a9261003a600b82828239805160001a60731461002d57634e487b7160e01b600052600060045260246000fd5b30600052607381538281f3fe73000000000000000000000000000000000000000030146080604052600436106100985760003560e01c80630d2de2eb1461009d5780632491ddcc146100c65780634d84c524146100e65780635f2e8a5d146101075780638973ed3a1461011a578063b12447581461013a578063b1e277141461013a578063cf0668ed14610163578063f7cf62d71461017d578063ffe6eda1146101a0575b600080fd5b6100b06100ab36600461064a565b6101b3565b6040516100bd9190610925565b60405180910390f35b6100d96100d436600461086d565b610260565b6040516100bd91906108d8565b6100f96100f43660046105e2565b610171565b6040519081526020016100bd565b6100d9610115366004610686565b610303565b61012d6101283660046105e2565b6103b4565b6040516100bd9190610951565b61014b6101483660046107a8565b90565b6040516001600160a01b0390911681526020016100bd565b6100f96101713660046105e2565b6001600160a01b031690565b61019061018b3660046105fd565b61044b565b60405190151581526020016100bd565b6100f96101ae3660046105fd565b6104b1565b6060600082516001600160401b038111156101d0576101d0610a46565b6040519080825280602002602001820160405280156101f9578160200160208202803683370190505b50905060005b81518110156102595761022a84828151811061021d5761021d610a30565b6020026020010151610171565b82828151811061023c5761023c610a30565b60209081029190910101528061025181610a07565b9150506101ff565b5092915050565b60606102fa73__Library_______________________________635b28cf6385610289866101b3565b6040518363ffffffff1660e01b81526004016102a6929190610938565b60006040518083038186803b1580156102be57600080fd5b505af41580156102d2573d6000803e3d6000fd5b505050506040513d6000823e601f3d908101601f19168201604052610115919081019061071d565b90505b92915050565b6060600082516001600160401b0381111561032057610320610a46565b604051908082528060200260200182016040528015610349578160200160208202803683370190505b50905060005b81518110156102595761037884828151811061036d5761036d610a30565b602002602001015190565b82828151811061038a5761038a610a30565b6001600160a01b0390921660209283029190910190910152806103ac81610a07565b91505061034f565b606073__Library_______________________________63587eda656103d984610171565b6040518263ffffffff1660e01b81526004016103f791815260200190565b60006040518083038186803b15801561040f57600080fd5b505af4158015610423573d6000803e3d6000fd5b505050506040513d6000823e601f3d908101601f191682016040526102fd91908101906107c1565b6000805b82518110156104a75782818151811061046a5761046a610a30565b60200260200101516001600160a01b0316846001600160a01b031614156104955760019150506102fd565b8061049f81610a07565b91505061044f565b5060009392505050565b600073__Library_______________________________632b01313e6001600160a01b0385166104e0856101b3565b6040518363ffffffff1660e01b81526004016104fd929190610938565b60206040518083038186803b15801561051557600080fd5b505af4158015610529573d6000803e3d6000fd5b505050506040513d601f19601f820116820180604052508101906102fa9190610854565b80356001600160a01b038116811461056457600080fd5b919050565b600082601f83011261057a57600080fd5b8135602061058f61058a836109b4565b610984565b80838252828201915082860187848660051b89010111156105af57600080fd5b60005b858110156105d5576105c38261054d565b845292840192908401906001016105b2565b5090979650505050505050565b6000602082840312156105f457600080fd5b6102fa8261054d565b6000806040838503121561061057600080fd5b6106198361054d565b915060208301356001600160401b0381111561063457600080fd5b61064085828601610569565b9150509250929050565b60006020828403121561065c57600080fd5b81356001600160401b0381111561067257600080fd5b61067e84828501610569565b949350505050565b6000602080838503121561069957600080fd5b82356001600160401b038111156106af57600080fd5b8301601f810185136106c057600080fd5b80356106ce61058a826109b4565b80828252848201915084840188868560051b87010111156106ee57600080fd5b600094505b838510156107115780358352600194909401939185019185016106f3565b50979650505050505050565b6000602080838503121561073057600080fd5b82516001600160401b0381111561074657600080fd5b8301601f8101851361075757600080fd5b805161076561058a826109b4565b80828252848201915084840188868560051b870101111561078557600080fd5b600094505b8385101561071157805183526001949094019391850191850161078a565b6000602082840312156107ba57600080fd5b5035919050565b6000602082840312156107d357600080fd5b81516001600160401b03808211156107ea57600080fd5b818401915084601f8301126107fe57600080fd5b81518181111561081057610810610a46565b610823601f8201601f1916602001610984565b915080825285602082850101111561083a57600080fd5b61084b8160208401602086016109d7565b50949350505050565b60006020828403121561086657600080fd5b5051919050565b6000806040838503121561088057600080fd5b8235915060208301356001600160401b0381111561063457600080fd5b600081518084526020808501945080840160005b838110156108cd578151875295820195908201906001016108b1565b509495945050505050565b6020808252825182820181905260009190848201906040850190845b818110156109195783516001600160a01b0316835292840192918401916001016108f4565b50909695505050505050565b6020815260006102fa602083018461089d565b82815260406020820152600061067e604083018461089d565b60208152600082518060208401526109708160408501602087016109d7565b601f01601f19169190910160400192915050565b604051601f8201601f191681016001600160401b03811182821017156109ac576109ac610a46565b604052919050565b60006001600160401b038211156109cd576109cd610a46565b5060051b60200190565b60005b838110156109f25781810151838201526020016109da565b83811115610a01576000848401525b50505050565b6000600019821415610a2957634e487b7160e01b600052601160045260246000fd5b5060010190565b634e487b7160e01b600052603260045260246000fd5b634e487b7160e01b600052604160045260246000fdfea26469706673582212208c39c88be5ed86c4b3a37536e0c6b857a867e7849cbdffc63c80888eec475bf764736f6c63430008060033",
  "immutableReferences": {},
  "source": "// SPDX-License-Identifier: GPL-3.0\r\n\r\npragma solidity >=0.7.0 <0.9.0;\r\npragma experimental ABIEncoderV2;\r\n\r\n/**\r\n * @title Storage\r\n * @dev Store & retrieve value in a variable\r\n */\r\n\r\n import \"./Library.sol\";\r\n\r\nlibrary AddressLibrary{\r\n    using Library for *;\r\n\r\n    // auxiliary functions\r\n    function FindAddress(address add, address[] memory list) public pure returns (bool){\r\n        for(uint i=0; i < list.length; i++){\r\n            if(add == list[i]) return true;\r\n        }\r\n\r\n        return false;\r\n    }\r\n\r\n    function FindAddressPosition(address add, address[] memory list) public pure returns (uint){\r\n        return Library.FindPosition(bytes32(uint256(uint160(add))), AddressArrayToBytes(list));\r\n    }\r\n\r\n    function AddressArrayRemoveResize(uint index, address[] memory array) public \r\n    pure returns(address[] memory) \r\n    {\r\n        return BytesArrayToAddress(Library.ArrayRemoveResize(index, AddressArrayToBytes(array)));\r\n    }\r\n\r\n    function AddressArrayToBytes(address[] memory array) public pure returns(bytes32[] memory){\r\n        bytes32[] memory arrayInBytes = new bytes32[](array.length);\r\n\r\n        for(uint i=0; i < arrayInBytes.length; i++){\r\n            arrayInBytes[i] = AddressToBytes(array[i]);\r\n        }\r\n\r\n        return arrayInBytes;\r\n    }\r\n\r\n    function AddressToBytes(address element) public pure returns(bytes32){\r\n        return bytes32(uint256(uint160(element)));\r\n    }\r\n\r\n    function BytesArrayToAddress(bytes32[] memory array) public pure returns(address[] memory){\r\n        address[] memory arrayInAddress = new address[](array.length);\r\n\r\n        for(uint i=0; i < arrayInAddress.length; i++){\r\n            arrayInAddress[i] = BytesToAddress(array[i]);\r\n        }\r\n\r\n        return arrayInAddress;\r\n    }\r\n\r\n    function BytesToAddress(bytes32 element) public pure returns(address){\r\n        return address(uint160(uint256(element)));\r\n    }\r\n\r\n    function AddressToString(address element) public pure returns(string memory){\r\n        return Library.BytesToString(AddressToBytes(element));\r\n    }\r\n\r\n    function UintToAddress(uint element) public pure returns(address){\r\n        return address(uint160(element));\r\n    }\r\n\r\n    function AddressToUint(address element) public pure returns(uint){\r\n        return uint256(uint160(element));\r\n    }\r\n\r\n}",
  "sourcePath": "C:\\Users\\d-aam\\GitHub\\Certificates\\contracts\\Libraries\\AddressLibrary.sol",
  "compiler": {
    "name": "solc",
    "version": "0.8.6+commit.11564f7e.Emscripten.clang"
  },
  "schemaVersion": "3.3.4",
  "updatedAt": "2021-07-29T14:10:13.796Z",
  "devdoc": {
    "kind": "dev",
    "methods": {},
    "version": 1
  },
  "userdoc": {
    "kind": "user",
    "methods": {},
    "version": 1
  }
}