{
  "contractName": "AddressLibrary",
  "abi": [
    {
      "inputs": [
        {
          "internalType": "address",
          "name": "add",
          "type": "address"
        },
        {
          "internalType": "address[]",
          "name": "list",
          "type": "address[]"
        }
      ],
      "name": "FindAddress",
      "outputs": [
        {
          "internalType": "bool",
          "name": "",
          "type": "bool"
        }
      ],
      "stateMutability": "pure",
      "type": "function"
    },
    {
      "inputs": [
        {
          "internalType": "address",
          "name": "add",
          "type": "address"
        },
        {
          "internalType": "address[]",
          "name": "list",
          "type": "address[]"
        }
      ],
      "name": "FindAddressPosition",
      "outputs": [
        {
          "internalType": "uint256",
          "name": "",
          "type": "uint256"
        }
      ],
      "stateMutability": "pure",
      "type": "function"
    },
    {
      "inputs": [
        {
          "internalType": "uint256",
          "name": "index",
          "type": "uint256"
        },
        {
          "internalType": "address[]",
          "name": "array",
          "type": "address[]"
        }
      ],
      "name": "AddressArrayRemoveResize",
      "outputs": [
        {
          "internalType": "address[]",
          "name": "",
          "type": "address[]"
        }
      ],
      "stateMutability": "pure",
      "type": "function"
    },
    {
      "inputs": [
        {
          "internalType": "address[]",
          "name": "array",
          "type": "address[]"
        }
      ],
      "name": "AddressArrayToBytes",
      "outputs": [
        {
          "internalType": "bytes32[]",
          "name": "",
          "type": "bytes32[]"
        }
      ],
      "stateMutability": "pure",
      "type": "function"
    },
    {
      "inputs": [
        {
          "internalType": "address",
          "name": "element",
          "type": "address"
        }
      ],
      "name": "AddressToBytes",
      "outputs": [
        {
          "internalType": "bytes32",
          "name": "",
          "type": "bytes32"
        }
      ],
      "stateMutability": "pure",
      "type": "function"
    },
    {
      "inputs": [
        {
          "internalType": "bytes32[]",
          "name": "array",
          "type": "bytes32[]"
        }
      ],
      "name": "BytesArrayToAddress",
      "outputs": [
        {
          "internalType": "address[]",
          "name": "",
          "type": "address[]"
        }
      ],
      "stateMutability": "pure",
      "type": "function"
    },
    {
      "inputs": [
        {
          "internalType": "bytes32",
          "name": "element",
          "type": "bytes32"
        }
      ],
      "name": "BytesToAddress",
      "outputs": [
        {
          "internalType": "address",
          "name": "",
          "type": "address"
        }
      ],
      "stateMutability": "pure",
      "type": "function"
    },
    {
      "inputs": [
        {
          "internalType": "address",
          "name": "element",
          "type": "address"
        }
      ],
      "name": "AddressToString",
      "outputs": [
        {
          "internalType": "string",
          "name": "",
          "type": "string"
        }
      ],
      "stateMutability": "pure",
      "type": "function"
    }
  ],
  "bytecode": "0x610a6e61003a600b82828239805160001a60731461002d57634e487b7160e01b600052600060045260246000fd5b30600052607381538281f3fe73000000000000000000000000000000000000000030146080604052600436106100825760003560e01c80630d2de2eb146100875780632491ddcc146100b05780634d84c524146100d05780635f2e8a5d146100f15780638973ed3a14610104578063b124475814610124578063f7cf62d71461014d578063ffe6eda114610170575b600080fd5b61009a610095366004610626565b610183565b6040516100a79190610901565b60405180910390f35b6100c36100be366004610849565b610230565b6040516100a791906108b4565b6100e36100de3660046105be565b6102d3565b6040519081526020016100a7565b6100c36100ff366004610662565b6102df565b6101176101123660046105be565b610390565b6040516100a7919061092d565b610135610132366004610784565b90565b6040516001600160a01b0390911681526020016100a7565b61016061015b3660046105d9565b610427565b60405190151581526020016100a7565b6100e361017e3660046105d9565b61048d565b6060600082516001600160401b038111156101a0576101a0610a22565b6040519080825280602002602001820160405280156101c9578160200160208202803683370190505b50905060005b8151811015610229576101fa8482815181106101ed576101ed610a0c565b60200260200101516102d3565b82828151811061020c5761020c610a0c565b602090810291909101015280610221816109e3565b9150506101cf565b5092915050565b60606102ca73__Library_______________________________635b28cf638561025986610183565b6040518363ffffffff1660e01b8152600401610276929190610914565b60006040518083038186803b15801561028e57600080fd5b505af41580156102a2573d6000803e3d6000fd5b505050506040513d6000823e601f3d908101601f191682016040526100ff91908101906106f9565b90505b92915050565b6001600160a01b031690565b6060600082516001600160401b038111156102fc576102fc610a22565b604051908082528060200260200182016040528015610325578160200160208202803683370190505b50905060005b81518110156102295761035484828151811061034957610349610a0c565b602002602001015190565b82828151811061036657610366610a0c565b6001600160a01b039092166020928302919091019091015280610388816109e3565b91505061032b565b606073__Library_______________________________63587eda656103b5846102d3565b6040518263ffffffff1660e01b81526004016103d391815260200190565b60006040518083038186803b1580156103eb57600080fd5b505af41580156103ff573d6000803e3d6000fd5b505050506040513d6000823e601f3d908101601f191682016040526102cd919081019061079d565b6000805b82518110156104835782818151811061044657610446610a0c565b60200260200101516001600160a01b0316846001600160a01b031614156104715760019150506102cd565b8061047b816109e3565b91505061042b565b5060009392505050565b600073__Library_______________________________632b01313e6001600160a01b0385166104bc85610183565b6040518363ffffffff1660e01b81526004016104d9929190610914565b60206040518083038186803b1580156104f157600080fd5b505af4158015610505573d6000803e3d6000fd5b505050506040513d601f19601f820116820180604052508101906102ca9190610830565b80356001600160a01b038116811461054057600080fd5b919050565b600082601f83011261055657600080fd5b8135602061056b61056683610990565b610960565b80838252828201915082860187848660051b890101111561058b57600080fd5b60005b858110156105b15761059f82610529565b8452928401929084019060010161058e565b5090979650505050505050565b6000602082840312156105d057600080fd5b6102ca82610529565b600080604083850312156105ec57600080fd5b6105f583610529565b915060208301356001600160401b0381111561061057600080fd5b61061c85828601610545565b9150509250929050565b60006020828403121561063857600080fd5b81356001600160401b0381111561064e57600080fd5b61065a84828501610545565b949350505050565b6000602080838503121561067557600080fd5b82356001600160401b0381111561068b57600080fd5b8301601f8101851361069c57600080fd5b80356106aa61056682610990565b80828252848201915084840188868560051b87010111156106ca57600080fd5b600094505b838510156106ed5780358352600194909401939185019185016106cf565b50979650505050505050565b6000602080838503121561070c57600080fd5b82516001600160401b0381111561072257600080fd5b8301601f8101851361073357600080fd5b805161074161056682610990565b80828252848201915084840188868560051b870101111561076157600080fd5b600094505b838510156106ed578051835260019490940193918501918501610766565b60006020828403121561079657600080fd5b5035919050565b6000602082840312156107af57600080fd5b81516001600160401b03808211156107c657600080fd5b818401915084601f8301126107da57600080fd5b8151818111156107ec576107ec610a22565b6107ff601f8201601f1916602001610960565b915080825285602082850101111561081657600080fd5b6108278160208401602086016109b3565b50949350505050565b60006020828403121561084257600080fd5b5051919050565b6000806040838503121561085c57600080fd5b8235915060208301356001600160401b0381111561061057600080fd5b600081518084526020808501945080840160005b838110156108a95781518752958201959082019060010161088d565b509495945050505050565b6020808252825182820181905260009190848201906040850190845b818110156108f55783516001600160a01b0316835292840192918401916001016108d0565b50909695505050505050565b6020815260006102ca6020830184610879565b82815260406020820152600061065a6040830184610879565b602081526000825180602084015261094c8160408501602087016109b3565b601f01601f19169190910160400192915050565b604051601f8201601f191681016001600160401b038111828210171561098857610988610a22565b604052919050565b60006001600160401b038211156109a9576109a9610a22565b5060051b60200190565b60005b838110156109ce5781810151838201526020016109b6565b838111156109dd576000848401525b50505050565b6000600019821415610a0557634e487b7160e01b600052601160045260246000fd5b5060010190565b634e487b7160e01b600052603260045260246000fd5b634e487b7160e01b600052604160045260246000fdfea2646970667358221220a0f5a05383251b34ac9515442d1d0e0644b9f08d5edc81d997ba8a60c25b838a64736f6c63430008060033",
  "immutableReferences": {},
  "source": "// SPDX-License-Identifier: GPL-3.0\r\n\r\npragma solidity >=0.7.0 <0.9.0;\r\npragma experimental ABIEncoderV2;\r\n\r\n/**\r\n * @title Storage\r\n * @dev Store & retrieve value in a variable\r\n */\r\n\r\n import \"./Library.sol\";\r\n\r\nlibrary AddressLibrary{\r\n    using Library for *;\r\n\r\n    // auxiliary functions\r\n    function FindAddress(address add, address[] memory list) public pure returns (bool){\r\n        for(uint i=0; i < list.length; i++){\r\n            if(add == list[i]) return true;\r\n        }\r\n\r\n        return false;\r\n    }\r\n\r\n    function FindAddressPosition(address add, address[] memory list) public pure returns (uint){\r\n        return Library.FindPosition(bytes32(uint256(uint160(add))), AddressArrayToBytes(list));\r\n    }\r\n\r\n    function AddressArrayRemoveResize(uint index, address[] memory array) public \r\n    pure returns(address[] memory) \r\n    {\r\n        return BytesArrayToAddress(Library.ArrayRemoveResize(index, AddressArrayToBytes(array)));\r\n    }\r\n\r\n    function AddressArrayToBytes(address[] memory array) public pure returns(bytes32[] memory){\r\n        bytes32[] memory arrayInBytes = new bytes32[](array.length);\r\n\r\n        for(uint i=0; i < arrayInBytes.length; i++){\r\n            arrayInBytes[i] = AddressToBytes(array[i]);\r\n        }\r\n\r\n        return arrayInBytes;\r\n    }\r\n\r\n    function AddressToBytes(address element) public pure returns(bytes32){\r\n        return bytes32(uint256(uint160(element)));\r\n    }\r\n\r\n    function BytesArrayToAddress(bytes32[] memory array) public pure returns(address[] memory){\r\n        address[] memory arrayInAddress = new address[](array.length);\r\n\r\n        for(uint i=0; i < arrayInAddress.length; i++){\r\n            arrayInAddress[i] = BytesToAddress(array[i]);\r\n        }\r\n\r\n        return arrayInAddress;\r\n    }\r\n\r\n    function BytesToAddress(bytes32 element) public pure returns(address){\r\n        return address(uint160(uint256(element)));\r\n    }\r\n\r\n    function AddressToString(address element) public pure returns(string memory){\r\n        return Library.BytesToString(AddressToBytes(element));\r\n    }\r\n\r\n}",
  "sourcePath": "C:\\Users\\d-aam\\GitHub\\Certificates\\contracts\\Libraries\\AddressLibrary.sol",
  "compiler": {
    "name": "solc",
    "version": "0.8.6+commit.11564f7e.Emscripten.clang"
  },
  "schemaVersion": "3.3.4",
  "updatedAt": "2021-07-27T09:38:25.049Z",
  "devdoc": {
    "kind": "dev",
    "methods": {},
    "version": 1
  },
  "userdoc": {
    "kind": "user",
    "methods": {},
    "version": 1
  }
}