{
  "contractName": "Admin",
  "abi": [
    {
      "anonymous": false,
      "inputs": [
        {
          "indexed": false,
          "internalType": "uint256",
          "name": "Id",
          "type": "uint256"
        },
        {
          "indexed": true,
          "internalType": "address",
          "name": "Proposer",
          "type": "address"
        },
        {
          "indexed": false,
          "internalType": "uint256",
          "name": "Deadline",
          "type": "uint256"
        },
        {
          "indexed": false,
          "internalType": "uint256",
          "name": "Threshold",
          "type": "uint256"
        }
      ],
      "name": "_AddedProposition",
      "type": "event"
    },
    {
      "anonymous": false,
      "inputs": [
        {
          "indexed": false,
          "internalType": "uint256",
          "name": "Id",
          "type": "uint256"
        },
        {
          "indexed": true,
          "internalType": "address",
          "name": "Proposer",
          "type": "address"
        }
      ],
      "name": "_CancelledProposition",
      "type": "event"
    },
    {
      "anonymous": false,
      "inputs": [
        {
          "indexed": false,
          "internalType": "address",
          "name": "Admin",
          "type": "address"
        }
      ],
      "name": "_NewAdmin",
      "type": "event"
    },
    {
      "anonymous": false,
      "inputs": [
        {
          "indexed": false,
          "internalType": "address",
          "name": "Manager",
          "type": "address"
        }
      ],
      "name": "_NewManager",
      "type": "event"
    },
    {
      "anonymous": false,
      "inputs": [
        {
          "indexed": false,
          "internalType": "uint256",
          "name": "Id",
          "type": "uint256"
        },
        {
          "indexed": true,
          "internalType": "address",
          "name": "Proposer",
          "type": "address"
        },
        {
          "indexed": false,
          "internalType": "uint256",
          "name": "VotesFor",
          "type": "uint256"
        },
        {
          "indexed": false,
          "internalType": "uint256",
          "name": "VotesAgainst",
          "type": "uint256"
        }
      ],
      "name": "_PropositionApproved",
      "type": "event"
    },
    {
      "anonymous": false,
      "inputs": [
        {
          "indexed": false,
          "internalType": "uint256",
          "name": "Id",
          "type": "uint256"
        },
        {
          "indexed": true,
          "internalType": "address",
          "name": "Proposer",
          "type": "address"
        },
        {
          "indexed": false,
          "internalType": "uint256",
          "name": "VotesFor",
          "type": "uint256"
        },
        {
          "indexed": false,
          "internalType": "uint256",
          "name": "VotesAgainst",
          "type": "uint256"
        }
      ],
      "name": "_PropositionRejected",
      "type": "event"
    },
    {
      "anonymous": false,
      "inputs": [
        {
          "indexed": false,
          "internalType": "uint256",
          "name": "Id",
          "type": "uint256"
        },
        {
          "indexed": true,
          "internalType": "address",
          "name": "Voter",
          "type": "address"
        },
        {
          "indexed": false,
          "internalType": "bool",
          "name": "Vote",
          "type": "bool"
        },
        {
          "indexed": false,
          "internalType": "uint256",
          "name": "AmountTokens",
          "type": "uint256"
        }
      ],
      "name": "_PropositionVote",
      "type": "event"
    },
    {
      "anonymous": false,
      "inputs": [
        {
          "indexed": true,
          "internalType": "uint256",
          "name": "Id",
          "type": "uint256"
        },
        {
          "indexed": false,
          "internalType": "address",
          "name": "From",
          "type": "address"
        },
        {
          "indexed": false,
          "internalType": "address",
          "name": "To",
          "type": "address"
        },
        {
          "indexed": false,
          "internalType": "uint256",
          "name": "Amount",
          "type": "uint256"
        }
      ],
      "name": "_UsedTokensTransfered",
      "type": "event"
    },
    {
      "inputs": [
        {
          "internalType": "address",
          "name": "chairPerson",
          "type": "address"
        },
        {
          "internalType": "address",
          "name": "managerContractAddress",
          "type": "address"
        },
        {
          "internalType": "string",
          "name": "contractName",
          "type": "string"
        },
        {
          "internalType": "string",
          "name": "contractVersion",
          "type": "string"
        }
      ],
      "name": "StdPropositionBaseContract_init",
      "outputs": [],
      "stateMutability": "nonpayable",
      "type": "function"
    },
    {
      "inputs": [],
      "name": "cancelProposition",
      "outputs": [],
      "stateMutability": "nonpayable",
      "type": "function"
    },
    {
      "inputs": [
        {
          "internalType": "address",
          "name": "from",
          "type": "address"
        },
        {
          "internalType": "address",
          "name": "to",
          "type": "address"
        },
        {
          "internalType": "uint256",
          "name": "amount",
          "type": "uint256"
        }
      ],
      "name": "onTokenBalanceChanged",
      "outputs": [],
      "stateMutability": "nonpayable",
      "type": "function"
    },
    {
      "inputs": [],
      "name": "retrieveChairPerson",
      "outputs": [
        {
          "internalType": "address",
          "name": "",
          "type": "address"
        }
      ],
      "stateMutability": "view",
      "type": "function"
    },
    {
      "inputs": [],
      "name": "retrieveContractConfig",
      "outputs": [
        {
          "internalType": "string",
          "name": "",
          "type": "string"
        },
        {
          "internalType": "string",
          "name": "",
          "type": "string"
        }
      ],
      "stateMutability": "view",
      "type": "function"
    },
    {
      "inputs": [],
      "name": "retrieveManagerContract",
      "outputs": [
        {
          "internalType": "address",
          "name": "",
          "type": "address"
        }
      ],
      "stateMutability": "view",
      "type": "function"
    },
    {
      "inputs": [],
      "name": "retrieveNextPropId",
      "outputs": [
        {
          "internalType": "uint256",
          "name": "",
          "type": "uint256"
        }
      ],
      "stateMutability": "view",
      "type": "function"
    },
    {
      "inputs": [
        {
          "internalType": "address",
          "name": "addr",
          "type": "address"
        },
        {
          "internalType": "uint256",
          "name": "nonce",
          "type": "uint256"
        }
      ],
      "name": "retrieveNonce",
      "outputs": [
        {
          "internalType": "bool",
          "name": "",
          "type": "bool"
        }
      ],
      "stateMutability": "view",
      "type": "function"
    },
    {
      "inputs": [],
      "name": "retrieveProposition",
      "outputs": [
        {
          "internalType": "bytes[]",
          "name": "",
          "type": "bytes[]"
        }
      ],
      "stateMutability": "view",
      "type": "function"
    },
    {
      "inputs": [],
      "name": "retrievePropositionStatus",
      "outputs": [
        {
          "internalType": "address",
          "name": "",
          "type": "address"
        },
        {
          "internalType": "uint256",
          "name": "",
          "type": "uint256"
        },
        {
          "internalType": "uint256",
          "name": "",
          "type": "uint256"
        },
        {
          "internalType": "uint256",
          "name": "",
          "type": "uint256"
        },
        {
          "internalType": "uint256",
          "name": "",
          "type": "uint256"
        }
      ],
      "stateMutability": "view",
      "type": "function"
    },
    {
      "inputs": [
        {
          "internalType": "uint256",
          "name": "PropId",
          "type": "uint256"
        },
        {
          "internalType": "address",
          "name": "voter",
          "type": "address"
        }
      ],
      "name": "retrieveVotesForVoter",
      "outputs": [
        {
          "internalType": "uint256",
          "name": "",
          "type": "uint256"
        }
      ],
      "stateMutability": "view",
      "type": "function"
    },
    {
      "inputs": [
        {
          "internalType": "bytes[]",
          "name": "NewValues",
          "type": "bytes[]"
        }
      ],
      "name": "sendProposition",
      "outputs": [],
      "stateMutability": "nonpayable",
      "type": "function"
    },
    {
      "inputs": [
        {
          "internalType": "bool",
          "name": "vote",
          "type": "bool"
        }
      ],
      "name": "voteProposition",
      "outputs": [],
      "stateMutability": "nonpayable",
      "type": "function"
    },
    {
      "inputs": [
        {
          "internalType": "address",
          "name": "voter",
          "type": "address"
        },
        {
          "internalType": "uint256",
          "name": "propID",
          "type": "uint256"
        },
        {
          "internalType": "bool",
          "name": "vote",
          "type": "bool"
        },
        {
          "internalType": "uint256",
          "name": "nonce",
          "type": "uint256"
        },
        {
          "internalType": "uint256",
          "name": "deadline",
          "type": "uint256"
        },
        {
          "internalType": "bytes",
          "name": "signature",
          "type": "bytes"
        }
      ],
      "name": "votePropositionOnBehalfOf",
      "outputs": [],
      "stateMutability": "nonpayable",
      "type": "function"
    },
    {
      "inputs": [
        {
          "internalType": "string",
          "name": "contractName",
          "type": "string"
        },
        {
          "internalType": "string",
          "name": "contractVersion",
          "type": "string"
        },
        {
          "internalType": "address",
          "name": "managerContract",
          "type": "address"
        },
        {
          "internalType": "bytes",
          "name": "managerInit",
          "type": "bytes"
        }
      ],
      "name": "Admin_init",
      "outputs": [],
      "stateMutability": "nonpayable",
      "type": "function"
    },
    {
      "inputs": [
        {
          "internalType": "string",
          "name": "contractName",
          "type": "string"
        },
        {
          "internalType": "string",
          "name": "contractVersion",
          "type": "string"
        },
        {
          "internalType": "address payable",
          "name": "managerContractProxyAddress",
          "type": "address"
        },
        {
          "internalType": "address",
          "name": "AdminProxyAddress",
          "type": "address"
        }
      ],
      "name": "Admin_init_redeploy",
      "outputs": [],
      "stateMutability": "nonpayable",
      "type": "function"
    },
    {
      "inputs": [],
      "name": "retrieveAdminProxy",
      "outputs": [
        {
          "internalType": "address",
          "name": "",
          "type": "address"
        }
      ],
      "stateMutability": "view",
      "type": "function"
    },
    {
      "inputs": [],
      "name": "retrieveManagerProxy",
      "outputs": [
        {
          "internalType": "address",
          "name": "",
          "type": "address"
        }
      ],
      "stateMutability": "view",
      "type": "function"
    },
    {
      "inputs": [],
      "name": "retrieveManager",
      "outputs": [
        {
          "internalType": "address",
          "name": "",
          "type": "address"
        }
      ],
      "stateMutability": "view",
      "type": "function"
    }
  ],
  "bytecode": "0x608060405234801561001057600080fd5b50614420806100206000396000f3fe60806040523480156200001157600080fd5b5060043610620001065760003560e01c806304cc67a9146200010b5780630f13bbc91462000122578063111610d8146200013b5780633c7df55d14620001575780633feca4ca146200016e5780634044adb214620001bb57806355457ee914620001f457806355c9a93614620001fe5780635b362e8414620002155780637213615e146200022d5780637faa3d6f1462000244578063840f6d17146200025b5780638c080e3f146200029d57806391f9167114620002a7578063a93316f514620002be578063d2116a0214620002d7578063db85bc4d14620002f1578063e15aa3a61462000303578063e9b894df146200031a575b600080fd5b600b545b6040519081526020015b60405180910390f35b62000139620001333660046200231d565b6200032c565b005b600f546001600160a01b03165b60405162000119919062002983565b6200013962000168366004620023b0565b620003b9565b620001aa6200017f366004620023f6565b6001600160a01b03919091166000908152600260209081526040808320938352929052205460ff1690565b604051901515815260200162000119565b6200010f620001cc3660046200282c565b6000918252600c602090815260408084206001600160a01b0393909316845291905290205490565b62000139620004e4565b620001396200020f36600462002785565b620005be565b6003546201000090046001600160a01b031662000148565b620001396200023e366004620026f2565b620006d2565b620001396200025536600462002425565b6200076b565b600654600754600854600954600a54604080516001600160a01b0390961686526020860194909452928401919091526060830152608082015260a00162000119565b620001486200078f565b62000139620002b8366004620026b2565b62000822565b620002c862000831565b60405162000119919062002a61565b620002e162000914565b6040516200011992919062002af1565b6004546001600160a01b031662000148565b6200013962000314366004620025ef565b62000a4b565b600e546001600160a01b031662000148565b600354610100900460ff168062000346575060035460ff16155b6200036e5760405162461bcd60e51b8152600401620003659062002b1a565b60405180910390fd5b600354610100900460ff1615801562000391576003805461ffff19166101011790555b6200039f8585858562000ad2565b8015620003b2576003805461ff00191690555b5050505050565b3373__Library_______________________________6337ea306382600360029054906101000a90046001600160a01b03166001600160a01b031663e220ad956040518163ffffffff1660e01b815260040160006040518083038186803b1580156200042457600080fd5b505afa15801562000439573d6000803e3d6000fd5b505050506040513d6000823e601f3d908101601f19168201604052620004639190810190620024aa565b60028151811062000478576200047862002cac565b60200260200101516040518363ffffffff1660e01b81526004016200049f92919062002997565b60006040518083038186803b158015620004b857600080fd5b505af4158015620004cd573d6000803e3d6000fd5b50505050620004de84848462000b65565b50505050565b6001620004f18162000b8c565b6006546040516337ea306360e01b8152339173__Library_______________________________916337ea306391620005399185916001600160a01b03169060040162002997565b60006040518083038186803b1580156200055257600080fd5b505af415801562000567573d6000803e3d6000fd5b505050506200057562000c19565b6006546005546040519081526001600160a01b03909116907f1fe8aec10c0a50fa765076161e08c1f961ced69594ff45cf7d559f593afe14799060200160405180910390a25050565b600354610100900460ff1680620005d8575060035460ff16155b620005f75760405162461bcd60e51b8152600401620003659062002b1a565b600354610100900460ff161580156200061a576003805461ffff19166101011790555b604051620006289062002145565b604051809103906000f08015801562000645573d6000803e3d6000fd5b50600f80546001600160a01b0319166001600160a01b039290921691821790556040518491908490620006789062002153565b6200068693929190620029b1565b604051809103906000f080158015620006a3573d6000803e3d6000fd5b50600e80546001600160a01b0319166001600160a01b039290921691821790556200039f90339087876200032c565b600354610100900460ff1680620006ec575060035460ff16155b6200070b5760405162461bcd60e51b8152600401620003659062002b1a565b600354610100900460ff161580156200072e576003805461ffff19166101011790555b600f80546001600160a01b038085166001600160a01b031992831617909255600e805492861692909116821790556200039f90339087876200032c565b6200077b86868686868662000c44565b62000787868562000db2565b505050505050565b600f54600e546040516310270e3d60e11b81526000926001600160a01b039081169263204e1c7a92620007c9929091169060040162002983565b60206040518083038186803b158015620007e257600080fd5b505afa158015620007f7573d6000803e3d6000fd5b505050506040513d601f19601f820116820180604052508101906200081d9190620022fd565b905090565b6200082e338262000db2565b50565b6060600d805480602002602001604051908101604052809291908181526020016000905b828210156200090b578382906000526020600020018054620008779062002c3b565b80601f0160208091040260200160405190810160405280929190818152602001828054620008a59062002c3b565b8015620008f65780601f10620008ca57610100808354040283529160200191620008f6565b820191906000526020600020905b815481529060010190602001808311620008d857829003601f168201915b50505050508152602001906001019062000855565b50505050905090565b60608060006001818054620009299062002c3b565b80601f0160208091040260200160405190810160405280929190818152602001828054620009579062002c3b565b8015620009a85780601f106200097c57610100808354040283529160200191620009a8565b820191906000526020600020905b8154815290600101906020018083116200098a57829003601f168201915b50505050509150808054620009bd9062002c3b565b80601f0160208091040260200160405190810160405280929190818152602001828054620009eb9062002c3b565b801562000a3c5780601f1062000a105761010080835404028352916020019162000a3c565b820191906000526020600020905b81548152906001019060200180831162000a1e57829003601f168201915b50505050509050915091509091565b62000a568162000edb565b62000a60620011e1565b60005b815181101562000ace57600d82828151811062000a845762000a8462002cac565b6020908102919091018101518254600181018455600093845292829020815162000ab8949190910192919091019062002161565b508062000ac58162002c78565b91505062000a63565b5050565b600354610100900460ff168062000aec575060035460ff16155b62000b0b5760405162461bcd60e51b8152600401620003659062002b1a565b600354610100900460ff1615801562000b2e576003805461ffff19166101011790555b62000b398462001556565b600480546001600160a01b0319166001600160a01b0387161790556000600b556200039f8383620015ea565b62000b6f62001615565b15156001141562000b875762000b8783838362001655565b505050565b801562000bd85762000b9d62001615565b15156001146200082e5760405162461bcd60e51b8152602060048201526005602482015264454332352d60d81b604482015260640162000365565b62000be262001615565b156200082e5760405162461bcd60e51b8152602060048201526005602482015264454332342d60d81b604482015260640162000365565b60006005819055600680546001600160a01b0319169055600781905560088190556009819055600a55565b8162000c5081620017cd565b868462000c5e828262001806565b600554881462000c995760405162461bcd60e51b8152602060048201526005602482015264454333352d60d81b604482015260640162000365565b60405163432f9a5560e01b815273__SignatureLibrary______________________9063432f9a559062000ce2908c908c908c908c908c908c90600090600190600401620029e8565b60206040518083038186803b15801562000cfb57600080fd5b505af415801562000d10573d6000803e3d6000fd5b505050506040513d601f19601f8201168201806040525081019062000d369190620026d2565b151560011462000d715760405162461bcd60e51b8152602060048201526005602482015264454333322d60d81b604482015260640162000365565b62000da789876001600160a01b03909116600090815260026020908152604080832093835292905220805460ff19166001179055565b505050505050505050565b600162000dbf8162000b8c565b6005548390600062000dd2838362001864565b90506000811162000e0e5760405162461bcd60e51b8152602060048201526005602482015264454332332d60d81b604482015260640162000365565b600062000e218760056000015462001864565b9050851562000e4d57806005600401600082825462000e41919062002bd7565b9091555062000e699050565b8060058001600082825462000e63919062002bd7565b90915550505b60055462000e79908883620018a5565b60055460408051918252871515602083015281018290526001600160a01b038816907f50f654d58981575c05e369cb129aeacb01e1b036af429380242cfc5d1a4b743f9060600160405180910390a262000ed2620018e3565b50505050505050565b73__AddressLibrary________________________63f4ce9ae873__Library_______________________________63caa8f5898460008151811062000f255762000f2562002cac565b60200260200101516040518263ffffffff1660e01b815260040162000f4b919062002ac7565b60006040518083038186803b15801562000f6457600080fd5b505af415801562000f79573d6000803e3d6000fd5b505050506040513d6000823e601f3d908101601f1916820160405262000fa391908101906200255b565b60008151811062000fb85762000fb862002cac565b60200260200101516040518263ffffffff1660e01b815260040162000fdf91815260200190565b60206040518083038186803b15801562000ff857600080fd5b505af41580156200100d573d6000803e3d6000fd5b505050506040513d601f19601f82011682018060405250810190620010339190620022fd565b73__AddressLibrary________________________63f4ce9ae873__Library_______________________________63caa8f589856002815181106200107d576200107d62002cac565b60200260200101516040518263ffffffff1660e01b8152600401620010a3919062002ac7565b60006040518083038186803b158015620010bc57600080fd5b505af4158015620010d1573d6000803e3d6000fd5b505050506040513d6000823e601f3d908101601f19168201604052620010fb91908101906200255b565b60008151811062001110576200111062002cac565b60200260200101516040518263ffffffff1660e01b81526004016200113791815260200190565b60206040518083038186803b1580156200115057600080fd5b505af415801562001165573d6000803e3d6000fd5b505050506040513d601f19601f820116820180604052508101906200118b9190620022fd565b6001600160a01b038216151580620011ab57506001600160a01b03811615155b62000b875760405162461bcd60e51b8152602060048201526005602482015264454332312d60d81b604482015260640162000365565b6000620011ee8162000b8c565b60045433906000906001600160a01b0316821415620012105750600162001355565b60006200121d83620019c7565b90506000600360029054906101000a90046001600160a01b03166001600160a01b031663e220ad956040518163ffffffff1660e01b815260040160006040518083038186803b1580156200127057600080fd5b505afa15801562001285573d6000803e3d6000fd5b505050506040513d6000823e601f3d908101601f19168201604052620012af9190810190620024aa565b600681518110620012c457620012c462002cac565b60200260200101516001600160a01b031663b049473f6040518163ffffffff1660e01b815260040160606040518083038186803b1580156200130557600080fd5b505afa1580156200131a573d6000803e3d6000fd5b505050506040513d601f19601f820116820180604052508101906200134091906200285f565b92505050808211156200135257600192505b50505b600181151514620013915760405162461bcd60e51b8152602060048201526005602482015264454332322d60d81b604482015260640162000365565b600080600360029054906101000a90046001600160a01b03166001600160a01b031663e220ad956040518163ffffffff1660e01b815260040160006040518083038186803b158015620013e357600080fd5b505afa158015620013f8573d6000803e3d6000fd5b505050506040513d6000823e601f3d908101601f19168201604052620014229190810190620024aa565b60068151811062001437576200143762002cac565b60200260200101516001600160a01b031663b049473f6040518163ffffffff1660e01b815260040160606040518083038186803b1580156200147857600080fd5b505afa1580156200148d573d6000803e3d6000fd5b505050506040513d601f19601f82011682018060405250810190620014b391906200285f565b50600680546001600160a01b031916331790559092509050620014d7824262002bd7565b6007556008819055600b80546005819055906000620014f68362002c78565b90915550506006546005546007546008546040516001600160a01b03909416937f472501d19bf75639b2e316cd36f8568b0c3ab943b82a87de3c086c98c1929df99362001547939092909162002b68565b60405180910390a25050505050565b600354610100900460ff168062001570575060035460ff16155b6200158f5760405162461bcd60e51b8152600401620003659062002b1a565b600354610100900460ff16158015620015b2576003805461ffff19166101011790555b6003805462010000600160b01b031916620100006001600160a01b03851602179055801562000ace576003805461ff00191690555050565b8151620015ff90600090602085019062002161565b50805162000b8790600190602084019062002161565b600754600090421015620016295750600190565b6006546001600160a01b0316156200164f576200164562001afb565b6200164f62000c19565b50600090565b6001600160a01b038316158015906200169257506005546000908152600c602090815260408083206001600160a01b038716845290915290205415155b1562000b87576005546000908152600c602090815260408083206001600160a01b03871684529091529020548190811115620016f057506005546000908152600c602090815260408083206001600160a01b03871684529091529020545b6005546000908152600c602090815260408083206001600160a01b0388168452909152812080548392906200172790849062002bf2565b90915550506001600160a01b0383161562001779576005546000908152600c602090815260408083206001600160a01b0387168452909152812080548392906200177390849062002bd7565b90915550505b600554604080516001600160a01b038088168252861660208201529081018390527f65fbd5e5dd32bea4aeca85bd0be0abf0e489d655dee888a7510d43b06dda2dba9060600160405180910390a250505050565b8042106200082e5760405162461bcd60e51b8152602060048201526005602482015264454333332d60d81b604482015260640162000365565b6001600160a01b038216600090815260026020908152604080832084845290915290205460ff161562000ace5760405162461bcd60e51b8152602060048201526005602482015264454333342d60d81b604482015260640162000365565b6000818152600c602090815260408083206001600160a01b03861684529091528120546200189284620019c7565b6200189e919062002bf2565b9392505050565b6000838152600c602090815260408083206001600160a01b038616845290915281208054839290620018d990849062002bd7565b9091555050505050565b600854600954106200195957620018f962001b05565b6200190362000c19565b600654600554600954600a546040516001600160a01b03909416937f23ca0034cf5aad32571b4a492e9598ea8a490e1643a60970e3cdc6933b55e49f936200194f939092909162002b68565b60405180910390a2565b600854600a5410620019c5576200196f62001afb565b6200197962000c19565b600654600554600954600a546040516001600160a01b03909416937fa58eb6daa3c62c3f883973c4035e5bd3e81aa627c8379de068a7de42df122be2936200194f939092909162002b68565b565b6000600360029054906101000a90046001600160a01b03166001600160a01b031663e220ad956040518163ffffffff1660e01b815260040160006040518083038186803b15801562001a1857600080fd5b505afa15801562001a2d573d6000803e3d6000fd5b505050506040513d6000823e601f3d908101601f1916820160405262001a579190810190620024aa565b60028151811062001a6c5762001a6c62002cac565b60200260200101516001600160a01b03166370a08231836040518263ffffffff1660e01b815260040162001aa1919062002983565b60206040518083038186803b15801562001aba57600080fd5b505afa15801562001acf573d6000803e3d6000fd5b505050506040513d601f19601f8201168201806040525081019062001af5919062002812565b92915050565b620019c562001b0f565b62001afb62001b1d565b620019c5600d6000620021f0565b600073__AddressLibrary________________________63f4ce9ae873__Library_______________________________63caa8f589600d60008154811062001b6a5762001b6a62002cac565b906000526020600020016040518263ffffffff1660e01b815260040162001b92919062002adc565b60006040518083038186803b15801562001bab57600080fd5b505af415801562001bc0573d6000803e3d6000fd5b505050506040513d6000823e601f3d908101601f1916820160405262001bea91908101906200255b565b60008151811062001bff5762001bff62002cac565b60200260200101516040518263ffffffff1660e01b815260040162001c2691815260200190565b60206040518083038186803b15801562001c3f57600080fd5b505af415801562001c54573d6000803e3d6000fd5b505050506040513d601f19601f8201168201806040525081019062001c7a9190620022fd565b90506000600d60018154811062001c955762001c9562002cac565b90600052602060002001805462001cac9062002c3b565b80601f016020809104026020016040519081016040528092919081815260200182805462001cda9062002c3b565b801562001d2b5780601f1062001cff5761010080835404028352916020019162001d2b565b820191906000526020600020905b81548152906001019060200180831162001d0d57829003601f168201915b50505050509050600073__AddressLibrary________________________63f4ce9ae873__Library_______________________________63caa8f589600d60028154811062001d7f5762001d7f62002cac565b906000526020600020016040518263ffffffff1660e01b815260040162001da7919062002adc565b60006040518083038186803b15801562001dc057600080fd5b505af415801562001dd5573d6000803e3d6000fd5b505050506040513d6000823e601f3d908101601f1916820160405262001dff91908101906200255b565b60008151811062001e145762001e1462002cac565b60200260200101516040518263ffffffff1660e01b815260040162001e3b91815260200190565b60206040518083038186803b15801562001e5457600080fd5b505af415801562001e69573d6000803e3d6000fd5b505050506040513d601f19601f8201168201806040525081019062001e8f9190620022fd565b90506001600160a01b0383161562001fc45781511562001f1d57600f54600e54604051639623609d60e01b81526001600160a01b0392831692639623609d9262001ee39291169087908790600401620029b1565b600060405180830381600087803b15801562001efe57600080fd5b505af115801562001f13573d6000803e3d6000fd5b5050505062001f8a565b600f54600e5460405163266a23b160e21b81526001600160a01b03928316926399a88ec49262001f5592911690879060040162002997565b600060405180830381600087803b15801562001f7057600080fd5b505af115801562001f85573d6000803e3d6000fd5b505050505b7f796e941683b106486d30807919e7c79a03fc48f213a6e1516f03210e6994fe478360405162001fbb919062002983565b60405180910390a15b6001600160a01b0381161562000b8757600f5460405163f2fde38b60e01b81526001600160a01b039091169063f2fde38b906200200690849060040162002983565b600060405180830381600087803b1580156200202157600080fd5b505af115801562002036573d6000803e3d6000fd5b5050600e54604051600093508392506001600160a01b03909116906200206190859060240162002983565b60408051601f198184030181529181526020820180516001600160e01b03166306fde4ff60e01b1790525162002098919062002965565b6000604051808303816000865af19150503d8060008114620020d7576040519150601f19603f3d011682016040523d82523d6000602084013e620020dc565b606091505b5091509150818190620021045760405162461bcd60e51b815260040162000365919062002ac7565b507fbe11ac43a8dc7cbd8d444d8f1db4702e8c5b9e159650016297a75c12f72ddeb38360405162002136919062002983565b60405180910390a15050505050565b6107bd8062002cfe83390190565b610f3080620034bb83390190565b8280546200216f9062002c3b565b90600052602060002090601f016020900481019282620021935760008555620021de565b82601f10620021ae57805160ff1916838001178555620021de565b82800160010185558215620021de579182015b82811115620021de578251825591602001919060010190620021c1565b50620021ec92915062002210565b5090565b50805460008255906000526020600020908101906200082e919062002227565b5b80821115620021ec576000815560010162002211565b80821115620021ec5760006200223e828262002248565b5060010162002227565b508054620022569062002c3b565b6000825580601f1062002267575050565b601f0160209004906000526020600020908101906200082e919062002210565b600082601f8301126200229957600080fd5b81356001600160401b03811115620022b557620022b562002cc2565b620022ca601f8201601f191660200162002b7e565b818152846020838601011115620022e057600080fd5b816020850160208301376000918101602001919091529392505050565b6000602082840312156200231057600080fd5b81516200189e8162002cd8565b600080600080608085870312156200233457600080fd5b8435620023418162002cd8565b93506020850135620023538162002cd8565b925060408501356001600160401b03808211156200237057600080fd5b6200237e8883890162002287565b935060608701359150808211156200239557600080fd5b50620023a48782880162002287565b91505092959194509250565b600080600060608486031215620023c657600080fd5b8335620023d38162002cd8565b92506020840135620023e58162002cd8565b929592945050506040919091013590565b600080604083850312156200240a57600080fd5b8235620024178162002cd8565b946020939093013593505050565b60008060008060008060c087890312156200243f57600080fd5b86356200244c8162002cd8565b9550602087013594506040870135620024658162002cee565b9350606087013592506080870135915060a08701356001600160401b038111156200248f57600080fd5b6200249d89828a0162002287565b9150509295509295509295565b60006020808385031215620024be57600080fd5b82516001600160401b03811115620024d557600080fd5b8301601f81018513620024e757600080fd5b8051620024fe620024f88262002bb1565b62002b7e565b80828252848201915084840188868560051b87010111156200251f57600080fd5b600094505b838510156200254f5780516200253a8162002cd8565b83526001949094019391850191850162002524565b50979650505050505050565b600060208083850312156200256f57600080fd5b82516001600160401b038111156200258657600080fd5b8301601f810185136200259857600080fd5b8051620025a9620024f88262002bb1565b80828252848201915084840188868560051b8701011115620025ca57600080fd5b600094505b838510156200254f578051835260019490940193918501918501620025cf565b600060208083850312156200260357600080fd5b82356001600160401b03808211156200261b57600080fd5b818501915085601f8301126200263057600080fd5b813562002641620024f88262002bb1565b80828252858201915085850189878560051b88010111156200266257600080fd5b6000805b85811015620026a2578235878111156200267e578283fd5b6200268e8d8b838c010162002287565b865250938801939188019160010162002666565b50919a9950505050505050505050565b600060208284031215620026c557600080fd5b81356200189e8162002cee565b600060208284031215620026e557600080fd5b81516200189e8162002cee565b600080600080608085870312156200270957600080fd5b84356001600160401b03808211156200272157600080fd5b6200272f8883890162002287565b955060208701359150808211156200274657600080fd5b50620027558782880162002287565b9350506040850135620027688162002cd8565b915060608501356200277a8162002cd8565b939692955090935050565b600080600080608085870312156200279c57600080fd5b84356001600160401b0380821115620027b457600080fd5b620027c28883890162002287565b95506020870135915080821115620027d957600080fd5b620027e78883890162002287565b945060408701359150620027fb8262002cd8565b909250606086013590808211156200239557600080fd5b6000602082840312156200282557600080fd5b5051919050565b600080604083850312156200284057600080fd5b823591506020830135620028548162002cd8565b809150509250929050565b6000806000606084860312156200287557600080fd5b8351925060208401519150604084015190509250925092565b60008151808452620028a881602086016020860162002c0c565b601f01601f19169290920160200192915050565b8054600090600181811c9080831680620028d757607f831692505b6020808410821415620028fa57634e487b7160e01b600052602260045260246000fd5b838852818015620029145760018114620029295762002959565b60ff1986168983015260408901965062002959565b876000528160002060005b86811015620029515781548b820185015290850190830162002934565b8a0183019750505b50505050505092915050565b600082516200297981846020870162002c0c565b9190910192915050565b6001600160a01b0391909116815260200190565b6001600160a01b0392831681529116602082015260400190565b6001600160a01b03848116825283166020820152606060408201819052600090620029df908301846200288e565b95945050505050565b600061010060018060a01b038b16835289602084015288151560408401528760608401528660808401528060a084015262002a26818401876200288e565b905082810360c084015262002a3c8186620028bc565b905082810360e084015262002a528185620028bc565b9b9a5050505050505050505050565b6000602080830181845280855180835260408601915060408160051b870101925083870160005b8281101562002aba57603f1988860301845262002aa78583516200288e565b9450928501929085019060010162002a88565b5092979650505050505050565b6020815260006200189e60208301846200288e565b6020815260006200189e6020830184620028bc565b60408152600062002b0660408301856200288e565b8281036020840152620029df81856200288e565b6020808252602e908201527f496e697469616c697a61626c653a20636f6e747261637420697320616c72656160408201526d191e481a5b9a5d1a585b1a5e995960921b606082015260800190565b9283526020830191909152604082015260600190565b604051601f8201601f191681016001600160401b038111828210171562002ba95762002ba962002cc2565b604052919050565b60006001600160401b0382111562002bcd5762002bcd62002cc2565b5060051b60200190565b6000821982111562002bed5762002bed62002c96565b500190565b60008282101562002c075762002c0762002c96565b500390565b60005b8381101562002c2957818101518382015260200162002c0f565b83811115620004de5750506000910152565b600181811c9082168062002c5057607f821691505b6020821081141562002c7257634e487b7160e01b600052602260045260246000fd5b50919050565b600060001982141562002c8f5762002c8f62002c96565b5060010190565b634e487b7160e01b600052601160045260246000fd5b634e487b7160e01b600052603260045260246000fd5b634e487b7160e01b600052604160045260246000fd5b6001600160a01b03811681146200082e57600080fd5b80151581146200082e57600080fdfe608060405234801561001057600080fd5b5061001a3361001f565b61006f565b600080546001600160a01b038381166001600160a01b0319831681178455604051919092169283917f8be0079c531659141344cd1fd0a4f28419497f9722a3daafe3b4186f6b6457e09190a35050565b61073f8061007e6000396000f3fe60806040526004361061006b5760003560e01c8063204e1c7a14610070578063715018a6146100a65780637eff275e146100bd5780638da5cb5b146100dd5780639623609d146100f257806399a88ec414610105578063f2fde38b14610125578063f3b7dead14610145575b600080fd5b34801561007c57600080fd5b5061009061008b3660046104e1565b610165565b60405161009d9190610630565b60405180910390f35b3480156100b257600080fd5b506100bb6101f6565b005b3480156100c957600080fd5b506100bb6100d8366004610522565b61023a565b3480156100e957600080fd5b506100906102cb565b6100bb61010036600461055b565b6102da565b34801561011157600080fd5b506100bb610120366004610522565b610370565b34801561013157600080fd5b506100bb6101403660046104e1565b6103cb565b34801561015157600080fd5b506100906101603660046104e1565b61046b565b6000806000836001600160a01b031660405161018b90635c60da1b60e01b815260040190565b600060405180830381855afa9150503d80600081146101c6576040519150601f19603f3d011682016040523d82523d6000602084013e6101cb565b606091505b5091509150816101da57600080fd5b808060200190518101906101ee9190610505565b949350505050565b336101ff6102cb565b6001600160a01b03161461022e5760405162461bcd60e51b8152600401610225906106a9565b60405180910390fd5b6102386000610491565b565b336102436102cb565b6001600160a01b0316146102695760405162461bcd60e51b8152600401610225906106a9565b6040516308f2839760e41b81526001600160a01b03831690638f28397090610295908490600401610630565b600060405180830381600087803b1580156102af57600080fd5b505af11580156102c3573d6000803e3d6000fd5b505050505050565b6000546001600160a01b031690565b336102e36102cb565b6001600160a01b0316146103095760405162461bcd60e51b8152600401610225906106a9565b60405163278f794360e11b81526001600160a01b03841690634f1ef2869034906103399086908690600401610644565b6000604051808303818588803b15801561035257600080fd5b505af1158015610366573d6000803e3d6000fd5b5050505050505050565b336103796102cb565b6001600160a01b03161461039f5760405162461bcd60e51b8152600401610225906106a9565b604051631b2ce7f360e11b81526001600160a01b03831690633659cfe690610295908490600401610630565b336103d46102cb565b6001600160a01b0316146103fa5760405162461bcd60e51b8152600401610225906106a9565b6001600160a01b03811661045f5760405162461bcd60e51b815260206004820152602660248201527f4f776e61626c653a206e6577206f776e657220697320746865207a65726f206160448201526564647265737360d01b6064820152608401610225565b61046881610491565b50565b6000806000836001600160a01b031660405161018b906303e1469160e61b815260040190565b600080546001600160a01b038381166001600160a01b0319831681178455604051919092169283917f8be0079c531659141344cd1fd0a4f28419497f9722a3daafe3b4186f6b6457e09190a35050565b6000602082840312156104f357600080fd5b81356104fe816106f4565b9392505050565b60006020828403121561051757600080fd5b81516104fe816106f4565b6000806040838503121561053557600080fd5b8235610540816106f4565b91506020830135610550816106f4565b809150509250929050565b60008060006060848603121561057057600080fd5b833561057b816106f4565b9250602084013561058b816106f4565b915060408401356001600160401b03808211156105a757600080fd5b818601915086601f8301126105bb57600080fd5b8135818111156105cd576105cd6106de565b604051601f8201601f19908116603f011681019083821181831017156105f5576105f56106de565b8160405282815289602084870101111561060e57600080fd5b8260208601602083013760006020848301015280955050505050509250925092565b6001600160a01b0391909116815260200190565b60018060a01b038316815260006020604081840152835180604085015260005b8181101561068057858101830151858201606001528201610664565b81811115610692576000606083870101525b50601f01601f191692909201606001949350505050565b6020808252818101527f4f776e61626c653a2063616c6c6572206973206e6f7420746865206f776e6572604082015260600190565b634e487b7160e01b600052604160045260246000fd5b6001600160a01b038116811461046857600080fdfea26469706673582212207240b38990a52bc008f8ef6148c6f36363b8fbb55bee70cee697cb8e4d4c00ce64736f6c63430008070033608060405260405162000f3038038062000f308339810160408190526200002691620004c2565b82816200005560017f360894a13ba1a3210667c828492db98dca3e2076cc3735a920a3ca505d382bbd620005f5565b60008051602062000ee9833981519152146200007557620000756200064a565b6200008382826000620000e7565b50620000b3905060017fb53127684a568b3173ae13b9f8a6016e243e63b6e8ee1178d6a717850b5d6104620005f5565b60008051602062000ec983398151915214620000d357620000d36200064a565b620000de8262000124565b50505062000676565b620000f2836200017f565b600082511180620001005750805b156200011f576200011d8383620001c160201b620002601760201c565b505b505050565b7f7e644d79422f17c01e4894b5f4f588d331ebfa28653d42ae832dc59e38c9798f6200014f620001f0565b604080516001600160a01b03928316815291841660208301520160405180910390a16200017c8162000229565b50565b6200018a81620002de565b6040516001600160a01b038216907fbc7cd75a20ee27fd9adebab32041f755214dbc6bffa90cc0225b39da2e5c2d3b90600090a250565b6060620001e9838360405180606001604052806027815260200162000f096027913962000381565b9392505050565b60006200021a60008051602062000ec983398151915260001b6200045e60201b620002081760201c565b546001600160a01b0316919050565b6001600160a01b038116620002945760405162461bcd60e51b815260206004820152602660248201527f455243313936373a206e65772061646d696e20697320746865207a65726f206160448201526564647265737360d01b60648201526084015b60405180910390fd5b80620002bd60008051602062000ec983398151915260001b6200045e60201b620002081760201c565b80546001600160a01b0319166001600160a01b039290921691909117905550565b620002f4816200046160201b6200028c1760201c565b620003585760405162461bcd60e51b815260206004820152602d60248201527f455243313936373a206e657720696d706c656d656e746174696f6e206973206e60448201526c1bdd08184818dbdb9d1c9858dd609a1b60648201526084016200028b565b80620002bd60008051602062000ee983398151915260001b6200045e60201b620002081760201c565b6060833b620003e25760405162461bcd60e51b815260206004820152602660248201527f416464726573733a2064656c65676174652063616c6c20746f206e6f6e2d636f6044820152651b9d1c9858dd60d21b60648201526084016200028b565b600080856001600160a01b031685604051620003ff9190620005a2565b600060405180830381855af49150503d80600081146200043c576040519150601f19603f3d011682016040523d82523d6000602084013e62000441565b606091505b5090925090506200045482828662000467565b9695505050505050565b90565b3b151590565b6060831562000478575081620001e9565b825115620004895782518084602001fd5b8160405162461bcd60e51b81526004016200028b9190620005c0565b80516001600160a01b0381168114620004bd57600080fd5b919050565b600080600060608486031215620004d857600080fd5b620004e384620004a5565b9250620004f360208501620004a5565b60408501519092506001600160401b03808211156200051157600080fd5b818601915086601f8301126200052657600080fd5b8151818111156200053b576200053b62000660565b604051601f8201601f19908116603f0116810190838211818310171562000566576200056662000660565b816040528281528960208487010111156200058057600080fd5b620005938360208301602088016200061b565b80955050505050509250925092565b60008251620005b68184602087016200061b565b9190910192915050565b6020815260008251806020840152620005e18160408501602087016200061b565b601f01601f19169190910160400192915050565b6000828210156200061657634e487b7160e01b600052601160045260246000fd5b500390565b60005b83811015620006385781810151838201526020016200061e565b838111156200011d5750506000910152565b634e487b7160e01b600052600160045260246000fd5b634e487b7160e01b600052604160045260246000fd5b61084380620006866000396000f3fe60806040526004361061004e5760003560e01c80633659cfe6146100655780634f1ef286146100855780635c60da1b146100985780638f283970146100c9578063f851a440146100e95761005d565b3661005d5761005b6100fe565b005b61005b6100fe565b34801561007157600080fd5b5061005b61008036600461068e565b610118565b61005b6100933660046106a9565b61015f565b3480156100a457600080fd5b506100ad6101d0565b6040516001600160a01b03909116815260200160405180910390f35b3480156100d557600080fd5b5061005b6100e436600461068e565b61020b565b3480156100f557600080fd5b506100ad610235565b610106610292565b610116610111610331565b61033b565b565b61012061035f565b6001600160a01b0316336001600160a01b031614156101575761015481604051806020016040528060008152506000610380565b50565b6101546100fe565b61016761035f565b6001600160a01b0316336001600160a01b031614156101c8576101c38383838080601f01602080910402602001604051908101604052809392919081815260200183838082843760009201919091525060019250610380915050565b505050565b6101c36100fe565b60006101da61035f565b6001600160a01b0316336001600160a01b03161415610200576101fb610331565b905090565b6102086100fe565b90565b61021361035f565b6001600160a01b0316336001600160a01b0316141561015757610154816103ab565b600061023f61035f565b6001600160a01b0316336001600160a01b03161415610200576101fb61035f565b606061028583836040518060600160405280602781526020016107e7602791396103ff565b9392505050565b3b151590565b61029a61035f565b6001600160a01b0316336001600160a01b031614156101165760405162461bcd60e51b815260206004820152604260248201527f5472616e73706172656e745570677261646561626c6550726f78793a2061646d60448201527f696e2063616e6e6f742066616c6c6261636b20746f2070726f78792074617267606482015261195d60f21b608482015260a4015b60405180910390fd5b60006101fb6104d3565b3660008037600080366000845af43d6000803e80801561035a573d6000f35b3d6000fd5b60006000805160206107a78339815191525b546001600160a01b0316919050565b610389836104e9565b6000825111806103965750805b156101c3576103a58383610260565b50505050565b7f7e644d79422f17c01e4894b5f4f588d331ebfa28653d42ae832dc59e38c9798f6103d461035f565b604080516001600160a01b03928316815291841660208301520160405180910390a161015481610529565b6060833b61045e5760405162461bcd60e51b815260206004820152602660248201527f416464726573733a2064656c65676174652063616c6c20746f206e6f6e2d636f6044820152651b9d1c9858dd60d21b6064820152608401610328565b600080856001600160a01b031685604051610479919061072b565b600060405180830381855af49150503d80600081146104b4576040519150601f19603f3d011682016040523d82523d6000602084013e6104b9565b606091505b50915091506104c98282866105c0565b9695505050505050565b60006000805160206107c7833981519152610371565b6104f2816105f9565b6040516001600160a01b038216907fbc7cd75a20ee27fd9adebab32041f755214dbc6bffa90cc0225b39da2e5c2d3b90600090a250565b6001600160a01b03811661058e5760405162461bcd60e51b815260206004820152602660248201527f455243313936373a206e65772061646d696e20697320746865207a65726f206160448201526564647265737360d01b6064820152608401610328565b806000805160206107a78339815191525b80546001600160a01b0319166001600160a01b039290921691909117905550565b606083156105cf575081610285565b8251156105df5782518084602001fd5b8160405162461bcd60e51b81526004016103289190610747565b803b61065d5760405162461bcd60e51b815260206004820152602d60248201527f455243313936373a206e657720696d706c656d656e746174696f6e206973206e60448201526c1bdd08184818dbdb9d1c9858dd609a1b6064820152608401610328565b806000805160206107c783398151915261059f565b80356001600160a01b038116811461068957600080fd5b919050565b6000602082840312156106a057600080fd5b61028582610672565b6000806000604084860312156106be57600080fd5b6106c784610672565b925060208401356001600160401b03808211156106e357600080fd5b818601915086601f8301126106f757600080fd5b81358181111561070657600080fd5b87602082850101111561071857600080fd5b6020830194508093505050509250925092565b6000825161073d81846020870161077a565b9190910192915050565b602081526000825180602084015261076681604085016020870161077a565b601f01601f19169190910160400192915050565b60005b8381101561079557818101518382015260200161077d565b838111156103a5575050600091015256feb53127684a568b3173ae13b9f8a6016e243e63b6e8ee1178d6a717850b5d6103360894a13ba1a3210667c828492db98dca3e2076cc3735a920a3ca505d382bbc416464726573733a206c6f772d6c6576656c2064656c65676174652063616c6c206661696c6564a2646970667358221220bf234746908c6f46655f3e5bb4f0abadaeb249c68beba1c928f2af74deb56e2264736f6c63430008070033b53127684a568b3173ae13b9f8a6016e243e63b6e8ee1178d6a717850b5d6103360894a13ba1a3210667c828492db98dca3e2076cc3735a920a3ca505d382bbc416464726573733a206c6f772d6c6576656c2064656c65676174652063616c6c206661696c6564a2646970667358221220f3a0e228879fc2c1089ee8506019717cc1fcf99f7b86ced83e504e9c62c3b48164736f6c63430008070033",
  "immutableReferences": {},
  "source": "// SPDX-License-Identifier: GPL-3.0\r\n\r\npragma solidity 0.8.7;\r\n\r\n/**\r\n * @title Storage\r\n * @dev Store & retrieve value in a variable\r\n */\r\n\r\nimport \"../Interfaces/IAdmin.sol\";\r\nimport \"../Base/StdPropositionBaseContract.sol\";\r\nimport \"../Libraries/AddressLibrary.sol\";\r\nimport \"../Libraries/Library.sol\";\r\nimport \"@openzeppelin/contracts/proxy/transparent/TransparentUpgradeableProxy.sol\";\r\nimport \"@openzeppelin/contracts/proxy/transparent/ProxyAdmin.sol\";\r\n\r\n\r\ncontract Admin is IAdmin, StdPropositionBaseContract{\r\n    using AddressLibrary for *;\r\n    using Library for *;\r\n\r\n    // EVENTS /////////////////////////////////////////\r\n    event _NewManager(address Manager);\r\n    event _NewAdmin(address Admin);\r\n\r\n    // DATA /////////////////////////////////////////\r\n    // Manager\r\n    TransparentUpgradeableProxy private _Manager;\r\n\r\n    // Admin Proxy to manage the TransparentUpgradeableProxy\r\n    ProxyAdmin private _Admin;\r\n\r\n    // MODIFIERS /////////////////////////////////////////\r\n    modifier areAddressesOK(address addr1, address addr2){\r\n        require(address(0) != addr1 || address(0) != addr2, \"EC21-\");\r\n        _;\r\n    }\r\n\r\n    // CONSTRUCTOR and INITIALIZATION /////////////////////////////////////////\r\n    function Admin_init(string memory contractName, string memory contractVersion, address managerContract, bytes memory managerInit) public initializer \r\n    {\r\n        _Admin = new ProxyAdmin();\r\n        _Manager = new TransparentUpgradeableProxy(managerContract, address(_Admin), managerInit);\r\n        super.StdPropositionBaseContract_init(msg.sender, address(_Manager), contractName, contractVersion);\r\n    }\r\n\r\n    function Admin_init_redeploy(string memory contractName, string memory contractVersion, address payable managerContractProxyAddress, address AdminProxyAddress) public initializer \r\n    {\r\n        _Admin = ProxyAdmin(AdminProxyAddress);\r\n        _Manager = TransparentUpgradeableProxy(managerContractProxyAddress);\r\n        super.StdPropositionBaseContract_init(msg.sender, address(_Manager), contractName, contractVersion);\r\n    }\r\n\r\n    // FUNCTIONALITY /////////////////////////////////////////\r\n    // governance : contracts assignment and management\r\n    function checkProposition(bytes[] memory NewValues) internal override \r\n        areAddressesOK(AddressLibrary.Bytes32ToAddress(Library.BytestoBytes32(NewValues[0])[0]), \r\n                        AddressLibrary.Bytes32ToAddress(Library.BytestoBytes32(NewValues[2])[0]))\r\n    {}\r\n\r\n    function UpdateAll() internal override\r\n    {\r\n        address NewImplAddress = AddressLibrary.Bytes32ToAddress(Library.BytestoBytes32(_ProposedNewValues[0])[0]);\r\n        bytes memory Data = _ProposedNewValues[1];\r\n        address NewAdminAddress = AddressLibrary.Bytes32ToAddress(Library.BytestoBytes32(_ProposedNewValues[2])[0]);\r\n\r\n        if(address(0) != NewImplAddress){\r\n            if(0 < Data.length)_Admin.upgradeAndCall(_Manager, NewImplAddress, Data);\r\n            else _Admin.upgrade(_Manager, NewImplAddress);\r\n            emit _NewManager(NewImplAddress);\r\n        }\r\n        \r\n        if(address(0) != NewAdminAddress){\r\n            _Admin.transferOwnership(NewAdminAddress);\r\n            (bool success, bytes memory data) = address(_Manager).call(abi.encodeWithSignature(\"changeManagerAdmin(address)\", NewAdminAddress));\r\n            require(success, string(data));\r\n            emit _NewAdmin(NewAdminAddress);\r\n        }       \r\n\r\n    }\r\n\r\n    // configuration Proxies\r\n    function retrieveAdminProxy() external override view returns (address) {\r\n        return (address(_Admin));\r\n    }\r\n\r\n    function retrieveManagerProxy() external override view returns (address) {\r\n        return (address(_Manager));\r\n    }\r\n\r\n    // configuration implementations\r\n    function retrieveManager() external view override returns (address) {\r\n        return _Admin.getProxyImplementation(_Manager);\r\n    }\r\n   \r\n  \r\n}",
  "sourcePath": "C:\\Users\\d-aam\\GitHub\\Certificates\\contracts\\DeployedContracts\\Admin.sol",
  "compiler": {
    "name": "solc",
    "version": "0.8.7+commit.e28d00a7.Emscripten.clang"
  },
  "schemaVersion": "3.4.3",
  "updatedAt": "2022-01-06T15:40:55.064Z",
  "devdoc": {
    "kind": "dev",
    "methods": {},
    "version": 1
  },
  "userdoc": {
    "kind": "user",
    "methods": {},
    "version": 1
  }
}