{
  "contractName": "Admin",
  "abi": [
    {
      "inputs": [
        {
          "internalType": "string",
          "name": "contractName",
          "type": "string"
        },
        {
          "internalType": "string",
          "name": "contractVersion",
          "type": "string"
        }
      ],
      "stateMutability": "nonpayable",
      "type": "constructor"
    },
    {
      "anonymous": false,
      "inputs": [
        {
          "indexed": false,
          "internalType": "uint256",
          "name": "Id",
          "type": "uint256"
        },
        {
          "indexed": true,
          "internalType": "address",
          "name": "Proposer",
          "type": "address"
        },
        {
          "indexed": false,
          "internalType": "uint256",
          "name": "Deadline",
          "type": "uint256"
        },
        {
          "indexed": false,
          "internalType": "uint256",
          "name": "Threshold",
          "type": "uint256"
        }
      ],
      "name": "_AddedProposition",
      "type": "event"
    },
    {
      "anonymous": false,
      "inputs": [
        {
          "indexed": false,
          "internalType": "uint256",
          "name": "Id",
          "type": "uint256"
        },
        {
          "indexed": true,
          "internalType": "address",
          "name": "Proposer",
          "type": "address"
        }
      ],
      "name": "_CancelledProposition",
      "type": "event"
    },
    {
      "anonymous": false,
      "inputs": [
        {
          "indexed": false,
          "internalType": "address",
          "name": "Manager",
          "type": "address"
        }
      ],
      "name": "_NewManager",
      "type": "event"
    },
    {
      "anonymous": false,
      "inputs": [
        {
          "indexed": false,
          "internalType": "uint256",
          "name": "Id",
          "type": "uint256"
        },
        {
          "indexed": true,
          "internalType": "address",
          "name": "Proposer",
          "type": "address"
        },
        {
          "indexed": false,
          "internalType": "uint256",
          "name": "VotesFor",
          "type": "uint256"
        },
        {
          "indexed": false,
          "internalType": "uint256",
          "name": "VotesAgainst",
          "type": "uint256"
        }
      ],
      "name": "_PropositionApproved",
      "type": "event"
    },
    {
      "anonymous": false,
      "inputs": [
        {
          "indexed": false,
          "internalType": "uint256",
          "name": "Id",
          "type": "uint256"
        },
        {
          "indexed": true,
          "internalType": "address",
          "name": "Proposer",
          "type": "address"
        },
        {
          "indexed": false,
          "internalType": "uint256",
          "name": "VotesFor",
          "type": "uint256"
        },
        {
          "indexed": false,
          "internalType": "uint256",
          "name": "VotesAgainst",
          "type": "uint256"
        }
      ],
      "name": "_PropositionRejected",
      "type": "event"
    },
    {
      "anonymous": false,
      "inputs": [
        {
          "indexed": false,
          "internalType": "uint256",
          "name": "Id",
          "type": "uint256"
        },
        {
          "indexed": true,
          "internalType": "address",
          "name": "Voter",
          "type": "address"
        },
        {
          "indexed": false,
          "internalType": "bool",
          "name": "Vote",
          "type": "bool"
        },
        {
          "indexed": false,
          "internalType": "uint256",
          "name": "AmountTokens",
          "type": "uint256"
        }
      ],
      "name": "_PropositionVote",
      "type": "event"
    },
    {
      "anonymous": false,
      "inputs": [
        {
          "indexed": true,
          "internalType": "uint256",
          "name": "Id",
          "type": "uint256"
        },
        {
          "indexed": false,
          "internalType": "address",
          "name": "From",
          "type": "address"
        },
        {
          "indexed": false,
          "internalType": "address",
          "name": "To",
          "type": "address"
        },
        {
          "indexed": false,
          "internalType": "uint256",
          "name": "Amount",
          "type": "uint256"
        }
      ],
      "name": "_UsedTokensTransfered",
      "type": "event"
    },
    {
      "inputs": [
        {
          "internalType": "address",
          "name": "chairPerson",
          "type": "address"
        },
        {
          "internalType": "address",
          "name": "managerContractAddress",
          "type": "address"
        },
        {
          "internalType": "string",
          "name": "contractName",
          "type": "string"
        },
        {
          "internalType": "string",
          "name": "contractVersion",
          "type": "string"
        }
      ],
      "name": "StdPropositionBaseContract_init",
      "outputs": [],
      "stateMutability": "nonpayable",
      "type": "function"
    },
    {
      "inputs": [],
      "name": "cancelProposition",
      "outputs": [],
      "stateMutability": "nonpayable",
      "type": "function"
    },
    {
      "inputs": [
        {
          "internalType": "address",
          "name": "from",
          "type": "address"
        },
        {
          "internalType": "address",
          "name": "to",
          "type": "address"
        },
        {
          "internalType": "uint256",
          "name": "amount",
          "type": "uint256"
        }
      ],
      "name": "onTokenBalanceChanged",
      "outputs": [],
      "stateMutability": "nonpayable",
      "type": "function"
    },
    {
      "inputs": [],
      "name": "retrieveChairPerson",
      "outputs": [
        {
          "internalType": "address",
          "name": "",
          "type": "address"
        }
      ],
      "stateMutability": "view",
      "type": "function",
      "constant": true
    },
    {
      "inputs": [],
      "name": "retrieveContractConfig",
      "outputs": [
        {
          "internalType": "string",
          "name": "",
          "type": "string"
        },
        {
          "internalType": "string",
          "name": "",
          "type": "string"
        }
      ],
      "stateMutability": "view",
      "type": "function",
      "constant": true
    },
    {
      "inputs": [],
      "name": "retrieveManagerContract",
      "outputs": [
        {
          "internalType": "address",
          "name": "",
          "type": "address"
        }
      ],
      "stateMutability": "view",
      "type": "function",
      "constant": true
    },
    {
      "inputs": [],
      "name": "retrieveNextPropId",
      "outputs": [
        {
          "internalType": "uint256",
          "name": "",
          "type": "uint256"
        }
      ],
      "stateMutability": "view",
      "type": "function",
      "constant": true
    },
    {
      "inputs": [
        {
          "internalType": "address",
          "name": "addr",
          "type": "address"
        },
        {
          "internalType": "uint256",
          "name": "nonce",
          "type": "uint256"
        }
      ],
      "name": "retrieveNonce",
      "outputs": [
        {
          "internalType": "bool",
          "name": "",
          "type": "bool"
        }
      ],
      "stateMutability": "view",
      "type": "function",
      "constant": true
    },
    {
      "inputs": [],
      "name": "retrieveProposition",
      "outputs": [
        {
          "internalType": "bytes[]",
          "name": "",
          "type": "bytes[]"
        }
      ],
      "stateMutability": "view",
      "type": "function",
      "constant": true
    },
    {
      "inputs": [],
      "name": "retrievePropositionStatus",
      "outputs": [
        {
          "internalType": "address",
          "name": "",
          "type": "address"
        },
        {
          "internalType": "uint256",
          "name": "",
          "type": "uint256"
        },
        {
          "internalType": "uint256",
          "name": "",
          "type": "uint256"
        },
        {
          "internalType": "uint256",
          "name": "",
          "type": "uint256"
        },
        {
          "internalType": "uint256",
          "name": "",
          "type": "uint256"
        }
      ],
      "stateMutability": "view",
      "type": "function",
      "constant": true
    },
    {
      "inputs": [
        {
          "internalType": "uint256",
          "name": "PropId",
          "type": "uint256"
        },
        {
          "internalType": "address",
          "name": "voter",
          "type": "address"
        }
      ],
      "name": "retrieveVotesForVoter",
      "outputs": [
        {
          "internalType": "uint256",
          "name": "",
          "type": "uint256"
        }
      ],
      "stateMutability": "view",
      "type": "function",
      "constant": true
    },
    {
      "inputs": [
        {
          "internalType": "bytes[]",
          "name": "NewValues",
          "type": "bytes[]"
        }
      ],
      "name": "sendProposition",
      "outputs": [],
      "stateMutability": "nonpayable",
      "type": "function"
    },
    {
      "inputs": [
        {
          "internalType": "bool",
          "name": "vote",
          "type": "bool"
        }
      ],
      "name": "voteProposition",
      "outputs": [],
      "stateMutability": "nonpayable",
      "type": "function"
    },
    {
      "inputs": [
        {
          "internalType": "address",
          "name": "voter",
          "type": "address"
        },
        {
          "internalType": "uint256",
          "name": "propID",
          "type": "uint256"
        },
        {
          "internalType": "bool",
          "name": "vote",
          "type": "bool"
        },
        {
          "internalType": "uint256",
          "name": "nonce",
          "type": "uint256"
        },
        {
          "internalType": "uint256",
          "name": "deadline",
          "type": "uint256"
        },
        {
          "internalType": "bytes",
          "name": "signature",
          "type": "bytes"
        }
      ],
      "name": "votePropositionOnBehalfOf",
      "outputs": [],
      "stateMutability": "nonpayable",
      "type": "function"
    },
    {
      "inputs": [
        {
          "internalType": "address",
          "name": "managerContract",
          "type": "address"
        },
        {
          "internalType": "bytes",
          "name": "managerInit",
          "type": "bytes"
        }
      ],
      "name": "Initialize",
      "outputs": [],
      "stateMutability": "nonpayable",
      "type": "function"
    },
    {
      "inputs": [],
      "name": "retrieveManagerProxy",
      "outputs": [
        {
          "internalType": "address",
          "name": "",
          "type": "address"
        }
      ],
      "stateMutability": "view",
      "type": "function",
      "constant": true
    },
    {
      "inputs": [],
      "name": "retrieveManager",
      "outputs": [
        {
          "internalType": "address",
          "name": "",
          "type": "address"
        }
      ],
      "stateMutability": "nonpayable",
      "type": "function"
    }
  ],
  "bytecode": "0x60806040523480156200001157600080fd5b5060405162003ab738038062003ab78339810160408190526200003491620003ba565b6200004d333084846200006260201b620002eb1760201c565b5050600e805460ff60a01b19169055620004c5565b600354610100900460ff16806200007c575060035460ff16155b620000a45760405162461bcd60e51b81526004016200009b9062000424565b60405180910390fd5b600354610100900460ff16158015620000c7576003805461ffff19166101011790555b620000e085858585620000fa60201b620009d61760201c565b8015620000f3576003805461ff00191690555b5050505050565b600354610100900460ff168062000114575060035460ff16155b620001335760405162461bcd60e51b81526004016200009b9062000424565b600354610100900460ff1615801562000156576003805461ffff19166101011790555b6200016c846200019860201b62000a691760201c565b600480546001600160a01b0319166001600160a01b0387161790556000600b55620000e083836200022d565b600354610100900460ff1680620001b2575060035460ff16155b620001d15760405162461bcd60e51b81526004016200009b9062000424565b600354610100900460ff16158015620001f4576003805461ffff19166101011790555b6003805462010000600160b01b031916620100006001600160a01b03851602179055801562000229576003805461ff00191690555b5050565b8151620002429060009060208501906200025d565b508051620002589060019060208401906200025d565b505050565b8280546200026b9062000472565b90600052602060002090601f0160209004810192826200028f5760008555620002da565b82601f10620002aa57805160ff1916838001178555620002da565b82800160010185558215620002da579182015b82811115620002da578251825591602001919060010190620002bd565b50620002e8929150620002ec565b5090565b5b80821115620002e85760008155600101620002ed565b600082601f8301126200031557600080fd5b81516001600160401b0380821115620003325762000332620004af565b604051601f8301601f19908116603f011681019082821181831017156200035d576200035d620004af565b816040528381526020925086838588010111156200037a57600080fd5b600091505b838210156200039e57858201830151818301840152908201906200037f565b83821115620003b05760008385830101525b9695505050505050565b60008060408385031215620003ce57600080fd5b82516001600160401b0380821115620003e657600080fd5b620003f48683870162000303565b935060208501519150808211156200040b57600080fd5b506200041a8582860162000303565b9150509250929050565b6020808252602e908201527f496e697469616c697a61626c653a20636f6e747261637420697320616c72656160408201526d191e481a5b9a5d1a585b1a5e995960921b606082015260800190565b600181811c908216806200048757607f821691505b60208210811415620004a957634e487b7160e01b600052602260045260246000fd5b50919050565b634e487b7160e01b600052604160045260246000fd5b6135e280620004d56000396000f3fe60806040523480156200001157600080fd5b5060043610620000ee5760003560e01c806304cc67a914620000f35780630f13bbc9146200010a5780633c7df55d14620001235780633feca4ca146200013a5780634044adb2146200018757806355457ee914620001c05780635b362e8414620001ca5780637faa3d6f14620001ec578063840f6d1714620002035780638c080e3f146200024557806391f91671146200024f578063a93316f51462000266578063cfea46b1146200027f578063d2116a021462000296578063db85bc4d14620002b0578063e15aa3a614620002c2578063e9b894df14620002d9575b600080fd5b600b545b6040519081526020015b60405180910390f35b620001216200011b36600462001d6d565b620002eb565b005b620001216200013436600462001e00565b62000378565b620001766200014b36600462001ed1565b6001600160a01b03919091166000908152600260209081526040808320938352929052205460ff1690565b604051901515815260200162000101565b620000f76200019836600462002148565b6000918252600c602090815260408084206001600160a01b0393909316845291905290205490565b6200012162000482565b6003546201000090046001600160a01b03165b604051620001019190620022b5565b62000121620001fd36600462001f00565b6200055c565b600654600754600854600954600a54604080516001600160a01b0390961686526020860194909452928401919091526060830152608082015260a00162000101565b620001dd62000580565b6200012162000260366004620020ee565b62000607565b6200027062000616565b604051620001019190620023d6565b620001216200029036600462001e46565b620006f9565b620002a062000823565b6040516200010192919062002451565b6004546001600160a01b0316620001dd565b62000121620002d33660046200202b565b6200095a565b600e546001600160a01b0316620001dd565b600354610100900460ff168062000305575060035460ff16155b6200032d5760405162461bcd60e51b8152600401620003249062002483565b60405180910390fd5b600354610100900460ff1615801562000350576003805461ffff19166101011790555b6200035e85858585620009d6565b801562000371576003805461ff00191690555b5050505050565b3373__Library_______________________________6337ea306382600360029054906101000a90046001600160a01b03166001600160a01b031663da3dce266040518163ffffffff1660e01b815260040160206040518083038186803b158015620003e357600080fd5b505afa158015620003f8573d6000803e3d6000fd5b505050506040513d601f19601f820116820180604052508101906200041e919062001d4d565b6040518363ffffffff1660e01b81526004016200043d929190620022c9565b60006040518083038186803b1580156200045657600080fd5b505af41580156200046b573d6000803e3d6000fd5b505050506200047c84848462000afd565b50505050565b60016200048f8162000b24565b6006546040516337ea306360e01b8152339173__Library_______________________________916337ea306391620004d79185916001600160a01b031690600401620022c9565b60006040518083038186803b158015620004f057600080fd5b505af415801562000505573d6000803e3d6000fd5b505050506200051362000bb1565b6006546005546040519081526001600160a01b03909116907f1fe8aec10c0a50fa765076161e08c1f961ced69594ff45cf7d559f593afe14799060200160405180910390a25050565b6200056c86868686868662000bdc565b62000578868562000d4a565b505050505050565b600e5460408051635c60da1b60e01b815290516000926001600160a01b031691635c60da1b91600480830192602092919082900301818787803b158015620005c757600080fd5b505af1158015620005dc573d6000803e3d6000fd5b505050506040513d601f19601f8201168201806040525081019062000602919062001d4d565b905090565b62000613338262000d4a565b50565b6060600d805480602002602001604051908101604052809291908181526020016000905b82821015620006f05783829060005260206000200180546200065c90620025ba565b80601f01602080910402602001604051908101604052809291908181526020018280546200068a90620025ba565b8015620006db5780601f10620006af57610100808354040283529160200191620006db565b820191906000526020600020905b815481529060010190602001808311620006bd57829003601f168201915b5050505050815260200190600101906200063a565b50505050905090565b600480546040516337ea306360e01b8152339273__Library_______________________________926337ea306392620007409286926001600160a01b03169101620022c9565b60006040518083038186803b1580156200075957600080fd5b505af41580156200076e573d6000803e3d6000fd5b5050600e54600160a01b900460ff16159150620007b890505760405162461bcd60e51b8152602060048201526005602482015264454332362d60d81b604482015260640162000324565b83308484604051620007ca9062001b8c565b620007d99493929190620022e3565b604051809103906000f080158015620007f6573d6000803e3d6000fd5b50600e80546001600160a81b0319166001600160a01b039290921691909117600160a01b17905550505050565b606080600060018180546200083890620025ba565b80601f01602080910402602001604051908101604052809291908181526020018280546200086690620025ba565b8015620008b75780601f106200088b57610100808354040283529160200191620008b7565b820191906000526020600020905b8154815290600101906020018083116200089957829003601f168201915b50505050509150808054620008cc90620025ba565b80601f0160208091040260200160405190810160405280929190818152602001828054620008fa90620025ba565b80156200094b5780601f106200091f576101008083540402835291602001916200094b565b820191906000526020600020905b8154815290600101906020018083116200092d57829003601f168201915b50505050509050915091509091565b6200096462000e73565b60005b8151811015620009d257600d8282815181106200098857620009886200262b565b60209081029190910181015182546001810184556000938452928290208151620009bc949190910192919091019062001b9a565b5080620009c981620025f7565b91505062000967565b5050565b600354610100900460ff1680620009f0575060035460ff16155b62000a0f5760405162461bcd60e51b8152600401620003249062002483565b600354610100900460ff1615801562000a32576003805461ffff19166101011790555b62000a3d8462000a69565b600480546001600160a01b0319166001600160a01b0387161790556000600b556200035e8383620011f2565b600354610100900460ff168062000a83575060035460ff16155b62000aa25760405162461bcd60e51b8152600401620003249062002483565b600354610100900460ff1615801562000ac5576003805461ffff19166101011790555b6003805462010000600160b01b031916620100006001600160a01b038516021790558015620009d2576003805461ff00191690555050565b62000b076200121d565b15156001141562000b1f5762000b1f8383836200125d565b505050565b801562000b705762000b356200121d565b1515600114620006135760405162461bcd60e51b8152602060048201526005602482015264454332352d60d81b604482015260640162000324565b62000b7a6200121d565b15620006135760405162461bcd60e51b8152602060048201526005602482015264454332342d60d81b604482015260640162000324565b60006005819055600680546001600160a01b0319169055600781905560088190556009819055600a55565b8162000be881620013d5565b868462000bf682826200140e565b600554881462000c315760405162461bcd60e51b8152602060048201526005602482015264454333352d60d81b604482015260640162000324565b60405163432f9a5560e01b815273__SignatureLibrary______________________9063432f9a559062000c7a908c908c908c908c908c908c906000906001906004016200235d565b60206040518083038186803b15801562000c9357600080fd5b505af415801562000ca8573d6000803e3d6000fd5b505050506040513d601f19601f8201168201806040525081019062000cce91906200210e565b151560011462000d095760405162461bcd60e51b8152602060048201526005602482015264454333322d60d81b604482015260640162000324565b62000d3f89876001600160a01b03909116600090815260026020908152604080832093835292905220805460ff19166001179055565b505050505050505050565b600162000d578162000b24565b6005548390600062000d6a83836200146c565b90506000811162000da65760405162461bcd60e51b8152602060048201526005602482015264454332332d60d81b604482015260640162000324565b600062000db9876005600001546200146c565b9050851562000de557806005600401600082825462000dd9919062002540565b9091555062000e019050565b8060058001600082825462000dfb919062002540565b90915550505b60055462000e11908883620014ad565b60055460408051918252871515602083015281018290526001600160a01b038816907f50f654d58981575c05e369cb129aeacb01e1b036af429380242cfc5d1a4b743f9060600160405180910390a262000e6a620014eb565b50505050505050565b600062000e808162000b24565b60045433906000906001600160a01b031682141562000ea25750600162000fec565b600062000eaf83620015cf565b90506000600360029054906101000a90046001600160a01b03166001600160a01b03166387552a0d6040518163ffffffff1660e01b815260040160206040518083038186803b15801562000f0257600080fd5b505afa15801562000f17573d6000803e3d6000fd5b505050506040513d601f19601f8201168201806040525081019062000f3d919062001d4d565b6001600160a01b031663b049473f6040518163ffffffff1660e01b815260040160606040518083038186803b15801562000f7657600080fd5b505afa15801562000f8b573d6000803e3d6000fd5b505050506040513d601f19601f8201168201806040525081019062000fb191906200217b565b92505050606462000fc1620016e2565b62000fd09060ff84166200257e565b62000fdc91906200255b565b82111562000fe957600192505b50505b600181151514620010285760405162461bcd60e51b8152602060048201526005602482015264454332322d60d81b604482015260640162000324565b600080600360029054906101000a90046001600160a01b03166001600160a01b03166387552a0d6040518163ffffffff1660e01b815260040160206040518083038186803b1580156200107a57600080fd5b505afa1580156200108f573d6000803e3d6000fd5b505050506040513d601f19601f82011682018060405250810190620010b5919062001d4d565b6001600160a01b031663b049473f6040518163ffffffff1660e01b815260040160606040518083038186803b158015620010ee57600080fd5b505afa15801562001103573d6000803e3d6000fd5b505050506040513d601f19601f820116820180604052508101906200112991906200217b565b50600680546001600160a01b0319163317905590925090506200114d824262002540565b600755606460ff821662001160620016e2565b6200116c91906200257e565b6200117891906200255b565b600855600b805460058190559060006200119283620025f7565b90915550506006546005546007546008546040516001600160a01b03909416937f472501d19bf75639b2e316cd36f8568b0c3ab943b82a87de3c086c98c1929df993620011e39390929091620024d1565b60405180910390a25050505050565b81516200120790600090602085019062001b9a565b50805162000b1f90600190602084019062001b9a565b600754600090421015620012315750600190565b6006546001600160a01b03161562001257576200124d620017e2565b6200125762000bb1565b50600090565b6001600160a01b038316158015906200129a57506005546000908152600c602090815260408083206001600160a01b038716845290915290205415155b1562000b1f576005546000908152600c602090815260408083206001600160a01b03871684529091529020548190811115620012f857506005546000908152600c602090815260408083206001600160a01b03871684529091529020545b6005546000908152600c602090815260408083206001600160a01b0388168452909152812080548392906200132f908490620025a0565b90915550506001600160a01b0383161562001381576005546000908152600c602090815260408083206001600160a01b0387168452909152812080548392906200137b90849062002540565b90915550505b600554604080516001600160a01b038088168252861660208201529081018390527f65fbd5e5dd32bea4aeca85bd0be0abf0e489d655dee888a7510d43b06dda2dba9060600160405180910390a250505050565b804210620006135760405162461bcd60e51b8152602060048201526005602482015264454333332d60d81b604482015260640162000324565b6001600160a01b038216600090815260026020908152604080832084845290915290205460ff1615620009d25760405162461bcd60e51b8152602060048201526005602482015264454333342d60d81b604482015260640162000324565b6000818152600c602090815260408083206001600160a01b03861684529091528120546200149a84620015cf565b620014a69190620025a0565b9392505050565b6000838152600c602090815260408083206001600160a01b038616845290915281208054839290620014e190849062002540565b9091555050505050565b60085460095410620015615762001501620017ec565b6200150b62000bb1565b600654600554600954600a546040516001600160a01b03909416937f23ca0034cf5aad32571b4a492e9598ea8a490e1643a60970e3cdc6933b55e49f93620015579390929091620024d1565b60405180910390a2565b600854600a5410620015cd5762001577620017e2565b6200158162000bb1565b600654600554600954600a546040516001600160a01b03909416937fa58eb6daa3c62c3f883973c4035e5bd3e81aa627c8379de068a7de42df122be293620015579390929091620024d1565b565b6000600360029054906101000a90046001600160a01b03166001600160a01b031663da3dce266040518163ffffffff1660e01b815260040160206040518083038186803b1580156200162057600080fd5b505afa15801562001635573d6000803e3d6000fd5b505050506040513d601f19601f820116820180604052508101906200165b919062001d4d565b6001600160a01b03166370a08231836040518263ffffffff1660e01b8152600401620016889190620022b5565b60206040518083038186803b158015620016a157600080fd5b505afa158015620016b6573d6000803e3d6000fd5b505050506040513d601f19601f82011682018060405250810190620016dc91906200212e565b92915050565b6000600360029054906101000a90046001600160a01b03166001600160a01b031663da3dce266040518163ffffffff1660e01b815260040160206040518083038186803b1580156200173357600080fd5b505afa15801562001748573d6000803e3d6000fd5b505050506040513d601f19601f820116820180604052508101906200176e919062001d4d565b6001600160a01b03166318160ddd6040518163ffffffff1660e01b815260040160206040518083038186803b158015620017a757600080fd5b505afa158015620017bc573d6000803e3d6000fd5b505050506040513d601f19601f820116820180604052508101906200060291906200212e565b620015cd620017f6565b620017e262001804565b620015cd600d600062001c29565b600e60009054906101000a90046001600160a01b03166001600160a01b0316634f1ef28673__AddressLibrary________________________63f4ce9ae873__Library_______________________________63caa8f589600d6000815481106200187357620018736200262b565b906000526020600020016040518263ffffffff1660e01b81526004016200189b91906200243c565b60006040518083038186803b158015620018b457600080fd5b505af4158015620018c9573d6000803e3d6000fd5b505050506040513d6000823e601f3d908101601f19168201604052620018f3919081019062001f85565b6000815181106200190857620019086200262b565b60200260200101516040518263ffffffff1660e01b81526004016200192f91815260200190565b60206040518083038186803b1580156200194857600080fd5b505af41580156200195d573d6000803e3d6000fd5b505050506040513d601f19601f8201168201806040525081019062001983919062001d4d565b600d6001815481106200199a576200199a6200262b565b906000526020600020016040518363ffffffff1660e01b8152600401620019c39291906200232f565b600060405180830381600087803b158015620019de57600080fd5b505af1158015620019f3573d6000803e3d6000fd5b505050507f796e941683b106486d30807919e7c79a03fc48f213a6e1516f03210e6994fe4773__AddressLibrary________________________63f4ce9ae873__Library_______________________________63caa8f589600d60008154811062001a635762001a636200262b565b906000526020600020016040518263ffffffff1660e01b815260040162001a8b91906200243c565b60006040518083038186803b15801562001aa457600080fd5b505af415801562001ab9573d6000803e3d6000fd5b505050506040513d6000823e601f3d908101601f1916820160405262001ae3919081019062001f85565b60008151811062001af85762001af86200262b565b60200260200101516040518263ffffffff1660e01b815260040162001b1f91815260200190565b60206040518083038186803b15801562001b3857600080fd5b505af415801562001b4d573d6000803e3d6000fd5b505050506040513d601f19601f8201168201806040525081019062001b73919062001d4d565b60405162001b829190620022b5565b60405180910390a1565b610f30806200267d83390190565b82805462001ba890620025ba565b90600052602060002090601f01602090048101928262001bcc576000855562001c17565b82601f1062001be757805160ff191683800117855562001c17565b8280016001018555821562001c17579182015b8281111562001c1757825182559160200191906001019062001bfa565b5062001c2592915062001c49565b5090565b508054600082559060005260206000209081019062000613919062001c60565b5b8082111562001c25576000815560010162001c4a565b8082111562001c2557600062001c77828262001c81565b5060010162001c60565b50805462001c8f90620025ba565b6000825580601f1062001ca0575050565b601f01602090049060005260206000209081019062000613919062001c49565b600082601f83011262001cd257600080fd5b81356001600160401b0381111562001cee5762001cee62002641565b62001d03601f8201601f1916602001620024e7565b81815284602083860101111562001d1957600080fd5b816020850160208301376000918101602001919091529392505050565b805160ff8116811462001d4857600080fd5b919050565b60006020828403121562001d6057600080fd5b8151620014a68162002657565b6000806000806080858703121562001d8457600080fd5b843562001d918162002657565b9350602085013562001da38162002657565b925060408501356001600160401b038082111562001dc057600080fd5b62001dce8883890162001cc0565b9350606087013591508082111562001de557600080fd5b5062001df48782880162001cc0565b91505092959194509250565b60008060006060848603121562001e1657600080fd5b833562001e238162002657565b9250602084013562001e358162002657565b929592945050506040919091013590565b60008060006040848603121562001e5c57600080fd5b833562001e698162002657565b925060208401356001600160401b038082111562001e8657600080fd5b818601915086601f83011262001e9b57600080fd5b81358181111562001eab57600080fd5b87602082850101111562001ebe57600080fd5b6020830194508093505050509250925092565b6000806040838503121562001ee557600080fd5b823562001ef28162002657565b946020939093013593505050565b60008060008060008060c0878903121562001f1a57600080fd5b863562001f278162002657565b955060208701359450604087013562001f40816200266d565b9350606087013592506080870135915060a08701356001600160401b0381111562001f6a57600080fd5b62001f7889828a0162001cc0565b9150509295509295509295565b6000602080838503121562001f9957600080fd5b82516001600160401b0381111562001fb057600080fd5b8301601f8101851362001fc257600080fd5b805162001fd962001fd3826200251a565b620024e7565b80828252848201915084840188868560051b870101111562001ffa57600080fd5b600094505b838510156200201f57805183526001949094019391850191850162001fff565b50979650505050505050565b600060208083850312156200203f57600080fd5b82356001600160401b03808211156200205757600080fd5b818501915085601f8301126200206c57600080fd5b81356200207d62001fd3826200251a565b80828252858201915085850189878560051b88010111156200209e57600080fd5b6000805b85811015620020de57823587811115620020ba578283fd5b620020ca8d8b838c010162001cc0565b8652509388019391880191600101620020a2565b50919a9950505050505050505050565b6000602082840312156200210157600080fd5b8135620014a6816200266d565b6000602082840312156200212157600080fd5b8151620014a6816200266d565b6000602082840312156200214157600080fd5b5051919050565b600080604083850312156200215c57600080fd5b823591506020830135620021708162002657565b809150509250929050565b6000806000606084860312156200219157600080fd5b83519250620021a36020850162001d36565b9150620021b36040850162001d36565b90509250925092565b6000815180845260005b81811015620021e457602081850181015186830182015201620021c6565b81811115620021f7576000602083870101525b50601f01601f19169290920160200192915050565b8054600090600181811c90808316806200222757607f831692505b60208084108214156200224a57634e487b7160e01b600052602260045260246000fd5b8388528180156200226457600181146200227957620022a9565b60ff19861689830152604089019650620022a9565b876000528160002060005b86811015620022a15781548b820185015290850190830162002284565b8a0183019750505b50505050505092915050565b6001600160a01b0391909116815260200190565b6001600160a01b0392831681529116602082015260400190565b6001600160a01b0385811682528416602082015260606040820181905281018290526000828460808401376000608084840101526080601f19601f850116830101905095945050505050565b6001600160a01b038316815260406020820181905260009062002355908301846200220c565b949350505050565b600061010060018060a01b038b16835289602084015288151560408401528760608401528660808401528060a08401526200239b81840187620021bc565b905082810360c0840152620023b181866200220c565b905082810360e0840152620023c781856200220c565b9b9a5050505050505050505050565b6000602080830181845280855180835260408601915060408160051b870101925083870160005b828110156200242f57603f198886030184526200241c858351620021bc565b94509285019290850190600101620023fd565b5092979650505050505050565b602081526000620014a660208301846200220c565b604081526000620024666040830185620021bc565b82810360208401526200247a8185620021bc565b95945050505050565b6020808252602e908201527f496e697469616c697a61626c653a20636f6e747261637420697320616c72656160408201526d191e481a5b9a5d1a585b1a5e995960921b606082015260800190565b9283526020830191909152604082015260600190565b604051601f8201601f191681016001600160401b038111828210171562002512576200251262002641565b604052919050565b60006001600160401b0382111562002536576200253662002641565b5060051b60200190565b6000821982111562002556576200255662002615565b500190565b6000826200257957634e487b7160e01b600052601260045260246000fd5b500490565b60008160001904831182151516156200259b576200259b62002615565b500290565b600082821015620025b557620025b562002615565b500390565b600181811c90821680620025cf57607f821691505b60208210811415620025f157634e487b7160e01b600052602260045260246000fd5b50919050565b60006000198214156200260e576200260e62002615565b5060010190565b634e487b7160e01b600052601160045260246000fd5b634e487b7160e01b600052603260045260246000fd5b634e487b7160e01b600052604160045260246000fd5b6001600160a01b03811681146200061357600080fd5b80151581146200061357600080fdfe608060405260405162000f3038038062000f308339810160408190526200002691620004c2565b82816200005560017f360894a13ba1a3210667c828492db98dca3e2076cc3735a920a3ca505d382bbd620005f5565b60008051602062000ee9833981519152146200007557620000756200064a565b6200008382826000620000e7565b50620000b3905060017fb53127684a568b3173ae13b9f8a6016e243e63b6e8ee1178d6a717850b5d6104620005f5565b60008051602062000ec983398151915214620000d357620000d36200064a565b620000de8262000124565b50505062000676565b620000f2836200017f565b600082511180620001005750805b156200011f576200011d8383620001c160201b620002601760201c565b505b505050565b7f7e644d79422f17c01e4894b5f4f588d331ebfa28653d42ae832dc59e38c9798f6200014f620001f0565b604080516001600160a01b03928316815291841660208301520160405180910390a16200017c8162000229565b50565b6200018a81620002de565b6040516001600160a01b038216907fbc7cd75a20ee27fd9adebab32041f755214dbc6bffa90cc0225b39da2e5c2d3b90600090a250565b6060620001e9838360405180606001604052806027815260200162000f096027913962000381565b9392505050565b60006200021a60008051602062000ec983398151915260001b6200045e60201b620002081760201c565b546001600160a01b0316919050565b6001600160a01b038116620002945760405162461bcd60e51b815260206004820152602660248201527f455243313936373a206e65772061646d696e20697320746865207a65726f206160448201526564647265737360d01b60648201526084015b60405180910390fd5b80620002bd60008051602062000ec983398151915260001b6200045e60201b620002081760201c565b80546001600160a01b0319166001600160a01b039290921691909117905550565b620002f4816200046160201b6200028c1760201c565b620003585760405162461bcd60e51b815260206004820152602d60248201527f455243313936373a206e657720696d706c656d656e746174696f6e206973206e60448201526c1bdd08184818dbdb9d1c9858dd609a1b60648201526084016200028b565b80620002bd60008051602062000ee983398151915260001b6200045e60201b620002081760201c565b6060833b620003e25760405162461bcd60e51b815260206004820152602660248201527f416464726573733a2064656c65676174652063616c6c20746f206e6f6e2d636f6044820152651b9d1c9858dd60d21b60648201526084016200028b565b600080856001600160a01b031685604051620003ff9190620005a2565b600060405180830381855af49150503d80600081146200043c576040519150601f19603f3d011682016040523d82523d6000602084013e62000441565b606091505b5090925090506200045482828662000467565b9695505050505050565b90565b3b151590565b6060831562000478575081620001e9565b825115620004895782518084602001fd5b8160405162461bcd60e51b81526004016200028b9190620005c0565b80516001600160a01b0381168114620004bd57600080fd5b919050565b600080600060608486031215620004d857600080fd5b620004e384620004a5565b9250620004f360208501620004a5565b60408501519092506001600160401b03808211156200051157600080fd5b818601915086601f8301126200052657600080fd5b8151818111156200053b576200053b62000660565b604051601f8201601f19908116603f0116810190838211818310171562000566576200056662000660565b816040528281528960208487010111156200058057600080fd5b620005938360208301602088016200061b565b80955050505050509250925092565b60008251620005b68184602087016200061b565b9190910192915050565b6020815260008251806020840152620005e18160408501602087016200061b565b601f01601f19169190910160400192915050565b6000828210156200061657634e487b7160e01b600052601160045260246000fd5b500390565b60005b83811015620006385781810151838201526020016200061e565b838111156200011d5750506000910152565b634e487b7160e01b600052600160045260246000fd5b634e487b7160e01b600052604160045260246000fd5b61084380620006866000396000f3fe60806040526004361061004e5760003560e01c80633659cfe6146100655780634f1ef286146100855780635c60da1b146100985780638f283970146100c9578063f851a440146100e95761005d565b3661005d5761005b6100fe565b005b61005b6100fe565b34801561007157600080fd5b5061005b61008036600461068e565b610118565b61005b6100933660046106a9565b61015f565b3480156100a457600080fd5b506100ad6101d0565b6040516001600160a01b03909116815260200160405180910390f35b3480156100d557600080fd5b5061005b6100e436600461068e565b61020b565b3480156100f557600080fd5b506100ad610235565b610106610292565b610116610111610331565b61033b565b565b61012061035f565b6001600160a01b0316336001600160a01b031614156101575761015481604051806020016040528060008152506000610380565b50565b6101546100fe565b61016761035f565b6001600160a01b0316336001600160a01b031614156101c8576101c38383838080601f01602080910402602001604051908101604052809392919081815260200183838082843760009201919091525060019250610380915050565b505050565b6101c36100fe565b60006101da61035f565b6001600160a01b0316336001600160a01b03161415610200576101fb610331565b905090565b6102086100fe565b90565b61021361035f565b6001600160a01b0316336001600160a01b0316141561015757610154816103ab565b600061023f61035f565b6001600160a01b0316336001600160a01b03161415610200576101fb61035f565b606061028583836040518060600160405280602781526020016107e7602791396103ff565b9392505050565b3b151590565b61029a61035f565b6001600160a01b0316336001600160a01b031614156101165760405162461bcd60e51b815260206004820152604260248201527f5472616e73706172656e745570677261646561626c6550726f78793a2061646d60448201527f696e2063616e6e6f742066616c6c6261636b20746f2070726f78792074617267606482015261195d60f21b608482015260a4015b60405180910390fd5b60006101fb6104d3565b3660008037600080366000845af43d6000803e80801561035a573d6000f35b3d6000fd5b60006000805160206107a78339815191525b546001600160a01b0316919050565b610389836104e9565b6000825111806103965750805b156101c3576103a58383610260565b50505050565b7f7e644d79422f17c01e4894b5f4f588d331ebfa28653d42ae832dc59e38c9798f6103d461035f565b604080516001600160a01b03928316815291841660208301520160405180910390a161015481610529565b6060833b61045e5760405162461bcd60e51b815260206004820152602660248201527f416464726573733a2064656c65676174652063616c6c20746f206e6f6e2d636f6044820152651b9d1c9858dd60d21b6064820152608401610328565b600080856001600160a01b031685604051610479919061072b565b600060405180830381855af49150503d80600081146104b4576040519150601f19603f3d011682016040523d82523d6000602084013e6104b9565b606091505b50915091506104c98282866105c0565b9695505050505050565b60006000805160206107c7833981519152610371565b6104f2816105f9565b6040516001600160a01b038216907fbc7cd75a20ee27fd9adebab32041f755214dbc6bffa90cc0225b39da2e5c2d3b90600090a250565b6001600160a01b03811661058e5760405162461bcd60e51b815260206004820152602660248201527f455243313936373a206e65772061646d696e20697320746865207a65726f206160448201526564647265737360d01b6064820152608401610328565b806000805160206107a78339815191525b80546001600160a01b0319166001600160a01b039290921691909117905550565b606083156105cf575081610285565b8251156105df5782518084602001fd5b8160405162461bcd60e51b81526004016103289190610747565b803b61065d5760405162461bcd60e51b815260206004820152602d60248201527f455243313936373a206e657720696d706c656d656e746174696f6e206973206e60448201526c1bdd08184818dbdb9d1c9858dd609a1b6064820152608401610328565b806000805160206107c783398151915261059f565b80356001600160a01b038116811461068957600080fd5b919050565b6000602082840312156106a057600080fd5b61028582610672565b6000806000604084860312156106be57600080fd5b6106c784610672565b925060208401356001600160401b03808211156106e357600080fd5b818601915086601f8301126106f757600080fd5b81358181111561070657600080fd5b87602082850101111561071857600080fd5b6020830194508093505050509250925092565b6000825161073d81846020870161077a565b9190910192915050565b602081526000825180602084015261076681604085016020870161077a565b601f01601f19169190910160400192915050565b60005b8381101561079557818101518382015260200161077d565b838111156103a5575050600091015256feb53127684a568b3173ae13b9f8a6016e243e63b6e8ee1178d6a717850b5d6103360894a13ba1a3210667c828492db98dca3e2076cc3735a920a3ca505d382bbc416464726573733a206c6f772d6c6576656c2064656c65676174652063616c6c206661696c6564a2646970667358221220bf234746908c6f46655f3e5bb4f0abadaeb249c68beba1c928f2af74deb56e2264736f6c63430008070033b53127684a568b3173ae13b9f8a6016e243e63b6e8ee1178d6a717850b5d6103360894a13ba1a3210667c828492db98dca3e2076cc3735a920a3ca505d382bbc416464726573733a206c6f772d6c6576656c2064656c65676174652063616c6c206661696c6564a2646970667358221220f25002cd6441e5132560e716c99677ac267a97489d422fc549016f64316d5f3664736f6c63430008070033",
  "immutableReferences": {},
  "source": "// SPDX-License-Identifier: GPL-3.0\r\n\r\npragma solidity 0.8.7;\r\n\r\n/**\r\n * @title Storage\r\n * @dev Store & retrieve value in a variable\r\n */\r\n\r\nimport \"../Interfaces/IAdmin.sol\";\r\nimport \"../Base/StdPropositionBaseContract.sol\";\r\nimport \"../Libraries/AddressLibrary.sol\";\r\nimport \"../Libraries/Library.sol\";\r\nimport \"@openzeppelin/contracts/proxy/transparent/TransparentUpgradeableProxy.sol\";\r\n\r\n\r\ncontract Admin is IAdmin, StdPropositionBaseContract{\r\n    using AddressLibrary for *;\r\n    using Library for *;\r\n\r\n    // EVENTS /////////////////////////////////////////\r\n    event _NewManager(address Manager);\r\n\r\n    // DATA /////////////////////////////////////////\r\n    // Manager\r\n    TransparentUpgradeableProxy private _Manager;\r\n\r\n    // init\r\n    bool private _init;\r\n\r\n    // MODIFIERS /////////////////////////////////////////\r\n    modifier isNotInitialized(){\r\n        require(false == _init, \"EC26-\");\r\n        _;\r\n    }\r\n\r\n    // CONSTRUCTOR and INITIALIZATION /////////////////////////////////////////\r\n    constructor(string memory contractName, string memory contractVersion) \r\n    {\r\n        super.StdPropositionBaseContract_init(msg.sender, address(this), contractName, contractVersion);\r\n        _init = false;\r\n    }\r\n\r\n    function Initialize(address managerContract, bytes calldata managerInit) \r\n        isFromChairPerson(msg.sender)\r\n        isNotInitialized()\r\n    external override\r\n    {\r\n        _Manager = new TransparentUpgradeableProxy(managerContract, address(this), managerInit);\r\n        _init = true;\r\n    }\r\n\r\n    // FUNCTIONALITY /////////////////////////////////////////\r\n    // governance : contracts assignment and management\r\n    function UpdateAll() internal override\r\n    {\r\n        _Manager.upgradeToAndCall(AddressLibrary.Bytes32ToAddress(Library.BytestoBytes32(_ProposedNewValues[0])[0]), _ProposedNewValues[1]);\r\n\r\n        emit _NewManager(AddressLibrary.Bytes32ToAddress(Library.BytestoBytes32(_ProposedNewValues[0])[0]));\r\n    }\r\n\r\n    // configuration Proxies\r\n    function retrieveManagerProxy() external override view returns (address) {\r\n        return (address(_Manager));\r\n    }\r\n\r\n    // configuration implementations\r\n    function retrieveManager() external override returns (address) {\r\n        return _Manager.implementation();\r\n    }\r\n   \r\n  \r\n}",
  "sourcePath": "C:/Users/d-aam/GitHub/Certificates/contracts/DeployedContracts/Admin.sol",
  "compiler": {
    "name": "solc",
    "version": "0.8.7+commit.e28d00a7.Emscripten.clang"
  },
  "schemaVersion": "3.3.4",
  "updatedAt": "2021-11-02T15:33:23.509Z",
  "networkType": "ethereum",
  "devdoc": {
    "kind": "dev",
    "methods": {},
    "version": 1
  },
  "userdoc": {
    "kind": "user",
    "methods": {},
    "version": 1
  }
}