{
  "contractName": "Admin",
  "abi": [
    {
      "inputs": [
        {
          "internalType": "string",
          "name": "contractName",
          "type": "string"
        },
        {
          "internalType": "string",
          "name": "contractVersion",
          "type": "string"
        },
        {
          "internalType": "address",
          "name": "managerContract",
          "type": "address"
        },
        {
          "internalType": "bytes",
          "name": "managerInit",
          "type": "bytes"
        }
      ],
      "stateMutability": "nonpayable",
      "type": "constructor"
    },
    {
      "anonymous": false,
      "inputs": [
        {
          "indexed": false,
          "internalType": "uint256",
          "name": "Id",
          "type": "uint256"
        },
        {
          "indexed": true,
          "internalType": "address",
          "name": "Proposer",
          "type": "address"
        },
        {
          "indexed": false,
          "internalType": "uint256",
          "name": "Deadline",
          "type": "uint256"
        },
        {
          "indexed": false,
          "internalType": "uint256",
          "name": "Threshold",
          "type": "uint256"
        }
      ],
      "name": "_AddedProposition",
      "type": "event"
    },
    {
      "anonymous": false,
      "inputs": [
        {
          "indexed": false,
          "internalType": "uint256",
          "name": "Id",
          "type": "uint256"
        },
        {
          "indexed": true,
          "internalType": "address",
          "name": "Proposer",
          "type": "address"
        }
      ],
      "name": "_CancelledProposition",
      "type": "event"
    },
    {
      "anonymous": false,
      "inputs": [
        {
          "indexed": false,
          "internalType": "address",
          "name": "Admin",
          "type": "address"
        }
      ],
      "name": "_NewAdmin",
      "type": "event"
    },
    {
      "anonymous": false,
      "inputs": [
        {
          "indexed": false,
          "internalType": "address",
          "name": "Manager",
          "type": "address"
        }
      ],
      "name": "_NewManager",
      "type": "event"
    },
    {
      "anonymous": false,
      "inputs": [
        {
          "indexed": false,
          "internalType": "uint256",
          "name": "Id",
          "type": "uint256"
        },
        {
          "indexed": true,
          "internalType": "address",
          "name": "Proposer",
          "type": "address"
        },
        {
          "indexed": false,
          "internalType": "uint256",
          "name": "VotesFor",
          "type": "uint256"
        },
        {
          "indexed": false,
          "internalType": "uint256",
          "name": "VotesAgainst",
          "type": "uint256"
        }
      ],
      "name": "_PropositionApproved",
      "type": "event"
    },
    {
      "anonymous": false,
      "inputs": [
        {
          "indexed": false,
          "internalType": "uint256",
          "name": "Id",
          "type": "uint256"
        },
        {
          "indexed": true,
          "internalType": "address",
          "name": "Proposer",
          "type": "address"
        },
        {
          "indexed": false,
          "internalType": "uint256",
          "name": "VotesFor",
          "type": "uint256"
        },
        {
          "indexed": false,
          "internalType": "uint256",
          "name": "VotesAgainst",
          "type": "uint256"
        }
      ],
      "name": "_PropositionRejected",
      "type": "event"
    },
    {
      "anonymous": false,
      "inputs": [
        {
          "indexed": false,
          "internalType": "uint256",
          "name": "Id",
          "type": "uint256"
        },
        {
          "indexed": true,
          "internalType": "address",
          "name": "Voter",
          "type": "address"
        },
        {
          "indexed": false,
          "internalType": "bool",
          "name": "Vote",
          "type": "bool"
        },
        {
          "indexed": false,
          "internalType": "uint256",
          "name": "AmountTokens",
          "type": "uint256"
        }
      ],
      "name": "_PropositionVote",
      "type": "event"
    },
    {
      "anonymous": false,
      "inputs": [
        {
          "indexed": true,
          "internalType": "uint256",
          "name": "Id",
          "type": "uint256"
        },
        {
          "indexed": false,
          "internalType": "address",
          "name": "From",
          "type": "address"
        },
        {
          "indexed": false,
          "internalType": "address",
          "name": "To",
          "type": "address"
        },
        {
          "indexed": false,
          "internalType": "uint256",
          "name": "Amount",
          "type": "uint256"
        }
      ],
      "name": "_UsedTokensTransfered",
      "type": "event"
    },
    {
      "inputs": [
        {
          "internalType": "address",
          "name": "chairPerson",
          "type": "address"
        },
        {
          "internalType": "address",
          "name": "managerContractAddress",
          "type": "address"
        },
        {
          "internalType": "string",
          "name": "contractName",
          "type": "string"
        },
        {
          "internalType": "string",
          "name": "contractVersion",
          "type": "string"
        }
      ],
      "name": "StdPropositionBaseContract_init",
      "outputs": [],
      "stateMutability": "nonpayable",
      "type": "function"
    },
    {
      "inputs": [],
      "name": "cancelProposition",
      "outputs": [],
      "stateMutability": "nonpayable",
      "type": "function"
    },
    {
      "inputs": [
        {
          "internalType": "address",
          "name": "from",
          "type": "address"
        },
        {
          "internalType": "address",
          "name": "to",
          "type": "address"
        },
        {
          "internalType": "uint256",
          "name": "amount",
          "type": "uint256"
        }
      ],
      "name": "onTokenBalanceChanged",
      "outputs": [],
      "stateMutability": "nonpayable",
      "type": "function"
    },
    {
      "inputs": [],
      "name": "retrieveChairPerson",
      "outputs": [
        {
          "internalType": "address",
          "name": "",
          "type": "address"
        }
      ],
      "stateMutability": "view",
      "type": "function",
      "constant": true
    },
    {
      "inputs": [],
      "name": "retrieveContractConfig",
      "outputs": [
        {
          "internalType": "string",
          "name": "",
          "type": "string"
        },
        {
          "internalType": "string",
          "name": "",
          "type": "string"
        }
      ],
      "stateMutability": "view",
      "type": "function",
      "constant": true
    },
    {
      "inputs": [],
      "name": "retrieveManagerContract",
      "outputs": [
        {
          "internalType": "address",
          "name": "",
          "type": "address"
        }
      ],
      "stateMutability": "view",
      "type": "function",
      "constant": true
    },
    {
      "inputs": [],
      "name": "retrieveNextPropId",
      "outputs": [
        {
          "internalType": "uint256",
          "name": "",
          "type": "uint256"
        }
      ],
      "stateMutability": "view",
      "type": "function",
      "constant": true
    },
    {
      "inputs": [
        {
          "internalType": "address",
          "name": "addr",
          "type": "address"
        },
        {
          "internalType": "uint256",
          "name": "nonce",
          "type": "uint256"
        }
      ],
      "name": "retrieveNonce",
      "outputs": [
        {
          "internalType": "bool",
          "name": "",
          "type": "bool"
        }
      ],
      "stateMutability": "view",
      "type": "function",
      "constant": true
    },
    {
      "inputs": [],
      "name": "retrieveProposition",
      "outputs": [
        {
          "internalType": "bytes[]",
          "name": "",
          "type": "bytes[]"
        }
      ],
      "stateMutability": "view",
      "type": "function",
      "constant": true
    },
    {
      "inputs": [],
      "name": "retrievePropositionStatus",
      "outputs": [
        {
          "internalType": "address",
          "name": "",
          "type": "address"
        },
        {
          "internalType": "uint256",
          "name": "",
          "type": "uint256"
        },
        {
          "internalType": "uint256",
          "name": "",
          "type": "uint256"
        },
        {
          "internalType": "uint256",
          "name": "",
          "type": "uint256"
        },
        {
          "internalType": "uint256",
          "name": "",
          "type": "uint256"
        }
      ],
      "stateMutability": "view",
      "type": "function",
      "constant": true
    },
    {
      "inputs": [
        {
          "internalType": "uint256",
          "name": "PropId",
          "type": "uint256"
        },
        {
          "internalType": "address",
          "name": "voter",
          "type": "address"
        }
      ],
      "name": "retrieveVotesForVoter",
      "outputs": [
        {
          "internalType": "uint256",
          "name": "",
          "type": "uint256"
        }
      ],
      "stateMutability": "view",
      "type": "function",
      "constant": true
    },
    {
      "inputs": [
        {
          "internalType": "bytes[]",
          "name": "NewValues",
          "type": "bytes[]"
        }
      ],
      "name": "sendProposition",
      "outputs": [],
      "stateMutability": "nonpayable",
      "type": "function"
    },
    {
      "inputs": [
        {
          "internalType": "bool",
          "name": "vote",
          "type": "bool"
        }
      ],
      "name": "voteProposition",
      "outputs": [],
      "stateMutability": "nonpayable",
      "type": "function"
    },
    {
      "inputs": [
        {
          "internalType": "address",
          "name": "voter",
          "type": "address"
        },
        {
          "internalType": "uint256",
          "name": "propID",
          "type": "uint256"
        },
        {
          "internalType": "bool",
          "name": "vote",
          "type": "bool"
        },
        {
          "internalType": "uint256",
          "name": "nonce",
          "type": "uint256"
        },
        {
          "internalType": "uint256",
          "name": "deadline",
          "type": "uint256"
        },
        {
          "internalType": "bytes",
          "name": "signature",
          "type": "bytes"
        }
      ],
      "name": "votePropositionOnBehalfOf",
      "outputs": [],
      "stateMutability": "nonpayable",
      "type": "function"
    },
    {
      "inputs": [],
      "name": "retrieveManagerProxy",
      "outputs": [
        {
          "internalType": "address",
          "name": "",
          "type": "address"
        }
      ],
      "stateMutability": "view",
      "type": "function",
      "constant": true
    },
    {
      "inputs": [],
      "name": "retrieveManager",
      "outputs": [
        {
          "internalType": "address",
          "name": "",
          "type": "address"
        }
      ],
      "stateMutability": "view",
      "type": "function",
      "constant": true
    }
  ],
  "bytecode": "0x60806040523480156200001157600080fd5b50604051620046b2380380620046b2833981016040819052620000349162000465565b6040516200004290620002fd565b604051809103906000f0801580156200005f573d6000803e3d6000fd5b50600f80546001600160a01b0319166001600160a01b03929092169182179055604051839190839062000092906200030b565b620000a0939291906200052d565b604051809103906000f080158015620000bd573d6000803e3d6000fd5b50600e80546001600160a01b0319166001600160a01b03929092169182179055620000f8903390868662000102602090811b6200028a17901c565b5050505062000650565b600354610100900460ff16806200011c575060035460ff16155b620001445760405162461bcd60e51b81526004016200013b906200057c565b60405180910390fd5b600354610100900460ff1615801562000167576003805461ffff19166101011790555b62000180858585856200019a60201b620008331760201c565b801562000193576003805461ff00191690555b5050505050565b600354610100900460ff1680620001b4575060035460ff16155b620001d35760405162461bcd60e51b81526004016200013b906200057c565b600354610100900460ff16158015620001f6576003805461ffff19166101011790555b6200020c846200023860201b620008bd1760201c565b600480546001600160a01b0319166001600160a01b0387161790556000600b55620001808383620002cd565b600354610100900460ff168062000252575060035460ff16155b620002715760405162461bcd60e51b81526004016200013b906200057c565b600354610100900460ff1615801562000294576003805461ffff19166101011790555b6003805462010000600160b01b031916620100006001600160a01b038516021790558015620002c9576003805461ff00191690555b5050565b8151620002e290600090602085019062000319565b508051620002f890600190602084019062000319565b505050565b6107bd8062002fc583390190565b610f30806200378283390190565b8280546200032790620005fd565b90600052602060002090601f0160209004810192826200034b576000855562000396565b82601f106200036657805160ff191683800117855562000396565b8280016001018555821562000396579182015b828111156200039657825182559160200191906001019062000379565b50620003a4929150620003a8565b5090565b5b80821115620003a45760008155600101620003a9565b60006001600160401b0380841115620003dc57620003dc6200063a565b604051601f8501601f19908116603f011681019082821181831017156200040757620004076200063a565b816040528093508581528686860111156200042157600080fd5b62000431866020830187620005ca565b5050509392505050565b600082601f8301126200044d57600080fd5b6200045e83835160208501620003bf565b9392505050565b600080600080608085870312156200047c57600080fd5b84516001600160401b03808211156200049457600080fd5b620004a2888389016200043b565b95506020870151915080821115620004b957600080fd5b620004c7888389016200043b565b604088015190955091506001600160a01b0382168214620004e757600080fd5b606087015191935080821115620004fd57600080fd5b508501601f810187136200051057600080fd5b6200052187825160208401620003bf565b91505092959194509250565b600060018060a01b03808616835280851660208401525060606040830152825180606084015262000566816080850160208701620005ca565b601f01601f191691909101608001949350505050565b6020808252602e908201527f496e697469616c697a61626c653a20636f6e747261637420697320616c72656160408201526d191e481a5b9a5d1a585b1a5e995960921b606082015260800190565b60005b83811015620005e7578181015183820152602001620005cd565b83811115620005f7576000848401525b50505050565b600181811c908216806200061257607f821691505b602082108114156200063457634e487b7160e01b600052602260045260246000fd5b50919050565b634e487b7160e01b600052604160045260246000fd5b61296580620006606000396000f3fe608060405234801561001057600080fd5b50600436106100d05760003560e01c806304cc67a9146100d55780630f13bbc9146100ec5780633c7df55d146101015780633feca4ca146101145780634044adb21461015d57806355457ee9146101935780635b362e841461019b5780637faa3d6f146101bb578063840f6d17146101ce5780638c080e3f1461020f57806391f9167114610217578063a93316f51461022a578063d2116a021461023f578063db85bc4d14610255578063e15aa3a614610266578063e9b894df14610279575b600080fd5b600b545b6040519081526020015b60405180910390f35b6100ff6100fa36600461209d565b61028a565b005b6100ff61010f366004612125565b61030f565b61014d610122366004612166565b6001600160a01b03919091166000908152600260209081526040808320938352929052205460ff1690565b60405190151581526020016100e3565b6100d961016b366004612449565b6000918252600c602090815260408084206001600160a01b0393909316845291905290205490565b6100ff61042d565b6003546201000090046001600160a01b03165b6040516100e3919061259e565b6100ff6101c9366004612192565b6104ff565b600654600754600854600954600a54604080516001600160a01b0390961686526020860194909452928401919091526060830152608082015260a0016100e3565b6101ae61051f565b6100ff6102253660046123f6565b6105ac565b6102326105b9565b6040516100e3919061263f565b610247610692565b6040516100e39291906126fc565b6004546001600160a01b03166101ae565b6100ff61027436600461233f565b6107b9565b600e546001600160a01b03166101ae565b600354610100900460ff16806102a3575060035460ff16155b6102c85760405162461bcd60e51b81526004016102bf90612721565b60405180910390fd5b600354610100900460ff161580156102ea576003805461ffff19166101011790555b6102f685858585610833565b8015610308576003805461ff00191690555b5050505050565b3373__Library_______________________________6337ea306382600360029054906101000a90046001600160a01b03166001600160a01b031663e220ad956040518163ffffffff1660e01b815260040160006040518083038186803b15801561037957600080fd5b505afa15801561038d573d6000803e3d6000fd5b505050506040513d6000823e601f3d908101601f191682016040526103b5919081019061220f565b6002815181106103c7576103c76128e0565b60200260200101516040518363ffffffff1660e01b81526004016103ec9291906125b2565b60006040518083038186803b15801561040457600080fd5b505af4158015610418573d6000803e3d6000fd5b5050505061042784848461094b565b50505050565b60016104388161096d565b6006546040516337ea306360e01b8152339173__Library_______________________________916337ea30639161047e9185916001600160a01b0316906004016125b2565b60006040518083038186803b15801561049657600080fd5b505af41580156104aa573d6000803e3d6000fd5b505050506104b66109f1565b6006546005546040519081526001600160a01b03909116907f1fe8aec10c0a50fa765076161e08c1f961ced69594ff45cf7d559f593afe14799060200160405180910390a25050565b61050d868686868686610a1c565b6105178685610b7b565b505050505050565b600f54600e546040516310270e3d60e11b81526000926001600160a01b039081169263204e1c7a92610557929091169060040161259e565b60206040518083038186803b15801561056f57600080fd5b505afa158015610583573d6000803e3d6000fd5b505050506040513d601f19601f820116820180604052508101906105a79190612080565b905090565b6105b63382610b7b565b50565b6060600d805480602002602001604051908101604052809291908181526020016000905b828210156106895783829060005260206000200180546105fc90612874565b80601f016020809104026020016040519081016040528092919081815260200182805461062890612874565b80156106755780601f1061064a57610100808354040283529160200191610675565b820191906000526020600020905b81548152906001019060200180831161065857829003601f168201915b5050505050815260200190600101906105dd565b50505050905090565b606080600060018180546106a590612874565b80601f01602080910402602001604051908101604052809291908181526020018280546106d190612874565b801561071e5780601f106106f35761010080835404028352916020019161071e565b820191906000526020600020905b81548152906001019060200180831161070157829003601f168201915b5050505050915080805461073190612874565b80601f016020809104026020016040519081016040528092919081815260200182805461075d90612874565b80156107aa5780601f1061077f576101008083540402835291602001916107aa565b820191906000526020600020905b81548152906001019060200180831161078d57829003601f168201915b50505050509050915091509091565b6107c281610c92565b6107ca610f73565b60005b815181101561082f57600d8282815181106107ea576107ea6128e0565b6020908102919091018101518254600181018455600093845292829020815161081c9491909101929190910190611eed565b5080610827816128af565b9150506107cd565b5050565b600354610100900460ff168061084c575060035460ff16155b6108685760405162461bcd60e51b81526004016102bf90612721565b600354610100900460ff1615801561088a576003805461ffff19166101011790555b610893846108bd565b600480546001600160a01b0319166001600160a01b0387161790556000600b556102f68383611303565b600354610100900460ff16806108d6575060035460ff16155b6108f25760405162461bcd60e51b81526004016102bf90612721565b600354610100900460ff16158015610914576003805461ffff19166101011790555b6003805462010000600160b01b031916620100006001600160a01b03851602179055801561082f576003805461ff00191690555050565b61095361132a565b15156001141561096857610968838383611364565b505050565b80156109b45761097b61132a565b15156001146105b65760405162461bcd60e51b8152602060048201526005602482015264454332352d60d81b60448201526064016102bf565b6109bc61132a565b156105b65760405162461bcd60e51b8152602060048201526005602482015264454332342d60d81b60448201526064016102bf565b60006005819055600680546001600160a01b0319169055600781905560088190556009819055600a55565b81610a26816114d4565b8684610a32828261150b565b6005548814610a6b5760405162461bcd60e51b8152602060048201526005602482015264454333352d60d81b60448201526064016102bf565b60405163432f9a5560e01b815273__SignatureLibrary______________________9063432f9a5590610ab2908c908c908c908c908c908c906000906001906004016125cc565b60206040518083038186803b158015610aca57600080fd5b505af4158015610ade573d6000803e3d6000fd5b505050506040513d601f19601f82011682018060405250810190610b029190612413565b1515600114610b3b5760405162461bcd60e51b8152602060048201526005602482015264454333322d60d81b60448201526064016102bf565b610b7089876001600160a01b03909116600090815260026020908152604080832093835292905220805460ff19166001179055565b505050505050505050565b6001610b868161096d565b60055483906000610b978383611567565b905060008111610bd15760405162461bcd60e51b8152602060048201526005602482015264454332332d60d81b60448201526064016102bf565b6000610be287600560000154611567565b90508515610c0a578060056004016000828254610bff91906127d8565b90915550610c249050565b80600580016000828254610c1e91906127d8565b90915550505b600554610c329088836115a4565b60055460408051918252871515602083015281018290526001600160a01b038816907f50f654d58981575c05e369cb129aeacb01e1b036af429380242cfc5d1a4b743f9060600160405180910390a2610c896115e0565b50505050505050565b73__AddressLibrary________________________63f4ce9ae873__Library_______________________________63caa8f58984600081518110610cd957610cd96128e0565b60200260200101516040518263ffffffff1660e01b8152600401610cfd91906126a1565b60006040518083038186803b158015610d1557600080fd5b505af4158015610d29573d6000803e3d6000fd5b505050506040513d6000823e601f3d908101601f19168201604052610d5191908101906122b4565b600081518110610d6357610d636128e0565b60200260200101516040518263ffffffff1660e01b8152600401610d8991815260200190565b60206040518083038186803b158015610da157600080fd5b505af4158015610db5573d6000803e3d6000fd5b505050506040513d601f19601f82011682018060405250810190610dd99190612080565b73__AddressLibrary________________________63f4ce9ae873__Library_______________________________63caa8f58985600281518110610e2057610e206128e0565b60200260200101516040518263ffffffff1660e01b8152600401610e4491906126a1565b60006040518083038186803b158015610e5c57600080fd5b505af4158015610e70573d6000803e3d6000fd5b505050506040513d6000823e601f3d908101601f19168201604052610e9891908101906122b4565b600081518110610eaa57610eaa6128e0565b60200260200101516040518263ffffffff1660e01b8152600401610ed091815260200190565b60206040518083038186803b158015610ee857600080fd5b505af4158015610efc573d6000803e3d6000fd5b505050506040513d601f19601f82011682018060405250810190610f209190612080565b6001600160a01b038216151580610f3f57506001600160a01b03811615155b6109685760405162461bcd60e51b8152602060048201526005602482015264454332312d60d81b60448201526064016102bf565b6000610f7e8161096d565b60045433906000906001600160a01b0316821415610f9e575060016110f5565b6000610fa9836116b6565b90506000600360029054906101000a90046001600160a01b03166001600160a01b031663e220ad956040518163ffffffff1660e01b815260040160006040518083038186803b158015610ffb57600080fd5b505afa15801561100f573d6000803e3d6000fd5b505050506040513d6000823e601f3d908101601f19168201604052611037919081019061220f565b600681518110611049576110496128e0565b60200260200101516001600160a01b031663b049473f6040518163ffffffff1660e01b815260040160606040518083038186803b15801561108957600080fd5b505afa15801561109d573d6000803e3d6000fd5b505050506040513d601f19601f820116820180604052508101906110c19190612479565b9250505060646110cf6117dd565b6110dc9060ff8416612812565b6110e691906127f0565b8211156110f257600192505b50505b60018115151461112f5760405162461bcd60e51b8152602060048201526005602482015264454332322d60d81b60448201526064016102bf565b600080600360029054906101000a90046001600160a01b03166001600160a01b031663e220ad956040518163ffffffff1660e01b815260040160006040518083038186803b15801561118057600080fd5b505afa158015611194573d6000803e3d6000fd5b505050506040513d6000823e601f3d908101601f191682016040526111bc919081019061220f565b6006815181106111ce576111ce6128e0565b60200260200101516001600160a01b031663b049473f6040518163ffffffff1660e01b815260040160606040518083038186803b15801561120e57600080fd5b505afa158015611222573d6000803e3d6000fd5b505050506040513d601f19601f820116820180604052508101906112469190612479565b50600680546001600160a01b03191633179055909250905061126882426127d8565b600755606460ff82166112796117dd565b6112839190612812565b61128d91906127f0565b600855600b805460058190559060006112a5836128af565b90915550506006546005546007546008546040516001600160a01b03909416937f472501d19bf75639b2e316cd36f8568b0c3ab943b82a87de3c086c98c1929df9936112f4939092909161276f565b60405180910390a25050505050565b8151611316906000906020850190611eed565b508051610968906001906020840190611eed565b60075460009042101561133d5750600190565b6006546001600160a01b03161561135e576113566118f3565b61135e6109f1565b50600090565b6001600160a01b038316158015906113a057506005546000908152600c602090815260408083206001600160a01b038716845290915290205415155b15610968576005546000908152600c602090815260408083206001600160a01b038716845290915290205481908111156113fc57506005546000908152600c602090815260408083206001600160a01b03871684529091529020545b6005546000908152600c602090815260408083206001600160a01b038816845290915281208054839290611431908490612831565b90915550506001600160a01b03831615611480576005546000908152600c602090815260408083206001600160a01b03871684529091528120805483929061147a9084906127d8565b90915550505b600554604080516001600160a01b038088168252861660208201529081018390527f65fbd5e5dd32bea4aeca85bd0be0abf0e489d655dee888a7510d43b06dda2dba9060600160405180910390a250505050565b8042106105b65760405162461bcd60e51b8152602060048201526005602482015264454333332d60d81b60448201526064016102bf565b6001600160a01b038216600090815260026020908152604080832084845290915290205460ff161561082f5760405162461bcd60e51b8152602060048201526005602482015264454333342d60d81b60448201526064016102bf565b6000818152600c602090815260408083206001600160a01b0386168452909152812054611593846116b6565b61159d9190612831565b9392505050565b6000838152600c602090815260408083206001600160a01b0386168452909152812080548392906115d69084906127d8565b9091555050505050565b6008546009541061164f576115f36118fb565b6115fb6109f1565b600654600554600954600a546040516001600160a01b03909416937f23ca0034cf5aad32571b4a492e9598ea8a490e1643a60970e3cdc6933b55e49f93611645939092909161276f565b60405180910390a2565b600854600a54106116b4576116626118f3565b61166a6109f1565b600654600554600954600a546040516001600160a01b03909416937fa58eb6daa3c62c3f883973c4035e5bd3e81aa627c8379de068a7de42df122be293611645939092909161276f565b565b6000600360029054906101000a90046001600160a01b03166001600160a01b031663e220ad956040518163ffffffff1660e01b815260040160006040518083038186803b15801561170657600080fd5b505afa15801561171a573d6000803e3d6000fd5b505050506040513d6000823e601f3d908101601f19168201604052611742919081019061220f565b600281518110611754576117546128e0565b60200260200101516001600160a01b03166370a08231836040518263ffffffff1660e01b8152600401611787919061259e565b60206040518083038186803b15801561179f57600080fd5b505afa1580156117b3573d6000803e3d6000fd5b505050506040513d601f19601f820116820180604052508101906117d79190612430565b92915050565b6000600360029054906101000a90046001600160a01b03166001600160a01b031663e220ad956040518163ffffffff1660e01b815260040160006040518083038186803b15801561182d57600080fd5b505afa158015611841573d6000803e3d6000fd5b505050506040513d6000823e601f3d908101601f19168201604052611869919081019061220f565b60028151811061187b5761187b6128e0565b60200260200101516001600160a01b03166318160ddd6040518163ffffffff1660e01b815260040160206040518083038186803b1580156118bb57600080fd5b505afa1580156118cf573d6000803e3d6000fd5b505050506040513d601f19601f820116820180604052508101906105a79190612430565b6116b4611903565b6118f361190f565b6116b4600d6000611f71565b600073__AddressLibrary________________________63f4ce9ae873__Library_______________________________63caa8f589600d600081548110611959576119596128e0565b906000526020600020016040518263ffffffff1660e01b815260040161197f91906126b4565b60006040518083038186803b15801561199757600080fd5b505af41580156119ab573d6000803e3d6000fd5b505050506040513d6000823e601f3d908101601f191682016040526119d391908101906122b4565b6000815181106119e5576119e56128e0565b60200260200101516040518263ffffffff1660e01b8152600401611a0b91815260200190565b60206040518083038186803b158015611a2357600080fd5b505af4158015611a37573d6000803e3d6000fd5b505050506040513d601f19601f82011682018060405250810190611a5b9190612080565b90506000600d600181548110611a7357611a736128e0565b906000526020600020018054611a8890612874565b80601f0160208091040260200160405190810160405280929190818152602001828054611ab490612874565b8015611b015780601f10611ad657610100808354040283529160200191611b01565b820191906000526020600020905b815481529060010190602001808311611ae457829003601f168201915b50505050509050600073__AddressLibrary________________________63f4ce9ae873__Library_______________________________63caa8f589600d600281548110611b5257611b526128e0565b906000526020600020016040518263ffffffff1660e01b8152600401611b7891906126b4565b60006040518083038186803b158015611b9057600080fd5b505af4158015611ba4573d6000803e3d6000fd5b505050506040513d6000823e601f3d908101601f19168201604052611bcc91908101906122b4565b600081518110611bde57611bde6128e0565b60200260200101516040518263ffffffff1660e01b8152600401611c0491815260200190565b60206040518083038186803b158015611c1c57600080fd5b505af4158015611c30573d6000803e3d6000fd5b505050506040513d601f19601f82011682018060405250810190611c549190612080565b90506001600160a01b03831615611d7c57815115611cdb57600f54600e54604051639623609d60e01b81526001600160a01b0392831692639623609d92611ca492911690879087906004016126c7565b600060405180830381600087803b158015611cbe57600080fd5b505af1158015611cd2573d6000803e3d6000fd5b50505050611d44565b600f54600e5460405163266a23b160e21b81526001600160a01b03928316926399a88ec492611d119291169087906004016125b2565b600060405180830381600087803b158015611d2b57600080fd5b505af1158015611d3f573d6000803e3d6000fd5b505050505b7f796e941683b106486d30807919e7c79a03fc48f213a6e1516f03210e6994fe4783604051611d73919061259e565b60405180910390a15b6001600160a01b0381161561096857600f5460405163f2fde38b60e01b81526001600160a01b039091169063f2fde38b90611dbb90849060040161259e565b600060405180830381600087803b158015611dd557600080fd5b505af1158015611de9573d6000803e3d6000fd5b5050600e54604051600093508392506001600160a01b0390911690611e1290859060240161259e565b60408051601f198184030181529181526020820180516001600160e01b03166306fde4ff60e01b17905251611e479190612582565b6000604051808303816000865af19150503d8060008114611e84576040519150601f19603f3d011682016040523d82523d6000602084013e611e89565b606091505b5091509150818190611eae5760405162461bcd60e51b81526004016102bf91906126a1565b507fbe11ac43a8dc7cbd8d444d8f1db4702e8c5b9e159650016297a75c12f72ddeb383604051611ede919061259e565b60405180910390a15050505050565b828054611ef990612874565b90600052602060002090601f016020900481019282611f1b5760008555611f61565b82601f10611f3457805160ff1916838001178555611f61565b82800160010185558215611f61579182015b82811115611f61578251825591602001919060010190611f46565b50611f6d929150611f8f565b5090565b50805460008255906000526020600020908101906105b69190611fa4565b5b80821115611f6d5760008155600101611f90565b80821115611f6d576000611fb88282611fc1565b50600101611fa4565b508054611fcd90612874565b6000825580601f10611fdd575050565b601f0160209004906000526020600020908101906105b69190611f8f565b600082601f83011261200c57600080fd5b81356001600160401b03811115612025576120256128f6565b612038601f8201601f1916602001612785565b81815284602083860101111561204d57600080fd5b816020850160208301376000918101602001919091529392505050565b805160ff8116811461207b57600080fd5b919050565b60006020828403121561209257600080fd5b815161159d8161290c565b600080600080608085870312156120b357600080fd5b84356120be8161290c565b935060208501356120ce8161290c565b925060408501356001600160401b03808211156120ea57600080fd5b6120f688838901611ffb565b9350606087013591508082111561210c57600080fd5b5061211987828801611ffb565b91505092959194509250565b60008060006060848603121561213a57600080fd5b83356121458161290c565b925060208401356121558161290c565b929592945050506040919091013590565b6000806040838503121561217957600080fd5b82356121848161290c565b946020939093013593505050565b60008060008060008060c087890312156121ab57600080fd5b86356121b68161290c565b95506020870135945060408701356121cd81612921565b9350606087013592506080870135915060a08701356001600160401b038111156121f657600080fd5b61220289828a01611ffb565b9150509295509295509295565b6000602080838503121561222257600080fd5b82516001600160401b0381111561223857600080fd5b8301601f8101851361224957600080fd5b805161225c612257826127b5565b612785565b80828252848201915084840188868560051b870101111561227c57600080fd5b600094505b838510156122a85780516122948161290c565b835260019490940193918501918501612281565b50979650505050505050565b600060208083850312156122c757600080fd5b82516001600160401b038111156122dd57600080fd5b8301601f810185136122ee57600080fd5b80516122fc612257826127b5565b80828252848201915084840188868560051b870101111561231c57600080fd5b600094505b838510156122a8578051835260019490940193918501918501612321565b6000602080838503121561235257600080fd5b82356001600160401b038082111561236957600080fd5b818501915085601f83011261237d57600080fd5b813561238b612257826127b5565b80828252858201915085850189878560051b88010111156123ab57600080fd5b6000805b858110156123e6578235878111156123c5578283fd5b6123d38d8b838c0101611ffb565b86525093880193918801916001016123af565b50919a9950505050505050505050565b60006020828403121561240857600080fd5b813561159d81612921565b60006020828403121561242557600080fd5b815161159d81612921565b60006020828403121561244257600080fd5b5051919050565b6000806040838503121561245c57600080fd5b82359150602083013561246e8161290c565b809150509250929050565b60008060006060848603121561248e57600080fd5b8351925061249e6020850161206a565b91506124ac6040850161206a565b90509250925092565b600081518084526124cd816020860160208601612848565b601f01601f19169290920160200192915050565b8054600090600181811c90808316806124fb57607f831692505b602080841082141561251d57634e487b7160e01b600052602260045260246000fd5b838852818015612534576001811461254857612576565b60ff19861689830152604089019650612576565b876000528160002060005b8681101561256e5781548b8201850152908501908301612553565b8a0183019750505b50505050505092915050565b60008251612594818460208701612848565b9190910192915050565b6001600160a01b0391909116815260200190565b6001600160a01b0392831681529116602082015260400190565b600061010060018060a01b038b16835289602084015288151560408401528760608401528660808401528060a0840152612608818401876124b5565b905082810360c084015261261c81866124e1565b905082810360e084015261263081856124e1565b9b9a5050505050505050505050565b6000602080830181845280855180835260408601915060408160051b870101925083870160005b8281101561269457603f198886030184526126828583516124b5565b94509285019290850190600101612666565b5092979650505050505050565b60208152600061159d60208301846124b5565b60208152600061159d60208301846124e1565b6001600160a01b038481168252831660208201526060604082018190526000906126f3908301846124b5565b95945050505050565b60408152600061270f60408301856124b5565b82810360208401526126f381856124b5565b6020808252602e908201527f496e697469616c697a61626c653a20636f6e747261637420697320616c72656160408201526d191e481a5b9a5d1a585b1a5e995960921b606082015260800190565b9283526020830191909152604082015260600190565b604051601f8201601f191681016001600160401b03811182821017156127ad576127ad6128f6565b604052919050565b60006001600160401b038211156127ce576127ce6128f6565b5060051b60200190565b600082198211156127eb576127eb6128ca565b500190565b60008261280d57634e487b7160e01b600052601260045260246000fd5b500490565b600081600019048311821515161561282c5761282c6128ca565b500290565b600082821015612843576128436128ca565b500390565b60005b8381101561286357818101518382015260200161284b565b838111156104275750506000910152565b600181811c9082168061288857607f821691505b602082108114156128a957634e487b7160e01b600052602260045260246000fd5b50919050565b60006000198214156128c3576128c36128ca565b5060010190565b634e487b7160e01b600052601160045260246000fd5b634e487b7160e01b600052603260045260246000fd5b634e487b7160e01b600052604160045260246000fd5b6001600160a01b03811681146105b657600080fd5b80151581146105b657600080fdfea2646970667358221220393cb44e84ea6beb1c1f657e5dd94031f0a428953336adfd10a569b6a0b7440f64736f6c63430008070033608060405234801561001057600080fd5b5061001a3361001f565b61006f565b600080546001600160a01b038381166001600160a01b0319831681178455604051919092169283917f8be0079c531659141344cd1fd0a4f28419497f9722a3daafe3b4186f6b6457e09190a35050565b61073f8061007e6000396000f3fe60806040526004361061006b5760003560e01c8063204e1c7a14610070578063715018a6146100a65780637eff275e146100bd5780638da5cb5b146100dd5780639623609d146100f257806399a88ec414610105578063f2fde38b14610125578063f3b7dead14610145575b600080fd5b34801561007c57600080fd5b5061009061008b3660046104e1565b610165565b60405161009d9190610630565b60405180910390f35b3480156100b257600080fd5b506100bb6101f6565b005b3480156100c957600080fd5b506100bb6100d8366004610522565b61023a565b3480156100e957600080fd5b506100906102cb565b6100bb61010036600461055b565b6102da565b34801561011157600080fd5b506100bb610120366004610522565b610370565b34801561013157600080fd5b506100bb6101403660046104e1565b6103cb565b34801561015157600080fd5b506100906101603660046104e1565b61046b565b6000806000836001600160a01b031660405161018b90635c60da1b60e01b815260040190565b600060405180830381855afa9150503d80600081146101c6576040519150601f19603f3d011682016040523d82523d6000602084013e6101cb565b606091505b5091509150816101da57600080fd5b808060200190518101906101ee9190610505565b949350505050565b336101ff6102cb565b6001600160a01b03161461022e5760405162461bcd60e51b8152600401610225906106a9565b60405180910390fd5b6102386000610491565b565b336102436102cb565b6001600160a01b0316146102695760405162461bcd60e51b8152600401610225906106a9565b6040516308f2839760e41b81526001600160a01b03831690638f28397090610295908490600401610630565b600060405180830381600087803b1580156102af57600080fd5b505af11580156102c3573d6000803e3d6000fd5b505050505050565b6000546001600160a01b031690565b336102e36102cb565b6001600160a01b0316146103095760405162461bcd60e51b8152600401610225906106a9565b60405163278f794360e11b81526001600160a01b03841690634f1ef2869034906103399086908690600401610644565b6000604051808303818588803b15801561035257600080fd5b505af1158015610366573d6000803e3d6000fd5b5050505050505050565b336103796102cb565b6001600160a01b03161461039f5760405162461bcd60e51b8152600401610225906106a9565b604051631b2ce7f360e11b81526001600160a01b03831690633659cfe690610295908490600401610630565b336103d46102cb565b6001600160a01b0316146103fa5760405162461bcd60e51b8152600401610225906106a9565b6001600160a01b03811661045f5760405162461bcd60e51b815260206004820152602660248201527f4f776e61626c653a206e6577206f776e657220697320746865207a65726f206160448201526564647265737360d01b6064820152608401610225565b61046881610491565b50565b6000806000836001600160a01b031660405161018b906303e1469160e61b815260040190565b600080546001600160a01b038381166001600160a01b0319831681178455604051919092169283917f8be0079c531659141344cd1fd0a4f28419497f9722a3daafe3b4186f6b6457e09190a35050565b6000602082840312156104f357600080fd5b81356104fe816106f4565b9392505050565b60006020828403121561051757600080fd5b81516104fe816106f4565b6000806040838503121561053557600080fd5b8235610540816106f4565b91506020830135610550816106f4565b809150509250929050565b60008060006060848603121561057057600080fd5b833561057b816106f4565b9250602084013561058b816106f4565b915060408401356001600160401b03808211156105a757600080fd5b818601915086601f8301126105bb57600080fd5b8135818111156105cd576105cd6106de565b604051601f8201601f19908116603f011681019083821181831017156105f5576105f56106de565b8160405282815289602084870101111561060e57600080fd5b8260208601602083013760006020848301015280955050505050509250925092565b6001600160a01b0391909116815260200190565b60018060a01b038316815260006020604081840152835180604085015260005b8181101561068057858101830151858201606001528201610664565b81811115610692576000606083870101525b50601f01601f191692909201606001949350505050565b6020808252818101527f4f776e61626c653a2063616c6c6572206973206e6f7420746865206f776e6572604082015260600190565b634e487b7160e01b600052604160045260246000fd5b6001600160a01b038116811461046857600080fdfea26469706673582212207240b38990a52bc008f8ef6148c6f36363b8fbb55bee70cee697cb8e4d4c00ce64736f6c63430008070033608060405260405162000f3038038062000f308339810160408190526200002691620004c2565b82816200005560017f360894a13ba1a3210667c828492db98dca3e2076cc3735a920a3ca505d382bbd620005f5565b60008051602062000ee9833981519152146200007557620000756200064a565b6200008382826000620000e7565b50620000b3905060017fb53127684a568b3173ae13b9f8a6016e243e63b6e8ee1178d6a717850b5d6104620005f5565b60008051602062000ec983398151915214620000d357620000d36200064a565b620000de8262000124565b50505062000676565b620000f2836200017f565b600082511180620001005750805b156200011f576200011d8383620001c160201b620002601760201c565b505b505050565b7f7e644d79422f17c01e4894b5f4f588d331ebfa28653d42ae832dc59e38c9798f6200014f620001f0565b604080516001600160a01b03928316815291841660208301520160405180910390a16200017c8162000229565b50565b6200018a81620002de565b6040516001600160a01b038216907fbc7cd75a20ee27fd9adebab32041f755214dbc6bffa90cc0225b39da2e5c2d3b90600090a250565b6060620001e9838360405180606001604052806027815260200162000f096027913962000381565b9392505050565b60006200021a60008051602062000ec983398151915260001b6200045e60201b620002081760201c565b546001600160a01b0316919050565b6001600160a01b038116620002945760405162461bcd60e51b815260206004820152602660248201527f455243313936373a206e65772061646d696e20697320746865207a65726f206160448201526564647265737360d01b60648201526084015b60405180910390fd5b80620002bd60008051602062000ec983398151915260001b6200045e60201b620002081760201c565b80546001600160a01b0319166001600160a01b039290921691909117905550565b620002f4816200046160201b6200028c1760201c565b620003585760405162461bcd60e51b815260206004820152602d60248201527f455243313936373a206e657720696d706c656d656e746174696f6e206973206e60448201526c1bdd08184818dbdb9d1c9858dd609a1b60648201526084016200028b565b80620002bd60008051602062000ee983398151915260001b6200045e60201b620002081760201c565b6060833b620003e25760405162461bcd60e51b815260206004820152602660248201527f416464726573733a2064656c65676174652063616c6c20746f206e6f6e2d636f6044820152651b9d1c9858dd60d21b60648201526084016200028b565b600080856001600160a01b031685604051620003ff9190620005a2565b600060405180830381855af49150503d80600081146200043c576040519150601f19603f3d011682016040523d82523d6000602084013e62000441565b606091505b5090925090506200045482828662000467565b9695505050505050565b90565b3b151590565b6060831562000478575081620001e9565b825115620004895782518084602001fd5b8160405162461bcd60e51b81526004016200028b9190620005c0565b80516001600160a01b0381168114620004bd57600080fd5b919050565b600080600060608486031215620004d857600080fd5b620004e384620004a5565b9250620004f360208501620004a5565b60408501519092506001600160401b03808211156200051157600080fd5b818601915086601f8301126200052657600080fd5b8151818111156200053b576200053b62000660565b604051601f8201601f19908116603f0116810190838211818310171562000566576200056662000660565b816040528281528960208487010111156200058057600080fd5b620005938360208301602088016200061b565b80955050505050509250925092565b60008251620005b68184602087016200061b565b9190910192915050565b6020815260008251806020840152620005e18160408501602087016200061b565b601f01601f19169190910160400192915050565b6000828210156200061657634e487b7160e01b600052601160045260246000fd5b500390565b60005b83811015620006385781810151838201526020016200061e565b838111156200011d5750506000910152565b634e487b7160e01b600052600160045260246000fd5b634e487b7160e01b600052604160045260246000fd5b61084380620006866000396000f3fe60806040526004361061004e5760003560e01c80633659cfe6146100655780634f1ef286146100855780635c60da1b146100985780638f283970146100c9578063f851a440146100e95761005d565b3661005d5761005b6100fe565b005b61005b6100fe565b34801561007157600080fd5b5061005b61008036600461068e565b610118565b61005b6100933660046106a9565b61015f565b3480156100a457600080fd5b506100ad6101d0565b6040516001600160a01b03909116815260200160405180910390f35b3480156100d557600080fd5b5061005b6100e436600461068e565b61020b565b3480156100f557600080fd5b506100ad610235565b610106610292565b610116610111610331565b61033b565b565b61012061035f565b6001600160a01b0316336001600160a01b031614156101575761015481604051806020016040528060008152506000610380565b50565b6101546100fe565b61016761035f565b6001600160a01b0316336001600160a01b031614156101c8576101c38383838080601f01602080910402602001604051908101604052809392919081815260200183838082843760009201919091525060019250610380915050565b505050565b6101c36100fe565b60006101da61035f565b6001600160a01b0316336001600160a01b03161415610200576101fb610331565b905090565b6102086100fe565b90565b61021361035f565b6001600160a01b0316336001600160a01b0316141561015757610154816103ab565b600061023f61035f565b6001600160a01b0316336001600160a01b03161415610200576101fb61035f565b606061028583836040518060600160405280602781526020016107e7602791396103ff565b9392505050565b3b151590565b61029a61035f565b6001600160a01b0316336001600160a01b031614156101165760405162461bcd60e51b815260206004820152604260248201527f5472616e73706172656e745570677261646561626c6550726f78793a2061646d60448201527f696e2063616e6e6f742066616c6c6261636b20746f2070726f78792074617267606482015261195d60f21b608482015260a4015b60405180910390fd5b60006101fb6104d3565b3660008037600080366000845af43d6000803e80801561035a573d6000f35b3d6000fd5b60006000805160206107a78339815191525b546001600160a01b0316919050565b610389836104e9565b6000825111806103965750805b156101c3576103a58383610260565b50505050565b7f7e644d79422f17c01e4894b5f4f588d331ebfa28653d42ae832dc59e38c9798f6103d461035f565b604080516001600160a01b03928316815291841660208301520160405180910390a161015481610529565b6060833b61045e5760405162461bcd60e51b815260206004820152602660248201527f416464726573733a2064656c65676174652063616c6c20746f206e6f6e2d636f6044820152651b9d1c9858dd60d21b6064820152608401610328565b600080856001600160a01b031685604051610479919061072b565b600060405180830381855af49150503d80600081146104b4576040519150601f19603f3d011682016040523d82523d6000602084013e6104b9565b606091505b50915091506104c98282866105c0565b9695505050505050565b60006000805160206107c7833981519152610371565b6104f2816105f9565b6040516001600160a01b038216907fbc7cd75a20ee27fd9adebab32041f755214dbc6bffa90cc0225b39da2e5c2d3b90600090a250565b6001600160a01b03811661058e5760405162461bcd60e51b815260206004820152602660248201527f455243313936373a206e65772061646d696e20697320746865207a65726f206160448201526564647265737360d01b6064820152608401610328565b806000805160206107a78339815191525b80546001600160a01b0319166001600160a01b039290921691909117905550565b606083156105cf575081610285565b8251156105df5782518084602001fd5b8160405162461bcd60e51b81526004016103289190610747565b803b61065d5760405162461bcd60e51b815260206004820152602d60248201527f455243313936373a206e657720696d706c656d656e746174696f6e206973206e60448201526c1bdd08184818dbdb9d1c9858dd609a1b6064820152608401610328565b806000805160206107c783398151915261059f565b80356001600160a01b038116811461068957600080fd5b919050565b6000602082840312156106a057600080fd5b61028582610672565b6000806000604084860312156106be57600080fd5b6106c784610672565b925060208401356001600160401b03808211156106e357600080fd5b818601915086601f8301126106f757600080fd5b81358181111561070657600080fd5b87602082850101111561071857600080fd5b6020830194508093505050509250925092565b6000825161073d81846020870161077a565b9190910192915050565b602081526000825180602084015261076681604085016020870161077a565b601f01601f19169190910160400192915050565b60005b8381101561079557818101518382015260200161077d565b838111156103a5575050600091015256feb53127684a568b3173ae13b9f8a6016e243e63b6e8ee1178d6a717850b5d6103360894a13ba1a3210667c828492db98dca3e2076cc3735a920a3ca505d382bbc416464726573733a206c6f772d6c6576656c2064656c65676174652063616c6c206661696c6564a2646970667358221220bf234746908c6f46655f3e5bb4f0abadaeb249c68beba1c928f2af74deb56e2264736f6c63430008070033b53127684a568b3173ae13b9f8a6016e243e63b6e8ee1178d6a717850b5d6103360894a13ba1a3210667c828492db98dca3e2076cc3735a920a3ca505d382bbc416464726573733a206c6f772d6c6576656c2064656c65676174652063616c6c206661696c6564",
  "immutableReferences": {},
  "source": "// SPDX-License-Identifier: GPL-3.0\r\n\r\npragma solidity 0.8.7;\r\n\r\n/**\r\n * @title Storage\r\n * @dev Store & retrieve value in a variable\r\n */\r\n\r\nimport \"../Interfaces/IAdmin.sol\";\r\nimport \"../Base/StdPropositionBaseContract.sol\";\r\nimport \"../Libraries/AddressLibrary.sol\";\r\nimport \"../Libraries/Library.sol\";\r\nimport \"@openzeppelin/contracts/proxy/transparent/TransparentUpgradeableProxy.sol\";\r\nimport \"@openzeppelin/contracts/proxy/transparent/ProxyAdmin.sol\";\r\n\r\n\r\ncontract Admin is IAdmin, StdPropositionBaseContract{\r\n    using AddressLibrary for *;\r\n    using Library for *;\r\n\r\n    // EVENTS /////////////////////////////////////////\r\n    event _NewManager(address Manager);\r\n    event _NewAdmin(address Admin);\r\n\r\n    // DATA /////////////////////////////////////////\r\n    // Manager\r\n    TransparentUpgradeableProxy private _Manager;\r\n\r\n    // Admin Proxy to manage the TransparentUpgradeableProxy\r\n    ProxyAdmin private _Admin;\r\n\r\n    // MODIFIERS /////////////////////////////////////////\r\n    modifier areAddressesOK(address addr1, address addr2){\r\n        require(address(0) != addr1 || address(0) != addr2, \"EC21-\");\r\n        _;\r\n    }\r\n\r\n    // CONSTRUCTOR and INITIALIZATION /////////////////////////////////////////\r\n    constructor(string memory contractName, string memory contractVersion, address managerContract, bytes memory managerInit) \r\n    {\r\n        _Admin = new ProxyAdmin();\r\n        _Manager = new TransparentUpgradeableProxy(managerContract, address(_Admin), managerInit);\r\n        super.StdPropositionBaseContract_init(msg.sender, address(_Manager), contractName, contractVersion);\r\n    }\r\n\r\n    // FUNCTIONALITY /////////////////////////////////////////\r\n    // governance : contracts assignment and management\r\n    function checkProposition(bytes[] memory NewValues) internal override \r\n        areAddressesOK(AddressLibrary.Bytes32ToAddress(Library.BytestoBytes32(NewValues[0])[0]), \r\n                        AddressLibrary.Bytes32ToAddress(Library.BytestoBytes32(NewValues[2])[0]))\r\n    {}\r\n\r\n    function UpdateAll() internal override\r\n    {\r\n        address NewImplAddress = AddressLibrary.Bytes32ToAddress(Library.BytestoBytes32(_ProposedNewValues[0])[0]);\r\n        bytes memory Data = _ProposedNewValues[1];\r\n        address NewAdminAddress = AddressLibrary.Bytes32ToAddress(Library.BytestoBytes32(_ProposedNewValues[2])[0]);\r\n\r\n        if(address(0) != NewImplAddress){\r\n            if(0 < Data.length)_Admin.upgradeAndCall(_Manager, NewImplAddress, Data);\r\n            else _Admin.upgrade(_Manager, NewImplAddress);\r\n            emit _NewManager(NewImplAddress);\r\n        }\r\n        \r\n        if(address(0) != NewAdminAddress){\r\n            _Admin.transferOwnership(NewAdminAddress);\r\n            (bool success, bytes memory data) = address(_Manager).call(abi.encodeWithSignature(\"changeManagerAdmin(address)\", NewAdminAddress));\r\n            require(success, string(data));\r\n            emit _NewAdmin(NewAdminAddress);\r\n        }       \r\n\r\n    }\r\n\r\n    // configuration Proxies\r\n    function retrieveManagerProxy() external override view returns (address) {\r\n        return (address(_Manager));\r\n    }\r\n\r\n    // configuration implementations\r\n    function retrieveManager() external view override returns (address) {\r\n        return _Admin.getProxyImplementation(_Manager);\r\n    }\r\n   \r\n  \r\n}",
  "sourcePath": "C:/Users/d-aam/GitHub/Certificates/contracts/DeployedContracts/Admin.sol",
  "compiler": {
    "name": "solc",
    "version": "0.8.7+commit.e28d00a7.Emscripten.clang"
  },
  "schemaVersion": "3.3.4",
  "updatedAt": "2021-11-09T07:29:52.482Z",
  "networkType": "ethereum",
  "devdoc": {
    "kind": "dev",
    "methods": {},
    "version": 1
  },
  "userdoc": {
    "kind": "user",
    "methods": {},
    "version": 1
  }
}