{
  "contractName": "CertisToken",
  "abi": [
    {
      "anonymous": false,
      "inputs": [
        {
          "indexed": true,
          "internalType": "address",
          "name": "owner",
          "type": "address"
        },
        {
          "indexed": true,
          "internalType": "address",
          "name": "spender",
          "type": "address"
        },
        {
          "indexed": false,
          "internalType": "uint256",
          "name": "value",
          "type": "uint256"
        }
      ],
      "name": "Approval",
      "type": "event"
    },
    {
      "anonymous": false,
      "inputs": [
        {
          "indexed": true,
          "internalType": "address",
          "name": "from",
          "type": "address"
        },
        {
          "indexed": true,
          "internalType": "address",
          "name": "to",
          "type": "address"
        },
        {
          "indexed": false,
          "internalType": "uint256",
          "name": "value",
          "type": "uint256"
        }
      ],
      "name": "Transfer",
      "type": "event"
    },
    {
      "inputs": [
        {
          "internalType": "address",
          "name": "owner",
          "type": "address"
        },
        {
          "internalType": "address",
          "name": "spender",
          "type": "address"
        }
      ],
      "name": "allowance",
      "outputs": [
        {
          "internalType": "uint256",
          "name": "",
          "type": "uint256"
        }
      ],
      "stateMutability": "view",
      "type": "function"
    },
    {
      "inputs": [
        {
          "internalType": "address",
          "name": "spender",
          "type": "address"
        },
        {
          "internalType": "uint256",
          "name": "amount",
          "type": "uint256"
        }
      ],
      "name": "approve",
      "outputs": [
        {
          "internalType": "bool",
          "name": "",
          "type": "bool"
        }
      ],
      "stateMutability": "nonpayable",
      "type": "function"
    },
    {
      "inputs": [
        {
          "internalType": "address",
          "name": "account",
          "type": "address"
        }
      ],
      "name": "balanceOf",
      "outputs": [
        {
          "internalType": "uint256",
          "name": "",
          "type": "uint256"
        }
      ],
      "stateMutability": "view",
      "type": "function"
    },
    {
      "inputs": [
        {
          "internalType": "address",
          "name": "spender",
          "type": "address"
        },
        {
          "internalType": "uint256",
          "name": "subtractedValue",
          "type": "uint256"
        }
      ],
      "name": "decreaseAllowance",
      "outputs": [
        {
          "internalType": "bool",
          "name": "",
          "type": "bool"
        }
      ],
      "stateMutability": "nonpayable",
      "type": "function"
    },
    {
      "inputs": [
        {
          "internalType": "address",
          "name": "spender",
          "type": "address"
        },
        {
          "internalType": "uint256",
          "name": "addedValue",
          "type": "uint256"
        }
      ],
      "name": "increaseAllowance",
      "outputs": [
        {
          "internalType": "bool",
          "name": "",
          "type": "bool"
        }
      ],
      "stateMutability": "nonpayable",
      "type": "function"
    },
    {
      "inputs": [],
      "name": "name",
      "outputs": [
        {
          "internalType": "string",
          "name": "",
          "type": "string"
        }
      ],
      "stateMutability": "view",
      "type": "function"
    },
    {
      "inputs": [],
      "name": "symbol",
      "outputs": [
        {
          "internalType": "string",
          "name": "",
          "type": "string"
        }
      ],
      "stateMutability": "view",
      "type": "function"
    },
    {
      "inputs": [],
      "name": "totalSupply",
      "outputs": [
        {
          "internalType": "uint256",
          "name": "",
          "type": "uint256"
        }
      ],
      "stateMutability": "view",
      "type": "function"
    },
    {
      "inputs": [
        {
          "internalType": "address",
          "name": "recipient",
          "type": "address"
        },
        {
          "internalType": "uint256",
          "name": "amount",
          "type": "uint256"
        }
      ],
      "name": "transfer",
      "outputs": [
        {
          "internalType": "bool",
          "name": "",
          "type": "bool"
        }
      ],
      "stateMutability": "nonpayable",
      "type": "function"
    },
    {
      "inputs": [
        {
          "internalType": "address",
          "name": "sender",
          "type": "address"
        },
        {
          "internalType": "address",
          "name": "recipient",
          "type": "address"
        },
        {
          "internalType": "uint256",
          "name": "amount",
          "type": "uint256"
        }
      ],
      "name": "transferFrom",
      "outputs": [
        {
          "internalType": "bool",
          "name": "",
          "type": "bool"
        }
      ],
      "stateMutability": "nonpayable",
      "type": "function"
    },
    {
      "inputs": [
        {
          "internalType": "string",
          "name": "name",
          "type": "string"
        },
        {
          "internalType": "string",
          "name": "symbol",
          "type": "string"
        },
        {
          "internalType": "uint8",
          "name": "decimalsValue",
          "type": "uint8"
        },
        {
          "internalType": "uint256",
          "name": "MaxSupply",
          "type": "uint256"
        }
      ],
      "name": "initialize",
      "outputs": [],
      "stateMutability": "nonpayable",
      "type": "function"
    },
    {
      "inputs": [],
      "name": "decimals",
      "outputs": [
        {
          "internalType": "uint8",
          "name": "",
          "type": "uint8"
        }
      ],
      "stateMutability": "view",
      "type": "function"
    },
    {
      "inputs": [],
      "name": "TokenOwners",
      "outputs": [
        {
          "internalType": "address[]",
          "name": "",
          "type": "address[]"
        },
        {
          "internalType": "uint256[]",
          "name": "",
          "type": "uint256[]"
        }
      ],
      "stateMutability": "view",
      "type": "function"
    }
  ],
  "bytecode": "0x608060405234801561001057600080fd5b506112a5806100206000396000f3fe608060405234801561001057600080fd5b50600436106100af5760003560e01c806306fdde03146100b4578063095ea7b3146100d257806318160ddd146100f557806323b872dd14610107578063253279ad1461011a578063313ce5671461012f578063395093511461014457806370a082311461015757806388d44ee01461016a57806395d89b4114610180578063a457c2d714610188578063a9059cbb1461019b578063dd62ed3e146101ae575b600080fd5b6100bc6101e7565b6040516100c9919061109b565b60405180910390f35b6100e56100e0366004610e22565b610279565b60405190151581526020016100c9565b6035545b6040519081526020016100c9565b6100e5610115366004610de1565b61028f565b61012d610128366004610f06565b61033e565b005b60655460405160ff90911681526020016100c9565b6100e5610152366004610e22565b6103ef565b6100f9610165366004610d84565b61042b565b610172610446565b6040516100c9929190611017565b6100bc610556565b6100e5610196366004610e22565b610565565b6100e56101a9366004610e22565b6105fe565b6100f96101bc366004610da8565b6001600160a01b03918216600090815260346020908152604080832093909416825291909152205490565b6060603680546101f69061119f565b80601f01602080910402602001604051908101604052809291908181526020018280546102229061119f565b801561026f5780601f106102445761010080835404028352916020019161026f565b820191906000526020600020905b81548152906001019060200180831161025257829003601f168201915b5050505050905090565b600061028633848461060b565b50600192915050565b600061029c84848461072f565b6001600160a01b0384166000908152603460209081526040808320338452909152902054828110156103265760405162461bcd60e51b815260206004820152602860248201527f45524332303a207472616e7366657220616d6f756e74206578636565647320616044820152676c6c6f77616e636560c01b60648201526084015b60405180910390fd5b610333853385840361060b565b506001949350505050565b600054610100900460ff1680610357575060005460ff16155b6103735760405162461bcd60e51b815260040161031d906110f0565b600054610100900460ff16158015610395576000805461ffff19166101011790555b61039f85856108f8565b60408051600081526020810191829052516103bc91606691610c27565b506065805460ff191660ff85161790556103d6338361098e565b80156103e8576000805461ff00191690555b5050505050565b3360008181526034602090815260408083206001600160a01b03871684529091528120549091610286918590610426908690611187565b61060b565b6001600160a01b031660009081526033602052604090205490565b606080600060668054806020026020016040519081016040528092919081815260200182805480156104a157602002820191906000526020600020905b81546001600160a01b03168152600190910190602001808311610483575b50505050509050600081516001600160401b038111156104c3576104c3611221565b6040519080825280602002602001820160405280156104ec578160200160208202803683370190505b50905060005b825181101561054c5761051d8382815181106105105761051061120b565b602002602001015161042b565b82828151811061052f5761052f61120b565b602090810291909101015280610544816111da565b9150506104f2565b5090939092509050565b6060603780546101f69061119f565b3360009081526034602090815260408083206001600160a01b0386168452909152812054828110156105e75760405162461bcd60e51b815260206004820152602560248201527f45524332303a2064656372656173656420616c6c6f77616e63652062656c6f77604482015264207a65726f60d81b606482015260840161031d565b6105f4338585840361060b565b5060019392505050565b600061028633848461072f565b6001600160a01b03831661066d5760405162461bcd60e51b8152602060048201526024808201527f45524332303a20617070726f76652066726f6d20746865207a65726f206164646044820152637265737360e01b606482015260840161031d565b6001600160a01b0382166106ce5760405162461bcd60e51b815260206004820152602260248201527f45524332303a20617070726f766520746f20746865207a65726f206164647265604482015261737360f01b606482015260840161031d565b6001600160a01b0383811660008181526034602090815260408083209487168084529482529182902085905590518481527f8c5be1e5ebec7d5bd14f71427d1e84f3dd0314c0f7b2291e5b200ac8c7c3b925910160405180910390a3505050565b6001600160a01b0383166107935760405162461bcd60e51b815260206004820152602560248201527f45524332303a207472616e736665722066726f6d20746865207a65726f206164604482015264647265737360d81b606482015260840161031d565b6001600160a01b0382166107f55760405162461bcd60e51b815260206004820152602360248201527f45524332303a207472616e7366657220746f20746865207a65726f206164647260448201526265737360e81b606482015260840161031d565b610800838383610a67565b6001600160a01b038316600090815260336020526040902054818110156108785760405162461bcd60e51b815260206004820152602660248201527f45524332303a207472616e7366657220616d6f756e7420657863656564732062604482015265616c616e636560d01b606482015260840161031d565b6001600160a01b038085166000908152603360205260408082208585039055918516815290812080548492906108af908490611187565b92505081905550826001600160a01b0316846001600160a01b0316600080516020611250833981519152846040516108e991815260200190565b60405180910390a35b50505050565b600054610100900460ff1680610911575060005460ff16155b61092d5760405162461bcd60e51b815260040161031d906110f0565b600054610100900460ff1615801561094f576000805461ffff19166101011790555b8251610962906036906020860190610c8c565b508151610976906037906020850190610c8c565b508015610989576000805461ff00191690555b505050565b6001600160a01b0382166109e45760405162461bcd60e51b815260206004820152601f60248201527f45524332303a206d696e7420746f20746865207a65726f206164647265737300604482015260640161031d565b6109f060008383610a67565b8060356000828254610a029190611187565b90915550506001600160a01b03821660009081526033602052604081208054839290610a2f908490611187565b90915550506040518181526001600160a01b038316906000906000805160206112508339815191529060200160405180910390a35050565b8015610989576001600160a01b03821615801590610a8b5750610a898261042b565b155b15610adc57606680546001810182556000919091527f46501879b8ca8525e8c2fd519e2fbfcfa2ebea26501294aa02cbfcfb12e943540180546001600160a01b0319166001600160a01b0384161790555b6001600160a01b03831615801590610afb5750610af88361042b565b81145b156109895773__AddressLibrary________________________632491ddcc73__AddressLibrary________________________63ffe6eda18660666040518363ffffffff1660e01b8152600401610b54929190610feb565b60206040518083038186803b158015610b6c57600080fd5b505af4158015610b80573d6000803e3d6000fd5b505050506040513d601f19601f82011682018060405250810190610ba49190610f89565b60666040518363ffffffff1660e01b8152600401610bc392919061113e565b60006040518083038186803b158015610bdb57600080fd5b505af4158015610bef573d6000803e3d6000fd5b505050506040513d6000823e601f3d908101601f19168201604052610c179190810190610e4e565b80516108f2916066916020909101905b828054828255906000526020600020908101928215610c7c579160200282015b82811115610c7c57825182546001600160a01b0319166001600160a01b03909116178255602090920191600190910190610c47565b50610c88929150610d00565b5090565b828054610c989061119f565b90600052602060002090601f016020900481019282610cba5760008555610c7c565b82601f10610cd357805160ff1916838001178555610c7c565b82800160010185558215610c7c579182015b82811115610c7c578251825591602001919060010190610ce5565b5b80821115610c885760008155600101610d01565b600082601f830112610d2657600080fd5b81356001600160401b03811115610d3f57610d3f611221565b610d52601f8201601f1916602001611157565b818152846020838601011115610d6757600080fd5b816020850160208301376000918101602001919091529392505050565b600060208284031215610d9657600080fd5b8135610da181611237565b9392505050565b60008060408385031215610dbb57600080fd5b8235610dc681611237565b91506020830135610dd681611237565b809150509250929050565b600080600060608486031215610df657600080fd5b8335610e0181611237565b92506020840135610e1181611237565b929592945050506040919091013590565b60008060408385031215610e3557600080fd5b8235610e4081611237565b946020939093013593505050565b60006020808385031215610e6157600080fd5b82516001600160401b0380821115610e7857600080fd5b818501915085601f830112610e8c57600080fd5b815181811115610e9e57610e9e611221565b8060051b9150610eaf848301611157565b8181528481019084860184860187018a1015610eca57600080fd5b600095505b83861015610ef95780519450610ee485611237565b84835260019590950194918601918601610ecf565b5098975050505050505050565b60008060008060808587031215610f1c57600080fd5b84356001600160401b0380821115610f3357600080fd5b610f3f88838901610d15565b95506020870135915080821115610f5557600080fd5b50610f6287828801610d15565b935050604085013560ff81168114610f7957600080fd5b9396929550929360600135925050565b600060208284031215610f9b57600080fd5b5051919050565b6000815480845260208085019450836000528060002060005b83811015610fe05781546001600160a01b031687529582019560019182019101610fbb565b509495945050505050565b6001600160a01b038316815260406020820181905260009061100f90830184610fa2565b949350505050565b604080825283519082018190526000906020906060840190828701845b828110156110595781516001600160a01b031684529284019290840190600101611034565b5050508381038285015284518082528583019183019060005b8181101561108e57835183529284019291840191600101611072565b5090979650505050505050565b600060208083528351808285015260005b818110156110c8578581018301518582016040015282016110ac565b818111156110da576000604083870101525b50601f01601f1916929092016040019392505050565b6020808252602e908201527f496e697469616c697a61626c653a20636f6e747261637420697320616c72656160408201526d191e481a5b9a5d1a585b1a5e995960921b606082015260800190565b82815260406020820152600061100f6040830184610fa2565b604051601f8201601f191681016001600160401b038111828210171561117f5761117f611221565b604052919050565b6000821982111561119a5761119a6111f5565b500190565b600181811c908216806111b357607f821691505b602082108114156111d457634e487b7160e01b600052602260045260246000fd5b50919050565b60006000198214156111ee576111ee6111f5565b5060010190565b634e487b7160e01b600052601160045260246000fd5b634e487b7160e01b600052603260045260246000fd5b634e487b7160e01b600052604160045260246000fd5b6001600160a01b038116811461124c57600080fd5b5056feddf252ad1be2c89b69c2b068fc378daa952ba7f163c4a11628f55a4df523b3efa2646970667358221220cf56b2e1893c31f3c1fbae25c4964a10c719ecae2089cea6e9d0fc81125a896364736f6c63430008060033",
  "immutableReferences": {},
  "source": "// SPDX-License-Identifier: GPL-3.0\r\n\r\npragma solidity ^0.8.0;\r\n\r\n/**\r\n * @title Storage\r\n * @dev Store & retrieve value in a variable\r\n */\r\n\r\n//import \"@openzeppelin/contracts/token/ERC20/ERC20.sol\";\r\nimport \"@openzeppelin/contracts-upgradeable/token/ERC20/ERC20Upgradeable.sol\";\r\nimport \"../Libraries/AddressLibrary.sol\";\r\n\r\n contract CertisToken is ERC20Upgradeable {\r\n\r\n    using AddressLibrary for *;\r\n\r\n    // DATA\r\n    uint8 _decimals;\r\n    address[] _tokenOwners;\r\n\r\n    // CONSTRUCTOR\r\n   /* constructor(string memory name, string memory symbol, uint8 decimalsValue, uint256 MaxSupply) ERC20(name, symbol){\r\n        _tokenOwners = new address[](0);\r\n        _decimals = decimalsValue;\r\n        _mint(msg.sender, MaxSupply);\r\n    }*/\r\n\r\n    function initialize(string memory name, string memory symbol, uint8 decimalsValue, uint256 MaxSupply) public initializer {\r\n        super.__ERC20_init_unchained(name, symbol);\r\n        _tokenOwners = new address[](0);\r\n        _decimals = decimalsValue;\r\n        _mint(msg.sender, MaxSupply);\r\n    }\r\n\r\n    // FUNCTIONALITY\r\n    function decimals() public view override returns (uint8) {\r\n        return _decimals;\r\n    }\r\n\r\n    function TokenOwners() external view returns (address[] memory, uint256[] memory){\r\n        address[] memory tO = _tokenOwners;\r\n        uint256[] memory OwnerBalance = new uint256[](tO.length);\r\n\r\n        for(uint i=0; i < tO.length; i++){\r\n                OwnerBalance[i] = balanceOf(tO[i]);\r\n        }\r\n\r\n        return(tO,OwnerBalance);\r\n    }\r\n\r\n    function _beforeTokenTransfer(address from, address to, uint256 amount) internal override {\r\n        if(amount > 0){\r\n            if(address(0) != to && 0 == balanceOf(to))_tokenOwners.push(to);\r\n            if(address(0) != from && amount == balanceOf(from)){\r\n                _tokenOwners = AddressLibrary.AddressArrayRemoveResize(AddressLibrary.FindAddressPosition(from, _tokenOwners),_tokenOwners);\r\n            }\r\n        }\r\n    }\r\n    \r\n\r\n }",
  "sourcePath": "C:\\Users\\d-aam\\GitHub\\Certificates\\contracts\\DeployedContracts\\CertisToken.sol",
  "compiler": {
    "name": "solc",
    "version": "0.8.6+commit.11564f7e.Emscripten.clang"
  },
  "schemaVersion": "3.3.4",
  "updatedAt": "2021-08-02T14:46:40.069Z",
  "devdoc": {
    "kind": "dev",
    "methods": {
      "allowance(address,address)": {
        "details": "See {IERC20-allowance}."
      },
      "approve(address,uint256)": {
        "details": "See {IERC20-approve}. Requirements: - `spender` cannot be the zero address."
      },
      "balanceOf(address)": {
        "details": "See {IERC20-balanceOf}."
      },
      "decimals()": {
        "details": "Returns the number of decimals used to get its user representation. For example, if `decimals` equals `2`, a balance of `505` tokens should be displayed to a user as `5,05` (`505 / 10 ** 2`). Tokens usually opt for a value of 18, imitating the relationship between Ether and Wei. This is the value {ERC20} uses, unless this function is overridden; NOTE: This information is only used for _display_ purposes: it in no way affects any of the arithmetic of the contract, including {IERC20-balanceOf} and {IERC20-transfer}."
      },
      "decreaseAllowance(address,uint256)": {
        "details": "Atomically decreases the allowance granted to `spender` by the caller. This is an alternative to {approve} that can be used as a mitigation for problems described in {IERC20-approve}. Emits an {Approval} event indicating the updated allowance. Requirements: - `spender` cannot be the zero address. - `spender` must have allowance for the caller of at least `subtractedValue`."
      },
      "increaseAllowance(address,uint256)": {
        "details": "Atomically increases the allowance granted to `spender` by the caller. This is an alternative to {approve} that can be used as a mitigation for problems described in {IERC20-approve}. Emits an {Approval} event indicating the updated allowance. Requirements: - `spender` cannot be the zero address."
      },
      "name()": {
        "details": "Returns the name of the token."
      },
      "symbol()": {
        "details": "Returns the symbol of the token, usually a shorter version of the name."
      },
      "totalSupply()": {
        "details": "See {IERC20-totalSupply}."
      },
      "transfer(address,uint256)": {
        "details": "See {IERC20-transfer}. Requirements: - `recipient` cannot be the zero address. - the caller must have a balance of at least `amount`."
      },
      "transferFrom(address,address,uint256)": {
        "details": "See {IERC20-transferFrom}. Emits an {Approval} event indicating the updated allowance. This is not required by the EIP. See the note at the beginning of {ERC20}. Requirements: - `sender` and `recipient` cannot be the zero address. - `sender` must have a balance of at least `amount`. - the caller must have allowance for ``sender``'s tokens of at least `amount`."
      }
    },
    "version": 1
  },
  "userdoc": {
    "kind": "user",
    "methods": {},
    "version": 1
  }
}