{
  "contractName": "CertificatesPoolManager",
  "abi": [
    {
      "inputs": [
        {
          "internalType": "uint256",
          "name": "PropositionLifeTime",
          "type": "uint256"
        },
        {
          "internalType": "uint8",
          "name": "PropositionThresholdPercentage",
          "type": "uint8"
        },
        {
          "internalType": "uint8",
          "name": "minWeightToProposePercentage",
          "type": "uint8"
        }
      ],
      "stateMutability": "nonpayable",
      "type": "constructor"
    },
    {
      "inputs": [],
      "name": "cancelProposition",
      "outputs": [],
      "stateMutability": "nonpayable",
      "type": "function"
    },
    {
      "inputs": [],
      "name": "retrievePropConfig",
      "outputs": [
        {
          "internalType": "uint256",
          "name": "",
          "type": "uint256"
        },
        {
          "internalType": "uint8",
          "name": "",
          "type": "uint8"
        },
        {
          "internalType": "uint8",
          "name": "",
          "type": "uint8"
        }
      ],
      "stateMutability": "view",
      "type": "function"
    },
    {
      "inputs": [],
      "name": "retrievePropositionStatus",
      "outputs": [
        {
          "internalType": "address",
          "name": "",
          "type": "address"
        },
        {
          "internalType": "uint256",
          "name": "",
          "type": "uint256"
        },
        {
          "internalType": "uint256",
          "name": "",
          "type": "uint256"
        },
        {
          "internalType": "uint256",
          "name": "",
          "type": "uint256"
        },
        {
          "internalType": "uint256",
          "name": "",
          "type": "uint256"
        },
        {
          "internalType": "address[]",
          "name": "",
          "type": "address[]"
        },
        {
          "internalType": "uint256[]",
          "name": "",
          "type": "uint256[]"
        },
        {
          "internalType": "address[]",
          "name": "",
          "type": "address[]"
        }
      ],
      "stateMutability": "view",
      "type": "function"
    },
    {
      "inputs": [
        {
          "internalType": "uint256",
          "name": "PropLifeTime",
          "type": "uint256"
        },
        {
          "internalType": "uint8",
          "name": "PropThresholdPerc",
          "type": "uint8"
        },
        {
          "internalType": "uint8",
          "name": "minWeightToPropPerc",
          "type": "uint8"
        }
      ],
      "name": "updateProp",
      "outputs": [],
      "stateMutability": "nonpayable",
      "type": "function"
    },
    {
      "inputs": [
        {
          "internalType": "bool",
          "name": "vote",
          "type": "bool"
        }
      ],
      "name": "voteProposition",
      "outputs": [],
      "stateMutability": "nonpayable",
      "type": "function"
    },
    {
      "inputs": [
        {
          "internalType": "address payable",
          "name": "PublicPoolProxyAddress",
          "type": "address"
        },
        {
          "internalType": "address payable",
          "name": "TreasuryProxyAddress",
          "type": "address"
        },
        {
          "internalType": "address payable",
          "name": "CertisTokenProxyAddress",
          "type": "address"
        },
        {
          "internalType": "address payable",
          "name": "PrivatePoolFactoryProxyAddress",
          "type": "address"
        },
        {
          "internalType": "address",
          "name": "PrivateCertificatePoolImplAddress",
          "type": "address"
        },
        {
          "internalType": "address payable",
          "name": "ProviderFactoryProxyAddress",
          "type": "address"
        },
        {
          "internalType": "address",
          "name": "ProviderImplAddress",
          "type": "address"
        }
      ],
      "name": "InitializeContracts",
      "outputs": [],
      "stateMutability": "nonpayable",
      "type": "function"
    },
    {
      "inputs": [
        {
          "internalType": "address",
          "name": "PublicPoolAddress",
          "type": "address"
        },
        {
          "internalType": "address",
          "name": "TreasuryAddress",
          "type": "address"
        },
        {
          "internalType": "address",
          "name": "CertisTokenAddress",
          "type": "address"
        },
        {
          "internalType": "address",
          "name": "PrivatePoolFactoryAddress",
          "type": "address"
        },
        {
          "internalType": "address",
          "name": "PrivatePoolImplAddress",
          "type": "address"
        },
        {
          "internalType": "address",
          "name": "ProviderFactoryAddress",
          "type": "address"
        },
        {
          "internalType": "address",
          "name": "ProviderImplAddress",
          "type": "address"
        },
        {
          "internalType": "bytes",
          "name": "PublicPoolData",
          "type": "bytes"
        },
        {
          "internalType": "bytes",
          "name": "TreasuryData",
          "type": "bytes"
        },
        {
          "internalType": "bytes",
          "name": "CertisTokenData",
          "type": "bytes"
        },
        {
          "internalType": "bytes",
          "name": "PrivatePoolFactoryData",
          "type": "bytes"
        },
        {
          "internalType": "bytes",
          "name": "ProviderFactoryData",
          "type": "bytes"
        }
      ],
      "name": "upgradeContracts",
      "outputs": [],
      "stateMutability": "nonpayable",
      "type": "function"
    },
    {
      "inputs": [],
      "name": "retrieveProposition",
      "outputs": [
        {
          "internalType": "bytes32[]",
          "name": "",
          "type": "bytes32[]"
        }
      ],
      "stateMutability": "view",
      "type": "function"
    },
    {
      "inputs": [],
      "name": "retrievePublicCertificatePoolProxy",
      "outputs": [
        {
          "internalType": "address",
          "name": "",
          "type": "address"
        }
      ],
      "stateMutability": "view",
      "type": "function"
    },
    {
      "inputs": [],
      "name": "retrieveTreasuryProxy",
      "outputs": [
        {
          "internalType": "address",
          "name": "",
          "type": "address"
        }
      ],
      "stateMutability": "view",
      "type": "function"
    },
    {
      "inputs": [],
      "name": "retrieveCertisTokenProxy",
      "outputs": [
        {
          "internalType": "address",
          "name": "",
          "type": "address"
        }
      ],
      "stateMutability": "view",
      "type": "function"
    },
    {
      "inputs": [],
      "name": "retrievePrivatePoolFactoryProxy",
      "outputs": [
        {
          "internalType": "address",
          "name": "",
          "type": "address"
        }
      ],
      "stateMutability": "view",
      "type": "function"
    },
    {
      "inputs": [],
      "name": "retrievePrivatePoolBeacon",
      "outputs": [
        {
          "internalType": "address",
          "name": "",
          "type": "address"
        }
      ],
      "stateMutability": "view",
      "type": "function"
    },
    {
      "inputs": [],
      "name": "retrieveProviderFactoryProxy",
      "outputs": [
        {
          "internalType": "address",
          "name": "",
          "type": "address"
        }
      ],
      "stateMutability": "view",
      "type": "function"
    },
    {
      "inputs": [],
      "name": "retrieveProviderBeacon",
      "outputs": [
        {
          "internalType": "address",
          "name": "",
          "type": "address"
        }
      ],
      "stateMutability": "view",
      "type": "function"
    },
    {
      "inputs": [],
      "name": "retrievePublicCertificatePool",
      "outputs": [
        {
          "internalType": "address",
          "name": "",
          "type": "address"
        }
      ],
      "stateMutability": "view",
      "type": "function"
    },
    {
      "inputs": [],
      "name": "retrieveTreasury",
      "outputs": [
        {
          "internalType": "address",
          "name": "",
          "type": "address"
        }
      ],
      "stateMutability": "view",
      "type": "function"
    },
    {
      "inputs": [],
      "name": "retrieveCertisToken",
      "outputs": [
        {
          "internalType": "address",
          "name": "",
          "type": "address"
        }
      ],
      "stateMutability": "view",
      "type": "function"
    },
    {
      "inputs": [],
      "name": "retrievePrivatePoolFactory",
      "outputs": [
        {
          "internalType": "address",
          "name": "",
          "type": "address"
        }
      ],
      "stateMutability": "view",
      "type": "function"
    },
    {
      "inputs": [],
      "name": "retrievePrivatePool",
      "outputs": [
        {
          "internalType": "address",
          "name": "",
          "type": "address"
        }
      ],
      "stateMutability": "view",
      "type": "function"
    },
    {
      "inputs": [],
      "name": "retrieveProviderFactory",
      "outputs": [
        {
          "internalType": "address",
          "name": "",
          "type": "address"
        }
      ],
      "stateMutability": "view",
      "type": "function"
    },
    {
      "inputs": [],
      "name": "retrieveProvider",
      "outputs": [
        {
          "internalType": "address",
          "name": "",
          "type": "address"
        }
      ],
      "stateMutability": "view",
      "type": "function"
    }
  ],
  "bytecode": "0x60806040523480156200001157600080fd5b50604051620043ed380380620043ed833981016040819052620000349162000c72565b6200004e83838333306200006460201b620011531760201c565b50506021805460ff60a01b191690555062000eb5565b600054610100900460ff16806200007e575060005460ff16155b620000a65760405162461bcd60e51b81526004016200009d9062000d11565b60405180910390fd5b600054610100900460ff16158015620000c9576000805461ffff19166101011790555b620000df826200012660201b620012011760201c565b600180546001600160a01b0319166001600160a01b0385161781556200010b90879087908790620001bb565b80156200011e576000805461ff00191690555b505050505050565b600054610100900460ff168062000140575060005460ff16155b6200015f5760405162461bcd60e51b81526004016200009d9062000d11565b600054610100900460ff1615801562000182576000805461ffff19166101011790555b6000805462010000600160b01b031916620100006001600160a01b038516021790558015620001b7576000805461ff00191690555b5050565b82828160ff1660641015620001e45760405162461bcd60e51b81526004016200009d9062000d5f565b8060ff16606410156200020b5760405162461bcd60e51b81526004016200009d9062000d5f565b82156200023857600a869055600b805460ff8681166101000261ffff19909216908816171790556200011e565b600c869055600d805460ff8681166101000261ffff1990921690881617179055600e805460ff19166001179055600a546200011e9062000279904262000dd6565b600b5460ff1660006200028b620003ff565b15620002c35760405162461bcd60e51b81526004016200009d906020808252600490820152631150cc8d60e21b604082015260600190565b620002ce336200043f565b15156001146200030a5760405162461bcd60e51b81526004016200009d9060208082526004908201526322a1991960e11b604082015260600190565b6200031462000501565b80516200032a91600791602090910190620009a3565b50600754620003975760405162461bcd60e51b815260206004820152603260248201527f496d706f737369626c6520746f206164642070726f706f736974696f6e2c20746044820152716865726520617265206e6f2061646d696e7360701b60648201526084016200009d565b600280546001600160a01b031916331790556003839055606460ff8316620003be6200060d565b620003ca919062000e14565b620003d6919062000df1565b600455620003e362000711565b8051620003f99160089160209091019062000a0d565b50505050565b600354600090421015620004135750600190565b6002546001600160a01b03161562000439576200042f6200081d565b6200043962000829565b50600090565b6001546000906001600160a01b03163314156200045e57506001919050565b60006200046a62000501565b905060006200047862000711565b905060006200048885846200087c565b90508251811015620004f1576064620004a06200060d565b600b54620004b79190610100900460ff1662000e14565b620004c3919062000df1565b828281518110620004d857620004d862000e89565b602002602001015110620004f157506001949350505050565b506000949350505050565b919050565b606060008060029054906101000a90046001600160a01b03166001600160a01b031663da3dce266040518163ffffffff1660e01b815260040160206040518083038186803b1580156200055357600080fd5b505afa15801562000568573d6000803e3d6000fd5b505050506040513d601f19601f820116820180604052508101906200058e919062000b63565b6001600160a01b03166388d44ee06040518163ffffffff1660e01b815260040160006040518083038186803b158015620005c757600080fd5b505afa158015620005dc573d6000803e3d6000fd5b505050506040513d6000823e601f3d908101601f1916820160405262000606919081019062000b81565b5092915050565b60008060029054906101000a90046001600160a01b03166001600160a01b031663da3dce266040518163ffffffff1660e01b815260040160206040518083038186803b1580156200065d57600080fd5b505afa15801562000672573d6000803e3d6000fd5b505050506040513d601f19601f8201168201806040525081019062000698919062000b63565b6001600160a01b03166318160ddd6040518163ffffffff1660e01b815260040160206040518083038186803b158015620006d157600080fd5b505afa158015620006e6573d6000803e3d6000fd5b505050506040513d601f19601f820116820180604052508101906200070c919062000c58565b905090565b606060008060029054906101000a90046001600160a01b03166001600160a01b031663da3dce266040518163ffffffff1660e01b815260040160206040518083038186803b1580156200076357600080fd5b505afa15801562000778573d6000803e3d6000fd5b505050506040513d601f19601f820116820180604052508101906200079e919062000b63565b6001600160a01b03166388d44ee06040518163ffffffff1660e01b815260040160006040518083038186803b158015620007d757600080fd5b505afa158015620007ec573d6000803e3d6000fd5b505050506040513d6000823e601f3d908101601f1916820160405262000816919081019062000b81565b9392505050565b6200082762000911565b565b600280546001600160a01b0319168155600060038190556004819055600581905560068190556200085c60078262000a4b565b6200086c60068301600062000a4b565b620001b760078301600062000a4b565b60405160016219125f60e01b0319815260009073__AddressLibrary________________________9063ffe6eda190620008bd908690869060040162000cb3565b60206040518083038186803b158015620008d657600080fd5b505af4158015620008eb573d6000803e3d6000fd5b505050506040513d601f19601f8201168201806040525081019062000816919062000c58565b600f80546001600160a01b031990811682556010805482169055601180548216905560128054821690556013805482169055601480548216905560158054909116905560006200096360168262000a6e565b6200097360088301600062000a6e565b6200098360098301600062000a6e565b62000993600a8301600062000a6e565b620001b7600b8301600062000a6e565b828054828255906000526020600020908101928215620009fb579160200282015b82811115620009fb57825182546001600160a01b0319166001600160a01b03909116178255602090920191600190910190620009c4565b5062000a0992915062000aa8565b5090565b828054828255906000526020600020908101928215620009fb579160200282015b82811115620009fb57825182559160200191906001019062000a2e565b508054600082559060005260206000209081019062000a6b919062000aa8565b50565b50805462000a7c9062000e36565b6000825580601f1062000a8d575050565b601f01602090049060005260206000209081019062000a6b91905b5b8082111562000a09576000815560010162000aa9565b80516001600160a01b0381168114620004fc57600080fd5b600082601f83011262000ae957600080fd5b8151602062000b0262000afc8362000db0565b62000d7d565b80838252828201915082860187848660051b890101111562000b2357600080fd5b60005b8581101562000b445781518452928401929084019060010162000b26565b5090979650505050505050565b805160ff81168114620004fc57600080fd5b60006020828403121562000b7657600080fd5b620008168262000abf565b6000806040838503121562000b9557600080fd5b82516001600160401b038082111562000bad57600080fd5b818501915085601f83011262000bc257600080fd5b8151602062000bd562000afc8362000db0565b8083825282820191508286018a848660051b890101111562000bf657600080fd5b600096505b8487101562000c245762000c0f8162000abf565b83526001969096019591830191830162000bfb565b509188015191965090935050508082111562000c3f57600080fd5b5062000c4e8582860162000ad7565b9150509250929050565b60006020828403121562000c6b57600080fd5b5051919050565b60008060006060848603121562000c8857600080fd5b8351925062000c9a6020850162000b51565b915062000caa6040850162000b51565b90509250925092565b6001600160a01b038381168252604060208084018290528451918401829052600092858201929091906060860190855b8181101562000d0357855185168352948301949183019160010162000ce3565b509098975050505050505050565b6020808252602e908201527f496e697469616c697a61626c653a20636f6e747261637420697320616c72656160408201526d191e481a5b9a5d1a585b1a5e995960921b606082015260800190565b6020808252600490820152634543323160e01b604082015260600190565b604051601f8201601f191681016001600160401b038111828210171562000da85762000da862000e9f565b604052919050565b60006001600160401b0382111562000dcc5762000dcc62000e9f565b5060051b60200190565b6000821982111562000dec5762000dec62000e73565b500190565b60008262000e0f57634e487b7160e01b600052601260045260246000fd5b500490565b600081600019048311821515161562000e315762000e3162000e73565b500290565b600181811c9082168062000e4b57607f821691505b6020821081141562000e6d57634e487b7160e01b600052602260045260246000fd5b50919050565b634e487b7160e01b600052601160045260246000fd5b634e487b7160e01b600052603260045260246000fd5b634e487b7160e01b600052604160045260246000fd5b6135288062000ec56000396000f3fe60806040523480156200001157600080fd5b50600436106200012a5760003560e01c8063029b9673146200012f57806303cf19df146200015157806314203b01146200016a57806322d929e114620001815780633c65d427146200018b5780634b19aa16146200019d57806355457ee914620001a75780635773bc2314620001b15780635a3794e914620001c35780636771717714620001d55780637c2f3aaf14620001df578063840f6d1714620001f157806391f916711462000211578063a42e13391462000228578063a93316f51462000232578063aa33380a146200024b578063ac2bb442146200025d578063c50ec82b1462000274578063d660ab34146200027e578063da3dce2614620002ab578063efd15d1714620002bd578063f5ad9acc14620002c7575b600080fd5b62000139620002d9565b60405162000148919062002bbc565b60405180910390f35b6200016862000162366004620027d3565b6200035f565b005b620001686200017b36600462002878565b620004a6565b62000139620005b0565b601b546001600160a01b031662000139565b62000139620005f6565b620001686200063c565b601d546001600160a01b031662000139565b6020546001600160a01b031662000139565b62000139620006a6565b601c546001600160a01b031662000139565b620001fb620006ec565b6040516200014898979695949392919062002ce9565b620001686200022236600462002adb565b62000862565b6200013962000b32565b6200023c62000b78565b60405162000148919062002d84565b601f546001600160a01b031662000139565b620001686200026e36600462002b35565b620010b4565b62000139620010c8565b600a54600b546040805192835260ff80831660208501526101009092049091169082015260600162000148565b6021546001600160a01b031662000139565b620001396200110e565b601e546001600160a01b031662000139565b6021546040805163dc4ff91360e01b815290516000926001600160a01b03169163dc4ff913916004808301926020929190829003018186803b1580156200031f57600080fd5b505afa15801562000334573d6000803e3d6000fd5b505050506040513d601f19601f820116820180604052508101906200035a9190620027b3565b905090565b600154604051630d1d719d60e41b815273__Library_______________________________9163d1d719d091620003a3916001600160a01b03169060040162002bbc565b60206040518083038186803b158015620003bc57600080fd5b505af4158015620003d1573d6000803e3d6000fd5b505050506040513d601f19601f82011682018060405250810190620003f7919062002afb565b1515600114620004345760405162461bcd60e51b815260206004820152600360248201526208a86760eb1b60448201526064015b60405180910390fd5b602154600160a01b900460ff1615620004795760405162461bcd60e51b81526004016200042b9060208082526004908201526322a1991b60e11b604082015260600190565b6021805460ff60a01b1916600160a01b1790556200049d8787878787878762001295565b50505050505050565b600f80546001600160a01b03199081166001600160a01b038f8116919091179092556010805482168e84161790556011805482168d84161790556012805482168c84161790556013805482168b84161790556014805482168a84161790556015805490911691881691909117905584516200052990601690602088019062002501565b5083516200053f90601790602087019062002501565b5082516200055590601890602086019062002501565b5081516200056b90601990602085019062002501565b5080516200058190601a90602084019062002501565b50620005a2600a544262000596919062002ecb565b600b5460ff16620013ab565b505050505050505050505050565b601d546040805163dc4ff91360e01b815290516000926001600160a01b03169163dc4ff913916004808301926020929190829003018186803b1580156200031f57600080fd5b601e5460408051635c60da1b60e01b815290516000926001600160a01b031691635c60da1b916004808301926020929190829003018186803b1580156200031f57600080fd5b60016200064862001513565b15156001146200066c5760405162461bcd60e51b81526004016200042b9062002e36565b6002546001600160a01b03163314620006995760405162461bcd60e51b81526004016200042b9062002dca565b620006a362001553565b50565b601b546040805163dc4ff91360e01b815290516000926001600160a01b03169163dc4ff913916004808301926020929190829003018186803b1580156200031f57600080fd5b60008060008060006060806060600260000160009054906101000a90046001600160a01b03166002600101546002800154600260030154600260040154600260050160026006016002600701828054806020026020016040519081016040528092919081815260200182805480156200078f57602002820191906000526020600020905b81546001600160a01b0316815260019091019060200180831162000770575b5050505050925081805480602002602001604051908101604052809291908181526020018280548015620007e357602002820191906000526020600020905b815481526020019060010190808311620007ce575b50505050509150808054806020026020016040519081016040528092919081815260200182805480156200084157602002820191906000526020600020905b81546001600160a01b0316815260019091019060200180831162000822575b50505050509050975097509750975097509750975097509091929394959697565b60016200086e62001513565b1515600114620008925760405162461bcd60e51b81526004016200042b9062002e36565b620008fd336002600501805480602002602001604051908101604052809291908181526020018280548015620008f257602002820191906000526020600020905b81546001600160a01b03168152600190910190602001808311620008d3575b5050505050620015a6565b1515600114620009395760405162461bcd60e51b81526004016200042b906020808252600490820152634543323360e01b604082015260600190565b60405163f7cf62d760e01b815273__AddressLibrary________________________9063f7cf62d7906200097590339060099060040162002c2e565b60206040518083038186803b1580156200098e57600080fd5b505af4158015620009a3573d6000803e3d6000fd5b505050506040513d601f19601f82011682018060405250810190620009c9919062002afb565b15620009fe5760405162461bcd60e51b815260206004820152600360248201526245433560e81b60448201526064016200042b565b60035442101562000b0257600980546001810182556000919091527f6e1540171b6c0c960b71a7020d9f60077f6af931a8bbf590da0223dacf75c7af0180546001600160a01b03191633179055811562000aa957600862000a693362000a63620015be565b620016ca565b8154811062000a7c5762000a7c62002f7e565b90600052602060002001546002600301600082825462000a9d919062002ecb565b9091555062000af49050565b600862000aba3362000a63620015be565b8154811062000acd5762000acd62002f7e565b90600052602060002001546002600401600082825462000aee919062002ecb565b90915550505b62000afe62001766565b5050565b600e5460ff161562000b1e5762000b1862001800565b62000b28565b62000b286200181c565b62000afe62001553565b601f546040805163dc4ff91360e01b815290516000926001600160a01b03169163dc4ff913916004808301926020929190829003018186803b1580156200031f57600080fd5b6040805160078082526101008201909252606091600091906020820160e0803683375050600f5460405163bc215e8560e01b815292935073__AddressLibrary________________________9263bc215e85925062000be4916001600160a01b03169060040162002bbc565b60206040518083038186803b15801562000bfd57600080fd5b505af415801562000c12573d6000803e3d6000fd5b505050506040513d601f19601f8201168201806040525081019062000c38919062002b1b565b8160008151811062000c4e5762000c4e62002f7e565b602090810291909101015260105460405163bc215e8560e01b815273__AddressLibrary________________________9163bc215e859162000c9d916001600160a01b03169060040162002bbc565b60206040518083038186803b15801562000cb657600080fd5b505af415801562000ccb573d6000803e3d6000fd5b505050506040513d601f19601f8201168201806040525081019062000cf1919062002b1b565b8160018151811062000d075762000d0762002f7e565b602090810291909101015260115460405163bc215e8560e01b815273__AddressLibrary________________________9163bc215e859162000d56916001600160a01b03169060040162002bbc565b60206040518083038186803b15801562000d6f57600080fd5b505af415801562000d84573d6000803e3d6000fd5b505050506040513d601f19601f8201168201806040525081019062000daa919062002b1b565b8160028151811062000dc05762000dc062002f7e565b602090810291909101015260125460405163bc215e8560e01b815273__AddressLibrary________________________9163bc215e859162000e0f916001600160a01b03169060040162002bbc565b60206040518083038186803b15801562000e2857600080fd5b505af415801562000e3d573d6000803e3d6000fd5b505050506040513d601f19601f8201168201806040525081019062000e63919062002b1b565b8160038151811062000e795762000e7962002f7e565b602090810291909101015260135460405163bc215e8560e01b815273__AddressLibrary________________________9163bc215e859162000ec8916001600160a01b03169060040162002bbc565b60206040518083038186803b15801562000ee157600080fd5b505af415801562000ef6573d6000803e3d6000fd5b505050506040513d601f19601f8201168201806040525081019062000f1c919062002b1b565b8160048151811062000f325762000f3262002f7e565b602090810291909101015260145460405163bc215e8560e01b815273__AddressLibrary________________________9163bc215e859162000f81916001600160a01b03169060040162002bbc565b60206040518083038186803b15801562000f9a57600080fd5b505af415801562000faf573d6000803e3d6000fd5b505050506040513d601f19601f8201168201806040525081019062000fd5919062002b1b565b8160058151811062000feb5762000feb62002f7e565b602090810291909101015260155460405163bc215e8560e01b815273__AddressLibrary________________________9163bc215e85916200103a916001600160a01b03169060040162002bbc565b60206040518083038186803b1580156200105357600080fd5b505af415801562001068573d6000803e3d6000fd5b505050506040513d601f19601f820116820180604052508101906200108e919062002b1b565b81600681518110620010a457620010a462002f7e565b6020908102919091010152919050565b620010c3838383600062001826565b505050565b601c5460408051635c60da1b60e01b815290516000926001600160a01b031691635c60da1b916004808301926020929190829003018186803b1580156200031f57600080fd5b602080546040805163dc4ff91360e01b815290516000936001600160a01b039093169263dc4ff9139260048082019391829003018186803b1580156200031f57600080fd5b600054610100900460ff16806200116d575060005460ff16155b6200118c5760405162461bcd60e51b81526004016200042b9062002de8565b600054610100900460ff16158015620011af576000805461ffff19166101011790555b620011ba8262001201565b600180546001600160a01b0319166001600160a01b038516178155620011e69087908790879062001826565b8015620011f9576000805461ff00191690555b505050505050565b600054610100900460ff16806200121b575060005460ff16155b6200123a5760405162461bcd60e51b81526004016200042b9062002de8565b600054610100900460ff161580156200125d576000805461ffff19166101011790555b6000805462010000600160b01b031916620100006001600160a01b03851602179055801562000afe576000805461ff00191690555050565b601f80546001600160a01b03808a166001600160a01b0319928316179092556020805489841690831617905560218054888416908316179055601b8054928716929091169190911790556040518390620012ef9062002590565b620012fb919062002bbc565b604051809103906000f08015801562001318573d6000803e3d6000fd5b50601c80546001600160a01b03199081166001600160a01b0393841617909155601d80549091169184169190911790556040518190620013589062002590565b62001364919062002bbc565b604051809103906000f08015801562001381573d6000803e3d6000fd5b50601e80546001600160a01b0319166001600160a01b039290921691909117905550505050505050565b6000620013b762001513565b15620013ef5760405162461bcd60e51b81526004016200042b906020808252600490820152631150cc8d60e21b604082015260600190565b620013fa33620018e4565b15156001146200141e5760405162461bcd60e51b81526004016200042b9062002dca565b62001428620015be565b80516200143e916007916020909101906200259e565b50600754620014ab5760405162461bcd60e51b815260206004820152603260248201527f496d706f737369626c6520746f206164642070726f706f736974696f6e2c20746044820152716865726520617265206e6f2061646d696e7360701b60648201526084016200042b565b600280546001600160a01b031916331790556003839055606460ff8316620014d2620019a6565b620014de919062002f09565b620014ea919062002ee6565b600455620014f762001aa5565b80516200150d91600891602090910190620025f6565b50505050565b600354600090421015620015275750600190565b6002546001600160a01b0316156200154d57620015436200181c565b6200154d62001553565b50600090565b600280546001600160a01b0319168155600060038190556004819055600581905560068190556200158660078262002633565b6200159660068301600062002633565b62000afe60078301600062002633565b60008151620015b68484620016ca565b109392505050565b606060008060029054906101000a90046001600160a01b03166001600160a01b031663da3dce266040518163ffffffff1660e01b815260040160206040518083038186803b1580156200161057600080fd5b505afa15801562001625573d6000803e3d6000fd5b505050506040513d601f19601f820116820180604052508101906200164b9190620027b3565b6001600160a01b03166388d44ee06040518163ffffffff1660e01b815260040160006040518083038186803b1580156200168457600080fd5b505afa15801562001699573d6000803e3d6000fd5b505050506040513d6000823e601f3d908101601f19168201604052620016c3919081019062002a02565b5092915050565b60405160016219125f60e01b0319815260009073__AddressLibrary________________________9063ffe6eda1906200170b908690869060040162002bd0565b60206040518083038186803b1580156200172457600080fd5b505af415801562001739573d6000803e3d6000fd5b505050506040513d601f19601f820116820180604052508101906200175f919062002b1b565b9392505050565b6004546005541115620017d357600e5460ff1615620017bd57600c54600a55600d54600b805461010080840460ff90811690910261ffff19909216931692909217919091179055620017b762001800565b620017c7565b620017c762001baa565b620017d162001553565b565b6004546006541115620017d157600e5460ff1615620017f657620017b762001800565b620017c76200181c565b6000600c55600d805461ffff19169055600e805460ff19169055565b620017d162001ed3565b82828160ff16606410156200184f5760405162461bcd60e51b81526004016200042b9062002e54565b8060ff1660641015620018765760405162461bcd60e51b81526004016200042b9062002e54565b8215620018a357600a869055600b805460ff8681166101000261ffff1990921690881617179055620011f9565b600c869055600d805460ff8681166101000261ffff1990921690881617179055600e805460ff19166001179055600a54620011f99062000596904262002ecb565b6001546000906001600160a01b03163314156200190357506001919050565b60006200190f620015be565b905060006200191d62001aa5565b905060006200192d8584620016ca565b905082518110156200199657606462001945620019a6565b600b546200195c9190610100900460ff1662002f09565b62001968919062002ee6565b8282815181106200197d576200197d62002f7e565b6020026020010151106200199657506001949350505050565b506000949350505050565b919050565b60008060029054906101000a90046001600160a01b03166001600160a01b031663da3dce266040518163ffffffff1660e01b815260040160206040518083038186803b158015620019f657600080fd5b505afa15801562001a0b573d6000803e3d6000fd5b505050506040513d601f19601f8201168201806040525081019062001a319190620027b3565b6001600160a01b03166318160ddd6040518163ffffffff1660e01b815260040160206040518083038186803b15801562001a6a57600080fd5b505afa15801562001a7f573d6000803e3d6000fd5b505050506040513d601f19601f820116820180604052508101906200035a919062002b1b565b606060008060029054906101000a90046001600160a01b03166001600160a01b031663da3dce266040518163ffffffff1660e01b815260040160206040518083038186803b15801562001af757600080fd5b505afa15801562001b0c573d6000803e3d6000fd5b505050506040513d601f19601f8201168201806040525081019062001b329190620027b3565b6001600160a01b03166388d44ee06040518163ffffffff1660e01b815260040160006040518083038186803b15801562001b6b57600080fd5b505afa15801562001b80573d6000803e3d6000fd5b505050506040513d6000823e601f3d908101601f191682016040526200175f919081019062002a02565b600f54601054601154601254601354601454601554601680546200181c986001600160a01b039081169881169781169681169581169481169316919062001bf19062002f2b565b80601f016020809104026020016040519081016040528092919081815260200182805462001c1f9062002f2b565b801562001c705780601f1062001c445761010080835404028352916020019162001c70565b820191906000526020600020905b81548152906001019060200180831162001c5257829003601f168201915b5050505050600f600801805462001c879062002f2b565b80601f016020809104026020016040519081016040528092919081815260200182805462001cb59062002f2b565b801562001d065780601f1062001cda5761010080835404028352916020019162001d06565b820191906000526020600020905b81548152906001019060200180831162001ce857829003601f168201915b5050505050600f600901805462001d1d9062002f2b565b80601f016020809104026020016040519081016040528092919081815260200182805462001d4b9062002f2b565b801562001d9c5780601f1062001d705761010080835404028352916020019162001d9c565b820191906000526020600020905b81548152906001019060200180831162001d7e57829003601f168201915b5050505050600f600a01805462001db39062002f2b565b80601f016020809104026020016040519081016040528092919081815260200182805462001de19062002f2b565b801562001e325780601f1062001e065761010080835404028352916020019162001e32565b820191906000526020600020905b81548152906001019060200180831162001e1457829003601f168201915b5050505050600f600b01805462001e499062002f2b565b80601f016020809104026020016040519081016040528092919081815260200182805462001e779062002f2b565b801562001ec85780601f1062001e9c5761010080835404028352916020019162001ec8565b820191906000526020600020905b81548152906001019060200180831162001eaa57829003601f168201915b505050505062001f65565b600f80546001600160a01b0319908116825560108054821690556011805482169055601280548216905560138054821690556014805482169055601580549091169055600062001f2560168262002653565b62001f3560088301600062002653565b62001f4560098301600062002653565b62001f55600a8301600062002653565b62000afe600b8301600062002653565b6001600160a01b038c1615620020525784511562001feb57601f5460405163278f794360e11b81526001600160a01b0390911690634f1ef2869062001fb1908f90899060040162002c81565b600060405180830381600087803b15801562001fcc57600080fd5b505af115801562001fe1573d6000803e3d6000fd5b5050505062002052565b601f54604051631b2ce7f360e11b81526001600160a01b0390911690633659cfe6906200201d908f9060040162002bbc565b600060405180830381600087803b1580156200203857600080fd5b505af11580156200204d573d6000803e3d6000fd5b505050505b6001600160a01b038b16156200213f57835115620020d85760205460405163278f794360e11b81526001600160a01b0390911690634f1ef286906200209e908e90889060040162002c81565b600060405180830381600087803b158015620020b957600080fd5b505af1158015620020ce573d6000803e3d6000fd5b505050506200213f565b602054604051631b2ce7f360e11b81526001600160a01b0390911690633659cfe6906200210a908e9060040162002bbc565b600060405180830381600087803b1580156200212557600080fd5b505af11580156200213a573d6000803e3d6000fd5b505050505b6001600160a01b038a16156200222c57825115620021c55760215460405163278f794360e11b81526001600160a01b0390911690634f1ef286906200218b908d90879060040162002c81565b600060405180830381600087803b158015620021a657600080fd5b505af1158015620021bb573d6000803e3d6000fd5b505050506200222c565b602154604051631b2ce7f360e11b81526001600160a01b0390911690633659cfe690620021f7908d9060040162002bbc565b600060405180830381600087803b1580156200221257600080fd5b505af115801562002227573d6000803e3d6000fd5b505050505b6001600160a01b038916156200231957815115620022b257601b5460405163278f794360e11b81526001600160a01b0390911690634f1ef2869062002278908c90869060040162002c81565b600060405180830381600087803b1580156200229357600080fd5b505af1158015620022a8573d6000803e3d6000fd5b5050505062002319565b601b54604051631b2ce7f360e11b81526001600160a01b0390911690633659cfe690620022e4908c9060040162002bbc565b600060405180830381600087803b158015620022ff57600080fd5b505af115801562002314573d6000803e3d6000fd5b505050505b6001600160a01b0387161562002406578051156200239f57601d5460405163278f794360e11b81526001600160a01b0390911690634f1ef2869062002365908a90859060040162002c81565b600060405180830381600087803b1580156200238057600080fd5b505af115801562002395573d6000803e3d6000fd5b5050505062002406565b601d54604051631b2ce7f360e11b81526001600160a01b0390911690633659cfe690620023d1908a9060040162002bbc565b600060405180830381600087803b158015620023ec57600080fd5b505af115801562002401573d6000803e3d6000fd5b505050505b6001600160a01b038816156200247d57601c54604051631b2ce7f360e11b81526001600160a01b0390911690633659cfe69062002448908b9060040162002bbc565b600060405180830381600087803b1580156200246357600080fd5b505af115801562002478573d6000803e3d6000fd5b505050505b6001600160a01b03861615620005a257601e54604051631b2ce7f360e11b81526001600160a01b0390911690633659cfe690620024bf90899060040162002bbc565b600060405180830381600087803b158015620024da57600080fd5b505af1158015620024ef573d6000803e3d6000fd5b50505050505050505050505050505050565b8280546200250f9062002f2b565b90600052602060002090601f0160209004810192826200253357600085556200257e565b82601f106200254e57805160ff19168380011785556200257e565b828001600101855582156200257e579182015b828111156200257e57825182559160200191906001019062002561565b506200258c9291506200268d565b5090565b6105238062002fd083390190565b8280548282559060005260206000209081019282156200257e579160200282015b828111156200257e57825182546001600160a01b0319166001600160a01b03909116178255602090920191600190910190620025bf565b8280548282559060005260206000209081019282156200257e57916020028201828111156200257e57825182559160200191906001019062002561565b5080546000825590600052602060002090810190620006a391906200268d565b508054620026619062002f2b565b6000825580601f1062002672575050565b601f016020900490600052602060002090810190620006a391905b5b808211156200258c57600081556001016200268e565b8035620019a18162002faa565b600082601f830112620026c357600080fd5b81516020620026dc620026d68362002ea5565b62002e72565b80838252828201915082860187848660051b8901011115620026fd57600080fd5b60005b858110156200271e5781518452928401929084019060010162002700565b5090979650505050505050565b600082601f8301126200273d57600080fd5b81356001600160401b0381111562002759576200275962002f94565b6200276e601f8201601f191660200162002e72565b8181528460208386010111156200278457600080fd5b816020850160208301376000918101602001919091529392505050565b803560ff81168114620019a157600080fd5b600060208284031215620027c657600080fd5b81516200175f8162002faa565b600080600080600080600060e0888a031215620027ef57600080fd5b8735620027fc8162002faa565b965060208801356200280e8162002faa565b95506040880135620028208162002faa565b94506060880135620028328162002faa565b93506080880135620028448162002faa565b925060a0880135620028568162002faa565b915060c0880135620028688162002faa565b8091505092959891949750929550565b6000806000806000806000806000806000806101808d8f0312156200289c57600080fd5b620028a78d620026a4565b9b50620028b760208e01620026a4565b9a50620028c760408e01620026a4565b9950620028d760608e01620026a4565b9850620028e760808e01620026a4565b9750620028f760a08e01620026a4565b96506200290760c08e01620026a4565b95506001600160401b0360e08e013511156200292257600080fd5b620029348e60e08f01358f016200272b565b94506001600160401b036101008e013511156200295057600080fd5b620029638e6101008f01358f016200272b565b93506001600160401b036101208e013511156200297f57600080fd5b620029928e6101208f01358f016200272b565b92506001600160401b036101408e01351115620029ae57600080fd5b620029c18e6101408f01358f016200272b565b91506001600160401b036101608e01351115620029dd57600080fd5b620029f08e6101608f01358f016200272b565b90509295989b509295989b509295989b565b6000806040838503121562002a1657600080fd5b82516001600160401b038082111562002a2e57600080fd5b818501915085601f83011262002a4357600080fd5b8151602062002a56620026d68362002ea5565b8083825282820191508286018a848660051b890101111562002a7757600080fd5b600096505b8487101562002aa757805162002a928162002faa565b83526001969096019591830191830162002a7c565b509188015191965090935050508082111562002ac257600080fd5b5062002ad185828601620026b1565b9150509250929050565b60006020828403121562002aee57600080fd5b81356200175f8162002fc0565b60006020828403121562002b0e57600080fd5b81516200175f8162002fc0565b60006020828403121562002b2e57600080fd5b5051919050565b60008060006060848603121562002b4b57600080fd5b8335925062002b5d60208501620027a1565b915062002b6d60408501620027a1565b90509250925092565b600081518084526020808501945080840160005b8381101562002bb15781516001600160a01b03168752958201959082019060010162002b8a565b509495945050505050565b6001600160a01b0391909116815260200190565b6001600160a01b038381168252604060208084018290528451918401829052600092858201929091906060860190855b8181101562002c2057855185168352948301949183019160010162002c00565b509098975050505050505050565b60006040820160018060a01b03808616845260206040818601528286548085526060870191508760005282600020945060005b8181101562002c2057855485168352600195860195928401920162002c61565b60018060a01b038316815260006020604081840152835180604085015260005b8181101562002cbf5785810183015185820160600152820162002ca1565b8181111562002cd2576000606083870101525b50601f01601f191692909201606001949350505050565b600061010060018060a01b038b16835260208a818501528960408501528860608501528760808501528160a085015262002d268285018862002b76565b84810360c0860152865180825282880193509082019060005b8181101562002d5d5784518352938301939183019160010162002d3f565b505084810360e086015262002d73818762002b76565b9d9c50505050505050505050505050565b6020808252825182820181905260009190848201906040850190845b8181101562002dbe5783518352928401929184019160010162002da0565b50909695505050505050565b60208082526004908201526322a1991960e11b604082015260600190565b6020808252602e908201527f496e697469616c697a61626c653a20636f6e747261637420697320616c72656160408201526d191e481a5b9a5d1a585b1a5e995960921b606082015260800190565b6020808252600490820152634543323560e01b604082015260600190565b6020808252600490820152634543323160e01b604082015260600190565b604051601f8201601f191681016001600160401b038111828210171562002e9d5762002e9d62002f94565b604052919050565b60006001600160401b0382111562002ec15762002ec162002f94565b5060051b60200190565b6000821982111562002ee15762002ee162002f68565b500190565b60008262002f0457634e487b7160e01b600052601260045260246000fd5b500490565b600081600019048311821515161562002f265762002f2662002f68565b500290565b600181811c9082168062002f4057607f821691505b6020821081141562002f6257634e487b7160e01b600052602260045260246000fd5b50919050565b634e487b7160e01b600052601160045260246000fd5b634e487b7160e01b600052603260045260246000fd5b634e487b7160e01b600052604160045260246000fd5b6001600160a01b0381168114620006a357600080fd5b8015158114620006a357600080fdfe608060405234801561001057600080fd5b5060405161052338038061052383398101604081905261002f91610148565b61003833610047565b61004181610097565b50610178565b600080546001600160a01b038381166001600160a01b0319831681178455604051919092169283917f8be0079c531659141344cd1fd0a4f28419497f9722a3daafe3b4186f6b6457e09190a35050565b6100aa8161014260201b61021f1760201c565b6101205760405162461bcd60e51b815260206004820152603360248201527f5570677261646561626c65426561636f6e3a20696d706c656d656e746174696f60448201527f6e206973206e6f74206120636f6e747261637400000000000000000000000000606482015260840160405180910390fd5b600180546001600160a01b0319166001600160a01b0392909216919091179055565b3b151590565b60006020828403121561015a57600080fd5b81516001600160a01b038116811461017157600080fd5b9392505050565b61039c806101876000396000f3fe608060405234801561001057600080fd5b50600436106100575760003560e01c80633659cfe61461005c5780635c60da1b14610071578063715018a61461009a5780638da5cb5b146100a2578063f2fde38b146100aa575b600080fd5b61006f61006a366004610301565b6100bd565b005b6001546001600160a01b03165b6040516001600160a01b03909116815260200160405180910390f35b61006f610135565b61007e610170565b61006f6100b8366004610301565b61017f565b336100c6610170565b6001600160a01b0316146100f55760405162461bcd60e51b81526004016100ec90610331565b60405180910390fd5b6100fe81610225565b6040516001600160a01b038216907fbc7cd75a20ee27fd9adebab32041f755214dbc6bffa90cc0225b39da2e5c2d3b90600090a250565b3361013e610170565b6001600160a01b0316146101645760405162461bcd60e51b81526004016100ec90610331565b61016e60006102b1565b565b6000546001600160a01b031690565b33610188610170565b6001600160a01b0316146101ae5760405162461bcd60e51b81526004016100ec90610331565b6001600160a01b0381166102135760405162461bcd60e51b815260206004820152602660248201527f4f776e61626c653a206e6577206f776e657220697320746865207a65726f206160448201526564647265737360d01b60648201526084016100ec565b61021c816102b1565b50565b3b151590565b803b61028f5760405162461bcd60e51b815260206004820152603360248201527f5570677261646561626c65426561636f6e3a20696d706c656d656e746174696f6044820152721b881a5cc81b9bdd08184818dbdb9d1c9858dd606a1b60648201526084016100ec565b600180546001600160a01b0319166001600160a01b0392909216919091179055565b600080546001600160a01b038381166001600160a01b0319831681178455604051919092169283917f8be0079c531659141344cd1fd0a4f28419497f9722a3daafe3b4186f6b6457e09190a35050565b60006020828403121561031357600080fd5b81356001600160a01b038116811461032a57600080fd5b9392505050565b6020808252818101527f4f776e61626c653a2063616c6c6572206973206e6f7420746865206f776e657260408201526060019056fea2646970667358221220736d14b1e38cf554db976d4936fa0778be2419afd8caecf0ecc77a2430e463e764736f6c63430008060033a2646970667358221220088be66f0439dda6eb2d3e4d629daa344bd93a31b2d52a49aa7c21e1ffe6b9a764736f6c63430008060033",
  "immutableReferences": {},
  "source": "// SPDX-License-Identifier: GPL-3.0\r\n\r\npragma solidity >=0.7.0 <0.9.0;\r\n\r\n/**\r\n * @title Storage\r\n * @dev Store & retrieve value in a variable\r\n */\r\n\r\nimport \"../Interfaces/IProxyManager.sol\";\r\n//import \"./Proxies/PublicCertificatesPoolProxy.sol\";\r\nimport \"./PrivateCertificatesPool.sol\";\r\n//import \"./Proxies/PrivatePoolFactoryProxy.sol\";\r\n//import \"./Proxies/ProviderFactoryProxy.sol\";\r\n//import \"./Proxies/TreasuryProxy.sol\";\r\nimport \"./Proxies/GenericProxy.sol\";\r\nimport \"../Base/TokenGovernanceBaseContract.sol\";\r\nimport \"./Proxies/CertisTokenProxy.sol\";\r\nimport \"../Libraries/AddressLibrary.sol\";\r\nimport \"@openzeppelin/contracts-upgradeable/proxy/utils/Initializable.sol\";\r\nimport \"@openzeppelin/contracts/proxy/beacon/UpgradeableBeacon.sol\";\r\nimport \"@openzeppelin/contracts/proxy/transparent/TransparentUpgradeableProxy.sol\";\r\n\r\ncontract CertificatesPoolManager is IProxyManager, TokenGovernanceBaseContract{\r\n    using AddressLibrary for *;\r\n\r\n    // DATA /////////////////////////////////////////\r\n    // proposition to change\r\n    struct ProposedContractsStruct{\r\n        address NewPublicPoolAddress;\r\n        address NewTreasuryAddress;\r\n        address NewCertisTokenAddress;\r\n        address NewPrivatePoolFactoryAddress;\r\n        address NewPrivatePoolAddress;\r\n        address NewProviderFactoryAddress;\r\n        address NewProviderAddress;\r\n        bytes NewPublicPoolData;\r\n        bytes NewPTreasuryData;\r\n        bytes NewCertisTokenData;\r\n        bytes NewPrivatePoolFactoryData;\r\n        bytes NewProviderFactoryData;\r\n    }\r\n\r\n    ProposedContractsStruct _ProposedContracts;\r\n    \r\n    // Private Certificate Pools Factory\r\n    GenericProxy _PrivatePoolFactory;\r\n\r\n    // Private Certificates Pool\r\n    UpgradeableBeacon _PrivateCertificatePoolBeacon;\r\n\r\n    // Provider Factory\r\n    GenericProxy _ProviderFactory;\r\n\r\n    // Provider\r\n    UpgradeableBeacon _ProviderBeacon;\r\n\r\n    // Public Certificates Pool\r\n    GenericProxy  _PublicCertificatesPool;\r\n\r\n    // Treasury\r\n    GenericProxy _Treasury;\r\n\r\n    // Certis Token\r\n    CertisTokenProxy _CertisToken;\r\n\r\n    // init\r\n    bool _init;\r\n\r\n    // MODIFIERS /////////////////////////////////////////\r\n    modifier isNotInitialized(){\r\n        require(false == _init, \"EC26\");\r\n        _;\r\n    }\r\n\r\n    // CONSTRUCTOR and INITIALIZATION /////////////////////////////////////////\r\n    constructor(uint256 PropositionLifeTime, uint8 PropositionThresholdPercentage, uint8 minWeightToProposePercentage) \r\n    {\r\n        super.TokenGovernanceContract_init(PropositionLifeTime, PropositionThresholdPercentage, minWeightToProposePercentage, msg.sender, address(this));\r\n        _init = false;\r\n    }\r\n\r\n    function InitializeContracts(address payable PublicPoolProxyAddress, address payable TreasuryProxyAddress, address payable CertisTokenProxyAddress, address payable PrivatePoolFactoryProxyAddress, address PrivateCertificatePoolImplAddress, address payable ProviderFactoryProxyAddress, address ProviderImplAddress) \r\n        isFromChairPerson()\r\n        isNotInitialized()\r\n    external\r\n    {\r\n        _init = true;\r\n        initProxies(PublicPoolProxyAddress, TreasuryProxyAddress, CertisTokenProxyAddress, PrivatePoolFactoryProxyAddress, PrivateCertificatePoolImplAddress, ProviderFactoryProxyAddress, ProviderImplAddress);\r\n    }\r\n\r\n    // FUNCTIONALITY /////////////////////////////////////////\r\n    // governance : contracts assignment and management\r\n    function upgradeContracts(address PublicPoolAddress, address TreasuryAddress, address CertisTokenAddress, address PrivatePoolFactoryAddress, address PrivatePoolImplAddress, address ProviderFactoryAddress, address ProviderImplAddress,\r\n        bytes memory PublicPoolData, bytes memory TreasuryData, bytes memory CertisTokenData, bytes memory PrivatePoolFactoryData, bytes memory ProviderFactoryData) external override\r\n    {\r\n        _ProposedContracts.NewPublicPoolAddress = PublicPoolAddress;\r\n        _ProposedContracts.NewTreasuryAddress = TreasuryAddress;\r\n        _ProposedContracts.NewCertisTokenAddress = CertisTokenAddress;\r\n        _ProposedContracts.NewPrivatePoolFactoryAddress = PrivatePoolFactoryAddress;\r\n        _ProposedContracts.NewPrivatePoolAddress = PrivatePoolImplAddress;\r\n        _ProposedContracts.NewProviderFactoryAddress = ProviderFactoryAddress;\r\n        _ProposedContracts.NewProviderAddress = ProviderImplAddress;\r\n        _ProposedContracts.NewPublicPoolData = PublicPoolData;\r\n        _ProposedContracts.NewPTreasuryData = TreasuryData;\r\n        _ProposedContracts.NewCertisTokenData = CertisTokenData;\r\n        _ProposedContracts.NewPrivatePoolFactoryData = PrivatePoolFactoryData;\r\n        _ProposedContracts.NewProviderFactoryData = ProviderFactoryData;\r\n        addProposition(block.timestamp + _PropositionLifeTime, _PropositionThresholdPercentage);\r\n    }\r\n\r\n    function propositionApproved() internal override\r\n    {\r\n        upgradeContractsImplementations(_ProposedContracts.NewPublicPoolAddress, _ProposedContracts.NewTreasuryAddress, _ProposedContracts.NewCertisTokenAddress, _ProposedContracts.NewPrivatePoolFactoryAddress, _ProposedContracts.NewPrivatePoolAddress, _ProposedContracts.NewProviderFactoryAddress, _ProposedContracts.NewProviderAddress,\r\n        _ProposedContracts.NewPublicPoolData, _ProposedContracts.NewPTreasuryData, _ProposedContracts.NewCertisTokenData, _ProposedContracts.NewPrivatePoolFactoryData, _ProposedContracts.NewProviderFactoryData);\r\n        removeProposition();\r\n    }\r\n\r\n    function propositionRejected() internal override\r\n    {\r\n        removeProposition();\r\n    }\r\n\r\n    function propositionExpired() internal override\r\n    {\r\n        removeProposition();\r\n    }\r\n\r\n    function removeProposition() internal\r\n    {\r\n       delete(_ProposedContracts);\r\n    }\r\n\r\n    function retrieveProposition() external override view returns(bytes32[] memory)\r\n    {\r\n        bytes32[] memory proposition = new bytes32[](7);\r\n        proposition[0] = AddressLibrary.AddressToBytes32(_ProposedContracts.NewPublicPoolAddress);\r\n        proposition[1] = AddressLibrary.AddressToBytes32(_ProposedContracts.NewTreasuryAddress);\r\n        proposition[2] = AddressLibrary.AddressToBytes32(_ProposedContracts.NewCertisTokenAddress);\r\n        proposition[3] = AddressLibrary.AddressToBytes32(_ProposedContracts.NewPrivatePoolFactoryAddress);\r\n        proposition[4] = AddressLibrary.AddressToBytes32(_ProposedContracts.NewPrivatePoolAddress);\r\n        proposition[5] = AddressLibrary.AddressToBytes32(_ProposedContracts.NewProviderFactoryAddress);\r\n        proposition[6] = AddressLibrary.AddressToBytes32(_ProposedContracts.NewProviderAddress);\r\n        return proposition;\r\n    }\r\n\r\n    function initProxies(address payable PublicPoolProxyAddress, address payable TreasuryProxyAddress, address payable CertisTokenProxyAddress, address payable PrivatePoolFactoryProxyAddress, address PrivateCertificatePoolImplAddress, address payable ProviderFactoryProxyAddress, address ProviderImplAddress) internal\r\n    {\r\n        _PublicCertificatesPool = GenericProxy(PublicPoolProxyAddress);\r\n        _Treasury = GenericProxy(TreasuryProxyAddress);\r\n        _CertisToken = CertisTokenProxy(CertisTokenProxyAddress);\r\n        _PrivatePoolFactory = GenericProxy(PrivatePoolFactoryProxyAddress);\r\n        _PrivateCertificatePoolBeacon = new UpgradeableBeacon(PrivateCertificatePoolImplAddress);\r\n        _ProviderFactory = GenericProxy(ProviderFactoryProxyAddress);\r\n        _ProviderBeacon = new UpgradeableBeacon(ProviderImplAddress);\r\n    }\r\n\r\n    function upgradeContractsImplementations(address PublicPoolAddress, address TreasuryAddress, address CertisTokenAddress, address PrivatePoolFactoryAddress, address PrivatePoolImplAddress, address ProviderFactoryAddress, address ProviderImplAddress,\r\n        bytes memory PublicPoolData, bytes memory TreasuryData, bytes memory CertisTokenData, bytes memory PrivatePoolFactoryData, bytes memory ProviderFactoryData) internal\r\n    {\r\n        if(address(0) != PublicPoolAddress){\r\n            if(0 < PublicPoolData.length)_PublicCertificatesPool.upgradeToAndCall(PublicPoolAddress, PublicPoolData);\r\n            else _PublicCertificatesPool.upgradeTo(PublicPoolAddress);\r\n        }\r\n        if(address(0) != TreasuryAddress){\r\n            if(0 < TreasuryData.length)_Treasury.upgradeToAndCall(TreasuryAddress, TreasuryData);\r\n            else _Treasury.upgradeTo(TreasuryAddress);\r\n        }\r\n        if(address(0) != CertisTokenAddress){\r\n            if(0 < CertisTokenData.length)_CertisToken.upgradeToAndCall(CertisTokenAddress, CertisTokenData);\r\n            else _CertisToken.upgradeTo(CertisTokenAddress);\r\n        }\r\n        if(address(0) != PrivatePoolFactoryAddress){\r\n            if(0 < PrivatePoolFactoryData.length)_PrivatePoolFactory.upgradeToAndCall(PrivatePoolFactoryAddress, PrivatePoolFactoryData);\r\n            else _PrivatePoolFactory.upgradeTo(PrivatePoolFactoryAddress);\r\n        }\r\n        if(address(0) != ProviderFactoryAddress){\r\n            if(0 < ProviderFactoryData.length)_ProviderFactory.upgradeToAndCall(ProviderFactoryAddress, ProviderFactoryData);\r\n            else _ProviderFactory.upgradeTo(ProviderFactoryAddress);\r\n        }\r\n        if(address(0) != PrivatePoolImplAddress)_PrivateCertificatePoolBeacon.upgradeTo(PrivatePoolImplAddress);\r\n        if(address(0) != ProviderImplAddress)_ProviderBeacon.upgradeTo(ProviderImplAddress);\r\n    }\r\n\r\n    // configuration Proxies\r\n    function retrievePublicCertificatePoolProxy() external override view returns (address) {\r\n        return (address(_PublicCertificatesPool));\r\n    }\r\n\r\n    function retrieveTreasuryProxy() external override view returns (address) {\r\n        return (address(_Treasury));\r\n    }\r\n\r\n    function retrieveCertisTokenProxy() external override view returns (address) {\r\n        return (address(_CertisToken));\r\n    }\r\n\r\n    function retrievePrivatePoolFactoryProxy() external override view returns (address) {\r\n        return (address(_PrivatePoolFactory));\r\n    }\r\n\r\n    function retrievePrivatePoolBeacon() external override view returns (address) {\r\n        return (address(_PrivateCertificatePoolBeacon));\r\n    }\r\n\r\n    function retrieveProviderFactoryProxy() external override view returns (address) {\r\n        return (address(_ProviderFactory));\r\n    }\r\n\r\n    function retrieveProviderBeacon() external override view returns (address) {\r\n        return (address(_ProviderBeacon));\r\n    }\r\n\r\n    // configuration implementations\r\n    function retrievePublicCertificatePool() external override view returns (address) {\r\n        return _PublicCertificatesPool.retrieveImplementation();\r\n    }\r\n\r\n    function retrieveTreasury() external override view returns (address) {\r\n        return _Treasury.retrieveImplementation();\r\n    }\r\n\r\n    function retrieveCertisToken() external override view returns (address) {\r\n        return _CertisToken.retrieveImplementation();\r\n    }\r\n\r\n    function retrievePrivatePoolFactory() external override view returns (address) {\r\n        return _PrivatePoolFactory.retrieveImplementation();\r\n    }\r\n\r\n    function retrievePrivatePool() external override view returns (address) {\r\n        return _PrivateCertificatePoolBeacon.implementation();\r\n    }\r\n\r\n    function retrieveProviderFactory() external override view returns (address) {\r\n        return _ProviderFactory.retrieveImplementation();\r\n    }\r\n\r\n    function retrieveProvider() external override view returns (address) {\r\n        return _ProviderBeacon.implementation();\r\n    }\r\n    \r\n}",
  "sourcePath": "C:/Users/d-aam/GitHub/Certificates/contracts/DeployedContracts/CertificatesPoolManager.sol",
  "compiler": {
    "name": "solc",
    "version": "0.8.6+commit.11564f7e.Emscripten.clang"
  },
  "schemaVersion": "3.3.4",
  "updatedAt": "2021-08-09T06:33:52.447Z",
  "devdoc": {
    "kind": "dev",
    "methods": {},
    "version": 1
  },
  "userdoc": {
    "kind": "user",
    "methods": {},
    "version": 1
  }
}