{
  "contractName": "CertificatesPoolManager",
  "abi": [
    {
      "inputs": [
        {
          "internalType": "uint256",
          "name": "PropositionLifeTime",
          "type": "uint256"
        },
        {
          "internalType": "uint8",
          "name": "PropositionThresholdPercentage",
          "type": "uint8"
        },
        {
          "internalType": "uint8",
          "name": "minWeightToProposePercentage",
          "type": "uint8"
        },
        {
          "internalType": "string",
          "name": "contractName",
          "type": "string"
        },
        {
          "internalType": "string",
          "name": "contractVersion",
          "type": "string"
        }
      ],
      "stateMutability": "nonpayable",
      "type": "constructor"
    },
    {
      "anonymous": false,
      "inputs": [
        {
          "indexed": false,
          "internalType": "uint256",
          "name": "Id",
          "type": "uint256"
        },
        {
          "indexed": true,
          "internalType": "address",
          "name": "Proposer",
          "type": "address"
        },
        {
          "indexed": false,
          "internalType": "uint256",
          "name": "Deadline",
          "type": "uint256"
        },
        {
          "indexed": false,
          "internalType": "uint256",
          "name": "Threshold",
          "type": "uint256"
        }
      ],
      "name": "_AddedProposition",
      "type": "event"
    },
    {
      "anonymous": false,
      "inputs": [
        {
          "indexed": false,
          "internalType": "uint256",
          "name": "Id",
          "type": "uint256"
        },
        {
          "indexed": true,
          "internalType": "address",
          "name": "Proposer",
          "type": "address"
        }
      ],
      "name": "_CancelledProposition",
      "type": "event"
    },
    {
      "anonymous": false,
      "inputs": [
        {
          "indexed": false,
          "internalType": "address",
          "name": "Public",
          "type": "address"
        },
        {
          "indexed": false,
          "internalType": "address",
          "name": "Treasury",
          "type": "address"
        },
        {
          "indexed": false,
          "internalType": "address",
          "name": "Certis",
          "type": "address"
        },
        {
          "indexed": false,
          "internalType": "address",
          "name": "PrivateFactory",
          "type": "address"
        },
        {
          "indexed": false,
          "internalType": "address",
          "name": "Private",
          "type": "address"
        },
        {
          "indexed": false,
          "internalType": "address",
          "name": "ProviderFactory",
          "type": "address"
        },
        {
          "indexed": false,
          "internalType": "address",
          "name": "Provider",
          "type": "address"
        },
        {
          "indexed": false,
          "internalType": "address",
          "name": "PriceConverter",
          "type": "address"
        },
        {
          "indexed": false,
          "internalType": "address",
          "name": "PropositionSettings",
          "type": "address"
        }
      ],
      "name": "_NewContracts",
      "type": "event"
    },
    {
      "anonymous": false,
      "inputs": [
        {
          "indexed": false,
          "internalType": "uint256",
          "name": "Id",
          "type": "uint256"
        },
        {
          "indexed": true,
          "internalType": "address",
          "name": "Proposer",
          "type": "address"
        },
        {
          "indexed": false,
          "internalType": "uint256",
          "name": "VotesFor",
          "type": "uint256"
        },
        {
          "indexed": false,
          "internalType": "uint256",
          "name": "VotesAgainst",
          "type": "uint256"
        }
      ],
      "name": "_PropositionApproved",
      "type": "event"
    },
    {
      "anonymous": false,
      "inputs": [
        {
          "indexed": false,
          "internalType": "uint256",
          "name": "Id",
          "type": "uint256"
        },
        {
          "indexed": true,
          "internalType": "address",
          "name": "Proposer",
          "type": "address"
        },
        {
          "indexed": false,
          "internalType": "uint256",
          "name": "VotesFor",
          "type": "uint256"
        },
        {
          "indexed": false,
          "internalType": "uint256",
          "name": "VotesAgainst",
          "type": "uint256"
        }
      ],
      "name": "_PropositionRejected",
      "type": "event"
    },
    {
      "anonymous": false,
      "inputs": [
        {
          "indexed": false,
          "internalType": "uint256",
          "name": "Id",
          "type": "uint256"
        },
        {
          "indexed": true,
          "internalType": "address",
          "name": "Voter",
          "type": "address"
        },
        {
          "indexed": false,
          "internalType": "bool",
          "name": "Vote",
          "type": "bool"
        },
        {
          "indexed": false,
          "internalType": "uint256",
          "name": "AmountTokens",
          "type": "uint256"
        }
      ],
      "name": "_PropositionVote",
      "type": "event"
    },
    {
      "anonymous": false,
      "inputs": [
        {
          "indexed": true,
          "internalType": "uint256",
          "name": "Id",
          "type": "uint256"
        },
        {
          "indexed": false,
          "internalType": "address",
          "name": "From",
          "type": "address"
        },
        {
          "indexed": false,
          "internalType": "address",
          "name": "To",
          "type": "address"
        },
        {
          "indexed": false,
          "internalType": "uint256",
          "name": "Amount",
          "type": "uint256"
        }
      ],
      "name": "_UsedTokensTransfered",
      "type": "event"
    },
    {
      "inputs": [],
      "name": "cancelProposition",
      "outputs": [],
      "stateMutability": "nonpayable",
      "type": "function"
    },
    {
      "inputs": [],
      "name": "isCurrentPropositionProp",
      "outputs": [
        {
          "internalType": "bool",
          "name": "",
          "type": "bool"
        }
      ],
      "stateMutability": "view",
      "type": "function"
    },
    {
      "inputs": [
        {
          "internalType": "address",
          "name": "from",
          "type": "address"
        },
        {
          "internalType": "address",
          "name": "to",
          "type": "address"
        },
        {
          "internalType": "uint256",
          "name": "amount",
          "type": "uint256"
        }
      ],
      "name": "onTokenBalanceChanged",
      "outputs": [],
      "stateMutability": "nonpayable",
      "type": "function"
    },
    {
      "inputs": [],
      "name": "retrieveChairPerson",
      "outputs": [
        {
          "internalType": "address",
          "name": "",
          "type": "address"
        }
      ],
      "stateMutability": "view",
      "type": "function"
    },
    {
      "inputs": [],
      "name": "retrieveContractConfig",
      "outputs": [
        {
          "internalType": "string",
          "name": "",
          "type": "string"
        },
        {
          "internalType": "string",
          "name": "",
          "type": "string"
        }
      ],
      "stateMutability": "view",
      "type": "function"
    },
    {
      "inputs": [],
      "name": "retrieveManagerContract",
      "outputs": [
        {
          "internalType": "address",
          "name": "",
          "type": "address"
        }
      ],
      "stateMutability": "view",
      "type": "function"
    },
    {
      "inputs": [],
      "name": "retrieveNextPropId",
      "outputs": [
        {
          "internalType": "uint256",
          "name": "",
          "type": "uint256"
        }
      ],
      "stateMutability": "view",
      "type": "function"
    },
    {
      "inputs": [
        {
          "internalType": "address",
          "name": "addr",
          "type": "address"
        },
        {
          "internalType": "uint256",
          "name": "nonce",
          "type": "uint256"
        }
      ],
      "name": "retrieveNonce",
      "outputs": [
        {
          "internalType": "bool",
          "name": "",
          "type": "bool"
        }
      ],
      "stateMutability": "view",
      "type": "function"
    },
    {
      "inputs": [],
      "name": "retrievePendingPropConfig",
      "outputs": [
        {
          "internalType": "uint256",
          "name": "",
          "type": "uint256"
        },
        {
          "internalType": "uint8",
          "name": "",
          "type": "uint8"
        },
        {
          "internalType": "uint8",
          "name": "",
          "type": "uint8"
        },
        {
          "internalType": "bool",
          "name": "",
          "type": "bool"
        }
      ],
      "stateMutability": "view",
      "type": "function"
    },
    {
      "inputs": [],
      "name": "retrievePropConfig",
      "outputs": [
        {
          "internalType": "uint256",
          "name": "",
          "type": "uint256"
        },
        {
          "internalType": "uint8",
          "name": "",
          "type": "uint8"
        },
        {
          "internalType": "uint8",
          "name": "",
          "type": "uint8"
        }
      ],
      "stateMutability": "view",
      "type": "function"
    },
    {
      "inputs": [],
      "name": "retrievePropositionStatus",
      "outputs": [
        {
          "internalType": "address",
          "name": "",
          "type": "address"
        },
        {
          "internalType": "uint256",
          "name": "",
          "type": "uint256"
        },
        {
          "internalType": "uint256",
          "name": "",
          "type": "uint256"
        },
        {
          "internalType": "uint256",
          "name": "",
          "type": "uint256"
        },
        {
          "internalType": "uint256",
          "name": "",
          "type": "uint256"
        }
      ],
      "stateMutability": "view",
      "type": "function"
    },
    {
      "inputs": [
        {
          "internalType": "uint256",
          "name": "PropId",
          "type": "uint256"
        },
        {
          "internalType": "address",
          "name": "voter",
          "type": "address"
        }
      ],
      "name": "retrieveVotesForVoter",
      "outputs": [
        {
          "internalType": "uint256",
          "name": "",
          "type": "uint256"
        }
      ],
      "stateMutability": "view",
      "type": "function"
    },
    {
      "inputs": [
        {
          "internalType": "uint256",
          "name": "PropLifeTime",
          "type": "uint256"
        },
        {
          "internalType": "uint8",
          "name": "PropThresholdPerc",
          "type": "uint8"
        },
        {
          "internalType": "uint8",
          "name": "minWeightToPropPerc",
          "type": "uint8"
        }
      ],
      "name": "updateProp",
      "outputs": [],
      "stateMutability": "nonpayable",
      "type": "function"
    },
    {
      "inputs": [
        {
          "internalType": "bool",
          "name": "vote",
          "type": "bool"
        }
      ],
      "name": "voteProposition",
      "outputs": [],
      "stateMutability": "nonpayable",
      "type": "function"
    },
    {
      "inputs": [
        {
          "internalType": "address",
          "name": "voter",
          "type": "address"
        },
        {
          "internalType": "uint256",
          "name": "propID",
          "type": "uint256"
        },
        {
          "internalType": "bool",
          "name": "vote",
          "type": "bool"
        },
        {
          "internalType": "uint256",
          "name": "nonce",
          "type": "uint256"
        },
        {
          "internalType": "uint256",
          "name": "deadline",
          "type": "uint256"
        },
        {
          "internalType": "bytes",
          "name": "signature",
          "type": "bytes"
        }
      ],
      "name": "votePropositionOnBehalfOf",
      "outputs": [],
      "stateMutability": "nonpayable",
      "type": "function"
    },
    {
      "inputs": [
        {
          "components": [
            {
              "internalType": "address",
              "name": "NewPublicPoolAddress",
              "type": "address"
            },
            {
              "internalType": "address",
              "name": "NewTreasuryAddress",
              "type": "address"
            },
            {
              "internalType": "address",
              "name": "NewCertisTokenAddress",
              "type": "address"
            },
            {
              "internalType": "address",
              "name": "NewPrivatePoolFactoryAddress",
              "type": "address"
            },
            {
              "internalType": "address",
              "name": "NewPrivatePoolAddress",
              "type": "address"
            },
            {
              "internalType": "address",
              "name": "NewProviderFactoryAddress",
              "type": "address"
            },
            {
              "internalType": "address",
              "name": "NewProviderAddress",
              "type": "address"
            },
            {
              "internalType": "address",
              "name": "NewPriceConverterAddress",
              "type": "address"
            },
            {
              "internalType": "address",
              "name": "NewPropositionSettingsAddress",
              "type": "address"
            },
            {
              "internalType": "bytes",
              "name": "NewPublicPoolData",
              "type": "bytes"
            },
            {
              "internalType": "bytes",
              "name": "NewTreasuryData",
              "type": "bytes"
            },
            {
              "internalType": "bytes",
              "name": "NewCertisTokenData",
              "type": "bytes"
            },
            {
              "internalType": "bytes",
              "name": "NewPrivatePoolFactoryData",
              "type": "bytes"
            },
            {
              "internalType": "bytes",
              "name": "NewProviderFactoryData",
              "type": "bytes"
            },
            {
              "internalType": "bytes",
              "name": "NewPriceConverterData",
              "type": "bytes"
            },
            {
              "internalType": "bytes",
              "name": "NewPropositionSettingsData",
              "type": "bytes"
            },
            {
              "internalType": "string",
              "name": "NewPrivatePoolContractName",
              "type": "string"
            },
            {
              "internalType": "string",
              "name": "NewPrivatePoolContractVersion",
              "type": "string"
            }
          ],
          "internalType": "struct Library.ProposedContractsStruct",
          "name": "initialContracts",
          "type": "tuple"
        }
      ],
      "name": "InitializeContracts",
      "outputs": [],
      "stateMutability": "nonpayable",
      "type": "function"
    },
    {
      "inputs": [
        {
          "components": [
            {
              "internalType": "address",
              "name": "NewPublicPoolAddress",
              "type": "address"
            },
            {
              "internalType": "address",
              "name": "NewTreasuryAddress",
              "type": "address"
            },
            {
              "internalType": "address",
              "name": "NewCertisTokenAddress",
              "type": "address"
            },
            {
              "internalType": "address",
              "name": "NewPrivatePoolFactoryAddress",
              "type": "address"
            },
            {
              "internalType": "address",
              "name": "NewPrivatePoolAddress",
              "type": "address"
            },
            {
              "internalType": "address",
              "name": "NewProviderFactoryAddress",
              "type": "address"
            },
            {
              "internalType": "address",
              "name": "NewProviderAddress",
              "type": "address"
            },
            {
              "internalType": "address",
              "name": "NewPriceConverterAddress",
              "type": "address"
            },
            {
              "internalType": "address",
              "name": "NewPropositionSettingsAddress",
              "type": "address"
            },
            {
              "internalType": "bytes",
              "name": "NewPublicPoolData",
              "type": "bytes"
            },
            {
              "internalType": "bytes",
              "name": "NewTreasuryData",
              "type": "bytes"
            },
            {
              "internalType": "bytes",
              "name": "NewCertisTokenData",
              "type": "bytes"
            },
            {
              "internalType": "bytes",
              "name": "NewPrivatePoolFactoryData",
              "type": "bytes"
            },
            {
              "internalType": "bytes",
              "name": "NewProviderFactoryData",
              "type": "bytes"
            },
            {
              "internalType": "bytes",
              "name": "NewPriceConverterData",
              "type": "bytes"
            },
            {
              "internalType": "bytes",
              "name": "NewPropositionSettingsData",
              "type": "bytes"
            },
            {
              "internalType": "string",
              "name": "NewPrivatePoolContractName",
              "type": "string"
            },
            {
              "internalType": "string",
              "name": "NewPrivatePoolContractVersion",
              "type": "string"
            }
          ],
          "internalType": "struct Library.ProposedContractsStruct",
          "name": "UpgradeProposition",
          "type": "tuple"
        }
      ],
      "name": "upgradeContracts",
      "outputs": [],
      "stateMutability": "nonpayable",
      "type": "function"
    },
    {
      "inputs": [],
      "name": "retrieveProposition",
      "outputs": [
        {
          "internalType": "bytes32[]",
          "name": "",
          "type": "bytes32[]"
        }
      ],
      "stateMutability": "view",
      "type": "function"
    },
    {
      "inputs": [],
      "name": "retrievePublicCertificatePoolProxy",
      "outputs": [
        {
          "internalType": "address",
          "name": "",
          "type": "address"
        }
      ],
      "stateMutability": "view",
      "type": "function"
    },
    {
      "inputs": [],
      "name": "retrieveTreasuryProxy",
      "outputs": [
        {
          "internalType": "address",
          "name": "",
          "type": "address"
        }
      ],
      "stateMutability": "view",
      "type": "function"
    },
    {
      "inputs": [],
      "name": "retrieveCertisTokenProxy",
      "outputs": [
        {
          "internalType": "address",
          "name": "",
          "type": "address"
        }
      ],
      "stateMutability": "view",
      "type": "function"
    },
    {
      "inputs": [],
      "name": "retrievePrivatePoolFactoryProxy",
      "outputs": [
        {
          "internalType": "address",
          "name": "",
          "type": "address"
        }
      ],
      "stateMutability": "view",
      "type": "function"
    },
    {
      "inputs": [],
      "name": "retrievePrivatePoolBeacon",
      "outputs": [
        {
          "internalType": "address",
          "name": "",
          "type": "address"
        }
      ],
      "stateMutability": "view",
      "type": "function"
    },
    {
      "inputs": [],
      "name": "retrieveProviderFactoryProxy",
      "outputs": [
        {
          "internalType": "address",
          "name": "",
          "type": "address"
        }
      ],
      "stateMutability": "view",
      "type": "function"
    },
    {
      "inputs": [],
      "name": "retrieveProviderBeacon",
      "outputs": [
        {
          "internalType": "address",
          "name": "",
          "type": "address"
        }
      ],
      "stateMutability": "view",
      "type": "function"
    },
    {
      "inputs": [],
      "name": "retrievePriceConverterProxy",
      "outputs": [
        {
          "internalType": "address",
          "name": "",
          "type": "address"
        }
      ],
      "stateMutability": "view",
      "type": "function"
    },
    {
      "inputs": [],
      "name": "retrievePropositionSettingsProxy",
      "outputs": [
        {
          "internalType": "address",
          "name": "",
          "type": "address"
        }
      ],
      "stateMutability": "view",
      "type": "function"
    },
    {
      "inputs": [],
      "name": "retrievePublicCertificatePool",
      "outputs": [
        {
          "internalType": "address",
          "name": "",
          "type": "address"
        }
      ],
      "stateMutability": "view",
      "type": "function"
    },
    {
      "inputs": [],
      "name": "retrieveTreasury",
      "outputs": [
        {
          "internalType": "address",
          "name": "",
          "type": "address"
        }
      ],
      "stateMutability": "view",
      "type": "function"
    },
    {
      "inputs": [],
      "name": "retrieveCertisToken",
      "outputs": [
        {
          "internalType": "address",
          "name": "",
          "type": "address"
        }
      ],
      "stateMutability": "view",
      "type": "function"
    },
    {
      "inputs": [],
      "name": "retrievePrivatePoolFactory",
      "outputs": [
        {
          "internalType": "address",
          "name": "",
          "type": "address"
        }
      ],
      "stateMutability": "view",
      "type": "function"
    },
    {
      "inputs": [],
      "name": "retrievePrivatePool",
      "outputs": [
        {
          "internalType": "address",
          "name": "",
          "type": "address"
        }
      ],
      "stateMutability": "view",
      "type": "function"
    },
    {
      "inputs": [],
      "name": "retrieveProviderFactory",
      "outputs": [
        {
          "internalType": "address",
          "name": "",
          "type": "address"
        }
      ],
      "stateMutability": "view",
      "type": "function"
    },
    {
      "inputs": [],
      "name": "retrieveProvider",
      "outputs": [
        {
          "internalType": "address",
          "name": "",
          "type": "address"
        }
      ],
      "stateMutability": "view",
      "type": "function"
    },
    {
      "inputs": [],
      "name": "retrievePriceConverter",
      "outputs": [
        {
          "internalType": "address",
          "name": "",
          "type": "address"
        }
      ],
      "stateMutability": "view",
      "type": "function"
    },
    {
      "inputs": [],
      "name": "retrievePropositionSettings",
      "outputs": [
        {
          "internalType": "address",
          "name": "",
          "type": "address"
        }
      ],
      "stateMutability": "view",
      "type": "function"
    },
    {
      "inputs": [],
      "name": "isInitialized",
      "outputs": [
        {
          "internalType": "bool",
          "name": "",
          "type": "bool"
        }
      ],
      "stateMutability": "view",
      "type": "function"
    }
  ],
  "bytecode": "0x60806040523480156200001157600080fd5b506040516200611938038062006119833981016040819052620000349162000a8f565b6200005085858533308787620000b560201b6200118c1760201c565b6040516200005e9062000887565b604051809103906000f0801580156200007b573d6000803e3d6000fd5b50601180546001600160a01b0319166001600160a01b03929092169190911790555050602c805460ff60a01b191690555062000c7d915050565b600354610100900460ff1680620000cf575060035460ff16155b620000f75760405162461bcd60e51b8152600401620000ee9062000b48565b60405180910390fd5b600354610100900460ff161580156200011a576003805461ffff19166101011790555b62000130846200018860201b6200124b1760201c565b600480546001600160a01b0319166001600160a01b0387161790556000600b556200015c83836200021d565b6200016b88888860016200024d565b80156200017e576003805461ff00191690555b5050505050505050565b600354610100900460ff1680620001a2575060035460ff16155b620001c15760405162461bcd60e51b8152600401620000ee9062000b48565b600354610100900460ff16158015620001e4576003805461ffff19166101011790555b6003805462010000600160b01b031916620100006001600160a01b03851602179055801562000219576003805461ff00191690555b5050565b81516200023290600090602085019062000895565b5080516200024890600190602084019062000895565b505050565b82828160ff1660641015620002765760405162461bcd60e51b8152600401620000ee9062000b29565b8060ff16606410156200029d5760405162461bcd60e51b8152600401620000ee9062000b29565b8215620002ca57600d869055600e805460ff8681166101000261ffff199092169088161717905562000305565b600f8690556010805460ff8681166101000261ffff1990921690881617179055600e805462ff0000191662010000179055620003056200030d565b505050505050565b60006200031a816200048e565b60045433906000906001600160a01b03168214156200033c5750600162000389565b600062000349836200051e565b90506064620003576200062f565b600e546200036e9190610100900460ff1662000bd4565b6200037a919062000bb1565b8111156200038757600191505b505b600181151514620003c55760405162461bcd60e51b8152602060048201526005602482015264454332322d60d81b6044820152606401620000ee565b600680546001600160a01b03191633179055600d54620003e6904262000b96565b600755600e5460649060ff16620003fc6200062f565b62000408919062000bd4565b62000414919062000bb1565b600855600b805460058190559060006200042e8362000c33565b909155505060065460055460075460085460408051938452602084019290925282820152516001600160a01b03909216917f472501d19bf75639b2e316cd36f8568b0c3ab943b82a87de3c086c98c1929df99181900360600190a2505050565b8015620004dd576200049f62000734565b1515600114620004da5760405162461bcd60e51b8152602060048201526005602482015264454332352d60d81b6044820152606401620000ee565b50565b620004e762000734565b15620004da5760405162461bcd60e51b8152602060048201526005602482015264454332342d60d81b6044820152606401620000ee565b6000600360029054906101000a90046001600160a01b03166001600160a01b031663da3dce266040518163ffffffff1660e01b815260040160206040518083038186803b1580156200056f57600080fd5b505afa15801562000584573d6000803e3d6000fd5b505050506040513d601f19601f82011682018060405250810190620005aa919062000a43565b6040516370a0823160e01b81526001600160a01b03848116600483015291909116906370a082319060240160206040518083038186803b158015620005ee57600080fd5b505afa15801562000603573d6000803e3d6000fd5b505050506040513d601f19601f8201168201806040525081019062000629919062000a75565b92915050565b6000600360029054906101000a90046001600160a01b03166001600160a01b031663da3dce266040518163ffffffff1660e01b815260040160206040518083038186803b1580156200068057600080fd5b505afa15801562000695573d6000803e3d6000fd5b505050506040513d601f19601f82011682018060405250810190620006bb919062000a43565b6001600160a01b03166318160ddd6040518163ffffffff1660e01b815260040160206040518083038186803b158015620006f457600080fd5b505afa15801562000709573d6000803e3d6000fd5b505050506040513d601f19601f820116820180604052508101906200072f919062000a75565b905090565b600754600090421015620007485750600190565b6006546001600160a01b03161562000793576200076462000799565b6200079360006005819055600680546001600160a01b0319169055600781905560088190556009819055600a55565b50600090565b620007a3620007a5565b565b601280546001600160a01b031990811682556013805482169055601480548216905560158054821690556016805482169055601780548216905560188054821690556019805482169055601a80549091169055600062000807601b8262000924565b62000817600a8301600062000924565b62000827600b8301600062000924565b62000837600c8301600062000924565b62000847600d8301600062000924565b62000857600e8301600062000924565b62000867600f8301600062000924565b6200087760108301600062000924565b6200021960118301600062000924565b6107bd806200595c83390190565b828054620008a39062000bf6565b90600052602060002090601f016020900481019282620008c7576000855562000912565b82601f10620008e257805160ff191683800117855562000912565b8280016001018555821562000912579182015b8281111562000912578251825591602001919060010190620008f5565b50620009209291506200095e565b5090565b508054620009329062000bf6565b6000825580601f1062000943575050565b601f016020900490600052602060002090810190620004da91905b5b808211156200092057600081556001016200095f565b600082601f8301126200098757600080fd5b81516001600160401b0380821115620009a457620009a462000c67565b604051601f8301601f19908116603f01168101908282118183101715620009cf57620009cf62000c67565b81604052838152602092508683858801011115620009ec57600080fd5b600091505b8382101562000a105785820183015181830184015290820190620009f1565b8382111562000a225760008385830101525b9695505050505050565b805160ff8116811462000a3e57600080fd5b919050565b60006020828403121562000a5657600080fd5b81516001600160a01b038116811462000a6e57600080fd5b9392505050565b60006020828403121562000a8857600080fd5b5051919050565b600080600080600060a0868803121562000aa857600080fd5b8551945062000aba6020870162000a2c565b935062000aca6040870162000a2c565b60608701519093506001600160401b038082111562000ae857600080fd5b62000af689838a0162000975565b9350608088015191508082111562000b0d57600080fd5b5062000b1c8882890162000975565b9150509295509295909350565b602080825260059082015264454332312d60d81b604082015260600190565b6020808252602e908201527f496e697469616c697a61626c653a20636f6e747261637420697320616c72656160408201526d191e481a5b9a5d1a585b1a5e995960921b606082015260800190565b6000821982111562000bac5762000bac62000c51565b500190565b60008262000bcf57634e487b7160e01b600052601260045260246000fd5b500490565b600081600019048311821515161562000bf15762000bf162000c51565b500290565b600181811c9082168062000c0b57607f821691505b6020821081141562000c2d57634e487b7160e01b600052602260045260246000fd5b50919050565b600060001982141562000c4a5762000c4a62000c51565b5060010190565b634e487b7160e01b600052601160045260246000fd5b634e487b7160e01b600052604160045260246000fd5b614ccf8062000c8d6000396000f3fe60806040523480156200001157600080fd5b5060043610620001de5760003560e01c8063029b967314620001e357806304cc67a9146200020557806322d929e11462000218578063392e53cd14620002225780633c65d42714620002415780633c7df55d14620002535780633feca4ca146200026c5780634044adb214620002a857806348a9ddfe14620002e15780634a829c9614620002eb5780634b19aa16146200030257806355457ee9146200030c5780635773bc2314620003165780635a3794e914620003285780635b362e84146200033a5780636025541514620003525780636771717714620003645780637c2f3aaf146200036e5780637faa3d6f1462000380578063840f6d17146200039757806387552a0d14620003d957806390d138ed14620003eb57806391f916711462000422578063a42e13391462000439578063a93316f51462000443578063aa33380a146200045c578063ac2bb442146200046e578063bc3be0961462000485578063c50ec82b1462000497578063d2116a0214620004a1578063d660ab3414620004bb578063da3dce2614620004e8578063db85bc4d14620004fa578063e276f0b4146200050c578063ee2aa36a1462000523578063efd15d17146200052d578063f5ad9acc1462000537575b600080fd5b620001ed62000549565b604051620001fc919062003112565b60405180910390f35b600b545b604051908152602001620001fc565b620001ed62000568565b602c54600160a01b900460ff165b6040519015158152602001620001fc565b6024546001600160a01b0316620001ed565b6200026a6200026436600462002d9a565b62000582565b005b620002306200027d36600462002de0565b6001600160a01b03919091166000908152600260209081526040808320938352929052205460ff1690565b62000209620002b936600462002fa6565b6000918252600c602090815260408084206001600160a01b0393909316845291905290205490565b620001ed6200068c565b6200026a620002fc36600462002f68565b620006a6565b620001ed6200078b565b6200026a62000797565b6026546001600160a01b0316620001ed565b6029546001600160a01b0316620001ed565b6003546201000090046001600160a01b0316620001ed565b602b546001600160a01b0316620001ed565b620001ed62000871565b6025546001600160a01b0316620001ed565b6200026a6200039136600462002e0f565b6200088b565b600654600754600854600954600a54604080516001600160a01b0390961686526020860194909452928401919091526060830152608082015260a001620001fc565b602c546001600160a01b0316620001ed565b620003f5620008af565b604051620001fc949392919093845260ff9283166020850152911660408301521515606082015260800190565b6200026a6200043336600462002f0e565b6200090d565b620001ed6200091c565b6200044d62000936565b604051620001fc9190620031f2565b6028546001600160a01b0316620001ed565b6200026a6200047f36600462002fd9565b62000fe5565b600e5462010000900460ff1662000230565b620001ed62000ff9565b620004ab62001005565b604051620001fc9291906200328d565b600d54600e546040805192835260ff808316602085015261010090920490911690820152606001620001fc565b602a546001600160a01b0316620001ed565b6004546001600160a01b0316620001ed565b6200026a6200051d36600462002f68565b6200113c565b620001ed62001158565b620001ed62001172565b6027546001600160a01b0316620001ed565b602a5460009062000563906001600160a01b0316620012e0565b905090565b60265460009062000563906001600160a01b0316620012e0565b3373__Library_______________________________6337ea306382600360029054906101000a90046001600160a01b03166001600160a01b031663da3dce266040518163ffffffff1660e01b815260040160206040518083038186803b158015620005ed57600080fd5b505afa15801562000602573d6000803e3d6000fd5b505050506040513d601f19601f8201168201806040525081019062000628919062002d7a565b6040518363ffffffff1660e01b81526004016200064792919062003126565b60006040518083038186803b1580156200066057600080fd5b505af415801562000675573d6000803e3d6000fd5b50505050620006868484846200136d565b50505050565b602c5460009062000563906001600160a01b0316620012e0565b600480546040516337ea306360e01b8152339273__Library_______________________________926337ea306392620006ed9286926001600160a01b0316910162003126565b60006040518083038186803b1580156200070657600080fd5b505af41580156200071b573d6000803e3d6000fd5b5050602c54600160a01b900460ff161591506200076990505760405162461bcd60e51b8152602060048201526005602482015264454332362d60d81b60448201526064015b60405180910390fd5b62000774826200138f565b5050602c805460ff60a01b1916600160a01b179055565b60006200056362001903565b6001620007a48162001984565b6006546040516337ea306360e01b8152339173__Library_______________________________916337ea306391620007ec9185916001600160a01b03169060040162003126565b60006040518083038186803b1580156200080557600080fd5b505af41580156200081a573d6000803e3d6000fd5b505050506200082862001a11565b6006546005546040519081526001600160a01b03909116907f1fe8aec10c0a50fa765076161e08c1f961ced69594ff45cf7d559f593afe14799060200160405180910390a25050565b60245460009062000563906001600160a01b0316620012e0565b6200089b86868686868662001a3c565b620008a7868562001baa565b505050505050565b600080600080600e60029054906101000a900460ff168015620008d3575060075442105b15620008fa575050600f5460105490925060ff808216925061010090910416600162000907565b5060009250829150819050805b90919293565b62000919338262001baa565b50565b60285460009062000563906001600160a01b0316620012e0565b6040805160098082526101408201909252606091600091906020820161012080368337505060125460405163bc215e8560e01b815292935073__AddressLibrary________________________9263bc215e859250620009a3916001600160a01b03169060040162003112565b60206040518083038186803b158015620009bc57600080fd5b505af4158015620009d1573d6000803e3d6000fd5b505050506040513d601f19601f82011682018060405250810190620009f7919062002f4e565b8160008151811062000a0d5762000a0d6200359f565b602090810291909101015260135460405163bc215e8560e01b815273__AddressLibrary________________________9163bc215e859162000a5c916001600160a01b03169060040162003112565b60206040518083038186803b15801562000a7557600080fd5b505af415801562000a8a573d6000803e3d6000fd5b505050506040513d601f19601f8201168201806040525081019062000ab0919062002f4e565b8160018151811062000ac65762000ac66200359f565b602090810291909101015260145460405163bc215e8560e01b815273__AddressLibrary________________________9163bc215e859162000b15916001600160a01b03169060040162003112565b60206040518083038186803b15801562000b2e57600080fd5b505af415801562000b43573d6000803e3d6000fd5b505050506040513d601f19601f8201168201806040525081019062000b69919062002f4e565b8160028151811062000b7f5762000b7f6200359f565b602090810291909101015260155460405163bc215e8560e01b815273__AddressLibrary________________________9163bc215e859162000bce916001600160a01b03169060040162003112565b60206040518083038186803b15801562000be757600080fd5b505af415801562000bfc573d6000803e3d6000fd5b505050506040513d601f19601f8201168201806040525081019062000c22919062002f4e565b8160038151811062000c385762000c386200359f565b602090810291909101015260165460405163bc215e8560e01b815273__AddressLibrary________________________9163bc215e859162000c87916001600160a01b03169060040162003112565b60206040518083038186803b15801562000ca057600080fd5b505af415801562000cb5573d6000803e3d6000fd5b505050506040513d601f19601f8201168201806040525081019062000cdb919062002f4e565b8160048151811062000cf15762000cf16200359f565b602090810291909101015260175460405163bc215e8560e01b815273__AddressLibrary________________________9163bc215e859162000d40916001600160a01b03169060040162003112565b60206040518083038186803b15801562000d5957600080fd5b505af415801562000d6e573d6000803e3d6000fd5b505050506040513d601f19601f8201168201806040525081019062000d94919062002f4e565b8160058151811062000daa5762000daa6200359f565b602090810291909101015260185460405163bc215e8560e01b815273__AddressLibrary________________________9163bc215e859162000df9916001600160a01b03169060040162003112565b60206040518083038186803b15801562000e1257600080fd5b505af415801562000e27573d6000803e3d6000fd5b505050506040513d601f19601f8201168201806040525081019062000e4d919062002f4e565b8160068151811062000e635762000e636200359f565b602090810291909101015260195460405163bc215e8560e01b815273__AddressLibrary________________________9163bc215e859162000eb2916001600160a01b03169060040162003112565b60206040518083038186803b15801562000ecb57600080fd5b505af415801562000ee0573d6000803e3d6000fd5b505050506040513d601f19601f8201168201806040525081019062000f06919062002f4e565b8160078151811062000f1c5762000f1c6200359f565b6020908102919091010152601a5460405163bc215e8560e01b815273__AddressLibrary________________________9163bc215e859162000f6b916001600160a01b03169060040162003112565b60206040518083038186803b15801562000f8457600080fd5b505af415801562000f99573d6000803e3d6000fd5b505050506040513d601f19601f8201168201806040525081019062000fbf919062002f4e565b8160088151811062000fd55762000fd56200359f565b6020908102919091010152919050565b62000ff4838383600062001cd3565b505050565b60006200056362001d8b565b606080600060018180546200101a906200352e565b80601f016020809104026020016040519081016040528092919081815260200182805462001048906200352e565b8015620010995780601f106200106d5761010080835404028352916020019162001099565b820191906000526020600020905b8154815290600101906020018083116200107b57829003601f168201915b50505050509150808054620010ae906200352e565b80601f0160208091040260200160405190810160405280929190818152602001828054620010dc906200352e565b80156200112d5780601f1062001101576101008083540402835291602001916200112d565b820191906000526020600020905b8154815290600101906020018083116200110f57829003601f168201915b50505050509050915091509091565b8060126200114b8282620035fa565b9050506200091962001dd1565b602b5460009062000563906001600160a01b0316620012e0565b60295460009062000563906001600160a01b0316620012e0565b600354610100900460ff1680620011a6575060035460ff16155b620011c55760405162461bcd60e51b81526004016200076090620032ea565b600354610100900460ff16158015620011e8576003805461ffff19166101011790555b620011f3846200124b565b600480546001600160a01b0319166001600160a01b0387161790556000600b556200121f838362001f50565b6200122e888888600162001cd3565b801562001241576003805461ff00191690555b5050505050505050565b600354610100900460ff168062001265575060035460ff16155b620012845760405162461bcd60e51b81526004016200076090620032ea565b600354610100900460ff16158015620012a7576003805461ffff19166101011790555b6003805462010000600160b01b031916620100006001600160a01b038516021790558015620012dc576003805461ff00191690555b5050565b6011546040516310270e3d60e11b81526000916001600160a01b03169063204e1c7a906200131390859060040162003112565b60206040518083038186803b1580156200132c57600080fd5b505afa15801562001341573d6000803e3d6000fd5b505050506040513d601f19601f8201168201806040525081019062001367919062002d7a565b92915050565b6200137762001f7b565b15156001141562000ff45762000ff483838362001fbb565b6200139e602082018262002d5a565b6011546001600160a01b0316620013ba6101208401846200334e565b604051620013c89062002c47565b620013d7949392919062003140565b604051809103906000f080158015620013f4573d6000803e3d6000fd5b50602880546001600160a01b0319166001600160a01b039290921691909117905562001427604082016020830162002d5a565b6011546001600160a01b0316620014436101408401846200334e565b604051620014519062002c47565b62001460949392919062003140565b604051809103906000f0801580156200147d573d6000803e3d6000fd5b50602980546001600160a01b0319166001600160a01b0392909216919091179055620014b0606082016040830162002d5a565b6011546001600160a01b0316620014cc6101608401846200334e565b604051620014da9062002c47565b620014e9949392919062003140565b604051809103906000f08015801562001506573d6000803e3d6000fd5b50602a80546001600160a01b0319166001600160a01b039290921691909117905562001539608082016060830162002d5a565b6011546001600160a01b0316620015556101808401846200334e565b604051620015639062002c47565b62001572949392919062003140565b604051809103906000f0801580156200158f573d6000803e3d6000fd5b50602480546001600160a01b0319166001600160a01b0392909216919091179055620015c260a082016080830162002d5a565b604051620015d09062002c55565b620015dc919062003112565b604051809103906000f080158015620015f9573d6000803e3d6000fd5b50602580546001600160a01b0319166001600160a01b03929092169190911790556200162c60c0820160a0830162002d5a565b6011546001600160a01b0316620016486101a08401846200334e565b604051620016569062002c47565b62001665949392919062003140565b604051809103906000f08015801562001682573d6000803e3d6000fd5b50602680546001600160a01b0319166001600160a01b0392909216919091179055620016b560e0820160c0830162002d5a565b604051620016c39062002c55565b620016cf919062003112565b604051809103906000f080158015620016ec573d6000803e3d6000fd5b50602780546001600160a01b0319166001600160a01b039290921691909117905562001720610100820160e0830162002d5a565b6011546001600160a01b03166200173c6101c08401846200334e565b6040516200174a9062002c47565b62001759949392919062003140565b604051809103906000f08015801562001776573d6000803e3d6000fd5b50602b80546001600160a01b0319166001600160a01b0392909216919091179055620017ab6101208201610100830162002d5a565b6011546001600160a01b0316620017c76101e08401846200334e565b604051620017d59062002c47565b620017e4949392919062003140565b604051809103906000f08015801562001801573d6000803e3d6000fd5b50602c80546001600160a01b0319166001600160a01b039283161790556024541663ce50ac76620018376102008401846200334e565b6040518363ffffffff1660e01b8152600401620018569291906200326f565b600060405180830381600087803b1580156200187157600080fd5b505af115801562001886573d6000803e3d6000fd5b50506024546001600160a01b03169150631dd5862c9050620018ad6102208401846200334e565b6040518363ffffffff1660e01b8152600401620018cc9291906200326f565b600060405180830381600087803b158015620018e757600080fd5b505af1158015620018fc573d6000803e3d6000fd5b5050505050565b60275460408051635c60da1b60e01b815290516000926001600160a01b031691635c60da1b916004808301926020929190829003018186803b1580156200194957600080fd5b505afa1580156200195e573d6000803e3d6000fd5b505050506040513d601f19601f8201168201806040525081019062000563919062002d7a565b8015620019d0576200199562001f7b565b1515600114620009195760405162461bcd60e51b8152602060048201526005602482015264454332352d60d81b604482015260640162000760565b620019da62001f7b565b15620009195760405162461bcd60e51b8152602060048201526005602482015264454332342d60d81b604482015260640162000760565b60006005819055600680546001600160a01b0319169055600781905560088190556009819055600a55565b8162001a488162002133565b868462001a5682826200216c565b600554881462001a915760405162461bcd60e51b8152602060048201526005602482015264454333352d60d81b604482015260640162000760565b60405163432f9a5560e01b815273__SignatureLibrary______________________9063432f9a559062001ada908c908c908c908c908c908c9060009060019060040162003179565b60206040518083038186803b15801562001af357600080fd5b505af415801562001b08573d6000803e3d6000fd5b505050506040513d601f19601f8201168201806040525081019062001b2e919062002f2e565b151560011462001b695760405162461bcd60e51b8152602060048201526005602482015264454333322d60d81b604482015260640162000760565b62001b9f89876001600160a01b03909116600090815260026020908152604080832093835292905220805460ff19166001179055565b505050505050505050565b600162001bb78162001984565b6005548390600062001bca8383620021ca565b90506000811162001c065760405162461bcd60e51b8152602060048201526005602482015264454332332d60d81b604482015260640162000760565b600062001c1987600560000154620021ca565b9050851562001c4557806005600401600082825462001c3991906200339e565b9091555062001c619050565b8060058001600082825462001c5b91906200339e565b90915550505b60055462001c719088836200220b565b60055460408051918252871515602083015281018290526001600160a01b038816907f50f654d58981575c05e369cb129aeacb01e1b036af429380242cfc5d1a4b743f9060600160405180910390a262001cca62002249565b50505050505050565b82828160ff166064101562001cfc5760405162461bcd60e51b81526004016200076090620032cb565b8060ff166064101562001d235760405162461bcd60e51b81526004016200076090620032cb565b821562001d5057600d869055600e805460ff8681166101000261ffff1990921690881617179055620008a7565b600f8690556010805460ff8681166101000261ffff1990921690881617179055600e805462ff0000191662010000179055620008a762001dd1565b60255460408051635c60da1b60e01b815290516000926001600160a01b031691635c60da1b916004808301926020929190829003018186803b1580156200194957600080fd5b600062001dde8162001984565b60045433906000906001600160a01b031682141562001e005750600162001e4d565b600062001e0d836200239f565b9050606462001e1b620024ac565b600e5462001e329190610100900460ff16620033dc565b62001e3e9190620033b9565b81111562001e4b57600191505b505b60018115151462001e895760405162461bcd60e51b8152602060048201526005602482015264454332322d60d81b604482015260640162000760565b600680546001600160a01b03191633179055600d5462001eaa90426200339e565b600755600e5460649060ff1662001ec0620024ac565b62001ecc9190620033dc565b62001ed89190620033b9565b600855600b8054600581905590600062001ef2836200356b565b90915550506006546005546007546008546040516001600160a01b03909416937f472501d19bf75639b2e316cd36f8568b0c3ab943b82a87de3c086c98c1929df99362001f43939092909162003338565b60405180910390a2505050565b815162001f6590600090602085019062002c63565b50805162000ff490600190602084019062002c63565b60075460009042101562001f8f5750600190565b6006546001600160a01b03161562001fb55762001fab620025ac565b62001fb562001a11565b50600090565b6001600160a01b0383161580159062001ff857506005546000908152600c602090815260408083206001600160a01b038716845290915290205415155b1562000ff4576005546000908152600c602090815260408083206001600160a01b038716845290915290205481908111156200205657506005546000908152600c602090815260408083206001600160a01b03871684529091529020545b6005546000908152600c602090815260408083206001600160a01b0388168452909152812080548392906200208d908490620033fe565b90915550506001600160a01b03831615620020df576005546000908152600c602090815260408083206001600160a01b038716845290915281208054839290620020d99084906200339e565b90915550505b600554604080516001600160a01b038088168252861660208201529081018390527f65fbd5e5dd32bea4aeca85bd0be0abf0e489d655dee888a7510d43b06dda2dba9060600160405180910390a250505050565b804210620009195760405162461bcd60e51b8152602060048201526005602482015264454333332d60d81b604482015260640162000760565b6001600160a01b038216600090815260026020908152604080832084845290915290205460ff1615620012dc5760405162461bcd60e51b8152602060048201526005602482015264454333342d60d81b604482015260640162000760565b6000818152600c602090815260408083206001600160a01b0386168452909152812054620021f8846200239f565b620022049190620033fe565b9392505050565b6000838152600c602090815260408083206001600160a01b0386168452909152812080548392906200223f9084906200339e565b9091555050505050565b600854600954106200230f57600e5462010000900460ff1615620022a557600f54600d55601054600e805461010080840460ff90811690910261ffff199092169316929092179190911790556200229f620025b6565b620022af565b620022af620025d4565b620022b962001a11565b600654600554600954600a546040516001600160a01b03909416937f23ca0034cf5aad32571b4a492e9598ea8a490e1643a60970e3cdc6933b55e49f9362002305939092909162003338565b60405180910390a2565b600854600a54106200239d57600e5462010000900460ff16156200233d5762002337620025b6565b62002347565b62002347620025ac565b6200235162001a11565b600654600554600954600a546040516001600160a01b03909416937fa58eb6daa3c62c3f883973c4035e5bd3e81aa627c8379de068a7de42df122be29362002305939092909162003338565b565b6000600360029054906101000a90046001600160a01b03166001600160a01b031663da3dce266040518163ffffffff1660e01b815260040160206040518083038186803b158015620023f057600080fd5b505afa15801562002405573d6000803e3d6000fd5b505050506040513d601f19601f820116820180604052508101906200242b919062002d7a565b6001600160a01b03166370a08231836040518263ffffffff1660e01b815260040162002458919062003112565b60206040518083038186803b1580156200247157600080fd5b505afa15801562002486573d6000803e3d6000fd5b505050506040513d601f19601f8201168201806040525081019062001367919062002f4e565b6000600360029054906101000a90046001600160a01b03166001600160a01b031663da3dce266040518163ffffffff1660e01b815260040160206040518083038186803b158015620024fd57600080fd5b505afa15801562002512573d6000803e3d6000fd5b505050506040513d601f19601f8201168201806040525081019062002538919062002d7a565b6001600160a01b03166318160ddd6040518163ffffffff1660e01b815260040160206040518083038186803b1580156200257157600080fd5b505afa15801562002586573d6000803e3d6000fd5b505050506040513d601f19601f8201168201806040525081019062000563919062002f4e565b6200239d620025de565b6000600f556010805461ffff19169055600e805462ff000019169055565b620025ac620026c0565b601280546001600160a01b031990811682556013805482169055601480548216905560158054821690556016805482169055601780548216905560188054821690556019805482169055601a80549091169055600062002640601b8262002cf2565b62002650600a8301600062002cf2565b62002660600b8301600062002cf2565b62002670600c8301600062002cf2565b62002680600d8301600062002cf2565b62002690600e8301600062002cf2565b620026a0600f8301600062002cf2565b620026b060108301600062002cf2565b620012dc60118301600062002cf2565b602854601254601b805462002773936001600160a01b0390811693169190620026e9906200352e565b80601f016020809104026020016040519081016040528092919081815260200182805462002717906200352e565b8015620027685780601f106200273c5761010080835404028352916020019162002768565b820191906000526020600020905b8154815290600101906020018083116200274a57829003601f168201915b505050505062002b95565b602954601354601c80546200279c936001600160a01b0390811693169190620026e9906200352e565b602a54601454601d8054620027c5936001600160a01b0390811693169190620026e9906200352e565b602454601554601e8054620027ee936001600160a01b0390811693169190620026e9906200352e565b602654601754601f805462002817936001600160a01b0390811693169190620026e9906200352e565b602b546019546020805462002840936001600160a01b0390811693169190620026e9906200352e565b602c54601a546021805462002869936001600160a01b0390811693169190620026e9906200352e565b6016546001600160a01b031615620028e657602554601654604051631b2ce7f360e11b81526001600160a01b0392831692633659cfe692620028b19291169060040162003112565b600060405180830381600087803b158015620028cc57600080fd5b505af1158015620028e1573d6000803e3d6000fd5b505050505b6018546001600160a01b0316156200296357602754601854604051631b2ce7f360e11b81526001600160a01b0392831692633659cfe6926200292e9291169060040162003112565b600060405180830381600087803b1580156200294957600080fd5b505af11580156200295e573d6000803e3d6000fd5b505050505b6022805462002972906200352e565b159050620029e257602454604051636728563b60e11b81526001600160a01b039091169063ce50ac7690620029ad90602290600401620032b6565b600060405180830381600087803b158015620029c857600080fd5b505af1158015620029dd573d6000803e3d6000fd5b505050505b60238054620029f1906200352e565b15905062002a6157602454604051630775618b60e21b81526001600160a01b0390911690631dd5862c9062002a2c90602390600401620032b6565b600060405180830381600087803b15801562002a4757600080fd5b505af115801562002a5c573d6000803e3d6000fd5b505050505b6028547fafd9566c86d9050f288aa057a7b6746ade34728e0300372b14c177d92894b8239062002a9a906001600160a01b0316620012e0565b60295462002ab1906001600160a01b0316620012e0565b602a5462002ac8906001600160a01b0316620012e0565b60245462002adf906001600160a01b0316620012e0565b62002ae962001d8b565b60265462002b00906001600160a01b0316620012e0565b62002b0a62001903565b602b5462002b21906001600160a01b0316620012e0565b602c5462002b38906001600160a01b0316620012e0565b604080516001600160a01b039a8b168152988a1660208a0152968916888801529488166060880152928716608087015290861660a0860152851660c0850152841660e08401529092166101008201529051908190036101200190a1565b6001600160a01b0382161562000ff45780511562002c1357601154604051639623609d60e01b81526001600160a01b0390911690639623609d9062002be39086908690869060040162003238565b600060405180830381600087803b15801562002bfe57600080fd5b505af115801562001cca573d6000803e3d6000fd5b60115460405163266a23b160e21b81526001600160a01b03909116906399a88ec49062002be3908690869060040162003126565b610f30806200384783390190565b610523806200477783390190565b82805462002c71906200352e565b90600052602060002090601f01602090048101928262002c95576000855562002ce0565b82601f1062002cb057805160ff191683800117855562002ce0565b8280016001018555821562002ce0579182015b8281111562002ce057825182559160200191906001019062002cc3565b5062002cee92915062002d2c565b5090565b50805462002d00906200352e565b6000825580601f1062002d11575050565b601f0160209004906000526020600020908101906200091991905b5b8082111562002cee576000815560010162002d2d565b803560ff8116811462002d5557600080fd5b919050565b60006020828403121562002d6d57600080fd5b8135620022048162003821565b60006020828403121562002d8d57600080fd5b8151620022048162003821565b60008060006060848603121562002db057600080fd5b833562002dbd8162003821565b9250602084013562002dcf8162003821565b929592945050506040919091013590565b6000806040838503121562002df457600080fd5b823562002e018162003821565b946020939093013593505050565b60008060008060008060c0878903121562002e2957600080fd5b863562002e368162003821565b955060208701359450604087013562002e4f8162003837565b9350606087013592506080870135915060a08701356001600160401b038082111562002e7a57600080fd5b818901915089601f83011262002e8f57600080fd5b81358181111562002ea45762002ea4620035b5565b604051601f8201601f19908116603f0116810190838211818310171562002ecf5762002ecf620035b5565b816040528281528c602084870101111562002ee957600080fd5b8260208601602083013760006020848301015280955050505050509295509295509295565b60006020828403121562002f2157600080fd5b8135620022048162003837565b60006020828403121562002f4157600080fd5b8151620022048162003837565b60006020828403121562002f6157600080fd5b5051919050565b60006020828403121562002f7b57600080fd5b81356001600160401b0381111562002f9257600080fd5b820161024081850312156200220457600080fd5b6000806040838503121562002fba57600080fd5b82359150602083013562002fce8162003821565b809150509250929050565b60008060006060848603121562002fef57600080fd5b83359250620030016020850162002d43565b9150620030116040850162002d43565b90509250925092565b81835281816020850137506000828201602090810191909152601f909101601f19169091010190565b6000815180845260005b818110156200306b576020818501810151868301820152016200304d565b818111156200307e576000602083870101525b50601f01601f19169290920160200192915050565b60008154620030a2816200352e565b808552602060018381168015620030c25760018114620030d75762003107565b60ff1985168884015260408801955062003107565b866000528260002060005b85811015620030ff5781548a8201860152908301908401620030e2565b890184019650505b505050505092915050565b6001600160a01b0391909116815260200190565b6001600160a01b0392831681529116602082015260400190565b6001600160a01b038581168252841660208201526060604082018190526000906200316f90830184866200301a565b9695505050505050565b600061010060018060a01b038b16835289602084015288151560408401528760608401528660808401528060a0840152620031b78184018762003043565b905082810360c0840152620031cd818662003093565b905082810360e0840152620031e3818562003093565b9b9a5050505050505050505050565b6020808252825182820181905260009190848201906040850190845b818110156200322c578351835292840192918401916001016200320e565b50909695505050505050565b6001600160a01b03848116825283166020820152606060408201819052600090620032669083018462003043565b95945050505050565b602081526000620032856020830184866200301a565b949350505050565b604081526000620032a2604083018562003043565b828103602084015262003266818562003043565b60208152600062002204602083018462003093565b602080825260059082015264454332312d60d81b604082015260600190565b6020808252602e908201527f496e697469616c697a61626c653a20636f6e747261637420697320616c72656160408201526d191e481a5b9a5d1a585b1a5e995960921b606082015260800190565b9283526020830191909152604082015260600190565b6000808335601e198436030181126200336657600080fd5b8301803591506001600160401b038211156200338157600080fd5b6020019150368190038213156200339757600080fd5b9250929050565b60008219821115620033b457620033b462003589565b500190565b600082620033d757634e487b7160e01b600052601260045260246000fd5b500490565b6000816000190483118215151615620033f957620033f962003589565b500290565b60008282101562003413576200341362003589565b500390565b601f82111562000ff457600081815260208120601f850160051c81016020861015620034415750805b601f850160051c820191505b81811015620008a7578281556001016200344d565b6001600160401b038311156200347c576200347c620035b5565b62003494836200348d83546200352e565b8362003418565b6000601f841160018114620034cb5760008515620034b25750838201355b600019600387901b1c1916600186901b178355620018fc565b600083815260209020601f19861690835b82811015620034fe5786850135825560209485019460019092019101620034dc565b50868210156200351c5760001960f88860031b161c19848701351681555b505060018560011b0183555050505050565b600181811c908216806200354357607f821691505b602082108114156200356557634e487b7160e01b600052602260045260246000fd5b50919050565b600060001982141562003582576200358262003589565b5060010190565b634e487b7160e01b600052601160045260246000fd5b634e487b7160e01b600052603260045260246000fd5b634e487b7160e01b600052604160045260246000fd5b60008135620013678162003821565b80546001600160a01b0319166001600160a01b0392909216919091179055565b620036106200360983620035cb565b82620035da565b6200362c6200362260208401620035cb565b60018301620035da565b620036486200363e60408401620035cb565b60028301620035da565b620036646200365a60608401620035cb565b60038301620035da565b620036806200367660808401620035cb565b60048301620035da565b6200369c6200369260a08401620035cb565b60058301620035da565b620036b8620036ae60c08401620035cb565b60068301620035da565b620036d4620036ca60e08401620035cb565b60078301620035da565b620036f1620036e76101008401620035cb565b60088301620035da565b620037016101208301836200334e565b6200371181836009860162003462565b5050620037236101408301836200334e565b620037338183600a860162003462565b5050620037456101608301836200334e565b620037558183600b860162003462565b5050620037676101808301836200334e565b620037778183600c860162003462565b5050620037896101a08301836200334e565b620037998183600d860162003462565b5050620037ab6101c08301836200334e565b620037bb8183600e860162003462565b5050620037cd6101e08301836200334e565b620037dd8183600f860162003462565b5050620037ef6102008301836200334e565b620037ff81836010860162003462565b5050620038116102208301836200334e565b6200068681836011860162003462565b6001600160a01b03811681146200091957600080fd5b80151581146200091957600080fdfe608060405260405162000f3038038062000f308339810160408190526200002691620004c2565b82816200005560017f360894a13ba1a3210667c828492db98dca3e2076cc3735a920a3ca505d382bbd620005f5565b60008051602062000ee9833981519152146200007557620000756200064a565b6200008382826000620000e7565b50620000b3905060017fb53127684a568b3173ae13b9f8a6016e243e63b6e8ee1178d6a717850b5d6104620005f5565b60008051602062000ec983398151915214620000d357620000d36200064a565b620000de8262000124565b50505062000676565b620000f2836200017f565b600082511180620001005750805b156200011f576200011d8383620001c160201b620002601760201c565b505b505050565b7f7e644d79422f17c01e4894b5f4f588d331ebfa28653d42ae832dc59e38c9798f6200014f620001f0565b604080516001600160a01b03928316815291841660208301520160405180910390a16200017c8162000229565b50565b6200018a81620002de565b6040516001600160a01b038216907fbc7cd75a20ee27fd9adebab32041f755214dbc6bffa90cc0225b39da2e5c2d3b90600090a250565b6060620001e9838360405180606001604052806027815260200162000f096027913962000381565b9392505050565b60006200021a60008051602062000ec983398151915260001b6200045e60201b620002081760201c565b546001600160a01b0316919050565b6001600160a01b038116620002945760405162461bcd60e51b815260206004820152602660248201527f455243313936373a206e65772061646d696e20697320746865207a65726f206160448201526564647265737360d01b60648201526084015b60405180910390fd5b80620002bd60008051602062000ec983398151915260001b6200045e60201b620002081760201c565b80546001600160a01b0319166001600160a01b039290921691909117905550565b620002f4816200046160201b6200028c1760201c565b620003585760405162461bcd60e51b815260206004820152602d60248201527f455243313936373a206e657720696d706c656d656e746174696f6e206973206e60448201526c1bdd08184818dbdb9d1c9858dd609a1b60648201526084016200028b565b80620002bd60008051602062000ee983398151915260001b6200045e60201b620002081760201c565b6060833b620003e25760405162461bcd60e51b815260206004820152602660248201527f416464726573733a2064656c65676174652063616c6c20746f206e6f6e2d636f6044820152651b9d1c9858dd60d21b60648201526084016200028b565b600080856001600160a01b031685604051620003ff9190620005a2565b600060405180830381855af49150503d80600081146200043c576040519150601f19603f3d011682016040523d82523d6000602084013e62000441565b606091505b5090925090506200045482828662000467565b9695505050505050565b90565b3b151590565b6060831562000478575081620001e9565b825115620004895782518084602001fd5b8160405162461bcd60e51b81526004016200028b9190620005c0565b80516001600160a01b0381168114620004bd57600080fd5b919050565b600080600060608486031215620004d857600080fd5b620004e384620004a5565b9250620004f360208501620004a5565b60408501519092506001600160401b03808211156200051157600080fd5b818601915086601f8301126200052657600080fd5b8151818111156200053b576200053b62000660565b604051601f8201601f19908116603f0116810190838211818310171562000566576200056662000660565b816040528281528960208487010111156200058057600080fd5b620005938360208301602088016200061b565b80955050505050509250925092565b60008251620005b68184602087016200061b565b9190910192915050565b6020815260008251806020840152620005e18160408501602087016200061b565b601f01601f19169190910160400192915050565b6000828210156200061657634e487b7160e01b600052601160045260246000fd5b500390565b60005b83811015620006385781810151838201526020016200061e565b838111156200011d5750506000910152565b634e487b7160e01b600052600160045260246000fd5b634e487b7160e01b600052604160045260246000fd5b61084380620006866000396000f3fe60806040526004361061004e5760003560e01c80633659cfe6146100655780634f1ef286146100855780635c60da1b146100985780638f283970146100c9578063f851a440146100e95761005d565b3661005d5761005b6100fe565b005b61005b6100fe565b34801561007157600080fd5b5061005b61008036600461068e565b610118565b61005b6100933660046106a9565b61015f565b3480156100a457600080fd5b506100ad6101d0565b6040516001600160a01b03909116815260200160405180910390f35b3480156100d557600080fd5b5061005b6100e436600461068e565b61020b565b3480156100f557600080fd5b506100ad610235565b610106610292565b610116610111610331565b61033b565b565b61012061035f565b6001600160a01b0316336001600160a01b031614156101575761015481604051806020016040528060008152506000610380565b50565b6101546100fe565b61016761035f565b6001600160a01b0316336001600160a01b031614156101c8576101c38383838080601f01602080910402602001604051908101604052809392919081815260200183838082843760009201919091525060019250610380915050565b505050565b6101c36100fe565b60006101da61035f565b6001600160a01b0316336001600160a01b03161415610200576101fb610331565b905090565b6102086100fe565b90565b61021361035f565b6001600160a01b0316336001600160a01b0316141561015757610154816103ab565b600061023f61035f565b6001600160a01b0316336001600160a01b03161415610200576101fb61035f565b606061028583836040518060600160405280602781526020016107e7602791396103ff565b9392505050565b3b151590565b61029a61035f565b6001600160a01b0316336001600160a01b031614156101165760405162461bcd60e51b815260206004820152604260248201527f5472616e73706172656e745570677261646561626c6550726f78793a2061646d60448201527f696e2063616e6e6f742066616c6c6261636b20746f2070726f78792074617267606482015261195d60f21b608482015260a4015b60405180910390fd5b60006101fb6104d3565b3660008037600080366000845af43d6000803e80801561035a573d6000f35b3d6000fd5b60006000805160206107a78339815191525b546001600160a01b0316919050565b610389836104e9565b6000825111806103965750805b156101c3576103a58383610260565b50505050565b7f7e644d79422f17c01e4894b5f4f588d331ebfa28653d42ae832dc59e38c9798f6103d461035f565b604080516001600160a01b03928316815291841660208301520160405180910390a161015481610529565b6060833b61045e5760405162461bcd60e51b815260206004820152602660248201527f416464726573733a2064656c65676174652063616c6c20746f206e6f6e2d636f6044820152651b9d1c9858dd60d21b6064820152608401610328565b600080856001600160a01b031685604051610479919061072b565b600060405180830381855af49150503d80600081146104b4576040519150601f19603f3d011682016040523d82523d6000602084013e6104b9565b606091505b50915091506104c98282866105c0565b9695505050505050565b60006000805160206107c7833981519152610371565b6104f2816105f9565b6040516001600160a01b038216907fbc7cd75a20ee27fd9adebab32041f755214dbc6bffa90cc0225b39da2e5c2d3b90600090a250565b6001600160a01b03811661058e5760405162461bcd60e51b815260206004820152602660248201527f455243313936373a206e65772061646d696e20697320746865207a65726f206160448201526564647265737360d01b6064820152608401610328565b806000805160206107a78339815191525b80546001600160a01b0319166001600160a01b039290921691909117905550565b606083156105cf575081610285565b8251156105df5782518084602001fd5b8160405162461bcd60e51b81526004016103289190610747565b803b61065d5760405162461bcd60e51b815260206004820152602d60248201527f455243313936373a206e657720696d706c656d656e746174696f6e206973206e60448201526c1bdd08184818dbdb9d1c9858dd609a1b6064820152608401610328565b806000805160206107c783398151915261059f565b80356001600160a01b038116811461068957600080fd5b919050565b6000602082840312156106a057600080fd5b61028582610672565b6000806000604084860312156106be57600080fd5b6106c784610672565b925060208401356001600160401b03808211156106e357600080fd5b818601915086601f8301126106f757600080fd5b81358181111561070657600080fd5b87602082850101111561071857600080fd5b6020830194508093505050509250925092565b6000825161073d81846020870161077a565b9190910192915050565b602081526000825180602084015261076681604085016020870161077a565b601f01601f19169190910160400192915050565b60005b8381101561079557818101518382015260200161077d565b838111156103a5575050600091015256feb53127684a568b3173ae13b9f8a6016e243e63b6e8ee1178d6a717850b5d6103360894a13ba1a3210667c828492db98dca3e2076cc3735a920a3ca505d382bbc416464726573733a206c6f772d6c6576656c2064656c65676174652063616c6c206661696c6564a2646970667358221220bf234746908c6f46655f3e5bb4f0abadaeb249c68beba1c928f2af74deb56e2264736f6c63430008070033b53127684a568b3173ae13b9f8a6016e243e63b6e8ee1178d6a717850b5d6103360894a13ba1a3210667c828492db98dca3e2076cc3735a920a3ca505d382bbc416464726573733a206c6f772d6c6576656c2064656c65676174652063616c6c206661696c6564608060405234801561001057600080fd5b5060405161052338038061052383398101604081905261002f91610148565b61003833610047565b61004181610097565b50610178565b600080546001600160a01b038381166001600160a01b0319831681178455604051919092169283917f8be0079c531659141344cd1fd0a4f28419497f9722a3daafe3b4186f6b6457e09190a35050565b6100aa8161014260201b61021f1760201c565b6101205760405162461bcd60e51b815260206004820152603360248201527f5570677261646561626c65426561636f6e3a20696d706c656d656e746174696f60448201527f6e206973206e6f74206120636f6e747261637400000000000000000000000000606482015260840160405180910390fd5b600180546001600160a01b0319166001600160a01b0392909216919091179055565b3b151590565b60006020828403121561015a57600080fd5b81516001600160a01b038116811461017157600080fd5b9392505050565b61039c806101876000396000f3fe608060405234801561001057600080fd5b50600436106100575760003560e01c80633659cfe61461005c5780635c60da1b14610071578063715018a61461009a5780638da5cb5b146100a2578063f2fde38b146100aa575b600080fd5b61006f61006a366004610301565b6100bd565b005b6001546001600160a01b03165b6040516001600160a01b03909116815260200160405180910390f35b61006f610135565b61007e610170565b61006f6100b8366004610301565b61017f565b336100c6610170565b6001600160a01b0316146100f55760405162461bcd60e51b81526004016100ec90610331565b60405180910390fd5b6100fe81610225565b6040516001600160a01b038216907fbc7cd75a20ee27fd9adebab32041f755214dbc6bffa90cc0225b39da2e5c2d3b90600090a250565b3361013e610170565b6001600160a01b0316146101645760405162461bcd60e51b81526004016100ec90610331565b61016e60006102b1565b565b6000546001600160a01b031690565b33610188610170565b6001600160a01b0316146101ae5760405162461bcd60e51b81526004016100ec90610331565b6001600160a01b0381166102135760405162461bcd60e51b815260206004820152602660248201527f4f776e61626c653a206e6577206f776e657220697320746865207a65726f206160448201526564647265737360d01b60648201526084016100ec565b61021c816102b1565b50565b3b151590565b803b61028f5760405162461bcd60e51b815260206004820152603360248201527f5570677261646561626c65426561636f6e3a20696d706c656d656e746174696f6044820152721b881a5cc81b9bdd08184818dbdb9d1c9858dd606a1b60648201526084016100ec565b600180546001600160a01b0319166001600160a01b0392909216919091179055565b600080546001600160a01b038381166001600160a01b0319831681178455604051919092169283917f8be0079c531659141344cd1fd0a4f28419497f9722a3daafe3b4186f6b6457e09190a35050565b60006020828403121561031357600080fd5b81356001600160a01b038116811461032a57600080fd5b9392505050565b6020808252818101527f4f776e61626c653a2063616c6c6572206973206e6f7420746865206f776e657260408201526060019056fea2646970667358221220b1e86d9e5a9827481ff081a46fc0ff448af58190927b3eac96f691d6bcdce0a964736f6c63430008070033a2646970667358221220a84bc7575320439d545103672298482867f75ea7c073a91b2477e52f2dbdc82c64736f6c63430008070033608060405234801561001057600080fd5b5061001a3361001f565b61006f565b600080546001600160a01b038381166001600160a01b0319831681178455604051919092169283917f8be0079c531659141344cd1fd0a4f28419497f9722a3daafe3b4186f6b6457e09190a35050565b61073f8061007e6000396000f3fe60806040526004361061006b5760003560e01c8063204e1c7a14610070578063715018a6146100a65780637eff275e146100bd5780638da5cb5b146100dd5780639623609d146100f257806399a88ec414610105578063f2fde38b14610125578063f3b7dead14610145575b600080fd5b34801561007c57600080fd5b5061009061008b3660046104e1565b610165565b60405161009d9190610630565b60405180910390f35b3480156100b257600080fd5b506100bb6101f6565b005b3480156100c957600080fd5b506100bb6100d8366004610522565b61023a565b3480156100e957600080fd5b506100906102cb565b6100bb61010036600461055b565b6102da565b34801561011157600080fd5b506100bb610120366004610522565b610370565b34801561013157600080fd5b506100bb6101403660046104e1565b6103cb565b34801561015157600080fd5b506100906101603660046104e1565b61046b565b6000806000836001600160a01b031660405161018b90635c60da1b60e01b815260040190565b600060405180830381855afa9150503d80600081146101c6576040519150601f19603f3d011682016040523d82523d6000602084013e6101cb565b606091505b5091509150816101da57600080fd5b808060200190518101906101ee9190610505565b949350505050565b336101ff6102cb565b6001600160a01b03161461022e5760405162461bcd60e51b8152600401610225906106a9565b60405180910390fd5b6102386000610491565b565b336102436102cb565b6001600160a01b0316146102695760405162461bcd60e51b8152600401610225906106a9565b6040516308f2839760e41b81526001600160a01b03831690638f28397090610295908490600401610630565b600060405180830381600087803b1580156102af57600080fd5b505af11580156102c3573d6000803e3d6000fd5b505050505050565b6000546001600160a01b031690565b336102e36102cb565b6001600160a01b0316146103095760405162461bcd60e51b8152600401610225906106a9565b60405163278f794360e11b81526001600160a01b03841690634f1ef2869034906103399086908690600401610644565b6000604051808303818588803b15801561035257600080fd5b505af1158015610366573d6000803e3d6000fd5b5050505050505050565b336103796102cb565b6001600160a01b03161461039f5760405162461bcd60e51b8152600401610225906106a9565b604051631b2ce7f360e11b81526001600160a01b03831690633659cfe690610295908490600401610630565b336103d46102cb565b6001600160a01b0316146103fa5760405162461bcd60e51b8152600401610225906106a9565b6001600160a01b03811661045f5760405162461bcd60e51b815260206004820152602660248201527f4f776e61626c653a206e6577206f776e657220697320746865207a65726f206160448201526564647265737360d01b6064820152608401610225565b61046881610491565b50565b6000806000836001600160a01b031660405161018b906303e1469160e61b815260040190565b600080546001600160a01b038381166001600160a01b0319831681178455604051919092169283917f8be0079c531659141344cd1fd0a4f28419497f9722a3daafe3b4186f6b6457e09190a35050565b6000602082840312156104f357600080fd5b81356104fe816106f4565b9392505050565b60006020828403121561051757600080fd5b81516104fe816106f4565b6000806040838503121561053557600080fd5b8235610540816106f4565b91506020830135610550816106f4565b809150509250929050565b60008060006060848603121561057057600080fd5b833561057b816106f4565b9250602084013561058b816106f4565b915060408401356001600160401b03808211156105a757600080fd5b818601915086601f8301126105bb57600080fd5b8135818111156105cd576105cd6106de565b604051601f8201601f19908116603f011681019083821181831017156105f5576105f56106de565b8160405282815289602084870101111561060e57600080fd5b8260208601602083013760006020848301015280955050505050509250925092565b6001600160a01b0391909116815260200190565b60018060a01b038316815260006020604081840152835180604085015260005b8181101561068057858101830151858201606001528201610664565b81811115610692576000606083870101525b50601f01601f191692909201606001949350505050565b6020808252818101527f4f776e61626c653a2063616c6c6572206973206e6f7420746865206f776e6572604082015260600190565b634e487b7160e01b600052604160045260246000fd5b6001600160a01b038116811461046857600080fdfea26469706673582212207240b38990a52bc008f8ef6148c6f36363b8fbb55bee70cee697cb8e4d4c00ce64736f6c63430008070033",
  "immutableReferences": {},
  "source": "// SPDX-License-Identifier: GPL-3.0\r\n\r\npragma solidity 0.8.7;\r\n\r\n/**\r\n * @title Storage\r\n * @dev Store & retrieve value in a variable\r\n */\r\n\r\nimport \"../Interfaces/IProxyManager.sol\";\r\nimport \"../Interfaces/IFactory.sol\";\r\nimport \"../Base/TokenGovernanceBaseContract.sol\";\r\nimport \"../Libraries/AddressLibrary.sol\";\r\nimport \"../Libraries/Library.sol\";\r\nimport \"@openzeppelin/contracts-upgradeable/proxy/utils/Initializable.sol\";\r\nimport \"@openzeppelin/contracts/proxy/beacon/UpgradeableBeacon.sol\";\r\nimport \"@openzeppelin/contracts/proxy/transparent/TransparentUpgradeableProxy.sol\";\r\nimport \"@openzeppelin/contracts/proxy/transparent/ProxyAdmin.sol\";\r\n\r\n\r\ncontract CertificatesPoolManager is IProxyManager, TokenGovernanceBaseContract{\r\n    using AddressLibrary for *;\r\n    using Library for *;\r\n\r\n    // EVENTS /////////////////////////////////////////\r\n    event _NewContracts(address Public, address Treasury, address Certis, address PrivateFactory, \r\n    address Private, address ProviderFactory, address Provider, address PriceConverter, address PropositionSettings);\r\n\r\n    // DATA /////////////////////////////////////////\r\n    // Admin Proxy to manage all the TransparentUpgradeableProxies\r\n    ProxyAdmin private _Admin;\r\n\r\n    // proposition to change\r\n    Library.ProposedContractsStruct private _ProposedContracts;\r\n    \r\n    // Private Certificate Pools Factory\r\n    TransparentUpgradeableProxy private _PrivatePoolFactory;\r\n\r\n    // Private Certificates Pool\r\n    UpgradeableBeacon private _PrivateCertificatePoolBeacon;\r\n\r\n    // Provider Factory\r\n    TransparentUpgradeableProxy private _ProviderFactory;\r\n\r\n    // Provider\r\n    UpgradeableBeacon private _ProviderBeacon;\r\n\r\n    // Public Certificates Pool\r\n    TransparentUpgradeableProxy private _PublicCertificatesPool;\r\n\r\n    // Treasury\r\n    TransparentUpgradeableProxy private _Treasury;\r\n\r\n    // Certis Token\r\n    TransparentUpgradeableProxy private _CertisToken;\r\n\r\n    // Price Converter\r\n    TransparentUpgradeableProxy private _PriceConverter;\r\n\r\n    // Proposition Settings\r\n    TransparentUpgradeableProxy private _PropositionSettings;\r\n\r\n    // init\r\n    bool private _init;\r\n\r\n    // MODIFIERS /////////////////////////////////////////\r\n    modifier isNotInitialized(){\r\n        require(false == _init, \"EC26-\");\r\n        _;\r\n    }\r\n\r\n    // CONSTRUCTOR and INITIALIZATION /////////////////////////////////////////\r\n    constructor(uint256 PropositionLifeTime, uint8 PropositionThresholdPercentage, uint8 minWeightToProposePercentage, string memory contractName, string memory contractVersion) \r\n    {\r\n        super.TokenGovernanceContract_init(PropositionLifeTime, PropositionThresholdPercentage, minWeightToProposePercentage, msg.sender, address(this), contractName, contractVersion);\r\n        _Admin = new ProxyAdmin();\r\n        _init = false;\r\n    }\r\n\r\n    function InitializeContracts(Library.ProposedContractsStruct calldata initialContracts) \r\n        isFromChairPerson(msg.sender)\r\n        isNotInitialized()\r\n    external override\r\n    {\r\n        initProxies(initialContracts);\r\n        _init = true;\r\n    }\r\n\r\n    // FUNCTIONALITY /////////////////////////////////////////\r\n    // governance : contracts assignment and management\r\n    function upgradeContracts(Library.ProposedContractsStruct calldata UpgradeProposition) external override\r\n    {\r\n        _ProposedContracts = UpgradeProposition;\r\n        addProposition();\r\n    }\r\n\r\n    function propositionApproved() internal override\r\n    {\r\n        upgradeContractsImplementations();\r\n        removeProposition();\r\n    }\r\n\r\n    function propositionRejected() internal override\r\n    {\r\n        removeProposition();\r\n    }\r\n\r\n    function propositionExpired() internal override\r\n    {\r\n        removeProposition();\r\n    }\r\n\r\n    function removeProposition() internal\r\n    {\r\n       delete(_ProposedContracts);\r\n    }\r\n\r\n    function retrieveProposition() external override view returns(bytes32[] memory)\r\n    {\r\n        bytes32[] memory proposition = new bytes32[](9);\r\n        proposition[0] = AddressLibrary.AddressToBytes32(_ProposedContracts.NewPublicPoolAddress);\r\n        proposition[1] = AddressLibrary.AddressToBytes32(_ProposedContracts.NewTreasuryAddress);\r\n        proposition[2] = AddressLibrary.AddressToBytes32(_ProposedContracts.NewCertisTokenAddress);\r\n        proposition[3] = AddressLibrary.AddressToBytes32(_ProposedContracts.NewPrivatePoolFactoryAddress);\r\n        proposition[4] = AddressLibrary.AddressToBytes32(_ProposedContracts.NewPrivatePoolAddress);\r\n        proposition[5] = AddressLibrary.AddressToBytes32(_ProposedContracts.NewProviderFactoryAddress);\r\n        proposition[6] = AddressLibrary.AddressToBytes32(_ProposedContracts.NewProviderAddress);\r\n        proposition[7] = AddressLibrary.AddressToBytes32(_ProposedContracts.NewPriceConverterAddress);\r\n        proposition[8] = AddressLibrary.AddressToBytes32(_ProposedContracts.NewPropositionSettingsAddress);\r\n        return proposition;\r\n    }\r\n\r\n    function initProxies(Library.ProposedContractsStruct calldata initialContracts) private\r\n    {\r\n        _PublicCertificatesPool = new TransparentUpgradeableProxy(initialContracts.NewPublicPoolAddress, address(_Admin), initialContracts.NewPublicPoolData);\r\n        _Treasury = new TransparentUpgradeableProxy(initialContracts.NewTreasuryAddress, address(_Admin), initialContracts.NewTreasuryData);\r\n        _CertisToken = new TransparentUpgradeableProxy(initialContracts.NewCertisTokenAddress, address(_Admin), initialContracts.NewCertisTokenData);\r\n        _PrivatePoolFactory = new TransparentUpgradeableProxy(initialContracts.NewPrivatePoolFactoryAddress, address(_Admin), initialContracts.NewPrivatePoolFactoryData);\r\n        _PrivateCertificatePoolBeacon = new UpgradeableBeacon(initialContracts.NewPrivatePoolAddress);\r\n        _ProviderFactory = new TransparentUpgradeableProxy(initialContracts.NewProviderFactoryAddress, address(_Admin), initialContracts.NewProviderFactoryData);\r\n        _ProviderBeacon = new UpgradeableBeacon(initialContracts.NewProviderAddress);\r\n        _PriceConverter = new TransparentUpgradeableProxy(initialContracts.NewPriceConverterAddress, address(_Admin), initialContracts.NewPriceConverterData);\r\n        _PropositionSettings = new TransparentUpgradeableProxy(initialContracts.NewPropositionSettingsAddress, address(_Admin), initialContracts.NewPropositionSettingsData);\r\n\r\n        IFactory(address(_PrivatePoolFactory)).updateContractName(initialContracts.NewPrivatePoolContractName);\r\n        IFactory(address(_PrivatePoolFactory)).updateContractVersion(initialContracts.NewPrivatePoolContractVersion);\r\n    }\r\n\r\n    function upgradeContractsImplementations() private\r\n    {\r\n        upgradeContractImplementation(_PublicCertificatesPool, _ProposedContracts.NewPublicPoolAddress, _ProposedContracts.NewPublicPoolData);\r\n        upgradeContractImplementation(_Treasury, _ProposedContracts.NewTreasuryAddress, _ProposedContracts.NewTreasuryData);\r\n        upgradeContractImplementation(_CertisToken, _ProposedContracts.NewCertisTokenAddress, _ProposedContracts.NewCertisTokenData);\r\n        upgradeContractImplementation(_PrivatePoolFactory, _ProposedContracts.NewPrivatePoolFactoryAddress, _ProposedContracts.NewPrivatePoolFactoryData);\r\n        upgradeContractImplementation(_ProviderFactory, _ProposedContracts.NewProviderFactoryAddress, _ProposedContracts.NewProviderFactoryData);\r\n        upgradeContractImplementation(_PriceConverter, _ProposedContracts.NewPriceConverterAddress, _ProposedContracts.NewPriceConverterData);\r\n        upgradeContractImplementation(_PropositionSettings, _ProposedContracts.NewPropositionSettingsAddress, _ProposedContracts.NewPropositionSettingsData);\r\n\r\n        if(address(0) != _ProposedContracts.NewPrivatePoolAddress)_PrivateCertificatePoolBeacon.upgradeTo(_ProposedContracts.NewPrivatePoolAddress);\r\n        if(address(0) != _ProposedContracts.NewProviderAddress)_ProviderBeacon.upgradeTo(_ProposedContracts.NewProviderAddress);\r\n\r\n        if(0 < bytes(_ProposedContracts.NewPrivatePoolContractName).length)\r\n            IFactory(address(_PrivatePoolFactory)).updateContractName(_ProposedContracts.NewPrivatePoolContractName);\r\n\r\n        if(0 < bytes(_ProposedContracts.NewPrivatePoolContractVersion).length)\r\n            IFactory(address(_PrivatePoolFactory)).updateContractVersion(_ProposedContracts.NewPrivatePoolContractVersion);\r\n        \r\n        emit _NewContracts(internalRetrieveImpl(_PublicCertificatesPool), internalRetrieveImpl(_Treasury), \r\n        internalRetrieveImpl(_CertisToken), internalRetrieveImpl(_PrivatePoolFactory), \r\n        internalRetrievePrivatePool(), internalRetrieveImpl(_ProviderFactory), internalRetrieveProvider(),\r\n        internalRetrieveImpl(_PriceConverter), internalRetrieveImpl(_PropositionSettings));\r\n    }\r\n\r\n    function upgradeContractImplementation(TransparentUpgradeableProxy proxy, address NewImpl, bytes memory Data) private\r\n    {\r\n        if(address(0) != NewImpl){\r\n            if(0 < Data.length)_Admin.upgradeAndCall(proxy, NewImpl, Data);\r\n            else _Admin.upgrade(proxy, NewImpl);\r\n        }\r\n    }\r\n\r\n    // configuration Proxies\r\n    function retrievePublicCertificatePoolProxy() external override view returns (address) {\r\n        return (address(_PublicCertificatesPool));\r\n    }\r\n\r\n    function retrieveTreasuryProxy() external override view returns (address) {\r\n        return (address(_Treasury));\r\n    }\r\n\r\n    function retrieveCertisTokenProxy() external override view returns (address) {\r\n        return (address(_CertisToken));\r\n    }\r\n\r\n    function retrievePrivatePoolFactoryProxy() external override view returns (address) {\r\n        return (address(_PrivatePoolFactory));\r\n    }\r\n\r\n    function retrievePrivatePoolBeacon() external override view returns (address) {\r\n        return (address(_PrivateCertificatePoolBeacon));\r\n    }\r\n\r\n    function retrieveProviderFactoryProxy() external override view returns (address) {\r\n        return (address(_ProviderFactory));\r\n    }\r\n\r\n    function retrieveProviderBeacon() external override view returns (address) {\r\n        return (address(_ProviderBeacon));\r\n    }\r\n\r\n    function retrievePriceConverterProxy() external override view returns (address) {\r\n        return (address(_PriceConverter));\r\n    }\r\n\r\n    function retrievePropositionSettingsProxy() external override view returns (address) {\r\n        return (address(_PropositionSettings));\r\n    }\r\n\r\n    // configuration implementations\r\n    function retrievePublicCertificatePool() external override view returns (address) {\r\n        return internalRetrieveImpl(_PublicCertificatesPool);\r\n    }\r\n\r\n    function retrieveTreasury() external override view returns (address) {\r\n        return internalRetrieveImpl(_Treasury);\r\n    }\r\n\r\n    function retrieveCertisToken() external override view returns (address) {\r\n        return internalRetrieveImpl(_CertisToken);\r\n    }\r\n\r\n    function retrievePrivatePoolFactory() external override view returns (address) {\r\n        return internalRetrieveImpl(_PrivatePoolFactory);\r\n    }\r\n\r\n    function retrievePrivatePool() external override view returns (address) {\r\n        return internalRetrievePrivatePool();\r\n    }\r\n\r\n    function retrieveProviderFactory() external override view returns (address) {\r\n        return internalRetrieveImpl(_ProviderFactory);\r\n    }\r\n\r\n    function retrieveProvider() external override view returns (address) {\r\n        return internalRetrieveProvider();\r\n    }\r\n\r\n    function retrievePriceConverter() external override view returns (address) {\r\n        return internalRetrieveImpl(_PriceConverter);\r\n    }\r\n\r\n    function retrievePropositionSettings() external override view returns (address) {\r\n        return internalRetrieveImpl(_PropositionSettings);\r\n    }\r\n\r\n    function isInitialized() external override view returns(bool){\r\n        return _init;\r\n    }\r\n\r\n    // internal\r\n    function internalRetrieveImpl(TransparentUpgradeableProxy proxy) internal view returns (address){\r\n        return _Admin.getProxyImplementation(proxy);\r\n    }\r\n\r\n    function internalRetrievePrivatePool() internal view returns (address) {\r\n        return _PrivateCertificatePoolBeacon.implementation();\r\n    }\r\n\r\n    function internalRetrieveProvider() internal view returns (address) {\r\n        return _ProviderBeacon.implementation();\r\n    }\r\n  \r\n}",
  "sourcePath": "C:/Users/d-aam/GitHub/Certificates/contracts/DeployedContracts/CertificatesPoolManager.sol",
  "compiler": {
    "name": "solc",
    "version": "0.8.7+commit.e28d00a7.Emscripten.clang"
  },
  "schemaVersion": "3.3.4",
  "updatedAt": "2021-10-27T10:34:25.407Z",
  "devdoc": {
    "kind": "dev",
    "methods": {},
    "version": 1
  },
  "userdoc": {
    "kind": "user",
    "methods": {},
    "version": 1
  }
}