{
  "contractName": "CertisToken",
  "abi": [
    {
      "anonymous": false,
      "inputs": [
        {
          "indexed": true,
          "internalType": "address",
          "name": "owner",
          "type": "address"
        },
        {
          "indexed": true,
          "internalType": "address",
          "name": "spender",
          "type": "address"
        },
        {
          "indexed": false,
          "internalType": "uint256",
          "name": "value",
          "type": "uint256"
        }
      ],
      "name": "Approval",
      "type": "event"
    },
    {
      "anonymous": false,
      "inputs": [
        {
          "indexed": true,
          "internalType": "address",
          "name": "from",
          "type": "address"
        },
        {
          "indexed": true,
          "internalType": "address",
          "name": "to",
          "type": "address"
        },
        {
          "indexed": false,
          "internalType": "uint256",
          "name": "value",
          "type": "uint256"
        }
      ],
      "name": "Transfer",
      "type": "event"
    },
    {
      "inputs": [
        {
          "internalType": "address",
          "name": "owner",
          "type": "address"
        },
        {
          "internalType": "address",
          "name": "spender",
          "type": "address"
        }
      ],
      "name": "allowance",
      "outputs": [
        {
          "internalType": "uint256",
          "name": "",
          "type": "uint256"
        }
      ],
      "stateMutability": "view",
      "type": "function",
      "constant": true
    },
    {
      "inputs": [
        {
          "internalType": "address",
          "name": "spender",
          "type": "address"
        },
        {
          "internalType": "uint256",
          "name": "amount",
          "type": "uint256"
        }
      ],
      "name": "approve",
      "outputs": [
        {
          "internalType": "bool",
          "name": "",
          "type": "bool"
        }
      ],
      "stateMutability": "nonpayable",
      "type": "function"
    },
    {
      "inputs": [
        {
          "internalType": "address",
          "name": "account",
          "type": "address"
        }
      ],
      "name": "balanceOf",
      "outputs": [
        {
          "internalType": "uint256",
          "name": "",
          "type": "uint256"
        }
      ],
      "stateMutability": "view",
      "type": "function",
      "constant": true
    },
    {
      "inputs": [
        {
          "internalType": "address",
          "name": "spender",
          "type": "address"
        },
        {
          "internalType": "uint256",
          "name": "subtractedValue",
          "type": "uint256"
        }
      ],
      "name": "decreaseAllowance",
      "outputs": [
        {
          "internalType": "bool",
          "name": "",
          "type": "bool"
        }
      ],
      "stateMutability": "nonpayable",
      "type": "function"
    },
    {
      "inputs": [
        {
          "internalType": "address",
          "name": "spender",
          "type": "address"
        },
        {
          "internalType": "uint256",
          "name": "addedValue",
          "type": "uint256"
        }
      ],
      "name": "increaseAllowance",
      "outputs": [
        {
          "internalType": "bool",
          "name": "",
          "type": "bool"
        }
      ],
      "stateMutability": "nonpayable",
      "type": "function"
    },
    {
      "inputs": [],
      "name": "name",
      "outputs": [
        {
          "internalType": "string",
          "name": "",
          "type": "string"
        }
      ],
      "stateMutability": "view",
      "type": "function",
      "constant": true
    },
    {
      "inputs": [],
      "name": "retrieveManagerContract",
      "outputs": [
        {
          "internalType": "address",
          "name": "",
          "type": "address"
        }
      ],
      "stateMutability": "view",
      "type": "function",
      "constant": true
    },
    {
      "inputs": [],
      "name": "symbol",
      "outputs": [
        {
          "internalType": "string",
          "name": "",
          "type": "string"
        }
      ],
      "stateMutability": "view",
      "type": "function",
      "constant": true
    },
    {
      "inputs": [],
      "name": "totalSupply",
      "outputs": [
        {
          "internalType": "uint256",
          "name": "",
          "type": "uint256"
        }
      ],
      "stateMutability": "view",
      "type": "function",
      "constant": true
    },
    {
      "inputs": [
        {
          "internalType": "address",
          "name": "recipient",
          "type": "address"
        },
        {
          "internalType": "uint256",
          "name": "amount",
          "type": "uint256"
        }
      ],
      "name": "transfer",
      "outputs": [
        {
          "internalType": "bool",
          "name": "",
          "type": "bool"
        }
      ],
      "stateMutability": "nonpayable",
      "type": "function"
    },
    {
      "inputs": [
        {
          "internalType": "address",
          "name": "sender",
          "type": "address"
        },
        {
          "internalType": "address",
          "name": "recipient",
          "type": "address"
        },
        {
          "internalType": "uint256",
          "name": "amount",
          "type": "uint256"
        }
      ],
      "name": "transferFrom",
      "outputs": [
        {
          "internalType": "bool",
          "name": "",
          "type": "bool"
        }
      ],
      "stateMutability": "nonpayable",
      "type": "function"
    },
    {
      "inputs": [
        {
          "internalType": "string",
          "name": "name",
          "type": "string"
        },
        {
          "internalType": "string",
          "name": "symbol",
          "type": "string"
        },
        {
          "internalType": "uint256",
          "name": "MaxSupply",
          "type": "uint256"
        },
        {
          "internalType": "address",
          "name": "managerContractAddress",
          "type": "address"
        },
        {
          "internalType": "uint8",
          "name": "decimalsValue",
          "type": "uint8"
        },
        {
          "internalType": "address",
          "name": "initialOwner",
          "type": "address"
        }
      ],
      "name": "CertisToken_init",
      "outputs": [],
      "stateMutability": "nonpayable",
      "type": "function"
    },
    {
      "inputs": [],
      "name": "decimals",
      "outputs": [
        {
          "internalType": "uint8",
          "name": "",
          "type": "uint8"
        }
      ],
      "stateMutability": "view",
      "type": "function",
      "constant": true
    }
  ],
  "bytecode": "0x608060405234801561001057600080fd5b5061120e806100206000396000f3fe608060405234801561001057600080fd5b50600436106100af5760003560e01c806306fdde03146100b4578063095ea7b3146100d257806318160ddd146100f557806323b872dd14610107578063313ce5671461011a578063395093511461012f5780635181111e146101425780635b362e841461015757806370a082311461018157806395d89b41146101aa578063a457c2d7146101b2578063a9059cbb146101c5578063dd62ed3e146101d8575b600080fd5b6100bc610211565b6040516100c99190611089565b60405180910390f35b6100e56100e0366004610f6c565b6102a3565b60405190151581526020016100c9565b6035545b6040519081526020016100c9565b6100e5610115366004610f2b565b6102b9565b60655460405160ff90911681526020016100c9565b6100e561013d366004610f6c565b610368565b610155610150366004610fba565b6103a4565b005b6000546201000090046001600160a01b03166040516001600160a01b0390911681526020016100c9565b6100f961018f366004610eb1565b6001600160a01b031660009081526033602052604090205490565b6100bc610442565b6100e56101c0366004610f6c565b610451565b6100e56101d3366004610f6c565b6104ea565b6100f96101e6366004610ef2565b6001600160a01b03918216600090815260346020908152604080832093909416825291909152205490565b60606036805461022090611152565b80601f016020809104026020016040519081016040528092919081815260200182805461024c90611152565b80156102995780601f1061026e57610100808354040283529160200191610299565b820191906000526020600020905b81548152906001019060200180831161027c57829003601f168201915b5050505050905090565b60006102b03384846104f7565b50600192915050565b60006102c684848461061b565b6001600160a01b0384166000908152603460209081526040808320338452909152902054828110156103505760405162461bcd60e51b815260206004820152602860248201527f45524332303a207472616e7366657220616d6f756e74206578636565647320616044820152676c6c6f77616e636560c01b60648201526084015b60405180910390fd5b61035d85338584036104f7565b506001949350505050565b3360008181526034602090815260408083206001600160a01b038716845290915281205490916102b091859061039f90869061112c565b6104f7565b600054610100900460ff16806103bd575060005460ff16155b6103d95760405162461bcd60e51b8152600401610347906110de565b600054610100900460ff161580156103fb576000805461ffff19166101011790555b610404846107e3565b61040e8787610872565b6065805460ff191660ff851617905561042782866108f2565b8015610439576000805461ff00191690555b50505050505050565b60606037805461022090611152565b3360009081526034602090815260408083206001600160a01b0386168452909152812054828110156104d35760405162461bcd60e51b815260206004820152602560248201527f45524332303a2064656372656173656420616c6c6f77616e63652062656c6f77604482015264207a65726f60d81b6064820152608401610347565b6104e033858584036104f7565b5060019392505050565b60006102b033848461061b565b6001600160a01b0383166105595760405162461bcd60e51b8152602060048201526024808201527f45524332303a20617070726f76652066726f6d20746865207a65726f206164646044820152637265737360e01b6064820152608401610347565b6001600160a01b0382166105ba5760405162461bcd60e51b815260206004820152602260248201527f45524332303a20617070726f766520746f20746865207a65726f206164647265604482015261737360f01b6064820152608401610347565b6001600160a01b0383811660008181526034602090815260408083209487168084529482529182902085905590518481527f8c5be1e5ebec7d5bd14f71427d1e84f3dd0314c0f7b2291e5b200ac8c7c3b925910160405180910390a3505050565b6001600160a01b03831661067f5760405162461bcd60e51b815260206004820152602560248201527f45524332303a207472616e736665722066726f6d20746865207a65726f206164604482015264647265737360d81b6064820152608401610347565b6001600160a01b0382166106e15760405162461bcd60e51b815260206004820152602360248201527f45524332303a207472616e7366657220746f20746865207a65726f206164647260448201526265737360e81b6064820152608401610347565b6106ec8383836109cb565b6001600160a01b038316600090815260336020526040902054818110156107645760405162461bcd60e51b815260206004820152602660248201527f45524332303a207472616e7366657220616d6f756e7420657863656564732062604482015265616c616e636560d01b6064820152608401610347565b6001600160a01b0380851660009081526033602052604080822085850390559185168152908120805484929061079b90849061112c565b92505081905550826001600160a01b0316846001600160a01b03166000805160206111b9833981519152846040516107d591815260200190565b60405180910390a350505050565b600054610100900460ff16806107fc575060005460ff16155b6108185760405162461bcd60e51b8152600401610347906110de565b600054610100900460ff1615801561083a576000805461ffff19166101011790555b6000805462010000600160b01b031916620100006001600160a01b03851602179055801561086e576000805461ff00191690555b5050565b600054610100900460ff168061088b575060005460ff16155b6108a75760405162461bcd60e51b8152600401610347906110de565b600054610100900460ff161580156108c9576000805461ffff19166101011790555b6108d1610c8b565b6108db8383610cf7565b80156108ed576000805461ff00191690555b505050565b6001600160a01b0382166109485760405162461bcd60e51b815260206004820152601f60248201527f45524332303a206d696e7420746f20746865207a65726f2061646472657373006044820152606401610347565b610954600083836109cb565b8060356000828254610966919061112c565b90915550506001600160a01b0382166000908152603360205260408120805483929061099390849061112c565b90915550506040518181526001600160a01b038316906000906000805160206111b98339815191529060200160405180910390a35050565b600060029054906101000a90046001600160a01b03166001600160a01b031663392e53cd6040518163ffffffff1660e01b815260040160206040518083038186803b158015610a1957600080fd5b505afa158015610a2d573d6000803e3d6000fd5b505050506040513d601f19601f82011682018060405250810190610a519190610f98565b156108ed57600060029054906101000a90046001600160a01b03166001600160a01b0316635a3794e96040518163ffffffff1660e01b815260040160206040518083038186803b158015610aa457600080fd5b505afa158015610ab8573d6000803e3d6000fd5b505050506040513d601f19601f82011682018060405250810190610adc9190610ed5565b6001600160a01b0316633c7df55d8484846040518463ffffffff1660e01b8152600401610b0b93929190611065565b600060405180830381600087803b158015610b2557600080fd5b505af1158015610b39573d6000803e3d6000fd5b50505050600060029054906101000a90046001600160a01b03166001600160a01b031663602554156040518163ffffffff1660e01b815260040160206040518083038186803b158015610b8b57600080fd5b505afa158015610b9f573d6000803e3d6000fd5b505050506040513d601f19601f82011682018060405250810190610bc39190610ed5565b6001600160a01b0316633c7df55d8484846040518463ffffffff1660e01b8152600401610bf293929190611065565b600060405180830381600087803b158015610c0c57600080fd5b505af1158015610c20573d6000803e3d6000fd5b5050600054604051633c7df55d60e01b8152620100009091046001600160a01b03169250633c7df55d9150610c5d90869086908690600401611065565b600060405180830381600087803b158015610c7757600080fd5b505af1158015610439573d6000803e3d6000fd5b600054610100900460ff1680610ca4575060005460ff16155b610cc05760405162461bcd60e51b8152600401610347906110de565b600054610100900460ff16158015610ce2576000805461ffff19166101011790555b8015610cf4576000805461ff00191690555b50565b600054610100900460ff1680610d10575060005460ff16155b610d2c5760405162461bcd60e51b8152600401610347906110de565b600054610100900460ff16158015610d4e576000805461ffff19166101011790555b8251610d61906036906020860190610d8c565b508151610d75906037906020850190610d8c565b5080156108ed576000805461ff0019169055505050565b828054610d9890611152565b90600052602060002090601f016020900481019282610dba5760008555610e00565b82601f10610dd357805160ff1916838001178555610e00565b82800160010185558215610e00579182015b82811115610e00578251825591602001919060010190610de5565b50610e0c929150610e10565b5090565b5b80821115610e0c5760008155600101610e11565b600082601f830112610e3657600080fd5b81356001600160401b0380821115610e5057610e5061118d565b604051601f8301601f19908116603f01168101908282118183101715610e7857610e7861118d565b81604052838152866020858801011115610e9157600080fd5b836020870160208301376000602085830101528094505050505092915050565b600060208284031215610ec357600080fd5b8135610ece816111a3565b9392505050565b600060208284031215610ee757600080fd5b8151610ece816111a3565b60008060408385031215610f0557600080fd5b8235610f10816111a3565b91506020830135610f20816111a3565b809150509250929050565b600080600060608486031215610f4057600080fd5b8335610f4b816111a3565b92506020840135610f5b816111a3565b929592945050506040919091013590565b60008060408385031215610f7f57600080fd5b8235610f8a816111a3565b946020939093013593505050565b600060208284031215610faa57600080fd5b81518015158114610ece57600080fd5b60008060008060008060c08789031215610fd357600080fd5b86356001600160401b0380821115610fea57600080fd5b610ff68a838b01610e25565b9750602089013591508082111561100c57600080fd5b5061101989828a01610e25565b955050604087013593506060870135611031816111a3565b9250608087013560ff8116811461104757600080fd5b915060a0870135611057816111a3565b809150509295509295509295565b6001600160a01b039384168152919092166020820152604081019190915260600190565b600060208083528351808285015260005b818110156110b65785810183015185820160400152820161109a565b818111156110c8576000604083870101525b50601f01601f1916929092016040019392505050565b6020808252602e908201527f496e697469616c697a61626c653a20636f6e747261637420697320616c72656160408201526d191e481a5b9a5d1a585b1a5e995960921b606082015260800190565b6000821982111561114d57634e487b7160e01b600052601160045260246000fd5b500190565b600181811c9082168061116657607f821691505b6020821081141561118757634e487b7160e01b600052602260045260246000fd5b50919050565b634e487b7160e01b600052604160045260246000fd5b6001600160a01b0381168114610cf457600080fdfeddf252ad1be2c89b69c2b068fc378daa952ba7f163c4a11628f55a4df523b3efa2646970667358221220ab3b656c5c90736c5de6d0a7b1c1b38f9f57faa9793f5855b5ded0425a1c7a2464736f6c63430008070033",
  "immutableReferences": {},
  "source": "// SPDX-License-Identifier: GPL-3.0\r\n\r\npragma solidity 0.8.7;\r\n\r\n/**\r\n Certis Token is an ERC20 Token that grants its holder the right to:\r\n   - Vote on all the systems propositions (changing system configuraiton etc...)\r\n   - Receive Dividends for all the payments forwarded to the Treasury contract\r\n\r\nBefore every token transfer we contact the token gouvernance Base contracts so that the can update the tokens used for voting if needed\r\n\r\n */\r\n\r\nimport \"@openzeppelin/contracts-upgradeable/token/ERC20/ERC20Upgradeable.sol\";\r\nimport \"@openzeppelin/contracts-upgradeable/proxy/utils/Initializable.sol\";\r\nimport \"../Libraries/AddressLibrary.sol\";\r\nimport \"../Interfaces/ITokenEventSubscriber.sol\";\r\nimport \"../Base/ManagedBaseContract.sol\";\r\n\r\n contract CertisToken is  Initializable, ManagedBaseContract, ERC20Upgradeable {\r\n    using AddressLibrary for *;\r\n\r\n    // DATA /////////////////////////////////////////\r\n    // decimals\r\n    uint8 private _decimals;\r\n\r\n    // CONSTRUCTOR /////////////////////////////////////////\r\n    function CertisToken_init(string memory name, string memory symbol, uint256 MaxSupply, address managerContractAddress, uint8 decimalsValue, address initialOwner) public initializer {\r\n        super.ManagedBaseContract_init(managerContractAddress);\r\n        super.__ERC20_init(name, symbol);\r\n    \r\n        _decimals = decimalsValue;\r\n        _mint(initialOwner, MaxSupply);\r\n    }\r\n\r\n    // FUNCTIONALITY /////////////////////////////////////////\r\n    function decimals() public view override returns (uint8) \r\n    {\r\n        return _decimals;\r\n    }\r\n\r\n    function _beforeTokenTransfer(address from, address to, uint256 amount) internal override \r\n    {\r\n        if(_managerContract.isInitialized()){\r\n            ITokenEventSubscriber(_managerContract.retrieveTreasuryProxy()).onTokenBalanceChanged(from, to, amount);\r\n            ITokenEventSubscriber(_managerContract.retrievePriceConverterProxy()).onTokenBalanceChanged(from, to, amount);\r\n            ITokenEventSubscriber(address(_managerContract)).onTokenBalanceChanged(from, to, amount);\r\n        } \r\n    }\r\n\r\n }",
  "sourcePath": "C:/Users/d-aam/GitHub/Certificates/contracts/DeployedContracts/CertisToken.sol",
  "compiler": {
    "name": "solc",
    "version": "0.8.7+commit.e28d00a7.Emscripten.clang"
  },
  "schemaVersion": "3.3.4",
  "updatedAt": "2021-10-29T09:25:44.167Z",
  "networkType": "ethereum",
  "devdoc": {
    "kind": "dev",
    "methods": {
      "allowance(address,address)": {
        "details": "See {IERC20-allowance}."
      },
      "approve(address,uint256)": {
        "details": "See {IERC20-approve}. Requirements: - `spender` cannot be the zero address."
      },
      "balanceOf(address)": {
        "details": "See {IERC20-balanceOf}."
      },
      "decimals()": {
        "details": "Returns the number of decimals used to get its user representation. For example, if `decimals` equals `2`, a balance of `505` tokens should be displayed to a user as `5,05` (`505 / 10 ** 2`). Tokens usually opt for a value of 18, imitating the relationship between Ether and Wei. This is the value {ERC20} uses, unless this function is overridden; NOTE: This information is only used for _display_ purposes: it in no way affects any of the arithmetic of the contract, including {IERC20-balanceOf} and {IERC20-transfer}."
      },
      "decreaseAllowance(address,uint256)": {
        "details": "Atomically decreases the allowance granted to `spender` by the caller. This is an alternative to {approve} that can be used as a mitigation for problems described in {IERC20-approve}. Emits an {Approval} event indicating the updated allowance. Requirements: - `spender` cannot be the zero address. - `spender` must have allowance for the caller of at least `subtractedValue`."
      },
      "increaseAllowance(address,uint256)": {
        "details": "Atomically increases the allowance granted to `spender` by the caller. This is an alternative to {approve} that can be used as a mitigation for problems described in {IERC20-approve}. Emits an {Approval} event indicating the updated allowance. Requirements: - `spender` cannot be the zero address."
      },
      "name()": {
        "details": "Returns the name of the token."
      },
      "symbol()": {
        "details": "Returns the symbol of the token, usually a shorter version of the name."
      },
      "totalSupply()": {
        "details": "See {IERC20-totalSupply}."
      },
      "transfer(address,uint256)": {
        "details": "See {IERC20-transfer}. Requirements: - `recipient` cannot be the zero address. - the caller must have a balance of at least `amount`."
      },
      "transferFrom(address,address,uint256)": {
        "details": "See {IERC20-transferFrom}. Emits an {Approval} event indicating the updated allowance. This is not required by the EIP. See the note at the beginning of {ERC20}. Requirements: - `sender` and `recipient` cannot be the zero address. - `sender` must have a balance of at least `amount`. - the caller must have allowance for ``sender``'s tokens of at least `amount`."
      }
    },
    "version": 1
  },
  "userdoc": {
    "kind": "user",
    "methods": {},
    "version": 1
  }
}