{
  "contractName": "CertificatesPoolManager",
  "abi": [
    {
      "inputs": [],
      "stateMutability": "payable",
      "type": "constructor"
    },
    {
      "anonymous": false,
      "inputs": [
        {
          "indexed": false,
          "internalType": "uint256",
          "name": "",
          "type": "uint256"
        },
        {
          "indexed": false,
          "internalType": "address",
          "name": "",
          "type": "address"
        },
        {
          "indexed": false,
          "internalType": "contract MultiSigCertificatesPool",
          "name": "",
          "type": "address"
        }
      ],
      "name": "_NewCertificatesPool",
      "type": "event"
    },
    {
      "anonymous": false,
      "inputs": [
        {
          "indexed": false,
          "internalType": "address",
          "name": "",
          "type": "address"
        }
      ],
      "name": "_SendProposalId",
      "type": "event"
    },
    {
      "inputs": [
        {
          "internalType": "address",
          "name": "PublicPoolAddress",
          "type": "address"
        },
        {
          "internalType": "address",
          "name": "TreasuryAddress",
          "type": "address"
        }
      ],
      "name": "Initialize",
      "outputs": [],
      "stateMutability": "nonpayable",
      "type": "function"
    },
    {
      "inputs": [
        {
          "internalType": "address[]",
          "name": "owners",
          "type": "address[]"
        },
        {
          "internalType": "uint256",
          "name": "minOwners",
          "type": "uint256"
        }
      ],
      "name": "createPrivateCertificatesPool",
      "outputs": [],
      "stateMutability": "payable",
      "type": "function"
    },
    {
      "inputs": [
        {
          "internalType": "uint256",
          "name": "certificatePoolId",
          "type": "uint256"
        }
      ],
      "name": "retrievePrivateCertificatesPool",
      "outputs": [
        {
          "internalType": "address",
          "name": "",
          "type": "address"
        },
        {
          "internalType": "contract MultiSigCertificatesPool",
          "name": "",
          "type": "address"
        }
      ],
      "stateMutability": "view",
      "type": "function"
    },
    {
      "inputs": [],
      "name": "retrieveTotalPrivateCertificatesPool",
      "outputs": [
        {
          "internalType": "uint256",
          "name": "",
          "type": "uint256"
        }
      ],
      "stateMutability": "view",
      "type": "function"
    },
    {
      "inputs": [],
      "name": "retrieveConfiguration",
      "outputs": [
        {
          "internalType": "contract Treasury",
          "name": "",
          "type": "address"
        },
        {
          "internalType": "contract MultiSigCertificatesPool",
          "name": "",
          "type": "address"
        },
        {
          "internalType": "address",
          "name": "",
          "type": "address"
        },
        {
          "internalType": "uint256",
          "name": "",
          "type": "uint256"
        }
      ],
      "stateMutability": "view",
      "type": "function"
    }
  ],
  "bytecode": "0x6080604052600380546001600160a01b031916331790556134af806100256000396000f3fe608060405260043610620000505760003560e01c806360f029c91462000055578063a4a78896146200007f578063d185a52614620000cc578063dc90fed01462000129578063f5807c05146200016a575b600080fd5b3480156200006257600080fd5b506200006d62000213565b60408051918252519081900360200190f35b3480156200008c57600080fd5b506200009762000219565b604080516001600160a01b03958616815293851660208501529190931682820152606082019290925290519081900360800190f35b348015620000d957600080fd5b50620000fa60048036036020811015620000f257600080fd5b503562000238565b60405180836001600160a01b03168152602001826001600160a01b031681526020019250505060405180910390f35b3480156200013657600080fd5b5062000168600480360360408110156200014f57600080fd5b506001600160a01b038135811691602001351662000366565b005b62000168600480360360408110156200018257600080fd5b810190602081018135600160201b8111156200019d57600080fd5b820183602082011115620001b057600080fd5b803590602001918460208302840111600160201b83111715620001d257600080fd5b919080806020026020016040519081016040528093929190818152602001838360200280828437600092019190915250929550509135925062000446915050565b60005490565b6002546001546003546001600160a01b03928316939183169216904790565b6000808260008054905073__Library_______________________________632477a0ea83836040518363ffffffff1660e01b8152600401808381526020018281526020019250505060206040518083038186803b1580156200029a57600080fd5b505af4158015620002af573d6000803e3d6000fd5b505050506040513d6020811015620002c657600080fd5b5051151560011462000305576040805162461bcd60e51b815260206004820152600360248201526245433160e81b604482015290519081900360640190fd5b600085815481106200031357fe5b6000918252602082206002909102015481546001600160a01b039091169190879081106200033d57fe5b60009182526020909120600160029092020101549094506001600160a01b031692505050915091565b6003546001600160a01b03163314620003ba576040805162461bcd60e51b815260206004820152601160248201527037b7363c9031b430b4b9103832b939b7b760791b604482015290519081900360640190fd5b600180546001600160a01b038085166001600160a01b031992831617928390556002805485831693168317905560408051633232ce0d60e21b815260048101939093525192169163c8cb38349160248082019260009290919082900301818387803b1580156200042957600080fd5b505af11580156200043e573d6000803e3d6000fd5b505050505050565b600260009054906101000a90046001600160a01b03166001600160a01b0316637cc850fd346040518263ffffffff1660e01b81526004016000604051808303818588803b1580156200049757600080fd5b505af1158015620004ac573d6000803e3d6000fd5b505050505060008282604051620004c3906200061d565b60208082018390526040808352845190830152835182916060830191868201910280838360005b8381101562000504578181015183820152602001620004ea565b505050509050019350505050604051809103906000f0801580156200052d573d6000803e3d6000fd5b506040805180820182523381526001600160a01b03808416602080840191825260008054600181018255818052855160029091027f290decd9548b62a8d60345a988386fc84ba6bc95484008f6362f93160ef3e563810180549287166001600160a01b0319938416811790915594517f290decd9548b62a8d60345a988386fc84ba6bc95484008f6362f93160ef3e5649091018054919096169116811790945554855160001991909101815290810191909152808401919091529151929350917f9bfff6b81778f7b8086272d62a71be896cfc1876bb5f2e4e1fe28bc4c24159689181900360600190a150505050565b612e4e806200062c8339019056fe600560c09081526427bbb732b960d91b60e0526080908152610140604052600861010090815267283937bb34b232b960c11b6101205260a0526200004890600490600262000333565b5060405162002e4e38038062002e4e8339810160408190526200006b91620004c8565b8181818160026004805480602002602001604051908101604052809291908181526020016000905b82821015620001445760008481526020908190208301805460408051601f60026000196101006001871615020190941693909304928301859004850281018501909152818152928301828280156200012f5780601f1062000103576101008083540402835291602001916200012f565b820191906000526020600020905b8154815290600101906020018083116200011157829003601f168201915b50505050508152602001906001019062000093565b5050505060008451841115620001775760405162461bcd60e51b81526004016200016e906200058e565b60405180910390fd5b600084116200019a5760405162461bcd60e51b81526004016200016e90620005ac565b81518314620001bd5760405162461bcd60e51b81526004016200016e90620005ca565b60008181555b8381101562000228576002805460010181556000528251600390849083908110620001ea57fe5b602090810291909101810151825460018101845560009384529282902081516200021e949190910192919091019062000397565b50600101620001c3565b50600184905560005b8551811015620003235760016002600054815481106200024d57fe5b906000526020600020906004020160000160008884815181106200026d57fe5b60200260200101516001600160a01b03166001600160a01b0316815260200190815260200160002060000160006101000a81548160ff021916908315150217905550600260005481548110620002bf57fe5b9060005260206000209060040201600101868281518110620002dd57fe5b60209081029190910181015182546001808201855560009485529290932090920180546001600160a01b0319166001600160a01b03909316929092179091550162000231565b50505050505050505050620005e8565b82805482825590600052602060002090810192821562000385579160200282015b828111156200038557825180516200037491849160209091019062000397565b509160200191906001019062000354565b506200039392915062000428565b5090565b828054600181600116156101000203166002900490600052602060002090601f016020900481019282620003cf57600085556200041a565b82601f10620003ea57805160ff19168380011785556200041a565b828001600101855582156200041a579182015b828111156200041a578251825591602001919060010190620003fd565b506200039392915062000449565b80821115620003935760006200043f828262000460565b5060010162000428565b5b808211156200039357600081556001016200044a565b50805460018160011615610100020316600290046000825580601f10620004885750620004a8565b601f016020900490600052602060002090810190620004a8919062000449565b50565b80516001600160a01b0381168114620004c357600080fd5b919050565b60008060408385031215620004db578182fd5b82516001600160401b0380821115620004f2578384fd5b818501915085601f83011262000506578384fd5b81516020828211156200051557fe5b808202604051828282010181811086821117156200052f57fe5b604052838152828101945085830182870184018b10156200054e578889fd5b8896505b848710156200057b576200056681620004ab565b86526001969096019594830194830162000552565b5097909101519698969750505050505050565b60208082526004908201526322a1989b60e11b604082015260600190565b6020808252600490820152634543313760e01b604082015260600190565b60208082526004908201526308a8662760e31b604082015260600190565b61285680620005f86000396000f3fe6080604052600436106100d95760003560e01c8063173825d9146100de5780631ab807f8146101005780632f54bf6e146101135780633542758f14610149578063375834991461016957806358a1ba251461019757806365b973e5146101c45780636b074a07146101e65780636b299604146102065780636b3a0fec146102345780636e4f9179146102545780636e55d2d41461027657806377bc5a1f146102965780638a355a57146102b6578063a73db28a146102d6578063a93d5ed6146102f6578063d0a4adfe1461030b578063fc00050014610338575b600080fd5b3480156100ea57600080fd5b506100fe6100f93660046121db565b61034b565b005b6100fe61010e366004612398565b610397565b34801561011f57600080fd5b5061013361012e3660046121db565b6103a5565b6040516101409190612553565b60405180910390f35b34801561015557600080fd5b506100fe6101643660046121f5565b6103bb565b34801561017557600080fd5b506101896101843660046121db565b6103c8565b60405161014092919061255e565b3480156101a357600080fd5b506101b76101b236600461228e565b6103e0565b604051610140919061250f565b3480156101d057600080fd5b506101d9610550565b604051610140919061273c565b3480156101f257600080fd5b506101336102013660046121db565b610556565b34801561021257600080fd5b50610226610221366004612360565b610563565b60405161014092919061249f565b34801561024057600080fd5b5061022661024f366004612360565b610572565b34801561026057600080fd5b50610269610580565b604051610140919061248c565b34801561028257600080fd5b506101d96102913660046121db565b610591565b3480156102a257600080fd5b506101896102b13660046121db565b6105af565b3480156102c257600080fd5b506100fe6102d13660046121db565b6105bf565b3480156102e257600080fd5b506100fe6102f1366004612398565b6105cd565b34801561030257600080fd5b50610269610859565b34801561031757600080fd5b5061032b610326366004612398565b610866565b604051610140919061245e565b6100fe6103463660046121f5565b610893565b600154600161035b60005461089f565b5103808211156103865760405162461bcd60e51b815260040161037d90612632565b60405180910390fd5b610392836000546109d1565b505050565b6103a18282611146565b5050565b60006103b382600054611246565b90505b919050565b6103a18282600054611337565b606060006103d78360016119a6565b91509150915091565b6060826103ec85610591565b116104065750604080516000815260208101909152610549565b81808461041287610591565b031015610427578361042386610591565b0390505b6000816001600160401b038111801561043f57600080fd5b50604051908082528060200260200182016040528015610469578160200160208202803683370190505b506001600160a01b0387166000908152600560209081526040808320600101805482518185028101850190935280835294955092939092918301828280156104d057602002820191906000526020600020905b8154815260200190600101908083116104bc575b5050505050905060008060005b8351811015610540578783106104f257610540565b8189111561050557600182019150610538565b83818151811061051157fe5b602002602001015185848151811061052557fe5b6020026020010181815250506001830192505b6001016104dd565b50929450505050505b9392505050565b60015490565b60006103b3826001611246565b6060806103d783600054611b34565b6060806103d7836001611b34565b606061058c600161089f565b905090565b6001600160a01b031660009081526005602052604090206001015490565b606060006103d7836000546119a6565b6105ca8160016109d1565b50565b6105d633610556565b15156001146105f75760405162461bcd60e51b815260040161037d906126a9565b6001600160a01b03818116600090815260056020908152604080832086845290915290205482918491163314806106365750336001600160a01b038316145b6106525760405162461bcd60e51b815260040161037d9061266d565b6001600160a01b0380841660008181526005602081815260408084208a8552808352818520549585529282526001909201805483518184028101840190945280845294909516949293919291908301828280156106ce57602002820191906000526020600020905b8154815260200190600101908083116106ba575b5050505050905060005b81518110156107e5578181815181106106ed57fe5b60200260200101518714156107dd576001600160a01b038616600090815260056020526040908190209051635b28cf6360e01b815273__Library_______________________________91635b28cf6391610752918591600190910190600401612792565b60006040518083038186803b15801561076a57600080fd5b505af415801561077e573d6000803e3d6000fd5b505050506040513d6000823e601f3d908101601f191682016040526107a691908101906122c0565b6001600160a01b038716600090815260056020908152604090912082516107d7936001909201929190910190612032565b506107e5565b6001016106d8565b506001600160a01b03851660009081526005602090815260408083208984529091529081902080546001600160a01b0319169055517fd12847594abf0621035046f61129f2a9dc5093eb516c6c517ece306362ef6f17906108499084908890612472565b60405180910390a1505050505050565b606061058c60005461089f565b6001600160a01b038082166000908152600560209081526040808320868452909152902054165b92915050565b6103a182826001611337565b60025460405163123bd07560e11b8152606091839173__Library_______________________________90632477a0ea906108e090859085906004016127d5565b60206040518083038186803b1580156108f857600080fd5b505af415801561090c573d6000803e3d6000fd5b505050506040513d601f19601f82011682018060405250810190610930919061237c565b15156001146109515760405162461bcd60e51b815260040161037d906126e4565b6002848154811061095e57fe5b90600052602060002090600402016001018054806020026020016040519081016040528092919081815260200182805480156109c357602002820191906000526020600020905b81546001600160a01b031681526001909101906020018083116109a5575b505050505092505050919050565b60025460405163123bd07560e11b815282919073__Library_______________________________90632477a0ea90610a1090859085906004016127d5565b60206040518083038186803b158015610a2857600080fd5b505af4158015610a3c573d6000803e3d6000fd5b505050506040513d601f19601f82011682018060405250810190610a60919061237c565b1515600114610a815760405162461bcd60e51b815260040161037d906126e4565b83610a8e33600054611246565b151560011480610aa65750336001600160a01b038216145b610ac25760405162461bcd60e51b815260040161037d90612701565b60018585610ad08282611246565b1515600114610af15760405162461bcd60e51b815260040161037d90612615565b600160028881548110610b0057fe5b600091825260208083206001600160a01b038d168452600490920290910181526040918290208251608081018452815460ff1615158152600180830180548651601f600260001995841615610100029590950190921693909304908101869004860283018601909652858252919492938581019391929190830182828015610bc95780601f10610b9e57610100808354040283529160200191610bc9565b820191906000526020600020905b815481529060010190602001808311610bac57829003601f168201915b5050505050815260200160028201805480602002602001604051908101604052809291908181526020018280548015610c2b57602002820191906000526020600020905b81546001600160a01b03168152600190910190602001808311610c0d575b5050505050815260200160038201805480602002602001604051908101604052809291908181526020018280548015610c8d57602002820191906000526020600020905b81546001600160a01b03168152600190910190602001808311610c6f575b505050505081525050816001811115610ca257fe5b610cd657610cb4338260400151611d92565b15610cd15760405162461bcd60e51b815260040161037d90612650565b610d01565b610ce4338260600151611d92565b15610d015760405162461bcd60e51b815260040161037d90612650565b60028981548110610d0e57fe5b600091825260208083206001600160a01b038e168452600490920290910190526040902060030154610d855760028981548110610d4757fe5b60009182526020808320600492909202909101600301805460018101825590835291200180546001600160a01b0319166001600160a01b038c161790555b60028981548110610d9257fe5b600091825260208083206001600160a01b038e168085526004909302018152604083206003018054600181018255908452922090910180546001600160a01b031916339081179091551480610e225750610e2260028a81548110610df257fe5b600091825260208083206001600160a01b038f168452600490920290910190526040902060030154600154611de8565b1561113a57610f26610eaa8b60028c81548110610e3b57fe5b9060005260206000209060040201600101805480602002602001604051908101604052809291908181526020018280548015610ea057602002820191906000526020600020905b81546001600160a01b03168152600190910190602001808311610e82575b5050505050611e03565b60028b81548110610eb757fe5b9060005260206000209060040201600101805480602002602001604051908101604052809291908181526020018280548015610f1c57602002820191906000526020600020905b81546001600160a01b03168152600190910190602001808311610efe575b5050505050611e20565b60028a81548110610f3357fe5b90600052602060002090600402016001019080519060200190610f5792919061207d565b50611053610fd98b60028c81548110610f6c57fe5b9060005260206000209060040201600301805480602002602001604051908101604052809291908181526020018280548015610ea0576020028201919060005260206000209081546001600160a01b03168152600190910190602001808311610e82575050505050611e03565b60028b81548110610fe657fe5b9060005260206000209060040201600301805480602002602001604051908101604052809291908181526020018280548015610f1c576020028201919060005260206000209081546001600160a01b03168152600190910190602001808311610efe575050505050611e20565b60028a8154811061106057fe5b9060005260206000209060040201600301908051906020019061108492919061207d565b506002898154811061109257fe5b600091825260208083206001600160a01b038e1684526004909202909101905260408120805460ff19168155906110cc60018301826120d2565b6110da600283016000612116565b6110e8600383016000612116565b50507f1f62d535f971041db7bd8760bf0f1f9f476461558744a35c0d477b5ad6893e8960038a8154811061111857fe5b906000526020600020018b604051611131929190612582565b60405180910390a15b50505050505050505050565b61114f33610556565b15156001146111705760405162461bcd60e51b815260040161037d906126a9565b816001600160a01b0380831660009081526005602090815260408083208784529091529020548391859116156111b85760405162461bcd60e51b815260040161037d9061268b565b6001600160a01b038416600090815260056020818152604080842089855280835281852080546001600160a01b031916339081179091559383526001908101805491820181558552919093200187905590517f601cb9a073dbfa468ef12878ee6c720641a49b76af7c16099e8c0a1ac3ca79b591611237918790612472565b60405180910390a15050505050565b60025460405163123bd07560e11b8152600091839173__Library_______________________________90632477a0ea9061128790859085906004016127d5565b60206040518083038186803b15801561129f57600080fd5b505af41580156112b3573d6000803e3d6000fd5b505050506040513d601f19601f820116820180604052508101906112d7919061237c565b15156001146112f85760405162461bcd60e51b815260040161037d906126e4565b6002848154811061130557fe5b600091825260208083206001600160a01b038916845260049092029091019052604090205460ff169250505092915050565b60025460405163123bd07560e11b815282919073__Library_______________________________90632477a0ea9061137690859085906004016127d5565b60206040518083038186803b15801561138e57600080fd5b505af41580156113a2573d6000803e3d6000fd5b505050506040513d601f19601f820116820180604052508101906113c6919061237c565b15156001146113e75760405162461bcd60e51b815260040161037d906126e4565b6113f333600054611246565b15156001146114145760405162461bcd60e51b815260040161037d906126c7565b600085846114228282611246565b1561143f5760405162461bcd60e51b815260040161037d9061271f565b60006002878154811061144e57fe5b600091825260208083206001600160a01b038d168452600490920290910181526040918290208251608081018452815460ff1615158152600180830180548651601f6002600019958416156101000295909501909216939093049081018690048602830186019096528582529194929385810193919291908301828280156115175780601f106114ec57610100808354040283529160200191611517565b820191906000526020600020905b8154815290600101906020018083116114fa57829003601f168201915b505050505081526020016002820180548060200260200160405190810160405280929190818152602001828054801561157957602002820191906000526020600020905b81546001600160a01b0316815260019091019060200180831161155b575b50505050508152602001600382018054806020026020016040519081016040528092919081815260200182805480156115db57602002820191906000526020600020905b81546001600160a01b031681526001909101906020018083116115bd575b5050505050815250508160018111156115f057fe5b61162457611602338260400151611d92565b1561161f5760405162461bcd60e51b815260040161037d90612650565b61164f565b611632338260600151611d92565b1561164f5760405162461bcd60e51b815260040161037d90612650565b6002888154811061165c57fe5b600091825260208083206001600160a01b038e16845260049092029091019052604090206002015461171d57886002898154811061169657fe5b600091825260208083206001600160a01b038f16845260049092029091018152604090912082516116d1936001909201929190910190612134565b50600288815481106116df57fe5b60009182526020808320600492909202909101600201805460018101825590835291200180546001600160a01b0319166001600160a01b038c161790555b6002888154811061172a57fe5b600091825260208083206001600160a01b038e168452600490920290910181526040822060029081018054600181018255908452919092200180546001600160a01b0319163317905580546117b491908a90811061178457fe5b600091825260208083206001600160a01b038f168452600490920290910190526040902060020154600154611de8565b1561113a576001600289815481106117c857fe5b600091825260208083206001600160a01b038f168452600492909202909101905260409020805460ff1916911515919091179055600280548990811061180a57fe5b60009182526020808320600160049093020182018054928301815583529091200180546001600160a01b038c166001600160a01b031990911617905560028054611946916118cc918d91908c90811061185f57fe5b9060005260206000209060040201600201805480602002602001604051908101604052809291908181526020018280548015610ea0576020028201919060005260206000209081546001600160a01b03168152600190910190602001808311610e82575050505050611e03565b60028a815481106118d957fe5b9060005260206000209060040201600201805480602002602001604051908101604052809291908181526020018280548015610f1c576020028201919060005260206000209081546001600160a01b03168152600190910190602001808311610efe575050505050611e20565b6002898154811061195357fe5b9060005260206000209060040201600201908051906020019061197792919061207d565b507f3c139d46a211844e248647688545a37c07c505c999c1232d1247c707dc0a91e26003898154811061111857fe5b60025460405163123bd07560e11b815260609160009184919073__Library_______________________________90632477a0ea906119eb90859085906004016127d5565b60206040518083038186803b158015611a0357600080fd5b505af4158015611a17573d6000803e3d6000fd5b505050506040513d601f19601f82011682018060405250810190611a3b919061237c565b1515600114611a5c5760405162461bcd60e51b815260040161037d906126e4565b60028581548110611a6957fe5b600091825260208083206001600160a01b038a1684526004909202909101905260409020600101611a9a8787611246565b8154604080516020601f60026000196101006001881615020190951694909404938401819004810282018101909252828152918491830182828015611b205780601f10611af557610100808354040283529160200191611b20565b820191906000526020600020905b815481529060010190602001808311611b0357829003601f168201915b505050505091509350935050509250929050565b60025460405163123bd07560e11b8152606091829184919073__Library_______________________________90632477a0ea90611b7890859085906004016127d5565b60206040518083038186803b158015611b9057600080fd5b505af4158015611ba4573d6000803e3d6000fd5b505050506040513d601f19601f82011682018060405250810190611bc8919061237c565b1515600114611be95760405162461bcd60e51b815260040161037d906126e4565b60608615611c6f5760028681548110611bfe57fe5b9060005260206000209060040201600201805480602002602001604051908101604052809291908181526020018280548015611c6357602002820191906000526020600020905b81546001600160a01b03168152600190910190602001808311611c45575b50505050509050611ce9565b60028681548110611c7c57fe5b9060005260206000209060040201600301805480602002602001604051908101604052809291908181526020018280548015611ce157602002820191906000526020600020905b81546001600160a01b03168152600190910190602001808311611cc3575b505050505090505b6002546000906001600160401b0381118015611d0457600080fd5b50604051908082528060200260200182016040528015611d3857816020015b6060815260200190600190039081611d235790505b50905060005b8251811015611d8457611d64838281518110611d5657fe5b6020026020010151896119a6565b50828281518110611d7157fe5b6020908102919091010152600101611d3e565b509097909650945050505050565b6000805b8251811015611dde57828181518110611dab57fe5b60200260200101516001600160a01b0316846001600160a01b03161415611dd657600191505061088d565b600101611d96565b5060009392505050565b600081831015611dfa5750600061088d565b50600192915050565b60006105496001600160a01b038416611e1b84611ebf565b611f59565b606061054973__Library_______________________________635b28cf6385611e4986611ebf565b6040518363ffffffff1660e01b8152600401611e66929190612745565b60006040518083038186803b158015611e7e57600080fd5b505af4158015611e92573d6000803e3d6000fd5b505050506040513d6000823e601f3d908101601f19168201604052611eba91908101906122c0565b611f9b565b6060600082516001600160401b0381118015611eda57600080fd5b50604051908082528060200260200182016040528015611f04578160200160208202803683370190505b50905060005b8151811015611f5257838181518110611f1f57fe5b60200260200101516001600160a01b031660001b828281518110611f3f57fe5b6020908102919091010152600101611f0a565b5092915050565b6000805b8251811015611f9057828181518110611f7257fe5b6020026020010151841415611f8857905061088d565b600101611f5d565b505051600101919050565b6060600082516001600160401b0381118015611fb657600080fd5b50604051908082528060200260200182016040528015611fe0578160200160208202803683370190505b50905060005b8151811015611f5257838181518110611ffb57fe5b602002602001015160001c82828151811061201257fe5b6001600160a01b0390921660209283029190910190910152600101611fe6565b82805482825590600052602060002090810192821561206d579160200282015b8281111561206d578251825591602001919060010190612052565b506120799291506121af565b5090565b82805482825590600052602060002090810192821561206d579160200282015b8281111561206d57825182546001600160a01b0319166001600160a01b0390911617825560209092019160019091019061209d565b50805460018160011615610100020316600290046000825580601f106120f857506105ca565b601f0160209004906000526020600020908101906105ca91906121af565b50805460008255906000526020600020908101906105ca91906121af565b828054600181600116156101000203166002900490600052602060002090601f01602090048101928261216a576000855561206d565b82601f1061218357805160ff191683800117855561206d565b8280016001018555821561206d579182018281111561206d578251825591602001919060010190612052565b5b8082111561207957600081556001016121b0565b80356001600160a01b03811681146103b657600080fd5b6000602082840312156121ec578081fd5b610549826121c4565b60008060408385031215612207578081fd5b612210836121c4565b91506020838101356001600160401b038082111561222c578384fd5b818601915086601f83011261223f578384fd5b81358181111561224b57fe5b61225d601f8201601f191685016127e3565b91508082528784828501011115612272578485fd5b8084840185840137810190920192909252919491935090915050565b6000806000606084860312156122a2578081fd5b6122ab846121c4565b95602085013595506040909401359392505050565b600060208083850312156122d2578182fd5b82516001600160401b03808211156122e8578384fd5b818501915085601f8301126122fb578384fd5b81518181111561230757fe5b83810291506123178483016127e3565b8181528481019084860184860187018a1015612331578788fd5b8795505b83861015612353578051835260019590950194918601918601612335565b5098975050505050505050565b600060208284031215612371578081fd5b813561054981612812565b60006020828403121561238d578081fd5b815161054981612812565b600080604083850312156123aa578182fd5b823591506123ba602084016121c4565b90509250929050565b6001600160a01b03169052565b6000815180845260208085019450808401835b838110156124085781516001600160a01b0316875295820195908201906001016123e3565b509495945050505050565b60008151808452815b818110156124385760208185018101518683018201520161241c565b818111156124495782602083870101525b50601f01601f19169290920160200192915050565b6001600160a01b0391909116815260200190565b6001600160a01b0392831681529116602082015260400190565b60006020825261054960208301846123d0565b6000604082526124b260408301856123d0565b602083820381850152818551808452828401915082838202850101838801865b8381101561250057601f198784030185526124ee838351612413565b948601949250908501906001016124d2565b50909998505050505050505050565b6020808252825182820181905260009190848201906040850190845b818110156125475783518352928401929184019160010161252b565b50909695505050505050565b901515815260200190565b6000604082526125716040830185612413565b905082151560208301529392505050565b600060408201604083528185546001808216600081146125a957600181146125c757612600565b60028304607f16855260ff1983166060880152608087019350612600565b600283048086526125d78a612806565b875b828110156125f65781548a820160600152908401906020016125d9565b8901606001955050505b505050809250505061054960208301846123c3565b60208082526003908201526245433760e81b604082015260600190565b6020808252600490820152634543313960e01b604082015260600190565b60208082526003908201526245433560e81b604082015260600190565b6020808252600490820152631150cc4d60e21b604082015260600190565b6020808252600490820152634543313560e01b604082015260600190565b60208082526004908201526322a1989960e11b604082015260600190565b60208082526003908201526245433960e81b604082015260600190565b60208082526003908201526245433160e81b604082015260600190565b6020808252600490820152630454331360e41b604082015260600190565b60208082526003908201526222a19b60e91b604082015260600190565b90815260200190565b60006040820184835260206040818501528185518084526060860191508287019350845b8181101561278557845183529383019391830191600101612769565b5090979650505050505050565b60006040820184835260206040818501528185548084526060860191508685528285209350845b81811015612785578454835260019485019492840192016127b9565b918252602082015260400190565b6040518181016001600160401b03811182821017156127fe57fe5b604052919050565b60009081526020902090565b80151581146105ca57600080fdfea2646970667358221220fc61f8f97b1b569e28c205e57361e23a79fb7c404b61d425c2bdf66e4a44e47e64736f6c63430007060033a2646970667358221220da14d56906126efab500903a8f86f7c3fc955022016e07095e19c517c09a9b6864736f6c63430007060033",
  "immutableReferences": {},
  "source": "// SPDX-License-Identifier: GPL-3.0\r\n\r\npragma solidity >=0.7.0 <0.9.0;\r\n\r\n/**\r\n * @title Storage\r\n * @dev Store & retrieve value in a variable\r\n */\r\n\r\nimport \"./Libraries/Library.sol\";\r\nimport \"./PrivateCertificatesPool.sol\";\r\nimport \"./PublicCertificatesPool.sol\";\r\nimport \"./Treasury.sol\";\r\n\r\ncontract CertificatesPoolManager{\r\n    using Library for *;\r\n\r\n    // events\r\n    event _NewCertificatesPool(uint256, address, MultiSigCertificatesPool);\r\n    event _SendProposalId(address);\r\n\r\n    // modfiers\r\n    modifier isIdCorrect(uint Id, uint length){\r\n        require(true == Library.IdCorrect(Id, length), \"EC1\");\r\n        _;\r\n    }\r\n\r\n    modifier isFromChairPerson(){\r\n        require(msg.sender == _chairperson, \"only chair person\");\r\n        _;\r\n    }\r\n    \r\n    // Private Certificates Pool structure\r\n    struct _privateCertificatesPoolStruct{\r\n        address _creator;\r\n        PrivateCertificatesPool _PrivateCertificatesPool;\r\n    } \r\n\r\n    _privateCertificatesPoolStruct[] _PrivateCertificatesPools;\r\n    \r\n    // Public Certificates Pool structure\r\n    PublicCertificatesPool  _PublicCertificatesPool;\r\n\r\n    // Treasury\r\n    Treasury _Treasury;\r\n\r\n    address payable _chairperson;\r\n    \r\n    constructor() payable{\r\n        _chairperson = payable(msg.sender); \r\n    }\r\n\r\n    function Initialize(address PublicPoolAddress, address TreasuryAddress) \r\n        isFromChairPerson()\r\n    external{\r\n        _PublicCertificatesPool = PublicCertificatesPool(PublicPoolAddress);\r\n        _Treasury = Treasury(TreasuryAddress);\r\n        _PublicCertificatesPool.addTreasury(TreasuryAddress);\r\n    }\r\n\r\n    function createPrivateCertificatesPool(address[] memory owners,  uint256 minOwners) external\r\n    payable\r\n    {\r\n        _Treasury.payForNewPool{value:msg.value}();\r\n        PrivateCertificatesPool certificatePool = new PrivateCertificatesPool(owners, minOwners);\r\n        _privateCertificatesPoolStruct memory privateCertificatesPool = _privateCertificatesPoolStruct(msg.sender, certificatePool);\r\n        _PrivateCertificatesPools.push(privateCertificatesPool);\r\n\r\n        emit _NewCertificatesPool(_PrivateCertificatesPools.length - 1, privateCertificatesPool._creator, privateCertificatesPool._PrivateCertificatesPool);\r\n    }\r\n\r\n    function retrievePrivateCertificatesPool(uint certificatePoolId) external\r\n        isIdCorrect(certificatePoolId, _PrivateCertificatesPools.length)\r\n    view returns (address, MultiSigCertificatesPool)\r\n    {\r\n        return(_PrivateCertificatesPools[certificatePoolId]._creator, _PrivateCertificatesPools[certificatePoolId]._PrivateCertificatesPool);\r\n    }\r\n\r\n    function retrieveTotalPrivateCertificatesPool() external view returns (uint)\r\n    {\r\n        return(_PrivateCertificatesPools.length);\r\n    }\r\n    \r\n    function retrieveConfiguration() external view returns (Treasury, MultiSigCertificatesPool, address, uint) {\r\n        return (_Treasury, _PublicCertificatesPool, _chairperson, address(this).balance);\r\n    }\r\n    \r\n}",
  "sourcePath": "C:/Users/d-aam/GitHub/Certificates/contracts/CertificatesPoolManager.sol",
  "compiler": {
    "name": "solc",
    "version": "0.7.6+commit.7338295f.Emscripten.clang"
  },
  "schemaVersion": "3.3.4",
  "updatedAt": "2021-07-19T08:58:29.283Z",
  "devdoc": {
    "kind": "dev",
    "methods": {},
    "version": 1
  },
  "userdoc": {
    "kind": "user",
    "methods": {},
    "version": 1
  }
}