{
  "contractName": "CertificatesPoolManager",
  "abi": [
    {
      "inputs": [
        {
          "internalType": "uint256",
          "name": "PropositionLifeTime",
          "type": "uint256"
        },
        {
          "internalType": "uint8",
          "name": "PropositionThresholdPercentage",
          "type": "uint8"
        },
        {
          "internalType": "uint8",
          "name": "minWeightToProposePercentage",
          "type": "uint8"
        }
      ],
      "stateMutability": "nonpayable",
      "type": "constructor"
    },
    {
      "anonymous": false,
      "inputs": [
        {
          "indexed": false,
          "internalType": "uint256",
          "name": "",
          "type": "uint256"
        },
        {
          "indexed": true,
          "internalType": "address",
          "name": "",
          "type": "address"
        },
        {
          "indexed": false,
          "internalType": "uint256",
          "name": "",
          "type": "uint256"
        },
        {
          "indexed": false,
          "internalType": "uint256",
          "name": "",
          "type": "uint256"
        }
      ],
      "name": "_AddedProposition",
      "type": "event"
    },
    {
      "anonymous": false,
      "inputs": [
        {
          "indexed": false,
          "internalType": "uint256",
          "name": "",
          "type": "uint256"
        },
        {
          "indexed": true,
          "internalType": "address",
          "name": "",
          "type": "address"
        }
      ],
      "name": "_CancelledProposition",
      "type": "event"
    },
    {
      "anonymous": false,
      "inputs": [
        {
          "indexed": false,
          "internalType": "address",
          "name": "",
          "type": "address"
        },
        {
          "indexed": false,
          "internalType": "address",
          "name": "",
          "type": "address"
        },
        {
          "indexed": false,
          "internalType": "address",
          "name": "",
          "type": "address"
        },
        {
          "indexed": false,
          "internalType": "address",
          "name": "",
          "type": "address"
        },
        {
          "indexed": false,
          "internalType": "address",
          "name": "",
          "type": "address"
        },
        {
          "indexed": false,
          "internalType": "address",
          "name": "",
          "type": "address"
        },
        {
          "indexed": false,
          "internalType": "address",
          "name": "",
          "type": "address"
        }
      ],
      "name": "_NewContracts",
      "type": "event"
    },
    {
      "anonymous": false,
      "inputs": [
        {
          "indexed": false,
          "internalType": "uint256",
          "name": "",
          "type": "uint256"
        },
        {
          "indexed": true,
          "internalType": "address",
          "name": "",
          "type": "address"
        },
        {
          "indexed": false,
          "internalType": "uint256",
          "name": "",
          "type": "uint256"
        },
        {
          "indexed": false,
          "internalType": "uint256",
          "name": "",
          "type": "uint256"
        }
      ],
      "name": "_PropositionApproved",
      "type": "event"
    },
    {
      "anonymous": false,
      "inputs": [
        {
          "indexed": false,
          "internalType": "uint256",
          "name": "",
          "type": "uint256"
        },
        {
          "indexed": true,
          "internalType": "address",
          "name": "",
          "type": "address"
        },
        {
          "indexed": false,
          "internalType": "uint256",
          "name": "",
          "type": "uint256"
        },
        {
          "indexed": false,
          "internalType": "uint256",
          "name": "",
          "type": "uint256"
        }
      ],
      "name": "_PropositionRejected",
      "type": "event"
    },
    {
      "anonymous": false,
      "inputs": [
        {
          "indexed": false,
          "internalType": "uint256",
          "name": "",
          "type": "uint256"
        },
        {
          "indexed": true,
          "internalType": "address",
          "name": "",
          "type": "address"
        },
        {
          "indexed": false,
          "internalType": "bool",
          "name": "",
          "type": "bool"
        },
        {
          "indexed": false,
          "internalType": "uint256",
          "name": "",
          "type": "uint256"
        }
      ],
      "name": "_PropositionVote",
      "type": "event"
    },
    {
      "anonymous": false,
      "inputs": [
        {
          "indexed": true,
          "internalType": "uint256",
          "name": "",
          "type": "uint256"
        },
        {
          "indexed": false,
          "internalType": "address",
          "name": "",
          "type": "address"
        },
        {
          "indexed": false,
          "internalType": "address",
          "name": "",
          "type": "address"
        },
        {
          "indexed": false,
          "internalType": "uint256",
          "name": "",
          "type": "uint256"
        }
      ],
      "name": "_UsedTokensTransfered",
      "type": "event"
    },
    {
      "inputs": [],
      "name": "cancelProposition",
      "outputs": [],
      "stateMutability": "nonpayable",
      "type": "function"
    },
    {
      "inputs": [
        {
          "internalType": "address",
          "name": "from",
          "type": "address"
        },
        {
          "internalType": "address",
          "name": "to",
          "type": "address"
        },
        {
          "internalType": "uint256",
          "name": "amount",
          "type": "uint256"
        }
      ],
      "name": "onTokenBalanceChanged",
      "outputs": [],
      "stateMutability": "nonpayable",
      "type": "function"
    },
    {
      "inputs": [],
      "name": "retrievePendingPropConfig",
      "outputs": [
        {
          "internalType": "uint256",
          "name": "",
          "type": "uint256"
        },
        {
          "internalType": "uint8",
          "name": "",
          "type": "uint8"
        },
        {
          "internalType": "uint8",
          "name": "",
          "type": "uint8"
        },
        {
          "internalType": "bool",
          "name": "",
          "type": "bool"
        }
      ],
      "stateMutability": "view",
      "type": "function",
      "constant": true
    },
    {
      "inputs": [],
      "name": "retrievePropConfig",
      "outputs": [
        {
          "internalType": "uint256",
          "name": "",
          "type": "uint256"
        },
        {
          "internalType": "uint8",
          "name": "",
          "type": "uint8"
        },
        {
          "internalType": "uint8",
          "name": "",
          "type": "uint8"
        }
      ],
      "stateMutability": "view",
      "type": "function",
      "constant": true
    },
    {
      "inputs": [],
      "name": "retrievePropositionStatus",
      "outputs": [
        {
          "internalType": "address",
          "name": "",
          "type": "address"
        },
        {
          "internalType": "uint256",
          "name": "",
          "type": "uint256"
        },
        {
          "internalType": "uint256",
          "name": "",
          "type": "uint256"
        },
        {
          "internalType": "uint256",
          "name": "",
          "type": "uint256"
        },
        {
          "internalType": "uint256",
          "name": "",
          "type": "uint256"
        }
      ],
      "stateMutability": "view",
      "type": "function",
      "constant": true
    },
    {
      "inputs": [
        {
          "internalType": "uint256",
          "name": "PropLifeTime",
          "type": "uint256"
        },
        {
          "internalType": "uint8",
          "name": "PropThresholdPerc",
          "type": "uint8"
        },
        {
          "internalType": "uint8",
          "name": "minWeightToPropPerc",
          "type": "uint8"
        }
      ],
      "name": "updateProp",
      "outputs": [],
      "stateMutability": "nonpayable",
      "type": "function"
    },
    {
      "inputs": [
        {
          "internalType": "bool",
          "name": "vote",
          "type": "bool"
        }
      ],
      "name": "voteProposition",
      "outputs": [],
      "stateMutability": "nonpayable",
      "type": "function"
    },
    {
      "inputs": [
        {
          "components": [
            {
              "internalType": "address",
              "name": "NewPublicPoolAddress",
              "type": "address"
            },
            {
              "internalType": "address",
              "name": "NewTreasuryAddress",
              "type": "address"
            },
            {
              "internalType": "address",
              "name": "NewCertisTokenAddress",
              "type": "address"
            },
            {
              "internalType": "address",
              "name": "NewPrivatePoolFactoryAddress",
              "type": "address"
            },
            {
              "internalType": "address",
              "name": "NewPrivatePoolAddress",
              "type": "address"
            },
            {
              "internalType": "address",
              "name": "NewProviderFactoryAddress",
              "type": "address"
            },
            {
              "internalType": "address",
              "name": "NewProviderAddress",
              "type": "address"
            },
            {
              "internalType": "bytes",
              "name": "NewPublicPoolData",
              "type": "bytes"
            },
            {
              "internalType": "bytes",
              "name": "NewTreasuryData",
              "type": "bytes"
            },
            {
              "internalType": "bytes",
              "name": "NewCertisTokenData",
              "type": "bytes"
            },
            {
              "internalType": "bytes",
              "name": "NewPrivatePoolFactoryData",
              "type": "bytes"
            },
            {
              "internalType": "bytes",
              "name": "NewProviderFactoryData",
              "type": "bytes"
            }
          ],
          "internalType": "struct Library.ProposedContractsStruct",
          "name": "initialContracts",
          "type": "tuple"
        }
      ],
      "name": "InitializeContracts",
      "outputs": [],
      "stateMutability": "nonpayable",
      "type": "function"
    },
    {
      "inputs": [
        {
          "components": [
            {
              "internalType": "address",
              "name": "NewPublicPoolAddress",
              "type": "address"
            },
            {
              "internalType": "address",
              "name": "NewTreasuryAddress",
              "type": "address"
            },
            {
              "internalType": "address",
              "name": "NewCertisTokenAddress",
              "type": "address"
            },
            {
              "internalType": "address",
              "name": "NewPrivatePoolFactoryAddress",
              "type": "address"
            },
            {
              "internalType": "address",
              "name": "NewPrivatePoolAddress",
              "type": "address"
            },
            {
              "internalType": "address",
              "name": "NewProviderFactoryAddress",
              "type": "address"
            },
            {
              "internalType": "address",
              "name": "NewProviderAddress",
              "type": "address"
            },
            {
              "internalType": "bytes",
              "name": "NewPublicPoolData",
              "type": "bytes"
            },
            {
              "internalType": "bytes",
              "name": "NewTreasuryData",
              "type": "bytes"
            },
            {
              "internalType": "bytes",
              "name": "NewCertisTokenData",
              "type": "bytes"
            },
            {
              "internalType": "bytes",
              "name": "NewPrivatePoolFactoryData",
              "type": "bytes"
            },
            {
              "internalType": "bytes",
              "name": "NewProviderFactoryData",
              "type": "bytes"
            }
          ],
          "internalType": "struct Library.ProposedContractsStruct",
          "name": "UpgradeProposition",
          "type": "tuple"
        }
      ],
      "name": "upgradeContracts",
      "outputs": [],
      "stateMutability": "nonpayable",
      "type": "function"
    },
    {
      "inputs": [],
      "name": "retrieveProposition",
      "outputs": [
        {
          "internalType": "bytes32[]",
          "name": "",
          "type": "bytes32[]"
        }
      ],
      "stateMutability": "view",
      "type": "function",
      "constant": true
    },
    {
      "inputs": [],
      "name": "retrievePublicCertificatePoolProxy",
      "outputs": [
        {
          "internalType": "address",
          "name": "",
          "type": "address"
        }
      ],
      "stateMutability": "view",
      "type": "function",
      "constant": true
    },
    {
      "inputs": [],
      "name": "retrieveTreasuryProxy",
      "outputs": [
        {
          "internalType": "address",
          "name": "",
          "type": "address"
        }
      ],
      "stateMutability": "view",
      "type": "function",
      "constant": true
    },
    {
      "inputs": [],
      "name": "retrieveCertisTokenProxy",
      "outputs": [
        {
          "internalType": "address",
          "name": "",
          "type": "address"
        }
      ],
      "stateMutability": "view",
      "type": "function",
      "constant": true
    },
    {
      "inputs": [],
      "name": "retrievePrivatePoolFactoryProxy",
      "outputs": [
        {
          "internalType": "address",
          "name": "",
          "type": "address"
        }
      ],
      "stateMutability": "view",
      "type": "function",
      "constant": true
    },
    {
      "inputs": [],
      "name": "retrievePrivatePoolBeacon",
      "outputs": [
        {
          "internalType": "address",
          "name": "",
          "type": "address"
        }
      ],
      "stateMutability": "view",
      "type": "function",
      "constant": true
    },
    {
      "inputs": [],
      "name": "retrieveProviderFactoryProxy",
      "outputs": [
        {
          "internalType": "address",
          "name": "",
          "type": "address"
        }
      ],
      "stateMutability": "view",
      "type": "function",
      "constant": true
    },
    {
      "inputs": [],
      "name": "retrieveProviderBeacon",
      "outputs": [
        {
          "internalType": "address",
          "name": "",
          "type": "address"
        }
      ],
      "stateMutability": "view",
      "type": "function",
      "constant": true
    },
    {
      "inputs": [],
      "name": "retrievePublicCertificatePool",
      "outputs": [
        {
          "internalType": "address",
          "name": "",
          "type": "address"
        }
      ],
      "stateMutability": "view",
      "type": "function",
      "constant": true
    },
    {
      "inputs": [],
      "name": "retrieveTreasury",
      "outputs": [
        {
          "internalType": "address",
          "name": "",
          "type": "address"
        }
      ],
      "stateMutability": "view",
      "type": "function",
      "constant": true
    },
    {
      "inputs": [],
      "name": "retrieveCertisToken",
      "outputs": [
        {
          "internalType": "address",
          "name": "",
          "type": "address"
        }
      ],
      "stateMutability": "view",
      "type": "function",
      "constant": true
    },
    {
      "inputs": [],
      "name": "retrievePrivatePoolFactory",
      "outputs": [
        {
          "internalType": "address",
          "name": "",
          "type": "address"
        }
      ],
      "stateMutability": "view",
      "type": "function",
      "constant": true
    },
    {
      "inputs": [],
      "name": "retrievePrivatePool",
      "outputs": [
        {
          "internalType": "address",
          "name": "",
          "type": "address"
        }
      ],
      "stateMutability": "view",
      "type": "function",
      "constant": true
    },
    {
      "inputs": [],
      "name": "retrieveProviderFactory",
      "outputs": [
        {
          "internalType": "address",
          "name": "",
          "type": "address"
        }
      ],
      "stateMutability": "view",
      "type": "function",
      "constant": true
    },
    {
      "inputs": [],
      "name": "retrieveProvider",
      "outputs": [
        {
          "internalType": "address",
          "name": "",
          "type": "address"
        }
      ],
      "stateMutability": "view",
      "type": "function",
      "constant": true
    },
    {
      "inputs": [],
      "name": "isInitialized",
      "outputs": [
        {
          "internalType": "bool",
          "name": "",
          "type": "bool"
        }
      ],
      "stateMutability": "view",
      "type": "function",
      "constant": true
    }
  ],
  "bytecode": "0x60806040523480156200001157600080fd5b50604051620050b3380380620050b3833981016040819052620000349162000875565b6200004e8383833330620000b060201b62000ef31760201c565b6040516200005c90620007ac565b604051809103906000f08015801562000079573d6000803e3d6000fd5b50600e80546001600160a01b0319166001600160a01b039290921691909117905550506021805460ff60a01b1916905550620009f4565b600054610100900460ff1680620000ca575060005460ff16155b620000f25760405162461bcd60e51b8152600401620000e990620008d5565b60405180910390fd5b600054610100900460ff1615801562000115576000805461ffff19166101011790555b6200012b826200017760201b62000fa61760201c565b600180546001600160a01b0319166001600160a01b03851617815560006008556200015c908790879087906200020c565b80156200016f576000805461ff00191690555b505050505050565b600054610100900460ff168062000191575060005460ff16155b620001b05760405162461bcd60e51b8152600401620000e990620008d5565b600054610100900460ff16158015620001d3576000805461ffff19166101011790555b6000805462010000600160b01b031916620100006001600160a01b03851602179055801562000208576000805461ff00191690555b5050565b82828160ff1660641015620002355760405162461bcd60e51b8152600401620000e990620008b6565b8060ff16606410156200025c5760405162461bcd60e51b8152600401620000e990620008b6565b82156200028957600a869055600b805460ff8681166101000261ffff19909216908816171790556200016f565b600c869055600d805460ff8681166101000261ffff1990921690881617179055600b805462ff0000191662010000179055600a546200016f90620002ce904262000923565b600b5460ff166000620002e062000416565b15620003175760405162461bcd60e51b8152602060048201526005602482015264454332342d60d81b6044820152606401620000e9565b62000322336200047b565b15156001146200035d5760405162461bcd60e51b8152602060048201526005602482015264454332322d60d81b6044820152606401620000e9565b600380546001600160a01b031916331790556004839055606460ff831662000384620004fa565b62000390919062000961565b6200039c91906200093e565b600555600880546002819055906000620003b683620009c0565b909155505060035460025460045460055460408051938452602084019290925282820152516001600160a01b03909216917f472501d19bf75639b2e316cd36f8568b0c3ab943b82a87de3c086c98c1929df99181900360600190a2505050565b6004546000904210156200042a5750600190565b6003546001600160a01b031615620004755762000446620005fe565b6200047560006002819055600380546001600160a01b0319169055600481905560058190556006819055600755565b50600090565b6001546000906001600160a01b03838116911614156200049d57506001919050565b6000620004aa836200060a565b90506064620004b8620004fa565b600b54620004cf9190610100900460ff1662000961565b620004db91906200093e565b811115620004ec5750600192915050565b50600092915050565b919050565b60008060029054906101000a90046001600160a01b03166001600160a01b031663da3dce266040518163ffffffff1660e01b815260040160206040518083038186803b1580156200054a57600080fd5b505afa1580156200055f573d6000803e3d6000fd5b505050506040513d601f19601f8201168201806040525081019062000585919062000829565b6001600160a01b03166318160ddd6040518163ffffffff1660e01b815260040160206040518083038186803b158015620005be57600080fd5b505afa158015620005d3573d6000803e3d6000fd5b505050506040513d601f19601f82011682018060405250810190620005f991906200085b565b905090565b620006086200071a565b565b60008060029054906101000a90046001600160a01b03166001600160a01b031663da3dce266040518163ffffffff1660e01b815260040160206040518083038186803b1580156200065a57600080fd5b505afa1580156200066f573d6000803e3d6000fd5b505050506040513d601f19601f8201168201806040525081019062000695919062000829565b6040516370a0823160e01b81526001600160a01b03848116600483015291909116906370a082319060240160206040518083038186803b158015620006d957600080fd5b505afa158015620006ee573d6000803e3d6000fd5b505050506040513d601f19601f820116820180604052508101906200071491906200085b565b92915050565b600f80546001600160a01b031990811682556010805482169055601180548216905560128054821690556013805482169055601480548216905560158054909116905560006200076c601682620007ba565b6200077c600883016000620007ba565b6200078c600983016000620007ba565b6200079c600a83016000620007ba565b62000208600b83016000620007ba565b6107bd80620048f683390190565b508054620007c89062000983565b6000825580601f10620007d9575050565b601f016020900490600052602060002090810190620007f99190620007fc565b50565b5b80821115620008135760008155600101620007fd565b5090565b805160ff81168114620004f557600080fd5b6000602082840312156200083c57600080fd5b81516001600160a01b03811681146200085457600080fd5b9392505050565b6000602082840312156200086e57600080fd5b5051919050565b6000806000606084860312156200088b57600080fd5b835192506200089d6020850162000817565b9150620008ad6040850162000817565b90509250925092565b602080825260059082015264454332312d60d81b604082015260600190565b6020808252602e908201527f496e697469616c697a61626c653a20636f6e747261637420697320616c72656160408201526d191e481a5b9a5d1a585b1a5e995960921b606082015260800190565b60008219821115620009395762000939620009de565b500190565b6000826200095c57634e487b7160e01b600052601260045260246000fd5b500490565b60008160001904831182151516156200097e576200097e620009de565b500290565b600181811c908216806200099857607f821691505b60208210811415620009ba57634e487b7160e01b600052602260045260246000fd5b50919050565b6000600019821415620009d757620009d7620009de565b5060010190565b634e487b7160e01b600052601160045260246000fd5b613ef28062000a046000396000f3fe60806040523480156200001157600080fd5b50600436106200014e5760003560e01c8063029b9673146200015357806322d929e11462000175578063392e53cd146200017f5780633c65d427146200019d5780633c7df55d14620001af5780634b19aa1614620001c857806355457ee914620001d25780635773bc2314620001dc5780635a3794e914620001ee5780636771717714620002005780637c2364a9146200020a5780637c2f3aaf1462000221578063840f6d17146200023357806390d138ed146200027557806391f9167114620002ac578063a42e133914620002c3578063a93316f514620002cd578063aa33380a14620002e6578063ac2bb44214620002f8578063bfd63f0c146200030f578063c50ec82b1462000326578063d660ab341462000330578063da3dce26146200035d578063efd15d17146200036f578063f5ad9acc1462000379575b600080fd5b6200015d6200038b565b6040516200016c919062002433565b60405180910390f35b6200015d620003aa565b602154600160a01b900460ff1660405190151581526020016200016c565b601b546001600160a01b03166200015d565b620001c6620001c036600462002314565b620003c4565b005b6200015d62000519565b620001c662000525565b601d546001600160a01b03166200015d565b6020546001600160a01b03166200015d565b6200015d62000663565b620001c66200021b366004620023b4565b6200067d565b601c546001600160a01b03166200015d565b600354600454600554600654600754604080516001600160a01b0390961686526020860194909452928401919091526060830152608082015260a0016200016c565b6200027f620006b1565b6040516200016c949392919093845260ff9283166020850152911660408301521515606082015260800190565b620001c6620002bd3660046200235a565b6200070f565b6200015d62000847565b620002d762000861565b6040516200016c919062002493565b601f546001600160a01b03166200015d565b620001c662000309366004620023f2565b62000d9d565b620001c662000320366004620023b4565b62000dac565b6200015d62000ecd565b600a54600b546040805192835260ff8083166020850152610100909204909116908201526060016200016c565b6021546001600160a01b03166200015d565b6200015d62000ed9565b601e546001600160a01b03166200015d565b602154600090620003a5906001600160a01b03166200103b565b905090565b601d54600090620003a5906001600160a01b03166200103b565b73__Library_______________________________63d1d719d0600060029054906101000a90046001600160a01b03166001600160a01b031663da3dce266040518163ffffffff1660e01b815260040160206040518083038186803b1580156200042d57600080fd5b505afa15801562000442573d6000803e3d6000fd5b505050506040513d601f19601f82011682018060405250810190620004689190620022f4565b6040518263ffffffff1660e01b815260040162000486919062002433565b60206040518083038186803b1580156200049f57600080fd5b505af4158015620004b4573d6000803e3d6000fd5b505050506040513d601f19601f82011682018060405250810190620004da91906200237a565b1515600114620005075760405162461bcd60e51b8152600401620004fe906200254d565b60405180910390fd5b62000514838383620010c8565b505050565b6000620003a5620010d5565b60016200053162001156565b1515600114620005555760405162461bcd60e51b8152600401620004fe90620025d8565b600354604051630d1d719d60e41b815273__Library_______________________________9163d1d719d09162000599916001600160a01b03169060040162002433565b60206040518083038186803b158015620005b257600080fd5b505af4158015620005c7573d6000803e3d6000fd5b505050506040513d601f19601f82011682018060405250810190620005ed91906200237a565b1515600114620006115760405162461bcd60e51b8152600401620004fe90620025f7565b6200061b62001196565b6003546002546040519081526001600160a01b03909116907f1fe8aec10c0a50fa765076161e08c1f961ced69594ff45cf7d559f593afe14799060200160405180910390a250565b601b54600090620003a5906001600160a01b03166200103b565b80600f6200068c8282620028d9565b5050600a54620006ae90620006a290426200267c565b600b5460ff16620011c1565b50565b600080600080600b60029054906101000a900460ff168015620006d5575060045442105b15620006fc575050600c54600d5490925060ff808216925061010090910416600162000709565b5060009250829150819050805b90919293565b60016200071b62001156565b15156001146200073f5760405162461bcd60e51b8152600401620004fe90620025d8565b6200075033600260000154620012ea565b15156001146200078b5760405162461bcd60e51b8152602060048201526005602482015264454332332d60d81b6044820152606401620004fe565b60006200079e3360026000015462001303565b90508215620007ca578060026004016000828254620007be91906200267c565b90915550620007e79050565b8060026005016000828254620007e191906200267c565b90915550505b600254620007f790338362001344565b600254604080519182528415156020830152810182905233907f50f654d58981575c05e369cb129aeacb01e1b036af429380242cfc5d1a4b743f9060600160405180910390a26200051462001382565b601f54600090620003a5906001600160a01b03166200103b565b6040805160078082526101008201909252606091600091906020820160e0803683375050600f5460405163bc215e8560e01b815292935073__AddressLibrary________________________9263bc215e859250620008cd916001600160a01b03169060040162002433565b60206040518083038186803b158015620008e657600080fd5b505af4158015620008fb573d6000803e3d6000fd5b505050506040513d601f19601f820116820180604052508101906200092191906200239a565b816000815181106200093757620009376200287e565b602090810291909101015260105460405163bc215e8560e01b815273__AddressLibrary________________________9163bc215e859162000986916001600160a01b03169060040162002433565b60206040518083038186803b1580156200099f57600080fd5b505af4158015620009b4573d6000803e3d6000fd5b505050506040513d601f19601f82011682018060405250810190620009da91906200239a565b81600181518110620009f057620009f06200287e565b602090810291909101015260115460405163bc215e8560e01b815273__AddressLibrary________________________9163bc215e859162000a3f916001600160a01b03169060040162002433565b60206040518083038186803b15801562000a5857600080fd5b505af415801562000a6d573d6000803e3d6000fd5b505050506040513d601f19601f8201168201806040525081019062000a9391906200239a565b8160028151811062000aa95762000aa96200287e565b602090810291909101015260125460405163bc215e8560e01b815273__AddressLibrary________________________9163bc215e859162000af8916001600160a01b03169060040162002433565b60206040518083038186803b15801562000b1157600080fd5b505af415801562000b26573d6000803e3d6000fd5b505050506040513d601f19601f8201168201806040525081019062000b4c91906200239a565b8160038151811062000b625762000b626200287e565b602090810291909101015260135460405163bc215e8560e01b815273__AddressLibrary________________________9163bc215e859162000bb1916001600160a01b03169060040162002433565b60206040518083038186803b15801562000bca57600080fd5b505af415801562000bdf573d6000803e3d6000fd5b505050506040513d601f19601f8201168201806040525081019062000c0591906200239a565b8160048151811062000c1b5762000c1b6200287e565b602090810291909101015260145460405163bc215e8560e01b815273__AddressLibrary________________________9163bc215e859162000c6a916001600160a01b03169060040162002433565b60206040518083038186803b15801562000c8357600080fd5b505af415801562000c98573d6000803e3d6000fd5b505050506040513d601f19601f8201168201806040525081019062000cbe91906200239a565b8160058151811062000cd45762000cd46200287e565b602090810291909101015260155460405163bc215e8560e01b815273__AddressLibrary________________________9163bc215e859162000d23916001600160a01b03169060040162002433565b60206040518083038186803b15801562000d3c57600080fd5b505af415801562000d51573d6000803e3d6000fd5b505050506040513d601f19601f8201168201806040525081019062000d7791906200239a565b8160068151811062000d8d5762000d8d6200287e565b6020908102919091010152919050565b620005148383836000620014da565b600154604051630d1d719d60e41b815273__Library_______________________________9163d1d719d09162000df0916001600160a01b03169060040162002433565b60206040518083038186803b15801562000e0957600080fd5b505af415801562000e1e573d6000803e3d6000fd5b505050506040513d601f19601f8201168201806040525081019062000e4491906200237a565b151560011462000e685760405162461bcd60e51b8152600401620004fe906200254d565b602154600160a01b900460ff161562000eac5760405162461bcd60e51b8152602060048201526005602482015264454332362d60d81b6044820152606401620004fe565b62000eb7816200159c565b506021805460ff60a01b1916600160a01b179055565b6000620003a56200191c565b602054600090620003a5906001600160a01b03166200103b565b600054610100900460ff168062000f0d575060005460ff16155b62000f2c5760405162461bcd60e51b8152600401620004fe906200258a565b600054610100900460ff1615801562000f4f576000805461ffff19166101011790555b62000f5a8262000fa6565b600180546001600160a01b0319166001600160a01b038516178155600060085562000f8b90879087908790620014da565b801562000f9e576000805461ff00191690555b505050505050565b600054610100900460ff168062000fc0575060005460ff16155b62000fdf5760405162461bcd60e51b8152600401620004fe906200258a565b600054610100900460ff1615801562001002576000805461ffff19166101011790555b6000805462010000600160b01b031916620100006001600160a01b03851602179055801562001037576000805461ff00191690555b5050565b600e546040516310270e3d60e11b81526000916001600160a01b03169063204e1c7a906200106e90859060040162002433565b60206040518083038186803b1580156200108757600080fd5b505afa1580156200109c573d6000803e3d6000fd5b505050506040513d601f19601f82011682018060405250810190620010c29190620022f4565b92915050565b6200051483838362001962565b601e5460408051635c60da1b60e01b815290516000926001600160a01b031691635c60da1b916004808301926020929190829003018186803b1580156200111b57600080fd5b505afa15801562001130573d6000803e3d6000fd5b505050506040513d601f19601f82011682018060405250810190620003a59190620022f4565b6004546000904210156200116a5750600190565b6003546001600160a01b03161562001190576200118662001984565b6200119062001196565b50600090565b60006002819055600380546001600160a01b0319169055600481905560058190556006819055600755565b6000620011cd62001156565b15620012045760405162461bcd60e51b8152602060048201526005602482015264454332342d60d81b6044820152606401620004fe565b6200120f336200198e565b1515600114620012335760405162461bcd60e51b8152600401620004fe90620025f7565b600380546001600160a01b031916331790556004839055606460ff83166200125a62001a0d565b620012669190620026ba565b62001272919062002697565b6005556008805460028190559060006200128c836200284a565b90915550506003546002546004546005546040516001600160a01b03909416937f472501d19bf75639b2e316cd36f8568b0c3ab943b82a87de3c086c98c1929df993620012dd939092909162002616565b60405180910390a2505050565b600080620012f9848462001303565b1515949350505050565b60008181526009602090815260408083206001600160a01b0386168452909152812054620013318462001b0c565b6200133d9190620026dc565b9392505050565b60008381526009602090815260408083206001600160a01b038616845290915281208054839290620013789084906200267c565b9091555050505050565b60055460065411156200144957600b5462010000900460ff1615620013df57600c54600a55600d54600b805461010080840460ff90811690910261ffff19909216931692909217919091179055620013d962001c18565b620013e9565b620013e962001c36565b620013f362001196565b6003546002546006546007546040516001600160a01b03909416937f23ca0034cf5aad32571b4a492e9598ea8a490e1643a60970e3cdc6933b55e49f936200143f939092909162002616565b60405180910390a2565b6005546007541115620014d857600b5462010000900460ff161562001478576200147262001c18565b62001482565b6200148262001984565b6200148c62001196565b6003546002546006546007546040516001600160a01b03909416937fa58eb6daa3c62c3f883973c4035e5bd3e81aa627c8379de068a7de42df122be2936200143f939092909162002616565b565b82828160ff1660641015620015035760405162461bcd60e51b8152600401620004fe906200256b565b8060ff16606410156200152a5760405162461bcd60e51b8152600401620004fe906200256b565b82156200155757600a869055600b805460ff8681166101000261ffff199092169088161717905562000f9e565b600c869055600d805460ff8681166101000261ffff1990921690881617179055600b805462ff0000191662010000179055600a5462000f9e90620006a290426200267c565b620015ab6020820182620022d4565b600e546001600160a01b0316620015c660e08401846200262c565b604051620015d49062002252565b620015e3949392919062002447565b604051809103906000f08015801562001600573d6000803e3d6000fd5b50601f80546001600160a01b0319166001600160a01b0392909216919091179055620016336040820160208301620022d4565b600e546001600160a01b03166200164f6101008401846200262c565b6040516200165d9062002252565b6200166c949392919062002447565b604051809103906000f08015801562001689573d6000803e3d6000fd5b50602080546001600160a01b0319166001600160a01b0392909216919091179055620016bc6060820160408301620022d4565b600e546001600160a01b0316620016d86101208401846200262c565b604051620016e69062002252565b620016f5949392919062002447565b604051809103906000f08015801562001712573d6000803e3d6000fd5b50602180546001600160a01b0319166001600160a01b0392909216919091179055620017456080820160608301620022d4565b600e546001600160a01b0316620017616101408401846200262c565b6040516200176f9062002252565b6200177e949392919062002447565b604051809103906000f0801580156200179b573d6000803e3d6000fd5b50601b80546001600160a01b0319166001600160a01b0392909216919091179055620017ce60a0820160808301620022d4565b604051620017dc9062002260565b620017e8919062002433565b604051809103906000f08015801562001805573d6000803e3d6000fd5b50601c80546001600160a01b0319166001600160a01b03929092169190911790556200183860c0820160a08301620022d4565b600e546001600160a01b0316620018546101608401846200262c565b604051620018629062002252565b62001871949392919062002447565b604051809103906000f0801580156200188e573d6000803e3d6000fd5b50601d80546001600160a01b0319166001600160a01b0392909216919091179055620018c160e0820160c08301620022d4565b604051620018cf9062002260565b620018db919062002433565b604051809103906000f080158015620018f8573d6000803e3d6000fd5b50601e80546001600160a01b0319166001600160a01b039290921691909117905550565b601c5460408051635c60da1b60e01b815290516000926001600160a01b031691635c60da1b916004808301926020929190829003018186803b1580156200111b57600080fd5b6200196c62001156565b15156001141562000514576200051483838362001c40565b620014d862001db8565b6001546000906001600160a01b0383811691161415620019b057506001919050565b6000620019bd8362001b0c565b90506064620019cb62001a0d565b600b54620019e29190610100900460ff16620026ba565b620019ee919062002697565b811115620019ff5750600192915050565b50600092915050565b919050565b60008060029054906101000a90046001600160a01b03166001600160a01b031663da3dce266040518163ffffffff1660e01b815260040160206040518083038186803b15801562001a5d57600080fd5b505afa15801562001a72573d6000803e3d6000fd5b505050506040513d601f19601f8201168201806040525081019062001a989190620022f4565b6001600160a01b03166318160ddd6040518163ffffffff1660e01b815260040160206040518083038186803b15801562001ad157600080fd5b505afa15801562001ae6573d6000803e3d6000fd5b505050506040513d601f19601f82011682018060405250810190620003a591906200239a565b60008060029054906101000a90046001600160a01b03166001600160a01b031663da3dce266040518163ffffffff1660e01b815260040160206040518083038186803b15801562001b5c57600080fd5b505afa15801562001b71573d6000803e3d6000fd5b505050506040513d601f19601f8201168201806040525081019062001b979190620022f4565b6001600160a01b03166370a08231836040518263ffffffff1660e01b815260040162001bc4919062002433565b60206040518083038186803b15801562001bdd57600080fd5b505afa15801562001bf2573d6000803e3d6000fd5b505050506040513d601f19601f82011682018060405250810190620010c291906200239a565b6000600c55600d805461ffff19169055600b805462ff000019169055565b6200198462001e4a565b6001600160a01b0383161580159062001c7d575060025460009081526009602090815260408083206001600160a01b038716845290915290205415155b15620005145760025460009081526009602090815260408083206001600160a01b0387168452909152902054819081111562001cdb575060025460009081526009602090815260408083206001600160a01b03871684529091529020545b60025460009081526009602090815260408083206001600160a01b03881684529091528120805483929062001d12908490620026dc565b90915550506001600160a01b0383161562001d645760025460009081526009602090815260408083206001600160a01b03871684529091528120805483929062001d5e9084906200267c565b90915550505b600254604080516001600160a01b038088168252861660208201529081018390527f65fbd5e5dd32bea4aeca85bd0be0abf0e489d655dee888a7510d43b06dda2dba9060600160405180910390a250505050565b600f80546001600160a01b0319908116825560108054821690556011805482169055601280548216905560138054821690556014805482169055601580549091169055600062001e0a6016826200226e565b62001e1a6008830160006200226e565b62001e2a6009830160006200226e565b62001e3a600a830160006200226e565b62001037600b830160006200226e565b601f54600f546016805462001efd936001600160a01b039081169316919062001e73906200280d565b80601f016020809104026020016040519081016040528092919081815260200182805462001ea1906200280d565b801562001ef25780601f1062001ec65761010080835404028352916020019162001ef2565b820191906000526020600020905b81548152906001019060200180831162001ed457829003601f168201915b505050505062002190565b6020546010546017805462001f26936001600160a01b039081169316919062001e73906200280d565b6021546011546018805462001f4f936001600160a01b039081169316919062001e73906200280d565b601b546012546019805462001f78936001600160a01b039081169316919062001e73906200280d565b601d54601454601a805462001fa1936001600160a01b039081169316919062001e73906200280d565b6013546001600160a01b0316156200201e57601c54601354604051631b2ce7f360e11b81526001600160a01b0392831692633659cfe69262001fe99291169060040162002433565b600060405180830381600087803b1580156200200457600080fd5b505af115801562002019573d6000803e3d6000fd5b505050505b6015546001600160a01b0316156200209b57601e54601554604051631b2ce7f360e11b81526001600160a01b0392831692633659cfe692620020669291169060040162002433565b600060405180830381600087803b1580156200208157600080fd5b505af115801562002096573d6000803e3d6000fd5b505050505b601f547f9f556b3233512aec544690cac60d870b2e6c701a89ec415c193c147b28035aa490620020d4906001600160a01b03166200103b565b602054620020eb906001600160a01b03166200103b565b60215462002102906001600160a01b03166200103b565b601b5462002119906001600160a01b03166200103b565b620021236200191c565b601d546200213a906001600160a01b03166200103b565b62002144620010d5565b604080516001600160a01b03988916815296881660208801529487168686015292861660608601529085166080850152841660a084015290921660c082015290519081900360e00190a1565b6001600160a01b0382161562000514578051156200221757600e54604051639623609d60e01b81526001600160a01b0390911690639623609d90620021de90869086908690600401620024d9565b600060405180830381600087803b158015620021f957600080fd5b505af11580156200220e573d6000803e3d6000fd5b50505050505050565b600e5460405163266a23b160e21b81526001600160a01b0385811660048301528481166024830152909116906399a88ec490604401620021de565b610f308062002a6a83390190565b610523806200399a83390190565b5080546200227c906200280d565b6000825580601f106200228d575050565b601f016020900490600052602060002090810190620006ae91905b80821115620022be5760008155600101620022a8565b5090565b803560ff8116811462001a0857600080fd5b600060208284031215620022e757600080fd5b81356200133d8162002a44565b6000602082840312156200230757600080fd5b81516200133d8162002a44565b6000806000606084860312156200232a57600080fd5b8335620023378162002a44565b92506020840135620023498162002a44565b929592945050506040919091013590565b6000602082840312156200236d57600080fd5b81356200133d8162002a5a565b6000602082840312156200238d57600080fd5b81516200133d8162002a5a565b600060208284031215620023ad57600080fd5b5051919050565b600060208284031215620023c757600080fd5b81356001600160401b03811115620023de57600080fd5b820161018081850312156200133d57600080fd5b6000806000606084860312156200240857600080fd5b833592506200241a60208501620022c2565b91506200242a60408501620022c2565b90509250925092565b6001600160a01b0391909116815260200190565b6001600160a01b0385811682528416602082015260606040820181905281018290526000828460808401376000608084840101526080601f19601f850116830101905095945050505050565b6020808252825182820181905260009190848201906040850190845b81811015620024cd57835183529284019291840191600101620024af565b50909695505050505050565b600060018060a01b038086168352602081861681850152606060408501528451915081606085015260005b82811015620025225785810182015185820160800152810162002504565b8281111562002535576000608084870101525b5050601f01601f191691909101608001949350505050565b6020808252600490820152634543382d60e01b604082015260600190565b602080825260059082015264454332312d60d81b604082015260600190565b6020808252602e908201527f496e697469616c697a61626c653a20636f6e747261637420697320616c72656160408201526d191e481a5b9a5d1a585b1a5e995960921b606082015260800190565b602080825260059082015264454332352d60d81b604082015260600190565b602080825260059082015264454332322d60d81b604082015260600190565b9283526020830191909152604082015260600190565b6000808335601e198436030181126200264457600080fd5b8301803591506001600160401b038211156200265f57600080fd5b6020019150368190038213156200267557600080fd5b9250929050565b6000821982111562002692576200269262002868565b500190565b600082620026b557634e487b7160e01b600052601260045260246000fd5b500490565b6000816000190483118215151615620026d757620026d762002868565b500290565b600082821015620026f157620026f162002868565b500390565b601f8211156200051457600081815260208120601f850160051c810160208610156200271f5750805b601f850160051c820191505b8181101562000f9e578281556001016200272b565b6001600160401b038311156200275a576200275a62002894565b62002772836200276b83546200280d565b83620026f6565b6000601f841160018114620027a95760008515620027905750838201355b600019600387901b1c1916600186901b17835562002806565b600083815260209020601f19861690835b82811015620027dc5786850135825560209485019460019092019101620027ba565b5086821015620027fa5760001960f88860031b161c19848701351681555b505060018560011b0183555b5050505050565b600181811c908216806200282257607f821691505b602082108114156200284457634e487b7160e01b600052602260045260246000fd5b50919050565b600060001982141562002861576200286162002868565b5060010190565b634e487b7160e01b600052601160045260246000fd5b634e487b7160e01b600052603260045260246000fd5b634e487b7160e01b600052604160045260246000fd5b60008135620010c28162002a44565b80546001600160a01b0319166001600160a01b0392909216919091179055565b620028ef620028e883620028aa565b82620028b9565b6200290b6200290160208401620028aa565b60018301620028b9565b620029276200291d60408401620028aa565b60028301620028b9565b620029436200293960608401620028aa565b60038301620028b9565b6200295f6200295560808401620028aa565b60048301620028b9565b6200297b6200297160a08401620028aa565b60058301620028b9565b620029976200298d60c08401620028aa565b60068301620028b9565b620029a660e08301836200262c565b620029b681836007860162002740565b5050620029c86101008301836200262c565b620029d881836008860162002740565b5050620029ea6101208301836200262c565b620029fa81836009860162002740565b505062002a0c6101408301836200262c565b62002a1c8183600a860162002740565b505062002a2e6101608301836200262c565b62002a3e8183600b860162002740565b50505050565b6001600160a01b0381168114620006ae57600080fd5b8015158114620006ae57600080fdfe608060405260405162000f3038038062000f308339810160408190526200002691620004c2565b82816200005560017f360894a13ba1a3210667c828492db98dca3e2076cc3735a920a3ca505d382bbd620005f5565b60008051602062000ee9833981519152146200007557620000756200064a565b6200008382826000620000e7565b50620000b3905060017fb53127684a568b3173ae13b9f8a6016e243e63b6e8ee1178d6a717850b5d6104620005f5565b60008051602062000ec983398151915214620000d357620000d36200064a565b620000de8262000124565b50505062000676565b620000f2836200017f565b600082511180620001005750805b156200011f576200011d8383620001c160201b620002601760201c565b505b505050565b7f7e644d79422f17c01e4894b5f4f588d331ebfa28653d42ae832dc59e38c9798f6200014f620001f0565b604080516001600160a01b03928316815291841660208301520160405180910390a16200017c8162000229565b50565b6200018a81620002de565b6040516001600160a01b038216907fbc7cd75a20ee27fd9adebab32041f755214dbc6bffa90cc0225b39da2e5c2d3b90600090a250565b6060620001e9838360405180606001604052806027815260200162000f096027913962000381565b9392505050565b60006200021a60008051602062000ec983398151915260001b6200045e60201b620002081760201c565b546001600160a01b0316919050565b6001600160a01b038116620002945760405162461bcd60e51b815260206004820152602660248201527f455243313936373a206e65772061646d696e20697320746865207a65726f206160448201526564647265737360d01b60648201526084015b60405180910390fd5b80620002bd60008051602062000ec983398151915260001b6200045e60201b620002081760201c565b80546001600160a01b0319166001600160a01b039290921691909117905550565b620002f4816200046160201b6200028c1760201c565b620003585760405162461bcd60e51b815260206004820152602d60248201527f455243313936373a206e657720696d706c656d656e746174696f6e206973206e60448201526c1bdd08184818dbdb9d1c9858dd609a1b60648201526084016200028b565b80620002bd60008051602062000ee983398151915260001b6200045e60201b620002081760201c565b6060833b620003e25760405162461bcd60e51b815260206004820152602660248201527f416464726573733a2064656c65676174652063616c6c20746f206e6f6e2d636f6044820152651b9d1c9858dd60d21b60648201526084016200028b565b600080856001600160a01b031685604051620003ff9190620005a2565b600060405180830381855af49150503d80600081146200043c576040519150601f19603f3d011682016040523d82523d6000602084013e62000441565b606091505b5090925090506200045482828662000467565b9695505050505050565b90565b3b151590565b6060831562000478575081620001e9565b825115620004895782518084602001fd5b8160405162461bcd60e51b81526004016200028b9190620005c0565b80516001600160a01b0381168114620004bd57600080fd5b919050565b600080600060608486031215620004d857600080fd5b620004e384620004a5565b9250620004f360208501620004a5565b60408501519092506001600160401b03808211156200051157600080fd5b818601915086601f8301126200052657600080fd5b8151818111156200053b576200053b62000660565b604051601f8201601f19908116603f0116810190838211818310171562000566576200056662000660565b816040528281528960208487010111156200058057600080fd5b620005938360208301602088016200061b565b80955050505050509250925092565b60008251620005b68184602087016200061b565b9190910192915050565b6020815260008251806020840152620005e18160408501602087016200061b565b601f01601f19169190910160400192915050565b6000828210156200061657634e487b7160e01b600052601160045260246000fd5b500390565b60005b83811015620006385781810151838201526020016200061e565b838111156200011d5750506000910152565b634e487b7160e01b600052600160045260246000fd5b634e487b7160e01b600052604160045260246000fd5b61084380620006866000396000f3fe60806040526004361061004e5760003560e01c80633659cfe6146100655780634f1ef286146100855780635c60da1b146100985780638f283970146100c9578063f851a440146100e95761005d565b3661005d5761005b6100fe565b005b61005b6100fe565b34801561007157600080fd5b5061005b61008036600461068e565b610118565b61005b6100933660046106a9565b61015f565b3480156100a457600080fd5b506100ad6101d0565b6040516001600160a01b03909116815260200160405180910390f35b3480156100d557600080fd5b5061005b6100e436600461068e565b61020b565b3480156100f557600080fd5b506100ad610235565b610106610292565b610116610111610331565b61033b565b565b61012061035f565b6001600160a01b0316336001600160a01b031614156101575761015481604051806020016040528060008152506000610380565b50565b6101546100fe565b61016761035f565b6001600160a01b0316336001600160a01b031614156101c8576101c38383838080601f01602080910402602001604051908101604052809392919081815260200183838082843760009201919091525060019250610380915050565b505050565b6101c36100fe565b60006101da61035f565b6001600160a01b0316336001600160a01b03161415610200576101fb610331565b905090565b6102086100fe565b90565b61021361035f565b6001600160a01b0316336001600160a01b0316141561015757610154816103ab565b600061023f61035f565b6001600160a01b0316336001600160a01b03161415610200576101fb61035f565b606061028583836040518060600160405280602781526020016107e7602791396103ff565b9392505050565b3b151590565b61029a61035f565b6001600160a01b0316336001600160a01b031614156101165760405162461bcd60e51b815260206004820152604260248201527f5472616e73706172656e745570677261646561626c6550726f78793a2061646d60448201527f696e2063616e6e6f742066616c6c6261636b20746f2070726f78792074617267606482015261195d60f21b608482015260a4015b60405180910390fd5b60006101fb6104d3565b3660008037600080366000845af43d6000803e80801561035a573d6000f35b3d6000fd5b60006000805160206107a78339815191525b546001600160a01b0316919050565b610389836104e9565b6000825111806103965750805b156101c3576103a58383610260565b50505050565b7f7e644d79422f17c01e4894b5f4f588d331ebfa28653d42ae832dc59e38c9798f6103d461035f565b604080516001600160a01b03928316815291841660208301520160405180910390a161015481610529565b6060833b61045e5760405162461bcd60e51b815260206004820152602660248201527f416464726573733a2064656c65676174652063616c6c20746f206e6f6e2d636f6044820152651b9d1c9858dd60d21b6064820152608401610328565b600080856001600160a01b031685604051610479919061072b565b600060405180830381855af49150503d80600081146104b4576040519150601f19603f3d011682016040523d82523d6000602084013e6104b9565b606091505b50915091506104c98282866105c0565b9695505050505050565b60006000805160206107c7833981519152610371565b6104f2816105f9565b6040516001600160a01b038216907fbc7cd75a20ee27fd9adebab32041f755214dbc6bffa90cc0225b39da2e5c2d3b90600090a250565b6001600160a01b03811661058e5760405162461bcd60e51b815260206004820152602660248201527f455243313936373a206e65772061646d696e20697320746865207a65726f206160448201526564647265737360d01b6064820152608401610328565b806000805160206107a78339815191525b80546001600160a01b0319166001600160a01b039290921691909117905550565b606083156105cf575081610285565b8251156105df5782518084602001fd5b8160405162461bcd60e51b81526004016103289190610747565b803b61065d5760405162461bcd60e51b815260206004820152602d60248201527f455243313936373a206e657720696d706c656d656e746174696f6e206973206e60448201526c1bdd08184818dbdb9d1c9858dd609a1b6064820152608401610328565b806000805160206107c783398151915261059f565b80356001600160a01b038116811461068957600080fd5b919050565b6000602082840312156106a057600080fd5b61028582610672565b6000806000604084860312156106be57600080fd5b6106c784610672565b925060208401356001600160401b03808211156106e357600080fd5b818601915086601f8301126106f757600080fd5b81358181111561070657600080fd5b87602082850101111561071857600080fd5b6020830194508093505050509250925092565b6000825161073d81846020870161077a565b9190910192915050565b602081526000825180602084015261076681604085016020870161077a565b601f01601f19169190910160400192915050565b60005b8381101561079557818101518382015260200161077d565b838111156103a5575050600091015256feb53127684a568b3173ae13b9f8a6016e243e63b6e8ee1178d6a717850b5d6103360894a13ba1a3210667c828492db98dca3e2076cc3735a920a3ca505d382bbc416464726573733a206c6f772d6c6576656c2064656c65676174652063616c6c206661696c6564a2646970667358221220db58d8e120b1ed13ae7ff8047539442f43b82b0dda12ca3e6374868f27b7761864736f6c63430008070033b53127684a568b3173ae13b9f8a6016e243e63b6e8ee1178d6a717850b5d6103360894a13ba1a3210667c828492db98dca3e2076cc3735a920a3ca505d382bbc416464726573733a206c6f772d6c6576656c2064656c65676174652063616c6c206661696c6564608060405234801561001057600080fd5b5060405161052338038061052383398101604081905261002f91610148565b61003833610047565b61004181610097565b50610178565b600080546001600160a01b038381166001600160a01b0319831681178455604051919092169283917f8be0079c531659141344cd1fd0a4f28419497f9722a3daafe3b4186f6b6457e09190a35050565b6100aa8161014260201b61021f1760201c565b6101205760405162461bcd60e51b815260206004820152603360248201527f5570677261646561626c65426561636f6e3a20696d706c656d656e746174696f60448201527f6e206973206e6f74206120636f6e747261637400000000000000000000000000606482015260840160405180910390fd5b600180546001600160a01b0319166001600160a01b0392909216919091179055565b3b151590565b60006020828403121561015a57600080fd5b81516001600160a01b038116811461017157600080fd5b9392505050565b61039c806101876000396000f3fe608060405234801561001057600080fd5b50600436106100575760003560e01c80633659cfe61461005c5780635c60da1b14610071578063715018a61461009a5780638da5cb5b146100a2578063f2fde38b146100aa575b600080fd5b61006f61006a366004610301565b6100bd565b005b6001546001600160a01b03165b6040516001600160a01b03909116815260200160405180910390f35b61006f610135565b61007e610170565b61006f6100b8366004610301565b61017f565b336100c6610170565b6001600160a01b0316146100f55760405162461bcd60e51b81526004016100ec90610331565b60405180910390fd5b6100fe81610225565b6040516001600160a01b038216907fbc7cd75a20ee27fd9adebab32041f755214dbc6bffa90cc0225b39da2e5c2d3b90600090a250565b3361013e610170565b6001600160a01b0316146101645760405162461bcd60e51b81526004016100ec90610331565b61016e60006102b1565b565b6000546001600160a01b031690565b33610188610170565b6001600160a01b0316146101ae5760405162461bcd60e51b81526004016100ec90610331565b6001600160a01b0381166102135760405162461bcd60e51b815260206004820152602660248201527f4f776e61626c653a206e6577206f776e657220697320746865207a65726f206160448201526564647265737360d01b60648201526084016100ec565b61021c816102b1565b50565b3b151590565b803b61028f5760405162461bcd60e51b815260206004820152603360248201527f5570677261646561626c65426561636f6e3a20696d706c656d656e746174696f6044820152721b881a5cc81b9bdd08184818dbdb9d1c9858dd606a1b60648201526084016100ec565b600180546001600160a01b0319166001600160a01b0392909216919091179055565b600080546001600160a01b038381166001600160a01b0319831681178455604051919092169283917f8be0079c531659141344cd1fd0a4f28419497f9722a3daafe3b4186f6b6457e09190a35050565b60006020828403121561031357600080fd5b81356001600160a01b038116811461032a57600080fd5b9392505050565b6020808252818101527f4f776e61626c653a2063616c6c6572206973206e6f7420746865206f776e657260408201526060019056fea2646970667358221220b2593c385f6cf6c9fa6cd30320e4dd979200197a740c0d3f946507d201c8795d64736f6c63430008070033a2646970667358221220149d2cd0768d310d528052d71e76593d871df20abfdd0087b3053d158856420764736f6c63430008070033608060405234801561001057600080fd5b5061001a3361001f565b61006f565b600080546001600160a01b038381166001600160a01b0319831681178455604051919092169283917f8be0079c531659141344cd1fd0a4f28419497f9722a3daafe3b4186f6b6457e09190a35050565b61073f8061007e6000396000f3fe60806040526004361061006b5760003560e01c8063204e1c7a14610070578063715018a6146100a65780637eff275e146100bd5780638da5cb5b146100dd5780639623609d146100f257806399a88ec414610105578063f2fde38b14610125578063f3b7dead14610145575b600080fd5b34801561007c57600080fd5b5061009061008b3660046104e1565b610165565b60405161009d9190610630565b60405180910390f35b3480156100b257600080fd5b506100bb6101f6565b005b3480156100c957600080fd5b506100bb6100d8366004610522565b61023a565b3480156100e957600080fd5b506100906102cb565b6100bb61010036600461055b565b6102da565b34801561011157600080fd5b506100bb610120366004610522565b610370565b34801561013157600080fd5b506100bb6101403660046104e1565b6103cb565b34801561015157600080fd5b506100906101603660046104e1565b61046b565b6000806000836001600160a01b031660405161018b90635c60da1b60e01b815260040190565b600060405180830381855afa9150503d80600081146101c6576040519150601f19603f3d011682016040523d82523d6000602084013e6101cb565b606091505b5091509150816101da57600080fd5b808060200190518101906101ee9190610505565b949350505050565b336101ff6102cb565b6001600160a01b03161461022e5760405162461bcd60e51b8152600401610225906106a9565b60405180910390fd5b6102386000610491565b565b336102436102cb565b6001600160a01b0316146102695760405162461bcd60e51b8152600401610225906106a9565b6040516308f2839760e41b81526001600160a01b03831690638f28397090610295908490600401610630565b600060405180830381600087803b1580156102af57600080fd5b505af11580156102c3573d6000803e3d6000fd5b505050505050565b6000546001600160a01b031690565b336102e36102cb565b6001600160a01b0316146103095760405162461bcd60e51b8152600401610225906106a9565b60405163278f794360e11b81526001600160a01b03841690634f1ef2869034906103399086908690600401610644565b6000604051808303818588803b15801561035257600080fd5b505af1158015610366573d6000803e3d6000fd5b5050505050505050565b336103796102cb565b6001600160a01b03161461039f5760405162461bcd60e51b8152600401610225906106a9565b604051631b2ce7f360e11b81526001600160a01b03831690633659cfe690610295908490600401610630565b336103d46102cb565b6001600160a01b0316146103fa5760405162461bcd60e51b8152600401610225906106a9565b6001600160a01b03811661045f5760405162461bcd60e51b815260206004820152602660248201527f4f776e61626c653a206e6577206f776e657220697320746865207a65726f206160448201526564647265737360d01b6064820152608401610225565b61046881610491565b50565b6000806000836001600160a01b031660405161018b906303e1469160e61b815260040190565b600080546001600160a01b038381166001600160a01b0319831681178455604051919092169283917f8be0079c531659141344cd1fd0a4f28419497f9722a3daafe3b4186f6b6457e09190a35050565b6000602082840312156104f357600080fd5b81356104fe816106f4565b9392505050565b60006020828403121561051757600080fd5b81516104fe816106f4565b6000806040838503121561053557600080fd5b8235610540816106f4565b91506020830135610550816106f4565b809150509250929050565b60008060006060848603121561057057600080fd5b833561057b816106f4565b9250602084013561058b816106f4565b915060408401356001600160401b03808211156105a757600080fd5b818601915086601f8301126105bb57600080fd5b8135818111156105cd576105cd6106de565b604051601f8201601f19908116603f011681019083821181831017156105f5576105f56106de565b8160405282815289602084870101111561060e57600080fd5b8260208601602083013760006020848301015280955050505050509250925092565b6001600160a01b0391909116815260200190565b60018060a01b038316815260006020604081840152835180604085015260005b8181101561068057858101830151858201606001528201610664565b81811115610692576000606083870101525b50601f01601f191692909201606001949350505050565b6020808252818101527f4f776e61626c653a2063616c6c6572206973206e6f7420746865206f776e6572604082015260600190565b634e487b7160e01b600052604160045260246000fd5b6001600160a01b038116811461046857600080fdfea264697066735822122092f01e637c0a0a2dbac5a2f4c9b17ffab86f6ccb9b1ed2db5004c2f02ba3e97e64736f6c63430008070033",
  "immutableReferences": {},
  "source": "// SPDX-License-Identifier: GPL-3.0\r\n\r\npragma solidity >=0.7.0 <0.9.0;\r\n\r\n/**\r\n * @title Storage\r\n * @dev Store & retrieve value in a variable\r\n */\r\n\r\nimport \"../Interfaces/IProxyManager.sol\";\r\nimport \"../Base/TokenGovernanceBaseContract.sol\";\r\nimport \"../Libraries/AddressLibrary.sol\";\r\nimport \"../Libraries/Library.sol\";\r\nimport \"@openzeppelin/contracts-upgradeable/proxy/utils/Initializable.sol\";\r\nimport \"@openzeppelin/contracts/proxy/beacon/UpgradeableBeacon.sol\";\r\nimport \"@openzeppelin/contracts/proxy/transparent/TransparentUpgradeableProxy.sol\";\r\nimport \"@openzeppelin/contracts/proxy/transparent/ProxyAdmin.sol\";\r\n\r\n\r\ncontract CertificatesPoolManager is IProxyManager, TokenGovernanceBaseContract{\r\n    using AddressLibrary for *;\r\n    using Library for *;\r\n\r\n    // EVENTS /////////////////////////////////////////\r\n    event _NewContracts(address, address, address, address, address, address, address);\r\n\r\n    // DATA /////////////////////////////////////////\r\n    // Admin Proxy to manage all the TransparentUpgradeableProxies\r\n    ProxyAdmin private _Admin;\r\n\r\n    // proposition to change\r\n    Library.ProposedContractsStruct private _ProposedContracts;\r\n    \r\n    // Private Certificate Pools Factory\r\n    TransparentUpgradeableProxy private _PrivatePoolFactory;\r\n\r\n    // Private Certificates Pool\r\n    UpgradeableBeacon private _PrivateCertificatePoolBeacon;\r\n\r\n    // Provider Factory\r\n    TransparentUpgradeableProxy private _ProviderFactory;\r\n\r\n    // Provider\r\n    UpgradeableBeacon private _ProviderBeacon;\r\n\r\n    // Public Certificates Pool\r\n    TransparentUpgradeableProxy private _PublicCertificatesPool;\r\n\r\n    // Treasury\r\n    //GenericProxy private _Treasury;\r\n    TransparentUpgradeableProxy private _Treasury;\r\n\r\n    // Certis Token\r\n    TransparentUpgradeableProxy private _CertisToken;\r\n\r\n    // init\r\n    bool private _init;\r\n\r\n    // MODIFIERS /////////////////////////////////////////\r\n    modifier isNotInitialized(){\r\n        require(false == _init, \"EC26-\");\r\n        _;\r\n    }\r\n\r\n    // CONSTRUCTOR and INITIALIZATION /////////////////////////////////////////\r\n    constructor(uint256 PropositionLifeTime, uint8 PropositionThresholdPercentage, uint8 minWeightToProposePercentage) \r\n    {\r\n        super.TokenGovernanceContract_init(PropositionLifeTime, PropositionThresholdPercentage, minWeightToProposePercentage, msg.sender, address(this));\r\n        _Admin = new ProxyAdmin();\r\n        _init = false;\r\n    }\r\n\r\n    function InitializeContracts(Library.ProposedContractsStruct calldata initialContracts) \r\n        isFromChairPerson()\r\n        isNotInitialized()\r\n    external override\r\n    {\r\n        initProxies(initialContracts);\r\n        _init = true;\r\n    }\r\n\r\n    // FUNCTIONALITY /////////////////////////////////////////\r\n    // governance : contracts assignment and management\r\n    function upgradeContracts(Library.ProposedContractsStruct calldata UpgradeProposition) external override\r\n    {\r\n        _ProposedContracts = UpgradeProposition;\r\n        addProposition(block.timestamp + _PropositionLifeTime, _PropositionThresholdPercentage);\r\n    }\r\n\r\n    function propositionApproved() internal override\r\n    {\r\n        upgradeContractsImplementations();\r\n        removeProposition();\r\n    }\r\n\r\n    function propositionRejected() internal override\r\n    {\r\n        removeProposition();\r\n    }\r\n\r\n    function propositionExpired() internal override\r\n    {\r\n        removeProposition();\r\n    }\r\n\r\n    function removeProposition() internal\r\n    {\r\n       delete(_ProposedContracts);\r\n    }\r\n\r\n    function retrieveProposition() external override view returns(bytes32[] memory)\r\n    {\r\n        bytes32[] memory proposition = new bytes32[](7);\r\n        proposition[0] = AddressLibrary.AddressToBytes32(_ProposedContracts.NewPublicPoolAddress);\r\n        proposition[1] = AddressLibrary.AddressToBytes32(_ProposedContracts.NewTreasuryAddress);\r\n        proposition[2] = AddressLibrary.AddressToBytes32(_ProposedContracts.NewCertisTokenAddress);\r\n        proposition[3] = AddressLibrary.AddressToBytes32(_ProposedContracts.NewPrivatePoolFactoryAddress);\r\n        proposition[4] = AddressLibrary.AddressToBytes32(_ProposedContracts.NewPrivatePoolAddress);\r\n        proposition[5] = AddressLibrary.AddressToBytes32(_ProposedContracts.NewProviderFactoryAddress);\r\n        proposition[6] = AddressLibrary.AddressToBytes32(_ProposedContracts.NewProviderAddress);\r\n        return proposition;\r\n    }\r\n\r\n    function initProxies(Library.ProposedContractsStruct calldata initialContracts) private\r\n    {\r\n        _PublicCertificatesPool = new TransparentUpgradeableProxy(initialContracts.NewPublicPoolAddress, address(_Admin), initialContracts.NewPublicPoolData);\r\n        _Treasury = new TransparentUpgradeableProxy(initialContracts.NewTreasuryAddress, address(_Admin), initialContracts.NewTreasuryData);\r\n        _CertisToken = new TransparentUpgradeableProxy(initialContracts.NewCertisTokenAddress, address(_Admin), initialContracts.NewCertisTokenData);\r\n        _PrivatePoolFactory = new TransparentUpgradeableProxy(initialContracts.NewPrivatePoolFactoryAddress, address(_Admin), initialContracts.NewPrivatePoolFactoryData);\r\n        _PrivateCertificatePoolBeacon = new UpgradeableBeacon(initialContracts.NewPrivatePoolAddress);\r\n        _ProviderFactory = new TransparentUpgradeableProxy(initialContracts.NewProviderFactoryAddress, address(_Admin), initialContracts.NewProviderFactoryData);\r\n        _ProviderBeacon = new UpgradeableBeacon(initialContracts.NewProviderAddress);\r\n    }\r\n\r\n    function upgradeContractsImplementations() private\r\n    {\r\n        upgradeContractImplementation(_PublicCertificatesPool, _ProposedContracts.NewPublicPoolAddress, _ProposedContracts.NewPublicPoolData);\r\n        upgradeContractImplementation(_Treasury, _ProposedContracts.NewTreasuryAddress, _ProposedContracts.NewTreasuryData);\r\n        upgradeContractImplementation(_CertisToken, _ProposedContracts.NewCertisTokenAddress, _ProposedContracts.NewCertisTokenData);\r\n        upgradeContractImplementation(_PrivatePoolFactory, _ProposedContracts.NewPrivatePoolFactoryAddress, _ProposedContracts.NewPrivatePoolFactoryData);\r\n        upgradeContractImplementation(_ProviderFactory, _ProposedContracts.NewProviderFactoryAddress, _ProposedContracts.NewProviderFactoryData);\r\n\r\n        if(address(0) != _ProposedContracts.NewPrivatePoolAddress)_PrivateCertificatePoolBeacon.upgradeTo(_ProposedContracts.NewPrivatePoolAddress);\r\n        if(address(0) != _ProposedContracts.NewProviderAddress)_ProviderBeacon.upgradeTo(_ProposedContracts.NewProviderAddress);\r\n\r\n        emit _NewContracts(internalRetrieveImpl(_PublicCertificatesPool), internalRetrieveImpl(_Treasury), \r\n        internalRetrieveImpl(_CertisToken), internalRetrieveImpl(_PrivatePoolFactory), \r\n        internalRetrievePrivatePool(), internalRetrieveImpl(_ProviderFactory), internalRetrieveProvider());\r\n    }\r\n\r\n    function upgradeContractImplementation(TransparentUpgradeableProxy proxy, address NewImpl, bytes memory Data) private{\r\n        if(address(0) != NewImpl){\r\n            if(0 < Data.length)_Admin.upgradeAndCall(proxy, NewImpl, Data);\r\n            else _Admin.upgrade(proxy, NewImpl);\r\n        }\r\n    }\r\n\r\n    function InternalonTokenBalanceChanged(address from, address to, uint256 amount) internal override\r\n    {\r\n        super.InternalonTokenBalanceChanged(from, to, amount);\r\n    }\r\n\r\n    // configuration Proxies\r\n    function retrievePublicCertificatePoolProxy() external override view returns (address) {\r\n        return (address(_PublicCertificatesPool));\r\n    }\r\n\r\n    function retrieveTreasuryProxy() external override view returns (address) {\r\n        return (address(_Treasury));\r\n    }\r\n\r\n    function retrieveCertisTokenProxy() external override view returns (address) {\r\n        return (address(_CertisToken));\r\n    }\r\n\r\n    function retrievePrivatePoolFactoryProxy() external override view returns (address) {\r\n        return (address(_PrivatePoolFactory));\r\n    }\r\n\r\n    function retrievePrivatePoolBeacon() external override view returns (address) {\r\n        return (address(_PrivateCertificatePoolBeacon));\r\n    }\r\n\r\n    function retrieveProviderFactoryProxy() external override view returns (address) {\r\n        return (address(_ProviderFactory));\r\n    }\r\n\r\n    function retrieveProviderBeacon() external override view returns (address) {\r\n        return (address(_ProviderBeacon));\r\n    }\r\n\r\n    // configuration implementations\r\n    function retrievePublicCertificatePool() external override view returns (address) {\r\n        return internalRetrieveImpl(_PublicCertificatesPool);\r\n    }\r\n\r\n    function retrieveTreasury() external override view returns (address) {\r\n        return internalRetrieveImpl(_Treasury);\r\n    }\r\n\r\n    function retrieveCertisToken() external override view returns (address) {\r\n        return internalRetrieveImpl(_CertisToken);\r\n    }\r\n\r\n    function retrievePrivatePoolFactory() external override view returns (address) {\r\n        return internalRetrieveImpl(_PrivatePoolFactory);\r\n    }\r\n\r\n    function retrievePrivatePool() external override view returns (address) {\r\n        return internalRetrievePrivatePool();\r\n    }\r\n\r\n    function retrieveProviderFactory() external override view returns (address) {\r\n        return internalRetrieveImpl(_ProviderFactory);\r\n    }\r\n\r\n    function retrieveProvider() external override view returns (address) {\r\n        return internalRetrieveProvider();\r\n    }\r\n\r\n    function isInitialized() external override view returns(bool){\r\n        return _init;\r\n    }\r\n\r\n    // internal\r\n    function internalRetrieveImpl(TransparentUpgradeableProxy proxy) internal view returns (address){\r\n        return _Admin.getProxyImplementation(proxy);\r\n    }\r\n\r\n    function internalRetrievePrivatePool() internal view returns (address) {\r\n        return _PrivateCertificatePoolBeacon.implementation();\r\n    }\r\n\r\n    function internalRetrieveProvider() internal view returns (address) {\r\n        return _ProviderBeacon.implementation();\r\n    }\r\n  \r\n}",
  "sourcePath": "C:/Users/d-aam/GitHub/Certificates/contracts/DeployedContracts/CertificatesPoolManager.sol",
  "compiler": {
    "name": "solc",
    "version": "0.8.7+commit.e28d00a7.Emscripten.clang"
  },
  "schemaVersion": "3.3.4",
  "updatedAt": "2021-08-24T12:28:42.230Z",
  "networkType": "ethereum",
  "devdoc": {
    "kind": "dev",
    "methods": {},
    "version": 1
  },
  "userdoc": {
    "kind": "user",
    "methods": {},
    "version": 1
  }
}