{
  "contractName": "CertificatesPoolManager",
  "abi": [
    {
      "inputs": [
        {
          "internalType": "string",
          "name": "contractName",
          "type": "string"
        },
        {
          "internalType": "string",
          "name": "contractVersion",
          "type": "string"
        },
        {
          "internalType": "address",
          "name": "managerOwner",
          "type": "address"
        }
      ],
      "stateMutability": "nonpayable",
      "type": "constructor"
    },
    {
      "anonymous": false,
      "inputs": [
        {
          "indexed": false,
          "internalType": "uint256",
          "name": "Id",
          "type": "uint256"
        },
        {
          "indexed": true,
          "internalType": "address",
          "name": "Proposer",
          "type": "address"
        },
        {
          "indexed": false,
          "internalType": "uint256",
          "name": "Deadline",
          "type": "uint256"
        },
        {
          "indexed": false,
          "internalType": "uint256",
          "name": "Threshold",
          "type": "uint256"
        }
      ],
      "name": "_AddedProposition",
      "type": "event"
    },
    {
      "anonymous": false,
      "inputs": [
        {
          "indexed": false,
          "internalType": "uint256",
          "name": "Id",
          "type": "uint256"
        },
        {
          "indexed": true,
          "internalType": "address",
          "name": "Proposer",
          "type": "address"
        }
      ],
      "name": "_CancelledProposition",
      "type": "event"
    },
    {
      "anonymous": false,
      "inputs": [
        {
          "indexed": false,
          "internalType": "address",
          "name": "Public",
          "type": "address"
        },
        {
          "indexed": false,
          "internalType": "address",
          "name": "Treasury",
          "type": "address"
        },
        {
          "indexed": false,
          "internalType": "address",
          "name": "Certis",
          "type": "address"
        },
        {
          "indexed": false,
          "internalType": "address",
          "name": "PrivateFactory",
          "type": "address"
        },
        {
          "indexed": false,
          "internalType": "address",
          "name": "Private",
          "type": "address"
        },
        {
          "indexed": false,
          "internalType": "address",
          "name": "ProviderFactory",
          "type": "address"
        },
        {
          "indexed": false,
          "internalType": "address",
          "name": "Provider",
          "type": "address"
        },
        {
          "indexed": false,
          "internalType": "address",
          "name": "PriceConverter",
          "type": "address"
        },
        {
          "indexed": false,
          "internalType": "address",
          "name": "PropositionSettings",
          "type": "address"
        },
        {
          "indexed": false,
          "internalType": "address",
          "name": "ENS",
          "type": "address"
        }
      ],
      "name": "_NewContracts",
      "type": "event"
    },
    {
      "anonymous": false,
      "inputs": [
        {
          "indexed": false,
          "internalType": "uint256",
          "name": "Id",
          "type": "uint256"
        },
        {
          "indexed": true,
          "internalType": "address",
          "name": "Proposer",
          "type": "address"
        },
        {
          "indexed": false,
          "internalType": "uint256",
          "name": "VotesFor",
          "type": "uint256"
        },
        {
          "indexed": false,
          "internalType": "uint256",
          "name": "VotesAgainst",
          "type": "uint256"
        }
      ],
      "name": "_PropositionApproved",
      "type": "event"
    },
    {
      "anonymous": false,
      "inputs": [
        {
          "indexed": false,
          "internalType": "uint256",
          "name": "Id",
          "type": "uint256"
        },
        {
          "indexed": true,
          "internalType": "address",
          "name": "Proposer",
          "type": "address"
        },
        {
          "indexed": false,
          "internalType": "uint256",
          "name": "VotesFor",
          "type": "uint256"
        },
        {
          "indexed": false,
          "internalType": "uint256",
          "name": "VotesAgainst",
          "type": "uint256"
        }
      ],
      "name": "_PropositionRejected",
      "type": "event"
    },
    {
      "anonymous": false,
      "inputs": [
        {
          "indexed": false,
          "internalType": "uint256",
          "name": "Id",
          "type": "uint256"
        },
        {
          "indexed": true,
          "internalType": "address",
          "name": "Voter",
          "type": "address"
        },
        {
          "indexed": false,
          "internalType": "bool",
          "name": "Vote",
          "type": "bool"
        },
        {
          "indexed": false,
          "internalType": "uint256",
          "name": "AmountTokens",
          "type": "uint256"
        }
      ],
      "name": "_PropositionVote",
      "type": "event"
    },
    {
      "anonymous": false,
      "inputs": [
        {
          "indexed": true,
          "internalType": "uint256",
          "name": "Id",
          "type": "uint256"
        },
        {
          "indexed": false,
          "internalType": "address",
          "name": "From",
          "type": "address"
        },
        {
          "indexed": false,
          "internalType": "address",
          "name": "To",
          "type": "address"
        },
        {
          "indexed": false,
          "internalType": "uint256",
          "name": "Amount",
          "type": "uint256"
        }
      ],
      "name": "_UsedTokensTransfered",
      "type": "event"
    },
    {
      "inputs": [
        {
          "internalType": "address",
          "name": "chairPerson",
          "type": "address"
        },
        {
          "internalType": "address",
          "name": "managerContractAddress",
          "type": "address"
        },
        {
          "internalType": "string",
          "name": "contractName",
          "type": "string"
        },
        {
          "internalType": "string",
          "name": "contractVersion",
          "type": "string"
        }
      ],
      "name": "StdPropositionBaseContract_init",
      "outputs": [],
      "stateMutability": "nonpayable",
      "type": "function"
    },
    {
      "inputs": [],
      "name": "cancelProposition",
      "outputs": [],
      "stateMutability": "nonpayable",
      "type": "function"
    },
    {
      "inputs": [
        {
          "internalType": "address",
          "name": "from",
          "type": "address"
        },
        {
          "internalType": "address",
          "name": "to",
          "type": "address"
        },
        {
          "internalType": "uint256",
          "name": "amount",
          "type": "uint256"
        }
      ],
      "name": "onTokenBalanceChanged",
      "outputs": [],
      "stateMutability": "nonpayable",
      "type": "function"
    },
    {
      "inputs": [],
      "name": "retrieveChairPerson",
      "outputs": [
        {
          "internalType": "address",
          "name": "",
          "type": "address"
        }
      ],
      "stateMutability": "view",
      "type": "function",
      "constant": true
    },
    {
      "inputs": [],
      "name": "retrieveContractConfig",
      "outputs": [
        {
          "internalType": "string",
          "name": "",
          "type": "string"
        },
        {
          "internalType": "string",
          "name": "",
          "type": "string"
        }
      ],
      "stateMutability": "view",
      "type": "function",
      "constant": true
    },
    {
      "inputs": [],
      "name": "retrieveManagerContract",
      "outputs": [
        {
          "internalType": "address",
          "name": "",
          "type": "address"
        }
      ],
      "stateMutability": "view",
      "type": "function",
      "constant": true
    },
    {
      "inputs": [],
      "name": "retrieveNextPropId",
      "outputs": [
        {
          "internalType": "uint256",
          "name": "",
          "type": "uint256"
        }
      ],
      "stateMutability": "view",
      "type": "function",
      "constant": true
    },
    {
      "inputs": [
        {
          "internalType": "address",
          "name": "addr",
          "type": "address"
        },
        {
          "internalType": "uint256",
          "name": "nonce",
          "type": "uint256"
        }
      ],
      "name": "retrieveNonce",
      "outputs": [
        {
          "internalType": "bool",
          "name": "",
          "type": "bool"
        }
      ],
      "stateMutability": "view",
      "type": "function",
      "constant": true
    },
    {
      "inputs": [],
      "name": "retrieveProposition",
      "outputs": [
        {
          "internalType": "bytes[]",
          "name": "",
          "type": "bytes[]"
        }
      ],
      "stateMutability": "view",
      "type": "function",
      "constant": true
    },
    {
      "inputs": [],
      "name": "retrievePropositionStatus",
      "outputs": [
        {
          "internalType": "address",
          "name": "",
          "type": "address"
        },
        {
          "internalType": "uint256",
          "name": "",
          "type": "uint256"
        },
        {
          "internalType": "uint256",
          "name": "",
          "type": "uint256"
        },
        {
          "internalType": "uint256",
          "name": "",
          "type": "uint256"
        },
        {
          "internalType": "uint256",
          "name": "",
          "type": "uint256"
        }
      ],
      "stateMutability": "view",
      "type": "function",
      "constant": true
    },
    {
      "inputs": [
        {
          "internalType": "uint256",
          "name": "PropId",
          "type": "uint256"
        },
        {
          "internalType": "address",
          "name": "voter",
          "type": "address"
        }
      ],
      "name": "retrieveVotesForVoter",
      "outputs": [
        {
          "internalType": "uint256",
          "name": "",
          "type": "uint256"
        }
      ],
      "stateMutability": "view",
      "type": "function",
      "constant": true
    },
    {
      "inputs": [
        {
          "internalType": "bytes[]",
          "name": "NewValues",
          "type": "bytes[]"
        }
      ],
      "name": "sendProposition",
      "outputs": [],
      "stateMutability": "nonpayable",
      "type": "function"
    },
    {
      "inputs": [
        {
          "internalType": "bool",
          "name": "vote",
          "type": "bool"
        }
      ],
      "name": "voteProposition",
      "outputs": [],
      "stateMutability": "nonpayable",
      "type": "function"
    },
    {
      "inputs": [
        {
          "internalType": "address",
          "name": "voter",
          "type": "address"
        },
        {
          "internalType": "uint256",
          "name": "propID",
          "type": "uint256"
        },
        {
          "internalType": "bool",
          "name": "vote",
          "type": "bool"
        },
        {
          "internalType": "uint256",
          "name": "nonce",
          "type": "uint256"
        },
        {
          "internalType": "uint256",
          "name": "deadline",
          "type": "uint256"
        },
        {
          "internalType": "bytes",
          "name": "signature",
          "type": "bytes"
        }
      ],
      "name": "votePropositionOnBehalfOf",
      "outputs": [],
      "stateMutability": "nonpayable",
      "type": "function"
    },
    {
      "inputs": [
        {
          "components": [
            {
              "internalType": "address",
              "name": "NewPublicPoolAddress",
              "type": "address"
            },
            {
              "internalType": "address",
              "name": "NewTreasuryAddress",
              "type": "address"
            },
            {
              "internalType": "address",
              "name": "NewCertisTokenAddress",
              "type": "address"
            },
            {
              "internalType": "address",
              "name": "NewPrivatePoolFactoryAddress",
              "type": "address"
            },
            {
              "internalType": "address",
              "name": "NewPrivatePoolAddress",
              "type": "address"
            },
            {
              "internalType": "address",
              "name": "NewProviderFactoryAddress",
              "type": "address"
            },
            {
              "internalType": "address",
              "name": "NewProviderAddress",
              "type": "address"
            },
            {
              "internalType": "address",
              "name": "NewPriceConverterAddress",
              "type": "address"
            },
            {
              "internalType": "address",
              "name": "NewPropositionSettingsAddress",
              "type": "address"
            },
            {
              "internalType": "address",
              "name": "NewENSAddress",
              "type": "address"
            },
            {
              "internalType": "bytes",
              "name": "NewPublicPoolData",
              "type": "bytes"
            },
            {
              "internalType": "bytes",
              "name": "NewTreasuryData",
              "type": "bytes"
            },
            {
              "internalType": "bytes",
              "name": "NewCertisTokenData",
              "type": "bytes"
            },
            {
              "internalType": "bytes",
              "name": "NewPrivatePoolFactoryData",
              "type": "bytes"
            },
            {
              "internalType": "bytes",
              "name": "NewProviderFactoryData",
              "type": "bytes"
            },
            {
              "internalType": "bytes",
              "name": "NewPriceConverterData",
              "type": "bytes"
            },
            {
              "internalType": "bytes",
              "name": "NewPropositionSettingsData",
              "type": "bytes"
            },
            {
              "internalType": "bytes",
              "name": "NewENSData",
              "type": "bytes"
            },
            {
              "internalType": "string",
              "name": "NewPrivatePoolContractName",
              "type": "string"
            },
            {
              "internalType": "string",
              "name": "NewPrivatePoolContractVersion",
              "type": "string"
            }
          ],
          "internalType": "struct Library.ProposedContractsStruct",
          "name": "initialContracts",
          "type": "tuple"
        }
      ],
      "name": "InitializeContracts",
      "outputs": [],
      "stateMutability": "nonpayable",
      "type": "function"
    },
    {
      "inputs": [
        {
          "internalType": "address",
          "name": "newOwner",
          "type": "address"
        }
      ],
      "name": "ChangeAdminOwner",
      "outputs": [],
      "stateMutability": "nonpayable",
      "type": "function"
    },
    {
      "inputs": [],
      "name": "retrievePublicCertificatePoolProxy",
      "outputs": [
        {
          "internalType": "address",
          "name": "",
          "type": "address"
        }
      ],
      "stateMutability": "view",
      "type": "function",
      "constant": true
    },
    {
      "inputs": [],
      "name": "retrieveTreasuryProxy",
      "outputs": [
        {
          "internalType": "address",
          "name": "",
          "type": "address"
        }
      ],
      "stateMutability": "view",
      "type": "function",
      "constant": true
    },
    {
      "inputs": [],
      "name": "retrieveCertisTokenProxy",
      "outputs": [
        {
          "internalType": "address",
          "name": "",
          "type": "address"
        }
      ],
      "stateMutability": "view",
      "type": "function",
      "constant": true
    },
    {
      "inputs": [],
      "name": "retrievePrivatePoolFactoryProxy",
      "outputs": [
        {
          "internalType": "address",
          "name": "",
          "type": "address"
        }
      ],
      "stateMutability": "view",
      "type": "function",
      "constant": true
    },
    {
      "inputs": [],
      "name": "retrievePrivatePoolBeacon",
      "outputs": [
        {
          "internalType": "address",
          "name": "",
          "type": "address"
        }
      ],
      "stateMutability": "view",
      "type": "function",
      "constant": true
    },
    {
      "inputs": [],
      "name": "retrieveProviderFactoryProxy",
      "outputs": [
        {
          "internalType": "address",
          "name": "",
          "type": "address"
        }
      ],
      "stateMutability": "view",
      "type": "function",
      "constant": true
    },
    {
      "inputs": [],
      "name": "retrieveProviderBeacon",
      "outputs": [
        {
          "internalType": "address",
          "name": "",
          "type": "address"
        }
      ],
      "stateMutability": "view",
      "type": "function",
      "constant": true
    },
    {
      "inputs": [],
      "name": "retrievePriceConverterProxy",
      "outputs": [
        {
          "internalType": "address",
          "name": "",
          "type": "address"
        }
      ],
      "stateMutability": "view",
      "type": "function",
      "constant": true
    },
    {
      "inputs": [],
      "name": "retrievePropositionSettingsProxy",
      "outputs": [
        {
          "internalType": "address",
          "name": "",
          "type": "address"
        }
      ],
      "stateMutability": "view",
      "type": "function",
      "constant": true
    },
    {
      "inputs": [],
      "name": "retrieveENSProxy",
      "outputs": [
        {
          "internalType": "address",
          "name": "",
          "type": "address"
        }
      ],
      "stateMutability": "view",
      "type": "function",
      "constant": true
    },
    {
      "inputs": [],
      "name": "retrievePublicCertificatePool",
      "outputs": [
        {
          "internalType": "address",
          "name": "",
          "type": "address"
        }
      ],
      "stateMutability": "view",
      "type": "function",
      "constant": true
    },
    {
      "inputs": [],
      "name": "retrieveTreasury",
      "outputs": [
        {
          "internalType": "address",
          "name": "",
          "type": "address"
        }
      ],
      "stateMutability": "view",
      "type": "function",
      "constant": true
    },
    {
      "inputs": [],
      "name": "retrieveCertisToken",
      "outputs": [
        {
          "internalType": "address",
          "name": "",
          "type": "address"
        }
      ],
      "stateMutability": "view",
      "type": "function",
      "constant": true
    },
    {
      "inputs": [],
      "name": "retrievePrivatePoolFactory",
      "outputs": [
        {
          "internalType": "address",
          "name": "",
          "type": "address"
        }
      ],
      "stateMutability": "view",
      "type": "function",
      "constant": true
    },
    {
      "inputs": [],
      "name": "retrievePrivatePool",
      "outputs": [
        {
          "internalType": "address",
          "name": "",
          "type": "address"
        }
      ],
      "stateMutability": "view",
      "type": "function",
      "constant": true
    },
    {
      "inputs": [],
      "name": "retrieveProviderFactory",
      "outputs": [
        {
          "internalType": "address",
          "name": "",
          "type": "address"
        }
      ],
      "stateMutability": "view",
      "type": "function",
      "constant": true
    },
    {
      "inputs": [],
      "name": "retrieveProvider",
      "outputs": [
        {
          "internalType": "address",
          "name": "",
          "type": "address"
        }
      ],
      "stateMutability": "view",
      "type": "function",
      "constant": true
    },
    {
      "inputs": [],
      "name": "retrievePriceConverter",
      "outputs": [
        {
          "internalType": "address",
          "name": "",
          "type": "address"
        }
      ],
      "stateMutability": "view",
      "type": "function",
      "constant": true
    },
    {
      "inputs": [],
      "name": "retrievePropositionSettings",
      "outputs": [
        {
          "internalType": "address",
          "name": "",
          "type": "address"
        }
      ],
      "stateMutability": "view",
      "type": "function",
      "constant": true
    },
    {
      "inputs": [],
      "name": "retrieveENS",
      "outputs": [
        {
          "internalType": "address",
          "name": "",
          "type": "address"
        }
      ],
      "stateMutability": "view",
      "type": "function",
      "constant": true
    },
    {
      "inputs": [],
      "name": "isInitialized",
      "outputs": [
        {
          "internalType": "bool",
          "name": "",
          "type": "bool"
        }
      ],
      "stateMutability": "view",
      "type": "function",
      "constant": true
    }
  ],
  "bytecode": "0x60806040523480156200001157600080fd5b5060405162005ee238038062005ee28339810160408190526200003491620003af565b6200004d33308585620000be60201b62000cea1760201c565b6040516200005b9062000244565b604051809103906000f08015801562000078573d6000803e3d6000fd5b50600f80546001600160a01b039283166001600160a01b0319918216179091556019805460ff60a01b19169055600e805493909216921691909117905550620004dd9050565b600354610100900460ff1680620000d8575060035460ff16155b620001005760405162461bcd60e51b8152600401620000f7906200043c565b60405180910390fd5b600354610100900460ff1615801562000123576003805461ffff19166101011790555b62000139846200017f60201b62000d7d1760201c565b600480546001600160a01b0319166001600160a01b0387161790556000600b5562000165838362000214565b801562000178576003805461ff00191690555b5050505050565b600354610100900460ff168062000199575060035460ff16155b620001b85760405162461bcd60e51b8152600401620000f7906200043c565b600354610100900460ff16158015620001db576003805461ffff19166101011790555b6003805462010000600160b01b031916620100006001600160a01b03851602179055801562000210576003805461ff00191690555b5050565b81516200022990600090602085019062000252565b5080516200023f90600190602084019062000252565b505050565b6107bd806200572583390190565b82805462000260906200048a565b90600052602060002090601f016020900481019282620002845760008555620002cf565b82601f106200029f57805160ff1916838001178555620002cf565b82800160010185558215620002cf579182015b82811115620002cf578251825591602001919060010190620002b2565b50620002dd929150620002e1565b5090565b5b80821115620002dd5760008155600101620002e2565b600082601f8301126200030a57600080fd5b81516001600160401b0380821115620003275762000327620004c7565b604051601f8301601f19908116603f01168101908282118183101715620003525762000352620004c7565b816040528381526020925086838588010111156200036f57600080fd5b600091505b8382101562000393578582018301518183018401529082019062000374565b83821115620003a55760008385830101525b9695505050505050565b600080600060608486031215620003c557600080fd5b83516001600160401b0380821115620003dd57600080fd5b620003eb87838801620002f8565b945060208601519150808211156200040257600080fd5b506200041186828701620002f8565b604086015190935090506001600160a01b03811681146200043157600080fd5b809150509250925092565b6020808252602e908201527f496e697469616c697a61626c653a20636f6e747261637420697320616c72656160408201526d191e481a5b9a5d1a585b1a5e995960921b606082015260800190565b600181811c908216806200049f57607f821691505b60208210811415620004c157634e487b7160e01b600052602260045260246000fd5b50919050565b634e487b7160e01b600052604160045260246000fd5b61523880620004ed6000396000f3fe60806040523480156200001157600080fd5b5060043610620001de5760003560e01c8063029b967314620001e357806304cc67a914620002055780630f13bbc9146200021857806322d929e11462000231578063392e53cd146200023b5780633c65d427146200025a5780633c7df55d146200026c5780633feca4ca14620002835780634044adb214620002bf57806348a9ddfe14620002f85780634b19aa16146200030257806355457ee9146200030c5780635773bc2314620003165780635a3794e914620003285780635b362e84146200033a5780636025541514620003525780636771717714620003645780636c594948146200036e5780637634af7814620003855780637c2f3aaf14620003975780637faa3d6f14620003a9578063840f6d1714620003c057806387552a0d146200040257806391f916711462000414578063a16374d2146200042b578063a42e13391462000435578063a93316f5146200043f578063aa33380a1462000458578063c50ec82b146200046a578063d2116a021462000474578063d2d7da5c146200048e578063da3dce2614620004a5578063db85bc4d14620004b7578063e15aa3a614620004c9578063ee2aa36a14620004e0578063efd15d1714620004ea578063f5ad9acc14620004f4575b600080fd5b620001ed62000506565b604051620001fc919062003993565b60405180910390f35b600b545b604051908152602001620001fc565b6200022f620002293660046200346f565b62000525565b005b620001ed620005b2565b601954600160a01b900460ff165b6040519015158152602001620001fc565b6010546001600160a01b0316620001ed565b6200022f6200027d36600462003502565b620005cc565b620002496200029436600462003548565b6001600160a01b03919091166000908152600260209081526040808320938352929052205460ff1690565b62000209620002d0366004620037fd565b6000918252600c602090815260408084206001600160a01b0393909316845291905290205490565b620001ed620006d6565b620001ed620006f0565b6200022f620006fc565b6012546001600160a01b0316620001ed565b6015546001600160a01b0316620001ed565b6003546201000090046001600160a01b0316620001ed565b6017546001600160a01b0316620001ed565b620001ed620007d6565b6200022f6200037f366004620037a5565b620007f0565b6019546001600160a01b0316620001ed565b6011546001600160a01b0316620001ed565b6200022f620003ba36600462003577565b620008d1565b600654600754600854600954600a54604080516001600160a01b0390961686526020860194909452928401919091526060830152608082015260a001620001fc565b6018546001600160a01b0316620001ed565b6200022f6200042536600462003765565b620008f5565b620001ed62000904565b620001ed6200091e565b6200044962000938565b604051620001fc919062003a73565b6014546001600160a01b0316620001ed565b620001ed62000a1b565b6200047e62000a27565b604051620001fc92919062003b43565b6200022f6200049f3660046200342f565b62000b5e565b6016546001600160a01b0316620001ed565b6004546001600160a01b0316620001ed565b6200022f620004da366004620036a2565b62000c3a565b620001ed62000cb6565b620001ed62000cd0565b6013546001600160a01b0316620001ed565b60165460009062000520906001600160a01b031662000e11565b905090565b600354610100900460ff16806200053f575060035460ff16155b620005675760405162461bcd60e51b81526004016200055e9062003b6c565b60405180910390fd5b600354610100900460ff161580156200058a576003805461ffff19166101011790555b620005988585858562000cea565b8015620005ab576003805461ff00191690555b5050505050565b60125460009062000520906001600160a01b031662000e11565b3373__Library_______________________________6337ea306382600360029054906101000a90046001600160a01b03166001600160a01b031663da3dce266040518163ffffffff1660e01b815260040160206040518083038186803b1580156200063757600080fd5b505afa1580156200064c573d6000803e3d6000fd5b505050506040513d601f19601f820116820180604052508101906200067291906200344f565b6040518363ffffffff1660e01b815260040162000691929190620039a7565b60006040518083038186803b158015620006aa57600080fd5b505af4158015620006bf573d6000803e3d6000fd5b50505050620006d084848462000e9e565b50505050565b60185460009062000520906001600160a01b031662000e11565b60006200052062000ec5565b6001620007098162000f46565b6006546040516337ea306360e01b8152339173__Library_______________________________916337ea306391620007519185916001600160a01b031690600401620039a7565b60006040518083038186803b1580156200076a57600080fd5b505af41580156200077f573d6000803e3d6000fd5b505050506200078d62000fd3565b6006546005546040519081526001600160a01b03909116907f1fe8aec10c0a50fa765076161e08c1f961ced69594ff45cf7d559f593afe14799060200160405180910390a25050565b60105460009062000520906001600160a01b031662000e11565b600480546040516337ea306360e01b8152339273__Library_______________________________926337ea306392620008379286926001600160a01b03169101620039a7565b60006040518083038186803b1580156200085057600080fd5b505af415801562000865573d6000803e3d6000fd5b5050601954600160a01b900460ff16159150620008af90505760405162461bcd60e51b8152602060048201526005602482015264454332362d60d81b60448201526064016200055e565b620008ba8262000ffe565b50506019805460ff60a01b1916600160a01b179055565b620008e1868686868686620015f6565b620008ed868562001764565b505050505050565b62000901338262001764565b50565b60195460009062000520906001600160a01b031662000e11565b60145460009062000520906001600160a01b031662000e11565b6060600d805480602002602001604051908101604052809291908181526020016000905b8282101562000a125783829060005260206000200180546200097e9062003cf3565b80601f0160208091040260200160405190810160405280929190818152602001828054620009ac9062003cf3565b8015620009fd5780601f10620009d157610100808354040283529160200191620009fd565b820191906000526020600020905b815481529060010190602001808311620009df57829003601f168201915b5050505050815260200190600101906200095c565b50505050905090565b6000620005206200188d565b6060806000600181805462000a3c9062003cf3565b80601f016020809104026020016040519081016040528092919081815260200182805462000a6a9062003cf3565b801562000abb5780601f1062000a8f5761010080835404028352916020019162000abb565b820191906000526020600020905b81548152906001019060200180831162000a9d57829003601f168201915b5050505050915080805462000ad09062003cf3565b80601f016020809104026020016040519081016040528092919081815260200182805462000afe9062003cf3565b801562000b4f5780601f1062000b235761010080835404028352916020019162000b4f565b820191906000526020600020905b81548152906001019060200180831162000b3157829003601f168201915b50505050509050915091509091565b600e546040516337ea306360e01b8152339173__Library_______________________________916337ea30639162000ba69185916001600160a01b031690600401620039a7565b60006040518083038186803b15801562000bbf57600080fd5b505af415801562000bd4573d6000803e3d6000fd5b5050600f5460405163f2fde38b60e01b81526001600160a01b03909116925063f2fde38b915062000c0a90859060040162003993565b600060405180830381600087803b15801562000c2557600080fd5b505af1158015620008ed573d6000803e3d6000fd5b62000c44620018d3565b60005b815181101562000cb257600d82828151811062000c685762000c6862003d5e565b6020908102919091018101518254600181018455600093845292829020815162000c9c949190910192919091019062003260565b508062000ca98162003d2a565b91505062000c47565b5050565b60175460009062000520906001600160a01b031662000e11565b60155460009062000520906001600160a01b031662000e11565b600354610100900460ff168062000d04575060035460ff16155b62000d235760405162461bcd60e51b81526004016200055e9062003b6c565b600354610100900460ff1615801562000d46576003805461ffff19166101011790555b62000d518462000d7d565b600480546001600160a01b0319166001600160a01b0387161790556000600b5562000598838362001c52565b600354610100900460ff168062000d97575060035460ff16155b62000db65760405162461bcd60e51b81526004016200055e9062003b6c565b600354610100900460ff1615801562000dd9576003805461ffff19166101011790555b6003805462010000600160b01b031916620100006001600160a01b03851602179055801562000cb2576003805461ff00191690555050565b600f546040516310270e3d60e11b81526000916001600160a01b03169063204e1c7a9062000e4490859060040162003993565b60206040518083038186803b15801562000e5d57600080fd5b505afa15801562000e72573d6000803e3d6000fd5b505050506040513d601f19601f8201168201806040525081019062000e9891906200344f565b92915050565b62000ea862001c7d565b15156001141562000ec05762000ec083838362001cbd565b505050565b60135460408051635c60da1b60e01b815290516000926001600160a01b031691635c60da1b916004808301926020929190829003018186803b15801562000f0b57600080fd5b505afa15801562000f20573d6000803e3d6000fd5b505050506040513d601f19601f820116820180604052508101906200052091906200344f565b801562000f925762000f5762001c7d565b1515600114620009015760405162461bcd60e51b8152602060048201526005602482015264454332352d60d81b60448201526064016200055e565b62000f9c62001c7d565b15620009015760405162461bcd60e51b8152602060048201526005602482015264454332342d60d81b60448201526064016200055e565b60006005819055600680546001600160a01b0319169055600781905560088190556009819055600a55565b6200100d60208201826200342f565b600f546001600160a01b03166200102961014084018462003bd0565b6040516200103790620032ef565b620010469493929190620039c1565b604051809103906000f08015801562001063573d6000803e3d6000fd5b50601480546001600160a01b0319166001600160a01b03929092169190911790556200109660408201602083016200342f565b600f546001600160a01b0316620010b261016084018462003bd0565b604051620010c090620032ef565b620010cf9493929190620039c1565b604051809103906000f080158015620010ec573d6000803e3d6000fd5b50601580546001600160a01b0319166001600160a01b03929092169190911790556200111f60608201604083016200342f565b600f546001600160a01b03166200113b61018084018462003bd0565b6040516200114990620032ef565b620011589493929190620039c1565b604051809103906000f08015801562001175573d6000803e3d6000fd5b50601680546001600160a01b0319166001600160a01b0392909216919091179055620011a860808201606083016200342f565b600f546001600160a01b0316620011c46101a084018462003bd0565b604051620011d290620032ef565b620011e19493929190620039c1565b604051809103906000f080158015620011fe573d6000803e3d6000fd5b50601080546001600160a01b0319166001600160a01b03929092169190911790556200123160a08201608083016200342f565b6040516200123f90620032fd565b6200124b919062003993565b604051809103906000f08015801562001268573d6000803e3d6000fd5b50601180546001600160a01b0319166001600160a01b03929092169190911790556200129b60c0820160a083016200342f565b600f546001600160a01b0316620012b76101c084018462003bd0565b604051620012c590620032ef565b620012d49493929190620039c1565b604051809103906000f080158015620012f1573d6000803e3d6000fd5b50601280546001600160a01b0319166001600160a01b03929092169190911790556200132460e0820160c083016200342f565b6040516200133290620032fd565b6200133e919062003993565b604051809103906000f0801580156200135b573d6000803e3d6000fd5b50601380546001600160a01b0319166001600160a01b03929092169190911790556200138f610100820160e083016200342f565b600f546001600160a01b0316620013ab6101e084018462003bd0565b604051620013b990620032ef565b620013c89493929190620039c1565b604051809103906000f080158015620013e5573d6000803e3d6000fd5b50601780546001600160a01b0319166001600160a01b03929092169190911790556200141a610120820161010083016200342f565b600f546001600160a01b03166200143661020084018462003bd0565b6040516200144490620032ef565b620014539493929190620039c1565b604051809103906000f08015801562001470573d6000803e3d6000fd5b50601880546001600160a01b0319166001600160a01b0392909216919091179055620014a5610140820161012083016200342f565b600f546001600160a01b0316620014c161022084018462003bd0565b604051620014cf90620032ef565b620014de9493929190620039c1565b604051809103906000f080158015620014fb573d6000803e3d6000fd5b50601980546001600160a01b0319166001600160a01b039283161790556010541663ce50ac766200153161024084018462003bd0565b6040518363ffffffff1660e01b81526004016200155092919062003b25565b600060405180830381600087803b1580156200156b57600080fd5b505af115801562001580573d6000803e3d6000fd5b50506010546001600160a01b03169150631dd5862c9050620015a761026084018462003bd0565b6040518363ffffffff1660e01b8152600401620015c692919062003b25565b600060405180830381600087803b158015620015e157600080fd5b505af1158015620005ab573d6000803e3d6000fd5b81620016028162001e35565b868462001610828262001e6e565b60055488146200164b5760405162461bcd60e51b8152602060048201526005602482015264454333352d60d81b60448201526064016200055e565b60405163432f9a5560e01b815273__SignatureLibrary______________________9063432f9a559062001694908c908c908c908c908c908c90600090600190600401620039fa565b60206040518083038186803b158015620016ad57600080fd5b505af4158015620016c2573d6000803e3d6000fd5b505050506040513d601f19601f82011682018060405250810190620016e8919062003785565b1515600114620017235760405162461bcd60e51b8152602060048201526005602482015264454333322d60d81b60448201526064016200055e565b6200175989876001600160a01b03909116600090815260026020908152604080832093835292905220805460ff19166001179055565b505050505050505050565b6001620017718162000f46565b6005548390600062001784838362001ecc565b905060008111620017c05760405162461bcd60e51b8152602060048201526005602482015264454332332d60d81b60448201526064016200055e565b6000620017d38760056000015462001ecc565b90508515620017ff578060056004016000828254620017f3919062003c79565b909155506200181b9050565b8060058001600082825462001815919062003c79565b90915550505b6005546200182b90888362001f0d565b60055460408051918252871515602083015281018290526001600160a01b038816907f50f654d58981575c05e369cb129aeacb01e1b036af429380242cfc5d1a4b743f9060600160405180910390a26200188462001f4b565b50505050505050565b60115460408051635c60da1b60e01b815290516000926001600160a01b031691635c60da1b916004808301926020929190829003018186803b15801562000f0b57600080fd5b6000620018e08162000f46565b60045433906000906001600160a01b0316821415620019025750600162001a4c565b60006200190f836200202f565b90506000600360029054906101000a90046001600160a01b03166001600160a01b03166387552a0d6040518163ffffffff1660e01b815260040160206040518083038186803b1580156200196257600080fd5b505afa15801562001977573d6000803e3d6000fd5b505050506040513d601f19601f820116820180604052508101906200199d91906200344f565b6001600160a01b031663b049473f6040518163ffffffff1660e01b815260040160606040518083038186803b158015620019d657600080fd5b505afa158015620019eb573d6000803e3d6000fd5b505050506040513d601f19601f8201168201806040525081019062001a11919062003830565b92505050606462001a216200213c565b62001a309060ff841662003cb7565b62001a3c919062003c94565b82111562001a4957600192505b50505b60018115151462001a885760405162461bcd60e51b8152602060048201526005602482015264454332322d60d81b60448201526064016200055e565b600080600360029054906101000a90046001600160a01b03166001600160a01b03166387552a0d6040518163ffffffff1660e01b815260040160206040518083038186803b15801562001ada57600080fd5b505afa15801562001aef573d6000803e3d6000fd5b505050506040513d601f19601f8201168201806040525081019062001b1591906200344f565b6001600160a01b031663b049473f6040518163ffffffff1660e01b815260040160606040518083038186803b15801562001b4e57600080fd5b505afa15801562001b63573d6000803e3d6000fd5b505050506040513d601f19601f8201168201806040525081019062001b89919062003830565b50600680546001600160a01b03191633179055909250905062001bad824262003c79565b600755606460ff821662001bc06200213c565b62001bcc919062003cb7565b62001bd8919062003c94565b600855600b8054600581905590600062001bf28362003d2a565b90915550506006546005546007546008546040516001600160a01b03909416937f472501d19bf75639b2e316cd36f8568b0c3ab943b82a87de3c086c98c1929df99362001c43939092909162003bba565b60405180910390a25050505050565b815162001c6790600090602085019062003260565b50805162000ec090600190602084019062003260565b60075460009042101562001c915750600190565b6006546001600160a01b03161562001cb75762001cad6200223c565b62001cb762000fd3565b50600090565b6001600160a01b0383161580159062001cfa57506005546000908152600c602090815260408083206001600160a01b038716845290915290205415155b1562000ec0576005546000908152600c602090815260408083206001600160a01b0387168452909152902054819081111562001d5857506005546000908152600c602090815260408083206001600160a01b03871684529091529020545b6005546000908152600c602090815260408083206001600160a01b03881684529091528120805483929062001d8f90849062003cd9565b90915550506001600160a01b0383161562001de1576005546000908152600c602090815260408083206001600160a01b03871684529091528120805483929062001ddb90849062003c79565b90915550505b600554604080516001600160a01b038088168252861660208201529081018390527f65fbd5e5dd32bea4aeca85bd0be0abf0e489d655dee888a7510d43b06dda2dba9060600160405180910390a250505050565b804210620009015760405162461bcd60e51b8152602060048201526005602482015264454333332d60d81b60448201526064016200055e565b6001600160a01b038216600090815260026020908152604080832084845290915290205460ff161562000cb25760405162461bcd60e51b8152602060048201526005602482015264454333342d60d81b60448201526064016200055e565b6000818152600c602090815260408083206001600160a01b038616845290915281205462001efa846200202f565b62001f06919062003cd9565b9392505050565b6000838152600c602090815260408083206001600160a01b03861684529091528120805483929062001f4190849062003c79565b9091555050505050565b6008546009541062001fc15762001f6162002246565b62001f6b62000fd3565b600654600554600954600a546040516001600160a01b03909416937f23ca0034cf5aad32571b4a492e9598ea8a490e1643a60970e3cdc6933b55e49f9362001fb7939092909162003bba565b60405180910390a2565b600854600a54106200202d5762001fd76200223c565b62001fe162000fd3565b600654600554600954600a546040516001600160a01b03909416937fa58eb6daa3c62c3f883973c4035e5bd3e81aa627c8379de068a7de42df122be29362001fb7939092909162003bba565b565b6000600360029054906101000a90046001600160a01b03166001600160a01b031663da3dce266040518163ffffffff1660e01b815260040160206040518083038186803b1580156200208057600080fd5b505afa15801562002095573d6000803e3d6000fd5b505050506040513d601f19601f82011682018060405250810190620020bb91906200344f565b6001600160a01b03166370a08231836040518263ffffffff1660e01b8152600401620020e8919062003993565b60206040518083038186803b1580156200210157600080fd5b505afa15801562002116573d6000803e3d6000fd5b505050506040513d601f19601f8201168201806040525081019062000e989190620037e3565b6000600360029054906101000a90046001600160a01b03166001600160a01b031663da3dce266040518163ffffffff1660e01b815260040160206040518083038186803b1580156200218d57600080fd5b505afa158015620021a2573d6000803e3d6000fd5b505050506040513d601f19601f82011682018060405250810190620021c891906200344f565b6001600160a01b03166318160ddd6040518163ffffffff1660e01b815260040160206040518083038186803b1580156200220157600080fd5b505afa15801562002216573d6000803e3d6000fd5b505050506040513d601f19601f82011682018060405250810190620005209190620037e3565b6200202d62002250565b6200223c6200225e565b6200202d600d60006200330b565b60006200226a62003048565b9050620023e9601460009054906101000a90046001600160a01b031673__AddressLibrary________________________63f4ce9ae884600081518110620022b657620022b662003d5e565b60200260200101516040518263ffffffff1660e01b8152600401620022dd91815260200190565b60206040518083038186803b158015620022f657600080fd5b505af41580156200230b573d6000803e3d6000fd5b505050506040513d601f19601f820116820180604052508101906200233191906200344f565b600d600a8154811062002348576200234862003d5e565b9060005260206000200180546200235f9062003cf3565b80601f01602080910402602001604051908101604052809291908181526020018280546200238d9062003cf3565b8015620023de5780601f10620023b257610100808354040283529160200191620023de565b820191906000526020600020905b815481529060010190602001808311620023c057829003601f168201915b5050505050620031ae565b6015548151620024c1916001600160a01b03169073__AddressLibrary________________________9063f4ce9ae890859060019081106200242f576200242f62003d5e565b60200260200101516040518263ffffffff1660e01b81526004016200245691815260200190565b60206040518083038186803b1580156200246f57600080fd5b505af415801562002484573d6000803e3d6000fd5b505050506040513d601f19601f82011682018060405250810190620024aa91906200344f565b600d600b8154811062002348576200234862003d5e565b601654815162002599916001600160a01b03169073__AddressLibrary________________________9063f4ce9ae8908590600290811062002507576200250762003d5e565b60200260200101516040518263ffffffff1660e01b81526004016200252e91815260200190565b60206040518083038186803b1580156200254757600080fd5b505af41580156200255c573d6000803e3d6000fd5b505050506040513d601f19601f820116820180604052508101906200258291906200344f565b600d600c8154811062002348576200234862003d5e565b601054815162002670916001600160a01b03169073__AddressLibrary________________________9063f4ce9ae89085906003908110620025df57620025df62003d5e565b60200260200101516040518263ffffffff1660e01b81526004016200260691815260200190565b60206040518083038186803b1580156200261f57600080fd5b505af415801562002634573d6000803e3d6000fd5b505050506040513d601f19601f820116820180604052508101906200265a91906200344f565b600d808154811062002348576200234862003d5e565b601254815162002748916001600160a01b03169073__AddressLibrary________________________9063f4ce9ae89085906005908110620026b657620026b662003d5e565b60200260200101516040518263ffffffff1660e01b8152600401620026dd91815260200190565b60206040518083038186803b158015620026f657600080fd5b505af41580156200270b573d6000803e3d6000fd5b505050506040513d601f19601f820116820180604052508101906200273191906200344f565b600d600e8154811062002348576200234862003d5e565b601754815162002820916001600160a01b03169073__AddressLibrary________________________9063f4ce9ae890859060079081106200278e576200278e62003d5e565b60200260200101516040518263ffffffff1660e01b8152600401620027b591815260200190565b60206040518083038186803b158015620027ce57600080fd5b505af4158015620027e3573d6000803e3d6000fd5b505050506040513d601f19601f820116820180604052508101906200280991906200344f565b600d600f8154811062002348576200234862003d5e565b6018548151620028f8916001600160a01b03169073__AddressLibrary________________________9063f4ce9ae8908590600890811062002866576200286662003d5e565b60200260200101516040518263ffffffff1660e01b81526004016200288d91815260200190565b60206040518083038186803b158015620028a657600080fd5b505af4158015620028bb573d6000803e3d6000fd5b505050506040513d601f19601f82011682018060405250810190620028e191906200344f565b600d60108154811062002348576200234862003d5e565b6019548151620029d0916001600160a01b03169073__AddressLibrary________________________9063f4ce9ae890859060099081106200293e576200293e62003d5e565b60200260200101516040518263ffffffff1660e01b81526004016200296591815260200190565b60206040518083038186803b1580156200297e57600080fd5b505af415801562002993573d6000803e3d6000fd5b505050506040513d601f19601f82011682018060405250810190620029b991906200344f565b600d60118154811062002348576200234862003d5e565b73__AddressLibrary________________________63f4ce9ae88260048151811062002a005762002a0062003d5e565b60200260200101516040518263ffffffff1660e01b815260040162002a2791815260200190565b60206040518083038186803b15801562002a4057600080fd5b505af415801562002a55573d6000803e3d6000fd5b505050506040513d601f19601f8201168201806040525081019062002a7b91906200344f565b6001600160a01b03161562002ba15760115481516001600160a01b0390911690633659cfe69073__AddressLibrary________________________9063f4ce9ae8908590600490811062002ad35762002ad362003d5e565b60200260200101516040518263ffffffff1660e01b815260040162002afa91815260200190565b60206040518083038186803b15801562002b1357600080fd5b505af415801562002b28573d6000803e3d6000fd5b505050506040513d601f19601f8201168201806040525081019062002b4e91906200344f565b6040518263ffffffff1660e01b815260040162002b6c919062003993565b600060405180830381600087803b15801562002b8757600080fd5b505af115801562002b9c573d6000803e3d6000fd5b505050505b73__AddressLibrary________________________63f4ce9ae88260068151811062002bd15762002bd162003d5e565b60200260200101516040518263ffffffff1660e01b815260040162002bf891815260200190565b60206040518083038186803b15801562002c1157600080fd5b505af415801562002c26573d6000803e3d6000fd5b505050506040513d601f19601f8201168201806040525081019062002c4c91906200344f565b6001600160a01b03161562002d725760135481516001600160a01b0390911690633659cfe69073__AddressLibrary________________________9063f4ce9ae8908590600690811062002ca45762002ca462003d5e565b60200260200101516040518263ffffffff1660e01b815260040162002ccb91815260200190565b60206040518083038186803b15801562002ce457600080fd5b505af415801562002cf9573d6000803e3d6000fd5b505050506040513d601f19601f8201168201806040525081019062002d1f91906200344f565b6040518263ffffffff1660e01b815260040162002d3d919062003993565b600060405180830381600087803b15801562002d5857600080fd5b505af115801562002d6d573d6000803e3d6000fd5b505050505b600d60128154811062002d895762002d8962003d5e565b90600052602060002001805462002da09062003cf3565b15905062002e3357601054600d80546001600160a01b039092169163ce50ac769190601290811062002dd65762002dd662003d5e565b906000526020600020016040518263ffffffff1660e01b815260040162002dfe919062003ad9565b600060405180830381600087803b15801562002e1957600080fd5b505af115801562002e2e573d6000803e3d6000fd5b505050505b600d60138154811062002e4a5762002e4a62003d5e565b90600052602060002001805462002e619062003cf3565b15905062002ef457601054600d80546001600160a01b0390921691631dd5862c9190601390811062002e975762002e9762003d5e565b906000526020600020016040518263ffffffff1660e01b815260040162002ebf919062003ad9565b600060405180830381600087803b15801562002eda57600080fd5b505af115801562002eef573d6000803e3d6000fd5b505050505b6014547f10fa61e7dce22daa90a766d2f7d1a6a46735d88777552796dce5c4e8a736a79b9062002f2d906001600160a01b031662000e11565b60155462002f44906001600160a01b031662000e11565b60165462002f5b906001600160a01b031662000e11565b60105462002f72906001600160a01b031662000e11565b62002f7c6200188d565b60125462002f93906001600160a01b031662000e11565b62002f9d62000ec5565b60175462002fb4906001600160a01b031662000e11565b60185462002fcb906001600160a01b031662000e11565b60195462002fe2906001600160a01b031662000e11565b604080516001600160a01b039b8c168152998b1660208b0152978a16898901529589166060890152938816608088015291871660a0870152861660c0860152851660e085015284166101008401529092166101208201529051908190036101400190a150565b600d546060906000906001600160401b038111156200306b576200306b62003d74565b60405190808252806020026020018201604052801562003095578160200160208202803683370190505b50905060005b600d54811015620031a85773__Library_______________________________63caa8f589600d8381548110620030d657620030d662003d5e565b906000526020600020016040518263ffffffff1660e01b8152600401620030fe919062003ad9565b60006040518083038186803b1580156200311757600080fd5b505af41580156200312c573d6000803e3d6000fd5b505050506040513d6000823e601f3d908101601f19168201604052620031569190810190620035fc565b6000815181106200316b576200316b62003d5e565b602002602001015182828151811062003188576200318862003d5e565b6020908102919091010152806200319f8162003d2a565b9150506200309b565b50919050565b6001600160a01b0382161562000ec0578051156200322c57600f54604051639623609d60e01b81526001600160a01b0390911690639623609d90620031fc9086908690869060040162003aee565b600060405180830381600087803b1580156200321757600080fd5b505af115801562001884573d6000803e3d6000fd5b600f5460405163266a23b160e21b81526001600160a01b03909116906399a88ec490620031fc9086908690600401620039a7565b8280546200326e9062003cf3565b90600052602060002090601f016020900481019282620032925760008555620032dd565b82601f10620032ad57805160ff1916838001178555620032dd565b82800160010185558215620032dd579182015b82811115620032dd578251825591602001919060010190620032c0565b50620032eb9291506200332b565b5090565b610f308062003db083390190565b6105238062004ce083390190565b508054600082559060005260206000209081019062000901919062003342565b5b80821115620032eb57600081556001016200332c565b80821115620032eb57600062003359828262003363565b5060010162003342565b508054620033719062003cf3565b6000825580601f1062003382575050565b601f0160209004906000526020600020908101906200090191906200332b565b600082601f830112620033b457600080fd5b81356001600160401b03811115620033d057620033d062003d74565b620033e5601f8201601f191660200162003c20565b818152846020838601011115620033fb57600080fd5b816020850160208301376000918101602001919091529392505050565b805160ff811681146200342a57600080fd5b919050565b6000602082840312156200344257600080fd5b813562001f068162003d8a565b6000602082840312156200346257600080fd5b815162001f068162003d8a565b600080600080608085870312156200348657600080fd5b8435620034938162003d8a565b93506020850135620034a58162003d8a565b925060408501356001600160401b0380821115620034c257600080fd5b620034d088838901620033a2565b93506060870135915080821115620034e757600080fd5b50620034f687828801620033a2565b91505092959194509250565b6000806000606084860312156200351857600080fd5b8335620035258162003d8a565b92506020840135620035378162003d8a565b929592945050506040919091013590565b600080604083850312156200355c57600080fd5b8235620035698162003d8a565b946020939093013593505050565b60008060008060008060c087890312156200359157600080fd5b86356200359e8162003d8a565b9550602087013594506040870135620035b78162003da0565b9350606087013592506080870135915060a08701356001600160401b03811115620035e157600080fd5b620035ef89828a01620033a2565b9150509295509295509295565b600060208083850312156200361057600080fd5b82516001600160401b038111156200362757600080fd5b8301601f810185136200363957600080fd5b8051620036506200364a8262003c53565b62003c20565b80828252848201915084840188868560051b87010111156200367157600080fd5b600094505b838510156200369657805183526001949094019391850191850162003676565b50979650505050505050565b60006020808385031215620036b657600080fd5b82356001600160401b0380821115620036ce57600080fd5b818501915085601f830112620036e357600080fd5b8135620036f46200364a8262003c53565b80828252858201915085850189878560051b88010111156200371557600080fd5b6000805b85811015620037555782358781111562003731578283fd5b620037418d8b838c0101620033a2565b865250938801939188019160010162003719565b50919a9950505050505050505050565b6000602082840312156200377857600080fd5b813562001f068162003da0565b6000602082840312156200379857600080fd5b815162001f068162003da0565b600060208284031215620037b857600080fd5b81356001600160401b03811115620037cf57600080fd5b8201610280818503121562001f0657600080fd5b600060208284031215620037f657600080fd5b5051919050565b600080604083850312156200381157600080fd5b823591506020830135620038258162003d8a565b809150509250929050565b6000806000606084860312156200384657600080fd5b83519250620038586020850162003418565b9150620038686040850162003418565b90509250925092565b81835281816020850137506000828201602090810191909152601f909101601f19169091010190565b6000815180845260005b81811015620038c257602081850181015186830182015201620038a4565b81811115620038d5576000602083870101525b50601f01601f19169290920160200192915050565b8054600090600181811c90808316806200390557607f831692505b60208084108214156200392857634e487b7160e01b600052602260045260246000fd5b838852818015620039425760018114620039575762003987565b60ff1986168983015260408901965062003987565b876000528160002060005b868110156200397f5781548b820185015290850190830162003962565b8a0183019750505b50505050505092915050565b6001600160a01b0391909116815260200190565b6001600160a01b0392831681529116602082015260400190565b6001600160a01b03858116825284166020820152606060408201819052600090620039f0908301848662003871565b9695505050505050565b600061010060018060a01b038b16835289602084015288151560408401528760608401528660808401528060a084015262003a38818401876200389a565b905082810360c084015262003a4e8186620038ea565b905082810360e084015262003a648185620038ea565b9b9a5050505050505050505050565b6000602080830181845280855180835260408601915060408160051b870101925083870160005b8281101562003acc57603f1988860301845262003ab98583516200389a565b9450928501929085019060010162003a9a565b5092979650505050505050565b60208152600062001f066020830184620038ea565b6001600160a01b0384811682528316602082015260606040820181905260009062003b1c908301846200389a565b95945050505050565b60208152600062003b3b60208301848662003871565b949350505050565b60408152600062003b5860408301856200389a565b828103602084015262003b1c81856200389a565b6020808252602e908201527f496e697469616c697a61626c653a20636f6e747261637420697320616c72656160408201526d191e481a5b9a5d1a585b1a5e995960921b606082015260800190565b9283526020830191909152604082015260600190565b6000808335601e1984360301811262003be857600080fd5b8301803591506001600160401b0382111562003c0357600080fd5b60200191503681900382131562003c1957600080fd5b9250929050565b604051601f8201601f191681016001600160401b038111828210171562003c4b5762003c4b62003d74565b604052919050565b60006001600160401b0382111562003c6f5762003c6f62003d74565b5060051b60200190565b6000821982111562003c8f5762003c8f62003d48565b500190565b60008262003cb257634e487b7160e01b600052601260045260246000fd5b500490565b600081600019048311821515161562003cd45762003cd462003d48565b500290565b60008282101562003cee5762003cee62003d48565b500390565b600181811c9082168062003d0857607f821691505b60208210811415620031a857634e487b7160e01b600052602260045260246000fd5b600060001982141562003d415762003d4162003d48565b5060010190565b634e487b7160e01b600052601160045260246000fd5b634e487b7160e01b600052603260045260246000fd5b634e487b7160e01b600052604160045260246000fd5b6001600160a01b03811681146200090157600080fd5b80151581146200090157600080fdfe608060405260405162000f3038038062000f308339810160408190526200002691620004c2565b82816200005560017f360894a13ba1a3210667c828492db98dca3e2076cc3735a920a3ca505d382bbd620005f5565b60008051602062000ee9833981519152146200007557620000756200064a565b6200008382826000620000e7565b50620000b3905060017fb53127684a568b3173ae13b9f8a6016e243e63b6e8ee1178d6a717850b5d6104620005f5565b60008051602062000ec983398151915214620000d357620000d36200064a565b620000de8262000124565b50505062000676565b620000f2836200017f565b600082511180620001005750805b156200011f576200011d8383620001c160201b620002601760201c565b505b505050565b7f7e644d79422f17c01e4894b5f4f588d331ebfa28653d42ae832dc59e38c9798f6200014f620001f0565b604080516001600160a01b03928316815291841660208301520160405180910390a16200017c8162000229565b50565b6200018a81620002de565b6040516001600160a01b038216907fbc7cd75a20ee27fd9adebab32041f755214dbc6bffa90cc0225b39da2e5c2d3b90600090a250565b6060620001e9838360405180606001604052806027815260200162000f096027913962000381565b9392505050565b60006200021a60008051602062000ec983398151915260001b6200045e60201b620002081760201c565b546001600160a01b0316919050565b6001600160a01b038116620002945760405162461bcd60e51b815260206004820152602660248201527f455243313936373a206e65772061646d696e20697320746865207a65726f206160448201526564647265737360d01b60648201526084015b60405180910390fd5b80620002bd60008051602062000ec983398151915260001b6200045e60201b620002081760201c565b80546001600160a01b0319166001600160a01b039290921691909117905550565b620002f4816200046160201b6200028c1760201c565b620003585760405162461bcd60e51b815260206004820152602d60248201527f455243313936373a206e657720696d706c656d656e746174696f6e206973206e60448201526c1bdd08184818dbdb9d1c9858dd609a1b60648201526084016200028b565b80620002bd60008051602062000ee983398151915260001b6200045e60201b620002081760201c565b6060833b620003e25760405162461bcd60e51b815260206004820152602660248201527f416464726573733a2064656c65676174652063616c6c20746f206e6f6e2d636f6044820152651b9d1c9858dd60d21b60648201526084016200028b565b600080856001600160a01b031685604051620003ff9190620005a2565b600060405180830381855af49150503d80600081146200043c576040519150601f19603f3d011682016040523d82523d6000602084013e62000441565b606091505b5090925090506200045482828662000467565b9695505050505050565b90565b3b151590565b6060831562000478575081620001e9565b825115620004895782518084602001fd5b8160405162461bcd60e51b81526004016200028b9190620005c0565b80516001600160a01b0381168114620004bd57600080fd5b919050565b600080600060608486031215620004d857600080fd5b620004e384620004a5565b9250620004f360208501620004a5565b60408501519092506001600160401b03808211156200051157600080fd5b818601915086601f8301126200052657600080fd5b8151818111156200053b576200053b62000660565b604051601f8201601f19908116603f0116810190838211818310171562000566576200056662000660565b816040528281528960208487010111156200058057600080fd5b620005938360208301602088016200061b565b80955050505050509250925092565b60008251620005b68184602087016200061b565b9190910192915050565b6020815260008251806020840152620005e18160408501602087016200061b565b601f01601f19169190910160400192915050565b6000828210156200061657634e487b7160e01b600052601160045260246000fd5b500390565b60005b83811015620006385781810151838201526020016200061e565b838111156200011d5750506000910152565b634e487b7160e01b600052600160045260246000fd5b634e487b7160e01b600052604160045260246000fd5b61084380620006866000396000f3fe60806040526004361061004e5760003560e01c80633659cfe6146100655780634f1ef286146100855780635c60da1b146100985780638f283970146100c9578063f851a440146100e95761005d565b3661005d5761005b6100fe565b005b61005b6100fe565b34801561007157600080fd5b5061005b61008036600461068e565b610118565b61005b6100933660046106a9565b61015f565b3480156100a457600080fd5b506100ad6101d0565b6040516001600160a01b03909116815260200160405180910390f35b3480156100d557600080fd5b5061005b6100e436600461068e565b61020b565b3480156100f557600080fd5b506100ad610235565b610106610292565b610116610111610331565b61033b565b565b61012061035f565b6001600160a01b0316336001600160a01b031614156101575761015481604051806020016040528060008152506000610380565b50565b6101546100fe565b61016761035f565b6001600160a01b0316336001600160a01b031614156101c8576101c38383838080601f01602080910402602001604051908101604052809392919081815260200183838082843760009201919091525060019250610380915050565b505050565b6101c36100fe565b60006101da61035f565b6001600160a01b0316336001600160a01b03161415610200576101fb610331565b905090565b6102086100fe565b90565b61021361035f565b6001600160a01b0316336001600160a01b0316141561015757610154816103ab565b600061023f61035f565b6001600160a01b0316336001600160a01b03161415610200576101fb61035f565b606061028583836040518060600160405280602781526020016107e7602791396103ff565b9392505050565b3b151590565b61029a61035f565b6001600160a01b0316336001600160a01b031614156101165760405162461bcd60e51b815260206004820152604260248201527f5472616e73706172656e745570677261646561626c6550726f78793a2061646d60448201527f696e2063616e6e6f742066616c6c6261636b20746f2070726f78792074617267606482015261195d60f21b608482015260a4015b60405180910390fd5b60006101fb6104d3565b3660008037600080366000845af43d6000803e80801561035a573d6000f35b3d6000fd5b60006000805160206107a78339815191525b546001600160a01b0316919050565b610389836104e9565b6000825111806103965750805b156101c3576103a58383610260565b50505050565b7f7e644d79422f17c01e4894b5f4f588d331ebfa28653d42ae832dc59e38c9798f6103d461035f565b604080516001600160a01b03928316815291841660208301520160405180910390a161015481610529565b6060833b61045e5760405162461bcd60e51b815260206004820152602660248201527f416464726573733a2064656c65676174652063616c6c20746f206e6f6e2d636f6044820152651b9d1c9858dd60d21b6064820152608401610328565b600080856001600160a01b031685604051610479919061072b565b600060405180830381855af49150503d80600081146104b4576040519150601f19603f3d011682016040523d82523d6000602084013e6104b9565b606091505b50915091506104c98282866105c0565b9695505050505050565b60006000805160206107c7833981519152610371565b6104f2816105f9565b6040516001600160a01b038216907fbc7cd75a20ee27fd9adebab32041f755214dbc6bffa90cc0225b39da2e5c2d3b90600090a250565b6001600160a01b03811661058e5760405162461bcd60e51b815260206004820152602660248201527f455243313936373a206e65772061646d696e20697320746865207a65726f206160448201526564647265737360d01b6064820152608401610328565b806000805160206107a78339815191525b80546001600160a01b0319166001600160a01b039290921691909117905550565b606083156105cf575081610285565b8251156105df5782518084602001fd5b8160405162461bcd60e51b81526004016103289190610747565b803b61065d5760405162461bcd60e51b815260206004820152602d60248201527f455243313936373a206e657720696d706c656d656e746174696f6e206973206e60448201526c1bdd08184818dbdb9d1c9858dd609a1b6064820152608401610328565b806000805160206107c783398151915261059f565b80356001600160a01b038116811461068957600080fd5b919050565b6000602082840312156106a057600080fd5b61028582610672565b6000806000604084860312156106be57600080fd5b6106c784610672565b925060208401356001600160401b03808211156106e357600080fd5b818601915086601f8301126106f757600080fd5b81358181111561070657600080fd5b87602082850101111561071857600080fd5b6020830194508093505050509250925092565b6000825161073d81846020870161077a565b9190910192915050565b602081526000825180602084015261076681604085016020870161077a565b601f01601f19169190910160400192915050565b60005b8381101561079557818101518382015260200161077d565b838111156103a5575050600091015256feb53127684a568b3173ae13b9f8a6016e243e63b6e8ee1178d6a717850b5d6103360894a13ba1a3210667c828492db98dca3e2076cc3735a920a3ca505d382bbc416464726573733a206c6f772d6c6576656c2064656c65676174652063616c6c206661696c6564a2646970667358221220bf234746908c6f46655f3e5bb4f0abadaeb249c68beba1c928f2af74deb56e2264736f6c63430008070033b53127684a568b3173ae13b9f8a6016e243e63b6e8ee1178d6a717850b5d6103360894a13ba1a3210667c828492db98dca3e2076cc3735a920a3ca505d382bbc416464726573733a206c6f772d6c6576656c2064656c65676174652063616c6c206661696c6564608060405234801561001057600080fd5b5060405161052338038061052383398101604081905261002f91610148565b61003833610047565b61004181610097565b50610178565b600080546001600160a01b038381166001600160a01b0319831681178455604051919092169283917f8be0079c531659141344cd1fd0a4f28419497f9722a3daafe3b4186f6b6457e09190a35050565b6100aa8161014260201b61021f1760201c565b6101205760405162461bcd60e51b815260206004820152603360248201527f5570677261646561626c65426561636f6e3a20696d706c656d656e746174696f60448201527f6e206973206e6f74206120636f6e747261637400000000000000000000000000606482015260840160405180910390fd5b600180546001600160a01b0319166001600160a01b0392909216919091179055565b3b151590565b60006020828403121561015a57600080fd5b81516001600160a01b038116811461017157600080fd5b9392505050565b61039c806101876000396000f3fe608060405234801561001057600080fd5b50600436106100575760003560e01c80633659cfe61461005c5780635c60da1b14610071578063715018a61461009a5780638da5cb5b146100a2578063f2fde38b146100aa575b600080fd5b61006f61006a366004610301565b6100bd565b005b6001546001600160a01b03165b6040516001600160a01b03909116815260200160405180910390f35b61006f610135565b61007e610170565b61006f6100b8366004610301565b61017f565b336100c6610170565b6001600160a01b0316146100f55760405162461bcd60e51b81526004016100ec90610331565b60405180910390fd5b6100fe81610225565b6040516001600160a01b038216907fbc7cd75a20ee27fd9adebab32041f755214dbc6bffa90cc0225b39da2e5c2d3b90600090a250565b3361013e610170565b6001600160a01b0316146101645760405162461bcd60e51b81526004016100ec90610331565b61016e60006102b1565b565b6000546001600160a01b031690565b33610188610170565b6001600160a01b0316146101ae5760405162461bcd60e51b81526004016100ec90610331565b6001600160a01b0381166102135760405162461bcd60e51b815260206004820152602660248201527f4f776e61626c653a206e6577206f776e657220697320746865207a65726f206160448201526564647265737360d01b60648201526084016100ec565b61021c816102b1565b50565b3b151590565b803b61028f5760405162461bcd60e51b815260206004820152603360248201527f5570677261646561626c65426561636f6e3a20696d706c656d656e746174696f6044820152721b881a5cc81b9bdd08184818dbdb9d1c9858dd606a1b60648201526084016100ec565b600180546001600160a01b0319166001600160a01b0392909216919091179055565b600080546001600160a01b038381166001600160a01b0319831681178455604051919092169283917f8be0079c531659141344cd1fd0a4f28419497f9722a3daafe3b4186f6b6457e09190a35050565b60006020828403121561031357600080fd5b81356001600160a01b038116811461032a57600080fd5b9392505050565b6020808252818101527f4f776e61626c653a2063616c6c6572206973206e6f7420746865206f776e657260408201526060019056fea2646970667358221220b1e86d9e5a9827481ff081a46fc0ff448af58190927b3eac96f691d6bcdce0a964736f6c63430008070033a26469706673582212209ea8a1d37456acb04c04070f9a488c84b73ea9945fea2c7d7bcf03e0983f054564736f6c63430008070033608060405234801561001057600080fd5b5061001a3361001f565b61006f565b600080546001600160a01b038381166001600160a01b0319831681178455604051919092169283917f8be0079c531659141344cd1fd0a4f28419497f9722a3daafe3b4186f6b6457e09190a35050565b61073f8061007e6000396000f3fe60806040526004361061006b5760003560e01c8063204e1c7a14610070578063715018a6146100a65780637eff275e146100bd5780638da5cb5b146100dd5780639623609d146100f257806399a88ec414610105578063f2fde38b14610125578063f3b7dead14610145575b600080fd5b34801561007c57600080fd5b5061009061008b3660046104e1565b610165565b60405161009d9190610630565b60405180910390f35b3480156100b257600080fd5b506100bb6101f6565b005b3480156100c957600080fd5b506100bb6100d8366004610522565b61023a565b3480156100e957600080fd5b506100906102cb565b6100bb61010036600461055b565b6102da565b34801561011157600080fd5b506100bb610120366004610522565b610370565b34801561013157600080fd5b506100bb6101403660046104e1565b6103cb565b34801561015157600080fd5b506100906101603660046104e1565b61046b565b6000806000836001600160a01b031660405161018b90635c60da1b60e01b815260040190565b600060405180830381855afa9150503d80600081146101c6576040519150601f19603f3d011682016040523d82523d6000602084013e6101cb565b606091505b5091509150816101da57600080fd5b808060200190518101906101ee9190610505565b949350505050565b336101ff6102cb565b6001600160a01b03161461022e5760405162461bcd60e51b8152600401610225906106a9565b60405180910390fd5b6102386000610491565b565b336102436102cb565b6001600160a01b0316146102695760405162461bcd60e51b8152600401610225906106a9565b6040516308f2839760e41b81526001600160a01b03831690638f28397090610295908490600401610630565b600060405180830381600087803b1580156102af57600080fd5b505af11580156102c3573d6000803e3d6000fd5b505050505050565b6000546001600160a01b031690565b336102e36102cb565b6001600160a01b0316146103095760405162461bcd60e51b8152600401610225906106a9565b60405163278f794360e11b81526001600160a01b03841690634f1ef2869034906103399086908690600401610644565b6000604051808303818588803b15801561035257600080fd5b505af1158015610366573d6000803e3d6000fd5b5050505050505050565b336103796102cb565b6001600160a01b03161461039f5760405162461bcd60e51b8152600401610225906106a9565b604051631b2ce7f360e11b81526001600160a01b03831690633659cfe690610295908490600401610630565b336103d46102cb565b6001600160a01b0316146103fa5760405162461bcd60e51b8152600401610225906106a9565b6001600160a01b03811661045f5760405162461bcd60e51b815260206004820152602660248201527f4f776e61626c653a206e6577206f776e657220697320746865207a65726f206160448201526564647265737360d01b6064820152608401610225565b61046881610491565b50565b6000806000836001600160a01b031660405161018b906303e1469160e61b815260040190565b600080546001600160a01b038381166001600160a01b0319831681178455604051919092169283917f8be0079c531659141344cd1fd0a4f28419497f9722a3daafe3b4186f6b6457e09190a35050565b6000602082840312156104f357600080fd5b81356104fe816106f4565b9392505050565b60006020828403121561051757600080fd5b81516104fe816106f4565b6000806040838503121561053557600080fd5b8235610540816106f4565b91506020830135610550816106f4565b809150509250929050565b60008060006060848603121561057057600080fd5b833561057b816106f4565b9250602084013561058b816106f4565b915060408401356001600160401b03808211156105a757600080fd5b818601915086601f8301126105bb57600080fd5b8135818111156105cd576105cd6106de565b604051601f8201601f19908116603f011681019083821181831017156105f5576105f56106de565b8160405282815289602084870101111561060e57600080fd5b8260208601602083013760006020848301015280955050505050509250925092565b6001600160a01b0391909116815260200190565b60018060a01b038316815260006020604081840152835180604085015260005b8181101561068057858101830151858201606001528201610664565b81811115610692576000606083870101525b50601f01601f191692909201606001949350505050565b6020808252818101527f4f776e61626c653a2063616c6c6572206973206e6f7420746865206f776e6572604082015260600190565b634e487b7160e01b600052604160045260246000fd5b6001600160a01b038116811461046857600080fdfea26469706673582212207240b38990a52bc008f8ef6148c6f36363b8fbb55bee70cee697cb8e4d4c00ce64736f6c63430008070033",
  "immutableReferences": {},
  "source": "// SPDX-License-Identifier: GPL-3.0\r\n\r\npragma solidity 0.8.7;\r\n\r\n/**\r\n * @title Storage\r\n * @dev Store & retrieve value in a variable\r\n */\r\n\r\nimport \"../Interfaces/IManager.sol\";\r\nimport \"../Interfaces/IFactory.sol\";\r\nimport \"../Base/StdPropositionBaseContract.sol\";\r\nimport \"../Libraries/AddressLibrary.sol\";\r\nimport \"../Libraries/Library.sol\";\r\nimport \"@openzeppelin/contracts-upgradeable/proxy/utils/Initializable.sol\";\r\nimport \"@openzeppelin/contracts/proxy/beacon/UpgradeableBeacon.sol\";\r\nimport \"@openzeppelin/contracts/proxy/transparent/TransparentUpgradeableProxy.sol\";\r\nimport \"@openzeppelin/contracts/proxy/transparent/ProxyAdmin.sol\";\r\n\r\n\r\ncontract CertificatesPoolManager is IManager, StdPropositionBaseContract{\r\n    using AddressLibrary for *;\r\n    using Library for *;\r\n\r\n    // EVENTS /////////////////////////////////////////\r\n    event _NewContracts(address Public, address Treasury, address Certis, address PrivateFactory, \r\n    address Private, address ProviderFactory, address Provider, address PriceConverter, \r\n    address PropositionSettings, address ENS);\r\n\r\n    // DATA /////////////////////////////////////////\r\n    address private _ManagerOwner;\r\n\r\n    // Admin Proxy to manage all the TransparentUpgradeableProxies\r\n    ProxyAdmin private _Admin;\r\n\r\n    // Private Certificate Pools Factory\r\n    TransparentUpgradeableProxy private _PrivatePoolFactory;\r\n\r\n    // Private Certificates Pool\r\n    UpgradeableBeacon private _PrivateCertificatePoolBeacon;\r\n\r\n    // Provider Factory\r\n    TransparentUpgradeableProxy private _ProviderFactory;\r\n\r\n    // Provider\r\n    UpgradeableBeacon private _ProviderBeacon;\r\n\r\n    // Public Certificates Pool\r\n    TransparentUpgradeableProxy private _PublicCertificatesPool;\r\n\r\n    // Treasury\r\n    TransparentUpgradeableProxy private _Treasury;\r\n\r\n    // Certis Token\r\n    TransparentUpgradeableProxy private _CertisToken;\r\n\r\n    // Price Converter\r\n    TransparentUpgradeableProxy private _PriceConverter;\r\n\r\n    // Proposition Settings\r\n    TransparentUpgradeableProxy private _PropositionSettings;\r\n\r\n    // ENS\r\n    TransparentUpgradeableProxy private _ENS;\r\n\r\n    // init\r\n    bool private _init;\r\n\r\n    // MODIFIERS /////////////////////////////////////////\r\n    modifier isNotInitialized(){\r\n        require(false == _init, \"EC26-\");\r\n        _;\r\n    }\r\n\r\n    modifier isOwner(address addr){\r\n        Library.ItIsSomeone(addr, _ManagerOwner);\r\n        _;\r\n    }\r\n\r\n    // CONSTRUCTOR and INITIALIZATION /////////////////////////////////////////\r\n    constructor(string memory contractName, string memory contractVersion, address managerOwner) \r\n    {\r\n        super.TokenGovernanceContract_init(msg.sender, address(this), contractName, contractVersion);\r\n        _Admin = new ProxyAdmin();\r\n        _init = false;\r\n        _ManagerOwner = managerOwner;\r\n    }\r\n\r\n    function InitializeContracts(Library.ProposedContractsStruct calldata initialContracts) \r\n        isFromChairPerson(msg.sender)\r\n        isNotInitialized()\r\n    external override\r\n    {\r\n        initProxies(initialContracts);\r\n        _init = true;\r\n    }\r\n\r\n    // FUNCTIONALITY /////////////////////////////////////////\r\n    // governance : contracts assignment and management\r\n    function initProxies(Library.ProposedContractsStruct calldata initialContracts) private\r\n    {\r\n        _PublicCertificatesPool = new TransparentUpgradeableProxy(initialContracts.NewPublicPoolAddress, address(_Admin), initialContracts.NewPublicPoolData);\r\n        _Treasury = new TransparentUpgradeableProxy(initialContracts.NewTreasuryAddress, address(_Admin), initialContracts.NewTreasuryData);\r\n        _CertisToken = new TransparentUpgradeableProxy(initialContracts.NewCertisTokenAddress, address(_Admin), initialContracts.NewCertisTokenData);\r\n        _PrivatePoolFactory = new TransparentUpgradeableProxy(initialContracts.NewPrivatePoolFactoryAddress, address(_Admin), initialContracts.NewPrivatePoolFactoryData);\r\n        _PrivateCertificatePoolBeacon = new UpgradeableBeacon(initialContracts.NewPrivatePoolAddress);\r\n        _ProviderFactory = new TransparentUpgradeableProxy(initialContracts.NewProviderFactoryAddress, address(_Admin), initialContracts.NewProviderFactoryData);\r\n        _ProviderBeacon = new UpgradeableBeacon(initialContracts.NewProviderAddress);\r\n        _PriceConverter = new TransparentUpgradeableProxy(initialContracts.NewPriceConverterAddress, address(_Admin), initialContracts.NewPriceConverterData);\r\n        _PropositionSettings = new TransparentUpgradeableProxy(initialContracts.NewPropositionSettingsAddress, address(_Admin), initialContracts.NewPropositionSettingsData);\r\n        _ENS = new TransparentUpgradeableProxy(initialContracts.NewENSAddress, address(_Admin), initialContracts.NewENSData);\r\n\r\n        IFactory(address(_PrivatePoolFactory)).updateContractName(initialContracts.NewPrivatePoolContractName);\r\n        IFactory(address(_PrivatePoolFactory)).updateContractVersion(initialContracts.NewPrivatePoolContractVersion);\r\n    }\r\n\r\n    function UpdateAll() internal override\r\n    {\r\n        bytes32[] memory ProposedNewValues = PropositionsToBytes32();\r\n\r\n        upgradeContractImplementation(_PublicCertificatesPool, AddressLibrary.Bytes32ToAddress(ProposedNewValues[0]), _ProposedNewValues[10]);\r\n        upgradeContractImplementation(_Treasury, AddressLibrary.Bytes32ToAddress(ProposedNewValues[1]), _ProposedNewValues[11]);\r\n        upgradeContractImplementation(_CertisToken, AddressLibrary.Bytes32ToAddress(ProposedNewValues[2]), _ProposedNewValues[12]);\r\n        upgradeContractImplementation(_PrivatePoolFactory, AddressLibrary.Bytes32ToAddress(ProposedNewValues[3]), _ProposedNewValues[13]);\r\n        upgradeContractImplementation(_ProviderFactory, AddressLibrary.Bytes32ToAddress(ProposedNewValues[5]),_ProposedNewValues[14]);\r\n        upgradeContractImplementation(_PriceConverter, AddressLibrary.Bytes32ToAddress(ProposedNewValues[7]), _ProposedNewValues[15]);\r\n        upgradeContractImplementation(_PropositionSettings, AddressLibrary.Bytes32ToAddress(ProposedNewValues[8]), _ProposedNewValues[16]);\r\n        upgradeContractImplementation(_ENS, AddressLibrary.Bytes32ToAddress(ProposedNewValues[9]),_ProposedNewValues[17]);\r\n\r\n        if(address(0) != AddressLibrary.Bytes32ToAddress(ProposedNewValues[4]))_PrivateCertificatePoolBeacon.upgradeTo(AddressLibrary.Bytes32ToAddress(ProposedNewValues[4]));\r\n        if(address(0) != AddressLibrary.Bytes32ToAddress(ProposedNewValues[6]))_ProviderBeacon.upgradeTo(AddressLibrary.Bytes32ToAddress(ProposedNewValues[6]));\r\n\r\n        if(0 < _ProposedNewValues[18].length)\r\n            IFactory(address(_PrivatePoolFactory)).updateContractName(string(_ProposedNewValues[18]));\r\n\r\n        if(0 < _ProposedNewValues[19].length)\r\n            IFactory(address(_PrivatePoolFactory)).updateContractVersion(string(_ProposedNewValues[19]));\r\n        \r\n        emit _NewContracts(internalRetrieveImpl(_PublicCertificatesPool), internalRetrieveImpl(_Treasury), \r\n        internalRetrieveImpl(_CertisToken), internalRetrieveImpl(_PrivatePoolFactory), \r\n        internalRetrievePrivatePool(), internalRetrieveImpl(_ProviderFactory), internalRetrieveProvider(),\r\n        internalRetrieveImpl(_PriceConverter), internalRetrieveImpl(_PropositionSettings), internalRetrieveImpl(_ENS));\r\n    }\r\n\r\n    function upgradeContractImplementation(TransparentUpgradeableProxy proxy, address NewImpl, bytes memory Data) private\r\n    {\r\n        if(address(0) != NewImpl){\r\n            if(0 < Data.length)_Admin.upgradeAndCall(proxy, NewImpl, Data);\r\n            else _Admin.upgrade(proxy, NewImpl);\r\n        }\r\n    }\r\n\r\n    function ChangeAdminOwner(address newOwner) external override \r\n        isOwner(msg.sender)\r\n    {\r\n        _Admin.transferOwnership(newOwner);\r\n    }\r\n\r\n    // configuration Proxies\r\n    function retrievePublicCertificatePoolProxy() external override view returns (address) {\r\n        return (address(_PublicCertificatesPool));\r\n    }\r\n\r\n    function retrieveTreasuryProxy() external override view returns (address) {\r\n        return (address(_Treasury));\r\n    }\r\n\r\n    function retrieveCertisTokenProxy() external override view returns (address) {\r\n        return (address(_CertisToken));\r\n    }\r\n\r\n    function retrievePrivatePoolFactoryProxy() external override view returns (address) {\r\n        return (address(_PrivatePoolFactory));\r\n    }\r\n\r\n    function retrievePrivatePoolBeacon() external override view returns (address) {\r\n        return (address(_PrivateCertificatePoolBeacon));\r\n    }\r\n\r\n    function retrieveProviderFactoryProxy() external override view returns (address) {\r\n        return (address(_ProviderFactory));\r\n    }\r\n\r\n    function retrieveProviderBeacon() external override view returns (address) {\r\n        return (address(_ProviderBeacon));\r\n    }\r\n\r\n    function retrievePriceConverterProxy() external override view returns (address) {\r\n        return (address(_PriceConverter));\r\n    }\r\n\r\n    function retrievePropositionSettingsProxy() external override view returns (address) {\r\n        return (address(_PropositionSettings));\r\n    }\r\n\r\n    function retrieveENSProxy() external override view returns (address) {\r\n        return (address(_ENS));\r\n    }\r\n\r\n    // configuration implementations\r\n    function retrievePublicCertificatePool() external override view returns (address) {\r\n        return internalRetrieveImpl(_PublicCertificatesPool);\r\n    }\r\n\r\n    function retrieveTreasury() external override view returns (address) {\r\n        return internalRetrieveImpl(_Treasury);\r\n    }\r\n\r\n    function retrieveCertisToken() external override view returns (address) {\r\n        return internalRetrieveImpl(_CertisToken);\r\n    }\r\n\r\n    function retrievePrivatePoolFactory() external override view returns (address) {\r\n        return internalRetrieveImpl(_PrivatePoolFactory);\r\n    }\r\n\r\n    function retrievePrivatePool() external override view returns (address) {\r\n        return internalRetrievePrivatePool();\r\n    }\r\n\r\n    function retrieveProviderFactory() external override view returns (address) {\r\n        return internalRetrieveImpl(_ProviderFactory);\r\n    }\r\n\r\n    function retrieveProvider() external override view returns (address) {\r\n        return internalRetrieveProvider();\r\n    }\r\n\r\n    function retrievePriceConverter() external override view returns (address) {\r\n        return internalRetrieveImpl(_PriceConverter);\r\n    }\r\n\r\n    function retrievePropositionSettings() external override view returns (address) {\r\n        return internalRetrieveImpl(_PropositionSettings);\r\n    }\r\n\r\n    function retrieveENS() external override view returns (address) {\r\n        return internalRetrieveImpl(_ENS);\r\n    }\r\n\r\n    function isInitialized() external override view returns(bool){\r\n        return _init;\r\n    }\r\n\r\n    // internal\r\n    function internalRetrieveImpl(TransparentUpgradeableProxy proxy) internal view returns (address){\r\n        return _Admin.getProxyImplementation(proxy);\r\n    }\r\n\r\n    function internalRetrievePrivatePool() internal view returns (address) {\r\n        return _PrivateCertificatePoolBeacon.implementation();\r\n    }\r\n\r\n    function internalRetrieveProvider() internal view returns (address) {\r\n        return _ProviderBeacon.implementation();\r\n    }\r\n  \r\n}",
  "sourcePath": "C:/Users/d-aam/GitHub/Certificates/contracts/DeployedContracts/CertificatesPoolManager.sol",
  "compiler": {
    "name": "solc",
    "version": "0.8.7+commit.e28d00a7.Emscripten.clang"
  },
  "schemaVersion": "3.3.4",
  "updatedAt": "2021-11-02T07:11:27.695Z",
  "networkType": "ethereum",
  "devdoc": {
    "kind": "dev",
    "methods": {},
    "version": 1
  },
  "userdoc": {
    "kind": "user",
    "methods": {},
    "version": 1
  }
}