{
  "contractName": "CertificatesPoolManager",
  "abi": [
    {
      "inputs": [
        {
          "internalType": "address[]",
          "name": "owners",
          "type": "address[]"
        },
        {
          "internalType": "uint256",
          "name": "minOwners",
          "type": "uint256"
        },
        {
          "internalType": "uint256",
          "name": "PublicPriceWei",
          "type": "uint256"
        },
        {
          "internalType": "uint256",
          "name": "PrivatePriceWei",
          "type": "uint256"
        }
      ],
      "stateMutability": "payable",
      "type": "constructor"
    },
    {
      "anonymous": false,
      "inputs": [
        {
          "indexed": false,
          "internalType": "uint256",
          "name": "",
          "type": "uint256"
        },
        {
          "indexed": false,
          "internalType": "address",
          "name": "",
          "type": "address"
        },
        {
          "indexed": false,
          "internalType": "contract MultiSigCertificatesPool",
          "name": "",
          "type": "address"
        }
      ],
      "name": "_NewCertificatesPool",
      "type": "event"
    },
    {
      "anonymous": false,
      "inputs": [
        {
          "indexed": false,
          "internalType": "address",
          "name": "",
          "type": "address"
        }
      ],
      "name": "_SendProposalId",
      "type": "event"
    },
    {
      "inputs": [
        {
          "internalType": "address[]",
          "name": "owners",
          "type": "address[]"
        },
        {
          "internalType": "uint256",
          "name": "minOwners",
          "type": "uint256"
        }
      ],
      "name": "createPrivateCertificatesPool",
      "outputs": [],
      "stateMutability": "payable",
      "type": "function"
    },
    {
      "inputs": [
        {
          "internalType": "uint256",
          "name": "certificatePoolId",
          "type": "uint256"
        }
      ],
      "name": "retrievePrivateCertificatesPool",
      "outputs": [
        {
          "internalType": "address",
          "name": "",
          "type": "address"
        },
        {
          "internalType": "contract MultiSigCertificatesPool",
          "name": "",
          "type": "address"
        }
      ],
      "stateMutability": "view",
      "type": "function"
    },
    {
      "inputs": [
        {
          "internalType": "address",
          "name": "provider",
          "type": "address"
        },
        {
          "internalType": "string",
          "name": "providerInfo",
          "type": "string"
        }
      ],
      "name": "sendProposal",
      "outputs": [],
      "stateMutability": "payable",
      "type": "function"
    },
    {
      "inputs": [],
      "name": "retrievePublicCertificatesPool",
      "outputs": [
        {
          "internalType": "contract MultiSigCertificatesPool",
          "name": "",
          "type": "address"
        }
      ],
      "stateMutability": "view",
      "type": "function"
    },
    {
      "inputs": [],
      "name": "retrieveChairPerson",
      "outputs": [
        {
          "internalType": "address",
          "name": "",
          "type": "address"
        }
      ],
      "stateMutability": "view",
      "type": "function"
    }
  ],
  "bytecode": "0x60806040526040516200d5e33803806200d5e38339818101604052608081101561002857600080fd5b810190808051604051939291908464010000000082111561004857600080fd5b8382019150602082018581111561005e57600080fd5b825186602082028301116401000000008211171561007b57600080fd5b8083526020830192505050908051906020019060200280838360005b838110156100b2578082015181840152602081019050610097565b5050505090500160405260200180519060200190929190805190602001909291908051906020019092919050505033600460006101000a81548173ffffffffffffffffffffffffffffffffffffffff021916908373ffffffffffffffffffffffffffffffffffffffff1602179055508160008190555080600181905550838360405161013d906101f5565b8080602001838152602001828103825284818151815260200191508051906020019060200280838360005b83811015610183578082015181840152602081019050610168565b505050509050019350505050604051809103906000f0801580156101ab573d6000803e3d6000fd5b50600360006101000a81548173ffffffffffffffffffffffffffffffffffffffff021916908373ffffffffffffffffffffffffffffffffffffffff16021790555050505050610203565b616a058062006bde83390190565b6169cb80620002136000396000f3fe608060405260043610620000505760003560e01c8063858e7ce61462000055578063b85dfd951462000136578063d185a526146200017a578063db85bc4d1462000200578063f5807c051462000244575b600080fd5b62000134600480360360408110156200006d57600080fd5b81019080803573ffffffffffffffffffffffffffffffffffffffff16906020019092919080359060200190640100000000811115620000ab57600080fd5b820183602082011115620000be57600080fd5b80359060200191846001830284011164010000000083111715620000e157600080fd5b91908080601f016020809104026020016040519081016040528093929190818152602001838380828437600081840152601f19601f8201169050808301925050505050505091929192905050506200030c565b005b3480156200014357600080fd5b506200014e620004ed565b604051808273ffffffffffffffffffffffffffffffffffffffff16815260200191505060405180910390f35b3480156200018757600080fd5b50620001b760048036036020811015620001a057600080fd5b810190808035906020019092919050505062000517565b604051808373ffffffffffffffffffffffffffffffffffffffff1681526020018273ffffffffffffffffffffffffffffffffffffffff1681526020019250505060405180910390f35b3480156200020d57600080fd5b5062000218620006bb565b604051808273ffffffffffffffffffffffffffffffffffffffff16815260200191505060405180910390f35b6200030a600480360360408110156200025c57600080fd5b81019080803590602001906401000000008111156200027a57600080fd5b8201836020820111156200028d57600080fd5b80359060200191846020830284011164010000000083111715620002b057600080fd5b919080806020026020016040519081016040528093929190818152602001838360200280828437600081840152601f19601f82011690508083019250505050505050919291929080359060200190929190505050620006e5565b005b6000548034101562000386576040517f08c379a00000000000000000000000000000000000000000000000000000000081526004018080602001828103825260108152602001807f4e6f7420656e6f7567682066756e64730000000000000000000000000000000081525060200191505060405180910390fd5b600360009054906101000a900473ffffffffffffffffffffffffffffffffffffffff1673ffffffffffffffffffffffffffffffffffffffff1663fc00050084846040518363ffffffff1660e01b8152600401808373ffffffffffffffffffffffffffffffffffffffff16815260200180602001828103825283818151815260200191508051906020019080838360005b838110156200043357808201518184015260208101905062000416565b50505050905090810190601f168015620004615780820380516001836020036101000a031916815260200191505b509350505050600060405180830381600087803b1580156200048257600080fd5b505af115801562000497573d6000803e3d6000fd5b505050507fbaf065d025fe427c7c36f893bdec1c49e6c164c4a6531f4216f64e6e876a9a4f83604051808273ffffffffffffffffffffffffffffffffffffffff16815260200191505060405180910390a1505050565b6000600360009054906101000a900473ffffffffffffffffffffffffffffffffffffffff16905090565b6000808260028054905073__Library_______________________________632477a0ea83836040518363ffffffff1660e01b8152600401808381526020018281526020019250505060206040518083038186803b1580156200057957600080fd5b505af41580156200058e573d6000803e3d6000fd5b505050506040513d6020811015620005a557600080fd5b81019080805190602001909291905050501515600115151462000630576040517f08c379a00000000000000000000000000000000000000000000000000000000081526004018080602001828103825260148152602001807f70726f76696465642049642069732077726f6e6700000000000000000000000081525060200191505060405180910390fd5b600285815481106200063e57fe5b906000526020600020906002020160000160009054906101000a900473ffffffffffffffffffffffffffffffffffffffff16600286815481106200067e57fe5b906000526020600020906002020160010160009054906101000a900473ffffffffffffffffffffffffffffffffffffffff16935093505050915091565b6000600460009054906101000a900473ffffffffffffffffffffffffffffffffffffffff16905090565b600154803410156200075f576040517f08c379a00000000000000000000000000000000000000000000000000000000081526004018080602001828103825260108152602001807f4e6f7420656e6f7567682066756e64730000000000000000000000000000000081525060200191505060405180910390fd5b60008383604051620007719062000970565b8080602001838152602001828103825284818151815260200191508051906020019060200280838360005b83811015620007b95780820151818401526020810190506200079c565b505050509050019350505050604051809103906000f080158015620007e2573d6000803e3d6000fd5b509050600060405180604001604052803373ffffffffffffffffffffffffffffffffffffffff1681526020018373ffffffffffffffffffffffffffffffffffffffff168152509050600281908060018154018082558091505060019003906000526020600020906002020160009091909190915060008201518160000160006101000a81548173ffffffffffffffffffffffffffffffffffffffff021916908373ffffffffffffffffffffffffffffffffffffffff16021790555060208201518160010160006101000a81548173ffffffffffffffffffffffffffffffffffffffff021916908373ffffffffffffffffffffffffffffffffffffffff16021790555050507f9bfff6b81778f7b8086272d62a71be896cfc1876bb5f2e4e1fe28bc4c241596860016002805490500382600001518360200151604051808481526020018373ffffffffffffffffffffffffffffffffffffffff1681526020018273ffffffffffffffffffffffffffffffffffffffff168152602001935050505060405180910390a15050505050565b616017806200097f8339019056fe608060405260405180604001604052806040518060400160405280600581526020017f4f776e657200000000000000000000000000000000000000000000000000000081525081526020016040518060400160405280600881526020017f50726f766964657200000000000000000000000000000000000000000000000081525081525060049060026200009592919062000466565b5060405162006017380380620060178339818101604052810190620000bb9190620006c7565b8181818160026004805480602002602001604051908101604052809291908181526020016000905b82821015620001a5578382906000526020600020018054600181600116156101000203166002900480601f016020809104026020016040519081016040528092919081815260200182805460018160011615610100020316600290048015620001905780601f10620001645761010080835404028352916020019162000190565b820191906000526020600020905b8154815290600101906020018083116200017257829003601f168201915b505050505081526020019060010190620000e3565b5050505060008451841115620001f2576040517f08c379a0000000000000000000000000000000000000000000000000000000008152600401620001e9906200080d565b60405180910390fd5b6000841162000238576040517f08c379a00000000000000000000000000000000000000000000000000000000081526004016200022f9062000851565b60405180910390fd5b815183146200027e576040517f08c379a000000000000000000000000000000000000000000000000000000000815260040162000275906200082f565b60405180910390fd5b8060008190555060005b838110156200030f576003600181600181540180825580915050039060005260206000209050506002838281518110620002be57fe5b602002602001015190806001815401808255809150506001900390600052602060002001600090919091909150908051906020019062000300929190620004cd565b50808060010191505062000288565b508360018190555060005b8551811015620004565760016003600054815481106200033657fe5b906000526020600020906002020160000160008884815181106200035657fe5b602002602001015173ffffffffffffffffffffffffffffffffffffffff1673ffffffffffffffffffffffffffffffffffffffff16815260200190815260200160002060010160006101000a81548160ff021916908315150217905550600360005481548110620003c257fe5b9060005260206000209060020201600101868281518110620003e057fe5b60200260200101519080600181540180825580915050600190039060005260206000200160009091909190916101000a81548173ffffffffffffffffffffffffffffffffffffffff021916908373ffffffffffffffffffffffffffffffffffffffff16021790555080806001019150506200031a565b505050505050505050506200095b565b828054828255906000526020600020908101928215620004ba579160200282015b82811115620004b9578251829080519060200190620004a8929190620004cd565b509160200191906001019062000487565b5b509050620004c9919062000564565b5090565b828054600181600116156101000203166002900490600052602060002090601f01602090048101928262000505576000855562000551565b82601f106200052057805160ff191683800117855562000551565b8280016001018555821562000551579182015b828111156200055057825182559160200191906001019062000533565b5b5090506200056091906200058c565b5090565b5b808211156200058857600081816200057e9190620005ab565b5060010162000565565b5090565b5b80821115620005a75760008160009055506001016200058d565b5090565b50805460018160011615610100020316600290046000825580601f10620005d35750620005f4565b601f016020900490600052602060002090810190620005f391906200058c565b5b50565b60006200060e6200060884620008a7565b62000873565b905080838252602082019050828560208602820111156200062e57600080fd5b60005b858110156200066257816200064788826200066c565b84526020840193506020830192505060018101905062000631565b5050509392505050565b6000815190506200067d8162000927565b92915050565b600082601f8301126200069557600080fd5b8151620006a7848260208601620005f7565b91505092915050565b600081519050620006c18162000941565b92915050565b60008060408385031215620006db57600080fd5b600083015167ffffffffffffffff811115620006f657600080fd5b620007048582860162000683565b92505060206200071785828601620006b0565b9150509250929050565b600062000730603c83620008d6565b91507f4e6f7420656e6f756768206f776e6572732070726f766964656420746f206d6560008301527f657420746865206d696e4f776e65727320726571756972656d656e74000000006020830152604082019050919050565b600062000798601d83620008d6565b91507f4e6f7420656e6f756768206f7220746f6f206d616e79206c6162656c730000006000830152602082019050919050565b6000620007da601883620008d6565b91507f4174206c656173742031206d696e696d756d206f776e657200000000000000006000830152602082019050919050565b60006020820190508181036000830152620008288162000721565b9050919050565b600060208201905081810360008301526200084a8162000789565b9050919050565b600060208201905081810360008301526200086c81620007cb565b9050919050565b6000604051905081810181811067ffffffffffffffff821117156200089d576200089c62000925565b5b8060405250919050565b600067ffffffffffffffff821115620008c557620008c462000925565b5b602082029050602081019050919050565b600082825260208201905092915050565b6000620008f482620008fb565b9050919050565b600073ffffffffffffffffffffffffffffffffffffffff82169050919050565b6000819050919050565bfe5b6200093281620008e7565b81146200093e57600080fd5b50565b6200094c816200091b565b81146200095857600080fd5b50565b6156ac806200096b6000396000f3fe608060405234801561001057600080fd5b506004361061012c5760003560e01c806377bc5a1f116100ad578063a93d5ed611610071578063a93d5ed614610363578063d0a4adfe14610381578063d744d2f3146103b1578063eefe7681146103cf578063fc000500146103ed5761012c565b806377bc5a1f146102af5780638a355a57146102df578063925979fd146102fb5780639fc104361461032b578063a73db28a146103475761012c565b80633542758f116100f45780633542758f146101e557806337583499146102015780636b074a07146102315780636e4f9179146102615780636e55d2d41461027f5761012c565b80631270db7a146101315780631660c22a14610161578063173825d91461017d5780631ab807f8146101995780632f54bf6e146101b5575b600080fd5b61014b60048036038101906101469190614b90565b610409565b60405161015891906153f5565b60405180910390f35b61017b60048036038101906101769190614c2f565b610586565b005b61019760048036038101906101929190614b67565b610596565b005b6101b360048036038101906101ae9190614cac565b6105a5565b005b6101cf60048036038101906101ca9190614b67565b61085b565b6040516101dc9190615268565b60405180910390f35b6101ff60048036038101906101fa9190614c2f565b610870565b005b61021b60048036038101906102169190614b67565b610881565b6040516102289190615283565b60405180910390f35b61024b60048036038101906102469190614b67565b610895565b6040516102589190615268565b60405180910390f35b6102696108a9565b6040516102769190615224565b60405180910390f35b61029960048036038101906102949190614b67565b6108ba565b6040516102a691906153f5565b60405180910390f35b6102c960048036038101906102c49190614b67565b610909565b6040516102d69190615283565b60405180910390f35b6102f960048036038101906102f49190614b67565b61091e565b005b61031560048036038101906103109190614bcc565b61092c565b6040516103229190615246565b60405180910390f35b61034560048036038101906103409190614c2f565b610c5f565b005b610361600480360381019061035c9190614cac565b610c70565b005b61036b611071565b6040516103789190615224565b60405180910390f35b61039b60048036038101906103969190614cac565b611083565b6040516103a891906151b7565b60405180910390f35b6103b9611101565b6040516103c691906153f5565b60405180910390f35b6103d7611112565b6040516103e491906153f5565b60405180910390f35b61040760048036038101906104029190614c2f565b611124565b005b600080600560008473ffffffffffffffffffffffffffffffffffffffff1673ffffffffffffffffffffffffffffffffffffffff16815260200190815260200160002060010180548060200260200160405190810160405280929190818152602001828054801561049857602002820191906000526020600020905b815481526020019060010190808311610484575b505050505090506000805b825181101561057a578573ffffffffffffffffffffffffffffffffffffffff16600560008773ffffffffffffffffffffffffffffffffffffffff1673ffffffffffffffffffffffffffffffffffffffff168152602001908152602001600020600001600085848151811061051357fe5b6020026020010151815260200190815260200160002060009054906101000a900473ffffffffffffffffffffffffffffffffffffffff1673ffffffffffffffffffffffffffffffffffffffff16141561056d576001820191505b80806001019150506104a3565b50809250505092915050565b61059282826001611134565b5050565b6105a28160005461132f565b50565b6105ae33610895565b151560011515146105f4576040517f08c379a00000000000000000000000000000000000000000000000000000000081526004016105eb906152d5565b60405180910390fd5b81602060ff1660001061063c576040517f08c379a0000000000000000000000000000000000000000000000000000000008152600401610633906153b5565b60405180910390fd5b8183600560008373ffffffffffffffffffffffffffffffffffffffff1673ffffffffffffffffffffffffffffffffffffffff168152602001908152602001600020600001600082815260200190815260200160002060009054906101000a900473ffffffffffffffffffffffffffffffffffffffff1673ffffffffffffffffffffffffffffffffffffffff16600073ffffffffffffffffffffffffffffffffffffffff1614610720576040517f08c379a0000000000000000000000000000000000000000000000000000000008152600401610717906153d5565b60405180910390fd5b33600560008673ffffffffffffffffffffffffffffffffffffffff1673ffffffffffffffffffffffffffffffffffffffff168152602001908152602001600020600001600087815260200190815260200160002060006101000a81548173ffffffffffffffffffffffffffffffffffffffff021916908373ffffffffffffffffffffffffffffffffffffffff160217905550600560008573ffffffffffffffffffffffffffffffffffffffff1673ffffffffffffffffffffffffffffffffffffffff1681526020019081526020016000206001018590806001815401808255809150506001900390600052602060002001600090919091909150557f601cb9a073dbfa468ef12878ee6c720641a49b76af7c16099e8c0a1ac3ca79b5338560405161084c9291906151d2565b60405180910390a15050505050565b6000610869826000546117fe565b9050919050565b61087d8282600054611bc9565b5050565b606061088e826001612062565b9050919050565b60006108a28260016117fe565b9050919050565b60606108b56001612168565b905090565b6000600560008373ffffffffffffffffffffffffffffffffffffffff1673ffffffffffffffffffffffffffffffffffffffff168152602001908152602001600020600101805490509050919050565b606061091782600054612062565b9050919050565b61092981600161132f565b50565b606082600560008673ffffffffffffffffffffffffffffffffffffffff1673ffffffffffffffffffffffffffffffffffffffff1681526020019081526020016000206001018054905073__Library_______________________________632477a0ea83836040518363ffffffff1660e01b81526004016109ae929190615410565b60206040518083038186803b1580156109c657600080fd5b505af41580156109da573d6000803e3d6000fd5b505050506040513d601f19601f820116820180604052508101906109fe9190614c83565b15156001151514610a44576040517f08c379a0000000000000000000000000000000000000000000000000000000008152600401610a3b906152f5565b60405180910390fd5b60008467ffffffffffffffff81118015610a5d57600080fd5b50604051908082528060200260200182016040528015610a8c5781602001602082028036833780820191505090505b5090506000600560008973ffffffffffffffffffffffffffffffffffffffff1673ffffffffffffffffffffffffffffffffffffffff168152602001908152602001600020600101805480602002602001604051908101604052809291908181526020018280548015610b1d57602002820191906000526020600020905b815481526020019060010190808311610b09575b5050505050905060008060005b8351811015610c4d57888310610b3f57610c4d565b8b73ffffffffffffffffffffffffffffffffffffffff16600560008d73ffffffffffffffffffffffffffffffffffffffff1673ffffffffffffffffffffffffffffffffffffffff1681526020019081526020016000206000016000868481518110610ba657fe5b6020026020010151815260200190815260200160002060009054906101000a900473ffffffffffffffffffffffffffffffffffffffff1673ffffffffffffffffffffffffffffffffffffffff161415610c4057818a1115610c0c57600182019150610c3f565b838181518110610c1857fe5b6020026020010151858481518110610c2c57fe5b6020026020010181815250506001830192505b5b8080600101915050610b2a565b50839650505050505050949350505050565b610c6c8282600054611134565b5050565b610c7933610895565b15156001151514610cbf576040517f08c379a0000000000000000000000000000000000000000000000000000000008152600401610cb6906152d5565b60405180910390fd5b8082600560008373ffffffffffffffffffffffffffffffffffffffff1673ffffffffffffffffffffffffffffffffffffffff168152602001908152602001600020600001600082815260200190815260200160002060009054906101000a900473ffffffffffffffffffffffffffffffffffffffff1673ffffffffffffffffffffffffffffffffffffffff163373ffffffffffffffffffffffffffffffffffffffff161480610d9957508173ffffffffffffffffffffffffffffffffffffffff163373ffffffffffffffffffffffffffffffffffffffff16145b610dd8576040517f08c379a0000000000000000000000000000000000000000000000000000000008152600401610dcf90615395565b60405180910390fd5b6000600560008573ffffffffffffffffffffffffffffffffffffffff1673ffffffffffffffffffffffffffffffffffffffff168152602001908152602001600020600001600086815260200190815260200160002060009054906101000a900473ffffffffffffffffffffffffffffffffffffffff1690506000600560008673ffffffffffffffffffffffffffffffffffffffff1673ffffffffffffffffffffffffffffffffffffffff168152602001908152602001600020600101805480602002602001604051908101604052809291908181526020018280548015610ede57602002820191906000526020600020905b815481526020019060010190808311610eca575b5050505050905060005b8151811015610fb957818181518110610efd57fe5b6020026020010151871415610fac57610fa681600560008973ffffffffffffffffffffffffffffffffffffffff1673ffffffffffffffffffffffffffffffffffffffff168152602001908152602001600020600101805480602002602001604051908101604052809291908181526020018280548015610f9c57602002820191906000526020600020905b815481526020019060010190808311610f88575b505050505061226c565b50610fb9565b8080600101915050610ee8565b50600560008673ffffffffffffffffffffffffffffffffffffffff1673ffffffffffffffffffffffffffffffffffffffff168152602001908152602001600020600001600087815260200190815260200160002060006101000a81549073ffffffffffffffffffffffffffffffffffffffff02191690557fd12847594abf0621035046f61129f2a9dc5093eb516c6c517ece306362ef6f1782866040516110619291906151fb565b60405180910390a1505050505050565b606061107e600054612168565b905090565b6000600560008373ffffffffffffffffffffffffffffffffffffffff1673ffffffffffffffffffffffffffffffffffffffff168152602001908152602001600020600001600084815260200190815260200160002060009054906101000a900473ffffffffffffffffffffffffffffffffffffffff16905092915050565b600061110d60016123b9565b905090565b600061111f6000546123b9565b905090565b61113082826001611bc9565b5050565b8060038054905073__Library_______________________________632477a0ea83836040518363ffffffff1660e01b8152600401611174929190615410565b60206040518083038186803b15801561118c57600080fd5b505af41580156111a0573d6000803e3d6000fd5b505050506040513d601f19601f820116820180604052508101906111c49190614c83565b1515600115151461120a576040517f08c379a0000000000000000000000000000000000000000000000000000000008152600401611201906152f5565b60405180910390fd5b6112133361085b565b15156001151514611259576040517f08c379a000000000000000000000000000000000000000000000000000000000815260040161125090615355565b60405180910390fd5b600061127f866003868154811061126c57fe5b90600052602060002090600202016124bd565b90506112a986866003878154811061129357fe5b90600052602060002090600202016001546127e1565b600181016112d187600387815481106112be57fe5b90600052602060002090600202016124bd565b1415611327577fddf8a9c2d29b02b191b0a29b7a0f698bfd4655230a23853e2af123ab0b1188d76002858154811061130557fe5b906000526020600020018760405161131e9291906152a5565b60405180910390a15b505050505050565b8060038054905073__Library_______________________________632477a0ea83836040518363ffffffff1660e01b815260040161136f929190615410565b60206040518083038186803b15801561138757600080fd5b505af415801561139b573d6000803e3d6000fd5b505050506040513d601f19601f820116820180604052508101906113bf9190614c83565b15156001151514611405576040517f08c379a00000000000000000000000000000000000000000000000000000000081526004016113fc906152f5565b60405180910390fd5b8361140f3361085b565b151560011515148061144c57508073ffffffffffffffffffffffffffffffffffffffff163373ffffffffffffffffffffffffffffffffffffffff16145b61148b576040517f08c379a000000000000000000000000000000000000000000000000000000000815260040161148290615315565b60405180910390fd5b6114b2856003868154811061149c57fe5b9060005260206000209060020201600154612f89565b61179b600385815481106114c257fe5b906000526020600020906002020160000160008773ffffffffffffffffffffffffffffffffffffffff1673ffffffffffffffffffffffffffffffffffffffff1681526020019081526020016000206040518060e0016040529081600082015481526020016001820160009054906101000a900460ff16151515158152602001600282018054600181600116156101000203166002900480601f0160208091040260200160405190810160405280929190818152602001828054600181600116156101000203166002900480156115d95780601f106115ae576101008083540402835291602001916115d9565b820191906000526020600020905b8154815290600101906020018083116115bc57829003601f168201915b50505050508152602001600382015481526020016004820180548060200260200160405190810160405280929190818152602001828054801561167157602002820191906000526020600020905b8160009054906101000a900473ffffffffffffffffffffffffffffffffffffffff1673ffffffffffffffffffffffffffffffffffffffff1681526020019060010190808311611627575b50505050508152602001600582018054806020026020016040519081016040528092919081815260200182805480156116ff57602002820191906000526020600020905b8160009054906101000a900473ffffffffffffffffffffffffffffffffffffffff1673ffffffffffffffffffffffffffffffffffffffff16815260200190600101908083116116b5575b505050505081526020016006820180548060200260200160405190810160405280929190818152602001828054801561178d57602002820191906000526020600020905b8160009054906101000a900473ffffffffffffffffffffffffffffffffffffffff1673ffffffffffffffffffffffffffffffffffffffff1681526020019060010190808311611743575b505050505081525050613792565b15156000151514156117f7577f1f62d535f971041db7bd8760bf0f1f9f476461558744a35c0d477b5ad6893e89600285815481106117d557fe5b90600052602060002001866040516117ee9291906152a5565b60405180910390a15b5050505050565b60008160038054905073__Library_______________________________632477a0ea83836040518363ffffffff1660e01b8152600401611840929190615410565b60206040518083038186803b15801561185857600080fd5b505af415801561186c573d6000803e3d6000fd5b505050506040513d601f19601f820116820180604052508101906118909190614c83565b151560011515146118d6576040517f08c379a00000000000000000000000000000000000000000000000000000000081526004016118cd906152f5565b60405180910390fd5b611bbf600385815481106118e657fe5b906000526020600020906002020160000160008773ffffffffffffffffffffffffffffffffffffffff1673ffffffffffffffffffffffffffffffffffffffff1681526020019081526020016000206040518060e0016040529081600082015481526020016001820160009054906101000a900460ff16151515158152602001600282018054600181600116156101000203166002900480601f0160208091040260200160405190810160405280929190818152602001828054600181600116156101000203166002900480156119fd5780601f106119d2576101008083540402835291602001916119fd565b820191906000526020600020905b8154815290600101906020018083116119e057829003601f168201915b505050505081526020016003820154815260200160048201805480602002602001604051908101604052809291908181526020018280548015611a9557602002820191906000526020600020905b8160009054906101000a900473ffffffffffffffffffffffffffffffffffffffff1673ffffffffffffffffffffffffffffffffffffffff1681526020019060010190808311611a4b575b5050505050815260200160058201805480602002602001604051908101604052809291908181526020018280548015611b2357602002820191906000526020600020905b8160009054906101000a900473ffffffffffffffffffffffffffffffffffffffff1673ffffffffffffffffffffffffffffffffffffffff1681526020019060010190808311611ad9575b5050505050815260200160068201805480602002602001604051908101604052809291908181526020018280548015611bb157602002820191906000526020600020905b8160009054906101000a900473ffffffffffffffffffffffffffffffffffffffff1673ffffffffffffffffffffffffffffffffffffffff1681526020019060010190808311611b67575b505050505081525050613792565b9250505092915050565b8060038054905073__Library_______________________________632477a0ea83836040518363ffffffff1660e01b8152600401611c09929190615410565b60206040518083038186803b158015611c2157600080fd5b505af4158015611c35573d6000803e3d6000fd5b505050506040513d601f19601f82011682018060405250810190611c599190614c83565b15156001151514611c9f576040517f08c379a0000000000000000000000000000000000000000000000000000000008152600401611c96906152f5565b60405180910390fd5b611ca83361085b565b15156001151514611cee576040517f08c379a0000000000000000000000000000000000000000000000000000000008152600401611ce590615355565b60405180910390fd5b611d16858560038681548110611d0057fe5b90600052602060002090600202016001546137a0565b611fff60038481548110611d2657fe5b906000526020600020906002020160000160008773ffffffffffffffffffffffffffffffffffffffff1673ffffffffffffffffffffffffffffffffffffffff1681526020019081526020016000206040518060e0016040529081600082015481526020016001820160009054906101000a900460ff16151515158152602001600282018054600181600116156101000203166002900480601f016020809104026020016040519081016040528092919081815260200182805460018160011615610100020316600290048015611e3d5780601f10611e1257610100808354040283529160200191611e3d565b820191906000526020600020905b815481529060010190602001808311611e2057829003601f168201915b505050505081526020016003820154815260200160048201805480602002602001604051908101604052809291908181526020018280548015611ed557602002820191906000526020600020905b8160009054906101000a900473ffffffffffffffffffffffffffffffffffffffff1673ffffffffffffffffffffffffffffffffffffffff1681526020019060010190808311611e8b575b5050505050815260200160058201805480602002602001604051908101604052809291908181526020018280548015611f6357602002820191906000526020600020905b8160009054906101000a900473ffffffffffffffffffffffffffffffffffffffff1673ffffffffffffffffffffffffffffffffffffffff1681526020019060010190808311611f19575b5050505050815260200160068201805480602002602001604051908101604052809291908181526020018280548015611ff157602002820191906000526020600020905b8160009054906101000a900473ffffffffffffffffffffffffffffffffffffffff1673ffffffffffffffffffffffffffffffffffffffff1681526020019060010190808311611fa7575b505050505081525050613792565b151560011515141561205b577f3c139d46a211844e248647688545a37c07c505c999c1232d1247c707dc0a91e26002848154811061203957fe5b90600052602060002001866040516120529291906152a5565b60405180910390a15b5050505050565b60608160038054905073__Library_______________________________632477a0ea83836040518363ffffffff1660e01b81526004016120a4929190615410565b60206040518083038186803b1580156120bc57600080fd5b505af41580156120d0573d6000803e3d6000fd5b505050506040513d601f19601f820116820180604052508101906120f49190614c83565b1515600115151461213a576040517f08c379a0000000000000000000000000000000000000000000000000000000008152600401612131906152f5565b60405180910390fd5b61215e856003868154811061214b57fe5b906000526020600020906002020161406c565b9250505092915050565b60608160038054905073__Library_______________________________632477a0ea83836040518363ffffffff1660e01b81526004016121aa929190615410565b60206040518083038186803b1580156121c257600080fd5b505af41580156121d6573d6000803e3d6000fd5b505050506040513d601f19601f820116820180604052508101906121fa9190614c83565b15156001151514612240576040517f08c379a0000000000000000000000000000000000000000000000000000000008152600401612237906152f5565b60405180910390fd5b6122636003858154811061225057fe5b9060005260206000209060020201614428565b92505050919050565b606082825173__Library_______________________________632477a0ea83836040518363ffffffff1660e01b81526004016122aa929190615410565b60206040518083038186803b1580156122c257600080fd5b505af41580156122d6573d6000803e3d6000fd5b505050506040513d601f19601f820116820180604052508101906122fa9190614c83565b15156001151514612340576040517f08c379a0000000000000000000000000000000000000000000000000000000008152600401612337906152f5565b60405180910390fd5b60008590505b600185510381101561238e5784600182018151811061236157fe5b602002602001015185828151811061237557fe5b6020026020010181815250508080600101915050612346565b508360018551038151811061239f57fe5b602002602001016000801916815250839250505092915050565b60008160038054905073__Library_______________________________632477a0ea83836040518363ffffffff1660e01b81526004016123fb929190615410565b60206040518083038186803b15801561241357600080fd5b505af4158015612427573d6000803e3d6000fd5b505050506040513d601f19601f8201168201806040525081019061244b9190614c83565b15156001151514612491576040517f08c379a0000000000000000000000000000000000000000000000000000000008152600401612488906152f5565b60405180910390fd5b6124b4600385815481106124a157fe5b90600052602060002090600202016145a6565b92505050919050565b600060018260000160008573ffffffffffffffffffffffffffffffffffffffff1673ffffffffffffffffffffffffffffffffffffffff1681526020019081526020016000206040518060e0016040529081600082015481526020016001820160009054906101000a900460ff16151515158152602001600282018054600181600116156101000203166002900480601f0160208091040260200160405190810160405280929190818152602001828054600181600116156101000203166002900480156125cb5780601f106125a0576101008083540402835291602001916125cb565b820191906000526020600020905b8154815290600101906020018083116125ae57829003601f168201915b50505050508152602001600382015481526020016004820180548060200260200160405190810160405280929190818152602001828054801561266357602002820191906000526020600020905b8160009054906101000a900473ffffffffffffffffffffffffffffffffffffffff1673ffffffffffffffffffffffffffffffffffffffff1681526020019060010190808311612619575b50505050508152602001600582018054806020026020016040519081016040528092919081815260200182805480156126f157602002820191906000526020600020905b8160009054906101000a900473ffffffffffffffffffffffffffffffffffffffff1673ffffffffffffffffffffffffffffffffffffffff16815260200190600101908083116126a7575b505050505081526020016006820180548060200260200160405190810160405280929190818152602001828054801561277f57602002820191906000526020600020905b8160009054906101000a900473ffffffffffffffffffffffffffffffffffffffff1673ffffffffffffffffffffffffffffffffffffffff1681526020019060010190808311612735575b5050505050815250506127928282614640565b8360000160008673ffffffffffffffffffffffffffffffffffffffff1673ffffffffffffffffffffffffffffffffffffffff168152602001908152602001600020600301549250505092915050565b60018260000160008673ffffffffffffffffffffffffffffffffffffffff1673ffffffffffffffffffffffffffffffffffffffff1681526020019081526020016000206040518060e0016040529081600082015481526020016001820160009054906101000a900460ff16151515158152602001600282018054600181600116156101000203166002900480601f0160208091040260200160405190810160405280929190818152602001828054600181600116156101000203166002900480156128ed5780601f106128c2576101008083540402835291602001916128ed565b820191906000526020600020905b8154815290600101906020018083116128d057829003601f168201915b50505050508152602001600382015481526020016004820180548060200260200160405190810160405280929190818152602001828054801561298557602002820191906000526020600020905b8160009054906101000a900473ffffffffffffffffffffffffffffffffffffffff1673ffffffffffffffffffffffffffffffffffffffff168152602001906001019080831161293b575b5050505050815260200160058201805480602002602001604051908101604052809291908181526020018280548015612a1357602002820191906000526020600020905b8160009054906101000a900473ffffffffffffffffffffffffffffffffffffffff1673ffffffffffffffffffffffffffffffffffffffff16815260200190600101908083116129c9575b5050505050815260200160068201805480602002602001604051908101604052809291908181526020018280548015612aa157602002820191906000526020600020905b8160009054906101000a900473ffffffffffffffffffffffffffffffffffffffff1673ffffffffffffffffffffffffffffffffffffffff1681526020019060010190808311612a57575b505050505081525050612ab48282614640565b60018460000160008873ffffffffffffffffffffffffffffffffffffffff1673ffffffffffffffffffffffffffffffffffffffff1681526020019081526020016000206040518060e0016040529081600082015481526020016001820160009054906101000a900460ff16151515158152602001600282018054600181600116156101000203166002900480601f016020809104026020016040519081016040528092919081815260200182805460018160011615610100020316600290048015612bc05780601f10612b9557610100808354040283529160200191612bc0565b820191906000526020600020905b815481529060010190602001808311612ba357829003601f168201915b505050505081526020016003820154815260200160048201805480602002602001604051908101604052809291908181526020018280548015612c5857602002820191906000526020600020905b8160009054906101000a900473ffffffffffffffffffffffffffffffffffffffff1673ffffffffffffffffffffffffffffffffffffffff1681526020019060010190808311612c0e575b5050505050815260200160058201805480602002602001604051908101604052809291908181526020018280548015612ce657602002820191906000526020600020905b8160009054906101000a900473ffffffffffffffffffffffffffffffffffffffff1673ffffffffffffffffffffffffffffffffffffffff1681526020019060010190808311612c9c575b5050505050815260200160068201805480602002602001604051908101604052809291908181526020018280548015612d7457602002820191906000526020600020905b8160009054906101000a900473ffffffffffffffffffffffffffffffffffffffff1673ffffffffffffffffffffffffffffffffffffffff1681526020019060010190808311612d2a575b505050505081525050612d8782826146f5565b8560000160008973ffffffffffffffffffffffffffffffffffffffff1673ffffffffffffffffffffffffffffffffffffffff168152602001908152602001600020600601339080600181540180825580915050600190039060005260206000200160009091909190916101000a81548173ffffffffffffffffffffffffffffffffffffffff021916908373ffffffffffffffffffffffffffffffffffffffff160217905550612e7d8660000160008a73ffffffffffffffffffffffffffffffffffffffff1673ffffffffffffffffffffffffffffffffffffffff1681526020019081526020016000206006018054905086614886565b15612f7f57868660000160008a73ffffffffffffffffffffffffffffffffffffffff1673ffffffffffffffffffffffffffffffffffffffff1681526020019081526020016000206002019080519060200190612eda929190614997565b5060018660000160008a73ffffffffffffffffffffffffffffffffffffffff1673ffffffffffffffffffffffffffffffffffffffff168152602001908152602001600020600301600082825401925050819055508560000160008973ffffffffffffffffffffffffffffffffffffffff1673ffffffffffffffffffffffffffffffffffffffff1681526020019081526020016000206006016000612f7e9190614a25565b5b5050505050505050565b60018260000160008573ffffffffffffffffffffffffffffffffffffffff1673ffffffffffffffffffffffffffffffffffffffff1681526020019081526020016000206040518060e0016040529081600082015481526020016001820160009054906101000a900460ff16151515158152602001600282018054600181600116156101000203166002900480601f0160208091040260200160405190810160405280929190818152602001828054600181600116156101000203166002900480156130955780601f1061306a57610100808354040283529160200191613095565b820191906000526020600020905b81548152906001019060200180831161307857829003601f168201915b50505050508152602001600382015481526020016004820180548060200260200160405190810160405280929190818152602001828054801561312d57602002820191906000526020600020905b8160009054906101000a900473ffffffffffffffffffffffffffffffffffffffff1673ffffffffffffffffffffffffffffffffffffffff16815260200190600101908083116130e3575b50505050508152602001600582018054806020026020016040519081016040528092919081815260200182805480156131bb57602002820191906000526020600020905b8160009054906101000a900473ffffffffffffffffffffffffffffffffffffffff1673ffffffffffffffffffffffffffffffffffffffff1681526020019060010190808311613171575b505050505081526020016006820180548060200260200160405190810160405280929190818152602001828054801561324957602002820191906000526020600020905b8160009054906101000a900473ffffffffffffffffffffffffffffffffffffffff1673ffffffffffffffffffffffffffffffffffffffff16815260200190600101908083116131ff575b50505050508152505061325c8282614640565b60028460000160008773ffffffffffffffffffffffffffffffffffffffff1673ffffffffffffffffffffffffffffffffffffffff1681526020019081526020016000206040518060e0016040529081600082015481526020016001820160009054906101000a900460ff16151515158152602001600282018054600181600116156101000203166002900480601f0160208091040260200160405190810160405280929190818152602001828054600181600116156101000203166002900480156133685780601f1061333d57610100808354040283529160200191613368565b820191906000526020600020905b81548152906001019060200180831161334b57829003601f168201915b50505050508152602001600382015481526020016004820180548060200260200160405190810160405280929190818152602001828054801561340057602002820191906000526020600020905b8160009054906101000a900473ffffffffffffffffffffffffffffffffffffffff1673ffffffffffffffffffffffffffffffffffffffff16815260200190600101908083116133b6575b505050505081526020016005820180548060200260200160405190810160405280929190818152602001828054801561348e57602002820191906000526020600020905b8160009054906101000a900473ffffffffffffffffffffffffffffffffffffffff1673ffffffffffffffffffffffffffffffffffffffff1681526020019060010190808311613444575b505050505081526020016006820180548060200260200160405190810160405280929190818152602001828054801561351c57602002820191906000526020600020905b8160009054906101000a900473ffffffffffffffffffffffffffffffffffffffff1673ffffffffffffffffffffffffffffffffffffffff16815260200190600101908083116134d2575b50505050508152505061352f82826146f5565b8560000160008873ffffffffffffffffffffffffffffffffffffffff1673ffffffffffffffffffffffffffffffffffffffff168152602001908152602001600020600501339080600181540180825580915050600190039060005260206000200160009091909190916101000a81548173ffffffffffffffffffffffffffffffffffffffff021916908373ffffffffffffffffffffffffffffffffffffffff1602179055508673ffffffffffffffffffffffffffffffffffffffff163373ffffffffffffffffffffffffffffffffffffffff16148061365b575061365a8660000160008973ffffffffffffffffffffffffffffffffffffffff1673ffffffffffffffffffffffffffffffffffffffff1681526020019081526020016000206005018054905086614886565b5b1561378957856001018660000160008973ffffffffffffffffffffffffffffffffffffffff1673ffffffffffffffffffffffffffffffffffffffff16815260200190815260200160002060000154815481106136b357fe5b9060005260206000200160006101000a81549073ffffffffffffffffffffffffffffffffffffffff02191690558560000160008873ffffffffffffffffffffffffffffffffffffffff1673ffffffffffffffffffffffffffffffffffffffff1681526020019081526020016000206000808201600090556001820160006101000a81549060ff021916905560028201600061374e9190614a46565b60038201600090556004820160006137669190614a25565b6005820160006137769190614a25565b6006820160006137869190614a25565b50505b50505050505050565b600081602001519050919050565b60008260000160008673ffffffffffffffffffffffffffffffffffffffff1673ffffffffffffffffffffffffffffffffffffffff1681526020019081526020016000206040518060e0016040529081600082015481526020016001820160009054906101000a900460ff16151515158152602001600282018054600181600116156101000203166002900480601f0160208091040260200160405190810160405280929190818152602001828054600181600116156101000203166002900480156138ac5780601f10613881576101008083540402835291602001916138ac565b820191906000526020600020905b81548152906001019060200180831161388f57829003601f168201915b50505050508152602001600382015481526020016004820180548060200260200160405190810160405280929190818152602001828054801561394457602002820191906000526020600020905b8160009054906101000a900473ffffffffffffffffffffffffffffffffffffffff1673ffffffffffffffffffffffffffffffffffffffff16815260200190600101908083116138fa575b50505050508152602001600582018054806020026020016040519081016040528092919081815260200182805480156139d257602002820191906000526020600020905b8160009054906101000a900473ffffffffffffffffffffffffffffffffffffffff1673ffffffffffffffffffffffffffffffffffffffff1681526020019060010190808311613988575b5050505050815260200160068201805480602002602001604051908101604052809291908181526020018280548015613a6057602002820191906000526020600020905b8160009054906101000a900473ffffffffffffffffffffffffffffffffffffffff1673ffffffffffffffffffffffffffffffffffffffff1681526020019060010190808311613a16575b505050505081525050613a738282614640565b60008460000160008873ffffffffffffffffffffffffffffffffffffffff1673ffffffffffffffffffffffffffffffffffffffff1681526020019081526020016000206040518060e0016040529081600082015481526020016001820160009054906101000a900460ff16151515158152602001600282018054600181600116156101000203166002900480601f016020809104026020016040519081016040528092919081815260200182805460018160011615610100020316600290048015613b7f5780601f10613b5457610100808354040283529160200191613b7f565b820191906000526020600020905b815481529060010190602001808311613b6257829003601f168201915b505050505081526020016003820154815260200160048201805480602002602001604051908101604052809291908181526020018280548015613c1757602002820191906000526020600020905b8160009054906101000a900473ffffffffffffffffffffffffffffffffffffffff1673ffffffffffffffffffffffffffffffffffffffff1681526020019060010190808311613bcd575b5050505050815260200160058201805480602002602001604051908101604052809291908181526020018280548015613ca557602002820191906000526020600020905b8160009054906101000a900473ffffffffffffffffffffffffffffffffffffffff1673ffffffffffffffffffffffffffffffffffffffff1681526020019060010190808311613c5b575b5050505050815260200160068201805480602002602001604051908101604052809291908181526020018280548015613d3357602002820191906000526020600020905b8160009054906101000a900473ffffffffffffffffffffffffffffffffffffffff1673ffffffffffffffffffffffffffffffffffffffff1681526020019060010190808311613ce9575b505050505081525050613d4682826146f5565b8560000160008973ffffffffffffffffffffffffffffffffffffffff1673ffffffffffffffffffffffffffffffffffffffff168152602001908152602001600020600401805490506000148015613df557508560000160008973ffffffffffffffffffffffffffffffffffffffff1673ffffffffffffffffffffffffffffffffffffffff1681526020019081526020016000206002018054600181600116156101000203166002900490506000145b15613e5457868660000160008a73ffffffffffffffffffffffffffffffffffffffff1673ffffffffffffffffffffffffffffffffffffffff1681526020019081526020016000206002019080519060200190613e52929190614997565b505b8560000160008973ffffffffffffffffffffffffffffffffffffffff1673ffffffffffffffffffffffffffffffffffffffff168152602001908152602001600020600401339080600181540180825580915050600190039060005260206000200160009091909190916101000a81548173ffffffffffffffffffffffffffffffffffffffff021916908373ffffffffffffffffffffffffffffffffffffffff160217905550613f4a8660000160008a73ffffffffffffffffffffffffffffffffffffffff1673ffffffffffffffffffffffffffffffffffffffff1681526020019081526020016000206004018054905086614886565b156140625760018660000160008a73ffffffffffffffffffffffffffffffffffffffff1673ffffffffffffffffffffffffffffffffffffffff16815260200190815260200160002060010160006101000a81548160ff02191690831515021790555085600101805490508660000160008a73ffffffffffffffffffffffffffffffffffffffff1673ffffffffffffffffffffffffffffffffffffffff1681526020019081526020016000206000018190555085600101889080600181540180825580915050600190039060005260206000200160009091909190916101000a81548173ffffffffffffffffffffffffffffffffffffffff021916908373ffffffffffffffffffffffffffffffffffffffff1602179055505b5050505050505050565b606060018260000160008573ffffffffffffffffffffffffffffffffffffffff1673ffffffffffffffffffffffffffffffffffffffff1681526020019081526020016000206040518060e0016040529081600082015481526020016001820160009054906101000a900460ff16151515158152602001600282018054600181600116156101000203166002900480601f01602080910402602001604051908101604052809291908181526020018280546001816001161561010002031660029004801561417a5780601f1061414f5761010080835404028352916020019161417a565b820191906000526020600020905b81548152906001019060200180831161415d57829003601f168201915b50505050508152602001600382015481526020016004820180548060200260200160405190810160405280929190818152602001828054801561421257602002820191906000526020600020905b8160009054906101000a900473ffffffffffffffffffffffffffffffffffffffff1673ffffffffffffffffffffffffffffffffffffffff16815260200190600101908083116141c8575b50505050508152602001600582018054806020026020016040519081016040528092919081815260200182805480156142a057602002820191906000526020600020905b8160009054906101000a900473ffffffffffffffffffffffffffffffffffffffff1673ffffffffffffffffffffffffffffffffffffffff1681526020019060010190808311614256575b505050505081526020016006820180548060200260200160405190810160405280929190818152602001828054801561432e57602002820191906000526020600020905b8160009054906101000a900473ffffffffffffffffffffffffffffffffffffffff1673ffffffffffffffffffffffffffffffffffffffff16815260200190600101908083116142e4575b5050505050815250506143418282614640565b8360000160008673ffffffffffffffffffffffffffffffffffffffff1673ffffffffffffffffffffffffffffffffffffffff1681526020019081526020016000206002018054600181600116156101000203166002900480601f0160208091040260200160405190810160405280929190818152602001828054600181600116156101000203166002900480156144195780601f106143ee57610100808354040283529160200191614419565b820191906000526020600020905b8154815290600101906020018083116143fc57829003601f168201915b50505050509250505092915050565b60606000614435836145a6565b905060008167ffffffffffffffff8111801561445057600080fd5b5060405190808252806020026020018201604052801561447f5781602001602082028036833780820191505090505b509050600080600090505b856001018054905081101561459a578560010181815481106144a857fe5b9060005260206000200160009054906101000a900473ffffffffffffffffffffffffffffffffffffffff1673ffffffffffffffffffffffffffffffffffffffff16600073ffffffffffffffffffffffffffffffffffffffff161461458d5785600101818154811061451557fe5b9060005260206000200160009054906101000a900473ffffffffffffffffffffffffffffffffffffffff1683838151811061454c57fe5b602002602001019073ffffffffffffffffffffffffffffffffffffffff16908173ffffffffffffffffffffffffffffffffffffffff16815250506001820191505b808060010191505061448a565b50819350505050919050565b60006146398260010180548060200260200160405190810160405280929190818152602001828054801561462f57602002820191906000526020600020905b8160009054906101000a900473ffffffffffffffffffffffffffffffffffffffff1673ffffffffffffffffffffffffffffffffffffffff16815260200190600101908083116145e5575b50505050506148a4565b9050919050565b8115156000151514156146a15761465681613792565b1515600015151461469c576040517f08c379a000000000000000000000000000000000000000000000000000000000815260040161469390615375565b60405180910390fd5b6146f1565b6146aa81613792565b151560011515146146f0576040517f08c379a00000000000000000000000000000000000000000000000000000000081526004016146e790615335565b60405180910390fd5b5b5050565b60006040518060400160405280601781526020017f4f776e65722068617320616c726561647920766f746564000000000000000000815250905082600281111561473b57fe5b6001600281111561474857fe5b14156147ab5761475c338360c0015161491c565b1515600015151481906147a5576040517f08c379a000000000000000000000000000000000000000000000000000000000815260040161479c9190615283565b60405180910390fd5b50614881565b8260028111156147b757fe5b600060028111156147c457fe5b1415614827576147d833836080015161491c565b151560001515148190614821576040517f08c379a00000000000000000000000000000000000000000000000000000000081526004016148189190615283565b60405180910390fd5b50614880565b614835338360a0015161491c565b15156000151514819061487e576040517f08c379a00000000000000000000000000000000000000000000000000000000081526004016148759190615283565b60405180910390fd5b505b5b505050565b600081831015614899576000905061489e565b600190505b92915050565b6000806000905060005b8351811015614912578381815181106148c357fe5b602002602001015173ffffffffffffffffffffffffffffffffffffffff16600073ffffffffffffffffffffffffffffffffffffffff1614614905576001820191505b80806001019150506148ae565b5080915050919050565b600080600090505b825181101561498b5782818151811061493957fe5b602002602001015173ffffffffffffffffffffffffffffffffffffffff168473ffffffffffffffffffffffffffffffffffffffff16141561497e576001915050614991565b8080600101915050614924565b50600090505b92915050565b828054600181600116156101000203166002900490600052602060002090601f0160209004810192826149cd5760008555614a14565b82601f106149e657805160ff1916838001178555614a14565b82800160010185558215614a14579182015b82811115614a135782518255916020019190600101906149f8565b5b509050614a219190614a8e565b5090565b5080546000825590600052602060002090810190614a439190614a8e565b50565b50805460018160011615610100020316600290046000825580601f10614a6c5750614a8b565b601f016020900490600052602060002090810190614a8a9190614a8e565b5b50565b5b80821115614aa7576000816000905550600101614a8f565b5090565b6000614abe614ab98461546a565b615439565b905082815260208101848484011115614ad657600080fd5b614ae18482856155c5565b509392505050565b600081359050614af88161561a565b92915050565b600081519050614b0d81615631565b92915050565b600081359050614b2281615648565b92915050565b600082601f830112614b3957600080fd5b8135614b49848260208601614aab565b91505092915050565b600081359050614b618161565f565b92915050565b600060208284031215614b7957600080fd5b6000614b8784828501614ae9565b91505092915050565b60008060408385031215614ba357600080fd5b6000614bb185828601614ae9565b9250506020614bc285828601614ae9565b9150509250929050565b60008060008060808587031215614be257600080fd5b6000614bf087828801614ae9565b9450506020614c0187828801614ae9565b9350506040614c1287828801614b52565b9250506060614c2387828801614b52565b91505092959194509250565b60008060408385031215614c4257600080fd5b6000614c5085828601614ae9565b925050602083013567ffffffffffffffff811115614c6d57600080fd5b614c7985828601614b28565b9150509250929050565b600060208284031215614c9557600080fd5b6000614ca384828501614afe565b91505092915050565b60008060408385031215614cbf57600080fd5b6000614ccd85828601614b13565b9250506020614cde85828601614ae9565b9150509250929050565b6000614cf48383614d27565b60208301905092915050565b6000614d0c8383614e10565b60208301905092915050565b614d218161558f565b82525050565b614d308161553d565b82525050565b614d3f8161553d565b82525050565b6000614d50826154cf565b614d5a818561550a565b9350614d658361549a565b8060005b83811015614d96578151614d7d8882614ce8565b9750614d88836154f0565b925050600181019050614d69565b5085935050505092915050565b6000614dae826154da565b614db8818561551b565b9350614dc3836154aa565b8060005b83811015614df4578151614ddb8882614d00565b9750614de6836154fd565b925050600181019050614dc7565b5085935050505092915050565b614e0a8161554f565b82525050565b614e198161555b565b82525050565b6000614e2a826154e5565b614e34818561552c565b9350614e448185602086016155d4565b614e4d81615609565b840191505092915050565b600081546001811660008114614e755760018114614e9b57614edf565b607f6002830416614e86818761552c565b955060ff198316865260208601935050614edf565b60028204614ea9818761552c565b9550614eb4856154ba565b60005b82811015614ed657815481890152600182019150602081019050614eb7565b80880195505050505b505092915050565b6000614ef460318361552c565b91507f4f6e6c792050726f7669646572732061726520616c6c6f77656420746f20706560008301527f72666f726d207468697320616374696f6e0000000000000000000000000000006020830152604082019050919050565b6000614f5a60148361552c565b91507f70726f76696465642049642069732077726f6e670000000000000000000000006000830152602082019050919050565b6000614f9a601c8361552c565b91507f4e6f7420616c6c6f77656420746f2072656d6f766520656e74697479000000006000830152602082019050919050565b6000614fda60188361552c565b91507f456e74697479206d7573742062652061637469766174656400000000000000006000830152602082019050919050565b600061501a602e8361552c565b91507f4f6e6c79204f776e6572732061726520616c6c6f77656420746f20706572666f60008301527f726d207468697320616374696f6e0000000000000000000000000000000000006020830152604082019050919050565b600061508060188361552c565b91507f456e7469747920616c72656164792061637469766174656400000000000000006000830152602082019050919050565b60006150c060318361552c565b91507f4e6f7420616c6c6f77656420746f2072656d6f7665207468697320706172746960008301527f63756c61722043657274696669636174650000000000000000000000000000006020830152604082019050919050565b600061512660058361552c565b91507f456d7074790000000000000000000000000000000000000000000000000000006000830152602082019050919050565b600061516660198361552c565b91507f436572746966696361746520616c7265616479206578697374000000000000006000830152602082019050919050565b6151a281615585565b82525050565b6151b181615585565b82525050565b60006020820190506151cc6000830184614d36565b92915050565b60006040820190506151e76000830185614d18565b6151f46020830184614d36565b9392505050565b60006040820190506152106000830185614d36565b61521d6020830184614d36565b9392505050565b6000602082019050818103600083015261523e8184614d45565b905092915050565b600060208201905081810360008301526152608184614da3565b905092915050565b600060208201905061527d6000830184614e01565b92915050565b6000602082019050818103600083015261529d8184614e1f565b905092915050565b600060408201905081810360008301526152bf8185614e58565b90506152ce6020830184614d36565b9392505050565b600060208201905081810360008301526152ee81614ee7565b9050919050565b6000602082019050818103600083015261530e81614f4d565b9050919050565b6000602082019050818103600083015261532e81614f8d565b9050919050565b6000602082019050818103600083015261534e81614fcd565b9050919050565b6000602082019050818103600083015261536e8161500d565b9050919050565b6000602082019050818103600083015261538e81615073565b9050919050565b600060208201905081810360008301526153ae816150b3565b9050919050565b600060208201905081810360008301526153ce81615119565b9050919050565b600060208201905081810360008301526153ee81615159565b9050919050565b600060208201905061540a6000830184615199565b92915050565b600060408201905061542560008301856151a8565b61543260208301846151a8565b9392505050565b6000604051905081810181811067ffffffffffffffff821117156154605761545f615607565b5b8060405250919050565b600067ffffffffffffffff82111561548557615484615607565b5b601f19601f8301169050602081019050919050565b6000819050602082019050919050565b6000819050602082019050919050565b60008190508160005260206000209050919050565b600081519050919050565b600081519050919050565b600081519050919050565b6000602082019050919050565b6000602082019050919050565b600082825260208201905092915050565b600082825260208201905092915050565b600082825260208201905092915050565b600061554882615565565b9050919050565b60008115159050919050565b6000819050919050565b600073ffffffffffffffffffffffffffffffffffffffff82169050919050565b6000819050919050565b600061559a826155a1565b9050919050565b60006155ac826155b3565b9050919050565b60006155be82615565565b9050919050565b82818337600083830152505050565b60005b838110156155f25780820151818401526020810190506155d7565b83811115615601576000848401525b50505050565bfe5b6000601f19601f8301169050919050565b6156238161553d565b811461562e57600080fd5b50565b61563a8161554f565b811461564557600080fd5b50565b6156518161555b565b811461565c57600080fd5b50565b61566881615585565b811461567357600080fd5b5056fea26469706673582212201d3909787107ee0e56f278abc42e011f77659d218e419088e2753daae045bc7e64736f6c63430007060033a2646970667358221220e6d8ea7c92b0f2574e43c2f8ba27eb1d3c89633d271df6b12d6e813d1a1bd75e64736f6c63430007060033608060405260405180604001604052806040518060400160405280600581526020017f4f776e657200000000000000000000000000000000000000000000000000000081525081526020016040518060400160405280600881526020017f50726f7669646572000000000000000000000000000000000000000000000000815250815250600490600262000095929190620004a7565b5060405162006a0538038062006a058339818101604052810190620000bb919062000708565b8181818160026004805480602002602001604051908101604052809291908181526020016000905b82821015620001a5578382906000526020600020018054600181600116156101000203166002900480601f016020809104026020016040519081016040528092919081815260200182805460018160011615610100020316600290048015620001905780601f10620001645761010080835404028352916020019162000190565b820191906000526020600020905b8154815290600101906020018083116200017257829003601f168201915b505050505081526020019060010190620000e3565b5050505060008451841115620001f2576040517f08c379a0000000000000000000000000000000000000000000000000000000008152600401620001e9906200084e565b60405180910390fd5b6000841162000238576040517f08c379a00000000000000000000000000000000000000000000000000000000081526004016200022f9062000892565b60405180910390fd5b815183146200027e576040517f08c379a0000000000000000000000000000000000000000000000000000000008152600401620002759062000870565b60405180910390fd5b8060008190555060005b838110156200030f576003600181600181540180825580915050039060005260206000209050506002838281518110620002be57fe5b6020026020010151908060018154018082558091505060019003906000526020600020016000909190919091509080519060200190620003009291906200050e565b50808060010191505062000288565b508360018190555060005b8551811015620004565760016003600054815481106200033657fe5b906000526020600020906002020160000160008884815181106200035657fe5b602002602001015173ffffffffffffffffffffffffffffffffffffffff1673ffffffffffffffffffffffffffffffffffffffff16815260200190815260200160002060010160006101000a81548160ff021916908315150217905550600360005481548110620003c257fe5b9060005260206000209060020201600101868281518110620003e057fe5b60200260200101519080600181540180825580915050600190039060005260206000200160009091909190916101000a81548173ffffffffffffffffffffffffffffffffffffffff021916908373ffffffffffffffffffffffffffffffffffffffff16021790555080806001019150506200031a565b505050505050505033600660006101000a81548173ffffffffffffffffffffffffffffffffffffffff021916908373ffffffffffffffffffffffffffffffffffffffff16021790555050506200099c565b828054828255906000526020600020908101928215620004fb579160200282015b82811115620004fa578251829080519060200190620004e99291906200050e565b5091602001919060010190620004c8565b5b5090506200050a9190620005a5565b5090565b828054600181600116156101000203166002900490600052602060002090601f01602090048101928262000546576000855562000592565b82601f106200056157805160ff191683800117855562000592565b8280016001018555821562000592579182015b828111156200059157825182559160200191906001019062000574565b5b509050620005a19190620005cd565b5090565b5b80821115620005c95760008181620005bf9190620005ec565b50600101620005a6565b5090565b5b80821115620005e8576000816000905550600101620005ce565b5090565b50805460018160011615610100020316600290046000825580601f1062000614575062000635565b601f016020900490600052602060002090810190620006349190620005cd565b5b50565b60006200064f6200064984620008e8565b620008b4565b905080838252602082019050828560208602820111156200066f57600080fd5b60005b85811015620006a35781620006888882620006ad565b84526020840193506020830192505060018101905062000672565b5050509392505050565b600081519050620006be8162000968565b92915050565b600082601f830112620006d657600080fd5b8151620006e884826020860162000638565b91505092915050565b600081519050620007028162000982565b92915050565b600080604083850312156200071c57600080fd5b600083015167ffffffffffffffff8111156200073757600080fd5b6200074585828601620006c4565b92505060206200075885828601620006f1565b9150509250929050565b600062000771603c8362000917565b91507f4e6f7420656e6f756768206f776e6572732070726f766964656420746f206d6560008301527f657420746865206d696e4f776e65727320726571756972656d656e74000000006020830152604082019050919050565b6000620007d9601d8362000917565b91507f4e6f7420656e6f756768206f7220746f6f206d616e79206c6162656c730000006000830152602082019050919050565b60006200081b60188362000917565b91507f4174206c656173742031206d696e696d756d206f776e657200000000000000006000830152602082019050919050565b60006020820190508181036000830152620008698162000762565b9050919050565b600060208201905081810360008301526200088b81620007ca565b9050919050565b60006020820190508181036000830152620008ad816200080c565b9050919050565b6000604051905081810181811067ffffffffffffffff82111715620008de57620008dd62000966565b5b8060405250919050565b600067ffffffffffffffff82111562000906576200090562000966565b5b602082029050602081019050919050565b600082825260208201905092915050565b600062000935826200093c565b9050919050565b600073ffffffffffffffffffffffffffffffffffffffff82169050919050565b6000819050919050565bfe5b620009738162000928565b81146200097f57600080fd5b50565b6200098d816200095c565b81146200099957600080fd5b50565b61605980620009ac6000396000f3fe608060405234801561001057600080fd5b50600436106101375760003560e01c80636e55d2d4116100b8578063a73db28a1161007c578063a73db28a1461036e578063a93d5ed61461038a578063d0a4adfe146103a8578063d744d2f3146103d8578063eefe7681146103f6578063fc0005001461041457610137565b80636e55d2d4146102a657806377bc5a1f146102d65780638a355a5714610306578063925979fd146103225780639fc104361461035257610137565b80632f54bf6e116100ff5780632f54bf6e146101dc5780633542758f1461020c57806337583499146102285780636b074a07146102585780636e4f91791461028857610137565b80631270db7a1461013c5780631660c22a1461016c578063173825d9146101885780631ab807f8146101a457806327a40b4b146101c0575b600080fd5b610156600480360381019061015191906153d1565b610430565b6040516101639190615da2565b60405180910390f35b61018660048036038101906101819190615470565b6105ad565b005b6101a2600480360381019061019d91906153a8565b6105bd565b005b6101be60048036038101906101b991906154ed565b6105cc565b005b6101da60048036038101906101d591906153a8565b610882565b005b6101f660048036038101906101f191906153a8565b610ac6565b6040516102039190615bb5565b60405180910390f35b61022660048036038101906102219190615470565b610adb565b005b610242600480360381019061023d91906153a8565b610aec565b60405161024f9190615bd0565b60405180910390f35b610272600480360381019061026d91906153a8565b610b00565b60405161027f9190615bb5565b60405180910390f35b610290610b14565b60405161029d9190615b71565b60405180910390f35b6102c060048036038101906102bb91906153a8565b610b25565b6040516102cd9190615da2565b60405180910390f35b6102f060048036038101906102eb91906153a8565b610b74565b6040516102fd9190615bd0565b60405180910390f35b610320600480360381019061031b91906153a8565b610b89565b005b61033c6004803603810190610337919061540d565b610edd565b6040516103499190615b93565b60405180910390f35b61036c60048036038101906103679190615470565b611210565b005b610388600480360381019061038391906154ed565b611221565b005b610392611622565b60405161039f9190615b71565b60405180910390f35b6103c260048036038101906103bd91906154ed565b611634565b6040516103cf9190615b04565b60405180910390f35b6103e06116b2565b6040516103ed9190615da2565b60405180910390f35b6103fe6116c3565b60405161040b9190615da2565b60405180910390f35b61042e60048036038101906104299190615470565b6116d5565b005b600080600560008473ffffffffffffffffffffffffffffffffffffffff1673ffffffffffffffffffffffffffffffffffffffff1681526020019081526020016000206001018054806020026020016040519081016040528092919081815260200182805480156104bf57602002820191906000526020600020905b8154815260200190600101908083116104ab575b505050505090506000805b82518110156105a1578573ffffffffffffffffffffffffffffffffffffffff16600560008773ffffffffffffffffffffffffffffffffffffffff1673ffffffffffffffffffffffffffffffffffffffff168152602001908152602001600020600001600085848151811061053a57fe5b6020026020010151815260200190815260200160002060009054906101000a900473ffffffffffffffffffffffffffffffffffffffff1673ffffffffffffffffffffffffffffffffffffffff161415610594576001820191505b80806001019150506104ca565b50809250505092915050565b6105b982826001611975565b5050565b6105c981600054611b70565b50565b6105d533610b00565b1515600115151461061b576040517f08c379a000000000000000000000000000000000000000000000000000000000815260040161061290615c22565b60405180910390fd5b81602060ff16600010610663576040517f08c379a000000000000000000000000000000000000000000000000000000000815260040161065a90615d42565b60405180910390fd5b8183600560008373ffffffffffffffffffffffffffffffffffffffff1673ffffffffffffffffffffffffffffffffffffffff168152602001908152602001600020600001600082815260200190815260200160002060009054906101000a900473ffffffffffffffffffffffffffffffffffffffff1673ffffffffffffffffffffffffffffffffffffffff16600073ffffffffffffffffffffffffffffffffffffffff1614610747576040517f08c379a000000000000000000000000000000000000000000000000000000000815260040161073e90615d82565b60405180910390fd5b33600560008673ffffffffffffffffffffffffffffffffffffffff1673ffffffffffffffffffffffffffffffffffffffff168152602001908152602001600020600001600087815260200190815260200160002060006101000a81548173ffffffffffffffffffffffffffffffffffffffff021916908373ffffffffffffffffffffffffffffffffffffffff160217905550600560008573ffffffffffffffffffffffffffffffffffffffff1673ffffffffffffffffffffffffffffffffffffffff1681526020019081526020016000206001018590806001815401808255809150506001900390600052602060002001600090919091909150557f601cb9a073dbfa468ef12878ee6c720641a49b76af7c16099e8c0a1ac3ca79b53385604051610873929190615b1f565b60405180910390a15050505050565b60018181151560001515141561092a57600760008273ffffffffffffffffffffffffffffffffffffffff1673ffffffffffffffffffffffffffffffffffffffff16815260200190815260200160002060009054906101000a900460ff1615156000151514610925576040517f08c379a000000000000000000000000000000000000000000000000000000000815260040161091c90615d62565b60405180910390fd5b6109be565b600760008273ffffffffffffffffffffffffffffffffffffffff1673ffffffffffffffffffffffffffffffffffffffff16815260200190815260200160002060009054906101000a900460ff16151560011515146109bd576040517f08c379a00000000000000000000000000000000000000000000000000000000081526004016109b490615c62565b60405180910390fd5b5b610ac18360036001815481106109d057fe5b906000526020600020906002020160000160008673ffffffffffffffffffffffffffffffffffffffff1673ffffffffffffffffffffffffffffffffffffffff1681526020019081526020016000206002018054600181600116156101000203166002900480601f016020809104026020016040519081016040528092919081815260200182805460018160011615610100020316600290048015610ab55780601f10610a8a57610100808354040283529160200191610ab5565b820191906000526020600020905b815481529060010190602001808311610a9857829003601f168201915b5050505050600161203f565b505050565b6000610ad4826000546124d8565b9050919050565b610ae8828260005461203f565b5050565b6060610af98260016128a3565b9050919050565b6000610b0d8260016124d8565b9050919050565b6060610b2060016129a9565b905090565b6000600560008373ffffffffffffffffffffffffffffffffffffffff1673ffffffffffffffffffffffffffffffffffffffff168152602001908152602001600020600101805490509050919050565b6060610b82826000546128a3565b9050919050565b610b94816001611b70565b610e7e6003600181548110610ba557fe5b906000526020600020906002020160000160008373ffffffffffffffffffffffffffffffffffffffff1673ffffffffffffffffffffffffffffffffffffffff1681526020019081526020016000206040518060e0016040529081600082015481526020016001820160009054906101000a900460ff16151515158152602001600282018054600181600116156101000203166002900480601f016020809104026020016040519081016040528092919081815260200182805460018160011615610100020316600290048015610cbc5780601f10610c9157610100808354040283529160200191610cbc565b820191906000526020600020905b815481529060010190602001808311610c9f57829003601f168201915b505050505081526020016003820154815260200160048201805480602002602001604051908101604052809291908181526020018280548015610d5457602002820191906000526020600020905b8160009054906101000a900473ffffffffffffffffffffffffffffffffffffffff1673ffffffffffffffffffffffffffffffffffffffff1681526020019060010190808311610d0a575b5050505050815260200160058201805480602002602001604051908101604052809291908181526020018280548015610de257602002820191906000526020600020905b8160009054906101000a900473ffffffffffffffffffffffffffffffffffffffff1673ffffffffffffffffffffffffffffffffffffffff1681526020019060010190808311610d98575b5050505050815260200160068201805480602002602001604051908101604052809291908181526020018280548015610e7057602002820191906000526020600020905b8160009054906101000a900473ffffffffffffffffffffffffffffffffffffffff1673ffffffffffffffffffffffffffffffffffffffff1681526020019060010190808311610e26575b505050505081525050612aad565b1515600015151415610eda57600760008273ffffffffffffffffffffffffffffffffffffffff1673ffffffffffffffffffffffffffffffffffffffff16815260200190815260200160002060006101000a81549060ff02191690555b50565b606082600560008673ffffffffffffffffffffffffffffffffffffffff1673ffffffffffffffffffffffffffffffffffffffff1681526020019081526020016000206001018054905073__Library_______________________________632477a0ea83836040518363ffffffff1660e01b8152600401610f5f929190615dbd565b60206040518083038186803b158015610f7757600080fd5b505af4158015610f8b573d6000803e3d6000fd5b505050506040513d601f19601f82011682018060405250810190610faf91906154c4565b15156001151514610ff5576040517f08c379a0000000000000000000000000000000000000000000000000000000008152600401610fec90615c42565b60405180910390fd5b60008467ffffffffffffffff8111801561100e57600080fd5b5060405190808252806020026020018201604052801561103d5781602001602082028036833780820191505090505b5090506000600560008973ffffffffffffffffffffffffffffffffffffffff1673ffffffffffffffffffffffffffffffffffffffff1681526020019081526020016000206001018054806020026020016040519081016040528092919081815260200182805480156110ce57602002820191906000526020600020905b8154815260200190600101908083116110ba575b5050505050905060008060005b83518110156111fe578883106110f0576111fe565b8b73ffffffffffffffffffffffffffffffffffffffff16600560008d73ffffffffffffffffffffffffffffffffffffffff1673ffffffffffffffffffffffffffffffffffffffff168152602001908152602001600020600001600086848151811061115757fe5b6020026020010151815260200190815260200160002060009054906101000a900473ffffffffffffffffffffffffffffffffffffffff1673ffffffffffffffffffffffffffffffffffffffff1614156111f157818a11156111bd576001820191506111f0565b8381815181106111c957fe5b60200260200101518584815181106111dd57fe5b6020026020010181815250506001830192505b5b80806001019150506110db565b50839650505050505050949350505050565b61121d8282600054611975565b5050565b61122a33610b00565b15156001151514611270576040517f08c379a000000000000000000000000000000000000000000000000000000000815260040161126790615c22565b60405180910390fd5b8082600560008373ffffffffffffffffffffffffffffffffffffffff1673ffffffffffffffffffffffffffffffffffffffff168152602001908152602001600020600001600082815260200190815260200160002060009054906101000a900473ffffffffffffffffffffffffffffffffffffffff1673ffffffffffffffffffffffffffffffffffffffff163373ffffffffffffffffffffffffffffffffffffffff16148061134a57508173ffffffffffffffffffffffffffffffffffffffff163373ffffffffffffffffffffffffffffffffffffffff16145b611389576040517f08c379a000000000000000000000000000000000000000000000000000000000815260040161138090615d22565b60405180910390fd5b6000600560008573ffffffffffffffffffffffffffffffffffffffff1673ffffffffffffffffffffffffffffffffffffffff168152602001908152602001600020600001600086815260200190815260200160002060009054906101000a900473ffffffffffffffffffffffffffffffffffffffff1690506000600560008673ffffffffffffffffffffffffffffffffffffffff1673ffffffffffffffffffffffffffffffffffffffff16815260200190815260200160002060010180548060200260200160405190810160405280929190818152602001828054801561148f57602002820191906000526020600020905b81548152602001906001019080831161147b575b5050505050905060005b815181101561156a578181815181106114ae57fe5b602002602001015187141561155d5761155781600560008973ffffffffffffffffffffffffffffffffffffffff1673ffffffffffffffffffffffffffffffffffffffff16815260200190815260200160002060010180548060200260200160405190810160405280929190818152602001828054801561154d57602002820191906000526020600020905b815481526020019060010190808311611539575b5050505050612abb565b5061156a565b8080600101915050611499565b50600560008673ffffffffffffffffffffffffffffffffffffffff1673ffffffffffffffffffffffffffffffffffffffff168152602001908152602001600020600001600087815260200190815260200160002060006101000a81549073ffffffffffffffffffffffffffffffffffffffff02191690557fd12847594abf0621035046f61129f2a9dc5093eb516c6c517ece306362ef6f178286604051611612929190615b48565b60405180910390a1505050505050565b606061162f6000546129a9565b905090565b6000600560008373ffffffffffffffffffffffffffffffffffffffff1673ffffffffffffffffffffffffffffffffffffffff168152602001908152602001600020600001600084815260200190815260200160002060009054906101000a900473ffffffffffffffffffffffffffffffffffffffff16905092915050565b60006116be6001612c08565b905090565b60006116d0600054612c08565b905090565b600660009054906101000a900473ffffffffffffffffffffffffffffffffffffffff168073ffffffffffffffffffffffffffffffffffffffff163373ffffffffffffffffffffffffffffffffffffffff1614611766576040517f08c379a000000000000000000000000000000000000000000000000000000000815260040161175d90615d02565b60405180910390fd5b60008381151560001515141561180e57600760008273ffffffffffffffffffffffffffffffffffffffff1673ffffffffffffffffffffffffffffffffffffffff16815260200190815260200160002060009054906101000a900460ff1615156000151514611809576040517f08c379a000000000000000000000000000000000000000000000000000000000815260040161180090615d62565b60405180910390fd5b6118a2565b600760008273ffffffffffffffffffffffffffffffffffffffff1673ffffffffffffffffffffffffffffffffffffffff16815260200190815260200160002060009054906101000a900460ff16151560011515146118a1576040517f08c379a000000000000000000000000000000000000000000000000000000000815260040161189890615c62565b60405180910390fd5b5b8360036001815481106118b157fe5b906000526020600020906002020160000160008773ffffffffffffffffffffffffffffffffffffffff1673ffffffffffffffffffffffffffffffffffffffff16815260200190815260200160002060020190805190602001906119159291906151d8565b506001600760008773ffffffffffffffffffffffffffffffffffffffff1673ffffffffffffffffffffffffffffffffffffffff16815260200190815260200160002060006101000a81548160ff0219169083151502179055505050505050565b8060038054905073__Library_______________________________632477a0ea83836040518363ffffffff1660e01b81526004016119b5929190615dbd565b60206040518083038186803b1580156119cd57600080fd5b505af41580156119e1573d6000803e3d6000fd5b505050506040513d601f19601f82011682018060405250810190611a0591906154c4565b15156001151514611a4b576040517f08c379a0000000000000000000000000000000000000000000000000000000008152600401611a4290615c42565b60405180910390fd5b611a5433610ac6565b15156001151514611a9a576040517f08c379a0000000000000000000000000000000000000000000000000000000008152600401611a9190615cc2565b60405180910390fd5b6000611ac08660038681548110611aad57fe5b9060005260206000209060020201612d0c565b9050611aea868660038781548110611ad457fe5b9060005260206000209060020201600154613030565b60018101611b128760038781548110611aff57fe5b9060005260206000209060020201612d0c565b1415611b68577fddf8a9c2d29b02b191b0a29b7a0f698bfd4655230a23853e2af123ab0b1188d760028581548110611b4657fe5b9060005260206000200187604051611b5f929190615bf2565b60405180910390a15b505050505050565b8060038054905073__Library_______________________________632477a0ea83836040518363ffffffff1660e01b8152600401611bb0929190615dbd565b60206040518083038186803b158015611bc857600080fd5b505af4158015611bdc573d6000803e3d6000fd5b505050506040513d601f19601f82011682018060405250810190611c0091906154c4565b15156001151514611c46576040517f08c379a0000000000000000000000000000000000000000000000000000000008152600401611c3d90615c42565b60405180910390fd5b83611c5033610ac6565b1515600115151480611c8d57508073ffffffffffffffffffffffffffffffffffffffff163373ffffffffffffffffffffffffffffffffffffffff16145b611ccc576040517f08c379a0000000000000000000000000000000000000000000000000000000008152600401611cc390615c82565b60405180910390fd5b611cf38560038681548110611cdd57fe5b90600052602060002090600202016001546137d8565b611fdc60038581548110611d0357fe5b906000526020600020906002020160000160008773ffffffffffffffffffffffffffffffffffffffff1673ffffffffffffffffffffffffffffffffffffffff1681526020019081526020016000206040518060e0016040529081600082015481526020016001820160009054906101000a900460ff16151515158152602001600282018054600181600116156101000203166002900480601f016020809104026020016040519081016040528092919081815260200182805460018160011615610100020316600290048015611e1a5780601f10611def57610100808354040283529160200191611e1a565b820191906000526020600020905b815481529060010190602001808311611dfd57829003601f168201915b505050505081526020016003820154815260200160048201805480602002602001604051908101604052809291908181526020018280548015611eb257602002820191906000526020600020905b8160009054906101000a900473ffffffffffffffffffffffffffffffffffffffff1673ffffffffffffffffffffffffffffffffffffffff1681526020019060010190808311611e68575b5050505050815260200160058201805480602002602001604051908101604052809291908181526020018280548015611f4057602002820191906000526020600020905b8160009054906101000a900473ffffffffffffffffffffffffffffffffffffffff1673ffffffffffffffffffffffffffffffffffffffff1681526020019060010190808311611ef6575b5050505050815260200160068201805480602002602001604051908101604052809291908181526020018280548015611fce57602002820191906000526020600020905b8160009054906101000a900473ffffffffffffffffffffffffffffffffffffffff1673ffffffffffffffffffffffffffffffffffffffff1681526020019060010190808311611f84575b505050505081525050612aad565b1515600015151415612038577f1f62d535f971041db7bd8760bf0f1f9f476461558744a35c0d477b5ad6893e896002858154811061201657fe5b906000526020600020018660405161202f929190615bf2565b60405180910390a15b5050505050565b8060038054905073__Library_______________________________632477a0ea83836040518363ffffffff1660e01b815260040161207f929190615dbd565b60206040518083038186803b15801561209757600080fd5b505af41580156120ab573d6000803e3d6000fd5b505050506040513d601f19601f820116820180604052508101906120cf91906154c4565b15156001151514612115576040517f08c379a000000000000000000000000000000000000000000000000000000000815260040161210c90615c42565b60405180910390fd5b61211e33610ac6565b15156001151514612164576040517f08c379a000000000000000000000000000000000000000000000000000000000815260040161215b90615cc2565b60405180910390fd5b61218c85856003868154811061217657fe5b9060005260206000209060020201600154613fe1565b6124756003848154811061219c57fe5b906000526020600020906002020160000160008773ffffffffffffffffffffffffffffffffffffffff1673ffffffffffffffffffffffffffffffffffffffff1681526020019081526020016000206040518060e0016040529081600082015481526020016001820160009054906101000a900460ff16151515158152602001600282018054600181600116156101000203166002900480601f0160208091040260200160405190810160405280929190818152602001828054600181600116156101000203166002900480156122b35780601f10612288576101008083540402835291602001916122b3565b820191906000526020600020905b81548152906001019060200180831161229657829003601f168201915b50505050508152602001600382015481526020016004820180548060200260200160405190810160405280929190818152602001828054801561234b57602002820191906000526020600020905b8160009054906101000a900473ffffffffffffffffffffffffffffffffffffffff1673ffffffffffffffffffffffffffffffffffffffff1681526020019060010190808311612301575b50505050508152602001600582018054806020026020016040519081016040528092919081815260200182805480156123d957602002820191906000526020600020905b8160009054906101000a900473ffffffffffffffffffffffffffffffffffffffff1673ffffffffffffffffffffffffffffffffffffffff168152602001906001019080831161238f575b505050505081526020016006820180548060200260200160405190810160405280929190818152602001828054801561246757602002820191906000526020600020905b8160009054906101000a900473ffffffffffffffffffffffffffffffffffffffff1673ffffffffffffffffffffffffffffffffffffffff168152602001906001019080831161241d575b505050505081525050612aad565b15156001151514156124d1577f3c139d46a211844e248647688545a37c07c505c999c1232d1247c707dc0a91e2600284815481106124af57fe5b90600052602060002001866040516124c8929190615bf2565b60405180910390a15b5050505050565b60008160038054905073__Library_______________________________632477a0ea83836040518363ffffffff1660e01b815260040161251a929190615dbd565b60206040518083038186803b15801561253257600080fd5b505af4158015612546573d6000803e3d6000fd5b505050506040513d601f19601f8201168201806040525081019061256a91906154c4565b151560011515146125b0576040517f08c379a00000000000000000000000000000000000000000000000000000000081526004016125a790615c42565b60405180910390fd5b612899600385815481106125c057fe5b906000526020600020906002020160000160008773ffffffffffffffffffffffffffffffffffffffff1673ffffffffffffffffffffffffffffffffffffffff1681526020019081526020016000206040518060e0016040529081600082015481526020016001820160009054906101000a900460ff16151515158152602001600282018054600181600116156101000203166002900480601f0160208091040260200160405190810160405280929190818152602001828054600181600116156101000203166002900480156126d75780601f106126ac576101008083540402835291602001916126d7565b820191906000526020600020905b8154815290600101906020018083116126ba57829003601f168201915b50505050508152602001600382015481526020016004820180548060200260200160405190810160405280929190818152602001828054801561276f57602002820191906000526020600020905b8160009054906101000a900473ffffffffffffffffffffffffffffffffffffffff1673ffffffffffffffffffffffffffffffffffffffff1681526020019060010190808311612725575b50505050508152602001600582018054806020026020016040519081016040528092919081815260200182805480156127fd57602002820191906000526020600020905b8160009054906101000a900473ffffffffffffffffffffffffffffffffffffffff1673ffffffffffffffffffffffffffffffffffffffff16815260200190600101908083116127b3575b505050505081526020016006820180548060200260200160405190810160405280929190818152602001828054801561288b57602002820191906000526020600020905b8160009054906101000a900473ffffffffffffffffffffffffffffffffffffffff1673ffffffffffffffffffffffffffffffffffffffff1681526020019060010190808311612841575b505050505081525050612aad565b9250505092915050565b60608160038054905073__Library_______________________________632477a0ea83836040518363ffffffff1660e01b81526004016128e5929190615dbd565b60206040518083038186803b1580156128fd57600080fd5b505af4158015612911573d6000803e3d6000fd5b505050506040513d601f19601f8201168201806040525081019061293591906154c4565b1515600115151461297b576040517f08c379a000000000000000000000000000000000000000000000000000000000815260040161297290615c42565b60405180910390fd5b61299f856003868154811061298c57fe5b90600052602060002090600202016148ad565b9250505092915050565b60608160038054905073__Library_______________________________632477a0ea83836040518363ffffffff1660e01b81526004016129eb929190615dbd565b60206040518083038186803b158015612a0357600080fd5b505af4158015612a17573d6000803e3d6000fd5b505050506040513d601f19601f82011682018060405250810190612a3b91906154c4565b15156001151514612a81576040517f08c379a0000000000000000000000000000000000000000000000000000000008152600401612a7890615c42565b60405180910390fd5b612aa460038581548110612a9157fe5b9060005260206000209060020201614c69565b92505050919050565b600081602001519050919050565b606082825173__Library_______________________________632477a0ea83836040518363ffffffff1660e01b8152600401612af9929190615dbd565b60206040518083038186803b158015612b1157600080fd5b505af4158015612b25573d6000803e3d6000fd5b505050506040513d601f19601f82011682018060405250810190612b4991906154c4565b15156001151514612b8f576040517f08c379a0000000000000000000000000000000000000000000000000000000008152600401612b8690615c42565b60405180910390fd5b60008590505b6001855103811015612bdd57846001820181518110612bb057fe5b6020026020010151858281518110612bc457fe5b6020026020010181815250508080600101915050612b95565b5083600185510381518110612bee57fe5b602002602001016000801916815250839250505092915050565b60008160038054905073__Library_______________________________632477a0ea83836040518363ffffffff1660e01b8152600401612c4a929190615dbd565b60206040518083038186803b158015612c6257600080fd5b505af4158015612c76573d6000803e3d6000fd5b505050506040513d601f19601f82011682018060405250810190612c9a91906154c4565b15156001151514612ce0576040517f08c379a0000000000000000000000000000000000000000000000000000000008152600401612cd790615c42565b60405180910390fd5b612d0360038581548110612cf057fe5b9060005260206000209060020201614de7565b92505050919050565b600060018260000160008573ffffffffffffffffffffffffffffffffffffffff1673ffffffffffffffffffffffffffffffffffffffff1681526020019081526020016000206040518060e0016040529081600082015481526020016001820160009054906101000a900460ff16151515158152602001600282018054600181600116156101000203166002900480601f016020809104026020016040519081016040528092919081815260200182805460018160011615610100020316600290048015612e1a5780601f10612def57610100808354040283529160200191612e1a565b820191906000526020600020905b815481529060010190602001808311612dfd57829003601f168201915b505050505081526020016003820154815260200160048201805480602002602001604051908101604052809291908181526020018280548015612eb257602002820191906000526020600020905b8160009054906101000a900473ffffffffffffffffffffffffffffffffffffffff1673ffffffffffffffffffffffffffffffffffffffff1681526020019060010190808311612e68575b5050505050815260200160058201805480602002602001604051908101604052809291908181526020018280548015612f4057602002820191906000526020600020905b8160009054906101000a900473ffffffffffffffffffffffffffffffffffffffff1673ffffffffffffffffffffffffffffffffffffffff1681526020019060010190808311612ef6575b5050505050815260200160068201805480602002602001604051908101604052809291908181526020018280548015612fce57602002820191906000526020600020905b8160009054906101000a900473ffffffffffffffffffffffffffffffffffffffff1673ffffffffffffffffffffffffffffffffffffffff1681526020019060010190808311612f84575b505050505081525050612fe18282614e81565b8360000160008673ffffffffffffffffffffffffffffffffffffffff1673ffffffffffffffffffffffffffffffffffffffff168152602001908152602001600020600301549250505092915050565b60018260000160008673ffffffffffffffffffffffffffffffffffffffff1673ffffffffffffffffffffffffffffffffffffffff1681526020019081526020016000206040518060e0016040529081600082015481526020016001820160009054906101000a900460ff16151515158152602001600282018054600181600116156101000203166002900480601f01602080910402602001604051908101604052809291908181526020018280546001816001161561010002031660029004801561313c5780601f106131115761010080835404028352916020019161313c565b820191906000526020600020905b81548152906001019060200180831161311f57829003601f168201915b5050505050815260200160038201548152602001600482018054806020026020016040519081016040528092919081815260200182805480156131d457602002820191906000526020600020905b8160009054906101000a900473ffffffffffffffffffffffffffffffffffffffff1673ffffffffffffffffffffffffffffffffffffffff168152602001906001019080831161318a575b505050505081526020016005820180548060200260200160405190810160405280929190818152602001828054801561326257602002820191906000526020600020905b8160009054906101000a900473ffffffffffffffffffffffffffffffffffffffff1673ffffffffffffffffffffffffffffffffffffffff1681526020019060010190808311613218575b50505050508152602001600682018054806020026020016040519081016040528092919081815260200182805480156132f057602002820191906000526020600020905b8160009054906101000a900473ffffffffffffffffffffffffffffffffffffffff1673ffffffffffffffffffffffffffffffffffffffff16815260200190600101908083116132a6575b5050505050815250506133038282614e81565b60018460000160008873ffffffffffffffffffffffffffffffffffffffff1673ffffffffffffffffffffffffffffffffffffffff1681526020019081526020016000206040518060e0016040529081600082015481526020016001820160009054906101000a900460ff16151515158152602001600282018054600181600116156101000203166002900480601f01602080910402602001604051908101604052809291908181526020018280546001816001161561010002031660029004801561340f5780601f106133e45761010080835404028352916020019161340f565b820191906000526020600020905b8154815290600101906020018083116133f257829003601f168201915b5050505050815260200160038201548152602001600482018054806020026020016040519081016040528092919081815260200182805480156134a757602002820191906000526020600020905b8160009054906101000a900473ffffffffffffffffffffffffffffffffffffffff1673ffffffffffffffffffffffffffffffffffffffff168152602001906001019080831161345d575b505050505081526020016005820180548060200260200160405190810160405280929190818152602001828054801561353557602002820191906000526020600020905b8160009054906101000a900473ffffffffffffffffffffffffffffffffffffffff1673ffffffffffffffffffffffffffffffffffffffff16815260200190600101908083116134eb575b50505050508152602001600682018054806020026020016040519081016040528092919081815260200182805480156135c357602002820191906000526020600020905b8160009054906101000a900473ffffffffffffffffffffffffffffffffffffffff1673ffffffffffffffffffffffffffffffffffffffff1681526020019060010190808311613579575b5050505050815250506135d68282614f36565b8560000160008973ffffffffffffffffffffffffffffffffffffffff1673ffffffffffffffffffffffffffffffffffffffff168152602001908152602001600020600601339080600181540180825580915050600190039060005260206000200160009091909190916101000a81548173ffffffffffffffffffffffffffffffffffffffff021916908373ffffffffffffffffffffffffffffffffffffffff1602179055506136cc8660000160008a73ffffffffffffffffffffffffffffffffffffffff1673ffffffffffffffffffffffffffffffffffffffff16815260200190815260200160002060060180549050866150c7565b156137ce57868660000160008a73ffffffffffffffffffffffffffffffffffffffff1673ffffffffffffffffffffffffffffffffffffffff16815260200190815260200160002060020190805190602001906137299291906151d8565b5060018660000160008a73ffffffffffffffffffffffffffffffffffffffff1673ffffffffffffffffffffffffffffffffffffffff168152602001908152602001600020600301600082825401925050819055508560000160008973ffffffffffffffffffffffffffffffffffffffff1673ffffffffffffffffffffffffffffffffffffffff16815260200190815260200160002060060160006137cd9190615266565b5b5050505050505050565b60018260000160008573ffffffffffffffffffffffffffffffffffffffff1673ffffffffffffffffffffffffffffffffffffffff1681526020019081526020016000206040518060e0016040529081600082015481526020016001820160009054906101000a900460ff16151515158152602001600282018054600181600116156101000203166002900480601f0160208091040260200160405190810160405280929190818152602001828054600181600116156101000203166002900480156138e45780601f106138b9576101008083540402835291602001916138e4565b820191906000526020600020905b8154815290600101906020018083116138c757829003601f168201915b50505050508152602001600382015481526020016004820180548060200260200160405190810160405280929190818152602001828054801561397c57602002820191906000526020600020905b8160009054906101000a900473ffffffffffffffffffffffffffffffffffffffff1673ffffffffffffffffffffffffffffffffffffffff1681526020019060010190808311613932575b5050505050815260200160058201805480602002602001604051908101604052809291908181526020018280548015613a0a57602002820191906000526020600020905b8160009054906101000a900473ffffffffffffffffffffffffffffffffffffffff1673ffffffffffffffffffffffffffffffffffffffff16815260200190600101908083116139c0575b5050505050815260200160068201805480602002602001604051908101604052809291908181526020018280548015613a9857602002820191906000526020600020905b8160009054906101000a900473ffffffffffffffffffffffffffffffffffffffff1673ffffffffffffffffffffffffffffffffffffffff1681526020019060010190808311613a4e575b505050505081525050613aab8282614e81565b60028460000160008773ffffffffffffffffffffffffffffffffffffffff1673ffffffffffffffffffffffffffffffffffffffff1681526020019081526020016000206040518060e0016040529081600082015481526020016001820160009054906101000a900460ff16151515158152602001600282018054600181600116156101000203166002900480601f016020809104026020016040519081016040528092919081815260200182805460018160011615610100020316600290048015613bb75780601f10613b8c57610100808354040283529160200191613bb7565b820191906000526020600020905b815481529060010190602001808311613b9a57829003601f168201915b505050505081526020016003820154815260200160048201805480602002602001604051908101604052809291908181526020018280548015613c4f57602002820191906000526020600020905b8160009054906101000a900473ffffffffffffffffffffffffffffffffffffffff1673ffffffffffffffffffffffffffffffffffffffff1681526020019060010190808311613c05575b5050505050815260200160058201805480602002602001604051908101604052809291908181526020018280548015613cdd57602002820191906000526020600020905b8160009054906101000a900473ffffffffffffffffffffffffffffffffffffffff1673ffffffffffffffffffffffffffffffffffffffff1681526020019060010190808311613c93575b5050505050815260200160068201805480602002602001604051908101604052809291908181526020018280548015613d6b57602002820191906000526020600020905b8160009054906101000a900473ffffffffffffffffffffffffffffffffffffffff1673ffffffffffffffffffffffffffffffffffffffff1681526020019060010190808311613d21575b505050505081525050613d7e8282614f36565b8560000160008873ffffffffffffffffffffffffffffffffffffffff1673ffffffffffffffffffffffffffffffffffffffff168152602001908152602001600020600501339080600181540180825580915050600190039060005260206000200160009091909190916101000a81548173ffffffffffffffffffffffffffffffffffffffff021916908373ffffffffffffffffffffffffffffffffffffffff1602179055508673ffffffffffffffffffffffffffffffffffffffff163373ffffffffffffffffffffffffffffffffffffffff161480613eaa5750613ea98660000160008973ffffffffffffffffffffffffffffffffffffffff1673ffffffffffffffffffffffffffffffffffffffff16815260200190815260200160002060050180549050866150c7565b5b15613fd857856001018660000160008973ffffffffffffffffffffffffffffffffffffffff1673ffffffffffffffffffffffffffffffffffffffff1681526020019081526020016000206000015481548110613f0257fe5b9060005260206000200160006101000a81549073ffffffffffffffffffffffffffffffffffffffff02191690558560000160008873ffffffffffffffffffffffffffffffffffffffff1673ffffffffffffffffffffffffffffffffffffffff1681526020019081526020016000206000808201600090556001820160006101000a81549060ff0219169055600282016000613f9d9190615287565b6003820160009055600482016000613fb59190615266565b600582016000613fc59190615266565b600682016000613fd59190615266565b50505b50505050505050565b60008260000160008673ffffffffffffffffffffffffffffffffffffffff1673ffffffffffffffffffffffffffffffffffffffff1681526020019081526020016000206040518060e0016040529081600082015481526020016001820160009054906101000a900460ff16151515158152602001600282018054600181600116156101000203166002900480601f0160208091040260200160405190810160405280929190818152602001828054600181600116156101000203166002900480156140ed5780601f106140c2576101008083540402835291602001916140ed565b820191906000526020600020905b8154815290600101906020018083116140d057829003601f168201915b50505050508152602001600382015481526020016004820180548060200260200160405190810160405280929190818152602001828054801561418557602002820191906000526020600020905b8160009054906101000a900473ffffffffffffffffffffffffffffffffffffffff1673ffffffffffffffffffffffffffffffffffffffff168152602001906001019080831161413b575b505050505081526020016005820180548060200260200160405190810160405280929190818152602001828054801561421357602002820191906000526020600020905b8160009054906101000a900473ffffffffffffffffffffffffffffffffffffffff1673ffffffffffffffffffffffffffffffffffffffff16815260200190600101908083116141c9575b50505050508152602001600682018054806020026020016040519081016040528092919081815260200182805480156142a157602002820191906000526020600020905b8160009054906101000a900473ffffffffffffffffffffffffffffffffffffffff1673ffffffffffffffffffffffffffffffffffffffff1681526020019060010190808311614257575b5050505050815250506142b48282614e81565b60008460000160008873ffffffffffffffffffffffffffffffffffffffff1673ffffffffffffffffffffffffffffffffffffffff1681526020019081526020016000206040518060e0016040529081600082015481526020016001820160009054906101000a900460ff16151515158152602001600282018054600181600116156101000203166002900480601f0160208091040260200160405190810160405280929190818152602001828054600181600116156101000203166002900480156143c05780601f10614395576101008083540402835291602001916143c0565b820191906000526020600020905b8154815290600101906020018083116143a357829003601f168201915b50505050508152602001600382015481526020016004820180548060200260200160405190810160405280929190818152602001828054801561445857602002820191906000526020600020905b8160009054906101000a900473ffffffffffffffffffffffffffffffffffffffff1673ffffffffffffffffffffffffffffffffffffffff168152602001906001019080831161440e575b50505050508152602001600582018054806020026020016040519081016040528092919081815260200182805480156144e657602002820191906000526020600020905b8160009054906101000a900473ffffffffffffffffffffffffffffffffffffffff1673ffffffffffffffffffffffffffffffffffffffff168152602001906001019080831161449c575b505050505081526020016006820180548060200260200160405190810160405280929190818152602001828054801561457457602002820191906000526020600020905b8160009054906101000a900473ffffffffffffffffffffffffffffffffffffffff1673ffffffffffffffffffffffffffffffffffffffff168152602001906001019080831161452a575b5050505050815250506145878282614f36565b8560000160008973ffffffffffffffffffffffffffffffffffffffff1673ffffffffffffffffffffffffffffffffffffffff16815260200190815260200160002060040180549050600014801561463657508560000160008973ffffffffffffffffffffffffffffffffffffffff1673ffffffffffffffffffffffffffffffffffffffff1681526020019081526020016000206002018054600181600116156101000203166002900490506000145b1561469557868660000160008a73ffffffffffffffffffffffffffffffffffffffff1673ffffffffffffffffffffffffffffffffffffffff16815260200190815260200160002060020190805190602001906146939291906151d8565b505b8560000160008973ffffffffffffffffffffffffffffffffffffffff1673ffffffffffffffffffffffffffffffffffffffff168152602001908152602001600020600401339080600181540180825580915050600190039060005260206000200160009091909190916101000a81548173ffffffffffffffffffffffffffffffffffffffff021916908373ffffffffffffffffffffffffffffffffffffffff16021790555061478b8660000160008a73ffffffffffffffffffffffffffffffffffffffff1673ffffffffffffffffffffffffffffffffffffffff16815260200190815260200160002060040180549050866150c7565b156148a35760018660000160008a73ffffffffffffffffffffffffffffffffffffffff1673ffffffffffffffffffffffffffffffffffffffff16815260200190815260200160002060010160006101000a81548160ff02191690831515021790555085600101805490508660000160008a73ffffffffffffffffffffffffffffffffffffffff1673ffffffffffffffffffffffffffffffffffffffff1681526020019081526020016000206000018190555085600101889080600181540180825580915050600190039060005260206000200160009091909190916101000a81548173ffffffffffffffffffffffffffffffffffffffff021916908373ffffffffffffffffffffffffffffffffffffffff1602179055505b5050505050505050565b606060018260000160008573ffffffffffffffffffffffffffffffffffffffff1673ffffffffffffffffffffffffffffffffffffffff1681526020019081526020016000206040518060e0016040529081600082015481526020016001820160009054906101000a900460ff16151515158152602001600282018054600181600116156101000203166002900480601f0160208091040260200160405190810160405280929190818152602001828054600181600116156101000203166002900480156149bb5780601f10614990576101008083540402835291602001916149bb565b820191906000526020600020905b81548152906001019060200180831161499e57829003601f168201915b505050505081526020016003820154815260200160048201805480602002602001604051908101604052809291908181526020018280548015614a5357602002820191906000526020600020905b8160009054906101000a900473ffffffffffffffffffffffffffffffffffffffff1673ffffffffffffffffffffffffffffffffffffffff1681526020019060010190808311614a09575b5050505050815260200160058201805480602002602001604051908101604052809291908181526020018280548015614ae157602002820191906000526020600020905b8160009054906101000a900473ffffffffffffffffffffffffffffffffffffffff1673ffffffffffffffffffffffffffffffffffffffff1681526020019060010190808311614a97575b5050505050815260200160068201805480602002602001604051908101604052809291908181526020018280548015614b6f57602002820191906000526020600020905b8160009054906101000a900473ffffffffffffffffffffffffffffffffffffffff1673ffffffffffffffffffffffffffffffffffffffff1681526020019060010190808311614b25575b505050505081525050614b828282614e81565b8360000160008673ffffffffffffffffffffffffffffffffffffffff1673ffffffffffffffffffffffffffffffffffffffff1681526020019081526020016000206002018054600181600116156101000203166002900480601f016020809104026020016040519081016040528092919081815260200182805460018160011615610100020316600290048015614c5a5780601f10614c2f57610100808354040283529160200191614c5a565b820191906000526020600020905b815481529060010190602001808311614c3d57829003601f168201915b50505050509250505092915050565b60606000614c7683614de7565b905060008167ffffffffffffffff81118015614c9157600080fd5b50604051908082528060200260200182016040528015614cc05781602001602082028036833780820191505090505b509050600080600090505b8560010180549050811015614ddb57856001018181548110614ce957fe5b9060005260206000200160009054906101000a900473ffffffffffffffffffffffffffffffffffffffff1673ffffffffffffffffffffffffffffffffffffffff16600073ffffffffffffffffffffffffffffffffffffffff1614614dce57856001018181548110614d5657fe5b9060005260206000200160009054906101000a900473ffffffffffffffffffffffffffffffffffffffff16838381518110614d8d57fe5b602002602001019073ffffffffffffffffffffffffffffffffffffffff16908173ffffffffffffffffffffffffffffffffffffffff16815250506001820191505b8080600101915050614ccb565b50819350505050919050565b6000614e7a82600101805480602002602001604051908101604052809291908181526020018280548015614e7057602002820191906000526020600020905b8160009054906101000a900473ffffffffffffffffffffffffffffffffffffffff1673ffffffffffffffffffffffffffffffffffffffff1681526020019060010190808311614e26575b50505050506150e5565b9050919050565b811515600015151415614ee257614e9781612aad565b15156000151514614edd576040517f08c379a0000000000000000000000000000000000000000000000000000000008152600401614ed490615ce2565b60405180910390fd5b614f32565b614eeb81612aad565b15156001151514614f31576040517f08c379a0000000000000000000000000000000000000000000000000000000008152600401614f2890615ca2565b60405180910390fd5b5b5050565b60006040518060400160405280601781526020017f4f776e65722068617320616c726561647920766f7465640000000000000000008152509050826002811115614f7c57fe5b60016002811115614f8957fe5b1415614fec57614f9d338360c0015161515d565b151560001515148190614fe6576040517f08c379a0000000000000000000000000000000000000000000000000000000008152600401614fdd9190615bd0565b60405180910390fd5b506150c2565b826002811115614ff857fe5b6000600281111561500557fe5b14156150685761501933836080015161515d565b151560001515148190615062576040517f08c379a00000000000000000000000000000000000000000000000000000000081526004016150599190615bd0565b60405180910390fd5b506150c1565b615076338360a0015161515d565b1515600015151481906150bf576040517f08c379a00000000000000000000000000000000000000000000000000000000081526004016150b69190615bd0565b60405180910390fd5b505b5b505050565b6000818310156150da57600090506150df565b600190505b92915050565b6000806000905060005b83518110156151535783818151811061510457fe5b602002602001015173ffffffffffffffffffffffffffffffffffffffff16600073ffffffffffffffffffffffffffffffffffffffff1614615146576001820191505b80806001019150506150ef565b5080915050919050565b600080600090505b82518110156151cc5782818151811061517a57fe5b602002602001015173ffffffffffffffffffffffffffffffffffffffff168473ffffffffffffffffffffffffffffffffffffffff1614156151bf5760019150506151d2565b8080600101915050615165565b50600090505b92915050565b828054600181600116156101000203166002900490600052602060002090601f01602090048101928261520e5760008555615255565b82601f1061522757805160ff1916838001178555615255565b82800160010185558215615255579182015b82811115615254578251825591602001919060010190615239565b5b50905061526291906152cf565b5090565b508054600082559060005260206000209081019061528491906152cf565b50565b50805460018160011615610100020316600290046000825580601f106152ad57506152cc565b601f0160209004906000526020600020908101906152cb91906152cf565b5b50565b5b808211156152e85760008160009055506001016152d0565b5090565b60006152ff6152fa84615e17565b615de6565b90508281526020810184848401111561531757600080fd5b615322848285615f72565b509392505050565b60008135905061533981615fc7565b92915050565b60008151905061534e81615fde565b92915050565b60008135905061536381615ff5565b92915050565b600082601f83011261537a57600080fd5b813561538a8482602086016152ec565b91505092915050565b6000813590506153a28161600c565b92915050565b6000602082840312156153ba57600080fd5b60006153c88482850161532a565b91505092915050565b600080604083850312156153e457600080fd5b60006153f28582860161532a565b92505060206154038582860161532a565b9150509250929050565b6000806000806080858703121561542357600080fd5b60006154318782880161532a565b94505060206154428782880161532a565b935050604061545387828801615393565b925050606061546487828801615393565b91505092959194509250565b6000806040838503121561548357600080fd5b60006154918582860161532a565b925050602083013567ffffffffffffffff8111156154ae57600080fd5b6154ba85828601615369565b9150509250929050565b6000602082840312156154d657600080fd5b60006154e48482850161533f565b91505092915050565b6000806040838503121561550057600080fd5b600061550e85828601615354565b925050602061551f8582860161532a565b9150509250929050565b60006155358383615568565b60208301905092915050565b600061554d8383615651565b60208301905092915050565b61556281615f3c565b82525050565b61557181615eea565b82525050565b61558081615eea565b82525050565b600061559182615e7c565b61559b8185615eb7565b93506155a683615e47565b8060005b838110156155d75781516155be8882615529565b97506155c983615e9d565b9250506001810190506155aa565b5085935050505092915050565b60006155ef82615e87565b6155f98185615ec8565b935061560483615e57565b8060005b8381101561563557815161561c8882615541565b975061562783615eaa565b925050600181019050615608565b5085935050505092915050565b61564b81615efc565b82525050565b61565a81615f08565b82525050565b600061566b82615e92565b6156758185615ed9565b9350615685818560208601615f81565b61568e81615fb6565b840191505092915050565b6000815460018116600081146156b657600181146156dc57615720565b607f60028304166156c78187615ed9565b955060ff198316865260208601935050615720565b600282046156ea8187615ed9565b95506156f585615e67565b60005b82811015615717578154818901526001820191506020810190506156f8565b80880195505050505b505092915050565b6000615735603183615ed9565b91507f4f6e6c792050726f7669646572732061726520616c6c6f77656420746f20706560008301527f72666f726d207468697320616374696f6e0000000000000000000000000000006020830152604082019050919050565b600061579b601483615ed9565b91507f70726f76696465642049642069732077726f6e670000000000000000000000006000830152602082019050919050565b60006157db602483615ed9565b91507f50726f7669646572206e6f74207375626d697465642062792043726561746f7260008301527f20796574000000000000000000000000000000000000000000000000000000006020830152604082019050919050565b6000615841601c83615ed9565b91507f4e6f7420616c6c6f77656420746f2072656d6f766520656e74697479000000006000830152602082019050919050565b6000615881601883615ed9565b91507f456e74697479206d7573742062652061637469766174656400000000000000006000830152602082019050919050565b60006158c1602e83615ed9565b91507f4f6e6c79204f776e6572732061726520616c6c6f77656420746f20706572666f60008301527f726d207468697320616374696f6e0000000000000000000000000000000000006020830152604082019050919050565b6000615927601883615ed9565b91507f456e7469747920616c72656164792061637469766174656400000000000000006000830152602082019050919050565b6000615967601683615ed9565b91507f49742069732077686f2069742073686f756c64206265000000000000000000006000830152602082019050919050565b60006159a7603183615ed9565b91507f4e6f7420616c6c6f77656420746f2072656d6f7665207468697320706172746960008301527f63756c61722043657274696669636174650000000000000000000000000000006020830152604082019050919050565b6000615a0d600583615ed9565b91507f456d7074790000000000000000000000000000000000000000000000000000006000830152602082019050919050565b6000615a4d602983615ed9565b91507f50726f766964657220616c726561647920616374697661746564206f7220696e60008301527f2070726f677265737300000000000000000000000000000000000000000000006020830152604082019050919050565b6000615ab3601983615ed9565b91507f436572746966696361746520616c7265616479206578697374000000000000006000830152602082019050919050565b615aef81615f32565b82525050565b615afe81615f32565b82525050565b6000602082019050615b196000830184615577565b92915050565b6000604082019050615b346000830185615559565b615b416020830184615577565b9392505050565b6000604082019050615b5d6000830185615577565b615b6a6020830184615577565b9392505050565b60006020820190508181036000830152615b8b8184615586565b905092915050565b60006020820190508181036000830152615bad81846155e4565b905092915050565b6000602082019050615bca6000830184615642565b92915050565b60006020820190508181036000830152615bea8184615660565b905092915050565b60006040820190508181036000830152615c0c8185615699565b9050615c1b6020830184615577565b9392505050565b60006020820190508181036000830152615c3b81615728565b9050919050565b60006020820190508181036000830152615c5b8161578e565b9050919050565b60006020820190508181036000830152615c7b816157ce565b9050919050565b60006020820190508181036000830152615c9b81615834565b9050919050565b60006020820190508181036000830152615cbb81615874565b9050919050565b60006020820190508181036000830152615cdb816158b4565b9050919050565b60006020820190508181036000830152615cfb8161591a565b9050919050565b60006020820190508181036000830152615d1b8161595a565b9050919050565b60006020820190508181036000830152615d3b8161599a565b9050919050565b60006020820190508181036000830152615d5b81615a00565b9050919050565b60006020820190508181036000830152615d7b81615a40565b9050919050565b60006020820190508181036000830152615d9b81615aa6565b9050919050565b6000602082019050615db76000830184615ae6565b92915050565b6000604082019050615dd26000830185615af5565b615ddf6020830184615af5565b9392505050565b6000604051905081810181811067ffffffffffffffff82111715615e0d57615e0c615fb4565b5b8060405250919050565b600067ffffffffffffffff821115615e3257615e31615fb4565b5b601f19601f8301169050602081019050919050565b6000819050602082019050919050565b6000819050602082019050919050565b60008190508160005260206000209050919050565b600081519050919050565b600081519050919050565b600081519050919050565b6000602082019050919050565b6000602082019050919050565b600082825260208201905092915050565b600082825260208201905092915050565b600082825260208201905092915050565b6000615ef582615f12565b9050919050565b60008115159050919050565b6000819050919050565b600073ffffffffffffffffffffffffffffffffffffffff82169050919050565b6000819050919050565b6000615f4782615f4e565b9050919050565b6000615f5982615f60565b9050919050565b6000615f6b82615f12565b9050919050565b82818337600083830152505050565b60005b83811015615f9f578082015181840152602081019050615f84565b83811115615fae576000848401525b50505050565bfe5b6000601f19601f8301169050919050565b615fd081615eea565b8114615fdb57600080fd5b50565b615fe781615efc565b8114615ff257600080fd5b50565b615ffe81615f08565b811461600957600080fd5b50565b61601581615f32565b811461602057600080fd5b5056fea2646970667358221220745f7956030485221e6077d76ce960236ddbc5f44191fdc9ff93df9d72d4651764736f6c63430007060033",
  "immutableReferences": {},
  "source": "// SPDX-License-Identifier: GPL-3.0\r\n\r\npragma solidity >=0.7.0 <0.9.0;\r\n\r\n/**\r\n * @title Storage\r\n * @dev Store & retrieve value in a variable\r\n */\r\n\r\nimport \"./Library.sol\";\r\nimport \"./PrivateCertificatesPool.sol\";\r\nimport \"./PublicCertificatesPool.sol\";\r\n\r\n /* \r\n Actors : Chair Person, Anyone\r\n Token : Proposals\r\n\r\n 1- Anyone can submit proposals (paying a fee)\r\n 2- Chair Person can approve proposals creating Providers in Certificates Contract\r\n\r\n\r\n Proposals lifecycle\r\n    Proposals Creation : Anyone (paying fee)\r\n    Proposals Update : \r\n    Proposals Remove :   \r\n    Proposals Validations : Only Chair Person  \r\n\r\n */\r\n\r\ncontract CertificatesPoolManager{\r\n    using Library for *;\r\n\r\n    // events\r\n    event _NewCertificatesPool(uint256, address, MultiSigCertificatesPool);\r\n    event _SendProposalId(address);\r\n\r\n    uint _PublicPriceWei;\r\n    uint _PrivatePoolPriceWei;\r\n\r\n    // modfiers\r\n    modifier isIdCorrect(uint Id, uint length){\r\n        require(true == Library.IdCorrect(Id, length), \"provided Id is wrong\");\r\n        _;\r\n    }\r\n\r\n    modifier areFundsEnough(uint minPrice){\r\n        require(msg.value >= minPrice, \"Not enough funds\");\r\n        _;\r\n    }\r\n    \r\n    // Private Certificates Pool structure\r\n    struct _privateCertificatesPoolStruct{\r\n        address _creator;\r\n        PrivateCertificatesPool _PrivateCertificatesPool;\r\n    } \r\n\r\n    _privateCertificatesPoolStruct[] _PrivateCertificatesPools;\r\n    \r\n    // Public Certificates Pool structure\r\n    PublicCertificatesPool  _PublicCertificatesPool;\r\n\r\n    address payable _chairperson;\r\n    \r\n    constructor(address[] memory owners, uint256 minOwners, uint256 PublicPriceWei, uint256 PrivatePriceWei) payable{\r\n        _chairperson = payable(msg.sender);\r\n        _PublicPriceWei = PublicPriceWei;\r\n        _PrivatePoolPriceWei = PrivatePriceWei;\r\n        _PublicCertificatesPool = new PublicCertificatesPool(owners, minOwners);\r\n    }\r\n\r\n    // PRIVATE CERTIFICATE POOL /////////////////////////////////////////////////////////////\r\n\r\n    function createPrivateCertificatesPool(address[] memory owners,  uint256 minOwners) external\r\n        areFundsEnough(_PrivatePoolPriceWei)\r\n    payable\r\n    {\r\n        PrivateCertificatesPool certificatePool = new PrivateCertificatesPool(owners, minOwners);\r\n        _privateCertificatesPoolStruct memory privateCertificatesPool = _privateCertificatesPoolStruct(msg.sender, certificatePool);\r\n        _PrivateCertificatesPools.push(privateCertificatesPool);\r\n\r\n        emit _NewCertificatesPool(_PrivateCertificatesPools.length - 1, privateCertificatesPool._creator, privateCertificatesPool._PrivateCertificatesPool);\r\n    }\r\n\r\n    function retrievePrivateCertificatesPool(uint certificatePoolId) external\r\n        isIdCorrect(certificatePoolId, _PrivateCertificatesPools.length)\r\n    view returns (address, MultiSigCertificatesPool)\r\n    {\r\n        return(_PrivateCertificatesPools[certificatePoolId]._creator, _PrivateCertificatesPools[certificatePoolId]._PrivateCertificatesPool);\r\n    }\r\n\r\n    // PUBLIC CERTIFICATE POOL /////////////////////////////////////////////////////////////\r\n\r\n    function sendProposal(address provider, string memory providerInfo) public \r\n        areFundsEnough(_PublicPriceWei)\r\n    payable \r\n    {\r\n       _PublicCertificatesPool.addProvider(provider, providerInfo);\r\n\r\n       emit _SendProposalId(provider);\r\n    }\r\n\r\n    function retrievePublicCertificatesPool() public view returns (MultiSigCertificatesPool) {\r\n        return _PublicCertificatesPool;\r\n    }\r\n    \r\n    function retrieveChairPerson() public view returns (address) {\r\n        return _chairperson;\r\n    }\r\n    \r\n}",
  "sourcePath": "C:/Users/d-aam/GitHub/Certificates/contracts/CertificatesPoolManager.sol",
  "compiler": {
    "name": "solc",
    "version": "0.7.6+commit.7338295f.Emscripten.clang"
  },
  "schemaVersion": "3.3.4",
  "updatedAt": "2021-05-20T14:15:40.074Z",
  "devdoc": {
    "kind": "dev",
    "methods": {},
    "version": 1
  },
  "userdoc": {
    "kind": "user",
    "methods": {},
    "version": 1
  }
}