{
  "contractName": "Certificates",
  "abi": [
    {
      "inputs": [
        {
          "internalType": "address[]",
          "name": "owners",
          "type": "address[]"
        }
      ],
      "stateMutability": "payable",
      "type": "constructor"
    },
    {
      "anonymous": false,
      "inputs": [
        {
          "indexed": false,
          "internalType": "uint256",
          "name": "",
          "type": "uint256"
        }
      ],
      "name": "_AddCertificateIdEvent",
      "type": "event"
    },
    {
      "anonymous": false,
      "inputs": [
        {
          "indexed": false,
          "internalType": "uint256",
          "name": "",
          "type": "uint256"
        }
      ],
      "name": "_RemoveCertificateIdEvent",
      "type": "event"
    },
    {
      "inputs": [
        {
          "internalType": "uint256",
          "name": "",
          "type": "uint256"
        }
      ],
      "name": "_Certificates",
      "outputs": [
        {
          "internalType": "address",
          "name": "_provider",
          "type": "address"
        },
        {
          "internalType": "address",
          "name": "_holder",
          "type": "address"
        },
        {
          "internalType": "string",
          "name": "_CertificateContent",
          "type": "string"
        },
        {
          "internalType": "string",
          "name": "_CertificateLocation",
          "type": "string"
        },
        {
          "internalType": "bytes",
          "name": "_CertificateHash",
          "type": "bytes"
        }
      ],
      "stateMutability": "view",
      "type": "function"
    },
    {
      "inputs": [
        {
          "internalType": "address",
          "name": "",
          "type": "address"
        }
      ],
      "name": "_owners",
      "outputs": [
        {
          "internalType": "bool",
          "name": "",
          "type": "bool"
        }
      ],
      "stateMutability": "view",
      "type": "function"
    },
    {
      "inputs": [
        {
          "internalType": "address",
          "name": "",
          "type": "address"
        }
      ],
      "name": "_providers",
      "outputs": [
        {
          "internalType": "bool",
          "name": "_activated",
          "type": "bool"
        },
        {
          "internalType": "string",
          "name": "_providerInfo",
          "type": "string"
        }
      ],
      "stateMutability": "view",
      "type": "function"
    },
    {
      "inputs": [
        {
          "internalType": "address",
          "name": "provider",
          "type": "address"
        },
        {
          "internalType": "string",
          "name": "providerInfo",
          "type": "string"
        }
      ],
      "name": "addProvider",
      "outputs": [],
      "stateMutability": "nonpayable",
      "type": "function"
    },
    {
      "inputs": [
        {
          "internalType": "address",
          "name": "provider",
          "type": "address"
        }
      ],
      "name": "removeProvider",
      "outputs": [],
      "stateMutability": "nonpayable",
      "type": "function"
    },
    {
      "inputs": [
        {
          "internalType": "address",
          "name": "provider",
          "type": "address"
        },
        {
          "internalType": "string",
          "name": "providerInfo",
          "type": "string"
        }
      ],
      "name": "updateProvider",
      "outputs": [],
      "stateMutability": "nonpayable",
      "type": "function"
    },
    {
      "inputs": [
        {
          "internalType": "address",
          "name": "provider",
          "type": "address"
        }
      ],
      "name": "retrieveProvider",
      "outputs": [
        {
          "internalType": "string",
          "name": "",
          "type": "string"
        }
      ],
      "stateMutability": "view",
      "type": "function"
    },
    {
      "inputs": [],
      "name": "retrieveTotalProviders",
      "outputs": [
        {
          "internalType": "uint256",
          "name": "",
          "type": "uint256"
        }
      ],
      "stateMutability": "view",
      "type": "function"
    },
    {
      "inputs": [
        {
          "internalType": "string",
          "name": "CertificateContent",
          "type": "string"
        },
        {
          "internalType": "string",
          "name": "CertificateLocation",
          "type": "string"
        },
        {
          "internalType": "bytes",
          "name": "CertificateHash",
          "type": "bytes"
        },
        {
          "internalType": "address",
          "name": "holder",
          "type": "address"
        }
      ],
      "name": "addCertificate",
      "outputs": [],
      "stateMutability": "nonpayable",
      "type": "function"
    },
    {
      "inputs": [
        {
          "internalType": "uint256",
          "name": "CertificateTokenId",
          "type": "uint256"
        }
      ],
      "name": "removeCertificate",
      "outputs": [],
      "stateMutability": "nonpayable",
      "type": "function"
    },
    {
      "inputs": [
        {
          "internalType": "uint256",
          "name": "CertificateTokenId",
          "type": "uint256"
        },
        {
          "internalType": "string",
          "name": "CertificateContent",
          "type": "string"
        },
        {
          "internalType": "string",
          "name": "CertificateLocation",
          "type": "string"
        },
        {
          "internalType": "bytes",
          "name": "CertificateHash",
          "type": "bytes"
        }
      ],
      "name": "updateCertificate",
      "outputs": [],
      "stateMutability": "nonpayable",
      "type": "function"
    },
    {
      "inputs": [
        {
          "internalType": "uint256",
          "name": "CertificateTokenId",
          "type": "uint256"
        }
      ],
      "name": "retrieveCertificate",
      "outputs": [
        {
          "internalType": "address",
          "name": "",
          "type": "address"
        },
        {
          "internalType": "string",
          "name": "",
          "type": "string"
        },
        {
          "internalType": "string",
          "name": "",
          "type": "string"
        },
        {
          "internalType": "bytes",
          "name": "",
          "type": "bytes"
        },
        {
          "internalType": "address",
          "name": "",
          "type": "address"
        }
      ],
      "stateMutability": "view",
      "type": "function"
    },
    {
      "inputs": [],
      "name": "retrieveTotalCertificate",
      "outputs": [
        {
          "internalType": "uint256",
          "name": "",
          "type": "uint256"
        }
      ],
      "stateMutability": "view",
      "type": "function"
    },
    {
      "inputs": [
        {
          "internalType": "address",
          "name": "owner",
          "type": "address"
        }
      ],
      "name": "addOwner",
      "outputs": [],
      "stateMutability": "nonpayable",
      "type": "function"
    },
    {
      "inputs": [
        {
          "internalType": "address",
          "name": "owner",
          "type": "address"
        }
      ],
      "name": "removeOwner",
      "outputs": [],
      "stateMutability": "nonpayable",
      "type": "function"
    },
    {
      "inputs": [
        {
          "internalType": "address",
          "name": "owner",
          "type": "address"
        }
      ],
      "name": "isOwner",
      "outputs": [
        {
          "internalType": "bool",
          "name": "",
          "type": "bool"
        }
      ],
      "stateMutability": "view",
      "type": "function"
    },
    {
      "inputs": [],
      "name": "retrieveTotalOwners",
      "outputs": [
        {
          "internalType": "uint256",
          "name": "",
          "type": "uint256"
        }
      ],
      "stateMutability": "view",
      "type": "function"
    },
    {
      "inputs": [],
      "name": "retrieveCreator",
      "outputs": [
        {
          "internalType": "address",
          "name": "",
          "type": "address"
        }
      ],
      "stateMutability": "view",
      "type": "function"
    }
  ],
  "bytecode": "0x608060405260405162002e6438038062002e64833981810160405260208110156200002957600080fd5b81019080805160405193929190846401000000008211156200004a57600080fd5b838201915060208201858111156200006157600080fd5b82518660208202830111640100000000821117156200007f57600080fd5b8083526020830192505050908051906020019060200280838360005b83811015620000b85780820151818401526020810190506200009b565b50505050905001604052505050336000806101000a81548173ffffffffffffffffffffffffffffffffffffffff021916908373ffffffffffffffffffffffffffffffffffffffff1602179055506001600360003373ffffffffffffffffffffffffffffffffffffffff1673ffffffffffffffffffffffffffffffffffffffff16815260200190815260200160002060006101000a81548160ff021916908315150217905550600160048190555060005b81518110156200026c57600360008383815181106200018357fe5b602002602001015173ffffffffffffffffffffffffffffffffffffffff1673ffffffffffffffffffffffffffffffffffffffff16815260200190815260200160002060009054906101000a900460ff1615156000151514156200025e57600160036000848481518110620001f357fe5b602002602001015173ffffffffffffffffffffffffffffffffffffffff1673ffffffffffffffffffffffffffffffffffffffff16815260200190815260200160002060006101000a81548160ff02191690831515021790555060016004600082825401925050819055505b808060010191505062000168565b50600060028190555050612bde80620002866000396000f3fe608060405234801561001057600080fd5b50600436106101165760003560e01c806383ce57b3116100a2578063bf3a5c0211610071578063bf3a5c0214610c5f578063d610d85f14610cb9578063d744d2f314610ce7578063eefe768114610d05578063fc00050014610d2357610116565b806383ce57b3146108755780638a355a57146108a95780639f25cd12146108ed578063ad5ed47c14610aa657610116565b806337583499116100e957806337583499146102b257806340f5ba1c1461036f5780637065cb4814610562578063769d7235146105a657806382ff66a31461066c57610116565b80631660c22a1461011b578063173825d9146101f657806317c082541461023a5780632f54bf6e14610258575b600080fd5b6101f46004803603604081101561013157600080fd5b81019080803573ffffffffffffffffffffffffffffffffffffffff1690602001909291908035906020019064010000000081111561016e57600080fd5b82018360208201111561018057600080fd5b803590602001918460018302840111640100000000831117156101a257600080fd5b91908080601f016020809104026020016040519081016040528093929190818152602001838380828437600081840152601f19601f820116905080830192505050505050509192919290505050610dfe565b005b6102386004803603602081101561020c57600080fd5b81019080803573ffffffffffffffffffffffffffffffffffffffff16906020019092919050505061101e565b005b61024261126c565b6040518082815260200191505060405180910390f35b61029a6004803603602081101561026e57600080fd5b81019080803573ffffffffffffffffffffffffffffffffffffffff169060200190929190505050611279565b60405180821515815260200191505060405180910390f35b6102f4600480360360208110156102c857600080fd5b81019080803573ffffffffffffffffffffffffffffffffffffffff1690602001909291905050506112cf565b6040518080602001828103825283818151815260200191508051906020019080838360005b83811015610334578082015181840152602081019050610319565b50505050905090810190601f1680156103615780820380516001836020036101000a031916815260200191505b509250505060405180910390f35b6105606004803603608081101561038557600080fd5b8101908080359060200190929190803590602001906401000000008111156103ac57600080fd5b8201836020820111156103be57600080fd5b803590602001918460018302840111640100000000831117156103e057600080fd5b91908080601f016020809104026020016040519081016040528093929190818152602001838380828437600081840152601f19601f8201169050808301925050505050505091929192908035906020019064010000000081111561044357600080fd5b82018360208201111561045557600080fd5b8035906020019184600183028401116401000000008311171561047757600080fd5b91908080601f016020809104026020016040519081016040528093929190818152602001838380828437600081840152601f19601f820116905080830192505050505050509192919290803590602001906401000000008111156104da57600080fd5b8201836020820111156104ec57600080fd5b8035906020019184600183028401116401000000008311171561050e57600080fd5b91908080601f016020809104026020016040519081016040528093929190818152602001838380828437600081840152601f19601f82011690508083019250505050505050919291929050505061147c565b005b6105a46004803603602081101561057857600080fd5b81019080803573ffffffffffffffffffffffffffffffffffffffff169060200190929190505050611678565b005b6105e8600480360360208110156105bc57600080fd5b81019080803573ffffffffffffffffffffffffffffffffffffffff1690602001909291905050506118c6565b60405180831515815260200180602001828103825283818151815260200191508051906020019080838360005b83811015610630578082015181840152602081019050610615565b50505050905090810190601f16801561065d5780820380516001836020036101000a031916815260200191505b50935050505060405180910390f35b6108736004803603608081101561068257600080fd5b810190808035906020019064010000000081111561069f57600080fd5b8201836020820111156106b157600080fd5b803590602001918460018302840111640100000000831117156106d357600080fd5b91908080601f016020809104026020016040519081016040528093929190818152602001838380828437600081840152601f19601f8201169050808301925050505050505091929192908035906020019064010000000081111561073657600080fd5b82018360208201111561074857600080fd5b8035906020019184600183028401116401000000008311171561076a57600080fd5b91908080601f016020809104026020016040519081016040528093929190818152602001838380828437600081840152601f19601f820116905080830192505050505050509192919290803590602001906401000000008111156107cd57600080fd5b8201836020820111156107df57600080fd5b8035906020019184600183028401116401000000008311171561080157600080fd5b91908080601f016020809104026020016040519081016040528093929190818152602001838380828437600081840152601f19601f820116905080830192505050505050509192919290803573ffffffffffffffffffffffffffffffffffffffff16906020019092919050505061198f565b005b61087d611c85565b604051808273ffffffffffffffffffffffffffffffffffffffff16815260200191505060405180910390f35b6108eb600480360360208110156108bf57600080fd5b81019080803573ffffffffffffffffffffffffffffffffffffffff169060200190929190505050611cae565b005b6109196004803603602081101561090357600080fd5b8101908080359060200190929190505050611ee2565b604051808673ffffffffffffffffffffffffffffffffffffffff1681526020018573ffffffffffffffffffffffffffffffffffffffff168152602001806020018060200180602001848103845287818151815260200191508051906020019080838360005b8381101561099957808201518184015260208101905061097e565b50505050905090810190601f1680156109c65780820380516001836020036101000a031916815260200191505b50848103835286818151815260200191508051906020019080838360005b838110156109ff5780820151818401526020810190506109e4565b50505050905090810190601f168015610a2c5780820380516001836020036101000a031916815260200191505b50848103825285818151815260200191508051906020019080838360005b83811015610a65578082015181840152602081019050610a4a565b50505050905090810190601f168015610a925780820380516001836020036101000a031916815260200191505b509850505050505050505060405180910390f35b610ad260048036036020811015610abc57600080fd5b8101908080359060200190929190505050612130565b604051808673ffffffffffffffffffffffffffffffffffffffff1681526020018060200180602001806020018573ffffffffffffffffffffffffffffffffffffffff168152602001848103845288818151815260200191508051906020019080838360005b83811015610b52578082015181840152602081019050610b37565b50505050905090810190601f168015610b7f5780820380516001836020036101000a031916815260200191505b50848103835287818151815260200191508051906020019080838360005b83811015610bb8578082015181840152602081019050610b9d565b50505050905090810190601f168015610be55780820380516001836020036101000a031916815260200191505b50848103825286818151815260200191508051906020019080838360005b83811015610c1e578082015181840152602081019050610c03565b50505050905090810190601f168015610c4b5780820380516001836020036101000a031916815260200191505b509850505050505050505060405180910390f35b610ca160048036036020811015610c7557600080fd5b81019080803573ffffffffffffffffffffffffffffffffffffffff169060200190929190505050612472565b60405180821515815260200191505060405180910390f35b610ce560048036036020811015610ccf57600080fd5b8101908080359060200190929190505050612492565b005b610cef612719565b6040518082815260200191505060405180910390f35b610d0d612723565b6040518082815260200191505060405180910390f35b610dfc60048036036040811015610d3957600080fd5b81019080803573ffffffffffffffffffffffffffffffffffffffff16906020019092919080359060200190640100000000811115610d7657600080fd5b820183602082011115610d8857600080fd5b80359060200191846001830284011164010000000083111715610daa57600080fd5b91908080601f016020809104026020016040519081016040528093929190818152602001838380828437600081840152601f19601f82011690508083019250505050505050919291929050505061272d565b005b600360003373ffffffffffffffffffffffffffffffffffffffff1673ffffffffffffffffffffffffffffffffffffffff16815260200190815260200160002060009054906101000a900460ff161515600115151480610e8857508173ffffffffffffffffffffffffffffffffffffffff163373ffffffffffffffffffffffffffffffffffffffff16145b610efa576040517f08c379a000000000000000000000000000000000000000000000000000000000815260040180806020018281038252601f8152602001807f4e6f7420616c6c6f77656420746f207570646174652070726f7669646572730081525060200191505060405180910390fd5b600160008373ffffffffffffffffffffffffffffffffffffffff1673ffffffffffffffffffffffffffffffffffffffff16815260200190815260200160002060000160009054906101000a900460ff1615156001151514610fc3576040517f08c379a00000000000000000000000000000000000000000000000000000000081526004018080602001828103825260168152602001807f50726f7669646572206e6f74206163746976617465640000000000000000000081525060200191505060405180910390fd5b80600160008473ffffffffffffffffffffffffffffffffffffffff1673ffffffffffffffffffffffffffffffffffffffff168152602001908152602001600020600101908051906020019061101992919061297d565b505050565b600360003373ffffffffffffffffffffffffffffffffffffffff1673ffffffffffffffffffffffffffffffffffffffff16815260200190815260200160002060009054906101000a900460ff1615156001151514806110c8575060008054906101000a900473ffffffffffffffffffffffffffffffffffffffff1673ffffffffffffffffffffffffffffffffffffffff163373ffffffffffffffffffffffffffffffffffffffff16145b61113a576040517f08c379a000000000000000000000000000000000000000000000000000000000815260040180806020018281038252601c8152602001807f4e6f7420616c6c6f77656420746f2072656d6f7665206f776e6572730000000081525060200191505060405180910390fd5b600360008273ffffffffffffffffffffffffffffffffffffffff1673ffffffffffffffffffffffffffffffffffffffff16815260200190815260200160002060009054906101000a900460ff1615156001151514611200576040517f08c379a000000000000000000000000000000000000000000000000000000000815260040180806020018281038252601a8152602001807f4f776e657220616c72656164792064652d61637469766174656400000000000081525060200191505060405180910390fd5b6000600360008373ffffffffffffffffffffffffffffffffffffffff1673ffffffffffffffffffffffffffffffffffffffff16815260200190815260200160002060006101000a81548160ff021916908315150217905550600160046000828254039250508190555050565b6000600580549050905090565b6000600360008373ffffffffffffffffffffffffffffffffffffffff1673ffffffffffffffffffffffffffffffffffffffff16815260200190815260200160002060009054906101000a900460ff169050919050565b6060600160008373ffffffffffffffffffffffffffffffffffffffff1673ffffffffffffffffffffffffffffffffffffffff16815260200190815260200160002060000160009054906101000a900460ff161515600115151461139a576040517f08c379a00000000000000000000000000000000000000000000000000000000081526004018080602001828103825260178152602001807f50726f766964657220646f6573206e6f7420657869737400000000000000000081525060200191505060405180910390fd5b600160008373ffffffffffffffffffffffffffffffffffffffff1673ffffffffffffffffffffffffffffffffffffffff1681526020019081526020016000206001018054600181600116156101000203166002900480601f0160208091040260200160405190810160405280929190818152602001828054600181600116156101000203166002900480156114705780601f1061144557610100808354040283529160200191611470565b820191906000526020600020905b81548152906001019060200180831161145357829003601f168201915b50505050509050919050565b60058054905084106114f6576040517f08c379a000000000000000000000000000000000000000000000000000000000815260040180806020018281038252601a8152602001807f436572746966696361746520646f6573206e6f7420657869737400000000000081525060200191505060405180910390fd5b6005848154811061150357fe5b906000526020600020906005020160000160009054906101000a900473ffffffffffffffffffffffffffffffffffffffff1673ffffffffffffffffffffffffffffffffffffffff163373ffffffffffffffffffffffffffffffffffffffff16146115b8576040517f08c379a0000000000000000000000000000000000000000000000000000000008152600401808060200182810382526031815260200180612b476031913960400191505060405180910390fd5b8251600010156115f65782600585815481106115d057fe5b906000526020600020906005020160020190805190602001906115f492919061297d565b505b81516000101561163457816005858154811061160e57fe5b9060005260206000209060050201600301908051906020019061163292919061297d565b505b80516000101561167257806005858154811061164c57fe5b90600052602060002090600502016004019080519060200190611670929190612a0b565b505b50505050565b600360003373ffffffffffffffffffffffffffffffffffffffff1673ffffffffffffffffffffffffffffffffffffffff16815260200190815260200160002060009054906101000a900460ff161515600115151480611722575060008054906101000a900473ffffffffffffffffffffffffffffffffffffffff1673ffffffffffffffffffffffffffffffffffffffff163373ffffffffffffffffffffffffffffffffffffffff16145b611794576040517f08c379a00000000000000000000000000000000000000000000000000000000081526004018080602001828103825260198152602001807f4e6f7420616c6c6f77656420746f20616464206f776e6572730000000000000081525060200191505060405180910390fd5b600360008273ffffffffffffffffffffffffffffffffffffffff1673ffffffffffffffffffffffffffffffffffffffff16815260200190815260200160002060009054906101000a900460ff161515600015151461185a576040517f08c379a00000000000000000000000000000000000000000000000000000000081526004018080602001828103825260178152602001807f4f776e657220616c72656164792061637469766174656400000000000000000081525060200191505060405180910390fd5b6001600360008373ffffffffffffffffffffffffffffffffffffffff1673ffffffffffffffffffffffffffffffffffffffff16815260200190815260200160002060006101000a81548160ff021916908315150217905550600160046000828254019250508190555050565b60016020528060005260406000206000915090508060000160009054906101000a900460ff1690806001018054600181600116156101000203166002900480601f0160208091040260200160405190810160405280929190818152602001828054600181600116156101000203166002900480156119855780601f1061195a57610100808354040283529160200191611985565b820191906000526020600020905b81548152906001019060200180831161196857829003601f168201915b5050505050905082565b600160003373ffffffffffffffffffffffffffffffffffffffff1673ffffffffffffffffffffffffffffffffffffffff16815260200190815260200160002060000160009054906101000a900460ff1615156001151514611a58576040517f08c379a000000000000000000000000000000000000000000000000000000000815260040180806020018281038252601f8152602001807f4e6f7420616c6c6f77656420746f20616464204365727469666963617465730081525060200191505060405180910390fd5b825160001080611a69575083516000105b611adb576040517f08c379a00000000000000000000000000000000000000000000000000000000081526004018080602001828103825260148152602001807f436572746966696361746520697320656d70747900000000000000000000000081525060200191505060405180910390fd5b60056040518060a001604052803373ffffffffffffffffffffffffffffffffffffffff1681526020018373ffffffffffffffffffffffffffffffffffffffff16815260200186815260200185815260200184815250908060018154018082558091505060019003906000526020600020906005020160009091909190915060008201518160000160006101000a81548173ffffffffffffffffffffffffffffffffffffffff021916908373ffffffffffffffffffffffffffffffffffffffff16021790555060208201518160010160006101000a81548173ffffffffffffffffffffffffffffffffffffffff021916908373ffffffffffffffffffffffffffffffffffffffff1602179055506040820151816002019080519060200190611c0392919061297d565b506060820151816003019080519060200190611c2092919061297d565b506080820151816004019080519060200190611c3d929190612a0b565b5050507f3655e56e3669f4614d8cfd5029c10b6d2663b311c59c1d87d91ceccb3d828a436001600580549050036040518082815260200191505060405180910390a150505050565b60008060009054906101000a900473ffffffffffffffffffffffffffffffffffffffff16905090565b600360003373ffffffffffffffffffffffffffffffffffffffff1673ffffffffffffffffffffffffffffffffffffffff16815260200190815260200160002060009054906101000a900460ff161515600115151480611d3857508073ffffffffffffffffffffffffffffffffffffffff163373ffffffffffffffffffffffffffffffffffffffff16145b611daa576040517f08c379a000000000000000000000000000000000000000000000000000000000815260040180806020018281038252601f8152602001807f4e6f7420616c6c6f77656420746f2072656d6f76652070726f7669646572730081525060200191505060405180910390fd5b600160008273ffffffffffffffffffffffffffffffffffffffff1673ffffffffffffffffffffffffffffffffffffffff16815260200190815260200160002060000160009054906101000a900460ff1615156001151514611e73576040517f08c379a00000000000000000000000000000000000000000000000000000000081526004018080602001828103825260168152602001807f50726f7669646572206e6f74206163746976617465640000000000000000000081525060200191505060405180910390fd5b6000600160008373ffffffffffffffffffffffffffffffffffffffff1673ffffffffffffffffffffffffffffffffffffffff16815260200190815260200160002060000160006101000a81548160ff021916908315150217905550600160026000828254039250508190555050565b60058181548110611ef257600080fd5b90600052602060002090600502016000915090508060000160009054906101000a900473ffffffffffffffffffffffffffffffffffffffff16908060010160009054906101000a900473ffffffffffffffffffffffffffffffffffffffff1690806002018054600181600116156101000203166002900480601f016020809104026020016040519081016040528092919081815260200182805460018160011615610100020316600290048015611fea5780601f10611fbf57610100808354040283529160200191611fea565b820191906000526020600020905b815481529060010190602001808311611fcd57829003601f168201915b505050505090806003018054600181600116156101000203166002900480601f0160208091040260200160405190810160405280929190818152602001828054600181600116156101000203166002900480156120885780601f1061205d57610100808354040283529160200191612088565b820191906000526020600020905b81548152906001019060200180831161206b57829003601f168201915b505050505090806004018054600181600116156101000203166002900480601f0160208091040260200160405190810160405280929190818152602001828054600181600116156101000203166002900480156121265780601f106120fb57610100808354040283529160200191612126565b820191906000526020600020905b81548152906001019060200180831161210957829003601f168201915b5050505050905085565b60006060806060600060058054905086106121b3576040517f08c379a000000000000000000000000000000000000000000000000000000000815260040180806020018281038252601a8152602001807f436572746966696361746520646f6573206e6f7420657869737400000000000081525060200191505060405180910390fd5b600586815481106121c057fe5b906000526020600020906005020160000160009054906101000a900473ffffffffffffffffffffffffffffffffffffffff16600587815481106121ff57fe5b90600052602060002090600502016002016005888154811061221d57fe5b90600052602060002090600502016003016005898154811061223b57fe5b906000526020600020906005020160040160058a8154811061225957fe5b906000526020600020906005020160010160009054906101000a900473ffffffffffffffffffffffffffffffffffffffff16838054600181600116156101000203166002900480601f0160208091040260200160405190810160405280929190818152602001828054600181600116156101000203166002900480156123205780601f106122f557610100808354040283529160200191612320565b820191906000526020600020905b81548152906001019060200180831161230357829003601f168201915b50505050509350828054600181600116156101000203166002900480601f0160208091040260200160405190810160405280929190818152602001828054600181600116156101000203166002900480156123bc5780601f10612391576101008083540402835291602001916123bc565b820191906000526020600020905b81548152906001019060200180831161239f57829003601f168201915b50505050509250818054600181600116156101000203166002900480601f0160208091040260200160405190810160405280929190818152602001828054600181600116156101000203166002900480156124585780601f1061242d57610100808354040283529160200191612458565b820191906000526020600020905b81548152906001019060200180831161243b57829003601f168201915b505050505091509450945094509450945091939590929450565b60036020528060005260406000206000915054906101000a900460ff1681565b60011515600015151461250d576040517f08c379a000000000000000000000000000000000000000000000000000000000815260040180806020018281038252601a8152602001807f436572746966696361746520646f6573206e6f7420657869737400000000000081525060200191505060405180910390fd5b6005818154811061251a57fe5b906000526020600020906005020160000160009054906101000a900473ffffffffffffffffffffffffffffffffffffffff1673ffffffffffffffffffffffffffffffffffffffff163373ffffffffffffffffffffffffffffffffffffffff1614806125ee57506005818154811061258d57fe5b906000526020600020906005020160010160009054906101000a900473ffffffffffffffffffffffffffffffffffffffff1673ffffffffffffffffffffffffffffffffffffffff163373ffffffffffffffffffffffffffffffffffffffff16145b612643576040517f08c379a0000000000000000000000000000000000000000000000000000000008152600401808060200182810382526031815260200180612b786031913960400191505060405180910390fd5b6005818154811061265057fe5b9060005260206000209060050201600080820160006101000a81549073ffffffffffffffffffffffffffffffffffffffff02191690556001820160006101000a81549073ffffffffffffffffffffffffffffffffffffffff02191690556002820160006126bd9190612a99565b6003820160006126cd9190612a99565b6004820160006126dd9190612ae1565b50507f0a69af840695895637403a8bde44351000fa6af570e3de0766c31bc9cf515f25816040518082815260200191505060405180910390a150565b6000600254905090565b6000600454905090565b60008054906101000a900473ffffffffffffffffffffffffffffffffffffffff1673ffffffffffffffffffffffffffffffffffffffff163373ffffffffffffffffffffffffffffffffffffffff16146127ee576040517f08c379a000000000000000000000000000000000000000000000000000000000815260040180806020018281038252601c8152602001807f4e6f7420616c6c6f77656420746f206164642070726f7669646572730000000081525060200191505060405180910390fd5b600160008373ffffffffffffffffffffffffffffffffffffffff1673ffffffffffffffffffffffffffffffffffffffff16815260200190815260200160002060000160009054906101000a900460ff16151560001515146128b7576040517f08c379a000000000000000000000000000000000000000000000000000000000815260040180806020018281038252601a8152602001807f50726f766964657220616c72656164792061637469766174656400000000000081525060200191505060405180910390fd5b80600160008473ffffffffffffffffffffffffffffffffffffffff1673ffffffffffffffffffffffffffffffffffffffff168152602001908152602001600020600101908051906020019061290d92919061297d565b5060018060008473ffffffffffffffffffffffffffffffffffffffff1673ffffffffffffffffffffffffffffffffffffffff16815260200190815260200160002060000160006101000a81548160ff02191690831515021790555060016002600082825401925050819055505050565b828054600181600116156101000203166002900490600052602060002090601f0160209004810192826129b357600085556129fa565b82601f106129cc57805160ff19168380011785556129fa565b828001600101855582156129fa579182015b828111156129f95782518255916020019190600101906129de565b5b509050612a079190612b29565b5090565b828054600181600116156101000203166002900490600052602060002090601f016020900481019282612a415760008555612a88565b82601f10612a5a57805160ff1916838001178555612a88565b82800160010185558215612a88579182015b82811115612a87578251825591602001919060010190612a6c565b5b509050612a959190612b29565b5090565b50805460018160011615610100020316600290046000825580601f10612abf5750612ade565b601f016020900490600052602060002090810190612add9190612b29565b5b50565b50805460018160011615610100020316600290046000825580601f10612b075750612b26565b601f016020900490600052602060002090810190612b259190612b29565b5b50565b5b80821115612b42576000816000905550600101612b2a565b509056fe4e6f7420616c6c6f77656420746f20757064617465207468697320706172746963756c61722043657274696669636174654e6f7420616c6c6f77656420746f2072656d6f7665207468697320706172746963756c6172204365727469666963617465a2646970667358221220de25e552f14a59adf8e551a9d7c60cf9e2f291e1792b727cb6097bf85199296064736f6c63430007060033",
  "immutableReferences": {},
  "source": "// SPDX-License-Identifier: GPL-3.0\r\n\r\npragma solidity >=0.7.0 <0.9.0;\r\n\r\n/**\r\n * @title Storage\r\n * @dev Store & retrieve value in a variable\r\n */\r\n\r\n/* \r\n Actors : Creator, Owners, Providers, Holders\r\n Token : Certificates\r\n\r\n 1- Creator (an owner himslef) add Providers and manage Owners (both as creator and owner).\r\n 2- Owners manage any owner and any Provider\r\n 3- Providers manage only themselves and their own Certificates\r\n 4- Holders can remove their own Certificates\r\n\r\n Providers lifecycle\r\n    Provider Creation : Only creator (proposal contract)\r\n    Provider Update : Any Owner or Provider himself\r\n    Provider Remove : Any Owner or Provider himself\r\n\r\n Certificates lifecycle\r\n    Certificate Creation : Any Provider\r\n    Certificate Update : Only Provider that created Certificate\r\n    Certificate Remove : Only Provider that created Certificate or Holder himself    \r\n\r\n Owners lifecycle\r\n    Owner Creation : Any Owner or Creator\r\n    Owner Remove : Any Owner or Creator\r\n */\r\n\r\ncontract Certificates {\r\n    \r\n    event _AddCertificateIdEvent(uint256);\r\n    event _RemoveCertificateIdEvent(uint256);\r\n    \r\n    struct _CertificateToken{\r\n        address _provider;\r\n        address _holder;\r\n        string _CertificateContent;\r\n        string _CertificateLocation;\r\n        bytes _CertificateHash;\r\n    }\r\n    \r\n    struct _providerIdentity{\r\n        bool _activated;\r\n        string _providerInfo;\r\n    }\r\n\r\n    // Contract Creator\r\n    address _creator;\r\n    // list and number of providers\r\n    mapping(address => _providerIdentity) public _providers;\r\n    uint256 _numberOfProviders;\r\n    // list and number of owners\r\n    mapping(address => bool) public _owners;\r\n    uint256 _numberOfOwners;\r\n    // list of Certificates\r\n    _CertificateToken[] public _Certificates;\r\n\r\n    constructor(address[] memory owners) payable{\r\n        _creator = msg.sender;\r\n        _owners[msg.sender] = true;\r\n        _numberOfOwners = 1;\r\n        for (uint i=0; i<owners.length; i++) {\r\n            if(false == _owners[owners[i]]){\r\n                _owners[owners[i]] = true;\r\n                _numberOfOwners += 1;\r\n            }\r\n            \r\n        }\r\n        _numberOfProviders = 0;\r\n    }\r\n    \r\n    // PROVIDERS CRUD Operations\r\n\r\n    function addProvider(address provider, string memory providerInfo) public {\r\n       require(msg.sender == _creator, \"Not allowed to add providers\");\r\n       require(false == _providers[provider]._activated, \"Provider already activated\") ;\r\n\r\n       _providers[provider]._providerInfo = providerInfo;\r\n       _providers[provider]._activated = true;\r\n       _numberOfProviders += 1;\r\n    }\r\n    \r\n    function removeProvider(address provider) public {\r\n       require(true == _owners[msg.sender] || msg.sender == provider, \"Not allowed to remove providers\");\r\n       require(true == _providers[provider]._activated, \"Provider not activated\");\r\n\r\n       _providers[provider]._activated = false;\r\n       _numberOfProviders -= 1;\r\n    }\r\n    \r\n    function updateProvider(address provider, string memory providerInfo) public {\r\n       require(true == _owners[msg.sender] || msg.sender == provider, \"Not allowed to update providers\");\r\n       require(true == _providers[provider]._activated, \"Provider not activated\") ;\r\n\r\n       _providers[provider]._providerInfo = providerInfo;\r\n    }\r\n    \r\n    function retrieveProvider(address provider) public view returns (string memory){\r\n        require(true == _providers[provider]._activated, \"Provider does not exist\");\r\n\r\n        return _providers[provider]._providerInfo;\r\n    }\r\n    \r\n    function retrieveTotalProviders() public view returns (uint){\r\n        return (_numberOfProviders);\r\n    }\r\n    \r\n    // Certificats CRUD Operations\r\n\r\n    function addCertificate(string memory CertificateContent, string memory CertificateLocation, bytes memory CertificateHash, address holder) public {\r\n       require(true == _providers[msg.sender]._activated, \"Not allowed to add Certificates\");\r\n       require(0 < bytes(CertificateLocation).length || 0 < bytes(CertificateContent).length, \"Certificate is empty\");\r\n\r\n       _Certificates.push(_CertificateToken(msg.sender, holder, CertificateContent, CertificateLocation, CertificateHash));\r\n       emit _AddCertificateIdEvent(_Certificates.length - 1);\r\n    }\r\n    \r\n    function removeCertificate(uint256 CertificateTokenId) public {\r\n       require(false == true, \"Certificate does not exist\");\r\n       require(msg.sender == _Certificates[CertificateTokenId]._provider || msg.sender == _Certificates[CertificateTokenId]._holder, \"Not allowed to remove this particular Certificate\");\r\n\r\n       delete _Certificates[CertificateTokenId];\r\n       emit _RemoveCertificateIdEvent(CertificateTokenId);\r\n    }\r\n    \r\n    function updateCertificate(uint256 CertificateTokenId, string memory CertificateContent, string memory CertificateLocation, bytes memory CertificateHash) public {\r\n       require(CertificateTokenId < _Certificates.length, \"Certificate does not exist\");\r\n       require(msg.sender == _Certificates[CertificateTokenId]._provider, \"Not allowed to update this particular Certificate\");\r\n\r\n       if(0 < bytes(CertificateContent).length)  _Certificates[CertificateTokenId]._CertificateContent = CertificateContent;\r\n       if(0 < bytes(CertificateLocation).length)  _Certificates[CertificateTokenId]._CertificateLocation = CertificateLocation;\r\n       if(0 < bytes(CertificateHash).length)  _Certificates[CertificateTokenId]._CertificateHash = CertificateHash;\r\n    }\r\n\r\n    function retrieveCertificate(uint256 CertificateTokenId) public view returns (address, string memory, string memory, bytes memory, address){\r\n        require(CertificateTokenId < _Certificates.length, \"Certificate does not exist\");\r\n\r\n        return (_Certificates[CertificateTokenId]._provider, \r\n            _Certificates[CertificateTokenId]._CertificateContent,\r\n            _Certificates[CertificateTokenId]._CertificateLocation,\r\n            _Certificates[CertificateTokenId]._CertificateHash,\r\n            _Certificates[CertificateTokenId]._holder);\r\n    }\r\n    \r\n    function retrieveTotalCertificate() public view returns (uint){\r\n        return (_Certificates.length);\r\n    }\r\n\r\n    // OWNERS CRD Operations\r\n\r\n    function addOwner(address owner) public {\r\n       require(true == _owners[msg.sender] || msg.sender == _creator, \"Not allowed to add owners\");\r\n       require(false == _owners[owner], \"Owner already activated\");\r\n\r\n       _owners[owner] = true;\r\n       _numberOfOwners += 1;\r\n    }\r\n    \r\n    function removeOwner(address owner) public {\r\n       require(true == _owners[msg.sender]  || msg.sender == _creator, \"Not allowed to remove owners\");\r\n       require(true == _owners[owner], \"Owner already de-activated\");\r\n\r\n       _owners[owner] = false;\r\n        _numberOfOwners -= 1;\r\n    }\r\n\r\n    function isOwner(address owner) public view returns (bool){\r\n        return(_owners[owner]);\r\n    }\r\n \r\n    function retrieveTotalOwners() public view returns (uint){\r\n        return (_numberOfOwners);\r\n    }\r\n\r\n     function retrieveCreator() public view returns (address){\r\n        return (_creator);\r\n    }\r\n\r\n}",
  "sourcePath": "C:/Users/d-aam/GitHub/Certificates/contracts/Certificates.sol",
  "compiler": {
    "name": "solc",
    "version": "0.7.6+commit.7338295f.Emscripten.clang"
  },
  "schemaVersion": "3.3.4",
  "updatedAt": "2021-04-28T11:20:14.285Z",
  "devdoc": {
    "details": "Store & retrieve value in a variable",
    "kind": "dev",
    "methods": {},
    "title": "Storage",
    "version": 1
  },
  "userdoc": {
    "kind": "user",
    "methods": {},
    "version": 1
  }
}