{
  "contractName": "CertificatesPoolManager",
  "abi": [
    {
      "inputs": [
        {
          "internalType": "uint256",
          "name": "PropositionLifeTime",
          "type": "uint256"
        },
        {
          "internalType": "uint8",
          "name": "PropositionThresholdPercentage",
          "type": "uint8"
        },
        {
          "internalType": "uint8",
          "name": "minWeightToProposePercentage",
          "type": "uint8"
        }
      ],
      "stateMutability": "nonpayable",
      "type": "constructor"
    },
    {
      "inputs": [],
      "name": "cancelProposition",
      "outputs": [],
      "stateMutability": "nonpayable",
      "type": "function"
    },
    {
      "inputs": [],
      "name": "retrievePropConfig",
      "outputs": [
        {
          "internalType": "uint256",
          "name": "",
          "type": "uint256"
        },
        {
          "internalType": "uint8",
          "name": "",
          "type": "uint8"
        },
        {
          "internalType": "uint8",
          "name": "",
          "type": "uint8"
        }
      ],
      "stateMutability": "view",
      "type": "function"
    },
    {
      "inputs": [],
      "name": "retrievePropositionStatus",
      "outputs": [
        {
          "internalType": "address",
          "name": "",
          "type": "address"
        },
        {
          "internalType": "uint256",
          "name": "",
          "type": "uint256"
        },
        {
          "internalType": "uint256",
          "name": "",
          "type": "uint256"
        },
        {
          "internalType": "uint256",
          "name": "",
          "type": "uint256"
        },
        {
          "internalType": "uint256",
          "name": "",
          "type": "uint256"
        },
        {
          "internalType": "address[]",
          "name": "",
          "type": "address[]"
        },
        {
          "internalType": "uint256[]",
          "name": "",
          "type": "uint256[]"
        },
        {
          "internalType": "address[]",
          "name": "",
          "type": "address[]"
        }
      ],
      "stateMutability": "view",
      "type": "function"
    },
    {
      "inputs": [
        {
          "internalType": "uint256",
          "name": "PropLifeTime",
          "type": "uint256"
        },
        {
          "internalType": "uint8",
          "name": "PropThresholdPerc",
          "type": "uint8"
        },
        {
          "internalType": "uint8",
          "name": "minWeightToPropPerc",
          "type": "uint8"
        }
      ],
      "name": "updateProp",
      "outputs": [],
      "stateMutability": "nonpayable",
      "type": "function"
    },
    {
      "inputs": [
        {
          "internalType": "bool",
          "name": "vote",
          "type": "bool"
        }
      ],
      "name": "voteProposition",
      "outputs": [],
      "stateMutability": "nonpayable",
      "type": "function"
    },
    {
      "inputs": [
        {
          "internalType": "address payable",
          "name": "PublicPoolProxyAddress",
          "type": "address"
        },
        {
          "internalType": "address payable",
          "name": "TreasuryProxyAddress",
          "type": "address"
        },
        {
          "internalType": "address payable",
          "name": "CertisTokenProxyAddress",
          "type": "address"
        },
        {
          "internalType": "address payable",
          "name": "PrivatePoolGeneratorProxyAddress",
          "type": "address"
        }
      ],
      "name": "Initialize",
      "outputs": [],
      "stateMutability": "nonpayable",
      "type": "function"
    },
    {
      "inputs": [
        {
          "internalType": "address",
          "name": "PublicPoolAddress",
          "type": "address"
        },
        {
          "internalType": "address",
          "name": "TreasuryAddress",
          "type": "address"
        },
        {
          "internalType": "address",
          "name": "CertisTokenAddress",
          "type": "address"
        },
        {
          "internalType": "address",
          "name": "PrivatePoolGeneratorAddress",
          "type": "address"
        }
      ],
      "name": "updateContracts",
      "outputs": [],
      "stateMutability": "nonpayable",
      "type": "function"
    },
    {
      "inputs": [],
      "name": "retrieveProposition",
      "outputs": [
        {
          "internalType": "string[]",
          "name": "",
          "type": "string[]"
        }
      ],
      "stateMutability": "view",
      "type": "function"
    },
    {
      "inputs": [],
      "name": "retrieveConfiguration",
      "outputs": [
        {
          "internalType": "address",
          "name": "",
          "type": "address"
        },
        {
          "internalType": "address",
          "name": "",
          "type": "address"
        },
        {
          "internalType": "address",
          "name": "",
          "type": "address"
        },
        {
          "internalType": "address",
          "name": "",
          "type": "address"
        },
        {
          "internalType": "address",
          "name": "",
          "type": "address"
        },
        {
          "internalType": "uint256",
          "name": "",
          "type": "uint256"
        }
      ],
      "stateMutability": "view",
      "type": "function"
    }
  ],
  "bytecode": "0x60806040523480156200001157600080fd5b506040516200269638038062002696833981016040819052620000349162000911565b600080546001600160a01b0319163317905582828262000058838383600162000072565b50506015805460ff60a01b191690555062000ac992505050565b82828160ff1660641015620000a45760405162461bcd60e51b81526004016200009b90620009b0565b60405180910390fd5b8060ff1660641015620000cb5760405162461bcd60e51b81526004016200009b90620009b0565b8215620000f857600a869055600b805460ff8681166101000261ffff199092169088161717905562000145565b600c869055600d805460ff8681166101000261ffff1990921690881617179055600e805460ff19166001179055600a54620001459062000139904262000a27565b600b5460ff166200014d565b505050505050565b600062000159620002cd565b15620001915760405162461bcd60e51b81526004016200009b906020808252600490820152631150cc8d60e21b604082015260600190565b6200019c336200030d565b1515600114620001d85760405162461bcd60e51b81526004016200009b9060208082526004908201526322a1991960e11b604082015260600190565b620001e2620003cd565b8051620001f891600791602090910190620006a5565b50600754620002655760405162461bcd60e51b815260206004820152603260248201527f496d706f737369626c6520746f206164642070726f706f736974696f6e2c20746044820152716865726520617265206e6f2061646d696e7360701b60648201526084016200009b565b600280546001600160a01b031916331790556003839055606460ff83166200028c62000466565b62000298919062000a65565b620002a4919062000a42565b600455620002b1620004ec565b8051620002c7916008916020909101906200070f565b50505050565b600354600090421015620002e15750600190565b6002546001600160a01b0316156200030757620002fd62000585565b62000307620005b9565b50600090565b600080546001600160a01b03163314156200032a57506001919050565b600062000336620003cd565b9050600062000344620004ec565b9050600062000354858462000610565b90508251811015620003bd5760646200036c62000466565b600b54620003839190610100900460ff1662000a65565b6200038f919062000a42565b828281518110620003a457620003a462000a9d565b602002602001015110620003bd57506001949350505050565b506000949350505050565b919050565b60606000600160009054906101000a90046001600160a01b03166001600160a01b03166388d44ee06040518163ffffffff1660e01b815260040160006040518083038186803b1580156200042057600080fd5b505afa15801562000435573d6000803e3d6000fd5b505050506040513d6000823e601f3d908101601f191682016040526200045f919081019062000813565b5092915050565b600154604080516318160ddd60e01b815290516000926001600160a01b0316916318160ddd916004808301926020929190829003018186803b158015620004ac57600080fd5b505afa158015620004c1573d6000803e3d6000fd5b505050506040513d601f19601f82011682018060405250810190620004e79190620008f7565b905090565b60606000600160009054906101000a90046001600160a01b03166001600160a01b03166388d44ee06040518163ffffffff1660e01b815260040160006040518083038186803b1580156200053f57600080fd5b505afa15801562000554573d6000803e3d6000fd5b505050506040513d6000823e601f3d908101601f191682016040526200057e919081019062000813565b9392505050565b620005b7600f80546001600160a01b031990811690915560108054821690556011805482169055601280549091169055565b565b600280546001600160a01b031916815560006003819055600481905560058190556006819055620005ec6007826200074d565b620005fc6006830160006200074d565b6200060c6007830160006200074d565b5050565b60405160016219125f60e01b0319815260009073__AddressLibrary________________________9063ffe6eda19062000651908690869060040162000952565b60206040518083038186803b1580156200066a57600080fd5b505af41580156200067f573d6000803e3d6000fd5b505050506040513d601f19601f820116820180604052508101906200057e9190620008f7565b828054828255906000526020600020908101928215620006fd579160200282015b82811115620006fd57825182546001600160a01b0319166001600160a01b03909116178255602090920191600190910190620006c6565b506200070b92915062000770565b5090565b828054828255906000526020600020908101928215620006fd579160200282015b82811115620006fd57825182559160200191906001019062000730565b50805460008255906000526020600020908101906200076d919062000770565b50565b5b808211156200070b576000815560010162000771565b600082601f8301126200079957600080fd5b81516020620007b2620007ac8362000a01565b620009ce565b80838252828201915082860187848660051b8901011115620007d357600080fd5b60005b85811015620007f457815184529284019290840190600101620007d6565b5090979650505050505050565b805160ff81168114620003c857600080fd5b600080604083850312156200082757600080fd5b82516001600160401b03808211156200083f57600080fd5b818501915085601f8301126200085457600080fd5b8151602062000867620007ac8362000a01565b8083825282820191508286018a848660051b89010111156200088857600080fd5b600096505b84871015620008c35780516001600160a01b0381168114620008ae57600080fd5b8352600196909601959183019183016200088d565b5091880151919650909350505080821115620008de57600080fd5b50620008ed8582860162000787565b9150509250929050565b6000602082840312156200090a57600080fd5b5051919050565b6000806000606084860312156200092757600080fd5b83519250620009396020850162000801565b9150620009496040850162000801565b90509250925092565b6001600160a01b038381168252604060208084018290528451918401829052600092858201929091906060860190855b81811015620009a257855185168352948301949183019160010162000982565b509098975050505050505050565b6020808252600490820152634543323160e01b604082015260600190565b604051601f8201601f191681016001600160401b0381118282101715620009f957620009f962000ab3565b604052919050565b60006001600160401b0382111562000a1d5762000a1d62000ab3565b5060051b60200190565b6000821982111562000a3d5762000a3d62000a87565b500190565b60008262000a6057634e487b7160e01b600052601260045260246000fd5b500490565b600081600019048311821515161562000a825762000a8262000a87565b500290565b634e487b7160e01b600052601160045260246000fd5b634e487b7160e01b600052603260045260246000fd5b634e487b7160e01b600052604160045260246000fd5b611bbd8062000ad96000396000f3fe608060405234801561001057600080fd5b50600436106100835760003560e01c80630b75127914610088578063420f11aa1461009d57806355457ee9146100b0578063840f6d17146100b857806391f91671146100dd578063a4a78896146100f0578063a93316f514610140578063ac2bb44214610155578063d660ab3414610168575b600080fd5b61009b610096366004611577565b610194565b005b61009b6100ab366004611577565b610200565b61009b610371565b6100c06103d1565b6040516100d49897969594939291906118e1565b60405180910390f35b61009b6100eb36600461169e565b610541565b601454601554600154601354600054604080516001600160a01b039687168152948616602086015292851692840192909252831660608301529190911660808201524760a082015260c0016100d4565b6101486107e0565b6040516100d49190611976565b61009b610163366004611784565b610aea565b600a54600b546040805192835260ff8083166020850152610100909204909116908201526060016100d4565b600f80546001600160a01b038087166001600160a01b03199283161790925560108054868416908316179055601180548584169083161790556012805492841692909116919091179055600a546101fa906101ef9042611a9d565b600b5460ff16610afc565b50505050565b600054604051630d1d719d60e41b815273__Library_______________________________9163d1d719d091610242916001600160a01b031690600401611820565b60206040518083038186803b15801561025a57600080fd5b505af415801561026e573d6000803e3d6000fd5b505050506040513d601f19601f8201168201806040525081019061029291906116bb565b15156001146102ce5760405162461bcd60e51b815260206004820152600360248201526208a86760eb1b60448201526064015b60405180910390fd5b601554600160a01b900460ff16156103115760405162461bcd60e51b81526004016102c59060208082526004908201526322a1991b60e11b604082015260600190565b60158054601480546001600160a01b03199081166001600160a01b03808a16919091179092556001600160a81b031990921681871617600160a01b17909255600180548216838616179055601380549091169183169190911790556101fa565b600161037b610c45565b151560011461039c5760405162461bcd60e51b81526004016102c590611a0e565b6002546001600160a01b031633146103c65760405162461bcd60e51b81526004016102c5906119f0565b6103ce610c7f565b50565b60008060008060006060806060600260000160009054906101000a90046001600160a01b031660026001015460028001546002600301546002600401546002600501600260060160026007018280548060200260200160405190810160405280929190818152602001828054801561047257602002820191906000526020600020905b81546001600160a01b03168152600190910190602001808311610454575b50505050509250818054806020026020016040519081016040528092919081815260200182805480156104c457602002820191906000526020600020905b8154815260200190600101908083116104b0575b505050505091508080548060200260200160405190810160405280929190818152602001828054801561052057602002820191906000526020600020905b81546001600160a01b03168152600190910190602001808311610502575b50505050509050975097509750975097509750975097509091929394959697565b600161054b610c45565b151560011461056c5760405162461bcd60e51b81526004016102c590611a0e565b6105d33360026005018054806020026020016040519081016040528092919081815260200182805480156105c957602002820191906000526020600020905b81546001600160a01b031681526001909101906020018083116105ab575b5050505050610ccc565b151560011461060d5760405162461bcd60e51b81526004016102c5906020808252600490820152634543323360e01b604082015260600190565b60405163f7cf62d760e01b815273__AddressLibrary________________________9063f7cf62d790610647903390600990600401611890565b60206040518083038186803b15801561065f57600080fd5b505af4158015610673573d6000803e3d6000fd5b505050506040513d601f19601f8201168201806040525081019061069791906116bb565b156106ca5760405162461bcd60e51b815260206004820152600360248201526245433560e81b60448201526064016102c5565b6003544210156107b857600980546001810182556000919091527f6e1540171b6c0c960b71a7020d9f60077f6af931a8bbf590da0223dacf75c7af0180546001600160a01b03191633179055811561076957600861072f3361072a610ce2565b610d77565b8154811061073f5761073f611b38565b90600052602060002001546002600301600082825461075e9190611a9d565b909155506107ac9050565b60086107773361072a610ce2565b8154811061078757610787611b38565b9060005260206000200154600260040160008282546107a69190611a9d565b90915550505b6107b4610e0d565b5050565b600e5460ff16156107d0576107cb610e98565b6107d8565b6107d8610eb4565b6107b4610c7f565b60408051600480825260a0820190925260609160009190816020015b60608152602001906001900390816107fc575050600f546040516344b9f69d60e11b815291925073__AddressLibrary________________________91638973ed3a91610857916001600160a01b0390911690600401611820565b60006040518083038186803b15801561086f57600080fd5b505af4158015610883573d6000803e3d6000fd5b505050506040513d6000823e601f3d908101601f191682016040526108ab91908101906116d8565b816000815181106108be576108be611b38565b60209081029190910101526010546040516344b9f69d60e11b815273__AddressLibrary________________________91638973ed3a9161090b916001600160a01b031690600401611820565b60006040518083038186803b15801561092357600080fd5b505af4158015610937573d6000803e3d6000fd5b505050506040513d6000823e601f3d908101601f1916820160405261095f91908101906116d8565b8160018151811061097257610972611b38565b60209081029190910101526011546040516344b9f69d60e11b815273__AddressLibrary________________________91638973ed3a916109bf916001600160a01b031690600401611820565b60006040518083038186803b1580156109d757600080fd5b505af41580156109eb573d6000803e3d6000fd5b505050506040513d6000823e601f3d908101601f19168201604052610a1391908101906116d8565b81600281518110610a2657610a26611b38565b60209081029190910101526012546040516344b9f69d60e11b815273__AddressLibrary________________________91638973ed3a91610a73916001600160a01b031690600401611820565b60006040518083038186803b158015610a8b57600080fd5b505af4158015610a9f573d6000803e3d6000fd5b505050506040513d6000823e601f3d908101601f19168201604052610ac791908101906116d8565b81600381518110610ada57610ada611b38565b6020908102919091010152919050565b610af78383836000610ee5565b505050565b6000610b06610c45565b15610b3c5760405162461bcd60e51b81526004016102c5906020808252600490820152631150cc8d60e21b604082015260600190565b610b4533610fa0565b1515600114610b665760405162461bcd60e51b81526004016102c5906119f0565b610b6e610ce2565b8051610b8291600791602090910190611425565b50600754610bed5760405162461bcd60e51b815260206004820152603260248201527f496d706f737369626c6520746f206164642070726f706f736974696f6e2c20746044820152716865726520617265206e6f2061646d696e7360701b60648201526084016102c5565b600280546001600160a01b031916331790556003839055606460ff8316610c1261104e565b610c1c9190611ad7565b610c269190611ab5565b600455610c316110d0565b80516101fa9160089160209091019061148a565b600354600090421015610c585750600190565b6002546001600160a01b031615610c7957610c71610eb4565b610c79610c7f565b50600090565b600280546001600160a01b031916815560006003819055600481905560058190556006819055610cb06007826114c5565b610cbe6006830160006114c5565b6107b46007830160006114c5565b60008151610cda8484610d77565b109392505050565b60606000600160009054906101000a90046001600160a01b03166001600160a01b03166388d44ee06040518163ffffffff1660e01b815260040160006040518083038186803b158015610d3457600080fd5b505afa158015610d48573d6000803e3d6000fd5b505050506040513d6000823e601f3d908101601f19168201604052610d7091908101906115d3565b5092915050565b60405160016219125f60e01b0319815260009073__AddressLibrary________________________9063ffe6eda190610db69086908690600401611834565b60206040518083038186803b158015610dce57600080fd5b505af4158015610de2573d6000803e3d6000fd5b505050506040513d601f19601f82011682018060405250810190610e06919061176b565b9392505050565b6004546005541115610e7157600e5460ff1615610e5f57600c54600a55600d54600b805461010080840460ff90811690910261ffff19909216931692909217919091179055610e5a610e98565b610e67565b610e6761115e565b610e6f610c7f565b565b6004546006541115610e6f57600e5460ff1615610e9057610e5a610e98565b610e67610eb4565b6000600c55600d805461ffff19169055600e805460ff19169055565b610e6f600f80546001600160a01b031990811690915560108054821690556011805482169055601280549091169055565b82828160ff1660641015610f0b5760405162461bcd60e51b81526004016102c590611a2c565b8060ff1660641015610f2f5760405162461bcd60e51b81526004016102c590611a2c565b8215610f5a57600a869055600b805460ff8681166101000261ffff1990921690881617179055610f98565b600c869055600d805460ff8681166101000261ffff1990921690881617179055600e805460ff19166001179055600a54610f98906101ef9042611a9d565b505050505050565b600080546001600160a01b0316331415610fbc57506001919050565b6000610fc6610ce2565b90506000610fd26110d0565b90506000610fe08584610d77565b9050825181101561103e576064610ff561104e565b600b5461100a9190610100900460ff16611ad7565b6110149190611ab5565b82828151811061102657611026611b38565b60200260200101511061103e57506001949350505050565b506000949350505050565b919050565b600154604080516318160ddd60e01b815290516000926001600160a01b0316916318160ddd916004808301926020929190829003018186803b15801561109357600080fd5b505afa1580156110a7573d6000803e3d6000fd5b505050506040513d601f19601f820116820180604052508101906110cb919061176b565b905090565b60606000600160009054906101000a90046001600160a01b03166001600160a01b03166388d44ee06040518163ffffffff1660e01b815260040160006040518083038186803b15801561112257600080fd5b505afa158015611136573d6000803e3d6000fd5b505050506040513d6000823e601f3d908101601f19168201604052610e0691908101906115d3565b600f54601054601154601254610eb4936001600160a01b0390811693811692811691166014546040516000916001600160a01b0316906111a2908790602401611820565b60408051601f198184030181529181526020820180516001600160e01b0316631b2ce7f360e11b179052516111d79190611804565b6000604051808303816000865af19150503d8060008114611214576040519150601f19603f3d011682016040523d82523d6000602084013e611219565b606091505b5050809150508061122957600080fd5b6015546040516001600160a01b0390911690611249908690602401611820565b60408051601f198184030181529181526020820180516001600160e01b0316631b2ce7f360e11b1790525161127e9190611804565b6000604051808303816000865af19150503d80600081146112bb576040519150601f19603f3d011682016040523d82523d6000602084013e6112c0565b606091505b505080915050806112d057600080fd5b6001546040516001600160a01b03909116906112f0908590602401611820565b60408051601f198184030181529181526020820180516001600160e01b0316631b2ce7f360e11b179052516113259190611804565b6000604051808303816000865af19150503d8060008114611362576040519150601f19603f3d011682016040523d82523d6000602084013e611367565b606091505b5050809150508061137757600080fd5b6013546040516001600160a01b0390911690611397908490602401611820565b60408051601f198184030181529181526020820180516001600160e01b0316631b2ce7f360e11b179052516113cc9190611804565b6000604051808303816000865af19150503d8060008114611409576040519150601f19603f3d011682016040523d82523d6000602084013e61140e565b606091505b5050809150508061141e57600080fd5b5050505050565b82805482825590600052602060002090810192821561147a579160200282015b8281111561147a57825182546001600160a01b0319166001600160a01b03909116178255602090920191600190910190611445565b506114869291506114df565b5090565b82805482825590600052602060002090810192821561147a579160200282015b8281111561147a5782518255916020019190600101906114aa565b50805460008255906000526020600020908101906103ce91905b5b8082111561148657600081556001016114e0565b600082601f83011261150557600080fd5b8151602061151a61151583611a7a565b611a4a565b80838252828201915082860187848660051b890101111561153a57600080fd5b60005b858110156115595781518452928401929084019060010161153d565b5090979650505050505050565b803560ff8116811461104957600080fd5b6000806000806080858703121561158d57600080fd5b843561159881611b64565b935060208501356115a881611b64565b925060408501356115b881611b64565b915060608501356115c881611b64565b939692955090935050565b600080604083850312156115e657600080fd5b82516001600160401b03808211156115fd57600080fd5b818501915085601f83011261161157600080fd5b8151602061162161151583611a7a565b8083825282820191508286018a848660051b890101111561164157600080fd5b600096505b8487101561166d57805161165981611b64565b835260019690960195918301918301611646565b509188015191965090935050508082111561168757600080fd5b50611694858286016114f4565b9150509250929050565b6000602082840312156116b057600080fd5b8135610e0681611b79565b6000602082840312156116cd57600080fd5b8151610e0681611b79565b6000602082840312156116ea57600080fd5b81516001600160401b038082111561170157600080fd5b818401915084601f83011261171557600080fd5b81518181111561172757611727611b4e565b61173a601f8201601f1916602001611a4a565b915080825285602082850101111561175157600080fd5b611762816020840160208601611af6565b50949350505050565b60006020828403121561177d57600080fd5b5051919050565b60008060006060848603121561179957600080fd5b833592506117a960208501611566565b91506117b760408501611566565b90509250925092565b600081518084526020808501945080840160005b838110156117f95781516001600160a01b0316875295820195908201906001016117d4565b509495945050505050565b60008251611816818460208701611af6565b9190910192915050565b6001600160a01b0391909116815260200190565b6001600160a01b038381168252604060208084018290528451918401829052600092858201929091906060860190855b81811015611882578551851683529483019491830191600101611864565b509098975050505050505050565b60006040820160018060a01b03808616845260206040818601528286548085526060870191508760005282600020945060005b818110156118825785548516835260019586019592840192016118c3565b600061010060018060a01b038b16835260208a818501528960408501528860608501528760808501528160a085015261191c828501886117c0565b84810360c0860152865180825282880193509082019060005b8181101561195157845183529383019391830191600101611935565b505084810360e086015261196581876117c0565b9d9c50505050505050505050505050565b6000602080830181845280855180835260408601915060408160051b870101925083870160005b828110156119e357878503603f19018452815180518087526119c4818989018a8501611af6565b601f01601f19169590950186019450928501929085019060010161199d565b5092979650505050505050565b60208082526004908201526322a1991960e11b604082015260600190565b6020808252600490820152634543323560e01b604082015260600190565b6020808252600490820152634543323160e01b604082015260600190565b604051601f8201601f191681016001600160401b0381118282101715611a7257611a72611b4e565b604052919050565b60006001600160401b03821115611a9357611a93611b4e565b5060051b60200190565b60008219821115611ab057611ab0611b22565b500190565b600082611ad257634e487b7160e01b600052601260045260246000fd5b500490565b6000816000190483118215151615611af157611af1611b22565b500290565b60005b83811015611b11578181015183820152602001611af9565b838111156101fa5750506000910152565b634e487b7160e01b600052601160045260246000fd5b634e487b7160e01b600052603260045260246000fd5b634e487b7160e01b600052604160045260246000fd5b6001600160a01b03811681146103ce57600080fd5b80151581146103ce57600080fdfea26469706673582212203a934ecc23c3c81377d7d6a512bc633cdcbc7e5ca9b1d32e3ac96d60c810b4ba64736f6c63430008060033",
  "immutableReferences": {},
  "source": "// SPDX-License-Identifier: GPL-3.0\r\n\r\npragma solidity >=0.7.0 <0.9.0;\r\n\r\n/**\r\n * @title Storage\r\n * @dev Store & retrieve value in a variable\r\n */\r\n\r\nimport \"./PublicCertificatesPool.sol\";\r\nimport \"./PrivatePoolGenerator.sol\";\r\nimport \"./Treasury.sol\";\r\n//import \"./Proxies/TreasuryProxy.sol\";\r\n//import \"../Interfaces/ITreasury.sol\";\r\nimport \"../Base/TokenGovernanceBaseContract.sol\";\r\nimport \"./CertisToken.sol\";\r\nimport \"../Libraries/AddressLibrary.sol\";\r\n\r\ncontract CertificatesPoolManager is TokenGovernanceBaseContract{\r\n    using AddressLibrary for *;\r\n\r\n    // DATA\r\n    // proposition to change\r\n    struct ProposedContractsStruct{\r\n        address NewPublicPoolAddress;\r\n        address NewTreasuryAddress;\r\n        address NewCertisTokenAddress;\r\n        address NewPrivatePoolGeneratorAddress;\r\n    }\r\n\r\n    ProposedContractsStruct _ProposedContracts;\r\n    \r\n    // Private Certificate Pools Generator\r\n    PrivatePoolGenerator _PrivatePoolGenerator;\r\n\r\n    // Public Certificates Pool structure\r\n    PublicCertificatesPool  _PublicCertificatesPool;\r\n\r\n    // Treasury\r\n    Treasury _Treasury;\r\n\r\n    // init\r\n    bool _init;\r\n\r\n    // MODIFIERS\r\n    modifier isNotInitialized(){\r\n        require(false == _init, \"EC26\");\r\n        _;\r\n    }\r\n\r\n\r\n    // CONSTRUCTOR and INITIALIZATION\r\n    constructor(uint256 PropositionLifeTime, uint8 PropositionThresholdPercentage, uint8 minWeightToProposePercentage) \r\n    TokenGovernanceBaseContract(PropositionLifeTime, PropositionThresholdPercentage, minWeightToProposePercentage)\r\n    {\r\n        _init = false;\r\n    }\r\n\r\n    function Initialize(address payable PublicPoolProxyAddress, address payable TreasuryProxyAddress, address payable CertisTokenProxyAddress, address payable PrivatePoolGeneratorProxyAddress) \r\n        isFromChairPerson()\r\n        isNotInitialized()\r\n    external\r\n    {\r\n        _init = true;\r\n        //InternalUpdateContractsVersions(PublicPoolAddress, TreasuryProxyAddress, CertisTokenAddress, PrivatePoolGeneratorAddress, true);\r\n        initProxies(PublicPoolProxyAddress, TreasuryProxyAddress, CertisTokenProxyAddress, PrivatePoolGeneratorProxyAddress);\r\n    }\r\n\r\n    // governance : contracts assignment and management\r\n    function updateContracts(address PublicPoolAddress, address TreasuryAddress, address CertisTokenAddress, address PrivatePoolGeneratorAddress) external\r\n    {\r\n        _ProposedContracts.NewPublicPoolAddress = PublicPoolAddress;\r\n        _ProposedContracts.NewTreasuryAddress = TreasuryAddress;\r\n        _ProposedContracts.NewCertisTokenAddress = CertisTokenAddress;\r\n        _ProposedContracts.NewPrivatePoolGeneratorAddress = PrivatePoolGeneratorAddress;\r\n        addProposition(block.timestamp + _PropositionLifeTime, _PropositionThresholdPercentage);\r\n\r\n        //InternalUpdateContractsVersions(PublicPoolAddress, TreasuryAddress, CertisTokenAddress, PrivatePoolGeneratorAddress, false);\r\n    }\r\n\r\n/*\r\n    function InternalUpdateContractsVersions(address PublicPoolAddress, address TreasuryAddress, address CertisTokenAddress, address PrivatePoolGeneratorAddress, bool fromConstructor) internal\r\n    {\r\n        \r\n        if(fromConstructor){\r\n            assignContracts(PublicPoolAddress, TreasuryProxyAddress, CertisTokenAddress, PrivatePoolGeneratorAddress);\r\n        }\r\n        else{\r\n            _ProposedContracts.NewPublicPoolAddress = PublicPoolAddress;\r\n            _ProposedContracts.NewTreasuryAddress = TreasuryAddress;\r\n            _ProposedContracts.NewCertisTokenAddress = CertisTokenAddress;\r\n            _ProposedContracts.NewPrivatePoolGeneratorAddress = PrivatePoolGeneratorAddress;\r\n            addProposition(block.timestamp + _PropositionLifeTime, _PropositionThresholdPercentage);\r\n        }\r\n        \r\n    }\r\n*/\r\n\r\n    function propositionApproved() internal override\r\n    {\r\n        //assignContracts(_ProposedContracts.NewPublicPoolAddress, _ProposedContracts.NewTreasuryAddress, _ProposedContracts.NewCertisTokenAddress, _ProposedContracts.NewPrivatePoolGeneratorAddress);\r\n        upgradeProxiesImplementations(_ProposedContracts.NewPublicPoolAddress, _ProposedContracts.NewTreasuryAddress, _ProposedContracts.NewCertisTokenAddress, _ProposedContracts.NewPrivatePoolGeneratorAddress);\r\n        removeProposition();\r\n    }\r\n\r\n    function propositionRejected() internal override\r\n    {\r\n        removeProposition();\r\n    }\r\n\r\n    function propositionExpired() internal override\r\n    {\r\n        removeProposition();\r\n    }\r\n\r\n    function removeProposition() internal\r\n    {\r\n       delete(_ProposedContracts);\r\n    }\r\n\r\n    function retrieveProposition() external override view returns(string[] memory)\r\n    {\r\n        string[] memory proposition = new string[](4);\r\n        proposition[0] = AddressLibrary.AddressToString(_ProposedContracts.NewPublicPoolAddress);\r\n        proposition[1] = AddressLibrary.AddressToString(_ProposedContracts.NewTreasuryAddress);\r\n        proposition[2] = AddressLibrary.AddressToString(_ProposedContracts.NewCertisTokenAddress);\r\n        proposition[3] = AddressLibrary.AddressToString(_ProposedContracts.NewPrivatePoolGeneratorAddress);\r\n        return proposition;\r\n    }\r\n\r\n    function initProxies(address PublicPoolProxyAddress, address payable TreasuryProxyAddress, address CertisTokenProxyAddress, address PrivatePoolGeneratorProxyAddress) internal\r\n    {\r\n        _PublicCertificatesPool = PublicCertificatesPool(PublicPoolProxyAddress);\r\n        _Treasury = Treasury(TreasuryProxyAddress);\r\n        _CertisToken = CertisToken(CertisTokenProxyAddress);\r\n        _PrivatePoolGenerator = PrivatePoolGenerator(PrivatePoolGeneratorProxyAddress);\r\n    }\r\n\r\n    function upgradeProxiesImplementations(address PublicPoolAddress, address TreasuryAddress, address CertisTokenAddress, address PrivatePoolGeneratorAddress) internal\r\n    {\r\n        bool success;\r\n        (success, ) = address(_PublicCertificatesPool).call(abi.encodeWithSignature(\"upgradeTo(address)\", PublicPoolAddress));\r\n        require(success);\r\n        (success, ) = address(_Treasury).call(abi.encodeWithSignature(\"upgradeTo(address)\", TreasuryAddress));\r\n        require(success);\r\n        (success, ) = address(_CertisToken).call(abi.encodeWithSignature(\"upgradeTo(address)\", CertisTokenAddress));\r\n        require(success);\r\n        (success, ) = address(_PrivatePoolGenerator).call(abi.encodeWithSignature(\"upgradeTo(address)\", PrivatePoolGeneratorAddress));\r\n        require(success);\r\n    }\r\n\r\n/*\r\n    function assignContracts(address PublicPoolAddress, address TreasuryAddress, address CertisTokenAddress, address PrivatePoolGeneratorAddress) internal {\r\n        _PublicCertificatesPool = PublicCertificatesPool(PublicPoolAddress);\r\n        _Treasury = Treasury(TreasuryProxyAddress);\r\n        _CertisToken = CertisToken(CertisTokenAddress); \r\n        _PrivatePoolGenerator = PrivatePoolGenerator(PrivatePoolGeneratorAddress);\r\n        _Treasury.updateContracts(PublicPoolAddress, CertisTokenAddress);\r\n        _PublicCertificatesPool.updateContracts(TreasuryProxyAddress);\r\n        _PrivatePoolGenerator.updateContracts(TreasuryProxyAddress);\r\n       \r\n    }\r\n*/ \r\n    // configuration\r\n    function retrieveConfiguration() external view returns (address, address, address, address, address, uint) {\r\n        return (address(_PublicCertificatesPool), address(_Treasury), address(_CertisToken), address(_PrivatePoolGenerator), _chairperson, address(this).balance);\r\n    }\r\n    \r\n}",
  "sourcePath": "C:/Users/d-aam/GitHub/Certificates/contracts/DeployedContracts/CertificatesPoolManager.sol",
  "compiler": {
    "name": "solc",
    "version": "0.8.6+commit.11564f7e.Emscripten.clang"
  },
  "schemaVersion": "3.3.4",
  "updatedAt": "2021-08-02T14:46:40.057Z",
  "devdoc": {
    "kind": "dev",
    "methods": {},
    "version": 1
  },
  "userdoc": {
    "kind": "user",
    "methods": {},
    "version": 1
  }
}