{
  "contractName": "CertificatesPoolManager",
  "abi": [
    {
      "inputs": [
        {
          "internalType": "uint256",
          "name": "PropositionLifeTime",
          "type": "uint256"
        },
        {
          "internalType": "uint8",
          "name": "PropositionThresholdPercentage",
          "type": "uint8"
        },
        {
          "internalType": "uint8",
          "name": "minWeightToProposePercentage",
          "type": "uint8"
        }
      ],
      "stateMutability": "nonpayable",
      "type": "constructor"
    },
    {
      "anonymous": false,
      "inputs": [
        {
          "indexed": true,
          "internalType": "address",
          "name": "",
          "type": "address"
        },
        {
          "indexed": false,
          "internalType": "uint256",
          "name": "",
          "type": "uint256"
        },
        {
          "indexed": false,
          "internalType": "uint256",
          "name": "",
          "type": "uint256"
        },
        {
          "indexed": false,
          "internalType": "address[]",
          "name": "",
          "type": "address[]"
        },
        {
          "indexed": false,
          "internalType": "uint256[]",
          "name": "",
          "type": "uint256[]"
        }
      ],
      "name": "_AddedProposition",
      "type": "event"
    },
    {
      "anonymous": false,
      "inputs": [
        {
          "indexed": true,
          "internalType": "address",
          "name": "",
          "type": "address"
        }
      ],
      "name": "_CancelledProposition",
      "type": "event"
    },
    {
      "anonymous": false,
      "inputs": [
        {
          "indexed": false,
          "internalType": "address",
          "name": "",
          "type": "address"
        },
        {
          "indexed": false,
          "internalType": "address",
          "name": "",
          "type": "address"
        },
        {
          "indexed": false,
          "internalType": "address",
          "name": "",
          "type": "address"
        },
        {
          "indexed": false,
          "internalType": "address",
          "name": "",
          "type": "address"
        },
        {
          "indexed": false,
          "internalType": "address",
          "name": "",
          "type": "address"
        },
        {
          "indexed": false,
          "internalType": "address",
          "name": "",
          "type": "address"
        },
        {
          "indexed": false,
          "internalType": "address",
          "name": "",
          "type": "address"
        }
      ],
      "name": "_NewContracts",
      "type": "event"
    },
    {
      "anonymous": false,
      "inputs": [
        {
          "indexed": true,
          "internalType": "address",
          "name": "",
          "type": "address"
        },
        {
          "indexed": false,
          "internalType": "uint256",
          "name": "",
          "type": "uint256"
        },
        {
          "indexed": false,
          "internalType": "uint256",
          "name": "",
          "type": "uint256"
        },
        {
          "indexed": false,
          "internalType": "address[]",
          "name": "",
          "type": "address[]"
        }
      ],
      "name": "_PropositionApproved",
      "type": "event"
    },
    {
      "anonymous": false,
      "inputs": [
        {
          "indexed": true,
          "internalType": "address",
          "name": "",
          "type": "address"
        },
        {
          "indexed": false,
          "internalType": "uint256",
          "name": "",
          "type": "uint256"
        },
        {
          "indexed": false,
          "internalType": "uint256",
          "name": "",
          "type": "uint256"
        },
        {
          "indexed": false,
          "internalType": "address[]",
          "name": "",
          "type": "address[]"
        }
      ],
      "name": "_PropositionRejected",
      "type": "event"
    },
    {
      "inputs": [],
      "name": "cancelProposition",
      "outputs": [],
      "stateMutability": "nonpayable",
      "type": "function"
    },
    {
      "inputs": [],
      "name": "retrievePropConfig",
      "outputs": [
        {
          "internalType": "uint256",
          "name": "",
          "type": "uint256"
        },
        {
          "internalType": "uint8",
          "name": "",
          "type": "uint8"
        },
        {
          "internalType": "uint8",
          "name": "",
          "type": "uint8"
        }
      ],
      "stateMutability": "view",
      "type": "function"
    },
    {
      "inputs": [],
      "name": "retrievePropositionStatus",
      "outputs": [
        {
          "internalType": "address",
          "name": "",
          "type": "address"
        },
        {
          "internalType": "uint256",
          "name": "",
          "type": "uint256"
        },
        {
          "internalType": "uint256",
          "name": "",
          "type": "uint256"
        },
        {
          "internalType": "uint256",
          "name": "",
          "type": "uint256"
        },
        {
          "internalType": "uint256",
          "name": "",
          "type": "uint256"
        },
        {
          "internalType": "address[]",
          "name": "",
          "type": "address[]"
        },
        {
          "internalType": "uint256[]",
          "name": "",
          "type": "uint256[]"
        },
        {
          "internalType": "address[]",
          "name": "",
          "type": "address[]"
        }
      ],
      "stateMutability": "view",
      "type": "function"
    },
    {
      "inputs": [
        {
          "internalType": "uint256",
          "name": "PropLifeTime",
          "type": "uint256"
        },
        {
          "internalType": "uint8",
          "name": "PropThresholdPerc",
          "type": "uint8"
        },
        {
          "internalType": "uint8",
          "name": "minWeightToPropPerc",
          "type": "uint8"
        }
      ],
      "name": "updateProp",
      "outputs": [],
      "stateMutability": "nonpayable",
      "type": "function"
    },
    {
      "inputs": [
        {
          "internalType": "bool",
          "name": "vote",
          "type": "bool"
        }
      ],
      "name": "voteProposition",
      "outputs": [],
      "stateMutability": "nonpayable",
      "type": "function"
    },
    {
      "inputs": [
        {
          "components": [
            {
              "internalType": "address payable",
              "name": "PublicPoolProxyAddress",
              "type": "address"
            },
            {
              "internalType": "address payable",
              "name": "TreasuryProxyAddress",
              "type": "address"
            },
            {
              "internalType": "address payable",
              "name": "CertisTokenProxyAddress",
              "type": "address"
            },
            {
              "internalType": "address payable",
              "name": "PrivatePoolFactoryProxyAddress",
              "type": "address"
            },
            {
              "internalType": "address",
              "name": "PrivateCertificatePoolImplAddress",
              "type": "address"
            },
            {
              "internalType": "address payable",
              "name": "ProviderFactoryProxyAddress",
              "type": "address"
            },
            {
              "internalType": "address",
              "name": "ProviderImplAddress",
              "type": "address"
            }
          ],
          "internalType": "struct Library.InitialContractsStruct",
          "name": "initialContracts",
          "type": "tuple"
        }
      ],
      "name": "InitializeContracts",
      "outputs": [],
      "stateMutability": "nonpayable",
      "type": "function"
    },
    {
      "inputs": [
        {
          "components": [
            {
              "internalType": "address",
              "name": "NewPublicPoolAddress",
              "type": "address"
            },
            {
              "internalType": "address",
              "name": "NewTreasuryAddress",
              "type": "address"
            },
            {
              "internalType": "address",
              "name": "NewCertisTokenAddress",
              "type": "address"
            },
            {
              "internalType": "address",
              "name": "NewPrivatePoolFactoryAddress",
              "type": "address"
            },
            {
              "internalType": "address",
              "name": "NewPrivatePoolAddress",
              "type": "address"
            },
            {
              "internalType": "address",
              "name": "NewProviderFactoryAddress",
              "type": "address"
            },
            {
              "internalType": "address",
              "name": "NewProviderAddress",
              "type": "address"
            },
            {
              "internalType": "bytes",
              "name": "NewPublicPoolData",
              "type": "bytes"
            },
            {
              "internalType": "bytes",
              "name": "NewTreasuryData",
              "type": "bytes"
            },
            {
              "internalType": "bytes",
              "name": "NewCertisTokenData",
              "type": "bytes"
            },
            {
              "internalType": "bytes",
              "name": "NewPrivatePoolFactoryData",
              "type": "bytes"
            },
            {
              "internalType": "bytes",
              "name": "NewProviderFactoryData",
              "type": "bytes"
            }
          ],
          "internalType": "struct Library.ProposedContractsStruct",
          "name": "UpgradeProposition",
          "type": "tuple"
        }
      ],
      "name": "upgradeContracts",
      "outputs": [],
      "stateMutability": "nonpayable",
      "type": "function"
    },
    {
      "inputs": [],
      "name": "retrieveProposition",
      "outputs": [
        {
          "internalType": "bytes32[]",
          "name": "",
          "type": "bytes32[]"
        }
      ],
      "stateMutability": "view",
      "type": "function"
    },
    {
      "inputs": [],
      "name": "retrievePublicCertificatePoolProxy",
      "outputs": [
        {
          "internalType": "address",
          "name": "",
          "type": "address"
        }
      ],
      "stateMutability": "view",
      "type": "function"
    },
    {
      "inputs": [],
      "name": "retrieveTreasuryProxy",
      "outputs": [
        {
          "internalType": "address",
          "name": "",
          "type": "address"
        }
      ],
      "stateMutability": "view",
      "type": "function"
    },
    {
      "inputs": [],
      "name": "retrieveCertisTokenProxy",
      "outputs": [
        {
          "internalType": "address",
          "name": "",
          "type": "address"
        }
      ],
      "stateMutability": "view",
      "type": "function"
    },
    {
      "inputs": [],
      "name": "retrievePrivatePoolFactoryProxy",
      "outputs": [
        {
          "internalType": "address",
          "name": "",
          "type": "address"
        }
      ],
      "stateMutability": "view",
      "type": "function"
    },
    {
      "inputs": [],
      "name": "retrievePrivatePoolBeacon",
      "outputs": [
        {
          "internalType": "address",
          "name": "",
          "type": "address"
        }
      ],
      "stateMutability": "view",
      "type": "function"
    },
    {
      "inputs": [],
      "name": "retrieveProviderFactoryProxy",
      "outputs": [
        {
          "internalType": "address",
          "name": "",
          "type": "address"
        }
      ],
      "stateMutability": "view",
      "type": "function"
    },
    {
      "inputs": [],
      "name": "retrieveProviderBeacon",
      "outputs": [
        {
          "internalType": "address",
          "name": "",
          "type": "address"
        }
      ],
      "stateMutability": "view",
      "type": "function"
    },
    {
      "inputs": [],
      "name": "retrievePublicCertificatePool",
      "outputs": [
        {
          "internalType": "address",
          "name": "",
          "type": "address"
        }
      ],
      "stateMutability": "view",
      "type": "function"
    },
    {
      "inputs": [],
      "name": "retrieveTreasury",
      "outputs": [
        {
          "internalType": "address",
          "name": "",
          "type": "address"
        }
      ],
      "stateMutability": "view",
      "type": "function"
    },
    {
      "inputs": [],
      "name": "retrieveCertisToken",
      "outputs": [
        {
          "internalType": "address",
          "name": "",
          "type": "address"
        }
      ],
      "stateMutability": "view",
      "type": "function"
    },
    {
      "inputs": [],
      "name": "retrievePrivatePoolFactory",
      "outputs": [
        {
          "internalType": "address",
          "name": "",
          "type": "address"
        }
      ],
      "stateMutability": "view",
      "type": "function"
    },
    {
      "inputs": [],
      "name": "retrievePrivatePool",
      "outputs": [
        {
          "internalType": "address",
          "name": "",
          "type": "address"
        }
      ],
      "stateMutability": "view",
      "type": "function"
    },
    {
      "inputs": [],
      "name": "retrieveProviderFactory",
      "outputs": [
        {
          "internalType": "address",
          "name": "",
          "type": "address"
        }
      ],
      "stateMutability": "view",
      "type": "function"
    },
    {
      "inputs": [],
      "name": "retrieveProvider",
      "outputs": [
        {
          "internalType": "address",
          "name": "",
          "type": "address"
        }
      ],
      "stateMutability": "view",
      "type": "function"
    }
  ],
  "bytecode": "0x60806040523480156200001157600080fd5b50604051620045b1380380620045b1833981016040819052620000349162000cc7565b6200004e83838333306200006460201b62000edb1760201c565b50506021805460ff60a01b191690555062000faa565b600054610100900460ff16806200007e575060005460ff16155b620000a65760405162461bcd60e51b81526004016200009d9062000d66565b60405180910390fd5b600054610100900460ff16158015620000c9576000805461ffff19166101011790555b620000df826200012660201b62000f891760201c565b600180546001600160a01b0319166001600160a01b0385161781556200010b90879087908790620001bb565b80156200011e576000805461ff00191690555b505050505050565b600054610100900460ff168062000140575060005460ff16155b6200015f5760405162461bcd60e51b81526004016200009d9062000d66565b600054610100900460ff1615801562000182576000805461ffff19166101011790555b6000805462010000600160b01b031916620100006001600160a01b038516021790558015620001b7576000805461ff00191690555b5050565b82828160ff1660641015620001e45760405162461bcd60e51b81526004016200009d9062000db4565b8060ff16606410156200020b5760405162461bcd60e51b81526004016200009d9062000db4565b82156200023857600a869055600b805460ff8681166101000261ffff19909216908816171790556200011e565b600c869055600d805460ff8681166101000261ffff1990921690881617179055600e805460ff19166001179055600a546200011e9062000279904262000ecb565b600b5460ff1660006200028b62000454565b15620002c35760405162461bcd60e51b81526004016200009d906020808252600490820152631150cc8d60e21b604082015260600190565b620002ce3362000494565b15156001146200030a5760405162461bcd60e51b81526004016200009d9060208082526004908201526322a1991960e11b604082015260600190565b6200031462000556565b80516200032a91600791602090910190620009f8565b50600754620003975760405162461bcd60e51b815260206004820152603260248201527f496d706f737369626c6520746f206164642070726f706f736974696f6e2c20746044820152716865726520617265206e6f2061646d696e7360701b60648201526084016200009d565b600280546001600160a01b031916331790556003839055606460ff8316620003be62000662565b620003ca919062000f09565b620003d6919062000ee6565b600455620003e362000766565b8051620003f99160089160209091019062000a62565b506002546003546004546040516001600160a01b03909316927f7ec97bdcf80d0b85a7cccd3b92c27116caaa95fa630cb01fac8243b7cdbd9c16926200044792909160079060089062000dd2565b60405180910390a2505050565b600354600090421015620004685750600190565b6002546001600160a01b0316156200048e576200048462000872565b6200048e6200087e565b50600090565b6001546000906001600160a01b0316331415620004b357506001919050565b6000620004bf62000556565b90506000620004cd62000766565b90506000620004dd8584620008d1565b9050825181101562000546576064620004f562000662565b600b546200050c9190610100900460ff1662000f09565b62000518919062000ee6565b8282815181106200052d576200052d62000f7e565b6020026020010151106200054657506001949350505050565b506000949350505050565b919050565b606060008060029054906101000a90046001600160a01b03166001600160a01b031663da3dce266040518163ffffffff1660e01b815260040160206040518083038186803b158015620005a857600080fd5b505afa158015620005bd573d6000803e3d6000fd5b505050506040513d601f19601f82011682018060405250810190620005e3919062000bb8565b6001600160a01b03166388d44ee06040518163ffffffff1660e01b815260040160006040518083038186803b1580156200061c57600080fd5b505afa15801562000631573d6000803e3d6000fd5b505050506040513d6000823e601f3d908101601f191682016040526200065b919081019062000bd6565b5092915050565b60008060029054906101000a90046001600160a01b03166001600160a01b031663da3dce266040518163ffffffff1660e01b815260040160206040518083038186803b158015620006b257600080fd5b505afa158015620006c7573d6000803e3d6000fd5b505050506040513d601f19601f82011682018060405250810190620006ed919062000bb8565b6001600160a01b03166318160ddd6040518163ffffffff1660e01b815260040160206040518083038186803b1580156200072657600080fd5b505afa1580156200073b573d6000803e3d6000fd5b505050506040513d601f19601f8201168201806040525081019062000761919062000cad565b905090565b606060008060029054906101000a90046001600160a01b03166001600160a01b031663da3dce266040518163ffffffff1660e01b815260040160206040518083038186803b158015620007b857600080fd5b505afa158015620007cd573d6000803e3d6000fd5b505050506040513d601f19601f82011682018060405250810190620007f3919062000bb8565b6001600160a01b03166388d44ee06040518163ffffffff1660e01b815260040160006040518083038186803b1580156200082c57600080fd5b505afa15801562000841573d6000803e3d6000fd5b505050506040513d6000823e601f3d908101601f191682016040526200086b919081019062000bd6565b9392505050565b6200087c62000966565b565b600280546001600160a01b031916815560006003819055600481905560058190556006819055620008b160078262000aa0565b620008c160068301600062000aa0565b620001b760078301600062000aa0565b60405160016219125f60e01b0319815260009073__AddressLibrary________________________9063ffe6eda19062000912908690869060040162000d08565b60206040518083038186803b1580156200092b57600080fd5b505af415801562000940573d6000803e3d6000fd5b505050506040513d601f19601f820116820180604052508101906200086b919062000cad565b600f80546001600160a01b03199081168255601080548216905560118054821690556012805482169055601380548216905560148054821690556015805490911690556000620009b860168262000ac3565b620009c860088301600062000ac3565b620009d860098301600062000ac3565b620009e8600a8301600062000ac3565b620001b7600b8301600062000ac3565b82805482825590600052602060002090810192821562000a50579160200282015b8281111562000a5057825182546001600160a01b0319166001600160a01b0390911617825560209092019160019091019062000a19565b5062000a5e92915062000afd565b5090565b82805482825590600052602060002090810192821562000a50579160200282015b8281111562000a5057825182559160200191906001019062000a83565b508054600082559060005260206000209081019062000ac0919062000afd565b50565b50805462000ad19062000f2b565b6000825580601f1062000ae2575050565b601f01602090049060005260206000209081019062000ac091905b5b8082111562000a5e576000815560010162000afe565b80516001600160a01b03811681146200055157600080fd5b600082601f83011262000b3e57600080fd5b8151602062000b5762000b518362000ea5565b62000e72565b80838252828201915082860187848660051b890101111562000b7857600080fd5b60005b8581101562000b995781518452928401929084019060010162000b7b565b5090979650505050505050565b805160ff811681146200055157600080fd5b60006020828403121562000bcb57600080fd5b6200086b8262000b14565b6000806040838503121562000bea57600080fd5b82516001600160401b038082111562000c0257600080fd5b818501915085601f83011262000c1757600080fd5b8151602062000c2a62000b518362000ea5565b8083825282820191508286018a848660051b890101111562000c4b57600080fd5b600096505b8487101562000c795762000c648162000b14565b83526001969096019591830191830162000c50565b509188015191965090935050508082111562000c9457600080fd5b5062000ca38582860162000b2c565b9150509250929050565b60006020828403121562000cc057600080fd5b5051919050565b60008060006060848603121562000cdd57600080fd5b8351925062000cef6020850162000ba6565b915062000cff6040850162000ba6565b90509250925092565b6001600160a01b038381168252604060208084018290528451918401829052600092858201929091906060860190855b8181101562000d5857855185168352948301949183019160010162000d38565b509098975050505050505050565b6020808252602e908201527f496e697469616c697a61626c653a20636f6e747261637420697320616c72656160408201526d191e481a5b9a5d1a585b1a5e995960921b606082015260800190565b6020808252600490820152634543323160e01b604082015260600190565b600060808201868352602086818501526080604085015281865480845260a08601915060009350878452828420845b8281101562000e285781546001600160a01b03168452928401926001918201910162000e01565b50505084810360608601528554808252868452828420918301905b8085101562000e645782548252600194850194909201919083019062000e43565b509998505050505050505050565b604051601f8201601f191681016001600160401b038111828210171562000e9d5762000e9d62000f94565b604052919050565b60006001600160401b0382111562000ec15762000ec162000f94565b5060051b60200190565b6000821982111562000ee15762000ee162000f68565b500190565b60008262000f0457634e487b7160e01b600052601260045260246000fd5b500490565b600081600019048311821515161562000f265762000f2662000f68565b500290565b600181811c9082168062000f4057607f821691505b6020821081141562000f6257634e487b7160e01b600052602260045260246000fd5b50919050565b634e487b7160e01b600052601160045260246000fd5b634e487b7160e01b600052603260045260246000fd5b634e487b7160e01b600052604160045260246000fd5b6135f78062000fba6000396000f3fe60806040523480156200001157600080fd5b50600436106200012a5760003560e01c8063029b9673146200012f57806322d929e114620001515780633c65d427146200015b5780634b19aa16146200016d57806355457ee914620001775780635773bc2314620001835780635a3794e914620001955780636771717714620001a75780637c2364a914620001b15780637c2f3aaf14620001c8578063840f6d1714620001da5780638f8907f714620001fa57806391f916711462000211578063a42e13391462000228578063a93316f51462000232578063aa33380a146200024b578063ac2bb442146200025d578063c50ec82b1462000274578063d660ab34146200027e578063da3dce2614620002ab578063efd15d1714620002bd578063f5ad9acc14620002c7575b600080fd5b62000139620002d9565b604051620001489190620028c1565b60405180910390f35b62000139620002ea565b601b546001600160a01b031662000139565b62000139620002f6565b6200018162000302565b005b601d546001600160a01b031662000139565b6020546001600160a01b031662000139565b62000139620003ad565b62000181620001c2366004620027bc565b620003b9565b601c546001600160a01b031662000139565b620001e4620003ed565b6040516200014898979695949392919062002a23565b620001816200020b366004620027a3565b62000563565b620001816200022236600462002749565b62000697565b6200013962000967565b6200023c62000973565b60405162000148919062002abe565b601f546001600160a01b031662000139565b620001816200026e366004620027fa565b62000eaf565b6200013962000ec3565b600a54600b546040805192835260ff80831660208501526101009092049091169082015260600162000148565b6021546001600160a01b031662000139565b6200013962000ecf565b601e546001600160a01b031662000139565b6000620002e56200101d565b905090565b6000620002e56200109e565b6000620002e5620010e4565b60016200030e6200112a565b15156001146200033b5760405162461bcd60e51b8152600401620003329062002b70565b60405180910390fd5b6002546001600160a01b03163314620003685760405162461bcd60e51b8152600401620003329062002b04565b620003726200116a565b6002546040516001600160a01b03909116907fd02d53732621ad6e6d3d9370823f4968cd23613cf89dd88e10a74c7f88ebd54e90600090a250565b6000620002e5620011bd565b80600f620003c8828262002f0e565b5050600a54620003ea90620003de904262002ce9565b600b5460ff1662001203565b50565b60008060008060006060806060600260000160009054906101000a90046001600160a01b03166002600101546002800154600260030154600260040154600260050160026006016002600701828054806020026020016040519081016040528092919081815260200182805480156200049057602002820191906000526020600020905b81546001600160a01b0316815260019091019060200180831162000471575b5050505050925081805480602002602001604051908101604052809291908181526020018280548015620004e457602002820191906000526020600020905b815481526020019060010190808311620004cf575b50505050509150808054806020026020016040519081016040528092919081815260200182805480156200054257602002820191906000526020600020905b81546001600160a01b0316815260019091019060200180831162000523575b50505050509050975097509750975097509750975097509091929394959697565b600154604051630d1d719d60e41b815273__Library_______________________________9163d1d719d091620005a7916001600160a01b031690600401620028c1565b60206040518083038186803b158015620005c057600080fd5b505af4158015620005d5573d6000803e3d6000fd5b505050506040513d601f19601f82011682018060405250810190620005fb919062002769565b1515600114620006345760405162461bcd60e51b815260206004820152600360248201526208a86760eb1b604482015260640162000332565b602154600160a01b900460ff1615620006795760405162461bcd60e51b8152600401620003329060208082526004908201526322a1991b60e11b604082015260600190565b6021805460ff60a01b1916600160a01b179055620003ea81620013c0565b6001620006a36200112a565b1515600114620006c75760405162461bcd60e51b8152600401620003329062002b70565b620007323360026005018054806020026020016040519081016040528092919081815260200182805480156200072757602002820191906000526020600020905b81546001600160a01b0316815260019091019060200180831162000708575b50505050506200158e565b15156001146200076e5760405162461bcd60e51b815260040162000332906020808252600490820152634543323360e01b604082015260600190565b60405163f7cf62d760e01b815273__AddressLibrary________________________9063f7cf62d790620007aa90339060099060040162002933565b60206040518083038186803b158015620007c357600080fd5b505af4158015620007d8573d6000803e3d6000fd5b505050506040513d601f19601f82011682018060405250810190620007fe919062002769565b15620008335760405162461bcd60e51b815260206004820152600360248201526245433560e81b604482015260640162000332565b6003544210156200093757600980546001810182556000919091527f6e1540171b6c0c960b71a7020d9f60077f6af931a8bbf590da0223dacf75c7af0180546001600160a01b031916331790558115620008de5760086200089e3362000898620015a6565b620016b2565b81548110620008b157620008b162002ead565b906000526020600020015460026003016000828254620008d2919062002ce9565b90915550620009299050565b6008620008ef3362000898620015a6565b8154811062000902576200090262002ead565b90600052602060002001546002600401600082825462000923919062002ce9565b90915550505b620009336200174e565b5050565b600e5460ff161562000953576200094d62001896565b6200095d565b6200095d620018b2565b620009336200116a565b6000620002e5620018bc565b6040805160078082526101008201909252606091600091906020820160e0803683375050600f5460405163bc215e8560e01b815292935073__AddressLibrary________________________9263bc215e859250620009df916001600160a01b031690600401620028c1565b60206040518083038186803b158015620009f857600080fd5b505af415801562000a0d573d6000803e3d6000fd5b505050506040513d601f19601f8201168201806040525081019062000a33919062002789565b8160008151811062000a495762000a4962002ead565b602090810291909101015260105460405163bc215e8560e01b815273__AddressLibrary________________________9163bc215e859162000a98916001600160a01b031690600401620028c1565b60206040518083038186803b15801562000ab157600080fd5b505af415801562000ac6573d6000803e3d6000fd5b505050506040513d601f19601f8201168201806040525081019062000aec919062002789565b8160018151811062000b025762000b0262002ead565b602090810291909101015260115460405163bc215e8560e01b815273__AddressLibrary________________________9163bc215e859162000b51916001600160a01b031690600401620028c1565b60206040518083038186803b15801562000b6a57600080fd5b505af415801562000b7f573d6000803e3d6000fd5b505050506040513d601f19601f8201168201806040525081019062000ba5919062002789565b8160028151811062000bbb5762000bbb62002ead565b602090810291909101015260125460405163bc215e8560e01b815273__AddressLibrary________________________9163bc215e859162000c0a916001600160a01b031690600401620028c1565b60206040518083038186803b15801562000c2357600080fd5b505af415801562000c38573d6000803e3d6000fd5b505050506040513d601f19601f8201168201806040525081019062000c5e919062002789565b8160038151811062000c745762000c7462002ead565b602090810291909101015260135460405163bc215e8560e01b815273__AddressLibrary________________________9163bc215e859162000cc3916001600160a01b031690600401620028c1565b60206040518083038186803b15801562000cdc57600080fd5b505af415801562000cf1573d6000803e3d6000fd5b505050506040513d601f19601f8201168201806040525081019062000d17919062002789565b8160048151811062000d2d5762000d2d62002ead565b602090810291909101015260145460405163bc215e8560e01b815273__AddressLibrary________________________9163bc215e859162000d7c916001600160a01b031690600401620028c1565b60206040518083038186803b15801562000d9557600080fd5b505af415801562000daa573d6000803e3d6000fd5b505050506040513d601f19601f8201168201806040525081019062000dd0919062002789565b8160058151811062000de65762000de662002ead565b602090810291909101015260155460405163bc215e8560e01b815273__AddressLibrary________________________9163bc215e859162000e35916001600160a01b031690600401620028c1565b60206040518083038186803b15801562000e4e57600080fd5b505af415801562000e63573d6000803e3d6000fd5b505050506040513d601f19601f8201168201806040525081019062000e89919062002789565b8160068151811062000e9f5762000e9f62002ead565b6020908102919091010152919050565b62000ebe838383600062001902565b505050565b6000620002e5620019c0565b6000620002e562001a06565b600054610100900460ff168062000ef5575060005460ff16155b62000f145760405162461bcd60e51b8152600401620003329062002b22565b600054610100900460ff1615801562000f37576000805461ffff19166101011790555b62000f428262000f89565b600180546001600160a01b0319166001600160a01b03851617815562000f6e9087908790879062001902565b801562000f81576000805461ff00191690555b505050505050565b600054610100900460ff168062000fa3575060005460ff16155b62000fc25760405162461bcd60e51b8152600401620003329062002b22565b600054610100900460ff1615801562000fe5576000805461ffff19166101011790555b6000805462010000600160b01b031916620100006001600160a01b03851602179055801562000933576000805461ff00191690555050565b6021546040805163dc4ff91360e01b815290516000926001600160a01b03169163dc4ff913916004808301926020929190829003018186803b1580156200106357600080fd5b505afa15801562001078573d6000803e3d6000fd5b505050506040513d601f19601f82011682018060405250810190620002e5919062002650565b601d546040805163dc4ff91360e01b815290516000926001600160a01b03169163dc4ff913916004808301926020929190829003018186803b1580156200106357600080fd5b601e5460408051635c60da1b60e01b815290516000926001600160a01b031691635c60da1b916004808301926020929190829003018186803b1580156200106357600080fd5b6003546000904210156200113e5750600190565b6002546001600160a01b03161562001164576200115a620018b2565b620011646200116a565b50600090565b600280546001600160a01b0319168155600060038190556004819055600581905560068190556200119d6007826200247d565b620011ad6006830160006200247d565b620009336007830160006200247d565b601b546040805163dc4ff91360e01b815290516000926001600160a01b03169163dc4ff913916004808301926020929190829003018186803b1580156200106357600080fd5b60006200120f6200112a565b15620012475760405162461bcd60e51b815260040162000332906020808252600490820152631150cc8d60e21b604082015260600190565b620012523362001a4b565b1515600114620012765760405162461bcd60e51b8152600401620003329062002b04565b62001280620015a6565b805162001296916007916020909101906200249d565b50600754620013035760405162461bcd60e51b815260206004820152603260248201527f496d706f737369626c6520746f206164642070726f706f736974696f6e2c20746044820152716865726520617265206e6f2061646d696e7360701b606482015260840162000332565b600280546001600160a01b031916331790556003839055606460ff83166200132a62001b0d565b62001336919062002d27565b62001342919062002d04565b6004556200134f62001c0c565b8051620013659160089160209091019062002507565b506002546003546004546040516001600160a01b03909316927f7ec97bdcf80d0b85a7cccd3b92c27116caaa95fa630cb01fac8243b7cdbd9c1692620013b392909160079060089062002bd6565b60405180910390a2505050565b620013cf602082018262002630565b601f80546001600160a01b0319166001600160a01b039290921691909117905562001401604082016020830162002630565b602080546001600160a01b0319166001600160a01b039290921691909117905562001433606082016040830162002630565b602180546001600160a01b0319166001600160a01b039290921691909117905562001465608082016060830162002630565b601b80546001600160a01b0319166001600160a01b03929092169190911790556200149760a082016080830162002630565b604051620014a59062002545565b620014b19190620028c1565b604051809103906000f080158015620014ce573d6000803e3d6000fd5b50601c80546001600160a01b0319166001600160a01b03929092169190911790556200150160c0820160a0830162002630565b601d80546001600160a01b0319166001600160a01b03929092169190911790556200153360e0820160c0830162002630565b604051620015419062002545565b6200154d9190620028c1565b604051809103906000f0801580156200156a573d6000803e3d6000fd5b50601e80546001600160a01b0319166001600160a01b039290921691909117905550565b600081516200159e8484620016b2565b109392505050565b606060008060029054906101000a90046001600160a01b03166001600160a01b031663da3dce266040518163ffffffff1660e01b815260040160206040518083038186803b158015620015f857600080fd5b505afa1580156200160d573d6000803e3d6000fd5b505050506040513d601f19601f8201168201806040525081019062001633919062002650565b6001600160a01b03166388d44ee06040518163ffffffff1660e01b815260040160006040518083038186803b1580156200166c57600080fd5b505afa15801562001681573d6000803e3d6000fd5b505050506040513d6000823e601f3d908101601f19168201604052620016ab919081019062002670565b5092915050565b60405160016219125f60e01b0319815260009073__AddressLibrary________________________9063ffe6eda190620016f39086908690600401620028d5565b60206040518083038186803b1580156200170c57600080fd5b505af415801562001721573d6000803e3d6000fd5b505050506040513d601f19601f8201168201806040525081019062001747919062002789565b9392505050565b60045460055411156200180d57600e5460ff1615620017a557600c54600a55600d54600b805461010080840460ff90811690910261ffff199092169316929092179190911790556200179f62001896565b620017af565b620017af62001d11565b620017b96200116a565b6002546005546006546040516001600160a01b03909316927fbb4a143bf102bd92f1fc843143d4bc606c5dd8a33007056e8cb04be789a501d1926200180392909160099062002bac565b60405180910390a2565b60045460065411156200189457600e5460ff161562001836576200183062001896565b62001840565b62001840620018b2565b6200184a6200116a565b6002546005546006546040516001600160a01b03909316927fb4adfa35dce9431d6091df92c3aef5aae35d508e2f071cc0d5cdc8480b741a51926200180392909160099062002bac565b565b6000600c55600d805461ffff19169055600e805460ff19169055565b6200189462001d1b565b601f546040805163dc4ff91360e01b815290516000926001600160a01b03169163dc4ff913916004808301926020929190829003018186803b1580156200106357600080fd5b82828160ff16606410156200192b5760405162461bcd60e51b8152600401620003329062002b8e565b8060ff1660641015620019525760405162461bcd60e51b8152600401620003329062002b8e565b82156200197f57600a869055600b805460ff8681166101000261ffff199092169088161717905562000f81565b600c869055600d805460ff8681166101000261ffff1990921690881617179055600e805460ff19166001179055600a5462000f8190620003de904262002ce9565b601c5460408051635c60da1b60e01b815290516000926001600160a01b031691635c60da1b916004808301926020929190829003018186803b1580156200106357600080fd5b602080546040805163dc4ff91360e01b815290516000936001600160a01b039093169263dc4ff9139260048082019391829003018186803b1580156200106357600080fd5b6001546000906001600160a01b031633141562001a6a57506001919050565b600062001a76620015a6565b9050600062001a8462001c0c565b9050600062001a948584620016b2565b9050825181101562001afd57606462001aac62001b0d565b600b5462001ac39190610100900460ff1662002d27565b62001acf919062002d04565b82828151811062001ae45762001ae462002ead565b60200260200101511062001afd57506001949350505050565b506000949350505050565b919050565b60008060029054906101000a90046001600160a01b03166001600160a01b031663da3dce266040518163ffffffff1660e01b815260040160206040518083038186803b15801562001b5d57600080fd5b505afa15801562001b72573d6000803e3d6000fd5b505050506040513d601f19601f8201168201806040525081019062001b98919062002650565b6001600160a01b03166318160ddd6040518163ffffffff1660e01b815260040160206040518083038186803b15801562001bd157600080fd5b505afa15801562001be6573d6000803e3d6000fd5b505050506040513d601f19601f82011682018060405250810190620002e5919062002789565b606060008060029054906101000a90046001600160a01b03166001600160a01b031663da3dce266040518163ffffffff1660e01b815260040160206040518083038186803b15801562001c5e57600080fd5b505afa15801562001c73573d6000803e3d6000fd5b505050506040513d601f19601f8201168201806040525081019062001c99919062002650565b6001600160a01b03166388d44ee06040518163ffffffff1660e01b815260040160006040518083038186803b15801562001cd257600080fd5b505afa15801562001ce7573d6000803e3d6000fd5b505050506040513d6000823e601f3d908101601f1916820160405262001747919081019062002670565b620018b262001dad565b600f80546001600160a01b0319908116825560108054821690556011805482169055601280548216905560138054821690556014805482169055601580549091169055600062001d6d60168262002553565b62001d7d60088301600062002553565b62001d8d60098301600062002553565b62001d9d600a8301600062002553565b62000933600b8301600062002553565b600f546001600160a01b03161562001eb4576016805462001dce9062002e60565b15905062001e4957601f54600f5460405163278f794360e11b81526001600160a01b0392831692634f1ef2869262001e0f9291169060169060040162002986565b600060405180830381600087803b15801562001e2a57600080fd5b505af115801562001e3f573d6000803e3d6000fd5b5050505062001eb4565b601f54600f54604051631b2ce7f360e11b81526001600160a01b0392831692633659cfe69262001e7f92911690600401620028c1565b600060405180830381600087803b15801562001e9a57600080fd5b505af115801562001eaf573d6000803e3d6000fd5b505050505b6010546001600160a01b03161562001fbb576017805462001ed59062002e60565b15905062001f505760205460105460405163278f794360e11b81526001600160a01b0392831692634f1ef2869262001f169291169060179060040162002986565b600060405180830381600087803b15801562001f3157600080fd5b505af115801562001f46573d6000803e3d6000fd5b5050505062001fbb565b602054601054604051631b2ce7f360e11b81526001600160a01b0392831692633659cfe69262001f8692911690600401620028c1565b600060405180830381600087803b15801562001fa157600080fd5b505af115801562001fb6573d6000803e3d6000fd5b505050505b6011546001600160a01b031615620020c2576018805462001fdc9062002e60565b159050620020575760215460115460405163278f794360e11b81526001600160a01b0392831692634f1ef286926200201d9291169060189060040162002986565b600060405180830381600087803b1580156200203857600080fd5b505af11580156200204d573d6000803e3d6000fd5b50505050620020c2565b602154601154604051631b2ce7f360e11b81526001600160a01b0392831692633659cfe6926200208d92911690600401620028c1565b600060405180830381600087803b158015620020a857600080fd5b505af1158015620020bd573d6000803e3d6000fd5b505050505b6012546001600160a01b031615620021c95760198054620020e39062002e60565b1590506200215e57601b5460125460405163278f794360e11b81526001600160a01b0392831692634f1ef28692620021249291169060199060040162002986565b600060405180830381600087803b1580156200213f57600080fd5b505af115801562002154573d6000803e3d6000fd5b50505050620021c9565b601b54601254604051631b2ce7f360e11b81526001600160a01b0392831692633659cfe6926200219492911690600401620028c1565b600060405180830381600087803b158015620021af57600080fd5b505af1158015620021c4573d6000803e3d6000fd5b505050505b6014546001600160a01b031615620022d057601a8054620021ea9062002e60565b1590506200226557601d5460145460405163278f794360e11b81526001600160a01b0392831692634f1ef286926200222b92911690601a9060040162002986565b600060405180830381600087803b1580156200224657600080fd5b505af11580156200225b573d6000803e3d6000fd5b50505050620022d0565b601d54601454604051631b2ce7f360e11b81526001600160a01b0392831692633659cfe6926200229b92911690600401620028c1565b600060405180830381600087803b158015620022b657600080fd5b505af1158015620022cb573d6000803e3d6000fd5b505050505b6013546001600160a01b0316156200234d57601c54601354604051631b2ce7f360e11b81526001600160a01b0392831692633659cfe6926200231892911690600401620028c1565b600060405180830381600087803b1580156200233357600080fd5b505af115801562002348573d6000803e3d6000fd5b505050505b6015546001600160a01b031615620023ca57601e54601554604051631b2ce7f360e11b81526001600160a01b0392831692633659cfe6926200239592911690600401620028c1565b600060405180830381600087803b158015620023b057600080fd5b505af1158015620023c5573d6000803e3d6000fd5b505050505b7f9f556b3233512aec544690cac60d870b2e6c701a89ec415c193c147b28035aa4620023f5620018bc565b620023ff62001a06565b620024096200101d565b62002413620011bd565b6200241d620019c0565b620024276200109e565b62002431620010e4565b604080516001600160a01b03988916815296881660208801529487168686015292861660608601529085166080850152841660a084015290921660c082015290519081900360e00190a1565b5080546000825590600052602060002090810190620003ea91906200258d565b828054828255906000526020600020908101928215620024f5579160200282015b82811115620024f557825182546001600160a01b0319166001600160a01b03909116178255602090920191600190910190620024be565b50620025039291506200258d565b5090565b828054828255906000526020600020908101928215620024f5579160200282015b82811115620024f557825182559160200191906001019062002528565b610523806200309f83390190565b508054620025619062002e60565b6000825580601f1062002572575050565b601f016020900490600052602060002090810190620003ea91905b5b808211156200250357600081556001016200258e565b600082601f830112620025b657600080fd5b81516020620025cf620025c98362002cc3565b62002c90565b80838252828201915082860187848660051b8901011115620025f057600080fd5b60005b858110156200261157815184529284019290840190600101620025f3565b5090979650505050505050565b803560ff8116811462001b0857600080fd5b6000602082840312156200264357600080fd5b8135620017478162003079565b6000602082840312156200266357600080fd5b8151620017478162003079565b600080604083850312156200268457600080fd5b82516001600160401b03808211156200269c57600080fd5b818501915085601f830112620026b157600080fd5b81516020620026c4620025c98362002cc3565b8083825282820191508286018a848660051b8901011115620026e557600080fd5b600096505b8487101562002715578051620027008162003079565b835260019690960195918301918301620026ea565b50918801519196509093505050808211156200273057600080fd5b506200273f85828601620025a4565b9150509250929050565b6000602082840312156200275c57600080fd5b813562001747816200308f565b6000602082840312156200277c57600080fd5b815162001747816200308f565b6000602082840312156200279c57600080fd5b5051919050565b600060e08284031215620027b657600080fd5b50919050565b600060208284031215620027cf57600080fd5b81356001600160401b03811115620027e657600080fd5b820161018081850312156200174757600080fd5b6000806000606084860312156200281057600080fd5b8335925062002822602085016200261e565b915062002832604085016200261e565b90509250925092565b600081518084526020808501945080840160005b83811015620028765781516001600160a01b0316875295820195908201906001016200284f565b509495945050505050565b6000815480845260208085019450836000528060002060005b83811015620028765781546001600160a01b0316875295820195600191820191016200289a565b6001600160a01b0391909116815260200190565b6001600160a01b038381168252604060208084018290528451918401829052600092858201929091906060860190855b818110156200292557855185168352948301949183019160010162002905565b509098975050505050505050565b60006040820160018060a01b03808616845260206040818601528286548085526060870191508760005282600020945060005b818110156200292557855485168352600195860195928401920162002966565b60018060a01b03831681526000602060408184015260008454620029aa8162002e60565b8060408701526060600180841660008114620029cf5760018114620029e45762002a14565b60ff1985168984015260808901955062002a14565b896000528660002060005b8581101562002a0c5781548b8201860152908301908801620029ef565b8a0184019650505b50939998505050505050505050565b600061010060018060a01b038b16835260208a818501528960408501528860608501528760808501528160a085015262002a60828501886200283b565b84810360c0860152865180825282880193509082019060005b8181101562002a975784518352938301939183019160010162002a79565b505084810360e086015262002aad81876200283b565b9d9c50505050505050505050505050565b6020808252825182820181905260009190848201906040850190845b8181101562002af85783518352928401929184019160010162002ada565b50909695505050505050565b60208082526004908201526322a1991960e11b604082015260600190565b6020808252602e908201527f496e697469616c697a61626c653a20636f6e747261637420697320616c72656160408201526d191e481a5b9a5d1a585b1a5e995960921b606082015260800190565b6020808252600490820152634543323560e01b604082015260600190565b6020808252600490820152634543323160e01b604082015260600190565b83815282602082015260606040820152600062002bcd606083018462002881565b95945050505050565b8481526000602085818401526080604084015262002bf8608084018662002881565b83810360608501528454808252600086815283812092840191905b8181101562002c315783548352600193840193928501920162002c13565b50909998505050505050505050565b6000808335601e1984360301811262002c5857600080fd5b8301803591506001600160401b0382111562002c7357600080fd5b60200191503681900382131562002c8957600080fd5b9250929050565b604051601f8201601f191681016001600160401b038111828210171562002cbb5762002cbb62002ec3565b604052919050565b60006001600160401b0382111562002cdf5762002cdf62002ec3565b5060051b60200190565b6000821982111562002cff5762002cff62002e97565b500190565b60008262002d2257634e487b7160e01b600052601260045260246000fd5b500490565b600081600019048311821515161562002d445762002d4462002e97565b500290565b601f82111562000ebe57600081815260208120601f850160051c8101602086101562002d725750805b601f850160051c820191505b8181101562000f815782815560010162002d7e565b6001600160401b0383111562002dad5762002dad62002ec3565b62002dc58362002dbe835462002e60565b8362002d49565b6000601f84116001811462002dfc576000851562002de35750838201355b600019600387901b1c1916600186901b17835562002e59565b600083815260209020601f19861690835b8281101562002e2f578685013582556020948501946001909201910162002e0d565b508682101562002e4d5760001960f88860031b161c19848701351681555b505060018560011b0183555b5050505050565b600181811c9082168062002e7557607f821691505b60208210811415620027b657634e487b7160e01b600052602260045260246000fd5b634e487b7160e01b600052601160045260246000fd5b634e487b7160e01b600052603260045260246000fd5b634e487b7160e01b600052604160045260246000fd5b6000813562002ee88162003079565b92915050565b80546001600160a01b0319166001600160a01b0392909216919091179055565b62002f2462002f1d8362002ed9565b8262002eee565b62002f4062002f366020840162002ed9565b6001830162002eee565b62002f5c62002f526040840162002ed9565b6002830162002eee565b62002f7862002f6e6060840162002ed9565b6003830162002eee565b62002f9462002f8a6080840162002ed9565b6004830162002eee565b62002fb062002fa660a0840162002ed9565b6005830162002eee565b62002fcc62002fc260c0840162002ed9565b6006830162002eee565b62002fdb60e083018362002c40565b62002feb81836007860162002d93565b505062002ffd61010083018362002c40565b6200300d81836008860162002d93565b50506200301f61012083018362002c40565b6200302f81836009860162002d93565b50506200304161014083018362002c40565b620030518183600a860162002d93565b50506200306361016083018362002c40565b620030738183600b860162002d93565b50505050565b6001600160a01b0381168114620003ea57600080fd5b8015158114620003ea57600080fdfe608060405234801561001057600080fd5b5060405161052338038061052383398101604081905261002f91610148565b61003833610047565b61004181610097565b50610178565b600080546001600160a01b038381166001600160a01b0319831681178455604051919092169283917f8be0079c531659141344cd1fd0a4f28419497f9722a3daafe3b4186f6b6457e09190a35050565b6100aa8161014260201b61021f1760201c565b6101205760405162461bcd60e51b815260206004820152603360248201527f5570677261646561626c65426561636f6e3a20696d706c656d656e746174696f60448201527f6e206973206e6f74206120636f6e747261637400000000000000000000000000606482015260840160405180910390fd5b600180546001600160a01b0319166001600160a01b0392909216919091179055565b3b151590565b60006020828403121561015a57600080fd5b81516001600160a01b038116811461017157600080fd5b9392505050565b61039c806101876000396000f3fe608060405234801561001057600080fd5b50600436106100575760003560e01c80633659cfe61461005c5780635c60da1b14610071578063715018a61461009a5780638da5cb5b146100a2578063f2fde38b146100aa575b600080fd5b61006f61006a366004610301565b6100bd565b005b6001546001600160a01b03165b6040516001600160a01b03909116815260200160405180910390f35b61006f610135565b61007e610170565b61006f6100b8366004610301565b61017f565b336100c6610170565b6001600160a01b0316146100f55760405162461bcd60e51b81526004016100ec90610331565b60405180910390fd5b6100fe81610225565b6040516001600160a01b038216907fbc7cd75a20ee27fd9adebab32041f755214dbc6bffa90cc0225b39da2e5c2d3b90600090a250565b3361013e610170565b6001600160a01b0316146101645760405162461bcd60e51b81526004016100ec90610331565b61016e60006102b1565b565b6000546001600160a01b031690565b33610188610170565b6001600160a01b0316146101ae5760405162461bcd60e51b81526004016100ec90610331565b6001600160a01b0381166102135760405162461bcd60e51b815260206004820152602660248201527f4f776e61626c653a206e6577206f776e657220697320746865207a65726f206160448201526564647265737360d01b60648201526084016100ec565b61021c816102b1565b50565b3b151590565b803b61028f5760405162461bcd60e51b815260206004820152603360248201527f5570677261646561626c65426561636f6e3a20696d706c656d656e746174696f6044820152721b881a5cc81b9bdd08184818dbdb9d1c9858dd606a1b60648201526084016100ec565b600180546001600160a01b0319166001600160a01b0392909216919091179055565b600080546001600160a01b038381166001600160a01b0319831681178455604051919092169283917f8be0079c531659141344cd1fd0a4f28419497f9722a3daafe3b4186f6b6457e09190a35050565b60006020828403121561031357600080fd5b81356001600160a01b038116811461032a57600080fd5b9392505050565b6020808252818101527f4f776e61626c653a2063616c6c6572206973206e6f7420746865206f776e657260408201526060019056fea2646970667358221220736d14b1e38cf554db976d4936fa0778be2419afd8caecf0ecc77a2430e463e764736f6c63430008060033a2646970667358221220b3a0e539850a5e06143b185bbd80b16b23364bea01d9bd84b8f708fbaf9bcf3064736f6c63430008060033",
  "immutableReferences": {},
  "source": "// SPDX-License-Identifier: GPL-3.0\r\n\r\npragma solidity >=0.7.0 <0.9.0;\r\n\r\n/**\r\n * @title Storage\r\n * @dev Store & retrieve value in a variable\r\n */\r\n\r\nimport \"../Interfaces/IProxyManager.sol\";\r\nimport \"./Proxies/GenericProxy.sol\";\r\nimport \"./Proxies/CertisTokenProxy.sol\";\r\nimport \"../Base/TokenGovernanceBaseContract.sol\";\r\nimport \"../Libraries/AddressLibrary.sol\";\r\nimport \"../Libraries/Library.sol\";\r\nimport \"@openzeppelin/contracts-upgradeable/proxy/utils/Initializable.sol\";\r\nimport \"@openzeppelin/contracts/proxy/beacon/UpgradeableBeacon.sol\";\r\nimport \"@openzeppelin/contracts/proxy/transparent/TransparentUpgradeableProxy.sol\";\r\n\r\ncontract CertificatesPoolManager is IProxyManager, TokenGovernanceBaseContract{\r\n    using AddressLibrary for *;\r\n    using Library for *;\r\n\r\n    // EVENTS /////////////////////////////////////////\r\n    event _NewContracts(address, address, address, address, address, address, address);\r\n\r\n    // DATA /////////////////////////////////////////\r\n    // proposition to change\r\n    Library.ProposedContractsStruct _ProposedContracts;\r\n    \r\n    // Private Certificate Pools Factory\r\n    GenericProxy _PrivatePoolFactory;\r\n\r\n    // Private Certificates Pool\r\n    UpgradeableBeacon _PrivateCertificatePoolBeacon;\r\n\r\n    // Provider Factory\r\n    GenericProxy _ProviderFactory;\r\n\r\n    // Provider\r\n    UpgradeableBeacon _ProviderBeacon;\r\n\r\n    // Public Certificates Pool\r\n    GenericProxy  _PublicCertificatesPool;\r\n\r\n    // Treasury\r\n    GenericProxy _Treasury;\r\n\r\n    // Certis Token\r\n    CertisTokenProxy _CertisToken;\r\n\r\n    // init\r\n    bool _init;\r\n\r\n    // MODIFIERS /////////////////////////////////////////\r\n    modifier isNotInitialized(){\r\n        require(false == _init, \"EC26\");\r\n        _;\r\n    }\r\n\r\n    // CONSTRUCTOR and INITIALIZATION /////////////////////////////////////////\r\n    constructor(uint256 PropositionLifeTime, uint8 PropositionThresholdPercentage, uint8 minWeightToProposePercentage) \r\n    {\r\n        super.TokenGovernanceContract_init(PropositionLifeTime, PropositionThresholdPercentage, minWeightToProposePercentage, msg.sender, address(this));\r\n        _init = false;\r\n    }\r\n\r\n    function InitializeContracts(Library.InitialContractsStruct calldata initialContracts) \r\n        isFromChairPerson()\r\n        isNotInitialized()\r\n    external\r\n    {\r\n        _init = true;\r\n        initProxies(initialContracts);\r\n    }\r\n\r\n    // FUNCTIONALITY /////////////////////////////////////////\r\n    // governance : contracts assignment and management\r\n    function upgradeContracts(Library.ProposedContractsStruct calldata UpgradeProposition) external override\r\n    {\r\n        _ProposedContracts = UpgradeProposition;\r\n        addProposition(block.timestamp + _PropositionLifeTime, _PropositionThresholdPercentage);\r\n    }\r\n\r\n    function propositionApproved() internal override\r\n    {\r\n        upgradeContractsImplementations();\r\n        removeProposition();\r\n    }\r\n\r\n    function propositionRejected() internal override\r\n    {\r\n        removeProposition();\r\n    }\r\n\r\n    function propositionExpired() internal override\r\n    {\r\n        removeProposition();\r\n    }\r\n\r\n    function removeProposition() internal\r\n    {\r\n       delete(_ProposedContracts);\r\n    }\r\n\r\n    function retrieveProposition() external override view returns(bytes32[] memory)\r\n    {\r\n        bytes32[] memory proposition = new bytes32[](7);\r\n        proposition[0] = AddressLibrary.AddressToBytes32(_ProposedContracts.NewPublicPoolAddress);\r\n        proposition[1] = AddressLibrary.AddressToBytes32(_ProposedContracts.NewTreasuryAddress);\r\n        proposition[2] = AddressLibrary.AddressToBytes32(_ProposedContracts.NewCertisTokenAddress);\r\n        proposition[3] = AddressLibrary.AddressToBytes32(_ProposedContracts.NewPrivatePoolFactoryAddress);\r\n        proposition[4] = AddressLibrary.AddressToBytes32(_ProposedContracts.NewPrivatePoolAddress);\r\n        proposition[5] = AddressLibrary.AddressToBytes32(_ProposedContracts.NewProviderFactoryAddress);\r\n        proposition[6] = AddressLibrary.AddressToBytes32(_ProposedContracts.NewProviderAddress);\r\n        return proposition;\r\n    }\r\n\r\n    function initProxies(Library.InitialContractsStruct calldata initialContracts) private\r\n    {\r\n        _PublicCertificatesPool = GenericProxy(initialContracts.PublicPoolProxyAddress);\r\n        _Treasury = GenericProxy(initialContracts.TreasuryProxyAddress);\r\n        _CertisToken = CertisTokenProxy(initialContracts.CertisTokenProxyAddress);\r\n        _PrivatePoolFactory = GenericProxy(initialContracts.PrivatePoolFactoryProxyAddress);\r\n        _PrivateCertificatePoolBeacon = new UpgradeableBeacon(initialContracts.PrivateCertificatePoolImplAddress);\r\n        _ProviderFactory = GenericProxy(initialContracts.ProviderFactoryProxyAddress);\r\n        _ProviderBeacon = new UpgradeableBeacon(initialContracts.ProviderImplAddress);\r\n    }\r\n\r\n    function upgradeContractsImplementations() private\r\n    {\r\n        if(address(0) != _ProposedContracts.NewPublicPoolAddress){\r\n            if(0 < _ProposedContracts.NewPublicPoolData.length)_PublicCertificatesPool.upgradeToAndCall(_ProposedContracts.NewPublicPoolAddress, _ProposedContracts.NewPublicPoolData);\r\n            else _PublicCertificatesPool.upgradeTo(_ProposedContracts.NewPublicPoolAddress);\r\n        }\r\n        if(address(0) != _ProposedContracts.NewTreasuryAddress){\r\n            if(0 < _ProposedContracts.NewTreasuryData.length)_Treasury.upgradeToAndCall(_ProposedContracts.NewTreasuryAddress, _ProposedContracts.NewTreasuryData);\r\n            else _Treasury.upgradeTo(_ProposedContracts.NewTreasuryAddress);\r\n        }\r\n        if(address(0) != _ProposedContracts.NewCertisTokenAddress){\r\n            if(0 < _ProposedContracts.NewCertisTokenData.length)_CertisToken.upgradeToAndCall(_ProposedContracts.NewCertisTokenAddress, _ProposedContracts.NewCertisTokenData);\r\n            else _CertisToken.upgradeTo(_ProposedContracts.NewCertisTokenAddress);\r\n        }\r\n        if(address(0) != _ProposedContracts.NewPrivatePoolFactoryAddress){\r\n            if(0 < _ProposedContracts.NewPrivatePoolFactoryData.length)_PrivatePoolFactory.upgradeToAndCall(_ProposedContracts.NewPrivatePoolFactoryAddress, _ProposedContracts.NewPrivatePoolFactoryData);\r\n            else _PrivatePoolFactory.upgradeTo(_ProposedContracts.NewPrivatePoolFactoryAddress);\r\n        }\r\n        if(address(0) != _ProposedContracts.NewProviderFactoryAddress){\r\n            if(0 < _ProposedContracts.NewProviderFactoryData.length)_ProviderFactory.upgradeToAndCall(_ProposedContracts.NewProviderFactoryAddress, _ProposedContracts.NewProviderFactoryData);\r\n            else _ProviderFactory.upgradeTo(_ProposedContracts.NewProviderFactoryAddress);\r\n        }\r\n        if(address(0) != _ProposedContracts.NewPrivatePoolAddress)_PrivateCertificatePoolBeacon.upgradeTo(_ProposedContracts.NewPrivatePoolAddress);\r\n        if(address(0) != _ProposedContracts.NewProviderAddress)_ProviderBeacon.upgradeTo(_ProposedContracts.NewProviderAddress);\r\n\r\n        emit _NewContracts(internalRetrievePublicCertificatePool(), internalRetrieveTreasury(), internalRetrieveCertisToken(), internalRetrievePrivatePoolFactory(), internalRetrievePrivatePool(), internalRetrieveProviderFactory(), internalRetrieveProvider());\r\n    }\r\n\r\n    // configuration Proxies\r\n    function retrievePublicCertificatePoolProxy() external override view returns (address) {\r\n        return (address(_PublicCertificatesPool));\r\n    }\r\n\r\n    function retrieveTreasuryProxy() external override view returns (address) {\r\n        return (address(_Treasury));\r\n    }\r\n\r\n    function retrieveCertisTokenProxy() external override view returns (address) {\r\n        return (address(_CertisToken));\r\n    }\r\n\r\n    function retrievePrivatePoolFactoryProxy() external override view returns (address) {\r\n        return (address(_PrivatePoolFactory));\r\n    }\r\n\r\n    function retrievePrivatePoolBeacon() external override view returns (address) {\r\n        return (address(_PrivateCertificatePoolBeacon));\r\n    }\r\n\r\n    function retrieveProviderFactoryProxy() external override view returns (address) {\r\n        return (address(_ProviderFactory));\r\n    }\r\n\r\n    function retrieveProviderBeacon() external override view returns (address) {\r\n        return (address(_ProviderBeacon));\r\n    }\r\n\r\n    // configuration implementations\r\n    function retrievePublicCertificatePool() external override view returns (address) {\r\n        return internalRetrievePublicCertificatePool();\r\n    }\r\n\r\n    function retrieveTreasury() external override view returns (address) {\r\n        return internalRetrieveTreasury();\r\n    }\r\n\r\n    function retrieveCertisToken() external override view returns (address) {\r\n        return internalRetrieveCertisToken();\r\n    }\r\n\r\n    function retrievePrivatePoolFactory() external override view returns (address) {\r\n        return internalRetrievePrivatePoolFactory();\r\n    }\r\n\r\n    function retrievePrivatePool() external override view returns (address) {\r\n        return internalRetrievePrivatePool();\r\n    }\r\n\r\n    function retrieveProviderFactory() external override view returns (address) {\r\n        return internalRetrieveProviderFactory();\r\n    }\r\n\r\n    function retrieveProvider() external override view returns (address) {\r\n        return internalRetrieveProvider();\r\n    }\r\n\r\n    // internal\r\n    function internalRetrievePublicCertificatePool() internal view returns (address) {\r\n        return _PublicCertificatesPool.retrieveImplementation();\r\n    }\r\n\r\n    function internalRetrieveTreasury() internal view returns (address) {\r\n        return _Treasury.retrieveImplementation();\r\n    }\r\n\r\n    function internalRetrieveCertisToken() internal view returns (address) {\r\n        return _CertisToken.retrieveImplementation();\r\n    }\r\n\r\n    function internalRetrievePrivatePoolFactory() internal view returns (address) {\r\n        return _PrivatePoolFactory.retrieveImplementation();\r\n    }\r\n\r\n    function internalRetrievePrivatePool() internal view returns (address) {\r\n        return _PrivateCertificatePoolBeacon.implementation();\r\n    }\r\n\r\n    function internalRetrieveProviderFactory() internal view returns (address) {\r\n        return _ProviderFactory.retrieveImplementation();\r\n    }\r\n\r\n    function internalRetrieveProvider() internal view returns (address) {\r\n        return _ProviderBeacon.implementation();\r\n    }\r\n    \r\n}",
  "sourcePath": "C:/Users/d-aam/GitHub/Certificates/contracts/DeployedContracts/CertificatesPoolManager.sol",
  "compiler": {
    "name": "solc",
    "version": "0.8.6+commit.11564f7e.Emscripten.clang"
  },
  "schemaVersion": "3.3.4",
  "updatedAt": "2021-08-10T13:36:38.698Z",
  "devdoc": {
    "kind": "dev",
    "methods": {},
    "version": 1
  },
  "userdoc": {
    "kind": "user",
    "methods": {},
    "version": 1
  }
}