{
  "contractName": "CertisToken",
  "abi": [
    {
      "anonymous": false,
      "inputs": [
        {
          "indexed": true,
          "internalType": "address",
          "name": "owner",
          "type": "address"
        },
        {
          "indexed": true,
          "internalType": "address",
          "name": "spender",
          "type": "address"
        },
        {
          "indexed": false,
          "internalType": "uint256",
          "name": "value",
          "type": "uint256"
        }
      ],
      "name": "Approval",
      "type": "event"
    },
    {
      "anonymous": false,
      "inputs": [
        {
          "indexed": true,
          "internalType": "address",
          "name": "from",
          "type": "address"
        },
        {
          "indexed": true,
          "internalType": "address",
          "name": "to",
          "type": "address"
        },
        {
          "indexed": false,
          "internalType": "uint256",
          "name": "value",
          "type": "uint256"
        }
      ],
      "name": "Transfer",
      "type": "event"
    },
    {
      "inputs": [
        {
          "internalType": "address",
          "name": "owner",
          "type": "address"
        },
        {
          "internalType": "address",
          "name": "spender",
          "type": "address"
        }
      ],
      "name": "allowance",
      "outputs": [
        {
          "internalType": "uint256",
          "name": "",
          "type": "uint256"
        }
      ],
      "stateMutability": "view",
      "type": "function"
    },
    {
      "inputs": [
        {
          "internalType": "address",
          "name": "spender",
          "type": "address"
        },
        {
          "internalType": "uint256",
          "name": "amount",
          "type": "uint256"
        }
      ],
      "name": "approve",
      "outputs": [
        {
          "internalType": "bool",
          "name": "",
          "type": "bool"
        }
      ],
      "stateMutability": "nonpayable",
      "type": "function"
    },
    {
      "inputs": [
        {
          "internalType": "address",
          "name": "account",
          "type": "address"
        }
      ],
      "name": "balanceOf",
      "outputs": [
        {
          "internalType": "uint256",
          "name": "",
          "type": "uint256"
        }
      ],
      "stateMutability": "view",
      "type": "function"
    },
    {
      "inputs": [
        {
          "internalType": "address",
          "name": "spender",
          "type": "address"
        },
        {
          "internalType": "uint256",
          "name": "subtractedValue",
          "type": "uint256"
        }
      ],
      "name": "decreaseAllowance",
      "outputs": [
        {
          "internalType": "bool",
          "name": "",
          "type": "bool"
        }
      ],
      "stateMutability": "nonpayable",
      "type": "function"
    },
    {
      "inputs": [
        {
          "internalType": "address",
          "name": "spender",
          "type": "address"
        },
        {
          "internalType": "uint256",
          "name": "addedValue",
          "type": "uint256"
        }
      ],
      "name": "increaseAllowance",
      "outputs": [
        {
          "internalType": "bool",
          "name": "",
          "type": "bool"
        }
      ],
      "stateMutability": "nonpayable",
      "type": "function"
    },
    {
      "inputs": [],
      "name": "name",
      "outputs": [
        {
          "internalType": "string",
          "name": "",
          "type": "string"
        }
      ],
      "stateMutability": "view",
      "type": "function"
    },
    {
      "inputs": [],
      "name": "symbol",
      "outputs": [
        {
          "internalType": "string",
          "name": "",
          "type": "string"
        }
      ],
      "stateMutability": "view",
      "type": "function"
    },
    {
      "inputs": [],
      "name": "totalSupply",
      "outputs": [
        {
          "internalType": "uint256",
          "name": "",
          "type": "uint256"
        }
      ],
      "stateMutability": "view",
      "type": "function"
    },
    {
      "inputs": [
        {
          "internalType": "address",
          "name": "recipient",
          "type": "address"
        },
        {
          "internalType": "uint256",
          "name": "amount",
          "type": "uint256"
        }
      ],
      "name": "transfer",
      "outputs": [
        {
          "internalType": "bool",
          "name": "",
          "type": "bool"
        }
      ],
      "stateMutability": "nonpayable",
      "type": "function"
    },
    {
      "inputs": [
        {
          "internalType": "address",
          "name": "sender",
          "type": "address"
        },
        {
          "internalType": "address",
          "name": "recipient",
          "type": "address"
        },
        {
          "internalType": "uint256",
          "name": "amount",
          "type": "uint256"
        }
      ],
      "name": "transferFrom",
      "outputs": [
        {
          "internalType": "bool",
          "name": "",
          "type": "bool"
        }
      ],
      "stateMutability": "nonpayable",
      "type": "function"
    },
    {
      "inputs": [
        {
          "internalType": "string",
          "name": "name",
          "type": "string"
        },
        {
          "internalType": "string",
          "name": "symbol",
          "type": "string"
        },
        {
          "internalType": "uint8",
          "name": "decimalsValue",
          "type": "uint8"
        },
        {
          "internalType": "uint256",
          "name": "MaxSupply",
          "type": "uint256"
        }
      ],
      "name": "CertisToken_init",
      "outputs": [],
      "stateMutability": "nonpayable",
      "type": "function"
    },
    {
      "inputs": [],
      "name": "decimals",
      "outputs": [
        {
          "internalType": "uint8",
          "name": "",
          "type": "uint8"
        }
      ],
      "stateMutability": "view",
      "type": "function"
    },
    {
      "inputs": [],
      "name": "TokenOwners",
      "outputs": [
        {
          "internalType": "address[]",
          "name": "",
          "type": "address[]"
        },
        {
          "internalType": "uint256[]",
          "name": "",
          "type": "uint256[]"
        }
      ],
      "stateMutability": "view",
      "type": "function"
    }
  ],
  "bytecode": "0x608060405234801561001057600080fd5b506113be806100206000396000f3fe608060405234801561001057600080fd5b50600436106100af5760003560e01c806306fdde03146100b4578063095ea7b3146100d257806318160ddd146100f557806323b872dd14610107578063313ce5671461011a578063395093511461012f57806370a082311461014257806388d44ee01461015557806395d89b411461016b578063a457c2d714610173578063a9059cbb14610186578063da42adc614610199578063dd62ed3e146101ae575b600080fd5b6100bc6101e7565b6040516100c991906111b7565b60405180910390f35b6100e56100e0366004610f3e565b610279565b60405190151581526020016100c9565b6035545b6040519081526020016100c9565b6100e5610115366004610efd565b61028f565b60665460405160ff90911681526020016100c9565b6100e561013d366004610f3e565b61033e565b6100f9610150366004610ea0565b61037a565b61015d610395565b6040516100c9929190611133565b6100bc6104a5565b6100e5610181366004610f3e565b6104b4565b6100e5610194366004610f3e565b61054d565b6101ac6101a7366004611022565b61055a565b005b6100f96101bc366004610ec4565b6001600160a01b03918216600090815260346020908152604080832093909416825291909152205490565b6060603680546101f6906112bb565b80601f0160208091040260200160405190810160405280929190818152602001828054610222906112bb565b801561026f5780601f106102445761010080835404028352916020019161026f565b820191906000526020600020905b81548152906001019060200180831161025257829003601f168201915b5050505050905090565b600061028633848461060b565b50600192915050565b600061029c84848461072f565b6001600160a01b0384166000908152603460209081526040808320338452909152902054828110156103265760405162461bcd60e51b815260206004820152602860248201527f45524332303a207472616e7366657220616d6f756e74206578636565647320616044820152676c6c6f77616e636560c01b60648201526084015b60405180910390fd5b610333853385840361060b565b506001949350505050565b3360008181526034602090815260408083206001600160a01b038716845290915281205490916102869185906103759086906112a3565b61060b565b6001600160a01b031660009081526033602052604090205490565b606080600060658054806020026020016040519081016040528092919081815260200182805480156103f057602002820191906000526020600020905b81546001600160a01b031681526001909101906020018083116103d2575b50505050509050600081516001600160401b038111156104125761041261133d565b60405190808252806020026020018201604052801561043b578160200160208202803683370190505b50905060005b825181101561049b5761046c83828151811061045f5761045f611327565b602002602001015161037a565b82828151811061047e5761047e611327565b602090810291909101015280610493816112f6565b915050610441565b5090939092509050565b6060603780546101f6906112bb565b3360009081526034602090815260408083206001600160a01b0386168452909152812054828110156105365760405162461bcd60e51b815260206004820152602560248201527f45524332303a2064656372656173656420616c6c6f77616e63652062656c6f77604482015264207a65726f60d81b606482015260840161031d565b610543338585840361060b565b5060019392505050565b600061028633848461072f565b600054610100900460ff1680610573575060005460ff16155b61058f5760405162461bcd60e51b815260040161031d9061120c565b600054610100900460ff161580156105b1576000805461ffff19166101011790555b6105bb8585610902565b60408051600081526020810191829052516105d891606591610d43565b506066805460ff191660ff85161790556105f23383610982565b8015610604576000805461ff00191690555b5050505050565b6001600160a01b03831661066d5760405162461bcd60e51b8152602060048201526024808201527f45524332303a20617070726f76652066726f6d20746865207a65726f206164646044820152637265737360e01b606482015260840161031d565b6001600160a01b0382166106ce5760405162461bcd60e51b815260206004820152602260248201527f45524332303a20617070726f766520746f20746865207a65726f206164647265604482015261737360f01b606482015260840161031d565b6001600160a01b0383811660008181526034602090815260408083209487168084529482529182902085905590518481527f8c5be1e5ebec7d5bd14f71427d1e84f3dd0314c0f7b2291e5b200ac8c7c3b925910160405180910390a3505050565b6001600160a01b0383166107935760405162461bcd60e51b815260206004820152602560248201527f45524332303a207472616e736665722066726f6d20746865207a65726f206164604482015264647265737360d81b606482015260840161031d565b6001600160a01b0382166107f55760405162461bcd60e51b815260206004820152602360248201527f45524332303a207472616e7366657220746f20746865207a65726f206164647260448201526265737360e81b606482015260840161031d565b610800838383610a67565b6001600160a01b038316600090815260336020526040902054818110156108785760405162461bcd60e51b815260206004820152602660248201527f45524332303a207472616e7366657220616d6f756e7420657863656564732062604482015265616c616e636560d01b606482015260840161031d565b6001600160a01b038085166000908152603360205260408082208585039055918516815290812080548492906108af9084906112a3565b92505081905550826001600160a01b0316846001600160a01b0316600080516020611369833981519152846040516108e991815260200190565b60405180910390a36108fc848484610ae8565b50505050565b600054610100900460ff168061091b575060005460ff16155b6109375760405162461bcd60e51b815260040161031d9061120c565b600054610100900460ff16158015610959576000805461ffff19166101011790555b610961610c42565b61096b8383610cae565b801561097d576000805461ff00191690555b505050565b6001600160a01b0382166109d85760405162461bcd60e51b815260206004820152601f60248201527f45524332303a206d696e7420746f20746865207a65726f206164647265737300604482015260640161031d565b6109e460008383610a67565b80603560008282546109f691906112a3565b90915550506001600160a01b03821660009081526033602052604081208054839290610a239084906112a3565b90915550506040518181526001600160a01b038316906000906000805160206113698339815191529060200160405180910390a3610a6360008383610ae8565b5050565b600081118015610a7f57506001600160a01b03821615155b8015610a915750610a8f8261037a565b155b1561097d57606580546001810182556000919091527f8ff97419363ffd7000167f130ef7168fbea05faf9251824ca5043f113cc6a7c70180546001600160a01b0384166001600160a01b0319909116179055505050565b600081118015610b0057506001600160a01b03831615155b8015610b125750610b108361037a565b155b1561097d5773__AddressLibrary________________________632491ddcc73__AddressLibrary________________________63ffe6eda18660656040518363ffffffff1660e01b8152600401610b6b929190611107565b60206040518083038186803b158015610b8357600080fd5b505af4158015610b97573d6000803e3d6000fd5b505050506040513d601f19601f82011682018060405250810190610bbb91906110a5565b60656040518363ffffffff1660e01b8152600401610bda92919061125a565b60006040518083038186803b158015610bf257600080fd5b505af4158015610c06573d6000803e3d6000fd5b505050506040513d6000823e601f3d908101601f19168201604052610c2e9190810190610f6a565b80516108fc91606591602090910190610d43565b600054610100900460ff1680610c5b575060005460ff16155b610c775760405162461bcd60e51b815260040161031d9061120c565b600054610100900460ff16158015610c99576000805461ffff19166101011790555b8015610cab576000805461ff00191690555b50565b600054610100900460ff1680610cc7575060005460ff16155b610ce35760405162461bcd60e51b815260040161031d9061120c565b600054610100900460ff16158015610d05576000805461ffff19166101011790555b8251610d18906036906020860190610da8565b508151610d2c906037906020850190610da8565b50801561097d576000805461ff0019169055505050565b828054828255906000526020600020908101928215610d98579160200282015b82811115610d9857825182546001600160a01b0319166001600160a01b03909116178255602090920191600190910190610d63565b50610da4929150610e1c565b5090565b828054610db4906112bb565b90600052602060002090601f016020900481019282610dd65760008555610d98565b82601f10610def57805160ff1916838001178555610d98565b82800160010185558215610d98579182015b82811115610d98578251825591602001919060010190610e01565b5b80821115610da45760008155600101610e1d565b600082601f830112610e4257600080fd5b81356001600160401b03811115610e5b57610e5b61133d565b610e6e601f8201601f1916602001611273565b818152846020838601011115610e8357600080fd5b816020850160208301376000918101602001919091529392505050565b600060208284031215610eb257600080fd5b8135610ebd81611353565b9392505050565b60008060408385031215610ed757600080fd5b8235610ee281611353565b91506020830135610ef281611353565b809150509250929050565b600080600060608486031215610f1257600080fd5b8335610f1d81611353565b92506020840135610f2d81611353565b929592945050506040919091013590565b60008060408385031215610f5157600080fd5b8235610f5c81611353565b946020939093013593505050565b60006020808385031215610f7d57600080fd5b82516001600160401b0380821115610f9457600080fd5b818501915085601f830112610fa857600080fd5b815181811115610fba57610fba61133d565b8060051b9150610fcb848301611273565b8181528481019084860184860187018a1015610fe657600080fd5b600095505b83861015611015578051945061100085611353565b84835260019590950194918601918601610feb565b5098975050505050505050565b6000806000806080858703121561103857600080fd5b84356001600160401b038082111561104f57600080fd5b61105b88838901610e31565b9550602087013591508082111561107157600080fd5b5061107e87828801610e31565b935050604085013560ff8116811461109557600080fd5b9396929550929360600135925050565b6000602082840312156110b757600080fd5b5051919050565b6000815480845260208085019450836000528060002060005b838110156110fc5781546001600160a01b0316875295820195600191820191016110d7565b509495945050505050565b6001600160a01b038316815260406020820181905260009061112b908301846110be565b949350505050565b604080825283519082018190526000906020906060840190828701845b828110156111755781516001600160a01b031684529284019290840190600101611150565b5050508381038285015284518082528583019183019060005b818110156111aa5783518352928401929184019160010161118e565b5090979650505050505050565b600060208083528351808285015260005b818110156111e4578581018301518582016040015282016111c8565b818111156111f6576000604083870101525b50601f01601f1916929092016040019392505050565b6020808252602e908201527f496e697469616c697a61626c653a20636f6e747261637420697320616c72656160408201526d191e481a5b9a5d1a585b1a5e995960921b606082015260800190565b82815260406020820152600061112b60408301846110be565b604051601f8201601f191681016001600160401b038111828210171561129b5761129b61133d565b604052919050565b600082198211156112b6576112b6611311565b500190565b600181811c908216806112cf57607f821691505b602082108114156112f057634e487b7160e01b600052602260045260246000fd5b50919050565b600060001982141561130a5761130a611311565b5060010190565b634e487b7160e01b600052601160045260246000fd5b634e487b7160e01b600052603260045260246000fd5b634e487b7160e01b600052604160045260246000fd5b6001600160a01b0381168114610cab57600080fdfeddf252ad1be2c89b69c2b068fc378daa952ba7f163c4a11628f55a4df523b3efa264697066735822122065dcd15e7c7f8dcc66dcacd0b044c3278501df7e3724a9e0d64ddb8d3889ad4764736f6c63430008060033",
  "immutableReferences": {},
  "source": "// SPDX-License-Identifier: GPL-3.0\r\n\r\npragma solidity ^0.8.0;\r\n\r\n/**\r\n * @title Storage\r\n * @dev Store & retrieve value in a variable\r\n */\r\n\r\nimport \"@openzeppelin/contracts-upgradeable/token/ERC20/ERC20Upgradeable.sol\";\r\nimport \"../Libraries/AddressLibrary.sol\";\r\nimport \"../Interfaces/ICertisToken.sol\";\r\n\r\n contract CertisToken is ICertisToken, ERC20Upgradeable {\r\n    using AddressLibrary for *;\r\n\r\n    // DATA /////////////////////////////////////////\r\n    address[] _tokenOwners;\r\n    uint8 _decimals;\r\n\r\n    // CONSTRUCTOR /////////////////////////////////////////\r\n    function CertisToken_init(string memory name, string memory symbol, uint8 decimalsValue, uint256 MaxSupply) public initializer {\r\n        super.__ERC20_init(name, symbol);\r\n        _tokenOwners = new address[](0);\r\n        _decimals = decimalsValue;\r\n        _mint(msg.sender, MaxSupply);\r\n    }\r\n\r\n    // FUNCTIONALITY /////////////////////////////////////////\r\n    function decimals() public view override returns (uint8) {\r\n        return _decimals;\r\n    }\r\n\r\n    function TokenOwners() external view override returns (address[] memory, uint256[] memory){\r\n        address[] memory tO = _tokenOwners;\r\n        uint256[] memory OwnerBalance = new uint256[](tO.length);\r\n\r\n        for(uint i=0; i < tO.length; i++){\r\n                OwnerBalance[i] = balanceOf(tO[i]);\r\n        }\r\n\r\n        return(tO,OwnerBalance);\r\n    }\r\n\r\n    function _beforeTokenTransfer(address from, address to, uint256 amount) internal override {\r\n        if(amount > 0 && address(0) != to && 0 == balanceOf(to))_tokenOwners.push(to);\r\n    }\r\n\r\n    function _afterTokenTransfer(address from, address to, uint256 amount) internal override {\r\n        if(amount > 0 && address(0) != from && 0 == balanceOf(from)) _tokenOwners = AddressLibrary.AddressArrayRemoveResize(AddressLibrary.FindAddressPosition(from, _tokenOwners),_tokenOwners);\r\n    }\r\n    \r\n\r\n }",
  "sourcePath": "C:/Users/d-aam/GitHub/Certificates/contracts/DeployedContracts/CertisToken.sol",
  "compiler": {
    "name": "solc",
    "version": "0.8.6+commit.11564f7e.Emscripten.clang"
  },
  "schemaVersion": "3.3.4",
  "updatedAt": "2021-08-10T13:36:38.716Z",
  "devdoc": {
    "kind": "dev",
    "methods": {
      "allowance(address,address)": {
        "details": "See {IERC20-allowance}."
      },
      "approve(address,uint256)": {
        "details": "See {IERC20-approve}. Requirements: - `spender` cannot be the zero address."
      },
      "balanceOf(address)": {
        "details": "See {IERC20-balanceOf}."
      },
      "decimals()": {
        "details": "Returns the number of decimals used to get its user representation. For example, if `decimals` equals `2`, a balance of `505` tokens should be displayed to a user as `5,05` (`505 / 10 ** 2`). Tokens usually opt for a value of 18, imitating the relationship between Ether and Wei. This is the value {ERC20} uses, unless this function is overridden; NOTE: This information is only used for _display_ purposes: it in no way affects any of the arithmetic of the contract, including {IERC20-balanceOf} and {IERC20-transfer}."
      },
      "decreaseAllowance(address,uint256)": {
        "details": "Atomically decreases the allowance granted to `spender` by the caller. This is an alternative to {approve} that can be used as a mitigation for problems described in {IERC20-approve}. Emits an {Approval} event indicating the updated allowance. Requirements: - `spender` cannot be the zero address. - `spender` must have allowance for the caller of at least `subtractedValue`."
      },
      "increaseAllowance(address,uint256)": {
        "details": "Atomically increases the allowance granted to `spender` by the caller. This is an alternative to {approve} that can be used as a mitigation for problems described in {IERC20-approve}. Emits an {Approval} event indicating the updated allowance. Requirements: - `spender` cannot be the zero address."
      },
      "name()": {
        "details": "Returns the name of the token."
      },
      "symbol()": {
        "details": "Returns the symbol of the token, usually a shorter version of the name."
      },
      "totalSupply()": {
        "details": "See {IERC20-totalSupply}."
      },
      "transfer(address,uint256)": {
        "details": "See {IERC20-transfer}. Requirements: - `recipient` cannot be the zero address. - the caller must have a balance of at least `amount`."
      },
      "transferFrom(address,address,uint256)": {
        "details": "See {IERC20-transferFrom}. Emits an {Approval} event indicating the updated allowance. This is not required by the EIP. See the note at the beginning of {ERC20}. Requirements: - `sender` and `recipient` cannot be the zero address. - `sender` must have a balance of at least `amount`. - the caller must have allowance for ``sender``'s tokens of at least `amount`."
      }
    },
    "version": 1
  },
  "userdoc": {
    "kind": "user",
    "methods": {},
    "version": 1
  }
}