{
  "contractName": "CertisProxy",
  "abi": [
    {
      "inputs": [
        {
          "internalType": "address",
          "name": "CertisCodeContractAddress",
          "type": "address"
        },
        {
          "internalType": "address",
          "name": "managerContractAddress",
          "type": "address"
        },
        {
          "internalType": "bytes",
          "name": "data",
          "type": "bytes"
        }
      ],
      "stateMutability": "nonpayable",
      "type": "constructor"
    },
    {
      "anonymous": false,
      "inputs": [
        {
          "indexed": false,
          "internalType": "address",
          "name": "previousAdmin",
          "type": "address"
        },
        {
          "indexed": false,
          "internalType": "address",
          "name": "newAdmin",
          "type": "address"
        }
      ],
      "name": "AdminChanged",
      "type": "event"
    },
    {
      "anonymous": false,
      "inputs": [
        {
          "indexed": true,
          "internalType": "address",
          "name": "beacon",
          "type": "address"
        }
      ],
      "name": "BeaconUpgraded",
      "type": "event"
    },
    {
      "anonymous": false,
      "inputs": [
        {
          "indexed": true,
          "internalType": "address",
          "name": "implementation",
          "type": "address"
        }
      ],
      "name": "Upgraded",
      "type": "event"
    },
    {
      "stateMutability": "payable",
      "type": "fallback"
    },
    {
      "inputs": [],
      "name": "admin",
      "outputs": [
        {
          "internalType": "address",
          "name": "admin_",
          "type": "address"
        }
      ],
      "stateMutability": "nonpayable",
      "type": "function"
    },
    {
      "inputs": [
        {
          "internalType": "address",
          "name": "newAdmin",
          "type": "address"
        }
      ],
      "name": "changeAdmin",
      "outputs": [],
      "stateMutability": "nonpayable",
      "type": "function"
    },
    {
      "inputs": [],
      "name": "implementation",
      "outputs": [
        {
          "internalType": "address",
          "name": "implementation_",
          "type": "address"
        }
      ],
      "stateMutability": "nonpayable",
      "type": "function"
    },
    {
      "inputs": [
        {
          "internalType": "address",
          "name": "newImplementation",
          "type": "address"
        }
      ],
      "name": "upgradeTo",
      "outputs": [],
      "stateMutability": "nonpayable",
      "type": "function"
    },
    {
      "inputs": [
        {
          "internalType": "address",
          "name": "newImplementation",
          "type": "address"
        },
        {
          "internalType": "bytes",
          "name": "data",
          "type": "bytes"
        }
      ],
      "name": "upgradeToAndCall",
      "outputs": [],
      "stateMutability": "payable",
      "type": "function"
    },
    {
      "stateMutability": "payable",
      "type": "receive"
    }
  ],
  "bytecode": "0x60806040523480156200001157600080fd5b5060405162000f2a38038062000f2a8339810160408190526200003491620004c8565b82828282816200006660017f360894a13ba1a3210667c828492db98dca3e2076cc3735a920a3ca505d382bbd620005fb565b60008051602062000ee38339815191521462000086576200008662000650565b6200009482826000620000fb565b50620000c4905060017fb53127684a568b3173ae13b9f8a6016e243e63b6e8ee1178d6a717850b5d6104620005fb565b60008051602062000ec383398151915214620000e457620000e462000650565b620000ef826200016c565b5050505050506200067c565b6200010683620001c7565b6040516001600160a01b038416907fbc7cd75a20ee27fd9adebab32041f755214dbc6bffa90cc0225b39da2e5c2d3b90600090a2600082511180620001485750805b1562000167576200016583836200028f60201b620002601760201c565b505b505050565b7f7e644d79422f17c01e4894b5f4f588d331ebfa28653d42ae832dc59e38c9798f62000197620002be565b604080516001600160a01b03928316815291841660208301520160405180910390a1620001c481620002f7565b50565b620001dd816200038760201b6200028c1760201c565b620002455760405162461bcd60e51b815260206004820152602d60248201527f455243313936373a206e657720696d706c656d656e746174696f6e206973206e60448201526c1bdd08184818dbdb9d1c9858dd609a1b60648201526084015b60405180910390fd5b806200026e60008051602062000ee383398151915260001b6200038d60201b620002081760201c565b80546001600160a01b0319166001600160a01b039290921691909117905550565b6060620002b7838360405180606001604052806027815260200162000f036027913962000390565b9392505050565b6000620002e860008051602062000ec383398151915260001b6200038d60201b620002081760201c565b546001600160a01b0316919050565b6001600160a01b0381166200035e5760405162461bcd60e51b815260206004820152602660248201527f455243313936373a206e65772061646d696e20697320746865207a65726f206160448201526564647265737360d01b60648201526084016200023c565b806200026e60008051602062000ec383398151915260001b6200038d60201b620002081760201c565b3b151590565b90565b6060833b620003f15760405162461bcd60e51b815260206004820152602660248201527f416464726573733a2064656c65676174652063616c6c20746f206e6f6e2d636f6044820152651b9d1c9858dd60d21b60648201526084016200023c565b600080856001600160a01b0316856040516200040e9190620005a8565b600060405180830381855af49150503d80600081146200044b576040519150601f19603f3d011682016040523d82523d6000602084013e62000450565b606091505b509092509050620004638282866200046d565b9695505050505050565b606083156200047e575081620002b7565b8251156200048f5782518084602001fd5b8160405162461bcd60e51b81526004016200023c9190620005c6565b80516001600160a01b0381168114620004c357600080fd5b919050565b600080600060608486031215620004de57600080fd5b620004e984620004ab565b9250620004f960208501620004ab565b60408501519092506001600160401b03808211156200051757600080fd5b818601915086601f8301126200052c57600080fd5b81518181111562000541576200054162000666565b604051601f8201601f19908116603f011681019083821181831017156200056c576200056c62000666565b816040528281528960208487010111156200058657600080fd5b6200059983602083016020880162000621565b80955050505050509250925092565b60008251620005bc81846020870162000621565b9190910192915050565b6020815260008251806020840152620005e781604085016020870162000621565b601f01601f19169190910160400192915050565b6000828210156200061c57634e487b7160e01b600052601160045260246000fd5b500390565b60005b838110156200063e57818101518382015260200162000624565b83811115620001655750506000910152565b634e487b7160e01b600052600160045260246000fd5b634e487b7160e01b600052604160045260246000fd5b610837806200068c6000396000f3fe60806040526004361061004e5760003560e01c80633659cfe6146100655780634f1ef286146100855780635c60da1b146100985780638f283970146100c9578063f851a440146100e95761005d565b3661005d5761005b6100fe565b005b61005b6100fe565b34801561007157600080fd5b5061005b610080366004610682565b610118565b61005b61009336600461069d565b61015f565b3480156100a457600080fd5b506100ad6101d0565b6040516001600160a01b03909116815260200160405180910390f35b3480156100d557600080fd5b5061005b6100e4366004610682565b61020b565b3480156100f557600080fd5b506100ad610235565b610106610292565b610116610111610331565b61033b565b565b61012061035f565b6001600160a01b0316336001600160a01b031614156101575761015481604051806020016040528060008152506000610380565b50565b6101546100fe565b61016761035f565b6001600160a01b0316336001600160a01b031614156101c8576101c38383838080601f01602080910402602001604051908101604052809392919081815260200183838082843760009201919091525060019250610380915050565b505050565b6101c36100fe565b60006101da61035f565b6001600160a01b0316336001600160a01b03161415610200576101fb610331565b905090565b6102086100fe565b90565b61021361035f565b6001600160a01b0316336001600160a01b0316141561015757610154816103df565b600061023f61035f565b6001600160a01b0316336001600160a01b03161415610200576101fb61035f565b606061028583836040518060600160405280602781526020016107db60279139610433565b9392505050565b3b151590565b61029a61035f565b6001600160a01b0316336001600160a01b031614156101165760405162461bcd60e51b815260206004820152604260248201527f5472616e73706172656e745570677261646561626c6550726f78793a2061646d60448201527f696e2063616e6e6f742066616c6c6261636b20746f2070726f78792074617267606482015261195d60f21b608482015260a4015b60405180910390fd5b60006101fb610507565b3660008037600080366000845af43d6000803e80801561035a573d6000f35b3d6000fd5b600060008051602061079b8339815191525b546001600160a01b0316919050565b6103898361051d565b6040516001600160a01b038416907fbc7cd75a20ee27fd9adebab32041f755214dbc6bffa90cc0225b39da2e5c2d3b90600090a26000825111806103ca5750805b156101c3576103d98383610260565b50505050565b7f7e644d79422f17c01e4894b5f4f588d331ebfa28653d42ae832dc59e38c9798f61040861035f565b604080516001600160a01b03928316815291841660208301520160405180910390a1610154816105b3565b6060833b6104925760405162461bcd60e51b815260206004820152602660248201527f416464726573733a2064656c65676174652063616c6c20746f206e6f6e2d636f6044820152651b9d1c9858dd60d21b6064820152608401610328565b600080856001600160a01b0316856040516104ad919061071f565b600060405180830381855af49150503d80600081146104e8576040519150601f19603f3d011682016040523d82523d6000602084013e6104ed565b606091505b50915091506104fd82828661062d565b9695505050505050565b60006000805160206107bb833981519152610371565b803b6105815760405162461bcd60e51b815260206004820152602d60248201527f455243313936373a206e657720696d706c656d656e746174696f6e206973206e60448201526c1bdd08184818dbdb9d1c9858dd609a1b6064820152608401610328565b806000805160206107bb8339815191525b80546001600160a01b0319166001600160a01b039290921691909117905550565b6001600160a01b0381166106185760405162461bcd60e51b815260206004820152602660248201527f455243313936373a206e65772061646d696e20697320746865207a65726f206160448201526564647265737360d01b6064820152608401610328565b8060008051602061079b833981519152610592565b6060831561063c575081610285565b82511561064c5782518084602001fd5b8160405162461bcd60e51b8152600401610328919061073b565b80356001600160a01b038116811461067d57600080fd5b919050565b60006020828403121561069457600080fd5b61028582610666565b6000806000604084860312156106b257600080fd5b6106bb84610666565b925060208401356001600160401b03808211156106d757600080fd5b818601915086601f8301126106eb57600080fd5b8135818111156106fa57600080fd5b87602082850101111561070c57600080fd5b6020830194508093505050509250925092565b6000825161073181846020870161076e565b9190910192915050565b602081526000825180602084015261075a81604085016020870161076e565b601f01601f19169190910160400192915050565b60005b83811015610789578181015183820152602001610771565b838111156103d9575050600091015256feb53127684a568b3173ae13b9f8a6016e243e63b6e8ee1178d6a717850b5d6103360894a13ba1a3210667c828492db98dca3e2076cc3735a920a3ca505d382bbc416464726573733a206c6f772d6c6576656c2064656c65676174652063616c6c206661696c6564a26469706673582212200610336b9e0c25ec19ab872eb865d0dbe6f8264212f09008c0c9adfd1dc8081f64736f6c63430008060033b53127684a568b3173ae13b9f8a6016e243e63b6e8ee1178d6a717850b5d6103360894a13ba1a3210667c828492db98dca3e2076cc3735a920a3ca505d382bbc416464726573733a206c6f772d6c6576656c2064656c65676174652063616c6c206661696c6564",
  "immutableReferences": {},
  "source": "// SPDX-License-Identifier: GPL-3.0\r\n\r\npragma solidity >=0.7.0 <0.9.0;\r\n\r\n/**\r\n * @title Storage\r\n * @dev Store & retrieve value in a variable\r\n */\r\n\r\nimport \"@openzeppelin/contracts/proxy/transparent/TransparentUpgradeableProxy.sol\";\r\n\r\n\r\ncontract CertisProxy is TransparentUpgradeableProxy{\r\n\r\n    // CONSTRUCTOR\r\n    constructor(address CertisCodeContractAddress, address managerContractAddress, bytes memory data)\r\n        TransparentUpgradeableProxy(CertisCodeContractAddress, managerContractAddress, data) \r\n    {}\r\n    \r\n\r\n}",
  "sourcePath": "C:/Users/d-aam/GitHub/Certificates/contracts/DeployedContracts/Proxies/CertisProxy.sol",
  "compiler": {
    "name": "solc",
    "version": "0.8.6+commit.11564f7e.Emscripten.clang"
  },
  "schemaVersion": "3.3.4",
  "updatedAt": "2021-07-29T13:29:56.027Z",
  "devdoc": {
    "kind": "dev",
    "methods": {
      "admin()": {
        "details": "Returns the current admin. NOTE: Only the admin can call this function. See {ProxyAdmin-getProxyAdmin}. TIP: To get this value clients can read directly from the storage slot shown below (specified by EIP1967) using the https://eth.wiki/json-rpc/API#eth_getstorageat[`eth_getStorageAt`] RPC call. `0xb53127684a568b3173ae13b9f8a6016e243e63b6e8ee1178d6a717850b5d6103`"
      },
      "changeAdmin(address)": {
        "details": "Changes the admin of the proxy. Emits an {AdminChanged} event. NOTE: Only the admin can call this function. See {ProxyAdmin-changeProxyAdmin}."
      },
      "implementation()": {
        "details": "Returns the current implementation. NOTE: Only the admin can call this function. See {ProxyAdmin-getProxyImplementation}. TIP: To get this value clients can read directly from the storage slot shown below (specified by EIP1967) using the https://eth.wiki/json-rpc/API#eth_getstorageat[`eth_getStorageAt`] RPC call. `0x360894a13ba1a3210667c828492db98dca3e2076cc3735a920a3ca505d382bbc`"
      },
      "upgradeTo(address)": {
        "details": "Upgrade the implementation of the proxy. NOTE: Only the admin can call this function. See {ProxyAdmin-upgrade}."
      },
      "upgradeToAndCall(address,bytes)": {
        "details": "Upgrade the implementation of the proxy, and then call a function from the new implementation as specified by `data`, which should be an encoded function call. This is useful to initialize new storage variables in the proxied contract. NOTE: Only the admin can call this function. See {ProxyAdmin-upgradeAndCall}."
      }
    },
    "version": 1
  },
  "userdoc": {
    "kind": "user",
    "methods": {},
    "version": 1
  }
}