{
  "contractName": "CertificatesPoolManager",
  "abi": [
    {
      "inputs": [
        {
          "internalType": "uint256",
          "name": "PropositionLifeTime",
          "type": "uint256"
        },
        {
          "internalType": "uint8",
          "name": "PropositionThresholdPercentage",
          "type": "uint8"
        },
        {
          "internalType": "uint8",
          "name": "minWeightToProposePercentage",
          "type": "uint8"
        }
      ],
      "stateMutability": "nonpayable",
      "type": "constructor"
    },
    {
      "anonymous": false,
      "inputs": [
        {
          "indexed": false,
          "internalType": "uint256",
          "name": "",
          "type": "uint256"
        },
        {
          "indexed": true,
          "internalType": "address",
          "name": "",
          "type": "address"
        },
        {
          "indexed": false,
          "internalType": "uint256",
          "name": "",
          "type": "uint256"
        },
        {
          "indexed": false,
          "internalType": "uint256",
          "name": "",
          "type": "uint256"
        }
      ],
      "name": "_AddedProposition",
      "type": "event"
    },
    {
      "anonymous": false,
      "inputs": [
        {
          "indexed": false,
          "internalType": "uint256",
          "name": "",
          "type": "uint256"
        },
        {
          "indexed": true,
          "internalType": "address",
          "name": "",
          "type": "address"
        }
      ],
      "name": "_CancelledProposition",
      "type": "event"
    },
    {
      "anonymous": false,
      "inputs": [
        {
          "indexed": false,
          "internalType": "address",
          "name": "",
          "type": "address"
        },
        {
          "indexed": false,
          "internalType": "address",
          "name": "",
          "type": "address"
        },
        {
          "indexed": false,
          "internalType": "address",
          "name": "",
          "type": "address"
        },
        {
          "indexed": false,
          "internalType": "address",
          "name": "",
          "type": "address"
        },
        {
          "indexed": false,
          "internalType": "address",
          "name": "",
          "type": "address"
        },
        {
          "indexed": false,
          "internalType": "address",
          "name": "",
          "type": "address"
        },
        {
          "indexed": false,
          "internalType": "address",
          "name": "",
          "type": "address"
        }
      ],
      "name": "_NewContracts",
      "type": "event"
    },
    {
      "anonymous": false,
      "inputs": [
        {
          "indexed": false,
          "internalType": "uint256",
          "name": "",
          "type": "uint256"
        },
        {
          "indexed": true,
          "internalType": "address",
          "name": "",
          "type": "address"
        },
        {
          "indexed": false,
          "internalType": "uint256",
          "name": "",
          "type": "uint256"
        },
        {
          "indexed": false,
          "internalType": "uint256",
          "name": "",
          "type": "uint256"
        }
      ],
      "name": "_PropositionApproved",
      "type": "event"
    },
    {
      "anonymous": false,
      "inputs": [
        {
          "indexed": false,
          "internalType": "uint256",
          "name": "",
          "type": "uint256"
        },
        {
          "indexed": true,
          "internalType": "address",
          "name": "",
          "type": "address"
        },
        {
          "indexed": false,
          "internalType": "uint256",
          "name": "",
          "type": "uint256"
        },
        {
          "indexed": false,
          "internalType": "uint256",
          "name": "",
          "type": "uint256"
        }
      ],
      "name": "_PropositionRejected",
      "type": "event"
    },
    {
      "anonymous": false,
      "inputs": [
        {
          "indexed": false,
          "internalType": "uint256",
          "name": "",
          "type": "uint256"
        },
        {
          "indexed": true,
          "internalType": "address",
          "name": "",
          "type": "address"
        },
        {
          "indexed": false,
          "internalType": "bool",
          "name": "",
          "type": "bool"
        },
        {
          "indexed": false,
          "internalType": "uint256",
          "name": "",
          "type": "uint256"
        }
      ],
      "name": "_PropositionVote",
      "type": "event"
    },
    {
      "anonymous": false,
      "inputs": [
        {
          "indexed": true,
          "internalType": "uint256",
          "name": "",
          "type": "uint256"
        },
        {
          "indexed": false,
          "internalType": "address",
          "name": "",
          "type": "address"
        },
        {
          "indexed": false,
          "internalType": "address",
          "name": "",
          "type": "address"
        },
        {
          "indexed": false,
          "internalType": "uint256",
          "name": "",
          "type": "uint256"
        }
      ],
      "name": "_UsedTokensTransfered",
      "type": "event"
    },
    {
      "inputs": [],
      "name": "cancelProposition",
      "outputs": [],
      "stateMutability": "nonpayable",
      "type": "function"
    },
    {
      "inputs": [
        {
          "internalType": "address",
          "name": "from",
          "type": "address"
        },
        {
          "internalType": "address",
          "name": "to",
          "type": "address"
        },
        {
          "internalType": "uint256",
          "name": "amount",
          "type": "uint256"
        }
      ],
      "name": "onTokenBalanceChanged",
      "outputs": [],
      "stateMutability": "nonpayable",
      "type": "function"
    },
    {
      "inputs": [],
      "name": "retrievePropConfig",
      "outputs": [
        {
          "internalType": "uint256",
          "name": "",
          "type": "uint256"
        },
        {
          "internalType": "uint8",
          "name": "",
          "type": "uint8"
        },
        {
          "internalType": "uint8",
          "name": "",
          "type": "uint8"
        }
      ],
      "stateMutability": "view",
      "type": "function"
    },
    {
      "inputs": [],
      "name": "retrievePropositionStatus",
      "outputs": [
        {
          "internalType": "address",
          "name": "",
          "type": "address"
        },
        {
          "internalType": "uint256",
          "name": "",
          "type": "uint256"
        },
        {
          "internalType": "uint256",
          "name": "",
          "type": "uint256"
        },
        {
          "internalType": "uint256",
          "name": "",
          "type": "uint256"
        },
        {
          "internalType": "uint256",
          "name": "",
          "type": "uint256"
        }
      ],
      "stateMutability": "view",
      "type": "function"
    },
    {
      "inputs": [
        {
          "internalType": "uint256",
          "name": "PropLifeTime",
          "type": "uint256"
        },
        {
          "internalType": "uint8",
          "name": "PropThresholdPerc",
          "type": "uint8"
        },
        {
          "internalType": "uint8",
          "name": "minWeightToPropPerc",
          "type": "uint8"
        }
      ],
      "name": "updateProp",
      "outputs": [],
      "stateMutability": "nonpayable",
      "type": "function"
    },
    {
      "inputs": [
        {
          "internalType": "bool",
          "name": "vote",
          "type": "bool"
        }
      ],
      "name": "voteProposition",
      "outputs": [],
      "stateMutability": "nonpayable",
      "type": "function"
    },
    {
      "inputs": [
        {
          "components": [
            {
              "internalType": "address payable",
              "name": "PublicPoolProxyAddress",
              "type": "address"
            },
            {
              "internalType": "address payable",
              "name": "TreasuryProxyAddress",
              "type": "address"
            },
            {
              "internalType": "address payable",
              "name": "CertisTokenProxyAddress",
              "type": "address"
            },
            {
              "internalType": "address payable",
              "name": "PrivatePoolFactoryProxyAddress",
              "type": "address"
            },
            {
              "internalType": "address",
              "name": "PrivateCertificatePoolImplAddress",
              "type": "address"
            },
            {
              "internalType": "address payable",
              "name": "ProviderFactoryProxyAddress",
              "type": "address"
            },
            {
              "internalType": "address",
              "name": "ProviderImplAddress",
              "type": "address"
            }
          ],
          "internalType": "struct Library.InitialContractsStruct",
          "name": "initialContracts",
          "type": "tuple"
        }
      ],
      "name": "InitializeContracts",
      "outputs": [],
      "stateMutability": "nonpayable",
      "type": "function"
    },
    {
      "inputs": [
        {
          "components": [
            {
              "internalType": "address",
              "name": "NewPublicPoolAddress",
              "type": "address"
            },
            {
              "internalType": "address",
              "name": "NewTreasuryAddress",
              "type": "address"
            },
            {
              "internalType": "address",
              "name": "NewCertisTokenAddress",
              "type": "address"
            },
            {
              "internalType": "address",
              "name": "NewPrivatePoolFactoryAddress",
              "type": "address"
            },
            {
              "internalType": "address",
              "name": "NewPrivatePoolAddress",
              "type": "address"
            },
            {
              "internalType": "address",
              "name": "NewProviderFactoryAddress",
              "type": "address"
            },
            {
              "internalType": "address",
              "name": "NewProviderAddress",
              "type": "address"
            },
            {
              "internalType": "bytes",
              "name": "NewPublicPoolData",
              "type": "bytes"
            },
            {
              "internalType": "bytes",
              "name": "NewTreasuryData",
              "type": "bytes"
            },
            {
              "internalType": "bytes",
              "name": "NewCertisTokenData",
              "type": "bytes"
            },
            {
              "internalType": "bytes",
              "name": "NewPrivatePoolFactoryData",
              "type": "bytes"
            },
            {
              "internalType": "bytes",
              "name": "NewProviderFactoryData",
              "type": "bytes"
            }
          ],
          "internalType": "struct Library.ProposedContractsStruct",
          "name": "UpgradeProposition",
          "type": "tuple"
        }
      ],
      "name": "upgradeContracts",
      "outputs": [],
      "stateMutability": "nonpayable",
      "type": "function"
    },
    {
      "inputs": [],
      "name": "retrieveProposition",
      "outputs": [
        {
          "internalType": "bytes32[]",
          "name": "",
          "type": "bytes32[]"
        }
      ],
      "stateMutability": "view",
      "type": "function"
    },
    {
      "inputs": [],
      "name": "retrievePublicCertificatePoolProxy",
      "outputs": [
        {
          "internalType": "address",
          "name": "",
          "type": "address"
        }
      ],
      "stateMutability": "view",
      "type": "function"
    },
    {
      "inputs": [],
      "name": "retrieveTreasuryProxy",
      "outputs": [
        {
          "internalType": "address",
          "name": "",
          "type": "address"
        }
      ],
      "stateMutability": "view",
      "type": "function"
    },
    {
      "inputs": [],
      "name": "retrieveCertisTokenProxy",
      "outputs": [
        {
          "internalType": "address",
          "name": "",
          "type": "address"
        }
      ],
      "stateMutability": "view",
      "type": "function"
    },
    {
      "inputs": [],
      "name": "retrievePrivatePoolFactoryProxy",
      "outputs": [
        {
          "internalType": "address",
          "name": "",
          "type": "address"
        }
      ],
      "stateMutability": "view",
      "type": "function"
    },
    {
      "inputs": [],
      "name": "retrievePrivatePoolBeacon",
      "outputs": [
        {
          "internalType": "address",
          "name": "",
          "type": "address"
        }
      ],
      "stateMutability": "view",
      "type": "function"
    },
    {
      "inputs": [],
      "name": "retrieveProviderFactoryProxy",
      "outputs": [
        {
          "internalType": "address",
          "name": "",
          "type": "address"
        }
      ],
      "stateMutability": "view",
      "type": "function"
    },
    {
      "inputs": [],
      "name": "retrieveProviderBeacon",
      "outputs": [
        {
          "internalType": "address",
          "name": "",
          "type": "address"
        }
      ],
      "stateMutability": "view",
      "type": "function"
    },
    {
      "inputs": [],
      "name": "retrievePublicCertificatePool",
      "outputs": [
        {
          "internalType": "address",
          "name": "",
          "type": "address"
        }
      ],
      "stateMutability": "view",
      "type": "function"
    },
    {
      "inputs": [],
      "name": "retrieveTreasury",
      "outputs": [
        {
          "internalType": "address",
          "name": "",
          "type": "address"
        }
      ],
      "stateMutability": "view",
      "type": "function"
    },
    {
      "inputs": [],
      "name": "retrieveCertisToken",
      "outputs": [
        {
          "internalType": "address",
          "name": "",
          "type": "address"
        }
      ],
      "stateMutability": "view",
      "type": "function"
    },
    {
      "inputs": [],
      "name": "retrievePrivatePoolFactory",
      "outputs": [
        {
          "internalType": "address",
          "name": "",
          "type": "address"
        }
      ],
      "stateMutability": "view",
      "type": "function"
    },
    {
      "inputs": [],
      "name": "retrievePrivatePool",
      "outputs": [
        {
          "internalType": "address",
          "name": "",
          "type": "address"
        }
      ],
      "stateMutability": "view",
      "type": "function"
    },
    {
      "inputs": [],
      "name": "retrieveProviderFactory",
      "outputs": [
        {
          "internalType": "address",
          "name": "",
          "type": "address"
        }
      ],
      "stateMutability": "view",
      "type": "function"
    },
    {
      "inputs": [],
      "name": "retrieveProvider",
      "outputs": [
        {
          "internalType": "address",
          "name": "",
          "type": "address"
        }
      ],
      "stateMutability": "view",
      "type": "function"
    }
  ],
  "bytecode": "0x60806040523480156200001157600080fd5b5060405162003a1f38038062003a1f833981016040819052620000349162000817565b6200004e83838333306200006460201b62000de11760201c565b50506020805460ff60a01b191690555062000995565b600054610100900460ff16806200007e575060005460ff16155b620000a65760405162461bcd60e51b81526004016200009d9062000858565b60405180910390fd5b600054610100900460ff16158015620000c9576000805461ffff19166101011790555b620000df826200012b60201b62000e941760201c565b600180546001600160a01b0319166001600160a01b03851617815560006008556200011090879087908790620001c0565b801562000123576000805461ff00191690555b505050505050565b600054610100900460ff168062000145575060005460ff16155b620001645760405162461bcd60e51b81526004016200009d9062000858565b600054610100900460ff1615801562000187576000805461ffff19166101011790555b6000805462010000600160b01b031916620100006001600160a01b038516021790558015620001bc576000805461ff00191690555b5050565b82828160ff1660641015620001e95760405162461bcd60e51b81526004016200009d90620008a6565b8060ff1660641015620002105760405162461bcd60e51b81526004016200009d90620008a6565b82156200023d57600a869055600b805460ff8681166101000261ffff199092169088161717905562000123565b600c869055600d805460ff8681166101000261ffff1990921690881617179055600b805462ff0000191662010000179055600a546200012390620002829042620008c4565b600b5460ff16600062000294620003cc565b15620002cc5760405162461bcd60e51b81526004016200009d906020808252600490820152631150cc8d60e21b604082015260600190565b620002d73362000431565b1515600114620003135760405162461bcd60e51b81526004016200009d9060208082526004908201526322a1991960e11b604082015260600190565b600380546001600160a01b031916331790556004839055606460ff83166200033a620004af565b62000346919062000902565b620003529190620008df565b6005556008805460028190559060006200036c8362000961565b909155505060035460025460045460055460408051938452602084019290925282820152516001600160a01b03909216917f472501d19bf75639b2e316cd36f8568b0c3ab943b82a87de3c086c98c1929df99181900360600190a2505050565b600454600090421015620003e05750600190565b6003546001600160a01b0316156200042b57620003fc620005b3565b6200042b60006002819055600380546001600160a01b0319169055600481905560058190556006819055600755565b50600090565b6001546000906001600160a01b03838116911614156200045357506001919050565b60006200046083620005bf565b905060646200046e620004af565b600b54620004859190610100900460ff1662000902565b620004919190620008df565b8110620004a15750600192915050565b50600092915050565b919050565b60008060029054906101000a90046001600160a01b03166001600160a01b031663da3dce266040518163ffffffff1660e01b815260040160206040518083038186803b158015620004ff57600080fd5b505afa15801562000514573d6000803e3d6000fd5b505050506040513d601f19601f820116820180604052508101906200053a9190620007cb565b6001600160a01b03166318160ddd6040518163ffffffff1660e01b815260040160206040518083038186803b1580156200057357600080fd5b505afa15801562000588573d6000803e3d6000fd5b505050506040513d601f19601f82011682018060405250810190620005ae9190620007fd565b905090565b620005bd620006cf565b565b60008060029054906101000a90046001600160a01b03166001600160a01b031663da3dce266040518163ffffffff1660e01b815260040160206040518083038186803b1580156200060f57600080fd5b505afa15801562000624573d6000803e3d6000fd5b505050506040513d601f19601f820116820180604052508101906200064a9190620007cb565b6040516370a0823160e01b81526001600160a01b03848116600483015291909116906370a082319060240160206040518083038186803b1580156200068e57600080fd5b505afa158015620006a3573d6000803e3d6000fd5b505050506040513d601f19601f82011682018060405250810190620006c99190620007fd565b92915050565b600e80546001600160a01b03199081168255600f80548216905560108054821690556011805482169055601280548216905560138054821690556014805490911690556000620007216015826200075c565b620007316008830160006200075c565b620007416009830160006200075c565b62000751600a830160006200075c565b620001bc600b830160005b5080546200076a9062000924565b6000825580601f106200077b575050565b601f0160209004906000526020600020908101906200079b91906200079e565b50565b5b80821115620007b557600081556001016200079f565b5090565b805160ff81168114620004aa57600080fd5b600060208284031215620007de57600080fd5b81516001600160a01b0381168114620007f657600080fd5b9392505050565b6000602082840312156200081057600080fd5b5051919050565b6000806000606084860312156200082d57600080fd5b835192506200083f60208501620007b9565b91506200084f60408501620007b9565b90509250925092565b6020808252602e908201527f496e697469616c697a61626c653a20636f6e747261637420697320616c72656160408201526d191e481a5b9a5d1a585b1a5e995960921b606082015260800190565b6020808252600490820152634543323160e01b604082015260600190565b60008219821115620008da57620008da6200097f565b500190565b600082620008fd57634e487b7160e01b600052601260045260246000fd5b500490565b60008160001904831182151516156200091f576200091f6200097f565b500290565b600181811c908216806200093957607f821691505b602082108114156200095b57634e487b7160e01b600052602260045260246000fd5b50919050565b60006000198214156200097857620009786200097f565b5060010190565b634e487b7160e01b600052601160045260246000fd5b61307a80620009a56000396000f3fe60806040523480156200001157600080fd5b5060043610620001365760003560e01c8063029b9673146200013b57806322d929e1146200015d5780633c65d42714620001675780633c7df55d14620001795780634b19aa16146200019257806355457ee9146200019c5780635773bc2314620001a65780635a3794e914620001b85780636771717714620001ca5780637c2364a914620001d45780637c2f3aaf14620001eb578063840f6d1714620001fd5780638f8907f7146200023f57806391f916711462000256578063a42e1339146200026d578063a93316f51462000277578063aa33380a1462000290578063ac2bb44214620002a2578063c50ec82b14620002b9578063d660ab3414620002c3578063da3dce2614620002f0578063efd15d171462000302578063f5ad9acc146200030c575b600080fd5b620001456200031e565b60405162000154919062002518565b60405180910390f35b620001456200032f565b601a546001600160a01b031662000145565b620001906200018a366004620023e0565b6200033b565b005b6200014562000490565b620001906200049c565b601c546001600160a01b031662000145565b601f546001600160a01b031662000145565b62000145620005da565b62000190620001e536600462002499565b620005e6565b601b546001600160a01b031662000145565b600354600454600554600654600754604080516001600160a01b0390961686526020860194909452928401919091526060830152608082015260a00162000154565b620001906200025036600462002480565b6200061a565b620001906200026736600462002426565b62000739565b6200014562000872565b620002816200087e565b604051620001549190620025c9565b601e546001600160a01b031662000145565b62000190620002b3366004620024d7565b62000dba565b6200014562000dc9565b600a54600b546040805192835260ff80831660208501526101009092049091169082015260600162000154565b6020546001600160a01b031662000145565b6200014562000dd5565b601d546001600160a01b031662000145565b60006200032a62000f29565b905090565b60006200032a62000fa9565b73__Library_______________________________63d1d719d0600060029054906101000a90046001600160a01b03166001600160a01b031663da3dce266040518163ffffffff1660e01b815260040160206040518083038186803b158015620003a457600080fd5b505afa158015620003b9573d6000803e3d6000fd5b505050506040513d601f19601f82011682018060405250810190620003df9190620023c0565b6040518263ffffffff1660e01b8152600401620003fd919062002518565b60206040518083038186803b1580156200041657600080fd5b505af41580156200042b573d6000803e3d6000fd5b505050506040513d601f19601f8201168201806040525081019062000451919062002446565b15156001146200047e5760405162461bcd60e51b81526004016200047590620026b7565b60405180910390fd5b6200048b83838362000fef565b505050565b60006200032a62000ffc565b6001620004a862001042565b1515600114620004cc5760405162461bcd60e51b815260040162000475906200267b565b600354604051630d1d719d60e41b815273__Library_______________________________9163d1d719d09162000510916001600160a01b03169060040162002518565b60206040518083038186803b1580156200052957600080fd5b505af41580156200053e573d6000803e3d6000fd5b505050506040513d601f19601f8201168201806040525081019062000564919062002446565b1515600114620005885760405162461bcd60e51b815260040162000475906200260f565b6200059262001082565b6003546002546040519081526001600160a01b03909116907f1fe8aec10c0a50fa765076161e08c1f961ced69594ff45cf7d559f593afe14799060200160405180910390a250565b60006200032a620010ad565b80600e620005f5828262002991565b5050600a5462000617906200060b90426200273a565b600b5460ff16620010f3565b50565b600154604051630d1d719d60e41b815273__Library_______________________________9163d1d719d0916200065e916001600160a01b03169060040162002518565b60206040518083038186803b1580156200067757600080fd5b505af41580156200068c573d6000803e3d6000fd5b505050506040513d601f19601f82011682018060405250810190620006b2919062002446565b1515600114620006d65760405162461bcd60e51b81526004016200047590620026b7565b602054600160a01b900460ff16156200071b5760405162461bcd60e51b8152600401620004759060208082526004908201526322a1991b60e11b604082015260600190565b6020805460ff60a01b1916600160a01b17905562000617816200121d565b60016200074562001042565b1515600114620007695760405162461bcd60e51b815260040162000475906200267b565b6200077a33600260000154620013eb565b1515600114620007b65760405162461bcd60e51b815260040162000475906020808252600490820152634543323360e01b604082015260600190565b6000620007c93360026000015462001404565b90508215620007f5578060026004016000828254620007e991906200273a565b90915550620008129050565b80600260050160008282546200080c91906200273a565b90915550505b6002546200082290338362001445565b600254604080519182528415156020830152810182905233907f50f654d58981575c05e369cb129aeacb01e1b036af429380242cfc5d1a4b743f9060600160405180910390a26200048b62001483565b60006200032a620015db565b6040805160078082526101008201909252606091600091906020820160e0803683375050600e5460405163bc215e8560e01b815292935073__AddressLibrary________________________9263bc215e859250620008ea916001600160a01b03169060040162002518565b60206040518083038186803b1580156200090357600080fd5b505af415801562000918573d6000803e3d6000fd5b505050506040513d601f19601f820116820180604052508101906200093e919062002466565b8160008151811062000954576200095462002936565b6020908102919091010152600f5460405163bc215e8560e01b815273__AddressLibrary________________________9163bc215e8591620009a3916001600160a01b03169060040162002518565b60206040518083038186803b158015620009bc57600080fd5b505af4158015620009d1573d6000803e3d6000fd5b505050506040513d601f19601f82011682018060405250810190620009f7919062002466565b8160018151811062000a0d5762000a0d62002936565b602090810291909101015260105460405163bc215e8560e01b815273__AddressLibrary________________________9163bc215e859162000a5c916001600160a01b03169060040162002518565b60206040518083038186803b15801562000a7557600080fd5b505af415801562000a8a573d6000803e3d6000fd5b505050506040513d601f19601f8201168201806040525081019062000ab0919062002466565b8160028151811062000ac65762000ac662002936565b602090810291909101015260115460405163bc215e8560e01b815273__AddressLibrary________________________9163bc215e859162000b15916001600160a01b03169060040162002518565b60206040518083038186803b15801562000b2e57600080fd5b505af415801562000b43573d6000803e3d6000fd5b505050506040513d601f19601f8201168201806040525081019062000b69919062002466565b8160038151811062000b7f5762000b7f62002936565b602090810291909101015260125460405163bc215e8560e01b815273__AddressLibrary________________________9163bc215e859162000bce916001600160a01b03169060040162002518565b60206040518083038186803b15801562000be757600080fd5b505af415801562000bfc573d6000803e3d6000fd5b505050506040513d601f19601f8201168201806040525081019062000c22919062002466565b8160048151811062000c385762000c3862002936565b602090810291909101015260135460405163bc215e8560e01b815273__AddressLibrary________________________9163bc215e859162000c87916001600160a01b03169060040162002518565b60206040518083038186803b15801562000ca057600080fd5b505af415801562000cb5573d6000803e3d6000fd5b505050506040513d601f19601f8201168201806040525081019062000cdb919062002466565b8160058151811062000cf15762000cf162002936565b602090810291909101015260145460405163bc215e8560e01b815273__AddressLibrary________________________9163bc215e859162000d40916001600160a01b03169060040162002518565b60206040518083038186803b15801562000d5957600080fd5b505af415801562000d6e573d6000803e3d6000fd5b505050506040513d601f19601f8201168201806040525081019062000d94919062002466565b8160068151811062000daa5762000daa62002936565b6020908102919091010152919050565b6200048b838383600062001621565b60006200032a620016e3565b60006200032a62001729565b600054610100900460ff168062000dfb575060005460ff16155b62000e1a5760405162461bcd60e51b815260040162000475906200262d565b600054610100900460ff1615801562000e3d576000805461ffff19166101011790555b62000e488262000e94565b600180546001600160a01b0319166001600160a01b038516178155600060085562000e799087908790879062001621565b801562000e8c576000805461ff00191690555b505050505050565b600054610100900460ff168062000eae575060005460ff16155b62000ecd5760405162461bcd60e51b815260040162000475906200262d565b600054610100900460ff1615801562000ef0576000805461ffff19166101011790555b6000805462010000600160b01b031916620100006001600160a01b03851602179055801562000f25576000805461ff00191690555b5050565b602080546040805163dc4ff91360e01b815290516000936001600160a01b039093169263dc4ff9139260048082019391829003018186803b15801562000f6e57600080fd5b505afa15801562000f83573d6000803e3d6000fd5b505050506040513d601f19601f820116820180604052508101906200032a9190620023c0565b601c546040805163dc4ff91360e01b815290516000926001600160a01b03169163dc4ff913916004808301926020929190829003018186803b15801562000f6e57600080fd5b6200048b8383836200176f565b601d5460408051635c60da1b60e01b815290516000926001600160a01b031691635c60da1b916004808301926020929190829003018186803b15801562000f6e57600080fd5b600454600090421015620010565750600190565b6003546001600160a01b0316156200107c576200107262001791565b6200107c62001082565b50600090565b60006002819055600380546001600160a01b0319169055600481905560058190556006819055600755565b601a546040805163dc4ff91360e01b815290516000926001600160a01b03169163dc4ff913916004808301926020929190829003018186803b15801562000f6e57600080fd5b6000620010ff62001042565b15620011375760405162461bcd60e51b815260040162000475906020808252600490820152631150cc8d60e21b604082015260600190565b62001142336200179b565b1515600114620011665760405162461bcd60e51b815260040162000475906200260f565b600380546001600160a01b031916331790556004839055606460ff83166200118d62001819565b62001199919062002778565b620011a5919062002755565b600555600880546002819055906000620011bf8362002902565b90915550506003546002546004546005546040516001600160a01b03909416937f472501d19bf75639b2e316cd36f8568b0c3ab943b82a87de3c086c98c1929df993620012109390929091620026d4565b60405180910390a2505050565b6200122c6020820182620023a0565b601e80546001600160a01b0319166001600160a01b03929092169190911790556200125e6040820160208301620023a0565b601f80546001600160a01b0319166001600160a01b0392909216919091179055620012906060820160408301620023a0565b602080546001600160a01b0319166001600160a01b0392909216919091179055620012c26080820160608301620023a0565b601a80546001600160a01b0319166001600160a01b0392909216919091179055620012f460a0820160808301620023a0565b60405162001302906200232c565b6200130e919062002518565b604051809103906000f0801580156200132b573d6000803e3d6000fd5b50601b80546001600160a01b0319166001600160a01b03929092169190911790556200135e60c0820160a08301620023a0565b601c80546001600160a01b0319166001600160a01b03929092169190911790556200139060e0820160c08301620023a0565b6040516200139e906200232c565b620013aa919062002518565b604051809103906000f080158015620013c7573d6000803e3d6000fd5b50601d80546001600160a01b0319166001600160a01b039290921691909117905550565b600080620013fa848462001404565b1515949350505050565b60008181526009602090815260408083206001600160a01b0386168452909152812054620014328462001918565b6200143e91906200279a565b9392505050565b60008381526009602090815260408083206001600160a01b038616845290915281208054839290620014799084906200273a565b9091555050505050565b60055460065411156200154a57600b5462010000900460ff1615620014e057600c54600a55600d54600b805461010080840460ff90811690910261ffff19909216931692909217919091179055620014da62001a2a565b620014ea565b620014ea62001a48565b620014f462001082565b6003546002546006546007546040516001600160a01b03909416937f23ca0034cf5aad32571b4a492e9598ea8a490e1643a60970e3cdc6933b55e49f93620015409390929091620026d4565b60405180910390a2565b6005546007541115620015d957600b5462010000900460ff161562001579576200157362001a2a565b62001583565b6200158362001791565b6200158d62001082565b6003546002546006546007546040516001600160a01b03909416937fa58eb6daa3c62c3f883973c4035e5bd3e81aa627c8379de068a7de42df122be293620015409390929091620026d4565b565b601e546040805163dc4ff91360e01b815290516000926001600160a01b03169163dc4ff913916004808301926020929190829003018186803b15801562000f6e57600080fd5b82828160ff16606410156200164a5760405162461bcd60e51b8152600401620004759062002699565b8060ff1660641015620016715760405162461bcd60e51b8152600401620004759062002699565b82156200169e57600a869055600b805460ff8681166101000261ffff199092169088161717905562000e8c565b600c869055600d805460ff8681166101000261ffff1990921690881617179055600b805462ff0000191662010000179055600a5462000e8c906200060b90426200273a565b601b5460408051635c60da1b60e01b815290516000926001600160a01b031691635c60da1b916004808301926020929190829003018186803b15801562000f6e57600080fd5b601f546040805163dc4ff91360e01b815290516000926001600160a01b03169163dc4ff913916004808301926020929190829003018186803b15801562000f6e57600080fd5b6200177962001042565b1515600114156200048b576200048b83838362001a52565b620015d962001bca565b6001546000906001600160a01b0383811691161415620017bd57506001919050565b6000620017ca8362001918565b90506064620017d862001819565b600b54620017ef9190610100900460ff1662002778565b620017fb919062002755565b81106200180b5750600192915050565b50600092915050565b919050565b60008060029054906101000a90046001600160a01b03166001600160a01b031663da3dce266040518163ffffffff1660e01b815260040160206040518083038186803b1580156200186957600080fd5b505afa1580156200187e573d6000803e3d6000fd5b505050506040513d601f19601f82011682018060405250810190620018a49190620023c0565b6001600160a01b03166318160ddd6040518163ffffffff1660e01b815260040160206040518083038186803b158015620018dd57600080fd5b505afa158015620018f2573d6000803e3d6000fd5b505050506040513d601f19601f820116820180604052508101906200032a919062002466565b60008060029054906101000a90046001600160a01b03166001600160a01b031663da3dce266040518163ffffffff1660e01b815260040160206040518083038186803b1580156200196857600080fd5b505afa1580156200197d573d6000803e3d6000fd5b505050506040513d601f19601f82011682018060405250810190620019a39190620023c0565b6001600160a01b03166370a08231836040518263ffffffff1660e01b8152600401620019d0919062002518565b60206040518083038186803b158015620019e957600080fd5b505afa158015620019fe573d6000803e3d6000fd5b505050506040513d601f19601f8201168201806040525081019062001a24919062002466565b92915050565b6000600c55600d805461ffff19169055600b805462ff000019169055565b6200179162001c5c565b6001600160a01b0383161580159062001a8f575060025460009081526009602090815260408083206001600160a01b038716845290915290205415155b156200048b5760025460009081526009602090815260408083206001600160a01b0387168452909152902054819081111562001aed575060025460009081526009602090815260408083206001600160a01b03871684529091529020545b60025460009081526009602090815260408083206001600160a01b03881684529091528120805483929062001b249084906200279a565b90915550506001600160a01b0383161562001b765760025460009081526009602090815260408083206001600160a01b03871684529091528120805483929062001b709084906200273a565b90915550505b600254604080516001600160a01b038088168252861660208201529081018390527f65fbd5e5dd32bea4aeca85bd0be0abf0e489d655dee888a7510d43b06dda2dba9060600160405180910390a250505050565b600e80546001600160a01b03199081168255600f8054821690556010805482169055601180548216905560128054821690556013805482169055601480549091169055600062001c1c6015826200233a565b62001c2c6008830160006200233a565b62001c3c6009830160006200233a565b62001c4c600a830160006200233a565b62000f25600b830160006200233a565b600e546001600160a01b03161562001d63576015805462001c7d90620028cb565b15905062001cf857601e54600e5460405163278f794360e11b81526001600160a01b0392831692634f1ef2869262001cbe929116906015906004016200252c565b600060405180830381600087803b15801562001cd957600080fd5b505af115801562001cee573d6000803e3d6000fd5b5050505062001d63565b601e54600e54604051631b2ce7f360e11b81526001600160a01b0392831692633659cfe69262001d2e9291169060040162002518565b600060405180830381600087803b15801562001d4957600080fd5b505af115801562001d5e573d6000803e3d6000fd5b505050505b600f546001600160a01b03161562001e6a576016805462001d8490620028cb565b15905062001dff57601f54600f5460405163278f794360e11b81526001600160a01b0392831692634f1ef2869262001dc5929116906016906004016200252c565b600060405180830381600087803b15801562001de057600080fd5b505af115801562001df5573d6000803e3d6000fd5b5050505062001e6a565b601f54600f54604051631b2ce7f360e11b81526001600160a01b0392831692633659cfe69262001e359291169060040162002518565b600060405180830381600087803b15801562001e5057600080fd5b505af115801562001e65573d6000803e3d6000fd5b505050505b6010546001600160a01b03161562001f71576017805462001e8b90620028cb565b15905062001f065760205460105460405163278f794360e11b81526001600160a01b0392831692634f1ef2869262001ecc929116906017906004016200252c565b600060405180830381600087803b15801562001ee757600080fd5b505af115801562001efc573d6000803e3d6000fd5b5050505062001f71565b602054601054604051631b2ce7f360e11b81526001600160a01b0392831692633659cfe69262001f3c9291169060040162002518565b600060405180830381600087803b15801562001f5757600080fd5b505af115801562001f6c573d6000803e3d6000fd5b505050505b6011546001600160a01b03161562002078576018805462001f9290620028cb565b1590506200200d57601a5460115460405163278f794360e11b81526001600160a01b0392831692634f1ef2869262001fd3929116906018906004016200252c565b600060405180830381600087803b15801562001fee57600080fd5b505af115801562002003573d6000803e3d6000fd5b5050505062002078565b601a54601154604051631b2ce7f360e11b81526001600160a01b0392831692633659cfe692620020439291169060040162002518565b600060405180830381600087803b1580156200205e57600080fd5b505af115801562002073573d6000803e3d6000fd5b505050505b6013546001600160a01b0316156200217f57601980546200209990620028cb565b1590506200211457601c5460135460405163278f794360e11b81526001600160a01b0392831692634f1ef28692620020da929116906019906004016200252c565b600060405180830381600087803b158015620020f557600080fd5b505af11580156200210a573d6000803e3d6000fd5b505050506200217f565b601c54601354604051631b2ce7f360e11b81526001600160a01b0392831692633659cfe6926200214a9291169060040162002518565b600060405180830381600087803b1580156200216557600080fd5b505af11580156200217a573d6000803e3d6000fd5b505050505b6012546001600160a01b031615620021fc57601b54601254604051631b2ce7f360e11b81526001600160a01b0392831692633659cfe692620021c79291169060040162002518565b600060405180830381600087803b158015620021e257600080fd5b505af1158015620021f7573d6000803e3d6000fd5b505050505b6014546001600160a01b0316156200227957601d54601454604051631b2ce7f360e11b81526001600160a01b0392831692633659cfe692620022449291169060040162002518565b600060405180830381600087803b1580156200225f57600080fd5b505af115801562002274573d6000803e3d6000fd5b505050505b7f9f556b3233512aec544690cac60d870b2e6c701a89ec415c193c147b28035aa4620022a4620015db565b620022ae62001729565b620022b862000f29565b620022c2620010ad565b620022cc620016e3565b620022d662000fa9565b620022e062000ffc565b604080516001600160a01b03988916815296881660208801529487168686015292861660608601529085166080850152841660a084015290921660c082015290519081900360e00190a1565b6105238062002b2283390190565b5080546200234890620028cb565b6000825580601f1062002359575050565b601f0160209004906000526020600020908101906200061791905b808211156200238a576000815560010162002374565b5090565b803560ff811681146200181457600080fd5b600060208284031215620023b357600080fd5b81356200143e8162002afc565b600060208284031215620023d357600080fd5b81516200143e8162002afc565b600080600060608486031215620023f657600080fd5b8335620024038162002afc565b92506020840135620024158162002afc565b929592945050506040919091013590565b6000602082840312156200243957600080fd5b81356200143e8162002b12565b6000602082840312156200245957600080fd5b81516200143e8162002b12565b6000602082840312156200247957600080fd5b5051919050565b600060e082840312156200249357600080fd5b50919050565b600060208284031215620024ac57600080fd5b81356001600160401b03811115620024c357600080fd5b820161018081850312156200143e57600080fd5b600080600060608486031215620024ed57600080fd5b83359250620024ff602085016200238e565b91506200250f604085016200238e565b90509250925092565b6001600160a01b0391909116815260200190565b60018060a01b038316815260006020604081840152600084546200255081620028cb565b80604087015260606001808416600081146200257557600181146200258a57620025ba565b60ff19851689840152608089019550620025ba565b896000528660002060005b85811015620025b25781548b820186015290830190880162002595565b8a0184019650505b50939998505050505050505050565b6020808252825182820181905260009190848201906040850190845b818110156200260357835183529284019291840191600101620025e5565b50909695505050505050565b60208082526004908201526322a1991960e11b604082015260600190565b6020808252602e908201527f496e697469616c697a61626c653a20636f6e747261637420697320616c72656160408201526d191e481a5b9a5d1a585b1a5e995960921b606082015260800190565b6020808252600490820152634543323560e01b604082015260600190565b6020808252600490820152634543323160e01b604082015260600190565b60208082526003908201526208a86760eb1b604082015260600190565b9283526020830191909152604082015260600190565b6000808335601e198436030181126200270257600080fd5b8301803591506001600160401b038211156200271d57600080fd5b6020019150368190038213156200273357600080fd5b9250929050565b6000821982111562002750576200275062002920565b500190565b6000826200277357634e487b7160e01b600052601260045260246000fd5b500490565b600081600019048311821515161562002795576200279562002920565b500290565b600082821015620027af57620027af62002920565b500390565b601f8211156200048b57600081815260208120601f850160051c81016020861015620027dd5750805b601f850160051c820191505b8181101562000e8c57828155600101620027e9565b6001600160401b038311156200281857620028186200294c565b6200283083620028298354620028cb565b83620027b4565b6000601f8411600181146200286757600085156200284e5750838201355b600019600387901b1c1916600186901b178355620028c4565b600083815260209020601f19861690835b828110156200289a578685013582556020948501946001909201910162002878565b5086821015620028b85760001960f88860031b161c19848701351681555b505060018560011b0183555b5050505050565b600181811c90821680620028e057607f821691505b602082108114156200249357634e487b7160e01b600052602260045260246000fd5b600060001982141562002919576200291962002920565b5060010190565b634e487b7160e01b600052601160045260246000fd5b634e487b7160e01b600052603260045260246000fd5b634e487b7160e01b600052604160045260246000fd5b6000813562001a248162002afc565b80546001600160a01b0319166001600160a01b0392909216919091179055565b620029a7620029a08362002962565b8262002971565b620029c3620029b96020840162002962565b6001830162002971565b620029df620029d56040840162002962565b6002830162002971565b620029fb620029f16060840162002962565b6003830162002971565b62002a1762002a0d6080840162002962565b6004830162002971565b62002a3362002a2960a0840162002962565b6005830162002971565b62002a4f62002a4560c0840162002962565b6006830162002971565b62002a5e60e0830183620026ea565b62002a6e818360078601620027fe565b505062002a80610100830183620026ea565b62002a90818360088601620027fe565b505062002aa2610120830183620026ea565b62002ab2818360098601620027fe565b505062002ac4610140830183620026ea565b62002ad48183600a8601620027fe565b505062002ae6610160830183620026ea565b62002af68183600b8601620027fe565b50505050565b6001600160a01b03811681146200061757600080fd5b80151581146200061757600080fdfe608060405234801561001057600080fd5b5060405161052338038061052383398101604081905261002f91610148565b61003833610047565b61004181610097565b50610178565b600080546001600160a01b038381166001600160a01b0319831681178455604051919092169283917f8be0079c531659141344cd1fd0a4f28419497f9722a3daafe3b4186f6b6457e09190a35050565b6100aa8161014260201b61021f1760201c565b6101205760405162461bcd60e51b815260206004820152603360248201527f5570677261646561626c65426561636f6e3a20696d706c656d656e746174696f60448201527f6e206973206e6f74206120636f6e747261637400000000000000000000000000606482015260840160405180910390fd5b600180546001600160a01b0319166001600160a01b0392909216919091179055565b3b151590565b60006020828403121561015a57600080fd5b81516001600160a01b038116811461017157600080fd5b9392505050565b61039c806101876000396000f3fe608060405234801561001057600080fd5b50600436106100575760003560e01c80633659cfe61461005c5780635c60da1b14610071578063715018a61461009a5780638da5cb5b146100a2578063f2fde38b146100aa575b600080fd5b61006f61006a366004610301565b6100bd565b005b6001546001600160a01b03165b6040516001600160a01b03909116815260200160405180910390f35b61006f610135565b61007e610170565b61006f6100b8366004610301565b61017f565b336100c6610170565b6001600160a01b0316146100f55760405162461bcd60e51b81526004016100ec90610331565b60405180910390fd5b6100fe81610225565b6040516001600160a01b038216907fbc7cd75a20ee27fd9adebab32041f755214dbc6bffa90cc0225b39da2e5c2d3b90600090a250565b3361013e610170565b6001600160a01b0316146101645760405162461bcd60e51b81526004016100ec90610331565b61016e60006102b1565b565b6000546001600160a01b031690565b33610188610170565b6001600160a01b0316146101ae5760405162461bcd60e51b81526004016100ec90610331565b6001600160a01b0381166102135760405162461bcd60e51b815260206004820152602660248201527f4f776e61626c653a206e6577206f776e657220697320746865207a65726f206160448201526564647265737360d01b60648201526084016100ec565b61021c816102b1565b50565b3b151590565b803b61028f5760405162461bcd60e51b815260206004820152603360248201527f5570677261646561626c65426561636f6e3a20696d706c656d656e746174696f6044820152721b881a5cc81b9bdd08184818dbdb9d1c9858dd606a1b60648201526084016100ec565b600180546001600160a01b0319166001600160a01b0392909216919091179055565b600080546001600160a01b038381166001600160a01b0319831681178455604051919092169283917f8be0079c531659141344cd1fd0a4f28419497f9722a3daafe3b4186f6b6457e09190a35050565b60006020828403121561031357600080fd5b81356001600160a01b038116811461032a57600080fd5b9392505050565b6020808252818101527f4f776e61626c653a2063616c6c6572206973206e6f7420746865206f776e657260408201526060019056fea2646970667358221220b2593c385f6cf6c9fa6cd30320e4dd979200197a740c0d3f946507d201c8795d64736f6c63430008070033a2646970667358221220f9c1456e2af810e9ba6015af257e73eda6eabb074ed2f1888906ea08290e315164736f6c63430008070033",
  "immutableReferences": {},
  "source": "// SPDX-License-Identifier: GPL-3.0\r\n\r\npragma solidity >=0.7.0 <0.9.0;\r\n\r\n/**\r\n * @title Storage\r\n * @dev Store & retrieve value in a variable\r\n */\r\n\r\nimport \"../Interfaces/IProxyManager.sol\";\r\nimport \"./Proxies/GenericProxy.sol\";\r\nimport \"./Proxies/CertisTokenProxy.sol\";\r\nimport \"../Base/TokenGovernanceBaseContract.sol\";\r\nimport \"../Libraries/AddressLibrary.sol\";\r\nimport \"../Libraries/Library.sol\";\r\nimport \"@openzeppelin/contracts-upgradeable/proxy/utils/Initializable.sol\";\r\nimport \"@openzeppelin/contracts/proxy/beacon/UpgradeableBeacon.sol\";\r\nimport \"@openzeppelin/contracts/proxy/transparent/TransparentUpgradeableProxy.sol\";\r\n\r\n\r\ncontract CertificatesPoolManager is IProxyManager, TokenGovernanceBaseContract{\r\n    using AddressLibrary for *;\r\n    using Library for *;\r\n\r\n    // EVENTS /////////////////////////////////////////\r\n    event _NewContracts(address, address, address, address, address, address, address);\r\n\r\n    // DATA /////////////////////////////////////////\r\n    // proposition to change\r\n    Library.ProposedContractsStruct private _ProposedContracts;\r\n    \r\n    // Private Certificate Pools Factory\r\n    GenericProxy private _PrivatePoolFactory;\r\n\r\n    // Private Certificates Pool\r\n    UpgradeableBeacon private _PrivateCertificatePoolBeacon;\r\n\r\n    // Provider Factory\r\n    GenericProxy private _ProviderFactory;\r\n\r\n    // Provider\r\n    UpgradeableBeacon private _ProviderBeacon;\r\n\r\n    // Public Certificates Pool\r\n    GenericProxy private _PublicCertificatesPool;\r\n\r\n    // Treasury\r\n    GenericProxy private _Treasury;\r\n\r\n    // Certis Token\r\n    CertisTokenProxy private _CertisToken;\r\n\r\n    // init\r\n    bool private _init;\r\n\r\n    // MODIFIERS /////////////////////////////////////////\r\n    modifier isNotInitialized(){\r\n        require(false == _init, \"EC26\");\r\n        _;\r\n    }\r\n\r\n    // CONSTRUCTOR and INITIALIZATION /////////////////////////////////////////\r\n    constructor(uint256 PropositionLifeTime, uint8 PropositionThresholdPercentage, uint8 minWeightToProposePercentage) \r\n    {\r\n        super.TokenGovernanceContract_init(PropositionLifeTime, PropositionThresholdPercentage, minWeightToProposePercentage, msg.sender, address(this));\r\n        _init = false;\r\n    }\r\n\r\n    function InitializeContracts(Library.InitialContractsStruct calldata initialContracts) \r\n        isFromChairPerson()\r\n        isNotInitialized()\r\n    external\r\n    {\r\n        _init = true;\r\n        initProxies(initialContracts);\r\n    }\r\n\r\n    // FUNCTIONALITY /////////////////////////////////////////\r\n    // governance : contracts assignment and management\r\n    function upgradeContracts(Library.ProposedContractsStruct calldata UpgradeProposition) external override\r\n    {\r\n        _ProposedContracts = UpgradeProposition;\r\n        addProposition(block.timestamp + _PropositionLifeTime, _PropositionThresholdPercentage);\r\n    }\r\n\r\n    function propositionApproved() internal override\r\n    {\r\n        upgradeContractsImplementations();\r\n        removeProposition();\r\n    }\r\n\r\n    function propositionRejected() internal override\r\n    {\r\n        removeProposition();\r\n    }\r\n\r\n    function propositionExpired() internal override\r\n    {\r\n        removeProposition();\r\n    }\r\n\r\n    function removeProposition() internal\r\n    {\r\n       delete(_ProposedContracts);\r\n    }\r\n\r\n    function retrieveProposition() external override view returns(bytes32[] memory)\r\n    {\r\n        bytes32[] memory proposition = new bytes32[](7);\r\n        proposition[0] = AddressLibrary.AddressToBytes32(_ProposedContracts.NewPublicPoolAddress);\r\n        proposition[1] = AddressLibrary.AddressToBytes32(_ProposedContracts.NewTreasuryAddress);\r\n        proposition[2] = AddressLibrary.AddressToBytes32(_ProposedContracts.NewCertisTokenAddress);\r\n        proposition[3] = AddressLibrary.AddressToBytes32(_ProposedContracts.NewPrivatePoolFactoryAddress);\r\n        proposition[4] = AddressLibrary.AddressToBytes32(_ProposedContracts.NewPrivatePoolAddress);\r\n        proposition[5] = AddressLibrary.AddressToBytes32(_ProposedContracts.NewProviderFactoryAddress);\r\n        proposition[6] = AddressLibrary.AddressToBytes32(_ProposedContracts.NewProviderAddress);\r\n        return proposition;\r\n    }\r\n\r\n    function initProxies(Library.InitialContractsStruct calldata initialContracts) private\r\n    {\r\n        _PublicCertificatesPool = GenericProxy(initialContracts.PublicPoolProxyAddress);\r\n        _Treasury = GenericProxy(initialContracts.TreasuryProxyAddress);\r\n        _CertisToken = CertisTokenProxy(initialContracts.CertisTokenProxyAddress);\r\n        _PrivatePoolFactory = GenericProxy(initialContracts.PrivatePoolFactoryProxyAddress);\r\n        _PrivateCertificatePoolBeacon = new UpgradeableBeacon(initialContracts.PrivateCertificatePoolImplAddress);\r\n        _ProviderFactory = GenericProxy(initialContracts.ProviderFactoryProxyAddress);\r\n        _ProviderBeacon = new UpgradeableBeacon(initialContracts.ProviderImplAddress);\r\n    }\r\n\r\n    function upgradeContractsImplementations() private\r\n    {\r\n        if(address(0) != _ProposedContracts.NewPublicPoolAddress){\r\n            if(0 < _ProposedContracts.NewPublicPoolData.length)_PublicCertificatesPool.upgradeToAndCall(_ProposedContracts.NewPublicPoolAddress, _ProposedContracts.NewPublicPoolData);\r\n            else _PublicCertificatesPool.upgradeTo(_ProposedContracts.NewPublicPoolAddress);\r\n        }\r\n        if(address(0) != _ProposedContracts.NewTreasuryAddress){\r\n            if(0 < _ProposedContracts.NewTreasuryData.length)_Treasury.upgradeToAndCall(_ProposedContracts.NewTreasuryAddress, _ProposedContracts.NewTreasuryData);\r\n            else _Treasury.upgradeTo(_ProposedContracts.NewTreasuryAddress);\r\n        }\r\n        if(address(0) != _ProposedContracts.NewCertisTokenAddress){\r\n            if(0 < _ProposedContracts.NewCertisTokenData.length)_CertisToken.upgradeToAndCall(_ProposedContracts.NewCertisTokenAddress, _ProposedContracts.NewCertisTokenData);\r\n            else _CertisToken.upgradeTo(_ProposedContracts.NewCertisTokenAddress);\r\n        }\r\n        if(address(0) != _ProposedContracts.NewPrivatePoolFactoryAddress){\r\n            if(0 < _ProposedContracts.NewPrivatePoolFactoryData.length)_PrivatePoolFactory.upgradeToAndCall(_ProposedContracts.NewPrivatePoolFactoryAddress, _ProposedContracts.NewPrivatePoolFactoryData);\r\n            else _PrivatePoolFactory.upgradeTo(_ProposedContracts.NewPrivatePoolFactoryAddress);\r\n        }\r\n        if(address(0) != _ProposedContracts.NewProviderFactoryAddress){\r\n            if(0 < _ProposedContracts.NewProviderFactoryData.length)_ProviderFactory.upgradeToAndCall(_ProposedContracts.NewProviderFactoryAddress, _ProposedContracts.NewProviderFactoryData);\r\n            else _ProviderFactory.upgradeTo(_ProposedContracts.NewProviderFactoryAddress);\r\n        }\r\n        if(address(0) != _ProposedContracts.NewPrivatePoolAddress)_PrivateCertificatePoolBeacon.upgradeTo(_ProposedContracts.NewPrivatePoolAddress);\r\n        if(address(0) != _ProposedContracts.NewProviderAddress)_ProviderBeacon.upgradeTo(_ProposedContracts.NewProviderAddress);\r\n\r\n        emit _NewContracts(internalRetrievePublicCertificatePool(), internalRetrieveTreasury(), internalRetrieveCertisToken(), internalRetrievePrivatePoolFactory(), internalRetrievePrivatePool(), internalRetrieveProviderFactory(), internalRetrieveProvider());\r\n    }\r\n\r\n    function InternalonTokenBalanceChanged(address from, address to, uint256 amount) internal override\r\n    {\r\n        super.InternalonTokenBalanceChanged(from, to, amount);\r\n    }\r\n\r\n    // configuration Proxies\r\n    function retrievePublicCertificatePoolProxy() external override view returns (address) {\r\n        return (address(_PublicCertificatesPool));\r\n    }\r\n\r\n    function retrieveTreasuryProxy() external override view returns (address) {\r\n        return (address(_Treasury));\r\n    }\r\n\r\n    function retrieveCertisTokenProxy() external override view returns (address) {\r\n        return (address(_CertisToken));\r\n    }\r\n\r\n    function retrievePrivatePoolFactoryProxy() external override view returns (address) {\r\n        return (address(_PrivatePoolFactory));\r\n    }\r\n\r\n    function retrievePrivatePoolBeacon() external override view returns (address) {\r\n        return (address(_PrivateCertificatePoolBeacon));\r\n    }\r\n\r\n    function retrieveProviderFactoryProxy() external override view returns (address) {\r\n        return (address(_ProviderFactory));\r\n    }\r\n\r\n    function retrieveProviderBeacon() external override view returns (address) {\r\n        return (address(_ProviderBeacon));\r\n    }\r\n\r\n    // configuration implementations\r\n    function retrievePublicCertificatePool() external override view returns (address) {\r\n        return internalRetrievePublicCertificatePool();\r\n    }\r\n\r\n    function retrieveTreasury() external override view returns (address) {\r\n        return internalRetrieveTreasury();\r\n    }\r\n\r\n    function retrieveCertisToken() external override view returns (address) {\r\n        return internalRetrieveCertisToken();\r\n    }\r\n\r\n    function retrievePrivatePoolFactory() external override view returns (address) {\r\n        return internalRetrievePrivatePoolFactory();\r\n    }\r\n\r\n    function retrievePrivatePool() external override view returns (address) {\r\n        return internalRetrievePrivatePool();\r\n    }\r\n\r\n    function retrieveProviderFactory() external override view returns (address) {\r\n        return internalRetrieveProviderFactory();\r\n    }\r\n\r\n    function retrieveProvider() external override view returns (address) {\r\n        return internalRetrieveProvider();\r\n    }\r\n\r\n    // internal\r\n    function internalRetrievePublicCertificatePool() internal view returns (address) {\r\n        return _PublicCertificatesPool.retrieveImplementation();\r\n    }\r\n\r\n    function internalRetrieveTreasury() internal view returns (address) {\r\n        return _Treasury.retrieveImplementation();\r\n    }\r\n\r\n    function internalRetrieveCertisToken() internal view returns (address) {\r\n        return _CertisToken.retrieveImplementation();\r\n    }\r\n\r\n    function internalRetrievePrivatePoolFactory() internal view returns (address) {\r\n        return _PrivatePoolFactory.retrieveImplementation();\r\n    }\r\n\r\n    function internalRetrievePrivatePool() internal view returns (address) {\r\n        return _PrivateCertificatePoolBeacon.implementation();\r\n    }\r\n\r\n    function internalRetrieveProviderFactory() internal view returns (address) {\r\n        return _ProviderFactory.retrieveImplementation();\r\n    }\r\n\r\n    function internalRetrieveProvider() internal view returns (address) {\r\n        return _ProviderBeacon.implementation();\r\n    }\r\n    \r\n}",
  "sourcePath": "C:/Users/d-aam/GitHub/Certificates/contracts/DeployedContracts/CertificatesPoolManager.sol",
  "compiler": {
    "name": "solc",
    "version": "0.8.7+commit.e28d00a7.Emscripten.clang"
  },
  "schemaVersion": "3.3.4",
  "updatedAt": "2021-08-13T08:48:22.376Z",
  "devdoc": {
    "kind": "dev",
    "methods": {},
    "version": 1
  },
  "userdoc": {
    "kind": "user",
    "methods": {},
    "version": 1
  }
}