{
  "contractName": "CertisToken",
  "abi": [
    {
      "anonymous": false,
      "inputs": [
        {
          "indexed": true,
          "internalType": "address",
          "name": "owner",
          "type": "address"
        },
        {
          "indexed": true,
          "internalType": "address",
          "name": "spender",
          "type": "address"
        },
        {
          "indexed": false,
          "internalType": "uint256",
          "name": "value",
          "type": "uint256"
        }
      ],
      "name": "Approval",
      "type": "event"
    },
    {
      "anonymous": false,
      "inputs": [
        {
          "indexed": true,
          "internalType": "address",
          "name": "from",
          "type": "address"
        },
        {
          "indexed": true,
          "internalType": "address",
          "name": "to",
          "type": "address"
        },
        {
          "indexed": false,
          "internalType": "uint256",
          "name": "value",
          "type": "uint256"
        }
      ],
      "name": "Transfer",
      "type": "event"
    },
    {
      "inputs": [
        {
          "internalType": "address",
          "name": "owner",
          "type": "address"
        },
        {
          "internalType": "address",
          "name": "spender",
          "type": "address"
        }
      ],
      "name": "allowance",
      "outputs": [
        {
          "internalType": "uint256",
          "name": "",
          "type": "uint256"
        }
      ],
      "stateMutability": "view",
      "type": "function"
    },
    {
      "inputs": [
        {
          "internalType": "address",
          "name": "spender",
          "type": "address"
        },
        {
          "internalType": "uint256",
          "name": "amount",
          "type": "uint256"
        }
      ],
      "name": "approve",
      "outputs": [
        {
          "internalType": "bool",
          "name": "",
          "type": "bool"
        }
      ],
      "stateMutability": "nonpayable",
      "type": "function"
    },
    {
      "inputs": [
        {
          "internalType": "address",
          "name": "account",
          "type": "address"
        }
      ],
      "name": "balanceOf",
      "outputs": [
        {
          "internalType": "uint256",
          "name": "",
          "type": "uint256"
        }
      ],
      "stateMutability": "view",
      "type": "function"
    },
    {
      "inputs": [
        {
          "internalType": "address",
          "name": "spender",
          "type": "address"
        },
        {
          "internalType": "uint256",
          "name": "subtractedValue",
          "type": "uint256"
        }
      ],
      "name": "decreaseAllowance",
      "outputs": [
        {
          "internalType": "bool",
          "name": "",
          "type": "bool"
        }
      ],
      "stateMutability": "nonpayable",
      "type": "function"
    },
    {
      "inputs": [
        {
          "internalType": "address",
          "name": "spender",
          "type": "address"
        },
        {
          "internalType": "uint256",
          "name": "addedValue",
          "type": "uint256"
        }
      ],
      "name": "increaseAllowance",
      "outputs": [
        {
          "internalType": "bool",
          "name": "",
          "type": "bool"
        }
      ],
      "stateMutability": "nonpayable",
      "type": "function"
    },
    {
      "inputs": [],
      "name": "name",
      "outputs": [
        {
          "internalType": "string",
          "name": "",
          "type": "string"
        }
      ],
      "stateMutability": "view",
      "type": "function"
    },
    {
      "inputs": [],
      "name": "symbol",
      "outputs": [
        {
          "internalType": "string",
          "name": "",
          "type": "string"
        }
      ],
      "stateMutability": "view",
      "type": "function"
    },
    {
      "inputs": [],
      "name": "totalSupply",
      "outputs": [
        {
          "internalType": "uint256",
          "name": "",
          "type": "uint256"
        }
      ],
      "stateMutability": "view",
      "type": "function"
    },
    {
      "inputs": [
        {
          "internalType": "address",
          "name": "recipient",
          "type": "address"
        },
        {
          "internalType": "uint256",
          "name": "amount",
          "type": "uint256"
        }
      ],
      "name": "transfer",
      "outputs": [
        {
          "internalType": "bool",
          "name": "",
          "type": "bool"
        }
      ],
      "stateMutability": "nonpayable",
      "type": "function"
    },
    {
      "inputs": [
        {
          "internalType": "address",
          "name": "sender",
          "type": "address"
        },
        {
          "internalType": "address",
          "name": "recipient",
          "type": "address"
        },
        {
          "internalType": "uint256",
          "name": "amount",
          "type": "uint256"
        }
      ],
      "name": "transferFrom",
      "outputs": [
        {
          "internalType": "bool",
          "name": "",
          "type": "bool"
        }
      ],
      "stateMutability": "nonpayable",
      "type": "function"
    },
    {
      "inputs": [
        {
          "internalType": "string",
          "name": "name",
          "type": "string"
        },
        {
          "internalType": "string",
          "name": "symbol",
          "type": "string"
        },
        {
          "internalType": "uint256",
          "name": "MaxSupply",
          "type": "uint256"
        },
        {
          "internalType": "address",
          "name": "managerContractAddress",
          "type": "address"
        },
        {
          "internalType": "uint8",
          "name": "decimalsValue",
          "type": "uint8"
        }
      ],
      "name": "CertisToken_init",
      "outputs": [],
      "stateMutability": "nonpayable",
      "type": "function"
    },
    {
      "inputs": [],
      "name": "decimals",
      "outputs": [
        {
          "internalType": "uint8",
          "name": "",
          "type": "uint8"
        }
      ],
      "stateMutability": "view",
      "type": "function"
    }
  ],
  "bytecode": "0x608060405234801561001057600080fd5b506110ed806100206000396000f3fe608060405234801561001057600080fd5b50600436106100a45760003560e01c806306fdde03146100a9578063095ea7b3146100c757806314bfa621146100ea57806318160ddd146100ff57806323b872dd14610111578063313ce56714610124578063395093511461013957806370a082311461014c57806395d89b4114610175578063a457c2d71461017d578063a9059cbb14610190578063dd62ed3e146101a3575b600080fd5b6100b16101dc565b6040516100be9190610f68565b60405180910390f35b6100da6100d5366004610e5c565b61026e565b60405190151581526020016100be565b6100fd6100f8366004610eaa565b610284565b005b6035545b6040519081526020016100be565b6100da61011f366004610e1b565b61032a565b60655460405160ff90911681526020016100be565b6100da610147366004610e5c565b6103d4565b61010361015a366004610da1565b6001600160a01b031660009081526033602052604090205490565b6100b1610410565b6100da61018b366004610e5c565b61041f565b6100da61019e366004610e5c565b6104b8565b6101036101b1366004610de2565b6001600160a01b03918216600090815260346020908152604080832093909416825291909152205490565b6060603680546101eb90611031565b80601f016020809104026020016040519081016040528092919081815260200182805461021790611031565b80156102645780601f1061023957610100808354040283529160200191610264565b820191906000526020600020905b81548152906001019060200180831161024757829003601f168201915b5050505050905090565b600061027b3384846104c5565b50600192915050565b600054610100900460ff168061029d575060005460ff16155b6102c25760405162461bcd60e51b81526004016102b990610fbd565b60405180910390fd5b600054610100900460ff161580156102e4576000805461ffff19166101011790555b6102ed836105e9565b6102f78686610678565b6065805460ff191660ff841617905561031033856106f8565b8015610322576000805461ff00191690555b505050505050565b60006103378484846107d1565b6001600160a01b0384166000908152603460209081526040808320338452909152902054828110156103bc5760405162461bcd60e51b815260206004820152602860248201527f45524332303a207472616e7366657220616d6f756e74206578636565647320616044820152676c6c6f77616e636560c01b60648201526084016102b9565b6103c985338584036104c5565b506001949350505050565b3360008181526034602090815260408083206001600160a01b0387168452909152812054909161027b91859061040b90869061100b565b6104c5565b6060603780546101eb90611031565b3360009081526034602090815260408083206001600160a01b0386168452909152812054828110156104a15760405162461bcd60e51b815260206004820152602560248201527f45524332303a2064656372656173656420616c6c6f77616e63652062656c6f77604482015264207a65726f60d81b60648201526084016102b9565b6104ae33858584036104c5565b5060019392505050565b600061027b3384846107d1565b6001600160a01b0383166105275760405162461bcd60e51b8152602060048201526024808201527f45524332303a20617070726f76652066726f6d20746865207a65726f206164646044820152637265737360e01b60648201526084016102b9565b6001600160a01b0382166105885760405162461bcd60e51b815260206004820152602260248201527f45524332303a20617070726f766520746f20746865207a65726f206164647265604482015261737360f01b60648201526084016102b9565b6001600160a01b0383811660008181526034602090815260408083209487168084529482529182902085905590518481527f8c5be1e5ebec7d5bd14f71427d1e84f3dd0314c0f7b2291e5b200ac8c7c3b925910160405180910390a3505050565b600054610100900460ff1680610602575060005460ff16155b61061e5760405162461bcd60e51b81526004016102b990610fbd565b600054610100900460ff16158015610640576000805461ffff19166101011790555b6000805462010000600160b01b031916620100006001600160a01b038516021790558015610674576000805461ff00191690555b5050565b600054610100900460ff1680610691575060005460ff16155b6106ad5760405162461bcd60e51b81526004016102b990610fbd565b600054610100900460ff161580156106cf576000805461ffff19166101011790555b6106d7610999565b6106e18383610a05565b80156106f3576000805461ff00191690555b505050565b6001600160a01b03821661074e5760405162461bcd60e51b815260206004820152601f60248201527f45524332303a206d696e7420746f20746865207a65726f20616464726573730060448201526064016102b9565b61075a60008383610a9a565b806035600082825461076c919061100b565b90915550506001600160a01b0382166000908152603360205260408120805483929061079990849061100b565b90915550506040518181526001600160a01b038316906000906000805160206110988339815191529060200160405180910390a35050565b6001600160a01b0383166108355760405162461bcd60e51b815260206004820152602560248201527f45524332303a207472616e736665722066726f6d20746865207a65726f206164604482015264647265737360d81b60648201526084016102b9565b6001600160a01b0382166108975760405162461bcd60e51b815260206004820152602360248201527f45524332303a207472616e7366657220746f20746865207a65726f206164647260448201526265737360e81b60648201526084016102b9565b6108a2838383610a9a565b6001600160a01b0383166000908152603360205260409020548181101561091a5760405162461bcd60e51b815260206004820152602660248201527f45524332303a207472616e7366657220616d6f756e7420657863656564732062604482015265616c616e636560d01b60648201526084016102b9565b6001600160a01b0380851660009081526033602052604080822085850390559185168152908120805484929061095190849061100b565b92505081905550826001600160a01b0316846001600160a01b03166000805160206110988339815191528460405161098b91815260200190565b60405180910390a350505050565b600054610100900460ff16806109b2575060005460ff16155b6109ce5760405162461bcd60e51b81526004016102b990610fbd565b600054610100900460ff161580156109f0576000805461ffff19166101011790555b8015610a02576000805461ff00191690555b50565b600054610100900460ff1680610a1e575060005460ff16155b610a3a5760405162461bcd60e51b81526004016102b990610fbd565b600054610100900460ff16158015610a5c576000805461ffff19166101011790555b8251610a6f906036906020860190610c7c565b508151610a83906037906020850190610c7c565b5080156106f3576000805461ff0019169055505050565b600060029054906101000a90046001600160a01b03166001600160a01b031663392e53cd6040518163ffffffff1660e01b815260040160206040518083038186803b158015610ae857600080fd5b505afa158015610afc573d6000803e3d6000fd5b505050506040513d601f19601f82011682018060405250810190610b209190610e88565b156106f357600060029054906101000a90046001600160a01b03166001600160a01b0316635a3794e96040518163ffffffff1660e01b815260040160206040518083038186803b158015610b7357600080fd5b505afa158015610b87573d6000803e3d6000fd5b505050506040513d601f19601f82011682018060405250810190610bab9190610dc5565b6001600160a01b0316633c7df55d8484846040518463ffffffff1660e01b8152600401610bda93929190610f44565b600060405180830381600087803b158015610bf457600080fd5b505af1158015610c08573d6000803e3d6000fd5b5050600054604051633c7df55d60e01b8152620100009091046001600160a01b03169250633c7df55d9150610c4590869086908690600401610f44565b600060405180830381600087803b158015610c5f57600080fd5b505af1158015610c73573d6000803e3d6000fd5b50505050505050565b828054610c8890611031565b90600052602060002090601f016020900481019282610caa5760008555610cf0565b82601f10610cc357805160ff1916838001178555610cf0565b82800160010185558215610cf0579182015b82811115610cf0578251825591602001919060010190610cd5565b50610cfc929150610d00565b5090565b5b80821115610cfc5760008155600101610d01565b600082601f830112610d2657600080fd5b81356001600160401b0380821115610d4057610d4061106c565b604051601f8301601f19908116603f01168101908282118183101715610d6857610d6861106c565b81604052838152866020858801011115610d8157600080fd5b836020870160208301376000602085830101528094505050505092915050565b600060208284031215610db357600080fd5b8135610dbe81611082565b9392505050565b600060208284031215610dd757600080fd5b8151610dbe81611082565b60008060408385031215610df557600080fd5b8235610e0081611082565b91506020830135610e1081611082565b809150509250929050565b600080600060608486031215610e3057600080fd5b8335610e3b81611082565b92506020840135610e4b81611082565b929592945050506040919091013590565b60008060408385031215610e6f57600080fd5b8235610e7a81611082565b946020939093013593505050565b600060208284031215610e9a57600080fd5b81518015158114610dbe57600080fd5b600080600080600060a08688031215610ec257600080fd5b85356001600160401b0380821115610ed957600080fd5b610ee589838a01610d15565b96506020880135915080821115610efb57600080fd5b50610f0888828901610d15565b945050604086013592506060860135610f2081611082565b9150608086013560ff81168114610f3657600080fd5b809150509295509295909350565b6001600160a01b039384168152919092166020820152604081019190915260600190565b600060208083528351808285015260005b81811015610f9557858101830151858201604001528201610f79565b81811115610fa7576000604083870101525b50601f01601f1916929092016040019392505050565b6020808252602e908201527f496e697469616c697a61626c653a20636f6e747261637420697320616c72656160408201526d191e481a5b9a5d1a585b1a5e995960921b606082015260800190565b6000821982111561102c57634e487b7160e01b600052601160045260246000fd5b500190565b600181811c9082168061104557607f821691505b6020821081141561106657634e487b7160e01b600052602260045260246000fd5b50919050565b634e487b7160e01b600052604160045260246000fd5b6001600160a01b0381168114610a0257600080fdfeddf252ad1be2c89b69c2b068fc378daa952ba7f163c4a11628f55a4df523b3efa264697066735822122019168f24570038591f40315a6f0c9ea8fefbbe35668e78e90ac49f0b2c781e6e64736f6c63430008070033",
  "immutableReferences": {},
  "source": "// SPDX-License-Identifier: GPL-3.0\r\n\r\npragma solidity ^0.8.0;\r\n\r\n/**\r\n * @title Storage\r\n * @dev Store & retrieve value in a variable\r\n */\r\n\r\nimport \"@openzeppelin/contracts-upgradeable/token/ERC20/ERC20Upgradeable.sol\";\r\nimport \"@openzeppelin/contracts-upgradeable/proxy/utils/Initializable.sol\";\r\nimport \"../Libraries/AddressLibrary.sol\";\r\nimport \"../Interfaces/ITokenEventSubscriber.sol\";\r\nimport \"../Base/ManagedBaseContract.sol\";\r\n\r\n contract CertisToken is  Initializable, ManagedBaseContract, ERC20Upgradeable {\r\n    using AddressLibrary for *;\r\n\r\n    // DATA /////////////////////////////////////////\r\n    // decimals\r\n    uint8 private _decimals;\r\n\r\n    // CONSTRUCTOR /////////////////////////////////////////\r\n    function CertisToken_init(string memory name, string memory symbol, uint256 MaxSupply, address managerContractAddress, uint8 decimalsValue) public initializer {\r\n        super.ManagedBaseContract_init(managerContractAddress);\r\n        super.__ERC20_init(name, symbol);\r\n    \r\n        _decimals = decimalsValue;\r\n        _mint(msg.sender, MaxSupply);\r\n    }\r\n\r\n    // FUNCTIONALITY /////////////////////////////////////////\r\n    function decimals() public view override returns (uint8) \r\n    {\r\n        return _decimals;\r\n    }\r\n\r\n    function _beforeTokenTransfer(address from, address to, uint256 amount) internal override \r\n    {\r\n        if(_managerContract.isInitialized()){\r\n            ITokenEventSubscriber(_managerContract.retrieveTreasuryProxy()).onTokenBalanceChanged(from, to, amount);\r\n            ITokenEventSubscriber(address(_managerContract)).onTokenBalanceChanged(from, to, amount);\r\n        } \r\n    }\r\n\r\n }",
  "sourcePath": "C:/Users/d-aam/GitHub/Certificates/contracts/DeployedContracts/CertisToken.sol",
  "compiler": {
    "name": "solc",
    "version": "0.8.7+commit.e28d00a7.Emscripten.clang"
  },
  "schemaVersion": "3.3.4",
  "updatedAt": "2021-08-17T09:26:52.087Z",
  "devdoc": {
    "kind": "dev",
    "methods": {
      "allowance(address,address)": {
        "details": "See {IERC20-allowance}."
      },
      "approve(address,uint256)": {
        "details": "See {IERC20-approve}. Requirements: - `spender` cannot be the zero address."
      },
      "balanceOf(address)": {
        "details": "See {IERC20-balanceOf}."
      },
      "decimals()": {
        "details": "Returns the number of decimals used to get its user representation. For example, if `decimals` equals `2`, a balance of `505` tokens should be displayed to a user as `5,05` (`505 / 10 ** 2`). Tokens usually opt for a value of 18, imitating the relationship between Ether and Wei. This is the value {ERC20} uses, unless this function is overridden; NOTE: This information is only used for _display_ purposes: it in no way affects any of the arithmetic of the contract, including {IERC20-balanceOf} and {IERC20-transfer}."
      },
      "decreaseAllowance(address,uint256)": {
        "details": "Atomically decreases the allowance granted to `spender` by the caller. This is an alternative to {approve} that can be used as a mitigation for problems described in {IERC20-approve}. Emits an {Approval} event indicating the updated allowance. Requirements: - `spender` cannot be the zero address. - `spender` must have allowance for the caller of at least `subtractedValue`."
      },
      "increaseAllowance(address,uint256)": {
        "details": "Atomically increases the allowance granted to `spender` by the caller. This is an alternative to {approve} that can be used as a mitigation for problems described in {IERC20-approve}. Emits an {Approval} event indicating the updated allowance. Requirements: - `spender` cannot be the zero address."
      },
      "name()": {
        "details": "Returns the name of the token."
      },
      "symbol()": {
        "details": "Returns the symbol of the token, usually a shorter version of the name."
      },
      "totalSupply()": {
        "details": "See {IERC20-totalSupply}."
      },
      "transfer(address,uint256)": {
        "details": "See {IERC20-transfer}. Requirements: - `recipient` cannot be the zero address. - the caller must have a balance of at least `amount`."
      },
      "transferFrom(address,address,uint256)": {
        "details": "See {IERC20-transferFrom}. Emits an {Approval} event indicating the updated allowance. This is not required by the EIP. See the note at the beginning of {ERC20}. Requirements: - `sender` and `recipient` cannot be the zero address. - `sender` must have a balance of at least `amount`. - the caller must have allowance for ``sender``'s tokens of at least `amount`."
      }
    },
    "version": 1
  },
  "userdoc": {
    "kind": "user",
    "methods": {},
    "version": 1
  }
}