{
  "contractName": "CertificatesPoolManager",
  "abi": [
    {
      "inputs": [
        {
          "internalType": "uint256",
          "name": "PropositionLifeTime",
          "type": "uint256"
        },
        {
          "internalType": "uint8",
          "name": "PropositionThresholdPercentage",
          "type": "uint8"
        },
        {
          "internalType": "uint8",
          "name": "minWeightToProposePercentage",
          "type": "uint8"
        }
      ],
      "stateMutability": "nonpayable",
      "type": "constructor"
    },
    {
      "anonymous": false,
      "inputs": [
        {
          "indexed": false,
          "internalType": "uint256",
          "name": "",
          "type": "uint256"
        },
        {
          "indexed": true,
          "internalType": "address",
          "name": "",
          "type": "address"
        },
        {
          "indexed": false,
          "internalType": "uint256",
          "name": "",
          "type": "uint256"
        },
        {
          "indexed": false,
          "internalType": "uint256",
          "name": "",
          "type": "uint256"
        }
      ],
      "name": "_AddedProposition",
      "type": "event"
    },
    {
      "anonymous": false,
      "inputs": [
        {
          "indexed": false,
          "internalType": "uint256",
          "name": "",
          "type": "uint256"
        },
        {
          "indexed": true,
          "internalType": "address",
          "name": "",
          "type": "address"
        }
      ],
      "name": "_CancelledProposition",
      "type": "event"
    },
    {
      "anonymous": false,
      "inputs": [
        {
          "indexed": false,
          "internalType": "address",
          "name": "",
          "type": "address"
        },
        {
          "indexed": false,
          "internalType": "address",
          "name": "",
          "type": "address"
        },
        {
          "indexed": false,
          "internalType": "address",
          "name": "",
          "type": "address"
        },
        {
          "indexed": false,
          "internalType": "address",
          "name": "",
          "type": "address"
        },
        {
          "indexed": false,
          "internalType": "address",
          "name": "",
          "type": "address"
        },
        {
          "indexed": false,
          "internalType": "address",
          "name": "",
          "type": "address"
        },
        {
          "indexed": false,
          "internalType": "address",
          "name": "",
          "type": "address"
        },
        {
          "indexed": false,
          "internalType": "address",
          "name": "",
          "type": "address"
        }
      ],
      "name": "_NewContracts",
      "type": "event"
    },
    {
      "anonymous": false,
      "inputs": [
        {
          "indexed": false,
          "internalType": "uint256",
          "name": "",
          "type": "uint256"
        },
        {
          "indexed": true,
          "internalType": "address",
          "name": "",
          "type": "address"
        },
        {
          "indexed": false,
          "internalType": "uint256",
          "name": "",
          "type": "uint256"
        },
        {
          "indexed": false,
          "internalType": "uint256",
          "name": "",
          "type": "uint256"
        }
      ],
      "name": "_PropositionApproved",
      "type": "event"
    },
    {
      "anonymous": false,
      "inputs": [
        {
          "indexed": false,
          "internalType": "uint256",
          "name": "",
          "type": "uint256"
        },
        {
          "indexed": true,
          "internalType": "address",
          "name": "",
          "type": "address"
        },
        {
          "indexed": false,
          "internalType": "uint256",
          "name": "",
          "type": "uint256"
        },
        {
          "indexed": false,
          "internalType": "uint256",
          "name": "",
          "type": "uint256"
        }
      ],
      "name": "_PropositionRejected",
      "type": "event"
    },
    {
      "anonymous": false,
      "inputs": [
        {
          "indexed": false,
          "internalType": "uint256",
          "name": "",
          "type": "uint256"
        },
        {
          "indexed": true,
          "internalType": "address",
          "name": "",
          "type": "address"
        },
        {
          "indexed": false,
          "internalType": "bool",
          "name": "",
          "type": "bool"
        },
        {
          "indexed": false,
          "internalType": "uint256",
          "name": "",
          "type": "uint256"
        }
      ],
      "name": "_PropositionVote",
      "type": "event"
    },
    {
      "anonymous": false,
      "inputs": [
        {
          "indexed": true,
          "internalType": "uint256",
          "name": "",
          "type": "uint256"
        },
        {
          "indexed": false,
          "internalType": "address",
          "name": "",
          "type": "address"
        },
        {
          "indexed": false,
          "internalType": "address",
          "name": "",
          "type": "address"
        },
        {
          "indexed": false,
          "internalType": "uint256",
          "name": "",
          "type": "uint256"
        }
      ],
      "name": "_UsedTokensTransfered",
      "type": "event"
    },
    {
      "inputs": [],
      "name": "cancelProposition",
      "outputs": [],
      "stateMutability": "nonpayable",
      "type": "function"
    },
    {
      "inputs": [],
      "name": "isCurrentPropositionProp",
      "outputs": [
        {
          "internalType": "bool",
          "name": "",
          "type": "bool"
        }
      ],
      "stateMutability": "view",
      "type": "function"
    },
    {
      "inputs": [
        {
          "internalType": "address",
          "name": "from",
          "type": "address"
        },
        {
          "internalType": "address",
          "name": "to",
          "type": "address"
        },
        {
          "internalType": "uint256",
          "name": "amount",
          "type": "uint256"
        }
      ],
      "name": "onTokenBalanceChanged",
      "outputs": [],
      "stateMutability": "nonpayable",
      "type": "function"
    },
    {
      "inputs": [],
      "name": "retrieveChairPerson",
      "outputs": [
        {
          "internalType": "address",
          "name": "",
          "type": "address"
        }
      ],
      "stateMutability": "view",
      "type": "function"
    },
    {
      "inputs": [],
      "name": "retrieveManagerContract",
      "outputs": [
        {
          "internalType": "address",
          "name": "",
          "type": "address"
        }
      ],
      "stateMutability": "view",
      "type": "function"
    },
    {
      "inputs": [],
      "name": "retrieveNextPropId",
      "outputs": [
        {
          "internalType": "uint256",
          "name": "",
          "type": "uint256"
        }
      ],
      "stateMutability": "view",
      "type": "function"
    },
    {
      "inputs": [],
      "name": "retrievePendingPropConfig",
      "outputs": [
        {
          "internalType": "uint256",
          "name": "",
          "type": "uint256"
        },
        {
          "internalType": "uint8",
          "name": "",
          "type": "uint8"
        },
        {
          "internalType": "uint8",
          "name": "",
          "type": "uint8"
        },
        {
          "internalType": "bool",
          "name": "",
          "type": "bool"
        }
      ],
      "stateMutability": "view",
      "type": "function"
    },
    {
      "inputs": [],
      "name": "retrievePropConfig",
      "outputs": [
        {
          "internalType": "uint256",
          "name": "",
          "type": "uint256"
        },
        {
          "internalType": "uint8",
          "name": "",
          "type": "uint8"
        },
        {
          "internalType": "uint8",
          "name": "",
          "type": "uint8"
        }
      ],
      "stateMutability": "view",
      "type": "function"
    },
    {
      "inputs": [],
      "name": "retrievePropositionStatus",
      "outputs": [
        {
          "internalType": "address",
          "name": "",
          "type": "address"
        },
        {
          "internalType": "uint256",
          "name": "",
          "type": "uint256"
        },
        {
          "internalType": "uint256",
          "name": "",
          "type": "uint256"
        },
        {
          "internalType": "uint256",
          "name": "",
          "type": "uint256"
        },
        {
          "internalType": "uint256",
          "name": "",
          "type": "uint256"
        }
      ],
      "stateMutability": "view",
      "type": "function"
    },
    {
      "inputs": [
        {
          "internalType": "uint256",
          "name": "PropId",
          "type": "uint256"
        },
        {
          "internalType": "address",
          "name": "voter",
          "type": "address"
        }
      ],
      "name": "retrieveVotesForVoter",
      "outputs": [
        {
          "internalType": "uint256",
          "name": "",
          "type": "uint256"
        }
      ],
      "stateMutability": "view",
      "type": "function"
    },
    {
      "inputs": [
        {
          "internalType": "uint256",
          "name": "PropLifeTime",
          "type": "uint256"
        },
        {
          "internalType": "uint8",
          "name": "PropThresholdPerc",
          "type": "uint8"
        },
        {
          "internalType": "uint8",
          "name": "minWeightToPropPerc",
          "type": "uint8"
        }
      ],
      "name": "updateProp",
      "outputs": [],
      "stateMutability": "nonpayable",
      "type": "function"
    },
    {
      "inputs": [
        {
          "internalType": "bool",
          "name": "vote",
          "type": "bool"
        }
      ],
      "name": "voteProposition",
      "outputs": [],
      "stateMutability": "nonpayable",
      "type": "function"
    },
    {
      "inputs": [
        {
          "components": [
            {
              "internalType": "address",
              "name": "NewPublicPoolAddress",
              "type": "address"
            },
            {
              "internalType": "address",
              "name": "NewTreasuryAddress",
              "type": "address"
            },
            {
              "internalType": "address",
              "name": "NewCertisTokenAddress",
              "type": "address"
            },
            {
              "internalType": "address",
              "name": "NewPrivatePoolFactoryAddress",
              "type": "address"
            },
            {
              "internalType": "address",
              "name": "NewPrivatePoolAddress",
              "type": "address"
            },
            {
              "internalType": "address",
              "name": "NewProviderFactoryAddress",
              "type": "address"
            },
            {
              "internalType": "address",
              "name": "NewProviderAddress",
              "type": "address"
            },
            {
              "internalType": "address",
              "name": "NewPriceConverterAddress",
              "type": "address"
            },
            {
              "internalType": "bytes",
              "name": "NewPublicPoolData",
              "type": "bytes"
            },
            {
              "internalType": "bytes",
              "name": "NewTreasuryData",
              "type": "bytes"
            },
            {
              "internalType": "bytes",
              "name": "NewCertisTokenData",
              "type": "bytes"
            },
            {
              "internalType": "bytes",
              "name": "NewPrivatePoolFactoryData",
              "type": "bytes"
            },
            {
              "internalType": "bytes",
              "name": "NewProviderFactoryData",
              "type": "bytes"
            },
            {
              "internalType": "bytes",
              "name": "NewPriceConverterData",
              "type": "bytes"
            }
          ],
          "internalType": "struct Library.ProposedContractsStruct",
          "name": "initialContracts",
          "type": "tuple"
        }
      ],
      "name": "InitializeContracts",
      "outputs": [],
      "stateMutability": "nonpayable",
      "type": "function"
    },
    {
      "inputs": [
        {
          "components": [
            {
              "internalType": "address",
              "name": "NewPublicPoolAddress",
              "type": "address"
            },
            {
              "internalType": "address",
              "name": "NewTreasuryAddress",
              "type": "address"
            },
            {
              "internalType": "address",
              "name": "NewCertisTokenAddress",
              "type": "address"
            },
            {
              "internalType": "address",
              "name": "NewPrivatePoolFactoryAddress",
              "type": "address"
            },
            {
              "internalType": "address",
              "name": "NewPrivatePoolAddress",
              "type": "address"
            },
            {
              "internalType": "address",
              "name": "NewProviderFactoryAddress",
              "type": "address"
            },
            {
              "internalType": "address",
              "name": "NewProviderAddress",
              "type": "address"
            },
            {
              "internalType": "address",
              "name": "NewPriceConverterAddress",
              "type": "address"
            },
            {
              "internalType": "bytes",
              "name": "NewPublicPoolData",
              "type": "bytes"
            },
            {
              "internalType": "bytes",
              "name": "NewTreasuryData",
              "type": "bytes"
            },
            {
              "internalType": "bytes",
              "name": "NewCertisTokenData",
              "type": "bytes"
            },
            {
              "internalType": "bytes",
              "name": "NewPrivatePoolFactoryData",
              "type": "bytes"
            },
            {
              "internalType": "bytes",
              "name": "NewProviderFactoryData",
              "type": "bytes"
            },
            {
              "internalType": "bytes",
              "name": "NewPriceConverterData",
              "type": "bytes"
            }
          ],
          "internalType": "struct Library.ProposedContractsStruct",
          "name": "UpgradeProposition",
          "type": "tuple"
        }
      ],
      "name": "upgradeContracts",
      "outputs": [],
      "stateMutability": "nonpayable",
      "type": "function"
    },
    {
      "inputs": [],
      "name": "retrieveProposition",
      "outputs": [
        {
          "internalType": "bytes32[]",
          "name": "",
          "type": "bytes32[]"
        }
      ],
      "stateMutability": "view",
      "type": "function"
    },
    {
      "inputs": [],
      "name": "retrievePublicCertificatePoolProxy",
      "outputs": [
        {
          "internalType": "address",
          "name": "",
          "type": "address"
        }
      ],
      "stateMutability": "view",
      "type": "function"
    },
    {
      "inputs": [],
      "name": "retrieveTreasuryProxy",
      "outputs": [
        {
          "internalType": "address",
          "name": "",
          "type": "address"
        }
      ],
      "stateMutability": "view",
      "type": "function"
    },
    {
      "inputs": [],
      "name": "retrieveCertisTokenProxy",
      "outputs": [
        {
          "internalType": "address",
          "name": "",
          "type": "address"
        }
      ],
      "stateMutability": "view",
      "type": "function"
    },
    {
      "inputs": [],
      "name": "retrievePrivatePoolFactoryProxy",
      "outputs": [
        {
          "internalType": "address",
          "name": "",
          "type": "address"
        }
      ],
      "stateMutability": "view",
      "type": "function"
    },
    {
      "inputs": [],
      "name": "retrievePrivatePoolBeacon",
      "outputs": [
        {
          "internalType": "address",
          "name": "",
          "type": "address"
        }
      ],
      "stateMutability": "view",
      "type": "function"
    },
    {
      "inputs": [],
      "name": "retrieveProviderFactoryProxy",
      "outputs": [
        {
          "internalType": "address",
          "name": "",
          "type": "address"
        }
      ],
      "stateMutability": "view",
      "type": "function"
    },
    {
      "inputs": [],
      "name": "retrieveProviderBeacon",
      "outputs": [
        {
          "internalType": "address",
          "name": "",
          "type": "address"
        }
      ],
      "stateMutability": "view",
      "type": "function"
    },
    {
      "inputs": [],
      "name": "retrievePriceConverterProxy",
      "outputs": [
        {
          "internalType": "address",
          "name": "",
          "type": "address"
        }
      ],
      "stateMutability": "view",
      "type": "function"
    },
    {
      "inputs": [],
      "name": "retrievePublicCertificatePool",
      "outputs": [
        {
          "internalType": "address",
          "name": "",
          "type": "address"
        }
      ],
      "stateMutability": "view",
      "type": "function"
    },
    {
      "inputs": [],
      "name": "retrieveTreasury",
      "outputs": [
        {
          "internalType": "address",
          "name": "",
          "type": "address"
        }
      ],
      "stateMutability": "view",
      "type": "function"
    },
    {
      "inputs": [],
      "name": "retrieveCertisToken",
      "outputs": [
        {
          "internalType": "address",
          "name": "",
          "type": "address"
        }
      ],
      "stateMutability": "view",
      "type": "function"
    },
    {
      "inputs": [],
      "name": "retrievePrivatePoolFactory",
      "outputs": [
        {
          "internalType": "address",
          "name": "",
          "type": "address"
        }
      ],
      "stateMutability": "view",
      "type": "function"
    },
    {
      "inputs": [],
      "name": "retrievePrivatePool",
      "outputs": [
        {
          "internalType": "address",
          "name": "",
          "type": "address"
        }
      ],
      "stateMutability": "view",
      "type": "function"
    },
    {
      "inputs": [],
      "name": "retrieveProviderFactory",
      "outputs": [
        {
          "internalType": "address",
          "name": "",
          "type": "address"
        }
      ],
      "stateMutability": "view",
      "type": "function"
    },
    {
      "inputs": [],
      "name": "retrieveProvider",
      "outputs": [
        {
          "internalType": "address",
          "name": "",
          "type": "address"
        }
      ],
      "stateMutability": "view",
      "type": "function"
    },
    {
      "inputs": [],
      "name": "retrievePriceConverter",
      "outputs": [
        {
          "internalType": "address",
          "name": "",
          "type": "address"
        }
      ],
      "stateMutability": "view",
      "type": "function"
    },
    {
      "inputs": [],
      "name": "isInitialized",
      "outputs": [
        {
          "internalType": "bool",
          "name": "",
          "type": "bool"
        }
      ],
      "stateMutability": "view",
      "type": "function"
    }
  ],
  "bytecode": "0x60806040523480156200001157600080fd5b50604051620053c2380380620053c2833981016040819052620000349162000885565b6200004e8383833330620000b060201b620010ac1760201c565b6040516200005c90620007bc565b604051809103906000f08015801562000079573d6000803e3d6000fd5b50600e80546001600160a01b0319166001600160a01b039290921691909117905550506024805460ff60a01b191690555062000a04565b600054610100900460ff1680620000ca575060005460ff16155b620000f25760405162461bcd60e51b8152600401620000e990620008e5565b60405180910390fd5b600054610100900460ff1615801562000115576000805461ffff19166101011790555b6200012b826200017760201b6200115f1760201c565b600180546001600160a01b0319166001600160a01b03851617815560006008556200015c908790879087906200020c565b80156200016f576000805461ff00191690555b505050505050565b600054610100900460ff168062000191575060005460ff16155b620001b05760405162461bcd60e51b8152600401620000e990620008e5565b600054610100900460ff16158015620001d3576000805461ffff19166101011790555b6000805462010000600160b01b031916620100006001600160a01b03851602179055801562000208576000805461ff00191690555b5050565b82828160ff1660641015620002355760405162461bcd60e51b8152600401620000e990620008c6565b8060ff16606410156200025c5760405162461bcd60e51b8152600401620000e990620008c6565b82156200028957600a869055600b805460ff8681166101000261ffff19909216908816171790556200016f565b600c869055600d805460ff8681166101000261ffff1990921690881617179055600b805462ff00001916620100001790556200016f6000620002ca6200040e565b15620003015760405162461bcd60e51b8152602060048201526005602482015264454332342d60d81b6044820152606401620000e9565b6200030c3362000473565b1515600114620003475760405162461bcd60e51b8152602060048201526005602482015264454332322d60d81b6044820152606401620000e9565b600380546001600160a01b03191633179055600a5462000368904262000933565b600455600b5460649060ff166200037e620004f2565b6200038a919062000971565b6200039691906200094e565b600555600880546002819055906000620003b083620009d0565b909155505060035460025460045460055460408051938452602084019290925282820152516001600160a01b03909216917f472501d19bf75639b2e316cd36f8568b0c3ab943b82a87de3c086c98c1929df99181900360600190a250565b600454600090421015620004225750600190565b6003546001600160a01b0316156200046d576200043e620005f6565b6200046d60006002819055600380546001600160a01b0319169055600481905560058190556006819055600755565b50600090565b6001546000906001600160a01b03838116911614156200049557506001919050565b6000620004a28362000602565b90506064620004b0620004f2565b600b54620004c79190610100900460ff1662000971565b620004d391906200094e565b811115620004e45750600192915050565b50600092915050565b919050565b60008060029054906101000a90046001600160a01b03166001600160a01b031663da3dce266040518163ffffffff1660e01b815260040160206040518083038186803b1580156200054257600080fd5b505afa15801562000557573d6000803e3d6000fd5b505050506040513d601f19601f820116820180604052508101906200057d919062000839565b6001600160a01b03166318160ddd6040518163ffffffff1660e01b815260040160206040518083038186803b158015620005b657600080fd5b505afa158015620005cb573d6000803e3d6000fd5b505050506040513d601f19601f82011682018060405250810190620005f191906200086b565b905090565b6200060062000712565b565b60008060029054906101000a90046001600160a01b03166001600160a01b031663da3dce266040518163ffffffff1660e01b815260040160206040518083038186803b1580156200065257600080fd5b505afa15801562000667573d6000803e3d6000fd5b505050506040513d601f19601f820116820180604052508101906200068d919062000839565b6040516370a0823160e01b81526001600160a01b03848116600483015291909116906370a082319060240160206040518083038186803b158015620006d157600080fd5b505afa158015620006e6573d6000803e3d6000fd5b505050506040513d601f19601f820116820180604052508101906200070c91906200086b565b92915050565b600f80546001600160a01b0319908116825560108054821690556011805482169055601280548216905560138054821690556014805482169055601580548216905560168054909116905560006200076c601782620007ca565b6200077c600983016000620007ca565b6200078c600a83016000620007ca565b6200079c600b83016000620007ca565b620007ac600c83016000620007ca565b62000208600d83016000620007ca565b6107bd8062004c0583390190565b508054620007d89062000993565b6000825580601f10620007e9575050565b601f0160209004906000526020600020908101906200080991906200080c565b50565b5b808211156200082357600081556001016200080d565b5090565b805160ff81168114620004ed57600080fd5b6000602082840312156200084c57600080fd5b81516001600160a01b03811681146200086457600080fd5b9392505050565b6000602082840312156200087e57600080fd5b5051919050565b6000806000606084860312156200089b57600080fd5b83519250620008ad6020850162000827565b9150620008bd6040850162000827565b90509250925092565b602080825260059082015264454332312d60d81b604082015260600190565b6020808252602e908201527f496e697469616c697a61626c653a20636f6e747261637420697320616c72656160408201526d191e481a5b9a5d1a585b1a5e995960921b606082015260800190565b60008219821115620009495762000949620009ee565b500190565b6000826200096c57634e487b7160e01b600052601260045260246000fd5b500490565b60008160001904831182151516156200098e576200098e620009ee565b500290565b600181811c90821680620009a857607f821691505b60208210811415620009ca57634e487b7160e01b600052602260045260246000fd5b50919050565b6000600019821415620009e757620009e7620009ee565b5060010190565b634e487b7160e01b600052601160045260246000fd5b6141f18062000a146000396000f3fe60806040523480156200001157600080fd5b5060043610620001a25760003560e01c8063029b967314620001a757806304cc67a914620001c957806322d929e114620001dc578063392e53cd14620001e65780633c65d42714620002055780633c7df55d14620002175780634044adb214620002305780634b19aa16146200026957806355457ee914620002735780635773bc23146200027d5780635a3794e9146200028f5780635b362e8414620002a15780636025541514620002b95780636771717714620002cb57806375d4c6b114620002d55780637c2f3aaf14620002ec578063840f6d1714620002fe578063856511e3146200034057806390d138ed146200035757806391f91671146200038e578063a42e133914620003a5578063a93316f514620003af578063aa33380a14620003c8578063ac2bb44214620003da578063bc3be09614620003f1578063c50ec82b1462000403578063d660ab34146200040d578063da3dce26146200043a578063db85bc4d146200044c578063ee2aa36a146200045e578063efd15d171462000468578063f5ad9acc1462000472575b600080fd5b620001b162000484565b604051620001c09190620026f3565b60405180910390f35b6008545b604051908152602001620001c0565b620001b1620004a3565b602454600160a01b900460ff165b6040519015158152602001620001c0565b601d546001600160a01b0316620001b1565b6200022e62000228366004620025a1565b620004bd565b005b620001cd620002413660046200267f565b60009182526009602090815260408084206001600160a01b0393909316845291905290205490565b620001b162000612565b6200022e6200061e565b601f546001600160a01b0316620001b1565b6022546001600160a01b0316620001b1565b6000546201000090046001600160a01b0316620001b1565b6024546001600160a01b0316620001b1565b620001b16200075d565b6200022e620002e636600462002641565b62000777565b601e546001600160a01b0316620001b1565b600354600454600554600654600754604080516001600160a01b0390961686526020860194909452928401919091526060830152608082015260a001620001c0565b6200022e6200035136600462002641565b62000898565b62000361620008b7565b604051620001c0949392919093845260ff9283166020850152911660408301521515606082015260800190565b6200022e6200039f366004620025e7565b62000915565b620001b162000a4d565b620003b962000a67565b604051620001c0919062002753565b6021546001600160a01b0316620001b1565b6200022e620003eb366004620026b2565b6200105d565b600b5462010000900460ff16620001f4565b620001b16200106c565b600a54600b546040805192835260ff808316602085015261010090920490911690820152606001620001c0565b6023546001600160a01b0316620001b1565b6001546001600160a01b0316620001b1565b620001b162001078565b620001b162001092565b6020546001600160a01b0316620001b1565b6023546000906200049e906001600160a01b0316620011f4565b905090565b601f546000906200049e906001600160a01b0316620011f4565b73__Library_______________________________63d1d719d0600060029054906101000a90046001600160a01b03166001600160a01b031663da3dce266040518163ffffffff1660e01b815260040160206040518083038186803b1580156200052657600080fd5b505afa1580156200053b573d6000803e3d6000fd5b505050506040513d601f19601f8201168201806040525081019062000561919062002581565b6040518263ffffffff1660e01b81526004016200057f9190620026f3565b60206040518083038186803b1580156200059857600080fd5b505af4158015620005ad573d6000803e3d6000fd5b505050506040513d601f19601f82011682018060405250810190620005d3919062002607565b1515600114620006005760405162461bcd60e51b8152600401620005f7906200280d565b60405180910390fd5b6200060d83838362001281565b505050565b60006200049e620012a3565b60016200062a62001323565b15156001146200064e5760405162461bcd60e51b8152600401620005f79062002898565b600354604051630d1d719d60e41b815273__Library_______________________________9163d1d719d09162000692916001600160a01b031690600401620026f3565b60206040518083038186803b158015620006ab57600080fd5b505af4158015620006c0573d6000803e3d6000fd5b505050506040513d601f19601f82011682018060405250810190620006e6919062002607565b15156001146200070a5760405162461bcd60e51b8152600401620005f790620028b7565b6200071462001363565b6003546002546040519081526001600160a01b03909116907f1fe8aec10c0a50fa765076161e08c1f961ced69594ff45cf7d559f593afe1479906020015b60405180910390a250565b601d546000906200049e906001600160a01b0316620011f4565b600154604051630d1d719d60e41b815273__Library_______________________________9163d1d719d091620007bb916001600160a01b031690600401620026f3565b60206040518083038186803b158015620007d457600080fd5b505af4158015620007e9573d6000803e3d6000fd5b505050506040513d601f19601f820116820180604052508101906200080f919062002607565b1515600114620008335760405162461bcd60e51b8152600401620005f7906200280d565b602454600160a01b900460ff1615620008775760405162461bcd60e51b8152602060048201526005602482015264454332362d60d81b6044820152606401620005f7565b62000882816200138e565b506024805460ff60a01b1916600160a01b179055565b80600f620008a7828262002b99565b905050620008b462001799565b50565b600080600080600b60029054906101000a900460ff168015620008db575060045442105b1562000902575050600c54600d5490925060ff80821692506101009091041660016200090f565b5060009250829150819050805b90919293565b60016200092162001323565b1515600114620009455760405162461bcd60e51b8152600401620005f79062002898565b6200095633600260000154620018c5565b1515600114620009915760405162461bcd60e51b8152602060048201526005602482015264454332332d60d81b6044820152606401620005f7565b6000620009a433600260000154620018de565b90508215620009d0578060026004016000828254620009c491906200293c565b90915550620009ed9050565b8060026005016000828254620009e791906200293c565b90915550505b600254620009fd9033836200191f565b600254604080519182528415156020830152810182905233907f50f654d58981575c05e369cb129aeacb01e1b036af429380242cfc5d1a4b743f9060600160405180910390a26200060d6200195d565b6021546000906200049e906001600160a01b0316620011f4565b60408051600880825261012082019092526060916000919060208201610100803683375050600f5460405163bc215e8560e01b815292935073__AddressLibrary________________________9263bc215e85925062000ad4916001600160a01b031690600401620026f3565b60206040518083038186803b15801562000aed57600080fd5b505af415801562000b02573d6000803e3d6000fd5b505050506040513d601f19601f8201168201806040525081019062000b28919062002627565b8160008151811062000b3e5762000b3e62002b3e565b602090810291909101015260105460405163bc215e8560e01b815273__AddressLibrary________________________9163bc215e859162000b8d916001600160a01b031690600401620026f3565b60206040518083038186803b15801562000ba657600080fd5b505af415801562000bbb573d6000803e3d6000fd5b505050506040513d601f19601f8201168201806040525081019062000be1919062002627565b8160018151811062000bf75762000bf762002b3e565b602090810291909101015260115460405163bc215e8560e01b815273__AddressLibrary________________________9163bc215e859162000c46916001600160a01b031690600401620026f3565b60206040518083038186803b15801562000c5f57600080fd5b505af415801562000c74573d6000803e3d6000fd5b505050506040513d601f19601f8201168201806040525081019062000c9a919062002627565b8160028151811062000cb05762000cb062002b3e565b602090810291909101015260125460405163bc215e8560e01b815273__AddressLibrary________________________9163bc215e859162000cff916001600160a01b031690600401620026f3565b60206040518083038186803b15801562000d1857600080fd5b505af415801562000d2d573d6000803e3d6000fd5b505050506040513d601f19601f8201168201806040525081019062000d53919062002627565b8160038151811062000d695762000d6962002b3e565b602090810291909101015260135460405163bc215e8560e01b815273__AddressLibrary________________________9163bc215e859162000db8916001600160a01b031690600401620026f3565b60206040518083038186803b15801562000dd157600080fd5b505af415801562000de6573d6000803e3d6000fd5b505050506040513d601f19601f8201168201806040525081019062000e0c919062002627565b8160048151811062000e225762000e2262002b3e565b602090810291909101015260145460405163bc215e8560e01b815273__AddressLibrary________________________9163bc215e859162000e71916001600160a01b031690600401620026f3565b60206040518083038186803b15801562000e8a57600080fd5b505af415801562000e9f573d6000803e3d6000fd5b505050506040513d601f19601f8201168201806040525081019062000ec5919062002627565b8160058151811062000edb5762000edb62002b3e565b602090810291909101015260155460405163bc215e8560e01b815273__AddressLibrary________________________9163bc215e859162000f2a916001600160a01b031690600401620026f3565b60206040518083038186803b15801562000f4357600080fd5b505af415801562000f58573d6000803e3d6000fd5b505050506040513d601f19601f8201168201806040525081019062000f7e919062002627565b8160068151811062000f945762000f9462002b3e565b602090810291909101015260165460405163bc215e8560e01b815273__AddressLibrary________________________9163bc215e859162000fe3916001600160a01b031690600401620026f3565b60206040518083038186803b15801562000ffc57600080fd5b505af415801562001011573d6000803e3d6000fd5b505050506040513d601f19601f8201168201806040525081019062001037919062002627565b816007815181106200104d576200104d62002b3e565b6020908102919091010152919050565b6200060d838383600062001ab3565b60006200049e62001b6b565b6024546000906200049e906001600160a01b0316620011f4565b6022546000906200049e906001600160a01b0316620011f4565b600054610100900460ff1680620010c6575060005460ff16155b620010e55760405162461bcd60e51b8152600401620005f7906200284a565b600054610100900460ff1615801562001108576000805461ffff19166101011790555b62001113826200115f565b600180546001600160a01b0319166001600160a01b0385161781556000600855620011449087908790879062001ab3565b801562001157576000805461ff00191690555b505050505050565b600054610100900460ff168062001179575060005460ff16155b620011985760405162461bcd60e51b8152600401620005f7906200284a565b600054610100900460ff16158015620011bb576000805461ffff19166101011790555b6000805462010000600160b01b031916620100006001600160a01b038516021790558015620011f0576000805461ff00191690555b5050565b600e546040516310270e3d60e11b81526000916001600160a01b03169063204e1c7a9062001227908590600401620026f3565b60206040518083038186803b1580156200124057600080fd5b505afa15801562001255573d6000803e3d6000fd5b505050506040513d601f19601f820116820180604052508101906200127b919062002581565b92915050565b6200128b62001323565b1515600114156200060d576200060d83838362001bb1565b6020805460408051635c60da1b60e01b815290516000936001600160a01b0390931692635c60da1b9260048082019391829003018186803b158015620012e857600080fd5b505afa158015620012fd573d6000803e3d6000fd5b505050506040513d601f19601f820116820180604052508101906200049e919062002581565b600454600090421015620013375750600190565b6003546001600160a01b0316156200135d576200135362001d29565b6200135d62001363565b50600090565b60006002819055600380546001600160a01b0319169055600481905560058190556006819055600755565b6200139d602082018262002561565b600e546001600160a01b0316620013b9610100840184620028ec565b604051620013c790620024df565b620013d6949392919062002707565b604051809103906000f080158015620013f3573d6000803e3d6000fd5b50602180546001600160a01b0319166001600160a01b039290921691909117905562001426604082016020830162002561565b600e546001600160a01b031662001442610120840184620028ec565b6040516200145090620024df565b6200145f949392919062002707565b604051809103906000f0801580156200147c573d6000803e3d6000fd5b50602280546001600160a01b0319166001600160a01b0392909216919091179055620014af606082016040830162002561565b600e546001600160a01b0316620014cb610140840184620028ec565b604051620014d990620024df565b620014e8949392919062002707565b604051809103906000f08015801562001505573d6000803e3d6000fd5b50602380546001600160a01b0319166001600160a01b039290921691909117905562001538608082016060830162002561565b600e546001600160a01b031662001554610160840184620028ec565b6040516200156290620024df565b62001571949392919062002707565b604051809103906000f0801580156200158e573d6000803e3d6000fd5b50601d80546001600160a01b0319166001600160a01b0392909216919091179055620015c160a082016080830162002561565b604051620015cf90620024ed565b620015db9190620026f3565b604051809103906000f080158015620015f8573d6000803e3d6000fd5b50601e80546001600160a01b0319166001600160a01b03929092169190911790556200162b60c0820160a0830162002561565b600e546001600160a01b031662001647610180840184620028ec565b6040516200165590620024df565b62001664949392919062002707565b604051809103906000f08015801562001681573d6000803e3d6000fd5b50601f80546001600160a01b0319166001600160a01b0392909216919091179055620016b460e0820160c0830162002561565b604051620016c290620024ed565b620016ce9190620026f3565b604051809103906000f080158015620016eb573d6000803e3d6000fd5b50602080546001600160a01b0319166001600160a01b03929092169190911790556200171f610100820160e0830162002561565b600e546001600160a01b03166200173b6101a0840184620028ec565b6040516200174990620024df565b62001758949392919062002707565b604051809103906000f08015801562001775573d6000803e3d6000fd5b50602480546001600160a01b0319166001600160a01b039290921691909117905550565b6000620017a562001323565b15620017dc5760405162461bcd60e51b8152602060048201526005602482015264454332342d60d81b6044820152606401620005f7565b620017e73362001d33565b15156001146200180b5760405162461bcd60e51b8152600401620005f790620028b7565b600380546001600160a01b03191633179055600a546200182c90426200293c565b600455600b5460649060ff166200184262001db2565b6200184e91906200297a565b6200185a919062002957565b600555600880546002819055906000620018748362002b0a565b90915550506003546002546004546005546040516001600160a01b03909416937f472501d19bf75639b2e316cd36f8568b0c3ab943b82a87de3c086c98c1929df993620007529390929091620028d6565b600080620018d48484620018de565b1515949350505050565b60008181526009602090815260408083206001600160a01b03861684529091528120546200190c8462001eb1565b6200191891906200299c565b9392505050565b60008381526009602090815260408083206001600160a01b038616845290915281208054839290620019539084906200293c565b9091555050505050565b6005546006541062001a2357600b5462010000900460ff1615620019b957600c54600a55600d54600b805461010080840460ff90811690910261ffff19909216931692909217919091179055620019b362001fbd565b620019c3565b620019c362001fdb565b620019cd62001363565b6003546002546006546007546040516001600160a01b03909416937f23ca0034cf5aad32571b4a492e9598ea8a490e1643a60970e3cdc6933b55e49f9362001a199390929091620028d6565b60405180910390a2565b6005546007541062001ab157600b5462010000900460ff161562001a515762001a4b62001fbd565b62001a5b565b62001a5b62001d29565b62001a6562001363565b6003546002546006546007546040516001600160a01b03909416937fa58eb6daa3c62c3f883973c4035e5bd3e81aa627c8379de068a7de42df122be29362001a199390929091620028d6565b565b82828160ff166064101562001adc5760405162461bcd60e51b8152600401620005f7906200282b565b8060ff166064101562001b035760405162461bcd60e51b8152600401620005f7906200282b565b821562001b3057600a869055600b805460ff8681166101000261ffff199092169088161717905562001157565b600c869055600d805460ff8681166101000261ffff1990921690881617179055600b805462ff00001916620100001790556200115762001799565b601e5460408051635c60da1b60e01b815290516000926001600160a01b031691635c60da1b916004808301926020929190829003018186803b158015620012e857600080fd5b6001600160a01b0383161580159062001bee575060025460009081526009602090815260408083206001600160a01b038716845290915290205415155b156200060d5760025460009081526009602090815260408083206001600160a01b0387168452909152902054819081111562001c4c575060025460009081526009602090815260408083206001600160a01b03871684529091529020545b60025460009081526009602090815260408083206001600160a01b03881684529091528120805483929062001c839084906200299c565b90915550506001600160a01b0383161562001cd55760025460009081526009602090815260408083206001600160a01b03871684529091528120805483929062001ccf9084906200293c565b90915550505b600254604080516001600160a01b038088168252861660208201529081018390527f65fbd5e5dd32bea4aeca85bd0be0abf0e489d655dee888a7510d43b06dda2dba9060600160405180910390a250505050565b62001ab162001fe5565b6001546000906001600160a01b038381169116141562001d5557506001919050565b600062001d628362001eb1565b9050606462001d7062001db2565b600b5462001d879190610100900460ff166200297a565b62001d93919062002957565b81111562001da45750600192915050565b50600092915050565b919050565b60008060029054906101000a90046001600160a01b03166001600160a01b031663da3dce266040518163ffffffff1660e01b815260040160206040518083038186803b15801562001e0257600080fd5b505afa15801562001e17573d6000803e3d6000fd5b505050506040513d601f19601f8201168201806040525081019062001e3d919062002581565b6001600160a01b03166318160ddd6040518163ffffffff1660e01b815260040160206040518083038186803b15801562001e7657600080fd5b505afa15801562001e8b573d6000803e3d6000fd5b505050506040513d601f19601f820116820180604052508101906200049e919062002627565b60008060029054906101000a90046001600160a01b03166001600160a01b031663da3dce266040518163ffffffff1660e01b815260040160206040518083038186803b15801562001f0157600080fd5b505afa15801562001f16573d6000803e3d6000fd5b505050506040513d601f19601f8201168201806040525081019062001f3c919062002581565b6001600160a01b03166370a08231836040518263ffffffff1660e01b815260040162001f699190620026f3565b60206040518083038186803b15801562001f8257600080fd5b505afa15801562001f97573d6000803e3d6000fd5b505050506040513d601f19601f820116820180604052508101906200127b919062002627565b6000600c55600d805461ffff19169055600b805462ff000019169055565b62001d296200208f565b600f80546001600160a01b0319908116825560108054821690556011805482169055601280548216905560138054821690556014805482169055601580548216905560168054909116905560006200203f601782620024fb565b6200204f600983016000620024fb565b6200205f600a83016000620024fb565b6200206f600b83016000620024fb565b6200207f600c83016000620024fb565b620011f0600d83016000620024fb565b602154600f546017805462002142936001600160a01b0390811693169190620020b89062002acd565b80601f0160208091040260200160405190810160405280929190818152602001828054620020e69062002acd565b8015620021375780601f106200210b5761010080835404028352916020019162002137565b820191906000526020600020905b8154815290600101906020018083116200211957829003601f168201915b50505050506200241d565b602254601054601880546200216b936001600160a01b0390811693169190620020b89062002acd565b6023546011546019805462002194936001600160a01b0390811693169190620020b89062002acd565b601d54601254601a8054620021bd936001600160a01b0390811693169190620020b89062002acd565b601f54601454601b8054620021e6936001600160a01b0390811693169190620020b89062002acd565b602454601654601c80546200220f936001600160a01b0390811693169190620020b89062002acd565b6013546001600160a01b0316156200228c57601e54601354604051631b2ce7f360e11b81526001600160a01b0392831692633659cfe6926200225792911690600401620026f3565b600060405180830381600087803b1580156200227257600080fd5b505af115801562002287573d6000803e3d6000fd5b505050505b6015546001600160a01b0316156200230957602054601554604051631b2ce7f360e11b81526001600160a01b0392831692633659cfe692620022d492911690600401620026f3565b600060405180830381600087803b158015620022ef57600080fd5b505af115801562002304573d6000803e3d6000fd5b505050505b6021547f05c04d87852a41b811d4865cafb55055b0b03dceebff609472a889585286a7dc9062002342906001600160a01b0316620011f4565b60225462002359906001600160a01b0316620011f4565b60235462002370906001600160a01b0316620011f4565b601d5462002387906001600160a01b0316620011f4565b6200239162001b6b565b601f54620023a8906001600160a01b0316620011f4565b620023b2620012a3565b602454620023c9906001600160a01b0316620011f4565b604080516001600160a01b03998a16815297891660208901529588168787015293871660608701529186166080860152851660a0850152841660c084015290921660e08201529051908190036101000190a1565b6001600160a01b038216156200060d57805115620024a457600e54604051639623609d60e01b81526001600160a01b0390911690639623609d906200246b9086908690869060040162002799565b600060405180830381600087803b1580156200248657600080fd5b505af11580156200249b573d6000803e3d6000fd5b50505050505050565b600e5460405163266a23b160e21b81526001600160a01b0385811660048301528481166024830152909116906399a88ec4906044016200246b565b610f308062002d6983390190565b6105238062003c9983390190565b508054620025099062002acd565b6000825580601f106200251a575050565b601f016020900490600052602060002090810190620008b491905b808211156200254b576000815560010162002535565b5090565b803560ff8116811462001dad57600080fd5b6000602082840312156200257457600080fd5b8135620019188162002d43565b6000602082840312156200259457600080fd5b8151620019188162002d43565b600080600060608486031215620025b757600080fd5b8335620025c48162002d43565b92506020840135620025d68162002d43565b929592945050506040919091013590565b600060208284031215620025fa57600080fd5b8135620019188162002d59565b6000602082840312156200261a57600080fd5b8151620019188162002d59565b6000602082840312156200263a57600080fd5b5051919050565b6000602082840312156200265457600080fd5b81356001600160401b038111156200266b57600080fd5b82016101c081850312156200191857600080fd5b600080604083850312156200269357600080fd5b823591506020830135620026a78162002d43565b809150509250929050565b600080600060608486031215620026c857600080fd5b83359250620026da602085016200254f565b9150620026ea604085016200254f565b90509250925092565b6001600160a01b0391909116815260200190565b6001600160a01b0385811682528416602082015260606040820181905281018290526000828460808401376000608084840101526080601f19601f850116830101905095945050505050565b6020808252825182820181905260009190848201906040850190845b818110156200278d578351835292840192918401916001016200276f565b50909695505050505050565b600060018060a01b038086168352602081861681850152606060408501528451915081606085015260005b82811015620027e257858101820151858201608001528101620027c4565b82811115620027f5576000608084870101525b5050601f01601f191691909101608001949350505050565b6020808252600490820152634543382d60e01b604082015260600190565b602080825260059082015264454332312d60d81b604082015260600190565b6020808252602e908201527f496e697469616c697a61626c653a20636f6e747261637420697320616c72656160408201526d191e481a5b9a5d1a585b1a5e995960921b606082015260800190565b602080825260059082015264454332352d60d81b604082015260600190565b602080825260059082015264454332322d60d81b604082015260600190565b9283526020830191909152604082015260600190565b6000808335601e198436030181126200290457600080fd5b8301803591506001600160401b038211156200291f57600080fd5b6020019150368190038213156200293557600080fd5b9250929050565b6000821982111562002952576200295262002b28565b500190565b6000826200297557634e487b7160e01b600052601260045260246000fd5b500490565b600081600019048311821515161562002997576200299762002b28565b500290565b600082821015620029b157620029b162002b28565b500390565b601f8211156200060d57600081815260208120601f850160051c81016020861015620029df5750805b601f850160051c820191505b818110156200115757828155600101620029eb565b6001600160401b0383111562002a1a5762002a1a62002b54565b62002a328362002a2b835462002acd565b83620029b6565b6000601f84116001811462002a69576000851562002a505750838201355b600019600387901b1c1916600186901b17835562002ac6565b600083815260209020601f19861690835b8281101562002a9c578685013582556020948501946001909201910162002a7a565b508682101562002aba5760001960f88860031b161c19848701351681555b505060018560011b0183555b5050505050565b600181811c9082168062002ae257607f821691505b6020821081141562002b0457634e487b7160e01b600052602260045260246000fd5b50919050565b600060001982141562002b215762002b2162002b28565b5060010190565b634e487b7160e01b600052601160045260246000fd5b634e487b7160e01b600052603260045260246000fd5b634e487b7160e01b600052604160045260246000fd5b600081356200127b8162002d43565b80546001600160a01b0319166001600160a01b0392909216919091179055565b62002baf62002ba88362002b6a565b8262002b79565b62002bcb62002bc16020840162002b6a565b6001830162002b79565b62002be762002bdd6040840162002b6a565b6002830162002b79565b62002c0362002bf96060840162002b6a565b6003830162002b79565b62002c1f62002c156080840162002b6a565b6004830162002b79565b62002c3b62002c3160a0840162002b6a565b6005830162002b79565b62002c5762002c4d60c0840162002b6a565b6006830162002b79565b62002c7362002c6960e0840162002b6a565b6007830162002b79565b62002c83610100830183620028ec565b62002c9381836008860162002a00565b505062002ca5610120830183620028ec565b62002cb581836009860162002a00565b505062002cc7610140830183620028ec565b62002cd78183600a860162002a00565b505062002ce9610160830183620028ec565b62002cf98183600b860162002a00565b505062002d0b610180830183620028ec565b62002d1b8183600c860162002a00565b505062002d2d6101a0830183620028ec565b62002d3d8183600d860162002a00565b50505050565b6001600160a01b0381168114620008b457600080fd5b8015158114620008b457600080fdfe608060405260405162000f3038038062000f308339810160408190526200002691620004c2565b82816200005560017f360894a13ba1a3210667c828492db98dca3e2076cc3735a920a3ca505d382bbd620005f5565b60008051602062000ee9833981519152146200007557620000756200064a565b6200008382826000620000e7565b50620000b3905060017fb53127684a568b3173ae13b9f8a6016e243e63b6e8ee1178d6a717850b5d6104620005f5565b60008051602062000ec983398151915214620000d357620000d36200064a565b620000de8262000124565b50505062000676565b620000f2836200017f565b600082511180620001005750805b156200011f576200011d8383620001c160201b620002601760201c565b505b505050565b7f7e644d79422f17c01e4894b5f4f588d331ebfa28653d42ae832dc59e38c9798f6200014f620001f0565b604080516001600160a01b03928316815291841660208301520160405180910390a16200017c8162000229565b50565b6200018a81620002de565b6040516001600160a01b038216907fbc7cd75a20ee27fd9adebab32041f755214dbc6bffa90cc0225b39da2e5c2d3b90600090a250565b6060620001e9838360405180606001604052806027815260200162000f096027913962000381565b9392505050565b60006200021a60008051602062000ec983398151915260001b6200045e60201b620002081760201c565b546001600160a01b0316919050565b6001600160a01b038116620002945760405162461bcd60e51b815260206004820152602660248201527f455243313936373a206e65772061646d696e20697320746865207a65726f206160448201526564647265737360d01b60648201526084015b60405180910390fd5b80620002bd60008051602062000ec983398151915260001b6200045e60201b620002081760201c565b80546001600160a01b0319166001600160a01b039290921691909117905550565b620002f4816200046160201b6200028c1760201c565b620003585760405162461bcd60e51b815260206004820152602d60248201527f455243313936373a206e657720696d706c656d656e746174696f6e206973206e60448201526c1bdd08184818dbdb9d1c9858dd609a1b60648201526084016200028b565b80620002bd60008051602062000ee983398151915260001b6200045e60201b620002081760201c565b6060833b620003e25760405162461bcd60e51b815260206004820152602660248201527f416464726573733a2064656c65676174652063616c6c20746f206e6f6e2d636f6044820152651b9d1c9858dd60d21b60648201526084016200028b565b600080856001600160a01b031685604051620003ff9190620005a2565b600060405180830381855af49150503d80600081146200043c576040519150601f19603f3d011682016040523d82523d6000602084013e62000441565b606091505b5090925090506200045482828662000467565b9695505050505050565b90565b3b151590565b6060831562000478575081620001e9565b825115620004895782518084602001fd5b8160405162461bcd60e51b81526004016200028b9190620005c0565b80516001600160a01b0381168114620004bd57600080fd5b919050565b600080600060608486031215620004d857600080fd5b620004e384620004a5565b9250620004f360208501620004a5565b60408501519092506001600160401b03808211156200051157600080fd5b818601915086601f8301126200052657600080fd5b8151818111156200053b576200053b62000660565b604051601f8201601f19908116603f0116810190838211818310171562000566576200056662000660565b816040528281528960208487010111156200058057600080fd5b620005938360208301602088016200061b565b80955050505050509250925092565b60008251620005b68184602087016200061b565b9190910192915050565b6020815260008251806020840152620005e18160408501602087016200061b565b601f01601f19169190910160400192915050565b6000828210156200061657634e487b7160e01b600052601160045260246000fd5b500390565b60005b83811015620006385781810151838201526020016200061e565b838111156200011d5750506000910152565b634e487b7160e01b600052600160045260246000fd5b634e487b7160e01b600052604160045260246000fd5b61084380620006866000396000f3fe60806040526004361061004e5760003560e01c80633659cfe6146100655780634f1ef286146100855780635c60da1b146100985780638f283970146100c9578063f851a440146100e95761005d565b3661005d5761005b6100fe565b005b61005b6100fe565b34801561007157600080fd5b5061005b61008036600461068e565b610118565b61005b6100933660046106a9565b61015f565b3480156100a457600080fd5b506100ad6101d0565b6040516001600160a01b03909116815260200160405180910390f35b3480156100d557600080fd5b5061005b6100e436600461068e565b61020b565b3480156100f557600080fd5b506100ad610235565b610106610292565b610116610111610331565b61033b565b565b61012061035f565b6001600160a01b0316336001600160a01b031614156101575761015481604051806020016040528060008152506000610380565b50565b6101546100fe565b61016761035f565b6001600160a01b0316336001600160a01b031614156101c8576101c38383838080601f01602080910402602001604051908101604052809392919081815260200183838082843760009201919091525060019250610380915050565b505050565b6101c36100fe565b60006101da61035f565b6001600160a01b0316336001600160a01b03161415610200576101fb610331565b905090565b6102086100fe565b90565b61021361035f565b6001600160a01b0316336001600160a01b0316141561015757610154816103ab565b600061023f61035f565b6001600160a01b0316336001600160a01b03161415610200576101fb61035f565b606061028583836040518060600160405280602781526020016107e7602791396103ff565b9392505050565b3b151590565b61029a61035f565b6001600160a01b0316336001600160a01b031614156101165760405162461bcd60e51b815260206004820152604260248201527f5472616e73706172656e745570677261646561626c6550726f78793a2061646d60448201527f696e2063616e6e6f742066616c6c6261636b20746f2070726f78792074617267606482015261195d60f21b608482015260a4015b60405180910390fd5b60006101fb6104d3565b3660008037600080366000845af43d6000803e80801561035a573d6000f35b3d6000fd5b60006000805160206107a78339815191525b546001600160a01b0316919050565b610389836104e9565b6000825111806103965750805b156101c3576103a58383610260565b50505050565b7f7e644d79422f17c01e4894b5f4f588d331ebfa28653d42ae832dc59e38c9798f6103d461035f565b604080516001600160a01b03928316815291841660208301520160405180910390a161015481610529565b6060833b61045e5760405162461bcd60e51b815260206004820152602660248201527f416464726573733a2064656c65676174652063616c6c20746f206e6f6e2d636f6044820152651b9d1c9858dd60d21b6064820152608401610328565b600080856001600160a01b031685604051610479919061072b565b600060405180830381855af49150503d80600081146104b4576040519150601f19603f3d011682016040523d82523d6000602084013e6104b9565b606091505b50915091506104c98282866105c0565b9695505050505050565b60006000805160206107c7833981519152610371565b6104f2816105f9565b6040516001600160a01b038216907fbc7cd75a20ee27fd9adebab32041f755214dbc6bffa90cc0225b39da2e5c2d3b90600090a250565b6001600160a01b03811661058e5760405162461bcd60e51b815260206004820152602660248201527f455243313936373a206e65772061646d696e20697320746865207a65726f206160448201526564647265737360d01b6064820152608401610328565b806000805160206107a78339815191525b80546001600160a01b0319166001600160a01b039290921691909117905550565b606083156105cf575081610285565b8251156105df5782518084602001fd5b8160405162461bcd60e51b81526004016103289190610747565b803b61065d5760405162461bcd60e51b815260206004820152602d60248201527f455243313936373a206e657720696d706c656d656e746174696f6e206973206e60448201526c1bdd08184818dbdb9d1c9858dd609a1b6064820152608401610328565b806000805160206107c783398151915261059f565b80356001600160a01b038116811461068957600080fd5b919050565b6000602082840312156106a057600080fd5b61028582610672565b6000806000604084860312156106be57600080fd5b6106c784610672565b925060208401356001600160401b03808211156106e357600080fd5b818601915086601f8301126106f757600080fd5b81358181111561070657600080fd5b87602082850101111561071857600080fd5b6020830194508093505050509250925092565b6000825161073d81846020870161077a565b9190910192915050565b602081526000825180602084015261076681604085016020870161077a565b601f01601f19169190910160400192915050565b60005b8381101561079557818101518382015260200161077d565b838111156103a5575050600091015256feb53127684a568b3173ae13b9f8a6016e243e63b6e8ee1178d6a717850b5d6103360894a13ba1a3210667c828492db98dca3e2076cc3735a920a3ca505d382bbc416464726573733a206c6f772d6c6576656c2064656c65676174652063616c6c206661696c6564a2646970667358221220bf234746908c6f46655f3e5bb4f0abadaeb249c68beba1c928f2af74deb56e2264736f6c63430008070033b53127684a568b3173ae13b9f8a6016e243e63b6e8ee1178d6a717850b5d6103360894a13ba1a3210667c828492db98dca3e2076cc3735a920a3ca505d382bbc416464726573733a206c6f772d6c6576656c2064656c65676174652063616c6c206661696c6564608060405234801561001057600080fd5b5060405161052338038061052383398101604081905261002f91610148565b61003833610047565b61004181610097565b50610178565b600080546001600160a01b038381166001600160a01b0319831681178455604051919092169283917f8be0079c531659141344cd1fd0a4f28419497f9722a3daafe3b4186f6b6457e09190a35050565b6100aa8161014260201b61021f1760201c565b6101205760405162461bcd60e51b815260206004820152603360248201527f5570677261646561626c65426561636f6e3a20696d706c656d656e746174696f60448201527f6e206973206e6f74206120636f6e747261637400000000000000000000000000606482015260840160405180910390fd5b600180546001600160a01b0319166001600160a01b0392909216919091179055565b3b151590565b60006020828403121561015a57600080fd5b81516001600160a01b038116811461017157600080fd5b9392505050565b61039c806101876000396000f3fe608060405234801561001057600080fd5b50600436106100575760003560e01c80633659cfe61461005c5780635c60da1b14610071578063715018a61461009a5780638da5cb5b146100a2578063f2fde38b146100aa575b600080fd5b61006f61006a366004610301565b6100bd565b005b6001546001600160a01b03165b6040516001600160a01b03909116815260200160405180910390f35b61006f610135565b61007e610170565b61006f6100b8366004610301565b61017f565b336100c6610170565b6001600160a01b0316146100f55760405162461bcd60e51b81526004016100ec90610331565b60405180910390fd5b6100fe81610225565b6040516001600160a01b038216907fbc7cd75a20ee27fd9adebab32041f755214dbc6bffa90cc0225b39da2e5c2d3b90600090a250565b3361013e610170565b6001600160a01b0316146101645760405162461bcd60e51b81526004016100ec90610331565b61016e60006102b1565b565b6000546001600160a01b031690565b33610188610170565b6001600160a01b0316146101ae5760405162461bcd60e51b81526004016100ec90610331565b6001600160a01b0381166102135760405162461bcd60e51b815260206004820152602660248201527f4f776e61626c653a206e6577206f776e657220697320746865207a65726f206160448201526564647265737360d01b60648201526084016100ec565b61021c816102b1565b50565b3b151590565b803b61028f5760405162461bcd60e51b815260206004820152603360248201527f5570677261646561626c65426561636f6e3a20696d706c656d656e746174696f6044820152721b881a5cc81b9bdd08184818dbdb9d1c9858dd606a1b60648201526084016100ec565b600180546001600160a01b0319166001600160a01b0392909216919091179055565b600080546001600160a01b038381166001600160a01b0319831681178455604051919092169283917f8be0079c531659141344cd1fd0a4f28419497f9722a3daafe3b4186f6b6457e09190a35050565b60006020828403121561031357600080fd5b81356001600160a01b038116811461032a57600080fd5b9392505050565b6020808252818101527f4f776e61626c653a2063616c6c6572206973206e6f7420746865206f776e657260408201526060019056fea2646970667358221220b1e86d9e5a9827481ff081a46fc0ff448af58190927b3eac96f691d6bcdce0a964736f6c63430008070033a26469706673582212201604e9085b4c3d85537abd62f5d887f1c9e9a70db656af33ade398384d391ca464736f6c63430008070033608060405234801561001057600080fd5b5061001a3361001f565b61006f565b600080546001600160a01b038381166001600160a01b0319831681178455604051919092169283917f8be0079c531659141344cd1fd0a4f28419497f9722a3daafe3b4186f6b6457e09190a35050565b61073f8061007e6000396000f3fe60806040526004361061006b5760003560e01c8063204e1c7a14610070578063715018a6146100a65780637eff275e146100bd5780638da5cb5b146100dd5780639623609d146100f257806399a88ec414610105578063f2fde38b14610125578063f3b7dead14610145575b600080fd5b34801561007c57600080fd5b5061009061008b3660046104e1565b610165565b60405161009d9190610630565b60405180910390f35b3480156100b257600080fd5b506100bb6101f6565b005b3480156100c957600080fd5b506100bb6100d8366004610522565b61023a565b3480156100e957600080fd5b506100906102cb565b6100bb61010036600461055b565b6102da565b34801561011157600080fd5b506100bb610120366004610522565b610370565b34801561013157600080fd5b506100bb6101403660046104e1565b6103cb565b34801561015157600080fd5b506100906101603660046104e1565b61046b565b6000806000836001600160a01b031660405161018b90635c60da1b60e01b815260040190565b600060405180830381855afa9150503d80600081146101c6576040519150601f19603f3d011682016040523d82523d6000602084013e6101cb565b606091505b5091509150816101da57600080fd5b808060200190518101906101ee9190610505565b949350505050565b336101ff6102cb565b6001600160a01b03161461022e5760405162461bcd60e51b8152600401610225906106a9565b60405180910390fd5b6102386000610491565b565b336102436102cb565b6001600160a01b0316146102695760405162461bcd60e51b8152600401610225906106a9565b6040516308f2839760e41b81526001600160a01b03831690638f28397090610295908490600401610630565b600060405180830381600087803b1580156102af57600080fd5b505af11580156102c3573d6000803e3d6000fd5b505050505050565b6000546001600160a01b031690565b336102e36102cb565b6001600160a01b0316146103095760405162461bcd60e51b8152600401610225906106a9565b60405163278f794360e11b81526001600160a01b03841690634f1ef2869034906103399086908690600401610644565b6000604051808303818588803b15801561035257600080fd5b505af1158015610366573d6000803e3d6000fd5b5050505050505050565b336103796102cb565b6001600160a01b03161461039f5760405162461bcd60e51b8152600401610225906106a9565b604051631b2ce7f360e11b81526001600160a01b03831690633659cfe690610295908490600401610630565b336103d46102cb565b6001600160a01b0316146103fa5760405162461bcd60e51b8152600401610225906106a9565b6001600160a01b03811661045f5760405162461bcd60e51b815260206004820152602660248201527f4f776e61626c653a206e6577206f776e657220697320746865207a65726f206160448201526564647265737360d01b6064820152608401610225565b61046881610491565b50565b6000806000836001600160a01b031660405161018b906303e1469160e61b815260040190565b600080546001600160a01b038381166001600160a01b0319831681178455604051919092169283917f8be0079c531659141344cd1fd0a4f28419497f9722a3daafe3b4186f6b6457e09190a35050565b6000602082840312156104f357600080fd5b81356104fe816106f4565b9392505050565b60006020828403121561051757600080fd5b81516104fe816106f4565b6000806040838503121561053557600080fd5b8235610540816106f4565b91506020830135610550816106f4565b809150509250929050565b60008060006060848603121561057057600080fd5b833561057b816106f4565b9250602084013561058b816106f4565b915060408401356001600160401b03808211156105a757600080fd5b818601915086601f8301126105bb57600080fd5b8135818111156105cd576105cd6106de565b604051601f8201601f19908116603f011681019083821181831017156105f5576105f56106de565b8160405282815289602084870101111561060e57600080fd5b8260208601602083013760006020848301015280955050505050509250925092565b6001600160a01b0391909116815260200190565b60018060a01b038316815260006020604081840152835180604085015260005b8181101561068057858101830151858201606001528201610664565b81811115610692576000606083870101525b50601f01601f191692909201606001949350505050565b6020808252818101527f4f776e61626c653a2063616c6c6572206973206e6f7420746865206f776e6572604082015260600190565b634e487b7160e01b600052604160045260246000fd5b6001600160a01b038116811461046857600080fdfea26469706673582212207240b38990a52bc008f8ef6148c6f36363b8fbb55bee70cee697cb8e4d4c00ce64736f6c63430008070033",
  "immutableReferences": {},
  "source": "// SPDX-License-Identifier: GPL-3.0\r\n\r\npragma solidity 0.8.7;\r\n\r\n/**\r\n * @title Storage\r\n * @dev Store & retrieve value in a variable\r\n */\r\n\r\nimport \"../Interfaces/IProxyManager.sol\";\r\nimport \"../Base/TokenGovernanceBaseContract.sol\";\r\nimport \"../Libraries/AddressLibrary.sol\";\r\nimport \"../Libraries/Library.sol\";\r\nimport \"@openzeppelin/contracts-upgradeable/proxy/utils/Initializable.sol\";\r\nimport \"@openzeppelin/contracts/proxy/beacon/UpgradeableBeacon.sol\";\r\nimport \"@openzeppelin/contracts/proxy/transparent/TransparentUpgradeableProxy.sol\";\r\nimport \"@openzeppelin/contracts/proxy/transparent/ProxyAdmin.sol\";\r\n\r\n\r\ncontract CertificatesPoolManager is IProxyManager, TokenGovernanceBaseContract{\r\n    using AddressLibrary for *;\r\n    using Library for *;\r\n\r\n    // EVENTS /////////////////////////////////////////\r\n    event _NewContracts(address, address, address, address, address, address, address, address);\r\n\r\n    // DATA /////////////////////////////////////////\r\n    // Admin Proxy to manage all the TransparentUpgradeableProxies\r\n    ProxyAdmin private _Admin;\r\n\r\n    // proposition to change\r\n    Library.ProposedContractsStruct private _ProposedContracts;\r\n    \r\n    // Private Certificate Pools Factory\r\n    TransparentUpgradeableProxy private _PrivatePoolFactory;\r\n\r\n    // Private Certificates Pool\r\n    UpgradeableBeacon private _PrivateCertificatePoolBeacon;\r\n\r\n    // Provider Factory\r\n    TransparentUpgradeableProxy private _ProviderFactory;\r\n\r\n    // Provider\r\n    UpgradeableBeacon private _ProviderBeacon;\r\n\r\n    // Public Certificates Pool\r\n    TransparentUpgradeableProxy private _PublicCertificatesPool;\r\n\r\n    // Treasury\r\n    //GenericProxy private _Treasury;\r\n    TransparentUpgradeableProxy private _Treasury;\r\n\r\n    // Certis Token\r\n    TransparentUpgradeableProxy private _CertisToken;\r\n\r\n    // Price Converter\r\n    TransparentUpgradeableProxy private _PriceConverter;\r\n\r\n    // init\r\n    bool private _init;\r\n\r\n    // MODIFIERS /////////////////////////////////////////\r\n    modifier isNotInitialized(){\r\n        require(false == _init, \"EC26-\");\r\n        _;\r\n    }\r\n\r\n    // CONSTRUCTOR and INITIALIZATION /////////////////////////////////////////\r\n    constructor(uint256 PropositionLifeTime, uint8 PropositionThresholdPercentage, uint8 minWeightToProposePercentage) \r\n    {\r\n        super.TokenGovernanceContract_init(PropositionLifeTime, PropositionThresholdPercentage, minWeightToProposePercentage, msg.sender, address(this));\r\n        _Admin = new ProxyAdmin();\r\n        _init = false;\r\n    }\r\n\r\n    function InitializeContracts(Library.ProposedContractsStruct calldata initialContracts) \r\n        isFromChairPerson()\r\n        isNotInitialized()\r\n    external override\r\n    {\r\n        initProxies(initialContracts);\r\n        _init = true;\r\n    }\r\n\r\n    // FUNCTIONALITY /////////////////////////////////////////\r\n    // governance : contracts assignment and management\r\n    function upgradeContracts(Library.ProposedContractsStruct calldata UpgradeProposition) external override\r\n    {\r\n        _ProposedContracts = UpgradeProposition;\r\n        addProposition();\r\n    }\r\n\r\n    function propositionApproved() internal override\r\n    {\r\n        upgradeContractsImplementations();\r\n        removeProposition();\r\n    }\r\n\r\n    function propositionRejected() internal override\r\n    {\r\n        removeProposition();\r\n    }\r\n\r\n    function propositionExpired() internal override\r\n    {\r\n        removeProposition();\r\n    }\r\n\r\n    function removeProposition() internal\r\n    {\r\n       delete(_ProposedContracts);\r\n    }\r\n\r\n    function retrieveProposition() external override view returns(bytes32[] memory)\r\n    {\r\n        bytes32[] memory proposition = new bytes32[](8);\r\n        proposition[0] = AddressLibrary.AddressToBytes32(_ProposedContracts.NewPublicPoolAddress);\r\n        proposition[1] = AddressLibrary.AddressToBytes32(_ProposedContracts.NewTreasuryAddress);\r\n        proposition[2] = AddressLibrary.AddressToBytes32(_ProposedContracts.NewCertisTokenAddress);\r\n        proposition[3] = AddressLibrary.AddressToBytes32(_ProposedContracts.NewPrivatePoolFactoryAddress);\r\n        proposition[4] = AddressLibrary.AddressToBytes32(_ProposedContracts.NewPrivatePoolAddress);\r\n        proposition[5] = AddressLibrary.AddressToBytes32(_ProposedContracts.NewProviderFactoryAddress);\r\n        proposition[6] = AddressLibrary.AddressToBytes32(_ProposedContracts.NewProviderAddress);\r\n        proposition[7] = AddressLibrary.AddressToBytes32(_ProposedContracts.NewPriceConverterAddress);\r\n        return proposition;\r\n    }\r\n\r\n    function initProxies(Library.ProposedContractsStruct calldata initialContracts) private\r\n    {\r\n        _PublicCertificatesPool = new TransparentUpgradeableProxy(initialContracts.NewPublicPoolAddress, address(_Admin), initialContracts.NewPublicPoolData);\r\n        _Treasury = new TransparentUpgradeableProxy(initialContracts.NewTreasuryAddress, address(_Admin), initialContracts.NewTreasuryData);\r\n        _CertisToken = new TransparentUpgradeableProxy(initialContracts.NewCertisTokenAddress, address(_Admin), initialContracts.NewCertisTokenData);\r\n        _PrivatePoolFactory = new TransparentUpgradeableProxy(initialContracts.NewPrivatePoolFactoryAddress, address(_Admin), initialContracts.NewPrivatePoolFactoryData);\r\n        _PrivateCertificatePoolBeacon = new UpgradeableBeacon(initialContracts.NewPrivatePoolAddress);\r\n        _ProviderFactory = new TransparentUpgradeableProxy(initialContracts.NewProviderFactoryAddress, address(_Admin), initialContracts.NewProviderFactoryData);\r\n        _ProviderBeacon = new UpgradeableBeacon(initialContracts.NewProviderAddress);\r\n        _PriceConverter = new TransparentUpgradeableProxy(initialContracts.NewPriceConverterAddress, address(_Admin), initialContracts.NewPriceConverterData);\r\n    }\r\n\r\n    function upgradeContractsImplementations() private\r\n    {\r\n        upgradeContractImplementation(_PublicCertificatesPool, _ProposedContracts.NewPublicPoolAddress, _ProposedContracts.NewPublicPoolData);\r\n        upgradeContractImplementation(_Treasury, _ProposedContracts.NewTreasuryAddress, _ProposedContracts.NewTreasuryData);\r\n        upgradeContractImplementation(_CertisToken, _ProposedContracts.NewCertisTokenAddress, _ProposedContracts.NewCertisTokenData);\r\n        upgradeContractImplementation(_PrivatePoolFactory, _ProposedContracts.NewPrivatePoolFactoryAddress, _ProposedContracts.NewPrivatePoolFactoryData);\r\n        upgradeContractImplementation(_ProviderFactory, _ProposedContracts.NewProviderFactoryAddress, _ProposedContracts.NewProviderFactoryData);\r\n        upgradeContractImplementation(_PriceConverter, _ProposedContracts.NewPriceConverterAddress, _ProposedContracts.NewPriceConverterData);\r\n\r\n        if(address(0) != _ProposedContracts.NewPrivatePoolAddress)_PrivateCertificatePoolBeacon.upgradeTo(_ProposedContracts.NewPrivatePoolAddress);\r\n        if(address(0) != _ProposedContracts.NewProviderAddress)_ProviderBeacon.upgradeTo(_ProposedContracts.NewProviderAddress);\r\n\r\n        emit _NewContracts(internalRetrieveImpl(_PublicCertificatesPool), internalRetrieveImpl(_Treasury), \r\n        internalRetrieveImpl(_CertisToken), internalRetrieveImpl(_PrivatePoolFactory), \r\n        internalRetrievePrivatePool(), internalRetrieveImpl(_ProviderFactory), internalRetrieveProvider(),\r\n        internalRetrieveImpl(_PriceConverter));\r\n    }\r\n\r\n    function upgradeContractImplementation(TransparentUpgradeableProxy proxy, address NewImpl, bytes memory Data) private{\r\n        if(address(0) != NewImpl){\r\n            if(0 < Data.length)_Admin.upgradeAndCall(proxy, NewImpl, Data);\r\n            else _Admin.upgrade(proxy, NewImpl);\r\n        }\r\n    }\r\n\r\n    // configuration Proxies\r\n    function retrievePublicCertificatePoolProxy() external override view returns (address) {\r\n        return (address(_PublicCertificatesPool));\r\n    }\r\n\r\n    function retrieveTreasuryProxy() external override view returns (address) {\r\n        return (address(_Treasury));\r\n    }\r\n\r\n    function retrieveCertisTokenProxy() external override view returns (address) {\r\n        return (address(_CertisToken));\r\n    }\r\n\r\n    function retrievePrivatePoolFactoryProxy() external override view returns (address) {\r\n        return (address(_PrivatePoolFactory));\r\n    }\r\n\r\n    function retrievePrivatePoolBeacon() external override view returns (address) {\r\n        return (address(_PrivateCertificatePoolBeacon));\r\n    }\r\n\r\n    function retrieveProviderFactoryProxy() external override view returns (address) {\r\n        return (address(_ProviderFactory));\r\n    }\r\n\r\n    function retrieveProviderBeacon() external override view returns (address) {\r\n        return (address(_ProviderBeacon));\r\n    }\r\n\r\n     function retrievePriceConverterProxy() external override view returns (address) {\r\n        return (address(_PriceConverter));\r\n    }\r\n\r\n    // configuration implementations\r\n    function retrievePublicCertificatePool() external override view returns (address) {\r\n        return internalRetrieveImpl(_PublicCertificatesPool);\r\n    }\r\n\r\n    function retrieveTreasury() external override view returns (address) {\r\n        return internalRetrieveImpl(_Treasury);\r\n    }\r\n\r\n    function retrieveCertisToken() external override view returns (address) {\r\n        return internalRetrieveImpl(_CertisToken);\r\n    }\r\n\r\n    function retrievePrivatePoolFactory() external override view returns (address) {\r\n        return internalRetrieveImpl(_PrivatePoolFactory);\r\n    }\r\n\r\n    function retrievePrivatePool() external override view returns (address) {\r\n        return internalRetrievePrivatePool();\r\n    }\r\n\r\n    function retrieveProviderFactory() external override view returns (address) {\r\n        return internalRetrieveImpl(_ProviderFactory);\r\n    }\r\n\r\n    function retrieveProvider() external override view returns (address) {\r\n        return internalRetrieveProvider();\r\n    }\r\n\r\n    function retrievePriceConverter() external override view returns (address) {\r\n        return internalRetrieveImpl(_PriceConverter);\r\n    }\r\n\r\n    function isInitialized() external override view returns(bool){\r\n        return _init;\r\n    }\r\n\r\n    // internal\r\n    function internalRetrieveImpl(TransparentUpgradeableProxy proxy) internal view returns (address){\r\n        return _Admin.getProxyImplementation(proxy);\r\n    }\r\n\r\n    function internalRetrievePrivatePool() internal view returns (address) {\r\n        return _PrivateCertificatePoolBeacon.implementation();\r\n    }\r\n\r\n    function internalRetrieveProvider() internal view returns (address) {\r\n        return _ProviderBeacon.implementation();\r\n    }\r\n  \r\n}",
  "sourcePath": "C:/Users/d-aam/GitHub/Certificates/contracts/DeployedContracts/CertificatesPoolManager.sol",
  "compiler": {
    "name": "solc",
    "version": "0.8.7+commit.e28d00a7.Emscripten.clang"
  },
  "schemaVersion": "3.3.4",
  "updatedAt": "2021-09-14T07:52:55.694Z",
  "devdoc": {
    "kind": "dev",
    "methods": {},
    "version": 1
  },
  "userdoc": {
    "kind": "user",
    "methods": {},
    "version": 1
  }
}