{
  "contractName": "CertisToken",
  "abi": [
    {
      "anonymous": false,
      "inputs": [
        {
          "indexed": true,
          "internalType": "address",
          "name": "owner",
          "type": "address"
        },
        {
          "indexed": true,
          "internalType": "address",
          "name": "spender",
          "type": "address"
        },
        {
          "indexed": false,
          "internalType": "uint256",
          "name": "value",
          "type": "uint256"
        }
      ],
      "name": "Approval",
      "type": "event"
    },
    {
      "anonymous": false,
      "inputs": [
        {
          "indexed": true,
          "internalType": "address",
          "name": "from",
          "type": "address"
        },
        {
          "indexed": true,
          "internalType": "address",
          "name": "to",
          "type": "address"
        },
        {
          "indexed": false,
          "internalType": "uint256",
          "name": "value",
          "type": "uint256"
        }
      ],
      "name": "Transfer",
      "type": "event"
    },
    {
      "inputs": [
        {
          "internalType": "address",
          "name": "owner",
          "type": "address"
        },
        {
          "internalType": "address",
          "name": "spender",
          "type": "address"
        }
      ],
      "name": "allowance",
      "outputs": [
        {
          "internalType": "uint256",
          "name": "",
          "type": "uint256"
        }
      ],
      "stateMutability": "view",
      "type": "function",
      "constant": true
    },
    {
      "inputs": [
        {
          "internalType": "address",
          "name": "spender",
          "type": "address"
        },
        {
          "internalType": "uint256",
          "name": "amount",
          "type": "uint256"
        }
      ],
      "name": "approve",
      "outputs": [
        {
          "internalType": "bool",
          "name": "",
          "type": "bool"
        }
      ],
      "stateMutability": "nonpayable",
      "type": "function"
    },
    {
      "inputs": [
        {
          "internalType": "address",
          "name": "account",
          "type": "address"
        }
      ],
      "name": "balanceOf",
      "outputs": [
        {
          "internalType": "uint256",
          "name": "",
          "type": "uint256"
        }
      ],
      "stateMutability": "view",
      "type": "function",
      "constant": true
    },
    {
      "inputs": [
        {
          "internalType": "address",
          "name": "spender",
          "type": "address"
        },
        {
          "internalType": "uint256",
          "name": "subtractedValue",
          "type": "uint256"
        }
      ],
      "name": "decreaseAllowance",
      "outputs": [
        {
          "internalType": "bool",
          "name": "",
          "type": "bool"
        }
      ],
      "stateMutability": "nonpayable",
      "type": "function"
    },
    {
      "inputs": [
        {
          "internalType": "address",
          "name": "spender",
          "type": "address"
        },
        {
          "internalType": "uint256",
          "name": "addedValue",
          "type": "uint256"
        }
      ],
      "name": "increaseAllowance",
      "outputs": [
        {
          "internalType": "bool",
          "name": "",
          "type": "bool"
        }
      ],
      "stateMutability": "nonpayable",
      "type": "function"
    },
    {
      "inputs": [],
      "name": "name",
      "outputs": [
        {
          "internalType": "string",
          "name": "",
          "type": "string"
        }
      ],
      "stateMutability": "view",
      "type": "function",
      "constant": true
    },
    {
      "inputs": [],
      "name": "retrieveManagerContract",
      "outputs": [
        {
          "internalType": "address",
          "name": "",
          "type": "address"
        }
      ],
      "stateMutability": "view",
      "type": "function",
      "constant": true
    },
    {
      "inputs": [],
      "name": "symbol",
      "outputs": [
        {
          "internalType": "string",
          "name": "",
          "type": "string"
        }
      ],
      "stateMutability": "view",
      "type": "function",
      "constant": true
    },
    {
      "inputs": [],
      "name": "totalSupply",
      "outputs": [
        {
          "internalType": "uint256",
          "name": "",
          "type": "uint256"
        }
      ],
      "stateMutability": "view",
      "type": "function",
      "constant": true
    },
    {
      "inputs": [
        {
          "internalType": "address",
          "name": "recipient",
          "type": "address"
        },
        {
          "internalType": "uint256",
          "name": "amount",
          "type": "uint256"
        }
      ],
      "name": "transfer",
      "outputs": [
        {
          "internalType": "bool",
          "name": "",
          "type": "bool"
        }
      ],
      "stateMutability": "nonpayable",
      "type": "function"
    },
    {
      "inputs": [
        {
          "internalType": "address",
          "name": "sender",
          "type": "address"
        },
        {
          "internalType": "address",
          "name": "recipient",
          "type": "address"
        },
        {
          "internalType": "uint256",
          "name": "amount",
          "type": "uint256"
        }
      ],
      "name": "transferFrom",
      "outputs": [
        {
          "internalType": "bool",
          "name": "",
          "type": "bool"
        }
      ],
      "stateMutability": "nonpayable",
      "type": "function"
    },
    {
      "inputs": [
        {
          "internalType": "string",
          "name": "name",
          "type": "string"
        },
        {
          "internalType": "string",
          "name": "symbol",
          "type": "string"
        },
        {
          "internalType": "uint256",
          "name": "MaxSupply",
          "type": "uint256"
        },
        {
          "internalType": "address",
          "name": "managerContractAddress",
          "type": "address"
        },
        {
          "internalType": "uint8",
          "name": "decimalsValue",
          "type": "uint8"
        },
        {
          "internalType": "address",
          "name": "initialOwner",
          "type": "address"
        }
      ],
      "name": "CertisToken_init",
      "outputs": [],
      "stateMutability": "nonpayable",
      "type": "function"
    },
    {
      "inputs": [],
      "name": "decimals",
      "outputs": [
        {
          "internalType": "uint8",
          "name": "",
          "type": "uint8"
        }
      ],
      "stateMutability": "view",
      "type": "function",
      "constant": true
    }
  ],
  "bytecode": "0x608060405234801561001057600080fd5b5061148f806100206000396000f3fe608060405234801561001057600080fd5b50600436106100af5760003560e01c806306fdde03146100b4578063095ea7b3146100d257806318160ddd146100f557806323b872dd14610107578063313ce5671461011a578063395093511461012f5780635181111e146101425780635b362e841461015757806370a082311461018157806395d89b41146101aa578063a457c2d7146101b2578063a9059cbb146101c5578063dd62ed3e146101d8575b600080fd5b6100bc610211565b6040516100c991906112c4565b60405180910390f35b6100e56100e03660046110ef565b6102a3565b60405190151581526020016100c9565b6035545b6040519081526020016100c9565b6100e56101153660046110ae565b6102b9565b60655460405160ff90911681526020016100c9565b6100e561013d3660046110ef565b610368565b6101556101503660046111f5565b6103a4565b005b6000546201000090046001600160a01b03166040516001600160a01b0390911681526020016100c9565b6100f961018f366004611034565b6001600160a01b031660009081526033602052604090205490565b6100bc610442565b6100e56101c03660046110ef565b610451565b6100e56101d33660046110ef565b6104ea565b6100f96101e6366004611075565b6001600160a01b03918216600090815260346020908152604080832093909416825291909152205490565b606060368054610220906113bd565b80601f016020809104026020016040519081016040528092919081815260200182805461024c906113bd565b80156102995780601f1061026e57610100808354040283529160200191610299565b820191906000526020600020905b81548152906001019060200180831161027c57829003601f168201915b5050505050905090565b60006102b03384846104f7565b50600192915050565b60006102c684848461061b565b6001600160a01b0384166000908152603460209081526040808320338452909152902054828110156103505760405162461bcd60e51b815260206004820152602860248201527f45524332303a207472616e7366657220616d6f756e74206578636565647320616044820152676c6c6f77616e636560c01b60648201526084015b60405180910390fd5b61035d85338584036104f7565b506001949350505050565b3360008181526034602090815260408083206001600160a01b038716845290915281205490916102b091859061039f908690611397565b6104f7565b600054610100900460ff16806103bd575060005460ff16155b6103d95760405162461bcd60e51b815260040161034790611319565b600054610100900460ff161580156103fb576000805461ffff19166101011790555b610404846107e3565b61040e8787610872565b6065805460ff191660ff851617905561042782866108f2565b8015610439576000805461ff00191690555b50505050505050565b606060378054610220906113bd565b3360009081526034602090815260408083206001600160a01b0386168452909152812054828110156104d35760405162461bcd60e51b815260206004820152602560248201527f45524332303a2064656372656173656420616c6c6f77616e63652062656c6f77604482015264207a65726f60d81b6064820152608401610347565b6104e033858584036104f7565b5060019392505050565b60006102b033848461061b565b6001600160a01b0383166105595760405162461bcd60e51b8152602060048201526024808201527f45524332303a20617070726f76652066726f6d20746865207a65726f206164646044820152637265737360e01b6064820152608401610347565b6001600160a01b0382166105ba5760405162461bcd60e51b815260206004820152602260248201527f45524332303a20617070726f766520746f20746865207a65726f206164647265604482015261737360f01b6064820152608401610347565b6001600160a01b0383811660008181526034602090815260408083209487168084529482529182902085905590518481527f8c5be1e5ebec7d5bd14f71427d1e84f3dd0314c0f7b2291e5b200ac8c7c3b925910160405180910390a3505050565b6001600160a01b03831661067f5760405162461bcd60e51b815260206004820152602560248201527f45524332303a207472616e736665722066726f6d20746865207a65726f206164604482015264647265737360d81b6064820152608401610347565b6001600160a01b0382166106e15760405162461bcd60e51b815260206004820152602360248201527f45524332303a207472616e7366657220746f20746865207a65726f206164647260448201526265737360e81b6064820152608401610347565b6106ec8383836109cb565b6001600160a01b038316600090815260336020526040902054818110156107645760405162461bcd60e51b815260206004820152602660248201527f45524332303a207472616e7366657220616d6f756e7420657863656564732062604482015265616c616e636560d01b6064820152608401610347565b6001600160a01b0380851660009081526033602052604080822085850390559185168152908120805484929061079b908490611397565b92505081905550826001600160a01b0316846001600160a01b031660008051602061143a833981519152846040516107d591815260200190565b60405180910390a350505050565b600054610100900460ff16806107fc575060005460ff16155b6108185760405162461bcd60e51b815260040161034790611319565b600054610100900460ff1615801561083a576000805461ffff19166101011790555b6000805462010000600160b01b031916620100006001600160a01b03851602179055801561086e576000805461ff00191690555b5050565b600054610100900460ff168061088b575060005460ff16155b6108a75760405162461bcd60e51b815260040161034790611319565b600054610100900460ff161580156108c9576000805461ffff19166101011790555b6108d1610e2b565b6108db8383610e97565b80156108ed576000805461ff00191690555b505050565b6001600160a01b0382166109485760405162461bcd60e51b815260206004820152601f60248201527f45524332303a206d696e7420746f20746865207a65726f2061646472657373006044820152606401610347565b610954600083836109cb565b80603560008282546109669190611397565b90915550506001600160a01b03821660009081526033602052604081208054839290610993908490611397565b90915550506040518181526001600160a01b0383169060009060008051602061143a8339815191529060200160405180910390a35050565b600060029054906101000a90046001600160a01b03166001600160a01b031663392e53cd6040518163ffffffff1660e01b815260040160206040518083038186803b158015610a1957600080fd5b505afa158015610a2d573d6000803e3d6000fd5b505050506040513d601f19601f82011682018060405250810190610a5191906111d3565b156108ed5760008060029054906101000a90046001600160a01b03166001600160a01b031663e220ad956040518163ffffffff1660e01b815260040160006040518083038186803b158015610aa557600080fd5b505afa158015610ab9573d6000803e3d6000fd5b505050506040513d6000823e601f3d908101601f19168201604052610ae1919081019061111b565b905080600181518110610af657610af66113f8565b60200260200101516001600160a01b0316633c7df55d8585856040518463ffffffff1660e01b8152600401610b2d939291906112a0565b600060405180830381600087803b158015610b4757600080fd5b505af1158015610b5b573d6000803e3d6000fd5b5050505080600581518110610b7257610b726113f8565b60200260200101516001600160a01b0316633c7df55d8585856040518463ffffffff1660e01b8152600401610ba9939291906112a0565b600060405180830381600087803b158015610bc357600080fd5b505af1158015610bd7573d6000803e3d6000fd5b5050505080600681518110610bee57610bee6113f8565b60200260200101516001600160a01b0316633c7df55d8585856040518463ffffffff1660e01b8152600401610c25939291906112a0565b600060405180830381600087803b158015610c3f57600080fd5b505af1158015610c53573d6000803e3d6000fd5b5050505080600781518110610c6a57610c6a6113f8565b60200260200101516001600160a01b0316633c7df55d8585856040518463ffffffff1660e01b8152600401610ca1939291906112a0565b600060405180830381600087803b158015610cbb57600080fd5b505af1158015610ccf573d6000803e3d6000fd5b5050600054604051633c7df55d60e01b8152620100009091046001600160a01b03169250633c7df55d9150610d0c908790879087906004016112a0565b600060405180830381600087803b158015610d2657600080fd5b505af1158015610d3a573d6000803e3d6000fd5b50505050600060029054906101000a90046001600160a01b03166001600160a01b031663064895776040518163ffffffff1660e01b815260040160206040518083038186803b158015610d8c57600080fd5b505afa158015610da0573d6000803e3d6000fd5b505050506040513d601f19601f82011682018060405250810190610dc49190611058565b6001600160a01b0316633c7df55d8585856040518463ffffffff1660e01b8152600401610df3939291906112a0565b600060405180830381600087803b158015610e0d57600080fd5b505af1158015610e21573d6000803e3d6000fd5b5050505050505050565b600054610100900460ff1680610e44575060005460ff16155b610e605760405162461bcd60e51b815260040161034790611319565b600054610100900460ff16158015610e82576000805461ffff19166101011790555b8015610e94576000805461ff00191690555b50565b600054610100900460ff1680610eb0575060005460ff16155b610ecc5760405162461bcd60e51b815260040161034790611319565b600054610100900460ff16158015610eee576000805461ffff19166101011790555b8251610f01906036906020860190610f2c565b508151610f15906037906020850190610f2c565b5080156108ed576000805461ff0019169055505050565b828054610f38906113bd565b90600052602060002090601f016020900481019282610f5a5760008555610fa0565b82601f10610f7357805160ff1916838001178555610fa0565b82800160010185558215610fa0579182015b82811115610fa0578251825591602001919060010190610f85565b50610fac929150610fb0565b5090565b5b80821115610fac5760008155600101610fb1565b600082601f830112610fd657600080fd5b81356001600160401b03811115610fef57610fef61140e565b611002601f8201601f1916602001611367565b81815284602083860101111561101757600080fd5b816020850160208301376000918101602001919091529392505050565b60006020828403121561104657600080fd5b813561105181611424565b9392505050565b60006020828403121561106a57600080fd5b815161105181611424565b6000806040838503121561108857600080fd5b823561109381611424565b915060208301356110a381611424565b809150509250929050565b6000806000606084860312156110c357600080fd5b83356110ce81611424565b925060208401356110de81611424565b929592945050506040919091013590565b6000806040838503121561110257600080fd5b823561110d81611424565b946020939093013593505050565b6000602080838503121561112e57600080fd5b82516001600160401b038082111561114557600080fd5b818501915085601f83011261115957600080fd5b81518181111561116b5761116b61140e565b8060051b915061117c848301611367565b8181528481019084860184860187018a101561119757600080fd5b600095505b838610156111c657805194506111b185611424565b8483526001959095019491860191860161119c565b5098975050505050505050565b6000602082840312156111e557600080fd5b8151801515811461105157600080fd5b60008060008060008060c0878903121561120e57600080fd5b86356001600160401b038082111561122557600080fd5b6112318a838b01610fc5565b9750602089013591508082111561124757600080fd5b5061125489828a01610fc5565b95505060408701359350606087013561126c81611424565b9250608087013560ff8116811461128257600080fd5b915060a087013561129281611424565b809150509295509295509295565b6001600160a01b039384168152919092166020820152604081019190915260600190565b600060208083528351808285015260005b818110156112f1578581018301518582016040015282016112d5565b81811115611303576000604083870101525b50601f01601f1916929092016040019392505050565b6020808252602e908201527f496e697469616c697a61626c653a20636f6e747261637420697320616c72656160408201526d191e481a5b9a5d1a585b1a5e995960921b606082015260800190565b604051601f8201601f191681016001600160401b038111828210171561138f5761138f61140e565b604052919050565b600082198211156113b857634e487b7160e01b600052601160045260246000fd5b500190565b600181811c908216806113d157607f821691505b602082108114156113f257634e487b7160e01b600052602260045260246000fd5b50919050565b634e487b7160e01b600052603260045260246000fd5b634e487b7160e01b600052604160045260246000fd5b6001600160a01b0381168114610e9457600080fdfeddf252ad1be2c89b69c2b068fc378daa952ba7f163c4a11628f55a4df523b3efa2646970667358221220dba8cd3c5d19042afd39524c694ea2e8c433485dd4738683c7bd96036d3f5d5864736f6c63430008070033",
  "immutableReferences": {},
  "source": "// SPDX-License-Identifier: GPL-3.0\r\n\r\npragma solidity 0.8.7;\r\n\r\n/**\r\n Certis Token is an ERC20 Token that grants its holder the right to:\r\n   - Vote on all the systems propositions (changing system configuraiton etc...)\r\n   - Receive Dividends for all the payments forwarded to the Treasury contract\r\n\r\nBefore every token transfer we contact the token gouvernance Base contracts so that the can update the tokens used for voting if needed\r\n\r\n */\r\n\r\nimport \"@openzeppelin/contracts-upgradeable/token/ERC20/ERC20Upgradeable.sol\";\r\nimport \"@openzeppelin/contracts-upgradeable/proxy/utils/Initializable.sol\";\r\nimport \"../Libraries/AddressLibrary.sol\";\r\nimport \"../Interfaces/ITokenEventSubscriber.sol\";\r\nimport \"../Base/ManagedBaseContract.sol\";\r\n\r\n contract CertisToken is  Initializable, ManagedBaseContract, ERC20Upgradeable {\r\n    using AddressLibrary for *;\r\n\r\n    // DATA /////////////////////////////////////////\r\n    // decimals\r\n    uint8 private _decimals;\r\n\r\n    // CONSTRUCTOR /////////////////////////////////////////\r\n    function CertisToken_init(string memory name, string memory symbol, uint256 MaxSupply, address managerContractAddress, uint8 decimalsValue, address initialOwner) public initializer {\r\n        super.ManagedBaseContract_init(managerContractAddress);\r\n        super.__ERC20_init(name, symbol);\r\n    \r\n        _decimals = decimalsValue;\r\n        _mint(initialOwner, MaxSupply);\r\n    }\r\n\r\n    // FUNCTIONALITY /////////////////////////////////////////\r\n    function decimals() public view override returns (uint8) \r\n    {\r\n        return _decimals;\r\n    }\r\n\r\n    function _beforeTokenTransfer(address from, address to, uint256 amount) internal override \r\n    {\r\n        if(_managerContract.isInitialized()){\r\n            address[] memory Proxies = _managerContract.retrieveTransparentProxies();\r\n            \r\n            ITokenEventSubscriber(Proxies[1]).onTokenBalanceChanged(from, to, amount); // Treasury\r\n            ITokenEventSubscriber(Proxies[5]).onTokenBalanceChanged(from, to, amount); // Price Converter\r\n            ITokenEventSubscriber(Proxies[6]).onTokenBalanceChanged(from, to, amount); // Proposition Settings\r\n            ITokenEventSubscriber(Proxies[7]).onTokenBalanceChanged(from, to, amount); // ENS\r\n            ITokenEventSubscriber(address(_managerContract)).onTokenBalanceChanged(from, to, amount); // Certificate Pool Manager\r\n            ITokenEventSubscriber(_managerContract.retrieveManagerAdmin()).onTokenBalanceChanged(from, to, amount); // Admin\r\n        }\r\n    }\r\n\r\n }",
  "sourcePath": "C:/Users/d-aam/GitHub/Certificates/contracts/DeployedContracts/CertisToken.sol",
  "compiler": {
    "name": "solc",
    "version": "0.8.7+commit.e28d00a7.Emscripten.clang"
  },
  "schemaVersion": "3.3.4",
  "updatedAt": "2021-11-10T14:06:22.246Z",
  "networkType": "ethereum",
  "devdoc": {
    "kind": "dev",
    "methods": {
      "allowance(address,address)": {
        "details": "See {IERC20-allowance}."
      },
      "approve(address,uint256)": {
        "details": "See {IERC20-approve}. Requirements: - `spender` cannot be the zero address."
      },
      "balanceOf(address)": {
        "details": "See {IERC20-balanceOf}."
      },
      "decimals()": {
        "details": "Returns the number of decimals used to get its user representation. For example, if `decimals` equals `2`, a balance of `505` tokens should be displayed to a user as `5,05` (`505 / 10 ** 2`). Tokens usually opt for a value of 18, imitating the relationship between Ether and Wei. This is the value {ERC20} uses, unless this function is overridden; NOTE: This information is only used for _display_ purposes: it in no way affects any of the arithmetic of the contract, including {IERC20-balanceOf} and {IERC20-transfer}."
      },
      "decreaseAllowance(address,uint256)": {
        "details": "Atomically decreases the allowance granted to `spender` by the caller. This is an alternative to {approve} that can be used as a mitigation for problems described in {IERC20-approve}. Emits an {Approval} event indicating the updated allowance. Requirements: - `spender` cannot be the zero address. - `spender` must have allowance for the caller of at least `subtractedValue`."
      },
      "increaseAllowance(address,uint256)": {
        "details": "Atomically increases the allowance granted to `spender` by the caller. This is an alternative to {approve} that can be used as a mitigation for problems described in {IERC20-approve}. Emits an {Approval} event indicating the updated allowance. Requirements: - `spender` cannot be the zero address."
      },
      "name()": {
        "details": "Returns the name of the token."
      },
      "symbol()": {
        "details": "Returns the symbol of the token, usually a shorter version of the name."
      },
      "totalSupply()": {
        "details": "See {IERC20-totalSupply}."
      },
      "transfer(address,uint256)": {
        "details": "See {IERC20-transfer}. Requirements: - `recipient` cannot be the zero address. - the caller must have a balance of at least `amount`."
      },
      "transferFrom(address,address,uint256)": {
        "details": "See {IERC20-transferFrom}. Emits an {Approval} event indicating the updated allowance. This is not required by the EIP. See the note at the beginning of {ERC20}. Requirements: - `sender` and `recipient` cannot be the zero address. - `sender` must have a balance of at least `amount`. - the caller must have allowance for ``sender``'s tokens of at least `amount`."
      }
    },
    "version": 1
  },
  "userdoc": {
    "kind": "user",
    "methods": {},
    "version": 1
  }
}