{
  "contractName": "CertisToken",
  "abi": [
    {
      "inputs": [
        {
          "internalType": "string",
          "name": "name",
          "type": "string"
        },
        {
          "internalType": "string",
          "name": "symbol",
          "type": "string"
        },
        {
          "internalType": "uint8",
          "name": "decimalsValue",
          "type": "uint8"
        },
        {
          "internalType": "uint256",
          "name": "MaxSupply",
          "type": "uint256"
        }
      ],
      "stateMutability": "nonpayable",
      "type": "constructor"
    },
    {
      "anonymous": false,
      "inputs": [
        {
          "indexed": true,
          "internalType": "address",
          "name": "owner",
          "type": "address"
        },
        {
          "indexed": true,
          "internalType": "address",
          "name": "spender",
          "type": "address"
        },
        {
          "indexed": false,
          "internalType": "uint256",
          "name": "value",
          "type": "uint256"
        }
      ],
      "name": "Approval",
      "type": "event"
    },
    {
      "anonymous": false,
      "inputs": [
        {
          "indexed": true,
          "internalType": "address",
          "name": "from",
          "type": "address"
        },
        {
          "indexed": true,
          "internalType": "address",
          "name": "to",
          "type": "address"
        },
        {
          "indexed": false,
          "internalType": "uint256",
          "name": "value",
          "type": "uint256"
        }
      ],
      "name": "Transfer",
      "type": "event"
    },
    {
      "inputs": [
        {
          "internalType": "address",
          "name": "owner",
          "type": "address"
        },
        {
          "internalType": "address",
          "name": "spender",
          "type": "address"
        }
      ],
      "name": "allowance",
      "outputs": [
        {
          "internalType": "uint256",
          "name": "",
          "type": "uint256"
        }
      ],
      "stateMutability": "view",
      "type": "function"
    },
    {
      "inputs": [
        {
          "internalType": "address",
          "name": "spender",
          "type": "address"
        },
        {
          "internalType": "uint256",
          "name": "amount",
          "type": "uint256"
        }
      ],
      "name": "approve",
      "outputs": [
        {
          "internalType": "bool",
          "name": "",
          "type": "bool"
        }
      ],
      "stateMutability": "nonpayable",
      "type": "function"
    },
    {
      "inputs": [
        {
          "internalType": "address",
          "name": "account",
          "type": "address"
        }
      ],
      "name": "balanceOf",
      "outputs": [
        {
          "internalType": "uint256",
          "name": "",
          "type": "uint256"
        }
      ],
      "stateMutability": "view",
      "type": "function"
    },
    {
      "inputs": [
        {
          "internalType": "address",
          "name": "spender",
          "type": "address"
        },
        {
          "internalType": "uint256",
          "name": "subtractedValue",
          "type": "uint256"
        }
      ],
      "name": "decreaseAllowance",
      "outputs": [
        {
          "internalType": "bool",
          "name": "",
          "type": "bool"
        }
      ],
      "stateMutability": "nonpayable",
      "type": "function"
    },
    {
      "inputs": [
        {
          "internalType": "address",
          "name": "spender",
          "type": "address"
        },
        {
          "internalType": "uint256",
          "name": "addedValue",
          "type": "uint256"
        }
      ],
      "name": "increaseAllowance",
      "outputs": [
        {
          "internalType": "bool",
          "name": "",
          "type": "bool"
        }
      ],
      "stateMutability": "nonpayable",
      "type": "function"
    },
    {
      "inputs": [],
      "name": "name",
      "outputs": [
        {
          "internalType": "string",
          "name": "",
          "type": "string"
        }
      ],
      "stateMutability": "view",
      "type": "function"
    },
    {
      "inputs": [],
      "name": "symbol",
      "outputs": [
        {
          "internalType": "string",
          "name": "",
          "type": "string"
        }
      ],
      "stateMutability": "view",
      "type": "function"
    },
    {
      "inputs": [],
      "name": "totalSupply",
      "outputs": [
        {
          "internalType": "uint256",
          "name": "",
          "type": "uint256"
        }
      ],
      "stateMutability": "view",
      "type": "function"
    },
    {
      "inputs": [
        {
          "internalType": "address",
          "name": "recipient",
          "type": "address"
        },
        {
          "internalType": "uint256",
          "name": "amount",
          "type": "uint256"
        }
      ],
      "name": "transfer",
      "outputs": [
        {
          "internalType": "bool",
          "name": "",
          "type": "bool"
        }
      ],
      "stateMutability": "nonpayable",
      "type": "function"
    },
    {
      "inputs": [
        {
          "internalType": "address",
          "name": "sender",
          "type": "address"
        },
        {
          "internalType": "address",
          "name": "recipient",
          "type": "address"
        },
        {
          "internalType": "uint256",
          "name": "amount",
          "type": "uint256"
        }
      ],
      "name": "transferFrom",
      "outputs": [
        {
          "internalType": "bool",
          "name": "",
          "type": "bool"
        }
      ],
      "stateMutability": "nonpayable",
      "type": "function"
    },
    {
      "inputs": [],
      "name": "decimals",
      "outputs": [
        {
          "internalType": "uint8",
          "name": "",
          "type": "uint8"
        }
      ],
      "stateMutability": "view",
      "type": "function"
    },
    {
      "inputs": [],
      "name": "TokenOwners",
      "outputs": [
        {
          "internalType": "address[]",
          "name": "",
          "type": "address[]"
        },
        {
          "internalType": "uint256[]",
          "name": "",
          "type": "uint256[]"
        }
      ],
      "stateMutability": "view",
      "type": "function"
    }
  ],
  "bytecode": "0x60806040523480156200001157600080fd5b50604051620016e6380380620016e683398101604081905262000034916200062c565b8351849084906200004d906003906020850190620003ca565b50805162000063906004906020840190620003ca565b5060009150620000709050565b6040519080825280602002602001820160405280156200009a578160200160208202803683370190505b508051620000b19160069160209091019062000459565b506005805460ff191660ff8416179055620000cd3382620000d7565b5050505062000812565b6001600160a01b038216620001325760405162461bcd60e51b815260206004820152601f60248201527f45524332303a206d696e7420746f20746865207a65726f206164647265737300604482015260640160405180910390fd5b6200014060008383620001cd565b806002600082825462000154919062000798565b90915550506001600160a01b038216600090815260208190526040812080548392906200018390849062000798565b90915550506040518181526001600160a01b038316906000907fddf252ad1be2c89b69c2b068fc378daa952ba7f163c4a11628f55a4df523b3ef9060200160405180910390a35050565b8015620003aa576001600160a01b03821615801590620001f55750620001f382620003af565b155b156200024757600680546001810182556000919091527ff652222313e28459528d920b65115c16c04f3efc82aaedc97be59f3f377c0d3f0180546001600160a01b0319166001600160a01b0384161790555b6001600160a01b038316158015906200026957506200026683620003af565b81145b15620003aa5773__AddressLibrary________________________632491ddcc73__AddressLibrary________________________63ffe6eda18660066040518363ffffffff1660e01b8152600401620002c59291906200071c565b60206040518083038186803b158015620002de57600080fd5b505af4158015620002f3573d6000803e3d6000fd5b505050506040513d601f19601f82011682018060405250810190620003199190620006b7565b60066040518363ffffffff1660e01b81526004016200033a9291906200074a565b60006040518083038186803b1580156200035357600080fd5b505af415801562000368573d6000803e3d6000fd5b505050506040513d6000823e601f3d908101601f191682016040526200039291908101906200055d565b8051620003a89160069160209091019062000459565b505b505050565b6001600160a01b031660009081526020819052604090205490565b828054620003d890620007bf565b90600052602060002090601f016020900481019282620003fc576000855562000447565b82601f106200041757805160ff191683800117855562000447565b8280016001018555821562000447579182015b82811115620004475782518255916020019190600101906200042a565b5062000455929150620004b1565b5090565b82805482825590600052602060002090810192821562000447579160200282015b828111156200044757825182546001600160a01b0319166001600160a01b039091161782556020909201916001909101906200047a565b5b80821115620004555760008155600101620004b2565b600082601f830112620004da57600080fd5b81516001600160401b03811115620004f657620004f6620007fc565b60206200050c601f8301601f1916820162000765565b82815285828487010111156200052157600080fd5b60005b838110156200054157858101830151828201840152820162000524565b83811115620005535760008385840101525b5095945050505050565b600060208083850312156200057157600080fd5b82516001600160401b03808211156200058957600080fd5b818501915085601f8301126200059e57600080fd5b815181811115620005b357620005b3620007fc565b8060051b9150620005c684830162000765565b8181528481019084860184860187018a1015620005e257600080fd5b600095508594505b838510156200061f5780516001600160a01b03811681146200060a578687fd5b835260019490940193918601918601620005ea565b5098975050505050505050565b600080600080608085870312156200064357600080fd5b84516001600160401b03808211156200065b57600080fd5b6200066988838901620004c8565b955060208701519150808211156200068057600080fd5b506200068f87828801620004c8565b935050604085015160ff81168114620006a757600080fd5b6060959095015193969295505050565b600060208284031215620006ca57600080fd5b5051919050565b6000815480845260208085019450836000528060002060005b83811015620007115781546001600160a01b031687529582019560019182019101620006ea565b509495945050505050565b6001600160a01b03831681526040602082018190526000906200074290830184620006d1565b949350505050565b828152604060208201526000620007426040830184620006d1565b604051601f8201601f191681016001600160401b0381118282101715620007905762000790620007fc565b604052919050565b60008219821115620007ba57634e487b7160e01b600052601160045260246000fd5b500190565b600181811c90821680620007d457607f821691505b60208210811415620007f657634e487b7160e01b600052602260045260246000fd5b50919050565b634e487b7160e01b600052604160045260246000fd5b610ec480620008226000396000f3fe608060405234801561001057600080fd5b50600436106100a45760003560e01c806306fdde03146100a9578063095ea7b3146100c757806318160ddd146100ea57806323b872dd146100fc578063313ce5671461010f578063395093511461012457806370a082311461013757806388d44ee01461014a57806395d89b4114610160578063a457c2d714610168578063a9059cbb1461017b578063dd62ed3e1461018e575b600080fd5b6100b16101c7565b6040516100be9190610d41565b60405180910390f35b6100da6100d5366004610b38565b610259565b60405190151581526020016100be565b6002545b6040519081526020016100be565b6100da61010a366004610af7565b61026f565b60055460405160ff90911681526020016100be565b6100da610132366004610b38565b610325565b6100ee610145366004610a9a565b61035c565b610152610377565b6040516100be929190610cbd565b6100b1610487565b6100da610176366004610b38565b610496565b6100da610189366004610b38565b610531565b6100ee61019c366004610abe565b6001600160a01b03918216600090815260016020908152604080832093909416825291909152205490565b6060600380546101d690610dde565b80601f016020809104026020016040519081016040528092919081815260200182805461020290610dde565b801561024f5780601f106102245761010080835404028352916020019161024f565b820191906000526020600020905b81548152906001019060200180831161023257829003601f168201915b5050505050905090565b600061026633848461053e565b50600192915050565b600061027c848484610662565b6001600160a01b0384166000908152600160209081526040808320338452909152902054828110156103065760405162461bcd60e51b815260206004820152602860248201527f45524332303a207472616e7366657220616d6f756e74206578636565647320616044820152676c6c6f77616e636560c01b60648201526084015b60405180910390fd5b61031a85336103158685610dc7565b61053e565b506001949350505050565b3360008181526001602090815260408083206001600160a01b03871684529091528120549091610266918590610315908690610daf565b6001600160a01b031660009081526020819052604090205490565b606080600060068054806020026020016040519081016040528092919081815260200182805480156103d257602002820191906000526020600020905b81546001600160a01b031681526001909101906020018083116103b4575b50505050509050600081516001600160401b038111156103f4576103f4610e60565b60405190808252806020026020018201604052801561041d578160200160208202803683370190505b50905060005b825181101561047d5761044e83828151811061044157610441610e4a565b602002602001015161035c565b82828151811061046057610460610e4a565b60209081029190910101528061047581610e19565b915050610423565b5090939092509050565b6060600480546101d690610dde565b3360009081526001602090815260408083206001600160a01b0386168452909152812054828110156105185760405162461bcd60e51b815260206004820152602560248201527f45524332303a2064656372656173656420616c6c6f77616e63652062656c6f77604482015264207a65726f60d81b60648201526084016102fd565b61052733856103158685610dc7565b5060019392505050565b6000610266338484610662565b6001600160a01b0383166105a05760405162461bcd60e51b8152602060048201526024808201527f45524332303a20617070726f76652066726f6d20746865207a65726f206164646044820152637265737360e01b60648201526084016102fd565b6001600160a01b0382166106015760405162461bcd60e51b815260206004820152602260248201527f45524332303a20617070726f766520746f20746865207a65726f206164647265604482015261737360f01b60648201526084016102fd565b6001600160a01b0383811660008181526001602090815260408083209487168084529482529182902085905590518481527f8c5be1e5ebec7d5bd14f71427d1e84f3dd0314c0f7b2291e5b200ac8c7c3b925910160405180910390a3505050565b6001600160a01b0383166106c65760405162461bcd60e51b815260206004820152602560248201527f45524332303a207472616e736665722066726f6d20746865207a65726f206164604482015264647265737360d81b60648201526084016102fd565b6001600160a01b0382166107285760405162461bcd60e51b815260206004820152602360248201527f45524332303a207472616e7366657220746f20746865207a65726f206164647260448201526265737360e81b60648201526084016102fd565b610733838383610845565b6001600160a01b038316600090815260208190526040902054818110156107ab5760405162461bcd60e51b815260206004820152602660248201527f45524332303a207472616e7366657220616d6f756e7420657863656564732062604482015265616c616e636560d01b60648201526084016102fd565b6107b58282610dc7565b6001600160a01b0380861660009081526020819052604080822093909355908516815290812080548492906107eb908490610daf565b92505081905550826001600160a01b0316846001600160a01b03167fddf252ad1be2c89b69c2b068fc378daa952ba7f163c4a11628f55a4df523b3ef8460405161083791815260200190565b60405180910390a350505050565b8015610a0b576001600160a01b0382161580159061086957506108678261035c565b155b156108ba57600680546001810182556000919091527ff652222313e28459528d920b65115c16c04f3efc82aaedc97be59f3f377c0d3f0180546001600160a01b0319166001600160a01b0384161790555b6001600160a01b038316158015906108d957506108d68361035c565b81145b15610a0b5773__AddressLibrary________________________632491ddcc73__AddressLibrary________________________63ffe6eda18660066040518363ffffffff1660e01b8152600401610932929190610c91565b60206040518083038186803b15801561094a57600080fd5b505af415801561095e573d6000803e3d6000fd5b505050506040513d601f19601f820116820180604052508101906109829190610c2f565b60066040518363ffffffff1660e01b81526004016109a1929190610d96565b60006040518083038186803b1580156109b957600080fd5b505af41580156109cd573d6000803e3d6000fd5b505050506040513d6000823e601f3d908101601f191682016040526109f59190810190610b64565b8051610a0991600691602090910190610a10565b505b505050565b828054828255906000526020600020908101928215610a65579160200282015b82811115610a6557825182546001600160a01b0319166001600160a01b03909116178255602090920191600190910190610a30565b50610a71929150610a75565b5090565b5b80821115610a715760008155600101610a76565b8051610a9581610e76565b919050565b600060208284031215610aac57600080fd5b8135610ab781610e76565b9392505050565b60008060408385031215610ad157600080fd5b8235610adc81610e76565b91506020830135610aec81610e76565b809150509250929050565b600080600060608486031215610b0c57600080fd5b8335610b1781610e76565b92506020840135610b2781610e76565b929592945050506040919091013590565b60008060408385031215610b4b57600080fd5b8235610b5681610e76565b946020939093013593505050565b60006020808385031215610b7757600080fd5b82516001600160401b0380821115610b8e57600080fd5b818501915085601f830112610ba257600080fd5b815181811115610bb457610bb4610e60565b8060051b604051601f19603f83011681018181108582111715610bd957610bd9610e60565b604052828152858101935084860182860187018a1015610bf857600080fd5b600095505b83861015610c2257610c0e81610a8a565b855260019590950194938601938601610bfd565b5098975050505050505050565b600060208284031215610c4157600080fd5b5051919050565b6000815480845260208085019450836000528060002060005b83811015610c865781546001600160a01b031687529582019560019182019101610c61565b509495945050505050565b6001600160a01b0383168152604060208201819052600090610cb590830184610c48565b949350505050565b604080825283519082018190526000906020906060840190828701845b82811015610cff5781516001600160a01b031684529284019290840190600101610cda565b5050508381038285015284518082528583019183019060005b81811015610d3457835183529284019291840191600101610d18565b5090979650505050505050565b600060208083528351808285015260005b81811015610d6e57858101830151858201604001528201610d52565b81811115610d80576000604083870101525b50601f01601f1916929092016040019392505050565b828152604060208201526000610cb56040830184610c48565b60008219821115610dc257610dc2610e34565b500190565b600082821015610dd957610dd9610e34565b500390565b600181811c90821680610df257607f821691505b60208210811415610e1357634e487b7160e01b600052602260045260246000fd5b50919050565b6000600019821415610e2d57610e2d610e34565b5060010190565b634e487b7160e01b600052601160045260246000fd5b634e487b7160e01b600052603260045260246000fd5b634e487b7160e01b600052604160045260246000fd5b6001600160a01b0381168114610e8b57600080fd5b5056fea264697066735822122054b1004f4323e0717f9a62a51995dd9227209b70d1ff85eaae6e1bdb9f009afc64736f6c63430008060033",
  "immutableReferences": {},
  "source": "// SPDX-License-Identifier: GPL-3.0\r\n\r\npragma solidity ^0.8.0;\r\n\r\n/**\r\n * @title Storage\r\n * @dev Store & retrieve value in a variable\r\n */\r\n\r\nimport \"@openzeppelin/contracts/token/ERC20/ERC20.sol\";\r\nimport \"./Libraries/AddressLibrary.sol\";\r\n\r\n contract CertisToken is ERC20 {\r\n\r\n    using AddressLibrary for *;\r\n\r\n    // DATA\r\n    uint8 _decimals;\r\n    address[] _tokenOwners;\r\n\r\n    // CONSTRUCTOR\r\n    constructor(string memory name, string memory symbol, uint8 decimalsValue, uint256 MaxSupply) ERC20(name, symbol){\r\n        _tokenOwners = new address[](0);\r\n        _decimals = decimalsValue;\r\n        _mint(msg.sender, MaxSupply);\r\n    }\r\n\r\n    // FUNCTIONALITY\r\n    function decimals() public view override returns (uint8) {\r\n        return _decimals;\r\n    }\r\n\r\n    function TokenOwners() external view returns (address[] memory, uint256[] memory){\r\n        address[] memory tO = _tokenOwners;\r\n        uint256[] memory OwnerBalance = new uint256[](tO.length);\r\n\r\n        for(uint i=0; i < tO.length; i++){\r\n                OwnerBalance[i] = balanceOf(tO[i]);\r\n        }\r\n\r\n        return(tO,OwnerBalance);\r\n    }\r\n\r\n    function _beforeTokenTransfer(address from, address to, uint256 amount) internal override {\r\n        if(amount > 0){\r\n            if(address(0) != to && 0 == balanceOf(to))_tokenOwners.push(to);\r\n            if(address(0) != from && amount == balanceOf(from)){\r\n                _tokenOwners = AddressLibrary.AddressArrayRemoveResize(AddressLibrary.FindAddressPosition(from, _tokenOwners),_tokenOwners);\r\n            }\r\n        }\r\n    }\r\n    \r\n\r\n }",
  "sourcePath": "C:\\Users\\d-aam\\GitHub\\Certificates\\contracts\\CertisToken.sol",
  "compiler": {
    "name": "solc",
    "version": "0.8.6+commit.11564f7e.Emscripten.clang"
  },
  "schemaVersion": "3.3.4",
  "updatedAt": "2021-07-29T10:07:29.672Z",
  "devdoc": {
    "kind": "dev",
    "methods": {
      "allowance(address,address)": {
        "details": "See {IERC20-allowance}."
      },
      "approve(address,uint256)": {
        "details": "See {IERC20-approve}. Requirements: - `spender` cannot be the zero address."
      },
      "balanceOf(address)": {
        "details": "See {IERC20-balanceOf}."
      },
      "decimals()": {
        "details": "Returns the number of decimals used to get its user representation. For example, if `decimals` equals `2`, a balance of `505` tokens should be displayed to a user as `5,05` (`505 / 10 ** 2`). Tokens usually opt for a value of 18, imitating the relationship between Ether and Wei. This is the value {ERC20} uses, unless this function is overridden; NOTE: This information is only used for _display_ purposes: it in no way affects any of the arithmetic of the contract, including {IERC20-balanceOf} and {IERC20-transfer}."
      },
      "decreaseAllowance(address,uint256)": {
        "details": "Atomically decreases the allowance granted to `spender` by the caller. This is an alternative to {approve} that can be used as a mitigation for problems described in {IERC20-approve}. Emits an {Approval} event indicating the updated allowance. Requirements: - `spender` cannot be the zero address. - `spender` must have allowance for the caller of at least `subtractedValue`."
      },
      "increaseAllowance(address,uint256)": {
        "details": "Atomically increases the allowance granted to `spender` by the caller. This is an alternative to {approve} that can be used as a mitigation for problems described in {IERC20-approve}. Emits an {Approval} event indicating the updated allowance. Requirements: - `spender` cannot be the zero address."
      },
      "name()": {
        "details": "Returns the name of the token."
      },
      "symbol()": {
        "details": "Returns the symbol of the token, usually a shorter version of the name."
      },
      "totalSupply()": {
        "details": "See {IERC20-totalSupply}."
      },
      "transfer(address,uint256)": {
        "details": "See {IERC20-transfer}. Requirements: - `recipient` cannot be the zero address. - the caller must have a balance of at least `amount`."
      },
      "transferFrom(address,address,uint256)": {
        "details": "See {IERC20-transferFrom}. Emits an {Approval} event indicating the updated allowance. This is not required by the EIP. See the note at the beginning of {ERC20}. Requirements: - `sender` and `recipient` cannot be the zero address. - `sender` must have a balance of at least `amount`. - the caller must have allowance for ``sender``'s tokens of at least `amount`."
      }
    },
    "version": 1
  },
  "userdoc": {
    "kind": "user",
    "methods": {},
    "version": 1
  }
}