{
  "contractName": "CertificatesPoolManager",
  "abi": [
    {
      "anonymous": false,
      "inputs": [
        {
          "indexed": false,
          "internalType": "uint256",
          "name": "Id",
          "type": "uint256"
        },
        {
          "indexed": true,
          "internalType": "address",
          "name": "Proposer",
          "type": "address"
        },
        {
          "indexed": false,
          "internalType": "uint256",
          "name": "Deadline",
          "type": "uint256"
        },
        {
          "indexed": false,
          "internalType": "uint256",
          "name": "Threshold",
          "type": "uint256"
        }
      ],
      "name": "_AddedProposition",
      "type": "event"
    },
    {
      "anonymous": false,
      "inputs": [
        {
          "indexed": false,
          "internalType": "uint256",
          "name": "Id",
          "type": "uint256"
        },
        {
          "indexed": true,
          "internalType": "address",
          "name": "Proposer",
          "type": "address"
        }
      ],
      "name": "_CancelledProposition",
      "type": "event"
    },
    {
      "anonymous": false,
      "inputs": [
        {
          "indexed": false,
          "internalType": "address",
          "name": "NewContractAddress",
          "type": "address"
        },
        {
          "indexed": false,
          "internalType": "uint256",
          "name": "ProxyId",
          "type": "uint256"
        },
        {
          "indexed": false,
          "internalType": "string",
          "name": "ProxyType",
          "type": "string"
        }
      ],
      "name": "_ContractUpgrade",
      "type": "event"
    },
    {
      "anonymous": false,
      "inputs": [
        {
          "indexed": false,
          "internalType": "address",
          "name": "NewContractAddress",
          "type": "address"
        },
        {
          "indexed": false,
          "internalType": "uint256",
          "name": "ProxyId",
          "type": "uint256"
        },
        {
          "indexed": false,
          "internalType": "string",
          "name": "ProxyType",
          "type": "string"
        }
      ],
      "name": "_NewProxy",
      "type": "event"
    },
    {
      "anonymous": false,
      "inputs": [
        {
          "indexed": false,
          "internalType": "uint256",
          "name": "Id",
          "type": "uint256"
        },
        {
          "indexed": true,
          "internalType": "address",
          "name": "Proposer",
          "type": "address"
        },
        {
          "indexed": false,
          "internalType": "uint256",
          "name": "VotesFor",
          "type": "uint256"
        },
        {
          "indexed": false,
          "internalType": "uint256",
          "name": "VotesAgainst",
          "type": "uint256"
        }
      ],
      "name": "_PropositionApproved",
      "type": "event"
    },
    {
      "anonymous": false,
      "inputs": [
        {
          "indexed": false,
          "internalType": "uint256",
          "name": "Id",
          "type": "uint256"
        },
        {
          "indexed": true,
          "internalType": "address",
          "name": "Proposer",
          "type": "address"
        },
        {
          "indexed": false,
          "internalType": "uint256",
          "name": "VotesFor",
          "type": "uint256"
        },
        {
          "indexed": false,
          "internalType": "uint256",
          "name": "VotesAgainst",
          "type": "uint256"
        }
      ],
      "name": "_PropositionRejected",
      "type": "event"
    },
    {
      "anonymous": false,
      "inputs": [
        {
          "indexed": false,
          "internalType": "uint256",
          "name": "Id",
          "type": "uint256"
        },
        {
          "indexed": true,
          "internalType": "address",
          "name": "Voter",
          "type": "address"
        },
        {
          "indexed": false,
          "internalType": "bool",
          "name": "Vote",
          "type": "bool"
        },
        {
          "indexed": false,
          "internalType": "uint256",
          "name": "AmountTokens",
          "type": "uint256"
        }
      ],
      "name": "_PropositionVote",
      "type": "event"
    },
    {
      "anonymous": false,
      "inputs": [
        {
          "indexed": true,
          "internalType": "uint256",
          "name": "Id",
          "type": "uint256"
        },
        {
          "indexed": false,
          "internalType": "address",
          "name": "From",
          "type": "address"
        },
        {
          "indexed": false,
          "internalType": "address",
          "name": "To",
          "type": "address"
        },
        {
          "indexed": false,
          "internalType": "uint256",
          "name": "Amount",
          "type": "uint256"
        }
      ],
      "name": "_UsedTokensTransfered",
      "type": "event"
    },
    {
      "inputs": [
        {
          "internalType": "address",
          "name": "chairPerson",
          "type": "address"
        },
        {
          "internalType": "address",
          "name": "managerContractAddress",
          "type": "address"
        },
        {
          "internalType": "string",
          "name": "contractName",
          "type": "string"
        },
        {
          "internalType": "string",
          "name": "contractVersion",
          "type": "string"
        }
      ],
      "name": "StdPropositionBaseContract_init",
      "outputs": [],
      "stateMutability": "nonpayable",
      "type": "function"
    },
    {
      "inputs": [],
      "name": "cancelProposition",
      "outputs": [],
      "stateMutability": "nonpayable",
      "type": "function"
    },
    {
      "inputs": [
        {
          "internalType": "address",
          "name": "from",
          "type": "address"
        },
        {
          "internalType": "address",
          "name": "to",
          "type": "address"
        },
        {
          "internalType": "uint256",
          "name": "amount",
          "type": "uint256"
        }
      ],
      "name": "onTokenBalanceChanged",
      "outputs": [],
      "stateMutability": "nonpayable",
      "type": "function"
    },
    {
      "inputs": [],
      "name": "retrieveChairPerson",
      "outputs": [
        {
          "internalType": "address",
          "name": "",
          "type": "address"
        }
      ],
      "stateMutability": "view",
      "type": "function",
      "constant": true
    },
    {
      "inputs": [],
      "name": "retrieveContractConfig",
      "outputs": [
        {
          "internalType": "string",
          "name": "",
          "type": "string"
        },
        {
          "internalType": "string",
          "name": "",
          "type": "string"
        }
      ],
      "stateMutability": "view",
      "type": "function",
      "constant": true
    },
    {
      "inputs": [],
      "name": "retrieveManagerContract",
      "outputs": [
        {
          "internalType": "address",
          "name": "",
          "type": "address"
        }
      ],
      "stateMutability": "view",
      "type": "function",
      "constant": true
    },
    {
      "inputs": [],
      "name": "retrieveNextPropId",
      "outputs": [
        {
          "internalType": "uint256",
          "name": "",
          "type": "uint256"
        }
      ],
      "stateMutability": "view",
      "type": "function",
      "constant": true
    },
    {
      "inputs": [
        {
          "internalType": "address",
          "name": "addr",
          "type": "address"
        },
        {
          "internalType": "uint256",
          "name": "nonce",
          "type": "uint256"
        }
      ],
      "name": "retrieveNonce",
      "outputs": [
        {
          "internalType": "bool",
          "name": "",
          "type": "bool"
        }
      ],
      "stateMutability": "view",
      "type": "function",
      "constant": true
    },
    {
      "inputs": [],
      "name": "retrieveProposition",
      "outputs": [
        {
          "internalType": "bytes[]",
          "name": "",
          "type": "bytes[]"
        }
      ],
      "stateMutability": "view",
      "type": "function",
      "constant": true
    },
    {
      "inputs": [],
      "name": "retrievePropositionStatus",
      "outputs": [
        {
          "internalType": "address",
          "name": "",
          "type": "address"
        },
        {
          "internalType": "uint256",
          "name": "",
          "type": "uint256"
        },
        {
          "internalType": "uint256",
          "name": "",
          "type": "uint256"
        },
        {
          "internalType": "uint256",
          "name": "",
          "type": "uint256"
        },
        {
          "internalType": "uint256",
          "name": "",
          "type": "uint256"
        }
      ],
      "stateMutability": "view",
      "type": "function",
      "constant": true
    },
    {
      "inputs": [
        {
          "internalType": "uint256",
          "name": "PropId",
          "type": "uint256"
        },
        {
          "internalType": "address",
          "name": "voter",
          "type": "address"
        }
      ],
      "name": "retrieveVotesForVoter",
      "outputs": [
        {
          "internalType": "uint256",
          "name": "",
          "type": "uint256"
        }
      ],
      "stateMutability": "view",
      "type": "function",
      "constant": true
    },
    {
      "inputs": [
        {
          "internalType": "bytes[]",
          "name": "NewValues",
          "type": "bytes[]"
        }
      ],
      "name": "sendProposition",
      "outputs": [],
      "stateMutability": "nonpayable",
      "type": "function"
    },
    {
      "inputs": [
        {
          "internalType": "bool",
          "name": "vote",
          "type": "bool"
        }
      ],
      "name": "voteProposition",
      "outputs": [],
      "stateMutability": "nonpayable",
      "type": "function"
    },
    {
      "inputs": [
        {
          "internalType": "address",
          "name": "voter",
          "type": "address"
        },
        {
          "internalType": "uint256",
          "name": "propID",
          "type": "uint256"
        },
        {
          "internalType": "bool",
          "name": "vote",
          "type": "bool"
        },
        {
          "internalType": "uint256",
          "name": "nonce",
          "type": "uint256"
        },
        {
          "internalType": "uint256",
          "name": "deadline",
          "type": "uint256"
        },
        {
          "internalType": "bytes",
          "name": "signature",
          "type": "bytes"
        }
      ],
      "name": "votePropositionOnBehalfOf",
      "outputs": [],
      "stateMutability": "nonpayable",
      "type": "function"
    },
    {
      "inputs": [
        {
          "internalType": "address",
          "name": "chairPerson",
          "type": "address"
        },
        {
          "internalType": "string",
          "name": "contractName",
          "type": "string"
        },
        {
          "internalType": "string",
          "name": "contractVersion",
          "type": "string"
        }
      ],
      "name": "CertificatesPoolManager_init",
      "outputs": [],
      "stateMutability": "nonpayable",
      "type": "function"
    },
    {
      "inputs": [
        {
          "components": [
            {
              "internalType": "address[]",
              "name": "TransparentAddresses",
              "type": "address[]"
            },
            {
              "internalType": "address[]",
              "name": "BeaconAddresses",
              "type": "address[]"
            },
            {
              "internalType": "bytes[]",
              "name": "TransparentData",
              "type": "bytes[]"
            },
            {
              "internalType": "string",
              "name": "PrivatePoolContractName",
              "type": "string"
            },
            {
              "internalType": "string",
              "name": "PrivatePoolContractVersion",
              "type": "string"
            }
          ],
          "internalType": "struct Library.ProposedContractsStruct",
          "name": "initialContracts",
          "type": "tuple"
        }
      ],
      "name": "InitializeContracts",
      "outputs": [],
      "stateMutability": "nonpayable",
      "type": "function"
    },
    {
      "inputs": [],
      "name": "retrieveTransparentProxies",
      "outputs": [
        {
          "internalType": "address[]",
          "name": "",
          "type": "address[]"
        }
      ],
      "stateMutability": "view",
      "type": "function",
      "constant": true
    },
    {
      "inputs": [],
      "name": "retrieveBeacons",
      "outputs": [
        {
          "internalType": "address[]",
          "name": "",
          "type": "address[]"
        }
      ],
      "stateMutability": "view",
      "type": "function",
      "constant": true
    },
    {
      "inputs": [],
      "name": "retrieveTransparentProxiesImpl",
      "outputs": [
        {
          "internalType": "address[]",
          "name": "",
          "type": "address[]"
        }
      ],
      "stateMutability": "view",
      "type": "function",
      "constant": true
    },
    {
      "inputs": [],
      "name": "retrieveBeaconsImpl",
      "outputs": [
        {
          "internalType": "address[]",
          "name": "",
          "type": "address[]"
        }
      ],
      "stateMutability": "view",
      "type": "function",
      "constant": true
    },
    {
      "inputs": [],
      "name": "isInitialized",
      "outputs": [
        {
          "internalType": "bool",
          "name": "",
          "type": "bool"
        }
      ],
      "stateMutability": "view",
      "type": "function",
      "constant": true
    }
  ],
  "bytecode": "0x608060405234801561001057600080fd5b50615b7b806100206000396000f3fe60806040523480156200001157600080fd5b50600436106200011e5760003560e01c806304cc67a914620001235780630f13bbc9146200013a578063392e53cd14620001535780633c7df55d146200016b5780633feca4ca14620001825780634044adb214620001be57806355457ee914620001f75780635b362e8414620002015780637faa3d6f1462000223578063840f6d17146200023a57806391f91671146200027c5780639f7771041462000293578063a81a635614620002ac578063a93316f514620002c3578063d2116a0214620002dc578063db85bc4d14620002f6578063deb466661462000308578063e15aa3a6146200031f578063e220ad951462000336578063efd621de1462000340578063fe9dc8dc146200034a575b600080fd5b600b545b6040519081526020015b60405180910390f35b620001516200014b36600462003411565b62000354565b005b60115460ff165b604051901515815260200162000131565b620001516200017c366004620034a4565b620003e1565b6200015a6200019336600462003568565b6001600160a01b03919091166000908152600260209081526040808320938352929052205460ff1690565b62000127620001cf366004620038bb565b6000918252600c602090815260408084206001600160a01b0393909316845291905290205490565b620001516200050c565b6003546201000090046001600160a01b03165b60405162000131919062003a28565b620001516200023436600462003597565b620005e6565b600654600754600854600954600a54604080516001600160a01b0390961686526020860194909452928401919091526060830152608082015260a00162000131565b620001516200028d36600462003824565b6200060a565b6200029d62000619565b60405162000131919062003b2f565b62000151620002bd366004620034ea565b620006f3565b620002cd620007c1565b60405162000131919062003b7e565b620002e6620008a4565b6040516200013192919062003c3d565b6004546001600160a01b031662000214565b620001516200031936600462003864565b620009db565b620001516200033036600462003761565b62000aaf565b6200029d62000b2b565b6200029d62000bfe565b6200029d62000cd1565b600354610100900460ff16806200036e575060035460ff16155b620003965760405162461bcd60e51b81526004016200038d9062003c66565b60405180910390fd5b600354610100900460ff16158015620003b9576003805461ffff19166101011790555b620003c78585858562000da5565b8015620003da576003805461ff00191690555b5050505050565b3373__Library_______________________________6337ea306382600360029054906101000a90046001600160a01b03166001600160a01b031663e220ad956040518163ffffffff1660e01b815260040160006040518083038186803b1580156200044c57600080fd5b505afa15801562000461573d6000803e3d6000fd5b505050506040513d6000823e601f3d908101601f191682016040526200048b91908101906200361c565b600281518110620004a057620004a062003ea4565b60200260200101516040518363ffffffff1660e01b8152600401620004c792919062003a3c565b60006040518083038186803b158015620004e057600080fd5b505af4158015620004f5573d6000803e3d6000fd5b505050506200050684848462000e38565b50505050565b6001620005198162000e5f565b6006546040516337ea306360e01b8152339173__Library_______________________________916337ea306391620005619185916001600160a01b03169060040162003a3c565b60006040518083038186803b1580156200057a57600080fd5b505af41580156200058f573d6000803e3d6000fd5b505050506200059d62000eec565b6006546005546040519081526001600160a01b03909116907f1fe8aec10c0a50fa765076161e08c1f961ced69594ff45cf7d559f593afe14799060200160405180910390a25050565b620005f686868686868662000f17565b62000602868562001085565b505050505050565b62000616338262001085565b50565b6010546060906000906001600160401b038111156200063c576200063c62003eba565b60405190808252806020026020018201604052801562000666578160200160208202803683370190505b50905060005b8151811015620006ed57620006ab6010828154811062000690576200069062003ea4565b6000918252602090912001546001600160a01b0316620011ae565b828281518110620006c057620006c062003ea4565b6001600160a01b039092166020928302919091019091015280620006e48162003e70565b9150506200066c565b50919050565b600354610100900460ff16806200070d575060035460ff16155b6200072c5760405162461bcd60e51b81526004016200038d9062003c66565b600354610100900460ff161580156200074f576003805461ffff19166101011790555b6200075d8430858562000354565b6040516200076b90620031f4565b604051809103906000f08015801562000788573d6000803e3d6000fd5b50600e80546001600160a01b0319166001600160a01b0392909216919091179055801562000506576003805461ff001916905550505050565b6060600d805480602002602001604051908101604052809291908181526020016000905b828210156200089b578382906000526020600020018054620008079062003e39565b80601f0160208091040260200160405190810160405280929190818152602001828054620008359062003e39565b8015620008865780601f106200085a5761010080835404028352916020019162000886565b820191906000526020600020905b8154815290600101906020018083116200086857829003601f168201915b505050505081526020019060010190620007e5565b50505050905090565b60608060006001818054620008b99062003e39565b80601f0160208091040260200160405190810160405280929190818152602001828054620008e79062003e39565b8015620009385780601f106200090c5761010080835404028352916020019162000938565b820191906000526020600020905b8154815290600101906020018083116200091a57829003601f168201915b505050505091508080546200094d9062003e39565b80601f01602080910402602001604051908101604052809291908181526020018280546200097b9062003e39565b8015620009cc5780601f10620009a057610100808354040283529160200191620009cc565b820191906000526020600020905b815481529060010190602001808311620009ae57829003601f168201915b50505050509050915091509091565b600480546040516337ea306360e01b8152339273__Library_______________________________926337ea30639262000a229286926001600160a01b0316910162003a3c565b60006040518083038186803b15801562000a3b57600080fd5b505af415801562000a50573d6000803e3d6000fd5b505060115460ff1615915062000a9390505760405162461bcd60e51b8152602060048201526005602482015264454332362d60d81b60448201526064016200038d565b62000a9e826200122b565b50506011805460ff19166001179055565b62000ab96200149c565b60005b815181101562000b2757600d82828151811062000add5762000add62003ea4565b6020908102919091018101518254600181018455600093845292829020815162000b11949190910192919091019062003202565b508062000b1e8162003e70565b91505062000abc565b5050565b600f546060906000906001600160401b0381111562000b4e5762000b4e62003eba565b60405190808252806020026020018201604052801562000b78578160200160208202803683370190505b50905060005b8151811015620006ed57600f818154811062000b9e5762000b9e62003ea4565b9060005260206000200160009054906101000a90046001600160a01b031682828151811062000bd15762000bd162003ea4565b6001600160a01b03909216602092830291909101909101528062000bf58162003e70565b91505062000b7e565b6010546060906000906001600160401b0381111562000c215762000c2162003eba565b60405190808252806020026020018201604052801562000c4b578160200160208202803683370190505b50905060005b8151811015620006ed576010818154811062000c715762000c7162003ea4565b9060005260206000200160009054906101000a90046001600160a01b031682828151811062000ca45762000ca462003ea4565b6001600160a01b03909216602092830291909101909101528062000cc88162003e70565b91505062000c51565b600f546060906000906001600160401b0381111562000cf45762000cf462003eba565b60405190808252806020026020018201604052801562000d1e578160200160208202803683370190505b50905060005b8151811015620006ed5762000d63600f828154811062000d485762000d4862003ea4565b6000918252602090912001546001600160a01b03166200185d565b82828151811062000d785762000d7862003ea4565b6001600160a01b03909216602092830291909101909101528062000d9c8162003e70565b91505062000d24565b600354610100900460ff168062000dbf575060035460ff16155b62000dde5760405162461bcd60e51b81526004016200038d9062003c66565b600354610100900460ff1615801562000e01576003805461ffff19166101011790555b62000e0c84620018a9565b600480546001600160a01b0319166001600160a01b0387161790556000600b55620003c783836200193d565b62000e4262001968565b15156001141562000e5a5762000e5a838383620019a8565b505050565b801562000eab5762000e7062001968565b1515600114620006165760405162461bcd60e51b8152602060048201526005602482015264454332352d60d81b60448201526064016200038d565b62000eb562001968565b15620006165760405162461bcd60e51b8152602060048201526005602482015264454332342d60d81b60448201526064016200038d565b60006005819055600680546001600160a01b0319169055600781905560088190556009819055600a55565b8162000f238162001b20565b868462000f31828262001b59565b600554881462000f6c5760405162461bcd60e51b8152602060048201526005602482015264454333352d60d81b60448201526064016200038d565b60405163432f9a5560e01b815273__SignatureLibrary______________________9063432f9a559062000fb5908c908c908c908c908c908c9060009060019060040162003a8d565b60206040518083038186803b15801562000fce57600080fd5b505af415801562000fe3573d6000803e3d6000fd5b505050506040513d601f19601f8201168201806040525081019062001009919062003844565b1515600114620010445760405162461bcd60e51b8152602060048201526005602482015264454333322d60d81b60448201526064016200038d565b6200107a89876001600160a01b03909116600090815260026020908152604080832093835292905220805460ff19166001179055565b505050505050505050565b6001620010928162000e5f565b60055483906000620010a5838362001bb7565b905060008111620010e15760405162461bcd60e51b8152602060048201526005602482015264454332332d60d81b60448201526064016200038d565b6000620010f48760056000015462001bb7565b905085156200112057806005600401600082825462001114919062003dbf565b909155506200113c9050565b8060058001600082825462001136919062003dbf565b90915550505b6005546200114c90888362001bf8565b60055460408051918252871515602083015281018290526001600160a01b038816907f50f654d58981575c05e369cb129aeacb01e1b036af429380242cfc5d1a4b743f9060600160405180910390a2620011a562001c36565b50505050505050565b6000816001600160a01b0316635c60da1b6040518163ffffffff1660e01b815260040160206040518083038186803b158015620011ea57600080fd5b505afa158015620011ff573d6000803e3d6000fd5b505050506040513d601f19601f82011682018060405250810190620012259190620033f1565b92915050565b60005b6200123a828062003cca565b90508110156200130457620012ef62001254838062003cca565b8381811062001267576200126762003ea4565b90506020020160208101906200127e9190620033d1565b6200128d604085018562003cca565b84818110620012a057620012a062003ea4565b9050602002810190620012b4919062003d1d565b8080601f01602080910402602001604051908101604052809392919081815260200183838082843760009201919091525062001d1a92505050565b80620012fb8162003e70565b9150506200122e565b5060005b62001317602083018362003cca565b905081101562001379576200136462001334602084018462003cca565b8381811062001347576200134762003ea4565b90506020020160208101906200135e9190620033d1565b62001e00565b80620013708162003e70565b91505062001308565b50600f60038154811062001391576200139162003ea4565b6000918252602090912001546001600160a01b031663ce50ac76620013ba606084018462003d1d565b6040518363ffffffff1660e01b8152600401620013d992919062003c0e565b600060405180830381600087803b158015620013f457600080fd5b505af115801562001409573d6000803e3d6000fd5b50505050600f60038154811062001424576200142462003ea4565b6000918252602090912001546001600160a01b0316631dd5862c6200144d608084018462003d1d565b6040518363ffffffff1660e01b81526004016200146c92919062003c0e565b600060405180830381600087803b1580156200148757600080fd5b505af1158015620003da573d6000803e3d6000fd5b6000620014a98162000e5f565b60045433906000906001600160a01b0316821415620014cb5750600162001636565b6000620014d88362001ecb565b90506000600360029054906101000a90046001600160a01b03166001600160a01b031663e220ad956040518163ffffffff1660e01b815260040160006040518083038186803b1580156200152b57600080fd5b505afa15801562001540573d6000803e3d6000fd5b505050506040513d6000823e601f3d908101601f191682016040526200156a91908101906200361c565b6006815181106200157f576200157f62003ea4565b60200260200101516001600160a01b031663b049473f6040518163ffffffff1660e01b815260040160606040518083038186803b158015620015c057600080fd5b505afa158015620015d5573d6000803e3d6000fd5b505050506040513d601f19601f82011682018060405250810190620015fb9190620038ee565b9250505060646200160b62001ff9565b6200161a9060ff841662003dfd565b62001626919062003dda565b8211156200163357600192505b50505b600181151514620016725760405162461bcd60e51b8152602060048201526005602482015264454332322d60d81b60448201526064016200038d565b600080600360029054906101000a90046001600160a01b03166001600160a01b031663e220ad956040518163ffffffff1660e01b815260040160006040518083038186803b158015620016c457600080fd5b505afa158015620016d9573d6000803e3d6000fd5b505050506040513d6000823e601f3d908101601f191682016040526200170391908101906200361c565b60068151811062001718576200171862003ea4565b60200260200101516001600160a01b031663b049473f6040518163ffffffff1660e01b815260040160606040518083038186803b1580156200175957600080fd5b505afa1580156200176e573d6000803e3d6000fd5b505050506040513d601f19601f82011682018060405250810190620017949190620038ee565b50600680546001600160a01b031916331790559092509050620017b8824262003dbf565b600755606460ff8216620017cb62001ff9565b620017d7919062003dfd565b620017e3919062003dda565b600855600b80546005819055906000620017fd8362003e70565b90915550506006546005546007546008546040516001600160a01b03909416937f472501d19bf75639b2e316cd36f8568b0c3ab943b82a87de3c086c98c1929df9936200184e939092909162003cb4565b60405180910390a25050505050565b600e546040516310270e3d60e11b81526000916001600160a01b03169063204e1c7a906200189090859060040162003a28565b60206040518083038186803b158015620011ea57600080fd5b600354610100900460ff1680620018c3575060035460ff16155b620018e25760405162461bcd60e51b81526004016200038d9062003c66565b600354610100900460ff1615801562001905576003805461ffff19166101011790555b6003805462010000600160b01b031916620100006001600160a01b03851602179055801562000b27576003805461ff00191690555050565b81516200195290600090602085019062003202565b50805162000e5a90600190602084019062003202565b6007546000904210156200197c5750600190565b6006546001600160a01b031615620019a257620019986200211f565b620019a262000eec565b50600090565b6001600160a01b03831615801590620019e557506005546000908152600c602090815260408083206001600160a01b038716845290915290205415155b1562000e5a576005546000908152600c602090815260408083206001600160a01b0387168452909152902054819081111562001a4357506005546000908152600c602090815260408083206001600160a01b03871684529091529020545b6005546000908152600c602090815260408083206001600160a01b03881684529091528120805483929062001a7a90849062003e1f565b90915550506001600160a01b0383161562001acc576005546000908152600c602090815260408083206001600160a01b03871684529091528120805483929062001ac690849062003dbf565b90915550505b600554604080516001600160a01b038088168252861660208201529081018390527f65fbd5e5dd32bea4aeca85bd0be0abf0e489d655dee888a7510d43b06dda2dba9060600160405180910390a250505050565b804210620006165760405162461bcd60e51b8152602060048201526005602482015264454333332d60d81b60448201526064016200038d565b6001600160a01b038216600090815260026020908152604080832084845290915290205460ff161562000b275760405162461bcd60e51b8152602060048201526005602482015264454333342d60d81b60448201526064016200038d565b6000818152600c602090815260408083206001600160a01b038616845290915281205462001be58462001ecb565b62001bf1919062003e1f565b9392505050565b6000838152600c602090815260408083206001600160a01b03861684529091528120805483929062001c2c90849062003dbf565b9091555050505050565b6008546009541062001cac5762001c4c62002129565b62001c5662000eec565b600654600554600954600a546040516001600160a01b03909416937f23ca0034cf5aad32571b4a492e9598ea8a490e1643a60970e3cdc6933b55e49f9362001ca2939092909162003cb4565b60405180910390a2565b600854600a541062001d185762001cc26200211f565b62001ccc62000eec565b600654600554600954600a546040516001600160a01b03909416937fa58eb6daa3c62c3f883973c4035e5bd3e81aa627c8379de068a7de42df122be29362001ca2939092909162003cb4565b565b6001600160a01b0382161562000b2757600e54604051600f9184916001600160a01b0390911690849062001d4e9062003291565b62001d5c9392919062003a56565b604051809103906000f08015801562001d79573d6000803e3d6000fd5b50815460018101835560009283526020928390200180546001600160a01b0319166001600160a01b0392909216919091179055600f54604080518082018252600b81526a151c985b9cdc185c995b9d60aa1b938101939093525160008051602062005b268339815191529262001df492869290919062003b06565b60405180910390a15050565b6001600160a01b03811615620006165760108160405162001e21906200329f565b62001e2d919062003a28565b604051809103906000f08015801562001e4a573d6000803e3d6000fd5b50815460018101835560009283526020928390200180546001600160a01b0319166001600160a01b039290921691909117905560105460408051808201825260068152652132b0b1b7b760d11b938101939093525160008051602062005b268339815191529262001ec092859290919062003b06565b60405180910390a150565b6000600360029054906101000a90046001600160a01b03166001600160a01b031663e220ad956040518163ffffffff1660e01b815260040160006040518083038186803b15801562001f1c57600080fd5b505afa15801562001f31573d6000803e3d6000fd5b505050506040513d6000823e601f3d908101601f1916820160405262001f5b91908101906200361c565b60028151811062001f705762001f7062003ea4565b60200260200101516001600160a01b03166370a08231836040518263ffffffff1660e01b815260040162001fa5919062003a28565b60206040518083038186803b15801562001fbe57600080fd5b505afa15801562001fd3573d6000803e3d6000fd5b505050506040513d601f19601f82011682018060405250810190620012259190620038a1565b6000600360029054906101000a90046001600160a01b03166001600160a01b031663e220ad956040518163ffffffff1660e01b815260040160006040518083038186803b1580156200204a57600080fd5b505afa1580156200205f573d6000803e3d6000fd5b505050506040513d6000823e601f3d908101601f191682016040526200208991908101906200361c565b6002815181106200209e576200209e62003ea4565b60200260200101516001600160a01b03166318160ddd6040518163ffffffff1660e01b815260040160206040518083038186803b158015620020df57600080fd5b505afa158015620020f4573d6000803e3d6000fd5b505050506040513d601f19601f820116820180604052508101906200211a9190620038a1565b905090565b62001d1862002133565b6200211f62002141565b62001d18600d6000620032ad565b6000620021516001600262003e1f565b9050600073__UintLibrary___________________________630bd4715e73__Library_______________________________63caa8f589600d600081548110620021a057620021a062003ea4565b906000526020600020016040518263ffffffff1660e01b8152600401620021c8919062003bf9565b60006040518083038186803b158015620021e157600080fd5b505af4158015620021f6573d6000803e3d6000fd5b505050506040513d6000823e601f3d908101601f19168201604052620022209190810190620036cd565b60008151811062002235576200223562003ea4565b60200260200101516040518263ffffffff1660e01b81526004016200225c91815260200190565b60206040518083038186803b1580156200227557600080fd5b505af41580156200228a573d6000803e3d6000fd5b505050506040513d601f19601f82011682018060405250810190620022b09190620038a1565b9050600073__UintLibrary___________________________630bd4715e73__Library_______________________________63caa8f589600d600181548110620022ff57620022ff62003ea4565b906000526020600020016040518263ffffffff1660e01b815260040162002327919062003bf9565b60006040518083038186803b1580156200234057600080fd5b505af415801562002355573d6000803e3d6000fd5b505050506040513d6000823e601f3d908101601f191682016040526200237f9190810190620036cd565b60008151811062002394576200239462003ea4565b60200260200101516040518263ffffffff1660e01b8152600401620023bb91815260200190565b60206040518083038186803b158015620023d457600080fd5b505af4158015620023e9573d6000803e3d6000fd5b505050506040513d601f19601f820116820180604052508101906200240f9190620038a1565b601054600f549192506000918391906200242b90869062003dbf565b62002437919062003dbf565b62002443919062003dbf565b905060005b600f54811015620026255762002610600f82815481106200246d576200246d62003ea4565b6000918252602090912001546001600160a01b031682600d62002491828a62003dbf565b81548110620024a457620024a462003ea4565b906000526020600020018054620024bb9062003e39565b80601f0160208091040260200160405190810160405280929190818152602001828054620024e99062003e39565b80156200253a5780601f106200250e576101008083540402835291602001916200253a565b820191906000526020600020905b8154815290600101906020018083116200251c57829003601f168201915b5050505050600d85878b62002550919062003dbf565b6200255c919062003dbf565b815481106200256f576200256f62003ea4565b906000526020600020018054620025869062003e39565b80601f0160208091040260200160405190810160405280929190818152602001828054620025b49062003e39565b8015620026055780601f10620025d95761010080835404028352916020019162002605565b820191906000526020600020905b815481529060010190602001808311620025e757829003601f168201915b505050505062002d75565b806200261c8162003e70565b91505062002448565b50600f5462002635908562003dbf565b93508215620028a75760005b8381101562002897576200288273__AddressLibrary________________________63f4ce9ae873__Library_______________________________63caa8f589600d62002690878c62003dbf565b81548110620026a357620026a362003ea4565b906000526020600020016040518263ffffffff1660e01b8152600401620026cb919062003bf9565b60006040518083038186803b158015620026e457600080fd5b505af4158015620026f9573d6000803e3d6000fd5b505050506040513d6000823e601f3d908101601f19168201604052620027239190810190620036cd565b60008151811062002738576200273862003ea4565b60200260200101516040518263ffffffff1660e01b81526004016200275f91815260200190565b60206040518083038186803b1580156200277857600080fd5b505af41580156200278d573d6000803e3d6000fd5b505050506040513d601f19601f82011682018060405250810190620027b39190620033f1565b600d83620027c2868a62003dbf565b620027ce919062003dbf565b81548110620027e157620027e162003ea4565b906000526020600020018054620027f89062003e39565b80601f0160208091040260200160405190810160405280929190818152602001828054620028269062003e39565b8015620028775780601f106200284b5761010080835404028352916020019162002877565b820191906000526020600020905b8154815290600101906020018083116200285957829003601f168201915b505050505062001d1a565b806200288e8162003e70565b91505062002641565b50620028a4838562003dbf565b93505b60005b601054811015620029bc57620029a760108281548110620028cf57620028cf62003ea4565b6000918252602090912001546001600160a01b031682600d620028f3828a62003dbf565b8154811062002906576200290662003ea4565b9060005260206000200180546200291d9062003e39565b80601f01602080910402602001604051908101604052809291908181526020018280546200294b9062003e39565b80156200299c5780601f1062002970576101008083540402835291602001916200299c565b820191906000526020600020905b8154815290600101906020018083116200297e57829003601f168201915b505050505062002ff7565b80620029b38162003e70565b915050620028aa565b50601054620029cc908562003dbf565b9350811562002b6f5760005b8281101562002b5f5762002b4a73__AddressLibrary________________________63f4ce9ae873__Library_______________________________63caa8f589600d62002a27878c62003dbf565b8154811062002a3a5762002a3a62003ea4565b906000526020600020016040518263ffffffff1660e01b815260040162002a62919062003bf9565b60006040518083038186803b15801562002a7b57600080fd5b505af415801562002a90573d6000803e3d6000fd5b505050506040513d6000823e601f3d908101601f1916820160405262002aba9190810190620036cd565b60008151811062002acf5762002acf62003ea4565b60200260200101516040518263ffffffff1660e01b815260040162002af691815260200190565b60206040518083038186803b15801562002b0f57600080fd5b505af415801562002b24573d6000803e3d6000fd5b505050506040513d601f19601f820116820180604052508101906200135e9190620033f1565b8062002b568162003e70565b915050620029d8565b5062002b6c828562003dbf565b93505b600f54839062002b80908662003dbf565b62002b8c919062003dbf565b9350600d62002b9d85600162003dbf565b8154811062002bb05762002bb062003ea4565b90600052602060002001805462002bc79062003e39565b15905062002c7f57600f60038154811062002be65762002be662003ea4565b6000918252602090912001546001600160a01b031663ce50ac76600d62002c0f87600162003dbf565b8154811062002c225762002c2262003ea4565b906000526020600020016040518263ffffffff1660e01b815260040162002c4a919062003bf9565b600060405180830381600087803b15801562002c6557600080fd5b505af115801562002c7a573d6000803e3d6000fd5b505050505b600d62002c8e85600262003dbf565b8154811062002ca15762002ca162003ea4565b90600052602060002001805462002cb89062003e39565b1590506200050657600f60038154811062002cd75762002cd762003ea4565b6000918252602090912001546001600160a01b0316631dd5862c600d62002d0087600262003dbf565b8154811062002d135762002d1362003ea4565b906000526020600020016040518263ffffffff1660e01b815260040162002d3b919062003bf9565b600060405180830381600087803b15801562002d5657600080fd5b505af115801562002d6b573d6000803e3d6000fd5b5050505050505050565b600073__AddressLibrary________________________63f4ce9ae873__Library_______________________________63caa8f589866040518263ffffffff1660e01b815260040162002dca919062003be4565b60006040518083038186803b15801562002de357600080fd5b505af415801562002df8573d6000803e3d6000fd5b505050506040513d6000823e601f3d908101601f1916820160405262002e229190810190620036cd565b60008151811062002e375762002e3762003ea4565b60200260200101516040518263ffffffff1660e01b815260040162002e5e91815260200190565b60206040518083038186803b15801562002e7757600080fd5b505af415801562002e8c573d6000803e3d6000fd5b505050506040513d601f19601f8201168201806040525081019062002eb29190620033f1565b90506001600160a01b03811615620003da5781511562002f3c57600e54604051639623609d60e01b81526001600160a01b0390911690639623609d9062002f029088908590879060040162003a56565b600060405180830381600087803b15801562002f1d57600080fd5b505af115801562002f32573d6000803e3d6000fd5b5050505062002fa5565b600e5460405163266a23b160e21b81526001600160a01b03909116906399a88ec49062002f70908890859060040162003a3c565b600060405180830381600087803b15801562002f8b57600080fd5b505af115801562002fa0573d6000803e3d6000fd5b505050505b604080518082018252600b81526a151c985b9cdc185c995b9d60aa1b6020820152905160008051602062005b068339815191529162002fe8918491889162003b06565b60405180910390a15050505050565b600073__AddressLibrary________________________63f4ce9ae873__Library_______________________________63caa8f589856040518263ffffffff1660e01b81526004016200304c919062003be4565b60006040518083038186803b1580156200306557600080fd5b505af41580156200307a573d6000803e3d6000fd5b505050506040513d6000823e601f3d908101601f19168201604052620030a49190810190620036cd565b600081518110620030b957620030b962003ea4565b60200260200101516040518263ffffffff1660e01b8152600401620030e091815260200190565b60206040518083038186803b158015620030f957600080fd5b505af41580156200310e573d6000803e3d6000fd5b505050506040513d601f19601f82011682018060405250810190620031349190620033f1565b90506001600160a01b038116156200050657604051631b2ce7f360e11b81526001600160a01b03851690633659cfe6906200317490849060040162003a28565b600060405180830381600087803b1580156200318f57600080fd5b505af1158015620031a4573d6000803e3d6000fd5b505060408051808201825260068152652132b0b1b7b760d11b6020820152905160008051602062005b068339815191529350620031e692508491879162003b06565b60405180910390a150505050565b6107bd8062003ef683390190565b828054620032109062003e39565b90600052602060002090601f0160209004810192826200323457600085556200327f565b82601f106200324f57805160ff19168380011785556200327f565b828001600101855582156200327f579182015b828111156200327f57825182559160200191906001019062003262565b506200328d929150620032cd565b5090565b610f3080620046b383390190565b61052380620055e383390190565b5080546000825590600052602060002090810190620006169190620032e4565b5b808211156200328d5760008155600101620032ce565b808211156200328d576000620032fb828262003305565b50600101620032e4565b508054620033139062003e39565b6000825580601f1062003324575050565b601f016020900490600052602060002090810190620006169190620032cd565b600082601f8301126200335657600080fd5b81356001600160401b0381111562003372576200337262003eba565b62003387601f8201601f191660200162003d66565b8181528460208386010111156200339d57600080fd5b816020850160208301376000918101602001919091529392505050565b805160ff81168114620033cc57600080fd5b919050565b600060208284031215620033e457600080fd5b813562001bf18162003ed0565b6000602082840312156200340457600080fd5b815162001bf18162003ed0565b600080600080608085870312156200342857600080fd5b8435620034358162003ed0565b93506020850135620034478162003ed0565b925060408501356001600160401b03808211156200346457600080fd5b620034728883890162003344565b935060608701359150808211156200348957600080fd5b50620034988782880162003344565b91505092959194509250565b600080600060608486031215620034ba57600080fd5b8335620034c78162003ed0565b92506020840135620034d98162003ed0565b929592945050506040919091013590565b6000806000606084860312156200350057600080fd5b83356200350d8162003ed0565b925060208401356001600160401b03808211156200352a57600080fd5b620035388783880162003344565b935060408601359150808211156200354f57600080fd5b506200355e8682870162003344565b9150509250925092565b600080604083850312156200357c57600080fd5b8235620035898162003ed0565b946020939093013593505050565b60008060008060008060c08789031215620035b157600080fd5b8635620035be8162003ed0565b9550602087013594506040870135620035d78162003ee6565b9350606087013592506080870135915060a08701356001600160401b038111156200360157600080fd5b6200360f89828a0162003344565b9150509295509295509295565b600060208083850312156200363057600080fd5b82516001600160401b038111156200364757600080fd5b8301601f810185136200365957600080fd5b8051620036706200366a8262003d99565b62003d66565b80828252848201915084840188868560051b87010111156200369157600080fd5b600094505b83851015620036c1578051620036ac8162003ed0565b83526001949094019391850191850162003696565b50979650505050505050565b60006020808385031215620036e157600080fd5b82516001600160401b03811115620036f857600080fd5b8301601f810185136200370a57600080fd5b80516200371b6200366a8262003d99565b80828252848201915084840188868560051b87010111156200373c57600080fd5b600094505b83851015620036c157805183526001949094019391850191850162003741565b600060208083850312156200377557600080fd5b82356001600160401b03808211156200378d57600080fd5b818501915085601f830112620037a257600080fd5b8135620037b36200366a8262003d99565b80828252858201915085850189878560051b8801011115620037d457600080fd5b6000805b858110156200381457823587811115620037f0578283fd5b620038008d8b838c010162003344565b8652509388019391880191600101620037d8565b50919a9950505050505050505050565b6000602082840312156200383757600080fd5b813562001bf18162003ee6565b6000602082840312156200385757600080fd5b815162001bf18162003ee6565b6000602082840312156200387757600080fd5b81356001600160401b038111156200388e57600080fd5b820160a0818503121562001bf157600080fd5b600060208284031215620038b457600080fd5b5051919050565b60008060408385031215620038cf57600080fd5b823591506020830135620038e38162003ed0565b809150509250929050565b6000806000606084860312156200390457600080fd5b835192506200391660208501620033ba565b91506200392660408501620033ba565b90509250925092565b6000815180845260005b81811015620039575760208185018101518683018201520162003939565b818111156200396a576000602083870101525b50601f01601f19169290920160200192915050565b8054600090600181811c90808316806200399a57607f831692505b6020808410821415620039bd57634e487b7160e01b600052602260045260246000fd5b838852818015620039d75760018114620039ec5762003a1c565b60ff1986168983015260408901965062003a1c565b876000528160002060005b8681101562003a145781548b8201850152908501908301620039f7565b8a0183019750505b50505050505092915050565b6001600160a01b0391909116815260200190565b6001600160a01b0392831681529116602082015260400190565b6001600160a01b0384811682528316602082015260606040820181905260009062003a84908301846200392f565b95945050505050565b600061010060018060a01b038b16835289602084015288151560408401528760608401528660808401528060a084015262003acb818401876200392f565b905082810360c084015262003ae181866200397f565b905082810360e084015262003af781856200397f565b9b9a5050505050505050505050565b60018060a01b038416815282602082015260606040820152600062003a8460608301846200392f565b6020808252825182820181905260009190848201906040850190845b8181101562003b725783516001600160a01b03168352928401929184019160010162003b4b565b50909695505050505050565b6000602080830181845280855180835260408601915060408160051b870101925083870160005b8281101562003bd757603f1988860301845262003bc48583516200392f565b9450928501929085019060010162003ba5565b5092979650505050505050565b60208152600062001bf160208301846200392f565b60208152600062001bf160208301846200397f565b60208152816020820152818360408301376000818301604090810191909152601f909201601f19160101919050565b60408152600062003c5260408301856200392f565b828103602084015262003a8481856200392f565b6020808252602e908201527f496e697469616c697a61626c653a20636f6e747261637420697320616c72656160408201526d191e481a5b9a5d1a585b1a5e995960921b606082015260800190565b9283526020830191909152604082015260600190565b6000808335601e1984360301811262003ce257600080fd5b8301803591506001600160401b0382111562003cfd57600080fd5b6020019150600581901b360382131562003d1657600080fd5b9250929050565b6000808335601e1984360301811262003d3557600080fd5b8301803591506001600160401b0382111562003d5057600080fd5b60200191503681900382131562003d1657600080fd5b604051601f8201601f191681016001600160401b038111828210171562003d915762003d9162003eba565b604052919050565b60006001600160401b0382111562003db55762003db562003eba565b5060051b60200190565b6000821982111562003dd55762003dd562003e8e565b500190565b60008262003df857634e487b7160e01b600052601260045260246000fd5b500490565b600081600019048311821515161562003e1a5762003e1a62003e8e565b500290565b60008282101562003e345762003e3462003e8e565b500390565b600181811c9082168062003e4e57607f821691505b60208210811415620006ed57634e487b7160e01b600052602260045260246000fd5b600060001982141562003e875762003e8762003e8e565b5060010190565b634e487b7160e01b600052601160045260246000fd5b634e487b7160e01b600052603260045260246000fd5b634e487b7160e01b600052604160045260246000fd5b6001600160a01b03811681146200061657600080fd5b80151581146200061657600080fdfe608060405234801561001057600080fd5b5061001a3361001f565b61006f565b600080546001600160a01b038381166001600160a01b0319831681178455604051919092169283917f8be0079c531659141344cd1fd0a4f28419497f9722a3daafe3b4186f6b6457e09190a35050565b61073f8061007e6000396000f3fe60806040526004361061006b5760003560e01c8063204e1c7a14610070578063715018a6146100a65780637eff275e146100bd5780638da5cb5b146100dd5780639623609d146100f257806399a88ec414610105578063f2fde38b14610125578063f3b7dead14610145575b600080fd5b34801561007c57600080fd5b5061009061008b3660046104e1565b610165565b60405161009d9190610630565b60405180910390f35b3480156100b257600080fd5b506100bb6101f6565b005b3480156100c957600080fd5b506100bb6100d8366004610522565b61023a565b3480156100e957600080fd5b506100906102cb565b6100bb61010036600461055b565b6102da565b34801561011157600080fd5b506100bb610120366004610522565b610370565b34801561013157600080fd5b506100bb6101403660046104e1565b6103cb565b34801561015157600080fd5b506100906101603660046104e1565b61046b565b6000806000836001600160a01b031660405161018b90635c60da1b60e01b815260040190565b600060405180830381855afa9150503d80600081146101c6576040519150601f19603f3d011682016040523d82523d6000602084013e6101cb565b606091505b5091509150816101da57600080fd5b808060200190518101906101ee9190610505565b949350505050565b336101ff6102cb565b6001600160a01b03161461022e5760405162461bcd60e51b8152600401610225906106a9565b60405180910390fd5b6102386000610491565b565b336102436102cb565b6001600160a01b0316146102695760405162461bcd60e51b8152600401610225906106a9565b6040516308f2839760e41b81526001600160a01b03831690638f28397090610295908490600401610630565b600060405180830381600087803b1580156102af57600080fd5b505af11580156102c3573d6000803e3d6000fd5b505050505050565b6000546001600160a01b031690565b336102e36102cb565b6001600160a01b0316146103095760405162461bcd60e51b8152600401610225906106a9565b60405163278f794360e11b81526001600160a01b03841690634f1ef2869034906103399086908690600401610644565b6000604051808303818588803b15801561035257600080fd5b505af1158015610366573d6000803e3d6000fd5b5050505050505050565b336103796102cb565b6001600160a01b03161461039f5760405162461bcd60e51b8152600401610225906106a9565b604051631b2ce7f360e11b81526001600160a01b03831690633659cfe690610295908490600401610630565b336103d46102cb565b6001600160a01b0316146103fa5760405162461bcd60e51b8152600401610225906106a9565b6001600160a01b03811661045f5760405162461bcd60e51b815260206004820152602660248201527f4f776e61626c653a206e6577206f776e657220697320746865207a65726f206160448201526564647265737360d01b6064820152608401610225565b61046881610491565b50565b6000806000836001600160a01b031660405161018b906303e1469160e61b815260040190565b600080546001600160a01b038381166001600160a01b0319831681178455604051919092169283917f8be0079c531659141344cd1fd0a4f28419497f9722a3daafe3b4186f6b6457e09190a35050565b6000602082840312156104f357600080fd5b81356104fe816106f4565b9392505050565b60006020828403121561051757600080fd5b81516104fe816106f4565b6000806040838503121561053557600080fd5b8235610540816106f4565b91506020830135610550816106f4565b809150509250929050565b60008060006060848603121561057057600080fd5b833561057b816106f4565b9250602084013561058b816106f4565b915060408401356001600160401b03808211156105a757600080fd5b818601915086601f8301126105bb57600080fd5b8135818111156105cd576105cd6106de565b604051601f8201601f19908116603f011681019083821181831017156105f5576105f56106de565b8160405282815289602084870101111561060e57600080fd5b8260208601602083013760006020848301015280955050505050509250925092565b6001600160a01b0391909116815260200190565b60018060a01b038316815260006020604081840152835180604085015260005b8181101561068057858101830151858201606001528201610664565b81811115610692576000606083870101525b50601f01601f191692909201606001949350505050565b6020808252818101527f4f776e61626c653a2063616c6c6572206973206e6f7420746865206f776e6572604082015260600190565b634e487b7160e01b600052604160045260246000fd5b6001600160a01b038116811461046857600080fdfea26469706673582212207240b38990a52bc008f8ef6148c6f36363b8fbb55bee70cee697cb8e4d4c00ce64736f6c63430008070033608060405260405162000f3038038062000f308339810160408190526200002691620004c2565b82816200005560017f360894a13ba1a3210667c828492db98dca3e2076cc3735a920a3ca505d382bbd620005f5565b60008051602062000ee9833981519152146200007557620000756200064a565b6200008382826000620000e7565b50620000b3905060017fb53127684a568b3173ae13b9f8a6016e243e63b6e8ee1178d6a717850b5d6104620005f5565b60008051602062000ec983398151915214620000d357620000d36200064a565b620000de8262000124565b50505062000676565b620000f2836200017f565b600082511180620001005750805b156200011f576200011d8383620001c160201b620002601760201c565b505b505050565b7f7e644d79422f17c01e4894b5f4f588d331ebfa28653d42ae832dc59e38c9798f6200014f620001f0565b604080516001600160a01b03928316815291841660208301520160405180910390a16200017c8162000229565b50565b6200018a81620002de565b6040516001600160a01b038216907fbc7cd75a20ee27fd9adebab32041f755214dbc6bffa90cc0225b39da2e5c2d3b90600090a250565b6060620001e9838360405180606001604052806027815260200162000f096027913962000381565b9392505050565b60006200021a60008051602062000ec983398151915260001b6200045e60201b620002081760201c565b546001600160a01b0316919050565b6001600160a01b038116620002945760405162461bcd60e51b815260206004820152602660248201527f455243313936373a206e65772061646d696e20697320746865207a65726f206160448201526564647265737360d01b60648201526084015b60405180910390fd5b80620002bd60008051602062000ec983398151915260001b6200045e60201b620002081760201c565b80546001600160a01b0319166001600160a01b039290921691909117905550565b620002f4816200046160201b6200028c1760201c565b620003585760405162461bcd60e51b815260206004820152602d60248201527f455243313936373a206e657720696d706c656d656e746174696f6e206973206e60448201526c1bdd08184818dbdb9d1c9858dd609a1b60648201526084016200028b565b80620002bd60008051602062000ee983398151915260001b6200045e60201b620002081760201c565b6060833b620003e25760405162461bcd60e51b815260206004820152602660248201527f416464726573733a2064656c65676174652063616c6c20746f206e6f6e2d636f6044820152651b9d1c9858dd60d21b60648201526084016200028b565b600080856001600160a01b031685604051620003ff9190620005a2565b600060405180830381855af49150503d80600081146200043c576040519150601f19603f3d011682016040523d82523d6000602084013e62000441565b606091505b5090925090506200045482828662000467565b9695505050505050565b90565b3b151590565b6060831562000478575081620001e9565b825115620004895782518084602001fd5b8160405162461bcd60e51b81526004016200028b9190620005c0565b80516001600160a01b0381168114620004bd57600080fd5b919050565b600080600060608486031215620004d857600080fd5b620004e384620004a5565b9250620004f360208501620004a5565b60408501519092506001600160401b03808211156200051157600080fd5b818601915086601f8301126200052657600080fd5b8151818111156200053b576200053b62000660565b604051601f8201601f19908116603f0116810190838211818310171562000566576200056662000660565b816040528281528960208487010111156200058057600080fd5b620005938360208301602088016200061b565b80955050505050509250925092565b60008251620005b68184602087016200061b565b9190910192915050565b6020815260008251806020840152620005e18160408501602087016200061b565b601f01601f19169190910160400192915050565b6000828210156200061657634e487b7160e01b600052601160045260246000fd5b500390565b60005b83811015620006385781810151838201526020016200061e565b838111156200011d5750506000910152565b634e487b7160e01b600052600160045260246000fd5b634e487b7160e01b600052604160045260246000fd5b61084380620006866000396000f3fe60806040526004361061004e5760003560e01c80633659cfe6146100655780634f1ef286146100855780635c60da1b146100985780638f283970146100c9578063f851a440146100e95761005d565b3661005d5761005b6100fe565b005b61005b6100fe565b34801561007157600080fd5b5061005b61008036600461068e565b610118565b61005b6100933660046106a9565b61015f565b3480156100a457600080fd5b506100ad6101d0565b6040516001600160a01b03909116815260200160405180910390f35b3480156100d557600080fd5b5061005b6100e436600461068e565b61020b565b3480156100f557600080fd5b506100ad610235565b610106610292565b610116610111610331565b61033b565b565b61012061035f565b6001600160a01b0316336001600160a01b031614156101575761015481604051806020016040528060008152506000610380565b50565b6101546100fe565b61016761035f565b6001600160a01b0316336001600160a01b031614156101c8576101c38383838080601f01602080910402602001604051908101604052809392919081815260200183838082843760009201919091525060019250610380915050565b505050565b6101c36100fe565b60006101da61035f565b6001600160a01b0316336001600160a01b03161415610200576101fb610331565b905090565b6102086100fe565b90565b61021361035f565b6001600160a01b0316336001600160a01b0316141561015757610154816103ab565b600061023f61035f565b6001600160a01b0316336001600160a01b03161415610200576101fb61035f565b606061028583836040518060600160405280602781526020016107e7602791396103ff565b9392505050565b3b151590565b61029a61035f565b6001600160a01b0316336001600160a01b031614156101165760405162461bcd60e51b815260206004820152604260248201527f5472616e73706172656e745570677261646561626c6550726f78793a2061646d60448201527f696e2063616e6e6f742066616c6c6261636b20746f2070726f78792074617267606482015261195d60f21b608482015260a4015b60405180910390fd5b60006101fb6104d3565b3660008037600080366000845af43d6000803e80801561035a573d6000f35b3d6000fd5b60006000805160206107a78339815191525b546001600160a01b0316919050565b610389836104e9565b6000825111806103965750805b156101c3576103a58383610260565b50505050565b7f7e644d79422f17c01e4894b5f4f588d331ebfa28653d42ae832dc59e38c9798f6103d461035f565b604080516001600160a01b03928316815291841660208301520160405180910390a161015481610529565b6060833b61045e5760405162461bcd60e51b815260206004820152602660248201527f416464726573733a2064656c65676174652063616c6c20746f206e6f6e2d636f6044820152651b9d1c9858dd60d21b6064820152608401610328565b600080856001600160a01b031685604051610479919061072b565b600060405180830381855af49150503d80600081146104b4576040519150601f19603f3d011682016040523d82523d6000602084013e6104b9565b606091505b50915091506104c98282866105c0565b9695505050505050565b60006000805160206107c7833981519152610371565b6104f2816105f9565b6040516001600160a01b038216907fbc7cd75a20ee27fd9adebab32041f755214dbc6bffa90cc0225b39da2e5c2d3b90600090a250565b6001600160a01b03811661058e5760405162461bcd60e51b815260206004820152602660248201527f455243313936373a206e65772061646d696e20697320746865207a65726f206160448201526564647265737360d01b6064820152608401610328565b806000805160206107a78339815191525b80546001600160a01b0319166001600160a01b039290921691909117905550565b606083156105cf575081610285565b8251156105df5782518084602001fd5b8160405162461bcd60e51b81526004016103289190610747565b803b61065d5760405162461bcd60e51b815260206004820152602d60248201527f455243313936373a206e657720696d706c656d656e746174696f6e206973206e60448201526c1bdd08184818dbdb9d1c9858dd609a1b6064820152608401610328565b806000805160206107c783398151915261059f565b80356001600160a01b038116811461068957600080fd5b919050565b6000602082840312156106a057600080fd5b61028582610672565b6000806000604084860312156106be57600080fd5b6106c784610672565b925060208401356001600160401b03808211156106e357600080fd5b818601915086601f8301126106f757600080fd5b81358181111561070657600080fd5b87602082850101111561071857600080fd5b6020830194508093505050509250925092565b6000825161073d81846020870161077a565b9190910192915050565b602081526000825180602084015261076681604085016020870161077a565b601f01601f19169190910160400192915050565b60005b8381101561079557818101518382015260200161077d565b838111156103a5575050600091015256feb53127684a568b3173ae13b9f8a6016e243e63b6e8ee1178d6a717850b5d6103360894a13ba1a3210667c828492db98dca3e2076cc3735a920a3ca505d382bbc416464726573733a206c6f772d6c6576656c2064656c65676174652063616c6c206661696c6564a2646970667358221220bf234746908c6f46655f3e5bb4f0abadaeb249c68beba1c928f2af74deb56e2264736f6c63430008070033b53127684a568b3173ae13b9f8a6016e243e63b6e8ee1178d6a717850b5d6103360894a13ba1a3210667c828492db98dca3e2076cc3735a920a3ca505d382bbc416464726573733a206c6f772d6c6576656c2064656c65676174652063616c6c206661696c6564608060405234801561001057600080fd5b5060405161052338038061052383398101604081905261002f91610148565b61003833610047565b61004181610097565b50610178565b600080546001600160a01b038381166001600160a01b0319831681178455604051919092169283917f8be0079c531659141344cd1fd0a4f28419497f9722a3daafe3b4186f6b6457e09190a35050565b6100aa8161014260201b61021f1760201c565b6101205760405162461bcd60e51b815260206004820152603360248201527f5570677261646561626c65426561636f6e3a20696d706c656d656e746174696f60448201527f6e206973206e6f74206120636f6e747261637400000000000000000000000000606482015260840160405180910390fd5b600180546001600160a01b0319166001600160a01b0392909216919091179055565b3b151590565b60006020828403121561015a57600080fd5b81516001600160a01b038116811461017157600080fd5b9392505050565b61039c806101876000396000f3fe608060405234801561001057600080fd5b50600436106100575760003560e01c80633659cfe61461005c5780635c60da1b14610071578063715018a61461009a5780638da5cb5b146100a2578063f2fde38b146100aa575b600080fd5b61006f61006a366004610301565b6100bd565b005b6001546001600160a01b03165b6040516001600160a01b03909116815260200160405180910390f35b61006f610135565b61007e610170565b61006f6100b8366004610301565b61017f565b336100c6610170565b6001600160a01b0316146100f55760405162461bcd60e51b81526004016100ec90610331565b60405180910390fd5b6100fe81610225565b6040516001600160a01b038216907fbc7cd75a20ee27fd9adebab32041f755214dbc6bffa90cc0225b39da2e5c2d3b90600090a250565b3361013e610170565b6001600160a01b0316146101645760405162461bcd60e51b81526004016100ec90610331565b61016e60006102b1565b565b6000546001600160a01b031690565b33610188610170565b6001600160a01b0316146101ae5760405162461bcd60e51b81526004016100ec90610331565b6001600160a01b0381166102135760405162461bcd60e51b815260206004820152602660248201527f4f776e61626c653a206e6577206f776e657220697320746865207a65726f206160448201526564647265737360d01b60648201526084016100ec565b61021c816102b1565b50565b3b151590565b803b61028f5760405162461bcd60e51b815260206004820152603360248201527f5570677261646561626c65426561636f6e3a20696d706c656d656e746174696f6044820152721b881a5cc81b9bdd08184818dbdb9d1c9858dd606a1b60648201526084016100ec565b600180546001600160a01b0319166001600160a01b0392909216919091179055565b600080546001600160a01b038381166001600160a01b0319831681178455604051919092169283917f8be0079c531659141344cd1fd0a4f28419497f9722a3daafe3b4186f6b6457e09190a35050565b60006020828403121561031357600080fd5b81356001600160a01b038116811461032a57600080fd5b9392505050565b6020808252818101527f4f776e61626c653a2063616c6c6572206973206e6f7420746865206f776e657260408201526060019056fea2646970667358221220b1e86d9e5a9827481ff081a46fc0ff448af58190927b3eac96f691d6bcdce0a964736f6c6343000807003328fbcc6e7781af00516c046711977989e1ca1bf627baa89f112b193653efb1a820baf84965293c5077f4dd07839fa02177fcc842a69a52206581f24fb4e092ffa2646970667358221220b75604e780d40f8bd4eb6f60ff777518aaec72adf547fc03115279796c98a96464736f6c63430008070033",
  "immutableReferences": {},
  "source": "// SPDX-License-Identifier: GPL-3.0\r\n\r\npragma solidity 0.8.7;\r\n\r\n/**\r\n * @title Storage\r\n * @dev Store & retrieve value in a variable\r\n\r\nTransparent Proxies:\r\n    - 0 : Public Pool\r\n    - 1 : Treasury\r\n    - 2 : Certis Token\r\n    - 3 : Private Pool Factory\r\n    - 4 : Provider Factory\r\n    - 5 : Price Converter\r\n    - 6 : Proposition Settings\r\n    - 7 : ENS\r\n\r\nBeacons:\r\n    - 0 : Private Pool\r\n    - 1 : Provider\r\n\r\n NewProposals :\r\n    - Amount of New Transaparent proxies = m\r\n    - Amount of New Beacons = q\r\n    - New Address Transaparent proxy 1\r\n    - ...\r\n    - New Address Transaparent proxy n\r\n    - Address New Transaparent proxy 1\r\n    - ...\r\n    - Address New Transaparent proxy m\r\n    - New Address Beacon proxy 1\r\n    - ...\r\n    - New Address Beacon proxy p\r\n    - Address New Beacon proxy 1\r\n    - ...\r\n    - Address New Beacon proxy q\r\n    - Data Transaparent proxy 1\r\n    - ..\r\n    - Data Transaparent proxy n\r\n    - Data New Transaparent proxy 1\r\n    - ..\r\n    - Data New Transaparent proxy m\r\n */\r\n\r\nimport \"../Interfaces/IManager.sol\";\r\nimport \"../Interfaces/IFactory.sol\";\r\nimport \"../Base/StdPropositionBaseContract.sol\";\r\nimport \"../Libraries/AddressLibrary.sol\";\r\nimport \"../Libraries/Library.sol\";\r\nimport \"../Libraries/UintLibrary.sol\";\r\nimport \"@openzeppelin/contracts-upgradeable/proxy/utils/Initializable.sol\";\r\nimport \"@openzeppelin/contracts/proxy/beacon/UpgradeableBeacon.sol\";\r\nimport \"@openzeppelin/contracts/proxy/transparent/TransparentUpgradeableProxy.sol\";\r\nimport \"@openzeppelin/contracts/proxy/transparent/ProxyAdmin.sol\";\r\n\r\n\r\ncontract CertificatesPoolManager is IManager, StdPropositionBaseContract{\r\n    using AddressLibrary for *;\r\n    using Library for *;\r\n    using UintLibrary for *;\r\n\r\n    // EVENTS /////////////////////////////////////////\r\n    event _NewProxy(address NewContractAddress, uint ProxyId, string ProxyType);\r\n    event _ContractUpgrade(address NewContractAddress, uint ProxyId, string ProxyType);\r\n\r\n    // DATA /////////////////////////////////////////\r\n    // Admin Proxy to manage all the TransparentUpgradeableProxies\r\n    ProxyAdmin private _Admin;\r\n\r\n    // Transparent Proxies\r\n    TransparentUpgradeableProxy[] private _TransparentProxies;\r\n\r\n    // Beacons\r\n    UpgradeableBeacon[] private _Beacons;\r\n\r\n    // Proxy Types\r\n    string constant _TransparentType = \"Transparent\";\r\n    string constant _BeaconType = \"Beacon\";\r\n    uint constant _NewPropositionsRedimesionFields = 2; // The first \"NewPropositionsRedimesionFields\" elements of every new proposition indicate the number of new transaprent/beacon/... proxies to add to the system\r\n\r\n    // init\r\n    bool private _init;\r\n\r\n    // MODIFIERS /////////////////////////////////////////\r\n    modifier isNotInitialized(){\r\n        require(false == _init, \"EC26-\");\r\n        _;\r\n    }\r\n\r\n    // INITIALIZATION /////////////////////////////////////////\r\n    function CertificatesPoolManager_init(address chairPerson, string memory contractName, string memory contractVersion) public initializer\r\n    {\r\n        super.StdPropositionBaseContract_init(chairPerson, address(this), contractName, contractVersion);\r\n        _Admin = new ProxyAdmin();\r\n    }\r\n\r\n    function InitializeContracts(Library.ProposedContractsStruct calldata initialContracts) \r\n        isFromChairPerson(msg.sender)\r\n        isNotInitialized()\r\n    external override\r\n    {\r\n        initProxies(initialContracts);\r\n        _init = true;\r\n    }\r\n\r\n    // FUNCTIONALITY /////////////////////////////////////////\r\n    // governance : contracts assignment and management\r\n    function initProxies(Library.ProposedContractsStruct calldata initialContracts) private\r\n    {\r\n        for(uint i=0; i < initialContracts.TransparentAddresses.length; i++){\r\n            addTransaprentProxy(initialContracts.TransparentAddresses[i], initialContracts.TransparentData[i]);\r\n        }\r\n        for(uint i=0; i < initialContracts.BeaconAddresses.length; i++){\r\n            addBeacon(initialContracts.BeaconAddresses[i]);\r\n        }\r\n        IFactory(address(_TransparentProxies[3])).updateContractName(initialContracts.PrivatePoolContractName);\r\n        IFactory(address(_TransparentProxies[3])).updateContractVersion(initialContracts.PrivatePoolContractVersion);\r\n    }\r\n\r\n    function UpdateAll() internal override\r\n    {\r\n\r\n        uint256 pointer = _NewPropositionsRedimesionFields - 1;\r\n        uint256 NewTransparentProxies = UintLibrary.Bytes32ToUint(Library.BytestoBytes32(_ProposedNewValues[0])[0]); // m\r\n        uint256 NewBeaconProxies = UintLibrary.Bytes32ToUint(Library.BytestoBytes32(_ProposedNewValues[1])[0]); // q\r\n        uint256 TransaprentProxyDataSkip = _TransparentProxies.length + NewTransparentProxies + _Beacons.length + NewBeaconProxies;\r\n\r\n        // Transaprent Proxies\r\n        for(uint i=0; i < _TransparentProxies.length; i++){\r\n            upgradeTransparentProxy(_TransparentProxies[i], \r\n                i, \r\n                _ProposedNewValues[pointer + i], \r\n                _ProposedNewValues[pointer + TransaprentProxyDataSkip + i]);\r\n        }\r\n\r\n        pointer = pointer + _TransparentProxies.length;\r\n\r\n        if(NewTransparentProxies > 0){\r\n            for(uint i=0; i < NewTransparentProxies; i++){\r\n                addTransaprentProxy(\r\n                AddressLibrary.Bytes32ToAddress(Library.BytestoBytes32(_ProposedNewValues[pointer + i])[0]), \r\n                _ProposedNewValues[pointer + TransaprentProxyDataSkip + i]);\r\n            }\r\n\r\n            pointer = pointer + NewTransparentProxies;\r\n        }\r\n        \r\n        // Beacons\r\n        for(uint i=0; i < _Beacons.length; i++){\r\n            upgradeBeacon(_Beacons[i], \r\n                i, \r\n                _ProposedNewValues[pointer + i]);\r\n        }\r\n\r\n        pointer = pointer + _Beacons.length;\r\n\r\n        if(NewBeaconProxies > 0){\r\n            for(uint i=0; i < NewBeaconProxies; i++){\r\n                addBeacon(AddressLibrary.Bytes32ToAddress(Library.BytestoBytes32(_ProposedNewValues[pointer + i])[0]));\r\n            }\r\n\r\n            pointer = pointer + NewBeaconProxies;\r\n        }\r\n\r\n        pointer = pointer + _TransparentProxies.length + NewTransparentProxies;\r\n        \r\n\r\n        if(0 < _ProposedNewValues[pointer + 1].length)\r\n            IFactory(address(_TransparentProxies[3])).updateContractName(string(_ProposedNewValues[pointer + 1]));\r\n\r\n        if(0 < _ProposedNewValues[pointer + 2].length)\r\n            IFactory(address(_TransparentProxies[3])).updateContractVersion(string(_ProposedNewValues[pointer + 2]));\r\n\r\n    }\r\n\r\n    function addTransaprentProxy(address implAddress, bytes memory data) private\r\n    {\r\n        if(address(0) != implAddress){\r\n            _TransparentProxies.push(new TransparentUpgradeableProxy(implAddress, address(_Admin), data));\r\n            emit _NewProxy(implAddress, _TransparentProxies.length, _TransparentType);\r\n        }\r\n    }\r\n\r\n    function addBeacon(address implAddress) private\r\n    {\r\n        if(address(0) != implAddress){\r\n            _Beacons.push(new UpgradeableBeacon(implAddress));\r\n            emit _NewProxy(implAddress, _Beacons.length, _BeaconType);\r\n        }\r\n    }\r\n\r\n    function upgradeTransparentProxy(TransparentUpgradeableProxy proxy, uint ProxyId, bytes memory NewImpl, bytes memory Data) private\r\n    {\r\n        address NewImplAddress = AddressLibrary.Bytes32ToAddress(Library.BytestoBytes32(NewImpl)[0]);\r\n        if(address(0) != NewImplAddress){\r\n            if(0 < Data.length)_Admin.upgradeAndCall(proxy, NewImplAddress, Data);\r\n            else _Admin.upgrade(proxy, NewImplAddress);\r\n            emit _ContractUpgrade(NewImplAddress, ProxyId, _TransparentType);\r\n        }\r\n    }\r\n\r\n    function upgradeBeacon(UpgradeableBeacon beacon, uint BeaconId, bytes memory NewImpl) private\r\n    {\r\n        address NewImplAddress = AddressLibrary.Bytes32ToAddress(Library.BytestoBytes32(NewImpl)[0]);\r\n        if(address(0) != NewImplAddress){\r\n            beacon.upgradeTo(NewImplAddress);\r\n            emit _ContractUpgrade(NewImplAddress, BeaconId, _BeaconType);\r\n        }\r\n\r\n    }\r\n\r\n    // configuration Proxies\r\n    function retrieveTransparentProxies() external override view returns (address[] memory) \r\n    {\r\n        address[] memory proxies = new address[](_TransparentProxies.length);\r\n        for(uint i=0; i < proxies.length; i++){\r\n            proxies[i] = address(_TransparentProxies[i]);\r\n        }\r\n        return proxies;\r\n    }\r\n\r\n    function retrieveBeacons() external override view returns (address[] memory) \r\n    {\r\n        address[] memory proxies = new address[](_Beacons.length);\r\n        for(uint i=0; i < proxies.length; i++){\r\n            proxies[i] = address(_Beacons[i]);\r\n        }\r\n        return proxies;\r\n    }\r\n\r\n    // configuration implementations\r\n    function retrieveTransparentProxiesImpl() external override view returns (address[] memory) \r\n    {\r\n        address[] memory implementations = new address[](_TransparentProxies.length);\r\n        for(uint i=0; i < implementations.length; i++){\r\n            implementations[i] = internalRetrieveTransparentProxyImpl(_TransparentProxies[i]);\r\n        }\r\n        return implementations;\r\n    }\r\n\r\n    function retrieveBeaconsImpl() external override view returns (address[] memory) \r\n    {\r\n        address[] memory implementations = new address[](_Beacons.length);\r\n        for(uint i=0; i < implementations.length; i++){\r\n            implementations[i] = internalRetrieveBeaconImpl(_Beacons[i]);\r\n        }\r\n        return implementations;\r\n    }\r\n\r\n    function isInitialized() external override view returns(bool){\r\n        return _init;\r\n    }\r\n\r\n    // internal\r\n    function internalRetrieveTransparentProxyImpl(TransparentUpgradeableProxy proxy) internal view returns (address){\r\n        return _Admin.getProxyImplementation(proxy);\r\n    }\r\n\r\n    function internalRetrieveBeaconImpl(UpgradeableBeacon beacon) internal view returns (address){\r\n        return beacon.implementation();\r\n    }\r\n  \r\n}",
  "sourcePath": "C:/Users/d-aam/GitHub/Certificates/contracts/DeployedContracts/CertificatesPoolManager.sol",
  "compiler": {
    "name": "solc",
    "version": "0.8.7+commit.e28d00a7.Emscripten.clang"
  },
  "schemaVersion": "3.3.4",
  "updatedAt": "2021-11-04T14:36:52.496Z",
  "networkType": "ethereum",
  "devdoc": {
    "kind": "dev",
    "methods": {},
    "version": 1
  },
  "userdoc": {
    "kind": "user",
    "methods": {},
    "version": 1
  }
}