{
  "contractName": "CertificatesPoolManager",
  "abi": [
    {
      "inputs": [
        {
          "internalType": "uint256",
          "name": "PropositionLifeTime",
          "type": "uint256"
        },
        {
          "internalType": "uint8",
          "name": "PropositionThresholdPercentage",
          "type": "uint8"
        },
        {
          "internalType": "uint8",
          "name": "minWeightToProposePercentage",
          "type": "uint8"
        },
        {
          "internalType": "string",
          "name": "contractName",
          "type": "string"
        },
        {
          "internalType": "string",
          "name": "contractVersion",
          "type": "string"
        }
      ],
      "stateMutability": "nonpayable",
      "type": "constructor"
    },
    {
      "anonymous": false,
      "inputs": [
        {
          "indexed": false,
          "internalType": "uint256",
          "name": "Id",
          "type": "uint256"
        },
        {
          "indexed": true,
          "internalType": "address",
          "name": "Proposer",
          "type": "address"
        },
        {
          "indexed": false,
          "internalType": "uint256",
          "name": "Deadline",
          "type": "uint256"
        },
        {
          "indexed": false,
          "internalType": "uint256",
          "name": "Threshold",
          "type": "uint256"
        }
      ],
      "name": "_AddedProposition",
      "type": "event"
    },
    {
      "anonymous": false,
      "inputs": [
        {
          "indexed": false,
          "internalType": "uint256",
          "name": "Id",
          "type": "uint256"
        },
        {
          "indexed": true,
          "internalType": "address",
          "name": "Proposer",
          "type": "address"
        }
      ],
      "name": "_CancelledProposition",
      "type": "event"
    },
    {
      "anonymous": false,
      "inputs": [
        {
          "indexed": false,
          "internalType": "address",
          "name": "Public",
          "type": "address"
        },
        {
          "indexed": false,
          "internalType": "address",
          "name": "Treasury",
          "type": "address"
        },
        {
          "indexed": false,
          "internalType": "address",
          "name": "Certis",
          "type": "address"
        },
        {
          "indexed": false,
          "internalType": "address",
          "name": "PrivateFactory",
          "type": "address"
        },
        {
          "indexed": false,
          "internalType": "address",
          "name": "Private",
          "type": "address"
        },
        {
          "indexed": false,
          "internalType": "address",
          "name": "ProviderFactory",
          "type": "address"
        },
        {
          "indexed": false,
          "internalType": "address",
          "name": "Provider",
          "type": "address"
        },
        {
          "indexed": false,
          "internalType": "address",
          "name": "PriceConverter",
          "type": "address"
        }
      ],
      "name": "_NewContracts",
      "type": "event"
    },
    {
      "anonymous": false,
      "inputs": [
        {
          "indexed": false,
          "internalType": "uint256",
          "name": "Id",
          "type": "uint256"
        },
        {
          "indexed": true,
          "internalType": "address",
          "name": "Proposer",
          "type": "address"
        },
        {
          "indexed": false,
          "internalType": "uint256",
          "name": "VotesFor",
          "type": "uint256"
        },
        {
          "indexed": false,
          "internalType": "uint256",
          "name": "VotesAgainst",
          "type": "uint256"
        }
      ],
      "name": "_PropositionApproved",
      "type": "event"
    },
    {
      "anonymous": false,
      "inputs": [
        {
          "indexed": false,
          "internalType": "uint256",
          "name": "Id",
          "type": "uint256"
        },
        {
          "indexed": true,
          "internalType": "address",
          "name": "Proposer",
          "type": "address"
        },
        {
          "indexed": false,
          "internalType": "uint256",
          "name": "VotesFor",
          "type": "uint256"
        },
        {
          "indexed": false,
          "internalType": "uint256",
          "name": "VotesAgainst",
          "type": "uint256"
        }
      ],
      "name": "_PropositionRejected",
      "type": "event"
    },
    {
      "anonymous": false,
      "inputs": [
        {
          "indexed": false,
          "internalType": "uint256",
          "name": "Id",
          "type": "uint256"
        },
        {
          "indexed": true,
          "internalType": "address",
          "name": "Voter",
          "type": "address"
        },
        {
          "indexed": false,
          "internalType": "bool",
          "name": "Vote",
          "type": "bool"
        },
        {
          "indexed": false,
          "internalType": "uint256",
          "name": "AmountTokens",
          "type": "uint256"
        }
      ],
      "name": "_PropositionVote",
      "type": "event"
    },
    {
      "anonymous": false,
      "inputs": [
        {
          "indexed": true,
          "internalType": "uint256",
          "name": "Id",
          "type": "uint256"
        },
        {
          "indexed": false,
          "internalType": "address",
          "name": "From",
          "type": "address"
        },
        {
          "indexed": false,
          "internalType": "address",
          "name": "To",
          "type": "address"
        },
        {
          "indexed": false,
          "internalType": "uint256",
          "name": "Amount",
          "type": "uint256"
        }
      ],
      "name": "_UsedTokensTransfered",
      "type": "event"
    },
    {
      "inputs": [],
      "name": "cancelProposition",
      "outputs": [],
      "stateMutability": "nonpayable",
      "type": "function"
    },
    {
      "inputs": [],
      "name": "isCurrentPropositionProp",
      "outputs": [
        {
          "internalType": "bool",
          "name": "",
          "type": "bool"
        }
      ],
      "stateMutability": "view",
      "type": "function",
      "constant": true
    },
    {
      "inputs": [
        {
          "internalType": "address",
          "name": "from",
          "type": "address"
        },
        {
          "internalType": "address",
          "name": "to",
          "type": "address"
        },
        {
          "internalType": "uint256",
          "name": "amount",
          "type": "uint256"
        }
      ],
      "name": "onTokenBalanceChanged",
      "outputs": [],
      "stateMutability": "nonpayable",
      "type": "function"
    },
    {
      "inputs": [],
      "name": "retrieveChairPerson",
      "outputs": [
        {
          "internalType": "address",
          "name": "",
          "type": "address"
        }
      ],
      "stateMutability": "view",
      "type": "function",
      "constant": true
    },
    {
      "inputs": [],
      "name": "retrieveContractConfig",
      "outputs": [
        {
          "internalType": "string",
          "name": "",
          "type": "string"
        },
        {
          "internalType": "string",
          "name": "",
          "type": "string"
        }
      ],
      "stateMutability": "view",
      "type": "function",
      "constant": true
    },
    {
      "inputs": [],
      "name": "retrieveManagerContract",
      "outputs": [
        {
          "internalType": "address",
          "name": "",
          "type": "address"
        }
      ],
      "stateMutability": "view",
      "type": "function",
      "constant": true
    },
    {
      "inputs": [],
      "name": "retrieveNextPropId",
      "outputs": [
        {
          "internalType": "uint256",
          "name": "",
          "type": "uint256"
        }
      ],
      "stateMutability": "view",
      "type": "function",
      "constant": true
    },
    {
      "inputs": [
        {
          "internalType": "address",
          "name": "addr",
          "type": "address"
        },
        {
          "internalType": "uint256",
          "name": "nonce",
          "type": "uint256"
        }
      ],
      "name": "retrieveNonce",
      "outputs": [
        {
          "internalType": "bool",
          "name": "",
          "type": "bool"
        }
      ],
      "stateMutability": "view",
      "type": "function",
      "constant": true
    },
    {
      "inputs": [],
      "name": "retrievePendingPropConfig",
      "outputs": [
        {
          "internalType": "uint256",
          "name": "",
          "type": "uint256"
        },
        {
          "internalType": "uint8",
          "name": "",
          "type": "uint8"
        },
        {
          "internalType": "uint8",
          "name": "",
          "type": "uint8"
        },
        {
          "internalType": "bool",
          "name": "",
          "type": "bool"
        }
      ],
      "stateMutability": "view",
      "type": "function",
      "constant": true
    },
    {
      "inputs": [],
      "name": "retrievePropConfig",
      "outputs": [
        {
          "internalType": "uint256",
          "name": "",
          "type": "uint256"
        },
        {
          "internalType": "uint8",
          "name": "",
          "type": "uint8"
        },
        {
          "internalType": "uint8",
          "name": "",
          "type": "uint8"
        }
      ],
      "stateMutability": "view",
      "type": "function",
      "constant": true
    },
    {
      "inputs": [],
      "name": "retrievePropositionStatus",
      "outputs": [
        {
          "internalType": "address",
          "name": "",
          "type": "address"
        },
        {
          "internalType": "uint256",
          "name": "",
          "type": "uint256"
        },
        {
          "internalType": "uint256",
          "name": "",
          "type": "uint256"
        },
        {
          "internalType": "uint256",
          "name": "",
          "type": "uint256"
        },
        {
          "internalType": "uint256",
          "name": "",
          "type": "uint256"
        }
      ],
      "stateMutability": "view",
      "type": "function",
      "constant": true
    },
    {
      "inputs": [
        {
          "internalType": "uint256",
          "name": "PropId",
          "type": "uint256"
        },
        {
          "internalType": "address",
          "name": "voter",
          "type": "address"
        }
      ],
      "name": "retrieveVotesForVoter",
      "outputs": [
        {
          "internalType": "uint256",
          "name": "",
          "type": "uint256"
        }
      ],
      "stateMutability": "view",
      "type": "function",
      "constant": true
    },
    {
      "inputs": [
        {
          "internalType": "uint256",
          "name": "PropLifeTime",
          "type": "uint256"
        },
        {
          "internalType": "uint8",
          "name": "PropThresholdPerc",
          "type": "uint8"
        },
        {
          "internalType": "uint8",
          "name": "minWeightToPropPerc",
          "type": "uint8"
        }
      ],
      "name": "updateProp",
      "outputs": [],
      "stateMutability": "nonpayable",
      "type": "function"
    },
    {
      "inputs": [
        {
          "internalType": "bool",
          "name": "vote",
          "type": "bool"
        }
      ],
      "name": "voteProposition",
      "outputs": [],
      "stateMutability": "nonpayable",
      "type": "function"
    },
    {
      "inputs": [
        {
          "internalType": "address",
          "name": "voter",
          "type": "address"
        },
        {
          "internalType": "uint256",
          "name": "propID",
          "type": "uint256"
        },
        {
          "internalType": "bool",
          "name": "vote",
          "type": "bool"
        },
        {
          "internalType": "uint256",
          "name": "nonce",
          "type": "uint256"
        },
        {
          "internalType": "uint256",
          "name": "deadline",
          "type": "uint256"
        },
        {
          "internalType": "bytes",
          "name": "signature",
          "type": "bytes"
        }
      ],
      "name": "votePropositionOnBehalfOf",
      "outputs": [],
      "stateMutability": "nonpayable",
      "type": "function"
    },
    {
      "inputs": [
        {
          "components": [
            {
              "internalType": "address",
              "name": "NewPublicPoolAddress",
              "type": "address"
            },
            {
              "internalType": "address",
              "name": "NewTreasuryAddress",
              "type": "address"
            },
            {
              "internalType": "address",
              "name": "NewCertisTokenAddress",
              "type": "address"
            },
            {
              "internalType": "address",
              "name": "NewPrivatePoolFactoryAddress",
              "type": "address"
            },
            {
              "internalType": "address",
              "name": "NewPrivatePoolAddress",
              "type": "address"
            },
            {
              "internalType": "address",
              "name": "NewProviderFactoryAddress",
              "type": "address"
            },
            {
              "internalType": "address",
              "name": "NewProviderAddress",
              "type": "address"
            },
            {
              "internalType": "address",
              "name": "NewPriceConverterAddress",
              "type": "address"
            },
            {
              "internalType": "bytes",
              "name": "NewPublicPoolData",
              "type": "bytes"
            },
            {
              "internalType": "bytes",
              "name": "NewTreasuryData",
              "type": "bytes"
            },
            {
              "internalType": "bytes",
              "name": "NewCertisTokenData",
              "type": "bytes"
            },
            {
              "internalType": "bytes",
              "name": "NewPrivatePoolFactoryData",
              "type": "bytes"
            },
            {
              "internalType": "bytes",
              "name": "NewProviderFactoryData",
              "type": "bytes"
            },
            {
              "internalType": "bytes",
              "name": "NewPriceConverterData",
              "type": "bytes"
            },
            {
              "internalType": "string",
              "name": "NewPrivatePoolContractName",
              "type": "string"
            },
            {
              "internalType": "string",
              "name": "NewPrivatePoolContractVersion",
              "type": "string"
            }
          ],
          "internalType": "struct Library.ProposedContractsStruct",
          "name": "initialContracts",
          "type": "tuple"
        }
      ],
      "name": "InitializeContracts",
      "outputs": [],
      "stateMutability": "nonpayable",
      "type": "function"
    },
    {
      "inputs": [
        {
          "components": [
            {
              "internalType": "address",
              "name": "NewPublicPoolAddress",
              "type": "address"
            },
            {
              "internalType": "address",
              "name": "NewTreasuryAddress",
              "type": "address"
            },
            {
              "internalType": "address",
              "name": "NewCertisTokenAddress",
              "type": "address"
            },
            {
              "internalType": "address",
              "name": "NewPrivatePoolFactoryAddress",
              "type": "address"
            },
            {
              "internalType": "address",
              "name": "NewPrivatePoolAddress",
              "type": "address"
            },
            {
              "internalType": "address",
              "name": "NewProviderFactoryAddress",
              "type": "address"
            },
            {
              "internalType": "address",
              "name": "NewProviderAddress",
              "type": "address"
            },
            {
              "internalType": "address",
              "name": "NewPriceConverterAddress",
              "type": "address"
            },
            {
              "internalType": "bytes",
              "name": "NewPublicPoolData",
              "type": "bytes"
            },
            {
              "internalType": "bytes",
              "name": "NewTreasuryData",
              "type": "bytes"
            },
            {
              "internalType": "bytes",
              "name": "NewCertisTokenData",
              "type": "bytes"
            },
            {
              "internalType": "bytes",
              "name": "NewPrivatePoolFactoryData",
              "type": "bytes"
            },
            {
              "internalType": "bytes",
              "name": "NewProviderFactoryData",
              "type": "bytes"
            },
            {
              "internalType": "bytes",
              "name": "NewPriceConverterData",
              "type": "bytes"
            },
            {
              "internalType": "string",
              "name": "NewPrivatePoolContractName",
              "type": "string"
            },
            {
              "internalType": "string",
              "name": "NewPrivatePoolContractVersion",
              "type": "string"
            }
          ],
          "internalType": "struct Library.ProposedContractsStruct",
          "name": "UpgradeProposition",
          "type": "tuple"
        }
      ],
      "name": "upgradeContracts",
      "outputs": [],
      "stateMutability": "nonpayable",
      "type": "function"
    },
    {
      "inputs": [],
      "name": "retrieveProposition",
      "outputs": [
        {
          "internalType": "bytes32[]",
          "name": "",
          "type": "bytes32[]"
        }
      ],
      "stateMutability": "view",
      "type": "function",
      "constant": true
    },
    {
      "inputs": [],
      "name": "retrievePublicCertificatePoolProxy",
      "outputs": [
        {
          "internalType": "address",
          "name": "",
          "type": "address"
        }
      ],
      "stateMutability": "view",
      "type": "function",
      "constant": true
    },
    {
      "inputs": [],
      "name": "retrieveTreasuryProxy",
      "outputs": [
        {
          "internalType": "address",
          "name": "",
          "type": "address"
        }
      ],
      "stateMutability": "view",
      "type": "function",
      "constant": true
    },
    {
      "inputs": [],
      "name": "retrieveCertisTokenProxy",
      "outputs": [
        {
          "internalType": "address",
          "name": "",
          "type": "address"
        }
      ],
      "stateMutability": "view",
      "type": "function",
      "constant": true
    },
    {
      "inputs": [],
      "name": "retrievePrivatePoolFactoryProxy",
      "outputs": [
        {
          "internalType": "address",
          "name": "",
          "type": "address"
        }
      ],
      "stateMutability": "view",
      "type": "function",
      "constant": true
    },
    {
      "inputs": [],
      "name": "retrievePrivatePoolBeacon",
      "outputs": [
        {
          "internalType": "address",
          "name": "",
          "type": "address"
        }
      ],
      "stateMutability": "view",
      "type": "function",
      "constant": true
    },
    {
      "inputs": [],
      "name": "retrieveProviderFactoryProxy",
      "outputs": [
        {
          "internalType": "address",
          "name": "",
          "type": "address"
        }
      ],
      "stateMutability": "view",
      "type": "function",
      "constant": true
    },
    {
      "inputs": [],
      "name": "retrieveProviderBeacon",
      "outputs": [
        {
          "internalType": "address",
          "name": "",
          "type": "address"
        }
      ],
      "stateMutability": "view",
      "type": "function",
      "constant": true
    },
    {
      "inputs": [],
      "name": "retrievePriceConverterProxy",
      "outputs": [
        {
          "internalType": "address",
          "name": "",
          "type": "address"
        }
      ],
      "stateMutability": "view",
      "type": "function",
      "constant": true
    },
    {
      "inputs": [],
      "name": "retrievePublicCertificatePool",
      "outputs": [
        {
          "internalType": "address",
          "name": "",
          "type": "address"
        }
      ],
      "stateMutability": "view",
      "type": "function",
      "constant": true
    },
    {
      "inputs": [],
      "name": "retrieveTreasury",
      "outputs": [
        {
          "internalType": "address",
          "name": "",
          "type": "address"
        }
      ],
      "stateMutability": "view",
      "type": "function",
      "constant": true
    },
    {
      "inputs": [],
      "name": "retrieveCertisToken",
      "outputs": [
        {
          "internalType": "address",
          "name": "",
          "type": "address"
        }
      ],
      "stateMutability": "view",
      "type": "function",
      "constant": true
    },
    {
      "inputs": [],
      "name": "retrievePrivatePoolFactory",
      "outputs": [
        {
          "internalType": "address",
          "name": "",
          "type": "address"
        }
      ],
      "stateMutability": "view",
      "type": "function",
      "constant": true
    },
    {
      "inputs": [],
      "name": "retrievePrivatePool",
      "outputs": [
        {
          "internalType": "address",
          "name": "",
          "type": "address"
        }
      ],
      "stateMutability": "view",
      "type": "function",
      "constant": true
    },
    {
      "inputs": [],
      "name": "retrieveProviderFactory",
      "outputs": [
        {
          "internalType": "address",
          "name": "",
          "type": "address"
        }
      ],
      "stateMutability": "view",
      "type": "function",
      "constant": true
    },
    {
      "inputs": [],
      "name": "retrieveProvider",
      "outputs": [
        {
          "internalType": "address",
          "name": "",
          "type": "address"
        }
      ],
      "stateMutability": "view",
      "type": "function",
      "constant": true
    },
    {
      "inputs": [],
      "name": "retrievePriceConverter",
      "outputs": [
        {
          "internalType": "address",
          "name": "",
          "type": "address"
        }
      ],
      "stateMutability": "view",
      "type": "function",
      "constant": true
    },
    {
      "inputs": [],
      "name": "isInitialized",
      "outputs": [
        {
          "internalType": "bool",
          "name": "",
          "type": "bool"
        }
      ],
      "stateMutability": "view",
      "type": "function",
      "constant": true
    }
  ],
  "bytecode": "0x60806040523480156200001157600080fd5b5060405162005f8038038062005f80833981016040819052620000349162000a38565b6200005085858533308787620000b560201b6200116d1760201c565b6040516200005e906200082d565b604051809103906000f0801580156200007b573d6000803e3d6000fd5b50601180546001600160a01b0319166001600160a01b039290921691909117905550506029805460ff60a01b191690555062000c26915050565b600354610100900460ff1680620000cf575060035460ff16155b620000f75760405162461bcd60e51b8152600401620000ee9062000af1565b60405180910390fd5b600354610100900460ff161580156200011a576003805461ffff19166101011790555b62000130846200018860201b6200122c1760201c565b600480546001600160a01b0319166001600160a01b0387161790556000600b556200015c83836200021d565b6200016b88888860016200024d565b80156200017e576003805461ff00191690555b5050505050505050565b600354610100900460ff1680620001a2575060035460ff16155b620001c15760405162461bcd60e51b8152600401620000ee9062000af1565b600354610100900460ff16158015620001e4576003805461ffff19166101011790555b6003805462010000600160b01b031916620100006001600160a01b03851602179055801562000219576003805461ff00191690555b5050565b8151620002329060009060208501906200083b565b508051620002489060019060208401906200083b565b505050565b82828160ff1660641015620002765760405162461bcd60e51b8152600401620000ee9062000ad2565b8060ff16606410156200029d5760405162461bcd60e51b8152600401620000ee9062000ad2565b8215620002ca57600d869055600e805460ff8681166101000261ffff199092169088161717905562000305565b600f8690556010805460ff8681166101000261ffff1990921690881617179055600e805462ff0000191662010000179055620003056200030d565b505050505050565b6000620003196200045d565b15620003505760405162461bcd60e51b8152602060048201526005602482015264454332342d60d81b6044820152606401620000ee565b6200035b33620004c2565b1515600114620003965760405162461bcd60e51b8152602060048201526005602482015264454332322d60d81b6044820152606401620000ee565b600680546001600160a01b03191633179055600d54620003b7904262000b3f565b600755600e5460649060ff16620003cd62000541565b620003d9919062000b7d565b620003e5919062000b5a565b600855600b80546005819055906000620003ff8362000bdc565b909155505060065460055460075460085460408051938452602084019290925282820152516001600160a01b03909216917f472501d19bf75639b2e316cd36f8568b0c3ab943b82a87de3c086c98c1929df99181900360600190a250565b600754600090421015620004715750600190565b6006546001600160a01b031615620004bc576200048d62000646565b620004bc60006005819055600680546001600160a01b0319169055600781905560088190556009819055600a55565b50600090565b6004546000906001600160a01b0383811691161415620004e457506001919050565b6000620004f18362000652565b90506064620004ff62000541565b600e54620005169190610100900460ff1662000b7d565b62000522919062000b5a565b811115620005335750600192915050565b50600092915050565b919050565b6000600360029054906101000a90046001600160a01b03166001600160a01b031663da3dce266040518163ffffffff1660e01b815260040160206040518083038186803b1580156200059257600080fd5b505afa158015620005a7573d6000803e3d6000fd5b505050506040513d601f19601f82011682018060405250810190620005cd9190620009ec565b6001600160a01b03166318160ddd6040518163ffffffff1660e01b815260040160206040518083038186803b1580156200060657600080fd5b505afa1580156200061b573d6000803e3d6000fd5b505050506040513d601f19601f8201168201806040525081019062000641919062000a1e565b905090565b6200065062000763565b565b6000600360029054906101000a90046001600160a01b03166001600160a01b031663da3dce266040518163ffffffff1660e01b815260040160206040518083038186803b158015620006a357600080fd5b505afa158015620006b8573d6000803e3d6000fd5b505050506040513d601f19601f82011682018060405250810190620006de9190620009ec565b6040516370a0823160e01b81526001600160a01b03848116600483015291909116906370a082319060240160206040518083038186803b1580156200072257600080fd5b505afa15801562000737573d6000803e3d6000fd5b505050506040513d601f19601f820116820180604052508101906200075d919062000a1e565b92915050565b601280546001600160a01b031990811682556013805482169055601480548216905560158054821690556016805482169055601780548216905560188054821690556019805490911690556000620007bd601a82620008ca565b620007cd600983016000620008ca565b620007dd600a83016000620008ca565b620007ed600b83016000620008ca565b620007fd600c83016000620008ca565b6200080d600d83016000620008ca565b6200081d600e83016000620008ca565b62000219600f83016000620008ca565b6107bd80620057c383390190565b828054620008499062000b9f565b90600052602060002090601f0160209004810192826200086d5760008555620008b8565b82601f106200088857805160ff1916838001178555620008b8565b82800160010185558215620008b8579182015b82811115620008b85782518255916020019190600101906200089b565b50620008c69291506200090c565b5090565b508054620008d89062000b9f565b6000825580601f10620008e9575050565b601f0160209004906000526020600020908101906200090991906200090c565b50565b5b80821115620008c657600081556001016200090d565b600082601f8301126200093557600080fd5b81516001600160401b038082111562000952576200095262000c10565b604051601f8301601f19908116603f011681019082821181831017156200097d576200097d62000c10565b816040528381526020925086838588010111156200099a57600080fd5b600091505b83821015620009be57858201830151818301840152908201906200099f565b83821115620009d05760008385830101525b9695505050505050565b805160ff811681146200053c57600080fd5b600060208284031215620009ff57600080fd5b81516001600160a01b038116811462000a1757600080fd5b9392505050565b60006020828403121562000a3157600080fd5b5051919050565b600080600080600060a0868803121562000a5157600080fd5b8551945062000a6360208701620009da565b935062000a7360408701620009da565b60608701519093506001600160401b038082111562000a9157600080fd5b62000a9f89838a0162000923565b9350608088015191508082111562000ab657600080fd5b5062000ac58882890162000923565b9150509295509295909350565b602080825260059082015264454332312d60d81b604082015260600190565b6020808252602e908201527f496e697469616c697a61626c653a20636f6e747261637420697320616c72656160408201526d191e481a5b9a5d1a585b1a5e995960921b606082015260800190565b6000821982111562000b555762000b5562000bfa565b500190565b60008262000b7857634e487b7160e01b600052601260045260246000fd5b500490565b600081600019048311821515161562000b9a5762000b9a62000bfa565b500290565b600181811c9082168062000bb457607f821691505b6020821081141562000bd657634e487b7160e01b600052602260045260246000fd5b50919050565b600060001982141562000bf35762000bf362000bfa565b5060010190565b634e487b7160e01b600052601160045260246000fd5b634e487b7160e01b600052604160045260246000fd5b614b8d8062000c366000396000f3fe60806040523480156200001157600080fd5b5060043610620001c65760003560e01c8063029b967314620001cb57806304cc67a914620001ed57806316c94e63146200020057806322d929e11462000219578063392e53cd14620002235780633c65d42714620002425780633c7df55d14620002545780633feca4ca146200026b5780634044adb214620002a75780634b19aa1614620002e057806355457ee914620002ea5780635773bc2314620002f45780635a3794e914620003065780635b362e8414620003185780636025541514620003305780636771717714620003425780637c2f3aaf146200034c5780637faa3d6f146200035e578063840f6d17146200037557806390d138ed14620003b757806391f9167114620003ee578063a42e13391462000405578063a93316f5146200040f578063aa33380a1462000428578063ac2bb442146200043a578063ba4d4e391462000451578063bc3be0961462000468578063c50ec82b146200047a578063d2116a021462000484578063d660ab34146200049e578063da3dce2614620004cb578063db85bc4d14620004dd578063ee2aa36a14620004ef578063efd15d1714620004f9578063f5ad9acc1462000503575b600080fd5b620001d562000515565b604051620001e4919062002fc7565b60405180910390f35b600b545b604051908152602001620001e4565b620002176200021136600462002e1d565b62000534565b005b620001d562000553565b602954600160a01b900460ff165b6040519015158152602001620001e4565b6022546001600160a01b0316620001d5565b620002176200026536600462002c4f565b6200056d565b620002316200027c36600462002c95565b6001600160a01b03919091166000908152600260209081526040808320938352929052205460ff1690565b620001f1620002b836600462002e5b565b6000918252600c602090815260408084206001600160a01b0393909316845291905290205490565b620001d5620006c2565b62000217620006ce565b6024546001600160a01b0316620001d5565b6027546001600160a01b0316620001d5565b6003546201000090046001600160a01b0316620001d5565b6029546001600160a01b0316620001d5565b620001d56200080d565b6023546001600160a01b0316620001d5565b620002176200036f36600462002cc4565b62000827565b600654600754600854600954600a54604080516001600160a01b0390961686526020860194909452928401919091526060830152608082015260a001620001e4565b620003c16200084b565b604051620001e4949392919093845260ff9283166020850152911660408301521515606082015260800190565b62000217620003ff36600462002dc3565b620008a9565b620001d5620008b5565b62000419620008cf565b604051620001e491906200308d565b6026546001600160a01b0316620001d5565b620002176200044b36600462002e8e565b62000ec5565b620002176200046236600462002e1d565b62000ed4565b600e5462010000900460ff1662000231565b620001d562000ff6565b6200048e62001002565b604051620001e492919062003128565b600d54600e546040805192835260ff808316602085015261010090920490911690820152606001620001e4565b6028546001600160a01b0316620001d5565b6004546001600160a01b0316620001d5565b620001d562001139565b620001d562001153565b6025546001600160a01b0316620001d5565b6028546000906200052f906001600160a01b0316620012c1565b905090565b806012620005438282620034f1565b905050620005506200134e565b50565b6024546000906200052f906001600160a01b0316620012c1565b73__Library_______________________________63d1d719d0600360029054906101000a90046001600160a01b03166001600160a01b031663da3dce266040518163ffffffff1660e01b815260040160206040518083038186803b158015620005d657600080fd5b505afa158015620005eb573d6000803e3d6000fd5b505050506040513d601f19601f8201168201806040525081019062000611919062002c2f565b6040518263ffffffff1660e01b81526004016200062f919062002fc7565b60206040518083038186803b1580156200064857600080fd5b505af41580156200065d573d6000803e3d6000fd5b505050506040513d601f19601f8201168201806040525081019062000683919062002de3565b1515600114620006b05760405162461bcd60e51b8152600401620006a79062003166565b60405180910390fd5b620006bd8383836200147a565b505050565b60006200052f6200149c565b6001620006da6200151d565b1515600114620006fe5760405162461bcd60e51b8152600401620006a790620031f1565b600654604051630d1d719d60e41b815273__Library_______________________________9163d1d719d09162000742916001600160a01b03169060040162002fc7565b60206040518083038186803b1580156200075b57600080fd5b505af415801562000770573d6000803e3d6000fd5b505050506040513d601f19601f8201168201806040525081019062000796919062002de3565b1515600114620007ba5760405162461bcd60e51b8152600401620006a79062003210565b620007c46200155d565b6006546005546040519081526001600160a01b03909116907f1fe8aec10c0a50fa765076161e08c1f961ced69594ff45cf7d559f593afe1479906020015b60405180910390a250565b6022546000906200052f906001600160a01b0316620012c1565b6200083786868686868662001588565b62000843868562001778565b505050505050565b600080600080600e60029054906101000a900460ff1680156200086f575060075442105b1562000896575050600f5460105490925060ff8082169250610100909104166001620008a3565b5060009250829150819050805b90919293565b62000550338262001778565b6026546000906200052f906001600160a01b0316620012c1565b6040805160088082526101208201909252606091600091906020820161010080368337505060125460405163bc215e8560e01b815292935073__AddressLibrary________________________9263bc215e8592506200093c916001600160a01b03169060040162002fc7565b60206040518083038186803b1580156200095557600080fd5b505af41580156200096a573d6000803e3d6000fd5b505050506040513d601f19601f8201168201806040525081019062000990919062002e03565b81600081518110620009a657620009a662003496565b602090810291909101015260135460405163bc215e8560e01b815273__AddressLibrary________________________9163bc215e8591620009f5916001600160a01b03169060040162002fc7565b60206040518083038186803b15801562000a0e57600080fd5b505af415801562000a23573d6000803e3d6000fd5b505050506040513d601f19601f8201168201806040525081019062000a49919062002e03565b8160018151811062000a5f5762000a5f62003496565b602090810291909101015260145460405163bc215e8560e01b815273__AddressLibrary________________________9163bc215e859162000aae916001600160a01b03169060040162002fc7565b60206040518083038186803b15801562000ac757600080fd5b505af415801562000adc573d6000803e3d6000fd5b505050506040513d601f19601f8201168201806040525081019062000b02919062002e03565b8160028151811062000b185762000b1862003496565b602090810291909101015260155460405163bc215e8560e01b815273__AddressLibrary________________________9163bc215e859162000b67916001600160a01b03169060040162002fc7565b60206040518083038186803b15801562000b8057600080fd5b505af415801562000b95573d6000803e3d6000fd5b505050506040513d601f19601f8201168201806040525081019062000bbb919062002e03565b8160038151811062000bd15762000bd162003496565b602090810291909101015260165460405163bc215e8560e01b815273__AddressLibrary________________________9163bc215e859162000c20916001600160a01b03169060040162002fc7565b60206040518083038186803b15801562000c3957600080fd5b505af415801562000c4e573d6000803e3d6000fd5b505050506040513d601f19601f8201168201806040525081019062000c74919062002e03565b8160048151811062000c8a5762000c8a62003496565b602090810291909101015260175460405163bc215e8560e01b815273__AddressLibrary________________________9163bc215e859162000cd9916001600160a01b03169060040162002fc7565b60206040518083038186803b15801562000cf257600080fd5b505af415801562000d07573d6000803e3d6000fd5b505050506040513d601f19601f8201168201806040525081019062000d2d919062002e03565b8160058151811062000d435762000d4362003496565b602090810291909101015260185460405163bc215e8560e01b815273__AddressLibrary________________________9163bc215e859162000d92916001600160a01b03169060040162002fc7565b60206040518083038186803b15801562000dab57600080fd5b505af415801562000dc0573d6000803e3d6000fd5b505050506040513d601f19601f8201168201806040525081019062000de6919062002e03565b8160068151811062000dfc5762000dfc62003496565b602090810291909101015260195460405163bc215e8560e01b815273__AddressLibrary________________________9163bc215e859162000e4b916001600160a01b03169060040162002fc7565b60206040518083038186803b15801562000e6457600080fd5b505af415801562000e79573d6000803e3d6000fd5b505050506040513d601f19601f8201168201806040525081019062000e9f919062002e03565b8160078151811062000eb55762000eb562003496565b6020908102919091010152919050565b620006bd8383836000620018c0565b60048054604051630d1d719d60e41b815273__Library_______________________________9263d1d719d09262000f19926001600160a01b03909116910162002fc7565b60206040518083038186803b15801562000f3257600080fd5b505af415801562000f47573d6000803e3d6000fd5b505050506040513d601f19601f8201168201806040525081019062000f6d919062002de3565b151560011462000f915760405162461bcd60e51b8152600401620006a79062003166565b602954600160a01b900460ff161562000fd55760405162461bcd60e51b8152602060048201526005602482015264454332362d60d81b6044820152606401620006a7565b62000fe08162001978565b506029805460ff60a01b1916600160a01b179055565b60006200052f62001e5a565b60608060006001818054620010179062003425565b80601f0160208091040260200160405190810160405280929190818152602001828054620010459062003425565b8015620010965780601f106200106a5761010080835404028352916020019162001096565b820191906000526020600020905b8154815290600101906020018083116200107857829003601f168201915b50505050509150808054620010ab9062003425565b80601f0160208091040260200160405190810160405280929190818152602001828054620010d99062003425565b80156200112a5780601f10620010fe576101008083540402835291602001916200112a565b820191906000526020600020905b8154815290600101906020018083116200110c57829003601f168201915b50505050509050915091509091565b6029546000906200052f906001600160a01b0316620012c1565b6027546000906200052f906001600160a01b0316620012c1565b600354610100900460ff168062001187575060035460ff16155b620011a65760405162461bcd60e51b8152600401620006a790620031a3565b600354610100900460ff16158015620011c9576003805461ffff19166101011790555b620011d4846200122c565b600480546001600160a01b0319166001600160a01b0387161790556000600b5562001200838362001ea0565b6200120f8888886001620018c0565b801562001222576003805461ff00191690555b5050505050505050565b600354610100900460ff168062001246575060035460ff16155b620012655760405162461bcd60e51b8152600401620006a790620031a3565b600354610100900460ff1615801562001288576003805461ffff19166101011790555b6003805462010000600160b01b031916620100006001600160a01b038516021790558015620012bd576003805461ff00191690555b5050565b6011546040516310270e3d60e11b81526000916001600160a01b03169063204e1c7a90620012f490859060040162002fc7565b60206040518083038186803b1580156200130d57600080fd5b505afa15801562001322573d6000803e3d6000fd5b505050506040513d601f19601f8201168201806040525081019062001348919062002c2f565b92915050565b60006200135a6200151d565b15620013915760405162461bcd60e51b8152602060048201526005602482015264454332342d60d81b6044820152606401620006a7565b6200139c3362001ecb565b1515600114620013c05760405162461bcd60e51b8152600401620006a79062003210565b600680546001600160a01b03191633179055600d54620013e1904262003295565b600755600e5460649060ff16620013f762001f4a565b620014039190620032d3565b6200140f9190620032b0565b600855600b80546005819055906000620014298362003462565b90915550506006546005546007546008546040516001600160a01b03909416937f472501d19bf75639b2e316cd36f8568b0c3ab943b82a87de3c086c98c1929df9936200080293909290916200322f565b620014846200151d565b151560011415620006bd57620006bd8383836200204a565b60255460408051635c60da1b60e01b815290516000926001600160a01b031691635c60da1b916004808301926020929190829003018186803b158015620014e257600080fd5b505afa158015620014f7573d6000803e3d6000fd5b505050506040513d601f19601f820116820180604052508101906200052f919062002c2f565b600754600090421015620015315750600190565b6006546001600160a01b03161562001557576200154d620021c2565b620015576200155d565b50600090565b60006005819055600680546001600160a01b0319169055600781905560088190556009819055600a55565b81804210620015c25760405162461bcd60e51b8152602060048201526005602482015264454333332d60d81b6044820152606401620006a7565b6001600160a01b03871660009081526002602090815260408083208784529091529020548790859060ff1615620016245760405162461bcd60e51b8152602060048201526005602482015264454333342d60d81b6044820152606401620006a7565b60055488146200165f5760405162461bcd60e51b8152602060048201526005602482015264454333352d60d81b6044820152606401620006a7565b604051633f0856fd60e01b815273__SignatureLibrary______________________90633f0856fd90620016a8908c908c908c908c908c908c9060009060019060040162003014565b60206040518083038186803b158015620016c157600080fd5b505af4158015620016d6573d6000803e3d6000fd5b505050506040513d601f19601f82011682018060405250810190620016fc919062002de3565b1515600114620017375760405162461bcd60e51b8152602060048201526005602482015264454333322d60d81b6044820152606401620006a7565b6200176d89876001600160a01b03909116600090815260026020908152604080832093835292905220805460ff19166001179055565b505050505050505050565b6001620017846200151d565b1515600114620017a85760405162461bcd60e51b8152600401620006a790620031f1565b82620017ba81600560000154620021ce565b1515600114620017f55760405162461bcd60e51b8152602060048201526005602482015264454332332d60d81b6044820152606401620006a7565b60006200180885600560000154620021e7565b905083156200183457806005600401600082825462001828919062003295565b90915550620018509050565b806005800160008282546200184a919062003295565b90915550505b6005546200186090868362002228565b60055460408051918252851515602083015281018290526001600160a01b038616907f50f654d58981575c05e369cb129aeacb01e1b036af429380242cfc5d1a4b743f9060600160405180910390a2620018b962002266565b5050505050565b82828160ff1660641015620018e95760405162461bcd60e51b8152600401620006a79062003184565b8060ff1660641015620019105760405162461bcd60e51b8152600401620006a79062003184565b82156200193d57600d869055600e805460ff8681166101000261ffff199092169088161717905562000843565b600f8690556010805460ff8681166101000261ffff1990921690881617179055600e805462ff0000191662010000179055620008436200134e565b62001987602082018262002c0f565b6011546001600160a01b0316620019a361010084018462003245565b604051620019b19062002b01565b620019c0949392919062002fdb565b604051809103906000f080158015620019dd573d6000803e3d6000fd5b50602680546001600160a01b0319166001600160a01b039290921691909117905562001a10604082016020830162002c0f565b6011546001600160a01b031662001a2c61012084018462003245565b60405162001a3a9062002b01565b62001a49949392919062002fdb565b604051809103906000f08015801562001a66573d6000803e3d6000fd5b50602780546001600160a01b0319166001600160a01b039290921691909117905562001a99606082016040830162002c0f565b6011546001600160a01b031662001ab561014084018462003245565b60405162001ac39062002b01565b62001ad2949392919062002fdb565b604051809103906000f08015801562001aef573d6000803e3d6000fd5b50602880546001600160a01b0319166001600160a01b039290921691909117905562001b22608082016060830162002c0f565b6011546001600160a01b031662001b3e61016084018462003245565b60405162001b4c9062002b01565b62001b5b949392919062002fdb565b604051809103906000f08015801562001b78573d6000803e3d6000fd5b50602280546001600160a01b0319166001600160a01b039290921691909117905562001bab60a082016080830162002c0f565b60405162001bb99062002b0f565b62001bc5919062002fc7565b604051809103906000f08015801562001be2573d6000803e3d6000fd5b50602380546001600160a01b0319166001600160a01b039290921691909117905562001c1560c0820160a0830162002c0f565b6011546001600160a01b031662001c3161018084018462003245565b60405162001c3f9062002b01565b62001c4e949392919062002fdb565b604051809103906000f08015801562001c6b573d6000803e3d6000fd5b50602480546001600160a01b0319166001600160a01b039290921691909117905562001c9e60e0820160c0830162002c0f565b60405162001cac9062002b0f565b62001cb8919062002fc7565b604051809103906000f08015801562001cd5573d6000803e3d6000fd5b50602580546001600160a01b0319166001600160a01b039290921691909117905562001d09610100820160e0830162002c0f565b6011546001600160a01b031662001d256101a084018462003245565b60405162001d339062002b01565b62001d42949392919062002fdb565b604051809103906000f08015801562001d5f573d6000803e3d6000fd5b50602980546001600160a01b0319166001600160a01b039283161790556022541663ce50ac7662001d956101c084018462003245565b6040518363ffffffff1660e01b815260040162001db49291906200310a565b600060405180830381600087803b15801562001dcf57600080fd5b505af115801562001de4573d6000803e3d6000fd5b50506022546001600160a01b03169150631dd5862c905062001e0b6101e084018462003245565b6040518363ffffffff1660e01b815260040162001e2a9291906200310a565b600060405180830381600087803b15801562001e4557600080fd5b505af1158015620018b9573d6000803e3d6000fd5b60235460408051635c60da1b60e01b815290516000926001600160a01b031691635c60da1b916004808301926020929190829003018186803b158015620014e257600080fd5b815162001eb590600090602085019062002b1d565b508051620006bd90600190602084019062002b1d565b6004546000906001600160a01b038381169116141562001eed57506001919050565b600062001efa83620023ba565b9050606462001f0862001f4a565b600e5462001f1f9190610100900460ff16620032d3565b62001f2b9190620032b0565b81111562001f3c5750600192915050565b50600092915050565b919050565b6000600360029054906101000a90046001600160a01b03166001600160a01b031663da3dce266040518163ffffffff1660e01b815260040160206040518083038186803b15801562001f9b57600080fd5b505afa15801562001fb0573d6000803e3d6000fd5b505050506040513d601f19601f8201168201806040525081019062001fd6919062002c2f565b6001600160a01b03166318160ddd6040518163ffffffff1660e01b815260040160206040518083038186803b1580156200200f57600080fd5b505afa15801562002024573d6000803e3d6000fd5b505050506040513d601f19601f820116820180604052508101906200052f919062002e03565b6001600160a01b038316158015906200208757506005546000908152600c602090815260408083206001600160a01b038716845290915290205415155b15620006bd576005546000908152600c602090815260408083206001600160a01b03871684529091529020548190811115620020e557506005546000908152600c602090815260408083206001600160a01b03871684529091529020545b6005546000908152600c602090815260408083206001600160a01b0388168452909152812080548392906200211c908490620032f5565b90915550506001600160a01b038316156200216e576005546000908152600c602090815260408083206001600160a01b0387168452909152812080548392906200216890849062003295565b90915550505b600554604080516001600160a01b038088168252861660208201529081018390527f65fbd5e5dd32bea4aeca85bd0be0abf0e489d655dee888a7510d43b06dda2dba9060600160405180910390a250505050565b620021cc620024c7565b565b600080620021dd8484620021e7565b1515949350505050565b6000818152600c602090815260408083206001600160a01b03861684529091528120546200221584620023ba565b620022219190620032f5565b9392505050565b6000838152600c602090815260408083206001600160a01b0386168452909152812080548392906200225c90849062003295565b9091555050505050565b600854600954106200232c57600e5462010000900460ff1615620022c257600f54600d55601054600e805461010080840460ff90811690910261ffff19909216931692909217919091179055620022bc62002591565b620022cc565b620022cc620025af565b620022d66200155d565b600654600554600954600a546040516001600160a01b03909416937f23ca0034cf5aad32571b4a492e9598ea8a490e1643a60970e3cdc6933b55e49f936200232293909290916200322f565b60405180910390a2565b600854600a5410620021cc57600e5462010000900460ff16156200235a576200235462002591565b62002364565b62002364620021c2565b6200236e6200155d565b600654600554600954600a546040516001600160a01b03909416937fa58eb6daa3c62c3f883973c4035e5bd3e81aa627c8379de068a7de42df122be2936200232293909290916200322f565b6000600360029054906101000a90046001600160a01b03166001600160a01b031663da3dce266040518163ffffffff1660e01b815260040160206040518083038186803b1580156200240b57600080fd5b505afa15801562002420573d6000803e3d6000fd5b505050506040513d601f19601f8201168201806040525081019062002446919062002c2f565b6001600160a01b03166370a08231836040518263ffffffff1660e01b815260040162002473919062002fc7565b60206040518083038186803b1580156200248c57600080fd5b505afa158015620024a1573d6000803e3d6000fd5b505050506040513d601f19601f8201168201806040525081019062001348919062002e03565b601280546001600160a01b03199081168255601380548216905560148054821690556015805482169055601680548216905560178054821690556018805482169055601980549091169055600062002521601a8262002bac565b6200253160098301600062002bac565b62002541600a8301600062002bac565b62002551600b8301600062002bac565b62002561600c8301600062002bac565b62002571600d8301600062002bac565b62002581600e8301600062002bac565b620012bd600f8301600062002bac565b6000600f556010805461ffff19169055600e805462ff000019169055565b620021c2602654601254601a805462002666936001600160a01b0390811693169190620025dc9062003425565b80601f01602080910402602001604051908101604052809291908181526020018280546200260a9062003425565b80156200265b5780601f106200262f576101008083540402835291602001916200265b565b820191906000526020600020905b8154815290600101906020018083116200263d57829003601f168201915b505050505062002a3f565b602754601354601b80546200268f936001600160a01b0390811693169190620025dc9062003425565b602854601454601c8054620026b8936001600160a01b0390811693169190620025dc9062003425565b602254601554601d8054620026e1936001600160a01b0390811693169190620025dc9062003425565b602454601754601e80546200270a936001600160a01b0390811693169190620025dc9062003425565b602954601954601f805462002733936001600160a01b0390811693169190620025dc9062003425565b6016546001600160a01b031615620027b057602354601654604051631b2ce7f360e11b81526001600160a01b0392831692633659cfe6926200277b9291169060040162002fc7565b600060405180830381600087803b1580156200279657600080fd5b505af1158015620027ab573d6000803e3d6000fd5b505050505b6018546001600160a01b0316156200282d57602554601854604051631b2ce7f360e11b81526001600160a01b0392831692633659cfe692620027f89291169060040162002fc7565b600060405180830381600087803b1580156200281357600080fd5b505af115801562002828573d6000803e3d6000fd5b505050505b602080546200283c9062003425565b159050620028ac57602254604051636728563b60e11b81526001600160a01b039091169063ce50ac7690620028779060209060040162003151565b600060405180830381600087803b1580156200289257600080fd5b505af1158015620028a7573d6000803e3d6000fd5b505050505b60218054620028bb9062003425565b1590506200292b57602254604051630775618b60e21b81526001600160a01b0390911690631dd5862c90620028f69060219060040162003151565b600060405180830381600087803b1580156200291157600080fd5b505af115801562002926573d6000803e3d6000fd5b505050505b6026547f05c04d87852a41b811d4865cafb55055b0b03dceebff609472a889585286a7dc9062002964906001600160a01b0316620012c1565b6027546200297b906001600160a01b0316620012c1565b60285462002992906001600160a01b0316620012c1565b602254620029a9906001600160a01b0316620012c1565b620029b362001e5a565b602454620029ca906001600160a01b0316620012c1565b620029d46200149c565b602954620029eb906001600160a01b0316620012c1565b604080516001600160a01b03998a16815297891660208901529588168787015293871660608701529186166080860152851660a0850152841660c084015290921660e08201529051908190036101000190a1565b6001600160a01b03821615620006bd5780511562002ac657601154604051639623609d60e01b81526001600160a01b0390911690639623609d9062002a8d90869086908690600401620030d3565b600060405180830381600087803b15801562002aa857600080fd5b505af115801562002abd573d6000803e3d6000fd5b50505050505050565b60115460405163266a23b160e21b81526001600160a01b0385811660048301528481166024830152909116906399a88ec49060440162002a8d565b610f30806200370583390190565b610523806200463583390190565b82805462002b2b9062003425565b90600052602060002090601f01602090048101928262002b4f576000855562002b9a565b82601f1062002b6a57805160ff191683800117855562002b9a565b8280016001018555821562002b9a579182015b8281111562002b9a57825182559160200191906001019062002b7d565b5062002ba892915062002be6565b5090565b50805462002bba9062003425565b6000825580601f1062002bcb575050565b601f0160209004906000526020600020908101906200055091905b5b8082111562002ba8576000815560010162002be7565b803560ff8116811462001f4557600080fd5b60006020828403121562002c2257600080fd5b81356200222181620036df565b60006020828403121562002c4257600080fd5b81516200222181620036df565b60008060006060848603121562002c6557600080fd5b833562002c7281620036df565b9250602084013562002c8481620036df565b929592945050506040919091013590565b6000806040838503121562002ca957600080fd5b823562002cb681620036df565b946020939093013593505050565b60008060008060008060c0878903121562002cde57600080fd5b863562002ceb81620036df565b955060208701359450604087013562002d0481620036f5565b9350606087013592506080870135915060a08701356001600160401b038082111562002d2f57600080fd5b818901915089601f83011262002d4457600080fd5b81358181111562002d595762002d59620034ac565b604051601f8201601f19908116603f0116810190838211818310171562002d845762002d84620034ac565b816040528281528c602084870101111562002d9e57600080fd5b8260208601602083013760006020848301015280955050505050509295509295509295565b60006020828403121562002dd657600080fd5b81356200222181620036f5565b60006020828403121562002df657600080fd5b81516200222181620036f5565b60006020828403121562002e1657600080fd5b5051919050565b60006020828403121562002e3057600080fd5b81356001600160401b0381111562002e4757600080fd5b820161020081850312156200222157600080fd5b6000806040838503121562002e6f57600080fd5b82359150602083013562002e8381620036df565b809150509250929050565b60008060006060848603121562002ea457600080fd5b8335925062002eb66020850162002bfd565b915062002ec66040850162002bfd565b90509250925092565b81835281816020850137506000828201602090810191909152601f909101601f19169091010190565b6000815180845260005b8181101562002f205760208185018101518683018201520162002f02565b8181111562002f33576000602083870101525b50601f01601f19169290920160200192915050565b6000815462002f578162003425565b80855260206001838116801562002f77576001811462002f8c5762002fbc565b60ff1985168884015260408801955062002fbc565b866000528260002060005b8581101562002fb45781548a820186015290830190840162002f97565b890184019650505b505050505092915050565b6001600160a01b0391909116815260200190565b6001600160a01b038581168252841660208201526060604082018190526000906200300a908301848662002ecf565b9695505050505050565b600061010060018060a01b038b16835289602084015288151560408401528760608401528660808401528060a0840152620030528184018762002ef8565b905082810360c084015262003068818662002f48565b905082810360e08401526200307e818562002f48565b9b9a5050505050505050505050565b6020808252825182820181905260009190848201906040850190845b81811015620030c757835183529284019291840191600101620030a9565b50909695505050505050565b6001600160a01b03848116825283166020820152606060408201819052600090620031019083018462002ef8565b95945050505050565b6020815260006200312060208301848662002ecf565b949350505050565b6040815260006200313d604083018562002ef8565b828103602084015262003101818562002ef8565b60208152600062002221602083018462002f48565b6020808252600490820152634543382d60e01b604082015260600190565b602080825260059082015264454332312d60d81b604082015260600190565b6020808252602e908201527f496e697469616c697a61626c653a20636f6e747261637420697320616c72656160408201526d191e481a5b9a5d1a585b1a5e995960921b606082015260800190565b602080825260059082015264454332352d60d81b604082015260600190565b602080825260059082015264454332322d60d81b604082015260600190565b9283526020830191909152604082015260600190565b6000808335601e198436030181126200325d57600080fd5b8301803591506001600160401b038211156200327857600080fd5b6020019150368190038213156200328e57600080fd5b9250929050565b60008219821115620032ab57620032ab62003480565b500190565b600082620032ce57634e487b7160e01b600052601260045260246000fd5b500490565b6000816000190483118215151615620032f057620032f062003480565b500290565b6000828210156200330a576200330a62003480565b500390565b601f821115620006bd57600081815260208120601f850160051c81016020861015620033385750805b601f850160051c820191505b81811015620008435782815560010162003344565b6001600160401b03831115620033735762003373620034ac565b6200338b8362003384835462003425565b836200330f565b6000601f841160018114620033c25760008515620033a95750838201355b600019600387901b1c1916600186901b178355620018b9565b600083815260209020601f19861690835b82811015620033f55786850135825560209485019460019092019101620033d3565b5086821015620034135760001960f88860031b161c19848701351681555b505060018560011b0183555050505050565b600181811c908216806200343a57607f821691505b602082108114156200345c57634e487b7160e01b600052602260045260246000fd5b50919050565b600060001982141562003479576200347962003480565b5060010190565b634e487b7160e01b600052601160045260246000fd5b634e487b7160e01b600052603260045260246000fd5b634e487b7160e01b600052604160045260246000fd5b600081356200134881620036df565b80546001600160a01b0319166001600160a01b0392909216919091179055565b620035076200350083620034c2565b82620034d1565b620035236200351960208401620034c2565b60018301620034d1565b6200353f6200353560408401620034c2565b60028301620034d1565b6200355b6200355160608401620034c2565b60038301620034d1565b620035776200356d60808401620034c2565b60048301620034d1565b620035936200358960a08401620034c2565b60058301620034d1565b620035af620035a560c08401620034c2565b60068301620034d1565b620035cb620035c160e08401620034c2565b60078301620034d1565b620035db61010083018362003245565b620035eb81836008860162003359565b5050620035fd61012083018362003245565b6200360d81836009860162003359565b50506200361f61014083018362003245565b6200362f8183600a860162003359565b50506200364161016083018362003245565b620036518183600b860162003359565b50506200366361018083018362003245565b620036738183600c860162003359565b5050620036856101a083018362003245565b620036958183600d860162003359565b5050620036a76101c083018362003245565b620036b78183600e860162003359565b5050620036c96101e083018362003245565b620036d98183600f860162003359565b50505050565b6001600160a01b03811681146200055057600080fd5b80151581146200055057600080fdfe608060405260405162000f3038038062000f308339810160408190526200002691620004c2565b82816200005560017f360894a13ba1a3210667c828492db98dca3e2076cc3735a920a3ca505d382bbd620005f5565b60008051602062000ee9833981519152146200007557620000756200064a565b6200008382826000620000e7565b50620000b3905060017fb53127684a568b3173ae13b9f8a6016e243e63b6e8ee1178d6a717850b5d6104620005f5565b60008051602062000ec983398151915214620000d357620000d36200064a565b620000de8262000124565b50505062000676565b620000f2836200017f565b600082511180620001005750805b156200011f576200011d8383620001c160201b620002601760201c565b505b505050565b7f7e644d79422f17c01e4894b5f4f588d331ebfa28653d42ae832dc59e38c9798f6200014f620001f0565b604080516001600160a01b03928316815291841660208301520160405180910390a16200017c8162000229565b50565b6200018a81620002de565b6040516001600160a01b038216907fbc7cd75a20ee27fd9adebab32041f755214dbc6bffa90cc0225b39da2e5c2d3b90600090a250565b6060620001e9838360405180606001604052806027815260200162000f096027913962000381565b9392505050565b60006200021a60008051602062000ec983398151915260001b6200045e60201b620002081760201c565b546001600160a01b0316919050565b6001600160a01b038116620002945760405162461bcd60e51b815260206004820152602660248201527f455243313936373a206e65772061646d696e20697320746865207a65726f206160448201526564647265737360d01b60648201526084015b60405180910390fd5b80620002bd60008051602062000ec983398151915260001b6200045e60201b620002081760201c565b80546001600160a01b0319166001600160a01b039290921691909117905550565b620002f4816200046160201b6200028c1760201c565b620003585760405162461bcd60e51b815260206004820152602d60248201527f455243313936373a206e657720696d706c656d656e746174696f6e206973206e60448201526c1bdd08184818dbdb9d1c9858dd609a1b60648201526084016200028b565b80620002bd60008051602062000ee983398151915260001b6200045e60201b620002081760201c565b6060833b620003e25760405162461bcd60e51b815260206004820152602660248201527f416464726573733a2064656c65676174652063616c6c20746f206e6f6e2d636f6044820152651b9d1c9858dd60d21b60648201526084016200028b565b600080856001600160a01b031685604051620003ff9190620005a2565b600060405180830381855af49150503d80600081146200043c576040519150601f19603f3d011682016040523d82523d6000602084013e62000441565b606091505b5090925090506200045482828662000467565b9695505050505050565b90565b3b151590565b6060831562000478575081620001e9565b825115620004895782518084602001fd5b8160405162461bcd60e51b81526004016200028b9190620005c0565b80516001600160a01b0381168114620004bd57600080fd5b919050565b600080600060608486031215620004d857600080fd5b620004e384620004a5565b9250620004f360208501620004a5565b60408501519092506001600160401b03808211156200051157600080fd5b818601915086601f8301126200052657600080fd5b8151818111156200053b576200053b62000660565b604051601f8201601f19908116603f0116810190838211818310171562000566576200056662000660565b816040528281528960208487010111156200058057600080fd5b620005938360208301602088016200061b565b80955050505050509250925092565b60008251620005b68184602087016200061b565b9190910192915050565b6020815260008251806020840152620005e18160408501602087016200061b565b601f01601f19169190910160400192915050565b6000828210156200061657634e487b7160e01b600052601160045260246000fd5b500390565b60005b83811015620006385781810151838201526020016200061e565b838111156200011d5750506000910152565b634e487b7160e01b600052600160045260246000fd5b634e487b7160e01b600052604160045260246000fd5b61084380620006866000396000f3fe60806040526004361061004e5760003560e01c80633659cfe6146100655780634f1ef286146100855780635c60da1b146100985780638f283970146100c9578063f851a440146100e95761005d565b3661005d5761005b6100fe565b005b61005b6100fe565b34801561007157600080fd5b5061005b61008036600461068e565b610118565b61005b6100933660046106a9565b61015f565b3480156100a457600080fd5b506100ad6101d0565b6040516001600160a01b03909116815260200160405180910390f35b3480156100d557600080fd5b5061005b6100e436600461068e565b61020b565b3480156100f557600080fd5b506100ad610235565b610106610292565b610116610111610331565b61033b565b565b61012061035f565b6001600160a01b0316336001600160a01b031614156101575761015481604051806020016040528060008152506000610380565b50565b6101546100fe565b61016761035f565b6001600160a01b0316336001600160a01b031614156101c8576101c38383838080601f01602080910402602001604051908101604052809392919081815260200183838082843760009201919091525060019250610380915050565b505050565b6101c36100fe565b60006101da61035f565b6001600160a01b0316336001600160a01b03161415610200576101fb610331565b905090565b6102086100fe565b90565b61021361035f565b6001600160a01b0316336001600160a01b0316141561015757610154816103ab565b600061023f61035f565b6001600160a01b0316336001600160a01b03161415610200576101fb61035f565b606061028583836040518060600160405280602781526020016107e7602791396103ff565b9392505050565b3b151590565b61029a61035f565b6001600160a01b0316336001600160a01b031614156101165760405162461bcd60e51b815260206004820152604260248201527f5472616e73706172656e745570677261646561626c6550726f78793a2061646d60448201527f696e2063616e6e6f742066616c6c6261636b20746f2070726f78792074617267606482015261195d60f21b608482015260a4015b60405180910390fd5b60006101fb6104d3565b3660008037600080366000845af43d6000803e80801561035a573d6000f35b3d6000fd5b60006000805160206107a78339815191525b546001600160a01b0316919050565b610389836104e9565b6000825111806103965750805b156101c3576103a58383610260565b50505050565b7f7e644d79422f17c01e4894b5f4f588d331ebfa28653d42ae832dc59e38c9798f6103d461035f565b604080516001600160a01b03928316815291841660208301520160405180910390a161015481610529565b6060833b61045e5760405162461bcd60e51b815260206004820152602660248201527f416464726573733a2064656c65676174652063616c6c20746f206e6f6e2d636f6044820152651b9d1c9858dd60d21b6064820152608401610328565b600080856001600160a01b031685604051610479919061072b565b600060405180830381855af49150503d80600081146104b4576040519150601f19603f3d011682016040523d82523d6000602084013e6104b9565b606091505b50915091506104c98282866105c0565b9695505050505050565b60006000805160206107c7833981519152610371565b6104f2816105f9565b6040516001600160a01b038216907fbc7cd75a20ee27fd9adebab32041f755214dbc6bffa90cc0225b39da2e5c2d3b90600090a250565b6001600160a01b03811661058e5760405162461bcd60e51b815260206004820152602660248201527f455243313936373a206e65772061646d696e20697320746865207a65726f206160448201526564647265737360d01b6064820152608401610328565b806000805160206107a78339815191525b80546001600160a01b0319166001600160a01b039290921691909117905550565b606083156105cf575081610285565b8251156105df5782518084602001fd5b8160405162461bcd60e51b81526004016103289190610747565b803b61065d5760405162461bcd60e51b815260206004820152602d60248201527f455243313936373a206e657720696d706c656d656e746174696f6e206973206e60448201526c1bdd08184818dbdb9d1c9858dd609a1b6064820152608401610328565b806000805160206107c783398151915261059f565b80356001600160a01b038116811461068957600080fd5b919050565b6000602082840312156106a057600080fd5b61028582610672565b6000806000604084860312156106be57600080fd5b6106c784610672565b925060208401356001600160401b03808211156106e357600080fd5b818601915086601f8301126106f757600080fd5b81358181111561070657600080fd5b87602082850101111561071857600080fd5b6020830194508093505050509250925092565b6000825161073d81846020870161077a565b9190910192915050565b602081526000825180602084015261076681604085016020870161077a565b601f01601f19169190910160400192915050565b60005b8381101561079557818101518382015260200161077d565b838111156103a5575050600091015256feb53127684a568b3173ae13b9f8a6016e243e63b6e8ee1178d6a717850b5d6103360894a13ba1a3210667c828492db98dca3e2076cc3735a920a3ca505d382bbc416464726573733a206c6f772d6c6576656c2064656c65676174652063616c6c206661696c6564a2646970667358221220bf234746908c6f46655f3e5bb4f0abadaeb249c68beba1c928f2af74deb56e2264736f6c63430008070033b53127684a568b3173ae13b9f8a6016e243e63b6e8ee1178d6a717850b5d6103360894a13ba1a3210667c828492db98dca3e2076cc3735a920a3ca505d382bbc416464726573733a206c6f772d6c6576656c2064656c65676174652063616c6c206661696c6564608060405234801561001057600080fd5b5060405161052338038061052383398101604081905261002f91610148565b61003833610047565b61004181610097565b50610178565b600080546001600160a01b038381166001600160a01b0319831681178455604051919092169283917f8be0079c531659141344cd1fd0a4f28419497f9722a3daafe3b4186f6b6457e09190a35050565b6100aa8161014260201b61021f1760201c565b6101205760405162461bcd60e51b815260206004820152603360248201527f5570677261646561626c65426561636f6e3a20696d706c656d656e746174696f60448201527f6e206973206e6f74206120636f6e747261637400000000000000000000000000606482015260840160405180910390fd5b600180546001600160a01b0319166001600160a01b0392909216919091179055565b3b151590565b60006020828403121561015a57600080fd5b81516001600160a01b038116811461017157600080fd5b9392505050565b61039c806101876000396000f3fe608060405234801561001057600080fd5b50600436106100575760003560e01c80633659cfe61461005c5780635c60da1b14610071578063715018a61461009a5780638da5cb5b146100a2578063f2fde38b146100aa575b600080fd5b61006f61006a366004610301565b6100bd565b005b6001546001600160a01b03165b6040516001600160a01b03909116815260200160405180910390f35b61006f610135565b61007e610170565b61006f6100b8366004610301565b61017f565b336100c6610170565b6001600160a01b0316146100f55760405162461bcd60e51b81526004016100ec90610331565b60405180910390fd5b6100fe81610225565b6040516001600160a01b038216907fbc7cd75a20ee27fd9adebab32041f755214dbc6bffa90cc0225b39da2e5c2d3b90600090a250565b3361013e610170565b6001600160a01b0316146101645760405162461bcd60e51b81526004016100ec90610331565b61016e60006102b1565b565b6000546001600160a01b031690565b33610188610170565b6001600160a01b0316146101ae5760405162461bcd60e51b81526004016100ec90610331565b6001600160a01b0381166102135760405162461bcd60e51b815260206004820152602660248201527f4f776e61626c653a206e6577206f776e657220697320746865207a65726f206160448201526564647265737360d01b60648201526084016100ec565b61021c816102b1565b50565b3b151590565b803b61028f5760405162461bcd60e51b815260206004820152603360248201527f5570677261646561626c65426561636f6e3a20696d706c656d656e746174696f6044820152721b881a5cc81b9bdd08184818dbdb9d1c9858dd606a1b60648201526084016100ec565b600180546001600160a01b0319166001600160a01b0392909216919091179055565b600080546001600160a01b038381166001600160a01b0319831681178455604051919092169283917f8be0079c531659141344cd1fd0a4f28419497f9722a3daafe3b4186f6b6457e09190a35050565b60006020828403121561031357600080fd5b81356001600160a01b038116811461032a57600080fd5b9392505050565b6020808252818101527f4f776e61626c653a2063616c6c6572206973206e6f7420746865206f776e657260408201526060019056fea2646970667358221220b1e86d9e5a9827481ff081a46fc0ff448af58190927b3eac96f691d6bcdce0a964736f6c63430008070033a2646970667358221220c0e691be4a071f7cdb0ba816bf34e28c7840c2033b3fb5970a58fd5461fb6afd64736f6c63430008070033608060405234801561001057600080fd5b5061001a3361001f565b61006f565b600080546001600160a01b038381166001600160a01b0319831681178455604051919092169283917f8be0079c531659141344cd1fd0a4f28419497f9722a3daafe3b4186f6b6457e09190a35050565b61073f8061007e6000396000f3fe60806040526004361061006b5760003560e01c8063204e1c7a14610070578063715018a6146100a65780637eff275e146100bd5780638da5cb5b146100dd5780639623609d146100f257806399a88ec414610105578063f2fde38b14610125578063f3b7dead14610145575b600080fd5b34801561007c57600080fd5b5061009061008b3660046104e1565b610165565b60405161009d9190610630565b60405180910390f35b3480156100b257600080fd5b506100bb6101f6565b005b3480156100c957600080fd5b506100bb6100d8366004610522565b61023a565b3480156100e957600080fd5b506100906102cb565b6100bb61010036600461055b565b6102da565b34801561011157600080fd5b506100bb610120366004610522565b610370565b34801561013157600080fd5b506100bb6101403660046104e1565b6103cb565b34801561015157600080fd5b506100906101603660046104e1565b61046b565b6000806000836001600160a01b031660405161018b90635c60da1b60e01b815260040190565b600060405180830381855afa9150503d80600081146101c6576040519150601f19603f3d011682016040523d82523d6000602084013e6101cb565b606091505b5091509150816101da57600080fd5b808060200190518101906101ee9190610505565b949350505050565b336101ff6102cb565b6001600160a01b03161461022e5760405162461bcd60e51b8152600401610225906106a9565b60405180910390fd5b6102386000610491565b565b336102436102cb565b6001600160a01b0316146102695760405162461bcd60e51b8152600401610225906106a9565b6040516308f2839760e41b81526001600160a01b03831690638f28397090610295908490600401610630565b600060405180830381600087803b1580156102af57600080fd5b505af11580156102c3573d6000803e3d6000fd5b505050505050565b6000546001600160a01b031690565b336102e36102cb565b6001600160a01b0316146103095760405162461bcd60e51b8152600401610225906106a9565b60405163278f794360e11b81526001600160a01b03841690634f1ef2869034906103399086908690600401610644565b6000604051808303818588803b15801561035257600080fd5b505af1158015610366573d6000803e3d6000fd5b5050505050505050565b336103796102cb565b6001600160a01b03161461039f5760405162461bcd60e51b8152600401610225906106a9565b604051631b2ce7f360e11b81526001600160a01b03831690633659cfe690610295908490600401610630565b336103d46102cb565b6001600160a01b0316146103fa5760405162461bcd60e51b8152600401610225906106a9565b6001600160a01b03811661045f5760405162461bcd60e51b815260206004820152602660248201527f4f776e61626c653a206e6577206f776e657220697320746865207a65726f206160448201526564647265737360d01b6064820152608401610225565b61046881610491565b50565b6000806000836001600160a01b031660405161018b906303e1469160e61b815260040190565b600080546001600160a01b038381166001600160a01b0319831681178455604051919092169283917f8be0079c531659141344cd1fd0a4f28419497f9722a3daafe3b4186f6b6457e09190a35050565b6000602082840312156104f357600080fd5b81356104fe816106f4565b9392505050565b60006020828403121561051757600080fd5b81516104fe816106f4565b6000806040838503121561053557600080fd5b8235610540816106f4565b91506020830135610550816106f4565b809150509250929050565b60008060006060848603121561057057600080fd5b833561057b816106f4565b9250602084013561058b816106f4565b915060408401356001600160401b03808211156105a757600080fd5b818601915086601f8301126105bb57600080fd5b8135818111156105cd576105cd6106de565b604051601f8201601f19908116603f011681019083821181831017156105f5576105f56106de565b8160405282815289602084870101111561060e57600080fd5b8260208601602083013760006020848301015280955050505050509250925092565b6001600160a01b0391909116815260200190565b60018060a01b038316815260006020604081840152835180604085015260005b8181101561068057858101830151858201606001528201610664565b81811115610692576000606083870101525b50601f01601f191692909201606001949350505050565b6020808252818101527f4f776e61626c653a2063616c6c6572206973206e6f7420746865206f776e6572604082015260600190565b634e487b7160e01b600052604160045260246000fd5b6001600160a01b038116811461046857600080fdfea26469706673582212207240b38990a52bc008f8ef6148c6f36363b8fbb55bee70cee697cb8e4d4c00ce64736f6c63430008070033",
  "immutableReferences": {},
  "source": "// SPDX-License-Identifier: GPL-3.0\r\n\r\npragma solidity 0.8.7;\r\n\r\n/**\r\n * @title Storage\r\n * @dev Store & retrieve value in a variable\r\n */\r\n\r\nimport \"../Interfaces/IProxyManager.sol\";\r\nimport \"../Interfaces/IFactory.sol\";\r\nimport \"../Base/TokenGovernanceBaseContract.sol\";\r\nimport \"../Libraries/AddressLibrary.sol\";\r\nimport \"../Libraries/Library.sol\";\r\nimport \"@openzeppelin/contracts-upgradeable/proxy/utils/Initializable.sol\";\r\nimport \"@openzeppelin/contracts/proxy/beacon/UpgradeableBeacon.sol\";\r\nimport \"@openzeppelin/contracts/proxy/transparent/TransparentUpgradeableProxy.sol\";\r\nimport \"@openzeppelin/contracts/proxy/transparent/ProxyAdmin.sol\";\r\n\r\n\r\ncontract CertificatesPoolManager is IProxyManager, TokenGovernanceBaseContract{\r\n    using AddressLibrary for *;\r\n    using Library for *;\r\n\r\n    // EVENTS /////////////////////////////////////////\r\n    event _NewContracts(address Public, address Treasury, address Certis, address PrivateFactory, \r\n    address Private, address ProviderFactory, address Provider, address PriceConverter);\r\n\r\n    // DATA /////////////////////////////////////////\r\n    // Admin Proxy to manage all the TransparentUpgradeableProxies\r\n    ProxyAdmin private _Admin;\r\n\r\n    // proposition to change\r\n    Library.ProposedContractsStruct private _ProposedContracts;\r\n    \r\n    // Private Certificate Pools Factory\r\n    TransparentUpgradeableProxy private _PrivatePoolFactory;\r\n\r\n    // Private Certificates Pool\r\n    UpgradeableBeacon private _PrivateCertificatePoolBeacon;\r\n\r\n    // Provider Factory\r\n    TransparentUpgradeableProxy private _ProviderFactory;\r\n\r\n    // Provider\r\n    UpgradeableBeacon private _ProviderBeacon;\r\n\r\n    // Public Certificates Pool\r\n    TransparentUpgradeableProxy private _PublicCertificatesPool;\r\n\r\n    // Treasury\r\n    //GenericProxy private _Treasury;\r\n    TransparentUpgradeableProxy private _Treasury;\r\n\r\n    // Certis Token\r\n    TransparentUpgradeableProxy private _CertisToken;\r\n\r\n    // Price Converter\r\n    TransparentUpgradeableProxy private _PriceConverter;\r\n\r\n    // init\r\n    bool private _init;\r\n\r\n    // MODIFIERS /////////////////////////////////////////\r\n    modifier isNotInitialized(){\r\n        require(false == _init, \"EC26-\");\r\n        _;\r\n    }\r\n\r\n    // CONSTRUCTOR and INITIALIZATION /////////////////////////////////////////\r\n    constructor(uint256 PropositionLifeTime, uint8 PropositionThresholdPercentage, uint8 minWeightToProposePercentage, string memory contractName, string memory contractVersion) \r\n    {\r\n        super.TokenGovernanceContract_init(PropositionLifeTime, PropositionThresholdPercentage, minWeightToProposePercentage, msg.sender, address(this), contractName, contractVersion);\r\n        _Admin = new ProxyAdmin();\r\n        _init = false;\r\n    }\r\n\r\n    function InitializeContracts(Library.ProposedContractsStruct calldata initialContracts) \r\n        isFromChairPerson()\r\n        isNotInitialized()\r\n    external override\r\n    {\r\n        initProxies(initialContracts);\r\n        _init = true;\r\n    }\r\n\r\n    // FUNCTIONALITY /////////////////////////////////////////\r\n    // governance : contracts assignment and management\r\n    function upgradeContracts(Library.ProposedContractsStruct calldata UpgradeProposition) external override\r\n    {\r\n        _ProposedContracts = UpgradeProposition;\r\n        addProposition();\r\n    }\r\n\r\n    function propositionApproved() internal override\r\n    {\r\n        upgradeContractsImplementations();\r\n        removeProposition();\r\n    }\r\n\r\n    function propositionRejected() internal override\r\n    {\r\n        removeProposition();\r\n    }\r\n\r\n    function propositionExpired() internal override\r\n    {\r\n        removeProposition();\r\n    }\r\n\r\n    function removeProposition() internal\r\n    {\r\n       delete(_ProposedContracts);\r\n    }\r\n\r\n    function retrieveProposition() external override view returns(bytes32[] memory)\r\n    {\r\n        bytes32[] memory proposition = new bytes32[](8);\r\n        proposition[0] = AddressLibrary.AddressToBytes32(_ProposedContracts.NewPublicPoolAddress);\r\n        proposition[1] = AddressLibrary.AddressToBytes32(_ProposedContracts.NewTreasuryAddress);\r\n        proposition[2] = AddressLibrary.AddressToBytes32(_ProposedContracts.NewCertisTokenAddress);\r\n        proposition[3] = AddressLibrary.AddressToBytes32(_ProposedContracts.NewPrivatePoolFactoryAddress);\r\n        proposition[4] = AddressLibrary.AddressToBytes32(_ProposedContracts.NewPrivatePoolAddress);\r\n        proposition[5] = AddressLibrary.AddressToBytes32(_ProposedContracts.NewProviderFactoryAddress);\r\n        proposition[6] = AddressLibrary.AddressToBytes32(_ProposedContracts.NewProviderAddress);\r\n        proposition[7] = AddressLibrary.AddressToBytes32(_ProposedContracts.NewPriceConverterAddress);\r\n        return proposition;\r\n    }\r\n\r\n    function initProxies(Library.ProposedContractsStruct calldata initialContracts) private\r\n    {\r\n        _PublicCertificatesPool = new TransparentUpgradeableProxy(initialContracts.NewPublicPoolAddress, address(_Admin), initialContracts.NewPublicPoolData);\r\n        _Treasury = new TransparentUpgradeableProxy(initialContracts.NewTreasuryAddress, address(_Admin), initialContracts.NewTreasuryData);\r\n        _CertisToken = new TransparentUpgradeableProxy(initialContracts.NewCertisTokenAddress, address(_Admin), initialContracts.NewCertisTokenData);\r\n        _PrivatePoolFactory = new TransparentUpgradeableProxy(initialContracts.NewPrivatePoolFactoryAddress, address(_Admin), initialContracts.NewPrivatePoolFactoryData);\r\n        _PrivateCertificatePoolBeacon = new UpgradeableBeacon(initialContracts.NewPrivatePoolAddress);\r\n        _ProviderFactory = new TransparentUpgradeableProxy(initialContracts.NewProviderFactoryAddress, address(_Admin), initialContracts.NewProviderFactoryData);\r\n        _ProviderBeacon = new UpgradeableBeacon(initialContracts.NewProviderAddress);\r\n        _PriceConverter = new TransparentUpgradeableProxy(initialContracts.NewPriceConverterAddress, address(_Admin), initialContracts.NewPriceConverterData);\r\n\r\n        IFactory(address(_PrivatePoolFactory)).updateContractName(initialContracts.NewPrivatePoolContractName);\r\n        IFactory(address(_PrivatePoolFactory)).updateContractVersion(initialContracts.NewPrivatePoolContractVersion);\r\n    }\r\n\r\n    function upgradeContractsImplementations() private\r\n    {\r\n        upgradeContractImplementation(_PublicCertificatesPool, _ProposedContracts.NewPublicPoolAddress, _ProposedContracts.NewPublicPoolData);\r\n        upgradeContractImplementation(_Treasury, _ProposedContracts.NewTreasuryAddress, _ProposedContracts.NewTreasuryData);\r\n        upgradeContractImplementation(_CertisToken, _ProposedContracts.NewCertisTokenAddress, _ProposedContracts.NewCertisTokenData);\r\n        upgradeContractImplementation(_PrivatePoolFactory, _ProposedContracts.NewPrivatePoolFactoryAddress, _ProposedContracts.NewPrivatePoolFactoryData);\r\n        upgradeContractImplementation(_ProviderFactory, _ProposedContracts.NewProviderFactoryAddress, _ProposedContracts.NewProviderFactoryData);\r\n        upgradeContractImplementation(_PriceConverter, _ProposedContracts.NewPriceConverterAddress, _ProposedContracts.NewPriceConverterData);\r\n\r\n        if(address(0) != _ProposedContracts.NewPrivatePoolAddress)_PrivateCertificatePoolBeacon.upgradeTo(_ProposedContracts.NewPrivatePoolAddress);\r\n        if(address(0) != _ProposedContracts.NewProviderAddress)_ProviderBeacon.upgradeTo(_ProposedContracts.NewProviderAddress);\r\n\r\n        if(0 < bytes(_ProposedContracts.NewPrivatePoolContractName).length)\r\n            IFactory(address(_PrivatePoolFactory)).updateContractName(_ProposedContracts.NewPrivatePoolContractName);\r\n\r\n        if(0 < bytes(_ProposedContracts.NewPrivatePoolContractVersion).length)\r\n            IFactory(address(_PrivatePoolFactory)).updateContractVersion(_ProposedContracts.NewPrivatePoolContractVersion);\r\n        \r\n        emit _NewContracts(internalRetrieveImpl(_PublicCertificatesPool), internalRetrieveImpl(_Treasury), \r\n        internalRetrieveImpl(_CertisToken), internalRetrieveImpl(_PrivatePoolFactory), \r\n        internalRetrievePrivatePool(), internalRetrieveImpl(_ProviderFactory), internalRetrieveProvider(),\r\n        internalRetrieveImpl(_PriceConverter));\r\n    }\r\n\r\n    function upgradeContractImplementation(TransparentUpgradeableProxy proxy, address NewImpl, bytes memory Data) private\r\n    {\r\n        if(address(0) != NewImpl){\r\n            if(0 < Data.length)_Admin.upgradeAndCall(proxy, NewImpl, Data);\r\n            else _Admin.upgrade(proxy, NewImpl);\r\n        }\r\n    }\r\n\r\n    // configuration Proxies\r\n    function retrievePublicCertificatePoolProxy() external override view returns (address) {\r\n        return (address(_PublicCertificatesPool));\r\n    }\r\n\r\n    function retrieveTreasuryProxy() external override view returns (address) {\r\n        return (address(_Treasury));\r\n    }\r\n\r\n    function retrieveCertisTokenProxy() external override view returns (address) {\r\n        return (address(_CertisToken));\r\n    }\r\n\r\n    function retrievePrivatePoolFactoryProxy() external override view returns (address) {\r\n        return (address(_PrivatePoolFactory));\r\n    }\r\n\r\n    function retrievePrivatePoolBeacon() external override view returns (address) {\r\n        return (address(_PrivateCertificatePoolBeacon));\r\n    }\r\n\r\n    function retrieveProviderFactoryProxy() external override view returns (address) {\r\n        return (address(_ProviderFactory));\r\n    }\r\n\r\n    function retrieveProviderBeacon() external override view returns (address) {\r\n        return (address(_ProviderBeacon));\r\n    }\r\n\r\n     function retrievePriceConverterProxy() external override view returns (address) {\r\n        return (address(_PriceConverter));\r\n    }\r\n\r\n    // configuration implementations\r\n    function retrievePublicCertificatePool() external override view returns (address) {\r\n        return internalRetrieveImpl(_PublicCertificatesPool);\r\n    }\r\n\r\n    function retrieveTreasury() external override view returns (address) {\r\n        return internalRetrieveImpl(_Treasury);\r\n    }\r\n\r\n    function retrieveCertisToken() external override view returns (address) {\r\n        return internalRetrieveImpl(_CertisToken);\r\n    }\r\n\r\n    function retrievePrivatePoolFactory() external override view returns (address) {\r\n        return internalRetrieveImpl(_PrivatePoolFactory);\r\n    }\r\n\r\n    function retrievePrivatePool() external override view returns (address) {\r\n        return internalRetrievePrivatePool();\r\n    }\r\n\r\n    function retrieveProviderFactory() external override view returns (address) {\r\n        return internalRetrieveImpl(_ProviderFactory);\r\n    }\r\n\r\n    function retrieveProvider() external override view returns (address) {\r\n        return internalRetrieveProvider();\r\n    }\r\n\r\n    function retrievePriceConverter() external override view returns (address) {\r\n        return internalRetrieveImpl(_PriceConverter);\r\n    }\r\n\r\n    function isInitialized() external override view returns(bool){\r\n        return _init;\r\n    }\r\n\r\n    // internal\r\n    function internalRetrieveImpl(TransparentUpgradeableProxy proxy) internal view returns (address){\r\n        return _Admin.getProxyImplementation(proxy);\r\n    }\r\n\r\n    function internalRetrievePrivatePool() internal view returns (address) {\r\n        return _PrivateCertificatePoolBeacon.implementation();\r\n    }\r\n\r\n    function internalRetrieveProvider() internal view returns (address) {\r\n        return _ProviderBeacon.implementation();\r\n    }\r\n  \r\n}",
  "sourcePath": "C:/Users/d-aam/GitHub/Certificates/contracts/DeployedContracts/CertificatesPoolManager.sol",
  "compiler": {
    "name": "solc",
    "version": "0.8.7+commit.e28d00a7.Emscripten.clang"
  },
  "schemaVersion": "3.3.4",
  "updatedAt": "2021-10-07T09:18:45.486Z",
  "networkType": "ethereum",
  "devdoc": {
    "kind": "dev",
    "methods": {},
    "version": 1
  },
  "userdoc": {
    "kind": "user",
    "methods": {},
    "version": 1
  }
}