{
  "contractName": "CertisToken",
  "abi": [
    {
      "anonymous": false,
      "inputs": [
        {
          "indexed": true,
          "internalType": "address",
          "name": "owner",
          "type": "address"
        },
        {
          "indexed": true,
          "internalType": "address",
          "name": "spender",
          "type": "address"
        },
        {
          "indexed": false,
          "internalType": "uint256",
          "name": "value",
          "type": "uint256"
        }
      ],
      "name": "Approval",
      "type": "event"
    },
    {
      "anonymous": false,
      "inputs": [
        {
          "indexed": true,
          "internalType": "address",
          "name": "from",
          "type": "address"
        },
        {
          "indexed": true,
          "internalType": "address",
          "name": "to",
          "type": "address"
        },
        {
          "indexed": false,
          "internalType": "uint256",
          "name": "value",
          "type": "uint256"
        }
      ],
      "name": "Transfer",
      "type": "event"
    },
    {
      "inputs": [
        {
          "internalType": "address",
          "name": "owner",
          "type": "address"
        },
        {
          "internalType": "address",
          "name": "spender",
          "type": "address"
        }
      ],
      "name": "allowance",
      "outputs": [
        {
          "internalType": "uint256",
          "name": "",
          "type": "uint256"
        }
      ],
      "stateMutability": "view",
      "type": "function"
    },
    {
      "inputs": [
        {
          "internalType": "address",
          "name": "spender",
          "type": "address"
        },
        {
          "internalType": "uint256",
          "name": "amount",
          "type": "uint256"
        }
      ],
      "name": "approve",
      "outputs": [
        {
          "internalType": "bool",
          "name": "",
          "type": "bool"
        }
      ],
      "stateMutability": "nonpayable",
      "type": "function"
    },
    {
      "inputs": [
        {
          "internalType": "address",
          "name": "account",
          "type": "address"
        }
      ],
      "name": "balanceOf",
      "outputs": [
        {
          "internalType": "uint256",
          "name": "",
          "type": "uint256"
        }
      ],
      "stateMutability": "view",
      "type": "function"
    },
    {
      "inputs": [
        {
          "internalType": "address",
          "name": "spender",
          "type": "address"
        },
        {
          "internalType": "uint256",
          "name": "subtractedValue",
          "type": "uint256"
        }
      ],
      "name": "decreaseAllowance",
      "outputs": [
        {
          "internalType": "bool",
          "name": "",
          "type": "bool"
        }
      ],
      "stateMutability": "nonpayable",
      "type": "function"
    },
    {
      "inputs": [
        {
          "internalType": "address",
          "name": "spender",
          "type": "address"
        },
        {
          "internalType": "uint256",
          "name": "addedValue",
          "type": "uint256"
        }
      ],
      "name": "increaseAllowance",
      "outputs": [
        {
          "internalType": "bool",
          "name": "",
          "type": "bool"
        }
      ],
      "stateMutability": "nonpayable",
      "type": "function"
    },
    {
      "inputs": [],
      "name": "name",
      "outputs": [
        {
          "internalType": "string",
          "name": "",
          "type": "string"
        }
      ],
      "stateMutability": "view",
      "type": "function"
    },
    {
      "inputs": [],
      "name": "symbol",
      "outputs": [
        {
          "internalType": "string",
          "name": "",
          "type": "string"
        }
      ],
      "stateMutability": "view",
      "type": "function"
    },
    {
      "inputs": [],
      "name": "totalSupply",
      "outputs": [
        {
          "internalType": "uint256",
          "name": "",
          "type": "uint256"
        }
      ],
      "stateMutability": "view",
      "type": "function"
    },
    {
      "inputs": [
        {
          "internalType": "address",
          "name": "recipient",
          "type": "address"
        },
        {
          "internalType": "uint256",
          "name": "amount",
          "type": "uint256"
        }
      ],
      "name": "transfer",
      "outputs": [
        {
          "internalType": "bool",
          "name": "",
          "type": "bool"
        }
      ],
      "stateMutability": "nonpayable",
      "type": "function"
    },
    {
      "inputs": [
        {
          "internalType": "address",
          "name": "sender",
          "type": "address"
        },
        {
          "internalType": "address",
          "name": "recipient",
          "type": "address"
        },
        {
          "internalType": "uint256",
          "name": "amount",
          "type": "uint256"
        }
      ],
      "name": "transferFrom",
      "outputs": [
        {
          "internalType": "bool",
          "name": "",
          "type": "bool"
        }
      ],
      "stateMutability": "nonpayable",
      "type": "function"
    },
    {
      "inputs": [
        {
          "internalType": "string",
          "name": "name",
          "type": "string"
        },
        {
          "internalType": "string",
          "name": "symbol",
          "type": "string"
        },
        {
          "internalType": "uint256",
          "name": "MaxSupply",
          "type": "uint256"
        },
        {
          "internalType": "address",
          "name": "managerContractAddress",
          "type": "address"
        },
        {
          "internalType": "uint8",
          "name": "decimalsValue",
          "type": "uint8"
        },
        {
          "internalType": "address",
          "name": "initialOwner",
          "type": "address"
        }
      ],
      "name": "CertisToken_init",
      "outputs": [],
      "stateMutability": "nonpayable",
      "type": "function"
    },
    {
      "inputs": [],
      "name": "decimals",
      "outputs": [
        {
          "internalType": "uint8",
          "name": "",
          "type": "uint8"
        }
      ],
      "stateMutability": "view",
      "type": "function"
    }
  ],
  "bytecode": "0x608060405234801561001057600080fd5b506111d9806100206000396000f3fe608060405234801561001057600080fd5b50600436106100a45760003560e01c806306fdde03146100a9578063095ea7b3146100c757806318160ddd146100ea57806323b872dd146100fc578063313ce5671461010f57806339509351146101245780635181111e1461013757806370a082311461014c57806395d89b4114610175578063a457c2d71461017d578063a9059cbb14610190578063dd62ed3e146101a3575b600080fd5b6100b16101dc565b6040516100be9190611054565b60405180910390f35b6100da6100d5366004610f37565b61026e565b60405190151581526020016100be565b6035545b6040519081526020016100be565b6100da61010a366004610ef6565b610284565b60655460405160ff90911681526020016100be565b6100da610132366004610f37565b610333565b61014a610145366004610f85565b61036f565b005b6100ee61015a366004610e7c565b6001600160a01b031660009081526033602052604090205490565b6100b161040d565b6100da61018b366004610f37565b61041c565b6100da61019e366004610f37565b6104b5565b6100ee6101b1366004610ebd565b6001600160a01b03918216600090815260346020908152604080832093909416825291909152205490565b6060603680546101eb9061111d565b80601f01602080910402602001604051908101604052809291908181526020018280546102179061111d565b80156102645780601f1061023957610100808354040283529160200191610264565b820191906000526020600020905b81548152906001019060200180831161024757829003601f168201915b5050505050905090565b600061027b3384846104c2565b50600192915050565b60006102918484846105e6565b6001600160a01b03841660009081526034602090815260408083203384529091529020548281101561031b5760405162461bcd60e51b815260206004820152602860248201527f45524332303a207472616e7366657220616d6f756e74206578636565647320616044820152676c6c6f77616e636560c01b60648201526084015b60405180910390fd5b61032885338584036104c2565b506001949350505050565b3360008181526034602090815260408083206001600160a01b0387168452909152812054909161027b91859061036a9086906110f7565b6104c2565b600054610100900460ff1680610388575060005460ff16155b6103a45760405162461bcd60e51b8152600401610312906110a9565b600054610100900460ff161580156103c6576000805461ffff19166101011790555b6103cf846107ae565b6103d9878761083d565b6065805460ff191660ff85161790556103f282866108bd565b8015610404576000805461ff00191690555b50505050505050565b6060603780546101eb9061111d565b3360009081526034602090815260408083206001600160a01b03861684529091528120548281101561049e5760405162461bcd60e51b815260206004820152602560248201527f45524332303a2064656372656173656420616c6c6f77616e63652062656c6f77604482015264207a65726f60d81b6064820152608401610312565b6104ab33858584036104c2565b5060019392505050565b600061027b3384846105e6565b6001600160a01b0383166105245760405162461bcd60e51b8152602060048201526024808201527f45524332303a20617070726f76652066726f6d20746865207a65726f206164646044820152637265737360e01b6064820152608401610312565b6001600160a01b0382166105855760405162461bcd60e51b815260206004820152602260248201527f45524332303a20617070726f766520746f20746865207a65726f206164647265604482015261737360f01b6064820152608401610312565b6001600160a01b0383811660008181526034602090815260408083209487168084529482529182902085905590518481527f8c5be1e5ebec7d5bd14f71427d1e84f3dd0314c0f7b2291e5b200ac8c7c3b925910160405180910390a3505050565b6001600160a01b03831661064a5760405162461bcd60e51b815260206004820152602560248201527f45524332303a207472616e736665722066726f6d20746865207a65726f206164604482015264647265737360d81b6064820152608401610312565b6001600160a01b0382166106ac5760405162461bcd60e51b815260206004820152602360248201527f45524332303a207472616e7366657220746f20746865207a65726f206164647260448201526265737360e81b6064820152608401610312565b6106b7838383610996565b6001600160a01b0383166000908152603360205260409020548181101561072f5760405162461bcd60e51b815260206004820152602660248201527f45524332303a207472616e7366657220616d6f756e7420657863656564732062604482015265616c616e636560d01b6064820152608401610312565b6001600160a01b038085166000908152603360205260408082208585039055918516815290812080548492906107669084906110f7565b92505081905550826001600160a01b0316846001600160a01b0316600080516020611184833981519152846040516107a091815260200190565b60405180910390a350505050565b600054610100900460ff16806107c7575060005460ff16155b6107e35760405162461bcd60e51b8152600401610312906110a9565b600054610100900460ff16158015610805576000805461ffff19166101011790555b6000805462010000600160b01b031916620100006001600160a01b038516021790558015610839576000805461ff00191690555b5050565b600054610100900460ff1680610856575060005460ff16155b6108725760405162461bcd60e51b8152600401610312906110a9565b600054610100900460ff16158015610894576000805461ffff19166101011790555b61089c610c56565b6108a68383610cc2565b80156108b8576000805461ff00191690555b505050565b6001600160a01b0382166109135760405162461bcd60e51b815260206004820152601f60248201527f45524332303a206d696e7420746f20746865207a65726f2061646472657373006044820152606401610312565b61091f60008383610996565b806035600082825461093191906110f7565b90915550506001600160a01b0382166000908152603360205260408120805483929061095e9084906110f7565b90915550506040518181526001600160a01b038316906000906000805160206111848339815191529060200160405180910390a35050565b600060029054906101000a90046001600160a01b03166001600160a01b031663392e53cd6040518163ffffffff1660e01b815260040160206040518083038186803b1580156109e457600080fd5b505afa1580156109f8573d6000803e3d6000fd5b505050506040513d601f19601f82011682018060405250810190610a1c9190610f63565b156108b857600060029054906101000a90046001600160a01b03166001600160a01b0316635a3794e96040518163ffffffff1660e01b815260040160206040518083038186803b158015610a6f57600080fd5b505afa158015610a83573d6000803e3d6000fd5b505050506040513d601f19601f82011682018060405250810190610aa79190610ea0565b6001600160a01b0316633c7df55d8484846040518463ffffffff1660e01b8152600401610ad693929190611030565b600060405180830381600087803b158015610af057600080fd5b505af1158015610b04573d6000803e3d6000fd5b50505050600060029054906101000a90046001600160a01b03166001600160a01b031663602554156040518163ffffffff1660e01b815260040160206040518083038186803b158015610b5657600080fd5b505afa158015610b6a573d6000803e3d6000fd5b505050506040513d601f19601f82011682018060405250810190610b8e9190610ea0565b6001600160a01b0316633c7df55d8484846040518463ffffffff1660e01b8152600401610bbd93929190611030565b600060405180830381600087803b158015610bd757600080fd5b505af1158015610beb573d6000803e3d6000fd5b5050600054604051633c7df55d60e01b8152620100009091046001600160a01b03169250633c7df55d9150610c2890869086908690600401611030565b600060405180830381600087803b158015610c4257600080fd5b505af1158015610404573d6000803e3d6000fd5b600054610100900460ff1680610c6f575060005460ff16155b610c8b5760405162461bcd60e51b8152600401610312906110a9565b600054610100900460ff16158015610cad576000805461ffff19166101011790555b8015610cbf576000805461ff00191690555b50565b600054610100900460ff1680610cdb575060005460ff16155b610cf75760405162461bcd60e51b8152600401610312906110a9565b600054610100900460ff16158015610d19576000805461ffff19166101011790555b8251610d2c906036906020860190610d57565b508151610d40906037906020850190610d57565b5080156108b8576000805461ff0019169055505050565b828054610d639061111d565b90600052602060002090601f016020900481019282610d855760008555610dcb565b82601f10610d9e57805160ff1916838001178555610dcb565b82800160010185558215610dcb579182015b82811115610dcb578251825591602001919060010190610db0565b50610dd7929150610ddb565b5090565b5b80821115610dd75760008155600101610ddc565b600082601f830112610e0157600080fd5b81356001600160401b0380821115610e1b57610e1b611158565b604051601f8301601f19908116603f01168101908282118183101715610e4357610e43611158565b81604052838152866020858801011115610e5c57600080fd5b836020870160208301376000602085830101528094505050505092915050565b600060208284031215610e8e57600080fd5b8135610e998161116e565b9392505050565b600060208284031215610eb257600080fd5b8151610e998161116e565b60008060408385031215610ed057600080fd5b8235610edb8161116e565b91506020830135610eeb8161116e565b809150509250929050565b600080600060608486031215610f0b57600080fd5b8335610f168161116e565b92506020840135610f268161116e565b929592945050506040919091013590565b60008060408385031215610f4a57600080fd5b8235610f558161116e565b946020939093013593505050565b600060208284031215610f7557600080fd5b81518015158114610e9957600080fd5b60008060008060008060c08789031215610f9e57600080fd5b86356001600160401b0380821115610fb557600080fd5b610fc18a838b01610df0565b97506020890135915080821115610fd757600080fd5b50610fe489828a01610df0565b955050604087013593506060870135610ffc8161116e565b9250608087013560ff8116811461101257600080fd5b915060a08701356110228161116e565b809150509295509295509295565b6001600160a01b039384168152919092166020820152604081019190915260600190565b600060208083528351808285015260005b8181101561108157858101830151858201604001528201611065565b81811115611093576000604083870101525b50601f01601f1916929092016040019392505050565b6020808252602e908201527f496e697469616c697a61626c653a20636f6e747261637420697320616c72656160408201526d191e481a5b9a5d1a585b1a5e995960921b606082015260800190565b6000821982111561111857634e487b7160e01b600052601160045260246000fd5b500190565b600181811c9082168061113157607f821691505b6020821081141561115257634e487b7160e01b600052602260045260246000fd5b50919050565b634e487b7160e01b600052604160045260246000fd5b6001600160a01b0381168114610cbf57600080fdfeddf252ad1be2c89b69c2b068fc378daa952ba7f163c4a11628f55a4df523b3efa264697066735822122018cb159c4d9eed4fa2a0f1b14ff6f805c8442e8aeccfb8dd520d19721cd461d864736f6c63430008070033",
  "immutableReferences": {},
  "source": "// SPDX-License-Identifier: GPL-3.0\r\n\r\npragma solidity 0.8.7;\r\n\r\n/**\r\n Certis Token is an ERC20 Token that grants its holder the right to:\r\n   - Vote on all the systems propositions (changing system configuraiton etc...)\r\n   - Receive Dividends for all the payments forwarded to the Treasury contract\r\n\r\nBefore every token transfer we contact the token gouvernance Base contracts so that the can update the tokens used for voting if needed\r\n\r\n */\r\n\r\nimport \"@openzeppelin/contracts-upgradeable/token/ERC20/ERC20Upgradeable.sol\";\r\nimport \"@openzeppelin/contracts-upgradeable/proxy/utils/Initializable.sol\";\r\nimport \"../Libraries/AddressLibrary.sol\";\r\nimport \"../Interfaces/ITokenEventSubscriber.sol\";\r\nimport \"../Base/ManagedBaseContract.sol\";\r\n\r\n contract CertisToken is  Initializable, ManagedBaseContract, ERC20Upgradeable {\r\n    using AddressLibrary for *;\r\n\r\n    // DATA /////////////////////////////////////////\r\n    // decimals\r\n    uint8 private _decimals;\r\n\r\n    // CONSTRUCTOR /////////////////////////////////////////\r\n    function CertisToken_init(string memory name, string memory symbol, uint256 MaxSupply, address managerContractAddress, uint8 decimalsValue, address initialOwner) public initializer {\r\n        super.ManagedBaseContract_init(managerContractAddress);\r\n        super.__ERC20_init(name, symbol);\r\n    \r\n        _decimals = decimalsValue;\r\n        _mint(initialOwner, MaxSupply);\r\n    }\r\n\r\n    // FUNCTIONALITY /////////////////////////////////////////\r\n    function decimals() public view override returns (uint8) \r\n    {\r\n        return _decimals;\r\n    }\r\n\r\n    function _beforeTokenTransfer(address from, address to, uint256 amount) internal override \r\n    {\r\n        if(_managerContract.isInitialized()){\r\n            ITokenEventSubscriber(_managerContract.retrieveTreasuryProxy()).onTokenBalanceChanged(from, to, amount);\r\n            ITokenEventSubscriber(_managerContract.retrievePriceConverterProxy()).onTokenBalanceChanged(from, to, amount);\r\n            ITokenEventSubscriber(address(_managerContract)).onTokenBalanceChanged(from, to, amount);\r\n        } \r\n    }\r\n\r\n }",
  "sourcePath": "C:/Users/d-aam/GitHub/Certificates/contracts/DeployedContracts/CertisToken.sol",
  "compiler": {
    "name": "solc",
    "version": "0.8.7+commit.e28d00a7.Emscripten.clang"
  },
  "schemaVersion": "3.3.4",
  "updatedAt": "2021-09-14T06:18:58.390Z",
  "devdoc": {
    "kind": "dev",
    "methods": {
      "allowance(address,address)": {
        "details": "See {IERC20-allowance}."
      },
      "approve(address,uint256)": {
        "details": "See {IERC20-approve}. Requirements: - `spender` cannot be the zero address."
      },
      "balanceOf(address)": {
        "details": "See {IERC20-balanceOf}."
      },
      "decimals()": {
        "details": "Returns the number of decimals used to get its user representation. For example, if `decimals` equals `2`, a balance of `505` tokens should be displayed to a user as `5,05` (`505 / 10 ** 2`). Tokens usually opt for a value of 18, imitating the relationship between Ether and Wei. This is the value {ERC20} uses, unless this function is overridden; NOTE: This information is only used for _display_ purposes: it in no way affects any of the arithmetic of the contract, including {IERC20-balanceOf} and {IERC20-transfer}."
      },
      "decreaseAllowance(address,uint256)": {
        "details": "Atomically decreases the allowance granted to `spender` by the caller. This is an alternative to {approve} that can be used as a mitigation for problems described in {IERC20-approve}. Emits an {Approval} event indicating the updated allowance. Requirements: - `spender` cannot be the zero address. - `spender` must have allowance for the caller of at least `subtractedValue`."
      },
      "increaseAllowance(address,uint256)": {
        "details": "Atomically increases the allowance granted to `spender` by the caller. This is an alternative to {approve} that can be used as a mitigation for problems described in {IERC20-approve}. Emits an {Approval} event indicating the updated allowance. Requirements: - `spender` cannot be the zero address."
      },
      "name()": {
        "details": "Returns the name of the token."
      },
      "symbol()": {
        "details": "Returns the symbol of the token, usually a shorter version of the name."
      },
      "totalSupply()": {
        "details": "See {IERC20-totalSupply}."
      },
      "transfer(address,uint256)": {
        "details": "See {IERC20-transfer}. Requirements: - `recipient` cannot be the zero address. - the caller must have a balance of at least `amount`."
      },
      "transferFrom(address,address,uint256)": {
        "details": "See {IERC20-transferFrom}. Emits an {Approval} event indicating the updated allowance. This is not required by the EIP. See the note at the beginning of {ERC20}. Requirements: - `sender` and `recipient` cannot be the zero address. - `sender` must have a balance of at least `amount`. - the caller must have allowance for ``sender``'s tokens of at least `amount`."
      }
    },
    "version": 1
  },
  "userdoc": {
    "kind": "user",
    "methods": {},
    "version": 1
  }
}