{
  "contractName": "CertificatesPoolManager",
  "abi": [
    {
      "inputs": [
        {
          "internalType": "uint256",
          "name": "PropositionLifeTime",
          "type": "uint256"
        },
        {
          "internalType": "uint8",
          "name": "PropositionThresholdPercentage",
          "type": "uint8"
        },
        {
          "internalType": "uint8",
          "name": "minWeightToProposePercentage",
          "type": "uint8"
        }
      ],
      "stateMutability": "nonpayable",
      "type": "constructor"
    },
    {
      "inputs": [],
      "name": "cancelProposition",
      "outputs": [],
      "stateMutability": "nonpayable",
      "type": "function"
    },
    {
      "inputs": [],
      "name": "retrievePropConfig",
      "outputs": [
        {
          "internalType": "uint256",
          "name": "",
          "type": "uint256"
        },
        {
          "internalType": "uint8",
          "name": "",
          "type": "uint8"
        },
        {
          "internalType": "uint8",
          "name": "",
          "type": "uint8"
        }
      ],
      "stateMutability": "view",
      "type": "function"
    },
    {
      "inputs": [],
      "name": "retrievePropositionStatus",
      "outputs": [
        {
          "internalType": "address",
          "name": "",
          "type": "address"
        },
        {
          "internalType": "uint256",
          "name": "",
          "type": "uint256"
        },
        {
          "internalType": "uint256",
          "name": "",
          "type": "uint256"
        },
        {
          "internalType": "uint256",
          "name": "",
          "type": "uint256"
        },
        {
          "internalType": "uint256",
          "name": "",
          "type": "uint256"
        },
        {
          "internalType": "address[]",
          "name": "",
          "type": "address[]"
        },
        {
          "internalType": "uint256[]",
          "name": "",
          "type": "uint256[]"
        },
        {
          "internalType": "address[]",
          "name": "",
          "type": "address[]"
        }
      ],
      "stateMutability": "view",
      "type": "function"
    },
    {
      "inputs": [
        {
          "internalType": "uint256",
          "name": "PropLifeTime",
          "type": "uint256"
        },
        {
          "internalType": "uint8",
          "name": "PropThresholdPerc",
          "type": "uint8"
        },
        {
          "internalType": "uint8",
          "name": "minWeightToPropPerc",
          "type": "uint8"
        }
      ],
      "name": "updateProp",
      "outputs": [],
      "stateMutability": "nonpayable",
      "type": "function"
    },
    {
      "inputs": [
        {
          "internalType": "bool",
          "name": "vote",
          "type": "bool"
        }
      ],
      "name": "voteProposition",
      "outputs": [],
      "stateMutability": "nonpayable",
      "type": "function"
    },
    {
      "inputs": [
        {
          "internalType": "address payable",
          "name": "PublicPoolProxyAddress",
          "type": "address"
        },
        {
          "internalType": "address payable",
          "name": "TreasuryProxyAddress",
          "type": "address"
        },
        {
          "internalType": "address payable",
          "name": "CertisTokenProxyAddress",
          "type": "address"
        },
        {
          "internalType": "address payable",
          "name": "PrivatePoolGeneratorProxyAddress",
          "type": "address"
        }
      ],
      "name": "InitializeContracts",
      "outputs": [],
      "stateMutability": "nonpayable",
      "type": "function"
    },
    {
      "inputs": [
        {
          "internalType": "address",
          "name": "PublicPoolAddress",
          "type": "address"
        },
        {
          "internalType": "address",
          "name": "TreasuryAddress",
          "type": "address"
        },
        {
          "internalType": "address",
          "name": "CertisTokenAddress",
          "type": "address"
        },
        {
          "internalType": "address",
          "name": "PrivatePoolGeneratorAddress",
          "type": "address"
        },
        {
          "internalType": "address",
          "name": "PrivatePoolImplAddress",
          "type": "address"
        }
      ],
      "name": "updateContracts",
      "outputs": [],
      "stateMutability": "nonpayable",
      "type": "function"
    },
    {
      "inputs": [],
      "name": "retrieveProposition",
      "outputs": [
        {
          "internalType": "string[]",
          "name": "",
          "type": "string[]"
        }
      ],
      "stateMutability": "view",
      "type": "function"
    },
    {
      "inputs": [],
      "name": "retrieveConfiguration",
      "outputs": [
        {
          "internalType": "address",
          "name": "",
          "type": "address"
        },
        {
          "internalType": "address",
          "name": "",
          "type": "address"
        },
        {
          "internalType": "address",
          "name": "",
          "type": "address"
        },
        {
          "internalType": "address",
          "name": "",
          "type": "address"
        },
        {
          "internalType": "address",
          "name": "",
          "type": "address"
        },
        {
          "internalType": "uint256",
          "name": "",
          "type": "uint256"
        }
      ],
      "stateMutability": "view",
      "type": "function"
    }
  ],
  "bytecode": "0x60806040523480156200001157600080fd5b5060405162002914380380620029148339810160408190526200003491620009f8565b6200004d838383336200006360201b62000add1760201c565b50506016805460ff60a01b191690555062000bb0565b600054610100900460ff16806200007d575060005460ff16155b620000e65760405162461bcd60e51b815260206004820152602e60248201527f496e697469616c697a61626c653a20636f6e747261637420697320616c72656160448201526d191e481a5b9a5d1a585b1a5e995960921b60648201526084015b60405180910390fd5b600054610100900460ff1615801562000109576000805461ffff19166101011790555b6000805462010000600160b01b031916620100006001600160a01b038516021790556200013a858585600162000154565b80156200014d576000805461ff00191690555b5050505050565b82828160ff16606410156200017d5760405162461bcd60e51b8152600401620000dd9062000a97565b8060ff1660641015620001a45760405162461bcd60e51b8152600401620000dd9062000a97565b8215620001d157600a869055600b805460ff8681166101000261ffff19909216908816171790556200021e565b600c869055600d805460ff8681166101000261ffff1990921690881617179055600e805460ff19166001179055600a546200021e9062000212904262000b0e565b600b5460ff1662000226565b505050505050565b600062000232620003a6565b156200026a5760405162461bcd60e51b8152600401620000dd906020808252600490820152631150cc8d60e21b604082015260600190565b6200027533620003e6565b1515600114620002b15760405162461bcd60e51b8152600401620000dd9060208082526004908201526322a1991960e11b604082015260600190565b620002bb620004ac565b8051620002d1916007916020909101906200078c565b506007546200033e5760405162461bcd60e51b815260206004820152603260248201527f496d706f737369626c6520746f206164642070726f706f736974696f6e2c20746044820152716865726520617265206e6f2061646d696e7360701b6064820152608401620000dd565b600280546001600160a01b031916331790556003839055606460ff83166200036562000545565b62000371919062000b4c565b6200037d919062000b29565b6004556200038a620005cb565b8051620003a091600891602090910190620007f6565b50505050565b600354600090421015620003ba5750600190565b6002546001600160a01b031615620003e057620003d662000664565b620003e0620006a0565b50600090565b600080546201000090046001600160a01b03163314156200040957506001919050565b600062000415620004ac565b9050600062000423620005cb565b90506000620004338584620006f7565b905082518110156200049c5760646200044b62000545565b600b54620004629190610100900460ff1662000b4c565b6200046e919062000b29565b82828151811062000483576200048362000b84565b6020026020010151106200049c57506001949350505050565b506000949350505050565b919050565b60606000600160009054906101000a90046001600160a01b03166001600160a01b03166388d44ee06040518163ffffffff1660e01b815260040160006040518083038186803b158015620004ff57600080fd5b505afa15801562000514573d6000803e3d6000fd5b505050506040513d6000823e601f3d908101601f191682016040526200053e9190810190620008fa565b5092915050565b600154604080516318160ddd60e01b815290516000926001600160a01b0316916318160ddd916004808301926020929190829003018186803b1580156200058b57600080fd5b505afa158015620005a0573d6000803e3d6000fd5b505050506040513d601f19601f82011682018060405250810190620005c69190620009de565b905090565b60606000600160009054906101000a90046001600160a01b03166001600160a01b03166388d44ee06040518163ffffffff1660e01b815260040160006040518083038186803b1580156200061e57600080fd5b505afa15801562000633573d6000803e3d6000fd5b505050506040513d6000823e601f3d908101601f191682016040526200065d9190810190620008fa565b9392505050565b6200069e600f80546001600160a01b0319908116909155601080548216905560118054821690556012805482169055601380549091169055565b565b600280546001600160a01b031916815560006003819055600481905560058190556006819055620006d360078262000834565b620006e360068301600062000834565b620006f360078301600062000834565b5050565b60405160016219125f60e01b0319815260009073__AddressLibrary________________________9063ffe6eda19062000738908690869060040162000a39565b60206040518083038186803b1580156200075157600080fd5b505af415801562000766573d6000803e3d6000fd5b505050506040513d601f19601f820116820180604052508101906200065d9190620009de565b828054828255906000526020600020908101928215620007e4579160200282015b82811115620007e457825182546001600160a01b0319166001600160a01b03909116178255602090920191600190910190620007ad565b50620007f292915062000857565b5090565b828054828255906000526020600020908101928215620007e4579160200282015b82811115620007e457825182559160200191906001019062000817565b508054600082559060005260206000209081019062000854919062000857565b50565b5b80821115620007f2576000815560010162000858565b600082601f8301126200088057600080fd5b8151602062000899620008938362000ae8565b62000ab5565b80838252828201915082860187848660051b8901011115620008ba57600080fd5b60005b85811015620008db57815184529284019290840190600101620008bd565b5090979650505050505050565b805160ff81168114620004a757600080fd5b600080604083850312156200090e57600080fd5b82516001600160401b03808211156200092657600080fd5b818501915085601f8301126200093b57600080fd5b815160206200094e620008938362000ae8565b8083825282820191508286018a848660051b89010111156200096f57600080fd5b600096505b84871015620009aa5780516001600160a01b03811681146200099557600080fd5b83526001969096019591830191830162000974565b5091880151919650909350505080821115620009c557600080fd5b50620009d4858286016200086e565b9150509250929050565b600060208284031215620009f157600080fd5b5051919050565b60008060006060848603121562000a0e57600080fd5b8351925062000a2060208501620008e8565b915062000a3060408501620008e8565b90509250925092565b6001600160a01b038381168252604060208084018290528451918401829052600092858201929091906060860190855b8181101562000a8957855185168352948301949183019160010162000a69565b509098975050505050505050565b6020808252600490820152634543323160e01b604082015260600190565b604051601f8201601f191681016001600160401b038111828210171562000ae05762000ae062000b9a565b604052919050565b60006001600160401b0382111562000b045762000b0462000b9a565b5060051b60200190565b6000821982111562000b245762000b2462000b6e565b500190565b60008262000b4757634e487b7160e01b600052601260045260246000fd5b500490565b600081600019048311821515161562000b695762000b6962000b6e565b500290565b634e487b7160e01b600052601160045260246000fd5b634e487b7160e01b600052603260045260246000fd5b634e487b7160e01b600052604160045260246000fd5b611d548062000bc06000396000f3fe608060405234801561001057600080fd5b50600436106100835760003560e01c806355457ee9146100885780635fb6658a14610092578063650a2b46146100a5578063840f6d17146100b857806391f91671146100dd578063a4a78896146100f0578063a93316f514610145578063ac2bb4421461015a578063d660ab341461016d575b600080fd5b610090610199565b005b6100906100a03660046116f9565b610202565b6100906100b336600461169d565b61027b565b6100c06103b2565b6040516100d4989796959493929190611a78565b60405180910390f35b6100906100eb366004611835565b610522565b601554601654600154601454600054604080516001600160a01b0396871681529486166020860152928516928401929092528316606083015262010000900490911660808201524760a082015260c0016100d4565b61014d6107c1565b6040516100d49190611b0d565b61009061016836600461191b565b610acb565b600a54600b546040805192835260ff8083166020850152610100909204909116908201526060016100d4565b60016101a3610bc2565b15156001146101cd5760405162461bcd60e51b81526004016101c490611ba5565b60405180910390fd5b6002546001600160a01b031633146101f75760405162461bcd60e51b81526004016101c490611b87565b6101ff610bfc565b50565b600f80546001600160a01b03199081166001600160a01b038881169190911790925560108054821687841617905560118054821686841617905560128054821685841617905560138054909116918316919091179055600a54610274906102699042611c34565b600b5460ff16610c49565b5050505050565b600054604051630d1d719d60e41b815273__Library_______________________________9163d1d719d0916102c3916201000090046001600160a01b0316906004016119b7565b60206040518083038186803b1580156102db57600080fd5b505af41580156102ef573d6000803e3d6000fd5b505050506040513d601f19601f820116820180604052508101906103139190611852565b151560011461034a5760405162461bcd60e51b815260206004820152600360248201526208a86760eb1b60448201526064016101c4565b601654600160a01b900460ff161561038d5760405162461bcd60e51b81526004016101c49060208082526004908201526322a1991b60e11b604082015260600190565b6016805460ff60a01b1916600160a01b1790556103ac84848484610d92565b50505050565b60008060008060006060806060600260000160009054906101000a90046001600160a01b031660026001015460028001546002600301546002600401546002600501600260060160026007018280548060200260200160405190810160405280929190818152602001828054801561045357602002820191906000526020600020905b81546001600160a01b03168152600190910190602001808311610435575b50505050509250818054806020026020016040519081016040528092919081815260200182805480156104a557602002820191906000526020600020905b815481526020019060010190808311610491575b505050505091508080548060200260200160405190810160405280929190818152602001828054801561050157602002820191906000526020600020905b81546001600160a01b031681526001909101906020018083116104e3575b50505050509050975097509750975097509750975097509091929394959697565b600161052c610bc2565b151560011461054d5760405162461bcd60e51b81526004016101c490611ba5565b6105b43360026005018054806020026020016040519081016040528092919081815260200182805480156105aa57602002820191906000526020600020905b81546001600160a01b0316815260019091019060200180831161058c575b5050505050610de4565b15156001146105ee5760405162461bcd60e51b81526004016101c4906020808252600490820152634543323360e01b604082015260600190565b60405163f7cf62d760e01b815273__AddressLibrary________________________9063f7cf62d790610628903390600990600401611a27565b60206040518083038186803b15801561064057600080fd5b505af4158015610654573d6000803e3d6000fd5b505050506040513d601f19601f820116820180604052508101906106789190611852565b156106ab5760405162461bcd60e51b815260206004820152600360248201526245433560e81b60448201526064016101c4565b60035442101561079957600980546001810182556000919091527f6e1540171b6c0c960b71a7020d9f60077f6af931a8bbf590da0223dacf75c7af0180546001600160a01b03191633179055811561074a5760086107103361070b610dfa565b610e8f565b8154811061072057610720611ccf565b90600052602060002001546002600301600082825461073f9190611c34565b9091555061078d9050565b60086107583361070b610dfa565b8154811061076857610768611ccf565b9060005260206000200154600260040160008282546107879190611c34565b90915550505b610795610f25565b5050565b600e5460ff16156107b1576107ac610fb0565b6107b9565b6107b9610fcc565b610795610bfc565b60408051600480825260a0820190925260609160009190816020015b60608152602001906001900390816107dd575050600f546040516344b9f69d60e11b815291925073__AddressLibrary________________________91638973ed3a91610838916001600160a01b03909116906004016119b7565b60006040518083038186803b15801561085057600080fd5b505af4158015610864573d6000803e3d6000fd5b505050506040513d6000823e601f3d908101601f1916820160405261088c919081019061186f565b8160008151811061089f5761089f611ccf565b60209081029190910101526010546040516344b9f69d60e11b815273__AddressLibrary________________________91638973ed3a916108ec916001600160a01b0316906004016119b7565b60006040518083038186803b15801561090457600080fd5b505af4158015610918573d6000803e3d6000fd5b505050506040513d6000823e601f3d908101601f19168201604052610940919081019061186f565b8160018151811061095357610953611ccf565b60209081029190910101526011546040516344b9f69d60e11b815273__AddressLibrary________________________91638973ed3a916109a0916001600160a01b0316906004016119b7565b60006040518083038186803b1580156109b857600080fd5b505af41580156109cc573d6000803e3d6000fd5b505050506040513d6000823e601f3d908101601f191682016040526109f4919081019061186f565b81600281518110610a0757610a07611ccf565b60209081029190910101526012546040516344b9f69d60e11b815273__AddressLibrary________________________91638973ed3a91610a54916001600160a01b0316906004016119b7565b60006040518083038186803b158015610a6c57600080fd5b505af4158015610a80573d6000803e3d6000fd5b505050506040513d6000823e601f3d908101601f19168201604052610aa8919081019061186f565b81600381518110610abb57610abb611ccf565b6020908102919091010152919050565b610ad88383836000611005565b505050565b600054610100900460ff1680610af6575060005460ff16155b610b595760405162461bcd60e51b815260206004820152602e60248201527f496e697469616c697a61626c653a20636f6e747261637420697320616c72656160448201526d191e481a5b9a5d1a585b1a5e995960921b60648201526084016101c4565b600054610100900460ff16158015610b7b576000805461ffff19166101011790555b6000805462010000600160b01b031916620100006001600160a01b03851602179055610baa8585856001611005565b8015610274576000805461ff00191690555050505050565b600354600090421015610bd55750600190565b6002546001600160a01b031615610bf657610bee610fcc565b610bf6610bfc565b50600090565b600280546001600160a01b031916815560006003819055600481905560058190556006819055610c2d600782611547565b610c3b600683016000611547565b610795600783016000611547565b6000610c53610bc2565b15610c895760405162461bcd60e51b81526004016101c4906020808252600490820152631150cc8d60e21b604082015260600190565b610c92336110c0565b1515600114610cb35760405162461bcd60e51b81526004016101c490611b87565b610cbb610dfa565b8051610ccf91600791602090910190611565565b50600754610d3a5760405162461bcd60e51b815260206004820152603260248201527f496d706f737369626c6520746f206164642070726f706f736974696f6e2c20746044820152716865726520617265206e6f2061646d696e7360701b60648201526084016101c4565b600280546001600160a01b031916331790556003839055606460ff8316610d5f611174565b610d699190611c6e565b610d739190611c4c565b600455610d7e6111f6565b80516103ac916008916020909101906115ca565b601580546001600160a01b038087166001600160a01b031992831617909255601680548684169083161790556001805485841690831617905560148054928416929091169190911790556103ac611284565b60008151610df28484610e8f565b109392505050565b60606000600160009054906101000a90046001600160a01b03166001600160a01b03166388d44ee06040518163ffffffff1660e01b815260040160006040518083038186803b158015610e4c57600080fd5b505afa158015610e60573d6000803e3d6000fd5b505050506040513d6000823e601f3d908101601f19168201604052610e88919081019061176a565b5092915050565b60405160016219125f60e01b0319815260009073__AddressLibrary________________________9063ffe6eda190610ece90869086906004016119cb565b60206040518083038186803b158015610ee657600080fd5b505af4158015610efa573d6000803e3d6000fd5b505050506040513d601f19601f82011682018060405250810190610f1e9190611902565b9392505050565b6004546005541115610f8957600e5460ff1615610f7757600c54600a55600d54600b805461010080840460ff90811690910261ffff19909216931692909217919091179055610f72610fb0565b610f7f565b610f7f6113b9565b610f87610bfc565b565b6004546006541115610f8757600e5460ff1615610fa857610f72610fb0565b610f7f610fcc565b6000600c55600d805461ffff19169055600e805460ff19169055565b610f87600f80546001600160a01b0319908116909155601080548216905560118054821690556012805482169055601380549091169055565b82828160ff166064101561102b5760405162461bcd60e51b81526004016101c490611bc3565b8060ff166064101561104f5760405162461bcd60e51b81526004016101c490611bc3565b821561107a57600a869055600b805460ff8681166101000261ffff19909216908816171790556110b8565b600c869055600d805460ff8681166101000261ffff1990921690881617179055600e805460ff19166001179055600a546110b8906102699042611c34565b505050505050565b600080546201000090046001600160a01b03163314156110e257506001919050565b60006110ec610dfa565b905060006110f86111f6565b905060006111068584610e8f565b9050825181101561116457606461111b611174565b600b546111309190610100900460ff16611c6e565b61113a9190611c4c565b82828151811061114c5761114c611ccf565b60200260200101511061116457506001949350505050565b506000949350505050565b919050565b600154604080516318160ddd60e01b815290516000926001600160a01b0316916318160ddd916004808301926020929190829003018186803b1580156111b957600080fd5b505afa1580156111cd573d6000803e3d6000fd5b505050506040513d601f19601f820116820180604052508101906111f19190611902565b905090565b60606000600160009054906101000a90046001600160a01b03166001600160a01b03166388d44ee06040518163ffffffff1660e01b815260040160006040518083038186803b15801561124857600080fd5b505afa15801561125c573d6000803e3d6000fd5b505050506040513d6000823e601f3d908101601f19168201604052610f1e919081019061176a565b60145460165460405163279958a960e01b81526001600160a01b039283169263279958a9926112b8929116906004016119b7565b600060405180830381600087803b1580156112d257600080fd5b505af11580156112e6573d6000803e3d6000fd5b505060155460165460405163279958a960e01b81526001600160a01b03928316945063279958a9935061131f92909116906004016119b7565b600060405180830381600087803b15801561133957600080fd5b505af115801561134d573d6000803e3d6000fd5b505060165460155460015460405163e692c49f60e01b81526001600160a01b03928316600482015290821660248201529116925063e692c49f9150604401600060405180830381600087803b1580156113a557600080fd5b505af11580156103ac573d6000803e3d6000fd5b600f54601054601154601254601354610fcc946001600160a01b0390811694811693811692811691166015546113f8906001600160a01b0316866114a3565b60165461140e906001600160a01b0316856114a3565b600154611424906001600160a01b0316846114a3565b60145461143a906001600160a01b0316836114a3565b60145460405163a485973f60e01b81526001600160a01b039091169063a485973f9061146a9084906004016119b7565b600060405180830381600087803b15801561148457600080fd5b505af1158015611498573d6000803e3d6000fd5b505050505050505050565b6000826001600160a01b0316826040516024016114c091906119b7565b60408051601f198184030181529181526020820180516001600160e01b0316631b2ce7f360e11b179052516114f5919061199b565b6000604051808303816000865af19150503d8060008114611532576040519150601f19603f3d011682016040523d82523d6000602084013e611537565b606091505b50508091505080610ad857600080fd5b50805460008255906000526020600020908101906101ff9190611605565b8280548282559060005260206000209081019282156115ba579160200282015b828111156115ba57825182546001600160a01b0319166001600160a01b03909116178255602090920191600190910190611585565b506115c6929150611605565b5090565b8280548282559060005260206000209081019282156115ba579160200282015b828111156115ba5782518255916020019190600101906115ea565b5b808211156115c65760008155600101611606565b600082601f83011261162b57600080fd5b8151602061164061163b83611c11565b611be1565b80838252828201915082860187848660051b890101111561166057600080fd5b60005b8581101561167f57815184529284019290840190600101611663565b5090979650505050505050565b803560ff8116811461116f57600080fd5b600080600080608085870312156116b357600080fd5b84356116be81611cfb565b935060208501356116ce81611cfb565b925060408501356116de81611cfb565b915060608501356116ee81611cfb565b939692955090935050565b600080600080600060a0868803121561171157600080fd5b853561171c81611cfb565b9450602086013561172c81611cfb565b9350604086013561173c81611cfb565b9250606086013561174c81611cfb565b9150608086013561175c81611cfb565b809150509295509295909350565b6000806040838503121561177d57600080fd5b82516001600160401b038082111561179457600080fd5b818501915085601f8301126117a857600080fd5b815160206117b861163b83611c11565b8083825282820191508286018a848660051b89010111156117d857600080fd5b600096505b848710156118045780516117f081611cfb565b8352600196909601959183019183016117dd565b509188015191965090935050508082111561181e57600080fd5b5061182b8582860161161a565b9150509250929050565b60006020828403121561184757600080fd5b8135610f1e81611d10565b60006020828403121561186457600080fd5b8151610f1e81611d10565b60006020828403121561188157600080fd5b81516001600160401b038082111561189857600080fd5b818401915084601f8301126118ac57600080fd5b8151818111156118be576118be611ce5565b6118d1601f8201601f1916602001611be1565b91508082528560208285010111156118e857600080fd5b6118f9816020840160208601611c8d565b50949350505050565b60006020828403121561191457600080fd5b5051919050565b60008060006060848603121561193057600080fd5b833592506119406020850161168c565b915061194e6040850161168c565b90509250925092565b600081518084526020808501945080840160005b838110156119905781516001600160a01b03168752958201959082019060010161196b565b509495945050505050565b600082516119ad818460208701611c8d565b9190910192915050565b6001600160a01b0391909116815260200190565b6001600160a01b038381168252604060208084018290528451918401829052600092858201929091906060860190855b81811015611a195785518516835294830194918301916001016119fb565b509098975050505050505050565b60006040820160018060a01b03808616845260206040818601528286548085526060870191508760005282600020945060005b81811015611a19578554851683526001958601959284019201611a5a565b600061010060018060a01b038b16835260208a818501528960408501528860608501528760808501528160a0850152611ab382850188611957565b84810360c0860152865180825282880193509082019060005b81811015611ae857845183529383019391830191600101611acc565b505084810360e0860152611afc8187611957565b9d9c50505050505050505050505050565b6000602080830181845280855180835260408601915060408160051b870101925083870160005b82811015611b7a57878503603f1901845281518051808752611b5b818989018a8501611c8d565b601f01601f191695909501860194509285019290850190600101611b34565b5092979650505050505050565b60208082526004908201526322a1991960e11b604082015260600190565b6020808252600490820152634543323560e01b604082015260600190565b6020808252600490820152634543323160e01b604082015260600190565b604051601f8201601f191681016001600160401b0381118282101715611c0957611c09611ce5565b604052919050565b60006001600160401b03821115611c2a57611c2a611ce5565b5060051b60200190565b60008219821115611c4757611c47611cb9565b500190565b600082611c6957634e487b7160e01b600052601260045260246000fd5b500490565b6000816000190483118215151615611c8857611c88611cb9565b500290565b60005b83811015611ca8578181015183820152602001611c90565b838111156103ac5750506000910152565b634e487b7160e01b600052601160045260246000fd5b634e487b7160e01b600052603260045260246000fd5b634e487b7160e01b600052604160045260246000fd5b6001600160a01b03811681146101ff57600080fd5b80151581146101ff57600080fdfea2646970667358221220c675df51fb1436d2f449988a13a0fcb77e8728790ca168649b46f57b0930012c64736f6c63430008060033",
  "immutableReferences": {},
  "source": "// SPDX-License-Identifier: GPL-3.0\r\n\r\npragma solidity >=0.7.0 <0.9.0;\r\n\r\n/**\r\n * @title Storage\r\n * @dev Store & retrieve value in a variable\r\n */\r\n\r\nimport \"./PublicCertificatesPool.sol\";\r\nimport \"./PrivateCertificatesPool.sol\";\r\nimport \"./PrivatePoolGenerator.sol\";\r\nimport \"./Treasury.sol\";\r\nimport \"../Base/TokenGovernanceBaseContract.sol\";\r\nimport \"./CertisToken.sol\";\r\nimport \"../Libraries/AddressLibrary.sol\";\r\nimport \"@openzeppelin/contracts-upgradeable/proxy/utils/Initializable.sol\";\r\n\r\ncontract CertificatesPoolManager is TokenGovernanceBaseContract{\r\n    using AddressLibrary for *;\r\n\r\n    // DATA\r\n    // proposition to change\r\n    struct ProposedContractsStruct{\r\n        address NewPublicPoolAddress;\r\n        address NewTreasuryAddress;\r\n        address NewCertisTokenAddress;\r\n        address NewPrivatePoolGeneratorAddress;\r\n        address NewPrivatePoolAddress;\r\n    }\r\n\r\n    ProposedContractsStruct _ProposedContracts;\r\n    \r\n    // Private Certificate Pools Generator\r\n    PrivatePoolGenerator _PrivatePoolGenerator;\r\n\r\n    // Public Certificates Pool\r\n    PublicCertificatesPool  _PublicCertificatesPool;\r\n\r\n    // Treasury\r\n    Treasury _Treasury;\r\n\r\n    // init\r\n    bool _init;\r\n\r\n    // MODIFIERS\r\n    modifier isNotInitialized(){\r\n        require(false == _init, \"EC26\");\r\n        _;\r\n    }\r\n\r\n\r\n    // CONSTRUCTOR and INITIALIZATION\r\n    /*constructor(uint256 PropositionLifeTime, uint8 PropositionThresholdPercentage, uint8 minWeightToProposePercentage) \r\n    TokenGovernanceBaseContract(PropositionLifeTime, PropositionThresholdPercentage, minWeightToProposePercentage)\r\n    {\r\n        _init = false;\r\n    }*/\r\n\r\n    constructor(uint256 PropositionLifeTime, uint8 PropositionThresholdPercentage, uint8 minWeightToProposePercentage) \r\n    {\r\n        super.TokenGovernanceContract_init(PropositionLifeTime, PropositionThresholdPercentage, minWeightToProposePercentage, msg.sender);\r\n        _init = false;\r\n    }\r\n\r\n\r\n    function InitializeContracts(address payable PublicPoolProxyAddress, address payable TreasuryProxyAddress, address payable CertisTokenProxyAddress, address payable PrivatePoolGeneratorProxyAddress) \r\n        isFromChairPerson()\r\n        isNotInitialized()\r\n    external\r\n    {\r\n        _init = true;\r\n        //InternalUpdateContractsVersions(PublicPoolAddress, TreasuryProxyAddress, CertisTokenAddress, PrivatePoolGeneratorAddress, true);\r\n        initProxies(PublicPoolProxyAddress, TreasuryProxyAddress, CertisTokenProxyAddress, PrivatePoolGeneratorProxyAddress);\r\n    }\r\n\r\n    // governance : contracts assignment and management\r\n    function updateContracts(address PublicPoolAddress, address TreasuryAddress, address CertisTokenAddress, address PrivatePoolGeneratorAddress, address PrivatePoolImplAddress) external\r\n    {\r\n        _ProposedContracts.NewPublicPoolAddress = PublicPoolAddress;\r\n        _ProposedContracts.NewTreasuryAddress = TreasuryAddress;\r\n        _ProposedContracts.NewCertisTokenAddress = CertisTokenAddress;\r\n        _ProposedContracts.NewPrivatePoolGeneratorAddress = PrivatePoolGeneratorAddress;\r\n        _ProposedContracts.NewPrivatePoolAddress = PrivatePoolImplAddress;\r\n        addProposition(block.timestamp + _PropositionLifeTime, _PropositionThresholdPercentage);\r\n\r\n        //InternalUpdateContractsVersions(PublicPoolAddress, TreasuryAddress, CertisTokenAddress, PrivatePoolGeneratorAddress, false);\r\n    }\r\n\r\n/*\r\n    function InternalUpdateContractsVersions(address PublicPoolAddress, address TreasuryAddress, address CertisTokenAddress, address PrivatePoolGeneratorAddress, bool fromConstructor) internal\r\n    {\r\n        \r\n        if(fromConstructor){\r\n            assignContracts(PublicPoolAddress, TreasuryProxyAddress, CertisTokenAddress, PrivatePoolGeneratorAddress);\r\n        }\r\n        else{\r\n            _ProposedContracts.NewPublicPoolAddress = PublicPoolAddress;\r\n            _ProposedContracts.NewTreasuryAddress = TreasuryAddress;\r\n            _ProposedContracts.NewCertisTokenAddress = CertisTokenAddress;\r\n            _ProposedContracts.NewPrivatePoolGeneratorAddress = PrivatePoolGeneratorAddress;\r\n            addProposition(block.timestamp + _PropositionLifeTime, _PropositionThresholdPercentage);\r\n        }\r\n        \r\n    }\r\n*/\r\n\r\n    function propositionApproved() internal override\r\n    {\r\n        //assignContracts(_ProposedContracts.NewPublicPoolAddress, _ProposedContracts.NewTreasuryAddress, _ProposedContracts.NewCertisTokenAddress, _ProposedContracts.NewPrivatePoolGeneratorAddress);\r\n        upgradeContractsImplementations(_ProposedContracts.NewPublicPoolAddress, _ProposedContracts.NewTreasuryAddress, _ProposedContracts.NewCertisTokenAddress, _ProposedContracts.NewPrivatePoolGeneratorAddress, _ProposedContracts.NewPrivatePoolAddress);\r\n        removeProposition();\r\n    }\r\n\r\n    function propositionRejected() internal override\r\n    {\r\n        removeProposition();\r\n    }\r\n\r\n    function propositionExpired() internal override\r\n    {\r\n        removeProposition();\r\n    }\r\n\r\n    function removeProposition() internal\r\n    {\r\n       delete(_ProposedContracts);\r\n    }\r\n\r\n    function retrieveProposition() external override view returns(string[] memory)\r\n    {\r\n        string[] memory proposition = new string[](4);\r\n        proposition[0] = AddressLibrary.AddressToString(_ProposedContracts.NewPublicPoolAddress);\r\n        proposition[1] = AddressLibrary.AddressToString(_ProposedContracts.NewTreasuryAddress);\r\n        proposition[2] = AddressLibrary.AddressToString(_ProposedContracts.NewCertisTokenAddress);\r\n        proposition[3] = AddressLibrary.AddressToString(_ProposedContracts.NewPrivatePoolGeneratorAddress);\r\n        return proposition;\r\n    }\r\n\r\n    function initProxies(address PublicPoolProxyAddress, address payable TreasuryProxyAddress, address CertisTokenProxyAddress, address PrivatePoolGeneratorProxyAddress) internal\r\n    {\r\n        _PublicCertificatesPool = PublicCertificatesPool(PublicPoolProxyAddress);\r\n        _Treasury = Treasury(TreasuryProxyAddress);\r\n        _CertisToken = CertisToken(CertisTokenProxyAddress);\r\n        _PrivatePoolGenerator = PrivatePoolGenerator(PrivatePoolGeneratorProxyAddress);\r\n\r\n        initContracts();\r\n    }\r\n\r\n    function upgradeContractsImplementations(address PublicPoolAddress, address TreasuryAddress, address CertisTokenAddress, address PrivatePoolGeneratorAddress, address PrivatePoolImplAddress) internal\r\n    {\r\n        upgradeContractsImplementations(address(_PublicCertificatesPool), PublicPoolAddress);\r\n        upgradeContractsImplementations(address(_Treasury), TreasuryAddress);\r\n        upgradeContractsImplementations(address(_CertisToken), CertisTokenAddress);\r\n        upgradeContractsImplementations(address(_PrivatePoolGenerator), PrivatePoolGeneratorAddress);\r\n\r\n        _PrivatePoolGenerator.updatePrivateCertificatePoolImpl(PrivatePoolImplAddress);\r\n    }\r\n\r\n    function upgradeContractsImplementations(address AddressProxy, address AddressNewImpl) internal\r\n    {\r\n        bool success;\r\n        (success, ) = AddressProxy.call(abi.encodeWithSignature(\"upgradeTo(address)\", AddressNewImpl));\r\n        require(success);\r\n    }\r\n\r\n    function initContracts() internal\r\n    {\r\n        _PrivatePoolGenerator.updateContracts(address(_Treasury));\r\n        _PublicCertificatesPool.updateContracts(address(_Treasury));\r\n        _Treasury.updateContracts(address(_PublicCertificatesPool), address(_CertisToken));\r\n    }\r\n\r\n/*\r\n    function assignContracts(address PublicPoolAddress, address TreasuryAddress, address CertisTokenAddress, address PrivatePoolGeneratorAddress) internal {\r\n        _PublicCertificatesPool = PublicCertificatesPool(PublicPoolAddress);\r\n        _Treasury = Treasury(TreasuryProxyAddress);\r\n        _CertisToken = CertisToken(CertisTokenAddress); \r\n        _PrivatePoolGenerator = PrivatePoolGenerator(PrivatePoolGeneratorAddress);\r\n        _Treasury.updateContracts(PublicPoolAddress, CertisTokenAddress);\r\n        _PublicCertificatesPool.updateContracts(TreasuryProxyAddress);\r\n        _PrivatePoolGenerator.updateContracts(TreasuryProxyAddress);\r\n       \r\n    }\r\n*/ \r\n    // configuration\r\n    function retrieveConfiguration() external view returns (address, address, address, address, address, uint) {\r\n        return (address(_PublicCertificatesPool), address(_Treasury), address(_CertisToken), address(_PrivatePoolGenerator), _chairperson, address(this).balance);\r\n    }\r\n    \r\n}",
  "sourcePath": "C:/Users/d-aam/GitHub/Certificates/contracts/DeployedContracts/CertificatesPoolManager.sol",
  "compiler": {
    "name": "solc",
    "version": "0.8.6+commit.11564f7e.Emscripten.clang"
  },
  "schemaVersion": "3.3.4",
  "updatedAt": "2021-08-03T08:49:08.079Z",
  "devdoc": {
    "kind": "dev",
    "methods": {},
    "version": 1
  },
  "userdoc": {
    "kind": "user",
    "methods": {},
    "version": 1
  }
}