{
  "contractName": "CertificatesPoolManager",
  "abi": [
    {
      "inputs": [
        {
          "internalType": "address[]",
          "name": "owners",
          "type": "address[]"
        },
        {
          "internalType": "uint256",
          "name": "minOwners",
          "type": "uint256"
        },
        {
          "internalType": "uint256",
          "name": "PublicPriceWei",
          "type": "uint256"
        },
        {
          "internalType": "uint256",
          "name": "PrivatePriceWei",
          "type": "uint256"
        }
      ],
      "stateMutability": "payable",
      "type": "constructor"
    },
    {
      "anonymous": false,
      "inputs": [
        {
          "indexed": false,
          "internalType": "uint256",
          "name": "",
          "type": "uint256"
        },
        {
          "indexed": false,
          "internalType": "address",
          "name": "",
          "type": "address"
        },
        {
          "indexed": false,
          "internalType": "contract CertificatesPool",
          "name": "",
          "type": "address"
        }
      ],
      "name": "_NewCertificatesPool",
      "type": "event"
    },
    {
      "anonymous": false,
      "inputs": [
        {
          "indexed": false,
          "internalType": "address",
          "name": "",
          "type": "address"
        }
      ],
      "name": "_SendProposalId",
      "type": "event"
    },
    {
      "inputs": [
        {
          "internalType": "address[]",
          "name": "owners",
          "type": "address[]"
        },
        {
          "internalType": "uint256",
          "name": "minOwners",
          "type": "uint256"
        }
      ],
      "name": "createPrivateCertificatesPool",
      "outputs": [],
      "stateMutability": "payable",
      "type": "function"
    },
    {
      "inputs": [
        {
          "internalType": "uint256",
          "name": "certificatePoolId",
          "type": "uint256"
        }
      ],
      "name": "retrievePrivateCertificatesPool",
      "outputs": [
        {
          "internalType": "address",
          "name": "",
          "type": "address"
        },
        {
          "internalType": "contract CertificatesPool",
          "name": "",
          "type": "address"
        }
      ],
      "stateMutability": "view",
      "type": "function"
    },
    {
      "inputs": [
        {
          "internalType": "address",
          "name": "provider",
          "type": "address"
        },
        {
          "internalType": "string",
          "name": "providerInfo",
          "type": "string"
        }
      ],
      "name": "sendProposal",
      "outputs": [],
      "stateMutability": "payable",
      "type": "function"
    },
    {
      "inputs": [],
      "name": "retrievePublicCertificatesPool",
      "outputs": [
        {
          "internalType": "contract CertificatesPool",
          "name": "",
          "type": "address"
        }
      ],
      "stateMutability": "view",
      "type": "function"
    },
    {
      "inputs": [],
      "name": "retrieveChairPerson",
      "outputs": [
        {
          "internalType": "address",
          "name": "",
          "type": "address"
        }
      ],
      "stateMutability": "view",
      "type": "function"
    }
  ],
  "bytecode": "0x60806040526040516200c3503803806200c3508339818101604052608081101561002857600080fd5b810190808051604051939291908464010000000082111561004857600080fd5b8382019150602082018581111561005e57600080fd5b825186602082028301116401000000008211171561007b57600080fd5b8083526020830192505050908051906020019060200280838360005b838110156100b2578082015181840152602081019050610097565b5050505090500160405260200180519060200190929190805190602001909291908051906020019092919050505033600460006101000a81548173ffffffffffffffffffffffffffffffffffffffff021916908373ffffffffffffffffffffffffffffffffffffffff1602179055508160008190555080600181905550838360405161013d906101f5565b8080602001838152602001828103825284818151815260200191508051906020019060200280838360005b83811015610183578082015181840152602081019050610168565b505050509050019350505050604051809103906000f0801580156101ab573d6000803e3d6000fd5b50600360006101000a81548173ffffffffffffffffffffffffffffffffffffffff021916908373ffffffffffffffffffffffffffffffffffffffff16021790555050505050610203565b6163a88062005fa883390190565b615d9580620002136000396000f3fe608060405260043610620000505760003560e01c8063858e7ce61462000055578063b85dfd951462000136578063d185a526146200017a578063db85bc4d1462000200578063f5807c051462000244575b600080fd5b62000134600480360360408110156200006d57600080fd5b81019080803573ffffffffffffffffffffffffffffffffffffffff16906020019092919080359060200190640100000000811115620000ab57600080fd5b820183602082011115620000be57600080fd5b80359060200191846001830284011164010000000083111715620000e157600080fd5b91908080601f016020809104026020016040519081016040528093929190818152602001838380828437600081840152601f19601f8201169050808301925050505050505091929192905050506200030c565b005b3480156200014357600080fd5b506200014e620004ed565b604051808273ffffffffffffffffffffffffffffffffffffffff16815260200191505060405180910390f35b3480156200018757600080fd5b50620001b760048036036020811015620001a057600080fd5b810190808035906020019092919050505062000517565b604051808373ffffffffffffffffffffffffffffffffffffffff1681526020018273ffffffffffffffffffffffffffffffffffffffff1681526020019250505060405180910390f35b3480156200020d57600080fd5b5062000218620006bb565b604051808273ffffffffffffffffffffffffffffffffffffffff16815260200191505060405180910390f35b6200030a600480360360408110156200025c57600080fd5b81019080803590602001906401000000008111156200027a57600080fd5b8201836020820111156200028d57600080fd5b80359060200191846020830284011164010000000083111715620002b057600080fd5b919080806020026020016040519081016040528093929190818152602001838360200280828437600081840152601f19601f82011690508083019250505050505050919291929080359060200190929190505050620006e5565b005b6000548034101562000386576040517f08c379a00000000000000000000000000000000000000000000000000000000081526004018080602001828103825260108152602001807f4e6f7420656e6f7567682066756e64730000000000000000000000000000000081525060200191505060405180910390fd5b600360009054906101000a900473ffffffffffffffffffffffffffffffffffffffff1673ffffffffffffffffffffffffffffffffffffffff1663fc00050084846040518363ffffffff1660e01b8152600401808373ffffffffffffffffffffffffffffffffffffffff16815260200180602001828103825283818151815260200191508051906020019080838360005b838110156200043357808201518184015260208101905062000416565b50505050905090810190601f168015620004615780820380516001836020036101000a031916815260200191505b509350505050600060405180830381600087803b1580156200048257600080fd5b505af115801562000497573d6000803e3d6000fd5b505050507fbaf065d025fe427c7c36f893bdec1c49e6c164c4a6531f4216f64e6e876a9a4f83604051808273ffffffffffffffffffffffffffffffffffffffff16815260200191505060405180910390a1505050565b6000600360009054906101000a900473ffffffffffffffffffffffffffffffffffffffff16905090565b6000808260028054905073__Library_______________________________632477a0ea83836040518363ffffffff1660e01b8152600401808381526020018281526020019250505060206040518083038186803b1580156200057957600080fd5b505af41580156200058e573d6000803e3d6000fd5b505050506040513d6020811015620005a557600080fd5b81019080805190602001909291905050501515600115151462000630576040517f08c379a00000000000000000000000000000000000000000000000000000000081526004018080602001828103825260148152602001807f70726f76696465642049642069732077726f6e6700000000000000000000000081525060200191505060405180910390fd5b600285815481106200063e57fe5b906000526020600020906002020160000160009054906101000a900473ffffffffffffffffffffffffffffffffffffffff16600286815481106200067e57fe5b906000526020600020906002020160010160009054906101000a900473ffffffffffffffffffffffffffffffffffffffff16935093505050915091565b6000600460009054906101000a900473ffffffffffffffffffffffffffffffffffffffff16905090565b600154803410156200075f576040517f08c379a00000000000000000000000000000000000000000000000000000000081526004018080602001828103825260108152602001807f4e6f7420656e6f7567682066756e64730000000000000000000000000000000081525060200191505060405180910390fd5b60008383604051620007719062000970565b8080602001838152602001828103825284818151815260200191508051906020019060200280838360005b83811015620007b95780820151818401526020810190506200079c565b505050509050019350505050604051809103906000f080158015620007e2573d6000803e3d6000fd5b509050600060405180604001604052803373ffffffffffffffffffffffffffffffffffffffff1681526020018373ffffffffffffffffffffffffffffffffffffffff168152509050600281908060018154018082558091505060019003906000526020600020906002020160009091909190915060008201518160000160006101000a81548173ffffffffffffffffffffffffffffffffffffffff021916908373ffffffffffffffffffffffffffffffffffffffff16021790555060208201518160010160006101000a81548173ffffffffffffffffffffffffffffffffffffffff021916908373ffffffffffffffffffffffffffffffffffffffff16021790555050507f9bfff6b81778f7b8086272d62a71be896cfc1876bb5f2e4e1fe28bc4c241596860016002805490500382600001518360200151604051808481526020018373ffffffffffffffffffffffffffffffffffffffff1681526020018273ffffffffffffffffffffffffffffffffffffffff168152602001935050505060405180910390a15050505050565b6153e1806200097f8339019056fe608060405260405180604001604052806040518060400160405280600581526020017f4f776e657200000000000000000000000000000000000000000000000000000081525081526020016040518060400160405280600881526020017f50726f7669646572000000000000000000000000000000000000000000000000815250815250600590600262000095929190620005cc565b50604051620053e1380380620053e183398181016040526040811015620000bb57600080fd5b8101908080516040519392919084640100000000821115620000dc57600080fd5b83820191506020820185811115620000f357600080fd5b82518660208202830111640100000000821117156200011157600080fd5b8083526020830192505050908051906020019060200280838360005b838110156200014a5780820151818401526020810190506200012d565b50505050905001604052602001805190602001909291905050508181818160026005805480602002602001604051908101604052809291908181526020016000905b828210156200024e578382906000526020600020018054600181600116156101000203166002900480601f016020809104026020016040519081016040528092919081815260200182805460018160011615610100020316600290048015620002395780601f106200020d5761010080835404028352916020019162000239565b820191906000526020600020905b8154815290600101906020018083116200021b57829003601f168201915b5050505050815260200190600101906200018c565b5050505060008451841115620002b0576040517f08c379a000000000000000000000000000000000000000000000000000000000815260040180806020018281038252603c815260200180620053a5603c913960400191505060405180910390fd5b6000841162000327576040517f08c379a00000000000000000000000000000000000000000000000000000000081526004018080602001828103825260188152602001807f4174206c656173742031206d696e696d756d206f776e6572000000000000000081525060200191505060405180910390fd5b815183146200039e576040517f08c379a000000000000000000000000000000000000000000000000000000000815260040180806020018281038252601d8152602001807f4e6f7420656e6f756768206f7220746f6f206d616e79206c6162656c7300000081525060200191505060405180910390fd5b8060008190555060005b838110156200044c5760046001816001815401808255809150500390600052602060002090505060026001816001815401808255809150500390600052602060002050506003838281518110620003fb57fe5b60200260200101519080600181540180825580915050600190039060005260206000200160009091909190915090805190602001906200043d92919062000633565b508080600101915050620003a8565b508360018190555060005b8551811015620005bc5760016004600054815481106200047357fe5b906000526020600020906002020160000160008884815181106200049357fe5b602002602001015173ffffffffffffffffffffffffffffffffffffffff1673ffffffffffffffffffffffffffffffffffffffff16815260200190815260200160002060010160006101000a81548160ff021916908315150217905550600460005481548110620004ff57fe5b90600052602060002090600202016001018682815181106200051d57fe5b60200260200101519080600181540180825580915050600190039060005260206000200160009091909190916101000a81548173ffffffffffffffffffffffffffffffffffffffff021916908373ffffffffffffffffffffffffffffffffffffffff16021790555060016002600054815481106200059757fe5b9060005260206000200160008282540192505081905550808060010191505062000457565b505050505050505050506200075d565b82805482825590600052602060002090810192821562000620579160200282015b828111156200061f5782518290805190602001906200060e92919062000633565b5091602001919060010190620005ed565b5b5090506200062f9190620006ca565b5090565b828054600181600116156101000203166002900490600052602060002090601f0160209004810192826200066b5760008555620006b7565b82601f106200068657805160ff1916838001178555620006b7565b82800160010185558215620006b7579182015b82811115620006b657825182559160200191906001019062000699565b5b509050620006c69190620006f2565b5090565b5b80821115620006ee5760008181620006e4919062000711565b50600101620006cb565b5090565b5b808211156200070d576000816000905550600101620006f3565b5090565b50805460018160011615610100020316600290046000825580601f106200073957506200075a565b601f016020900490600052602060002090810190620007599190620006f2565b5b50565b614c38806200076d6000396000f3fe608060405234801561001057600080fd5b50600436106101375760003560e01c806377bc5a1f116100b85780639fc104361161007c5780639fc1043614610bfa578063a93d5ed614610cd5578063d744d2f314610d34578063eefe768114610d52578063fc00050014610d70578063fd90ae7614610e4b57610137565b806377bc5a1f1461062457806382ff66a3146106e15780638a355a57146108ea5780639a90be9e1461092e5780639df66528146109e757610137565b806337583499116100ff57806337583499146104085780633bc6fe0e146104c55780636b074a07146105135780636e4f91791461056d5780636e55d2d4146105cc57610137565b80631270db7a1461013c5780631660c22a146101b4578063173825d91461028f5780632f54bf6e146102d35780633542758f1461032d575b600080fd5b61019e6004803603604081101561015257600080fd5b81019080803573ffffffffffffffffffffffffffffffffffffffff169060200190929190803573ffffffffffffffffffffffffffffffffffffffff169060200190929190505050611007565b6040518082815260200191505060405180910390f35b61028d600480360360408110156101ca57600080fd5b81019080803573ffffffffffffffffffffffffffffffffffffffff1690602001909291908035906020019064010000000081111561020757600080fd5b82018360208201111561021957600080fd5b8035906020019184600183028401116401000000008311171561023b57600080fd5b91908080601f016020809104026020016040519081016040528093929190818152602001838380828437600081840152601f19601f820116905080830192505050505050509192919290505050611129565b005b6102d1600480360360208110156102a557600080fd5b81019080803573ffffffffffffffffffffffffffffffffffffffff169060200190929190505050611139565b005b610315600480360360208110156102e957600080fd5b81019080803573ffffffffffffffffffffffffffffffffffffffff169060200190929190505050611148565b60405180821515815260200191505060405180910390f35b6104066004803603604081101561034357600080fd5b81019080803573ffffffffffffffffffffffffffffffffffffffff1690602001909291908035906020019064010000000081111561038057600080fd5b82018360208201111561039257600080fd5b803590602001918460018302840111640100000000831117156103b457600080fd5b91908080601f016020809104026020016040519081016040528093929190818152602001838380828437600081840152601f19601f82011690508083019250505050505050919291929050505061115d565b005b61044a6004803603602081101561041e57600080fd5b81019080803573ffffffffffffffffffffffffffffffffffffffff16906020019092919050505061116e565b6040518080602001828103825283818151815260200191508051906020019080838360005b8381101561048a57808201518184015260208101905061046f565b50505050905090810190601f1680156104b75780820380516001836020036101000a031916815260200191505b509250505060405180910390f35b610511600480360360408110156104db57600080fd5b8101908080359060200190929190803573ffffffffffffffffffffffffffffffffffffffff169060200190929190505050611182565b005b6105556004803603602081101561052957600080fd5b81019080803573ffffffffffffffffffffffffffffffffffffffff16906020019092919050505061161b565b60405180821515815260200191505060405180910390f35b61057561162f565b6040518080602001828103825283818151815260200191508051906020019060200280838360005b838110156105b857808201518184015260208101905061059d565b505050509050019250505060405180910390f35b61060e600480360360208110156105e257600080fd5b81019080803573ffffffffffffffffffffffffffffffffffffffff169060200190929190505050611640565b6040518082815260200191505060405180910390f35b6106666004803603602081101561063a57600080fd5b81019080803573ffffffffffffffffffffffffffffffffffffffff16906020019092919050505061168c565b6040518080602001828103825283818151815260200191508051906020019080838360005b838110156106a657808201518184015260208101905061068b565b50505050905090810190601f1680156106d35780820380516001836020036101000a031916815260200191505b509250505060405180910390f35b6108e8600480360360808110156106f757600080fd5b810190808035906020019064010000000081111561071457600080fd5b82018360208201111561072657600080fd5b8035906020019184600183028401116401000000008311171561074857600080fd5b91908080601f016020809104026020016040519081016040528093929190818152602001838380828437600081840152601f19601f820116905080830192505050505050509192919290803590602001906401000000008111156107ab57600080fd5b8201836020820111156107bd57600080fd5b803590602001918460018302840111640100000000831117156107df57600080fd5b91908080601f016020809104026020016040519081016040528093929190818152602001838380828437600081840152601f19601f8201169050808301925050505050505091929192908035906020019064010000000081111561084257600080fd5b82018360208201111561085457600080fd5b8035906020019184600183028401116401000000008311171561087657600080fd5b91908080601f016020809104026020016040519081016040528093929190818152602001838380828437600081840152601f19601f820116905080830192505050505050509192919290803573ffffffffffffffffffffffffffffffffffffffff1690602001909291905050506116a1565b005b61092c6004803603602081101561090057600080fd5b81019080803573ffffffffffffffffffffffffffffffffffffffff169060200190929190505050611999565b005b6109906004803603604081101561094457600080fd5b81019080803573ffffffffffffffffffffffffffffffffffffffff169060200190929190803573ffffffffffffffffffffffffffffffffffffffff1690602001909291905050506119a7565b6040518080602001828103825283818151815260200191508051906020019060200280838360005b838110156109d35780820151818401526020810190506109b8565b505050509050019250505060405180910390f35b610bf8600480360360a08110156109fd57600080fd5b8101908080359060200190929190803573ffffffffffffffffffffffffffffffffffffffff16906020019092919080359060200190640100000000811115610a4457600080fd5b820183602082011115610a5657600080fd5b80359060200191846001830284011164010000000083111715610a7857600080fd5b91908080601f016020809104026020016040519081016040528093929190818152602001838380828437600081840152601f19601f82011690508083019250505050505050919291929080359060200190640100000000811115610adb57600080fd5b820183602082011115610aed57600080fd5b80359060200191846001830284011164010000000083111715610b0f57600080fd5b91908080601f016020809104026020016040519081016040528093929190818152602001838380828437600081840152601f19601f82011690508083019250505050505050919291929080359060200190640100000000811115610b7257600080fd5b820183602082011115610b8457600080fd5b80359060200191846001830284011164010000000083111715610ba657600080fd5b91908080601f016020809104026020016040519081016040528093929190818152602001838380828437600081840152601f19601f820116905080830192505050505050509192919290505050611b33565b005b610cd360048036036040811015610c1057600080fd5b81019080803573ffffffffffffffffffffffffffffffffffffffff16906020019092919080359060200190640100000000811115610c4d57600080fd5b820183602082011115610c5f57600080fd5b80359060200191846001830284011164010000000083111715610c8157600080fd5b91908080601f016020809104026020016040519081016040528093929190818152602001838380828437600081840152601f19601f820116905080830192505050505050509192919290505050612052565b005b610cdd612063565b6040518080602001828103825283818151815260200191508051906020019060200280838360005b83811015610d20578082015181840152602081019050610d05565b505050509050019250505060405180910390f35b610d3c612075565b6040518082815260200191505060405180910390f35b610d5a612086565b6040518082815260200191505060405180910390f35b610e4960048036036040811015610d8657600080fd5b81019080803573ffffffffffffffffffffffffffffffffffffffff16906020019092919080359060200190640100000000811115610dc357600080fd5b820183602082011115610dd557600080fd5b80359060200191846001830284011164010000000083111715610df757600080fd5b91908080601f016020809104026020016040519081016040528093929190818152602001838380828437600081840152601f19601f820116905080830192505050505050509192919290505050612098565b005b610e9760048036036040811015610e6157600080fd5b8101908080359060200190929190803573ffffffffffffffffffffffffffffffffffffffff1690602001909291905050506120a8565b604051808573ffffffffffffffffffffffffffffffffffffffff168152602001806020018060200180602001848103845287818151815260200191508051906020019080838360005b83811015610efb578082015181840152602081019050610ee0565b50505050905090810190601f168015610f285780820380516001836020036101000a031916815260200191505b50848103835286818151815260200191508051906020019080838360005b83811015610f61578082015181840152602081019050610f46565b50505050905090810190601f168015610f8e5780820380516001836020036101000a031916815260200191505b50848103825285818151815260200191508051906020019080838360005b83811015610fc7578082015181840152602081019050610fac565b50505050905090810190601f168015610ff45780820380516001836020036101000a031916815260200191505b5097505050505050505060405180910390f35b6000806000905060005b600660008573ffffffffffffffffffffffffffffffffffffffff1673ffffffffffffffffffffffffffffffffffffffff1681526020019081526020016000208054905081101561111e578473ffffffffffffffffffffffffffffffffffffffff16600660008673ffffffffffffffffffffffffffffffffffffffff1673ffffffffffffffffffffffffffffffffffffffff16815260200190815260200160002082815481106110bc57fe5b906000526020600020906004020160000160009054906101000a900473ffffffffffffffffffffffffffffffffffffffff1673ffffffffffffffffffffffffffffffffffffffff161415611111576001820191505b8080600101915050611011565b508091505092915050565b61113582826001612572565b5050565b61114581600054612979565b50565b600061115682600054613574565b9050919050565b61116a82826000546135ea565b5050565b606061117b826001614262565b9050919050565b61118b3361161b565b151560011515146111e7576040517f08c379a0000000000000000000000000000000000000000000000000000000008152600401808060200182810382526031815260200180614b736031913960400191505060405180910390fd5b81600660008373ffffffffffffffffffffffffffffffffffffffff1673ffffffffffffffffffffffffffffffffffffffff1681526020019081526020016000208054905073__Library_______________________________632477a0ea83836040518363ffffffff1660e01b8152600401808381526020018281526020019250505060206040518083038186803b15801561128257600080fd5b505af4158015611296573d6000803e3d6000fd5b505050506040513d60208110156112ac57600080fd5b810190808051906020019092919050505015156001151514611336576040517f08c379a00000000000000000000000000000000000000000000000000000000081526004018080602001828103825260148152602001807f70726f76696465642049642069732077726f6e6700000000000000000000000081525060200191505060405180910390fd5b8284600660008373ffffffffffffffffffffffffffffffffffffffff1673ffffffffffffffffffffffffffffffffffffffff168152602001908152602001600020818154811061138257fe5b906000526020600020906004020160000160009054906101000a900473ffffffffffffffffffffffffffffffffffffffff1673ffffffffffffffffffffffffffffffffffffffff163373ffffffffffffffffffffffffffffffffffffffff16148061141857508173ffffffffffffffffffffffffffffffffffffffff163373ffffffffffffffffffffffffffffffffffffffff16145b61146d576040517f08c379a0000000000000000000000000000000000000000000000000000000008152600401808060200182810382526031815260200180614bd26031913960400191505060405180910390fd5b6000600660008773ffffffffffffffffffffffffffffffffffffffff1673ffffffffffffffffffffffffffffffffffffffff16815260200190815260200160002087815481106114b957fe5b906000526020600020906004020160000160009054906101000a900473ffffffffffffffffffffffffffffffffffffffff169050600660008773ffffffffffffffffffffffffffffffffffffffff1673ffffffffffffffffffffffffffffffffffffffff168152602001908152602001600020878154811061153757fe5b9060005260206000209060040201600080820160006101000a81549073ffffffffffffffffffffffffffffffffffffffff021916905560018201600061157d9190614978565b60028201600061158d9190614978565b60038201600061159d91906149c0565b50507f709d6b1b4d6f0b57a9f43c17f08c02648af8d37929b58caa594a4b03b8424687818789604051808473ffffffffffffffffffffffffffffffffffffffff1681526020018373ffffffffffffffffffffffffffffffffffffffff168152602001828152602001935050505060405180910390a150505050505050565b6000611628826001613574565b9050919050565b606061163b600161464f565b905090565b6000600660008373ffffffffffffffffffffffffffffffffffffffff1673ffffffffffffffffffffffffffffffffffffffff168152602001908152602001600020805490509050919050565b606061169a82600054614262565b9050919050565b6116aa3361161b565b15156001151514611706576040517f08c379a0000000000000000000000000000000000000000000000000000000008152600401808060200182810382526031815260200180614b736031913960400191505060405180910390fd5b815160001080156117245750825160001080611723575083516000105b5b611796576040517f08c379a00000000000000000000000000000000000000000000000000000000081526004018080602001828103825260148152602001807f436572746966696361746520697320656d70747900000000000000000000000081525060200191505060405180910390fd5b600660008273ffffffffffffffffffffffffffffffffffffffff1673ffffffffffffffffffffffffffffffffffffffff16815260200190815260200160002060405180608001604052803373ffffffffffffffffffffffffffffffffffffffff16815260200186815260200185815260200184815250908060018154018082558091505060019003906000526020600020906004020160009091909190915060008201518160000160006101000a81548173ffffffffffffffffffffffffffffffffffffffff021916908373ffffffffffffffffffffffffffffffffffffffff1602179055506020820151816001019080519060200190611898929190614a08565b5060408201518160020190805190602001906118b5929190614a08565b5060608201518160030190805190602001906118d2929190614a96565b50505060006001600660008473ffffffffffffffffffffffffffffffffffffffff1673ffffffffffffffffffffffffffffffffffffffff168152602001908152602001600020805490500390507f76f4df91a34263fc533728c4689dd106f547d04117b44c2f5606efdbc184bdde338383604051808473ffffffffffffffffffffffffffffffffffffffff1681526020018373ffffffffffffffffffffffffffffffffffffffff168152602001828152602001935050505060405180910390a15050505050565b6119a4816001612979565b50565b606060006119b58484611007565b67ffffffffffffffff811180156119cb57600080fd5b506040519080825280602002602001820160405280156119fa5781602001602082028036833780820191505090505b5090506000805b600660008673ffffffffffffffffffffffffffffffffffffffff1673ffffffffffffffffffffffffffffffffffffffff16815260200190815260200160002080549050811015611b27578573ffffffffffffffffffffffffffffffffffffffff16600660008773ffffffffffffffffffffffffffffffffffffffff1673ffffffffffffffffffffffffffffffffffffffff1681526020019081526020016000208281548110611aac57fe5b906000526020600020906004020160000160009054906101000a900473ffffffffffffffffffffffffffffffffffffffff1673ffffffffffffffffffffffffffffffffffffffff161415611b1a5780838381518110611b0757fe5b6020026020010181815250506001820191505b8080600101915050611a01565b50819250505092915050565b611b3c3361161b565b15156001151514611b98576040517f08c379a0000000000000000000000000000000000000000000000000000000008152600401808060200182810382526031815260200180614b736031913960400191505060405180910390fd5b84600660008673ffffffffffffffffffffffffffffffffffffffff1673ffffffffffffffffffffffffffffffffffffffff1681526020019081526020016000208054905073__Library_______________________________632477a0ea83836040518363ffffffff1660e01b8152600401808381526020018281526020019250505060206040518083038186803b158015611c3357600080fd5b505af4158015611c47573d6000803e3d6000fd5b505050506040513d6020811015611c5d57600080fd5b810190808051906020019092919050505015156001151514611ce7576040517f08c379a00000000000000000000000000000000000000000000000000000000081526004018080602001828103825260148152602001807f70726f76696465642049642069732077726f6e6700000000000000000000000081525060200191505060405180910390fd5b8587600660008373ffffffffffffffffffffffffffffffffffffffff1673ffffffffffffffffffffffffffffffffffffffff1681526020019081526020016000208181548110611d3357fe5b906000526020600020906004020160000160009054906101000a900473ffffffffffffffffffffffffffffffffffffffff1673ffffffffffffffffffffffffffffffffffffffff163373ffffffffffffffffffffffffffffffffffffffff1614611de8576040517f08c379a0000000000000000000000000000000000000000000000000000000008152600401808060200182810382526031815260200180614b426031913960400191505060405180910390fd5b865160001015611e635786600660008a73ffffffffffffffffffffffffffffffffffffffff1673ffffffffffffffffffffffffffffffffffffffff1681526020019081526020016000208a81548110611e3d57fe5b90600052602060002090600402016001019080519060200190611e61929190614a08565b505b855160001015611ede5785600660008a73ffffffffffffffffffffffffffffffffffffffff1673ffffffffffffffffffffffffffffffffffffffff1681526020019081526020016000208a81548110611eb857fe5b90600052602060002090600402016002019080519060200190611edc929190614a08565b505b845160001015611f595784600660008a73ffffffffffffffffffffffffffffffffffffffff1673ffffffffffffffffffffffffffffffffffffffff1681526020019081526020016000208a81548110611f3357fe5b90600052602060002090600402016003019080519060200190611f57929190614a96565b505b7f736a6334743f8e5fff8d835332a115f2c34c1bbf6e2384459e1a24e0540bd47c600660008a73ffffffffffffffffffffffffffffffffffffffff1673ffffffffffffffffffffffffffffffffffffffff1681526020019081526020016000208a81548110611fc457fe5b906000526020600020906004020160000160009054906101000a900473ffffffffffffffffffffffffffffffffffffffff16898b604051808473ffffffffffffffffffffffffffffffffffffffff1681526020018373ffffffffffffffffffffffffffffffffffffffff168152602001828152602001935050505060405180910390a1505050505050505050565b61205f8282600054612572565b5050565b606061207060005461464f565b905090565b60006120816001614938565b905090565b6000612093600054614938565b905090565b6120a4828260016135ea565b5050565b6000606080606085600660008773ffffffffffffffffffffffffffffffffffffffff1673ffffffffffffffffffffffffffffffffffffffff1681526020019081526020016000208054905073__Library_______________________________632477a0ea83836040518363ffffffff1660e01b8152600401808381526020018281526020019250505060206040518083038186803b15801561214a57600080fd5b505af415801561215e573d6000803e3d6000fd5b505050506040513d602081101561217457600080fd5b8101908080519060200190929190505050151560011515146121fe576040517f08c379a00000000000000000000000000000000000000000000000000000000081526004018080602001828103825260148152602001807f70726f76696465642049642069732077726f6e6700000000000000000000000081525060200191505060405180910390fd5b600660008873ffffffffffffffffffffffffffffffffffffffff1673ffffffffffffffffffffffffffffffffffffffff168152602001908152602001600020888154811061224857fe5b906000526020600020906004020160000160009054906101000a900473ffffffffffffffffffffffffffffffffffffffff16600660008973ffffffffffffffffffffffffffffffffffffffff1673ffffffffffffffffffffffffffffffffffffffff16815260200190815260200160002089815481106122c457fe5b9060005260206000209060040201600101600660008a73ffffffffffffffffffffffffffffffffffffffff1673ffffffffffffffffffffffffffffffffffffffff1681526020019081526020016000208a8154811061231f57fe5b9060005260206000209060040201600201600660008b73ffffffffffffffffffffffffffffffffffffffff1673ffffffffffffffffffffffffffffffffffffffff1681526020019081526020016000208b8154811061237a57fe5b9060005260206000209060040201600301828054600181600116156101000203166002900480601f0160208091040260200160405190810160405280929190818152602001828054600181600116156101000203166002900480156124205780601f106123f557610100808354040283529160200191612420565b820191906000526020600020905b81548152906001019060200180831161240357829003601f168201915b50505050509250818054600181600116156101000203166002900480601f0160208091040260200160405190810160405280929190818152602001828054600181600116156101000203166002900480156124bc5780601f10612491576101008083540402835291602001916124bc565b820191906000526020600020905b81548152906001019060200180831161249f57829003601f168201915b50505050509150808054600181600116156101000203166002900480601f0160208091040260200160405190810160405280929190818152602001828054600181600116156101000203166002900480156125585780601f1061252d57610100808354040283529160200191612558565b820191906000526020600020905b81548152906001019060200180831161253b57829003601f168201915b505050505090509550955095509550505092959194509250565b828073ffffffffffffffffffffffffffffffffffffffff163373ffffffffffffffffffffffffffffffffffffffff1614612614576040517f08c379a00000000000000000000000000000000000000000000000000000000081526004018080602001828103825260168152602001807f49742069732077686f2069742073686f756c642062650000000000000000000081525060200191505060405180910390fd5b600184838215156000151514156127935761262f8282613574565b151560001515146003828154811061264357fe5b9060005260206000200160405160200180828054600181600116156101000203166002900480156126ab5780601f106126895761010080835404028352918201916126ab565b820191906000526020600020905b815481529060010190602001808311612697575b5050807f20616c72656164792061637469766174656400000000000000000000000000008152506012019150506040516020818303038152906040529061278d576040517f08c379a00000000000000000000000000000000000000000000000000000000081526004018080602001828103825283818151815260200191508051906020019080838360005b83811015612752578082015181840152602081019050612737565b50505050905090810190601f16801561277f5780820380516001836020036101000a031916815260200191505b509250505060405180910390fd5b506128fd565b61279d8282613574565b15156001151514600382815481106127b157fe5b9060005260206000200160405160200180828054600181600116156101000203166002900480156128195780601f106127f7576101008083540402835291820191612819565b820191906000526020600020905b815481529060010190602001808311612805575b5050807f206d757374206265206163746976617465640000000000000000000000000000815250601201915050604051602081830303815290604052906128fb576040517f08c379a00000000000000000000000000000000000000000000000000000000081526004018080602001828103825283818151815260200191508051906020019080838360005b838110156128c05780820151818401526020810190506128a5565b50505050905090810190601f1680156128ed5780820380516001836020036101000a031916815260200191505b509250505060405180910390fd5b505b856004868154811061290b57fe5b906000526020600020906002020160000160008973ffffffffffffffffffffffffffffffffffffffff1673ffffffffffffffffffffffffffffffffffffffff168152602001908152602001600020600201908051906020019061296f929190614a08565b5050505050505050565b8060028054905073__Library_______________________________632477a0ea83836040518363ffffffff1660e01b8152600401808381526020018281526020019250505060206040518083038186803b1580156129d757600080fd5b505af41580156129eb573d6000803e3d6000fd5b505050506040513d6020811015612a0157600080fd5b810190808051906020019092919050505015156001151514612a8b576040517f08c379a00000000000000000000000000000000000000000000000000000000081526004018080602001828103825260148152602001807f70726f76696465642049642069732077726f6e6700000000000000000000000081525060200191505060405180910390fd5b83612a9533611148565b1515600115151480612ad257508073ffffffffffffffffffffffffffffffffffffffff163373ffffffffffffffffffffffffffffffffffffffff16145b612b44576040517f08c379a000000000000000000000000000000000000000000000000000000000815260040180806020018281038252601c8152602001807f4e6f7420616c6c6f77656420746f2072656d6f766520656e746974790000000081525060200191505060405180910390fd5b60018585821515600015151415612cc357612b5f8282613574565b1515600015151460038281548110612b7357fe5b906000526020600020016040516020018082805460018160011615610100020316600290048015612bdb5780601f10612bb9576101008083540402835291820191612bdb565b820191906000526020600020905b815481529060010190602001808311612bc7575b5050807f20616c726561647920616374697661746564000000000000000000000000000081525060120191505060405160208183030381529060405290612cbd576040517f08c379a00000000000000000000000000000000000000000000000000000000081526004018080602001828103825283818151815260200191508051906020019080838360005b83811015612c82578082015181840152602081019050612c67565b50505050905090810190601f168015612caf5780820380516001836020036101000a031916815260200191505b509250505060405180910390fd5b50612e2d565b612ccd8282613574565b1515600115151460038281548110612ce157fe5b906000526020600020016040516020018082805460018160011615610100020316600290048015612d495780601f10612d27576101008083540402835291820191612d49565b820191906000526020600020905b815481529060010190602001808311612d35575b5050807f206d75737420626520616374697661746564000000000000000000000000000081525060120191505060405160208183030381529060405290612e2b576040517f08c379a00000000000000000000000000000000000000000000000000000000081526004018080602001828103825283818151815260200191508051906020019080838360005b83811015612df0578082015181840152602081019050612dd5565b50505050905090810190601f168015612e1d5780820380516001836020036101000a031916815260200191505b509250505060405180910390fd5b505b60018860006040518060400160405280601781526020017f4f776e65722068617320616c726561647920766f7465640000000000000000008152509050826001811115612e7657fe5b600180811115612e8257fe5b1415612fe757600460005481548110612e9757fe5b906000526020600020906002020160000160008373ffffffffffffffffffffffffffffffffffffffff1673ffffffffffffffffffffffffffffffffffffffff16815260200190815260200160002060060160003373ffffffffffffffffffffffffffffffffffffffff1673ffffffffffffffffffffffffffffffffffffffff16815260200190815260200160002060009054906101000a900460ff16151560001515148190612fe1576040517f08c379a00000000000000000000000000000000000000000000000000000000081526004018080602001828103825283818151815260200191508051906020019080838360005b83811015612fa6578082015181840152602081019050612f8b565b50505050905090810190601f168015612fd35780820380516001836020036101000a031916815260200191505b509250505060405180910390fd5b50613142565b600460005481548110612ff657fe5b906000526020600020906002020160000160008373ffffffffffffffffffffffffffffffffffffffff1673ffffffffffffffffffffffffffffffffffffffff16815260200190815260200160002060040160003373ffffffffffffffffffffffffffffffffffffffff1673ffffffffffffffffffffffffffffffffffffffff16815260200190815260200160002060009054906101000a900460ff16151560001515148190613140576040517f08c379a00000000000000000000000000000000000000000000000000000000081526004018080602001828103825283818151815260200191508051906020019080838360005b838110156131055780820151818401526020810190506130ea565b50505050905090810190601f1680156131325780820380516001836020036101000a031916815260200191505b509250505060405180910390fd5b505b600160048b8154811061315157fe5b906000526020600020906002020160000160008d73ffffffffffffffffffffffffffffffffffffffff1673ffffffffffffffffffffffffffffffffffffffff16815260200190815260200160002060050160008282540192505081905550600160048b815481106131be57fe5b906000526020600020906002020160000160008d73ffffffffffffffffffffffffffffffffffffffff1673ffffffffffffffffffffffffffffffffffffffff16815260200190815260200160002060060160003373ffffffffffffffffffffffffffffffffffffffff1673ffffffffffffffffffffffffffffffffffffffff16815260200190815260200160002060006101000a81548160ff0219169083151502179055508a73ffffffffffffffffffffffffffffffffffffffff163373ffffffffffffffffffffffffffffffffffffffff16148061330057506132ff60048b815481106132a857fe5b906000526020600020906002020160000160008d73ffffffffffffffffffffffffffffffffffffffff1673ffffffffffffffffffffffffffffffffffffffff16815260200190815260200160002060050154614959565b5b156135675760048a8154811061331257fe5b906000526020600020906002020160010160048b8154811061333057fe5b906000526020600020906002020160000160008d73ffffffffffffffffffffffffffffffffffffffff1673ffffffffffffffffffffffffffffffffffffffff168152602001908152602001600020600001548154811061338c57fe5b9060005260206000200160006101000a81549073ffffffffffffffffffffffffffffffffffffffff021916905560048a815481106133c657fe5b906000526020600020906002020160000160008c73ffffffffffffffffffffffffffffffffffffffff1673ffffffffffffffffffffffffffffffffffffffff1681526020019081526020016000206000808201600090556001820160006101000a81549060ff02191690556002820160006134419190614978565b600382016000905560058201600090555050600160028b8154811061346257fe5b90600052602060002001600082825403925050819055507f1f62d535f971041db7bd8760bf0f1f9f476461558744a35c0d477b5ad6893e8960038b815481106134a757fe5b906000526020600020018c60405180806020018373ffffffffffffffffffffffffffffffffffffffff1681526020018281038252848181546001816001161561010002031660029004815260200191508054600181600116156101000203166002900480156135575780601f1061352c57610100808354040283529160200191613557565b820191906000526020600020905b81548152906001019060200180831161353a57829003601f168201915b5050935050505060405180910390a15b5050505050505050505050565b60006004828154811061358357fe5b906000526020600020906002020160000160008473ffffffffffffffffffffffffffffffffffffffff1673ffffffffffffffffffffffffffffffffffffffff16815260200190815260200160002060010160009054906101000a900460ff16905092915050565b8060028054905073__Library_______________________________632477a0ea83836040518363ffffffff1660e01b8152600401808381526020018281526020019250505060206040518083038186803b15801561364857600080fd5b505af415801561365c573d6000803e3d6000fd5b505050506040513d602081101561367257600080fd5b8101908080519060200190929190505050151560011515146136fc576040517f08c379a00000000000000000000000000000000000000000000000000000000081526004018080602001828103825260148152602001807f70726f76696465642049642069732077726f6e6700000000000000000000000081525060200191505060405180910390fd5b61370533611148565b15156001151514613761576040517f08c379a000000000000000000000000000000000000000000000000000000000815260040180806020018281038252602e815260200180614ba4602e913960400191505060405180910390fd5b600085848215156000151514156138e05761377c8282613574565b151560001515146003828154811061379057fe5b9060005260206000200160405160200180828054600181600116156101000203166002900480156137f85780601f106137d65761010080835404028352918201916137f8565b820191906000526020600020905b8154815290600101906020018083116137e4575b5050807f20616c7265616479206163746976617465640000000000000000000000000000815250601201915050604051602081830303815290604052906138da576040517f08c379a00000000000000000000000000000000000000000000000000000000081526004018080602001828103825283818151815260200191508051906020019080838360005b8381101561389f578082015181840152602081019050613884565b50505050905090810190601f1680156138cc5780820380516001836020036101000a031916815260200191505b509250505060405180910390fd5b50613a4a565b6138ea8282613574565b15156001151514600382815481106138fe57fe5b9060005260206000200160405160200180828054600181600116156101000203166002900480156139665780601f10613944576101008083540402835291820191613966565b820191906000526020600020905b815481529060010190602001808311613952575b5050807f206d75737420626520616374697661746564000000000000000000000000000081525060120191505060405160208183030381529060405290613a48576040517f08c379a00000000000000000000000000000000000000000000000000000000081526004018080602001828103825283818151815260200191508051906020019080838360005b83811015613a0d5780820151818401526020810190506139f2565b50505050905090810190601f168015613a3a5780820380516001836020036101000a031916815260200191505b509250505060405180910390fd5b505b60008860006040518060400160405280601781526020017f4f776e65722068617320616c726561647920766f7465640000000000000000008152509050826001811115613a9357fe5b600180811115613a9f57fe5b1415613c0457600460005481548110613ab457fe5b906000526020600020906002020160000160008373ffffffffffffffffffffffffffffffffffffffff1673ffffffffffffffffffffffffffffffffffffffff16815260200190815260200160002060060160003373ffffffffffffffffffffffffffffffffffffffff1673ffffffffffffffffffffffffffffffffffffffff16815260200190815260200160002060009054906101000a900460ff16151560001515148190613bfe576040517f08c379a00000000000000000000000000000000000000000000000000000000081526004018080602001828103825283818151815260200191508051906020019080838360005b83811015613bc3578082015181840152602081019050613ba8565b50505050905090810190601f168015613bf05780820380516001836020036101000a031916815260200191505b509250505060405180910390fd5b50613d5f565b600460005481548110613c1357fe5b906000526020600020906002020160000160008373ffffffffffffffffffffffffffffffffffffffff1673ffffffffffffffffffffffffffffffffffffffff16815260200190815260200160002060040160003373ffffffffffffffffffffffffffffffffffffffff1673ffffffffffffffffffffffffffffffffffffffff16815260200190815260200160002060009054906101000a900460ff16151560001515148190613d5d576040517f08c379a00000000000000000000000000000000000000000000000000000000081526004018080602001828103825283818151815260200191508051906020019080838360005b83811015613d22578082015181840152602081019050613d07565b50505050905090810190601f168015613d4f5780820380516001836020036101000a031916815260200191505b509250505060405180910390fd5b505b60048981548110613d6c57fe5b906000526020600020906002020160000160008c73ffffffffffffffffffffffffffffffffffffffff1673ffffffffffffffffffffffffffffffffffffffff1681526020019081526020016000206003015460001415613e3a578960048a81548110613dd457fe5b906000526020600020906002020160000160008d73ffffffffffffffffffffffffffffffffffffffff1673ffffffffffffffffffffffffffffffffffffffff1681526020019081526020016000206002019080519060200190613e38929190614a08565b505b600160048a81548110613e4957fe5b906000526020600020906002020160000160008d73ffffffffffffffffffffffffffffffffffffffff1673ffffffffffffffffffffffffffffffffffffffff16815260200190815260200160002060030160008282540192505081905550600160048a81548110613eb657fe5b906000526020600020906002020160000160008d73ffffffffffffffffffffffffffffffffffffffff1673ffffffffffffffffffffffffffffffffffffffff16815260200190815260200160002060040160003373ffffffffffffffffffffffffffffffffffffffff1673ffffffffffffffffffffffffffffffffffffffff16815260200190815260200160002060006101000a81548160ff021916908315150217905550613fc260048a81548110613f6b57fe5b906000526020600020906002020160000160008d73ffffffffffffffffffffffffffffffffffffffff1673ffffffffffffffffffffffffffffffffffffffff16815260200190815260200160002060030154614959565b1561425557600160048a81548110613fd657fe5b906000526020600020906002020160000160008d73ffffffffffffffffffffffffffffffffffffffff1673ffffffffffffffffffffffffffffffffffffffff16815260200190815260200160002060010160006101000a81548160ff0219169083151502179055506004898154811061404b57fe5b90600052602060002090600202016001018054905060048a8154811061406d57fe5b906000526020600020906002020160000160008d73ffffffffffffffffffffffffffffffffffffffff1673ffffffffffffffffffffffffffffffffffffffff16815260200190815260200160002060000181905550600489815481106140cf57fe5b90600052602060002090600202016001018b9080600181540180825580915050600190039060005260206000200160009091909190916101000a81548173ffffffffffffffffffffffffffffffffffffffff021916908373ffffffffffffffffffffffffffffffffffffffff160217905550600160028a8154811061415057fe5b90600052602060002001600082825401925050819055507f3c139d46a211844e248647688545a37c07c505c999c1232d1247c707dc0a91e260038a8154811061419557fe5b906000526020600020018c60405180806020018373ffffffffffffffffffffffffffffffffffffffff1681526020018281038252848181546001816001161561010002031660029004815260200191508054600181600116156101000203166002900480156142455780601f1061421a57610100808354040283529160200191614245565b820191906000526020600020905b81548152906001019060200180831161422857829003601f168201915b5050935050505060405180910390a15b5050505050505050505050565b6060600183838215156000151514156143e35761427f8282613574565b151560001515146003828154811061429357fe5b9060005260206000200160405160200180828054600181600116156101000203166002900480156142fb5780601f106142d95761010080835404028352918201916142fb565b820191906000526020600020905b8154815290600101906020018083116142e7575b5050807f20616c7265616479206163746976617465640000000000000000000000000000815250601201915050604051602081830303815290604052906143dd576040517f08c379a00000000000000000000000000000000000000000000000000000000081526004018080602001828103825283818151815260200191508051906020019080838360005b838110156143a2578082015181840152602081019050614387565b50505050905090810190601f1680156143cf5780820380516001836020036101000a031916815260200191505b509250505060405180910390fd5b5061454d565b6143ed8282613574565b151560011515146003828154811061440157fe5b9060005260206000200160405160200180828054600181600116156101000203166002900480156144695780601f10614447576101008083540402835291820191614469565b820191906000526020600020905b815481529060010190602001808311614455575b5050807f206d7573742062652061637469766174656400000000000000000000000000008152506012019150506040516020818303038152906040529061454b576040517f08c379a00000000000000000000000000000000000000000000000000000000081526004018080602001828103825283818151815260200191508051906020019080838360005b838110156145105780820151818401526020810190506144f5565b50505050905090810190601f16801561453d5780820380516001836020036101000a031916815260200191505b509250505060405180910390fd5b505b6004858154811061455a57fe5b906000526020600020906002020160000160008773ffffffffffffffffffffffffffffffffffffffff1673ffffffffffffffffffffffffffffffffffffffff1681526020019081526020016000206002018054600181600116156101000203166002900480601f01602080910402602001604051908101604052809291908181526020018280546001816001161561010002031660029004801561463f5780601f106146145761010080835404028352916020019161463f565b820191906000526020600020905b81548152906001019060200180831161462257829003601f168201915b5050505050935050505092915050565b60608160028054905073__Library_______________________________632477a0ea83836040518363ffffffff1660e01b8152600401808381526020018281526020019250505060206040518083038186803b1580156146af57600080fd5b505af41580156146c3573d6000803e3d6000fd5b505050506040513d60208110156146d957600080fd5b810190808051906020019092919050505015156001151514614763576040517f08c379a00000000000000000000000000000000000000000000000000000000081526004018080602001828103825260148152602001807f70726f76696465642049642069732077726f6e6700000000000000000000000081525060200191505060405180910390fd5b60006002858154811061477257fe5b906000526020600020015467ffffffffffffffff8111801561479357600080fd5b506040519080825280602002602001820160405280156147c25781602001602082028036833780820191505090505b509050600080600090505b600487815481106147da57fe5b90600052602060002090600202016001018054905081101561492b576004878154811061480357fe5b9060005260206000209060020201600101818154811061481f57fe5b9060005260206000200160009054906101000a900473ffffffffffffffffffffffffffffffffffffffff1673ffffffffffffffffffffffffffffffffffffffff16600073ffffffffffffffffffffffffffffffffffffffff161461491e576004878154811061488a57fe5b906000526020600020906002020160010181815481106148a657fe5b9060005260206000200160009054906101000a900473ffffffffffffffffffffffffffffffffffffffff168383815181106148dd57fe5b602002602001019073ffffffffffffffffffffffffffffffffffffffff16908173ffffffffffffffffffffffffffffffffffffffff16815250506001820191505b80806001019150506147cd565b5081945050505050919050565b60006002828154811061494757fe5b90600052602060002001549050919050565b600060015482101561496e5760009050614973565b600190505b919050565b50805460018160011615610100020316600290046000825580601f1061499e57506149bd565b601f0160209004906000526020600020908101906149bc9190614b24565b5b50565b50805460018160011615610100020316600290046000825580601f106149e65750614a05565b601f016020900490600052602060002090810190614a049190614b24565b5b50565b828054600181600116156101000203166002900490600052602060002090601f016020900481019282614a3e5760008555614a85565b82601f10614a5757805160ff1916838001178555614a85565b82800160010185558215614a85579182015b82811115614a84578251825591602001919060010190614a69565b5b509050614a929190614b24565b5090565b828054600181600116156101000203166002900490600052602060002090601f016020900481019282614acc5760008555614b13565b82601f10614ae557805160ff1916838001178555614b13565b82800160010185558215614b13579182015b82811115614b12578251825591602001919060010190614af7565b5b509050614b209190614b24565b5090565b5b80821115614b3d576000816000905550600101614b25565b509056fe4e6f7420616c6c6f77656420746f20757064617465207468697320706172746963756c61722043657274696669636174654f6e6c792050726f7669646572732061726520616c6c6f77656420746f20706572666f726d207468697320616374696f6e4f6e6c79204f776e6572732061726520616c6c6f77656420746f20706572666f726d207468697320616374696f6e4e6f7420616c6c6f77656420746f2072656d6f7665207468697320706172746963756c6172204365727469666963617465a2646970667358221220e25db15080f44d7ac9a21d44f39c0b21a6a499abfcc2734e0f480fdeddcac93b64736f6c634300070600334e6f7420656e6f756768206f776e6572732070726f766964656420746f206d65657420746865206d696e4f776e65727320726571756972656d656e74a26469706673582212202eaa2262f5ee2128def5c2cc67e9fa30f8c5e575695a75344e7477240c18bec164736f6c63430007060033608060405260405180604001604052806040518060400160405280600581526020017f4f776e657200000000000000000000000000000000000000000000000000000081525081526020016040518060400160405280600881526020017f50726f76696465720000000000000000000000000000000000000000000000008152508152506005906002620000959291906200060d565b50604051620063a8380380620063a883398181016040526040811015620000bb57600080fd5b8101908080516040519392919084640100000000821115620000dc57600080fd5b83820191506020820185811115620000f357600080fd5b82518660208202830111640100000000821117156200011157600080fd5b8083526020830192505050908051906020019060200280838360005b838110156200014a5780820151818401526020810190506200012d565b50505050905001604052602001805190602001909291905050508181818160026005805480602002602001604051908101604052809291908181526020016000905b828210156200024e578382906000526020600020018054600181600116156101000203166002900480601f016020809104026020016040519081016040528092919081815260200182805460018160011615610100020316600290048015620002395780601f106200020d5761010080835404028352916020019162000239565b820191906000526020600020905b8154815290600101906020018083116200021b57829003601f168201915b5050505050815260200190600101906200018c565b5050505060008451841115620002b0576040517f08c379a000000000000000000000000000000000000000000000000000000000815260040180806020018281038252603c8152602001806200636c603c913960400191505060405180910390fd5b6000841162000327576040517f08c379a00000000000000000000000000000000000000000000000000000000081526004018080602001828103825260188152602001807f4174206c656173742031206d696e696d756d206f776e6572000000000000000081525060200191505060405180910390fd5b815183146200039e576040517f08c379a000000000000000000000000000000000000000000000000000000000815260040180806020018281038252601d8152602001807f4e6f7420656e6f756768206f7220746f6f206d616e79206c6162656c7300000081525060200191505060405180910390fd5b8060008190555060005b838110156200044c5760046001816001815401808255809150500390600052602060002090505060026001816001815401808255809150500390600052602060002050506003838281518110620003fb57fe5b60200260200101519080600181540180825580915050600190039060005260206000200160009091909190915090805190602001906200043d92919062000674565b508080600101915050620003a8565b508360018190555060005b8551811015620005bc5760016004600054815481106200047357fe5b906000526020600020906002020160000160008884815181106200049357fe5b602002602001015173ffffffffffffffffffffffffffffffffffffffff1673ffffffffffffffffffffffffffffffffffffffff16815260200190815260200160002060010160006101000a81548160ff021916908315150217905550600460005481548110620004ff57fe5b90600052602060002090600202016001018682815181106200051d57fe5b60200260200101519080600181540180825580915050600190039060005260206000200160009091909190916101000a81548173ffffffffffffffffffffffffffffffffffffffff021916908373ffffffffffffffffffffffffffffffffffffffff16021790555060016002600054815481106200059757fe5b9060005260206000200160008282540192505081905550808060010191505062000457565b505050505050505033600760006101000a81548173ffffffffffffffffffffffffffffffffffffffff021916908373ffffffffffffffffffffffffffffffffffffffff16021790555050506200079e565b82805482825590600052602060002090810192821562000661579160200282015b82811115620006605782518290805190602001906200064f92919062000674565b50916020019190600101906200062e565b5b5090506200067091906200070b565b5090565b828054600181600116156101000203166002900490600052602060002090601f016020900481019282620006ac5760008555620006f8565b82601f10620006c757805160ff1916838001178555620006f8565b82800160010185558215620006f8579182015b82811115620006f7578251825591602001919060010190620006da565b5b50905062000707919062000733565b5090565b5b808211156200072f576000818162000725919062000752565b506001016200070c565b5090565b5b808211156200074e57600081600090555060010162000734565b5090565b50805460018160011615610100020316600290046000825580601f106200077a57506200079b565b601f0160209004906000526020600020908101906200079a919062000733565b5b50565b615bbe80620007ae6000396000f3fe608060405234801561001057600080fd5b50600436106101425760003560e01c806377bc5a1f116100b85780639fc104361161007c5780639fc1043614610c49578063a93d5ed614610d24578063d744d2f314610d83578063eefe768114610da1578063fc00050014610dbf578063fd90ae7614610e9a57610142565b806377bc5a1f1461067357806382ff66a3146107305780638a355a57146109395780639a90be9e1461097d5780639df6652814610a3657610142565b80633542758f1161010a5780633542758f1461037c57806337583499146104575780633bc6fe0e146105145780636b074a07146105625780636e4f9179146105bc5780636e55d2d41461061b57610142565b80631270db7a146101475780631660c22a146101bf578063173825d91461029a57806327a40b4b146102de5780632f54bf6e14610322575b600080fd5b6101a96004803603604081101561015d57600080fd5b81019080803573ffffffffffffffffffffffffffffffffffffffff169060200190929190803573ffffffffffffffffffffffffffffffffffffffff169060200190929190505050611056565b6040518082815260200191505060405180910390f35b610298600480360360408110156101d557600080fd5b81019080803573ffffffffffffffffffffffffffffffffffffffff1690602001909291908035906020019064010000000081111561021257600080fd5b82018360208201111561022457600080fd5b8035906020019184600183028401116401000000008311171561024657600080fd5b91908080601f016020809104026020016040519081016040528093929190818152602001838380828437600081840152601f19601f820116905080830192505050505050509192919290505050611178565b005b6102dc600480360360208110156102b057600080fd5b81019080803573ffffffffffffffffffffffffffffffffffffffff169060200190929190505050611188565b005b610320600480360360208110156102f457600080fd5b81019080803573ffffffffffffffffffffffffffffffffffffffff169060200190929190505050611197565b005b6103646004803603602081101561033857600080fd5b81019080803573ffffffffffffffffffffffffffffffffffffffff169060200190929190505050611d92565b60405180821515815260200191505060405180910390f35b6104556004803603604081101561039257600080fd5b81019080803573ffffffffffffffffffffffffffffffffffffffff169060200190929190803590602001906401000000008111156103cf57600080fd5b8201836020820111156103e157600080fd5b8035906020019184600183028401116401000000008311171561040357600080fd5b91908080601f016020809104026020016040519081016040528093929190818152602001838380828437600081840152601f19601f820116905080830192505050505050509192919290505050611da7565b005b6104996004803603602081101561046d57600080fd5b81019080803573ffffffffffffffffffffffffffffffffffffffff169060200190929190505050611db8565b6040518080602001828103825283818151815260200191508051906020019080838360005b838110156104d95780820151818401526020810190506104be565b50505050905090810190601f1680156105065780820380516001836020036101000a031916815260200191505b509250505060405180910390f35b6105606004803603604081101561052a57600080fd5b8101908080359060200190929190803573ffffffffffffffffffffffffffffffffffffffff169060200190929190505050611dcc565b005b6105a46004803603602081101561057857600080fd5b81019080803573ffffffffffffffffffffffffffffffffffffffff169060200190929190505050612265565b60405180821515815260200191505060405180910390f35b6105c4612279565b6040518080602001828103825283818151815260200191508051906020019060200280838360005b838110156106075780820151818401526020810190506105ec565b505050509050019250505060405180910390f35b61065d6004803603602081101561063157600080fd5b81019080803573ffffffffffffffffffffffffffffffffffffffff16906020019092919050505061228a565b6040518082815260200191505060405180910390f35b6106b56004803603602081101561068957600080fd5b81019080803573ffffffffffffffffffffffffffffffffffffffff1690602001909291905050506122d6565b6040518080602001828103825283818151815260200191508051906020019080838360005b838110156106f55780820151818401526020810190506106da565b50505050905090810190601f1680156107225780820380516001836020036101000a031916815260200191505b509250505060405180910390f35b6109376004803603608081101561074657600080fd5b810190808035906020019064010000000081111561076357600080fd5b82018360208201111561077557600080fd5b8035906020019184600183028401116401000000008311171561079757600080fd5b91908080601f016020809104026020016040519081016040528093929190818152602001838380828437600081840152601f19601f820116905080830192505050505050509192919290803590602001906401000000008111156107fa57600080fd5b82018360208201111561080c57600080fd5b8035906020019184600183028401116401000000008311171561082e57600080fd5b91908080601f016020809104026020016040519081016040528093929190818152602001838380828437600081840152601f19601f8201169050808301925050505050505091929192908035906020019064010000000081111561089157600080fd5b8201836020820111156108a357600080fd5b803590602001918460018302840111640100000000831117156108c557600080fd5b91908080601f016020809104026020016040519081016040528093929190818152602001838380828437600081840152601f19601f820116905080830192505050505050509192919290803573ffffffffffffffffffffffffffffffffffffffff1690602001909291905050506122eb565b005b61097b6004803603602081101561094f57600080fd5b81019080803573ffffffffffffffffffffffffffffffffffffffff1690602001909291905050506125e3565b005b6109df6004803603604081101561099357600080fd5b81019080803573ffffffffffffffffffffffffffffffffffffffff169060200190929190803573ffffffffffffffffffffffffffffffffffffffff1690602001909291905050506125f1565b6040518080602001828103825283818151815260200191508051906020019060200280838360005b83811015610a22578082015181840152602081019050610a07565b505050509050019250505060405180910390f35b610c47600480360360a0811015610a4c57600080fd5b8101908080359060200190929190803573ffffffffffffffffffffffffffffffffffffffff16906020019092919080359060200190640100000000811115610a9357600080fd5b820183602082011115610aa557600080fd5b80359060200191846001830284011164010000000083111715610ac757600080fd5b91908080601f016020809104026020016040519081016040528093929190818152602001838380828437600081840152601f19601f82011690508083019250505050505050919291929080359060200190640100000000811115610b2a57600080fd5b820183602082011115610b3c57600080fd5b80359060200191846001830284011164010000000083111715610b5e57600080fd5b91908080601f016020809104026020016040519081016040528093929190818152602001838380828437600081840152601f19601f82011690508083019250505050505050919291929080359060200190640100000000811115610bc157600080fd5b820183602082011115610bd357600080fd5b80359060200191846001830284011164010000000083111715610bf557600080fd5b91908080601f016020809104026020016040519081016040528093929190818152602001838380828437600081840152601f19601f82011690508083019250505050505050919291929050505061277d565b005b610d2260048036036040811015610c5f57600080fd5b81019080803573ffffffffffffffffffffffffffffffffffffffff16906020019092919080359060200190640100000000811115610c9c57600080fd5b820183602082011115610cae57600080fd5b80359060200191846001830284011164010000000083111715610cd057600080fd5b91908080601f016020809104026020016040519081016040528093929190818152602001838380828437600081840152601f19601f820116905080830192505050505050509192919290505050612c9c565b005b610d2c612cad565b6040518080602001828103825283818151815260200191508051906020019060200280838360005b83811015610d6f578082015181840152602081019050610d54565b505050509050019250505060405180910390f35b610d8b612cbf565b6040518082815260200191505060405180910390f35b610da9612cd0565b6040518082815260200191505060405180910390f35b610e9860048036036040811015610dd557600080fd5b81019080803573ffffffffffffffffffffffffffffffffffffffff16906020019092919080359060200190640100000000811115610e1257600080fd5b820183602082011115610e2457600080fd5b80359060200191846001830284011164010000000083111715610e4657600080fd5b91908080601f016020809104026020016040519081016040528093929190818152602001838380828437600081840152601f19601f820116905080830192505050505050509192919290505050612ce2565b005b610ee660048036036040811015610eb057600080fd5b8101908080359060200190929190803573ffffffffffffffffffffffffffffffffffffffff169060200190929190505050612fe1565b604051808573ffffffffffffffffffffffffffffffffffffffff168152602001806020018060200180602001848103845287818151815260200191508051906020019080838360005b83811015610f4a578082015181840152602081019050610f2f565b50505050905090810190601f168015610f775780820380516001836020036101000a031916815260200191505b50848103835286818151815260200191508051906020019080838360005b83811015610fb0578082015181840152602081019050610f95565b50505050905090810190601f168015610fdd5780820380516001836020036101000a031916815260200191505b50848103825285818151815260200191508051906020019080838360005b83811015611016578082015181840152602081019050610ffb565b50505050905090810190601f1680156110435780820380516001836020036101000a031916815260200191505b5097505050505050505060405180910390f35b6000806000905060005b600660008573ffffffffffffffffffffffffffffffffffffffff1673ffffffffffffffffffffffffffffffffffffffff1681526020019081526020016000208054905081101561116d578473ffffffffffffffffffffffffffffffffffffffff16600660008673ffffffffffffffffffffffffffffffffffffffff1673ffffffffffffffffffffffffffffffffffffffff168152602001908152602001600020828154811061110b57fe5b906000526020600020906004020160000160009054906101000a900473ffffffffffffffffffffffffffffffffffffffff1673ffffffffffffffffffffffffffffffffffffffff161415611160576001820191505b8080600101915050611060565b508091505092915050565b611184828260016134ab565b5050565b611194816000546138b2565b50565b60018181151560001515141561125557600860008273ffffffffffffffffffffffffffffffffffffffff1673ffffffffffffffffffffffffffffffffffffffff16815260200190815260200160002060009054906101000a900460ff1615156000151514611250576040517f08c379a0000000000000000000000000000000000000000000000000000000008152600401808060200182810382526029815260200180615b606029913960400191505060405180910390fd5b6112ff565b600860008273ffffffffffffffffffffffffffffffffffffffff1673ffffffffffffffffffffffffffffffffffffffff16815260200190815260200160002060009054906101000a900460ff16151560011515146112fe576040517f08c379a0000000000000000000000000000000000000000000000000000000008152600401808060200182810382526024815260200180615add6024913960400191505060405180910390fd5b5b61130833611d92565b15156001151514611364576040517f08c379a000000000000000000000000000000000000000000000000000000000815260040180806020018281038252602e815260200180615b01602e913960400191505060405180910390fd5b60008360018215156000151514156114e45761138082826144ad565b151560001515146003828154811061139457fe5b9060005260206000200160405160200180828054600181600116156101000203166002900480156113fc5780601f106113da5761010080835404028352918201916113fc565b820191906000526020600020905b8154815290600101906020018083116113e8575b5050807f20616c7265616479206163746976617465640000000000000000000000000000815250601201915050604051602081830303815290604052906114de576040517f08c379a00000000000000000000000000000000000000000000000000000000081526004018080602001828103825283818151815260200191508051906020019080838360005b838110156114a3578082015181840152602081019050611488565b50505050905090810190601f1680156114d05780820380516001836020036101000a031916815260200191505b509250505060405180910390fd5b5061164e565b6114ee82826144ad565b151560011515146003828154811061150257fe5b90600052602060002001604051602001808280546001816001161561010002031660029004801561156a5780601f1061154857610100808354040283529182019161156a565b820191906000526020600020905b815481529060010190602001808311611556575b5050807f206d7573742062652061637469766174656400000000000000000000000000008152506012019150506040516020818303038152906040529061164c576040517f08c379a00000000000000000000000000000000000000000000000000000000081526004018080602001828103825283818151815260200191508051906020019080838360005b838110156116115780820151818401526020810190506115f6565b50505050905090810190601f16801561163e5780820380516001836020036101000a031916815260200191505b509250505060405180910390fd5b505b60008660006040518060400160405280601781526020017f4f776e65722068617320616c726561647920766f746564000000000000000000815250905082600181111561169757fe5b6001808111156116a357fe5b1415611808576004600054815481106116b857fe5b906000526020600020906002020160000160008373ffffffffffffffffffffffffffffffffffffffff1673ffffffffffffffffffffffffffffffffffffffff16815260200190815260200160002060060160003373ffffffffffffffffffffffffffffffffffffffff1673ffffffffffffffffffffffffffffffffffffffff16815260200190815260200160002060009054906101000a900460ff16151560001515148190611802576040517f08c379a00000000000000000000000000000000000000000000000000000000081526004018080602001828103825283818151815260200191508051906020019080838360005b838110156117c75780820151818401526020810190506117ac565b50505050905090810190601f1680156117f45780820380516001836020036101000a031916815260200191505b509250505060405180910390fd5b50611963565b60046000548154811061181757fe5b906000526020600020906002020160000160008373ffffffffffffffffffffffffffffffffffffffff1673ffffffffffffffffffffffffffffffffffffffff16815260200190815260200160002060040160003373ffffffffffffffffffffffffffffffffffffffff1673ffffffffffffffffffffffffffffffffffffffff16815260200190815260200160002060009054906101000a900460ff16151560001515148190611961576040517f08c379a00000000000000000000000000000000000000000000000000000000081526004018080602001828103825283818151815260200191508051906020019080838360005b8381101561192657808201518184015260208101905061190b565b50505050905090810190601f1680156119535780820380516001836020036101000a031916815260200191505b509250505060405180910390fd5b505b6001600460018154811061197357fe5b906000526020600020906002020160000160008b73ffffffffffffffffffffffffffffffffffffffff1673ffffffffffffffffffffffffffffffffffffffff16815260200190815260200160002060030160008282540192505081905550600160046001815481106119e157fe5b906000526020600020906002020160000160008b73ffffffffffffffffffffffffffffffffffffffff1673ffffffffffffffffffffffffffffffffffffffff16815260200190815260200160002060040160003373ffffffffffffffffffffffffffffffffffffffff1673ffffffffffffffffffffffffffffffffffffffff16815260200190815260200160002060006101000a81548160ff021916908315150217905550611aee6004600181548110611a9757fe5b906000526020600020906002020160000160008b73ffffffffffffffffffffffffffffffffffffffff1673ffffffffffffffffffffffffffffffffffffffff16815260200190815260200160002060030154614523565b15611d875760016004600181548110611b0357fe5b906000526020600020906002020160000160008b73ffffffffffffffffffffffffffffffffffffffff1673ffffffffffffffffffffffffffffffffffffffff16815260200190815260200160002060010160006101000a81548160ff0219169083151502179055506004600181548110611b7957fe5b9060005260206000209060020201600101805490506004600181548110611b9c57fe5b906000526020600020906002020160000160008b73ffffffffffffffffffffffffffffffffffffffff1673ffffffffffffffffffffffffffffffffffffffff168152602001908152602001600020600001819055506004600181548110611bff57fe5b9060005260206000209060020201600101899080600181540180825580915050600190039060005260206000200160009091909190916101000a81548173ffffffffffffffffffffffffffffffffffffffff021916908373ffffffffffffffffffffffffffffffffffffffff16021790555060016002600181548110611c8157fe5b90600052602060002001600082825401925050819055507f3c139d46a211844e248647688545a37c07c505c999c1232d1247c707dc0a91e26003600181548110611cc757fe5b906000526020600020018a60405180806020018373ffffffffffffffffffffffffffffffffffffffff168152602001828103825284818154600181600116156101000203166002900481526020019150805460018160011615610100020316600290048015611d775780601f10611d4c57610100808354040283529160200191611d77565b820191906000526020600020905b815481529060010190602001808311611d5a57829003601f168201915b5050935050505060405180910390a15b505050505050505050565b6000611da0826000546144ad565b9050919050565b611db48282600054614542565b5050565b6060611dc58260016151ba565b9050919050565b611dd533612265565b15156001151514611e31576040517f08c379a0000000000000000000000000000000000000000000000000000000008152600401808060200182810382526031815260200180615aac6031913960400191505060405180910390fd5b81600660008373ffffffffffffffffffffffffffffffffffffffff1673ffffffffffffffffffffffffffffffffffffffff1681526020019081526020016000208054905073__Library_______________________________632477a0ea83836040518363ffffffff1660e01b8152600401808381526020018281526020019250505060206040518083038186803b158015611ecc57600080fd5b505af4158015611ee0573d6000803e3d6000fd5b505050506040513d6020811015611ef657600080fd5b810190808051906020019092919050505015156001151514611f80576040517f08c379a00000000000000000000000000000000000000000000000000000000081526004018080602001828103825260148152602001807f70726f76696465642049642069732077726f6e6700000000000000000000000081525060200191505060405180910390fd5b8284600660008373ffffffffffffffffffffffffffffffffffffffff1673ffffffffffffffffffffffffffffffffffffffff1681526020019081526020016000208181548110611fcc57fe5b906000526020600020906004020160000160009054906101000a900473ffffffffffffffffffffffffffffffffffffffff1673ffffffffffffffffffffffffffffffffffffffff163373ffffffffffffffffffffffffffffffffffffffff16148061206257508173ffffffffffffffffffffffffffffffffffffffff163373ffffffffffffffffffffffffffffffffffffffff16145b6120b7576040517f08c379a0000000000000000000000000000000000000000000000000000000008152600401808060200182810382526031815260200180615b2f6031913960400191505060405180910390fd5b6000600660008773ffffffffffffffffffffffffffffffffffffffff1673ffffffffffffffffffffffffffffffffffffffff168152602001908152602001600020878154811061210357fe5b906000526020600020906004020160000160009054906101000a900473ffffffffffffffffffffffffffffffffffffffff169050600660008773ffffffffffffffffffffffffffffffffffffffff1673ffffffffffffffffffffffffffffffffffffffff168152602001908152602001600020878154811061218157fe5b9060005260206000209060040201600080820160006101000a81549073ffffffffffffffffffffffffffffffffffffffff02191690556001820160006121c791906158b1565b6002820160006121d791906158b1565b6003820160006121e791906158f9565b50507f709d6b1b4d6f0b57a9f43c17f08c02648af8d37929b58caa594a4b03b8424687818789604051808473ffffffffffffffffffffffffffffffffffffffff1681526020018373ffffffffffffffffffffffffffffffffffffffff168152602001828152602001935050505060405180910390a150505050505050565b60006122728260016144ad565b9050919050565b606061228560016155a7565b905090565b6000600660008373ffffffffffffffffffffffffffffffffffffffff1673ffffffffffffffffffffffffffffffffffffffff168152602001908152602001600020805490509050919050565b60606122e4826000546151ba565b9050919050565b6122f433612265565b15156001151514612350576040517f08c379a0000000000000000000000000000000000000000000000000000000008152600401808060200182810382526031815260200180615aac6031913960400191505060405180910390fd5b8151600010801561236e575082516000108061236d575083516000105b5b6123e0576040517f08c379a00000000000000000000000000000000000000000000000000000000081526004018080602001828103825260148152602001807f436572746966696361746520697320656d70747900000000000000000000000081525060200191505060405180910390fd5b600660008273ffffffffffffffffffffffffffffffffffffffff1673ffffffffffffffffffffffffffffffffffffffff16815260200190815260200160002060405180608001604052803373ffffffffffffffffffffffffffffffffffffffff16815260200186815260200185815260200184815250908060018154018082558091505060019003906000526020600020906004020160009091909190915060008201518160000160006101000a81548173ffffffffffffffffffffffffffffffffffffffff021916908373ffffffffffffffffffffffffffffffffffffffff16021790555060208201518160010190805190602001906124e2929190615941565b5060408201518160020190805190602001906124ff929190615941565b50606082015181600301908051906020019061251c9291906159cf565b50505060006001600660008473ffffffffffffffffffffffffffffffffffffffff1673ffffffffffffffffffffffffffffffffffffffff168152602001908152602001600020805490500390507f76f4df91a34263fc533728c4689dd106f547d04117b44c2f5606efdbc184bdde338383604051808473ffffffffffffffffffffffffffffffffffffffff1681526020018373ffffffffffffffffffffffffffffffffffffffff168152602001828152602001935050505060405180910390a15050505050565b6125ee8160016138b2565b50565b606060006125ff8484611056565b67ffffffffffffffff8111801561261557600080fd5b506040519080825280602002602001820160405280156126445781602001602082028036833780820191505090505b5090506000805b600660008673ffffffffffffffffffffffffffffffffffffffff1673ffffffffffffffffffffffffffffffffffffffff16815260200190815260200160002080549050811015612771578573ffffffffffffffffffffffffffffffffffffffff16600660008773ffffffffffffffffffffffffffffffffffffffff1673ffffffffffffffffffffffffffffffffffffffff16815260200190815260200160002082815481106126f657fe5b906000526020600020906004020160000160009054906101000a900473ffffffffffffffffffffffffffffffffffffffff1673ffffffffffffffffffffffffffffffffffffffff161415612764578083838151811061275157fe5b6020026020010181815250506001820191505b808060010191505061264b565b50819250505092915050565b61278633612265565b151560011515146127e2576040517f08c379a0000000000000000000000000000000000000000000000000000000008152600401808060200182810382526031815260200180615aac6031913960400191505060405180910390fd5b84600660008673ffffffffffffffffffffffffffffffffffffffff1673ffffffffffffffffffffffffffffffffffffffff1681526020019081526020016000208054905073__Library_______________________________632477a0ea83836040518363ffffffff1660e01b8152600401808381526020018281526020019250505060206040518083038186803b15801561287d57600080fd5b505af4158015612891573d6000803e3d6000fd5b505050506040513d60208110156128a757600080fd5b810190808051906020019092919050505015156001151514612931576040517f08c379a00000000000000000000000000000000000000000000000000000000081526004018080602001828103825260148152602001807f70726f76696465642049642069732077726f6e6700000000000000000000000081525060200191505060405180910390fd5b8587600660008373ffffffffffffffffffffffffffffffffffffffff1673ffffffffffffffffffffffffffffffffffffffff168152602001908152602001600020818154811061297d57fe5b906000526020600020906004020160000160009054906101000a900473ffffffffffffffffffffffffffffffffffffffff1673ffffffffffffffffffffffffffffffffffffffff163373ffffffffffffffffffffffffffffffffffffffff1614612a32576040517f08c379a0000000000000000000000000000000000000000000000000000000008152600401808060200182810382526031815260200180615a7b6031913960400191505060405180910390fd5b865160001015612aad5786600660008a73ffffffffffffffffffffffffffffffffffffffff1673ffffffffffffffffffffffffffffffffffffffff1681526020019081526020016000208a81548110612a8757fe5b90600052602060002090600402016001019080519060200190612aab929190615941565b505b855160001015612b285785600660008a73ffffffffffffffffffffffffffffffffffffffff1673ffffffffffffffffffffffffffffffffffffffff1681526020019081526020016000208a81548110612b0257fe5b90600052602060002090600402016002019080519060200190612b26929190615941565b505b845160001015612ba35784600660008a73ffffffffffffffffffffffffffffffffffffffff1673ffffffffffffffffffffffffffffffffffffffff1681526020019081526020016000208a81548110612b7d57fe5b90600052602060002090600402016003019080519060200190612ba19291906159cf565b505b7f736a6334743f8e5fff8d835332a115f2c34c1bbf6e2384459e1a24e0540bd47c600660008a73ffffffffffffffffffffffffffffffffffffffff1673ffffffffffffffffffffffffffffffffffffffff1681526020019081526020016000208a81548110612c0e57fe5b906000526020600020906004020160000160009054906101000a900473ffffffffffffffffffffffffffffffffffffffff16898b604051808473ffffffffffffffffffffffffffffffffffffffff1681526020018373ffffffffffffffffffffffffffffffffffffffff168152602001828152602001935050505060405180910390a1505050505050505050565b612ca982826000546134ab565b5050565b6060612cba6000546155a7565b905090565b6000612ccb6001615890565b905090565b6000612cdd600054615890565b905090565b600760009054906101000a900473ffffffffffffffffffffffffffffffffffffffff168073ffffffffffffffffffffffffffffffffffffffff163373ffffffffffffffffffffffffffffffffffffffff1614612da6576040517f08c379a00000000000000000000000000000000000000000000000000000000081526004018080602001828103825260168152602001807f49742069732077686f2069742073686f756c642062650000000000000000000081525060200191505060405180910390fd5b600083811515600015151415612e6457600860008273ffffffffffffffffffffffffffffffffffffffff1673ffffffffffffffffffffffffffffffffffffffff16815260200190815260200160002060009054906101000a900460ff1615156000151514612e5f576040517f08c379a0000000000000000000000000000000000000000000000000000000008152600401808060200182810382526029815260200180615b606029913960400191505060405180910390fd5b612f0e565b600860008273ffffffffffffffffffffffffffffffffffffffff1673ffffffffffffffffffffffffffffffffffffffff16815260200190815260200160002060009054906101000a900460ff1615156001151514612f0d576040517f08c379a0000000000000000000000000000000000000000000000000000000008152600401808060200182810382526024815260200180615add6024913960400191505060405180910390fd5b5b836004600181548110612f1d57fe5b906000526020600020906002020160000160008773ffffffffffffffffffffffffffffffffffffffff1673ffffffffffffffffffffffffffffffffffffffff1681526020019081526020016000206002019080519060200190612f81929190615941565b506001600860008773ffffffffffffffffffffffffffffffffffffffff1673ffffffffffffffffffffffffffffffffffffffff16815260200190815260200160002060006101000a81548160ff0219169083151502179055505050505050565b6000606080606085600660008773ffffffffffffffffffffffffffffffffffffffff1673ffffffffffffffffffffffffffffffffffffffff1681526020019081526020016000208054905073__Library_______________________________632477a0ea83836040518363ffffffff1660e01b8152600401808381526020018281526020019250505060206040518083038186803b15801561308357600080fd5b505af4158015613097573d6000803e3d6000fd5b505050506040513d60208110156130ad57600080fd5b810190808051906020019092919050505015156001151514613137576040517f08c379a00000000000000000000000000000000000000000000000000000000081526004018080602001828103825260148152602001807f70726f76696465642049642069732077726f6e6700000000000000000000000081525060200191505060405180910390fd5b600660008873ffffffffffffffffffffffffffffffffffffffff1673ffffffffffffffffffffffffffffffffffffffff168152602001908152602001600020888154811061318157fe5b906000526020600020906004020160000160009054906101000a900473ffffffffffffffffffffffffffffffffffffffff16600660008973ffffffffffffffffffffffffffffffffffffffff1673ffffffffffffffffffffffffffffffffffffffff16815260200190815260200160002089815481106131fd57fe5b9060005260206000209060040201600101600660008a73ffffffffffffffffffffffffffffffffffffffff1673ffffffffffffffffffffffffffffffffffffffff1681526020019081526020016000208a8154811061325857fe5b9060005260206000209060040201600201600660008b73ffffffffffffffffffffffffffffffffffffffff1673ffffffffffffffffffffffffffffffffffffffff1681526020019081526020016000208b815481106132b357fe5b9060005260206000209060040201600301828054600181600116156101000203166002900480601f0160208091040260200160405190810160405280929190818152602001828054600181600116156101000203166002900480156133595780601f1061332e57610100808354040283529160200191613359565b820191906000526020600020905b81548152906001019060200180831161333c57829003601f168201915b50505050509250818054600181600116156101000203166002900480601f0160208091040260200160405190810160405280929190818152602001828054600181600116156101000203166002900480156133f55780601f106133ca576101008083540402835291602001916133f5565b820191906000526020600020905b8154815290600101906020018083116133d857829003601f168201915b50505050509150808054600181600116156101000203166002900480601f0160208091040260200160405190810160405280929190818152602001828054600181600116156101000203166002900480156134915780601f1061346657610100808354040283529160200191613491565b820191906000526020600020905b81548152906001019060200180831161347457829003601f168201915b505050505090509550955095509550505092959194509250565b828073ffffffffffffffffffffffffffffffffffffffff163373ffffffffffffffffffffffffffffffffffffffff161461354d576040517f08c379a00000000000000000000000000000000000000000000000000000000081526004018080602001828103825260168152602001807f49742069732077686f2069742073686f756c642062650000000000000000000081525060200191505060405180910390fd5b600184838215156000151514156136cc5761356882826144ad565b151560001515146003828154811061357c57fe5b9060005260206000200160405160200180828054600181600116156101000203166002900480156135e45780601f106135c25761010080835404028352918201916135e4565b820191906000526020600020905b8154815290600101906020018083116135d0575b5050807f20616c7265616479206163746976617465640000000000000000000000000000815250601201915050604051602081830303815290604052906136c6576040517f08c379a00000000000000000000000000000000000000000000000000000000081526004018080602001828103825283818151815260200191508051906020019080838360005b8381101561368b578082015181840152602081019050613670565b50505050905090810190601f1680156136b85780820380516001836020036101000a031916815260200191505b509250505060405180910390fd5b50613836565b6136d682826144ad565b15156001151514600382815481106136ea57fe5b9060005260206000200160405160200180828054600181600116156101000203166002900480156137525780601f10613730576101008083540402835291820191613752565b820191906000526020600020905b81548152906001019060200180831161373e575b5050807f206d75737420626520616374697661746564000000000000000000000000000081525060120191505060405160208183030381529060405290613834576040517f08c379a00000000000000000000000000000000000000000000000000000000081526004018080602001828103825283818151815260200191508051906020019080838360005b838110156137f95780820151818401526020810190506137de565b50505050905090810190601f1680156138265780820380516001836020036101000a031916815260200191505b509250505060405180910390fd5b505b856004868154811061384457fe5b906000526020600020906002020160000160008973ffffffffffffffffffffffffffffffffffffffff1673ffffffffffffffffffffffffffffffffffffffff16815260200190815260200160002060020190805190602001906138a8929190615941565b5050505050505050565b8060028054905073__Library_______________________________632477a0ea83836040518363ffffffff1660e01b8152600401808381526020018281526020019250505060206040518083038186803b15801561391057600080fd5b505af4158015613924573d6000803e3d6000fd5b505050506040513d602081101561393a57600080fd5b8101908080519060200190929190505050151560011515146139c4576040517f08c379a00000000000000000000000000000000000000000000000000000000081526004018080602001828103825260148152602001807f70726f76696465642049642069732077726f6e6700000000000000000000000081525060200191505060405180910390fd5b836139ce33611d92565b1515600115151480613a0b57508073ffffffffffffffffffffffffffffffffffffffff163373ffffffffffffffffffffffffffffffffffffffff16145b613a7d576040517f08c379a000000000000000000000000000000000000000000000000000000000815260040180806020018281038252601c8152602001807f4e6f7420616c6c6f77656420746f2072656d6f766520656e746974790000000081525060200191505060405180910390fd5b60018585821515600015151415613bfc57613a9882826144ad565b1515600015151460038281548110613aac57fe5b906000526020600020016040516020018082805460018160011615610100020316600290048015613b145780601f10613af2576101008083540402835291820191613b14565b820191906000526020600020905b815481529060010190602001808311613b00575b5050807f20616c726561647920616374697661746564000000000000000000000000000081525060120191505060405160208183030381529060405290613bf6576040517f08c379a00000000000000000000000000000000000000000000000000000000081526004018080602001828103825283818151815260200191508051906020019080838360005b83811015613bbb578082015181840152602081019050613ba0565b50505050905090810190601f168015613be85780820380516001836020036101000a031916815260200191505b509250505060405180910390fd5b50613d66565b613c0682826144ad565b1515600115151460038281548110613c1a57fe5b906000526020600020016040516020018082805460018160011615610100020316600290048015613c825780601f10613c60576101008083540402835291820191613c82565b820191906000526020600020905b815481529060010190602001808311613c6e575b5050807f206d75737420626520616374697661746564000000000000000000000000000081525060120191505060405160208183030381529060405290613d64576040517f08c379a00000000000000000000000000000000000000000000000000000000081526004018080602001828103825283818151815260200191508051906020019080838360005b83811015613d29578082015181840152602081019050613d0e565b50505050905090810190601f168015613d565780820380516001836020036101000a031916815260200191505b509250505060405180910390fd5b505b60018860006040518060400160405280601781526020017f4f776e65722068617320616c726561647920766f7465640000000000000000008152509050826001811115613daf57fe5b600180811115613dbb57fe5b1415613f2057600460005481548110613dd057fe5b906000526020600020906002020160000160008373ffffffffffffffffffffffffffffffffffffffff1673ffffffffffffffffffffffffffffffffffffffff16815260200190815260200160002060060160003373ffffffffffffffffffffffffffffffffffffffff1673ffffffffffffffffffffffffffffffffffffffff16815260200190815260200160002060009054906101000a900460ff16151560001515148190613f1a576040517f08c379a00000000000000000000000000000000000000000000000000000000081526004018080602001828103825283818151815260200191508051906020019080838360005b83811015613edf578082015181840152602081019050613ec4565b50505050905090810190601f168015613f0c5780820380516001836020036101000a031916815260200191505b509250505060405180910390fd5b5061407b565b600460005481548110613f2f57fe5b906000526020600020906002020160000160008373ffffffffffffffffffffffffffffffffffffffff1673ffffffffffffffffffffffffffffffffffffffff16815260200190815260200160002060040160003373ffffffffffffffffffffffffffffffffffffffff1673ffffffffffffffffffffffffffffffffffffffff16815260200190815260200160002060009054906101000a900460ff16151560001515148190614079576040517f08c379a00000000000000000000000000000000000000000000000000000000081526004018080602001828103825283818151815260200191508051906020019080838360005b8381101561403e578082015181840152602081019050614023565b50505050905090810190601f16801561406b5780820380516001836020036101000a031916815260200191505b509250505060405180910390fd5b505b600160048b8154811061408a57fe5b906000526020600020906002020160000160008d73ffffffffffffffffffffffffffffffffffffffff1673ffffffffffffffffffffffffffffffffffffffff16815260200190815260200160002060050160008282540192505081905550600160048b815481106140f757fe5b906000526020600020906002020160000160008d73ffffffffffffffffffffffffffffffffffffffff1673ffffffffffffffffffffffffffffffffffffffff16815260200190815260200160002060060160003373ffffffffffffffffffffffffffffffffffffffff1673ffffffffffffffffffffffffffffffffffffffff16815260200190815260200160002060006101000a81548160ff0219169083151502179055508a73ffffffffffffffffffffffffffffffffffffffff163373ffffffffffffffffffffffffffffffffffffffff161480614239575061423860048b815481106141e157fe5b906000526020600020906002020160000160008d73ffffffffffffffffffffffffffffffffffffffff1673ffffffffffffffffffffffffffffffffffffffff16815260200190815260200160002060050154614523565b5b156144a05760048a8154811061424b57fe5b906000526020600020906002020160010160048b8154811061426957fe5b906000526020600020906002020160000160008d73ffffffffffffffffffffffffffffffffffffffff1673ffffffffffffffffffffffffffffffffffffffff16815260200190815260200160002060000154815481106142c557fe5b9060005260206000200160006101000a81549073ffffffffffffffffffffffffffffffffffffffff021916905560048a815481106142ff57fe5b906000526020600020906002020160000160008c73ffffffffffffffffffffffffffffffffffffffff1673ffffffffffffffffffffffffffffffffffffffff1681526020019081526020016000206000808201600090556001820160006101000a81549060ff021916905560028201600061437a91906158b1565b600382016000905560058201600090555050600160028b8154811061439b57fe5b90600052602060002001600082825403925050819055507f1f62d535f971041db7bd8760bf0f1f9f476461558744a35c0d477b5ad6893e8960038b815481106143e057fe5b906000526020600020018c60405180806020018373ffffffffffffffffffffffffffffffffffffffff1681526020018281038252848181546001816001161561010002031660029004815260200191508054600181600116156101000203166002900480156144905780601f1061446557610100808354040283529160200191614490565b820191906000526020600020905b81548152906001019060200180831161447357829003601f168201915b5050935050505060405180910390a15b5050505050505050505050565b6000600482815481106144bc57fe5b906000526020600020906002020160000160008473ffffffffffffffffffffffffffffffffffffffff1673ffffffffffffffffffffffffffffffffffffffff16815260200190815260200160002060010160009054906101000a900460ff16905092915050565b6000600154821015614538576000905061453d565b600190505b919050565b8060028054905073__Library_______________________________632477a0ea83836040518363ffffffff1660e01b8152600401808381526020018281526020019250505060206040518083038186803b1580156145a057600080fd5b505af41580156145b4573d6000803e3d6000fd5b505050506040513d60208110156145ca57600080fd5b810190808051906020019092919050505015156001151514614654576040517f08c379a00000000000000000000000000000000000000000000000000000000081526004018080602001828103825260148152602001807f70726f76696465642049642069732077726f6e6700000000000000000000000081525060200191505060405180910390fd5b61465d33611d92565b151560011515146146b9576040517f08c379a000000000000000000000000000000000000000000000000000000000815260040180806020018281038252602e815260200180615b01602e913960400191505060405180910390fd5b60008584821515600015151415614838576146d482826144ad565b15156000151514600382815481106146e857fe5b9060005260206000200160405160200180828054600181600116156101000203166002900480156147505780601f1061472e576101008083540402835291820191614750565b820191906000526020600020905b81548152906001019060200180831161473c575b5050807f20616c726561647920616374697661746564000000000000000000000000000081525060120191505060405160208183030381529060405290614832576040517f08c379a00000000000000000000000000000000000000000000000000000000081526004018080602001828103825283818151815260200191508051906020019080838360005b838110156147f75780820151818401526020810190506147dc565b50505050905090810190601f1680156148245780820380516001836020036101000a031916815260200191505b509250505060405180910390fd5b506149a2565b61484282826144ad565b151560011515146003828154811061485657fe5b9060005260206000200160405160200180828054600181600116156101000203166002900480156148be5780601f1061489c5761010080835404028352918201916148be565b820191906000526020600020905b8154815290600101906020018083116148aa575b5050807f206d757374206265206163746976617465640000000000000000000000000000815250601201915050604051602081830303815290604052906149a0576040517f08c379a00000000000000000000000000000000000000000000000000000000081526004018080602001828103825283818151815260200191508051906020019080838360005b8381101561496557808201518184015260208101905061494a565b50505050905090810190601f1680156149925780820380516001836020036101000a031916815260200191505b509250505060405180910390fd5b505b60008860006040518060400160405280601781526020017f4f776e65722068617320616c726561647920766f74656400000000000000000081525090508260018111156149eb57fe5b6001808111156149f757fe5b1415614b5c57600460005481548110614a0c57fe5b906000526020600020906002020160000160008373ffffffffffffffffffffffffffffffffffffffff1673ffffffffffffffffffffffffffffffffffffffff16815260200190815260200160002060060160003373ffffffffffffffffffffffffffffffffffffffff1673ffffffffffffffffffffffffffffffffffffffff16815260200190815260200160002060009054906101000a900460ff16151560001515148190614b56576040517f08c379a00000000000000000000000000000000000000000000000000000000081526004018080602001828103825283818151815260200191508051906020019080838360005b83811015614b1b578082015181840152602081019050614b00565b50505050905090810190601f168015614b485780820380516001836020036101000a031916815260200191505b509250505060405180910390fd5b50614cb7565b600460005481548110614b6b57fe5b906000526020600020906002020160000160008373ffffffffffffffffffffffffffffffffffffffff1673ffffffffffffffffffffffffffffffffffffffff16815260200190815260200160002060040160003373ffffffffffffffffffffffffffffffffffffffff1673ffffffffffffffffffffffffffffffffffffffff16815260200190815260200160002060009054906101000a900460ff16151560001515148190614cb5576040517f08c379a00000000000000000000000000000000000000000000000000000000081526004018080602001828103825283818151815260200191508051906020019080838360005b83811015614c7a578082015181840152602081019050614c5f565b50505050905090810190601f168015614ca75780820380516001836020036101000a031916815260200191505b509250505060405180910390fd5b505b60048981548110614cc457fe5b906000526020600020906002020160000160008c73ffffffffffffffffffffffffffffffffffffffff1673ffffffffffffffffffffffffffffffffffffffff1681526020019081526020016000206003015460001415614d92578960048a81548110614d2c57fe5b906000526020600020906002020160000160008d73ffffffffffffffffffffffffffffffffffffffff1673ffffffffffffffffffffffffffffffffffffffff1681526020019081526020016000206002019080519060200190614d90929190615941565b505b600160048a81548110614da157fe5b906000526020600020906002020160000160008d73ffffffffffffffffffffffffffffffffffffffff1673ffffffffffffffffffffffffffffffffffffffff16815260200190815260200160002060030160008282540192505081905550600160048a81548110614e0e57fe5b906000526020600020906002020160000160008d73ffffffffffffffffffffffffffffffffffffffff1673ffffffffffffffffffffffffffffffffffffffff16815260200190815260200160002060040160003373ffffffffffffffffffffffffffffffffffffffff1673ffffffffffffffffffffffffffffffffffffffff16815260200190815260200160002060006101000a81548160ff021916908315150217905550614f1a60048a81548110614ec357fe5b906000526020600020906002020160000160008d73ffffffffffffffffffffffffffffffffffffffff1673ffffffffffffffffffffffffffffffffffffffff16815260200190815260200160002060030154614523565b156151ad57600160048a81548110614f2e57fe5b906000526020600020906002020160000160008d73ffffffffffffffffffffffffffffffffffffffff1673ffffffffffffffffffffffffffffffffffffffff16815260200190815260200160002060010160006101000a81548160ff02191690831515021790555060048981548110614fa357fe5b90600052602060002090600202016001018054905060048a81548110614fc557fe5b906000526020600020906002020160000160008d73ffffffffffffffffffffffffffffffffffffffff1673ffffffffffffffffffffffffffffffffffffffff168152602001908152602001600020600001819055506004898154811061502757fe5b90600052602060002090600202016001018b9080600181540180825580915050600190039060005260206000200160009091909190916101000a81548173ffffffffffffffffffffffffffffffffffffffff021916908373ffffffffffffffffffffffffffffffffffffffff160217905550600160028a815481106150a857fe5b90600052602060002001600082825401925050819055507f3c139d46a211844e248647688545a37c07c505c999c1232d1247c707dc0a91e260038a815481106150ed57fe5b906000526020600020018c60405180806020018373ffffffffffffffffffffffffffffffffffffffff16815260200182810382528481815460018160011615610100020316600290048152602001915080546001816001161561010002031660029004801561519d5780601f106151725761010080835404028352916020019161519d565b820191906000526020600020905b81548152906001019060200180831161518057829003601f168201915b5050935050505060405180910390a15b5050505050505050505050565b60606001838382151560001515141561533b576151d782826144ad565b15156000151514600382815481106151eb57fe5b9060005260206000200160405160200180828054600181600116156101000203166002900480156152535780601f10615231576101008083540402835291820191615253565b820191906000526020600020905b81548152906001019060200180831161523f575b5050807f20616c726561647920616374697661746564000000000000000000000000000081525060120191505060405160208183030381529060405290615335576040517f08c379a00000000000000000000000000000000000000000000000000000000081526004018080602001828103825283818151815260200191508051906020019080838360005b838110156152fa5780820151818401526020810190506152df565b50505050905090810190601f1680156153275780820380516001836020036101000a031916815260200191505b509250505060405180910390fd5b506154a5565b61534582826144ad565b151560011515146003828154811061535957fe5b9060005260206000200160405160200180828054600181600116156101000203166002900480156153c15780601f1061539f5761010080835404028352918201916153c1565b820191906000526020600020905b8154815290600101906020018083116153ad575b5050807f206d757374206265206163746976617465640000000000000000000000000000815250601201915050604051602081830303815290604052906154a3576040517f08c379a00000000000000000000000000000000000000000000000000000000081526004018080602001828103825283818151815260200191508051906020019080838360005b8381101561546857808201518184015260208101905061544d565b50505050905090810190601f1680156154955780820380516001836020036101000a031916815260200191505b509250505060405180910390fd5b505b600485815481106154b257fe5b906000526020600020906002020160000160008773ffffffffffffffffffffffffffffffffffffffff1673ffffffffffffffffffffffffffffffffffffffff1681526020019081526020016000206002018054600181600116156101000203166002900480601f0160208091040260200160405190810160405280929190818152602001828054600181600116156101000203166002900480156155975780601f1061556c57610100808354040283529160200191615597565b820191906000526020600020905b81548152906001019060200180831161557a57829003601f168201915b5050505050935050505092915050565b60608160028054905073__Library_______________________________632477a0ea83836040518363ffffffff1660e01b8152600401808381526020018281526020019250505060206040518083038186803b15801561560757600080fd5b505af415801561561b573d6000803e3d6000fd5b505050506040513d602081101561563157600080fd5b8101908080519060200190929190505050151560011515146156bb576040517f08c379a00000000000000000000000000000000000000000000000000000000081526004018080602001828103825260148152602001807f70726f76696465642049642069732077726f6e6700000000000000000000000081525060200191505060405180910390fd5b6000600285815481106156ca57fe5b906000526020600020015467ffffffffffffffff811180156156eb57600080fd5b5060405190808252806020026020018201604052801561571a5781602001602082028036833780820191505090505b509050600080600090505b6004878154811061573257fe5b906000526020600020906002020160010180549050811015615883576004878154811061575b57fe5b9060005260206000209060020201600101818154811061577757fe5b9060005260206000200160009054906101000a900473ffffffffffffffffffffffffffffffffffffffff1673ffffffffffffffffffffffffffffffffffffffff16600073ffffffffffffffffffffffffffffffffffffffff161461587657600487815481106157e257fe5b906000526020600020906002020160010181815481106157fe57fe5b9060005260206000200160009054906101000a900473ffffffffffffffffffffffffffffffffffffffff1683838151811061583557fe5b602002602001019073ffffffffffffffffffffffffffffffffffffffff16908173ffffffffffffffffffffffffffffffffffffffff16815250506001820191505b8080600101915050615725565b5081945050505050919050565b60006002828154811061589f57fe5b90600052602060002001549050919050565b50805460018160011615610100020316600290046000825580601f106158d757506158f6565b601f0160209004906000526020600020908101906158f59190615a5d565b5b50565b50805460018160011615610100020316600290046000825580601f1061591f575061593e565b601f01602090049060005260206000209081019061593d9190615a5d565b5b50565b828054600181600116156101000203166002900490600052602060002090601f01602090048101928261597757600085556159be565b82601f1061599057805160ff19168380011785556159be565b828001600101855582156159be579182015b828111156159bd5782518255916020019190600101906159a2565b5b5090506159cb9190615a5d565b5090565b828054600181600116156101000203166002900490600052602060002090601f016020900481019282615a055760008555615a4c565b82601f10615a1e57805160ff1916838001178555615a4c565b82800160010185558215615a4c579182015b82811115615a4b578251825591602001919060010190615a30565b5b509050615a599190615a5d565b5090565b5b80821115615a76576000816000905550600101615a5e565b509056fe4e6f7420616c6c6f77656420746f20757064617465207468697320706172746963756c61722043657274696669636174654f6e6c792050726f7669646572732061726520616c6c6f77656420746f20706572666f726d207468697320616374696f6e50726f7669646572206e6f74207375626d697465642062792043726561746f72207965744f6e6c79204f776e6572732061726520616c6c6f77656420746f20706572666f726d207468697320616374696f6e4e6f7420616c6c6f77656420746f2072656d6f7665207468697320706172746963756c617220436572746966696361746550726f766964657220616c726561647920616374697661746564206f7220696e2070726f6772657373a26469706673582212202d4911b47444ba6bbe12872d304bd1223ced183b4e8b90de3b03a5206b96718264736f6c634300070600334e6f7420656e6f756768206f776e6572732070726f766964656420746f206d65657420746865206d696e4f776e65727320726571756972656d656e74",
  "immutableReferences": {},
  "source": "// SPDX-License-Identifier: GPL-3.0\r\n\r\npragma solidity >=0.7.0 <0.9.0;\r\n\r\n/**\r\n * @title Storage\r\n * @dev Store & retrieve value in a variable\r\n */\r\n\r\nimport \"./Library.sol\";\r\nimport \"./PrivateCertificatesPool.sol\";\r\nimport \"./PublicCertificatesPool.sol\";\r\n\r\n /* \r\n Actors : Chair Person, Anyone\r\n Token : Proposals\r\n\r\n 1- Anyone can submit proposals (paying a fee)\r\n 2- Chair Person can approve proposals creating Providers in Certificates Contract\r\n\r\n\r\n Proposals lifecycle\r\n    Proposals Creation : Anyone (paying fee)\r\n    Proposals Update : \r\n    Proposals Remove :   \r\n    Proposals Validations : Only Chair Person  \r\n\r\n */\r\n\r\ncontract CertificatesPoolManager{\r\n    using Library for *;\r\n\r\n    // events\r\n    event _NewCertificatesPool(uint256, address, CertificatesPool);\r\n    event _SendProposalId(address);\r\n\r\n    uint _PublicPriceWei;\r\n    uint _PrivatePoolPriceWei;\r\n\r\n    // modfiers\r\n    modifier isIdCorrect(uint Id, uint length){\r\n        require(true == Library.IdCorrect(Id, length), \"provided Id is wrong\");\r\n        _;\r\n    }\r\n\r\n    modifier areFundsEnough(uint minPrice){\r\n        require(msg.value >= minPrice, \"Not enough funds\");\r\n        _;\r\n    }\r\n    \r\n    // Private Certificates Pool structure\r\n    struct _privateCertificatesPoolStruct{\r\n        address _creator;\r\n        PrivateCertificatesPool _PrivateCertificatesPool;\r\n    } \r\n\r\n    _privateCertificatesPoolStruct[] _PrivateCertificatesPools;\r\n    \r\n    // Public Certificates Pool structure\r\n    PublicCertificatesPool  _PublicCertificatesPool;\r\n\r\n    address payable _chairperson;\r\n    \r\n    constructor(address[] memory owners, uint256 minOwners, uint256 PublicPriceWei, uint256 PrivatePriceWei) payable{\r\n        _chairperson = payable(msg.sender);\r\n        _PublicPriceWei = PublicPriceWei;\r\n        _PrivatePoolPriceWei = PrivatePriceWei;\r\n        _PublicCertificatesPool = new PublicCertificatesPool(owners, minOwners);\r\n    }\r\n\r\n    // PRIVATE CERTIFICATE POOL /////////////////////////////////////////////////////////////\r\n\r\n    function createPrivateCertificatesPool(address[] memory owners,  uint256 minOwners) external\r\n        areFundsEnough(_PrivatePoolPriceWei)\r\n    payable\r\n    {\r\n        PrivateCertificatesPool certificatePool = new PrivateCertificatesPool(owners, minOwners);\r\n        _privateCertificatesPoolStruct memory privateCertificatesPool = _privateCertificatesPoolStruct(msg.sender, certificatePool);\r\n        _PrivateCertificatesPools.push(privateCertificatesPool);\r\n\r\n        emit _NewCertificatesPool(_PrivateCertificatesPools.length - 1, privateCertificatesPool._creator, privateCertificatesPool._PrivateCertificatesPool);\r\n    }\r\n\r\n    function retrievePrivateCertificatesPool(uint certificatePoolId) external\r\n        isIdCorrect(certificatePoolId, _PrivateCertificatesPools.length)\r\n    view returns (address, CertificatesPool)\r\n    {\r\n        return(_PrivateCertificatesPools[certificatePoolId]._creator, _PrivateCertificatesPools[certificatePoolId]._PrivateCertificatesPool);\r\n    }\r\n\r\n    // PUBLIC CERTIFICATE POOL /////////////////////////////////////////////////////////////\r\n\r\n    function sendProposal(address provider, string memory providerInfo) public \r\n        areFundsEnough(_PublicPriceWei)\r\n    payable \r\n    {\r\n       _PublicCertificatesPool.addProvider(provider, providerInfo);\r\n\r\n       emit _SendProposalId(provider);\r\n    }\r\n\r\n    function retrievePublicCertificatesPool() public view returns (CertificatesPool) {\r\n        return _PublicCertificatesPool;\r\n    }\r\n    \r\n    function retrieveChairPerson() public view returns (address) {\r\n        return _chairperson;\r\n    }\r\n    \r\n}",
  "sourcePath": "C:/Users/d-aam/GitHub/Certificates/contracts/CertificatesPoolManager.sol",
  "compiler": {
    "name": "solc",
    "version": "0.7.6+commit.7338295f.Emscripten.clang"
  },
  "schemaVersion": "3.3.4",
  "updatedAt": "2021-05-07T13:30:13.183Z",
  "devdoc": {
    "kind": "dev",
    "methods": {},
    "version": 1
  },
  "userdoc": {
    "kind": "user",
    "methods": {},
    "version": 1
  }
}