{
  "contractName": "Certificates",
  "abi": [
    {
      "inputs": [
        {
          "internalType": "address[]",
          "name": "owners",
          "type": "address[]"
        }
      ],
      "stateMutability": "payable",
      "type": "constructor"
    },
    {
      "anonymous": false,
      "inputs": [
        {
          "indexed": false,
          "internalType": "address",
          "name": "",
          "type": "address"
        },
        {
          "indexed": false,
          "internalType": "address",
          "name": "",
          "type": "address"
        },
        {
          "indexed": false,
          "internalType": "uint256",
          "name": "",
          "type": "uint256"
        }
      ],
      "name": "_AddCertificateIdEvent",
      "type": "event"
    },
    {
      "anonymous": false,
      "inputs": [
        {
          "indexed": false,
          "internalType": "address",
          "name": "",
          "type": "address"
        },
        {
          "indexed": false,
          "internalType": "address",
          "name": "",
          "type": "address"
        },
        {
          "indexed": false,
          "internalType": "uint256",
          "name": "",
          "type": "uint256"
        }
      ],
      "name": "_RemoveCertificateIdEvent",
      "type": "event"
    },
    {
      "anonymous": false,
      "inputs": [
        {
          "indexed": false,
          "internalType": "address",
          "name": "",
          "type": "address"
        },
        {
          "indexed": false,
          "internalType": "address",
          "name": "",
          "type": "address"
        },
        {
          "indexed": false,
          "internalType": "uint256",
          "name": "",
          "type": "uint256"
        }
      ],
      "name": "_UpdateCertificateIdEvent",
      "type": "event"
    },
    {
      "inputs": [
        {
          "internalType": "address",
          "name": "",
          "type": "address"
        }
      ],
      "name": "_owners",
      "outputs": [
        {
          "internalType": "bool",
          "name": "",
          "type": "bool"
        }
      ],
      "stateMutability": "view",
      "type": "function"
    },
    {
      "inputs": [
        {
          "internalType": "address",
          "name": "",
          "type": "address"
        }
      ],
      "name": "_providers",
      "outputs": [
        {
          "internalType": "bool",
          "name": "_activated",
          "type": "bool"
        },
        {
          "internalType": "string",
          "name": "_providerInfo",
          "type": "string"
        }
      ],
      "stateMutability": "view",
      "type": "function"
    },
    {
      "inputs": [
        {
          "internalType": "address",
          "name": "provider",
          "type": "address"
        },
        {
          "internalType": "string",
          "name": "providerInfo",
          "type": "string"
        }
      ],
      "name": "addProvider",
      "outputs": [],
      "stateMutability": "nonpayable",
      "type": "function"
    },
    {
      "inputs": [
        {
          "internalType": "address",
          "name": "provider",
          "type": "address"
        }
      ],
      "name": "removeProvider",
      "outputs": [],
      "stateMutability": "nonpayable",
      "type": "function"
    },
    {
      "inputs": [
        {
          "internalType": "address",
          "name": "provider",
          "type": "address"
        },
        {
          "internalType": "string",
          "name": "providerInfo",
          "type": "string"
        }
      ],
      "name": "updateProvider",
      "outputs": [],
      "stateMutability": "nonpayable",
      "type": "function"
    },
    {
      "inputs": [
        {
          "internalType": "address",
          "name": "provider",
          "type": "address"
        }
      ],
      "name": "retrieveProvider",
      "outputs": [
        {
          "internalType": "string",
          "name": "",
          "type": "string"
        }
      ],
      "stateMutability": "view",
      "type": "function"
    },
    {
      "inputs": [],
      "name": "retrieveTotalProviders",
      "outputs": [
        {
          "internalType": "uint256",
          "name": "",
          "type": "uint256"
        }
      ],
      "stateMutability": "view",
      "type": "function"
    },
    {
      "inputs": [
        {
          "internalType": "string",
          "name": "CertificateContent",
          "type": "string"
        },
        {
          "internalType": "string",
          "name": "CertificateLocation",
          "type": "string"
        },
        {
          "internalType": "bytes",
          "name": "CertificateHash",
          "type": "bytes"
        },
        {
          "internalType": "address",
          "name": "holder",
          "type": "address"
        }
      ],
      "name": "addCertificate",
      "outputs": [],
      "stateMutability": "nonpayable",
      "type": "function"
    },
    {
      "inputs": [
        {
          "internalType": "uint256",
          "name": "CertificateId",
          "type": "uint256"
        }
      ],
      "name": "removeCertificate",
      "outputs": [],
      "stateMutability": "nonpayable",
      "type": "function"
    },
    {
      "inputs": [
        {
          "internalType": "uint256",
          "name": "CertificateId",
          "type": "uint256"
        },
        {
          "internalType": "string",
          "name": "CertificateContent",
          "type": "string"
        },
        {
          "internalType": "string",
          "name": "CertificateLocation",
          "type": "string"
        },
        {
          "internalType": "bytes",
          "name": "CertificateHash",
          "type": "bytes"
        }
      ],
      "name": "updateCertificate",
      "outputs": [],
      "stateMutability": "nonpayable",
      "type": "function"
    },
    {
      "inputs": [
        {
          "internalType": "uint256",
          "name": "CertificateId",
          "type": "uint256"
        }
      ],
      "name": "retrieveCertificate",
      "outputs": [
        {
          "internalType": "address",
          "name": "",
          "type": "address"
        },
        {
          "internalType": "string",
          "name": "",
          "type": "string"
        },
        {
          "internalType": "string",
          "name": "",
          "type": "string"
        },
        {
          "internalType": "bytes",
          "name": "",
          "type": "bytes"
        },
        {
          "internalType": "address",
          "name": "",
          "type": "address"
        }
      ],
      "stateMutability": "view",
      "type": "function"
    },
    {
      "inputs": [
        {
          "internalType": "address",
          "name": "holder",
          "type": "address"
        }
      ],
      "name": "retrieveCertificatesPerHolder",
      "outputs": [
        {
          "internalType": "uint256[]",
          "name": "",
          "type": "uint256[]"
        }
      ],
      "stateMutability": "view",
      "type": "function"
    },
    {
      "inputs": [
        {
          "internalType": "address",
          "name": "holder",
          "type": "address"
        }
      ],
      "name": "retrieveTotalCertificatePerHolder",
      "outputs": [
        {
          "internalType": "uint256",
          "name": "",
          "type": "uint256"
        }
      ],
      "stateMutability": "view",
      "type": "function"
    },
    {
      "inputs": [
        {
          "internalType": "address",
          "name": "provider",
          "type": "address"
        }
      ],
      "name": "retrieveCertificatesByProvider",
      "outputs": [
        {
          "internalType": "uint256[]",
          "name": "",
          "type": "uint256[]"
        }
      ],
      "stateMutability": "view",
      "type": "function"
    },
    {
      "inputs": [
        {
          "internalType": "address",
          "name": "provider",
          "type": "address"
        }
      ],
      "name": "retrieveTotalCertificateByProvider",
      "outputs": [
        {
          "internalType": "uint256",
          "name": "",
          "type": "uint256"
        }
      ],
      "stateMutability": "view",
      "type": "function"
    },
    {
      "inputs": [
        {
          "internalType": "address",
          "name": "provider",
          "type": "address"
        },
        {
          "internalType": "address",
          "name": "holder",
          "type": "address"
        }
      ],
      "name": "retrieveCertificatesByProviderAndHolder",
      "outputs": [
        {
          "internalType": "uint256[]",
          "name": "",
          "type": "uint256[]"
        }
      ],
      "stateMutability": "view",
      "type": "function"
    },
    {
      "inputs": [
        {
          "internalType": "address",
          "name": "provider",
          "type": "address"
        },
        {
          "internalType": "address",
          "name": "holder",
          "type": "address"
        }
      ],
      "name": "retrieveTotalCertificateByProviderAndHolder",
      "outputs": [
        {
          "internalType": "uint256",
          "name": "",
          "type": "uint256"
        }
      ],
      "stateMutability": "view",
      "type": "function"
    },
    {
      "inputs": [],
      "name": "helloWorld",
      "outputs": [
        {
          "internalType": "string",
          "name": "",
          "type": "string"
        }
      ],
      "stateMutability": "pure",
      "type": "function"
    },
    {
      "inputs": [
        {
          "internalType": "address",
          "name": "owner",
          "type": "address"
        }
      ],
      "name": "addOwner",
      "outputs": [],
      "stateMutability": "nonpayable",
      "type": "function"
    },
    {
      "inputs": [
        {
          "internalType": "address",
          "name": "owner",
          "type": "address"
        }
      ],
      "name": "removeOwner",
      "outputs": [],
      "stateMutability": "nonpayable",
      "type": "function"
    },
    {
      "inputs": [
        {
          "internalType": "address",
          "name": "owner",
          "type": "address"
        }
      ],
      "name": "isOwner",
      "outputs": [
        {
          "internalType": "bool",
          "name": "",
          "type": "bool"
        }
      ],
      "stateMutability": "view",
      "type": "function"
    },
    {
      "inputs": [],
      "name": "retrieveTotalOwners",
      "outputs": [
        {
          "internalType": "uint256",
          "name": "",
          "type": "uint256"
        }
      ],
      "stateMutability": "view",
      "type": "function"
    },
    {
      "inputs": [],
      "name": "retrieveCreator",
      "outputs": [
        {
          "internalType": "address",
          "name": "",
          "type": "address"
        }
      ],
      "stateMutability": "view",
      "type": "function"
    }
  ],
  "bytecode": "0x6080604052604051620034ec380380620034ec833981810160405260208110156200002957600080fd5b81019080805160405193929190846401000000008211156200004a57600080fd5b838201915060208201858111156200006157600080fd5b82518660208202830111640100000000821117156200007f57600080fd5b8083526020830192505050908051906020019060200280838360005b83811015620000b85780820151818401526020810190506200009b565b50505050905001604052505050336000806101000a81548173ffffffffffffffffffffffffffffffffffffffff021916908373ffffffffffffffffffffffffffffffffffffffff1602179055506001600660003373ffffffffffffffffffffffffffffffffffffffff1673ffffffffffffffffffffffffffffffffffffffff16815260200190815260200160002060006101000a81548160ff021916908315150217905550600160078190555060005b81518110156200026c57600660008383815181106200018357fe5b602002602001015173ffffffffffffffffffffffffffffffffffffffff1673ffffffffffffffffffffffffffffffffffffffff16815260200190815260200160002060009054906101000a900460ff1615156000151514156200025e57600160066000848481518110620001f357fe5b602002602001015173ffffffffffffffffffffffffffffffffffffffff1673ffffffffffffffffffffffffffffffffffffffff16815260200190815260200160002060006101000a81548160ff02191690831515021790555060016007600082825401925050819055505b808060010191505062000168565b5060006003819055505061326680620002866000396000f3fe608060405234801561001057600080fd5b506004361061014d5760003560e01c806382ff66a3116100c3578063bf3a5c021161007c578063bf3a5c0214610dd2578063c605f76c14610e2c578063d610d85f14610eaf578063d744d2f314610edd578063eefe768114610efb578063fc00050014610f195761014d565b806382ff66a31461086757806383ce57b314610a705780638a355a5714610aa457806398ea797414610ae85780639a90be9e14610b60578063ad5ed47c14610c195761014d565b80632f54bf6e116101155780632f54bf6e146103fb57806334d166581461045557806337583499146104ad57806340f5ba1c1461056a5780637065cb481461075d578063769d7235146107a15761014d565b80630b65b8431461015257806315a13ac5146101aa5780631660c22a14610243578063173825d91461031e578063239e5bb514610362575b600080fd5b6101946004803603602081101561016857600080fd5b81019080803573ffffffffffffffffffffffffffffffffffffffff169060200190929190505050610ff4565b6040518082815260200191505060405180910390f35b6101ec600480360360208110156101c057600080fd5b81019080803573ffffffffffffffffffffffffffffffffffffffff169060200190929190505050611043565b6040518080602001828103825283818151815260200191508051906020019060200280838360005b8381101561022f578082015181840152602081019050610214565b505050509050019250505060405180910390f35b61031c6004803603604081101561025957600080fd5b81019080803573ffffffffffffffffffffffffffffffffffffffff1690602001909291908035906020019064010000000081111561029657600080fd5b8201836020820111156102a857600080fd5b803590602001918460018302840111640100000000831117156102ca57600080fd5b91908080601f016020809104026020016040519081016040528093929190818152602001838380828437600081840152601f19601f8201169050808301925050505050505091929192905050506110dd565b005b6103606004803603602081101561033457600080fd5b81019080803573ffffffffffffffffffffffffffffffffffffffff1690602001909291905050506112fd565b005b6103a46004803603602081101561037857600080fd5b81019080803573ffffffffffffffffffffffffffffffffffffffff16906020019092919050505061154b565b6040518080602001828103825283818151815260200191508051906020019060200280838360005b838110156103e75780820151818401526020810190506103cc565b505050509050019250505060405180910390f35b61043d6004803603602081101561041157600080fd5b81019080803573ffffffffffffffffffffffffffffffffffffffff1690602001909291905050506115e5565b60405180821515815260200191505060405180910390f35b6104976004803603602081101561046b57600080fd5b81019080803573ffffffffffffffffffffffffffffffffffffffff16906020019092919050505061163b565b6040518082815260200191505060405180910390f35b6104ef600480360360208110156104c357600080fd5b81019080803573ffffffffffffffffffffffffffffffffffffffff16906020019092919050505061168a565b6040518080602001828103825283818151815260200191508051906020019080838360005b8381101561052f578082015181840152602081019050610514565b50505050905090810190601f16801561055c5780820380516001836020036101000a031916815260200191505b509250505060405180910390f35b61075b6004803603608081101561058057600080fd5b8101908080359060200190929190803590602001906401000000008111156105a757600080fd5b8201836020820111156105b957600080fd5b803590602001918460018302840111640100000000831117156105db57600080fd5b91908080601f016020809104026020016040519081016040528093929190818152602001838380828437600081840152601f19601f8201169050808301925050505050505091929192908035906020019064010000000081111561063e57600080fd5b82018360208201111561065057600080fd5b8035906020019184600183028401116401000000008311171561067257600080fd5b91908080601f016020809104026020016040519081016040528093929190818152602001838380828437600081840152601f19601f820116905080830192505050505050509192919290803590602001906401000000008111156106d557600080fd5b8201836020820111156106e757600080fd5b8035906020019184600183028401116401000000008311171561070957600080fd5b91908080601f016020809104026020016040519081016040528093929190818152602001838380828437600081840152601f19601f820116905080830192505050505050509192919290505050611837565b005b61079f6004803603602081101561077357600080fd5b81019080803573ffffffffffffffffffffffffffffffffffffffff169060200190929190505050611b22565b005b6107e3600480360360208110156107b757600080fd5b81019080803573ffffffffffffffffffffffffffffffffffffffff169060200190929190505050611d70565b60405180831515815260200180602001828103825283818151815260200191508051906020019080838360005b8381101561082b578082015181840152602081019050610810565b50505050905090810190601f1680156108585780820380516001836020036101000a031916815260200191505b50935050505060405180910390f35b610a6e6004803603608081101561087d57600080fd5b810190808035906020019064010000000081111561089a57600080fd5b8201836020820111156108ac57600080fd5b803590602001918460018302840111640100000000831117156108ce57600080fd5b91908080601f016020809104026020016040519081016040528093929190818152602001838380828437600081840152601f19601f8201169050808301925050505050505091929192908035906020019064010000000081111561093157600080fd5b82018360208201111561094357600080fd5b8035906020019184600183028401116401000000008311171561096557600080fd5b91908080601f016020809104026020016040519081016040528093929190818152602001838380828437600081840152601f19601f820116905080830192505050505050509192919290803590602001906401000000008111156109c857600080fd5b8201836020820111156109da57600080fd5b803590602001918460018302840111640100000000831117156109fc57600080fd5b91908080601f016020809104026020016040519081016040528093929190818152602001838380828437600081840152601f19601f820116905080830192505050505050509192919290803573ffffffffffffffffffffffffffffffffffffffff169060200190929190505050611e39565b005b610a786122f6565b604051808273ffffffffffffffffffffffffffffffffffffffff16815260200191505060405180910390f35b610ae660048036036020811015610aba57600080fd5b81019080803573ffffffffffffffffffffffffffffffffffffffff16906020019092919050505061231f565b005b610b4a60048036036040811015610afe57600080fd5b81019080803573ffffffffffffffffffffffffffffffffffffffff169060200190929190803573ffffffffffffffffffffffffffffffffffffffff169060200190929190505050612553565b6040518082815260200191505060405180910390f35b610bc260048036036040811015610b7657600080fd5b81019080803573ffffffffffffffffffffffffffffffffffffffff169060200190929190803573ffffffffffffffffffffffffffffffffffffffff1690602001909291905050506125e0565b6040518080602001828103825283818151815260200191508051906020019060200280838360005b83811015610c05578082015181840152602081019050610bea565b505050509050019250505060405180910390f35b610c4560048036036020811015610c2f57600080fd5b81019080803590602001909291905050506126b8565b604051808673ffffffffffffffffffffffffffffffffffffffff1681526020018060200180602001806020018573ffffffffffffffffffffffffffffffffffffffff168152602001848103845288818151815260200191508051906020019080838360005b83811015610cc5578082015181840152602081019050610caa565b50505050905090810190601f168015610cf25780820380516001836020036101000a031916815260200191505b50848103835287818151815260200191508051906020019080838360005b83811015610d2b578082015181840152602081019050610d10565b50505050905090810190601f168015610d585780820380516001836020036101000a031916815260200191505b50848103825286818151815260200191508051906020019080838360005b83811015610d91578082015181840152602081019050610d76565b50505050905090810190601f168015610dbe5780820380516001836020036101000a031916815260200191505b509850505050505050505060405180910390f35b610e1460048036036020811015610de857600080fd5b81019080803573ffffffffffffffffffffffffffffffffffffffff1690602001909291905050506129fa565b60405180821515815260200191505060405180910390f35b610e34612a1a565b6040518080602001828103825283818151815260200191508051906020019080838360005b83811015610e74578082015181840152602081019050610e59565b50505050905090810190601f168015610ea15780820380516001836020036101000a031916815260200191505b509250505060405180910390f35b610edb60048036036020811015610ec557600080fd5b8101908080359060200190929190505050612a57565b005b610ee5612da1565b6040518082815260200191505060405180910390f35b610f03612dab565b6040518082815260200191505060405180910390f35b610ff260048036036040811015610f2f57600080fd5b81019080803573ffffffffffffffffffffffffffffffffffffffff16906020019092919080359060200190640100000000811115610f6c57600080fd5b820183602082011115610f7e57600080fd5b80359060200191846001830284011164010000000083111715610fa057600080fd5b91908080601f016020809104026020016040519081016040528093929190818152602001838380828437600081840152601f19601f820116905080830192505050505050509192919290505050612db5565b005b6000600260008373ffffffffffffffffffffffffffffffffffffffff1673ffffffffffffffffffffffffffffffffffffffff168152602001908152602001600020600001805490509050919050565b6060600260008373ffffffffffffffffffffffffffffffffffffffff1673ffffffffffffffffffffffffffffffffffffffff1681526020019081526020016000206000018054806020026020016040519081016040528092919081815260200182805480156110d157602002820191906000526020600020905b8154815260200190600101908083116110bd575b50505050509050919050565b600660003373ffffffffffffffffffffffffffffffffffffffff1673ffffffffffffffffffffffffffffffffffffffff16815260200190815260200160002060009054906101000a900460ff16151560011515148061116757508173ffffffffffffffffffffffffffffffffffffffff163373ffffffffffffffffffffffffffffffffffffffff16145b6111d9576040517f08c379a000000000000000000000000000000000000000000000000000000000815260040180806020018281038252601f8152602001807f4e6f7420616c6c6f77656420746f207570646174652070726f7669646572730081525060200191505060405180910390fd5b600160008373ffffffffffffffffffffffffffffffffffffffff1673ffffffffffffffffffffffffffffffffffffffff16815260200190815260200160002060000160009054906101000a900460ff16151560011515146112a2576040517f08c379a00000000000000000000000000000000000000000000000000000000081526004018080602001828103825260168152602001807f50726f7669646572206e6f74206163746976617465640000000000000000000081525060200191505060405180910390fd5b80600160008473ffffffffffffffffffffffffffffffffffffffff1673ffffffffffffffffffffffffffffffffffffffff16815260200190815260200160002060010190805190602001906112f8929190613005565b505050565b600660003373ffffffffffffffffffffffffffffffffffffffff1673ffffffffffffffffffffffffffffffffffffffff16815260200190815260200160002060009054906101000a900460ff1615156001151514806113a7575060008054906101000a900473ffffffffffffffffffffffffffffffffffffffff1673ffffffffffffffffffffffffffffffffffffffff163373ffffffffffffffffffffffffffffffffffffffff16145b611419576040517f08c379a000000000000000000000000000000000000000000000000000000000815260040180806020018281038252601c8152602001807f4e6f7420616c6c6f77656420746f2072656d6f7665206f776e6572730000000081525060200191505060405180910390fd5b600660008273ffffffffffffffffffffffffffffffffffffffff1673ffffffffffffffffffffffffffffffffffffffff16815260200190815260200160002060009054906101000a900460ff16151560011515146114df576040517f08c379a000000000000000000000000000000000000000000000000000000000815260040180806020018281038252601a8152602001807f4f776e657220616c72656164792064652d61637469766174656400000000000081525060200191505060405180910390fd5b6000600660008373ffffffffffffffffffffffffffffffffffffffff1673ffffffffffffffffffffffffffffffffffffffff16815260200190815260200160002060006101000a81548160ff021916908315150217905550600160076000828254039250508190555050565b6060600460008373ffffffffffffffffffffffffffffffffffffffff1673ffffffffffffffffffffffffffffffffffffffff1681526020019081526020016000206001018054806020026020016040519081016040528092919081815260200182805480156115d957602002820191906000526020600020905b8154815260200190600101908083116115c5575b50505050509050919050565b6000600660008373ffffffffffffffffffffffffffffffffffffffff1673ffffffffffffffffffffffffffffffffffffffff16815260200190815260200160002060009054906101000a900460ff169050919050565b6000600460008373ffffffffffffffffffffffffffffffffffffffff1673ffffffffffffffffffffffffffffffffffffffff168152602001908152602001600020600101805490509050919050565b6060600160008373ffffffffffffffffffffffffffffffffffffffff1673ffffffffffffffffffffffffffffffffffffffff16815260200190815260200160002060000160009054906101000a900460ff1615156001151514611755576040517f08c379a00000000000000000000000000000000000000000000000000000000081526004018080602001828103825260178152602001807f50726f766964657220646f6573206e6f7420657869737400000000000000000081525060200191505060405180910390fd5b600160008373ffffffffffffffffffffffffffffffffffffffff1673ffffffffffffffffffffffffffffffffffffffff1681526020019081526020016000206001018054600181600116156101000203166002900480601f01602080910402602001604051908101604052809291908181526020018280546001816001161561010002031660029004801561182b5780601f106118005761010080835404028352916020019161182b565b820191906000526020600020905b81548152906001019060200180831161180e57829003601f168201915b50505050509050919050565b60058054905084106118b1576040517f08c379a000000000000000000000000000000000000000000000000000000000815260040180806020018281038252601a8152602001807f436572746966696361746520646f6573206e6f7420657869737400000000000081525060200191505060405180910390fd5b600584815481106118be57fe5b906000526020600020906005020160000160009054906101000a900473ffffffffffffffffffffffffffffffffffffffff1673ffffffffffffffffffffffffffffffffffffffff163373ffffffffffffffffffffffffffffffffffffffff1614611973576040517f08c379a00000000000000000000000000000000000000000000000000000000081526004018080602001828103825260318152602001806131cf6031913960400191505060405180910390fd5b8251600010156119b157826005858154811061198b57fe5b906000526020600020906005020160010190805190602001906119af929190613005565b505b8151600010156119ef5781600585815481106119c957fe5b906000526020600020906005020160020190805190602001906119ed929190613005565b505b805160001015611a2d578060058581548110611a0757fe5b90600052602060002090600502016003019080519060200190611a2b929190613093565b505b7f736a6334743f8e5fff8d835332a115f2c34c1bbf6e2384459e1a24e0540bd47c60058581548110611a5b57fe5b906000526020600020906005020160000160009054906101000a900473ffffffffffffffffffffffffffffffffffffffff1660058681548110611a9a57fe5b906000526020600020906005020160040160009054906101000a900473ffffffffffffffffffffffffffffffffffffffff1686604051808473ffffffffffffffffffffffffffffffffffffffff1681526020018373ffffffffffffffffffffffffffffffffffffffff168152602001828152602001935050505060405180910390a150505050565b600660003373ffffffffffffffffffffffffffffffffffffffff1673ffffffffffffffffffffffffffffffffffffffff16815260200190815260200160002060009054906101000a900460ff161515600115151480611bcc575060008054906101000a900473ffffffffffffffffffffffffffffffffffffffff1673ffffffffffffffffffffffffffffffffffffffff163373ffffffffffffffffffffffffffffffffffffffff16145b611c3e576040517f08c379a00000000000000000000000000000000000000000000000000000000081526004018080602001828103825260198152602001807f4e6f7420616c6c6f77656420746f20616464206f776e6572730000000000000081525060200191505060405180910390fd5b600660008273ffffffffffffffffffffffffffffffffffffffff1673ffffffffffffffffffffffffffffffffffffffff16815260200190815260200160002060009054906101000a900460ff1615156000151514611d04576040517f08c379a00000000000000000000000000000000000000000000000000000000081526004018080602001828103825260178152602001807f4f776e657220616c72656164792061637469766174656400000000000000000081525060200191505060405180910390fd5b6001600660008373ffffffffffffffffffffffffffffffffffffffff1673ffffffffffffffffffffffffffffffffffffffff16815260200190815260200160002060006101000a81548160ff021916908315150217905550600160076000828254019250508190555050565b60016020528060005260406000206000915090508060000160009054906101000a900460ff1690806001018054600181600116156101000203166002900480601f016020809104026020016040519081016040528092919081815260200182805460018160011615610100020316600290048015611e2f5780601f10611e0457610100808354040283529160200191611e2f565b820191906000526020600020905b815481529060010190602001808311611e1257829003601f168201915b5050505050905082565b600160003373ffffffffffffffffffffffffffffffffffffffff1673ffffffffffffffffffffffffffffffffffffffff16815260200190815260200160002060000160009054906101000a900460ff1615156001151514611f02576040517f08c379a000000000000000000000000000000000000000000000000000000000815260040180806020018281038252601f8152602001807f4e6f7420616c6c6f77656420746f20616464204365727469666963617465730081525060200191505060405180910390fd5b81516000108015611f205750825160001080611f1f575083516000105b5b611f92576040517f08c379a00000000000000000000000000000000000000000000000000000000081526004018080602001828103825260148152602001807f436572746966696361746520697320656d70747900000000000000000000000081525060200191505060405180910390fd5b60056040518060a001604052803373ffffffffffffffffffffffffffffffffffffffff1681526020018681526020018581526020018481526020018373ffffffffffffffffffffffffffffffffffffffff16815250908060018154018082558091505060019003906000526020600020906005020160009091909190915060008201518160000160006101000a81548173ffffffffffffffffffffffffffffffffffffffff021916908373ffffffffffffffffffffffffffffffffffffffff1602179055506020820151816001019080519060200190612073929190613005565b506040820151816002019080519060200190612090929190613005565b5060608201518160030190805190602001906120ad929190613093565b5060808201518160040160006101000a81548173ffffffffffffffffffffffffffffffffffffffff021916908373ffffffffffffffffffffffffffffffffffffffff160217905550505060006001600580549050039050600460008373ffffffffffffffffffffffffffffffffffffffff1673ffffffffffffffffffffffffffffffffffffffff16815260200190815260200160002060000160003373ffffffffffffffffffffffffffffffffffffffff1673ffffffffffffffffffffffffffffffffffffffff168152602001908152602001600020819080600181540180825580915050600190039060005260206000200160009091909190915055600460008373ffffffffffffffffffffffffffffffffffffffff1673ffffffffffffffffffffffffffffffffffffffff168152602001908152602001600020600101819080600181540180825580915050600190039060005260206000200160009091909190915055600260003373ffffffffffffffffffffffffffffffffffffffff1673ffffffffffffffffffffffffffffffffffffffff1681526020019081526020016000206000018190806001815401808255809150506001900390600052602060002001600090919091909150557f76f4df91a34263fc533728c4689dd106f547d04117b44c2f5606efdbc184bdde338383604051808473ffffffffffffffffffffffffffffffffffffffff1681526020018373ffffffffffffffffffffffffffffffffffffffff168152602001828152602001935050505060405180910390a15050505050565b60008060009054906101000a900473ffffffffffffffffffffffffffffffffffffffff16905090565b600660003373ffffffffffffffffffffffffffffffffffffffff1673ffffffffffffffffffffffffffffffffffffffff16815260200190815260200160002060009054906101000a900460ff1615156001151514806123a957508073ffffffffffffffffffffffffffffffffffffffff163373ffffffffffffffffffffffffffffffffffffffff16145b61241b576040517f08c379a000000000000000000000000000000000000000000000000000000000815260040180806020018281038252601f8152602001807f4e6f7420616c6c6f77656420746f2072656d6f76652070726f7669646572730081525060200191505060405180910390fd5b600160008273ffffffffffffffffffffffffffffffffffffffff1673ffffffffffffffffffffffffffffffffffffffff16815260200190815260200160002060000160009054906101000a900460ff16151560011515146124e4576040517f08c379a00000000000000000000000000000000000000000000000000000000081526004018080602001828103825260168152602001807f50726f7669646572206e6f74206163746976617465640000000000000000000081525060200191505060405180910390fd5b6000600160008373ffffffffffffffffffffffffffffffffffffffff1673ffffffffffffffffffffffffffffffffffffffff16815260200190815260200160002060000160006101000a81548160ff021916908315150217905550600160036000828254039250508190555050565b6000600460008373ffffffffffffffffffffffffffffffffffffffff1673ffffffffffffffffffffffffffffffffffffffff16815260200190815260200160002060000160008473ffffffffffffffffffffffffffffffffffffffff1673ffffffffffffffffffffffffffffffffffffffff16815260200190815260200160002080549050905092915050565b6060600460008373ffffffffffffffffffffffffffffffffffffffff1673ffffffffffffffffffffffffffffffffffffffff16815260200190815260200160002060000160008473ffffffffffffffffffffffffffffffffffffffff1673ffffffffffffffffffffffffffffffffffffffff1681526020019081526020016000208054806020026020016040519081016040528092919081815260200182805480156126ab57602002820191906000526020600020905b815481526020019060010190808311612697575b5050505050905092915050565b600060608060606000600580549050861061273b576040517f08c379a000000000000000000000000000000000000000000000000000000000815260040180806020018281038252601a8152602001807f436572746966696361746520646f6573206e6f7420657869737400000000000081525060200191505060405180910390fd5b6005868154811061274857fe5b906000526020600020906005020160000160009054906101000a900473ffffffffffffffffffffffffffffffffffffffff166005878154811061278757fe5b9060005260206000209060050201600101600588815481106127a557fe5b9060005260206000209060050201600201600589815481106127c357fe5b906000526020600020906005020160030160058a815481106127e157fe5b906000526020600020906005020160040160009054906101000a900473ffffffffffffffffffffffffffffffffffffffff16838054600181600116156101000203166002900480601f0160208091040260200160405190810160405280929190818152602001828054600181600116156101000203166002900480156128a85780601f1061287d576101008083540402835291602001916128a8565b820191906000526020600020905b81548152906001019060200180831161288b57829003601f168201915b50505050509350828054600181600116156101000203166002900480601f0160208091040260200160405190810160405280929190818152602001828054600181600116156101000203166002900480156129445780601f1061291957610100808354040283529160200191612944565b820191906000526020600020905b81548152906001019060200180831161292757829003601f168201915b50505050509250818054600181600116156101000203166002900480601f0160208091040260200160405190810160405280929190818152602001828054600181600116156101000203166002900480156129e05780601f106129b5576101008083540402835291602001916129e0565b820191906000526020600020905b8154815290600101906020018083116129c357829003601f168201915b505050505091509450945094509450945091939590929450565b60066020528060005260406000206000915054906101000a900460ff1681565b60606040518060400160405280600b81526020017f68656c6c6f20776f726c64000000000000000000000000000000000000000000815250905090565b6005805490508110612ad1576040517f08c379a000000000000000000000000000000000000000000000000000000000815260040180806020018281038252601a8152602001807f436572746966696361746520646f6573206e6f7420657869737400000000000081525060200191505060405180910390fd5b60058181548110612ade57fe5b906000526020600020906005020160000160009054906101000a900473ffffffffffffffffffffffffffffffffffffffff1673ffffffffffffffffffffffffffffffffffffffff163373ffffffffffffffffffffffffffffffffffffffff161480612bb2575060058181548110612b5157fe5b906000526020600020906005020160040160009054906101000a900473ffffffffffffffffffffffffffffffffffffffff1673ffffffffffffffffffffffffffffffffffffffff163373ffffffffffffffffffffffffffffffffffffffff16145b612c07576040517f08c379a00000000000000000000000000000000000000000000000000000000081526004018080602001828103825260318152602001806132006031913960400191505060405180910390fd5b600060058281548110612c1657fe5b906000526020600020906005020160000160009054906101000a900473ffffffffffffffffffffffffffffffffffffffff169050600060058381548110612c5957fe5b906000526020600020906005020160040160009054906101000a900473ffffffffffffffffffffffffffffffffffffffff16905060058381548110612c9a57fe5b9060005260206000209060050201600080820160006101000a81549073ffffffffffffffffffffffffffffffffffffffff0219169055600182016000612ce09190613121565b600282016000612cf09190613121565b600382016000612d009190613169565b6004820160006101000a81549073ffffffffffffffffffffffffffffffffffffffff021916905550507f709d6b1b4d6f0b57a9f43c17f08c02648af8d37929b58caa594a4b03b8424687828285604051808473ffffffffffffffffffffffffffffffffffffffff1681526020018373ffffffffffffffffffffffffffffffffffffffff168152602001828152602001935050505060405180910390a1505050565b6000600354905090565b6000600754905090565b60008054906101000a900473ffffffffffffffffffffffffffffffffffffffff1673ffffffffffffffffffffffffffffffffffffffff163373ffffffffffffffffffffffffffffffffffffffff1614612e76576040517f08c379a000000000000000000000000000000000000000000000000000000000815260040180806020018281038252601c8152602001807f4e6f7420616c6c6f77656420746f206164642070726f7669646572730000000081525060200191505060405180910390fd5b600160008373ffffffffffffffffffffffffffffffffffffffff1673ffffffffffffffffffffffffffffffffffffffff16815260200190815260200160002060000160009054906101000a900460ff1615156000151514612f3f576040517f08c379a000000000000000000000000000000000000000000000000000000000815260040180806020018281038252601a8152602001807f50726f766964657220616c72656164792061637469766174656400000000000081525060200191505060405180910390fd5b80600160008473ffffffffffffffffffffffffffffffffffffffff1673ffffffffffffffffffffffffffffffffffffffff1681526020019081526020016000206001019080519060200190612f95929190613005565b5060018060008473ffffffffffffffffffffffffffffffffffffffff1673ffffffffffffffffffffffffffffffffffffffff16815260200190815260200160002060000160006101000a81548160ff02191690831515021790555060016003600082825401925050819055505050565b828054600181600116156101000203166002900490600052602060002090601f01602090048101928261303b5760008555613082565b82601f1061305457805160ff1916838001178555613082565b82800160010185558215613082579182015b82811115613081578251825591602001919060010190613066565b5b50905061308f91906131b1565b5090565b828054600181600116156101000203166002900490600052602060002090601f0160209004810192826130c95760008555613110565b82601f106130e257805160ff1916838001178555613110565b82800160010185558215613110579182015b8281111561310f5782518255916020019190600101906130f4565b5b50905061311d91906131b1565b5090565b50805460018160011615610100020316600290046000825580601f106131475750613166565b601f01602090049060005260206000209081019061316591906131b1565b5b50565b50805460018160011615610100020316600290046000825580601f1061318f57506131ae565b601f0160209004906000526020600020908101906131ad91906131b1565b5b50565b5b808211156131ca5760008160009055506001016131b2565b509056fe4e6f7420616c6c6f77656420746f20757064617465207468697320706172746963756c61722043657274696669636174654e6f7420616c6c6f77656420746f2072656d6f7665207468697320706172746963756c6172204365727469666963617465a2646970667358221220392d84beb9942e07a6602885874bf2a7bba043f1276a2e026508ac02b9434e3664736f6c63430007060033",
  "immutableReferences": {},
  "source": "// SPDX-License-Identifier: GPL-3.0\r\n\r\npragma solidity >=0.7.0 <0.9.0;\r\n\r\n/**\r\n * @title Storage\r\n * @dev Store & retrieve value in a variable\r\n */\r\n\r\n/* \r\n Actors : Creator, Owners, Providers, Holders\r\n Token : Certificates\r\n\r\n 1- Creator (an owner himslef) add Providers and manage Owners (both as creator and owner).\r\n 2- Owners manage any owner and any Provider\r\n 3- Providers manage only themselves and their own Certificates\r\n 4- Holders can remove their own Certificates\r\n\r\n Providers lifecycle\r\n    Provider Creation : Only creator (proposal contract)\r\n    Provider Update : Any Owner or Provider himself\r\n    Provider Remove : Any Owner or Provider himself\r\n\r\n Certificates lifecycle\r\n    Certificate Creation : Any Provider\r\n    Certificate Update : Only Provider that created Certificate\r\n    Certificate Remove : Only Provider that created Certificate or Holder himself    \r\n\r\n Owners lifecycle\r\n    Owner Creation : Any Owner or Creator\r\n    Owner Remove : Any Owner or Creator\r\n */\r\n\r\ncontract Certificates {\r\n    \r\n    event _AddCertificateIdEvent(address, address, uint256);\r\n    event _RemoveCertificateIdEvent(address, address, uint256);\r\n    event _UpdateCertificateIdEvent(address, address, uint256);\r\n    \r\n    struct _Certificate{\r\n        address _Provider;\r\n        string _CertificateContent;\r\n        string _CertificateLocation;\r\n        bytes _CertificateHash;\r\n        address _Holder;\r\n    }\r\n    \r\n    struct _providerIdentity{\r\n        bool _activated;\r\n        string _providerInfo;\r\n    }\r\n\r\n    struct _providerIssuedCertificatesType{\r\n        uint256[] _All;\r\n    }\r\n\r\n    struct _CertificatesPerHolderType{\r\n        mapping(address => uint256[]) _byProviders;\r\n        uint256[] _All;\r\n    }\r\n\r\n    // Contract Creator\r\n    address _creator;\r\n\r\n    // Providers\r\n    mapping(address => _providerIdentity) public _providers;\r\n    mapping(address => _providerIssuedCertificatesType) private _CertificatesByProvider;\r\n    uint256 _numberOfProviders;\r\n\r\n    // Holders\r\n    mapping(address => _CertificatesPerHolderType) private _CertificatesPerHolder;\r\n\r\n    // list of Certificates\r\n    _Certificate[] private _Certificates;\r\n\r\n    // list and number of owners\r\n    mapping(address => bool) public _owners;\r\n    uint256 _numberOfOwners;\r\n    \r\n\r\n    constructor(address[] memory owners) payable{\r\n        _creator = msg.sender;\r\n        _owners[msg.sender] = true;\r\n        _numberOfOwners = 1;\r\n        for (uint i=0; i<owners.length; i++) {\r\n            if(false == _owners[owners[i]]){\r\n                _owners[owners[i]] = true;\r\n                _numberOfOwners += 1;\r\n            }\r\n            \r\n        }\r\n        _numberOfProviders = 0;\r\n    }\r\n    \r\n    // PROVIDERS CRUD Operations\r\n\r\n    function addProvider(address provider, string memory providerInfo) public {\r\n       require(msg.sender == _creator, \"Not allowed to add providers\");\r\n       require(false == _providers[provider]._activated, \"Provider already activated\") ;\r\n\r\n       _providers[provider]._providerInfo = providerInfo;\r\n       _providers[provider]._activated = true;\r\n       _numberOfProviders += 1;\r\n    }\r\n    \r\n    function removeProvider(address provider) public {\r\n       require(true == _owners[msg.sender] || msg.sender == provider, \"Not allowed to remove providers\");\r\n       require(true == _providers[provider]._activated, \"Provider not activated\");\r\n\r\n       _providers[provider]._activated = false;\r\n       _numberOfProviders -= 1;\r\n    }\r\n    \r\n    function updateProvider(address provider, string memory providerInfo) public {\r\n       require(true == _owners[msg.sender] || msg.sender == provider, \"Not allowed to update providers\");\r\n       require(true == _providers[provider]._activated, \"Provider not activated\") ;\r\n\r\n       _providers[provider]._providerInfo = providerInfo;\r\n    }\r\n    \r\n    function retrieveProvider(address provider) public view returns (string memory){\r\n        require(true == _providers[provider]._activated, \"Provider does not exist\");\r\n\r\n        return _providers[provider]._providerInfo;\r\n    }\r\n    \r\n    function retrieveTotalProviders() public view returns (uint){\r\n        return (_numberOfProviders);\r\n    }\r\n    \r\n    // Certificats CRUD Operations\r\n\r\n    function addCertificate(string memory CertificateContent, string memory CertificateLocation, bytes memory CertificateHash, address holder) public {\r\n        require(true == _providers[msg.sender]._activated, \"Not allowed to add Certificates\");\r\n        require(0 < CertificateHash.length && (0 < bytes(CertificateLocation).length || 0 < bytes(CertificateContent).length), \"Certificate is empty\");\r\n\r\n        _Certificates.push(_Certificate(msg.sender, CertificateContent, CertificateLocation, CertificateHash, holder));\r\n        uint256 Id = _Certificates.length - 1;\r\n\r\n        _CertificatesPerHolder[holder]._byProviders[msg.sender].push(Id);   \r\n        _CertificatesPerHolder[holder]._All.push(Id); \r\n\r\n        _CertificatesByProvider[msg.sender]._All.push(Id); \r\n\r\n        emit _AddCertificateIdEvent(msg.sender, holder, Id);\r\n    }\r\n    \r\n    function removeCertificate(uint256 CertificateId) public {\r\n        require(CertificateId < _Certificates.length, \"Certificate does not exist\");\r\n        require(msg.sender == _Certificates[CertificateId]._Provider || msg.sender == _Certificates[CertificateId]._Holder, \"Not allowed to remove this particular Certificate\");\r\n\r\n        address provider = _Certificates[CertificateId]._Provider;\r\n        address holder = _Certificates[CertificateId]._Holder;\r\n        delete _Certificates[CertificateId];\r\n\r\n        emit _RemoveCertificateIdEvent(provider, holder, CertificateId);\r\n    }\r\n    \r\n    function updateCertificate(uint256 CertificateId, string memory CertificateContent, string memory CertificateLocation, bytes memory CertificateHash) public {\r\n       require(CertificateId < _Certificates.length, \"Certificate does not exist\");\r\n       require(msg.sender == _Certificates[CertificateId]._Provider, \"Not allowed to update this particular Certificate\");\r\n\r\n       if(0 < bytes(CertificateContent).length)  _Certificates[CertificateId]._CertificateContent = CertificateContent;\r\n       if(0 < bytes(CertificateLocation).length)  _Certificates[CertificateId]._CertificateLocation = CertificateLocation;\r\n       if(0 < bytes(CertificateHash).length)  _Certificates[CertificateId]._CertificateHash = CertificateHash;\r\n\r\n       emit _UpdateCertificateIdEvent(_Certificates[CertificateId]._Provider, _Certificates[CertificateId]._Holder, CertificateId);\r\n    }\r\n\r\n    function retrieveCertificate(uint256 CertificateId) public view returns (address, string memory, string memory, bytes memory, address){\r\n        require(CertificateId < _Certificates.length, \"Certificate does not exist\");\r\n\r\n        return (_Certificates[CertificateId]._Provider, \r\n            _Certificates[CertificateId]._CertificateContent,\r\n            _Certificates[CertificateId]._CertificateLocation,\r\n            _Certificates[CertificateId]._CertificateHash,\r\n            _Certificates[CertificateId]._Holder);\r\n    }\r\n\r\n    function retrieveCertificatesPerHolder(address holder) public view returns (uint256[] memory){\r\n        return (_CertificatesPerHolder[holder]._All);\r\n    }\r\n\r\n    function retrieveTotalCertificatePerHolder(address holder) public view returns (uint256){\r\n        return (_CertificatesPerHolder[holder]._All.length);\r\n    }\r\n\r\n    function retrieveCertificatesByProvider(address provider) public view returns (uint256[] memory){\r\n        return (_CertificatesByProvider[provider]._All);\r\n    }\r\n\r\n    function retrieveTotalCertificateByProvider(address provider) public view returns (uint256){\r\n        return (_CertificatesByProvider[provider]._All.length);\r\n    }\r\n\r\n    function retrieveCertificatesByProviderAndHolder(address provider, address holder) public view returns (uint256[] memory){\r\n        return (_CertificatesPerHolder[holder]._byProviders[provider]);\r\n    }\r\n\r\n    function retrieveTotalCertificateByProviderAndHolder(address provider, address holder) public view returns (uint256){\r\n        return (_CertificatesPerHolder[holder]._byProviders[provider].length);\r\n    }\r\n\r\n    \r\n    function helloWorld() public pure returns (string memory){\r\n        return 'hello world';\r\n    }\r\n\r\n    // OWNERS CRD Operations\r\n\r\n    function addOwner(address owner) public {\r\n       require(true == _owners[msg.sender] || msg.sender == _creator, \"Not allowed to add owners\");\r\n       require(false == _owners[owner], \"Owner already activated\");\r\n\r\n       _owners[owner] = true;\r\n       _numberOfOwners += 1;\r\n    }\r\n    \r\n    function removeOwner(address owner) public {\r\n       require(true == _owners[msg.sender]  || msg.sender == _creator, \"Not allowed to remove owners\");\r\n       require(true == _owners[owner], \"Owner already de-activated\");\r\n\r\n       _owners[owner] = false;\r\n        _numberOfOwners -= 1;\r\n    }\r\n\r\n    function isOwner(address owner) public view returns (bool){\r\n        return(_owners[owner]);\r\n    }\r\n \r\n    function retrieveTotalOwners() public view returns (uint){\r\n        return (_numberOfOwners);\r\n    }\r\n\r\n     function retrieveCreator() public view returns (address){\r\n        return (_creator);\r\n    }\r\n\r\n}",
  "sourcePath": "C:/Users/d-aam/GitHub/Certificates/contracts/Certificates.sol",
  "compiler": {
    "name": "solc",
    "version": "0.7.6+commit.7338295f.Emscripten.clang"
  },
  "schemaVersion": "3.3.4",
  "updatedAt": "2021-04-30T12:28:48.597Z",
  "devdoc": {
    "details": "Store & retrieve value in a variable",
    "kind": "dev",
    "methods": {},
    "title": "Storage",
    "version": 1
  },
  "userdoc": {
    "kind": "user",
    "methods": {},
    "version": 1
  }
}