{
  "contractName": "CertificatesPoolManager",
  "abi": [
    {
      "anonymous": false,
      "inputs": [
        {
          "indexed": false,
          "internalType": "uint256",
          "name": "Id",
          "type": "uint256"
        },
        {
          "indexed": true,
          "internalType": "address",
          "name": "Proposer",
          "type": "address"
        },
        {
          "indexed": false,
          "internalType": "uint256",
          "name": "Deadline",
          "type": "uint256"
        },
        {
          "indexed": false,
          "internalType": "uint256",
          "name": "Threshold",
          "type": "uint256"
        }
      ],
      "name": "_AddedProposition",
      "type": "event"
    },
    {
      "anonymous": false,
      "inputs": [
        {
          "indexed": false,
          "internalType": "uint256",
          "name": "Id",
          "type": "uint256"
        },
        {
          "indexed": true,
          "internalType": "address",
          "name": "Proposer",
          "type": "address"
        }
      ],
      "name": "_CancelledProposition",
      "type": "event"
    },
    {
      "anonymous": false,
      "inputs": [
        {
          "indexed": false,
          "internalType": "address",
          "name": "Public",
          "type": "address"
        },
        {
          "indexed": false,
          "internalType": "address",
          "name": "Treasury",
          "type": "address"
        },
        {
          "indexed": false,
          "internalType": "address",
          "name": "Certis",
          "type": "address"
        },
        {
          "indexed": false,
          "internalType": "address",
          "name": "PrivateFactory",
          "type": "address"
        },
        {
          "indexed": false,
          "internalType": "address",
          "name": "Private",
          "type": "address"
        },
        {
          "indexed": false,
          "internalType": "address",
          "name": "ProviderFactory",
          "type": "address"
        },
        {
          "indexed": false,
          "internalType": "address",
          "name": "Provider",
          "type": "address"
        },
        {
          "indexed": false,
          "internalType": "address",
          "name": "PriceConverter",
          "type": "address"
        },
        {
          "indexed": false,
          "internalType": "address",
          "name": "PropositionSettings",
          "type": "address"
        },
        {
          "indexed": false,
          "internalType": "address",
          "name": "ENS",
          "type": "address"
        }
      ],
      "name": "_NewContracts",
      "type": "event"
    },
    {
      "anonymous": false,
      "inputs": [
        {
          "indexed": false,
          "internalType": "uint256",
          "name": "Id",
          "type": "uint256"
        },
        {
          "indexed": true,
          "internalType": "address",
          "name": "Proposer",
          "type": "address"
        },
        {
          "indexed": false,
          "internalType": "uint256",
          "name": "VotesFor",
          "type": "uint256"
        },
        {
          "indexed": false,
          "internalType": "uint256",
          "name": "VotesAgainst",
          "type": "uint256"
        }
      ],
      "name": "_PropositionApproved",
      "type": "event"
    },
    {
      "anonymous": false,
      "inputs": [
        {
          "indexed": false,
          "internalType": "uint256",
          "name": "Id",
          "type": "uint256"
        },
        {
          "indexed": true,
          "internalType": "address",
          "name": "Proposer",
          "type": "address"
        },
        {
          "indexed": false,
          "internalType": "uint256",
          "name": "VotesFor",
          "type": "uint256"
        },
        {
          "indexed": false,
          "internalType": "uint256",
          "name": "VotesAgainst",
          "type": "uint256"
        }
      ],
      "name": "_PropositionRejected",
      "type": "event"
    },
    {
      "anonymous": false,
      "inputs": [
        {
          "indexed": false,
          "internalType": "uint256",
          "name": "Id",
          "type": "uint256"
        },
        {
          "indexed": true,
          "internalType": "address",
          "name": "Voter",
          "type": "address"
        },
        {
          "indexed": false,
          "internalType": "bool",
          "name": "Vote",
          "type": "bool"
        },
        {
          "indexed": false,
          "internalType": "uint256",
          "name": "AmountTokens",
          "type": "uint256"
        }
      ],
      "name": "_PropositionVote",
      "type": "event"
    },
    {
      "anonymous": false,
      "inputs": [
        {
          "indexed": true,
          "internalType": "uint256",
          "name": "Id",
          "type": "uint256"
        },
        {
          "indexed": false,
          "internalType": "address",
          "name": "From",
          "type": "address"
        },
        {
          "indexed": false,
          "internalType": "address",
          "name": "To",
          "type": "address"
        },
        {
          "indexed": false,
          "internalType": "uint256",
          "name": "Amount",
          "type": "uint256"
        }
      ],
      "name": "_UsedTokensTransfered",
      "type": "event"
    },
    {
      "inputs": [
        {
          "internalType": "address",
          "name": "chairPerson",
          "type": "address"
        },
        {
          "internalType": "address",
          "name": "managerContractAddress",
          "type": "address"
        },
        {
          "internalType": "string",
          "name": "contractName",
          "type": "string"
        },
        {
          "internalType": "string",
          "name": "contractVersion",
          "type": "string"
        }
      ],
      "name": "StdPropositionBaseContract_init",
      "outputs": [],
      "stateMutability": "nonpayable",
      "type": "function"
    },
    {
      "inputs": [],
      "name": "cancelProposition",
      "outputs": [],
      "stateMutability": "nonpayable",
      "type": "function"
    },
    {
      "inputs": [
        {
          "internalType": "address",
          "name": "from",
          "type": "address"
        },
        {
          "internalType": "address",
          "name": "to",
          "type": "address"
        },
        {
          "internalType": "uint256",
          "name": "amount",
          "type": "uint256"
        }
      ],
      "name": "onTokenBalanceChanged",
      "outputs": [],
      "stateMutability": "nonpayable",
      "type": "function"
    },
    {
      "inputs": [],
      "name": "retrieveChairPerson",
      "outputs": [
        {
          "internalType": "address",
          "name": "",
          "type": "address"
        }
      ],
      "stateMutability": "view",
      "type": "function",
      "constant": true
    },
    {
      "inputs": [],
      "name": "retrieveContractConfig",
      "outputs": [
        {
          "internalType": "string",
          "name": "",
          "type": "string"
        },
        {
          "internalType": "string",
          "name": "",
          "type": "string"
        }
      ],
      "stateMutability": "view",
      "type": "function",
      "constant": true
    },
    {
      "inputs": [],
      "name": "retrieveManagerContract",
      "outputs": [
        {
          "internalType": "address",
          "name": "",
          "type": "address"
        }
      ],
      "stateMutability": "view",
      "type": "function",
      "constant": true
    },
    {
      "inputs": [],
      "name": "retrieveNextPropId",
      "outputs": [
        {
          "internalType": "uint256",
          "name": "",
          "type": "uint256"
        }
      ],
      "stateMutability": "view",
      "type": "function",
      "constant": true
    },
    {
      "inputs": [
        {
          "internalType": "address",
          "name": "addr",
          "type": "address"
        },
        {
          "internalType": "uint256",
          "name": "nonce",
          "type": "uint256"
        }
      ],
      "name": "retrieveNonce",
      "outputs": [
        {
          "internalType": "bool",
          "name": "",
          "type": "bool"
        }
      ],
      "stateMutability": "view",
      "type": "function",
      "constant": true
    },
    {
      "inputs": [],
      "name": "retrieveProposition",
      "outputs": [
        {
          "internalType": "bytes[]",
          "name": "",
          "type": "bytes[]"
        }
      ],
      "stateMutability": "view",
      "type": "function",
      "constant": true
    },
    {
      "inputs": [],
      "name": "retrievePropositionStatus",
      "outputs": [
        {
          "internalType": "address",
          "name": "",
          "type": "address"
        },
        {
          "internalType": "uint256",
          "name": "",
          "type": "uint256"
        },
        {
          "internalType": "uint256",
          "name": "",
          "type": "uint256"
        },
        {
          "internalType": "uint256",
          "name": "",
          "type": "uint256"
        },
        {
          "internalType": "uint256",
          "name": "",
          "type": "uint256"
        }
      ],
      "stateMutability": "view",
      "type": "function",
      "constant": true
    },
    {
      "inputs": [
        {
          "internalType": "uint256",
          "name": "PropId",
          "type": "uint256"
        },
        {
          "internalType": "address",
          "name": "voter",
          "type": "address"
        }
      ],
      "name": "retrieveVotesForVoter",
      "outputs": [
        {
          "internalType": "uint256",
          "name": "",
          "type": "uint256"
        }
      ],
      "stateMutability": "view",
      "type": "function",
      "constant": true
    },
    {
      "inputs": [
        {
          "internalType": "bytes[]",
          "name": "NewValues",
          "type": "bytes[]"
        }
      ],
      "name": "sendProposition",
      "outputs": [],
      "stateMutability": "nonpayable",
      "type": "function"
    },
    {
      "inputs": [
        {
          "internalType": "bool",
          "name": "vote",
          "type": "bool"
        }
      ],
      "name": "voteProposition",
      "outputs": [],
      "stateMutability": "nonpayable",
      "type": "function"
    },
    {
      "inputs": [
        {
          "internalType": "address",
          "name": "voter",
          "type": "address"
        },
        {
          "internalType": "uint256",
          "name": "propID",
          "type": "uint256"
        },
        {
          "internalType": "bool",
          "name": "vote",
          "type": "bool"
        },
        {
          "internalType": "uint256",
          "name": "nonce",
          "type": "uint256"
        },
        {
          "internalType": "uint256",
          "name": "deadline",
          "type": "uint256"
        },
        {
          "internalType": "bytes",
          "name": "signature",
          "type": "bytes"
        }
      ],
      "name": "votePropositionOnBehalfOf",
      "outputs": [],
      "stateMutability": "nonpayable",
      "type": "function"
    },
    {
      "inputs": [
        {
          "internalType": "string",
          "name": "contractName",
          "type": "string"
        },
        {
          "internalType": "string",
          "name": "contractVersion",
          "type": "string"
        }
      ],
      "name": "CertificatesPoolManager_init",
      "outputs": [],
      "stateMutability": "nonpayable",
      "type": "function"
    },
    {
      "inputs": [
        {
          "components": [
            {
              "internalType": "address",
              "name": "NewPublicPoolAddress",
              "type": "address"
            },
            {
              "internalType": "address",
              "name": "NewTreasuryAddress",
              "type": "address"
            },
            {
              "internalType": "address",
              "name": "NewCertisTokenAddress",
              "type": "address"
            },
            {
              "internalType": "address",
              "name": "NewPrivatePoolFactoryAddress",
              "type": "address"
            },
            {
              "internalType": "address",
              "name": "NewPrivatePoolAddress",
              "type": "address"
            },
            {
              "internalType": "address",
              "name": "NewProviderFactoryAddress",
              "type": "address"
            },
            {
              "internalType": "address",
              "name": "NewProviderAddress",
              "type": "address"
            },
            {
              "internalType": "address",
              "name": "NewPriceConverterAddress",
              "type": "address"
            },
            {
              "internalType": "address",
              "name": "NewPropositionSettingsAddress",
              "type": "address"
            },
            {
              "internalType": "address",
              "name": "NewENSAddress",
              "type": "address"
            },
            {
              "internalType": "bytes",
              "name": "NewPublicPoolData",
              "type": "bytes"
            },
            {
              "internalType": "bytes",
              "name": "NewTreasuryData",
              "type": "bytes"
            },
            {
              "internalType": "bytes",
              "name": "NewCertisTokenData",
              "type": "bytes"
            },
            {
              "internalType": "bytes",
              "name": "NewPrivatePoolFactoryData",
              "type": "bytes"
            },
            {
              "internalType": "bytes",
              "name": "NewProviderFactoryData",
              "type": "bytes"
            },
            {
              "internalType": "bytes",
              "name": "NewPriceConverterData",
              "type": "bytes"
            },
            {
              "internalType": "bytes",
              "name": "NewPropositionSettingsData",
              "type": "bytes"
            },
            {
              "internalType": "bytes",
              "name": "NewENSData",
              "type": "bytes"
            },
            {
              "internalType": "string",
              "name": "NewPrivatePoolContractName",
              "type": "string"
            },
            {
              "internalType": "string",
              "name": "NewPrivatePoolContractVersion",
              "type": "string"
            }
          ],
          "internalType": "struct Library.ProposedContractsStruct",
          "name": "initialContracts",
          "type": "tuple"
        }
      ],
      "name": "InitializeContracts",
      "outputs": [],
      "stateMutability": "nonpayable",
      "type": "function"
    },
    {
      "inputs": [],
      "name": "retrievePublicCertificatePoolProxy",
      "outputs": [
        {
          "internalType": "address",
          "name": "",
          "type": "address"
        }
      ],
      "stateMutability": "view",
      "type": "function",
      "constant": true
    },
    {
      "inputs": [],
      "name": "retrieveTreasuryProxy",
      "outputs": [
        {
          "internalType": "address",
          "name": "",
          "type": "address"
        }
      ],
      "stateMutability": "view",
      "type": "function",
      "constant": true
    },
    {
      "inputs": [],
      "name": "retrieveCertisTokenProxy",
      "outputs": [
        {
          "internalType": "address",
          "name": "",
          "type": "address"
        }
      ],
      "stateMutability": "view",
      "type": "function",
      "constant": true
    },
    {
      "inputs": [],
      "name": "retrievePrivatePoolFactoryProxy",
      "outputs": [
        {
          "internalType": "address",
          "name": "",
          "type": "address"
        }
      ],
      "stateMutability": "view",
      "type": "function",
      "constant": true
    },
    {
      "inputs": [],
      "name": "retrievePrivatePoolBeacon",
      "outputs": [
        {
          "internalType": "address",
          "name": "",
          "type": "address"
        }
      ],
      "stateMutability": "view",
      "type": "function",
      "constant": true
    },
    {
      "inputs": [],
      "name": "retrieveProviderFactoryProxy",
      "outputs": [
        {
          "internalType": "address",
          "name": "",
          "type": "address"
        }
      ],
      "stateMutability": "view",
      "type": "function",
      "constant": true
    },
    {
      "inputs": [],
      "name": "retrieveProviderBeacon",
      "outputs": [
        {
          "internalType": "address",
          "name": "",
          "type": "address"
        }
      ],
      "stateMutability": "view",
      "type": "function",
      "constant": true
    },
    {
      "inputs": [],
      "name": "retrievePriceConverterProxy",
      "outputs": [
        {
          "internalType": "address",
          "name": "",
          "type": "address"
        }
      ],
      "stateMutability": "view",
      "type": "function",
      "constant": true
    },
    {
      "inputs": [],
      "name": "retrievePropositionSettingsProxy",
      "outputs": [
        {
          "internalType": "address",
          "name": "",
          "type": "address"
        }
      ],
      "stateMutability": "view",
      "type": "function",
      "constant": true
    },
    {
      "inputs": [],
      "name": "retrieveENSProxy",
      "outputs": [
        {
          "internalType": "address",
          "name": "",
          "type": "address"
        }
      ],
      "stateMutability": "view",
      "type": "function",
      "constant": true
    },
    {
      "inputs": [],
      "name": "retrievePublicCertificatePool",
      "outputs": [
        {
          "internalType": "address",
          "name": "",
          "type": "address"
        }
      ],
      "stateMutability": "view",
      "type": "function",
      "constant": true
    },
    {
      "inputs": [],
      "name": "retrieveTreasury",
      "outputs": [
        {
          "internalType": "address",
          "name": "",
          "type": "address"
        }
      ],
      "stateMutability": "view",
      "type": "function",
      "constant": true
    },
    {
      "inputs": [],
      "name": "retrieveCertisToken",
      "outputs": [
        {
          "internalType": "address",
          "name": "",
          "type": "address"
        }
      ],
      "stateMutability": "view",
      "type": "function",
      "constant": true
    },
    {
      "inputs": [],
      "name": "retrievePrivatePoolFactory",
      "outputs": [
        {
          "internalType": "address",
          "name": "",
          "type": "address"
        }
      ],
      "stateMutability": "view",
      "type": "function",
      "constant": true
    },
    {
      "inputs": [],
      "name": "retrievePrivatePool",
      "outputs": [
        {
          "internalType": "address",
          "name": "",
          "type": "address"
        }
      ],
      "stateMutability": "view",
      "type": "function",
      "constant": true
    },
    {
      "inputs": [],
      "name": "retrieveProviderFactory",
      "outputs": [
        {
          "internalType": "address",
          "name": "",
          "type": "address"
        }
      ],
      "stateMutability": "view",
      "type": "function",
      "constant": true
    },
    {
      "inputs": [],
      "name": "retrieveProvider",
      "outputs": [
        {
          "internalType": "address",
          "name": "",
          "type": "address"
        }
      ],
      "stateMutability": "view",
      "type": "function",
      "constant": true
    },
    {
      "inputs": [],
      "name": "retrievePriceConverter",
      "outputs": [
        {
          "internalType": "address",
          "name": "",
          "type": "address"
        }
      ],
      "stateMutability": "view",
      "type": "function",
      "constant": true
    },
    {
      "inputs": [],
      "name": "retrievePropositionSettings",
      "outputs": [
        {
          "internalType": "address",
          "name": "",
          "type": "address"
        }
      ],
      "stateMutability": "view",
      "type": "function",
      "constant": true
    },
    {
      "inputs": [],
      "name": "retrieveENS",
      "outputs": [
        {
          "internalType": "address",
          "name": "",
          "type": "address"
        }
      ],
      "stateMutability": "view",
      "type": "function",
      "constant": true
    }
  ],
  "bytecode": "0x608060405234801561001057600080fd5b50615d5c806100206000396000f3fe60806040523480156200001157600080fd5b5060043610620001d25760003560e01c8063029b967314620001d757806304cc67a914620001f95780630f13bbc9146200020c57806322d929e114620002255780633c65d427146200022f5780633c7df55d14620002415780633feca4ca14620002585780634044adb214620002a557806348a9ddfe14620002de5780634b19aa1614620002e857806355457ee914620002f25780635773bc2314620002fc5780635a3794e9146200030e5780635b362e84146200032057806360255415146200033857806367717177146200034a5780636c59494814620003545780637634af78146200036b5780637c2f3aaf146200037d5780637faa3d6f146200038f578063840f6d1714620003a657806387552a0d14620003e857806391f9167114620003fa578063a16374d21462000411578063a42e1339146200041b578063a93316f51462000425578063aa2ba7c0146200043e578063aa33380a1462000455578063c50ec82b1462000467578063d2116a021462000471578063da3dce26146200048b578063db85bc4d146200049d578063e15aa3a614620004af578063ee2aa36a14620004c6578063efd15d1714620004d0578063f5ad9acc14620004da575b600080fd5b620001e1620004ec565b604051620001f0919062003cdf565b60405180910390f35b600b545b604051908152602001620001f0565b620002236200021d36600462003751565b6200050b565b005b620001e162000598565b6010546001600160a01b0316620001e1565b6200022362000252366004620037e4565b620005b2565b62000294620002693660046200382a565b6001600160a01b03919091166000908152600260209081526040808320938352929052205460ff1690565b6040519015158152602001620001f0565b620001fd620002b636600462003b49565b6000918252600c602090815260408084206001600160a01b0393909316845291905290205490565b620001e1620006bc565b620001e1620006d6565b62000223620006e2565b6012546001600160a01b0316620001e1565b6015546001600160a01b0316620001e1565b6003546201000090046001600160a01b0316620001e1565b6017546001600160a01b0316620001e1565b620001e1620007bc565b620002236200036536600462003af1565b620007d6565b6019546001600160a01b0316620001e1565b6011546001600160a01b0316620001e1565b62000223620003a036600462003859565b620008b7565b600654600754600854600954600a54604080516001600160a01b0390961686526020860194909452928401919091526060830152608082015260a001620001f0565b6018546001600160a01b0316620001e1565b620002236200040b36600462003a47565b620008db565b620001e1620008ea565b620001e162000904565b6200042f6200091e565b604051620001f0919062003dbf565b620002236200044f36600462003a87565b62000a01565b6014546001600160a01b0316620001e1565b620001e162000acf565b6200047b62000adb565b604051620001f092919062003ea4565b6016546001600160a01b0316620001e1565b6004546001600160a01b0316620001e1565b62000223620004c036600462003984565b62000c12565b620001e162000c8e565b620001e162000ca8565b6013546001600160a01b0316620001e1565b60165460009062000506906001600160a01b031662000cbd565b905090565b600354610100900460ff168062000525575060035460ff16155b6200054d5760405162461bcd60e51b8152600401620005449062003ecd565b60405180910390fd5b600354610100900460ff1615801562000570576003805461ffff19166101011790555b6200057e8585858562000d4a565b801562000591576003805461ff00191690555b5050505050565b60125460009062000506906001600160a01b031662000cbd565b3373__Library_______________________________6337ea306382600360029054906101000a90046001600160a01b03166001600160a01b031663da3dce266040518163ffffffff1660e01b815260040160206040518083038186803b1580156200061d57600080fd5b505afa15801562000632573d6000803e3d6000fd5b505050506040513d601f19601f8201168201806040525081019062000658919062003731565b6040518363ffffffff1660e01b81526004016200067792919062003cf3565b60006040518083038186803b1580156200069057600080fd5b505af4158015620006a5573d6000803e3d6000fd5b50505050620006b684848462000ddd565b50505050565b60185460009062000506906001600160a01b031662000cbd565b60006200050662000dff565b6001620006ef8162000e80565b6006546040516337ea306360e01b8152339173__Library_______________________________916337ea306391620007379185916001600160a01b03169060040162003cf3565b60006040518083038186803b1580156200075057600080fd5b505af415801562000765573d6000803e3d6000fd5b505050506200077362000f0d565b6006546005546040519081526001600160a01b03909116907f1fe8aec10c0a50fa765076161e08c1f961ced69594ff45cf7d559f593afe14799060200160405180910390a25050565b60105460009062000506906001600160a01b031662000cbd565b600480546040516337ea306360e01b8152339273__Library_______________________________926337ea3063926200081d9286926001600160a01b0316910162003cf3565b60006040518083038186803b1580156200083657600080fd5b505af41580156200084b573d6000803e3d6000fd5b5050601954600160a01b900460ff161591506200089590505760405162461bcd60e51b8152602060048201526005602482015264454332362d60d81b604482015260640162000544565b620008a08262000f38565b50506019805460ff60a01b1916600160a01b179055565b620008c786868686868662001530565b620008d386856200169e565b505050505050565b620008e733826200169e565b50565b60195460009062000506906001600160a01b031662000cbd565b60145460009062000506906001600160a01b031662000cbd565b6060600d805480602002602001604051908101604052809291908181526020016000905b82821015620009f8578382906000526020600020018054620009649062004054565b80601f0160208091040260200160405190810160405280929190818152602001828054620009929062004054565b8015620009e35780601f10620009b757610100808354040283529160200191620009e3565b820191906000526020600020905b815481529060010190602001808311620009c557829003601f168201915b50505050508152602001906001019062000942565b50505050905090565b600354610100900460ff168062000a1b575060035460ff16155b62000a3a5760405162461bcd60e51b8152600401620005449062003ecd565b600354610100900460ff1615801562000a5d576003805461ffff19166101011790555b62000a6b333085856200050b565b60405162000a799062003534565b604051809103906000f08015801562000a96573d6000803e3d6000fd5b50600f80546001600160a01b0319166001600160a01b0392909216919091179055801562000aca576003805461ff00191690555b505050565b600062000506620017c7565b6060806000600181805462000af09062004054565b80601f016020809104026020016040519081016040528092919081815260200182805462000b1e9062004054565b801562000b6f5780601f1062000b435761010080835404028352916020019162000b6f565b820191906000526020600020905b81548152906001019060200180831162000b5157829003601f168201915b5050505050915080805462000b849062004054565b80601f016020809104026020016040519081016040528092919081815260200182805462000bb29062004054565b801562000c035780601f1062000bd75761010080835404028352916020019162000c03565b820191906000526020600020905b81548152906001019060200180831162000be557829003601f168201915b50505050509050915091509091565b62000c1c6200180d565b60005b815181101562000c8a57600d82828151811062000c405762000c40620040c5565b6020908102919091018101518254600181018455600093845292829020815162000c74949190910192919091019062003542565b508062000c818162004091565b91505062000c1f565b5050565b60175460009062000506906001600160a01b031662000cbd565b60155460009062000506906001600160a01b03165b600f546040516310270e3d60e11b81526000916001600160a01b03169063204e1c7a9062000cf090859060040162003cdf565b60206040518083038186803b15801562000d0957600080fd5b505afa15801562000d1e573d6000803e3d6000fd5b505050506040513d601f19601f8201168201806040525081019062000d44919062003731565b92915050565b600354610100900460ff168062000d64575060035460ff16155b62000d835760405162461bcd60e51b8152600401620005449062003ecd565b600354610100900460ff1615801562000da6576003805461ffff19166101011790555b62000db18462001b8c565b600480546001600160a01b0319166001600160a01b0387161790556000600b556200057e838362001c20565b62000de762001c4b565b15156001141562000aca5762000aca83838362001c8b565b60135460408051635c60da1b60e01b815290516000926001600160a01b031691635c60da1b916004808301926020929190829003018186803b15801562000e4557600080fd5b505afa15801562000e5a573d6000803e3d6000fd5b505050506040513d601f19601f8201168201806040525081019062000506919062003731565b801562000ecc5762000e9162001c4b565b1515600114620008e75760405162461bcd60e51b8152602060048201526005602482015264454332352d60d81b604482015260640162000544565b62000ed662001c4b565b15620008e75760405162461bcd60e51b8152602060048201526005602482015264454332342d60d81b604482015260640162000544565b60006005819055600680546001600160a01b0319169055600781905560088190556009819055600a55565b62000f47602082018262003711565b600f546001600160a01b031662000f6361014084018462003f31565b60405162000f7190620035d1565b62000f80949392919062003d0d565b604051809103906000f08015801562000f9d573d6000803e3d6000fd5b50601480546001600160a01b0319166001600160a01b039290921691909117905562000fd0604082016020830162003711565b600f546001600160a01b031662000fec61016084018462003f31565b60405162000ffa90620035d1565b62001009949392919062003d0d565b604051809103906000f08015801562001026573d6000803e3d6000fd5b50601580546001600160a01b0319166001600160a01b039290921691909117905562001059606082016040830162003711565b600f546001600160a01b03166200107561018084018462003f31565b6040516200108390620035d1565b62001092949392919062003d0d565b604051809103906000f080158015620010af573d6000803e3d6000fd5b50601680546001600160a01b0319166001600160a01b0392909216919091179055620010e2608082016060830162003711565b600f546001600160a01b0316620010fe6101a084018462003f31565b6040516200110c90620035d1565b6200111b949392919062003d0d565b604051809103906000f08015801562001138573d6000803e3d6000fd5b50601080546001600160a01b0319166001600160a01b03929092169190911790556200116b60a082016080830162003711565b6040516200117990620035df565b62001185919062003cdf565b604051809103906000f080158015620011a2573d6000803e3d6000fd5b50601180546001600160a01b0319166001600160a01b0392909216919091179055620011d560c0820160a0830162003711565b600f546001600160a01b0316620011f16101c084018462003f31565b604051620011ff90620035d1565b6200120e949392919062003d0d565b604051809103906000f0801580156200122b573d6000803e3d6000fd5b50601280546001600160a01b0319166001600160a01b03929092169190911790556200125e60e0820160c0830162003711565b6040516200126c90620035df565b62001278919062003cdf565b604051809103906000f08015801562001295573d6000803e3d6000fd5b50601380546001600160a01b0319166001600160a01b0392909216919091179055620012c9610100820160e0830162003711565b600f546001600160a01b0316620012e56101e084018462003f31565b604051620012f390620035d1565b62001302949392919062003d0d565b604051809103906000f0801580156200131f573d6000803e3d6000fd5b50601780546001600160a01b0319166001600160a01b0392909216919091179055620013546101208201610100830162003711565b600f546001600160a01b03166200137061020084018462003f31565b6040516200137e90620035d1565b6200138d949392919062003d0d565b604051809103906000f080158015620013aa573d6000803e3d6000fd5b50601880546001600160a01b0319166001600160a01b0392909216919091179055620013df6101408201610120830162003711565b600f546001600160a01b0316620013fb61022084018462003f31565b6040516200140990620035d1565b62001418949392919062003d0d565b604051809103906000f08015801562001435573d6000803e3d6000fd5b50601980546001600160a01b0319166001600160a01b039283161790556010541663ce50ac766200146b61024084018462003f31565b6040518363ffffffff1660e01b81526004016200148a92919062003e86565b600060405180830381600087803b158015620014a557600080fd5b505af1158015620014ba573d6000803e3d6000fd5b50506010546001600160a01b03169150631dd5862c9050620014e161026084018462003f31565b6040518363ffffffff1660e01b81526004016200150092919062003e86565b600060405180830381600087803b1580156200151b57600080fd5b505af115801562000591573d6000803e3d6000fd5b816200153c8162001e03565b86846200154a828262001e3c565b6005548814620015855760405162461bcd60e51b8152602060048201526005602482015264454333352d60d81b604482015260640162000544565b60405163432f9a5560e01b815273__SignatureLibrary______________________9063432f9a5590620015ce908c908c908c908c908c908c9060009060019060040162003d46565b60206040518083038186803b158015620015e757600080fd5b505af4158015620015fc573d6000803e3d6000fd5b505050506040513d601f19601f8201168201806040525081019062001622919062003a67565b15156001146200165d5760405162461bcd60e51b8152602060048201526005602482015264454333322d60d81b604482015260640162000544565b6200169389876001600160a01b03909116600090815260026020908152604080832093835292905220805460ff19166001179055565b505050505050505050565b6001620016ab8162000e80565b60055483906000620016be838362001e9a565b905060008111620016fa5760405162461bcd60e51b8152602060048201526005602482015264454332332d60d81b604482015260640162000544565b60006200170d8760056000015462001e9a565b90508515620017395780600560040160008282546200172d919062003fda565b90915550620017559050565b806005800160008282546200174f919062003fda565b90915550505b6005546200176590888362001edb565b60055460408051918252871515602083015281018290526001600160a01b038816907f50f654d58981575c05e369cb129aeacb01e1b036af429380242cfc5d1a4b743f9060600160405180910390a2620017be62001f19565b50505050505050565b60115460408051635c60da1b60e01b815290516000926001600160a01b031691635c60da1b916004808301926020929190829003018186803b15801562000e4557600080fd5b60006200181a8162000e80565b60045433906000906001600160a01b03168214156200183c5750600162001986565b6000620018498362001ffd565b90506000600360029054906101000a90046001600160a01b03166001600160a01b03166387552a0d6040518163ffffffff1660e01b815260040160206040518083038186803b1580156200189c57600080fd5b505afa158015620018b1573d6000803e3d6000fd5b505050506040513d601f19601f82011682018060405250810190620018d7919062003731565b6001600160a01b031663b049473f6040518163ffffffff1660e01b815260040160606040518083038186803b1580156200191057600080fd5b505afa15801562001925573d6000803e3d6000fd5b505050506040513d601f19601f820116820180604052508101906200194b919062003b7c565b9250505060646200195b6200210a565b6200196a9060ff841662004018565b62001976919062003ff5565b8211156200198357600192505b50505b600181151514620019c25760405162461bcd60e51b8152602060048201526005602482015264454332322d60d81b604482015260640162000544565b600080600360029054906101000a90046001600160a01b03166001600160a01b03166387552a0d6040518163ffffffff1660e01b815260040160206040518083038186803b15801562001a1457600080fd5b505afa15801562001a29573d6000803e3d6000fd5b505050506040513d601f19601f8201168201806040525081019062001a4f919062003731565b6001600160a01b031663b049473f6040518163ffffffff1660e01b815260040160606040518083038186803b15801562001a8857600080fd5b505afa15801562001a9d573d6000803e3d6000fd5b505050506040513d601f19601f8201168201806040525081019062001ac3919062003b7c565b50600680546001600160a01b03191633179055909250905062001ae7824262003fda565b600755606460ff821662001afa6200210a565b62001b06919062004018565b62001b12919062003ff5565b600855600b8054600581905590600062001b2c8362004091565b90915550506006546005546007546008546040516001600160a01b03909416937f472501d19bf75639b2e316cd36f8568b0c3ab943b82a87de3c086c98c1929df99362001b7d939092909162003f1b565b60405180910390a25050505050565b600354610100900460ff168062001ba6575060035460ff16155b62001bc55760405162461bcd60e51b8152600401620005449062003ecd565b600354610100900460ff1615801562001be8576003805461ffff19166101011790555b6003805462010000600160b01b031916620100006001600160a01b03851602179055801562000c8a576003805461ff00191690555050565b815162001c3590600090602085019062003542565b50805162000aca90600190602084019062003542565b60075460009042101562001c5f5750600190565b6006546001600160a01b03161562001c855762001c7b6200220a565b62001c8562000f0d565b50600090565b6001600160a01b0383161580159062001cc857506005546000908152600c602090815260408083206001600160a01b038716845290915290205415155b1562000aca576005546000908152600c602090815260408083206001600160a01b0387168452909152902054819081111562001d2657506005546000908152600c602090815260408083206001600160a01b03871684529091529020545b6005546000908152600c602090815260408083206001600160a01b03881684529091528120805483929062001d5d9084906200403a565b90915550506001600160a01b0383161562001daf576005546000908152600c602090815260408083206001600160a01b03871684529091528120805483929062001da990849062003fda565b90915550505b600554604080516001600160a01b038088168252861660208201529081018390527f65fbd5e5dd32bea4aeca85bd0be0abf0e489d655dee888a7510d43b06dda2dba9060600160405180910390a250505050565b804210620008e75760405162461bcd60e51b8152602060048201526005602482015264454333332d60d81b604482015260640162000544565b6001600160a01b038216600090815260026020908152604080832084845290915290205460ff161562000c8a5760405162461bcd60e51b8152602060048201526005602482015264454333342d60d81b604482015260640162000544565b6000818152600c602090815260408083206001600160a01b038616845290915281205462001ec88462001ffd565b62001ed491906200403a565b9392505050565b6000838152600c602090815260408083206001600160a01b03861684529091528120805483929062001f0f90849062003fda565b9091555050505050565b6008546009541062001f8f5762001f2f62002214565b62001f3962000f0d565b600654600554600954600a546040516001600160a01b03909416937f23ca0034cf5aad32571b4a492e9598ea8a490e1643a60970e3cdc6933b55e49f9362001f85939092909162003f1b565b60405180910390a2565b600854600a541062001ffb5762001fa56200220a565b62001faf62000f0d565b600654600554600954600a546040516001600160a01b03909416937fa58eb6daa3c62c3f883973c4035e5bd3e81aa627c8379de068a7de42df122be29362001f85939092909162003f1b565b565b6000600360029054906101000a90046001600160a01b03166001600160a01b031663da3dce266040518163ffffffff1660e01b815260040160206040518083038186803b1580156200204e57600080fd5b505afa15801562002063573d6000803e3d6000fd5b505050506040513d601f19601f8201168201806040525081019062002089919062003731565b6001600160a01b03166370a08231836040518263ffffffff1660e01b8152600401620020b6919062003cdf565b60206040518083038186803b158015620020cf57600080fd5b505afa158015620020e4573d6000803e3d6000fd5b505050506040513d601f19601f8201168201806040525081019062000d44919062003b2f565b6000600360029054906101000a90046001600160a01b03166001600160a01b031663da3dce266040518163ffffffff1660e01b815260040160206040518083038186803b1580156200215b57600080fd5b505afa15801562002170573d6000803e3d6000fd5b505050506040513d601f19601f8201168201806040525081019062002196919062003731565b6001600160a01b03166318160ddd6040518163ffffffff1660e01b815260040160206040518083038186803b158015620021cf57600080fd5b505afa158015620021e4573d6000803e3d6000fd5b505050506040513d601f19601f8201168201806040525081019062000506919062003b2f565b62001ffb6200221e565b6200220a6200222c565b62001ffb600d6000620035ed565b601454600d8054620023a8926001600160a01b03169190600090620022555762002255620040c5565b9060005260206000200180546200226c9062004054565b80601f01602080910402602001604051908101604052809291908181526020018280546200229a9062004054565b8015620022eb5780601f10620022bf57610100808354040283529160200191620022eb565b820191906000526020600020905b815481529060010190602001808311620022cd57829003601f168201915b5050505050600d600a81548110620023075762002307620040c5565b9060005260206000200180546200231e9062004054565b80601f01602080910402602001604051908101604052809291908181526020018280546200234c9062004054565b80156200239d5780601f1062002371576101008083540402835291602001916200239d565b820191906000526020600020905b8154815290600101906020018083116200237f57829003601f168201915b5050505050620032ff565b601554600d805462002485926001600160a01b031691906001908110620023d357620023d3620040c5565b906000526020600020018054620023ea9062004054565b80601f0160208091040260200160405190810160405280929190818152602001828054620024189062004054565b8015620024695780601f106200243d5761010080835404028352916020019162002469565b820191906000526020600020905b8154815290600101906020018083116200244b57829003601f168201915b5050505050600d600b81548110620023075762002307620040c5565b601654600d805462002562926001600160a01b031691906002908110620024b057620024b0620040c5565b906000526020600020018054620024c79062004054565b80601f0160208091040260200160405190810160405280929190818152602001828054620024f59062004054565b8015620025465780601f106200251a5761010080835404028352916020019162002546565b820191906000526020600020905b8154815290600101906020018083116200252857829003601f168201915b5050505050600d600c81548110620023075762002307620040c5565b601054600d80546200263e926001600160a01b0316919060039081106200258d576200258d620040c5565b906000526020600020018054620025a49062004054565b80601f0160208091040260200160405190810160405280929190818152602001828054620025d29062004054565b8015620026235780601f10620025f75761010080835404028352916020019162002623565b820191906000526020600020905b8154815290600101906020018083116200260557829003601f168201915b5050505050600d8081548110620023075762002307620040c5565b601254600d80546200271b926001600160a01b031691906005908110620026695762002669620040c5565b906000526020600020018054620026809062004054565b80601f0160208091040260200160405190810160405280929190818152602001828054620026ae9062004054565b8015620026ff5780601f10620026d357610100808354040283529160200191620026ff565b820191906000526020600020905b815481529060010190602001808311620026e157829003601f168201915b5050505050600d600e81548110620023075762002307620040c5565b601754600d8054620027f8926001600160a01b031691906007908110620027465762002746620040c5565b9060005260206000200180546200275d9062004054565b80601f01602080910402602001604051908101604052809291908181526020018280546200278b9062004054565b8015620027dc5780601f10620027b057610100808354040283529160200191620027dc565b820191906000526020600020905b815481529060010190602001808311620027be57829003601f168201915b5050505050600d600f81548110620023075762002307620040c5565b601854600d8054620028d5926001600160a01b031691906008908110620028235762002823620040c5565b9060005260206000200180546200283a9062004054565b80601f0160208091040260200160405190810160405280929190818152602001828054620028689062004054565b8015620028b95780601f106200288d57610100808354040283529160200191620028b9565b820191906000526020600020905b8154815290600101906020018083116200289b57829003601f168201915b5050505050600d601081548110620023075762002307620040c5565b601954600d8054620029b2926001600160a01b031691906009908110620029005762002900620040c5565b906000526020600020018054620029179062004054565b80601f0160208091040260200160405190810160405280929190818152602001828054620029459062004054565b8015620029965780601f106200296a5761010080835404028352916020019162002996565b820191906000526020600020905b8154815290600101906020018083116200297857829003601f168201915b5050505050600d601181548110620023075762002307620040c5565b73__AddressLibrary________________________63f4ce9ae873__Library_______________________________63caa8f589600d600481548110620029fd57620029fd620040c5565b906000526020600020016040518263ffffffff1660e01b815260040162002a25919062003e3a565b60006040518083038186803b15801562002a3e57600080fd5b505af415801562002a53573d6000803e3d6000fd5b505050506040513d6000823e601f3d908101601f1916820160405262002a7d9190810190620038de565b60008151811062002a925762002a92620040c5565b60200260200101516040518263ffffffff1660e01b815260040162002ab991815260200190565b60206040518083038186803b15801562002ad257600080fd5b505af415801562002ae7573d6000803e3d6000fd5b505050506040513d601f19601f8201168201806040525081019062002b0d919062003731565b6001600160a01b03161562002cee57601160009054906101000a90046001600160a01b03166001600160a01b0316633659cfe673__AddressLibrary________________________63f4ce9ae873__Library_______________________________63caa8f589600d60048154811062002b8b5762002b8b620040c5565b906000526020600020016040518263ffffffff1660e01b815260040162002bb3919062003e3a565b60006040518083038186803b15801562002bcc57600080fd5b505af415801562002be1573d6000803e3d6000fd5b505050506040513d6000823e601f3d908101601f1916820160405262002c0b9190810190620038de565b60008151811062002c205762002c20620040c5565b60200260200101516040518263ffffffff1660e01b815260040162002c4791815260200190565b60206040518083038186803b15801562002c6057600080fd5b505af415801562002c75573d6000803e3d6000fd5b505050506040513d601f19601f8201168201806040525081019062002c9b919062003731565b6040518263ffffffff1660e01b815260040162002cb9919062003cdf565b600060405180830381600087803b15801562002cd457600080fd5b505af115801562002ce9573d6000803e3d6000fd5b505050505b73__AddressLibrary________________________63f4ce9ae873__Library_______________________________63caa8f589600d60068154811062002d395762002d39620040c5565b906000526020600020016040518263ffffffff1660e01b815260040162002d61919062003e3a565b60006040518083038186803b15801562002d7a57600080fd5b505af415801562002d8f573d6000803e3d6000fd5b505050506040513d6000823e601f3d908101601f1916820160405262002db99190810190620038de565b60008151811062002dce5762002dce620040c5565b60200260200101516040518263ffffffff1660e01b815260040162002df591815260200190565b60206040518083038186803b15801562002e0e57600080fd5b505af415801562002e23573d6000803e3d6000fd5b505050506040513d601f19601f8201168201806040525081019062002e49919062003731565b6001600160a01b0316156200302a57601360009054906101000a90046001600160a01b03166001600160a01b0316633659cfe673__AddressLibrary________________________63f4ce9ae873__Library_______________________________63caa8f589600d60068154811062002ec75762002ec7620040c5565b906000526020600020016040518263ffffffff1660e01b815260040162002eef919062003e3a565b60006040518083038186803b15801562002f0857600080fd5b505af415801562002f1d573d6000803e3d6000fd5b505050506040513d6000823e601f3d908101601f1916820160405262002f479190810190620038de565b60008151811062002f5c5762002f5c620040c5565b60200260200101516040518263ffffffff1660e01b815260040162002f8391815260200190565b60206040518083038186803b15801562002f9c57600080fd5b505af415801562002fb1573d6000803e3d6000fd5b505050506040513d601f19601f8201168201806040525081019062002fd7919062003731565b6040518263ffffffff1660e01b815260040162002ff5919062003cdf565b600060405180830381600087803b1580156200301057600080fd5b505af115801562003025573d6000803e3d6000fd5b505050505b600d601281548110620030415762003041620040c5565b906000526020600020018054620030589062004054565b159050620030eb57601054600d80546001600160a01b039092169163ce50ac76919060129081106200308e576200308e620040c5565b906000526020600020016040518263ffffffff1660e01b8152600401620030b6919062003e3a565b600060405180830381600087803b158015620030d157600080fd5b505af1158015620030e6573d6000803e3d6000fd5b505050505b600d601381548110620031025762003102620040c5565b906000526020600020018054620031199062004054565b159050620031ac57601054600d80546001600160a01b0390921691631dd5862c919060139081106200314f576200314f620040c5565b906000526020600020016040518263ffffffff1660e01b815260040162003177919062003e3a565b600060405180830381600087803b1580156200319257600080fd5b505af1158015620031a7573d6000803e3d6000fd5b505050505b6014547f10fa61e7dce22daa90a766d2f7d1a6a46735d88777552796dce5c4e8a736a79b90620031e5906001600160a01b031662000cbd565b601554620031fc906001600160a01b031662000cbd565b60165462003213906001600160a01b031662000cbd565b6010546200322a906001600160a01b031662000cbd565b62003234620017c7565b6012546200324b906001600160a01b031662000cbd565b6200325562000dff565b6017546200326c906001600160a01b031662000cbd565b60185462003283906001600160a01b031662000cbd565b6019546200329a906001600160a01b031662000cbd565b604080516001600160a01b039b8c168152998b1660208b0152978a16898901529589166060890152938816608088015291871660a0870152861660c0860152851660e085015284166101008401529092166101208201529051908190036101400190a1565b600073__AddressLibrary________________________63f4ce9ae873__Library_______________________________63caa8f589866040518263ffffffff1660e01b815260040162003354919062003e25565b60006040518083038186803b1580156200336d57600080fd5b505af415801562003382573d6000803e3d6000fd5b505050506040513d6000823e601f3d908101601f19168201604052620033ac9190810190620038de565b600081518110620033c157620033c1620040c5565b60200260200101516040518263ffffffff1660e01b8152600401620033e891815260200190565b60206040518083038186803b1580156200340157600080fd5b505af415801562003416573d6000803e3d6000fd5b505050506040513d601f19601f820116820180604052508101906200343c919062003731565b90506001600160a01b03811615620006b657815115620034c657600f54604051639623609d60e01b81526001600160a01b0390911690639623609d906200348c9087908590879060040162003e4f565b600060405180830381600087803b158015620034a757600080fd5b505af1158015620034bc573d6000803e3d6000fd5b50505050620006b6565b600f5460405163266a23b160e21b81526001600160a01b03909116906399a88ec490620034fa908790859060040162003cf3565b600060405180830381600087803b1580156200351557600080fd5b505af11580156200352a573d6000803e3d6000fd5b5050505050505050565b6107bd806200411783390190565b828054620035509062004054565b90600052602060002090601f016020900481019282620035745760008555620035bf565b82601f106200358f57805160ff1916838001178555620035bf565b82800160010185558215620035bf579182015b82811115620035bf578251825591602001919060010190620035a2565b50620035cd9291506200360d565b5090565b610f3080620048d483390190565b610523806200580483390190565b5080546000825590600052602060002090810190620008e7919062003624565b5b80821115620035cd57600081556001016200360e565b80821115620035cd5760006200363b828262003645565b5060010162003624565b508054620036539062004054565b6000825580601f1062003664575050565b601f016020900490600052602060002090810190620008e791906200360d565b600082601f8301126200369657600080fd5b81356001600160401b03811115620036b257620036b2620040db565b620036c7601f8201601f191660200162003f81565b818152846020838601011115620036dd57600080fd5b816020850160208301376000918101602001919091529392505050565b805160ff811681146200370c57600080fd5b919050565b6000602082840312156200372457600080fd5b813562001ed481620040f1565b6000602082840312156200374457600080fd5b815162001ed481620040f1565b600080600080608085870312156200376857600080fd5b84356200377581620040f1565b935060208501356200378781620040f1565b925060408501356001600160401b0380821115620037a457600080fd5b620037b28883890162003684565b93506060870135915080821115620037c957600080fd5b50620037d88782880162003684565b91505092959194509250565b600080600060608486031215620037fa57600080fd5b83356200380781620040f1565b925060208401356200381981620040f1565b929592945050506040919091013590565b600080604083850312156200383e57600080fd5b82356200384b81620040f1565b946020939093013593505050565b60008060008060008060c087890312156200387357600080fd5b86356200388081620040f1565b9550602087013594506040870135620038998162004107565b9350606087013592506080870135915060a08701356001600160401b03811115620038c357600080fd5b620038d189828a0162003684565b9150509295509295509295565b60006020808385031215620038f257600080fd5b82516001600160401b038111156200390957600080fd5b8301601f810185136200391b57600080fd5b8051620039326200392c8262003fb4565b62003f81565b80828252848201915084840188868560051b87010111156200395357600080fd5b600094505b838510156200397857805183526001949094019391850191850162003958565b50979650505050505050565b600060208083850312156200399857600080fd5b82356001600160401b0380821115620039b057600080fd5b818501915085601f830112620039c557600080fd5b8135620039d66200392c8262003fb4565b80828252858201915085850189878560051b8801011115620039f757600080fd5b6000805b8581101562003a375782358781111562003a13578283fd5b62003a238d8b838c010162003684565b8652509388019391880191600101620039fb565b50919a9950505050505050505050565b60006020828403121562003a5a57600080fd5b813562001ed48162004107565b60006020828403121562003a7a57600080fd5b815162001ed48162004107565b6000806040838503121562003a9b57600080fd5b82356001600160401b038082111562003ab357600080fd5b62003ac18683870162003684565b9350602085013591508082111562003ad857600080fd5b5062003ae78582860162003684565b9150509250929050565b60006020828403121562003b0457600080fd5b81356001600160401b0381111562003b1b57600080fd5b8201610280818503121562001ed457600080fd5b60006020828403121562003b4257600080fd5b5051919050565b6000806040838503121562003b5d57600080fd5b82359150602083013562003b7181620040f1565b809150509250929050565b60008060006060848603121562003b9257600080fd5b8351925062003ba460208501620036fa565b915062003bb460408501620036fa565b90509250925092565b81835281816020850137506000828201602090810191909152601f909101601f19169091010190565b6000815180845260005b8181101562003c0e5760208185018101518683018201520162003bf0565b8181111562003c21576000602083870101525b50601f01601f19169290920160200192915050565b8054600090600181811c908083168062003c5157607f831692505b602080841082141562003c7457634e487b7160e01b600052602260045260246000fd5b83885281801562003c8e576001811462003ca35762003cd3565b60ff1986168983015260408901965062003cd3565b876000528160002060005b8681101562003ccb5781548b820185015290850190830162003cae565b8a0183019750505b50505050505092915050565b6001600160a01b0391909116815260200190565b6001600160a01b0392831681529116602082015260400190565b6001600160a01b0385811682528416602082015260606040820181905260009062003d3c908301848662003bbd565b9695505050505050565b600061010060018060a01b038b16835289602084015288151560408401528760608401528660808401528060a084015262003d848184018762003be6565b905082810360c084015262003d9a818662003c36565b905082810360e084015262003db0818562003c36565b9b9a5050505050505050505050565b6000602080830181845280855180835260408601915060408160051b870101925083870160005b8281101562003e1857603f1988860301845262003e0585835162003be6565b9450928501929085019060010162003de6565b5092979650505050505050565b60208152600062001ed4602083018462003be6565b60208152600062001ed4602083018462003c36565b6001600160a01b0384811682528316602082015260606040820181905260009062003e7d9083018462003be6565b95945050505050565b60208152600062003e9c60208301848662003bbd565b949350505050565b60408152600062003eb9604083018562003be6565b828103602084015262003e7d818562003be6565b6020808252602e908201527f496e697469616c697a61626c653a20636f6e747261637420697320616c72656160408201526d191e481a5b9a5d1a585b1a5e995960921b606082015260800190565b9283526020830191909152604082015260600190565b6000808335601e1984360301811262003f4957600080fd5b8301803591506001600160401b0382111562003f6457600080fd5b60200191503681900382131562003f7a57600080fd5b9250929050565b604051601f8201601f191681016001600160401b038111828210171562003fac5762003fac620040db565b604052919050565b60006001600160401b0382111562003fd05762003fd0620040db565b5060051b60200190565b6000821982111562003ff05762003ff0620040af565b500190565b6000826200401357634e487b7160e01b600052601260045260246000fd5b500490565b6000816000190483118215151615620040355762004035620040af565b500290565b6000828210156200404f576200404f620040af565b500390565b600181811c908216806200406957607f821691505b602082108114156200408b57634e487b7160e01b600052602260045260246000fd5b50919050565b6000600019821415620040a857620040a8620040af565b5060010190565b634e487b7160e01b600052601160045260246000fd5b634e487b7160e01b600052603260045260246000fd5b634e487b7160e01b600052604160045260246000fd5b6001600160a01b0381168114620008e757600080fd5b8015158114620008e757600080fdfe608060405234801561001057600080fd5b5061001a3361001f565b61006f565b600080546001600160a01b038381166001600160a01b0319831681178455604051919092169283917f8be0079c531659141344cd1fd0a4f28419497f9722a3daafe3b4186f6b6457e09190a35050565b61073f8061007e6000396000f3fe60806040526004361061006b5760003560e01c8063204e1c7a14610070578063715018a6146100a65780637eff275e146100bd5780638da5cb5b146100dd5780639623609d146100f257806399a88ec414610105578063f2fde38b14610125578063f3b7dead14610145575b600080fd5b34801561007c57600080fd5b5061009061008b3660046104e1565b610165565b60405161009d9190610630565b60405180910390f35b3480156100b257600080fd5b506100bb6101f6565b005b3480156100c957600080fd5b506100bb6100d8366004610522565b61023a565b3480156100e957600080fd5b506100906102cb565b6100bb61010036600461055b565b6102da565b34801561011157600080fd5b506100bb610120366004610522565b610370565b34801561013157600080fd5b506100bb6101403660046104e1565b6103cb565b34801561015157600080fd5b506100906101603660046104e1565b61046b565b6000806000836001600160a01b031660405161018b90635c60da1b60e01b815260040190565b600060405180830381855afa9150503d80600081146101c6576040519150601f19603f3d011682016040523d82523d6000602084013e6101cb565b606091505b5091509150816101da57600080fd5b808060200190518101906101ee9190610505565b949350505050565b336101ff6102cb565b6001600160a01b03161461022e5760405162461bcd60e51b8152600401610225906106a9565b60405180910390fd5b6102386000610491565b565b336102436102cb565b6001600160a01b0316146102695760405162461bcd60e51b8152600401610225906106a9565b6040516308f2839760e41b81526001600160a01b03831690638f28397090610295908490600401610630565b600060405180830381600087803b1580156102af57600080fd5b505af11580156102c3573d6000803e3d6000fd5b505050505050565b6000546001600160a01b031690565b336102e36102cb565b6001600160a01b0316146103095760405162461bcd60e51b8152600401610225906106a9565b60405163278f794360e11b81526001600160a01b03841690634f1ef2869034906103399086908690600401610644565b6000604051808303818588803b15801561035257600080fd5b505af1158015610366573d6000803e3d6000fd5b5050505050505050565b336103796102cb565b6001600160a01b03161461039f5760405162461bcd60e51b8152600401610225906106a9565b604051631b2ce7f360e11b81526001600160a01b03831690633659cfe690610295908490600401610630565b336103d46102cb565b6001600160a01b0316146103fa5760405162461bcd60e51b8152600401610225906106a9565b6001600160a01b03811661045f5760405162461bcd60e51b815260206004820152602660248201527f4f776e61626c653a206e6577206f776e657220697320746865207a65726f206160448201526564647265737360d01b6064820152608401610225565b61046881610491565b50565b6000806000836001600160a01b031660405161018b906303e1469160e61b815260040190565b600080546001600160a01b038381166001600160a01b0319831681178455604051919092169283917f8be0079c531659141344cd1fd0a4f28419497f9722a3daafe3b4186f6b6457e09190a35050565b6000602082840312156104f357600080fd5b81356104fe816106f4565b9392505050565b60006020828403121561051757600080fd5b81516104fe816106f4565b6000806040838503121561053557600080fd5b8235610540816106f4565b91506020830135610550816106f4565b809150509250929050565b60008060006060848603121561057057600080fd5b833561057b816106f4565b9250602084013561058b816106f4565b915060408401356001600160401b03808211156105a757600080fd5b818601915086601f8301126105bb57600080fd5b8135818111156105cd576105cd6106de565b604051601f8201601f19908116603f011681019083821181831017156105f5576105f56106de565b8160405282815289602084870101111561060e57600080fd5b8260208601602083013760006020848301015280955050505050509250925092565b6001600160a01b0391909116815260200190565b60018060a01b038316815260006020604081840152835180604085015260005b8181101561068057858101830151858201606001528201610664565b81811115610692576000606083870101525b50601f01601f191692909201606001949350505050565b6020808252818101527f4f776e61626c653a2063616c6c6572206973206e6f7420746865206f776e6572604082015260600190565b634e487b7160e01b600052604160045260246000fd5b6001600160a01b038116811461046857600080fdfea26469706673582212207240b38990a52bc008f8ef6148c6f36363b8fbb55bee70cee697cb8e4d4c00ce64736f6c63430008070033608060405260405162000f3038038062000f308339810160408190526200002691620004c2565b82816200005560017f360894a13ba1a3210667c828492db98dca3e2076cc3735a920a3ca505d382bbd620005f5565b60008051602062000ee9833981519152146200007557620000756200064a565b6200008382826000620000e7565b50620000b3905060017fb53127684a568b3173ae13b9f8a6016e243e63b6e8ee1178d6a717850b5d6104620005f5565b60008051602062000ec983398151915214620000d357620000d36200064a565b620000de8262000124565b50505062000676565b620000f2836200017f565b600082511180620001005750805b156200011f576200011d8383620001c160201b620002601760201c565b505b505050565b7f7e644d79422f17c01e4894b5f4f588d331ebfa28653d42ae832dc59e38c9798f6200014f620001f0565b604080516001600160a01b03928316815291841660208301520160405180910390a16200017c8162000229565b50565b6200018a81620002de565b6040516001600160a01b038216907fbc7cd75a20ee27fd9adebab32041f755214dbc6bffa90cc0225b39da2e5c2d3b90600090a250565b6060620001e9838360405180606001604052806027815260200162000f096027913962000381565b9392505050565b60006200021a60008051602062000ec983398151915260001b6200045e60201b620002081760201c565b546001600160a01b0316919050565b6001600160a01b038116620002945760405162461bcd60e51b815260206004820152602660248201527f455243313936373a206e65772061646d696e20697320746865207a65726f206160448201526564647265737360d01b60648201526084015b60405180910390fd5b80620002bd60008051602062000ec983398151915260001b6200045e60201b620002081760201c565b80546001600160a01b0319166001600160a01b039290921691909117905550565b620002f4816200046160201b6200028c1760201c565b620003585760405162461bcd60e51b815260206004820152602d60248201527f455243313936373a206e657720696d706c656d656e746174696f6e206973206e60448201526c1bdd08184818dbdb9d1c9858dd609a1b60648201526084016200028b565b80620002bd60008051602062000ee983398151915260001b6200045e60201b620002081760201c565b6060833b620003e25760405162461bcd60e51b815260206004820152602660248201527f416464726573733a2064656c65676174652063616c6c20746f206e6f6e2d636f6044820152651b9d1c9858dd60d21b60648201526084016200028b565b600080856001600160a01b031685604051620003ff9190620005a2565b600060405180830381855af49150503d80600081146200043c576040519150601f19603f3d011682016040523d82523d6000602084013e62000441565b606091505b5090925090506200045482828662000467565b9695505050505050565b90565b3b151590565b6060831562000478575081620001e9565b825115620004895782518084602001fd5b8160405162461bcd60e51b81526004016200028b9190620005c0565b80516001600160a01b0381168114620004bd57600080fd5b919050565b600080600060608486031215620004d857600080fd5b620004e384620004a5565b9250620004f360208501620004a5565b60408501519092506001600160401b03808211156200051157600080fd5b818601915086601f8301126200052657600080fd5b8151818111156200053b576200053b62000660565b604051601f8201601f19908116603f0116810190838211818310171562000566576200056662000660565b816040528281528960208487010111156200058057600080fd5b620005938360208301602088016200061b565b80955050505050509250925092565b60008251620005b68184602087016200061b565b9190910192915050565b6020815260008251806020840152620005e18160408501602087016200061b565b601f01601f19169190910160400192915050565b6000828210156200061657634e487b7160e01b600052601160045260246000fd5b500390565b60005b83811015620006385781810151838201526020016200061e565b838111156200011d5750506000910152565b634e487b7160e01b600052600160045260246000fd5b634e487b7160e01b600052604160045260246000fd5b61084380620006866000396000f3fe60806040526004361061004e5760003560e01c80633659cfe6146100655780634f1ef286146100855780635c60da1b146100985780638f283970146100c9578063f851a440146100e95761005d565b3661005d5761005b6100fe565b005b61005b6100fe565b34801561007157600080fd5b5061005b61008036600461068e565b610118565b61005b6100933660046106a9565b61015f565b3480156100a457600080fd5b506100ad6101d0565b6040516001600160a01b03909116815260200160405180910390f35b3480156100d557600080fd5b5061005b6100e436600461068e565b61020b565b3480156100f557600080fd5b506100ad610235565b610106610292565b610116610111610331565b61033b565b565b61012061035f565b6001600160a01b0316336001600160a01b031614156101575761015481604051806020016040528060008152506000610380565b50565b6101546100fe565b61016761035f565b6001600160a01b0316336001600160a01b031614156101c8576101c38383838080601f01602080910402602001604051908101604052809392919081815260200183838082843760009201919091525060019250610380915050565b505050565b6101c36100fe565b60006101da61035f565b6001600160a01b0316336001600160a01b03161415610200576101fb610331565b905090565b6102086100fe565b90565b61021361035f565b6001600160a01b0316336001600160a01b0316141561015757610154816103ab565b600061023f61035f565b6001600160a01b0316336001600160a01b03161415610200576101fb61035f565b606061028583836040518060600160405280602781526020016107e7602791396103ff565b9392505050565b3b151590565b61029a61035f565b6001600160a01b0316336001600160a01b031614156101165760405162461bcd60e51b815260206004820152604260248201527f5472616e73706172656e745570677261646561626c6550726f78793a2061646d60448201527f696e2063616e6e6f742066616c6c6261636b20746f2070726f78792074617267606482015261195d60f21b608482015260a4015b60405180910390fd5b60006101fb6104d3565b3660008037600080366000845af43d6000803e80801561035a573d6000f35b3d6000fd5b60006000805160206107a78339815191525b546001600160a01b0316919050565b610389836104e9565b6000825111806103965750805b156101c3576103a58383610260565b50505050565b7f7e644d79422f17c01e4894b5f4f588d331ebfa28653d42ae832dc59e38c9798f6103d461035f565b604080516001600160a01b03928316815291841660208301520160405180910390a161015481610529565b6060833b61045e5760405162461bcd60e51b815260206004820152602660248201527f416464726573733a2064656c65676174652063616c6c20746f206e6f6e2d636f6044820152651b9d1c9858dd60d21b6064820152608401610328565b600080856001600160a01b031685604051610479919061072b565b600060405180830381855af49150503d80600081146104b4576040519150601f19603f3d011682016040523d82523d6000602084013e6104b9565b606091505b50915091506104c98282866105c0565b9695505050505050565b60006000805160206107c7833981519152610371565b6104f2816105f9565b6040516001600160a01b038216907fbc7cd75a20ee27fd9adebab32041f755214dbc6bffa90cc0225b39da2e5c2d3b90600090a250565b6001600160a01b03811661058e5760405162461bcd60e51b815260206004820152602660248201527f455243313936373a206e65772061646d696e20697320746865207a65726f206160448201526564647265737360d01b6064820152608401610328565b806000805160206107a78339815191525b80546001600160a01b0319166001600160a01b039290921691909117905550565b606083156105cf575081610285565b8251156105df5782518084602001fd5b8160405162461bcd60e51b81526004016103289190610747565b803b61065d5760405162461bcd60e51b815260206004820152602d60248201527f455243313936373a206e657720696d706c656d656e746174696f6e206973206e60448201526c1bdd08184818dbdb9d1c9858dd609a1b6064820152608401610328565b806000805160206107c783398151915261059f565b80356001600160a01b038116811461068957600080fd5b919050565b6000602082840312156106a057600080fd5b61028582610672565b6000806000604084860312156106be57600080fd5b6106c784610672565b925060208401356001600160401b03808211156106e357600080fd5b818601915086601f8301126106f757600080fd5b81358181111561070657600080fd5b87602082850101111561071857600080fd5b6020830194508093505050509250925092565b6000825161073d81846020870161077a565b9190910192915050565b602081526000825180602084015261076681604085016020870161077a565b601f01601f19169190910160400192915050565b60005b8381101561079557818101518382015260200161077d565b838111156103a5575050600091015256feb53127684a568b3173ae13b9f8a6016e243e63b6e8ee1178d6a717850b5d6103360894a13ba1a3210667c828492db98dca3e2076cc3735a920a3ca505d382bbc416464726573733a206c6f772d6c6576656c2064656c65676174652063616c6c206661696c6564a2646970667358221220bf234746908c6f46655f3e5bb4f0abadaeb249c68beba1c928f2af74deb56e2264736f6c63430008070033b53127684a568b3173ae13b9f8a6016e243e63b6e8ee1178d6a717850b5d6103360894a13ba1a3210667c828492db98dca3e2076cc3735a920a3ca505d382bbc416464726573733a206c6f772d6c6576656c2064656c65676174652063616c6c206661696c6564608060405234801561001057600080fd5b5060405161052338038061052383398101604081905261002f91610148565b61003833610047565b61004181610097565b50610178565b600080546001600160a01b038381166001600160a01b0319831681178455604051919092169283917f8be0079c531659141344cd1fd0a4f28419497f9722a3daafe3b4186f6b6457e09190a35050565b6100aa8161014260201b61021f1760201c565b6101205760405162461bcd60e51b815260206004820152603360248201527f5570677261646561626c65426561636f6e3a20696d706c656d656e746174696f60448201527f6e206973206e6f74206120636f6e747261637400000000000000000000000000606482015260840160405180910390fd5b600180546001600160a01b0319166001600160a01b0392909216919091179055565b3b151590565b60006020828403121561015a57600080fd5b81516001600160a01b038116811461017157600080fd5b9392505050565b61039c806101876000396000f3fe608060405234801561001057600080fd5b50600436106100575760003560e01c80633659cfe61461005c5780635c60da1b14610071578063715018a61461009a5780638da5cb5b146100a2578063f2fde38b146100aa575b600080fd5b61006f61006a366004610301565b6100bd565b005b6001546001600160a01b03165b6040516001600160a01b03909116815260200160405180910390f35b61006f610135565b61007e610170565b61006f6100b8366004610301565b61017f565b336100c6610170565b6001600160a01b0316146100f55760405162461bcd60e51b81526004016100ec90610331565b60405180910390fd5b6100fe81610225565b6040516001600160a01b038216907fbc7cd75a20ee27fd9adebab32041f755214dbc6bffa90cc0225b39da2e5c2d3b90600090a250565b3361013e610170565b6001600160a01b0316146101645760405162461bcd60e51b81526004016100ec90610331565b61016e60006102b1565b565b6000546001600160a01b031690565b33610188610170565b6001600160a01b0316146101ae5760405162461bcd60e51b81526004016100ec90610331565b6001600160a01b0381166102135760405162461bcd60e51b815260206004820152602660248201527f4f776e61626c653a206e6577206f776e657220697320746865207a65726f206160448201526564647265737360d01b60648201526084016100ec565b61021c816102b1565b50565b3b151590565b803b61028f5760405162461bcd60e51b815260206004820152603360248201527f5570677261646561626c65426561636f6e3a20696d706c656d656e746174696f6044820152721b881a5cc81b9bdd08184818dbdb9d1c9858dd606a1b60648201526084016100ec565b600180546001600160a01b0319166001600160a01b0392909216919091179055565b600080546001600160a01b038381166001600160a01b0319831681178455604051919092169283917f8be0079c531659141344cd1fd0a4f28419497f9722a3daafe3b4186f6b6457e09190a35050565b60006020828403121561031357600080fd5b81356001600160a01b038116811461032a57600080fd5b9392505050565b6020808252818101527f4f776e61626c653a2063616c6c6572206973206e6f7420746865206f776e657260408201526060019056fea2646970667358221220b1e86d9e5a9827481ff081a46fc0ff448af58190927b3eac96f691d6bcdce0a964736f6c63430008070033a26469706673582212207ba65bf33c9416664df059b486538ad6cdb42d203cfde4e273a9a1f3f22a8ec064736f6c63430008070033",
  "immutableReferences": {},
  "source": "// SPDX-License-Identifier: GPL-3.0\r\n\r\npragma solidity 0.8.7;\r\n\r\n/**\r\n * @title Storage\r\n * @dev Store & retrieve value in a variable\r\n */\r\n\r\nimport \"../Interfaces/IManager.sol\";\r\nimport \"../Interfaces/IFactory.sol\";\r\nimport \"../Base/StdPropositionBaseContract.sol\";\r\nimport \"../Libraries/AddressLibrary.sol\";\r\nimport \"../Libraries/Library.sol\";\r\nimport \"@openzeppelin/contracts-upgradeable/proxy/utils/Initializable.sol\";\r\nimport \"@openzeppelin/contracts/proxy/beacon/UpgradeableBeacon.sol\";\r\nimport \"@openzeppelin/contracts/proxy/transparent/TransparentUpgradeableProxy.sol\";\r\nimport \"@openzeppelin/contracts/proxy/transparent/ProxyAdmin.sol\";\r\n\r\n\r\ncontract CertificatesPoolManager is IManager, StdPropositionBaseContract{\r\n    using AddressLibrary for *;\r\n    using Library for *;\r\n\r\n    // EVENTS /////////////////////////////////////////\r\n    event _NewContracts(address Public, address Treasury, address Certis, address PrivateFactory, \r\n    address Private, address ProviderFactory, address Provider, address PriceConverter, \r\n    address PropositionSettings, address ENS);\r\n\r\n    // DATA /////////////////////////////////////////\r\n    address private _ManagerOwner;\r\n\r\n    // Admin Proxy to manage all the TransparentUpgradeableProxies\r\n    ProxyAdmin private _Admin;\r\n\r\n    // Private Certificate Pools Factory\r\n    TransparentUpgradeableProxy private _PrivatePoolFactory;\r\n\r\n    // Private Certificates Pool\r\n    UpgradeableBeacon private _PrivateCertificatePoolBeacon;\r\n\r\n    // Provider Factory\r\n    TransparentUpgradeableProxy private _ProviderFactory;\r\n\r\n    // Provider\r\n    UpgradeableBeacon private _ProviderBeacon;\r\n\r\n    // Public Certificates Pool\r\n    TransparentUpgradeableProxy private _PublicCertificatesPool;\r\n\r\n    // Treasury\r\n    TransparentUpgradeableProxy private _Treasury;\r\n\r\n    // Certis Token\r\n    TransparentUpgradeableProxy private _CertisToken;\r\n\r\n    // Price Converter\r\n    TransparentUpgradeableProxy private _PriceConverter;\r\n\r\n    // Proposition Settings\r\n    TransparentUpgradeableProxy private _PropositionSettings;\r\n\r\n    // ENS\r\n    TransparentUpgradeableProxy private _ENS;\r\n\r\n    // init\r\n    bool private _init;\r\n\r\n    // MODIFIERS /////////////////////////////////////////\r\n    modifier isOwner(address addr){\r\n        Library.ItIsSomeone(addr, _ManagerOwner);\r\n        _;\r\n    }\r\n\r\n    modifier isNotInitialized(){\r\n        require(false == _init, \"EC26-\");\r\n        _;\r\n    }\r\n\r\n    // INITIALIZATION /////////////////////////////////////////\r\n    function CertificatesPoolManager_init(string memory contractName, string memory contractVersion) public initializer\r\n    {\r\n        super.StdPropositionBaseContract_init(msg.sender, address(this), contractName, contractVersion);\r\n        _Admin = new ProxyAdmin();\r\n    }\r\n\r\n    function InitializeContracts(Library.ProposedContractsStruct calldata initialContracts) \r\n        isFromChairPerson(msg.sender)\r\n        isNotInitialized()\r\n    external override\r\n    {\r\n        initProxies(initialContracts);\r\n        _init = true;\r\n    }\r\n\r\n    // FUNCTIONALITY /////////////////////////////////////////\r\n    // governance : contracts assignment and management\r\n    function initProxies(Library.ProposedContractsStruct calldata initialContracts) private\r\n    {\r\n        _PublicCertificatesPool = new TransparentUpgradeableProxy(initialContracts.NewPublicPoolAddress, address(_Admin), initialContracts.NewPublicPoolData);\r\n        _Treasury = new TransparentUpgradeableProxy(initialContracts.NewTreasuryAddress, address(_Admin), initialContracts.NewTreasuryData);\r\n        _CertisToken = new TransparentUpgradeableProxy(initialContracts.NewCertisTokenAddress, address(_Admin), initialContracts.NewCertisTokenData);\r\n        _PrivatePoolFactory = new TransparentUpgradeableProxy(initialContracts.NewPrivatePoolFactoryAddress, address(_Admin), initialContracts.NewPrivatePoolFactoryData);\r\n        _PrivateCertificatePoolBeacon = new UpgradeableBeacon(initialContracts.NewPrivatePoolAddress);\r\n        _ProviderFactory = new TransparentUpgradeableProxy(initialContracts.NewProviderFactoryAddress, address(_Admin), initialContracts.NewProviderFactoryData);\r\n        _ProviderBeacon = new UpgradeableBeacon(initialContracts.NewProviderAddress);\r\n        _PriceConverter = new TransparentUpgradeableProxy(initialContracts.NewPriceConverterAddress, address(_Admin), initialContracts.NewPriceConverterData);\r\n        _PropositionSettings = new TransparentUpgradeableProxy(initialContracts.NewPropositionSettingsAddress, address(_Admin), initialContracts.NewPropositionSettingsData);\r\n        _ENS = new TransparentUpgradeableProxy(initialContracts.NewENSAddress, address(_Admin), initialContracts.NewENSData);\r\n\r\n        IFactory(address(_PrivatePoolFactory)).updateContractName(initialContracts.NewPrivatePoolContractName);\r\n        IFactory(address(_PrivatePoolFactory)).updateContractVersion(initialContracts.NewPrivatePoolContractVersion);\r\n    }\r\n\r\n    function UpdateAll() internal override\r\n    {\r\n        upgradeContractImplementation(_PublicCertificatesPool, _ProposedNewValues[0], _ProposedNewValues[10]);\r\n        upgradeContractImplementation(_Treasury, _ProposedNewValues[1], _ProposedNewValues[11]);\r\n        upgradeContractImplementation(_CertisToken, _ProposedNewValues[2], _ProposedNewValues[12]);\r\n        upgradeContractImplementation(_PrivatePoolFactory, _ProposedNewValues[3], _ProposedNewValues[13]);\r\n        upgradeContractImplementation(_ProviderFactory, _ProposedNewValues[5],_ProposedNewValues[14]);\r\n        upgradeContractImplementation(_PriceConverter, _ProposedNewValues[7], _ProposedNewValues[15]);\r\n        upgradeContractImplementation(_PropositionSettings, _ProposedNewValues[8], _ProposedNewValues[16]);\r\n        upgradeContractImplementation(_ENS, _ProposedNewValues[9],_ProposedNewValues[17]);\r\n\r\n        if(address(0) != AddressLibrary.Bytes32ToAddress(Library.BytestoBytes32(_ProposedNewValues[4])[0]))_PrivateCertificatePoolBeacon.upgradeTo(AddressLibrary.Bytes32ToAddress(Library.BytestoBytes32(_ProposedNewValues[4])[0]));\r\n        if(address(0) != AddressLibrary.Bytes32ToAddress(Library.BytestoBytes32(_ProposedNewValues[6])[0]))_ProviderBeacon.upgradeTo(AddressLibrary.Bytes32ToAddress(Library.BytestoBytes32(_ProposedNewValues[6])[0]));\r\n\r\n        if(0 < _ProposedNewValues[18].length)\r\n            IFactory(address(_PrivatePoolFactory)).updateContractName(string(_ProposedNewValues[18]));\r\n\r\n        if(0 < _ProposedNewValues[19].length)\r\n            IFactory(address(_PrivatePoolFactory)).updateContractVersion(string(_ProposedNewValues[19]));\r\n        \r\n        emit _NewContracts(internalRetrieveImpl(_PublicCertificatesPool), internalRetrieveImpl(_Treasury), \r\n        internalRetrieveImpl(_CertisToken), internalRetrieveImpl(_PrivatePoolFactory), \r\n        internalRetrievePrivatePool(), internalRetrieveImpl(_ProviderFactory), internalRetrieveProvider(),\r\n        internalRetrieveImpl(_PriceConverter), internalRetrieveImpl(_PropositionSettings), internalRetrieveImpl(_ENS));\r\n    }\r\n\r\n    function upgradeContractImplementation(TransparentUpgradeableProxy proxy, bytes memory NewImpl, bytes memory Data) private\r\n    {\r\n        address NewImplAddress = AddressLibrary.Bytes32ToAddress(Library.BytestoBytes32(NewImpl)[0]);\r\n        if(address(0) != NewImplAddress){\r\n            if(0 < Data.length)_Admin.upgradeAndCall(proxy, NewImplAddress, Data);\r\n            else _Admin.upgrade(proxy, NewImplAddress);\r\n        }\r\n    }\r\n\r\n\r\n    // configuration Proxies\r\n    function retrievePublicCertificatePoolProxy() external override view returns (address) {\r\n        return (address(_PublicCertificatesPool));\r\n    }\r\n\r\n    function retrieveTreasuryProxy() external override view returns (address) {\r\n        return (address(_Treasury));\r\n    }\r\n\r\n    function retrieveCertisTokenProxy() external override view returns (address) {\r\n        return (address(_CertisToken));\r\n    }\r\n\r\n    function retrievePrivatePoolFactoryProxy() external override view returns (address) {\r\n        return (address(_PrivatePoolFactory));\r\n    }\r\n\r\n    function retrievePrivatePoolBeacon() external override view returns (address) {\r\n        return (address(_PrivateCertificatePoolBeacon));\r\n    }\r\n\r\n    function retrieveProviderFactoryProxy() external override view returns (address) {\r\n        return (address(_ProviderFactory));\r\n    }\r\n\r\n    function retrieveProviderBeacon() external override view returns (address) {\r\n        return (address(_ProviderBeacon));\r\n    }\r\n\r\n    function retrievePriceConverterProxy() external override view returns (address) {\r\n        return (address(_PriceConverter));\r\n    }\r\n\r\n    function retrievePropositionSettingsProxy() external override view returns (address) {\r\n        return (address(_PropositionSettings));\r\n    }\r\n\r\n    function retrieveENSProxy() external override view returns (address) {\r\n        return (address(_ENS));\r\n    }\r\n\r\n    // configuration implementations\r\n    function retrievePublicCertificatePool() external override view returns (address) {\r\n        return internalRetrieveImpl(_PublicCertificatesPool);\r\n    }\r\n\r\n    function retrieveTreasury() external override view returns (address) {\r\n        return internalRetrieveImpl(_Treasury);\r\n    }\r\n\r\n    function retrieveCertisToken() external override view returns (address) {\r\n        return internalRetrieveImpl(_CertisToken);\r\n    }\r\n\r\n    function retrievePrivatePoolFactory() external override view returns (address) {\r\n        return internalRetrieveImpl(_PrivatePoolFactory);\r\n    }\r\n\r\n    function retrievePrivatePool() external override view returns (address) {\r\n        return internalRetrievePrivatePool();\r\n    }\r\n\r\n    function retrieveProviderFactory() external override view returns (address) {\r\n        return internalRetrieveImpl(_ProviderFactory);\r\n    }\r\n\r\n    function retrieveProvider() external override view returns (address) {\r\n        return internalRetrieveProvider();\r\n    }\r\n\r\n    function retrievePriceConverter() external override view returns (address) {\r\n        return internalRetrieveImpl(_PriceConverter);\r\n    }\r\n\r\n    function retrievePropositionSettings() external override view returns (address) {\r\n        return internalRetrieveImpl(_PropositionSettings);\r\n    }\r\n\r\n    function retrieveENS() external override view returns (address) {\r\n        return internalRetrieveImpl(_ENS);\r\n    }\r\n\r\n    // internal\r\n    function internalRetrieveImpl(TransparentUpgradeableProxy proxy) internal view returns (address){\r\n        return _Admin.getProxyImplementation(proxy);\r\n    }\r\n\r\n    function internalRetrievePrivatePool() internal view returns (address) {\r\n        return _PrivateCertificatePoolBeacon.implementation();\r\n    }\r\n\r\n    function internalRetrieveProvider() internal view returns (address) {\r\n        return _ProviderBeacon.implementation();\r\n    }\r\n  \r\n}",
  "sourcePath": "C:/Users/d-aam/GitHub/Certificates/contracts/DeployedContracts/CertificatesPoolManager.sol",
  "compiler": {
    "name": "solc",
    "version": "0.8.7+commit.e28d00a7.Emscripten.clang"
  },
  "schemaVersion": "3.3.4",
  "updatedAt": "2021-11-03T08:34:42.175Z",
  "networkType": "ethereum",
  "devdoc": {
    "kind": "dev",
    "methods": {},
    "version": 1
  },
  "userdoc": {
    "kind": "user",
    "methods": {},
    "version": 1
  }
}