{
  "contractName": "CertificatesPoolManager",
  "abi": [
    {
      "inputs": [
        {
          "internalType": "uint256",
          "name": "PropositionLifeTime",
          "type": "uint256"
        },
        {
          "internalType": "uint8",
          "name": "PropositionThresholdPercentage",
          "type": "uint8"
        },
        {
          "internalType": "uint8",
          "name": "minWeightToProposePercentage",
          "type": "uint8"
        },
        {
          "internalType": "string",
          "name": "contractName",
          "type": "string"
        },
        {
          "internalType": "string",
          "name": "contractVersion",
          "type": "string"
        }
      ],
      "stateMutability": "nonpayable",
      "type": "constructor"
    },
    {
      "anonymous": false,
      "inputs": [
        {
          "indexed": false,
          "internalType": "uint256",
          "name": "Id",
          "type": "uint256"
        },
        {
          "indexed": true,
          "internalType": "address",
          "name": "Proposer",
          "type": "address"
        },
        {
          "indexed": false,
          "internalType": "uint256",
          "name": "Deadline",
          "type": "uint256"
        },
        {
          "indexed": false,
          "internalType": "uint256",
          "name": "Threshold",
          "type": "uint256"
        }
      ],
      "name": "_AddedProposition",
      "type": "event"
    },
    {
      "anonymous": false,
      "inputs": [
        {
          "indexed": false,
          "internalType": "uint256",
          "name": "Id",
          "type": "uint256"
        },
        {
          "indexed": true,
          "internalType": "address",
          "name": "Proposer",
          "type": "address"
        }
      ],
      "name": "_CancelledProposition",
      "type": "event"
    },
    {
      "anonymous": false,
      "inputs": [
        {
          "indexed": false,
          "internalType": "address",
          "name": "Public",
          "type": "address"
        },
        {
          "indexed": false,
          "internalType": "address",
          "name": "Treasury",
          "type": "address"
        },
        {
          "indexed": false,
          "internalType": "address",
          "name": "Certis",
          "type": "address"
        },
        {
          "indexed": false,
          "internalType": "address",
          "name": "PrivateFactory",
          "type": "address"
        },
        {
          "indexed": false,
          "internalType": "address",
          "name": "Private",
          "type": "address"
        },
        {
          "indexed": false,
          "internalType": "address",
          "name": "ProviderFactory",
          "type": "address"
        },
        {
          "indexed": false,
          "internalType": "address",
          "name": "Provider",
          "type": "address"
        },
        {
          "indexed": false,
          "internalType": "address",
          "name": "PriceConverter",
          "type": "address"
        }
      ],
      "name": "_NewContracts",
      "type": "event"
    },
    {
      "anonymous": false,
      "inputs": [
        {
          "indexed": false,
          "internalType": "uint256",
          "name": "Id",
          "type": "uint256"
        },
        {
          "indexed": true,
          "internalType": "address",
          "name": "Proposer",
          "type": "address"
        },
        {
          "indexed": false,
          "internalType": "uint256",
          "name": "VotesFor",
          "type": "uint256"
        },
        {
          "indexed": false,
          "internalType": "uint256",
          "name": "VotesAgainst",
          "type": "uint256"
        }
      ],
      "name": "_PropositionApproved",
      "type": "event"
    },
    {
      "anonymous": false,
      "inputs": [
        {
          "indexed": false,
          "internalType": "uint256",
          "name": "Id",
          "type": "uint256"
        },
        {
          "indexed": true,
          "internalType": "address",
          "name": "Proposer",
          "type": "address"
        },
        {
          "indexed": false,
          "internalType": "uint256",
          "name": "VotesFor",
          "type": "uint256"
        },
        {
          "indexed": false,
          "internalType": "uint256",
          "name": "VotesAgainst",
          "type": "uint256"
        }
      ],
      "name": "_PropositionRejected",
      "type": "event"
    },
    {
      "anonymous": false,
      "inputs": [
        {
          "indexed": false,
          "internalType": "uint256",
          "name": "Id",
          "type": "uint256"
        },
        {
          "indexed": true,
          "internalType": "address",
          "name": "Voter",
          "type": "address"
        },
        {
          "indexed": false,
          "internalType": "bool",
          "name": "Vote",
          "type": "bool"
        },
        {
          "indexed": false,
          "internalType": "uint256",
          "name": "AmountTokens",
          "type": "uint256"
        }
      ],
      "name": "_PropositionVote",
      "type": "event"
    },
    {
      "anonymous": false,
      "inputs": [
        {
          "indexed": true,
          "internalType": "uint256",
          "name": "Id",
          "type": "uint256"
        },
        {
          "indexed": false,
          "internalType": "address",
          "name": "From",
          "type": "address"
        },
        {
          "indexed": false,
          "internalType": "address",
          "name": "To",
          "type": "address"
        },
        {
          "indexed": false,
          "internalType": "uint256",
          "name": "Amount",
          "type": "uint256"
        }
      ],
      "name": "_UsedTokensTransfered",
      "type": "event"
    },
    {
      "inputs": [],
      "name": "cancelProposition",
      "outputs": [],
      "stateMutability": "nonpayable",
      "type": "function"
    },
    {
      "inputs": [],
      "name": "isCurrentPropositionProp",
      "outputs": [
        {
          "internalType": "bool",
          "name": "",
          "type": "bool"
        }
      ],
      "stateMutability": "view",
      "type": "function",
      "constant": true
    },
    {
      "inputs": [
        {
          "internalType": "address",
          "name": "from",
          "type": "address"
        },
        {
          "internalType": "address",
          "name": "to",
          "type": "address"
        },
        {
          "internalType": "uint256",
          "name": "amount",
          "type": "uint256"
        }
      ],
      "name": "onTokenBalanceChanged",
      "outputs": [],
      "stateMutability": "nonpayable",
      "type": "function"
    },
    {
      "inputs": [],
      "name": "retrieveChairPerson",
      "outputs": [
        {
          "internalType": "address",
          "name": "",
          "type": "address"
        }
      ],
      "stateMutability": "view",
      "type": "function",
      "constant": true
    },
    {
      "inputs": [],
      "name": "retrieveContractConfig",
      "outputs": [
        {
          "internalType": "string",
          "name": "",
          "type": "string"
        },
        {
          "internalType": "string",
          "name": "",
          "type": "string"
        }
      ],
      "stateMutability": "view",
      "type": "function",
      "constant": true
    },
    {
      "inputs": [],
      "name": "retrieveManagerContract",
      "outputs": [
        {
          "internalType": "address",
          "name": "",
          "type": "address"
        }
      ],
      "stateMutability": "view",
      "type": "function",
      "constant": true
    },
    {
      "inputs": [],
      "name": "retrieveNextPropId",
      "outputs": [
        {
          "internalType": "uint256",
          "name": "",
          "type": "uint256"
        }
      ],
      "stateMutability": "view",
      "type": "function",
      "constant": true
    },
    {
      "inputs": [
        {
          "internalType": "address",
          "name": "addr",
          "type": "address"
        },
        {
          "internalType": "uint256",
          "name": "nonce",
          "type": "uint256"
        }
      ],
      "name": "retrieveNonce",
      "outputs": [
        {
          "internalType": "bool",
          "name": "",
          "type": "bool"
        }
      ],
      "stateMutability": "view",
      "type": "function",
      "constant": true
    },
    {
      "inputs": [],
      "name": "retrievePendingPropConfig",
      "outputs": [
        {
          "internalType": "uint256",
          "name": "",
          "type": "uint256"
        },
        {
          "internalType": "uint8",
          "name": "",
          "type": "uint8"
        },
        {
          "internalType": "uint8",
          "name": "",
          "type": "uint8"
        },
        {
          "internalType": "bool",
          "name": "",
          "type": "bool"
        }
      ],
      "stateMutability": "view",
      "type": "function",
      "constant": true
    },
    {
      "inputs": [],
      "name": "retrievePropConfig",
      "outputs": [
        {
          "internalType": "uint256",
          "name": "",
          "type": "uint256"
        },
        {
          "internalType": "uint8",
          "name": "",
          "type": "uint8"
        },
        {
          "internalType": "uint8",
          "name": "",
          "type": "uint8"
        }
      ],
      "stateMutability": "view",
      "type": "function",
      "constant": true
    },
    {
      "inputs": [],
      "name": "retrievePropositionStatus",
      "outputs": [
        {
          "internalType": "address",
          "name": "",
          "type": "address"
        },
        {
          "internalType": "uint256",
          "name": "",
          "type": "uint256"
        },
        {
          "internalType": "uint256",
          "name": "",
          "type": "uint256"
        },
        {
          "internalType": "uint256",
          "name": "",
          "type": "uint256"
        },
        {
          "internalType": "uint256",
          "name": "",
          "type": "uint256"
        }
      ],
      "stateMutability": "view",
      "type": "function",
      "constant": true
    },
    {
      "inputs": [
        {
          "internalType": "uint256",
          "name": "PropId",
          "type": "uint256"
        },
        {
          "internalType": "address",
          "name": "voter",
          "type": "address"
        }
      ],
      "name": "retrieveVotesForVoter",
      "outputs": [
        {
          "internalType": "uint256",
          "name": "",
          "type": "uint256"
        }
      ],
      "stateMutability": "view",
      "type": "function",
      "constant": true
    },
    {
      "inputs": [
        {
          "internalType": "uint256",
          "name": "PropLifeTime",
          "type": "uint256"
        },
        {
          "internalType": "uint8",
          "name": "PropThresholdPerc",
          "type": "uint8"
        },
        {
          "internalType": "uint8",
          "name": "minWeightToPropPerc",
          "type": "uint8"
        }
      ],
      "name": "updateProp",
      "outputs": [],
      "stateMutability": "nonpayable",
      "type": "function"
    },
    {
      "inputs": [
        {
          "internalType": "bool",
          "name": "vote",
          "type": "bool"
        }
      ],
      "name": "voteProposition",
      "outputs": [],
      "stateMutability": "nonpayable",
      "type": "function"
    },
    {
      "inputs": [
        {
          "internalType": "address",
          "name": "voter",
          "type": "address"
        },
        {
          "internalType": "uint256",
          "name": "propID",
          "type": "uint256"
        },
        {
          "internalType": "bool",
          "name": "vote",
          "type": "bool"
        },
        {
          "internalType": "uint256",
          "name": "nonce",
          "type": "uint256"
        },
        {
          "internalType": "uint256",
          "name": "deadline",
          "type": "uint256"
        },
        {
          "internalType": "bytes",
          "name": "signature",
          "type": "bytes"
        }
      ],
      "name": "votePropositionOnBehalfOf",
      "outputs": [],
      "stateMutability": "nonpayable",
      "type": "function"
    },
    {
      "inputs": [
        {
          "components": [
            {
              "internalType": "address",
              "name": "NewPublicPoolAddress",
              "type": "address"
            },
            {
              "internalType": "address",
              "name": "NewTreasuryAddress",
              "type": "address"
            },
            {
              "internalType": "address",
              "name": "NewCertisTokenAddress",
              "type": "address"
            },
            {
              "internalType": "address",
              "name": "NewPrivatePoolFactoryAddress",
              "type": "address"
            },
            {
              "internalType": "address",
              "name": "NewPrivatePoolAddress",
              "type": "address"
            },
            {
              "internalType": "address",
              "name": "NewProviderFactoryAddress",
              "type": "address"
            },
            {
              "internalType": "address",
              "name": "NewProviderAddress",
              "type": "address"
            },
            {
              "internalType": "address",
              "name": "NewPriceConverterAddress",
              "type": "address"
            },
            {
              "internalType": "bytes",
              "name": "NewPublicPoolData",
              "type": "bytes"
            },
            {
              "internalType": "bytes",
              "name": "NewTreasuryData",
              "type": "bytes"
            },
            {
              "internalType": "bytes",
              "name": "NewCertisTokenData",
              "type": "bytes"
            },
            {
              "internalType": "bytes",
              "name": "NewPrivatePoolFactoryData",
              "type": "bytes"
            },
            {
              "internalType": "bytes",
              "name": "NewProviderFactoryData",
              "type": "bytes"
            },
            {
              "internalType": "bytes",
              "name": "NewPriceConverterData",
              "type": "bytes"
            },
            {
              "internalType": "string",
              "name": "NewPrivatePoolContractName",
              "type": "string"
            },
            {
              "internalType": "string",
              "name": "NewPrivatePoolContractVersion",
              "type": "string"
            }
          ],
          "internalType": "struct Library.ProposedContractsStruct",
          "name": "initialContracts",
          "type": "tuple"
        }
      ],
      "name": "InitializeContracts",
      "outputs": [],
      "stateMutability": "nonpayable",
      "type": "function"
    },
    {
      "inputs": [
        {
          "components": [
            {
              "internalType": "address",
              "name": "NewPublicPoolAddress",
              "type": "address"
            },
            {
              "internalType": "address",
              "name": "NewTreasuryAddress",
              "type": "address"
            },
            {
              "internalType": "address",
              "name": "NewCertisTokenAddress",
              "type": "address"
            },
            {
              "internalType": "address",
              "name": "NewPrivatePoolFactoryAddress",
              "type": "address"
            },
            {
              "internalType": "address",
              "name": "NewPrivatePoolAddress",
              "type": "address"
            },
            {
              "internalType": "address",
              "name": "NewProviderFactoryAddress",
              "type": "address"
            },
            {
              "internalType": "address",
              "name": "NewProviderAddress",
              "type": "address"
            },
            {
              "internalType": "address",
              "name": "NewPriceConverterAddress",
              "type": "address"
            },
            {
              "internalType": "bytes",
              "name": "NewPublicPoolData",
              "type": "bytes"
            },
            {
              "internalType": "bytes",
              "name": "NewTreasuryData",
              "type": "bytes"
            },
            {
              "internalType": "bytes",
              "name": "NewCertisTokenData",
              "type": "bytes"
            },
            {
              "internalType": "bytes",
              "name": "NewPrivatePoolFactoryData",
              "type": "bytes"
            },
            {
              "internalType": "bytes",
              "name": "NewProviderFactoryData",
              "type": "bytes"
            },
            {
              "internalType": "bytes",
              "name": "NewPriceConverterData",
              "type": "bytes"
            },
            {
              "internalType": "string",
              "name": "NewPrivatePoolContractName",
              "type": "string"
            },
            {
              "internalType": "string",
              "name": "NewPrivatePoolContractVersion",
              "type": "string"
            }
          ],
          "internalType": "struct Library.ProposedContractsStruct",
          "name": "UpgradeProposition",
          "type": "tuple"
        }
      ],
      "name": "upgradeContracts",
      "outputs": [],
      "stateMutability": "nonpayable",
      "type": "function"
    },
    {
      "inputs": [],
      "name": "retrieveProposition",
      "outputs": [
        {
          "internalType": "bytes32[]",
          "name": "",
          "type": "bytes32[]"
        }
      ],
      "stateMutability": "view",
      "type": "function",
      "constant": true
    },
    {
      "inputs": [],
      "name": "retrievePublicCertificatePoolProxy",
      "outputs": [
        {
          "internalType": "address",
          "name": "",
          "type": "address"
        }
      ],
      "stateMutability": "view",
      "type": "function",
      "constant": true
    },
    {
      "inputs": [],
      "name": "retrieveTreasuryProxy",
      "outputs": [
        {
          "internalType": "address",
          "name": "",
          "type": "address"
        }
      ],
      "stateMutability": "view",
      "type": "function",
      "constant": true
    },
    {
      "inputs": [],
      "name": "retrieveCertisTokenProxy",
      "outputs": [
        {
          "internalType": "address",
          "name": "",
          "type": "address"
        }
      ],
      "stateMutability": "view",
      "type": "function",
      "constant": true
    },
    {
      "inputs": [],
      "name": "retrievePrivatePoolFactoryProxy",
      "outputs": [
        {
          "internalType": "address",
          "name": "",
          "type": "address"
        }
      ],
      "stateMutability": "view",
      "type": "function",
      "constant": true
    },
    {
      "inputs": [],
      "name": "retrievePrivatePoolBeacon",
      "outputs": [
        {
          "internalType": "address",
          "name": "",
          "type": "address"
        }
      ],
      "stateMutability": "view",
      "type": "function",
      "constant": true
    },
    {
      "inputs": [],
      "name": "retrieveProviderFactoryProxy",
      "outputs": [
        {
          "internalType": "address",
          "name": "",
          "type": "address"
        }
      ],
      "stateMutability": "view",
      "type": "function",
      "constant": true
    },
    {
      "inputs": [],
      "name": "retrieveProviderBeacon",
      "outputs": [
        {
          "internalType": "address",
          "name": "",
          "type": "address"
        }
      ],
      "stateMutability": "view",
      "type": "function",
      "constant": true
    },
    {
      "inputs": [],
      "name": "retrievePriceConverterProxy",
      "outputs": [
        {
          "internalType": "address",
          "name": "",
          "type": "address"
        }
      ],
      "stateMutability": "view",
      "type": "function",
      "constant": true
    },
    {
      "inputs": [],
      "name": "retrievePublicCertificatePool",
      "outputs": [
        {
          "internalType": "address",
          "name": "",
          "type": "address"
        }
      ],
      "stateMutability": "view",
      "type": "function",
      "constant": true
    },
    {
      "inputs": [],
      "name": "retrieveTreasury",
      "outputs": [
        {
          "internalType": "address",
          "name": "",
          "type": "address"
        }
      ],
      "stateMutability": "view",
      "type": "function",
      "constant": true
    },
    {
      "inputs": [],
      "name": "retrieveCertisToken",
      "outputs": [
        {
          "internalType": "address",
          "name": "",
          "type": "address"
        }
      ],
      "stateMutability": "view",
      "type": "function",
      "constant": true
    },
    {
      "inputs": [],
      "name": "retrievePrivatePoolFactory",
      "outputs": [
        {
          "internalType": "address",
          "name": "",
          "type": "address"
        }
      ],
      "stateMutability": "view",
      "type": "function",
      "constant": true
    },
    {
      "inputs": [],
      "name": "retrievePrivatePool",
      "outputs": [
        {
          "internalType": "address",
          "name": "",
          "type": "address"
        }
      ],
      "stateMutability": "view",
      "type": "function",
      "constant": true
    },
    {
      "inputs": [],
      "name": "retrieveProviderFactory",
      "outputs": [
        {
          "internalType": "address",
          "name": "",
          "type": "address"
        }
      ],
      "stateMutability": "view",
      "type": "function",
      "constant": true
    },
    {
      "inputs": [],
      "name": "retrieveProvider",
      "outputs": [
        {
          "internalType": "address",
          "name": "",
          "type": "address"
        }
      ],
      "stateMutability": "view",
      "type": "function",
      "constant": true
    },
    {
      "inputs": [],
      "name": "retrievePriceConverter",
      "outputs": [
        {
          "internalType": "address",
          "name": "",
          "type": "address"
        }
      ],
      "stateMutability": "view",
      "type": "function",
      "constant": true
    },
    {
      "inputs": [],
      "name": "isInitialized",
      "outputs": [
        {
          "internalType": "bool",
          "name": "",
          "type": "bool"
        }
      ],
      "stateMutability": "view",
      "type": "function",
      "constant": true
    }
  ],
  "bytecode": "0x60806040523480156200001157600080fd5b5060405162005ecf38038062005ecf833981016040819052620000349162000a77565b6200005085858533308787620000b560201b620010851760201c565b6040516200005e906200086f565b604051809103906000f0801580156200007b573d6000803e3d6000fd5b50601180546001600160a01b0319166001600160a01b039290921691909117905550506029805460ff60a01b191690555062000c65915050565b600354610100900460ff1680620000cf575060035460ff16155b620000f75760405162461bcd60e51b8152600401620000ee9062000b30565b60405180910390fd5b600354610100900460ff161580156200011a576003805461ffff19166101011790555b62000130846200018860201b620011441760201c565b600480546001600160a01b0319166001600160a01b0387161790556000600b556200015c83836200021d565b6200016b88888860016200024d565b80156200017e576003805461ff00191690555b5050505050505050565b600354610100900460ff1680620001a2575060035460ff16155b620001c15760405162461bcd60e51b8152600401620000ee9062000b30565b600354610100900460ff16158015620001e4576003805461ffff19166101011790555b6003805462010000600160b01b031916620100006001600160a01b03851602179055801562000219576003805461ff00191690555b5050565b8151620002329060009060208501906200087d565b508051620002489060019060208401906200087d565b505050565b82828160ff1660641015620002765760405162461bcd60e51b8152600401620000ee9062000b11565b8060ff16606410156200029d5760405162461bcd60e51b8152600401620000ee9062000b11565b8215620002ca57600d869055600e805460ff8681166101000261ffff199092169088161717905562000305565b600f8690556010805460ff8681166101000261ffff1990921690881617179055600e805462ff0000191662010000179055620003056200030d565b505050505050565b60006200031a816200048e565b60045433906000906001600160a01b03168214156200033c5750600162000389565b600062000349836200051e565b90506064620003576200062f565b600e546200036e9190610100900460ff1662000bbc565b6200037a919062000b99565b8111156200038757600191505b505b600181151514620003c55760405162461bcd60e51b8152602060048201526005602482015264454332322d60d81b6044820152606401620000ee565b600680546001600160a01b03191633179055600d54620003e6904262000b7e565b600755600e5460649060ff16620003fc6200062f565b62000408919062000bbc565b62000414919062000b99565b600855600b805460058190559060006200042e8362000c1b565b909155505060065460055460075460085460408051938452602084019290925282820152516001600160a01b03909216917f472501d19bf75639b2e316cd36f8568b0c3ab943b82a87de3c086c98c1929df99181900360600190a2505050565b8015620004dd576200049f62000734565b1515600114620004da5760405162461bcd60e51b8152602060048201526005602482015264454332352d60d81b6044820152606401620000ee565b50565b620004e762000734565b15620004da5760405162461bcd60e51b8152602060048201526005602482015264454332342d60d81b6044820152606401620000ee565b6000600360029054906101000a90046001600160a01b03166001600160a01b031663da3dce266040518163ffffffff1660e01b815260040160206040518083038186803b1580156200056f57600080fd5b505afa15801562000584573d6000803e3d6000fd5b505050506040513d601f19601f82011682018060405250810190620005aa919062000a2b565b6040516370a0823160e01b81526001600160a01b03848116600483015291909116906370a082319060240160206040518083038186803b158015620005ee57600080fd5b505afa15801562000603573d6000803e3d6000fd5b505050506040513d601f19601f8201168201806040525081019062000629919062000a5d565b92915050565b6000600360029054906101000a90046001600160a01b03166001600160a01b031663da3dce266040518163ffffffff1660e01b815260040160206040518083038186803b1580156200068057600080fd5b505afa15801562000695573d6000803e3d6000fd5b505050506040513d601f19601f82011682018060405250810190620006bb919062000a2b565b6001600160a01b03166318160ddd6040518163ffffffff1660e01b815260040160206040518083038186803b158015620006f457600080fd5b505afa15801562000709573d6000803e3d6000fd5b505050506040513d601f19601f820116820180604052508101906200072f919062000a5d565b905090565b600754600090421015620007485750600190565b6006546001600160a01b03161562000793576200076462000799565b6200079360006005819055600680546001600160a01b0319169055600781905560088190556009819055600a55565b50600090565b620007a3620007a5565b565b601280546001600160a01b031990811682556013805482169055601480548216905560158054821690556016805482169055601780548216905560188054821690556019805490911690556000620007ff601a826200090c565b6200080f6009830160006200090c565b6200081f600a830160006200090c565b6200082f600b830160006200090c565b6200083f600c830160006200090c565b6200084f600d830160006200090c565b6200085f600e830160006200090c565b62000219600f830160006200090c565b6107bd806200571283390190565b8280546200088b9062000bde565b90600052602060002090601f016020900481019282620008af5760008555620008fa565b82601f10620008ca57805160ff1916838001178555620008fa565b82800160010185558215620008fa579182015b82811115620008fa578251825591602001919060010190620008dd565b506200090892915062000946565b5090565b5080546200091a9062000bde565b6000825580601f106200092b575050565b601f016020900490600052602060002090810190620004da91905b5b8082111562000908576000815560010162000947565b600082601f8301126200096f57600080fd5b81516001600160401b03808211156200098c576200098c62000c4f565b604051601f8301601f19908116603f01168101908282118183101715620009b757620009b762000c4f565b81604052838152602092508683858801011115620009d457600080fd5b600091505b83821015620009f85785820183015181830184015290820190620009d9565b8382111562000a0a5760008385830101525b9695505050505050565b805160ff8116811462000a2657600080fd5b919050565b60006020828403121562000a3e57600080fd5b81516001600160a01b038116811462000a5657600080fd5b9392505050565b60006020828403121562000a7057600080fd5b5051919050565b600080600080600060a0868803121562000a9057600080fd5b8551945062000aa26020870162000a14565b935062000ab26040870162000a14565b60608701519093506001600160401b038082111562000ad057600080fd5b62000ade89838a016200095d565b9350608088015191508082111562000af557600080fd5b5062000b04888289016200095d565b9150509295509295909350565b602080825260059082015264454332312d60d81b604082015260600190565b6020808252602e908201527f496e697469616c697a61626c653a20636f6e747261637420697320616c72656160408201526d191e481a5b9a5d1a585b1a5e995960921b606082015260800190565b6000821982111562000b945762000b9462000c39565b500190565b60008262000bb757634e487b7160e01b600052601260045260246000fd5b500490565b600081600019048311821515161562000bd95762000bd962000c39565b500290565b600181811c9082168062000bf357607f821691505b6020821081141562000c1557634e487b7160e01b600052602260045260246000fd5b50919050565b600060001982141562000c325762000c3262000c39565b5060010190565b634e487b7160e01b600052601160045260246000fd5b634e487b7160e01b600052604160045260246000fd5b614a9d8062000c756000396000f3fe60806040523480156200001157600080fd5b5060043610620001c65760003560e01c8063029b967314620001cb57806304cc67a914620001ed57806316c94e63146200020057806322d929e11462000219578063392e53cd14620002235780633c65d42714620002425780633c7df55d14620002545780633feca4ca146200026b5780634044adb214620002a75780634b19aa1614620002e057806355457ee914620002ea5780635773bc2314620002f45780635a3794e914620003065780635b362e8414620003185780636025541514620003305780636771717714620003425780637c2f3aaf146200034c5780637faa3d6f146200035e578063840f6d17146200037557806390d138ed14620003b757806391f9167114620003ee578063a42e13391462000405578063a93316f5146200040f578063aa33380a1462000428578063ac2bb442146200043a578063ba4d4e391462000451578063bc3be0961462000468578063c50ec82b146200047a578063d2116a021462000484578063d660ab34146200049e578063da3dce2614620004cb578063db85bc4d14620004dd578063ee2aa36a14620004ef578063efd15d1714620004f9578063f5ad9acc1462000503575b600080fd5b620001d562000515565b604051620001e4919062002f1f565b60405180910390f35b600b545b604051908152602001620001e4565b620002176200021136600462002d75565b62000534565b005b620001d562000553565b602954600160a01b900460ff165b6040519015158152602001620001e4565b6022546001600160a01b0316620001d5565b620002176200026536600462002ba7565b6200056d565b620002316200027c36600462002bed565b6001600160a01b03919091166000908152600260209081526040808320938352929052205460ff1690565b620001f1620002b836600462002db3565b6000918252600c602090815260408084206001600160a01b0393909316845291905290205490565b620001d562000677565b6200021762000683565b6024546001600160a01b0316620001d5565b6027546001600160a01b0316620001d5565b6003546201000090046001600160a01b0316620001d5565b6029546001600160a01b0316620001d5565b620001d56200075d565b6023546001600160a01b0316620001d5565b620002176200036f36600462002c1c565b62000777565b600654600754600854600954600a54604080516001600160a01b0390961686526020860194909452928401919091526060830152608082015260a001620001e4565b620003c16200079b565b604051620001e4949392919093845260ff9283166020850152911660408301521515606082015260800190565b62000217620003ff36600462002d1b565b620007f9565b620001d562000805565b620004196200081f565b604051620001e4919062002fff565b6026546001600160a01b0316620001d5565b620002176200044b36600462002de6565b62000e15565b620002176200046236600462002d75565b62000e29565b600e5462010000900460ff1662000231565b620001d562000f0e565b6200048e62000f1a565b604051620001e49291906200309a565b600d54600e546040805192835260ff808316602085015261010090920490911690820152606001620001e4565b6028546001600160a01b0316620001d5565b6004546001600160a01b0316620001d5565b620001d562001051565b620001d56200106b565b6025546001600160a01b0316620001d5565b6028546000906200052f906001600160a01b0316620011d9565b905090565b80601262000543828262003407565b9050506200055062001266565b50565b6024546000906200052f906001600160a01b0316620011d9565b3373__Library_______________________________6337ea306382600360029054906101000a90046001600160a01b03166001600160a01b031663da3dce266040518163ffffffff1660e01b815260040160206040518083038186803b158015620005d857600080fd5b505afa158015620005ed573d6000803e3d6000fd5b505050506040513d601f19601f8201168201806040525081019062000613919062002b87565b6040518363ffffffff1660e01b81526004016200063292919062002f33565b60006040518083038186803b1580156200064b57600080fd5b505af415801562000660573d6000803e3d6000fd5b5050505062000671848484620013e5565b50505050565b60006200052f62001407565b6001620006908162001488565b6006546040516337ea306360e01b8152339173__Library_______________________________916337ea306391620006d89185916001600160a01b03169060040162002f33565b60006040518083038186803b158015620006f157600080fd5b505af415801562000706573d6000803e3d6000fd5b505050506200071462001515565b6006546005546040519081526001600160a01b03909116907f1fe8aec10c0a50fa765076161e08c1f961ced69594ff45cf7d559f593afe14799060200160405180910390a25050565b6022546000906200052f906001600160a01b0316620011d9565b6200078786868686868662001540565b620007938685620016ae565b505050505050565b600080600080600e60029054906101000a900460ff168015620007bf575060075442105b15620007e6575050600f5460105490925060ff8082169250610100909104166001620007f3565b5060009250829150819050805b90919293565b620005503382620016ae565b6026546000906200052f906001600160a01b0316620011d9565b6040805160088082526101208201909252606091600091906020820161010080368337505060125460405163bc215e8560e01b815292935073__AddressLibrary________________________9263bc215e8592506200088c916001600160a01b03169060040162002f1f565b60206040518083038186803b158015620008a557600080fd5b505af4158015620008ba573d6000803e3d6000fd5b505050506040513d601f19601f82011682018060405250810190620008e0919062002d5b565b81600081518110620008f657620008f6620033ac565b602090810291909101015260135460405163bc215e8560e01b815273__AddressLibrary________________________9163bc215e859162000945916001600160a01b03169060040162002f1f565b60206040518083038186803b1580156200095e57600080fd5b505af415801562000973573d6000803e3d6000fd5b505050506040513d601f19601f8201168201806040525081019062000999919062002d5b565b81600181518110620009af57620009af620033ac565b602090810291909101015260145460405163bc215e8560e01b815273__AddressLibrary________________________9163bc215e8591620009fe916001600160a01b03169060040162002f1f565b60206040518083038186803b15801562000a1757600080fd5b505af415801562000a2c573d6000803e3d6000fd5b505050506040513d601f19601f8201168201806040525081019062000a52919062002d5b565b8160028151811062000a685762000a68620033ac565b602090810291909101015260155460405163bc215e8560e01b815273__AddressLibrary________________________9163bc215e859162000ab7916001600160a01b03169060040162002f1f565b60206040518083038186803b15801562000ad057600080fd5b505af415801562000ae5573d6000803e3d6000fd5b505050506040513d601f19601f8201168201806040525081019062000b0b919062002d5b565b8160038151811062000b215762000b21620033ac565b602090810291909101015260165460405163bc215e8560e01b815273__AddressLibrary________________________9163bc215e859162000b70916001600160a01b03169060040162002f1f565b60206040518083038186803b15801562000b8957600080fd5b505af415801562000b9e573d6000803e3d6000fd5b505050506040513d601f19601f8201168201806040525081019062000bc4919062002d5b565b8160048151811062000bda5762000bda620033ac565b602090810291909101015260175460405163bc215e8560e01b815273__AddressLibrary________________________9163bc215e859162000c29916001600160a01b03169060040162002f1f565b60206040518083038186803b15801562000c4257600080fd5b505af415801562000c57573d6000803e3d6000fd5b505050506040513d601f19601f8201168201806040525081019062000c7d919062002d5b565b8160058151811062000c935762000c93620033ac565b602090810291909101015260185460405163bc215e8560e01b815273__AddressLibrary________________________9163bc215e859162000ce2916001600160a01b03169060040162002f1f565b60206040518083038186803b15801562000cfb57600080fd5b505af415801562000d10573d6000803e3d6000fd5b505050506040513d601f19601f8201168201806040525081019062000d36919062002d5b565b8160068151811062000d4c5762000d4c620033ac565b602090810291909101015260195460405163bc215e8560e01b815273__AddressLibrary________________________9163bc215e859162000d9b916001600160a01b03169060040162002f1f565b60206040518083038186803b15801562000db457600080fd5b505af415801562000dc9573d6000803e3d6000fd5b505050506040513d601f19601f8201168201806040525081019062000def919062002d5b565b8160078151811062000e055762000e05620033ac565b6020908102919091010152919050565b62000e248383836000620017d7565b505050565b600480546040516337ea306360e01b8152339273__Library_______________________________926337ea30639262000e709286926001600160a01b0316910162002f33565b60006040518083038186803b15801562000e8957600080fd5b505af415801562000e9e573d6000803e3d6000fd5b5050602954600160a01b900460ff1615915062000eec90505760405162461bcd60e51b8152602060048201526005602482015264454332362d60d81b60448201526064015b60405180910390fd5b62000ef7826200188f565b50506029805460ff60a01b1916600160a01b179055565b60006200052f62001d78565b6060806000600181805462000f2f906200333b565b80601f016020809104026020016040519081016040528092919081815260200182805462000f5d906200333b565b801562000fae5780601f1062000f825761010080835404028352916020019162000fae565b820191906000526020600020905b81548152906001019060200180831162000f9057829003601f168201915b5050505050915080805462000fc3906200333b565b80601f016020809104026020016040519081016040528092919081815260200182805462000ff1906200333b565b8015620010425780601f10620010165761010080835404028352916020019162001042565b820191906000526020600020905b8154815290600101906020018083116200102457829003601f168201915b50505050509050915091509091565b6029546000906200052f906001600160a01b0316620011d9565b6027546000906200052f906001600160a01b0316620011d9565b600354610100900460ff16806200109f575060035460ff16155b620010be5760405162461bcd60e51b815260040162000ee390620030f7565b600354610100900460ff16158015620010e1576003805461ffff19166101011790555b620010ec8462001144565b600480546001600160a01b0319166001600160a01b0387161790556000600b5562001118838362001dbe565b620011278888886001620017d7565b80156200113a576003805461ff00191690555b5050505050505050565b600354610100900460ff16806200115e575060035460ff16155b6200117d5760405162461bcd60e51b815260040162000ee390620030f7565b600354610100900460ff16158015620011a0576003805461ffff19166101011790555b6003805462010000600160b01b031916620100006001600160a01b038516021790558015620011d5576003805461ff00191690555b5050565b6011546040516310270e3d60e11b81526000916001600160a01b03169063204e1c7a906200120c90859060040162002f1f565b60206040518083038186803b1580156200122557600080fd5b505afa1580156200123a573d6000803e3d6000fd5b505050506040513d601f19601f8201168201806040525081019062001260919062002b87565b92915050565b6000620012738162001488565b60045433906000906001600160a01b03168214156200129557506001620012e2565b6000620012a28362001de9565b90506064620012b062001ef6565b600e54620012c79190610100900460ff16620031e9565b620012d39190620031c6565b811115620012e057600191505b505b6001811515146200131e5760405162461bcd60e51b8152602060048201526005602482015264454332322d60d81b604482015260640162000ee3565b600680546001600160a01b03191633179055600d546200133f9042620031ab565b600755600e5460649060ff166200135562001ef6565b620013619190620031e9565b6200136d9190620031c6565b600855600b80546005819055906000620013878362003378565b90915550506006546005546007546008546040516001600160a01b03909416937f472501d19bf75639b2e316cd36f8568b0c3ab943b82a87de3c086c98c1929df993620013d8939092909162003145565b60405180910390a2505050565b620013ef62001ff6565b15156001141562000e245762000e2483838362002036565b60255460408051635c60da1b60e01b815290516000926001600160a01b031691635c60da1b916004808301926020929190829003018186803b1580156200144d57600080fd5b505afa15801562001462573d6000803e3d6000fd5b505050506040513d601f19601f820116820180604052508101906200052f919062002b87565b8015620014d4576200149962001ff6565b1515600114620005505760405162461bcd60e51b8152602060048201526005602482015264454332352d60d81b604482015260640162000ee3565b620014de62001ff6565b15620005505760405162461bcd60e51b8152602060048201526005602482015264454332342d60d81b604482015260640162000ee3565b60006005819055600680546001600160a01b0319169055600781905560088190556009819055600a55565b816200154c81620021ae565b86846200155a8282620021e7565b6005548814620015955760405162461bcd60e51b8152602060048201526005602482015264454333352d60d81b604482015260640162000ee3565b604051633f0856fd60e01b815273__SignatureLibrary______________________90633f0856fd90620015de908c908c908c908c908c908c9060009060019060040162002f86565b60206040518083038186803b158015620015f757600080fd5b505af41580156200160c573d6000803e3d6000fd5b505050506040513d601f19601f8201168201806040525081019062001632919062002d3b565b15156001146200166d5760405162461bcd60e51b8152602060048201526005602482015264454333322d60d81b604482015260640162000ee3565b620016a389876001600160a01b03909116600090815260026020908152604080832093835292905220805460ff19166001179055565b505050505050505050565b6001620016bb8162001488565b60055483906000620016ce838362002245565b9050600081116200170a5760405162461bcd60e51b8152602060048201526005602482015264454332332d60d81b604482015260640162000ee3565b60006200171d8760056000015462002245565b90508515620017495780600560040160008282546200173d9190620031ab565b90915550620017659050565b806005800160008282546200175f9190620031ab565b90915550505b6005546200177590888362002286565b60055460408051918252871515602083015281018290526001600160a01b038816907f50f654d58981575c05e369cb129aeacb01e1b036af429380242cfc5d1a4b743f9060600160405180910390a2620017ce620022c4565b50505050505050565b82828160ff1660641015620018005760405162461bcd60e51b815260040162000ee390620030d8565b8060ff1660641015620018275760405162461bcd60e51b815260040162000ee390620030d8565b82156200185457600d869055600e805460ff8681166101000261ffff199092169088161717905562000793565b600f8690556010805460ff8681166101000261ffff1990921690881617179055600e805462ff00001916620100001790556200079362001266565b6200189e602082018262002b67565b6011546001600160a01b0316620018ba6101008401846200315b565b604051620018c89062002a54565b620018d7949392919062002f4d565b604051809103906000f080158015620018f4573d6000803e3d6000fd5b50602680546001600160a01b0319166001600160a01b039290921691909117905562001927604082016020830162002b67565b6011546001600160a01b0316620019436101208401846200315b565b604051620019519062002a54565b62001960949392919062002f4d565b604051809103906000f0801580156200197d573d6000803e3d6000fd5b50602780546001600160a01b0319166001600160a01b0392909216919091179055620019b0606082016040830162002b67565b6011546001600160a01b0316620019cc6101408401846200315b565b604051620019da9062002a54565b620019e9949392919062002f4d565b604051809103906000f08015801562001a06573d6000803e3d6000fd5b50602880546001600160a01b0319166001600160a01b039290921691909117905562001a39608082016060830162002b67565b6011546001600160a01b031662001a556101608401846200315b565b60405162001a639062002a54565b62001a72949392919062002f4d565b604051809103906000f08015801562001a8f573d6000803e3d6000fd5b50602280546001600160a01b0319166001600160a01b039290921691909117905562001ac260a082016080830162002b67565b60405162001ad09062002a62565b62001adc919062002f1f565b604051809103906000f08015801562001af9573d6000803e3d6000fd5b50602380546001600160a01b0319166001600160a01b039290921691909117905562001b2c60c0820160a0830162002b67565b6011546001600160a01b031662001b486101808401846200315b565b60405162001b569062002a54565b62001b65949392919062002f4d565b604051809103906000f08015801562001b82573d6000803e3d6000fd5b50602480546001600160a01b0319166001600160a01b039290921691909117905562001bb560e0820160c0830162002b67565b60405162001bc39062002a62565b62001bcf919062002f1f565b604051809103906000f08015801562001bec573d6000803e3d6000fd5b50602580546001600160a01b0319166001600160a01b039290921691909117905562001c20610100820160e0830162002b67565b6011546001600160a01b031662001c3c6101a08401846200315b565b60405162001c4a9062002a54565b62001c59949392919062002f4d565b604051809103906000f08015801562001c76573d6000803e3d6000fd5b50602980546001600160a01b0319166001600160a01b039283161790556022541663ce50ac7662001cac6101c08401846200315b565b6040518363ffffffff1660e01b815260040162001ccb9291906200307c565b600060405180830381600087803b15801562001ce657600080fd5b505af115801562001cfb573d6000803e3d6000fd5b50506022546001600160a01b03169150631dd5862c905062001d226101e08401846200315b565b6040518363ffffffff1660e01b815260040162001d419291906200307c565b600060405180830381600087803b15801562001d5c57600080fd5b505af115801562001d71573d6000803e3d6000fd5b5050505050565b60235460408051635c60da1b60e01b815290516000926001600160a01b031691635c60da1b916004808301926020929190829003018186803b1580156200144d57600080fd5b815162001dd390600090602085019062002a70565b50805162000e2490600190602084019062002a70565b6000600360029054906101000a90046001600160a01b03166001600160a01b031663da3dce266040518163ffffffff1660e01b815260040160206040518083038186803b15801562001e3a57600080fd5b505afa15801562001e4f573d6000803e3d6000fd5b505050506040513d601f19601f8201168201806040525081019062001e75919062002b87565b6001600160a01b03166370a08231836040518263ffffffff1660e01b815260040162001ea2919062002f1f565b60206040518083038186803b15801562001ebb57600080fd5b505afa15801562001ed0573d6000803e3d6000fd5b505050506040513d601f19601f8201168201806040525081019062001260919062002d5b565b6000600360029054906101000a90046001600160a01b03166001600160a01b031663da3dce266040518163ffffffff1660e01b815260040160206040518083038186803b15801562001f4757600080fd5b505afa15801562001f5c573d6000803e3d6000fd5b505050506040513d601f19601f8201168201806040525081019062001f82919062002b87565b6001600160a01b03166318160ddd6040518163ffffffff1660e01b815260040160206040518083038186803b15801562001fbb57600080fd5b505afa15801562001fd0573d6000803e3d6000fd5b505050506040513d601f19601f820116820180604052508101906200052f919062002d5b565b6007546000904210156200200a5750600190565b6006546001600160a01b0316156200203057620020266200241a565b6200203062001515565b50600090565b6001600160a01b038316158015906200207357506005546000908152600c602090815260408083206001600160a01b038716845290915290205415155b1562000e24576005546000908152600c602090815260408083206001600160a01b03871684529091529020548190811115620020d157506005546000908152600c602090815260408083206001600160a01b03871684529091529020545b6005546000908152600c602090815260408083206001600160a01b038816845290915281208054839290620021089084906200320b565b90915550506001600160a01b038316156200215a576005546000908152600c602090815260408083206001600160a01b03871684529091528120805483929062002154908490620031ab565b90915550505b600554604080516001600160a01b038088168252861660208201529081018390527f65fbd5e5dd32bea4aeca85bd0be0abf0e489d655dee888a7510d43b06dda2dba9060600160405180910390a250505050565b804210620005505760405162461bcd60e51b8152602060048201526005602482015264454333332d60d81b604482015260640162000ee3565b6001600160a01b038216600090815260026020908152604080832084845290915290205460ff1615620011d55760405162461bcd60e51b8152602060048201526005602482015264454333342d60d81b604482015260640162000ee3565b6000818152600c602090815260408083206001600160a01b0386168452909152812054620022738462001de9565b6200227f91906200320b565b9392505050565b6000838152600c602090815260408083206001600160a01b038616845290915281208054839290620022ba908490620031ab565b9091555050505050565b600854600954106200238a57600e5462010000900460ff16156200232057600f54600d55601054600e805461010080840460ff90811690910261ffff199092169316929092179190911790556200231a62002424565b6200232a565b6200232a62002442565b6200233462001515565b600654600554600954600a546040516001600160a01b03909416937f23ca0034cf5aad32571b4a492e9598ea8a490e1643a60970e3cdc6933b55e49f9362002380939092909162003145565b60405180910390a2565b600854600a54106200241857600e5462010000900460ff1615620023b857620023b262002424565b620023c2565b620023c26200241a565b620023cc62001515565b600654600554600954600a546040516001600160a01b03909416937fa58eb6daa3c62c3f883973c4035e5bd3e81aa627c8379de068a7de42df122be29362002380939092909162003145565b565b620024186200244c565b6000600f556010805461ffff19169055600e805462ff000019169055565b6200241a62002516565b601280546001600160a01b031990811682556013805482169055601480548216905560158054821690556016805482169055601780548216905560188054821690556019805490911690556000620024a6601a8262002aff565b620024b660098301600062002aff565b620024c6600a8301600062002aff565b620024d6600b8301600062002aff565b620024e6600c8301600062002aff565b620024f6600d8301600062002aff565b62002506600e8301600062002aff565b620011d5600f8301600062002aff565b602654601254601a8054620025c9936001600160a01b03908116931691906200253f906200333b565b80601f01602080910402602001604051908101604052809291908181526020018280546200256d906200333b565b8015620025be5780601f106200259257610100808354040283529160200191620025be565b820191906000526020600020905b815481529060010190602001808311620025a057829003601f168201915b5050505050620029a2565b602754601354601b8054620025f2936001600160a01b03908116931691906200253f906200333b565b602854601454601c80546200261b936001600160a01b03908116931691906200253f906200333b565b602254601554601d805462002644936001600160a01b03908116931691906200253f906200333b565b602454601754601e80546200266d936001600160a01b03908116931691906200253f906200333b565b602954601954601f805462002696936001600160a01b03908116931691906200253f906200333b565b6016546001600160a01b0316156200271357602354601654604051631b2ce7f360e11b81526001600160a01b0392831692633659cfe692620026de9291169060040162002f1f565b600060405180830381600087803b158015620026f957600080fd5b505af11580156200270e573d6000803e3d6000fd5b505050505b6018546001600160a01b0316156200279057602554601854604051631b2ce7f360e11b81526001600160a01b0392831692633659cfe6926200275b9291169060040162002f1f565b600060405180830381600087803b1580156200277657600080fd5b505af11580156200278b573d6000803e3d6000fd5b505050505b602080546200279f906200333b565b1590506200280f57602254604051636728563b60e11b81526001600160a01b039091169063ce50ac7690620027da90602090600401620030c3565b600060405180830381600087803b158015620027f557600080fd5b505af11580156200280a573d6000803e3d6000fd5b505050505b602180546200281e906200333b565b1590506200288e57602254604051630775618b60e21b81526001600160a01b0390911690631dd5862c906200285990602190600401620030c3565b600060405180830381600087803b1580156200287457600080fd5b505af115801562002889573d6000803e3d6000fd5b505050505b6026547f05c04d87852a41b811d4865cafb55055b0b03dceebff609472a889585286a7dc90620028c7906001600160a01b0316620011d9565b602754620028de906001600160a01b0316620011d9565b602854620028f5906001600160a01b0316620011d9565b6022546200290c906001600160a01b0316620011d9565b6200291662001d78565b6024546200292d906001600160a01b0316620011d9565b6200293762001407565b6029546200294e906001600160a01b0316620011d9565b604080516001600160a01b03998a16815297891660208901529588168787015293871660608701529186166080860152851660a0850152841660c084015290921660e08201529051908190036101000190a1565b6001600160a01b0382161562000e245780511562002a2057601154604051639623609d60e01b81526001600160a01b0390911690639623609d90620029f09086908690869060040162003045565b600060405180830381600087803b15801562002a0b57600080fd5b505af1158015620017ce573d6000803e3d6000fd5b60115460405163266a23b160e21b81526001600160a01b03909116906399a88ec490620029f0908690869060040162002f33565b610f30806200361583390190565b610523806200454583390190565b82805462002a7e906200333b565b90600052602060002090601f01602090048101928262002aa2576000855562002aed565b82601f1062002abd57805160ff191683800117855562002aed565b8280016001018555821562002aed579182015b8281111562002aed57825182559160200191906001019062002ad0565b5062002afb92915062002b39565b5090565b50805462002b0d906200333b565b6000825580601f1062002b1e575050565b601f0160209004906000526020600020908101906200055091905b5b8082111562002afb576000815560010162002b3a565b803560ff8116811462002b6257600080fd5b919050565b60006020828403121562002b7a57600080fd5b81356200227f81620035ef565b60006020828403121562002b9a57600080fd5b81516200227f81620035ef565b60008060006060848603121562002bbd57600080fd5b833562002bca81620035ef565b9250602084013562002bdc81620035ef565b929592945050506040919091013590565b6000806040838503121562002c0157600080fd5b823562002c0e81620035ef565b946020939093013593505050565b60008060008060008060c0878903121562002c3657600080fd5b863562002c4381620035ef565b955060208701359450604087013562002c5c8162003605565b9350606087013592506080870135915060a08701356001600160401b038082111562002c8757600080fd5b818901915089601f83011262002c9c57600080fd5b81358181111562002cb15762002cb1620033c2565b604051601f8201601f19908116603f0116810190838211818310171562002cdc5762002cdc620033c2565b816040528281528c602084870101111562002cf657600080fd5b8260208601602083013760006020848301015280955050505050509295509295509295565b60006020828403121562002d2e57600080fd5b81356200227f8162003605565b60006020828403121562002d4e57600080fd5b81516200227f8162003605565b60006020828403121562002d6e57600080fd5b5051919050565b60006020828403121562002d8857600080fd5b81356001600160401b0381111562002d9f57600080fd5b820161020081850312156200227f57600080fd5b6000806040838503121562002dc757600080fd5b82359150602083013562002ddb81620035ef565b809150509250929050565b60008060006060848603121562002dfc57600080fd5b8335925062002e0e6020850162002b50565b915062002e1e6040850162002b50565b90509250925092565b81835281816020850137506000828201602090810191909152601f909101601f19169091010190565b6000815180845260005b8181101562002e785760208185018101518683018201520162002e5a565b8181111562002e8b576000602083870101525b50601f01601f19169290920160200192915050565b6000815462002eaf816200333b565b80855260206001838116801562002ecf576001811462002ee45762002f14565b60ff1985168884015260408801955062002f14565b866000528260002060005b8581101562002f0c5781548a820186015290830190840162002eef565b890184019650505b505050505092915050565b6001600160a01b0391909116815260200190565b6001600160a01b0392831681529116602082015260400190565b6001600160a01b0385811682528416602082015260606040820181905260009062002f7c908301848662002e27565b9695505050505050565b600061010060018060a01b038b16835289602084015288151560408401528760608401528660808401528060a084015262002fc48184018762002e50565b905082810360c084015262002fda818662002ea0565b905082810360e084015262002ff0818562002ea0565b9b9a5050505050505050505050565b6020808252825182820181905260009190848201906040850190845b8181101562003039578351835292840192918401916001016200301b565b50909695505050505050565b6001600160a01b03848116825283166020820152606060408201819052600090620030739083018462002e50565b95945050505050565b6020815260006200309260208301848662002e27565b949350505050565b604081526000620030af604083018562002e50565b828103602084015262003073818562002e50565b6020815260006200227f602083018462002ea0565b602080825260059082015264454332312d60d81b604082015260600190565b6020808252602e908201527f496e697469616c697a61626c653a20636f6e747261637420697320616c72656160408201526d191e481a5b9a5d1a585b1a5e995960921b606082015260800190565b9283526020830191909152604082015260600190565b6000808335601e198436030181126200317357600080fd5b8301803591506001600160401b038211156200318e57600080fd5b602001915036819003821315620031a457600080fd5b9250929050565b60008219821115620031c157620031c162003396565b500190565b600082620031e457634e487b7160e01b600052601260045260246000fd5b500490565b600081600019048311821515161562003206576200320662003396565b500290565b60008282101562003220576200322062003396565b500390565b601f82111562000e2457600081815260208120601f850160051c810160208610156200324e5750805b601f850160051c820191505b8181101562000793578281556001016200325a565b6001600160401b03831115620032895762003289620033c2565b620032a1836200329a83546200333b565b8362003225565b6000601f841160018114620032d85760008515620032bf5750838201355b600019600387901b1c1916600186901b17835562001d71565b600083815260209020601f19861690835b828110156200330b5786850135825560209485019460019092019101620032e9565b5086821015620033295760001960f88860031b161c19848701351681555b505060018560011b0183555050505050565b600181811c908216806200335057607f821691505b602082108114156200337257634e487b7160e01b600052602260045260246000fd5b50919050565b60006000198214156200338f576200338f62003396565b5060010190565b634e487b7160e01b600052601160045260246000fd5b634e487b7160e01b600052603260045260246000fd5b634e487b7160e01b600052604160045260246000fd5b600081356200126081620035ef565b80546001600160a01b0319166001600160a01b0392909216919091179055565b6200341d6200341683620033d8565b82620033e7565b620034396200342f60208401620033d8565b60018301620033e7565b620034556200344b60408401620033d8565b60028301620033e7565b620034716200346760608401620033d8565b60038301620033e7565b6200348d6200348360808401620033d8565b60048301620033e7565b620034a96200349f60a08401620033d8565b60058301620033e7565b620034c5620034bb60c08401620033d8565b60068301620033e7565b620034e1620034d760e08401620033d8565b60078301620033e7565b620034f16101008301836200315b565b620035018183600886016200326f565b5050620035136101208301836200315b565b620035238183600986016200326f565b5050620035356101408301836200315b565b620035458183600a86016200326f565b5050620035576101608301836200315b565b620035678183600b86016200326f565b5050620035796101808301836200315b565b620035898183600c86016200326f565b50506200359b6101a08301836200315b565b620035ab8183600d86016200326f565b5050620035bd6101c08301836200315b565b620035cd8183600e86016200326f565b5050620035df6101e08301836200315b565b620006718183600f86016200326f565b6001600160a01b03811681146200055057600080fd5b80151581146200055057600080fdfe608060405260405162000f3038038062000f308339810160408190526200002691620004c2565b82816200005560017f360894a13ba1a3210667c828492db98dca3e2076cc3735a920a3ca505d382bbd620005f5565b60008051602062000ee9833981519152146200007557620000756200064a565b6200008382826000620000e7565b50620000b3905060017fb53127684a568b3173ae13b9f8a6016e243e63b6e8ee1178d6a717850b5d6104620005f5565b60008051602062000ec983398151915214620000d357620000d36200064a565b620000de8262000124565b50505062000676565b620000f2836200017f565b600082511180620001005750805b156200011f576200011d8383620001c160201b620002601760201c565b505b505050565b7f7e644d79422f17c01e4894b5f4f588d331ebfa28653d42ae832dc59e38c9798f6200014f620001f0565b604080516001600160a01b03928316815291841660208301520160405180910390a16200017c8162000229565b50565b6200018a81620002de565b6040516001600160a01b038216907fbc7cd75a20ee27fd9adebab32041f755214dbc6bffa90cc0225b39da2e5c2d3b90600090a250565b6060620001e9838360405180606001604052806027815260200162000f096027913962000381565b9392505050565b60006200021a60008051602062000ec983398151915260001b6200045e60201b620002081760201c565b546001600160a01b0316919050565b6001600160a01b038116620002945760405162461bcd60e51b815260206004820152602660248201527f455243313936373a206e65772061646d696e20697320746865207a65726f206160448201526564647265737360d01b60648201526084015b60405180910390fd5b80620002bd60008051602062000ec983398151915260001b6200045e60201b620002081760201c565b80546001600160a01b0319166001600160a01b039290921691909117905550565b620002f4816200046160201b6200028c1760201c565b620003585760405162461bcd60e51b815260206004820152602d60248201527f455243313936373a206e657720696d706c656d656e746174696f6e206973206e60448201526c1bdd08184818dbdb9d1c9858dd609a1b60648201526084016200028b565b80620002bd60008051602062000ee983398151915260001b6200045e60201b620002081760201c565b6060833b620003e25760405162461bcd60e51b815260206004820152602660248201527f416464726573733a2064656c65676174652063616c6c20746f206e6f6e2d636f6044820152651b9d1c9858dd60d21b60648201526084016200028b565b600080856001600160a01b031685604051620003ff9190620005a2565b600060405180830381855af49150503d80600081146200043c576040519150601f19603f3d011682016040523d82523d6000602084013e62000441565b606091505b5090925090506200045482828662000467565b9695505050505050565b90565b3b151590565b6060831562000478575081620001e9565b825115620004895782518084602001fd5b8160405162461bcd60e51b81526004016200028b9190620005c0565b80516001600160a01b0381168114620004bd57600080fd5b919050565b600080600060608486031215620004d857600080fd5b620004e384620004a5565b9250620004f360208501620004a5565b60408501519092506001600160401b03808211156200051157600080fd5b818601915086601f8301126200052657600080fd5b8151818111156200053b576200053b62000660565b604051601f8201601f19908116603f0116810190838211818310171562000566576200056662000660565b816040528281528960208487010111156200058057600080fd5b620005938360208301602088016200061b565b80955050505050509250925092565b60008251620005b68184602087016200061b565b9190910192915050565b6020815260008251806020840152620005e18160408501602087016200061b565b601f01601f19169190910160400192915050565b6000828210156200061657634e487b7160e01b600052601160045260246000fd5b500390565b60005b83811015620006385781810151838201526020016200061e565b838111156200011d5750506000910152565b634e487b7160e01b600052600160045260246000fd5b634e487b7160e01b600052604160045260246000fd5b61084380620006866000396000f3fe60806040526004361061004e5760003560e01c80633659cfe6146100655780634f1ef286146100855780635c60da1b146100985780638f283970146100c9578063f851a440146100e95761005d565b3661005d5761005b6100fe565b005b61005b6100fe565b34801561007157600080fd5b5061005b61008036600461068e565b610118565b61005b6100933660046106a9565b61015f565b3480156100a457600080fd5b506100ad6101d0565b6040516001600160a01b03909116815260200160405180910390f35b3480156100d557600080fd5b5061005b6100e436600461068e565b61020b565b3480156100f557600080fd5b506100ad610235565b610106610292565b610116610111610331565b61033b565b565b61012061035f565b6001600160a01b0316336001600160a01b031614156101575761015481604051806020016040528060008152506000610380565b50565b6101546100fe565b61016761035f565b6001600160a01b0316336001600160a01b031614156101c8576101c38383838080601f01602080910402602001604051908101604052809392919081815260200183838082843760009201919091525060019250610380915050565b505050565b6101c36100fe565b60006101da61035f565b6001600160a01b0316336001600160a01b03161415610200576101fb610331565b905090565b6102086100fe565b90565b61021361035f565b6001600160a01b0316336001600160a01b0316141561015757610154816103ab565b600061023f61035f565b6001600160a01b0316336001600160a01b03161415610200576101fb61035f565b606061028583836040518060600160405280602781526020016107e7602791396103ff565b9392505050565b3b151590565b61029a61035f565b6001600160a01b0316336001600160a01b031614156101165760405162461bcd60e51b815260206004820152604260248201527f5472616e73706172656e745570677261646561626c6550726f78793a2061646d60448201527f696e2063616e6e6f742066616c6c6261636b20746f2070726f78792074617267606482015261195d60f21b608482015260a4015b60405180910390fd5b60006101fb6104d3565b3660008037600080366000845af43d6000803e80801561035a573d6000f35b3d6000fd5b60006000805160206107a78339815191525b546001600160a01b0316919050565b610389836104e9565b6000825111806103965750805b156101c3576103a58383610260565b50505050565b7f7e644d79422f17c01e4894b5f4f588d331ebfa28653d42ae832dc59e38c9798f6103d461035f565b604080516001600160a01b03928316815291841660208301520160405180910390a161015481610529565b6060833b61045e5760405162461bcd60e51b815260206004820152602660248201527f416464726573733a2064656c65676174652063616c6c20746f206e6f6e2d636f6044820152651b9d1c9858dd60d21b6064820152608401610328565b600080856001600160a01b031685604051610479919061072b565b600060405180830381855af49150503d80600081146104b4576040519150601f19603f3d011682016040523d82523d6000602084013e6104b9565b606091505b50915091506104c98282866105c0565b9695505050505050565b60006000805160206107c7833981519152610371565b6104f2816105f9565b6040516001600160a01b038216907fbc7cd75a20ee27fd9adebab32041f755214dbc6bffa90cc0225b39da2e5c2d3b90600090a250565b6001600160a01b03811661058e5760405162461bcd60e51b815260206004820152602660248201527f455243313936373a206e65772061646d696e20697320746865207a65726f206160448201526564647265737360d01b6064820152608401610328565b806000805160206107a78339815191525b80546001600160a01b0319166001600160a01b039290921691909117905550565b606083156105cf575081610285565b8251156105df5782518084602001fd5b8160405162461bcd60e51b81526004016103289190610747565b803b61065d5760405162461bcd60e51b815260206004820152602d60248201527f455243313936373a206e657720696d706c656d656e746174696f6e206973206e60448201526c1bdd08184818dbdb9d1c9858dd609a1b6064820152608401610328565b806000805160206107c783398151915261059f565b80356001600160a01b038116811461068957600080fd5b919050565b6000602082840312156106a057600080fd5b61028582610672565b6000806000604084860312156106be57600080fd5b6106c784610672565b925060208401356001600160401b03808211156106e357600080fd5b818601915086601f8301126106f757600080fd5b81358181111561070657600080fd5b87602082850101111561071857600080fd5b6020830194508093505050509250925092565b6000825161073d81846020870161077a565b9190910192915050565b602081526000825180602084015261076681604085016020870161077a565b601f01601f19169190910160400192915050565b60005b8381101561079557818101518382015260200161077d565b838111156103a5575050600091015256feb53127684a568b3173ae13b9f8a6016e243e63b6e8ee1178d6a717850b5d6103360894a13ba1a3210667c828492db98dca3e2076cc3735a920a3ca505d382bbc416464726573733a206c6f772d6c6576656c2064656c65676174652063616c6c206661696c6564a2646970667358221220bf234746908c6f46655f3e5bb4f0abadaeb249c68beba1c928f2af74deb56e2264736f6c63430008070033b53127684a568b3173ae13b9f8a6016e243e63b6e8ee1178d6a717850b5d6103360894a13ba1a3210667c828492db98dca3e2076cc3735a920a3ca505d382bbc416464726573733a206c6f772d6c6576656c2064656c65676174652063616c6c206661696c6564608060405234801561001057600080fd5b5060405161052338038061052383398101604081905261002f91610148565b61003833610047565b61004181610097565b50610178565b600080546001600160a01b038381166001600160a01b0319831681178455604051919092169283917f8be0079c531659141344cd1fd0a4f28419497f9722a3daafe3b4186f6b6457e09190a35050565b6100aa8161014260201b61021f1760201c565b6101205760405162461bcd60e51b815260206004820152603360248201527f5570677261646561626c65426561636f6e3a20696d706c656d656e746174696f60448201527f6e206973206e6f74206120636f6e747261637400000000000000000000000000606482015260840160405180910390fd5b600180546001600160a01b0319166001600160a01b0392909216919091179055565b3b151590565b60006020828403121561015a57600080fd5b81516001600160a01b038116811461017157600080fd5b9392505050565b61039c806101876000396000f3fe608060405234801561001057600080fd5b50600436106100575760003560e01c80633659cfe61461005c5780635c60da1b14610071578063715018a61461009a5780638da5cb5b146100a2578063f2fde38b146100aa575b600080fd5b61006f61006a366004610301565b6100bd565b005b6001546001600160a01b03165b6040516001600160a01b03909116815260200160405180910390f35b61006f610135565b61007e610170565b61006f6100b8366004610301565b61017f565b336100c6610170565b6001600160a01b0316146100f55760405162461bcd60e51b81526004016100ec90610331565b60405180910390fd5b6100fe81610225565b6040516001600160a01b038216907fbc7cd75a20ee27fd9adebab32041f755214dbc6bffa90cc0225b39da2e5c2d3b90600090a250565b3361013e610170565b6001600160a01b0316146101645760405162461bcd60e51b81526004016100ec90610331565b61016e60006102b1565b565b6000546001600160a01b031690565b33610188610170565b6001600160a01b0316146101ae5760405162461bcd60e51b81526004016100ec90610331565b6001600160a01b0381166102135760405162461bcd60e51b815260206004820152602660248201527f4f776e61626c653a206e6577206f776e657220697320746865207a65726f206160448201526564647265737360d01b60648201526084016100ec565b61021c816102b1565b50565b3b151590565b803b61028f5760405162461bcd60e51b815260206004820152603360248201527f5570677261646561626c65426561636f6e3a20696d706c656d656e746174696f6044820152721b881a5cc81b9bdd08184818dbdb9d1c9858dd606a1b60648201526084016100ec565b600180546001600160a01b0319166001600160a01b0392909216919091179055565b600080546001600160a01b038381166001600160a01b0319831681178455604051919092169283917f8be0079c531659141344cd1fd0a4f28419497f9722a3daafe3b4186f6b6457e09190a35050565b60006020828403121561031357600080fd5b81356001600160a01b038116811461032a57600080fd5b9392505050565b6020808252818101527f4f776e61626c653a2063616c6c6572206973206e6f7420746865206f776e657260408201526060019056fea2646970667358221220b1e86d9e5a9827481ff081a46fc0ff448af58190927b3eac96f691d6bcdce0a964736f6c63430008070033a26469706673582212202726af10a2b04fc982cb8b2b04a5f414e0c026d6cf3ce4139907de58bd2c19ea64736f6c63430008070033608060405234801561001057600080fd5b5061001a3361001f565b61006f565b600080546001600160a01b038381166001600160a01b0319831681178455604051919092169283917f8be0079c531659141344cd1fd0a4f28419497f9722a3daafe3b4186f6b6457e09190a35050565b61073f8061007e6000396000f3fe60806040526004361061006b5760003560e01c8063204e1c7a14610070578063715018a6146100a65780637eff275e146100bd5780638da5cb5b146100dd5780639623609d146100f257806399a88ec414610105578063f2fde38b14610125578063f3b7dead14610145575b600080fd5b34801561007c57600080fd5b5061009061008b3660046104e1565b610165565b60405161009d9190610630565b60405180910390f35b3480156100b257600080fd5b506100bb6101f6565b005b3480156100c957600080fd5b506100bb6100d8366004610522565b61023a565b3480156100e957600080fd5b506100906102cb565b6100bb61010036600461055b565b6102da565b34801561011157600080fd5b506100bb610120366004610522565b610370565b34801561013157600080fd5b506100bb6101403660046104e1565b6103cb565b34801561015157600080fd5b506100906101603660046104e1565b61046b565b6000806000836001600160a01b031660405161018b90635c60da1b60e01b815260040190565b600060405180830381855afa9150503d80600081146101c6576040519150601f19603f3d011682016040523d82523d6000602084013e6101cb565b606091505b5091509150816101da57600080fd5b808060200190518101906101ee9190610505565b949350505050565b336101ff6102cb565b6001600160a01b03161461022e5760405162461bcd60e51b8152600401610225906106a9565b60405180910390fd5b6102386000610491565b565b336102436102cb565b6001600160a01b0316146102695760405162461bcd60e51b8152600401610225906106a9565b6040516308f2839760e41b81526001600160a01b03831690638f28397090610295908490600401610630565b600060405180830381600087803b1580156102af57600080fd5b505af11580156102c3573d6000803e3d6000fd5b505050505050565b6000546001600160a01b031690565b336102e36102cb565b6001600160a01b0316146103095760405162461bcd60e51b8152600401610225906106a9565b60405163278f794360e11b81526001600160a01b03841690634f1ef2869034906103399086908690600401610644565b6000604051808303818588803b15801561035257600080fd5b505af1158015610366573d6000803e3d6000fd5b5050505050505050565b336103796102cb565b6001600160a01b03161461039f5760405162461bcd60e51b8152600401610225906106a9565b604051631b2ce7f360e11b81526001600160a01b03831690633659cfe690610295908490600401610630565b336103d46102cb565b6001600160a01b0316146103fa5760405162461bcd60e51b8152600401610225906106a9565b6001600160a01b03811661045f5760405162461bcd60e51b815260206004820152602660248201527f4f776e61626c653a206e6577206f776e657220697320746865207a65726f206160448201526564647265737360d01b6064820152608401610225565b61046881610491565b50565b6000806000836001600160a01b031660405161018b906303e1469160e61b815260040190565b600080546001600160a01b038381166001600160a01b0319831681178455604051919092169283917f8be0079c531659141344cd1fd0a4f28419497f9722a3daafe3b4186f6b6457e09190a35050565b6000602082840312156104f357600080fd5b81356104fe816106f4565b9392505050565b60006020828403121561051757600080fd5b81516104fe816106f4565b6000806040838503121561053557600080fd5b8235610540816106f4565b91506020830135610550816106f4565b809150509250929050565b60008060006060848603121561057057600080fd5b833561057b816106f4565b9250602084013561058b816106f4565b915060408401356001600160401b03808211156105a757600080fd5b818601915086601f8301126105bb57600080fd5b8135818111156105cd576105cd6106de565b604051601f8201601f19908116603f011681019083821181831017156105f5576105f56106de565b8160405282815289602084870101111561060e57600080fd5b8260208601602083013760006020848301015280955050505050509250925092565b6001600160a01b0391909116815260200190565b60018060a01b038316815260006020604081840152835180604085015260005b8181101561068057858101830151858201606001528201610664565b81811115610692576000606083870101525b50601f01601f191692909201606001949350505050565b6020808252818101527f4f776e61626c653a2063616c6c6572206973206e6f7420746865206f776e6572604082015260600190565b634e487b7160e01b600052604160045260246000fd5b6001600160a01b038116811461046857600080fdfea26469706673582212207240b38990a52bc008f8ef6148c6f36363b8fbb55bee70cee697cb8e4d4c00ce64736f6c63430008070033",
  "immutableReferences": {},
  "source": "// SPDX-License-Identifier: GPL-3.0\r\n\r\npragma solidity 0.8.7;\r\n\r\n/**\r\n * @title Storage\r\n * @dev Store & retrieve value in a variable\r\n */\r\n\r\nimport \"../Interfaces/IProxyManager.sol\";\r\nimport \"../Interfaces/IFactory.sol\";\r\nimport \"../Base/TokenGovernanceBaseContract.sol\";\r\nimport \"../Libraries/AddressLibrary.sol\";\r\nimport \"../Libraries/Library.sol\";\r\nimport \"@openzeppelin/contracts-upgradeable/proxy/utils/Initializable.sol\";\r\nimport \"@openzeppelin/contracts/proxy/beacon/UpgradeableBeacon.sol\";\r\nimport \"@openzeppelin/contracts/proxy/transparent/TransparentUpgradeableProxy.sol\";\r\nimport \"@openzeppelin/contracts/proxy/transparent/ProxyAdmin.sol\";\r\n\r\n\r\ncontract CertificatesPoolManager is IProxyManager, TokenGovernanceBaseContract{\r\n    using AddressLibrary for *;\r\n    using Library for *;\r\n\r\n    // EVENTS /////////////////////////////////////////\r\n    event _NewContracts(address Public, address Treasury, address Certis, address PrivateFactory, \r\n    address Private, address ProviderFactory, address Provider, address PriceConverter);\r\n\r\n    // DATA /////////////////////////////////////////\r\n    // Admin Proxy to manage all the TransparentUpgradeableProxies\r\n    ProxyAdmin private _Admin;\r\n\r\n    // proposition to change\r\n    Library.ProposedContractsStruct private _ProposedContracts;\r\n    \r\n    // Private Certificate Pools Factory\r\n    TransparentUpgradeableProxy private _PrivatePoolFactory;\r\n\r\n    // Private Certificates Pool\r\n    UpgradeableBeacon private _PrivateCertificatePoolBeacon;\r\n\r\n    // Provider Factory\r\n    TransparentUpgradeableProxy private _ProviderFactory;\r\n\r\n    // Provider\r\n    UpgradeableBeacon private _ProviderBeacon;\r\n\r\n    // Public Certificates Pool\r\n    TransparentUpgradeableProxy private _PublicCertificatesPool;\r\n\r\n    // Treasury\r\n    //GenericProxy private _Treasury;\r\n    TransparentUpgradeableProxy private _Treasury;\r\n\r\n    // Certis Token\r\n    TransparentUpgradeableProxy private _CertisToken;\r\n\r\n    // Price Converter\r\n    TransparentUpgradeableProxy private _PriceConverter;\r\n\r\n    // init\r\n    bool private _init;\r\n\r\n    // MODIFIERS /////////////////////////////////////////\r\n    modifier isNotInitialized(){\r\n        require(false == _init, \"EC26-\");\r\n        _;\r\n    }\r\n\r\n    // CONSTRUCTOR and INITIALIZATION /////////////////////////////////////////\r\n    constructor(uint256 PropositionLifeTime, uint8 PropositionThresholdPercentage, uint8 minWeightToProposePercentage, string memory contractName, string memory contractVersion) \r\n    {\r\n        super.TokenGovernanceContract_init(PropositionLifeTime, PropositionThresholdPercentage, minWeightToProposePercentage, msg.sender, address(this), contractName, contractVersion);\r\n        _Admin = new ProxyAdmin();\r\n        _init = false;\r\n    }\r\n\r\n    function InitializeContracts(Library.ProposedContractsStruct calldata initialContracts) \r\n        isFromChairPerson(msg.sender)\r\n        isNotInitialized()\r\n    external override\r\n    {\r\n        initProxies(initialContracts);\r\n        _init = true;\r\n    }\r\n\r\n    // FUNCTIONALITY /////////////////////////////////////////\r\n    // governance : contracts assignment and management\r\n    function upgradeContracts(Library.ProposedContractsStruct calldata UpgradeProposition) external override\r\n    {\r\n        _ProposedContracts = UpgradeProposition;\r\n        addProposition();\r\n    }\r\n\r\n    function propositionApproved() internal override\r\n    {\r\n        upgradeContractsImplementations();\r\n        removeProposition();\r\n    }\r\n\r\n    function propositionRejected() internal override\r\n    {\r\n        removeProposition();\r\n    }\r\n\r\n    function propositionExpired() internal override\r\n    {\r\n        removeProposition();\r\n    }\r\n\r\n    function removeProposition() internal\r\n    {\r\n       delete(_ProposedContracts);\r\n    }\r\n\r\n    function retrieveProposition() external override view returns(bytes32[] memory)\r\n    {\r\n        bytes32[] memory proposition = new bytes32[](8);\r\n        proposition[0] = AddressLibrary.AddressToBytes32(_ProposedContracts.NewPublicPoolAddress);\r\n        proposition[1] = AddressLibrary.AddressToBytes32(_ProposedContracts.NewTreasuryAddress);\r\n        proposition[2] = AddressLibrary.AddressToBytes32(_ProposedContracts.NewCertisTokenAddress);\r\n        proposition[3] = AddressLibrary.AddressToBytes32(_ProposedContracts.NewPrivatePoolFactoryAddress);\r\n        proposition[4] = AddressLibrary.AddressToBytes32(_ProposedContracts.NewPrivatePoolAddress);\r\n        proposition[5] = AddressLibrary.AddressToBytes32(_ProposedContracts.NewProviderFactoryAddress);\r\n        proposition[6] = AddressLibrary.AddressToBytes32(_ProposedContracts.NewProviderAddress);\r\n        proposition[7] = AddressLibrary.AddressToBytes32(_ProposedContracts.NewPriceConverterAddress);\r\n        return proposition;\r\n    }\r\n\r\n    function initProxies(Library.ProposedContractsStruct calldata initialContracts) private\r\n    {\r\n        _PublicCertificatesPool = new TransparentUpgradeableProxy(initialContracts.NewPublicPoolAddress, address(_Admin), initialContracts.NewPublicPoolData);\r\n        _Treasury = new TransparentUpgradeableProxy(initialContracts.NewTreasuryAddress, address(_Admin), initialContracts.NewTreasuryData);\r\n        _CertisToken = new TransparentUpgradeableProxy(initialContracts.NewCertisTokenAddress, address(_Admin), initialContracts.NewCertisTokenData);\r\n        _PrivatePoolFactory = new TransparentUpgradeableProxy(initialContracts.NewPrivatePoolFactoryAddress, address(_Admin), initialContracts.NewPrivatePoolFactoryData);\r\n        _PrivateCertificatePoolBeacon = new UpgradeableBeacon(initialContracts.NewPrivatePoolAddress);\r\n        _ProviderFactory = new TransparentUpgradeableProxy(initialContracts.NewProviderFactoryAddress, address(_Admin), initialContracts.NewProviderFactoryData);\r\n        _ProviderBeacon = new UpgradeableBeacon(initialContracts.NewProviderAddress);\r\n        _PriceConverter = new TransparentUpgradeableProxy(initialContracts.NewPriceConverterAddress, address(_Admin), initialContracts.NewPriceConverterData);\r\n\r\n        IFactory(address(_PrivatePoolFactory)).updateContractName(initialContracts.NewPrivatePoolContractName);\r\n        IFactory(address(_PrivatePoolFactory)).updateContractVersion(initialContracts.NewPrivatePoolContractVersion);\r\n    }\r\n\r\n    function upgradeContractsImplementations() private\r\n    {\r\n        upgradeContractImplementation(_PublicCertificatesPool, _ProposedContracts.NewPublicPoolAddress, _ProposedContracts.NewPublicPoolData);\r\n        upgradeContractImplementation(_Treasury, _ProposedContracts.NewTreasuryAddress, _ProposedContracts.NewTreasuryData);\r\n        upgradeContractImplementation(_CertisToken, _ProposedContracts.NewCertisTokenAddress, _ProposedContracts.NewCertisTokenData);\r\n        upgradeContractImplementation(_PrivatePoolFactory, _ProposedContracts.NewPrivatePoolFactoryAddress, _ProposedContracts.NewPrivatePoolFactoryData);\r\n        upgradeContractImplementation(_ProviderFactory, _ProposedContracts.NewProviderFactoryAddress, _ProposedContracts.NewProviderFactoryData);\r\n        upgradeContractImplementation(_PriceConverter, _ProposedContracts.NewPriceConverterAddress, _ProposedContracts.NewPriceConverterData);\r\n\r\n        if(address(0) != _ProposedContracts.NewPrivatePoolAddress)_PrivateCertificatePoolBeacon.upgradeTo(_ProposedContracts.NewPrivatePoolAddress);\r\n        if(address(0) != _ProposedContracts.NewProviderAddress)_ProviderBeacon.upgradeTo(_ProposedContracts.NewProviderAddress);\r\n\r\n        if(0 < bytes(_ProposedContracts.NewPrivatePoolContractName).length)\r\n            IFactory(address(_PrivatePoolFactory)).updateContractName(_ProposedContracts.NewPrivatePoolContractName);\r\n\r\n        if(0 < bytes(_ProposedContracts.NewPrivatePoolContractVersion).length)\r\n            IFactory(address(_PrivatePoolFactory)).updateContractVersion(_ProposedContracts.NewPrivatePoolContractVersion);\r\n        \r\n        emit _NewContracts(internalRetrieveImpl(_PublicCertificatesPool), internalRetrieveImpl(_Treasury), \r\n        internalRetrieveImpl(_CertisToken), internalRetrieveImpl(_PrivatePoolFactory), \r\n        internalRetrievePrivatePool(), internalRetrieveImpl(_ProviderFactory), internalRetrieveProvider(),\r\n        internalRetrieveImpl(_PriceConverter));\r\n    }\r\n\r\n    function upgradeContractImplementation(TransparentUpgradeableProxy proxy, address NewImpl, bytes memory Data) private\r\n    {\r\n        if(address(0) != NewImpl){\r\n            if(0 < Data.length)_Admin.upgradeAndCall(proxy, NewImpl, Data);\r\n            else _Admin.upgrade(proxy, NewImpl);\r\n        }\r\n    }\r\n\r\n    // configuration Proxies\r\n    function retrievePublicCertificatePoolProxy() external override view returns (address) {\r\n        return (address(_PublicCertificatesPool));\r\n    }\r\n\r\n    function retrieveTreasuryProxy() external override view returns (address) {\r\n        return (address(_Treasury));\r\n    }\r\n\r\n    function retrieveCertisTokenProxy() external override view returns (address) {\r\n        return (address(_CertisToken));\r\n    }\r\n\r\n    function retrievePrivatePoolFactoryProxy() external override view returns (address) {\r\n        return (address(_PrivatePoolFactory));\r\n    }\r\n\r\n    function retrievePrivatePoolBeacon() external override view returns (address) {\r\n        return (address(_PrivateCertificatePoolBeacon));\r\n    }\r\n\r\n    function retrieveProviderFactoryProxy() external override view returns (address) {\r\n        return (address(_ProviderFactory));\r\n    }\r\n\r\n    function retrieveProviderBeacon() external override view returns (address) {\r\n        return (address(_ProviderBeacon));\r\n    }\r\n\r\n     function retrievePriceConverterProxy() external override view returns (address) {\r\n        return (address(_PriceConverter));\r\n    }\r\n\r\n    // configuration implementations\r\n    function retrievePublicCertificatePool() external override view returns (address) {\r\n        return internalRetrieveImpl(_PublicCertificatesPool);\r\n    }\r\n\r\n    function retrieveTreasury() external override view returns (address) {\r\n        return internalRetrieveImpl(_Treasury);\r\n    }\r\n\r\n    function retrieveCertisToken() external override view returns (address) {\r\n        return internalRetrieveImpl(_CertisToken);\r\n    }\r\n\r\n    function retrievePrivatePoolFactory() external override view returns (address) {\r\n        return internalRetrieveImpl(_PrivatePoolFactory);\r\n    }\r\n\r\n    function retrievePrivatePool() external override view returns (address) {\r\n        return internalRetrievePrivatePool();\r\n    }\r\n\r\n    function retrieveProviderFactory() external override view returns (address) {\r\n        return internalRetrieveImpl(_ProviderFactory);\r\n    }\r\n\r\n    function retrieveProvider() external override view returns (address) {\r\n        return internalRetrieveProvider();\r\n    }\r\n\r\n    function retrievePriceConverter() external override view returns (address) {\r\n        return internalRetrieveImpl(_PriceConverter);\r\n    }\r\n\r\n    function isInitialized() external override view returns(bool){\r\n        return _init;\r\n    }\r\n\r\n    // internal\r\n    function internalRetrieveImpl(TransparentUpgradeableProxy proxy) internal view returns (address){\r\n        return _Admin.getProxyImplementation(proxy);\r\n    }\r\n\r\n    function internalRetrievePrivatePool() internal view returns (address) {\r\n        return _PrivateCertificatePoolBeacon.implementation();\r\n    }\r\n\r\n    function internalRetrieveProvider() internal view returns (address) {\r\n        return _ProviderBeacon.implementation();\r\n    }\r\n  \r\n}",
  "sourcePath": "C:/Users/d-aam/GitHub/Certificates/contracts/DeployedContracts/CertificatesPoolManager.sol",
  "compiler": {
    "name": "solc",
    "version": "0.8.7+commit.e28d00a7.Emscripten.clang"
  },
  "schemaVersion": "3.3.4",
  "updatedAt": "2021-10-14T12:39:50.617Z",
  "networkType": "ethereum",
  "devdoc": {
    "kind": "dev",
    "methods": {},
    "version": 1
  },
  "userdoc": {
    "kind": "user",
    "methods": {},
    "version": 1
  }
}