{
  "contractName": "CertificatesPoolManager",
  "abi": [
    {
      "inputs": [
        {
          "internalType": "string",
          "name": "contractName",
          "type": "string"
        },
        {
          "internalType": "string",
          "name": "contractVersion",
          "type": "string"
        }
      ],
      "stateMutability": "nonpayable",
      "type": "constructor"
    },
    {
      "anonymous": false,
      "inputs": [
        {
          "indexed": false,
          "internalType": "uint256",
          "name": "Id",
          "type": "uint256"
        },
        {
          "indexed": true,
          "internalType": "address",
          "name": "Proposer",
          "type": "address"
        },
        {
          "indexed": false,
          "internalType": "uint256",
          "name": "Deadline",
          "type": "uint256"
        },
        {
          "indexed": false,
          "internalType": "uint256",
          "name": "Threshold",
          "type": "uint256"
        }
      ],
      "name": "_AddedProposition",
      "type": "event"
    },
    {
      "anonymous": false,
      "inputs": [
        {
          "indexed": false,
          "internalType": "uint256",
          "name": "Id",
          "type": "uint256"
        },
        {
          "indexed": true,
          "internalType": "address",
          "name": "Proposer",
          "type": "address"
        }
      ],
      "name": "_CancelledProposition",
      "type": "event"
    },
    {
      "anonymous": false,
      "inputs": [
        {
          "indexed": false,
          "internalType": "address",
          "name": "Public",
          "type": "address"
        },
        {
          "indexed": false,
          "internalType": "address",
          "name": "Treasury",
          "type": "address"
        },
        {
          "indexed": false,
          "internalType": "address",
          "name": "Certis",
          "type": "address"
        },
        {
          "indexed": false,
          "internalType": "address",
          "name": "PrivateFactory",
          "type": "address"
        },
        {
          "indexed": false,
          "internalType": "address",
          "name": "Private",
          "type": "address"
        },
        {
          "indexed": false,
          "internalType": "address",
          "name": "ProviderFactory",
          "type": "address"
        },
        {
          "indexed": false,
          "internalType": "address",
          "name": "Provider",
          "type": "address"
        },
        {
          "indexed": false,
          "internalType": "address",
          "name": "PriceConverter",
          "type": "address"
        },
        {
          "indexed": false,
          "internalType": "address",
          "name": "PropositionSettings",
          "type": "address"
        },
        {
          "indexed": false,
          "internalType": "address",
          "name": "ENS",
          "type": "address"
        }
      ],
      "name": "_NewContracts",
      "type": "event"
    },
    {
      "anonymous": false,
      "inputs": [
        {
          "indexed": false,
          "internalType": "uint256",
          "name": "Id",
          "type": "uint256"
        },
        {
          "indexed": true,
          "internalType": "address",
          "name": "Proposer",
          "type": "address"
        },
        {
          "indexed": false,
          "internalType": "uint256",
          "name": "VotesFor",
          "type": "uint256"
        },
        {
          "indexed": false,
          "internalType": "uint256",
          "name": "VotesAgainst",
          "type": "uint256"
        }
      ],
      "name": "_PropositionApproved",
      "type": "event"
    },
    {
      "anonymous": false,
      "inputs": [
        {
          "indexed": false,
          "internalType": "uint256",
          "name": "Id",
          "type": "uint256"
        },
        {
          "indexed": true,
          "internalType": "address",
          "name": "Proposer",
          "type": "address"
        },
        {
          "indexed": false,
          "internalType": "uint256",
          "name": "VotesFor",
          "type": "uint256"
        },
        {
          "indexed": false,
          "internalType": "uint256",
          "name": "VotesAgainst",
          "type": "uint256"
        }
      ],
      "name": "_PropositionRejected",
      "type": "event"
    },
    {
      "anonymous": false,
      "inputs": [
        {
          "indexed": false,
          "internalType": "uint256",
          "name": "Id",
          "type": "uint256"
        },
        {
          "indexed": true,
          "internalType": "address",
          "name": "Voter",
          "type": "address"
        },
        {
          "indexed": false,
          "internalType": "bool",
          "name": "Vote",
          "type": "bool"
        },
        {
          "indexed": false,
          "internalType": "uint256",
          "name": "AmountTokens",
          "type": "uint256"
        }
      ],
      "name": "_PropositionVote",
      "type": "event"
    },
    {
      "anonymous": false,
      "inputs": [
        {
          "indexed": true,
          "internalType": "uint256",
          "name": "Id",
          "type": "uint256"
        },
        {
          "indexed": false,
          "internalType": "address",
          "name": "From",
          "type": "address"
        },
        {
          "indexed": false,
          "internalType": "address",
          "name": "To",
          "type": "address"
        },
        {
          "indexed": false,
          "internalType": "uint256",
          "name": "Amount",
          "type": "uint256"
        }
      ],
      "name": "_UsedTokensTransfered",
      "type": "event"
    },
    {
      "inputs": [],
      "name": "cancelProposition",
      "outputs": [],
      "stateMutability": "nonpayable",
      "type": "function"
    },
    {
      "inputs": [
        {
          "internalType": "address",
          "name": "from",
          "type": "address"
        },
        {
          "internalType": "address",
          "name": "to",
          "type": "address"
        },
        {
          "internalType": "uint256",
          "name": "amount",
          "type": "uint256"
        }
      ],
      "name": "onTokenBalanceChanged",
      "outputs": [],
      "stateMutability": "nonpayable",
      "type": "function"
    },
    {
      "inputs": [],
      "name": "retrieveChairPerson",
      "outputs": [
        {
          "internalType": "address",
          "name": "",
          "type": "address"
        }
      ],
      "stateMutability": "view",
      "type": "function",
      "constant": true
    },
    {
      "inputs": [],
      "name": "retrieveContractConfig",
      "outputs": [
        {
          "internalType": "string",
          "name": "",
          "type": "string"
        },
        {
          "internalType": "string",
          "name": "",
          "type": "string"
        }
      ],
      "stateMutability": "view",
      "type": "function",
      "constant": true
    },
    {
      "inputs": [],
      "name": "retrieveManagerContract",
      "outputs": [
        {
          "internalType": "address",
          "name": "",
          "type": "address"
        }
      ],
      "stateMutability": "view",
      "type": "function",
      "constant": true
    },
    {
      "inputs": [],
      "name": "retrieveNextPropId",
      "outputs": [
        {
          "internalType": "uint256",
          "name": "",
          "type": "uint256"
        }
      ],
      "stateMutability": "view",
      "type": "function",
      "constant": true
    },
    {
      "inputs": [
        {
          "internalType": "address",
          "name": "addr",
          "type": "address"
        },
        {
          "internalType": "uint256",
          "name": "nonce",
          "type": "uint256"
        }
      ],
      "name": "retrieveNonce",
      "outputs": [
        {
          "internalType": "bool",
          "name": "",
          "type": "bool"
        }
      ],
      "stateMutability": "view",
      "type": "function",
      "constant": true
    },
    {
      "inputs": [],
      "name": "retrievePropositionStatus",
      "outputs": [
        {
          "internalType": "address",
          "name": "",
          "type": "address"
        },
        {
          "internalType": "uint256",
          "name": "",
          "type": "uint256"
        },
        {
          "internalType": "uint256",
          "name": "",
          "type": "uint256"
        },
        {
          "internalType": "uint256",
          "name": "",
          "type": "uint256"
        },
        {
          "internalType": "uint256",
          "name": "",
          "type": "uint256"
        }
      ],
      "stateMutability": "view",
      "type": "function",
      "constant": true
    },
    {
      "inputs": [
        {
          "internalType": "uint256",
          "name": "PropId",
          "type": "uint256"
        },
        {
          "internalType": "address",
          "name": "voter",
          "type": "address"
        }
      ],
      "name": "retrieveVotesForVoter",
      "outputs": [
        {
          "internalType": "uint256",
          "name": "",
          "type": "uint256"
        }
      ],
      "stateMutability": "view",
      "type": "function",
      "constant": true
    },
    {
      "inputs": [
        {
          "internalType": "bool",
          "name": "vote",
          "type": "bool"
        }
      ],
      "name": "voteProposition",
      "outputs": [],
      "stateMutability": "nonpayable",
      "type": "function"
    },
    {
      "inputs": [
        {
          "internalType": "address",
          "name": "voter",
          "type": "address"
        },
        {
          "internalType": "uint256",
          "name": "propID",
          "type": "uint256"
        },
        {
          "internalType": "bool",
          "name": "vote",
          "type": "bool"
        },
        {
          "internalType": "uint256",
          "name": "nonce",
          "type": "uint256"
        },
        {
          "internalType": "uint256",
          "name": "deadline",
          "type": "uint256"
        },
        {
          "internalType": "bytes",
          "name": "signature",
          "type": "bytes"
        }
      ],
      "name": "votePropositionOnBehalfOf",
      "outputs": [],
      "stateMutability": "nonpayable",
      "type": "function"
    },
    {
      "inputs": [
        {
          "components": [
            {
              "internalType": "address",
              "name": "NewPublicPoolAddress",
              "type": "address"
            },
            {
              "internalType": "address",
              "name": "NewTreasuryAddress",
              "type": "address"
            },
            {
              "internalType": "address",
              "name": "NewCertisTokenAddress",
              "type": "address"
            },
            {
              "internalType": "address",
              "name": "NewPrivatePoolFactoryAddress",
              "type": "address"
            },
            {
              "internalType": "address",
              "name": "NewPrivatePoolAddress",
              "type": "address"
            },
            {
              "internalType": "address",
              "name": "NewProviderFactoryAddress",
              "type": "address"
            },
            {
              "internalType": "address",
              "name": "NewProviderAddress",
              "type": "address"
            },
            {
              "internalType": "address",
              "name": "NewPriceConverterAddress",
              "type": "address"
            },
            {
              "internalType": "address",
              "name": "NewPropositionSettingsAddress",
              "type": "address"
            },
            {
              "internalType": "address",
              "name": "NewENSAddress",
              "type": "address"
            },
            {
              "internalType": "bytes",
              "name": "NewPublicPoolData",
              "type": "bytes"
            },
            {
              "internalType": "bytes",
              "name": "NewTreasuryData",
              "type": "bytes"
            },
            {
              "internalType": "bytes",
              "name": "NewCertisTokenData",
              "type": "bytes"
            },
            {
              "internalType": "bytes",
              "name": "NewPrivatePoolFactoryData",
              "type": "bytes"
            },
            {
              "internalType": "bytes",
              "name": "NewProviderFactoryData",
              "type": "bytes"
            },
            {
              "internalType": "bytes",
              "name": "NewPriceConverterData",
              "type": "bytes"
            },
            {
              "internalType": "bytes",
              "name": "NewPropositionSettingsData",
              "type": "bytes"
            },
            {
              "internalType": "bytes",
              "name": "NewENSData",
              "type": "bytes"
            },
            {
              "internalType": "string",
              "name": "NewPrivatePoolContractName",
              "type": "string"
            },
            {
              "internalType": "string",
              "name": "NewPrivatePoolContractVersion",
              "type": "string"
            }
          ],
          "internalType": "struct Library.ProposedContractsStruct",
          "name": "initialContracts",
          "type": "tuple"
        }
      ],
      "name": "InitializeContracts",
      "outputs": [],
      "stateMutability": "nonpayable",
      "type": "function"
    },
    {
      "inputs": [
        {
          "components": [
            {
              "internalType": "address",
              "name": "NewPublicPoolAddress",
              "type": "address"
            },
            {
              "internalType": "address",
              "name": "NewTreasuryAddress",
              "type": "address"
            },
            {
              "internalType": "address",
              "name": "NewCertisTokenAddress",
              "type": "address"
            },
            {
              "internalType": "address",
              "name": "NewPrivatePoolFactoryAddress",
              "type": "address"
            },
            {
              "internalType": "address",
              "name": "NewPrivatePoolAddress",
              "type": "address"
            },
            {
              "internalType": "address",
              "name": "NewProviderFactoryAddress",
              "type": "address"
            },
            {
              "internalType": "address",
              "name": "NewProviderAddress",
              "type": "address"
            },
            {
              "internalType": "address",
              "name": "NewPriceConverterAddress",
              "type": "address"
            },
            {
              "internalType": "address",
              "name": "NewPropositionSettingsAddress",
              "type": "address"
            },
            {
              "internalType": "address",
              "name": "NewENSAddress",
              "type": "address"
            },
            {
              "internalType": "bytes",
              "name": "NewPublicPoolData",
              "type": "bytes"
            },
            {
              "internalType": "bytes",
              "name": "NewTreasuryData",
              "type": "bytes"
            },
            {
              "internalType": "bytes",
              "name": "NewCertisTokenData",
              "type": "bytes"
            },
            {
              "internalType": "bytes",
              "name": "NewPrivatePoolFactoryData",
              "type": "bytes"
            },
            {
              "internalType": "bytes",
              "name": "NewProviderFactoryData",
              "type": "bytes"
            },
            {
              "internalType": "bytes",
              "name": "NewPriceConverterData",
              "type": "bytes"
            },
            {
              "internalType": "bytes",
              "name": "NewPropositionSettingsData",
              "type": "bytes"
            },
            {
              "internalType": "bytes",
              "name": "NewENSData",
              "type": "bytes"
            },
            {
              "internalType": "string",
              "name": "NewPrivatePoolContractName",
              "type": "string"
            },
            {
              "internalType": "string",
              "name": "NewPrivatePoolContractVersion",
              "type": "string"
            }
          ],
          "internalType": "struct Library.ProposedContractsStruct",
          "name": "UpgradeProposition",
          "type": "tuple"
        }
      ],
      "name": "upgradeContracts",
      "outputs": [],
      "stateMutability": "nonpayable",
      "type": "function"
    },
    {
      "inputs": [],
      "name": "retrieveProposition",
      "outputs": [
        {
          "internalType": "bytes32[]",
          "name": "",
          "type": "bytes32[]"
        }
      ],
      "stateMutability": "view",
      "type": "function",
      "constant": true
    },
    {
      "inputs": [],
      "name": "retrievePublicCertificatePoolProxy",
      "outputs": [
        {
          "internalType": "address",
          "name": "",
          "type": "address"
        }
      ],
      "stateMutability": "view",
      "type": "function",
      "constant": true
    },
    {
      "inputs": [],
      "name": "retrieveTreasuryProxy",
      "outputs": [
        {
          "internalType": "address",
          "name": "",
          "type": "address"
        }
      ],
      "stateMutability": "view",
      "type": "function",
      "constant": true
    },
    {
      "inputs": [],
      "name": "retrieveCertisTokenProxy",
      "outputs": [
        {
          "internalType": "address",
          "name": "",
          "type": "address"
        }
      ],
      "stateMutability": "view",
      "type": "function",
      "constant": true
    },
    {
      "inputs": [],
      "name": "retrievePrivatePoolFactoryProxy",
      "outputs": [
        {
          "internalType": "address",
          "name": "",
          "type": "address"
        }
      ],
      "stateMutability": "view",
      "type": "function",
      "constant": true
    },
    {
      "inputs": [],
      "name": "retrievePrivatePoolBeacon",
      "outputs": [
        {
          "internalType": "address",
          "name": "",
          "type": "address"
        }
      ],
      "stateMutability": "view",
      "type": "function",
      "constant": true
    },
    {
      "inputs": [],
      "name": "retrieveProviderFactoryProxy",
      "outputs": [
        {
          "internalType": "address",
          "name": "",
          "type": "address"
        }
      ],
      "stateMutability": "view",
      "type": "function",
      "constant": true
    },
    {
      "inputs": [],
      "name": "retrieveProviderBeacon",
      "outputs": [
        {
          "internalType": "address",
          "name": "",
          "type": "address"
        }
      ],
      "stateMutability": "view",
      "type": "function",
      "constant": true
    },
    {
      "inputs": [],
      "name": "retrievePriceConverterProxy",
      "outputs": [
        {
          "internalType": "address",
          "name": "",
          "type": "address"
        }
      ],
      "stateMutability": "view",
      "type": "function",
      "constant": true
    },
    {
      "inputs": [],
      "name": "retrievePropositionSettingsProxy",
      "outputs": [
        {
          "internalType": "address",
          "name": "",
          "type": "address"
        }
      ],
      "stateMutability": "view",
      "type": "function",
      "constant": true
    },
    {
      "inputs": [],
      "name": "retrieveENSProxy",
      "outputs": [
        {
          "internalType": "address",
          "name": "",
          "type": "address"
        }
      ],
      "stateMutability": "view",
      "type": "function",
      "constant": true
    },
    {
      "inputs": [],
      "name": "retrievePublicCertificatePool",
      "outputs": [
        {
          "internalType": "address",
          "name": "",
          "type": "address"
        }
      ],
      "stateMutability": "view",
      "type": "function",
      "constant": true
    },
    {
      "inputs": [],
      "name": "retrieveTreasury",
      "outputs": [
        {
          "internalType": "address",
          "name": "",
          "type": "address"
        }
      ],
      "stateMutability": "view",
      "type": "function",
      "constant": true
    },
    {
      "inputs": [],
      "name": "retrieveCertisToken",
      "outputs": [
        {
          "internalType": "address",
          "name": "",
          "type": "address"
        }
      ],
      "stateMutability": "view",
      "type": "function",
      "constant": true
    },
    {
      "inputs": [],
      "name": "retrievePrivatePoolFactory",
      "outputs": [
        {
          "internalType": "address",
          "name": "",
          "type": "address"
        }
      ],
      "stateMutability": "view",
      "type": "function",
      "constant": true
    },
    {
      "inputs": [],
      "name": "retrievePrivatePool",
      "outputs": [
        {
          "internalType": "address",
          "name": "",
          "type": "address"
        }
      ],
      "stateMutability": "view",
      "type": "function",
      "constant": true
    },
    {
      "inputs": [],
      "name": "retrieveProviderFactory",
      "outputs": [
        {
          "internalType": "address",
          "name": "",
          "type": "address"
        }
      ],
      "stateMutability": "view",
      "type": "function",
      "constant": true
    },
    {
      "inputs": [],
      "name": "retrieveProvider",
      "outputs": [
        {
          "internalType": "address",
          "name": "",
          "type": "address"
        }
      ],
      "stateMutability": "view",
      "type": "function",
      "constant": true
    },
    {
      "inputs": [],
      "name": "retrievePriceConverter",
      "outputs": [
        {
          "internalType": "address",
          "name": "",
          "type": "address"
        }
      ],
      "stateMutability": "view",
      "type": "function",
      "constant": true
    },
    {
      "inputs": [],
      "name": "retrievePropositionSettings",
      "outputs": [
        {
          "internalType": "address",
          "name": "",
          "type": "address"
        }
      ],
      "stateMutability": "view",
      "type": "function",
      "constant": true
    },
    {
      "inputs": [],
      "name": "retrieveENS",
      "outputs": [
        {
          "internalType": "address",
          "name": "",
          "type": "address"
        }
      ],
      "stateMutability": "view",
      "type": "function",
      "constant": true
    },
    {
      "inputs": [],
      "name": "isInitialized",
      "outputs": [
        {
          "internalType": "bool",
          "name": "",
          "type": "bool"
        }
      ],
      "stateMutability": "view",
      "type": "function",
      "constant": true
    }
  ],
  "bytecode": "0x60806040523480156200001157600080fd5b5060405162005acd38038062005acd83398101604081905262000034916200039f565b6200004d33308484620000ae60201b620011641760201c565b6040516200005b9062000234565b604051809103906000f08015801562000078573d6000803e3d6000fd5b50600d80546001600160a01b0319166001600160a01b03929092169190911790555050602b805460ff60a01b19169055620004aa565b600354610100900460ff1680620000c8575060035460ff16155b620000f05760405162461bcd60e51b8152600401620000e79062000409565b60405180910390fd5b600354610100900460ff1615801562000113576003805461ffff19166101011790555b62000129846200016f60201b620012111760201c565b600480546001600160a01b0319166001600160a01b0387161790556000600b5562000155838362000204565b801562000168576003805461ff00191690555b5050505050565b600354610100900460ff168062000189575060035460ff16155b620001a85760405162461bcd60e51b8152600401620000e79062000409565b600354610100900460ff16158015620001cb576003805461ffff19166101011790555b6003805462010000600160b01b031916620100006001600160a01b03851602179055801562000200576003805461ff00191690555b5050565b81516200021990600090602085019062000242565b5080516200022f90600190602084019062000242565b505050565b6107bd806200531083390190565b828054620002509062000457565b90600052602060002090601f016020900481019282620002745760008555620002bf565b82601f106200028f57805160ff1916838001178555620002bf565b82800160010185558215620002bf579182015b82811115620002bf578251825591602001919060010190620002a2565b50620002cd929150620002d1565b5090565b5b80821115620002cd5760008155600101620002d2565b600082601f830112620002fa57600080fd5b81516001600160401b038082111562000317576200031762000494565b604051601f8301601f19908116603f0116810190828211818310171562000342576200034262000494565b816040528381526020925086838588010111156200035f57600080fd5b600091505b8382101562000383578582018301518183018401529082019062000364565b83821115620003955760008385830101525b9695505050505050565b60008060408385031215620003b357600080fd5b82516001600160401b0380821115620003cb57600080fd5b620003d986838701620002e8565b93506020850151915080821115620003f057600080fd5b50620003ff85828601620002e8565b9150509250929050565b6020808252602e908201527f496e697469616c697a61626c653a20636f6e747261637420697320616c72656160408201526d191e481a5b9a5d1a585b1a5e995960921b606082015260800190565b600181811c908216806200046c57607f821691505b602082108114156200048e57634e487b7160e01b600052602260045260246000fd5b50919050565b634e487b7160e01b600052604160045260246000fd5b614e5680620004ba6000396000f3fe60806040523480156200001157600080fd5b5060043610620001c65760003560e01c8063029b967314620001cb57806304cc67a914620001ed57806322d929e11462000200578063392e53cd146200020a5780633c65d42714620002295780633c7df55d146200023b5780633feca4ca14620002545780634044adb2146200029057806348a9ddfe14620002c95780634b19aa1614620002d357806355457ee914620002dd5780635773bc2314620002e757806359df8e7f14620002f95780635a3794e914620003105780635b362e84146200032257806360255415146200033a57806367717177146200034c5780636c59494814620003565780637634af78146200036d5780637c2f3aaf146200037f5780637faa3d6f1462000391578063840f6d1714620003a857806387552a0d14620003ea57806391f9167114620003fc578063a16374d21462000413578063a42e1339146200041d578063a93316f51462000427578063aa33380a1462000440578063c50ec82b1462000452578063d2116a02146200045c578063da3dce261462000476578063db85bc4d1462000488578063ee2aa36a146200049a578063efd15d1714620004a4578063f5ad9acc14620004ae575b600080fd5b620001d5620004c0565b604051620001e4919062003279565b60405180910390f35b600b545b604051908152602001620001e4565b620001d5620004df565b602b54600160a01b900460ff165b6040519015158152602001620001e4565b6022546001600160a01b0316620001d5565b620002526200024c36600462002f01565b620004f9565b005b620002186200026536600462002f47565b6001600160a01b03919091166000908152600260209081526040808320938352929052205460ff1690565b620001f1620002a13660046200310d565b6000918252600c602090815260408084206001600160a01b0393909316845291905290205490565b620001d562000603565b620001d56200061d565b6200025262000629565b6024546001600160a01b0316620001d5565b620002526200030a366004620030cf565b62000703565b6027546001600160a01b0316620001d5565b6003546201000090046001600160a01b0316620001d5565b6029546001600160a01b0316620001d5565b620001d562000722565b6200025262000367366004620030cf565b6200073c565b602b546001600160a01b0316620001d5565b6023546001600160a01b0316620001d5565b62000252620003a236600462002f76565b62000821565b600654600754600854600954600a54604080516001600160a01b0390961686526020860194909452928401919091526060830152608082015260a001620001e4565b602a546001600160a01b0316620001d5565b620002526200040d36600462003075565b62000845565b620001d562000851565b620001d56200086b565b6200043162000885565b604051620001e4919062003359565b6026546001600160a01b0316620001d5565b620001d562000fed565b6200046662000ff9565b604051620001e4929190620033f4565b6028546001600160a01b0316620001d5565b6004546001600160a01b0316620001d5565b620001d562001130565b620001d56200114a565b6025546001600160a01b0316620001d5565b602854600090620004da906001600160a01b0316620012a6565b905090565b602454600090620004da906001600160a01b0316620012a6565b3373__Library_______________________________6337ea306382600360029054906101000a90046001600160a01b03166001600160a01b031663da3dce266040518163ffffffff1660e01b815260040160206040518083038186803b1580156200056457600080fd5b505afa15801562000579573d6000803e3d6000fd5b505050506040513d601f19601f820116820180604052508101906200059f919062002ee1565b6040518363ffffffff1660e01b8152600401620005be9291906200328d565b60006040518083038186803b158015620005d757600080fd5b505af4158015620005ec573d6000803e3d6000fd5b50505050620005fd84848462001333565b50505050565b602a54600090620004da906001600160a01b0316620012a6565b6000620004da6200135a565b60016200063681620013db565b6006546040516337ea306360e01b8152339173__Library_______________________________916337ea3063916200067e9185916001600160a01b0316906004016200328d565b60006040518083038186803b1580156200069757600080fd5b505af4158015620006ac573d6000803e3d6000fd5b50505050620006ba62001468565b6006546005546040519081526001600160a01b03909116907f1fe8aec10c0a50fa765076161e08c1f961ced69594ff45cf7d559f593afe14799060200160405180910390a25050565b80600e62000712828262003742565b9050506200071f62001493565b50565b602254600090620004da906001600160a01b0316620012a6565b600480546040516337ea306360e01b8152339273__Library_______________________________926337ea306392620007839286926001600160a01b031691016200328d565b60006040518083038186803b1580156200079c57600080fd5b505af4158015620007b1573d6000803e3d6000fd5b5050602b54600160a01b900460ff16159150620007ff90505760405162461bcd60e51b8152602060048201526005602482015264454332362d60d81b60448201526064015b60405180910390fd5b6200080a8262001812565b5050602b805460ff60a01b1916600160a01b179055565b6200083186868686868662001e0a565b6200083d868562001f78565b505050505050565b6200071f338262001f78565b602b54600090620004da906001600160a01b0316620012a6565b602654600090620004da906001600160a01b0316620012a6565b60408051600a80825261016082019092526060916000919060208201610140803683375050600e5460405163bc215e8560e01b815292935073__AddressLibrary________________________9263bc215e859250620008f2916001600160a01b03169060040162003279565b60206040518083038186803b1580156200090b57600080fd5b505af415801562000920573d6000803e3d6000fd5b505050506040513d601f19601f82011682018060405250810190620009469190620030b5565b816000815181106200095c576200095c620036e7565b6020908102919091010152600f5460405163bc215e8560e01b815273__AddressLibrary________________________9163bc215e8591620009ab916001600160a01b03169060040162003279565b60206040518083038186803b158015620009c457600080fd5b505af4158015620009d9573d6000803e3d6000fd5b505050506040513d601f19601f82011682018060405250810190620009ff9190620030b5565b8160018151811062000a155762000a15620036e7565b602090810291909101015260105460405163bc215e8560e01b815273__AddressLibrary________________________9163bc215e859162000a64916001600160a01b03169060040162003279565b60206040518083038186803b15801562000a7d57600080fd5b505af415801562000a92573d6000803e3d6000fd5b505050506040513d601f19601f8201168201806040525081019062000ab89190620030b5565b8160028151811062000ace5762000ace620036e7565b602090810291909101015260115460405163bc215e8560e01b815273__AddressLibrary________________________9163bc215e859162000b1d916001600160a01b03169060040162003279565b60206040518083038186803b15801562000b3657600080fd5b505af415801562000b4b573d6000803e3d6000fd5b505050506040513d601f19601f8201168201806040525081019062000b719190620030b5565b8160038151811062000b875762000b87620036e7565b602090810291909101015260125460405163bc215e8560e01b815273__AddressLibrary________________________9163bc215e859162000bd6916001600160a01b03169060040162003279565b60206040518083038186803b15801562000bef57600080fd5b505af415801562000c04573d6000803e3d6000fd5b505050506040513d601f19601f8201168201806040525081019062000c2a9190620030b5565b8160048151811062000c405762000c40620036e7565b602090810291909101015260135460405163bc215e8560e01b815273__AddressLibrary________________________9163bc215e859162000c8f916001600160a01b03169060040162003279565b60206040518083038186803b15801562000ca857600080fd5b505af415801562000cbd573d6000803e3d6000fd5b505050506040513d601f19601f8201168201806040525081019062000ce39190620030b5565b8160058151811062000cf95762000cf9620036e7565b602090810291909101015260145460405163bc215e8560e01b815273__AddressLibrary________________________9163bc215e859162000d48916001600160a01b03169060040162003279565b60206040518083038186803b15801562000d6157600080fd5b505af415801562000d76573d6000803e3d6000fd5b505050506040513d601f19601f8201168201806040525081019062000d9c9190620030b5565b8160068151811062000db25762000db2620036e7565b602090810291909101015260155460405163bc215e8560e01b815273__AddressLibrary________________________9163bc215e859162000e01916001600160a01b03169060040162003279565b60206040518083038186803b15801562000e1a57600080fd5b505af415801562000e2f573d6000803e3d6000fd5b505050506040513d601f19601f8201168201806040525081019062000e559190620030b5565b8160078151811062000e6b5762000e6b620036e7565b602090810291909101015260165460405163bc215e8560e01b815273__AddressLibrary________________________9163bc215e859162000eba916001600160a01b03169060040162003279565b60206040518083038186803b15801562000ed357600080fd5b505af415801562000ee8573d6000803e3d6000fd5b505050506040513d601f19601f8201168201806040525081019062000f0e9190620030b5565b8160088151811062000f245762000f24620036e7565b602090810291909101015260175460405163bc215e8560e01b815273__AddressLibrary________________________9163bc215e859162000f73916001600160a01b03169060040162003279565b60206040518083038186803b15801562000f8c57600080fd5b505af415801562000fa1573d6000803e3d6000fd5b505050506040513d601f19601f8201168201806040525081019062000fc79190620030b5565b8160098151811062000fdd5762000fdd620036e7565b6020908102919091010152919050565b6000620004da620020a1565b606080600060018180546200100e9062003676565b80601f01602080910402602001604051908101604052809291908181526020018280546200103c9062003676565b80156200108d5780601f1062001061576101008083540402835291602001916200108d565b820191906000526020600020905b8154815290600101906020018083116200106f57829003601f168201915b50505050509150808054620010a29062003676565b80601f0160208091040260200160405190810160405280929190818152602001828054620010d09062003676565b8015620011215780601f10620010f55761010080835404028352916020019162001121565b820191906000526020600020905b8154815290600101906020018083116200110357829003601f168201915b50505050509050915091509091565b602954600090620004da906001600160a01b0316620012a6565b602754600090620004da906001600160a01b0316620012a6565b600354610100900460ff16806200117e575060035460ff16155b6200119d5760405162461bcd60e51b8152600401620007f69062003432565b600354610100900460ff16158015620011c0576003805461ffff19166101011790555b620011cb8462001211565b600480546001600160a01b0319166001600160a01b0387161790556000600b55620011f78383620020e7565b80156200120a576003805461ff00191690555b5050505050565b600354610100900460ff16806200122b575060035460ff16155b6200124a5760405162461bcd60e51b8152600401620007f69062003432565b600354610100900460ff161580156200126d576003805461ffff19166101011790555b6003805462010000600160b01b031916620100006001600160a01b038516021790558015620012a2576003805461ff00191690555b5050565b600d546040516310270e3d60e11b81526000916001600160a01b03169063204e1c7a90620012d990859060040162003279565b60206040518083038186803b158015620012f257600080fd5b505afa15801562001307573d6000803e3d6000fd5b505050506040513d601f19601f820116820180604052508101906200132d919062002ee1565b92915050565b6200133d62002112565b15156001141562001355576200135583838362002152565b505050565b60255460408051635c60da1b60e01b815290516000926001600160a01b031691635c60da1b916004808301926020929190829003018186803b158015620013a057600080fd5b505afa158015620013b5573d6000803e3d6000fd5b505050506040513d601f19601f82011682018060405250810190620004da919062002ee1565b80156200142757620013ec62002112565b15156001146200071f5760405162461bcd60e51b8152602060048201526005602482015264454332352d60d81b6044820152606401620007f6565b6200143162002112565b156200071f5760405162461bcd60e51b8152602060048201526005602482015264454332342d60d81b6044820152606401620007f6565b60006005819055600680546001600160a01b0319169055600781905560088190556009819055600a55565b6000620014a081620013db565b60045433906000906001600160a01b0316821415620014c2575060016200160c565b6000620014cf83620022ca565b90506000600360029054906101000a90046001600160a01b03166001600160a01b03166387552a0d6040518163ffffffff1660e01b815260040160206040518083038186803b1580156200152257600080fd5b505afa15801562001537573d6000803e3d6000fd5b505050506040513d601f19601f820116820180604052508101906200155d919062002ee1565b6001600160a01b031663b049473f6040518163ffffffff1660e01b815260040160606040518083038186803b1580156200159657600080fd5b505afa158015620015ab573d6000803e3d6000fd5b505050506040513d601f19601f82011682018060405250810190620015d1919062003140565b925050506064620015e1620023d7565b620015f09060ff841662003524565b620015fc919062003501565b8211156200160957600192505b50505b600181151514620016485760405162461bcd60e51b8152602060048201526005602482015264454332322d60d81b6044820152606401620007f6565b600080600360029054906101000a90046001600160a01b03166001600160a01b03166387552a0d6040518163ffffffff1660e01b815260040160206040518083038186803b1580156200169a57600080fd5b505afa158015620016af573d6000803e3d6000fd5b505050506040513d601f19601f82011682018060405250810190620016d5919062002ee1565b6001600160a01b031663b049473f6040518163ffffffff1660e01b815260040160606040518083038186803b1580156200170e57600080fd5b505afa15801562001723573d6000803e3d6000fd5b505050506040513d601f19601f8201168201806040525081019062001749919062003140565b50600680546001600160a01b0319163317905590925090506200176d8242620034e6565b600755606460ff821662001780620023d7565b6200178c919062003524565b62001798919062003501565b600855600b80546005819055906000620017b283620036b3565b90915550506006546005546007546008546040516001600160a01b03909416937f472501d19bf75639b2e316cd36f8568b0c3ab943b82a87de3c086c98c1929df99362001803939092909162003480565b60405180910390a25050505050565b62001821602082018262002ec1565b600d546001600160a01b03166200183d61014084018462003496565b6040516200184b9062002dae565b6200185a9493929190620032a7565b604051809103906000f08015801562001877573d6000803e3d6000fd5b50602680546001600160a01b0319166001600160a01b0392909216919091179055620018aa604082016020830162002ec1565b600d546001600160a01b0316620018c661016084018462003496565b604051620018d49062002dae565b620018e39493929190620032a7565b604051809103906000f08015801562001900573d6000803e3d6000fd5b50602780546001600160a01b0319166001600160a01b039290921691909117905562001933606082016040830162002ec1565b600d546001600160a01b03166200194f61018084018462003496565b6040516200195d9062002dae565b6200196c9493929190620032a7565b604051809103906000f08015801562001989573d6000803e3d6000fd5b50602880546001600160a01b0319166001600160a01b0392909216919091179055620019bc608082016060830162002ec1565b600d546001600160a01b0316620019d86101a084018462003496565b604051620019e69062002dae565b620019f59493929190620032a7565b604051809103906000f08015801562001a12573d6000803e3d6000fd5b50602280546001600160a01b0319166001600160a01b039290921691909117905562001a4560a082016080830162002ec1565b60405162001a539062002dbc565b62001a5f919062003279565b604051809103906000f08015801562001a7c573d6000803e3d6000fd5b50602380546001600160a01b0319166001600160a01b039290921691909117905562001aaf60c0820160a0830162002ec1565b600d546001600160a01b031662001acb6101c084018462003496565b60405162001ad99062002dae565b62001ae89493929190620032a7565b604051809103906000f08015801562001b05573d6000803e3d6000fd5b50602480546001600160a01b0319166001600160a01b039290921691909117905562001b3860e0820160c0830162002ec1565b60405162001b469062002dbc565b62001b52919062003279565b604051809103906000f08015801562001b6f573d6000803e3d6000fd5b50602580546001600160a01b0319166001600160a01b039290921691909117905562001ba3610100820160e0830162002ec1565b600d546001600160a01b031662001bbf6101e084018462003496565b60405162001bcd9062002dae565b62001bdc9493929190620032a7565b604051809103906000f08015801562001bf9573d6000803e3d6000fd5b50602980546001600160a01b0319166001600160a01b039290921691909117905562001c2e6101208201610100830162002ec1565b600d546001600160a01b031662001c4a61020084018462003496565b60405162001c589062002dae565b62001c679493929190620032a7565b604051809103906000f08015801562001c84573d6000803e3d6000fd5b50602a80546001600160a01b0319166001600160a01b039290921691909117905562001cb96101408201610120830162002ec1565b600d546001600160a01b031662001cd561022084018462003496565b60405162001ce39062002dae565b62001cf29493929190620032a7565b604051809103906000f08015801562001d0f573d6000803e3d6000fd5b50602b80546001600160a01b0319166001600160a01b039283161790556022541663ce50ac7662001d4561024084018462003496565b6040518363ffffffff1660e01b815260040162001d64929190620033d6565b600060405180830381600087803b15801562001d7f57600080fd5b505af115801562001d94573d6000803e3d6000fd5b50506022546001600160a01b03169150631dd5862c905062001dbb61026084018462003496565b6040518363ffffffff1660e01b815260040162001dda929190620033d6565b600060405180830381600087803b15801562001df557600080fd5b505af11580156200120a573d6000803e3d6000fd5b8162001e1681620024d7565b868462001e24828262002510565b600554881462001e5f5760405162461bcd60e51b8152602060048201526005602482015264454333352d60d81b6044820152606401620007f6565b60405163432f9a5560e01b815273__SignatureLibrary______________________9063432f9a559062001ea8908c908c908c908c908c908c90600090600190600401620032e0565b60206040518083038186803b15801562001ec157600080fd5b505af415801562001ed6573d6000803e3d6000fd5b505050506040513d601f19601f8201168201806040525081019062001efc919062003095565b151560011462001f375760405162461bcd60e51b8152602060048201526005602482015264454333322d60d81b6044820152606401620007f6565b62001f6d89876001600160a01b03909116600090815260026020908152604080832093835292905220805460ff19166001179055565b505050505050505050565b600162001f8581620013db565b6005548390600062001f9883836200256e565b90506000811162001fd45760405162461bcd60e51b8152602060048201526005602482015264454332332d60d81b6044820152606401620007f6565b600062001fe7876005600001546200256e565b9050851562002013578060056004016000828254620020079190620034e6565b909155506200202f9050565b80600580016000828254620020299190620034e6565b90915550505b6005546200203f908883620025af565b60055460408051918252871515602083015281018290526001600160a01b038816907f50f654d58981575c05e369cb129aeacb01e1b036af429380242cfc5d1a4b743f9060600160405180910390a262002098620025ed565b50505050505050565b60235460408051635c60da1b60e01b815290516000926001600160a01b031691635c60da1b916004808301926020929190829003018186803b158015620013a057600080fd5b8151620020fc90600090602085019062002dca565b5080516200135590600190602084019062002dca565b600754600090421015620021265750600190565b6006546001600160a01b0316156200214c5762002142620026d1565b6200214c62001468565b50600090565b6001600160a01b038316158015906200218f57506005546000908152600c602090815260408083206001600160a01b038716845290915290205415155b1562001355576005546000908152600c602090815260408083206001600160a01b03871684529091529020548190811115620021ed57506005546000908152600c602090815260408083206001600160a01b03871684529091529020545b6005546000908152600c602090815260408083206001600160a01b0388168452909152812080548392906200222490849062003546565b90915550506001600160a01b0383161562002276576005546000908152600c602090815260408083206001600160a01b03871684529091528120805483929062002270908490620034e6565b90915550505b600554604080516001600160a01b038088168252861660208201529081018390527f65fbd5e5dd32bea4aeca85bd0be0abf0e489d655dee888a7510d43b06dda2dba9060600160405180910390a250505050565b6000600360029054906101000a90046001600160a01b03166001600160a01b031663da3dce266040518163ffffffff1660e01b815260040160206040518083038186803b1580156200231b57600080fd5b505afa15801562002330573d6000803e3d6000fd5b505050506040513d601f19601f8201168201806040525081019062002356919062002ee1565b6001600160a01b03166370a08231836040518263ffffffff1660e01b815260040162002383919062003279565b60206040518083038186803b1580156200239c57600080fd5b505afa158015620023b1573d6000803e3d6000fd5b505050506040513d601f19601f820116820180604052508101906200132d9190620030b5565b6000600360029054906101000a90046001600160a01b03166001600160a01b031663da3dce266040518163ffffffff1660e01b815260040160206040518083038186803b1580156200242857600080fd5b505afa1580156200243d573d6000803e3d6000fd5b505050506040513d601f19601f8201168201806040525081019062002463919062002ee1565b6001600160a01b03166318160ddd6040518163ffffffff1660e01b815260040160206040518083038186803b1580156200249c57600080fd5b505afa158015620024b1573d6000803e3d6000fd5b505050506040513d601f19601f82011682018060405250810190620004da9190620030b5565b8042106200071f5760405162461bcd60e51b8152602060048201526005602482015264454333332d60d81b6044820152606401620007f6565b6001600160a01b038216600090815260026020908152604080832084845290915290205460ff1615620012a25760405162461bcd60e51b8152602060048201526005602482015264454333342d60d81b6044820152606401620007f6565b6000818152600c602090815260408083206001600160a01b03861684529091528120546200259c84620022ca565b620025a8919062003546565b9392505050565b6000838152600c602090815260408083206001600160a01b038616845290915281208054839290620025e3908490620034e6565b9091555050505050565b60085460095410620026635762002603620026db565b6200260d62001468565b600654600554600954600a546040516001600160a01b03909416937f23ca0034cf5aad32571b4a492e9598ea8a490e1643a60970e3cdc6933b55e49f9362002659939092909162003480565b60405180910390a2565b600854600a5410620026cf5762002679620026d1565b6200268362001468565b600654600554600954600a546040516001600160a01b03909416937fa58eb6daa3c62c3f883973c4035e5bd3e81aa627c8379de068a7de42df122be29362002659939092909162003480565b565b620026cf620026e5565b620026d1620027df565b600e80546001600160a01b03199081168255600f805482169055601080548216905560118054821690556012805482169055601380548216905560148054821690556015805482169055601680548216905560178054909116905560006200274f60188262002e59565b6200275f600b8301600062002e59565b6200276f600c8301600062002e59565b6200277f600d8301600062002e59565b6200278f600e8301600062002e59565b6200279f600f8301600062002e59565b620027af60108301600062002e59565b620027bf60118301600062002e59565b620027cf60128301600062002e59565b620012a260138301600062002e59565b602654600e546018805462002892936001600160a01b0390811693169190620028089062003676565b80601f0160208091040260200160405190810160405280929190818152602001828054620028369062003676565b8015620028875780601f106200285b5761010080835404028352916020019162002887565b820191906000526020600020905b8154815290600101906020018083116200286957829003601f168201915b505050505062002cfc565b602754600f5460198054620028bb936001600160a01b0390811693169190620028089062003676565b602854601054601a8054620028e4936001600160a01b0390811693169190620028089062003676565b602254601154601b80546200290d936001600160a01b0390811693169190620028089062003676565b602454601354601c805462002936936001600160a01b0390811693169190620028089062003676565b602954601554601d80546200295f936001600160a01b0390811693169190620028089062003676565b602a54601654601e805462002988936001600160a01b0390811693169190620028089062003676565b602b54601754601f8054620029b1936001600160a01b0390811693169190620028089062003676565b6012546001600160a01b03161562002a2e57602354601254604051631b2ce7f360e11b81526001600160a01b0392831692633659cfe692620029f99291169060040162003279565b600060405180830381600087803b15801562002a1457600080fd5b505af115801562002a29573d6000803e3d6000fd5b505050505b6014546001600160a01b03161562002aab57602554601454604051631b2ce7f360e11b81526001600160a01b0392831692633659cfe69262002a769291169060040162003279565b600060405180830381600087803b15801562002a9157600080fd5b505af115801562002aa6573d6000803e3d6000fd5b505050505b6020805462002aba9062003676565b15905062002b2a57602254604051636728563b60e11b81526001600160a01b039091169063ce50ac769062002af5906020906004016200341d565b600060405180830381600087803b15801562002b1057600080fd5b505af115801562002b25573d6000803e3d6000fd5b505050505b6021805462002b399062003676565b15905062002ba957602254604051630775618b60e21b81526001600160a01b0390911690631dd5862c9062002b74906021906004016200341d565b600060405180830381600087803b15801562002b8f57600080fd5b505af115801562002ba4573d6000803e3d6000fd5b505050505b6026547f10fa61e7dce22daa90a766d2f7d1a6a46735d88777552796dce5c4e8a736a79b9062002be2906001600160a01b0316620012a6565b60275462002bf9906001600160a01b0316620012a6565b60285462002c10906001600160a01b0316620012a6565b60225462002c27906001600160a01b0316620012a6565b62002c31620020a1565b60245462002c48906001600160a01b0316620012a6565b62002c526200135a565b60295462002c69906001600160a01b0316620012a6565b602a5462002c80906001600160a01b0316620012a6565b602b5462002c97906001600160a01b0316620012a6565b604080516001600160a01b039b8c168152998b1660208b0152978a16898901529589166060890152938816608088015291871660a0870152861660c0860152851660e085015284166101008401529092166101208201529051908190036101400190a1565b6001600160a01b03821615620013555780511562002d7a57600d54604051639623609d60e01b81526001600160a01b0390911690639623609d9062002d4a908690869086906004016200339f565b600060405180830381600087803b15801562002d6557600080fd5b505af115801562002098573d6000803e3d6000fd5b600d5460405163266a23b160e21b81526001600160a01b03909116906399a88ec49062002d4a90869086906004016200328d565b610f3080620039ce83390190565b61052380620048fe83390190565b82805462002dd89062003676565b90600052602060002090601f01602090048101928262002dfc576000855562002e47565b82601f1062002e1757805160ff191683800117855562002e47565b8280016001018555821562002e47579182015b8281111562002e4757825182559160200191906001019062002e2a565b5062002e5592915062002e93565b5090565b50805462002e679062003676565b6000825580601f1062002e78575050565b601f0160209004906000526020600020908101906200071f91905b5b8082111562002e55576000815560010162002e94565b805160ff8116811462002ebc57600080fd5b919050565b60006020828403121562002ed457600080fd5b8135620025a881620039a8565b60006020828403121562002ef457600080fd5b8151620025a881620039a8565b60008060006060848603121562002f1757600080fd5b833562002f2481620039a8565b9250602084013562002f3681620039a8565b929592945050506040919091013590565b6000806040838503121562002f5b57600080fd5b823562002f6881620039a8565b946020939093013593505050565b60008060008060008060c0878903121562002f9057600080fd5b863562002f9d81620039a8565b955060208701359450604087013562002fb681620039be565b9350606087013592506080870135915060a08701356001600160401b038082111562002fe157600080fd5b818901915089601f83011262002ff657600080fd5b8135818111156200300b576200300b620036fd565b604051601f8201601f19908116603f01168101908382118183101715620030365762003036620036fd565b816040528281528c60208487010111156200305057600080fd5b8260208601602083013760006020848301015280955050505050509295509295509295565b6000602082840312156200308857600080fd5b8135620025a881620039be565b600060208284031215620030a857600080fd5b8151620025a881620039be565b600060208284031215620030c857600080fd5b5051919050565b600060208284031215620030e257600080fd5b81356001600160401b03811115620030f957600080fd5b82016102808185031215620025a857600080fd5b600080604083850312156200312157600080fd5b8235915060208301356200313581620039a8565b809150509250929050565b6000806000606084860312156200315657600080fd5b83519250620031686020850162002eaa565b9150620031786040850162002eaa565b90509250925092565b81835281816020850137506000828201602090810191909152601f909101601f19169091010190565b6000815180845260005b81811015620031d257602081850181015186830182015201620031b4565b81811115620031e5576000602083870101525b50601f01601f19169290920160200192915050565b60008154620032098162003676565b8085526020600183811680156200322957600181146200323e576200326e565b60ff198516888401526040880195506200326e565b866000528260002060005b85811015620032665781548a820186015290830190840162003249565b890184019650505b505050505092915050565b6001600160a01b0391909116815260200190565b6001600160a01b0392831681529116602082015260400190565b6001600160a01b03858116825284166020820152606060408201819052600090620032d6908301848662003181565b9695505050505050565b600061010060018060a01b038b16835289602084015288151560408401528760608401528660808401528060a08401526200331e81840187620031aa565b905082810360c0840152620033348186620031fa565b905082810360e08401526200334a8185620031fa565b9b9a5050505050505050505050565b6020808252825182820181905260009190848201906040850190845b81811015620033935783518352928401929184019160010162003375565b50909695505050505050565b6001600160a01b03848116825283166020820152606060408201819052600090620033cd90830184620031aa565b95945050505050565b602081526000620033ec60208301848662003181565b949350505050565b604081526000620034096040830185620031aa565b8281036020840152620033cd8185620031aa565b602081526000620025a86020830184620031fa565b6020808252602e908201527f496e697469616c697a61626c653a20636f6e747261637420697320616c72656160408201526d191e481a5b9a5d1a585b1a5e995960921b606082015260800190565b9283526020830191909152604082015260600190565b6000808335601e19843603018112620034ae57600080fd5b8301803591506001600160401b03821115620034c957600080fd5b602001915036819003821315620034df57600080fd5b9250929050565b60008219821115620034fc57620034fc620036d1565b500190565b6000826200351f57634e487b7160e01b600052601260045260246000fd5b500490565b6000816000190483118215151615620035415762003541620036d1565b500290565b6000828210156200355b576200355b620036d1565b500390565b601f8211156200135557600081815260208120601f850160051c81016020861015620035895750805b601f850160051c820191505b818110156200083d5782815560010162003595565b6001600160401b03831115620035c457620035c4620036fd565b620035dc83620035d5835462003676565b8362003560565b6000601f841160018114620036135760008515620035fa5750838201355b600019600387901b1c1916600186901b1783556200120a565b600083815260209020601f19861690835b8281101562003646578685013582556020948501946001909201910162003624565b5086821015620036645760001960f88860031b161c19848701351681555b505060018560011b0183555050505050565b600181811c908216806200368b57607f821691505b60208210811415620036ad57634e487b7160e01b600052602260045260246000fd5b50919050565b6000600019821415620036ca57620036ca620036d1565b5060010190565b634e487b7160e01b600052601160045260246000fd5b634e487b7160e01b600052603260045260246000fd5b634e487b7160e01b600052604160045260246000fd5b600081356200132d81620039a8565b80546001600160a01b0319166001600160a01b0392909216919091179055565b62003758620037518362003713565b8262003722565b620037746200376a6020840162003713565b6001830162003722565b62003790620037866040840162003713565b6002830162003722565b620037ac620037a26060840162003713565b6003830162003722565b620037c8620037be6080840162003713565b6004830162003722565b620037e4620037da60a0840162003713565b6005830162003722565b62003800620037f660c0840162003713565b6006830162003722565b6200381c6200381260e0840162003713565b6007830162003722565b620038396200382f610100840162003713565b6008830162003722565b620038566200384c610120840162003713565b6009830162003722565b6200386661014083018362003496565b620038768183600a8601620035aa565b50506200388861016083018362003496565b620038988183600b8601620035aa565b5050620038aa61018083018362003496565b620038ba8183600c8601620035aa565b5050620038cc6101a083018362003496565b620038dc8183600d8601620035aa565b5050620038ee6101c083018362003496565b620038fe8183600e8601620035aa565b5050620039106101e083018362003496565b620039208183600f8601620035aa565b50506200393261020083018362003496565b62003942818360108601620035aa565b50506200395461022083018362003496565b62003964818360118601620035aa565b50506200397661024083018362003496565b62003986818360128601620035aa565b50506200399861026083018362003496565b620005fd818360138601620035aa565b6001600160a01b03811681146200071f57600080fd5b80151581146200071f57600080fdfe608060405260405162000f3038038062000f308339810160408190526200002691620004c2565b82816200005560017f360894a13ba1a3210667c828492db98dca3e2076cc3735a920a3ca505d382bbd620005f5565b60008051602062000ee9833981519152146200007557620000756200064a565b6200008382826000620000e7565b50620000b3905060017fb53127684a568b3173ae13b9f8a6016e243e63b6e8ee1178d6a717850b5d6104620005f5565b60008051602062000ec983398151915214620000d357620000d36200064a565b620000de8262000124565b50505062000676565b620000f2836200017f565b600082511180620001005750805b156200011f576200011d8383620001c160201b620002601760201c565b505b505050565b7f7e644d79422f17c01e4894b5f4f588d331ebfa28653d42ae832dc59e38c9798f6200014f620001f0565b604080516001600160a01b03928316815291841660208301520160405180910390a16200017c8162000229565b50565b6200018a81620002de565b6040516001600160a01b038216907fbc7cd75a20ee27fd9adebab32041f755214dbc6bffa90cc0225b39da2e5c2d3b90600090a250565b6060620001e9838360405180606001604052806027815260200162000f096027913962000381565b9392505050565b60006200021a60008051602062000ec983398151915260001b6200045e60201b620002081760201c565b546001600160a01b0316919050565b6001600160a01b038116620002945760405162461bcd60e51b815260206004820152602660248201527f455243313936373a206e65772061646d696e20697320746865207a65726f206160448201526564647265737360d01b60648201526084015b60405180910390fd5b80620002bd60008051602062000ec983398151915260001b6200045e60201b620002081760201c565b80546001600160a01b0319166001600160a01b039290921691909117905550565b620002f4816200046160201b6200028c1760201c565b620003585760405162461bcd60e51b815260206004820152602d60248201527f455243313936373a206e657720696d706c656d656e746174696f6e206973206e60448201526c1bdd08184818dbdb9d1c9858dd609a1b60648201526084016200028b565b80620002bd60008051602062000ee983398151915260001b6200045e60201b620002081760201c565b6060833b620003e25760405162461bcd60e51b815260206004820152602660248201527f416464726573733a2064656c65676174652063616c6c20746f206e6f6e2d636f6044820152651b9d1c9858dd60d21b60648201526084016200028b565b600080856001600160a01b031685604051620003ff9190620005a2565b600060405180830381855af49150503d80600081146200043c576040519150601f19603f3d011682016040523d82523d6000602084013e62000441565b606091505b5090925090506200045482828662000467565b9695505050505050565b90565b3b151590565b6060831562000478575081620001e9565b825115620004895782518084602001fd5b8160405162461bcd60e51b81526004016200028b9190620005c0565b80516001600160a01b0381168114620004bd57600080fd5b919050565b600080600060608486031215620004d857600080fd5b620004e384620004a5565b9250620004f360208501620004a5565b60408501519092506001600160401b03808211156200051157600080fd5b818601915086601f8301126200052657600080fd5b8151818111156200053b576200053b62000660565b604051601f8201601f19908116603f0116810190838211818310171562000566576200056662000660565b816040528281528960208487010111156200058057600080fd5b620005938360208301602088016200061b565b80955050505050509250925092565b60008251620005b68184602087016200061b565b9190910192915050565b6020815260008251806020840152620005e18160408501602087016200061b565b601f01601f19169190910160400192915050565b6000828210156200061657634e487b7160e01b600052601160045260246000fd5b500390565b60005b83811015620006385781810151838201526020016200061e565b838111156200011d5750506000910152565b634e487b7160e01b600052600160045260246000fd5b634e487b7160e01b600052604160045260246000fd5b61084380620006866000396000f3fe60806040526004361061004e5760003560e01c80633659cfe6146100655780634f1ef286146100855780635c60da1b146100985780638f283970146100c9578063f851a440146100e95761005d565b3661005d5761005b6100fe565b005b61005b6100fe565b34801561007157600080fd5b5061005b61008036600461068e565b610118565b61005b6100933660046106a9565b61015f565b3480156100a457600080fd5b506100ad6101d0565b6040516001600160a01b03909116815260200160405180910390f35b3480156100d557600080fd5b5061005b6100e436600461068e565b61020b565b3480156100f557600080fd5b506100ad610235565b610106610292565b610116610111610331565b61033b565b565b61012061035f565b6001600160a01b0316336001600160a01b031614156101575761015481604051806020016040528060008152506000610380565b50565b6101546100fe565b61016761035f565b6001600160a01b0316336001600160a01b031614156101c8576101c38383838080601f01602080910402602001604051908101604052809392919081815260200183838082843760009201919091525060019250610380915050565b505050565b6101c36100fe565b60006101da61035f565b6001600160a01b0316336001600160a01b03161415610200576101fb610331565b905090565b6102086100fe565b90565b61021361035f565b6001600160a01b0316336001600160a01b0316141561015757610154816103ab565b600061023f61035f565b6001600160a01b0316336001600160a01b03161415610200576101fb61035f565b606061028583836040518060600160405280602781526020016107e7602791396103ff565b9392505050565b3b151590565b61029a61035f565b6001600160a01b0316336001600160a01b031614156101165760405162461bcd60e51b815260206004820152604260248201527f5472616e73706172656e745570677261646561626c6550726f78793a2061646d60448201527f696e2063616e6e6f742066616c6c6261636b20746f2070726f78792074617267606482015261195d60f21b608482015260a4015b60405180910390fd5b60006101fb6104d3565b3660008037600080366000845af43d6000803e80801561035a573d6000f35b3d6000fd5b60006000805160206107a78339815191525b546001600160a01b0316919050565b610389836104e9565b6000825111806103965750805b156101c3576103a58383610260565b50505050565b7f7e644d79422f17c01e4894b5f4f588d331ebfa28653d42ae832dc59e38c9798f6103d461035f565b604080516001600160a01b03928316815291841660208301520160405180910390a161015481610529565b6060833b61045e5760405162461bcd60e51b815260206004820152602660248201527f416464726573733a2064656c65676174652063616c6c20746f206e6f6e2d636f6044820152651b9d1c9858dd60d21b6064820152608401610328565b600080856001600160a01b031685604051610479919061072b565b600060405180830381855af49150503d80600081146104b4576040519150601f19603f3d011682016040523d82523d6000602084013e6104b9565b606091505b50915091506104c98282866105c0565b9695505050505050565b60006000805160206107c7833981519152610371565b6104f2816105f9565b6040516001600160a01b038216907fbc7cd75a20ee27fd9adebab32041f755214dbc6bffa90cc0225b39da2e5c2d3b90600090a250565b6001600160a01b03811661058e5760405162461bcd60e51b815260206004820152602660248201527f455243313936373a206e65772061646d696e20697320746865207a65726f206160448201526564647265737360d01b6064820152608401610328565b806000805160206107a78339815191525b80546001600160a01b0319166001600160a01b039290921691909117905550565b606083156105cf575081610285565b8251156105df5782518084602001fd5b8160405162461bcd60e51b81526004016103289190610747565b803b61065d5760405162461bcd60e51b815260206004820152602d60248201527f455243313936373a206e657720696d706c656d656e746174696f6e206973206e60448201526c1bdd08184818dbdb9d1c9858dd609a1b6064820152608401610328565b806000805160206107c783398151915261059f565b80356001600160a01b038116811461068957600080fd5b919050565b6000602082840312156106a057600080fd5b61028582610672565b6000806000604084860312156106be57600080fd5b6106c784610672565b925060208401356001600160401b03808211156106e357600080fd5b818601915086601f8301126106f757600080fd5b81358181111561070657600080fd5b87602082850101111561071857600080fd5b6020830194508093505050509250925092565b6000825161073d81846020870161077a565b9190910192915050565b602081526000825180602084015261076681604085016020870161077a565b601f01601f19169190910160400192915050565b60005b8381101561079557818101518382015260200161077d565b838111156103a5575050600091015256feb53127684a568b3173ae13b9f8a6016e243e63b6e8ee1178d6a717850b5d6103360894a13ba1a3210667c828492db98dca3e2076cc3735a920a3ca505d382bbc416464726573733a206c6f772d6c6576656c2064656c65676174652063616c6c206661696c6564a2646970667358221220bf234746908c6f46655f3e5bb4f0abadaeb249c68beba1c928f2af74deb56e2264736f6c63430008070033b53127684a568b3173ae13b9f8a6016e243e63b6e8ee1178d6a717850b5d6103360894a13ba1a3210667c828492db98dca3e2076cc3735a920a3ca505d382bbc416464726573733a206c6f772d6c6576656c2064656c65676174652063616c6c206661696c6564608060405234801561001057600080fd5b5060405161052338038061052383398101604081905261002f91610148565b61003833610047565b61004181610097565b50610178565b600080546001600160a01b038381166001600160a01b0319831681178455604051919092169283917f8be0079c531659141344cd1fd0a4f28419497f9722a3daafe3b4186f6b6457e09190a35050565b6100aa8161014260201b61021f1760201c565b6101205760405162461bcd60e51b815260206004820152603360248201527f5570677261646561626c65426561636f6e3a20696d706c656d656e746174696f60448201527f6e206973206e6f74206120636f6e747261637400000000000000000000000000606482015260840160405180910390fd5b600180546001600160a01b0319166001600160a01b0392909216919091179055565b3b151590565b60006020828403121561015a57600080fd5b81516001600160a01b038116811461017157600080fd5b9392505050565b61039c806101876000396000f3fe608060405234801561001057600080fd5b50600436106100575760003560e01c80633659cfe61461005c5780635c60da1b14610071578063715018a61461009a5780638da5cb5b146100a2578063f2fde38b146100aa575b600080fd5b61006f61006a366004610301565b6100bd565b005b6001546001600160a01b03165b6040516001600160a01b03909116815260200160405180910390f35b61006f610135565b61007e610170565b61006f6100b8366004610301565b61017f565b336100c6610170565b6001600160a01b0316146100f55760405162461bcd60e51b81526004016100ec90610331565b60405180910390fd5b6100fe81610225565b6040516001600160a01b038216907fbc7cd75a20ee27fd9adebab32041f755214dbc6bffa90cc0225b39da2e5c2d3b90600090a250565b3361013e610170565b6001600160a01b0316146101645760405162461bcd60e51b81526004016100ec90610331565b61016e60006102b1565b565b6000546001600160a01b031690565b33610188610170565b6001600160a01b0316146101ae5760405162461bcd60e51b81526004016100ec90610331565b6001600160a01b0381166102135760405162461bcd60e51b815260206004820152602660248201527f4f776e61626c653a206e6577206f776e657220697320746865207a65726f206160448201526564647265737360d01b60648201526084016100ec565b61021c816102b1565b50565b3b151590565b803b61028f5760405162461bcd60e51b815260206004820152603360248201527f5570677261646561626c65426561636f6e3a20696d706c656d656e746174696f6044820152721b881a5cc81b9bdd08184818dbdb9d1c9858dd606a1b60648201526084016100ec565b600180546001600160a01b0319166001600160a01b0392909216919091179055565b600080546001600160a01b038381166001600160a01b0319831681178455604051919092169283917f8be0079c531659141344cd1fd0a4f28419497f9722a3daafe3b4186f6b6457e09190a35050565b60006020828403121561031357600080fd5b81356001600160a01b038116811461032a57600080fd5b9392505050565b6020808252818101527f4f776e61626c653a2063616c6c6572206973206e6f7420746865206f776e657260408201526060019056fea2646970667358221220b1e86d9e5a9827481ff081a46fc0ff448af58190927b3eac96f691d6bcdce0a964736f6c63430008070033a26469706673582212201793654ea93e17f5ae3e24f6b629d4800faf89d9b076873a53cc9cf5f99c6e3964736f6c63430008070033608060405234801561001057600080fd5b5061001a3361001f565b61006f565b600080546001600160a01b038381166001600160a01b0319831681178455604051919092169283917f8be0079c531659141344cd1fd0a4f28419497f9722a3daafe3b4186f6b6457e09190a35050565b61073f8061007e6000396000f3fe60806040526004361061006b5760003560e01c8063204e1c7a14610070578063715018a6146100a65780637eff275e146100bd5780638da5cb5b146100dd5780639623609d146100f257806399a88ec414610105578063f2fde38b14610125578063f3b7dead14610145575b600080fd5b34801561007c57600080fd5b5061009061008b3660046104e1565b610165565b60405161009d9190610630565b60405180910390f35b3480156100b257600080fd5b506100bb6101f6565b005b3480156100c957600080fd5b506100bb6100d8366004610522565b61023a565b3480156100e957600080fd5b506100906102cb565b6100bb61010036600461055b565b6102da565b34801561011157600080fd5b506100bb610120366004610522565b610370565b34801561013157600080fd5b506100bb6101403660046104e1565b6103cb565b34801561015157600080fd5b506100906101603660046104e1565b61046b565b6000806000836001600160a01b031660405161018b90635c60da1b60e01b815260040190565b600060405180830381855afa9150503d80600081146101c6576040519150601f19603f3d011682016040523d82523d6000602084013e6101cb565b606091505b5091509150816101da57600080fd5b808060200190518101906101ee9190610505565b949350505050565b336101ff6102cb565b6001600160a01b03161461022e5760405162461bcd60e51b8152600401610225906106a9565b60405180910390fd5b6102386000610491565b565b336102436102cb565b6001600160a01b0316146102695760405162461bcd60e51b8152600401610225906106a9565b6040516308f2839760e41b81526001600160a01b03831690638f28397090610295908490600401610630565b600060405180830381600087803b1580156102af57600080fd5b505af11580156102c3573d6000803e3d6000fd5b505050505050565b6000546001600160a01b031690565b336102e36102cb565b6001600160a01b0316146103095760405162461bcd60e51b8152600401610225906106a9565b60405163278f794360e11b81526001600160a01b03841690634f1ef2869034906103399086908690600401610644565b6000604051808303818588803b15801561035257600080fd5b505af1158015610366573d6000803e3d6000fd5b5050505050505050565b336103796102cb565b6001600160a01b03161461039f5760405162461bcd60e51b8152600401610225906106a9565b604051631b2ce7f360e11b81526001600160a01b03831690633659cfe690610295908490600401610630565b336103d46102cb565b6001600160a01b0316146103fa5760405162461bcd60e51b8152600401610225906106a9565b6001600160a01b03811661045f5760405162461bcd60e51b815260206004820152602660248201527f4f776e61626c653a206e6577206f776e657220697320746865207a65726f206160448201526564647265737360d01b6064820152608401610225565b61046881610491565b50565b6000806000836001600160a01b031660405161018b906303e1469160e61b815260040190565b600080546001600160a01b038381166001600160a01b0319831681178455604051919092169283917f8be0079c531659141344cd1fd0a4f28419497f9722a3daafe3b4186f6b6457e09190a35050565b6000602082840312156104f357600080fd5b81356104fe816106f4565b9392505050565b60006020828403121561051757600080fd5b81516104fe816106f4565b6000806040838503121561053557600080fd5b8235610540816106f4565b91506020830135610550816106f4565b809150509250929050565b60008060006060848603121561057057600080fd5b833561057b816106f4565b9250602084013561058b816106f4565b915060408401356001600160401b03808211156105a757600080fd5b818601915086601f8301126105bb57600080fd5b8135818111156105cd576105cd6106de565b604051601f8201601f19908116603f011681019083821181831017156105f5576105f56106de565b8160405282815289602084870101111561060e57600080fd5b8260208601602083013760006020848301015280955050505050509250925092565b6001600160a01b0391909116815260200190565b60018060a01b038316815260006020604081840152835180604085015260005b8181101561068057858101830151858201606001528201610664565b81811115610692576000606083870101525b50601f01601f191692909201606001949350505050565b6020808252818101527f4f776e61626c653a2063616c6c6572206973206e6f7420746865206f776e6572604082015260600190565b634e487b7160e01b600052604160045260246000fd5b6001600160a01b038116811461046857600080fdfea26469706673582212207240b38990a52bc008f8ef6148c6f36363b8fbb55bee70cee697cb8e4d4c00ce64736f6c63430008070033",
  "immutableReferences": {},
  "source": "// SPDX-License-Identifier: GPL-3.0\r\n\r\npragma solidity 0.8.7;\r\n\r\n/**\r\n * @title Storage\r\n * @dev Store & retrieve value in a variable\r\n */\r\n\r\nimport \"../Interfaces/IProxyManager.sol\";\r\nimport \"../Interfaces/IFactory.sol\";\r\nimport \"../Base/TokenGovernanceBaseContract.sol\";\r\nimport \"../Libraries/AddressLibrary.sol\";\r\nimport \"../Libraries/Library.sol\";\r\nimport \"@openzeppelin/contracts-upgradeable/proxy/utils/Initializable.sol\";\r\nimport \"@openzeppelin/contracts/proxy/beacon/UpgradeableBeacon.sol\";\r\nimport \"@openzeppelin/contracts/proxy/transparent/TransparentUpgradeableProxy.sol\";\r\nimport \"@openzeppelin/contracts/proxy/transparent/ProxyAdmin.sol\";\r\n\r\n\r\ncontract CertificatesPoolManager is IProxyManager, TokenGovernanceBaseContract{\r\n    using AddressLibrary for *;\r\n    using Library for *;\r\n\r\n    // EVENTS /////////////////////////////////////////\r\n    event _NewContracts(address Public, address Treasury, address Certis, address PrivateFactory, \r\n    address Private, address ProviderFactory, address Provider, address PriceConverter, \r\n    address PropositionSettings, address ENS);\r\n\r\n    // DATA /////////////////////////////////////////\r\n    // Admin Proxy to manage all the TransparentUpgradeableProxies\r\n    ProxyAdmin private _Admin;\r\n\r\n    // proposition to change\r\n    Library.ProposedContractsStruct private _ProposedContracts;\r\n    \r\n    // Private Certificate Pools Factory\r\n    TransparentUpgradeableProxy private _PrivatePoolFactory;\r\n\r\n    // Private Certificates Pool\r\n    UpgradeableBeacon private _PrivateCertificatePoolBeacon;\r\n\r\n    // Provider Factory\r\n    TransparentUpgradeableProxy private _ProviderFactory;\r\n\r\n    // Provider\r\n    UpgradeableBeacon private _ProviderBeacon;\r\n\r\n    // Public Certificates Pool\r\n    TransparentUpgradeableProxy private _PublicCertificatesPool;\r\n\r\n    // Treasury\r\n    TransparentUpgradeableProxy private _Treasury;\r\n\r\n    // Certis Token\r\n    TransparentUpgradeableProxy private _CertisToken;\r\n\r\n    // Price Converter\r\n    TransparentUpgradeableProxy private _PriceConverter;\r\n\r\n    // Proposition Settings\r\n    TransparentUpgradeableProxy private _PropositionSettings;\r\n\r\n    // ENS\r\n    TransparentUpgradeableProxy private _ENS;\r\n\r\n    // init\r\n    bool private _init;\r\n\r\n    // MODIFIERS /////////////////////////////////////////\r\n    modifier isNotInitialized(){\r\n        require(false == _init, \"EC26-\");\r\n        _;\r\n    }\r\n\r\n    // CONSTRUCTOR and INITIALIZATION /////////////////////////////////////////\r\n    constructor(string memory contractName, string memory contractVersion) \r\n    {\r\n        super.TokenGovernanceContract_init(msg.sender, address(this), contractName, contractVersion);\r\n        _Admin = new ProxyAdmin();\r\n        _init = false;\r\n    }\r\n\r\n    function InitializeContracts(Library.ProposedContractsStruct calldata initialContracts) \r\n        isFromChairPerson(msg.sender)\r\n        isNotInitialized()\r\n    external override\r\n    {\r\n        initProxies(initialContracts);\r\n        _init = true;\r\n    }\r\n\r\n    // FUNCTIONALITY /////////////////////////////////////////\r\n    // governance : contracts assignment and management\r\n    function upgradeContracts(Library.ProposedContractsStruct calldata UpgradeProposition) external override\r\n    {\r\n        _ProposedContracts = UpgradeProposition;\r\n        addProposition();\r\n    }\r\n\r\n    function propositionApproved() internal override\r\n    {\r\n        upgradeContractsImplementations();\r\n        removeProposition();\r\n    }\r\n\r\n    function propositionRejected() internal override\r\n    {\r\n        removeProposition();\r\n    }\r\n\r\n    function propositionExpired() internal override\r\n    {\r\n        removeProposition();\r\n    }\r\n\r\n    function removeProposition() internal\r\n    {\r\n       delete(_ProposedContracts);\r\n    }\r\n\r\n    function retrieveProposition() external override view returns(bytes32[] memory)\r\n    {\r\n        bytes32[] memory proposition = new bytes32[](10);\r\n        proposition[0] = AddressLibrary.AddressToBytes32(_ProposedContracts.NewPublicPoolAddress);\r\n        proposition[1] = AddressLibrary.AddressToBytes32(_ProposedContracts.NewTreasuryAddress);\r\n        proposition[2] = AddressLibrary.AddressToBytes32(_ProposedContracts.NewCertisTokenAddress);\r\n        proposition[3] = AddressLibrary.AddressToBytes32(_ProposedContracts.NewPrivatePoolFactoryAddress);\r\n        proposition[4] = AddressLibrary.AddressToBytes32(_ProposedContracts.NewPrivatePoolAddress);\r\n        proposition[5] = AddressLibrary.AddressToBytes32(_ProposedContracts.NewProviderFactoryAddress);\r\n        proposition[6] = AddressLibrary.AddressToBytes32(_ProposedContracts.NewProviderAddress);\r\n        proposition[7] = AddressLibrary.AddressToBytes32(_ProposedContracts.NewPriceConverterAddress);\r\n        proposition[8] = AddressLibrary.AddressToBytes32(_ProposedContracts.NewPropositionSettingsAddress);\r\n        proposition[9] = AddressLibrary.AddressToBytes32(_ProposedContracts.NewENSAddress);\r\n        return proposition;\r\n    }\r\n\r\n    function initProxies(Library.ProposedContractsStruct calldata initialContracts) private\r\n    {\r\n        _PublicCertificatesPool = new TransparentUpgradeableProxy(initialContracts.NewPublicPoolAddress, address(_Admin), initialContracts.NewPublicPoolData);\r\n        _Treasury = new TransparentUpgradeableProxy(initialContracts.NewTreasuryAddress, address(_Admin), initialContracts.NewTreasuryData);\r\n        _CertisToken = new TransparentUpgradeableProxy(initialContracts.NewCertisTokenAddress, address(_Admin), initialContracts.NewCertisTokenData);\r\n        _PrivatePoolFactory = new TransparentUpgradeableProxy(initialContracts.NewPrivatePoolFactoryAddress, address(_Admin), initialContracts.NewPrivatePoolFactoryData);\r\n        _PrivateCertificatePoolBeacon = new UpgradeableBeacon(initialContracts.NewPrivatePoolAddress);\r\n        _ProviderFactory = new TransparentUpgradeableProxy(initialContracts.NewProviderFactoryAddress, address(_Admin), initialContracts.NewProviderFactoryData);\r\n        _ProviderBeacon = new UpgradeableBeacon(initialContracts.NewProviderAddress);\r\n        _PriceConverter = new TransparentUpgradeableProxy(initialContracts.NewPriceConverterAddress, address(_Admin), initialContracts.NewPriceConverterData);\r\n        _PropositionSettings = new TransparentUpgradeableProxy(initialContracts.NewPropositionSettingsAddress, address(_Admin), initialContracts.NewPropositionSettingsData);\r\n        _ENS = new TransparentUpgradeableProxy(initialContracts.NewENSAddress, address(_Admin), initialContracts.NewENSData);\r\n\r\n        IFactory(address(_PrivatePoolFactory)).updateContractName(initialContracts.NewPrivatePoolContractName);\r\n        IFactory(address(_PrivatePoolFactory)).updateContractVersion(initialContracts.NewPrivatePoolContractVersion);\r\n    }\r\n\r\n    function upgradeContractsImplementations() private\r\n    {\r\n        upgradeContractImplementation(_PublicCertificatesPool, _ProposedContracts.NewPublicPoolAddress, _ProposedContracts.NewPublicPoolData);\r\n        upgradeContractImplementation(_Treasury, _ProposedContracts.NewTreasuryAddress, _ProposedContracts.NewTreasuryData);\r\n        upgradeContractImplementation(_CertisToken, _ProposedContracts.NewCertisTokenAddress, _ProposedContracts.NewCertisTokenData);\r\n        upgradeContractImplementation(_PrivatePoolFactory, _ProposedContracts.NewPrivatePoolFactoryAddress, _ProposedContracts.NewPrivatePoolFactoryData);\r\n        upgradeContractImplementation(_ProviderFactory, _ProposedContracts.NewProviderFactoryAddress, _ProposedContracts.NewProviderFactoryData);\r\n        upgradeContractImplementation(_PriceConverter, _ProposedContracts.NewPriceConverterAddress, _ProposedContracts.NewPriceConverterData);\r\n        upgradeContractImplementation(_PropositionSettings, _ProposedContracts.NewPropositionSettingsAddress, _ProposedContracts.NewPropositionSettingsData);\r\n        upgradeContractImplementation(_ENS, _ProposedContracts.NewENSAddress, _ProposedContracts.NewENSData);\r\n\r\n        if(address(0) != _ProposedContracts.NewPrivatePoolAddress)_PrivateCertificatePoolBeacon.upgradeTo(_ProposedContracts.NewPrivatePoolAddress);\r\n        if(address(0) != _ProposedContracts.NewProviderAddress)_ProviderBeacon.upgradeTo(_ProposedContracts.NewProviderAddress);\r\n\r\n        if(0 < bytes(_ProposedContracts.NewPrivatePoolContractName).length)\r\n            IFactory(address(_PrivatePoolFactory)).updateContractName(_ProposedContracts.NewPrivatePoolContractName);\r\n\r\n        if(0 < bytes(_ProposedContracts.NewPrivatePoolContractVersion).length)\r\n            IFactory(address(_PrivatePoolFactory)).updateContractVersion(_ProposedContracts.NewPrivatePoolContractVersion);\r\n        \r\n        emit _NewContracts(internalRetrieveImpl(_PublicCertificatesPool), internalRetrieveImpl(_Treasury), \r\n        internalRetrieveImpl(_CertisToken), internalRetrieveImpl(_PrivatePoolFactory), \r\n        internalRetrievePrivatePool(), internalRetrieveImpl(_ProviderFactory), internalRetrieveProvider(),\r\n        internalRetrieveImpl(_PriceConverter), internalRetrieveImpl(_PropositionSettings), internalRetrieveImpl(_ENS));\r\n    }\r\n\r\n    function upgradeContractImplementation(TransparentUpgradeableProxy proxy, address NewImpl, bytes memory Data) private\r\n    {\r\n        if(address(0) != NewImpl){\r\n            if(0 < Data.length)_Admin.upgradeAndCall(proxy, NewImpl, Data);\r\n            else _Admin.upgrade(proxy, NewImpl);\r\n        }\r\n    }\r\n\r\n    // configuration Proxies\r\n    function retrievePublicCertificatePoolProxy() external override view returns (address) {\r\n        return (address(_PublicCertificatesPool));\r\n    }\r\n\r\n    function retrieveTreasuryProxy() external override view returns (address) {\r\n        return (address(_Treasury));\r\n    }\r\n\r\n    function retrieveCertisTokenProxy() external override view returns (address) {\r\n        return (address(_CertisToken));\r\n    }\r\n\r\n    function retrievePrivatePoolFactoryProxy() external override view returns (address) {\r\n        return (address(_PrivatePoolFactory));\r\n    }\r\n\r\n    function retrievePrivatePoolBeacon() external override view returns (address) {\r\n        return (address(_PrivateCertificatePoolBeacon));\r\n    }\r\n\r\n    function retrieveProviderFactoryProxy() external override view returns (address) {\r\n        return (address(_ProviderFactory));\r\n    }\r\n\r\n    function retrieveProviderBeacon() external override view returns (address) {\r\n        return (address(_ProviderBeacon));\r\n    }\r\n\r\n    function retrievePriceConverterProxy() external override view returns (address) {\r\n        return (address(_PriceConverter));\r\n    }\r\n\r\n    function retrievePropositionSettingsProxy() external override view returns (address) {\r\n        return (address(_PropositionSettings));\r\n    }\r\n\r\n    function retrieveENSProxy() external override view returns (address) {\r\n        return (address(_ENS));\r\n    }\r\n\r\n    // configuration implementations\r\n    function retrievePublicCertificatePool() external override view returns (address) {\r\n        return internalRetrieveImpl(_PublicCertificatesPool);\r\n    }\r\n\r\n    function retrieveTreasury() external override view returns (address) {\r\n        return internalRetrieveImpl(_Treasury);\r\n    }\r\n\r\n    function retrieveCertisToken() external override view returns (address) {\r\n        return internalRetrieveImpl(_CertisToken);\r\n    }\r\n\r\n    function retrievePrivatePoolFactory() external override view returns (address) {\r\n        return internalRetrieveImpl(_PrivatePoolFactory);\r\n    }\r\n\r\n    function retrievePrivatePool() external override view returns (address) {\r\n        return internalRetrievePrivatePool();\r\n    }\r\n\r\n    function retrieveProviderFactory() external override view returns (address) {\r\n        return internalRetrieveImpl(_ProviderFactory);\r\n    }\r\n\r\n    function retrieveProvider() external override view returns (address) {\r\n        return internalRetrieveProvider();\r\n    }\r\n\r\n    function retrievePriceConverter() external override view returns (address) {\r\n        return internalRetrieveImpl(_PriceConverter);\r\n    }\r\n\r\n    function retrievePropositionSettings() external override view returns (address) {\r\n        return internalRetrieveImpl(_PropositionSettings);\r\n    }\r\n\r\n    function retrieveENS() external override view returns (address) {\r\n        return internalRetrieveImpl(_ENS);\r\n    }\r\n\r\n    function isInitialized() external override view returns(bool){\r\n        return _init;\r\n    }\r\n\r\n    // internal\r\n    function internalRetrieveImpl(TransparentUpgradeableProxy proxy) internal view returns (address){\r\n        return _Admin.getProxyImplementation(proxy);\r\n    }\r\n\r\n    function internalRetrievePrivatePool() internal view returns (address) {\r\n        return _PrivateCertificatePoolBeacon.implementation();\r\n    }\r\n\r\n    function internalRetrieveProvider() internal view returns (address) {\r\n        return _ProviderBeacon.implementation();\r\n    }\r\n  \r\n}",
  "sourcePath": "C:/Users/d-aam/GitHub/Certificates/contracts/DeployedContracts/CertificatesPoolManager.sol",
  "compiler": {
    "name": "solc",
    "version": "0.8.7+commit.e28d00a7.Emscripten.clang"
  },
  "schemaVersion": "3.3.4",
  "updatedAt": "2021-10-28T12:31:38.110Z",
  "networkType": "ethereum",
  "devdoc": {
    "kind": "dev",
    "methods": {},
    "version": 1
  },
  "userdoc": {
    "kind": "user",
    "methods": {},
    "version": 1
  }
}