{
  "contractName": "CertificatesPoolManager",
  "abi": [
    {
      "inputs": [
        {
          "internalType": "uint256",
          "name": "PropositionLifeTime",
          "type": "uint256"
        },
        {
          "internalType": "uint8",
          "name": "PropositionThresholdPercentage",
          "type": "uint8"
        },
        {
          "internalType": "uint8",
          "name": "minWeightToProposePercentage",
          "type": "uint8"
        }
      ],
      "stateMutability": "nonpayable",
      "type": "constructor"
    },
    {
      "inputs": [],
      "name": "retrievePropConfig",
      "outputs": [
        {
          "internalType": "uint256",
          "name": "",
          "type": "uint256"
        },
        {
          "internalType": "uint8",
          "name": "",
          "type": "uint8"
        },
        {
          "internalType": "uint8",
          "name": "",
          "type": "uint8"
        }
      ],
      "stateMutability": "view",
      "type": "function"
    },
    {
      "inputs": [],
      "name": "retrievePropositionStatus",
      "outputs": [
        {
          "internalType": "address",
          "name": "",
          "type": "address"
        },
        {
          "internalType": "uint256",
          "name": "",
          "type": "uint256"
        },
        {
          "internalType": "uint256",
          "name": "",
          "type": "uint256"
        },
        {
          "internalType": "uint256",
          "name": "",
          "type": "uint256"
        },
        {
          "internalType": "uint256",
          "name": "",
          "type": "uint256"
        },
        {
          "internalType": "address[]",
          "name": "",
          "type": "address[]"
        },
        {
          "internalType": "uint256[]",
          "name": "",
          "type": "uint256[]"
        },
        {
          "internalType": "address[]",
          "name": "",
          "type": "address[]"
        }
      ],
      "stateMutability": "view",
      "type": "function"
    },
    {
      "inputs": [
        {
          "internalType": "uint256",
          "name": "PropLifeTime",
          "type": "uint256"
        },
        {
          "internalType": "uint8",
          "name": "PropThresholdPerc",
          "type": "uint8"
        },
        {
          "internalType": "uint8",
          "name": "minWeightToPropPerc",
          "type": "uint8"
        }
      ],
      "name": "updateProp",
      "outputs": [],
      "stateMutability": "nonpayable",
      "type": "function"
    },
    {
      "inputs": [
        {
          "internalType": "bool",
          "name": "vote",
          "type": "bool"
        }
      ],
      "name": "voteProposition",
      "outputs": [],
      "stateMutability": "nonpayable",
      "type": "function"
    },
    {
      "inputs": [
        {
          "internalType": "address",
          "name": "PublicPoolAddress",
          "type": "address"
        },
        {
          "internalType": "address",
          "name": "TreasuryAddress",
          "type": "address"
        },
        {
          "internalType": "address",
          "name": "CertisTokenAddress",
          "type": "address"
        },
        {
          "internalType": "address",
          "name": "PrivatePoolGeneratorAddress",
          "type": "address"
        }
      ],
      "name": "Initialize",
      "outputs": [],
      "stateMutability": "nonpayable",
      "type": "function"
    },
    {
      "inputs": [
        {
          "internalType": "address",
          "name": "PublicPoolAddress",
          "type": "address"
        },
        {
          "internalType": "address",
          "name": "TreasuryAddress",
          "type": "address"
        },
        {
          "internalType": "address",
          "name": "CertisTokenAddress",
          "type": "address"
        },
        {
          "internalType": "address",
          "name": "PrivatePoolGeneratorAddress",
          "type": "address"
        }
      ],
      "name": "updateContracts",
      "outputs": [],
      "stateMutability": "nonpayable",
      "type": "function"
    },
    {
      "inputs": [],
      "name": "retrieveConfiguration",
      "outputs": [
        {
          "internalType": "address",
          "name": "",
          "type": "address"
        },
        {
          "internalType": "address",
          "name": "",
          "type": "address"
        },
        {
          "internalType": "address",
          "name": "",
          "type": "address"
        },
        {
          "internalType": "address",
          "name": "",
          "type": "address"
        },
        {
          "internalType": "address",
          "name": "",
          "type": "address"
        },
        {
          "internalType": "uint256",
          "name": "",
          "type": "uint256"
        }
      ],
      "stateMutability": "view",
      "type": "function"
    }
  ],
  "bytecode": "0x60806040523480156200001157600080fd5b506040516200275838038062002758833981016040819052620000349162000ff4565b600080546001600160a01b0319163317905582828262000058838383600162000064565b50505050505062001180565b82828160ff1660641015620000965760405162461bcd60e51b81526004016200008d9062001049565b60405180910390fd5b8060ff1660641015620000bd5760405162461bcd60e51b81526004016200008d9062001049565b8215620000ea57600a869055600b805460ff8681166101000261ffff199092169088161717905562000138565b6200010a600a5442620000fe9190620010c0565b600b5460ff1662000140565b600c869055600d805460ff8681166101000261ffff1990921690881617179055600e805460ff191660011790555b505050505050565b60006200014c62000343565b15620001845760405162461bcd60e51b81526004016200008d906020808252600490820152631150cc8d60e21b604082015260600190565b6200018f3362000383565b1515600114620001cb5760405162461bcd60e51b81526004016200008d9060208082526004908201526322a1991960e11b604082015260600190565b620001d562000443565b8051620001eb9160079160209091019062000d88565b50600754620002585760405162461bcd60e51b815260206004820152603260248201527f496d706f737369626c6520746f206164642070726f706f736974696f6e2c20746044820152716865726520617265206e6f2061646d696e7360701b60648201526084016200008d565b600280546001600160a01b031916331790556003839055606460ff83166200027f620004dc565b6200028b9190620010fe565b620002979190620010db565b600455620002a462000562565b8051620002ba9160089160209091019062000df2565b50620003273360026005018054806020026020016040519081016040528092919081815260200182805480156200031b57602002820191906000526020600020905b81546001600160a01b03168152600190910190602001808311620002fc575b5050620005fb92505050565b1515600114156200033e576200033e600162000616565b505050565b600354600090421015620003575750600190565b6002546001600160a01b0316156200037d5762000373620008e3565b6200037d62000917565b50600090565b600080546001600160a01b0316331415620003a057506001919050565b6000620003ac62000443565b90506000620003ba62000562565b90506000620003ca85846200096a565b9050825181101562000433576064620003e2620004dc565b600b54620003f99190610100900460ff16620010fe565b620004059190620010db565b8282815181106200041a576200041a62001154565b6020026020010151106200043357506001949350505050565b506000949350505050565b919050565b60606000600160009054906101000a90046001600160a01b03166001600160a01b03166388d44ee06040518163ffffffff1660e01b815260040160006040518083038186803b1580156200049657600080fd5b505afa158015620004ab573d6000803e3d6000fd5b505050506040513d6000823e601f3d908101601f19168201604052620004d5919081019062000ef6565b5092915050565b600154604080516318160ddd60e01b815290516000926001600160a01b0316916318160ddd916004808301926020929190829003018186803b1580156200052257600080fd5b505afa15801562000537573d6000803e3d6000fd5b505050506040513d601f19601f820116820180604052508101906200055d919062000fda565b905090565b60606000600160009054906101000a90046001600160a01b03166001600160a01b03166388d44ee06040518163ffffffff1660e01b815260040160006040518083038186803b158015620005b557600080fd5b505afa158015620005ca573d6000803e3d6000fd5b505050506040513d6000823e601f3d908101601f19168201604052620005f4919081019062000ef6565b9392505050565b80516000906200060c84846200096a565b1090505b92915050565b60016200062262000343565b15156001146200065e5760405162461bcd60e51b81526004016200008d906020808252600490820152634543323560e01b604082015260600190565b620006c83360026005018054806020026020016040519081016040528092919081815260200182805480156200031b576020028201919060005260206000209081546001600160a01b03168152600190910190602001808311620002fc575050620005fb92505050565b1515600114620007045760405162461bcd60e51b81526004016200008d906020808252600490820152634543323360e01b604082015260600190565b6200077a3360026007018054806020026020016040519081016040528092919081815260200182805480156200076457602002820191906000526020600020905b81546001600160a01b0316815260019091019060200180831162000745575b50505050506200098360201b620006411760201c565b15620007af5760405162461bcd60e51b815260206004820152600360248201526245433560e81b60448201526064016200008d565b600354421015620008b357600980546001810182556000919091527f6e1540171b6c0c960b71a7020d9f60077f6af931a8bbf590da0223dacf75c7af0180546001600160a01b0319163317905581156200085a5760086200081a336200081462000443565b6200096a565b815481106200082d576200082d62001154565b9060005260206000200154600260030160008282546200084e9190620010c0565b90915550620008a59050565b60086200086b336200081462000443565b815481106200087e576200087e62001154565b9060005260206000200154600260040160008282546200089f9190620010c0565b90915550505b620008af620009f2565b5050565b600e5460ff1615620008cf57620008c962000a8a565b620008d9565b620008d9620008e3565b620008af62000917565b62000915600f80546001600160a01b031990811690915560108054821690556011805482169055601280549091169055565b565b600280546001600160a01b0319168155600060038190556004819055600581905560068190556200094a60078262000e30565b6200095a60068301600062000e30565b620008af60078301600062000e30565b6000620005f4838362000aa660201b620006a91760201c565b6000805b8251811015620009e857828181518110620009a657620009a662001154565b60200260200101516001600160a01b0316846001600160a01b03161415620009d357600191505062000610565b80620009df8162001120565b91505062000987565b5060009392505050565b600454600554111562000a5d57600e5460ff161562000a4957600c54600a55600d54600b805461010080840460ff90811690910261ffff1990921693169290921791909117905562000a4362000a8a565b62000a53565b62000a5362000ad2565b6200091562000917565b60045460065411156200091557600e5460ff161562000a805762000a4362000a8a565b62000a53620008e3565b6000600c55600d805461ffff19169055600e805460ff19169055565b6000620005f46001600160a01b03841662000ac18462000afc565b62000bb460201b620006cd1760201c565b600f54601054601154601254620008e3936001600160a01b03908116938116928116911662000c14565b6060600082516001600160401b0381111562000b1c5762000b1c6200116a565b60405190808252806020026020018201604052801562000b46578160200160208202803683370190505b50905060005b8151811015620004d55783818151811062000b6b5762000b6b62001154565b60200260200101516001600160a01b031660001b82828151811062000b945762000b9462001154565b60209081029190910101528062000bab8162001120565b91505062000b4c565b6000805b825181101562000c045782818151811062000bd75762000bd762001154565b602002602001015184141562000bef57905062000610565b8062000bfb8162001120565b91505062000bb8565b508151620005f4906001620010c0565b601480546001600160a01b038087166001600160a01b031992831681179093556001805486831690841617905560158054878316908416179055601380549185169190921617905560405163279958a960e01b815263279958a99062000c7f90869060040162001035565b600060405180830381600087803b15801562000c9a57600080fd5b505af115801562000caf573d6000803e3d6000fd5b505060135460405163279958a960e01b81526001600160a01b03909116925063279958a9915062000ce590869060040162001035565b600060405180830381600087803b15801562000d0057600080fd5b505af115801562000d15573d6000803e3d6000fd5b505060155460405163e692c49f60e01b81526001600160a01b0388811660048301528681166024830152909116925063e692c49f9150604401600060405180830381600087803b15801562000d6957600080fd5b505af115801562000d7e573d6000803e3d6000fd5b5050505050505050565b82805482825590600052602060002090810192821562000de0579160200282015b8281111562000de057825182546001600160a01b0319166001600160a01b0390911617825560209092019160019091019062000da9565b5062000dee92915062000e53565b5090565b82805482825590600052602060002090810192821562000de0579160200282015b8281111562000de057825182559160200191906001019062000e13565b508054600082559060005260206000209081019062000e50919062000e53565b50565b5b8082111562000dee576000815560010162000e54565b600082601f83011262000e7c57600080fd5b8151602062000e9562000e8f836200109a565b62001067565b80838252828201915082860187848660051b890101111562000eb657600080fd5b60005b8581101562000ed75781518452928401929084019060010162000eb9565b5090979650505050505050565b805160ff811681146200043e57600080fd5b6000806040838503121562000f0a57600080fd5b82516001600160401b038082111562000f2257600080fd5b818501915085601f83011262000f3757600080fd5b8151602062000f4a62000e8f836200109a565b8083825282820191508286018a848660051b890101111562000f6b57600080fd5b600096505b8487101562000fa65780516001600160a01b038116811462000f9157600080fd5b83526001969096019591830191830162000f70565b509188015191965090935050508082111562000fc157600080fd5b5062000fd08582860162000e6a565b9150509250929050565b60006020828403121562000fed57600080fd5b5051919050565b6000806000606084860312156200100a57600080fd5b835192506200101c6020850162000ee4565b91506200102c6040850162000ee4565b90509250925092565b6001600160a01b0391909116815260200190565b6020808252600490820152634543323160e01b604082015260600190565b604051601f8201601f191681016001600160401b03811182821017156200109257620010926200116a565b604052919050565b60006001600160401b03821115620010b657620010b66200116a565b5060051b60200190565b60008219821115620010d657620010d66200113e565b500190565b600082620010f957634e487b7160e01b600052601260045260246000fd5b500490565b60008160001904831182151516156200111b576200111b6200113e565b500290565b60006000198214156200113757620011376200113e565b5060010190565b634e487b7160e01b600052601160045260246000fd5b634e487b7160e01b600052603260045260246000fd5b634e487b7160e01b600052604160045260246000fd5b6115c880620011906000396000f3fe608060405234801561001057600080fd5b506004361061006d5760003560e01c80630b75127914610072578063420f11aa14610087578063840f6d171461009a57806391f91671146100bf578063a4a78896146100d2578063ac2bb44214610122578063d660ab3414610135575b600080fd5b6100856100803660046111cb565b610161565b005b6100856100953660046111cb565b610175565b6100a261022a565b6040516100b69897969594939291906113c1565b60405180910390f35b6100856100cd3660046112f2565b61039a565b601554601454600154601354600054604080516001600160a01b039687168152948616602086015292851692840192909252831660608301529190911660808201524760a082015260c0016100b6565b61008561013036600461132d565b61062f565b600a54600b546040805192835260ff8083166020850152610100909204909116908201526060016100b6565b61016f848484846000610722565b50505050565b60005461018a906001600160a01b03166107a7565b15156001146101c65760405162461bcd60e51b815260206004820152600360248201526208a86760eb1b60448201526064015b60405180910390fd5b601554600160a01b900460ff16156102095760405162461bcd60e51b81526004016101bd9060208082526004908201526322a1991b60e11b604082015260600190565b6015805460ff60a01b1916600160a01b17905561016f848484846001610722565b60008060008060006060806060600260000160009054906101000a90046001600160a01b03166002600101546002800154600260030154600260040154600260050160026006016002600701828054806020026020016040519081016040528092919081815260200182805480156102cb57602002820191906000526020600020905b81546001600160a01b031681526001909101906020018083116102ad575b505050505092508180548060200260200160405190810160405280929190818152602001828054801561031d57602002820191906000526020600020905b815481526020019060010190808311610309575b505050505091508080548060200260200160405190810160405280929190818152602001828054801561037957602002820191906000526020600020905b81546001600160a01b0316815260019091019060200180831161035b575b50505050509050975097509750975097509750975097509091929394959697565b60016103a46107ca565b15156001146103de5760405162461bcd60e51b81526004016101bd906020808252600490820152634543323560e01b604082015260600190565b61044533600260050180548060200260200160405190810160405280929190818152602001828054801561043b57602002820191906000526020600020905b81546001600160a01b0316815260019091019060200180831161041d575b5050505050610804565b151560011461047f5760405162461bcd60e51b81526004016101bd906020808252600490820152634543323360e01b604082015260600190565b6104e63360026007018054806020026020016040519081016040528092919081815260200182805480156104dc57602002820191906000526020600020905b81546001600160a01b031681526001909101906020018083116104be575b5050505050610641565b156105195760405162461bcd60e51b815260206004820152600360248201526245433560e81b60448201526064016101bd565b60035442101561060757600980546001810182556000919091527f6e1540171b6c0c960b71a7020d9f60077f6af931a8bbf590da0223dacf75c7af0180546001600160a01b0319163317905581156105b857600861057e3361057961081a565b6108af565b8154811061058e5761058e611551565b9060005260206000200154600260030160008282546105ad91906114c7565b909155506105fb9050565b60086105c63361057961081a565b815481106105d6576105d6611551565b9060005260206000200154600260040160008282546105f591906114c7565b90915550505b6106036108bb565b5050565b600e5460ff161561061f5761061a610946565b610627565b610627610962565b610603610993565b61063c83838360006109e0565b505050565b6000805b825181101561069d5782818151811061066057610660611551565b60200260200101516001600160a01b0316846001600160a01b0316141561068b5760019150506106a3565b8061069581611520565b915050610645565b50600090505b92915050565b60006106c66001600160a01b0384166106c184610a9c565b6106cd565b9392505050565b6000805b8251811015610714578281815181106106ec576106ec611551565b60200260200101518414156107025790506106a3565b8061070c81611520565b9150506106d1565b5081516106c69060016114c7565b80156107395761073485858585610b46565b6107a0565b610755600a544261074a91906114c7565b600b5460ff16610cb0565b600f80546001600160a01b038088166001600160a01b031992831617909255601080548784169083161790556011805486841690831617905560128054928516929091169190911790555b5050505050565b6000336001600160a01b03831614156107c257506001919050565b506000919050565b6003546000904210156107dd5750600190565b6002546001600160a01b0316156107fe576107f6610962565b6107fe610993565b50600090565b6000815161081284846108af565b109392505050565b60606000600160009054906101000a90046001600160a01b03166001600160a01b03166388d44ee06040518163ffffffff1660e01b815260040160006040518083038186803b15801561086c57600080fd5b505afa158015610880573d6000803e3d6000fd5b505050506040513d6000823e601f3d908101601f191682016040526108a89190810190611227565b5092915050565b60006106c683836106a9565b600454600554111561091f57600e5460ff161561090d57600c54600a55600d54600b805461010080840460ff90811690910261ffff19909216931692909217919091179055610908610946565b610915565b610915610e8c565b61091d610993565b565b600454600654111561091d57600e5460ff161561093e57610908610946565b610915610962565b6000600c55600d805461ffff19169055600e805460ff19169055565b61091d600f80546001600160a01b031990811690915560108054821690556011805482169055601280549091169055565b600280546001600160a01b0319168155600060038190556004819055600581905560068190556109c4600782611072565b6109d2600683016000611072565b610603600783016000611072565b82828160ff1660641015610a065760405162461bcd60e51b81526004016101bd90611456565b8060ff1660641015610a2a5760405162461bcd60e51b81526004016101bd90611456565b8215610a5557600a869055600b805460ff8681166101000261ffff1990921690881617179055610a94565b610a66600a544261074a91906114c7565b600c869055600d805460ff8681166101000261ffff1990921690881617179055600e805460ff191660011790555b505050505050565b6060600082516001600160401b03811115610ab957610ab9611567565b604051908082528060200260200182016040528015610ae2578160200160208202803683370190505b50905060005b81518110156108a857838181518110610b0357610b03611551565b60200260200101516001600160a01b031660001b828281518110610b2957610b29611551565b602090810291909101015280610b3e81611520565b915050610ae8565b601480546001600160a01b038087166001600160a01b031992831681179093556001805486831690841617905560158054878316908416179055601380549185169190921617905560405163279958a960e01b815263279958a990610baf9086906004016113ad565b600060405180830381600087803b158015610bc957600080fd5b505af1158015610bdd573d6000803e3d6000fd5b505060135460405163279958a960e01b81526001600160a01b03909116925063279958a99150610c119086906004016113ad565b600060405180830381600087803b158015610c2b57600080fd5b505af1158015610c3f573d6000803e3d6000fd5b505060155460405163e692c49f60e01b81526001600160a01b0388811660048301528681166024830152909116925063e692c49f9150604401600060405180830381600087803b158015610c9257600080fd5b505af1158015610ca6573d6000803e3d6000fd5b5050505050505050565b6000610cba6107ca565b15610cf05760405162461bcd60e51b81526004016101bd906020808252600490820152631150cc8d60e21b604082015260600190565b610cf933610eb4565b1515600114610d335760405162461bcd60e51b81526004016101bd9060208082526004908201526322a1991960e11b604082015260600190565b610d3b61081a565b8051610d4f91600791602090910190611093565b50600754610dba5760405162461bcd60e51b815260206004820152603260248201527f496d706f737369626c6520746f206164642070726f706f736974696f6e2c20746044820152716865726520617265206e6f2061646d696e7360701b60648201526084016101bd565b600280546001600160a01b031916331790556003839055606460ff8316610ddf610f62565b610de99190611501565b610df391906114df565b600455610dfe610fe4565b8051610e12916008916020909101906110f8565b50610e7833600260050180548060200260200160405190810160405280929190818152602001828054801561043b576020028201919060005260206000209081546001600160a01b0316815260019091019060200180831161041d575050505050610804565b15156001141561063c5761063c600161039a565b600f54601054601154601254610962936001600160a01b039081169381169281169116610b46565b600080546001600160a01b0316331415610ed057506001919050565b6000610eda61081a565b90506000610ee6610fe4565b90506000610ef485846108af565b90508251811015610f52576064610f09610f62565b600b54610f1e9190610100900460ff16611501565b610f2891906114df565b828281518110610f3a57610f3a611551565b602002602001015110610f5257506001949350505050565b506000949350505050565b919050565b600154604080516318160ddd60e01b815290516000926001600160a01b0316916318160ddd916004808301926020929190829003018186803b158015610fa757600080fd5b505afa158015610fbb573d6000803e3d6000fd5b505050506040513d601f19601f82011682018060405250810190610fdf9190611314565b905090565b60606000600160009054906101000a90046001600160a01b03166001600160a01b03166388d44ee06040518163ffffffff1660e01b815260040160006040518083038186803b15801561103657600080fd5b505afa15801561104a573d6000803e3d6000fd5b505050506040513d6000823e601f3d908101601f191682016040526106c69190810190611227565b50805460008255906000526020600020908101906110909190611133565b50565b8280548282559060005260206000209081019282156110e8579160200282015b828111156110e857825182546001600160a01b0319166001600160a01b039091161782556020909201916001909101906110b3565b506110f4929150611133565b5090565b8280548282559060005260206000209081019282156110e8579160200282015b828111156110e8578251825591602001919060010190611118565b5b808211156110f45760008155600101611134565b600082601f83011261115957600080fd5b8151602061116e611169836114a4565b611474565b80838252828201915082860187848660051b890101111561118e57600080fd5b60005b858110156111ad57815184529284019290840190600101611191565b5090979650505050505050565b803560ff81168114610f5d57600080fd5b600080600080608085870312156111e157600080fd5b84356111ec8161157d565b935060208501356111fc8161157d565b9250604085013561120c8161157d565b9150606085013561121c8161157d565b939692955090935050565b6000806040838503121561123a57600080fd5b82516001600160401b038082111561125157600080fd5b818501915085601f83011261126557600080fd5b81516020611275611169836114a4565b8083825282820191508286018a848660051b890101111561129557600080fd5b600096505b848710156112c15780516112ad8161157d565b83526001969096019591830191830161129a565b50918801519196509093505050808211156112db57600080fd5b506112e885828601611148565b9150509250929050565b60006020828403121561130457600080fd5b813580151581146106c657600080fd5b60006020828403121561132657600080fd5b5051919050565b60008060006060848603121561134257600080fd5b83359250611352602085016111ba565b9150611360604085016111ba565b90509250925092565b600081518084526020808501945080840160005b838110156113a25781516001600160a01b03168752958201959082019060010161137d565b509495945050505050565b6001600160a01b0391909116815260200190565b600061010060018060a01b038b16835260208a818501528960408501528860608501528760808501528160a08501526113fc82850188611369565b84810360c0860152865180825282880193509082019060005b8181101561143157845183529383019391830191600101611415565b505084810360e08601526114458187611369565b9d9c50505050505050505050505050565b6020808252600490820152634543323160e01b604082015260600190565b604051601f8201601f191681016001600160401b038111828210171561149c5761149c611567565b604052919050565b60006001600160401b038211156114bd576114bd611567565b5060051b60200190565b600082198211156114da576114da61153b565b500190565b6000826114fc57634e487b7160e01b600052601260045260246000fd5b500490565b600081600019048311821515161561151b5761151b61153b565b500290565b60006000198214156115345761153461153b565b5060010190565b634e487b7160e01b600052601160045260246000fd5b634e487b7160e01b600052603260045260246000fd5b634e487b7160e01b600052604160045260246000fd5b6001600160a01b038116811461109057600080fdfea26469706673582212205a07819e944da5915187ad47fcfe53a5c8785ffe47bd5f57b5aff0367cbbc19064736f6c63430008060033",
  "immutableReferences": {},
  "source": "// SPDX-License-Identifier: GPL-3.0\r\n\r\npragma solidity >=0.7.0 <0.9.0;\r\n\r\n/**\r\n * @title Storage\r\n * @dev Store & retrieve value in a variable\r\n */\r\n\r\nimport \"./PublicCertificatesPool.sol\";\r\nimport \"./PrivatePoolGenerator.sol\";\r\nimport \"./Treasury.sol\";\r\nimport \"./Base/TokenGovernanceBaseContract.sol\";\r\nimport \"./CertisToken.sol\";\r\n\r\ncontract CertificatesPoolManager is TokenGovernanceBaseContract{\r\n\r\n    //modifier\r\n    modifier isNotInitialized(){\r\n        require(false == _init, \"EC26\");\r\n        _;\r\n    }\r\n\r\n    // proposition to change\r\n    struct ProposedContractsStruct{\r\n        address NewPublicPoolAddress;\r\n        address NewTreasuryAddress;\r\n        address NewCertisTokenAddress;\r\n        address NewPrivatePoolGeneratorAddress;\r\n    }\r\n\r\n    ProposedContractsStruct _ProposedContracts;\r\n    \r\n    // Private Certificate Pools Generator\r\n    PrivatePoolGenerator _PrivatePoolGenerator;\r\n\r\n    // Public Certificates Pool structure\r\n    PublicCertificatesPool  _PublicCertificatesPool;\r\n\r\n    // Treasury\r\n    Treasury _Treasury;\r\n\r\n    // init\r\n    bool _init;\r\n\r\n    // constructor and Initialization\r\n    constructor(uint256 PropositionLifeTime, uint8 PropositionThresholdPercentage, uint8 minWeightToProposePercentage) \r\n    TokenGovernanceBaseContract(PropositionLifeTime, PropositionThresholdPercentage, minWeightToProposePercentage)\r\n    {}\r\n\r\n    function Initialize(address PublicPoolAddress, address TreasuryAddress, address CertisTokenAddress, address PrivatePoolGeneratorAddress) \r\n        isFromChairPerson()\r\n        isNotInitialized()\r\n    external\r\n    {\r\n        _init = true;\r\n        InternalUpdateContractsVersions(PublicPoolAddress, TreasuryAddress, CertisTokenAddress, PrivatePoolGeneratorAddress, true);\r\n    }\r\n\r\n    // governance : contracts assignment and management\r\n    function updateContracts(address PublicPoolAddress, address TreasuryAddress, address CertisTokenAddress, address PrivatePoolGeneratorAddress) external\r\n    {\r\n        InternalUpdateContractsVersions(PublicPoolAddress, TreasuryAddress, CertisTokenAddress, PrivatePoolGeneratorAddress, false);\r\n    }\r\n\r\n    function InternalUpdateContractsVersions(address PublicPoolAddress, address TreasuryAddress, address CertisTokenAddress, address PrivatePoolGeneratorAddress, bool fromConstructor) internal\r\n    {\r\n        if(fromConstructor){\r\n            assignContracts(PublicPoolAddress, TreasuryAddress, CertisTokenAddress, PrivatePoolGeneratorAddress);\r\n        }\r\n        else{\r\n            addProposition(block.timestamp + _PropositionLifeTime, _PropositionThresholdPercentage);\r\n            _ProposedContracts.NewPublicPoolAddress = PublicPoolAddress;\r\n            _ProposedContracts.NewTreasuryAddress = TreasuryAddress;\r\n            _ProposedContracts.NewCertisTokenAddress = CertisTokenAddress;\r\n            _ProposedContracts.NewPrivatePoolGeneratorAddress = PrivatePoolGeneratorAddress;\r\n        }\r\n        \r\n    }\r\n\r\n    function propositionApproved() internal override\r\n    {\r\n        assignContracts(_ProposedContracts.NewPublicPoolAddress, _ProposedContracts.NewTreasuryAddress, _ProposedContracts.NewCertisTokenAddress, _ProposedContracts.NewPrivatePoolGeneratorAddress);\r\n        removeProposition();\r\n    }\r\n\r\n    function propositionRejected() internal override\r\n    {\r\n        removeProposition();\r\n    }\r\n\r\n    function propositionExpired() internal override\r\n    {\r\n        removeProposition();\r\n    }\r\n\r\n    function removeProposition() internal\r\n    {\r\n       delete(_ProposedContracts);\r\n    }\r\n\r\n    function assignContracts(address PublicPoolAddress, address TreasuryAddress, address CertisTokenAddress, address PrivatePoolGeneratorAddress) private {\r\n        _PublicCertificatesPool = PublicCertificatesPool(PublicPoolAddress);\r\n        _CertisToken = CertisToken(CertisTokenAddress); \r\n        _Treasury = Treasury(TreasuryAddress);\r\n        _PrivatePoolGenerator = PrivatePoolGenerator(PrivatePoolGeneratorAddress);\r\n        _PublicCertificatesPool.updateContracts(TreasuryAddress);\r\n        _PrivatePoolGenerator.updateContracts(TreasuryAddress);\r\n        _Treasury.updateContracts(PublicPoolAddress, CertisTokenAddress);\r\n    }\r\n    \r\n    // configuration\r\n    function retrieveConfiguration() external view returns (address, address, address, address, address, uint) {\r\n        return (address(_Treasury), address(_PublicCertificatesPool), address(_CertisToken), address(_PrivatePoolGenerator), _chairperson, address(this).balance);\r\n    }\r\n    \r\n}",
  "sourcePath": "C:/Users/d-aam/GitHub/Certificates/contracts/CertificatesPoolManager.sol",
  "compiler": {
    "name": "solc",
    "version": "0.8.6+commit.11564f7e.Emscripten.clang"
  },
  "schemaVersion": "3.3.4",
  "updatedAt": "2021-07-23T08:02:20.720Z",
  "devdoc": {
    "kind": "dev",
    "methods": {},
    "version": 1
  },
  "userdoc": {
    "kind": "user",
    "methods": {},
    "version": 1
  }
}