{
  "contractName": "CertificatesPoolManager",
  "abi": [
    {
      "inputs": [
        {
          "internalType": "string",
          "name": "contractName",
          "type": "string"
        },
        {
          "internalType": "string",
          "name": "contractVersion",
          "type": "string"
        }
      ],
      "stateMutability": "nonpayable",
      "type": "constructor"
    },
    {
      "anonymous": false,
      "inputs": [
        {
          "indexed": false,
          "internalType": "uint256",
          "name": "Id",
          "type": "uint256"
        },
        {
          "indexed": true,
          "internalType": "address",
          "name": "Proposer",
          "type": "address"
        },
        {
          "indexed": false,
          "internalType": "uint256",
          "name": "Deadline",
          "type": "uint256"
        },
        {
          "indexed": false,
          "internalType": "uint256",
          "name": "Threshold",
          "type": "uint256"
        }
      ],
      "name": "_AddedProposition",
      "type": "event"
    },
    {
      "anonymous": false,
      "inputs": [
        {
          "indexed": false,
          "internalType": "uint256",
          "name": "Id",
          "type": "uint256"
        },
        {
          "indexed": true,
          "internalType": "address",
          "name": "Proposer",
          "type": "address"
        }
      ],
      "name": "_CancelledProposition",
      "type": "event"
    },
    {
      "anonymous": false,
      "inputs": [
        {
          "indexed": false,
          "internalType": "address",
          "name": "Public",
          "type": "address"
        },
        {
          "indexed": false,
          "internalType": "address",
          "name": "Treasury",
          "type": "address"
        },
        {
          "indexed": false,
          "internalType": "address",
          "name": "Certis",
          "type": "address"
        },
        {
          "indexed": false,
          "internalType": "address",
          "name": "PrivateFactory",
          "type": "address"
        },
        {
          "indexed": false,
          "internalType": "address",
          "name": "Private",
          "type": "address"
        },
        {
          "indexed": false,
          "internalType": "address",
          "name": "ProviderFactory",
          "type": "address"
        },
        {
          "indexed": false,
          "internalType": "address",
          "name": "Provider",
          "type": "address"
        },
        {
          "indexed": false,
          "internalType": "address",
          "name": "PriceConverter",
          "type": "address"
        },
        {
          "indexed": false,
          "internalType": "address",
          "name": "PropositionSettings",
          "type": "address"
        }
      ],
      "name": "_NewContracts",
      "type": "event"
    },
    {
      "anonymous": false,
      "inputs": [
        {
          "indexed": false,
          "internalType": "uint256",
          "name": "Id",
          "type": "uint256"
        },
        {
          "indexed": true,
          "internalType": "address",
          "name": "Proposer",
          "type": "address"
        },
        {
          "indexed": false,
          "internalType": "uint256",
          "name": "VotesFor",
          "type": "uint256"
        },
        {
          "indexed": false,
          "internalType": "uint256",
          "name": "VotesAgainst",
          "type": "uint256"
        }
      ],
      "name": "_PropositionApproved",
      "type": "event"
    },
    {
      "anonymous": false,
      "inputs": [
        {
          "indexed": false,
          "internalType": "uint256",
          "name": "Id",
          "type": "uint256"
        },
        {
          "indexed": true,
          "internalType": "address",
          "name": "Proposer",
          "type": "address"
        },
        {
          "indexed": false,
          "internalType": "uint256",
          "name": "VotesFor",
          "type": "uint256"
        },
        {
          "indexed": false,
          "internalType": "uint256",
          "name": "VotesAgainst",
          "type": "uint256"
        }
      ],
      "name": "_PropositionRejected",
      "type": "event"
    },
    {
      "anonymous": false,
      "inputs": [
        {
          "indexed": false,
          "internalType": "uint256",
          "name": "Id",
          "type": "uint256"
        },
        {
          "indexed": true,
          "internalType": "address",
          "name": "Voter",
          "type": "address"
        },
        {
          "indexed": false,
          "internalType": "bool",
          "name": "Vote",
          "type": "bool"
        },
        {
          "indexed": false,
          "internalType": "uint256",
          "name": "AmountTokens",
          "type": "uint256"
        }
      ],
      "name": "_PropositionVote",
      "type": "event"
    },
    {
      "anonymous": false,
      "inputs": [
        {
          "indexed": true,
          "internalType": "uint256",
          "name": "Id",
          "type": "uint256"
        },
        {
          "indexed": false,
          "internalType": "address",
          "name": "From",
          "type": "address"
        },
        {
          "indexed": false,
          "internalType": "address",
          "name": "To",
          "type": "address"
        },
        {
          "indexed": false,
          "internalType": "uint256",
          "name": "Amount",
          "type": "uint256"
        }
      ],
      "name": "_UsedTokensTransfered",
      "type": "event"
    },
    {
      "inputs": [],
      "name": "cancelProposition",
      "outputs": [],
      "stateMutability": "nonpayable",
      "type": "function"
    },
    {
      "inputs": [
        {
          "internalType": "address",
          "name": "from",
          "type": "address"
        },
        {
          "internalType": "address",
          "name": "to",
          "type": "address"
        },
        {
          "internalType": "uint256",
          "name": "amount",
          "type": "uint256"
        }
      ],
      "name": "onTokenBalanceChanged",
      "outputs": [],
      "stateMutability": "nonpayable",
      "type": "function"
    },
    {
      "inputs": [],
      "name": "retrieveChairPerson",
      "outputs": [
        {
          "internalType": "address",
          "name": "",
          "type": "address"
        }
      ],
      "stateMutability": "view",
      "type": "function"
    },
    {
      "inputs": [],
      "name": "retrieveContractConfig",
      "outputs": [
        {
          "internalType": "string",
          "name": "",
          "type": "string"
        },
        {
          "internalType": "string",
          "name": "",
          "type": "string"
        }
      ],
      "stateMutability": "view",
      "type": "function"
    },
    {
      "inputs": [],
      "name": "retrieveManagerContract",
      "outputs": [
        {
          "internalType": "address",
          "name": "",
          "type": "address"
        }
      ],
      "stateMutability": "view",
      "type": "function"
    },
    {
      "inputs": [],
      "name": "retrieveNextPropId",
      "outputs": [
        {
          "internalType": "uint256",
          "name": "",
          "type": "uint256"
        }
      ],
      "stateMutability": "view",
      "type": "function"
    },
    {
      "inputs": [
        {
          "internalType": "address",
          "name": "addr",
          "type": "address"
        },
        {
          "internalType": "uint256",
          "name": "nonce",
          "type": "uint256"
        }
      ],
      "name": "retrieveNonce",
      "outputs": [
        {
          "internalType": "bool",
          "name": "",
          "type": "bool"
        }
      ],
      "stateMutability": "view",
      "type": "function"
    },
    {
      "inputs": [],
      "name": "retrievePropositionStatus",
      "outputs": [
        {
          "internalType": "address",
          "name": "",
          "type": "address"
        },
        {
          "internalType": "uint256",
          "name": "",
          "type": "uint256"
        },
        {
          "internalType": "uint256",
          "name": "",
          "type": "uint256"
        },
        {
          "internalType": "uint256",
          "name": "",
          "type": "uint256"
        },
        {
          "internalType": "uint256",
          "name": "",
          "type": "uint256"
        }
      ],
      "stateMutability": "view",
      "type": "function"
    },
    {
      "inputs": [
        {
          "internalType": "uint256",
          "name": "PropId",
          "type": "uint256"
        },
        {
          "internalType": "address",
          "name": "voter",
          "type": "address"
        }
      ],
      "name": "retrieveVotesForVoter",
      "outputs": [
        {
          "internalType": "uint256",
          "name": "",
          "type": "uint256"
        }
      ],
      "stateMutability": "view",
      "type": "function"
    },
    {
      "inputs": [
        {
          "internalType": "bool",
          "name": "vote",
          "type": "bool"
        }
      ],
      "name": "voteProposition",
      "outputs": [],
      "stateMutability": "nonpayable",
      "type": "function"
    },
    {
      "inputs": [
        {
          "internalType": "address",
          "name": "voter",
          "type": "address"
        },
        {
          "internalType": "uint256",
          "name": "propID",
          "type": "uint256"
        },
        {
          "internalType": "bool",
          "name": "vote",
          "type": "bool"
        },
        {
          "internalType": "uint256",
          "name": "nonce",
          "type": "uint256"
        },
        {
          "internalType": "uint256",
          "name": "deadline",
          "type": "uint256"
        },
        {
          "internalType": "bytes",
          "name": "signature",
          "type": "bytes"
        }
      ],
      "name": "votePropositionOnBehalfOf",
      "outputs": [],
      "stateMutability": "nonpayable",
      "type": "function"
    },
    {
      "inputs": [
        {
          "components": [
            {
              "internalType": "address",
              "name": "NewPublicPoolAddress",
              "type": "address"
            },
            {
              "internalType": "address",
              "name": "NewTreasuryAddress",
              "type": "address"
            },
            {
              "internalType": "address",
              "name": "NewCertisTokenAddress",
              "type": "address"
            },
            {
              "internalType": "address",
              "name": "NewPrivatePoolFactoryAddress",
              "type": "address"
            },
            {
              "internalType": "address",
              "name": "NewPrivatePoolAddress",
              "type": "address"
            },
            {
              "internalType": "address",
              "name": "NewProviderFactoryAddress",
              "type": "address"
            },
            {
              "internalType": "address",
              "name": "NewProviderAddress",
              "type": "address"
            },
            {
              "internalType": "address",
              "name": "NewPriceConverterAddress",
              "type": "address"
            },
            {
              "internalType": "address",
              "name": "NewPropositionSettingsAddress",
              "type": "address"
            },
            {
              "internalType": "bytes",
              "name": "NewPublicPoolData",
              "type": "bytes"
            },
            {
              "internalType": "bytes",
              "name": "NewTreasuryData",
              "type": "bytes"
            },
            {
              "internalType": "bytes",
              "name": "NewCertisTokenData",
              "type": "bytes"
            },
            {
              "internalType": "bytes",
              "name": "NewPrivatePoolFactoryData",
              "type": "bytes"
            },
            {
              "internalType": "bytes",
              "name": "NewProviderFactoryData",
              "type": "bytes"
            },
            {
              "internalType": "bytes",
              "name": "NewPriceConverterData",
              "type": "bytes"
            },
            {
              "internalType": "bytes",
              "name": "NewPropositionSettingsData",
              "type": "bytes"
            },
            {
              "internalType": "string",
              "name": "NewPrivatePoolContractName",
              "type": "string"
            },
            {
              "internalType": "string",
              "name": "NewPrivatePoolContractVersion",
              "type": "string"
            }
          ],
          "internalType": "struct Library.ProposedContractsStruct",
          "name": "initialContracts",
          "type": "tuple"
        }
      ],
      "name": "InitializeContracts",
      "outputs": [],
      "stateMutability": "nonpayable",
      "type": "function"
    },
    {
      "inputs": [
        {
          "components": [
            {
              "internalType": "address",
              "name": "NewPublicPoolAddress",
              "type": "address"
            },
            {
              "internalType": "address",
              "name": "NewTreasuryAddress",
              "type": "address"
            },
            {
              "internalType": "address",
              "name": "NewCertisTokenAddress",
              "type": "address"
            },
            {
              "internalType": "address",
              "name": "NewPrivatePoolFactoryAddress",
              "type": "address"
            },
            {
              "internalType": "address",
              "name": "NewPrivatePoolAddress",
              "type": "address"
            },
            {
              "internalType": "address",
              "name": "NewProviderFactoryAddress",
              "type": "address"
            },
            {
              "internalType": "address",
              "name": "NewProviderAddress",
              "type": "address"
            },
            {
              "internalType": "address",
              "name": "NewPriceConverterAddress",
              "type": "address"
            },
            {
              "internalType": "address",
              "name": "NewPropositionSettingsAddress",
              "type": "address"
            },
            {
              "internalType": "bytes",
              "name": "NewPublicPoolData",
              "type": "bytes"
            },
            {
              "internalType": "bytes",
              "name": "NewTreasuryData",
              "type": "bytes"
            },
            {
              "internalType": "bytes",
              "name": "NewCertisTokenData",
              "type": "bytes"
            },
            {
              "internalType": "bytes",
              "name": "NewPrivatePoolFactoryData",
              "type": "bytes"
            },
            {
              "internalType": "bytes",
              "name": "NewProviderFactoryData",
              "type": "bytes"
            },
            {
              "internalType": "bytes",
              "name": "NewPriceConverterData",
              "type": "bytes"
            },
            {
              "internalType": "bytes",
              "name": "NewPropositionSettingsData",
              "type": "bytes"
            },
            {
              "internalType": "string",
              "name": "NewPrivatePoolContractName",
              "type": "string"
            },
            {
              "internalType": "string",
              "name": "NewPrivatePoolContractVersion",
              "type": "string"
            }
          ],
          "internalType": "struct Library.ProposedContractsStruct",
          "name": "UpgradeProposition",
          "type": "tuple"
        }
      ],
      "name": "upgradeContracts",
      "outputs": [],
      "stateMutability": "nonpayable",
      "type": "function"
    },
    {
      "inputs": [],
      "name": "retrieveProposition",
      "outputs": [
        {
          "internalType": "bytes32[]",
          "name": "",
          "type": "bytes32[]"
        }
      ],
      "stateMutability": "view",
      "type": "function"
    },
    {
      "inputs": [],
      "name": "retrievePublicCertificatePoolProxy",
      "outputs": [
        {
          "internalType": "address",
          "name": "",
          "type": "address"
        }
      ],
      "stateMutability": "view",
      "type": "function"
    },
    {
      "inputs": [],
      "name": "retrieveTreasuryProxy",
      "outputs": [
        {
          "internalType": "address",
          "name": "",
          "type": "address"
        }
      ],
      "stateMutability": "view",
      "type": "function"
    },
    {
      "inputs": [],
      "name": "retrieveCertisTokenProxy",
      "outputs": [
        {
          "internalType": "address",
          "name": "",
          "type": "address"
        }
      ],
      "stateMutability": "view",
      "type": "function"
    },
    {
      "inputs": [],
      "name": "retrievePrivatePoolFactoryProxy",
      "outputs": [
        {
          "internalType": "address",
          "name": "",
          "type": "address"
        }
      ],
      "stateMutability": "view",
      "type": "function"
    },
    {
      "inputs": [],
      "name": "retrievePrivatePoolBeacon",
      "outputs": [
        {
          "internalType": "address",
          "name": "",
          "type": "address"
        }
      ],
      "stateMutability": "view",
      "type": "function"
    },
    {
      "inputs": [],
      "name": "retrieveProviderFactoryProxy",
      "outputs": [
        {
          "internalType": "address",
          "name": "",
          "type": "address"
        }
      ],
      "stateMutability": "view",
      "type": "function"
    },
    {
      "inputs": [],
      "name": "retrieveProviderBeacon",
      "outputs": [
        {
          "internalType": "address",
          "name": "",
          "type": "address"
        }
      ],
      "stateMutability": "view",
      "type": "function"
    },
    {
      "inputs": [],
      "name": "retrievePriceConverterProxy",
      "outputs": [
        {
          "internalType": "address",
          "name": "",
          "type": "address"
        }
      ],
      "stateMutability": "view",
      "type": "function"
    },
    {
      "inputs": [],
      "name": "retrievePropositionSettingsProxy",
      "outputs": [
        {
          "internalType": "address",
          "name": "",
          "type": "address"
        }
      ],
      "stateMutability": "view",
      "type": "function"
    },
    {
      "inputs": [],
      "name": "retrievePublicCertificatePool",
      "outputs": [
        {
          "internalType": "address",
          "name": "",
          "type": "address"
        }
      ],
      "stateMutability": "view",
      "type": "function"
    },
    {
      "inputs": [],
      "name": "retrieveTreasury",
      "outputs": [
        {
          "internalType": "address",
          "name": "",
          "type": "address"
        }
      ],
      "stateMutability": "view",
      "type": "function"
    },
    {
      "inputs": [],
      "name": "retrieveCertisToken",
      "outputs": [
        {
          "internalType": "address",
          "name": "",
          "type": "address"
        }
      ],
      "stateMutability": "view",
      "type": "function"
    },
    {
      "inputs": [],
      "name": "retrievePrivatePoolFactory",
      "outputs": [
        {
          "internalType": "address",
          "name": "",
          "type": "address"
        }
      ],
      "stateMutability": "view",
      "type": "function"
    },
    {
      "inputs": [],
      "name": "retrievePrivatePool",
      "outputs": [
        {
          "internalType": "address",
          "name": "",
          "type": "address"
        }
      ],
      "stateMutability": "view",
      "type": "function"
    },
    {
      "inputs": [],
      "name": "retrieveProviderFactory",
      "outputs": [
        {
          "internalType": "address",
          "name": "",
          "type": "address"
        }
      ],
      "stateMutability": "view",
      "type": "function"
    },
    {
      "inputs": [],
      "name": "retrieveProvider",
      "outputs": [
        {
          "internalType": "address",
          "name": "",
          "type": "address"
        }
      ],
      "stateMutability": "view",
      "type": "function"
    },
    {
      "inputs": [],
      "name": "retrievePriceConverter",
      "outputs": [
        {
          "internalType": "address",
          "name": "",
          "type": "address"
        }
      ],
      "stateMutability": "view",
      "type": "function"
    },
    {
      "inputs": [],
      "name": "retrievePropositionSettings",
      "outputs": [
        {
          "internalType": "address",
          "name": "",
          "type": "address"
        }
      ],
      "stateMutability": "view",
      "type": "function"
    },
    {
      "inputs": [],
      "name": "isInitialized",
      "outputs": [
        {
          "internalType": "bool",
          "name": "",
          "type": "bool"
        }
      ],
      "stateMutability": "view",
      "type": "function"
    }
  ],
  "bytecode": "0x60806040523480156200001157600080fd5b506040516200589c3803806200589c83398101604081905262000034916200039f565b6200004d33308484620000ae60201b6200105d1760201c565b6040516200005b9062000234565b604051809103906000f08015801562000078573d6000803e3d6000fd5b50600d80546001600160a01b0319166001600160a01b039290921691909117905550506028805460ff60a01b19169055620004aa565b600354610100900460ff1680620000c8575060035460ff16155b620000f05760405162461bcd60e51b8152600401620000e79062000409565b60405180910390fd5b600354610100900460ff1615801562000113576003805461ffff19166101011790555b62000129846200016f60201b6200110a1760201c565b600480546001600160a01b0319166001600160a01b0387161790556000600b5562000155838362000204565b801562000168576003805461ff00191690555b5050505050565b600354610100900460ff168062000189575060035460ff16155b620001a85760405162461bcd60e51b8152600401620000e79062000409565b600354610100900460ff16158015620001cb576003805461ffff19166101011790555b6003805462010000600160b01b031916620100006001600160a01b03851602179055801562000200576003805461ff00191690555b5050565b81516200021990600090602085019062000242565b5080516200022f90600190602084019062000242565b505050565b6107bd80620050df83390190565b828054620002509062000457565b90600052602060002090601f016020900481019282620002745760008555620002bf565b82601f106200028f57805160ff1916838001178555620002bf565b82800160010185558215620002bf579182015b82811115620002bf578251825591602001919060010190620002a2565b50620002cd929150620002d1565b5090565b5b80821115620002cd5760008155600101620002d2565b600082601f830112620002fa57600080fd5b81516001600160401b038082111562000317576200031762000494565b604051601f8301601f19908116603f0116810190828211818310171562000342576200034262000494565b816040528381526020925086838588010111156200035f57600080fd5b600091505b8382101562000383578582018301518183018401529082019062000364565b83821115620003955760008385830101525b9695505050505050565b60008060408385031215620003b357600080fd5b82516001600160401b0380821115620003cb57600080fd5b620003d986838701620002e8565b93506020850151915080821115620003f057600080fd5b50620003ff85828601620002e8565b9150509250929050565b6020808252602e908201527f496e697469616c697a61626c653a20636f6e747261637420697320616c72656160408201526d191e481a5b9a5d1a585b1a5e995960921b606082015260800190565b600181811c908216806200046c57607f821691505b602082108114156200048e57634e487b7160e01b600052602260045260246000fd5b50919050565b634e487b7160e01b600052604160045260246000fd5b614c2580620004ba6000396000f3fe60806040523480156200001157600080fd5b5060043610620001ae5760003560e01c8063029b967314620001b357806304cc67a914620001d557806322d929e114620001e8578063392e53cd14620001f25780633c65d42714620002115780633c7df55d14620002235780633feca4ca146200023c5780634044adb2146200027857806348a9ddfe14620002b15780634a829c9614620002bb5780634b19aa1614620002d257806355457ee914620002dc5780635773bc2314620002e65780635a3794e914620002f85780635b362e84146200030a5780636025541514620003225780636771717714620003345780637c2f3aaf146200033e5780637faa3d6f1462000350578063840f6d17146200036757806387552a0d14620003a957806391f9167114620003bb578063a42e133914620003d2578063a93316f514620003dc578063aa33380a14620003f5578063c50ec82b1462000407578063d2116a021462000411578063da3dce26146200042b578063db85bc4d146200043d578063e276f0b4146200044f578063ee2aa36a1462000466578063efd15d171462000470578063f5ad9acc146200047a575b600080fd5b620001bd6200048c565b604051620001cc919062003087565b60405180910390f35b600b545b604051908152602001620001cc565b620001bd620004ab565b602854600160a01b900460ff165b6040519015158152602001620001cc565b6020546001600160a01b0316620001bd565b6200023a6200023436600462002d0f565b620004c5565b005b620002006200024d36600462002d55565b6001600160a01b03919091166000908152600260209081526040808320938352929052205460ff1690565b620001d96200028936600462002f1b565b6000918252600c602090815260408084206001600160a01b0393909316845291905290205490565b620001bd620005cf565b6200023a620002cc36600462002edd565b620005e9565b620001bd620006ce565b6200023a620006da565b6022546001600160a01b0316620001bd565b6025546001600160a01b0316620001bd565b6003546201000090046001600160a01b0316620001bd565b6027546001600160a01b0316620001bd565b620001bd620007b4565b6021546001600160a01b0316620001bd565b6200023a6200036136600462002d84565b620007ce565b600654600754600854600954600a54604080516001600160a01b0390961686526020860194909452928401919091526060830152608082015260a001620001cc565b6028546001600160a01b0316620001bd565b6200023a620003cc36600462002e83565b620007f2565b620001bd62000801565b620003e66200081b565b604051620001cc919062003167565b6024546001600160a01b0316620001bd565b620001bd62000eca565b6200041b62000ed6565b604051620001cc92919062003202565b6026546001600160a01b0316620001bd565b6004546001600160a01b0316620001bd565b6200023a6200046036600462002edd565b6200100d565b620001bd62001029565b620001bd62001043565b6023546001600160a01b0316620001bd565b602654600090620004a6906001600160a01b03166200119f565b905090565b602254600090620004a6906001600160a01b03166200119f565b3373__Library_______________________________6337ea306382600360029054906101000a90046001600160a01b03166001600160a01b031663da3dce266040518163ffffffff1660e01b815260040160206040518083038186803b1580156200053057600080fd5b505afa15801562000545573d6000803e3d6000fd5b505050506040513d601f19601f820116820180604052508101906200056b919062002cef565b6040518363ffffffff1660e01b81526004016200058a9291906200309b565b60006040518083038186803b158015620005a357600080fd5b505af4158015620005b8573d6000803e3d6000fd5b50505050620005c98484846200122c565b50505050565b602854600090620004a6906001600160a01b03166200119f565b600480546040516337ea306360e01b8152339273__Library_______________________________926337ea306392620006309286926001600160a01b031691016200309b565b60006040518083038186803b1580156200064957600080fd5b505af41580156200065e573d6000803e3d6000fd5b5050602854600160a01b900460ff16159150620006ac90505760405162461bcd60e51b8152602060048201526005602482015264454332362d60d81b60448201526064015b60405180910390fd5b620006b78262001253565b50506028805460ff60a01b1916600160a01b179055565b6000620004a6620017c0565b6001620006e78162001841565b6006546040516337ea306360e01b8152339173__Library_______________________________916337ea3063916200072f9185916001600160a01b0316906004016200309b565b60006040518083038186803b1580156200074857600080fd5b505af41580156200075d573d6000803e3d6000fd5b505050506200076b620018ce565b6006546005546040519081526001600160a01b03909116907f1fe8aec10c0a50fa765076161e08c1f961ced69594ff45cf7d559f593afe14799060200160405180910390a25050565b602054600090620004a6906001600160a01b03166200119f565b620007de868686868686620018f9565b620007ea868562001a67565b505050505050565b620007fe338262001a67565b50565b602454600090620004a6906001600160a01b03166200119f565b60408051600980825261014082019092526060916000919060208201610120803683375050600e5460405163bc215e8560e01b815292935073__AddressLibrary________________________9263bc215e85925062000888916001600160a01b03169060040162003087565b60206040518083038186803b158015620008a157600080fd5b505af4158015620008b6573d6000803e3d6000fd5b505050506040513d601f19601f82011682018060405250810190620008dc919062002ec3565b81600081518110620008f257620008f2620034f5565b6020908102919091010152600f5460405163bc215e8560e01b815273__AddressLibrary________________________9163bc215e859162000941916001600160a01b03169060040162003087565b60206040518083038186803b1580156200095a57600080fd5b505af41580156200096f573d6000803e3d6000fd5b505050506040513d601f19601f8201168201806040525081019062000995919062002ec3565b81600181518110620009ab57620009ab620034f5565b602090810291909101015260105460405163bc215e8560e01b815273__AddressLibrary________________________9163bc215e8591620009fa916001600160a01b03169060040162003087565b60206040518083038186803b15801562000a1357600080fd5b505af415801562000a28573d6000803e3d6000fd5b505050506040513d601f19601f8201168201806040525081019062000a4e919062002ec3565b8160028151811062000a645762000a64620034f5565b602090810291909101015260115460405163bc215e8560e01b815273__AddressLibrary________________________9163bc215e859162000ab3916001600160a01b03169060040162003087565b60206040518083038186803b15801562000acc57600080fd5b505af415801562000ae1573d6000803e3d6000fd5b505050506040513d601f19601f8201168201806040525081019062000b07919062002ec3565b8160038151811062000b1d5762000b1d620034f5565b602090810291909101015260125460405163bc215e8560e01b815273__AddressLibrary________________________9163bc215e859162000b6c916001600160a01b03169060040162003087565b60206040518083038186803b15801562000b8557600080fd5b505af415801562000b9a573d6000803e3d6000fd5b505050506040513d601f19601f8201168201806040525081019062000bc0919062002ec3565b8160048151811062000bd65762000bd6620034f5565b602090810291909101015260135460405163bc215e8560e01b815273__AddressLibrary________________________9163bc215e859162000c25916001600160a01b03169060040162003087565b60206040518083038186803b15801562000c3e57600080fd5b505af415801562000c53573d6000803e3d6000fd5b505050506040513d601f19601f8201168201806040525081019062000c79919062002ec3565b8160058151811062000c8f5762000c8f620034f5565b602090810291909101015260145460405163bc215e8560e01b815273__AddressLibrary________________________9163bc215e859162000cde916001600160a01b03169060040162003087565b60206040518083038186803b15801562000cf757600080fd5b505af415801562000d0c573d6000803e3d6000fd5b505050506040513d601f19601f8201168201806040525081019062000d32919062002ec3565b8160068151811062000d485762000d48620034f5565b602090810291909101015260155460405163bc215e8560e01b815273__AddressLibrary________________________9163bc215e859162000d97916001600160a01b03169060040162003087565b60206040518083038186803b15801562000db057600080fd5b505af415801562000dc5573d6000803e3d6000fd5b505050506040513d601f19601f8201168201806040525081019062000deb919062002ec3565b8160078151811062000e015762000e01620034f5565b602090810291909101015260165460405163bc215e8560e01b815273__AddressLibrary________________________9163bc215e859162000e50916001600160a01b03169060040162003087565b60206040518083038186803b15801562000e6957600080fd5b505af415801562000e7e573d6000803e3d6000fd5b505050506040513d601f19601f8201168201806040525081019062000ea4919062002ec3565b8160088151811062000eba5762000eba620034f5565b6020908102919091010152919050565b6000620004a662001b90565b6060806000600181805462000eeb9062003484565b80601f016020809104026020016040519081016040528092919081815260200182805462000f199062003484565b801562000f6a5780601f1062000f3e5761010080835404028352916020019162000f6a565b820191906000526020600020905b81548152906001019060200180831162000f4c57829003601f168201915b5050505050915080805462000f7f9062003484565b80601f016020809104026020016040519081016040528092919081815260200182805462000fad9062003484565b801562000ffe5780601f1062000fd25761010080835404028352916020019162000ffe565b820191906000526020600020905b81548152906001019060200180831162000fe057829003601f168201915b50505050509050915091509091565b80600e6200101c828262003550565b905050620007fe62001bd6565b602754600090620004a6906001600160a01b03166200119f565b602554600090620004a6906001600160a01b03166200119f565b600354610100900460ff168062001077575060035460ff16155b620010965760405162461bcd60e51b8152600401620006a39062003240565b600354610100900460ff16158015620010b9576003805461ffff19166101011790555b620010c4846200110a565b600480546001600160a01b0319166001600160a01b0387161790556000600b55620010f0838362001f55565b801562001103576003805461ff00191690555b5050505050565b600354610100900460ff168062001124575060035460ff16155b620011435760405162461bcd60e51b8152600401620006a39062003240565b600354610100900460ff1615801562001166576003805461ffff19166101011790555b6003805462010000600160b01b031916620100006001600160a01b0385160217905580156200119b576003805461ff00191690555b5050565b600d546040516310270e3d60e11b81526000916001600160a01b03169063204e1c7a90620011d290859060040162003087565b60206040518083038186803b158015620011eb57600080fd5b505afa15801562001200573d6000803e3d6000fd5b505050506040513d601f19601f8201168201806040525081019062001226919062002cef565b92915050565b6200123662001f80565b1515600114156200124e576200124e83838362001fc0565b505050565b62001262602082018262002ccf565b600d546001600160a01b03166200127e610120840184620032a4565b6040516200128c9062002bbc565b6200129b9493929190620030b5565b604051809103906000f080158015620012b8573d6000803e3d6000fd5b50602480546001600160a01b0319166001600160a01b0392909216919091179055620012eb604082016020830162002ccf565b600d546001600160a01b031662001307610140840184620032a4565b604051620013159062002bbc565b620013249493929190620030b5565b604051809103906000f08015801562001341573d6000803e3d6000fd5b50602580546001600160a01b0319166001600160a01b039290921691909117905562001374606082016040830162002ccf565b600d546001600160a01b031662001390610160840184620032a4565b6040516200139e9062002bbc565b620013ad9493929190620030b5565b604051809103906000f080158015620013ca573d6000803e3d6000fd5b50602680546001600160a01b0319166001600160a01b0392909216919091179055620013fd608082016060830162002ccf565b600d546001600160a01b031662001419610180840184620032a4565b604051620014279062002bbc565b620014369493929190620030b5565b604051809103906000f08015801562001453573d6000803e3d6000fd5b50602080546001600160a01b0319166001600160a01b03929092169190911790556200148660a082016080830162002ccf565b604051620014949062002bca565b620014a0919062003087565b604051809103906000f080158015620014bd573d6000803e3d6000fd5b50602180546001600160a01b0319166001600160a01b0392909216919091179055620014f060c0820160a0830162002ccf565b600d546001600160a01b03166200150c6101a0840184620032a4565b6040516200151a9062002bbc565b620015299493929190620030b5565b604051809103906000f08015801562001546573d6000803e3d6000fd5b50602280546001600160a01b0319166001600160a01b03929092169190911790556200157960e0820160c0830162002ccf565b604051620015879062002bca565b62001593919062003087565b604051809103906000f080158015620015b0573d6000803e3d6000fd5b50602380546001600160a01b0319166001600160a01b0392909216919091179055620015e4610100820160e0830162002ccf565b600d546001600160a01b0316620016006101c0840184620032a4565b6040516200160e9062002bbc565b6200161d9493929190620030b5565b604051809103906000f0801580156200163a573d6000803e3d6000fd5b50602780546001600160a01b0319166001600160a01b03929092169190911790556200166f6101208201610100830162002ccf565b600d546001600160a01b03166200168b6101e0840184620032a4565b604051620016999062002bbc565b620016a89493929190620030b5565b604051809103906000f080158015620016c5573d6000803e3d6000fd5b50602880546001600160a01b0319166001600160a01b039283161790556020541663ce50ac76620016fb610200840184620032a4565b6040518363ffffffff1660e01b81526004016200171a929190620031e4565b600060405180830381600087803b1580156200173557600080fd5b505af11580156200174a573d6000803e3d6000fd5b50506020546001600160a01b03169150631dd5862c905062001771610220840184620032a4565b6040518363ffffffff1660e01b815260040162001790929190620031e4565b600060405180830381600087803b158015620017ab57600080fd5b505af115801562001103573d6000803e3d6000fd5b60235460408051635c60da1b60e01b815290516000926001600160a01b031691635c60da1b916004808301926020929190829003018186803b1580156200180657600080fd5b505afa1580156200181b573d6000803e3d6000fd5b505050506040513d601f19601f82011682018060405250810190620004a6919062002cef565b80156200188d576200185262001f80565b1515600114620007fe5760405162461bcd60e51b8152602060048201526005602482015264454332352d60d81b6044820152606401620006a3565b6200189762001f80565b15620007fe5760405162461bcd60e51b8152602060048201526005602482015264454332342d60d81b6044820152606401620006a3565b60006005819055600680546001600160a01b0319169055600781905560088190556009819055600a55565b81620019058162002138565b868462001913828262002171565b60055488146200194e5760405162461bcd60e51b8152602060048201526005602482015264454333352d60d81b6044820152606401620006a3565b60405163432f9a5560e01b815273__SignatureLibrary______________________9063432f9a559062001997908c908c908c908c908c908c90600090600190600401620030ee565b60206040518083038186803b158015620019b057600080fd5b505af4158015620019c5573d6000803e3d6000fd5b505050506040513d601f19601f82011682018060405250810190620019eb919062002ea3565b151560011462001a265760405162461bcd60e51b8152602060048201526005602482015264454333322d60d81b6044820152606401620006a3565b62001a5c89876001600160a01b03909116600090815260026020908152604080832093835292905220805460ff19166001179055565b505050505050505050565b600162001a748162001841565b6005548390600062001a878383620021cf565b90506000811162001ac35760405162461bcd60e51b8152602060048201526005602482015264454332332d60d81b6044820152606401620006a3565b600062001ad687600560000154620021cf565b9050851562001b0257806005600401600082825462001af69190620032f4565b9091555062001b1e9050565b8060058001600082825462001b189190620032f4565b90915550505b60055462001b2e90888362002210565b60055460408051918252871515602083015281018290526001600160a01b038816907f50f654d58981575c05e369cb129aeacb01e1b036af429380242cfc5d1a4b743f9060600160405180910390a262001b876200224e565b50505050505050565b60215460408051635c60da1b60e01b815290516000926001600160a01b031691635c60da1b916004808301926020929190829003018186803b1580156200180657600080fd5b600062001be38162001841565b60045433906000906001600160a01b031682141562001c055750600162001d4f565b600062001c128362002332565b90506000600360029054906101000a90046001600160a01b03166001600160a01b03166387552a0d6040518163ffffffff1660e01b815260040160206040518083038186803b15801562001c6557600080fd5b505afa15801562001c7a573d6000803e3d6000fd5b505050506040513d601f19601f8201168201806040525081019062001ca0919062002cef565b6001600160a01b031663b049473f6040518163ffffffff1660e01b815260040160606040518083038186803b15801562001cd957600080fd5b505afa15801562001cee573d6000803e3d6000fd5b505050506040513d601f19601f8201168201806040525081019062001d14919062002f4e565b92505050606462001d246200243f565b62001d339060ff841662003332565b62001d3f91906200330f565b82111562001d4c57600192505b50505b60018115151462001d8b5760405162461bcd60e51b8152602060048201526005602482015264454332322d60d81b6044820152606401620006a3565b600080600360029054906101000a90046001600160a01b03166001600160a01b03166387552a0d6040518163ffffffff1660e01b815260040160206040518083038186803b15801562001ddd57600080fd5b505afa15801562001df2573d6000803e3d6000fd5b505050506040513d601f19601f8201168201806040525081019062001e18919062002cef565b6001600160a01b031663b049473f6040518163ffffffff1660e01b815260040160606040518083038186803b15801562001e5157600080fd5b505afa15801562001e66573d6000803e3d6000fd5b505050506040513d601f19601f8201168201806040525081019062001e8c919062002f4e565b50600680546001600160a01b03191633179055909250905062001eb08242620032f4565b600755606460ff821662001ec36200243f565b62001ecf919062003332565b62001edb91906200330f565b600855600b8054600581905590600062001ef583620034c1565b90915550506006546005546007546008546040516001600160a01b03909416937f472501d19bf75639b2e316cd36f8568b0c3ab943b82a87de3c086c98c1929df99362001f4693909290916200328e565b60405180910390a25050505050565b815162001f6a90600090602085019062002bd8565b5080516200124e90600190602084019062002bd8565b60075460009042101562001f945750600190565b6006546001600160a01b03161562001fba5762001fb06200253f565b62001fba620018ce565b50600090565b6001600160a01b0383161580159062001ffd57506005546000908152600c602090815260408083206001600160a01b038716845290915290205415155b156200124e576005546000908152600c602090815260408083206001600160a01b038716845290915290205481908111156200205b57506005546000908152600c602090815260408083206001600160a01b03871684529091529020545b6005546000908152600c602090815260408083206001600160a01b0388168452909152812080548392906200209290849062003354565b90915550506001600160a01b03831615620020e4576005546000908152600c602090815260408083206001600160a01b038716845290915281208054839290620020de908490620032f4565b90915550505b600554604080516001600160a01b038088168252861660208201529081018390527f65fbd5e5dd32bea4aeca85bd0be0abf0e489d655dee888a7510d43b06dda2dba9060600160405180910390a250505050565b804210620007fe5760405162461bcd60e51b8152602060048201526005602482015264454333332d60d81b6044820152606401620006a3565b6001600160a01b038216600090815260026020908152604080832084845290915290205460ff16156200119b5760405162461bcd60e51b8152602060048201526005602482015264454333342d60d81b6044820152606401620006a3565b6000818152600c602090815260408083206001600160a01b0386168452909152812054620021fd8462002332565b62002209919062003354565b9392505050565b6000838152600c602090815260408083206001600160a01b03861684529091528120805483929062002244908490620032f4565b9091555050505050565b60085460095410620022c4576200226462002549565b6200226e620018ce565b600654600554600954600a546040516001600160a01b03909416937f23ca0034cf5aad32571b4a492e9598ea8a490e1643a60970e3cdc6933b55e49f93620022ba93909290916200328e565b60405180910390a2565b600854600a54106200233057620022da6200253f565b620022e4620018ce565b600654600554600954600a546040516001600160a01b03909416937fa58eb6daa3c62c3f883973c4035e5bd3e81aa627c8379de068a7de42df122be293620022ba93909290916200328e565b565b6000600360029054906101000a90046001600160a01b03166001600160a01b031663da3dce266040518163ffffffff1660e01b815260040160206040518083038186803b1580156200238357600080fd5b505afa15801562002398573d6000803e3d6000fd5b505050506040513d601f19601f82011682018060405250810190620023be919062002cef565b6001600160a01b03166370a08231836040518263ffffffff1660e01b8152600401620023eb919062003087565b60206040518083038186803b1580156200240457600080fd5b505afa15801562002419573d6000803e3d6000fd5b505050506040513d601f19601f8201168201806040525081019062001226919062002ec3565b6000600360029054906101000a90046001600160a01b03166001600160a01b031663da3dce266040518163ffffffff1660e01b815260040160206040518083038186803b1580156200249057600080fd5b505afa158015620024a5573d6000803e3d6000fd5b505050506040513d601f19601f82011682018060405250810190620024cb919062002cef565b6001600160a01b03166318160ddd6040518163ffffffff1660e01b815260040160206040518083038186803b1580156200250457600080fd5b505afa15801562002519573d6000803e3d6000fd5b505050506040513d601f19601f82011682018060405250810190620004a6919062002ec3565b6200233062002553565b6200253f62002635565b600e80546001600160a01b03199081168255600f8054821690556010805482169055601180548216905560128054821690556013805482169055601480548216905560158054821690556016805490911690556000620025b560178262002c67565b620025c5600a8301600062002c67565b620025d5600b8301600062002c67565b620025e5600c8301600062002c67565b620025f5600d8301600062002c67565b62002605600e8301600062002c67565b62002615600f8301600062002c67565b6200262560108301600062002c67565b6200119b60118301600062002c67565b602454600e5460178054620026e8936001600160a01b03908116931691906200265e9062003484565b80601f01602080910402602001604051908101604052809291908181526020018280546200268c9062003484565b8015620026dd5780601f10620026b157610100808354040283529160200191620026dd565b820191906000526020600020905b815481529060010190602001808311620026bf57829003601f168201915b505050505062002b0a565b602554600f546018805462002711936001600160a01b03908116931691906200265e9062003484565b602654601054601980546200273a936001600160a01b03908116931691906200265e9062003484565b602054601154601a805462002763936001600160a01b03908116931691906200265e9062003484565b602254601354601b80546200278c936001600160a01b03908116931691906200265e9062003484565b602754601554601c8054620027b5936001600160a01b03908116931691906200265e9062003484565b602854601654601d8054620027de936001600160a01b03908116931691906200265e9062003484565b6012546001600160a01b0316156200285b57602154601254604051631b2ce7f360e11b81526001600160a01b0392831692633659cfe692620028269291169060040162003087565b600060405180830381600087803b1580156200284157600080fd5b505af115801562002856573d6000803e3d6000fd5b505050505b6014546001600160a01b031615620028d857602354601454604051631b2ce7f360e11b81526001600160a01b0392831692633659cfe692620028a39291169060040162003087565b600060405180830381600087803b158015620028be57600080fd5b505af1158015620028d3573d6000803e3d6000fd5b505050505b601e8054620028e79062003484565b1590506200295757602054604051636728563b60e11b81526001600160a01b039091169063ce50ac76906200292290601e906004016200322b565b600060405180830381600087803b1580156200293d57600080fd5b505af115801562002952573d6000803e3d6000fd5b505050505b601f8054620029669062003484565b159050620029d657602054604051630775618b60e21b81526001600160a01b0390911690631dd5862c90620029a190601f906004016200322b565b600060405180830381600087803b158015620029bc57600080fd5b505af1158015620029d1573d6000803e3d6000fd5b505050505b6024547fafd9566c86d9050f288aa057a7b6746ade34728e0300372b14c177d92894b8239062002a0f906001600160a01b03166200119f565b60255462002a26906001600160a01b03166200119f565b60265462002a3d906001600160a01b03166200119f565b60205462002a54906001600160a01b03166200119f565b62002a5e62001b90565b60225462002a75906001600160a01b03166200119f565b62002a7f620017c0565b60275462002a96906001600160a01b03166200119f565b60285462002aad906001600160a01b03166200119f565b604080516001600160a01b039a8b168152988a1660208a0152968916888801529488166060880152928716608087015290861660a0860152851660c0850152841660e08401529092166101008201529051908190036101200190a1565b6001600160a01b038216156200124e5780511562002b8857600d54604051639623609d60e01b81526001600160a01b0390911690639623609d9062002b5890869086908690600401620031ad565b600060405180830381600087803b15801562002b7357600080fd5b505af115801562001b87573d6000803e3d6000fd5b600d5460405163266a23b160e21b81526001600160a01b03909116906399a88ec49062002b5890869086906004016200309b565b610f30806200379d83390190565b61052380620046cd83390190565b82805462002be69062003484565b90600052602060002090601f01602090048101928262002c0a576000855562002c55565b82601f1062002c2557805160ff191683800117855562002c55565b8280016001018555821562002c55579182015b8281111562002c5557825182559160200191906001019062002c38565b5062002c6392915062002ca1565b5090565b50805462002c759062003484565b6000825580601f1062002c86575050565b601f016020900490600052602060002090810190620007fe91905b5b8082111562002c63576000815560010162002ca2565b805160ff8116811462002cca57600080fd5b919050565b60006020828403121562002ce257600080fd5b8135620022098162003777565b60006020828403121562002d0257600080fd5b8151620022098162003777565b60008060006060848603121562002d2557600080fd5b833562002d328162003777565b9250602084013562002d448162003777565b929592945050506040919091013590565b6000806040838503121562002d6957600080fd5b823562002d768162003777565b946020939093013593505050565b60008060008060008060c0878903121562002d9e57600080fd5b863562002dab8162003777565b955060208701359450604087013562002dc4816200378d565b9350606087013592506080870135915060a08701356001600160401b038082111562002def57600080fd5b818901915089601f83011262002e0457600080fd5b81358181111562002e195762002e196200350b565b604051601f8201601f19908116603f0116810190838211818310171562002e445762002e446200350b565b816040528281528c602084870101111562002e5e57600080fd5b8260208601602083013760006020848301015280955050505050509295509295509295565b60006020828403121562002e9657600080fd5b813562002209816200378d565b60006020828403121562002eb657600080fd5b815162002209816200378d565b60006020828403121562002ed657600080fd5b5051919050565b60006020828403121562002ef057600080fd5b81356001600160401b0381111562002f0757600080fd5b820161024081850312156200220957600080fd5b6000806040838503121562002f2f57600080fd5b82359150602083013562002f438162003777565b809150509250929050565b60008060006060848603121562002f6457600080fd5b8351925062002f766020850162002cb8565b915062002f866040850162002cb8565b90509250925092565b81835281816020850137506000828201602090810191909152601f909101601f19169091010190565b6000815180845260005b8181101562002fe05760208185018101518683018201520162002fc2565b8181111562002ff3576000602083870101525b50601f01601f19169290920160200192915050565b60008154620030178162003484565b8085526020600183811680156200303757600181146200304c576200307c565b60ff198516888401526040880195506200307c565b866000528260002060005b85811015620030745781548a820186015290830190840162003057565b890184019650505b505050505092915050565b6001600160a01b0391909116815260200190565b6001600160a01b0392831681529116602082015260400190565b6001600160a01b03858116825284166020820152606060408201819052600090620030e4908301848662002f8f565b9695505050505050565b600061010060018060a01b038b16835289602084015288151560408401528760608401528660808401528060a08401526200312c8184018762002fb8565b905082810360c084015262003142818662003008565b905082810360e084015262003158818562003008565b9b9a5050505050505050505050565b6020808252825182820181905260009190848201906040850190845b81811015620031a15783518352928401929184019160010162003183565b50909695505050505050565b6001600160a01b03848116825283166020820152606060408201819052600090620031db9083018462002fb8565b95945050505050565b602081526000620031fa60208301848662002f8f565b949350505050565b60408152600062003217604083018562002fb8565b8281036020840152620031db818562002fb8565b60208152600062002209602083018462003008565b6020808252602e908201527f496e697469616c697a61626c653a20636f6e747261637420697320616c72656160408201526d191e481a5b9a5d1a585b1a5e995960921b606082015260800190565b9283526020830191909152604082015260600190565b6000808335601e19843603018112620032bc57600080fd5b8301803591506001600160401b03821115620032d757600080fd5b602001915036819003821315620032ed57600080fd5b9250929050565b600082198211156200330a576200330a620034df565b500190565b6000826200332d57634e487b7160e01b600052601260045260246000fd5b500490565b60008160001904831182151516156200334f576200334f620034df565b500290565b600082821015620033695762003369620034df565b500390565b601f8211156200124e57600081815260208120601f850160051c81016020861015620033975750805b601f850160051c820191505b81811015620007ea57828155600101620033a3565b6001600160401b03831115620033d257620033d26200350b565b620033ea83620033e3835462003484565b836200336e565b6000601f841160018114620034215760008515620034085750838201355b600019600387901b1c1916600186901b17835562001103565b600083815260209020601f19861690835b8281101562003454578685013582556020948501946001909201910162003432565b5086821015620034725760001960f88860031b161c19848701351681555b505060018560011b0183555050505050565b600181811c908216806200349957607f821691505b60208210811415620034bb57634e487b7160e01b600052602260045260246000fd5b50919050565b6000600019821415620034d857620034d8620034df565b5060010190565b634e487b7160e01b600052601160045260246000fd5b634e487b7160e01b600052603260045260246000fd5b634e487b7160e01b600052604160045260246000fd5b60008135620012268162003777565b80546001600160a01b0319166001600160a01b0392909216919091179055565b620035666200355f8362003521565b8262003530565b62003582620035786020840162003521565b6001830162003530565b6200359e620035946040840162003521565b6002830162003530565b620035ba620035b06060840162003521565b6003830162003530565b620035d6620035cc6080840162003521565b6004830162003530565b620035f2620035e860a0840162003521565b6005830162003530565b6200360e6200360460c0840162003521565b6006830162003530565b6200362a6200362060e0840162003521565b6007830162003530565b620036476200363d610100840162003521565b6008830162003530565b62003657610120830183620032a4565b62003667818360098601620033b8565b505062003679610140830183620032a4565b620036898183600a8601620033b8565b50506200369b610160830183620032a4565b620036ab8183600b8601620033b8565b5050620036bd610180830183620032a4565b620036cd8183600c8601620033b8565b5050620036df6101a0830183620032a4565b620036ef8183600d8601620033b8565b5050620037016101c0830183620032a4565b620037118183600e8601620033b8565b5050620037236101e0830183620032a4565b620037338183600f8601620033b8565b505062003745610200830183620032a4565b62003755818360108601620033b8565b505062003767610220830183620032a4565b620005c9818360118601620033b8565b6001600160a01b0381168114620007fe57600080fd5b8015158114620007fe57600080fdfe608060405260405162000f3038038062000f308339810160408190526200002691620004c2565b82816200005560017f360894a13ba1a3210667c828492db98dca3e2076cc3735a920a3ca505d382bbd620005f5565b60008051602062000ee9833981519152146200007557620000756200064a565b6200008382826000620000e7565b50620000b3905060017fb53127684a568b3173ae13b9f8a6016e243e63b6e8ee1178d6a717850b5d6104620005f5565b60008051602062000ec983398151915214620000d357620000d36200064a565b620000de8262000124565b50505062000676565b620000f2836200017f565b600082511180620001005750805b156200011f576200011d8383620001c160201b620002601760201c565b505b505050565b7f7e644d79422f17c01e4894b5f4f588d331ebfa28653d42ae832dc59e38c9798f6200014f620001f0565b604080516001600160a01b03928316815291841660208301520160405180910390a16200017c8162000229565b50565b6200018a81620002de565b6040516001600160a01b038216907fbc7cd75a20ee27fd9adebab32041f755214dbc6bffa90cc0225b39da2e5c2d3b90600090a250565b6060620001e9838360405180606001604052806027815260200162000f096027913962000381565b9392505050565b60006200021a60008051602062000ec983398151915260001b6200045e60201b620002081760201c565b546001600160a01b0316919050565b6001600160a01b038116620002945760405162461bcd60e51b815260206004820152602660248201527f455243313936373a206e65772061646d696e20697320746865207a65726f206160448201526564647265737360d01b60648201526084015b60405180910390fd5b80620002bd60008051602062000ec983398151915260001b6200045e60201b620002081760201c565b80546001600160a01b0319166001600160a01b039290921691909117905550565b620002f4816200046160201b6200028c1760201c565b620003585760405162461bcd60e51b815260206004820152602d60248201527f455243313936373a206e657720696d706c656d656e746174696f6e206973206e60448201526c1bdd08184818dbdb9d1c9858dd609a1b60648201526084016200028b565b80620002bd60008051602062000ee983398151915260001b6200045e60201b620002081760201c565b6060833b620003e25760405162461bcd60e51b815260206004820152602660248201527f416464726573733a2064656c65676174652063616c6c20746f206e6f6e2d636f6044820152651b9d1c9858dd60d21b60648201526084016200028b565b600080856001600160a01b031685604051620003ff9190620005a2565b600060405180830381855af49150503d80600081146200043c576040519150601f19603f3d011682016040523d82523d6000602084013e62000441565b606091505b5090925090506200045482828662000467565b9695505050505050565b90565b3b151590565b6060831562000478575081620001e9565b825115620004895782518084602001fd5b8160405162461bcd60e51b81526004016200028b9190620005c0565b80516001600160a01b0381168114620004bd57600080fd5b919050565b600080600060608486031215620004d857600080fd5b620004e384620004a5565b9250620004f360208501620004a5565b60408501519092506001600160401b03808211156200051157600080fd5b818601915086601f8301126200052657600080fd5b8151818111156200053b576200053b62000660565b604051601f8201601f19908116603f0116810190838211818310171562000566576200056662000660565b816040528281528960208487010111156200058057600080fd5b620005938360208301602088016200061b565b80955050505050509250925092565b60008251620005b68184602087016200061b565b9190910192915050565b6020815260008251806020840152620005e18160408501602087016200061b565b601f01601f19169190910160400192915050565b6000828210156200061657634e487b7160e01b600052601160045260246000fd5b500390565b60005b83811015620006385781810151838201526020016200061e565b838111156200011d5750506000910152565b634e487b7160e01b600052600160045260246000fd5b634e487b7160e01b600052604160045260246000fd5b61084380620006866000396000f3fe60806040526004361061004e5760003560e01c80633659cfe6146100655780634f1ef286146100855780635c60da1b146100985780638f283970146100c9578063f851a440146100e95761005d565b3661005d5761005b6100fe565b005b61005b6100fe565b34801561007157600080fd5b5061005b61008036600461068e565b610118565b61005b6100933660046106a9565b61015f565b3480156100a457600080fd5b506100ad6101d0565b6040516001600160a01b03909116815260200160405180910390f35b3480156100d557600080fd5b5061005b6100e436600461068e565b61020b565b3480156100f557600080fd5b506100ad610235565b610106610292565b610116610111610331565b61033b565b565b61012061035f565b6001600160a01b0316336001600160a01b031614156101575761015481604051806020016040528060008152506000610380565b50565b6101546100fe565b61016761035f565b6001600160a01b0316336001600160a01b031614156101c8576101c38383838080601f01602080910402602001604051908101604052809392919081815260200183838082843760009201919091525060019250610380915050565b505050565b6101c36100fe565b60006101da61035f565b6001600160a01b0316336001600160a01b03161415610200576101fb610331565b905090565b6102086100fe565b90565b61021361035f565b6001600160a01b0316336001600160a01b0316141561015757610154816103ab565b600061023f61035f565b6001600160a01b0316336001600160a01b03161415610200576101fb61035f565b606061028583836040518060600160405280602781526020016107e7602791396103ff565b9392505050565b3b151590565b61029a61035f565b6001600160a01b0316336001600160a01b031614156101165760405162461bcd60e51b815260206004820152604260248201527f5472616e73706172656e745570677261646561626c6550726f78793a2061646d60448201527f696e2063616e6e6f742066616c6c6261636b20746f2070726f78792074617267606482015261195d60f21b608482015260a4015b60405180910390fd5b60006101fb6104d3565b3660008037600080366000845af43d6000803e80801561035a573d6000f35b3d6000fd5b60006000805160206107a78339815191525b546001600160a01b0316919050565b610389836104e9565b6000825111806103965750805b156101c3576103a58383610260565b50505050565b7f7e644d79422f17c01e4894b5f4f588d331ebfa28653d42ae832dc59e38c9798f6103d461035f565b604080516001600160a01b03928316815291841660208301520160405180910390a161015481610529565b6060833b61045e5760405162461bcd60e51b815260206004820152602660248201527f416464726573733a2064656c65676174652063616c6c20746f206e6f6e2d636f6044820152651b9d1c9858dd60d21b6064820152608401610328565b600080856001600160a01b031685604051610479919061072b565b600060405180830381855af49150503d80600081146104b4576040519150601f19603f3d011682016040523d82523d6000602084013e6104b9565b606091505b50915091506104c98282866105c0565b9695505050505050565b60006000805160206107c7833981519152610371565b6104f2816105f9565b6040516001600160a01b038216907fbc7cd75a20ee27fd9adebab32041f755214dbc6bffa90cc0225b39da2e5c2d3b90600090a250565b6001600160a01b03811661058e5760405162461bcd60e51b815260206004820152602660248201527f455243313936373a206e65772061646d696e20697320746865207a65726f206160448201526564647265737360d01b6064820152608401610328565b806000805160206107a78339815191525b80546001600160a01b0319166001600160a01b039290921691909117905550565b606083156105cf575081610285565b8251156105df5782518084602001fd5b8160405162461bcd60e51b81526004016103289190610747565b803b61065d5760405162461bcd60e51b815260206004820152602d60248201527f455243313936373a206e657720696d706c656d656e746174696f6e206973206e60448201526c1bdd08184818dbdb9d1c9858dd609a1b6064820152608401610328565b806000805160206107c783398151915261059f565b80356001600160a01b038116811461068957600080fd5b919050565b6000602082840312156106a057600080fd5b61028582610672565b6000806000604084860312156106be57600080fd5b6106c784610672565b925060208401356001600160401b03808211156106e357600080fd5b818601915086601f8301126106f757600080fd5b81358181111561070657600080fd5b87602082850101111561071857600080fd5b6020830194508093505050509250925092565b6000825161073d81846020870161077a565b9190910192915050565b602081526000825180602084015261076681604085016020870161077a565b601f01601f19169190910160400192915050565b60005b8381101561079557818101518382015260200161077d565b838111156103a5575050600091015256feb53127684a568b3173ae13b9f8a6016e243e63b6e8ee1178d6a717850b5d6103360894a13ba1a3210667c828492db98dca3e2076cc3735a920a3ca505d382bbc416464726573733a206c6f772d6c6576656c2064656c65676174652063616c6c206661696c6564a2646970667358221220bf234746908c6f46655f3e5bb4f0abadaeb249c68beba1c928f2af74deb56e2264736f6c63430008070033b53127684a568b3173ae13b9f8a6016e243e63b6e8ee1178d6a717850b5d6103360894a13ba1a3210667c828492db98dca3e2076cc3735a920a3ca505d382bbc416464726573733a206c6f772d6c6576656c2064656c65676174652063616c6c206661696c6564608060405234801561001057600080fd5b5060405161052338038061052383398101604081905261002f91610148565b61003833610047565b61004181610097565b50610178565b600080546001600160a01b038381166001600160a01b0319831681178455604051919092169283917f8be0079c531659141344cd1fd0a4f28419497f9722a3daafe3b4186f6b6457e09190a35050565b6100aa8161014260201b61021f1760201c565b6101205760405162461bcd60e51b815260206004820152603360248201527f5570677261646561626c65426561636f6e3a20696d706c656d656e746174696f60448201527f6e206973206e6f74206120636f6e747261637400000000000000000000000000606482015260840160405180910390fd5b600180546001600160a01b0319166001600160a01b0392909216919091179055565b3b151590565b60006020828403121561015a57600080fd5b81516001600160a01b038116811461017157600080fd5b9392505050565b61039c806101876000396000f3fe608060405234801561001057600080fd5b50600436106100575760003560e01c80633659cfe61461005c5780635c60da1b14610071578063715018a61461009a5780638da5cb5b146100a2578063f2fde38b146100aa575b600080fd5b61006f61006a366004610301565b6100bd565b005b6001546001600160a01b03165b6040516001600160a01b03909116815260200160405180910390f35b61006f610135565b61007e610170565b61006f6100b8366004610301565b61017f565b336100c6610170565b6001600160a01b0316146100f55760405162461bcd60e51b81526004016100ec90610331565b60405180910390fd5b6100fe81610225565b6040516001600160a01b038216907fbc7cd75a20ee27fd9adebab32041f755214dbc6bffa90cc0225b39da2e5c2d3b90600090a250565b3361013e610170565b6001600160a01b0316146101645760405162461bcd60e51b81526004016100ec90610331565b61016e60006102b1565b565b6000546001600160a01b031690565b33610188610170565b6001600160a01b0316146101ae5760405162461bcd60e51b81526004016100ec90610331565b6001600160a01b0381166102135760405162461bcd60e51b815260206004820152602660248201527f4f776e61626c653a206e6577206f776e657220697320746865207a65726f206160448201526564647265737360d01b60648201526084016100ec565b61021c816102b1565b50565b3b151590565b803b61028f5760405162461bcd60e51b815260206004820152603360248201527f5570677261646561626c65426561636f6e3a20696d706c656d656e746174696f6044820152721b881a5cc81b9bdd08184818dbdb9d1c9858dd606a1b60648201526084016100ec565b600180546001600160a01b0319166001600160a01b0392909216919091179055565b600080546001600160a01b038381166001600160a01b0319831681178455604051919092169283917f8be0079c531659141344cd1fd0a4f28419497f9722a3daafe3b4186f6b6457e09190a35050565b60006020828403121561031357600080fd5b81356001600160a01b038116811461032a57600080fd5b9392505050565b6020808252818101527f4f776e61626c653a2063616c6c6572206973206e6f7420746865206f776e657260408201526060019056fea2646970667358221220b1e86d9e5a9827481ff081a46fc0ff448af58190927b3eac96f691d6bcdce0a964736f6c63430008070033a26469706673582212207d1da11e5d09a1512692ea9bb635ec19148ad40b7a849b3038de93c296ea3a8f64736f6c63430008070033608060405234801561001057600080fd5b5061001a3361001f565b61006f565b600080546001600160a01b038381166001600160a01b0319831681178455604051919092169283917f8be0079c531659141344cd1fd0a4f28419497f9722a3daafe3b4186f6b6457e09190a35050565b61073f8061007e6000396000f3fe60806040526004361061006b5760003560e01c8063204e1c7a14610070578063715018a6146100a65780637eff275e146100bd5780638da5cb5b146100dd5780639623609d146100f257806399a88ec414610105578063f2fde38b14610125578063f3b7dead14610145575b600080fd5b34801561007c57600080fd5b5061009061008b3660046104e1565b610165565b60405161009d9190610630565b60405180910390f35b3480156100b257600080fd5b506100bb6101f6565b005b3480156100c957600080fd5b506100bb6100d8366004610522565b61023a565b3480156100e957600080fd5b506100906102cb565b6100bb61010036600461055b565b6102da565b34801561011157600080fd5b506100bb610120366004610522565b610370565b34801561013157600080fd5b506100bb6101403660046104e1565b6103cb565b34801561015157600080fd5b506100906101603660046104e1565b61046b565b6000806000836001600160a01b031660405161018b90635c60da1b60e01b815260040190565b600060405180830381855afa9150503d80600081146101c6576040519150601f19603f3d011682016040523d82523d6000602084013e6101cb565b606091505b5091509150816101da57600080fd5b808060200190518101906101ee9190610505565b949350505050565b336101ff6102cb565b6001600160a01b03161461022e5760405162461bcd60e51b8152600401610225906106a9565b60405180910390fd5b6102386000610491565b565b336102436102cb565b6001600160a01b0316146102695760405162461bcd60e51b8152600401610225906106a9565b6040516308f2839760e41b81526001600160a01b03831690638f28397090610295908490600401610630565b600060405180830381600087803b1580156102af57600080fd5b505af11580156102c3573d6000803e3d6000fd5b505050505050565b6000546001600160a01b031690565b336102e36102cb565b6001600160a01b0316146103095760405162461bcd60e51b8152600401610225906106a9565b60405163278f794360e11b81526001600160a01b03841690634f1ef2869034906103399086908690600401610644565b6000604051808303818588803b15801561035257600080fd5b505af1158015610366573d6000803e3d6000fd5b5050505050505050565b336103796102cb565b6001600160a01b03161461039f5760405162461bcd60e51b8152600401610225906106a9565b604051631b2ce7f360e11b81526001600160a01b03831690633659cfe690610295908490600401610630565b336103d46102cb565b6001600160a01b0316146103fa5760405162461bcd60e51b8152600401610225906106a9565b6001600160a01b03811661045f5760405162461bcd60e51b815260206004820152602660248201527f4f776e61626c653a206e6577206f776e657220697320746865207a65726f206160448201526564647265737360d01b6064820152608401610225565b61046881610491565b50565b6000806000836001600160a01b031660405161018b906303e1469160e61b815260040190565b600080546001600160a01b038381166001600160a01b0319831681178455604051919092169283917f8be0079c531659141344cd1fd0a4f28419497f9722a3daafe3b4186f6b6457e09190a35050565b6000602082840312156104f357600080fd5b81356104fe816106f4565b9392505050565b60006020828403121561051757600080fd5b81516104fe816106f4565b6000806040838503121561053557600080fd5b8235610540816106f4565b91506020830135610550816106f4565b809150509250929050565b60008060006060848603121561057057600080fd5b833561057b816106f4565b9250602084013561058b816106f4565b915060408401356001600160401b03808211156105a757600080fd5b818601915086601f8301126105bb57600080fd5b8135818111156105cd576105cd6106de565b604051601f8201601f19908116603f011681019083821181831017156105f5576105f56106de565b8160405282815289602084870101111561060e57600080fd5b8260208601602083013760006020848301015280955050505050509250925092565b6001600160a01b0391909116815260200190565b60018060a01b038316815260006020604081840152835180604085015260005b8181101561068057858101830151858201606001528201610664565b81811115610692576000606083870101525b50601f01601f191692909201606001949350505050565b6020808252818101527f4f776e61626c653a2063616c6c6572206973206e6f7420746865206f776e6572604082015260600190565b634e487b7160e01b600052604160045260246000fd5b6001600160a01b038116811461046857600080fdfea26469706673582212207240b38990a52bc008f8ef6148c6f36363b8fbb55bee70cee697cb8e4d4c00ce64736f6c63430008070033",
  "immutableReferences": {},
  "source": "// SPDX-License-Identifier: GPL-3.0\r\n\r\npragma solidity 0.8.7;\r\n\r\n/**\r\n * @title Storage\r\n * @dev Store & retrieve value in a variable\r\n */\r\n\r\nimport \"../Interfaces/IProxyManager.sol\";\r\nimport \"../Interfaces/IFactory.sol\";\r\nimport \"../Base/TokenGovernanceBaseContract.sol\";\r\nimport \"../Libraries/AddressLibrary.sol\";\r\nimport \"../Libraries/Library.sol\";\r\nimport \"@openzeppelin/contracts-upgradeable/proxy/utils/Initializable.sol\";\r\nimport \"@openzeppelin/contracts/proxy/beacon/UpgradeableBeacon.sol\";\r\nimport \"@openzeppelin/contracts/proxy/transparent/TransparentUpgradeableProxy.sol\";\r\nimport \"@openzeppelin/contracts/proxy/transparent/ProxyAdmin.sol\";\r\n\r\n\r\ncontract CertificatesPoolManager is IProxyManager, TokenGovernanceBaseContract{\r\n    using AddressLibrary for *;\r\n    using Library for *;\r\n\r\n    // EVENTS /////////////////////////////////////////\r\n    event _NewContracts(address Public, address Treasury, address Certis, address PrivateFactory, \r\n    address Private, address ProviderFactory, address Provider, address PriceConverter, address PropositionSettings);\r\n\r\n    // DATA /////////////////////////////////////////\r\n    // Admin Proxy to manage all the TransparentUpgradeableProxies\r\n    ProxyAdmin private _Admin;\r\n\r\n    // proposition to change\r\n    Library.ProposedContractsStruct private _ProposedContracts;\r\n    \r\n    // Private Certificate Pools Factory\r\n    TransparentUpgradeableProxy private _PrivatePoolFactory;\r\n\r\n    // Private Certificates Pool\r\n    UpgradeableBeacon private _PrivateCertificatePoolBeacon;\r\n\r\n    // Provider Factory\r\n    TransparentUpgradeableProxy private _ProviderFactory;\r\n\r\n    // Provider\r\n    UpgradeableBeacon private _ProviderBeacon;\r\n\r\n    // Public Certificates Pool\r\n    TransparentUpgradeableProxy private _PublicCertificatesPool;\r\n\r\n    // Treasury\r\n    TransparentUpgradeableProxy private _Treasury;\r\n\r\n    // Certis Token\r\n    TransparentUpgradeableProxy private _CertisToken;\r\n\r\n    // Price Converter\r\n    TransparentUpgradeableProxy private _PriceConverter;\r\n\r\n    // Proposition Settings\r\n    TransparentUpgradeableProxy private _PropositionSettings;\r\n\r\n    // init\r\n    bool private _init;\r\n\r\n    // MODIFIERS /////////////////////////////////////////\r\n    modifier isNotInitialized(){\r\n        require(false == _init, \"EC26-\");\r\n        _;\r\n    }\r\n\r\n    // CONSTRUCTOR and INITIALIZATION /////////////////////////////////////////\r\n    constructor(string memory contractName, string memory contractVersion) \r\n    {\r\n        super.TokenGovernanceContract_init(msg.sender, address(this), contractName, contractVersion);\r\n        _Admin = new ProxyAdmin();\r\n        _init = false;\r\n    }\r\n\r\n    function InitializeContracts(Library.ProposedContractsStruct calldata initialContracts) \r\n        isFromChairPerson(msg.sender)\r\n        isNotInitialized()\r\n    external override\r\n    {\r\n        initProxies(initialContracts);\r\n        _init = true;\r\n    }\r\n\r\n    // FUNCTIONALITY /////////////////////////////////////////\r\n    // governance : contracts assignment and management\r\n    function upgradeContracts(Library.ProposedContractsStruct calldata UpgradeProposition) external override\r\n    {\r\n        _ProposedContracts = UpgradeProposition;\r\n        addProposition();\r\n    }\r\n\r\n    function propositionApproved() internal override\r\n    {\r\n        upgradeContractsImplementations();\r\n        removeProposition();\r\n    }\r\n\r\n    function propositionRejected() internal override\r\n    {\r\n        removeProposition();\r\n    }\r\n\r\n    function propositionExpired() internal override\r\n    {\r\n        removeProposition();\r\n    }\r\n\r\n    function removeProposition() internal\r\n    {\r\n       delete(_ProposedContracts);\r\n    }\r\n\r\n    function retrieveProposition() external override view returns(bytes32[] memory)\r\n    {\r\n        bytes32[] memory proposition = new bytes32[](9);\r\n        proposition[0] = AddressLibrary.AddressToBytes32(_ProposedContracts.NewPublicPoolAddress);\r\n        proposition[1] = AddressLibrary.AddressToBytes32(_ProposedContracts.NewTreasuryAddress);\r\n        proposition[2] = AddressLibrary.AddressToBytes32(_ProposedContracts.NewCertisTokenAddress);\r\n        proposition[3] = AddressLibrary.AddressToBytes32(_ProposedContracts.NewPrivatePoolFactoryAddress);\r\n        proposition[4] = AddressLibrary.AddressToBytes32(_ProposedContracts.NewPrivatePoolAddress);\r\n        proposition[5] = AddressLibrary.AddressToBytes32(_ProposedContracts.NewProviderFactoryAddress);\r\n        proposition[6] = AddressLibrary.AddressToBytes32(_ProposedContracts.NewProviderAddress);\r\n        proposition[7] = AddressLibrary.AddressToBytes32(_ProposedContracts.NewPriceConverterAddress);\r\n        proposition[8] = AddressLibrary.AddressToBytes32(_ProposedContracts.NewPropositionSettingsAddress);\r\n        return proposition;\r\n    }\r\n\r\n    function initProxies(Library.ProposedContractsStruct calldata initialContracts) private\r\n    {\r\n        _PublicCertificatesPool = new TransparentUpgradeableProxy(initialContracts.NewPublicPoolAddress, address(_Admin), initialContracts.NewPublicPoolData);\r\n        _Treasury = new TransparentUpgradeableProxy(initialContracts.NewTreasuryAddress, address(_Admin), initialContracts.NewTreasuryData);\r\n        _CertisToken = new TransparentUpgradeableProxy(initialContracts.NewCertisTokenAddress, address(_Admin), initialContracts.NewCertisTokenData);\r\n        _PrivatePoolFactory = new TransparentUpgradeableProxy(initialContracts.NewPrivatePoolFactoryAddress, address(_Admin), initialContracts.NewPrivatePoolFactoryData);\r\n        _PrivateCertificatePoolBeacon = new UpgradeableBeacon(initialContracts.NewPrivatePoolAddress);\r\n        _ProviderFactory = new TransparentUpgradeableProxy(initialContracts.NewProviderFactoryAddress, address(_Admin), initialContracts.NewProviderFactoryData);\r\n        _ProviderBeacon = new UpgradeableBeacon(initialContracts.NewProviderAddress);\r\n        _PriceConverter = new TransparentUpgradeableProxy(initialContracts.NewPriceConverterAddress, address(_Admin), initialContracts.NewPriceConverterData);\r\n        _PropositionSettings = new TransparentUpgradeableProxy(initialContracts.NewPropositionSettingsAddress, address(_Admin), initialContracts.NewPropositionSettingsData);\r\n\r\n        IFactory(address(_PrivatePoolFactory)).updateContractName(initialContracts.NewPrivatePoolContractName);\r\n        IFactory(address(_PrivatePoolFactory)).updateContractVersion(initialContracts.NewPrivatePoolContractVersion);\r\n    }\r\n\r\n    function upgradeContractsImplementations() private\r\n    {\r\n        upgradeContractImplementation(_PublicCertificatesPool, _ProposedContracts.NewPublicPoolAddress, _ProposedContracts.NewPublicPoolData);\r\n        upgradeContractImplementation(_Treasury, _ProposedContracts.NewTreasuryAddress, _ProposedContracts.NewTreasuryData);\r\n        upgradeContractImplementation(_CertisToken, _ProposedContracts.NewCertisTokenAddress, _ProposedContracts.NewCertisTokenData);\r\n        upgradeContractImplementation(_PrivatePoolFactory, _ProposedContracts.NewPrivatePoolFactoryAddress, _ProposedContracts.NewPrivatePoolFactoryData);\r\n        upgradeContractImplementation(_ProviderFactory, _ProposedContracts.NewProviderFactoryAddress, _ProposedContracts.NewProviderFactoryData);\r\n        upgradeContractImplementation(_PriceConverter, _ProposedContracts.NewPriceConverterAddress, _ProposedContracts.NewPriceConverterData);\r\n        upgradeContractImplementation(_PropositionSettings, _ProposedContracts.NewPropositionSettingsAddress, _ProposedContracts.NewPropositionSettingsData);\r\n\r\n        if(address(0) != _ProposedContracts.NewPrivatePoolAddress)_PrivateCertificatePoolBeacon.upgradeTo(_ProposedContracts.NewPrivatePoolAddress);\r\n        if(address(0) != _ProposedContracts.NewProviderAddress)_ProviderBeacon.upgradeTo(_ProposedContracts.NewProviderAddress);\r\n\r\n        if(0 < bytes(_ProposedContracts.NewPrivatePoolContractName).length)\r\n            IFactory(address(_PrivatePoolFactory)).updateContractName(_ProposedContracts.NewPrivatePoolContractName);\r\n\r\n        if(0 < bytes(_ProposedContracts.NewPrivatePoolContractVersion).length)\r\n            IFactory(address(_PrivatePoolFactory)).updateContractVersion(_ProposedContracts.NewPrivatePoolContractVersion);\r\n        \r\n        emit _NewContracts(internalRetrieveImpl(_PublicCertificatesPool), internalRetrieveImpl(_Treasury), \r\n        internalRetrieveImpl(_CertisToken), internalRetrieveImpl(_PrivatePoolFactory), \r\n        internalRetrievePrivatePool(), internalRetrieveImpl(_ProviderFactory), internalRetrieveProvider(),\r\n        internalRetrieveImpl(_PriceConverter), internalRetrieveImpl(_PropositionSettings));\r\n    }\r\n\r\n    function upgradeContractImplementation(TransparentUpgradeableProxy proxy, address NewImpl, bytes memory Data) private\r\n    {\r\n        if(address(0) != NewImpl){\r\n            if(0 < Data.length)_Admin.upgradeAndCall(proxy, NewImpl, Data);\r\n            else _Admin.upgrade(proxy, NewImpl);\r\n        }\r\n    }\r\n\r\n    // configuration Proxies\r\n    function retrievePublicCertificatePoolProxy() external override view returns (address) {\r\n        return (address(_PublicCertificatesPool));\r\n    }\r\n\r\n    function retrieveTreasuryProxy() external override view returns (address) {\r\n        return (address(_Treasury));\r\n    }\r\n\r\n    function retrieveCertisTokenProxy() external override view returns (address) {\r\n        return (address(_CertisToken));\r\n    }\r\n\r\n    function retrievePrivatePoolFactoryProxy() external override view returns (address) {\r\n        return (address(_PrivatePoolFactory));\r\n    }\r\n\r\n    function retrievePrivatePoolBeacon() external override view returns (address) {\r\n        return (address(_PrivateCertificatePoolBeacon));\r\n    }\r\n\r\n    function retrieveProviderFactoryProxy() external override view returns (address) {\r\n        return (address(_ProviderFactory));\r\n    }\r\n\r\n    function retrieveProviderBeacon() external override view returns (address) {\r\n        return (address(_ProviderBeacon));\r\n    }\r\n\r\n    function retrievePriceConverterProxy() external override view returns (address) {\r\n        return (address(_PriceConverter));\r\n    }\r\n\r\n    function retrievePropositionSettingsProxy() external override view returns (address) {\r\n        return (address(_PropositionSettings));\r\n    }\r\n\r\n    // configuration implementations\r\n    function retrievePublicCertificatePool() external override view returns (address) {\r\n        return internalRetrieveImpl(_PublicCertificatesPool);\r\n    }\r\n\r\n    function retrieveTreasury() external override view returns (address) {\r\n        return internalRetrieveImpl(_Treasury);\r\n    }\r\n\r\n    function retrieveCertisToken() external override view returns (address) {\r\n        return internalRetrieveImpl(_CertisToken);\r\n    }\r\n\r\n    function retrievePrivatePoolFactory() external override view returns (address) {\r\n        return internalRetrieveImpl(_PrivatePoolFactory);\r\n    }\r\n\r\n    function retrievePrivatePool() external override view returns (address) {\r\n        return internalRetrievePrivatePool();\r\n    }\r\n\r\n    function retrieveProviderFactory() external override view returns (address) {\r\n        return internalRetrieveImpl(_ProviderFactory);\r\n    }\r\n\r\n    function retrieveProvider() external override view returns (address) {\r\n        return internalRetrieveProvider();\r\n    }\r\n\r\n    function retrievePriceConverter() external override view returns (address) {\r\n        return internalRetrieveImpl(_PriceConverter);\r\n    }\r\n\r\n    function retrievePropositionSettings() external override view returns (address) {\r\n        return internalRetrieveImpl(_PropositionSettings);\r\n    }\r\n\r\n    function isInitialized() external override view returns(bool){\r\n        return _init;\r\n    }\r\n\r\n    // internal\r\n    function internalRetrieveImpl(TransparentUpgradeableProxy proxy) internal view returns (address){\r\n        return _Admin.getProxyImplementation(proxy);\r\n    }\r\n\r\n    function internalRetrievePrivatePool() internal view returns (address) {\r\n        return _PrivateCertificatePoolBeacon.implementation();\r\n    }\r\n\r\n    function internalRetrieveProvider() internal view returns (address) {\r\n        return _ProviderBeacon.implementation();\r\n    }\r\n  \r\n}",
  "sourcePath": "C:/Users/d-aam/GitHub/Certificates/contracts/DeployedContracts/CertificatesPoolManager.sol",
  "compiler": {
    "name": "solc",
    "version": "0.8.7+commit.e28d00a7.Emscripten.clang"
  },
  "schemaVersion": "3.3.4",
  "updatedAt": "2021-10-27T11:19:55.311Z",
  "devdoc": {
    "kind": "dev",
    "methods": {},
    "version": 1
  },
  "userdoc": {
    "kind": "user",
    "methods": {},
    "version": 1
  }
}