{
  "contractName": "CertisToken",
  "abi": [
    {
      "inputs": [
        {
          "internalType": "string",
          "name": "name",
          "type": "string"
        },
        {
          "internalType": "string",
          "name": "symbol",
          "type": "string"
        },
        {
          "internalType": "uint8",
          "name": "decimalsValue",
          "type": "uint8"
        },
        {
          "internalType": "uint256",
          "name": "MaxSupply",
          "type": "uint256"
        }
      ],
      "stateMutability": "nonpayable",
      "type": "constructor"
    },
    {
      "anonymous": false,
      "inputs": [
        {
          "indexed": true,
          "internalType": "address",
          "name": "owner",
          "type": "address"
        },
        {
          "indexed": true,
          "internalType": "address",
          "name": "spender",
          "type": "address"
        },
        {
          "indexed": false,
          "internalType": "uint256",
          "name": "value",
          "type": "uint256"
        }
      ],
      "name": "Approval",
      "type": "event"
    },
    {
      "anonymous": false,
      "inputs": [
        {
          "indexed": true,
          "internalType": "address",
          "name": "from",
          "type": "address"
        },
        {
          "indexed": true,
          "internalType": "address",
          "name": "to",
          "type": "address"
        },
        {
          "indexed": false,
          "internalType": "uint256",
          "name": "value",
          "type": "uint256"
        }
      ],
      "name": "Transfer",
      "type": "event"
    },
    {
      "inputs": [
        {
          "internalType": "address",
          "name": "owner",
          "type": "address"
        },
        {
          "internalType": "address",
          "name": "spender",
          "type": "address"
        }
      ],
      "name": "allowance",
      "outputs": [
        {
          "internalType": "uint256",
          "name": "",
          "type": "uint256"
        }
      ],
      "stateMutability": "view",
      "type": "function"
    },
    {
      "inputs": [
        {
          "internalType": "address",
          "name": "spender",
          "type": "address"
        },
        {
          "internalType": "uint256",
          "name": "amount",
          "type": "uint256"
        }
      ],
      "name": "approve",
      "outputs": [
        {
          "internalType": "bool",
          "name": "",
          "type": "bool"
        }
      ],
      "stateMutability": "nonpayable",
      "type": "function"
    },
    {
      "inputs": [
        {
          "internalType": "address",
          "name": "account",
          "type": "address"
        }
      ],
      "name": "balanceOf",
      "outputs": [
        {
          "internalType": "uint256",
          "name": "",
          "type": "uint256"
        }
      ],
      "stateMutability": "view",
      "type": "function"
    },
    {
      "inputs": [
        {
          "internalType": "address",
          "name": "spender",
          "type": "address"
        },
        {
          "internalType": "uint256",
          "name": "subtractedValue",
          "type": "uint256"
        }
      ],
      "name": "decreaseAllowance",
      "outputs": [
        {
          "internalType": "bool",
          "name": "",
          "type": "bool"
        }
      ],
      "stateMutability": "nonpayable",
      "type": "function"
    },
    {
      "inputs": [
        {
          "internalType": "address",
          "name": "spender",
          "type": "address"
        },
        {
          "internalType": "uint256",
          "name": "addedValue",
          "type": "uint256"
        }
      ],
      "name": "increaseAllowance",
      "outputs": [
        {
          "internalType": "bool",
          "name": "",
          "type": "bool"
        }
      ],
      "stateMutability": "nonpayable",
      "type": "function"
    },
    {
      "inputs": [],
      "name": "name",
      "outputs": [
        {
          "internalType": "string",
          "name": "",
          "type": "string"
        }
      ],
      "stateMutability": "view",
      "type": "function"
    },
    {
      "inputs": [],
      "name": "symbol",
      "outputs": [
        {
          "internalType": "string",
          "name": "",
          "type": "string"
        }
      ],
      "stateMutability": "view",
      "type": "function"
    },
    {
      "inputs": [],
      "name": "totalSupply",
      "outputs": [
        {
          "internalType": "uint256",
          "name": "",
          "type": "uint256"
        }
      ],
      "stateMutability": "view",
      "type": "function"
    },
    {
      "inputs": [
        {
          "internalType": "address",
          "name": "recipient",
          "type": "address"
        },
        {
          "internalType": "uint256",
          "name": "amount",
          "type": "uint256"
        }
      ],
      "name": "transfer",
      "outputs": [
        {
          "internalType": "bool",
          "name": "",
          "type": "bool"
        }
      ],
      "stateMutability": "nonpayable",
      "type": "function"
    },
    {
      "inputs": [
        {
          "internalType": "address",
          "name": "sender",
          "type": "address"
        },
        {
          "internalType": "address",
          "name": "recipient",
          "type": "address"
        },
        {
          "internalType": "uint256",
          "name": "amount",
          "type": "uint256"
        }
      ],
      "name": "transferFrom",
      "outputs": [
        {
          "internalType": "bool",
          "name": "",
          "type": "bool"
        }
      ],
      "stateMutability": "nonpayable",
      "type": "function"
    },
    {
      "inputs": [],
      "name": "decimals",
      "outputs": [
        {
          "internalType": "uint8",
          "name": "",
          "type": "uint8"
        }
      ],
      "stateMutability": "view",
      "type": "function"
    },
    {
      "inputs": [],
      "name": "TokenOwners",
      "outputs": [
        {
          "internalType": "address[]",
          "name": "",
          "type": "address[]"
        },
        {
          "internalType": "uint256[]",
          "name": "",
          "type": "uint256[]"
        }
      ],
      "stateMutability": "view",
      "type": "function"
    }
  ],
  "bytecode": "0x60806040523480156200001157600080fd5b5060405162001ae838038062001ae88339810160408190526200003491620008af565b8351849084906200004d90600390602085019062000665565b5080516200006390600490602084019062000665565b5060009150620000709050565b6040519080825280602002602001820160405280156200009a578160200160208202803683370190505b508051620000b191600691602090910190620006f4565b506005805460ff191660ff8416179055620000cd3382620000d7565b5050505062000a75565b6001600160a01b038216620001325760405162461bcd60e51b815260206004820152601f60248201527f45524332303a206d696e7420746f20746865207a65726f206164647265737300604482015260640160405180910390fd5b6200014060008383620001cd565b8060026000828254620001549190620009bd565b90915550506001600160a01b0382166000908152602081905260408120805483929062000183908490620009bd565b90915550506040518181526001600160a01b038316906000907fddf252ad1be2c89b69c2b068fc378daa952ba7f163c4a11628f55a4df523b3ef9060200160405180910390a35050565b80156200036c576001600160a01b03821615801590620001f55750620001f38262000371565b155b156200024757600680546001810182556000919091527ff652222313e28459528d920b65115c16c04f3efc82aaedc97be59f3f377c0d3f0180546001600160a01b0319166001600160a01b0384161790555b6001600160a01b03831615801590620002695750620002668362000371565b81145b156200036c5762000354620002e6846006805480602002602001604051908101604052809291908181526020018280548015620002d057602002820191906000526020600020905b81546001600160a01b03168152600190910190602001808311620002b1575b50505050506200038c60201b6200053f1760201c565b60068054806020026020016040519081016040528092919081815260200182805480156200033e57602002820191906000526020600020905b81546001600160a01b031681526001909101906020018083116200031f575b5050505050620003c160201b620005631760201c565b80516200036a91600691602090910190620006f4565b505b505050565b6001600160a01b031660009081526020819052604090205490565b6000620003b86001600160a01b038416620003a7846200046a565b6200052d60201b620006021760201c565b90505b92915050565b6060620003b873__Library_______________________________635b28cf6385620003ed866200046a565b6040518363ffffffff1660e01b81526004016200040c9291906200093a565b60006040518083038186803b1580156200042557600080fd5b505af41580156200043a573d6000803e3d6000fd5b505050506040513d6000823e601f3d908101601f19168201604052620004649190810190620007f8565b6200058d565b6060600082516001600160401b038111156200048a576200048a62000a5f565b604051908082528060200260200182016040528015620004b4578160200160208202803683370190505b50905060005b81518110156200052657620004f1848281518110620004dd57620004dd62000a49565b60200260200101516200065660201b60201c565b82828151811062000506576200050662000a49565b6020908102919091010152806200051d8162000a15565b915050620004ba565b5092915050565b6000805b82518110156200057d5782818151811062000550576200055062000a49565b602002602001015184141562000568579050620003bb565b80620005748162000a15565b91505062000531565b508151620003b8906001620009bd565b6060600082516001600160401b03811115620005ad57620005ad62000a5f565b604051908082528060200260200182016040528015620005d7578160200160208202803683370190505b50905060005b815181101562000526576200061484828151811062000600576200060062000a49565b60200260200101516200066260201b60201c565b82828151811062000629576200062962000a49565b6001600160a01b0390921660209283029190910190910152806200064d8162000a15565b915050620005dd565b6001600160a01b031690565b90565b8280546200067390620009d8565b90600052602060002090601f016020900481019282620006975760008555620006e2565b82601f10620006b257805160ff1916838001178555620006e2565b82800160010185558215620006e2579182015b82811115620006e2578251825591602001919060010190620006c5565b50620006f09291506200074c565b5090565b828054828255906000526020600020908101928215620006e2579160200282015b82811115620006e257825182546001600160a01b0319166001600160a01b0390911617825560209092019160019091019062000715565b5b80821115620006f057600081556001016200074d565b600082601f8301126200077557600080fd5b81516001600160401b0381111562000791576200079162000a5f565b6020620007a7601f8301601f191682016200098a565b8281528582848701011115620007bc57600080fd5b60005b83811015620007dc578581018301518282018401528201620007bf565b83811115620007ee5760008385840101525b5095945050505050565b600060208083850312156200080c57600080fd5b82516001600160401b03808211156200082457600080fd5b818501915085601f8301126200083957600080fd5b8151818111156200084e576200084e62000a5f565b8060051b9150620008618483016200098a565b8181528481019084860184860187018a10156200087d57600080fd5b600095505b83861015620008a257805183526001959095019491860191860162000882565b5098975050505050505050565b60008060008060808587031215620008c657600080fd5b84516001600160401b0380821115620008de57600080fd5b620008ec8883890162000763565b955060208701519150808211156200090357600080fd5b50620009128782880162000763565b935050604085015160ff811681146200092a57600080fd5b6060959095015193969295505050565b6000604082018483526020604081850152818551808452606086019150828701935060005b818110156200097d578451835293830193918301916001016200095f565b5090979650505050505050565b604051601f8201601f191681016001600160401b0381118282101715620009b557620009b562000a5f565b604052919050565b60008219821115620009d357620009d362000a33565b500190565b600181811c90821680620009ed57607f821691505b6020821081141562000a0f57634e487b7160e01b600052602260045260246000fd5b50919050565b600060001982141562000a2c5762000a2c62000a33565b5060010190565b634e487b7160e01b600052601160045260246000fd5b634e487b7160e01b600052603260045260246000fd5b634e487b7160e01b600052604160045260246000fd5b6110638062000a856000396000f3fe608060405234801561001057600080fd5b50600436106100a45760003560e01c806306fdde03146100a9578063095ea7b3146100c757806318160ddd146100ea57806323b872dd146100fc578063313ce5671461010f578063395093511461012457806370a082311461013757806388d44ee01461014a57806395d89b4114610160578063a457c2d714610168578063a9059cbb1461017b578063dd62ed3e1461018e575b600080fd5b6100b16101c7565b6040516100be9190610ed0565b60405180910390f35b6100da6100d5366004610d5e565b610259565b60405190151581526020016100be565b6002545b6040519081526020016100be565b6100da61010a366004610d22565b610270565b60055460405160ff90911681526020016100be565b6100da610132366004610d5e565b610326565b6100ee610145366004610cd4565b61035d565b610152610378565b6040516100be929190610e4c565b6100b1610488565b6100da610176366004610d5e565b610497565b6100da610189366004610d5e565b610532565b6100ee61019c366004610cef565b6001600160a01b03918216600090815260016020908152604080832093909416825291909152205490565b6060600380546101d690610f95565b80601f016020809104026020016040519081016040528092919081815260200182805461020290610f95565b801561024f5780601f106102245761010080835404028352916020019161024f565b820191906000526020600020905b81548152906001019060200180831161023257829003601f168201915b5050505050905090565b6000610266338484610657565b5060015b92915050565b600061027d84848461077b565b6001600160a01b0384166000908152600160209081526040808320338452909152902054828110156103075760405162461bcd60e51b815260206004820152602860248201527f45524332303a207472616e7366657220616d6f756e74206578636565647320616044820152676c6c6f77616e636560c01b60648201526084015b60405180910390fd5b61031b85336103168685610f7e565b610657565b506001949350505050565b3360008181526001602090815260408083206001600160a01b03871684529091528120549091610266918590610316908690610f66565b6001600160a01b031660009081526020819052604090205490565b606080600060068054806020026020016040519081016040528092919081815260200182805480156103d357602002820191906000526020600020905b81546001600160a01b031681526001909101906020018083116103b5575b50505050509050600081516001600160401b038111156103f5576103f5611017565b60405190808252806020026020018201604052801561041e578160200160208202803683370190505b50905060005b825181101561047e5761044f83828151811061044257610442611001565b602002602001015161035d565b82828151811061046157610461611001565b60209081029190910101528061047681610fd0565b915050610424565b5090939092509050565b6060600480546101d690610f95565b3360009081526001602090815260408083206001600160a01b0386168452909152812054828110156105195760405162461bcd60e51b815260206004820152602560248201527f45524332303a2064656372656173656420616c6c6f77616e63652062656c6f77604482015264207a65726f60d81b60648201526084016102fe565b61052833856103168685610f7e565b5060019392505050565b600061026633848461077b565b600061055c6001600160a01b0384166105578461095e565b610602565b9392505050565b606061055c73__Library_______________________________635b28cf638561058c8661095e565b6040518363ffffffff1660e01b81526004016105a9929190610f25565b60006040518083038186803b1580156105c157600080fd5b505af41580156105d5573d6000803e3d6000fd5b505050506040513d6000823e601f3d908101601f191682016040526105fd9190810190610d88565b610a12565b6000805b82518110156106495782818151811061062157610621611001565b602002602001015184141561063757905061026a565b8061064181610fd0565b915050610606565b50815161055c906001610f66565b6001600160a01b0383166106b95760405162461bcd60e51b8152602060048201526024808201527f45524332303a20617070726f76652066726f6d20746865207a65726f206164646044820152637265737360e01b60648201526084016102fe565b6001600160a01b03821661071a5760405162461bcd60e51b815260206004820152602260248201527f45524332303a20617070726f766520746f20746865207a65726f206164647265604482015261737360f01b60648201526084016102fe565b6001600160a01b0383811660008181526001602090815260408083209487168084529482529182902085905590518481527f8c5be1e5ebec7d5bd14f71427d1e84f3dd0314c0f7b2291e5b200ac8c7c3b925910160405180910390a3505050565b6001600160a01b0383166107df5760405162461bcd60e51b815260206004820152602560248201527f45524332303a207472616e736665722066726f6d20746865207a65726f206164604482015264647265737360d81b60648201526084016102fe565b6001600160a01b0382166108415760405162461bcd60e51b815260206004820152602360248201527f45524332303a207472616e7366657220746f20746865207a65726f206164647260448201526265737360e81b60648201526084016102fe565b61084c838383610ac3565b6001600160a01b038316600090815260208190526040902054818110156108c45760405162461bcd60e51b815260206004820152602660248201527f45524332303a207472616e7366657220616d6f756e7420657863656564732062604482015265616c616e636560d01b60648201526084016102fe565b6108ce8282610f7e565b6001600160a01b038086166000908152602081905260408082209390935590851681529081208054849290610904908490610f66565b92505081905550826001600160a01b0316846001600160a01b03167fddf252ad1be2c89b69c2b068fc378daa952ba7f163c4a11628f55a4df523b3ef8460405161095091815260200190565b60405180910390a350505050565b6060600082516001600160401b0381111561097b5761097b611017565b6040519080825280602002602001820160405280156109a4578160200160208202803683370190505b50905060005b8151811015610a0b576109dc8482815181106109c8576109c8611001565b60200260200101516001600160a01b031690565b8282815181106109ee576109ee611001565b602090810291909101015280610a0381610fd0565b9150506109aa565b5092915050565b6060600082516001600160401b03811115610a2f57610a2f611017565b604051908082528060200260200182016040528015610a58578160200160208202803683370190505b50905060005b8151811015610a0b57610a87848281518110610a7c57610a7c611001565b602002602001015190565b828281518110610a9957610a99611001565b6001600160a01b039092166020928302919091019091015280610abb81610fd0565b915050610a5e565b8015610c39576001600160a01b03821615801590610ae75750610ae58261035d565b155b15610b3857600680546001810182556000919091527ff652222313e28459528d920b65115c16c04f3efc82aaedc97be59f3f377c0d3f0180546001600160a01b0319166001600160a01b0384161790555b6001600160a01b03831615801590610b575750610b548361035d565b81145b15610c3957610c23610bc3846006805480602002602001604051908101604052809291908181526020018280548015610bb957602002820191906000526020600020905b81546001600160a01b03168152600190910190602001808311610b9b575b505050505061053f565b6006805480602002602001604051908101604052809291908181526020018280548015610c1957602002820191906000526020600020905b81546001600160a01b03168152600190910190602001808311610bfb575b5050505050610563565b8051610c3791600691602090910190610c3e565b505b505050565b828054828255906000526020600020908101928215610c93579160200282015b82811115610c9357825182546001600160a01b0319166001600160a01b03909116178255602090920191600190910190610c5e565b50610c9f929150610ca3565b5090565b5b80821115610c9f5760008155600101610ca4565b80356001600160a01b0381168114610ccf57600080fd5b919050565b600060208284031215610ce657600080fd5b61055c82610cb8565b60008060408385031215610d0257600080fd5b610d0b83610cb8565b9150610d1960208401610cb8565b90509250929050565b600080600060608486031215610d3757600080fd5b610d4084610cb8565b9250610d4e60208501610cb8565b9150604084013590509250925092565b60008060408385031215610d7157600080fd5b610d7a83610cb8565b946020939093013593505050565b60006020808385031215610d9b57600080fd5b82516001600160401b0380821115610db257600080fd5b818501915085601f830112610dc657600080fd5b815181811115610dd857610dd8611017565b8060051b604051601f19603f83011681018181108582111715610dfd57610dfd611017565b604052828152858101935084860182860187018a1015610e1c57600080fd5b600095505b83861015610e3f578051855260019590950194938601938601610e21565b5098975050505050505050565b604080825283519082018190526000906020906060840190828701845b82811015610e8e5781516001600160a01b031684529284019290840190600101610e69565b5050508381038285015284518082528583019183019060005b81811015610ec357835183529284019291840191600101610ea7565b5090979650505050505050565b600060208083528351808285015260005b81811015610efd57858101830151858201604001528201610ee1565b81811115610f0f576000604083870101525b50601f01601f1916929092016040019392505050565b6000604082018483526020604081850152818551808452606086019150828701935060005b81811015610ec357845183529383019391830191600101610f4a565b60008219821115610f7957610f79610feb565b500190565b600082821015610f9057610f90610feb565b500390565b600181811c90821680610fa957607f821691505b60208210811415610fca57634e487b7160e01b600052602260045260246000fd5b50919050565b6000600019821415610fe457610fe4610feb565b5060010190565b634e487b7160e01b600052601160045260246000fd5b634e487b7160e01b600052603260045260246000fd5b634e487b7160e01b600052604160045260246000fdfea26469706673582212204af3f51cd5ae16628d8382d0cbd2a7cc4b045636f01bb913a27fd4ea24d510e164736f6c63430008060033",
  "immutableReferences": {},
  "source": "// SPDX-License-Identifier: GPL-3.0\r\n\r\npragma solidity ^0.8.0;\r\n\r\n/**\r\n * @title Storage\r\n * @dev Store & retrieve value in a variable\r\n */\r\n\r\nimport \"@openzeppelin/contracts/token/ERC20/ERC20.sol\";\r\nimport \"./Libraries/AddressLibrary.sol\";\r\n\r\n contract CertisToken is ERC20 {\r\n\r\n     using AddressLibrary for *;\r\n\r\n     uint8 _decimals;\r\n     address[] _tokenOwners;\r\n\r\n    constructor(string memory name, string memory symbol, uint8 decimalsValue, uint256 MaxSupply) ERC20(name, symbol){\r\n        _tokenOwners = new address[](0);\r\n        _decimals = decimalsValue;\r\n        _mint(msg.sender, MaxSupply);\r\n    }\r\n\r\n    function decimals() public view override returns (uint8) {\r\n        return _decimals;\r\n    }\r\n\r\n    function TokenOwners() external view returns (address[] memory, uint256[] memory){\r\n        address[] memory tO = _tokenOwners;\r\n        uint256[] memory OwnerBalance = new uint256[](tO.length);\r\n\r\n        for(uint i=0; i < tO.length; i++){\r\n                OwnerBalance[i] = balanceOf(tO[i]);\r\n        }\r\n\r\n        return(tO,OwnerBalance);\r\n    }\r\n\r\n    function _beforeTokenTransfer(address from, address to, uint256 amount) internal override {\r\n        if(amount > 0){\r\n            if(address(0) != to && 0 == balanceOf(to))_tokenOwners.push(to);\r\n            if(address(0) != from && amount == balanceOf(from)){\r\n                _tokenOwners = AddressLibrary.AddressArrayRemoveResize(AddressLibrary.FindAddressPosition(from, _tokenOwners),_tokenOwners);\r\n            }\r\n        }\r\n    }\r\n    \r\n\r\n }",
  "sourcePath": "C:\\Users\\d-aam\\GitHub\\Certificates\\contracts\\CertisToken.sol",
  "compiler": {
    "name": "solc",
    "version": "0.8.6+commit.11564f7e.Emscripten.clang"
  },
  "schemaVersion": "3.3.4",
  "updatedAt": "2021-07-26T09:36:09.794Z",
  "devdoc": {
    "kind": "dev",
    "methods": {
      "allowance(address,address)": {
        "details": "See {IERC20-allowance}."
      },
      "approve(address,uint256)": {
        "details": "See {IERC20-approve}. Requirements: - `spender` cannot be the zero address."
      },
      "balanceOf(address)": {
        "details": "See {IERC20-balanceOf}."
      },
      "decimals()": {
        "details": "Returns the number of decimals used to get its user representation. For example, if `decimals` equals `2`, a balance of `505` tokens should be displayed to a user as `5,05` (`505 / 10 ** 2`). Tokens usually opt for a value of 18, imitating the relationship between Ether and Wei. This is the value {ERC20} uses, unless this function is overridden; NOTE: This information is only used for _display_ purposes: it in no way affects any of the arithmetic of the contract, including {IERC20-balanceOf} and {IERC20-transfer}."
      },
      "decreaseAllowance(address,uint256)": {
        "details": "Atomically decreases the allowance granted to `spender` by the caller. This is an alternative to {approve} that can be used as a mitigation for problems described in {IERC20-approve}. Emits an {Approval} event indicating the updated allowance. Requirements: - `spender` cannot be the zero address. - `spender` must have allowance for the caller of at least `subtractedValue`."
      },
      "increaseAllowance(address,uint256)": {
        "details": "Atomically increases the allowance granted to `spender` by the caller. This is an alternative to {approve} that can be used as a mitigation for problems described in {IERC20-approve}. Emits an {Approval} event indicating the updated allowance. Requirements: - `spender` cannot be the zero address."
      },
      "name()": {
        "details": "Returns the name of the token."
      },
      "symbol()": {
        "details": "Returns the symbol of the token, usually a shorter version of the name."
      },
      "totalSupply()": {
        "details": "See {IERC20-totalSupply}."
      },
      "transfer(address,uint256)": {
        "details": "See {IERC20-transfer}. Requirements: - `recipient` cannot be the zero address. - the caller must have a balance of at least `amount`."
      },
      "transferFrom(address,address,uint256)": {
        "details": "See {IERC20-transferFrom}. Emits an {Approval} event indicating the updated allowance. This is not required by the EIP. See the note at the beginning of {ERC20}. Requirements: - `sender` and `recipient` cannot be the zero address. - `sender` must have a balance of at least `amount`. - the caller must have allowance for ``sender``'s tokens of at least `amount`."
      }
    },
    "version": 1
  },
  "userdoc": {
    "kind": "user",
    "methods": {},
    "version": 1
  }
}