{
  "contractName": "Certificates",
  "abi": [
    {
      "inputs": [
        {
          "internalType": "address[]",
          "name": "owners",
          "type": "address[]"
        },
        {
          "internalType": "uint256",
          "name": "minOwners",
          "type": "uint256"
        }
      ],
      "stateMutability": "payable",
      "type": "constructor"
    },
    {
      "anonymous": false,
      "inputs": [
        {
          "indexed": false,
          "internalType": "address",
          "name": "",
          "type": "address"
        },
        {
          "indexed": false,
          "internalType": "address",
          "name": "",
          "type": "address"
        },
        {
          "indexed": false,
          "internalType": "uint256",
          "name": "",
          "type": "uint256"
        }
      ],
      "name": "_AddCertificateIdEvent",
      "type": "event"
    },
    {
      "anonymous": false,
      "inputs": [
        {
          "indexed": false,
          "internalType": "address",
          "name": "",
          "type": "address"
        }
      ],
      "name": "_AddOwnerValidationIdEvent",
      "type": "event"
    },
    {
      "anonymous": false,
      "inputs": [
        {
          "indexed": false,
          "internalType": "address",
          "name": "",
          "type": "address"
        }
      ],
      "name": "_AddProviderValidationIdEvent",
      "type": "event"
    },
    {
      "anonymous": false,
      "inputs": [
        {
          "indexed": false,
          "internalType": "address",
          "name": "",
          "type": "address"
        },
        {
          "indexed": false,
          "internalType": "address",
          "name": "",
          "type": "address"
        },
        {
          "indexed": false,
          "internalType": "uint256",
          "name": "",
          "type": "uint256"
        }
      ],
      "name": "_RemoveCertificateIdEvent",
      "type": "event"
    },
    {
      "anonymous": false,
      "inputs": [
        {
          "indexed": false,
          "internalType": "address",
          "name": "",
          "type": "address"
        }
      ],
      "name": "_RemoveOwnerValidationIdEvent",
      "type": "event"
    },
    {
      "anonymous": false,
      "inputs": [
        {
          "indexed": false,
          "internalType": "address",
          "name": "",
          "type": "address"
        }
      ],
      "name": "_RemoveProviderValidationIdEvent",
      "type": "event"
    },
    {
      "anonymous": false,
      "inputs": [
        {
          "indexed": false,
          "internalType": "address",
          "name": "",
          "type": "address"
        },
        {
          "indexed": false,
          "internalType": "address",
          "name": "",
          "type": "address"
        },
        {
          "indexed": false,
          "internalType": "uint256",
          "name": "",
          "type": "uint256"
        }
      ],
      "name": "_UpdateCertificateIdEvent",
      "type": "event"
    },
    {
      "inputs": [
        {
          "internalType": "address",
          "name": "provider",
          "type": "address"
        },
        {
          "internalType": "string",
          "name": "providerInfo",
          "type": "string"
        }
      ],
      "name": "addProvider",
      "outputs": [],
      "stateMutability": "nonpayable",
      "type": "function"
    },
    {
      "inputs": [
        {
          "internalType": "address",
          "name": "provider",
          "type": "address"
        }
      ],
      "name": "removeProvider",
      "outputs": [],
      "stateMutability": "nonpayable",
      "type": "function"
    },
    {
      "inputs": [
        {
          "internalType": "address",
          "name": "provider",
          "type": "address"
        },
        {
          "internalType": "string",
          "name": "providerInfo",
          "type": "string"
        }
      ],
      "name": "updateProvider",
      "outputs": [],
      "stateMutability": "nonpayable",
      "type": "function"
    },
    {
      "inputs": [
        {
          "internalType": "address",
          "name": "provider",
          "type": "address"
        }
      ],
      "name": "retrieveProvider",
      "outputs": [
        {
          "internalType": "string",
          "name": "",
          "type": "string"
        }
      ],
      "stateMutability": "view",
      "type": "function"
    },
    {
      "inputs": [],
      "name": "retrieveTotalProviders",
      "outputs": [
        {
          "internalType": "uint256",
          "name": "",
          "type": "uint256"
        }
      ],
      "stateMutability": "view",
      "type": "function"
    },
    {
      "inputs": [
        {
          "internalType": "string",
          "name": "CertificateContent",
          "type": "string"
        },
        {
          "internalType": "string",
          "name": "CertificateLocation",
          "type": "string"
        },
        {
          "internalType": "bytes",
          "name": "CertificateHash",
          "type": "bytes"
        },
        {
          "internalType": "address",
          "name": "holder",
          "type": "address"
        }
      ],
      "name": "addCertificate",
      "outputs": [],
      "stateMutability": "nonpayable",
      "type": "function"
    },
    {
      "inputs": [
        {
          "internalType": "uint256",
          "name": "CertificateId",
          "type": "uint256"
        },
        {
          "internalType": "address",
          "name": "holder",
          "type": "address"
        }
      ],
      "name": "removeCertificate",
      "outputs": [],
      "stateMutability": "nonpayable",
      "type": "function"
    },
    {
      "inputs": [
        {
          "internalType": "uint256",
          "name": "CertificateId",
          "type": "uint256"
        },
        {
          "internalType": "address",
          "name": "holder",
          "type": "address"
        },
        {
          "internalType": "string",
          "name": "CertificateContent",
          "type": "string"
        },
        {
          "internalType": "string",
          "name": "CertificateLocation",
          "type": "string"
        },
        {
          "internalType": "bytes",
          "name": "CertificateHash",
          "type": "bytes"
        }
      ],
      "name": "updateCertificate",
      "outputs": [],
      "stateMutability": "nonpayable",
      "type": "function"
    },
    {
      "inputs": [
        {
          "internalType": "uint256",
          "name": "CertificateId",
          "type": "uint256"
        },
        {
          "internalType": "address",
          "name": "holder",
          "type": "address"
        }
      ],
      "name": "retrieveCertificate",
      "outputs": [
        {
          "internalType": "address",
          "name": "",
          "type": "address"
        },
        {
          "internalType": "string",
          "name": "",
          "type": "string"
        },
        {
          "internalType": "string",
          "name": "",
          "type": "string"
        },
        {
          "internalType": "bytes",
          "name": "",
          "type": "bytes"
        }
      ],
      "stateMutability": "view",
      "type": "function"
    },
    {
      "inputs": [
        {
          "internalType": "address",
          "name": "holder",
          "type": "address"
        }
      ],
      "name": "retrieveTotalCertificatesByHolder",
      "outputs": [
        {
          "internalType": "uint256",
          "name": "",
          "type": "uint256"
        }
      ],
      "stateMutability": "view",
      "type": "function"
    },
    {
      "inputs": [
        {
          "internalType": "address",
          "name": "provider",
          "type": "address"
        },
        {
          "internalType": "address",
          "name": "holder",
          "type": "address"
        }
      ],
      "name": "retrieveTotalCertificatesByProviderAndHolder",
      "outputs": [
        {
          "internalType": "uint256",
          "name": "",
          "type": "uint256"
        }
      ],
      "stateMutability": "view",
      "type": "function"
    },
    {
      "inputs": [
        {
          "internalType": "address",
          "name": "provider",
          "type": "address"
        },
        {
          "internalType": "address",
          "name": "holder",
          "type": "address"
        }
      ],
      "name": "retrieveCertificatesByProviderAndHolder",
      "outputs": [
        {
          "internalType": "uint256[]",
          "name": "",
          "type": "uint256[]"
        }
      ],
      "stateMutability": "view",
      "type": "function"
    },
    {
      "inputs": [
        {
          "internalType": "address",
          "name": "owner",
          "type": "address"
        },
        {
          "internalType": "string",
          "name": "ownerInfo",
          "type": "string"
        }
      ],
      "name": "addOwner",
      "outputs": [],
      "stateMutability": "nonpayable",
      "type": "function"
    },
    {
      "inputs": [
        {
          "internalType": "address",
          "name": "owner",
          "type": "address"
        }
      ],
      "name": "removeOwner",
      "outputs": [],
      "stateMutability": "nonpayable",
      "type": "function"
    },
    {
      "inputs": [
        {
          "internalType": "address",
          "name": "owner",
          "type": "address"
        }
      ],
      "name": "isOwner",
      "outputs": [
        {
          "internalType": "bool",
          "name": "",
          "type": "bool"
        }
      ],
      "stateMutability": "view",
      "type": "function"
    },
    {
      "inputs": [],
      "name": "retrieveTotalOwners",
      "outputs": [
        {
          "internalType": "uint256",
          "name": "",
          "type": "uint256"
        }
      ],
      "stateMutability": "view",
      "type": "function"
    }
  ],
  "bytecode": "0x6080604052600267ffffffffffffffff811180156200001d57600080fd5b506040519080825280602002602001820160405280156200004d5781602001602082028036833780820191505090505b5060019080519060200190620000659291906200031c565b506040516200382b3803806200382b833981810160405260408110156200008b57600080fd5b8101908080516040519392919084640100000000821115620000ac57600080fd5b83820191506020820185811115620000c357600080fd5b8251866020820283011164010000000082111715620000e157600080fd5b8083526020830192505050908051906020019060200280838360005b838110156200011a578082015181840152602081019050620000fd565b5050505090500160405260200180519060200190929190505050815181111562000190576040517f08c379a000000000000000000000000000000000000000000000000000000000815260040180806020018281038252603c815260200180620037ef603c913960400191505060405180910390fd5b6000811162000207576040517f08c379a00000000000000000000000000000000000000000000000000000000081526004018080602001828103825260188152602001807f4174206c656173742031206d696e696d756d206f776e6572000000000000000081525060200191505060405180910390fd5b600260018160018154018082558091505003906000526020600020505060026001816001815401808255809150500390600052602060002050508060008190555060005b82518110156200031357600160026000815481106200026657fe5b9060005260206000200160000160008584815181106200028257fe5b602002602001015173ffffffffffffffffffffffffffffffffffffffff1673ffffffffffffffffffffffffffffffffffffffff16815260200190815260200160002060000160006101000a81548160ff021916908315150217905550600180600081548110620002ee57fe5b906000526020600020016000828254019250508190555080806001019150506200024b565b5050506200038d565b8280548282559060005260206000209081019282156200035b579160200282015b828111156200035a5782518255916020019190600101906200033d565b5b5090506200036a91906200036e565b5090565b5b80821115620003895760008160009055506001016200036f565b5090565b613452806200039d6000396000f3fe608060405234801561001057600080fd5b50600436106101005760003560e01c806382ff66a311610097578063d744d2f311610066578063d744d2f314610a4d578063eefe768114610a6b578063fc00050014610a89578063fd90ae7614610b6457610100565b806382ff66a3146105345780638a355a571461073d5780639a90be9e146107815780639df665281461083a57610100565b80633542758f116100d35780633542758f146102f657806337583499146103d15780633bc6fe0e1461048e5780636e55d2d4146104dc57610100565b80631270db7a146101055780631660c22a1461017d578063173825d9146102585780632f54bf6e1461029c575b600080fd5b6101676004803603604081101561011b57600080fd5b81019080803573ffffffffffffffffffffffffffffffffffffffff169060200190929190803573ffffffffffffffffffffffffffffffffffffffff169060200190929190505050610d20565b6040518082815260200191505060405180910390f35b6102566004803603604081101561019357600080fd5b81019080803573ffffffffffffffffffffffffffffffffffffffff169060200190929190803590602001906401000000008111156101d057600080fd5b8201836020820111156101e257600080fd5b8035906020019184600183028401116401000000008311171561020457600080fd5b91908080601f016020809104026020016040519081016040528093929190818152602001838380828437600081840152601f19601f820116905080830192505050505050509192919290505050610e42565b005b61029a6004803603602081101561026e57600080fd5b81019080803573ffffffffffffffffffffffffffffffffffffffff169060200190929190505050611039565b005b6102de600480360360208110156102b257600080fd5b81019080803573ffffffffffffffffffffffffffffffffffffffff169060200190929190505050611047565b60405180821515815260200191505060405180910390f35b6103cf6004803603604081101561030c57600080fd5b81019080803573ffffffffffffffffffffffffffffffffffffffff1690602001909291908035906020019064010000000081111561034957600080fd5b82018360208201111561035b57600080fd5b8035906020019184600183028401116401000000008311171561037d57600080fd5b91908080601f016020809104026020016040519081016040528093929190818152602001838380828437600081840152601f19601f8201169050808301925050505050505091929192905050506110b9565b005b610413600480360360208110156103e757600080fd5b81019080803573ffffffffffffffffffffffffffffffffffffffff1690602001909291905050506110c9565b6040518080602001828103825283818151815260200191508051906020019080838360005b83811015610453578082015181840152602081019050610438565b50505050905090810190601f1680156104805780820380516001836020036101000a031916815260200191505b509250505060405180910390f35b6104da600480360360408110156104a457600080fd5b8101908080359060200190929190803573ffffffffffffffffffffffffffffffffffffffff1690602001909291905050506112a8565b005b61051e600480360360208110156104f257600080fd5b81019080803573ffffffffffffffffffffffffffffffffffffffff16906020019092919050505061163e565b6040518082815260200191505060405180910390f35b61073b6004803603608081101561054a57600080fd5b810190808035906020019064010000000081111561056757600080fd5b82018360208201111561057957600080fd5b8035906020019184600183028401116401000000008311171561059b57600080fd5b91908080601f016020809104026020016040519081016040528093929190818152602001838380828437600081840152601f19601f820116905080830192505050505050509192919290803590602001906401000000008111156105fe57600080fd5b82018360208201111561061057600080fd5b8035906020019184600183028401116401000000008311171561063257600080fd5b91908080601f016020809104026020016040519081016040528093929190818152602001838380828437600081840152601f19601f8201169050808301925050505050505091929192908035906020019064010000000081111561069557600080fd5b8201836020820111156106a757600080fd5b803590602001918460018302840111640100000000831117156106c957600080fd5b91908080601f016020809104026020016040519081016040528093929190818152602001838380828437600081840152601f19601f820116905080830192505050505050509192919290803573ffffffffffffffffffffffffffffffffffffffff16906020019092919050505061168a565b005b61077f6004803603602081101561075357600080fd5b81019080803573ffffffffffffffffffffffffffffffffffffffff1690602001909291905050506119ff565b005b6107e36004803603604081101561079757600080fd5b81019080803573ffffffffffffffffffffffffffffffffffffffff169060200190929190803573ffffffffffffffffffffffffffffffffffffffff169060200190929190505050611a0d565b6040518080602001828103825283818151815260200191508051906020019060200280838360005b8381101561082657808201518184015260208101905061080b565b505050509050019250505060405180910390f35b610a4b600480360360a081101561085057600080fd5b8101908080359060200190929190803573ffffffffffffffffffffffffffffffffffffffff1690602001909291908035906020019064010000000081111561089757600080fd5b8201836020820111156108a957600080fd5b803590602001918460018302840111640100000000831117156108cb57600080fd5b91908080601f016020809104026020016040519081016040528093929190818152602001838380828437600081840152601f19601f8201169050808301925050505050505091929192908035906020019064010000000081111561092e57600080fd5b82018360208201111561094057600080fd5b8035906020019184600183028401116401000000008311171561096257600080fd5b91908080601f016020809104026020016040519081016040528093929190818152602001838380828437600081840152601f19601f820116905080830192505050505050509192919290803590602001906401000000008111156109c557600080fd5b8201836020820111156109d757600080fd5b803590602001918460018302840111640100000000831117156109f957600080fd5b91908080601f016020809104026020016040519081016040528093929190818152602001838380828437600081840152601f19601f820116905080830192505050505050509192919290505050611b99565b005b610a55611fb5565b6040518082815260200191505060405180910390f35b610a73611fd4565b6040518082815260200191505060405180910390f35b610b6260048036036040811015610a9f57600080fd5b81019080803573ffffffffffffffffffffffffffffffffffffffff16906020019092919080359060200190640100000000811115610adc57600080fd5b820183602082011115610aee57600080fd5b80359060200191846001830284011164010000000083111715610b1057600080fd5b91908080601f016020809104026020016040519081016040528093929190818152602001838380828437600081840152601f19601f820116905080830192505050505050509192919290505050611ff4565b005b610bb060048036036040811015610b7a57600080fd5b8101908080359060200190929190803573ffffffffffffffffffffffffffffffffffffffff169060200190929190505050612004565b604051808573ffffffffffffffffffffffffffffffffffffffff168152602001806020018060200180602001848103845287818151815260200191508051906020019080838360005b83811015610c14578082015181840152602081019050610bf9565b50505050905090810190601f168015610c415780820380516001836020036101000a031916815260200191505b50848103835286818151815260200191508051906020019080838360005b83811015610c7a578082015181840152602081019050610c5f565b50505050905090810190601f168015610ca75780820380516001836020036101000a031916815260200191505b50848103825285818151815260200191508051906020019080838360005b83811015610ce0578082015181840152602081019050610cc5565b50505050905090810190601f168015610d0d5780820380516001836020036101000a031916815260200191505b5097505050505050505060405180910390f35b6000806000905060005b600360008573ffffffffffffffffffffffffffffffffffffffff1673ffffffffffffffffffffffffffffffffffffffff16815260200190815260200160002080549050811015610e37578473ffffffffffffffffffffffffffffffffffffffff16600360008673ffffffffffffffffffffffffffffffffffffffff1673ffffffffffffffffffffffffffffffffffffffff1681526020019081526020016000208281548110610dd557fe5b906000526020600020906004020160000160009054906101000a900473ffffffffffffffffffffffffffffffffffffffff1673ffffffffffffffffffffffffffffffffffffffff161415610e2a576001820191505b8080600101915050610d2a565b508091505092915050565b8173ffffffffffffffffffffffffffffffffffffffff163373ffffffffffffffffffffffffffffffffffffffff1614610ee3576040517f08c379a000000000000000000000000000000000000000000000000000000000815260040180806020018281038252601f8152602001807f4e6f7420616c6c6f77656420746f207570646174652070726f7669646572730081525060200191505060405180910390fd5b6002600181548110610ef157fe5b9060005260206000200160000160008373ffffffffffffffffffffffffffffffffffffffff1673ffffffffffffffffffffffffffffffffffffffff16815260200190815260200160002060000160009054906101000a900460ff1615156001151514610fc5576040517f08c379a00000000000000000000000000000000000000000000000000000000081526004018080602001828103825260168152602001807f50726f7669646572206e6f74206163746976617465640000000000000000000081525060200191505060405180910390fd5b806002600181548110610fd457fe5b9060005260206000200160000160008473ffffffffffffffffffffffffffffffffffffffff1673ffffffffffffffffffffffffffffffffffffffff16815260200190815260200160002060010190805190602001906110349291906131f1565b505050565b611044816000612434565b50565b6000600260008154811061105757fe5b9060005260206000200160000160008373ffffffffffffffffffffffffffffffffffffffff1673ffffffffffffffffffffffffffffffffffffffff16815260200190815260200160002060000160009054906101000a900460ff169050919050565b6110c582826000612add565b5050565b606060026001815481106110d957fe5b9060005260206000200160000160008373ffffffffffffffffffffffffffffffffffffffff1673ffffffffffffffffffffffffffffffffffffffff16815260200190815260200160002060000160009054906101000a900460ff16151560011515146111ad576040517f08c379a00000000000000000000000000000000000000000000000000000000081526004018080602001828103825260178152602001807f50726f766964657220646f6573206e6f7420657869737400000000000000000081525060200191505060405180910390fd5b60026001815481106111bb57fe5b9060005260206000200160000160008373ffffffffffffffffffffffffffffffffffffffff1673ffffffffffffffffffffffffffffffffffffffff1681526020019081526020016000206001018054600181600116156101000203166002900480601f01602080910402602001604051908101604052809291908181526020018280546001816001161561010002031660029004801561129c5780601f106112715761010080835404028352916020019161129c565b820191906000526020600020905b81548152906001019060200180831161127f57829003601f168201915b50505050509050919050565b600360008273ffffffffffffffffffffffffffffffffffffffff1673ffffffffffffffffffffffffffffffffffffffff16815260200190815260200160002080549050821061135f576040517f08c379a000000000000000000000000000000000000000000000000000000000815260040180806020018281038252601a8152602001807f436572746966696361746520646f6573206e6f7420657869737400000000000081525060200191505060405180910390fd5b600360008273ffffffffffffffffffffffffffffffffffffffff1673ffffffffffffffffffffffffffffffffffffffff16815260200190815260200160002082815481106113a957fe5b906000526020600020906004020160000160009054906101000a900473ffffffffffffffffffffffffffffffffffffffff1673ffffffffffffffffffffffffffffffffffffffff163373ffffffffffffffffffffffffffffffffffffffff16148061143f57508073ffffffffffffffffffffffffffffffffffffffff163373ffffffffffffffffffffffffffffffffffffffff16145b611494576040517f08c379a00000000000000000000000000000000000000000000000000000000081526004018080602001828103825260318152602001806133ec6031913960400191505060405180910390fd5b6000600360008373ffffffffffffffffffffffffffffffffffffffff1673ffffffffffffffffffffffffffffffffffffffff16815260200190815260200160002083815481106114e057fe5b906000526020600020906004020160000160009054906101000a900473ffffffffffffffffffffffffffffffffffffffff169050600360008373ffffffffffffffffffffffffffffffffffffffff1673ffffffffffffffffffffffffffffffffffffffff168152602001908152602001600020838154811061155e57fe5b9060005260206000209060040201600080820160006101000a81549073ffffffffffffffffffffffffffffffffffffffff02191690556001820160006115a4919061327f565b6002820160006115b4919061327f565b6003820160006115c491906132c7565b50507f709d6b1b4d6f0b57a9f43c17f08c02648af8d37929b58caa594a4b03b8424687818385604051808473ffffffffffffffffffffffffffffffffffffffff1681526020018373ffffffffffffffffffffffffffffffffffffffff168152602001828152602001935050505060405180910390a1505050565b6000600360008373ffffffffffffffffffffffffffffffffffffffff1673ffffffffffffffffffffffffffffffffffffffff168152602001908152602001600020805490509050919050565b600260018154811061169857fe5b9060005260206000200160000160003373ffffffffffffffffffffffffffffffffffffffff1673ffffffffffffffffffffffffffffffffffffffff16815260200190815260200160002060000160009054906101000a900460ff161515600115151461176c576040517f08c379a000000000000000000000000000000000000000000000000000000000815260040180806020018281038252601f8152602001807f4e6f7420616c6c6f77656420746f20616464204365727469666963617465730081525060200191505060405180910390fd5b8151600010801561178a5750825160001080611789575083516000105b5b6117fc576040517f08c379a00000000000000000000000000000000000000000000000000000000081526004018080602001828103825260148152602001807f436572746966696361746520697320656d70747900000000000000000000000081525060200191505060405180910390fd5b600360008273ffffffffffffffffffffffffffffffffffffffff1673ffffffffffffffffffffffffffffffffffffffff16815260200190815260200160002060405180608001604052803373ffffffffffffffffffffffffffffffffffffffff16815260200186815260200185815260200184815250908060018154018082558091505060019003906000526020600020906004020160009091909190915060008201518160000160006101000a81548173ffffffffffffffffffffffffffffffffffffffff021916908373ffffffffffffffffffffffffffffffffffffffff16021790555060208201518160010190805190602001906118fe9291906131f1565b50604082015181600201908051906020019061191b9291906131f1565b50606082015181600301908051906020019061193892919061330f565b50505060006001600360008473ffffffffffffffffffffffffffffffffffffffff1673ffffffffffffffffffffffffffffffffffffffff168152602001908152602001600020805490500390507f76f4df91a34263fc533728c4689dd106f547d04117b44c2f5606efdbc184bdde338383604051808473ffffffffffffffffffffffffffffffffffffffff1681526020018373ffffffffffffffffffffffffffffffffffffffff168152602001828152602001935050505060405180910390a15050505050565b611a0a816001612434565b50565b60606000611a1b8484610d20565b67ffffffffffffffff81118015611a3157600080fd5b50604051908082528060200260200182016040528015611a605781602001602082028036833780820191505090505b5090506000805b600360008673ffffffffffffffffffffffffffffffffffffffff1673ffffffffffffffffffffffffffffffffffffffff16815260200190815260200160002080549050811015611b8d578573ffffffffffffffffffffffffffffffffffffffff16600360008773ffffffffffffffffffffffffffffffffffffffff1673ffffffffffffffffffffffffffffffffffffffff1681526020019081526020016000208281548110611b1257fe5b906000526020600020906004020160000160009054906101000a900473ffffffffffffffffffffffffffffffffffffffff1673ffffffffffffffffffffffffffffffffffffffff161415611b805780838381518110611b6d57fe5b6020026020010181815250506001820191505b8080600101915050611a67565b50819250505092915050565b600360008573ffffffffffffffffffffffffffffffffffffffff1673ffffffffffffffffffffffffffffffffffffffff168152602001908152602001600020805490508510611c50576040517f08c379a000000000000000000000000000000000000000000000000000000000815260040180806020018281038252601a8152602001807f436572746966696361746520646f6573206e6f7420657869737400000000000081525060200191505060405180910390fd5b600360008573ffffffffffffffffffffffffffffffffffffffff1673ffffffffffffffffffffffffffffffffffffffff1681526020019081526020016000208581548110611c9a57fe5b906000526020600020906004020160000160009054906101000a900473ffffffffffffffffffffffffffffffffffffffff1673ffffffffffffffffffffffffffffffffffffffff163373ffffffffffffffffffffffffffffffffffffffff1614611d4f576040517f08c379a00000000000000000000000000000000000000000000000000000000081526004018080602001828103825260318152602001806133bb6031913960400191505060405180910390fd5b825160001015611dca5782600360008673ffffffffffffffffffffffffffffffffffffffff1673ffffffffffffffffffffffffffffffffffffffff1681526020019081526020016000208681548110611da457fe5b90600052602060002090600402016001019080519060200190611dc89291906131f1565b505b815160001015611e455781600360008673ffffffffffffffffffffffffffffffffffffffff1673ffffffffffffffffffffffffffffffffffffffff1681526020019081526020016000208681548110611e1f57fe5b90600052602060002090600402016002019080519060200190611e439291906131f1565b505b805160001015611ec05780600360008673ffffffffffffffffffffffffffffffffffffffff1673ffffffffffffffffffffffffffffffffffffffff1681526020019081526020016000208681548110611e9a57fe5b90600052602060002090600402016003019080519060200190611ebe92919061330f565b505b7f736a6334743f8e5fff8d835332a115f2c34c1bbf6e2384459e1a24e0540bd47c600360008673ffffffffffffffffffffffffffffffffffffffff1673ffffffffffffffffffffffffffffffffffffffff1681526020019081526020016000208681548110611f2b57fe5b906000526020600020906004020160000160009054906101000a900473ffffffffffffffffffffffffffffffffffffffff168587604051808473ffffffffffffffffffffffffffffffffffffffff1681526020018373ffffffffffffffffffffffffffffffffffffffff168152602001828152602001935050505060405180910390a15050505050565b600060018081548110611fc457fe5b9060005260206000200154905090565b60006001600081548110611fe457fe5b9060005260206000200154905090565b61200082826001612add565b5050565b60006060806060600360008673ffffffffffffffffffffffffffffffffffffffff1673ffffffffffffffffffffffffffffffffffffffff1681526020019081526020016000208054905086106120c2576040517f08c379a000000000000000000000000000000000000000000000000000000000815260040180806020018281038252601a8152602001807f436572746966696361746520646f6573206e6f7420657869737400000000000081525060200191505060405180910390fd5b600360008673ffffffffffffffffffffffffffffffffffffffff1673ffffffffffffffffffffffffffffffffffffffff168152602001908152602001600020868154811061210c57fe5b906000526020600020906004020160000160009054906101000a900473ffffffffffffffffffffffffffffffffffffffff16600360008773ffffffffffffffffffffffffffffffffffffffff1673ffffffffffffffffffffffffffffffffffffffff168152602001908152602001600020878154811061218857fe5b9060005260206000209060040201600101600360008873ffffffffffffffffffffffffffffffffffffffff1673ffffffffffffffffffffffffffffffffffffffff16815260200190815260200160002088815481106121e357fe5b9060005260206000209060040201600201600360008973ffffffffffffffffffffffffffffffffffffffff1673ffffffffffffffffffffffffffffffffffffffff168152602001908152602001600020898154811061223e57fe5b9060005260206000209060040201600301828054600181600116156101000203166002900480601f0160208091040260200160405190810160405280929190818152602001828054600181600116156101000203166002900480156122e45780601f106122b9576101008083540402835291602001916122e4565b820191906000526020600020905b8154815290600101906020018083116122c757829003601f168201915b50505050509250818054600181600116156101000203166002900480601f0160208091040260200160405190810160405280929190818152602001828054600181600116156101000203166002900480156123805780601f1061235557610100808354040283529160200191612380565b820191906000526020600020905b81548152906001019060200180831161236357829003601f168201915b50505050509150808054600181600116156101000203166002900480601f01602080910402602001604051908101604052809291908181526020018280546001816001161561010002031660029004801561241c5780601f106123f15761010080835404028352916020019161241c565b820191906000526020600020905b8154815290600101906020018083116123ff57829003601f168201915b50505050509050935093509350935092959194509250565b80600180549050116124ae576040517f08c379a00000000000000000000000000000000000000000000000000000000081526004018080602001828103825260198152602001807f70726f7669646564206c6973742049642069732077726f6e670000000000000081525060200191505060405180910390fd5b60026000815481106124bc57fe5b9060005260206000200160000160003373ffffffffffffffffffffffffffffffffffffffff1673ffffffffffffffffffffffffffffffffffffffff16815260200190815260200160002060000160009054906101000a900460ff16151560011515148061255457508173ffffffffffffffffffffffffffffffffffffffff163373ffffffffffffffffffffffffffffffffffffffff16145b6125c6576040517f08c379a000000000000000000000000000000000000000000000000000000000815260040180806020018281038252601c8152602001807f4e6f7420616c6c6f77656420746f2072656d6f766520656e746974790000000081525060200191505060405180910390fd5b600281815481106125d357fe5b9060005260206000200160000160008373ffffffffffffffffffffffffffffffffffffffff1673ffffffffffffffffffffffffffffffffffffffff16815260200190815260200160002060000160009054906101000a900460ff16151560011515146126a7576040517f08c379a00000000000000000000000000000000000000000000000000000000081526004018080602001828103825260148152602001807f456e74697479206e6f742061637469766174656400000000000000000000000081525060200191505060405180910390fd5b600281815481106126b457fe5b9060005260206000200160000160008373ffffffffffffffffffffffffffffffffffffffff1673ffffffffffffffffffffffffffffffffffffffff16815260200190815260200160002060050160003373ffffffffffffffffffffffffffffffffffffffff1673ffffffffffffffffffffffffffffffffffffffff16815260200190815260200160002060009054906101000a900460ff16151560001515146127c5576040517f08c379a00000000000000000000000000000000000000000000000000000000081526004018080602001828103825260178152602001807f4f776e65722068617320616c726561647920766f74656400000000000000000081525060200191505060405180910390fd5b6001600282815481106127d457fe5b9060005260206000200160000160008473ffffffffffffffffffffffffffffffffffffffff1673ffffffffffffffffffffffffffffffffffffffff1681526020019081526020016000206004016000828254019250508190555060016002828154811061283d57fe5b9060005260206000200160000160008473ffffffffffffffffffffffffffffffffffffffff1673ffffffffffffffffffffffffffffffffffffffff16815260200190815260200160002060050160003373ffffffffffffffffffffffffffffffffffffffff1673ffffffffffffffffffffffffffffffffffffffff16815260200190815260200160002060006101000a81548160ff0219169083151502179055508173ffffffffffffffffffffffffffffffffffffffff163373ffffffffffffffffffffffffffffffffffffffff16148061297757506129766002828154811061292357fe5b9060005260206000200160000160008473ffffffffffffffffffffffffffffffffffffffff1673ffffffffffffffffffffffffffffffffffffffff168152602001908152602001600020600401546131d3565b5b15612ad9576002818154811061298957fe5b9060005260206000200160000160008373ffffffffffffffffffffffffffffffffffffffff1673ffffffffffffffffffffffffffffffffffffffff168152602001908152602001600020600080820160006101000a81549060ff02191690556001820160006129f8919061327f565b6002820160009055600482016000905550506001808281548110612a1857fe5b90600052602060002001600082825403925050819055508060001415612a8a577fdeb2fd983f5ea76ad0475f0a39a88d8c773f60fda03f8048cf465814bde26af382604051808273ffffffffffffffffffffffffffffffffffffffff16815260200191505060405180910390a1612ad8565b7f7fe3d1469180155418d41d4da2042f53bf3d76fdc4aab220f5d272e0699e4b6e82604051808273ffffffffffffffffffffffffffffffffffffffff16815260200191505060405180910390a15b5b5050565b8060018054905011612b57576040517f08c379a00000000000000000000000000000000000000000000000000000000081526004018080602001828103825260198152602001807f70726f7669646564206c6973742049642069732077726f6e670000000000000081525060200191505060405180910390fd5b6002600081548110612b6557fe5b9060005260206000200160000160003373ffffffffffffffffffffffffffffffffffffffff1673ffffffffffffffffffffffffffffffffffffffff16815260200190815260200160002060000160009054906101000a900460ff1615156001151514612c39576040517f08c379a000000000000000000000000000000000000000000000000000000000815260040180806020018281038252601b8152602001807f4e6f7420616c6c6f77656420746f2061646420656e746974696573000000000081525060200191505060405180910390fd5b60028181548110612c4657fe5b9060005260206000200160000160008473ffffffffffffffffffffffffffffffffffffffff1673ffffffffffffffffffffffffffffffffffffffff16815260200190815260200160002060000160009054906101000a900460ff1615156000151514612d1a576040517f08c379a00000000000000000000000000000000000000000000000000000000081526004018080602001828103825260188152602001807f456e7469747920616c726561647920616374697661746564000000000000000081525060200191505060405180910390fd5b60028181548110612d2757fe5b9060005260206000200160000160008473ffffffffffffffffffffffffffffffffffffffff1673ffffffffffffffffffffffffffffffffffffffff16815260200190815260200160002060030160003373ffffffffffffffffffffffffffffffffffffffff1673ffffffffffffffffffffffffffffffffffffffff16815260200190815260200160002060009054906101000a900460ff1615156000151514612e38576040517f08c379a00000000000000000000000000000000000000000000000000000000081526004018080602001828103825260178152602001807f4f776e65722068617320616c726561647920766f74656400000000000000000081525060200191505060405180910390fd5b60028181548110612e4557fe5b9060005260206000200160000160008473ffffffffffffffffffffffffffffffffffffffff1673ffffffffffffffffffffffffffffffffffffffff1681526020019081526020016000206002015460001415612f0b578160028281548110612ea957fe5b9060005260206000200160000160008573ffffffffffffffffffffffffffffffffffffffff1673ffffffffffffffffffffffffffffffffffffffff1681526020019081526020016000206001019080519060200190612f099291906131f1565b505b600160028281548110612f1a57fe5b9060005260206000200160000160008573ffffffffffffffffffffffffffffffffffffffff1673ffffffffffffffffffffffffffffffffffffffff16815260200190815260200160002060020160008282540192505081905550600160028281548110612f8357fe5b9060005260206000200160000160008573ffffffffffffffffffffffffffffffffffffffff1673ffffffffffffffffffffffffffffffffffffffff16815260200190815260200160002060030160003373ffffffffffffffffffffffffffffffffffffffff1673ffffffffffffffffffffffffffffffffffffffff16815260200190815260200160002060006101000a81548160ff0219169083151502179055506130876002828154811061303457fe5b9060005260206000200160000160008573ffffffffffffffffffffffffffffffffffffffff1673ffffffffffffffffffffffffffffffffffffffff168152602001908152602001600020600201546131d3565b156131ce5760016002828154811061309b57fe5b9060005260206000200160000160008573ffffffffffffffffffffffffffffffffffffffff1673ffffffffffffffffffffffffffffffffffffffff16815260200190815260200160002060000160006101000a81548160ff021916908315150217905550600180828154811061310d57fe5b9060005260206000200160008282540192505081905550806000141561317f577f68c1703cd1b1bd3a48da3e9a8712cf464730736862199903eac069e0b2e1ab2f83604051808273ffffffffffffffffffffffffffffffffffffffff16815260200191505060405180910390a16131cd565b7f4e682d2fe27aaaadc497c9446d76e9fad6e638e651d523202c138a0acc6ff52a83604051808273ffffffffffffffffffffffffffffffffffffffff16815260200191505060405180910390a15b5b505050565b600080548210156131e757600090506131ec565b600190505b919050565b828054600181600116156101000203166002900490600052602060002090601f016020900481019282613227576000855561326e565b82601f1061324057805160ff191683800117855561326e565b8280016001018555821561326e579182015b8281111561326d578251825591602001919060010190613252565b5b50905061327b919061339d565b5090565b50805460018160011615610100020316600290046000825580601f106132a557506132c4565b601f0160209004906000526020600020908101906132c3919061339d565b5b50565b50805460018160011615610100020316600290046000825580601f106132ed575061330c565b601f01602090049060005260206000209081019061330b919061339d565b5b50565b828054600181600116156101000203166002900490600052602060002090601f016020900481019282613345576000855561338c565b82601f1061335e57805160ff191683800117855561338c565b8280016001018555821561338c579182015b8281111561338b578251825591602001919060010190613370565b5b509050613399919061339d565b5090565b5b808211156133b657600081600090555060010161339e565b509056fe4e6f7420616c6c6f77656420746f20757064617465207468697320706172746963756c61722043657274696669636174654e6f7420616c6c6f77656420746f2072656d6f7665207468697320706172746963756c6172204365727469666963617465a2646970667358221220d0225081ea83ab4e54c942305a1484a4a9b99fba36d4a914033c30a2d7f1529864736f6c634300070600334e6f7420656e6f756768206f776e6572732070726f766964656420746f206d65657420746865206d696e4f776e65727320726571756972656d656e74",
  "immutableReferences": {},
  "source": "// SPDX-License-Identifier: GPL-3.0\r\n\r\npragma solidity >=0.7.0 <0.9.0;\r\n\r\n/**\r\n * @title Storage\r\n * @dev Store & retrieve value in a variable\r\n */\r\n\r\n/* \r\n Actors : Owners, Providers, Holders\r\n Token : Certificates\r\n\r\n 1- Owners manage any owner and any Provider\r\n 2- Providers manage only themselves and their own Certificates\r\n 3- Holders can remove their own Certificates\r\n\r\n Providers lifecycle\r\n    Provider Creation : Minimum Number Of Owner\r\n    Provider Update : Provider himself\r\n    Provider Remove : Minimum Number Of Owner or Provider himself\r\n\r\n Certificates lifecycle\r\n    Certificate Creation : Any Provider\r\n    Certificate Update : Only Provider that created Certificate\r\n    Certificate Remove : Only Provider that created Certificate or Holder himself    \r\n\r\n Owners lifecycle\r\n    Owner Creation : Minimum Number Of Owner\r\n    Owner Remove : Minimum Number Of Owner or Owner himself\r\n */\r\n\r\ncontract Certificates {\r\n    \r\n    event _AddProviderValidationIdEvent(address);\r\n    event _RemoveProviderValidationIdEvent(address);\r\n    event _AddOwnerValidationIdEvent(address);\r\n    event _RemoveOwnerValidationIdEvent(address);\r\n    event _AddCertificateIdEvent(address, address, uint256);\r\n    event _RemoveCertificateIdEvent(address, address, uint256);\r\n    event _UpdateCertificateIdEvent(address, address, uint256);\r\n    \r\n    struct _Certificate{\r\n        address _Provider;\r\n        string _CertificateContent;\r\n        string _CertificateLocation;\r\n        bytes _CertificateHash;\r\n    }\r\n\r\n    struct _entityIdentity{\r\n        bool _activated;\r\n        string _Info;\r\n        uint256 _addValidations;\r\n        mapping(address => bool) _AddValidated;\r\n        uint256 _removeValidations;\r\n        mapping(address => bool) _RemoveValidated;\r\n    }\r\n\r\n    struct _entityStruct{\r\n        mapping(address => _entityIdentity) _entities;\r\n    }\r\n\r\n    // Owners\r\n    uint256 constant _ownerId = 0;\r\n    uint256 _minOwners;\r\n\r\n    // Providers\r\n    uint256 constant _providerId = 1;\r\n\r\n    // Total Owners and Providers\r\n    uint256[] _numberOfEntities = new uint256[](2);\r\n    _entityStruct[] _certificateEntities;\r\n\r\n    // Holders\r\n    mapping(address => _Certificate[]) private _CertificatesPerHolder;\r\n    \r\n    // Constructor\r\n\r\n    constructor(address[] memory owners,  uint256 minOwners) payable{\r\n        require(minOwners <= owners.length, \"Not enough owners provided to meet the minOwners requirement\");\r\n        require(minOwners > 0, \"At least 1 minimum owner\");\r\n\r\n        _certificateEntities.push();\r\n        _certificateEntities.push();\r\n\r\n        _minOwners = minOwners;\r\n        for (uint i=0; i < owners.length; i++) {\r\n            _certificateEntities[_ownerId]._entities[owners[i]]._activated = true;\r\n            _numberOfEntities[_ownerId] += 1;  \r\n        }\r\n    }\r\n\r\n    function CheckValidations(uint256 fieldToValidate) private view returns(bool){\r\n        if(fieldToValidate < _minOwners) return false;\r\n        return true;\r\n    }\r\n\r\n    function addEntity(address entity, string memory entityInfo, uint listId) private  {\r\n        require(_numberOfEntities.length > listId, \"provided list Id is wrong\");\r\n        require(true == _certificateEntities[_ownerId]._entities[msg.sender]._activated, \"Not allowed to add entities\");\r\n        require(false == _certificateEntities[listId]._entities[entity]._activated, \"Entity already activated\");\r\n        require(false == _certificateEntities[listId]._entities[entity]._AddValidated[msg.sender], \"Owner has already voted\");\r\n\r\n        if(0 == _certificateEntities[listId]._entities[entity]._addValidations) _certificateEntities[listId]._entities[entity]._Info = entityInfo;\r\n        _certificateEntities[listId]._entities[entity]._addValidations += 1;\r\n        _certificateEntities[listId]._entities[entity]._AddValidated[msg.sender] = true;\r\n        if(CheckValidations(_certificateEntities[listId]._entities[entity]._addValidations)){\r\n            _certificateEntities[listId]._entities[entity]._activated = true;\r\n            _numberOfEntities[listId] += 1;\r\n            if(_ownerId == listId) emit _AddOwnerValidationIdEvent(entity);\r\n            else emit _AddProviderValidationIdEvent(entity); \r\n        }\r\n    }\r\n\r\n    function removeEntity(address entity, uint listId) private {\r\n        require(_numberOfEntities.length > listId, \"provided list Id is wrong\");\r\n       require(true == _certificateEntities[_ownerId]._entities[msg.sender]._activated || msg.sender == entity, \"Not allowed to remove entity\");\r\n       require(true == _certificateEntities[listId]._entities[entity]._activated, \"Entity not activated\");\r\n       require(false == _certificateEntities[listId]._entities[entity]._RemoveValidated[msg.sender], \"Owner has already voted\");\r\n\r\n       _certificateEntities[listId]._entities[entity]._removeValidations += 1;\r\n        _certificateEntities[listId]._entities[entity]._RemoveValidated[msg.sender] = true;\r\n        if(msg.sender == entity || CheckValidations(_certificateEntities[listId]._entities[entity]._removeValidations)){\r\n            delete(_certificateEntities[listId]._entities[entity]);\r\n            _numberOfEntities[listId] -= 1;\r\n            if(_ownerId == listId) emit _RemoveOwnerValidationIdEvent(entity);\r\n            else emit _RemoveProviderValidationIdEvent(entity); \r\n        }  \r\n       \r\n    }\r\n    \r\n    // PROVIDERS CRUD Operations\r\n    function addProvider(address provider, string memory providerInfo) external {\r\n       addEntity(provider, providerInfo, _providerId);  \r\n    }\r\n\r\n    function removeProvider(address provider) public {\r\n       removeEntity(provider, _providerId); \r\n    }\r\n    \r\n    function updateProvider(address provider, string memory providerInfo) public {\r\n       require(msg.sender == provider, \"Not allowed to update providers\");\r\n       require(true == _certificateEntities[_providerId]._entities[provider]._activated, \"Provider not activated\") ;\r\n\r\n       _certificateEntities[_providerId]._entities[provider]._Info = providerInfo;\r\n    }\r\n    \r\n    function retrieveProvider(address provider) public view returns (string memory){\r\n        require(true == _certificateEntities[_providerId]._entities[provider]._activated, \"Provider does not exist\");\r\n\r\n        return _certificateEntities[_providerId]._entities[provider]._Info;\r\n    }\r\n    \r\n    function retrieveTotalProviders() public view returns (uint){\r\n        return (_numberOfEntities[_providerId]);\r\n    }\r\n    \r\n    // Certificats CRUD Operations\r\n\r\n    function addCertificate(string memory CertificateContent, string memory CertificateLocation, bytes memory CertificateHash, address holder) public {\r\n        require(true == _certificateEntities[_providerId]._entities[msg.sender]._activated, \"Not allowed to add Certificates\");\r\n        require(0 < CertificateHash.length && (0 < bytes(CertificateLocation).length || 0 < bytes(CertificateContent).length), \"Certificate is empty\");\r\n\r\n        _CertificatesPerHolder[holder].push(_Certificate(msg.sender, CertificateContent, CertificateLocation, CertificateHash));\r\n        uint256 Id = _CertificatesPerHolder[holder].length - 1;\r\n        emit _AddCertificateIdEvent(msg.sender, holder, Id);\r\n    }\r\n    \r\n    function removeCertificate(uint256 CertificateId, address holder) public {\r\n        require(CertificateId < _CertificatesPerHolder[holder].length, \"Certificate does not exist\");\r\n        require(msg.sender == _CertificatesPerHolder[holder][CertificateId]._Provider || msg.sender == holder, \"Not allowed to remove this particular Certificate\");\r\n\r\n        address provider = _CertificatesPerHolder[holder][CertificateId]._Provider;\r\n        delete _CertificatesPerHolder[holder][CertificateId];\r\n        emit _RemoveCertificateIdEvent(provider, holder, CertificateId);\r\n\r\n    }\r\n    \r\n    function updateCertificate(uint256 CertificateId, address holder, string memory CertificateContent, string memory CertificateLocation, bytes memory CertificateHash) public {\r\n       require(CertificateId < _CertificatesPerHolder[holder].length, \"Certificate does not exist\");\r\n       require(msg.sender == _CertificatesPerHolder[holder][CertificateId]._Provider, \"Not allowed to update this particular Certificate\");\r\n\r\n       if(0 < bytes(CertificateContent).length)  _CertificatesPerHolder[holder][CertificateId]._CertificateContent = CertificateContent;\r\n       if(0 < bytes(CertificateLocation).length)  _CertificatesPerHolder[holder][CertificateId]._CertificateLocation = CertificateLocation;\r\n       if(0 < bytes(CertificateHash).length)  _CertificatesPerHolder[holder][CertificateId]._CertificateHash = CertificateHash;\r\n\r\n       emit _UpdateCertificateIdEvent(_CertificatesPerHolder[holder][CertificateId]._Provider, holder, CertificateId);\r\n    }\r\n\r\n    function retrieveCertificate(uint256 CertificateId, address holder) public view returns (address, string memory, string memory, bytes memory){\r\n        require(CertificateId < _CertificatesPerHolder[holder].length, \"Certificate does not exist\");\r\n\r\n        return (_CertificatesPerHolder[holder][CertificateId]._Provider, \r\n            _CertificatesPerHolder[holder][CertificateId]._CertificateContent,\r\n            _CertificatesPerHolder[holder][CertificateId]._CertificateLocation,\r\n            _CertificatesPerHolder[holder][CertificateId]._CertificateHash);\r\n    }\r\n\r\n    function retrieveTotalCertificatesByHolder(address holder) public view returns (uint256){\r\n        return (_CertificatesPerHolder[holder].length);\r\n    }\r\n\r\n    function retrieveTotalCertificatesByProviderAndHolder(address provider, address holder) public view returns (uint){\r\n        uint Total = 0;\r\n\r\n        for(uint i=0; i < _CertificatesPerHolder[holder].length; i++){\r\n            if(_CertificatesPerHolder[holder][i]._Provider == provider){\r\n                Total += 1;\r\n            }\r\n        }\r\n\r\n        return (Total);\r\n    }\r\n\r\n    function retrieveCertificatesByProviderAndHolder(address provider, address holder) public view returns (uint256[] memory){\r\n        uint[] memory ListOfCertificatesIdByProviderAndHolder = new uint[](retrieveTotalCertificatesByProviderAndHolder(provider, holder));\r\n        uint counter = 0;\r\n\r\n        for(uint i=0; i < _CertificatesPerHolder[holder].length; i++){\r\n            if(_CertificatesPerHolder[holder][i]._Provider == provider){\r\n                ListOfCertificatesIdByProviderAndHolder[counter] = i;\r\n                counter += 1;\r\n            }\r\n        }\r\n\r\n        return (ListOfCertificatesIdByProviderAndHolder);\r\n    }\r\n\r\n\r\n    // OWNERS CRD Operations\r\n\r\n    function addOwner(address owner, string memory ownerInfo) public {\r\n        addEntity(owner, ownerInfo, _ownerId);\r\n    }\r\n    \r\n    function removeOwner(address owner) public {\r\n        removeEntity(owner, _ownerId);\r\n    }\r\n\r\n    function isOwner(address owner) public view returns (bool){\r\n        return(_certificateEntities[_ownerId]._entities[owner]._activated);\r\n    }\r\n \r\n    function retrieveTotalOwners() public view returns (uint){\r\n        return (_numberOfEntities[_ownerId]);\r\n    }\r\n\r\n}",
  "sourcePath": "C:\\Users\\d-aam\\GitHub\\Certificates\\contracts\\Certificates.sol",
  "compiler": {
    "name": "solc",
    "version": "0.7.6+commit.7338295f.Emscripten.clang"
  },
  "schemaVersion": "3.3.4",
  "updatedAt": "2021-05-05T14:32:06.198Z",
  "devdoc": {
    "details": "Store & retrieve value in a variable",
    "kind": "dev",
    "methods": {},
    "title": "Storage",
    "version": 1
  },
  "userdoc": {
    "kind": "user",
    "methods": {},
    "version": 1
  }
}