{
  "contractName": "CertificatesPoolManager",
  "abi": [
    {
      "inputs": [
        {
          "internalType": "uint256",
          "name": "PropositionLifeTime",
          "type": "uint256"
        },
        {
          "internalType": "uint8",
          "name": "PropositionThresholdPercentage",
          "type": "uint8"
        },
        {
          "internalType": "uint8",
          "name": "minWeightToProposePercentage",
          "type": "uint8"
        }
      ],
      "stateMutability": "nonpayable",
      "type": "constructor"
    },
    {
      "anonymous": false,
      "inputs": [
        {
          "indexed": false,
          "internalType": "uint256",
          "name": "",
          "type": "uint256"
        },
        {
          "indexed": true,
          "internalType": "address",
          "name": "",
          "type": "address"
        },
        {
          "indexed": false,
          "internalType": "uint256",
          "name": "",
          "type": "uint256"
        },
        {
          "indexed": false,
          "internalType": "uint256",
          "name": "",
          "type": "uint256"
        }
      ],
      "name": "_AddedProposition",
      "type": "event"
    },
    {
      "anonymous": false,
      "inputs": [
        {
          "indexed": false,
          "internalType": "uint256",
          "name": "",
          "type": "uint256"
        },
        {
          "indexed": true,
          "internalType": "address",
          "name": "",
          "type": "address"
        }
      ],
      "name": "_CancelledProposition",
      "type": "event"
    },
    {
      "anonymous": false,
      "inputs": [
        {
          "indexed": false,
          "internalType": "address",
          "name": "",
          "type": "address"
        },
        {
          "indexed": false,
          "internalType": "address",
          "name": "",
          "type": "address"
        },
        {
          "indexed": false,
          "internalType": "address",
          "name": "",
          "type": "address"
        },
        {
          "indexed": false,
          "internalType": "address",
          "name": "",
          "type": "address"
        },
        {
          "indexed": false,
          "internalType": "address",
          "name": "",
          "type": "address"
        },
        {
          "indexed": false,
          "internalType": "address",
          "name": "",
          "type": "address"
        },
        {
          "indexed": false,
          "internalType": "address",
          "name": "",
          "type": "address"
        }
      ],
      "name": "_NewContracts",
      "type": "event"
    },
    {
      "anonymous": false,
      "inputs": [
        {
          "indexed": false,
          "internalType": "uint256",
          "name": "",
          "type": "uint256"
        },
        {
          "indexed": true,
          "internalType": "address",
          "name": "",
          "type": "address"
        },
        {
          "indexed": false,
          "internalType": "uint256",
          "name": "",
          "type": "uint256"
        },
        {
          "indexed": false,
          "internalType": "uint256",
          "name": "",
          "type": "uint256"
        }
      ],
      "name": "_PropositionApproved",
      "type": "event"
    },
    {
      "anonymous": false,
      "inputs": [
        {
          "indexed": false,
          "internalType": "uint256",
          "name": "",
          "type": "uint256"
        },
        {
          "indexed": true,
          "internalType": "address",
          "name": "",
          "type": "address"
        },
        {
          "indexed": false,
          "internalType": "uint256",
          "name": "",
          "type": "uint256"
        },
        {
          "indexed": false,
          "internalType": "uint256",
          "name": "",
          "type": "uint256"
        }
      ],
      "name": "_PropositionRejected",
      "type": "event"
    },
    {
      "anonymous": false,
      "inputs": [
        {
          "indexed": false,
          "internalType": "uint256",
          "name": "",
          "type": "uint256"
        },
        {
          "indexed": true,
          "internalType": "address",
          "name": "",
          "type": "address"
        },
        {
          "indexed": false,
          "internalType": "bool",
          "name": "",
          "type": "bool"
        },
        {
          "indexed": false,
          "internalType": "uint256",
          "name": "",
          "type": "uint256"
        }
      ],
      "name": "_PropositionVote",
      "type": "event"
    },
    {
      "anonymous": false,
      "inputs": [
        {
          "indexed": true,
          "internalType": "uint256",
          "name": "",
          "type": "uint256"
        },
        {
          "indexed": false,
          "internalType": "address",
          "name": "",
          "type": "address"
        },
        {
          "indexed": false,
          "internalType": "address",
          "name": "",
          "type": "address"
        },
        {
          "indexed": false,
          "internalType": "uint256",
          "name": "",
          "type": "uint256"
        }
      ],
      "name": "_UsedTokensTransfered",
      "type": "event"
    },
    {
      "inputs": [],
      "name": "cancelProposition",
      "outputs": [],
      "stateMutability": "nonpayable",
      "type": "function"
    },
    {
      "inputs": [
        {
          "internalType": "address",
          "name": "from",
          "type": "address"
        },
        {
          "internalType": "address",
          "name": "to",
          "type": "address"
        },
        {
          "internalType": "uint256",
          "name": "amount",
          "type": "uint256"
        }
      ],
      "name": "onTokenBalanceChanged",
      "outputs": [],
      "stateMutability": "nonpayable",
      "type": "function"
    },
    {
      "inputs": [],
      "name": "retrievePropConfig",
      "outputs": [
        {
          "internalType": "uint256",
          "name": "",
          "type": "uint256"
        },
        {
          "internalType": "uint8",
          "name": "",
          "type": "uint8"
        },
        {
          "internalType": "uint8",
          "name": "",
          "type": "uint8"
        }
      ],
      "stateMutability": "view",
      "type": "function"
    },
    {
      "inputs": [],
      "name": "retrievePropositionStatus",
      "outputs": [
        {
          "internalType": "address",
          "name": "",
          "type": "address"
        },
        {
          "internalType": "uint256",
          "name": "",
          "type": "uint256"
        },
        {
          "internalType": "uint256",
          "name": "",
          "type": "uint256"
        },
        {
          "internalType": "uint256",
          "name": "",
          "type": "uint256"
        },
        {
          "internalType": "uint256",
          "name": "",
          "type": "uint256"
        }
      ],
      "stateMutability": "view",
      "type": "function"
    },
    {
      "inputs": [
        {
          "internalType": "uint256",
          "name": "PropLifeTime",
          "type": "uint256"
        },
        {
          "internalType": "uint8",
          "name": "PropThresholdPerc",
          "type": "uint8"
        },
        {
          "internalType": "uint8",
          "name": "minWeightToPropPerc",
          "type": "uint8"
        }
      ],
      "name": "updateProp",
      "outputs": [],
      "stateMutability": "nonpayable",
      "type": "function"
    },
    {
      "inputs": [
        {
          "internalType": "bool",
          "name": "vote",
          "type": "bool"
        }
      ],
      "name": "voteProposition",
      "outputs": [],
      "stateMutability": "nonpayable",
      "type": "function"
    },
    {
      "inputs": [
        {
          "components": [
            {
              "internalType": "address payable",
              "name": "PublicPoolProxyAddress",
              "type": "address"
            },
            {
              "internalType": "address payable",
              "name": "TreasuryProxyAddress",
              "type": "address"
            },
            {
              "internalType": "address payable",
              "name": "CertisTokenProxyAddress",
              "type": "address"
            },
            {
              "internalType": "address payable",
              "name": "PrivatePoolFactoryProxyAddress",
              "type": "address"
            },
            {
              "internalType": "address",
              "name": "PrivateCertificatePoolImplAddress",
              "type": "address"
            },
            {
              "internalType": "address payable",
              "name": "ProviderFactoryProxyAddress",
              "type": "address"
            },
            {
              "internalType": "address",
              "name": "ProviderImplAddress",
              "type": "address"
            }
          ],
          "internalType": "struct Library.InitialContractsStruct",
          "name": "initialContracts",
          "type": "tuple"
        }
      ],
      "name": "InitializeContracts",
      "outputs": [],
      "stateMutability": "nonpayable",
      "type": "function"
    },
    {
      "inputs": [
        {
          "components": [
            {
              "internalType": "address",
              "name": "NewPublicPoolAddress",
              "type": "address"
            },
            {
              "internalType": "address",
              "name": "NewTreasuryAddress",
              "type": "address"
            },
            {
              "internalType": "address",
              "name": "NewCertisTokenAddress",
              "type": "address"
            },
            {
              "internalType": "address",
              "name": "NewPrivatePoolFactoryAddress",
              "type": "address"
            },
            {
              "internalType": "address",
              "name": "NewPrivatePoolAddress",
              "type": "address"
            },
            {
              "internalType": "address",
              "name": "NewProviderFactoryAddress",
              "type": "address"
            },
            {
              "internalType": "address",
              "name": "NewProviderAddress",
              "type": "address"
            },
            {
              "internalType": "bytes",
              "name": "NewPublicPoolData",
              "type": "bytes"
            },
            {
              "internalType": "bytes",
              "name": "NewTreasuryData",
              "type": "bytes"
            },
            {
              "internalType": "bytes",
              "name": "NewCertisTokenData",
              "type": "bytes"
            },
            {
              "internalType": "bytes",
              "name": "NewPrivatePoolFactoryData",
              "type": "bytes"
            },
            {
              "internalType": "bytes",
              "name": "NewProviderFactoryData",
              "type": "bytes"
            }
          ],
          "internalType": "struct Library.ProposedContractsStruct",
          "name": "UpgradeProposition",
          "type": "tuple"
        }
      ],
      "name": "upgradeContracts",
      "outputs": [],
      "stateMutability": "nonpayable",
      "type": "function"
    },
    {
      "inputs": [],
      "name": "retrieveProposition",
      "outputs": [
        {
          "internalType": "bytes32[]",
          "name": "",
          "type": "bytes32[]"
        }
      ],
      "stateMutability": "view",
      "type": "function"
    },
    {
      "inputs": [],
      "name": "retrievePublicCertificatePoolProxy",
      "outputs": [
        {
          "internalType": "address",
          "name": "",
          "type": "address"
        }
      ],
      "stateMutability": "view",
      "type": "function"
    },
    {
      "inputs": [],
      "name": "retrieveTreasuryProxy",
      "outputs": [
        {
          "internalType": "address",
          "name": "",
          "type": "address"
        }
      ],
      "stateMutability": "view",
      "type": "function"
    },
    {
      "inputs": [],
      "name": "retrieveCertisTokenProxy",
      "outputs": [
        {
          "internalType": "address",
          "name": "",
          "type": "address"
        }
      ],
      "stateMutability": "view",
      "type": "function"
    },
    {
      "inputs": [],
      "name": "retrievePrivatePoolFactoryProxy",
      "outputs": [
        {
          "internalType": "address",
          "name": "",
          "type": "address"
        }
      ],
      "stateMutability": "view",
      "type": "function"
    },
    {
      "inputs": [],
      "name": "retrievePrivatePoolBeacon",
      "outputs": [
        {
          "internalType": "address",
          "name": "",
          "type": "address"
        }
      ],
      "stateMutability": "view",
      "type": "function"
    },
    {
      "inputs": [],
      "name": "retrieveProviderFactoryProxy",
      "outputs": [
        {
          "internalType": "address",
          "name": "",
          "type": "address"
        }
      ],
      "stateMutability": "view",
      "type": "function"
    },
    {
      "inputs": [],
      "name": "retrieveProviderBeacon",
      "outputs": [
        {
          "internalType": "address",
          "name": "",
          "type": "address"
        }
      ],
      "stateMutability": "view",
      "type": "function"
    },
    {
      "inputs": [],
      "name": "retrievePublicCertificatePool",
      "outputs": [
        {
          "internalType": "address",
          "name": "",
          "type": "address"
        }
      ],
      "stateMutability": "view",
      "type": "function"
    },
    {
      "inputs": [],
      "name": "retrieveTreasury",
      "outputs": [
        {
          "internalType": "address",
          "name": "",
          "type": "address"
        }
      ],
      "stateMutability": "view",
      "type": "function"
    },
    {
      "inputs": [],
      "name": "retrieveCertisToken",
      "outputs": [
        {
          "internalType": "address",
          "name": "",
          "type": "address"
        }
      ],
      "stateMutability": "view",
      "type": "function"
    },
    {
      "inputs": [],
      "name": "retrievePrivatePoolFactory",
      "outputs": [
        {
          "internalType": "address",
          "name": "",
          "type": "address"
        }
      ],
      "stateMutability": "view",
      "type": "function"
    },
    {
      "inputs": [],
      "name": "retrievePrivatePool",
      "outputs": [
        {
          "internalType": "address",
          "name": "",
          "type": "address"
        }
      ],
      "stateMutability": "view",
      "type": "function"
    },
    {
      "inputs": [],
      "name": "retrieveProviderFactory",
      "outputs": [
        {
          "internalType": "address",
          "name": "",
          "type": "address"
        }
      ],
      "stateMutability": "view",
      "type": "function"
    },
    {
      "inputs": [],
      "name": "retrieveProvider",
      "outputs": [
        {
          "internalType": "address",
          "name": "",
          "type": "address"
        }
      ],
      "stateMutability": "view",
      "type": "function"
    },
    {
      "inputs": [],
      "name": "isInitialized",
      "outputs": [
        {
          "internalType": "bool",
          "name": "",
          "type": "bool"
        }
      ],
      "stateMutability": "view",
      "type": "function"
    }
  ],
  "bytecode": "0x60806040523480156200001157600080fd5b5060405162003a4b38038062003a4b833981016040819052620000349162000818565b6200004e83838333306200006460201b62000e0b1760201c565b50506020805460ff60a01b191690555062000996565b600054610100900460ff16806200007e575060005460ff16155b620000a65760405162461bcd60e51b81526004016200009d9062000859565b60405180910390fd5b600054610100900460ff16158015620000c9576000805461ffff19166101011790555b620000df826200012b60201b62000ebe1760201c565b600180546001600160a01b0319166001600160a01b03851617815560006008556200011090879087908790620001c0565b801562000123576000805461ff00191690555b505050505050565b600054610100900460ff168062000145575060005460ff16155b620001645760405162461bcd60e51b81526004016200009d9062000859565b600054610100900460ff1615801562000187576000805461ffff19166101011790555b6000805462010000600160b01b031916620100006001600160a01b038516021790558015620001bc576000805461ff00191690555b5050565b82828160ff1660641015620001e95760405162461bcd60e51b81526004016200009d90620008a7565b8060ff1660641015620002105760405162461bcd60e51b81526004016200009d90620008a7565b82156200023d57600a869055600b805460ff8681166101000261ffff199092169088161717905562000123565b600c869055600d805460ff8681166101000261ffff1990921690881617179055600b805462ff0000191662010000179055600a546200012390620002829042620008c5565b600b5460ff16600062000294620003cc565b15620002cc5760405162461bcd60e51b81526004016200009d906020808252600490820152631150cc8d60e21b604082015260600190565b620002d73362000431565b1515600114620003135760405162461bcd60e51b81526004016200009d9060208082526004908201526322a1991960e11b604082015260600190565b600380546001600160a01b031916331790556004839055606460ff83166200033a620004b0565b62000346919062000903565b620003529190620008e0565b6005556008805460028190559060006200036c8362000962565b909155505060035460025460045460055460408051938452602084019290925282820152516001600160a01b03909216917f472501d19bf75639b2e316cd36f8568b0c3ab943b82a87de3c086c98c1929df99181900360600190a2505050565b600454600090421015620003e05750600190565b6003546001600160a01b0316156200042b57620003fc620005b4565b6200042b60006002819055600380546001600160a01b0319169055600481905560058190556006819055600755565b50600090565b6001546000906001600160a01b03838116911614156200045357506001919050565b60006200046083620005c0565b905060646200046e620004b0565b600b54620004859190610100900460ff1662000903565b620004919190620008e0565b811115620004a25750600192915050565b50600092915050565b919050565b60008060029054906101000a90046001600160a01b03166001600160a01b031663da3dce266040518163ffffffff1660e01b815260040160206040518083038186803b1580156200050057600080fd5b505afa15801562000515573d6000803e3d6000fd5b505050506040513d601f19601f820116820180604052508101906200053b9190620007cc565b6001600160a01b03166318160ddd6040518163ffffffff1660e01b815260040160206040518083038186803b1580156200057457600080fd5b505afa15801562000589573d6000803e3d6000fd5b505050506040513d601f19601f82011682018060405250810190620005af9190620007fe565b905090565b620005be620006d0565b565b60008060029054906101000a90046001600160a01b03166001600160a01b031663da3dce266040518163ffffffff1660e01b815260040160206040518083038186803b1580156200061057600080fd5b505afa15801562000625573d6000803e3d6000fd5b505050506040513d601f19601f820116820180604052508101906200064b9190620007cc565b6040516370a0823160e01b81526001600160a01b03848116600483015291909116906370a082319060240160206040518083038186803b1580156200068f57600080fd5b505afa158015620006a4573d6000803e3d6000fd5b505050506040513d601f19601f82011682018060405250810190620006ca9190620007fe565b92915050565b600e80546001600160a01b03199081168255600f80548216905560108054821690556011805482169055601280548216905560138054821690556014805490911690556000620007226015826200075d565b620007326008830160006200075d565b620007426009830160006200075d565b62000752600a830160006200075d565b620001bc600b830160005b5080546200076b9062000925565b6000825580601f106200077c575050565b601f0160209004906000526020600020908101906200079c91906200079f565b50565b5b80821115620007b65760008155600101620007a0565b5090565b805160ff81168114620004ab57600080fd5b600060208284031215620007df57600080fd5b81516001600160a01b0381168114620007f757600080fd5b9392505050565b6000602082840312156200081157600080fd5b5051919050565b6000806000606084860312156200082e57600080fd5b835192506200084060208501620007ba565b91506200085060408501620007ba565b90509250925092565b6020808252602e908201527f496e697469616c697a61626c653a20636f6e747261637420697320616c72656160408201526d191e481a5b9a5d1a585b1a5e995960921b606082015260800190565b6020808252600490820152634543323160e01b604082015260600190565b60008219821115620008db57620008db62000980565b500190565b600082620008fe57634e487b7160e01b600052601260045260246000fd5b500490565b600081600019048311821515161562000920576200092062000980565b500290565b600181811c908216806200093a57607f821691505b602082108114156200095c57634e487b7160e01b600052602260045260246000fd5b50919050565b600060001982141562000979576200097962000980565b5060010190565b634e487b7160e01b600052601160045260246000fd5b6130a580620009a66000396000f3fe60806040523480156200001157600080fd5b5060043610620001425760003560e01c8063029b9673146200014757806322d929e11462000169578063392e53cd14620001735780633c65d42714620001915780633c7df55d14620001a35780634b19aa1614620001bc57806355457ee914620001c65780635773bc2314620001d05780635a3794e914620001e25780636771717714620001f45780637c2364a914620001fe5780637c2f3aaf1462000215578063840f6d1714620002275780638f8907f7146200026957806391f916711462000280578063a42e13391462000297578063a93316f514620002a1578063aa33380a14620002ba578063ac2bb44214620002cc578063c50ec82b14620002e3578063d660ab3414620002ed578063da3dce26146200031a578063efd15d17146200032c578063f5ad9acc1462000336575b600080fd5b6200015162000348565b60405162000160919062002543565b60405180910390f35b6200015162000359565b602054600160a01b900460ff16604051901515815260200162000160565b601a546001600160a01b031662000151565b620001ba620001b43660046200240b565b62000365565b005b62000151620004ba565b620001ba620004c6565b601c546001600160a01b031662000151565b601f546001600160a01b031662000151565b6200015162000604565b620001ba6200020f366004620024c4565b62000610565b601b546001600160a01b031662000151565b600354600454600554600654600754604080516001600160a01b0390961686526020860194909452928401919091526060830152608082015260a00162000160565b620001ba6200027a366004620024ab565b62000644565b620001ba6200029136600462002451565b62000763565b620001516200089c565b620002ab620008a8565b604051620001609190620025f4565b601e546001600160a01b031662000151565b620001ba620002dd36600462002502565b62000de4565b6200015162000df3565b600a54600b546040805192835260ff80831660208501526101009092049091169082015260600162000160565b6020546001600160a01b031662000151565b6200015162000dff565b601d546001600160a01b031662000151565b60006200035462000f53565b905090565b60006200035462000fd3565b73__Library_______________________________63d1d719d0600060029054906101000a90046001600160a01b03166001600160a01b031663da3dce266040518163ffffffff1660e01b815260040160206040518083038186803b158015620003ce57600080fd5b505afa158015620003e3573d6000803e3d6000fd5b505050506040513d601f19601f82011682018060405250810190620004099190620023eb565b6040518263ffffffff1660e01b815260040162000427919062002543565b60206040518083038186803b1580156200044057600080fd5b505af415801562000455573d6000803e3d6000fd5b505050506040513d601f19601f820116820180604052508101906200047b919062002471565b1515600114620004a85760405162461bcd60e51b81526004016200049f90620026e2565b60405180910390fd5b620004b583838362001019565b505050565b60006200035462001026565b6001620004d26200106c565b1515600114620004f65760405162461bcd60e51b81526004016200049f90620026a6565b600354604051630d1d719d60e41b815273__Library_______________________________9163d1d719d0916200053a916001600160a01b03169060040162002543565b60206040518083038186803b1580156200055357600080fd5b505af415801562000568573d6000803e3d6000fd5b505050506040513d601f19601f820116820180604052508101906200058e919062002471565b1515600114620005b25760405162461bcd60e51b81526004016200049f906200263a565b620005bc620010ac565b6003546002546040519081526001600160a01b03909116907f1fe8aec10c0a50fa765076161e08c1f961ced69594ff45cf7d559f593afe14799060200160405180910390a250565b600062000354620010d7565b80600e6200061f8282620029bc565b5050600a54620006419062000635904262002765565b600b5460ff166200111d565b50565b600154604051630d1d719d60e41b815273__Library_______________________________9163d1d719d09162000688916001600160a01b03169060040162002543565b60206040518083038186803b158015620006a157600080fd5b505af4158015620006b6573d6000803e3d6000fd5b505050506040513d601f19601f82011682018060405250810190620006dc919062002471565b1515600114620007005760405162461bcd60e51b81526004016200049f90620026e2565b602054600160a01b900460ff1615620007455760405162461bcd60e51b81526004016200049f9060208082526004908201526322a1991b60e11b604082015260600190565b6020805460ff60a01b1916600160a01b179055620006418162001247565b60016200076f6200106c565b1515600114620007935760405162461bcd60e51b81526004016200049f90620026a6565b620007a43360026000015462001415565b1515600114620007e05760405162461bcd60e51b81526004016200049f906020808252600490820152634543323360e01b604082015260600190565b6000620007f3336002600001546200142e565b905082156200081f57806002600401600082825462000813919062002765565b909155506200083c9050565b806002600501600082825462000836919062002765565b90915550505b6002546200084c9033836200146f565b600254604080519182528415156020830152810182905233907f50f654d58981575c05e369cb129aeacb01e1b036af429380242cfc5d1a4b743f9060600160405180910390a2620004b5620014ad565b60006200035462001605565b6040805160078082526101008201909252606091600091906020820160e0803683375050600e5460405163bc215e8560e01b815292935073__AddressLibrary________________________9263bc215e85925062000914916001600160a01b03169060040162002543565b60206040518083038186803b1580156200092d57600080fd5b505af415801562000942573d6000803e3d6000fd5b505050506040513d601f19601f8201168201806040525081019062000968919062002491565b816000815181106200097e576200097e62002961565b6020908102919091010152600f5460405163bc215e8560e01b815273__AddressLibrary________________________9163bc215e8591620009cd916001600160a01b03169060040162002543565b60206040518083038186803b158015620009e657600080fd5b505af4158015620009fb573d6000803e3d6000fd5b505050506040513d601f19601f8201168201806040525081019062000a21919062002491565b8160018151811062000a375762000a3762002961565b602090810291909101015260105460405163bc215e8560e01b815273__AddressLibrary________________________9163bc215e859162000a86916001600160a01b03169060040162002543565b60206040518083038186803b15801562000a9f57600080fd5b505af415801562000ab4573d6000803e3d6000fd5b505050506040513d601f19601f8201168201806040525081019062000ada919062002491565b8160028151811062000af05762000af062002961565b602090810291909101015260115460405163bc215e8560e01b815273__AddressLibrary________________________9163bc215e859162000b3f916001600160a01b03169060040162002543565b60206040518083038186803b15801562000b5857600080fd5b505af415801562000b6d573d6000803e3d6000fd5b505050506040513d601f19601f8201168201806040525081019062000b93919062002491565b8160038151811062000ba95762000ba962002961565b602090810291909101015260125460405163bc215e8560e01b815273__AddressLibrary________________________9163bc215e859162000bf8916001600160a01b03169060040162002543565b60206040518083038186803b15801562000c1157600080fd5b505af415801562000c26573d6000803e3d6000fd5b505050506040513d601f19601f8201168201806040525081019062000c4c919062002491565b8160048151811062000c625762000c6262002961565b602090810291909101015260135460405163bc215e8560e01b815273__AddressLibrary________________________9163bc215e859162000cb1916001600160a01b03169060040162002543565b60206040518083038186803b15801562000cca57600080fd5b505af415801562000cdf573d6000803e3d6000fd5b505050506040513d601f19601f8201168201806040525081019062000d05919062002491565b8160058151811062000d1b5762000d1b62002961565b602090810291909101015260145460405163bc215e8560e01b815273__AddressLibrary________________________9163bc215e859162000d6a916001600160a01b03169060040162002543565b60206040518083038186803b15801562000d8357600080fd5b505af415801562000d98573d6000803e3d6000fd5b505050506040513d601f19601f8201168201806040525081019062000dbe919062002491565b8160068151811062000dd45762000dd462002961565b6020908102919091010152919050565b620004b583838360006200164b565b6000620003546200170d565b60006200035462001753565b600054610100900460ff168062000e25575060005460ff16155b62000e445760405162461bcd60e51b81526004016200049f9062002658565b600054610100900460ff1615801562000e67576000805461ffff19166101011790555b62000e728262000ebe565b600180546001600160a01b0319166001600160a01b038516178155600060085562000ea3908790879087906200164b565b801562000eb6576000805461ff00191690555b505050505050565b600054610100900460ff168062000ed8575060005460ff16155b62000ef75760405162461bcd60e51b81526004016200049f9062002658565b600054610100900460ff1615801562000f1a576000805461ffff19166101011790555b6000805462010000600160b01b031916620100006001600160a01b03851602179055801562000f4f576000805461ff00191690555b5050565b602080546040805163dc4ff91360e01b815290516000936001600160a01b039093169263dc4ff9139260048082019391829003018186803b15801562000f9857600080fd5b505afa15801562000fad573d6000803e3d6000fd5b505050506040513d601f19601f82011682018060405250810190620003549190620023eb565b601c546040805163dc4ff91360e01b815290516000926001600160a01b03169163dc4ff913916004808301926020929190829003018186803b15801562000f9857600080fd5b620004b583838362001799565b601d5460408051635c60da1b60e01b815290516000926001600160a01b031691635c60da1b916004808301926020929190829003018186803b15801562000f9857600080fd5b600454600090421015620010805750600190565b6003546001600160a01b031615620010a6576200109c620017bb565b620010a6620010ac565b50600090565b60006002819055600380546001600160a01b0319169055600481905560058190556006819055600755565b601a546040805163dc4ff91360e01b815290516000926001600160a01b03169163dc4ff913916004808301926020929190829003018186803b15801562000f9857600080fd5b6000620011296200106c565b15620011615760405162461bcd60e51b81526004016200049f906020808252600490820152631150cc8d60e21b604082015260600190565b6200116c33620017c5565b1515600114620011905760405162461bcd60e51b81526004016200049f906200263a565b600380546001600160a01b031916331790556004839055606460ff8316620011b762001844565b620011c39190620027a3565b620011cf919062002780565b600555600880546002819055906000620011e9836200292d565b90915550506003546002546004546005546040516001600160a01b03909416937f472501d19bf75639b2e316cd36f8568b0c3ab943b82a87de3c086c98c1929df9936200123a9390929091620026ff565b60405180910390a2505050565b620012566020820182620023cb565b601e80546001600160a01b0319166001600160a01b0392909216919091179055620012886040820160208301620023cb565b601f80546001600160a01b0319166001600160a01b0392909216919091179055620012ba6060820160408301620023cb565b602080546001600160a01b0319166001600160a01b0392909216919091179055620012ec6080820160608301620023cb565b601a80546001600160a01b0319166001600160a01b03929092169190911790556200131e60a0820160808301620023cb565b6040516200132c9062002357565b62001338919062002543565b604051809103906000f08015801562001355573d6000803e3d6000fd5b50601b80546001600160a01b0319166001600160a01b03929092169190911790556200138860c0820160a08301620023cb565b601c80546001600160a01b0319166001600160a01b0392909216919091179055620013ba60e0820160c08301620023cb565b604051620013c89062002357565b620013d4919062002543565b604051809103906000f080158015620013f1573d6000803e3d6000fd5b50601d80546001600160a01b0319166001600160a01b039290921691909117905550565b6000806200142484846200142e565b1515949350505050565b60008181526009602090815260408083206001600160a01b03861684529091528120546200145c8462001943565b620014689190620027c5565b9392505050565b60008381526009602090815260408083206001600160a01b038616845290915281208054839290620014a390849062002765565b9091555050505050565b60055460065411156200157457600b5462010000900460ff16156200150a57600c54600a55600d54600b805461010080840460ff90811690910261ffff199092169316929092179190911790556200150462001a55565b62001514565b6200151462001a73565b6200151e620010ac565b6003546002546006546007546040516001600160a01b03909416937f23ca0034cf5aad32571b4a492e9598ea8a490e1643a60970e3cdc6933b55e49f936200156a9390929091620026ff565b60405180910390a2565b60055460075411156200160357600b5462010000900460ff1615620015a3576200159d62001a55565b620015ad565b620015ad620017bb565b620015b7620010ac565b6003546002546006546007546040516001600160a01b03909416937fa58eb6daa3c62c3f883973c4035e5bd3e81aa627c8379de068a7de42df122be2936200156a9390929091620026ff565b565b601e546040805163dc4ff91360e01b815290516000926001600160a01b03169163dc4ff913916004808301926020929190829003018186803b15801562000f9857600080fd5b82828160ff1660641015620016745760405162461bcd60e51b81526004016200049f90620026c4565b8060ff16606410156200169b5760405162461bcd60e51b81526004016200049f90620026c4565b8215620016c857600a869055600b805460ff8681166101000261ffff199092169088161717905562000eb6565b600c869055600d805460ff8681166101000261ffff1990921690881617179055600b805462ff0000191662010000179055600a5462000eb69062000635904262002765565b601b5460408051635c60da1b60e01b815290516000926001600160a01b031691635c60da1b916004808301926020929190829003018186803b15801562000f9857600080fd5b601f546040805163dc4ff91360e01b815290516000926001600160a01b03169163dc4ff913916004808301926020929190829003018186803b15801562000f9857600080fd5b620017a36200106c565b151560011415620004b557620004b583838362001a7d565b6200160362001bf5565b6001546000906001600160a01b0383811691161415620017e757506001919050565b6000620017f48362001943565b905060646200180262001844565b600b54620018199190610100900460ff16620027a3565b62001825919062002780565b811115620018365750600192915050565b50600092915050565b919050565b60008060029054906101000a90046001600160a01b03166001600160a01b031663da3dce266040518163ffffffff1660e01b815260040160206040518083038186803b1580156200189457600080fd5b505afa158015620018a9573d6000803e3d6000fd5b505050506040513d601f19601f82011682018060405250810190620018cf9190620023eb565b6001600160a01b03166318160ddd6040518163ffffffff1660e01b815260040160206040518083038186803b1580156200190857600080fd5b505afa1580156200191d573d6000803e3d6000fd5b505050506040513d601f19601f8201168201806040525081019062000354919062002491565b60008060029054906101000a90046001600160a01b03166001600160a01b031663da3dce266040518163ffffffff1660e01b815260040160206040518083038186803b1580156200199357600080fd5b505afa158015620019a8573d6000803e3d6000fd5b505050506040513d601f19601f82011682018060405250810190620019ce9190620023eb565b6001600160a01b03166370a08231836040518263ffffffff1660e01b8152600401620019fb919062002543565b60206040518083038186803b15801562001a1457600080fd5b505afa15801562001a29573d6000803e3d6000fd5b505050506040513d601f19601f8201168201806040525081019062001a4f919062002491565b92915050565b6000600c55600d805461ffff19169055600b805462ff000019169055565b620017bb62001c87565b6001600160a01b0383161580159062001aba575060025460009081526009602090815260408083206001600160a01b038716845290915290205415155b15620004b55760025460009081526009602090815260408083206001600160a01b0387168452909152902054819081111562001b18575060025460009081526009602090815260408083206001600160a01b03871684529091529020545b60025460009081526009602090815260408083206001600160a01b03881684529091528120805483929062001b4f908490620027c5565b90915550506001600160a01b0383161562001ba15760025460009081526009602090815260408083206001600160a01b03871684529091528120805483929062001b9b90849062002765565b90915550505b600254604080516001600160a01b038088168252861660208201529081018390527f65fbd5e5dd32bea4aeca85bd0be0abf0e489d655dee888a7510d43b06dda2dba9060600160405180910390a250505050565b600e80546001600160a01b03199081168255600f8054821690556010805482169055601180548216905560128054821690556013805482169055601480549091169055600062001c4760158262002365565b62001c5760088301600062002365565b62001c6760098301600062002365565b62001c77600a8301600062002365565b62000f4f600b8301600062002365565b600e546001600160a01b03161562001d8e576015805462001ca890620028f6565b15905062001d2357601e54600e5460405163278f794360e11b81526001600160a01b0392831692634f1ef2869262001ce99291169060159060040162002557565b600060405180830381600087803b15801562001d0457600080fd5b505af115801562001d19573d6000803e3d6000fd5b5050505062001d8e565b601e54600e54604051631b2ce7f360e11b81526001600160a01b0392831692633659cfe69262001d599291169060040162002543565b600060405180830381600087803b15801562001d7457600080fd5b505af115801562001d89573d6000803e3d6000fd5b505050505b600f546001600160a01b03161562001e95576016805462001daf90620028f6565b15905062001e2a57601f54600f5460405163278f794360e11b81526001600160a01b0392831692634f1ef2869262001df09291169060169060040162002557565b600060405180830381600087803b15801562001e0b57600080fd5b505af115801562001e20573d6000803e3d6000fd5b5050505062001e95565b601f54600f54604051631b2ce7f360e11b81526001600160a01b0392831692633659cfe69262001e609291169060040162002543565b600060405180830381600087803b15801562001e7b57600080fd5b505af115801562001e90573d6000803e3d6000fd5b505050505b6010546001600160a01b03161562001f9c576017805462001eb690620028f6565b15905062001f315760205460105460405163278f794360e11b81526001600160a01b0392831692634f1ef2869262001ef79291169060179060040162002557565b600060405180830381600087803b15801562001f1257600080fd5b505af115801562001f27573d6000803e3d6000fd5b5050505062001f9c565b602054601054604051631b2ce7f360e11b81526001600160a01b0392831692633659cfe69262001f679291169060040162002543565b600060405180830381600087803b15801562001f8257600080fd5b505af115801562001f97573d6000803e3d6000fd5b505050505b6011546001600160a01b031615620020a3576018805462001fbd90620028f6565b1590506200203857601a5460115460405163278f794360e11b81526001600160a01b0392831692634f1ef2869262001ffe9291169060189060040162002557565b600060405180830381600087803b1580156200201957600080fd5b505af11580156200202e573d6000803e3d6000fd5b50505050620020a3565b601a54601154604051631b2ce7f360e11b81526001600160a01b0392831692633659cfe6926200206e9291169060040162002543565b600060405180830381600087803b1580156200208957600080fd5b505af11580156200209e573d6000803e3d6000fd5b505050505b6013546001600160a01b031615620021aa5760198054620020c490620028f6565b1590506200213f57601c5460135460405163278f794360e11b81526001600160a01b0392831692634f1ef28692620021059291169060199060040162002557565b600060405180830381600087803b1580156200212057600080fd5b505af115801562002135573d6000803e3d6000fd5b50505050620021aa565b601c54601354604051631b2ce7f360e11b81526001600160a01b0392831692633659cfe692620021759291169060040162002543565b600060405180830381600087803b1580156200219057600080fd5b505af1158015620021a5573d6000803e3d6000fd5b505050505b6012546001600160a01b0316156200222757601b54601254604051631b2ce7f360e11b81526001600160a01b0392831692633659cfe692620021f29291169060040162002543565b600060405180830381600087803b1580156200220d57600080fd5b505af115801562002222573d6000803e3d6000fd5b505050505b6014546001600160a01b031615620022a457601d54601454604051631b2ce7f360e11b81526001600160a01b0392831692633659cfe6926200226f9291169060040162002543565b600060405180830381600087803b1580156200228a57600080fd5b505af11580156200229f573d6000803e3d6000fd5b505050505b7f9f556b3233512aec544690cac60d870b2e6c701a89ec415c193c147b28035aa4620022cf62001605565b620022d962001753565b620022e362000f53565b620022ed620010d7565b620022f76200170d565b6200230162000fd3565b6200230b62001026565b604080516001600160a01b03988916815296881660208801529487168686015292861660608601529085166080850152841660a084015290921660c082015290519081900360e00190a1565b6105238062002b4d83390190565b5080546200237390620028f6565b6000825580601f1062002384575050565b601f0160209004906000526020600020908101906200064191905b80821115620023b557600081556001016200239f565b5090565b803560ff811681146200183f57600080fd5b600060208284031215620023de57600080fd5b8135620014688162002b27565b600060208284031215620023fe57600080fd5b8151620014688162002b27565b6000806000606084860312156200242157600080fd5b83356200242e8162002b27565b92506020840135620024408162002b27565b929592945050506040919091013590565b6000602082840312156200246457600080fd5b8135620014688162002b3d565b6000602082840312156200248457600080fd5b8151620014688162002b3d565b600060208284031215620024a457600080fd5b5051919050565b600060e08284031215620024be57600080fd5b50919050565b600060208284031215620024d757600080fd5b81356001600160401b03811115620024ee57600080fd5b820161018081850312156200146857600080fd5b6000806000606084860312156200251857600080fd5b833592506200252a60208501620023b9565b91506200253a60408501620023b9565b90509250925092565b6001600160a01b0391909116815260200190565b60018060a01b038316815260006020604081840152600084546200257b81620028f6565b8060408701526060600180841660008114620025a05760018114620025b557620025e5565b60ff19851689840152608089019550620025e5565b896000528660002060005b85811015620025dd5781548b8201860152908301908801620025c0565b8a0184019650505b50939998505050505050505050565b6020808252825182820181905260009190848201906040850190845b818110156200262e5783518352928401929184019160010162002610565b50909695505050505050565b60208082526004908201526322a1991960e11b604082015260600190565b6020808252602e908201527f496e697469616c697a61626c653a20636f6e747261637420697320616c72656160408201526d191e481a5b9a5d1a585b1a5e995960921b606082015260800190565b6020808252600490820152634543323560e01b604082015260600190565b6020808252600490820152634543323160e01b604082015260600190565b60208082526003908201526208a86760eb1b604082015260600190565b9283526020830191909152604082015260600190565b6000808335601e198436030181126200272d57600080fd5b8301803591506001600160401b038211156200274857600080fd5b6020019150368190038213156200275e57600080fd5b9250929050565b600082198211156200277b576200277b6200294b565b500190565b6000826200279e57634e487b7160e01b600052601260045260246000fd5b500490565b6000816000190483118215151615620027c057620027c06200294b565b500290565b600082821015620027da57620027da6200294b565b500390565b601f821115620004b557600081815260208120601f850160051c81016020861015620028085750805b601f850160051c820191505b8181101562000eb65782815560010162002814565b6001600160401b0383111562002843576200284362002977565b6200285b83620028548354620028f6565b83620027df565b6000601f841160018114620028925760008515620028795750838201355b600019600387901b1c1916600186901b178355620028ef565b600083815260209020601f19861690835b82811015620028c55786850135825560209485019460019092019101620028a3565b5086821015620028e35760001960f88860031b161c19848701351681555b505060018560011b0183555b5050505050565b600181811c908216806200290b57607f821691505b60208210811415620024be57634e487b7160e01b600052602260045260246000fd5b60006000198214156200294457620029446200294b565b5060010190565b634e487b7160e01b600052601160045260246000fd5b634e487b7160e01b600052603260045260246000fd5b634e487b7160e01b600052604160045260246000fd5b6000813562001a4f8162002b27565b80546001600160a01b0319166001600160a01b0392909216919091179055565b620029d2620029cb836200298d565b826200299c565b620029ee620029e4602084016200298d565b600183016200299c565b62002a0a62002a00604084016200298d565b600283016200299c565b62002a2662002a1c606084016200298d565b600383016200299c565b62002a4262002a38608084016200298d565b600483016200299c565b62002a5e62002a5460a084016200298d565b600583016200299c565b62002a7a62002a7060c084016200298d565b600683016200299c565b62002a8960e083018362002715565b62002a9981836007860162002829565b505062002aab61010083018362002715565b62002abb81836008860162002829565b505062002acd61012083018362002715565b62002add81836009860162002829565b505062002aef61014083018362002715565b62002aff8183600a860162002829565b505062002b1161016083018362002715565b62002b218183600b860162002829565b50505050565b6001600160a01b03811681146200064157600080fd5b80151581146200064157600080fdfe608060405234801561001057600080fd5b5060405161052338038061052383398101604081905261002f91610148565b61003833610047565b61004181610097565b50610178565b600080546001600160a01b038381166001600160a01b0319831681178455604051919092169283917f8be0079c531659141344cd1fd0a4f28419497f9722a3daafe3b4186f6b6457e09190a35050565b6100aa8161014260201b61021f1760201c565b6101205760405162461bcd60e51b815260206004820152603360248201527f5570677261646561626c65426561636f6e3a20696d706c656d656e746174696f60448201527f6e206973206e6f74206120636f6e747261637400000000000000000000000000606482015260840160405180910390fd5b600180546001600160a01b0319166001600160a01b0392909216919091179055565b3b151590565b60006020828403121561015a57600080fd5b81516001600160a01b038116811461017157600080fd5b9392505050565b61039c806101876000396000f3fe608060405234801561001057600080fd5b50600436106100575760003560e01c80633659cfe61461005c5780635c60da1b14610071578063715018a61461009a5780638da5cb5b146100a2578063f2fde38b146100aa575b600080fd5b61006f61006a366004610301565b6100bd565b005b6001546001600160a01b03165b6040516001600160a01b03909116815260200160405180910390f35b61006f610135565b61007e610170565b61006f6100b8366004610301565b61017f565b336100c6610170565b6001600160a01b0316146100f55760405162461bcd60e51b81526004016100ec90610331565b60405180910390fd5b6100fe81610225565b6040516001600160a01b038216907fbc7cd75a20ee27fd9adebab32041f755214dbc6bffa90cc0225b39da2e5c2d3b90600090a250565b3361013e610170565b6001600160a01b0316146101645760405162461bcd60e51b81526004016100ec90610331565b61016e60006102b1565b565b6000546001600160a01b031690565b33610188610170565b6001600160a01b0316146101ae5760405162461bcd60e51b81526004016100ec90610331565b6001600160a01b0381166102135760405162461bcd60e51b815260206004820152602660248201527f4f776e61626c653a206e6577206f776e657220697320746865207a65726f206160448201526564647265737360d01b60648201526084016100ec565b61021c816102b1565b50565b3b151590565b803b61028f5760405162461bcd60e51b815260206004820152603360248201527f5570677261646561626c65426561636f6e3a20696d706c656d656e746174696f6044820152721b881a5cc81b9bdd08184818dbdb9d1c9858dd606a1b60648201526084016100ec565b600180546001600160a01b0319166001600160a01b0392909216919091179055565b600080546001600160a01b038381166001600160a01b0319831681178455604051919092169283917f8be0079c531659141344cd1fd0a4f28419497f9722a3daafe3b4186f6b6457e09190a35050565b60006020828403121561031357600080fd5b81356001600160a01b038116811461032a57600080fd5b9392505050565b6020808252818101527f4f776e61626c653a2063616c6c6572206973206e6f7420746865206f776e657260408201526060019056fea2646970667358221220b2593c385f6cf6c9fa6cd30320e4dd979200197a740c0d3f946507d201c8795d64736f6c63430008070033a26469706673582212202b2604650689de4c77eb69adb42949004371ff6377759a999491c144afca3f9264736f6c63430008070033",
  "immutableReferences": {},
  "source": "// SPDX-License-Identifier: GPL-3.0\r\n\r\npragma solidity >=0.7.0 <0.9.0;\r\n\r\n/**\r\n * @title Storage\r\n * @dev Store & retrieve value in a variable\r\n */\r\n\r\nimport \"../Interfaces/IProxyManager.sol\";\r\nimport \"./Proxies/GenericProxy.sol\";\r\nimport \"./Proxies/CertisTokenProxy.sol\";\r\nimport \"../Base/TokenGovernanceBaseContract.sol\";\r\nimport \"../Libraries/AddressLibrary.sol\";\r\nimport \"../Libraries/Library.sol\";\r\nimport \"@openzeppelin/contracts-upgradeable/proxy/utils/Initializable.sol\";\r\nimport \"@openzeppelin/contracts/proxy/beacon/UpgradeableBeacon.sol\";\r\nimport \"@openzeppelin/contracts/proxy/transparent/TransparentUpgradeableProxy.sol\";\r\n\r\n\r\ncontract CertificatesPoolManager is IProxyManager, TokenGovernanceBaseContract{\r\n    using AddressLibrary for *;\r\n    using Library for *;\r\n\r\n    // EVENTS /////////////////////////////////////////\r\n    event _NewContracts(address, address, address, address, address, address, address);\r\n\r\n    // DATA /////////////////////////////////////////\r\n    // proposition to change\r\n    Library.ProposedContractsStruct private _ProposedContracts;\r\n    \r\n    // Private Certificate Pools Factory\r\n    GenericProxy private _PrivatePoolFactory;\r\n\r\n    // Private Certificates Pool\r\n    UpgradeableBeacon private _PrivateCertificatePoolBeacon;\r\n\r\n    // Provider Factory\r\n    GenericProxy private _ProviderFactory;\r\n\r\n    // Provider\r\n    UpgradeableBeacon private _ProviderBeacon;\r\n\r\n    // Public Certificates Pool\r\n    GenericProxy private _PublicCertificatesPool;\r\n\r\n    // Treasury\r\n    GenericProxy private _Treasury;\r\n\r\n    // Certis Token\r\n    CertisTokenProxy private _CertisToken;\r\n\r\n    // init\r\n    bool private _init;\r\n\r\n    // MODIFIERS /////////////////////////////////////////\r\n    modifier isNotInitialized(){\r\n        require(false == _init, \"EC26\");\r\n        _;\r\n    }\r\n\r\n    // CONSTRUCTOR and INITIALIZATION /////////////////////////////////////////\r\n    constructor(uint256 PropositionLifeTime, uint8 PropositionThresholdPercentage, uint8 minWeightToProposePercentage) \r\n    {\r\n        super.TokenGovernanceContract_init(PropositionLifeTime, PropositionThresholdPercentage, minWeightToProposePercentage, msg.sender, address(this));\r\n        _init = false;\r\n    }\r\n\r\n    function InitializeContracts(Library.InitialContractsStruct calldata initialContracts) \r\n        isFromChairPerson()\r\n        isNotInitialized()\r\n    external override\r\n    {\r\n        _init = true;\r\n        initProxies(initialContracts);\r\n    }\r\n\r\n    // FUNCTIONALITY /////////////////////////////////////////\r\n    // governance : contracts assignment and management\r\n    function upgradeContracts(Library.ProposedContractsStruct calldata UpgradeProposition) external override\r\n    {\r\n        _ProposedContracts = UpgradeProposition;\r\n        addProposition(block.timestamp + _PropositionLifeTime, _PropositionThresholdPercentage);\r\n    }\r\n\r\n    function propositionApproved() internal override\r\n    {\r\n        upgradeContractsImplementations();\r\n        removeProposition();\r\n    }\r\n\r\n    function propositionRejected() internal override\r\n    {\r\n        removeProposition();\r\n    }\r\n\r\n    function propositionExpired() internal override\r\n    {\r\n        removeProposition();\r\n    }\r\n\r\n    function removeProposition() internal\r\n    {\r\n       delete(_ProposedContracts);\r\n    }\r\n\r\n    function retrieveProposition() external override view returns(bytes32[] memory)\r\n    {\r\n        bytes32[] memory proposition = new bytes32[](7);\r\n        proposition[0] = AddressLibrary.AddressToBytes32(_ProposedContracts.NewPublicPoolAddress);\r\n        proposition[1] = AddressLibrary.AddressToBytes32(_ProposedContracts.NewTreasuryAddress);\r\n        proposition[2] = AddressLibrary.AddressToBytes32(_ProposedContracts.NewCertisTokenAddress);\r\n        proposition[3] = AddressLibrary.AddressToBytes32(_ProposedContracts.NewPrivatePoolFactoryAddress);\r\n        proposition[4] = AddressLibrary.AddressToBytes32(_ProposedContracts.NewPrivatePoolAddress);\r\n        proposition[5] = AddressLibrary.AddressToBytes32(_ProposedContracts.NewProviderFactoryAddress);\r\n        proposition[6] = AddressLibrary.AddressToBytes32(_ProposedContracts.NewProviderAddress);\r\n        return proposition;\r\n    }\r\n\r\n    function initProxies(Library.InitialContractsStruct calldata initialContracts) private\r\n    {\r\n        _PublicCertificatesPool = GenericProxy(initialContracts.PublicPoolProxyAddress);\r\n        _Treasury = GenericProxy(initialContracts.TreasuryProxyAddress);\r\n        _CertisToken = CertisTokenProxy(initialContracts.CertisTokenProxyAddress);\r\n        _PrivatePoolFactory = GenericProxy(initialContracts.PrivatePoolFactoryProxyAddress);\r\n        _PrivateCertificatePoolBeacon = new UpgradeableBeacon(initialContracts.PrivateCertificatePoolImplAddress);\r\n        _ProviderFactory = GenericProxy(initialContracts.ProviderFactoryProxyAddress);\r\n        _ProviderBeacon = new UpgradeableBeacon(initialContracts.ProviderImplAddress);\r\n    }\r\n\r\n    function upgradeContractsImplementations() private\r\n    {\r\n        if(address(0) != _ProposedContracts.NewPublicPoolAddress){\r\n            if(0 < _ProposedContracts.NewPublicPoolData.length)_PublicCertificatesPool.upgradeToAndCall(_ProposedContracts.NewPublicPoolAddress, _ProposedContracts.NewPublicPoolData);\r\n            else _PublicCertificatesPool.upgradeTo(_ProposedContracts.NewPublicPoolAddress);\r\n        }\r\n        if(address(0) != _ProposedContracts.NewTreasuryAddress){\r\n            if(0 < _ProposedContracts.NewTreasuryData.length)_Treasury.upgradeToAndCall(_ProposedContracts.NewTreasuryAddress, _ProposedContracts.NewTreasuryData);\r\n            else _Treasury.upgradeTo(_ProposedContracts.NewTreasuryAddress);\r\n        }\r\n        if(address(0) != _ProposedContracts.NewCertisTokenAddress){\r\n            if(0 < _ProposedContracts.NewCertisTokenData.length)_CertisToken.upgradeToAndCall(_ProposedContracts.NewCertisTokenAddress, _ProposedContracts.NewCertisTokenData);\r\n            else _CertisToken.upgradeTo(_ProposedContracts.NewCertisTokenAddress);\r\n        }\r\n        if(address(0) != _ProposedContracts.NewPrivatePoolFactoryAddress){\r\n            if(0 < _ProposedContracts.NewPrivatePoolFactoryData.length)_PrivatePoolFactory.upgradeToAndCall(_ProposedContracts.NewPrivatePoolFactoryAddress, _ProposedContracts.NewPrivatePoolFactoryData);\r\n            else _PrivatePoolFactory.upgradeTo(_ProposedContracts.NewPrivatePoolFactoryAddress);\r\n        }\r\n        if(address(0) != _ProposedContracts.NewProviderFactoryAddress){\r\n            if(0 < _ProposedContracts.NewProviderFactoryData.length)_ProviderFactory.upgradeToAndCall(_ProposedContracts.NewProviderFactoryAddress, _ProposedContracts.NewProviderFactoryData);\r\n            else _ProviderFactory.upgradeTo(_ProposedContracts.NewProviderFactoryAddress);\r\n        }\r\n        if(address(0) != _ProposedContracts.NewPrivatePoolAddress)_PrivateCertificatePoolBeacon.upgradeTo(_ProposedContracts.NewPrivatePoolAddress);\r\n        if(address(0) != _ProposedContracts.NewProviderAddress)_ProviderBeacon.upgradeTo(_ProposedContracts.NewProviderAddress);\r\n\r\n        emit _NewContracts(internalRetrievePublicCertificatePool(), internalRetrieveTreasury(), internalRetrieveCertisToken(), internalRetrievePrivatePoolFactory(), internalRetrievePrivatePool(), internalRetrieveProviderFactory(), internalRetrieveProvider());\r\n    }\r\n\r\n    function InternalonTokenBalanceChanged(address from, address to, uint256 amount) internal override\r\n    {\r\n        super.InternalonTokenBalanceChanged(from, to, amount);\r\n    }\r\n\r\n    // configuration Proxies\r\n    function retrievePublicCertificatePoolProxy() external override view returns (address) {\r\n        return (address(_PublicCertificatesPool));\r\n    }\r\n\r\n    function retrieveTreasuryProxy() external override view returns (address) {\r\n        return (address(_Treasury));\r\n    }\r\n\r\n    function retrieveCertisTokenProxy() external override view returns (address) {\r\n        return (address(_CertisToken));\r\n    }\r\n\r\n    function retrievePrivatePoolFactoryProxy() external override view returns (address) {\r\n        return (address(_PrivatePoolFactory));\r\n    }\r\n\r\n    function retrievePrivatePoolBeacon() external override view returns (address) {\r\n        return (address(_PrivateCertificatePoolBeacon));\r\n    }\r\n\r\n    function retrieveProviderFactoryProxy() external override view returns (address) {\r\n        return (address(_ProviderFactory));\r\n    }\r\n\r\n    function retrieveProviderBeacon() external override view returns (address) {\r\n        return (address(_ProviderBeacon));\r\n    }\r\n\r\n    // configuration implementations\r\n    function retrievePublicCertificatePool() external override view returns (address) {\r\n        return internalRetrievePublicCertificatePool();\r\n    }\r\n\r\n    function retrieveTreasury() external override view returns (address) {\r\n        return internalRetrieveTreasury();\r\n    }\r\n\r\n    function retrieveCertisToken() external override view returns (address) {\r\n        return internalRetrieveCertisToken();\r\n    }\r\n\r\n    function retrievePrivatePoolFactory() external override view returns (address) {\r\n        return internalRetrievePrivatePoolFactory();\r\n    }\r\n\r\n    function retrievePrivatePool() external override view returns (address) {\r\n        return internalRetrievePrivatePool();\r\n    }\r\n\r\n    function retrieveProviderFactory() external override view returns (address) {\r\n        return internalRetrieveProviderFactory();\r\n    }\r\n\r\n    function retrieveProvider() external override view returns (address) {\r\n        return internalRetrieveProvider();\r\n    }\r\n\r\n    function isInitialized() external override view returns(bool){\r\n        return _init;\r\n    }\r\n\r\n    // internal\r\n    function internalRetrievePublicCertificatePool() internal view returns (address) {\r\n        return _PublicCertificatesPool.retrieveImplementation();\r\n    }\r\n\r\n    function internalRetrieveTreasury() internal view returns (address) {\r\n        return _Treasury.retrieveImplementation();\r\n    }\r\n\r\n    function internalRetrieveCertisToken() internal view returns (address) {\r\n        return _CertisToken.retrieveImplementation();\r\n    }\r\n\r\n    function internalRetrievePrivatePoolFactory() internal view returns (address) {\r\n        return _PrivatePoolFactory.retrieveImplementation();\r\n    }\r\n\r\n    function internalRetrievePrivatePool() internal view returns (address) {\r\n        return _PrivateCertificatePoolBeacon.implementation();\r\n    }\r\n\r\n    function internalRetrieveProviderFactory() internal view returns (address) {\r\n        return _ProviderFactory.retrieveImplementation();\r\n    }\r\n\r\n    function internalRetrieveProvider() internal view returns (address) {\r\n        return _ProviderBeacon.implementation();\r\n    }\r\n    \r\n}",
  "sourcePath": "C:/Users/d-aam/GitHub/Certificates/contracts/DeployedContracts/CertificatesPoolManager.sol",
  "compiler": {
    "name": "solc",
    "version": "0.8.7+commit.e28d00a7.Emscripten.clang"
  },
  "schemaVersion": "3.3.4",
  "updatedAt": "2021-08-19T06:39:00.930Z",
  "devdoc": {
    "kind": "dev",
    "methods": {},
    "version": 1
  },
  "userdoc": {
    "kind": "user",
    "methods": {},
    "version": 1
  }
}