{
  "contractName": "CertificatesPoolManager",
  "abi": [
    {
      "inputs": [],
      "stateMutability": "payable",
      "type": "constructor"
    },
    {
      "anonymous": false,
      "inputs": [
        {
          "indexed": false,
          "internalType": "uint256",
          "name": "",
          "type": "uint256"
        },
        {
          "indexed": false,
          "internalType": "address",
          "name": "",
          "type": "address"
        },
        {
          "indexed": false,
          "internalType": "contract MultiSigCertificatesPool",
          "name": "",
          "type": "address"
        }
      ],
      "name": "_NewCertificatesPool",
      "type": "event"
    },
    {
      "anonymous": false,
      "inputs": [
        {
          "indexed": false,
          "internalType": "address",
          "name": "",
          "type": "address"
        }
      ],
      "name": "_SendProposalId",
      "type": "event"
    },
    {
      "inputs": [
        {
          "internalType": "address",
          "name": "PublicPoolAddress",
          "type": "address"
        },
        {
          "internalType": "address",
          "name": "TreasuryAddress",
          "type": "address"
        }
      ],
      "name": "Initialize",
      "outputs": [],
      "stateMutability": "nonpayable",
      "type": "function"
    },
    {
      "inputs": [
        {
          "internalType": "address[]",
          "name": "owners",
          "type": "address[]"
        },
        {
          "internalType": "uint256",
          "name": "minOwners",
          "type": "uint256"
        }
      ],
      "name": "createPrivateCertificatesPool",
      "outputs": [],
      "stateMutability": "payable",
      "type": "function"
    },
    {
      "inputs": [
        {
          "internalType": "uint256",
          "name": "certificatePoolId",
          "type": "uint256"
        }
      ],
      "name": "retrievePrivateCertificatesPool",
      "outputs": [
        {
          "internalType": "address",
          "name": "",
          "type": "address"
        },
        {
          "internalType": "contract MultiSigCertificatesPool",
          "name": "",
          "type": "address"
        }
      ],
      "stateMutability": "view",
      "type": "function"
    },
    {
      "inputs": [],
      "name": "retrieveTotalPrivateCertificatesPool",
      "outputs": [
        {
          "internalType": "uint256",
          "name": "",
          "type": "uint256"
        }
      ],
      "stateMutability": "view",
      "type": "function"
    },
    {
      "inputs": [],
      "name": "retrieveConfiguration",
      "outputs": [
        {
          "internalType": "contract Treasury",
          "name": "",
          "type": "address"
        },
        {
          "internalType": "contract MultiSigCertificatesPool",
          "name": "",
          "type": "address"
        },
        {
          "internalType": "address",
          "name": "",
          "type": "address"
        },
        {
          "internalType": "uint256",
          "name": "",
          "type": "uint256"
        }
      ],
      "stateMutability": "view",
      "type": "function"
    }
  ],
  "bytecode": "0x6080604052600380546001600160a01b031916331790556138c9806100256000396000f3fe608060405260043610620000505760003560e01c806360f029c91462000055578063a4a788961462000079578063d185a52614620000c1578063dc90fed01462000107578063f5807c05146200012e575b600080fd5b3480156200006257600080fd5b506000546040519081526020015b60405180910390f35b3480156200008657600080fd5b50600254600154600354604080516001600160a01b039485168152928416602084015292169181019190915247606082015260800162000070565b348015620000ce57600080fd5b50620000e6620000e036600462000688565b62000145565b604080516001600160a01b0393841681529290911660208301520162000070565b3480156200011457600080fd5b506200012c6200012636600462000546565b62000289565b005b6200012c6200013f3660046200057e565b6200035f565b6000805460405163123bd07560e11b815260048101849052602481018290528291849173__Library_______________________________90632477a0ea9060440160206040518083038186803b158015620001a057600080fd5b505af4158015620001b5573d6000803e3d6000fd5b505050506040513d601f19601f82011682018060405250810190620001db91906200065d565b1515600114620002185760405162461bcd60e51b815260206004820152600360248201526245433160e81b60448201526064015b60405180910390fd5b600085815481106200022e576200022e6200071b565b6000918252602082206002909102015481546001600160a01b039091169190879081106200026057620002606200071b565b60009182526020909120600160029092020101549094506001600160a01b031692505050915091565b6003546001600160a01b03163314620002d95760405162461bcd60e51b815260206004820152601160248201527037b7363c9031b430b4b9103832b939b7b760791b60448201526064016200020f565b600180546001600160a01b038481166001600160a01b0319928316811790935560028054918516919092168117909155604051633232ce0d60e21b8152600481019190915263c8cb383490602401600060405180830381600087803b1580156200034257600080fd5b505af115801562000357573d6000803e3d6000fd5b505050505050565b600260009054906101000a90046001600160a01b03166001600160a01b0316637cc850fd346040518263ffffffff1660e01b81526004016000604051808303818588803b158015620003b057600080fd5b505af1158015620003c5573d6000803e3d6000fd5b505050505060008282604051620003dc906200051b565b620003e9929190620006a2565b604051809103906000f08015801562000406573d6000803e3d6000fd5b50604080518082019091523381526001600160a01b0382811660208301908152600080546001808201835582805285517f290decd9548b62a8d60345a988386fc84ba6bc95484008f6362f93160ef3e563600290930292830180546001600160a01b031990811692881692909217905593517f290decd9548b62a8d60345a988386fc84ba6bc95484008f6362f93160ef3e564909201805490941691909416179091555492935090917f9bfff6b81778f7b8086272d62a71be896cfc1876bb5f2e4e1fe28bc4c241596891620004dc91620006f5565b825160208401516040516200050d939291909283526001600160a01b03918216602084015216604082015260600190565b60405180910390a150505050565b61314c806200074883390190565b80356001600160a01b03811681146200054157600080fd5b919050565b600080604083850312156200055a57600080fd5b620005658362000529565b9150620005756020840162000529565b90509250929050565b600080604083850312156200059257600080fd5b82356001600160401b0380821115620005aa57600080fd5b818501915085601f830112620005bf57600080fd5b8135602082821115620005d657620005d662000731565b8160051b604051601f19603f83011681018181108682111715620005fe57620005fe62000731565b604052838152828101945085830182870184018b10156200061e57600080fd5b600096505b848710156200064c57620006378162000529565b86526001969096019594830194830162000623565b509997909101359750505050505050565b6000602082840312156200067057600080fd5b815180151581146200068157600080fd5b9392505050565b6000602082840312156200069b57600080fd5b5035919050565b604080825283519082018190526000906020906060840190828701845b82811015620006e65781516001600160a01b031684529284019290840190600101620006bf565b50505092019290925292915050565b6000828210156200071657634e487b7160e01b600052601160045260246000fd5b500390565b634e487b7160e01b600052603260045260246000fd5b634e487b7160e01b600052604160045260246000fdfe600560c09081526427bbb732b960d91b60e0526080908152610140604052600861010090815267283937bb34b232b960c11b6101205260a05262000048906004906002620003be565b506040516200314c3803806200314c8339810160408190526200006b9162000544565b8181818160026004805480602002602001604051908101604052809291908181526020016000905b8282101562000149578382906000526020600020018054620000b59062000625565b80601f0160208091040260200160405190810160405280929190818152602001828054620000e39062000625565b8015620001345780601f10620001085761010080835404028352916020019162000134565b820191906000526020600020905b8154815290600101906020018083116200011657829003601f168201915b50505050508152602001906001019062000093565b5050505060008451841115620001945760405162461bcd60e51b81526004016200018b9060208082526004908201526322a1989b60e11b604082015260600190565b60405180910390fd5b60008411620001cf5760405162461bcd60e51b81526004016200018b906020808252600490820152634543313760e01b604082015260600190565b815183146200020a5760405162461bcd60e51b81526004016200018b9060208082526004908201526308a8662760e31b604082015260600190565b60008181555b83811015620002895760028054600101815560005282516003908490839081106200023f576200023f6200068c565b6020908102919091018101518254600181018455600093845292829020815162000273949190910192919091019062000422565b5080620002808162000662565b91505062000210565b50600184905560005b8551811015620003ae576001600260005481548110620002b657620002b66200068c565b90600052602060002090600402016000016000888481518110620002de57620002de6200068c565b60200260200101516001600160a01b03166001600160a01b0316815260200190815260200160002060000160006101000a81548160ff0219169083151502179055506002600054815481106200033857620003386200068c565b90600052602060002090600402016001018682815181106200035e576200035e6200068c565b60209081029190910181015182546001810184556000938452919092200180546001600160a01b0319166001600160a01b0390921691909117905580620003a58162000662565b91505062000292565b50505050505050505050620006b8565b82805482825590600052602060002090810192821562000410579160200282015b82811115620004105782518051620003ff91849160209091019062000422565b5091602001919060010190620003df565b506200041e929150620004ad565b5090565b828054620004309062000625565b90600052602060002090601f0160209004810192826200045457600085556200049f565b82601f106200046f57805160ff19168380011785556200049f565b828001600101855582156200049f579182015b828111156200049f57825182559160200191906001019062000482565b506200041e929150620004ce565b808211156200041e576000620004c48282620004e5565b50600101620004ad565b5b808211156200041e5760008155600101620004cf565b508054620004f39062000625565b6000825580601f1062000504575050565b601f016020900490600052602060002090810190620005249190620004ce565b50565b80516001600160a01b03811681146200053f57600080fd5b919050565b600080604083850312156200055857600080fd5b82516001600160401b03808211156200057057600080fd5b818501915085601f8301126200058557600080fd5b81516020828211156200059c576200059c620006a2565b8160051b604051601f19603f83011681018181108682111715620005c457620005c4620006a2565b604052838152828101945085830182870184018b1015620005e457600080fd5b600096505b848710156200061257620005fd8162000527565b865260019690960195948301948301620005e9565b5097909101519698969750505050505050565b600181811c908216806200063a57607f821691505b602082108114156200065c57634e487b7160e01b600052602260045260246000fd5b50919050565b60006000198214156200068557634e487b7160e01b600052601160045260246000fd5b5060010190565b634e487b7160e01b600052603260045260246000fd5b634e487b7160e01b600052604160045260246000fd5b612a8480620006c86000396000f3fe6080604052600436106100d95760003560e01c8063173825d9146100de5780631ab807f8146101005780632f54bf6e146101135780633542758f14610148578063375834991461016857806358a1ba251461019657806365b973e5146101c35780636b074a07146101e25780636b299604146102025780636b3a0fec146102305780636e4f9179146102505780636e55d2d41461027257806377bc5a1f146102925780638a355a57146102b2578063a73db28a146102d2578063a93d5ed6146102f2578063d0a4adfe14610307578063fc00050014610365575b600080fd5b3480156100ea57600080fd5b506100fe6100f93660046123db565b610378565b005b6100fe61010e3660046125b4565b6103e6565b34801561011f57600080fd5b5061013361012e3660046123db565b6103f4565b60405190151581526020015b60405180910390f35b34801561015457600080fd5b506100fe6101633660046123f6565b610408565b34801561017457600080fd5b506101886101833660046123db565b610415565b60405161013f929190612754565b3480156101a257600080fd5b506101b66101b136600461249b565b61042d565b60405161013f9190612710565b3480156101cf57600080fd5b506001545b60405190815260200161013f565b3480156101ee57600080fd5b506101336101fd3660046123db565b6105d3565b34801561020e57600080fd5b5061022261021d36600461257a565b6105e0565b60405161013f92919061269e565b34801561023c57600080fd5b5061022261024b36600461257a565b6105ef565b34801561025c57600080fd5b506102656105fd565b60405161013f919061268b565b34801561027e57600080fd5b506101d461028d3660046123db565b61060e565b34801561029e57600080fd5b506101886102ad3660046123db565b61062c565b3480156102be57600080fd5b506100fe6102cd3660046123db565b61063c565b3480156102de57600080fd5b506100fe6102ed3660046125b4565b61064a565b3480156102fe57600080fd5b506102656108ff565b34801561031357600080fd5b5061034d6103223660046125b4565b6001600160a01b03908116600090815260056020908152604080832094835293905291909120541690565b6040516001600160a01b03909116815260200161013f565b6100fe6103733660046123f6565b61090c565b6001546001610388600054610918565b51610393919061297b565b808211156103d55760405162461bcd60e51b81526004016103cc906020808252600490820152634543313960e01b604082015260600190565b60405180910390fd5b6103e183600054610a50565b505050565b6103f08282611244565b5050565b60006104028260005461135d565b92915050565b6103f08282600054611454565b60606000610424836001611b39565b91509150915091565b6060826104398561060e565b1161045357506040805160008152602081019091526105cc565b81808461045f8761060e565b610469919061297b565b101561048657836104798661060e565b610483919061297b565b90505b6000816001600160401b038111156104a0576104a0612a2a565b6040519080825280602002602001820160405280156104c9578160200160208202803683370190505b506001600160a01b03871660009081526005602090815260408083206001018054825181850281018501909352808352949550929390929183018282801561053057602002820191906000526020600020905b81548152602001906001019080831161051c575b5050505050905060008060005b83518110156105c357878310610552576105c3565b8189111561056c57610565600183612963565b91506105b1565b83818151811061057e5761057e612a14565b602002602001015185848151811061059857610598612a14565b60209081029190910101526105ae600184612963565b92505b806105bb816129cd565b91505061053d565b50929450505050505b9392505050565b600061040282600161135d565b60608061042483600054611ccc565b606080610424836001611ccc565b60606106096001610918565b905090565b6001600160a01b031660009081526005602052604090206001015490565b6060600061042483600054611b39565b610647816001610a50565b50565b610653336105d3565b15156001146106745760405162461bcd60e51b81526004016103cc90612856565b6001600160a01b03818116600090815260056020908152604080832086845290915290205482918491163314806106b35750336001600160a01b038316145b6106e85760405162461bcd60e51b81526004016103cc906020808252600490820152631150cc4d60e21b604082015260600190565b6001600160a01b0380841660008181526005602081815260408084208a85528083528185205495855292825260019092018054835181840281018401909452808452949095169492939192919083018282801561076457602002820191906000526020600020905b815481526020019060010190808311610750575b5050505050905060005b815181101561088b5781818151811061078957610789612a14565b6020026020010151871415610879576001600160a01b038616600090815260056020526040908190209051635b28cf6360e01b815273__Library_______________________________91635b28cf63916107ee9185916001909101906004016128df565b60006040518083038186803b15801561080657600080fd5b505af415801561081a573d6000803e3d6000fd5b505050506040513d6000823e601f3d908101601f1916820160405261084291908101906124ce565b6001600160a01b0387166000908152600560209081526040909120825161087393600190920192919091019061223f565b5061088b565b80610883816129cd565b91505061076e565b506001600160a01b03851660009081526005602090815260408083208984529091529081902080546001600160a01b0319169055517fd12847594abf0621035046f61129f2a9dc5093eb516c6c517ece306362ef6f17906108ef9084908890612671565b60405180910390a1505050505050565b6060610609600054610918565b6103f082826001611454565b60025460405163123bd07560e11b8152606091839173__Library_______________________________90632477a0ea906109599085908590600401612925565b60206040518083038186803b15801561097157600080fd5b505af4158015610985573d6000803e3d6000fd5b505050506040513d601f19601f820116820180604052508101906109a99190612597565b15156001146109ca5760405162461bcd60e51b81526004016103cc90612874565b600284815481106109dd576109dd612a14565b9060005260206000209060040201600101805480602002602001604051908101604052809291908181526020018280548015610a4257602002820191906000526020600020905b81546001600160a01b03168152600190910190602001808311610a24575b505050505092505050919050565b60025460405163123bd07560e11b815282919073__Library_______________________________90632477a0ea90610a8f9085908590600401612925565b60206040518083038186803b158015610aa757600080fd5b505af4158015610abb573d6000803e3d6000fd5b505050506040513d601f19601f82011682018060405250810190610adf9190612597565b1515600114610b005760405162461bcd60e51b81526004016103cc90612874565b83610b0d3360005461135d565b151560011480610b255750336001600160a01b038216145b610b5a5760405162461bcd60e51b81526004016103cc906020808252600490820152630454331360e41b604082015260600190565b60018585610b68828261135d565b1515600114610b9f5760405162461bcd60e51b815260206004820152600360248201526245433760e81b60448201526064016103cc565b600160028881548110610bb457610bb4612a14565b600091825260208083206001600160a01b038d16845260049092029091018152604091829020825160808101909352805460ff16151583526001810180549192840191610c0090612992565b80601f0160208091040260200160405190810160405280929190818152602001828054610c2c90612992565b8015610c795780601f10610c4e57610100808354040283529160200191610c79565b820191906000526020600020905b815481529060010190602001808311610c5c57829003601f168201915b5050505050815260200160028201805480602002602001604051908101604052809291908181526020018280548015610cdb57602002820191906000526020600020905b81546001600160a01b03168152600190910190602001808311610cbd575b5050505050815260200160038201805480602002602001604051908101604052809291908181526020018280548015610d3d57602002820191906000526020600020905b81546001600160a01b03168152600190910190602001808311610d1f575b505050505081525050816001811115610d5857610d586129fe565b610d8c57610d6a338260400151611f4e565b15610d875760405162461bcd60e51b81526004016103cc90612839565b610db7565b610d9a338260600151611f4e565b15610db75760405162461bcd60e51b81526004016103cc90612839565b60028981548110610dca57610dca612a14565b600091825260208083206001600160a01b038e168452600490920290910190526040902060030154610e475760028981548110610e0957610e09612a14565b60009182526020808320600492909202909101600301805460018101825590835291200180546001600160a01b0319166001600160a01b038c161790555b60028981548110610e5a57610e5a612a14565b600091825260208083206001600160a01b038e168085526004909302018152604083206003018054600181018255908452922090910180546001600160a01b031916339081179091551480610ef05750610ef060028a81548110610ec057610ec0612a14565b600091825260208083206001600160a01b038f168452600490920290910190526040902060030154600154611fb4565b1561123857611000610f7e8b60028c81548110610f0f57610f0f612a14565b9060005260206000209060040201600101805480602002602001604051908101604052809291908181526020018280548015610f7457602002820191906000526020600020905b81546001600160a01b03168152600190910190602001808311610f56575b5050505050611fcf565b60028b81548110610f9157610f91612a14565b9060005260206000209060040201600101805480602002602001604051908101604052809291908181526020018280548015610ff657602002820191906000526020600020905b81546001600160a01b03168152600190910190602001808311610fd8575b5050505050611fec565b60028a8154811061101357611013612a14565b9060005260206000209060040201600101908051906020019061103792919061228a565b5061113f6110bf8b60028c8154811061105257611052612a14565b9060005260206000209060040201600301805480602002602001604051908101604052809291908181526020018280548015610f74576020028201919060005260206000209081546001600160a01b03168152600190910190602001808311610f56575050505050611fcf565b60028b815481106110d2576110d2612a14565b9060005260206000209060040201600301805480602002602001604051908101604052809291908181526020018280548015610ff6576020028201919060005260206000209081546001600160a01b03168152600190910190602001808311610fd8575050505050611fec565b60028a8154811061115257611152612a14565b9060005260206000209060040201600301908051906020019061117692919061228a565b506002898154811061118a5761118a612a14565b600091825260208083206001600160a01b038e1684526004909202909101905260408120805460ff19168155906111c460018301826122df565b6111d2600283016000612319565b6111e0600383016000612319565b50507f1f62d535f971041db7bd8760bf0f1f9f476461558744a35c0d477b5ad6893e8960038a8154811061121657611216612a14565b906000526020600020018b60405161122f929190612778565b60405180910390a15b50505050505050505050565b61124d336105d3565b151560011461126e5760405162461bcd60e51b81526004016103cc90612856565b816001600160a01b0380831660009081526005602090815260408083208784529091529020548391859116156112cf5760405162461bcd60e51b81526004016103cc906020808252600490820152634543313560e01b604082015260600190565b6001600160a01b038416600090815260056020818152604080842089855280835281852080546001600160a01b031916339081179091559383526001908101805491820181558552919093200187905590517f601cb9a073dbfa468ef12878ee6c720641a49b76af7c16099e8c0a1ac3ca79b59161134e918790612671565b60405180910390a15050505050565b60025460405163123bd07560e11b8152600091839173__Library_______________________________90632477a0ea9061139e9085908590600401612925565b60206040518083038186803b1580156113b657600080fd5b505af41580156113ca573d6000803e3d6000fd5b505050506040513d601f19601f820116820180604052508101906113ee9190612597565b151560011461140f5760405162461bcd60e51b81526004016103cc90612874565b6002848154811061142257611422612a14565b600091825260208083206001600160a01b038916845260049092029091019052604090205460ff169250505092915050565b60025460405163123bd07560e11b815282919073__Library_______________________________90632477a0ea906114939085908590600401612925565b60206040518083038186803b1580156114ab57600080fd5b505af41580156114bf573d6000803e3d6000fd5b505050506040513d601f19601f820116820180604052508101906114e39190612597565b15156001146115045760405162461bcd60e51b81526004016103cc90612874565b6115103360005461135d565b15156001146115475760405162461bcd60e51b815260206004820152600360248201526245433960e81b60448201526064016103cc565b60008584611555828261135d565b156115885760405162461bcd60e51b815260206004820152600360248201526222a19b60e91b60448201526064016103cc565b60006002878154811061159d5761159d612a14565b600091825260208083206001600160a01b038d16845260049092029091018152604091829020825160808101909352805460ff161515835260018101805491928401916115e990612992565b80601f016020809104026020016040519081016040528092919081815260200182805461161590612992565b80156116625780601f1061163757610100808354040283529160200191611662565b820191906000526020600020905b81548152906001019060200180831161164557829003601f168201915b50505050508152602001600282018054806020026020016040519081016040528092919081815260200182805480156116c457602002820191906000526020600020905b81546001600160a01b031681526001909101906020018083116116a6575b505050505081526020016003820180548060200260200160405190810160405280929190818152602001828054801561172657602002820191906000526020600020905b81546001600160a01b03168152600190910190602001808311611708575b505050505081525050816001811115611741576117416129fe565b61177557611753338260400151611f4e565b156117705760405162461bcd60e51b81526004016103cc90612839565b6117a0565b611783338260600151611f4e565b156117a05760405162461bcd60e51b81526004016103cc90612839565b600288815481106117b3576117b3612a14565b600091825260208083206001600160a01b038e1684526004909202909101905260409020600201546118805788600289815481106117f3576117f3612a14565b600091825260208083206001600160a01b038f168452600490920290910181526040909120825161182e936001909201929190910190612337565b506002888154811061184257611842612a14565b60009182526020808320600492909202909101600201805460018101825590835291200180546001600160a01b0319166001600160a01b038c161790555b6002888154811061189357611893612a14565b600091825260208083206001600160a01b038e168452600490920290910181526040822060029081018054600181018255908452919092200180546001600160a01b03191633179055805461192391908a9081106118f3576118f3612a14565b600091825260208083206001600160a01b038f168452600490920290910190526040902060020154600154611fb4565b156112385760016002898154811061193d5761193d612a14565b600091825260208083206001600160a01b038f168452600492909202909101905260409020805460ff1916911515919091179055600280548990811061198557611985612a14565b60009182526020808320600160049093020182018054928301815583529091200180546001600160a01b038c166001600160a01b031990911617905560028054611acd91611a4d918d91908c9081106119e0576119e0612a14565b9060005260206000209060040201600201805480602002602001604051908101604052809291908181526020018280548015610f74576020028201919060005260206000209081546001600160a01b03168152600190910190602001808311610f56575050505050611fcf565b60028a81548110611a6057611a60612a14565b9060005260206000209060040201600201805480602002602001604051908101604052809291908181526020018280548015610ff6576020028201919060005260206000209081546001600160a01b03168152600190910190602001808311610fd8575050505050611fec565b60028981548110611ae057611ae0612a14565b90600052602060002090600402016002019080519060200190611b0492919061228a565b507f3c139d46a211844e248647688545a37c07c505c999c1232d1247c707dc0a91e26003898154811061121657611216612a14565b60025460405163123bd07560e11b815260609160009184919073__Library_______________________________90632477a0ea90611b7e9085908590600401612925565b60206040518083038186803b158015611b9657600080fd5b505af4158015611baa573d6000803e3d6000fd5b505050506040513d601f19601f82011682018060405250810190611bce9190612597565b1515600114611bef5760405162461bcd60e51b81526004016103cc90612874565b60028581548110611c0257611c02612a14565b600091825260208083206001600160a01b038a1684526004909202909101905260409020600101611c33878761135d565b818054611c3f90612992565b80601f0160208091040260200160405190810160405280929190818152602001828054611c6b90612992565b8015611cb85780601f10611c8d57610100808354040283529160200191611cb8565b820191906000526020600020905b815481529060010190602001808311611c9b57829003601f168201915b505050505091509350935050509250929050565b60025460405163123bd07560e11b8152606091829184919073__Library_______________________________90632477a0ea90611d109085908590600401612925565b60206040518083038186803b158015611d2857600080fd5b505af4158015611d3c573d6000803e3d6000fd5b505050506040513d601f19601f82011682018060405250810190611d609190612597565b1515600114611d815760405162461bcd60e51b81526004016103cc90612874565b60608615611e0d5760028681548110611d9c57611d9c612a14565b9060005260206000209060040201600201805480602002602001604051908101604052809291908181526020018280548015611e0157602002820191906000526020600020905b81546001600160a01b03168152600190910190602001808311611de3575b50505050509050611e8d565b60028681548110611e2057611e20612a14565b9060005260206000209060040201600301805480602002602001604051908101604052809291908181526020018280548015611e8557602002820191906000526020600020905b81546001600160a01b03168152600190910190602001808311611e67575b505050505090505b6002546000906001600160401b03811115611eaa57611eaa612a2a565b604051908082528060200260200182016040528015611edd57816020015b6060815260200190600190039081611ec85790505b50905060005b8251811015611f4057611f0f838281518110611f0157611f01612a14565b602002602001015189611b39565b50828281518110611f2257611f22612a14565b60200260200101819052508080611f38906129cd565b915050611ee3565b509097909650945050505050565b6000805b8251811015611faa57828181518110611f6d57611f6d612a14565b60200260200101516001600160a01b0316846001600160a01b03161415611f98576001915050610402565b80611fa2816129cd565b915050611f52565b5060009392505050565b600081831015611fc657506000610402565b50600192915050565b60006105cc6001600160a01b038416611fe78461208b565b61213c565b60606105cc73__Library_______________________________635b28cf63856120158661208b565b6040518363ffffffff1660e01b8152600401612032929190612891565b60006040518083038186803b15801561204a57600080fd5b505af415801561205e573d6000803e3d6000fd5b505050506040513d6000823e601f3d908101601f1916820160405261208691908101906124ce565b612191565b6060600082516001600160401b038111156120a8576120a8612a2a565b6040519080825280602002602001820160405280156120d1578160200160208202803683370190505b50905060005b8151811015612135578381815181106120f2576120f2612a14565b60200260200101516001600160a01b031660001b82828151811061211857612118612a14565b60209081029190910101528061212d816129cd565b9150506120d7565b5092915050565b6000805b82518110156121835782818151811061215b5761215b612a14565b6020026020010151841415612171579050610402565b8061217b816129cd565b915050612140565b5081516105cc906001612963565b6060600082516001600160401b038111156121ae576121ae612a2a565b6040519080825280602002602001820160405280156121d7578160200160208202803683370190505b50905060005b8151811015612135578381815181106121f8576121f8612a14565b602002602001015160001c82828151811061221557612215612a14565b6001600160a01b039092166020928302919091019091015280612237816129cd565b9150506121dd565b82805482825590600052602060002090810192821561227a579160200282015b8281111561227a57825182559160200191906001019061225f565b506122869291506123aa565b5090565b82805482825590600052602060002090810192821561227a579160200282015b8281111561227a57825182546001600160a01b0319166001600160a01b039091161782556020909201916001909101906122aa565b5080546122eb90612992565b6000825580601f106122fb575050565b601f01602090049060005260206000209081019061064791906123aa565b508054600082559060005260206000209081019061064791906123aa565b82805461234390612992565b90600052602060002090601f016020900481019282612365576000855561227a565b82601f1061237e57805160ff191683800117855561227a565b8280016001018555821561227a579182018281111561227a57825182559160200191906001019061225f565b5b8082111561228657600081556001016123ab565b80356001600160a01b03811681146123d657600080fd5b919050565b6000602082840312156123ed57600080fd5b6105cc826123bf565b6000806040838503121561240957600080fd5b612412836123bf565b91506020838101356001600160401b038082111561242f57600080fd5b818601915086601f83011261244357600080fd5b81358181111561245557612455612a2a565b612467601f8201601f19168501612933565b9150808252878482850101111561247d57600080fd5b80848401858401376000848284010152508093505050509250929050565b6000806000606084860312156124b057600080fd5b6124b9846123bf565b95602085013595506040909401359392505050565b600060208083850312156124e157600080fd5b82516001600160401b03808211156124f857600080fd5b818501915085601f83011261250c57600080fd5b81518181111561251e5761251e612a2a565b8060051b915061252f848301612933565b8181528481019084860184860187018a101561254a57600080fd5b600095505b8386101561256d57805183526001959095019491860191860161254f565b5098975050505050505050565b60006020828403121561258c57600080fd5b81356105cc81612a40565b6000602082840312156125a957600080fd5b81516105cc81612a40565b600080604083850312156125c757600080fd5b823591506125d7602084016123bf565b90509250929050565b600081518084526020808501945080840160005b838110156126195781516001600160a01b0316875295820195908201906001016125f4565b509495945050505050565b6000815180845260005b8181101561264a5760208185018101518683018201520161262e565b8181111561265c576000602083870101525b50601f01601f19169290920160200192915050565b6001600160a01b0392831681529116602082015260400190565b6020815260006105cc60208301846125e0565b6040815260006126b160408301856125e0565b6020838203818501528185518084528284019150828160051b85010183880160005b8381101561270157601f198784030185526126ef838351612624565b948601949250908501906001016126d3565b50909998505050505050505050565b6020808252825182820181905260009190848201906040850190845b818110156127485783518352928401929184019160010161272c565b50909695505050505050565b6040815260006127676040830185612624565b905082151560208301529392505050565b60408152600080845481600182811c91508083168061279857607f831692505b60208084108214156127b857634e487b7160e01b86526022600452602486fd5b60408801849052606088018280156127d757600181146127e857612813565b60ff19871682528282019750612813565b60008c81526020902060005b8781101561280d578154848201529086019084016127f4565b83019850505b505085965061282c8189018a6001600160a01b03169052565b5050505050509392505050565b60208082526003908201526245433560e81b604082015260600190565b60208082526004908201526322a1989960e11b604082015260600190565b60208082526003908201526245433160e81b604082015260600190565b6000604082018483526020604081850152818551808452606086019150828701935060005b818110156128d2578451835293830193918301916001016128b6565b5090979650505050505050565b60006040820184835260206040818501528185548084526060860191508660005282600020935060005b818110156128d257845483526001948501949284019201612909565b918252602082015260400190565b604051601f8201601f191681016001600160401b038111828210171561295b5761295b612a2a565b604052919050565b60008219821115612976576129766129e8565b500190565b60008282101561298d5761298d6129e8565b500390565b600181811c908216806129a657607f821691505b602082108114156129c757634e487b7160e01b600052602260045260246000fd5b50919050565b60006000198214156129e1576129e16129e8565b5060010190565b634e487b7160e01b600052601160045260246000fd5b634e487b7160e01b600052602160045260246000fd5b634e487b7160e01b600052603260045260246000fd5b634e487b7160e01b600052604160045260246000fd5b801515811461064757600080fdfea2646970667358221220f88bd77217498c7e7c34cf045aeb79ac42f89156fe8f3d6e179a39f0e6baac7e64736f6c63430008060033a26469706673582212200ce2017d8884ee6ab046de3d4e47818af6ce95a901002763346a15e62aa8163d64736f6c63430008060033",
  "immutableReferences": {},
  "source": "// SPDX-License-Identifier: GPL-3.0\r\n\r\npragma solidity >=0.7.0 <0.9.0;\r\n\r\n/**\r\n * @title Storage\r\n * @dev Store & retrieve value in a variable\r\n */\r\n\r\nimport \"./Libraries/Library.sol\";\r\nimport \"./PrivateCertificatesPool.sol\";\r\nimport \"./PublicCertificatesPool.sol\";\r\nimport \"./Treasury.sol\";\r\n\r\ncontract CertificatesPoolManager{\r\n    using Library for *;\r\n\r\n    // events\r\n    event _NewCertificatesPool(uint256, address, MultiSigCertificatesPool);\r\n    event _SendProposalId(address);\r\n\r\n    // modfiers\r\n    modifier isIdCorrect(uint Id, uint length){\r\n        require(true == Library.IdCorrect(Id, length), \"EC1\");\r\n        _;\r\n    }\r\n\r\n    modifier isFromChairPerson(){\r\n        require(msg.sender == _chairperson, \"only chair person\");\r\n        _;\r\n    }\r\n    \r\n    // Private Certificates Pool structure\r\n    struct _privateCertificatesPoolStruct{\r\n        address _creator;\r\n        PrivateCertificatesPool _PrivateCertificatesPool;\r\n    } \r\n\r\n    _privateCertificatesPoolStruct[] _PrivateCertificatesPools;\r\n    \r\n    // Public Certificates Pool structure\r\n    PublicCertificatesPool  _PublicCertificatesPool;\r\n\r\n    // Treasury\r\n    Treasury _Treasury;\r\n\r\n    address payable _chairperson;\r\n    \r\n    constructor() payable{\r\n        _chairperson = payable(msg.sender); \r\n    }\r\n\r\n    function Initialize(address PublicPoolAddress, address TreasuryAddress) \r\n        isFromChairPerson()\r\n    external{\r\n        _PublicCertificatesPool = PublicCertificatesPool(PublicPoolAddress);\r\n        _Treasury = Treasury(TreasuryAddress);\r\n        _PublicCertificatesPool.addTreasury(TreasuryAddress);\r\n    }\r\n\r\n    function createPrivateCertificatesPool(address[] memory owners,  uint256 minOwners) external\r\n    payable\r\n    {\r\n        _Treasury.payForNewPool{value:msg.value}();\r\n        PrivateCertificatesPool certificatePool = new PrivateCertificatesPool(owners, minOwners);\r\n        _privateCertificatesPoolStruct memory privateCertificatesPool = _privateCertificatesPoolStruct(msg.sender, certificatePool);\r\n        _PrivateCertificatesPools.push(privateCertificatesPool);\r\n\r\n        emit _NewCertificatesPool(_PrivateCertificatesPools.length - 1, privateCertificatesPool._creator, privateCertificatesPool._PrivateCertificatesPool);\r\n    }\r\n\r\n    function retrievePrivateCertificatesPool(uint certificatePoolId) external\r\n        isIdCorrect(certificatePoolId, _PrivateCertificatesPools.length)\r\n    view returns (address, MultiSigCertificatesPool)\r\n    {\r\n        return(_PrivateCertificatesPools[certificatePoolId]._creator, _PrivateCertificatesPools[certificatePoolId]._PrivateCertificatesPool);\r\n    }\r\n\r\n    function retrieveTotalPrivateCertificatesPool() external view returns (uint)\r\n    {\r\n        return(_PrivateCertificatesPools.length);\r\n    }\r\n    \r\n    function retrieveConfiguration() external view returns (Treasury, MultiSigCertificatesPool, address, uint) {\r\n        return (_Treasury, _PublicCertificatesPool, _chairperson, address(this).balance);\r\n    }\r\n    \r\n}",
  "sourcePath": "C:/Users/d-aam/GitHub/Certificates/contracts/CertificatesPoolManager.sol",
  "compiler": {
    "name": "solc",
    "version": "0.8.6+commit.11564f7e.Emscripten.clang"
  },
  "schemaVersion": "3.3.4",
  "updatedAt": "2021-07-20T06:33:17.326Z",
  "devdoc": {
    "kind": "dev",
    "methods": {},
    "version": 1
  },
  "userdoc": {
    "kind": "user",
    "methods": {},
    "version": 1
  }
}