{
  "contractName": "CertificatesPoolManager",
  "abi": [
    {
      "inputs": [
        {
          "internalType": "uint256",
          "name": "PropositionLifeTime",
          "type": "uint256"
        },
        {
          "internalType": "uint8",
          "name": "PropositionThresholdPercentage",
          "type": "uint8"
        },
        {
          "internalType": "uint8",
          "name": "minWeightToProposePercentage",
          "type": "uint8"
        }
      ],
      "stateMutability": "nonpayable",
      "type": "constructor"
    },
    {
      "anonymous": false,
      "inputs": [
        {
          "indexed": false,
          "internalType": "uint256",
          "name": "",
          "type": "uint256"
        },
        {
          "indexed": true,
          "internalType": "address",
          "name": "",
          "type": "address"
        },
        {
          "indexed": false,
          "internalType": "uint256",
          "name": "",
          "type": "uint256"
        },
        {
          "indexed": false,
          "internalType": "uint256",
          "name": "",
          "type": "uint256"
        }
      ],
      "name": "_AddedProposition",
      "type": "event"
    },
    {
      "anonymous": false,
      "inputs": [
        {
          "indexed": false,
          "internalType": "uint256",
          "name": "",
          "type": "uint256"
        },
        {
          "indexed": true,
          "internalType": "address",
          "name": "",
          "type": "address"
        }
      ],
      "name": "_CancelledProposition",
      "type": "event"
    },
    {
      "anonymous": false,
      "inputs": [
        {
          "indexed": false,
          "internalType": "address",
          "name": "",
          "type": "address"
        },
        {
          "indexed": false,
          "internalType": "address",
          "name": "",
          "type": "address"
        },
        {
          "indexed": false,
          "internalType": "address",
          "name": "",
          "type": "address"
        },
        {
          "indexed": false,
          "internalType": "address",
          "name": "",
          "type": "address"
        },
        {
          "indexed": false,
          "internalType": "address",
          "name": "",
          "type": "address"
        },
        {
          "indexed": false,
          "internalType": "address",
          "name": "",
          "type": "address"
        },
        {
          "indexed": false,
          "internalType": "address",
          "name": "",
          "type": "address"
        },
        {
          "indexed": false,
          "internalType": "address",
          "name": "",
          "type": "address"
        }
      ],
      "name": "_NewContracts",
      "type": "event"
    },
    {
      "anonymous": false,
      "inputs": [
        {
          "indexed": false,
          "internalType": "uint256",
          "name": "",
          "type": "uint256"
        },
        {
          "indexed": true,
          "internalType": "address",
          "name": "",
          "type": "address"
        },
        {
          "indexed": false,
          "internalType": "uint256",
          "name": "",
          "type": "uint256"
        },
        {
          "indexed": false,
          "internalType": "uint256",
          "name": "",
          "type": "uint256"
        }
      ],
      "name": "_PropositionApproved",
      "type": "event"
    },
    {
      "anonymous": false,
      "inputs": [
        {
          "indexed": false,
          "internalType": "uint256",
          "name": "",
          "type": "uint256"
        },
        {
          "indexed": true,
          "internalType": "address",
          "name": "",
          "type": "address"
        },
        {
          "indexed": false,
          "internalType": "uint256",
          "name": "",
          "type": "uint256"
        },
        {
          "indexed": false,
          "internalType": "uint256",
          "name": "",
          "type": "uint256"
        }
      ],
      "name": "_PropositionRejected",
      "type": "event"
    },
    {
      "anonymous": false,
      "inputs": [
        {
          "indexed": false,
          "internalType": "uint256",
          "name": "",
          "type": "uint256"
        },
        {
          "indexed": true,
          "internalType": "address",
          "name": "",
          "type": "address"
        },
        {
          "indexed": false,
          "internalType": "bool",
          "name": "",
          "type": "bool"
        },
        {
          "indexed": false,
          "internalType": "uint256",
          "name": "",
          "type": "uint256"
        }
      ],
      "name": "_PropositionVote",
      "type": "event"
    },
    {
      "anonymous": false,
      "inputs": [
        {
          "indexed": true,
          "internalType": "uint256",
          "name": "",
          "type": "uint256"
        },
        {
          "indexed": false,
          "internalType": "address",
          "name": "",
          "type": "address"
        },
        {
          "indexed": false,
          "internalType": "address",
          "name": "",
          "type": "address"
        },
        {
          "indexed": false,
          "internalType": "uint256",
          "name": "",
          "type": "uint256"
        }
      ],
      "name": "_UsedTokensTransfered",
      "type": "event"
    },
    {
      "inputs": [],
      "name": "cancelProposition",
      "outputs": [],
      "stateMutability": "nonpayable",
      "type": "function"
    },
    {
      "inputs": [
        {
          "internalType": "address",
          "name": "from",
          "type": "address"
        },
        {
          "internalType": "address",
          "name": "to",
          "type": "address"
        },
        {
          "internalType": "uint256",
          "name": "amount",
          "type": "uint256"
        }
      ],
      "name": "onTokenBalanceChanged",
      "outputs": [],
      "stateMutability": "nonpayable",
      "type": "function"
    },
    {
      "inputs": [],
      "name": "retrievePendingPropConfig",
      "outputs": [
        {
          "internalType": "uint256",
          "name": "",
          "type": "uint256"
        },
        {
          "internalType": "uint8",
          "name": "",
          "type": "uint8"
        },
        {
          "internalType": "uint8",
          "name": "",
          "type": "uint8"
        },
        {
          "internalType": "bool",
          "name": "",
          "type": "bool"
        }
      ],
      "stateMutability": "view",
      "type": "function"
    },
    {
      "inputs": [],
      "name": "retrievePropConfig",
      "outputs": [
        {
          "internalType": "uint256",
          "name": "",
          "type": "uint256"
        },
        {
          "internalType": "uint8",
          "name": "",
          "type": "uint8"
        },
        {
          "internalType": "uint8",
          "name": "",
          "type": "uint8"
        }
      ],
      "stateMutability": "view",
      "type": "function"
    },
    {
      "inputs": [],
      "name": "retrievePropositionStatus",
      "outputs": [
        {
          "internalType": "address",
          "name": "",
          "type": "address"
        },
        {
          "internalType": "uint256",
          "name": "",
          "type": "uint256"
        },
        {
          "internalType": "uint256",
          "name": "",
          "type": "uint256"
        },
        {
          "internalType": "uint256",
          "name": "",
          "type": "uint256"
        },
        {
          "internalType": "uint256",
          "name": "",
          "type": "uint256"
        }
      ],
      "stateMutability": "view",
      "type": "function"
    },
    {
      "inputs": [
        {
          "internalType": "uint256",
          "name": "PropLifeTime",
          "type": "uint256"
        },
        {
          "internalType": "uint8",
          "name": "PropThresholdPerc",
          "type": "uint8"
        },
        {
          "internalType": "uint8",
          "name": "minWeightToPropPerc",
          "type": "uint8"
        }
      ],
      "name": "updateProp",
      "outputs": [],
      "stateMutability": "nonpayable",
      "type": "function"
    },
    {
      "inputs": [
        {
          "internalType": "bool",
          "name": "vote",
          "type": "bool"
        }
      ],
      "name": "voteProposition",
      "outputs": [],
      "stateMutability": "nonpayable",
      "type": "function"
    },
    {
      "inputs": [
        {
          "components": [
            {
              "internalType": "address",
              "name": "NewPublicPoolAddress",
              "type": "address"
            },
            {
              "internalType": "address",
              "name": "NewTreasuryAddress",
              "type": "address"
            },
            {
              "internalType": "address",
              "name": "NewCertisTokenAddress",
              "type": "address"
            },
            {
              "internalType": "address",
              "name": "NewPrivatePoolFactoryAddress",
              "type": "address"
            },
            {
              "internalType": "address",
              "name": "NewPrivatePoolAddress",
              "type": "address"
            },
            {
              "internalType": "address",
              "name": "NewProviderFactoryAddress",
              "type": "address"
            },
            {
              "internalType": "address",
              "name": "NewProviderAddress",
              "type": "address"
            },
            {
              "internalType": "address",
              "name": "NewPriceConverterAddress",
              "type": "address"
            },
            {
              "internalType": "bytes",
              "name": "NewPublicPoolData",
              "type": "bytes"
            },
            {
              "internalType": "bytes",
              "name": "NewTreasuryData",
              "type": "bytes"
            },
            {
              "internalType": "bytes",
              "name": "NewCertisTokenData",
              "type": "bytes"
            },
            {
              "internalType": "bytes",
              "name": "NewPrivatePoolFactoryData",
              "type": "bytes"
            },
            {
              "internalType": "bytes",
              "name": "NewProviderFactoryData",
              "type": "bytes"
            },
            {
              "internalType": "bytes",
              "name": "NewPriceConverterData",
              "type": "bytes"
            }
          ],
          "internalType": "struct Library.ProposedContractsStruct",
          "name": "initialContracts",
          "type": "tuple"
        }
      ],
      "name": "InitializeContracts",
      "outputs": [],
      "stateMutability": "nonpayable",
      "type": "function"
    },
    {
      "inputs": [
        {
          "components": [
            {
              "internalType": "address",
              "name": "NewPublicPoolAddress",
              "type": "address"
            },
            {
              "internalType": "address",
              "name": "NewTreasuryAddress",
              "type": "address"
            },
            {
              "internalType": "address",
              "name": "NewCertisTokenAddress",
              "type": "address"
            },
            {
              "internalType": "address",
              "name": "NewPrivatePoolFactoryAddress",
              "type": "address"
            },
            {
              "internalType": "address",
              "name": "NewPrivatePoolAddress",
              "type": "address"
            },
            {
              "internalType": "address",
              "name": "NewProviderFactoryAddress",
              "type": "address"
            },
            {
              "internalType": "address",
              "name": "NewProviderAddress",
              "type": "address"
            },
            {
              "internalType": "address",
              "name": "NewPriceConverterAddress",
              "type": "address"
            },
            {
              "internalType": "bytes",
              "name": "NewPublicPoolData",
              "type": "bytes"
            },
            {
              "internalType": "bytes",
              "name": "NewTreasuryData",
              "type": "bytes"
            },
            {
              "internalType": "bytes",
              "name": "NewCertisTokenData",
              "type": "bytes"
            },
            {
              "internalType": "bytes",
              "name": "NewPrivatePoolFactoryData",
              "type": "bytes"
            },
            {
              "internalType": "bytes",
              "name": "NewProviderFactoryData",
              "type": "bytes"
            },
            {
              "internalType": "bytes",
              "name": "NewPriceConverterData",
              "type": "bytes"
            }
          ],
          "internalType": "struct Library.ProposedContractsStruct",
          "name": "UpgradeProposition",
          "type": "tuple"
        }
      ],
      "name": "upgradeContracts",
      "outputs": [],
      "stateMutability": "nonpayable",
      "type": "function"
    },
    {
      "inputs": [],
      "name": "retrieveProposition",
      "outputs": [
        {
          "internalType": "bytes32[]",
          "name": "",
          "type": "bytes32[]"
        }
      ],
      "stateMutability": "view",
      "type": "function"
    },
    {
      "inputs": [],
      "name": "retrievePublicCertificatePoolProxy",
      "outputs": [
        {
          "internalType": "address",
          "name": "",
          "type": "address"
        }
      ],
      "stateMutability": "view",
      "type": "function"
    },
    {
      "inputs": [],
      "name": "retrieveTreasuryProxy",
      "outputs": [
        {
          "internalType": "address",
          "name": "",
          "type": "address"
        }
      ],
      "stateMutability": "view",
      "type": "function"
    },
    {
      "inputs": [],
      "name": "retrieveCertisTokenProxy",
      "outputs": [
        {
          "internalType": "address",
          "name": "",
          "type": "address"
        }
      ],
      "stateMutability": "view",
      "type": "function"
    },
    {
      "inputs": [],
      "name": "retrievePrivatePoolFactoryProxy",
      "outputs": [
        {
          "internalType": "address",
          "name": "",
          "type": "address"
        }
      ],
      "stateMutability": "view",
      "type": "function"
    },
    {
      "inputs": [],
      "name": "retrievePrivatePoolBeacon",
      "outputs": [
        {
          "internalType": "address",
          "name": "",
          "type": "address"
        }
      ],
      "stateMutability": "view",
      "type": "function"
    },
    {
      "inputs": [],
      "name": "retrieveProviderFactoryProxy",
      "outputs": [
        {
          "internalType": "address",
          "name": "",
          "type": "address"
        }
      ],
      "stateMutability": "view",
      "type": "function"
    },
    {
      "inputs": [],
      "name": "retrieveProviderBeacon",
      "outputs": [
        {
          "internalType": "address",
          "name": "",
          "type": "address"
        }
      ],
      "stateMutability": "view",
      "type": "function"
    },
    {
      "inputs": [],
      "name": "retrievePriceConverterProxy",
      "outputs": [
        {
          "internalType": "address",
          "name": "",
          "type": "address"
        }
      ],
      "stateMutability": "view",
      "type": "function"
    },
    {
      "inputs": [],
      "name": "retrievePublicCertificatePool",
      "outputs": [
        {
          "internalType": "address",
          "name": "",
          "type": "address"
        }
      ],
      "stateMutability": "view",
      "type": "function"
    },
    {
      "inputs": [],
      "name": "retrieveTreasury",
      "outputs": [
        {
          "internalType": "address",
          "name": "",
          "type": "address"
        }
      ],
      "stateMutability": "view",
      "type": "function"
    },
    {
      "inputs": [],
      "name": "retrieveCertisToken",
      "outputs": [
        {
          "internalType": "address",
          "name": "",
          "type": "address"
        }
      ],
      "stateMutability": "view",
      "type": "function"
    },
    {
      "inputs": [],
      "name": "retrievePrivatePoolFactory",
      "outputs": [
        {
          "internalType": "address",
          "name": "",
          "type": "address"
        }
      ],
      "stateMutability": "view",
      "type": "function"
    },
    {
      "inputs": [],
      "name": "retrievePrivatePool",
      "outputs": [
        {
          "internalType": "address",
          "name": "",
          "type": "address"
        }
      ],
      "stateMutability": "view",
      "type": "function"
    },
    {
      "inputs": [],
      "name": "retrieveProviderFactory",
      "outputs": [
        {
          "internalType": "address",
          "name": "",
          "type": "address"
        }
      ],
      "stateMutability": "view",
      "type": "function"
    },
    {
      "inputs": [],
      "name": "retrieveProvider",
      "outputs": [
        {
          "internalType": "address",
          "name": "",
          "type": "address"
        }
      ],
      "stateMutability": "view",
      "type": "function"
    },
    {
      "inputs": [],
      "name": "retrievePriceConverter",
      "outputs": [
        {
          "internalType": "address",
          "name": "",
          "type": "address"
        }
      ],
      "stateMutability": "view",
      "type": "function"
    },
    {
      "inputs": [],
      "name": "isInitialized",
      "outputs": [
        {
          "internalType": "bool",
          "name": "",
          "type": "bool"
        }
      ],
      "stateMutability": "view",
      "type": "function"
    }
  ],
  "bytecode": "0x60806040523480156200001157600080fd5b50604051620052fc380380620052fc83398101604081905262000034916200088d565b6200004e8383833330620000b060201b62000ffb1760201c565b6040516200005c90620007c4565b604051809103906000f08015801562000079573d6000803e3d6000fd5b50600e80546001600160a01b0319166001600160a01b039290921691909117905550506024805460ff60a01b191690555062000a0c565b600054610100900460ff1680620000ca575060005460ff16155b620000f25760405162461bcd60e51b8152600401620000e990620008ed565b60405180910390fd5b600054610100900460ff1615801562000115576000805461ffff19166101011790555b6200012b826200017760201b620010ae1760201c565b600180546001600160a01b0319166001600160a01b03851617815560006008556200015c908790879087906200020c565b80156200016f576000805461ff00191690555b505050505050565b600054610100900460ff168062000191575060005460ff16155b620001b05760405162461bcd60e51b8152600401620000e990620008ed565b600054610100900460ff16158015620001d3576000805461ffff19166101011790555b6000805462010000600160b01b031916620100006001600160a01b03851602179055801562000208576000805461ff00191690555b5050565b82828160ff1660641015620002355760405162461bcd60e51b8152600401620000e990620008ce565b8060ff16606410156200025c5760405162461bcd60e51b8152600401620000e990620008ce565b82156200028957600a869055600b805460ff8681166101000261ffff19909216908816171790556200016f565b600c869055600d805460ff8681166101000261ffff1990921690881617179055600b805462ff0000191662010000179055600a546200016f90620002ce90426200093b565b600b5460ff166000620002e062000416565b15620003175760405162461bcd60e51b8152602060048201526005602482015264454332342d60d81b6044820152606401620000e9565b62000322336200047b565b15156001146200035d5760405162461bcd60e51b8152602060048201526005602482015264454332322d60d81b6044820152606401620000e9565b600380546001600160a01b031916331790556004839055606460ff831662000384620004fa565b62000390919062000979565b6200039c919062000956565b600555600880546002819055906000620003b683620009d8565b909155505060035460025460045460055460408051938452602084019290925282820152516001600160a01b03909216917f472501d19bf75639b2e316cd36f8568b0c3ab943b82a87de3c086c98c1929df99181900360600190a2505050565b6004546000904210156200042a5750600190565b6003546001600160a01b031615620004755762000446620005fe565b6200047560006002819055600380546001600160a01b0319169055600481905560058190556006819055600755565b50600090565b6001546000906001600160a01b03838116911614156200049d57506001919050565b6000620004aa836200060a565b90506064620004b8620004fa565b600b54620004cf9190610100900460ff1662000979565b620004db919062000956565b811115620004ec5750600192915050565b50600092915050565b919050565b60008060029054906101000a90046001600160a01b03166001600160a01b031663da3dce266040518163ffffffff1660e01b815260040160206040518083038186803b1580156200054a57600080fd5b505afa1580156200055f573d6000803e3d6000fd5b505050506040513d601f19601f8201168201806040525081019062000585919062000841565b6001600160a01b03166318160ddd6040518163ffffffff1660e01b815260040160206040518083038186803b158015620005be57600080fd5b505afa158015620005d3573d6000803e3d6000fd5b505050506040513d601f19601f82011682018060405250810190620005f9919062000873565b905090565b620006086200071a565b565b60008060029054906101000a90046001600160a01b03166001600160a01b031663da3dce266040518163ffffffff1660e01b815260040160206040518083038186803b1580156200065a57600080fd5b505afa1580156200066f573d6000803e3d6000fd5b505050506040513d601f19601f8201168201806040525081019062000695919062000841565b6040516370a0823160e01b81526001600160a01b03848116600483015291909116906370a082319060240160206040518083038186803b158015620006d957600080fd5b505afa158015620006ee573d6000803e3d6000fd5b505050506040513d601f19601f8201168201806040525081019062000714919062000873565b92915050565b600f80546001600160a01b03199081168255601080548216905560118054821690556012805482169055601380548216905560148054821690556015805482169055601680549091169055600062000774601782620007d2565b62000784600983016000620007d2565b62000794600a83016000620007d2565b620007a4600b83016000620007d2565b620007b4600c83016000620007d2565b62000208600d83016000620007d2565b6107bd8062004b3f83390190565b508054620007e0906200099b565b6000825580601f10620007f1575050565b601f01602090049060005260206000209081019062000811919062000814565b50565b5b808211156200082b576000815560010162000815565b5090565b805160ff81168114620004f557600080fd5b6000602082840312156200085457600080fd5b81516001600160a01b03811681146200086c57600080fd5b9392505050565b6000602082840312156200088657600080fd5b5051919050565b600080600060608486031215620008a357600080fd5b83519250620008b5602085016200082f565b9150620008c5604085016200082f565b90509250925092565b602080825260059082015264454332312d60d81b604082015260600190565b6020808252602e908201527f496e697469616c697a61626c653a20636f6e747261637420697320616c72656160408201526d191e481a5b9a5d1a585b1a5e995960921b606082015260800190565b60008219821115620009515762000951620009f6565b500190565b6000826200097457634e487b7160e01b600052601260045260246000fd5b500490565b6000816000190483118215151615620009965762000996620009f6565b500290565b600181811c90821680620009b057607f821691505b60208210811415620009d257634e487b7160e01b600052602260045260246000fd5b50919050565b6000600019821415620009ef57620009ef620009f6565b5060010190565b634e487b7160e01b600052601160045260246000fd5b6141238062000a1c6000396000f3fe60806040523480156200001157600080fd5b5060043610620001665760003560e01c8063029b9673146200016b57806322d929e1146200018d578063392e53cd14620001975780633c65d42714620001b55780633c7df55d14620001c75780634b19aa1614620001e057806355457ee914620001ea5780635773bc2314620001f45780635a3794e9146200020657806360255415146200021857806367717177146200022a57806375d4c6b114620002345780637c2f3aaf146200024b578063840f6d17146200025d578063856511e3146200029f57806390d138ed14620002b657806391f9167114620002ed578063a42e13391462000304578063a93316f5146200030e578063aa33380a1462000327578063ac2bb4421462000339578063c50ec82b1462000350578063d660ab34146200035a578063da3dce261462000387578063ee2aa36a1462000399578063efd15d1714620003a3578063f5ad9acc14620003ad575b600080fd5b62000175620003bf565b60405162000184919062002625565b60405180910390f35b62000175620003de565b602454600160a01b900460ff16604051901515815260200162000184565b601d546001600160a01b031662000175565b620001de620001d836600462002506565b620003f8565b005b620001756200054d565b620001de62000559565b601f546001600160a01b031662000175565b6022546001600160a01b031662000175565b6024546001600160a01b031662000175565b6200017562000697565b620001de62000245366004620025a6565b620006b1565b601e546001600160a01b031662000175565b600354600454600554600654600754604080516001600160a01b0390961686526020860194909452928401919091526060830152608082015260a00162000184565b620001de620002b0366004620025a6565b620007d2565b620002c062000806565b60405162000184949392919093845260ff9283166020850152911660408301521515606082015260800190565b620001de620002fe3660046200254c565b62000864565b620001756200099c565b62000318620009b6565b60405162000184919062002685565b6021546001600160a01b031662000175565b620001de6200034a366004620025e4565b62000fac565b6200017562000fbb565b600a54600b546040805192835260ff80831660208501526101009092049091169082015260600162000184565b6023546001600160a01b031662000175565b6200017562000fc7565b6200017562000fe1565b6020546001600160a01b031662000175565b602354600090620003d9906001600160a01b031662001143565b905090565b601f54600090620003d9906001600160a01b031662001143565b73__Library_______________________________63d1d719d0600060029054906101000a90046001600160a01b03166001600160a01b031663da3dce266040518163ffffffff1660e01b815260040160206040518083038186803b1580156200046157600080fd5b505afa15801562000476573d6000803e3d6000fd5b505050506040513d601f19601f820116820180604052508101906200049c9190620024e6565b6040518263ffffffff1660e01b8152600401620004ba919062002625565b60206040518083038186803b158015620004d357600080fd5b505af4158015620004e8573d6000803e3d6000fd5b505050506040513d601f19601f820116820180604052508101906200050e91906200256c565b15156001146200053b5760405162461bcd60e51b815260040162000532906200273f565b60405180910390fd5b62000548838383620011d0565b505050565b6000620003d9620011dd565b6001620005656200125d565b1515600114620005895760405162461bcd60e51b81526004016200053290620027ca565b600354604051630d1d719d60e41b815273__Library_______________________________9163d1d719d091620005cd916001600160a01b03169060040162002625565b60206040518083038186803b158015620005e657600080fd5b505af4158015620005fb573d6000803e3d6000fd5b505050506040513d601f19601f820116820180604052508101906200062191906200256c565b1515600114620006455760405162461bcd60e51b81526004016200053290620027e9565b6200064f6200129d565b6003546002546040519081526001600160a01b03909116907f1fe8aec10c0a50fa765076161e08c1f961ced69594ff45cf7d559f593afe14799060200160405180910390a250565b601d54600090620003d9906001600160a01b031662001143565b600154604051630d1d719d60e41b815273__Library_______________________________9163d1d719d091620006f5916001600160a01b03169060040162002625565b60206040518083038186803b1580156200070e57600080fd5b505af415801562000723573d6000803e3d6000fd5b505050506040513d601f19601f820116820180604052508101906200074991906200256c565b15156001146200076d5760405162461bcd60e51b815260040162000532906200273f565b602454600160a01b900460ff1615620007b15760405162461bcd60e51b8152602060048201526005602482015264454332362d60d81b604482015260640162000532565b620007bc81620012c8565b506024805460ff60a01b1916600160a01b179055565b80600f620007e1828262002acb565b5050600a546200080390620007f790426200286e565b600b5460ff16620016d3565b50565b600080600080600b60029054906101000a900460ff1680156200082a575060045442105b1562000851575050600c54600d5490925060ff80821692506101009091041660016200085e565b5060009250829150819050805b90919293565b6001620008706200125d565b1515600114620008945760405162461bcd60e51b81526004016200053290620027ca565b620008a533600260000154620017fc565b1515600114620008e05760405162461bcd60e51b8152602060048201526005602482015264454332332d60d81b604482015260640162000532565b6000620008f33360026000015462001815565b905082156200091f5780600260040160008282546200091391906200286e565b909155506200093c9050565b80600260050160008282546200093691906200286e565b90915550505b6002546200094c90338362001856565b600254604080519182528415156020830152810182905233907f50f654d58981575c05e369cb129aeacb01e1b036af429380242cfc5d1a4b743f9060600160405180910390a26200054862001894565b602154600090620003d9906001600160a01b031662001143565b60408051600880825261012082019092526060916000919060208201610100803683375050600f5460405163bc215e8560e01b815292935073__AddressLibrary________________________9263bc215e85925062000a23916001600160a01b03169060040162002625565b60206040518083038186803b15801562000a3c57600080fd5b505af415801562000a51573d6000803e3d6000fd5b505050506040513d601f19601f8201168201806040525081019062000a7791906200258c565b8160008151811062000a8d5762000a8d62002a70565b602090810291909101015260105460405163bc215e8560e01b815273__AddressLibrary________________________9163bc215e859162000adc916001600160a01b03169060040162002625565b60206040518083038186803b15801562000af557600080fd5b505af415801562000b0a573d6000803e3d6000fd5b505050506040513d601f19601f8201168201806040525081019062000b3091906200258c565b8160018151811062000b465762000b4662002a70565b602090810291909101015260115460405163bc215e8560e01b815273__AddressLibrary________________________9163bc215e859162000b95916001600160a01b03169060040162002625565b60206040518083038186803b15801562000bae57600080fd5b505af415801562000bc3573d6000803e3d6000fd5b505050506040513d601f19601f8201168201806040525081019062000be991906200258c565b8160028151811062000bff5762000bff62002a70565b602090810291909101015260125460405163bc215e8560e01b815273__AddressLibrary________________________9163bc215e859162000c4e916001600160a01b03169060040162002625565b60206040518083038186803b15801562000c6757600080fd5b505af415801562000c7c573d6000803e3d6000fd5b505050506040513d601f19601f8201168201806040525081019062000ca291906200258c565b8160038151811062000cb85762000cb862002a70565b602090810291909101015260135460405163bc215e8560e01b815273__AddressLibrary________________________9163bc215e859162000d07916001600160a01b03169060040162002625565b60206040518083038186803b15801562000d2057600080fd5b505af415801562000d35573d6000803e3d6000fd5b505050506040513d601f19601f8201168201806040525081019062000d5b91906200258c565b8160048151811062000d715762000d7162002a70565b602090810291909101015260145460405163bc215e8560e01b815273__AddressLibrary________________________9163bc215e859162000dc0916001600160a01b03169060040162002625565b60206040518083038186803b15801562000dd957600080fd5b505af415801562000dee573d6000803e3d6000fd5b505050506040513d601f19601f8201168201806040525081019062000e1491906200258c565b8160058151811062000e2a5762000e2a62002a70565b602090810291909101015260155460405163bc215e8560e01b815273__AddressLibrary________________________9163bc215e859162000e79916001600160a01b03169060040162002625565b60206040518083038186803b15801562000e9257600080fd5b505af415801562000ea7573d6000803e3d6000fd5b505050506040513d601f19601f8201168201806040525081019062000ecd91906200258c565b8160068151811062000ee35762000ee362002a70565b602090810291909101015260165460405163bc215e8560e01b815273__AddressLibrary________________________9163bc215e859162000f32916001600160a01b03169060040162002625565b60206040518083038186803b15801562000f4b57600080fd5b505af415801562000f60573d6000803e3d6000fd5b505050506040513d601f19601f8201168201806040525081019062000f8691906200258c565b8160078151811062000f9c5762000f9c62002a70565b6020908102919091010152919050565b620005488383836000620019ec565b6000620003d962001aae565b602454600090620003d9906001600160a01b031662001143565b602254600090620003d9906001600160a01b031662001143565b600054610100900460ff168062001015575060005460ff16155b620010345760405162461bcd60e51b815260040162000532906200277c565b600054610100900460ff1615801562001057576000805461ffff19166101011790555b6200106282620010ae565b600180546001600160a01b0319166001600160a01b03851617815560006008556200109390879087908790620019ec565b8015620010a6576000805461ff00191690555b505050505050565b600054610100900460ff1680620010c8575060005460ff16155b620010e75760405162461bcd60e51b815260040162000532906200277c565b600054610100900460ff161580156200110a576000805461ffff19166101011790555b6000805462010000600160b01b031916620100006001600160a01b0385160217905580156200113f576000805461ff00191690555b5050565b600e546040516310270e3d60e11b81526000916001600160a01b03169063204e1c7a906200117690859060040162002625565b60206040518083038186803b1580156200118f57600080fd5b505afa158015620011a4573d6000803e3d6000fd5b505050506040513d601f19601f82011682018060405250810190620011ca9190620024e6565b92915050565b6200054883838362001af4565b6020805460408051635c60da1b60e01b815290516000936001600160a01b0390931692635c60da1b9260048082019391829003018186803b1580156200122257600080fd5b505afa15801562001237573d6000803e3d6000fd5b505050506040513d601f19601f82011682018060405250810190620003d99190620024e6565b600454600090421015620012715750600190565b6003546001600160a01b03161562001297576200128d62001b16565b620012976200129d565b50600090565b60006002819055600380546001600160a01b0319169055600481905560058190556006819055600755565b620012d76020820182620024c6565b600e546001600160a01b0316620012f36101008401846200281e565b604051620013019062002444565b62001310949392919062002639565b604051809103906000f0801580156200132d573d6000803e3d6000fd5b50602180546001600160a01b0319166001600160a01b0392909216919091179055620013606040820160208301620024c6565b600e546001600160a01b03166200137c6101208401846200281e565b6040516200138a9062002444565b62001399949392919062002639565b604051809103906000f080158015620013b6573d6000803e3d6000fd5b50602280546001600160a01b0319166001600160a01b0392909216919091179055620013e96060820160408301620024c6565b600e546001600160a01b0316620014056101408401846200281e565b604051620014139062002444565b62001422949392919062002639565b604051809103906000f0801580156200143f573d6000803e3d6000fd5b50602380546001600160a01b0319166001600160a01b0392909216919091179055620014726080820160608301620024c6565b600e546001600160a01b03166200148e6101608401846200281e565b6040516200149c9062002444565b620014ab949392919062002639565b604051809103906000f080158015620014c8573d6000803e3d6000fd5b50601d80546001600160a01b0319166001600160a01b0392909216919091179055620014fb60a0820160808301620024c6565b604051620015099062002452565b62001515919062002625565b604051809103906000f08015801562001532573d6000803e3d6000fd5b50601e80546001600160a01b0319166001600160a01b03929092169190911790556200156560c0820160a08301620024c6565b600e546001600160a01b0316620015816101808401846200281e565b6040516200158f9062002444565b6200159e949392919062002639565b604051809103906000f080158015620015bb573d6000803e3d6000fd5b50601f80546001600160a01b0319166001600160a01b0392909216919091179055620015ee60e0820160c08301620024c6565b604051620015fc9062002452565b62001608919062002625565b604051809103906000f08015801562001625573d6000803e3d6000fd5b50602080546001600160a01b0319166001600160a01b039290921691909117905562001659610100820160e08301620024c6565b600e546001600160a01b0316620016756101a08401846200281e565b604051620016839062002444565b62001692949392919062002639565b604051809103906000f080158015620016af573d6000803e3d6000fd5b50602480546001600160a01b0319166001600160a01b039290921691909117905550565b6000620016df6200125d565b15620017165760405162461bcd60e51b8152602060048201526005602482015264454332342d60d81b604482015260640162000532565b620017213362001b20565b1515600114620017455760405162461bcd60e51b81526004016200053290620027e9565b600380546001600160a01b031916331790556004839055606460ff83166200176c62001b9f565b620017789190620028ac565b62001784919062002889565b6005556008805460028190559060006200179e8362002a3c565b90915550506003546002546004546005546040516001600160a01b03909416937f472501d19bf75639b2e316cd36f8568b0c3ab943b82a87de3c086c98c1929df993620017ef939092909162002808565b60405180910390a2505050565b6000806200180b848462001815565b1515949350505050565b60008181526009602090815260408083206001600160a01b0386168452909152812054620018438462001c9e565b6200184f9190620028ce565b9392505050565b60008381526009602090815260408083206001600160a01b0386168452909152812080548392906200188a9084906200286e565b9091555050505050565b60055460065411156200195b57600b5462010000900460ff1615620018f157600c54600a55600d54600b805461010080840460ff90811690910261ffff19909216931692909217919091179055620018eb62001daa565b620018fb565b620018fb62001dc8565b620019056200129d565b6003546002546006546007546040516001600160a01b03909416937f23ca0034cf5aad32571b4a492e9598ea8a490e1643a60970e3cdc6933b55e49f9362001951939092909162002808565b60405180910390a2565b6005546007541115620019ea57600b5462010000900460ff16156200198a576200198462001daa565b62001994565b6200199462001b16565b6200199e6200129d565b6003546002546006546007546040516001600160a01b03909416937fa58eb6daa3c62c3f883973c4035e5bd3e81aa627c8379de068a7de42df122be29362001951939092909162002808565b565b82828160ff166064101562001a155760405162461bcd60e51b815260040162000532906200275d565b8060ff166064101562001a3c5760405162461bcd60e51b815260040162000532906200275d565b821562001a6957600a869055600b805460ff8681166101000261ffff1990921690881617179055620010a6565b600c869055600d805460ff8681166101000261ffff1990921690881617179055600b805462ff0000191662010000179055600a54620010a690620007f790426200286e565b601e5460408051635c60da1b60e01b815290516000926001600160a01b031691635c60da1b916004808301926020929190829003018186803b1580156200122257600080fd5b62001afe6200125d565b15156001141562000548576200054883838362001dd2565b620019ea62001f4a565b6001546000906001600160a01b038381169116141562001b4257506001919050565b600062001b4f8362001c9e565b9050606462001b5d62001b9f565b600b5462001b749190610100900460ff16620028ac565b62001b80919062002889565b81111562001b915750600192915050565b50600092915050565b919050565b60008060029054906101000a90046001600160a01b03166001600160a01b031663da3dce266040518163ffffffff1660e01b815260040160206040518083038186803b15801562001bef57600080fd5b505afa15801562001c04573d6000803e3d6000fd5b505050506040513d601f19601f8201168201806040525081019062001c2a9190620024e6565b6001600160a01b03166318160ddd6040518163ffffffff1660e01b815260040160206040518083038186803b15801562001c6357600080fd5b505afa15801562001c78573d6000803e3d6000fd5b505050506040513d601f19601f82011682018060405250810190620003d991906200258c565b60008060029054906101000a90046001600160a01b03166001600160a01b031663da3dce266040518163ffffffff1660e01b815260040160206040518083038186803b15801562001cee57600080fd5b505afa15801562001d03573d6000803e3d6000fd5b505050506040513d601f19601f8201168201806040525081019062001d299190620024e6565b6001600160a01b03166370a08231836040518263ffffffff1660e01b815260040162001d56919062002625565b60206040518083038186803b15801562001d6f57600080fd5b505afa15801562001d84573d6000803e3d6000fd5b505050506040513d601f19601f82011682018060405250810190620011ca91906200258c565b6000600c55600d805461ffff19169055600b805462ff000019169055565b62001b1662001ff4565b6001600160a01b0383161580159062001e0f575060025460009081526009602090815260408083206001600160a01b038716845290915290205415155b15620005485760025460009081526009602090815260408083206001600160a01b0387168452909152902054819081111562001e6d575060025460009081526009602090815260408083206001600160a01b03871684529091529020545b60025460009081526009602090815260408083206001600160a01b03881684529091528120805483929062001ea4908490620028ce565b90915550506001600160a01b0383161562001ef65760025460009081526009602090815260408083206001600160a01b03871684529091528120805483929062001ef09084906200286e565b90915550505b600254604080516001600160a01b038088168252861660208201529081018390527f65fbd5e5dd32bea4aeca85bd0be0abf0e489d655dee888a7510d43b06dda2dba9060600160405180910390a250505050565b600f80546001600160a01b03199081168255601080548216905560118054821690556012805482169055601380548216905560148054821690556015805482169055601680549091169055600062001fa460178262002460565b62001fb460098301600062002460565b62001fc4600a8301600062002460565b62001fd4600b8301600062002460565b62001fe4600c8301600062002460565b6200113f600d8301600062002460565b602154600f5460178054620020a7936001600160a01b03908116931691906200201d90620029ff565b80601f01602080910402602001604051908101604052809291908181526020018280546200204b90620029ff565b80156200209c5780601f1062002070576101008083540402835291602001916200209c565b820191906000526020600020905b8154815290600101906020018083116200207e57829003601f168201915b505050505062002382565b60225460105460188054620020d0936001600160a01b03908116931691906200201d90620029ff565b60235460115460198054620020f9936001600160a01b03908116931691906200201d90620029ff565b601d54601254601a805462002122936001600160a01b03908116931691906200201d90620029ff565b601f54601454601b80546200214b936001600160a01b03908116931691906200201d90620029ff565b602454601654601c805462002174936001600160a01b03908116931691906200201d90620029ff565b6013546001600160a01b031615620021f157601e54601354604051631b2ce7f360e11b81526001600160a01b0392831692633659cfe692620021bc9291169060040162002625565b600060405180830381600087803b158015620021d757600080fd5b505af1158015620021ec573d6000803e3d6000fd5b505050505b6015546001600160a01b0316156200226e57602054601554604051631b2ce7f360e11b81526001600160a01b0392831692633659cfe692620022399291169060040162002625565b600060405180830381600087803b1580156200225457600080fd5b505af115801562002269573d6000803e3d6000fd5b505050505b6021547f05c04d87852a41b811d4865cafb55055b0b03dceebff609472a889585286a7dc90620022a7906001600160a01b031662001143565b602254620022be906001600160a01b031662001143565b602354620022d5906001600160a01b031662001143565b601d54620022ec906001600160a01b031662001143565b620022f662001aae565b601f546200230d906001600160a01b031662001143565b62002317620011dd565b6024546200232e906001600160a01b031662001143565b604080516001600160a01b03998a16815297891660208901529588168787015293871660608701529186166080860152851660a0850152841660c084015290921660e08201529051908190036101000190a1565b6001600160a01b0382161562000548578051156200240957600e54604051639623609d60e01b81526001600160a01b0390911690639623609d90620023d090869086908690600401620026cb565b600060405180830381600087803b158015620023eb57600080fd5b505af115801562002400573d6000803e3d6000fd5b50505050505050565b600e5460405163266a23b160e21b81526001600160a01b0385811660048301528481166024830152909116906399a88ec490604401620023d0565b610f308062002c9b83390190565b6105238062003bcb83390190565b5080546200246e90620029ff565b6000825580601f106200247f575050565b601f0160209004906000526020600020908101906200080391905b80821115620024b057600081556001016200249a565b5090565b803560ff8116811462001b9a57600080fd5b600060208284031215620024d957600080fd5b81356200184f8162002c75565b600060208284031215620024f957600080fd5b81516200184f8162002c75565b6000806000606084860312156200251c57600080fd5b8335620025298162002c75565b925060208401356200253b8162002c75565b929592945050506040919091013590565b6000602082840312156200255f57600080fd5b81356200184f8162002c8b565b6000602082840312156200257f57600080fd5b81516200184f8162002c8b565b6000602082840312156200259f57600080fd5b5051919050565b600060208284031215620025b957600080fd5b81356001600160401b03811115620025d057600080fd5b82016101c081850312156200184f57600080fd5b600080600060608486031215620025fa57600080fd5b833592506200260c60208501620024b4565b91506200261c60408501620024b4565b90509250925092565b6001600160a01b0391909116815260200190565b6001600160a01b0385811682528416602082015260606040820181905281018290526000828460808401376000608084840101526080601f19601f850116830101905095945050505050565b6020808252825182820181905260009190848201906040850190845b81811015620026bf57835183529284019291840191600101620026a1565b50909695505050505050565b600060018060a01b038086168352602081861681850152606060408501528451915081606085015260005b828110156200271457858101820151858201608001528101620026f6565b8281111562002727576000608084870101525b5050601f01601f191691909101608001949350505050565b6020808252600490820152634543382d60e01b604082015260600190565b602080825260059082015264454332312d60d81b604082015260600190565b6020808252602e908201527f496e697469616c697a61626c653a20636f6e747261637420697320616c72656160408201526d191e481a5b9a5d1a585b1a5e995960921b606082015260800190565b602080825260059082015264454332352d60d81b604082015260600190565b602080825260059082015264454332322d60d81b604082015260600190565b9283526020830191909152604082015260600190565b6000808335601e198436030181126200283657600080fd5b8301803591506001600160401b038211156200285157600080fd5b6020019150368190038213156200286757600080fd5b9250929050565b6000821982111562002884576200288462002a5a565b500190565b600082620028a757634e487b7160e01b600052601260045260246000fd5b500490565b6000816000190483118215151615620028c957620028c962002a5a565b500290565b600082821015620028e357620028e362002a5a565b500390565b601f8211156200054857600081815260208120601f850160051c81016020861015620029115750805b601f850160051c820191505b81811015620010a6578281556001016200291d565b6001600160401b038311156200294c576200294c62002a86565b62002964836200295d8354620029ff565b83620028e8565b6000601f8411600181146200299b5760008515620029825750838201355b600019600387901b1c1916600186901b178355620029f8565b600083815260209020601f19861690835b82811015620029ce5786850135825560209485019460019092019101620029ac565b5086821015620029ec5760001960f88860031b161c19848701351681555b505060018560011b0183555b5050505050565b600181811c9082168062002a1457607f821691505b6020821081141562002a3657634e487b7160e01b600052602260045260246000fd5b50919050565b600060001982141562002a535762002a5362002a5a565b5060010190565b634e487b7160e01b600052601160045260246000fd5b634e487b7160e01b600052603260045260246000fd5b634e487b7160e01b600052604160045260246000fd5b60008135620011ca8162002c75565b80546001600160a01b0319166001600160a01b0392909216919091179055565b62002ae162002ada8362002a9c565b8262002aab565b62002afd62002af36020840162002a9c565b6001830162002aab565b62002b1962002b0f6040840162002a9c565b6002830162002aab565b62002b3562002b2b6060840162002a9c565b6003830162002aab565b62002b5162002b476080840162002a9c565b6004830162002aab565b62002b6d62002b6360a0840162002a9c565b6005830162002aab565b62002b8962002b7f60c0840162002a9c565b6006830162002aab565b62002ba562002b9b60e0840162002a9c565b6007830162002aab565b62002bb56101008301836200281e565b62002bc581836008860162002932565b505062002bd76101208301836200281e565b62002be781836009860162002932565b505062002bf96101408301836200281e565b62002c098183600a860162002932565b505062002c1b6101608301836200281e565b62002c2b8183600b860162002932565b505062002c3d6101808301836200281e565b62002c4d8183600c860162002932565b505062002c5f6101a08301836200281e565b62002c6f8183600d860162002932565b50505050565b6001600160a01b03811681146200080357600080fd5b80151581146200080357600080fdfe608060405260405162000f3038038062000f308339810160408190526200002691620004c2565b82816200005560017f360894a13ba1a3210667c828492db98dca3e2076cc3735a920a3ca505d382bbd620005f5565b60008051602062000ee9833981519152146200007557620000756200064a565b6200008382826000620000e7565b50620000b3905060017fb53127684a568b3173ae13b9f8a6016e243e63b6e8ee1178d6a717850b5d6104620005f5565b60008051602062000ec983398151915214620000d357620000d36200064a565b620000de8262000124565b50505062000676565b620000f2836200017f565b600082511180620001005750805b156200011f576200011d8383620001c160201b620002601760201c565b505b505050565b7f7e644d79422f17c01e4894b5f4f588d331ebfa28653d42ae832dc59e38c9798f6200014f620001f0565b604080516001600160a01b03928316815291841660208301520160405180910390a16200017c8162000229565b50565b6200018a81620002de565b6040516001600160a01b038216907fbc7cd75a20ee27fd9adebab32041f755214dbc6bffa90cc0225b39da2e5c2d3b90600090a250565b6060620001e9838360405180606001604052806027815260200162000f096027913962000381565b9392505050565b60006200021a60008051602062000ec983398151915260001b6200045e60201b620002081760201c565b546001600160a01b0316919050565b6001600160a01b038116620002945760405162461bcd60e51b815260206004820152602660248201527f455243313936373a206e65772061646d696e20697320746865207a65726f206160448201526564647265737360d01b60648201526084015b60405180910390fd5b80620002bd60008051602062000ec983398151915260001b6200045e60201b620002081760201c565b80546001600160a01b0319166001600160a01b039290921691909117905550565b620002f4816200046160201b6200028c1760201c565b620003585760405162461bcd60e51b815260206004820152602d60248201527f455243313936373a206e657720696d706c656d656e746174696f6e206973206e60448201526c1bdd08184818dbdb9d1c9858dd609a1b60648201526084016200028b565b80620002bd60008051602062000ee983398151915260001b6200045e60201b620002081760201c565b6060833b620003e25760405162461bcd60e51b815260206004820152602660248201527f416464726573733a2064656c65676174652063616c6c20746f206e6f6e2d636f6044820152651b9d1c9858dd60d21b60648201526084016200028b565b600080856001600160a01b031685604051620003ff9190620005a2565b600060405180830381855af49150503d80600081146200043c576040519150601f19603f3d011682016040523d82523d6000602084013e62000441565b606091505b5090925090506200045482828662000467565b9695505050505050565b90565b3b151590565b6060831562000478575081620001e9565b825115620004895782518084602001fd5b8160405162461bcd60e51b81526004016200028b9190620005c0565b80516001600160a01b0381168114620004bd57600080fd5b919050565b600080600060608486031215620004d857600080fd5b620004e384620004a5565b9250620004f360208501620004a5565b60408501519092506001600160401b03808211156200051157600080fd5b818601915086601f8301126200052657600080fd5b8151818111156200053b576200053b62000660565b604051601f8201601f19908116603f0116810190838211818310171562000566576200056662000660565b816040528281528960208487010111156200058057600080fd5b620005938360208301602088016200061b565b80955050505050509250925092565b60008251620005b68184602087016200061b565b9190910192915050565b6020815260008251806020840152620005e18160408501602087016200061b565b601f01601f19169190910160400192915050565b6000828210156200061657634e487b7160e01b600052601160045260246000fd5b500390565b60005b83811015620006385781810151838201526020016200061e565b838111156200011d5750506000910152565b634e487b7160e01b600052600160045260246000fd5b634e487b7160e01b600052604160045260246000fd5b61084380620006866000396000f3fe60806040526004361061004e5760003560e01c80633659cfe6146100655780634f1ef286146100855780635c60da1b146100985780638f283970146100c9578063f851a440146100e95761005d565b3661005d5761005b6100fe565b005b61005b6100fe565b34801561007157600080fd5b5061005b61008036600461068e565b610118565b61005b6100933660046106a9565b61015f565b3480156100a457600080fd5b506100ad6101d0565b6040516001600160a01b03909116815260200160405180910390f35b3480156100d557600080fd5b5061005b6100e436600461068e565b61020b565b3480156100f557600080fd5b506100ad610235565b610106610292565b610116610111610331565b61033b565b565b61012061035f565b6001600160a01b0316336001600160a01b031614156101575761015481604051806020016040528060008152506000610380565b50565b6101546100fe565b61016761035f565b6001600160a01b0316336001600160a01b031614156101c8576101c38383838080601f01602080910402602001604051908101604052809392919081815260200183838082843760009201919091525060019250610380915050565b505050565b6101c36100fe565b60006101da61035f565b6001600160a01b0316336001600160a01b03161415610200576101fb610331565b905090565b6102086100fe565b90565b61021361035f565b6001600160a01b0316336001600160a01b0316141561015757610154816103ab565b600061023f61035f565b6001600160a01b0316336001600160a01b03161415610200576101fb61035f565b606061028583836040518060600160405280602781526020016107e7602791396103ff565b9392505050565b3b151590565b61029a61035f565b6001600160a01b0316336001600160a01b031614156101165760405162461bcd60e51b815260206004820152604260248201527f5472616e73706172656e745570677261646561626c6550726f78793a2061646d60448201527f696e2063616e6e6f742066616c6c6261636b20746f2070726f78792074617267606482015261195d60f21b608482015260a4015b60405180910390fd5b60006101fb6104d3565b3660008037600080366000845af43d6000803e80801561035a573d6000f35b3d6000fd5b60006000805160206107a78339815191525b546001600160a01b0316919050565b610389836104e9565b6000825111806103965750805b156101c3576103a58383610260565b50505050565b7f7e644d79422f17c01e4894b5f4f588d331ebfa28653d42ae832dc59e38c9798f6103d461035f565b604080516001600160a01b03928316815291841660208301520160405180910390a161015481610529565b6060833b61045e5760405162461bcd60e51b815260206004820152602660248201527f416464726573733a2064656c65676174652063616c6c20746f206e6f6e2d636f6044820152651b9d1c9858dd60d21b6064820152608401610328565b600080856001600160a01b031685604051610479919061072b565b600060405180830381855af49150503d80600081146104b4576040519150601f19603f3d011682016040523d82523d6000602084013e6104b9565b606091505b50915091506104c98282866105c0565b9695505050505050565b60006000805160206107c7833981519152610371565b6104f2816105f9565b6040516001600160a01b038216907fbc7cd75a20ee27fd9adebab32041f755214dbc6bffa90cc0225b39da2e5c2d3b90600090a250565b6001600160a01b03811661058e5760405162461bcd60e51b815260206004820152602660248201527f455243313936373a206e65772061646d696e20697320746865207a65726f206160448201526564647265737360d01b6064820152608401610328565b806000805160206107a78339815191525b80546001600160a01b0319166001600160a01b039290921691909117905550565b606083156105cf575081610285565b8251156105df5782518084602001fd5b8160405162461bcd60e51b81526004016103289190610747565b803b61065d5760405162461bcd60e51b815260206004820152602d60248201527f455243313936373a206e657720696d706c656d656e746174696f6e206973206e60448201526c1bdd08184818dbdb9d1c9858dd609a1b6064820152608401610328565b806000805160206107c783398151915261059f565b80356001600160a01b038116811461068957600080fd5b919050565b6000602082840312156106a057600080fd5b61028582610672565b6000806000604084860312156106be57600080fd5b6106c784610672565b925060208401356001600160401b03808211156106e357600080fd5b818601915086601f8301126106f757600080fd5b81358181111561070657600080fd5b87602082850101111561071857600080fd5b6020830194508093505050509250925092565b6000825161073d81846020870161077a565b9190910192915050565b602081526000825180602084015261076681604085016020870161077a565b601f01601f19169190910160400192915050565b60005b8381101561079557818101518382015260200161077d565b838111156103a5575050600091015256feb53127684a568b3173ae13b9f8a6016e243e63b6e8ee1178d6a717850b5d6103360894a13ba1a3210667c828492db98dca3e2076cc3735a920a3ca505d382bbc416464726573733a206c6f772d6c6576656c2064656c65676174652063616c6c206661696c6564a2646970667358221220db58d8e120b1ed13ae7ff8047539442f43b82b0dda12ca3e6374868f27b7761864736f6c63430008070033b53127684a568b3173ae13b9f8a6016e243e63b6e8ee1178d6a717850b5d6103360894a13ba1a3210667c828492db98dca3e2076cc3735a920a3ca505d382bbc416464726573733a206c6f772d6c6576656c2064656c65676174652063616c6c206661696c6564608060405234801561001057600080fd5b5060405161052338038061052383398101604081905261002f91610148565b61003833610047565b61004181610097565b50610178565b600080546001600160a01b038381166001600160a01b0319831681178455604051919092169283917f8be0079c531659141344cd1fd0a4f28419497f9722a3daafe3b4186f6b6457e09190a35050565b6100aa8161014260201b61021f1760201c565b6101205760405162461bcd60e51b815260206004820152603360248201527f5570677261646561626c65426561636f6e3a20696d706c656d656e746174696f60448201527f6e206973206e6f74206120636f6e747261637400000000000000000000000000606482015260840160405180910390fd5b600180546001600160a01b0319166001600160a01b0392909216919091179055565b3b151590565b60006020828403121561015a57600080fd5b81516001600160a01b038116811461017157600080fd5b9392505050565b61039c806101876000396000f3fe608060405234801561001057600080fd5b50600436106100575760003560e01c80633659cfe61461005c5780635c60da1b14610071578063715018a61461009a5780638da5cb5b146100a2578063f2fde38b146100aa575b600080fd5b61006f61006a366004610301565b6100bd565b005b6001546001600160a01b03165b6040516001600160a01b03909116815260200160405180910390f35b61006f610135565b61007e610170565b61006f6100b8366004610301565b61017f565b336100c6610170565b6001600160a01b0316146100f55760405162461bcd60e51b81526004016100ec90610331565b60405180910390fd5b6100fe81610225565b6040516001600160a01b038216907fbc7cd75a20ee27fd9adebab32041f755214dbc6bffa90cc0225b39da2e5c2d3b90600090a250565b3361013e610170565b6001600160a01b0316146101645760405162461bcd60e51b81526004016100ec90610331565b61016e60006102b1565b565b6000546001600160a01b031690565b33610188610170565b6001600160a01b0316146101ae5760405162461bcd60e51b81526004016100ec90610331565b6001600160a01b0381166102135760405162461bcd60e51b815260206004820152602660248201527f4f776e61626c653a206e6577206f776e657220697320746865207a65726f206160448201526564647265737360d01b60648201526084016100ec565b61021c816102b1565b50565b3b151590565b803b61028f5760405162461bcd60e51b815260206004820152603360248201527f5570677261646561626c65426561636f6e3a20696d706c656d656e746174696f6044820152721b881a5cc81b9bdd08184818dbdb9d1c9858dd606a1b60648201526084016100ec565b600180546001600160a01b0319166001600160a01b0392909216919091179055565b600080546001600160a01b038381166001600160a01b0319831681178455604051919092169283917f8be0079c531659141344cd1fd0a4f28419497f9722a3daafe3b4186f6b6457e09190a35050565b60006020828403121561031357600080fd5b81356001600160a01b038116811461032a57600080fd5b9392505050565b6020808252818101527f4f776e61626c653a2063616c6c6572206973206e6f7420746865206f776e657260408201526060019056fea2646970667358221220b2593c385f6cf6c9fa6cd30320e4dd979200197a740c0d3f946507d201c8795d64736f6c63430008070033a26469706673582212204ff152edafd93dd0178b2e0d514214d5672b39141d812b6b3a977600ee8e3f1164736f6c63430008070033608060405234801561001057600080fd5b5061001a3361001f565b61006f565b600080546001600160a01b038381166001600160a01b0319831681178455604051919092169283917f8be0079c531659141344cd1fd0a4f28419497f9722a3daafe3b4186f6b6457e09190a35050565b61073f8061007e6000396000f3fe60806040526004361061006b5760003560e01c8063204e1c7a14610070578063715018a6146100a65780637eff275e146100bd5780638da5cb5b146100dd5780639623609d146100f257806399a88ec414610105578063f2fde38b14610125578063f3b7dead14610145575b600080fd5b34801561007c57600080fd5b5061009061008b3660046104e1565b610165565b60405161009d9190610630565b60405180910390f35b3480156100b257600080fd5b506100bb6101f6565b005b3480156100c957600080fd5b506100bb6100d8366004610522565b61023a565b3480156100e957600080fd5b506100906102cb565b6100bb61010036600461055b565b6102da565b34801561011157600080fd5b506100bb610120366004610522565b610370565b34801561013157600080fd5b506100bb6101403660046104e1565b6103cb565b34801561015157600080fd5b506100906101603660046104e1565b61046b565b6000806000836001600160a01b031660405161018b90635c60da1b60e01b815260040190565b600060405180830381855afa9150503d80600081146101c6576040519150601f19603f3d011682016040523d82523d6000602084013e6101cb565b606091505b5091509150816101da57600080fd5b808060200190518101906101ee9190610505565b949350505050565b336101ff6102cb565b6001600160a01b03161461022e5760405162461bcd60e51b8152600401610225906106a9565b60405180910390fd5b6102386000610491565b565b336102436102cb565b6001600160a01b0316146102695760405162461bcd60e51b8152600401610225906106a9565b6040516308f2839760e41b81526001600160a01b03831690638f28397090610295908490600401610630565b600060405180830381600087803b1580156102af57600080fd5b505af11580156102c3573d6000803e3d6000fd5b505050505050565b6000546001600160a01b031690565b336102e36102cb565b6001600160a01b0316146103095760405162461bcd60e51b8152600401610225906106a9565b60405163278f794360e11b81526001600160a01b03841690634f1ef2869034906103399086908690600401610644565b6000604051808303818588803b15801561035257600080fd5b505af1158015610366573d6000803e3d6000fd5b5050505050505050565b336103796102cb565b6001600160a01b03161461039f5760405162461bcd60e51b8152600401610225906106a9565b604051631b2ce7f360e11b81526001600160a01b03831690633659cfe690610295908490600401610630565b336103d46102cb565b6001600160a01b0316146103fa5760405162461bcd60e51b8152600401610225906106a9565b6001600160a01b03811661045f5760405162461bcd60e51b815260206004820152602660248201527f4f776e61626c653a206e6577206f776e657220697320746865207a65726f206160448201526564647265737360d01b6064820152608401610225565b61046881610491565b50565b6000806000836001600160a01b031660405161018b906303e1469160e61b815260040190565b600080546001600160a01b038381166001600160a01b0319831681178455604051919092169283917f8be0079c531659141344cd1fd0a4f28419497f9722a3daafe3b4186f6b6457e09190a35050565b6000602082840312156104f357600080fd5b81356104fe816106f4565b9392505050565b60006020828403121561051757600080fd5b81516104fe816106f4565b6000806040838503121561053557600080fd5b8235610540816106f4565b91506020830135610550816106f4565b809150509250929050565b60008060006060848603121561057057600080fd5b833561057b816106f4565b9250602084013561058b816106f4565b915060408401356001600160401b03808211156105a757600080fd5b818601915086601f8301126105bb57600080fd5b8135818111156105cd576105cd6106de565b604051601f8201601f19908116603f011681019083821181831017156105f5576105f56106de565b8160405282815289602084870101111561060e57600080fd5b8260208601602083013760006020848301015280955050505050509250925092565b6001600160a01b0391909116815260200190565b60018060a01b038316815260006020604081840152835180604085015260005b8181101561068057858101830151858201606001528201610664565b81811115610692576000606083870101525b50601f01601f191692909201606001949350505050565b6020808252818101527f4f776e61626c653a2063616c6c6572206973206e6f7420746865206f776e6572604082015260600190565b634e487b7160e01b600052604160045260246000fd5b6001600160a01b038116811461046857600080fdfea264697066735822122092f01e637c0a0a2dbac5a2f4c9b17ffab86f6ccb9b1ed2db5004c2f02ba3e97e64736f6c63430008070033",
  "immutableReferences": {},
  "source": "// SPDX-License-Identifier: GPL-3.0\r\n\r\npragma solidity >=0.7.0 <0.9.0;\r\n\r\n/**\r\n * @title Storage\r\n * @dev Store & retrieve value in a variable\r\n */\r\n\r\nimport \"../Interfaces/IProxyManager.sol\";\r\nimport \"../Base/TokenGovernanceBaseContract.sol\";\r\nimport \"../Libraries/AddressLibrary.sol\";\r\nimport \"../Libraries/Library.sol\";\r\nimport \"@openzeppelin/contracts-upgradeable/proxy/utils/Initializable.sol\";\r\nimport \"@openzeppelin/contracts/proxy/beacon/UpgradeableBeacon.sol\";\r\nimport \"@openzeppelin/contracts/proxy/transparent/TransparentUpgradeableProxy.sol\";\r\nimport \"@openzeppelin/contracts/proxy/transparent/ProxyAdmin.sol\";\r\n\r\n\r\ncontract CertificatesPoolManager is IProxyManager, TokenGovernanceBaseContract{\r\n    using AddressLibrary for *;\r\n    using Library for *;\r\n\r\n    // EVENTS /////////////////////////////////////////\r\n    event _NewContracts(address, address, address, address, address, address, address, address);\r\n\r\n    // DATA /////////////////////////////////////////\r\n    // Admin Proxy to manage all the TransparentUpgradeableProxies\r\n    ProxyAdmin private _Admin;\r\n\r\n    // proposition to change\r\n    Library.ProposedContractsStruct private _ProposedContracts;\r\n    \r\n    // Private Certificate Pools Factory\r\n    TransparentUpgradeableProxy private _PrivatePoolFactory;\r\n\r\n    // Private Certificates Pool\r\n    UpgradeableBeacon private _PrivateCertificatePoolBeacon;\r\n\r\n    // Provider Factory\r\n    TransparentUpgradeableProxy private _ProviderFactory;\r\n\r\n    // Provider\r\n    UpgradeableBeacon private _ProviderBeacon;\r\n\r\n    // Public Certificates Pool\r\n    TransparentUpgradeableProxy private _PublicCertificatesPool;\r\n\r\n    // Treasury\r\n    //GenericProxy private _Treasury;\r\n    TransparentUpgradeableProxy private _Treasury;\r\n\r\n    // Certis Token\r\n    TransparentUpgradeableProxy private _CertisToken;\r\n\r\n    // Price Converter\r\n    TransparentUpgradeableProxy private _PriceConverter;\r\n\r\n    // init\r\n    bool private _init;\r\n\r\n    // MODIFIERS /////////////////////////////////////////\r\n    modifier isNotInitialized(){\r\n        require(false == _init, \"EC26-\");\r\n        _;\r\n    }\r\n\r\n    // CONSTRUCTOR and INITIALIZATION /////////////////////////////////////////\r\n    constructor(uint256 PropositionLifeTime, uint8 PropositionThresholdPercentage, uint8 minWeightToProposePercentage) \r\n    {\r\n        super.TokenGovernanceContract_init(PropositionLifeTime, PropositionThresholdPercentage, minWeightToProposePercentage, msg.sender, address(this));\r\n        _Admin = new ProxyAdmin();\r\n        _init = false;\r\n    }\r\n\r\n    function InitializeContracts(Library.ProposedContractsStruct calldata initialContracts) \r\n        isFromChairPerson()\r\n        isNotInitialized()\r\n    external override\r\n    {\r\n        initProxies(initialContracts);\r\n        _init = true;\r\n    }\r\n\r\n    // FUNCTIONALITY /////////////////////////////////////////\r\n    // governance : contracts assignment and management\r\n    function upgradeContracts(Library.ProposedContractsStruct calldata UpgradeProposition) external override\r\n    {\r\n        _ProposedContracts = UpgradeProposition;\r\n        addProposition(block.timestamp + _PropositionLifeTime, _PropositionThresholdPercentage);\r\n    }\r\n\r\n    function propositionApproved() internal override\r\n    {\r\n        upgradeContractsImplementations();\r\n        removeProposition();\r\n    }\r\n\r\n    function propositionRejected() internal override\r\n    {\r\n        removeProposition();\r\n    }\r\n\r\n    function propositionExpired() internal override\r\n    {\r\n        removeProposition();\r\n    }\r\n\r\n    function removeProposition() internal\r\n    {\r\n       delete(_ProposedContracts);\r\n    }\r\n\r\n    function retrieveProposition() external override view returns(bytes32[] memory)\r\n    {\r\n        bytes32[] memory proposition = new bytes32[](8);\r\n        proposition[0] = AddressLibrary.AddressToBytes32(_ProposedContracts.NewPublicPoolAddress);\r\n        proposition[1] = AddressLibrary.AddressToBytes32(_ProposedContracts.NewTreasuryAddress);\r\n        proposition[2] = AddressLibrary.AddressToBytes32(_ProposedContracts.NewCertisTokenAddress);\r\n        proposition[3] = AddressLibrary.AddressToBytes32(_ProposedContracts.NewPrivatePoolFactoryAddress);\r\n        proposition[4] = AddressLibrary.AddressToBytes32(_ProposedContracts.NewPrivatePoolAddress);\r\n        proposition[5] = AddressLibrary.AddressToBytes32(_ProposedContracts.NewProviderFactoryAddress);\r\n        proposition[6] = AddressLibrary.AddressToBytes32(_ProposedContracts.NewProviderAddress);\r\n        proposition[7] = AddressLibrary.AddressToBytes32(_ProposedContracts.NewPriceConverterAddress);\r\n        return proposition;\r\n    }\r\n\r\n    function initProxies(Library.ProposedContractsStruct calldata initialContracts) private\r\n    {\r\n        _PublicCertificatesPool = new TransparentUpgradeableProxy(initialContracts.NewPublicPoolAddress, address(_Admin), initialContracts.NewPublicPoolData);\r\n        _Treasury = new TransparentUpgradeableProxy(initialContracts.NewTreasuryAddress, address(_Admin), initialContracts.NewTreasuryData);\r\n        _CertisToken = new TransparentUpgradeableProxy(initialContracts.NewCertisTokenAddress, address(_Admin), initialContracts.NewCertisTokenData);\r\n        _PrivatePoolFactory = new TransparentUpgradeableProxy(initialContracts.NewPrivatePoolFactoryAddress, address(_Admin), initialContracts.NewPrivatePoolFactoryData);\r\n        _PrivateCertificatePoolBeacon = new UpgradeableBeacon(initialContracts.NewPrivatePoolAddress);\r\n        _ProviderFactory = new TransparentUpgradeableProxy(initialContracts.NewProviderFactoryAddress, address(_Admin), initialContracts.NewProviderFactoryData);\r\n        _ProviderBeacon = new UpgradeableBeacon(initialContracts.NewProviderAddress);\r\n        _PriceConverter = new TransparentUpgradeableProxy(initialContracts.NewPriceConverterAddress, address(_Admin), initialContracts.NewPriceConverterData);\r\n    }\r\n\r\n    function upgradeContractsImplementations() private\r\n    {\r\n        upgradeContractImplementation(_PublicCertificatesPool, _ProposedContracts.NewPublicPoolAddress, _ProposedContracts.NewPublicPoolData);\r\n        upgradeContractImplementation(_Treasury, _ProposedContracts.NewTreasuryAddress, _ProposedContracts.NewTreasuryData);\r\n        upgradeContractImplementation(_CertisToken, _ProposedContracts.NewCertisTokenAddress, _ProposedContracts.NewCertisTokenData);\r\n        upgradeContractImplementation(_PrivatePoolFactory, _ProposedContracts.NewPrivatePoolFactoryAddress, _ProposedContracts.NewPrivatePoolFactoryData);\r\n        upgradeContractImplementation(_ProviderFactory, _ProposedContracts.NewProviderFactoryAddress, _ProposedContracts.NewProviderFactoryData);\r\n        upgradeContractImplementation(_PriceConverter, _ProposedContracts.NewPriceConverterAddress, _ProposedContracts.NewPriceConverterData);\r\n\r\n        if(address(0) != _ProposedContracts.NewPrivatePoolAddress)_PrivateCertificatePoolBeacon.upgradeTo(_ProposedContracts.NewPrivatePoolAddress);\r\n        if(address(0) != _ProposedContracts.NewProviderAddress)_ProviderBeacon.upgradeTo(_ProposedContracts.NewProviderAddress);\r\n\r\n        emit _NewContracts(internalRetrieveImpl(_PublicCertificatesPool), internalRetrieveImpl(_Treasury), \r\n        internalRetrieveImpl(_CertisToken), internalRetrieveImpl(_PrivatePoolFactory), \r\n        internalRetrievePrivatePool(), internalRetrieveImpl(_ProviderFactory), internalRetrieveProvider(),\r\n        internalRetrieveImpl(_PriceConverter));\r\n    }\r\n\r\n    function upgradeContractImplementation(TransparentUpgradeableProxy proxy, address NewImpl, bytes memory Data) private{\r\n        if(address(0) != NewImpl){\r\n            if(0 < Data.length)_Admin.upgradeAndCall(proxy, NewImpl, Data);\r\n            else _Admin.upgrade(proxy, NewImpl);\r\n        }\r\n    }\r\n\r\n    function InternalonTokenBalanceChanged(address from, address to, uint256 amount) internal override\r\n    {\r\n        super.InternalonTokenBalanceChanged(from, to, amount);\r\n    }\r\n\r\n    // configuration Proxies\r\n    function retrievePublicCertificatePoolProxy() external override view returns (address) {\r\n        return (address(_PublicCertificatesPool));\r\n    }\r\n\r\n    function retrieveTreasuryProxy() external override view returns (address) {\r\n        return (address(_Treasury));\r\n    }\r\n\r\n    function retrieveCertisTokenProxy() external override view returns (address) {\r\n        return (address(_CertisToken));\r\n    }\r\n\r\n    function retrievePrivatePoolFactoryProxy() external override view returns (address) {\r\n        return (address(_PrivatePoolFactory));\r\n    }\r\n\r\n    function retrievePrivatePoolBeacon() external override view returns (address) {\r\n        return (address(_PrivateCertificatePoolBeacon));\r\n    }\r\n\r\n    function retrieveProviderFactoryProxy() external override view returns (address) {\r\n        return (address(_ProviderFactory));\r\n    }\r\n\r\n    function retrieveProviderBeacon() external override view returns (address) {\r\n        return (address(_ProviderBeacon));\r\n    }\r\n\r\n     function retrievePriceConverterProxy() external override view returns (address) {\r\n        return (address(_PriceConverter));\r\n    }\r\n\r\n    // configuration implementations\r\n    function retrievePublicCertificatePool() external override view returns (address) {\r\n        return internalRetrieveImpl(_PublicCertificatesPool);\r\n    }\r\n\r\n    function retrieveTreasury() external override view returns (address) {\r\n        return internalRetrieveImpl(_Treasury);\r\n    }\r\n\r\n    function retrieveCertisToken() external override view returns (address) {\r\n        return internalRetrieveImpl(_CertisToken);\r\n    }\r\n\r\n    function retrievePrivatePoolFactory() external override view returns (address) {\r\n        return internalRetrieveImpl(_PrivatePoolFactory);\r\n    }\r\n\r\n    function retrievePrivatePool() external override view returns (address) {\r\n        return internalRetrievePrivatePool();\r\n    }\r\n\r\n    function retrieveProviderFactory() external override view returns (address) {\r\n        return internalRetrieveImpl(_ProviderFactory);\r\n    }\r\n\r\n    function retrieveProvider() external override view returns (address) {\r\n        return internalRetrieveProvider();\r\n    }\r\n\r\n    function retrievePriceConverter() external override view returns (address) {\r\n        return internalRetrieveImpl(_PriceConverter);\r\n    }\r\n\r\n    function isInitialized() external override view returns(bool){\r\n        return _init;\r\n    }\r\n\r\n    // internal\r\n    function internalRetrieveImpl(TransparentUpgradeableProxy proxy) internal view returns (address){\r\n        return _Admin.getProxyImplementation(proxy);\r\n    }\r\n\r\n    function internalRetrievePrivatePool() internal view returns (address) {\r\n        return _PrivateCertificatePoolBeacon.implementation();\r\n    }\r\n\r\n    function internalRetrieveProvider() internal view returns (address) {\r\n        return _ProviderBeacon.implementation();\r\n    }\r\n  \r\n}",
  "sourcePath": "C:/Users/d-aam/GitHub/Certificates/contracts/DeployedContracts/CertificatesPoolManager.sol",
  "compiler": {
    "name": "solc",
    "version": "0.8.7+commit.e28d00a7.Emscripten.clang"
  },
  "schemaVersion": "3.3.4",
  "updatedAt": "2021-08-31T09:45:31.048Z",
  "devdoc": {
    "kind": "dev",
    "methods": {},
    "version": 1
  },
  "userdoc": {
    "kind": "user",
    "methods": {},
    "version": 1
  }
}