{
  "contractName": "CertificatesPoolManager",
  "abi": [
    {
      "inputs": [
        {
          "internalType": "uint256",
          "name": "PropositionLifeTime",
          "type": "uint256"
        },
        {
          "internalType": "uint8",
          "name": "PropositionThresholdPercentage",
          "type": "uint8"
        },
        {
          "internalType": "uint8",
          "name": "minWeightToProposePercentage",
          "type": "uint8"
        }
      ],
      "stateMutability": "nonpayable",
      "type": "constructor"
    },
    {
      "anonymous": false,
      "inputs": [
        {
          "indexed": false,
          "internalType": "uint256",
          "name": "",
          "type": "uint256"
        },
        {
          "indexed": true,
          "internalType": "address",
          "name": "",
          "type": "address"
        },
        {
          "indexed": false,
          "internalType": "uint256",
          "name": "",
          "type": "uint256"
        },
        {
          "indexed": false,
          "internalType": "uint256",
          "name": "",
          "type": "uint256"
        }
      ],
      "name": "_AddedProposition",
      "type": "event"
    },
    {
      "anonymous": false,
      "inputs": [
        {
          "indexed": false,
          "internalType": "uint256",
          "name": "",
          "type": "uint256"
        },
        {
          "indexed": true,
          "internalType": "address",
          "name": "",
          "type": "address"
        }
      ],
      "name": "_CancelledProposition",
      "type": "event"
    },
    {
      "anonymous": false,
      "inputs": [
        {
          "indexed": false,
          "internalType": "address",
          "name": "",
          "type": "address"
        },
        {
          "indexed": false,
          "internalType": "address",
          "name": "",
          "type": "address"
        },
        {
          "indexed": false,
          "internalType": "address",
          "name": "",
          "type": "address"
        },
        {
          "indexed": false,
          "internalType": "address",
          "name": "",
          "type": "address"
        },
        {
          "indexed": false,
          "internalType": "address",
          "name": "",
          "type": "address"
        },
        {
          "indexed": false,
          "internalType": "address",
          "name": "",
          "type": "address"
        },
        {
          "indexed": false,
          "internalType": "address",
          "name": "",
          "type": "address"
        },
        {
          "indexed": false,
          "internalType": "address",
          "name": "",
          "type": "address"
        }
      ],
      "name": "_NewContracts",
      "type": "event"
    },
    {
      "anonymous": false,
      "inputs": [
        {
          "indexed": false,
          "internalType": "uint256",
          "name": "",
          "type": "uint256"
        },
        {
          "indexed": true,
          "internalType": "address",
          "name": "",
          "type": "address"
        },
        {
          "indexed": false,
          "internalType": "uint256",
          "name": "",
          "type": "uint256"
        },
        {
          "indexed": false,
          "internalType": "uint256",
          "name": "",
          "type": "uint256"
        }
      ],
      "name": "_PropositionApproved",
      "type": "event"
    },
    {
      "anonymous": false,
      "inputs": [
        {
          "indexed": false,
          "internalType": "uint256",
          "name": "",
          "type": "uint256"
        },
        {
          "indexed": true,
          "internalType": "address",
          "name": "",
          "type": "address"
        },
        {
          "indexed": false,
          "internalType": "uint256",
          "name": "",
          "type": "uint256"
        },
        {
          "indexed": false,
          "internalType": "uint256",
          "name": "",
          "type": "uint256"
        }
      ],
      "name": "_PropositionRejected",
      "type": "event"
    },
    {
      "anonymous": false,
      "inputs": [
        {
          "indexed": false,
          "internalType": "uint256",
          "name": "",
          "type": "uint256"
        },
        {
          "indexed": true,
          "internalType": "address",
          "name": "",
          "type": "address"
        },
        {
          "indexed": false,
          "internalType": "bool",
          "name": "",
          "type": "bool"
        },
        {
          "indexed": false,
          "internalType": "uint256",
          "name": "",
          "type": "uint256"
        }
      ],
      "name": "_PropositionVote",
      "type": "event"
    },
    {
      "anonymous": false,
      "inputs": [
        {
          "indexed": true,
          "internalType": "uint256",
          "name": "",
          "type": "uint256"
        },
        {
          "indexed": false,
          "internalType": "address",
          "name": "",
          "type": "address"
        },
        {
          "indexed": false,
          "internalType": "address",
          "name": "",
          "type": "address"
        },
        {
          "indexed": false,
          "internalType": "uint256",
          "name": "",
          "type": "uint256"
        }
      ],
      "name": "_UsedTokensTransfered",
      "type": "event"
    },
    {
      "inputs": [],
      "name": "cancelProposition",
      "outputs": [],
      "stateMutability": "nonpayable",
      "type": "function"
    },
    {
      "inputs": [
        {
          "internalType": "address",
          "name": "from",
          "type": "address"
        },
        {
          "internalType": "address",
          "name": "to",
          "type": "address"
        },
        {
          "internalType": "uint256",
          "name": "amount",
          "type": "uint256"
        }
      ],
      "name": "onTokenBalanceChanged",
      "outputs": [],
      "stateMutability": "nonpayable",
      "type": "function"
    },
    {
      "inputs": [],
      "name": "retrievePendingPropConfig",
      "outputs": [
        {
          "internalType": "uint256",
          "name": "",
          "type": "uint256"
        },
        {
          "internalType": "uint8",
          "name": "",
          "type": "uint8"
        },
        {
          "internalType": "uint8",
          "name": "",
          "type": "uint8"
        },
        {
          "internalType": "bool",
          "name": "",
          "type": "bool"
        }
      ],
      "stateMutability": "view",
      "type": "function"
    },
    {
      "inputs": [],
      "name": "retrievePropConfig",
      "outputs": [
        {
          "internalType": "uint256",
          "name": "",
          "type": "uint256"
        },
        {
          "internalType": "uint8",
          "name": "",
          "type": "uint8"
        },
        {
          "internalType": "uint8",
          "name": "",
          "type": "uint8"
        }
      ],
      "stateMutability": "view",
      "type": "function"
    },
    {
      "inputs": [],
      "name": "retrievePropositionStatus",
      "outputs": [
        {
          "internalType": "address",
          "name": "",
          "type": "address"
        },
        {
          "internalType": "uint256",
          "name": "",
          "type": "uint256"
        },
        {
          "internalType": "uint256",
          "name": "",
          "type": "uint256"
        },
        {
          "internalType": "uint256",
          "name": "",
          "type": "uint256"
        },
        {
          "internalType": "uint256",
          "name": "",
          "type": "uint256"
        }
      ],
      "stateMutability": "view",
      "type": "function"
    },
    {
      "inputs": [
        {
          "internalType": "uint256",
          "name": "PropId",
          "type": "uint256"
        },
        {
          "internalType": "address",
          "name": "voter",
          "type": "address"
        }
      ],
      "name": "retrieveVotesForVoter",
      "outputs": [
        {
          "internalType": "uint256",
          "name": "",
          "type": "uint256"
        }
      ],
      "stateMutability": "view",
      "type": "function"
    },
    {
      "inputs": [
        {
          "internalType": "uint256",
          "name": "PropLifeTime",
          "type": "uint256"
        },
        {
          "internalType": "uint8",
          "name": "PropThresholdPerc",
          "type": "uint8"
        },
        {
          "internalType": "uint8",
          "name": "minWeightToPropPerc",
          "type": "uint8"
        }
      ],
      "name": "updateProp",
      "outputs": [],
      "stateMutability": "nonpayable",
      "type": "function"
    },
    {
      "inputs": [
        {
          "internalType": "bool",
          "name": "vote",
          "type": "bool"
        }
      ],
      "name": "voteProposition",
      "outputs": [],
      "stateMutability": "nonpayable",
      "type": "function"
    },
    {
      "inputs": [
        {
          "components": [
            {
              "internalType": "address",
              "name": "NewPublicPoolAddress",
              "type": "address"
            },
            {
              "internalType": "address",
              "name": "NewTreasuryAddress",
              "type": "address"
            },
            {
              "internalType": "address",
              "name": "NewCertisTokenAddress",
              "type": "address"
            },
            {
              "internalType": "address",
              "name": "NewPrivatePoolFactoryAddress",
              "type": "address"
            },
            {
              "internalType": "address",
              "name": "NewPrivatePoolAddress",
              "type": "address"
            },
            {
              "internalType": "address",
              "name": "NewProviderFactoryAddress",
              "type": "address"
            },
            {
              "internalType": "address",
              "name": "NewProviderAddress",
              "type": "address"
            },
            {
              "internalType": "address",
              "name": "NewPriceConverterAddress",
              "type": "address"
            },
            {
              "internalType": "bytes",
              "name": "NewPublicPoolData",
              "type": "bytes"
            },
            {
              "internalType": "bytes",
              "name": "NewTreasuryData",
              "type": "bytes"
            },
            {
              "internalType": "bytes",
              "name": "NewCertisTokenData",
              "type": "bytes"
            },
            {
              "internalType": "bytes",
              "name": "NewPrivatePoolFactoryData",
              "type": "bytes"
            },
            {
              "internalType": "bytes",
              "name": "NewProviderFactoryData",
              "type": "bytes"
            },
            {
              "internalType": "bytes",
              "name": "NewPriceConverterData",
              "type": "bytes"
            }
          ],
          "internalType": "struct Library.ProposedContractsStruct",
          "name": "initialContracts",
          "type": "tuple"
        }
      ],
      "name": "InitializeContracts",
      "outputs": [],
      "stateMutability": "nonpayable",
      "type": "function"
    },
    {
      "inputs": [
        {
          "components": [
            {
              "internalType": "address",
              "name": "NewPublicPoolAddress",
              "type": "address"
            },
            {
              "internalType": "address",
              "name": "NewTreasuryAddress",
              "type": "address"
            },
            {
              "internalType": "address",
              "name": "NewCertisTokenAddress",
              "type": "address"
            },
            {
              "internalType": "address",
              "name": "NewPrivatePoolFactoryAddress",
              "type": "address"
            },
            {
              "internalType": "address",
              "name": "NewPrivatePoolAddress",
              "type": "address"
            },
            {
              "internalType": "address",
              "name": "NewProviderFactoryAddress",
              "type": "address"
            },
            {
              "internalType": "address",
              "name": "NewProviderAddress",
              "type": "address"
            },
            {
              "internalType": "address",
              "name": "NewPriceConverterAddress",
              "type": "address"
            },
            {
              "internalType": "bytes",
              "name": "NewPublicPoolData",
              "type": "bytes"
            },
            {
              "internalType": "bytes",
              "name": "NewTreasuryData",
              "type": "bytes"
            },
            {
              "internalType": "bytes",
              "name": "NewCertisTokenData",
              "type": "bytes"
            },
            {
              "internalType": "bytes",
              "name": "NewPrivatePoolFactoryData",
              "type": "bytes"
            },
            {
              "internalType": "bytes",
              "name": "NewProviderFactoryData",
              "type": "bytes"
            },
            {
              "internalType": "bytes",
              "name": "NewPriceConverterData",
              "type": "bytes"
            }
          ],
          "internalType": "struct Library.ProposedContractsStruct",
          "name": "UpgradeProposition",
          "type": "tuple"
        }
      ],
      "name": "upgradeContracts",
      "outputs": [],
      "stateMutability": "nonpayable",
      "type": "function"
    },
    {
      "inputs": [],
      "name": "retrieveProposition",
      "outputs": [
        {
          "internalType": "bytes32[]",
          "name": "",
          "type": "bytes32[]"
        }
      ],
      "stateMutability": "view",
      "type": "function"
    },
    {
      "inputs": [],
      "name": "retrievePublicCertificatePoolProxy",
      "outputs": [
        {
          "internalType": "address",
          "name": "",
          "type": "address"
        }
      ],
      "stateMutability": "view",
      "type": "function"
    },
    {
      "inputs": [],
      "name": "retrieveTreasuryProxy",
      "outputs": [
        {
          "internalType": "address",
          "name": "",
          "type": "address"
        }
      ],
      "stateMutability": "view",
      "type": "function"
    },
    {
      "inputs": [],
      "name": "retrieveCertisTokenProxy",
      "outputs": [
        {
          "internalType": "address",
          "name": "",
          "type": "address"
        }
      ],
      "stateMutability": "view",
      "type": "function"
    },
    {
      "inputs": [],
      "name": "retrievePrivatePoolFactoryProxy",
      "outputs": [
        {
          "internalType": "address",
          "name": "",
          "type": "address"
        }
      ],
      "stateMutability": "view",
      "type": "function"
    },
    {
      "inputs": [],
      "name": "retrievePrivatePoolBeacon",
      "outputs": [
        {
          "internalType": "address",
          "name": "",
          "type": "address"
        }
      ],
      "stateMutability": "view",
      "type": "function"
    },
    {
      "inputs": [],
      "name": "retrieveProviderFactoryProxy",
      "outputs": [
        {
          "internalType": "address",
          "name": "",
          "type": "address"
        }
      ],
      "stateMutability": "view",
      "type": "function"
    },
    {
      "inputs": [],
      "name": "retrieveProviderBeacon",
      "outputs": [
        {
          "internalType": "address",
          "name": "",
          "type": "address"
        }
      ],
      "stateMutability": "view",
      "type": "function"
    },
    {
      "inputs": [],
      "name": "retrievePriceConverterProxy",
      "outputs": [
        {
          "internalType": "address",
          "name": "",
          "type": "address"
        }
      ],
      "stateMutability": "view",
      "type": "function"
    },
    {
      "inputs": [],
      "name": "retrievePublicCertificatePool",
      "outputs": [
        {
          "internalType": "address",
          "name": "",
          "type": "address"
        }
      ],
      "stateMutability": "view",
      "type": "function"
    },
    {
      "inputs": [],
      "name": "retrieveTreasury",
      "outputs": [
        {
          "internalType": "address",
          "name": "",
          "type": "address"
        }
      ],
      "stateMutability": "view",
      "type": "function"
    },
    {
      "inputs": [],
      "name": "retrieveCertisToken",
      "outputs": [
        {
          "internalType": "address",
          "name": "",
          "type": "address"
        }
      ],
      "stateMutability": "view",
      "type": "function"
    },
    {
      "inputs": [],
      "name": "retrievePrivatePoolFactory",
      "outputs": [
        {
          "internalType": "address",
          "name": "",
          "type": "address"
        }
      ],
      "stateMutability": "view",
      "type": "function"
    },
    {
      "inputs": [],
      "name": "retrievePrivatePool",
      "outputs": [
        {
          "internalType": "address",
          "name": "",
          "type": "address"
        }
      ],
      "stateMutability": "view",
      "type": "function"
    },
    {
      "inputs": [],
      "name": "retrieveProviderFactory",
      "outputs": [
        {
          "internalType": "address",
          "name": "",
          "type": "address"
        }
      ],
      "stateMutability": "view",
      "type": "function"
    },
    {
      "inputs": [],
      "name": "retrieveProvider",
      "outputs": [
        {
          "internalType": "address",
          "name": "",
          "type": "address"
        }
      ],
      "stateMutability": "view",
      "type": "function"
    },
    {
      "inputs": [],
      "name": "retrievePriceConverter",
      "outputs": [
        {
          "internalType": "address",
          "name": "",
          "type": "address"
        }
      ],
      "stateMutability": "view",
      "type": "function"
    },
    {
      "inputs": [],
      "name": "isInitialized",
      "outputs": [
        {
          "internalType": "bool",
          "name": "",
          "type": "bool"
        }
      ],
      "stateMutability": "view",
      "type": "function"
    }
  ],
  "bytecode": "0x60806040523480156200001157600080fd5b506040516200535138038062005351833981016040819052620000349162000885565b6200004e8383833330620000b060201b6200103b1760201c565b6040516200005c90620007bc565b604051809103906000f08015801562000079573d6000803e3d6000fd5b50600e80546001600160a01b0319166001600160a01b039290921691909117905550506024805460ff60a01b191690555062000a04565b600054610100900460ff1680620000ca575060005460ff16155b620000f25760405162461bcd60e51b8152600401620000e990620008e5565b60405180910390fd5b600054610100900460ff1615801562000115576000805461ffff19166101011790555b6200012b826200017760201b620010ee1760201c565b600180546001600160a01b0319166001600160a01b03851617815560006008556200015c908790879087906200020c565b80156200016f576000805461ff00191690555b505050505050565b600054610100900460ff168062000191575060005460ff16155b620001b05760405162461bcd60e51b8152600401620000e990620008e5565b600054610100900460ff16158015620001d3576000805461ffff19166101011790555b6000805462010000600160b01b031916620100006001600160a01b03851602179055801562000208576000805461ff00191690555b5050565b82828160ff1660641015620002355760405162461bcd60e51b8152600401620000e990620008c6565b8060ff16606410156200025c5760405162461bcd60e51b8152600401620000e990620008c6565b82156200028957600a869055600b805460ff8681166101000261ffff19909216908816171790556200016f565b600c869055600d805460ff8681166101000261ffff1990921690881617179055600b805462ff00001916620100001790556200016f6000620002ca6200040e565b15620003015760405162461bcd60e51b8152602060048201526005602482015264454332342d60d81b6044820152606401620000e9565b6200030c3362000473565b1515600114620003475760405162461bcd60e51b8152602060048201526005602482015264454332322d60d81b6044820152606401620000e9565b600380546001600160a01b03191633179055600a5462000368904262000933565b600455600b5460649060ff166200037e620004f2565b6200038a919062000971565b6200039691906200094e565b600555600880546002819055906000620003b083620009d0565b909155505060035460025460045460055460408051938452602084019290925282820152516001600160a01b03909216917f472501d19bf75639b2e316cd36f8568b0c3ab943b82a87de3c086c98c1929df99181900360600190a250565b600454600090421015620004225750600190565b6003546001600160a01b0316156200046d576200043e620005f6565b6200046d60006002819055600380546001600160a01b0319169055600481905560058190556006819055600755565b50600090565b6001546000906001600160a01b03838116911614156200049557506001919050565b6000620004a28362000602565b90506064620004b0620004f2565b600b54620004c79190610100900460ff1662000971565b620004d391906200094e565b811115620004e45750600192915050565b50600092915050565b919050565b60008060029054906101000a90046001600160a01b03166001600160a01b031663da3dce266040518163ffffffff1660e01b815260040160206040518083038186803b1580156200054257600080fd5b505afa15801562000557573d6000803e3d6000fd5b505050506040513d601f19601f820116820180604052508101906200057d919062000839565b6001600160a01b03166318160ddd6040518163ffffffff1660e01b815260040160206040518083038186803b158015620005b657600080fd5b505afa158015620005cb573d6000803e3d6000fd5b505050506040513d601f19601f82011682018060405250810190620005f191906200086b565b905090565b6200060062000712565b565b60008060029054906101000a90046001600160a01b03166001600160a01b031663da3dce266040518163ffffffff1660e01b815260040160206040518083038186803b1580156200065257600080fd5b505afa15801562000667573d6000803e3d6000fd5b505050506040513d601f19601f820116820180604052508101906200068d919062000839565b6040516370a0823160e01b81526001600160a01b03848116600483015291909116906370a082319060240160206040518083038186803b158015620006d157600080fd5b505afa158015620006e6573d6000803e3d6000fd5b505050506040513d601f19601f820116820180604052508101906200070c91906200086b565b92915050565b600f80546001600160a01b0319908116825560108054821690556011805482169055601280548216905560138054821690556014805482169055601580548216905560168054909116905560006200076c601782620007ca565b6200077c600983016000620007ca565b6200078c600a83016000620007ca565b6200079c600b83016000620007ca565b620007ac600c83016000620007ca565b62000208600d83016000620007ca565b6107bd8062004b9483390190565b508054620007d89062000993565b6000825580601f10620007e9575050565b601f0160209004906000526020600020908101906200080991906200080c565b50565b5b808211156200082357600081556001016200080d565b5090565b805160ff81168114620004ed57600080fd5b6000602082840312156200084c57600080fd5b81516001600160a01b03811681146200086457600080fd5b9392505050565b6000602082840312156200087e57600080fd5b5051919050565b6000806000606084860312156200089b57600080fd5b83519250620008ad6020850162000827565b9150620008bd6040850162000827565b90509250925092565b602080825260059082015264454332312d60d81b604082015260600190565b6020808252602e908201527f496e697469616c697a61626c653a20636f6e747261637420697320616c72656160408201526d191e481a5b9a5d1a585b1a5e995960921b606082015260800190565b60008219821115620009495762000949620009ee565b500190565b6000826200096c57634e487b7160e01b600052601260045260246000fd5b500490565b60008160001904831182151516156200098e576200098e620009ee565b500290565b600181811c90821680620009a857607f821691505b60208210811415620009ca57634e487b7160e01b600052602260045260246000fd5b50919050565b6000600019821415620009e757620009e7620009ee565b5060010190565b634e487b7160e01b600052601160045260246000fd5b6141808062000a146000396000f3fe60806040523480156200001157600080fd5b5060043610620001725760003560e01c8063029b9673146200017757806322d929e11462000199578063392e53cd14620001a35780633c65d42714620001c15780633c7df55d14620001d35780634044adb214620001ec5780634b19aa16146200023457806355457ee9146200023e5780635773bc2314620002485780635a3794e9146200025a57806360255415146200026c57806367717177146200027e57806375d4c6b114620002885780637c2f3aaf146200029f578063840f6d1714620002b1578063856511e314620002f357806390d138ed146200030a57806391f916711462000341578063a42e13391462000358578063a93316f51462000362578063aa33380a146200037b578063ac2bb442146200038d578063c50ec82b14620003a4578063d660ab3414620003ae578063da3dce2614620003db578063ee2aa36a14620003ed578063efd15d1714620003f7578063f5ad9acc1462000401575b600080fd5b6200018162000413565b60405162000190919062002682565b60405180910390f35b6200018162000432565b602454600160a01b900460ff16604051901515815260200162000190565b601d546001600160a01b031662000181565b620001ea620001e436600462002530565b6200044c565b005b62000225620001fd3660046200260e565b60009182526009602090815260408084206001600160a01b0393909316845291905290205490565b60405190815260200162000190565b62000181620005a1565b620001ea620005ad565b601f546001600160a01b031662000181565b6022546001600160a01b031662000181565b6024546001600160a01b031662000181565b62000181620006ec565b620001ea62000299366004620025d0565b62000706565b601e546001600160a01b031662000181565b600354600454600554600654600754604080516001600160a01b0390961686526020860194909452928401919091526060830152608082015260a00162000190565b620001ea62000304366004620025d0565b62000827565b6200031462000846565b60405162000190949392919093845260ff9283166020850152911660408301521515606082015260800190565b620001ea6200035236600462002576565b620008a4565b62000181620009dc565b6200036c620009f6565b604051620001909190620026e2565b6021546001600160a01b031662000181565b620001ea6200039e36600462002641565b62000fec565b6200018162000ffb565b600a54600b546040805192835260ff80831660208501526101009092049091169082015260600162000190565b6023546001600160a01b031662000181565b6200018162001007565b6200018162001021565b6020546001600160a01b031662000181565b6023546000906200042d906001600160a01b031662001183565b905090565b601f546000906200042d906001600160a01b031662001183565b73__Library_______________________________63d1d719d0600060029054906101000a90046001600160a01b03166001600160a01b031663da3dce266040518163ffffffff1660e01b815260040160206040518083038186803b158015620004b557600080fd5b505afa158015620004ca573d6000803e3d6000fd5b505050506040513d601f19601f82011682018060405250810190620004f0919062002510565b6040518263ffffffff1660e01b81526004016200050e919062002682565b60206040518083038186803b1580156200052757600080fd5b505af41580156200053c573d6000803e3d6000fd5b505050506040513d601f19601f8201168201806040525081019062000562919062002596565b15156001146200058f5760405162461bcd60e51b815260040162000586906200279c565b60405180910390fd5b6200059c83838362001210565b505050565b60006200042d62001232565b6001620005b9620012b2565b1515600114620005dd5760405162461bcd60e51b8152600401620005869062002827565b600354604051630d1d719d60e41b815273__Library_______________________________9163d1d719d09162000621916001600160a01b03169060040162002682565b60206040518083038186803b1580156200063a57600080fd5b505af41580156200064f573d6000803e3d6000fd5b505050506040513d601f19601f8201168201806040525081019062000675919062002596565b1515600114620006995760405162461bcd60e51b8152600401620005869062002846565b620006a3620012f2565b6003546002546040519081526001600160a01b03909116907f1fe8aec10c0a50fa765076161e08c1f961ced69594ff45cf7d559f593afe1479906020015b60405180910390a250565b601d546000906200042d906001600160a01b031662001183565b600154604051630d1d719d60e41b815273__Library_______________________________9163d1d719d0916200074a916001600160a01b03169060040162002682565b60206040518083038186803b1580156200076357600080fd5b505af415801562000778573d6000803e3d6000fd5b505050506040513d601f19601f820116820180604052508101906200079e919062002596565b1515600114620007c25760405162461bcd60e51b815260040162000586906200279c565b602454600160a01b900460ff1615620008065760405162461bcd60e51b8152602060048201526005602482015264454332362d60d81b604482015260640162000586565b62000811816200131d565b506024805460ff60a01b1916600160a01b179055565b80600f62000836828262002b28565b9050506200084362001728565b50565b600080600080600b60029054906101000a900460ff1680156200086a575060045442105b1562000891575050600c54600d5490925060ff80821692506101009091041660016200089e565b5060009250829150819050805b90919293565b6001620008b0620012b2565b1515600114620008d45760405162461bcd60e51b8152600401620005869062002827565b620008e53360026000015462001854565b1515600114620009205760405162461bcd60e51b8152602060048201526005602482015264454332332d60d81b604482015260640162000586565b600062000933336002600001546200186d565b905082156200095f578060026004016000828254620009539190620028cb565b909155506200097c9050565b8060026005016000828254620009769190620028cb565b90915550505b6002546200098c903383620018ae565b600254604080519182528415156020830152810182905233907f50f654d58981575c05e369cb129aeacb01e1b036af429380242cfc5d1a4b743f9060600160405180910390a26200059c620018ec565b6021546000906200042d906001600160a01b031662001183565b60408051600880825261012082019092526060916000919060208201610100803683375050600f5460405163bc215e8560e01b815292935073__AddressLibrary________________________9263bc215e85925062000a63916001600160a01b03169060040162002682565b60206040518083038186803b15801562000a7c57600080fd5b505af415801562000a91573d6000803e3d6000fd5b505050506040513d601f19601f8201168201806040525081019062000ab79190620025b6565b8160008151811062000acd5762000acd62002acd565b602090810291909101015260105460405163bc215e8560e01b815273__AddressLibrary________________________9163bc215e859162000b1c916001600160a01b03169060040162002682565b60206040518083038186803b15801562000b3557600080fd5b505af415801562000b4a573d6000803e3d6000fd5b505050506040513d601f19601f8201168201806040525081019062000b709190620025b6565b8160018151811062000b865762000b8662002acd565b602090810291909101015260115460405163bc215e8560e01b815273__AddressLibrary________________________9163bc215e859162000bd5916001600160a01b03169060040162002682565b60206040518083038186803b15801562000bee57600080fd5b505af415801562000c03573d6000803e3d6000fd5b505050506040513d601f19601f8201168201806040525081019062000c299190620025b6565b8160028151811062000c3f5762000c3f62002acd565b602090810291909101015260125460405163bc215e8560e01b815273__AddressLibrary________________________9163bc215e859162000c8e916001600160a01b03169060040162002682565b60206040518083038186803b15801562000ca757600080fd5b505af415801562000cbc573d6000803e3d6000fd5b505050506040513d601f19601f8201168201806040525081019062000ce29190620025b6565b8160038151811062000cf85762000cf862002acd565b602090810291909101015260135460405163bc215e8560e01b815273__AddressLibrary________________________9163bc215e859162000d47916001600160a01b03169060040162002682565b60206040518083038186803b15801562000d6057600080fd5b505af415801562000d75573d6000803e3d6000fd5b505050506040513d601f19601f8201168201806040525081019062000d9b9190620025b6565b8160048151811062000db15762000db162002acd565b602090810291909101015260145460405163bc215e8560e01b815273__AddressLibrary________________________9163bc215e859162000e00916001600160a01b03169060040162002682565b60206040518083038186803b15801562000e1957600080fd5b505af415801562000e2e573d6000803e3d6000fd5b505050506040513d601f19601f8201168201806040525081019062000e549190620025b6565b8160058151811062000e6a5762000e6a62002acd565b602090810291909101015260155460405163bc215e8560e01b815273__AddressLibrary________________________9163bc215e859162000eb9916001600160a01b03169060040162002682565b60206040518083038186803b15801562000ed257600080fd5b505af415801562000ee7573d6000803e3d6000fd5b505050506040513d601f19601f8201168201806040525081019062000f0d9190620025b6565b8160068151811062000f235762000f2362002acd565b602090810291909101015260165460405163bc215e8560e01b815273__AddressLibrary________________________9163bc215e859162000f72916001600160a01b03169060040162002682565b60206040518083038186803b15801562000f8b57600080fd5b505af415801562000fa0573d6000803e3d6000fd5b505050506040513d601f19601f8201168201806040525081019062000fc69190620025b6565b8160078151811062000fdc5762000fdc62002acd565b6020908102919091010152919050565b6200059c838383600062001a42565b60006200042d62001afa565b6024546000906200042d906001600160a01b031662001183565b6022546000906200042d906001600160a01b031662001183565b600054610100900460ff168062001055575060005460ff16155b620010745760405162461bcd60e51b81526004016200058690620027d9565b600054610100900460ff1615801562001097576000805461ffff19166101011790555b620010a282620010ee565b600180546001600160a01b0319166001600160a01b0385161781556000600855620010d39087908790879062001a42565b8015620010e6576000805461ff00191690555b505050505050565b600054610100900460ff168062001108575060005460ff16155b620011275760405162461bcd60e51b81526004016200058690620027d9565b600054610100900460ff161580156200114a576000805461ffff19166101011790555b6000805462010000600160b01b031916620100006001600160a01b0385160217905580156200117f576000805461ff00191690555b5050565b600e546040516310270e3d60e11b81526000916001600160a01b03169063204e1c7a90620011b690859060040162002682565b60206040518083038186803b158015620011cf57600080fd5b505afa158015620011e4573d6000803e3d6000fd5b505050506040513d601f19601f820116820180604052508101906200120a919062002510565b92915050565b6200121a620012b2565b1515600114156200059c576200059c83838362001b40565b6020805460408051635c60da1b60e01b815290516000936001600160a01b0390931692635c60da1b9260048082019391829003018186803b1580156200127757600080fd5b505afa1580156200128c573d6000803e3d6000fd5b505050506040513d601f19601f820116820180604052508101906200042d919062002510565b600454600090421015620012c65750600190565b6003546001600160a01b031615620012ec57620012e262001cb8565b620012ec620012f2565b50600090565b60006002819055600380546001600160a01b0319169055600481905560058190556006819055600755565b6200132c6020820182620024f0565b600e546001600160a01b0316620013486101008401846200287b565b60405162001356906200246e565b62001365949392919062002696565b604051809103906000f08015801562001382573d6000803e3d6000fd5b50602180546001600160a01b0319166001600160a01b0392909216919091179055620013b56040820160208301620024f0565b600e546001600160a01b0316620013d16101208401846200287b565b604051620013df906200246e565b620013ee949392919062002696565b604051809103906000f0801580156200140b573d6000803e3d6000fd5b50602280546001600160a01b0319166001600160a01b03929092169190911790556200143e6060820160408301620024f0565b600e546001600160a01b03166200145a6101408401846200287b565b60405162001468906200246e565b62001477949392919062002696565b604051809103906000f08015801562001494573d6000803e3d6000fd5b50602380546001600160a01b0319166001600160a01b0392909216919091179055620014c76080820160608301620024f0565b600e546001600160a01b0316620014e36101608401846200287b565b604051620014f1906200246e565b62001500949392919062002696565b604051809103906000f0801580156200151d573d6000803e3d6000fd5b50601d80546001600160a01b0319166001600160a01b03929092169190911790556200155060a0820160808301620024f0565b6040516200155e906200247c565b6200156a919062002682565b604051809103906000f08015801562001587573d6000803e3d6000fd5b50601e80546001600160a01b0319166001600160a01b0392909216919091179055620015ba60c0820160a08301620024f0565b600e546001600160a01b0316620015d66101808401846200287b565b604051620015e4906200246e565b620015f3949392919062002696565b604051809103906000f08015801562001610573d6000803e3d6000fd5b50601f80546001600160a01b0319166001600160a01b03929092169190911790556200164360e0820160c08301620024f0565b60405162001651906200247c565b6200165d919062002682565b604051809103906000f0801580156200167a573d6000803e3d6000fd5b50602080546001600160a01b0319166001600160a01b0392909216919091179055620016ae610100820160e08301620024f0565b600e546001600160a01b0316620016ca6101a08401846200287b565b604051620016d8906200246e565b620016e7949392919062002696565b604051809103906000f08015801562001704573d6000803e3d6000fd5b50602480546001600160a01b0319166001600160a01b039290921691909117905550565b600062001734620012b2565b156200176b5760405162461bcd60e51b8152602060048201526005602482015264454332342d60d81b604482015260640162000586565b620017763362001cc2565b15156001146200179a5760405162461bcd60e51b8152600401620005869062002846565b600380546001600160a01b03191633179055600a54620017bb9042620028cb565b600455600b5460649060ff16620017d162001d41565b620017dd919062002909565b620017e99190620028e6565b600555600880546002819055906000620018038362002a99565b90915550506003546002546004546005546040516001600160a01b03909416937f472501d19bf75639b2e316cd36f8568b0c3ab943b82a87de3c086c98c1929df993620006e1939092909162002865565b6000806200186384846200186d565b1515949350505050565b60008181526009602090815260408083206001600160a01b03861684529091528120546200189b8462001e40565b620018a791906200292b565b9392505050565b60008381526009602090815260408083206001600160a01b038616845290915281208054839290620018e2908490620028cb565b9091555050505050565b60055460065410620019b257600b5462010000900460ff16156200194857600c54600a55600d54600b805461010080840460ff90811690910261ffff199092169316929092179190911790556200194262001f4c565b62001952565b6200195262001f6a565b6200195c620012f2565b6003546002546006546007546040516001600160a01b03909416937f23ca0034cf5aad32571b4a492e9598ea8a490e1643a60970e3cdc6933b55e49f93620019a8939092909162002865565b60405180910390a2565b6005546007541062001a4057600b5462010000900460ff1615620019e057620019da62001f4c565b620019ea565b620019ea62001cb8565b620019f4620012f2565b6003546002546006546007546040516001600160a01b03909416937fa58eb6daa3c62c3f883973c4035e5bd3e81aa627c8379de068a7de42df122be293620019a8939092909162002865565b565b82828160ff166064101562001a6b5760405162461bcd60e51b81526004016200058690620027ba565b8060ff166064101562001a925760405162461bcd60e51b81526004016200058690620027ba565b821562001abf57600a869055600b805460ff8681166101000261ffff1990921690881617179055620010e6565b600c869055600d805460ff8681166101000261ffff1990921690881617179055600b805462ff0000191662010000179055620010e662001728565b601e5460408051635c60da1b60e01b815290516000926001600160a01b031691635c60da1b916004808301926020929190829003018186803b1580156200127757600080fd5b6001600160a01b0383161580159062001b7d575060025460009081526009602090815260408083206001600160a01b038716845290915290205415155b156200059c5760025460009081526009602090815260408083206001600160a01b0387168452909152902054819081111562001bdb575060025460009081526009602090815260408083206001600160a01b03871684529091529020545b60025460009081526009602090815260408083206001600160a01b03881684529091528120805483929062001c129084906200292b565b90915550506001600160a01b0383161562001c645760025460009081526009602090815260408083206001600160a01b03871684529091528120805483929062001c5e908490620028cb565b90915550505b600254604080516001600160a01b038088168252861660208201529081018390527f65fbd5e5dd32bea4aeca85bd0be0abf0e489d655dee888a7510d43b06dda2dba9060600160405180910390a250505050565b62001a4062001f74565b6001546000906001600160a01b038381169116141562001ce457506001919050565b600062001cf18362001e40565b9050606462001cff62001d41565b600b5462001d169190610100900460ff1662002909565b62001d229190620028e6565b81111562001d335750600192915050565b50600092915050565b919050565b60008060029054906101000a90046001600160a01b03166001600160a01b031663da3dce266040518163ffffffff1660e01b815260040160206040518083038186803b15801562001d9157600080fd5b505afa15801562001da6573d6000803e3d6000fd5b505050506040513d601f19601f8201168201806040525081019062001dcc919062002510565b6001600160a01b03166318160ddd6040518163ffffffff1660e01b815260040160206040518083038186803b15801562001e0557600080fd5b505afa15801562001e1a573d6000803e3d6000fd5b505050506040513d601f19601f820116820180604052508101906200042d9190620025b6565b60008060029054906101000a90046001600160a01b03166001600160a01b031663da3dce266040518163ffffffff1660e01b815260040160206040518083038186803b15801562001e9057600080fd5b505afa15801562001ea5573d6000803e3d6000fd5b505050506040513d601f19601f8201168201806040525081019062001ecb919062002510565b6001600160a01b03166370a08231836040518263ffffffff1660e01b815260040162001ef8919062002682565b60206040518083038186803b15801562001f1157600080fd5b505afa15801562001f26573d6000803e3d6000fd5b505050506040513d601f19601f820116820180604052508101906200120a9190620025b6565b6000600c55600d805461ffff19169055600b805462ff000019169055565b62001cb86200201e565b600f80546001600160a01b03199081168255601080548216905560118054821690556012805482169055601380548216905560148054821690556015805482169055601680549091169055600062001fce6017826200248a565b62001fde6009830160006200248a565b62001fee600a830160006200248a565b62001ffe600b830160006200248a565b6200200e600c830160006200248a565b6200117f600d830160006200248a565b602154600f5460178054620020d1936001600160a01b0390811693169190620020479062002a5c565b80601f0160208091040260200160405190810160405280929190818152602001828054620020759062002a5c565b8015620020c65780601f106200209a57610100808354040283529160200191620020c6565b820191906000526020600020905b815481529060010190602001808311620020a857829003601f168201915b5050505050620023ac565b60225460105460188054620020fa936001600160a01b0390811693169190620020479062002a5c565b6023546011546019805462002123936001600160a01b0390811693169190620020479062002a5c565b601d54601254601a80546200214c936001600160a01b0390811693169190620020479062002a5c565b601f54601454601b805462002175936001600160a01b0390811693169190620020479062002a5c565b602454601654601c80546200219e936001600160a01b0390811693169190620020479062002a5c565b6013546001600160a01b0316156200221b57601e54601354604051631b2ce7f360e11b81526001600160a01b0392831692633659cfe692620021e69291169060040162002682565b600060405180830381600087803b1580156200220157600080fd5b505af115801562002216573d6000803e3d6000fd5b505050505b6015546001600160a01b0316156200229857602054601554604051631b2ce7f360e11b81526001600160a01b0392831692633659cfe692620022639291169060040162002682565b600060405180830381600087803b1580156200227e57600080fd5b505af115801562002293573d6000803e3d6000fd5b505050505b6021547f05c04d87852a41b811d4865cafb55055b0b03dceebff609472a889585286a7dc90620022d1906001600160a01b031662001183565b602254620022e8906001600160a01b031662001183565b602354620022ff906001600160a01b031662001183565b601d5462002316906001600160a01b031662001183565b6200232062001afa565b601f5462002337906001600160a01b031662001183565b6200234162001232565b60245462002358906001600160a01b031662001183565b604080516001600160a01b03998a16815297891660208901529588168787015293871660608701529186166080860152851660a0850152841660c084015290921660e08201529051908190036101000190a1565b6001600160a01b038216156200059c578051156200243357600e54604051639623609d60e01b81526001600160a01b0390911690639623609d90620023fa9086908690869060040162002728565b600060405180830381600087803b1580156200241557600080fd5b505af11580156200242a573d6000803e3d6000fd5b50505050505050565b600e5460405163266a23b160e21b81526001600160a01b0385811660048301528481166024830152909116906399a88ec490604401620023fa565b610f308062002cf883390190565b6105238062003c2883390190565b508054620024989062002a5c565b6000825580601f10620024a9575050565b601f0160209004906000526020600020908101906200084391905b80821115620024da5760008155600101620024c4565b5090565b803560ff8116811462001d3c57600080fd5b6000602082840312156200250357600080fd5b8135620018a78162002cd2565b6000602082840312156200252357600080fd5b8151620018a78162002cd2565b6000806000606084860312156200254657600080fd5b8335620025538162002cd2565b92506020840135620025658162002cd2565b929592945050506040919091013590565b6000602082840312156200258957600080fd5b8135620018a78162002ce8565b600060208284031215620025a957600080fd5b8151620018a78162002ce8565b600060208284031215620025c957600080fd5b5051919050565b600060208284031215620025e357600080fd5b81356001600160401b03811115620025fa57600080fd5b82016101c08185031215620018a757600080fd5b600080604083850312156200262257600080fd5b823591506020830135620026368162002cd2565b809150509250929050565b6000806000606084860312156200265757600080fd5b833592506200266960208501620024de565b91506200267960408501620024de565b90509250925092565b6001600160a01b0391909116815260200190565b6001600160a01b0385811682528416602082015260606040820181905281018290526000828460808401376000608084840101526080601f19601f850116830101905095945050505050565b6020808252825182820181905260009190848201906040850190845b818110156200271c57835183529284019291840191600101620026fe565b50909695505050505050565b600060018060a01b038086168352602081861681850152606060408501528451915081606085015260005b82811015620027715785810182015185820160800152810162002753565b8281111562002784576000608084870101525b5050601f01601f191691909101608001949350505050565b6020808252600490820152634543382d60e01b604082015260600190565b602080825260059082015264454332312d60d81b604082015260600190565b6020808252602e908201527f496e697469616c697a61626c653a20636f6e747261637420697320616c72656160408201526d191e481a5b9a5d1a585b1a5e995960921b606082015260800190565b602080825260059082015264454332352d60d81b604082015260600190565b602080825260059082015264454332322d60d81b604082015260600190565b9283526020830191909152604082015260600190565b6000808335601e198436030181126200289357600080fd5b8301803591506001600160401b03821115620028ae57600080fd5b602001915036819003821315620028c457600080fd5b9250929050565b60008219821115620028e157620028e162002ab7565b500190565b6000826200290457634e487b7160e01b600052601260045260246000fd5b500490565b600081600019048311821515161562002926576200292662002ab7565b500290565b60008282101562002940576200294062002ab7565b500390565b601f8211156200059c57600081815260208120601f850160051c810160208610156200296e5750805b601f850160051c820191505b81811015620010e6578281556001016200297a565b6001600160401b03831115620029a957620029a962002ae3565b620029c183620029ba835462002a5c565b8362002945565b6000601f841160018114620029f85760008515620029df5750838201355b600019600387901b1c1916600186901b17835562002a55565b600083815260209020601f19861690835b8281101562002a2b578685013582556020948501946001909201910162002a09565b508682101562002a495760001960f88860031b161c19848701351681555b505060018560011b0183555b5050505050565b600181811c9082168062002a7157607f821691505b6020821081141562002a9357634e487b7160e01b600052602260045260246000fd5b50919050565b600060001982141562002ab05762002ab062002ab7565b5060010190565b634e487b7160e01b600052601160045260246000fd5b634e487b7160e01b600052603260045260246000fd5b634e487b7160e01b600052604160045260246000fd5b600081356200120a8162002cd2565b80546001600160a01b0319166001600160a01b0392909216919091179055565b62002b3e62002b378362002af9565b8262002b08565b62002b5a62002b506020840162002af9565b6001830162002b08565b62002b7662002b6c6040840162002af9565b6002830162002b08565b62002b9262002b886060840162002af9565b6003830162002b08565b62002bae62002ba46080840162002af9565b6004830162002b08565b62002bca62002bc060a0840162002af9565b6005830162002b08565b62002be662002bdc60c0840162002af9565b6006830162002b08565b62002c0262002bf860e0840162002af9565b6007830162002b08565b62002c126101008301836200287b565b62002c228183600886016200298f565b505062002c346101208301836200287b565b62002c448183600986016200298f565b505062002c566101408301836200287b565b62002c668183600a86016200298f565b505062002c786101608301836200287b565b62002c888183600b86016200298f565b505062002c9a6101808301836200287b565b62002caa8183600c86016200298f565b505062002cbc6101a08301836200287b565b62002ccc8183600d86016200298f565b50505050565b6001600160a01b03811681146200084357600080fd5b80151581146200084357600080fdfe608060405260405162000f3038038062000f308339810160408190526200002691620004c2565b82816200005560017f360894a13ba1a3210667c828492db98dca3e2076cc3735a920a3ca505d382bbd620005f5565b60008051602062000ee9833981519152146200007557620000756200064a565b6200008382826000620000e7565b50620000b3905060017fb53127684a568b3173ae13b9f8a6016e243e63b6e8ee1178d6a717850b5d6104620005f5565b60008051602062000ec983398151915214620000d357620000d36200064a565b620000de8262000124565b50505062000676565b620000f2836200017f565b600082511180620001005750805b156200011f576200011d8383620001c160201b620002601760201c565b505b505050565b7f7e644d79422f17c01e4894b5f4f588d331ebfa28653d42ae832dc59e38c9798f6200014f620001f0565b604080516001600160a01b03928316815291841660208301520160405180910390a16200017c8162000229565b50565b6200018a81620002de565b6040516001600160a01b038216907fbc7cd75a20ee27fd9adebab32041f755214dbc6bffa90cc0225b39da2e5c2d3b90600090a250565b6060620001e9838360405180606001604052806027815260200162000f096027913962000381565b9392505050565b60006200021a60008051602062000ec983398151915260001b6200045e60201b620002081760201c565b546001600160a01b0316919050565b6001600160a01b038116620002945760405162461bcd60e51b815260206004820152602660248201527f455243313936373a206e65772061646d696e20697320746865207a65726f206160448201526564647265737360d01b60648201526084015b60405180910390fd5b80620002bd60008051602062000ec983398151915260001b6200045e60201b620002081760201c565b80546001600160a01b0319166001600160a01b039290921691909117905550565b620002f4816200046160201b6200028c1760201c565b620003585760405162461bcd60e51b815260206004820152602d60248201527f455243313936373a206e657720696d706c656d656e746174696f6e206973206e60448201526c1bdd08184818dbdb9d1c9858dd609a1b60648201526084016200028b565b80620002bd60008051602062000ee983398151915260001b6200045e60201b620002081760201c565b6060833b620003e25760405162461bcd60e51b815260206004820152602660248201527f416464726573733a2064656c65676174652063616c6c20746f206e6f6e2d636f6044820152651b9d1c9858dd60d21b60648201526084016200028b565b600080856001600160a01b031685604051620003ff9190620005a2565b600060405180830381855af49150503d80600081146200043c576040519150601f19603f3d011682016040523d82523d6000602084013e62000441565b606091505b5090925090506200045482828662000467565b9695505050505050565b90565b3b151590565b6060831562000478575081620001e9565b825115620004895782518084602001fd5b8160405162461bcd60e51b81526004016200028b9190620005c0565b80516001600160a01b0381168114620004bd57600080fd5b919050565b600080600060608486031215620004d857600080fd5b620004e384620004a5565b9250620004f360208501620004a5565b60408501519092506001600160401b03808211156200051157600080fd5b818601915086601f8301126200052657600080fd5b8151818111156200053b576200053b62000660565b604051601f8201601f19908116603f0116810190838211818310171562000566576200056662000660565b816040528281528960208487010111156200058057600080fd5b620005938360208301602088016200061b565b80955050505050509250925092565b60008251620005b68184602087016200061b565b9190910192915050565b6020815260008251806020840152620005e18160408501602087016200061b565b601f01601f19169190910160400192915050565b6000828210156200061657634e487b7160e01b600052601160045260246000fd5b500390565b60005b83811015620006385781810151838201526020016200061e565b838111156200011d5750506000910152565b634e487b7160e01b600052600160045260246000fd5b634e487b7160e01b600052604160045260246000fd5b61084380620006866000396000f3fe60806040526004361061004e5760003560e01c80633659cfe6146100655780634f1ef286146100855780635c60da1b146100985780638f283970146100c9578063f851a440146100e95761005d565b3661005d5761005b6100fe565b005b61005b6100fe565b34801561007157600080fd5b5061005b61008036600461068e565b610118565b61005b6100933660046106a9565b61015f565b3480156100a457600080fd5b506100ad6101d0565b6040516001600160a01b03909116815260200160405180910390f35b3480156100d557600080fd5b5061005b6100e436600461068e565b61020b565b3480156100f557600080fd5b506100ad610235565b610106610292565b610116610111610331565b61033b565b565b61012061035f565b6001600160a01b0316336001600160a01b031614156101575761015481604051806020016040528060008152506000610380565b50565b6101546100fe565b61016761035f565b6001600160a01b0316336001600160a01b031614156101c8576101c38383838080601f01602080910402602001604051908101604052809392919081815260200183838082843760009201919091525060019250610380915050565b505050565b6101c36100fe565b60006101da61035f565b6001600160a01b0316336001600160a01b03161415610200576101fb610331565b905090565b6102086100fe565b90565b61021361035f565b6001600160a01b0316336001600160a01b0316141561015757610154816103ab565b600061023f61035f565b6001600160a01b0316336001600160a01b03161415610200576101fb61035f565b606061028583836040518060600160405280602781526020016107e7602791396103ff565b9392505050565b3b151590565b61029a61035f565b6001600160a01b0316336001600160a01b031614156101165760405162461bcd60e51b815260206004820152604260248201527f5472616e73706172656e745570677261646561626c6550726f78793a2061646d60448201527f696e2063616e6e6f742066616c6c6261636b20746f2070726f78792074617267606482015261195d60f21b608482015260a4015b60405180910390fd5b60006101fb6104d3565b3660008037600080366000845af43d6000803e80801561035a573d6000f35b3d6000fd5b60006000805160206107a78339815191525b546001600160a01b0316919050565b610389836104e9565b6000825111806103965750805b156101c3576103a58383610260565b50505050565b7f7e644d79422f17c01e4894b5f4f588d331ebfa28653d42ae832dc59e38c9798f6103d461035f565b604080516001600160a01b03928316815291841660208301520160405180910390a161015481610529565b6060833b61045e5760405162461bcd60e51b815260206004820152602660248201527f416464726573733a2064656c65676174652063616c6c20746f206e6f6e2d636f6044820152651b9d1c9858dd60d21b6064820152608401610328565b600080856001600160a01b031685604051610479919061072b565b600060405180830381855af49150503d80600081146104b4576040519150601f19603f3d011682016040523d82523d6000602084013e6104b9565b606091505b50915091506104c98282866105c0565b9695505050505050565b60006000805160206107c7833981519152610371565b6104f2816105f9565b6040516001600160a01b038216907fbc7cd75a20ee27fd9adebab32041f755214dbc6bffa90cc0225b39da2e5c2d3b90600090a250565b6001600160a01b03811661058e5760405162461bcd60e51b815260206004820152602660248201527f455243313936373a206e65772061646d696e20697320746865207a65726f206160448201526564647265737360d01b6064820152608401610328565b806000805160206107a78339815191525b80546001600160a01b0319166001600160a01b039290921691909117905550565b606083156105cf575081610285565b8251156105df5782518084602001fd5b8160405162461bcd60e51b81526004016103289190610747565b803b61065d5760405162461bcd60e51b815260206004820152602d60248201527f455243313936373a206e657720696d706c656d656e746174696f6e206973206e60448201526c1bdd08184818dbdb9d1c9858dd609a1b6064820152608401610328565b806000805160206107c783398151915261059f565b80356001600160a01b038116811461068957600080fd5b919050565b6000602082840312156106a057600080fd5b61028582610672565b6000806000604084860312156106be57600080fd5b6106c784610672565b925060208401356001600160401b03808211156106e357600080fd5b818601915086601f8301126106f757600080fd5b81358181111561070657600080fd5b87602082850101111561071857600080fd5b6020830194508093505050509250925092565b6000825161073d81846020870161077a565b9190910192915050565b602081526000825180602084015261076681604085016020870161077a565b601f01601f19169190910160400192915050565b60005b8381101561079557818101518382015260200161077d565b838111156103a5575050600091015256feb53127684a568b3173ae13b9f8a6016e243e63b6e8ee1178d6a717850b5d6103360894a13ba1a3210667c828492db98dca3e2076cc3735a920a3ca505d382bbc416464726573733a206c6f772d6c6576656c2064656c65676174652063616c6c206661696c6564a2646970667358221220db58d8e120b1ed13ae7ff8047539442f43b82b0dda12ca3e6374868f27b7761864736f6c63430008070033b53127684a568b3173ae13b9f8a6016e243e63b6e8ee1178d6a717850b5d6103360894a13ba1a3210667c828492db98dca3e2076cc3735a920a3ca505d382bbc416464726573733a206c6f772d6c6576656c2064656c65676174652063616c6c206661696c6564608060405234801561001057600080fd5b5060405161052338038061052383398101604081905261002f91610148565b61003833610047565b61004181610097565b50610178565b600080546001600160a01b038381166001600160a01b0319831681178455604051919092169283917f8be0079c531659141344cd1fd0a4f28419497f9722a3daafe3b4186f6b6457e09190a35050565b6100aa8161014260201b61021f1760201c565b6101205760405162461bcd60e51b815260206004820152603360248201527f5570677261646561626c65426561636f6e3a20696d706c656d656e746174696f60448201527f6e206973206e6f74206120636f6e747261637400000000000000000000000000606482015260840160405180910390fd5b600180546001600160a01b0319166001600160a01b0392909216919091179055565b3b151590565b60006020828403121561015a57600080fd5b81516001600160a01b038116811461017157600080fd5b9392505050565b61039c806101876000396000f3fe608060405234801561001057600080fd5b50600436106100575760003560e01c80633659cfe61461005c5780635c60da1b14610071578063715018a61461009a5780638da5cb5b146100a2578063f2fde38b146100aa575b600080fd5b61006f61006a366004610301565b6100bd565b005b6001546001600160a01b03165b6040516001600160a01b03909116815260200160405180910390f35b61006f610135565b61007e610170565b61006f6100b8366004610301565b61017f565b336100c6610170565b6001600160a01b0316146100f55760405162461bcd60e51b81526004016100ec90610331565b60405180910390fd5b6100fe81610225565b6040516001600160a01b038216907fbc7cd75a20ee27fd9adebab32041f755214dbc6bffa90cc0225b39da2e5c2d3b90600090a250565b3361013e610170565b6001600160a01b0316146101645760405162461bcd60e51b81526004016100ec90610331565b61016e60006102b1565b565b6000546001600160a01b031690565b33610188610170565b6001600160a01b0316146101ae5760405162461bcd60e51b81526004016100ec90610331565b6001600160a01b0381166102135760405162461bcd60e51b815260206004820152602660248201527f4f776e61626c653a206e6577206f776e657220697320746865207a65726f206160448201526564647265737360d01b60648201526084016100ec565b61021c816102b1565b50565b3b151590565b803b61028f5760405162461bcd60e51b815260206004820152603360248201527f5570677261646561626c65426561636f6e3a20696d706c656d656e746174696f6044820152721b881a5cc81b9bdd08184818dbdb9d1c9858dd606a1b60648201526084016100ec565b600180546001600160a01b0319166001600160a01b0392909216919091179055565b600080546001600160a01b038381166001600160a01b0319831681178455604051919092169283917f8be0079c531659141344cd1fd0a4f28419497f9722a3daafe3b4186f6b6457e09190a35050565b60006020828403121561031357600080fd5b81356001600160a01b038116811461032a57600080fd5b9392505050565b6020808252818101527f4f776e61626c653a2063616c6c6572206973206e6f7420746865206f776e657260408201526060019056fea2646970667358221220b2593c385f6cf6c9fa6cd30320e4dd979200197a740c0d3f946507d201c8795d64736f6c63430008070033a264697066735822122049eca8623a8e88ff95842cda0e9dc2db8893fca845ccbcd1c62079cb1723ed6264736f6c63430008070033608060405234801561001057600080fd5b5061001a3361001f565b61006f565b600080546001600160a01b038381166001600160a01b0319831681178455604051919092169283917f8be0079c531659141344cd1fd0a4f28419497f9722a3daafe3b4186f6b6457e09190a35050565b61073f8061007e6000396000f3fe60806040526004361061006b5760003560e01c8063204e1c7a14610070578063715018a6146100a65780637eff275e146100bd5780638da5cb5b146100dd5780639623609d146100f257806399a88ec414610105578063f2fde38b14610125578063f3b7dead14610145575b600080fd5b34801561007c57600080fd5b5061009061008b3660046104e1565b610165565b60405161009d9190610630565b60405180910390f35b3480156100b257600080fd5b506100bb6101f6565b005b3480156100c957600080fd5b506100bb6100d8366004610522565b61023a565b3480156100e957600080fd5b506100906102cb565b6100bb61010036600461055b565b6102da565b34801561011157600080fd5b506100bb610120366004610522565b610370565b34801561013157600080fd5b506100bb6101403660046104e1565b6103cb565b34801561015157600080fd5b506100906101603660046104e1565b61046b565b6000806000836001600160a01b031660405161018b90635c60da1b60e01b815260040190565b600060405180830381855afa9150503d80600081146101c6576040519150601f19603f3d011682016040523d82523d6000602084013e6101cb565b606091505b5091509150816101da57600080fd5b808060200190518101906101ee9190610505565b949350505050565b336101ff6102cb565b6001600160a01b03161461022e5760405162461bcd60e51b8152600401610225906106a9565b60405180910390fd5b6102386000610491565b565b336102436102cb565b6001600160a01b0316146102695760405162461bcd60e51b8152600401610225906106a9565b6040516308f2839760e41b81526001600160a01b03831690638f28397090610295908490600401610630565b600060405180830381600087803b1580156102af57600080fd5b505af11580156102c3573d6000803e3d6000fd5b505050505050565b6000546001600160a01b031690565b336102e36102cb565b6001600160a01b0316146103095760405162461bcd60e51b8152600401610225906106a9565b60405163278f794360e11b81526001600160a01b03841690634f1ef2869034906103399086908690600401610644565b6000604051808303818588803b15801561035257600080fd5b505af1158015610366573d6000803e3d6000fd5b5050505050505050565b336103796102cb565b6001600160a01b03161461039f5760405162461bcd60e51b8152600401610225906106a9565b604051631b2ce7f360e11b81526001600160a01b03831690633659cfe690610295908490600401610630565b336103d46102cb565b6001600160a01b0316146103fa5760405162461bcd60e51b8152600401610225906106a9565b6001600160a01b03811661045f5760405162461bcd60e51b815260206004820152602660248201527f4f776e61626c653a206e6577206f776e657220697320746865207a65726f206160448201526564647265737360d01b6064820152608401610225565b61046881610491565b50565b6000806000836001600160a01b031660405161018b906303e1469160e61b815260040190565b600080546001600160a01b038381166001600160a01b0319831681178455604051919092169283917f8be0079c531659141344cd1fd0a4f28419497f9722a3daafe3b4186f6b6457e09190a35050565b6000602082840312156104f357600080fd5b81356104fe816106f4565b9392505050565b60006020828403121561051757600080fd5b81516104fe816106f4565b6000806040838503121561053557600080fd5b8235610540816106f4565b91506020830135610550816106f4565b809150509250929050565b60008060006060848603121561057057600080fd5b833561057b816106f4565b9250602084013561058b816106f4565b915060408401356001600160401b03808211156105a757600080fd5b818601915086601f8301126105bb57600080fd5b8135818111156105cd576105cd6106de565b604051601f8201601f19908116603f011681019083821181831017156105f5576105f56106de565b8160405282815289602084870101111561060e57600080fd5b8260208601602083013760006020848301015280955050505050509250925092565b6001600160a01b0391909116815260200190565b60018060a01b038316815260006020604081840152835180604085015260005b8181101561068057858101830151858201606001528201610664565b81811115610692576000606083870101525b50601f01601f191692909201606001949350505050565b6020808252818101527f4f776e61626c653a2063616c6c6572206973206e6f7420746865206f776e6572604082015260600190565b634e487b7160e01b600052604160045260246000fd5b6001600160a01b038116811461046857600080fdfea264697066735822122092f01e637c0a0a2dbac5a2f4c9b17ffab86f6ccb9b1ed2db5004c2f02ba3e97e64736f6c63430008070033",
  "immutableReferences": {},
  "source": "// SPDX-License-Identifier: GPL-3.0\r\n\r\npragma solidity 0.8.7;\r\n\r\n/**\r\n * @title Storage\r\n * @dev Store & retrieve value in a variable\r\n */\r\n\r\nimport \"../Interfaces/IProxyManager.sol\";\r\nimport \"../Base/TokenGovernanceBaseContract.sol\";\r\nimport \"../Libraries/AddressLibrary.sol\";\r\nimport \"../Libraries/Library.sol\";\r\nimport \"@openzeppelin/contracts-upgradeable/proxy/utils/Initializable.sol\";\r\nimport \"@openzeppelin/contracts/proxy/beacon/UpgradeableBeacon.sol\";\r\nimport \"@openzeppelin/contracts/proxy/transparent/TransparentUpgradeableProxy.sol\";\r\nimport \"@openzeppelin/contracts/proxy/transparent/ProxyAdmin.sol\";\r\n\r\n\r\ncontract CertificatesPoolManager is IProxyManager, TokenGovernanceBaseContract{\r\n    using AddressLibrary for *;\r\n    using Library for *;\r\n\r\n    // EVENTS /////////////////////////////////////////\r\n    event _NewContracts(address, address, address, address, address, address, address, address);\r\n\r\n    // DATA /////////////////////////////////////////\r\n    // Admin Proxy to manage all the TransparentUpgradeableProxies\r\n    ProxyAdmin private _Admin;\r\n\r\n    // proposition to change\r\n    Library.ProposedContractsStruct private _ProposedContracts;\r\n    \r\n    // Private Certificate Pools Factory\r\n    TransparentUpgradeableProxy private _PrivatePoolFactory;\r\n\r\n    // Private Certificates Pool\r\n    UpgradeableBeacon private _PrivateCertificatePoolBeacon;\r\n\r\n    // Provider Factory\r\n    TransparentUpgradeableProxy private _ProviderFactory;\r\n\r\n    // Provider\r\n    UpgradeableBeacon private _ProviderBeacon;\r\n\r\n    // Public Certificates Pool\r\n    TransparentUpgradeableProxy private _PublicCertificatesPool;\r\n\r\n    // Treasury\r\n    //GenericProxy private _Treasury;\r\n    TransparentUpgradeableProxy private _Treasury;\r\n\r\n    // Certis Token\r\n    TransparentUpgradeableProxy private _CertisToken;\r\n\r\n    // Price Converter\r\n    TransparentUpgradeableProxy private _PriceConverter;\r\n\r\n    // init\r\n    bool private _init;\r\n\r\n    // MODIFIERS /////////////////////////////////////////\r\n    modifier isNotInitialized(){\r\n        require(false == _init, \"EC26-\");\r\n        _;\r\n    }\r\n\r\n    // CONSTRUCTOR and INITIALIZATION /////////////////////////////////////////\r\n    constructor(uint256 PropositionLifeTime, uint8 PropositionThresholdPercentage, uint8 minWeightToProposePercentage) \r\n    {\r\n        super.TokenGovernanceContract_init(PropositionLifeTime, PropositionThresholdPercentage, minWeightToProposePercentage, msg.sender, address(this));\r\n        _Admin = new ProxyAdmin();\r\n        _init = false;\r\n    }\r\n\r\n    function InitializeContracts(Library.ProposedContractsStruct calldata initialContracts) \r\n        isFromChairPerson()\r\n        isNotInitialized()\r\n    external override\r\n    {\r\n        initProxies(initialContracts);\r\n        _init = true;\r\n    }\r\n\r\n    // FUNCTIONALITY /////////////////////////////////////////\r\n    // governance : contracts assignment and management\r\n    function upgradeContracts(Library.ProposedContractsStruct calldata UpgradeProposition) external override\r\n    {\r\n        _ProposedContracts = UpgradeProposition;\r\n        addProposition();\r\n    }\r\n\r\n    function propositionApproved() internal override\r\n    {\r\n        upgradeContractsImplementations();\r\n        removeProposition();\r\n    }\r\n\r\n    function propositionRejected() internal override\r\n    {\r\n        removeProposition();\r\n    }\r\n\r\n    function propositionExpired() internal override\r\n    {\r\n        removeProposition();\r\n    }\r\n\r\n    function removeProposition() internal\r\n    {\r\n       delete(_ProposedContracts);\r\n    }\r\n\r\n    function retrieveProposition() external override view returns(bytes32[] memory)\r\n    {\r\n        bytes32[] memory proposition = new bytes32[](8);\r\n        proposition[0] = AddressLibrary.AddressToBytes32(_ProposedContracts.NewPublicPoolAddress);\r\n        proposition[1] = AddressLibrary.AddressToBytes32(_ProposedContracts.NewTreasuryAddress);\r\n        proposition[2] = AddressLibrary.AddressToBytes32(_ProposedContracts.NewCertisTokenAddress);\r\n        proposition[3] = AddressLibrary.AddressToBytes32(_ProposedContracts.NewPrivatePoolFactoryAddress);\r\n        proposition[4] = AddressLibrary.AddressToBytes32(_ProposedContracts.NewPrivatePoolAddress);\r\n        proposition[5] = AddressLibrary.AddressToBytes32(_ProposedContracts.NewProviderFactoryAddress);\r\n        proposition[6] = AddressLibrary.AddressToBytes32(_ProposedContracts.NewProviderAddress);\r\n        proposition[7] = AddressLibrary.AddressToBytes32(_ProposedContracts.NewPriceConverterAddress);\r\n        return proposition;\r\n    }\r\n\r\n    function initProxies(Library.ProposedContractsStruct calldata initialContracts) private\r\n    {\r\n        _PublicCertificatesPool = new TransparentUpgradeableProxy(initialContracts.NewPublicPoolAddress, address(_Admin), initialContracts.NewPublicPoolData);\r\n        _Treasury = new TransparentUpgradeableProxy(initialContracts.NewTreasuryAddress, address(_Admin), initialContracts.NewTreasuryData);\r\n        _CertisToken = new TransparentUpgradeableProxy(initialContracts.NewCertisTokenAddress, address(_Admin), initialContracts.NewCertisTokenData);\r\n        _PrivatePoolFactory = new TransparentUpgradeableProxy(initialContracts.NewPrivatePoolFactoryAddress, address(_Admin), initialContracts.NewPrivatePoolFactoryData);\r\n        _PrivateCertificatePoolBeacon = new UpgradeableBeacon(initialContracts.NewPrivatePoolAddress);\r\n        _ProviderFactory = new TransparentUpgradeableProxy(initialContracts.NewProviderFactoryAddress, address(_Admin), initialContracts.NewProviderFactoryData);\r\n        _ProviderBeacon = new UpgradeableBeacon(initialContracts.NewProviderAddress);\r\n        _PriceConverter = new TransparentUpgradeableProxy(initialContracts.NewPriceConverterAddress, address(_Admin), initialContracts.NewPriceConverterData);\r\n    }\r\n\r\n    function upgradeContractsImplementations() private\r\n    {\r\n        upgradeContractImplementation(_PublicCertificatesPool, _ProposedContracts.NewPublicPoolAddress, _ProposedContracts.NewPublicPoolData);\r\n        upgradeContractImplementation(_Treasury, _ProposedContracts.NewTreasuryAddress, _ProposedContracts.NewTreasuryData);\r\n        upgradeContractImplementation(_CertisToken, _ProposedContracts.NewCertisTokenAddress, _ProposedContracts.NewCertisTokenData);\r\n        upgradeContractImplementation(_PrivatePoolFactory, _ProposedContracts.NewPrivatePoolFactoryAddress, _ProposedContracts.NewPrivatePoolFactoryData);\r\n        upgradeContractImplementation(_ProviderFactory, _ProposedContracts.NewProviderFactoryAddress, _ProposedContracts.NewProviderFactoryData);\r\n        upgradeContractImplementation(_PriceConverter, _ProposedContracts.NewPriceConverterAddress, _ProposedContracts.NewPriceConverterData);\r\n\r\n        if(address(0) != _ProposedContracts.NewPrivatePoolAddress)_PrivateCertificatePoolBeacon.upgradeTo(_ProposedContracts.NewPrivatePoolAddress);\r\n        if(address(0) != _ProposedContracts.NewProviderAddress)_ProviderBeacon.upgradeTo(_ProposedContracts.NewProviderAddress);\r\n\r\n        emit _NewContracts(internalRetrieveImpl(_PublicCertificatesPool), internalRetrieveImpl(_Treasury), \r\n        internalRetrieveImpl(_CertisToken), internalRetrieveImpl(_PrivatePoolFactory), \r\n        internalRetrievePrivatePool(), internalRetrieveImpl(_ProviderFactory), internalRetrieveProvider(),\r\n        internalRetrieveImpl(_PriceConverter));\r\n    }\r\n\r\n    function upgradeContractImplementation(TransparentUpgradeableProxy proxy, address NewImpl, bytes memory Data) private{\r\n        if(address(0) != NewImpl){\r\n            if(0 < Data.length)_Admin.upgradeAndCall(proxy, NewImpl, Data);\r\n            else _Admin.upgrade(proxy, NewImpl);\r\n        }\r\n    }\r\n\r\n    // configuration Proxies\r\n    function retrievePublicCertificatePoolProxy() external override view returns (address) {\r\n        return (address(_PublicCertificatesPool));\r\n    }\r\n\r\n    function retrieveTreasuryProxy() external override view returns (address) {\r\n        return (address(_Treasury));\r\n    }\r\n\r\n    function retrieveCertisTokenProxy() external override view returns (address) {\r\n        return (address(_CertisToken));\r\n    }\r\n\r\n    function retrievePrivatePoolFactoryProxy() external override view returns (address) {\r\n        return (address(_PrivatePoolFactory));\r\n    }\r\n\r\n    function retrievePrivatePoolBeacon() external override view returns (address) {\r\n        return (address(_PrivateCertificatePoolBeacon));\r\n    }\r\n\r\n    function retrieveProviderFactoryProxy() external override view returns (address) {\r\n        return (address(_ProviderFactory));\r\n    }\r\n\r\n    function retrieveProviderBeacon() external override view returns (address) {\r\n        return (address(_ProviderBeacon));\r\n    }\r\n\r\n     function retrievePriceConverterProxy() external override view returns (address) {\r\n        return (address(_PriceConverter));\r\n    }\r\n\r\n    // configuration implementations\r\n    function retrievePublicCertificatePool() external override view returns (address) {\r\n        return internalRetrieveImpl(_PublicCertificatesPool);\r\n    }\r\n\r\n    function retrieveTreasury() external override view returns (address) {\r\n        return internalRetrieveImpl(_Treasury);\r\n    }\r\n\r\n    function retrieveCertisToken() external override view returns (address) {\r\n        return internalRetrieveImpl(_CertisToken);\r\n    }\r\n\r\n    function retrievePrivatePoolFactory() external override view returns (address) {\r\n        return internalRetrieveImpl(_PrivatePoolFactory);\r\n    }\r\n\r\n    function retrievePrivatePool() external override view returns (address) {\r\n        return internalRetrievePrivatePool();\r\n    }\r\n\r\n    function retrieveProviderFactory() external override view returns (address) {\r\n        return internalRetrieveImpl(_ProviderFactory);\r\n    }\r\n\r\n    function retrieveProvider() external override view returns (address) {\r\n        return internalRetrieveProvider();\r\n    }\r\n\r\n    function retrievePriceConverter() external override view returns (address) {\r\n        return internalRetrieveImpl(_PriceConverter);\r\n    }\r\n\r\n    function isInitialized() external override view returns(bool){\r\n        return _init;\r\n    }\r\n\r\n    // internal\r\n    function internalRetrieveImpl(TransparentUpgradeableProxy proxy) internal view returns (address){\r\n        return _Admin.getProxyImplementation(proxy);\r\n    }\r\n\r\n    function internalRetrievePrivatePool() internal view returns (address) {\r\n        return _PrivateCertificatePoolBeacon.implementation();\r\n    }\r\n\r\n    function internalRetrieveProvider() internal view returns (address) {\r\n        return _ProviderBeacon.implementation();\r\n    }\r\n  \r\n}",
  "sourcePath": "C:/Users/d-aam/GitHub/Certificates/contracts/DeployedContracts/CertificatesPoolManager.sol",
  "compiler": {
    "name": "solc",
    "version": "0.8.7+commit.e28d00a7.Emscripten.clang"
  },
  "schemaVersion": "3.3.4",
  "updatedAt": "2021-09-03T13:19:59.423Z",
  "devdoc": {
    "kind": "dev",
    "methods": {},
    "version": 1
  },
  "userdoc": {
    "kind": "user",
    "methods": {},
    "version": 1
  }
}