{
  "contractName": "CertisTokenProxy",
  "abi": [
    {
      "inputs": [
        {
          "internalType": "address",
          "name": "CertisCodeContractAddress",
          "type": "address"
        },
        {
          "internalType": "address",
          "name": "managerContractAddress",
          "type": "address"
        }
      ],
      "stateMutability": "nonpayable",
      "type": "constructor"
    },
    {
      "anonymous": false,
      "inputs": [
        {
          "indexed": false,
          "internalType": "address",
          "name": "previousAdmin",
          "type": "address"
        },
        {
          "indexed": false,
          "internalType": "address",
          "name": "newAdmin",
          "type": "address"
        }
      ],
      "name": "AdminChanged",
      "type": "event"
    },
    {
      "anonymous": false,
      "inputs": [
        {
          "indexed": true,
          "internalType": "address",
          "name": "beacon",
          "type": "address"
        }
      ],
      "name": "BeaconUpgraded",
      "type": "event"
    },
    {
      "anonymous": false,
      "inputs": [
        {
          "indexed": true,
          "internalType": "address",
          "name": "implementation",
          "type": "address"
        }
      ],
      "name": "Upgraded",
      "type": "event"
    },
    {
      "stateMutability": "payable",
      "type": "fallback"
    },
    {
      "inputs": [],
      "name": "admin",
      "outputs": [
        {
          "internalType": "address",
          "name": "admin_",
          "type": "address"
        }
      ],
      "stateMutability": "nonpayable",
      "type": "function"
    },
    {
      "inputs": [
        {
          "internalType": "address",
          "name": "newAdmin",
          "type": "address"
        }
      ],
      "name": "changeAdmin",
      "outputs": [],
      "stateMutability": "nonpayable",
      "type": "function"
    },
    {
      "inputs": [],
      "name": "implementation",
      "outputs": [
        {
          "internalType": "address",
          "name": "implementation_",
          "type": "address"
        }
      ],
      "stateMutability": "nonpayable",
      "type": "function"
    },
    {
      "inputs": [
        {
          "internalType": "address",
          "name": "newImplementation",
          "type": "address"
        }
      ],
      "name": "upgradeTo",
      "outputs": [],
      "stateMutability": "nonpayable",
      "type": "function"
    },
    {
      "inputs": [
        {
          "internalType": "address",
          "name": "newImplementation",
          "type": "address"
        },
        {
          "internalType": "bytes",
          "name": "data",
          "type": "bytes"
        }
      ],
      "name": "upgradeToAndCall",
      "outputs": [],
      "stateMutability": "payable",
      "type": "function"
    },
    {
      "stateMutability": "payable",
      "type": "receive"
    }
  ],
  "bytecode": "0x60806040523480156200001157600080fd5b5060405162000e8638038062000e868339810160408190526200003491620004e2565b60408051808201909152600381526203078360ec1b60208201528290829082816200008160017f360894a13ba1a3210667c828492db98dca3e2076cc3735a920a3ca505d382bbd6200056d565b60008051602062000e3f83398151915214620000a157620000a1620005c2565b620000af8282600062000115565b50620000df905060017fb53127684a568b3173ae13b9f8a6016e243e63b6e8ee1178d6a717850b5d61046200056d565b60008051602062000e1f83398151915214620000ff57620000ff620005c2565b6200010a8262000186565b5050505050620005d8565b6200012083620001e1565b6040516001600160a01b038416907fbc7cd75a20ee27fd9adebab32041f755214dbc6bffa90cc0225b39da2e5c2d3b90600090a2600082511180620001625750805b1562000181576200017f8383620002a960201b620002601760201c565b505b505050565b7f7e644d79422f17c01e4894b5f4f588d331ebfa28653d42ae832dc59e38c9798f620001b1620002d8565b604080516001600160a01b03928316815291841660208301520160405180910390a1620001de8162000311565b50565b620001f781620003a160201b6200028c1760201c565b6200025f5760405162461bcd60e51b815260206004820152602d60248201527f455243313936373a206e657720696d706c656d656e746174696f6e206973206e60448201526c1bdd08184818dbdb9d1c9858dd609a1b60648201526084015b60405180910390fd5b806200028860008051602062000e3f83398151915260001b620003a760201b620002081760201c565b80546001600160a01b0319166001600160a01b039290921691909117905550565b6060620002d1838360405180606001604052806027815260200162000e5f60279139620003aa565b9392505050565b60006200030260008051602062000e1f83398151915260001b620003a760201b620002081760201c565b546001600160a01b0316919050565b6001600160a01b038116620003785760405162461bcd60e51b815260206004820152602660248201527f455243313936373a206e65772061646d696e20697320746865207a65726f206160448201526564647265737360d01b606482015260840162000256565b806200028860008051602062000e1f83398151915260001b620003a760201b620002081760201c565b3b151590565b90565b6060833b6200040b5760405162461bcd60e51b815260206004820152602660248201527f416464726573733a2064656c65676174652063616c6c20746f206e6f6e2d636f6044820152651b9d1c9858dd60d21b606482015260840162000256565b600080856001600160a01b0316856040516200042891906200051a565b600060405180830381855af49150503d806000811462000465576040519150601f19603f3d011682016040523d82523d6000602084013e6200046a565b606091505b5090925090506200047d82828662000487565b9695505050505050565b6060831562000498575081620002d1565b825115620004a95782518084602001fd5b8160405162461bcd60e51b815260040162000256919062000538565b80516001600160a01b0381168114620004dd57600080fd5b919050565b60008060408385031215620004f657600080fd5b6200050183620004c5565b91506200051160208401620004c5565b90509250929050565b600082516200052e81846020870162000593565b9190910192915050565b60208152600082518060208401526200055981604085016020870162000593565b601f01601f19169190910160400192915050565b6000828210156200058e57634e487b7160e01b600052601160045260246000fd5b500390565b60005b83811015620005b057818101518382015260200162000596565b838111156200017f5750506000910152565b634e487b7160e01b600052600160045260246000fd5b61083780620005e86000396000f3fe60806040526004361061004e5760003560e01c80633659cfe6146100655780634f1ef286146100855780635c60da1b146100985780638f283970146100c9578063f851a440146100e95761005d565b3661005d5761005b6100fe565b005b61005b6100fe565b34801561007157600080fd5b5061005b610080366004610682565b610118565b61005b61009336600461069d565b61015f565b3480156100a457600080fd5b506100ad6101d0565b6040516001600160a01b03909116815260200160405180910390f35b3480156100d557600080fd5b5061005b6100e4366004610682565b61020b565b3480156100f557600080fd5b506100ad610235565b610106610292565b610116610111610331565b61033b565b565b61012061035f565b6001600160a01b0316336001600160a01b031614156101575761015481604051806020016040528060008152506000610380565b50565b6101546100fe565b61016761035f565b6001600160a01b0316336001600160a01b031614156101c8576101c38383838080601f01602080910402602001604051908101604052809392919081815260200183838082843760009201919091525060019250610380915050565b505050565b6101c36100fe565b60006101da61035f565b6001600160a01b0316336001600160a01b03161415610200576101fb610331565b905090565b6102086100fe565b90565b61021361035f565b6001600160a01b0316336001600160a01b0316141561015757610154816103df565b600061023f61035f565b6001600160a01b0316336001600160a01b03161415610200576101fb61035f565b606061028583836040518060600160405280602781526020016107db60279139610433565b9392505050565b3b151590565b61029a61035f565b6001600160a01b0316336001600160a01b031614156101165760405162461bcd60e51b815260206004820152604260248201527f5472616e73706172656e745570677261646561626c6550726f78793a2061646d60448201527f696e2063616e6e6f742066616c6c6261636b20746f2070726f78792074617267606482015261195d60f21b608482015260a4015b60405180910390fd5b60006101fb610507565b3660008037600080366000845af43d6000803e80801561035a573d6000f35b3d6000fd5b600060008051602061079b8339815191525b546001600160a01b0316919050565b6103898361051d565b6040516001600160a01b038416907fbc7cd75a20ee27fd9adebab32041f755214dbc6bffa90cc0225b39da2e5c2d3b90600090a26000825111806103ca5750805b156101c3576103d98383610260565b50505050565b7f7e644d79422f17c01e4894b5f4f588d331ebfa28653d42ae832dc59e38c9798f61040861035f565b604080516001600160a01b03928316815291841660208301520160405180910390a1610154816105b3565b6060833b6104925760405162461bcd60e51b815260206004820152602660248201527f416464726573733a2064656c65676174652063616c6c20746f206e6f6e2d636f6044820152651b9d1c9858dd60d21b6064820152608401610328565b600080856001600160a01b0316856040516104ad919061071f565b600060405180830381855af49150503d80600081146104e8576040519150601f19603f3d011682016040523d82523d6000602084013e6104ed565b606091505b50915091506104fd82828661062d565b9695505050505050565b60006000805160206107bb833981519152610371565b803b6105815760405162461bcd60e51b815260206004820152602d60248201527f455243313936373a206e657720696d706c656d656e746174696f6e206973206e60448201526c1bdd08184818dbdb9d1c9858dd609a1b6064820152608401610328565b806000805160206107bb8339815191525b80546001600160a01b0319166001600160a01b039290921691909117905550565b6001600160a01b0381166106185760405162461bcd60e51b815260206004820152602660248201527f455243313936373a206e65772061646d696e20697320746865207a65726f206160448201526564647265737360d01b6064820152608401610328565b8060008051602061079b833981519152610592565b6060831561063c575081610285565b82511561064c5782518084602001fd5b8160405162461bcd60e51b8152600401610328919061073b565b80356001600160a01b038116811461067d57600080fd5b919050565b60006020828403121561069457600080fd5b61028582610666565b6000806000604084860312156106b257600080fd5b6106bb84610666565b925060208401356001600160401b03808211156106d757600080fd5b818601915086601f8301126106eb57600080fd5b8135818111156106fa57600080fd5b87602082850101111561070c57600080fd5b6020830194508093505050509250925092565b6000825161073181846020870161076e565b9190910192915050565b602081526000825180602084015261075a81604085016020870161076e565b601f01601f19169190910160400192915050565b60005b83811015610789578181015183820152602001610771565b838111156103d9575050600091015256feb53127684a568b3173ae13b9f8a6016e243e63b6e8ee1178d6a717850b5d6103360894a13ba1a3210667c828492db98dca3e2076cc3735a920a3ca505d382bbc416464726573733a206c6f772d6c6576656c2064656c65676174652063616c6c206661696c6564a26469706673582212208ff9eb6379f772cffc06b70e80aca4fb432c7ca64b887b6cb7a9ae2db699da9264736f6c63430008060033b53127684a568b3173ae13b9f8a6016e243e63b6e8ee1178d6a717850b5d6103360894a13ba1a3210667c828492db98dca3e2076cc3735a920a3ca505d382bbc416464726573733a206c6f772d6c6576656c2064656c65676174652063616c6c206661696c6564",
  "immutableReferences": {},
  "source": "// SPDX-License-Identifier: GPL-3.0\r\n\r\npragma solidity >=0.7.0 <0.9.0;\r\n\r\n/**\r\n * @title Storage\r\n * @dev Store & retrieve value in a variable\r\n */\r\n\r\nimport \"@openzeppelin/contracts/proxy/transparent/TransparentUpgradeableProxy.sol\";\r\n\r\n\r\ncontract CertisTokenProxy is TransparentUpgradeableProxy{\r\n\r\n    // CONSTRUCTOR\r\n    constructor(address CertisCodeContractAddress, address managerContractAddress)\r\n        TransparentUpgradeableProxy(CertisCodeContractAddress, managerContractAddress, \"0x0\") \r\n    {}\r\n    \r\n\r\n}",
  "sourcePath": "C:/Users/d-aam/GitHub/Certificates/contracts/DeployedContracts/Proxies/CertisTokenProxy.sol",
  "compiler": {
    "name": "solc",
    "version": "0.8.6+commit.11564f7e.Emscripten.clang"
  },
  "schemaVersion": "3.3.4",
  "updatedAt": "2021-07-29T14:06:26.459Z",
  "devdoc": {
    "kind": "dev",
    "methods": {
      "admin()": {
        "details": "Returns the current admin. NOTE: Only the admin can call this function. See {ProxyAdmin-getProxyAdmin}. TIP: To get this value clients can read directly from the storage slot shown below (specified by EIP1967) using the https://eth.wiki/json-rpc/API#eth_getstorageat[`eth_getStorageAt`] RPC call. `0xb53127684a568b3173ae13b9f8a6016e243e63b6e8ee1178d6a717850b5d6103`"
      },
      "changeAdmin(address)": {
        "details": "Changes the admin of the proxy. Emits an {AdminChanged} event. NOTE: Only the admin can call this function. See {ProxyAdmin-changeProxyAdmin}."
      },
      "implementation()": {
        "details": "Returns the current implementation. NOTE: Only the admin can call this function. See {ProxyAdmin-getProxyImplementation}. TIP: To get this value clients can read directly from the storage slot shown below (specified by EIP1967) using the https://eth.wiki/json-rpc/API#eth_getstorageat[`eth_getStorageAt`] RPC call. `0x360894a13ba1a3210667c828492db98dca3e2076cc3735a920a3ca505d382bbc`"
      },
      "upgradeTo(address)": {
        "details": "Upgrade the implementation of the proxy. NOTE: Only the admin can call this function. See {ProxyAdmin-upgrade}."
      },
      "upgradeToAndCall(address,bytes)": {
        "details": "Upgrade the implementation of the proxy, and then call a function from the new implementation as specified by `data`, which should be an encoded function call. This is useful to initialize new storage variables in the proxied contract. NOTE: Only the admin can call this function. See {ProxyAdmin-upgradeAndCall}."
      }
    },
    "version": 1
  },
  "userdoc": {
    "kind": "user",
    "methods": {},
    "version": 1
  }
}