{
  "contractName": "CertisToken",
  "abi": [
    {
      "anonymous": false,
      "inputs": [
        {
          "indexed": true,
          "internalType": "address",
          "name": "owner",
          "type": "address"
        },
        {
          "indexed": true,
          "internalType": "address",
          "name": "spender",
          "type": "address"
        },
        {
          "indexed": false,
          "internalType": "uint256",
          "name": "value",
          "type": "uint256"
        }
      ],
      "name": "Approval",
      "type": "event"
    },
    {
      "anonymous": false,
      "inputs": [
        {
          "indexed": true,
          "internalType": "address",
          "name": "from",
          "type": "address"
        },
        {
          "indexed": true,
          "internalType": "address",
          "name": "to",
          "type": "address"
        },
        {
          "indexed": false,
          "internalType": "uint256",
          "name": "value",
          "type": "uint256"
        }
      ],
      "name": "Transfer",
      "type": "event"
    },
    {
      "inputs": [
        {
          "internalType": "address",
          "name": "owner",
          "type": "address"
        },
        {
          "internalType": "address",
          "name": "spender",
          "type": "address"
        }
      ],
      "name": "allowance",
      "outputs": [
        {
          "internalType": "uint256",
          "name": "",
          "type": "uint256"
        }
      ],
      "stateMutability": "view",
      "type": "function"
    },
    {
      "inputs": [
        {
          "internalType": "address",
          "name": "spender",
          "type": "address"
        },
        {
          "internalType": "uint256",
          "name": "amount",
          "type": "uint256"
        }
      ],
      "name": "approve",
      "outputs": [
        {
          "internalType": "bool",
          "name": "",
          "type": "bool"
        }
      ],
      "stateMutability": "nonpayable",
      "type": "function"
    },
    {
      "inputs": [
        {
          "internalType": "address",
          "name": "account",
          "type": "address"
        }
      ],
      "name": "balanceOf",
      "outputs": [
        {
          "internalType": "uint256",
          "name": "",
          "type": "uint256"
        }
      ],
      "stateMutability": "view",
      "type": "function"
    },
    {
      "inputs": [
        {
          "internalType": "address",
          "name": "spender",
          "type": "address"
        },
        {
          "internalType": "uint256",
          "name": "subtractedValue",
          "type": "uint256"
        }
      ],
      "name": "decreaseAllowance",
      "outputs": [
        {
          "internalType": "bool",
          "name": "",
          "type": "bool"
        }
      ],
      "stateMutability": "nonpayable",
      "type": "function"
    },
    {
      "inputs": [
        {
          "internalType": "address",
          "name": "spender",
          "type": "address"
        },
        {
          "internalType": "uint256",
          "name": "addedValue",
          "type": "uint256"
        }
      ],
      "name": "increaseAllowance",
      "outputs": [
        {
          "internalType": "bool",
          "name": "",
          "type": "bool"
        }
      ],
      "stateMutability": "nonpayable",
      "type": "function"
    },
    {
      "inputs": [],
      "name": "name",
      "outputs": [
        {
          "internalType": "string",
          "name": "",
          "type": "string"
        }
      ],
      "stateMutability": "view",
      "type": "function"
    },
    {
      "inputs": [],
      "name": "symbol",
      "outputs": [
        {
          "internalType": "string",
          "name": "",
          "type": "string"
        }
      ],
      "stateMutability": "view",
      "type": "function"
    },
    {
      "inputs": [],
      "name": "totalSupply",
      "outputs": [
        {
          "internalType": "uint256",
          "name": "",
          "type": "uint256"
        }
      ],
      "stateMutability": "view",
      "type": "function"
    },
    {
      "inputs": [
        {
          "internalType": "address",
          "name": "recipient",
          "type": "address"
        },
        {
          "internalType": "uint256",
          "name": "amount",
          "type": "uint256"
        }
      ],
      "name": "transfer",
      "outputs": [
        {
          "internalType": "bool",
          "name": "",
          "type": "bool"
        }
      ],
      "stateMutability": "nonpayable",
      "type": "function"
    },
    {
      "inputs": [
        {
          "internalType": "address",
          "name": "sender",
          "type": "address"
        },
        {
          "internalType": "address",
          "name": "recipient",
          "type": "address"
        },
        {
          "internalType": "uint256",
          "name": "amount",
          "type": "uint256"
        }
      ],
      "name": "transferFrom",
      "outputs": [
        {
          "internalType": "bool",
          "name": "",
          "type": "bool"
        }
      ],
      "stateMutability": "nonpayable",
      "type": "function"
    },
    {
      "inputs": [
        {
          "internalType": "string",
          "name": "name",
          "type": "string"
        },
        {
          "internalType": "string",
          "name": "symbol",
          "type": "string"
        },
        {
          "internalType": "uint256",
          "name": "MaxSupply",
          "type": "uint256"
        },
        {
          "internalType": "address",
          "name": "managerContractAddress",
          "type": "address"
        },
        {
          "internalType": "uint8",
          "name": "decimalsValue",
          "type": "uint8"
        }
      ],
      "name": "CertisToken_init",
      "outputs": [],
      "stateMutability": "nonpayable",
      "type": "function"
    },
    {
      "inputs": [],
      "name": "decimals",
      "outputs": [
        {
          "internalType": "uint8",
          "name": "",
          "type": "uint8"
        }
      ],
      "stateMutability": "view",
      "type": "function"
    },
    {
      "inputs": [
        {
          "internalType": "uint256",
          "name": "deadline",
          "type": "uint256"
        }
      ],
      "name": "RegisterProp",
      "outputs": [
        {
          "internalType": "uint256",
          "name": "",
          "type": "uint256"
        }
      ],
      "stateMutability": "nonpayable",
      "type": "function"
    },
    {
      "inputs": [
        {
          "internalType": "uint256",
          "name": "id",
          "type": "uint256"
        }
      ],
      "name": "RemoveProp",
      "outputs": [],
      "stateMutability": "nonpayable",
      "type": "function"
    },
    {
      "inputs": [
        {
          "internalType": "uint256",
          "name": "id",
          "type": "uint256"
        },
        {
          "internalType": "address",
          "name": "voter",
          "type": "address"
        },
        {
          "internalType": "uint256",
          "name": "votingTokens",
          "type": "uint256"
        }
      ],
      "name": "Voted",
      "outputs": [],
      "stateMutability": "nonpayable",
      "type": "function"
    },
    {
      "inputs": [
        {
          "internalType": "uint256",
          "name": "id",
          "type": "uint256"
        },
        {
          "internalType": "address",
          "name": "addr",
          "type": "address"
        }
      ],
      "name": "GetVotingTokens",
      "outputs": [
        {
          "internalType": "uint256",
          "name": "",
          "type": "uint256"
        }
      ],
      "stateMutability": "view",
      "type": "function"
    }
  ],
  "bytecode": "0x608060405234801561001057600080fd5b50611739806100206000396000f3fe608060405234801561001057600080fd5b50600436106100d05760003560e01c806306fdde03146100d5578063095ea7b3146100f357806314bfa6211461011657806318160ddd1461012b5780631abe610c1461013d57806323b872dd14610150578063313ce5671461016357806339509351146101785780633bb3441d1461018b5780633c7b7af31461019e57806370a08231146101b157806395d89b41146101da578063a457c2d7146101e2578063a562ea07146101f5578063a9059cbb14610208578063dd62ed3e1461021b575b600080fd5b6100dd610254565b6040516100ea919061155d565b60405180910390f35b610106610101366004611405565b6102e6565b60405190151581526020016100ea565b610129610124366004611431565b6102fd565b005b6036545b6040519081526020016100ea565b61012961014b366004611522565b6103a3565b61010661015e3660046113c4565b610418565b60665460405160ff90911681526020016100ea565b610106610186366004611405565b6104c2565b61012f6101993660046114fd565b6104fe565b6101296101ac3660046114cb565b6105a5565b61012f6101bf366004611351565b6001600160a01b031660009081526034602052604090205490565b6100dd610636565b6101066101f0366004611405565b610645565b61012f6102033660046114cb565b6106de565b610106610216366004611405565b6107f3565b61012f61022936600461138b565b6001600160a01b03918216600090815260356020908152604080832093909416825291909152205490565b6060603780546102639061164c565b80601f016020809104026020016040519081016040528092919081815260200182805461028f9061164c565b80156102dc5780601f106102b1576101008083540402835291602001916102dc565b820191906000526020600020905b8154815290600101906020018083116102bf57829003601f168201915b5050505050905090565b60006102f3338484610800565b5060015b92915050565b600054610100900460ff1680610316575060005460ff16155b61033b5760405162461bcd60e51b8152600401610332906115b2565b60405180910390fd5b600054610100900460ff1615801561035d576000805461ffff19166101011790555b61036683610924565b61037086866109ab565b6066805460ff191660ff84161790556103893385610a2b565b801561039b576000805461ff00191690555b505050505050565b6000838152606a602052604090205483906001600160a01b031633146103db5760405162461bcd60e51b815260040161033290611600565b6000848152606b602090815260408083206001600160a01b03871684529091528120805484929061040d90849061161d565b909155505050505050565b6000610425848484610b04565b6001600160a01b0384166000908152603560209081526040808320338452909152902054828110156104aa5760405162461bcd60e51b815260206004820152602860248201527f45524332303a207472616e7366657220616d6f756e74206578636565647320616044820152676c6c6f77616e636560c01b6064820152608401610332565b6104b78533858403610800565b506001949350505050565b3360008181526035602090815260408083206001600160a01b038716845290915281205490916102f39185906104f990869061161d565b610800565b6000828152606b602090815260408083206001600160a01b03851684529091528082205490516370a0823160e01b815230906370a0823190610544908690600401611549565b60206040518083038186803b15801561055c57600080fd5b505afa158015610570573d6000803e3d6000fd5b505050506040513d601f19601f8201168201806040525081019061059491906114e4565b61059e9190611635565b9392505050565b6000818152606a602052604090205481906001600160a01b031633146105dd5760405162461bcd60e51b815260040161033290611600565b6000828152606960209081526040808320839055606a909152902080546001600160a01b0319169055606754829061061690600161161d565b1415610632576067805490600061062c83611687565b91905055505b5050565b6060603880546102639061164c565b3360009081526035602090815260408083206001600160a01b0386168452909152812054828110156106c75760405162461bcd60e51b815260206004820152602560248201527f45524332303a2064656372656173656420616c6c6f77616e63652062656c6f77604482015264207a65726f60d81b6064820152608401610332565b6106d43385858403610800565b5060019392505050565b60335460408051635a3794e960e01b815290516000926001600160a01b031691635a3794e9916004808301926020929190829003018186803b15801561072357600080fd5b505afa158015610737573d6000803e3d6000fd5b505050506040513d601f19601f8201168201806040525081019061075b919061136e565b6001600160a01b0316336001600160a01b0316148061078457506033546001600160a01b031633145b6107a05760405162461bcd60e51b815260040161033290611600565b60688054600090815260696020908152604080832086905583548352606a909152812080546001600160a01b03191633179055815460019291906107e590849061161d565b909155505060685492915050565b60006102f3338484610b04565b6001600160a01b0383166108625760405162461bcd60e51b8152602060048201526024808201527f45524332303a20617070726f76652066726f6d20746865207a65726f206164646044820152637265737360e01b6064820152608401610332565b6001600160a01b0382166108c35760405162461bcd60e51b815260206004820152602260248201527f45524332303a20617070726f766520746f20746865207a65726f206164647265604482015261737360f01b6064820152608401610332565b6001600160a01b0383811660008181526035602090815260408083209487168084529482529182902085905590518481527f8c5be1e5ebec7d5bd14f71427d1e84f3dd0314c0f7b2291e5b200ac8c7c3b925910160405180910390a3505050565b600054610100900460ff168061093d575060005460ff16155b6109595760405162461bcd60e51b8152600401610332906115b2565b600054610100900460ff1615801561097b576000805461ffff19166101011790555b603380546001600160a01b0319166001600160a01b0384161790558015610632576000805461ff00191690555050565b600054610100900460ff16806109c4575060005460ff16155b6109e05760405162461bcd60e51b8152600401610332906115b2565b600054610100900460ff16158015610a02576000805461ffff19166101011790555b610a0a610ccd565b610a148383610d39565b8015610a26576000805461ff00191690555b505050565b6001600160a01b038216610a815760405162461bcd60e51b815260206004820152601f60248201527f45524332303a206d696e7420746f20746865207a65726f2061646472657373006044820152606401610332565b610a8d60008383610dce565b8060366000828254610a9f919061161d565b90915550506001600160a01b03821660009081526034602052604081208054839290610acc90849061161d565b90915550506040518181526001600160a01b038316906000906000805160206116e48339815191529060200160405180910390a35050565b6001600160a01b038316610b685760405162461bcd60e51b815260206004820152602560248201527f45524332303a207472616e736665722066726f6d20746865207a65726f206164604482015264647265737360d81b6064820152608401610332565b6001600160a01b038216610bca5760405162461bcd60e51b815260206004820152602360248201527f45524332303a207472616e7366657220746f20746865207a65726f206164647260448201526265737360e81b6064820152608401610332565b610bd5838383610dce565b6001600160a01b03831660009081526034602052604090205481811015610c4d5760405162461bcd60e51b815260206004820152602660248201527f45524332303a207472616e7366657220616d6f756e7420657863656564732062604482015265616c616e636560d01b6064820152608401610332565b6001600160a01b03808516600090815260346020526040808220858503905591851681529081208054849290610c8490849061161d565b92505081905550826001600160a01b0316846001600160a01b03166000805160206116e483398151915284604051610cbe91815260200190565b60405180910390a35b50505050565b600054610100900460ff1680610ce6575060005460ff16155b610d025760405162461bcd60e51b8152600401610332906115b2565b600054610100900460ff16158015610d24576000805461ffff19166101011790555b8015610d36576000805461ff00191690555b50565b600054610100900460ff1680610d52575060005460ff16155b610d6e5760405162461bcd60e51b8152600401610332906115b2565b600054610100900460ff16158015610d90576000805461ffff19166101011790555b8251610da390603790602086019061122c565b508151610db790603890602085019061122c565b508015610a26576000805461ff0019169055505050565b8281610dda8282611093565b15610e105760405162461bcd60e51b8152600401610332906020808252600490820152634543323960e01b604082015260600190565b6001600160a01b03851615801590610eb55750603360009054906101000a90046001600160a01b03166001600160a01b0316635a3794e96040518163ffffffff1660e01b815260040160206040518083038186803b158015610e7157600080fd5b505afa158015610e85573d6000803e3d6000fd5b505050506040513d601f19601f82011682018060405250810190610ea9919061136e565b6001600160a01b031615155b1561108157603360009054906101000a90046001600160a01b03166001600160a01b0316635a3794e96040518163ffffffff1660e01b815260040160206040518083038186803b158015610f0857600080fd5b505afa158015610f1c573d6000803e3d6000fd5b505050506040513d601f19601f82011682018060405250810190610f40919061136e565b6001600160a01b031663c931c2b1866040518263ffffffff1660e01b8152600401610f6b9190611549565b600060405180830381600087803b158015610f8557600080fd5b505af1158015610f99573d6000803e3d6000fd5b50505050603360009054906101000a90046001600160a01b03166001600160a01b0316635a3794e96040518163ffffffff1660e01b815260040160206040518083038186803b158015610feb57600080fd5b505afa158015610fff573d6000803e3d6000fd5b505050506040513d601f19601f82011682018060405250810190611023919061136e565b6001600160a01b031663c931c2b1856040518263ffffffff1660e01b815260040161104e9190611549565b600060405180830381600087803b15801561106857600080fd5b505af115801561107c573d6000803e3d6000fd5b505050505b61108c858585611168565b5050505050565b60006001600160a01b03831615806110af575060685460675410155b156110bc575060006102f7565b6067546001905b60685481101561115d5760008181526069602052604090205442111561111357600081815260696020526040812055811561110e576067805490600061110883611687565b91905055505b61114b565b6000818152606b602090815260408083206001600160a01b038916845290915281205490925084111561114b576001925050506102f7565b8061115581611687565b9150506110c3565b506000949350505050565b6001600160a01b038316158015906111835750606854606754105b15610a26576067545b606854811015610cc757600081815260696020526040902054421161121a576000818152606b602090815260408083206001600160a01b0388168452909152812080548492906111dd908490611635565b90915550506000818152606b602090815260408083206001600160a01b03871684529091528120805484929061121490849061161d565b90915550505b8061122481611687565b91505061118c565b8280546112389061164c565b90600052602060002090601f01602090048101928261125a57600085556112a0565b82601f1061127357805160ff19168380011785556112a0565b828001600101855582156112a0579182015b828111156112a0578251825591602001919060010190611285565b506112ac9291506112b0565b5090565b5b808211156112ac57600081556001016112b1565b600082601f8301126112d657600080fd5b81356001600160401b03808211156112f0576112f06116b8565b604051601f8301601f19908116603f01168101908282118183101715611318576113186116b8565b8160405283815286602085880101111561133157600080fd5b836020870160208301376000602085830101528094505050505092915050565b60006020828403121561136357600080fd5b813561059e816116ce565b60006020828403121561138057600080fd5b815161059e816116ce565b6000806040838503121561139e57600080fd5b82356113a9816116ce565b915060208301356113b9816116ce565b809150509250929050565b6000806000606084860312156113d957600080fd5b83356113e4816116ce565b925060208401356113f4816116ce565b929592945050506040919091013590565b6000806040838503121561141857600080fd5b8235611423816116ce565b946020939093013593505050565b600080600080600060a0868803121561144957600080fd5b85356001600160401b038082111561146057600080fd5b61146c89838a016112c5565b9650602088013591508082111561148257600080fd5b5061148f888289016112c5565b9450506040860135925060608601356114a7816116ce565b9150608086013560ff811681146114bd57600080fd5b809150509295509295909350565b6000602082840312156114dd57600080fd5b5035919050565b6000602082840312156114f657600080fd5b5051919050565b6000806040838503121561151057600080fd5b8235915060208301356113b9816116ce565b60008060006060848603121561153757600080fd5b8335925060208401356113f4816116ce565b6001600160a01b0391909116815260200190565b600060208083528351808285015260005b8181101561158a5785810183015185820160400152820161156e565b8181111561159c576000604083870101525b50601f01601f1916929092016040019392505050565b6020808252602e908201527f496e697469616c697a61626c653a20636f6e747261637420697320616c72656160408201526d191e481a5b9a5d1a585b1a5e995960921b606082015260800190565b60208082526003908201526208a86760eb1b604082015260600190565b60008219821115611630576116306116a2565b500190565b600082821015611647576116476116a2565b500390565b600181811c9082168061166057607f821691505b6020821081141561168157634e487b7160e01b600052602260045260246000fd5b50919050565b600060001982141561169b5761169b6116a2565b5060010190565b634e487b7160e01b600052601160045260246000fd5b634e487b7160e01b600052604160045260246000fd5b6001600160a01b0381168114610d3657600080fdfeddf252ad1be2c89b69c2b068fc378daa952ba7f163c4a11628f55a4df523b3efa26469706673582212209582f78b1a79bc92e570a865830dc7731259a7bbc5cc0c1fcc1f2c1ad66adaba64736f6c63430008070033",
  "immutableReferences": {},
  "source": "// SPDX-License-Identifier: GPL-3.0\r\n\r\npragma solidity ^0.8.0;\r\n\r\n/**\r\n * @title Storage\r\n * @dev Store & retrieve value in a variable\r\n */\r\n\r\nimport \"@openzeppelin/contracts-upgradeable/token/ERC20/ERC20Upgradeable.sol\";\r\nimport \"@openzeppelin/contracts-upgradeable/proxy/utils/Initializable.sol\";\r\nimport \"../Libraries/AddressLibrary.sol\";\r\nimport \"../Interfaces/ICertisToken.sol\";\r\nimport \"../Interfaces/ITreasury.sol\";\r\nimport \"../Base/ManagedBaseContract.sol\";\r\n\r\n contract CertisToken is  Initializable, ICertisToken, ManagedBaseContract, ERC20Upgradeable {\r\n    using AddressLibrary for *;\r\n\r\n    // DATA /////////////////////////////////////////\r\n    // decimals\r\n    uint8 private _decimals;\r\n\r\n    //voting management\r\n    uint private _lastFinishedProp;\r\n    uint private _currentProp;\r\n    mapping(uint => uint) private _propDeadline;\r\n    mapping(uint => address) private _propProposer;\r\n    mapping(uint => mapping(address => uint)) private _votersPerProp;\r\n\r\n    // MODIFIERS /////////////////////////////////////////\r\n    modifier isNotBlocked(address from, uint amount){\r\n        require(false == Blocked(from, amount), \"EC29\");\r\n        _;\r\n    }\r\n\r\n    modifier canRegister(){\r\n        require(msg.sender == _managerContract.retrieveTreasuryProxy() ||\r\n            msg.sender == address(_managerContract), \"EC8\");\r\n        _;\r\n    }\r\n\r\n    modifier canCancel(uint id){\r\n        require(msg.sender == _propProposer[id], \"EC8\");\r\n        _;\r\n    }\r\n\r\n    modifier canVote(uint id){\r\n        require(msg.sender == _propProposer[id], \"EC8\");\r\n        _;\r\n    }\r\n\r\n    // CONSTRUCTOR /////////////////////////////////////////\r\n    function CertisToken_init(string memory name, string memory symbol, uint256 MaxSupply, address managerContractAddress, uint8 decimalsValue) public initializer {\r\n        super.ManagedBaseContract_init(managerContractAddress);\r\n        super.__ERC20_init(name, symbol);\r\n    \r\n        _decimals = decimalsValue;\r\n        _mint(msg.sender, MaxSupply);\r\n    }\r\n\r\n    // FUNCTIONALITY /////////////////////////////////////////\r\n    function decimals() public view override returns (uint8) \r\n    {\r\n        return _decimals;\r\n    }\r\n\r\n    function RegisterProp(uint256 deadline) external \r\n        canRegister()\r\n    override returns (uint256)\r\n    {\r\n        _propDeadline[_currentProp] = deadline;\r\n        _propProposer[_currentProp] = msg.sender;\r\n        _currentProp += 1;\r\n        return _currentProp;\r\n    }\r\n\r\n    function RemoveProp(uint256 id) external\r\n        canCancel(id)\r\n    override\r\n    {\r\n        delete(_propDeadline[id]);\r\n        delete(_propProposer[id]);\r\n        if(_lastFinishedProp + 1 == id)_lastFinishedProp++;\r\n    }\r\n\r\n    function Voted(uint256 id, address voter, uint256 votingTokens) external\r\n        canVote(id)\r\n    override\r\n    {\r\n        _votersPerProp[id][voter] += votingTokens;\r\n    }\r\n\r\n    function GetVotingTokens(uint256 id, address addr) external view override returns(uint256)\r\n    {\r\n        return (this.balanceOf(addr) - _votersPerProp[id][addr]);\r\n    }\r\n\r\n    function _beforeTokenTransfer(address from, address to, uint256 amount) internal \r\n        isNotBlocked(from, amount)\r\n    override \r\n    {\r\n        if(address(0) != from && address(0) != _managerContract.retrieveTreasuryProxy())\r\n        {\r\n            ITreasury(_managerContract.retrieveTreasuryProxy()).AssignDividends(from);\r\n            ITreasury(_managerContract.retrieveTreasuryProxy()).AssignDividends(to);\r\n        }\r\n\r\n        transferVoting(from, to, amount);\r\n    }\r\n\r\n    function Blocked(address from, uint256 amount) internal returns(bool)\r\n    {\r\n        if(address(0) == from || _lastFinishedProp >= _currentProp) return false;\r\n\r\n        bool incrementLastProp = true;\r\n\r\n        for(uint i=_lastFinishedProp; i < _currentProp; i++){\r\n            if(_propDeadline[i] < block.timestamp){\r\n                delete(_propDeadline[i]);\r\n                if(incrementLastProp)_lastFinishedProp++;\r\n            }\r\n            else{\r\n                incrementLastProp = false;\r\n                if(_votersPerProp[i][from] < amount) return true;\r\n            }\r\n        }\r\n\r\n        return false;\r\n    }\r\n\r\n    function transferVoting(address from, address to, uint256 amount) internal \r\n    {\r\n        if(address(0) != from && _lastFinishedProp < _currentProp) \r\n        {\r\n            for(uint i=_lastFinishedProp; i < _currentProp; i++)\r\n            {\r\n                if(_propDeadline[i] >= block.timestamp)\r\n                {\r\n                    _votersPerProp[i][from] -= amount;\r\n                    _votersPerProp[i][to] += amount;\r\n                }\r\n            }\r\n        }\r\n    }\r\n  \r\n\r\n }",
  "sourcePath": "C:/Users/d-aam/GitHub/Certificates/contracts/DeployedContracts/CertisToken.sol",
  "compiler": {
    "name": "solc",
    "version": "0.8.7+commit.e28d00a7.Emscripten.clang"
  },
  "schemaVersion": "3.3.4",
  "updatedAt": "2021-08-12T15:19:19.435Z",
  "devdoc": {
    "kind": "dev",
    "methods": {
      "allowance(address,address)": {
        "details": "See {IERC20-allowance}."
      },
      "approve(address,uint256)": {
        "details": "See {IERC20-approve}. Requirements: - `spender` cannot be the zero address."
      },
      "balanceOf(address)": {
        "details": "See {IERC20-balanceOf}."
      },
      "decimals()": {
        "details": "Returns the number of decimals used to get its user representation. For example, if `decimals` equals `2`, a balance of `505` tokens should be displayed to a user as `5,05` (`505 / 10 ** 2`). Tokens usually opt for a value of 18, imitating the relationship between Ether and Wei. This is the value {ERC20} uses, unless this function is overridden; NOTE: This information is only used for _display_ purposes: it in no way affects any of the arithmetic of the contract, including {IERC20-balanceOf} and {IERC20-transfer}."
      },
      "decreaseAllowance(address,uint256)": {
        "details": "Atomically decreases the allowance granted to `spender` by the caller. This is an alternative to {approve} that can be used as a mitigation for problems described in {IERC20-approve}. Emits an {Approval} event indicating the updated allowance. Requirements: - `spender` cannot be the zero address. - `spender` must have allowance for the caller of at least `subtractedValue`."
      },
      "increaseAllowance(address,uint256)": {
        "details": "Atomically increases the allowance granted to `spender` by the caller. This is an alternative to {approve} that can be used as a mitigation for problems described in {IERC20-approve}. Emits an {Approval} event indicating the updated allowance. Requirements: - `spender` cannot be the zero address."
      },
      "name()": {
        "details": "Returns the name of the token."
      },
      "symbol()": {
        "details": "Returns the symbol of the token, usually a shorter version of the name."
      },
      "totalSupply()": {
        "details": "See {IERC20-totalSupply}."
      },
      "transfer(address,uint256)": {
        "details": "See {IERC20-transfer}. Requirements: - `recipient` cannot be the zero address. - the caller must have a balance of at least `amount`."
      },
      "transferFrom(address,address,uint256)": {
        "details": "See {IERC20-transferFrom}. Emits an {Approval} event indicating the updated allowance. This is not required by the EIP. See the note at the beginning of {ERC20}. Requirements: - `sender` and `recipient` cannot be the zero address. - `sender` must have a balance of at least `amount`. - the caller must have allowance for ``sender``'s tokens of at least `amount`."
      }
    },
    "version": 1
  },
  "userdoc": {
    "kind": "user",
    "methods": {},
    "version": 1
  }
}