{
  "contractName": "CertificatesPoolManager",
  "abi": [
    {
      "inputs": [
        {
          "internalType": "uint256",
          "name": "PropositionLifeTime",
          "type": "uint256"
        },
        {
          "internalType": "uint8",
          "name": "PropositionThresholdPercentage",
          "type": "uint8"
        },
        {
          "internalType": "uint8",
          "name": "minWeightToProposePercentage",
          "type": "uint8"
        }
      ],
      "stateMutability": "nonpayable",
      "type": "constructor"
    },
    {
      "inputs": [],
      "name": "cancelProposition",
      "outputs": [],
      "stateMutability": "nonpayable",
      "type": "function"
    },
    {
      "inputs": [],
      "name": "retrievePropConfig",
      "outputs": [
        {
          "internalType": "uint256",
          "name": "",
          "type": "uint256"
        },
        {
          "internalType": "uint8",
          "name": "",
          "type": "uint8"
        },
        {
          "internalType": "uint8",
          "name": "",
          "type": "uint8"
        }
      ],
      "stateMutability": "view",
      "type": "function"
    },
    {
      "inputs": [],
      "name": "retrievePropositionStatus",
      "outputs": [
        {
          "internalType": "address",
          "name": "",
          "type": "address"
        },
        {
          "internalType": "uint256",
          "name": "",
          "type": "uint256"
        },
        {
          "internalType": "uint256",
          "name": "",
          "type": "uint256"
        },
        {
          "internalType": "uint256",
          "name": "",
          "type": "uint256"
        },
        {
          "internalType": "uint256",
          "name": "",
          "type": "uint256"
        },
        {
          "internalType": "address[]",
          "name": "",
          "type": "address[]"
        },
        {
          "internalType": "uint256[]",
          "name": "",
          "type": "uint256[]"
        },
        {
          "internalType": "address[]",
          "name": "",
          "type": "address[]"
        }
      ],
      "stateMutability": "view",
      "type": "function"
    },
    {
      "inputs": [
        {
          "internalType": "uint256",
          "name": "PropLifeTime",
          "type": "uint256"
        },
        {
          "internalType": "uint8",
          "name": "PropThresholdPerc",
          "type": "uint8"
        },
        {
          "internalType": "uint8",
          "name": "minWeightToPropPerc",
          "type": "uint8"
        }
      ],
      "name": "updateProp",
      "outputs": [],
      "stateMutability": "nonpayable",
      "type": "function"
    },
    {
      "inputs": [
        {
          "internalType": "bool",
          "name": "vote",
          "type": "bool"
        }
      ],
      "name": "voteProposition",
      "outputs": [],
      "stateMutability": "nonpayable",
      "type": "function"
    },
    {
      "inputs": [
        {
          "internalType": "address",
          "name": "PublicPoolAddress",
          "type": "address"
        },
        {
          "internalType": "address",
          "name": "TreasuryAddress",
          "type": "address"
        },
        {
          "internalType": "address",
          "name": "CertisTokenAddress",
          "type": "address"
        },
        {
          "internalType": "address",
          "name": "PrivatePoolGeneratorAddress",
          "type": "address"
        }
      ],
      "name": "Initialize",
      "outputs": [],
      "stateMutability": "nonpayable",
      "type": "function"
    },
    {
      "inputs": [
        {
          "internalType": "address",
          "name": "PublicPoolAddress",
          "type": "address"
        },
        {
          "internalType": "address",
          "name": "TreasuryAddress",
          "type": "address"
        },
        {
          "internalType": "address",
          "name": "CertisTokenAddress",
          "type": "address"
        },
        {
          "internalType": "address",
          "name": "PrivatePoolGeneratorAddress",
          "type": "address"
        }
      ],
      "name": "updateContracts",
      "outputs": [],
      "stateMutability": "nonpayable",
      "type": "function"
    },
    {
      "inputs": [],
      "name": "retrieveProposition",
      "outputs": [
        {
          "internalType": "string[]",
          "name": "",
          "type": "string[]"
        }
      ],
      "stateMutability": "view",
      "type": "function"
    },
    {
      "inputs": [],
      "name": "retrieveConfiguration",
      "outputs": [
        {
          "internalType": "address",
          "name": "",
          "type": "address"
        },
        {
          "internalType": "address",
          "name": "",
          "type": "address"
        },
        {
          "internalType": "address",
          "name": "",
          "type": "address"
        },
        {
          "internalType": "address",
          "name": "",
          "type": "address"
        },
        {
          "internalType": "address",
          "name": "",
          "type": "address"
        },
        {
          "internalType": "uint256",
          "name": "",
          "type": "uint256"
        }
      ],
      "stateMutability": "view",
      "type": "function"
    }
  ],
  "bytecode": "0x60806040523480156200001157600080fd5b506040516200253e3803806200253e833981016040819052620000349162000911565b600080546001600160a01b0319163317905582828262000058838383600162000072565b50506015805460ff60a01b191690555062000ac992505050565b82828160ff1660641015620000a45760405162461bcd60e51b81526004016200009b90620009b0565b60405180910390fd5b8060ff1660641015620000cb5760405162461bcd60e51b81526004016200009b90620009b0565b8215620000f857600a869055600b805460ff8681166101000261ffff199092169088161717905562000145565b600c869055600d805460ff8681166101000261ffff1990921690881617179055600e805460ff19166001179055600a54620001459062000139904262000a27565b600b5460ff166200014d565b505050505050565b600062000159620002cd565b15620001915760405162461bcd60e51b81526004016200009b906020808252600490820152631150cc8d60e21b604082015260600190565b6200019c336200030d565b1515600114620001d85760405162461bcd60e51b81526004016200009b9060208082526004908201526322a1991960e11b604082015260600190565b620001e2620003cd565b8051620001f891600791602090910190620006a5565b50600754620002655760405162461bcd60e51b815260206004820152603260248201527f496d706f737369626c6520746f206164642070726f706f736974696f6e2c20746044820152716865726520617265206e6f2061646d696e7360701b60648201526084016200009b565b600280546001600160a01b031916331790556003839055606460ff83166200028c62000466565b62000298919062000a65565b620002a4919062000a42565b600455620002b1620004ec565b8051620002c7916008916020909101906200070f565b50505050565b600354600090421015620002e15750600190565b6002546001600160a01b0316156200030757620002fd62000585565b62000307620005b9565b50600090565b600080546001600160a01b03163314156200032a57506001919050565b600062000336620003cd565b9050600062000344620004ec565b9050600062000354858462000610565b90508251811015620003bd5760646200036c62000466565b600b54620003839190610100900460ff1662000a65565b6200038f919062000a42565b828281518110620003a457620003a462000a9d565b602002602001015110620003bd57506001949350505050565b506000949350505050565b919050565b60606000600160009054906101000a90046001600160a01b03166001600160a01b03166388d44ee06040518163ffffffff1660e01b815260040160006040518083038186803b1580156200042057600080fd5b505afa15801562000435573d6000803e3d6000fd5b505050506040513d6000823e601f3d908101601f191682016040526200045f919081019062000813565b5092915050565b600154604080516318160ddd60e01b815290516000926001600160a01b0316916318160ddd916004808301926020929190829003018186803b158015620004ac57600080fd5b505afa158015620004c1573d6000803e3d6000fd5b505050506040513d601f19601f82011682018060405250810190620004e79190620008f7565b905090565b60606000600160009054906101000a90046001600160a01b03166001600160a01b03166388d44ee06040518163ffffffff1660e01b815260040160006040518083038186803b1580156200053f57600080fd5b505afa15801562000554573d6000803e3d6000fd5b505050506040513d6000823e601f3d908101601f191682016040526200057e919081019062000813565b9392505050565b620005b7600f80546001600160a01b031990811690915560108054821690556011805482169055601280549091169055565b565b600280546001600160a01b031916815560006003819055600481905560058190556006819055620005ec6007826200074d565b620005fc6006830160006200074d565b6200060c6007830160006200074d565b5050565b60405160016219125f60e01b0319815260009073__AddressLibrary________________________9063ffe6eda19062000651908690869060040162000952565b60206040518083038186803b1580156200066a57600080fd5b505af41580156200067f573d6000803e3d6000fd5b505050506040513d601f19601f820116820180604052508101906200057e9190620008f7565b828054828255906000526020600020908101928215620006fd579160200282015b82811115620006fd57825182546001600160a01b0319166001600160a01b03909116178255602090920191600190910190620006c6565b506200070b92915062000770565b5090565b828054828255906000526020600020908101928215620006fd579160200282015b82811115620006fd57825182559160200191906001019062000730565b50805460008255906000526020600020908101906200076d919062000770565b50565b5b808211156200070b576000815560010162000771565b600082601f8301126200079957600080fd5b81516020620007b2620007ac8362000a01565b620009ce565b80838252828201915082860187848660051b8901011115620007d357600080fd5b60005b85811015620007f457815184529284019290840190600101620007d6565b5090979650505050505050565b805160ff81168114620003c857600080fd5b600080604083850312156200082757600080fd5b82516001600160401b03808211156200083f57600080fd5b818501915085601f8301126200085457600080fd5b8151602062000867620007ac8362000a01565b8083825282820191508286018a848660051b89010111156200088857600080fd5b600096505b84871015620008c35780516001600160a01b0381168114620008ae57600080fd5b8352600196909601959183019183016200088d565b5091880151919650909350505080821115620008de57600080fd5b50620008ed8582860162000787565b9150509250929050565b6000602082840312156200090a57600080fd5b5051919050565b6000806000606084860312156200092757600080fd5b83519250620009396020850162000801565b9150620009496040850162000801565b90509250925092565b6001600160a01b038381168252604060208084018290528451918401829052600092858201929091906060860190855b81811015620009a257855185168352948301949183019160010162000982565b509098975050505050505050565b6020808252600490820152634543323160e01b604082015260600190565b604051601f8201601f191681016001600160401b0381118282101715620009f957620009f962000ab3565b604052919050565b60006001600160401b0382111562000a1d5762000a1d62000ab3565b5060051b60200190565b6000821982111562000a3d5762000a3d62000a87565b500190565b60008262000a6057634e487b7160e01b600052601260045260246000fd5b500490565b600081600019048311821515161562000a825762000a8262000a87565b500290565b634e487b7160e01b600052601160045260246000fd5b634e487b7160e01b600052603260045260246000fd5b634e487b7160e01b600052604160045260246000fd5b611a658062000ad96000396000f3fe608060405234801561001057600080fd5b50600436106100835760003560e01c80630b75127914610088578063420f11aa1461009d57806355457ee9146100b0578063840f6d17146100b857806391f91671146100dd578063a4a78896146100f0578063a93316f514610140578063ac2bb44214610155578063d660ab3414610168575b600080fd5b61009b61009636600461143b565b610194565b005b61009b6100ab36600461143b565b6101a8565b61009b6102da565b6100c061033a565b6040516100d4989796959493929190611789565b60405180910390f35b61009b6100eb366004611562565b6104aa565b601454601554600154601354600054604080516001600160a01b039687168152948616602086015292851692840192909252831660608301529190911660808201524760a082015260c0016100d4565b610148610749565b6040516100d4919061181e565b61009b610163366004611648565b610a53565b600a54600b546040805192835260ff8083166020850152610100909204909116908201526060016100d4565b6101a2848484846000610a65565b50505050565b600054604051630d1d719d60e41b815273__Library_______________________________9163d1d719d0916101ea916001600160a01b0316906004016116c8565b60206040518083038186803b15801561020257600080fd5b505af4158015610216573d6000803e3d6000fd5b505050506040513d601f19601f8201168201806040525081019061023a919061157f565b15156001146102765760405162461bcd60e51b815260206004820152600360248201526208a86760eb1b60448201526064015b60405180910390fd5b601554600160a01b900460ff16156102b95760405162461bcd60e51b815260040161026d9060208082526004908201526322a1991b60e11b604082015260600190565b6015805460ff60a01b1916600160a01b1790556101a2848484846001610a65565b60016102e4610ae9565b15156001146103055760405162461bcd60e51b815260040161026d906118b6565b6002546001600160a01b0316331461032f5760405162461bcd60e51b815260040161026d90611898565b610337610b23565b50565b60008060008060006060806060600260000160009054906101000a90046001600160a01b03166002600101546002800154600260030154600260040154600260050160026006016002600701828054806020026020016040519081016040528092919081815260200182805480156103db57602002820191906000526020600020905b81546001600160a01b031681526001909101906020018083116103bd575b505050505092508180548060200260200160405190810160405280929190818152602001828054801561042d57602002820191906000526020600020905b815481526020019060010190808311610419575b505050505091508080548060200260200160405190810160405280929190818152602001828054801561048957602002820191906000526020600020905b81546001600160a01b0316815260019091019060200180831161046b575b50505050509050975097509750975097509750975097509091929394959697565b60016104b4610ae9565b15156001146104d55760405162461bcd60e51b815260040161026d906118b6565b61053c33600260050180548060200260200160405190810160405280929190818152602001828054801561053257602002820191906000526020600020905b81546001600160a01b03168152600190910190602001808311610514575b5050505050610b70565b15156001146105765760405162461bcd60e51b815260040161026d906020808252600490820152634543323360e01b604082015260600190565b60405163f7cf62d760e01b815273__AddressLibrary________________________9063f7cf62d7906105b0903390600990600401611738565b60206040518083038186803b1580156105c857600080fd5b505af41580156105dc573d6000803e3d6000fd5b505050506040513d601f19601f82011682018060405250810190610600919061157f565b156106335760405162461bcd60e51b815260206004820152600360248201526245433560e81b604482015260640161026d565b60035442101561072157600980546001810182556000919091527f6e1540171b6c0c960b71a7020d9f60077f6af931a8bbf590da0223dacf75c7af0180546001600160a01b0319163317905581156106d257600861069833610693610b86565b610c1b565b815481106106a8576106a86119e0565b9060005260206000200154600260030160008282546106c79190611945565b909155506107159050565b60086106e033610693610b86565b815481106106f0576106f06119e0565b90600052602060002001546002600401600082825461070f9190611945565b90915550505b61071d610cb1565b5050565b600e5460ff161561073957610734610d3c565b610741565b610741610d58565b61071d610b23565b60408051600480825260a0820190925260609160009190816020015b6060815260200190600190039081610765575050600f546040516344b9f69d60e11b815291925073__AddressLibrary________________________91638973ed3a916107c0916001600160a01b03909116906004016116c8565b60006040518083038186803b1580156107d857600080fd5b505af41580156107ec573d6000803e3d6000fd5b505050506040513d6000823e601f3d908101601f19168201604052610814919081019061159c565b81600081518110610827576108276119e0565b60209081029190910101526010546040516344b9f69d60e11b815273__AddressLibrary________________________91638973ed3a91610874916001600160a01b0316906004016116c8565b60006040518083038186803b15801561088c57600080fd5b505af41580156108a0573d6000803e3d6000fd5b505050506040513d6000823e601f3d908101601f191682016040526108c8919081019061159c565b816001815181106108db576108db6119e0565b60209081029190910101526011546040516344b9f69d60e11b815273__AddressLibrary________________________91638973ed3a91610928916001600160a01b0316906004016116c8565b60006040518083038186803b15801561094057600080fd5b505af4158015610954573d6000803e3d6000fd5b505050506040513d6000823e601f3d908101601f1916820160405261097c919081019061159c565b8160028151811061098f5761098f6119e0565b60209081029190910101526012546040516344b9f69d60e11b815273__AddressLibrary________________________91638973ed3a916109dc916001600160a01b0316906004016116c8565b60006040518083038186803b1580156109f457600080fd5b505af4158015610a08573d6000803e3d6000fd5b505050506040513d6000823e601f3d908101601f19168201604052610a30919081019061159c565b81600381518110610a4357610a436119e0565b6020908102919091010152919050565b610a608383836000610d89565b505050565b8015610a7c57610a7785858585610e44565b610ae2565b600f80546001600160a01b038088166001600160a01b03199283161790925560108054878416908316179055601180548684169083161790556012805492851692909116919091179055600a54610ae290610ad79042611945565b600b5460ff16610fb6565b5050505050565b600354600090421015610afc5750600190565b6002546001600160a01b031615610b1d57610b15610d58565b610b1d610b23565b50600090565b600280546001600160a01b031916815560006003819055600481905560058190556006819055610b546007826112e5565b610b626006830160006112e5565b61071d6007830160006112e5565b60008151610b7e8484610c1b565b109392505050565b60606000600160009054906101000a90046001600160a01b03166001600160a01b03166388d44ee06040518163ffffffff1660e01b815260040160006040518083038186803b158015610bd857600080fd5b505afa158015610bec573d6000803e3d6000fd5b505050506040513d6000823e601f3d908101601f19168201604052610c149190810190611497565b5092915050565b60405160016219125f60e01b0319815260009073__AddressLibrary________________________9063ffe6eda190610c5a90869086906004016116dc565b60206040518083038186803b158015610c7257600080fd5b505af4158015610c86573d6000803e3d6000fd5b505050506040513d601f19601f82011682018060405250810190610caa919061162f565b9392505050565b6004546005541115610d1557600e5460ff1615610d0357600c54600a55600d54600b805461010080840460ff90811690910261ffff19909216931692909217919091179055610cfe610d3c565b610d0b565b610d0b6110ff565b610d13610b23565b565b6004546006541115610d1357600e5460ff1615610d3457610cfe610d3c565b610d0b610d58565b6000600c55600d805461ffff19169055600e805460ff19169055565b610d13600f80546001600160a01b031990811690915560108054821690556011805482169055601280549091169055565b82828160ff1660641015610daf5760405162461bcd60e51b815260040161026d906118d4565b8060ff1660641015610dd35760405162461bcd60e51b815260040161026d906118d4565b8215610dfe57600a869055600b805460ff8681166101000261ffff1990921690881617179055610e3c565b600c869055600d805460ff8681166101000261ffff1990921690881617179055600e805460ff19166001179055600a54610e3c90610ad79042611945565b505050505050565b601480546001600160a01b03199081166001600160a01b03878116918217909355600180548316868516908117909155601580548416888616908117909155601380549094169486169490941790925560405163e692c49f60e01b81526004810191909152602481019190915263e692c49f90604401600060405180830381600087803b158015610ed457600080fd5b505af1158015610ee8573d6000803e3d6000fd5b505060145460405163279958a960e01b81526001600160a01b03909116925063279958a99150610f1c9086906004016116c8565b600060405180830381600087803b158015610f3657600080fd5b505af1158015610f4a573d6000803e3d6000fd5b505060135460405163279958a960e01b81526001600160a01b03909116925063279958a99150610f7e9086906004016116c8565b600060405180830381600087803b158015610f9857600080fd5b505af1158015610fac573d6000803e3d6000fd5b5050505050505050565b6000610fc0610ae9565b15610ff65760405162461bcd60e51b815260040161026d906020808252600490820152631150cc8d60e21b604082015260600190565b610fff33611127565b15156001146110205760405162461bcd60e51b815260040161026d90611898565b611028610b86565b805161103c91600791602090910190611303565b506007546110a75760405162461bcd60e51b815260206004820152603260248201527f496d706f737369626c6520746f206164642070726f706f736974696f6e2c20746044820152716865726520617265206e6f2061646d696e7360701b606482015260840161026d565b600280546001600160a01b031916331790556003839055606460ff83166110cc6111d5565b6110d6919061197f565b6110e0919061195d565b6004556110eb611257565b80516101a291600891602090910190611368565b600f54601054601154601254610d58936001600160a01b039081169381169281169116610e44565b600080546001600160a01b031633141561114357506001919050565b600061114d610b86565b90506000611159611257565b905060006111678584610c1b565b905082518110156111c557606461117c6111d5565b600b546111919190610100900460ff1661197f565b61119b919061195d565b8282815181106111ad576111ad6119e0565b6020026020010151106111c557506001949350505050565b506000949350505050565b919050565b600154604080516318160ddd60e01b815290516000926001600160a01b0316916318160ddd916004808301926020929190829003018186803b15801561121a57600080fd5b505afa15801561122e573d6000803e3d6000fd5b505050506040513d601f19601f82011682018060405250810190611252919061162f565b905090565b60606000600160009054906101000a90046001600160a01b03166001600160a01b03166388d44ee06040518163ffffffff1660e01b815260040160006040518083038186803b1580156112a957600080fd5b505afa1580156112bd573d6000803e3d6000fd5b505050506040513d6000823e601f3d908101601f19168201604052610caa9190810190611497565b508054600082559060005260206000209081019061033791906113a3565b828054828255906000526020600020908101928215611358579160200282015b8281111561135857825182546001600160a01b0319166001600160a01b03909116178255602090920191600190910190611323565b506113649291506113a3565b5090565b828054828255906000526020600020908101928215611358579160200282015b82811115611358578251825591602001919060010190611388565b5b8082111561136457600081556001016113a4565b600082601f8301126113c957600080fd5b815160206113de6113d983611922565b6118f2565b80838252828201915082860187848660051b89010111156113fe57600080fd5b60005b8581101561141d57815184529284019290840190600101611401565b5090979650505050505050565b803560ff811681146111d057600080fd5b6000806000806080858703121561145157600080fd5b843561145c81611a0c565b9350602085013561146c81611a0c565b9250604085013561147c81611a0c565b9150606085013561148c81611a0c565b939692955090935050565b600080604083850312156114aa57600080fd5b82516001600160401b03808211156114c157600080fd5b818501915085601f8301126114d557600080fd5b815160206114e56113d983611922565b8083825282820191508286018a848660051b890101111561150557600080fd5b600096505b8487101561153157805161151d81611a0c565b83526001969096019591830191830161150a565b509188015191965090935050508082111561154b57600080fd5b50611558858286016113b8565b9150509250929050565b60006020828403121561157457600080fd5b8135610caa81611a21565b60006020828403121561159157600080fd5b8151610caa81611a21565b6000602082840312156115ae57600080fd5b81516001600160401b03808211156115c557600080fd5b818401915084601f8301126115d957600080fd5b8151818111156115eb576115eb6119f6565b6115fe601f8201601f19166020016118f2565b915080825285602082850101111561161557600080fd5b61162681602084016020860161199e565b50949350505050565b60006020828403121561164157600080fd5b5051919050565b60008060006060848603121561165d57600080fd5b8335925061166d6020850161142a565b915061167b6040850161142a565b90509250925092565b600081518084526020808501945080840160005b838110156116bd5781516001600160a01b031687529582019590820190600101611698565b509495945050505050565b6001600160a01b0391909116815260200190565b6001600160a01b038381168252604060208084018290528451918401829052600092858201929091906060860190855b8181101561172a57855185168352948301949183019160010161170c565b509098975050505050505050565b60006040820160018060a01b03808616845260206040818601528286548085526060870191508760005282600020945060005b8181101561172a57855485168352600195860195928401920161176b565b600061010060018060a01b038b16835260208a818501528960408501528860608501528760808501528160a08501526117c482850188611684565b84810360c0860152865180825282880193509082019060005b818110156117f9578451835293830193918301916001016117dd565b505084810360e086015261180d8187611684565b9d9c50505050505050505050505050565b6000602080830181845280855180835260408601915060408160051b870101925083870160005b8281101561188b57878503603f190184528151805180875261186c818989018a850161199e565b601f01601f191695909501860194509285019290850190600101611845565b5092979650505050505050565b60208082526004908201526322a1991960e11b604082015260600190565b6020808252600490820152634543323560e01b604082015260600190565b6020808252600490820152634543323160e01b604082015260600190565b604051601f8201601f191681016001600160401b038111828210171561191a5761191a6119f6565b604052919050565b60006001600160401b0382111561193b5761193b6119f6565b5060051b60200190565b60008219821115611958576119586119ca565b500190565b60008261197a57634e487b7160e01b600052601260045260246000fd5b500490565b6000816000190483118215151615611999576119996119ca565b500290565b60005b838110156119b95781810151838201526020016119a1565b838111156101a25750506000910152565b634e487b7160e01b600052601160045260246000fd5b634e487b7160e01b600052603260045260246000fd5b634e487b7160e01b600052604160045260246000fd5b6001600160a01b038116811461033757600080fd5b801515811461033757600080fdfea2646970667358221220642bb5e6357c06098f36b5ab2718a010f077ba5f1cdf7780fb5f5d5eba94d60364736f6c63430008060033",
  "immutableReferences": {},
  "source": "// SPDX-License-Identifier: GPL-3.0\r\n\r\npragma solidity >=0.7.0 <0.9.0;\r\n\r\n/**\r\n * @title Storage\r\n * @dev Store & retrieve value in a variable\r\n */\r\n\r\nimport \"./PublicCertificatesPool.sol\";\r\nimport \"./PrivatePoolGenerator.sol\";\r\nimport \"./Treasury.sol\";\r\nimport \"./Base/TokenGovernanceBaseContract.sol\";\r\nimport \"./CertisToken.sol\";\r\nimport \"./Libraries/AddressLibrary.sol\";\r\n\r\ncontract CertificatesPoolManager is TokenGovernanceBaseContract{\r\n    using AddressLibrary for *;\r\n\r\n    //modifier\r\n    modifier isNotInitialized(){\r\n        require(false == _init, \"EC26\");\r\n        _;\r\n    }\r\n\r\n    // proposition to change\r\n    struct ProposedContractsStruct{\r\n        address NewPublicPoolAddress;\r\n        address NewTreasuryAddress;\r\n        address NewCertisTokenAddress;\r\n        address NewPrivatePoolGeneratorAddress;\r\n    }\r\n\r\n    ProposedContractsStruct _ProposedContracts;\r\n    \r\n    // Private Certificate Pools Generator\r\n    PrivatePoolGenerator _PrivatePoolGenerator;\r\n\r\n    // Public Certificates Pool structure\r\n    PublicCertificatesPool  _PublicCertificatesPool;\r\n\r\n    // Treasury\r\n    Treasury _Treasury;\r\n\r\n    // init\r\n    bool _init;\r\n\r\n    // constructor and Initialization\r\n    constructor(uint256 PropositionLifeTime, uint8 PropositionThresholdPercentage, uint8 minWeightToProposePercentage) \r\n    TokenGovernanceBaseContract(PropositionLifeTime, PropositionThresholdPercentage, minWeightToProposePercentage)\r\n    {\r\n        _init = false;\r\n    }\r\n\r\n    function Initialize(address PublicPoolAddress, address TreasuryAddress, address CertisTokenAddress, address PrivatePoolGeneratorAddress) \r\n        isFromChairPerson()\r\n        isNotInitialized()\r\n    external\r\n    {\r\n        _init = true;\r\n        InternalUpdateContractsVersions(PublicPoolAddress, TreasuryAddress, CertisTokenAddress, PrivatePoolGeneratorAddress, true);\r\n    }\r\n\r\n    // governance : contracts assignment and management\r\n    function updateContracts(address PublicPoolAddress, address TreasuryAddress, address CertisTokenAddress, address PrivatePoolGeneratorAddress) external\r\n    {\r\n        InternalUpdateContractsVersions(PublicPoolAddress, TreasuryAddress, CertisTokenAddress, PrivatePoolGeneratorAddress, false);\r\n    }\r\n\r\n    function InternalUpdateContractsVersions(address PublicPoolAddress, address TreasuryAddress, address CertisTokenAddress, address PrivatePoolGeneratorAddress, bool fromConstructor) internal\r\n    {\r\n        if(fromConstructor){\r\n            assignContracts(PublicPoolAddress, TreasuryAddress, CertisTokenAddress, PrivatePoolGeneratorAddress);\r\n        }\r\n        else{\r\n            _ProposedContracts.NewPublicPoolAddress = PublicPoolAddress;\r\n            _ProposedContracts.NewTreasuryAddress = TreasuryAddress;\r\n            _ProposedContracts.NewCertisTokenAddress = CertisTokenAddress;\r\n            _ProposedContracts.NewPrivatePoolGeneratorAddress = PrivatePoolGeneratorAddress;\r\n            addProposition(block.timestamp + _PropositionLifeTime, _PropositionThresholdPercentage);\r\n        }\r\n        \r\n    }\r\n\r\n    function propositionApproved() internal override\r\n    {\r\n        assignContracts(_ProposedContracts.NewPublicPoolAddress, _ProposedContracts.NewTreasuryAddress, _ProposedContracts.NewCertisTokenAddress, _ProposedContracts.NewPrivatePoolGeneratorAddress);\r\n        removeProposition();\r\n    }\r\n\r\n    function propositionRejected() internal override\r\n    {\r\n        removeProposition();\r\n    }\r\n\r\n    function propositionExpired() internal override\r\n    {\r\n        removeProposition();\r\n    }\r\n\r\n    function removeProposition() internal\r\n    {\r\n       delete(_ProposedContracts);\r\n    }\r\n\r\n    function retrieveProposition() external override view returns(string[] memory)\r\n    {\r\n        string[] memory proposition = new string[](4);\r\n        proposition[0] = AddressLibrary.AddressToString(_ProposedContracts.NewPublicPoolAddress);\r\n        proposition[1] = AddressLibrary.AddressToString(_ProposedContracts.NewTreasuryAddress);\r\n        proposition[2] = AddressLibrary.AddressToString(_ProposedContracts.NewCertisTokenAddress);\r\n        proposition[3] = AddressLibrary.AddressToString(_ProposedContracts.NewPrivatePoolGeneratorAddress);\r\n        return proposition;\r\n    }\r\n\r\n    function assignContracts(address PublicPoolAddress, address TreasuryAddress, address CertisTokenAddress, address PrivatePoolGeneratorAddress) internal {\r\n        _PublicCertificatesPool = PublicCertificatesPool(PublicPoolAddress);\r\n        _CertisToken = CertisToken(CertisTokenAddress); \r\n        _Treasury = Treasury(TreasuryAddress);\r\n        _PrivatePoolGenerator = PrivatePoolGenerator(PrivatePoolGeneratorAddress);\r\n        _Treasury.updateContracts(PublicPoolAddress, CertisTokenAddress);\r\n        _PublicCertificatesPool.updateContracts(TreasuryAddress);\r\n        _PrivatePoolGenerator.updateContracts(TreasuryAddress);\r\n       \r\n    }\r\n    \r\n    // configuration\r\n    function retrieveConfiguration() external view returns (address, address, address, address, address, uint) {\r\n        return (address(_PublicCertificatesPool), address(_Treasury), address(_CertisToken), address(_PrivatePoolGenerator), _chairperson, address(this).balance);\r\n    }\r\n    \r\n}",
  "sourcePath": "C:/Users/d-aam/GitHub/Certificates/contracts/CertificatesPoolManager.sol",
  "compiler": {
    "name": "solc",
    "version": "0.8.6+commit.11564f7e.Emscripten.clang"
  },
  "schemaVersion": "3.3.4",
  "updatedAt": "2021-07-29T08:14:52.581Z",
  "devdoc": {
    "kind": "dev",
    "methods": {},
    "version": 1
  },
  "userdoc": {
    "kind": "user",
    "methods": {},
    "version": 1
  }
}