{
  "contractName": "CertificatesPoolManager",
  "abi": [
    {
      "inputs": [
        {
          "internalType": "uint256",
          "name": "PropositionLifeTime",
          "type": "uint256"
        },
        {
          "internalType": "uint8",
          "name": "PropositionThresholdPercentage",
          "type": "uint8"
        },
        {
          "internalType": "uint8",
          "name": "minWeightToProposePercentage",
          "type": "uint8"
        }
      ],
      "stateMutability": "nonpayable",
      "type": "constructor"
    },
    {
      "inputs": [],
      "name": "cancelProposition",
      "outputs": [],
      "stateMutability": "nonpayable",
      "type": "function"
    },
    {
      "inputs": [],
      "name": "retrievePropConfig",
      "outputs": [
        {
          "internalType": "uint256",
          "name": "",
          "type": "uint256"
        },
        {
          "internalType": "uint8",
          "name": "",
          "type": "uint8"
        },
        {
          "internalType": "uint8",
          "name": "",
          "type": "uint8"
        }
      ],
      "stateMutability": "view",
      "type": "function"
    },
    {
      "inputs": [],
      "name": "retrievePropositionStatus",
      "outputs": [
        {
          "internalType": "address",
          "name": "",
          "type": "address"
        },
        {
          "internalType": "uint256",
          "name": "",
          "type": "uint256"
        },
        {
          "internalType": "uint256",
          "name": "",
          "type": "uint256"
        },
        {
          "internalType": "uint256",
          "name": "",
          "type": "uint256"
        },
        {
          "internalType": "uint256",
          "name": "",
          "type": "uint256"
        },
        {
          "internalType": "address[]",
          "name": "",
          "type": "address[]"
        },
        {
          "internalType": "uint256[]",
          "name": "",
          "type": "uint256[]"
        },
        {
          "internalType": "address[]",
          "name": "",
          "type": "address[]"
        }
      ],
      "stateMutability": "view",
      "type": "function"
    },
    {
      "inputs": [
        {
          "internalType": "uint256",
          "name": "PropLifeTime",
          "type": "uint256"
        },
        {
          "internalType": "uint8",
          "name": "PropThresholdPerc",
          "type": "uint8"
        },
        {
          "internalType": "uint8",
          "name": "minWeightToPropPerc",
          "type": "uint8"
        }
      ],
      "name": "updateProp",
      "outputs": [],
      "stateMutability": "nonpayable",
      "type": "function"
    },
    {
      "inputs": [
        {
          "internalType": "bool",
          "name": "vote",
          "type": "bool"
        }
      ],
      "name": "voteProposition",
      "outputs": [],
      "stateMutability": "nonpayable",
      "type": "function"
    },
    {
      "inputs": [
        {
          "internalType": "address payable",
          "name": "PublicPoolProxyAddress",
          "type": "address"
        },
        {
          "internalType": "address payable",
          "name": "TreasuryProxyAddress",
          "type": "address"
        },
        {
          "internalType": "address payable",
          "name": "CertisTokenProxyAddress",
          "type": "address"
        },
        {
          "internalType": "address payable",
          "name": "PrivatePoolFactoryProxyAddress",
          "type": "address"
        },
        {
          "internalType": "address",
          "name": "PrivateCertificatePoolImplAddress",
          "type": "address"
        }
      ],
      "name": "InitializeContracts",
      "outputs": [],
      "stateMutability": "nonpayable",
      "type": "function"
    },
    {
      "inputs": [
        {
          "internalType": "address",
          "name": "PublicPoolAddress",
          "type": "address"
        },
        {
          "internalType": "address",
          "name": "TreasuryAddress",
          "type": "address"
        },
        {
          "internalType": "address",
          "name": "CertisTokenAddress",
          "type": "address"
        },
        {
          "internalType": "address",
          "name": "PrivatePoolFactoryAddress",
          "type": "address"
        },
        {
          "internalType": "address",
          "name": "PrivatePoolImplAddress",
          "type": "address"
        }
      ],
      "name": "updateContracts",
      "outputs": [],
      "stateMutability": "nonpayable",
      "type": "function"
    },
    {
      "inputs": [],
      "name": "retrieveProposition",
      "outputs": [
        {
          "internalType": "string[]",
          "name": "",
          "type": "string[]"
        }
      ],
      "stateMutability": "view",
      "type": "function"
    },
    {
      "inputs": [],
      "name": "retrievePublicCertificatePoolProxy",
      "outputs": [
        {
          "internalType": "address",
          "name": "",
          "type": "address"
        }
      ],
      "stateMutability": "view",
      "type": "function"
    },
    {
      "inputs": [],
      "name": "retrieveTreasuryProxy",
      "outputs": [
        {
          "internalType": "address",
          "name": "",
          "type": "address"
        }
      ],
      "stateMutability": "view",
      "type": "function"
    },
    {
      "inputs": [],
      "name": "retrieveCertisTokenProxy",
      "outputs": [
        {
          "internalType": "address",
          "name": "",
          "type": "address"
        }
      ],
      "stateMutability": "view",
      "type": "function"
    },
    {
      "inputs": [],
      "name": "retrievePrivatePoolFactoryProxy",
      "outputs": [
        {
          "internalType": "address",
          "name": "",
          "type": "address"
        }
      ],
      "stateMutability": "view",
      "type": "function"
    },
    {
      "inputs": [],
      "name": "retrievePrivatePoolBeacon",
      "outputs": [
        {
          "internalType": "address",
          "name": "",
          "type": "address"
        }
      ],
      "stateMutability": "view",
      "type": "function"
    },
    {
      "inputs": [],
      "name": "retrievePublicCertificatePool",
      "outputs": [
        {
          "internalType": "address",
          "name": "",
          "type": "address"
        }
      ],
      "stateMutability": "view",
      "type": "function"
    },
    {
      "inputs": [],
      "name": "retrieveTreasury",
      "outputs": [
        {
          "internalType": "address",
          "name": "",
          "type": "address"
        }
      ],
      "stateMutability": "view",
      "type": "function"
    },
    {
      "inputs": [],
      "name": "retrieveCertisToken",
      "outputs": [
        {
          "internalType": "address",
          "name": "",
          "type": "address"
        }
      ],
      "stateMutability": "view",
      "type": "function"
    },
    {
      "inputs": [],
      "name": "retrievePrivatePoolFactory",
      "outputs": [
        {
          "internalType": "address",
          "name": "",
          "type": "address"
        }
      ],
      "stateMutability": "view",
      "type": "function"
    },
    {
      "inputs": [],
      "name": "retrievePrivatePool",
      "outputs": [
        {
          "internalType": "address",
          "name": "",
          "type": "address"
        }
      ],
      "stateMutability": "view",
      "type": "function"
    }
  ],
  "bytecode": "0x60806040523480156200001157600080fd5b506040516200364238038062003642833981016040819052620000349162000bd6565b6200004e83838333306200006460201b62000e781760201c565b50506018805460ff60a01b191690555062000ddc565b600054610100900460ff16806200007e575060005460ff16155b620000a65760405162461bcd60e51b81526004016200009d9062000c75565b60405180910390fd5b600054610100900460ff16158015620000c9576000805461ffff19166101011790555b620000df826200012660201b62000f261760201c565b600180546001600160a01b0319166001600160a01b0385161781556200010b90879087908790620001bb565b80156200011e576000805461ff00191690555b505050505050565b600054610100900460ff168062000140575060005460ff16155b6200015f5760405162461bcd60e51b81526004016200009d9062000c75565b600054610100900460ff1615801562000182576000805461ffff19166101011790555b6000805462010000600160b01b031916620100006001600160a01b038516021790558015620001b7576000805461ff00191690555b5050565b82828160ff1660641015620001e45760405162461bcd60e51b81526004016200009d9062000cc3565b8060ff16606410156200020b5760405162461bcd60e51b81526004016200009d9062000cc3565b82156200023857600a869055600b805460ff8681166101000261ffff19909216908816171790556200011e565b600c869055600d805460ff8681166101000261ffff1990921690881617179055600e805460ff19166001179055600a546200011e9062000279904262000d3a565b600b5460ff1660006200028b620003ff565b15620002c35760405162461bcd60e51b81526004016200009d906020808252600490820152631150cc8d60e21b604082015260600190565b620002ce336200043f565b15156001146200030a5760405162461bcd60e51b81526004016200009d9060208082526004908201526322a1991960e11b604082015260600190565b6200031462000501565b80516200032a9160079160209091019062000941565b50600754620003975760405162461bcd60e51b815260206004820152603260248201527f496d706f737369626c6520746f206164642070726f706f736974696f6e2c20746044820152716865726520617265206e6f2061646d696e7360701b60648201526084016200009d565b600280546001600160a01b031916331790556003839055606460ff8316620003be6200060d565b620003ca919062000d78565b620003d6919062000d55565b600455620003e362000711565b8051620003f991600891602090910190620009ab565b50505050565b600354600090421015620004135750600190565b6002546001600160a01b03161562000439576200042f6200081d565b6200043962000859565b50600090565b6001546000906001600160a01b03163314156200045e57506001919050565b60006200046a62000501565b905060006200047862000711565b90506000620004888584620008ac565b90508251811015620004f1576064620004a06200060d565b600b54620004b79190610100900460ff1662000d78565b620004c3919062000d55565b828281518110620004d857620004d862000db0565b602002602001015110620004f157506001949350505050565b506000949350505050565b919050565b606060008060029054906101000a90046001600160a01b03166001600160a01b031663da3dce266040518163ffffffff1660e01b815260040160206040518083038186803b1580156200055357600080fd5b505afa15801562000568573d6000803e3d6000fd5b505050506040513d601f19601f820116820180604052508101906200058e919062000ac7565b6001600160a01b03166388d44ee06040518163ffffffff1660e01b815260040160006040518083038186803b158015620005c757600080fd5b505afa158015620005dc573d6000803e3d6000fd5b505050506040513d6000823e601f3d908101601f1916820160405262000606919081019062000ae5565b5092915050565b60008060029054906101000a90046001600160a01b03166001600160a01b031663da3dce266040518163ffffffff1660e01b815260040160206040518083038186803b1580156200065d57600080fd5b505afa15801562000672573d6000803e3d6000fd5b505050506040513d601f19601f8201168201806040525081019062000698919062000ac7565b6001600160a01b03166318160ddd6040518163ffffffff1660e01b815260040160206040518083038186803b158015620006d157600080fd5b505afa158015620006e6573d6000803e3d6000fd5b505050506040513d601f19601f820116820180604052508101906200070c919062000bbc565b905090565b606060008060029054906101000a90046001600160a01b03166001600160a01b031663da3dce266040518163ffffffff1660e01b815260040160206040518083038186803b1580156200076357600080fd5b505afa15801562000778573d6000803e3d6000fd5b505050506040513d601f19601f820116820180604052508101906200079e919062000ac7565b6001600160a01b03166388d44ee06040518163ffffffff1660e01b815260040160006040518083038186803b158015620007d757600080fd5b505afa158015620007ec573d6000803e3d6000fd5b505050506040513d6000823e601f3d908101601f1916820160405262000816919081019062000ae5565b9392505050565b62000857600f80546001600160a01b0319908116909155601080548216905560118054821690556012805482169055601380549091169055565b565b600280546001600160a01b0319168155600060038190556004819055600581905560068190556200088c600782620009e9565b6200089c600683016000620009e9565b620001b7600783016000620009e9565b60405160016219125f60e01b0319815260009073__AddressLibrary________________________9063ffe6eda190620008ed908690869060040162000c17565b60206040518083038186803b1580156200090657600080fd5b505af41580156200091b573d6000803e3d6000fd5b505050506040513d601f19601f8201168201806040525081019062000816919062000bbc565b82805482825590600052602060002090810192821562000999579160200282015b828111156200099957825182546001600160a01b0319166001600160a01b0390911617825560209092019160019091019062000962565b50620009a792915062000a0c565b5090565b82805482825590600052602060002090810192821562000999579160200282015b8281111562000999578251825591602001919060010190620009cc565b508054600082559060005260206000209081019062000a09919062000a0c565b50565b5b80821115620009a7576000815560010162000a0d565b80516001600160a01b0381168114620004fc57600080fd5b600082601f83011262000a4d57600080fd5b8151602062000a6662000a608362000d14565b62000ce1565b80838252828201915082860187848660051b890101111562000a8757600080fd5b60005b8581101562000aa85781518452928401929084019060010162000a8a565b5090979650505050505050565b805160ff81168114620004fc57600080fd5b60006020828403121562000ada57600080fd5b620008168262000a23565b6000806040838503121562000af957600080fd5b82516001600160401b038082111562000b1157600080fd5b818501915085601f83011262000b2657600080fd5b8151602062000b3962000a608362000d14565b8083825282820191508286018a848660051b890101111562000b5a57600080fd5b600096505b8487101562000b885762000b738162000a23565b83526001969096019591830191830162000b5f565b509188015191965090935050508082111562000ba357600080fd5b5062000bb28582860162000a3b565b9150509250929050565b60006020828403121562000bcf57600080fd5b5051919050565b60008060006060848603121562000bec57600080fd5b8351925062000bfe6020850162000ab5565b915062000c0e6040850162000ab5565b90509250925092565b6001600160a01b038381168252604060208084018290528451918401829052600092858201929091906060860190855b8181101562000c6757855185168352948301949183019160010162000c47565b509098975050505050505050565b6020808252602e908201527f496e697469616c697a61626c653a20636f6e747261637420697320616c72656160408201526d191e481a5b9a5d1a585b1a5e995960921b606082015260800190565b6020808252600490820152634543323160e01b604082015260600190565b604051601f8201601f191681016001600160401b038111828210171562000d0c5762000d0c62000dc6565b604052919050565b60006001600160401b0382111562000d305762000d3062000dc6565b5060051b60200190565b6000821982111562000d505762000d5062000d9a565b500190565b60008262000d7357634e487b7160e01b600052601260045260246000fd5b500490565b600081600019048311821515161562000d955762000d9562000d9a565b500290565b634e487b7160e01b600052601160045260246000fd5b634e487b7160e01b600052603260045260246000fd5b634e487b7160e01b600052604160045260246000fd5b6128568062000dec6000396000f3fe60806040523480156200001157600080fd5b5060043610620000fa5760003560e01c8063029b967314620000ff5780633c65d42714620001215780634739b7f8146200013357806355457ee9146200014c5780635a3794e914620001565780635fb6658a146200016857806367717177146200017f5780637c2f3aaf1462000189578063840f6d17146200019b57806391f9167114620001bb578063a42e133914620001d2578063a93316f514620001dc578063aa33380a14620001f5578063ac2bb4421462000207578063c50ec82b146200021e578063d660ab341462000228578063da3dce261462000255578063efd15d171462000267575b600080fd5b6200010962000271565b60405162000118919062001f28565b60405180910390f35b6014546001600160a01b031662000109565b6200014a6200014436600462001c54565b620002f7565b005b6200014a6200043a565b6017546001600160a01b031662000109565b6200014a6200017936600462001c54565b620004a4565b620001096200051a565b6015546001600160a01b031662000109565b620001a562000560565b6040516200011898979695949392919062001fed565b6200014a620001cc36600462001da9565b620006d6565b62000109620009a6565b620001e6620009ec565b60405162000118919062002088565b6016546001600160a01b031662000109565b6200014a6200021836600462001ea1565b62000dd8565b6200010962000dec565b600a54600b546040805192835260ff80831660208501526101009092049091169082015260600162000118565b6018546001600160a01b031662000109565b6200010962000e32565b60185460408051635c60da1b60e01b815290516000926001600160a01b031691635c60da1b916004808301926020929190829003018186803b158015620002b757600080fd5b505afa158015620002cc573d6000803e3d6000fd5b505050506040513d601f19601f82011682018060405250810190620002f2919062001c34565b905090565b600154604051630d1d719d60e41b815273__Library_______________________________9163d1d719d0916200033b916001600160a01b03169060040162001f28565b60206040518083038186803b1580156200035457600080fd5b505af415801562000369573d6000803e3d6000fd5b505050506040513d601f19601f820116820180604052508101906200038f919062001dc9565b1515600114620003cc5760405162461bcd60e51b815260206004820152600360248201526208a86760eb1b60448201526064015b60405180910390fd5b601854600160a01b900460ff1615620004115760405162461bcd60e51b8152600401620003c39060208082526004908201526322a1991b60e11b604082015260600190565b6018805460ff60a01b1916600160a01b17905562000433858585858562000fba565b5050505050565b60016200044662001065565b15156001146200046a5760405162461bcd60e51b8152600401620003c39062002172565b6002546001600160a01b03163314620004975760405162461bcd60e51b8152600401620003c39062002106565b620004a1620010a5565b50565b600f80546001600160a01b03199081166001600160a01b038881169190911790925560108054821687841617905560118054821686841617905560128054821685841617905560138054909116918316919091179055600a5462000433906200050e904262002207565b600b5460ff16620010f8565b60145460408051635c60da1b60e01b815290516000926001600160a01b031691635c60da1b916004808301926020929190829003018186803b158015620002b757600080fd5b60008060008060006060806060600260000160009054906101000a90046001600160a01b03166002600101546002800154600260030154600260040154600260050160026006016002600701828054806020026020016040519081016040528092919081815260200182805480156200060357602002820191906000526020600020905b81546001600160a01b03168152600190910190602001808311620005e4575b50505050509250818054806020026020016040519081016040528092919081815260200182805480156200065757602002820191906000526020600020905b81548152602001906001019080831162000642575b5050505050915080805480602002602001604051908101604052809291908181526020018280548015620006b557602002820191906000526020600020905b81546001600160a01b0316815260019091019060200180831162000696575b50505050509050975097509750975097509750975097509091929394959697565b6001620006e262001065565b1515600114620007065760405162461bcd60e51b8152600401620003c39062002172565b620007713360026005018054806020026020016040519081016040528092919081815260200182805480156200076657602002820191906000526020600020905b81546001600160a01b0316815260019091019060200180831162000747575b505050505062001260565b1515600114620007ad5760405162461bcd60e51b8152600401620003c3906020808252600490820152634543323360e01b604082015260600190565b60405163f7cf62d760e01b815273__AddressLibrary________________________9063f7cf62d790620007e990339060099060040162001f9a565b60206040518083038186803b1580156200080257600080fd5b505af415801562000817573d6000803e3d6000fd5b505050506040513d601f19601f820116820180604052508101906200083d919062001dc9565b15620008725760405162461bcd60e51b815260206004820152600360248201526245433560e81b6044820152606401620003c3565b6003544210156200097657600980546001810182556000919091527f6e1540171b6c0c960b71a7020d9f60077f6af931a8bbf590da0223dacf75c7af0180546001600160a01b0319163317905581156200091d576008620008dd33620008d762001278565b62001384565b81548110620008f057620008f0620022ac565b90600052602060002001546002600301600082825462000911919062002207565b90915550620009689050565b60086200092e33620008d762001278565b81548110620009415762000941620022ac565b90600052602060002001546002600401600082825462000962919062002207565b90915550505b6200097262001420565b5050565b600e5460ff161562000992576200098c620014ba565b6200099c565b6200099c620014d6565b62000972620010a5565b60165460408051635c60da1b60e01b815290516000926001600160a01b031691635c60da1b916004808301926020929190829003018186803b158015620002b757600080fd5b60408051600580825260c0820190925260609160009190816020015b606081526020019060019003908162000a08575050600f546040516344b9f69d60e11b815291925073__AddressLibrary________________________91638973ed3a9162000a66916001600160a01b039091169060040162001f28565b60006040518083038186803b15801562000a7f57600080fd5b505af415801562000a94573d6000803e3d6000fd5b505050506040513d6000823e601f3d908101601f1916820160405262000abe919081019062001de9565b8160008151811062000ad45762000ad4620022ac565b60209081029190910101526010546040516344b9f69d60e11b815273__AddressLibrary________________________91638973ed3a9162000b23916001600160a01b03169060040162001f28565b60006040518083038186803b15801562000b3c57600080fd5b505af415801562000b51573d6000803e3d6000fd5b505050506040513d6000823e601f3d908101601f1916820160405262000b7b919081019062001de9565b8160018151811062000b915762000b91620022ac565b60209081029190910101526011546040516344b9f69d60e11b815273__AddressLibrary________________________91638973ed3a9162000be0916001600160a01b03169060040162001f28565b60006040518083038186803b15801562000bf957600080fd5b505af415801562000c0e573d6000803e3d6000fd5b505050506040513d6000823e601f3d908101601f1916820160405262000c38919081019062001de9565b8160028151811062000c4e5762000c4e620022ac565b60209081029190910101526012546040516344b9f69d60e11b815273__AddressLibrary________________________91638973ed3a9162000c9d916001600160a01b03169060040162001f28565b60006040518083038186803b15801562000cb657600080fd5b505af415801562000ccb573d6000803e3d6000fd5b505050506040513d6000823e601f3d908101601f1916820160405262000cf5919081019062001de9565b8160038151811062000d0b5762000d0b620022ac565b60209081029190910101526013546040516344b9f69d60e11b815273__AddressLibrary________________________91638973ed3a9162000d5a916001600160a01b03169060040162001f28565b60006040518083038186803b15801562000d7357600080fd5b505af415801562000d88573d6000803e3d6000fd5b505050506040513d6000823e601f3d908101601f1916820160405262000db2919081019062001de9565b8160048151811062000dc85762000dc8620022ac565b6020908102919091010152919050565b62000de7838383600062001510565b505050565b60155460408051635c60da1b60e01b815290516000926001600160a01b031691635c60da1b916004808301926020929190829003018186803b158015620002b757600080fd5b60175460408051635c60da1b60e01b815290516000926001600160a01b031691635c60da1b916004808301926020929190829003018186803b158015620002b757600080fd5b600054610100900460ff168062000e92575060005460ff16155b62000eb15760405162461bcd60e51b8152600401620003c39062002124565b600054610100900460ff1615801562000ed4576000805461ffff19166101011790555b62000edf8262000f26565b600180546001600160a01b0319166001600160a01b03851617815562000f0b9087908790879062001510565b801562000f1e576000805461ff00191690555b505050505050565b600054610100900460ff168062000f40575060005460ff16155b62000f5f5760405162461bcd60e51b8152600401620003c39062002124565b600054610100900460ff1615801562000f82576000805461ffff19166101011790555b6000805462010000600160b01b031916620100006001600160a01b03851602179055801562000972576000805461ff00191690555050565b601680546001600160a01b038088166001600160a01b031992831617909255601780548784169083161790556018805486841690831617905560148054928516929091169190911790556040518190620010149062001abb565b62001020919062001f28565b604051809103906000f0801580156200103d573d6000803e3d6000fd5b50601580546001600160a01b0319166001600160a01b03929092169190911790555050505050565b600354600090421015620010795750600190565b6002546001600160a01b0316156200109f5762001095620014d6565b6200109f620010a5565b50600090565b600280546001600160a01b031916815560006003819055600481905560058190556006819055620010d860078262001ac9565b620010e860068301600062001ac9565b6200097260078301600062001ac9565b60006200110462001065565b156200113c5760405162461bcd60e51b8152600401620003c3906020808252600490820152631150cc8d60e21b604082015260600190565b6200114733620015ce565b15156001146200116b5760405162461bcd60e51b8152600401620003c39062002106565b6200117562001278565b80516200118b9160079160209091019062001ae9565b50600754620011f85760405162461bcd60e51b815260206004820152603260248201527f496d706f737369626c6520746f206164642070726f706f736974696f6e2c20746044820152716865726520617265206e6f2061646d696e7360701b6064820152608401620003c3565b600280546001600160a01b031916331790556003839055606460ff83166200121f62001690565b6200122b919062002245565b62001237919062002222565b600455620012446200178f565b80516200125a9160089160209091019062001b53565b50505050565b6000815162001270848462001384565b109392505050565b606060008060029054906101000a90046001600160a01b03166001600160a01b031663da3dce266040518163ffffffff1660e01b815260040160206040518083038186803b158015620012ca57600080fd5b505afa158015620012df573d6000803e3d6000fd5b505050506040513d601f19601f8201168201806040525081019062001305919062001c34565b6001600160a01b03166388d44ee06040518163ffffffff1660e01b815260040160006040518083038186803b1580156200133e57600080fd5b505afa15801562001353573d6000803e3d6000fd5b505050506040513d6000823e601f3d908101601f191682016040526200137d919081019062001cd0565b5092915050565b60405160016219125f60e01b0319815260009073__AddressLibrary________________________9063ffe6eda190620013c5908690869060040162001f3c565b60206040518083038186803b158015620013de57600080fd5b505af4158015620013f3573d6000803e3d6000fd5b505050506040513d601f19601f8201168201806040525081019062001419919062001e87565b9392505050565b60045460055411156200148d57600e5460ff16156200147757600c54600a55600d54600b805461010080840460ff90811690910261ffff1990921693169290921791909117905562001471620014ba565b62001481565b6200148162001894565b6200148b620010a5565b565b60045460065411156200148b57600e5460ff1615620014b05762001471620014ba565b62001481620014d6565b6000600c55600d805461ffff19169055600e805460ff19169055565b6200148b600f80546001600160a01b0319908116909155601080548216905560118054821690556012805482169055601380549091169055565b82828160ff1660641015620015395760405162461bcd60e51b8152600401620003c39062002190565b8060ff1660641015620015605760405162461bcd60e51b8152600401620003c39062002190565b82156200158d57600a869055600b805460ff8681166101000261ffff199092169088161717905562000f1e565b600c869055600d805460ff8681166101000261ffff1990921690881617179055600e805460ff19166001179055600a5462000f1e906200050e904262002207565b6001546000906001600160a01b0316331415620015ed57506001919050565b6000620015f962001278565b90506000620016076200178f565b9050600062001617858462001384565b90508251811015620016805760646200162f62001690565b600b54620016469190610100900460ff1662002245565b62001652919062002222565b828281518110620016675762001667620022ac565b6020026020010151106200168057506001949350505050565b506000949350505050565b919050565b60008060029054906101000a90046001600160a01b03166001600160a01b031663da3dce266040518163ffffffff1660e01b815260040160206040518083038186803b158015620016e057600080fd5b505afa158015620016f5573d6000803e3d6000fd5b505050506040513d601f19601f820116820180604052508101906200171b919062001c34565b6001600160a01b03166318160ddd6040518163ffffffff1660e01b815260040160206040518083038186803b1580156200175457600080fd5b505afa15801562001769573d6000803e3d6000fd5b505050506040513d601f19601f82011682018060405250810190620002f2919062001e87565b606060008060029054906101000a90046001600160a01b03166001600160a01b031663da3dce266040518163ffffffff1660e01b815260040160206040518083038186803b158015620017e157600080fd5b505afa158015620017f6573d6000803e3d6000fd5b505050506040513d601f19601f820116820180604052508101906200181c919062001c34565b6001600160a01b03166388d44ee06040518163ffffffff1660e01b815260040160006040518083038186803b1580156200185557600080fd5b505afa1580156200186a573d6000803e3d6000fd5b505050506040513d6000823e601f3d908101601f1916820160405262001419919081019062001cd0565b600f54601054601154601254601354601654604051631b2ce7f360e11b8152620014d6966001600160a01b03908116968116958116948116938116921690633659cfe690620018e890889060040162001f28565b600060405180830381600087803b1580156200190357600080fd5b505af115801562001918573d6000803e3d6000fd5b5050601754604051631b2ce7f360e11b81526001600160a01b039091169250633659cfe691506200194e90879060040162001f28565b600060405180830381600087803b1580156200196957600080fd5b505af11580156200197e573d6000803e3d6000fd5b5050601854604051631b2ce7f360e11b81526001600160a01b039091169250633659cfe69150620019b490869060040162001f28565b600060405180830381600087803b158015620019cf57600080fd5b505af1158015620019e4573d6000803e3d6000fd5b5050601454604051631b2ce7f360e11b81526001600160a01b039091169250633659cfe6915062001a1a90859060040162001f28565b600060405180830381600087803b15801562001a3557600080fd5b505af115801562001a4a573d6000803e3d6000fd5b5050601554604051631b2ce7f360e11b81526001600160a01b039091169250633659cfe6915062001a8090849060040162001f28565b600060405180830381600087803b15801562001a9b57600080fd5b505af115801562001ab0573d6000803e3d6000fd5b505050505050505050565b61052380620022fe83390190565b5080546000825590600052602060002090810190620004a1919062001b91565b82805482825590600052602060002090810192821562001b41579160200282015b8281111562001b4157825182546001600160a01b0319166001600160a01b0390911617825560209092019160019091019062001b0a565b5062001b4f92915062001b91565b5090565b82805482825590600052602060002090810192821562001b41579160200282015b8281111562001b4157825182559160200191906001019062001b74565b5b8082111562001b4f576000815560010162001b92565b600082601f83011262001bba57600080fd5b8151602062001bd362001bcd83620021e1565b620021ae565b80838252828201915082860187848660051b890101111562001bf457600080fd5b60005b8581101562001c155781518452928401929084019060010162001bf7565b5090979650505050505050565b803560ff811681146200168b57600080fd5b60006020828403121562001c4757600080fd5b81516200141981620022d8565b600080600080600060a0868803121562001c6d57600080fd5b853562001c7a81620022d8565b9450602086013562001c8c81620022d8565b9350604086013562001c9e81620022d8565b9250606086013562001cb081620022d8565b9150608086013562001cc281620022d8565b809150509295509295909350565b6000806040838503121562001ce457600080fd5b82516001600160401b038082111562001cfc57600080fd5b818501915085601f83011262001d1157600080fd5b8151602062001d2462001bcd83620021e1565b8083825282820191508286018a848660051b890101111562001d4557600080fd5b600096505b8487101562001d7557805162001d6081620022d8565b83526001969096019591830191830162001d4a565b509188015191965090935050508082111562001d9057600080fd5b5062001d9f8582860162001ba8565b9150509250929050565b60006020828403121562001dbc57600080fd5b81356200141981620022ee565b60006020828403121562001ddc57600080fd5b81516200141981620022ee565b60006020828403121562001dfc57600080fd5b81516001600160401b038082111562001e1457600080fd5b818401915084601f83011262001e2957600080fd5b81518181111562001e3e5762001e3e620022c2565b62001e53601f8201601f1916602001620021ae565b915080825285602082850101111562001e6b57600080fd5b62001e7e81602084016020860162002267565b50949350505050565b60006020828403121562001e9a57600080fd5b5051919050565b60008060006060848603121562001eb757600080fd5b8335925062001ec96020850162001c22565b915062001ed96040850162001c22565b90509250925092565b600081518084526020808501945080840160005b8381101562001f1d5781516001600160a01b03168752958201959082019060010162001ef6565b509495945050505050565b6001600160a01b0391909116815260200190565b6001600160a01b038381168252604060208084018290528451918401829052600092858201929091906060860190855b8181101562001f8c57855185168352948301949183019160010162001f6c565b509098975050505050505050565b60006040820160018060a01b03808616845260206040818601528286548085526060870191508760005282600020945060005b8181101562001f8c57855485168352600195860195928401920162001fcd565b600061010060018060a01b038b16835260208a818501528960408501528860608501528760808501528160a08501526200202a8285018862001ee2565b84810360c0860152865180825282880193509082019060005b81811015620020615784518352938301939183019160010162002043565b505084810360e086015262002077818762001ee2565b9d9c50505050505050505050505050565b6000602080830181845280855180835260408601915060408160051b870101925083870160005b82811015620020f957878503603f1901845281518051808752620020d9818989018a850162002267565b601f01601f191695909501860194509285019290850190600101620020af565b5092979650505050505050565b60208082526004908201526322a1991960e11b604082015260600190565b6020808252602e908201527f496e697469616c697a61626c653a20636f6e747261637420697320616c72656160408201526d191e481a5b9a5d1a585b1a5e995960921b606082015260800190565b6020808252600490820152634543323560e01b604082015260600190565b6020808252600490820152634543323160e01b604082015260600190565b604051601f8201601f191681016001600160401b0381118282101715620021d957620021d9620022c2565b604052919050565b60006001600160401b03821115620021fd57620021fd620022c2565b5060051b60200190565b600082198211156200221d576200221d62002296565b500190565b6000826200224057634e487b7160e01b600052601260045260246000fd5b500490565b600081600019048311821515161562002262576200226262002296565b500290565b60005b83811015620022845781810151838201526020016200226a565b838111156200125a5750506000910152565b634e487b7160e01b600052601160045260246000fd5b634e487b7160e01b600052603260045260246000fd5b634e487b7160e01b600052604160045260246000fd5b6001600160a01b0381168114620004a157600080fd5b8015158114620004a157600080fdfe608060405234801561001057600080fd5b5060405161052338038061052383398101604081905261002f91610148565b61003833610047565b61004181610097565b50610178565b600080546001600160a01b038381166001600160a01b0319831681178455604051919092169283917f8be0079c531659141344cd1fd0a4f28419497f9722a3daafe3b4186f6b6457e09190a35050565b6100aa8161014260201b61021f1760201c565b6101205760405162461bcd60e51b815260206004820152603360248201527f5570677261646561626c65426561636f6e3a20696d706c656d656e746174696f60448201527f6e206973206e6f74206120636f6e747261637400000000000000000000000000606482015260840160405180910390fd5b600180546001600160a01b0319166001600160a01b0392909216919091179055565b3b151590565b60006020828403121561015a57600080fd5b81516001600160a01b038116811461017157600080fd5b9392505050565b61039c806101876000396000f3fe608060405234801561001057600080fd5b50600436106100575760003560e01c80633659cfe61461005c5780635c60da1b14610071578063715018a61461009a5780638da5cb5b146100a2578063f2fde38b146100aa575b600080fd5b61006f61006a366004610301565b6100bd565b005b6001546001600160a01b03165b6040516001600160a01b03909116815260200160405180910390f35b61006f610135565b61007e610170565b61006f6100b8366004610301565b61017f565b336100c6610170565b6001600160a01b0316146100f55760405162461bcd60e51b81526004016100ec90610331565b60405180910390fd5b6100fe81610225565b6040516001600160a01b038216907fbc7cd75a20ee27fd9adebab32041f755214dbc6bffa90cc0225b39da2e5c2d3b90600090a250565b3361013e610170565b6001600160a01b0316146101645760405162461bcd60e51b81526004016100ec90610331565b61016e60006102b1565b565b6000546001600160a01b031690565b33610188610170565b6001600160a01b0316146101ae5760405162461bcd60e51b81526004016100ec90610331565b6001600160a01b0381166102135760405162461bcd60e51b815260206004820152602660248201527f4f776e61626c653a206e6577206f776e657220697320746865207a65726f206160448201526564647265737360d01b60648201526084016100ec565b61021c816102b1565b50565b3b151590565b803b61028f5760405162461bcd60e51b815260206004820152603360248201527f5570677261646561626c65426561636f6e3a20696d706c656d656e746174696f6044820152721b881a5cc81b9bdd08184818dbdb9d1c9858dd606a1b60648201526084016100ec565b600180546001600160a01b0319166001600160a01b0392909216919091179055565b600080546001600160a01b038381166001600160a01b0319831681178455604051919092169283917f8be0079c531659141344cd1fd0a4f28419497f9722a3daafe3b4186f6b6457e09190a35050565b60006020828403121561031357600080fd5b81356001600160a01b038116811461032a57600080fd5b9392505050565b6020808252818101527f4f776e61626c653a2063616c6c6572206973206e6f7420746865206f776e657260408201526060019056fea2646970667358221220736d14b1e38cf554db976d4936fa0778be2419afd8caecf0ecc77a2430e463e764736f6c63430008060033a26469706673582212201c818d8cc1c8ae5e3656e7e6583d214371845309d7ec8bff168184690b16c47f64736f6c63430008060033",
  "immutableReferences": {},
  "source": "// SPDX-License-Identifier: GPL-3.0\r\n\r\npragma solidity >=0.7.0 <0.9.0;\r\n\r\n/**\r\n * @title Storage\r\n * @dev Store & retrieve value in a variable\r\n */\r\n\r\nimport \"../Interfaces/IProxyManager.sol\";\r\nimport \"./Proxies/PublicCertificatesPoolProxy.sol\";\r\nimport \"./PrivateCertificatesPool.sol\";\r\nimport \"./Proxies/PrivatePoolFactoryProxy.sol\";\r\nimport \"./Proxies/TreasuryProxy.sol\";\r\nimport \"../Base/TokenGovernanceBaseContract.sol\";\r\nimport \"./Proxies/CertisTokenProxy.sol\";\r\nimport \"../Libraries/AddressLibrary.sol\";\r\nimport \"@openzeppelin/contracts-upgradeable/proxy/utils/Initializable.sol\";\r\nimport \"@openzeppelin/contracts/proxy/beacon/UpgradeableBeacon.sol\";\r\nimport \"@openzeppelin/contracts/proxy/transparent/TransparentUpgradeableProxy.sol\";\r\n\r\ncontract CertificatesPoolManager is IProxyManager, TokenGovernanceBaseContract{\r\n    using AddressLibrary for *;\r\n\r\n    // DATA /////////////////////////////////////////\r\n    // proposition to change\r\n    struct ProposedContractsStruct{\r\n        address NewPublicPoolAddress;\r\n        address NewTreasuryAddress;\r\n        address NewCertisTokenAddress;\r\n        address NewPrivatePoolFactoryAddress;\r\n        address NewPrivatePoolAddress;\r\n    }\r\n\r\n    ProposedContractsStruct _ProposedContracts;\r\n    \r\n    // Private Certificate Pools Factory\r\n    PrivatePoolFactoryProxy _PrivatePoolFactory;\r\n\r\n    // Private Certificates Pool\r\n    UpgradeableBeacon _PrivateCertificatePoolBeacon;\r\n\r\n    // Public Certificates Pool\r\n    PublicCertificatesPoolProxy  _PublicCertificatesPool;\r\n\r\n    // Treasury\r\n    TreasuryProxy _Treasury;\r\n\r\n    // Certis Token\r\n    CertisTokenProxy _CertisToken;\r\n\r\n    // init\r\n    bool _init;\r\n\r\n    // MODIFIERS /////////////////////////////////////////\r\n    modifier isNotInitialized(){\r\n        require(false == _init, \"EC26\");\r\n        _;\r\n    }\r\n\r\n    // CONSTRUCTOR and INITIALIZATION /////////////////////////////////////////\r\n    constructor(uint256 PropositionLifeTime, uint8 PropositionThresholdPercentage, uint8 minWeightToProposePercentage) \r\n    {\r\n        super.TokenGovernanceContract_init(PropositionLifeTime, PropositionThresholdPercentage, minWeightToProposePercentage, msg.sender, address(this));\r\n        _init = false;\r\n    }\r\n\r\n\r\n    function InitializeContracts(address payable PublicPoolProxyAddress, address payable TreasuryProxyAddress, address payable CertisTokenProxyAddress, address payable PrivatePoolFactoryProxyAddress, address PrivateCertificatePoolImplAddress) \r\n        isFromChairPerson()\r\n        isNotInitialized()\r\n    external\r\n    {\r\n        _init = true;\r\n        initProxies(PublicPoolProxyAddress, TreasuryProxyAddress, CertisTokenProxyAddress, PrivatePoolFactoryProxyAddress, PrivateCertificatePoolImplAddress);\r\n    }\r\n\r\n    // FUNCTIONALITY /////////////////////////////////////////\r\n    // governance : contracts assignment and management\r\n    function updateContracts(address PublicPoolAddress, address TreasuryAddress, address CertisTokenAddress, address PrivatePoolFactoryAddress, address PrivatePoolImplAddress) external\r\n    {\r\n        _ProposedContracts.NewPublicPoolAddress = PublicPoolAddress;\r\n        _ProposedContracts.NewTreasuryAddress = TreasuryAddress;\r\n        _ProposedContracts.NewCertisTokenAddress = CertisTokenAddress;\r\n        _ProposedContracts.NewPrivatePoolFactoryAddress = PrivatePoolFactoryAddress;\r\n        _ProposedContracts.NewPrivatePoolAddress = PrivatePoolImplAddress;\r\n        addProposition(block.timestamp + _PropositionLifeTime, _PropositionThresholdPercentage);\r\n    }\r\n\r\n    function propositionApproved() internal override\r\n    {\r\n        upgradeContractsImplementations(_ProposedContracts.NewPublicPoolAddress, _ProposedContracts.NewTreasuryAddress, _ProposedContracts.NewCertisTokenAddress, _ProposedContracts.NewPrivatePoolFactoryAddress, _ProposedContracts.NewPrivatePoolAddress);\r\n        removeProposition();\r\n    }\r\n\r\n    function propositionRejected() internal override\r\n    {\r\n        removeProposition();\r\n    }\r\n\r\n    function propositionExpired() internal override\r\n    {\r\n        removeProposition();\r\n    }\r\n\r\n    function removeProposition() internal\r\n    {\r\n       delete(_ProposedContracts);\r\n    }\r\n\r\n    function retrieveProposition() external override view returns(string[] memory)\r\n    {\r\n        string[] memory proposition = new string[](5);\r\n        proposition[0] = AddressLibrary.AddressToString(_ProposedContracts.NewPublicPoolAddress);\r\n        proposition[1] = AddressLibrary.AddressToString(_ProposedContracts.NewTreasuryAddress);\r\n        proposition[2] = AddressLibrary.AddressToString(_ProposedContracts.NewCertisTokenAddress);\r\n        proposition[3] = AddressLibrary.AddressToString(_ProposedContracts.NewPrivatePoolFactoryAddress);\r\n        proposition[4] = AddressLibrary.AddressToString(_ProposedContracts.NewPrivatePoolAddress);\r\n        return proposition;\r\n    }\r\n\r\n    function initProxies(address payable PublicPoolProxyAddress, address payable TreasuryProxyAddress, address payable CertisTokenProxyAddress, address payable PrivatePoolFactoryProxyAddress, address PrivateCertificatePoolImplAddress) internal\r\n    {\r\n        _PublicCertificatesPool = PublicCertificatesPoolProxy(PublicPoolProxyAddress);\r\n        _Treasury = TreasuryProxy(TreasuryProxyAddress);\r\n        _CertisToken = CertisTokenProxy(CertisTokenProxyAddress);\r\n        _PrivatePoolFactory = PrivatePoolFactoryProxy(PrivatePoolFactoryProxyAddress);\r\n        _PrivateCertificatePoolBeacon = new UpgradeableBeacon(PrivateCertificatePoolImplAddress);\r\n    }\r\n\r\n    function upgradeContractsImplementations(address PublicPoolAddress, address TreasuryAddress, address CertisTokenAddress, address PrivatePoolFactoryAddress, address PrivatePoolImplAddress) internal\r\n    {\r\n        _PublicCertificatesPool.upgradeTo(PublicPoolAddress);\r\n        _Treasury.upgradeTo(TreasuryAddress);\r\n        _CertisToken.upgradeTo(CertisTokenAddress);\r\n        _PrivatePoolFactory.upgradeTo(PrivatePoolFactoryAddress);\r\n        _PrivateCertificatePoolBeacon.upgradeTo(PrivatePoolImplAddress);\r\n    }\r\n\r\n    // configuration Proxies\r\n    function retrievePublicCertificatePoolProxy() external override view returns (address) {\r\n        return (address(_PublicCertificatesPool));\r\n    }\r\n\r\n    function retrieveTreasuryProxy() external override view returns (address) {\r\n        return (address(_Treasury));\r\n    }\r\n\r\n    function retrieveCertisTokenProxy() external override view returns (address) {\r\n        return (address(_CertisToken));\r\n    }\r\n\r\n    function retrievePrivatePoolFactoryProxy() external override view returns (address) {\r\n        return (address(_PrivatePoolFactory));\r\n    }\r\n\r\n    function retrievePrivatePoolBeacon() external override view returns (address) {\r\n        return (address(_PrivateCertificatePoolBeacon));\r\n    }\r\n\r\n    // configuration implementations\r\n    function retrievePublicCertificatePool() external override view returns (address) {\r\n        return _PublicCertificatesPool.implementation();\r\n    }\r\n\r\n    function retrieveTreasury() external override view returns (address) {\r\n        return _Treasury.implementation();\r\n    }\r\n\r\n    function retrieveCertisToken() external override view returns (address) {\r\n        return _CertisToken.implementation();\r\n    }\r\n\r\n    function retrievePrivatePoolFactory() external override view returns (address) {\r\n        return _PrivatePoolFactory.implementation();\r\n    }\r\n\r\n    function retrievePrivatePool() external override view returns (address) {\r\n        return _PrivateCertificatePoolBeacon.implementation();\r\n    }\r\n    \r\n}",
  "sourcePath": "C:/Users/d-aam/GitHub/Certificates/contracts/DeployedContracts/CertificatesPoolManager.sol",
  "compiler": {
    "name": "solc",
    "version": "0.8.6+commit.11564f7e.Emscripten.clang"
  },
  "schemaVersion": "3.3.4",
  "updatedAt": "2021-08-05T06:19:21.002Z",
  "devdoc": {
    "kind": "dev",
    "methods": {},
    "version": 1
  },
  "userdoc": {
    "kind": "user",
    "methods": {},
    "version": 1
  }
}