{
  "contractName": "CertificatesPoolManager",
  "abi": [
    {
      "anonymous": false,
      "inputs": [
        {
          "indexed": false,
          "internalType": "uint256",
          "name": "Id",
          "type": "uint256"
        },
        {
          "indexed": true,
          "internalType": "address",
          "name": "Proposer",
          "type": "address"
        },
        {
          "indexed": false,
          "internalType": "uint256",
          "name": "Deadline",
          "type": "uint256"
        },
        {
          "indexed": false,
          "internalType": "uint256",
          "name": "Threshold",
          "type": "uint256"
        }
      ],
      "name": "_AddedProposition",
      "type": "event"
    },
    {
      "anonymous": false,
      "inputs": [
        {
          "indexed": false,
          "internalType": "uint256",
          "name": "Id",
          "type": "uint256"
        },
        {
          "indexed": true,
          "internalType": "address",
          "name": "Proposer",
          "type": "address"
        }
      ],
      "name": "_CancelledProposition",
      "type": "event"
    },
    {
      "anonymous": false,
      "inputs": [
        {
          "indexed": false,
          "internalType": "address",
          "name": "NewContractAddress",
          "type": "address"
        },
        {
          "indexed": false,
          "internalType": "uint256",
          "name": "ProxyId",
          "type": "uint256"
        },
        {
          "indexed": false,
          "internalType": "string",
          "name": "ProxyType",
          "type": "string"
        }
      ],
      "name": "_ContractUpgrade",
      "type": "event"
    },
    {
      "anonymous": false,
      "inputs": [
        {
          "indexed": false,
          "internalType": "address",
          "name": "NewContractAddress",
          "type": "address"
        },
        {
          "indexed": false,
          "internalType": "uint256",
          "name": "ProxyId",
          "type": "uint256"
        },
        {
          "indexed": false,
          "internalType": "string",
          "name": "ProxyType",
          "type": "string"
        }
      ],
      "name": "_NewProxy",
      "type": "event"
    },
    {
      "anonymous": false,
      "inputs": [
        {
          "indexed": false,
          "internalType": "uint256",
          "name": "Id",
          "type": "uint256"
        },
        {
          "indexed": true,
          "internalType": "address",
          "name": "Proposer",
          "type": "address"
        },
        {
          "indexed": false,
          "internalType": "uint256",
          "name": "VotesFor",
          "type": "uint256"
        },
        {
          "indexed": false,
          "internalType": "uint256",
          "name": "VotesAgainst",
          "type": "uint256"
        }
      ],
      "name": "_PropositionApproved",
      "type": "event"
    },
    {
      "anonymous": false,
      "inputs": [
        {
          "indexed": false,
          "internalType": "uint256",
          "name": "Id",
          "type": "uint256"
        },
        {
          "indexed": true,
          "internalType": "address",
          "name": "Proposer",
          "type": "address"
        },
        {
          "indexed": false,
          "internalType": "uint256",
          "name": "VotesFor",
          "type": "uint256"
        },
        {
          "indexed": false,
          "internalType": "uint256",
          "name": "VotesAgainst",
          "type": "uint256"
        }
      ],
      "name": "_PropositionRejected",
      "type": "event"
    },
    {
      "anonymous": false,
      "inputs": [
        {
          "indexed": false,
          "internalType": "uint256",
          "name": "Id",
          "type": "uint256"
        },
        {
          "indexed": true,
          "internalType": "address",
          "name": "Voter",
          "type": "address"
        },
        {
          "indexed": false,
          "internalType": "bool",
          "name": "Vote",
          "type": "bool"
        },
        {
          "indexed": false,
          "internalType": "uint256",
          "name": "AmountTokens",
          "type": "uint256"
        }
      ],
      "name": "_PropositionVote",
      "type": "event"
    },
    {
      "anonymous": false,
      "inputs": [
        {
          "indexed": true,
          "internalType": "uint256",
          "name": "Id",
          "type": "uint256"
        },
        {
          "indexed": false,
          "internalType": "address",
          "name": "From",
          "type": "address"
        },
        {
          "indexed": false,
          "internalType": "address",
          "name": "To",
          "type": "address"
        },
        {
          "indexed": false,
          "internalType": "uint256",
          "name": "Amount",
          "type": "uint256"
        }
      ],
      "name": "_UsedTokensTransfered",
      "type": "event"
    },
    {
      "inputs": [
        {
          "internalType": "address",
          "name": "chairPerson",
          "type": "address"
        },
        {
          "internalType": "address",
          "name": "managerContractAddress",
          "type": "address"
        },
        {
          "internalType": "string",
          "name": "contractName",
          "type": "string"
        },
        {
          "internalType": "string",
          "name": "contractVersion",
          "type": "string"
        }
      ],
      "name": "StdPropositionBaseContract_init",
      "outputs": [],
      "stateMutability": "nonpayable",
      "type": "function"
    },
    {
      "inputs": [],
      "name": "cancelProposition",
      "outputs": [],
      "stateMutability": "nonpayable",
      "type": "function"
    },
    {
      "inputs": [
        {
          "internalType": "address",
          "name": "from",
          "type": "address"
        },
        {
          "internalType": "address",
          "name": "to",
          "type": "address"
        },
        {
          "internalType": "uint256",
          "name": "amount",
          "type": "uint256"
        }
      ],
      "name": "onTokenBalanceChanged",
      "outputs": [],
      "stateMutability": "nonpayable",
      "type": "function"
    },
    {
      "inputs": [],
      "name": "retrieveChairPerson",
      "outputs": [
        {
          "internalType": "address",
          "name": "",
          "type": "address"
        }
      ],
      "stateMutability": "view",
      "type": "function",
      "constant": true
    },
    {
      "inputs": [],
      "name": "retrieveContractConfig",
      "outputs": [
        {
          "internalType": "string",
          "name": "",
          "type": "string"
        },
        {
          "internalType": "string",
          "name": "",
          "type": "string"
        }
      ],
      "stateMutability": "view",
      "type": "function",
      "constant": true
    },
    {
      "inputs": [],
      "name": "retrieveManagerContract",
      "outputs": [
        {
          "internalType": "address",
          "name": "",
          "type": "address"
        }
      ],
      "stateMutability": "view",
      "type": "function",
      "constant": true
    },
    {
      "inputs": [],
      "name": "retrieveNextPropId",
      "outputs": [
        {
          "internalType": "uint256",
          "name": "",
          "type": "uint256"
        }
      ],
      "stateMutability": "view",
      "type": "function",
      "constant": true
    },
    {
      "inputs": [
        {
          "internalType": "address",
          "name": "addr",
          "type": "address"
        },
        {
          "internalType": "uint256",
          "name": "nonce",
          "type": "uint256"
        }
      ],
      "name": "retrieveNonce",
      "outputs": [
        {
          "internalType": "bool",
          "name": "",
          "type": "bool"
        }
      ],
      "stateMutability": "view",
      "type": "function",
      "constant": true
    },
    {
      "inputs": [],
      "name": "retrieveProposition",
      "outputs": [
        {
          "internalType": "bytes[]",
          "name": "",
          "type": "bytes[]"
        }
      ],
      "stateMutability": "view",
      "type": "function",
      "constant": true
    },
    {
      "inputs": [],
      "name": "retrievePropositionStatus",
      "outputs": [
        {
          "internalType": "address",
          "name": "",
          "type": "address"
        },
        {
          "internalType": "uint256",
          "name": "",
          "type": "uint256"
        },
        {
          "internalType": "uint256",
          "name": "",
          "type": "uint256"
        },
        {
          "internalType": "uint256",
          "name": "",
          "type": "uint256"
        },
        {
          "internalType": "uint256",
          "name": "",
          "type": "uint256"
        }
      ],
      "stateMutability": "view",
      "type": "function",
      "constant": true
    },
    {
      "inputs": [
        {
          "internalType": "uint256",
          "name": "PropId",
          "type": "uint256"
        },
        {
          "internalType": "address",
          "name": "voter",
          "type": "address"
        }
      ],
      "name": "retrieveVotesForVoter",
      "outputs": [
        {
          "internalType": "uint256",
          "name": "",
          "type": "uint256"
        }
      ],
      "stateMutability": "view",
      "type": "function",
      "constant": true
    },
    {
      "inputs": [
        {
          "internalType": "bytes[]",
          "name": "NewValues",
          "type": "bytes[]"
        }
      ],
      "name": "sendProposition",
      "outputs": [],
      "stateMutability": "nonpayable",
      "type": "function"
    },
    {
      "inputs": [
        {
          "internalType": "bool",
          "name": "vote",
          "type": "bool"
        }
      ],
      "name": "voteProposition",
      "outputs": [],
      "stateMutability": "nonpayable",
      "type": "function"
    },
    {
      "inputs": [
        {
          "internalType": "address",
          "name": "voter",
          "type": "address"
        },
        {
          "internalType": "uint256",
          "name": "propID",
          "type": "uint256"
        },
        {
          "internalType": "bool",
          "name": "vote",
          "type": "bool"
        },
        {
          "internalType": "uint256",
          "name": "nonce",
          "type": "uint256"
        },
        {
          "internalType": "uint256",
          "name": "deadline",
          "type": "uint256"
        },
        {
          "internalType": "bytes",
          "name": "signature",
          "type": "bytes"
        }
      ],
      "name": "votePropositionOnBehalfOf",
      "outputs": [],
      "stateMutability": "nonpayable",
      "type": "function"
    },
    {
      "inputs": [
        {
          "internalType": "address",
          "name": "chairPerson",
          "type": "address"
        },
        {
          "internalType": "string",
          "name": "contractName",
          "type": "string"
        },
        {
          "internalType": "string",
          "name": "contractVersion",
          "type": "string"
        }
      ],
      "name": "CertificatesPoolManager_init",
      "outputs": [],
      "stateMutability": "nonpayable",
      "type": "function"
    },
    {
      "inputs": [
        {
          "components": [
            {
              "internalType": "address[]",
              "name": "TransparentAddresses",
              "type": "address[]"
            },
            {
              "internalType": "address[]",
              "name": "BeaconAddresses",
              "type": "address[]"
            },
            {
              "internalType": "bytes[]",
              "name": "TransparentData",
              "type": "bytes[]"
            },
            {
              "internalType": "string",
              "name": "PrivatePoolContractName",
              "type": "string"
            },
            {
              "internalType": "string",
              "name": "PrivatePoolContractVersion",
              "type": "string"
            }
          ],
          "internalType": "struct Library.ProposedContractsStruct",
          "name": "initialContracts",
          "type": "tuple"
        }
      ],
      "name": "InitializeContracts",
      "outputs": [],
      "stateMutability": "nonpayable",
      "type": "function"
    },
    {
      "inputs": [
        {
          "internalType": "address",
          "name": "newManagerAdmin",
          "type": "address"
        }
      ],
      "name": "changeManagerAdmin",
      "outputs": [],
      "stateMutability": "nonpayable",
      "type": "function"
    },
    {
      "inputs": [],
      "name": "retrieveTransparentProxies",
      "outputs": [
        {
          "internalType": "address[]",
          "name": "",
          "type": "address[]"
        }
      ],
      "stateMutability": "view",
      "type": "function",
      "constant": true
    },
    {
      "inputs": [],
      "name": "retrieveBeacons",
      "outputs": [
        {
          "internalType": "address[]",
          "name": "",
          "type": "address[]"
        }
      ],
      "stateMutability": "view",
      "type": "function",
      "constant": true
    },
    {
      "inputs": [],
      "name": "retrieveTransparentProxiesImpl",
      "outputs": [
        {
          "internalType": "address[]",
          "name": "",
          "type": "address[]"
        }
      ],
      "stateMutability": "view",
      "type": "function",
      "constant": true
    },
    {
      "inputs": [],
      "name": "retrieveBeaconsImpl",
      "outputs": [
        {
          "internalType": "address[]",
          "name": "",
          "type": "address[]"
        }
      ],
      "stateMutability": "view",
      "type": "function",
      "constant": true
    },
    {
      "inputs": [],
      "name": "retrieveManagerAdmin",
      "outputs": [
        {
          "internalType": "address",
          "name": "",
          "type": "address"
        }
      ],
      "stateMutability": "view",
      "type": "function",
      "constant": true
    },
    {
      "inputs": [],
      "name": "isInitialized",
      "outputs": [
        {
          "internalType": "bool",
          "name": "",
          "type": "bool"
        }
      ],
      "stateMutability": "view",
      "type": "function",
      "constant": true
    }
  ],
  "bytecode": "0x608060405234801561001057600080fd5b50615a6a806100206000396000f3fe60806040523480156200001157600080fd5b5060043610620001365760003560e01c806304cc67a9146200013b57806306489577146200015257806306fde4ff146200016e5780630f13bbc91462000187578063392e53cd146200019e5780633c7df55d14620001b65780633feca4ca14620001cd5780634044adb2146200020957806355457ee914620002425780635b362e84146200024c5780637faa3d6f1462000264578063840f6d17146200027b57806391f9167114620002bd5780639f77710414620002d4578063a81a635614620002ed578063a93316f51462000304578063d2116a02146200031d578063db85bc4d1462000337578063deb466661462000349578063e15aa3a61462000360578063e220ad951462000377578063efd621de1462000381578063fe9dc8dc146200038b575b600080fd5b600b545b6040519081526020015b60405180910390f35b600e546001600160a01b03165b6040516200014991906200395c565b620001856200017f36600462003317565b62000395565b005b620001856200019836600462003357565b62000433565b60125460ff165b604051901515815260200162000149565b62000185620001c7366004620033ea565b620004c0565b620001a5620001de366004620034ae565b6001600160a01b03919091166000908152600260209081526040808320938352929052205460ff1690565b6200013f6200021a36600462003801565b6000918252600c602090815260408084206001600160a01b0393909316845291905290205490565b62000185620005eb565b6003546201000090046001600160a01b03166200015f565b6200018562000275366004620034dd565b620006cf565b600654600754600854600954600a54604080516001600160a01b0390961686526020860194909452928401919091526060830152608082015260a00162000149565b62000185620002ce3660046200376a565b620006f3565b620002de62000702565b60405162000149919062003a63565b62000185620002fe36600462003430565b620007dc565b6200030e620008b4565b60405162000149919062003ab2565b6200032762000997565b6040516200014992919062003b71565b6004546001600160a01b03166200015f565b620001856200035a366004620037aa565b62000ace565b6200018562000371366004620036a7565b62000ba2565b620002de62000c1e565b620002de62000cf1565b620002de62000dc4565b600e546040516337ea306360e01b8152339173__Library_______________________________916337ea306391620003dd9185916001600160a01b03169060040162003970565b60006040518083038186803b158015620003f657600080fd5b505af41580156200040b573d6000803e3d6000fd5b5050600e80546001600160a01b0319166001600160a01b039590951694909417909355505050565b600354610100900460ff16806200044d575060035460ff16155b620004755760405162461bcd60e51b81526004016200046c9062003b9a565b60405180910390fd5b600354610100900460ff1615801562000498576003805461ffff19166101011790555b620004a68585858562000e98565b8015620004b9576003805461ff00191690555b5050505050565b3373__Library_______________________________6337ea306382600360029054906101000a90046001600160a01b03166001600160a01b031663e220ad956040518163ffffffff1660e01b815260040160006040518083038186803b1580156200052b57600080fd5b505afa15801562000540573d6000803e3d6000fd5b505050506040513d6000823e601f3d908101601f191682016040526200056a919081019062003562565b6002815181106200057f576200057f62003d93565b60200260200101516040518363ffffffff1660e01b8152600401620005a692919062003970565b60006040518083038186803b158015620005bf57600080fd5b505af4158015620005d4573d6000803e3d6000fd5b50505050620005e584848462000f2b565b50505050565b6001620005f88162000f52565b6006546040516337ea306360e01b8152339173__Library_______________________________916337ea306391620006409185916001600160a01b03169060040162003970565b60006040518083038186803b1580156200065957600080fd5b505af41580156200066e573d6000803e3d6000fd5b505050506200067c62000fdf565b6200068662000feb565b6006546005546040519081526001600160a01b03909116907f1fe8aec10c0a50fa765076161e08c1f961ced69594ff45cf7d559f593afe14799060200160405180910390a25050565b620006df86868686868662001016565b620006eb868562001184565b505050505050565b620006ff338262001184565b50565b6011546060906000906001600160401b0381111562000725576200072562003da9565b6040519080825280602002602001820160405280156200074f578160200160208202803683370190505b50905060005b8151811015620007d657620007946011828154811062000779576200077962003d93565b6000918252602090912001546001600160a01b0316620012ad565b828281518110620007a957620007a962003d93565b6001600160a01b039092166020928302919091019091015280620007cd8162003d5f565b91505062000755565b50919050565b600354610100900460ff1680620007f6575060035460ff16155b620008155760405162461bcd60e51b81526004016200046c9062003b9a565b600354610100900460ff1615801562000838576003805461ffff19166101011790555b620008468430858562000433565b604051620008549062003151565b604051809103906000f08015801562000871573d6000803e3d6000fd5b50600f80546001600160a01b03929092166001600160a01b0319928316179055600e8054909116331790558015620005e5576003805461ff001916905550505050565b6060600d805480602002602001604051908101604052809291908181526020016000905b828210156200098e578382906000526020600020018054620008fa9062003d28565b80601f0160208091040260200160405190810160405280929190818152602001828054620009289062003d28565b8015620009795780601f106200094d5761010080835404028352916020019162000979565b820191906000526020600020905b8154815290600101906020018083116200095b57829003601f168201915b505050505081526020019060010190620008d8565b50505050905090565b60608060006001818054620009ac9062003d28565b80601f0160208091040260200160405190810160405280929190818152602001828054620009da9062003d28565b801562000a2b5780601f10620009ff5761010080835404028352916020019162000a2b565b820191906000526020600020905b81548152906001019060200180831162000a0d57829003601f168201915b5050505050915080805462000a409062003d28565b80601f016020809104026020016040519081016040528092919081815260200182805462000a6e9062003d28565b801562000abf5780601f1062000a935761010080835404028352916020019162000abf565b820191906000526020600020905b81548152906001019060200180831162000aa157829003601f168201915b50505050509050915091509091565b600480546040516337ea306360e01b8152339273__Library_______________________________926337ea30639262000b159286926001600160a01b0316910162003970565b60006040518083038186803b15801562000b2e57600080fd5b505af415801562000b43573d6000803e3d6000fd5b505060125460ff1615915062000b8690505760405162461bcd60e51b8152602060048201526005602482015264454332362d60d81b60448201526064016200046c565b62000b91826200132a565b50506012805460ff19166001179055565b62000bac6200159b565b60005b815181101562000c1a57600d82828151811062000bd05762000bd062003d93565b6020908102919091018101518254600181018455600093845292829020815162000c0494919091019291909101906200315f565b508062000c118162003d5f565b91505062000baf565b5050565b6010546060906000906001600160401b0381111562000c415762000c4162003da9565b60405190808252806020026020018201604052801562000c6b578160200160208202803683370190505b50905060005b8151811015620007d6576010818154811062000c915762000c9162003d93565b9060005260206000200160009054906101000a90046001600160a01b031682828151811062000cc45762000cc462003d93565b6001600160a01b03909216602092830291909101909101528062000ce88162003d5f565b91505062000c71565b6011546060906000906001600160401b0381111562000d145762000d1462003da9565b60405190808252806020026020018201604052801562000d3e578160200160208202803683370190505b50905060005b8151811015620007d6576011818154811062000d645762000d6462003d93565b9060005260206000200160009054906101000a90046001600160a01b031682828151811062000d975762000d9762003d93565b6001600160a01b03909216602092830291909101909101528062000dbb8162003d5f565b91505062000d44565b6010546060906000906001600160401b0381111562000de75762000de762003da9565b60405190808252806020026020018201604052801562000e11578160200160208202803683370190505b50905060005b8151811015620007d65762000e566010828154811062000e3b5762000e3b62003d93565b6000918252602090912001546001600160a01b031662001910565b82828151811062000e6b5762000e6b62003d93565b6001600160a01b03909216602092830291909101909101528062000e8f8162003d5f565b91505062000e17565b600354610100900460ff168062000eb2575060035460ff16155b62000ed15760405162461bcd60e51b81526004016200046c9062003b9a565b600354610100900460ff1615801562000ef4576003805461ffff19166101011790555b62000eff846200195c565b600480546001600160a01b0319166001600160a01b0387161790556000600b55620004a68383620019f0565b62000f3562001a1b565b15156001141562000f4d5762000f4d83838362001a5b565b505050565b801562000f9e5762000f6362001a1b565b1515600114620006ff5760405162461bcd60e51b8152602060048201526005602482015264454332352d60d81b60448201526064016200046c565b62000fa862001a1b565b15620006ff5760405162461bcd60e51b8152602060048201526005602482015264454332342d60d81b60448201526064016200046c565b62000fe962001bd3565b565b60006005819055600680546001600160a01b0319169055600781905560088190556009819055600a55565b81620010228162001be1565b868462001030828262001c1a565b60055488146200106b5760405162461bcd60e51b8152602060048201526005602482015264454333352d60d81b60448201526064016200046c565b60405163432f9a5560e01b815273__SignatureLibrary______________________9063432f9a5590620010b4908c908c908c908c908c908c90600090600190600401620039c1565b60206040518083038186803b158015620010cd57600080fd5b505af4158015620010e2573d6000803e3d6000fd5b505050506040513d601f19601f820116820180604052508101906200110891906200378a565b1515600114620011435760405162461bcd60e51b8152602060048201526005602482015264454333322d60d81b60448201526064016200046c565b6200117989876001600160a01b03909116600090815260026020908152604080832093835292905220805460ff19166001179055565b505050505050505050565b6001620011918162000f52565b60055483906000620011a4838362001c78565b905060008111620011e05760405162461bcd60e51b8152602060048201526005602482015264454332332d60d81b60448201526064016200046c565b6000620011f38760056000015462001c78565b905085156200121f57806005600401600082825462001213919062003cf3565b909155506200123b9050565b8060058001600082825462001235919062003cf3565b90915550505b6005546200124b90888362001cb9565b60055460408051918252871515602083015281018290526001600160a01b038816907f50f654d58981575c05e369cb129aeacb01e1b036af429380242cfc5d1a4b743f9060600160405180910390a2620012a462001cf7565b50505050505050565b6000816001600160a01b0316635c60da1b6040518163ffffffff1660e01b815260040160206040518083038186803b158015620012e957600080fd5b505afa158015620012fe573d6000803e3d6000fd5b505050506040513d601f19601f8201168201806040525081019062001324919062003337565b92915050565b60005b62001339828062003bfe565b90508110156200140357620013ee62001353838062003bfe565b8381811062001366576200136662003d93565b90506020020160208101906200137d919062003317565b6200138c604085018562003bfe565b848181106200139f576200139f62003d93565b9050602002810190620013b3919062003c51565b8080601f01602080910402602001604051908101604052809392919081815260200183838082843760009201919091525062001dd992505050565b80620013fa8162003d5f565b9150506200132d565b5060005b62001416602083018362003bfe565b905081101562001478576200146362001433602084018462003bfe565b8381811062001446576200144662003d93565b90506020020160208101906200145d919062003317565b62001ebf565b806200146f8162003d5f565b91505062001407565b50601060038154811062001490576200149062003d93565b6000918252602090912001546001600160a01b031663ce50ac76620014b9606084018462003c51565b6040518363ffffffff1660e01b8152600401620014d892919062003b42565b600060405180830381600087803b158015620014f357600080fd5b505af115801562001508573d6000803e3d6000fd5b50505050601060038154811062001523576200152362003d93565b6000918252602090912001546001600160a01b0316631dd5862c6200154c608084018462003c51565b6040518363ffffffff1660e01b81526004016200156b92919062003b42565b600060405180830381600087803b1580156200158657600080fd5b505af1158015620004b9573d6000803e3d6000fd5b6000620015a88162000f52565b60045433906000906001600160a01b0316821415620015ca575060016200170f565b6000620015d78362001f8a565b90506000600360029054906101000a90046001600160a01b03166001600160a01b031663e220ad956040518163ffffffff1660e01b815260040160006040518083038186803b1580156200162a57600080fd5b505afa1580156200163f573d6000803e3d6000fd5b505050506040513d6000823e601f3d908101601f1916820160405262001669919081019062003562565b6006815181106200167e576200167e62003d93565b60200260200101516001600160a01b031663b049473f6040518163ffffffff1660e01b815260040160606040518083038186803b158015620016bf57600080fd5b505afa158015620016d4573d6000803e3d6000fd5b505050506040513d601f19601f82011682018060405250810190620016fa919062003834565b92505050808211156200170c57600192505b50505b6001811515146200174b5760405162461bcd60e51b8152602060048201526005602482015264454332322d60d81b60448201526064016200046c565b600080600360029054906101000a90046001600160a01b03166001600160a01b031663e220ad956040518163ffffffff1660e01b815260040160006040518083038186803b1580156200179d57600080fd5b505afa158015620017b2573d6000803e3d6000fd5b505050506040513d6000823e601f3d908101601f19168201604052620017dc919081019062003562565b600681518110620017f157620017f162003d93565b60200260200101516001600160a01b031663b049473f6040518163ffffffff1660e01b815260040160606040518083038186803b1580156200183257600080fd5b505afa15801562001847573d6000803e3d6000fd5b505050506040513d601f19601f820116820180604052508101906200186d919062003834565b50600680546001600160a01b03191633179055909250905062001891824262003cf3565b6007556008819055600b80546005819055906000620018b08362003d5f565b90915550506006546005546007546008546040516001600160a01b03909416937f472501d19bf75639b2e316cd36f8568b0c3ab943b82a87de3c086c98c1929df99362001901939092909162003be8565b60405180910390a25050505050565b600f546040516310270e3d60e11b81526000916001600160a01b03169063204e1c7a90620019439085906004016200395c565b60206040518083038186803b158015620012e957600080fd5b600354610100900460ff168062001976575060035460ff16155b620019955760405162461bcd60e51b81526004016200046c9062003b9a565b600354610100900460ff16158015620019b8576003805461ffff19166101011790555b6003805462010000600160b01b031916620100006001600160a01b03851602179055801562000c1a576003805461ff00191690555050565b815162001a059060009060208501906200315f565b50805162000f4d9060019060208401906200315f565b60075460009042101562001a2f5750600190565b6006546001600160a01b03161562001a555762001a4b62000fdf565b62001a5562000feb565b50600090565b6001600160a01b0383161580159062001a9857506005546000908152600c602090815260408083206001600160a01b038716845290915290205415155b1562000f4d576005546000908152600c602090815260408083206001600160a01b0387168452909152902054819081111562001af657506005546000908152600c602090815260408083206001600160a01b03871684529091529020545b6005546000908152600c602090815260408083206001600160a01b03881684529091528120805483929062001b2d90849062003d0e565b90915550506001600160a01b0383161562001b7f576005546000908152600c602090815260408083206001600160a01b03871684529091528120805483929062001b7990849062003cf3565b90915550505b600554604080516001600160a01b038088168252861660208201529081018390527f65fbd5e5dd32bea4aeca85bd0be0abf0e489d655dee888a7510d43b06dda2dba9060600160405180910390a250505050565b62000fe9600d6000620031ee565b804210620006ff5760405162461bcd60e51b8152602060048201526005602482015264454333332d60d81b60448201526064016200046c565b6001600160a01b038216600090815260026020908152604080832084845290915290205460ff161562000c1a5760405162461bcd60e51b8152602060048201526005602482015264454333342d60d81b60448201526064016200046c565b6000818152600c602090815260408083206001600160a01b038616845290915281205462001ca68462001f8a565b62001cb2919062003d0e565b9392505050565b6000838152600c602090815260408083206001600160a01b03861684529091528120805483929062001ced90849062003cf3565b9091555050505050565b6008546009541062001d6d5762001d0d620020b8565b62001d1762000feb565b600654600554600954600a546040516001600160a01b03909416937f23ca0034cf5aad32571b4a492e9598ea8a490e1643a60970e3cdc6933b55e49f9362001d63939092909162003be8565b60405180910390a2565b600854600a541062000fe95762001d8362000fdf565b62001d8d62000feb565b600654600554600954600a546040516001600160a01b03909416937fa58eb6daa3c62c3f883973c4035e5bd3e81aa627c8379de068a7de42df122be29362001d63939092909162003be8565b6001600160a01b0382161562000c1a57600f5460405160109184916001600160a01b0390911690849062001e0d906200320e565b62001e1b939291906200398a565b604051809103906000f08015801562001e38573d6000803e3d6000fd5b50815460018101835560009283526020928390200180546001600160a01b0319166001600160a01b0392909216919091179055601054604080518082018252600b81526a151c985b9cdc185c995b9d60aa1b938101939093525160008051602062005a158339815191529262001eb392869290919062003a3a565b60405180910390a15050565b6001600160a01b03811615620006ff5760118160405162001ee0906200321c565b62001eec91906200395c565b604051809103906000f08015801562001f09573d6000803e3d6000fd5b50815460018101835560009283526020928390200180546001600160a01b0319166001600160a01b039290921691909117905560115460408051808201825260068152652132b0b1b7b760d11b938101939093525160008051602062005a158339815191529262001f7f92859290919062003a3a565b60405180910390a150565b6000600360029054906101000a90046001600160a01b03166001600160a01b031663e220ad956040518163ffffffff1660e01b815260040160006040518083038186803b15801562001fdb57600080fd5b505afa15801562001ff0573d6000803e3d6000fd5b505050506040513d6000823e601f3d908101601f191682016040526200201a919081019062003562565b6002815181106200202f576200202f62003d93565b60200260200101516001600160a01b03166370a08231836040518263ffffffff1660e01b81526004016200206491906200395c565b60206040518083038186803b1580156200207d57600080fd5b505afa15801562002092573d6000803e3d6000fd5b505050506040513d601f19601f82011682018060405250810190620013249190620037e7565b62000fdf600060029050600073__UintLibrary___________________________630bd4715e73__Library_______________________________63caa8f589600d6000815481106200210f576200210f62003d93565b906000526020600020016040518263ffffffff1660e01b815260040162002137919062003b2d565b60006040518083038186803b1580156200215057600080fd5b505af415801562002165573d6000803e3d6000fd5b505050506040513d6000823e601f3d908101601f191682016040526200218f919081019062003613565b600081518110620021a457620021a462003d93565b60200260200101516040518263ffffffff1660e01b8152600401620021cb91815260200190565b60206040518083038186803b158015620021e457600080fd5b505af4158015620021f9573d6000803e3d6000fd5b505050506040513d601f19601f820116820180604052508101906200221f9190620037e7565b9050600073__UintLibrary___________________________630bd4715e73__Library_______________________________63caa8f589600d6001815481106200226e576200226e62003d93565b906000526020600020016040518263ffffffff1660e01b815260040162002296919062003b2d565b60006040518083038186803b158015620022af57600080fd5b505af4158015620022c4573d6000803e3d6000fd5b505050506040513d6000823e601f3d908101601f19168201604052620022ee919081019062003613565b60008151811062002303576200230362003d93565b60200260200101516040518263ffffffff1660e01b81526004016200232a91815260200190565b60206040518083038186803b1580156200234357600080fd5b505af415801562002358573d6000803e3d6000fd5b505050506040513d601f19601f820116820180604052508101906200237e9190620037e7565b6011546010549192506000918391906200239a90869062003cf3565b620023a6919062003cf3565b620023b2919062003cf3565b905060005b60105481101562002594576200257f60108281548110620023dc57620023dc62003d93565b6000918252602090912001546001600160a01b031682600d62002400828a62003cf3565b8154811062002413576200241362003d93565b9060005260206000200180546200242a9062003d28565b80601f0160208091040260200160405190810160405280929190818152602001828054620024589062003d28565b8015620024a95780601f106200247d57610100808354040283529160200191620024a9565b820191906000526020600020905b8154815290600101906020018083116200248b57829003601f168201915b5050505050600d85878b620024bf919062003cf3565b620024cb919062003cf3565b81548110620024de57620024de62003d93565b906000526020600020018054620024f59062003d28565b80601f0160208091040260200160405190810160405280929190818152602001828054620025239062003d28565b8015620025745780601f10620025485761010080835404028352916020019162002574565b820191906000526020600020905b8154815290600101906020018083116200255657829003601f168201915b505050505062002cd2565b806200258b8162003d5f565b915050620023b7565b50601054620025a4908562003cf3565b93508215620028165760005b838110156200280657620027f173__AddressLibrary________________________63f4ce9ae873__Library_______________________________63caa8f589600d620025ff878c62003cf3565b8154811062002612576200261262003d93565b906000526020600020016040518263ffffffff1660e01b81526004016200263a919062003b2d565b60006040518083038186803b1580156200265357600080fd5b505af415801562002668573d6000803e3d6000fd5b505050506040513d6000823e601f3d908101601f1916820160405262002692919081019062003613565b600081518110620026a757620026a762003d93565b60200260200101516040518263ffffffff1660e01b8152600401620026ce91815260200190565b60206040518083038186803b158015620026e757600080fd5b505af4158015620026fc573d6000803e3d6000fd5b505050506040513d601f19601f8201168201806040525081019062002722919062003337565b600d8362002731868a62003cf3565b6200273d919062003cf3565b8154811062002750576200275062003d93565b906000526020600020018054620027679062003d28565b80601f0160208091040260200160405190810160405280929190818152602001828054620027959062003d28565b8015620027e65780601f10620027ba57610100808354040283529160200191620027e6565b820191906000526020600020905b815481529060010190602001808311620027c857829003601f168201915b505050505062001dd9565b80620027fd8162003d5f565b915050620025b0565b5062002813838562003cf3565b93505b60005b6011548110156200292b5762002916601182815481106200283e576200283e62003d93565b6000918252602090912001546001600160a01b031682600d62002862828a62003cf3565b8154811062002875576200287562003d93565b9060005260206000200180546200288c9062003d28565b80601f0160208091040260200160405190810160405280929190818152602001828054620028ba9062003d28565b80156200290b5780601f10620028df576101008083540402835291602001916200290b565b820191906000526020600020905b815481529060010190602001808311620028ed57829003601f168201915b505050505062002f54565b80620029228162003d5f565b91505062002819565b506011546200293b908562003cf3565b9350811562002ade5760005b8281101562002ace5762002ab973__AddressLibrary________________________63f4ce9ae873__Library_______________________________63caa8f589600d62002996878c62003cf3565b81548110620029a957620029a962003d93565b906000526020600020016040518263ffffffff1660e01b8152600401620029d1919062003b2d565b60006040518083038186803b158015620029ea57600080fd5b505af4158015620029ff573d6000803e3d6000fd5b505050506040513d6000823e601f3d908101601f1916820160405262002a29919081019062003613565b60008151811062002a3e5762002a3e62003d93565b60200260200101516040518263ffffffff1660e01b815260040162002a6591815260200190565b60206040518083038186803b15801562002a7e57600080fd5b505af415801562002a93573d6000803e3d6000fd5b505050506040513d601f19601f820116820180604052508101906200145d919062003337565b8062002ac58162003d5f565b91505062002947565b5062002adb828562003cf3565b93505b601054839062002aef908662003cf3565b62002afb919062003cf3565b9350600d848154811062002b135762002b1362003d93565b90600052602060002001805462002b2a9062003d28565b15905062002bdc57601060038154811062002b495762002b4962003d93565b600091825260209091200154600d80546001600160a01b039092169163ce50ac7691908790811062002b7f5762002b7f62003d93565b906000526020600020016040518263ffffffff1660e01b815260040162002ba7919062003b2d565b600060405180830381600087803b15801562002bc257600080fd5b505af115801562002bd7573d6000803e3d6000fd5b505050505b600d62002beb85600162003cf3565b8154811062002bfe5762002bfe62003d93565b90600052602060002001805462002c159062003d28565b159050620005e557601060038154811062002c345762002c3462003d93565b6000918252602090912001546001600160a01b0316631dd5862c600d62002c5d87600162003cf3565b8154811062002c705762002c7062003d93565b906000526020600020016040518263ffffffff1660e01b815260040162002c98919062003b2d565b600060405180830381600087803b15801562002cb357600080fd5b505af115801562002cc8573d6000803e3d6000fd5b5050505050505050565b600073__AddressLibrary________________________63f4ce9ae873__Library_______________________________63caa8f589866040518263ffffffff1660e01b815260040162002d27919062003b18565b60006040518083038186803b15801562002d4057600080fd5b505af415801562002d55573d6000803e3d6000fd5b505050506040513d6000823e601f3d908101601f1916820160405262002d7f919081019062003613565b60008151811062002d945762002d9462003d93565b60200260200101516040518263ffffffff1660e01b815260040162002dbb91815260200190565b60206040518083038186803b15801562002dd457600080fd5b505af415801562002de9573d6000803e3d6000fd5b505050506040513d601f19601f8201168201806040525081019062002e0f919062003337565b90506001600160a01b03811615620004b95781511562002e9957600f54604051639623609d60e01b81526001600160a01b0390911690639623609d9062002e5f908890859087906004016200398a565b600060405180830381600087803b15801562002e7a57600080fd5b505af115801562002e8f573d6000803e3d6000fd5b5050505062002f02565b600f5460405163266a23b160e21b81526001600160a01b03909116906399a88ec49062002ecd908890859060040162003970565b600060405180830381600087803b15801562002ee857600080fd5b505af115801562002efd573d6000803e3d6000fd5b505050505b604080518082018252600b81526a151c985b9cdc185c995b9d60aa1b60208201529051600080516020620059f58339815191529162002f45918491889162003a3a565b60405180910390a15050505050565b600073__AddressLibrary________________________63f4ce9ae873__Library_______________________________63caa8f589856040518263ffffffff1660e01b815260040162002fa9919062003b18565b60006040518083038186803b15801562002fc257600080fd5b505af415801562002fd7573d6000803e3d6000fd5b505050506040513d6000823e601f3d908101601f1916820160405262003001919081019062003613565b60008151811062003016576200301662003d93565b60200260200101516040518263ffffffff1660e01b81526004016200303d91815260200190565b60206040518083038186803b1580156200305657600080fd5b505af41580156200306b573d6000803e3d6000fd5b505050506040513d601f19601f8201168201806040525081019062003091919062003337565b90506001600160a01b03811615620005e557604051631b2ce7f360e11b81526001600160a01b03851690633659cfe690620030d19084906004016200395c565b600060405180830381600087803b158015620030ec57600080fd5b505af115801562003101573d6000803e3d6000fd5b505060408051808201825260068152652132b0b1b7b760d11b60208201529051600080516020620059f583398151915293506200314392508491879162003a3a565b60405180910390a150505050565b6107bd8062003de583390190565b8280546200316d9062003d28565b90600052602060002090601f016020900481019282620031915760008555620031dc565b82601f10620031ac57805160ff1916838001178555620031dc565b82800160010185558215620031dc579182015b82811115620031dc578251825591602001919060010190620031bf565b50620031ea9291506200322a565b5090565b5080546000825590600052602060002090810190620006ff919062003241565b610f3080620045a283390190565b61052380620054d283390190565b5b80821115620031ea57600081556001016200322b565b80821115620031ea57600062003258828262003262565b5060010162003241565b508054620032709062003d28565b6000825580601f1062003281575050565b601f016020900490600052602060002090810190620006ff91906200322a565b600082601f830112620032b357600080fd5b81356001600160401b03811115620032cf57620032cf62003da9565b620032e4601f8201601f191660200162003c9a565b818152846020838601011115620032fa57600080fd5b816020850160208301376000918101602001919091529392505050565b6000602082840312156200332a57600080fd5b813562001cb28162003dbf565b6000602082840312156200334a57600080fd5b815162001cb28162003dbf565b600080600080608085870312156200336e57600080fd5b84356200337b8162003dbf565b935060208501356200338d8162003dbf565b925060408501356001600160401b0380821115620033aa57600080fd5b620033b888838901620032a1565b93506060870135915080821115620033cf57600080fd5b50620033de87828801620032a1565b91505092959194509250565b6000806000606084860312156200340057600080fd5b83356200340d8162003dbf565b925060208401356200341f8162003dbf565b929592945050506040919091013590565b6000806000606084860312156200344657600080fd5b8335620034538162003dbf565b925060208401356001600160401b03808211156200347057600080fd5b6200347e87838801620032a1565b935060408601359150808211156200349557600080fd5b50620034a486828701620032a1565b9150509250925092565b60008060408385031215620034c257600080fd5b8235620034cf8162003dbf565b946020939093013593505050565b60008060008060008060c08789031215620034f757600080fd5b8635620035048162003dbf565b95506020870135945060408701356200351d8162003dd5565b9350606087013592506080870135915060a08701356001600160401b038111156200354757600080fd5b6200355589828a01620032a1565b9150509295509295509295565b600060208083850312156200357657600080fd5b82516001600160401b038111156200358d57600080fd5b8301601f810185136200359f57600080fd5b8051620035b6620035b08262003ccd565b62003c9a565b80828252848201915084840188868560051b8701011115620035d757600080fd5b600094505b8385101562003607578051620035f28162003dbf565b835260019490940193918501918501620035dc565b50979650505050505050565b600060208083850312156200362757600080fd5b82516001600160401b038111156200363e57600080fd5b8301601f810185136200365057600080fd5b805162003661620035b08262003ccd565b80828252848201915084840188868560051b87010111156200368257600080fd5b600094505b838510156200360757805183526001949094019391850191850162003687565b60006020808385031215620036bb57600080fd5b82356001600160401b0380821115620036d357600080fd5b818501915085601f830112620036e857600080fd5b8135620036f9620035b08262003ccd565b80828252858201915085850189878560051b88010111156200371a57600080fd5b6000805b858110156200375a5782358781111562003736578283fd5b620037468d8b838c0101620032a1565b86525093880193918801916001016200371e565b50919a9950505050505050505050565b6000602082840312156200377d57600080fd5b813562001cb28162003dd5565b6000602082840312156200379d57600080fd5b815162001cb28162003dd5565b600060208284031215620037bd57600080fd5b81356001600160401b03811115620037d457600080fd5b820160a0818503121562001cb257600080fd5b600060208284031215620037fa57600080fd5b5051919050565b600080604083850312156200381557600080fd5b823591506020830135620038298162003dbf565b809150509250929050565b6000806000606084860312156200384a57600080fd5b8351925060208401519150604084015190509250925092565b6000815180845260005b818110156200388b576020818501810151868301820152016200386d565b818111156200389e576000602083870101525b50601f01601f19169290920160200192915050565b8054600090600181811c9080831680620038ce57607f831692505b6020808410821415620038f157634e487b7160e01b600052602260045260246000fd5b8388528180156200390b5760018114620039205762003950565b60ff1986168983015260408901965062003950565b876000528160002060005b86811015620039485781548b82018501529085019083016200392b565b8a0183019750505b50505050505092915050565b6001600160a01b0391909116815260200190565b6001600160a01b0392831681529116602082015260400190565b6001600160a01b03848116825283166020820152606060408201819052600090620039b89083018462003863565b95945050505050565b600061010060018060a01b038b16835289602084015288151560408401528760608401528660808401528060a0840152620039ff8184018762003863565b905082810360c084015262003a158186620038b3565b905082810360e084015262003a2b8185620038b3565b9b9a5050505050505050505050565b60018060a01b0384168152826020820152606060408201526000620039b8606083018462003863565b6020808252825182820181905260009190848201906040850190845b8181101562003aa65783516001600160a01b03168352928401929184019160010162003a7f565b50909695505050505050565b6000602080830181845280855180835260408601915060408160051b870101925083870160005b8281101562003b0b57603f1988860301845262003af885835162003863565b9450928501929085019060010162003ad9565b5092979650505050505050565b60208152600062001cb2602083018462003863565b60208152600062001cb26020830184620038b3565b60208152816020820152818360408301376000818301604090810191909152601f909201601f19160101919050565b60408152600062003b86604083018562003863565b8281036020840152620039b8818562003863565b6020808252602e908201527f496e697469616c697a61626c653a20636f6e747261637420697320616c72656160408201526d191e481a5b9a5d1a585b1a5e995960921b606082015260800190565b9283526020830191909152604082015260600190565b6000808335601e1984360301811262003c1657600080fd5b8301803591506001600160401b0382111562003c3157600080fd5b6020019150600581901b360382131562003c4a57600080fd5b9250929050565b6000808335601e1984360301811262003c6957600080fd5b8301803591506001600160401b0382111562003c8457600080fd5b60200191503681900382131562003c4a57600080fd5b604051601f8201601f191681016001600160401b038111828210171562003cc55762003cc562003da9565b604052919050565b60006001600160401b0382111562003ce95762003ce962003da9565b5060051b60200190565b6000821982111562003d095762003d0962003d7d565b500190565b60008282101562003d235762003d2362003d7d565b500390565b600181811c9082168062003d3d57607f821691505b60208210811415620007d657634e487b7160e01b600052602260045260246000fd5b600060001982141562003d765762003d7662003d7d565b5060010190565b634e487b7160e01b600052601160045260246000fd5b634e487b7160e01b600052603260045260246000fd5b634e487b7160e01b600052604160045260246000fd5b6001600160a01b0381168114620006ff57600080fd5b8015158114620006ff57600080fdfe608060405234801561001057600080fd5b5061001a3361001f565b61006f565b600080546001600160a01b038381166001600160a01b0319831681178455604051919092169283917f8be0079c531659141344cd1fd0a4f28419497f9722a3daafe3b4186f6b6457e09190a35050565b61073f8061007e6000396000f3fe60806040526004361061006b5760003560e01c8063204e1c7a14610070578063715018a6146100a65780637eff275e146100bd5780638da5cb5b146100dd5780639623609d146100f257806399a88ec414610105578063f2fde38b14610125578063f3b7dead14610145575b600080fd5b34801561007c57600080fd5b5061009061008b3660046104e1565b610165565b60405161009d9190610630565b60405180910390f35b3480156100b257600080fd5b506100bb6101f6565b005b3480156100c957600080fd5b506100bb6100d8366004610522565b61023a565b3480156100e957600080fd5b506100906102cb565b6100bb61010036600461055b565b6102da565b34801561011157600080fd5b506100bb610120366004610522565b610370565b34801561013157600080fd5b506100bb6101403660046104e1565b6103cb565b34801561015157600080fd5b506100906101603660046104e1565b61046b565b6000806000836001600160a01b031660405161018b90635c60da1b60e01b815260040190565b600060405180830381855afa9150503d80600081146101c6576040519150601f19603f3d011682016040523d82523d6000602084013e6101cb565b606091505b5091509150816101da57600080fd5b808060200190518101906101ee9190610505565b949350505050565b336101ff6102cb565b6001600160a01b03161461022e5760405162461bcd60e51b8152600401610225906106a9565b60405180910390fd5b6102386000610491565b565b336102436102cb565b6001600160a01b0316146102695760405162461bcd60e51b8152600401610225906106a9565b6040516308f2839760e41b81526001600160a01b03831690638f28397090610295908490600401610630565b600060405180830381600087803b1580156102af57600080fd5b505af11580156102c3573d6000803e3d6000fd5b505050505050565b6000546001600160a01b031690565b336102e36102cb565b6001600160a01b0316146103095760405162461bcd60e51b8152600401610225906106a9565b60405163278f794360e11b81526001600160a01b03841690634f1ef2869034906103399086908690600401610644565b6000604051808303818588803b15801561035257600080fd5b505af1158015610366573d6000803e3d6000fd5b5050505050505050565b336103796102cb565b6001600160a01b03161461039f5760405162461bcd60e51b8152600401610225906106a9565b604051631b2ce7f360e11b81526001600160a01b03831690633659cfe690610295908490600401610630565b336103d46102cb565b6001600160a01b0316146103fa5760405162461bcd60e51b8152600401610225906106a9565b6001600160a01b03811661045f5760405162461bcd60e51b815260206004820152602660248201527f4f776e61626c653a206e6577206f776e657220697320746865207a65726f206160448201526564647265737360d01b6064820152608401610225565b61046881610491565b50565b6000806000836001600160a01b031660405161018b906303e1469160e61b815260040190565b600080546001600160a01b038381166001600160a01b0319831681178455604051919092169283917f8be0079c531659141344cd1fd0a4f28419497f9722a3daafe3b4186f6b6457e09190a35050565b6000602082840312156104f357600080fd5b81356104fe816106f4565b9392505050565b60006020828403121561051757600080fd5b81516104fe816106f4565b6000806040838503121561053557600080fd5b8235610540816106f4565b91506020830135610550816106f4565b809150509250929050565b60008060006060848603121561057057600080fd5b833561057b816106f4565b9250602084013561058b816106f4565b915060408401356001600160401b03808211156105a757600080fd5b818601915086601f8301126105bb57600080fd5b8135818111156105cd576105cd6106de565b604051601f8201601f19908116603f011681019083821181831017156105f5576105f56106de565b8160405282815289602084870101111561060e57600080fd5b8260208601602083013760006020848301015280955050505050509250925092565b6001600160a01b0391909116815260200190565b60018060a01b038316815260006020604081840152835180604085015260005b8181101561068057858101830151858201606001528201610664565b81811115610692576000606083870101525b50601f01601f191692909201606001949350505050565b6020808252818101527f4f776e61626c653a2063616c6c6572206973206e6f7420746865206f776e6572604082015260600190565b634e487b7160e01b600052604160045260246000fd5b6001600160a01b038116811461046857600080fdfea26469706673582212207240b38990a52bc008f8ef6148c6f36363b8fbb55bee70cee697cb8e4d4c00ce64736f6c63430008070033608060405260405162000f3038038062000f308339810160408190526200002691620004c2565b82816200005560017f360894a13ba1a3210667c828492db98dca3e2076cc3735a920a3ca505d382bbd620005f5565b60008051602062000ee9833981519152146200007557620000756200064a565b6200008382826000620000e7565b50620000b3905060017fb53127684a568b3173ae13b9f8a6016e243e63b6e8ee1178d6a717850b5d6104620005f5565b60008051602062000ec983398151915214620000d357620000d36200064a565b620000de8262000124565b50505062000676565b620000f2836200017f565b600082511180620001005750805b156200011f576200011d8383620001c160201b620002601760201c565b505b505050565b7f7e644d79422f17c01e4894b5f4f588d331ebfa28653d42ae832dc59e38c9798f6200014f620001f0565b604080516001600160a01b03928316815291841660208301520160405180910390a16200017c8162000229565b50565b6200018a81620002de565b6040516001600160a01b038216907fbc7cd75a20ee27fd9adebab32041f755214dbc6bffa90cc0225b39da2e5c2d3b90600090a250565b6060620001e9838360405180606001604052806027815260200162000f096027913962000381565b9392505050565b60006200021a60008051602062000ec983398151915260001b6200045e60201b620002081760201c565b546001600160a01b0316919050565b6001600160a01b038116620002945760405162461bcd60e51b815260206004820152602660248201527f455243313936373a206e65772061646d696e20697320746865207a65726f206160448201526564647265737360d01b60648201526084015b60405180910390fd5b80620002bd60008051602062000ec983398151915260001b6200045e60201b620002081760201c565b80546001600160a01b0319166001600160a01b039290921691909117905550565b620002f4816200046160201b6200028c1760201c565b620003585760405162461bcd60e51b815260206004820152602d60248201527f455243313936373a206e657720696d706c656d656e746174696f6e206973206e60448201526c1bdd08184818dbdb9d1c9858dd609a1b60648201526084016200028b565b80620002bd60008051602062000ee983398151915260001b6200045e60201b620002081760201c565b6060833b620003e25760405162461bcd60e51b815260206004820152602660248201527f416464726573733a2064656c65676174652063616c6c20746f206e6f6e2d636f6044820152651b9d1c9858dd60d21b60648201526084016200028b565b600080856001600160a01b031685604051620003ff9190620005a2565b600060405180830381855af49150503d80600081146200043c576040519150601f19603f3d011682016040523d82523d6000602084013e62000441565b606091505b5090925090506200045482828662000467565b9695505050505050565b90565b3b151590565b6060831562000478575081620001e9565b825115620004895782518084602001fd5b8160405162461bcd60e51b81526004016200028b9190620005c0565b80516001600160a01b0381168114620004bd57600080fd5b919050565b600080600060608486031215620004d857600080fd5b620004e384620004a5565b9250620004f360208501620004a5565b60408501519092506001600160401b03808211156200051157600080fd5b818601915086601f8301126200052657600080fd5b8151818111156200053b576200053b62000660565b604051601f8201601f19908116603f0116810190838211818310171562000566576200056662000660565b816040528281528960208487010111156200058057600080fd5b620005938360208301602088016200061b565b80955050505050509250925092565b60008251620005b68184602087016200061b565b9190910192915050565b6020815260008251806020840152620005e18160408501602087016200061b565b601f01601f19169190910160400192915050565b6000828210156200061657634e487b7160e01b600052601160045260246000fd5b500390565b60005b83811015620006385781810151838201526020016200061e565b838111156200011d5750506000910152565b634e487b7160e01b600052600160045260246000fd5b634e487b7160e01b600052604160045260246000fd5b61084380620006866000396000f3fe60806040526004361061004e5760003560e01c80633659cfe6146100655780634f1ef286146100855780635c60da1b146100985780638f283970146100c9578063f851a440146100e95761005d565b3661005d5761005b6100fe565b005b61005b6100fe565b34801561007157600080fd5b5061005b61008036600461068e565b610118565b61005b6100933660046106a9565b61015f565b3480156100a457600080fd5b506100ad6101d0565b6040516001600160a01b03909116815260200160405180910390f35b3480156100d557600080fd5b5061005b6100e436600461068e565b61020b565b3480156100f557600080fd5b506100ad610235565b610106610292565b610116610111610331565b61033b565b565b61012061035f565b6001600160a01b0316336001600160a01b031614156101575761015481604051806020016040528060008152506000610380565b50565b6101546100fe565b61016761035f565b6001600160a01b0316336001600160a01b031614156101c8576101c38383838080601f01602080910402602001604051908101604052809392919081815260200183838082843760009201919091525060019250610380915050565b505050565b6101c36100fe565b60006101da61035f565b6001600160a01b0316336001600160a01b03161415610200576101fb610331565b905090565b6102086100fe565b90565b61021361035f565b6001600160a01b0316336001600160a01b0316141561015757610154816103ab565b600061023f61035f565b6001600160a01b0316336001600160a01b03161415610200576101fb61035f565b606061028583836040518060600160405280602781526020016107e7602791396103ff565b9392505050565b3b151590565b61029a61035f565b6001600160a01b0316336001600160a01b031614156101165760405162461bcd60e51b815260206004820152604260248201527f5472616e73706172656e745570677261646561626c6550726f78793a2061646d60448201527f696e2063616e6e6f742066616c6c6261636b20746f2070726f78792074617267606482015261195d60f21b608482015260a4015b60405180910390fd5b60006101fb6104d3565b3660008037600080366000845af43d6000803e80801561035a573d6000f35b3d6000fd5b60006000805160206107a78339815191525b546001600160a01b0316919050565b610389836104e9565b6000825111806103965750805b156101c3576103a58383610260565b50505050565b7f7e644d79422f17c01e4894b5f4f588d331ebfa28653d42ae832dc59e38c9798f6103d461035f565b604080516001600160a01b03928316815291841660208301520160405180910390a161015481610529565b6060833b61045e5760405162461bcd60e51b815260206004820152602660248201527f416464726573733a2064656c65676174652063616c6c20746f206e6f6e2d636f6044820152651b9d1c9858dd60d21b6064820152608401610328565b600080856001600160a01b031685604051610479919061072b565b600060405180830381855af49150503d80600081146104b4576040519150601f19603f3d011682016040523d82523d6000602084013e6104b9565b606091505b50915091506104c98282866105c0565b9695505050505050565b60006000805160206107c7833981519152610371565b6104f2816105f9565b6040516001600160a01b038216907fbc7cd75a20ee27fd9adebab32041f755214dbc6bffa90cc0225b39da2e5c2d3b90600090a250565b6001600160a01b03811661058e5760405162461bcd60e51b815260206004820152602660248201527f455243313936373a206e65772061646d696e20697320746865207a65726f206160448201526564647265737360d01b6064820152608401610328565b806000805160206107a78339815191525b80546001600160a01b0319166001600160a01b039290921691909117905550565b606083156105cf575081610285565b8251156105df5782518084602001fd5b8160405162461bcd60e51b81526004016103289190610747565b803b61065d5760405162461bcd60e51b815260206004820152602d60248201527f455243313936373a206e657720696d706c656d656e746174696f6e206973206e60448201526c1bdd08184818dbdb9d1c9858dd609a1b6064820152608401610328565b806000805160206107c783398151915261059f565b80356001600160a01b038116811461068957600080fd5b919050565b6000602082840312156106a057600080fd5b61028582610672565b6000806000604084860312156106be57600080fd5b6106c784610672565b925060208401356001600160401b03808211156106e357600080fd5b818601915086601f8301126106f757600080fd5b81358181111561070657600080fd5b87602082850101111561071857600080fd5b6020830194508093505050509250925092565b6000825161073d81846020870161077a565b9190910192915050565b602081526000825180602084015261076681604085016020870161077a565b601f01601f19169190910160400192915050565b60005b8381101561079557818101518382015260200161077d565b838111156103a5575050600091015256feb53127684a568b3173ae13b9f8a6016e243e63b6e8ee1178d6a717850b5d6103360894a13ba1a3210667c828492db98dca3e2076cc3735a920a3ca505d382bbc416464726573733a206c6f772d6c6576656c2064656c65676174652063616c6c206661696c6564a2646970667358221220bf234746908c6f46655f3e5bb4f0abadaeb249c68beba1c928f2af74deb56e2264736f6c63430008070033b53127684a568b3173ae13b9f8a6016e243e63b6e8ee1178d6a717850b5d6103360894a13ba1a3210667c828492db98dca3e2076cc3735a920a3ca505d382bbc416464726573733a206c6f772d6c6576656c2064656c65676174652063616c6c206661696c6564608060405234801561001057600080fd5b5060405161052338038061052383398101604081905261002f91610148565b61003833610047565b61004181610097565b50610178565b600080546001600160a01b038381166001600160a01b0319831681178455604051919092169283917f8be0079c531659141344cd1fd0a4f28419497f9722a3daafe3b4186f6b6457e09190a35050565b6100aa8161014260201b61021f1760201c565b6101205760405162461bcd60e51b815260206004820152603360248201527f5570677261646561626c65426561636f6e3a20696d706c656d656e746174696f60448201527f6e206973206e6f74206120636f6e747261637400000000000000000000000000606482015260840160405180910390fd5b600180546001600160a01b0319166001600160a01b0392909216919091179055565b3b151590565b60006020828403121561015a57600080fd5b81516001600160a01b038116811461017157600080fd5b9392505050565b61039c806101876000396000f3fe608060405234801561001057600080fd5b50600436106100575760003560e01c80633659cfe61461005c5780635c60da1b14610071578063715018a61461009a5780638da5cb5b146100a2578063f2fde38b146100aa575b600080fd5b61006f61006a366004610301565b6100bd565b005b6001546001600160a01b03165b6040516001600160a01b03909116815260200160405180910390f35b61006f610135565b61007e610170565b61006f6100b8366004610301565b61017f565b336100c6610170565b6001600160a01b0316146100f55760405162461bcd60e51b81526004016100ec90610331565b60405180910390fd5b6100fe81610225565b6040516001600160a01b038216907fbc7cd75a20ee27fd9adebab32041f755214dbc6bffa90cc0225b39da2e5c2d3b90600090a250565b3361013e610170565b6001600160a01b0316146101645760405162461bcd60e51b81526004016100ec90610331565b61016e60006102b1565b565b6000546001600160a01b031690565b33610188610170565b6001600160a01b0316146101ae5760405162461bcd60e51b81526004016100ec90610331565b6001600160a01b0381166102135760405162461bcd60e51b815260206004820152602660248201527f4f776e61626c653a206e6577206f776e657220697320746865207a65726f206160448201526564647265737360d01b60648201526084016100ec565b61021c816102b1565b50565b3b151590565b803b61028f5760405162461bcd60e51b815260206004820152603360248201527f5570677261646561626c65426561636f6e3a20696d706c656d656e746174696f6044820152721b881a5cc81b9bdd08184818dbdb9d1c9858dd606a1b60648201526084016100ec565b600180546001600160a01b0319166001600160a01b0392909216919091179055565b600080546001600160a01b038381166001600160a01b0319831681178455604051919092169283917f8be0079c531659141344cd1fd0a4f28419497f9722a3daafe3b4186f6b6457e09190a35050565b60006020828403121561031357600080fd5b81356001600160a01b038116811461032a57600080fd5b9392505050565b6020808252818101527f4f776e61626c653a2063616c6c6572206973206e6f7420746865206f776e657260408201526060019056fea2646970667358221220b1e86d9e5a9827481ff081a46fc0ff448af58190927b3eac96f691d6bcdce0a964736f6c6343000807003328fbcc6e7781af00516c046711977989e1ca1bf627baa89f112b193653efb1a820baf84965293c5077f4dd07839fa02177fcc842a69a52206581f24fb4e092ffa264697066735822122074b596143ac4858c6df35d77cfb9ec5cb7684164508e7de15f76fb258f01ba7c64736f6c63430008070033",
  "immutableReferences": {},
  "source": "// SPDX-License-Identifier: GPL-3.0\r\n\r\npragma solidity 0.8.7;\r\n\r\n/**\r\n * @title Storage\r\n * @dev Store & retrieve value in a variable\r\n\r\nTransparent Proxies:\r\n    - 0 : Public Pool\r\n    - 1 : Treasury\r\n    - 2 : Certis Token\r\n    - 3 : Private Pool Factory\r\n    - 4 : Provider Factory\r\n    - 5 : Price Converter\r\n    - 6 : Proposition Settings\r\n    - 7 : ENS\r\n\r\nBeacons:\r\n    - 0 : Private Pool\r\n    - 1 : Provider\r\n\r\n NewProposals :\r\n    - Amount of New Transaparent proxies = m\r\n    - Amount of New Beacons = q\r\n    - New Address Transaparent proxy 1\r\n    - ...\r\n    - New Address Transaparent proxy n\r\n    - Address New Transaparent proxy 1\r\n    - ...\r\n    - Address New Transaparent proxy m\r\n    - New Address Beacon proxy 1\r\n    - ...\r\n    - New Address Beacon proxy p\r\n    - Address New Beacon proxy 1\r\n    - ...\r\n    - Address New Beacon proxy q\r\n    - Data Transaparent proxy 1\r\n    - ..\r\n    - Data Transaparent proxy n\r\n    - Data New Transaparent proxy 1\r\n    - ..\r\n    - Data New Transaparent proxy m\r\n */\r\n\r\nimport \"../Interfaces/IManager.sol\";\r\nimport \"../Interfaces/IFactory.sol\";\r\nimport \"../Base/StdPropositionBaseContract.sol\";\r\nimport \"../Libraries/AddressLibrary.sol\";\r\nimport \"../Libraries/Library.sol\";\r\nimport \"../Libraries/UintLibrary.sol\";\r\nimport \"@openzeppelin/contracts-upgradeable/proxy/utils/Initializable.sol\";\r\nimport \"@openzeppelin/contracts/proxy/beacon/UpgradeableBeacon.sol\";\r\nimport \"@openzeppelin/contracts/proxy/transparent/TransparentUpgradeableProxy.sol\";\r\nimport \"@openzeppelin/contracts/proxy/transparent/ProxyAdmin.sol\";\r\n\r\n\r\ncontract CertificatesPoolManager is IManager, StdPropositionBaseContract{\r\n    using AddressLibrary for *;\r\n    using Library for *;\r\n    using UintLibrary for *;\r\n\r\n    // EVENTS /////////////////////////////////////////\r\n    event _NewProxy(address NewContractAddress, uint ProxyId, string ProxyType);\r\n    event _ContractUpgrade(address NewContractAddress, uint ProxyId, string ProxyType);\r\n\r\n    // DATA /////////////////////////////////////////\r\n    // Admin Smart Contract\r\n    address private _AdminManager;\r\n\r\n    // Admin Proxy to manage all the TransparentUpgradeableProxies\r\n    ProxyAdmin private _Admin;\r\n\r\n    // Transparent Proxies\r\n    TransparentUpgradeableProxy[] private _TransparentProxies;\r\n\r\n    // Beacons\r\n    UpgradeableBeacon[] private _Beacons;\r\n\r\n    // Proxy Types\r\n    string constant _TransparentType = \"Transparent\";\r\n    string constant _BeaconType = \"Beacon\";\r\n    uint constant _NewPropositionsRedimesionFields = 2; // The first \"NewPropositionsRedimesionFields\" elements of every new proposition indicate the number of new transaprent/beacon/... proxies to add to the system\r\n\r\n    // init\r\n    bool private _init;\r\n\r\n    // MODIFIERS /////////////////////////////////////////\r\n    modifier isNotInitialized(){\r\n        require(false == _init, \"EC26-\");\r\n        _;\r\n    }\r\n\r\n    modifier isFromManagerAdmin(address addr){\r\n        Library.ItIsSomeone(addr, _AdminManager);\r\n        _;\r\n    }\r\n\r\n    // INITIALIZATION /////////////////////////////////////////\r\n    function CertificatesPoolManager_init(address chairPerson, string memory contractName, string memory contractVersion) public initializer\r\n    {\r\n        super.StdPropositionBaseContract_init(chairPerson, address(this), contractName, contractVersion);\r\n        _Admin = new ProxyAdmin();\r\n        _AdminManager = msg.sender;\r\n    }\r\n\r\n    function InitializeContracts(Library.ProposedContractsStruct calldata initialContracts) \r\n        isFromChairPerson(msg.sender)\r\n        isNotInitialized()\r\n    external override\r\n    {\r\n        initProxies(initialContracts);\r\n        _init = true;\r\n    }\r\n\r\n    // FUNCTIONALITY /////////////////////////////////////////\r\n    // governance : contracts assignment and management\r\n    function changeManagerAdmin(address newManagerAdmin) external override\r\n        isFromManagerAdmin(msg.sender)\r\n    {\r\n        _AdminManager = newManagerAdmin;\r\n    }\r\n\r\n    function initProxies(Library.ProposedContractsStruct calldata initialContracts) private\r\n    {\r\n        for(uint i=0; i < initialContracts.TransparentAddresses.length; i++){\r\n            addTransaprentProxy(initialContracts.TransparentAddresses[i], initialContracts.TransparentData[i]);\r\n        }\r\n        for(uint i=0; i < initialContracts.BeaconAddresses.length; i++){\r\n            addBeacon(initialContracts.BeaconAddresses[i]);\r\n        }\r\n        IFactory(address(_TransparentProxies[3])).updateContractName(initialContracts.PrivatePoolContractName);\r\n        IFactory(address(_TransparentProxies[3])).updateContractVersion(initialContracts.PrivatePoolContractVersion);\r\n    }\r\n\r\n    function UpdateAll() internal override\r\n    {\r\n\r\n        uint256 pointer = _NewPropositionsRedimesionFields;\r\n        uint256 NewTransparentProxies = UintLibrary.Bytes32ToUint(Library.BytestoBytes32(_ProposedNewValues[0])[0]); // m\r\n        uint256 NewBeaconProxies = UintLibrary.Bytes32ToUint(Library.BytestoBytes32(_ProposedNewValues[1])[0]); // q\r\n        uint256 TransaprentProxyDataSkip = _TransparentProxies.length + NewTransparentProxies + _Beacons.length + NewBeaconProxies;\r\n\r\n        // Transaprent Proxies\r\n        for(uint i=0; i < _TransparentProxies.length; i++){\r\n            upgradeTransparentProxy(_TransparentProxies[i], \r\n                i, \r\n                _ProposedNewValues[pointer + i], \r\n                _ProposedNewValues[pointer + TransaprentProxyDataSkip + i]);\r\n        }\r\n\r\n        pointer = pointer + _TransparentProxies.length;\r\n\r\n        if(NewTransparentProxies > 0){\r\n            for(uint i=0; i < NewTransparentProxies; i++){\r\n                addTransaprentProxy(\r\n                AddressLibrary.Bytes32ToAddress(Library.BytestoBytes32(_ProposedNewValues[pointer + i])[0]), \r\n                _ProposedNewValues[pointer + TransaprentProxyDataSkip + i]);\r\n            }\r\n\r\n            pointer = pointer + NewTransparentProxies;\r\n        }\r\n        \r\n        // Beacons\r\n        for(uint i=0; i < _Beacons.length; i++){\r\n            upgradeBeacon(_Beacons[i], \r\n                i, \r\n                _ProposedNewValues[pointer + i]);\r\n        }\r\n\r\n        pointer = pointer + _Beacons.length;\r\n\r\n        if(NewBeaconProxies > 0){\r\n            for(uint i=0; i < NewBeaconProxies; i++){\r\n                addBeacon(AddressLibrary.Bytes32ToAddress(Library.BytestoBytes32(_ProposedNewValues[pointer + i])[0]));\r\n            }\r\n\r\n            pointer = pointer + NewBeaconProxies;\r\n        }\r\n\r\n        pointer = pointer + _TransparentProxies.length + NewTransparentProxies;\r\n        \r\n\r\n        if(0 < _ProposedNewValues[pointer].length)\r\n            IFactory(address(_TransparentProxies[3])).updateContractName(string(_ProposedNewValues[pointer]));\r\n\r\n        if(0 < _ProposedNewValues[pointer + 1].length)\r\n            IFactory(address(_TransparentProxies[3])).updateContractVersion(string(_ProposedNewValues[pointer + 1]));\r\n\r\n    }\r\n\r\n    function addTransaprentProxy(address implAddress, bytes memory data) private\r\n    {\r\n        if(address(0) != implAddress){\r\n            _TransparentProxies.push(new TransparentUpgradeableProxy(implAddress, address(_Admin), data));\r\n            emit _NewProxy(implAddress, _TransparentProxies.length, _TransparentType);\r\n        }\r\n    }\r\n\r\n    function addBeacon(address implAddress) private\r\n    {\r\n        if(address(0) != implAddress){\r\n            _Beacons.push(new UpgradeableBeacon(implAddress));\r\n            emit _NewProxy(implAddress, _Beacons.length, _BeaconType);\r\n        }\r\n    }\r\n\r\n    function upgradeTransparentProxy(TransparentUpgradeableProxy proxy, uint ProxyId, bytes memory NewImpl, bytes memory Data) private\r\n    {\r\n        address NewImplAddress = AddressLibrary.Bytes32ToAddress(Library.BytestoBytes32(NewImpl)[0]);\r\n        if(address(0) != NewImplAddress){\r\n            if(0 < Data.length)_Admin.upgradeAndCall(proxy, NewImplAddress, Data);\r\n            else _Admin.upgrade(proxy, NewImplAddress);\r\n            emit _ContractUpgrade(NewImplAddress, ProxyId, _TransparentType);\r\n        }\r\n    }\r\n\r\n    function upgradeBeacon(UpgradeableBeacon beacon, uint BeaconId, bytes memory NewImpl) private\r\n    {\r\n        address NewImplAddress = AddressLibrary.Bytes32ToAddress(Library.BytestoBytes32(NewImpl)[0]);\r\n        if(address(0) != NewImplAddress){\r\n            beacon.upgradeTo(NewImplAddress);\r\n            emit _ContractUpgrade(NewImplAddress, BeaconId, _BeaconType);\r\n        }\r\n\r\n    }\r\n\r\n    // configuration Proxies\r\n    function retrieveTransparentProxies() external override view returns (address[] memory) \r\n    {\r\n        address[] memory proxies = new address[](_TransparentProxies.length);\r\n        for(uint i=0; i < proxies.length; i++){\r\n            proxies[i] = address(_TransparentProxies[i]);\r\n        }\r\n        return proxies;\r\n    }\r\n\r\n    function retrieveBeacons() external override view returns (address[] memory) \r\n    {\r\n        address[] memory proxies = new address[](_Beacons.length);\r\n        for(uint i=0; i < proxies.length; i++){\r\n            proxies[i] = address(_Beacons[i]);\r\n        }\r\n        return proxies;\r\n    }\r\n\r\n    // configuration implementations\r\n    function retrieveTransparentProxiesImpl() external override view returns (address[] memory) \r\n    {\r\n        address[] memory implementations = new address[](_TransparentProxies.length);\r\n        for(uint i=0; i < implementations.length; i++){\r\n            implementations[i] = internalRetrieveTransparentProxyImpl(_TransparentProxies[i]);\r\n        }\r\n        return implementations;\r\n    }\r\n\r\n    function retrieveBeaconsImpl() external override view returns (address[] memory) \r\n    {\r\n        address[] memory implementations = new address[](_Beacons.length);\r\n        for(uint i=0; i < implementations.length; i++){\r\n            implementations[i] = internalRetrieveBeaconImpl(_Beacons[i]);\r\n        }\r\n        return implementations;\r\n    }\r\n\r\n    function retrieveManagerAdmin() external override view returns (address)\r\n    {\r\n        return _AdminManager;\r\n    }\r\n\r\n    function isInitialized() external override view returns(bool){\r\n        return _init;\r\n    }\r\n\r\n    // internal\r\n    function internalRetrieveTransparentProxyImpl(TransparentUpgradeableProxy proxy) internal view returns (address){\r\n        return _Admin.getProxyImplementation(proxy);\r\n    }\r\n\r\n    function internalRetrieveBeaconImpl(UpgradeableBeacon beacon) internal view returns (address){\r\n        return beacon.implementation();\r\n    }\r\n  \r\n}",
  "sourcePath": "C:\\Users\\d-aam\\GitHub\\Certificates\\contracts\\DeployedContracts\\CertificatesPoolManager.sol",
  "compiler": {
    "name": "solc",
    "version": "0.8.7+commit.e28d00a7.Emscripten.clang"
  },
  "schemaVersion": "3.4.3",
  "updatedAt": "2022-01-14T12:48:55.890Z",
  "networkType": "ethereum",
  "devdoc": {
    "kind": "dev",
    "methods": {},
    "version": 1
  },
  "userdoc": {
    "kind": "user",
    "methods": {},
    "version": 1
  }
}