{
  "contractName": "CertificatesPoolManager",
  "abi": [
    {
      "inputs": [
        {
          "internalType": "address[]",
          "name": "owners",
          "type": "address[]"
        },
        {
          "internalType": "uint256",
          "name": "minOwners",
          "type": "uint256"
        },
        {
          "internalType": "uint256",
          "name": "PublicPriceWei",
          "type": "uint256"
        },
        {
          "internalType": "uint256",
          "name": "PrivatePriceWei",
          "type": "uint256"
        }
      ],
      "stateMutability": "payable",
      "type": "constructor",
      "payable": true
    },
    {
      "anonymous": false,
      "inputs": [
        {
          "indexed": false,
          "internalType": "uint256",
          "name": "",
          "type": "uint256"
        },
        {
          "indexed": false,
          "internalType": "address",
          "name": "",
          "type": "address"
        },
        {
          "indexed": false,
          "internalType": "contract MultiSigCertificatesPool",
          "name": "",
          "type": "address"
        }
      ],
      "name": "_NewCertificatesPool",
      "type": "event"
    },
    {
      "anonymous": false,
      "inputs": [
        {
          "indexed": false,
          "internalType": "address",
          "name": "",
          "type": "address"
        }
      ],
      "name": "_SendProposalId",
      "type": "event"
    },
    {
      "inputs": [
        {
          "internalType": "address[]",
          "name": "owners",
          "type": "address[]"
        },
        {
          "internalType": "uint256",
          "name": "minOwners",
          "type": "uint256"
        }
      ],
      "name": "createPrivateCertificatesPool",
      "outputs": [],
      "stateMutability": "payable",
      "type": "function",
      "payable": true
    },
    {
      "inputs": [
        {
          "internalType": "uint256",
          "name": "certificatePoolId",
          "type": "uint256"
        }
      ],
      "name": "retrievePrivateCertificatesPool",
      "outputs": [
        {
          "internalType": "address",
          "name": "",
          "type": "address"
        },
        {
          "internalType": "contract MultiSigCertificatesPool",
          "name": "",
          "type": "address"
        }
      ],
      "stateMutability": "view",
      "type": "function",
      "constant": true
    },
    {
      "inputs": [],
      "name": "retrieveTotalPrivateCertificatesPool",
      "outputs": [
        {
          "internalType": "uint256",
          "name": "",
          "type": "uint256"
        }
      ],
      "stateMutability": "view",
      "type": "function",
      "constant": true
    },
    {
      "inputs": [
        {
          "internalType": "address",
          "name": "provider",
          "type": "address"
        },
        {
          "internalType": "string",
          "name": "providerInfo",
          "type": "string"
        }
      ],
      "name": "sendProposal",
      "outputs": [],
      "stateMutability": "payable",
      "type": "function",
      "payable": true
    },
    {
      "inputs": [],
      "name": "retrieveConfiguration",
      "outputs": [
        {
          "internalType": "contract MultiSigCertificatesPool",
          "name": "",
          "type": "address"
        },
        {
          "internalType": "address",
          "name": "",
          "type": "address"
        },
        {
          "internalType": "uint256",
          "name": "",
          "type": "uint256"
        }
      ],
      "stateMutability": "view",
      "type": "function",
      "constant": true
    }
  ],
  "bytecode": "0x60806040526040516163393803806163398339818101604052608081101561002657600080fd5b810190808051604051939291908464010000000082111561004657600080fd5b90830190602082018581111561005b57600080fd5b825186602082028301116401000000008211171561007857600080fd5b82525081516020918201928201910280838360005b838110156100a557818101518382015260200161008d565b50505050919091016040818152602084015190840151606090940151600480546001600160a01b031916331790556002859055600381905590955092935085915084906100f190610183565b60208082018390526040808352845190830152835182916060830191868201910280838360005b83811015610130578181015183820152602001610118565b505050509050019350505050604051809103906000f080158015610158573d6000803e3d6000fd5b50600180546001600160a01b0319166001600160a01b03929092169190911790555061019092505050565b612ed28061346783390190565b6132c88061019f6000396000f3fe608060405260043610620000505760003560e01c806360f029c91462000055578063858e7ce6146200007f578063a4a78896146200013d578063d185a526146200017f578063f5807c0514620001dc575b600080fd5b3480156200006257600080fd5b506200006d62000287565b60408051918252519081900360200190f35b6200013b600480360360408110156200009757600080fd5b6001600160a01b038235169190810190604081016020820135640100000000811115620000c357600080fd5b820183602082011115620000d657600080fd5b80359060200191846001830284011164010000000083111715620000f957600080fd5b91908080601f0160208091040260200160405190810160405280939291908181526020018383808284376000920191909152509295506200028d945050505050565b005b3480156200014a57600080fd5b5062000155620003e2565b604080516001600160a01b0394851681529290931660208301528183015290519081900360600190f35b3480156200018c57600080fd5b50620001ad60048036036020811015620001a557600080fd5b5035620003fb565b60405180836001600160a01b03168152602001826001600160a01b031681526020019250505060405180910390f35b6200013b60048036036040811015620001f457600080fd5b8101906020810181356401000000008111156200021057600080fd5b8201836020820111156200022357600080fd5b803590602001918460208302840111640100000000831117156200024657600080fd5b919080806020026020016040519081016040528093929190818152602001838360200280828437600092019190915250929550509135925062000529915050565b60005490565b60025480341015620002cc576040805162461bcd60e51b815260206004820152600360248201526222a19960e91b604482015290519081900360640190fd5b6001546040805162fc000560e81b81526001600160a01b038681166004830190815260248301938452865160448401528651919094169363fc0005009388938893606490910190602085019080838360005b83811015620003385781810151838201526020016200031e565b50505050905090810190601f168015620003665780820380516001836020036101000a031916815260200191505b509350505050600060405180830381600087803b1580156200038757600080fd5b505af11580156200039c573d6000803e3d6000fd5b5050604080516001600160a01b038716815290517fbaf065d025fe427c7c36f893bdec1c49e6c164c4a6531f4216f64e6e876a9a4f9350908190036020019150a1505050565b6001546004546001600160a01b03918216911647909192565b6000808260008054905073__Library_______________________________632477a0ea83836040518363ffffffff1660e01b8152600401808381526020018281526020019250505060206040518083038186803b1580156200045d57600080fd5b505af415801562000472573d6000803e3d6000fd5b505050506040513d60208110156200048957600080fd5b50511515600114620004c8576040805162461bcd60e51b815260206004820152600360248201526245433160e81b604482015290519081900360640190fd5b60008581548110620004d657fe5b6000918252602082206002909102015481546001600160a01b039091169190879081106200050057fe5b60009182526020909120600160029092020101549094506001600160a01b031692505050915091565b6003548034101562000568576040805162461bcd60e51b815260206004820152600360248201526222a19960e91b604482015290519081900360640190fd5b600083836040516200057a90620006d5565b60208082018390526040808352845190830152835182916060830191868201910280838360005b83811015620005bb578181015183820152602001620005a1565b505050509050019350505050604051809103906000f080158015620005e4573d6000803e3d6000fd5b506040805180820182523381526001600160a01b03808416602080840191825260008054600181018255818052855160029091027f290decd9548b62a8d60345a988386fc84ba6bc95484008f6362f93160ef3e563810180549287166001600160a01b0319938416811790915594517f290decd9548b62a8d60345a988386fc84ba6bc95484008f6362f93160ef3e5649091018054919096169116811790945554855160001991909101815290810191909152808401919091529151929350917f9bfff6b81778f7b8086272d62a71be896cfc1876bb5f2e4e1fe28bc4c24159689181900360600190a15050505050565b612baf80620006e48339019056fe600560c09081526427bbb732b960d91b60e0526080908152610140604052600861010090815267283937bb34b232b960c11b6101205260a0526200004890600490600262000333565b5060405162002baf38038062002baf8339810160408190526200006b91620004c8565b8181818160026004805480602002602001604051908101604052809291908181526020016000905b82821015620001445760008481526020908190208301805460408051601f60026000196101006001871615020190941693909304928301859004850281018501909152818152928301828280156200012f5780601f1062000103576101008083540402835291602001916200012f565b820191906000526020600020905b8154815290600101906020018083116200011157829003601f168201915b50505050508152602001906001019062000093565b5050505060008451841115620001775760405162461bcd60e51b81526004016200016e906200058e565b60405180910390fd5b600084116200019a5760405162461bcd60e51b81526004016200016e90620005ac565b81518314620001bd5760405162461bcd60e51b81526004016200016e90620005ca565b60008181555b8381101562000228576003805460010181556000528251600290849083908110620001ea57fe5b602090810291909101810151825460018101845560009384529282902081516200021e949190910192919091019062000397565b50600101620001c3565b50600184905560005b8551811015620003235760016003600054815481106200024d57fe5b906000526020600020906002020160000160008884815181106200026d57fe5b60200260200101516001600160a01b03166001600160a01b0316815260200190815260200160002060000160006101000a81548160ff021916908315150217905550600360005481548110620002bf57fe5b9060005260206000209060020201600101868281518110620002dd57fe5b60209081029190910181015182546001808201855560009485529290932090920180546001600160a01b0319166001600160a01b03909316929092179091550162000231565b50505050505050505050620005e8565b82805482825590600052602060002090810192821562000385579160200282015b828111156200038557825180516200037491849160209091019062000397565b509160200191906001019062000354565b506200039392915062000428565b5090565b828054600181600116156101000203166002900490600052602060002090601f016020900481019282620003cf57600085556200041a565b82601f10620003ea57805160ff19168380011785556200041a565b828001600101855582156200041a579182015b828111156200041a578251825591602001919060010190620003fd565b506200039392915062000449565b80821115620003935760006200043f828262000460565b5060010162000428565b5b808211156200039357600081556001016200044a565b50805460018160011615610100020316600290046000825580601f10620004885750620004a8565b601f016020900490600052602060002090810190620004a8919062000449565b50565b80516001600160a01b0381168114620004c357600080fd5b919050565b60008060408385031215620004db578182fd5b82516001600160401b0380821115620004f2578384fd5b818501915085601f83011262000506578384fd5b81516020828211156200051557fe5b808202604051828282010181811086821117156200052f57fe5b604052838152828101945085830182870184018b10156200054e578889fd5b8896505b848710156200057b576200056681620004ab565b86526001969096019594830194830162000552565b5097909101519698969750505050505050565b60208082526004908201526322a1989b60e11b604082015260600190565b6020808252600490820152634543313760e01b604082015260600190565b60208082526004908201526308a8662760e31b604082015260600190565b6125b780620005f86000396000f3fe608060405234801561001057600080fd5b50600436106101165760003560e01c80636e55d2d4116100a2578063a93d5ed611610071578063a93d5ed614610248578063d0a4adfe14610250578063d744d2f314610270578063eefe768114610278578063fc0005001461028057610116565b80636e55d2d4146101fc57806377bc5a1f1461020f5780638a355a5714610222578063a73db28a1461023557610116565b806337583499116100e9578063375834991461017f57806358a1ba251461019f57806365b973e5146101bf5780636b074a07146101d45780636e4f9179146101e757610116565b8063173825d91461011b5780631ab807f8146101305780632f54bf6e146101435780633542758f1461016c575b600080fd5b61012e610129366004612147565b610293565b005b61012e61013e36600461225b565b6102de565b610156610151366004612147565b6103de565b6040516101639190612346565b60405180910390f35b61012e61017a366004612161565b6103f4565b61019261018d366004612147565b610405565b6040516101639190612351565b6101b26101ad366004612209565b610412565b604051610163919061230e565b6101c7610583565b604051610163919061255e565b6101566101e2366004612147565b610589565b6101ef610596565b60405161016391906122c1565b6101c761020a366004612147565b6105a7565b61019261021d366004612147565b6105c5565b61012e610230366004612147565b6105d3565b61012e61024336600461225b565b6105e1565b6101ef610843565b61026361025e36600461225b565b610850565b6040516101639190612293565b6101c761087d565b6101c7610889565b61012e61028e366004612161565b610896565b60015460016102a36000546108a2565b03808211156102cd5760405162461bcd60e51b81526004016102c490612454565b60405180910390fd5b6102d98360005461097f565b505050565b6102e733610589565b15156001146103085760405162461bcd60e51b81526004016102c4906124cb565b816001600160a01b0380831660009081526005602090815260408083208784529091529020548391859116156103505760405162461bcd60e51b81526004016102c4906124ad565b6001600160a01b038416600090815260056020818152604080842089855280835281852080546001600160a01b031916339081179091559383526001908101805491820181558552919093200187905590517f601cb9a073dbfa468ef12878ee6c720641a49b76af7c16099e8c0a1ac3ca79b5916103cf9187906122a7565b60405180910390a15050505050565b60006103ec82600054610c8a565b90505b919050565b6104018282600054610d55565b5050565b60606103ec826001610e9f565b60608261041e856105a7565b11610438575060408051600081526020810190915261057c565b818084610444876105a7565b0310156104595783610455866105a7565b0390505b60008167ffffffffffffffff8111801561047257600080fd5b5060405190808252806020026020018201604052801561049c578160200160208202803683370190505b506001600160a01b03871660009081526005602090815260408083206001018054825181850281018501909352808352949550929390929183018282801561050357602002820191906000526020600020905b8154815260200190600101908083116104ef575b5050505050905060008060005b83518110156105735787831061052557610573565b818911156105385760018201915061056b565b83818151811061054457fe5b602002602001015185848151811061055857fe5b6020026020010181815250506001830192505b600101610510565b50929450505050505b9392505050565b60015490565b60006103ec826001610c8a565b60606105a26001610f75565b905090565b6001600160a01b031660009081526005602052604090206001015490565b60606103ec82600054610e9f565b6105de81600161097f565b50565b6105ea33610589565b151560011461060b5760405162461bcd60e51b81526004016102c4906124cb565b6001600160a01b038181166000908152600560209081526040808320868452909152902054829184911633148061064a5750336001600160a01b038316145b6106665760405162461bcd60e51b81526004016102c49061248f565b6001600160a01b0380841660008181526005602081815260408084208a8552808352818520549585529282526001909201805483518184028101840190945280845294909516949293919291908301828280156106e257602002820191906000526020600020905b8154815260200190600101908083116106ce575b5050505050905060005b81518110156107cf5781818151811061070157fe5b60200260200101518714156107c7576107908160056000896001600160a01b03166001600160a01b0316815260200190815260200160002060010180548060200260200160405190810160405280929190818152602001828054801561078657602002820191906000526020600020905b815481526020019060010190808311610772575b505050505061104a565b6001600160a01b038716600090815260056020908152604090912082516107c1936001909201929190910190611f9e565b506107cf565b6001016106ec565b506001600160a01b03851660009081526005602090815260408083208984529091529081902080546001600160a01b0319169055517fd12847594abf0621035046f61129f2a9dc5093eb516c6c517ece306362ef6f179061083390849088906122a7565b60405180910390a1505050505050565b60606105a2600054610f75565b6001600160a01b038082166000908152600560209081526040808320868452909152902054165b92915050565b60006105a260016108a2565b60006105a26000546108a2565b61040182826001610d55565b60035460405163123bd07560e11b8152600091839173__Library_______________________________90632477a0ea906108e39085908590600401612567565b60206040518083038186803b1580156108fb57600080fd5b505af415801561090f573d6000803e3d6000fd5b505050506040513d601f19601f82011682018060405250810190610933919061223b565b15156001146109545760405162461bcd60e51b81526004016102c490612506565b6109776003858154811061096457fe5b906000526020600020906002020161113d565b949350505050565b60035460405163123bd07560e11b815282919073__Library_______________________________90632477a0ea906109be9085908590600401612567565b60206040518083038186803b1580156109d657600080fd5b505af41580156109ea573d6000803e3d6000fd5b505050506040513d601f19601f82011682018060405250810190610a0e919061223b565b1515600114610a2f5760405162461bcd60e51b81526004016102c490612506565b83610a39336103de565b151560011480610a515750336001600160a01b038216145b610a6d5760405162461bcd60e51b81526004016102c490612523565b610a948560038681548110610a7e57fe5b9060005260206000209060020201600154611144565b610c3860038581548110610aa457fe5b600091825260208083206001600160a01b038a16845260029283020181526040928390208351608081018552815460ff16151581526001808301805487516101009382161593909302600019011695909504601f8101859004850282018501909652858152909491938584019391929091830182828015610b665780601f10610b3b57610100808354040283529160200191610b66565b820191906000526020600020905b815481529060010190602001808311610b4957829003601f168201915b5050505050815260200160028201805480602002602001604051908101604052809291908181526020018280548015610bc857602002820191906000526020600020905b81546001600160a01b03168152600190910190602001808311610baa575b5050505050815260200160038201805480602002602001604051908101604052809291908181526020018280548015610c2a57602002820191906000526020600020905b81546001600160a01b03168152600190910190602001808311610c0c575b505050505081525050611614565b610c83577f1f62d535f971041db7bd8760bf0f1f9f476461558744a35c0d477b5ad6893e8960028581548110610c6a57fe5b90600052602060002001866040516103cf9291906123a4565b5050505050565b60035460405163123bd07560e11b8152600091839173__Library_______________________________90632477a0ea90610ccb9085908590600401612567565b60206040518083038186803b158015610ce357600080fd5b505af4158015610cf7573d6000803e3d6000fd5b505050506040513d601f19601f82011682018060405250810190610d1b919061223b565b1515600114610d3c5760405162461bcd60e51b81526004016102c490612506565b610d4c60038581548110610aa457fe5b95945050505050565b60035460405163123bd07560e11b815282919073__Library_______________________________90632477a0ea90610d949085908590600401612567565b60206040518083038186803b158015610dac57600080fd5b505af4158015610dc0573d6000803e3d6000fd5b505050506040513d601f19601f82011682018060405250810190610de4919061223b565b1515600114610e055760405162461bcd60e51b81526004016102c490612506565b610e0e336103de565b1515600114610e2f5760405162461bcd60e51b81526004016102c4906124e9565b610e57858560038681548110610e4157fe5b9060005260206000209060020201600154611618565b610e6760038481548110610aa457fe5b151560011415610c83577f3c139d46a211844e248647688545a37c07c505c999c1232d1247c707dc0a91e260028481548110610c6a57fe5b60035460405163123bd07560e11b8152606091839173__Library_______________________________90632477a0ea90610ee09085908590600401612567565b60206040518083038186803b158015610ef857600080fd5b505af4158015610f0c573d6000803e3d6000fd5b505050506040513d601f19601f82011682018060405250810190610f30919061223b565b1515600114610f515760405162461bcd60e51b81526004016102c490612506565b610d4c8560038681548110610f6257fe5b9060005260206000209060020201611a29565b60035460405163123bd07560e11b8152606091839173__Library_______________________________90632477a0ea90610fb69085908590600401612567565b60206040518083038186803b158015610fce57600080fd5b505af4158015610fe2573d6000803e3d6000fd5b505050506040513d601f19601f82011682018060405250810190611006919061223b565b15156001146110275760405162461bcd60e51b81526004016102c490612506565b6109776003858154811061103757fe5b9060005260206000209060020201611c6c565b60608282516110598282611cd2565b151560011461107a5760405162461bcd60e51b81526004016102c490612506565b6000600185510367ffffffffffffffff8111801561109757600080fd5b506040519080825280602002602001820160405280156110c1578160200160208202803683370190505b509050846001865103815181106110d457fe5b60200260200101518587815181106110e857fe5b60200260200101818152505060005b81518110156111335785818151811061110c57fe5b602002602001015182828151811061112057fe5b60209081029190910101526001016110f7565b5095945050505050565b6001015490565b6001600160a01b038316600090815260208381526040918290208251608081018452815460ff1615158152600180830180548651600261010083861615026000190190921691909104601f81018790048702820187019097528681529195929485810193908301828280156111fa5780601f106111cf576101008083540402835291602001916111fa565b820191906000526020600020905b8154815290600101906020018083116111dd57829003601f168201915b505050505081526020016002820180548060200260200160405190810160405280929190818152602001828054801561125c57602002820191906000526020600020905b81546001600160a01b0316815260019091019060200180831161123e575b50505050508152602001600382018054806020026020016040519081016040528092919081815260200182805480156112be57602002820191906000526020600020905b81546001600160a01b031681526001909101906020018083116112a0575b5050505050815250506112d18282611cd6565b6001600160a01b038516600090815260208581526040918290208251608081018452815460ff1615158152600180830180548651600261010083861615026000190190921691909104601f81018790048702820187019097528681529195929485810193908301828280156113875780601f1061135c57610100808354040283529160200191611387565b820191906000526020600020905b81548152906001019060200180831161136a57829003601f168201915b50505050508152602001600282018054806020026020016040519081016040528092919081815260200182805480156113e957602002820191906000526020600020905b81546001600160a01b031681526001909101906020018083116113cb575b505050505081526020016003820180548060200260200160405190810160405280929190818152602001828054801561144b57602002820191906000526020600020905b81546001600160a01b0316815260019091019060200180831161142d575b50505050508152505061145e8282611d30565b6001600160a01b0387166000818152602088815260408220600301805460018101825590835291200180546001600160a01b0319163390811790915514806114c757506001600160a01b0387166000908152602087905260409020600301546114c79086611d96565b1561160b576115a76115a2611538898960010180548060200260200160405190810160405280929190818152602001828054801561152e57602002820191906000526020600020905b81546001600160a01b03168152600190910190602001808311611510575b5050505050611db1565b61159d8960010180548060200260200160405190810160405280929190818152602001828054801561159357602002820191906000526020600020905b81546001600160a01b03168152600190910190602001808311611575575b5050505050611e05565b61104a565b611e9c565b80516115bd916001890191602090910190611fe9565b506001600160a01b0387166000908152602087905260408120805460ff19168155906115ec600183018261203e565b6115fa600283016000612082565b611608600383016000612082565b50505b50505050505050565b5190565b6001600160a01b0384166000908152602083815260408083208151608081018352815460ff1615158152600180830180548551600261010094831615949094026000190190911692909204601f810187900487028301870190955284825291949293858401939192918301828280156116d25780601f106116a7576101008083540402835291602001916116d2565b820191906000526020600020905b8154815290600101906020018083116116b557829003601f168201915b505050505081526020016002820180548060200260200160405190810160405280929190818152602001828054801561173457602002820191906000526020600020905b81546001600160a01b03168152600190910190602001808311611716575b505050505081526020016003820180548060200260200160405190810160405280929190818152602001828054801561179657602002820191906000526020600020905b81546001600160a01b03168152600190910190602001808311611778575b5050505050815250506117a98282611cd6565b6001600160a01b0386166000908152602085815260408083208151608081018352815460ff1615158152600180830180548551600261010094831615949094026000190190911692909204601f810187900487028301870190955284825291949293858401939192918301828280156118635780601f1061183857610100808354040283529160200191611863565b820191906000526020600020905b81548152906001019060200180831161184657829003601f168201915b50505050508152602001600282018054806020026020016040519081016040528092919081815260200182805480156118c557602002820191906000526020600020905b81546001600160a01b031681526001909101906020018083116118a7575b505050505081526020016003820180548060200260200160405190810160405280929190818152602001828054801561192757602002820191906000526020600020905b81546001600160a01b03168152600190910190602001808311611909575b50505050508152505061193a8282611d30565b6001600160a01b038816600090815260208790526040902060020154611989576001600160a01b0388166000908152602087815260409091208851611987926001909201918a01906120a0565b505b6001600160a01b0388166000818152602088815260408220600201805460018101825581845291832090910180546001600160a01b03191633179055919052546119d39086611d96565b15611a1f576001600160a01b0388166000818152602088815260408220805460ff1916600190811790915589810180549182018155835291200180546001600160a01b03191690911790555b5050505050505050565b6001600160a01b038216600090815260208281526040918290208251608081018452815460ff1615158152600182810180548651601f600260001984871615610100020190931692909204918201879004870281018701909752808752606096929593949385810193929190830182828015611ae65780601f10611abb57610100808354040283529160200191611ae6565b820191906000526020600020905b815481529060010190602001808311611ac957829003601f168201915b5050505050815260200160028201805480602002602001604051908101604052809291908181526020018280548015611b4857602002820191906000526020600020905b81546001600160a01b03168152600190910190602001808311611b2a575b5050505050815260200160038201805480602002602001604051908101604052809291908181526020018280548015611baa57602002820191906000526020600020905b81546001600160a01b03168152600190910190602001808311611b8c575b505050505081525050611bbd8282611cd6565b6001600160a01b03851660009081526020858152604091829020600190810180548451600293821615610100026000190190911692909204601f810184900484028301840190945283825290929091830182828015611c5d5780601f10611c3257610100808354040283529160200191611c5d565b820191906000526020600020905b815481529060010190602001808311611c4057829003601f168201915b50505050509250505092915050565b606081600101805480602002602001604051908101604052809291908181526020018280548015611cc657602002820191906000526020600020905b81546001600160a01b03168152600190910190602001808311611ca8575b50505050509050919050565b1190565b81611d0657611ce481611614565b15611d015760405162461bcd60e51b81526004016102c490612541565b610401565b611d0f81611614565b15156001146104015760405162461bcd60e51b81526004016102c490612437565b816001811115611d3c57fe5b611d6b57611d4e338260400151611f39565b15611d015760405162461bcd60e51b81526004016102c490612472565b611d79338260600151611f39565b156104015760405162461bcd60e51b81526004016102c490612472565b600081831015611da857506000610877565b50600192915050565b6000805b8251811015611dfa57828181518110611dca57fe5b60200260200101516001600160a01b0316846001600160a01b03161415611df2579050610877565b600101611db5565b505051600101919050565b60606000825167ffffffffffffffff81118015611e2157600080fd5b50604051908082528060200260200182016040528015611e4b578160200160208202803683370190505b50905060005b8351811015611e9557611e76848281518110611e6957fe5b6020026020010151611f8f565b828281518110611e8257fe5b6020908102919091010152600101611e51565b5092915050565b60606000825167ffffffffffffffff81118015611eb857600080fd5b50604051908082528060200260200182016040528015611ee2578160200160208202803683370190505b50905060005b8351811015611e9557611f0d848281518110611f0057fe5b6020026020010151611f9b565b828281518110611f1957fe5b6001600160a01b0390921660209283029190910190910152600101611ee8565b6000805b8251811015611f8557828181518110611f5257fe5b60200260200101516001600160a01b0316846001600160a01b03161415611f7d576001915050610877565b600101611f3d565b5060009392505050565b6001600160a01b031690565b90565b828054828255906000526020600020908101928215611fd9579160200282015b82811115611fd9578251825591602001919060010190611fbe565b50611fe592915061211b565b5090565b828054828255906000526020600020908101928215611fd9579160200282015b82811115611fd957825182546001600160a01b0319166001600160a01b03909116178255602090920191600190910190612009565b50805460018160011615610100020316600290046000825580601f1061206457506105de565b601f0160209004906000526020600020908101906105de919061211b565b50805460008255906000526020600020908101906105de919061211b565b828054600181600116156101000203166002900490600052602060002090601f0160209004810192826120d65760008555611fd9565b82601f106120ef57805160ff1916838001178555611fd9565b82800160010185558215611fd95791820182811115611fd9578251825591602001919060010190611fbe565b5b80821115611fe5576000815560010161211c565b80356001600160a01b03811681146103ef57600080fd5b600060208284031215612158578081fd5b61057c82612130565b60008060408385031215612173578081fd5b61217c83612130565b915060208084013567ffffffffffffffff80821115612199578384fd5b818601915086601f8301126121ac578384fd5b8135818111156121b857fe5b604051601f8201601f19168101850183811182821017156121d557fe5b60405281815283820185018910156121eb578586fd5b81858501868301378585838301015280955050505050509250929050565b60008060006060848603121561221d578081fd5b61222684612130565b95602085013595506040909401359392505050565b60006020828403121561224c578081fd5b8151801515811461057c578182fd5b6000806040838503121561226d578182fd5b8235915061227d60208401612130565b90509250929050565b6001600160a01b03169052565b6001600160a01b0391909116815260200190565b6001600160a01b0392831681529116602082015260400190565b6020808252825182820181905260009190848201906040850190845b818110156123025783516001600160a01b0316835292840192918401916001016122dd565b50909695505050505050565b6020808252825182820181905260009190848201906040850190845b818110156123025783518352928401929184019160010161232a565b901515815260200190565b6000602080835283518082850152825b8181101561237d57858101830151858201604001528201612361565b8181111561238e5783604083870101525b50601f01601f1916929092016040019392505050565b600060408201604083528185546001808216600081146123cb57600181146123e957612422565b60028304607f16855260ff1983166060880152608087019350612422565b600283048086526123f98a612575565b875b828110156124185781548a820160600152908401906020016123fb565b8901606001955050505b505050809250505061057c6020830184612286565b60208082526003908201526245433760e81b604082015260600190565b6020808252600490820152634543313960e01b604082015260600190565b60208082526003908201526245433560e81b604082015260600190565b6020808252600490820152631150cc4d60e21b604082015260600190565b6020808252600490820152634543313560e01b604082015260600190565b60208082526004908201526322a1989960e11b604082015260600190565b60208082526003908201526245433960e81b604082015260600190565b60208082526003908201526245433160e81b604082015260600190565b6020808252600490820152630454331360e41b604082015260600190565b60208082526003908201526222a19b60e91b604082015260600190565b90815260200190565b918252602082015260400190565b6000908152602090209056fea264697066735822122098c74a0a5c36f53fe185afaeb3a1b38a81825ed6f453b3ea6aaecf329acd323664736f6c63430007060033a2646970667358221220f9760248996ecf35e9f67a53bca25250e495e1df6ec8f7c9cd42526833dede4c64736f6c63430007060033600560c09081526427bbb732b960d91b60e0526080908152610140604052600861010090815267283937bb34b232b960c11b6101205260a0526200004890600490600262000346565b5060405162002ed238038062002ed28339810160408190526200006b91620004db565b8181818160026004805480602002602001604051908101604052809291908181526020016000905b82821015620001445760008481526020908190208301805460408051601f60026000196101006001871615020190941693909304928301859004850281018501909152818152928301828280156200012f5780601f1062000103576101008083540402835291602001916200012f565b820191906000526020600020905b8154815290600101906020018083116200011157829003601f168201915b50505050508152602001906001019062000093565b5050505060008451841115620001775760405162461bcd60e51b81526004016200016e90620005a1565b60405180910390fd5b600084116200019a5760405162461bcd60e51b81526004016200016e90620005bf565b81518314620001bd5760405162461bcd60e51b81526004016200016e90620005dd565b60008181555b8381101562000228576003805460010181556000528251600290849083908110620001ea57fe5b602090810291909101810151825460018101845560009384529282902081516200021e9491909101929190910190620003aa565b50600101620001c3565b50600184905560005b8551811015620003235760016003600054815481106200024d57fe5b906000526020600020906002020160000160008884815181106200026d57fe5b60200260200101516001600160a01b03166001600160a01b0316815260200190815260200160002060000160006101000a81548160ff021916908315150217905550600360005481548110620002bf57fe5b9060005260206000209060020201600101868281518110620002dd57fe5b60209081029190910181015182546001808201855560009485529290932090920180546001600160a01b0319166001600160a01b03909316929092179091550162000231565b5050600680546001600160a01b0319163317905550620005fb9650505050505050565b82805482825590600052602060002090810192821562000398579160200282015b8281111562000398578251805162000387918491602090910190620003aa565b509160200191906001019062000367565b50620003a69291506200043b565b5090565b828054600181600116156101000203166002900490600052602060002090601f016020900481019282620003e257600085556200042d565b82601f10620003fd57805160ff19168380011785556200042d565b828001600101855582156200042d579182015b828111156200042d57825182559160200191906001019062000410565b50620003a69291506200045c565b80821115620003a657600062000452828262000473565b506001016200043b565b5b80821115620003a657600081556001016200045d565b50805460018160011615610100020316600290046000825580601f106200049b5750620004bb565b601f016020900490600052602060002090810190620004bb91906200045c565b50565b80516001600160a01b0381168114620004d657600080fd5b919050565b60008060408385031215620004ee578182fd5b82516001600160401b038082111562000505578384fd5b818501915085601f83011262000519578384fd5b81516020828211156200052857fe5b808202604051828282010181811086821117156200054257fe5b604052838152828101945085830182870184018b101562000561578889fd5b8896505b848710156200058e576200057981620004be565b86526001969096019594830194830162000565565b5097909101519698969750505050505050565b60208082526004908201526322a1989b60e11b604082015260600190565b6020808252600490820152634543313760e01b604082015260600190565b60208082526004908201526308a8662760e31b604082015260600190565b6128c7806200060b6000396000f3fe608060405234801561001057600080fd5b50600436106101215760003560e01c80636e4f9179116100ad578063a93d5ed611610071578063a93d5ed614610266578063d0a4adfe1461026e578063d744d2f31461028e578063eefe768114610296578063fc0005001461029e57610121565b80636e4f9179146102055780636e55d2d41461021a57806377bc5a1f1461022d5780638a355a5714610240578063a73db28a1461025357610121565b80633542758f116100f45780633542758f1461018a578063375834991461019d57806358a1ba25146101bd57806365b973e5146101dd5780636b074a07146101f257610121565b8063173825d9146101265780631ab807f81461013b57806327a40b4b1461014e5780632f54bf6e14610161575b600080fd5b610139610134366004612400565b6102b1565b005b610139610149366004612514565b6102fc565b61013961015c366004612400565b6103fc565b61017461016f366004612400565b6104fe565b60405161018191906125ff565b60405180910390f35b61013961019836600461241a565b610514565b6101b06101ab366004612400565b610525565b604051610181919061260a565b6101d06101cb3660046124c2565b610532565b60405161018191906125c7565b6101e56106a3565b604051610181919061286e565b610174610200366004612400565b6106a9565b61020d6106b6565b604051610181919061257a565b6101e5610228366004612400565b6106c7565b6101b061023b366004612400565b6106e5565b61013961024e366004612400565b6106f3565b610139610261366004612514565b6108cb565b61020d610b2d565b61028161027c366004612514565b610b3a565b604051610181919061254c565b6101e5610b67565b6101e5610b73565b6101396102ac36600461241a565b610b80565b60015460016102c1600054610c5c565b03808211156102eb5760405162461bcd60e51b81526004016102e29061272a565b60405180910390fd5b6102f783600054610d39565b505050565b610305336106a9565b15156001146103265760405162461bcd60e51b81526004016102e2906127be565b816001600160a01b03808316600090815260056020908152604080832087845290915290205483918591161561036e5760405162461bcd60e51b81526004016102e2906127a0565b6001600160a01b038416600090815260056020818152604080842089855280835281852080546001600160a01b031916339081179091559383526001908101805491820181558552919093200187905590517f601cb9a073dbfa468ef12878ee6c720641a49b76af7c16099e8c0a1ac3ca79b5916103ed918790612560565b60405180910390a15050505050565b6001816001600160a01b03811660009081526007602052604090205460ff16151560011461043c5760405162461bcd60e51b81526004016102e29061270d565b6102f783600360018154811061044e57fe5b600091825260208083206001600160a01b038916845260029283020181526040928390206001908101805485519281161561010002600019011693909304601f810183900483028201830190945283815292908301828280156104f25780601f106104c7576101008083540402835291602001916104f2565b820191906000526020600020905b8154815290600101906020018083116104d557829003601f168201915b50505050506001610f47565b600061050c82600054611091565b90505b919050565b6105218282600054610f47565b5050565b606061050c82600161115c565b60608261053e856106c7565b11610558575060408051600081526020810190915261069c565b818084610564876106c7565b0310156105795783610575866106c7565b0390505b60008167ffffffffffffffff8111801561059257600080fd5b506040519080825280602002602001820160405280156105bc578160200160208202803683370190505b506001600160a01b03871660009081526005602090815260408083206001018054825181850281018501909352808352949550929390929183018282801561062357602002820191906000526020600020905b81548152602001906001019080831161060f575b5050505050905060008060005b83518110156106935787831061064557610693565b818911156106585760018201915061068b565b83818151811061066457fe5b602002602001015185848151811061067857fe5b6020026020010181815250506001830192505b600101610630565b50929450505050505b9392505050565b60015490565b600061050c826001611091565b60606106c26001611232565b905090565b6001600160a01b031660009081526005602052604090206001015490565b606061050c8260005461115c565b6106fe816001610d39565b6108a3600360018154811061070f57fe5b600091825260208083206001600160a01b038616845260029283020181526040928390208351608081018552815460ff16151581526001808301805487516101009382161593909302600019011695909504601f81018590048502820185019096528581529094919385840193919290918301828280156107d15780601f106107a6576101008083540402835291602001916107d1565b820191906000526020600020905b8154815290600101906020018083116107b457829003601f168201915b505050505081526020016002820180548060200260200160405190810160405280929190818152602001828054801561083357602002820191906000526020600020905b81546001600160a01b03168152600190910190602001808311610815575b505050505081526020016003820180548060200260200160405190810160405280929190818152602001828054801561089557602002820191906000526020600020905b81546001600160a01b03168152600190910190602001808311610877575b505050505081525050611307565b6108c8576001600160a01b0381166000908152600760205260409020805460ff191690555b50565b6108d4336106a9565b15156001146108f55760405162461bcd60e51b81526004016102e2906127be565b6001600160a01b03818116600090815260056020908152604080832086845290915290205482918491163314806109345750336001600160a01b038316145b6109505760405162461bcd60e51b81526004016102e290612765565b6001600160a01b0380841660008181526005602081815260408084208a8552808352818520549585529282526001909201805483518184028101840190945280845294909516949293919291908301828280156109cc57602002820191906000526020600020905b8154815260200190600101908083116109b8575b5050505050905060005b8151811015610ab9578181815181106109eb57fe5b6020026020010151871415610ab157610a7a8160056000896001600160a01b03166001600160a01b03168152602001908152602001600020600101805480602002602001604051908101604052809291908181526020018280548015610a7057602002820191906000526020600020905b815481526020019060010190808311610a5c575b505050505061130b565b6001600160a01b03871660009081526005602090815260409091208251610aab93600190920192919091019061225b565b50610ab9565b6001016109d6565b506001600160a01b03851660009081526005602090815260408083208984529091529081902080546001600160a01b0319169055517fd12847594abf0621035046f61129f2a9dc5093eb516c6c517ece306362ef6f1790610b1d9084908890612560565b60405180910390a1505050505050565b60606106c2600054611232565b6001600160a01b038082166000908152600560209081526040808320868452909152902054165b92915050565b60006106c26001610c5c565b60006106c2600054610c5c565b6006546001600160a01b0316338114610bab5760405162461bcd60e51b81526004016102e290612816565b6000836001600160a01b03811660009081526007602052604090205460ff1615610be75760405162461bcd60e51b81526004016102e290612783565b836003600181548110610bf657fe5b600091825260208083206001600160a01b038a1684526002909202909101815260409091208251610c319360019092019291909101906122a6565b5050506001600160a01b039092166000908152600760205260409020805460ff191660011790555050565b60035460405163123bd07560e11b8152600091839173__Library_______________________________90632477a0ea90610c9d9085908590600401612877565b60206040518083038186803b158015610cb557600080fd5b505af4158015610cc9573d6000803e3d6000fd5b505050506040513d601f19601f82011682018060405250810190610ced91906124f4565b1515600114610d0e5760405162461bcd60e51b81526004016102e2906127f9565b610d3160038581548110610d1e57fe5b90600052602060002090600202016113fe565b949350505050565b60035460405163123bd07560e11b815282919073__Library_______________________________90632477a0ea90610d789085908590600401612877565b60206040518083038186803b158015610d9057600080fd5b505af4158015610da4573d6000803e3d6000fd5b505050506040513d601f19601f82011682018060405250810190610dc891906124f4565b1515600114610de95760405162461bcd60e51b81526004016102e2906127f9565b83610df3336104fe565b151560011480610e0b5750336001600160a01b038216145b610e275760405162461bcd60e51b81526004016102e290612833565b610e4e8560038681548110610e3857fe5b9060005260206000209060020201600154611405565b610ef560038581548110610e5e57fe5b600091825260208083206001600160a01b038a16845260029283020181526040928390208351608081018552815460ff16151581526001808301805487516101009382161593909302600019011695909504601f81018590048502820185019096528581529094919385840193919290918301828280156107d15780601f106107a6576101008083540402835291602001916107d1565b610f40577f1f62d535f971041db7bd8760bf0f1f9f476461558744a35c0d477b5ad6893e8960028581548110610f2757fe5b90600052602060002001866040516103ed92919061265d565b5050505050565b60035460405163123bd07560e11b815282919073__Library_______________________________90632477a0ea90610f869085908590600401612877565b60206040518083038186803b158015610f9e57600080fd5b505af4158015610fb2573d6000803e3d6000fd5b505050506040513d601f19601f82011682018060405250810190610fd691906124f4565b1515600114610ff75760405162461bcd60e51b81526004016102e2906127f9565b611000336104fe565b15156001146110215760405162461bcd60e51b81526004016102e2906127dc565b61104985856003868154811061103357fe5b90600052602060002090600202016001546118d5565b61105960038481548110610e5e57fe5b151560011415610f40577f3c139d46a211844e248647688545a37c07c505c999c1232d1247c707dc0a91e260028481548110610f2757fe5b60035460405163123bd07560e11b8152600091839173__Library_______________________________90632477a0ea906110d29085908590600401612877565b60206040518083038186803b1580156110ea57600080fd5b505af41580156110fe573d6000803e3d6000fd5b505050506040513d601f19601f8201168201806040525081019061112291906124f4565b15156001146111435760405162461bcd60e51b81526004016102e2906127f9565b61115360038581548110610e5e57fe5b95945050505050565b60035460405163123bd07560e11b8152606091839173__Library_______________________________90632477a0ea9061119d9085908590600401612877565b60206040518083038186803b1580156111b557600080fd5b505af41580156111c9573d6000803e3d6000fd5b505050506040513d601f19601f820116820180604052508101906111ed91906124f4565b151560011461120e5760405162461bcd60e51b81526004016102e2906127f9565b611153856003868154811061121f57fe5b9060005260206000209060020201611ce6565b60035460405163123bd07560e11b8152606091839173__Library_______________________________90632477a0ea906112739085908590600401612877565b60206040518083038186803b15801561128b57600080fd5b505af415801561129f573d6000803e3d6000fd5b505050506040513d601f19601f820116820180604052508101906112c391906124f4565b15156001146112e45760405162461bcd60e51b81526004016102e2906127f9565b610d31600385815481106112f457fe5b9060005260206000209060020201611f29565b5190565b606082825161131a8282611f8f565b151560011461133b5760405162461bcd60e51b81526004016102e2906127f9565b6000600185510367ffffffffffffffff8111801561135857600080fd5b50604051908082528060200260200182016040528015611382578160200160208202803683370190505b5090508460018651038151811061139557fe5b60200260200101518587815181106113a957fe5b60200260200101818152505060005b81518110156113f4578581815181106113cd57fe5b60200260200101518282815181106113e157fe5b60209081029190910101526001016113b8565b5095945050505050565b6001015490565b6001600160a01b038316600090815260208381526040918290208251608081018452815460ff1615158152600180830180548651600261010083861615026000190190921691909104601f81018790048702820187019097528681529195929485810193908301828280156114bb5780601f10611490576101008083540402835291602001916114bb565b820191906000526020600020905b81548152906001019060200180831161149e57829003601f168201915b505050505081526020016002820180548060200260200160405190810160405280929190818152602001828054801561151d57602002820191906000526020600020905b81546001600160a01b031681526001909101906020018083116114ff575b505050505081526020016003820180548060200260200160405190810160405280929190818152602001828054801561157f57602002820191906000526020600020905b81546001600160a01b03168152600190910190602001808311611561575b5050505050815250506115928282611f93565b6001600160a01b038516600090815260208581526040918290208251608081018452815460ff1615158152600180830180548651600261010083861615026000190190921691909104601f81018790048702820187019097528681529195929485810193908301828280156116485780601f1061161d57610100808354040283529160200191611648565b820191906000526020600020905b81548152906001019060200180831161162b57829003601f168201915b50505050508152602001600282018054806020026020016040519081016040528092919081815260200182805480156116aa57602002820191906000526020600020905b81546001600160a01b0316815260019091019060200180831161168c575b505050505081526020016003820180548060200260200160405190810160405280929190818152602001828054801561170c57602002820191906000526020600020905b81546001600160a01b031681526001909101906020018083116116ee575b50505050508152505061171f8282611fed565b6001600160a01b0387166000818152602088815260408220600301805460018101825590835291200180546001600160a01b03191633908117909155148061178857506001600160a01b0387166000908152602087905260409020600301546117889086612053565b156118cc576118686118636117f989896001018054806020026020016040519081016040528092919081815260200182805480156117ef57602002820191906000526020600020905b81546001600160a01b031681526001909101906020018083116117d1575b505050505061206e565b61185e8960010180548060200260200160405190810160405280929190818152602001828054801561185457602002820191906000526020600020905b81546001600160a01b03168152600190910190602001808311611836575b50505050506120c2565b61130b565b612159565b805161187e916001890191602090910190612321565b506001600160a01b0387166000908152602087905260408120805460ff19168155906118ad6001830182612376565b6118bb6002830160006123ba565b6118c96003830160006123ba565b50505b50505050505050565b6001600160a01b0384166000908152602083815260408083208151608081018352815460ff1615158152600180830180548551600261010094831615949094026000190190911692909204601f8101879004870283018701909552848252919492938584019391929183018282801561198f5780601f106119645761010080835404028352916020019161198f565b820191906000526020600020905b81548152906001019060200180831161197257829003601f168201915b50505050508152602001600282018054806020026020016040519081016040528092919081815260200182805480156119f157602002820191906000526020600020905b81546001600160a01b031681526001909101906020018083116119d3575b5050505050815260200160038201805480602002602001604051908101604052809291908181526020018280548015611a5357602002820191906000526020600020905b81546001600160a01b03168152600190910190602001808311611a35575b505050505081525050611a668282611f93565b6001600160a01b0386166000908152602085815260408083208151608081018352815460ff1615158152600180830180548551600261010094831615949094026000190190911692909204601f81018790048702830187019095528482529194929385840193919291830182828015611b205780601f10611af557610100808354040283529160200191611b20565b820191906000526020600020905b815481529060010190602001808311611b0357829003601f168201915b5050505050815260200160028201805480602002602001604051908101604052809291908181526020018280548015611b8257602002820191906000526020600020905b81546001600160a01b03168152600190910190602001808311611b64575b5050505050815260200160038201805480602002602001604051908101604052809291908181526020018280548015611be457602002820191906000526020600020905b81546001600160a01b03168152600190910190602001808311611bc6575b505050505081525050611bf78282611fed565b6001600160a01b038816600090815260208790526040902060020154611c46576001600160a01b0388166000908152602087815260409091208851611c44926001909201918a01906122a6565b505b6001600160a01b0388166000818152602088815260408220600201805460018101825581845291832090910180546001600160a01b0319163317905591905254611c909086612053565b15611cdc576001600160a01b0388166000818152602088815260408220805460ff1916600190811790915589810180549182018155835291200180546001600160a01b03191690911790555b5050505050505050565b6001600160a01b038216600090815260208281526040918290208251608081018452815460ff1615158152600182810180548651601f600260001984871615610100020190931692909204918201879004870281018701909752808752606096929593949385810193929190830182828015611da35780601f10611d7857610100808354040283529160200191611da3565b820191906000526020600020905b815481529060010190602001808311611d8657829003601f168201915b5050505050815260200160028201805480602002602001604051908101604052809291908181526020018280548015611e0557602002820191906000526020600020905b81546001600160a01b03168152600190910190602001808311611de7575b5050505050815260200160038201805480602002602001604051908101604052809291908181526020018280548015611e6757602002820191906000526020600020905b81546001600160a01b03168152600190910190602001808311611e49575b505050505081525050611e7a8282611f93565b6001600160a01b03851660009081526020858152604091829020600190810180548451600293821615610100026000190190911692909204601f810184900484028301840190945283825290929091830182828015611f1a5780601f10611eef57610100808354040283529160200191611f1a565b820191906000526020600020905b815481529060010190602001808311611efd57829003601f168201915b50505050509250505092915050565b606081600101805480602002602001604051908101604052809291908181526020018280548015611f8357602002820191906000526020600020905b81546001600160a01b03168152600190910190602001808311611f65575b50505050509050919050565b1190565b81611fc357611fa181611307565b15611fbe5760405162461bcd60e51b81526004016102e290612851565b610521565b611fcc81611307565b15156001146105215760405162461bcd60e51b81526004016102e2906126f0565b816001811115611ff957fe5b6120285761200b3382604001516121f6565b15611fbe5760405162461bcd60e51b81526004016102e290612748565b6120363382606001516121f6565b156105215760405162461bcd60e51b81526004016102e290612748565b60008183101561206557506000610b61565b50600192915050565b6000805b82518110156120b75782818151811061208757fe5b60200260200101516001600160a01b0316846001600160a01b031614156120af579050610b61565b600101612072565b505051600101919050565b60606000825167ffffffffffffffff811180156120de57600080fd5b50604051908082528060200260200182016040528015612108578160200160208202803683370190505b50905060005b83518110156121525761213384828151811061212657fe5b602002602001015161224c565b82828151811061213f57fe5b602090810291909101015260010161210e565b5092915050565b60606000825167ffffffffffffffff8111801561217557600080fd5b5060405190808252806020026020018201604052801561219f578160200160208202803683370190505b50905060005b8351811015612152576121ca8482815181106121bd57fe5b6020026020010151612258565b8282815181106121d657fe5b6001600160a01b03909216602092830291909101909101526001016121a5565b6000805b82518110156122425782818151811061220f57fe5b60200260200101516001600160a01b0316846001600160a01b0316141561223a576001915050610b61565b6001016121fa565b5060009392505050565b6001600160a01b031690565b90565b828054828255906000526020600020908101928215612296579160200282015b8281111561229657825182559160200191906001019061227b565b506122a29291506123d4565b5090565b828054600181600116156101000203166002900490600052602060002090601f0160209004810192826122dc5760008555612296565b82601f106122f557805160ff1916838001178555612296565b82800160010185558215612296579182018281111561229657825182559160200191906001019061227b565b828054828255906000526020600020908101928215612296579160200282015b8281111561229657825182546001600160a01b0319166001600160a01b03909116178255602090920191600190910190612341565b50805460018160011615610100020316600290046000825580601f1061239c57506108c8565b601f0160209004906000526020600020908101906108c891906123d4565b50805460008255906000526020600020908101906108c891905b5b808211156122a257600081556001016123d5565b80356001600160a01b038116811461050f57600080fd5b600060208284031215612411578081fd5b61069c826123e9565b6000806040838503121561242c578081fd5b612435836123e9565b915060208084013567ffffffffffffffff80821115612452578384fd5b818601915086601f830112612465578384fd5b81358181111561247157fe5b604051601f8201601f191681018501838111828210171561248e57fe5b60405281815283820185018910156124a4578586fd5b81858501868301378585838301015280955050505050509250929050565b6000806000606084860312156124d6578081fd5b6124df846123e9565b95602085013595506040909401359392505050565b600060208284031215612505578081fd5b8151801515811461069c578182fd5b60008060408385031215612526578182fd5b82359150612536602084016123e9565b90509250929050565b6001600160a01b03169052565b6001600160a01b0391909116815260200190565b6001600160a01b0392831681529116602082015260400190565b6020808252825182820181905260009190848201906040850190845b818110156125bb5783516001600160a01b031683529284019291840191600101612596565b50909695505050505050565b6020808252825182820181905260009190848201906040850190845b818110156125bb578351835292840192918401916001016125e3565b901515815260200190565b6000602080835283518082850152825b818110156126365785810183015185820160400152820161261a565b818111156126475783604083870101525b50601f01601f1916929092016040019392505050565b6000604082016040835281855460018082166000811461268457600181146126a2576126db565b60028304607f16855260ff19831660608801526080870193506126db565b600283048086526126b28a612885565b875b828110156126d15781548a820160600152908401906020016126b4565b8901606001955050505b505050809250505061069c602083018461253f565b60208082526003908201526245433760e81b604082015260600190565b6020808252600390820152621150cd60ea1b604082015260600190565b6020808252600490820152634543313960e01b604082015260600190565b60208082526003908201526245433560e81b604082015260600190565b6020808252600490820152631150cc4d60e21b604082015260600190565b60208082526003908201526245433360e81b604082015260600190565b6020808252600490820152634543313560e01b604082015260600190565b60208082526004908201526322a1989960e11b604082015260600190565b60208082526003908201526245433960e81b604082015260600190565b60208082526003908201526245433160e81b604082015260600190565b60208082526003908201526208a86760eb1b604082015260600190565b6020808252600490820152630454331360e41b604082015260600190565b60208082526003908201526222a19b60e91b604082015260600190565b90815260200190565b918252602082015260400190565b6000908152602090209056fea26469706673582212207f7c9e0757aaf21ba04dbc700092df21e72742058db24eab947bbafb7b34d28e64736f6c63430007060033",
  "immutableReferences": {},
  "source": "// SPDX-License-Identifier: GPL-3.0\r\n\r\npragma solidity >=0.7.0 <0.9.0;\r\n\r\n/**\r\n * @title Storage\r\n * @dev Store & retrieve value in a variable\r\n */\r\n\r\nimport \"./Libraries/Library.sol\";\r\nimport \"./PrivateCertificatesPool.sol\";\r\nimport \"./PublicCertificatesPool.sol\";\r\n\r\ncontract CertificatesPoolManager{\r\n    using Library for *;\r\n\r\n    // events\r\n    event _NewCertificatesPool(uint256, address, MultiSigCertificatesPool);\r\n    event _SendProposalId(address);\r\n\r\n    // modfiers\r\n    modifier isIdCorrect(uint Id, uint length){\r\n        require(true == Library.IdCorrect(Id, length), \"EC1\");\r\n        _;\r\n    }\r\n\r\n    modifier areFundsEnough(uint minPrice){\r\n        require(msg.value >= minPrice, \"EC2\");\r\n        _;\r\n    }\r\n    \r\n    // Private Certificates Pool structure\r\n    struct _privateCertificatesPoolStruct{\r\n        address _creator;\r\n        PrivateCertificatesPool _PrivateCertificatesPool;\r\n    } \r\n\r\n    _privateCertificatesPoolStruct[] _PrivateCertificatesPools;\r\n    \r\n    // Public Certificates Pool structure\r\n    PublicCertificatesPool  _PublicCertificatesPool;\r\n\r\n    uint _PublicPriceWei;\r\n    uint _PrivatePoolPriceWei;\r\n\r\n    address payable _chairperson;\r\n    \r\n    constructor(address[] memory owners, uint256 minOwners, uint256 PublicPriceWei, uint256 PrivatePriceWei) payable{\r\n        _chairperson = payable(msg.sender);\r\n        _PublicPriceWei = PublicPriceWei;\r\n        _PrivatePoolPriceWei = PrivatePriceWei;  \r\n        _PublicCertificatesPool = new PublicCertificatesPool(owners, minOwners);\r\n    }\r\n\r\n    // PRIVATE CERTIFICATE POOL /////////////////////////////////////////////////////////////\r\n\r\n    function createPrivateCertificatesPool(address[] memory owners,  uint256 minOwners) external\r\n        areFundsEnough(_PrivatePoolPriceWei)\r\n    payable\r\n    {\r\n        PrivateCertificatesPool certificatePool = new PrivateCertificatesPool(owners, minOwners);\r\n        _privateCertificatesPoolStruct memory privateCertificatesPool = _privateCertificatesPoolStruct(msg.sender, certificatePool);\r\n        _PrivateCertificatesPools.push(privateCertificatesPool);\r\n\r\n        emit _NewCertificatesPool(_PrivateCertificatesPools.length - 1, privateCertificatesPool._creator, privateCertificatesPool._PrivateCertificatesPool);\r\n    }\r\n\r\n    function retrievePrivateCertificatesPool(uint certificatePoolId) external\r\n        isIdCorrect(certificatePoolId, _PrivateCertificatesPools.length)\r\n    view returns (address, MultiSigCertificatesPool)\r\n    {\r\n        return(_PrivateCertificatesPools[certificatePoolId]._creator, _PrivateCertificatesPools[certificatePoolId]._PrivateCertificatesPool);\r\n    }\r\n\r\n    function retrieveTotalPrivateCertificatesPool() external view returns (uint)\r\n    {\r\n        return(_PrivateCertificatesPools.length);\r\n    }\r\n\r\n    // PUBLIC CERTIFICATE POOL /////////////////////////////////////////////////////////////\r\n    \r\n    function sendProposal(address provider, string memory providerInfo) public \r\n        areFundsEnough(_PublicPriceWei)\r\n    payable \r\n    {\r\n       _PublicCertificatesPool.addProvider(provider, providerInfo);\r\n\r\n       emit _SendProposalId(provider);\r\n    }\r\n    \r\n    function retrieveConfiguration() public view returns (MultiSigCertificatesPool, address, uint) {\r\n        return (_PublicCertificatesPool, _chairperson, address(this).balance);\r\n    }\r\n    \r\n}",
  "sourcePath": "C:/Users/d-aam/GitHub/Certificates/contracts/CertificatesPoolManager.sol",
  "compiler": {
    "name": "solc",
    "version": "0.7.6+commit.7338295f.Emscripten.clang"
  },
  "schemaVersion": "3.3.4",
  "updatedAt": "2021-07-09T11:44:33.387Z",
  "networkType": "ethereum",
  "devdoc": {
    "kind": "dev",
    "methods": {},
    "version": 1
  },
  "userdoc": {
    "kind": "user",
    "methods": {},
    "version": 1
  }
}