{
  "contractName": "CertificatesPoolManager",
  "abi": [
    {
      "anonymous": false,
      "inputs": [
        {
          "indexed": false,
          "internalType": "uint256",
          "name": "Id",
          "type": "uint256"
        },
        {
          "indexed": true,
          "internalType": "address",
          "name": "Proposer",
          "type": "address"
        },
        {
          "indexed": false,
          "internalType": "uint256",
          "name": "Deadline",
          "type": "uint256"
        },
        {
          "indexed": false,
          "internalType": "uint256",
          "name": "Threshold",
          "type": "uint256"
        }
      ],
      "name": "_AddedProposition",
      "type": "event"
    },
    {
      "anonymous": false,
      "inputs": [
        {
          "indexed": false,
          "internalType": "uint256",
          "name": "Id",
          "type": "uint256"
        },
        {
          "indexed": true,
          "internalType": "address",
          "name": "Proposer",
          "type": "address"
        }
      ],
      "name": "_CancelledProposition",
      "type": "event"
    },
    {
      "anonymous": false,
      "inputs": [
        {
          "indexed": false,
          "internalType": "address",
          "name": "Public",
          "type": "address"
        },
        {
          "indexed": false,
          "internalType": "address",
          "name": "Treasury",
          "type": "address"
        },
        {
          "indexed": false,
          "internalType": "address",
          "name": "Certis",
          "type": "address"
        },
        {
          "indexed": false,
          "internalType": "address",
          "name": "PrivateFactory",
          "type": "address"
        },
        {
          "indexed": false,
          "internalType": "address",
          "name": "Private",
          "type": "address"
        },
        {
          "indexed": false,
          "internalType": "address",
          "name": "ProviderFactory",
          "type": "address"
        },
        {
          "indexed": false,
          "internalType": "address",
          "name": "Provider",
          "type": "address"
        },
        {
          "indexed": false,
          "internalType": "address",
          "name": "PriceConverter",
          "type": "address"
        },
        {
          "indexed": false,
          "internalType": "address",
          "name": "PropositionSettings",
          "type": "address"
        },
        {
          "indexed": false,
          "internalType": "address",
          "name": "ENS",
          "type": "address"
        }
      ],
      "name": "_NewContracts",
      "type": "event"
    },
    {
      "anonymous": false,
      "inputs": [
        {
          "indexed": false,
          "internalType": "uint256",
          "name": "Id",
          "type": "uint256"
        },
        {
          "indexed": true,
          "internalType": "address",
          "name": "Proposer",
          "type": "address"
        },
        {
          "indexed": false,
          "internalType": "uint256",
          "name": "VotesFor",
          "type": "uint256"
        },
        {
          "indexed": false,
          "internalType": "uint256",
          "name": "VotesAgainst",
          "type": "uint256"
        }
      ],
      "name": "_PropositionApproved",
      "type": "event"
    },
    {
      "anonymous": false,
      "inputs": [
        {
          "indexed": false,
          "internalType": "uint256",
          "name": "Id",
          "type": "uint256"
        },
        {
          "indexed": true,
          "internalType": "address",
          "name": "Proposer",
          "type": "address"
        },
        {
          "indexed": false,
          "internalType": "uint256",
          "name": "VotesFor",
          "type": "uint256"
        },
        {
          "indexed": false,
          "internalType": "uint256",
          "name": "VotesAgainst",
          "type": "uint256"
        }
      ],
      "name": "_PropositionRejected",
      "type": "event"
    },
    {
      "anonymous": false,
      "inputs": [
        {
          "indexed": false,
          "internalType": "uint256",
          "name": "Id",
          "type": "uint256"
        },
        {
          "indexed": true,
          "internalType": "address",
          "name": "Voter",
          "type": "address"
        },
        {
          "indexed": false,
          "internalType": "bool",
          "name": "Vote",
          "type": "bool"
        },
        {
          "indexed": false,
          "internalType": "uint256",
          "name": "AmountTokens",
          "type": "uint256"
        }
      ],
      "name": "_PropositionVote",
      "type": "event"
    },
    {
      "anonymous": false,
      "inputs": [
        {
          "indexed": true,
          "internalType": "uint256",
          "name": "Id",
          "type": "uint256"
        },
        {
          "indexed": false,
          "internalType": "address",
          "name": "From",
          "type": "address"
        },
        {
          "indexed": false,
          "internalType": "address",
          "name": "To",
          "type": "address"
        },
        {
          "indexed": false,
          "internalType": "uint256",
          "name": "Amount",
          "type": "uint256"
        }
      ],
      "name": "_UsedTokensTransfered",
      "type": "event"
    },
    {
      "inputs": [
        {
          "internalType": "address",
          "name": "chairPerson",
          "type": "address"
        },
        {
          "internalType": "address",
          "name": "managerContractAddress",
          "type": "address"
        },
        {
          "internalType": "string",
          "name": "contractName",
          "type": "string"
        },
        {
          "internalType": "string",
          "name": "contractVersion",
          "type": "string"
        }
      ],
      "name": "StdPropositionBaseContract_init",
      "outputs": [],
      "stateMutability": "nonpayable",
      "type": "function"
    },
    {
      "inputs": [],
      "name": "cancelProposition",
      "outputs": [],
      "stateMutability": "nonpayable",
      "type": "function"
    },
    {
      "inputs": [
        {
          "internalType": "address",
          "name": "from",
          "type": "address"
        },
        {
          "internalType": "address",
          "name": "to",
          "type": "address"
        },
        {
          "internalType": "uint256",
          "name": "amount",
          "type": "uint256"
        }
      ],
      "name": "onTokenBalanceChanged",
      "outputs": [],
      "stateMutability": "nonpayable",
      "type": "function"
    },
    {
      "inputs": [],
      "name": "retrieveChairPerson",
      "outputs": [
        {
          "internalType": "address",
          "name": "",
          "type": "address"
        }
      ],
      "stateMutability": "view",
      "type": "function"
    },
    {
      "inputs": [],
      "name": "retrieveContractConfig",
      "outputs": [
        {
          "internalType": "string",
          "name": "",
          "type": "string"
        },
        {
          "internalType": "string",
          "name": "",
          "type": "string"
        }
      ],
      "stateMutability": "view",
      "type": "function"
    },
    {
      "inputs": [],
      "name": "retrieveManagerContract",
      "outputs": [
        {
          "internalType": "address",
          "name": "",
          "type": "address"
        }
      ],
      "stateMutability": "view",
      "type": "function"
    },
    {
      "inputs": [],
      "name": "retrieveNextPropId",
      "outputs": [
        {
          "internalType": "uint256",
          "name": "",
          "type": "uint256"
        }
      ],
      "stateMutability": "view",
      "type": "function"
    },
    {
      "inputs": [
        {
          "internalType": "address",
          "name": "addr",
          "type": "address"
        },
        {
          "internalType": "uint256",
          "name": "nonce",
          "type": "uint256"
        }
      ],
      "name": "retrieveNonce",
      "outputs": [
        {
          "internalType": "bool",
          "name": "",
          "type": "bool"
        }
      ],
      "stateMutability": "view",
      "type": "function"
    },
    {
      "inputs": [],
      "name": "retrieveProposition",
      "outputs": [
        {
          "internalType": "bytes[]",
          "name": "",
          "type": "bytes[]"
        }
      ],
      "stateMutability": "view",
      "type": "function"
    },
    {
      "inputs": [],
      "name": "retrievePropositionStatus",
      "outputs": [
        {
          "internalType": "address",
          "name": "",
          "type": "address"
        },
        {
          "internalType": "uint256",
          "name": "",
          "type": "uint256"
        },
        {
          "internalType": "uint256",
          "name": "",
          "type": "uint256"
        },
        {
          "internalType": "uint256",
          "name": "",
          "type": "uint256"
        },
        {
          "internalType": "uint256",
          "name": "",
          "type": "uint256"
        }
      ],
      "stateMutability": "view",
      "type": "function"
    },
    {
      "inputs": [
        {
          "internalType": "uint256",
          "name": "PropId",
          "type": "uint256"
        },
        {
          "internalType": "address",
          "name": "voter",
          "type": "address"
        }
      ],
      "name": "retrieveVotesForVoter",
      "outputs": [
        {
          "internalType": "uint256",
          "name": "",
          "type": "uint256"
        }
      ],
      "stateMutability": "view",
      "type": "function"
    },
    {
      "inputs": [
        {
          "internalType": "bytes[]",
          "name": "NewValues",
          "type": "bytes[]"
        }
      ],
      "name": "sendProposition",
      "outputs": [],
      "stateMutability": "nonpayable",
      "type": "function"
    },
    {
      "inputs": [
        {
          "internalType": "bool",
          "name": "vote",
          "type": "bool"
        }
      ],
      "name": "voteProposition",
      "outputs": [],
      "stateMutability": "nonpayable",
      "type": "function"
    },
    {
      "inputs": [
        {
          "internalType": "address",
          "name": "voter",
          "type": "address"
        },
        {
          "internalType": "uint256",
          "name": "propID",
          "type": "uint256"
        },
        {
          "internalType": "bool",
          "name": "vote",
          "type": "bool"
        },
        {
          "internalType": "uint256",
          "name": "nonce",
          "type": "uint256"
        },
        {
          "internalType": "uint256",
          "name": "deadline",
          "type": "uint256"
        },
        {
          "internalType": "bytes",
          "name": "signature",
          "type": "bytes"
        }
      ],
      "name": "votePropositionOnBehalfOf",
      "outputs": [],
      "stateMutability": "nonpayable",
      "type": "function"
    },
    {
      "inputs": [
        {
          "internalType": "address",
          "name": "chairPerson",
          "type": "address"
        },
        {
          "internalType": "string",
          "name": "contractName",
          "type": "string"
        },
        {
          "internalType": "string",
          "name": "contractVersion",
          "type": "string"
        }
      ],
      "name": "CertificatesPoolManager_init",
      "outputs": [],
      "stateMutability": "nonpayable",
      "type": "function"
    },
    {
      "inputs": [
        {
          "components": [
            {
              "internalType": "address",
              "name": "NewPublicPoolAddress",
              "type": "address"
            },
            {
              "internalType": "address",
              "name": "NewTreasuryAddress",
              "type": "address"
            },
            {
              "internalType": "address",
              "name": "NewCertisTokenAddress",
              "type": "address"
            },
            {
              "internalType": "address",
              "name": "NewPrivatePoolFactoryAddress",
              "type": "address"
            },
            {
              "internalType": "address",
              "name": "NewPrivatePoolAddress",
              "type": "address"
            },
            {
              "internalType": "address",
              "name": "NewProviderFactoryAddress",
              "type": "address"
            },
            {
              "internalType": "address",
              "name": "NewProviderAddress",
              "type": "address"
            },
            {
              "internalType": "address",
              "name": "NewPriceConverterAddress",
              "type": "address"
            },
            {
              "internalType": "address",
              "name": "NewPropositionSettingsAddress",
              "type": "address"
            },
            {
              "internalType": "address",
              "name": "NewENSAddress",
              "type": "address"
            },
            {
              "internalType": "bytes",
              "name": "NewPublicPoolData",
              "type": "bytes"
            },
            {
              "internalType": "bytes",
              "name": "NewTreasuryData",
              "type": "bytes"
            },
            {
              "internalType": "bytes",
              "name": "NewCertisTokenData",
              "type": "bytes"
            },
            {
              "internalType": "bytes",
              "name": "NewPrivatePoolFactoryData",
              "type": "bytes"
            },
            {
              "internalType": "bytes",
              "name": "NewProviderFactoryData",
              "type": "bytes"
            },
            {
              "internalType": "bytes",
              "name": "NewPriceConverterData",
              "type": "bytes"
            },
            {
              "internalType": "bytes",
              "name": "NewPropositionSettingsData",
              "type": "bytes"
            },
            {
              "internalType": "bytes",
              "name": "NewENSData",
              "type": "bytes"
            },
            {
              "internalType": "string",
              "name": "NewPrivatePoolContractName",
              "type": "string"
            },
            {
              "internalType": "string",
              "name": "NewPrivatePoolContractVersion",
              "type": "string"
            }
          ],
          "internalType": "struct Library.ProposedContractsStruct",
          "name": "initialContracts",
          "type": "tuple"
        }
      ],
      "name": "InitializeContracts",
      "outputs": [],
      "stateMutability": "nonpayable",
      "type": "function"
    },
    {
      "inputs": [],
      "name": "retrievePublicCertificatePoolProxy",
      "outputs": [
        {
          "internalType": "address",
          "name": "",
          "type": "address"
        }
      ],
      "stateMutability": "view",
      "type": "function"
    },
    {
      "inputs": [],
      "name": "retrieveTreasuryProxy",
      "outputs": [
        {
          "internalType": "address",
          "name": "",
          "type": "address"
        }
      ],
      "stateMutability": "view",
      "type": "function"
    },
    {
      "inputs": [],
      "name": "retrieveCertisTokenProxy",
      "outputs": [
        {
          "internalType": "address",
          "name": "",
          "type": "address"
        }
      ],
      "stateMutability": "view",
      "type": "function"
    },
    {
      "inputs": [],
      "name": "retrievePrivatePoolFactoryProxy",
      "outputs": [
        {
          "internalType": "address",
          "name": "",
          "type": "address"
        }
      ],
      "stateMutability": "view",
      "type": "function"
    },
    {
      "inputs": [],
      "name": "retrievePrivatePoolBeacon",
      "outputs": [
        {
          "internalType": "address",
          "name": "",
          "type": "address"
        }
      ],
      "stateMutability": "view",
      "type": "function"
    },
    {
      "inputs": [],
      "name": "retrieveProviderFactoryProxy",
      "outputs": [
        {
          "internalType": "address",
          "name": "",
          "type": "address"
        }
      ],
      "stateMutability": "view",
      "type": "function"
    },
    {
      "inputs": [],
      "name": "retrieveProviderBeacon",
      "outputs": [
        {
          "internalType": "address",
          "name": "",
          "type": "address"
        }
      ],
      "stateMutability": "view",
      "type": "function"
    },
    {
      "inputs": [],
      "name": "retrievePriceConverterProxy",
      "outputs": [
        {
          "internalType": "address",
          "name": "",
          "type": "address"
        }
      ],
      "stateMutability": "view",
      "type": "function"
    },
    {
      "inputs": [],
      "name": "retrievePropositionSettingsProxy",
      "outputs": [
        {
          "internalType": "address",
          "name": "",
          "type": "address"
        }
      ],
      "stateMutability": "view",
      "type": "function"
    },
    {
      "inputs": [],
      "name": "retrieveENSProxy",
      "outputs": [
        {
          "internalType": "address",
          "name": "",
          "type": "address"
        }
      ],
      "stateMutability": "view",
      "type": "function"
    },
    {
      "inputs": [],
      "name": "retrievePublicCertificatePool",
      "outputs": [
        {
          "internalType": "address",
          "name": "",
          "type": "address"
        }
      ],
      "stateMutability": "view",
      "type": "function"
    },
    {
      "inputs": [],
      "name": "retrieveTreasury",
      "outputs": [
        {
          "internalType": "address",
          "name": "",
          "type": "address"
        }
      ],
      "stateMutability": "view",
      "type": "function"
    },
    {
      "inputs": [],
      "name": "retrieveCertisToken",
      "outputs": [
        {
          "internalType": "address",
          "name": "",
          "type": "address"
        }
      ],
      "stateMutability": "view",
      "type": "function"
    },
    {
      "inputs": [],
      "name": "retrievePrivatePoolFactory",
      "outputs": [
        {
          "internalType": "address",
          "name": "",
          "type": "address"
        }
      ],
      "stateMutability": "view",
      "type": "function"
    },
    {
      "inputs": [],
      "name": "retrievePrivatePool",
      "outputs": [
        {
          "internalType": "address",
          "name": "",
          "type": "address"
        }
      ],
      "stateMutability": "view",
      "type": "function"
    },
    {
      "inputs": [],
      "name": "retrieveProviderFactory",
      "outputs": [
        {
          "internalType": "address",
          "name": "",
          "type": "address"
        }
      ],
      "stateMutability": "view",
      "type": "function"
    },
    {
      "inputs": [],
      "name": "retrieveProvider",
      "outputs": [
        {
          "internalType": "address",
          "name": "",
          "type": "address"
        }
      ],
      "stateMutability": "view",
      "type": "function"
    },
    {
      "inputs": [],
      "name": "retrievePriceConverter",
      "outputs": [
        {
          "internalType": "address",
          "name": "",
          "type": "address"
        }
      ],
      "stateMutability": "view",
      "type": "function"
    },
    {
      "inputs": [],
      "name": "retrievePropositionSettings",
      "outputs": [
        {
          "internalType": "address",
          "name": "",
          "type": "address"
        }
      ],
      "stateMutability": "view",
      "type": "function"
    },
    {
      "inputs": [],
      "name": "retrieveENS",
      "outputs": [
        {
          "internalType": "address",
          "name": "",
          "type": "address"
        }
      ],
      "stateMutability": "view",
      "type": "function"
    },
    {
      "inputs": [],
      "name": "isInitialized",
      "outputs": [
        {
          "internalType": "bool",
          "name": "",
          "type": "bool"
        }
      ],
      "stateMutability": "view",
      "type": "function"
    }
  ],
  "bytecode": "0x608060405234801561001057600080fd5b50615d8f806100206000396000f3fe60806040523480156200001157600080fd5b5060043610620001de5760003560e01c8063029b967314620001e357806304cc67a914620002055780630f13bbc9146200021857806322d929e11462000231578063392e53cd146200023b5780633c65d427146200025a5780633c7df55d146200026c5780633feca4ca14620002835780634044adb214620002bf57806348a9ddfe14620002f85780634b19aa16146200030257806355457ee9146200030c5780635773bc2314620003165780635a3794e914620003285780635b362e84146200033a5780636025541514620003525780636771717714620003645780636c594948146200036e5780637634af7814620003855780637c2f3aaf14620003975780637faa3d6f14620003a9578063840f6d1714620003c057806387552a0d146200040257806391f916711462000414578063a16374d2146200042b578063a42e13391462000435578063a81a6356146200043f578063a93316f51462000456578063aa33380a146200046f578063c50ec82b1462000481578063d2116a02146200048b578063da3dce2614620004a5578063db85bc4d14620004b7578063e15aa3a614620004c9578063ee2aa36a14620004e0578063efd15d1714620004ea578063f5ad9acc14620004f4575b600080fd5b620001ed62000506565b604051620001fc919062003d12565b60405180910390f35b600b545b604051908152602001620001fc565b6200022f6200022936600462003770565b62000525565b005b620001ed620005b2565b601954600160a01b900460ff165b6040519015158152602001620001fc565b6010546001600160a01b0316620001ed565b6200022f6200027d36600462003803565b620005cc565b6200024962000294366004620038c7565b6001600160a01b03919091166000908152600260209081526040808320938352929052205460ff1690565b62000209620002d036600462003b7c565b6000918252600c602090815260408084206001600160a01b0393909316845291905290205490565b620001ed620006d6565b620001ed620006f0565b6200022f620006fc565b6012546001600160a01b0316620001ed565b6015546001600160a01b0316620001ed565b6003546201000090046001600160a01b0316620001ed565b6017546001600160a01b0316620001ed565b620001ed620007d6565b6200022f6200037f36600462003b24565b620007f0565b6019546001600160a01b0316620001ed565b6011546001600160a01b0316620001ed565b6200022f620003ba366004620038f6565b620008d1565b600654600754600854600954600a54604080516001600160a01b0390961686526020860194909452928401919091526060830152608082015260a001620001fc565b6018546001600160a01b0316620001ed565b6200022f6200042536600462003ae4565b620008f5565b620001ed62000904565b620001ed6200091e565b6200022f6200045036600462003849565b62000938565b6200046062000a06565b604051620001fc919062003df2565b6014546001600160a01b0316620001ed565b620001ed62000ae9565b6200049562000af5565b604051620001fc92919062003ed7565b6016546001600160a01b0316620001ed565b6004546001600160a01b0316620001ed565b6200022f620004da36600462003a21565b62000c2c565b620001ed62000ca8565b620001ed62000cc2565b6013546001600160a01b0316620001ed565b60165460009062000520906001600160a01b031662000cd7565b905090565b600354610100900460ff16806200053f575060035460ff16155b620005675760405162461bcd60e51b81526004016200055e9062003f00565b60405180910390fd5b600354610100900460ff161580156200058a576003805461ffff19166101011790555b620005988585858562000d64565b8015620005ab576003805461ff00191690555b5050505050565b60125460009062000520906001600160a01b031662000cd7565b3373__Library_______________________________6337ea306382600360029054906101000a90046001600160a01b03166001600160a01b031663da3dce266040518163ffffffff1660e01b815260040160206040518083038186803b1580156200063757600080fd5b505afa1580156200064c573d6000803e3d6000fd5b505050506040513d601f19601f8201168201806040525081019062000672919062003750565b6040518363ffffffff1660e01b81526004016200069192919062003d26565b60006040518083038186803b158015620006aa57600080fd5b505af4158015620006bf573d6000803e3d6000fd5b50505050620006d084848462000df7565b50505050565b60185460009062000520906001600160a01b031662000cd7565b60006200052062000e1e565b6001620007098162000e9f565b6006546040516337ea306360e01b8152339173__Library_______________________________916337ea306391620007519185916001600160a01b03169060040162003d26565b60006040518083038186803b1580156200076a57600080fd5b505af41580156200077f573d6000803e3d6000fd5b505050506200078d62000f2c565b6006546005546040519081526001600160a01b03909116907f1fe8aec10c0a50fa765076161e08c1f961ced69594ff45cf7d559f593afe14799060200160405180910390a25050565b60105460009062000520906001600160a01b031662000cd7565b600480546040516337ea306360e01b8152339273__Library_______________________________926337ea306392620008379286926001600160a01b0316910162003d26565b60006040518083038186803b1580156200085057600080fd5b505af415801562000865573d6000803e3d6000fd5b5050601954600160a01b900460ff16159150620008af90505760405162461bcd60e51b8152602060048201526005602482015264454332362d60d81b60448201526064016200055e565b620008ba8262000f57565b50506019805460ff60a01b1916600160a01b179055565b620008e18686868686866200154f565b620008ed8685620016bd565b505050505050565b620009013382620016bd565b50565b60195460009062000520906001600160a01b031662000cd7565b60145460009062000520906001600160a01b031662000cd7565b600354610100900460ff168062000952575060035460ff16155b620009715760405162461bcd60e51b81526004016200055e9062003f00565b600354610100900460ff1615801562000994576003805461ffff19166101011790555b620009a28430858562000525565b604051620009b09062003553565b604051809103906000f080158015620009cd573d6000803e3d6000fd5b50600f80546001600160a01b0319166001600160a01b03929092169190911790558015620006d0576003805461ff001916905550505050565b6060600d805480602002602001604051908101604052809291908181526020016000905b8282101562000ae057838290600052602060002001805462000a4c9062004087565b80601f016020809104026020016040519081016040528092919081815260200182805462000a7a9062004087565b801562000acb5780601f1062000a9f5761010080835404028352916020019162000acb565b820191906000526020600020905b81548152906001019060200180831162000aad57829003601f168201915b50505050508152602001906001019062000a2a565b50505050905090565b600062000520620017e6565b6060806000600181805462000b0a9062004087565b80601f016020809104026020016040519081016040528092919081815260200182805462000b389062004087565b801562000b895780601f1062000b5d5761010080835404028352916020019162000b89565b820191906000526020600020905b81548152906001019060200180831162000b6b57829003601f168201915b5050505050915080805462000b9e9062004087565b80601f016020809104026020016040519081016040528092919081815260200182805462000bcc9062004087565b801562000c1d5780601f1062000bf15761010080835404028352916020019162000c1d565b820191906000526020600020905b81548152906001019060200180831162000bff57829003601f168201915b50505050509050915091509091565b62000c366200182c565b60005b815181101562000ca457600d82828151811062000c5a5762000c5a620040f8565b6020908102919091018101518254600181018455600093845292829020815162000c8e949190910192919091019062003561565b508062000c9b81620040c4565b91505062000c39565b5050565b60175460009062000520906001600160a01b031662000cd7565b60155460009062000520906001600160a01b03165b600f546040516310270e3d60e11b81526000916001600160a01b03169063204e1c7a9062000d0a90859060040162003d12565b60206040518083038186803b15801562000d2357600080fd5b505afa15801562000d38573d6000803e3d6000fd5b505050506040513d601f19601f8201168201806040525081019062000d5e919062003750565b92915050565b600354610100900460ff168062000d7e575060035460ff16155b62000d9d5760405162461bcd60e51b81526004016200055e9062003f00565b600354610100900460ff1615801562000dc0576003805461ffff19166101011790555b62000dcb8462001bab565b600480546001600160a01b0319166001600160a01b0387161790556000600b5562000598838362001c3f565b62000e0162001c6a565b15156001141562000e195762000e1983838362001caa565b505050565b60135460408051635c60da1b60e01b815290516000926001600160a01b031691635c60da1b916004808301926020929190829003018186803b15801562000e6457600080fd5b505afa15801562000e79573d6000803e3d6000fd5b505050506040513d601f19601f8201168201806040525081019062000520919062003750565b801562000eeb5762000eb062001c6a565b1515600114620009015760405162461bcd60e51b8152602060048201526005602482015264454332352d60d81b60448201526064016200055e565b62000ef562001c6a565b15620009015760405162461bcd60e51b8152602060048201526005602482015264454332342d60d81b60448201526064016200055e565b60006005819055600680546001600160a01b0319169055600781905560088190556009819055600a55565b62000f66602082018262003730565b600f546001600160a01b031662000f8261014084018462003f64565b60405162000f9090620035f0565b62000f9f949392919062003d40565b604051809103906000f08015801562000fbc573d6000803e3d6000fd5b50601480546001600160a01b0319166001600160a01b039290921691909117905562000fef604082016020830162003730565b600f546001600160a01b03166200100b61016084018462003f64565b6040516200101990620035f0565b62001028949392919062003d40565b604051809103906000f08015801562001045573d6000803e3d6000fd5b50601580546001600160a01b0319166001600160a01b039290921691909117905562001078606082016040830162003730565b600f546001600160a01b03166200109461018084018462003f64565b604051620010a290620035f0565b620010b1949392919062003d40565b604051809103906000f080158015620010ce573d6000803e3d6000fd5b50601680546001600160a01b0319166001600160a01b039290921691909117905562001101608082016060830162003730565b600f546001600160a01b03166200111d6101a084018462003f64565b6040516200112b90620035f0565b6200113a949392919062003d40565b604051809103906000f08015801562001157573d6000803e3d6000fd5b50601080546001600160a01b0319166001600160a01b03929092169190911790556200118a60a082016080830162003730565b6040516200119890620035fe565b620011a4919062003d12565b604051809103906000f080158015620011c1573d6000803e3d6000fd5b50601180546001600160a01b0319166001600160a01b0392909216919091179055620011f460c0820160a0830162003730565b600f546001600160a01b0316620012106101c084018462003f64565b6040516200121e90620035f0565b6200122d949392919062003d40565b604051809103906000f0801580156200124a573d6000803e3d6000fd5b50601280546001600160a01b0319166001600160a01b03929092169190911790556200127d60e0820160c0830162003730565b6040516200128b90620035fe565b62001297919062003d12565b604051809103906000f080158015620012b4573d6000803e3d6000fd5b50601380546001600160a01b0319166001600160a01b0392909216919091179055620012e8610100820160e0830162003730565b600f546001600160a01b0316620013046101e084018462003f64565b6040516200131290620035f0565b62001321949392919062003d40565b604051809103906000f0801580156200133e573d6000803e3d6000fd5b50601780546001600160a01b0319166001600160a01b0392909216919091179055620013736101208201610100830162003730565b600f546001600160a01b03166200138f61020084018462003f64565b6040516200139d90620035f0565b620013ac949392919062003d40565b604051809103906000f080158015620013c9573d6000803e3d6000fd5b50601880546001600160a01b0319166001600160a01b0392909216919091179055620013fe6101408201610120830162003730565b600f546001600160a01b03166200141a61022084018462003f64565b6040516200142890620035f0565b62001437949392919062003d40565b604051809103906000f08015801562001454573d6000803e3d6000fd5b50601980546001600160a01b0319166001600160a01b039283161790556010541663ce50ac766200148a61024084018462003f64565b6040518363ffffffff1660e01b8152600401620014a992919062003eb9565b600060405180830381600087803b158015620014c457600080fd5b505af1158015620014d9573d6000803e3d6000fd5b50506010546001600160a01b03169150631dd5862c90506200150061026084018462003f64565b6040518363ffffffff1660e01b81526004016200151f92919062003eb9565b600060405180830381600087803b1580156200153a57600080fd5b505af1158015620005ab573d6000803e3d6000fd5b816200155b8162001e22565b868462001569828262001e5b565b6005548814620015a45760405162461bcd60e51b8152602060048201526005602482015264454333352d60d81b60448201526064016200055e565b60405163432f9a5560e01b815273__SignatureLibrary______________________9063432f9a5590620015ed908c908c908c908c908c908c9060009060019060040162003d79565b60206040518083038186803b1580156200160657600080fd5b505af41580156200161b573d6000803e3d6000fd5b505050506040513d601f19601f8201168201806040525081019062001641919062003b04565b15156001146200167c5760405162461bcd60e51b8152602060048201526005602482015264454333322d60d81b60448201526064016200055e565b620016b289876001600160a01b03909116600090815260026020908152604080832093835292905220805460ff19166001179055565b505050505050505050565b6001620016ca8162000e9f565b60055483906000620016dd838362001eb9565b905060008111620017195760405162461bcd60e51b8152602060048201526005602482015264454332332d60d81b60448201526064016200055e565b60006200172c8760056000015462001eb9565b90508515620017585780600560040160008282546200174c91906200400d565b90915550620017749050565b806005800160008282546200176e91906200400d565b90915550505b6005546200178490888362001efa565b60055460408051918252871515602083015281018290526001600160a01b038816907f50f654d58981575c05e369cb129aeacb01e1b036af429380242cfc5d1a4b743f9060600160405180910390a2620017dd62001f38565b50505050505050565b60115460408051635c60da1b60e01b815290516000926001600160a01b031691635c60da1b916004808301926020929190829003018186803b15801562000e6457600080fd5b6000620018398162000e9f565b60045433906000906001600160a01b03168214156200185b57506001620019a5565b600062001868836200201c565b90506000600360029054906101000a90046001600160a01b03166001600160a01b03166387552a0d6040518163ffffffff1660e01b815260040160206040518083038186803b158015620018bb57600080fd5b505afa158015620018d0573d6000803e3d6000fd5b505050506040513d601f19601f82011682018060405250810190620018f6919062003750565b6001600160a01b031663b049473f6040518163ffffffff1660e01b815260040160606040518083038186803b1580156200192f57600080fd5b505afa15801562001944573d6000803e3d6000fd5b505050506040513d601f19601f820116820180604052508101906200196a919062003baf565b9250505060646200197a62002129565b620019899060ff84166200404b565b62001995919062004028565b821115620019a257600192505b50505b600181151514620019e15760405162461bcd60e51b8152602060048201526005602482015264454332322d60d81b60448201526064016200055e565b600080600360029054906101000a90046001600160a01b03166001600160a01b03166387552a0d6040518163ffffffff1660e01b815260040160206040518083038186803b15801562001a3357600080fd5b505afa15801562001a48573d6000803e3d6000fd5b505050506040513d601f19601f8201168201806040525081019062001a6e919062003750565b6001600160a01b031663b049473f6040518163ffffffff1660e01b815260040160606040518083038186803b15801562001aa757600080fd5b505afa15801562001abc573d6000803e3d6000fd5b505050506040513d601f19601f8201168201806040525081019062001ae2919062003baf565b50600680546001600160a01b03191633179055909250905062001b0682426200400d565b600755606460ff821662001b1962002129565b62001b2591906200404b565b62001b31919062004028565b600855600b8054600581905590600062001b4b83620040c4565b90915550506006546005546007546008546040516001600160a01b03909416937f472501d19bf75639b2e316cd36f8568b0c3ab943b82a87de3c086c98c1929df99362001b9c939092909162003f4e565b60405180910390a25050505050565b600354610100900460ff168062001bc5575060035460ff16155b62001be45760405162461bcd60e51b81526004016200055e9062003f00565b600354610100900460ff1615801562001c07576003805461ffff19166101011790555b6003805462010000600160b01b031916620100006001600160a01b03851602179055801562000ca4576003805461ff00191690555050565b815162001c5490600090602085019062003561565b50805162000e1990600190602084019062003561565b60075460009042101562001c7e5750600190565b6006546001600160a01b03161562001ca45762001c9a62002229565b62001ca462000f2c565b50600090565b6001600160a01b0383161580159062001ce757506005546000908152600c602090815260408083206001600160a01b038716845290915290205415155b1562000e19576005546000908152600c602090815260408083206001600160a01b0387168452909152902054819081111562001d4557506005546000908152600c602090815260408083206001600160a01b03871684529091529020545b6005546000908152600c602090815260408083206001600160a01b03881684529091528120805483929062001d7c9084906200406d565b90915550506001600160a01b0383161562001dce576005546000908152600c602090815260408083206001600160a01b03871684529091528120805483929062001dc89084906200400d565b90915550505b600554604080516001600160a01b038088168252861660208201529081018390527f65fbd5e5dd32bea4aeca85bd0be0abf0e489d655dee888a7510d43b06dda2dba9060600160405180910390a250505050565b804210620009015760405162461bcd60e51b8152602060048201526005602482015264454333332d60d81b60448201526064016200055e565b6001600160a01b038216600090815260026020908152604080832084845290915290205460ff161562000ca45760405162461bcd60e51b8152602060048201526005602482015264454333342d60d81b60448201526064016200055e565b6000818152600c602090815260408083206001600160a01b038616845290915281205462001ee7846200201c565b62001ef391906200406d565b9392505050565b6000838152600c602090815260408083206001600160a01b03861684529091528120805483929062001f2e9084906200400d565b9091555050505050565b6008546009541062001fae5762001f4e62002233565b62001f5862000f2c565b600654600554600954600a546040516001600160a01b03909416937f23ca0034cf5aad32571b4a492e9598ea8a490e1643a60970e3cdc6933b55e49f9362001fa4939092909162003f4e565b60405180910390a2565b600854600a54106200201a5762001fc462002229565b62001fce62000f2c565b600654600554600954600a546040516001600160a01b03909416937fa58eb6daa3c62c3f883973c4035e5bd3e81aa627c8379de068a7de42df122be29362001fa4939092909162003f4e565b565b6000600360029054906101000a90046001600160a01b03166001600160a01b031663da3dce266040518163ffffffff1660e01b815260040160206040518083038186803b1580156200206d57600080fd5b505afa15801562002082573d6000803e3d6000fd5b505050506040513d601f19601f82011682018060405250810190620020a8919062003750565b6001600160a01b03166370a08231836040518263ffffffff1660e01b8152600401620020d5919062003d12565b60206040518083038186803b158015620020ee57600080fd5b505afa15801562002103573d6000803e3d6000fd5b505050506040513d601f19601f8201168201806040525081019062000d5e919062003b62565b6000600360029054906101000a90046001600160a01b03166001600160a01b031663da3dce266040518163ffffffff1660e01b815260040160206040518083038186803b1580156200217a57600080fd5b505afa1580156200218f573d6000803e3d6000fd5b505050506040513d601f19601f82011682018060405250810190620021b5919062003750565b6001600160a01b03166318160ddd6040518163ffffffff1660e01b815260040160206040518083038186803b158015620021ee57600080fd5b505afa15801562002203573d6000803e3d6000fd5b505050506040513d601f19601f8201168201806040525081019062000520919062003b62565b6200201a6200223d565b620022296200224b565b6200201a600d60006200360c565b601454600d8054620023c7926001600160a01b03169190600090620022745762002274620040f8565b9060005260206000200180546200228b9062004087565b80601f0160208091040260200160405190810160405280929190818152602001828054620022b99062004087565b80156200230a5780601f10620022de576101008083540402835291602001916200230a565b820191906000526020600020905b815481529060010190602001808311620022ec57829003601f168201915b5050505050600d600a81548110620023265762002326620040f8565b9060005260206000200180546200233d9062004087565b80601f01602080910402602001604051908101604052809291908181526020018280546200236b9062004087565b8015620023bc5780601f106200239057610100808354040283529160200191620023bc565b820191906000526020600020905b8154815290600101906020018083116200239e57829003601f168201915b50505050506200331e565b601554600d8054620024a4926001600160a01b031691906001908110620023f257620023f2620040f8565b906000526020600020018054620024099062004087565b80601f0160208091040260200160405190810160405280929190818152602001828054620024379062004087565b8015620024885780601f106200245c5761010080835404028352916020019162002488565b820191906000526020600020905b8154815290600101906020018083116200246a57829003601f168201915b5050505050600d600b81548110620023265762002326620040f8565b601654600d805462002581926001600160a01b031691906002908110620024cf57620024cf620040f8565b906000526020600020018054620024e69062004087565b80601f0160208091040260200160405190810160405280929190818152602001828054620025149062004087565b8015620025655780601f10620025395761010080835404028352916020019162002565565b820191906000526020600020905b8154815290600101906020018083116200254757829003601f168201915b5050505050600d600c81548110620023265762002326620040f8565b601054600d80546200265d926001600160a01b031691906003908110620025ac57620025ac620040f8565b906000526020600020018054620025c39062004087565b80601f0160208091040260200160405190810160405280929190818152602001828054620025f19062004087565b8015620026425780601f10620026165761010080835404028352916020019162002642565b820191906000526020600020905b8154815290600101906020018083116200262457829003601f168201915b5050505050600d8081548110620023265762002326620040f8565b601254600d80546200273a926001600160a01b031691906005908110620026885762002688620040f8565b9060005260206000200180546200269f9062004087565b80601f0160208091040260200160405190810160405280929190818152602001828054620026cd9062004087565b80156200271e5780601f10620026f2576101008083540402835291602001916200271e565b820191906000526020600020905b8154815290600101906020018083116200270057829003601f168201915b5050505050600d600e81548110620023265762002326620040f8565b601754600d805462002817926001600160a01b031691906007908110620027655762002765620040f8565b9060005260206000200180546200277c9062004087565b80601f0160208091040260200160405190810160405280929190818152602001828054620027aa9062004087565b8015620027fb5780601f10620027cf57610100808354040283529160200191620027fb565b820191906000526020600020905b815481529060010190602001808311620027dd57829003601f168201915b5050505050600d600f81548110620023265762002326620040f8565b601854600d8054620028f4926001600160a01b031691906008908110620028425762002842620040f8565b906000526020600020018054620028599062004087565b80601f0160208091040260200160405190810160405280929190818152602001828054620028879062004087565b8015620028d85780601f10620028ac57610100808354040283529160200191620028d8565b820191906000526020600020905b815481529060010190602001808311620028ba57829003601f168201915b5050505050600d601081548110620023265762002326620040f8565b601954600d8054620029d1926001600160a01b0316919060099081106200291f576200291f620040f8565b906000526020600020018054620029369062004087565b80601f0160208091040260200160405190810160405280929190818152602001828054620029649062004087565b8015620029b55780601f106200298957610100808354040283529160200191620029b5565b820191906000526020600020905b8154815290600101906020018083116200299757829003601f168201915b5050505050600d601181548110620023265762002326620040f8565b73__AddressLibrary________________________63f4ce9ae873__Library_______________________________63caa8f589600d60048154811062002a1c5762002a1c620040f8565b906000526020600020016040518263ffffffff1660e01b815260040162002a44919062003e6d565b60006040518083038186803b15801562002a5d57600080fd5b505af415801562002a72573d6000803e3d6000fd5b505050506040513d6000823e601f3d908101601f1916820160405262002a9c91908101906200397b565b60008151811062002ab15762002ab1620040f8565b60200260200101516040518263ffffffff1660e01b815260040162002ad891815260200190565b60206040518083038186803b15801562002af157600080fd5b505af415801562002b06573d6000803e3d6000fd5b505050506040513d601f19601f8201168201806040525081019062002b2c919062003750565b6001600160a01b03161562002d0d57601160009054906101000a90046001600160a01b03166001600160a01b0316633659cfe673__AddressLibrary________________________63f4ce9ae873__Library_______________________________63caa8f589600d60048154811062002baa5762002baa620040f8565b906000526020600020016040518263ffffffff1660e01b815260040162002bd2919062003e6d565b60006040518083038186803b15801562002beb57600080fd5b505af415801562002c00573d6000803e3d6000fd5b505050506040513d6000823e601f3d908101601f1916820160405262002c2a91908101906200397b565b60008151811062002c3f5762002c3f620040f8565b60200260200101516040518263ffffffff1660e01b815260040162002c6691815260200190565b60206040518083038186803b15801562002c7f57600080fd5b505af415801562002c94573d6000803e3d6000fd5b505050506040513d601f19601f8201168201806040525081019062002cba919062003750565b6040518263ffffffff1660e01b815260040162002cd8919062003d12565b600060405180830381600087803b15801562002cf357600080fd5b505af115801562002d08573d6000803e3d6000fd5b505050505b73__AddressLibrary________________________63f4ce9ae873__Library_______________________________63caa8f589600d60068154811062002d585762002d58620040f8565b906000526020600020016040518263ffffffff1660e01b815260040162002d80919062003e6d565b60006040518083038186803b15801562002d9957600080fd5b505af415801562002dae573d6000803e3d6000fd5b505050506040513d6000823e601f3d908101601f1916820160405262002dd891908101906200397b565b60008151811062002ded5762002ded620040f8565b60200260200101516040518263ffffffff1660e01b815260040162002e1491815260200190565b60206040518083038186803b15801562002e2d57600080fd5b505af415801562002e42573d6000803e3d6000fd5b505050506040513d601f19601f8201168201806040525081019062002e68919062003750565b6001600160a01b0316156200304957601360009054906101000a90046001600160a01b03166001600160a01b0316633659cfe673__AddressLibrary________________________63f4ce9ae873__Library_______________________________63caa8f589600d60068154811062002ee65762002ee6620040f8565b906000526020600020016040518263ffffffff1660e01b815260040162002f0e919062003e6d565b60006040518083038186803b15801562002f2757600080fd5b505af415801562002f3c573d6000803e3d6000fd5b505050506040513d6000823e601f3d908101601f1916820160405262002f6691908101906200397b565b60008151811062002f7b5762002f7b620040f8565b60200260200101516040518263ffffffff1660e01b815260040162002fa291815260200190565b60206040518083038186803b15801562002fbb57600080fd5b505af415801562002fd0573d6000803e3d6000fd5b505050506040513d601f19601f8201168201806040525081019062002ff6919062003750565b6040518263ffffffff1660e01b815260040162003014919062003d12565b600060405180830381600087803b1580156200302f57600080fd5b505af115801562003044573d6000803e3d6000fd5b505050505b600d601281548110620030605762003060620040f8565b906000526020600020018054620030779062004087565b1590506200310a57601054600d80546001600160a01b039092169163ce50ac7691906012908110620030ad57620030ad620040f8565b906000526020600020016040518263ffffffff1660e01b8152600401620030d5919062003e6d565b600060405180830381600087803b158015620030f057600080fd5b505af115801562003105573d6000803e3d6000fd5b505050505b600d601381548110620031215762003121620040f8565b906000526020600020018054620031389062004087565b159050620031cb57601054600d80546001600160a01b0390921691631dd5862c919060139081106200316e576200316e620040f8565b906000526020600020016040518263ffffffff1660e01b815260040162003196919062003e6d565b600060405180830381600087803b158015620031b157600080fd5b505af1158015620031c6573d6000803e3d6000fd5b505050505b6014547f10fa61e7dce22daa90a766d2f7d1a6a46735d88777552796dce5c4e8a736a79b9062003204906001600160a01b031662000cd7565b6015546200321b906001600160a01b031662000cd7565b60165462003232906001600160a01b031662000cd7565b60105462003249906001600160a01b031662000cd7565b62003253620017e6565b6012546200326a906001600160a01b031662000cd7565b6200327462000e1e565b6017546200328b906001600160a01b031662000cd7565b601854620032a2906001600160a01b031662000cd7565b601954620032b9906001600160a01b031662000cd7565b604080516001600160a01b039b8c168152998b1660208b0152978a16898901529589166060890152938816608088015291871660a0870152861660c0860152851660e085015284166101008401529092166101208201529051908190036101400190a1565b600073__AddressLibrary________________________63f4ce9ae873__Library_______________________________63caa8f589866040518263ffffffff1660e01b815260040162003373919062003e58565b60006040518083038186803b1580156200338c57600080fd5b505af4158015620033a1573d6000803e3d6000fd5b505050506040513d6000823e601f3d908101601f19168201604052620033cb91908101906200397b565b600081518110620033e057620033e0620040f8565b60200260200101516040518263ffffffff1660e01b81526004016200340791815260200190565b60206040518083038186803b1580156200342057600080fd5b505af415801562003435573d6000803e3d6000fd5b505050506040513d601f19601f820116820180604052508101906200345b919062003750565b90506001600160a01b03811615620006d057815115620034e557600f54604051639623609d60e01b81526001600160a01b0390911690639623609d90620034ab9087908590879060040162003e82565b600060405180830381600087803b158015620034c657600080fd5b505af1158015620034db573d6000803e3d6000fd5b50505050620006d0565b600f5460405163266a23b160e21b81526001600160a01b03909116906399a88ec49062003519908790859060040162003d26565b600060405180830381600087803b1580156200353457600080fd5b505af115801562003549573d6000803e3d6000fd5b5050505050505050565b6107bd806200414a83390190565b8280546200356f9062004087565b90600052602060002090601f016020900481019282620035935760008555620035de565b82601f10620035ae57805160ff1916838001178555620035de565b82800160010185558215620035de579182015b82811115620035de578251825591602001919060010190620035c1565b50620035ec9291506200362c565b5090565b610f30806200490783390190565b610523806200583783390190565b508054600082559060005260206000209081019062000901919062003643565b5b80821115620035ec57600081556001016200362d565b80821115620035ec5760006200365a828262003664565b5060010162003643565b508054620036729062004087565b6000825580601f1062003683575050565b601f0160209004906000526020600020908101906200090191906200362c565b600082601f830112620036b557600080fd5b81356001600160401b03811115620036d157620036d16200410e565b620036e6601f8201601f191660200162003fb4565b818152846020838601011115620036fc57600080fd5b816020850160208301376000918101602001919091529392505050565b805160ff811681146200372b57600080fd5b919050565b6000602082840312156200374357600080fd5b813562001ef38162004124565b6000602082840312156200376357600080fd5b815162001ef38162004124565b600080600080608085870312156200378757600080fd5b8435620037948162004124565b93506020850135620037a68162004124565b925060408501356001600160401b0380821115620037c357600080fd5b620037d188838901620036a3565b93506060870135915080821115620037e857600080fd5b50620037f787828801620036a3565b91505092959194509250565b6000806000606084860312156200381957600080fd5b8335620038268162004124565b92506020840135620038388162004124565b929592945050506040919091013590565b6000806000606084860312156200385f57600080fd5b83356200386c8162004124565b925060208401356001600160401b03808211156200388957600080fd5b6200389787838801620036a3565b93506040860135915080821115620038ae57600080fd5b50620038bd86828701620036a3565b9150509250925092565b60008060408385031215620038db57600080fd5b8235620038e88162004124565b946020939093013593505050565b60008060008060008060c087890312156200391057600080fd5b86356200391d8162004124565b955060208701359450604087013562003936816200413a565b9350606087013592506080870135915060a08701356001600160401b038111156200396057600080fd5b6200396e89828a01620036a3565b9150509295509295509295565b600060208083850312156200398f57600080fd5b82516001600160401b03811115620039a657600080fd5b8301601f81018513620039b857600080fd5b8051620039cf620039c98262003fe7565b62003fb4565b80828252848201915084840188868560051b8701011115620039f057600080fd5b600094505b8385101562003a15578051835260019490940193918501918501620039f5565b50979650505050505050565b6000602080838503121562003a3557600080fd5b82356001600160401b038082111562003a4d57600080fd5b818501915085601f83011262003a6257600080fd5b813562003a73620039c98262003fe7565b80828252858201915085850189878560051b880101111562003a9457600080fd5b6000805b8581101562003ad45782358781111562003ab0578283fd5b62003ac08d8b838c0101620036a3565b865250938801939188019160010162003a98565b50919a9950505050505050505050565b60006020828403121562003af757600080fd5b813562001ef3816200413a565b60006020828403121562003b1757600080fd5b815162001ef3816200413a565b60006020828403121562003b3757600080fd5b81356001600160401b0381111562003b4e57600080fd5b8201610280818503121562001ef357600080fd5b60006020828403121562003b7557600080fd5b5051919050565b6000806040838503121562003b9057600080fd5b82359150602083013562003ba48162004124565b809150509250929050565b60008060006060848603121562003bc557600080fd5b8351925062003bd76020850162003719565b915062003be76040850162003719565b90509250925092565b81835281816020850137506000828201602090810191909152601f909101601f19169091010190565b6000815180845260005b8181101562003c415760208185018101518683018201520162003c23565b8181111562003c54576000602083870101525b50601f01601f19169290920160200192915050565b8054600090600181811c908083168062003c8457607f831692505b602080841082141562003ca757634e487b7160e01b600052602260045260246000fd5b83885281801562003cc1576001811462003cd65762003d06565b60ff1986168983015260408901965062003d06565b876000528160002060005b8681101562003cfe5781548b820185015290850190830162003ce1565b8a0183019750505b50505050505092915050565b6001600160a01b0391909116815260200190565b6001600160a01b0392831681529116602082015260400190565b6001600160a01b0385811682528416602082015260606040820181905260009062003d6f908301848662003bf0565b9695505050505050565b600061010060018060a01b038b16835289602084015288151560408401528760608401528660808401528060a084015262003db78184018762003c19565b905082810360c084015262003dcd818662003c69565b905082810360e084015262003de3818562003c69565b9b9a5050505050505050505050565b6000602080830181845280855180835260408601915060408160051b870101925083870160005b8281101562003e4b57603f1988860301845262003e3885835162003c19565b9450928501929085019060010162003e19565b5092979650505050505050565b60208152600062001ef3602083018462003c19565b60208152600062001ef3602083018462003c69565b6001600160a01b0384811682528316602082015260606040820181905260009062003eb09083018462003c19565b95945050505050565b60208152600062003ecf60208301848662003bf0565b949350505050565b60408152600062003eec604083018562003c19565b828103602084015262003eb0818562003c19565b6020808252602e908201527f496e697469616c697a61626c653a20636f6e747261637420697320616c72656160408201526d191e481a5b9a5d1a585b1a5e995960921b606082015260800190565b9283526020830191909152604082015260600190565b6000808335601e1984360301811262003f7c57600080fd5b8301803591506001600160401b0382111562003f9757600080fd5b60200191503681900382131562003fad57600080fd5b9250929050565b604051601f8201601f191681016001600160401b038111828210171562003fdf5762003fdf6200410e565b604052919050565b60006001600160401b038211156200400357620040036200410e565b5060051b60200190565b60008219821115620040235762004023620040e2565b500190565b6000826200404657634e487b7160e01b600052601260045260246000fd5b500490565b6000816000190483118215151615620040685762004068620040e2565b500290565b600082821015620040825762004082620040e2565b500390565b600181811c908216806200409c57607f821691505b60208210811415620040be57634e487b7160e01b600052602260045260246000fd5b50919050565b6000600019821415620040db57620040db620040e2565b5060010190565b634e487b7160e01b600052601160045260246000fd5b634e487b7160e01b600052603260045260246000fd5b634e487b7160e01b600052604160045260246000fd5b6001600160a01b03811681146200090157600080fd5b80151581146200090157600080fdfe608060405234801561001057600080fd5b5061001a3361001f565b61006f565b600080546001600160a01b038381166001600160a01b0319831681178455604051919092169283917f8be0079c531659141344cd1fd0a4f28419497f9722a3daafe3b4186f6b6457e09190a35050565b61073f8061007e6000396000f3fe60806040526004361061006b5760003560e01c8063204e1c7a14610070578063715018a6146100a65780637eff275e146100bd5780638da5cb5b146100dd5780639623609d146100f257806399a88ec414610105578063f2fde38b14610125578063f3b7dead14610145575b600080fd5b34801561007c57600080fd5b5061009061008b3660046104e1565b610165565b60405161009d9190610630565b60405180910390f35b3480156100b257600080fd5b506100bb6101f6565b005b3480156100c957600080fd5b506100bb6100d8366004610522565b61023a565b3480156100e957600080fd5b506100906102cb565b6100bb61010036600461055b565b6102da565b34801561011157600080fd5b506100bb610120366004610522565b610370565b34801561013157600080fd5b506100bb6101403660046104e1565b6103cb565b34801561015157600080fd5b506100906101603660046104e1565b61046b565b6000806000836001600160a01b031660405161018b90635c60da1b60e01b815260040190565b600060405180830381855afa9150503d80600081146101c6576040519150601f19603f3d011682016040523d82523d6000602084013e6101cb565b606091505b5091509150816101da57600080fd5b808060200190518101906101ee9190610505565b949350505050565b336101ff6102cb565b6001600160a01b03161461022e5760405162461bcd60e51b8152600401610225906106a9565b60405180910390fd5b6102386000610491565b565b336102436102cb565b6001600160a01b0316146102695760405162461bcd60e51b8152600401610225906106a9565b6040516308f2839760e41b81526001600160a01b03831690638f28397090610295908490600401610630565b600060405180830381600087803b1580156102af57600080fd5b505af11580156102c3573d6000803e3d6000fd5b505050505050565b6000546001600160a01b031690565b336102e36102cb565b6001600160a01b0316146103095760405162461bcd60e51b8152600401610225906106a9565b60405163278f794360e11b81526001600160a01b03841690634f1ef2869034906103399086908690600401610644565b6000604051808303818588803b15801561035257600080fd5b505af1158015610366573d6000803e3d6000fd5b5050505050505050565b336103796102cb565b6001600160a01b03161461039f5760405162461bcd60e51b8152600401610225906106a9565b604051631b2ce7f360e11b81526001600160a01b03831690633659cfe690610295908490600401610630565b336103d46102cb565b6001600160a01b0316146103fa5760405162461bcd60e51b8152600401610225906106a9565b6001600160a01b03811661045f5760405162461bcd60e51b815260206004820152602660248201527f4f776e61626c653a206e6577206f776e657220697320746865207a65726f206160448201526564647265737360d01b6064820152608401610225565b61046881610491565b50565b6000806000836001600160a01b031660405161018b906303e1469160e61b815260040190565b600080546001600160a01b038381166001600160a01b0319831681178455604051919092169283917f8be0079c531659141344cd1fd0a4f28419497f9722a3daafe3b4186f6b6457e09190a35050565b6000602082840312156104f357600080fd5b81356104fe816106f4565b9392505050565b60006020828403121561051757600080fd5b81516104fe816106f4565b6000806040838503121561053557600080fd5b8235610540816106f4565b91506020830135610550816106f4565b809150509250929050565b60008060006060848603121561057057600080fd5b833561057b816106f4565b9250602084013561058b816106f4565b915060408401356001600160401b03808211156105a757600080fd5b818601915086601f8301126105bb57600080fd5b8135818111156105cd576105cd6106de565b604051601f8201601f19908116603f011681019083821181831017156105f5576105f56106de565b8160405282815289602084870101111561060e57600080fd5b8260208601602083013760006020848301015280955050505050509250925092565b6001600160a01b0391909116815260200190565b60018060a01b038316815260006020604081840152835180604085015260005b8181101561068057858101830151858201606001528201610664565b81811115610692576000606083870101525b50601f01601f191692909201606001949350505050565b6020808252818101527f4f776e61626c653a2063616c6c6572206973206e6f7420746865206f776e6572604082015260600190565b634e487b7160e01b600052604160045260246000fd5b6001600160a01b038116811461046857600080fdfea26469706673582212207240b38990a52bc008f8ef6148c6f36363b8fbb55bee70cee697cb8e4d4c00ce64736f6c63430008070033608060405260405162000f3038038062000f308339810160408190526200002691620004c2565b82816200005560017f360894a13ba1a3210667c828492db98dca3e2076cc3735a920a3ca505d382bbd620005f5565b60008051602062000ee9833981519152146200007557620000756200064a565b6200008382826000620000e7565b50620000b3905060017fb53127684a568b3173ae13b9f8a6016e243e63b6e8ee1178d6a717850b5d6104620005f5565b60008051602062000ec983398151915214620000d357620000d36200064a565b620000de8262000124565b50505062000676565b620000f2836200017f565b600082511180620001005750805b156200011f576200011d8383620001c160201b620002601760201c565b505b505050565b7f7e644d79422f17c01e4894b5f4f588d331ebfa28653d42ae832dc59e38c9798f6200014f620001f0565b604080516001600160a01b03928316815291841660208301520160405180910390a16200017c8162000229565b50565b6200018a81620002de565b6040516001600160a01b038216907fbc7cd75a20ee27fd9adebab32041f755214dbc6bffa90cc0225b39da2e5c2d3b90600090a250565b6060620001e9838360405180606001604052806027815260200162000f096027913962000381565b9392505050565b60006200021a60008051602062000ec983398151915260001b6200045e60201b620002081760201c565b546001600160a01b0316919050565b6001600160a01b038116620002945760405162461bcd60e51b815260206004820152602660248201527f455243313936373a206e65772061646d696e20697320746865207a65726f206160448201526564647265737360d01b60648201526084015b60405180910390fd5b80620002bd60008051602062000ec983398151915260001b6200045e60201b620002081760201c565b80546001600160a01b0319166001600160a01b039290921691909117905550565b620002f4816200046160201b6200028c1760201c565b620003585760405162461bcd60e51b815260206004820152602d60248201527f455243313936373a206e657720696d706c656d656e746174696f6e206973206e60448201526c1bdd08184818dbdb9d1c9858dd609a1b60648201526084016200028b565b80620002bd60008051602062000ee983398151915260001b6200045e60201b620002081760201c565b6060833b620003e25760405162461bcd60e51b815260206004820152602660248201527f416464726573733a2064656c65676174652063616c6c20746f206e6f6e2d636f6044820152651b9d1c9858dd60d21b60648201526084016200028b565b600080856001600160a01b031685604051620003ff9190620005a2565b600060405180830381855af49150503d80600081146200043c576040519150601f19603f3d011682016040523d82523d6000602084013e62000441565b606091505b5090925090506200045482828662000467565b9695505050505050565b90565b3b151590565b6060831562000478575081620001e9565b825115620004895782518084602001fd5b8160405162461bcd60e51b81526004016200028b9190620005c0565b80516001600160a01b0381168114620004bd57600080fd5b919050565b600080600060608486031215620004d857600080fd5b620004e384620004a5565b9250620004f360208501620004a5565b60408501519092506001600160401b03808211156200051157600080fd5b818601915086601f8301126200052657600080fd5b8151818111156200053b576200053b62000660565b604051601f8201601f19908116603f0116810190838211818310171562000566576200056662000660565b816040528281528960208487010111156200058057600080fd5b620005938360208301602088016200061b565b80955050505050509250925092565b60008251620005b68184602087016200061b565b9190910192915050565b6020815260008251806020840152620005e18160408501602087016200061b565b601f01601f19169190910160400192915050565b6000828210156200061657634e487b7160e01b600052601160045260246000fd5b500390565b60005b83811015620006385781810151838201526020016200061e565b838111156200011d5750506000910152565b634e487b7160e01b600052600160045260246000fd5b634e487b7160e01b600052604160045260246000fd5b61084380620006866000396000f3fe60806040526004361061004e5760003560e01c80633659cfe6146100655780634f1ef286146100855780635c60da1b146100985780638f283970146100c9578063f851a440146100e95761005d565b3661005d5761005b6100fe565b005b61005b6100fe565b34801561007157600080fd5b5061005b61008036600461068e565b610118565b61005b6100933660046106a9565b61015f565b3480156100a457600080fd5b506100ad6101d0565b6040516001600160a01b03909116815260200160405180910390f35b3480156100d557600080fd5b5061005b6100e436600461068e565b61020b565b3480156100f557600080fd5b506100ad610235565b610106610292565b610116610111610331565b61033b565b565b61012061035f565b6001600160a01b0316336001600160a01b031614156101575761015481604051806020016040528060008152506000610380565b50565b6101546100fe565b61016761035f565b6001600160a01b0316336001600160a01b031614156101c8576101c38383838080601f01602080910402602001604051908101604052809392919081815260200183838082843760009201919091525060019250610380915050565b505050565b6101c36100fe565b60006101da61035f565b6001600160a01b0316336001600160a01b03161415610200576101fb610331565b905090565b6102086100fe565b90565b61021361035f565b6001600160a01b0316336001600160a01b0316141561015757610154816103ab565b600061023f61035f565b6001600160a01b0316336001600160a01b03161415610200576101fb61035f565b606061028583836040518060600160405280602781526020016107e7602791396103ff565b9392505050565b3b151590565b61029a61035f565b6001600160a01b0316336001600160a01b031614156101165760405162461bcd60e51b815260206004820152604260248201527f5472616e73706172656e745570677261646561626c6550726f78793a2061646d60448201527f696e2063616e6e6f742066616c6c6261636b20746f2070726f78792074617267606482015261195d60f21b608482015260a4015b60405180910390fd5b60006101fb6104d3565b3660008037600080366000845af43d6000803e80801561035a573d6000f35b3d6000fd5b60006000805160206107a78339815191525b546001600160a01b0316919050565b610389836104e9565b6000825111806103965750805b156101c3576103a58383610260565b50505050565b7f7e644d79422f17c01e4894b5f4f588d331ebfa28653d42ae832dc59e38c9798f6103d461035f565b604080516001600160a01b03928316815291841660208301520160405180910390a161015481610529565b6060833b61045e5760405162461bcd60e51b815260206004820152602660248201527f416464726573733a2064656c65676174652063616c6c20746f206e6f6e2d636f6044820152651b9d1c9858dd60d21b6064820152608401610328565b600080856001600160a01b031685604051610479919061072b565b600060405180830381855af49150503d80600081146104b4576040519150601f19603f3d011682016040523d82523d6000602084013e6104b9565b606091505b50915091506104c98282866105c0565b9695505050505050565b60006000805160206107c7833981519152610371565b6104f2816105f9565b6040516001600160a01b038216907fbc7cd75a20ee27fd9adebab32041f755214dbc6bffa90cc0225b39da2e5c2d3b90600090a250565b6001600160a01b03811661058e5760405162461bcd60e51b815260206004820152602660248201527f455243313936373a206e65772061646d696e20697320746865207a65726f206160448201526564647265737360d01b6064820152608401610328565b806000805160206107a78339815191525b80546001600160a01b0319166001600160a01b039290921691909117905550565b606083156105cf575081610285565b8251156105df5782518084602001fd5b8160405162461bcd60e51b81526004016103289190610747565b803b61065d5760405162461bcd60e51b815260206004820152602d60248201527f455243313936373a206e657720696d706c656d656e746174696f6e206973206e60448201526c1bdd08184818dbdb9d1c9858dd609a1b6064820152608401610328565b806000805160206107c783398151915261059f565b80356001600160a01b038116811461068957600080fd5b919050565b6000602082840312156106a057600080fd5b61028582610672565b6000806000604084860312156106be57600080fd5b6106c784610672565b925060208401356001600160401b03808211156106e357600080fd5b818601915086601f8301126106f757600080fd5b81358181111561070657600080fd5b87602082850101111561071857600080fd5b6020830194508093505050509250925092565b6000825161073d81846020870161077a565b9190910192915050565b602081526000825180602084015261076681604085016020870161077a565b601f01601f19169190910160400192915050565b60005b8381101561079557818101518382015260200161077d565b838111156103a5575050600091015256feb53127684a568b3173ae13b9f8a6016e243e63b6e8ee1178d6a717850b5d6103360894a13ba1a3210667c828492db98dca3e2076cc3735a920a3ca505d382bbc416464726573733a206c6f772d6c6576656c2064656c65676174652063616c6c206661696c6564a2646970667358221220bf234746908c6f46655f3e5bb4f0abadaeb249c68beba1c928f2af74deb56e2264736f6c63430008070033b53127684a568b3173ae13b9f8a6016e243e63b6e8ee1178d6a717850b5d6103360894a13ba1a3210667c828492db98dca3e2076cc3735a920a3ca505d382bbc416464726573733a206c6f772d6c6576656c2064656c65676174652063616c6c206661696c6564608060405234801561001057600080fd5b5060405161052338038061052383398101604081905261002f91610148565b61003833610047565b61004181610097565b50610178565b600080546001600160a01b038381166001600160a01b0319831681178455604051919092169283917f8be0079c531659141344cd1fd0a4f28419497f9722a3daafe3b4186f6b6457e09190a35050565b6100aa8161014260201b61021f1760201c565b6101205760405162461bcd60e51b815260206004820152603360248201527f5570677261646561626c65426561636f6e3a20696d706c656d656e746174696f60448201527f6e206973206e6f74206120636f6e747261637400000000000000000000000000606482015260840160405180910390fd5b600180546001600160a01b0319166001600160a01b0392909216919091179055565b3b151590565b60006020828403121561015a57600080fd5b81516001600160a01b038116811461017157600080fd5b9392505050565b61039c806101876000396000f3fe608060405234801561001057600080fd5b50600436106100575760003560e01c80633659cfe61461005c5780635c60da1b14610071578063715018a61461009a5780638da5cb5b146100a2578063f2fde38b146100aa575b600080fd5b61006f61006a366004610301565b6100bd565b005b6001546001600160a01b03165b6040516001600160a01b03909116815260200160405180910390f35b61006f610135565b61007e610170565b61006f6100b8366004610301565b61017f565b336100c6610170565b6001600160a01b0316146100f55760405162461bcd60e51b81526004016100ec90610331565b60405180910390fd5b6100fe81610225565b6040516001600160a01b038216907fbc7cd75a20ee27fd9adebab32041f755214dbc6bffa90cc0225b39da2e5c2d3b90600090a250565b3361013e610170565b6001600160a01b0316146101645760405162461bcd60e51b81526004016100ec90610331565b61016e60006102b1565b565b6000546001600160a01b031690565b33610188610170565b6001600160a01b0316146101ae5760405162461bcd60e51b81526004016100ec90610331565b6001600160a01b0381166102135760405162461bcd60e51b815260206004820152602660248201527f4f776e61626c653a206e6577206f776e657220697320746865207a65726f206160448201526564647265737360d01b60648201526084016100ec565b61021c816102b1565b50565b3b151590565b803b61028f5760405162461bcd60e51b815260206004820152603360248201527f5570677261646561626c65426561636f6e3a20696d706c656d656e746174696f6044820152721b881a5cc81b9bdd08184818dbdb9d1c9858dd606a1b60648201526084016100ec565b600180546001600160a01b0319166001600160a01b0392909216919091179055565b600080546001600160a01b038381166001600160a01b0319831681178455604051919092169283917f8be0079c531659141344cd1fd0a4f28419497f9722a3daafe3b4186f6b6457e09190a35050565b60006020828403121561031357600080fd5b81356001600160a01b038116811461032a57600080fd5b9392505050565b6020808252818101527f4f776e61626c653a2063616c6c6572206973206e6f7420746865206f776e657260408201526060019056fea2646970667358221220b1e86d9e5a9827481ff081a46fc0ff448af58190927b3eac96f691d6bcdce0a964736f6c63430008070033a2646970667358221220bf263c12ba16fa199cdd958eb8ab7c4b71f1745a372dc680d46583d0172cba2d64736f6c63430008070033",
  "immutableReferences": {},
  "source": "// SPDX-License-Identifier: GPL-3.0\r\n\r\npragma solidity 0.8.7;\r\n\r\n/**\r\n * @title Storage\r\n * @dev Store & retrieve value in a variable\r\n */\r\n\r\nimport \"../Interfaces/IManager.sol\";\r\nimport \"../Interfaces/IFactory.sol\";\r\nimport \"../Base/StdPropositionBaseContract.sol\";\r\nimport \"../Libraries/AddressLibrary.sol\";\r\nimport \"../Libraries/Library.sol\";\r\nimport \"@openzeppelin/contracts-upgradeable/proxy/utils/Initializable.sol\";\r\nimport \"@openzeppelin/contracts/proxy/beacon/UpgradeableBeacon.sol\";\r\nimport \"@openzeppelin/contracts/proxy/transparent/TransparentUpgradeableProxy.sol\";\r\nimport \"@openzeppelin/contracts/proxy/transparent/ProxyAdmin.sol\";\r\n\r\n\r\ncontract CertificatesPoolManager is IManager, StdPropositionBaseContract{\r\n    using AddressLibrary for *;\r\n    using Library for *;\r\n\r\n    // EVENTS /////////////////////////////////////////\r\n    event _NewContracts(address Public, address Treasury, address Certis, address PrivateFactory, \r\n    address Private, address ProviderFactory, address Provider, address PriceConverter, \r\n    address PropositionSettings, address ENS);\r\n\r\n    // DATA /////////////////////////////////////////\r\n    address private _ManagerOwner;\r\n\r\n    // Admin Proxy to manage all the TransparentUpgradeableProxies\r\n    ProxyAdmin private _Admin;\r\n\r\n    // Private Certificate Pools Factory\r\n    TransparentUpgradeableProxy private _PrivatePoolFactory;\r\n\r\n    // Private Certificates Pool\r\n    UpgradeableBeacon private _PrivateCertificatePoolBeacon;\r\n\r\n    // Provider Factory\r\n    TransparentUpgradeableProxy private _ProviderFactory;\r\n\r\n    // Provider\r\n    UpgradeableBeacon private _ProviderBeacon;\r\n\r\n    // Public Certificates Pool\r\n    TransparentUpgradeableProxy private _PublicCertificatesPool;\r\n\r\n    // Treasury\r\n    TransparentUpgradeableProxy private _Treasury;\r\n\r\n    // Certis Token\r\n    TransparentUpgradeableProxy private _CertisToken;\r\n\r\n    // Price Converter\r\n    TransparentUpgradeableProxy private _PriceConverter;\r\n\r\n    // Proposition Settings\r\n    TransparentUpgradeableProxy private _PropositionSettings;\r\n\r\n    // ENS\r\n    TransparentUpgradeableProxy private _ENS;\r\n\r\n    // init\r\n    bool private _init;\r\n\r\n    // MODIFIERS /////////////////////////////////////////\r\n    modifier isOwner(address addr){\r\n        Library.ItIsSomeone(addr, _ManagerOwner);\r\n        _;\r\n    }\r\n\r\n    modifier isNotInitialized(){\r\n        require(false == _init, \"EC26-\");\r\n        _;\r\n    }\r\n\r\n    // INITIALIZATION /////////////////////////////////////////\r\n    function CertificatesPoolManager_init(address chairPerson, string memory contractName, string memory contractVersion) public initializer\r\n    {\r\n        super.StdPropositionBaseContract_init(chairPerson, address(this), contractName, contractVersion);\r\n        _Admin = new ProxyAdmin();\r\n    }\r\n\r\n    function InitializeContracts(Library.ProposedContractsStruct calldata initialContracts) \r\n        isFromChairPerson(msg.sender)\r\n        isNotInitialized()\r\n    external override\r\n    {\r\n        initProxies(initialContracts);\r\n        _init = true;\r\n    }\r\n\r\n    // FUNCTIONALITY /////////////////////////////////////////\r\n    // governance : contracts assignment and management\r\n    function initProxies(Library.ProposedContractsStruct calldata initialContracts) private\r\n    {\r\n        _PublicCertificatesPool = new TransparentUpgradeableProxy(initialContracts.NewPublicPoolAddress, address(_Admin), initialContracts.NewPublicPoolData);\r\n        _Treasury = new TransparentUpgradeableProxy(initialContracts.NewTreasuryAddress, address(_Admin), initialContracts.NewTreasuryData);\r\n        _CertisToken = new TransparentUpgradeableProxy(initialContracts.NewCertisTokenAddress, address(_Admin), initialContracts.NewCertisTokenData);\r\n        _PrivatePoolFactory = new TransparentUpgradeableProxy(initialContracts.NewPrivatePoolFactoryAddress, address(_Admin), initialContracts.NewPrivatePoolFactoryData);\r\n        _PrivateCertificatePoolBeacon = new UpgradeableBeacon(initialContracts.NewPrivatePoolAddress);\r\n        _ProviderFactory = new TransparentUpgradeableProxy(initialContracts.NewProviderFactoryAddress, address(_Admin), initialContracts.NewProviderFactoryData);\r\n        _ProviderBeacon = new UpgradeableBeacon(initialContracts.NewProviderAddress);\r\n        _PriceConverter = new TransparentUpgradeableProxy(initialContracts.NewPriceConverterAddress, address(_Admin), initialContracts.NewPriceConverterData);\r\n        _PropositionSettings = new TransparentUpgradeableProxy(initialContracts.NewPropositionSettingsAddress, address(_Admin), initialContracts.NewPropositionSettingsData);\r\n        _ENS = new TransparentUpgradeableProxy(initialContracts.NewENSAddress, address(_Admin), initialContracts.NewENSData);\r\n\r\n        IFactory(address(_PrivatePoolFactory)).updateContractName(initialContracts.NewPrivatePoolContractName);\r\n        IFactory(address(_PrivatePoolFactory)).updateContractVersion(initialContracts.NewPrivatePoolContractVersion);\r\n    }\r\n\r\n    function UpdateAll() internal override\r\n    {\r\n        upgradeContractImplementation(_PublicCertificatesPool, _ProposedNewValues[0], _ProposedNewValues[10]);\r\n        upgradeContractImplementation(_Treasury, _ProposedNewValues[1], _ProposedNewValues[11]);\r\n        upgradeContractImplementation(_CertisToken, _ProposedNewValues[2], _ProposedNewValues[12]);\r\n        upgradeContractImplementation(_PrivatePoolFactory, _ProposedNewValues[3], _ProposedNewValues[13]);\r\n        upgradeContractImplementation(_ProviderFactory, _ProposedNewValues[5],_ProposedNewValues[14]);\r\n        upgradeContractImplementation(_PriceConverter, _ProposedNewValues[7], _ProposedNewValues[15]);\r\n        upgradeContractImplementation(_PropositionSettings, _ProposedNewValues[8], _ProposedNewValues[16]);\r\n        upgradeContractImplementation(_ENS, _ProposedNewValues[9],_ProposedNewValues[17]);\r\n\r\n        if(address(0) != AddressLibrary.Bytes32ToAddress(Library.BytestoBytes32(_ProposedNewValues[4])[0]))_PrivateCertificatePoolBeacon.upgradeTo(AddressLibrary.Bytes32ToAddress(Library.BytestoBytes32(_ProposedNewValues[4])[0]));\r\n        if(address(0) != AddressLibrary.Bytes32ToAddress(Library.BytestoBytes32(_ProposedNewValues[6])[0]))_ProviderBeacon.upgradeTo(AddressLibrary.Bytes32ToAddress(Library.BytestoBytes32(_ProposedNewValues[6])[0]));\r\n\r\n        if(0 < _ProposedNewValues[18].length)\r\n            IFactory(address(_PrivatePoolFactory)).updateContractName(string(_ProposedNewValues[18]));\r\n\r\n        if(0 < _ProposedNewValues[19].length)\r\n            IFactory(address(_PrivatePoolFactory)).updateContractVersion(string(_ProposedNewValues[19]));\r\n        \r\n        emit _NewContracts(internalRetrieveImpl(_PublicCertificatesPool), internalRetrieveImpl(_Treasury), \r\n        internalRetrieveImpl(_CertisToken), internalRetrieveImpl(_PrivatePoolFactory), \r\n        internalRetrievePrivatePool(), internalRetrieveImpl(_ProviderFactory), internalRetrieveProvider(),\r\n        internalRetrieveImpl(_PriceConverter), internalRetrieveImpl(_PropositionSettings), internalRetrieveImpl(_ENS));\r\n    }\r\n\r\n    function upgradeContractImplementation(TransparentUpgradeableProxy proxy, bytes memory NewImpl, bytes memory Data) private\r\n    {\r\n        address NewImplAddress = AddressLibrary.Bytes32ToAddress(Library.BytestoBytes32(NewImpl)[0]);\r\n        if(address(0) != NewImplAddress){\r\n            if(0 < Data.length)_Admin.upgradeAndCall(proxy, NewImplAddress, Data);\r\n            else _Admin.upgrade(proxy, NewImplAddress);\r\n        }\r\n    }\r\n\r\n\r\n    // configuration Proxies\r\n    function retrievePublicCertificatePoolProxy() external override view returns (address) {\r\n        return (address(_PublicCertificatesPool));\r\n    }\r\n\r\n    function retrieveTreasuryProxy() external override view returns (address) {\r\n        return (address(_Treasury));\r\n    }\r\n\r\n    function retrieveCertisTokenProxy() external override view returns (address) {\r\n        return (address(_CertisToken));\r\n    }\r\n\r\n    function retrievePrivatePoolFactoryProxy() external override view returns (address) {\r\n        return (address(_PrivatePoolFactory));\r\n    }\r\n\r\n    function retrievePrivatePoolBeacon() external override view returns (address) {\r\n        return (address(_PrivateCertificatePoolBeacon));\r\n    }\r\n\r\n    function retrieveProviderFactoryProxy() external override view returns (address) {\r\n        return (address(_ProviderFactory));\r\n    }\r\n\r\n    function retrieveProviderBeacon() external override view returns (address) {\r\n        return (address(_ProviderBeacon));\r\n    }\r\n\r\n    function retrievePriceConverterProxy() external override view returns (address) {\r\n        return (address(_PriceConverter));\r\n    }\r\n\r\n    function retrievePropositionSettingsProxy() external override view returns (address) {\r\n        return (address(_PropositionSettings));\r\n    }\r\n\r\n    function retrieveENSProxy() external override view returns (address) {\r\n        return (address(_ENS));\r\n    }\r\n\r\n    // configuration implementations\r\n    function retrievePublicCertificatePool() external override view returns (address) {\r\n        return internalRetrieveImpl(_PublicCertificatesPool);\r\n    }\r\n\r\n    function retrieveTreasury() external override view returns (address) {\r\n        return internalRetrieveImpl(_Treasury);\r\n    }\r\n\r\n    function retrieveCertisToken() external override view returns (address) {\r\n        return internalRetrieveImpl(_CertisToken);\r\n    }\r\n\r\n    function retrievePrivatePoolFactory() external override view returns (address) {\r\n        return internalRetrieveImpl(_PrivatePoolFactory);\r\n    }\r\n\r\n    function retrievePrivatePool() external override view returns (address) {\r\n        return internalRetrievePrivatePool();\r\n    }\r\n\r\n    function retrieveProviderFactory() external override view returns (address) {\r\n        return internalRetrieveImpl(_ProviderFactory);\r\n    }\r\n\r\n    function retrieveProvider() external override view returns (address) {\r\n        return internalRetrieveProvider();\r\n    }\r\n\r\n    function retrievePriceConverter() external override view returns (address) {\r\n        return internalRetrieveImpl(_PriceConverter);\r\n    }\r\n\r\n    function retrievePropositionSettings() external override view returns (address) {\r\n        return internalRetrieveImpl(_PropositionSettings);\r\n    }\r\n\r\n    function retrieveENS() external override view returns (address) {\r\n        return internalRetrieveImpl(_ENS);\r\n    }\r\n\r\n    function isInitialized() external override view returns(bool){\r\n        return _init;\r\n    }\r\n\r\n    // internal\r\n    function internalRetrieveImpl(TransparentUpgradeableProxy proxy) internal view returns (address){\r\n        return _Admin.getProxyImplementation(proxy);\r\n    }\r\n\r\n    function internalRetrievePrivatePool() internal view returns (address) {\r\n        return _PrivateCertificatePoolBeacon.implementation();\r\n    }\r\n\r\n    function internalRetrieveProvider() internal view returns (address) {\r\n        return _ProviderBeacon.implementation();\r\n    }\r\n  \r\n}",
  "sourcePath": "C:/Users/d-aam/GitHub/Certificates/contracts/DeployedContracts/CertificatesPoolManager.sol",
  "compiler": {
    "name": "solc",
    "version": "0.8.7+commit.e28d00a7.Emscripten.clang"
  },
  "schemaVersion": "3.3.4",
  "updatedAt": "2021-11-03T10:08:13.913Z",
  "devdoc": {
    "kind": "dev",
    "methods": {},
    "version": 1
  },
  "userdoc": {
    "kind": "user",
    "methods": {},
    "version": 1
  }
}