{
  "contractName": "CertificatesPoolManager",
  "abi": [
    {
      "inputs": [
        {
          "internalType": "address[]",
          "name": "owners",
          "type": "address[]"
        },
        {
          "internalType": "uint256",
          "name": "minOwners",
          "type": "uint256"
        },
        {
          "internalType": "uint256",
          "name": "PublicPriceWei",
          "type": "uint256"
        },
        {
          "internalType": "uint256",
          "name": "PrivatePriceWei",
          "type": "uint256"
        }
      ],
      "stateMutability": "payable",
      "type": "constructor",
      "payable": true
    },
    {
      "anonymous": false,
      "inputs": [
        {
          "indexed": false,
          "internalType": "uint256",
          "name": "",
          "type": "uint256"
        },
        {
          "indexed": false,
          "internalType": "address",
          "name": "",
          "type": "address"
        },
        {
          "indexed": false,
          "internalType": "contract MultiSigCertificatesPool",
          "name": "",
          "type": "address"
        }
      ],
      "name": "_NewCertificatesPool",
      "type": "event"
    },
    {
      "anonymous": false,
      "inputs": [
        {
          "indexed": false,
          "internalType": "address",
          "name": "",
          "type": "address"
        }
      ],
      "name": "_SendProposalId",
      "type": "event"
    },
    {
      "inputs": [
        {
          "internalType": "address[]",
          "name": "owners",
          "type": "address[]"
        },
        {
          "internalType": "uint256",
          "name": "minOwners",
          "type": "uint256"
        }
      ],
      "name": "createPrivateCertificatesPool",
      "outputs": [],
      "stateMutability": "payable",
      "type": "function",
      "payable": true
    },
    {
      "inputs": [
        {
          "internalType": "uint256",
          "name": "certificatePoolId",
          "type": "uint256"
        }
      ],
      "name": "retrievePrivateCertificatesPool",
      "outputs": [
        {
          "internalType": "address",
          "name": "",
          "type": "address"
        },
        {
          "internalType": "contract MultiSigCertificatesPool",
          "name": "",
          "type": "address"
        }
      ],
      "stateMutability": "view",
      "type": "function",
      "constant": true
    },
    {
      "inputs": [],
      "name": "retrieveTotalPrivateCertificatesPool",
      "outputs": [
        {
          "internalType": "uint256",
          "name": "",
          "type": "uint256"
        }
      ],
      "stateMutability": "view",
      "type": "function",
      "constant": true
    },
    {
      "inputs": [
        {
          "internalType": "address",
          "name": "provider",
          "type": "address"
        },
        {
          "internalType": "string",
          "name": "providerInfo",
          "type": "string"
        }
      ],
      "name": "sendProposal",
      "outputs": [],
      "stateMutability": "payable",
      "type": "function",
      "payable": true
    },
    {
      "inputs": [],
      "name": "retrieveConfiguration",
      "outputs": [
        {
          "internalType": "contract MultiSigCertificatesPool",
          "name": "",
          "type": "address"
        },
        {
          "internalType": "address",
          "name": "",
          "type": "address"
        },
        {
          "internalType": "uint256",
          "name": "",
          "type": "uint256"
        }
      ],
      "stateMutability": "view",
      "type": "function",
      "constant": true
    }
  ],
  "bytecode": "0x60806040526040516174243803806174248339818101604052608081101561002657600080fd5b810190808051604051939291908464010000000082111561004657600080fd5b90830190602082018581111561005b57600080fd5b825186602082028301116401000000008211171561007857600080fd5b82525081516020918201928201910280838360005b838110156100a557818101518382015260200161008d565b50505050919091016040818152602084015190840151606090940151600580546001600160a01b031916331790556002859055600381905590955092935085915084906100f190610188565b60208082018390526040808352845190830152835182916060830191868201910280838360005b83811015610130578181015183820152602001610118565b505050509050019350505050604051809103906000f080158015610158573d6000803e3d6000fd5b50600180546001600160a01b0319166001600160a01b039290921691909117905550506000600455506101959050565b61379f80613c8583390190565b613ae1806101a46000396000f3fe608060405260043610620000505760003560e01c806360f029c91462000055578063858e7ce6146200007f578063a4a78896146200013d578063d185a526146200017f578063f5807c0514620001dc575b600080fd5b3480156200006257600080fd5b506200006d62000287565b60408051918252519081900360200190f35b6200013b600480360360408110156200009757600080fd5b6001600160a01b038235169190810190604081016020820135640100000000811115620000c357600080fd5b820183602082011115620000d657600080fd5b80359060200191846001830284011164010000000083111715620000f957600080fd5b91908080601f0160208091040260200160405190810160405280939291908181526020018383808284376000920191909152509295506200028d945050505050565b005b3480156200014a57600080fd5b50620001556200040b565b604080516001600160a01b0394851681529290931660208301528183015290519081900360600190f35b3480156200018c57600080fd5b50620001ad60048036036020811015620001a557600080fd5b503562000424565b60405180836001600160a01b03168152602001826001600160a01b031681526020019250505060405180910390f35b6200013b60048036036040811015620001f457600080fd5b8101906020810181356401000000008111156200021057600080fd5b8201836020820111156200022357600080fd5b803590602001918460208302840111640100000000831117156200024657600080fd5b919080806020026020016040519081016040528093929190818152602001838360200280828437600092019190915250929550509135925062000552915050565b60005490565b60025480341015620002cc576040805162461bcd60e51b815260206004820152600360248201526222a19960e91b604482015290519081900360640190fd5b600160009054906101000a90046001600160a01b03166001600160a01b031663f05d870384846004546040518463ffffffff1660e01b815260040180846001600160a01b0316815260200180602001838152602001828103825284818151815260200191508051906020019080838360005b83811015620003585781810151838201526020016200033e565b50505050905090810190601f168015620003865780820380516001836020036101000a031916815260200191505b50945050505050600060405180830381600087803b158015620003a857600080fd5b505af1158015620003bd573d6000803e3d6000fd5b50506004805460010190555050604080516001600160a01b038516815290517fbaf065d025fe427c7c36f893bdec1c49e6c164c4a6531f4216f64e6e876a9a4f9181900360200190a1505050565b6001546005546001600160a01b03918216911647909192565b6000808260008054905073__Library_______________________________632477a0ea83836040518363ffffffff1660e01b8152600401808381526020018281526020019250505060206040518083038186803b1580156200048657600080fd5b505af41580156200049b573d6000803e3d6000fd5b505050506040513d6020811015620004b257600080fd5b50511515600114620004f1576040805162461bcd60e51b815260206004820152600360248201526245433160e81b604482015290519081900360640190fd5b60008581548110620004ff57fe5b6000918252602082206002909102015481546001600160a01b039091169190879081106200052957fe5b60009182526020909120600160029092020101549094506001600160a01b031692505050915091565b6003548034101562000591576040805162461bcd60e51b815260206004820152600360248201526222a19960e91b604482015290519081900360640190fd5b60008383604051620005a390620006fe565b60208082018390526040808352845190830152835182916060830191868201910280838360005b83811015620005e4578181015183820152602001620005ca565b505050509050019350505050604051809103906000f0801580156200060d573d6000803e3d6000fd5b506040805180820182523381526001600160a01b03808416602080840191825260008054600181018255818052855160029091027f290decd9548b62a8d60345a988386fc84ba6bc95484008f6362f93160ef3e563810180549287166001600160a01b0319938416811790915594517f290decd9548b62a8d60345a988386fc84ba6bc95484008f6362f93160ef3e5649091018054919096169116811790945554855160001991909101815290810191909152808401919091529151929350917f9bfff6b81778f7b8086272d62a71be896cfc1876bb5f2e4e1fe28bc4c24159689181900360600190a15050505050565b61339f806200070d8339019056fe600560c09081526427bbb732b960d91b60e0526080908152610140604052600861010090815267283937bb34b232b960c11b6101205260a0526200004890600690600262000333565b506040516200339f3803806200339f8339810160408190526200006b91620004c8565b8181818160026006805480602002602001604051908101604052809291908181526020016000905b82821015620001445760008481526020908190208301805460408051601f60026000196101006001871615020190941693909304928301859004850281018501909152818152928301828280156200012f5780601f1062000103576101008083540402835291602001916200012f565b820191906000526020600020905b8154815290600101906020018083116200011157829003601f168201915b50505050508152602001906001019062000093565b5050505060008451841115620001775760405162461bcd60e51b81526004016200016e906200058e565b60405180910390fd5b600084116200019a5760405162461bcd60e51b81526004016200016e90620005ac565b81518314620001bd5760405162461bcd60e51b81526004016200016e90620005ca565b60008181555b8381101562000228576003805460010181556000528251600290849083908110620001ea57fe5b602090810291909101810151825460018101845560009384529282902081516200021e949190910192919091019062000397565b50600101620001c3565b50600184905560005b8551811015620003235760016003600054815481106200024d57fe5b906000526020600020906004020160000160008884815181106200026d57fe5b60200260200101516001600160a01b03166001600160a01b0316815260200190815260200160002060000160006101000a81548160ff021916908315150217905550600360005481548110620002bf57fe5b9060005260206000209060040201600101868281518110620002dd57fe5b60209081029190910181015182546001808201855560009485529290932090920180546001600160a01b0319166001600160a01b03909316929092179091550162000231565b50505050505050505050620005e8565b82805482825590600052602060002090810192821562000385579160200282015b828111156200038557825180516200037491849160209091019062000397565b509160200191906001019062000354565b506200039392915062000428565b5090565b828054600181600116156101000203166002900490600052602060002090601f016020900481019282620003cf57600085556200041a565b82601f10620003ea57805160ff19168380011785556200041a565b828001600101855582156200041a579182015b828111156200041a578251825591602001919060010190620003fd565b506200039392915062000449565b80821115620003935760006200043f828262000460565b5060010162000428565b5b808211156200039357600081556001016200044a565b50805460018160011615610100020316600290046000825580601f10620004885750620004a8565b601f016020900490600052602060002090810190620004a8919062000449565b50565b80516001600160a01b0381168114620004c357600080fd5b919050565b60008060408385031215620004db578182fd5b82516001600160401b0380821115620004f2578384fd5b818501915085601f83011262000506578384fd5b81516020828211156200051557fe5b808202604051828282010181811086821117156200052f57fe5b604052838152828101945085830182870184018b10156200054e578889fd5b8896505b848710156200057b576200056681620004ab565b86526001969096019594830194830162000552565b5097909101519698969750505050505050565b60208082526004908201526322a1989b60e11b604082015260600190565b6020808252600490820152634543313760e01b604082015260600190565b60208082526004908201526308a8662760e31b604082015260600190565b612da780620005f86000396000f3fe608060405234801561001057600080fd5b50600436106101375760003560e01c80636e4f9179116100b8578063bfd2b3a31161007c578063bfd2b3a314610284578063d0a4adfe14610297578063d744d2f3146102b7578063e4661547146102bf578063eefe7681146102d2578063f05d8703146102da57610137565b80636e4f91791461023b5780636e55d2d41461024357806377bc5a1f14610256578063a93d5ed614610269578063ba001d161461027157610137565b806365b973e5116100ff57806365b973e5146101cd57806369767eab146101e25780636b074a07146101f55780636b299604146102085780636b3a0fec1461022857610137565b8063073855ca1461013c5780632f54bf6e14610151578063375834991461017a57806341929ea91461019a57806358a1ba25146101ad575b600080fd5b61014f61014a366004612a16565b6102ed565b005b61016461015f36600461288e565b61062d565b6040516101719190612b0a565b60405180910390f35b61018d61018836600461288e565b610643565b6040516101719190612b15565b61014f6101a83660046128a8565b610650565b6101c06101bb366004612981565b610663565b6040516101719190612ad2565b6101d56107d4565b6040516101719190612d40565b61014f6101f0366004612a16565b6107da565b61016461020336600461288e565b6109ab565b61021b6102163660046129b3565b6109b8565b6040516101719190612a85565b61021b6102363660046129b3565b6109e0565b61021b6109f3565b6101d561025136600461288e565b610a04565b61018d61026436600461288e565b610a22565b61021b610a30565b6101d561027f36600461288e565b610a3d565b61014f610292366004612958565b610a58565b6102aa6102a53660046129eb565b610a9c565b6040516101719190612a57565b6101d5610ac9565b61014f6102cd366004612958565b610ad5565b6101d5610ae5565b61014f6102e83660046128a8565b610af2565b6102f6336109ab565b15156001146103205760405162461bcd60e51b815260040161031790612c8f565b60405180910390fd5b6001600160a01b038281166000908152600760209081526040808320878452909152902054839185911633148061035f5750336001600160a01b038316145b61037b5760405162461bcd60e51b815260040161031790612c53565b604051635c6309fb60e11b8152839073__Library_______________________________9063b8c613f6906103b69084906004908101612d49565b60006040518083038186803b1580156103ce57600080fd5b505af41580156103e2573d6000803e3d6000fd5b5050506001600160a01b0380871660008181526007602081815260408084208d8552808352818520549585529282526001909201805483518184028101840190945280845294909516955091939092909183018282801561046257602002820191906000526020600020905b81548152602001906001019080831161044e575b5050505050905060005b815181101561054f5781818151811061048157fe5b60200260200101518914156105475761051081600760008b6001600160a01b03166001600160a01b0316815260200190815260200160002060010180548060200260200160405190810160405280929190818152602001828054801561050657602002820191906000526020600020905b8154815260200190600101908083116104f2575b5050505050610aff565b6001600160a01b038916600090815260076020908152604090912082516105419360019092019291909101906126e6565b5061054f565b60010161046c565b506001600160a01b03871660009081526007602090815260408083208b84529091529081902080546001600160a01b03191690555163136ea6e160e21b815273__Library_______________________________90634dba9b84906105ba9089906004908101612d49565b60006040518083038186803b1580156105d257600080fd5b505af41580156105e6573d6000803e3d6000fd5b505050507fd12847594abf0621035046f61129f2a9dc5093eb516c6c517ece306362ef6f17828860405161061b929190612a6b565b60405180910390a15050505050505050565b600061063b82600054610bf2565b90505b919050565b606061063b826001610e58565b61065e838360005484610f2e565b505050565b60608261066f85610a04565b1161068957506040805160008152602081019091526107cd565b81808461069587610a04565b0310156106aa57836106a686610a04565b0390505b60008167ffffffffffffffff811180156106c357600080fd5b506040519080825280602002602001820160405280156106ed578160200160208202803683370190505b506001600160a01b03871660009081526007602090815260408083206001018054825181850281018501909352808352949550929390929183018282801561075457602002820191906000526020600020905b815481526020019060010190808311610740575b5050505050905060008060005b83518110156107c457878310610776576107c4565b81891115610789576001820191506107bc565b83818151811061079557fe5b60200260200101518584815181106107a957fe5b6020026020010181815250506001830192505b600101610761565b50929450505050505b9392505050565b60015490565b6107e3336109ab565b15156001146108045760405162461bcd60e51b815260040161031790612c8f565b826001600160a01b03808416600090815260076020908152604080832088845290915290205484918691161561084c5760405162461bcd60e51b815260040161031790612c71565b604051635c6309fb60e11b8152849073__Library_______________________________9063b8c613f6906108879084906004908101612d49565b60006040518083038186803b15801561089f57600080fd5b505af41580156108b3573d6000803e3d6000fd5b5050506001600160a01b03871660009081526007602081815260408084208c855280835281852080546001600160a01b0319163317905592825260019283018054938401815584529220018990555163136ea6e160e21b815273__Library_______________________________9150634dba9b84906109399088906004908101612d49565b60006040518083038186803b15801561095157600080fd5b505af4158015610965573d6000803e3d6000fd5b505050507f601cb9a073dbfa468ef12878ee6c720641a49b76af7c16099e8c0a1ac3ca79b5338760405161099a929190612a6b565b60405180910390a150505050505050565b600061063b826001610bf2565b606061063b6003600054815481106109cc57fe5b906000526020600020906004020183611143565b606061063b60036001815481106109cc57fe5b60606109ff6001611211565b905090565b6001600160a01b031660009081526007602052604090206001015490565b606061063b82600054610e58565b60606109ff600054611211565b6001600160a01b031660009081526004602052604090205490565b6001546001610a686000546112ee565b0380821115610a895760405162461bcd60e51b815260040161031790612c18565b610a9684600054856113c3565b50505050565b6001600160a01b038082166000908152600760209081526040808320868452909152902054165b92915050565b60006109ff60016112ee565b610ae1826001836113c3565b5050565b60006109ff6000546112ee565b61065e8383600184610f2e565b6060828251610b0e828261151d565b1515600114610b2f5760405162461bcd60e51b815260040161031790612ce8565b6000600185510367ffffffffffffffff81118015610b4c57600080fd5b50604051908082528060200260200182016040528015610b76578160200160208202803683370190505b50905084600186510381518110610b8957fe5b6020026020010151858781518110610b9d57fe5b60200260200101818152505060005b8151811015610be857858181518110610bc157fe5b6020026020010151828281518110610bd557fe5b6020908102919091010152600101610bac565b5095945050505050565b60035460405163123bd07560e11b8152600091839173__Library_______________________________90632477a0ea90610c339085908590600401612d49565b60206040518083038186803b158015610c4b57600080fd5b505af4158015610c5f573d6000803e3d6000fd5b505050506040513d601f19601f82011682018060405250810190610c8391906129cf565b1515600114610ca45760405162461bcd60e51b815260040161031790612ce8565b610e4f60038581548110610cb457fe5b600091825260208083206001600160a01b038a168452600490920290910181526040918290208251608081018452815460ff1615158152600180830180548651601f600260001995841615610100029590950190921693909304908101869004860283018601909652858252919492938581019391929190830182828015610d7d5780601f10610d5257610100808354040283529160200191610d7d565b820191906000526020600020905b815481529060010190602001808311610d6057829003601f168201915b5050505050815260200160028201805480602002602001604051908101604052809291908181526020018280548015610ddf57602002820191906000526020600020905b81546001600160a01b03168152600190910190602001808311610dc1575b5050505050815260200160038201805480602002602001604051908101604052809291908181526020018280548015610e4157602002820191906000526020600020905b81546001600160a01b03168152600190910190602001808311610e23575b505050505081525050611521565b95945050505050565b60035460405163123bd07560e11b8152606091839173__Library_______________________________90632477a0ea90610e999085908590600401612d49565b60206040518083038186803b158015610eb157600080fd5b505af4158015610ec5573d6000803e3d6000fd5b505050506040513d601f19601f82011682018060405250810190610ee991906129cf565b1515600114610f0a5760405162461bcd60e51b815260040161031790612ce8565b610e4f8560038681548110610f1b57fe5b9060005260206000209060040201611525565b60035460405163123bd07560e11b815283919073__Library_______________________________90632477a0ea90610f6d9085908590600401612d49565b60206040518083038186803b158015610f8557600080fd5b505af4158015610f99573d6000803e3d6000fd5b505050506040513d601f19601f82011682018060405250810190610fbd91906129cf565b1515600114610fde5760405162461bcd60e51b815260040161031790612ce8565b610fe73361062d565b15156001146110085760405162461bcd60e51b815260040161031790612ccb565b61103386866003878154811061101a57fe5b9060005260206000209060040201600154600488611768565b6110e16003858154811061104357fe5b600091825260208083206001600160a01b038b168452600490920290910181526040918290208251608081018452815460ff1615158152600180830180548651601f600260001995841615610100029590950190921693909304908101869004860283018601909652858252919492938581019391929190830182828015610d7d5780601f10610d5257610100808354040283529160200191610d7d565b15156001141561113b577f3c139d46a211844e248647688545a37c07c505c999c1232d1247c707dc0a91e26002858154811061111957fe5b9060005260206000200187604051611132929190612b68565b60405180910390a15b505050505050565b606081156111af57826002018054806020026020016040519081016040528092919081815260200182805480156111a357602002820191906000526020600020905b81546001600160a01b03168152600190910190602001808311611185575b50505050509050610ac3565b826003018054806020026020016040519081016040528092919081815260200182805480156111a3576020028201919060005260206000209081546001600160a01b031681526001909101906020018083116111855750505050509050610ac3565b60035460405163123bd07560e11b8152606091839173__Library_______________________________90632477a0ea906112529085908590600401612d49565b60206040518083038186803b15801561126a57600080fd5b505af415801561127e573d6000803e3d6000fd5b505050506040513d601f19601f820116820180604052508101906112a291906129cf565b15156001146112c35760405162461bcd60e51b815260040161031790612ce8565b6112e6600385815481106112d357fe5b9060005260206000209060040201611d12565b949350505050565b60035460405163123bd07560e11b8152600091839173__Library_______________________________90632477a0ea9061132f9085908590600401612d49565b60206040518083038186803b15801561134757600080fd5b505af415801561135b573d6000803e3d6000fd5b505050506040513d601f19601f8201168201806040525081019061137f91906129cf565b15156001146113a05760405162461bcd60e51b815260040161031790612ce8565b6112e6600385815481106113b057fe5b9060005260206000209060040201611d78565b60035460405163123bd07560e11b815283919073__Library_______________________________90632477a0ea906114029085908590600401612d49565b60206040518083038186803b15801561141a57600080fd5b505af415801561142e573d6000803e3d6000fd5b505050506040513d601f19601f8201168201806040525081019061145291906129cf565b15156001146114735760405162461bcd60e51b815260040161031790612ce8565b8461147d3361062d565b1515600114806114955750336001600160a01b038216145b6114b15760405162461bcd60e51b815260040161031790612d05565b6114db86600387815481106114c257fe5b9060005260206000209060040201600154600488611d7f565b6114eb6003868154811061104357fe5b61113b577f1f62d535f971041db7bd8760bf0f1f9f476461558744a35c0d477b5ad6893e896002868154811061111957fe5b1190565b5190565b6001600160a01b038216600090815260208281526040918290208251608081018452815460ff1615158152600182810180548651601f6002600019848716156101000201909316929092049182018790048702810187019097528087526060969295939493858101939291908301828280156115e25780601f106115b7576101008083540402835291602001916115e2565b820191906000526020600020905b8154815290600101906020018083116115c557829003601f168201915b505050505081526020016002820180548060200260200160405190810160405280929190818152602001828054801561164457602002820191906000526020600020905b81546001600160a01b03168152600190910190602001808311611626575b50505050508152602001600382018054806020026020016040519081016040528092919081815260200182805480156116a657602002820191906000526020600020905b81546001600160a01b03168152600190910190602001808311611688575b5050505050815250506116b98282612395565b6001600160a01b03851660009081526020858152604091829020600190810180548451600293821615610100026000190190911692909204601f8101849004840283018401909452838252909290918301828280156117595780601f1061172e57610100808354040283529160200191611759565b820191906000526020600020905b81548152906001019060200180831161173c57829003601f168201915b50505050509250505092915050565b6001600160a01b0386166000908152602085815260408083208151608081018352815460ff1615158152600180830180548551600261010094831615949094026000190190911692909204601f810187900487028301870190955284825291949293858401939192918301828280156118225780601f106117f757610100808354040283529160200191611822565b820191906000526020600020905b81548152906001019060200180831161180557829003601f168201915b505050505081526020016002820180548060200260200160405190810160405280929190818152602001828054801561188457602002820191906000526020600020905b81546001600160a01b03168152600190910190602001808311611866575b50505050508152602001600382018054806020026020016040519081016040528092919081815260200182805480156118e657602002820191906000526020600020905b81546001600160a01b031681526001909101906020018083116118c8575b5050505050815250506118f98282612395565b6001600160a01b0388166000908152602087815260408083208151608081018352815460ff1615158152600180830180548551600261010094831615949094026000190190911692909204601f810187900487028301870190955284825291949293858401939192918301828280156119b35780601f10611988576101008083540402835291602001916119b3565b820191906000526020600020905b81548152906001019060200180831161199657829003601f168201915b5050505050815260200160028201805480602002602001604051908101604052809291908181526020018280548015611a1557602002820191906000526020600020905b81546001600160a01b031681526001909101906020018083116119f7575b5050505050815260200160038201805480602002602001604051908101604052809291908181526020018280548015611a7757602002820191906000526020600020905b81546001600160a01b03168152600190910190602001808311611a59575b505050505081525050611a8a82826123ef565b8486611a968282612455565b6001600160a01b038c16600090815260208b90526040902060020154611b15576001600160a01b038c16600090815260208b815260409091208c51611ae3926001909201918e0190612731565b5060028a018054600181018255600091825260209091200180546001600160a01b0319166001600160a01b038e161790555b6001600160a01b038c16600090815260208b815260408220600201805460018101825590835291200180546001600160a01b03191633179055611b588789612492565b6001600160a01b038c16600090815260208b90526040902060020154611b7e908a6124de565b15611d045760018a60000160008e6001600160a01b03166001600160a01b0316815260200190815260200160002060000160006101000a81548160ff021916908315150217905550896001018c9080600181540180825580915050600190039060005260206000200160009091909190916101000a8154816001600160a01b0302191690836001600160a01b03160217905550611cec611ce7611c7d8e8d600201805480602002602001604051908101604052809291908181526020018280548015611c7357602002820191906000526020600020905b81546001600160a01b03168152600190910190602001808311611c55575b50505050506124f9565b611ce28d600201805480602002602001604051908101604052809291908181526020018280548015611cd857602002820191906000526020600020905b81546001600160a01b03168152600190910190602001808311611cba575b505050505061254d565b610aff565b6125e4565b8051611d029160028d01916020909101906127ac565b505b505050505050505050505050565b606081600101805480602002602001604051908101604052809291908181526020018280548015611d6c57602002820191906000526020600020905b81546001600160a01b03168152600190910190602001808311611d4e575b50505050509050919050565b6001015490565b6001600160a01b038516600090815260208581526040918290208251608081018452815460ff1615158152600180830180548651600261010083861615026000190190921691909104601f8101879004870282018701909752868152919592948581019390830182828015611e355780601f10611e0a57610100808354040283529160200191611e35565b820191906000526020600020905b815481529060010190602001808311611e1857829003601f168201915b5050505050815260200160028201805480602002602001604051908101604052809291908181526020018280548015611e9757602002820191906000526020600020905b81546001600160a01b03168152600190910190602001808311611e79575b5050505050815260200160038201805480602002602001604051908101604052809291908181526020018280548015611ef957602002820191906000526020600020905b81546001600160a01b03168152600190910190602001808311611edb575b505050505081525050611f0c8282612395565b6001600160a01b038716600090815260208781526040918290208251608081018452815460ff1615158152600180830180548651600261010083861615026000190190921691909104601f8101879004870282018701909752868152919592948581019390830182828015611fc25780601f10611f9757610100808354040283529160200191611fc2565b820191906000526020600020905b815481529060010190602001808311611fa557829003601f168201915b505050505081526020016002820180548060200260200160405190810160405280929190818152602001828054801561202457602002820191906000526020600020905b81546001600160a01b03168152600190910190602001808311612006575b505050505081526020016003820180548060200260200160405190810160405280929190818152602001828054801561208657602002820191906000526020600020905b81546001600160a01b03168152600190910190602001808311612068575b50505050508152505061209982826123ef565b84866120a58282612455565b6001600160a01b038b16600090815260208b905260409020600301546120f65760038a018054600181018255600091825260209091200180546001600160a01b0319166001600160a01b038d161790555b6001600160a01b038b16600090815260208b815260408220600301805460018101825590835291200180546001600160a01b031916331790556121398789612492565b336001600160a01b038c16148061217157506001600160a01b038b16600090815260208b90526040902060030154612171908a6124de565b1561238857612243611ce76121e08d8d600101805480602002602001604051908101604052809291908181526020018280548015611c73576020028201919060005260206000209081546001600160a01b03168152600190910190602001808311611c555750505050506124f9565b611ce28d600101805480602002602001604051908101604052809291908181526020018280548015611cd8576020028201919060005260206000209081546001600160a01b03168152600190910190602001808311611cba57505050505061254d565b80516122599160018d01916020909101906127ac565b50612327611ce76122c48d8d600301805480602002602001604051908101604052809291908181526020018280548015611c73576020028201919060005260206000209081546001600160a01b03168152600190910190602001808311611c555750505050506124f9565b611ce28d600301805480602002602001604051908101604052809291908181526020018280548015611cd8576020028201919060005260206000209081546001600160a01b03168152600190910190602001808311611cba57505050505061254d565b805161233d9160038d01916020909101906127ac565b506001600160a01b038b16600090815260208b905260408120805460ff191681559061236c6001830182612801565b61237a600283016000612848565b611d02600383016000612848565b5050505050505050505050565b816123c5576123a381611521565b156123c05760405162461bcd60e51b815260040161031790612d23565b610ae1565b6123ce81611521565b1515600114610ae15760405162461bcd60e51b815260040161031790612bfb565b8160018111156123fb57fe5b61242a5761240d338260400151612681565b156123c05760405162461bcd60e51b815260040161031790612c36565b612438338260600151612681565b15610ae15760405162461bcd60e51b815260040161031790612c36565b336000908152600182016020908152604080832085845290915290205460ff1615610ae15760405162461bcd60e51b815260040161031790612cad565b3360008181526001838101602090815260408084208785528252808420805460ff1916909317909255928252918390522054821115610ae1573360009081526020919091526040902055565b6000818310156124f057506000610ac3565b50600192915050565b6000805b82518110156125425782818151811061251257fe5b60200260200101516001600160a01b0316846001600160a01b0316141561253a579050610ac3565b6001016124fd565b505051600101919050565b60606000825167ffffffffffffffff8111801561256957600080fd5b50604051908082528060200260200182016040528015612593578160200160208202803683370190505b50905060005b83518110156125dd576125be8482815181106125b157fe5b60200260200101516126d7565b8282815181106125ca57fe5b6020908102919091010152600101612599565b5092915050565b60606000825167ffffffffffffffff8111801561260057600080fd5b5060405190808252806020026020018201604052801561262a578160200160208202803683370190505b50905060005b83518110156125dd5761265584828151811061264857fe5b60200260200101516126e3565b82828151811061266157fe5b6001600160a01b0390921660209283029190910190910152600101612630565b6000805b82518110156126cd5782818151811061269a57fe5b60200260200101516001600160a01b0316846001600160a01b031614156126c5576001915050610ac3565b600101612685565b5060009392505050565b6001600160a01b031690565b90565b828054828255906000526020600020908101928215612721579160200282015b82811115612721578251825591602001919060010190612706565b5061272d929150612862565b5090565b828054600181600116156101000203166002900490600052602060002090601f0160209004810192826127675760008555612721565b82601f1061278057805160ff1916838001178555612721565b828001600101855582156127215791820182811115612721578251825591602001919060010190612706565b828054828255906000526020600020908101928215612721579160200282015b8281111561272157825182546001600160a01b0319166001600160a01b039091161782556020909201916001909101906127cc565b50805460018160011615610100020316600290046000825580601f106128275750612845565b601f0160209004906000526020600020908101906128459190612862565b50565b508054600082559060005260206000209081019061284591905b5b8082111561272d5760008155600101612863565b80356001600160a01b038116811461063e57600080fd5b60006020828403121561289f578081fd5b6107cd82612877565b6000806000606084860312156128bc578182fd5b6128c584612877565b925060208085013567ffffffffffffffff808211156128e2578485fd5b818701915087601f8301126128f5578485fd5b81358181111561290157fe5b604051601f8201601f191681018501838111828210171561291e57fe5b60405281815283820185018a1015612934578687fd5b81858501868301379081019093019490945250929592945050506040919091013590565b6000806040838503121561296a578182fd5b61297383612877565b946020939093013593505050565b600080600060608486031215612995578283fd5b61299e84612877565b95602085013595506040909401359392505050565b6000602082840312156129c4578081fd5b81356107cd81612d63565b6000602082840312156129e0578081fd5b81516107cd81612d63565b600080604083850312156129fd578182fd5b82359150612a0d60208401612877565b90509250929050565b600080600060608486031215612a2a578283fd5b83359250612a3a60208501612877565b9150604084013590509250925092565b6001600160a01b03169052565b6001600160a01b0391909116815260200190565b6001600160a01b0392831681529116602082015260400190565b6020808252825182820181905260009190848201906040850190845b81811015612ac65783516001600160a01b031683529284019291840191600101612aa1565b50909695505050505050565b6020808252825182820181905260009190848201906040850190845b81811015612ac657835183529284019291840191600101612aee565b901515815260200190565b6000602080835283518082850152825b81811015612b4157858101830151858201604001528201612b25565b81811115612b525783604083870101525b50601f01601f1916929092016040019392505050565b60006040820160408352818554600180821660008114612b8f5760018114612bad57612be6565b60028304607f16855260ff1983166060880152608087019350612be6565b60028304808652612bbd8a612d57565b875b82811015612bdc5781548a82016060015290840190602001612bbf565b8901606001955050505b50505080925050506107cd6020830184612a4a565b60208082526003908201526245433760e81b604082015260600190565b6020808252600490820152634543313960e01b604082015260600190565b60208082526003908201526245433560e81b604082015260600190565b6020808252600490820152631150cc4d60e21b604082015260600190565b6020808252600490820152634543313560e01b604082015260600190565b60208082526004908201526322a1989960e11b604082015260600190565b6020808252600490820152630454332360e41b604082015260600190565b60208082526003908201526245433960e81b604082015260600190565b60208082526003908201526245433160e81b604082015260600190565b6020808252600490820152630454331360e41b604082015260600190565b60208082526003908201526222a19b60e91b604082015260600190565b90815260200190565b918252602082015260400190565b60009081526020902090565b801515811461284557600080fdfea264697066735822122033390200ca237d406ed3fcd38b766b27f9bf0142674a511b8b60b0a4fd385ac064736f6c63430007060033a2646970667358221220d59553a379561bbd0d70a121f84542f196a432dc50e778fcf2a3f283f821d08564736f6c63430007060033600560c09081526427bbb732b960d91b60e0526080908152610140604052600861010090815267283937bb34b232b960c11b6101205260a0526200004890600690600262000346565b506040516200379f3803806200379f8339810160408190526200006b91620004db565b8181818160026006805480602002602001604051908101604052809291908181526020016000905b82821015620001445760008481526020908190208301805460408051601f60026000196101006001871615020190941693909304928301859004850281018501909152818152928301828280156200012f5780601f1062000103576101008083540402835291602001916200012f565b820191906000526020600020905b8154815290600101906020018083116200011157829003601f168201915b50505050508152602001906001019062000093565b5050505060008451841115620001775760405162461bcd60e51b81526004016200016e90620005a1565b60405180910390fd5b600084116200019a5760405162461bcd60e51b81526004016200016e90620005bf565b81518314620001bd5760405162461bcd60e51b81526004016200016e90620005dd565b60008181555b8381101562000228576003805460010181556000528251600290849083908110620001ea57fe5b602090810291909101810151825460018101845560009384529282902081516200021e9491909101929190910190620003aa565b50600101620001c3565b50600184905560005b8551811015620003235760016003600054815481106200024d57fe5b906000526020600020906004020160000160008884815181106200026d57fe5b60200260200101516001600160a01b03166001600160a01b0316815260200190815260200160002060000160006101000a81548160ff021916908315150217905550600360005481548110620002bf57fe5b9060005260206000209060040201600101868281518110620002dd57fe5b60209081029190910181015182546001808201855560009485529290932090920180546001600160a01b0319166001600160a01b03909316929092179091550162000231565b5050600880546001600160a01b0319163317905550620005fb9650505050505050565b82805482825590600052602060002090810192821562000398579160200282015b8281111562000398578251805162000387918491602090910190620003aa565b509160200191906001019062000367565b50620003a69291506200043b565b5090565b828054600181600116156101000203166002900490600052602060002090601f016020900481019282620003e257600085556200042d565b82601f10620003fd57805160ff19168380011785556200042d565b828001600101855582156200042d579182015b828111156200042d57825182559160200191906001019062000410565b50620003a69291506200045c565b80821115620003a657600062000452828262000473565b506001016200043b565b5b80821115620003a657600081556001016200045d565b50805460018160011615610100020316600290046000825580601f106200049b5750620004bb565b601f016020900490600052602060002090810190620004bb91906200045c565b50565b80516001600160a01b0381168114620004d657600080fd5b919050565b60008060408385031215620004ee578182fd5b82516001600160401b038082111562000505578384fd5b818501915085601f83011262000519578384fd5b81516020828211156200052857fe5b808202604051828282010181811086821117156200054257fe5b604052838152828101945085830182870184018b101562000561578889fd5b8896505b848710156200058e576200057981620004be565b86526001969096019594830194830162000565565b5097909101519698969750505050505050565b60208082526004908201526322a1989b60e11b604082015260600190565b6020808252600490820152634543313760e01b604082015260600190565b60208082526004908201526308a8662760e31b604082015260600190565b613194806200060b6000396000f3fe608060405234801561001057600080fd5b50600436106101425760003560e01c80636e4f9179116100b8578063bfd2b3a31161007c578063bfd2b3a3146102a2578063d0a4adfe146102b5578063d744d2f3146102d5578063e4661547146102dd578063eefe7681146102f0578063f05d8703146102f857610142565b80636e4f9179146102595780636e55d2d41461026157806377bc5a1f14610274578063a93d5ed614610287578063ba001d161461028f57610142565b806358a1ba251161010a57806358a1ba25146101cb57806365b973e5146101eb57806369767eab146102005780636b074a07146102135780636b299604146102265780636b3a0fec1461024657610142565b8063073855ca146101475780630743c85e1461015c5780632f54bf6e1461016f578063375834991461019857806341929ea9146101b8575b600080fd5b61015a610155366004612dac565b61030b565b005b61015a61016a366004612cee565b61064b565b61018261017d366004612c24565b61075d565b60405161018f9190612ea0565b60405180910390f35b6101ab6101a6366004612c24565b610773565b60405161018f9190612eab565b61015a6101c6366004612c3e565b610780565b6101de6101d9366004612d17565b610793565b60405161018f9190612e68565b6101f3610904565b60405161018f919061312d565b61015a61020e366004612dac565b61090a565b610182610221366004612c24565b610adb565b610239610234366004612d49565b610ae8565b60405161018f9190612e1b565b610239610254366004612d49565b610b10565b610239610b23565b6101f361026f366004612c24565b610b34565b6101ab610282366004612c24565b610b52565b610239610b60565b6101f361029d366004612c24565b610b6d565b61015a6102b0366004612cee565b610b88565b6102c86102c3366004612d81565b610bc6565b60405161018f9190612ded565b6101f3610bf3565b61015a6102eb366004612cee565b610bff565b6101f3610de0565b61015a610306366004612c3e565b610ded565b61031433610adb565b151560011461033e5760405162461bcd60e51b81526004016103359061305f565b60405180910390fd5b6001600160a01b038281166000908152600760209081526040808320878452909152902054839185911633148061037d5750336001600160a01b038316145b6103995760405162461bcd60e51b815260040161033590613006565b604051635c6309fb60e11b8152839073__Library_______________________________9063b8c613f6906103d49084906004908101613136565b60006040518083038186803b1580156103ec57600080fd5b505af4158015610400573d6000803e3d6000fd5b5050506001600160a01b0380871660008181526007602081815260408084208d8552808352818520549585529282526001909201805483518184028101840190945280845294909516955091939092909183018282801561048057602002820191906000526020600020905b81548152602001906001019080831161046c575b5050505050905060005b815181101561056d5781818151811061049f57fe5b60200260200101518914156105655761052e81600760008b6001600160a01b03166001600160a01b0316815260200190815260200160002060010180548060200260200160405190810160405280929190818152602001828054801561052457602002820191906000526020600020905b815481526020019060010190808311610510575b5050505050610f9f565b6001600160a01b0389166000908152600760209081526040909120825161055f936001909201929190910190612a7c565b5061056d565b60010161048a565b506001600160a01b03871660009081526007602090815260408083208b84529091529081902080546001600160a01b03191690555163136ea6e160e21b815273__Library_______________________________90634dba9b84906105d89089906004908101613136565b60006040518083038186803b1580156105f057600080fd5b505af4158015610604573d6000803e3d6000fd5b505050507fd12847594abf0621035046f61129f2a9dc5093eb516c6c517ece306362ef6f178288604051610639929190612e01565b60405180910390a15050505050505050565b6001826001600160a01b03811660009081526009602052604090205460ff16151560011461068b5760405162461bcd60e51b815260040161033590612fae565b61075784600360018154811061069d57fe5b600091825260208083206001600160a01b038a1684526004929092029091018152604091829020600190810180548451600293821615610100026000190190911692909204601f81018490048402830184019094528382529092909183018282801561074a5780601f1061071f5761010080835404028352916020019161074a565b820191906000526020600020905b81548152906001019060200180831161072d57829003601f168201915b5050505050600186611092565b50505050565b600061076b826000546112a7565b90505b919050565b606061076b826001611410565b61078e838360005484611092565b505050565b60608261079f85610b34565b116107b957506040805160008152602081019091526108fd565b8180846107c587610b34565b0310156107da57836107d686610b34565b0390505b60008167ffffffffffffffff811180156107f357600080fd5b5060405190808252806020026020018201604052801561081d578160200160208202803683370190505b506001600160a01b03871660009081526007602090815260408083206001018054825181850281018501909352808352949550929390929183018282801561088457602002820191906000526020600020905b815481526020019060010190808311610870575b5050505050905060008060005b83518110156108f4578783106108a6576108f4565b818911156108b9576001820191506108ec565b8381815181106108c557fe5b60200260200101518584815181106108d957fe5b6020026020010181815250506001830192505b600101610891565b50929450505050505b9392505050565b60015490565b61091333610adb565b15156001146109345760405162461bcd60e51b81526004016103359061305f565b826001600160a01b03808416600090815260076020908152604080832088845290915290205484918691161561097c5760405162461bcd60e51b815260040161033590613041565b604051635c6309fb60e11b8152849073__Library_______________________________9063b8c613f6906109b79084906004908101613136565b60006040518083038186803b1580156109cf57600080fd5b505af41580156109e3573d6000803e3d6000fd5b5050506001600160a01b03871660009081526007602081815260408084208c855280835281852080546001600160a01b0319163317905592825260019283018054938401815584529220018990555163136ea6e160e21b815273__Library_______________________________9150634dba9b8490610a699088906004908101613136565b60006040518083038186803b158015610a8157600080fd5b505af4158015610a95573d6000803e3d6000fd5b505050507f601cb9a073dbfa468ef12878ee6c720641a49b76af7c16099e8c0a1ac3ca79b53387604051610aca929190612e01565b60405180910390a150505050505050565b600061076b8260016112a7565b606061076b600360005481548110610afc57fe5b9060005260206000209060040201836114e6565b606061076b6003600181548110610afc57fe5b6060610b2f60016115b4565b905090565b6001600160a01b031660009081526007602052604090206001015490565b606061076b82600054611410565b6060610b2f6000546115b4565b6001600160a01b031660009081526004602052604090205490565b6001546001610b98600054611691565b0380821115610bb95760405162461bcd60e51b815260040161033590612fcb565b6107578460005485611766565b6001600160a01b038082166000908152600760209081526040808320868452909152902054165b92915050565b6000610b2f6001611691565b610c0b82600183611766565b610db76003600181548110610c1c57fe5b600091825260208083206001600160a01b0387168452600490920290910181526040918290208251608081018452815460ff1615158152600180830180548651601f600260001995841615610100029590950190921693909304908101869004860283018601909652858252919492938581019391929190830182828015610ce55780601f10610cba57610100808354040283529160200191610ce5565b820191906000526020600020905b815481529060010190602001808311610cc857829003601f168201915b5050505050815260200160028201805480602002602001604051908101604052809291908181526020018280548015610d4757602002820191906000526020600020905b81546001600160a01b03168152600190910190602001808311610d29575b5050505050815260200160038201805480602002602001604051908101604052809291908181526020018280548015610da957602002820191906000526020600020905b81546001600160a01b03168152600190910190602001808311610d8b575b5050505050815250506118c0565b610ddc576001600160a01b0382166000908152600960205260409020805460ff191690555b5050565b6000610b2f600054611691565b6008546001600160a01b0316338114610e185760405162461bcd60e51b8152600401610335906130d5565b6000846001600160a01b03811660009081526009602052604090205460ff1615610e545760405162461bcd60e51b815260040161033590613024565b604051635c6309fb60e11b8152849073__Library_______________________________9063b8c613f690610e8f9084906004908101613136565b60006040518083038186803b158015610ea757600080fd5b505af4158015610ebb573d6000803e3d6000fd5b50505050856003600181548110610ece57fe5b600091825260208083206001600160a01b038c1684526004909202909101815260409091208251610f09936001909201929190910190612ac7565b506001600160a01b03871660009081526009602052604090819020805460ff191660011790555163136ea6e160e21b815273__Library_______________________________90634dba9b8490610f669088906004908101613136565b60006040518083038186803b158015610f7e57600080fd5b505af4158015610f92573d6000803e3d6000fd5b5050505050505050505050565b6060828251610fae82826118c4565b1515600114610fcf5760405162461bcd60e51b8152600401610335906130b8565b6000600185510367ffffffffffffffff81118015610fec57600080fd5b50604051908082528060200260200182016040528015611016578160200160208202803683370190505b5090508460018651038151811061102957fe5b602002602001015185878151811061103d57fe5b60200260200101818152505060005b81518110156110885785818151811061106157fe5b602002602001015182828151811061107557fe5b602090810291909101015260010161104c565b5095945050505050565b60035460405163123bd07560e11b815283919073__Library_______________________________90632477a0ea906110d19085908590600401613136565b60206040518083038186803b1580156110e957600080fd5b505af41580156110fd573d6000803e3d6000fd5b505050506040513d601f19601f820116820180604052508101906111219190612d65565b15156001146111425760405162461bcd60e51b8152600401610335906130b8565b61114b3361075d565b151560011461116c5760405162461bcd60e51b81526004016103359061309b565b61119786866003878154811061117e57fe5b90600052602060002090600402016001546004886118c8565b611245600385815481106111a757fe5b600091825260208083206001600160a01b038b168452600490920290910181526040918290208251608081018452815460ff1615158152600180830180548651601f600260001995841615610100029590950190921693909304908101869004860283018601909652858252919492938581019391929190830182828015610ce55780601f10610cba57610100808354040283529160200191610ce5565b15156001141561129f577f3c139d46a211844e248647688545a37c07c505c999c1232d1247c707dc0a91e26002858154811061127d57fe5b9060005260206000200187604051611296929190612efe565b60405180910390a15b505050505050565b60035460405163123bd07560e11b8152600091839173__Library_______________________________90632477a0ea906112e89085908590600401613136565b60206040518083038186803b15801561130057600080fd5b505af4158015611314573d6000803e3d6000fd5b505050506040513d601f19601f820116820180604052508101906113389190612d65565b15156001146113595760405162461bcd60e51b8152600401610335906130b8565b6114076003858154811061136957fe5b600091825260208083206001600160a01b038a168452600490920290910181526040918290208251608081018452815460ff1615158152600180830180548651601f600260001995841615610100029590950190921693909304908101869004860283018601909652858252919492938581019391929190830182828015610ce55780601f10610cba57610100808354040283529160200191610ce5565b95945050505050565b60035460405163123bd07560e11b8152606091839173__Library_______________________________90632477a0ea906114519085908590600401613136565b60206040518083038186803b15801561146957600080fd5b505af415801561147d573d6000803e3d6000fd5b505050506040513d601f19601f820116820180604052508101906114a19190612d65565b15156001146114c25760405162461bcd60e51b8152600401610335906130b8565b61140785600386815481106114d357fe5b9060005260206000209060040201611e72565b60608115611552578260020180548060200260200160405190810160405280929190818152602001828054801561154657602002820191906000526020600020905b81546001600160a01b03168152600190910190602001808311611528575b50505050509050610bed565b82600301805480602002602001604051908101604052809291908181526020018280548015611546576020028201919060005260206000209081546001600160a01b031681526001909101906020018083116115285750505050509050610bed565b60035460405163123bd07560e11b8152606091839173__Library_______________________________90632477a0ea906115f59085908590600401613136565b60206040518083038186803b15801561160d57600080fd5b505af4158015611621573d6000803e3d6000fd5b505050506040513d601f19601f820116820180604052508101906116459190612d65565b15156001146116665760405162461bcd60e51b8152600401610335906130b8565b6116896003858154811061167657fe5b90600052602060002090600402016120b5565b949350505050565b60035460405163123bd07560e11b8152600091839173__Library_______________________________90632477a0ea906116d29085908590600401613136565b60206040518083038186803b1580156116ea57600080fd5b505af41580156116fe573d6000803e3d6000fd5b505050506040513d601f19601f820116820180604052508101906117229190612d65565b15156001146117435760405162461bcd60e51b8152600401610335906130b8565b6116896003858154811061175357fe5b906000526020600020906004020161211b565b60035460405163123bd07560e11b815283919073__Library_______________________________90632477a0ea906117a59085908590600401613136565b60206040518083038186803b1580156117bd57600080fd5b505af41580156117d1573d6000803e3d6000fd5b505050506040513d601f19601f820116820180604052508101906117f59190612d65565b15156001146118165760405162461bcd60e51b8152600401610335906130b8565b846118203361075d565b1515600114806118385750336001600160a01b038216145b6118545760405162461bcd60e51b8152600401610335906130f2565b61187e866003878154811061186557fe5b9060005260206000209060040201600154600488612122565b61188e600386815481106111a757fe5b61129f577f1f62d535f971041db7bd8760bf0f1f9f476461558744a35c0d477b5ad6893e896002868154811061127d57fe5b5190565b1190565b6001600160a01b0386166000908152602085815260408083208151608081018352815460ff1615158152600180830180548551600261010094831615949094026000190190911692909204601f810187900487028301870190955284825291949293858401939192918301828280156119825780601f1061195757610100808354040283529160200191611982565b820191906000526020600020905b81548152906001019060200180831161196557829003601f168201915b50505050508152602001600282018054806020026020016040519081016040528092919081815260200182805480156119e457602002820191906000526020600020905b81546001600160a01b031681526001909101906020018083116119c6575b5050505050815260200160038201805480602002602001604051908101604052809291908181526020018280548015611a4657602002820191906000526020600020905b81546001600160a01b03168152600190910190602001808311611a28575b505050505081525050611a59828261272b565b6001600160a01b0388166000908152602087815260408083208151608081018352815460ff1615158152600180830180548551600261010094831615949094026000190190911692909204601f81018790048702830187019095528482529194929385840193919291830182828015611b135780601f10611ae857610100808354040283529160200191611b13565b820191906000526020600020905b815481529060010190602001808311611af657829003601f168201915b5050505050815260200160028201805480602002602001604051908101604052809291908181526020018280548015611b7557602002820191906000526020600020905b81546001600160a01b03168152600190910190602001808311611b57575b5050505050815260200160038201805480602002602001604051908101604052809291908181526020018280548015611bd757602002820191906000526020600020905b81546001600160a01b03168152600190910190602001808311611bb9575b505050505081525050611bea8282612785565b8486611bf682826127eb565b6001600160a01b038c16600090815260208b90526040902060020154611c75576001600160a01b038c16600090815260208b815260409091208c51611c43926001909201918e0190612ac7565b5060028a018054600181018255600091825260209091200180546001600160a01b0319166001600160a01b038e161790555b6001600160a01b038c16600090815260208b815260408220600201805460018101825590835291200180546001600160a01b03191633179055611cb88789612828565b6001600160a01b038c16600090815260208b90526040902060020154611cde908a612874565b15611e645760018a60000160008e6001600160a01b03166001600160a01b0316815260200190815260200160002060000160006101000a81548160ff021916908315150217905550896001018c9080600181540180825580915050600190039060005260206000200160009091909190916101000a8154816001600160a01b0302191690836001600160a01b03160217905550611e4c611e47611ddd8e8d600201805480602002602001604051908101604052809291908181526020018280548015611dd357602002820191906000526020600020905b81546001600160a01b03168152600190910190602001808311611db5575b505050505061288f565b611e428d600201805480602002602001604051908101604052809291908181526020018280548015611e3857602002820191906000526020600020905b81546001600160a01b03168152600190910190602001808311611e1a575b50505050506128e3565b610f9f565b61297a565b8051611e629160028d0191602090910190612b42565b505b505050505050505050505050565b6001600160a01b038216600090815260208281526040918290208251608081018452815460ff1615158152600182810180548651601f600260001984871615610100020190931692909204918201879004870281018701909752808752606096929593949385810193929190830182828015611f2f5780601f10611f0457610100808354040283529160200191611f2f565b820191906000526020600020905b815481529060010190602001808311611f1257829003601f168201915b5050505050815260200160028201805480602002602001604051908101604052809291908181526020018280548015611f9157602002820191906000526020600020905b81546001600160a01b03168152600190910190602001808311611f73575b5050505050815260200160038201805480602002602001604051908101604052809291908181526020018280548015611ff357602002820191906000526020600020905b81546001600160a01b03168152600190910190602001808311611fd5575b505050505081525050612006828261272b565b6001600160a01b03851660009081526020858152604091829020600190810180548451600293821615610100026000190190911692909204601f8101849004840283018401909452838252909290918301828280156120a65780601f1061207b576101008083540402835291602001916120a6565b820191906000526020600020905b81548152906001019060200180831161208957829003601f168201915b50505050509250505092915050565b60608160010180548060200260200160405190810160405280929190818152602001828054801561210f57602002820191906000526020600020905b81546001600160a01b031681526001909101906020018083116120f1575b50505050509050919050565b6001015490565b6001600160a01b038516600090815260208581526040918290208251608081018452815460ff1615158152600180830180548651600261010083861615026000190190921691909104601f81018790048702820187019097528681529195929485810193908301828280156121d85780601f106121ad576101008083540402835291602001916121d8565b820191906000526020600020905b8154815290600101906020018083116121bb57829003601f168201915b505050505081526020016002820180548060200260200160405190810160405280929190818152602001828054801561223a57602002820191906000526020600020905b81546001600160a01b0316815260019091019060200180831161221c575b505050505081526020016003820180548060200260200160405190810160405280929190818152602001828054801561229c57602002820191906000526020600020905b81546001600160a01b0316815260019091019060200180831161227e575b5050505050815250506122af828261272b565b6001600160a01b038716600090815260208781526040918290208251608081018452815460ff1615158152600180830180548651600261010083861615026000190190921691909104601f81018790048702820187019097528681529195929485810193908301828280156123655780601f1061233a57610100808354040283529160200191612365565b820191906000526020600020905b81548152906001019060200180831161234857829003601f168201915b50505050508152602001600282018054806020026020016040519081016040528092919081815260200182805480156123c757602002820191906000526020600020905b81546001600160a01b031681526001909101906020018083116123a9575b505050505081526020016003820180548060200260200160405190810160405280929190818152602001828054801561242957602002820191906000526020600020905b81546001600160a01b0316815260019091019060200180831161240b575b50505050508152505061243c8282612785565b848661244882826127eb565b6001600160a01b038b16600090815260208b905260409020600301546124995760038a018054600181018255600091825260209091200180546001600160a01b0319166001600160a01b038d161790555b6001600160a01b038b16600090815260208b815260408220600301805460018101825590835291200180546001600160a01b031916331790556124dc8789612828565b336001600160a01b038c16148061251457506001600160a01b038b16600090815260208b90526040902060030154612514908a612874565b15610f92576125e6611e476125838d8d600101805480602002602001604051908101604052809291908181526020018280548015611dd3576020028201919060005260206000209081546001600160a01b03168152600190910190602001808311611db557505050505061288f565b611e428d600101805480602002602001604051908101604052809291908181526020018280548015611e38576020028201919060005260206000209081546001600160a01b03168152600190910190602001808311611e1a5750505050506128e3565b80516125fc9160018d0191602090910190612b42565b506126ca611e476126678d8d600301805480602002602001604051908101604052809291908181526020018280548015611dd3576020028201919060005260206000209081546001600160a01b03168152600190910190602001808311611db557505050505061288f565b611e428d600301805480602002602001604051908101604052809291908181526020018280548015611e38576020028201919060005260206000209081546001600160a01b03168152600190910190602001808311611e1a5750505050506128e3565b80516126e09160038d0191602090910190612b42565b506001600160a01b038b16600090815260208b905260408120805460ff191681559061270f6001830182612b97565b61271d600283016000612bde565b611e62600383016000612bde565b8161275b57612739816118c0565b156127565760405162461bcd60e51b815260040161033590613110565b610ddc565b612764816118c0565b1515600114610ddc5760405162461bcd60e51b815260040161033590612f91565b81600181111561279157fe5b6127c0576127a3338260400151612a17565b156127565760405162461bcd60e51b815260040161033590612fe9565b6127ce338260600151612a17565b15610ddc5760405162461bcd60e51b815260040161033590612fe9565b336000908152600182016020908152604080832085845290915290205460ff1615610ddc5760405162461bcd60e51b81526004016103359061307d565b3360008181526001838101602090815260408084208785528252808420805460ff1916909317909255928252918390522054821115610ddc573360009081526020919091526040902055565b60008183101561288657506000610bed565b50600192915050565b6000805b82518110156128d8578281815181106128a857fe5b60200260200101516001600160a01b0316846001600160a01b031614156128d0579050610bed565b600101612893565b505051600101919050565b60606000825167ffffffffffffffff811180156128ff57600080fd5b50604051908082528060200260200182016040528015612929578160200160208202803683370190505b50905060005b83518110156129735761295484828151811061294757fe5b6020026020010151612a6d565b82828151811061296057fe5b602090810291909101015260010161292f565b5092915050565b60606000825167ffffffffffffffff8111801561299657600080fd5b506040519080825280602002602001820160405280156129c0578160200160208202803683370190505b50905060005b8351811015612973576129eb8482815181106129de57fe5b6020026020010151612a79565b8282815181106129f757fe5b6001600160a01b03909216602092830291909101909101526001016129c6565b6000805b8251811015612a6357828181518110612a3057fe5b60200260200101516001600160a01b0316846001600160a01b03161415612a5b576001915050610bed565b600101612a1b565b5060009392505050565b6001600160a01b031690565b90565b828054828255906000526020600020908101928215612ab7579160200282015b82811115612ab7578251825591602001919060010190612a9c565b50612ac3929150612bf8565b5090565b828054600181600116156101000203166002900490600052602060002090601f016020900481019282612afd5760008555612ab7565b82601f10612b1657805160ff1916838001178555612ab7565b82800160010185558215612ab75791820182811115612ab7578251825591602001919060010190612a9c565b828054828255906000526020600020908101928215612ab7579160200282015b82811115612ab757825182546001600160a01b0319166001600160a01b03909116178255602090920191600190910190612b62565b50805460018160011615610100020316600290046000825580601f10612bbd5750612bdb565b601f016020900490600052602060002090810190612bdb9190612bf8565b50565b5080546000825590600052602060002090810190612bdb91905b5b80821115612ac35760008155600101612bf9565b80356001600160a01b038116811461076e57600080fd5b600060208284031215612c35578081fd5b6108fd82612c0d565b600080600060608486031215612c52578182fd5b612c5b84612c0d565b925060208085013567ffffffffffffffff80821115612c78578485fd5b818701915087601f830112612c8b578485fd5b813581811115612c9757fe5b604051601f8201601f1916810185018381118282101715612cb457fe5b60405281815283820185018a1015612cca578687fd5b81858501868301379081019093019490945250929592945050506040919091013590565b60008060408385031215612d00578182fd5b612d0983612c0d565b946020939093013593505050565b600080600060608486031215612d2b578283fd5b612d3484612c0d565b95602085013595506040909401359392505050565b600060208284031215612d5a578081fd5b81356108fd81613150565b600060208284031215612d76578081fd5b81516108fd81613150565b60008060408385031215612d93578182fd5b82359150612da360208401612c0d565b90509250929050565b600080600060608486031215612dc0578283fd5b83359250612dd060208501612c0d565b9150604084013590509250925092565b6001600160a01b03169052565b6001600160a01b0391909116815260200190565b6001600160a01b0392831681529116602082015260400190565b6020808252825182820181905260009190848201906040850190845b81811015612e5c5783516001600160a01b031683529284019291840191600101612e37565b50909695505050505050565b6020808252825182820181905260009190848201906040850190845b81811015612e5c57835183529284019291840191600101612e84565b901515815260200190565b6000602080835283518082850152825b81811015612ed757858101830151858201604001528201612ebb565b81811115612ee85783604083870101525b50601f01601f1916929092016040019392505050565b60006040820160408352818554600180821660008114612f255760018114612f4357612f7c565b60028304607f16855260ff1983166060880152608087019350612f7c565b60028304808652612f538a613144565b875b82811015612f725781548a82016060015290840190602001612f55565b8901606001955050505b50505080925050506108fd6020830184612de0565b60208082526003908201526245433760e81b604082015260600190565b6020808252600390820152621150cd60ea1b604082015260600190565b6020808252600490820152634543313960e01b604082015260600190565b60208082526003908201526245433560e81b604082015260600190565b6020808252600490820152631150cc4d60e21b604082015260600190565b60208082526003908201526245433360e81b604082015260600190565b6020808252600490820152634543313560e01b604082015260600190565b60208082526004908201526322a1989960e11b604082015260600190565b6020808252600490820152630454332360e41b604082015260600190565b60208082526003908201526245433960e81b604082015260600190565b60208082526003908201526245433160e81b604082015260600190565b60208082526003908201526208a86760eb1b604082015260600190565b6020808252600490820152630454331360e41b604082015260600190565b60208082526003908201526222a19b60e91b604082015260600190565b90815260200190565b918252602082015260400190565b60009081526020902090565b8015158114612bdb57600080fdfea2646970667358221220c53c984b9e47b26542b4e81e39dbe9663872ee3922406ace2e5fc7b9c209e49964736f6c63430007060033",
  "immutableReferences": {},
  "source": "// SPDX-License-Identifier: GPL-3.0\r\n\r\npragma solidity >=0.7.0 <0.9.0;\r\n\r\n/**\r\n * @title Storage\r\n * @dev Store & retrieve value in a variable\r\n */\r\n\r\nimport \"./Libraries/Library.sol\";\r\nimport \"./PrivateCertificatesPool.sol\";\r\nimport \"./PublicCertificatesPool.sol\";\r\n\r\ncontract CertificatesPoolManager{\r\n    using Library for *;\r\n\r\n    // events\r\n    event _NewCertificatesPool(uint256, address, MultiSigCertificatesPool);\r\n    event _SendProposalId(address);\r\n\r\n    // modfiers\r\n    modifier isIdCorrect(uint Id, uint length){\r\n        require(true == Library.IdCorrect(Id, length), \"EC1\");\r\n        _;\r\n    }\r\n\r\n    modifier areFundsEnough(uint minPrice){\r\n        require(msg.value >= minPrice, \"EC2\");\r\n        _;\r\n    }\r\n    \r\n    // Private Certificates Pool structure\r\n    struct _privateCertificatesPoolStruct{\r\n        address _creator;\r\n        PrivateCertificatesPool _PrivateCertificatesPool;\r\n    } \r\n\r\n    _privateCertificatesPoolStruct[] _PrivateCertificatesPools;\r\n    \r\n    // Public Certificates Pool structure\r\n    PublicCertificatesPool  _PublicCertificatesPool;\r\n\r\n    uint _PublicPriceWei;\r\n    uint _PrivatePoolPriceWei;\r\n    uint _nonce;\r\n\r\n    address payable _chairperson;\r\n    \r\n    constructor(address[] memory owners, uint256 minOwners, uint256 PublicPriceWei, uint256 PrivatePriceWei) payable{\r\n        _chairperson = payable(msg.sender);\r\n        _PublicPriceWei = PublicPriceWei;\r\n        _PrivatePoolPriceWei = PrivatePriceWei;  \r\n        _PublicCertificatesPool = new PublicCertificatesPool(owners, minOwners);\r\n        _nonce = 0;\r\n    }\r\n\r\n    // PRIVATE CERTIFICATE POOL /////////////////////////////////////////////////////////////\r\n\r\n    function createPrivateCertificatesPool(address[] memory owners,  uint256 minOwners) external\r\n        areFundsEnough(_PrivatePoolPriceWei)\r\n    payable\r\n    {\r\n        PrivateCertificatesPool certificatePool = new PrivateCertificatesPool(owners, minOwners);\r\n        _privateCertificatesPoolStruct memory privateCertificatesPool = _privateCertificatesPoolStruct(msg.sender, certificatePool);\r\n        _PrivateCertificatesPools.push(privateCertificatesPool);\r\n\r\n        emit _NewCertificatesPool(_PrivateCertificatesPools.length - 1, privateCertificatesPool._creator, privateCertificatesPool._PrivateCertificatesPool);\r\n    }\r\n\r\n    function retrievePrivateCertificatesPool(uint certificatePoolId) external\r\n        isIdCorrect(certificatePoolId, _PrivateCertificatesPools.length)\r\n    view returns (address, MultiSigCertificatesPool)\r\n    {\r\n        return(_PrivateCertificatesPools[certificatePoolId]._creator, _PrivateCertificatesPools[certificatePoolId]._PrivateCertificatesPool);\r\n    }\r\n\r\n    function retrieveTotalPrivateCertificatesPool() external view returns (uint)\r\n    {\r\n        return(_PrivateCertificatesPools.length);\r\n    }\r\n\r\n    // PUBLIC CERTIFICATE POOL /////////////////////////////////////////////////////////////\r\n    \r\n    function sendProposal(address provider, string memory providerInfo) public \r\n        areFundsEnough(_PublicPriceWei)\r\n    payable \r\n    {\r\n       _PublicCertificatesPool.addProvider(provider, providerInfo, _nonce);\r\n       _nonce += 1;\r\n\r\n       emit _SendProposalId(provider);\r\n    }\r\n    \r\n    function retrieveConfiguration() public view returns (MultiSigCertificatesPool, address, uint) {\r\n        return (_PublicCertificatesPool, _chairperson, address(this).balance);\r\n    }\r\n    \r\n}",
  "sourcePath": "C:/Users/d-aam/GitHub/Certificates/contracts/CertificatesPoolManager.sol",
  "compiler": {
    "name": "solc",
    "version": "0.7.6+commit.7338295f.Emscripten.clang"
  },
  "schemaVersion": "3.3.4",
  "updatedAt": "2021-07-13T14:28:37.286Z",
  "networkType": "ethereum",
  "devdoc": {
    "kind": "dev",
    "methods": {},
    "version": 1
  },
  "userdoc": {
    "kind": "user",
    "methods": {},
    "version": 1
  }
}