{
  "contractName": "CertificatesPoolManager",
  "abi": [
    {
      "inputs": [],
      "stateMutability": "payable",
      "type": "constructor"
    },
    {
      "anonymous": false,
      "inputs": [
        {
          "indexed": false,
          "internalType": "uint256",
          "name": "",
          "type": "uint256"
        },
        {
          "indexed": false,
          "internalType": "address",
          "name": "",
          "type": "address"
        },
        {
          "indexed": false,
          "internalType": "contract MultiSigCertificatesPool",
          "name": "",
          "type": "address"
        }
      ],
      "name": "_NewCertificatesPool",
      "type": "event"
    },
    {
      "anonymous": false,
      "inputs": [
        {
          "indexed": false,
          "internalType": "address",
          "name": "",
          "type": "address"
        }
      ],
      "name": "_SendProposalId",
      "type": "event"
    },
    {
      "inputs": [
        {
          "internalType": "address",
          "name": "PublicPoolAddress",
          "type": "address"
        },
        {
          "internalType": "address",
          "name": "TreasuryAddress",
          "type": "address"
        }
      ],
      "name": "Initialize",
      "outputs": [],
      "stateMutability": "nonpayable",
      "type": "function"
    },
    {
      "inputs": [
        {
          "internalType": "address[]",
          "name": "owners",
          "type": "address[]"
        },
        {
          "internalType": "uint256",
          "name": "minOwners",
          "type": "uint256"
        }
      ],
      "name": "createPrivateCertificatesPool",
      "outputs": [],
      "stateMutability": "payable",
      "type": "function"
    },
    {
      "inputs": [
        {
          "internalType": "uint256",
          "name": "certificatePoolId",
          "type": "uint256"
        }
      ],
      "name": "retrievePrivateCertificatesPool",
      "outputs": [
        {
          "internalType": "address",
          "name": "",
          "type": "address"
        },
        {
          "internalType": "contract MultiSigCertificatesPool",
          "name": "",
          "type": "address"
        }
      ],
      "stateMutability": "view",
      "type": "function"
    },
    {
      "inputs": [],
      "name": "retrieveTotalPrivateCertificatesPool",
      "outputs": [
        {
          "internalType": "uint256",
          "name": "",
          "type": "uint256"
        }
      ],
      "stateMutability": "view",
      "type": "function"
    },
    {
      "inputs": [
        {
          "internalType": "address",
          "name": "provider",
          "type": "address"
        },
        {
          "internalType": "string",
          "name": "providerInfo",
          "type": "string"
        }
      ],
      "name": "sendProposal",
      "outputs": [],
      "stateMutability": "payable",
      "type": "function"
    },
    {
      "inputs": [],
      "name": "retrieveConfiguration",
      "outputs": [
        {
          "internalType": "contract Treasury",
          "name": "",
          "type": "address"
        },
        {
          "internalType": "contract MultiSigCertificatesPool",
          "name": "",
          "type": "address"
        },
        {
          "internalType": "address",
          "name": "",
          "type": "address"
        },
        {
          "internalType": "uint256",
          "name": "",
          "type": "uint256"
        }
      ],
      "stateMutability": "view",
      "type": "function"
    }
  ],
  "bytecode": "0x6080604052600380546001600160a01b03191633179055613628806100256000396000f3fe6080604052600436106200005c5760003560e01c806360f029c91462000061578063858e7ce6146200008b578063a4a788961462000147578063d185a5261462000194578063dc90fed014620001f1578063f5807c051462000230575b600080fd5b3480156200006e57600080fd5b5062000079620002d9565b60408051918252519081900360200190f35b6200014560048036036040811015620000a357600080fd5b6001600160a01b038235169190810190604081016020820135600160201b811115620000ce57600080fd5b820183602082011115620000e157600080fd5b803590602001918460018302840111600160201b831117156200010357600080fd5b91908080601f016020809104026020016040519081016040528093929190818152602001838380828437600092019190915250929550620002df945050505050565b005b3480156200015457600080fd5b506200015f6200045f565b604080516001600160a01b03958616815293851660208501529190931682820152606082019290925290519081900360800190f35b348015620001a157600080fd5b50620001c260048036036020811015620001ba57600080fd5b50356200047e565b60405180836001600160a01b03168152602001826001600160a01b031681526020019250505060405180910390f35b348015620001fe57600080fd5b5062000145600480360360408110156200021757600080fd5b506001600160a01b0381358116916020013516620005ac565b62000145600480360360408110156200024857600080fd5b810190602081018135600160201b8111156200026357600080fd5b8201836020820111156200027657600080fd5b803590602001918460208302840111600160201b831117156200029857600080fd5b91908080602002602001604051908101604052809392919081815260200183836020028082843760009201919091525092955050913592506200068c915050565b60005490565b600260009054906101000a90046001600160a01b03166001600160a01b031663435358f8346040518263ffffffff1660e01b81526004016000604051808303818588803b1580156200033057600080fd5b505af115801562000345573d6000803e3d6000fd5b50506001546040805162fc000560e81b81526001600160a01b03888116600483019081526024830193845288516044840152885191909416965063fc00050095508894508793929160640190602085019080838360005b83811015620003b65781810151838201526020016200039c565b50505050905090810190601f168015620003e45780820380516001836020036101000a031916815260200191505b509350505050600060405180830381600087803b1580156200040557600080fd5b505af11580156200041a573d6000803e3d6000fd5b5050604080516001600160a01b038616815290517fbaf065d025fe427c7c36f893bdec1c49e6c164c4a6531f4216f64e6e876a9a4f9350908190036020019150a15050565b6002546001546003546001600160a01b03928316939183169216904790565b6000808260008054905073__Library_______________________________632477a0ea83836040518363ffffffff1660e01b8152600401808381526020018281526020019250505060206040518083038186803b158015620004e057600080fd5b505af4158015620004f5573d6000803e3d6000fd5b505050506040513d60208110156200050c57600080fd5b505115156001146200054b576040805162461bcd60e51b815260206004820152600360248201526245433160e81b604482015290519081900360640190fd5b600085815481106200055957fe5b6000918252602082206002909102015481546001600160a01b039091169190879081106200058357fe5b60009182526020909120600160029092020101549094506001600160a01b031692505050915091565b6003546001600160a01b0316331462000600576040805162461bcd60e51b815260206004820152601160248201527037b7363c9031b430b4b9103832b939b7b760791b604482015290519081900360640190fd5b600180546001600160a01b038085166001600160a01b031992831617928390556002805485831693168317905560408051633232ce0d60e21b815260048101939093525192169163c8cb38349160248082019260009290919082900301818387803b1580156200066f57600080fd5b505af115801562000684573d6000803e3d6000fd5b505050505050565b600260009054906101000a90046001600160a01b03166001600160a01b0316637cc850fd346040518263ffffffff1660e01b81526004016000604051808303818588803b158015620006dd57600080fd5b505af1158015620006f2573d6000803e3d6000fd5b505050505060008282604051620007099062000863565b60208082018390526040808352845190830152835182916060830191868201910280838360005b838110156200074a57818101518382015260200162000730565b505050509050019350505050604051809103906000f08015801562000773573d6000803e3d6000fd5b506040805180820182523381526001600160a01b03808416602080840191825260008054600181018255818052855160029091027f290decd9548b62a8d60345a988386fc84ba6bc95484008f6362f93160ef3e563810180549287166001600160a01b0319938416811790915594517f290decd9548b62a8d60345a988386fc84ba6bc95484008f6362f93160ef3e5649091018054919096169116811790945554855160001991909101815290810191909152808401919091529151929350917f9bfff6b81778f7b8086272d62a71be896cfc1876bb5f2e4e1fe28bc4c24159689181900360600190a150505050565b612d8180620008728339019056fe600560c09081526427bbb732b960d91b60e0526080908152610140604052600861010090815267283937bb34b232b960c11b6101205260a0526200004890600490600262000333565b5060405162002d8138038062002d818339810160408190526200006b91620004c8565b8181818160026004805480602002602001604051908101604052809291908181526020016000905b82821015620001445760008481526020908190208301805460408051601f60026000196101006001871615020190941693909304928301859004850281018501909152818152928301828280156200012f5780601f1062000103576101008083540402835291602001916200012f565b820191906000526020600020905b8154815290600101906020018083116200011157829003601f168201915b50505050508152602001906001019062000093565b5050505060008451841115620001775760405162461bcd60e51b81526004016200016e906200058e565b60405180910390fd5b600084116200019a5760405162461bcd60e51b81526004016200016e90620005ac565b81518314620001bd5760405162461bcd60e51b81526004016200016e90620005ca565b60008181555b8381101562000228576002805460010181556000528251600390849083908110620001ea57fe5b602090810291909101810151825460018101845560009384529282902081516200021e949190910192919091019062000397565b50600101620001c3565b50600184905560005b8551811015620003235760016002600054815481106200024d57fe5b906000526020600020906004020160000160008884815181106200026d57fe5b60200260200101516001600160a01b03166001600160a01b0316815260200190815260200160002060000160006101000a81548160ff021916908315150217905550600260005481548110620002bf57fe5b9060005260206000209060040201600101868281518110620002dd57fe5b60209081029190910181015182546001808201855560009485529290932090920180546001600160a01b0319166001600160a01b03909316929092179091550162000231565b50505050505050505050620005e8565b82805482825590600052602060002090810192821562000385579160200282015b828111156200038557825180516200037491849160209091019062000397565b509160200191906001019062000354565b506200039392915062000428565b5090565b828054600181600116156101000203166002900490600052602060002090601f016020900481019282620003cf57600085556200041a565b82601f10620003ea57805160ff19168380011785556200041a565b828001600101855582156200041a579182015b828111156200041a578251825591602001919060010190620003fd565b506200039392915062000449565b80821115620003935760006200043f828262000460565b5060010162000428565b5b808211156200039357600081556001016200044a565b50805460018160011615610100020316600290046000825580601f10620004885750620004a8565b601f016020900490600052602060002090810190620004a8919062000449565b50565b80516001600160a01b0381168114620004c357600080fd5b919050565b60008060408385031215620004db578182fd5b82516001600160401b0380821115620004f2578384fd5b818501915085601f83011262000506578384fd5b81516020828211156200051557fe5b808202604051828282010181811086821117156200052f57fe5b604052838152828101945085830182870184018b10156200054e578889fd5b8896505b848710156200057b576200056681620004ab565b86526001969096019594830194830162000552565b5097909101519698969750505050505050565b60208082526004908201526322a1989b60e11b604082015260600190565b6020808252600490820152634543313760e01b604082015260600190565b60208082526004908201526308a8662760e31b604082015260600190565b61278980620005f86000396000f3fe608060405234801561001057600080fd5b50600436106100e65760003560e01c8063173825d9146100eb5780631ab807f8146101005780632f54bf6e146101135780633542758f1461013c578063375834991461014f57806358a1ba251461017057806365b973e5146101905780636b074a07146101a55780636b299604146101b85780636b3a0fec146101d95780636e4f9179146101ec5780636e55d2d41461020157806377bc5a1f146102145780638a355a5714610227578063a73db28a1461023a578063a93d5ed61461024d578063d0a4adfe14610255578063fc00050014610275575b600080fd5b6100fe6100f936600461210e565b610288565b005b6100fe61010e3660046122cb565b6102d4565b61012661012136600461210e565b6103d4565b6040516101339190612486565b60405180910390f35b6100fe61014a366004612128565b6103ea565b61016261015d36600461210e565b6103fb565b604051610133929190612491565b61018361017e3660046121c1565b610413565b6040516101339190612442565b610198610583565b604051610133919061266f565b6101266101b336600461210e565b610589565b6101cb6101c6366004612293565b610596565b6040516101339291906123d2565b6101cb6101e7366004612293565b6105a5565b6101f46105b3565b60405161013391906123bf565b61019861020f36600461210e565b6105c4565b61016261022236600461210e565b6105e2565b6100fe61023536600461210e565b6105f2565b6100fe6102483660046122cb565b610600565b6101f461088c565b6102686102633660046122cb565b610899565b6040516101339190612391565b6100fe610283366004612128565b6108c6565b60015460016102986000546108d2565b5103808211156102c35760405162461bcd60e51b81526004016102ba90612565565b60405180910390fd5b6102cf83600054610a04565b505050565b6102dd33610589565b15156001146102fe5760405162461bcd60e51b81526004016102ba906125dc565b816001600160a01b0380831660009081526005602090815260408083208784529091529020548391859116156103465760405162461bcd60e51b81526004016102ba906125be565b6001600160a01b038416600090815260056020818152604080842089855280835281852080546001600160a01b031916339081179091559383526001908101805491820181558552919093200187905590517f601cb9a073dbfa468ef12878ee6c720641a49b76af7c16099e8c0a1ac3ca79b5916103c59187906123a5565b60405180910390a15050505050565b60006103e282600054611179565b90505b919050565b6103f7828260005461126a565b5050565b6060600061040a8360016118d9565b91509150915091565b60608261041f856105c4565b11610439575060408051600081526020810190915261057c565b818084610445876105c4565b03101561045a5783610456866105c4565b0390505b6000816001600160401b038111801561047257600080fd5b5060405190808252806020026020018201604052801561049c578160200160208202803683370190505b506001600160a01b03871660009081526005602090815260408083206001018054825181850281018501909352808352949550929390929183018282801561050357602002820191906000526020600020905b8154815260200190600101908083116104ef575b5050505050905060008060005b83518110156105735787831061052557610573565b818911156105385760018201915061056b565b83818151811061054457fe5b602002602001015185848151811061055857fe5b6020026020010181815250506001830192505b600101610510565b50929450505050505b9392505050565b60015490565b60006103e2826001611179565b60608061040a83600054611a67565b60608061040a836001611a67565b60606105bf60016108d2565b905090565b6001600160a01b031660009081526005602052604090206001015490565b6060600061040a836000546118d9565b6105fd816001610a04565b50565b61060933610589565b151560011461062a5760405162461bcd60e51b81526004016102ba906125dc565b6001600160a01b03818116600090815260056020908152604080832086845290915290205482918491163314806106695750336001600160a01b038316145b6106855760405162461bcd60e51b81526004016102ba906125a0565b6001600160a01b0380841660008181526005602081815260408084208a85528083528185205495855292825260019092018054835181840281018401909452808452949095169492939192919083018282801561070157602002820191906000526020600020905b8154815260200190600101908083116106ed575b5050505050905060005b81518110156108185781818151811061072057fe5b6020026020010151871415610810576001600160a01b038616600090815260056020526040908190209051635b28cf6360e01b815273__Library_______________________________91635b28cf63916107859185916001909101906004016126c5565b60006040518083038186803b15801561079d57600080fd5b505af41580156107b1573d6000803e3d6000fd5b505050506040513d6000823e601f3d908101601f191682016040526107d991908101906121f3565b6001600160a01b0387166000908152600560209081526040909120825161080a936001909201929190910190611f65565b50610818565b60010161070b565b506001600160a01b03851660009081526005602090815260408083208984529091529081902080546001600160a01b0319169055517fd12847594abf0621035046f61129f2a9dc5093eb516c6c517ece306362ef6f179061087c90849088906123a5565b60405180910390a1505050505050565b60606105bf6000546108d2565b6001600160a01b038082166000908152600560209081526040808320868452909152902054165b92915050565b6103f78282600161126a565b60025460405163123bd07560e11b8152606091839173__Library_______________________________90632477a0ea906109139085908590600401612708565b60206040518083038186803b15801561092b57600080fd5b505af415801561093f573d6000803e3d6000fd5b505050506040513d601f19601f8201168201806040525081019061096391906122af565b15156001146109845760405162461bcd60e51b81526004016102ba90612617565b6002848154811061099157fe5b90600052602060002090600402016001018054806020026020016040519081016040528092919081815260200182805480156109f657602002820191906000526020600020905b81546001600160a01b031681526001909101906020018083116109d8575b505050505092505050919050565b60025460405163123bd07560e11b815282919073__Library_______________________________90632477a0ea90610a439085908590600401612708565b60206040518083038186803b158015610a5b57600080fd5b505af4158015610a6f573d6000803e3d6000fd5b505050506040513d601f19601f82011682018060405250810190610a9391906122af565b1515600114610ab45760405162461bcd60e51b81526004016102ba90612617565b83610ac133600054611179565b151560011480610ad95750336001600160a01b038216145b610af55760405162461bcd60e51b81526004016102ba90612634565b60018585610b038282611179565b1515600114610b245760405162461bcd60e51b81526004016102ba90612548565b600160028881548110610b3357fe5b600091825260208083206001600160a01b038d168452600490920290910181526040918290208251608081018452815460ff1615158152600180830180548651601f600260001995841615610100029590950190921693909304908101869004860283018601909652858252919492938581019391929190830182828015610bfc5780601f10610bd157610100808354040283529160200191610bfc565b820191906000526020600020905b815481529060010190602001808311610bdf57829003601f168201915b5050505050815260200160028201805480602002602001604051908101604052809291908181526020018280548015610c5e57602002820191906000526020600020905b81546001600160a01b03168152600190910190602001808311610c40575b5050505050815260200160038201805480602002602001604051908101604052809291908181526020018280548015610cc057602002820191906000526020600020905b81546001600160a01b03168152600190910190602001808311610ca2575b505050505081525050816001811115610cd557fe5b610d0957610ce7338260400151611cc5565b15610d045760405162461bcd60e51b81526004016102ba90612583565b610d34565b610d17338260600151611cc5565b15610d345760405162461bcd60e51b81526004016102ba90612583565b60028981548110610d4157fe5b600091825260208083206001600160a01b038e168452600490920290910190526040902060030154610db85760028981548110610d7a57fe5b60009182526020808320600492909202909101600301805460018101825590835291200180546001600160a01b0319166001600160a01b038c161790555b60028981548110610dc557fe5b600091825260208083206001600160a01b038e168085526004909302018152604083206003018054600181018255908452922090910180546001600160a01b031916339081179091551480610e555750610e5560028a81548110610e2557fe5b600091825260208083206001600160a01b038f168452600490920290910190526040902060030154600154611d1b565b1561116d57610f59610edd8b60028c81548110610e6e57fe5b9060005260206000209060040201600101805480602002602001604051908101604052809291908181526020018280548015610ed357602002820191906000526020600020905b81546001600160a01b03168152600190910190602001808311610eb5575b5050505050611d36565b60028b81548110610eea57fe5b9060005260206000209060040201600101805480602002602001604051908101604052809291908181526020018280548015610f4f57602002820191906000526020600020905b81546001600160a01b03168152600190910190602001808311610f31575b5050505050611d53565b60028a81548110610f6657fe5b90600052602060002090600402016001019080519060200190610f8a929190611fb0565b5061108661100c8b60028c81548110610f9f57fe5b9060005260206000209060040201600301805480602002602001604051908101604052809291908181526020018280548015610ed3576020028201919060005260206000209081546001600160a01b03168152600190910190602001808311610eb5575050505050611d36565b60028b8154811061101957fe5b9060005260206000209060040201600301805480602002602001604051908101604052809291908181526020018280548015610f4f576020028201919060005260206000209081546001600160a01b03168152600190910190602001808311610f31575050505050611d53565b60028a8154811061109357fe5b906000526020600020906004020160030190805190602001906110b7929190611fb0565b50600289815481106110c557fe5b600091825260208083206001600160a01b038e1684526004909202909101905260408120805460ff19168155906110ff6001830182612005565b61110d600283016000612049565b61111b600383016000612049565b50507f1f62d535f971041db7bd8760bf0f1f9f476461558744a35c0d477b5ad6893e8960038a8154811061114b57fe5b906000526020600020018b6040516111649291906124b5565b60405180910390a15b50505050505050505050565b60025460405163123bd07560e11b8152600091839173__Library_______________________________90632477a0ea906111ba9085908590600401612708565b60206040518083038186803b1580156111d257600080fd5b505af41580156111e6573d6000803e3d6000fd5b505050506040513d601f19601f8201168201806040525081019061120a91906122af565b151560011461122b5760405162461bcd60e51b81526004016102ba90612617565b6002848154811061123857fe5b600091825260208083206001600160a01b038916845260049092029091019052604090205460ff169250505092915050565b60025460405163123bd07560e11b815282919073__Library_______________________________90632477a0ea906112a99085908590600401612708565b60206040518083038186803b1580156112c157600080fd5b505af41580156112d5573d6000803e3d6000fd5b505050506040513d601f19601f820116820180604052508101906112f991906122af565b151560011461131a5760405162461bcd60e51b81526004016102ba90612617565b61132633600054611179565b15156001146113475760405162461bcd60e51b81526004016102ba906125fa565b600085846113558282611179565b156113725760405162461bcd60e51b81526004016102ba90612652565b60006002878154811061138157fe5b600091825260208083206001600160a01b038d168452600490920290910181526040918290208251608081018452815460ff1615158152600180830180548651601f60026000199584161561010002959095019092169390930490810186900486028301860190965285825291949293858101939192919083018282801561144a5780601f1061141f5761010080835404028352916020019161144a565b820191906000526020600020905b81548152906001019060200180831161142d57829003601f168201915b50505050508152602001600282018054806020026020016040519081016040528092919081815260200182805480156114ac57602002820191906000526020600020905b81546001600160a01b0316815260019091019060200180831161148e575b505050505081526020016003820180548060200260200160405190810160405280929190818152602001828054801561150e57602002820191906000526020600020905b81546001600160a01b031681526001909101906020018083116114f0575b50505050508152505081600181111561152357fe5b61155757611535338260400151611cc5565b156115525760405162461bcd60e51b81526004016102ba90612583565b611582565b611565338260600151611cc5565b156115825760405162461bcd60e51b81526004016102ba90612583565b6002888154811061158f57fe5b600091825260208083206001600160a01b038e1684526004909202909101905260409020600201546116505788600289815481106115c957fe5b600091825260208083206001600160a01b038f1684526004909202909101815260409091208251611604936001909201929190910190612067565b506002888154811061161257fe5b60009182526020808320600492909202909101600201805460018101825590835291200180546001600160a01b0319166001600160a01b038c161790555b6002888154811061165d57fe5b600091825260208083206001600160a01b038e168452600490920290910181526040822060029081018054600181018255908452919092200180546001600160a01b0319163317905580546116e791908a9081106116b757fe5b600091825260208083206001600160a01b038f168452600490920290910190526040902060020154600154611d1b565b1561116d576001600289815481106116fb57fe5b600091825260208083206001600160a01b038f168452600492909202909101905260409020805460ff1916911515919091179055600280548990811061173d57fe5b60009182526020808320600160049093020182018054928301815583529091200180546001600160a01b038c166001600160a01b031990911617905560028054611879916117ff918d91908c90811061179257fe5b9060005260206000209060040201600201805480602002602001604051908101604052809291908181526020018280548015610ed3576020028201919060005260206000209081546001600160a01b03168152600190910190602001808311610eb5575050505050611d36565b60028a8154811061180c57fe5b9060005260206000209060040201600201805480602002602001604051908101604052809291908181526020018280548015610f4f576020028201919060005260206000209081546001600160a01b03168152600190910190602001808311610f31575050505050611d53565b6002898154811061188657fe5b906000526020600020906004020160020190805190602001906118aa929190611fb0565b507f3c139d46a211844e248647688545a37c07c505c999c1232d1247c707dc0a91e26003898154811061114b57fe5b60025460405163123bd07560e11b815260609160009184919073__Library_______________________________90632477a0ea9061191e9085908590600401612708565b60206040518083038186803b15801561193657600080fd5b505af415801561194a573d6000803e3d6000fd5b505050506040513d601f19601f8201168201806040525081019061196e91906122af565b151560011461198f5760405162461bcd60e51b81526004016102ba90612617565b6002858154811061199c57fe5b600091825260208083206001600160a01b038a16845260049092029091019052604090206001016119cd8787611179565b8154604080516020601f60026000196101006001881615020190951694909404938401819004810282018101909252828152918491830182828015611a535780601f10611a2857610100808354040283529160200191611a53565b820191906000526020600020905b815481529060010190602001808311611a3657829003601f168201915b505050505091509350935050509250929050565b60025460405163123bd07560e11b8152606091829184919073__Library_______________________________90632477a0ea90611aab9085908590600401612708565b60206040518083038186803b158015611ac357600080fd5b505af4158015611ad7573d6000803e3d6000fd5b505050506040513d601f19601f82011682018060405250810190611afb91906122af565b1515600114611b1c5760405162461bcd60e51b81526004016102ba90612617565b60608615611ba25760028681548110611b3157fe5b9060005260206000209060040201600201805480602002602001604051908101604052809291908181526020018280548015611b9657602002820191906000526020600020905b81546001600160a01b03168152600190910190602001808311611b78575b50505050509050611c1c565b60028681548110611baf57fe5b9060005260206000209060040201600301805480602002602001604051908101604052809291908181526020018280548015611c1457602002820191906000526020600020905b81546001600160a01b03168152600190910190602001808311611bf6575b505050505090505b6002546000906001600160401b0381118015611c3757600080fd5b50604051908082528060200260200182016040528015611c6b57816020015b6060815260200190600190039081611c565790505b50905060005b8251811015611cb757611c97838281518110611c8957fe5b6020026020010151896118d9565b50828281518110611ca457fe5b6020908102919091010152600101611c71565b509097909650945050505050565b6000805b8251811015611d1157828181518110611cde57fe5b60200260200101516001600160a01b0316846001600160a01b03161415611d095760019150506108c0565b600101611cc9565b5060009392505050565b600081831015611d2d575060006108c0565b50600192915050565b600061057c6001600160a01b038416611d4e84611df2565b611e8c565b606061057c73__Library_______________________________635b28cf6385611d7c86611df2565b6040518363ffffffff1660e01b8152600401611d99929190612678565b60006040518083038186803b158015611db157600080fd5b505af4158015611dc5573d6000803e3d6000fd5b505050506040513d6000823e601f3d908101601f19168201604052611ded91908101906121f3565b611ece565b6060600082516001600160401b0381118015611e0d57600080fd5b50604051908082528060200260200182016040528015611e37578160200160208202803683370190505b50905060005b8151811015611e8557838181518110611e5257fe5b60200260200101516001600160a01b031660001b828281518110611e7257fe5b6020908102919091010152600101611e3d565b5092915050565b6000805b8251811015611ec357828181518110611ea557fe5b6020026020010151841415611ebb5790506108c0565b600101611e90565b505051600101919050565b6060600082516001600160401b0381118015611ee957600080fd5b50604051908082528060200260200182016040528015611f13578160200160208202803683370190505b50905060005b8151811015611e8557838181518110611f2e57fe5b602002602001015160001c828281518110611f4557fe5b6001600160a01b0390921660209283029190910190910152600101611f19565b828054828255906000526020600020908101928215611fa0579160200282015b82811115611fa0578251825591602001919060010190611f85565b50611fac9291506120e2565b5090565b828054828255906000526020600020908101928215611fa0579160200282015b82811115611fa057825182546001600160a01b0319166001600160a01b03909116178255602090920191600190910190611fd0565b50805460018160011615610100020316600290046000825580601f1061202b57506105fd565b601f0160209004906000526020600020908101906105fd91906120e2565b50805460008255906000526020600020908101906105fd91906120e2565b828054600181600116156101000203166002900490600052602060002090601f01602090048101928261209d5760008555611fa0565b82601f106120b657805160ff1916838001178555611fa0565b82800160010185558215611fa05791820182811115611fa0578251825591602001919060010190611f85565b5b80821115611fac57600081556001016120e3565b80356001600160a01b03811681146103e557600080fd5b60006020828403121561211f578081fd5b61057c826120f7565b6000806040838503121561213a578081fd5b612143836120f7565b91506020838101356001600160401b038082111561215f578384fd5b818601915086601f830112612172578384fd5b81358181111561217e57fe5b612190601f8201601f19168501612716565b915080825287848285010111156121a5578485fd5b8084840185840137810190920192909252919491935090915050565b6000806000606084860312156121d5578081fd5b6121de846120f7565b95602085013595506040909401359392505050565b60006020808385031215612205578182fd5b82516001600160401b038082111561221b578384fd5b818501915085601f83011261222e578384fd5b81518181111561223a57fe5b838102915061224a848301612716565b8181528481019084860184860187018a1015612264578788fd5b8795505b83861015612286578051835260019590950194918601918601612268565b5098975050505050505050565b6000602082840312156122a4578081fd5b813561057c81612745565b6000602082840312156122c0578081fd5b815161057c81612745565b600080604083850312156122dd578182fd5b823591506122ed602084016120f7565b90509250929050565b6001600160a01b03169052565b6000815180845260208085019450808401835b8381101561233b5781516001600160a01b031687529582019590820190600101612316565b509495945050505050565b60008151808452815b8181101561236b5760208185018101518683018201520161234f565b8181111561237c5782602083870101525b50601f01601f19169290920160200192915050565b6001600160a01b0391909116815260200190565b6001600160a01b0392831681529116602082015260400190565b60006020825261057c6020830184612303565b6000604082526123e56040830185612303565b602083820381850152818551808452828401915082838202850101838801865b8381101561243357601f19878403018552612421838351612346565b94860194925090850190600101612405565b50909998505050505050505050565b6020808252825182820181905260009190848201906040850190845b8181101561247a5783518352928401929184019160010161245e565b50909695505050505050565b901515815260200190565b6000604082526124a46040830185612346565b905082151560208301529392505050565b600060408201604083528185546001808216600081146124dc57600181146124fa57612533565b60028304607f16855260ff1983166060880152608087019350612533565b6002830480865261250a8a612739565b875b828110156125295781548a8201606001529084019060200161250c565b8901606001955050505b505050809250505061057c60208301846122f6565b60208082526003908201526245433760e81b604082015260600190565b6020808252600490820152634543313960e01b604082015260600190565b60208082526003908201526245433560e81b604082015260600190565b6020808252600490820152631150cc4d60e21b604082015260600190565b6020808252600490820152634543313560e01b604082015260600190565b60208082526004908201526322a1989960e11b604082015260600190565b60208082526003908201526245433960e81b604082015260600190565b60208082526003908201526245433160e81b604082015260600190565b6020808252600490820152630454331360e41b604082015260600190565b60208082526003908201526222a19b60e91b604082015260600190565b90815260200190565b60006040820184835260206040818501528185518084526060860191508287019350845b818110156126b85784518352938301939183019160010161269c565b5090979650505050505050565b60006040820184835260206040818501528185548084526060860191508685528285209350845b818110156126b8578454835260019485019492840192016126ec565b918252602082015260400190565b6040518181016001600160401b038111828210171561273157fe5b604052919050565b60009081526020902090565b80151581146105fd57600080fdfea2646970667358221220f0c835f03c2ce7b9187fe98203d5ac75730adaf69529fcd7216397c0171b381364736f6c63430007060033a2646970667358221220cfc1adab7fd1957248c75e69dc7ae825d52ae50aed7000f4137d38a5b926f10964736f6c63430007060033",
  "immutableReferences": {},
  "source": "// SPDX-License-Identifier: GPL-3.0\r\n\r\npragma solidity >=0.7.0 <0.9.0;\r\n\r\n/**\r\n * @title Storage\r\n * @dev Store & retrieve value in a variable\r\n */\r\n\r\nimport \"./Libraries/Library.sol\";\r\nimport \"./PrivateCertificatesPool.sol\";\r\nimport \"./PublicCertificatesPool.sol\";\r\nimport \"./Treasury.sol\";\r\n\r\ncontract CertificatesPoolManager{\r\n    using Library for *;\r\n\r\n    // events\r\n    event _NewCertificatesPool(uint256, address, MultiSigCertificatesPool);\r\n    event _SendProposalId(address);\r\n\r\n    // modfiers\r\n    modifier isIdCorrect(uint Id, uint length){\r\n        require(true == Library.IdCorrect(Id, length), \"EC1\");\r\n        _;\r\n    }\r\n\r\n    modifier isFromChairPerson(){\r\n        require(msg.sender == _chairperson, \"only chair person\");\r\n        _;\r\n    }\r\n    \r\n    // Private Certificates Pool structure\r\n    struct _privateCertificatesPoolStruct{\r\n        address _creator;\r\n        PrivateCertificatesPool _PrivateCertificatesPool;\r\n    } \r\n\r\n    _privateCertificatesPoolStruct[] _PrivateCertificatesPools;\r\n    \r\n    // Public Certificates Pool structure\r\n    PublicCertificatesPool  _PublicCertificatesPool;\r\n\r\n    // Treasury\r\n    Treasury _Treasury;\r\n\r\n    address payable _chairperson;\r\n    \r\n    constructor() payable{\r\n        _chairperson = payable(msg.sender); \r\n    }\r\n\r\n    function Initialize(address PublicPoolAddress, address TreasuryAddress) \r\n        isFromChairPerson()\r\n    external{\r\n        _PublicCertificatesPool = PublicCertificatesPool(PublicPoolAddress);\r\n        _Treasury = Treasury(TreasuryAddress);\r\n        _PublicCertificatesPool.addTreasury(TreasuryAddress);\r\n    }\r\n\r\n    // PRIVATE CERTIFICATE POOL /////////////////////////////////////////////////////////////\r\n\r\n    function createPrivateCertificatesPool(address[] memory owners,  uint256 minOwners) external\r\n    payable\r\n    {\r\n        _Treasury.payForNewPool{value:msg.value}();\r\n        PrivateCertificatesPool certificatePool = new PrivateCertificatesPool(owners, minOwners);\r\n        _privateCertificatesPoolStruct memory privateCertificatesPool = _privateCertificatesPoolStruct(msg.sender, certificatePool);\r\n        _PrivateCertificatesPools.push(privateCertificatesPool);\r\n\r\n        emit _NewCertificatesPool(_PrivateCertificatesPools.length - 1, privateCertificatesPool._creator, privateCertificatesPool._PrivateCertificatesPool);\r\n    }\r\n\r\n    function retrievePrivateCertificatesPool(uint certificatePoolId) external\r\n        isIdCorrect(certificatePoolId, _PrivateCertificatesPools.length)\r\n    view returns (address, MultiSigCertificatesPool)\r\n    {\r\n        return(_PrivateCertificatesPools[certificatePoolId]._creator, _PrivateCertificatesPools[certificatePoolId]._PrivateCertificatesPool);\r\n    }\r\n\r\n    function retrieveTotalPrivateCertificatesPool() external view returns (uint)\r\n    {\r\n        return(_PrivateCertificatesPools.length);\r\n    }\r\n\r\n    // PUBLIC CERTIFICATE POOL /////////////////////////////////////////////////////////////\r\n    \r\n    function sendProposal(address provider, string memory providerInfo) external \r\n    payable \r\n    {\r\n        _Treasury.payForNewProposal{value:msg.value}();\r\n       _PublicCertificatesPool.addProvider(provider, providerInfo);\r\n\r\n       emit _SendProposalId(provider);\r\n    }\r\n    \r\n    function retrieveConfiguration() external view returns (Treasury, MultiSigCertificatesPool, address, uint) {\r\n        return (_Treasury, _PublicCertificatesPool, _chairperson, address(this).balance);\r\n    }\r\n    \r\n}",
  "sourcePath": "C:/Users/d-aam/GitHub/Certificates/contracts/CertificatesPoolManager.sol",
  "compiler": {
    "name": "solc",
    "version": "0.7.6+commit.7338295f.Emscripten.clang"
  },
  "schemaVersion": "3.3.4",
  "updatedAt": "2021-07-16T11:54:46.156Z",
  "devdoc": {
    "kind": "dev",
    "methods": {},
    "version": 1
  },
  "userdoc": {
    "kind": "user",
    "methods": {},
    "version": 1
  }
}