{
  "contractName": "CertificatesPoolManager",
  "abi": [
    {
      "inputs": [
        {
          "internalType": "uint256",
          "name": "PropositionLifeTime",
          "type": "uint256"
        },
        {
          "internalType": "uint8",
          "name": "PropositionThresholdPercentage",
          "type": "uint8"
        },
        {
          "internalType": "uint8",
          "name": "minWeightToProposePercentage",
          "type": "uint8"
        }
      ],
      "stateMutability": "nonpayable",
      "type": "constructor"
    },
    {
      "anonymous": false,
      "inputs": [
        {
          "indexed": false,
          "internalType": "uint256",
          "name": "Id",
          "type": "uint256"
        },
        {
          "indexed": true,
          "internalType": "address",
          "name": "Proposer",
          "type": "address"
        },
        {
          "indexed": false,
          "internalType": "uint256",
          "name": "Deadline",
          "type": "uint256"
        },
        {
          "indexed": false,
          "internalType": "uint256",
          "name": "Threshold",
          "type": "uint256"
        }
      ],
      "name": "_AddedProposition",
      "type": "event"
    },
    {
      "anonymous": false,
      "inputs": [
        {
          "indexed": false,
          "internalType": "uint256",
          "name": "Id",
          "type": "uint256"
        },
        {
          "indexed": true,
          "internalType": "address",
          "name": "Proposer",
          "type": "address"
        }
      ],
      "name": "_CancelledProposition",
      "type": "event"
    },
    {
      "anonymous": false,
      "inputs": [
        {
          "indexed": false,
          "internalType": "address",
          "name": "Public",
          "type": "address"
        },
        {
          "indexed": false,
          "internalType": "address",
          "name": "Treasury",
          "type": "address"
        },
        {
          "indexed": false,
          "internalType": "address",
          "name": "Certis",
          "type": "address"
        },
        {
          "indexed": false,
          "internalType": "address",
          "name": "PrivateFactory",
          "type": "address"
        },
        {
          "indexed": false,
          "internalType": "address",
          "name": "Private",
          "type": "address"
        },
        {
          "indexed": false,
          "internalType": "address",
          "name": "ProviderFactory",
          "type": "address"
        },
        {
          "indexed": false,
          "internalType": "address",
          "name": "Provider",
          "type": "address"
        },
        {
          "indexed": false,
          "internalType": "address",
          "name": "PriceConverter",
          "type": "address"
        }
      ],
      "name": "_NewContracts",
      "type": "event"
    },
    {
      "anonymous": false,
      "inputs": [
        {
          "indexed": false,
          "internalType": "uint256",
          "name": "Id",
          "type": "uint256"
        },
        {
          "indexed": true,
          "internalType": "address",
          "name": "Proposer",
          "type": "address"
        },
        {
          "indexed": false,
          "internalType": "uint256",
          "name": "VotesFor",
          "type": "uint256"
        },
        {
          "indexed": false,
          "internalType": "uint256",
          "name": "VotesAgainst",
          "type": "uint256"
        }
      ],
      "name": "_PropositionApproved",
      "type": "event"
    },
    {
      "anonymous": false,
      "inputs": [
        {
          "indexed": false,
          "internalType": "uint256",
          "name": "Id",
          "type": "uint256"
        },
        {
          "indexed": true,
          "internalType": "address",
          "name": "Proposer",
          "type": "address"
        },
        {
          "indexed": false,
          "internalType": "uint256",
          "name": "VotesFor",
          "type": "uint256"
        },
        {
          "indexed": false,
          "internalType": "uint256",
          "name": "VotesAgainst",
          "type": "uint256"
        }
      ],
      "name": "_PropositionRejected",
      "type": "event"
    },
    {
      "anonymous": false,
      "inputs": [
        {
          "indexed": false,
          "internalType": "uint256",
          "name": "Id",
          "type": "uint256"
        },
        {
          "indexed": true,
          "internalType": "address",
          "name": "Voter",
          "type": "address"
        },
        {
          "indexed": false,
          "internalType": "bool",
          "name": "Vote",
          "type": "bool"
        },
        {
          "indexed": false,
          "internalType": "uint256",
          "name": "AmountTokens",
          "type": "uint256"
        }
      ],
      "name": "_PropositionVote",
      "type": "event"
    },
    {
      "anonymous": false,
      "inputs": [
        {
          "indexed": true,
          "internalType": "uint256",
          "name": "Id",
          "type": "uint256"
        },
        {
          "indexed": false,
          "internalType": "address",
          "name": "From",
          "type": "address"
        },
        {
          "indexed": false,
          "internalType": "address",
          "name": "To",
          "type": "address"
        },
        {
          "indexed": false,
          "internalType": "uint256",
          "name": "Amount",
          "type": "uint256"
        }
      ],
      "name": "_UsedTokensTransfered",
      "type": "event"
    },
    {
      "inputs": [],
      "name": "cancelProposition",
      "outputs": [],
      "stateMutability": "nonpayable",
      "type": "function"
    },
    {
      "inputs": [],
      "name": "isCurrentPropositionProp",
      "outputs": [
        {
          "internalType": "bool",
          "name": "",
          "type": "bool"
        }
      ],
      "stateMutability": "view",
      "type": "function"
    },
    {
      "inputs": [
        {
          "internalType": "address",
          "name": "from",
          "type": "address"
        },
        {
          "internalType": "address",
          "name": "to",
          "type": "address"
        },
        {
          "internalType": "uint256",
          "name": "amount",
          "type": "uint256"
        }
      ],
      "name": "onTokenBalanceChanged",
      "outputs": [],
      "stateMutability": "nonpayable",
      "type": "function"
    },
    {
      "inputs": [],
      "name": "retrieveChairPerson",
      "outputs": [
        {
          "internalType": "address",
          "name": "",
          "type": "address"
        }
      ],
      "stateMutability": "view",
      "type": "function"
    },
    {
      "inputs": [],
      "name": "retrieveManagerContract",
      "outputs": [
        {
          "internalType": "address",
          "name": "",
          "type": "address"
        }
      ],
      "stateMutability": "view",
      "type": "function"
    },
    {
      "inputs": [],
      "name": "retrieveNextPropId",
      "outputs": [
        {
          "internalType": "uint256",
          "name": "",
          "type": "uint256"
        }
      ],
      "stateMutability": "view",
      "type": "function"
    },
    {
      "inputs": [],
      "name": "retrievePendingPropConfig",
      "outputs": [
        {
          "internalType": "uint256",
          "name": "",
          "type": "uint256"
        },
        {
          "internalType": "uint8",
          "name": "",
          "type": "uint8"
        },
        {
          "internalType": "uint8",
          "name": "",
          "type": "uint8"
        },
        {
          "internalType": "bool",
          "name": "",
          "type": "bool"
        }
      ],
      "stateMutability": "view",
      "type": "function"
    },
    {
      "inputs": [],
      "name": "retrievePropConfig",
      "outputs": [
        {
          "internalType": "uint256",
          "name": "",
          "type": "uint256"
        },
        {
          "internalType": "uint8",
          "name": "",
          "type": "uint8"
        },
        {
          "internalType": "uint8",
          "name": "",
          "type": "uint8"
        }
      ],
      "stateMutability": "view",
      "type": "function"
    },
    {
      "inputs": [],
      "name": "retrievePropositionStatus",
      "outputs": [
        {
          "internalType": "address",
          "name": "",
          "type": "address"
        },
        {
          "internalType": "uint256",
          "name": "",
          "type": "uint256"
        },
        {
          "internalType": "uint256",
          "name": "",
          "type": "uint256"
        },
        {
          "internalType": "uint256",
          "name": "",
          "type": "uint256"
        },
        {
          "internalType": "uint256",
          "name": "",
          "type": "uint256"
        }
      ],
      "stateMutability": "view",
      "type": "function"
    },
    {
      "inputs": [
        {
          "internalType": "uint256",
          "name": "PropId",
          "type": "uint256"
        },
        {
          "internalType": "address",
          "name": "voter",
          "type": "address"
        }
      ],
      "name": "retrieveVotesForVoter",
      "outputs": [
        {
          "internalType": "uint256",
          "name": "",
          "type": "uint256"
        }
      ],
      "stateMutability": "view",
      "type": "function"
    },
    {
      "inputs": [
        {
          "internalType": "uint256",
          "name": "PropLifeTime",
          "type": "uint256"
        },
        {
          "internalType": "uint8",
          "name": "PropThresholdPerc",
          "type": "uint8"
        },
        {
          "internalType": "uint8",
          "name": "minWeightToPropPerc",
          "type": "uint8"
        }
      ],
      "name": "updateProp",
      "outputs": [],
      "stateMutability": "nonpayable",
      "type": "function"
    },
    {
      "inputs": [
        {
          "internalType": "bool",
          "name": "vote",
          "type": "bool"
        }
      ],
      "name": "voteProposition",
      "outputs": [],
      "stateMutability": "nonpayable",
      "type": "function"
    },
    {
      "inputs": [
        {
          "components": [
            {
              "internalType": "address",
              "name": "NewPublicPoolAddress",
              "type": "address"
            },
            {
              "internalType": "address",
              "name": "NewTreasuryAddress",
              "type": "address"
            },
            {
              "internalType": "address",
              "name": "NewCertisTokenAddress",
              "type": "address"
            },
            {
              "internalType": "address",
              "name": "NewPrivatePoolFactoryAddress",
              "type": "address"
            },
            {
              "internalType": "address",
              "name": "NewPrivatePoolAddress",
              "type": "address"
            },
            {
              "internalType": "address",
              "name": "NewProviderFactoryAddress",
              "type": "address"
            },
            {
              "internalType": "address",
              "name": "NewProviderAddress",
              "type": "address"
            },
            {
              "internalType": "address",
              "name": "NewPriceConverterAddress",
              "type": "address"
            },
            {
              "internalType": "bytes",
              "name": "NewPublicPoolData",
              "type": "bytes"
            },
            {
              "internalType": "bytes",
              "name": "NewTreasuryData",
              "type": "bytes"
            },
            {
              "internalType": "bytes",
              "name": "NewCertisTokenData",
              "type": "bytes"
            },
            {
              "internalType": "bytes",
              "name": "NewPrivatePoolFactoryData",
              "type": "bytes"
            },
            {
              "internalType": "bytes",
              "name": "NewProviderFactoryData",
              "type": "bytes"
            },
            {
              "internalType": "bytes",
              "name": "NewPriceConverterData",
              "type": "bytes"
            },
            {
              "internalType": "string",
              "name": "NewPrivatePoolContractName",
              "type": "string"
            },
            {
              "internalType": "string",
              "name": "NewPrivatePoolContractVersion",
              "type": "string"
            }
          ],
          "internalType": "struct Library.ProposedContractsStruct",
          "name": "initialContracts",
          "type": "tuple"
        }
      ],
      "name": "InitializeContracts",
      "outputs": [],
      "stateMutability": "nonpayable",
      "type": "function"
    },
    {
      "inputs": [
        {
          "components": [
            {
              "internalType": "address",
              "name": "NewPublicPoolAddress",
              "type": "address"
            },
            {
              "internalType": "address",
              "name": "NewTreasuryAddress",
              "type": "address"
            },
            {
              "internalType": "address",
              "name": "NewCertisTokenAddress",
              "type": "address"
            },
            {
              "internalType": "address",
              "name": "NewPrivatePoolFactoryAddress",
              "type": "address"
            },
            {
              "internalType": "address",
              "name": "NewPrivatePoolAddress",
              "type": "address"
            },
            {
              "internalType": "address",
              "name": "NewProviderFactoryAddress",
              "type": "address"
            },
            {
              "internalType": "address",
              "name": "NewProviderAddress",
              "type": "address"
            },
            {
              "internalType": "address",
              "name": "NewPriceConverterAddress",
              "type": "address"
            },
            {
              "internalType": "bytes",
              "name": "NewPublicPoolData",
              "type": "bytes"
            },
            {
              "internalType": "bytes",
              "name": "NewTreasuryData",
              "type": "bytes"
            },
            {
              "internalType": "bytes",
              "name": "NewCertisTokenData",
              "type": "bytes"
            },
            {
              "internalType": "bytes",
              "name": "NewPrivatePoolFactoryData",
              "type": "bytes"
            },
            {
              "internalType": "bytes",
              "name": "NewProviderFactoryData",
              "type": "bytes"
            },
            {
              "internalType": "bytes",
              "name": "NewPriceConverterData",
              "type": "bytes"
            },
            {
              "internalType": "string",
              "name": "NewPrivatePoolContractName",
              "type": "string"
            },
            {
              "internalType": "string",
              "name": "NewPrivatePoolContractVersion",
              "type": "string"
            }
          ],
          "internalType": "struct Library.ProposedContractsStruct",
          "name": "UpgradeProposition",
          "type": "tuple"
        }
      ],
      "name": "upgradeContracts",
      "outputs": [],
      "stateMutability": "nonpayable",
      "type": "function"
    },
    {
      "inputs": [],
      "name": "retrieveProposition",
      "outputs": [
        {
          "internalType": "bytes32[]",
          "name": "",
          "type": "bytes32[]"
        }
      ],
      "stateMutability": "view",
      "type": "function"
    },
    {
      "inputs": [],
      "name": "retrievePublicCertificatePoolProxy",
      "outputs": [
        {
          "internalType": "address",
          "name": "",
          "type": "address"
        }
      ],
      "stateMutability": "view",
      "type": "function"
    },
    {
      "inputs": [],
      "name": "retrieveTreasuryProxy",
      "outputs": [
        {
          "internalType": "address",
          "name": "",
          "type": "address"
        }
      ],
      "stateMutability": "view",
      "type": "function"
    },
    {
      "inputs": [],
      "name": "retrieveCertisTokenProxy",
      "outputs": [
        {
          "internalType": "address",
          "name": "",
          "type": "address"
        }
      ],
      "stateMutability": "view",
      "type": "function"
    },
    {
      "inputs": [],
      "name": "retrievePrivatePoolFactoryProxy",
      "outputs": [
        {
          "internalType": "address",
          "name": "",
          "type": "address"
        }
      ],
      "stateMutability": "view",
      "type": "function"
    },
    {
      "inputs": [],
      "name": "retrievePrivatePoolBeacon",
      "outputs": [
        {
          "internalType": "address",
          "name": "",
          "type": "address"
        }
      ],
      "stateMutability": "view",
      "type": "function"
    },
    {
      "inputs": [],
      "name": "retrieveProviderFactoryProxy",
      "outputs": [
        {
          "internalType": "address",
          "name": "",
          "type": "address"
        }
      ],
      "stateMutability": "view",
      "type": "function"
    },
    {
      "inputs": [],
      "name": "retrieveProviderBeacon",
      "outputs": [
        {
          "internalType": "address",
          "name": "",
          "type": "address"
        }
      ],
      "stateMutability": "view",
      "type": "function"
    },
    {
      "inputs": [],
      "name": "retrievePriceConverterProxy",
      "outputs": [
        {
          "internalType": "address",
          "name": "",
          "type": "address"
        }
      ],
      "stateMutability": "view",
      "type": "function"
    },
    {
      "inputs": [],
      "name": "retrievePublicCertificatePool",
      "outputs": [
        {
          "internalType": "address",
          "name": "",
          "type": "address"
        }
      ],
      "stateMutability": "view",
      "type": "function"
    },
    {
      "inputs": [],
      "name": "retrieveTreasury",
      "outputs": [
        {
          "internalType": "address",
          "name": "",
          "type": "address"
        }
      ],
      "stateMutability": "view",
      "type": "function"
    },
    {
      "inputs": [],
      "name": "retrieveCertisToken",
      "outputs": [
        {
          "internalType": "address",
          "name": "",
          "type": "address"
        }
      ],
      "stateMutability": "view",
      "type": "function"
    },
    {
      "inputs": [],
      "name": "retrievePrivatePoolFactory",
      "outputs": [
        {
          "internalType": "address",
          "name": "",
          "type": "address"
        }
      ],
      "stateMutability": "view",
      "type": "function"
    },
    {
      "inputs": [],
      "name": "retrievePrivatePool",
      "outputs": [
        {
          "internalType": "address",
          "name": "",
          "type": "address"
        }
      ],
      "stateMutability": "view",
      "type": "function"
    },
    {
      "inputs": [],
      "name": "retrieveProviderFactory",
      "outputs": [
        {
          "internalType": "address",
          "name": "",
          "type": "address"
        }
      ],
      "stateMutability": "view",
      "type": "function"
    },
    {
      "inputs": [],
      "name": "retrieveProvider",
      "outputs": [
        {
          "internalType": "address",
          "name": "",
          "type": "address"
        }
      ],
      "stateMutability": "view",
      "type": "function"
    },
    {
      "inputs": [],
      "name": "retrievePriceConverter",
      "outputs": [
        {
          "internalType": "address",
          "name": "",
          "type": "address"
        }
      ],
      "stateMutability": "view",
      "type": "function"
    },
    {
      "inputs": [],
      "name": "isInitialized",
      "outputs": [
        {
          "internalType": "bool",
          "name": "",
          "type": "bool"
        }
      ],
      "stateMutability": "view",
      "type": "function"
    }
  ],
  "bytecode": "0x60806040523480156200001157600080fd5b50604051620056e2380380620056e28339810160408190526200003491620008a5565b6200004e8383833330620000b060201b620010ac1760201c565b6040516200005c90620007dc565b604051809103906000f08015801562000079573d6000803e3d6000fd5b50600e80546001600160a01b0319166001600160a01b039290921691909117905550506026805460ff60a01b191690555062000a24565b600054610100900460ff1680620000ca575060005460ff16155b620000f25760405162461bcd60e51b8152600401620000e99062000905565b60405180910390fd5b600054610100900460ff1615801562000115576000805461ffff19166101011790555b6200012b826200017760201b6200115f1760201c565b600180546001600160a01b0319166001600160a01b03851617815560006008556200015c908790879087906200020c565b80156200016f576000805461ff00191690555b505050505050565b600054610100900460ff168062000191575060005460ff16155b620001b05760405162461bcd60e51b8152600401620000e99062000905565b600054610100900460ff16158015620001d3576000805461ffff19166101011790555b6000805462010000600160b01b031916620100006001600160a01b03851602179055801562000208576000805461ff00191690555b5050565b82828160ff1660641015620002355760405162461bcd60e51b8152600401620000e990620008e6565b8060ff16606410156200025c5760405162461bcd60e51b8152600401620000e990620008e6565b82156200028957600a869055600b805460ff8681166101000261ffff19909216908816171790556200016f565b600c869055600d805460ff8681166101000261ffff1990921690881617179055600b805462ff00001916620100001790556200016f6000620002ca6200040e565b15620003015760405162461bcd60e51b8152602060048201526005602482015264454332342d60d81b6044820152606401620000e9565b6200030c3362000473565b1515600114620003475760405162461bcd60e51b8152602060048201526005602482015264454332322d60d81b6044820152606401620000e9565b600380546001600160a01b03191633179055600a5462000368904262000953565b600455600b5460649060ff166200037e620004f2565b6200038a919062000991565b6200039691906200096e565b600555600880546002819055906000620003b083620009f0565b909155505060035460025460045460055460408051938452602084019290925282820152516001600160a01b03909216917f472501d19bf75639b2e316cd36f8568b0c3ab943b82a87de3c086c98c1929df99181900360600190a250565b600454600090421015620004225750600190565b6003546001600160a01b0316156200046d576200043e620005f6565b6200046d60006002819055600380546001600160a01b0319169055600481905560058190556006819055600755565b50600090565b6001546000906001600160a01b03838116911614156200049557506001919050565b6000620004a28362000602565b90506064620004b0620004f2565b600b54620004c79190610100900460ff1662000991565b620004d391906200096e565b811115620004e45750600192915050565b50600092915050565b919050565b60008060029054906101000a90046001600160a01b03166001600160a01b031663da3dce266040518163ffffffff1660e01b815260040160206040518083038186803b1580156200054257600080fd5b505afa15801562000557573d6000803e3d6000fd5b505050506040513d601f19601f820116820180604052508101906200057d919062000859565b6001600160a01b03166318160ddd6040518163ffffffff1660e01b815260040160206040518083038186803b158015620005b657600080fd5b505afa158015620005cb573d6000803e3d6000fd5b505050506040513d601f19601f82011682018060405250810190620005f191906200088b565b905090565b6200060062000712565b565b60008060029054906101000a90046001600160a01b03166001600160a01b031663da3dce266040518163ffffffff1660e01b815260040160206040518083038186803b1580156200065257600080fd5b505afa15801562000667573d6000803e3d6000fd5b505050506040513d601f19601f820116820180604052508101906200068d919062000859565b6040516370a0823160e01b81526001600160a01b03848116600483015291909116906370a082319060240160206040518083038186803b158015620006d157600080fd5b505afa158015620006e6573d6000803e3d6000fd5b505050506040513d601f19601f820116820180604052508101906200070c91906200088b565b92915050565b600f80546001600160a01b0319908116825560108054821690556011805482169055601280548216905560138054821690556014805482169055601580548216905560168054909116905560006200076c601782620007ea565b6200077c600983016000620007ea565b6200078c600a83016000620007ea565b6200079c600b83016000620007ea565b620007ac600c83016000620007ea565b620007bc600d83016000620007ea565b620007cc600e83016000620007ea565b62000208600f83016000620007ea565b6107bd8062004f2583390190565b508054620007f890620009b3565b6000825580601f1062000809575050565b601f0160209004906000526020600020908101906200082991906200082c565b50565b5b808211156200084357600081556001016200082d565b5090565b805160ff81168114620004ed57600080fd5b6000602082840312156200086c57600080fd5b81516001600160a01b03811681146200088457600080fd5b9392505050565b6000602082840312156200089e57600080fd5b5051919050565b600080600060608486031215620008bb57600080fd5b83519250620008cd6020850162000847565b9150620008dd6040850162000847565b90509250925092565b602080825260059082015264454332312d60d81b604082015260600190565b6020808252602e908201527f496e697469616c697a61626c653a20636f6e747261637420697320616c72656160408201526d191e481a5b9a5d1a585b1a5e995960921b606082015260800190565b6000821982111562000969576200096962000a0e565b500190565b6000826200098c57634e487b7160e01b600052601260045260246000fd5b500490565b6000816000190483118215151615620009ae57620009ae62000a0e565b500290565b600181811c90821680620009c857607f821691505b60208210811415620009ea57634e487b7160e01b600052602260045260246000fd5b50919050565b600060001982141562000a075762000a0762000a0e565b5060010190565b634e487b7160e01b600052601160045260246000fd5b6144f18062000a346000396000f3fe60806040523480156200001157600080fd5b5060043610620001a25760003560e01c8063029b967314620001a757806304cc67a914620001c957806316c94e6314620001dc57806322d929e114620001f5578063392e53cd14620001ff5780633c65d427146200021e5780633c7df55d14620002305780634044adb214620002475780634b19aa16146200028057806355457ee9146200028a5780635773bc2314620002945780635a3794e914620002a65780635b362e8414620002b85780636025541514620002d05780636771717714620002e25780637c2f3aaf14620002ec578063840f6d1714620002fe57806390d138ed146200034057806391f916711462000377578063a42e1339146200038e578063a93316f51462000398578063aa33380a14620003b1578063ac2bb44214620003c3578063ba4d4e3914620003da578063bc3be09614620003f1578063c50ec82b1462000403578063d660ab34146200040d578063da3dce26146200043a578063db85bc4d146200044c578063ee2aa36a146200045e578063efd15d171462000468578063f5ad9acc1462000472575b600080fd5b620001b162000484565b604051620001c0919062002918565b60405180910390f35b6008545b604051908152602001620001c0565b620001f3620001ed3660046200283d565b620004a3565b005b620001b1620004c2565b602654600160a01b900460ff165b6040519015158152602001620001c0565b601f546001600160a01b0316620001b1565b620001f3620002413660046200279d565b620004dc565b620001cd620002583660046200287b565b60009182526009602090815260408084206001600160a01b0393909316845291905290205490565b620001b162000631565b620001f36200063d565b6021546001600160a01b0316620001b1565b6024546001600160a01b0316620001b1565b6000546201000090046001600160a01b0316620001b1565b6026546001600160a01b0316620001b1565b620001b16200077c565b6020546001600160a01b0316620001b1565b600354600454600554600654600754604080516001600160a01b0390961686526020860194909452928401919091526060830152608082015260a001620001c0565b6200034a62000796565b604051620001c0949392919093845260ff9283166020850152911660408301521515606082015260800190565b620001f362000388366004620027e3565b620007f4565b620001b16200092c565b620003a262000946565b604051620001c0919062002965565b6023546001600160a01b0316620001b1565b620001f3620003d4366004620028ae565b62000f3c565b620001f3620003eb3660046200283d565b62000f4b565b600b5462010000900460ff166200020d565b620001b16200106c565b600a54600b546040805192835260ff808316602085015261010090920490911690820152606001620001c0565b6025546001600160a01b0316620001b1565b6001546001600160a01b0316620001b1565b620001b162001078565b620001b162001092565b6022546001600160a01b0316620001b1565b6025546000906200049e906001600160a01b0316620011f4565b905090565b80600f620004b2828262002e55565b905050620004bf62001281565b50565b6021546000906200049e906001600160a01b0316620011f4565b73__Library_______________________________63d1d719d0600060029054906101000a90046001600160a01b03166001600160a01b031663da3dce266040518163ffffffff1660e01b815260040160206040518083038186803b1580156200054557600080fd5b505afa1580156200055a573d6000803e3d6000fd5b505050506040513d601f19601f820116820180604052508101906200058091906200277d565b6040518263ffffffff1660e01b81526004016200059e919062002918565b60206040518083038186803b158015620005b757600080fd5b505af4158015620005cc573d6000803e3d6000fd5b505050506040513d601f19601f82011682018060405250810190620005f2919062002803565b15156001146200061f5760405162461bcd60e51b8152600401620006169062002aca565b60405180910390fd5b6200062c838383620013ad565b505050565b60006200049e620013cf565b60016200064962001450565b15156001146200066d5760405162461bcd60e51b8152600401620006169062002b55565b600354604051630d1d719d60e41b815273__Library_______________________________9163d1d719d091620006b1916001600160a01b03169060040162002918565b60206040518083038186803b158015620006ca57600080fd5b505af4158015620006df573d6000803e3d6000fd5b505050506040513d601f19601f8201168201806040525081019062000705919062002803565b1515600114620007295760405162461bcd60e51b8152600401620006169062002b74565b6200073362001490565b6003546002546040519081526001600160a01b03909116907f1fe8aec10c0a50fa765076161e08c1f961ced69594ff45cf7d559f593afe1479906020015b60405180910390a250565b601f546000906200049e906001600160a01b0316620011f4565b600080600080600b60029054906101000a900460ff168015620007ba575060045442105b15620007e1575050600c54600d5490925060ff8082169250610100909104166001620007ee565b5060009250829150819050805b90919293565b60016200080062001450565b1515600114620008245760405162461bcd60e51b8152600401620006169062002b55565b6200083533600260000154620014bb565b1515600114620008705760405162461bcd60e51b8152602060048201526005602482015264454332332d60d81b604482015260640162000616565b60006200088333600260000154620014d4565b90508215620008af578060026004016000828254620008a3919062002bf9565b90915550620008cc9050565b8060026005016000828254620008c6919062002bf9565b90915550505b600254620008dc90338362001515565b600254604080519182528415156020830152810182905233907f50f654d58981575c05e369cb129aeacb01e1b036af429380242cfc5d1a4b743f9060600160405180910390a26200062c62001553565b6023546000906200049e906001600160a01b0316620011f4565b60408051600880825261012082019092526060916000919060208201610100803683375050600f5460405163bc215e8560e01b815292935073__AddressLibrary________________________9263bc215e859250620009b3916001600160a01b03169060040162002918565b60206040518083038186803b158015620009cc57600080fd5b505af4158015620009e1573d6000803e3d6000fd5b505050506040513d601f19601f8201168201806040525081019062000a07919062002823565b8160008151811062000a1d5762000a1d62002dfa565b602090810291909101015260105460405163bc215e8560e01b815273__AddressLibrary________________________9163bc215e859162000a6c916001600160a01b03169060040162002918565b60206040518083038186803b15801562000a8557600080fd5b505af415801562000a9a573d6000803e3d6000fd5b505050506040513d601f19601f8201168201806040525081019062000ac0919062002823565b8160018151811062000ad65762000ad662002dfa565b602090810291909101015260115460405163bc215e8560e01b815273__AddressLibrary________________________9163bc215e859162000b25916001600160a01b03169060040162002918565b60206040518083038186803b15801562000b3e57600080fd5b505af415801562000b53573d6000803e3d6000fd5b505050506040513d601f19601f8201168201806040525081019062000b79919062002823565b8160028151811062000b8f5762000b8f62002dfa565b602090810291909101015260125460405163bc215e8560e01b815273__AddressLibrary________________________9163bc215e859162000bde916001600160a01b03169060040162002918565b60206040518083038186803b15801562000bf757600080fd5b505af415801562000c0c573d6000803e3d6000fd5b505050506040513d601f19601f8201168201806040525081019062000c32919062002823565b8160038151811062000c485762000c4862002dfa565b602090810291909101015260135460405163bc215e8560e01b815273__AddressLibrary________________________9163bc215e859162000c97916001600160a01b03169060040162002918565b60206040518083038186803b15801562000cb057600080fd5b505af415801562000cc5573d6000803e3d6000fd5b505050506040513d601f19601f8201168201806040525081019062000ceb919062002823565b8160048151811062000d015762000d0162002dfa565b602090810291909101015260145460405163bc215e8560e01b815273__AddressLibrary________________________9163bc215e859162000d50916001600160a01b03169060040162002918565b60206040518083038186803b15801562000d6957600080fd5b505af415801562000d7e573d6000803e3d6000fd5b505050506040513d601f19601f8201168201806040525081019062000da4919062002823565b8160058151811062000dba5762000dba62002dfa565b602090810291909101015260155460405163bc215e8560e01b815273__AddressLibrary________________________9163bc215e859162000e09916001600160a01b03169060040162002918565b60206040518083038186803b15801562000e2257600080fd5b505af415801562000e37573d6000803e3d6000fd5b505050506040513d601f19601f8201168201806040525081019062000e5d919062002823565b8160068151811062000e735762000e7362002dfa565b602090810291909101015260165460405163bc215e8560e01b815273__AddressLibrary________________________9163bc215e859162000ec2916001600160a01b03169060040162002918565b60206040518083038186803b15801562000edb57600080fd5b505af415801562000ef0573d6000803e3d6000fd5b505050506040513d601f19601f8201168201806040525081019062000f16919062002823565b8160078151811062000f2c5762000f2c62002dfa565b6020908102919091010152919050565b6200062c8383836000620016a9565b600154604051630d1d719d60e41b815273__Library_______________________________9163d1d719d09162000f8f916001600160a01b03169060040162002918565b60206040518083038186803b15801562000fa857600080fd5b505af415801562000fbd573d6000803e3d6000fd5b505050506040513d601f19601f8201168201806040525081019062000fe3919062002803565b1515600114620010075760405162461bcd60e51b8152600401620006169062002aca565b602654600160a01b900460ff16156200104b5760405162461bcd60e51b8152602060048201526005602482015264454332362d60d81b604482015260640162000616565b620010568162001761565b506026805460ff60a01b1916600160a01b179055565b60006200049e62001c4a565b6026546000906200049e906001600160a01b0316620011f4565b6024546000906200049e906001600160a01b0316620011f4565b600054610100900460ff1680620010c6575060005460ff16155b620010e55760405162461bcd60e51b8152600401620006169062002b07565b600054610100900460ff1615801562001108576000805461ffff19166101011790555b62001113826200115f565b600180546001600160a01b0319166001600160a01b03851617815560006008556200114490879087908790620016a9565b801562001157576000805461ff00191690555b505050505050565b600054610100900460ff168062001179575060005460ff16155b620011985760405162461bcd60e51b8152600401620006169062002b07565b600054610100900460ff16158015620011bb576000805461ffff19166101011790555b6000805462010000600160b01b031916620100006001600160a01b038516021790558015620011f0576000805461ff00191690555b5050565b600e546040516310270e3d60e11b81526000916001600160a01b03169063204e1c7a906200122790859060040162002918565b60206040518083038186803b1580156200124057600080fd5b505afa15801562001255573d6000803e3d6000fd5b505050506040513d601f19601f820116820180604052508101906200127b91906200277d565b92915050565b60006200128d62001450565b15620012c45760405162461bcd60e51b8152602060048201526005602482015264454332342d60d81b604482015260640162000616565b620012cf3362001c8f565b1515600114620012f35760405162461bcd60e51b8152600401620006169062002b74565b600380546001600160a01b03191633179055600a5462001314904262002bf9565b600455600b5460649060ff166200132a62001d0e565b62001336919062002c37565b62001342919062002c14565b6005556008805460028190559060006200135c8362002dc6565b90915550506003546002546004546005546040516001600160a01b03909416937f472501d19bf75639b2e316cd36f8568b0c3ab943b82a87de3c086c98c1929df99362000771939092909162002b93565b620013b762001450565b1515600114156200062c576200062c83838362001e0d565b60225460408051635c60da1b60e01b815290516000926001600160a01b031691635c60da1b916004808301926020929190829003018186803b1580156200141557600080fd5b505afa1580156200142a573d6000803e3d6000fd5b505050506040513d601f19601f820116820180604052508101906200049e91906200277d565b600454600090421015620014645750600190565b6003546001600160a01b0316156200148a576200148062001f85565b6200148a62001490565b50600090565b60006002819055600380546001600160a01b0319169055600481905560058190556006819055600755565b600080620014ca8484620014d4565b1515949350505050565b60008181526009602090815260408083206001600160a01b0386168452909152812054620015028462001f8f565b6200150e919062002c59565b9392505050565b60008381526009602090815260408083206001600160a01b0386168452909152812080548392906200154990849062002bf9565b9091555050505050565b600554600654106200161957600b5462010000900460ff1615620015af57600c54600a55600d54600b805461010080840460ff90811690910261ffff19909216931692909217919091179055620015a96200209b565b620015b9565b620015b9620020b9565b620015c362001490565b6003546002546006546007546040516001600160a01b03909416937f23ca0034cf5aad32571b4a492e9598ea8a490e1643a60970e3cdc6933b55e49f936200160f939092909162002b93565b60405180910390a2565b60055460075410620016a757600b5462010000900460ff16156200164757620016416200209b565b62001651565b6200165162001f85565b6200165b62001490565b6003546002546006546007546040516001600160a01b03909416937fa58eb6daa3c62c3f883973c4035e5bd3e81aa627c8379de068a7de42df122be2936200160f939092909162002b93565b565b82828160ff1660641015620016d25760405162461bcd60e51b8152600401620006169062002ae8565b8060ff1660641015620016f95760405162461bcd60e51b8152600401620006169062002ae8565b82156200172657600a869055600b805460ff8681166101000261ffff199092169088161717905562001157565b600c869055600d805460ff8681166101000261ffff1990921690881617179055600b805462ff00001916620100001790556200115762001281565b6200177060208201826200275d565b600e546001600160a01b03166200178c61010084018462002ba9565b6040516200179a90620026db565b620017a994939291906200292c565b604051809103906000f080158015620017c6573d6000803e3d6000fd5b50602380546001600160a01b0319166001600160a01b0392909216919091179055620017f960408201602083016200275d565b600e546001600160a01b03166200181561012084018462002ba9565b6040516200182390620026db565b6200183294939291906200292c565b604051809103906000f0801580156200184f573d6000803e3d6000fd5b50602480546001600160a01b0319166001600160a01b03929092169190911790556200188260608201604083016200275d565b600e546001600160a01b03166200189e61014084018462002ba9565b604051620018ac90620026db565b620018bb94939291906200292c565b604051809103906000f080158015620018d8573d6000803e3d6000fd5b50602580546001600160a01b0319166001600160a01b03929092169190911790556200190b60808201606083016200275d565b600e546001600160a01b03166200192761016084018462002ba9565b6040516200193590620026db565b6200194494939291906200292c565b604051809103906000f08015801562001961573d6000803e3d6000fd5b50601f80546001600160a01b0319166001600160a01b03929092169190911790556200199460a08201608083016200275d565b604051620019a290620026e9565b620019ae919062002918565b604051809103906000f080158015620019cb573d6000803e3d6000fd5b50602080546001600160a01b0319166001600160a01b0392909216919091179055620019fe60c0820160a083016200275d565b600e546001600160a01b031662001a1a61018084018462002ba9565b60405162001a2890620026db565b62001a3794939291906200292c565b604051809103906000f08015801562001a54573d6000803e3d6000fd5b50602180546001600160a01b0319166001600160a01b039290921691909117905562001a8760e0820160c083016200275d565b60405162001a9590620026e9565b62001aa1919062002918565b604051809103906000f08015801562001abe573d6000803e3d6000fd5b50602280546001600160a01b0319166001600160a01b039290921691909117905562001af2610100820160e083016200275d565b600e546001600160a01b031662001b0e6101a084018462002ba9565b60405162001b1c90620026db565b62001b2b94939291906200292c565b604051809103906000f08015801562001b48573d6000803e3d6000fd5b50602680546001600160a01b0319166001600160a01b03928316179055601f541663ce50ac7662001b7e6101c084018462002ba9565b6040518363ffffffff1660e01b815260040162001b9d92919062002a1f565b600060405180830381600087803b15801562001bb857600080fd5b505af115801562001bcd573d6000803e3d6000fd5b5050601f546001600160a01b03169150631dd5862c905062001bf46101e084018462002ba9565b6040518363ffffffff1660e01b815260040162001c1392919062002a1f565b600060405180830381600087803b15801562001c2e57600080fd5b505af115801562001c43573d6000803e3d6000fd5b5050505050565b6020805460408051635c60da1b60e01b815290516000936001600160a01b0390931692635c60da1b9260048082019391829003018186803b1580156200141557600080fd5b6001546000906001600160a01b038381169116141562001cb157506001919050565b600062001cbe8362001f8f565b9050606462001ccc62001d0e565b600b5462001ce39190610100900460ff1662002c37565b62001cef919062002c14565b81111562001d005750600192915050565b50600092915050565b919050565b60008060029054906101000a90046001600160a01b03166001600160a01b031663da3dce266040518163ffffffff1660e01b815260040160206040518083038186803b15801562001d5e57600080fd5b505afa15801562001d73573d6000803e3d6000fd5b505050506040513d601f19601f8201168201806040525081019062001d9991906200277d565b6001600160a01b03166318160ddd6040518163ffffffff1660e01b815260040160206040518083038186803b15801562001dd257600080fd5b505afa15801562001de7573d6000803e3d6000fd5b505050506040513d601f19601f820116820180604052508101906200049e919062002823565b6001600160a01b0383161580159062001e4a575060025460009081526009602090815260408083206001600160a01b038716845290915290205415155b156200062c5760025460009081526009602090815260408083206001600160a01b0387168452909152902054819081111562001ea8575060025460009081526009602090815260408083206001600160a01b03871684529091529020545b60025460009081526009602090815260408083206001600160a01b03881684529091528120805483929062001edf90849062002c59565b90915550506001600160a01b0383161562001f315760025460009081526009602090815260408083206001600160a01b03871684529091528120805483929062001f2b90849062002bf9565b90915550505b600254604080516001600160a01b038088168252861660208201529081018390527f65fbd5e5dd32bea4aeca85bd0be0abf0e489d655dee888a7510d43b06dda2dba9060600160405180910390a250505050565b620016a7620020c3565b60008060029054906101000a90046001600160a01b03166001600160a01b031663da3dce266040518163ffffffff1660e01b815260040160206040518083038186803b15801562001fdf57600080fd5b505afa15801562001ff4573d6000803e3d6000fd5b505050506040513d601f19601f820116820180604052508101906200201a91906200277d565b6001600160a01b03166370a08231836040518263ffffffff1660e01b815260040162002047919062002918565b60206040518083038186803b1580156200206057600080fd5b505afa15801562002075573d6000803e3d6000fd5b505050506040513d601f19601f820116820180604052508101906200127b919062002823565b6000600c55600d805461ffff19169055600b805462ff000019169055565b62001f856200218d565b600f80546001600160a01b0319908116825560108054821690556011805482169055601280548216905560138054821690556014805482169055601580548216905560168054909116905560006200211d601782620026f7565b6200212d600983016000620026f7565b6200213d600a83016000620026f7565b6200214d600b83016000620026f7565b6200215d600c83016000620026f7565b6200216d600d83016000620026f7565b6200217d600e83016000620026f7565b620011f0600f83016000620026f7565b602354600f546017805462002240936001600160a01b0390811693169190620021b69062002d89565b80601f0160208091040260200160405190810160405280929190818152602001828054620021e49062002d89565b8015620022355780601f10620022095761010080835404028352916020019162002235565b820191906000526020600020905b8154815290600101906020018083116200221757829003601f168201915b505050505062002619565b6024546010546018805462002269936001600160a01b0390811693169190620021b69062002d89565b6025546011546019805462002292936001600160a01b0390811693169190620021b69062002d89565b601f54601254601a8054620022bb936001600160a01b0390811693169190620021b69062002d89565b602154601454601b8054620022e4936001600160a01b0390811693169190620021b69062002d89565b602654601654601c80546200230d936001600160a01b0390811693169190620021b69062002d89565b6013546001600160a01b0316156200238a57602054601354604051631b2ce7f360e11b81526001600160a01b0392831692633659cfe692620023559291169060040162002918565b600060405180830381600087803b1580156200237057600080fd5b505af115801562002385573d6000803e3d6000fd5b505050505b6015546001600160a01b0316156200240757602254601554604051631b2ce7f360e11b81526001600160a01b0392831692633659cfe692620023d29291169060040162002918565b600060405180830381600087803b158015620023ed57600080fd5b505af115801562002402573d6000803e3d6000fd5b505050505b601d8054620024169062002d89565b1590506200248657601f54604051636728563b60e11b81526001600160a01b039091169063ce50ac76906200245190601d9060040162002a3d565b600060405180830381600087803b1580156200246c57600080fd5b505af115801562002481573d6000803e3d6000fd5b505050505b601e8054620024959062002d89565b1590506200250557601f54604051630775618b60e21b81526001600160a01b0390911690631dd5862c90620024d090601e9060040162002a3d565b600060405180830381600087803b158015620024eb57600080fd5b505af115801562002500573d6000803e3d6000fd5b505050505b6023547f05c04d87852a41b811d4865cafb55055b0b03dceebff609472a889585286a7dc906200253e906001600160a01b0316620011f4565b60245462002555906001600160a01b0316620011f4565b6025546200256c906001600160a01b0316620011f4565b601f5462002583906001600160a01b0316620011f4565b6200258d62001c4a565b602154620025a4906001600160a01b0316620011f4565b620025ae620013cf565b602654620025c5906001600160a01b0316620011f4565b604080516001600160a01b03998a16815297891660208901529588168787015293871660608701529186166080860152851660a0850152841660c084015290921660e08201529051908190036101000190a1565b6001600160a01b038216156200062c57805115620026a057600e54604051639623609d60e01b81526001600160a01b0390911690639623609d906200266790869086908690600401620029ab565b600060405180830381600087803b1580156200268257600080fd5b505af115801562002697573d6000803e3d6000fd5b50505050505050565b600e5460405163266a23b160e21b81526001600160a01b0385811660048301528481166024830152909116906399a88ec49060440162002667565b610f30806200306983390190565b6105238062003f9983390190565b508054620027059062002d89565b6000825580601f1062002716575050565b601f016020900490600052602060002090810190620004bf91905b8082111562002747576000815560010162002731565b5090565b803560ff8116811462001d0957600080fd5b6000602082840312156200277057600080fd5b81356200150e8162003043565b6000602082840312156200279057600080fd5b81516200150e8162003043565b600080600060608486031215620027b357600080fd5b8335620027c08162003043565b92506020840135620027d28162003043565b929592945050506040919091013590565b600060208284031215620027f657600080fd5b81356200150e8162003059565b6000602082840312156200281657600080fd5b81516200150e8162003059565b6000602082840312156200283657600080fd5b5051919050565b6000602082840312156200285057600080fd5b81356001600160401b038111156200286757600080fd5b820161020081850312156200150e57600080fd5b600080604083850312156200288f57600080fd5b823591506020830135620028a38162003043565b809150509250929050565b600080600060608486031215620028c457600080fd5b83359250620028d6602085016200274b565b9150620028e6604085016200274b565b90509250925092565b81835281816020850137506000828201602090810191909152601f909101601f19169091010190565b6001600160a01b0391909116815260200190565b6001600160a01b038581168252841660208201526060604082018190526000906200295b9083018486620028ef565b9695505050505050565b6020808252825182820181905260009190848201906040850190845b818110156200299f5783518352928401929184019160010162002981565b50909695505050505050565b600060018060a01b038086168352602081861681850152606060408501528451915081606085015260005b82811015620029f457858101820151858201608001528101620029d6565b8281111562002a07576000608084870101525b5050601f01601f191691909101608001949350505050565b60208152600062002a35602083018486620028ef565b949350505050565b600060208083526000845462002a538162002d89565b8084870152604060018084166000811462002a77576001811462002a8c5762002abc565b60ff1985168984015260608901955062002abc565b896000528660002060005b8581101562002ab45781548b820186015290830190880162002a97565b8a0184019650505b509398975050505050505050565b6020808252600490820152634543382d60e01b604082015260600190565b602080825260059082015264454332312d60d81b604082015260600190565b6020808252602e908201527f496e697469616c697a61626c653a20636f6e747261637420697320616c72656160408201526d191e481a5b9a5d1a585b1a5e995960921b606082015260800190565b602080825260059082015264454332352d60d81b604082015260600190565b602080825260059082015264454332322d60d81b604082015260600190565b9283526020830191909152604082015260600190565b6000808335601e1984360301811262002bc157600080fd5b8301803591506001600160401b0382111562002bdc57600080fd5b60200191503681900382131562002bf257600080fd5b9250929050565b6000821982111562002c0f5762002c0f62002de4565b500190565b60008262002c3257634e487b7160e01b600052601260045260246000fd5b500490565b600081600019048311821515161562002c545762002c5462002de4565b500290565b60008282101562002c6e5762002c6e62002de4565b500390565b601f8211156200062c57600081815260208120601f850160051c8101602086101562002c9c5750805b601f850160051c820191505b81811015620011575782815560010162002ca8565b6001600160401b0383111562002cd75762002cd762002e10565b62002cef8362002ce8835462002d89565b8362002c73565b6000601f84116001811462002d26576000851562002d0d5750838201355b600019600387901b1c1916600186901b17835562001c43565b600083815260209020601f19861690835b8281101562002d59578685013582556020948501946001909201910162002d37565b508682101562002d775760001960f88860031b161c19848701351681555b505060018560011b0183555050505050565b600181811c9082168062002d9e57607f821691505b6020821081141562002dc057634e487b7160e01b600052602260045260246000fd5b50919050565b600060001982141562002ddd5762002ddd62002de4565b5060010190565b634e487b7160e01b600052601160045260246000fd5b634e487b7160e01b600052603260045260246000fd5b634e487b7160e01b600052604160045260246000fd5b600081356200127b8162003043565b80546001600160a01b0319166001600160a01b0392909216919091179055565b62002e6b62002e648362002e26565b8262002e35565b62002e8762002e7d6020840162002e26565b6001830162002e35565b62002ea362002e996040840162002e26565b6002830162002e35565b62002ebf62002eb56060840162002e26565b6003830162002e35565b62002edb62002ed16080840162002e26565b6004830162002e35565b62002ef762002eed60a0840162002e26565b6005830162002e35565b62002f1362002f0960c0840162002e26565b6006830162002e35565b62002f2f62002f2560e0840162002e26565b6007830162002e35565b62002f3f61010083018362002ba9565b62002f4f81836008860162002cbd565b505062002f6161012083018362002ba9565b62002f7181836009860162002cbd565b505062002f8361014083018362002ba9565b62002f938183600a860162002cbd565b505062002fa561016083018362002ba9565b62002fb58183600b860162002cbd565b505062002fc761018083018362002ba9565b62002fd78183600c860162002cbd565b505062002fe96101a083018362002ba9565b62002ff98183600d860162002cbd565b50506200300b6101c083018362002ba9565b6200301b8183600e860162002cbd565b50506200302d6101e083018362002ba9565b6200303d8183600f860162002cbd565b50505050565b6001600160a01b0381168114620004bf57600080fd5b8015158114620004bf57600080fdfe608060405260405162000f3038038062000f308339810160408190526200002691620004c2565b82816200005560017f360894a13ba1a3210667c828492db98dca3e2076cc3735a920a3ca505d382bbd620005f5565b60008051602062000ee9833981519152146200007557620000756200064a565b6200008382826000620000e7565b50620000b3905060017fb53127684a568b3173ae13b9f8a6016e243e63b6e8ee1178d6a717850b5d6104620005f5565b60008051602062000ec983398151915214620000d357620000d36200064a565b620000de8262000124565b50505062000676565b620000f2836200017f565b600082511180620001005750805b156200011f576200011d8383620001c160201b620002601760201c565b505b505050565b7f7e644d79422f17c01e4894b5f4f588d331ebfa28653d42ae832dc59e38c9798f6200014f620001f0565b604080516001600160a01b03928316815291841660208301520160405180910390a16200017c8162000229565b50565b6200018a81620002de565b6040516001600160a01b038216907fbc7cd75a20ee27fd9adebab32041f755214dbc6bffa90cc0225b39da2e5c2d3b90600090a250565b6060620001e9838360405180606001604052806027815260200162000f096027913962000381565b9392505050565b60006200021a60008051602062000ec983398151915260001b6200045e60201b620002081760201c565b546001600160a01b0316919050565b6001600160a01b038116620002945760405162461bcd60e51b815260206004820152602660248201527f455243313936373a206e65772061646d696e20697320746865207a65726f206160448201526564647265737360d01b60648201526084015b60405180910390fd5b80620002bd60008051602062000ec983398151915260001b6200045e60201b620002081760201c565b80546001600160a01b0319166001600160a01b039290921691909117905550565b620002f4816200046160201b6200028c1760201c565b620003585760405162461bcd60e51b815260206004820152602d60248201527f455243313936373a206e657720696d706c656d656e746174696f6e206973206e60448201526c1bdd08184818dbdb9d1c9858dd609a1b60648201526084016200028b565b80620002bd60008051602062000ee983398151915260001b6200045e60201b620002081760201c565b6060833b620003e25760405162461bcd60e51b815260206004820152602660248201527f416464726573733a2064656c65676174652063616c6c20746f206e6f6e2d636f6044820152651b9d1c9858dd60d21b60648201526084016200028b565b600080856001600160a01b031685604051620003ff9190620005a2565b600060405180830381855af49150503d80600081146200043c576040519150601f19603f3d011682016040523d82523d6000602084013e62000441565b606091505b5090925090506200045482828662000467565b9695505050505050565b90565b3b151590565b6060831562000478575081620001e9565b825115620004895782518084602001fd5b8160405162461bcd60e51b81526004016200028b9190620005c0565b80516001600160a01b0381168114620004bd57600080fd5b919050565b600080600060608486031215620004d857600080fd5b620004e384620004a5565b9250620004f360208501620004a5565b60408501519092506001600160401b03808211156200051157600080fd5b818601915086601f8301126200052657600080fd5b8151818111156200053b576200053b62000660565b604051601f8201601f19908116603f0116810190838211818310171562000566576200056662000660565b816040528281528960208487010111156200058057600080fd5b620005938360208301602088016200061b565b80955050505050509250925092565b60008251620005b68184602087016200061b565b9190910192915050565b6020815260008251806020840152620005e18160408501602087016200061b565b601f01601f19169190910160400192915050565b6000828210156200061657634e487b7160e01b600052601160045260246000fd5b500390565b60005b83811015620006385781810151838201526020016200061e565b838111156200011d5750506000910152565b634e487b7160e01b600052600160045260246000fd5b634e487b7160e01b600052604160045260246000fd5b61084380620006866000396000f3fe60806040526004361061004e5760003560e01c80633659cfe6146100655780634f1ef286146100855780635c60da1b146100985780638f283970146100c9578063f851a440146100e95761005d565b3661005d5761005b6100fe565b005b61005b6100fe565b34801561007157600080fd5b5061005b61008036600461068e565b610118565b61005b6100933660046106a9565b61015f565b3480156100a457600080fd5b506100ad6101d0565b6040516001600160a01b03909116815260200160405180910390f35b3480156100d557600080fd5b5061005b6100e436600461068e565b61020b565b3480156100f557600080fd5b506100ad610235565b610106610292565b610116610111610331565b61033b565b565b61012061035f565b6001600160a01b0316336001600160a01b031614156101575761015481604051806020016040528060008152506000610380565b50565b6101546100fe565b61016761035f565b6001600160a01b0316336001600160a01b031614156101c8576101c38383838080601f01602080910402602001604051908101604052809392919081815260200183838082843760009201919091525060019250610380915050565b505050565b6101c36100fe565b60006101da61035f565b6001600160a01b0316336001600160a01b03161415610200576101fb610331565b905090565b6102086100fe565b90565b61021361035f565b6001600160a01b0316336001600160a01b0316141561015757610154816103ab565b600061023f61035f565b6001600160a01b0316336001600160a01b03161415610200576101fb61035f565b606061028583836040518060600160405280602781526020016107e7602791396103ff565b9392505050565b3b151590565b61029a61035f565b6001600160a01b0316336001600160a01b031614156101165760405162461bcd60e51b815260206004820152604260248201527f5472616e73706172656e745570677261646561626c6550726f78793a2061646d60448201527f696e2063616e6e6f742066616c6c6261636b20746f2070726f78792074617267606482015261195d60f21b608482015260a4015b60405180910390fd5b60006101fb6104d3565b3660008037600080366000845af43d6000803e80801561035a573d6000f35b3d6000fd5b60006000805160206107a78339815191525b546001600160a01b0316919050565b610389836104e9565b6000825111806103965750805b156101c3576103a58383610260565b50505050565b7f7e644d79422f17c01e4894b5f4f588d331ebfa28653d42ae832dc59e38c9798f6103d461035f565b604080516001600160a01b03928316815291841660208301520160405180910390a161015481610529565b6060833b61045e5760405162461bcd60e51b815260206004820152602660248201527f416464726573733a2064656c65676174652063616c6c20746f206e6f6e2d636f6044820152651b9d1c9858dd60d21b6064820152608401610328565b600080856001600160a01b031685604051610479919061072b565b600060405180830381855af49150503d80600081146104b4576040519150601f19603f3d011682016040523d82523d6000602084013e6104b9565b606091505b50915091506104c98282866105c0565b9695505050505050565b60006000805160206107c7833981519152610371565b6104f2816105f9565b6040516001600160a01b038216907fbc7cd75a20ee27fd9adebab32041f755214dbc6bffa90cc0225b39da2e5c2d3b90600090a250565b6001600160a01b03811661058e5760405162461bcd60e51b815260206004820152602660248201527f455243313936373a206e65772061646d696e20697320746865207a65726f206160448201526564647265737360d01b6064820152608401610328565b806000805160206107a78339815191525b80546001600160a01b0319166001600160a01b039290921691909117905550565b606083156105cf575081610285565b8251156105df5782518084602001fd5b8160405162461bcd60e51b81526004016103289190610747565b803b61065d5760405162461bcd60e51b815260206004820152602d60248201527f455243313936373a206e657720696d706c656d656e746174696f6e206973206e60448201526c1bdd08184818dbdb9d1c9858dd609a1b6064820152608401610328565b806000805160206107c783398151915261059f565b80356001600160a01b038116811461068957600080fd5b919050565b6000602082840312156106a057600080fd5b61028582610672565b6000806000604084860312156106be57600080fd5b6106c784610672565b925060208401356001600160401b03808211156106e357600080fd5b818601915086601f8301126106f757600080fd5b81358181111561070657600080fd5b87602082850101111561071857600080fd5b6020830194508093505050509250925092565b6000825161073d81846020870161077a565b9190910192915050565b602081526000825180602084015261076681604085016020870161077a565b601f01601f19169190910160400192915050565b60005b8381101561079557818101518382015260200161077d565b838111156103a5575050600091015256feb53127684a568b3173ae13b9f8a6016e243e63b6e8ee1178d6a717850b5d6103360894a13ba1a3210667c828492db98dca3e2076cc3735a920a3ca505d382bbc416464726573733a206c6f772d6c6576656c2064656c65676174652063616c6c206661696c6564a2646970667358221220bf234746908c6f46655f3e5bb4f0abadaeb249c68beba1c928f2af74deb56e2264736f6c63430008070033b53127684a568b3173ae13b9f8a6016e243e63b6e8ee1178d6a717850b5d6103360894a13ba1a3210667c828492db98dca3e2076cc3735a920a3ca505d382bbc416464726573733a206c6f772d6c6576656c2064656c65676174652063616c6c206661696c6564608060405234801561001057600080fd5b5060405161052338038061052383398101604081905261002f91610148565b61003833610047565b61004181610097565b50610178565b600080546001600160a01b038381166001600160a01b0319831681178455604051919092169283917f8be0079c531659141344cd1fd0a4f28419497f9722a3daafe3b4186f6b6457e09190a35050565b6100aa8161014260201b61021f1760201c565b6101205760405162461bcd60e51b815260206004820152603360248201527f5570677261646561626c65426561636f6e3a20696d706c656d656e746174696f60448201527f6e206973206e6f74206120636f6e747261637400000000000000000000000000606482015260840160405180910390fd5b600180546001600160a01b0319166001600160a01b0392909216919091179055565b3b151590565b60006020828403121561015a57600080fd5b81516001600160a01b038116811461017157600080fd5b9392505050565b61039c806101876000396000f3fe608060405234801561001057600080fd5b50600436106100575760003560e01c80633659cfe61461005c5780635c60da1b14610071578063715018a61461009a5780638da5cb5b146100a2578063f2fde38b146100aa575b600080fd5b61006f61006a366004610301565b6100bd565b005b6001546001600160a01b03165b6040516001600160a01b03909116815260200160405180910390f35b61006f610135565b61007e610170565b61006f6100b8366004610301565b61017f565b336100c6610170565b6001600160a01b0316146100f55760405162461bcd60e51b81526004016100ec90610331565b60405180910390fd5b6100fe81610225565b6040516001600160a01b038216907fbc7cd75a20ee27fd9adebab32041f755214dbc6bffa90cc0225b39da2e5c2d3b90600090a250565b3361013e610170565b6001600160a01b0316146101645760405162461bcd60e51b81526004016100ec90610331565b61016e60006102b1565b565b6000546001600160a01b031690565b33610188610170565b6001600160a01b0316146101ae5760405162461bcd60e51b81526004016100ec90610331565b6001600160a01b0381166102135760405162461bcd60e51b815260206004820152602660248201527f4f776e61626c653a206e6577206f776e657220697320746865207a65726f206160448201526564647265737360d01b60648201526084016100ec565b61021c816102b1565b50565b3b151590565b803b61028f5760405162461bcd60e51b815260206004820152603360248201527f5570677261646561626c65426561636f6e3a20696d706c656d656e746174696f6044820152721b881a5cc81b9bdd08184818dbdb9d1c9858dd606a1b60648201526084016100ec565b600180546001600160a01b0319166001600160a01b0392909216919091179055565b600080546001600160a01b038381166001600160a01b0319831681178455604051919092169283917f8be0079c531659141344cd1fd0a4f28419497f9722a3daafe3b4186f6b6457e09190a35050565b60006020828403121561031357600080fd5b81356001600160a01b038116811461032a57600080fd5b9392505050565b6020808252818101527f4f776e61626c653a2063616c6c6572206973206e6f7420746865206f776e657260408201526060019056fea2646970667358221220b1e86d9e5a9827481ff081a46fc0ff448af58190927b3eac96f691d6bcdce0a964736f6c63430008070033a2646970667358221220711542b793aac2fec8cc4491695b658f461c976578d78362eea62ea6723da0aa64736f6c63430008070033608060405234801561001057600080fd5b5061001a3361001f565b61006f565b600080546001600160a01b038381166001600160a01b0319831681178455604051919092169283917f8be0079c531659141344cd1fd0a4f28419497f9722a3daafe3b4186f6b6457e09190a35050565b61073f8061007e6000396000f3fe60806040526004361061006b5760003560e01c8063204e1c7a14610070578063715018a6146100a65780637eff275e146100bd5780638da5cb5b146100dd5780639623609d146100f257806399a88ec414610105578063f2fde38b14610125578063f3b7dead14610145575b600080fd5b34801561007c57600080fd5b5061009061008b3660046104e1565b610165565b60405161009d9190610630565b60405180910390f35b3480156100b257600080fd5b506100bb6101f6565b005b3480156100c957600080fd5b506100bb6100d8366004610522565b61023a565b3480156100e957600080fd5b506100906102cb565b6100bb61010036600461055b565b6102da565b34801561011157600080fd5b506100bb610120366004610522565b610370565b34801561013157600080fd5b506100bb6101403660046104e1565b6103cb565b34801561015157600080fd5b506100906101603660046104e1565b61046b565b6000806000836001600160a01b031660405161018b90635c60da1b60e01b815260040190565b600060405180830381855afa9150503d80600081146101c6576040519150601f19603f3d011682016040523d82523d6000602084013e6101cb565b606091505b5091509150816101da57600080fd5b808060200190518101906101ee9190610505565b949350505050565b336101ff6102cb565b6001600160a01b03161461022e5760405162461bcd60e51b8152600401610225906106a9565b60405180910390fd5b6102386000610491565b565b336102436102cb565b6001600160a01b0316146102695760405162461bcd60e51b8152600401610225906106a9565b6040516308f2839760e41b81526001600160a01b03831690638f28397090610295908490600401610630565b600060405180830381600087803b1580156102af57600080fd5b505af11580156102c3573d6000803e3d6000fd5b505050505050565b6000546001600160a01b031690565b336102e36102cb565b6001600160a01b0316146103095760405162461bcd60e51b8152600401610225906106a9565b60405163278f794360e11b81526001600160a01b03841690634f1ef2869034906103399086908690600401610644565b6000604051808303818588803b15801561035257600080fd5b505af1158015610366573d6000803e3d6000fd5b5050505050505050565b336103796102cb565b6001600160a01b03161461039f5760405162461bcd60e51b8152600401610225906106a9565b604051631b2ce7f360e11b81526001600160a01b03831690633659cfe690610295908490600401610630565b336103d46102cb565b6001600160a01b0316146103fa5760405162461bcd60e51b8152600401610225906106a9565b6001600160a01b03811661045f5760405162461bcd60e51b815260206004820152602660248201527f4f776e61626c653a206e6577206f776e657220697320746865207a65726f206160448201526564647265737360d01b6064820152608401610225565b61046881610491565b50565b6000806000836001600160a01b031660405161018b906303e1469160e61b815260040190565b600080546001600160a01b038381166001600160a01b0319831681178455604051919092169283917f8be0079c531659141344cd1fd0a4f28419497f9722a3daafe3b4186f6b6457e09190a35050565b6000602082840312156104f357600080fd5b81356104fe816106f4565b9392505050565b60006020828403121561051757600080fd5b81516104fe816106f4565b6000806040838503121561053557600080fd5b8235610540816106f4565b91506020830135610550816106f4565b809150509250929050565b60008060006060848603121561057057600080fd5b833561057b816106f4565b9250602084013561058b816106f4565b915060408401356001600160401b03808211156105a757600080fd5b818601915086601f8301126105bb57600080fd5b8135818111156105cd576105cd6106de565b604051601f8201601f19908116603f011681019083821181831017156105f5576105f56106de565b8160405282815289602084870101111561060e57600080fd5b8260208601602083013760006020848301015280955050505050509250925092565b6001600160a01b0391909116815260200190565b60018060a01b038316815260006020604081840152835180604085015260005b8181101561068057858101830151858201606001528201610664565b81811115610692576000606083870101525b50601f01601f191692909201606001949350505050565b6020808252818101527f4f776e61626c653a2063616c6c6572206973206e6f7420746865206f776e6572604082015260600190565b634e487b7160e01b600052604160045260246000fd5b6001600160a01b038116811461046857600080fdfea26469706673582212207240b38990a52bc008f8ef6148c6f36363b8fbb55bee70cee697cb8e4d4c00ce64736f6c63430008070033",
  "immutableReferences": {},
  "source": "// SPDX-License-Identifier: GPL-3.0\r\n\r\npragma solidity 0.8.7;\r\n\r\n/**\r\n * @title Storage\r\n * @dev Store & retrieve value in a variable\r\n */\r\n\r\nimport \"../Interfaces/IProxyManager.sol\";\r\nimport \"../Interfaces/IFactory.sol\";\r\nimport \"../Base/TokenGovernanceBaseContract.sol\";\r\nimport \"../Libraries/AddressLibrary.sol\";\r\nimport \"../Libraries/Library.sol\";\r\nimport \"@openzeppelin/contracts-upgradeable/proxy/utils/Initializable.sol\";\r\nimport \"@openzeppelin/contracts/proxy/beacon/UpgradeableBeacon.sol\";\r\nimport \"@openzeppelin/contracts/proxy/transparent/TransparentUpgradeableProxy.sol\";\r\nimport \"@openzeppelin/contracts/proxy/transparent/ProxyAdmin.sol\";\r\n\r\n\r\ncontract CertificatesPoolManager is IProxyManager, TokenGovernanceBaseContract{\r\n    using AddressLibrary for *;\r\n    using Library for *;\r\n\r\n    // EVENTS /////////////////////////////////////////\r\n    event _NewContracts(address Public, address Treasury, address Certis, address PrivateFactory, \r\n    address Private, address ProviderFactory, address Provider, address PriceConverter);\r\n\r\n    // DATA /////////////////////////////////////////\r\n    // Admin Proxy to manage all the TransparentUpgradeableProxies\r\n    ProxyAdmin private _Admin;\r\n\r\n    // proposition to change\r\n    Library.ProposedContractsStruct private _ProposedContracts;\r\n    \r\n    // Private Certificate Pools Factory\r\n    TransparentUpgradeableProxy private _PrivatePoolFactory;\r\n\r\n    // Private Certificates Pool\r\n    UpgradeableBeacon private _PrivateCertificatePoolBeacon;\r\n\r\n    // Provider Factory\r\n    TransparentUpgradeableProxy private _ProviderFactory;\r\n\r\n    // Provider\r\n    UpgradeableBeacon private _ProviderBeacon;\r\n\r\n    // Public Certificates Pool\r\n    TransparentUpgradeableProxy private _PublicCertificatesPool;\r\n\r\n    // Treasury\r\n    //GenericProxy private _Treasury;\r\n    TransparentUpgradeableProxy private _Treasury;\r\n\r\n    // Certis Token\r\n    TransparentUpgradeableProxy private _CertisToken;\r\n\r\n    // Price Converter\r\n    TransparentUpgradeableProxy private _PriceConverter;\r\n\r\n    // init\r\n    bool private _init;\r\n\r\n    // MODIFIERS /////////////////////////////////////////\r\n    modifier isNotInitialized(){\r\n        require(false == _init, \"EC26-\");\r\n        _;\r\n    }\r\n\r\n    // CONSTRUCTOR and INITIALIZATION /////////////////////////////////////////\r\n    constructor(uint256 PropositionLifeTime, uint8 PropositionThresholdPercentage, uint8 minWeightToProposePercentage) \r\n    {\r\n        super.TokenGovernanceContract_init(PropositionLifeTime, PropositionThresholdPercentage, minWeightToProposePercentage, msg.sender, address(this));\r\n        _Admin = new ProxyAdmin();\r\n        _init = false;\r\n    }\r\n\r\n    function InitializeContracts(Library.ProposedContractsStruct calldata initialContracts) \r\n        isFromChairPerson()\r\n        isNotInitialized()\r\n    external override\r\n    {\r\n        initProxies(initialContracts);\r\n        _init = true;\r\n    }\r\n\r\n    // FUNCTIONALITY /////////////////////////////////////////\r\n    // governance : contracts assignment and management\r\n    function upgradeContracts(Library.ProposedContractsStruct calldata UpgradeProposition) external override\r\n    {\r\n        _ProposedContracts = UpgradeProposition;\r\n        addProposition();\r\n    }\r\n\r\n    function propositionApproved() internal override\r\n    {\r\n        upgradeContractsImplementations();\r\n        removeProposition();\r\n    }\r\n\r\n    function propositionRejected() internal override\r\n    {\r\n        removeProposition();\r\n    }\r\n\r\n    function propositionExpired() internal override\r\n    {\r\n        removeProposition();\r\n    }\r\n\r\n    function removeProposition() internal\r\n    {\r\n       delete(_ProposedContracts);\r\n    }\r\n\r\n    function retrieveProposition() external override view returns(bytes32[] memory)\r\n    {\r\n        bytes32[] memory proposition = new bytes32[](8);\r\n        proposition[0] = AddressLibrary.AddressToBytes32(_ProposedContracts.NewPublicPoolAddress);\r\n        proposition[1] = AddressLibrary.AddressToBytes32(_ProposedContracts.NewTreasuryAddress);\r\n        proposition[2] = AddressLibrary.AddressToBytes32(_ProposedContracts.NewCertisTokenAddress);\r\n        proposition[3] = AddressLibrary.AddressToBytes32(_ProposedContracts.NewPrivatePoolFactoryAddress);\r\n        proposition[4] = AddressLibrary.AddressToBytes32(_ProposedContracts.NewPrivatePoolAddress);\r\n        proposition[5] = AddressLibrary.AddressToBytes32(_ProposedContracts.NewProviderFactoryAddress);\r\n        proposition[6] = AddressLibrary.AddressToBytes32(_ProposedContracts.NewProviderAddress);\r\n        proposition[7] = AddressLibrary.AddressToBytes32(_ProposedContracts.NewPriceConverterAddress);\r\n        return proposition;\r\n    }\r\n\r\n    function initProxies(Library.ProposedContractsStruct calldata initialContracts) private\r\n    {\r\n        _PublicCertificatesPool = new TransparentUpgradeableProxy(initialContracts.NewPublicPoolAddress, address(_Admin), initialContracts.NewPublicPoolData);\r\n        _Treasury = new TransparentUpgradeableProxy(initialContracts.NewTreasuryAddress, address(_Admin), initialContracts.NewTreasuryData);\r\n        _CertisToken = new TransparentUpgradeableProxy(initialContracts.NewCertisTokenAddress, address(_Admin), initialContracts.NewCertisTokenData);\r\n        _PrivatePoolFactory = new TransparentUpgradeableProxy(initialContracts.NewPrivatePoolFactoryAddress, address(_Admin), initialContracts.NewPrivatePoolFactoryData);\r\n        _PrivateCertificatePoolBeacon = new UpgradeableBeacon(initialContracts.NewPrivatePoolAddress);\r\n        _ProviderFactory = new TransparentUpgradeableProxy(initialContracts.NewProviderFactoryAddress, address(_Admin), initialContracts.NewProviderFactoryData);\r\n        _ProviderBeacon = new UpgradeableBeacon(initialContracts.NewProviderAddress);\r\n        _PriceConverter = new TransparentUpgradeableProxy(initialContracts.NewPriceConverterAddress, address(_Admin), initialContracts.NewPriceConverterData);\r\n\r\n        IFactory(address(_PrivatePoolFactory)).updateContractName(initialContracts.NewPrivatePoolContractName);\r\n        IFactory(address(_PrivatePoolFactory)).updateContractVersion(initialContracts.NewPrivatePoolContractVersion);\r\n    }\r\n\r\n    function upgradeContractsImplementations() private\r\n    {\r\n        upgradeContractImplementation(_PublicCertificatesPool, _ProposedContracts.NewPublicPoolAddress, _ProposedContracts.NewPublicPoolData);\r\n        upgradeContractImplementation(_Treasury, _ProposedContracts.NewTreasuryAddress, _ProposedContracts.NewTreasuryData);\r\n        upgradeContractImplementation(_CertisToken, _ProposedContracts.NewCertisTokenAddress, _ProposedContracts.NewCertisTokenData);\r\n        upgradeContractImplementation(_PrivatePoolFactory, _ProposedContracts.NewPrivatePoolFactoryAddress, _ProposedContracts.NewPrivatePoolFactoryData);\r\n        upgradeContractImplementation(_ProviderFactory, _ProposedContracts.NewProviderFactoryAddress, _ProposedContracts.NewProviderFactoryData);\r\n        upgradeContractImplementation(_PriceConverter, _ProposedContracts.NewPriceConverterAddress, _ProposedContracts.NewPriceConverterData);\r\n\r\n        if(address(0) != _ProposedContracts.NewPrivatePoolAddress)_PrivateCertificatePoolBeacon.upgradeTo(_ProposedContracts.NewPrivatePoolAddress);\r\n        if(address(0) != _ProposedContracts.NewProviderAddress)_ProviderBeacon.upgradeTo(_ProposedContracts.NewProviderAddress);\r\n\r\n        if(0 < bytes(_ProposedContracts.NewPrivatePoolContractName).length)\r\n            IFactory(address(_PrivatePoolFactory)).updateContractName(_ProposedContracts.NewPrivatePoolContractName);\r\n\r\n        if(0 < bytes(_ProposedContracts.NewPrivatePoolContractVersion).length)\r\n            IFactory(address(_PrivatePoolFactory)).updateContractVersion(_ProposedContracts.NewPrivatePoolContractVersion);\r\n        \r\n        emit _NewContracts(internalRetrieveImpl(_PublicCertificatesPool), internalRetrieveImpl(_Treasury), \r\n        internalRetrieveImpl(_CertisToken), internalRetrieveImpl(_PrivatePoolFactory), \r\n        internalRetrievePrivatePool(), internalRetrieveImpl(_ProviderFactory), internalRetrieveProvider(),\r\n        internalRetrieveImpl(_PriceConverter));\r\n    }\r\n\r\n    function upgradeContractImplementation(TransparentUpgradeableProxy proxy, address NewImpl, bytes memory Data) private\r\n    {\r\n        if(address(0) != NewImpl){\r\n            if(0 < Data.length)_Admin.upgradeAndCall(proxy, NewImpl, Data);\r\n            else _Admin.upgrade(proxy, NewImpl);\r\n        }\r\n    }\r\n\r\n    // configuration Proxies\r\n    function retrievePublicCertificatePoolProxy() external override view returns (address) {\r\n        return (address(_PublicCertificatesPool));\r\n    }\r\n\r\n    function retrieveTreasuryProxy() external override view returns (address) {\r\n        return (address(_Treasury));\r\n    }\r\n\r\n    function retrieveCertisTokenProxy() external override view returns (address) {\r\n        return (address(_CertisToken));\r\n    }\r\n\r\n    function retrievePrivatePoolFactoryProxy() external override view returns (address) {\r\n        return (address(_PrivatePoolFactory));\r\n    }\r\n\r\n    function retrievePrivatePoolBeacon() external override view returns (address) {\r\n        return (address(_PrivateCertificatePoolBeacon));\r\n    }\r\n\r\n    function retrieveProviderFactoryProxy() external override view returns (address) {\r\n        return (address(_ProviderFactory));\r\n    }\r\n\r\n    function retrieveProviderBeacon() external override view returns (address) {\r\n        return (address(_ProviderBeacon));\r\n    }\r\n\r\n     function retrievePriceConverterProxy() external override view returns (address) {\r\n        return (address(_PriceConverter));\r\n    }\r\n\r\n    // configuration implementations\r\n    function retrievePublicCertificatePool() external override view returns (address) {\r\n        return internalRetrieveImpl(_PublicCertificatesPool);\r\n    }\r\n\r\n    function retrieveTreasury() external override view returns (address) {\r\n        return internalRetrieveImpl(_Treasury);\r\n    }\r\n\r\n    function retrieveCertisToken() external override view returns (address) {\r\n        return internalRetrieveImpl(_CertisToken);\r\n    }\r\n\r\n    function retrievePrivatePoolFactory() external override view returns (address) {\r\n        return internalRetrieveImpl(_PrivatePoolFactory);\r\n    }\r\n\r\n    function retrievePrivatePool() external override view returns (address) {\r\n        return internalRetrievePrivatePool();\r\n    }\r\n\r\n    function retrieveProviderFactory() external override view returns (address) {\r\n        return internalRetrieveImpl(_ProviderFactory);\r\n    }\r\n\r\n    function retrieveProvider() external override view returns (address) {\r\n        return internalRetrieveProvider();\r\n    }\r\n\r\n    function retrievePriceConverter() external override view returns (address) {\r\n        return internalRetrieveImpl(_PriceConverter);\r\n    }\r\n\r\n    function isInitialized() external override view returns(bool){\r\n        return _init;\r\n    }\r\n\r\n    // internal\r\n    function internalRetrieveImpl(TransparentUpgradeableProxy proxy) internal view returns (address){\r\n        return _Admin.getProxyImplementation(proxy);\r\n    }\r\n\r\n    function internalRetrievePrivatePool() internal view returns (address) {\r\n        return _PrivateCertificatePoolBeacon.implementation();\r\n    }\r\n\r\n    function internalRetrieveProvider() internal view returns (address) {\r\n        return _ProviderBeacon.implementation();\r\n    }\r\n  \r\n}",
  "sourcePath": "C:/Users/d-aam/GitHub/Certificates/contracts/DeployedContracts/CertificatesPoolManager.sol",
  "compiler": {
    "name": "solc",
    "version": "0.8.7+commit.e28d00a7.Emscripten.clang"
  },
  "schemaVersion": "3.3.4",
  "updatedAt": "2021-10-05T08:27:59.181Z",
  "devdoc": {
    "kind": "dev",
    "methods": {},
    "version": 1
  },
  "userdoc": {
    "kind": "user",
    "methods": {},
    "version": 1
  }
}