{
  "contractName": "CertisTokenProxy",
  "abi": [
    {
      "inputs": [
        {
          "internalType": "address",
          "name": "CertisCodeContractAddress",
          "type": "address"
        },
        {
          "internalType": "address",
          "name": "managerContractAddress",
          "type": "address"
        },
        {
          "internalType": "bytes",
          "name": "data",
          "type": "bytes"
        }
      ],
      "stateMutability": "nonpayable",
      "type": "constructor"
    },
    {
      "anonymous": false,
      "inputs": [
        {
          "indexed": false,
          "internalType": "address",
          "name": "previousAdmin",
          "type": "address"
        },
        {
          "indexed": false,
          "internalType": "address",
          "name": "newAdmin",
          "type": "address"
        }
      ],
      "name": "AdminChanged",
      "type": "event"
    },
    {
      "anonymous": false,
      "inputs": [
        {
          "indexed": true,
          "internalType": "address",
          "name": "beacon",
          "type": "address"
        }
      ],
      "name": "BeaconUpgraded",
      "type": "event"
    },
    {
      "anonymous": false,
      "inputs": [
        {
          "indexed": true,
          "internalType": "address",
          "name": "implementation",
          "type": "address"
        }
      ],
      "name": "Upgraded",
      "type": "event"
    },
    {
      "stateMutability": "payable",
      "type": "fallback"
    },
    {
      "inputs": [],
      "name": "admin",
      "outputs": [
        {
          "internalType": "address",
          "name": "admin_",
          "type": "address"
        }
      ],
      "stateMutability": "nonpayable",
      "type": "function"
    },
    {
      "inputs": [
        {
          "internalType": "address",
          "name": "newAdmin",
          "type": "address"
        }
      ],
      "name": "changeAdmin",
      "outputs": [],
      "stateMutability": "nonpayable",
      "type": "function"
    },
    {
      "inputs": [],
      "name": "implementation",
      "outputs": [
        {
          "internalType": "address",
          "name": "implementation_",
          "type": "address"
        }
      ],
      "stateMutability": "nonpayable",
      "type": "function"
    },
    {
      "inputs": [],
      "name": "retrieveImplementation",
      "outputs": [
        {
          "internalType": "address",
          "name": "",
          "type": "address"
        }
      ],
      "stateMutability": "view",
      "type": "function"
    },
    {
      "inputs": [
        {
          "internalType": "address",
          "name": "newImplementation",
          "type": "address"
        }
      ],
      "name": "upgradeTo",
      "outputs": [],
      "stateMutability": "nonpayable",
      "type": "function"
    },
    {
      "inputs": [
        {
          "internalType": "address",
          "name": "newImplementation",
          "type": "address"
        },
        {
          "internalType": "bytes",
          "name": "data",
          "type": "bytes"
        }
      ],
      "name": "upgradeToAndCall",
      "outputs": [],
      "stateMutability": "payable",
      "type": "function"
    },
    {
      "stateMutability": "payable",
      "type": "receive"
    }
  ],
  "bytecode": "0x60806040523480156200001157600080fd5b5060405162000ed238038062000ed28339810160408190526200003491620004dc565b82828282828282816200006960017f360894a13ba1a3210667c828492db98dca3e2076cc3735a920a3ca505d382bbd6200060f565b60008051602062000e8b8339815191521462000089576200008962000664565b620000978282600062000101565b50620000c7905060017fb53127684a568b3173ae13b9f8a6016e243e63b6e8ee1178d6a717850b5d61046200060f565b60008051602062000e6b83398151915214620000e757620000e762000664565b620000f2826200013e565b50505050505050505062000690565b6200010c8362000199565b6000825111806200011a5750805b156200013957620001378383620001db60201b620002821760201c565b505b505050565b7f7e644d79422f17c01e4894b5f4f588d331ebfa28653d42ae832dc59e38c9798f620001696200020a565b604080516001600160a01b03928316815291841660208301520160405180910390a1620001968162000243565b50565b620001a481620002f8565b6040516001600160a01b038216907fbc7cd75a20ee27fd9adebab32041f755214dbc6bffa90cc0225b39da2e5c2d3b90600090a250565b606062000203838360405180606001604052806027815260200162000eab602791396200039b565b9392505050565b60006200023460008051602062000e6b83398151915260001b6200047860201b620002201760201c565b546001600160a01b0316919050565b6001600160a01b038116620002ae5760405162461bcd60e51b815260206004820152602660248201527f455243313936373a206e65772061646d696e20697320746865207a65726f206160448201526564647265737360d01b60648201526084015b60405180910390fd5b80620002d760008051602062000e6b83398151915260001b6200047860201b620002201760201c565b80546001600160a01b0319166001600160a01b039290921691909117905550565b6200030e816200047b60201b620002ae1760201c565b620003725760405162461bcd60e51b815260206004820152602d60248201527f455243313936373a206e657720696d706c656d656e746174696f6e206973206e60448201526c1bdd08184818dbdb9d1c9858dd609a1b6064820152608401620002a5565b80620002d760008051602062000e8b83398151915260001b6200047860201b620002201760201c565b6060833b620003fc5760405162461bcd60e51b815260206004820152602660248201527f416464726573733a2064656c65676174652063616c6c20746f206e6f6e2d636f6044820152651b9d1c9858dd60d21b6064820152608401620002a5565b600080856001600160a01b031685604051620004199190620005bc565b600060405180830381855af49150503d806000811462000456576040519150601f19603f3d011682016040523d82523d6000602084013e6200045b565b606091505b5090925090506200046e82828662000481565b9695505050505050565b90565b3b151590565b606083156200049257508162000203565b825115620004a35782518084602001fd5b8160405162461bcd60e51b8152600401620002a59190620005da565b80516001600160a01b0381168114620004d757600080fd5b919050565b600080600060608486031215620004f257600080fd5b620004fd84620004bf565b92506200050d60208501620004bf565b60408501519092506001600160401b03808211156200052b57600080fd5b818601915086601f8301126200054057600080fd5b8151818111156200055557620005556200067a565b604051601f8201601f19908116603f011681019083821181831017156200058057620005806200067a565b816040528281528960208487010111156200059a57600080fd5b620005ad83602083016020880162000635565b80955050505050509250925092565b60008251620005d081846020870162000635565b9190910192915050565b6020815260008251806020840152620005fb81604085016020870162000635565b601f01601f19169190910160400192915050565b6000828210156200063057634e487b7160e01b600052601160045260246000fd5b500390565b60005b838110156200065257818101518382015260200162000638565b83811115620001375750506000910152565b634e487b7160e01b600052600160045260246000fd5b634e487b7160e01b600052604160045260246000fd5b6107cb80620006a06000396000f3fe6080604052600436106100595760003560e01c80633659cfe6146100705780634f1ef286146100905780635c60da1b146100a35780638f283970146100d4578063dc4ff913146100f4578063f851a4401461010957610068565b366100685761006661011e565b005b61006661011e565b34801561007c57600080fd5b5061006661008b366004610616565b610130565b61006661009e366004610631565b610177565b3480156100af57600080fd5b506100b86101e8565b6040516001600160a01b03909116815260200160405180910390f35b3480156100e057600080fd5b506100666100ef366004610616565b610223565b34801561010057600080fd5b506100b861024d565b34801561011557600080fd5b506100b8610257565b61012e6101296102b4565b6102be565b565b6101386102e2565b6001600160a01b0316336001600160a01b0316141561016f5761016c81604051806020016040528060008152506000610303565b50565b61016c61011e565b61017f6102e2565b6001600160a01b0316336001600160a01b031614156101e0576101db8383838080601f01602080910402602001604051908101604052809392919081815260200183838082843760009201919091525060019250610303915050565b505050565b6101db61011e565b60006101f26102e2565b6001600160a01b0316336001600160a01b03161415610218576102136102b4565b905090565b61022061011e565b90565b61022b6102e2565b6001600160a01b0316336001600160a01b0316141561016f5761016c8161032e565b60006102136102b4565b60006102616102e2565b6001600160a01b0316336001600160a01b03161415610218576102136102e2565b60606102a7838360405180606001604052806027815260200161076f60279139610382565b9392505050565b3b151590565b600061021361045b565b3660008037600080366000845af43d6000803e8080156102dd573d6000f35b3d6000fd5b600060008051602061072f8339815191525b546001600160a01b0316919050565b61030c83610471565b6000825111806103195750805b156101db576103288383610282565b50505050565b7f7e644d79422f17c01e4894b5f4f588d331ebfa28653d42ae832dc59e38c9798f6103576102e2565b604080516001600160a01b03928316815291841660208301520160405180910390a161016c816104b1565b6060833b6103e65760405162461bcd60e51b815260206004820152602660248201527f416464726573733a2064656c65676174652063616c6c20746f206e6f6e2d636f6044820152651b9d1c9858dd60d21b60648201526084015b60405180910390fd5b600080856001600160a01b03168560405161040191906106b3565b600060405180830381855af49150503d806000811461043c576040519150601f19603f3d011682016040523d82523d6000602084013e610441565b606091505b5091509150610451828286610548565b9695505050505050565b600060008051602061074f8339815191526102f4565b61047a81610581565b6040516001600160a01b038216907fbc7cd75a20ee27fd9adebab32041f755214dbc6bffa90cc0225b39da2e5c2d3b90600090a250565b6001600160a01b0381166105165760405162461bcd60e51b815260206004820152602660248201527f455243313936373a206e65772061646d696e20697320746865207a65726f206160448201526564647265737360d01b60648201526084016103dd565b8060008051602061072f8339815191525b80546001600160a01b0319166001600160a01b039290921691909117905550565b606083156105575750816102a7565b8251156105675782518084602001fd5b8160405162461bcd60e51b81526004016103dd91906106cf565b803b6105e55760405162461bcd60e51b815260206004820152602d60248201527f455243313936373a206e657720696d706c656d656e746174696f6e206973206e60448201526c1bdd08184818dbdb9d1c9858dd609a1b60648201526084016103dd565b8060008051602061074f833981519152610527565b80356001600160a01b038116811461061157600080fd5b919050565b60006020828403121561062857600080fd5b6102a7826105fa565b60008060006040848603121561064657600080fd5b61064f846105fa565b925060208401356001600160401b038082111561066b57600080fd5b818601915086601f83011261067f57600080fd5b81358181111561068e57600080fd5b8760208285010111156106a057600080fd5b6020830194508093505050509250925092565b600082516106c5818460208701610702565b9190910192915050565b60208152600082518060208401526106ee816040850160208701610702565b601f01601f19169190910160400192915050565b60005b8381101561071d578181015183820152602001610705565b83811115610328575050600091015256feb53127684a568b3173ae13b9f8a6016e243e63b6e8ee1178d6a717850b5d6103360894a13ba1a3210667c828492db98dca3e2076cc3735a920a3ca505d382bbc416464726573733a206c6f772d6c6576656c2064656c65676174652063616c6c206661696c6564a2646970667358221220b3b67e0af8d2a636c80df48c215464942b3bffdb87eae0bc1040b156d724843664736f6c63430008070033b53127684a568b3173ae13b9f8a6016e243e63b6e8ee1178d6a717850b5d6103360894a13ba1a3210667c828492db98dca3e2076cc3735a920a3ca505d382bbc416464726573733a206c6f772d6c6576656c2064656c65676174652063616c6c206661696c6564",
  "immutableReferences": {},
  "source": "// SPDX-License-Identifier: GPL-3.0\r\n\r\npragma solidity >=0.7.0 <0.9.0;\r\n\r\n/**\r\n * @title Storage\r\n * @dev Store & retrieve value in a variable\r\n */\r\n\r\nimport \"./GenericProxy.sol\";\r\n\r\n\r\ncontract CertisTokenProxy is GenericProxy{\r\n\r\n    // CONSTRUCTOR /////////////////////////////////////////\r\n    constructor(address CertisCodeContractAddress, address managerContractAddress, bytes memory data)\r\n        GenericProxy(CertisCodeContractAddress, managerContractAddress, data) \r\n    {}\r\n\r\n    // CUSTOMIZATION /////////////////////////////////////////\r\n    function _beforeFallback() internal virtual override {}\r\n\r\n}",
  "sourcePath": "C:\\Users\\d-aam\\GitHub\\Certificates\\contracts\\DeployedContracts\\Proxies\\CertisTokenProxy.sol",
  "compiler": {
    "name": "solc",
    "version": "0.8.7+commit.e28d00a7.Emscripten.clang"
  },
  "schemaVersion": "3.3.4",
  "updatedAt": "2021-08-13T08:48:22.423Z",
  "devdoc": {
    "kind": "dev",
    "methods": {
      "admin()": {
        "details": "Returns the current admin. NOTE: Only the admin can call this function. See {ProxyAdmin-getProxyAdmin}. TIP: To get this value clients can read directly from the storage slot shown below (specified by EIP1967) using the https://eth.wiki/json-rpc/API#eth_getstorageat[`eth_getStorageAt`] RPC call. `0xb53127684a568b3173ae13b9f8a6016e243e63b6e8ee1178d6a717850b5d6103`"
      },
      "changeAdmin(address)": {
        "details": "Changes the admin of the proxy. Emits an {AdminChanged} event. NOTE: Only the admin can call this function. See {ProxyAdmin-changeProxyAdmin}."
      },
      "implementation()": {
        "details": "Returns the current implementation. NOTE: Only the admin can call this function. See {ProxyAdmin-getProxyImplementation}. TIP: To get this value clients can read directly from the storage slot shown below (specified by EIP1967) using the https://eth.wiki/json-rpc/API#eth_getstorageat[`eth_getStorageAt`] RPC call. `0x360894a13ba1a3210667c828492db98dca3e2076cc3735a920a3ca505d382bbc`"
      },
      "upgradeTo(address)": {
        "details": "Upgrade the implementation of the proxy. NOTE: Only the admin can call this function. See {ProxyAdmin-upgrade}."
      },
      "upgradeToAndCall(address,bytes)": {
        "details": "Upgrade the implementation of the proxy, and then call a function from the new implementation as specified by `data`, which should be an encoded function call. This is useful to initialize new storage variables in the proxied contract. NOTE: Only the admin can call this function. See {ProxyAdmin-upgradeAndCall}."
      }
    },
    "version": 1
  },
  "userdoc": {
    "kind": "user",
    "methods": {},
    "version": 1
  }
}