{
  "contractName": "CertificatesPoolManager",
  "abi": [
    {
      "inputs": [
        {
          "internalType": "address[]",
          "name": "owners",
          "type": "address[]"
        },
        {
          "internalType": "uint256",
          "name": "minOwners",
          "type": "uint256"
        },
        {
          "internalType": "uint256",
          "name": "PublicPriceWei",
          "type": "uint256"
        },
        {
          "internalType": "uint256",
          "name": "PrivatePriceWei",
          "type": "uint256"
        }
      ],
      "stateMutability": "payable",
      "type": "constructor"
    },
    {
      "anonymous": false,
      "inputs": [
        {
          "indexed": false,
          "internalType": "uint256",
          "name": "",
          "type": "uint256"
        },
        {
          "indexed": false,
          "internalType": "address",
          "name": "",
          "type": "address"
        },
        {
          "indexed": false,
          "internalType": "contract MultiSigCertificatesPool",
          "name": "",
          "type": "address"
        }
      ],
      "name": "_NewCertificatesPool",
      "type": "event"
    },
    {
      "anonymous": false,
      "inputs": [
        {
          "indexed": false,
          "internalType": "address",
          "name": "",
          "type": "address"
        }
      ],
      "name": "_SendProposalId",
      "type": "event"
    },
    {
      "inputs": [
        {
          "internalType": "address[]",
          "name": "owners",
          "type": "address[]"
        },
        {
          "internalType": "uint256",
          "name": "minOwners",
          "type": "uint256"
        }
      ],
      "name": "createPrivateCertificatesPool",
      "outputs": [],
      "stateMutability": "payable",
      "type": "function"
    },
    {
      "inputs": [
        {
          "internalType": "uint256",
          "name": "certificatePoolId",
          "type": "uint256"
        }
      ],
      "name": "retrievePrivateCertificatesPool",
      "outputs": [
        {
          "internalType": "address",
          "name": "",
          "type": "address"
        },
        {
          "internalType": "contract MultiSigCertificatesPool",
          "name": "",
          "type": "address"
        }
      ],
      "stateMutability": "view",
      "type": "function"
    },
    {
      "inputs": [
        {
          "internalType": "uint256",
          "name": "certificatePoolId",
          "type": "uint256"
        }
      ],
      "name": "retrieveTotalPrivateCertificatesPool",
      "outputs": [
        {
          "internalType": "uint256",
          "name": "",
          "type": "uint256"
        }
      ],
      "stateMutability": "view",
      "type": "function"
    },
    {
      "inputs": [
        {
          "internalType": "address",
          "name": "provider",
          "type": "address"
        },
        {
          "internalType": "string",
          "name": "providerInfo",
          "type": "string"
        }
      ],
      "name": "sendProposal",
      "outputs": [],
      "stateMutability": "payable",
      "type": "function"
    },
    {
      "inputs": [],
      "name": "retrievePublicCertificatesPool",
      "outputs": [
        {
          "internalType": "contract MultiSigCertificatesPool",
          "name": "",
          "type": "address"
        }
      ],
      "stateMutability": "view",
      "type": "function"
    },
    {
      "inputs": [],
      "name": "retrieveChairPerson",
      "outputs": [
        {
          "internalType": "address",
          "name": "",
          "type": "address"
        }
      ],
      "stateMutability": "view",
      "type": "function"
    }
  ],
  "bytecode": "0x60806040526040516200db5d3803806200db5d8339818101604052608081101561002857600080fd5b810190808051604051939291908464010000000082111561004857600080fd5b8382019150602082018581111561005e57600080fd5b825186602082028301116401000000008211171561007b57600080fd5b8083526020830192505050908051906020019060200280838360005b838110156100b2578082015181840152602081019050610097565b5050505090500160405260200180519060200190929190805190602001909291908051906020019092919050505033600460006101000a81548173ffffffffffffffffffffffffffffffffffffffff021916908373ffffffffffffffffffffffffffffffffffffffff1602179055508160008190555080600181905550838360405161013d906101f5565b8080602001838152602001828103825284818151815260200191508051906020019060200280838360005b83811015610183578082015181840152602081019050610168565b505050509050019350505050604051809103906000f0801580156101ab573d6000803e3d6000fd5b50600360006101000a81548173ffffffffffffffffffffffffffffffffffffffff021916908373ffffffffffffffffffffffffffffffffffffffff16021790555050505050610203565b616c868062006ed783390190565b616cc480620002136000396000f3fe6080604052600436106200005c5760003560e01c80634e0a97c41462000061578063858e7ce614620000b4578063b85dfd951462000195578063d185a52614620001d9578063db85bc4d146200025f578063f5807c0514620002a3575b600080fd5b3480156200006e57600080fd5b506200009e600480360360208110156200008757600080fd5b81019080803590602001909291905050506200036b565b6040518082815260200191505060405180910390f35b6200019360048036036040811015620000cc57600080fd5b81019080803573ffffffffffffffffffffffffffffffffffffffff169060200190929190803590602001906401000000008111156200010a57600080fd5b8201836020820111156200011d57600080fd5b803590602001918460018302840111640100000000831117156200014057600080fd5b91908080601f016020809104026020016040519081016040528093929190818152602001838380828437600081840152601f19601f8201169050808301925050505050505091929192905050506200037a565b005b348015620001a257600080fd5b50620001ad6200055b565b604051808273ffffffffffffffffffffffffffffffffffffffff16815260200191505060405180910390f35b348015620001e657600080fd5b506200021660048036036020811015620001ff57600080fd5b810190808035906020019092919050505062000585565b604051808373ffffffffffffffffffffffffffffffffffffffff1681526020018273ffffffffffffffffffffffffffffffffffffffff1681526020019250505060405180910390f35b3480156200026c57600080fd5b506200027762000729565b604051808273ffffffffffffffffffffffffffffffffffffffff16815260200191505060405180910390f35b6200036960048036036040811015620002bb57600080fd5b8101908080359060200190640100000000811115620002d957600080fd5b820183602082011115620002ec57600080fd5b803590602001918460208302840111640100000000831117156200030f57600080fd5b919080806020026020016040519081016040528093929190818152602001838360200280828437600081840152601f19601f8201169050808301925050505050505091929192908035906020019092919050505062000753565b005b60006002805490509050919050565b60005480341015620003f4576040517f08c379a00000000000000000000000000000000000000000000000000000000081526004018080602001828103825260108152602001807f4e6f7420656e6f7567682066756e64730000000000000000000000000000000081525060200191505060405180910390fd5b600360009054906101000a900473ffffffffffffffffffffffffffffffffffffffff1673ffffffffffffffffffffffffffffffffffffffff1663fc00050084846040518363ffffffff1660e01b8152600401808373ffffffffffffffffffffffffffffffffffffffff16815260200180602001828103825283818151815260200191508051906020019080838360005b83811015620004a157808201518184015260208101905062000484565b50505050905090810190601f168015620004cf5780820380516001836020036101000a031916815260200191505b509350505050600060405180830381600087803b158015620004f057600080fd5b505af115801562000505573d6000803e3d6000fd5b505050507fbaf065d025fe427c7c36f893bdec1c49e6c164c4a6531f4216f64e6e876a9a4f83604051808273ffffffffffffffffffffffffffffffffffffffff16815260200191505060405180910390a1505050565b6000600360009054906101000a900473ffffffffffffffffffffffffffffffffffffffff16905090565b6000808260028054905073__Library_______________________________632477a0ea83836040518363ffffffff1660e01b8152600401808381526020018281526020019250505060206040518083038186803b158015620005e757600080fd5b505af4158015620005fc573d6000803e3d6000fd5b505050506040513d60208110156200061357600080fd5b8101908080519060200190929190505050151560011515146200069e576040517f08c379a00000000000000000000000000000000000000000000000000000000081526004018080602001828103825260148152602001807f70726f76696465642049642069732077726f6e6700000000000000000000000081525060200191505060405180910390fd5b60028581548110620006ac57fe5b906000526020600020906002020160000160009054906101000a900473ffffffffffffffffffffffffffffffffffffffff1660028681548110620006ec57fe5b906000526020600020906002020160010160009054906101000a900473ffffffffffffffffffffffffffffffffffffffff16935093505050915091565b6000600460009054906101000a900473ffffffffffffffffffffffffffffffffffffffff16905090565b60015480341015620007cd576040517f08c379a00000000000000000000000000000000000000000000000000000000081526004018080602001828103825260108152602001807f4e6f7420656e6f7567682066756e64730000000000000000000000000000000081525060200191505060405180910390fd5b60008383604051620007df90620009de565b8080602001838152602001828103825284818151815260200191508051906020019060200280838360005b83811015620008275780820151818401526020810190506200080a565b505050509050019350505050604051809103906000f08015801562000850573d6000803e3d6000fd5b509050600060405180604001604052803373ffffffffffffffffffffffffffffffffffffffff1681526020018373ffffffffffffffffffffffffffffffffffffffff168152509050600281908060018154018082558091505060019003906000526020600020906002020160009091909190915060008201518160000160006101000a81548173ffffffffffffffffffffffffffffffffffffffff021916908373ffffffffffffffffffffffffffffffffffffffff16021790555060208201518160010160006101000a81548173ffffffffffffffffffffffffffffffffffffffff021916908373ffffffffffffffffffffffffffffffffffffffff16021790555050507f9bfff6b81778f7b8086272d62a71be896cfc1876bb5f2e4e1fe28bc4c241596860016002805490500382600001518360200151604051808481526020018373ffffffffffffffffffffffffffffffffffffffff1681526020018273ffffffffffffffffffffffffffffffffffffffff168152602001935050505060405180910390a15050505050565b6162a280620009ed8339019056fe608060405260405180604001604052806040518060400160405280600581526020017f4f776e657200000000000000000000000000000000000000000000000000000081525081526020016040518060400160405280600881526020017f50726f766964657200000000000000000000000000000000000000000000000081525081525060049060026200009592919062000466565b50604051620062a2380380620062a28339818101604052810190620000bb9190620006c7565b8181818160026004805480602002602001604051908101604052809291908181526020016000905b82821015620001a5578382906000526020600020018054600181600116156101000203166002900480601f016020809104026020016040519081016040528092919081815260200182805460018160011615610100020316600290048015620001905780601f10620001645761010080835404028352916020019162000190565b820191906000526020600020905b8154815290600101906020018083116200017257829003601f168201915b505050505081526020019060010190620000e3565b5050505060008451841115620001f2576040517f08c379a0000000000000000000000000000000000000000000000000000000008152600401620001e9906200080d565b60405180910390fd5b6000841162000238576040517f08c379a00000000000000000000000000000000000000000000000000000000081526004016200022f9062000851565b60405180910390fd5b815183146200027e576040517f08c379a000000000000000000000000000000000000000000000000000000000815260040162000275906200082f565b60405180910390fd5b8060008190555060005b838110156200030f576003600181600181540180825580915050039060005260206000209050506002838281518110620002be57fe5b602002602001015190806001815401808255809150506001900390600052602060002001600090919091909150908051906020019062000300929190620004cd565b50808060010191505062000288565b508360018190555060005b8551811015620004565760016003600054815481106200033657fe5b906000526020600020906002020160000160008884815181106200035657fe5b602002602001015173ffffffffffffffffffffffffffffffffffffffff1673ffffffffffffffffffffffffffffffffffffffff16815260200190815260200160002060000160006101000a81548160ff021916908315150217905550600360005481548110620003c257fe5b9060005260206000209060020201600101868281518110620003e057fe5b60200260200101519080600181540180825580915050600190039060005260206000200160009091909190916101000a81548173ffffffffffffffffffffffffffffffffffffffff021916908373ffffffffffffffffffffffffffffffffffffffff16021790555080806001019150506200031a565b505050505050505050506200095b565b828054828255906000526020600020908101928215620004ba579160200282015b82811115620004b9578251829080519060200190620004a8929190620004cd565b509160200191906001019062000487565b5b509050620004c9919062000564565b5090565b828054600181600116156101000203166002900490600052602060002090601f01602090048101928262000505576000855562000551565b82601f106200052057805160ff191683800117855562000551565b8280016001018555821562000551579182015b828111156200055057825182559160200191906001019062000533565b5b5090506200056091906200058c565b5090565b5b808211156200058857600081816200057e9190620005ab565b5060010162000565565b5090565b5b80821115620005a75760008160009055506001016200058d565b5090565b50805460018160011615610100020316600290046000825580601f10620005d35750620005f4565b601f016020900490600052602060002090810190620005f391906200058c565b5b50565b60006200060e6200060884620008a7565b62000873565b905080838252602082019050828560208602820111156200062e57600080fd5b60005b858110156200066257816200064788826200066c565b84526020840193506020830192505060018101905062000631565b5050509392505050565b6000815190506200067d8162000927565b92915050565b600082601f8301126200069557600080fd5b8151620006a7848260208601620005f7565b91505092915050565b600081519050620006c18162000941565b92915050565b60008060408385031215620006db57600080fd5b600083015167ffffffffffffffff811115620006f657600080fd5b620007048582860162000683565b92505060206200071785828601620006b0565b9150509250929050565b600062000730603c83620008d6565b91507f4e6f7420656e6f756768206f776e6572732070726f766964656420746f206d6560008301527f657420746865206d696e4f776e65727320726571756972656d656e74000000006020830152604082019050919050565b600062000798601d83620008d6565b91507f4e6f7420656e6f756768206f7220746f6f206d616e79206c6162656c730000006000830152602082019050919050565b6000620007da601883620008d6565b91507f4174206c656173742031206d696e696d756d206f776e657200000000000000006000830152602082019050919050565b60006020820190508181036000830152620008288162000721565b9050919050565b600060208201905081810360008301526200084a8162000789565b9050919050565b600060208201905081810360008301526200086c81620007cb565b9050919050565b6000604051905081810181811067ffffffffffffffff821117156200089d576200089c62000925565b5b8060405250919050565b600067ffffffffffffffff821115620008c557620008c462000925565b5b602082029050602081019050919050565b600082825260208201905092915050565b6000620008f482620008fb565b9050919050565b600073ffffffffffffffffffffffffffffffffffffffff82169050919050565b6000819050919050565bfe5b6200093281620008e7565b81146200093e57600080fd5b50565b6200094c816200091b565b81146200095857600080fd5b50565b615937806200096b6000396000f3fe608060405234801561001057600080fd5b50600436106101375760003560e01c80636e55d2d4116100b8578063a73db28a1161007c578063a73db28a14610382578063a93d5ed61461039e578063d0a4adfe146103bc578063d744d2f3146103ec578063eefe76811461040a578063fc0005001461042857610137565b80636e55d2d4146102ba57806377bc5a1f146102ea5780638a355a571461031a578063925979fd146103365780639fc104361461036657610137565b80633542758f116100ff5780633542758f146101f0578063375834991461020c57806358a1ba251461023c5780636b074a071461026c5780636e4f91791461029c57610137565b80631270db7a1461013c5780631660c22a1461016c578063173825d9146101885780631ab807f8146101a45780632f54bf6e146101c0575b600080fd5b61015660048036038101906101519190614dcc565b610444565b6040516101639190615680565b60405180910390f35b61018660048036038101906101819190614e6b565b6105c1565b005b6101a2600480360381019061019d9190614da3565b6105d1565b005b6101be60048036038101906101b99190614f37565b6105e0565b005b6101da60048036038101906101d59190614da3565b610896565b6040516101e791906154f3565b60405180910390f35b61020a60048036038101906102059190614e6b565b6108ab565b005b61022660048036038101906102219190614da3565b6108bc565b604051610233919061550e565b60405180910390f35b61025660048036038101906102519190614ebf565b6108d0565b60405161026391906154d1565b60405180910390f35b61028660048036038101906102819190614da3565b610b47565b60405161029391906154f3565b60405180910390f35b6102a4610b5b565b6040516102b191906154af565b60405180910390f35b6102d460048036038101906102cf9190614da3565b610b6c565b6040516102e19190615680565b60405180910390f35b61030460048036038101906102ff9190614da3565b610bbb565b604051610311919061550e565b60405180910390f35b610334600480360381019061032f9190614da3565b610bd0565b005b610350600480360381019061034b9190614e08565b610bde565b60405161035d91906154d1565b60405180910390f35b610380600480360381019061037b9190614e6b565b610f11565b005b61039c60048036038101906103979190614f37565b610f22565b005b6103a6611323565b6040516103b391906154af565b60405180910390f35b6103d660048036038101906103d19190614f37565b611335565b6040516103e39190615442565b60405180910390f35b6103f46113b3565b6040516104019190615680565b60405180910390f35b6104126113c4565b60405161041f9190615680565b60405180910390f35b610442600480360381019061043d9190614e6b565b6113d6565b005b600080600560008473ffffffffffffffffffffffffffffffffffffffff1673ffffffffffffffffffffffffffffffffffffffff1681526020019081526020016000206001018054806020026020016040519081016040528092919081815260200182805480156104d357602002820191906000526020600020905b8154815260200190600101908083116104bf575b505050505090506000805b82518110156105b5578573ffffffffffffffffffffffffffffffffffffffff16600560008773ffffffffffffffffffffffffffffffffffffffff1673ffffffffffffffffffffffffffffffffffffffff168152602001908152602001600020600001600085848151811061054e57fe5b6020026020010151815260200190815260200160002060009054906101000a900473ffffffffffffffffffffffffffffffffffffffff1673ffffffffffffffffffffffffffffffffffffffff1614156105a8576001820191505b80806001019150506104de565b50809250505092915050565b6105cd828260016113e6565b5050565b6105dd816000546115e1565b50565b6105e933610b47565b1515600115151461062f576040517f08c379a000000000000000000000000000000000000000000000000000000000815260040161062690615560565b60405180910390fd5b81602060ff16600010610677576040517f08c379a000000000000000000000000000000000000000000000000000000000815260040161066e90615640565b60405180910390fd5b8183600560008373ffffffffffffffffffffffffffffffffffffffff1673ffffffffffffffffffffffffffffffffffffffff168152602001908152602001600020600001600082815260200190815260200160002060009054906101000a900473ffffffffffffffffffffffffffffffffffffffff1673ffffffffffffffffffffffffffffffffffffffff16600073ffffffffffffffffffffffffffffffffffffffff161461075b576040517f08c379a000000000000000000000000000000000000000000000000000000000815260040161075290615660565b60405180910390fd5b33600560008673ffffffffffffffffffffffffffffffffffffffff1673ffffffffffffffffffffffffffffffffffffffff168152602001908152602001600020600001600087815260200190815260200160002060006101000a81548173ffffffffffffffffffffffffffffffffffffffff021916908373ffffffffffffffffffffffffffffffffffffffff160217905550600560008573ffffffffffffffffffffffffffffffffffffffff1673ffffffffffffffffffffffffffffffffffffffff1681526020019081526020016000206001018590806001815401808255809150506001900390600052602060002001600090919091909150557f601cb9a073dbfa468ef12878ee6c720641a49b76af7c16099e8c0a1ac3ca79b5338560405161088792919061545d565b60405180910390a15050505050565b60006108a482600054611aa6565b9050919050565b6108b88282600054611e67565b5050565b60606108c98260016122f6565b9050919050565b606082600560008673ffffffffffffffffffffffffffffffffffffffff1673ffffffffffffffffffffffffffffffffffffffff1681526020019081526020016000206001018054905073__Library_______________________________632477a0ea83836040518363ffffffff1660e01b815260040161095292919061569b565b60206040518083038186803b15801561096a57600080fd5b505af415801561097e573d6000803e3d6000fd5b505050506040513d601f19601f820116820180604052508101906109a29190614f0e565b151560011515146109e8576040517f08c379a00000000000000000000000000000000000000000000000000000000081526004016109df90615580565b60405180910390fd5b60008467ffffffffffffffff81118015610a0157600080fd5b50604051908082528060200260200182016040528015610a305781602001602082028036833780820191505090505b5090506000600560008973ffffffffffffffffffffffffffffffffffffffff1673ffffffffffffffffffffffffffffffffffffffff168152602001908152602001600020600101805480602002602001604051908101604052809291908181526020018280548015610ac157602002820191906000526020600020905b815481526020019060010190808311610aad575b5050505050905060008060005b8351811015610b3657888310610ae357610b36565b818a1115610af657600182019150610b29565b838181518110610b0257fe5b6020026020010151858481518110610b1657fe5b6020026020010181815250506001830192505b8080600101915050610ace565b508396505050505050509392505050565b6000610b54826001611aa6565b9050919050565b6060610b6760016123fc565b905090565b6000600560008373ffffffffffffffffffffffffffffffffffffffff1673ffffffffffffffffffffffffffffffffffffffff168152602001908152602001600020600101805490509050919050565b6060610bc9826000546122f6565b9050919050565b610bdb8160016115e1565b50565b606082600560008673ffffffffffffffffffffffffffffffffffffffff1673ffffffffffffffffffffffffffffffffffffffff1681526020019081526020016000206001018054905073__Library_______________________________632477a0ea83836040518363ffffffff1660e01b8152600401610c6092919061569b565b60206040518083038186803b158015610c7857600080fd5b505af4158015610c8c573d6000803e3d6000fd5b505050506040513d601f19601f82011682018060405250810190610cb09190614f0e565b15156001151514610cf6576040517f08c379a0000000000000000000000000000000000000000000000000000000008152600401610ced90615580565b60405180910390fd5b60008467ffffffffffffffff81118015610d0f57600080fd5b50604051908082528060200260200182016040528015610d3e5781602001602082028036833780820191505090505b5090506000600560008973ffffffffffffffffffffffffffffffffffffffff1673ffffffffffffffffffffffffffffffffffffffff168152602001908152602001600020600101805480602002602001604051908101604052809291908181526020018280548015610dcf57602002820191906000526020600020905b815481526020019060010190808311610dbb575b5050505050905060008060005b8351811015610eff57888310610df157610eff565b8b73ffffffffffffffffffffffffffffffffffffffff16600560008d73ffffffffffffffffffffffffffffffffffffffff1673ffffffffffffffffffffffffffffffffffffffff1681526020019081526020016000206000016000868481518110610e5857fe5b6020026020010151815260200190815260200160002060009054906101000a900473ffffffffffffffffffffffffffffffffffffffff1673ffffffffffffffffffffffffffffffffffffffff161415610ef257818a1115610ebe57600182019150610ef1565b838181518110610eca57fe5b6020026020010151858481518110610ede57fe5b6020026020010181815250506001830192505b5b8080600101915050610ddc565b50839650505050505050949350505050565b610f1e82826000546113e6565b5050565b610f2b33610b47565b15156001151514610f71576040517f08c379a0000000000000000000000000000000000000000000000000000000008152600401610f6890615560565b60405180910390fd5b8082600560008373ffffffffffffffffffffffffffffffffffffffff1673ffffffffffffffffffffffffffffffffffffffff168152602001908152602001600020600001600082815260200190815260200160002060009054906101000a900473ffffffffffffffffffffffffffffffffffffffff1673ffffffffffffffffffffffffffffffffffffffff163373ffffffffffffffffffffffffffffffffffffffff16148061104b57508173ffffffffffffffffffffffffffffffffffffffff163373ffffffffffffffffffffffffffffffffffffffff16145b61108a576040517f08c379a000000000000000000000000000000000000000000000000000000000815260040161108190615620565b60405180910390fd5b6000600560008573ffffffffffffffffffffffffffffffffffffffff1673ffffffffffffffffffffffffffffffffffffffff168152602001908152602001600020600001600086815260200190815260200160002060009054906101000a900473ffffffffffffffffffffffffffffffffffffffff1690506000600560008673ffffffffffffffffffffffffffffffffffffffff1673ffffffffffffffffffffffffffffffffffffffff16815260200190815260200160002060010180548060200260200160405190810160405280929190818152602001828054801561119057602002820191906000526020600020905b81548152602001906001019080831161117c575b5050505050905060005b815181101561126b578181815181106111af57fe5b602002602001015187141561125e5761125881600560008973ffffffffffffffffffffffffffffffffffffffff1673ffffffffffffffffffffffffffffffffffffffff16815260200190815260200160002060010180548060200260200160405190810160405280929190818152602001828054801561124e57602002820191906000526020600020905b81548152602001906001019080831161123a575b5050505050612500565b5061126b565b808060010191505061119a565b50600560008673ffffffffffffffffffffffffffffffffffffffff1673ffffffffffffffffffffffffffffffffffffffff168152602001908152602001600020600001600087815260200190815260200160002060006101000a81549073ffffffffffffffffffffffffffffffffffffffff02191690557fd12847594abf0621035046f61129f2a9dc5093eb516c6c517ece306362ef6f178286604051611313929190615486565b60405180910390a1505050505050565b60606113306000546123fc565b905090565b6000600560008373ffffffffffffffffffffffffffffffffffffffff1673ffffffffffffffffffffffffffffffffffffffff168152602001908152602001600020600001600084815260200190815260200160002060009054906101000a900473ffffffffffffffffffffffffffffffffffffffff16905092915050565b60006113bf600161264d565b905090565b60006113d160005461264d565b905090565b6113e282826001611e67565b5050565b8060038054905073__Library_______________________________632477a0ea83836040518363ffffffff1660e01b815260040161142692919061569b565b60206040518083038186803b15801561143e57600080fd5b505af4158015611452573d6000803e3d6000fd5b505050506040513d601f19601f820116820180604052508101906114769190614f0e565b151560011515146114bc576040517f08c379a00000000000000000000000000000000000000000000000000000000081526004016114b390615580565b60405180910390fd5b6114c533610896565b1515600115151461150b576040517f08c379a0000000000000000000000000000000000000000000000000000000008152600401611502906155e0565b60405180910390fd5b6000611531866003868154811061151e57fe5b9060005260206000209060020201612751565b905061155b86866003878154811061154557fe5b9060005260206000209060020201600154612a6b565b60018101611583876003878154811061157057fe5b9060005260206000209060020201612751565b14156115d9577fddf8a9c2d29b02b191b0a29b7a0f698bfd4655230a23853e2af123ab0b1188d7600285815481106115b757fe5b90600052602060002001876040516115d0929190615530565b60405180910390a15b505050505050565b8060038054905073__Library_______________________________632477a0ea83836040518363ffffffff1660e01b815260040161162192919061569b565b60206040518083038186803b15801561163957600080fd5b505af415801561164d573d6000803e3d6000fd5b505050506040513d601f19601f820116820180604052508101906116719190614f0e565b151560011515146116b7576040517f08c379a00000000000000000000000000000000000000000000000000000000081526004016116ae90615580565b60405180910390fd5b836116c133610896565b15156001151514806116fe57508073ffffffffffffffffffffffffffffffffffffffff163373ffffffffffffffffffffffffffffffffffffffff16145b61173d576040517f08c379a0000000000000000000000000000000000000000000000000000000008152600401611734906155a0565b60405180910390fd5b611764856003868154811061174e57fe5b90600052602060002090600202016001546131ff565b611a436003858154811061177457fe5b906000526020600020906002020160000160008773ffffffffffffffffffffffffffffffffffffffff1673ffffffffffffffffffffffffffffffffffffffff1681526020019081526020016000206040518060c00160405290816000820160009054906101000a900460ff16151515158152602001600182018054600181600116156101000203166002900480601f0160208091040260200160405190810160405280929190818152602001828054600181600116156101000203166002900480156118815780601f1061185657610100808354040283529160200191611881565b820191906000526020600020905b81548152906001019060200180831161186457829003601f168201915b50505050508152602001600282015481526020016003820180548060200260200160405190810160405280929190818152602001828054801561191957602002820191906000526020600020905b8160009054906101000a900473ffffffffffffffffffffffffffffffffffffffff1673ffffffffffffffffffffffffffffffffffffffff16815260200190600101908083116118cf575b50505050508152602001600482018054806020026020016040519081016040528092919081815260200182805480156119a757602002820191906000526020600020905b8160009054906101000a900473ffffffffffffffffffffffffffffffffffffffff1673ffffffffffffffffffffffffffffffffffffffff168152602001906001019080831161195d575b5050505050815260200160058201805480602002602001604051908101604052809291908181526020018280548015611a3557602002820191906000526020600020905b8160009054906101000a900473ffffffffffffffffffffffffffffffffffffffff1673ffffffffffffffffffffffffffffffffffffffff16815260200190600101908083116119eb575b505050505081525050613a90565b1515600015151415611a9f577f1f62d535f971041db7bd8760bf0f1f9f476461558744a35c0d477b5ad6893e8960028581548110611a7d57fe5b9060005260206000200186604051611a96929190615530565b60405180910390a15b5050505050565b60008160038054905073__Library_______________________________632477a0ea83836040518363ffffffff1660e01b8152600401611ae892919061569b565b60206040518083038186803b158015611b0057600080fd5b505af4158015611b14573d6000803e3d6000fd5b505050506040513d601f19601f82011682018060405250810190611b389190614f0e565b15156001151514611b7e576040517f08c379a0000000000000000000000000000000000000000000000000000000008152600401611b7590615580565b60405180910390fd5b611e5d60038581548110611b8e57fe5b906000526020600020906002020160000160008773ffffffffffffffffffffffffffffffffffffffff1673ffffffffffffffffffffffffffffffffffffffff1681526020019081526020016000206040518060c00160405290816000820160009054906101000a900460ff16151515158152602001600182018054600181600116156101000203166002900480601f016020809104026020016040519081016040528092919081815260200182805460018160011615610100020316600290048015611c9b5780601f10611c7057610100808354040283529160200191611c9b565b820191906000526020600020905b815481529060010190602001808311611c7e57829003601f168201915b505050505081526020016002820154815260200160038201805480602002602001604051908101604052809291908181526020018280548015611d3357602002820191906000526020600020905b8160009054906101000a900473ffffffffffffffffffffffffffffffffffffffff1673ffffffffffffffffffffffffffffffffffffffff1681526020019060010190808311611ce9575b5050505050815260200160048201805480602002602001604051908101604052809291908181526020018280548015611dc157602002820191906000526020600020905b8160009054906101000a900473ffffffffffffffffffffffffffffffffffffffff1673ffffffffffffffffffffffffffffffffffffffff1681526020019060010190808311611d77575b5050505050815260200160058201805480602002602001604051908101604052809291908181526020018280548015611e4f57602002820191906000526020600020905b8160009054906101000a900473ffffffffffffffffffffffffffffffffffffffff1673ffffffffffffffffffffffffffffffffffffffff1681526020019060010190808311611e05575b505050505081525050613a90565b9250505092915050565b8060038054905073__Library_______________________________632477a0ea83836040518363ffffffff1660e01b8152600401611ea792919061569b565b60206040518083038186803b158015611ebf57600080fd5b505af4158015611ed3573d6000803e3d6000fd5b505050506040513d601f19601f82011682018060405250810190611ef79190614f0e565b15156001151514611f3d576040517f08c379a0000000000000000000000000000000000000000000000000000000008152600401611f3490615580565b60405180910390fd5b611f4633610896565b15156001151514611f8c576040517f08c379a0000000000000000000000000000000000000000000000000000000008152600401611f83906155e0565b60405180910390fd5b611fb4858560038681548110611f9e57fe5b9060005260206000209060020201600154613a9e565b61229360038481548110611fc457fe5b906000526020600020906002020160000160008773ffffffffffffffffffffffffffffffffffffffff1673ffffffffffffffffffffffffffffffffffffffff1681526020019081526020016000206040518060c00160405290816000820160009054906101000a900460ff16151515158152602001600182018054600181600116156101000203166002900480601f0160208091040260200160405190810160405280929190818152602001828054600181600116156101000203166002900480156120d15780601f106120a6576101008083540402835291602001916120d1565b820191906000526020600020905b8154815290600101906020018083116120b457829003601f168201915b50505050508152602001600282015481526020016003820180548060200260200160405190810160405280929190818152602001828054801561216957602002820191906000526020600020905b8160009054906101000a900473ffffffffffffffffffffffffffffffffffffffff1673ffffffffffffffffffffffffffffffffffffffff168152602001906001019080831161211f575b50505050508152602001600482018054806020026020016040519081016040528092919081815260200182805480156121f757602002820191906000526020600020905b8160009054906101000a900473ffffffffffffffffffffffffffffffffffffffff1673ffffffffffffffffffffffffffffffffffffffff16815260200190600101908083116121ad575b505050505081526020016005820180548060200260200160405190810160405280929190818152602001828054801561228557602002820191906000526020600020905b8160009054906101000a900473ffffffffffffffffffffffffffffffffffffffff1673ffffffffffffffffffffffffffffffffffffffff168152602001906001019080831161223b575b505050505081525050613a90565b15156001151514156122ef577f3c139d46a211844e248647688545a37c07c505c999c1232d1247c707dc0a91e2600284815481106122cd57fe5b90600052602060002001866040516122e6929190615530565b60405180910390a15b5050505050565b60608160038054905073__Library_______________________________632477a0ea83836040518363ffffffff1660e01b815260040161233892919061569b565b60206040518083038186803b15801561235057600080fd5b505af4158015612364573d6000803e3d6000fd5b505050506040513d601f19601f820116820180604052508101906123889190614f0e565b151560011515146123ce576040517f08c379a00000000000000000000000000000000000000000000000000000000081526004016123c590615580565b60405180910390fd5b6123f285600386815481106123df57fe5b9060005260206000209060020201614306565b9250505092915050565b60608160038054905073__Library_______________________________632477a0ea83836040518363ffffffff1660e01b815260040161243e92919061569b565b60206040518083038186803b15801561245657600080fd5b505af415801561246a573d6000803e3d6000fd5b505050506040513d601f19601f8201168201806040525081019061248e9190614f0e565b151560011515146124d4576040517f08c379a00000000000000000000000000000000000000000000000000000000081526004016124cb90615580565b60405180910390fd5b6124f7600385815481106124e457fe5b90600052602060002090600202016146b8565b92505050919050565b606082825173__Library_______________________________632477a0ea83836040518363ffffffff1660e01b815260040161253e92919061569b565b60206040518083038186803b15801561255657600080fd5b505af415801561256a573d6000803e3d6000fd5b505050506040513d601f19601f8201168201806040525081019061258e9190614f0e565b151560011515146125d4576040517f08c379a00000000000000000000000000000000000000000000000000000000081526004016125cb90615580565b60405180910390fd5b60008590505b6001855103811015612622578460018201815181106125f557fe5b602002602001015185828151811061260957fe5b60200260200101818152505080806001019150506125da565b508360018551038151811061263357fe5b602002602001016000801916815250839250505092915050565b60008160038054905073__Library_______________________________632477a0ea83836040518363ffffffff1660e01b815260040161268f92919061569b565b60206040518083038186803b1580156126a757600080fd5b505af41580156126bb573d6000803e3d6000fd5b505050506040513d601f19601f820116820180604052508101906126df9190614f0e565b15156001151514612725576040517f08c379a000000000000000000000000000000000000000000000000000000000815260040161271c90615580565b60405180910390fd5b6127486003858154811061273557fe5b906000526020600020906002020161474a565b92505050919050565b600060018260000160008573ffffffffffffffffffffffffffffffffffffffff1673ffffffffffffffffffffffffffffffffffffffff1681526020019081526020016000206040518060c00160405290816000820160009054906101000a900460ff16151515158152602001600182018054600181600116156101000203166002900480601f0160208091040260200160405190810160405280929190818152602001828054600181600116156101000203166002900480156128555780601f1061282a57610100808354040283529160200191612855565b820191906000526020600020905b81548152906001019060200180831161283857829003601f168201915b5050505050815260200160028201548152602001600382018054806020026020016040519081016040528092919081815260200182805480156128ed57602002820191906000526020600020905b8160009054906101000a900473ffffffffffffffffffffffffffffffffffffffff1673ffffffffffffffffffffffffffffffffffffffff16815260200190600101908083116128a3575b505050505081526020016004820180548060200260200160405190810160405280929190818152602001828054801561297b57602002820191906000526020600020905b8160009054906101000a900473ffffffffffffffffffffffffffffffffffffffff1673ffffffffffffffffffffffffffffffffffffffff1681526020019060010190808311612931575b5050505050815260200160058201805480602002602001604051908101604052809291908181526020018280548015612a0957602002820191906000526020600020905b8160009054906101000a900473ffffffffffffffffffffffffffffffffffffffff1673ffffffffffffffffffffffffffffffffffffffff16815260200190600101908083116129bf575b505050505081525050612a1c828261475b565b8360000160008673ffffffffffffffffffffffffffffffffffffffff1673ffffffffffffffffffffffffffffffffffffffff168152602001908152602001600020600201549250505092915050565b60018260000160008673ffffffffffffffffffffffffffffffffffffffff1673ffffffffffffffffffffffffffffffffffffffff1681526020019081526020016000206040518060c00160405290816000820160009054906101000a900460ff16151515158152602001600182018054600181600116156101000203166002900480601f016020809104026020016040519081016040528092919081815260200182805460018160011615610100020316600290048015612b6d5780601f10612b4257610100808354040283529160200191612b6d565b820191906000526020600020905b815481529060010190602001808311612b5057829003601f168201915b505050505081526020016002820154815260200160038201805480602002602001604051908101604052809291908181526020018280548015612c0557602002820191906000526020600020905b8160009054906101000a900473ffffffffffffffffffffffffffffffffffffffff1673ffffffffffffffffffffffffffffffffffffffff1681526020019060010190808311612bbb575b5050505050815260200160048201805480602002602001604051908101604052809291908181526020018280548015612c9357602002820191906000526020600020905b8160009054906101000a900473ffffffffffffffffffffffffffffffffffffffff1673ffffffffffffffffffffffffffffffffffffffff1681526020019060010190808311612c49575b5050505050815260200160058201805480602002602001604051908101604052809291908181526020018280548015612d2157602002820191906000526020600020905b8160009054906101000a900473ffffffffffffffffffffffffffffffffffffffff1673ffffffffffffffffffffffffffffffffffffffff1681526020019060010190808311612cd7575b505050505081525050612d34828261475b565b60018460000160008873ffffffffffffffffffffffffffffffffffffffff1673ffffffffffffffffffffffffffffffffffffffff1681526020019081526020016000206040518060c00160405290816000820160009054906101000a900460ff16151515158152602001600182018054600181600116156101000203166002900480601f016020809104026020016040519081016040528092919081815260200182805460018160011615610100020316600290048015612e365780601f10612e0b57610100808354040283529160200191612e36565b820191906000526020600020905b815481529060010190602001808311612e1957829003601f168201915b505050505081526020016002820154815260200160038201805480602002602001604051908101604052809291908181526020018280548015612ece57602002820191906000526020600020905b8160009054906101000a900473ffffffffffffffffffffffffffffffffffffffff1673ffffffffffffffffffffffffffffffffffffffff1681526020019060010190808311612e84575b5050505050815260200160048201805480602002602001604051908101604052809291908181526020018280548015612f5c57602002820191906000526020600020905b8160009054906101000a900473ffffffffffffffffffffffffffffffffffffffff1673ffffffffffffffffffffffffffffffffffffffff1681526020019060010190808311612f12575b5050505050815260200160058201805480602002602001604051908101604052809291908181526020018280548015612fea57602002820191906000526020600020905b8160009054906101000a900473ffffffffffffffffffffffffffffffffffffffff1673ffffffffffffffffffffffffffffffffffffffff1681526020019060010190808311612fa0575b505050505081525050612ffd8282614810565b8560000160008973ffffffffffffffffffffffffffffffffffffffff1673ffffffffffffffffffffffffffffffffffffffff168152602001908152602001600020600501339080600181540180825580915050600190039060005260206000200160009091909190916101000a81548173ffffffffffffffffffffffffffffffffffffffff021916908373ffffffffffffffffffffffffffffffffffffffff1602179055506130f38660000160008a73ffffffffffffffffffffffffffffffffffffffff1673ffffffffffffffffffffffffffffffffffffffff16815260200190815260200160002060050180549050866149a1565b156131f557868660000160008a73ffffffffffffffffffffffffffffffffffffffff1673ffffffffffffffffffffffffffffffffffffffff1681526020019081526020016000206001019080519060200190613150929190614bd3565b5060018660000160008a73ffffffffffffffffffffffffffffffffffffffff1673ffffffffffffffffffffffffffffffffffffffff168152602001908152602001600020600201600082825401925050819055508560000160008973ffffffffffffffffffffffffffffffffffffffff1673ffffffffffffffffffffffffffffffffffffffff16815260200190815260200160002060050160006131f49190614c61565b5b5050505050505050565b60018260000160008573ffffffffffffffffffffffffffffffffffffffff1673ffffffffffffffffffffffffffffffffffffffff1681526020019081526020016000206040518060c00160405290816000820160009054906101000a900460ff16151515158152602001600182018054600181600116156101000203166002900480601f0160208091040260200160405190810160405280929190818152602001828054600181600116156101000203166002900480156133015780601f106132d657610100808354040283529160200191613301565b820191906000526020600020905b8154815290600101906020018083116132e457829003601f168201915b50505050508152602001600282015481526020016003820180548060200260200160405190810160405280929190818152602001828054801561339957602002820191906000526020600020905b8160009054906101000a900473ffffffffffffffffffffffffffffffffffffffff1673ffffffffffffffffffffffffffffffffffffffff168152602001906001019080831161334f575b505050505081526020016004820180548060200260200160405190810160405280929190818152602001828054801561342757602002820191906000526020600020905b8160009054906101000a900473ffffffffffffffffffffffffffffffffffffffff1673ffffffffffffffffffffffffffffffffffffffff16815260200190600101908083116133dd575b50505050508152602001600582018054806020026020016040519081016040528092919081815260200182805480156134b557602002820191906000526020600020905b8160009054906101000a900473ffffffffffffffffffffffffffffffffffffffff1673ffffffffffffffffffffffffffffffffffffffff168152602001906001019080831161346b575b5050505050815250506134c8828261475b565b60028460000160008773ffffffffffffffffffffffffffffffffffffffff1673ffffffffffffffffffffffffffffffffffffffff1681526020019081526020016000206040518060c00160405290816000820160009054906101000a900460ff16151515158152602001600182018054600181600116156101000203166002900480601f0160208091040260200160405190810160405280929190818152602001828054600181600116156101000203166002900480156135ca5780601f1061359f576101008083540402835291602001916135ca565b820191906000526020600020905b8154815290600101906020018083116135ad57829003601f168201915b50505050508152602001600282015481526020016003820180548060200260200160405190810160405280929190818152602001828054801561366257602002820191906000526020600020905b8160009054906101000a900473ffffffffffffffffffffffffffffffffffffffff1673ffffffffffffffffffffffffffffffffffffffff1681526020019060010190808311613618575b50505050508152602001600482018054806020026020016040519081016040528092919081815260200182805480156136f057602002820191906000526020600020905b8160009054906101000a900473ffffffffffffffffffffffffffffffffffffffff1673ffffffffffffffffffffffffffffffffffffffff16815260200190600101908083116136a6575b505050505081526020016005820180548060200260200160405190810160405280929190818152602001828054801561377e57602002820191906000526020600020905b8160009054906101000a900473ffffffffffffffffffffffffffffffffffffffff1673ffffffffffffffffffffffffffffffffffffffff1681526020019060010190808311613734575b5050505050815250506137918282614810565b8560000160008873ffffffffffffffffffffffffffffffffffffffff1673ffffffffffffffffffffffffffffffffffffffff168152602001908152602001600020600401339080600181540180825580915050600190039060005260206000200160009091909190916101000a81548173ffffffffffffffffffffffffffffffffffffffff021916908373ffffffffffffffffffffffffffffffffffffffff1602179055508673ffffffffffffffffffffffffffffffffffffffff163373ffffffffffffffffffffffffffffffffffffffff1614806138bd57506138bc8660000160008973ffffffffffffffffffffffffffffffffffffffff1673ffffffffffffffffffffffffffffffffffffffff16815260200190815260200160002060040180549050866149a1565b5b15613a87576139e5613957888860010180548060200260200160405190810160405280929190818152602001828054801561394d57602002820191906000526020600020905b8160009054906101000a900473ffffffffffffffffffffffffffffffffffffffff1673ffffffffffffffffffffffffffffffffffffffff1681526020019060010190808311613903575b50505050506149bf565b876001018054806020026020016040519081016040528092919081815260200182805480156139db57602002820191906000526020600020905b8160009054906101000a900473ffffffffffffffffffffffffffffffffffffffff1673ffffffffffffffffffffffffffffffffffffffff1681526020019060010190808311613991575b5050505050614a3c565b508560000160008873ffffffffffffffffffffffffffffffffffffffff1673ffffffffffffffffffffffffffffffffffffffff168152602001908152602001600020600080820160006101000a81549060ff0219169055600182016000613a4c9190614c82565b6002820160009055600382016000613a649190614c61565b600482016000613a749190614c61565b600582016000613a849190614c61565b50505b50505050505050565b600081600001519050919050565b60008260000160008673ffffffffffffffffffffffffffffffffffffffff1673ffffffffffffffffffffffffffffffffffffffff1681526020019081526020016000206040518060c00160405290816000820160009054906101000a900460ff16151515158152602001600182018054600181600116156101000203166002900480601f016020809104026020016040519081016040528092919081815260200182805460018160011615610100020316600290048015613ba05780601f10613b7557610100808354040283529160200191613ba0565b820191906000526020600020905b815481529060010190602001808311613b8357829003601f168201915b505050505081526020016002820154815260200160038201805480602002602001604051908101604052809291908181526020018280548015613c3857602002820191906000526020600020905b8160009054906101000a900473ffffffffffffffffffffffffffffffffffffffff1673ffffffffffffffffffffffffffffffffffffffff1681526020019060010190808311613bee575b5050505050815260200160048201805480602002602001604051908101604052809291908181526020018280548015613cc657602002820191906000526020600020905b8160009054906101000a900473ffffffffffffffffffffffffffffffffffffffff1673ffffffffffffffffffffffffffffffffffffffff1681526020019060010190808311613c7c575b5050505050815260200160058201805480602002602001604051908101604052809291908181526020018280548015613d5457602002820191906000526020600020905b8160009054906101000a900473ffffffffffffffffffffffffffffffffffffffff1673ffffffffffffffffffffffffffffffffffffffff1681526020019060010190808311613d0a575b505050505081525050613d67828261475b565b60008460000160008873ffffffffffffffffffffffffffffffffffffffff1673ffffffffffffffffffffffffffffffffffffffff1681526020019081526020016000206040518060c00160405290816000820160009054906101000a900460ff16151515158152602001600182018054600181600116156101000203166002900480601f016020809104026020016040519081016040528092919081815260200182805460018160011615610100020316600290048015613e695780601f10613e3e57610100808354040283529160200191613e69565b820191906000526020600020905b815481529060010190602001808311613e4c57829003601f168201915b505050505081526020016002820154815260200160038201805480602002602001604051908101604052809291908181526020018280548015613f0157602002820191906000526020600020905b8160009054906101000a900473ffffffffffffffffffffffffffffffffffffffff1673ffffffffffffffffffffffffffffffffffffffff1681526020019060010190808311613eb7575b5050505050815260200160048201805480602002602001604051908101604052809291908181526020018280548015613f8f57602002820191906000526020600020905b8160009054906101000a900473ffffffffffffffffffffffffffffffffffffffff1673ffffffffffffffffffffffffffffffffffffffff1681526020019060010190808311613f45575b505050505081526020016005820180548060200260200160405190810160405280929190818152602001828054801561401d57602002820191906000526020600020905b8160009054906101000a900473ffffffffffffffffffffffffffffffffffffffff1673ffffffffffffffffffffffffffffffffffffffff1681526020019060010190808311613fd3575b5050505050815250506140308282614810565b8560000160008973ffffffffffffffffffffffffffffffffffffffff1673ffffffffffffffffffffffffffffffffffffffff1681526020019081526020016000206003018054905060001480156140df57508560000160008973ffffffffffffffffffffffffffffffffffffffff1673ffffffffffffffffffffffffffffffffffffffff1681526020019081526020016000206001018054600181600116156101000203166002900490506000145b1561413e57868660000160008a73ffffffffffffffffffffffffffffffffffffffff1673ffffffffffffffffffffffffffffffffffffffff168152602001908152602001600020600101908051906020019061413c929190614bd3565b505b8560000160008973ffffffffffffffffffffffffffffffffffffffff1673ffffffffffffffffffffffffffffffffffffffff168152602001908152602001600020600301339080600181540180825580915050600190039060005260206000200160009091909190916101000a81548173ffffffffffffffffffffffffffffffffffffffff021916908373ffffffffffffffffffffffffffffffffffffffff1602179055506142348660000160008a73ffffffffffffffffffffffffffffffffffffffff1673ffffffffffffffffffffffffffffffffffffffff16815260200190815260200160002060030180549050866149a1565b156142fc5760018660000160008a73ffffffffffffffffffffffffffffffffffffffff1673ffffffffffffffffffffffffffffffffffffffff16815260200190815260200160002060000160006101000a81548160ff02191690831515021790555085600101889080600181540180825580915050600190039060005260206000200160009091909190916101000a81548173ffffffffffffffffffffffffffffffffffffffff021916908373ffffffffffffffffffffffffffffffffffffffff1602179055505b5050505050505050565b606060018260000160008573ffffffffffffffffffffffffffffffffffffffff1673ffffffffffffffffffffffffffffffffffffffff1681526020019081526020016000206040518060c00160405290816000820160009054906101000a900460ff16151515158152602001600182018054600181600116156101000203166002900480601f01602080910402602001604051908101604052809291908181526020018280546001816001161561010002031660029004801561440a5780601f106143df5761010080835404028352916020019161440a565b820191906000526020600020905b8154815290600101906020018083116143ed57829003601f168201915b5050505050815260200160028201548152602001600382018054806020026020016040519081016040528092919081815260200182805480156144a257602002820191906000526020600020905b8160009054906101000a900473ffffffffffffffffffffffffffffffffffffffff1673ffffffffffffffffffffffffffffffffffffffff1681526020019060010190808311614458575b505050505081526020016004820180548060200260200160405190810160405280929190818152602001828054801561453057602002820191906000526020600020905b8160009054906101000a900473ffffffffffffffffffffffffffffffffffffffff1673ffffffffffffffffffffffffffffffffffffffff16815260200190600101908083116144e6575b50505050508152602001600582018054806020026020016040519081016040528092919081815260200182805480156145be57602002820191906000526020600020905b8160009054906101000a900473ffffffffffffffffffffffffffffffffffffffff1673ffffffffffffffffffffffffffffffffffffffff1681526020019060010190808311614574575b5050505050815250506145d1828261475b565b8360000160008673ffffffffffffffffffffffffffffffffffffffff1673ffffffffffffffffffffffffffffffffffffffff1681526020019081526020016000206001018054600181600116156101000203166002900480601f0160208091040260200160405190810160405280929190818152602001828054600181600116156101000203166002900480156146a95780601f1061467e576101008083540402835291602001916146a9565b820191906000526020600020905b81548152906001019060200180831161468c57829003601f168201915b50505050509250505092915050565b60608160010180548060200260200160405190810160405280929190818152602001828054801561473e57602002820191906000526020600020905b8160009054906101000a900473ffffffffffffffffffffffffffffffffffffffff1673ffffffffffffffffffffffffffffffffffffffff16815260200190600101908083116146f4575b50505050509050919050565b600081600101805490509050919050565b8115156000151514156147bc5761477181613a90565b151560001515146147b7576040517f08c379a00000000000000000000000000000000000000000000000000000000081526004016147ae90615600565b60405180910390fd5b61480c565b6147c581613a90565b1515600115151461480b576040517f08c379a0000000000000000000000000000000000000000000000000000000008152600401614802906155c0565b60405180910390fd5b5b5050565b60006040518060400160405280601781526020017f4f776e65722068617320616c726561647920766f746564000000000000000000815250905082600281111561485657fe5b6001600281111561486357fe5b14156148c657614877338360a00151614b4b565b1515600015151481906148c0576040517f08c379a00000000000000000000000000000000000000000000000000000000081526004016148b7919061550e565b60405180910390fd5b5061499c565b8260028111156148d257fe5b600060028111156148df57fe5b1415614942576148f3338360600151614b4b565b15156000151514819061493c576040517f08c379a0000000000000000000000000000000000000000000000000000000008152600401614933919061550e565b60405180910390fd5b5061499b565b614950338360800151614b4b565b151560001515148190614999576040517f08c379a0000000000000000000000000000000000000000000000000000000008152600401614990919061550e565b60405180910390fd5b505b5b505050565b6000818310156149b457600090506149b9565b600190505b92915050565b600080600090505b8251811015614a2d578281815181106149dc57fe5b602002602001015173ffffffffffffffffffffffffffffffffffffffff168473ffffffffffffffffffffffffffffffffffffffff161415614a205780915050614a36565b80806001019150506149c7565b50600182510190505b92915050565b6060828251614a4b8282614bc6565b15156001151514614a91576040517f08c379a0000000000000000000000000000000000000000000000000000000008152600401614a8890615580565b60405180910390fd5b60008590505b6001855103811015614b0d57846001820181518110614ab257fe5b6020026020010151858281518110614ac657fe5b602002602001019073ffffffffffffffffffffffffffffffffffffffff16908173ffffffffffffffffffffffffffffffffffffffff16815250508080600101915050614a97565b5083600185510381518110614b1e57fe5b60200260200101600073ffffffffffffffffffffffffffffffffffffffff16815250839250505092915050565b600080600090505b8251811015614bba57828181518110614b6857fe5b602002602001015173ffffffffffffffffffffffffffffffffffffffff168473ffffffffffffffffffffffffffffffffffffffff161415614bad576001915050614bc0565b8080600101915050614b53565b50600090505b92915050565b6000828211905092915050565b828054600181600116156101000203166002900490600052602060002090601f016020900481019282614c095760008555614c50565b82601f10614c2257805160ff1916838001178555614c50565b82800160010185558215614c50579182015b82811115614c4f578251825591602001919060010190614c34565b5b509050614c5d9190614cca565b5090565b5080546000825590600052602060002090810190614c7f9190614cca565b50565b50805460018160011615610100020316600290046000825580601f10614ca85750614cc7565b601f016020900490600052602060002090810190614cc69190614cca565b5b50565b5b80821115614ce3576000816000905550600101614ccb565b5090565b6000614cfa614cf5846156f5565b6156c4565b905082815260208101848484011115614d1257600080fd5b614d1d848285615850565b509392505050565b600081359050614d34816158a5565b92915050565b600081519050614d49816158bc565b92915050565b600081359050614d5e816158d3565b92915050565b600082601f830112614d7557600080fd5b8135614d85848260208601614ce7565b91505092915050565b600081359050614d9d816158ea565b92915050565b600060208284031215614db557600080fd5b6000614dc384828501614d25565b91505092915050565b60008060408385031215614ddf57600080fd5b6000614ded85828601614d25565b9250506020614dfe85828601614d25565b9150509250929050565b60008060008060808587031215614e1e57600080fd5b6000614e2c87828801614d25565b9450506020614e3d87828801614d25565b9350506040614e4e87828801614d8e565b9250506060614e5f87828801614d8e565b91505092959194509250565b60008060408385031215614e7e57600080fd5b6000614e8c85828601614d25565b925050602083013567ffffffffffffffff811115614ea957600080fd5b614eb585828601614d64565b9150509250929050565b600080600060608486031215614ed457600080fd5b6000614ee286828701614d25565b9350506020614ef386828701614d8e565b9250506040614f0486828701614d8e565b9150509250925092565b600060208284031215614f2057600080fd5b6000614f2e84828501614d3a565b91505092915050565b60008060408385031215614f4a57600080fd5b6000614f5885828601614d4f565b9250506020614f6985828601614d25565b9150509250929050565b6000614f7f8383614fb2565b60208301905092915050565b6000614f97838361509b565b60208301905092915050565b614fac8161581a565b82525050565b614fbb816157c8565b82525050565b614fca816157c8565b82525050565b6000614fdb8261575a565b614fe58185615795565b9350614ff083615725565b8060005b838110156150215781516150088882614f73565b97506150138361577b565b925050600181019050614ff4565b5085935050505092915050565b600061503982615765565b61504381856157a6565b935061504e83615735565b8060005b8381101561507f5781516150668882614f8b565b975061507183615788565b925050600181019050615052565b5085935050505092915050565b615095816157da565b82525050565b6150a4816157e6565b82525050565b60006150b582615770565b6150bf81856157b7565b93506150cf81856020860161585f565b6150d881615894565b840191505092915050565b60008154600181166000811461510057600181146151265761516a565b607f600283041661511181876157b7565b955060ff19831686526020860193505061516a565b6002820461513481876157b7565b955061513f85615745565b60005b8281101561516157815481890152600182019150602081019050615142565b80880195505050505b505092915050565b600061517f6031836157b7565b91507f4f6e6c792050726f7669646572732061726520616c6c6f77656420746f20706560008301527f72666f726d207468697320616374696f6e0000000000000000000000000000006020830152604082019050919050565b60006151e56014836157b7565b91507f70726f76696465642049642069732077726f6e670000000000000000000000006000830152602082019050919050565b6000615225601c836157b7565b91507f4e6f7420616c6c6f77656420746f2072656d6f766520656e74697479000000006000830152602082019050919050565b60006152656018836157b7565b91507f456e74697479206d7573742062652061637469766174656400000000000000006000830152602082019050919050565b60006152a5602e836157b7565b91507f4f6e6c79204f776e6572732061726520616c6c6f77656420746f20706572666f60008301527f726d207468697320616374696f6e0000000000000000000000000000000000006020830152604082019050919050565b600061530b6018836157b7565b91507f456e7469747920616c72656164792061637469766174656400000000000000006000830152602082019050919050565b600061534b6031836157b7565b91507f4e6f7420616c6c6f77656420746f2072656d6f7665207468697320706172746960008301527f63756c61722043657274696669636174650000000000000000000000000000006020830152604082019050919050565b60006153b16005836157b7565b91507f456d7074790000000000000000000000000000000000000000000000000000006000830152602082019050919050565b60006153f16019836157b7565b91507f436572746966696361746520616c7265616479206578697374000000000000006000830152602082019050919050565b61542d81615810565b82525050565b61543c81615810565b82525050565b60006020820190506154576000830184614fc1565b92915050565b60006040820190506154726000830185614fa3565b61547f6020830184614fc1565b9392505050565b600060408201905061549b6000830185614fc1565b6154a86020830184614fc1565b9392505050565b600060208201905081810360008301526154c98184614fd0565b905092915050565b600060208201905081810360008301526154eb818461502e565b905092915050565b6000602082019050615508600083018461508c565b92915050565b6000602082019050818103600083015261552881846150aa565b905092915050565b6000604082019050818103600083015261554a81856150e3565b90506155596020830184614fc1565b9392505050565b6000602082019050818103600083015261557981615172565b9050919050565b60006020820190508181036000830152615599816151d8565b9050919050565b600060208201905081810360008301526155b981615218565b9050919050565b600060208201905081810360008301526155d981615258565b9050919050565b600060208201905081810360008301526155f981615298565b9050919050565b60006020820190508181036000830152615619816152fe565b9050919050565b600060208201905081810360008301526156398161533e565b9050919050565b60006020820190508181036000830152615659816153a4565b9050919050565b60006020820190508181036000830152615679816153e4565b9050919050565b60006020820190506156956000830184615424565b92915050565b60006040820190506156b06000830185615433565b6156bd6020830184615433565b9392505050565b6000604051905081810181811067ffffffffffffffff821117156156eb576156ea615892565b5b8060405250919050565b600067ffffffffffffffff8211156157105761570f615892565b5b601f19601f8301169050602081019050919050565b6000819050602082019050919050565b6000819050602082019050919050565b60008190508160005260206000209050919050565b600081519050919050565b600081519050919050565b600081519050919050565b6000602082019050919050565b6000602082019050919050565b600082825260208201905092915050565b600082825260208201905092915050565b600082825260208201905092915050565b60006157d3826157f0565b9050919050565b60008115159050919050565b6000819050919050565b600073ffffffffffffffffffffffffffffffffffffffff82169050919050565b6000819050919050565b60006158258261582c565b9050919050565b60006158378261583e565b9050919050565b6000615849826157f0565b9050919050565b82818337600083830152505050565b60005b8381101561587d578082015181840152602081019050615862565b8381111561588c576000848401525b50505050565bfe5b6000601f19601f8301169050919050565b6158ae816157c8565b81146158b957600080fd5b50565b6158c5816157da565b81146158d057600080fd5b50565b6158dc816157e6565b81146158e757600080fd5b50565b6158f381615810565b81146158fe57600080fd5b5056fea26469706673582212203fac66c59043c12a689970d7eb6f1cffd3ea0e20bda895763219df7ea639906964736f6c63430007060033a2646970667358221220aeedd4338d4c9bf2012882628b0b75462244597ab7d1cd83c4d4e457fbdf8b5464736f6c63430007060033608060405260405180604001604052806040518060400160405280600581526020017f4f776e657200000000000000000000000000000000000000000000000000000081525081526020016040518060400160405280600881526020017f50726f7669646572000000000000000000000000000000000000000000000000815250815250600490600262000095929190620004a7565b5060405162006c8638038062006c868339818101604052810190620000bb919062000708565b8181818160026004805480602002602001604051908101604052809291908181526020016000905b82821015620001a5578382906000526020600020018054600181600116156101000203166002900480601f016020809104026020016040519081016040528092919081815260200182805460018160011615610100020316600290048015620001905780601f10620001645761010080835404028352916020019162000190565b820191906000526020600020905b8154815290600101906020018083116200017257829003601f168201915b505050505081526020019060010190620000e3565b5050505060008451841115620001f2576040517f08c379a0000000000000000000000000000000000000000000000000000000008152600401620001e9906200084e565b60405180910390fd5b6000841162000238576040517f08c379a00000000000000000000000000000000000000000000000000000000081526004016200022f9062000892565b60405180910390fd5b815183146200027e576040517f08c379a0000000000000000000000000000000000000000000000000000000008152600401620002759062000870565b60405180910390fd5b8060008190555060005b838110156200030f576003600181600181540180825580915050039060005260206000209050506002838281518110620002be57fe5b6020026020010151908060018154018082558091505060019003906000526020600020016000909190919091509080519060200190620003009291906200050e565b50808060010191505062000288565b508360018190555060005b8551811015620004565760016003600054815481106200033657fe5b906000526020600020906002020160000160008884815181106200035657fe5b602002602001015173ffffffffffffffffffffffffffffffffffffffff1673ffffffffffffffffffffffffffffffffffffffff16815260200190815260200160002060000160006101000a81548160ff021916908315150217905550600360005481548110620003c257fe5b9060005260206000209060020201600101868281518110620003e057fe5b60200260200101519080600181540180825580915050600190039060005260206000200160009091909190916101000a81548173ffffffffffffffffffffffffffffffffffffffff021916908373ffffffffffffffffffffffffffffffffffffffff16021790555080806001019150506200031a565b505050505050505033600660006101000a81548173ffffffffffffffffffffffffffffffffffffffff021916908373ffffffffffffffffffffffffffffffffffffffff16021790555050506200099c565b828054828255906000526020600020908101928215620004fb579160200282015b82811115620004fa578251829080519060200190620004e99291906200050e565b5091602001919060010190620004c8565b5b5090506200050a9190620005a5565b5090565b828054600181600116156101000203166002900490600052602060002090601f01602090048101928262000546576000855562000592565b82601f106200056157805160ff191683800117855562000592565b8280016001018555821562000592579182015b828111156200059157825182559160200191906001019062000574565b5b509050620005a19190620005cd565b5090565b5b80821115620005c95760008181620005bf9190620005ec565b50600101620005a6565b5090565b5b80821115620005e8576000816000905550600101620005ce565b5090565b50805460018160011615610100020316600290046000825580601f1062000614575062000635565b601f016020900490600052602060002090810190620006349190620005cd565b5b50565b60006200064f6200064984620008e8565b620008b4565b905080838252602082019050828560208602820111156200066f57600080fd5b60005b85811015620006a35781620006888882620006ad565b84526020840193506020830192505060018101905062000672565b5050509392505050565b600081519050620006be8162000968565b92915050565b600082601f830112620006d657600080fd5b8151620006e884826020860162000638565b91505092915050565b600081519050620007028162000982565b92915050565b600080604083850312156200071c57600080fd5b600083015167ffffffffffffffff8111156200073757600080fd5b6200074585828601620006c4565b92505060206200075885828601620006f1565b9150509250929050565b600062000771603c8362000917565b91507f4e6f7420656e6f756768206f776e6572732070726f766964656420746f206d6560008301527f657420746865206d696e4f776e65727320726571756972656d656e74000000006020830152604082019050919050565b6000620007d9601d8362000917565b91507f4e6f7420656e6f756768206f7220746f6f206d616e79206c6162656c730000006000830152602082019050919050565b60006200081b60188362000917565b91507f4174206c656173742031206d696e696d756d206f776e657200000000000000006000830152602082019050919050565b60006020820190508181036000830152620008698162000762565b9050919050565b600060208201905081810360008301526200088b81620007ca565b9050919050565b60006020820190508181036000830152620008ad816200080c565b9050919050565b6000604051905081810181811067ffffffffffffffff82111715620008de57620008dd62000966565b5b8060405250919050565b600067ffffffffffffffff82111562000906576200090562000966565b5b602082029050602081019050919050565b600082825260208201905092915050565b600062000935826200093c565b9050919050565b600073ffffffffffffffffffffffffffffffffffffffff82169050919050565b6000819050919050565bfe5b620009738162000928565b81146200097f57600080fd5b50565b6200098d816200095c565b81146200099957600080fd5b50565b6162da80620009ac6000396000f3fe608060405234801561001057600080fd5b50600436106101425760003560e01c80636e55d2d4116100b8578063a73db28a1161007c578063a73db28a146103a9578063a93d5ed6146103c5578063d0a4adfe146103e3578063d744d2f314610413578063eefe768114610431578063fc0005001461044f57610142565b80636e55d2d4146102e157806377bc5a1f146103115780638a355a5714610341578063925979fd1461035d5780639fc104361461038d57610142565b80632f54bf6e1161010a5780632f54bf6e146101e75780633542758f14610217578063375834991461023357806358a1ba25146102635780636b074a07146102935780636e4f9179146102c357610142565b80631270db7a146101475780631660c22a14610177578063173825d9146101935780631ab807f8146101af57806327a40b4b146101cb575b600080fd5b610161600480360381019061015c9190615603565b61046b565b60405161016e9190616023565b60405180910390f35b610191600480360381019061018c91906156a2565b6105e8565b005b6101ad60048036038101906101a891906155da565b6105f8565b005b6101c960048036038101906101c4919061576e565b610607565b005b6101e560048036038101906101e091906155da565b6108bd565b005b61020160048036038101906101fc91906155da565b610b01565b60405161020e9190615e36565b60405180910390f35b610231600480360381019061022c91906156a2565b610b16565b005b61024d600480360381019061024891906155da565b610b27565b60405161025a9190615e51565b60405180910390f35b61027d600480360381019061027891906156f6565b610b3b565b60405161028a9190615e14565b60405180910390f35b6102ad60048036038101906102a891906155da565b610db2565b6040516102ba9190615e36565b60405180910390f35b6102cb610dc6565b6040516102d89190615df2565b60405180910390f35b6102fb60048036038101906102f691906155da565b610dd7565b6040516103089190616023565b60405180910390f35b61032b600480360381019061032691906155da565b610e26565b6040516103389190615e51565b60405180910390f35b61035b600480360381019061035691906155da565b610e3b565b005b6103776004803603810190610372919061563f565b611185565b6040516103849190615e14565b60405180910390f35b6103a760048036038101906103a291906156a2565b6114b8565b005b6103c360048036038101906103be919061576e565b6114c9565b005b6103cd6118ca565b6040516103da9190615df2565b60405180910390f35b6103fd60048036038101906103f8919061576e565b6118dc565b60405161040a9190615d85565b60405180910390f35b61041b61195a565b6040516104289190616023565b60405180910390f35b61043961196b565b6040516104469190616023565b60405180910390f35b610469600480360381019061046491906156a2565b61197d565b005b600080600560008473ffffffffffffffffffffffffffffffffffffffff1673ffffffffffffffffffffffffffffffffffffffff1681526020019081526020016000206001018054806020026020016040519081016040528092919081815260200182805480156104fa57602002820191906000526020600020905b8154815260200190600101908083116104e6575b505050505090506000805b82518110156105dc578573ffffffffffffffffffffffffffffffffffffffff16600560008773ffffffffffffffffffffffffffffffffffffffff1673ffffffffffffffffffffffffffffffffffffffff168152602001908152602001600020600001600085848151811061057557fe5b6020026020010151815260200190815260200160002060009054906101000a900473ffffffffffffffffffffffffffffffffffffffff1673ffffffffffffffffffffffffffffffffffffffff1614156105cf576001820191505b8080600101915050610505565b50809250505092915050565b6105f482826001611c1d565b5050565b61060481600054611e18565b50565b61061033610db2565b15156001151514610656576040517f08c379a000000000000000000000000000000000000000000000000000000000815260040161064d90615ea3565b60405180910390fd5b81602060ff1660001061069e576040517f08c379a000000000000000000000000000000000000000000000000000000000815260040161069590615fc3565b60405180910390fd5b8183600560008373ffffffffffffffffffffffffffffffffffffffff1673ffffffffffffffffffffffffffffffffffffffff168152602001908152602001600020600001600082815260200190815260200160002060009054906101000a900473ffffffffffffffffffffffffffffffffffffffff1673ffffffffffffffffffffffffffffffffffffffff16600073ffffffffffffffffffffffffffffffffffffffff1614610782576040517f08c379a000000000000000000000000000000000000000000000000000000000815260040161077990616003565b60405180910390fd5b33600560008673ffffffffffffffffffffffffffffffffffffffff1673ffffffffffffffffffffffffffffffffffffffff168152602001908152602001600020600001600087815260200190815260200160002060006101000a81548173ffffffffffffffffffffffffffffffffffffffff021916908373ffffffffffffffffffffffffffffffffffffffff160217905550600560008573ffffffffffffffffffffffffffffffffffffffff1673ffffffffffffffffffffffffffffffffffffffff1681526020019081526020016000206001018590806001815401808255809150506001900390600052602060002001600090919091909150557f601cb9a073dbfa468ef12878ee6c720641a49b76af7c16099e8c0a1ac3ca79b533856040516108ae929190615da0565b60405180910390a15050505050565b60018181151560001515141561096557600760008273ffffffffffffffffffffffffffffffffffffffff1673ffffffffffffffffffffffffffffffffffffffff16815260200190815260200160002060009054906101000a900460ff1615156000151514610960576040517f08c379a000000000000000000000000000000000000000000000000000000000815260040161095790615fe3565b60405180910390fd5b6109f9565b600760008273ffffffffffffffffffffffffffffffffffffffff1673ffffffffffffffffffffffffffffffffffffffff16815260200190815260200160002060009054906101000a900460ff16151560011515146109f8576040517f08c379a00000000000000000000000000000000000000000000000000000000081526004016109ef90615ee3565b60405180910390fd5b5b610afc836003600181548110610a0b57fe5b906000526020600020906002020160000160008673ffffffffffffffffffffffffffffffffffffffff1673ffffffffffffffffffffffffffffffffffffffff1681526020019081526020016000206001018054600181600116156101000203166002900480601f016020809104026020016040519081016040528092919081815260200182805460018160011615610100020316600290048015610af05780601f10610ac557610100808354040283529160200191610af0565b820191906000526020600020905b815481529060010190602001808311610ad357829003601f168201915b505050505060016122dd565b505050565b6000610b0f8260005461276c565b9050919050565b610b2382826000546122dd565b5050565b6060610b34826001612b2d565b9050919050565b606082600560008673ffffffffffffffffffffffffffffffffffffffff1673ffffffffffffffffffffffffffffffffffffffff1681526020019081526020016000206001018054905073__Library_______________________________632477a0ea83836040518363ffffffff1660e01b8152600401610bbd92919061603e565b60206040518083038186803b158015610bd557600080fd5b505af4158015610be9573d6000803e3d6000fd5b505050506040513d601f19601f82011682018060405250810190610c0d9190615745565b15156001151514610c53576040517f08c379a0000000000000000000000000000000000000000000000000000000008152600401610c4a90615ec3565b60405180910390fd5b60008467ffffffffffffffff81118015610c6c57600080fd5b50604051908082528060200260200182016040528015610c9b5781602001602082028036833780820191505090505b5090506000600560008973ffffffffffffffffffffffffffffffffffffffff1673ffffffffffffffffffffffffffffffffffffffff168152602001908152602001600020600101805480602002602001604051908101604052809291908181526020018280548015610d2c57602002820191906000526020600020905b815481526020019060010190808311610d18575b5050505050905060008060005b8351811015610da157888310610d4e57610da1565b818a1115610d6157600182019150610d94565b838181518110610d6d57fe5b6020026020010151858481518110610d8157fe5b6020026020010181815250506001830192505b8080600101915050610d39565b508396505050505050509392505050565b6000610dbf82600161276c565b9050919050565b6060610dd26001612c33565b905090565b6000600560008373ffffffffffffffffffffffffffffffffffffffff1673ffffffffffffffffffffffffffffffffffffffff168152602001908152602001600020600101805490509050919050565b6060610e3482600054612b2d565b9050919050565b610e46816001611e18565b6111266003600181548110610e5757fe5b906000526020600020906002020160000160008373ffffffffffffffffffffffffffffffffffffffff1673ffffffffffffffffffffffffffffffffffffffff1681526020019081526020016000206040518060c00160405290816000820160009054906101000a900460ff16151515158152602001600182018054600181600116156101000203166002900480601f016020809104026020016040519081016040528092919081815260200182805460018160011615610100020316600290048015610f645780601f10610f3957610100808354040283529160200191610f64565b820191906000526020600020905b815481529060010190602001808311610f4757829003601f168201915b505050505081526020016002820154815260200160038201805480602002602001604051908101604052809291908181526020018280548015610ffc57602002820191906000526020600020905b8160009054906101000a900473ffffffffffffffffffffffffffffffffffffffff1673ffffffffffffffffffffffffffffffffffffffff1681526020019060010190808311610fb2575b505050505081526020016004820180548060200260200160405190810160405280929190818152602001828054801561108a57602002820191906000526020600020905b8160009054906101000a900473ffffffffffffffffffffffffffffffffffffffff1673ffffffffffffffffffffffffffffffffffffffff1681526020019060010190808311611040575b505050505081526020016005820180548060200260200160405190810160405280929190818152602001828054801561111857602002820191906000526020600020905b8160009054906101000a900473ffffffffffffffffffffffffffffffffffffffff1673ffffffffffffffffffffffffffffffffffffffff16815260200190600101908083116110ce575b505050505081525050612d37565b151560001515141561118257600760008273ffffffffffffffffffffffffffffffffffffffff1673ffffffffffffffffffffffffffffffffffffffff16815260200190815260200160002060006101000a81549060ff02191690555b50565b606082600560008673ffffffffffffffffffffffffffffffffffffffff1673ffffffffffffffffffffffffffffffffffffffff1681526020019081526020016000206001018054905073__Library_______________________________632477a0ea83836040518363ffffffff1660e01b815260040161120792919061603e565b60206040518083038186803b15801561121f57600080fd5b505af4158015611233573d6000803e3d6000fd5b505050506040513d601f19601f820116820180604052508101906112579190615745565b1515600115151461129d576040517f08c379a000000000000000000000000000000000000000000000000000000000815260040161129490615ec3565b60405180910390fd5b60008467ffffffffffffffff811180156112b657600080fd5b506040519080825280602002602001820160405280156112e55781602001602082028036833780820191505090505b5090506000600560008973ffffffffffffffffffffffffffffffffffffffff1673ffffffffffffffffffffffffffffffffffffffff16815260200190815260200160002060010180548060200260200160405190810160405280929190818152602001828054801561137657602002820191906000526020600020905b815481526020019060010190808311611362575b5050505050905060008060005b83518110156114a657888310611398576114a6565b8b73ffffffffffffffffffffffffffffffffffffffff16600560008d73ffffffffffffffffffffffffffffffffffffffff1673ffffffffffffffffffffffffffffffffffffffff16815260200190815260200160002060000160008684815181106113ff57fe5b6020026020010151815260200190815260200160002060009054906101000a900473ffffffffffffffffffffffffffffffffffffffff1673ffffffffffffffffffffffffffffffffffffffff16141561149957818a111561146557600182019150611498565b83818151811061147157fe5b602002602001015185848151811061148557fe5b6020026020010181815250506001830192505b5b8080600101915050611383565b50839650505050505050949350505050565b6114c58282600054611c1d565b5050565b6114d233610db2565b15156001151514611518576040517f08c379a000000000000000000000000000000000000000000000000000000000815260040161150f90615ea3565b60405180910390fd5b8082600560008373ffffffffffffffffffffffffffffffffffffffff1673ffffffffffffffffffffffffffffffffffffffff168152602001908152602001600020600001600082815260200190815260200160002060009054906101000a900473ffffffffffffffffffffffffffffffffffffffff1673ffffffffffffffffffffffffffffffffffffffff163373ffffffffffffffffffffffffffffffffffffffff1614806115f257508173ffffffffffffffffffffffffffffffffffffffff163373ffffffffffffffffffffffffffffffffffffffff16145b611631576040517f08c379a000000000000000000000000000000000000000000000000000000000815260040161162890615fa3565b60405180910390fd5b6000600560008573ffffffffffffffffffffffffffffffffffffffff1673ffffffffffffffffffffffffffffffffffffffff168152602001908152602001600020600001600086815260200190815260200160002060009054906101000a900473ffffffffffffffffffffffffffffffffffffffff1690506000600560008673ffffffffffffffffffffffffffffffffffffffff1673ffffffffffffffffffffffffffffffffffffffff16815260200190815260200160002060010180548060200260200160405190810160405280929190818152602001828054801561173757602002820191906000526020600020905b815481526020019060010190808311611723575b5050505050905060005b81518110156118125781818151811061175657fe5b6020026020010151871415611805576117ff81600560008973ffffffffffffffffffffffffffffffffffffffff1673ffffffffffffffffffffffffffffffffffffffff1681526020019081526020016000206001018054806020026020016040519081016040528092919081815260200182805480156117f557602002820191906000526020600020905b8154815260200190600101908083116117e1575b5050505050612d45565b50611812565b8080600101915050611741565b50600560008673ffffffffffffffffffffffffffffffffffffffff1673ffffffffffffffffffffffffffffffffffffffff168152602001908152602001600020600001600087815260200190815260200160002060006101000a81549073ffffffffffffffffffffffffffffffffffffffff02191690557fd12847594abf0621035046f61129f2a9dc5093eb516c6c517ece306362ef6f1782866040516118ba929190615dc9565b60405180910390a1505050505050565b60606118d7600054612c33565b905090565b6000600560008373ffffffffffffffffffffffffffffffffffffffff1673ffffffffffffffffffffffffffffffffffffffff168152602001908152602001600020600001600084815260200190815260200160002060009054906101000a900473ffffffffffffffffffffffffffffffffffffffff16905092915050565b60006119666001612e92565b905090565b6000611978600054612e92565b905090565b600660009054906101000a900473ffffffffffffffffffffffffffffffffffffffff168073ffffffffffffffffffffffffffffffffffffffff163373ffffffffffffffffffffffffffffffffffffffff1614611a0e576040517f08c379a0000000000000000000000000000000000000000000000000000000008152600401611a0590615f83565b60405180910390fd5b600083811515600015151415611ab657600760008273ffffffffffffffffffffffffffffffffffffffff1673ffffffffffffffffffffffffffffffffffffffff16815260200190815260200160002060009054906101000a900460ff1615156000151514611ab1576040517f08c379a0000000000000000000000000000000000000000000000000000000008152600401611aa890615fe3565b60405180910390fd5b611b4a565b600760008273ffffffffffffffffffffffffffffffffffffffff1673ffffffffffffffffffffffffffffffffffffffff16815260200190815260200160002060009054906101000a900460ff1615156001151514611b49576040517f08c379a0000000000000000000000000000000000000000000000000000000008152600401611b4090615ee3565b60405180910390fd5b5b836003600181548110611b5957fe5b906000526020600020906002020160000160008773ffffffffffffffffffffffffffffffffffffffff1673ffffffffffffffffffffffffffffffffffffffff1681526020019081526020016000206001019080519060200190611bbd92919061540a565b506001600760008773ffffffffffffffffffffffffffffffffffffffff1673ffffffffffffffffffffffffffffffffffffffff16815260200190815260200160002060006101000a81548160ff0219169083151502179055505050505050565b8060038054905073__Library_______________________________632477a0ea83836040518363ffffffff1660e01b8152600401611c5d92919061603e565b60206040518083038186803b158015611c7557600080fd5b505af4158015611c89573d6000803e3d6000fd5b505050506040513d601f19601f82011682018060405250810190611cad9190615745565b15156001151514611cf3576040517f08c379a0000000000000000000000000000000000000000000000000000000008152600401611cea90615ec3565b60405180910390fd5b611cfc33610b01565b15156001151514611d42576040517f08c379a0000000000000000000000000000000000000000000000000000000008152600401611d3990615f43565b60405180910390fd5b6000611d688660038681548110611d5557fe5b9060005260206000209060020201612f96565b9050611d92868660038781548110611d7c57fe5b90600052602060002090600202016001546132b0565b60018101611dba8760038781548110611da757fe5b9060005260206000209060020201612f96565b1415611e10577fddf8a9c2d29b02b191b0a29b7a0f698bfd4655230a23853e2af123ab0b1188d760028581548110611dee57fe5b9060005260206000200187604051611e07929190615e73565b60405180910390a15b505050505050565b8060038054905073__Library_______________________________632477a0ea83836040518363ffffffff1660e01b8152600401611e5892919061603e565b60206040518083038186803b158015611e7057600080fd5b505af4158015611e84573d6000803e3d6000fd5b505050506040513d601f19601f82011682018060405250810190611ea89190615745565b15156001151514611eee576040517f08c379a0000000000000000000000000000000000000000000000000000000008152600401611ee590615ec3565b60405180910390fd5b83611ef833610b01565b1515600115151480611f3557508073ffffffffffffffffffffffffffffffffffffffff163373ffffffffffffffffffffffffffffffffffffffff16145b611f74576040517f08c379a0000000000000000000000000000000000000000000000000000000008152600401611f6b90615f03565b60405180910390fd5b611f9b8560038681548110611f8557fe5b9060005260206000209060020201600154613a44565b61227a60038581548110611fab57fe5b906000526020600020906002020160000160008773ffffffffffffffffffffffffffffffffffffffff1673ffffffffffffffffffffffffffffffffffffffff1681526020019081526020016000206040518060c00160405290816000820160009054906101000a900460ff16151515158152602001600182018054600181600116156101000203166002900480601f0160208091040260200160405190810160405280929190818152602001828054600181600116156101000203166002900480156120b85780601f1061208d576101008083540402835291602001916120b8565b820191906000526020600020905b81548152906001019060200180831161209b57829003601f168201915b50505050508152602001600282015481526020016003820180548060200260200160405190810160405280929190818152602001828054801561215057602002820191906000526020600020905b8160009054906101000a900473ffffffffffffffffffffffffffffffffffffffff1673ffffffffffffffffffffffffffffffffffffffff1681526020019060010190808311612106575b50505050508152602001600482018054806020026020016040519081016040528092919081815260200182805480156121de57602002820191906000526020600020905b8160009054906101000a900473ffffffffffffffffffffffffffffffffffffffff1673ffffffffffffffffffffffffffffffffffffffff1681526020019060010190808311612194575b505050505081526020016005820180548060200260200160405190810160405280929190818152602001828054801561226c57602002820191906000526020600020905b8160009054906101000a900473ffffffffffffffffffffffffffffffffffffffff1673ffffffffffffffffffffffffffffffffffffffff1681526020019060010190808311612222575b505050505081525050612d37565b15156000151514156122d6577f1f62d535f971041db7bd8760bf0f1f9f476461558744a35c0d477b5ad6893e89600285815481106122b457fe5b90600052602060002001866040516122cd929190615e73565b60405180910390a15b5050505050565b8060038054905073__Library_______________________________632477a0ea83836040518363ffffffff1660e01b815260040161231d92919061603e565b60206040518083038186803b15801561233557600080fd5b505af4158015612349573d6000803e3d6000fd5b505050506040513d601f19601f8201168201806040525081019061236d9190615745565b151560011515146123b3576040517f08c379a00000000000000000000000000000000000000000000000000000000081526004016123aa90615ec3565b60405180910390fd5b6123bc33610b01565b15156001151514612402576040517f08c379a00000000000000000000000000000000000000000000000000000000081526004016123f990615f43565b60405180910390fd5b61242a85856003868154811061241457fe5b90600052602060002090600202016001546142d5565b6127096003848154811061243a57fe5b906000526020600020906002020160000160008773ffffffffffffffffffffffffffffffffffffffff1673ffffffffffffffffffffffffffffffffffffffff1681526020019081526020016000206040518060c00160405290816000820160009054906101000a900460ff16151515158152602001600182018054600181600116156101000203166002900480601f0160208091040260200160405190810160405280929190818152602001828054600181600116156101000203166002900480156125475780601f1061251c57610100808354040283529160200191612547565b820191906000526020600020905b81548152906001019060200180831161252a57829003601f168201915b5050505050815260200160028201548152602001600382018054806020026020016040519081016040528092919081815260200182805480156125df57602002820191906000526020600020905b8160009054906101000a900473ffffffffffffffffffffffffffffffffffffffff1673ffffffffffffffffffffffffffffffffffffffff1681526020019060010190808311612595575b505050505081526020016004820180548060200260200160405190810160405280929190818152602001828054801561266d57602002820191906000526020600020905b8160009054906101000a900473ffffffffffffffffffffffffffffffffffffffff1673ffffffffffffffffffffffffffffffffffffffff1681526020019060010190808311612623575b50505050508152602001600582018054806020026020016040519081016040528092919081815260200182805480156126fb57602002820191906000526020600020905b8160009054906101000a900473ffffffffffffffffffffffffffffffffffffffff1673ffffffffffffffffffffffffffffffffffffffff16815260200190600101908083116126b1575b505050505081525050612d37565b1515600115151415612765577f3c139d46a211844e248647688545a37c07c505c999c1232d1247c707dc0a91e26002848154811061274357fe5b906000526020600020018660405161275c929190615e73565b60405180910390a15b5050505050565b60008160038054905073__Library_______________________________632477a0ea83836040518363ffffffff1660e01b81526004016127ae92919061603e565b60206040518083038186803b1580156127c657600080fd5b505af41580156127da573d6000803e3d6000fd5b505050506040513d601f19601f820116820180604052508101906127fe9190615745565b15156001151514612844576040517f08c379a000000000000000000000000000000000000000000000000000000000815260040161283b90615ec3565b60405180910390fd5b612b236003858154811061285457fe5b906000526020600020906002020160000160008773ffffffffffffffffffffffffffffffffffffffff1673ffffffffffffffffffffffffffffffffffffffff1681526020019081526020016000206040518060c00160405290816000820160009054906101000a900460ff16151515158152602001600182018054600181600116156101000203166002900480601f0160208091040260200160405190810160405280929190818152602001828054600181600116156101000203166002900480156129615780601f1061293657610100808354040283529160200191612961565b820191906000526020600020905b81548152906001019060200180831161294457829003601f168201915b5050505050815260200160028201548152602001600382018054806020026020016040519081016040528092919081815260200182805480156129f957602002820191906000526020600020905b8160009054906101000a900473ffffffffffffffffffffffffffffffffffffffff1673ffffffffffffffffffffffffffffffffffffffff16815260200190600101908083116129af575b5050505050815260200160048201805480602002602001604051908101604052809291908181526020018280548015612a8757602002820191906000526020600020905b8160009054906101000a900473ffffffffffffffffffffffffffffffffffffffff1673ffffffffffffffffffffffffffffffffffffffff1681526020019060010190808311612a3d575b5050505050815260200160058201805480602002602001604051908101604052809291908181526020018280548015612b1557602002820191906000526020600020905b8160009054906101000a900473ffffffffffffffffffffffffffffffffffffffff1673ffffffffffffffffffffffffffffffffffffffff1681526020019060010190808311612acb575b505050505081525050612d37565b9250505092915050565b60608160038054905073__Library_______________________________632477a0ea83836040518363ffffffff1660e01b8152600401612b6f92919061603e565b60206040518083038186803b158015612b8757600080fd5b505af4158015612b9b573d6000803e3d6000fd5b505050506040513d601f19601f82011682018060405250810190612bbf9190615745565b15156001151514612c05576040517f08c379a0000000000000000000000000000000000000000000000000000000008152600401612bfc90615ec3565b60405180910390fd5b612c298560038681548110612c1657fe5b9060005260206000209060020201614b3d565b9250505092915050565b60608160038054905073__Library_______________________________632477a0ea83836040518363ffffffff1660e01b8152600401612c7592919061603e565b60206040518083038186803b158015612c8d57600080fd5b505af4158015612ca1573d6000803e3d6000fd5b505050506040513d601f19601f82011682018060405250810190612cc59190615745565b15156001151514612d0b576040517f08c379a0000000000000000000000000000000000000000000000000000000008152600401612d0290615ec3565b60405180910390fd5b612d2e60038581548110612d1b57fe5b9060005260206000209060020201614eef565b92505050919050565b600081600001519050919050565b606082825173__Library_______________________________632477a0ea83836040518363ffffffff1660e01b8152600401612d8392919061603e565b60206040518083038186803b158015612d9b57600080fd5b505af4158015612daf573d6000803e3d6000fd5b505050506040513d601f19601f82011682018060405250810190612dd39190615745565b15156001151514612e19576040517f08c379a0000000000000000000000000000000000000000000000000000000008152600401612e1090615ec3565b60405180910390fd5b60008590505b6001855103811015612e6757846001820181518110612e3a57fe5b6020026020010151858281518110612e4e57fe5b6020026020010181815250508080600101915050612e1f565b5083600185510381518110612e7857fe5b602002602001016000801916815250839250505092915050565b60008160038054905073__Library_______________________________632477a0ea83836040518363ffffffff1660e01b8152600401612ed492919061603e565b60206040518083038186803b158015612eec57600080fd5b505af4158015612f00573d6000803e3d6000fd5b505050506040513d601f19601f82011682018060405250810190612f249190615745565b15156001151514612f6a576040517f08c379a0000000000000000000000000000000000000000000000000000000008152600401612f6190615ec3565b60405180910390fd5b612f8d60038581548110612f7a57fe5b9060005260206000209060020201614f81565b92505050919050565b600060018260000160008573ffffffffffffffffffffffffffffffffffffffff1673ffffffffffffffffffffffffffffffffffffffff1681526020019081526020016000206040518060c00160405290816000820160009054906101000a900460ff16151515158152602001600182018054600181600116156101000203166002900480601f01602080910402602001604051908101604052809291908181526020018280546001816001161561010002031660029004801561309a5780601f1061306f5761010080835404028352916020019161309a565b820191906000526020600020905b81548152906001019060200180831161307d57829003601f168201915b50505050508152602001600282015481526020016003820180548060200260200160405190810160405280929190818152602001828054801561313257602002820191906000526020600020905b8160009054906101000a900473ffffffffffffffffffffffffffffffffffffffff1673ffffffffffffffffffffffffffffffffffffffff16815260200190600101908083116130e8575b50505050508152602001600482018054806020026020016040519081016040528092919081815260200182805480156131c057602002820191906000526020600020905b8160009054906101000a900473ffffffffffffffffffffffffffffffffffffffff1673ffffffffffffffffffffffffffffffffffffffff1681526020019060010190808311613176575b505050505081526020016005820180548060200260200160405190810160405280929190818152602001828054801561324e57602002820191906000526020600020905b8160009054906101000a900473ffffffffffffffffffffffffffffffffffffffff1673ffffffffffffffffffffffffffffffffffffffff1681526020019060010190808311613204575b5050505050815250506132618282614f92565b8360000160008673ffffffffffffffffffffffffffffffffffffffff1673ffffffffffffffffffffffffffffffffffffffff168152602001908152602001600020600201549250505092915050565b60018260000160008673ffffffffffffffffffffffffffffffffffffffff1673ffffffffffffffffffffffffffffffffffffffff1681526020019081526020016000206040518060c00160405290816000820160009054906101000a900460ff16151515158152602001600182018054600181600116156101000203166002900480601f0160208091040260200160405190810160405280929190818152602001828054600181600116156101000203166002900480156133b25780601f10613387576101008083540402835291602001916133b2565b820191906000526020600020905b81548152906001019060200180831161339557829003601f168201915b50505050508152602001600282015481526020016003820180548060200260200160405190810160405280929190818152602001828054801561344a57602002820191906000526020600020905b8160009054906101000a900473ffffffffffffffffffffffffffffffffffffffff1673ffffffffffffffffffffffffffffffffffffffff1681526020019060010190808311613400575b50505050508152602001600482018054806020026020016040519081016040528092919081815260200182805480156134d857602002820191906000526020600020905b8160009054906101000a900473ffffffffffffffffffffffffffffffffffffffff1673ffffffffffffffffffffffffffffffffffffffff168152602001906001019080831161348e575b505050505081526020016005820180548060200260200160405190810160405280929190818152602001828054801561356657602002820191906000526020600020905b8160009054906101000a900473ffffffffffffffffffffffffffffffffffffffff1673ffffffffffffffffffffffffffffffffffffffff168152602001906001019080831161351c575b5050505050815250506135798282614f92565b60018460000160008873ffffffffffffffffffffffffffffffffffffffff1673ffffffffffffffffffffffffffffffffffffffff1681526020019081526020016000206040518060c00160405290816000820160009054906101000a900460ff16151515158152602001600182018054600181600116156101000203166002900480601f01602080910402602001604051908101604052809291908181526020018280546001816001161561010002031660029004801561367b5780601f106136505761010080835404028352916020019161367b565b820191906000526020600020905b81548152906001019060200180831161365e57829003601f168201915b50505050508152602001600282015481526020016003820180548060200260200160405190810160405280929190818152602001828054801561371357602002820191906000526020600020905b8160009054906101000a900473ffffffffffffffffffffffffffffffffffffffff1673ffffffffffffffffffffffffffffffffffffffff16815260200190600101908083116136c9575b50505050508152602001600482018054806020026020016040519081016040528092919081815260200182805480156137a157602002820191906000526020600020905b8160009054906101000a900473ffffffffffffffffffffffffffffffffffffffff1673ffffffffffffffffffffffffffffffffffffffff1681526020019060010190808311613757575b505050505081526020016005820180548060200260200160405190810160405280929190818152602001828054801561382f57602002820191906000526020600020905b8160009054906101000a900473ffffffffffffffffffffffffffffffffffffffff1673ffffffffffffffffffffffffffffffffffffffff16815260200190600101908083116137e5575b5050505050815250506138428282615047565b8560000160008973ffffffffffffffffffffffffffffffffffffffff1673ffffffffffffffffffffffffffffffffffffffff168152602001908152602001600020600501339080600181540180825580915050600190039060005260206000200160009091909190916101000a81548173ffffffffffffffffffffffffffffffffffffffff021916908373ffffffffffffffffffffffffffffffffffffffff1602179055506139388660000160008a73ffffffffffffffffffffffffffffffffffffffff1673ffffffffffffffffffffffffffffffffffffffff16815260200190815260200160002060050180549050866151d8565b15613a3a57868660000160008a73ffffffffffffffffffffffffffffffffffffffff1673ffffffffffffffffffffffffffffffffffffffff168152602001908152602001600020600101908051906020019061399592919061540a565b5060018660000160008a73ffffffffffffffffffffffffffffffffffffffff1673ffffffffffffffffffffffffffffffffffffffff168152602001908152602001600020600201600082825401925050819055508560000160008973ffffffffffffffffffffffffffffffffffffffff1673ffffffffffffffffffffffffffffffffffffffff1681526020019081526020016000206005016000613a399190615498565b5b5050505050505050565b60018260000160008573ffffffffffffffffffffffffffffffffffffffff1673ffffffffffffffffffffffffffffffffffffffff1681526020019081526020016000206040518060c00160405290816000820160009054906101000a900460ff16151515158152602001600182018054600181600116156101000203166002900480601f016020809104026020016040519081016040528092919081815260200182805460018160011615610100020316600290048015613b465780601f10613b1b57610100808354040283529160200191613b46565b820191906000526020600020905b815481529060010190602001808311613b2957829003601f168201915b505050505081526020016002820154815260200160038201805480602002602001604051908101604052809291908181526020018280548015613bde57602002820191906000526020600020905b8160009054906101000a900473ffffffffffffffffffffffffffffffffffffffff1673ffffffffffffffffffffffffffffffffffffffff1681526020019060010190808311613b94575b5050505050815260200160048201805480602002602001604051908101604052809291908181526020018280548015613c6c57602002820191906000526020600020905b8160009054906101000a900473ffffffffffffffffffffffffffffffffffffffff1673ffffffffffffffffffffffffffffffffffffffff1681526020019060010190808311613c22575b5050505050815260200160058201805480602002602001604051908101604052809291908181526020018280548015613cfa57602002820191906000526020600020905b8160009054906101000a900473ffffffffffffffffffffffffffffffffffffffff1673ffffffffffffffffffffffffffffffffffffffff1681526020019060010190808311613cb0575b505050505081525050613d0d8282614f92565b60028460000160008773ffffffffffffffffffffffffffffffffffffffff1673ffffffffffffffffffffffffffffffffffffffff1681526020019081526020016000206040518060c00160405290816000820160009054906101000a900460ff16151515158152602001600182018054600181600116156101000203166002900480601f016020809104026020016040519081016040528092919081815260200182805460018160011615610100020316600290048015613e0f5780601f10613de457610100808354040283529160200191613e0f565b820191906000526020600020905b815481529060010190602001808311613df257829003601f168201915b505050505081526020016002820154815260200160038201805480602002602001604051908101604052809291908181526020018280548015613ea757602002820191906000526020600020905b8160009054906101000a900473ffffffffffffffffffffffffffffffffffffffff1673ffffffffffffffffffffffffffffffffffffffff1681526020019060010190808311613e5d575b5050505050815260200160048201805480602002602001604051908101604052809291908181526020018280548015613f3557602002820191906000526020600020905b8160009054906101000a900473ffffffffffffffffffffffffffffffffffffffff1673ffffffffffffffffffffffffffffffffffffffff1681526020019060010190808311613eeb575b5050505050815260200160058201805480602002602001604051908101604052809291908181526020018280548015613fc357602002820191906000526020600020905b8160009054906101000a900473ffffffffffffffffffffffffffffffffffffffff1673ffffffffffffffffffffffffffffffffffffffff1681526020019060010190808311613f79575b505050505081525050613fd68282615047565b8560000160008873ffffffffffffffffffffffffffffffffffffffff1673ffffffffffffffffffffffffffffffffffffffff168152602001908152602001600020600401339080600181540180825580915050600190039060005260206000200160009091909190916101000a81548173ffffffffffffffffffffffffffffffffffffffff021916908373ffffffffffffffffffffffffffffffffffffffff1602179055508673ffffffffffffffffffffffffffffffffffffffff163373ffffffffffffffffffffffffffffffffffffffff16148061410257506141018660000160008973ffffffffffffffffffffffffffffffffffffffff1673ffffffffffffffffffffffffffffffffffffffff16815260200190815260200160002060040180549050866151d8565b5b156142cc5761422a61419c888860010180548060200260200160405190810160405280929190818152602001828054801561419257602002820191906000526020600020905b8160009054906101000a900473ffffffffffffffffffffffffffffffffffffffff1673ffffffffffffffffffffffffffffffffffffffff1681526020019060010190808311614148575b50505050506151f6565b8760010180548060200260200160405190810160405280929190818152602001828054801561422057602002820191906000526020600020905b8160009054906101000a900473ffffffffffffffffffffffffffffffffffffffff1673ffffffffffffffffffffffffffffffffffffffff16815260200190600101908083116141d6575b5050505050615273565b508560000160008873ffffffffffffffffffffffffffffffffffffffff1673ffffffffffffffffffffffffffffffffffffffff168152602001908152602001600020600080820160006101000a81549060ff021916905560018201600061429191906154b9565b60028201600090556003820160006142a99190615498565b6004820160006142b99190615498565b6005820160006142c99190615498565b50505b50505050505050565b60008260000160008673ffffffffffffffffffffffffffffffffffffffff1673ffffffffffffffffffffffffffffffffffffffff1681526020019081526020016000206040518060c00160405290816000820160009054906101000a900460ff16151515158152602001600182018054600181600116156101000203166002900480601f0160208091040260200160405190810160405280929190818152602001828054600181600116156101000203166002900480156143d75780601f106143ac576101008083540402835291602001916143d7565b820191906000526020600020905b8154815290600101906020018083116143ba57829003601f168201915b50505050508152602001600282015481526020016003820180548060200260200160405190810160405280929190818152602001828054801561446f57602002820191906000526020600020905b8160009054906101000a900473ffffffffffffffffffffffffffffffffffffffff1673ffffffffffffffffffffffffffffffffffffffff1681526020019060010190808311614425575b50505050508152602001600482018054806020026020016040519081016040528092919081815260200182805480156144fd57602002820191906000526020600020905b8160009054906101000a900473ffffffffffffffffffffffffffffffffffffffff1673ffffffffffffffffffffffffffffffffffffffff16815260200190600101908083116144b3575b505050505081526020016005820180548060200260200160405190810160405280929190818152602001828054801561458b57602002820191906000526020600020905b8160009054906101000a900473ffffffffffffffffffffffffffffffffffffffff1673ffffffffffffffffffffffffffffffffffffffff1681526020019060010190808311614541575b50505050508152505061459e8282614f92565b60008460000160008873ffffffffffffffffffffffffffffffffffffffff1673ffffffffffffffffffffffffffffffffffffffff1681526020019081526020016000206040518060c00160405290816000820160009054906101000a900460ff16151515158152602001600182018054600181600116156101000203166002900480601f0160208091040260200160405190810160405280929190818152602001828054600181600116156101000203166002900480156146a05780601f10614675576101008083540402835291602001916146a0565b820191906000526020600020905b81548152906001019060200180831161468357829003601f168201915b50505050508152602001600282015481526020016003820180548060200260200160405190810160405280929190818152602001828054801561473857602002820191906000526020600020905b8160009054906101000a900473ffffffffffffffffffffffffffffffffffffffff1673ffffffffffffffffffffffffffffffffffffffff16815260200190600101908083116146ee575b50505050508152602001600482018054806020026020016040519081016040528092919081815260200182805480156147c657602002820191906000526020600020905b8160009054906101000a900473ffffffffffffffffffffffffffffffffffffffff1673ffffffffffffffffffffffffffffffffffffffff168152602001906001019080831161477c575b505050505081526020016005820180548060200260200160405190810160405280929190818152602001828054801561485457602002820191906000526020600020905b8160009054906101000a900473ffffffffffffffffffffffffffffffffffffffff1673ffffffffffffffffffffffffffffffffffffffff168152602001906001019080831161480a575b5050505050815250506148678282615047565b8560000160008973ffffffffffffffffffffffffffffffffffffffff1673ffffffffffffffffffffffffffffffffffffffff16815260200190815260200160002060030180549050600014801561491657508560000160008973ffffffffffffffffffffffffffffffffffffffff1673ffffffffffffffffffffffffffffffffffffffff1681526020019081526020016000206001018054600181600116156101000203166002900490506000145b1561497557868660000160008a73ffffffffffffffffffffffffffffffffffffffff1673ffffffffffffffffffffffffffffffffffffffff168152602001908152602001600020600101908051906020019061497392919061540a565b505b8560000160008973ffffffffffffffffffffffffffffffffffffffff1673ffffffffffffffffffffffffffffffffffffffff168152602001908152602001600020600301339080600181540180825580915050600190039060005260206000200160009091909190916101000a81548173ffffffffffffffffffffffffffffffffffffffff021916908373ffffffffffffffffffffffffffffffffffffffff160217905550614a6b8660000160008a73ffffffffffffffffffffffffffffffffffffffff1673ffffffffffffffffffffffffffffffffffffffff16815260200190815260200160002060030180549050866151d8565b15614b335760018660000160008a73ffffffffffffffffffffffffffffffffffffffff1673ffffffffffffffffffffffffffffffffffffffff16815260200190815260200160002060000160006101000a81548160ff02191690831515021790555085600101889080600181540180825580915050600190039060005260206000200160009091909190916101000a81548173ffffffffffffffffffffffffffffffffffffffff021916908373ffffffffffffffffffffffffffffffffffffffff1602179055505b5050505050505050565b606060018260000160008573ffffffffffffffffffffffffffffffffffffffff1673ffffffffffffffffffffffffffffffffffffffff1681526020019081526020016000206040518060c00160405290816000820160009054906101000a900460ff16151515158152602001600182018054600181600116156101000203166002900480601f016020809104026020016040519081016040528092919081815260200182805460018160011615610100020316600290048015614c415780601f10614c1657610100808354040283529160200191614c41565b820191906000526020600020905b815481529060010190602001808311614c2457829003601f168201915b505050505081526020016002820154815260200160038201805480602002602001604051908101604052809291908181526020018280548015614cd957602002820191906000526020600020905b8160009054906101000a900473ffffffffffffffffffffffffffffffffffffffff1673ffffffffffffffffffffffffffffffffffffffff1681526020019060010190808311614c8f575b5050505050815260200160048201805480602002602001604051908101604052809291908181526020018280548015614d6757602002820191906000526020600020905b8160009054906101000a900473ffffffffffffffffffffffffffffffffffffffff1673ffffffffffffffffffffffffffffffffffffffff1681526020019060010190808311614d1d575b5050505050815260200160058201805480602002602001604051908101604052809291908181526020018280548015614df557602002820191906000526020600020905b8160009054906101000a900473ffffffffffffffffffffffffffffffffffffffff1673ffffffffffffffffffffffffffffffffffffffff1681526020019060010190808311614dab575b505050505081525050614e088282614f92565b8360000160008673ffffffffffffffffffffffffffffffffffffffff1673ffffffffffffffffffffffffffffffffffffffff1681526020019081526020016000206001018054600181600116156101000203166002900480601f016020809104026020016040519081016040528092919081815260200182805460018160011615610100020316600290048015614ee05780601f10614eb557610100808354040283529160200191614ee0565b820191906000526020600020905b815481529060010190602001808311614ec357829003601f168201915b50505050509250505092915050565b606081600101805480602002602001604051908101604052809291908181526020018280548015614f7557602002820191906000526020600020905b8160009054906101000a900473ffffffffffffffffffffffffffffffffffffffff1673ffffffffffffffffffffffffffffffffffffffff1681526020019060010190808311614f2b575b50505050509050919050565b600081600101805490509050919050565b811515600015151415614ff357614fa881612d37565b15156000151514614fee576040517f08c379a0000000000000000000000000000000000000000000000000000000008152600401614fe590615f63565b60405180910390fd5b615043565b614ffc81612d37565b15156001151514615042576040517f08c379a000000000000000000000000000000000000000000000000000000000815260040161503990615f23565b60405180910390fd5b5b5050565b60006040518060400160405280601781526020017f4f776e65722068617320616c726561647920766f746564000000000000000000815250905082600281111561508d57fe5b6001600281111561509a57fe5b14156150fd576150ae338360a00151615382565b1515600015151481906150f7576040517f08c379a00000000000000000000000000000000000000000000000000000000081526004016150ee9190615e51565b60405180910390fd5b506151d3565b82600281111561510957fe5b6000600281111561511657fe5b14156151795761512a338360600151615382565b151560001515148190615173576040517f08c379a000000000000000000000000000000000000000000000000000000000815260040161516a9190615e51565b60405180910390fd5b506151d2565b615187338360800151615382565b1515600015151481906151d0576040517f08c379a00000000000000000000000000000000000000000000000000000000081526004016151c79190615e51565b60405180910390fd5b505b5b505050565b6000818310156151eb57600090506151f0565b600190505b92915050565b600080600090505b82518110156152645782818151811061521357fe5b602002602001015173ffffffffffffffffffffffffffffffffffffffff168473ffffffffffffffffffffffffffffffffffffffff161415615257578091505061526d565b80806001019150506151fe565b50600182510190505b92915050565b606082825161528282826153fd565b151560011515146152c8576040517f08c379a00000000000000000000000000000000000000000000000000000000081526004016152bf90615ec3565b60405180910390fd5b60008590505b6001855103811015615344578460018201815181106152e957fe5b60200260200101518582815181106152fd57fe5b602002602001019073ffffffffffffffffffffffffffffffffffffffff16908173ffffffffffffffffffffffffffffffffffffffff168152505080806001019150506152ce565b508360018551038151811061535557fe5b60200260200101600073ffffffffffffffffffffffffffffffffffffffff16815250839250505092915050565b600080600090505b82518110156153f15782818151811061539f57fe5b602002602001015173ffffffffffffffffffffffffffffffffffffffff168473ffffffffffffffffffffffffffffffffffffffff1614156153e45760019150506153f7565b808060010191505061538a565b50600090505b92915050565b6000828211905092915050565b828054600181600116156101000203166002900490600052602060002090601f0160209004810192826154405760008555615487565b82601f1061545957805160ff1916838001178555615487565b82800160010185558215615487579182015b8281111561548657825182559160200191906001019061546b565b5b5090506154949190615501565b5090565b50805460008255906000526020600020908101906154b69190615501565b50565b50805460018160011615610100020316600290046000825580601f106154df57506154fe565b601f0160209004906000526020600020908101906154fd9190615501565b5b50565b5b8082111561551a576000816000905550600101615502565b5090565b600061553161552c84616098565b616067565b90508281526020810184848401111561554957600080fd5b6155548482856161f3565b509392505050565b60008135905061556b81616248565b92915050565b6000815190506155808161625f565b92915050565b60008135905061559581616276565b92915050565b600082601f8301126155ac57600080fd5b81356155bc84826020860161551e565b91505092915050565b6000813590506155d48161628d565b92915050565b6000602082840312156155ec57600080fd5b60006155fa8482850161555c565b91505092915050565b6000806040838503121561561657600080fd5b60006156248582860161555c565b92505060206156358582860161555c565b9150509250929050565b6000806000806080858703121561565557600080fd5b60006156638782880161555c565b94505060206156748782880161555c565b9350506040615685878288016155c5565b9250506060615696878288016155c5565b91505092959194509250565b600080604083850312156156b557600080fd5b60006156c38582860161555c565b925050602083013567ffffffffffffffff8111156156e057600080fd5b6156ec8582860161559b565b9150509250929050565b60008060006060848603121561570b57600080fd5b60006157198682870161555c565b935050602061572a868287016155c5565b925050604061573b868287016155c5565b9150509250925092565b60006020828403121561575757600080fd5b600061576584828501615571565b91505092915050565b6000806040838503121561578157600080fd5b600061578f85828601615586565b92505060206157a08582860161555c565b9150509250929050565b60006157b683836157e9565b60208301905092915050565b60006157ce83836158d2565b60208301905092915050565b6157e3816161bd565b82525050565b6157f28161616b565b82525050565b6158018161616b565b82525050565b6000615812826160fd565b61581c8185616138565b9350615827836160c8565b8060005b8381101561585857815161583f88826157aa565b975061584a8361611e565b92505060018101905061582b565b5085935050505092915050565b600061587082616108565b61587a8185616149565b9350615885836160d8565b8060005b838110156158b657815161589d88826157c2565b97506158a88361612b565b925050600181019050615889565b5085935050505092915050565b6158cc8161617d565b82525050565b6158db81616189565b82525050565b60006158ec82616113565b6158f6818561615a565b9350615906818560208601616202565b61590f81616237565b840191505092915050565b600081546001811660008114615937576001811461595d576159a1565b607f6002830416615948818761615a565b955060ff1983168652602086019350506159a1565b6002820461596b818761615a565b9550615976856160e8565b60005b8281101561599857815481890152600182019150602081019050615979565b80880195505050505b505092915050565b60006159b660318361615a565b91507f4f6e6c792050726f7669646572732061726520616c6c6f77656420746f20706560008301527f72666f726d207468697320616374696f6e0000000000000000000000000000006020830152604082019050919050565b6000615a1c60148361615a565b91507f70726f76696465642049642069732077726f6e670000000000000000000000006000830152602082019050919050565b6000615a5c60248361615a565b91507f50726f7669646572206e6f74207375626d697465642062792043726561746f7260008301527f20796574000000000000000000000000000000000000000000000000000000006020830152604082019050919050565b6000615ac2601c8361615a565b91507f4e6f7420616c6c6f77656420746f2072656d6f766520656e74697479000000006000830152602082019050919050565b6000615b0260188361615a565b91507f456e74697479206d7573742062652061637469766174656400000000000000006000830152602082019050919050565b6000615b42602e8361615a565b91507f4f6e6c79204f776e6572732061726520616c6c6f77656420746f20706572666f60008301527f726d207468697320616374696f6e0000000000000000000000000000000000006020830152604082019050919050565b6000615ba860188361615a565b91507f456e7469747920616c72656164792061637469766174656400000000000000006000830152602082019050919050565b6000615be860168361615a565b91507f49742069732077686f2069742073686f756c64206265000000000000000000006000830152602082019050919050565b6000615c2860318361615a565b91507f4e6f7420616c6c6f77656420746f2072656d6f7665207468697320706172746960008301527f63756c61722043657274696669636174650000000000000000000000000000006020830152604082019050919050565b6000615c8e60058361615a565b91507f456d7074790000000000000000000000000000000000000000000000000000006000830152602082019050919050565b6000615cce60298361615a565b91507f50726f766964657220616c726561647920616374697661746564206f7220696e60008301527f2070726f677265737300000000000000000000000000000000000000000000006020830152604082019050919050565b6000615d3460198361615a565b91507f436572746966696361746520616c7265616479206578697374000000000000006000830152602082019050919050565b615d70816161b3565b82525050565b615d7f816161b3565b82525050565b6000602082019050615d9a60008301846157f8565b92915050565b6000604082019050615db560008301856157da565b615dc260208301846157f8565b9392505050565b6000604082019050615dde60008301856157f8565b615deb60208301846157f8565b9392505050565b60006020820190508181036000830152615e0c8184615807565b905092915050565b60006020820190508181036000830152615e2e8184615865565b905092915050565b6000602082019050615e4b60008301846158c3565b92915050565b60006020820190508181036000830152615e6b81846158e1565b905092915050565b60006040820190508181036000830152615e8d818561591a565b9050615e9c60208301846157f8565b9392505050565b60006020820190508181036000830152615ebc816159a9565b9050919050565b60006020820190508181036000830152615edc81615a0f565b9050919050565b60006020820190508181036000830152615efc81615a4f565b9050919050565b60006020820190508181036000830152615f1c81615ab5565b9050919050565b60006020820190508181036000830152615f3c81615af5565b9050919050565b60006020820190508181036000830152615f5c81615b35565b9050919050565b60006020820190508181036000830152615f7c81615b9b565b9050919050565b60006020820190508181036000830152615f9c81615bdb565b9050919050565b60006020820190508181036000830152615fbc81615c1b565b9050919050565b60006020820190508181036000830152615fdc81615c81565b9050919050565b60006020820190508181036000830152615ffc81615cc1565b9050919050565b6000602082019050818103600083015261601c81615d27565b9050919050565b60006020820190506160386000830184615d67565b92915050565b60006040820190506160536000830185615d76565b6160606020830184615d76565b9392505050565b6000604051905081810181811067ffffffffffffffff8211171561608e5761608d616235565b5b8060405250919050565b600067ffffffffffffffff8211156160b3576160b2616235565b5b601f19601f8301169050602081019050919050565b6000819050602082019050919050565b6000819050602082019050919050565b60008190508160005260206000209050919050565b600081519050919050565b600081519050919050565b600081519050919050565b6000602082019050919050565b6000602082019050919050565b600082825260208201905092915050565b600082825260208201905092915050565b600082825260208201905092915050565b600061617682616193565b9050919050565b60008115159050919050565b6000819050919050565b600073ffffffffffffffffffffffffffffffffffffffff82169050919050565b6000819050919050565b60006161c8826161cf565b9050919050565b60006161da826161e1565b9050919050565b60006161ec82616193565b9050919050565b82818337600083830152505050565b60005b83811015616220578082015181840152602081019050616205565b8381111561622f576000848401525b50505050565bfe5b6000601f19601f8301169050919050565b6162518161616b565b811461625c57600080fd5b50565b6162688161617d565b811461627357600080fd5b50565b61627f81616189565b811461628a57600080fd5b50565b616296816161b3565b81146162a157600080fd5b5056fea264697066735822122039cdde0482673c63f7821d6105dd88639cfbb20dc6f04825a76331b3e1e74bbf64736f6c63430007060033",
  "immutableReferences": {},
  "source": "// SPDX-License-Identifier: GPL-3.0\r\n\r\npragma solidity >=0.7.0 <0.9.0;\r\n\r\n/**\r\n * @title Storage\r\n * @dev Store & retrieve value in a variable\r\n */\r\n\r\nimport \"./Libraries/Library.sol\";\r\nimport \"./PrivateCertificatesPool.sol\";\r\nimport \"./PublicCertificatesPool.sol\";\r\n\r\n /* \r\n Actors : Chair Person, Anyone\r\n Token : Proposals\r\n\r\n 1- Anyone can submit proposals (paying a fee)\r\n 2- Chair Person can approve proposals creating Providers in Certificates Contract\r\n\r\n\r\n Proposals lifecycle\r\n    Proposals Creation : Anyone (paying fee)\r\n    Proposals Update : \r\n    Proposals Remove :   \r\n    Proposals Validations : Only Chair Person  \r\n\r\n */\r\n\r\ncontract CertificatesPoolManager{\r\n    using Library for *;\r\n\r\n    // events\r\n    event _NewCertificatesPool(uint256, address, MultiSigCertificatesPool);\r\n    event _SendProposalId(address);\r\n\r\n    uint _PublicPriceWei;\r\n    uint _PrivatePoolPriceWei;\r\n\r\n    // modfiers\r\n    modifier isIdCorrect(uint Id, uint length){\r\n        require(true == Library.IdCorrect(Id, length), \"provided Id is wrong\");\r\n        _;\r\n    }\r\n\r\n    modifier areFundsEnough(uint minPrice){\r\n        require(msg.value >= minPrice, \"Not enough funds\");\r\n        _;\r\n    }\r\n    \r\n    // Private Certificates Pool structure\r\n    struct _privateCertificatesPoolStruct{\r\n        address _creator;\r\n        PrivateCertificatesPool _PrivateCertificatesPool;\r\n    } \r\n\r\n    _privateCertificatesPoolStruct[] _PrivateCertificatesPools;\r\n    \r\n    // Public Certificates Pool structure\r\n    PublicCertificatesPool  _PublicCertificatesPool;\r\n\r\n    address payable _chairperson;\r\n    \r\n    constructor(address[] memory owners, uint256 minOwners, uint256 PublicPriceWei, uint256 PrivatePriceWei) payable{\r\n        _chairperson = payable(msg.sender);\r\n        _PublicPriceWei = PublicPriceWei;\r\n        _PrivatePoolPriceWei = PrivatePriceWei;\r\n        _PublicCertificatesPool = new PublicCertificatesPool(owners, minOwners);\r\n    }\r\n\r\n    // PRIVATE CERTIFICATE POOL /////////////////////////////////////////////////////////////\r\n\r\n    function createPrivateCertificatesPool(address[] memory owners,  uint256 minOwners) external\r\n        areFundsEnough(_PrivatePoolPriceWei)\r\n    payable\r\n    {\r\n        PrivateCertificatesPool certificatePool = new PrivateCertificatesPool(owners, minOwners);\r\n        _privateCertificatesPoolStruct memory privateCertificatesPool = _privateCertificatesPoolStruct(msg.sender, certificatePool);\r\n        _PrivateCertificatesPools.push(privateCertificatesPool);\r\n\r\n        emit _NewCertificatesPool(_PrivateCertificatesPools.length - 1, privateCertificatesPool._creator, privateCertificatesPool._PrivateCertificatesPool);\r\n    }\r\n\r\n    function retrievePrivateCertificatesPool(uint certificatePoolId) external\r\n        isIdCorrect(certificatePoolId, _PrivateCertificatesPools.length)\r\n    view returns (address, MultiSigCertificatesPool)\r\n    {\r\n        return(_PrivateCertificatesPools[certificatePoolId]._creator, _PrivateCertificatesPools[certificatePoolId]._PrivateCertificatesPool);\r\n    }\r\n\r\n    function retrieveTotalPrivateCertificatesPool(uint certificatePoolId) external view returns (uint)\r\n    {\r\n        return(_PrivateCertificatesPools.length);\r\n    }\r\n\r\n    // PUBLIC CERTIFICATE POOL /////////////////////////////////////////////////////////////\r\n\r\n    function sendProposal(address provider, string memory providerInfo) public \r\n        areFundsEnough(_PublicPriceWei)\r\n    payable \r\n    {\r\n       _PublicCertificatesPool.addProvider(provider, providerInfo);\r\n\r\n       emit _SendProposalId(provider);\r\n    }\r\n\r\n    function retrievePublicCertificatesPool() public view returns (MultiSigCertificatesPool) {\r\n        return _PublicCertificatesPool;\r\n    }\r\n    \r\n    function retrieveChairPerson() public view returns (address) {\r\n        return _chairperson;\r\n    }\r\n    \r\n}",
  "sourcePath": "C:/Users/d-aam/GitHub/Certificates/contracts/CertificatesPoolManager.sol",
  "compiler": {
    "name": "solc",
    "version": "0.7.6+commit.7338295f.Emscripten.clang"
  },
  "schemaVersion": "3.3.4",
  "updatedAt": "2021-05-26T09:03:11.147Z",
  "devdoc": {
    "kind": "dev",
    "methods": {},
    "version": 1
  },
  "userdoc": {
    "kind": "user",
    "methods": {},
    "version": 1
  }
}