{
  "contractName": "Credentials",
  "abi": [
    {
      "inputs": [
        {
          "internalType": "address[]",
          "name": "owners",
          "type": "address[]"
        }
      ],
      "stateMutability": "payable",
      "type": "constructor"
    },
    {
      "anonymous": false,
      "inputs": [
        {
          "indexed": false,
          "internalType": "uint256",
          "name": "",
          "type": "uint256"
        }
      ],
      "name": "_credentialIdEvent",
      "type": "event"
    },
    {
      "inputs": [
        {
          "internalType": "uint256",
          "name": "",
          "type": "uint256"
        }
      ],
      "name": "_credentials",
      "outputs": [
        {
          "internalType": "address",
          "name": "_provider",
          "type": "address"
        },
        {
          "internalType": "address",
          "name": "_holder",
          "type": "address"
        },
        {
          "internalType": "string",
          "name": "_credential",
          "type": "string"
        }
      ],
      "stateMutability": "view",
      "type": "function"
    },
    {
      "inputs": [
        {
          "internalType": "address",
          "name": "",
          "type": "address"
        }
      ],
      "name": "_owners",
      "outputs": [
        {
          "internalType": "bool",
          "name": "",
          "type": "bool"
        }
      ],
      "stateMutability": "view",
      "type": "function"
    },
    {
      "inputs": [
        {
          "internalType": "address",
          "name": "",
          "type": "address"
        }
      ],
      "name": "_providers",
      "outputs": [
        {
          "internalType": "bool",
          "name": "_activated",
          "type": "bool"
        },
        {
          "internalType": "string",
          "name": "_providerInfo",
          "type": "string"
        }
      ],
      "stateMutability": "view",
      "type": "function"
    },
    {
      "inputs": [
        {
          "internalType": "address",
          "name": "provider",
          "type": "address"
        },
        {
          "internalType": "string",
          "name": "providerInfo",
          "type": "string"
        }
      ],
      "name": "addProvider",
      "outputs": [],
      "stateMutability": "nonpayable",
      "type": "function"
    },
    {
      "inputs": [
        {
          "internalType": "address",
          "name": "provider",
          "type": "address"
        }
      ],
      "name": "removeProvider",
      "outputs": [],
      "stateMutability": "nonpayable",
      "type": "function"
    },
    {
      "inputs": [
        {
          "internalType": "address",
          "name": "provider",
          "type": "address"
        },
        {
          "internalType": "string",
          "name": "providerInfo",
          "type": "string"
        }
      ],
      "name": "updateProvider",
      "outputs": [],
      "stateMutability": "nonpayable",
      "type": "function"
    },
    {
      "inputs": [
        {
          "internalType": "address",
          "name": "provider",
          "type": "address"
        }
      ],
      "name": "retrieveProvider",
      "outputs": [
        {
          "internalType": "string",
          "name": "",
          "type": "string"
        }
      ],
      "stateMutability": "view",
      "type": "function"
    },
    {
      "inputs": [],
      "name": "retrieveTotalProviders",
      "outputs": [
        {
          "internalType": "uint256",
          "name": "",
          "type": "uint256"
        }
      ],
      "stateMutability": "view",
      "type": "function"
    },
    {
      "inputs": [
        {
          "internalType": "string",
          "name": "credential",
          "type": "string"
        },
        {
          "internalType": "address",
          "name": "holder",
          "type": "address"
        }
      ],
      "name": "addCredential",
      "outputs": [],
      "stateMutability": "nonpayable",
      "type": "function"
    },
    {
      "inputs": [
        {
          "internalType": "uint256",
          "name": "credentialTokenId",
          "type": "uint256"
        }
      ],
      "name": "removeCredential",
      "outputs": [],
      "stateMutability": "nonpayable",
      "type": "function"
    },
    {
      "inputs": [
        {
          "internalType": "uint256",
          "name": "credentialTokenId",
          "type": "uint256"
        },
        {
          "internalType": "string",
          "name": "credential",
          "type": "string"
        }
      ],
      "name": "updateCredential",
      "outputs": [],
      "stateMutability": "nonpayable",
      "type": "function"
    },
    {
      "inputs": [
        {
          "internalType": "uint256",
          "name": "credentialTokenId",
          "type": "uint256"
        }
      ],
      "name": "retrieveCredential",
      "outputs": [
        {
          "internalType": "address",
          "name": "",
          "type": "address"
        },
        {
          "internalType": "string",
          "name": "",
          "type": "string"
        },
        {
          "internalType": "address",
          "name": "",
          "type": "address"
        }
      ],
      "stateMutability": "view",
      "type": "function"
    },
    {
      "inputs": [],
      "name": "retrieveTotalCredential",
      "outputs": [
        {
          "internalType": "uint256",
          "name": "",
          "type": "uint256"
        }
      ],
      "stateMutability": "view",
      "type": "function"
    },
    {
      "inputs": [
        {
          "internalType": "address",
          "name": "owner",
          "type": "address"
        }
      ],
      "name": "addOwner",
      "outputs": [],
      "stateMutability": "nonpayable",
      "type": "function"
    },
    {
      "inputs": [
        {
          "internalType": "address",
          "name": "owner",
          "type": "address"
        }
      ],
      "name": "removeOwner",
      "outputs": [],
      "stateMutability": "nonpayable",
      "type": "function"
    },
    {
      "inputs": [
        {
          "internalType": "address",
          "name": "owner",
          "type": "address"
        }
      ],
      "name": "isOwner",
      "outputs": [
        {
          "internalType": "bool",
          "name": "",
          "type": "bool"
        }
      ],
      "stateMutability": "view",
      "type": "function"
    },
    {
      "inputs": [],
      "name": "retrieveTotalOwners",
      "outputs": [
        {
          "internalType": "uint256",
          "name": "",
          "type": "uint256"
        }
      ],
      "stateMutability": "view",
      "type": "function"
    },
    {
      "inputs": [],
      "name": "retrieveCreator",
      "outputs": [
        {
          "internalType": "address",
          "name": "",
          "type": "address"
        }
      ],
      "stateMutability": "view",
      "type": "function"
    }
  ],
  "bytecode": "0x60806040526040516200251b3803806200251b833981810160405260208110156200002957600080fd5b81019080805160405193929190846401000000008211156200004a57600080fd5b838201915060208201858111156200006157600080fd5b82518660208202830111640100000000821117156200007f57600080fd5b8083526020830192505050908051906020019060200280838360005b83811015620000b85780820151818401526020810190506200009b565b50505050905001604052505050336000806101000a81548173ffffffffffffffffffffffffffffffffffffffff021916908373ffffffffffffffffffffffffffffffffffffffff1602179055506001600360003373ffffffffffffffffffffffffffffffffffffffff1673ffffffffffffffffffffffffffffffffffffffff16815260200190815260200160002060006101000a81548160ff021916908315150217905550600160048190555060005b81518110156200026c57600360008383815181106200018357fe5b602002602001015173ffffffffffffffffffffffffffffffffffffffff1673ffffffffffffffffffffffffffffffffffffffff16815260200190815260200160002060009054906101000a900460ff1615156000151514156200025e57600160036000848481518110620001f357fe5b602002602001015173ffffffffffffffffffffffffffffffffffffffff1673ffffffffffffffffffffffffffffffffffffffff16815260200190815260200160002060006101000a81548160ff02191690831515021790555060016004600082825401925050819055505b808060010191505062000168565b5060006002819055505061229580620002866000396000f3fe608060405234801561001057600080fd5b50600436106101165760003560e01c806383c3d8e2116100a2578063bf3a5c0211610071578063bf3a5c02146107a0578063c513c120146107fa578063d744d2f3146108db578063eefe7681146108f9578063fc0005001461091757610116565b806383c3d8e21461061957806383ce57b3146106fa5780638a355a571461072e578063b8a47d7d1461077257610116565b806346a4cacb116100e957806346a4cacb1461035157806368e23af21461041657806369c4ad95146104345780637065cb481461050f578063769d72351461055357610116565b80631660c22a1461011b578063173825d9146101f65780632f54bf6e1461023a5780633758349914610294575b600080fd5b6101f46004803603604081101561013157600080fd5b81019080803573ffffffffffffffffffffffffffffffffffffffff1690602001909291908035906020019064010000000081111561016e57600080fd5b82018360208201111561018057600080fd5b803590602001918460018302840111640100000000831117156101a257600080fd5b91908080601f016020809104026020016040519081016040528093929190818152602001838380828437600081840152601f19601f8201169050808301925050505050505091929192905050506109f2565b005b6102386004803603602081101561020c57600080fd5b81019080803573ffffffffffffffffffffffffffffffffffffffff169060200190929190505050610c12565b005b61027c6004803603602081101561025057600080fd5b81019080803573ffffffffffffffffffffffffffffffffffffffff169060200190929190505050610e60565b60405180821515815260200191505060405180910390f35b6102d6600480360360208110156102aa57600080fd5b81019080803573ffffffffffffffffffffffffffffffffffffffff169060200190929190505050610eb6565b6040518080602001828103825283818151815260200191508051906020019080838360005b838110156103165780820151818401526020810190506102fb565b50505050905090810190601f1680156103435780820380516001836020036101000a031916815260200191505b509250505060405180910390f35b6104146004803603604081101561036757600080fd5b81019080803590602001909291908035906020019064010000000081111561038e57600080fd5b8201836020820111156103a057600080fd5b803590602001918460018302840111640100000000831117156103c257600080fd5b91908080601f016020809104026020016040519081016040528093929190818152602001838380828437600081840152601f19601f820116905080830192505050505050509192919290505050611063565b005b61041e6111d6565b6040518082815260200191505060405180910390f35b61050d6004803603604081101561044a57600080fd5b810190808035906020019064010000000081111561046757600080fd5b82018360208201111561047957600080fd5b8035906020019184600183028401116401000000008311171561049b57600080fd5b91908080601f016020809104026020016040519081016040528093929190818152602001838380828437600081840152601f19601f820116905080830192505050505050509192919290803573ffffffffffffffffffffffffffffffffffffffff1690602001909291905050506111e3565b005b6105516004803603602081101561052557600080fd5b81019080803573ffffffffffffffffffffffffffffffffffffffff16906020019092919050505061140e565b005b6105956004803603602081101561056957600080fd5b81019080803573ffffffffffffffffffffffffffffffffffffffff16906020019092919050505061165c565b60405180831515815260200180602001828103825283818151815260200191508051906020019080838360005b838110156105dd5780820151818401526020810190506105c2565b50505050905090810190601f16801561060a5780820380516001836020036101000a031916815260200191505b50935050505060405180910390f35b6106456004803603602081101561062f57600080fd5b8101908080359060200190929190505050611725565b604051808473ffffffffffffffffffffffffffffffffffffffff168152602001806020018373ffffffffffffffffffffffffffffffffffffffff168152602001828103825284818151815260200191508051906020019080838360005b838110156106bd5780820151818401526020810190506106a2565b50505050905090810190601f1680156106ea5780820380516001836020036101000a031916815260200191505b5094505050505060405180910390f35b6107026118ea565b604051808273ffffffffffffffffffffffffffffffffffffffff16815260200191505060405180910390f35b6107706004803603602081101561074457600080fd5b81019080803573ffffffffffffffffffffffffffffffffffffffff169060200190929190505050611913565b005b61079e6004803603602081101561078857600080fd5b8101908080359060200190929190505050611b47565b005b6107e2600480360360208110156107b657600080fd5b81019080803573ffffffffffffffffffffffffffffffffffffffff169060200190929190505050611d76565b60405180821515815260200191505060405180910390f35b6108266004803603602081101561081057600080fd5b8101908080359060200190929190505050611d96565b604051808473ffffffffffffffffffffffffffffffffffffffff1681526020018373ffffffffffffffffffffffffffffffffffffffff16815260200180602001828103825283818151815260200191508051906020019080838360005b8381101561089e578082015181840152602081019050610883565b50505050905090810190601f1680156108cb5780820380516001836020036101000a031916815260200191505b5094505050505060405180910390f35b6108e3611ea8565b6040518082815260200191505060405180910390f35b610901611eb2565b6040518082815260200191505060405180910390f35b6109f06004803603604081101561092d57600080fd5b81019080803573ffffffffffffffffffffffffffffffffffffffff1690602001909291908035906020019064010000000081111561096a57600080fd5b82018360208201111561097c57600080fd5b8035906020019184600183028401116401000000008311171561099e57600080fd5b91908080601f016020809104026020016040519081016040528093929190818152602001838380828437600081840152601f19601f820116905080830192505050505050509192919290505050611ebc565b005b600360003373ffffffffffffffffffffffffffffffffffffffff1673ffffffffffffffffffffffffffffffffffffffff16815260200190815260200160002060009054906101000a900460ff161515600115151480610a7c57508173ffffffffffffffffffffffffffffffffffffffff163373ffffffffffffffffffffffffffffffffffffffff16145b610aee576040517f08c379a000000000000000000000000000000000000000000000000000000000815260040180806020018281038252601f8152602001807f4e6f7420616c6c6f77656420746f207570646174652070726f7669646572730081525060200191505060405180910390fd5b600160008373ffffffffffffffffffffffffffffffffffffffff1673ffffffffffffffffffffffffffffffffffffffff16815260200190815260200160002060000160009054906101000a900460ff1615156001151514610bb7576040517f08c379a00000000000000000000000000000000000000000000000000000000081526004018080602001828103825260168152602001807f50726f7669646572206e6f74206163746976617465640000000000000000000081525060200191505060405180910390fd5b80600160008473ffffffffffffffffffffffffffffffffffffffff1673ffffffffffffffffffffffffffffffffffffffff1681526020019081526020016000206001019080519060200190610c0d92919061210c565b505050565b600360003373ffffffffffffffffffffffffffffffffffffffff1673ffffffffffffffffffffffffffffffffffffffff16815260200190815260200160002060009054906101000a900460ff161515600115151480610cbc575060008054906101000a900473ffffffffffffffffffffffffffffffffffffffff1673ffffffffffffffffffffffffffffffffffffffff163373ffffffffffffffffffffffffffffffffffffffff16145b610d2e576040517f08c379a000000000000000000000000000000000000000000000000000000000815260040180806020018281038252601c8152602001807f4e6f7420616c6c6f77656420746f2072656d6f7665206f776e6572730000000081525060200191505060405180910390fd5b600360008273ffffffffffffffffffffffffffffffffffffffff1673ffffffffffffffffffffffffffffffffffffffff16815260200190815260200160002060009054906101000a900460ff1615156001151514610df4576040517f08c379a000000000000000000000000000000000000000000000000000000000815260040180806020018281038252601a8152602001807f4f776e657220616c72656164792064652d61637469766174656400000000000081525060200191505060405180910390fd5b6000600360008373ffffffffffffffffffffffffffffffffffffffff1673ffffffffffffffffffffffffffffffffffffffff16815260200190815260200160002060006101000a81548160ff021916908315150217905550600160046000828254039250508190555050565b6000600360008373ffffffffffffffffffffffffffffffffffffffff1673ffffffffffffffffffffffffffffffffffffffff16815260200190815260200160002060009054906101000a900460ff169050919050565b6060600160008373ffffffffffffffffffffffffffffffffffffffff1673ffffffffffffffffffffffffffffffffffffffff16815260200190815260200160002060000160009054906101000a900460ff1615156001151514610f81576040517f08c379a00000000000000000000000000000000000000000000000000000000081526004018080602001828103825260178152602001807f50726f766964657220646f6573206e6f7420657869737400000000000000000081525060200191505060405180910390fd5b600160008373ffffffffffffffffffffffffffffffffffffffff1673ffffffffffffffffffffffffffffffffffffffff1681526020019081526020016000206001018054600181600116156101000203166002900480601f0160208091040260200160405190810160405280929190818152602001828054600181600116156101000203166002900480156110575780601f1061102c57610100808354040283529160200191611057565b820191906000526020600020905b81548152906001019060200180831161103a57829003601f168201915b50505050509050919050565b6005828154811061107057fe5b906000526020600020906003020160000160009054906101000a900473ffffffffffffffffffffffffffffffffffffffff1673ffffffffffffffffffffffffffffffffffffffff163373ffffffffffffffffffffffffffffffffffffffff1614611125576040517f08c379a00000000000000000000000000000000000000000000000000000000081526004018080602001828103825260308152602001806122306030913960400191505060405180910390fd5b600580549050821061119f576040517f08c379a00000000000000000000000000000000000000000000000000000000081526004018080602001828103825260198152602001807f43726564656e7469616c20646f6573206e6f742065786973740000000000000081525060200191505060405180910390fd5b80600583815481106111ad57fe5b906000526020600020906003020160020190805190602001906111d192919061210c565b505050565b6000600580549050905090565b600160003373ffffffffffffffffffffffffffffffffffffffff1673ffffffffffffffffffffffffffffffffffffffff16815260200190815260200160002060000160009054906101000a900460ff16151560011515146112ac576040517f08c379a000000000000000000000000000000000000000000000000000000000815260040180806020018281038252601e8152602001807f4e6f7420616c6c6f77656420746f206164642063726564656e7469616c73000081525060200191505060405180910390fd5b600560405180606001604052803373ffffffffffffffffffffffffffffffffffffffff1681526020018373ffffffffffffffffffffffffffffffffffffffff16815260200184815250908060018154018082558091505060019003906000526020600020906003020160009091909190915060008201518160000160006101000a81548173ffffffffffffffffffffffffffffffffffffffff021916908373ffffffffffffffffffffffffffffffffffffffff16021790555060208201518160010160006101000a81548173ffffffffffffffffffffffffffffffffffffffff021916908373ffffffffffffffffffffffffffffffffffffffff16021790555060408201518160020190805190602001906113c892919061210c565b5050507f5f3527c69a463743c32aceb60e66119f6a798c1faf3de1e3a0a9b7d00c5d26236001600580549050036040518082815260200191505060405180910390a15050565b600360003373ffffffffffffffffffffffffffffffffffffffff1673ffffffffffffffffffffffffffffffffffffffff16815260200190815260200160002060009054906101000a900460ff1615156001151514806114b8575060008054906101000a900473ffffffffffffffffffffffffffffffffffffffff1673ffffffffffffffffffffffffffffffffffffffff163373ffffffffffffffffffffffffffffffffffffffff16145b61152a576040517f08c379a00000000000000000000000000000000000000000000000000000000081526004018080602001828103825260198152602001807f4e6f7420616c6c6f77656420746f20616464206f776e6572730000000000000081525060200191505060405180910390fd5b600360008273ffffffffffffffffffffffffffffffffffffffff1673ffffffffffffffffffffffffffffffffffffffff16815260200190815260200160002060009054906101000a900460ff16151560001515146115f0576040517f08c379a00000000000000000000000000000000000000000000000000000000081526004018080602001828103825260178152602001807f4f776e657220616c72656164792061637469766174656400000000000000000081525060200191505060405180910390fd5b6001600360008373ffffffffffffffffffffffffffffffffffffffff1673ffffffffffffffffffffffffffffffffffffffff16815260200190815260200160002060006101000a81548160ff021916908315150217905550600160046000828254019250508190555050565b60016020528060005260406000206000915090508060000160009054906101000a900460ff1690806001018054600181600116156101000203166002900480601f01602080910402602001604051908101604052809291908181526020018280546001816001161561010002031660029004801561171b5780601f106116f05761010080835404028352916020019161171b565b820191906000526020600020905b8154815290600101906020018083116116fe57829003601f168201915b5050505050905082565b60006060600060058054905084106117a5576040517f08c379a00000000000000000000000000000000000000000000000000000000081526004018080602001828103825260198152602001807f43726564656e7469616c20646f6573206e6f742065786973740000000000000081525060200191505060405180910390fd5b600584815481106117b257fe5b906000526020600020906003020160000160009054906101000a900473ffffffffffffffffffffffffffffffffffffffff16600585815481106117f157fe5b90600052602060002090600302016002016005868154811061180f57fe5b906000526020600020906003020160010160009054906101000a900473ffffffffffffffffffffffffffffffffffffffff16818054600181600116156101000203166002900480601f0160208091040260200160405190810160405280929190818152602001828054600181600116156101000203166002900480156118d65780601f106118ab576101008083540402835291602001916118d6565b820191906000526020600020905b8154815290600101906020018083116118b957829003601f168201915b505050505091509250925092509193909250565b60008060009054906101000a900473ffffffffffffffffffffffffffffffffffffffff16905090565b600360003373ffffffffffffffffffffffffffffffffffffffff1673ffffffffffffffffffffffffffffffffffffffff16815260200190815260200160002060009054906101000a900460ff16151560011515148061199d57508073ffffffffffffffffffffffffffffffffffffffff163373ffffffffffffffffffffffffffffffffffffffff16145b611a0f576040517f08c379a000000000000000000000000000000000000000000000000000000000815260040180806020018281038252601f8152602001807f4e6f7420616c6c6f77656420746f2072656d6f76652070726f7669646572730081525060200191505060405180910390fd5b600160008273ffffffffffffffffffffffffffffffffffffffff1673ffffffffffffffffffffffffffffffffffffffff16815260200190815260200160002060000160009054906101000a900460ff1615156001151514611ad8576040517f08c379a00000000000000000000000000000000000000000000000000000000081526004018080602001828103825260168152602001807f50726f7669646572206e6f74206163746976617465640000000000000000000081525060200191505060405180910390fd5b6000600160008373ffffffffffffffffffffffffffffffffffffffff1673ffffffffffffffffffffffffffffffffffffffff16815260200190815260200160002060000160006101000a81548160ff021916908315150217905550600160026000828254039250508190555050565b60058181548110611b5457fe5b906000526020600020906003020160000160009054906101000a900473ffffffffffffffffffffffffffffffffffffffff1673ffffffffffffffffffffffffffffffffffffffff163373ffffffffffffffffffffffffffffffffffffffff161480611c28575060058181548110611bc757fe5b906000526020600020906003020160010160009054906101000a900473ffffffffffffffffffffffffffffffffffffffff1673ffffffffffffffffffffffffffffffffffffffff163373ffffffffffffffffffffffffffffffffffffffff16145b611c7d576040517f08c379a00000000000000000000000000000000000000000000000000000000081526004018080602001828103825260308152602001806122006030913960400191505060405180910390fd5b6005805490508110611cf7576040517f08c379a00000000000000000000000000000000000000000000000000000000081526004018080602001828103825260198152602001807f43726564656e7469616c20646f6573206e6f742065786973740000000000000081525060200191505060405180910390fd5b60058181548110611d0457fe5b9060005260206000209060030201600080820160006101000a81549073ffffffffffffffffffffffffffffffffffffffff02191690556001820160006101000a81549073ffffffffffffffffffffffffffffffffffffffff0219169055600282016000611d71919061219a565b505050565b60036020528060005260406000206000915054906101000a900460ff1681565b60058181548110611da657600080fd5b90600052602060002090600302016000915090508060000160009054906101000a900473ffffffffffffffffffffffffffffffffffffffff16908060010160009054906101000a900473ffffffffffffffffffffffffffffffffffffffff1690806002018054600181600116156101000203166002900480601f016020809104026020016040519081016040528092919081815260200182805460018160011615610100020316600290048015611e9e5780601f10611e7357610100808354040283529160200191611e9e565b820191906000526020600020905b815481529060010190602001808311611e8157829003601f168201915b5050505050905083565b6000600254905090565b6000600454905090565b60008054906101000a900473ffffffffffffffffffffffffffffffffffffffff1673ffffffffffffffffffffffffffffffffffffffff163373ffffffffffffffffffffffffffffffffffffffff1614611f7d576040517f08c379a000000000000000000000000000000000000000000000000000000000815260040180806020018281038252601c8152602001807f4e6f7420616c6c6f77656420746f206164642070726f7669646572730000000081525060200191505060405180910390fd5b600160008373ffffffffffffffffffffffffffffffffffffffff1673ffffffffffffffffffffffffffffffffffffffff16815260200190815260200160002060000160009054906101000a900460ff1615156000151514612046576040517f08c379a000000000000000000000000000000000000000000000000000000000815260040180806020018281038252601a8152602001807f50726f766964657220616c72656164792061637469766174656400000000000081525060200191505060405180910390fd5b80600160008473ffffffffffffffffffffffffffffffffffffffff1673ffffffffffffffffffffffffffffffffffffffff168152602001908152602001600020600101908051906020019061209c92919061210c565b5060018060008473ffffffffffffffffffffffffffffffffffffffff1673ffffffffffffffffffffffffffffffffffffffff16815260200190815260200160002060000160006101000a81548160ff02191690831515021790555060016002600082825401925050819055505050565b828054600181600116156101000203166002900490600052602060002090601f0160209004810192826121425760008555612189565b82601f1061215b57805160ff1916838001178555612189565b82800160010185558215612189579182015b8281111561218857825182559160200191906001019061216d565b5b50905061219691906121e2565b5090565b50805460018160011615610100020316600290046000825580601f106121c057506121df565b601f0160209004906000526020600020908101906121de91906121e2565b5b50565b5b808211156121fb5760008160009055506001016121e3565b509056fe4e6f7420616c6c6f77656420746f2072656d6f7665207468697320706172746963756c61722063726564656e7469616c4e6f7420616c6c6f77656420746f20757064617465207468697320706172746963756c61722063726564656e7469616ca2646970667358221220a8734a435cb9311fbb36b565ccf8362bb7ca604f3c1110c2fc1fcd3bfbd818a164736f6c63430007060033",
  "immutableReferences": {},
  "source": "// SPDX-License-Identifier: GPL-3.0\r\n\r\npragma solidity >=0.7.0 <0.9.0;\r\n\r\n/**\r\n * @title Storage\r\n * @dev Store & retrieve value in a variable\r\n */\r\n /* \r\n Actors : Creator, Owners, Providers, Holders\r\n Token : Credentials\r\n\r\n 1- Creator (an owner himslef) add Providers and manage Owners (both as creator and owner).\r\n 2- Owners manage other owners and Providers\r\n 3- Providers manage themselves and their own Credentials\r\n 4- Holders can remove their own Credentials\r\n\r\n Providers lifecycle\r\n    Provider Creation : Only creator (proposal contract)\r\n    Provider Update : Any Owner or Provider himself\r\n    Provider Remove : Any Owner or Provider himself\r\n\r\n Credentials lifecycle\r\n    Credential Creation : Any Provider\r\n    Credential Update : Only Provider that created credential\r\n    Credential Remove : Only Provider that created credential or Holder himself    \r\n\r\n Owners lifecycle\r\n    Owner Creation : Any Owner or Creator\r\n    Owner Remove : Any Owner or Creator\r\n */\r\n\r\ncontract Credentials {\r\n    \r\n    event _credentialIdEvent(uint256);\r\n    \r\n    struct _credentialToken{\r\n        address _provider;\r\n        address _holder;\r\n        string _credential;\r\n    }\r\n    \r\n    struct _providerIdentity{\r\n        bool _activated;\r\n        string _providerInfo;\r\n    }\r\n\r\n    // Contract Creator\r\n    address _creator;\r\n    // list and number of providers\r\n    mapping(address => _providerIdentity) public _providers;\r\n    uint256 _numberOfProviders;\r\n    // list and number of owners\r\n    mapping(address => bool) public _owners;\r\n    uint256 _numberOfOwners;\r\n    // list of credentials\r\n    _credentialToken[] public _credentials;\r\n\r\n    constructor(address[] memory owners) payable{\r\n        _creator = msg.sender;\r\n        _owners[msg.sender] = true;\r\n        _numberOfOwners = 1;\r\n        for (uint i=0; i<owners.length; i++) {\r\n            if(false == _owners[owners[i]]){\r\n                _owners[owners[i]] = true;\r\n                _numberOfOwners += 1;\r\n            }\r\n            \r\n        }\r\n        _numberOfProviders = 0;\r\n    }\r\n    \r\n    // PROVIDERS CRUD Operations\r\n\r\n    function addProvider(address provider, string memory providerInfo) public {\r\n       require(msg.sender == _creator, \"Not allowed to add providers\");\r\n       require(false == _providers[provider]._activated, \"Provider already activated\") ;\r\n       _providers[provider]._providerInfo = providerInfo;\r\n       _providers[provider]._activated = true;\r\n       _numberOfProviders += 1;\r\n    }\r\n    \r\n    function removeProvider(address provider) public {\r\n       require(true == _owners[msg.sender] || msg.sender == provider, \"Not allowed to remove providers\");\r\n       require(true == _providers[provider]._activated, \"Provider not activated\");\r\n       _providers[provider]._activated = false;\r\n       _numberOfProviders -= 1;\r\n    }\r\n    \r\n    function updateProvider(address provider, string memory providerInfo) public {\r\n       require(true == _owners[msg.sender] || msg.sender == provider, \"Not allowed to update providers\");\r\n       require(true == _providers[provider]._activated, \"Provider not activated\") ;\r\n       _providers[provider]._providerInfo = providerInfo;\r\n    }\r\n    \r\n    function retrieveProvider(address provider) public view returns (string memory){\r\n        require(true == _providers[provider]._activated, \"Provider does not exist\");\r\n        return _providers[provider]._providerInfo;\r\n    }\r\n    \r\n    function retrieveTotalProviders() public view returns (uint){\r\n        return (_numberOfProviders);\r\n    }\r\n    \r\n    // CREDENTIALS CRUD Operations\r\n\r\n    function addCredential(string memory credential, address holder) public {\r\n       require(true == _providers[msg.sender]._activated, \"Not allowed to add credentials\");\r\n       _credentials.push(_credentialToken(msg.sender, holder, credential));\r\n       emit _credentialIdEvent(_credentials.length - 1);\r\n    }\r\n    \r\n    function removeCredential(uint256 credentialTokenId) public {\r\n       require(msg.sender == _credentials[credentialTokenId]._provider || msg.sender == _credentials[credentialTokenId]._holder, \"Not allowed to remove this particular credential\");\r\n       require(credentialTokenId < _credentials.length, \"Credential does not exist\");\r\n       delete _credentials[credentialTokenId];\r\n    }\r\n    \r\n    function updateCredential(uint256 credentialTokenId, string memory credential) public {\r\n       require(msg.sender == _credentials[credentialTokenId]._provider, \"Not allowed to update this particular credential\");\r\n       require(credentialTokenId < _credentials.length, \"Credential does not exist\");\r\n       _credentials[credentialTokenId]._credential = credential;\r\n    }\r\n\r\n    function retrieveCredential(uint256 credentialTokenId) public view returns (address, string memory, address){\r\n        require(credentialTokenId < _credentials.length, \"Credential does not exist\");\r\n        return (_credentials[credentialTokenId]._provider, _credentials[credentialTokenId]._credential, _credentials[credentialTokenId]._holder);\r\n    }\r\n    \r\n    function retrieveTotalCredential() public view returns (uint){\r\n        return (_credentials.length);\r\n    }\r\n\r\n    // OWNERS CRD Operations\r\n\r\n    function addOwner(address owner) public {\r\n       require(true == _owners[msg.sender] || msg.sender == _creator, \"Not allowed to add owners\");\r\n       require(false == _owners[owner], \"Owner already activated\");\r\n       _owners[owner] = true;\r\n       _numberOfOwners += 1;\r\n    }\r\n    \r\n    function removeOwner(address owner) public {\r\n       require(true == _owners[msg.sender]  || msg.sender == _creator, \"Not allowed to remove owners\");\r\n       require(true == _owners[owner], \"Owner already de-activated\");\r\n       _owners[owner] = false;\r\n        _numberOfOwners -= 1;\r\n    }\r\n\r\n    function isOwner(address owner) public view returns (bool){\r\n        return(_owners[owner]);\r\n    }\r\n \r\n    function retrieveTotalOwners() public view returns (uint){\r\n        return (_numberOfOwners);\r\n    }\r\n\r\n     function retrieveCreator() public view returns (address){\r\n        return (_creator);\r\n    }\r\n\r\n}\r\n\r\n /* \r\n Actors : Chair Person, Anyone\r\n Token : Proposals\r\n\r\n 1- Anyone can submit proposals (paying a fee)\r\n 2- Chair Person can approve proposals creating Providers in Credentials Contract\r\n\r\n\r\n Proposals lifecycle\r\n    Proposals Creation : Anyone (paying fee)\r\n    Proposals Update : \r\n    Proposals Remove :   \r\n    Proposals Validations : Only Chair Person  \r\n\r\n */\r\n\r\ncontract Proposals{\r\n    enum proposalState { NOT_SUBMITTED, PENDING, APPROVED, REJECTED }\r\n    uint constant _PriceWei = 10;\r\n\r\n    Credentials  _credentialsContract;\r\n    \r\n    struct _proposal{\r\n        //bool _submitted;\r\n        proposalState _state;\r\n        string _providerInfo;\r\n    } \r\n    \r\n    address payable _chairperson;\r\n    mapping(address => _proposal) public _proposals;\r\n    address[] listOfOwners;\r\n    \r\n    constructor() payable{\r\n        _chairperson = payable(msg.sender);\r\n        listOfOwners.push(address(msg.sender));\r\n        _credentialsContract = new Credentials(listOfOwners);\r\n    }\r\n    \r\n    // PROPOSALS CRUD Operations\r\n\r\n    function sendProposal(address provider, string memory providerInfo) public payable {\r\n       require(msg.value >= _PriceWei, \"Not enough funds\");\r\n       _chairperson.transfer(msg.value);\r\n       //_proposals[provider]._submitted = true;\r\n       _proposals[provider]._state = proposalState.PENDING;\r\n       _proposals[provider]._providerInfo = providerInfo;\r\n    }\r\n    \r\n    function approveProposal(address provider) public{\r\n        require(msg.sender == _chairperson, \"Not allowed to approve proposals\");\r\n        require(proposalState.NOT_SUBMITTED != _proposals[provider]._state, \"This proposal does not exist\");\r\n        _credentialsContract.addProvider(provider, _proposals[provider]._providerInfo);\r\n    }\r\n    \r\n    function retrieveProposal(address provider) public view returns (uint, string memory) {\r\n        require(proposalState.NOT_SUBMITTED != _proposals[provider]._state, \"This proposal does not exist\");\r\n        return (uint(_proposals[provider]._state), _proposals[provider]._providerInfo);\r\n    }\r\n    \r\n    // Contract basic information\r\n\r\n    function retrieveCredentialsContractAddress() public view returns (Credentials) {\r\n        return _credentialsContract;\r\n    }\r\n    \r\n    function retrieveChairPerson() public view returns (address) {\r\n        return _chairperson;\r\n    }\r\n    \r\n}",
  "sourcePath": "C:/Users/d-aam/GitHub/Credentials/contracts/Proposals.sol",
  "compiler": {
    "name": "solc",
    "version": "0.7.6+commit.7338295f.Emscripten.clang"
  },
  "schemaVersion": "3.3.4",
  "updatedAt": "2021-04-26T13:31:52.062Z",
  "devdoc": {
    "details": "Store & retrieve value in a variable",
    "kind": "dev",
    "methods": {},
    "title": "Storage",
    "version": 1
  },
  "userdoc": {
    "kind": "user",
    "methods": {},
    "version": 1
  }
}