{
  "contractName": "ENS",
  "abi": [
    {
      "anonymous": false,
      "inputs": [
        {
          "indexed": false,
          "internalType": "uint256",
          "name": "Id",
          "type": "uint256"
        },
        {
          "indexed": true,
          "internalType": "address",
          "name": "Proposer",
          "type": "address"
        },
        {
          "indexed": false,
          "internalType": "uint256",
          "name": "Deadline",
          "type": "uint256"
        },
        {
          "indexed": false,
          "internalType": "uint256",
          "name": "Threshold",
          "type": "uint256"
        }
      ],
      "name": "_AddedProposition",
      "type": "event"
    },
    {
      "anonymous": false,
      "inputs": [
        {
          "indexed": false,
          "internalType": "uint256",
          "name": "Id",
          "type": "uint256"
        },
        {
          "indexed": true,
          "internalType": "address",
          "name": "Proposer",
          "type": "address"
        }
      ],
      "name": "_CancelledProposition",
      "type": "event"
    },
    {
      "anonymous": false,
      "inputs": [
        {
          "indexed": false,
          "internalType": "bytes32",
          "name": "PrivatePoolNode",
          "type": "bytes32"
        }
      ],
      "name": "_NewPrivatePoolNode",
      "type": "event"
    },
    {
      "anonymous": false,
      "inputs": [
        {
          "indexed": false,
          "internalType": "string",
          "name": "PrivatePoolSuffix",
          "type": "string"
        }
      ],
      "name": "_NewPrivatePoolSuffix",
      "type": "event"
    },
    {
      "anonymous": false,
      "inputs": [
        {
          "indexed": false,
          "internalType": "bytes32",
          "name": "ProviderNode",
          "type": "bytes32"
        }
      ],
      "name": "_NewProviderNode",
      "type": "event"
    },
    {
      "anonymous": false,
      "inputs": [
        {
          "indexed": false,
          "internalType": "string",
          "name": "ProviderSuffix",
          "type": "string"
        }
      ],
      "name": "_NewProviderSuffix",
      "type": "event"
    },
    {
      "anonymous": false,
      "inputs": [
        {
          "indexed": false,
          "internalType": "address",
          "name": "Registry",
          "type": "address"
        }
      ],
      "name": "_NewRegistry",
      "type": "event"
    },
    {
      "anonymous": false,
      "inputs": [
        {
          "indexed": false,
          "internalType": "address",
          "name": "ReverseRegistry",
          "type": "address"
        }
      ],
      "name": "_NewReverseRegistry",
      "type": "event"
    },
    {
      "anonymous": false,
      "inputs": [
        {
          "indexed": false,
          "internalType": "bytes32",
          "name": "node",
          "type": "bytes32"
        },
        {
          "indexed": false,
          "internalType": "bytes32",
          "name": "label",
          "type": "bytes32"
        },
        {
          "indexed": false,
          "internalType": "address",
          "name": "addr",
          "type": "address"
        }
      ],
      "name": "_NewSubdomainCreated",
      "type": "event"
    },
    {
      "anonymous": false,
      "inputs": [
        {
          "indexed": false,
          "internalType": "uint256",
          "name": "Id",
          "type": "uint256"
        },
        {
          "indexed": true,
          "internalType": "address",
          "name": "Proposer",
          "type": "address"
        },
        {
          "indexed": false,
          "internalType": "uint256",
          "name": "VotesFor",
          "type": "uint256"
        },
        {
          "indexed": false,
          "internalType": "uint256",
          "name": "VotesAgainst",
          "type": "uint256"
        }
      ],
      "name": "_PropositionApproved",
      "type": "event"
    },
    {
      "anonymous": false,
      "inputs": [
        {
          "indexed": false,
          "internalType": "uint256",
          "name": "Id",
          "type": "uint256"
        },
        {
          "indexed": true,
          "internalType": "address",
          "name": "Proposer",
          "type": "address"
        },
        {
          "indexed": false,
          "internalType": "uint256",
          "name": "VotesFor",
          "type": "uint256"
        },
        {
          "indexed": false,
          "internalType": "uint256",
          "name": "VotesAgainst",
          "type": "uint256"
        }
      ],
      "name": "_PropositionRejected",
      "type": "event"
    },
    {
      "anonymous": false,
      "inputs": [
        {
          "indexed": false,
          "internalType": "uint256",
          "name": "Id",
          "type": "uint256"
        },
        {
          "indexed": true,
          "internalType": "address",
          "name": "Voter",
          "type": "address"
        },
        {
          "indexed": false,
          "internalType": "bool",
          "name": "Vote",
          "type": "bool"
        },
        {
          "indexed": false,
          "internalType": "uint256",
          "name": "AmountTokens",
          "type": "uint256"
        }
      ],
      "name": "_PropositionVote",
      "type": "event"
    },
    {
      "anonymous": false,
      "inputs": [
        {
          "indexed": true,
          "internalType": "uint256",
          "name": "Id",
          "type": "uint256"
        },
        {
          "indexed": false,
          "internalType": "address",
          "name": "From",
          "type": "address"
        },
        {
          "indexed": false,
          "internalType": "address",
          "name": "To",
          "type": "address"
        },
        {
          "indexed": false,
          "internalType": "uint256",
          "name": "Amount",
          "type": "uint256"
        }
      ],
      "name": "_UsedTokensTransfered",
      "type": "event"
    },
    {
      "inputs": [
        {
          "internalType": "address",
          "name": "chairPerson",
          "type": "address"
        },
        {
          "internalType": "address",
          "name": "managerContractAddress",
          "type": "address"
        },
        {
          "internalType": "string",
          "name": "contractName",
          "type": "string"
        },
        {
          "internalType": "string",
          "name": "contractVersion",
          "type": "string"
        }
      ],
      "name": "StdPropositionBaseContract_init",
      "outputs": [],
      "stateMutability": "nonpayable",
      "type": "function"
    },
    {
      "inputs": [],
      "name": "cancelProposition",
      "outputs": [],
      "stateMutability": "nonpayable",
      "type": "function"
    },
    {
      "inputs": [
        {
          "internalType": "address",
          "name": "from",
          "type": "address"
        },
        {
          "internalType": "address",
          "name": "to",
          "type": "address"
        },
        {
          "internalType": "uint256",
          "name": "amount",
          "type": "uint256"
        }
      ],
      "name": "onTokenBalanceChanged",
      "outputs": [],
      "stateMutability": "nonpayable",
      "type": "function"
    },
    {
      "inputs": [],
      "name": "retrieveChairPerson",
      "outputs": [
        {
          "internalType": "address",
          "name": "",
          "type": "address"
        }
      ],
      "stateMutability": "view",
      "type": "function"
    },
    {
      "inputs": [],
      "name": "retrieveContractConfig",
      "outputs": [
        {
          "internalType": "string",
          "name": "",
          "type": "string"
        },
        {
          "internalType": "string",
          "name": "",
          "type": "string"
        }
      ],
      "stateMutability": "view",
      "type": "function"
    },
    {
      "inputs": [],
      "name": "retrieveManagerContract",
      "outputs": [
        {
          "internalType": "address",
          "name": "",
          "type": "address"
        }
      ],
      "stateMutability": "view",
      "type": "function"
    },
    {
      "inputs": [],
      "name": "retrieveNextPropId",
      "outputs": [
        {
          "internalType": "uint256",
          "name": "",
          "type": "uint256"
        }
      ],
      "stateMutability": "view",
      "type": "function"
    },
    {
      "inputs": [
        {
          "internalType": "address",
          "name": "addr",
          "type": "address"
        },
        {
          "internalType": "uint256",
          "name": "nonce",
          "type": "uint256"
        }
      ],
      "name": "retrieveNonce",
      "outputs": [
        {
          "internalType": "bool",
          "name": "",
          "type": "bool"
        }
      ],
      "stateMutability": "view",
      "type": "function"
    },
    {
      "inputs": [],
      "name": "retrieveProposition",
      "outputs": [
        {
          "internalType": "bytes[]",
          "name": "",
          "type": "bytes[]"
        }
      ],
      "stateMutability": "view",
      "type": "function"
    },
    {
      "inputs": [],
      "name": "retrievePropositionStatus",
      "outputs": [
        {
          "internalType": "address",
          "name": "",
          "type": "address"
        },
        {
          "internalType": "uint256",
          "name": "",
          "type": "uint256"
        },
        {
          "internalType": "uint256",
          "name": "",
          "type": "uint256"
        },
        {
          "internalType": "uint256",
          "name": "",
          "type": "uint256"
        },
        {
          "internalType": "uint256",
          "name": "",
          "type": "uint256"
        }
      ],
      "stateMutability": "view",
      "type": "function"
    },
    {
      "inputs": [
        {
          "internalType": "uint256",
          "name": "PropId",
          "type": "uint256"
        },
        {
          "internalType": "address",
          "name": "voter",
          "type": "address"
        }
      ],
      "name": "retrieveVotesForVoter",
      "outputs": [
        {
          "internalType": "uint256",
          "name": "",
          "type": "uint256"
        }
      ],
      "stateMutability": "view",
      "type": "function"
    },
    {
      "inputs": [
        {
          "internalType": "bytes[]",
          "name": "NewValues",
          "type": "bytes[]"
        }
      ],
      "name": "sendProposition",
      "outputs": [],
      "stateMutability": "nonpayable",
      "type": "function"
    },
    {
      "inputs": [
        {
          "internalType": "bool",
          "name": "vote",
          "type": "bool"
        }
      ],
      "name": "voteProposition",
      "outputs": [],
      "stateMutability": "nonpayable",
      "type": "function"
    },
    {
      "inputs": [
        {
          "internalType": "address",
          "name": "voter",
          "type": "address"
        },
        {
          "internalType": "uint256",
          "name": "propID",
          "type": "uint256"
        },
        {
          "internalType": "bool",
          "name": "vote",
          "type": "bool"
        },
        {
          "internalType": "uint256",
          "name": "nonce",
          "type": "uint256"
        },
        {
          "internalType": "uint256",
          "name": "deadline",
          "type": "uint256"
        },
        {
          "internalType": "bytes",
          "name": "signature",
          "type": "bytes"
        }
      ],
      "name": "votePropositionOnBehalfOf",
      "outputs": [],
      "stateMutability": "nonpayable",
      "type": "function"
    },
    {
      "inputs": [
        {
          "internalType": "address",
          "name": "ENSRegistry",
          "type": "address"
        },
        {
          "internalType": "address",
          "name": "ENSReverseRegistry",
          "type": "address"
        },
        {
          "internalType": "bytes32[]",
          "name": "nodes",
          "type": "bytes32[]"
        },
        {
          "internalType": "string[]",
          "name": "suffixes",
          "type": "string[]"
        },
        {
          "internalType": "address",
          "name": "managerContractAddress",
          "type": "address"
        },
        {
          "internalType": "address",
          "name": "chairPerson",
          "type": "address"
        },
        {
          "internalType": "string",
          "name": "contractName",
          "type": "string"
        },
        {
          "internalType": "string",
          "name": "contractVersion",
          "type": "string"
        }
      ],
      "name": "ENS_init",
      "outputs": [],
      "stateMutability": "nonpayable",
      "type": "function"
    },
    {
      "inputs": [
        {
          "internalType": "bytes32",
          "name": "label",
          "type": "bytes32"
        },
        {
          "internalType": "address",
          "name": "addr",
          "type": "address"
        }
      ],
      "name": "createSubdomain",
      "outputs": [],
      "stateMutability": "nonpayable",
      "type": "function"
    },
    {
      "inputs": [],
      "name": "retrieveSettings",
      "outputs": [
        {
          "internalType": "address",
          "name": "",
          "type": "address"
        },
        {
          "internalType": "address",
          "name": "",
          "type": "address"
        },
        {
          "internalType": "bytes32",
          "name": "",
          "type": "bytes32"
        },
        {
          "internalType": "bytes32",
          "name": "",
          "type": "bytes32"
        },
        {
          "internalType": "string",
          "name": "",
          "type": "string"
        },
        {
          "internalType": "string",
          "name": "",
          "type": "string"
        }
      ],
      "stateMutability": "view",
      "type": "function"
    }
  ],
  "bytecode": "0x608060405234801561001057600080fd5b50613545806100206000396000f3fe608060405234801561001057600080fd5b50600436106100db5760003560e01c806304cc67a9146100e05780630f13bbc9146100f75780632f5019281461010c5780633c7df55d1461011f5780633feca4ca146101325780634044adb21461017b57806355457ee9146101b15780635b362e84146101b95780637faa3d6f146101d9578063840f6d17146101ec57806391f916711461022d578063a93316f514610240578063b049473f14610255578063c25669031461026f578063d2116a0214610282578063db85bc4d14610298578063e15aa3a6146102a9575b600080fd5b600b545b6040519081526020015b60405180910390f35b61010a610105366004612ca2565b6102bc565b005b61010a61011a366004613030565b610341565b61010a61012d366004612d2a565b610856565b61016b610140366004612d6b565b6001600160a01b03919091166000908152600260209081526040808320938352929052205460ff1690565b60405190151581526020016100ee565b6100e4610189366004613030565b6000918252600c602090815260408084206001600160a01b0393909316845291905290205490565b61010a610974565b6003546201000090046001600160a01b03165b6040516100ee91906131be565b61010a6101e7366004612d97565b610a4e565b600654600754600854600954600a54604080516001600160a01b0390961686526020860194909452928401919091526060830152608082015260a0016100ee565b61010a61023b366004612ff6565b610a6e565b610248610a7b565b6040516100ee91906132b8565b61025d610b54565b6040516100ee969594939291906131ec565b61010a61027d366004612bb3565b610cbf565b61028a610e13565b6040516100ee929190613340565b6004546001600160a01b03166101cc565b61010a6102b7366004612f3f565b610f3a565b600354610100900460ff16806102d5575060035460ff16155b6102fa5760405162461bcd60e51b81526004016102f19061336e565b60405180910390fd5b600354610100900460ff1615801561031c576003805461ffff19166101011790555b61032885858585610fb4565b801561033a576003805461ff00191690555b5050505050565b33806001600160a01b0316600360029054906101000a90046001600160a01b03166001600160a01b031663e220ad956040518163ffffffff1660e01b815260040160006040518083038186803b15801561039a57600080fd5b505afa1580156103ae573d6000803e3d6000fd5b505050506040513d6000823e601f3d908101601f191682016040526103d69190810190612e14565b6003815181106103e8576103e86134c0565b60200260200101516001600160a01b031614806104b95750806001600160a01b0316600360029054906101000a90046001600160a01b03166001600160a01b031663e220ad956040518163ffffffff1660e01b815260040160006040518083038186803b15801561045857600080fd5b505afa15801561046c573d6000803e3d6000fd5b505050506040513d6000823e601f3d908101601f191682016040526104949190810190612e14565b6004815181106104a6576104a66134c0565b60200260200101516001600160a01b0316145b6104ee5760405162461bcd60e51b81526004016102f1906020808252600490820152634543382d60e01b604082015260600190565b60006011549050600360029054906101000a90046001600160a01b03166001600160a01b031663e220ad956040518163ffffffff1660e01b815260040160006040518083038186803b15801561054357600080fd5b505afa158015610557573d6000803e3d6000fd5b505050506040513d6000823e601f3d908101601f1916820160405261057f9190810190612e14565b600381518110610591576105916134c0565b60200260200101516001600160a01b0316336001600160a01b031614156105b757506010545b604080516020808201849052818301879052825180830384018152606090920190925280519101206105e88161103e565b1561061d5760405162461bcd60e51b8152602060048201526005602482015264454333372d60d81b60448201526064016102f1565b600e54604051630178b8bf60e01b8152600481018490526000916001600160a01b031690630178b8bf9060240160206040518083038186803b15801561066257600080fd5b505afa158015610676573d6000803e3d6000fd5b505050506040513d601f19601f8201168201806040525081019061069a9190612b96565b600e546040516316a25cbd60e01b8152600481018690529192506000916001600160a01b03909116906316a25cbd9060240160206040518083038186803b1580156106e457600080fd5b505afa1580156106f8573d6000803e3d6000fd5b505050506040513d601f19601f8201168201806040525081019061071c91906130a7565b600e546040516305ef2c7f60e41b815260048101879052602481018a90523060448201526001600160a01b0385811660648301526001600160401b0384166084830152929350911690635ef2c7f09060a401600060405180830381600087803b15801561078857600080fd5b505af115801561079c573d6000803e3d6000fd5b505060405162d5fa2b60e81b8152600481018690526001600160a01b0389811660248301528593508316915063d5fa2b0090604401600060405180830381600087803b1580156107eb57600080fd5b505af11580156107ff573d6000803e3d6000fd5b505060408051888152602081018c90526001600160a01b038b168183015290517ff478df27434928d61ddd5f4a3fb449c3b4d33ce8a9a38237decb1dff9b501e6f9350908190036060019150a15050505050505050565b3373__Library_______________________________6337ea306382600360029054906101000a90046001600160a01b03166001600160a01b031663e220ad956040518163ffffffff1660e01b815260040160006040518083038186803b1580156108c057600080fd5b505afa1580156108d4573d6000803e3d6000fd5b505050506040513d6000823e601f3d908101601f191682016040526108fc9190810190612e14565b60028151811061090e5761090e6134c0565b60200260200101516040518363ffffffff1660e01b81526004016109339291906131d2565b60006040518083038186803b15801561094b57600080fd5b505af415801561095f573d6000803e3d6000fd5b5050505061096e8484846110c1565b50505050565b600161097f816110e3565b6006546040516337ea306360e01b8152339173__Library_______________________________916337ea3063916109c59185916001600160a01b0316906004016131d2565b60006040518083038186803b1580156109dd57600080fd5b505af41580156109f1573d6000803e3d6000fd5b505050506109fd611167565b610a05611171565b6006546005546040519081526001600160a01b03909116907f1fe8aec10c0a50fa765076161e08c1f961ced69594ff45cf7d559f593afe14799060200160405180910390a25050565b610a5c86868686868661119c565b610a6686856112f0565b505050505050565b610a7833826112f0565b50565b6060600d805480602002602001604051908101604052809291908181526020016000905b82821015610b4b578382906000526020600020018054610abe90613454565b80601f0160208091040260200160405190810160405280929190818152602001828054610aea90613454565b8015610b375780601f10610b0c57610100808354040283529160200191610b37565b820191906000526020600020905b815481529060010190602001808311610b1a57829003601f168201915b505050505081526020019060010190610a9f565b50505050905090565b600080600080606080600e60009054906101000a90046001600160a01b0316600f60009054906101000a90046001600160a01b031660105460115460126013818054610b9f90613454565b80601f0160208091040260200160405190810160405280929190818152602001828054610bcb90613454565b8015610c185780601f10610bed57610100808354040283529160200191610c18565b820191906000526020600020905b815481529060010190602001808311610bfb57829003601f168201915b50505050509150808054610c2b90613454565b80601f0160208091040260200160405190810160405280929190818152602001828054610c5790613454565b8015610ca45780601f10610c7957610100808354040283529160200191610ca4565b820191906000526020600020905b815481529060010190602001808311610c8757829003601f168201915b50505050509050955095509550955095509550909192939495565b600354610100900460ff1680610cd8575060035460ff16155b610cf45760405162461bcd60e51b81526004016102f19061336e565b600354610100900460ff16158015610d16576003805461ffff19166101011790555b610d22848685856102bc565b600e80546001600160a01b03808c166001600160a01b031992831617909255600f8054928b169290911691909117905586518790600090610d6557610d656134c0565b602002602001015160108190555086600181518110610d8657610d866134c0565b602002602001015160118190555085600081518110610da757610da76134c0565b602002602001015160129080519060200190610dc492919061288b565b5085600181518110610dd857610dd86134c0565b602002602001015160139080519060200190610df592919061288b565b508015610e08576003805461ff00191690555b505050505050505050565b60608060006001818054610e2690613454565b80601f0160208091040260200160405190810160405280929190818152602001828054610e5290613454565b8015610e9f5780601f10610e7457610100808354040283529160200191610e9f565b820191906000526020600020905b815481529060010190602001808311610e8257829003601f168201915b50505050509150808054610eb290613454565b80601f0160208091040260200160405190810160405280929190818152602001828054610ede90613454565b8015610f2b5780601f10610f0057610100808354040283529160200191610f2b565b820191906000526020600020905b815481529060010190602001808311610f0e57829003601f168201915b50505050509050915091509091565b610f4381611407565b610f4b6118d3565b60005b8151811015610fb057600d828281518110610f6b57610f6b6134c0565b60209081029190910181015182546001810184556000938452928290208151610f9d949190910192919091019061288b565b5080610fa88161348f565b915050610f4e565b5050565b600354610100900460ff1680610fcd575060035460ff16155b610fe95760405162461bcd60e51b81526004016102f19061336e565b600354610100900460ff1615801561100b576003805461ffff19166101011790555b61101484611c23565b600480546001600160a01b0319166001600160a01b0387161790556000600b556103288383611cb1565b600e54604051631ef3fca760e31b8152600481018390526000916001600160a01b03169063f79fe5389060240160206040518083038186803b15801561108357600080fd5b505afa158015611097573d6000803e3d6000fd5b505050506040513d601f19601f820116820180604052508101906110bb9190613013565b92915050565b6110c9611cd8565b1515600114156110de576110de838383611d12565b505050565b801561112a576110f1611cd8565b1515600114610a785760405162461bcd60e51b8152602060048201526005602482015264454332352d60d81b60448201526064016102f1565b611132611cd8565b15610a785760405162461bcd60e51b8152602060048201526005602482015264454332342d60d81b60448201526064016102f1565b61116f611e82565b565b60006005819055600680546001600160a01b0319169055600781905560088190556009819055600a55565b816111a681611e8e565b86846111b28282611ec5565b60055488146111eb5760405162461bcd60e51b8152602060048201526005602482015264454333352d60d81b60448201526064016102f1565b60405163432f9a5560e01b815273__SignatureLibrary______________________9063432f9a5590611232908c908c908c908c908c908c90600090600190600401613245565b60206040518083038186803b15801561124a57600080fd5b505af415801561125e573d6000803e3d6000fd5b505050506040513d601f19601f820116820180604052508101906112829190613013565b15156001146112bb5760405162461bcd60e51b8152602060048201526005602482015264454333322d60d81b60448201526064016102f1565b610e0889876001600160a01b03909116600090815260026020908152604080832093835292905220805460ff19166001179055565b60016112fb816110e3565b6005548390600061130c8383611f21565b9050600081116113465760405162461bcd60e51b8152602060048201526005602482015264454332332d60d81b60448201526064016102f1565b600061135787600560000154611f21565b9050851561137f5780600560040160008282546113749190613425565b909155506113999050565b806005800160008282546113939190613425565b90915550505b6005546113a7908883611f5e565b60055460408051918252871515602083015281018290526001600160a01b038816907f50f654d58981575c05e369cb129aeacb01e1b036af429380242cfc5d1a4b743f9060600160405180910390a26113fe611f9a565b50505050505050565b73__AddressLibrary________________________63f4ce9ae873__Library_______________________________63caa8f5898460008151811061144e5761144e6134c0565b60200260200101516040518263ffffffff1660e01b8152600401611472919061331a565b60006040518083038186803b15801561148a57600080fd5b505af415801561149e573d6000803e3d6000fd5b505050506040513d6000823e601f3d908101601f191682016040526114c69190810190612eb4565b6000815181106114d8576114d86134c0565b60200260200101516040518263ffffffff1660e01b81526004016114fe91815260200190565b60206040518083038186803b15801561151657600080fd5b505af415801561152a573d6000803e3d6000fd5b505050506040513d601f19601f8201168201806040525081019061154e9190612b96565b73__AddressLibrary________________________63f4ce9ae873__Library_______________________________63caa8f58985600181518110611595576115956134c0565b60200260200101516040518263ffffffff1660e01b81526004016115b9919061331a565b60006040518083038186803b1580156115d157600080fd5b505af41580156115e5573d6000803e3d6000fd5b505050506040513d6000823e601f3d908101601f1916820160405261160d9190810190612eb4565b60008151811061161f5761161f6134c0565b60200260200101516040518263ffffffff1660e01b815260040161164591815260200190565b60206040518083038186803b15801561165d57600080fd5b505af4158015611671573d6000803e3d6000fd5b505050506040513d601f19601f820116820180604052508101906116959190612b96565b73__Library_______________________________63caa8f589846002815181106116c2576116c26134c0565b60200260200101516040518263ffffffff1660e01b81526004016116e6919061331a565b60006040518083038186803b1580156116fe57600080fd5b505af4158015611712573d6000803e3d6000fd5b505050506040513d6000823e601f3d908101601f1916820160405261173a9190810190612eb4565b60008151811061174c5761174c6134c0565b602002602001015173__Library_______________________________63caa8f58985600381518110611781576117816134c0565b60200260200101516040518263ffffffff1660e01b81526004016117a5919061331a565b60006040518083038186803b1580156117bd57600080fd5b505af41580156117d1573d6000803e3d6000fd5b505050506040513d6000823e601f3d908101601f191682016040526117f99190810190612eb4565b60008151811061180b5761180b6134c0565b602002602001015184600481518110611826576118266134c0565b602002602001015185600581518110611841576118416134c0565b6020026020010151856001600160a01b031660006001600160a01b031614158061187357506001600160a01b03851615155b8061187d57508315155b8061188757508215155b80611893575060008251115b8061189f575060008151115b6113fe5760405162461bcd60e51b8152602060048201526005602482015264454332312d60d81b60448201526064016102f1565b60006118de816110e3565b60045433906000906001600160a01b03168214156118fe57506001611a35565b60006119098361206e565b90506000600360029054906101000a90046001600160a01b03166001600160a01b031663e220ad956040518163ffffffff1660e01b815260040160006040518083038186803b15801561195b57600080fd5b505afa15801561196f573d6000803e3d6000fd5b505050506040513d6000823e601f3d908101601f191682016040526119979190810190612e14565b6006815181106119a9576119a96134c0565b60200260200101516001600160a01b031663b049473f6040518163ffffffff1660e01b815260040160606040518083038186803b1580156119e957600080fd5b505afa1580156119fd573d6000803e3d6000fd5b505050506040513d601f19601f82011682018060405250810190611a219190613079565b9250505080821115611a3257600192505b50505b600181151514611a6f5760405162461bcd60e51b8152602060048201526005602482015264454332322d60d81b60448201526064016102f1565b600080600360029054906101000a90046001600160a01b03166001600160a01b031663e220ad956040518163ffffffff1660e01b815260040160006040518083038186803b158015611ac057600080fd5b505afa158015611ad4573d6000803e3d6000fd5b505050506040513d6000823e601f3d908101601f19168201604052611afc9190810190612e14565b600681518110611b0e57611b0e6134c0565b60200260200101516001600160a01b031663b049473f6040518163ffffffff1660e01b815260040160606040518083038186803b158015611b4e57600080fd5b505afa158015611b62573d6000803e3d6000fd5b505050506040513d601f19601f82011682018060405250810190611b869190613079565b50600680546001600160a01b031916331790559092509050611ba88242613425565b6007556008819055600b80546005819055906000611bc58361348f565b90915550506006546005546007546008546040516001600160a01b03909416937f472501d19bf75639b2e316cd36f8568b0c3ab943b82a87de3c086c98c1929df993611c1493909290916133bc565b60405180910390a25050505050565b600354610100900460ff1680611c3c575060035460ff16155b611c585760405162461bcd60e51b81526004016102f19061336e565b600354610100900460ff16158015611c7a576003805461ffff19166101011790555b6003805462010000600160b01b031916620100006001600160a01b038516021790558015610fb0576003805461ff00191690555050565b8151611cc490600090602085019061288b565b5080516110de90600190602084019061288b565b600754600090421015611ceb5750600190565b6006546001600160a01b031615611d0c57611d04611167565b611d0c611171565b50600090565b6001600160a01b03831615801590611d4e57506005546000908152600c602090815260408083206001600160a01b038716845290915290205415155b156110de576005546000908152600c602090815260408083206001600160a01b03871684529091529020548190811115611daa57506005546000908152600c602090815260408083206001600160a01b03871684529091529020545b6005546000908152600c602090815260408083206001600160a01b038816845290915281208054839290611ddf90849061343d565b90915550506001600160a01b03831615611e2e576005546000908152600c602090815260408083206001600160a01b038716845290915281208054839290611e28908490613425565b90915550505b600554604080516001600160a01b038088168252861660208201529081018390527f65fbd5e5dd32bea4aeca85bd0be0abf0e489d655dee888a7510d43b06dda2dba9060600160405180910390a250505050565b61116f600d600061290f565b804210610a785760405162461bcd60e51b8152602060048201526005602482015264454333332d60d81b60448201526064016102f1565b6001600160a01b038216600090815260026020908152604080832084845290915290205460ff1615610fb05760405162461bcd60e51b8152602060048201526005602482015264454333342d60d81b60448201526064016102f1565b6000818152600c602090815260408083206001600160a01b0386168452909152812054611f4d8461206e565b611f57919061343d565b9392505050565b6000838152600c602090815260408083206001600160a01b038616845290915281208054839290611f90908490613425565b9091555050505050565b6008546009541061200957611fad61218f565b611fb5611171565b600654600554600954600a546040516001600160a01b03909416937f23ca0034cf5aad32571b4a492e9598ea8a490e1643a60970e3cdc6933b55e49f93611fff93909290916133bc565b60405180910390a2565b600854600a541061116f5761201c611167565b612024611171565b600654600554600954600a546040516001600160a01b03909416937fa58eb6daa3c62c3f883973c4035e5bd3e81aa627c8379de068a7de42df122be293611fff93909290916133bc565b6000600360029054906101000a90046001600160a01b03166001600160a01b031663e220ad956040518163ffffffff1660e01b815260040160006040518083038186803b1580156120be57600080fd5b505afa1580156120d2573d6000803e3d6000fd5b505050506040513d6000823e601f3d908101601f191682016040526120fa9190810190612e14565b60028151811061210c5761210c6134c0565b60200260200101516001600160a01b03166370a08231836040518263ffffffff1660e01b815260040161213f91906131be565b60206040518083038186803b15801561215757600080fd5b505afa15801561216b573d6000803e3d6000fd5b505050506040513d601f19601f820116820180604052508101906110bb9190613060565b611167600073__Library_______________________________63caa8f589600d6000815481106121c2576121c26134c0565b906000526020600020016040518263ffffffff1660e01b81526004016121e8919061332d565b60006040518083038186803b15801561220057600080fd5b505af4158015612214573d6000803e3d6000fd5b505050506040513d6000823e601f3d908101601f1916820160405261223c9190810190612eb4565b60008151811061224e5761224e6134c0565b60200260200101519050600073__Library_______________________________63caa8f589600d600181548110612288576122886134c0565b906000526020600020016040518263ffffffff1660e01b81526004016122ae919061332d565b60006040518083038186803b1580156122c657600080fd5b505af41580156122da573d6000803e3d6000fd5b505050506040513d6000823e601f3d908101601f191682016040526123029190810190612eb4565b600081518110612314576123146134c0565b60200260200101519050600073__Library_______________________________63caa8f589600d60028154811061234e5761234e6134c0565b906000526020600020016040518263ffffffff1660e01b8152600401612374919061332d565b60006040518083038186803b15801561238c57600080fd5b505af41580156123a0573d6000803e3d6000fd5b505050506040513d6000823e601f3d908101601f191682016040526123c89190810190612eb4565b6000815181106123da576123da6134c0565b60200260200101519050600073__Library_______________________________63caa8f589600d600381548110612414576124146134c0565b906000526020600020016040518263ffffffff1660e01b815260040161243a919061332d565b60006040518083038186803b15801561245257600080fd5b505af4158015612466573d6000803e3d6000fd5b505050506040513d6000823e601f3d908101601f1916820160405261248e9190810190612eb4565b6000815181106124a0576124a06134c0565b60200260200101519050600073__AddressLibrary________________________63f4ce9ae8866040518263ffffffff1660e01b81526004016124e591815260200190565b60206040518083038186803b1580156124fd57600080fd5b505af4158015612511573d6000803e3d6000fd5b505050506040513d601f19601f820116820180604052508101906125359190612b96565b604051631e99d35d60e31b81526004810186905290915060009073__AddressLibrary________________________9063f4ce9ae89060240160206040518083038186803b15801561258657600080fd5b505af415801561259a573d6000803e3d6000fd5b505050506040513d601f19601f820116820180604052508101906125be9190612b96565b90506001600160a01b0382161561262357600e80546001600160a01b0319166001600160a01b0384161790556040517f46e671841289b35d061dd0dfd2cbb135c0821b6e27418ca236e2ed8c14c3fd199061261a9084906131be565b60405180910390a15b6001600160a01b0381161561268657600f80546001600160a01b0319166001600160a01b0383161790556040517f576081cc849894908eb3a7d760dd8e300e9c5062f9e9e6742cd40d5bd5b721a09061267d9083906131be565b60405180910390a15b83156126c55760108490556040518481527f4912880141eb4d979703a76489842d58bb8cbe04db86cc99b65a0b05df1e2cce9060200160405180910390a15b82156127045760118390556040518381527f7cbcf1216e5dec7aec240d0d758333758442e4cc1dcb03228890a420597b6acc9060200160405180910390a15b6000600d60048154811061271a5761271a6134c0565b90600052602060002001805461272f90613454565b905011156127c457600d60048154811061274b5761274b6134c0565b90600052602060002001601290805461276390613454565b61276e92919061292d565b507fa2dada33a12d08905d2f295b1a40a285307663ca598181beaf9d4aa7113ed9b9600d6004815481106127a4576127a46134c0565b906000526020600020016040516127bb919061332d565b60405180910390a15b6000600d6005815481106127da576127da6134c0565b9060005260206000200180546127ef90613454565b90501115610a6657600d60058154811061280b5761280b6134c0565b90600052602060002001601390805461282390613454565b61282e92919061292d565b507fccb545f9ffecd19b972359be13e9b43cfb1f81532ea75ac386e85241958aba05600d600581548110612864576128646134c0565b9060005260206000200160405161287b919061332d565b60405180910390a1505050505050565b82805461289790613454565b90600052602060002090601f0160209004810192826128b957600085556128ff565b82601f106128d257805160ff19168380011785556128ff565b828001600101855582156128ff579182015b828111156128ff5782518255916020019190600101906128e4565b5061290b9291506129a8565b5090565b5080546000825590600052602060002090810190610a7891906129bd565b82805461293990613454565b90600052602060002090601f01602090048101928261295b57600085556128ff565b82601f1061296c57805485556128ff565b828001600101855582156128ff57600052602060002091601f016020900482015b828111156128ff57825482559160010191906001019061298d565b5b8082111561290b57600081556001016129a9565b8082111561290b5760006129d182826129da565b506001016129bd565b5080546129e690613454565b6000825580601f106129f6575050565b601f016020900490600052602060002090810190610a7891906129a8565b8035612a1f816134ec565b919050565b600082601f830112612a3557600080fd5b81356020612a4a612a4583613402565b6133d2565b80838252828201915082860187848660051b8901011115612a6a57600080fd5b60005b85811015612a8957813584529284019290840190600101612a6d565b5090979650505050505050565b600082601f830112612aa757600080fd5b81356020612ab7612a4583613402565b80838252828201915082860187848660051b8901011115612ad757600080fd5b6000805b86811015612b195782356001600160401b03811115612af8578283fd5b612b068b88838d0101612b27565b8652509385019391850191600101612adb565b509198975050505050505050565b600082601f830112612b3857600080fd5b81356001600160401b03811115612b5157612b516134d6565b612b64601f8201601f19166020016133d2565b818152846020838601011115612b7957600080fd5b816020850160208301376000918101602001919091529392505050565b600060208284031215612ba857600080fd5b8151611f57816134ec565b600080600080600080600080610100898b031215612bd057600080fd5b612bd989612a14565b9750612be760208a01612a14565b965060408901356001600160401b0380821115612c0357600080fd5b612c0f8c838d01612a24565b975060608b0135915080821115612c2557600080fd5b612c318c838d01612a96565b9650612c3f60808c01612a14565b9550612c4d60a08c01612a14565b945060c08b0135915080821115612c6357600080fd5b612c6f8c838d01612b27565b935060e08b0135915080821115612c8557600080fd5b50612c928b828c01612b27565b9150509295985092959890939650565b60008060008060808587031215612cb857600080fd5b8435612cc3816134ec565b93506020850135612cd3816134ec565b925060408501356001600160401b0380821115612cef57600080fd5b612cfb88838901612b27565b93506060870135915080821115612d1157600080fd5b50612d1e87828801612b27565b91505092959194509250565b600080600060608486031215612d3f57600080fd5b8335612d4a816134ec565b92506020840135612d5a816134ec565b929592945050506040919091013590565b60008060408385031215612d7e57600080fd5b8235612d89816134ec565b946020939093013593505050565b60008060008060008060c08789031215612db057600080fd5b8635612dbb816134ec565b9550602087013594506040870135612dd281613501565b9350606087013592506080870135915060a08701356001600160401b03811115612dfb57600080fd5b612e0789828a01612b27565b9150509295509295509295565b60006020808385031215612e2757600080fd5b82516001600160401b03811115612e3d57600080fd5b8301601f81018513612e4e57600080fd5b8051612e5c612a4582613402565b80828252848201915084840188868560051b8701011115612e7c57600080fd5b600094505b83851015612ea8578051612e94816134ec565b835260019490940193918501918501612e81565b50979650505050505050565b60006020808385031215612ec757600080fd5b82516001600160401b03811115612edd57600080fd5b8301601f81018513612eee57600080fd5b8051612efc612a4582613402565b80828252848201915084840188868560051b8701011115612f1c57600080fd5b600094505b83851015612ea8578051835260019490940193918501918501612f21565b60006020808385031215612f5257600080fd5b82356001600160401b0380821115612f6957600080fd5b818501915085601f830112612f7d57600080fd5b8135612f8b612a4582613402565b80828252858201915085850189878560051b8801011115612fab57600080fd5b6000805b85811015612fe657823587811115612fc5578283fd5b612fd38d8b838c0101612b27565b8652509388019391880191600101612faf565b50919a9950505050505050505050565b60006020828403121561300857600080fd5b8135611f5781613501565b60006020828403121561302557600080fd5b8151611f5781613501565b6000806040838503121561304357600080fd5b823591506020830135613055816134ec565b809150509250929050565b60006020828403121561307257600080fd5b5051919050565b60008060006060848603121561308e57600080fd5b8351925060208401519150604084015190509250925092565b6000602082840312156130b957600080fd5b81516001600160401b0381168114611f5757600080fd5b6000815180845260005b818110156130f6576020818501810151868301820152016130da565b81811115613108576000602083870101525b50601f01601f19169290920160200192915050565b8054600090600181811c908083168061313757607f831692505b602080841082141561315957634e487b7160e01b600052602260045260246000fd5b8388528180156131705760018114613184576131b2565b60ff198616898301526040890196506131b2565b876000528160002060005b868110156131aa5781548b820185015290850190830161318f565b8a0183019750505b50505050505092915050565b6001600160a01b0391909116815260200190565b6001600160a01b0392831681529116602082015260400190565b6001600160a01b03878116825286166020820152604081018590526060810184905260c060808201819052600090613226908301856130d0565b82810360a084015261323881856130d0565b9998505050505050505050565b600061010060018060a01b038b16835289602084015288151560408401528760608401528660808401528060a0840152613281818401876130d0565b905082810360c0840152613295818661311d565b905082810360e08401526132a9818561311d565b9b9a5050505050505050505050565b6000602080830181845280855180835260408601915060408160051b870101925083870160005b8281101561330d57603f198886030184526132fb8583516130d0565b945092850192908501906001016132df565b5092979650505050505050565b602081526000611f5760208301846130d0565b602081526000611f57602083018461311d565b60408152600061335360408301856130d0565b828103602084015261336581856130d0565b95945050505050565b6020808252602e908201527f496e697469616c697a61626c653a20636f6e747261637420697320616c72656160408201526d191e481a5b9a5d1a585b1a5e995960921b606082015260800190565b9283526020830191909152604082015260600190565b604051601f8201601f191681016001600160401b03811182821017156133fa576133fa6134d6565b604052919050565b60006001600160401b0382111561341b5761341b6134d6565b5060051b60200190565b60008219821115613438576134386134aa565b500190565b60008282101561344f5761344f6134aa565b500390565b600181811c9082168061346857607f821691505b6020821081141561348957634e487b7160e01b600052602260045260246000fd5b50919050565b60006000198214156134a3576134a36134aa565b5060010190565b634e487b7160e01b600052601160045260246000fd5b634e487b7160e01b600052603260045260246000fd5b634e487b7160e01b600052604160045260246000fd5b6001600160a01b0381168114610a7857600080fd5b8015158114610a7857600080fdfea2646970667358221220d94071e5bdef8b0aa848d7bba90fca394df9cc4e72b97d31086cdd12bdc75c4e64736f6c63430008070033",
  "immutableReferences": {},
  "source": "// SPDX-License-Identifier: GPL-3.0\r\n\r\npragma solidity 0.8.7;\r\n\r\n/**\r\n Price Converter is an interface to the Chain Link Price Registry for USD to ETH exchange\r\n */\r\n\r\nimport \"../Interfaces/IENS.sol\";\r\nimport \"../Base/StdPropositionBaseContract.sol\";\r\nimport \"../Interfaces/IENSRegistry.sol\";\r\nimport \"../Interfaces/IENSResolver.sol\";\r\n\r\ncontract ENS is IENS, StdPropositionBaseContract {\r\n\r\n    // EVENTS /////////////////////////////////////////\r\n    event _NewRegistry(address Registry);\r\n    event _NewReverseRegistry(address ReverseRegistry);\r\n    event _NewPrivatePoolNode(bytes32 PrivatePoolNode);\r\n    event _NewProviderNode(bytes32 ProviderNode);\r\n    event _NewPrivatePoolSuffix(string PrivatePoolSuffix);\r\n    event _NewProviderSuffix(string ProviderSuffix);\r\n    event _NewSubdomainCreated(bytes32 node, bytes32 label, address addr);\r\n\r\n    // DATA /////////////////////////////////////////\r\n    IENSRegistry internal _ENS;\r\n    address internal _ENSReverseRegistry;\r\n    bytes32 internal _PrivatePoolNode; \r\n    bytes32 internal _ProviderNode; \r\n    string internal _PrivatePoolENSSuffix; \r\n    string internal _ProviderENSSuffix; \r\n\r\n\r\n    // MODIFIERS /////////////////////////////////////////\r\n    modifier isFromAuthorizedContract(address addr){\r\n        require(_managerContract.retrieveTransparentProxies()[uint256(Library.TransparentProxies.PrivatePoolFactory)] == addr ||\r\n                _managerContract.retrieveTransparentProxies()[uint256(Library.TransparentProxies.ProviderFactory)] == addr, \"EC8-\");\r\n        _;\r\n    }\r\n\r\n    modifier arePropositionsOK(address addr1, address addr2, bytes32 privatenode, bytes32 providernode, bytes memory privatesuffix, bytes memory providersuffix){\r\n        require(address(0) != addr1 || address(0) != addr2 || privatenode > 0 || providernode > 0 || privatesuffix.length > 0 || providersuffix.length > 0, \"EC21-\");\r\n        _;\r\n    }\r\n\r\n    // CONSTRUCTOR /////////////////////////////////////////\r\n    function ENS_init(address ENSRegistry, address ENSReverseRegistry, bytes32[] memory nodes, string[] memory suffixes, address managerContractAddress, address chairPerson, string memory contractName, string memory contractVersion) public initializer \r\n    {\r\n        super.StdPropositionBaseContract_init(chairPerson, managerContractAddress, contractName, contractVersion);\r\n        _ENS = IENSRegistry(ENSRegistry);\r\n        _ENSReverseRegistry = ENSReverseRegistry;\r\n        _PrivatePoolNode = nodes[0];\r\n        _ProviderNode = nodes[1];\r\n        _PrivatePoolENSSuffix = suffixes[0];\r\n        _ProviderENSSuffix = suffixes[1];\r\n    }\r\n\r\n    // GOVERNANCE /////////////////////////////////////////\r\n    function checkProposition(bytes[] memory NewValues) internal override \r\n        arePropositionsOK(AddressLibrary.Bytes32ToAddress(Library.BytestoBytes32(NewValues[0])[0]),\r\n                            AddressLibrary.Bytes32ToAddress(Library.BytestoBytes32(NewValues[1])[0]),\r\n                            Library.BytestoBytes32(NewValues[2])[0],\r\n                            Library.BytestoBytes32(NewValues[3])[0],\r\n                            NewValues[4],\r\n                            NewValues[5])\r\n    {}\r\n\r\n    function UpdateAll() internal override\r\n    {\r\n        bytes32 NewRegistryAddressValue = Library.BytestoBytes32(_ProposedNewValues[0])[0];\r\n        bytes32 NewReverseRegistryAddressValue = Library.BytestoBytes32(_ProposedNewValues[1])[0];\r\n        bytes32 NewPrivatePoolNodeValue = Library.BytestoBytes32(_ProposedNewValues[2])[0];\r\n        bytes32 NewProviderNodeValue = Library.BytestoBytes32(_ProposedNewValues[3])[0];\r\n\r\n        address NewRegistryAddress = AddressLibrary.Bytes32ToAddress(NewRegistryAddressValue);\r\n        address NewReverseRegistryAddress = AddressLibrary.Bytes32ToAddress(NewReverseRegistryAddressValue);\r\n\r\n        if(address(0) != NewRegistryAddress){\r\n            _ENS = IENSRegistry(NewRegistryAddress);\r\n            emit _NewRegistry(NewRegistryAddress);\r\n        } \r\n\r\n        if(address(0) != NewReverseRegistryAddress){\r\n            _ENSReverseRegistry = NewReverseRegistryAddress;\r\n            emit _NewReverseRegistry(NewReverseRegistryAddress);\r\n        }\r\n\r\n        if(NewPrivatePoolNodeValue > 0) {\r\n            _PrivatePoolNode = NewPrivatePoolNodeValue;\r\n            emit _NewPrivatePoolNode(NewPrivatePoolNodeValue);\r\n        }\r\n\r\n        if(NewProviderNodeValue > 0) {\r\n            _ProviderNode = NewProviderNodeValue;\r\n            emit _NewProviderNode(NewProviderNodeValue);\r\n        }\r\n\r\n        if(_ProposedNewValues[4].length > 0) {\r\n            _PrivatePoolENSSuffix = string(_ProposedNewValues[4]);\r\n            emit _NewPrivatePoolSuffix(string(_ProposedNewValues[4]));\r\n        }\r\n\r\n        if(_ProposedNewValues[5].length > 0) {\r\n            _ProviderENSSuffix = string(_ProposedNewValues[5]);\r\n            emit _NewProviderSuffix(string(_ProposedNewValues[5]));\r\n        }\r\n\r\n    }\r\n\r\n    // FUNCTIONALITY /////////////////////////////////////////\r\n    function check(bytes32 node) internal view returns(bool) {\r\n        return _ENS.recordExists(node);\r\n    }\r\n\r\n    function createSubdomain(bytes32 label, address addr) external override\r\n        isFromAuthorizedContract(msg.sender)\r\n    {\r\n        bytes32 node = _ProviderNode;\r\n        if(msg.sender == _managerContract.retrieveTransparentProxies()[uint256(Library.TransparentProxies.PrivatePoolFactory)]) node = _PrivatePoolNode;\r\n\r\n        bytes32 FullNode = keccak256(abi.encodePacked(node, label));\r\n        require(false == check(FullNode), \"EC37-\");\r\n\r\n        address resolverAddress = _ENS.resolver(node);\r\n        uint64 ttl = _ENS.ttl(node);\r\n\r\n        _ENS.setSubnodeRecord(node, label, address(this), resolverAddress, ttl);\r\n        IENSResolver resolver = IENSResolver(resolverAddress);\r\n        resolver.setAddr(FullNode, addr);\r\n\r\n        emit _NewSubdomainCreated(node, label, addr);\r\n    }\r\n\r\n    function retrieveSettings() external override view returns(address, address, bytes32, bytes32, string memory, string memory)\r\n    {\r\n        return (address(_ENS), _ENSReverseRegistry, _PrivatePoolNode, _ProviderNode, _PrivatePoolENSSuffix, _ProviderENSSuffix);\r\n    }\r\n    \r\n\r\n}",
  "sourcePath": "C:\\Users\\d-aam\\GitHub\\Certificates\\contracts\\DeployedContracts\\ENS.sol",
  "compiler": {
    "name": "solc",
    "version": "0.8.7+commit.e28d00a7.Emscripten.clang"
  },
  "schemaVersion": "3.4.3",
  "updatedAt": "2022-01-14T08:07:10.930Z",
  "devdoc": {
    "kind": "dev",
    "methods": {},
    "version": 1
  },
  "userdoc": {
    "kind": "user",
    "methods": {},
    "version": 1
  }
}