{
  "contractName": "ENS",
  "abi": [
    {
      "anonymous": false,
      "inputs": [
        {
          "indexed": false,
          "internalType": "uint256",
          "name": "Id",
          "type": "uint256"
        },
        {
          "indexed": true,
          "internalType": "address",
          "name": "Proposer",
          "type": "address"
        },
        {
          "indexed": false,
          "internalType": "uint256",
          "name": "Deadline",
          "type": "uint256"
        },
        {
          "indexed": false,
          "internalType": "uint256",
          "name": "Threshold",
          "type": "uint256"
        }
      ],
      "name": "_AddedProposition",
      "type": "event"
    },
    {
      "anonymous": false,
      "inputs": [
        {
          "indexed": false,
          "internalType": "uint256",
          "name": "Id",
          "type": "uint256"
        },
        {
          "indexed": true,
          "internalType": "address",
          "name": "Proposer",
          "type": "address"
        }
      ],
      "name": "_CancelledProposition",
      "type": "event"
    },
    {
      "anonymous": false,
      "inputs": [
        {
          "indexed": false,
          "internalType": "address",
          "name": "Registry",
          "type": "address"
        },
        {
          "indexed": false,
          "internalType": "address",
          "name": "ReverseRegistry",
          "type": "address"
        },
        {
          "indexed": false,
          "internalType": "bytes32",
          "name": "PrivatePoolNode",
          "type": "bytes32"
        },
        {
          "indexed": false,
          "internalType": "bytes32",
          "name": "ProviderNode",
          "type": "bytes32"
        }
      ],
      "name": "_NewSettings",
      "type": "event"
    },
    {
      "anonymous": false,
      "inputs": [
        {
          "indexed": false,
          "internalType": "bytes32",
          "name": "node",
          "type": "bytes32"
        },
        {
          "indexed": false,
          "internalType": "bytes32",
          "name": "label",
          "type": "bytes32"
        }
      ],
      "name": "_NewSubdomainCreated",
      "type": "event"
    },
    {
      "anonymous": false,
      "inputs": [
        {
          "indexed": false,
          "internalType": "uint256",
          "name": "Id",
          "type": "uint256"
        },
        {
          "indexed": true,
          "internalType": "address",
          "name": "Proposer",
          "type": "address"
        },
        {
          "indexed": false,
          "internalType": "uint256",
          "name": "VotesFor",
          "type": "uint256"
        },
        {
          "indexed": false,
          "internalType": "uint256",
          "name": "VotesAgainst",
          "type": "uint256"
        }
      ],
      "name": "_PropositionApproved",
      "type": "event"
    },
    {
      "anonymous": false,
      "inputs": [
        {
          "indexed": false,
          "internalType": "uint256",
          "name": "Id",
          "type": "uint256"
        },
        {
          "indexed": true,
          "internalType": "address",
          "name": "Proposer",
          "type": "address"
        },
        {
          "indexed": false,
          "internalType": "uint256",
          "name": "VotesFor",
          "type": "uint256"
        },
        {
          "indexed": false,
          "internalType": "uint256",
          "name": "VotesAgainst",
          "type": "uint256"
        }
      ],
      "name": "_PropositionRejected",
      "type": "event"
    },
    {
      "anonymous": false,
      "inputs": [
        {
          "indexed": false,
          "internalType": "uint256",
          "name": "Id",
          "type": "uint256"
        },
        {
          "indexed": true,
          "internalType": "address",
          "name": "Voter",
          "type": "address"
        },
        {
          "indexed": false,
          "internalType": "bool",
          "name": "Vote",
          "type": "bool"
        },
        {
          "indexed": false,
          "internalType": "uint256",
          "name": "AmountTokens",
          "type": "uint256"
        }
      ],
      "name": "_PropositionVote",
      "type": "event"
    },
    {
      "anonymous": false,
      "inputs": [
        {
          "indexed": true,
          "internalType": "uint256",
          "name": "Id",
          "type": "uint256"
        },
        {
          "indexed": false,
          "internalType": "address",
          "name": "From",
          "type": "address"
        },
        {
          "indexed": false,
          "internalType": "address",
          "name": "To",
          "type": "address"
        },
        {
          "indexed": false,
          "internalType": "uint256",
          "name": "Amount",
          "type": "uint256"
        }
      ],
      "name": "_UsedTokensTransfered",
      "type": "event"
    },
    {
      "inputs": [
        {
          "internalType": "address",
          "name": "chairPerson",
          "type": "address"
        },
        {
          "internalType": "address",
          "name": "managerContractAddress",
          "type": "address"
        },
        {
          "internalType": "string",
          "name": "contractName",
          "type": "string"
        },
        {
          "internalType": "string",
          "name": "contractVersion",
          "type": "string"
        }
      ],
      "name": "StdPropositionBaseContract_init",
      "outputs": [],
      "stateMutability": "nonpayable",
      "type": "function"
    },
    {
      "inputs": [],
      "name": "cancelProposition",
      "outputs": [],
      "stateMutability": "nonpayable",
      "type": "function"
    },
    {
      "inputs": [
        {
          "internalType": "address",
          "name": "from",
          "type": "address"
        },
        {
          "internalType": "address",
          "name": "to",
          "type": "address"
        },
        {
          "internalType": "uint256",
          "name": "amount",
          "type": "uint256"
        }
      ],
      "name": "onTokenBalanceChanged",
      "outputs": [],
      "stateMutability": "nonpayable",
      "type": "function"
    },
    {
      "inputs": [],
      "name": "retrieveChairPerson",
      "outputs": [
        {
          "internalType": "address",
          "name": "",
          "type": "address"
        }
      ],
      "stateMutability": "view",
      "type": "function",
      "constant": true
    },
    {
      "inputs": [],
      "name": "retrieveContractConfig",
      "outputs": [
        {
          "internalType": "string",
          "name": "",
          "type": "string"
        },
        {
          "internalType": "string",
          "name": "",
          "type": "string"
        }
      ],
      "stateMutability": "view",
      "type": "function",
      "constant": true
    },
    {
      "inputs": [],
      "name": "retrieveManagerContract",
      "outputs": [
        {
          "internalType": "address",
          "name": "",
          "type": "address"
        }
      ],
      "stateMutability": "view",
      "type": "function",
      "constant": true
    },
    {
      "inputs": [],
      "name": "retrieveNextPropId",
      "outputs": [
        {
          "internalType": "uint256",
          "name": "",
          "type": "uint256"
        }
      ],
      "stateMutability": "view",
      "type": "function",
      "constant": true
    },
    {
      "inputs": [
        {
          "internalType": "address",
          "name": "addr",
          "type": "address"
        },
        {
          "internalType": "uint256",
          "name": "nonce",
          "type": "uint256"
        }
      ],
      "name": "retrieveNonce",
      "outputs": [
        {
          "internalType": "bool",
          "name": "",
          "type": "bool"
        }
      ],
      "stateMutability": "view",
      "type": "function",
      "constant": true
    },
    {
      "inputs": [],
      "name": "retrieveProposition",
      "outputs": [
        {
          "internalType": "bytes32[]",
          "name": "",
          "type": "bytes32[]"
        }
      ],
      "stateMutability": "view",
      "type": "function",
      "constant": true
    },
    {
      "inputs": [],
      "name": "retrievePropositionStatus",
      "outputs": [
        {
          "internalType": "address",
          "name": "",
          "type": "address"
        },
        {
          "internalType": "uint256",
          "name": "",
          "type": "uint256"
        },
        {
          "internalType": "uint256",
          "name": "",
          "type": "uint256"
        },
        {
          "internalType": "uint256",
          "name": "",
          "type": "uint256"
        },
        {
          "internalType": "uint256",
          "name": "",
          "type": "uint256"
        }
      ],
      "stateMutability": "view",
      "type": "function",
      "constant": true
    },
    {
      "inputs": [
        {
          "internalType": "uint256",
          "name": "PropId",
          "type": "uint256"
        },
        {
          "internalType": "address",
          "name": "voter",
          "type": "address"
        }
      ],
      "name": "retrieveVotesForVoter",
      "outputs": [
        {
          "internalType": "uint256",
          "name": "",
          "type": "uint256"
        }
      ],
      "stateMutability": "view",
      "type": "function",
      "constant": true
    },
    {
      "inputs": [
        {
          "internalType": "bytes32[]",
          "name": "NewValues",
          "type": "bytes32[]"
        }
      ],
      "name": "sendProposition",
      "outputs": [],
      "stateMutability": "nonpayable",
      "type": "function"
    },
    {
      "inputs": [
        {
          "internalType": "bool",
          "name": "vote",
          "type": "bool"
        }
      ],
      "name": "voteProposition",
      "outputs": [],
      "stateMutability": "nonpayable",
      "type": "function"
    },
    {
      "inputs": [
        {
          "internalType": "address",
          "name": "voter",
          "type": "address"
        },
        {
          "internalType": "uint256",
          "name": "propID",
          "type": "uint256"
        },
        {
          "internalType": "bool",
          "name": "vote",
          "type": "bool"
        },
        {
          "internalType": "uint256",
          "name": "nonce",
          "type": "uint256"
        },
        {
          "internalType": "uint256",
          "name": "deadline",
          "type": "uint256"
        },
        {
          "internalType": "bytes",
          "name": "signature",
          "type": "bytes"
        }
      ],
      "name": "votePropositionOnBehalfOf",
      "outputs": [],
      "stateMutability": "nonpayable",
      "type": "function"
    },
    {
      "inputs": [
        {
          "internalType": "address",
          "name": "ENSRegistry",
          "type": "address"
        },
        {
          "internalType": "address",
          "name": "ENSReverseRegistry",
          "type": "address"
        },
        {
          "internalType": "bytes32[]",
          "name": "nodes",
          "type": "bytes32[]"
        },
        {
          "internalType": "address",
          "name": "managerContractAddress",
          "type": "address"
        },
        {
          "internalType": "address",
          "name": "chairPerson",
          "type": "address"
        },
        {
          "internalType": "string",
          "name": "contractName",
          "type": "string"
        },
        {
          "internalType": "string",
          "name": "contractVersion",
          "type": "string"
        }
      ],
      "name": "ENS_init",
      "outputs": [],
      "stateMutability": "nonpayable",
      "type": "function"
    },
    {
      "inputs": [
        {
          "internalType": "bytes32",
          "name": "label",
          "type": "bytes32"
        }
      ],
      "name": "createSubdomain",
      "outputs": [],
      "stateMutability": "nonpayable",
      "type": "function"
    },
    {
      "inputs": [],
      "name": "retrieveSettings",
      "outputs": [
        {
          "internalType": "address",
          "name": "",
          "type": "address"
        },
        {
          "internalType": "address",
          "name": "",
          "type": "address"
        },
        {
          "internalType": "bytes32",
          "name": "",
          "type": "bytes32"
        },
        {
          "internalType": "bytes32",
          "name": "",
          "type": "bytes32"
        }
      ],
      "stateMutability": "view",
      "type": "function",
      "constant": true
    }
  ],
  "bytecode": "0x608060405234801561001057600080fd5b50612763806100206000396000f3fe608060405234801561001057600080fd5b50600436106100db5760003560e01c806304cc67a9146100e05780630f13bbc9146100f75780633c7df55d1461010c5780633feca4ca1461011f5780634044adb21461016857806355457ee91461019e5780635b362e84146101a65780637746a5dc146101c65780637faa3d6f146101d9578063840f6d17146101ec578063876865d31461022d57806391f9167114610240578063a93316f514610253578063b049473f14610268578063d2116a0214610290578063db85bc4d146102a6578063ea1ff617146102b7575b600080fd5b600b545b6040519081526020015b60405180910390f35b61010a610105366004612082565b6102ca565b005b61010a61011a36600461210a565b61034f565b61015861012d36600461214b565b6001600160a01b03919091166000908152600260209081526040808320938352929052205460ff1690565b60405190151581526020016100ee565b6100e46101763660046122b0565b6000918252600c602090815260408084206001600160a01b0393909316845291905290205490565b61010a61044f565b6003546201000090046001600160a01b03165b6040516100ee9190612432565b61010a6101d436600461227e565b610521565b61010a6101e7366004612177565b610990565b600654600754600854600954600a54604080516001600160a01b0390961686526020860194909452928401919091526060830152608082015260a0016100ee565b61010a61023b366004611fb4565b6109b0565b61010a61024e366004612244565b610aa1565b61025b610aae565b6040516100ee91906124fc565b600e54600f546010546011546040516100ee946001600160a01b039081169416929190612460565b610298610b06565b6040516100ee929190612540565b6004546001600160a01b03166101b9565b61010a6102c5366004612208565b610c2d565b600354610100900460ff16806102e3575060035460ff16155b6103085760405162461bcd60e51b81526004016102ff9061256e565b60405180910390fd5b600354610100900460ff1615801561032a576003805461ffff19166101011790555b61033685858585610c8a565b8015610348576003805461ff00191690555b5050505050565b3373__Library_______________________________6337ea306382600360029054906101000a90046001600160a01b03166001600160a01b031663da3dce266040518163ffffffff1660e01b815260040160206040518083038186803b1580156103b957600080fd5b505afa1580156103cd573d6000803e3d6000fd5b505050506040513d601f19601f820116820180604052508101906103f19190611f97565b6040518363ffffffff1660e01b815260040161040e929190612446565b60006040518083038186803b15801561042657600080fd5b505af415801561043a573d6000803e3d6000fd5b50505050610449848484610d14565b50505050565b600161045a81610d36565b6006546040516337ea306360e01b8152339173__Library_______________________________916337ea3063916104a09185916001600160a01b031690600401612446565b60006040518083038186803b1580156104b857600080fd5b505af41580156104cc573d6000803e3d6000fd5b505050506104d8610dba565b6006546005546040519081526001600160a01b03909116907f1fe8aec10c0a50fa765076161e08c1f961ced69594ff45cf7d559f593afe14799060200160405180910390a25050565b33806001600160a01b0316600360029054906101000a90046001600160a01b03166001600160a01b0316633c65d4276040518163ffffffff1660e01b815260040160206040518083038186803b15801561057a57600080fd5b505afa15801561058e573d6000803e3d6000fd5b505050506040513d601f19601f820116820180604052508101906105b29190611f97565b6001600160a01b0316148061065d5750806001600160a01b0316600360029054906101000a90046001600160a01b03166001600160a01b0316635773bc236040518163ffffffff1660e01b815260040160206040518083038186803b15801561061a57600080fd5b505afa15801561062e573d6000803e3d6000fd5b505050506040513d601f19601f820116820180604052508101906106529190611f97565b6001600160a01b0316145b6106925760405162461bcd60e51b81526004016102ff906020808252600490820152634543382d60e01b604082015260600190565b60006011549050600360029054906101000a90046001600160a01b03166001600160a01b0316633c65d4276040518163ffffffff1660e01b815260040160206040518083038186803b1580156106e757600080fd5b505afa1580156106fb573d6000803e3d6000fd5b505050506040513d601f19601f8201168201806040525081019061071f9190611f97565b6001600160a01b0316336001600160a01b0316141561073d57506010545b6040805160208082018490528183018690528251808303840181526060909201909252805191012061076e81610de5565b156107a35760405162461bcd60e51b8152602060048201526005602482015264454333372d60d81b60448201526064016102ff565b600e54604051630178b8bf60e01b8152600481018490526000916001600160a01b031690630178b8bf9060240160206040518083038186803b1580156107e857600080fd5b505afa1580156107fc573d6000803e3d6000fd5b505050506040513d601f19601f820116820180604052508101906108209190611f97565b600e546040516316a25cbd60e01b8152600481018690529192506000916001600160a01b03909116906316a25cbd9060240160206040518083038186803b15801561086a57600080fd5b505afa15801561087e573d6000803e3d6000fd5b505050506040513d601f19601f820116820180604052508101906108a2919061231c565b600e546040516305ef2c7f60e41b815260048101879052602481018990523060448201526001600160a01b0385811660648301526001600160401b0384166084830152929350911690635ef2c7f09060a401600060405180830381600087803b15801561090e57600080fd5b505af1158015610922573d6000803e3d6000fd5b505060405162d5fa2b60e81b8152600481018690523360248201528492506001600160a01b038316915063d5fa2b0090604401600060405180830381600087803b15801561096f57600080fd5b505af1158015610983573d6000803e3d6000fd5b5050505050505050505050565b61099e868686868686610e68565b6109a88685610fc7565b505050505050565b600354610100900460ff16806109c9575060035460ff16155b6109e55760405162461bcd60e51b81526004016102ff9061256e565b600354610100900460ff16158015610a07576003805461ffff19166101011790555b610a13848685856102ca565b600e80546001600160a01b03808b166001600160a01b031992831617909255600f8054928a169290911691909117905585518690600090610a5657610a566126de565b602002602001015160108190555085600181518110610a7757610a776126de565b60200260200101516011819055508015610a97576003805461ff00191690555b5050505050505050565b610aab3382610fc7565b50565b6060600d805480602002602001604051908101604052809291908181526020018280548015610afc57602002820191906000526020600020905b815481526020019060010190808311610ae8575b5050505050905090565b60608060006001818054610b1990612672565b80601f0160208091040260200160405190810160405280929190818152602001828054610b4590612672565b8015610b925780601f10610b6757610100808354040283529160200191610b92565b820191906000526020600020905b815481529060010190602001808311610b7557829003601f168201915b50505050509150808054610ba590612672565b80601f0160208091040260200160405190810160405280929190818152602001828054610bd190612672565b8015610c1e5780601f10610bf357610100808354040283529160200191610c1e565b820191906000526020600020905b815481529060010190602001808311610c0157829003601f168201915b50505050509050915091509091565b610c356110de565b60005b8151811015610c8657600d828281518110610c5557610c556126de565b6020908102919091018101518254600181018455600093845291909220015580610c7e816126ad565b915050610c38565b5050565b600354610100900460ff1680610ca3575060035460ff16155b610cbf5760405162461bcd60e51b81526004016102ff9061256e565b600354610100900460ff16158015610ce1576003805461ffff19166101011790555b610cea84611432565b600480546001600160a01b0319166001600160a01b0387161790556000600b5561033683836114c0565b610d1c6114e7565b151560011415610d3157610d31838383611521565b505050565b8015610d7d57610d446114e7565b1515600114610aab5760405162461bcd60e51b8152602060048201526005602482015264454332352d60d81b60448201526064016102ff565b610d856114e7565b15610aab5760405162461bcd60e51b8152602060048201526005602482015264454332342d60d81b60448201526064016102ff565b60006005819055600680546001600160a01b0319169055600781905560088190556009819055600a55565b600e54604051631ef3fca760e31b8152600481018390526000916001600160a01b03169063f79fe5389060240160206040518083038186803b158015610e2a57600080fd5b505afa158015610e3e573d6000803e3d6000fd5b505050506040513d601f19601f82011682018060405250810190610e629190612261565b92915050565b81610e7281611691565b8684610e7e82826116c8565b6005548814610eb75760405162461bcd60e51b8152602060048201526005602482015264454333352d60d81b60448201526064016102ff565b60405163432f9a5560e01b815273__SignatureLibrary______________________9063432f9a5590610efe908c908c908c908c908c908c90600090600190600401612489565b60206040518083038186803b158015610f1657600080fd5b505af4158015610f2a573d6000803e3d6000fd5b505050506040513d601f19601f82011682018060405250810190610f4e9190612261565b1515600114610f875760405162461bcd60e51b8152602060048201526005602482015264454333322d60d81b60448201526064016102ff565b610fbc89876001600160a01b03909116600090815260026020908152604080832093835292905220805460ff19166001179055565b505050505050505050565b6001610fd281610d36565b60055483906000610fe38383611724565b90506000811161101d5760405162461bcd60e51b8152602060048201526005602482015264454332332d60d81b60448201526064016102ff565b600061102e87600560000154611724565b9050851561105657806005600401600082825461104b9190612602565b909155506110709050565b8060058001600082825461106a9190612602565b90915550505b60055461107e908883611761565b60055460408051918252871515602083015281018290526001600160a01b038816907f50f654d58981575c05e369cb129aeacb01e1b036af429380242cfc5d1a4b743f9060600160405180910390a26110d561179d565b50505050505050565b60006110e981610d36565b60045433906000906001600160a01b031682141561110957506001611242565b600061111483611873565b90506000600360029054906101000a90046001600160a01b03166001600160a01b03166387552a0d6040518163ffffffff1660e01b815260040160206040518083038186803b15801561116657600080fd5b505afa15801561117a573d6000803e3d6000fd5b505050506040513d601f19601f8201168201806040525081019061119e9190611f97565b6001600160a01b031663b049473f6040518163ffffffff1660e01b815260040160606040518083038186803b1580156111d657600080fd5b505afa1580156111ea573d6000803e3d6000fd5b505050506040513d601f19601f8201168201806040525081019061120e91906122e0565b92505050606461121c611976565b6112299060ff841661263c565b611233919061261a565b82111561123f57600192505b50505b60018115151461127c5760405162461bcd60e51b8152602060048201526005602482015264454332322d60d81b60448201526064016102ff565b600080600360029054906101000a90046001600160a01b03166001600160a01b03166387552a0d6040518163ffffffff1660e01b815260040160206040518083038186803b1580156112cd57600080fd5b505afa1580156112e1573d6000803e3d6000fd5b505050506040513d601f19601f820116820180604052508101906113059190611f97565b6001600160a01b031663b049473f6040518163ffffffff1660e01b815260040160606040518083038186803b15801561133d57600080fd5b505afa158015611351573d6000803e3d6000fd5b505050506040513d601f19601f8201168201806040525081019061137591906122e0565b50600680546001600160a01b0319163317905590925090506113978242612602565b600755606460ff82166113a8611976565b6113b2919061263c565b6113bc919061261a565b600855600b805460058190559060006113d4836126ad565b90915550506006546005546007546008546040516001600160a01b03909416937f472501d19bf75639b2e316cd36f8568b0c3ab943b82a87de3c086c98c1929df99361142393909290916125bc565b60405180910390a25050505050565b600354610100900460ff168061144b575060035460ff16155b6114675760405162461bcd60e51b81526004016102ff9061256e565b600354610100900460ff16158015611489576003805461ffff19166101011790555b6003805462010000600160b01b031916620100006001600160a01b038516021790558015610c86576003805461ff00191690555050565b81516114d3906000906020850190611dc7565b508051610d31906001906020840190611dc7565b6007546000904210156114fa5750600190565b6006546001600160a01b03161561151b57611513611a73565b61151b610dba565b50600090565b6001600160a01b0383161580159061155d57506005546000908152600c602090815260408083206001600160a01b038716845290915290205415155b15610d31576005546000908152600c602090815260408083206001600160a01b038716845290915290205481908111156115b957506005546000908152600c602090815260408083206001600160a01b03871684529091529020545b6005546000908152600c602090815260408083206001600160a01b0388168452909152812080548392906115ee90849061265b565b90915550506001600160a01b0383161561163d576005546000908152600c602090815260408083206001600160a01b038716845290915281208054839290611637908490612602565b90915550505b600554604080516001600160a01b038088168252861660208201529081018390527f65fbd5e5dd32bea4aeca85bd0be0abf0e489d655dee888a7510d43b06dda2dba9060600160405180910390a250505050565b804210610aab5760405162461bcd60e51b8152602060048201526005602482015264454333332d60d81b60448201526064016102ff565b6001600160a01b038216600090815260026020908152604080832084845290915290205460ff1615610c865760405162461bcd60e51b8152602060048201526005602482015264454333342d60d81b60448201526064016102ff565b6000818152600c602090815260408083206001600160a01b038616845290915281205461175084611873565b61175a919061265b565b9392505050565b6000838152600c602090815260408083206001600160a01b038616845290915281208054839290611793908490612602565b9091555050505050565b6008546009541061180c576117b0611a7b565b6117b8610dba565b600654600554600954600a546040516001600160a01b03909416937f23ca0034cf5aad32571b4a492e9598ea8a490e1643a60970e3cdc6933b55e49f9361180293909290916125bc565b60405180910390a2565b600854600a54106118715761181f611a73565b611827610dba565b600654600554600954600a546040516001600160a01b03909416937fa58eb6daa3c62c3f883973c4035e5bd3e81aa627c8379de068a7de42df122be29361180293909290916125bc565b565b6000600360029054906101000a90046001600160a01b03166001600160a01b031663da3dce266040518163ffffffff1660e01b815260040160206040518083038186803b1580156118c357600080fd5b505afa1580156118d7573d6000803e3d6000fd5b505050506040513d601f19601f820116820180604052508101906118fb9190611f97565b6001600160a01b03166370a08231836040518263ffffffff1660e01b81526004016119269190612432565b60206040518083038186803b15801561193e57600080fd5b505afa158015611952573d6000803e3d6000fd5b505050506040513d601f19601f82011682018060405250810190610e629190612297565b6000600360029054906101000a90046001600160a01b03166001600160a01b031663da3dce266040518163ffffffff1660e01b815260040160206040518083038186803b1580156119c657600080fd5b505afa1580156119da573d6000803e3d6000fd5b505050506040513d601f19601f820116820180604052508101906119fe9190611f97565b6001600160a01b03166318160ddd6040518163ffffffff1660e01b815260040160206040518083038186803b158015611a3657600080fd5b505afa158015611a4a573d6000803e3d6000fd5b505050506040513d601f19601f82011682018060405250810190611a6e9190612297565b905090565b611871611a83565b611a73611a8f565b611871600d6000611e4b565b600073__AddressLibrary________________________63f4ce9ae8600d600081548110611abf57611abf6126de565b90600052602060002001546040518263ffffffff1660e01b8152600401611ae891815260200190565b60206040518083038186803b158015611b0057600080fd5b505af4158015611b14573d6000803e3d6000fd5b505050506040513d601f19601f82011682018060405250810190611b389190611f97565b9050600073__AddressLibrary________________________63f4ce9ae8600d600181548110611b6a57611b6a6126de565b90600052602060002001546040518263ffffffff1660e01b8152600401611b9391815260200190565b60206040518083038186803b158015611bab57600080fd5b505af4158015611bbf573d6000803e3d6000fd5b505050506040513d601f19601f82011682018060405250810190611be39190611f97565b90506001600160a01b03821615611c1457600e80546001600160a01b0319166001600160a01b038416179055611c23565b600e546001600160a01b031691505b6001600160a01b03811615611c5257600f80546001600160a01b0319166001600160a01b038316179055611c60565b50600f546001600160a01b03165b6000801b600d600181548110611c7857611c786126de565b90600052602060002001541115611cb157600d600281548110611c9d57611c9d6126de565b600091825260209091200154601055611cd5565b601054600d600181548110611cc857611cc86126de565b6000918252602090912001555b6000801b600d600281548110611ced57611ced6126de565b90600052602060002001541115611d2657600d600381548110611d1257611d126126de565b600091825260209091200154601155611d4a565b601154600d600281548110611d3d57611d3d6126de565b6000918252602090912001555b7f35ed6b44fdc05b26cba8d3c5eaf408158b31884e7fed448a8b516f626a4d80938282600d600281548110611d8157611d816126de565b9060005260206000200154600d600381548110611da057611da06126de565b9060005260206000200154604051611dbb9493929190612460565b60405180910390a15050565b828054611dd390612672565b90600052602060002090601f016020900481019282611df55760008555611e3b565b82601f10611e0e57805160ff1916838001178555611e3b565b82800160010185558215611e3b579182015b82811115611e3b578251825591602001919060010190611e20565b50611e47929150611e65565b5090565b5080546000825590600052602060002090810190610aab91905b5b80821115611e475760008155600101611e66565b60006001600160401b03831115611e9357611e936126f4565b611ea6601f8401601f19166020016125d2565b9050828152838383011115611eba57600080fd5b828260208301376000602084830101529392505050565b8035611edc8161270a565b919050565b600082601f830112611ef257600080fd5b813560206001600160401b03821115611f0d57611f0d6126f4565b8160051b611f1c8282016125d2565b838152828101908684018388018501891015611f3757600080fd5b600093505b85841015611f5a578035835260019390930192918401918401611f3c565b50979650505050505050565b600082601f830112611f7757600080fd5b61175a83833560208501611e7a565b805160ff81168114611edc57600080fd5b600060208284031215611fa957600080fd5b815161175a8161270a565b600080600080600080600060e0888a031215611fcf57600080fd5b8735611fda8161270a565b96506020880135611fea8161270a565b955060408801356001600160401b038082111561200657600080fd5b6120128b838c01611ee1565b965061202060608b01611ed1565b955061202e60808b01611ed1565b945060a08a013591508082111561204457600080fd5b6120508b838c01611f66565b935060c08a013591508082111561206657600080fd5b506120738a828b01611f66565b91505092959891949750929550565b6000806000806080858703121561209857600080fd5b84356120a38161270a565b935060208501356120b38161270a565b925060408501356001600160401b03808211156120cf57600080fd5b6120db88838901611f66565b935060608701359150808211156120f157600080fd5b506120fe87828801611f66565b91505092959194509250565b60008060006060848603121561211f57600080fd5b833561212a8161270a565b9250602084013561213a8161270a565b929592945050506040919091013590565b6000806040838503121561215e57600080fd5b82356121698161270a565b946020939093013593505050565b60008060008060008060c0878903121561219057600080fd5b863561219b8161270a565b95506020870135945060408701356121b28161271f565b9350606087013592506080870135915060a08701356001600160401b038111156121db57600080fd5b8701601f810189136121ec57600080fd5b6121fb89823560208401611e7a565b9150509295509295509295565b60006020828403121561221a57600080fd5b81356001600160401b0381111561223057600080fd5b61223c84828501611ee1565b949350505050565b60006020828403121561225657600080fd5b813561175a8161271f565b60006020828403121561227357600080fd5b815161175a8161271f565b60006020828403121561229057600080fd5b5035919050565b6000602082840312156122a957600080fd5b5051919050565b600080604083850312156122c357600080fd5b8235915060208301356122d58161270a565b809150509250929050565b6000806000606084860312156122f557600080fd5b8351925061230560208501611f86565b915061231360408501611f86565b90509250925092565b60006020828403121561232e57600080fd5b81516001600160401b038116811461175a57600080fd5b6000815180845260005b8181101561236b5760208185018101518683018201520161234f565b8181111561237d576000602083870101525b50601f01601f19169290920160200192915050565b8054600090600181811c90808316806123ac57607f831692505b60208084108214156123ce57634e487b7160e01b600052602260045260246000fd5b838852602088018280156123e957600181146123fa57612425565b60ff19871682528282019750612425565b60008981526020902060005b8781101561241f57815484820152908601908401612406565b83019850505b5050505050505092915050565b6001600160a01b0391909116815260200190565b6001600160a01b0392831681529116602082015260400190565b6001600160a01b0394851681529290931660208301526040820152606081019190915260800190565b600061010060018060a01b038b16835289602084015288151560408401528760608401528660808401528060a08401526124c581840187612345565b905082810360c08401526124d98186612392565b905082810360e08401526124ed8185612392565b9b9a5050505050505050505050565b6020808252825182820181905260009190848201906040850190845b8181101561253457835183529284019291840191600101612518565b50909695505050505050565b6040815260006125536040830185612345565b82810360208401526125658185612345565b95945050505050565b6020808252602e908201527f496e697469616c697a61626c653a20636f6e747261637420697320616c72656160408201526d191e481a5b9a5d1a585b1a5e995960921b606082015260800190565b9283526020830191909152604082015260600190565b604051601f8201601f191681016001600160401b03811182821017156125fa576125fa6126f4565b604052919050565b60008219821115612615576126156126c8565b500190565b60008261263757634e487b7160e01b600052601260045260246000fd5b500490565b6000816000190483118215151615612656576126566126c8565b500290565b60008282101561266d5761266d6126c8565b500390565b600181811c9082168061268657607f821691505b602082108114156126a757634e487b7160e01b600052602260045260246000fd5b50919050565b60006000198214156126c1576126c16126c8565b5060010190565b634e487b7160e01b600052601160045260246000fd5b634e487b7160e01b600052603260045260246000fd5b634e487b7160e01b600052604160045260246000fd5b6001600160a01b0381168114610aab57600080fd5b8015158114610aab57600080fdfea26469706673582212205becd83a6b6139a4f906a7778b3e5efc8b7e546459bfe918c22bf133fcf859fc64736f6c63430008070033",
  "immutableReferences": {},
  "source": "// SPDX-License-Identifier: GPL-3.0\r\n\r\npragma solidity 0.8.7;\r\n\r\n/**\r\n Price Converter is an interface to the Chain Link Price Registry for USD to ETH exchange\r\n */\r\n\r\nimport \"../Interfaces/IENS.sol\";\r\nimport \"../Base/StdPropositionBaseContract.sol\";\r\nimport \"../Interfaces/IENSRegistry.sol\";\r\nimport \"../Interfaces/IENSResolver.sol\";\r\n\r\ncontract ENS is IENS, StdPropositionBaseContract {\r\n\r\n    // EVENTS /////////////////////////////////////////\r\n    event _NewSettings(address Registry, address ReverseRegistry, bytes32 PrivatePoolNode, bytes32 ProviderNode);\r\n    event _NewSubdomainCreated(bytes32 node, bytes32 label);\r\n\r\n    // DATA /////////////////////////////////////////\r\n    IENSRegistry internal _ENS;\r\n    address internal _ENSReverseRegistry;\r\n    bytes32 internal _PrivatePoolNode; \r\n    bytes32 internal _ProviderNode; \r\n\r\n    // MODIFIERS /////////////////////////////////////////\r\n    modifier isFromAuthorizedContract(address addr){\r\n        require(_managerContract.retrievePrivatePoolFactoryProxy() == addr ||\r\n                _managerContract.retrieveProviderFactoryProxy() == addr, \"EC8-\");\r\n        _;\r\n    }\r\n\r\n    // CONSTRUCTOR /////////////////////////////////////////\r\n    function ENS_init(address ENSRegistry, address ENSReverseRegistry, bytes32[] memory nodes, address managerContractAddress, address chairPerson, string memory contractName, string memory contractVersion) public initializer \r\n    {\r\n        super.StdPropositionBaseContract_init(chairPerson, managerContractAddress, contractName, contractVersion);\r\n        _ENS = IENSRegistry(ENSRegistry);\r\n        _ENSReverseRegistry = ENSReverseRegistry;\r\n        _PrivatePoolNode = nodes[0];\r\n        _ProviderNode = nodes[1];\r\n    }\r\n\r\n    // GOVERNANCE /////////////////////////////////////////\r\n    function UpdateAll() internal override\r\n    {\r\n        address NewRegistryAddress = AddressLibrary.Bytes32ToAddress(_ProposedNewValues[0]);\r\n        address NewReverseRegistryAddress = AddressLibrary.Bytes32ToAddress(_ProposedNewValues[1]);\r\n\r\n        if(address(0) != NewRegistryAddress) _ENS = IENSRegistry(NewRegistryAddress);\r\n        else NewRegistryAddress = address(_ENS);\r\n\r\n        if(address(0) != NewReverseRegistryAddress) _ENSReverseRegistry = NewReverseRegistryAddress;\r\n        else NewReverseRegistryAddress = _ENSReverseRegistry;\r\n\r\n        if(_ProposedNewValues[1] > 0) _PrivatePoolNode = _ProposedNewValues[2];\r\n        else _ProposedNewValues[1] = _PrivatePoolNode;\r\n\r\n        if(_ProposedNewValues[2] > 0) _ProviderNode = _ProposedNewValues[3];\r\n        else _ProposedNewValues[2] = _ProviderNode;\r\n\r\n        emit _NewSettings(NewRegistryAddress, NewReverseRegistryAddress, _ProposedNewValues[2], _ProposedNewValues[3]);\r\n    }\r\n\r\n    // FUNCTIONALITY /////////////////////////////////////////\r\n    function check(bytes32 node) internal view returns(bool) {\r\n        return _ENS.recordExists(node);\r\n    }\r\n\r\n    function createSubdomain(bytes32 label) external override\r\n        isFromAuthorizedContract(msg.sender)\r\n    {\r\n        bytes32 node = _ProviderNode;\r\n        if(msg.sender == _managerContract.retrievePrivatePoolFactoryProxy()) node = _PrivatePoolNode;\r\n\r\n        bytes32 FullNode = keccak256(abi.encodePacked(node, label));\r\n        require(false == check(FullNode), \"EC37-\");\r\n\r\n        address resolverAddress = _ENS.resolver(node);\r\n        uint64 ttl = _ENS.ttl(node);\r\n\r\n        _ENS.setSubnodeRecord(node, label, address(this), resolverAddress, ttl);\r\n        IENSResolver resolver = IENSResolver(resolverAddress);\r\n        resolver.setAddr(FullNode, msg.sender);\r\n    }\r\n\r\n    function retrieveSettings() external override view returns(address, address, bytes32, bytes32)\r\n    {\r\n        return (address(_ENS), _ENSReverseRegistry, _PrivatePoolNode, _ProviderNode);\r\n    }\r\n    \r\n\r\n}",
  "sourcePath": "C:/Users/d-aam/GitHub/Certificates/contracts/DeployedContracts/ENS.sol",
  "compiler": {
    "name": "solc",
    "version": "0.8.7+commit.e28d00a7.Emscripten.clang"
  },
  "schemaVersion": "3.3.4",
  "updatedAt": "2021-11-01T12:22:50.709Z",
  "networkType": "ethereum",
  "devdoc": {
    "kind": "dev",
    "methods": {},
    "version": 1
  },
  "userdoc": {
    "kind": "user",
    "methods": {},
    "version": 1
  }
}