{
  "contractName": "ENS",
  "abi": [
    {
      "anonymous": false,
      "inputs": [
        {
          "indexed": false,
          "internalType": "uint256",
          "name": "Id",
          "type": "uint256"
        },
        {
          "indexed": true,
          "internalType": "address",
          "name": "Proposer",
          "type": "address"
        },
        {
          "indexed": false,
          "internalType": "uint256",
          "name": "Deadline",
          "type": "uint256"
        },
        {
          "indexed": false,
          "internalType": "uint256",
          "name": "Threshold",
          "type": "uint256"
        }
      ],
      "name": "_AddedProposition",
      "type": "event"
    },
    {
      "anonymous": false,
      "inputs": [
        {
          "indexed": false,
          "internalType": "uint256",
          "name": "Id",
          "type": "uint256"
        },
        {
          "indexed": true,
          "internalType": "address",
          "name": "Proposer",
          "type": "address"
        }
      ],
      "name": "_CancelledProposition",
      "type": "event"
    },
    {
      "anonymous": false,
      "inputs": [
        {
          "indexed": false,
          "internalType": "bytes32",
          "name": "PrivatePoolNode",
          "type": "bytes32"
        }
      ],
      "name": "_NewPrivatePoolNode",
      "type": "event"
    },
    {
      "anonymous": false,
      "inputs": [
        {
          "indexed": false,
          "internalType": "string",
          "name": "PrivatePoolSuffix",
          "type": "string"
        }
      ],
      "name": "_NewPrivatePoolSuffix",
      "type": "event"
    },
    {
      "anonymous": false,
      "inputs": [
        {
          "indexed": false,
          "internalType": "bytes32",
          "name": "ProviderNode",
          "type": "bytes32"
        }
      ],
      "name": "_NewProviderNode",
      "type": "event"
    },
    {
      "anonymous": false,
      "inputs": [
        {
          "indexed": false,
          "internalType": "string",
          "name": "ProviderSuffix",
          "type": "string"
        }
      ],
      "name": "_NewProviderSuffix",
      "type": "event"
    },
    {
      "anonymous": false,
      "inputs": [
        {
          "indexed": false,
          "internalType": "address",
          "name": "Registry",
          "type": "address"
        }
      ],
      "name": "_NewRegistry",
      "type": "event"
    },
    {
      "anonymous": false,
      "inputs": [
        {
          "indexed": false,
          "internalType": "address",
          "name": "ReverseRegistry",
          "type": "address"
        }
      ],
      "name": "_NewReverseRegistry",
      "type": "event"
    },
    {
      "anonymous": false,
      "inputs": [
        {
          "indexed": false,
          "internalType": "bytes32",
          "name": "node",
          "type": "bytes32"
        },
        {
          "indexed": false,
          "internalType": "bytes32",
          "name": "label",
          "type": "bytes32"
        },
        {
          "indexed": false,
          "internalType": "address",
          "name": "addr",
          "type": "address"
        }
      ],
      "name": "_NewSubdomainCreated",
      "type": "event"
    },
    {
      "anonymous": false,
      "inputs": [
        {
          "indexed": false,
          "internalType": "uint256",
          "name": "Id",
          "type": "uint256"
        },
        {
          "indexed": true,
          "internalType": "address",
          "name": "Proposer",
          "type": "address"
        },
        {
          "indexed": false,
          "internalType": "uint256",
          "name": "VotesFor",
          "type": "uint256"
        },
        {
          "indexed": false,
          "internalType": "uint256",
          "name": "VotesAgainst",
          "type": "uint256"
        }
      ],
      "name": "_PropositionApproved",
      "type": "event"
    },
    {
      "anonymous": false,
      "inputs": [
        {
          "indexed": false,
          "internalType": "uint256",
          "name": "Id",
          "type": "uint256"
        },
        {
          "indexed": true,
          "internalType": "address",
          "name": "Proposer",
          "type": "address"
        },
        {
          "indexed": false,
          "internalType": "uint256",
          "name": "VotesFor",
          "type": "uint256"
        },
        {
          "indexed": false,
          "internalType": "uint256",
          "name": "VotesAgainst",
          "type": "uint256"
        }
      ],
      "name": "_PropositionRejected",
      "type": "event"
    },
    {
      "anonymous": false,
      "inputs": [
        {
          "indexed": false,
          "internalType": "uint256",
          "name": "Id",
          "type": "uint256"
        },
        {
          "indexed": true,
          "internalType": "address",
          "name": "Voter",
          "type": "address"
        },
        {
          "indexed": false,
          "internalType": "bool",
          "name": "Vote",
          "type": "bool"
        },
        {
          "indexed": false,
          "internalType": "uint256",
          "name": "AmountTokens",
          "type": "uint256"
        }
      ],
      "name": "_PropositionVote",
      "type": "event"
    },
    {
      "anonymous": false,
      "inputs": [
        {
          "indexed": true,
          "internalType": "uint256",
          "name": "Id",
          "type": "uint256"
        },
        {
          "indexed": false,
          "internalType": "address",
          "name": "From",
          "type": "address"
        },
        {
          "indexed": false,
          "internalType": "address",
          "name": "To",
          "type": "address"
        },
        {
          "indexed": false,
          "internalType": "uint256",
          "name": "Amount",
          "type": "uint256"
        }
      ],
      "name": "_UsedTokensTransfered",
      "type": "event"
    },
    {
      "inputs": [
        {
          "internalType": "address",
          "name": "chairPerson",
          "type": "address"
        },
        {
          "internalType": "address",
          "name": "managerContractAddress",
          "type": "address"
        },
        {
          "internalType": "string",
          "name": "contractName",
          "type": "string"
        },
        {
          "internalType": "string",
          "name": "contractVersion",
          "type": "string"
        }
      ],
      "name": "StdPropositionBaseContract_init",
      "outputs": [],
      "stateMutability": "nonpayable",
      "type": "function"
    },
    {
      "inputs": [],
      "name": "cancelProposition",
      "outputs": [],
      "stateMutability": "nonpayable",
      "type": "function"
    },
    {
      "inputs": [
        {
          "internalType": "address",
          "name": "from",
          "type": "address"
        },
        {
          "internalType": "address",
          "name": "to",
          "type": "address"
        },
        {
          "internalType": "uint256",
          "name": "amount",
          "type": "uint256"
        }
      ],
      "name": "onTokenBalanceChanged",
      "outputs": [],
      "stateMutability": "nonpayable",
      "type": "function"
    },
    {
      "inputs": [],
      "name": "retrieveChairPerson",
      "outputs": [
        {
          "internalType": "address",
          "name": "",
          "type": "address"
        }
      ],
      "stateMutability": "view",
      "type": "function"
    },
    {
      "inputs": [],
      "name": "retrieveContractConfig",
      "outputs": [
        {
          "internalType": "string",
          "name": "",
          "type": "string"
        },
        {
          "internalType": "string",
          "name": "",
          "type": "string"
        }
      ],
      "stateMutability": "view",
      "type": "function"
    },
    {
      "inputs": [],
      "name": "retrieveManagerContract",
      "outputs": [
        {
          "internalType": "address",
          "name": "",
          "type": "address"
        }
      ],
      "stateMutability": "view",
      "type": "function"
    },
    {
      "inputs": [],
      "name": "retrieveNextPropId",
      "outputs": [
        {
          "internalType": "uint256",
          "name": "",
          "type": "uint256"
        }
      ],
      "stateMutability": "view",
      "type": "function"
    },
    {
      "inputs": [
        {
          "internalType": "address",
          "name": "addr",
          "type": "address"
        },
        {
          "internalType": "uint256",
          "name": "nonce",
          "type": "uint256"
        }
      ],
      "name": "retrieveNonce",
      "outputs": [
        {
          "internalType": "bool",
          "name": "",
          "type": "bool"
        }
      ],
      "stateMutability": "view",
      "type": "function"
    },
    {
      "inputs": [],
      "name": "retrieveProposition",
      "outputs": [
        {
          "internalType": "bytes[]",
          "name": "",
          "type": "bytes[]"
        }
      ],
      "stateMutability": "view",
      "type": "function"
    },
    {
      "inputs": [],
      "name": "retrievePropositionStatus",
      "outputs": [
        {
          "internalType": "address",
          "name": "",
          "type": "address"
        },
        {
          "internalType": "uint256",
          "name": "",
          "type": "uint256"
        },
        {
          "internalType": "uint256",
          "name": "",
          "type": "uint256"
        },
        {
          "internalType": "uint256",
          "name": "",
          "type": "uint256"
        },
        {
          "internalType": "uint256",
          "name": "",
          "type": "uint256"
        }
      ],
      "stateMutability": "view",
      "type": "function"
    },
    {
      "inputs": [
        {
          "internalType": "uint256",
          "name": "PropId",
          "type": "uint256"
        },
        {
          "internalType": "address",
          "name": "voter",
          "type": "address"
        }
      ],
      "name": "retrieveVotesForVoter",
      "outputs": [
        {
          "internalType": "uint256",
          "name": "",
          "type": "uint256"
        }
      ],
      "stateMutability": "view",
      "type": "function"
    },
    {
      "inputs": [
        {
          "internalType": "bytes[]",
          "name": "NewValues",
          "type": "bytes[]"
        }
      ],
      "name": "sendProposition",
      "outputs": [],
      "stateMutability": "nonpayable",
      "type": "function"
    },
    {
      "inputs": [
        {
          "internalType": "bool",
          "name": "vote",
          "type": "bool"
        }
      ],
      "name": "voteProposition",
      "outputs": [],
      "stateMutability": "nonpayable",
      "type": "function"
    },
    {
      "inputs": [
        {
          "internalType": "address",
          "name": "voter",
          "type": "address"
        },
        {
          "internalType": "uint256",
          "name": "propID",
          "type": "uint256"
        },
        {
          "internalType": "bool",
          "name": "vote",
          "type": "bool"
        },
        {
          "internalType": "uint256",
          "name": "nonce",
          "type": "uint256"
        },
        {
          "internalType": "uint256",
          "name": "deadline",
          "type": "uint256"
        },
        {
          "internalType": "bytes",
          "name": "signature",
          "type": "bytes"
        }
      ],
      "name": "votePropositionOnBehalfOf",
      "outputs": [],
      "stateMutability": "nonpayable",
      "type": "function"
    },
    {
      "inputs": [
        {
          "internalType": "address",
          "name": "ENSRegistry",
          "type": "address"
        },
        {
          "internalType": "address",
          "name": "ENSReverseRegistry",
          "type": "address"
        },
        {
          "internalType": "bytes32[]",
          "name": "nodes",
          "type": "bytes32[]"
        },
        {
          "internalType": "string[]",
          "name": "suffixes",
          "type": "string[]"
        },
        {
          "internalType": "address",
          "name": "managerContractAddress",
          "type": "address"
        },
        {
          "internalType": "address",
          "name": "chairPerson",
          "type": "address"
        },
        {
          "internalType": "string",
          "name": "contractName",
          "type": "string"
        },
        {
          "internalType": "string",
          "name": "contractVersion",
          "type": "string"
        }
      ],
      "name": "ENS_init",
      "outputs": [],
      "stateMutability": "nonpayable",
      "type": "function"
    },
    {
      "inputs": [
        {
          "internalType": "bytes32",
          "name": "label",
          "type": "bytes32"
        },
        {
          "internalType": "address",
          "name": "addr",
          "type": "address"
        }
      ],
      "name": "createSubdomain",
      "outputs": [],
      "stateMutability": "nonpayable",
      "type": "function"
    },
    {
      "inputs": [],
      "name": "retrieveSettings",
      "outputs": [
        {
          "internalType": "address",
          "name": "",
          "type": "address"
        },
        {
          "internalType": "address",
          "name": "",
          "type": "address"
        },
        {
          "internalType": "bytes32",
          "name": "",
          "type": "bytes32"
        },
        {
          "internalType": "bytes32",
          "name": "",
          "type": "bytes32"
        },
        {
          "internalType": "string",
          "name": "",
          "type": "string"
        },
        {
          "internalType": "string",
          "name": "",
          "type": "string"
        }
      ],
      "stateMutability": "view",
      "type": "function"
    }
  ],
  "bytecode": "0x608060405234801561001057600080fd5b50613400806100206000396000f3fe608060405234801561001057600080fd5b50600436106100db5760003560e01c806304cc67a9146100e05780630f13bbc9146100f75780632f5019281461010c5780633c7df55d1461011f5780633feca4ca146101325780634044adb21461017b57806355457ee9146101b15780635b362e84146101b95780637faa3d6f146101d9578063840f6d17146101ec57806391f916711461022d578063a93316f514610240578063b049473f14610255578063c25669031461026f578063d2116a0214610282578063db85bc4d14610298578063e15aa3a6146102a9575b600080fd5b600b545b6040519081526020015b60405180910390f35b61010a610105366004612b63565b6102bc565b005b61010a61011a366004612ef1565b610341565b61010a61012d366004612beb565b610856565b61016b610140366004612c2c565b6001600160a01b03919091166000908152600260209081526040808320938352929052205460ff1690565b60405190151581526020016100ee565b6100e4610189366004612ef1565b6000918252600c602090815260408084206001600160a01b0393909316845291905290205490565b61010a610974565b6003546201000090046001600160a01b03165b6040516100ee919061307f565b61010a6101e7366004612c58565b610a46565b600654600754600854600954600a54604080516001600160a01b0390961686526020860194909452928401919091526060830152608082015260a0016100ee565b61010a61023b366004612eb7565b610a66565b610248610a73565b6040516100ee9190613179565b61025d610b4c565b6040516100ee969594939291906130ad565b61010a61027d366004612a74565b610cb7565b61028a610e0b565b6040516100ee929190613201565b6004546001600160a01b03166101cc565b61010a6102b7366004612e00565b610f32565b600354610100900460ff16806102d5575060035460ff16155b6102fa5760405162461bcd60e51b81526004016102f19061322f565b60405180910390fd5b600354610100900460ff1615801561031c576003805461ffff19166101011790555b61032885858585610fac565b801561033a576003805461ff00191690555b5050505050565b33806001600160a01b0316600360029054906101000a90046001600160a01b03166001600160a01b031663e220ad956040518163ffffffff1660e01b815260040160006040518083038186803b15801561039a57600080fd5b505afa1580156103ae573d6000803e3d6000fd5b505050506040513d6000823e601f3d908101601f191682016040526103d69190810190612cd5565b6003815181106103e8576103e861337b565b60200260200101516001600160a01b031614806104b95750806001600160a01b0316600360029054906101000a90046001600160a01b03166001600160a01b031663e220ad956040518163ffffffff1660e01b815260040160006040518083038186803b15801561045857600080fd5b505afa15801561046c573d6000803e3d6000fd5b505050506040513d6000823e601f3d908101601f191682016040526104949190810190612cd5565b6004815181106104a6576104a661337b565b60200260200101516001600160a01b0316145b6104ee5760405162461bcd60e51b81526004016102f1906020808252600490820152634543382d60e01b604082015260600190565b60006011549050600360029054906101000a90046001600160a01b03166001600160a01b031663e220ad956040518163ffffffff1660e01b815260040160006040518083038186803b15801561054357600080fd5b505afa158015610557573d6000803e3d6000fd5b505050506040513d6000823e601f3d908101601f1916820160405261057f9190810190612cd5565b6003815181106105915761059161337b565b60200260200101516001600160a01b0316336001600160a01b031614156105b757506010545b604080516020808201849052818301879052825180830384018152606090920190925280519101206105e881611036565b1561061d5760405162461bcd60e51b8152602060048201526005602482015264454333372d60d81b60448201526064016102f1565b600e54604051630178b8bf60e01b8152600481018490526000916001600160a01b031690630178b8bf9060240160206040518083038186803b15801561066257600080fd5b505afa158015610676573d6000803e3d6000fd5b505050506040513d601f19601f8201168201806040525081019061069a9190612a57565b600e546040516316a25cbd60e01b8152600481018690529192506000916001600160a01b03909116906316a25cbd9060240160206040518083038186803b1580156106e457600080fd5b505afa1580156106f8573d6000803e3d6000fd5b505050506040513d601f19601f8201168201806040525081019061071c9190612f68565b600e546040516305ef2c7f60e41b815260048101879052602481018a90523060448201526001600160a01b0385811660648301526001600160401b0384166084830152929350911690635ef2c7f09060a401600060405180830381600087803b15801561078857600080fd5b505af115801561079c573d6000803e3d6000fd5b505060405162d5fa2b60e81b8152600481018690526001600160a01b0389811660248301528593508316915063d5fa2b0090604401600060405180830381600087803b1580156107eb57600080fd5b505af11580156107ff573d6000803e3d6000fd5b505060408051888152602081018c90526001600160a01b038b168183015290517ff478df27434928d61ddd5f4a3fb449c3b4d33ce8a9a38237decb1dff9b501e6f9350908190036060019150a15050505050505050565b3373__Library_______________________________6337ea306382600360029054906101000a90046001600160a01b03166001600160a01b031663e220ad956040518163ffffffff1660e01b815260040160006040518083038186803b1580156108c057600080fd5b505afa1580156108d4573d6000803e3d6000fd5b505050506040513d6000823e601f3d908101601f191682016040526108fc9190810190612cd5565b60028151811061090e5761090e61337b565b60200260200101516040518363ffffffff1660e01b8152600401610933929190613093565b60006040518083038186803b15801561094b57600080fd5b505af415801561095f573d6000803e3d6000fd5b5050505061096e8484846110b9565b50505050565b600161097f816110db565b6006546040516337ea306360e01b8152339173__Library_______________________________916337ea3063916109c59185916001600160a01b031690600401613093565b60006040518083038186803b1580156109dd57600080fd5b505af41580156109f1573d6000803e3d6000fd5b505050506109fd61115f565b6006546005546040519081526001600160a01b03909116907f1fe8aec10c0a50fa765076161e08c1f961ced69594ff45cf7d559f593afe14799060200160405180910390a25050565b610a5486868686868661118a565b610a5e86856112de565b505050505050565b610a7033826112de565b50565b6060600d805480602002602001604051908101604052809291908181526020016000905b82821015610b43578382906000526020600020018054610ab690613315565b80601f0160208091040260200160405190810160405280929190818152602001828054610ae290613315565b8015610b2f5780601f10610b0457610100808354040283529160200191610b2f565b820191906000526020600020905b815481529060010190602001808311610b1257829003601f168201915b505050505081526020019060010190610a97565b50505050905090565b600080600080606080600e60009054906101000a90046001600160a01b0316600f60009054906101000a90046001600160a01b031660105460115460126013818054610b9790613315565b80601f0160208091040260200160405190810160405280929190818152602001828054610bc390613315565b8015610c105780601f10610be557610100808354040283529160200191610c10565b820191906000526020600020905b815481529060010190602001808311610bf357829003601f168201915b50505050509150808054610c2390613315565b80601f0160208091040260200160405190810160405280929190818152602001828054610c4f90613315565b8015610c9c5780601f10610c7157610100808354040283529160200191610c9c565b820191906000526020600020905b815481529060010190602001808311610c7f57829003601f168201915b50505050509050955095509550955095509550909192939495565b600354610100900460ff1680610cd0575060035460ff16155b610cec5760405162461bcd60e51b81526004016102f19061322f565b600354610100900460ff16158015610d0e576003805461ffff19166101011790555b610d1a848685856102bc565b600e80546001600160a01b03808c166001600160a01b031992831617909255600f8054928b169290911691909117905586518790600090610d5d57610d5d61337b565b602002602001015160108190555086600181518110610d7e57610d7e61337b565b602002602001015160118190555085600081518110610d9f57610d9f61337b565b602002602001015160129080519060200190610dbc92919061274c565b5085600181518110610dd057610dd061337b565b602002602001015160139080519060200190610ded92919061274c565b508015610e00576003805461ff00191690555b505050505050505050565b60608060006001818054610e1e90613315565b80601f0160208091040260200160405190810160405280929190818152602001828054610e4a90613315565b8015610e975780601f10610e6c57610100808354040283529160200191610e97565b820191906000526020600020905b815481529060010190602001808311610e7a57829003601f168201915b50505050509150808054610eaa90613315565b80601f0160208091040260200160405190810160405280929190818152602001828054610ed690613315565b8015610f235780601f10610ef857610100808354040283529160200191610f23565b820191906000526020600020905b815481529060010190602001808311610f0657829003601f168201915b50505050509050915091509091565b610f3b816113f5565b610f43611873565b60005b8151811015610fa857600d828281518110610f6357610f6361337b565b60209081029190910181015182546001810184556000938452928290208151610f95949190910192919091019061274c565b5080610fa08161334a565b915050610f46565b5050565b600354610100900460ff1680610fc5575060035460ff16155b610fe15760405162461bcd60e51b81526004016102f19061322f565b600354610100900460ff16158015611003576003805461ffff19166101011790555b61100c84611bc3565b600480546001600160a01b0319166001600160a01b0387161790556000600b556103288383611c51565b600e54604051631ef3fca760e31b8152600481018390526000916001600160a01b03169063f79fe5389060240160206040518083038186803b15801561107b57600080fd5b505afa15801561108f573d6000803e3d6000fd5b505050506040513d601f19601f820116820180604052508101906110b39190612ed4565b92915050565b6110c1611c78565b1515600114156110d6576110d6838383611cb2565b505050565b8015611122576110e9611c78565b1515600114610a705760405162461bcd60e51b8152602060048201526005602482015264454332352d60d81b60448201526064016102f1565b61112a611c78565b15610a705760405162461bcd60e51b8152602060048201526005602482015264454332342d60d81b60448201526064016102f1565b60006005819055600680546001600160a01b0319169055600781905560088190556009819055600a55565b8161119481611e22565b86846111a08282611e59565b60055488146111d95760405162461bcd60e51b8152602060048201526005602482015264454333352d60d81b60448201526064016102f1565b60405163432f9a5560e01b815273__SignatureLibrary______________________9063432f9a5590611220908c908c908c908c908c908c90600090600190600401613106565b60206040518083038186803b15801561123857600080fd5b505af415801561124c573d6000803e3d6000fd5b505050506040513d601f19601f820116820180604052508101906112709190612ed4565b15156001146112a95760405162461bcd60e51b8152602060048201526005602482015264454333322d60d81b60448201526064016102f1565b610e0089876001600160a01b03909116600090815260026020908152604080832093835292905220805460ff19166001179055565b60016112e9816110db565b600554839060006112fa8383611eb5565b9050600081116113345760405162461bcd60e51b8152602060048201526005602482015264454332332d60d81b60448201526064016102f1565b600061134587600560000154611eb5565b9050851561136d57806005600401600082825461136291906132e6565b909155506113879050565b8060058001600082825461138191906132e6565b90915550505b600554611395908883611ef2565b60055460408051918252871515602083015281018290526001600160a01b038816907f50f654d58981575c05e369cb129aeacb01e1b036af429380242cfc5d1a4b743f9060600160405180910390a26113ec611f2e565b50505050505050565b73__AddressLibrary________________________63f4ce9ae873__Library_______________________________63caa8f5898460008151811061143c5761143c61337b565b60200260200101516040518263ffffffff1660e01b815260040161146091906131db565b60006040518083038186803b15801561147857600080fd5b505af415801561148c573d6000803e3d6000fd5b505050506040513d6000823e601f3d908101601f191682016040526114b49190810190612d75565b6000815181106114c6576114c661337b565b60200260200101516040518263ffffffff1660e01b81526004016114ec91815260200190565b60206040518083038186803b15801561150457600080fd5b505af4158015611518573d6000803e3d6000fd5b505050506040513d601f19601f8201168201806040525081019061153c9190612a57565b73__AddressLibrary________________________63f4ce9ae873__Library_______________________________63caa8f589856001815181106115835761158361337b565b60200260200101516040518263ffffffff1660e01b81526004016115a791906131db565b60006040518083038186803b1580156115bf57600080fd5b505af41580156115d3573d6000803e3d6000fd5b505050506040513d6000823e601f3d908101601f191682016040526115fb9190810190612d75565b60008151811061160d5761160d61337b565b60200260200101516040518263ffffffff1660e01b815260040161163391815260200190565b60206040518083038186803b15801561164b57600080fd5b505af415801561165f573d6000803e3d6000fd5b505050506040513d601f19601f820116820180604052508101906116839190612a57565b73__Library_______________________________63caa8f589846002815181106116b0576116b061337b565b60200260200101516040518263ffffffff1660e01b81526004016116d491906131db565b60006040518083038186803b1580156116ec57600080fd5b505af4158015611700573d6000803e3d6000fd5b505050506040513d6000823e601f3d908101601f191682016040526117289190810190612d75565b60008151811061173a5761173a61337b565b602002602001015173__Library_______________________________63caa8f5898560038151811061176f5761176f61337b565b60200260200101516040518263ffffffff1660e01b815260040161179391906131db565b60006040518083038186803b1580156117ab57600080fd5b505af41580156117bf573d6000803e3d6000fd5b505050506040513d6000823e601f3d908101601f191682016040526117e79190810190612d75565b6000815181106117f9576117f961337b565b6020026020010151836001600160a01b031660006001600160a01b031614158061182b57506001600160a01b03831615155b8061183557508115155b8061183f57508015155b61033a5760405162461bcd60e51b8152602060048201526005602482015264454332312d60d81b60448201526064016102f1565b600061187e816110db565b60045433906000906001600160a01b031682141561189e575060016119d5565b60006118a983612004565b90506000600360029054906101000a90046001600160a01b03166001600160a01b031663e220ad956040518163ffffffff1660e01b815260040160006040518083038186803b1580156118fb57600080fd5b505afa15801561190f573d6000803e3d6000fd5b505050506040513d6000823e601f3d908101601f191682016040526119379190810190612cd5565b6006815181106119495761194961337b565b60200260200101516001600160a01b031663b049473f6040518163ffffffff1660e01b815260040160606040518083038186803b15801561198957600080fd5b505afa15801561199d573d6000803e3d6000fd5b505050506040513d601f19601f820116820180604052508101906119c19190612f3a565b92505050808211156119d257600192505b50505b600181151514611a0f5760405162461bcd60e51b8152602060048201526005602482015264454332322d60d81b60448201526064016102f1565b600080600360029054906101000a90046001600160a01b03166001600160a01b031663e220ad956040518163ffffffff1660e01b815260040160006040518083038186803b158015611a6057600080fd5b505afa158015611a74573d6000803e3d6000fd5b505050506040513d6000823e601f3d908101601f19168201604052611a9c9190810190612cd5565b600681518110611aae57611aae61337b565b60200260200101516001600160a01b031663b049473f6040518163ffffffff1660e01b815260040160606040518083038186803b158015611aee57600080fd5b505afa158015611b02573d6000803e3d6000fd5b505050506040513d601f19601f82011682018060405250810190611b269190612f3a565b50600680546001600160a01b031916331790559092509050611b4882426132e6565b6007556008819055600b80546005819055906000611b658361334a565b90915550506006546005546007546008546040516001600160a01b03909416937f472501d19bf75639b2e316cd36f8568b0c3ab943b82a87de3c086c98c1929df993611bb4939092909161327d565b60405180910390a25050505050565b600354610100900460ff1680611bdc575060035460ff16155b611bf85760405162461bcd60e51b81526004016102f19061322f565b600354610100900460ff16158015611c1a576003805461ffff19166101011790555b6003805462010000600160b01b031916620100006001600160a01b038516021790558015610fa8576003805461ff00191690555050565b8151611c6490600090602085019061274c565b5080516110d690600190602084019061274c565b600754600090421015611c8b5750600190565b6006546001600160a01b031615611cac57611ca4612125565b611cac61115f565b50600090565b6001600160a01b03831615801590611cee57506005546000908152600c602090815260408083206001600160a01b038716845290915290205415155b156110d6576005546000908152600c602090815260408083206001600160a01b03871684529091529020548190811115611d4a57506005546000908152600c602090815260408083206001600160a01b03871684529091529020545b6005546000908152600c602090815260408083206001600160a01b038816845290915281208054839290611d7f9084906132fe565b90915550506001600160a01b03831615611dce576005546000908152600c602090815260408083206001600160a01b038716845290915281208054839290611dc89084906132e6565b90915550505b600554604080516001600160a01b038088168252861660208201529081018390527f65fbd5e5dd32bea4aeca85bd0be0abf0e489d655dee888a7510d43b06dda2dba9060600160405180910390a250505050565b804210610a705760405162461bcd60e51b8152602060048201526005602482015264454333332d60d81b60448201526064016102f1565b6001600160a01b038216600090815260026020908152604080832084845290915290205460ff1615610fa85760405162461bcd60e51b8152602060048201526005602482015264454333342d60d81b60448201526064016102f1565b6000818152600c602090815260408083206001600160a01b0386168452909152812054611ee184612004565b611eeb91906132fe565b9392505050565b6000838152600c602090815260408083206001600160a01b038616845290915281208054839290611f249084906132e6565b9091555050505050565b60085460095410611f9d57611f4161212d565b611f4961115f565b600654600554600954600a546040516001600160a01b03909416937f23ca0034cf5aad32571b4a492e9598ea8a490e1643a60970e3cdc6933b55e49f93611f93939092909161327d565b60405180910390a2565b600854600a541061200257611fb0612125565b611fb861115f565b600654600554600954600a546040516001600160a01b03909416937fa58eb6daa3c62c3f883973c4035e5bd3e81aa627c8379de068a7de42df122be293611f93939092909161327d565b565b6000600360029054906101000a90046001600160a01b03166001600160a01b031663e220ad956040518163ffffffff1660e01b815260040160006040518083038186803b15801561205457600080fd5b505afa158015612068573d6000803e3d6000fd5b505050506040513d6000823e601f3d908101601f191682016040526120909190810190612cd5565b6002815181106120a2576120a261337b565b60200260200101516001600160a01b03166370a08231836040518263ffffffff1660e01b81526004016120d5919061307f565b60206040518083038186803b1580156120ed57600080fd5b505afa158015612101573d6000803e3d6000fd5b505050506040513d601f19601f820116820180604052508101906110b39190612f21565b612002612135565b612125612141565b612002600d60006127d0565b600061214b6125fd565b9050600073__AddressLibrary________________________63f4ce9ae88360008151811061217c5761217c61337b565b60200260200101516040518263ffffffff1660e01b81526004016121a291815260200190565b60206040518083038186803b1580156121ba57600080fd5b505af41580156121ce573d6000803e3d6000fd5b505050506040513d601f19601f820116820180604052508101906121f29190612a57565b9050600073__AddressLibrary________________________63f4ce9ae8846001815181106122235761222361337b565b60200260200101516040518263ffffffff1660e01b815260040161224991815260200190565b60206040518083038186803b15801561226157600080fd5b505af4158015612275573d6000803e3d6000fd5b505050506040513d601f19601f820116820180604052508101906122999190612a57565b90506001600160a01b038216156122fe57600e80546001600160a01b0319166001600160a01b0384161790556040517f46e671841289b35d061dd0dfd2cbb135c0821b6e27418ca236e2ed8c14c3fd19906122f590849061307f565b60405180910390a15b6001600160a01b0381161561236157600f80546001600160a01b0319166001600160a01b0383161790556040517f576081cc849894908eb3a7d760dd8e300e9c5062f9e9e6742cd40d5bd5b721a09061235890839061307f565b60405180910390a15b6000801b836002815181106123785761237861337b565b602002602001015111156123fb57826002815181106123995761239961337b565b60200260200101516010819055507f4912880141eb4d979703a76489842d58bb8cbe04db86cc99b65a0b05df1e2cce836002815181106123db576123db61337b565b60200260200101516040516123f291815260200190565b60405180910390a15b6000801b836003815181106124125761241261337b565b6020026020010151111561249557826003815181106124335761243361337b565b60200260200101516011819055507f7cbcf1216e5dec7aec240d0d758333758442e4cc1dcb03228890a420597b6acc836003815181106124755761247561337b565b602002602001015160405161248c91815260200190565b60405180910390a15b6000801b836004815181106124ac576124ac61337b565b6020026020010151111561254757600d6004815481106124ce576124ce61337b565b9060005260206000200160129080546124e690613315565b6124f19291906127ee565b507fa2dada33a12d08905d2f295b1a40a285307663ca598181beaf9d4aa7113ed9b9600d6004815481106125275761252761337b565b9060005260206000200160405161253e91906131ee565b60405180910390a15b6000801b8360058151811061255e5761255e61337b565b602002602001015111156110d657600d6005815481106125805761258061337b565b90600052602060002001601390805461259890613315565b6125a39291906127ee565b507fccb545f9ffecd19b972359be13e9b43cfb1f81532ea75ac386e85241958aba05600d6005815481106125d9576125d961337b565b906000526020600020016040516125f091906131ee565b60405180910390a1505050565b600d546060906000906001600160401b0381111561261d5761261d613391565b604051908082528060200260200182016040528015612646578160200160208202803683370190505b50905060005b600d548110156127465773__Library_______________________________63caa8f589600d83815481106126835761268361337b565b906000526020600020016040518263ffffffff1660e01b81526004016126a991906131ee565b60006040518083038186803b1580156126c157600080fd5b505af41580156126d5573d6000803e3d6000fd5b505050506040513d6000823e601f3d908101601f191682016040526126fd9190810190612d75565b60008151811061270f5761270f61337b565b60200260200101518282815181106127295761272961337b565b60209081029190910101528061273e8161334a565b91505061264c565b50919050565b82805461275890613315565b90600052602060002090601f01602090048101928261277a57600085556127c0565b82601f1061279357805160ff19168380011785556127c0565b828001600101855582156127c0579182015b828111156127c05782518255916020019190600101906127a5565b506127cc929150612869565b5090565b5080546000825590600052602060002090810190610a70919061287e565b8280546127fa90613315565b90600052602060002090601f01602090048101928261281c57600085556127c0565b82601f1061282d57805485556127c0565b828001600101855582156127c057600052602060002091601f016020900482015b828111156127c057825482559160010191906001019061284e565b5b808211156127cc576000815560010161286a565b808211156127cc576000612892828261289b565b5060010161287e565b5080546128a790613315565b6000825580601f106128b7575050565b601f016020900490600052602060002090810190610a709190612869565b80356128e0816133a7565b919050565b600082601f8301126128f657600080fd5b8135602061290b612906836132c3565b613293565b80838252828201915082860187848660051b890101111561292b57600080fd5b60005b8581101561294a5781358452928401929084019060010161292e565b5090979650505050505050565b600082601f83011261296857600080fd5b81356020612978612906836132c3565b80838252828201915082860187848660051b890101111561299857600080fd5b6000805b868110156129da5782356001600160401b038111156129b9578283fd5b6129c78b88838d01016129e8565b865250938501939185019160010161299c565b509198975050505050505050565b600082601f8301126129f957600080fd5b81356001600160401b03811115612a1257612a12613391565b612a25601f8201601f1916602001613293565b818152846020838601011115612a3a57600080fd5b816020850160208301376000918101602001919091529392505050565b600060208284031215612a6957600080fd5b8151611eeb816133a7565b600080600080600080600080610100898b031215612a9157600080fd5b612a9a896128d5565b9750612aa860208a016128d5565b965060408901356001600160401b0380821115612ac457600080fd5b612ad08c838d016128e5565b975060608b0135915080821115612ae657600080fd5b612af28c838d01612957565b9650612b0060808c016128d5565b9550612b0e60a08c016128d5565b945060c08b0135915080821115612b2457600080fd5b612b308c838d016129e8565b935060e08b0135915080821115612b4657600080fd5b50612b538b828c016129e8565b9150509295985092959890939650565b60008060008060808587031215612b7957600080fd5b8435612b84816133a7565b93506020850135612b94816133a7565b925060408501356001600160401b0380821115612bb057600080fd5b612bbc888389016129e8565b93506060870135915080821115612bd257600080fd5b50612bdf878288016129e8565b91505092959194509250565b600080600060608486031215612c0057600080fd5b8335612c0b816133a7565b92506020840135612c1b816133a7565b929592945050506040919091013590565b60008060408385031215612c3f57600080fd5b8235612c4a816133a7565b946020939093013593505050565b60008060008060008060c08789031215612c7157600080fd5b8635612c7c816133a7565b9550602087013594506040870135612c93816133bc565b9350606087013592506080870135915060a08701356001600160401b03811115612cbc57600080fd5b612cc889828a016129e8565b9150509295509295509295565b60006020808385031215612ce857600080fd5b82516001600160401b03811115612cfe57600080fd5b8301601f81018513612d0f57600080fd5b8051612d1d612906826132c3565b80828252848201915084840188868560051b8701011115612d3d57600080fd5b600094505b83851015612d69578051612d55816133a7565b835260019490940193918501918501612d42565b50979650505050505050565b60006020808385031215612d8857600080fd5b82516001600160401b03811115612d9e57600080fd5b8301601f81018513612daf57600080fd5b8051612dbd612906826132c3565b80828252848201915084840188868560051b8701011115612ddd57600080fd5b600094505b83851015612d69578051835260019490940193918501918501612de2565b60006020808385031215612e1357600080fd5b82356001600160401b0380821115612e2a57600080fd5b818501915085601f830112612e3e57600080fd5b8135612e4c612906826132c3565b80828252858201915085850189878560051b8801011115612e6c57600080fd5b6000805b85811015612ea757823587811115612e86578283fd5b612e948d8b838c01016129e8565b8652509388019391880191600101612e70565b50919a9950505050505050505050565b600060208284031215612ec957600080fd5b8135611eeb816133bc565b600060208284031215612ee657600080fd5b8151611eeb816133bc565b60008060408385031215612f0457600080fd5b823591506020830135612f16816133a7565b809150509250929050565b600060208284031215612f3357600080fd5b5051919050565b600080600060608486031215612f4f57600080fd5b8351925060208401519150604084015190509250925092565b600060208284031215612f7a57600080fd5b81516001600160401b0381168114611eeb57600080fd5b6000815180845260005b81811015612fb757602081850181015186830182015201612f9b565b81811115612fc9576000602083870101525b50601f01601f19169290920160200192915050565b8054600090600181811c9080831680612ff857607f831692505b602080841082141561301a57634e487b7160e01b600052602260045260246000fd5b838852818015613031576001811461304557613073565b60ff19861689830152604089019650613073565b876000528160002060005b8681101561306b5781548b8201850152908501908301613050565b8a0183019750505b50505050505092915050565b6001600160a01b0391909116815260200190565b6001600160a01b0392831681529116602082015260400190565b6001600160a01b03878116825286166020820152604081018590526060810184905260c0608082018190526000906130e790830185612f91565b82810360a08401526130f98185612f91565b9998505050505050505050565b600061010060018060a01b038b16835289602084015288151560408401528760608401528660808401528060a084015261314281840187612f91565b905082810360c08401526131568186612fde565b905082810360e084015261316a8185612fde565b9b9a5050505050505050505050565b6000602080830181845280855180835260408601915060408160051b870101925083870160005b828110156131ce57603f198886030184526131bc858351612f91565b945092850192908501906001016131a0565b5092979650505050505050565b602081526000611eeb6020830184612f91565b602081526000611eeb6020830184612fde565b6040815260006132146040830185612f91565b82810360208401526132268185612f91565b95945050505050565b6020808252602e908201527f496e697469616c697a61626c653a20636f6e747261637420697320616c72656160408201526d191e481a5b9a5d1a585b1a5e995960921b606082015260800190565b9283526020830191909152604082015260600190565b604051601f8201601f191681016001600160401b03811182821017156132bb576132bb613391565b604052919050565b60006001600160401b038211156132dc576132dc613391565b5060051b60200190565b600082198211156132f9576132f9613365565b500190565b60008282101561331057613310613365565b500390565b600181811c9082168061332957607f821691505b6020821081141561274657634e487b7160e01b600052602260045260246000fd5b600060001982141561335e5761335e613365565b5060010190565b634e487b7160e01b600052601160045260246000fd5b634e487b7160e01b600052603260045260246000fd5b634e487b7160e01b600052604160045260246000fd5b6001600160a01b0381168114610a7057600080fd5b8015158114610a7057600080fdfea26469706673582212202ea18a571da5ff86b677b0cdb120eda86f425c08c71cedbb48f762ed5f3ffe3d64736f6c63430008070033",
  "immutableReferences": {},
  "source": "// SPDX-License-Identifier: GPL-3.0\r\n\r\npragma solidity 0.8.7;\r\n\r\n/**\r\n Price Converter is an interface to the Chain Link Price Registry for USD to ETH exchange\r\n */\r\n\r\nimport \"../Interfaces/IENS.sol\";\r\nimport \"../Base/StdPropositionBaseContract.sol\";\r\nimport \"../Interfaces/IENSRegistry.sol\";\r\nimport \"../Interfaces/IENSResolver.sol\";\r\n\r\ncontract ENS is IENS, StdPropositionBaseContract {\r\n\r\n    // EVENTS /////////////////////////////////////////\r\n    event _NewRegistry(address Registry);\r\n    event _NewReverseRegistry(address ReverseRegistry);\r\n    event _NewPrivatePoolNode(bytes32 PrivatePoolNode);\r\n    event _NewProviderNode(bytes32 ProviderNode);\r\n    event _NewPrivatePoolSuffix(string PrivatePoolSuffix);\r\n    event _NewProviderSuffix(string ProviderSuffix);\r\n    event _NewSubdomainCreated(bytes32 node, bytes32 label, address addr);\r\n\r\n    // DATA /////////////////////////////////////////\r\n    IENSRegistry internal _ENS;\r\n    address internal _ENSReverseRegistry;\r\n    bytes32 internal _PrivatePoolNode; \r\n    bytes32 internal _ProviderNode; \r\n    string internal _PrivatePoolENSSuffix; \r\n    string internal _ProviderENSSuffix; \r\n\r\n\r\n    // MODIFIERS /////////////////////////////////////////\r\n    modifier isFromAuthorizedContract(address addr){\r\n        require(_managerContract.retrieveTransparentProxies()[uint256(Library.TransparentProxies.PrivatePoolFactory)] == addr ||\r\n                _managerContract.retrieveTransparentProxies()[uint256(Library.TransparentProxies.ProviderFactory)] == addr, \"EC8-\");\r\n        _;\r\n    }\r\n\r\n    modifier arePropositionsOK(address addr1, address addr2, bytes32 privatenode, bytes32 providernode){\r\n        require(address(0) != addr1 || address(0) != addr2 || privatenode > 0 || providernode > 0, \"EC21-\");\r\n        _;\r\n    }\r\n\r\n    // CONSTRUCTOR /////////////////////////////////////////\r\n    function ENS_init(address ENSRegistry, address ENSReverseRegistry, bytes32[] memory nodes, string[] memory suffixes, address managerContractAddress, address chairPerson, string memory contractName, string memory contractVersion) public initializer \r\n    {\r\n        super.StdPropositionBaseContract_init(chairPerson, managerContractAddress, contractName, contractVersion);\r\n        _ENS = IENSRegistry(ENSRegistry);\r\n        _ENSReverseRegistry = ENSReverseRegistry;\r\n        _PrivatePoolNode = nodes[0];\r\n        _ProviderNode = nodes[1];\r\n        _PrivatePoolENSSuffix = suffixes[0];\r\n        _ProviderENSSuffix = suffixes[1];\r\n    }\r\n\r\n    // GOVERNANCE /////////////////////////////////////////\r\n    function checkProposition(bytes[] memory NewValues) internal override \r\n        arePropositionsOK(AddressLibrary.Bytes32ToAddress(Library.BytestoBytes32(NewValues[0])[0]),\r\n                            AddressLibrary.Bytes32ToAddress(Library.BytestoBytes32(NewValues[1])[0]),\r\n                            Library.BytestoBytes32(NewValues[2])[0],\r\n                            Library.BytestoBytes32(NewValues[3])[0])\r\n    {}\r\n\r\n    function UpdateAll() internal override\r\n    {\r\n        bytes32[] memory ProposedNewValues = PropositionsToBytes32();\r\n\r\n        address NewRegistryAddress = AddressLibrary.Bytes32ToAddress(ProposedNewValues[0]);\r\n        address NewReverseRegistryAddress = AddressLibrary.Bytes32ToAddress(ProposedNewValues[1]);\r\n\r\n        if(address(0) != NewRegistryAddress){\r\n            _ENS = IENSRegistry(NewRegistryAddress);\r\n            emit _NewRegistry(NewRegistryAddress);\r\n        } \r\n\r\n        if(address(0) != NewReverseRegistryAddress){\r\n            _ENSReverseRegistry = NewReverseRegistryAddress;\r\n            emit _NewReverseRegistry(NewReverseRegistryAddress);\r\n        }\r\n\r\n        if(ProposedNewValues[2] > 0) {\r\n            _PrivatePoolNode = ProposedNewValues[2];\r\n            emit _NewPrivatePoolNode(ProposedNewValues[2]);\r\n        }\r\n\r\n        if(ProposedNewValues[3] > 0) {\r\n            _ProviderNode = ProposedNewValues[3];\r\n            emit _NewProviderNode(ProposedNewValues[3]);\r\n        }\r\n\r\n        if(ProposedNewValues[4] > 0) {\r\n            _PrivatePoolENSSuffix = string(_ProposedNewValues[4]);\r\n            emit _NewPrivatePoolSuffix(string(_ProposedNewValues[4]));\r\n        }\r\n\r\n        if(ProposedNewValues[5] > 0) {\r\n            _ProviderENSSuffix = string(_ProposedNewValues[5]);\r\n            emit _NewProviderSuffix(string(_ProposedNewValues[5]));\r\n        }\r\n\r\n    }\r\n\r\n    // FUNCTIONALITY /////////////////////////////////////////\r\n    function check(bytes32 node) internal view returns(bool) {\r\n        return _ENS.recordExists(node);\r\n    }\r\n\r\n    function createSubdomain(bytes32 label, address addr) external override\r\n        isFromAuthorizedContract(msg.sender)\r\n    {\r\n        bytes32 node = _ProviderNode;\r\n        if(msg.sender == _managerContract.retrieveTransparentProxies()[uint256(Library.TransparentProxies.PrivatePoolFactory)]) node = _PrivatePoolNode;\r\n\r\n        bytes32 FullNode = keccak256(abi.encodePacked(node, label));\r\n        require(false == check(FullNode), \"EC37-\");\r\n\r\n        address resolverAddress = _ENS.resolver(node);\r\n        uint64 ttl = _ENS.ttl(node);\r\n\r\n        _ENS.setSubnodeRecord(node, label, address(this), resolverAddress, ttl);\r\n        IENSResolver resolver = IENSResolver(resolverAddress);\r\n        resolver.setAddr(FullNode, addr);\r\n\r\n        emit _NewSubdomainCreated(node, label, addr);\r\n    }\r\n\r\n    function retrieveSettings() external override view returns(address, address, bytes32, bytes32, string memory, string memory)\r\n    {\r\n        return (address(_ENS), _ENSReverseRegistry, _PrivatePoolNode, _ProviderNode, _PrivatePoolENSSuffix, _ProviderENSSuffix);\r\n    }\r\n    \r\n\r\n}",
  "sourcePath": "C:\\Users\\d-aam\\GitHub\\Certificates\\contracts\\DeployedContracts\\ENS.sol",
  "compiler": {
    "name": "solc",
    "version": "0.8.7+commit.e28d00a7.Emscripten.clang"
  },
  "schemaVersion": "3.4.3",
  "updatedAt": "2022-01-06T15:40:55.091Z",
  "devdoc": {
    "kind": "dev",
    "methods": {},
    "version": 1
  },
  "userdoc": {
    "kind": "user",
    "methods": {},
    "version": 1
  }
}