{
  "contractName": "ENS",
  "abi": [
    {
      "anonymous": false,
      "inputs": [
        {
          "indexed": false,
          "internalType": "uint256",
          "name": "Id",
          "type": "uint256"
        },
        {
          "indexed": true,
          "internalType": "address",
          "name": "Proposer",
          "type": "address"
        },
        {
          "indexed": false,
          "internalType": "uint256",
          "name": "Deadline",
          "type": "uint256"
        },
        {
          "indexed": false,
          "internalType": "uint256",
          "name": "Threshold",
          "type": "uint256"
        }
      ],
      "name": "_AddedProposition",
      "type": "event"
    },
    {
      "anonymous": false,
      "inputs": [
        {
          "indexed": false,
          "internalType": "uint256",
          "name": "Id",
          "type": "uint256"
        },
        {
          "indexed": true,
          "internalType": "address",
          "name": "Proposer",
          "type": "address"
        }
      ],
      "name": "_CancelledProposition",
      "type": "event"
    },
    {
      "anonymous": false,
      "inputs": [
        {
          "indexed": false,
          "internalType": "bytes32",
          "name": "PrivatePoolNode",
          "type": "bytes32"
        }
      ],
      "name": "_NewPrivatePoolNode",
      "type": "event"
    },
    {
      "anonymous": false,
      "inputs": [
        {
          "indexed": false,
          "internalType": "bytes32",
          "name": "ProviderNode",
          "type": "bytes32"
        }
      ],
      "name": "_NewProviderNode",
      "type": "event"
    },
    {
      "anonymous": false,
      "inputs": [
        {
          "indexed": false,
          "internalType": "address",
          "name": "Registry",
          "type": "address"
        }
      ],
      "name": "_NewRegistry",
      "type": "event"
    },
    {
      "anonymous": false,
      "inputs": [
        {
          "indexed": false,
          "internalType": "address",
          "name": "ReverseRegistry",
          "type": "address"
        }
      ],
      "name": "_NewReverseRegistry",
      "type": "event"
    },
    {
      "anonymous": false,
      "inputs": [
        {
          "indexed": false,
          "internalType": "bytes32",
          "name": "node",
          "type": "bytes32"
        },
        {
          "indexed": false,
          "internalType": "bytes32",
          "name": "label",
          "type": "bytes32"
        },
        {
          "indexed": false,
          "internalType": "address",
          "name": "addr",
          "type": "address"
        }
      ],
      "name": "_NewSubdomainCreated",
      "type": "event"
    },
    {
      "anonymous": false,
      "inputs": [
        {
          "indexed": false,
          "internalType": "uint256",
          "name": "Id",
          "type": "uint256"
        },
        {
          "indexed": true,
          "internalType": "address",
          "name": "Proposer",
          "type": "address"
        },
        {
          "indexed": false,
          "internalType": "uint256",
          "name": "VotesFor",
          "type": "uint256"
        },
        {
          "indexed": false,
          "internalType": "uint256",
          "name": "VotesAgainst",
          "type": "uint256"
        }
      ],
      "name": "_PropositionApproved",
      "type": "event"
    },
    {
      "anonymous": false,
      "inputs": [
        {
          "indexed": false,
          "internalType": "uint256",
          "name": "Id",
          "type": "uint256"
        },
        {
          "indexed": true,
          "internalType": "address",
          "name": "Proposer",
          "type": "address"
        },
        {
          "indexed": false,
          "internalType": "uint256",
          "name": "VotesFor",
          "type": "uint256"
        },
        {
          "indexed": false,
          "internalType": "uint256",
          "name": "VotesAgainst",
          "type": "uint256"
        }
      ],
      "name": "_PropositionRejected",
      "type": "event"
    },
    {
      "anonymous": false,
      "inputs": [
        {
          "indexed": false,
          "internalType": "uint256",
          "name": "Id",
          "type": "uint256"
        },
        {
          "indexed": true,
          "internalType": "address",
          "name": "Voter",
          "type": "address"
        },
        {
          "indexed": false,
          "internalType": "bool",
          "name": "Vote",
          "type": "bool"
        },
        {
          "indexed": false,
          "internalType": "uint256",
          "name": "AmountTokens",
          "type": "uint256"
        }
      ],
      "name": "_PropositionVote",
      "type": "event"
    },
    {
      "anonymous": false,
      "inputs": [
        {
          "indexed": true,
          "internalType": "uint256",
          "name": "Id",
          "type": "uint256"
        },
        {
          "indexed": false,
          "internalType": "address",
          "name": "From",
          "type": "address"
        },
        {
          "indexed": false,
          "internalType": "address",
          "name": "To",
          "type": "address"
        },
        {
          "indexed": false,
          "internalType": "uint256",
          "name": "Amount",
          "type": "uint256"
        }
      ],
      "name": "_UsedTokensTransfered",
      "type": "event"
    },
    {
      "inputs": [
        {
          "internalType": "address",
          "name": "chairPerson",
          "type": "address"
        },
        {
          "internalType": "address",
          "name": "managerContractAddress",
          "type": "address"
        },
        {
          "internalType": "string",
          "name": "contractName",
          "type": "string"
        },
        {
          "internalType": "string",
          "name": "contractVersion",
          "type": "string"
        }
      ],
      "name": "StdPropositionBaseContract_init",
      "outputs": [],
      "stateMutability": "nonpayable",
      "type": "function"
    },
    {
      "inputs": [],
      "name": "cancelProposition",
      "outputs": [],
      "stateMutability": "nonpayable",
      "type": "function"
    },
    {
      "inputs": [
        {
          "internalType": "address",
          "name": "from",
          "type": "address"
        },
        {
          "internalType": "address",
          "name": "to",
          "type": "address"
        },
        {
          "internalType": "uint256",
          "name": "amount",
          "type": "uint256"
        }
      ],
      "name": "onTokenBalanceChanged",
      "outputs": [],
      "stateMutability": "nonpayable",
      "type": "function"
    },
    {
      "inputs": [],
      "name": "retrieveChairPerson",
      "outputs": [
        {
          "internalType": "address",
          "name": "",
          "type": "address"
        }
      ],
      "stateMutability": "view",
      "type": "function"
    },
    {
      "inputs": [],
      "name": "retrieveContractConfig",
      "outputs": [
        {
          "internalType": "string",
          "name": "",
          "type": "string"
        },
        {
          "internalType": "string",
          "name": "",
          "type": "string"
        }
      ],
      "stateMutability": "view",
      "type": "function"
    },
    {
      "inputs": [],
      "name": "retrieveManagerContract",
      "outputs": [
        {
          "internalType": "address",
          "name": "",
          "type": "address"
        }
      ],
      "stateMutability": "view",
      "type": "function"
    },
    {
      "inputs": [],
      "name": "retrieveNextPropId",
      "outputs": [
        {
          "internalType": "uint256",
          "name": "",
          "type": "uint256"
        }
      ],
      "stateMutability": "view",
      "type": "function"
    },
    {
      "inputs": [
        {
          "internalType": "address",
          "name": "addr",
          "type": "address"
        },
        {
          "internalType": "uint256",
          "name": "nonce",
          "type": "uint256"
        }
      ],
      "name": "retrieveNonce",
      "outputs": [
        {
          "internalType": "bool",
          "name": "",
          "type": "bool"
        }
      ],
      "stateMutability": "view",
      "type": "function"
    },
    {
      "inputs": [],
      "name": "retrieveProposition",
      "outputs": [
        {
          "internalType": "bytes[]",
          "name": "",
          "type": "bytes[]"
        }
      ],
      "stateMutability": "view",
      "type": "function"
    },
    {
      "inputs": [],
      "name": "retrievePropositionStatus",
      "outputs": [
        {
          "internalType": "address",
          "name": "",
          "type": "address"
        },
        {
          "internalType": "uint256",
          "name": "",
          "type": "uint256"
        },
        {
          "internalType": "uint256",
          "name": "",
          "type": "uint256"
        },
        {
          "internalType": "uint256",
          "name": "",
          "type": "uint256"
        },
        {
          "internalType": "uint256",
          "name": "",
          "type": "uint256"
        }
      ],
      "stateMutability": "view",
      "type": "function"
    },
    {
      "inputs": [
        {
          "internalType": "uint256",
          "name": "PropId",
          "type": "uint256"
        },
        {
          "internalType": "address",
          "name": "voter",
          "type": "address"
        }
      ],
      "name": "retrieveVotesForVoter",
      "outputs": [
        {
          "internalType": "uint256",
          "name": "",
          "type": "uint256"
        }
      ],
      "stateMutability": "view",
      "type": "function"
    },
    {
      "inputs": [
        {
          "internalType": "bytes[]",
          "name": "NewValues",
          "type": "bytes[]"
        }
      ],
      "name": "sendProposition",
      "outputs": [],
      "stateMutability": "nonpayable",
      "type": "function"
    },
    {
      "inputs": [
        {
          "internalType": "bool",
          "name": "vote",
          "type": "bool"
        }
      ],
      "name": "voteProposition",
      "outputs": [],
      "stateMutability": "nonpayable",
      "type": "function"
    },
    {
      "inputs": [
        {
          "internalType": "address",
          "name": "voter",
          "type": "address"
        },
        {
          "internalType": "uint256",
          "name": "propID",
          "type": "uint256"
        },
        {
          "internalType": "bool",
          "name": "vote",
          "type": "bool"
        },
        {
          "internalType": "uint256",
          "name": "nonce",
          "type": "uint256"
        },
        {
          "internalType": "uint256",
          "name": "deadline",
          "type": "uint256"
        },
        {
          "internalType": "bytes",
          "name": "signature",
          "type": "bytes"
        }
      ],
      "name": "votePropositionOnBehalfOf",
      "outputs": [],
      "stateMutability": "nonpayable",
      "type": "function"
    },
    {
      "inputs": [
        {
          "internalType": "address",
          "name": "ENSRegistry",
          "type": "address"
        },
        {
          "internalType": "address",
          "name": "ENSReverseRegistry",
          "type": "address"
        },
        {
          "internalType": "bytes32[]",
          "name": "nodes",
          "type": "bytes32[]"
        },
        {
          "internalType": "address",
          "name": "managerContractAddress",
          "type": "address"
        },
        {
          "internalType": "address",
          "name": "chairPerson",
          "type": "address"
        },
        {
          "internalType": "string",
          "name": "contractName",
          "type": "string"
        },
        {
          "internalType": "string",
          "name": "contractVersion",
          "type": "string"
        }
      ],
      "name": "ENS_init",
      "outputs": [],
      "stateMutability": "nonpayable",
      "type": "function"
    },
    {
      "inputs": [
        {
          "internalType": "bytes32",
          "name": "label",
          "type": "bytes32"
        },
        {
          "internalType": "address",
          "name": "addr",
          "type": "address"
        }
      ],
      "name": "createSubdomain",
      "outputs": [],
      "stateMutability": "nonpayable",
      "type": "function"
    },
    {
      "inputs": [],
      "name": "retrieveSettings",
      "outputs": [
        {
          "internalType": "address",
          "name": "",
          "type": "address"
        },
        {
          "internalType": "address",
          "name": "",
          "type": "address"
        },
        {
          "internalType": "bytes32",
          "name": "",
          "type": "bytes32"
        },
        {
          "internalType": "bytes32",
          "name": "",
          "type": "bytes32"
        }
      ],
      "stateMutability": "view",
      "type": "function"
    }
  ],
  "bytecode": "0x608060405234801561001057600080fd5b5061312b806100206000396000f3fe608060405234801561001057600080fd5b50600436106100db5760003560e01c806304cc67a9146100e05780630f13bbc9146100f75780632f5019281461010c5780633c7df55d1461011f5780633feca4ca146101325780634044adb21461017b57806355457ee9146101b15780635b362e84146101b95780637faa3d6f146101d9578063840f6d17146101ec578063876865d31461022d57806391f9167114610240578063a93316f514610253578063b049473f14610268578063d2116a021461029f578063db85bc4d146102b5578063e15aa3a6146102c6575b600080fd5b600b545b6040519081526020015b60405180910390f35b61010a610105366004612898565b6102d9565b005b61010a61011a366004612c26565b61035e565b61010a61012d366004612920565b610873565b61016b610140366004612961565b6001600160a01b03919091166000908152600260209081526040808320938352929052205460ff1690565b60405190151581526020016100ee565b6100e4610189366004612c26565b6000918252600c602090815260408084206001600160a01b0393909316845291905290205490565b61010a610991565b6003546201000090046001600160a01b03165b6040516100ee9190612dc2565b61010a6101e736600461298d565b610a63565b600654600754600854600954600a54604080516001600160a01b0390961686526020860194909452928401919091526060830152608082015260a0016100ee565b61010a61023b3660046127ca565b610a83565b61010a61024e366004612bec565b610b74565b61025b610b81565b6040516100ee9190612e63565b600e54600f54601054601154604080516001600160a01b0395861681529490931660208501529183015260608201526080016100ee565b6102a7610c5a565b6040516100ee929190612eeb565b6004546001600160a01b03166101cc565b61010a6102d4366004612b35565b610d81565b600354610100900460ff16806102f2575060035460ff16155b6103175760405162461bcd60e51b815260040161030e90612f19565b60405180910390fd5b600354610100900460ff16158015610339576003805461ffff19166101011790555b61034585858585610dfb565b8015610357576003805461ff00191690555b5050505050565b33806001600160a01b0316600360029054906101000a90046001600160a01b03166001600160a01b031663e220ad956040518163ffffffff1660e01b815260040160006040518083038186803b1580156103b757600080fd5b505afa1580156103cb573d6000803e3d6000fd5b505050506040513d6000823e601f3d908101601f191682016040526103f39190810190612a0a565b600381518110610405576104056130a6565b60200260200101516001600160a01b031614806104d65750806001600160a01b0316600360029054906101000a90046001600160a01b03166001600160a01b031663e220ad956040518163ffffffff1660e01b815260040160006040518083038186803b15801561047557600080fd5b505afa158015610489573d6000803e3d6000fd5b505050506040513d6000823e601f3d908101601f191682016040526104b19190810190612a0a565b6004815181106104c3576104c36130a6565b60200260200101516001600160a01b0316145b61050b5760405162461bcd60e51b815260040161030e906020808252600490820152634543382d60e01b604082015260600190565b60006011549050600360029054906101000a90046001600160a01b03166001600160a01b031663e220ad956040518163ffffffff1660e01b815260040160006040518083038186803b15801561056057600080fd5b505afa158015610574573d6000803e3d6000fd5b505050506040513d6000823e601f3d908101601f1916820160405261059c9190810190612a0a565b6003815181106105ae576105ae6130a6565b60200260200101516001600160a01b0316336001600160a01b031614156105d457506010545b6040805160208082018490528183018790528251808303840181526060909201909252805191012061060581610e85565b1561063a5760405162461bcd60e51b8152602060048201526005602482015264454333372d60d81b604482015260640161030e565b600e54604051630178b8bf60e01b8152600481018490526000916001600160a01b031690630178b8bf9060240160206040518083038186803b15801561067f57600080fd5b505afa158015610693573d6000803e3d6000fd5b505050506040513d601f19601f820116820180604052508101906106b791906127ad565b600e546040516316a25cbd60e01b8152600481018690529192506000916001600160a01b03909116906316a25cbd9060240160206040518083038186803b15801561070157600080fd5b505afa158015610715573d6000803e3d6000fd5b505050506040513d601f19601f820116820180604052508101906107399190612cab565b600e546040516305ef2c7f60e41b815260048101879052602481018a90523060448201526001600160a01b0385811660648301526001600160401b0384166084830152929350911690635ef2c7f09060a401600060405180830381600087803b1580156107a557600080fd5b505af11580156107b9573d6000803e3d6000fd5b505060405162d5fa2b60e81b8152600481018690526001600160a01b0389811660248301528593508316915063d5fa2b0090604401600060405180830381600087803b15801561080857600080fd5b505af115801561081c573d6000803e3d6000fd5b505060408051888152602081018c90526001600160a01b038b168183015290517ff478df27434928d61ddd5f4a3fb449c3b4d33ce8a9a38237decb1dff9b501e6f9350908190036060019150a15050505050505050565b3373__Library_______________________________6337ea306382600360029054906101000a90046001600160a01b03166001600160a01b031663e220ad956040518163ffffffff1660e01b815260040160006040518083038186803b1580156108dd57600080fd5b505afa1580156108f1573d6000803e3d6000fd5b505050506040513d6000823e601f3d908101601f191682016040526109199190810190612a0a565b60028151811061092b5761092b6130a6565b60200260200101516040518363ffffffff1660e01b8152600401610950929190612dd6565b60006040518083038186803b15801561096857600080fd5b505af415801561097c573d6000803e3d6000fd5b5050505061098b848484610f08565b50505050565b600161099c81610f2a565b6006546040516337ea306360e01b8152339173__Library_______________________________916337ea3063916109e29185916001600160a01b031690600401612dd6565b60006040518083038186803b1580156109fa57600080fd5b505af4158015610a0e573d6000803e3d6000fd5b50505050610a1a610fae565b6006546005546040519081526001600160a01b03909116907f1fe8aec10c0a50fa765076161e08c1f961ced69594ff45cf7d559f593afe14799060200160405180910390a25050565b610a71868686868686610fd9565b610a7b8685611138565b505050505050565b600354610100900460ff1680610a9c575060035460ff16155b610ab85760405162461bcd60e51b815260040161030e90612f19565b600354610100900460ff16158015610ada576003805461ffff19166101011790555b610ae6848685856102d9565b600e80546001600160a01b03808b166001600160a01b031992831617909255600f8054928a169290911691909117905585518690600090610b2957610b296130a6565b602002602001015160108190555085600181518110610b4a57610b4a6130a6565b60200260200101516011819055508015610b6a576003805461ff00191690555b5050505050505050565b610b7e3382611138565b50565b6060600d805480602002602001604051908101604052809291908181526020016000905b82821015610c51578382906000526020600020018054610bc490613040565b80601f0160208091040260200160405190810160405280929190818152602001828054610bf090613040565b8015610c3d5780601f10610c1257610100808354040283529160200191610c3d565b820191906000526020600020905b815481529060010190602001808311610c2057829003601f168201915b505050505081526020019060010190610ba5565b50505050905090565b60608060006001818054610c6d90613040565b80601f0160208091040260200160405190810160405280929190818152602001828054610c9990613040565b8015610ce65780601f10610cbb57610100808354040283529160200191610ce6565b820191906000526020600020905b815481529060010190602001808311610cc957829003601f168201915b50505050509150808054610cf990613040565b80601f0160208091040260200160405190810160405280929190818152602001828054610d2590613040565b8015610d725780601f10610d4757610100808354040283529160200191610d72565b820191906000526020600020905b815481529060010190602001808311610d5557829003601f168201915b50505050509050915091509091565b610d8a8161124f565b610d926116cd565b60005b8151811015610df757600d828281518110610db257610db26130a6565b60209081029190910181015182546001810184556000938452928290208151610de4949190910192919091019061259d565b5080610def81613075565b915050610d95565b5050565b600354610100900460ff1680610e14575060035460ff16155b610e305760405162461bcd60e51b815260040161030e90612f19565b600354610100900460ff16158015610e52576003805461ffff19166101011790555b610e5b84611a5d565b600480546001600160a01b0319166001600160a01b0387161790556000600b556103458383611aeb565b600e54604051631ef3fca760e31b8152600481018390526000916001600160a01b03169063f79fe5389060240160206040518083038186803b158015610eca57600080fd5b505afa158015610ede573d6000803e3d6000fd5b505050506040513d601f19601f82011682018060405250810190610f029190612c09565b92915050565b610f10611b12565b151560011415610f2557610f25838383611b4c565b505050565b8015610f7157610f38611b12565b1515600114610b7e5760405162461bcd60e51b8152602060048201526005602482015264454332352d60d81b604482015260640161030e565b610f79611b12565b15610b7e5760405162461bcd60e51b8152602060048201526005602482015264454332342d60d81b604482015260640161030e565b60006005819055600680546001600160a01b0319169055600781905560088190556009819055600a55565b81610fe381611cbc565b8684610fef8282611cf3565b60055488146110285760405162461bcd60e51b8152602060048201526005602482015264454333352d60d81b604482015260640161030e565b60405163432f9a5560e01b815273__SignatureLibrary______________________9063432f9a559061106f908c908c908c908c908c908c90600090600190600401612df0565b60206040518083038186803b15801561108757600080fd5b505af415801561109b573d6000803e3d6000fd5b505050506040513d601f19601f820116820180604052508101906110bf9190612c09565b15156001146110f85760405162461bcd60e51b8152602060048201526005602482015264454333322d60d81b604482015260640161030e565b61112d89876001600160a01b03909116600090815260026020908152604080832093835292905220805460ff19166001179055565b505050505050505050565b600161114381610f2a565b600554839060006111548383611d4f565b90506000811161118e5760405162461bcd60e51b8152602060048201526005602482015264454332332d60d81b604482015260640161030e565b600061119f87600560000154611d4f565b905085156111c75780600560040160008282546111bc9190612fd0565b909155506111e19050565b806005800160008282546111db9190612fd0565b90915550505b6005546111ef908883611d8c565b60055460408051918252871515602083015281018290526001600160a01b038816907f50f654d58981575c05e369cb129aeacb01e1b036af429380242cfc5d1a4b743f9060600160405180910390a2611246611dc8565b50505050505050565b73__AddressLibrary________________________63f4ce9ae873__Library_______________________________63caa8f58984600081518110611296576112966130a6565b60200260200101516040518263ffffffff1660e01b81526004016112ba9190612ec5565b60006040518083038186803b1580156112d257600080fd5b505af41580156112e6573d6000803e3d6000fd5b505050506040513d6000823e601f3d908101601f1916820160405261130e9190810190612aaa565b600081518110611320576113206130a6565b60200260200101516040518263ffffffff1660e01b815260040161134691815260200190565b60206040518083038186803b15801561135e57600080fd5b505af4158015611372573d6000803e3d6000fd5b505050506040513d601f19601f8201168201806040525081019061139691906127ad565b73__AddressLibrary________________________63f4ce9ae873__Library_______________________________63caa8f589856001815181106113dd576113dd6130a6565b60200260200101516040518263ffffffff1660e01b81526004016114019190612ec5565b60006040518083038186803b15801561141957600080fd5b505af415801561142d573d6000803e3d6000fd5b505050506040513d6000823e601f3d908101601f191682016040526114559190810190612aaa565b600081518110611467576114676130a6565b60200260200101516040518263ffffffff1660e01b815260040161148d91815260200190565b60206040518083038186803b1580156114a557600080fd5b505af41580156114b9573d6000803e3d6000fd5b505050506040513d601f19601f820116820180604052508101906114dd91906127ad565b73__Library_______________________________63caa8f5898460028151811061150a5761150a6130a6565b60200260200101516040518263ffffffff1660e01b815260040161152e9190612ec5565b60006040518083038186803b15801561154657600080fd5b505af415801561155a573d6000803e3d6000fd5b505050506040513d6000823e601f3d908101601f191682016040526115829190810190612aaa565b600081518110611594576115946130a6565b602002602001015173__Library_______________________________63caa8f589856003815181106115c9576115c96130a6565b60200260200101516040518263ffffffff1660e01b81526004016115ed9190612ec5565b60006040518083038186803b15801561160557600080fd5b505af4158015611619573d6000803e3d6000fd5b505050506040513d6000823e601f3d908101601f191682016040526116419190810190612aaa565b600081518110611653576116536130a6565b6020026020010151836001600160a01b031660006001600160a01b031614158061168557506001600160a01b03831615155b8061168f57508115155b8061169957508015155b6103575760405162461bcd60e51b8152602060048201526005602482015264454332312d60d81b604482015260640161030e565b60006116d881610f2a565b60045433906000906001600160a01b03168214156116f85750600161184f565b600061170383611e9e565b90506000600360029054906101000a90046001600160a01b03166001600160a01b031663e220ad956040518163ffffffff1660e01b815260040160006040518083038186803b15801561175557600080fd5b505afa158015611769573d6000803e3d6000fd5b505050506040513d6000823e601f3d908101601f191682016040526117919190810190612a0a565b6006815181106117a3576117a36130a6565b60200260200101516001600160a01b031663b049473f6040518163ffffffff1660e01b815260040160606040518083038186803b1580156117e357600080fd5b505afa1580156117f7573d6000803e3d6000fd5b505050506040513d601f19601f8201168201806040525081019061181b9190612c6f565b925050506064611829611fbf565b6118369060ff841661300a565b6118409190612fe8565b82111561184c57600192505b50505b6001811515146118895760405162461bcd60e51b8152602060048201526005602482015264454332322d60d81b604482015260640161030e565b600080600360029054906101000a90046001600160a01b03166001600160a01b031663e220ad956040518163ffffffff1660e01b815260040160006040518083038186803b1580156118da57600080fd5b505afa1580156118ee573d6000803e3d6000fd5b505050506040513d6000823e601f3d908101601f191682016040526119169190810190612a0a565b600681518110611928576119286130a6565b60200260200101516001600160a01b031663b049473f6040518163ffffffff1660e01b815260040160606040518083038186803b15801561196857600080fd5b505afa15801561197c573d6000803e3d6000fd5b505050506040513d601f19601f820116820180604052508101906119a09190612c6f565b50600680546001600160a01b0319163317905590925090506119c28242612fd0565b600755606460ff82166119d3611fbf565b6119dd919061300a565b6119e79190612fe8565b600855600b805460058190559060006119ff83613075565b90915550506006546005546007546008546040516001600160a01b03909416937f472501d19bf75639b2e316cd36f8568b0c3ab943b82a87de3c086c98c1929df993611a4e9390929091612f67565b60405180910390a25050505050565b600354610100900460ff1680611a76575060035460ff16155b611a925760405162461bcd60e51b815260040161030e90612f19565b600354610100900460ff16158015611ab4576003805461ffff19166101011790555b6003805462010000600160b01b031916620100006001600160a01b038516021790558015610df7576003805461ff00191690555050565b8151611afe90600090602085019061259d565b508051610f2590600190602084019061259d565b600754600090421015611b255750600190565b6006546001600160a01b031615611b4657611b3e6120da565b611b46610fae565b50600090565b6001600160a01b03831615801590611b8857506005546000908152600c602090815260408083206001600160a01b038716845290915290205415155b15610f25576005546000908152600c602090815260408083206001600160a01b03871684529091529020548190811115611be457506005546000908152600c602090815260408083206001600160a01b03871684529091529020545b6005546000908152600c602090815260408083206001600160a01b038816845290915281208054839290611c19908490613029565b90915550506001600160a01b03831615611c68576005546000908152600c602090815260408083206001600160a01b038716845290915281208054839290611c62908490612fd0565b90915550505b600554604080516001600160a01b038088168252861660208201529081018390527f65fbd5e5dd32bea4aeca85bd0be0abf0e489d655dee888a7510d43b06dda2dba9060600160405180910390a250505050565b804210610b7e5760405162461bcd60e51b8152602060048201526005602482015264454333332d60d81b604482015260640161030e565b6001600160a01b038216600090815260026020908152604080832084845290915290205460ff1615610df75760405162461bcd60e51b8152602060048201526005602482015264454333342d60d81b604482015260640161030e565b6000818152600c602090815260408083206001600160a01b0386168452909152812054611d7b84611e9e565b611d859190613029565b9392505050565b6000838152600c602090815260408083206001600160a01b038616845290915281208054839290611dbe908490612fd0565b9091555050505050565b60085460095410611e3757611ddb6120e2565b611de3610fae565b600654600554600954600a546040516001600160a01b03909416937f23ca0034cf5aad32571b4a492e9598ea8a490e1643a60970e3cdc6933b55e49f93611e2d9390929091612f67565b60405180910390a2565b600854600a5410611e9c57611e4a6120da565b611e52610fae565b600654600554600954600a546040516001600160a01b03909416937fa58eb6daa3c62c3f883973c4035e5bd3e81aa627c8379de068a7de42df122be293611e2d9390929091612f67565b565b6000600360029054906101000a90046001600160a01b03166001600160a01b031663e220ad956040518163ffffffff1660e01b815260040160006040518083038186803b158015611eee57600080fd5b505afa158015611f02573d6000803e3d6000fd5b505050506040513d6000823e601f3d908101601f19168201604052611f2a9190810190612a0a565b600281518110611f3c57611f3c6130a6565b60200260200101516001600160a01b03166370a08231836040518263ffffffff1660e01b8152600401611f6f9190612dc2565b60206040518083038186803b158015611f8757600080fd5b505afa158015611f9b573d6000803e3d6000fd5b505050506040513d601f19601f82011682018060405250810190610f029190612c56565b6000600360029054906101000a90046001600160a01b03166001600160a01b031663e220ad956040518163ffffffff1660e01b815260040160006040518083038186803b15801561200f57600080fd5b505afa158015612023573d6000803e3d6000fd5b505050506040513d6000823e601f3d908101601f1916820160405261204b9190810190612a0a565b60028151811061205d5761205d6130a6565b60200260200101516001600160a01b03166318160ddd6040518163ffffffff1660e01b815260040160206040518083038186803b15801561209d57600080fd5b505afa1580156120b1573d6000803e3d6000fd5b505050506040513d601f19601f820116820180604052508101906120d59190612c56565b905090565b611e9c6120ea565b6120da6120f6565b611e9c600d6000612621565b600061210061244e565b9050600073__AddressLibrary________________________63f4ce9ae883600081518110612131576121316130a6565b60200260200101516040518263ffffffff1660e01b815260040161215791815260200190565b60206040518083038186803b15801561216f57600080fd5b505af4158015612183573d6000803e3d6000fd5b505050506040513d601f19601f820116820180604052508101906121a791906127ad565b9050600073__AddressLibrary________________________63f4ce9ae8846001815181106121d8576121d86130a6565b60200260200101516040518263ffffffff1660e01b81526004016121fe91815260200190565b60206040518083038186803b15801561221657600080fd5b505af415801561222a573d6000803e3d6000fd5b505050506040513d601f19601f8201168201806040525081019061224e91906127ad565b90506001600160a01b038216156122b357600e80546001600160a01b0319166001600160a01b0384161790556040517f46e671841289b35d061dd0dfd2cbb135c0821b6e27418ca236e2ed8c14c3fd19906122aa908490612dc2565b60405180910390a15b6001600160a01b0381161561231657600f80546001600160a01b0319166001600160a01b0383161790556040517f576081cc849894908eb3a7d760dd8e300e9c5062f9e9e6742cd40d5bd5b721a09061230d908390612dc2565b60405180910390a15b6000801b8360028151811061232d5761232d6130a6565b602002602001015111156123b0578260028151811061234e5761234e6130a6565b60200260200101516010819055507f4912880141eb4d979703a76489842d58bb8cbe04db86cc99b65a0b05df1e2cce83600281518110612390576123906130a6565b60200260200101516040516123a791815260200190565b60405180910390a15b6000801b836003815181106123c7576123c76130a6565b60200260200101511115610f2557826003815181106123e8576123e86130a6565b60200260200101516011819055507f7cbcf1216e5dec7aec240d0d758333758442e4cc1dcb03228890a420597b6acc8360038151811061242a5761242a6130a6565b602002602001015160405161244191815260200190565b60405180910390a1505050565b600d546060906000906001600160401b0381111561246e5761246e6130bc565b604051908082528060200260200182016040528015612497578160200160208202803683370190505b50905060005b600d548110156125975773__Library_______________________________63caa8f589600d83815481106124d4576124d46130a6565b906000526020600020016040518263ffffffff1660e01b81526004016124fa9190612ed8565b60006040518083038186803b15801561251257600080fd5b505af4158015612526573d6000803e3d6000fd5b505050506040513d6000823e601f3d908101601f1916820160405261254e9190810190612aaa565b600081518110612560576125606130a6565b602002602001015182828151811061257a5761257a6130a6565b60209081029190910101528061258f81613075565b91505061249d565b50919050565b8280546125a990613040565b90600052602060002090601f0160209004810192826125cb5760008555612611565b82601f106125e457805160ff1916838001178555612611565b82800160010185558215612611579182015b828111156126115782518255916020019190600101906125f6565b5061261d92915061263f565b5090565b5080546000825590600052602060002090810190610b7e9190612654565b5b8082111561261d5760008155600101612640565b8082111561261d5760006126688282612671565b50600101612654565b50805461267d90613040565b6000825580601f1061268d575050565b601f016020900490600052602060002090810190610b7e919061263f565b80356126b6816130d2565b919050565b600082601f8301126126cc57600080fd5b813560206126e16126dc83612fad565b612f7d565b80838252828201915082860187848660051b890101111561270157600080fd5b60005b8581101561272057813584529284019290840190600101612704565b5090979650505050505050565b600082601f83011261273e57600080fd5b81356001600160401b03811115612757576127576130bc565b61276a601f8201601f1916602001612f7d565b81815284602083860101111561277f57600080fd5b816020850160208301376000918101602001919091529392505050565b805160ff811681146126b657600080fd5b6000602082840312156127bf57600080fd5b8151611d85816130d2565b600080600080600080600060e0888a0312156127e557600080fd5b87356127f0816130d2565b96506020880135612800816130d2565b955060408801356001600160401b038082111561281c57600080fd5b6128288b838c016126bb565b965061283660608b016126ab565b955061284460808b016126ab565b945060a08a013591508082111561285a57600080fd5b6128668b838c0161272d565b935060c08a013591508082111561287c57600080fd5b506128898a828b0161272d565b91505092959891949750929550565b600080600080608085870312156128ae57600080fd5b84356128b9816130d2565b935060208501356128c9816130d2565b925060408501356001600160401b03808211156128e557600080fd5b6128f18883890161272d565b9350606087013591508082111561290757600080fd5b506129148782880161272d565b91505092959194509250565b60008060006060848603121561293557600080fd5b8335612940816130d2565b92506020840135612950816130d2565b929592945050506040919091013590565b6000806040838503121561297457600080fd5b823561297f816130d2565b946020939093013593505050565b60008060008060008060c087890312156129a657600080fd5b86356129b1816130d2565b95506020870135945060408701356129c8816130e7565b9350606087013592506080870135915060a08701356001600160401b038111156129f157600080fd5b6129fd89828a0161272d565b9150509295509295509295565b60006020808385031215612a1d57600080fd5b82516001600160401b03811115612a3357600080fd5b8301601f81018513612a4457600080fd5b8051612a526126dc82612fad565b80828252848201915084840188868560051b8701011115612a7257600080fd5b600094505b83851015612a9e578051612a8a816130d2565b835260019490940193918501918501612a77565b50979650505050505050565b60006020808385031215612abd57600080fd5b82516001600160401b03811115612ad357600080fd5b8301601f81018513612ae457600080fd5b8051612af26126dc82612fad565b80828252848201915084840188868560051b8701011115612b1257600080fd5b600094505b83851015612a9e578051835260019490940193918501918501612b17565b60006020808385031215612b4857600080fd5b82356001600160401b0380821115612b5f57600080fd5b818501915085601f830112612b7357600080fd5b8135612b816126dc82612fad565b80828252858201915085850189878560051b8801011115612ba157600080fd5b6000805b85811015612bdc57823587811115612bbb578283fd5b612bc98d8b838c010161272d565b8652509388019391880191600101612ba5565b50919a9950505050505050505050565b600060208284031215612bfe57600080fd5b8135611d85816130e7565b600060208284031215612c1b57600080fd5b8151611d85816130e7565b60008060408385031215612c3957600080fd5b823591506020830135612c4b816130d2565b809150509250929050565b600060208284031215612c6857600080fd5b5051919050565b600080600060608486031215612c8457600080fd5b83519250612c946020850161279c565b9150612ca26040850161279c565b90509250925092565b600060208284031215612cbd57600080fd5b81516001600160401b0381168114611d8557600080fd5b6000815180845260005b81811015612cfa57602081850181015186830182015201612cde565b81811115612d0c576000602083870101525b50601f01601f19169290920160200192915050565b8054600090600181811c9080831680612d3b57607f831692505b6020808410821415612d5d57634e487b7160e01b600052602260045260246000fd5b838852818015612d745760018114612d8857612db6565b60ff19861689830152604089019650612db6565b876000528160002060005b86811015612dae5781548b8201850152908501908301612d93565b8a0183019750505b50505050505092915050565b6001600160a01b0391909116815260200190565b6001600160a01b0392831681529116602082015260400190565b600061010060018060a01b038b16835289602084015288151560408401528760608401528660808401528060a0840152612e2c81840187612cd4565b905082810360c0840152612e408186612d21565b905082810360e0840152612e548185612d21565b9b9a5050505050505050505050565b6000602080830181845280855180835260408601915060408160051b870101925083870160005b82811015612eb857603f19888603018452612ea6858351612cd4565b94509285019290850190600101612e8a565b5092979650505050505050565b602081526000611d856020830184612cd4565b602081526000611d856020830184612d21565b604081526000612efe6040830185612cd4565b8281036020840152612f108185612cd4565b95945050505050565b6020808252602e908201527f496e697469616c697a61626c653a20636f6e747261637420697320616c72656160408201526d191e481a5b9a5d1a585b1a5e995960921b606082015260800190565b9283526020830191909152604082015260600190565b604051601f8201601f191681016001600160401b0381118282101715612fa557612fa56130bc565b604052919050565b60006001600160401b03821115612fc657612fc66130bc565b5060051b60200190565b60008219821115612fe357612fe3613090565b500190565b60008261300557634e487b7160e01b600052601260045260246000fd5b500490565b600081600019048311821515161561302457613024613090565b500290565b60008282101561303b5761303b613090565b500390565b600181811c9082168061305457607f821691505b6020821081141561259757634e487b7160e01b600052602260045260246000fd5b600060001982141561308957613089613090565b5060010190565b634e487b7160e01b600052601160045260246000fd5b634e487b7160e01b600052603260045260246000fd5b634e487b7160e01b600052604160045260246000fd5b6001600160a01b0381168114610b7e57600080fd5b8015158114610b7e57600080fdfea26469706673582212206990b1102056380fd7ece617278f4a4a0c48e8fd3817e10be4a6a93d1a16e73f64736f6c63430008070033",
  "immutableReferences": {},
  "source": "// SPDX-License-Identifier: GPL-3.0\r\n\r\npragma solidity 0.8.7;\r\n\r\n/**\r\n Price Converter is an interface to the Chain Link Price Registry for USD to ETH exchange\r\n */\r\n\r\nimport \"../Interfaces/IENS.sol\";\r\nimport \"../Base/StdPropositionBaseContract.sol\";\r\nimport \"../Interfaces/IENSRegistry.sol\";\r\nimport \"../Interfaces/IENSResolver.sol\";\r\n\r\ncontract ENS is IENS, StdPropositionBaseContract {\r\n\r\n    // EVENTS /////////////////////////////////////////\r\n    event _NewRegistry(address Registry);\r\n    event _NewReverseRegistry(address ReverseRegistry);\r\n    event _NewPrivatePoolNode(bytes32 PrivatePoolNode);\r\n    event _NewProviderNode(bytes32 ProviderNode);\r\n    event _NewSubdomainCreated(bytes32 node, bytes32 label, address addr);\r\n\r\n    // DATA /////////////////////////////////////////\r\n    IENSRegistry internal _ENS;\r\n    address internal _ENSReverseRegistry;\r\n    bytes32 internal _PrivatePoolNode; \r\n    bytes32 internal _ProviderNode; \r\n\r\n    // MODIFIERS /////////////////////////////////////////\r\n    modifier isFromAuthorizedContract(address addr){\r\n        require(_managerContract.retrieveTransparentProxies()[uint256(Library.TransparentProxies.PrivatePoolFactory)] == addr ||\r\n                _managerContract.retrieveTransparentProxies()[uint256(Library.TransparentProxies.ProviderFactory)] == addr, \"EC8-\");\r\n        _;\r\n    }\r\n\r\n    modifier arePropositionsOK(address addr1, address addr2, bytes32 privatenode, bytes32 providernode){\r\n        require(address(0) != addr1 || address(0) != addr2 || privatenode > 0 || providernode > 0, \"EC21-\");\r\n        _;\r\n    }\r\n\r\n    // CONSTRUCTOR /////////////////////////////////////////\r\n    function ENS_init(address ENSRegistry, address ENSReverseRegistry, bytes32[] memory nodes, address managerContractAddress, address chairPerson, string memory contractName, string memory contractVersion) public initializer \r\n    {\r\n        super.StdPropositionBaseContract_init(chairPerson, managerContractAddress, contractName, contractVersion);\r\n        _ENS = IENSRegistry(ENSRegistry);\r\n        _ENSReverseRegistry = ENSReverseRegistry;\r\n        _PrivatePoolNode = nodes[0];\r\n        _ProviderNode = nodes[1];\r\n    }\r\n\r\n    // GOVERNANCE /////////////////////////////////////////\r\n    function checkProposition(bytes[] memory NewValues) internal override \r\n        arePropositionsOK(AddressLibrary.Bytes32ToAddress(Library.BytestoBytes32(NewValues[0])[0]),\r\n                            AddressLibrary.Bytes32ToAddress(Library.BytestoBytes32(NewValues[1])[0]),\r\n                            Library.BytestoBytes32(NewValues[2])[0],\r\n                            Library.BytestoBytes32(NewValues[3])[0])\r\n    {}\r\n\r\n    function UpdateAll() internal override\r\n    {\r\n        bytes32[] memory ProposedNewValues = PropositionsToBytes32();\r\n\r\n        address NewRegistryAddress = AddressLibrary.Bytes32ToAddress(ProposedNewValues[0]);\r\n        address NewReverseRegistryAddress = AddressLibrary.Bytes32ToAddress(ProposedNewValues[1]);\r\n\r\n        if(address(0) != NewRegistryAddress){\r\n            _ENS = IENSRegistry(NewRegistryAddress);\r\n            emit _NewRegistry(NewRegistryAddress);\r\n        } \r\n\r\n        if(address(0) != NewReverseRegistryAddress){\r\n            _ENSReverseRegistry = NewReverseRegistryAddress;\r\n            emit _NewReverseRegistry(NewReverseRegistryAddress);\r\n        }\r\n\r\n        if(ProposedNewValues[2] > 0) {\r\n            _PrivatePoolNode = ProposedNewValues[2];\r\n            emit _NewPrivatePoolNode(ProposedNewValues[2]);\r\n        }\r\n\r\n        if(ProposedNewValues[3] > 0) {\r\n            _ProviderNode = ProposedNewValues[3];\r\n            emit _NewProviderNode(ProposedNewValues[3]);\r\n        }\r\n\r\n    }\r\n\r\n    // FUNCTIONALITY /////////////////////////////////////////\r\n    function check(bytes32 node) internal view returns(bool) {\r\n        return _ENS.recordExists(node);\r\n    }\r\n\r\n    function createSubdomain(bytes32 label, address addr) external override\r\n        isFromAuthorizedContract(msg.sender)\r\n    {\r\n        bytes32 node = _ProviderNode;\r\n        if(msg.sender == _managerContract.retrieveTransparentProxies()[uint256(Library.TransparentProxies.PrivatePoolFactory)]) node = _PrivatePoolNode;\r\n\r\n        bytes32 FullNode = keccak256(abi.encodePacked(node, label));\r\n        require(false == check(FullNode), \"EC37-\");\r\n\r\n        address resolverAddress = _ENS.resolver(node);\r\n        uint64 ttl = _ENS.ttl(node);\r\n\r\n        _ENS.setSubnodeRecord(node, label, address(this), resolverAddress, ttl);\r\n        IENSResolver resolver = IENSResolver(resolverAddress);\r\n        resolver.setAddr(FullNode, addr);\r\n\r\n        emit _NewSubdomainCreated(node, label, addr);\r\n    }\r\n\r\n    function retrieveSettings() external override view returns(address, address, bytes32, bytes32)\r\n    {\r\n        return (address(_ENS), _ENSReverseRegistry, _PrivatePoolNode, _ProviderNode);\r\n    }\r\n    \r\n\r\n}",
  "sourcePath": "C:\\Users\\d-aam\\GitHub\\Certificates\\contracts\\DeployedContracts\\ENS.sol",
  "compiler": {
    "name": "solc",
    "version": "0.8.7+commit.e28d00a7.Emscripten.clang"
  },
  "schemaVersion": "3.4.3",
  "updatedAt": "2021-12-10T13:05:44.261Z",
  "devdoc": {
    "kind": "dev",
    "methods": {},
    "version": 1
  },
  "userdoc": {
    "kind": "user",
    "methods": {},
    "version": 1
  }
}