{
  "contractName": "ENS",
  "abi": [
    {
      "anonymous": false,
      "inputs": [
        {
          "indexed": false,
          "internalType": "uint256",
          "name": "Id",
          "type": "uint256"
        },
        {
          "indexed": true,
          "internalType": "address",
          "name": "Proposer",
          "type": "address"
        },
        {
          "indexed": false,
          "internalType": "uint256",
          "name": "Deadline",
          "type": "uint256"
        },
        {
          "indexed": false,
          "internalType": "uint256",
          "name": "Threshold",
          "type": "uint256"
        }
      ],
      "name": "_AddedProposition",
      "type": "event"
    },
    {
      "anonymous": false,
      "inputs": [
        {
          "indexed": false,
          "internalType": "uint256",
          "name": "Id",
          "type": "uint256"
        },
        {
          "indexed": true,
          "internalType": "address",
          "name": "Proposer",
          "type": "address"
        }
      ],
      "name": "_CancelledProposition",
      "type": "event"
    },
    {
      "anonymous": false,
      "inputs": [
        {
          "indexed": false,
          "internalType": "address",
          "name": "Registry",
          "type": "address"
        }
      ],
      "name": "_NewRegistryAddress",
      "type": "event"
    },
    {
      "anonymous": false,
      "inputs": [
        {
          "indexed": false,
          "internalType": "bytes32",
          "name": "node",
          "type": "bytes32"
        },
        {
          "indexed": false,
          "internalType": "bytes32",
          "name": "label",
          "type": "bytes32"
        }
      ],
      "name": "_NewSubdomainCreated",
      "type": "event"
    },
    {
      "anonymous": false,
      "inputs": [
        {
          "indexed": false,
          "internalType": "uint256",
          "name": "Id",
          "type": "uint256"
        },
        {
          "indexed": true,
          "internalType": "address",
          "name": "Proposer",
          "type": "address"
        },
        {
          "indexed": false,
          "internalType": "uint256",
          "name": "VotesFor",
          "type": "uint256"
        },
        {
          "indexed": false,
          "internalType": "uint256",
          "name": "VotesAgainst",
          "type": "uint256"
        }
      ],
      "name": "_PropositionApproved",
      "type": "event"
    },
    {
      "anonymous": false,
      "inputs": [
        {
          "indexed": false,
          "internalType": "uint256",
          "name": "Id",
          "type": "uint256"
        },
        {
          "indexed": true,
          "internalType": "address",
          "name": "Proposer",
          "type": "address"
        },
        {
          "indexed": false,
          "internalType": "uint256",
          "name": "VotesFor",
          "type": "uint256"
        },
        {
          "indexed": false,
          "internalType": "uint256",
          "name": "VotesAgainst",
          "type": "uint256"
        }
      ],
      "name": "_PropositionRejected",
      "type": "event"
    },
    {
      "anonymous": false,
      "inputs": [
        {
          "indexed": false,
          "internalType": "uint256",
          "name": "Id",
          "type": "uint256"
        },
        {
          "indexed": true,
          "internalType": "address",
          "name": "Voter",
          "type": "address"
        },
        {
          "indexed": false,
          "internalType": "bool",
          "name": "Vote",
          "type": "bool"
        },
        {
          "indexed": false,
          "internalType": "uint256",
          "name": "AmountTokens",
          "type": "uint256"
        }
      ],
      "name": "_PropositionVote",
      "type": "event"
    },
    {
      "anonymous": false,
      "inputs": [
        {
          "indexed": true,
          "internalType": "uint256",
          "name": "Id",
          "type": "uint256"
        },
        {
          "indexed": false,
          "internalType": "address",
          "name": "From",
          "type": "address"
        },
        {
          "indexed": false,
          "internalType": "address",
          "name": "To",
          "type": "address"
        },
        {
          "indexed": false,
          "internalType": "uint256",
          "name": "Amount",
          "type": "uint256"
        }
      ],
      "name": "_UsedTokensTransfered",
      "type": "event"
    },
    {
      "inputs": [
        {
          "internalType": "address",
          "name": "chairPerson",
          "type": "address"
        },
        {
          "internalType": "address",
          "name": "managerContractAddress",
          "type": "address"
        },
        {
          "internalType": "string",
          "name": "contractName",
          "type": "string"
        },
        {
          "internalType": "string",
          "name": "contractVersion",
          "type": "string"
        }
      ],
      "name": "ExternalRegistryBaseContract_init",
      "outputs": [],
      "stateMutability": "nonpayable",
      "type": "function"
    },
    {
      "inputs": [],
      "name": "cancelProposition",
      "outputs": [],
      "stateMutability": "nonpayable",
      "type": "function"
    },
    {
      "inputs": [
        {
          "internalType": "address",
          "name": "from",
          "type": "address"
        },
        {
          "internalType": "address",
          "name": "to",
          "type": "address"
        },
        {
          "internalType": "uint256",
          "name": "amount",
          "type": "uint256"
        }
      ],
      "name": "onTokenBalanceChanged",
      "outputs": [],
      "stateMutability": "nonpayable",
      "type": "function"
    },
    {
      "inputs": [],
      "name": "retrieveChairPerson",
      "outputs": [
        {
          "internalType": "address",
          "name": "",
          "type": "address"
        }
      ],
      "stateMutability": "view",
      "type": "function"
    },
    {
      "inputs": [],
      "name": "retrieveContractConfig",
      "outputs": [
        {
          "internalType": "string",
          "name": "",
          "type": "string"
        },
        {
          "internalType": "string",
          "name": "",
          "type": "string"
        }
      ],
      "stateMutability": "view",
      "type": "function"
    },
    {
      "inputs": [],
      "name": "retrieveManagerContract",
      "outputs": [
        {
          "internalType": "address",
          "name": "",
          "type": "address"
        }
      ],
      "stateMutability": "view",
      "type": "function"
    },
    {
      "inputs": [],
      "name": "retrieveNextPropId",
      "outputs": [
        {
          "internalType": "uint256",
          "name": "",
          "type": "uint256"
        }
      ],
      "stateMutability": "view",
      "type": "function"
    },
    {
      "inputs": [
        {
          "internalType": "address",
          "name": "addr",
          "type": "address"
        },
        {
          "internalType": "uint256",
          "name": "nonce",
          "type": "uint256"
        }
      ],
      "name": "retrieveNonce",
      "outputs": [
        {
          "internalType": "bool",
          "name": "",
          "type": "bool"
        }
      ],
      "stateMutability": "view",
      "type": "function"
    },
    {
      "inputs": [],
      "name": "retrieveProposition",
      "outputs": [
        {
          "internalType": "bytes32[]",
          "name": "",
          "type": "bytes32[]"
        }
      ],
      "stateMutability": "view",
      "type": "function"
    },
    {
      "inputs": [],
      "name": "retrievePropositionStatus",
      "outputs": [
        {
          "internalType": "address",
          "name": "",
          "type": "address"
        },
        {
          "internalType": "uint256",
          "name": "",
          "type": "uint256"
        },
        {
          "internalType": "uint256",
          "name": "",
          "type": "uint256"
        },
        {
          "internalType": "uint256",
          "name": "",
          "type": "uint256"
        },
        {
          "internalType": "uint256",
          "name": "",
          "type": "uint256"
        }
      ],
      "stateMutability": "view",
      "type": "function"
    },
    {
      "inputs": [
        {
          "internalType": "uint256",
          "name": "PropId",
          "type": "uint256"
        },
        {
          "internalType": "address",
          "name": "voter",
          "type": "address"
        }
      ],
      "name": "retrieveVotesForVoter",
      "outputs": [
        {
          "internalType": "uint256",
          "name": "",
          "type": "uint256"
        }
      ],
      "stateMutability": "view",
      "type": "function"
    },
    {
      "inputs": [
        {
          "internalType": "address",
          "name": "NewRegistryAddress",
          "type": "address"
        }
      ],
      "name": "updateRegistryAddress",
      "outputs": [],
      "stateMutability": "nonpayable",
      "type": "function"
    },
    {
      "inputs": [
        {
          "internalType": "bool",
          "name": "vote",
          "type": "bool"
        }
      ],
      "name": "voteProposition",
      "outputs": [],
      "stateMutability": "nonpayable",
      "type": "function"
    },
    {
      "inputs": [
        {
          "internalType": "address",
          "name": "voter",
          "type": "address"
        },
        {
          "internalType": "uint256",
          "name": "propID",
          "type": "uint256"
        },
        {
          "internalType": "bool",
          "name": "vote",
          "type": "bool"
        },
        {
          "internalType": "uint256",
          "name": "nonce",
          "type": "uint256"
        },
        {
          "internalType": "uint256",
          "name": "deadline",
          "type": "uint256"
        },
        {
          "internalType": "bytes",
          "name": "signature",
          "type": "bytes"
        }
      ],
      "name": "votePropositionOnBehalfOf",
      "outputs": [],
      "stateMutability": "nonpayable",
      "type": "function"
    },
    {
      "inputs": [
        {
          "internalType": "address",
          "name": "ENSRegistry",
          "type": "address"
        },
        {
          "internalType": "address",
          "name": "managerContractAddress",
          "type": "address"
        },
        {
          "internalType": "address",
          "name": "chairPerson",
          "type": "address"
        },
        {
          "internalType": "string",
          "name": "contractName",
          "type": "string"
        },
        {
          "internalType": "string",
          "name": "contractVersion",
          "type": "string"
        }
      ],
      "name": "ENS_init",
      "outputs": [],
      "stateMutability": "nonpayable",
      "type": "function"
    },
    {
      "inputs": [],
      "name": "retrieveRegistryAddress",
      "outputs": [
        {
          "internalType": "address",
          "name": "",
          "type": "address"
        }
      ],
      "stateMutability": "view",
      "type": "function"
    },
    {
      "inputs": [
        {
          "internalType": "bytes32",
          "name": "node",
          "type": "bytes32"
        },
        {
          "internalType": "bytes32",
          "name": "label",
          "type": "bytes32"
        },
        {
          "internalType": "address",
          "name": "resolverAddress",
          "type": "address"
        },
        {
          "internalType": "uint64",
          "name": "ttl",
          "type": "uint64"
        },
        {
          "internalType": "address",
          "name": "addr",
          "type": "address"
        }
      ],
      "name": "createSubdomain",
      "outputs": [],
      "stateMutability": "nonpayable",
      "type": "function"
    }
  ],
  "bytecode": "0x608060405234801561001057600080fd5b5061210d806100206000396000f3fe608060405234801561001057600080fd5b50600436106100db5760003560e01c806304cc67a9146100e05780631e7feef1146100f7578063305999991461010c5780633c7df55d1461011f5780633feca4ca146101325780634044adb21461017b57806355457ee9146101b15780635b362e84146101b95780637faa3d6f146101d9578063840f6d17146101ec57806391f916711461022d578063a93316f514610240578063b12795e514610255578063c57a882514610268578063d2116a021461027b578063db85bc4d14610291578063e1f5f858146102a2575b600080fd5b600b545b6040519081526020015b60405180910390f35b61010a610105366004611a98565b6102b3565b005b61010a61011a3660046119fd565b610338565b61010a61012d366004611b20565b6103d0565b61016b610140366004611b61565b6001600160a01b03919091166000908152600260209081526040808320938352929052205460ff1690565b60405190151581526020016100ee565b6100e4610189366004611cdc565b6000918252600c602090815260408084206001600160a01b0393909316845291905290205490565b61010a6104d0565b6003546201000090046001600160a01b03165b6040516100ee9190611e35565b61010a6101e7366004611b8d565b6105a2565b600654600754600854600954600a54604080516001600160a01b0390961686526020860194909452928401919091526060830152608082015260a0016100ee565b61010a61023b366004611c1e565b6105ba565b6102486105c7565b6040516100ee9190611ed6565b61010a610263366004611c71565b6106a2565b61010a6102763660046119c3565b6108b4565b6102836108de565b6040516100ee929190611f1a565b6004546001600160a01b03166101cc565b600e546001600160a01b03166101cc565b600354610100900460ff16806102cc575060035460ff16155b6102f15760405162461bcd60e51b81526004016102e890611f48565b60405180910390fd5b600354610100900460ff16158015610313576003805461ffff19166101011790555b61031f85858585610a05565b8015610331576003805461ff00191690555b5050505050565b600354610100900460ff1680610351575060035460ff16155b61036d5760405162461bcd60e51b81526004016102e890611f48565b600354610100900460ff1615801561038f576003805461ffff19166101011790555b61039b848685856102b3565b600e80546001600160a01b0319166001600160a01b03881617905580156103c8576003805461ff00191690555b505050505050565b3373__Library_______________________________6337ea306382600360029054906101000a90046001600160a01b03166001600160a01b031663da3dce266040518163ffffffff1660e01b815260040160206040518083038186803b15801561043a57600080fd5b505afa15801561044e573d6000803e3d6000fd5b505050506040513d601f19601f8201168201806040525081019061047291906119e0565b6040518363ffffffff1660e01b815260040161048f929190611e49565b60006040518083038186803b1580156104a757600080fd5b505af41580156104bb573d6000803e3d6000fd5b505050506104ca848484610a8f565b50505050565b60016104db81610ab1565b6006546040516337ea306360e01b8152339173__Library_______________________________916337ea3063916105219185916001600160a01b031690600401611e49565b60006040518083038186803b15801561053957600080fd5b505af415801561054d573d6000803e3d6000fd5b50505050610559610b35565b6006546005546040519081526001600160a01b03909116907f1fe8aec10c0a50fa765076161e08c1f961ced69594ff45cf7d559f593afe14799060200160405180910390a25050565b6105b0868686868686610b60565b6103c88685610cbf565b6105c43382610cbf565b50565b60408051600180825281830190925260609160009190602080830190803683375050600d5460405163bc215e8560e01b815292935073__AddressLibrary________________________9263bc215e85925061062f916001600160a01b031690600401611e35565b60206040518083038186803b15801561064757600080fd5b505af415801561065b573d6000803e3d6000fd5b505050506040513d601f19601f8201168201806040525081019061067f9190611c58565b8160008151811061069257610692612088565b6020908102919091010152919050565b604080516020808201889052818301879052825180830384018152606090920190925280519101206106d381610dd6565b156107085760405162461bcd60e51b8152602060048201526005602482015264454333372d60d81b60448201526064016102e8565b61071186610dd6565b151560011461074a5760405162461bcd60e51b8152602060048201526005602482015264454333382d60d81b60448201526064016102e8565b6001600160a01b0384166107885760405162461bcd60e51b8152602060048201526005602482015264454333392d60d81b60448201526064016102e8565b6001600160a01b0382166107c65760405162461bcd60e51b8152602060048201526005602482015264454334302d60d81b60448201526064016102e8565b600e546040516305ef2c7f60e41b815260048101889052602481018790523060448201526001600160a01b0386811660648301526001600160401b038616608483015290911690635ef2c7f09060a401600060405180830381600087803b15801561083057600080fd5b505af1158015610844573d6000803e3d6000fd5b505060405162d5fa2b60e81b8152600481018490526001600160a01b0385811660248301528793508316915063d5fa2b0090604401600060405180830381600087803b15801561089357600080fd5b505af11580156108a7573d6000803e3d6000fd5b5050505050505050505050565b6108bc610e59565b600d80546001600160a01b0319166001600160a01b0392909216919091179055565b606080600060018180546108f19061201c565b80601f016020809104026020016040519081016040528092919081815260200182805461091d9061201c565b801561096a5780601f1061093f5761010080835404028352916020019161096a565b820191906000526020600020905b81548152906001019060200180831161094d57829003601f168201915b5050505050915080805461097d9061201c565b80601f01602080910402602001604051908101604052809291908181526020018280546109a99061201c565b80156109f65780601f106109cb576101008083540402835291602001916109f6565b820191906000526020600020905b8154815290600101906020018083116109d957829003601f168201915b50505050509050915091509091565b600354610100900460ff1680610a1e575060035460ff16155b610a3a5760405162461bcd60e51b81526004016102e890611f48565b600354610100900460ff16158015610a5c576003805461ffff19166101011790555b610a65846111ad565b600480546001600160a01b0319166001600160a01b0387161790556000600b5561031f838361123c565b610a97611263565b151560011415610aac57610aac83838361129d565b505050565b8015610af857610abf611263565b15156001146105c45760405162461bcd60e51b8152602060048201526005602482015264454332352d60d81b60448201526064016102e8565b610b00611263565b156105c45760405162461bcd60e51b8152602060048201526005602482015264454332342d60d81b60448201526064016102e8565b60006005819055600680546001600160a01b0319169055600781905560088190556009819055600a55565b81610b6a8161140d565b8684610b768282611444565b6005548814610baf5760405162461bcd60e51b8152602060048201526005602482015264454333352d60d81b60448201526064016102e8565b60405163432f9a5560e01b815273__SignatureLibrary______________________9063432f9a5590610bf6908c908c908c908c908c908c90600090600190600401611e63565b60206040518083038186803b158015610c0e57600080fd5b505af4158015610c22573d6000803e3d6000fd5b505050506040513d601f19601f82011682018060405250810190610c469190611c3b565b1515600114610c7f5760405162461bcd60e51b8152602060048201526005602482015264454333322d60d81b60448201526064016102e8565b610cb489876001600160a01b03909116600090815260026020908152604080832093835292905220805460ff19166001179055565b505050505050505050565b6001610cca81610ab1565b60055483906000610cdb83836114a0565b905060008111610d155760405162461bcd60e51b8152602060048201526005602482015264454332332d60d81b60448201526064016102e8565b6000610d26876005600001546114a0565b90508515610d4e578060056004016000828254610d439190611fac565b90915550610d689050565b80600580016000828254610d629190611fac565b90915550505b600554610d769088836114dd565b60055460408051918252871515602083015281018290526001600160a01b038816907f50f654d58981575c05e369cb129aeacb01e1b036af429380242cfc5d1a4b743f9060600160405180910390a2610dcd611519565b50505050505050565b600e54604051631ef3fca760e31b8152600481018390526000916001600160a01b03169063f79fe5389060240160206040518083038186803b158015610e1b57600080fd5b505afa158015610e2f573d6000803e3d6000fd5b505050506040513d601f19601f82011682018060405250810190610e539190611c3b565b92915050565b6000610e6481610ab1565b60045433906000906001600160a01b0316821415610e8457506001610fbd565b6000610e8f836115ef565b90506000600360029054906101000a90046001600160a01b03166001600160a01b03166387552a0d6040518163ffffffff1660e01b815260040160206040518083038186803b158015610ee157600080fd5b505afa158015610ef5573d6000803e3d6000fd5b505050506040513d601f19601f82011682018060405250810190610f1991906119e0565b6001600160a01b031663b049473f6040518163ffffffff1660e01b815260040160606040518083038186803b158015610f5157600080fd5b505afa158015610f65573d6000803e3d6000fd5b505050506040513d601f19601f82011682018060405250810190610f899190611d0c565b925050506064610f976116f2565b610fa49060ff8416611fe6565b610fae9190611fc4565b821115610fba57600192505b50505b600181151514610ff75760405162461bcd60e51b8152602060048201526005602482015264454332322d60d81b60448201526064016102e8565b600080600360029054906101000a90046001600160a01b03166001600160a01b03166387552a0d6040518163ffffffff1660e01b815260040160206040518083038186803b15801561104857600080fd5b505afa15801561105c573d6000803e3d6000fd5b505050506040513d601f19601f8201168201806040525081019061108091906119e0565b6001600160a01b031663b049473f6040518163ffffffff1660e01b815260040160606040518083038186803b1580156110b857600080fd5b505afa1580156110cc573d6000803e3d6000fd5b505050506040513d601f19601f820116820180604052508101906110f09190611d0c565b50600680546001600160a01b0319163317905590925090506111128242611fac565b600755606460ff82166111236116f2565b61112d9190611fe6565b6111379190611fc4565b600855600b8054600581905590600061114f83612057565b90915550506006546005546007546008546040516001600160a01b03909416937f472501d19bf75639b2e316cd36f8568b0c3ab943b82a87de3c086c98c1929df99361119e9390929091611f96565b60405180910390a25050505050565b600354610100900460ff16806111c6575060035460ff16155b6111e25760405162461bcd60e51b81526004016102e890611f48565b600354610100900460ff16158015611204576003805461ffff19166101011790555b6003805462010000600160b01b031916620100006001600160a01b038516021790558015611238576003805461ff00191690555b5050565b815161124f90600090602085019061187f565b508051610aac90600190602084019061187f565b6007546000904210156112765750600190565b6006546001600160a01b0316156112975761128f6117ef565b611297610b35565b50600090565b6001600160a01b038316158015906112d957506005546000908152600c602090815260408083206001600160a01b038716845290915290205415155b15610aac576005546000908152600c602090815260408083206001600160a01b0387168452909152902054819081111561133557506005546000908152600c602090815260408083206001600160a01b03871684529091529020545b6005546000908152600c602090815260408083206001600160a01b03881684529091528120805483929061136a908490612005565b90915550506001600160a01b038316156113b9576005546000908152600c602090815260408083206001600160a01b0387168452909152812080548392906113b3908490611fac565b90915550505b600554604080516001600160a01b038088168252861660208201529081018390527f65fbd5e5dd32bea4aeca85bd0be0abf0e489d655dee888a7510d43b06dda2dba9060600160405180910390a250505050565b8042106105c45760405162461bcd60e51b8152602060048201526005602482015264454333332d60d81b60448201526064016102e8565b6001600160a01b038216600090815260026020908152604080832084845290915290205460ff16156112385760405162461bcd60e51b8152602060048201526005602482015264454333342d60d81b60448201526064016102e8565b6000818152600c602090815260408083206001600160a01b03861684529091528120546114cc846115ef565b6114d69190612005565b9392505050565b6000838152600c602090815260408083206001600160a01b03861684529091528120805483929061150f908490611fac565b9091555050505050565b600854600954106115885761152c6117f7565b611534610b35565b600654600554600954600a546040516001600160a01b03909416937f23ca0034cf5aad32571b4a492e9598ea8a490e1643a60970e3cdc6933b55e49f9361157e9390929091611f96565b60405180910390a2565b600854600a54106115ed5761159b6117ef565b6115a3610b35565b600654600554600954600a546040516001600160a01b03909416937fa58eb6daa3c62c3f883973c4035e5bd3e81aa627c8379de068a7de42df122be29361157e9390929091611f96565b565b6000600360029054906101000a90046001600160a01b03166001600160a01b031663da3dce266040518163ffffffff1660e01b815260040160206040518083038186803b15801561163f57600080fd5b505afa158015611653573d6000803e3d6000fd5b505050506040513d601f19601f8201168201806040525081019061167791906119e0565b6001600160a01b03166370a08231836040518263ffffffff1660e01b81526004016116a29190611e35565b60206040518083038186803b1580156116ba57600080fd5b505afa1580156116ce573d6000803e3d6000fd5b505050506040513d601f19601f82011682018060405250810190610e539190611c58565b6000600360029054906101000a90046001600160a01b03166001600160a01b031663da3dce266040518163ffffffff1660e01b815260040160206040518083038186803b15801561174257600080fd5b505afa158015611756573d6000803e3d6000fd5b505050506040513d601f19601f8201168201806040525081019061177a91906119e0565b6001600160a01b03166318160ddd6040518163ffffffff1660e01b815260040160206040518083038186803b1580156117b257600080fd5b505afa1580156117c6573d6000803e3d6000fd5b505050506040513d601f19601f820116820180604052508101906117ea9190611c58565b905090565b6115ed61186d565b61181e600d54600e80546001600160a01b0319166001600160a01b03909216919091179055565b61182661186d565b600d546040517fe08b34098bd9a7db19810e36803d50bdcf85ca58118d07b4ef3705811d8303b591611863916001600160a01b0390911690611e35565b60405180910390a1565b600d80546001600160a01b0319169055565b82805461188b9061201c565b90600052602060002090601f0160209004810192826118ad57600085556118f3565b82601f106118c657805160ff19168380011785556118f3565b828001600101855582156118f3579182015b828111156118f35782518255916020019190600101906118d8565b506118ff929150611903565b5090565b5b808211156118ff5760008155600101611904565b60006001600160401b03808411156119325761193261209e565b604051601f8501601f19908116603f0116810190828211818310171561195a5761195a61209e565b8160405280935085815286868601111561197357600080fd5b858560208301376000602087830101525050509392505050565b600082601f83011261199e57600080fd5b6114d683833560208501611918565b805160ff811681146119be57600080fd5b919050565b6000602082840312156119d557600080fd5b81356114d6816120b4565b6000602082840312156119f257600080fd5b81516114d6816120b4565b600080600080600060a08688031215611a1557600080fd5b8535611a20816120b4565b94506020860135611a30816120b4565b93506040860135611a40816120b4565b925060608601356001600160401b0380821115611a5c57600080fd5b611a6889838a0161198d565b93506080880135915080821115611a7e57600080fd5b50611a8b8882890161198d565b9150509295509295909350565b60008060008060808587031215611aae57600080fd5b8435611ab9816120b4565b93506020850135611ac9816120b4565b925060408501356001600160401b0380821115611ae557600080fd5b611af18883890161198d565b93506060870135915080821115611b0757600080fd5b50611b148782880161198d565b91505092959194509250565b600080600060608486031215611b3557600080fd5b8335611b40816120b4565b92506020840135611b50816120b4565b929592945050506040919091013590565b60008060408385031215611b7457600080fd5b8235611b7f816120b4565b946020939093013593505050565b60008060008060008060c08789031215611ba657600080fd5b8635611bb1816120b4565b9550602087013594506040870135611bc8816120c9565b9350606087013592506080870135915060a08701356001600160401b03811115611bf157600080fd5b8701601f81018913611c0257600080fd5b611c1189823560208401611918565b9150509295509295509295565b600060208284031215611c3057600080fd5b81356114d6816120c9565b600060208284031215611c4d57600080fd5b81516114d6816120c9565b600060208284031215611c6a57600080fd5b5051919050565b600080600080600060a08688031215611c8957600080fd5b85359450602086013593506040860135611ca2816120b4565b925060608601356001600160401b0381168114611cbe57600080fd5b91506080860135611cce816120b4565b809150509295509295909350565b60008060408385031215611cef57600080fd5b823591506020830135611d01816120b4565b809150509250929050565b600080600060608486031215611d2157600080fd5b83519250611d31602085016119ad565b9150611d3f604085016119ad565b90509250925092565b6000815180845260005b81811015611d6e57602081850181015186830182015201611d52565b81811115611d80576000602083870101525b50601f01601f19169290920160200192915050565b8054600090600181811c9080831680611daf57607f831692505b6020808410821415611dd157634e487b7160e01b600052602260045260246000fd5b83885260208801828015611dec5760018114611dfd57611e28565b60ff19871682528282019750611e28565b60008981526020902060005b87811015611e2257815484820152908601908401611e09565b83019850505b5050505050505092915050565b6001600160a01b0391909116815260200190565b6001600160a01b0392831681529116602082015260400190565b600061010060018060a01b038b16835289602084015288151560408401528760608401528660808401528060a0840152611e9f81840187611d48565b905082810360c0840152611eb38186611d95565b905082810360e0840152611ec78185611d95565b9b9a5050505050505050505050565b6020808252825182820181905260009190848201906040850190845b81811015611f0e57835183529284019291840191600101611ef2565b50909695505050505050565b604081526000611f2d6040830185611d48565b8281036020840152611f3f8185611d48565b95945050505050565b6020808252602e908201527f496e697469616c697a61626c653a20636f6e747261637420697320616c72656160408201526d191e481a5b9a5d1a585b1a5e995960921b606082015260800190565b9283526020830191909152604082015260600190565b60008219821115611fbf57611fbf612072565b500190565b600082611fe157634e487b7160e01b600052601260045260246000fd5b500490565b600081600019048311821515161561200057612000612072565b500290565b60008282101561201757612017612072565b500390565b600181811c9082168061203057607f821691505b6020821081141561205157634e487b7160e01b600052602260045260246000fd5b50919050565b600060001982141561206b5761206b612072565b5060010190565b634e487b7160e01b600052601160045260246000fd5b634e487b7160e01b600052603260045260246000fd5b634e487b7160e01b600052604160045260246000fd5b6001600160a01b03811681146105c457600080fd5b80151581146105c457600080fdfea26469706673582212205900d8f192e092c6b898bce819b9b5283c7668e087d5626e4b6bf87fa15b2fb464736f6c63430008070033",
  "immutableReferences": {},
  "source": "// SPDX-License-Identifier: GPL-3.0\r\n\r\npragma solidity 0.8.7;\r\n\r\n/**\r\n Price Converter is an interface to the Chain Link Price Registry for USD to ETH exchange\r\n */\r\n\r\nimport \"../Interfaces/IENS.sol\";\r\nimport \"../Base/ExternalRegistryBaseContract.sol\";\r\nimport \"../Interfaces/IENSRegistry.sol\";\r\nimport \"../Interfaces/IENSResolver.sol\";\r\n\r\n\r\ncontract ENS is IENS, ExternalRegistryBaseContract {\r\n\r\n    // EVENTS /////////////////////////////////////////\r\n    event _NewSubdomainCreated(bytes32 node, bytes32 label);\r\n\r\n    // DATA /////////////////////////////////////////\r\n    IENSRegistry internal _ENS;\r\n\r\n    // CONSTRUCTOR /////////////////////////////////////////\r\n    function ENS_init(address ENSRegistry, address managerContractAddress, address chairPerson, string memory contractName, string memory contractVersion) public initializer \r\n    {\r\n        super.ExternalRegistryBaseContract_init(chairPerson, managerContractAddress, contractName, contractVersion);\r\n        _ENS = IENSRegistry(ENSRegistry);\r\n    }\r\n\r\n    // GOVERNANCE /////////////////////////////////////////\r\n    function UpdateRegistry() internal override\r\n    {\r\n        _ENS = IENSRegistry(_ProposedRegistryAddress);\r\n    }\r\n\r\n    function retrieveRegistryAddress() external override view returns(address)\r\n    {\r\n        return address(_ENS);\r\n    }\r\n\r\n    // FUNCTIONALITY /////////////////////////////////////////\r\n    function check(bytes32 node) internal view returns(bool) {\r\n        return _ENS.recordExists(node);\r\n    }\r\n\r\n    function createSubdomain(bytes32 node, bytes32 label, address resolverAddress, uint64 ttl, address addr) external override\r\n    {\r\n        bytes32 FullNode = keccak256(abi.encodePacked(node, label));\r\n        require(false == check(FullNode), \"EC37-\");\r\n        require(true == check(node), \"EC38-\");\r\n        require(address(0) != resolverAddress, \"EC39-\");\r\n        require(address(0) != addr, \"EC40-\");\r\n\r\n        _ENS.setSubnodeRecord(node, label, address(this), resolverAddress, ttl);\r\n        IENSResolver resolver = IENSResolver(resolverAddress);\r\n        resolver.setAddr(FullNode, addr);\r\n    }\r\n    \r\n\r\n}",
  "sourcePath": "C:/Users/d-aam/GitHub/Certificates/contracts/DeployedContracts/ENS.sol",
  "compiler": {
    "name": "solc",
    "version": "0.8.7+commit.e28d00a7.Emscripten.clang"
  },
  "schemaVersion": "3.3.4",
  "updatedAt": "2021-10-27T11:19:55.332Z",
  "devdoc": {
    "kind": "dev",
    "methods": {},
    "version": 1
  },
  "userdoc": {
    "kind": "user",
    "methods": {},
    "version": 1
  }
}