{
  "contractName": "ENS",
  "abi": [
    {
      "anonymous": false,
      "inputs": [
        {
          "indexed": false,
          "internalType": "uint256",
          "name": "Id",
          "type": "uint256"
        },
        {
          "indexed": true,
          "internalType": "address",
          "name": "Proposer",
          "type": "address"
        },
        {
          "indexed": false,
          "internalType": "uint256",
          "name": "Deadline",
          "type": "uint256"
        },
        {
          "indexed": false,
          "internalType": "uint256",
          "name": "Threshold",
          "type": "uint256"
        }
      ],
      "name": "_AddedProposition",
      "type": "event"
    },
    {
      "anonymous": false,
      "inputs": [
        {
          "indexed": false,
          "internalType": "uint256",
          "name": "Id",
          "type": "uint256"
        },
        {
          "indexed": true,
          "internalType": "address",
          "name": "Proposer",
          "type": "address"
        }
      ],
      "name": "_CancelledProposition",
      "type": "event"
    },
    {
      "anonymous": false,
      "inputs": [
        {
          "indexed": false,
          "internalType": "bytes32",
          "name": "node",
          "type": "bytes32"
        },
        {
          "indexed": false,
          "internalType": "bytes32",
          "name": "label",
          "type": "bytes32"
        }
      ],
      "name": "_NewSubdomainCreated",
      "type": "event"
    },
    {
      "anonymous": false,
      "inputs": [
        {
          "indexed": false,
          "internalType": "uint256",
          "name": "Id",
          "type": "uint256"
        },
        {
          "indexed": true,
          "internalType": "address",
          "name": "Proposer",
          "type": "address"
        },
        {
          "indexed": false,
          "internalType": "uint256",
          "name": "VotesFor",
          "type": "uint256"
        },
        {
          "indexed": false,
          "internalType": "uint256",
          "name": "VotesAgainst",
          "type": "uint256"
        }
      ],
      "name": "_PropositionApproved",
      "type": "event"
    },
    {
      "anonymous": false,
      "inputs": [
        {
          "indexed": false,
          "internalType": "uint256",
          "name": "Id",
          "type": "uint256"
        },
        {
          "indexed": true,
          "internalType": "address",
          "name": "Proposer",
          "type": "address"
        },
        {
          "indexed": false,
          "internalType": "uint256",
          "name": "VotesFor",
          "type": "uint256"
        },
        {
          "indexed": false,
          "internalType": "uint256",
          "name": "VotesAgainst",
          "type": "uint256"
        }
      ],
      "name": "_PropositionRejected",
      "type": "event"
    },
    {
      "anonymous": false,
      "inputs": [
        {
          "indexed": false,
          "internalType": "uint256",
          "name": "Id",
          "type": "uint256"
        },
        {
          "indexed": true,
          "internalType": "address",
          "name": "Voter",
          "type": "address"
        },
        {
          "indexed": false,
          "internalType": "bool",
          "name": "Vote",
          "type": "bool"
        },
        {
          "indexed": false,
          "internalType": "uint256",
          "name": "AmountTokens",
          "type": "uint256"
        }
      ],
      "name": "_PropositionVote",
      "type": "event"
    },
    {
      "anonymous": false,
      "inputs": [
        {
          "indexed": true,
          "internalType": "uint256",
          "name": "Id",
          "type": "uint256"
        },
        {
          "indexed": false,
          "internalType": "address",
          "name": "From",
          "type": "address"
        },
        {
          "indexed": false,
          "internalType": "address",
          "name": "To",
          "type": "address"
        },
        {
          "indexed": false,
          "internalType": "uint256",
          "name": "Amount",
          "type": "uint256"
        }
      ],
      "name": "_UsedTokensTransfered",
      "type": "event"
    },
    {
      "inputs": [
        {
          "internalType": "address",
          "name": "chairPerson",
          "type": "address"
        },
        {
          "internalType": "address",
          "name": "managerContractAddress",
          "type": "address"
        },
        {
          "internalType": "string",
          "name": "contractName",
          "type": "string"
        },
        {
          "internalType": "string",
          "name": "contractVersion",
          "type": "string"
        }
      ],
      "name": "ExternalRegistryBaseContract_init",
      "outputs": [],
      "stateMutability": "nonpayable",
      "type": "function"
    },
    {
      "inputs": [],
      "name": "cancelProposition",
      "outputs": [],
      "stateMutability": "nonpayable",
      "type": "function"
    },
    {
      "inputs": [
        {
          "internalType": "address",
          "name": "from",
          "type": "address"
        },
        {
          "internalType": "address",
          "name": "to",
          "type": "address"
        },
        {
          "internalType": "uint256",
          "name": "amount",
          "type": "uint256"
        }
      ],
      "name": "onTokenBalanceChanged",
      "outputs": [],
      "stateMutability": "nonpayable",
      "type": "function"
    },
    {
      "inputs": [],
      "name": "retrieveChairPerson",
      "outputs": [
        {
          "internalType": "address",
          "name": "",
          "type": "address"
        }
      ],
      "stateMutability": "view",
      "type": "function"
    },
    {
      "inputs": [],
      "name": "retrieveContractConfig",
      "outputs": [
        {
          "internalType": "string",
          "name": "",
          "type": "string"
        },
        {
          "internalType": "string",
          "name": "",
          "type": "string"
        }
      ],
      "stateMutability": "view",
      "type": "function"
    },
    {
      "inputs": [],
      "name": "retrieveManagerContract",
      "outputs": [
        {
          "internalType": "address",
          "name": "",
          "type": "address"
        }
      ],
      "stateMutability": "view",
      "type": "function"
    },
    {
      "inputs": [],
      "name": "retrieveNextPropId",
      "outputs": [
        {
          "internalType": "uint256",
          "name": "",
          "type": "uint256"
        }
      ],
      "stateMutability": "view",
      "type": "function"
    },
    {
      "inputs": [
        {
          "internalType": "address",
          "name": "addr",
          "type": "address"
        },
        {
          "internalType": "uint256",
          "name": "nonce",
          "type": "uint256"
        }
      ],
      "name": "retrieveNonce",
      "outputs": [
        {
          "internalType": "bool",
          "name": "",
          "type": "bool"
        }
      ],
      "stateMutability": "view",
      "type": "function"
    },
    {
      "inputs": [],
      "name": "retrieveProposition",
      "outputs": [
        {
          "internalType": "bytes32[]",
          "name": "",
          "type": "bytes32[]"
        }
      ],
      "stateMutability": "view",
      "type": "function"
    },
    {
      "inputs": [],
      "name": "retrievePropositionStatus",
      "outputs": [
        {
          "internalType": "address",
          "name": "",
          "type": "address"
        },
        {
          "internalType": "uint256",
          "name": "",
          "type": "uint256"
        },
        {
          "internalType": "uint256",
          "name": "",
          "type": "uint256"
        },
        {
          "internalType": "uint256",
          "name": "",
          "type": "uint256"
        },
        {
          "internalType": "uint256",
          "name": "",
          "type": "uint256"
        }
      ],
      "stateMutability": "view",
      "type": "function"
    },
    {
      "inputs": [
        {
          "internalType": "uint256",
          "name": "PropId",
          "type": "uint256"
        },
        {
          "internalType": "address",
          "name": "voter",
          "type": "address"
        }
      ],
      "name": "retrieveVotesForVoter",
      "outputs": [
        {
          "internalType": "uint256",
          "name": "",
          "type": "uint256"
        }
      ],
      "stateMutability": "view",
      "type": "function"
    },
    {
      "inputs": [
        {
          "internalType": "address",
          "name": "NewRegistryAddress",
          "type": "address"
        },
        {
          "internalType": "bytes32[]",
          "name": "NewOthers",
          "type": "bytes32[]"
        }
      ],
      "name": "update",
      "outputs": [],
      "stateMutability": "nonpayable",
      "type": "function"
    },
    {
      "inputs": [
        {
          "internalType": "bool",
          "name": "vote",
          "type": "bool"
        }
      ],
      "name": "voteProposition",
      "outputs": [],
      "stateMutability": "nonpayable",
      "type": "function"
    },
    {
      "inputs": [
        {
          "internalType": "address",
          "name": "voter",
          "type": "address"
        },
        {
          "internalType": "uint256",
          "name": "propID",
          "type": "uint256"
        },
        {
          "internalType": "bool",
          "name": "vote",
          "type": "bool"
        },
        {
          "internalType": "uint256",
          "name": "nonce",
          "type": "uint256"
        },
        {
          "internalType": "uint256",
          "name": "deadline",
          "type": "uint256"
        },
        {
          "internalType": "bytes",
          "name": "signature",
          "type": "bytes"
        }
      ],
      "name": "votePropositionOnBehalfOf",
      "outputs": [],
      "stateMutability": "nonpayable",
      "type": "function"
    },
    {
      "inputs": [
        {
          "internalType": "address",
          "name": "ENSRegistry",
          "type": "address"
        },
        {
          "internalType": "bytes32[]",
          "name": "nodes",
          "type": "bytes32[]"
        },
        {
          "internalType": "address",
          "name": "managerContractAddress",
          "type": "address"
        },
        {
          "internalType": "address",
          "name": "chairPerson",
          "type": "address"
        },
        {
          "internalType": "string",
          "name": "contractName",
          "type": "string"
        },
        {
          "internalType": "string",
          "name": "contractVersion",
          "type": "string"
        }
      ],
      "name": "ENS_init",
      "outputs": [],
      "stateMutability": "nonpayable",
      "type": "function"
    },
    {
      "inputs": [],
      "name": "retrieveRegistryAddress",
      "outputs": [
        {
          "internalType": "address",
          "name": "",
          "type": "address"
        }
      ],
      "stateMutability": "view",
      "type": "function"
    },
    {
      "inputs": [
        {
          "internalType": "bytes32",
          "name": "label",
          "type": "bytes32"
        }
      ],
      "name": "createSubdomain",
      "outputs": [],
      "stateMutability": "nonpayable",
      "type": "function"
    },
    {
      "inputs": [],
      "name": "retrieveNodes",
      "outputs": [
        {
          "internalType": "bytes32[]",
          "name": "",
          "type": "bytes32[]"
        }
      ],
      "stateMutability": "view",
      "type": "function"
    }
  ],
  "bytecode": "0x608060405234801561001057600080fd5b5061269e806100206000396000f3fe608060405234801561001057600080fd5b50600436106100e65760003560e01c806304cc67a9146100eb5780631e7feef1146101025780633c7df55d146101175780633deb46eb1461012a5780633feca4ca1461013f5780634044adb21461018857806355457ee9146101be5780635b362e84146101c65780637746a5dc146101e65780637faa3d6f146101f9578063840f6d171461020c57806391f916711461024d578063a93316f514610260578063c07ab24314610268578063d2116a021461027b578063db85bc4d14610291578063e1f5f858146102a2578063ed67335b146102b3575b600080fd5b600b545b6040519081526020015b60405180910390f35b610115610110366004611f1e565b6102c6565b005b610115610125366004611fa6565b61034b565b61013261044b565b6040516100f99190612437565b61017861014d3660046120f8565b6001600160a01b03919091166000908152600260209081526040808320938352929052205460ff1690565b60405190151581526020016100f9565b6100ef610196366004612214565b6000918252600c602090815260408084206001600160a01b0393909316845291905290205490565b6101156104b8565b6003546201000090046001600160a01b03165b6040516100f99190612396565b6101156101f43660046121e2565b61058a565b610115610207366004612124565b610a76565b600654600754600854600954600a54604080516001600160a01b0390961686526020860194909452928401919091526060830152608082015260a0016100f9565b61011561025b3660046121a8565b610a96565b610132610aa3565b610115610276366004612036565b610c20565b610283610cfb565b6040516100f992919061247b565b6004546001600160a01b03166101d9565b600e546001600160a01b03166101d9565b6101156102c1366004611fe7565b610e22565b600354610100900460ff16806102df575060035460ff16155b6103045760405162461bcd60e51b81526004016102fb906124a9565b60405180910390fd5b600354610100900460ff16158015610326576003805461ffff19166101011790555b61033285858585610e52565b8015610344576003805461ff00191690555b5050505050565b3373__Library_______________________________6337ea306382600360029054906101000a90046001600160a01b03166001600160a01b031663da3dce266040518163ffffffff1660e01b815260040160206040518083038186803b1580156103b557600080fd5b505afa1580156103c9573d6000803e3d6000fd5b505050506040513d601f19601f820116820180604052508101906103ed9190611f01565b6040518363ffffffff1660e01b815260040161040a9291906123aa565b60006040518083038186803b15801561042257600080fd5b505af4158015610436573d6000803e3d6000fd5b50505050610445848484610edc565b50505050565b60408051600280825260608083018452926000929190602083019080368337019050509050600f548160008151811061048657610486612619565b602002602001018181525050601054816001815181106104a8576104a8612619565b6020908102919091010152919050565b60016104c381610efe565b6006546040516337ea306360e01b8152339173__Library_______________________________916337ea3063916105099185916001600160a01b0316906004016123aa565b60006040518083038186803b15801561052157600080fd5b505af4158015610535573d6000803e3d6000fd5b50505050610541610f82565b6006546005546040519081526001600160a01b03909116907f1fe8aec10c0a50fa765076161e08c1f961ced69594ff45cf7d559f593afe14799060200160405180910390a25050565b33806001600160a01b0316600360029054906101000a90046001600160a01b03166001600160a01b0316633c65d4276040518163ffffffff1660e01b815260040160206040518083038186803b1580156105e357600080fd5b505afa1580156105f7573d6000803e3d6000fd5b505050506040513d601f19601f8201168201806040525081019061061b9190611f01565b6001600160a01b031614806106c65750806001600160a01b0316600360029054906101000a90046001600160a01b03166001600160a01b0316635773bc236040518163ffffffff1660e01b815260040160206040518083038186803b15801561068357600080fd5b505afa158015610697573d6000803e3d6000fd5b505050506040513d601f19601f820116820180604052508101906106bb9190611f01565b6001600160a01b0316145b6106fb5760405162461bcd60e51b81526004016102fb906020808252600490820152634543382d60e01b604082015260600190565b60006010549050600360029054906101000a90046001600160a01b03166001600160a01b0316633c65d4276040518163ffffffff1660e01b815260040160206040518083038186803b15801561075057600080fd5b505afa158015610764573d6000803e3d6000fd5b505050506040513d601f19601f820116820180604052508101906107889190611f01565b6001600160a01b0316336001600160a01b031614156107a65750600f545b604080516020808201849052818301869052825180830384018152606090920190925280519101206107d781610fad565b1561080c5760405162461bcd60e51b8152602060048201526005602482015264454333372d60d81b60448201526064016102fb565b61081582610fad565b151560011461084e5760405162461bcd60e51b8152602060048201526005602482015264454333382d60d81b60448201526064016102fb565b600e54604051630178b8bf60e01b8152600481018490526000916001600160a01b031690630178b8bf9060240160206040518083038186803b15801561089357600080fd5b505afa1580156108a7573d6000803e3d6000fd5b505050506040513d601f19601f820116820180604052508101906108cb9190611f01565b90506001600160a01b03811661090b5760405162461bcd60e51b8152602060048201526005602482015264454333392d60d81b60448201526064016102fb565b600e546040516316a25cbd60e01b8152600481018590526000916001600160a01b0316906316a25cbd9060240160206040518083038186803b15801561095057600080fd5b505afa158015610964573d6000803e3d6000fd5b505050506040513d601f19601f820116820180604052508101906109889190612280565b600e546040516305ef2c7f60e41b815260048101879052602481018990523060448201526001600160a01b0385811660648301526001600160401b0384166084830152929350911690635ef2c7f09060a401600060405180830381600087803b1580156109f457600080fd5b505af1158015610a08573d6000803e3d6000fd5b505060405162d5fa2b60e81b8152600481018690523360248201528492506001600160a01b038316915063d5fa2b0090604401600060405180830381600087803b158015610a5557600080fd5b505af1158015610a69573d6000803e3d6000fd5b5050505050505050505050565b610a84868686868686611030565b610a8e868561118f565b505050505050565b610aa0338261118f565b50565b60606000610aaf61129d565b9050600081516001610ac1919061253d565b6001600160401b03811115610ad857610ad861262f565b604051908082528060200260200182016040528015610b01578160200160208202803683370190505b50600d5460405163bc215e8560e01b815291925073__AddressLibrary________________________9163bc215e8591610b49916001600160a01b0390911690600401612396565b60206040518083038186803b158015610b6157600080fd5b505af4158015610b75573d6000803e3d6000fd5b505050506040513d601f19601f82011682018060405250810190610b9991906121fb565b81600081518110610bac57610bac612619565b60200260200101818152505060005b8251811015610c1957828181518110610bd657610bd6612619565b602002602001015182826001610bec919061253d565b81518110610bfc57610bfc612619565b602090810291909101015280610c11816125e8565b915050610bbb565b5092915050565b600354610100900460ff1680610c39575060035460ff16155b610c555760405162461bcd60e51b81526004016102fb906124a9565b600354610100900460ff16158015610c77576003805461ffff19166101011790555b610c83848685856102c6565b600e80546001600160a01b0319166001600160a01b03891617905585518690600090610cb157610cb1612619565b6020026020010151600f8190555085600181518110610cd257610cd2612619565b60200260200101516010819055508015610cf2576003805461ff00191690555b50505050505050565b60608060006001818054610d0e906125ad565b80601f0160208091040260200160405190810160405280929190818152602001828054610d3a906125ad565b8015610d875780601f10610d5c57610100808354040283529160200191610d87565b820191906000526020600020905b815481529060010190602001808311610d6a57829003601f168201915b50505050509150808054610d9a906125ad565b80601f0160208091040260200160405190810160405280929190818152602001828054610dc6906125ad565b8015610e135780601f10610de857610100808354040283529160200191610e13565b820191906000526020600020905b815481529060010190602001808311610df657829003601f168201915b50505050509050915091509091565b610e2a6112fa565b600d80546001600160a01b0319166001600160a01b038416179055610e4e8161164e565b5050565b600354610100900460ff1680610e6b575060035460ff16155b610e875760405162461bcd60e51b81526004016102fb906124a9565b600354610100900460ff16158015610ea9576003805461ffff19166101011790555b610eb284611693565b600480546001600160a01b0319166001600160a01b0387161790556000600b556103328383611721565b610ee4611748565b151560011415610ef957610ef9838383611782565b505050565b8015610f4557610f0c611748565b1515600114610aa05760405162461bcd60e51b8152602060048201526005602482015264454332352d60d81b60448201526064016102fb565b610f4d611748565b15610aa05760405162461bcd60e51b8152602060048201526005602482015264454332342d60d81b60448201526064016102fb565b60006005819055600680546001600160a01b0319169055600781905560088190556009819055600a55565b600e54604051631ef3fca760e31b8152600481018390526000916001600160a01b03169063f79fe5389060240160206040518083038186803b158015610ff257600080fd5b505afa158015611006573d6000803e3d6000fd5b505050506040513d601f19601f8201168201806040525081019061102a91906121c5565b92915050565b8161103a816118f2565b86846110468282611929565b600554881461107f5760405162461bcd60e51b8152602060048201526005602482015264454333352d60d81b60448201526064016102fb565b60405163432f9a5560e01b815273__SignatureLibrary______________________9063432f9a55906110c6908c908c908c908c908c908c906000906001906004016123c4565b60206040518083038186803b1580156110de57600080fd5b505af41580156110f2573d6000803e3d6000fd5b505050506040513d601f19601f8201168201806040525081019061111691906121c5565b151560011461114f5760405162461bcd60e51b8152602060048201526005602482015264454333322d60d81b60448201526064016102fb565b61118489876001600160a01b03909116600090815260026020908152604080832093835292905220805460ff19166001179055565b505050505050505050565b600161119a81610efe565b600554839060006111ab8383611985565b9050600081116111e55760405162461bcd60e51b8152602060048201526005602482015264454332332d60d81b60448201526064016102fb565b60006111f687600560000154611985565b9050851561121e578060056004016000828254611213919061253d565b909155506112389050565b80600580016000828254611232919061253d565b90915550505b6005546112469088836119c2565b60055460408051918252871515602083015281018290526001600160a01b038816907f50f654d58981575c05e369cb129aeacb01e1b036af429380242cfc5d1a4b743f9060600160405180910390a2610cf26119fe565b60408051600280825260608083018452926000929190602083019080368337019050509050601154816000815181106112d8576112d8612619565b602002602001018181525050601254816001815181106104a8576104a8612619565b600061130581610efe565b60045433906000906001600160a01b03168214156113255750600161145e565b600061133083611ad4565b90506000600360029054906101000a90046001600160a01b03166001600160a01b03166387552a0d6040518163ffffffff1660e01b815260040160206040518083038186803b15801561138257600080fd5b505afa158015611396573d6000803e3d6000fd5b505050506040513d601f19601f820116820180604052508101906113ba9190611f01565b6001600160a01b031663b049473f6040518163ffffffff1660e01b815260040160606040518083038186803b1580156113f257600080fd5b505afa158015611406573d6000803e3d6000fd5b505050506040513d601f19601f8201168201806040525081019061142a9190612244565b925050506064611438611bd7565b6114459060ff8416612577565b61144f9190612555565b82111561145b57600192505b50505b6001811515146114985760405162461bcd60e51b8152602060048201526005602482015264454332322d60d81b60448201526064016102fb565b600080600360029054906101000a90046001600160a01b03166001600160a01b03166387552a0d6040518163ffffffff1660e01b815260040160206040518083038186803b1580156114e957600080fd5b505afa1580156114fd573d6000803e3d6000fd5b505050506040513d601f19601f820116820180604052508101906115219190611f01565b6001600160a01b031663b049473f6040518163ffffffff1660e01b815260040160606040518083038186803b15801561155957600080fd5b505afa15801561156d573d6000803e3d6000fd5b505050506040513d601f19601f820116820180604052508101906115919190612244565b50600680546001600160a01b0319163317905590925090506115b3824261253d565b600755606460ff82166115c4611bd7565b6115ce9190612577565b6115d89190612555565b600855600b805460058190559060006115f0836125e8565b90915550506006546005546007546008546040516001600160a01b03909416937f472501d19bf75639b2e316cd36f8568b0c3ab943b82a87de3c086c98c1929df99361163f93909290916124f7565b60405180910390a25050505050565b8060008151811061166157611661612619565b60200260200101516011819055508060018151811061168257611682612619565b602002602001015160128190555050565b600354610100900460ff16806116ac575060035460ff16155b6116c85760405162461bcd60e51b81526004016102fb906124a9565b600354610100900460ff161580156116ea576003805461ffff19166101011790555b6003805462010000600160b01b031916620100006001600160a01b038516021790558015610e4e576003805461ff00191690555050565b8151611734906000906020850190611d56565b508051610ef9906001906020840190611d56565b60075460009042101561175b5750600190565b6006546001600160a01b03161561177c57611774611cd4565b61177c610f82565b50600090565b6001600160a01b038316158015906117be57506005546000908152600c602090815260408083206001600160a01b038716845290915290205415155b15610ef9576005546000908152600c602090815260408083206001600160a01b0387168452909152902054819081111561181a57506005546000908152600c602090815260408083206001600160a01b03871684529091529020545b6005546000908152600c602090815260408083206001600160a01b03881684529091528120805483929061184f908490612596565b90915550506001600160a01b0383161561189e576005546000908152600c602090815260408083206001600160a01b03871684529091528120805483929061189890849061253d565b90915550505b600554604080516001600160a01b038088168252861660208201529081018390527f65fbd5e5dd32bea4aeca85bd0be0abf0e489d655dee888a7510d43b06dda2dba9060600160405180910390a250505050565b804210610aa05760405162461bcd60e51b8152602060048201526005602482015264454333332d60d81b60448201526064016102fb565b6001600160a01b038216600090815260026020908152604080832084845290915290205460ff1615610e4e5760405162461bcd60e51b8152602060048201526005602482015264454333342d60d81b60448201526064016102fb565b6000818152600c602090815260408083206001600160a01b03861684529091528120546119b184611ad4565b6119bb9190612596565b9392505050565b6000838152600c602090815260408083206001600160a01b0386168452909152812080548392906119f490849061253d565b9091555050505050565b60085460095410611a6d57611a11611cdc565b611a19610f82565b600654600554600954600a546040516001600160a01b03909416937f23ca0034cf5aad32571b4a492e9598ea8a490e1643a60970e3cdc6933b55e49f93611a6393909290916124f7565b60405180910390a2565b600854600a5410611ad257611a80611cd4565b611a88610f82565b600654600554600954600a546040516001600160a01b03909416937fa58eb6daa3c62c3f883973c4035e5bd3e81aa627c8379de068a7de42df122be293611a6393909290916124f7565b565b6000600360029054906101000a90046001600160a01b03166001600160a01b031663da3dce266040518163ffffffff1660e01b815260040160206040518083038186803b158015611b2457600080fd5b505afa158015611b38573d6000803e3d6000fd5b505050506040513d601f19601f82011682018060405250810190611b5c9190611f01565b6001600160a01b03166370a08231836040518263ffffffff1660e01b8152600401611b879190612396565b60206040518083038186803b158015611b9f57600080fd5b505afa158015611bb3573d6000803e3d6000fd5b505050506040513d601f19601f8201168201806040525081019061102a91906121fb565b6000600360029054906101000a90046001600160a01b03166001600160a01b031663da3dce266040518163ffffffff1660e01b815260040160206040518083038186803b158015611c2757600080fd5b505afa158015611c3b573d6000803e3d6000fd5b505050506040513d601f19601f82011682018060405250810190611c5f9190611f01565b6001600160a01b03166318160ddd6040518163ffffffff1660e01b815260040160206040518083038186803b158015611c9757600080fd5b505afa158015611cab573d6000803e3d6000fd5b505050506040513d601f19601f82011682018060405250810190611ccf91906121fb565b905090565b611ad2611ce4565b611cd4611d03565b600d80546001600160a01b0319169055611ad260006011819055601255565b600d546001600160a01b031615611d3757600d54600e80546001600160a01b0319166001600160a01b039092169190911790555b60115415611d4657601154600f555b60125415611ad257601254601055565b828054611d62906125ad565b90600052602060002090601f016020900481019282611d845760008555611dca565b82601f10611d9d57805160ff1916838001178555611dca565b82800160010185558215611dca579182015b82811115611dca578251825591602001919060010190611daf565b50611dd6929150611dda565b5090565b5b80821115611dd65760008155600101611ddb565b60006001600160401b03831115611e0857611e0861262f565b611e1b601f8401601f191660200161250d565b9050828152838383011115611e2f57600080fd5b828260208301376000602084830101529392505050565b600082601f830112611e5757600080fd5b813560206001600160401b03821115611e7257611e7261262f565b8160051b611e8182820161250d565b838152828101908684018388018501891015611e9c57600080fd5b600093505b85841015611ebf578035835260019390930192918401918401611ea1565b50979650505050505050565b600082601f830112611edc57600080fd5b6119bb83833560208501611def565b805160ff81168114611efc57600080fd5b919050565b600060208284031215611f1357600080fd5b81516119bb81612645565b60008060008060808587031215611f3457600080fd5b8435611f3f81612645565b93506020850135611f4f81612645565b925060408501356001600160401b0380821115611f6b57600080fd5b611f7788838901611ecb565b93506060870135915080821115611f8d57600080fd5b50611f9a87828801611ecb565b91505092959194509250565b600080600060608486031215611fbb57600080fd5b8335611fc681612645565b92506020840135611fd681612645565b929592945050506040919091013590565b60008060408385031215611ffa57600080fd5b823561200581612645565b915060208301356001600160401b0381111561202057600080fd5b61202c85828601611e46565b9150509250929050565b60008060008060008060c0878903121561204f57600080fd5b863561205a81612645565b955060208701356001600160401b038082111561207657600080fd5b6120828a838b01611e46565b96506040890135915061209482612645565b9094506060880135906120a682612645565b909350608088013590808211156120bc57600080fd5b6120c88a838b01611ecb565b935060a08901359150808211156120de57600080fd5b506120eb89828a01611ecb565b9150509295509295509295565b6000806040838503121561210b57600080fd5b823561211681612645565b946020939093013593505050565b60008060008060008060c0878903121561213d57600080fd5b863561214881612645565b955060208701359450604087013561215f8161265a565b9350606087013592506080870135915060a08701356001600160401b0381111561218857600080fd5b8701601f8101891361219957600080fd5b6120eb89823560208401611def565b6000602082840312156121ba57600080fd5b81356119bb8161265a565b6000602082840312156121d757600080fd5b81516119bb8161265a565b6000602082840312156121f457600080fd5b5035919050565b60006020828403121561220d57600080fd5b5051919050565b6000806040838503121561222757600080fd5b82359150602083013561223981612645565b809150509250929050565b60008060006060848603121561225957600080fd5b8351925061226960208501611eeb565b915061227760408501611eeb565b90509250925092565b60006020828403121561229257600080fd5b81516001600160401b03811681146119bb57600080fd5b6000815180845260005b818110156122cf576020818501810151868301820152016122b3565b818111156122e1576000602083870101525b50601f01601f19169290920160200192915050565b8054600090600181811c908083168061231057607f831692505b602080841082141561233257634e487b7160e01b600052602260045260246000fd5b8388526020880182801561234d576001811461235e57612389565b60ff19871682528282019750612389565b60008981526020902060005b878110156123835781548482015290860190840161236a565b83019850505b5050505050505092915050565b6001600160a01b0391909116815260200190565b6001600160a01b0392831681529116602082015260400190565b600061010060018060a01b038b16835289602084015288151560408401528760608401528660808401528060a0840152612400818401876122a9565b905082810360c084015261241481866122f6565b905082810360e084015261242881856122f6565b9b9a5050505050505050505050565b6020808252825182820181905260009190848201906040850190845b8181101561246f57835183529284019291840191600101612453565b50909695505050505050565b60408152600061248e60408301856122a9565b82810360208401526124a081856122a9565b95945050505050565b6020808252602e908201527f496e697469616c697a61626c653a20636f6e747261637420697320616c72656160408201526d191e481a5b9a5d1a585b1a5e995960921b606082015260800190565b9283526020830191909152604082015260600190565b604051601f8201601f191681016001600160401b03811182821017156125355761253561262f565b604052919050565b6000821982111561255057612550612603565b500190565b60008261257257634e487b7160e01b600052601260045260246000fd5b500490565b600081600019048311821515161561259157612591612603565b500290565b6000828210156125a8576125a8612603565b500390565b600181811c908216806125c157607f821691505b602082108114156125e257634e487b7160e01b600052602260045260246000fd5b50919050565b60006000198214156125fc576125fc612603565b5060010190565b634e487b7160e01b600052601160045260246000fd5b634e487b7160e01b600052603260045260246000fd5b634e487b7160e01b600052604160045260246000fd5b6001600160a01b0381168114610aa057600080fd5b8015158114610aa057600080fdfea26469706673582212208be614834a0bf4e0d7aa371f74934ae335ae426119a695b3bbc6fb52a8258fcc64736f6c63430008070033",
  "immutableReferences": {},
  "source": "// SPDX-License-Identifier: GPL-3.0\r\n\r\npragma solidity 0.8.7;\r\n\r\n/**\r\n Price Converter is an interface to the Chain Link Price Registry for USD to ETH exchange\r\n */\r\n\r\nimport \"../Interfaces/IENS.sol\";\r\nimport \"../Base/ExternalRegistryBaseContract.sol\";\r\nimport \"../Interfaces/IENSRegistry.sol\";\r\nimport \"../Interfaces/IENSResolver.sol\";\r\n\r\ncontract ENS is IENS, ExternalRegistryBaseContract {\r\n\r\n    // EVENTS /////////////////////////////////////////\r\n    event _NewSubdomainCreated(bytes32 node, bytes32 label);\r\n\r\n    // DATA /////////////////////////////////////////\r\n    IENSRegistry internal _ENS;\r\n    bytes32 internal _PrivatePoolNode; \r\n    bytes32 internal _ProviderNode; \r\n\r\n    bytes32 internal _ProposedPrivatePoolNode;\r\n    bytes32 internal _ProposedProviderNode;\r\n\r\n    // MODIFIERS /////////////////////////////////////////\r\n    modifier isFromAuthorizedContract(address addr){\r\n        require(_managerContract.retrievePrivatePoolFactoryProxy() == addr ||\r\n                _managerContract.retrieveProviderFactoryProxy() == addr, \"EC8-\");\r\n        _;\r\n    }\r\n\r\n    // CONSTRUCTOR /////////////////////////////////////////\r\n    function ENS_init(address ENSRegistry, bytes32[] memory nodes, address managerContractAddress, address chairPerson, string memory contractName, string memory contractVersion) public initializer \r\n    {\r\n        super.ExternalRegistryBaseContract_init(chairPerson, managerContractAddress, contractName, contractVersion);\r\n        _ENS = IENSRegistry(ENSRegistry);\r\n        _PrivatePoolNode = nodes[0];\r\n        _ProviderNode = nodes[1];\r\n    }\r\n\r\n    // GOVERNANCE /////////////////////////////////////////\r\n    function updateOthers(bytes32[] memory NewOthers) internal override\r\n    {\r\n        _ProposedPrivatePoolNode = NewOthers[0];\r\n        _ProposedProviderNode = NewOthers[1];\r\n    }\r\n\r\n    function UpdateAll() internal override\r\n    {\r\n        if(address(0) != _ProposedRegistryAddress)_ENS = IENSRegistry(_ProposedRegistryAddress);\r\n        if(_ProposedPrivatePoolNode > 0) _PrivatePoolNode = _ProposedPrivatePoolNode;\r\n        if(_ProposedProviderNode > 0)_ProviderNode = _ProposedProviderNode;\r\n    }\r\n\r\n    function removePropositionPOST() internal override\r\n    {\r\n        delete(_ProposedPrivatePoolNode);\r\n        delete(_ProposedProviderNode);\r\n    }\r\n\r\n    function retrievePropositionOthers() internal override view returns(bytes32[] memory)\r\n    {\r\n        bytes32[] memory proposition = new bytes32[](2);\r\n        proposition[0] = _ProposedPrivatePoolNode;\r\n        proposition[1] = _ProposedProviderNode;\r\n        return proposition;\r\n    }\r\n\r\n    function retrieveRegistryAddress() external override view returns(address)\r\n    {\r\n        return address(_ENS);\r\n    }\r\n\r\n    // FUNCTIONALITY /////////////////////////////////////////\r\n    function check(bytes32 node) internal view returns(bool) {\r\n        return _ENS.recordExists(node);\r\n    }\r\n\r\n    function createSubdomain(bytes32 label) external override\r\n        isFromAuthorizedContract(msg.sender)\r\n    {\r\n        bytes32 node = _ProviderNode;\r\n        if(msg.sender == _managerContract.retrievePrivatePoolFactoryProxy()) node = _PrivatePoolNode;\r\n        bytes32 FullNode = keccak256(abi.encodePacked(node, label));\r\n        require(false == check(FullNode), \"EC37-\");\r\n        require(true == check(node), \"EC38-\");\r\n\r\n        address resolverAddress = _ENS.resolver(node);\r\n        require(address(0) != resolverAddress, \"EC39-\");\r\n\r\n        uint64 ttl = _ENS.ttl(node);\r\n\r\n        _ENS.setSubnodeRecord(node, label, address(this), resolverAddress, ttl);\r\n        IENSResolver resolver = IENSResolver(resolverAddress);\r\n        resolver.setAddr(FullNode, msg.sender);\r\n    }\r\n\r\n    function retrieveNodes() external override view returns(bytes32[] memory)\r\n    {\r\n        bytes32[] memory nodes = new bytes32[](2);\r\n        nodes[0] = _PrivatePoolNode;\r\n        nodes[1] = _ProviderNode;\r\n        return nodes;\r\n    }\r\n    \r\n\r\n}",
  "sourcePath": "C:/Users/d-aam/GitHub/Certificates/contracts/DeployedContracts/ENS.sol",
  "compiler": {
    "name": "solc",
    "version": "0.8.7+commit.e28d00a7.Emscripten.clang"
  },
  "schemaVersion": "3.3.4",
  "updatedAt": "2021-10-28T12:22:00.258Z",
  "devdoc": {
    "kind": "dev",
    "methods": {},
    "version": 1
  },
  "userdoc": {
    "kind": "user",
    "methods": {},
    "version": 1
  }
}