{
  "contractName": "ENS",
  "abi": [
    {
      "anonymous": false,
      "inputs": [
        {
          "indexed": false,
          "internalType": "uint256",
          "name": "Id",
          "type": "uint256"
        },
        {
          "indexed": true,
          "internalType": "address",
          "name": "Proposer",
          "type": "address"
        },
        {
          "indexed": false,
          "internalType": "uint256",
          "name": "Deadline",
          "type": "uint256"
        },
        {
          "indexed": false,
          "internalType": "uint256",
          "name": "Threshold",
          "type": "uint256"
        }
      ],
      "name": "_AddedProposition",
      "type": "event"
    },
    {
      "anonymous": false,
      "inputs": [
        {
          "indexed": false,
          "internalType": "uint256",
          "name": "Id",
          "type": "uint256"
        },
        {
          "indexed": true,
          "internalType": "address",
          "name": "Proposer",
          "type": "address"
        }
      ],
      "name": "_CancelledProposition",
      "type": "event"
    },
    {
      "anonymous": false,
      "inputs": [
        {
          "indexed": false,
          "internalType": "bytes32",
          "name": "PrivatePoolNode",
          "type": "bytes32"
        }
      ],
      "name": "_NewPrivatePoolNode",
      "type": "event"
    },
    {
      "anonymous": false,
      "inputs": [
        {
          "indexed": false,
          "internalType": "bytes32",
          "name": "ProviderNode",
          "type": "bytes32"
        }
      ],
      "name": "_NewProviderNode",
      "type": "event"
    },
    {
      "anonymous": false,
      "inputs": [
        {
          "indexed": false,
          "internalType": "address",
          "name": "Registry",
          "type": "address"
        }
      ],
      "name": "_NewRegistry",
      "type": "event"
    },
    {
      "anonymous": false,
      "inputs": [
        {
          "indexed": false,
          "internalType": "address",
          "name": "ReverseRegistry",
          "type": "address"
        }
      ],
      "name": "_NewReverseRegistry",
      "type": "event"
    },
    {
      "anonymous": false,
      "inputs": [
        {
          "indexed": false,
          "internalType": "bytes32",
          "name": "node",
          "type": "bytes32"
        },
        {
          "indexed": false,
          "internalType": "bytes32",
          "name": "label",
          "type": "bytes32"
        }
      ],
      "name": "_NewSubdomainCreated",
      "type": "event"
    },
    {
      "anonymous": false,
      "inputs": [
        {
          "indexed": false,
          "internalType": "uint256",
          "name": "Id",
          "type": "uint256"
        },
        {
          "indexed": true,
          "internalType": "address",
          "name": "Proposer",
          "type": "address"
        },
        {
          "indexed": false,
          "internalType": "uint256",
          "name": "VotesFor",
          "type": "uint256"
        },
        {
          "indexed": false,
          "internalType": "uint256",
          "name": "VotesAgainst",
          "type": "uint256"
        }
      ],
      "name": "_PropositionApproved",
      "type": "event"
    },
    {
      "anonymous": false,
      "inputs": [
        {
          "indexed": false,
          "internalType": "uint256",
          "name": "Id",
          "type": "uint256"
        },
        {
          "indexed": true,
          "internalType": "address",
          "name": "Proposer",
          "type": "address"
        },
        {
          "indexed": false,
          "internalType": "uint256",
          "name": "VotesFor",
          "type": "uint256"
        },
        {
          "indexed": false,
          "internalType": "uint256",
          "name": "VotesAgainst",
          "type": "uint256"
        }
      ],
      "name": "_PropositionRejected",
      "type": "event"
    },
    {
      "anonymous": false,
      "inputs": [
        {
          "indexed": false,
          "internalType": "uint256",
          "name": "Id",
          "type": "uint256"
        },
        {
          "indexed": true,
          "internalType": "address",
          "name": "Voter",
          "type": "address"
        },
        {
          "indexed": false,
          "internalType": "bool",
          "name": "Vote",
          "type": "bool"
        },
        {
          "indexed": false,
          "internalType": "uint256",
          "name": "AmountTokens",
          "type": "uint256"
        }
      ],
      "name": "_PropositionVote",
      "type": "event"
    },
    {
      "anonymous": false,
      "inputs": [
        {
          "indexed": true,
          "internalType": "uint256",
          "name": "Id",
          "type": "uint256"
        },
        {
          "indexed": false,
          "internalType": "address",
          "name": "From",
          "type": "address"
        },
        {
          "indexed": false,
          "internalType": "address",
          "name": "To",
          "type": "address"
        },
        {
          "indexed": false,
          "internalType": "uint256",
          "name": "Amount",
          "type": "uint256"
        }
      ],
      "name": "_UsedTokensTransfered",
      "type": "event"
    },
    {
      "inputs": [
        {
          "internalType": "address",
          "name": "chairPerson",
          "type": "address"
        },
        {
          "internalType": "address",
          "name": "managerContractAddress",
          "type": "address"
        },
        {
          "internalType": "string",
          "name": "contractName",
          "type": "string"
        },
        {
          "internalType": "string",
          "name": "contractVersion",
          "type": "string"
        }
      ],
      "name": "StdPropositionBaseContract_init",
      "outputs": [],
      "stateMutability": "nonpayable",
      "type": "function"
    },
    {
      "inputs": [],
      "name": "cancelProposition",
      "outputs": [],
      "stateMutability": "nonpayable",
      "type": "function"
    },
    {
      "inputs": [
        {
          "internalType": "address",
          "name": "from",
          "type": "address"
        },
        {
          "internalType": "address",
          "name": "to",
          "type": "address"
        },
        {
          "internalType": "uint256",
          "name": "amount",
          "type": "uint256"
        }
      ],
      "name": "onTokenBalanceChanged",
      "outputs": [],
      "stateMutability": "nonpayable",
      "type": "function"
    },
    {
      "inputs": [],
      "name": "retrieveChairPerson",
      "outputs": [
        {
          "internalType": "address",
          "name": "",
          "type": "address"
        }
      ],
      "stateMutability": "view",
      "type": "function"
    },
    {
      "inputs": [],
      "name": "retrieveContractConfig",
      "outputs": [
        {
          "internalType": "string",
          "name": "",
          "type": "string"
        },
        {
          "internalType": "string",
          "name": "",
          "type": "string"
        }
      ],
      "stateMutability": "view",
      "type": "function"
    },
    {
      "inputs": [],
      "name": "retrieveManagerContract",
      "outputs": [
        {
          "internalType": "address",
          "name": "",
          "type": "address"
        }
      ],
      "stateMutability": "view",
      "type": "function"
    },
    {
      "inputs": [],
      "name": "retrieveNextPropId",
      "outputs": [
        {
          "internalType": "uint256",
          "name": "",
          "type": "uint256"
        }
      ],
      "stateMutability": "view",
      "type": "function"
    },
    {
      "inputs": [
        {
          "internalType": "address",
          "name": "addr",
          "type": "address"
        },
        {
          "internalType": "uint256",
          "name": "nonce",
          "type": "uint256"
        }
      ],
      "name": "retrieveNonce",
      "outputs": [
        {
          "internalType": "bool",
          "name": "",
          "type": "bool"
        }
      ],
      "stateMutability": "view",
      "type": "function"
    },
    {
      "inputs": [],
      "name": "retrieveProposition",
      "outputs": [
        {
          "internalType": "bytes[]",
          "name": "",
          "type": "bytes[]"
        }
      ],
      "stateMutability": "view",
      "type": "function"
    },
    {
      "inputs": [],
      "name": "retrievePropositionStatus",
      "outputs": [
        {
          "internalType": "address",
          "name": "",
          "type": "address"
        },
        {
          "internalType": "uint256",
          "name": "",
          "type": "uint256"
        },
        {
          "internalType": "uint256",
          "name": "",
          "type": "uint256"
        },
        {
          "internalType": "uint256",
          "name": "",
          "type": "uint256"
        },
        {
          "internalType": "uint256",
          "name": "",
          "type": "uint256"
        }
      ],
      "stateMutability": "view",
      "type": "function"
    },
    {
      "inputs": [
        {
          "internalType": "uint256",
          "name": "PropId",
          "type": "uint256"
        },
        {
          "internalType": "address",
          "name": "voter",
          "type": "address"
        }
      ],
      "name": "retrieveVotesForVoter",
      "outputs": [
        {
          "internalType": "uint256",
          "name": "",
          "type": "uint256"
        }
      ],
      "stateMutability": "view",
      "type": "function"
    },
    {
      "inputs": [
        {
          "internalType": "bytes[]",
          "name": "NewValues",
          "type": "bytes[]"
        }
      ],
      "name": "sendProposition",
      "outputs": [],
      "stateMutability": "nonpayable",
      "type": "function"
    },
    {
      "inputs": [
        {
          "internalType": "bool",
          "name": "vote",
          "type": "bool"
        }
      ],
      "name": "voteProposition",
      "outputs": [],
      "stateMutability": "nonpayable",
      "type": "function"
    },
    {
      "inputs": [
        {
          "internalType": "address",
          "name": "voter",
          "type": "address"
        },
        {
          "internalType": "uint256",
          "name": "propID",
          "type": "uint256"
        },
        {
          "internalType": "bool",
          "name": "vote",
          "type": "bool"
        },
        {
          "internalType": "uint256",
          "name": "nonce",
          "type": "uint256"
        },
        {
          "internalType": "uint256",
          "name": "deadline",
          "type": "uint256"
        },
        {
          "internalType": "bytes",
          "name": "signature",
          "type": "bytes"
        }
      ],
      "name": "votePropositionOnBehalfOf",
      "outputs": [],
      "stateMutability": "nonpayable",
      "type": "function"
    },
    {
      "inputs": [
        {
          "internalType": "address",
          "name": "ENSRegistry",
          "type": "address"
        },
        {
          "internalType": "address",
          "name": "ENSReverseRegistry",
          "type": "address"
        },
        {
          "internalType": "bytes32[]",
          "name": "nodes",
          "type": "bytes32[]"
        },
        {
          "internalType": "address",
          "name": "managerContractAddress",
          "type": "address"
        },
        {
          "internalType": "address",
          "name": "chairPerson",
          "type": "address"
        },
        {
          "internalType": "string",
          "name": "contractName",
          "type": "string"
        },
        {
          "internalType": "string",
          "name": "contractVersion",
          "type": "string"
        }
      ],
      "name": "ENS_init",
      "outputs": [],
      "stateMutability": "nonpayable",
      "type": "function"
    },
    {
      "inputs": [
        {
          "internalType": "bytes32",
          "name": "label",
          "type": "bytes32"
        }
      ],
      "name": "createSubdomain",
      "outputs": [],
      "stateMutability": "nonpayable",
      "type": "function"
    },
    {
      "inputs": [],
      "name": "retrieveSettings",
      "outputs": [
        {
          "internalType": "address",
          "name": "",
          "type": "address"
        },
        {
          "internalType": "address",
          "name": "",
          "type": "address"
        },
        {
          "internalType": "bytes32",
          "name": "",
          "type": "bytes32"
        },
        {
          "internalType": "bytes32",
          "name": "",
          "type": "bytes32"
        }
      ],
      "stateMutability": "view",
      "type": "function"
    }
  ],
  "bytecode": "0x608060405234801561001057600080fd5b506130f8806100206000396000f3fe608060405234801561001057600080fd5b50600436106100db5760003560e01c806304cc67a9146100e05780630f13bbc9146100f75780633c7df55d1461010c5780633feca4ca1461011f5780634044adb21461016857806355457ee91461019e5780635b362e84146101a65780637746a5dc146101c65780637faa3d6f146101d9578063840f6d17146101ec578063876865d31461022d57806391f9167114610240578063a93316f514610253578063b049473f14610268578063d2116a021461029f578063db85bc4d146102b5578063e15aa3a6146102c6575b600080fd5b600b545b6040519081526020015b60405180910390f35b61010a61010536600461284c565b6102d9565b005b61010a61011a3660046128d4565b61035e565b61015861012d366004612915565b6001600160a01b03919091166000908152600260209081526040808320938352929052205460ff1690565b60405190151581526020016100ee565b6100e4610176366004612c0c565b6000918252600c602090815260408084206001600160a01b0393909316845291905290205490565b61010a61047c565b6003546201000090046001600160a01b03165b6040516100ee9190612d8f565b61010a6101d4366004612bda565b61054e565b61010a6101e7366004612941565b610a17565b600654600754600854600954600a54604080516001600160a01b0390961686526020860194909452928401919091526060830152608082015260a0016100ee565b61010a61023b36600461277e565b610a37565b61010a61024e366004612ba0565b610b28565b61025b610b35565b6040516100ee9190612e30565b600e54600f54601054601154604080516001600160a01b0395861681529490931660208501529183015260608201526080016100ee565b6102a7610c0e565b6040516100ee929190612eb8565b6004546001600160a01b03166101b9565b61010a6102d4366004612ae9565b610d35565b600354610100900460ff16806102f2575060035460ff16155b6103175760405162461bcd60e51b815260040161030e90612ee6565b60405180910390fd5b600354610100900460ff16158015610339576003805461ffff19166101011790555b61034585858585610daf565b8015610357576003805461ff00191690555b5050505050565b3373__Library_______________________________6337ea306382600360029054906101000a90046001600160a01b03166001600160a01b031663e220ad956040518163ffffffff1660e01b815260040160006040518083038186803b1580156103c857600080fd5b505afa1580156103dc573d6000803e3d6000fd5b505050506040513d6000823e601f3d908101601f1916820160405261040491908101906129be565b60028151811061041657610416613073565b60200260200101516040518363ffffffff1660e01b815260040161043b929190612da3565b60006040518083038186803b15801561045357600080fd5b505af4158015610467573d6000803e3d6000fd5b50505050610476848484610e39565b50505050565b600161048781610e5b565b6006546040516337ea306360e01b8152339173__Library_______________________________916337ea3063916104cd9185916001600160a01b031690600401612da3565b60006040518083038186803b1580156104e557600080fd5b505af41580156104f9573d6000803e3d6000fd5b50505050610505610edf565b6006546005546040519081526001600160a01b03909116907f1fe8aec10c0a50fa765076161e08c1f961ced69594ff45cf7d559f593afe14799060200160405180910390a25050565b33806001600160a01b0316600360029054906101000a90046001600160a01b03166001600160a01b031663e220ad956040518163ffffffff1660e01b815260040160006040518083038186803b1580156105a757600080fd5b505afa1580156105bb573d6000803e3d6000fd5b505050506040513d6000823e601f3d908101601f191682016040526105e391908101906129be565b6003815181106105f5576105f5613073565b60200260200101516001600160a01b031614806106c65750806001600160a01b0316600360029054906101000a90046001600160a01b03166001600160a01b031663e220ad956040518163ffffffff1660e01b815260040160006040518083038186803b15801561066557600080fd5b505afa158015610679573d6000803e3d6000fd5b505050506040513d6000823e601f3d908101601f191682016040526106a191908101906129be565b6004815181106106b3576106b3613073565b60200260200101516001600160a01b0316145b6106fb5760405162461bcd60e51b815260040161030e906020808252600490820152634543382d60e01b604082015260600190565b60006011549050600360029054906101000a90046001600160a01b03166001600160a01b031663e220ad956040518163ffffffff1660e01b815260040160006040518083038186803b15801561075057600080fd5b505afa158015610764573d6000803e3d6000fd5b505050506040513d6000823e601f3d908101601f1916820160405261078c91908101906129be565b60038151811061079e5761079e613073565b60200260200101516001600160a01b0316336001600160a01b031614156107c457506010545b604080516020808201849052818301869052825180830384018152606090920190925280519101206107f581610f0a565b1561082a5760405162461bcd60e51b8152602060048201526005602482015264454333372d60d81b604482015260640161030e565b600e54604051630178b8bf60e01b8152600481018490526000916001600160a01b031690630178b8bf9060240160206040518083038186803b15801561086f57600080fd5b505afa158015610883573d6000803e3d6000fd5b505050506040513d601f19601f820116820180604052508101906108a79190612761565b600e546040516316a25cbd60e01b8152600481018690529192506000916001600160a01b03909116906316a25cbd9060240160206040518083038186803b1580156108f157600080fd5b505afa158015610905573d6000803e3d6000fd5b505050506040513d601f19601f820116820180604052508101906109299190612c78565b600e546040516305ef2c7f60e41b815260048101879052602481018990523060448201526001600160a01b0385811660648301526001600160401b0384166084830152929350911690635ef2c7f09060a401600060405180830381600087803b15801561099557600080fd5b505af11580156109a9573d6000803e3d6000fd5b505060405162d5fa2b60e81b8152600481018690523360248201528492506001600160a01b038316915063d5fa2b0090604401600060405180830381600087803b1580156109f657600080fd5b505af1158015610a0a573d6000803e3d6000fd5b5050505050505050505050565b610a25868686868686610f8d565b610a2f86856110ec565b505050505050565b600354610100900460ff1680610a50575060035460ff16155b610a6c5760405162461bcd60e51b815260040161030e90612ee6565b600354610100900460ff16158015610a8e576003805461ffff19166101011790555b610a9a848685856102d9565b600e80546001600160a01b03808b166001600160a01b031992831617909255600f8054928a169290911691909117905585518690600090610add57610add613073565b602002602001015160108190555085600181518110610afe57610afe613073565b60200260200101516011819055508015610b1e576003805461ff00191690555b5050505050505050565b610b3233826110ec565b50565b6060600d805480602002602001604051908101604052809291908181526020016000905b82821015610c05578382906000526020600020018054610b789061300d565b80601f0160208091040260200160405190810160405280929190818152602001828054610ba49061300d565b8015610bf15780601f10610bc657610100808354040283529160200191610bf1565b820191906000526020600020905b815481529060010190602001808311610bd457829003601f168201915b505050505081526020019060010190610b59565b50505050905090565b60608060006001818054610c219061300d565b80601f0160208091040260200160405190810160405280929190818152602001828054610c4d9061300d565b8015610c9a5780601f10610c6f57610100808354040283529160200191610c9a565b820191906000526020600020905b815481529060010190602001808311610c7d57829003601f168201915b50505050509150808054610cad9061300d565b80601f0160208091040260200160405190810160405280929190818152602001828054610cd99061300d565b8015610d265780601f10610cfb57610100808354040283529160200191610d26565b820191906000526020600020905b815481529060010190602001808311610d0957829003601f168201915b50505050509050915091509091565b610d3e81611203565b610d46611681565b60005b8151811015610dab57600d828281518110610d6657610d66613073565b60209081029190910181015182546001810184556000938452928290208151610d989491909101929190910190612551565b5080610da381613042565b915050610d49565b5050565b600354610100900460ff1680610dc8575060035460ff16155b610de45760405162461bcd60e51b815260040161030e90612ee6565b600354610100900460ff16158015610e06576003805461ffff19166101011790555b610e0f84611a11565b600480546001600160a01b0319166001600160a01b0387161790556000600b556103458383611a9f565b610e41611ac6565b151560011415610e5657610e56838383611b00565b505050565b8015610ea257610e69611ac6565b1515600114610b325760405162461bcd60e51b8152602060048201526005602482015264454332352d60d81b604482015260640161030e565b610eaa611ac6565b15610b325760405162461bcd60e51b8152602060048201526005602482015264454332342d60d81b604482015260640161030e565b60006005819055600680546001600160a01b0319169055600781905560088190556009819055600a55565b600e54604051631ef3fca760e31b8152600481018390526000916001600160a01b03169063f79fe5389060240160206040518083038186803b158015610f4f57600080fd5b505afa158015610f63573d6000803e3d6000fd5b505050506040513d601f19601f82011682018060405250810190610f879190612bbd565b92915050565b81610f9781611c70565b8684610fa38282611ca7565b6005548814610fdc5760405162461bcd60e51b8152602060048201526005602482015264454333352d60d81b604482015260640161030e565b60405163432f9a5560e01b815273__SignatureLibrary______________________9063432f9a5590611023908c908c908c908c908c908c90600090600190600401612dbd565b60206040518083038186803b15801561103b57600080fd5b505af415801561104f573d6000803e3d6000fd5b505050506040513d601f19601f820116820180604052508101906110739190612bbd565b15156001146110ac5760405162461bcd60e51b8152602060048201526005602482015264454333322d60d81b604482015260640161030e565b6110e189876001600160a01b03909116600090815260026020908152604080832093835292905220805460ff19166001179055565b505050505050505050565b60016110f781610e5b565b600554839060006111088383611d03565b9050600081116111425760405162461bcd60e51b8152602060048201526005602482015264454332332d60d81b604482015260640161030e565b600061115387600560000154611d03565b9050851561117b5780600560040160008282546111709190612f9d565b909155506111959050565b8060058001600082825461118f9190612f9d565b90915550505b6005546111a3908883611d40565b60055460408051918252871515602083015281018290526001600160a01b038816907f50f654d58981575c05e369cb129aeacb01e1b036af429380242cfc5d1a4b743f9060600160405180910390a26111fa611d7c565b50505050505050565b73__AddressLibrary________________________63f4ce9ae873__Library_______________________________63caa8f5898460008151811061124a5761124a613073565b60200260200101516040518263ffffffff1660e01b815260040161126e9190612e92565b60006040518083038186803b15801561128657600080fd5b505af415801561129a573d6000803e3d6000fd5b505050506040513d6000823e601f3d908101601f191682016040526112c29190810190612a5e565b6000815181106112d4576112d4613073565b60200260200101516040518263ffffffff1660e01b81526004016112fa91815260200190565b60206040518083038186803b15801561131257600080fd5b505af4158015611326573d6000803e3d6000fd5b505050506040513d601f19601f8201168201806040525081019061134a9190612761565b73__AddressLibrary________________________63f4ce9ae873__Library_______________________________63caa8f5898560018151811061139157611391613073565b60200260200101516040518263ffffffff1660e01b81526004016113b59190612e92565b60006040518083038186803b1580156113cd57600080fd5b505af41580156113e1573d6000803e3d6000fd5b505050506040513d6000823e601f3d908101601f191682016040526114099190810190612a5e565b60008151811061141b5761141b613073565b60200260200101516040518263ffffffff1660e01b815260040161144191815260200190565b60206040518083038186803b15801561145957600080fd5b505af415801561146d573d6000803e3d6000fd5b505050506040513d601f19601f820116820180604052508101906114919190612761565b73__Library_______________________________63caa8f589846002815181106114be576114be613073565b60200260200101516040518263ffffffff1660e01b81526004016114e29190612e92565b60006040518083038186803b1580156114fa57600080fd5b505af415801561150e573d6000803e3d6000fd5b505050506040513d6000823e601f3d908101601f191682016040526115369190810190612a5e565b60008151811061154857611548613073565b602002602001015173__Library_______________________________63caa8f5898560038151811061157d5761157d613073565b60200260200101516040518263ffffffff1660e01b81526004016115a19190612e92565b60006040518083038186803b1580156115b957600080fd5b505af41580156115cd573d6000803e3d6000fd5b505050506040513d6000823e601f3d908101601f191682016040526115f59190810190612a5e565b60008151811061160757611607613073565b6020026020010151836001600160a01b031660006001600160a01b031614158061163957506001600160a01b03831615155b8061164357508115155b8061164d57508015155b6103575760405162461bcd60e51b8152602060048201526005602482015264454332312d60d81b604482015260640161030e565b600061168c81610e5b565b60045433906000906001600160a01b03168214156116ac57506001611803565b60006116b783611e52565b90506000600360029054906101000a90046001600160a01b03166001600160a01b031663e220ad956040518163ffffffff1660e01b815260040160006040518083038186803b15801561170957600080fd5b505afa15801561171d573d6000803e3d6000fd5b505050506040513d6000823e601f3d908101601f1916820160405261174591908101906129be565b60068151811061175757611757613073565b60200260200101516001600160a01b031663b049473f6040518163ffffffff1660e01b815260040160606040518083038186803b15801561179757600080fd5b505afa1580156117ab573d6000803e3d6000fd5b505050506040513d601f19601f820116820180604052508101906117cf9190612c3c565b9250505060646117dd611f73565b6117ea9060ff8416612fd7565b6117f49190612fb5565b82111561180057600192505b50505b60018115151461183d5760405162461bcd60e51b8152602060048201526005602482015264454332322d60d81b604482015260640161030e565b600080600360029054906101000a90046001600160a01b03166001600160a01b031663e220ad956040518163ffffffff1660e01b815260040160006040518083038186803b15801561188e57600080fd5b505afa1580156118a2573d6000803e3d6000fd5b505050506040513d6000823e601f3d908101601f191682016040526118ca91908101906129be565b6006815181106118dc576118dc613073565b60200260200101516001600160a01b031663b049473f6040518163ffffffff1660e01b815260040160606040518083038186803b15801561191c57600080fd5b505afa158015611930573d6000803e3d6000fd5b505050506040513d601f19601f820116820180604052508101906119549190612c3c565b50600680546001600160a01b0319163317905590925090506119768242612f9d565b600755606460ff8216611987611f73565b6119919190612fd7565b61199b9190612fb5565b600855600b805460058190559060006119b383613042565b90915550506006546005546007546008546040516001600160a01b03909416937f472501d19bf75639b2e316cd36f8568b0c3ab943b82a87de3c086c98c1929df993611a029390929091612f34565b60405180910390a25050505050565b600354610100900460ff1680611a2a575060035460ff16155b611a465760405162461bcd60e51b815260040161030e90612ee6565b600354610100900460ff16158015611a68576003805461ffff19166101011790555b6003805462010000600160b01b031916620100006001600160a01b038516021790558015610dab576003805461ff00191690555050565b8151611ab2906000906020850190612551565b508051610e56906001906020840190612551565b600754600090421015611ad95750600190565b6006546001600160a01b031615611afa57611af261208e565b611afa610edf565b50600090565b6001600160a01b03831615801590611b3c57506005546000908152600c602090815260408083206001600160a01b038716845290915290205415155b15610e56576005546000908152600c602090815260408083206001600160a01b03871684529091529020548190811115611b9857506005546000908152600c602090815260408083206001600160a01b03871684529091529020545b6005546000908152600c602090815260408083206001600160a01b038816845290915281208054839290611bcd908490612ff6565b90915550506001600160a01b03831615611c1c576005546000908152600c602090815260408083206001600160a01b038716845290915281208054839290611c16908490612f9d565b90915550505b600554604080516001600160a01b038088168252861660208201529081018390527f65fbd5e5dd32bea4aeca85bd0be0abf0e489d655dee888a7510d43b06dda2dba9060600160405180910390a250505050565b804210610b325760405162461bcd60e51b8152602060048201526005602482015264454333332d60d81b604482015260640161030e565b6001600160a01b038216600090815260026020908152604080832084845290915290205460ff1615610dab5760405162461bcd60e51b8152602060048201526005602482015264454333342d60d81b604482015260640161030e565b6000818152600c602090815260408083206001600160a01b0386168452909152812054611d2f84611e52565b611d399190612ff6565b9392505050565b6000838152600c602090815260408083206001600160a01b038616845290915281208054839290611d72908490612f9d565b9091555050505050565b60085460095410611deb57611d8f612096565b611d97610edf565b600654600554600954600a546040516001600160a01b03909416937f23ca0034cf5aad32571b4a492e9598ea8a490e1643a60970e3cdc6933b55e49f93611de19390929091612f34565b60405180910390a2565b600854600a5410611e5057611dfe61208e565b611e06610edf565b600654600554600954600a546040516001600160a01b03909416937fa58eb6daa3c62c3f883973c4035e5bd3e81aa627c8379de068a7de42df122be293611de19390929091612f34565b565b6000600360029054906101000a90046001600160a01b03166001600160a01b031663e220ad956040518163ffffffff1660e01b815260040160006040518083038186803b158015611ea257600080fd5b505afa158015611eb6573d6000803e3d6000fd5b505050506040513d6000823e601f3d908101601f19168201604052611ede91908101906129be565b600281518110611ef057611ef0613073565b60200260200101516001600160a01b03166370a08231836040518263ffffffff1660e01b8152600401611f239190612d8f565b60206040518083038186803b158015611f3b57600080fd5b505afa158015611f4f573d6000803e3d6000fd5b505050506040513d601f19601f82011682018060405250810190610f879190612bf3565b6000600360029054906101000a90046001600160a01b03166001600160a01b031663e220ad956040518163ffffffff1660e01b815260040160006040518083038186803b158015611fc357600080fd5b505afa158015611fd7573d6000803e3d6000fd5b505050506040513d6000823e601f3d908101601f19168201604052611fff91908101906129be565b60028151811061201157612011613073565b60200260200101516001600160a01b03166318160ddd6040518163ffffffff1660e01b815260040160206040518083038186803b15801561205157600080fd5b505afa158015612065573d6000803e3d6000fd5b505050506040513d601f19601f820116820180604052508101906120899190612bf3565b905090565b611e5061209e565b61208e6120aa565b611e50600d60006125d5565b60006120b4612402565b9050600073__AddressLibrary________________________63f4ce9ae8836000815181106120e5576120e5613073565b60200260200101516040518263ffffffff1660e01b815260040161210b91815260200190565b60206040518083038186803b15801561212357600080fd5b505af4158015612137573d6000803e3d6000fd5b505050506040513d601f19601f8201168201806040525081019061215b9190612761565b9050600073__AddressLibrary________________________63f4ce9ae88460018151811061218c5761218c613073565b60200260200101516040518263ffffffff1660e01b81526004016121b291815260200190565b60206040518083038186803b1580156121ca57600080fd5b505af41580156121de573d6000803e3d6000fd5b505050506040513d601f19601f820116820180604052508101906122029190612761565b90506001600160a01b0382161561226757600e80546001600160a01b0319166001600160a01b0384161790556040517f46e671841289b35d061dd0dfd2cbb135c0821b6e27418ca236e2ed8c14c3fd199061225e908490612d8f565b60405180910390a15b6001600160a01b038116156122ca57600f80546001600160a01b0319166001600160a01b0383161790556040517f576081cc849894908eb3a7d760dd8e300e9c5062f9e9e6742cd40d5bd5b721a0906122c1908390612d8f565b60405180910390a15b6000801b836002815181106122e1576122e1613073565b60200260200101511115612364578260028151811061230257612302613073565b60200260200101516010819055507f4912880141eb4d979703a76489842d58bb8cbe04db86cc99b65a0b05df1e2cce8360028151811061234457612344613073565b602002602001015160405161235b91815260200190565b60405180910390a15b6000801b8360038151811061237b5761237b613073565b60200260200101511115610e56578260038151811061239c5761239c613073565b60200260200101516011819055507f7cbcf1216e5dec7aec240d0d758333758442e4cc1dcb03228890a420597b6acc836003815181106123de576123de613073565b60200260200101516040516123f591815260200190565b60405180910390a1505050565b600d546060906000906001600160401b0381111561242257612422613089565b60405190808252806020026020018201604052801561244b578160200160208202803683370190505b50905060005b600d5481101561254b5773__Library_______________________________63caa8f589600d838154811061248857612488613073565b906000526020600020016040518263ffffffff1660e01b81526004016124ae9190612ea5565b60006040518083038186803b1580156124c657600080fd5b505af41580156124da573d6000803e3d6000fd5b505050506040513d6000823e601f3d908101601f191682016040526125029190810190612a5e565b60008151811061251457612514613073565b602002602001015182828151811061252e5761252e613073565b60209081029190910101528061254381613042565b915050612451565b50919050565b82805461255d9061300d565b90600052602060002090601f01602090048101928261257f57600085556125c5565b82601f1061259857805160ff19168380011785556125c5565b828001600101855582156125c5579182015b828111156125c55782518255916020019190600101906125aa565b506125d19291506125f3565b5090565b5080546000825590600052602060002090810190610b329190612608565b5b808211156125d157600081556001016125f4565b808211156125d157600061261c8282612625565b50600101612608565b5080546126319061300d565b6000825580601f10612641575050565b601f016020900490600052602060002090810190610b3291906125f3565b803561266a8161309f565b919050565b600082601f83011261268057600080fd5b8135602061269561269083612f7a565b612f4a565b80838252828201915082860187848660051b89010111156126b557600080fd5b60005b858110156126d4578135845292840192908401906001016126b8565b5090979650505050505050565b600082601f8301126126f257600080fd5b81356001600160401b0381111561270b5761270b613089565b61271e601f8201601f1916602001612f4a565b81815284602083860101111561273357600080fd5b816020850160208301376000918101602001919091529392505050565b805160ff8116811461266a57600080fd5b60006020828403121561277357600080fd5b8151611d398161309f565b600080600080600080600060e0888a03121561279957600080fd5b87356127a48161309f565b965060208801356127b48161309f565b955060408801356001600160401b03808211156127d057600080fd5b6127dc8b838c0161266f565b96506127ea60608b0161265f565b95506127f860808b0161265f565b945060a08a013591508082111561280e57600080fd5b61281a8b838c016126e1565b935060c08a013591508082111561283057600080fd5b5061283d8a828b016126e1565b91505092959891949750929550565b6000806000806080858703121561286257600080fd5b843561286d8161309f565b9350602085013561287d8161309f565b925060408501356001600160401b038082111561289957600080fd5b6128a5888389016126e1565b935060608701359150808211156128bb57600080fd5b506128c8878288016126e1565b91505092959194509250565b6000806000606084860312156128e957600080fd5b83356128f48161309f565b925060208401356129048161309f565b929592945050506040919091013590565b6000806040838503121561292857600080fd5b82356129338161309f565b946020939093013593505050565b60008060008060008060c0878903121561295a57600080fd5b86356129658161309f565b955060208701359450604087013561297c816130b4565b9350606087013592506080870135915060a08701356001600160401b038111156129a557600080fd5b6129b189828a016126e1565b9150509295509295509295565b600060208083850312156129d157600080fd5b82516001600160401b038111156129e757600080fd5b8301601f810185136129f857600080fd5b8051612a0661269082612f7a565b80828252848201915084840188868560051b8701011115612a2657600080fd5b600094505b83851015612a52578051612a3e8161309f565b835260019490940193918501918501612a2b565b50979650505050505050565b60006020808385031215612a7157600080fd5b82516001600160401b03811115612a8757600080fd5b8301601f81018513612a9857600080fd5b8051612aa661269082612f7a565b80828252848201915084840188868560051b8701011115612ac657600080fd5b600094505b83851015612a52578051835260019490940193918501918501612acb565b60006020808385031215612afc57600080fd5b82356001600160401b0380821115612b1357600080fd5b818501915085601f830112612b2757600080fd5b8135612b3561269082612f7a565b80828252858201915085850189878560051b8801011115612b5557600080fd5b6000805b85811015612b9057823587811115612b6f578283fd5b612b7d8d8b838c01016126e1565b8652509388019391880191600101612b59565b50919a9950505050505050505050565b600060208284031215612bb257600080fd5b8135611d39816130b4565b600060208284031215612bcf57600080fd5b8151611d39816130b4565b600060208284031215612bec57600080fd5b5035919050565b600060208284031215612c0557600080fd5b5051919050565b60008060408385031215612c1f57600080fd5b823591506020830135612c318161309f565b809150509250929050565b600080600060608486031215612c5157600080fd5b83519250612c6160208501612750565b9150612c6f60408501612750565b90509250925092565b600060208284031215612c8a57600080fd5b81516001600160401b0381168114611d3957600080fd5b6000815180845260005b81811015612cc757602081850181015186830182015201612cab565b81811115612cd9576000602083870101525b50601f01601f19169290920160200192915050565b8054600090600181811c9080831680612d0857607f831692505b6020808410821415612d2a57634e487b7160e01b600052602260045260246000fd5b838852818015612d415760018114612d5557612d83565b60ff19861689830152604089019650612d83565b876000528160002060005b86811015612d7b5781548b8201850152908501908301612d60565b8a0183019750505b50505050505092915050565b6001600160a01b0391909116815260200190565b6001600160a01b0392831681529116602082015260400190565b600061010060018060a01b038b16835289602084015288151560408401528760608401528660808401528060a0840152612df981840187612ca1565b905082810360c0840152612e0d8186612cee565b905082810360e0840152612e218185612cee565b9b9a5050505050505050505050565b6000602080830181845280855180835260408601915060408160051b870101925083870160005b82811015612e8557603f19888603018452612e73858351612ca1565b94509285019290850190600101612e57565b5092979650505050505050565b602081526000611d396020830184612ca1565b602081526000611d396020830184612cee565b604081526000612ecb6040830185612ca1565b8281036020840152612edd8185612ca1565b95945050505050565b6020808252602e908201527f496e697469616c697a61626c653a20636f6e747261637420697320616c72656160408201526d191e481a5b9a5d1a585b1a5e995960921b606082015260800190565b9283526020830191909152604082015260600190565b604051601f8201601f191681016001600160401b0381118282101715612f7257612f72613089565b604052919050565b60006001600160401b03821115612f9357612f93613089565b5060051b60200190565b60008219821115612fb057612fb061305d565b500190565b600082612fd257634e487b7160e01b600052601260045260246000fd5b500490565b6000816000190483118215151615612ff157612ff161305d565b500290565b6000828210156130085761300861305d565b500390565b600181811c9082168061302157607f821691505b6020821081141561254b57634e487b7160e01b600052602260045260246000fd5b60006000198214156130565761305661305d565b5060010190565b634e487b7160e01b600052601160045260246000fd5b634e487b7160e01b600052603260045260246000fd5b634e487b7160e01b600052604160045260246000fd5b6001600160a01b0381168114610b3257600080fd5b8015158114610b3257600080fdfea2646970667358221220a7836a46f9d58e0139617856f0d0764be0aedff8e8921363554579130724025164736f6c63430008070033",
  "immutableReferences": {},
  "source": "// SPDX-License-Identifier: GPL-3.0\r\n\r\npragma solidity 0.8.7;\r\n\r\n/**\r\n Price Converter is an interface to the Chain Link Price Registry for USD to ETH exchange\r\n */\r\n\r\nimport \"../Interfaces/IENS.sol\";\r\nimport \"../Base/StdPropositionBaseContract.sol\";\r\nimport \"../Interfaces/IENSRegistry.sol\";\r\nimport \"../Interfaces/IENSResolver.sol\";\r\n\r\ncontract ENS is IENS, StdPropositionBaseContract {\r\n\r\n    // EVENTS /////////////////////////////////////////\r\n    event _NewRegistry(address Registry);\r\n    event _NewReverseRegistry(address ReverseRegistry);\r\n    event _NewPrivatePoolNode(bytes32 PrivatePoolNode);\r\n    event _NewProviderNode(bytes32 ProviderNode);\r\n    event _NewSubdomainCreated(bytes32 node, bytes32 label);\r\n\r\n    // DATA /////////////////////////////////////////\r\n    IENSRegistry internal _ENS;\r\n    address internal _ENSReverseRegistry;\r\n    bytes32 internal _PrivatePoolNode; \r\n    bytes32 internal _ProviderNode; \r\n\r\n    // MODIFIERS /////////////////////////////////////////\r\n    modifier isFromAuthorizedContract(address addr){\r\n        require(_managerContract.retrieveTransparentProxies()[3] == addr ||\r\n                _managerContract.retrieveTransparentProxies()[4] == addr, \"EC8-\");\r\n        _;\r\n    }\r\n\r\n    modifier arePropositionsOK(address addr1, address addr2, bytes32 privatenode, bytes32 providernode){\r\n        require(address(0) != addr1 || address(0) != addr2 || privatenode > 0 || providernode > 0, \"EC21-\");\r\n        _;\r\n    }\r\n\r\n    // CONSTRUCTOR /////////////////////////////////////////\r\n    function ENS_init(address ENSRegistry, address ENSReverseRegistry, bytes32[] memory nodes, address managerContractAddress, address chairPerson, string memory contractName, string memory contractVersion) public initializer \r\n    {\r\n        super.StdPropositionBaseContract_init(chairPerson, managerContractAddress, contractName, contractVersion);\r\n        _ENS = IENSRegistry(ENSRegistry);\r\n        _ENSReverseRegistry = ENSReverseRegistry;\r\n        _PrivatePoolNode = nodes[0];\r\n        _ProviderNode = nodes[1];\r\n    }\r\n\r\n    // GOVERNANCE /////////////////////////////////////////\r\n    function checkProposition(bytes[] memory NewValues) internal override \r\n        arePropositionsOK(AddressLibrary.Bytes32ToAddress(Library.BytestoBytes32(NewValues[0])[0]),\r\n                            AddressLibrary.Bytes32ToAddress(Library.BytestoBytes32(NewValues[1])[0]),\r\n                            Library.BytestoBytes32(NewValues[2])[0],\r\n                            Library.BytestoBytes32(NewValues[3])[0])\r\n    {}\r\n\r\n    function UpdateAll() internal override\r\n    {\r\n        bytes32[] memory ProposedNewValues = PropositionsToBytes32();\r\n\r\n        address NewRegistryAddress = AddressLibrary.Bytes32ToAddress(ProposedNewValues[0]);\r\n        address NewReverseRegistryAddress = AddressLibrary.Bytes32ToAddress(ProposedNewValues[1]);\r\n\r\n        if(address(0) != NewRegistryAddress){\r\n            _ENS = IENSRegistry(NewRegistryAddress);\r\n            emit _NewRegistry(NewRegistryAddress);\r\n        } \r\n\r\n        if(address(0) != NewReverseRegistryAddress){\r\n            _ENSReverseRegistry = NewReverseRegistryAddress;\r\n            emit _NewReverseRegistry(NewReverseRegistryAddress);\r\n        }\r\n\r\n        if(ProposedNewValues[2] > 0) {\r\n            _PrivatePoolNode = ProposedNewValues[2];\r\n            emit _NewPrivatePoolNode(ProposedNewValues[2]);\r\n        }\r\n\r\n        if(ProposedNewValues[3] > 0) {\r\n            _ProviderNode = ProposedNewValues[3];\r\n            emit _NewProviderNode(ProposedNewValues[3]);\r\n        }\r\n\r\n    }\r\n\r\n    // FUNCTIONALITY /////////////////////////////////////////\r\n    function check(bytes32 node) internal view returns(bool) {\r\n        return _ENS.recordExists(node);\r\n    }\r\n\r\n    function createSubdomain(bytes32 label) external override\r\n        isFromAuthorizedContract(msg.sender)\r\n    {\r\n        bytes32 node = _ProviderNode;\r\n        if(msg.sender == _managerContract.retrieveTransparentProxies()[3]) node = _PrivatePoolNode;\r\n\r\n        bytes32 FullNode = keccak256(abi.encodePacked(node, label));\r\n        require(false == check(FullNode), \"EC37-\");\r\n\r\n        address resolverAddress = _ENS.resolver(node);\r\n        uint64 ttl = _ENS.ttl(node);\r\n\r\n        _ENS.setSubnodeRecord(node, label, address(this), resolverAddress, ttl);\r\n        IENSResolver resolver = IENSResolver(resolverAddress);\r\n        resolver.setAddr(FullNode, msg.sender);\r\n    }\r\n\r\n    function retrieveSettings() external override view returns(address, address, bytes32, bytes32)\r\n    {\r\n        return (address(_ENS), _ENSReverseRegistry, _PrivatePoolNode, _ProviderNode);\r\n    }\r\n    \r\n\r\n}",
  "sourcePath": "C:/Users/d-aam/GitHub/Certificates/contracts/DeployedContracts/ENS.sol",
  "compiler": {
    "name": "solc",
    "version": "0.8.7+commit.e28d00a7.Emscripten.clang"
  },
  "schemaVersion": "3.3.4",
  "updatedAt": "2021-11-05T10:05:55.240Z",
  "devdoc": {
    "kind": "dev",
    "methods": {},
    "version": 1
  },
  "userdoc": {
    "kind": "user",
    "methods": {},
    "version": 1
  }
}