{
  "contractName": "ENS",
  "abi": [
    {
      "anonymous": false,
      "inputs": [
        {
          "indexed": false,
          "internalType": "uint256",
          "name": "Id",
          "type": "uint256"
        },
        {
          "indexed": true,
          "internalType": "address",
          "name": "Proposer",
          "type": "address"
        },
        {
          "indexed": false,
          "internalType": "uint256",
          "name": "Deadline",
          "type": "uint256"
        },
        {
          "indexed": false,
          "internalType": "uint256",
          "name": "Threshold",
          "type": "uint256"
        }
      ],
      "name": "_AddedProposition",
      "type": "event"
    },
    {
      "anonymous": false,
      "inputs": [
        {
          "indexed": false,
          "internalType": "uint256",
          "name": "Id",
          "type": "uint256"
        },
        {
          "indexed": true,
          "internalType": "address",
          "name": "Proposer",
          "type": "address"
        }
      ],
      "name": "_CancelledProposition",
      "type": "event"
    },
    {
      "anonymous": false,
      "inputs": [
        {
          "indexed": false,
          "internalType": "bytes32",
          "name": "PrivatePoolNode",
          "type": "bytes32"
        }
      ],
      "name": "_NewPrivatePoolNode",
      "type": "event"
    },
    {
      "anonymous": false,
      "inputs": [
        {
          "indexed": false,
          "internalType": "bytes32",
          "name": "ProviderNode",
          "type": "bytes32"
        }
      ],
      "name": "_NewProviderNode",
      "type": "event"
    },
    {
      "anonymous": false,
      "inputs": [
        {
          "indexed": false,
          "internalType": "address",
          "name": "Registry",
          "type": "address"
        }
      ],
      "name": "_NewRegistry",
      "type": "event"
    },
    {
      "anonymous": false,
      "inputs": [
        {
          "indexed": false,
          "internalType": "address",
          "name": "ReverseRegistry",
          "type": "address"
        }
      ],
      "name": "_NewReverseRegistry",
      "type": "event"
    },
    {
      "anonymous": false,
      "inputs": [
        {
          "indexed": false,
          "internalType": "bytes32",
          "name": "node",
          "type": "bytes32"
        },
        {
          "indexed": false,
          "internalType": "bytes32",
          "name": "label",
          "type": "bytes32"
        }
      ],
      "name": "_NewSubdomainCreated",
      "type": "event"
    },
    {
      "anonymous": false,
      "inputs": [
        {
          "indexed": false,
          "internalType": "uint256",
          "name": "Id",
          "type": "uint256"
        },
        {
          "indexed": true,
          "internalType": "address",
          "name": "Proposer",
          "type": "address"
        },
        {
          "indexed": false,
          "internalType": "uint256",
          "name": "VotesFor",
          "type": "uint256"
        },
        {
          "indexed": false,
          "internalType": "uint256",
          "name": "VotesAgainst",
          "type": "uint256"
        }
      ],
      "name": "_PropositionApproved",
      "type": "event"
    },
    {
      "anonymous": false,
      "inputs": [
        {
          "indexed": false,
          "internalType": "uint256",
          "name": "Id",
          "type": "uint256"
        },
        {
          "indexed": true,
          "internalType": "address",
          "name": "Proposer",
          "type": "address"
        },
        {
          "indexed": false,
          "internalType": "uint256",
          "name": "VotesFor",
          "type": "uint256"
        },
        {
          "indexed": false,
          "internalType": "uint256",
          "name": "VotesAgainst",
          "type": "uint256"
        }
      ],
      "name": "_PropositionRejected",
      "type": "event"
    },
    {
      "anonymous": false,
      "inputs": [
        {
          "indexed": false,
          "internalType": "uint256",
          "name": "Id",
          "type": "uint256"
        },
        {
          "indexed": true,
          "internalType": "address",
          "name": "Voter",
          "type": "address"
        },
        {
          "indexed": false,
          "internalType": "bool",
          "name": "Vote",
          "type": "bool"
        },
        {
          "indexed": false,
          "internalType": "uint256",
          "name": "AmountTokens",
          "type": "uint256"
        }
      ],
      "name": "_PropositionVote",
      "type": "event"
    },
    {
      "anonymous": false,
      "inputs": [
        {
          "indexed": true,
          "internalType": "uint256",
          "name": "Id",
          "type": "uint256"
        },
        {
          "indexed": false,
          "internalType": "address",
          "name": "From",
          "type": "address"
        },
        {
          "indexed": false,
          "internalType": "address",
          "name": "To",
          "type": "address"
        },
        {
          "indexed": false,
          "internalType": "uint256",
          "name": "Amount",
          "type": "uint256"
        }
      ],
      "name": "_UsedTokensTransfered",
      "type": "event"
    },
    {
      "inputs": [
        {
          "internalType": "address",
          "name": "chairPerson",
          "type": "address"
        },
        {
          "internalType": "address",
          "name": "managerContractAddress",
          "type": "address"
        },
        {
          "internalType": "string",
          "name": "contractName",
          "type": "string"
        },
        {
          "internalType": "string",
          "name": "contractVersion",
          "type": "string"
        }
      ],
      "name": "StdPropositionBaseContract_init",
      "outputs": [],
      "stateMutability": "nonpayable",
      "type": "function"
    },
    {
      "inputs": [],
      "name": "cancelProposition",
      "outputs": [],
      "stateMutability": "nonpayable",
      "type": "function"
    },
    {
      "inputs": [
        {
          "internalType": "address",
          "name": "from",
          "type": "address"
        },
        {
          "internalType": "address",
          "name": "to",
          "type": "address"
        },
        {
          "internalType": "uint256",
          "name": "amount",
          "type": "uint256"
        }
      ],
      "name": "onTokenBalanceChanged",
      "outputs": [],
      "stateMutability": "nonpayable",
      "type": "function"
    },
    {
      "inputs": [],
      "name": "retrieveChairPerson",
      "outputs": [
        {
          "internalType": "address",
          "name": "",
          "type": "address"
        }
      ],
      "stateMutability": "view",
      "type": "function"
    },
    {
      "inputs": [],
      "name": "retrieveContractConfig",
      "outputs": [
        {
          "internalType": "string",
          "name": "",
          "type": "string"
        },
        {
          "internalType": "string",
          "name": "",
          "type": "string"
        }
      ],
      "stateMutability": "view",
      "type": "function"
    },
    {
      "inputs": [],
      "name": "retrieveManagerContract",
      "outputs": [
        {
          "internalType": "address",
          "name": "",
          "type": "address"
        }
      ],
      "stateMutability": "view",
      "type": "function"
    },
    {
      "inputs": [],
      "name": "retrieveNextPropId",
      "outputs": [
        {
          "internalType": "uint256",
          "name": "",
          "type": "uint256"
        }
      ],
      "stateMutability": "view",
      "type": "function"
    },
    {
      "inputs": [
        {
          "internalType": "address",
          "name": "addr",
          "type": "address"
        },
        {
          "internalType": "uint256",
          "name": "nonce",
          "type": "uint256"
        }
      ],
      "name": "retrieveNonce",
      "outputs": [
        {
          "internalType": "bool",
          "name": "",
          "type": "bool"
        }
      ],
      "stateMutability": "view",
      "type": "function"
    },
    {
      "inputs": [],
      "name": "retrieveProposition",
      "outputs": [
        {
          "internalType": "bytes[]",
          "name": "",
          "type": "bytes[]"
        }
      ],
      "stateMutability": "view",
      "type": "function"
    },
    {
      "inputs": [],
      "name": "retrievePropositionStatus",
      "outputs": [
        {
          "internalType": "address",
          "name": "",
          "type": "address"
        },
        {
          "internalType": "uint256",
          "name": "",
          "type": "uint256"
        },
        {
          "internalType": "uint256",
          "name": "",
          "type": "uint256"
        },
        {
          "internalType": "uint256",
          "name": "",
          "type": "uint256"
        },
        {
          "internalType": "uint256",
          "name": "",
          "type": "uint256"
        }
      ],
      "stateMutability": "view",
      "type": "function"
    },
    {
      "inputs": [
        {
          "internalType": "uint256",
          "name": "PropId",
          "type": "uint256"
        },
        {
          "internalType": "address",
          "name": "voter",
          "type": "address"
        }
      ],
      "name": "retrieveVotesForVoter",
      "outputs": [
        {
          "internalType": "uint256",
          "name": "",
          "type": "uint256"
        }
      ],
      "stateMutability": "view",
      "type": "function"
    },
    {
      "inputs": [
        {
          "internalType": "bytes[]",
          "name": "NewValues",
          "type": "bytes[]"
        }
      ],
      "name": "sendProposition",
      "outputs": [],
      "stateMutability": "nonpayable",
      "type": "function"
    },
    {
      "inputs": [
        {
          "internalType": "bool",
          "name": "vote",
          "type": "bool"
        }
      ],
      "name": "voteProposition",
      "outputs": [],
      "stateMutability": "nonpayable",
      "type": "function"
    },
    {
      "inputs": [
        {
          "internalType": "address",
          "name": "voter",
          "type": "address"
        },
        {
          "internalType": "uint256",
          "name": "propID",
          "type": "uint256"
        },
        {
          "internalType": "bool",
          "name": "vote",
          "type": "bool"
        },
        {
          "internalType": "uint256",
          "name": "nonce",
          "type": "uint256"
        },
        {
          "internalType": "uint256",
          "name": "deadline",
          "type": "uint256"
        },
        {
          "internalType": "bytes",
          "name": "signature",
          "type": "bytes"
        }
      ],
      "name": "votePropositionOnBehalfOf",
      "outputs": [],
      "stateMutability": "nonpayable",
      "type": "function"
    },
    {
      "inputs": [
        {
          "internalType": "address",
          "name": "ENSRegistry",
          "type": "address"
        },
        {
          "internalType": "address",
          "name": "ENSReverseRegistry",
          "type": "address"
        },
        {
          "internalType": "bytes32[]",
          "name": "nodes",
          "type": "bytes32[]"
        },
        {
          "internalType": "address",
          "name": "managerContractAddress",
          "type": "address"
        },
        {
          "internalType": "address",
          "name": "chairPerson",
          "type": "address"
        },
        {
          "internalType": "string",
          "name": "contractName",
          "type": "string"
        },
        {
          "internalType": "string",
          "name": "contractVersion",
          "type": "string"
        }
      ],
      "name": "ENS_init",
      "outputs": [],
      "stateMutability": "nonpayable",
      "type": "function"
    },
    {
      "inputs": [
        {
          "internalType": "bytes32",
          "name": "label",
          "type": "bytes32"
        }
      ],
      "name": "createSubdomain",
      "outputs": [],
      "stateMutability": "nonpayable",
      "type": "function"
    },
    {
      "inputs": [],
      "name": "retrieveSettings",
      "outputs": [
        {
          "internalType": "address",
          "name": "",
          "type": "address"
        },
        {
          "internalType": "address",
          "name": "",
          "type": "address"
        },
        {
          "internalType": "bytes32",
          "name": "",
          "type": "bytes32"
        },
        {
          "internalType": "bytes32",
          "name": "",
          "type": "bytes32"
        }
      ],
      "stateMutability": "view",
      "type": "function"
    }
  ],
  "bytecode": "0x608060405234801561001057600080fd5b50612f74806100206000396000f3fe608060405234801561001057600080fd5b50600436106100db5760003560e01c806304cc67a9146100e05780630f13bbc9146100f75780633c7df55d1461010c5780633feca4ca1461011f5780634044adb21461016857806355457ee91461019e5780635b362e84146101a65780637746a5dc146101c65780637faa3d6f146101d9578063840f6d17146101ec578063876865d31461022d57806391f9167114610240578063a93316f514610253578063b049473f14610268578063d2116a021461029f578063db85bc4d146102b5578063e15aa3a6146102c6575b600080fd5b600b545b6040519081526020015b60405180910390f35b61010a61010536600461275c565b6102d9565b005b61010a61011a3660046127e4565b61035e565b61015861012d366004612825565b6001600160a01b03919091166000908152600260209081526040808320938352929052205460ff1690565b60405190151581526020016100ee565b6100e4610176366004612a88565b6000918252600c602090815260408084206001600160a01b0393909316845291905290205490565b61010a61045e565b6003546201000090046001600160a01b03165b6040516100ee9190612c0b565b61010a6101d4366004612a56565b610530565b61010a6101e7366004612851565b61099f565b600654600754600854600954600a54604080516001600160a01b0390961686526020860194909452928401919091526060830152608082015260a0016100ee565b61010a61023b36600461268e565b6109bf565b61010a61024e366004612a1c565b610ab0565b61025b610abd565b6040516100ee9190612cac565b600e54600f54601054601154604080516001600160a01b0395861681529490931660208501529183015260608201526080016100ee565b6102a7610b96565b6040516100ee929190612d34565b6004546001600160a01b03166101b9565b61010a6102d4366004612965565b610cbd565b600354610100900460ff16806102f2575060035460ff16155b6103175760405162461bcd60e51b815260040161030e90612d62565b60405180910390fd5b600354610100900460ff16158015610339576003805461ffff19166101011790555b61034585858585610d37565b8015610357576003805461ff00191690555b5050505050565b3373__Library_______________________________6337ea306382600360029054906101000a90046001600160a01b03166001600160a01b031663da3dce266040518163ffffffff1660e01b815260040160206040518083038186803b1580156103c857600080fd5b505afa1580156103dc573d6000803e3d6000fd5b505050506040513d601f19601f820116820180604052508101906104009190612671565b6040518363ffffffff1660e01b815260040161041d929190612c1f565b60006040518083038186803b15801561043557600080fd5b505af4158015610449573d6000803e3d6000fd5b50505050610458848484610dc1565b50505050565b600161046981610de3565b6006546040516337ea306360e01b8152339173__Library_______________________________916337ea3063916104af9185916001600160a01b031690600401612c1f565b60006040518083038186803b1580156104c757600080fd5b505af41580156104db573d6000803e3d6000fd5b505050506104e7610e67565b6006546005546040519081526001600160a01b03909116907f1fe8aec10c0a50fa765076161e08c1f961ced69594ff45cf7d559f593afe14799060200160405180910390a25050565b33806001600160a01b0316600360029054906101000a90046001600160a01b03166001600160a01b0316633c65d4276040518163ffffffff1660e01b815260040160206040518083038186803b15801561058957600080fd5b505afa15801561059d573d6000803e3d6000fd5b505050506040513d601f19601f820116820180604052508101906105c19190612671565b6001600160a01b0316148061066c5750806001600160a01b0316600360029054906101000a90046001600160a01b03166001600160a01b0316635773bc236040518163ffffffff1660e01b815260040160206040518083038186803b15801561062957600080fd5b505afa15801561063d573d6000803e3d6000fd5b505050506040513d601f19601f820116820180604052508101906106619190612671565b6001600160a01b0316145b6106a15760405162461bcd60e51b815260040161030e906020808252600490820152634543382d60e01b604082015260600190565b60006011549050600360029054906101000a90046001600160a01b03166001600160a01b0316633c65d4276040518163ffffffff1660e01b815260040160206040518083038186803b1580156106f657600080fd5b505afa15801561070a573d6000803e3d6000fd5b505050506040513d601f19601f8201168201806040525081019061072e9190612671565b6001600160a01b0316336001600160a01b0316141561074c57506010545b6040805160208082018490528183018690528251808303840181526060909201909252805191012061077d81610e92565b156107b25760405162461bcd60e51b8152602060048201526005602482015264454333372d60d81b604482015260640161030e565b600e54604051630178b8bf60e01b8152600481018490526000916001600160a01b031690630178b8bf9060240160206040518083038186803b1580156107f757600080fd5b505afa15801561080b573d6000803e3d6000fd5b505050506040513d601f19601f8201168201806040525081019061082f9190612671565b600e546040516316a25cbd60e01b8152600481018690529192506000916001600160a01b03909116906316a25cbd9060240160206040518083038186803b15801561087957600080fd5b505afa15801561088d573d6000803e3d6000fd5b505050506040513d601f19601f820116820180604052508101906108b19190612af4565b600e546040516305ef2c7f60e41b815260048101879052602481018990523060448201526001600160a01b0385811660648301526001600160401b0384166084830152929350911690635ef2c7f09060a401600060405180830381600087803b15801561091d57600080fd5b505af1158015610931573d6000803e3d6000fd5b505060405162d5fa2b60e81b8152600481018690523360248201528492506001600160a01b038316915063d5fa2b0090604401600060405180830381600087803b15801561097e57600080fd5b505af1158015610992573d6000803e3d6000fd5b5050505050505050505050565b6109ad868686868686610f15565b6109b78685611074565b505050505050565b600354610100900460ff16806109d8575060035460ff16155b6109f45760405162461bcd60e51b815260040161030e90612d62565b600354610100900460ff16158015610a16576003805461ffff19166101011790555b610a22848685856102d9565b600e80546001600160a01b03808b166001600160a01b031992831617909255600f8054928a169290911691909117905585518690600090610a6557610a65612eef565b602002602001015160108190555085600181518110610a8657610a86612eef565b60200260200101516011819055508015610aa6576003805461ff00191690555b5050505050505050565b610aba3382611074565b50565b6060600d805480602002602001604051908101604052809291908181526020016000905b82821015610b8d578382906000526020600020018054610b0090612e89565b80601f0160208091040260200160405190810160405280929190818152602001828054610b2c90612e89565b8015610b795780601f10610b4e57610100808354040283529160200191610b79565b820191906000526020600020905b815481529060010190602001808311610b5c57829003601f168201915b505050505081526020019060010190610ae1565b50505050905090565b60608060006001818054610ba990612e89565b80601f0160208091040260200160405190810160405280929190818152602001828054610bd590612e89565b8015610c225780601f10610bf757610100808354040283529160200191610c22565b820191906000526020600020905b815481529060010190602001808311610c0557829003601f168201915b50505050509150808054610c3590612e89565b80601f0160208091040260200160405190810160405280929190818152602001828054610c6190612e89565b8015610cae5780601f10610c8357610100808354040283529160200191610cae565b820191906000526020600020905b815481529060010190602001808311610c9157829003601f168201915b50505050509050915091509091565b610cc68161118b565b610cce611609565b60005b8151811015610d3357600d828281518110610cee57610cee612eef565b60209081029190910181015182546001810184556000938452928290208151610d209491909101929190910190612461565b5080610d2b81612ebe565b915050610cd1565b5050565b600354610100900460ff1680610d50575060035460ff16155b610d6c5760405162461bcd60e51b815260040161030e90612d62565b600354610100900460ff16158015610d8e576003805461ffff19166101011790555b610d978461195d565b600480546001600160a01b0319166001600160a01b0387161790556000600b5561034583836119eb565b610dc9611a12565b151560011415610dde57610dde838383611a4c565b505050565b8015610e2a57610df1611a12565b1515600114610aba5760405162461bcd60e51b8152602060048201526005602482015264454332352d60d81b604482015260640161030e565b610e32611a12565b15610aba5760405162461bcd60e51b8152602060048201526005602482015264454332342d60d81b604482015260640161030e565b60006005819055600680546001600160a01b0319169055600781905560088190556009819055600a55565b600e54604051631ef3fca760e31b8152600481018390526000916001600160a01b03169063f79fe5389060240160206040518083038186803b158015610ed757600080fd5b505afa158015610eeb573d6000803e3d6000fd5b505050506040513d601f19601f82011682018060405250810190610f0f9190612a39565b92915050565b81610f1f81611bbc565b8684610f2b8282611bf3565b6005548814610f645760405162461bcd60e51b8152602060048201526005602482015264454333352d60d81b604482015260640161030e565b60405163432f9a5560e01b815273__SignatureLibrary______________________9063432f9a5590610fab908c908c908c908c908c908c90600090600190600401612c39565b60206040518083038186803b158015610fc357600080fd5b505af4158015610fd7573d6000803e3d6000fd5b505050506040513d601f19601f82011682018060405250810190610ffb9190612a39565b15156001146110345760405162461bcd60e51b8152602060048201526005602482015264454333322d60d81b604482015260640161030e565b61106989876001600160a01b03909116600090815260026020908152604080832093835292905220805460ff19166001179055565b505050505050505050565b600161107f81610de3565b600554839060006110908383611c4f565b9050600081116110ca5760405162461bcd60e51b8152602060048201526005602482015264454332332d60d81b604482015260640161030e565b60006110db87600560000154611c4f565b905085156111035780600560040160008282546110f89190612e19565b9091555061111d9050565b806005800160008282546111179190612e19565b90915550505b60055461112b908883611c8c565b60055460408051918252871515602083015281018290526001600160a01b038816907f50f654d58981575c05e369cb129aeacb01e1b036af429380242cfc5d1a4b743f9060600160405180910390a2611182611cc8565b50505050505050565b73__AddressLibrary________________________63f4ce9ae873__Library_______________________________63caa8f589846000815181106111d2576111d2612eef565b60200260200101516040518263ffffffff1660e01b81526004016111f69190612d0e565b60006040518083038186803b15801561120e57600080fd5b505af4158015611222573d6000803e3d6000fd5b505050506040513d6000823e601f3d908101601f1916820160405261124a91908101906128ce565b60008151811061125c5761125c612eef565b60200260200101516040518263ffffffff1660e01b815260040161128291815260200190565b60206040518083038186803b15801561129a57600080fd5b505af41580156112ae573d6000803e3d6000fd5b505050506040513d601f19601f820116820180604052508101906112d29190612671565b73__AddressLibrary________________________63f4ce9ae873__Library_______________________________63caa8f5898560018151811061131957611319612eef565b60200260200101516040518263ffffffff1660e01b815260040161133d9190612d0e565b60006040518083038186803b15801561135557600080fd5b505af4158015611369573d6000803e3d6000fd5b505050506040513d6000823e601f3d908101601f1916820160405261139191908101906128ce565b6000815181106113a3576113a3612eef565b60200260200101516040518263ffffffff1660e01b81526004016113c991815260200190565b60206040518083038186803b1580156113e157600080fd5b505af41580156113f5573d6000803e3d6000fd5b505050506040513d601f19601f820116820180604052508101906114199190612671565b73__Library_______________________________63caa8f5898460028151811061144657611446612eef565b60200260200101516040518263ffffffff1660e01b815260040161146a9190612d0e565b60006040518083038186803b15801561148257600080fd5b505af4158015611496573d6000803e3d6000fd5b505050506040513d6000823e601f3d908101601f191682016040526114be91908101906128ce565b6000815181106114d0576114d0612eef565b602002602001015173__Library_______________________________63caa8f5898560038151811061150557611505612eef565b60200260200101516040518263ffffffff1660e01b81526004016115299190612d0e565b60006040518083038186803b15801561154157600080fd5b505af4158015611555573d6000803e3d6000fd5b505050506040513d6000823e601f3d908101601f1916820160405261157d91908101906128ce565b60008151811061158f5761158f612eef565b6020026020010151836001600160a01b031660006001600160a01b03161415806115c157506001600160a01b03831615155b806115cb57508115155b806115d557508015155b6103575760405162461bcd60e51b8152602060048201526005602482015264454332312d60d81b604482015260640161030e565b600061161481610de3565b60045433906000906001600160a01b03168214156116345750600161176d565b600061163f83611d9e565b90506000600360029054906101000a90046001600160a01b03166001600160a01b03166387552a0d6040518163ffffffff1660e01b815260040160206040518083038186803b15801561169157600080fd5b505afa1580156116a5573d6000803e3d6000fd5b505050506040513d601f19601f820116820180604052508101906116c99190612671565b6001600160a01b031663b049473f6040518163ffffffff1660e01b815260040160606040518083038186803b15801561170157600080fd5b505afa158015611715573d6000803e3d6000fd5b505050506040513d601f19601f820116820180604052508101906117399190612ab8565b925050506064611747611ea1565b6117549060ff8416612e53565b61175e9190612e31565b82111561176a57600192505b50505b6001811515146117a75760405162461bcd60e51b8152602060048201526005602482015264454332322d60d81b604482015260640161030e565b600080600360029054906101000a90046001600160a01b03166001600160a01b03166387552a0d6040518163ffffffff1660e01b815260040160206040518083038186803b1580156117f857600080fd5b505afa15801561180c573d6000803e3d6000fd5b505050506040513d601f19601f820116820180604052508101906118309190612671565b6001600160a01b031663b049473f6040518163ffffffff1660e01b815260040160606040518083038186803b15801561186857600080fd5b505afa15801561187c573d6000803e3d6000fd5b505050506040513d601f19601f820116820180604052508101906118a09190612ab8565b50600680546001600160a01b0319163317905590925090506118c28242612e19565b600755606460ff82166118d3611ea1565b6118dd9190612e53565b6118e79190612e31565b600855600b805460058190559060006118ff83612ebe565b90915550506006546005546007546008546040516001600160a01b03909416937f472501d19bf75639b2e316cd36f8568b0c3ab943b82a87de3c086c98c1929df99361194e9390929091612db0565b60405180910390a25050505050565b600354610100900460ff1680611976575060035460ff16155b6119925760405162461bcd60e51b815260040161030e90612d62565b600354610100900460ff161580156119b4576003805461ffff19166101011790555b6003805462010000600160b01b031916620100006001600160a01b038516021790558015610d33576003805461ff00191690555050565b81516119fe906000906020850190612461565b508051610dde906001906020840190612461565b600754600090421015611a255750600190565b6006546001600160a01b031615611a4657611a3e611f9e565b611a46610e67565b50600090565b6001600160a01b03831615801590611a8857506005546000908152600c602090815260408083206001600160a01b038716845290915290205415155b15610dde576005546000908152600c602090815260408083206001600160a01b03871684529091529020548190811115611ae457506005546000908152600c602090815260408083206001600160a01b03871684529091529020545b6005546000908152600c602090815260408083206001600160a01b038816845290915281208054839290611b19908490612e72565b90915550506001600160a01b03831615611b68576005546000908152600c602090815260408083206001600160a01b038716845290915281208054839290611b62908490612e19565b90915550505b600554604080516001600160a01b038088168252861660208201529081018390527f65fbd5e5dd32bea4aeca85bd0be0abf0e489d655dee888a7510d43b06dda2dba9060600160405180910390a250505050565b804210610aba5760405162461bcd60e51b8152602060048201526005602482015264454333332d60d81b604482015260640161030e565b6001600160a01b038216600090815260026020908152604080832084845290915290205460ff1615610d335760405162461bcd60e51b8152602060048201526005602482015264454333342d60d81b604482015260640161030e565b6000818152600c602090815260408083206001600160a01b0386168452909152812054611c7b84611d9e565b611c859190612e72565b9392505050565b6000838152600c602090815260408083206001600160a01b038616845290915281208054839290611cbe908490612e19565b9091555050505050565b60085460095410611d3757611cdb611fa6565b611ce3610e67565b600654600554600954600a546040516001600160a01b03909416937f23ca0034cf5aad32571b4a492e9598ea8a490e1643a60970e3cdc6933b55e49f93611d2d9390929091612db0565b60405180910390a2565b600854600a5410611d9c57611d4a611f9e565b611d52610e67565b600654600554600954600a546040516001600160a01b03909416937fa58eb6daa3c62c3f883973c4035e5bd3e81aa627c8379de068a7de42df122be293611d2d9390929091612db0565b565b6000600360029054906101000a90046001600160a01b03166001600160a01b031663da3dce266040518163ffffffff1660e01b815260040160206040518083038186803b158015611dee57600080fd5b505afa158015611e02573d6000803e3d6000fd5b505050506040513d601f19601f82011682018060405250810190611e269190612671565b6001600160a01b03166370a08231836040518263ffffffff1660e01b8152600401611e519190612c0b565b60206040518083038186803b158015611e6957600080fd5b505afa158015611e7d573d6000803e3d6000fd5b505050506040513d601f19601f82011682018060405250810190610f0f9190612a6f565b6000600360029054906101000a90046001600160a01b03166001600160a01b031663da3dce266040518163ffffffff1660e01b815260040160206040518083038186803b158015611ef157600080fd5b505afa158015611f05573d6000803e3d6000fd5b505050506040513d601f19601f82011682018060405250810190611f299190612671565b6001600160a01b03166318160ddd6040518163ffffffff1660e01b815260040160206040518083038186803b158015611f6157600080fd5b505afa158015611f75573d6000803e3d6000fd5b505050506040513d601f19601f82011682018060405250810190611f999190612a6f565b905090565b611d9c611fae565b611f9e611fba565b611d9c600d60006124e5565b6000611fc4612312565b9050600073__AddressLibrary________________________63f4ce9ae883600081518110611ff557611ff5612eef565b60200260200101516040518263ffffffff1660e01b815260040161201b91815260200190565b60206040518083038186803b15801561203357600080fd5b505af4158015612047573d6000803e3d6000fd5b505050506040513d601f19601f8201168201806040525081019061206b9190612671565b9050600073__AddressLibrary________________________63f4ce9ae88460018151811061209c5761209c612eef565b60200260200101516040518263ffffffff1660e01b81526004016120c291815260200190565b60206040518083038186803b1580156120da57600080fd5b505af41580156120ee573d6000803e3d6000fd5b505050506040513d601f19601f820116820180604052508101906121129190612671565b90506001600160a01b0382161561217757600e80546001600160a01b0319166001600160a01b0384161790556040517f46e671841289b35d061dd0dfd2cbb135c0821b6e27418ca236e2ed8c14c3fd199061216e908490612c0b565b60405180910390a15b6001600160a01b038116156121da57600f80546001600160a01b0319166001600160a01b0383161790556040517f576081cc849894908eb3a7d760dd8e300e9c5062f9e9e6742cd40d5bd5b721a0906121d1908390612c0b565b60405180910390a15b6000801b836002815181106121f1576121f1612eef565b60200260200101511115612274578260028151811061221257612212612eef565b60200260200101516010819055507f4912880141eb4d979703a76489842d58bb8cbe04db86cc99b65a0b05df1e2cce8360028151811061225457612254612eef565b602002602001015160405161226b91815260200190565b60405180910390a15b6000801b8360038151811061228b5761228b612eef565b60200260200101511115610dde57826003815181106122ac576122ac612eef565b60200260200101516011819055507f7cbcf1216e5dec7aec240d0d758333758442e4cc1dcb03228890a420597b6acc836003815181106122ee576122ee612eef565b602002602001015160405161230591815260200190565b60405180910390a1505050565b600d546060906000906001600160401b0381111561233257612332612f05565b60405190808252806020026020018201604052801561235b578160200160208202803683370190505b50905060005b600d5481101561245b5773__Library_______________________________63caa8f589600d838154811061239857612398612eef565b906000526020600020016040518263ffffffff1660e01b81526004016123be9190612d21565b60006040518083038186803b1580156123d657600080fd5b505af41580156123ea573d6000803e3d6000fd5b505050506040513d6000823e601f3d908101601f1916820160405261241291908101906128ce565b60008151811061242457612424612eef565b602002602001015182828151811061243e5761243e612eef565b60209081029190910101528061245381612ebe565b915050612361565b50919050565b82805461246d90612e89565b90600052602060002090601f01602090048101928261248f57600085556124d5565b82601f106124a857805160ff19168380011785556124d5565b828001600101855582156124d5579182015b828111156124d55782518255916020019190600101906124ba565b506124e1929150612503565b5090565b5080546000825590600052602060002090810190610aba9190612518565b5b808211156124e15760008155600101612504565b808211156124e157600061252c8282612535565b50600101612518565b50805461254190612e89565b6000825580601f10612551575050565b601f016020900490600052602060002090810190610aba9190612503565b803561257a81612f1b565b919050565b600082601f83011261259057600080fd5b813560206125a56125a083612df6565b612dc6565b80838252828201915082860187848660051b89010111156125c557600080fd5b60005b858110156125e4578135845292840192908401906001016125c8565b5090979650505050505050565b600082601f83011261260257600080fd5b81356001600160401b0381111561261b5761261b612f05565b61262e601f8201601f1916602001612dc6565b81815284602083860101111561264357600080fd5b816020850160208301376000918101602001919091529392505050565b805160ff8116811461257a57600080fd5b60006020828403121561268357600080fd5b8151611c8581612f1b565b600080600080600080600060e0888a0312156126a957600080fd5b87356126b481612f1b565b965060208801356126c481612f1b565b955060408801356001600160401b03808211156126e057600080fd5b6126ec8b838c0161257f565b96506126fa60608b0161256f565b955061270860808b0161256f565b945060a08a013591508082111561271e57600080fd5b61272a8b838c016125f1565b935060c08a013591508082111561274057600080fd5b5061274d8a828b016125f1565b91505092959891949750929550565b6000806000806080858703121561277257600080fd5b843561277d81612f1b565b9350602085013561278d81612f1b565b925060408501356001600160401b03808211156127a957600080fd5b6127b5888389016125f1565b935060608701359150808211156127cb57600080fd5b506127d8878288016125f1565b91505092959194509250565b6000806000606084860312156127f957600080fd5b833561280481612f1b565b9250602084013561281481612f1b565b929592945050506040919091013590565b6000806040838503121561283857600080fd5b823561284381612f1b565b946020939093013593505050565b60008060008060008060c0878903121561286a57600080fd5b863561287581612f1b565b955060208701359450604087013561288c81612f30565b9350606087013592506080870135915060a08701356001600160401b038111156128b557600080fd5b6128c189828a016125f1565b9150509295509295509295565b600060208083850312156128e157600080fd5b82516001600160401b038111156128f757600080fd5b8301601f8101851361290857600080fd5b80516129166125a082612df6565b80828252848201915084840188868560051b870101111561293657600080fd5b600094505b8385101561295957805183526001949094019391850191850161293b565b50979650505050505050565b6000602080838503121561297857600080fd5b82356001600160401b038082111561298f57600080fd5b818501915085601f8301126129a357600080fd5b81356129b16125a082612df6565b80828252858201915085850189878560051b88010111156129d157600080fd5b6000805b85811015612a0c578235878111156129eb578283fd5b6129f98d8b838c01016125f1565b86525093880193918801916001016129d5565b50919a9950505050505050505050565b600060208284031215612a2e57600080fd5b8135611c8581612f30565b600060208284031215612a4b57600080fd5b8151611c8581612f30565b600060208284031215612a6857600080fd5b5035919050565b600060208284031215612a8157600080fd5b5051919050565b60008060408385031215612a9b57600080fd5b823591506020830135612aad81612f1b565b809150509250929050565b600080600060608486031215612acd57600080fd5b83519250612add60208501612660565b9150612aeb60408501612660565b90509250925092565b600060208284031215612b0657600080fd5b81516001600160401b0381168114611c8557600080fd5b6000815180845260005b81811015612b4357602081850181015186830182015201612b27565b81811115612b55576000602083870101525b50601f01601f19169290920160200192915050565b8054600090600181811c9080831680612b8457607f831692505b6020808410821415612ba657634e487b7160e01b600052602260045260246000fd5b838852818015612bbd5760018114612bd157612bff565b60ff19861689830152604089019650612bff565b876000528160002060005b86811015612bf75781548b8201850152908501908301612bdc565b8a0183019750505b50505050505092915050565b6001600160a01b0391909116815260200190565b6001600160a01b0392831681529116602082015260400190565b600061010060018060a01b038b16835289602084015288151560408401528760608401528660808401528060a0840152612c7581840187612b1d565b905082810360c0840152612c898186612b6a565b905082810360e0840152612c9d8185612b6a565b9b9a5050505050505050505050565b6000602080830181845280855180835260408601915060408160051b870101925083870160005b82811015612d0157603f19888603018452612cef858351612b1d565b94509285019290850190600101612cd3565b5092979650505050505050565b602081526000611c856020830184612b1d565b602081526000611c856020830184612b6a565b604081526000612d476040830185612b1d565b8281036020840152612d598185612b1d565b95945050505050565b6020808252602e908201527f496e697469616c697a61626c653a20636f6e747261637420697320616c72656160408201526d191e481a5b9a5d1a585b1a5e995960921b606082015260800190565b9283526020830191909152604082015260600190565b604051601f8201601f191681016001600160401b0381118282101715612dee57612dee612f05565b604052919050565b60006001600160401b03821115612e0f57612e0f612f05565b5060051b60200190565b60008219821115612e2c57612e2c612ed9565b500190565b600082612e4e57634e487b7160e01b600052601260045260246000fd5b500490565b6000816000190483118215151615612e6d57612e6d612ed9565b500290565b600082821015612e8457612e84612ed9565b500390565b600181811c90821680612e9d57607f821691505b6020821081141561245b57634e487b7160e01b600052602260045260246000fd5b6000600019821415612ed257612ed2612ed9565b5060010190565b634e487b7160e01b600052601160045260246000fd5b634e487b7160e01b600052603260045260246000fd5b634e487b7160e01b600052604160045260246000fd5b6001600160a01b0381168114610aba57600080fd5b8015158114610aba57600080fdfea26469706673582212203e016a73793a02f8f6b0c41cea3d1db6236cf1aa2cc1c1078f47a6b2b50215bf64736f6c63430008070033",
  "immutableReferences": {},
  "source": "// SPDX-License-Identifier: GPL-3.0\r\n\r\npragma solidity 0.8.7;\r\n\r\n/**\r\n Price Converter is an interface to the Chain Link Price Registry for USD to ETH exchange\r\n */\r\n\r\nimport \"../Interfaces/IENS.sol\";\r\nimport \"../Base/StdPropositionBaseContract.sol\";\r\nimport \"../Interfaces/IENSRegistry.sol\";\r\nimport \"../Interfaces/IENSResolver.sol\";\r\n\r\ncontract ENS is IENS, StdPropositionBaseContract {\r\n\r\n    // EVENTS /////////////////////////////////////////\r\n    event _NewRegistry(address Registry);\r\n    event _NewReverseRegistry(address ReverseRegistry);\r\n    event _NewPrivatePoolNode(bytes32 PrivatePoolNode);\r\n    event _NewProviderNode(bytes32 ProviderNode);\r\n    event _NewSubdomainCreated(bytes32 node, bytes32 label);\r\n\r\n    // DATA /////////////////////////////////////////\r\n    IENSRegistry internal _ENS;\r\n    address internal _ENSReverseRegistry;\r\n    bytes32 internal _PrivatePoolNode; \r\n    bytes32 internal _ProviderNode; \r\n\r\n    // MODIFIERS /////////////////////////////////////////\r\n    modifier isFromAuthorizedContract(address addr){\r\n        require(_managerContract.retrievePrivatePoolFactoryProxy() == addr ||\r\n                _managerContract.retrieveProviderFactoryProxy() == addr, \"EC8-\");\r\n        _;\r\n    }\r\n\r\n    modifier arePropositionsOK(address addr1, address addr2, bytes32 privatenode, bytes32 providernode){\r\n        require(address(0) != addr1 || address(0) != addr2 || privatenode > 0 || providernode > 0, \"EC21-\");\r\n        _;\r\n    }\r\n\r\n    // CONSTRUCTOR /////////////////////////////////////////\r\n    function ENS_init(address ENSRegistry, address ENSReverseRegistry, bytes32[] memory nodes, address managerContractAddress, address chairPerson, string memory contractName, string memory contractVersion) public initializer \r\n    {\r\n        super.StdPropositionBaseContract_init(chairPerson, managerContractAddress, contractName, contractVersion);\r\n        _ENS = IENSRegistry(ENSRegistry);\r\n        _ENSReverseRegistry = ENSReverseRegistry;\r\n        _PrivatePoolNode = nodes[0];\r\n        _ProviderNode = nodes[1];\r\n    }\r\n\r\n    // GOVERNANCE /////////////////////////////////////////\r\n    function checkProposition(bytes[] memory NewValues) internal override \r\n        arePropositionsOK(AddressLibrary.Bytes32ToAddress(Library.BytestoBytes32(NewValues[0])[0]),\r\n                            AddressLibrary.Bytes32ToAddress(Library.BytestoBytes32(NewValues[1])[0]),\r\n                            Library.BytestoBytes32(NewValues[2])[0],\r\n                            Library.BytestoBytes32(NewValues[3])[0])\r\n    {}\r\n\r\n    function UpdateAll() internal override\r\n    {\r\n        bytes32[] memory ProposedNewValues = PropositionsToBytes32();\r\n\r\n        address NewRegistryAddress = AddressLibrary.Bytes32ToAddress(ProposedNewValues[0]);\r\n        address NewReverseRegistryAddress = AddressLibrary.Bytes32ToAddress(ProposedNewValues[1]);\r\n\r\n        if(address(0) != NewRegistryAddress){\r\n            _ENS = IENSRegistry(NewRegistryAddress);\r\n            emit _NewRegistry(NewRegistryAddress);\r\n        } \r\n\r\n        if(address(0) != NewReverseRegistryAddress){\r\n            _ENSReverseRegistry = NewReverseRegistryAddress;\r\n            emit _NewReverseRegistry(NewReverseRegistryAddress);\r\n        }\r\n\r\n        if(ProposedNewValues[2] > 0) {\r\n            _PrivatePoolNode = ProposedNewValues[2];\r\n            emit _NewPrivatePoolNode(ProposedNewValues[2]);\r\n        }\r\n\r\n        if(ProposedNewValues[3] > 0) {\r\n            _ProviderNode = ProposedNewValues[3];\r\n            emit _NewProviderNode(ProposedNewValues[3]);\r\n        }\r\n\r\n    }\r\n\r\n    // FUNCTIONALITY /////////////////////////////////////////\r\n    function check(bytes32 node) internal view returns(bool) {\r\n        return _ENS.recordExists(node);\r\n    }\r\n\r\n    function createSubdomain(bytes32 label) external override\r\n        isFromAuthorizedContract(msg.sender)\r\n    {\r\n        bytes32 node = _ProviderNode;\r\n        if(msg.sender == _managerContract.retrievePrivatePoolFactoryProxy()) node = _PrivatePoolNode;\r\n\r\n        bytes32 FullNode = keccak256(abi.encodePacked(node, label));\r\n        require(false == check(FullNode), \"EC37-\");\r\n\r\n        address resolverAddress = _ENS.resolver(node);\r\n        uint64 ttl = _ENS.ttl(node);\r\n\r\n        _ENS.setSubnodeRecord(node, label, address(this), resolverAddress, ttl);\r\n        IENSResolver resolver = IENSResolver(resolverAddress);\r\n        resolver.setAddr(FullNode, msg.sender);\r\n    }\r\n\r\n    function retrieveSettings() external override view returns(address, address, bytes32, bytes32)\r\n    {\r\n        return (address(_ENS), _ENSReverseRegistry, _PrivatePoolNode, _ProviderNode);\r\n    }\r\n    \r\n\r\n}",
  "sourcePath": "C:/Users/d-aam/GitHub/Certificates/contracts/DeployedContracts/ENS.sol",
  "compiler": {
    "name": "solc",
    "version": "0.8.7+commit.e28d00a7.Emscripten.clang"
  },
  "schemaVersion": "3.3.4",
  "updatedAt": "2021-11-04T08:53:31.497Z",
  "devdoc": {
    "kind": "dev",
    "methods": {},
    "version": 1
  },
  "userdoc": {
    "kind": "user",
    "methods": {},
    "version": 1
  }
}