{
  "contractName": "GenericProxy",
  "abi": [
    {
      "inputs": [
        {
          "internalType": "address",
          "name": "GenericCodeContractAddress",
          "type": "address"
        },
        {
          "internalType": "address",
          "name": "managerContractAddress",
          "type": "address"
        },
        {
          "internalType": "bytes",
          "name": "data",
          "type": "bytes"
        }
      ],
      "stateMutability": "nonpayable",
      "type": "constructor"
    },
    {
      "anonymous": false,
      "inputs": [
        {
          "indexed": false,
          "internalType": "address",
          "name": "previousAdmin",
          "type": "address"
        },
        {
          "indexed": false,
          "internalType": "address",
          "name": "newAdmin",
          "type": "address"
        }
      ],
      "name": "AdminChanged",
      "type": "event"
    },
    {
      "anonymous": false,
      "inputs": [
        {
          "indexed": true,
          "internalType": "address",
          "name": "beacon",
          "type": "address"
        }
      ],
      "name": "BeaconUpgraded",
      "type": "event"
    },
    {
      "anonymous": false,
      "inputs": [
        {
          "indexed": true,
          "internalType": "address",
          "name": "implementation",
          "type": "address"
        }
      ],
      "name": "Upgraded",
      "type": "event"
    },
    {
      "stateMutability": "payable",
      "type": "fallback"
    },
    {
      "inputs": [],
      "name": "admin",
      "outputs": [
        {
          "internalType": "address",
          "name": "admin_",
          "type": "address"
        }
      ],
      "stateMutability": "nonpayable",
      "type": "function"
    },
    {
      "inputs": [
        {
          "internalType": "address",
          "name": "newAdmin",
          "type": "address"
        }
      ],
      "name": "changeAdmin",
      "outputs": [],
      "stateMutability": "nonpayable",
      "type": "function"
    },
    {
      "inputs": [],
      "name": "implementation",
      "outputs": [
        {
          "internalType": "address",
          "name": "implementation_",
          "type": "address"
        }
      ],
      "stateMutability": "nonpayable",
      "type": "function"
    },
    {
      "inputs": [
        {
          "internalType": "address",
          "name": "newImplementation",
          "type": "address"
        }
      ],
      "name": "upgradeTo",
      "outputs": [],
      "stateMutability": "nonpayable",
      "type": "function"
    },
    {
      "inputs": [
        {
          "internalType": "address",
          "name": "newImplementation",
          "type": "address"
        },
        {
          "internalType": "bytes",
          "name": "data",
          "type": "bytes"
        }
      ],
      "name": "upgradeToAndCall",
      "outputs": [],
      "stateMutability": "payable",
      "type": "function"
    },
    {
      "stateMutability": "payable",
      "type": "receive"
    },
    {
      "inputs": [],
      "name": "retrieveImplementation",
      "outputs": [
        {
          "internalType": "address",
          "name": "",
          "type": "address"
        }
      ],
      "stateMutability": "view",
      "type": "function"
    }
  ],
  "bytecode": "0x60806040523480156200001157600080fd5b5060405162000f6e38038062000f6e8339810160408190526200003491620004d6565b82828282816200006660017f360894a13ba1a3210667c828492db98dca3e2076cc3735a920a3ca505d382bbd62000609565b60008051602062000f27833981519152146200008657620000866200065e565b6200009482826000620000fb565b50620000c4905060017fb53127684a568b3173ae13b9f8a6016e243e63b6e8ee1178d6a717850b5d610462000609565b60008051602062000f0783398151915214620000e457620000e46200065e565b620000ef8262000138565b5050505050506200068a565b620001068362000193565b600082511180620001145750805b156200013357620001318383620001d560201b6200028a1760201c565b505b505050565b7f7e644d79422f17c01e4894b5f4f588d331ebfa28653d42ae832dc59e38c9798f6200016362000204565b604080516001600160a01b03928316815291841660208301520160405180910390a162000190816200023d565b50565b6200019e81620002f2565b6040516001600160a01b038216907fbc7cd75a20ee27fd9adebab32041f755214dbc6bffa90cc0225b39da2e5c2d3b90600090a250565b6060620001fd838360405180606001604052806027815260200162000f476027913962000395565b9392505050565b60006200022e60008051602062000f0783398151915260001b6200047260201b620002281760201c565b546001600160a01b0316919050565b6001600160a01b038116620002a85760405162461bcd60e51b815260206004820152602660248201527f455243313936373a206e65772061646d696e20697320746865207a65726f206160448201526564647265737360d01b60648201526084015b60405180910390fd5b80620002d160008051602062000f0783398151915260001b6200047260201b620002281760201c565b80546001600160a01b0319166001600160a01b039290921691909117905550565b62000308816200047560201b620002b61760201c565b6200036c5760405162461bcd60e51b815260206004820152602d60248201527f455243313936373a206e657720696d706c656d656e746174696f6e206973206e60448201526c1bdd08184818dbdb9d1c9858dd609a1b60648201526084016200029f565b80620002d160008051602062000f2783398151915260001b6200047260201b620002281760201c565b6060833b620003f65760405162461bcd60e51b815260206004820152602660248201527f416464726573733a2064656c65676174652063616c6c20746f206e6f6e2d636f6044820152651b9d1c9858dd60d21b60648201526084016200029f565b600080856001600160a01b031685604051620004139190620005b6565b600060405180830381855af49150503d806000811462000450576040519150601f19603f3d011682016040523d82523d6000602084013e62000455565b606091505b509092509050620004688282866200047b565b9695505050505050565b90565b3b151590565b606083156200048c575081620001fd565b8251156200049d5782518084602001fd5b8160405162461bcd60e51b81526004016200029f9190620005d4565b80516001600160a01b0381168114620004d157600080fd5b919050565b600080600060608486031215620004ec57600080fd5b620004f784620004b9565b92506200050760208501620004b9565b60408501519092506001600160401b03808211156200052557600080fd5b818601915086601f8301126200053a57600080fd5b8151818111156200054f576200054f62000674565b604051601f8201601f19908116603f011681019083821181831017156200057a576200057a62000674565b816040528281528960208487010111156200059457600080fd5b620005a78360208301602088016200062f565b80955050505050509250925092565b60008251620005ca8184602087016200062f565b9190910192915050565b6020815260008251806020840152620005f58160408501602087016200062f565b601f01601f19169190910160400192915050565b6000828210156200062a57634e487b7160e01b600052601160045260246000fd5b500390565b60005b838110156200064c57818101518382015260200162000632565b83811115620001315750506000910152565b634e487b7160e01b600052600160045260246000fd5b634e487b7160e01b600052604160045260246000fd5b61086d806200069a6000396000f3fe6080604052600436106100595760003560e01c80633659cfe6146100705780634f1ef286146100905780635c60da1b146100a35780638f283970146100d4578063dc4ff913146100f4578063f851a4401461010957610068565b366100685761006661011e565b005b61006661011e565b34801561007c57600080fd5b5061006661008b3660046106b8565b610138565b61006661009e3660046106d3565b61017f565b3480156100af57600080fd5b506100b86101f0565b6040516001600160a01b03909116815260200160405180910390f35b3480156100e057600080fd5b506100666100ef3660046106b8565b61022b565b34801561010057600080fd5b506100b8610255565b34801561011557600080fd5b506100b861025f565b6101266102bc565b61013661013161035b565b610365565b565b610140610389565b6001600160a01b0316336001600160a01b0316141561017757610174816040518060200160405280600081525060006103aa565b50565b61017461011e565b610187610389565b6001600160a01b0316336001600160a01b031614156101e8576101e38383838080601f016020809104026020016040519081016040528093929190818152602001838380828437600092019190915250600192506103aa915050565b505050565b6101e361011e565b60006101fa610389565b6001600160a01b0316336001600160a01b031614156102205761021b61035b565b905090565b61022861011e565b90565b610233610389565b6001600160a01b0316336001600160a01b0316141561017757610174816103d5565b600061021b61035b565b6000610269610389565b6001600160a01b0316336001600160a01b031614156102205761021b610389565b60606102af838360405180606001604052806027815260200161081160279139610429565b9392505050565b3b151590565b6102c4610389565b6001600160a01b0316336001600160a01b031614156101365760405162461bcd60e51b815260206004820152604260248201527f5472616e73706172656e745570677261646561626c6550726f78793a2061646d60448201527f696e2063616e6e6f742066616c6c6261636b20746f2070726f78792074617267606482015261195d60f21b608482015260a4015b60405180910390fd5b600061021b6104fd565b3660008037600080366000845af43d6000803e808015610384573d6000f35b3d6000fd5b60006000805160206107d18339815191525b546001600160a01b0316919050565b6103b383610513565b6000825111806103c05750805b156101e3576103cf838361028a565b50505050565b7f7e644d79422f17c01e4894b5f4f588d331ebfa28653d42ae832dc59e38c9798f6103fe610389565b604080516001600160a01b03928316815291841660208301520160405180910390a161017481610553565b6060833b6104885760405162461bcd60e51b815260206004820152602660248201527f416464726573733a2064656c65676174652063616c6c20746f206e6f6e2d636f6044820152651b9d1c9858dd60d21b6064820152608401610352565b600080856001600160a01b0316856040516104a39190610755565b600060405180830381855af49150503d80600081146104de576040519150601f19603f3d011682016040523d82523d6000602084013e6104e3565b606091505b50915091506104f38282866105ea565b9695505050505050565b60006000805160206107f183398151915261039b565b61051c81610623565b6040516001600160a01b038216907fbc7cd75a20ee27fd9adebab32041f755214dbc6bffa90cc0225b39da2e5c2d3b90600090a250565b6001600160a01b0381166105b85760405162461bcd60e51b815260206004820152602660248201527f455243313936373a206e65772061646d696e20697320746865207a65726f206160448201526564647265737360d01b6064820152608401610352565b806000805160206107d18339815191525b80546001600160a01b0319166001600160a01b039290921691909117905550565b606083156105f95750816102af565b8251156106095782518084602001fd5b8160405162461bcd60e51b81526004016103529190610771565b803b6106875760405162461bcd60e51b815260206004820152602d60248201527f455243313936373a206e657720696d706c656d656e746174696f6e206973206e60448201526c1bdd08184818dbdb9d1c9858dd609a1b6064820152608401610352565b806000805160206107f18339815191526105c9565b80356001600160a01b03811681146106b357600080fd5b919050565b6000602082840312156106ca57600080fd5b6102af8261069c565b6000806000604084860312156106e857600080fd5b6106f18461069c565b925060208401356001600160401b038082111561070d57600080fd5b818601915086601f83011261072157600080fd5b81358181111561073057600080fd5b87602082850101111561074257600080fd5b6020830194508093505050509250925092565b600082516107678184602087016107a4565b9190910192915050565b60208152600082518060208401526107908160408501602087016107a4565b601f01601f19169190910160400192915050565b60005b838110156107bf5781810151838201526020016107a7565b838111156103cf575050600091015256feb53127684a568b3173ae13b9f8a6016e243e63b6e8ee1178d6a717850b5d6103360894a13ba1a3210667c828492db98dca3e2076cc3735a920a3ca505d382bbc416464726573733a206c6f772d6c6576656c2064656c65676174652063616c6c206661696c6564a2646970667358221220e6fba2d0e94b2641941d0ecef7b137afb7096ffa81536866b154f8b10e59e39164736f6c63430008070033b53127684a568b3173ae13b9f8a6016e243e63b6e8ee1178d6a717850b5d6103360894a13ba1a3210667c828492db98dca3e2076cc3735a920a3ca505d382bbc416464726573733a206c6f772d6c6576656c2064656c65676174652063616c6c206661696c6564",
  "immutableReferences": {},
  "source": "// SPDX-License-Identifier: GPL-3.0\r\n\r\npragma solidity >=0.7.0 <0.9.0;\r\n\r\n/**\r\n * @title Storage\r\n * @dev Store & retrieve value in a variable\r\n */\r\n\r\nimport \"@openzeppelin/contracts/proxy/transparent/TransparentUpgradeableProxy.sol\";\r\n\r\n\r\ncontract GenericProxy is TransparentUpgradeableProxy{\r\n\r\n    // CONSTRUCTOR /////////////////////////////////////////\r\n    constructor(address GenericCodeContractAddress, address managerContractAddress, bytes memory data)\r\n        TransparentUpgradeableProxy(GenericCodeContractAddress, managerContractAddress, data) \r\n    {}\r\n\r\n    // CUSTOMIZATION /////////////////////////////////////////\r\n    function retrieveImplementation() external view returns (address) {\r\n        return _implementation();\r\n    }\r\n\r\n}",
  "sourcePath": "C:\\Users\\d-aam\\GitHub\\Certificates\\contracts\\DeployedContracts\\Proxies\\GenericProxy.sol",
  "compiler": {
    "name": "solc",
    "version": "0.8.7+commit.e28d00a7.Emscripten.clang"
  },
  "schemaVersion": "3.3.4",
  "updatedAt": "2021-08-17T09:26:52.123Z",
  "devdoc": {
    "kind": "dev",
    "methods": {
      "admin()": {
        "details": "Returns the current admin. NOTE: Only the admin can call this function. See {ProxyAdmin-getProxyAdmin}. TIP: To get this value clients can read directly from the storage slot shown below (specified by EIP1967) using the https://eth.wiki/json-rpc/API#eth_getstorageat[`eth_getStorageAt`] RPC call. `0xb53127684a568b3173ae13b9f8a6016e243e63b6e8ee1178d6a717850b5d6103`"
      },
      "changeAdmin(address)": {
        "details": "Changes the admin of the proxy. Emits an {AdminChanged} event. NOTE: Only the admin can call this function. See {ProxyAdmin-changeProxyAdmin}."
      },
      "implementation()": {
        "details": "Returns the current implementation. NOTE: Only the admin can call this function. See {ProxyAdmin-getProxyImplementation}. TIP: To get this value clients can read directly from the storage slot shown below (specified by EIP1967) using the https://eth.wiki/json-rpc/API#eth_getstorageat[`eth_getStorageAt`] RPC call. `0x360894a13ba1a3210667c828492db98dca3e2076cc3735a920a3ca505d382bbc`"
      },
      "upgradeTo(address)": {
        "details": "Upgrade the implementation of the proxy. NOTE: Only the admin can call this function. See {ProxyAdmin-upgrade}."
      },
      "upgradeToAndCall(address,bytes)": {
        "details": "Upgrade the implementation of the proxy, and then call a function from the new implementation as specified by `data`, which should be an encoded function call. This is useful to initialize new storage variables in the proxied contract. NOTE: Only the admin can call this function. See {ProxyAdmin-upgradeAndCall}."
      }
    },
    "version": 1
  },
  "userdoc": {
    "kind": "user",
    "methods": {},
    "version": 1
  }
}