{
  "contractName": "ItemsLibrary",
  "abi": [
    {
      "anonymous": false,
      "inputs": [
        {
          "indexed": false,
          "internalType": "string",
          "name": "ItemType",
          "type": "string"
        },
        {
          "indexed": true,
          "internalType": "bytes32",
          "name": "Item",
          "type": "bytes32"
        },
        {
          "indexed": false,
          "internalType": "string",
          "name": "Info",
          "type": "string"
        }
      ],
      "name": "_AddItemRejection",
      "type": "event"
    },
    {
      "anonymous": false,
      "inputs": [
        {
          "indexed": false,
          "internalType": "string",
          "name": "ItemType",
          "type": "string"
        },
        {
          "indexed": true,
          "internalType": "bytes32",
          "name": "Item",
          "type": "bytes32"
        },
        {
          "indexed": false,
          "internalType": "string",
          "name": "Info",
          "type": "string"
        }
      ],
      "name": "_AddItemValidation",
      "type": "event"
    },
    {
      "anonymous": false,
      "inputs": [
        {
          "indexed": false,
          "internalType": "string",
          "name": "ItemType",
          "type": "string"
        },
        {
          "indexed": true,
          "internalType": "bytes32",
          "name": "Item",
          "type": "bytes32"
        },
        {
          "indexed": false,
          "internalType": "string",
          "name": "Info",
          "type": "string"
        }
      ],
      "name": "_RemoveItemRejection",
      "type": "event"
    },
    {
      "anonymous": false,
      "inputs": [
        {
          "indexed": false,
          "internalType": "string",
          "name": "ItemType",
          "type": "string"
        },
        {
          "indexed": true,
          "internalType": "bytes32",
          "name": "Item",
          "type": "bytes32"
        },
        {
          "indexed": false,
          "internalType": "string",
          "name": "Info",
          "type": "string"
        }
      ],
      "name": "_RemoveItemValidation",
      "type": "event"
    },
    {
      "inputs": [
        {
          "internalType": "uint256",
          "name": "signatures",
          "type": "uint256"
        },
        {
          "internalType": "uint256",
          "name": "minSignatures",
          "type": "uint256"
        }
      ],
      "name": "CheckValidations",
      "outputs": [
        {
          "internalType": "bool",
          "name": "",
          "type": "bool"
        }
      ],
      "stateMutability": "pure",
      "type": "function",
      "constant": true
    },
    {
      "inputs": [
        {
          "components": [
            {
              "internalType": "bytes32",
              "name": "item",
              "type": "bytes32"
            },
            {
              "internalType": "string",
              "name": "info",
              "type": "string"
            },
            {
              "internalType": "uint256",
              "name": "_minSignatures",
              "type": "uint256"
            },
            {
              "internalType": "string",
              "name": "ItemTypeLabel",
              "type": "string"
            },
            {
              "internalType": "uint256[]",
              "name": "ids",
              "type": "uint256[]"
            }
          ],
          "internalType": "struct ItemsLibrary._manipulateItemStruct",
          "name": "manipulateItemstruct",
          "type": "tuple"
        }
      ],
      "name": "ReturnManipulateStructContent",
      "outputs": [
        {
          "internalType": "bytes32",
          "name": "",
          "type": "bytes32"
        },
        {
          "internalType": "uint256",
          "name": "",
          "type": "uint256"
        },
        {
          "internalType": "string",
          "name": "",
          "type": "string"
        },
        {
          "internalType": "uint256[]",
          "name": "",
          "type": "uint256[]"
        }
      ],
      "stateMutability": "pure",
      "type": "function",
      "constant": true
    }
  ],
  "bytecode": "0x611c0e61003a600b82828239805160001a60731461002d57634e487b7160e01b600052600060045260246000fd5b30600052607381538281f3fe73000000000000000000000000000000000000000030146080604052600436106101105760003560e01c806226d76614610115578063064d12b51461013d578063064e6e7e146101525780630b985aaa146101655780631aeccc6a14610185578063207c4427146101a557806327724f4b146101c55780632854ed2e146101e55780633dac2dd2146101f85780635cb09bcf1461021b5780636e088cc71461023b5780637493a70b1461025b5780637b6d23de1461027b5780638225579b1461028e57806389b9b541146102ae578063c8eee74e146102c1578063d03be638146102d4578063dbdfbeec146102e7578063e035e006146102fa578063e23fcdef1461030d578063f6001d7d1461032d575b600080fd5b6101286101233660046116b9565b610340565b60405190151581526020015b60405180910390f35b61015061014b3660046116b9565b6103aa565b005b6101506101603660046116b9565b6103fb565b81801561017157600080fd5b50610150610180366004611728565b610454565b6101986101933660046116b9565b6104de565b6040516101349190611a39565b8180156101b157600080fd5b506101506101c03660046116b9565b6106be565b6101d86101d33660046116db565b610785565b6040516101349190611869565b6101286101f33660046116b9565b6107e1565b61020b6102063660046116f4565b61082c565b6040516101349493929190611906565b81801561022757600080fd5b50610150610236366004611728565b610844565b81801561024757600080fd5b506101506102563660046116b9565b610b67565b81801561026757600080fd5b50610150610276366004611728565b610bb3565b61012861028936600461161d565b610f31565b81801561029a57600080fd5b506101506102a936600461166d565b611074565b6101506102bc36600461161d565b61114e565b6101506102cf3660046116b9565b611194565b6101506102e23660046116b9565b6111e6565b6101286102f53660046116b9565b611226565b6101d861030836600461168d565b61123c565b81801561031957600080fd5b50610150610328366004611728565b6112fc565b61012861033b3660046116b9565b61135b565b600082815260208290526040812060030154600283015411156103a057600083815260208390526040902060030154600283018054909190811061038657610386611b9e565b90600052602060002001548314156103a0575060016103a4565b5060005b92915050565b6103b48282611226565b15156001146103f75760405162461bcd60e51b81526004016103ee906020808252600490820152634543372d60e01b604082015260600190565b60405180910390fd5b5050565b6104058282610340565b151560011480610420575061041a82826107e1565b15156001145b6103f75760405162461bcd60e51b8152602060048201526005602482015264454332382d60d81b60448201526064016103ee565b825161046090836111e6565b825161046c9083611194565b8251602080850151600083815285835260409020815191926104919290840190611376565b506002840180546001818101835560008381526020902090910184905590546104ba9190611b12565b6000838152602086905260409020600301556104d7858585610bb3565b5050505050565b6105196040518060c0016040528060608152602001600015158152602001600081526020016000815260200160608152602001606081525090565b60008381526020839052604090819020815160c0810190925280548290829061054190611b63565b80601f016020809104026020016040519081016040528092919081815260200182805461056d90611b63565b80156105ba5780601f1061058f576101008083540402835291602001916105ba565b820191906000526020600020905b81548152906001019060200180831161059d57829003601f168201915b505050505081526020016001820160009054906101000a900460ff1615151515815260200160028201548152602001600382015481526020016004820180548060200260200160405190810160405280929190818152602001828054801561064b57602002820191906000526020600020905b81546001600160a01b0316815260019091019060200180831161062d575b50505050508152602001600582018054806020026020016040519081016040528092919081815260200182805480156106ad57602002820191906000526020600020905b81546001600160a01b0316815260019091019060200180831161068f575b505050505081525050905092915050565b60008281526020829052604090819020600201549051637277ce1960e11b8152600481018290526001830160248201819052919073__Library_______________________________9063e4ef9c329060440160006040518083038186803b15801561072957600080fd5b505af415801561073d573d6000803e3d6000fd5b50508354831015915061077f905057600082828154811061076057610760611b9e565b6000918252602080832090910154825285905260409020600201829055505b50505050565b6060816001018054806020026020016040519081016040528092919081815260200182805480156107d557602002820191906000526020600020905b8154815260200190600101908083116107c1575b50505050509050919050565b60008281526020829052604081206003908101549083015411156103a05781600301826000016000858152602001908152602001600020600301548154811061038657610386611b9e565b80516040820151606083015160808401519193509193565b825161085090836103fb565b61085f3384600001518461114e565b60008060008061086e8761082c565b600084815260208b815260408220600501805460018101825581845291832090910180546001600160a01b031916331790559085905254939750919550935091506108b9908461135b565b15610b5e576108c88487610340565b15610a3c576108d960018588611074565b600080866001600160a01b0316868460016040516024016108fc939291906118ad565b60408051601f198184030181529181526020820180516001600160e01b0316633fd0718160e01b1790525161093191906117ee565b6000604051808303816000865af19150503d806000811461096e576040519150601f19603f3d011682016040523d82523d6000602084013e610973565b606091505b50915091508181906109985760405162461bcd60e51b81526004016103ee9190611968565b5060008681526020899052604090819020905187917f54b570d1f49da5a541163492680b5d458d7394bd913058973d58c83787e7b1af916109da91889161197b565b60405180910390a26000868152602089905260408120906109fb82826113fa565b60018201805460ff1916905560006002830181905560038301819055610a25906004840190611437565b610a33600583016000611437565b50505050610b5e565b610a4860008588611074565b600080866001600160a01b031686846000604051602401610a6b939291906118ad565b60408051601f198184030181529181526020820180516001600160e01b0316633fd0718160e01b17905251610aa091906117ee565b6000604051808303816000865af19150503d8060008114610add576040519150601f19603f3d011682016040523d82523d6000602084013e610ae2565b606091505b5091509150818190610b075760405162461bcd60e51b81526004016103ee9190611968565b50610b128689610b67565b60008681526020899052604090819020905187917fe89687f0c26a809a947b2c0e0df6af4f18066aab08e8c6a5c67bb816c3b250ca91610b5391889161197b565b60405180910390a250505b50505050505050565b6000828152602082905260408120610b8491600590910190611437565b6000828152602082905260408120610ba191600490910190611437565b60009182526020526040812060030155565b8251610bbf90836103fb565b610bce3384600001518461114e565b600080600080610bdd8761082c565b600084815260208b815260408220600401805460018101825581845291832090910180546001600160a01b03191633179055908590525493975091955093509150610c28908461135b565b15610b5e57610c378487610340565b15610db45760008481526020878152604082206001908101805460ff19168217905588810180548083018255818552929093209091018690559054610c7c9190611b12565b600085815260208890526040902060020155610c9a60018588611074565b600080866001600160a01b031686846001604051602401610cbd939291906118ad565b60408051601f198184030181529181526020820180516001600160e01b0316637c8c2add60e01b17905251610cf291906117ee565b6000604051808303816000865af19150503d8060008114610d2f576040519150601f19603f3d011682016040523d82523d6000602084013e610d34565b606091505b5091509150818190610d595760405162461bcd60e51b81526004016103ee9190611968565b50610d648689610b67565b60008681526020899052604090819020905187917f78affcbd9eae81f6f814ad113a0530fe7251494185b89753505ab3529e8f697191610da591889161197b565b60405180910390a25050610b5e565b610dbe84876106be565b610dca60008588611074565b600080866001600160a01b031686846000604051602401610ded939291906118ad565b60408051601f198184030181529181526020820180516001600160e01b0316637c8c2add60e01b17905251610e2291906117ee565b6000604051808303816000865af19150503d8060008114610e5f576040519150601f19603f3d011682016040523d82523d6000602084013e610e64565b606091505b5091509150818190610e895760405162461bcd60e51b81526004016103ee9190611968565b5060008681526020899052604090819020905187917fe3ca55e2b495b3586f7b93152cce47df5bebef16d327f330c0e28f9348d9e6b391610ecb91889161197b565b60405180910390a2600086815260208990526040812090610eec82826113fa565b60018201805460ff1916905560006002830181905560038301819055610f16906004840190611437565b610f24600583016000611437565b5050505050505050505050565b600082815260208290526040808220905163f7cf62d760e01b815273__AddressLibrary________________________9163f7cf62d791610f7a9188916004918201910161180a565b60206040518083038186803b158015610f9257600080fd5b505af4158015610fa6573d6000803e3d6000fd5b505050506040513d601f19601f82011682018060405250810190610fca9190611650565b8061106c575060008381526020839052604090819020905163f7cf62d760e01b815273__AddressLibrary________________________9163f7cf62d79161101c91889160059091019060040161180a565b60206040518083038186803b15801561103457600080fd5b505af4158015611048573d6000803e3d6000fd5b505050506040513d601f19601f8201168201806040525081019061106c9190611650565b949350505050565b6000836110845781600301611089565b816002015b60008481526020849052604090819020600301549051637277ce1960e11b815260048101829052602481018390529192509073__Library_______________________________9063e4ef9c329060440160006040518083038186803b1580156110f257600080fd5b505af4158015611106573d6000803e3d6000fd5b5050835483101591506104d7905057600082828154811061112957611129611b9e565b6000918252602080832090910154825285905260409020600301829055505050505050565b611159838383610f31565b1561118f5760405162461bcd60e51b81526004016103ee906020808252600490820152634543352d60e01b604082015260600190565b505050565b61119e8282610340565b1580156111b257506111b082826107e1565b155b6103f75760405162461bcd60e51b8152602060048201526005602482015264454332372d60d81b60448201526064016103ee565b6111f08282611226565b156103f75760405162461bcd60e51b81526004016103ee906020808252600490820152634543362d60e01b604082015260600190565b6000918252602052604090206001015460ff1690565b606080831561129f578260020180548060200260200160405190810160405280929190818152602001828054801561129357602002820191906000526020600020905b81548152602001906001019080831161127f575b505050505090506112f5565b826003018054806020026020016040519081016040528092919081815260200182805480156112ed57602002820191906000526020600020905b8154815260200190600101908083116112d9575b505050505090505b9392505050565b825161130890836103aa565b82516113149083611194565b825160038301805460018181018355600083815260209020909101839055905461133e9190611b12565b60008281526020859052604090206003015561077f848484610bb3565b60008183101561136d575060006103a4565b50600192915050565b82805461138290611b63565b90600052602060002090601f0160209004810192826113a457600085556113ea565b82601f106113bd57805160ff19168380011785556113ea565b828001600101855582156113ea579182015b828111156113ea5782518255916020019190600101906113cf565b506113f6929150611451565b5090565b50805461140690611b63565b6000825580601f10611416575050565b601f0160209004906000526020600020908101906114349190611451565b50565b508054600082559060005260206000209081019061143491905b5b808211156113f65760008155600101611452565b80356001600160a01b038116811461147d57600080fd5b919050565b600082601f83011261149357600080fd5b813560206001600160401b038211156114ae576114ae611bb4565b8160051b6114bd828201611ae2565b8381528281019086840183880185018910156114d857600080fd5b600093505b858410156114fb5780358352600193909301929184019184016114dd565b50979650505050505050565b600082601f83011261151857600080fd5b81356001600160401b0381111561153157611531611bb4565b611544601f8201601f1916602001611ae2565b81815284602083860101111561155957600080fd5b816020850160208301376000918101602001919091529392505050565b600060a0828403121561158857600080fd5b611590611aba565b82358152905060208201356001600160401b03808211156115b057600080fd5b6115bc85838601611507565b60208401526040840135604084015260608401359150808211156115df57600080fd5b6115eb85838601611507565b6060840152608084013591508082111561160457600080fd5b5061161184828501611482565b60808301525092915050565b60008060006060848603121561163257600080fd5b61163b84611466565b95602085013595506040909401359392505050565b60006020828403121561166257600080fd5b81516112f581611bca565b60008060006060848603121561168257600080fd5b833561163b81611bca565b600080604083850312156116a057600080fd5b82356116ab81611bca565b946020939093013593505050565b600080604083850312156116cc57600080fd5b50508035926020909101359150565b6000602082840312156116ed57600080fd5b5035919050565b60006020828403121561170657600080fd5b81356001600160401b0381111561171c57600080fd5b61106c84828501611576565b60008060006060848603121561173d57600080fd5b83356001600160401b0381111561175357600080fd5b61175f86828701611576565b9350506020840135915061177560408501611466565b90509250925092565b600081518084526020808501945080840160005b838110156117b75781516001600160a01b031687529582019590820190600101611792565b509495945050505050565b600081518084526117da816020860160208601611b37565b601f01601f19169290920160200192915050565b60008251611800818460208701611b37565b9190910192915050565b60006040820160018060a01b03808616845260206040818601528286548085526060870191508760005282600020945060005b8181101561185b57855485168352600195860195928401920161183d565b509098975050505050505050565b6020808252825182820181905260009190848201906040850190845b818110156118a157835183529284019291840191600101611885565b50909695505050505050565b6000606082018583526020606081850152818651808452608086019150828801935060005b818110156118ee578451835293830193918301916001016118d2565b50508093505050508215156040830152949350505050565b8481526000602085818401526080604084015261192660808401866117c2565b838103606085015284518082528286019183019060005b818110156119595783518352928401929184019160010161193d565b50909998505050505050505050565b6020815260006112f560208301846117c2565b60408152600061198e60408301856117c2565b6020838203818501526000855481600182811c9150808316806119b257607f831692505b8583108114156119d057634e487b7160e01b85526022600452602485fd5b8287526020870196508080156119ed57600181146119fe57611a29565b60ff19851688528688019550611a29565b60008b81526020902060005b85811015611a235781548a820152908401908801611a0a565b89019650505b50939a9950505050505050505050565b602081526000825160c06020840152611a5560e08401826117c2565b905060208401511515604084015260408401516060840152606084015160808401526080840151601f19808584030160a0860152611a93838361177e565b925060a08601519150808584030160c086015250611ab1828261177e565b95945050505050565b60405160a081016001600160401b0381118282101715611adc57611adc611bb4565b60405290565b604051601f8201601f191681016001600160401b0381118282101715611b0a57611b0a611bb4565b604052919050565b600082821015611b3257634e487b7160e01b600052601160045260246000fd5b500390565b60005b83811015611b52578181015183820152602001611b3a565b8381111561077f5750506000910152565b600181811c90821680611b7757607f821691505b60208210811415611b9857634e487b7160e01b600052602260045260246000fd5b50919050565b634e487b7160e01b600052603260045260246000fd5b634e487b7160e01b600052604160045260246000fd5b801515811461143457600080fdfea26469706673582212205a889a14d74645c3d38e451322032141f065581ccc9e0f530f481444d8bd876464736f6c63430008070033",
  "immutableReferences": {},
  "source": "// SPDX-License-Identifier: GPL-3.0\r\n\r\npragma solidity 0.8.7;\r\n\r\n/*\r\nCommon functionality for all Items\r\n  Items -> Certificate & Entities(Owners & Providers & Pools)\r\n    Item Identity : \r\n       - activated : Item is activated (true/false)\r\n       - info : Item info\r\n       - id : Item id (only is item is activated)\r\n       - pendingId : Item id in activation/deletion pending list (only if item is been added or removed)\r\n       - validations[] : List of address that validated the item (accepted its activation or deletion)\r\n       - rejections[] : List of address that rejected the item (rejected its activation or deletion)\r\n    Items structure:\r\n        - mapping bytes32 to Item identity\r\n        - List of currently activated items (id -> to reference from item identity)\r\n        - List of currently pending Items to be activated (pendingId -> to reference from item identity)\r\n        - List of currently pending Items to be deleted (pendingId -> to reference from item identity)\r\n\r\nFunctionality (with basic security check)\r\n    - Add Item\r\n    - Remove Item\r\n    - Validate Item creation/removal\r\n    - Reject Item creation/removal\r\n  \r\n  Events : \r\n  Item Type(string) - Item(bytes32) - Item info(string)\r\n    - Item activation validated\r\n    - Item activation rejected\r\n    - Item deletion validated\r\n    - Item deletion rejected\r\n  \r\n */\r\n\r\nimport \"./Library.sol\";\r\nimport \"../Libraries/AddressLibrary.sol\";\r\n\r\nlibrary ItemsLibrary{\r\n    using AddressLibrary for *;\r\n    using Library for *;\r\n\r\n    // EVENTS /////////////////////////////////////////\r\n    event _AddItemValidation(string ItemType,  bytes32 indexed Item,  string Info);\r\n    event _RemoveItemValidation(string ItemType,  bytes32 indexed Item,  string Info);\r\n    event _AddItemRejection(string ItemType,  bytes32 indexed Item,  string Info);\r\n    event _RemoveItemRejection( string ItemType,  bytes32 indexed Item,  string Info);\r\n\r\n    // FUNCTIONS for MODIFIERS /////////////////////////////////////////\r\n    function ItemNotActivated(bytes32 item, _ItemsStruct storage itemStruct) public view {\r\n        require(false == isItem(item, itemStruct), \"EC6-\");\r\n    }\r\n\r\n    function ItemActivated(bytes32 item, _ItemsStruct storage itemStruct) public view {\r\n        require(true == isItem(item, itemStruct), \"EC7-\");\r\n    }\r\n\r\n    function ItemNotPending(bytes32 item, _ItemsStruct storage itemStruct) public view{\r\n        require(false == isItemPendingToAdded(item, itemStruct) && \r\n                false == isItemPendingToRemoved(item, itemStruct), \"EC27-\");\r\n    }\r\n\r\n    function ItemPending(bytes32 item, _ItemsStruct storage itemStruct) public view{\r\n        require(true == isItemPendingToAdded(item, itemStruct) ||\r\n                true == isItemPendingToRemoved(item, itemStruct), \"EC28-\");\r\n    }\r\n\r\n    function HasNotAlreadyVoted(address addr, bytes32 item, _ItemsStruct storage itemStruct) public view{\r\n        require(false == hasVoted(addr, item, itemStruct), \"EC5-\");\r\n    }\r\n    \r\n    // DATA /////////////////////////////////////////\r\n    struct _itemIdentity{\r\n        string _Info;\r\n        bool _activated;\r\n        uint _id;\r\n        uint _pendingId;\r\n        address[] _Validations;\r\n        address[] _Rejections;\r\n    }\r\n\r\n    struct _ItemsStruct{\r\n        mapping(bytes32 => _itemIdentity) _items;\r\n        bytes32[] _activatedItems;\r\n        bytes32[] _pendingItemsAdd;\r\n        bytes32[] _pendingItemsRemove;\r\n    }\r\n\r\n    // structured used as input parameter for CRUD functions\r\n    struct _manipulateItemStruct{\r\n        bytes32 item;\r\n        string info;\r\n        uint256 _minSignatures;\r\n        string ItemTypeLabel; // Certificate, owner, provider, pool\r\n        uint[] ids; // Ids that will be returned to callback when item activation/deletion has been validated/rejected \r\n    }\r\n\r\n    \r\n    // AUX FUNCTIONALITY /////////////////////////////////////////\r\n    function CheckValidations(uint256 signatures, uint256 minSignatures) public pure returns(bool){\r\n        if(signatures < minSignatures) return false;\r\n        return true;\r\n    }\r\n\r\n    function ReturnManipulateStructContent(_manipulateItemStruct memory manipulateItemstruct) public pure returns(bytes32, uint, string memory, uint[] memory)\r\n    {\r\n        return(manipulateItemstruct.item,\r\n         manipulateItemstruct._minSignatures,\r\n         manipulateItemstruct.ItemTypeLabel,\r\n         manipulateItemstruct.ids);\r\n    }\r\n\r\n    function deleteVoters(bytes32 item, _ItemsStruct storage itemStruct) public{\r\n        delete(itemStruct._items[item]._Rejections);\r\n        delete(itemStruct._items[item]._Validations);\r\n        itemStruct._items[item]._pendingId = 0;\r\n    }\r\n\r\n    // Remove Item from array and resize (not keeping order) it reindexing the item that was moved\r\n    function RemoveResizePending(bool addOrRemove, bytes32 item, _ItemsStruct storage itemStruct) public\r\n    {\r\n        bytes32[] storage arrayToRemoveResize = (addOrRemove)? itemStruct._pendingItemsAdd : itemStruct._pendingItemsRemove;\r\n        uint position = itemStruct._items[item]._pendingId;\r\n\r\n        Library.ArrayRemoveResize(position, arrayToRemoveResize);\r\n\r\n        if(position < arrayToRemoveResize.length){\r\n            bytes32 ItemMoved = arrayToRemoveResize[position];\r\n            itemStruct._items[ItemMoved]._pendingId = position;\r\n        }\r\n\r\n    }\r\n\r\n    function RemoveResizeActivated(bytes32 item, _ItemsStruct storage itemStruct) public\r\n    {\r\n        bytes32[] storage arrayToRemoveResize = itemStruct._activatedItems;\r\n        uint position = itemStruct._items[item]._id;\r\n\r\n        Library.ArrayRemoveResize(position, arrayToRemoveResize);\r\n\r\n        if(position < arrayToRemoveResize.length){\r\n            bytes32 ItemMoved = arrayToRemoveResize[position];\r\n            itemStruct._items[ItemMoved]._id = position;\r\n        }\r\n\r\n    }\r\n\r\n    // MAIN FUNCTIONALITY /////////////////////////////////////////\r\n    function addItem(_manipulateItemStruct memory manipulateItemstruct, _ItemsStruct storage itemStruct, address callerContract) public\r\n    {\r\n        ItemNotActivated(manipulateItemstruct.item, itemStruct);\r\n        ItemNotPending(manipulateItemstruct.item, itemStruct);\r\n\r\n        bytes32 item = manipulateItemstruct.item;\r\n        string memory info = manipulateItemstruct.info;\r\n\r\n        itemStruct._items[item]._Info = info;\r\n        itemStruct._pendingItemsAdd.push(item);\r\n        itemStruct._items[item]._pendingId = itemStruct._pendingItemsAdd.length - 1;\r\n        \r\n        validateItem(manipulateItemstruct, itemStruct, callerContract);\r\n    }\r\n     \r\n    function removeItem(_manipulateItemStruct memory manipulateItemstruct, _ItemsStruct storage itemStruct, address callerContract) public\r\n    {\r\n        ItemActivated(manipulateItemstruct.item, itemStruct);\r\n        ItemNotPending(manipulateItemstruct.item, itemStruct);\r\n\r\n        bytes32 item = manipulateItemstruct.item;\r\n\r\n        itemStruct._pendingItemsRemove.push(item);\r\n        itemStruct._items[item]._pendingId = itemStruct._pendingItemsRemove.length - 1;\r\n\r\n        validateItem(manipulateItemstruct, itemStruct, callerContract);\r\n    }\r\n\r\n    function validateItem(_manipulateItemStruct memory manipulateItemstruct, _ItemsStruct storage itemStruct, address callerContract) public\r\n    {\r\n        ItemPending(manipulateItemstruct.item, itemStruct);\r\n        HasNotAlreadyVoted(msg.sender, manipulateItemstruct.item, itemStruct);\r\n\r\n        (bytes32 item, uint _minSignatures, string memory ItemTypeLabel, uint[] memory ids) = ReturnManipulateStructContent(manipulateItemstruct);\r\n\r\n        itemStruct._items[item]._Validations.push(msg.sender);\r\n\r\n        if(CheckValidations(itemStruct._items[item]._Validations.length, _minSignatures))\r\n        {\r\n            if(isItemPendingToAdded(item, itemStruct))\r\n            {\r\n                itemStruct._items[item]._activated = true; \r\n                itemStruct._activatedItems.push(item);\r\n                itemStruct._items[item]._id = itemStruct._activatedItems.length - 1;\r\n\r\n                RemoveResizePending(true, item, itemStruct);\r\n\r\n                (bool success, bytes memory data) = callerContract.call(abi.encodeWithSignature(\"onItemValidated(bytes32,uint256[],bool)\", item, ids, true));\r\n                require(success, string(data));\r\n                \r\n                deleteVoters(item, itemStruct);\r\n                emit _AddItemValidation(ItemTypeLabel, item, itemStruct._items[item]._Info);\r\n            }\r\n            else{\r\n                RemoveResizeActivated(item, itemStruct);\r\n                RemoveResizePending(false, item, itemStruct);\r\n\r\n                (bool success, bytes memory data) = callerContract.call(abi.encodeWithSignature(\"onItemValidated(bytes32,uint256[],bool)\", item, ids, false));\r\n                require(success, string(data));\r\n\r\n                emit _RemoveItemValidation(ItemTypeLabel, item, itemStruct._items[item]._Info);\r\n                delete(itemStruct._items[item]);\r\n            }   \r\n        }\r\n    }\r\n\r\n    function rejectItem(_manipulateItemStruct memory manipulateItemstruct, _ItemsStruct storage itemStruct, address callerContract) public\r\n    {\r\n        ItemPending(manipulateItemstruct.item, itemStruct);\r\n        HasNotAlreadyVoted(msg.sender, manipulateItemstruct.item, itemStruct);\r\n\r\n        (bytes32 item, uint _minSignatures, string memory ItemTypeLabel, uint[] memory ids) = ReturnManipulateStructContent(manipulateItemstruct);\r\n\r\n        itemStruct._items[item]._Rejections.push(msg.sender);\r\n\r\n        if(CheckValidations(itemStruct._items[item]._Rejections.length, _minSignatures))\r\n        {\r\n\r\n            if(isItemPendingToAdded(item, itemStruct))\r\n            {\r\n                RemoveResizePending(true, item, itemStruct);\r\n\r\n                (bool success, bytes memory data) = callerContract.call(abi.encodeWithSignature(\"onItemRejected(bytes32,uint256[],bool)\", item, ids, true)); \r\n                require(success, string(data));\r\n\r\n                emit _AddItemRejection(ItemTypeLabel, item, itemStruct._items[item]._Info);\r\n                delete(itemStruct._items[item]);\r\n            }\r\n            else\r\n            {\r\n                RemoveResizePending(false, item, itemStruct);\r\n\r\n                (bool success, bytes memory data) = callerContract.call(abi.encodeWithSignature(\"onItemRejected(bytes32,uint256[],bool)\", item, ids, false));\r\n                require(success, string(data));\r\n\r\n                deleteVoters(item, itemStruct);\r\n                emit _RemoveItemRejection(ItemTypeLabel, item, itemStruct._items[item]._Info);\r\n            }\r\n                \r\n        }\r\n    }\r\n\r\n\r\n    // READ Data\r\n\r\n    function isItem(bytes32 item, _ItemsStruct storage itemStruct) public view returns(bool){\r\n        return itemStruct._items[item]._activated;\r\n    }\r\n\r\n    function isItemPendingToAdded(bytes32 item, _ItemsStruct storage itemStruct) public view returns(bool)\r\n    {\r\n        if(itemStruct._pendingItemsAdd.length > itemStruct._items[item]._pendingId){\r\n            if(item == itemStruct._pendingItemsAdd[itemStruct._items[item]._pendingId]) return true;\r\n        }\r\n        return false;\r\n    }\r\n\r\n    function isItemPendingToRemoved(bytes32 item, _ItemsStruct storage itemStruct) public view returns(bool)\r\n    {\r\n        if(itemStruct._pendingItemsRemove.length > itemStruct._items[item]._pendingId){\r\n            if(item == itemStruct._pendingItemsRemove[itemStruct._items[item]._pendingId]) return true;\r\n        }\r\n        return false;\r\n    }\r\n\r\n    function retrievePendingItems(bool addORemove, _ItemsStruct storage itemStruct) public view returns (bytes32[] memory)\r\n    {\r\n        bytes32[] memory Items;\r\n\r\n        if(addORemove) Items = itemStruct._pendingItemsAdd;\r\n        else Items = itemStruct._pendingItemsRemove;\r\n        \r\n        return Items;\r\n    }\r\n\r\n    function retrieveItem(bytes32 item, _ItemsStruct storage itemStruct) public view returns (_itemIdentity memory) \r\n    {\r\n        return (itemStruct._items[item]);\r\n    }\r\n\r\n    function retrieveAllItems(_ItemsStruct storage itemStruct) public view returns (bytes32[] memory) \r\n    {\r\n        return itemStruct._activatedItems;\r\n    }\r\n\r\n    function hasVoted(address add, bytes32 item, _ItemsStruct storage itemStruct) public view returns (bool) \r\n    {\r\n        return (AddressLibrary.FindAddress(add, itemStruct._items[item]._Validations) ||\r\n                AddressLibrary.FindAddress(add, itemStruct._items[item]._Rejections));\r\n    }\r\n\r\n}",
  "sourcePath": "C:\\Users\\d-aam\\GitHub\\Certificates\\contracts\\Libraries\\ItemsLibrary.sol",
  "compiler": {
    "name": "solc",
    "version": "0.8.7+commit.e28d00a7.Emscripten.clang"
  },
  "schemaVersion": "3.3.4",
  "updatedAt": "2021-10-14T12:39:50.756Z",
  "networkType": "ethereum",
  "devdoc": {
    "kind": "dev",
    "methods": {},
    "version": 1
  },
  "userdoc": {
    "kind": "user",
    "methods": {},
    "version": 1
  }
}