{
  "contractName": "ItemsLibrary",
  "abi": [
    {
      "anonymous": false,
      "inputs": [
        {
          "indexed": false,
          "internalType": "string",
          "name": "ItemType",
          "type": "string"
        },
        {
          "indexed": true,
          "internalType": "bytes32",
          "name": "Item",
          "type": "bytes32"
        },
        {
          "indexed": false,
          "internalType": "string",
          "name": "Info",
          "type": "string"
        }
      ],
      "name": "_AddItemRejection",
      "type": "event"
    },
    {
      "anonymous": false,
      "inputs": [
        {
          "indexed": false,
          "internalType": "string",
          "name": "ItemType",
          "type": "string"
        },
        {
          "indexed": true,
          "internalType": "bytes32",
          "name": "Item",
          "type": "bytes32"
        },
        {
          "indexed": false,
          "internalType": "string",
          "name": "Info",
          "type": "string"
        }
      ],
      "name": "_AddItemValidation",
      "type": "event"
    },
    {
      "anonymous": false,
      "inputs": [
        {
          "indexed": false,
          "internalType": "string",
          "name": "ItemType",
          "type": "string"
        },
        {
          "indexed": true,
          "internalType": "bytes32",
          "name": "Item",
          "type": "bytes32"
        },
        {
          "indexed": false,
          "internalType": "string",
          "name": "Info",
          "type": "string"
        }
      ],
      "name": "_RemoveItemRejection",
      "type": "event"
    },
    {
      "anonymous": false,
      "inputs": [
        {
          "indexed": false,
          "internalType": "string",
          "name": "ItemType",
          "type": "string"
        },
        {
          "indexed": true,
          "internalType": "bytes32",
          "name": "Item",
          "type": "bytes32"
        },
        {
          "indexed": false,
          "internalType": "string",
          "name": "Info",
          "type": "string"
        }
      ],
      "name": "_RemoveItemValidation",
      "type": "event"
    },
    {
      "inputs": [
        {
          "internalType": "uint256",
          "name": "signatures",
          "type": "uint256"
        },
        {
          "internalType": "uint256",
          "name": "minSignatures",
          "type": "uint256"
        }
      ],
      "name": "CheckValidations",
      "outputs": [
        {
          "internalType": "bool",
          "name": "",
          "type": "bool"
        }
      ],
      "stateMutability": "pure",
      "type": "function"
    },
    {
      "inputs": [
        {
          "components": [
            {
              "internalType": "bytes32",
              "name": "item",
              "type": "bytes32"
            },
            {
              "internalType": "string",
              "name": "info",
              "type": "string"
            },
            {
              "internalType": "uint256",
              "name": "_minSignatures",
              "type": "uint256"
            },
            {
              "internalType": "string",
              "name": "ItemTypeLabel",
              "type": "string"
            },
            {
              "internalType": "uint256[]",
              "name": "ids",
              "type": "uint256[]"
            }
          ],
          "internalType": "struct ItemsLibrary._manipulateItemStruct",
          "name": "manipulateItemstruct",
          "type": "tuple"
        }
      ],
      "name": "ReturnManipulateStructContent",
      "outputs": [
        {
          "internalType": "bytes32",
          "name": "",
          "type": "bytes32"
        },
        {
          "internalType": "uint256",
          "name": "",
          "type": "uint256"
        },
        {
          "internalType": "string",
          "name": "",
          "type": "string"
        },
        {
          "internalType": "uint256[]",
          "name": "",
          "type": "uint256[]"
        }
      ],
      "stateMutability": "pure",
      "type": "function"
    }
  ],
  "bytecode": "0x611bee61003a600b82828239805160001a60731461002d57634e487b7160e01b600052600060045260246000fd5b30600052607381538281f3fe73000000000000000000000000000000000000000030146080604052600436106100d95760003560e01c806226d766146100de5780630b985aaa146101065780631aeccc6a14610128578063207c44271461014857806327724f4b146101685780632854ed2e146101885780633dac2dd21461019b5780635cb09bcf146101be5780636e088cc7146101de5780637493a70b146101fe5780637b6d23de1461021e5780638225579b14610231578063dbdfbeec14610251578063e035e00614610264578063e23fcdef14610277578063f6001d7d14610297575b600080fd5b6100f16100ec36600461163d565b6102aa565b60405190151581526020015b60405180910390f35b81801561011257600080fd5b506101266101213660046116ac565b610314565b005b61013b61013636600461163d565b610413565b6040516100fd9190611a19565b81801561015457600080fd5b5061012661016336600461163d565b6105f3565b61017b61017636600461165f565b6106ba565b6040516100fd91906117ed565b6100f161019636600461163d565b610716565b6101ae6101a9366004611678565b610761565b6040516100fd949392919061188a565b8180156101ca57600080fd5b506101266101d93660046116ac565b610779565b8180156101ea57600080fd5b506101266101f936600461163d565b610af4565b81801561020a57600080fd5b506101266102193660046116ac565b610b40565b6100f161022c3660046115a1565b610f16565b81801561023d57600080fd5b5061012661024c3660046115f1565b611059565b6100f161025f36600461163d565b611134565b61017b610272366004611611565b61114a565b81801561028357600080fd5b506101266102923660046116ac565b61120a565b6100f16102a536600461163d565b6112df565b6000828152602082905260408120600301546002830154111561030a5760008381526020839052604090206003015460028301805490919081106102f0576102f0611b7e565b906000526020600020015483141561030a5750600161030e565b5060005b92915050565b8251826103218282611134565b156103605760405162461bcd60e51b8152600401610357906020808252600490820152634543362d60e01b604082015260600190565b60405180910390fd5b84518461036d82826102aa565b158015610381575061037f8282610716565b155b61039d5760405162461bcd60e51b8152600401610357906119bd565b8651602080890151600083815289835260409020815191926103c292908401906112fa565b506002880180546001818101835560008381526020902090910184905590546103eb9190611af2565b600083815260208a90526040902060030155610408898989610b40565b505050505050505050565b61044e6040518060c0016040528060608152602001600015158152602001600081526020016000815260200160608152602001606081525090565b60008381526020839052604090819020815160c0810190925280548290829061047690611b43565b80601f01602080910402602001604051908101604052809291908181526020018280546104a290611b43565b80156104ef5780601f106104c4576101008083540402835291602001916104ef565b820191906000526020600020905b8154815290600101906020018083116104d257829003601f168201915b505050505081526020016001820160009054906101000a900460ff1615151515815260200160028201548152602001600382015481526020016004820180548060200260200160405190810160405280929190818152602001828054801561058057602002820191906000526020600020905b81546001600160a01b03168152600190910190602001808311610562575b50505050508152602001600582018054806020026020016040519081016040528092919081815260200182805480156105e257602002820191906000526020600020905b81546001600160a01b031681526001909101906020018083116105c4575b505050505081525050905092915050565b60008281526020829052604090819020600201549051637277ce1960e11b8152600481018290526001830160248201819052919073__Library_______________________________9063e4ef9c329060440160006040518083038186803b15801561065e57600080fd5b505af4158015610672573d6000803e3d6000fd5b5050835483101591506106b4905057600082828154811061069557610695611b7e565b6000918252602080832090910154825285905260409020600201829055505b50505050565b60608160010180548060200260200160405190810160405280929190818152602001828054801561070a57602002820191906000526020600020905b8154815260200190600101908083116106f6575b50505050509050919050565b600082815260208290526040812060039081015490830154111561030a578160030182600001600085815260200190815260200160002060030154815481106102f0576102f0611b7e565b80516040820151606083015160808401519193509193565b82518261078682826102aa565b1515600114806107a1575061079b8282610716565b15156001145b6107bd5760405162461bcd60e51b8152600401610357906119dc565b8451846107cb338383610f16565b156107e85760405162461bcd60e51b8152600401610357906119fb565b6000806000806107f78b610761565b600084815260208f815260408220600501805460018101825581845291832090910180546001600160a01b0319163317905590859052549397509195509350915061084290846112df565b15610ae757610851848b6102aa565b156109c5576108626001858c611059565b6000808a6001600160a01b03168684600160405160240161088593929190611831565b60408051601f198184030181529181526020820180516001600160e01b0316633fd0718160e01b179052516108ba9190611772565b6000604051808303816000865af19150503d80600081146108f7576040519150601f19603f3d011682016040523d82523d6000602084013e6108fc565b606091505b50915091508181906109215760405162461bcd60e51b815260040161035791906118ec565b50600086815260208d9052604090819020905187917f54b570d1f49da5a541163492680b5d458d7394bd913058973d58c83787e7b1af916109639188916118ff565b60405180910390a2600086815260208d90526040812090610984828261137e565b60018201805460ff19169055600060028301819055600383018190556109ae9060048401906113bb565b6109bc6005830160006113bb565b50505050610ae7565b6109d16000858c611059565b6000808a6001600160a01b0316868460006040516024016109f493929190611831565b60408051601f198184030181529181526020820180516001600160e01b0316633fd0718160e01b17905251610a299190611772565b6000604051808303816000865af19150503d8060008114610a66576040519150601f19603f3d011682016040523d82523d6000602084013e610a6b565b606091505b5091509150818190610a905760405162461bcd60e51b815260040161035791906118ec565b50610a9b868d610af4565b600086815260208d9052604090819020905187917fe89687f0c26a809a947b2c0e0df6af4f18066aab08e8c6a5c67bb816c3b250ca91610adc9188916118ff565b60405180910390a250505b5050505050505050505050565b6000828152602082905260408120610b11916005909101906113bb565b6000828152602082905260408120610b2e916004909101906113bb565b60009182526020526040812060030155565b825182610b4d82826102aa565b151560011480610b685750610b628282610716565b15156001145b610b845760405162461bcd60e51b8152600401610357906119dc565b845184610b92338383610f16565b15610baf5760405162461bcd60e51b8152600401610357906119fb565b600080600080610bbe8b610761565b600084815260208f815260408220600401805460018101825581845291832090910180546001600160a01b03191633179055908590525493975091955093509150610c0990846112df565b15610ae757610c18848b6102aa565b15610d9557600084815260208b8152604082206001908101805460ff1916821790558c810180548083018255818552929093209091018690559054610c5d9190611af2565b600085815260208c90526040902060020155610c7b6001858c611059565b6000808a6001600160a01b031686846001604051602401610c9e93929190611831565b60408051601f198184030181529181526020820180516001600160e01b0316637c8c2add60e01b17905251610cd39190611772565b6000604051808303816000865af19150503d8060008114610d10576040519150601f19603f3d011682016040523d82523d6000602084013e610d15565b606091505b5091509150818190610d3a5760405162461bcd60e51b815260040161035791906118ec565b50610d45868d610af4565b600086815260208d9052604090819020905187917f78affcbd9eae81f6f814ad113a0530fe7251494185b89753505ab3529e8f697191610d869188916118ff565b60405180910390a25050610ae7565b610d9f848b6105f3565b610dab6000858c611059565b6000808a6001600160a01b031686846000604051602401610dce93929190611831565b60408051601f198184030181529181526020820180516001600160e01b0316637c8c2add60e01b17905251610e039190611772565b6000604051808303816000865af19150503d8060008114610e40576040519150601f19603f3d011682016040523d82523d6000602084013e610e45565b606091505b5091509150818190610e6a5760405162461bcd60e51b815260040161035791906118ec565b50600086815260208d9052604090819020905187917fe3ca55e2b495b3586f7b93152cce47df5bebef16d327f330c0e28f9348d9e6b391610eac9188916118ff565b60405180910390a2600086815260208d90526040812090610ecd828261137e565b60018201805460ff1916905560006002830181905560038301819055610ef79060048401906113bb565b610f056005830160006113bb565b505050505050505050505050505050565b600082815260208290526040808220905163f7cf62d760e01b815273__AddressLibrary________________________9163f7cf62d791610f5f9188916004918201910161178e565b60206040518083038186803b158015610f7757600080fd5b505af4158015610f8b573d6000803e3d6000fd5b505050506040513d601f19601f82011682018060405250810190610faf91906115d4565b80611051575060008381526020839052604090819020905163f7cf62d760e01b815273__AddressLibrary________________________9163f7cf62d79161100191889160059091019060040161178e565b60206040518083038186803b15801561101957600080fd5b505af415801561102d573d6000803e3d6000fd5b505050506040513d601f19601f8201168201806040525081019061105191906115d4565b949350505050565b600083611069578160030161106e565b816002015b60008481526020849052604090819020600301549051637277ce1960e11b815260048101829052602481018390529192509073__Library_______________________________9063e4ef9c329060440160006040518083038186803b1580156110d757600080fd5b505af41580156110eb573d6000803e3d6000fd5b50508354831015915061112d905057600082828154811061110e5761110e611b7e565b6000918252602080832090910154825285905260409020600301829055505b5050505050565b6000918252602052604090206001015460ff1690565b60608083156111ad57826002018054806020026020016040519081016040528092919081815260200182805480156111a157602002820191906000526020600020905b81548152602001906001019080831161118d575b50505050509050611203565b826003018054806020026020016040519081016040528092919081815260200182805480156111fb57602002820191906000526020600020905b8154815260200190600101908083116111e7575b505050505090505b9392505050565b8251826112178282611134565b15156001146112515760405162461bcd60e51b8152600401610357906020808252600490820152634543372d60e01b604082015260600190565b84518461125e82826102aa565b15801561127257506112708282610716565b155b61128e5760405162461bcd60e51b8152600401610357906119bd565b86516003870180546001818101835560008381526020902090910183905590546112b89190611af2565b6000828152602089905260409020600301556112d5888888610b40565b5050505050505050565b6000818310156112f15750600061030e565b50600192915050565b82805461130690611b43565b90600052602060002090601f016020900481019282611328576000855561136e565b82601f1061134157805160ff191683800117855561136e565b8280016001018555821561136e579182015b8281111561136e578251825591602001919060010190611353565b5061137a9291506113d5565b5090565b50805461138a90611b43565b6000825580601f1061139a575050565b601f0160209004906000526020600020908101906113b891906113d5565b50565b50805460008255906000526020600020908101906113b891905b5b8082111561137a57600081556001016113d6565b80356001600160a01b038116811461140157600080fd5b919050565b600082601f83011261141757600080fd5b813560206001600160401b0382111561143257611432611b94565b8160051b611441828201611ac2565b83815282810190868401838801850189101561145c57600080fd5b600093505b8584101561147f578035835260019390930192918401918401611461565b50979650505050505050565b600082601f83011261149c57600080fd5b81356001600160401b038111156114b5576114b5611b94565b6114c8601f8201601f1916602001611ac2565b8181528460208386010111156114dd57600080fd5b816020850160208301376000918101602001919091529392505050565b600060a0828403121561150c57600080fd5b611514611a9a565b82358152905060208201356001600160401b038082111561153457600080fd5b6115408583860161148b565b602084015260408401356040840152606084013591508082111561156357600080fd5b61156f8583860161148b565b6060840152608084013591508082111561158857600080fd5b5061159584828501611406565b60808301525092915050565b6000806000606084860312156115b657600080fd5b6115bf846113ea565b95602085013595506040909401359392505050565b6000602082840312156115e657600080fd5b815161120381611baa565b60008060006060848603121561160657600080fd5b83356115bf81611baa565b6000806040838503121561162457600080fd5b823561162f81611baa565b946020939093013593505050565b6000806040838503121561165057600080fd5b50508035926020909101359150565b60006020828403121561167157600080fd5b5035919050565b60006020828403121561168a57600080fd5b81356001600160401b038111156116a057600080fd5b611051848285016114fa565b6000806000606084860312156116c157600080fd5b83356001600160401b038111156116d757600080fd5b6116e3868287016114fa565b935050602084013591506116f9604085016113ea565b90509250925092565b600081518084526020808501945080840160005b8381101561173b5781516001600160a01b031687529582019590820190600101611716565b509495945050505050565b6000815180845261175e816020860160208601611b17565b601f01601f19169290920160200192915050565b60008251611784818460208701611b17565b9190910192915050565b60006040820160018060a01b03808616845260206040818601528286548085526060870191508760005282600020945060005b818110156117df5785548516835260019586019592840192016117c1565b509098975050505050505050565b6020808252825182820181905260009190848201906040850190845b8181101561182557835183529284019291840191600101611809565b50909695505050505050565b6000606082018583526020606081850152818651808452608086019150828801935060005b8181101561187257845183529383019391830191600101611856565b50508093505050508215156040830152949350505050565b848152600060208581840152608060408401526118aa6080840186611746565b838103606085015284518082528286019183019060005b818110156118dd578351835292840192918401916001016118c1565b50909998505050505050505050565b6020815260006112036020830184611746565b6040815260006119126040830185611746565b6020838203818501526000855481600182811c91508083168061193657607f831692505b85831081141561195457634e487b7160e01b85526022600452602485fd5b8287526020870196508080156119715760018114611982576119ad565b60ff198516885286880195506119ad565b60008b81526020902060005b858110156119a75781548a82015290840190880161198e565b89019650505b50939a9950505050505050505050565b602080825260059082015264454332372d60d81b604082015260600190565b602080825260059082015264454332382d60d81b604082015260600190565b6020808252600490820152634543352d60e01b604082015260600190565b602081526000825160c06020840152611a3560e0840182611746565b905060208401511515604084015260408401516060840152606084015160808401526080840151601f19808584030160a0860152611a738383611702565b925060a08601519150808584030160c086015250611a918282611702565b95945050505050565b60405160a081016001600160401b0381118282101715611abc57611abc611b94565b60405290565b604051601f8201601f191681016001600160401b0381118282101715611aea57611aea611b94565b604052919050565b600082821015611b1257634e487b7160e01b600052601160045260246000fd5b500390565b60005b83811015611b32578181015183820152602001611b1a565b838111156106b45750506000910152565b600181811c90821680611b5757607f821691505b60208210811415611b7857634e487b7160e01b600052602260045260246000fd5b50919050565b634e487b7160e01b600052603260045260246000fd5b634e487b7160e01b600052604160045260246000fd5b80151581146113b857600080fdfea26469706673582212202218356719e5d724f01c50addedf864ca06d3d53ab4c5c62aed7d28a33f0410c64736f6c63430008070033",
  "immutableReferences": {},
  "source": "// SPDX-License-Identifier: GPL-3.0\r\n\r\npragma solidity 0.8.7;\r\n\r\n/*\r\nCommon functionality for all Items\r\n  Items -> Certificate & Entities(Owners & Providers & Pools)\r\n    Item Identity : \r\n       - activated : Item is activated (true/false)\r\n       - info : Item info\r\n       - id : Item id (only is item is activated)\r\n       - pendingId : Item id in activation/deletion pending list (only if item is been added or removed)\r\n       - validations[] : List of address that validated the item (accepted its activation or deletion)\r\n       - rejections[] : List of address that rejected the item (rejected its activation or deletion)\r\n    Items structure:\r\n        - mapping bytes32 to Item identity\r\n        - List of currently activated items (id -> to reference from item identity)\r\n        - List of currently pending Items to be activated (pendingId -> to reference from item identity)\r\n        - List of currently pending Items to be deleted (pendingId -> to reference from item identity)\r\n\r\nFunctionality (with basic security check)\r\n    - Add Item\r\n    - Remove Item\r\n    - Validate Item creation/removal\r\n    - Reject Item creation/removal\r\n  \r\n  Events : \r\n  Item Type(string) - Item(bytes32) - Item info(string)\r\n    - Item activation validated\r\n    - Item activation rejected\r\n    - Item deletion validated\r\n    - Item deletion rejected\r\n  \r\n */\r\n\r\nimport \"./Library.sol\";\r\nimport \"../Libraries/AddressLibrary.sol\";\r\n\r\nlibrary ItemsLibrary{\r\n    using AddressLibrary for *;\r\n    using Library for *;\r\n\r\n    // EVENTS /////////////////////////////////////////\r\n    event _AddItemValidation(string ItemType,  bytes32 indexed Item,  string Info);\r\n    event _RemoveItemValidation(string ItemType,  bytes32 indexed Item,  string Info);\r\n    event _AddItemRejection(string ItemType,  bytes32 indexed Item,  string Info);\r\n    event _RemoveItemRejection( string ItemType,  bytes32 indexed Item,  string Info);\r\n\r\n    // MODIFIERS /////////////////////////////////////////\r\n    modifier ItemNotActivated(bytes32 item, _ItemsStruct storage itemStruct){\r\n        require(false == isItem(item, itemStruct), \"EC6-\");\r\n        _;\r\n    }\r\n\r\n    modifier ItemActivated(bytes32 item, _ItemsStruct storage itemStruct){\r\n        require(true == isItem(item, itemStruct), \"EC7-\");\r\n        _;\r\n    }\r\n\r\n    modifier ItemNotPending(bytes32 item, _ItemsStruct storage itemStruct){\r\n        require(false == isItemPendingToAdded(item, itemStruct) && \r\n                false == isItemPendingToRemoved(item, itemStruct), \"EC27-\");\r\n        _;\r\n    }\r\n\r\n    modifier ItemPending(bytes32 item, _ItemsStruct storage itemStruct){\r\n        require(true == isItemPendingToAdded(item, itemStruct) ||\r\n                true == isItemPendingToRemoved(item, itemStruct), \"EC28-\");\r\n        _;\r\n    }\r\n\r\n    modifier HasNotAlreadyVoted(bytes32 item, _ItemsStruct storage itemStruct){\r\n        require(false == hasVoted(msg.sender, item, itemStruct), \"EC5-\");\r\n        _;\r\n    }\r\n    \r\n    // DATA /////////////////////////////////////////\r\n    struct _itemIdentity{\r\n        string _Info;\r\n        bool _activated;\r\n        uint _id;\r\n        uint _pendingId;\r\n        address[] _Validations;\r\n        address[] _Rejections;\r\n    }\r\n\r\n    struct _ItemsStruct{\r\n        mapping(bytes32 => _itemIdentity) _items;\r\n        bytes32[] _activatedItems;\r\n        bytes32[] _pendingItemsAdd;\r\n        bytes32[] _pendingItemsRemove;\r\n    }\r\n\r\n    // structured used as input parameter for CRUD functions\r\n    struct _manipulateItemStruct{\r\n        bytes32 item;\r\n        string info;\r\n        uint256 _minSignatures;\r\n        string ItemTypeLabel; // Certificate, owner, provider, pool\r\n        uint[] ids; // Ids that will be returned to callback when item activation/deletion has been validated/rejected \r\n    }\r\n\r\n    \r\n    // AUX FUNCTIONALITY /////////////////////////////////////////\r\n    function CheckValidations(uint256 signatures, uint256 minSignatures) public pure returns(bool){\r\n        if(signatures < minSignatures) return false;\r\n        return true;\r\n    }\r\n\r\n    function ReturnManipulateStructContent(_manipulateItemStruct memory manipulateItemstruct) public pure returns(bytes32, uint, string memory, uint[] memory)\r\n    {\r\n        return(manipulateItemstruct.item,\r\n         manipulateItemstruct._minSignatures,\r\n         manipulateItemstruct.ItemTypeLabel,\r\n         manipulateItemstruct.ids);\r\n    }\r\n\r\n    function deleteVoters(bytes32 item, _ItemsStruct storage itemStruct) public{\r\n        delete(itemStruct._items[item]._Rejections);\r\n        delete(itemStruct._items[item]._Validations);\r\n        itemStruct._items[item]._pendingId = 0;\r\n    }\r\n\r\n    // Remove Item from array and resize (not keeping order) it reindexing the item that was moved\r\n    function RemoveResizePending(bool addOrRemove, bytes32 item, _ItemsStruct storage itemStruct) public\r\n    {\r\n        bytes32[] storage arrayToRemoveResize = (addOrRemove)? itemStruct._pendingItemsAdd : itemStruct._pendingItemsRemove;\r\n        uint position = itemStruct._items[item]._pendingId;\r\n\r\n        Library.ArrayRemoveResize(position, arrayToRemoveResize);\r\n\r\n        if(position < arrayToRemoveResize.length){\r\n            bytes32 ItemMoved = arrayToRemoveResize[position];\r\n            itemStruct._items[ItemMoved]._pendingId = position;\r\n        }\r\n\r\n    }\r\n\r\n    function RemoveResizeActivated(bytes32 item, _ItemsStruct storage itemStruct) public\r\n    {\r\n        bytes32[] storage arrayToRemoveResize = itemStruct._activatedItems;\r\n        uint position = itemStruct._items[item]._id;\r\n\r\n        Library.ArrayRemoveResize(position, arrayToRemoveResize);\r\n\r\n        if(position < arrayToRemoveResize.length){\r\n            bytes32 ItemMoved = arrayToRemoveResize[position];\r\n            itemStruct._items[ItemMoved]._id = position;\r\n        }\r\n\r\n    }\r\n\r\n    // MAIN FUNCTIONALITY /////////////////////////////////////////\r\n    function addItem(_manipulateItemStruct memory manipulateItemstruct, _ItemsStruct storage itemStruct, address callerContract) public\r\n        ItemNotActivated(manipulateItemstruct.item, itemStruct)\r\n        ItemNotPending(manipulateItemstruct.item, itemStruct)\r\n    {\r\n        bytes32 item = manipulateItemstruct.item;\r\n        string memory info = manipulateItemstruct.info;\r\n\r\n        itemStruct._items[item]._Info = info;\r\n        itemStruct._pendingItemsAdd.push(item);\r\n        itemStruct._items[item]._pendingId = itemStruct._pendingItemsAdd.length - 1;\r\n        \r\n        validateItem(manipulateItemstruct, itemStruct, callerContract);\r\n    }\r\n     \r\n    function removeItem(_manipulateItemStruct memory manipulateItemstruct, _ItemsStruct storage itemStruct, address callerContract) public\r\n        ItemActivated(manipulateItemstruct.item, itemStruct)\r\n        ItemNotPending(manipulateItemstruct.item, itemStruct)\r\n    {\r\n        bytes32 item = manipulateItemstruct.item;\r\n\r\n        itemStruct._pendingItemsRemove.push(item);\r\n        itemStruct._items[item]._pendingId = itemStruct._pendingItemsRemove.length - 1;\r\n\r\n        validateItem(manipulateItemstruct, itemStruct, callerContract);\r\n    }\r\n\r\n    function validateItem(_manipulateItemStruct memory manipulateItemstruct, _ItemsStruct storage itemStruct, address callerContract) public\r\n        ItemPending(manipulateItemstruct.item, itemStruct)\r\n        HasNotAlreadyVoted(manipulateItemstruct.item, itemStruct)\r\n    {\r\n        (bytes32 item, uint _minSignatures, string memory ItemTypeLabel, uint[] memory ids) = ReturnManipulateStructContent(manipulateItemstruct);\r\n\r\n        itemStruct._items[item]._Validations.push(msg.sender);\r\n\r\n        if(CheckValidations(itemStruct._items[item]._Validations.length, _minSignatures))\r\n        {\r\n            if(isItemPendingToAdded(item, itemStruct))\r\n            {\r\n                itemStruct._items[item]._activated = true; \r\n                itemStruct._activatedItems.push(item);\r\n                itemStruct._items[item]._id = itemStruct._activatedItems.length - 1;\r\n\r\n                RemoveResizePending(true, item, itemStruct);\r\n\r\n                (bool success, bytes memory data) = callerContract.call(abi.encodeWithSignature(\"onItemValidated(bytes32,uint256[],bool)\", item, ids, true));\r\n                require(success, string(data));\r\n                \r\n                deleteVoters(item, itemStruct);\r\n                emit _AddItemValidation(ItemTypeLabel, item, itemStruct._items[item]._Info);\r\n            }\r\n            else{\r\n                RemoveResizeActivated(item, itemStruct);\r\n                RemoveResizePending(false, item, itemStruct);\r\n\r\n                (bool success, bytes memory data) = callerContract.call(abi.encodeWithSignature(\"onItemValidated(bytes32,uint256[],bool)\", item, ids, false));\r\n                require(success, string(data));\r\n\r\n                emit _RemoveItemValidation(ItemTypeLabel, item, itemStruct._items[item]._Info);\r\n                delete(itemStruct._items[item]);\r\n            }   \r\n        }\r\n    }\r\n\r\n    function rejectItem(_manipulateItemStruct memory manipulateItemstruct, _ItemsStruct storage itemStruct, address callerContract) public\r\n        ItemPending(manipulateItemstruct.item, itemStruct)\r\n        HasNotAlreadyVoted(manipulateItemstruct.item, itemStruct)\r\n    {\r\n        (bytes32 item, uint _minSignatures, string memory ItemTypeLabel, uint[] memory ids) = ReturnManipulateStructContent(manipulateItemstruct);\r\n\r\n        itemStruct._items[item]._Rejections.push(msg.sender);\r\n\r\n        if(CheckValidations(itemStruct._items[item]._Rejections.length, _minSignatures))\r\n        {\r\n\r\n            if(isItemPendingToAdded(item, itemStruct))\r\n            {\r\n                RemoveResizePending(true, item, itemStruct);\r\n\r\n                (bool success, bytes memory data) = callerContract.call(abi.encodeWithSignature(\"onItemRejected(bytes32,uint256[],bool)\", item, ids, true)); \r\n                require(success, string(data));\r\n\r\n                emit _AddItemRejection(ItemTypeLabel, item, itemStruct._items[item]._Info);\r\n                delete(itemStruct._items[item]);\r\n            }\r\n            else\r\n            {\r\n                RemoveResizePending(false, item, itemStruct);\r\n\r\n                (bool success, bytes memory data) = callerContract.call(abi.encodeWithSignature(\"onItemRejected(bytes32,uint256[],bool)\", item, ids, false));\r\n                require(success, string(data));\r\n\r\n                deleteVoters(item, itemStruct);\r\n                emit _RemoveItemRejection(ItemTypeLabel, item, itemStruct._items[item]._Info);\r\n            }\r\n                \r\n        }\r\n    }\r\n\r\n\r\n    // READ Data\r\n\r\n    function isItem(bytes32 item, _ItemsStruct storage itemStruct) public view returns(bool){\r\n        return itemStruct._items[item]._activated;\r\n    }\r\n\r\n    function isItemPendingToAdded(bytes32 item, _ItemsStruct storage itemStruct) public view returns(bool)\r\n    {\r\n        if(itemStruct._pendingItemsAdd.length > itemStruct._items[item]._pendingId){\r\n            if(item == itemStruct._pendingItemsAdd[itemStruct._items[item]._pendingId]) return true;\r\n        }\r\n        return false;\r\n    }\r\n\r\n    function isItemPendingToRemoved(bytes32 item, _ItemsStruct storage itemStruct) public view returns(bool)\r\n    {\r\n        if(itemStruct._pendingItemsRemove.length > itemStruct._items[item]._pendingId){\r\n            if(item == itemStruct._pendingItemsRemove[itemStruct._items[item]._pendingId]) return true;\r\n        }\r\n        return false;\r\n    }\r\n\r\n    function retrievePendingItems(bool addORemove, _ItemsStruct storage itemStruct) public view returns (bytes32[] memory)\r\n    {\r\n        bytes32[] memory Items;\r\n\r\n        if(addORemove) Items = itemStruct._pendingItemsAdd;\r\n        else Items = itemStruct._pendingItemsRemove;\r\n        \r\n        return Items;\r\n    }\r\n\r\n    function retrieveItem(bytes32 item, _ItemsStruct storage itemStruct) public view returns (_itemIdentity memory) \r\n    {\r\n        return (itemStruct._items[item]);\r\n    }\r\n\r\n    function retrieveAllItems(_ItemsStruct storage itemStruct) public view returns (bytes32[] memory) \r\n    {\r\n        return itemStruct._activatedItems;\r\n    }\r\n\r\n    function hasVoted(address add, bytes32 item, _ItemsStruct storage itemStruct) public view returns (bool) \r\n    {\r\n        return (AddressLibrary.FindAddress(add, itemStruct._items[item]._Validations) ||\r\n                AddressLibrary.FindAddress(add, itemStruct._items[item]._Rejections));\r\n    }\r\n\r\n}",
  "sourcePath": "C:\\Users\\d-aam\\GitHub\\Certificates\\contracts\\Libraries\\ItemsLibrary.sol",
  "compiler": {
    "name": "solc",
    "version": "0.8.7+commit.e28d00a7.Emscripten.clang"
  },
  "schemaVersion": "3.3.4",
  "updatedAt": "2021-09-23T09:58:59.429Z",
  "devdoc": {
    "kind": "dev",
    "methods": {},
    "version": 1
  },
  "userdoc": {
    "kind": "user",
    "methods": {},
    "version": 1
  }
}