{
  "contractName": "ItemsLibrary",
  "abi": [
    {
      "anonymous": false,
      "inputs": [
        {
          "indexed": false,
          "internalType": "bool",
          "name": "",
          "type": "bool"
        },
        {
          "indexed": true,
          "internalType": "string",
          "name": "",
          "type": "string"
        },
        {
          "indexed": true,
          "internalType": "bytes32",
          "name": "",
          "type": "bytes32"
        },
        {
          "indexed": true,
          "internalType": "string",
          "name": "",
          "type": "string"
        }
      ],
      "name": "_AddItemRejection",
      "type": "event"
    },
    {
      "anonymous": false,
      "inputs": [
        {
          "indexed": false,
          "internalType": "bool",
          "name": "",
          "type": "bool"
        },
        {
          "indexed": true,
          "internalType": "string",
          "name": "",
          "type": "string"
        },
        {
          "indexed": true,
          "internalType": "bytes32",
          "name": "",
          "type": "bytes32"
        },
        {
          "indexed": true,
          "internalType": "string",
          "name": "",
          "type": "string"
        }
      ],
      "name": "_AddItemValidation",
      "type": "event"
    },
    {
      "anonymous": false,
      "inputs": [
        {
          "indexed": false,
          "internalType": "bool",
          "name": "",
          "type": "bool"
        },
        {
          "indexed": true,
          "internalType": "string",
          "name": "",
          "type": "string"
        },
        {
          "indexed": true,
          "internalType": "bytes32",
          "name": "",
          "type": "bytes32"
        },
        {
          "indexed": true,
          "internalType": "string",
          "name": "",
          "type": "string"
        }
      ],
      "name": "_RemoveItemRejection",
      "type": "event"
    },
    {
      "anonymous": false,
      "inputs": [
        {
          "indexed": false,
          "internalType": "bool",
          "name": "",
          "type": "bool"
        },
        {
          "indexed": true,
          "internalType": "string",
          "name": "",
          "type": "string"
        },
        {
          "indexed": true,
          "internalType": "bytes32",
          "name": "",
          "type": "bytes32"
        },
        {
          "indexed": true,
          "internalType": "string",
          "name": "",
          "type": "string"
        }
      ],
      "name": "_RemoveItemValidation",
      "type": "event"
    },
    {
      "inputs": [
        {
          "internalType": "uint256",
          "name": "signatures",
          "type": "uint256"
        },
        {
          "internalType": "uint256",
          "name": "minSignatures",
          "type": "uint256"
        }
      ],
      "name": "CheckValidations",
      "outputs": [
        {
          "internalType": "bool",
          "name": "",
          "type": "bool"
        }
      ],
      "stateMutability": "pure",
      "type": "function"
    }
  ],
  "bytecode": "0x611cf461003a600b82828239805160001a60731461002d57634e487b7160e01b600052600060045260246000fd5b30600052607381538281f3fe73000000000000000000000000000000000000000030146080604052600436106100b85760003560e01c806226d766146100bd5780630b985aaa146100e55780631aeccc6a1461010757806327724f4b146101285780632854ed2e146101485780635cb09bcf1461015b5780636e088cc71461017b5780637493a70b1461019b5780637b6d23de146101bb578063dbdfbeec146101ce578063e035e006146101ef578063e23fcdef14610210578063f6001d7d14610230575b600080fd5b6100d06100cb366004611764565b610243565b60405190151581526020015b60405180910390f35b8180156100f157600080fd5b5061010561010036600461179f565b6102f2565b005b61011a610115366004611764565b61034a565b6040516100dc929190611b55565b61013b610136366004611786565b6103fc565b6040516100dc9190611a5e565b6100d0610156366004611764565b610458565b81801561016757600080fd5b5061010561017636600461179f565b6104fa565b81801561018757600080fd5b50610105610196366004611764565b610a40565b8180156101a757600080fd5b506101056101b636600461179f565b610a7e565b6100d06101c936600461164a565b611113565b6100d06101dc366004611764565b6000918252602052604090205460ff1690565b6102026101fd366004611738565b611258565b6040516100dc929190611a71565b81801561021c57600080fd5b5061010561022b36600461179f565b6113d0565b6100d061023e366004611764565b6113fd565b6000808260020180548060200260200160405190810160405280929190818152602001828054801561029457602002820191906000526020600020905b815481526020019060010190808311610280575b5050505050905060005b81518110156102e5578181815181106102b9576102b9611c84565b60200260200101518514156102d3576001925050506102ec565b806102dd81611c5b565b91505061029e565b5060009150505b92915050565b82516020808501516000838152858352604090208151919261031d9260019092019190840190611418565b506002840180546001810182556000918252602090912001829055610343858585610a7e565b5050505050565b60008281526020829052604081208054606092916001019060ff1681805461037190611c20565b80601f016020809104026020016040519081016040528092919081815260200182805461039d90611c20565b80156103ea5780601f106103bf576101008083540402835291602001916103ea565b820191906000526020600020905b8154815290600101906020018083116103cd57829003601f168201915b50505050509150915091509250929050565b60608160010180548060200260200160405190810160405280929190818152602001828054801561044c57602002820191906000526020600020905b815481526020019060010190808311610438575b50505050509050919050565b600080826003018054806020026020016040519081016040528092919081815260200182805480156104a957602002820191906000526020600020905b815481526020019060010190808311610495575b5050505050905060005b81518110156102e5578181815181106104ce576104ce611c84565b60200260200101518514156104e8576001925050506102ec565b806104f281611c5b565b9150506104b3565b82516040808501516060860151608087015160a088015160008681526020898152958120600301805460018101825581835296822090960180546001600160a01b0319163317905586905293549293919290919061055890856113fd565b15610a36576105678588610243565b156107e15773__Library_______________________________635b28cf6373__Library_______________________________632b01313e888b6002016040518363ffffffff1660e01b81526004016105c2929190611ae3565b60206040518083038186803b1580156105da57600080fd5b505af41580156105ee573d6000803e3d6000fd5b505050506040513d601f19601f820116820180604052508101906106129190611892565b896002016040518363ffffffff1660e01b8152600401610633929190611ae3565b60006040518083038186803b15801561064b57600080fd5b505af415801561065f573d6000803e3d6000fd5b505050506040513d6000823e601f3d908101601f19168201604052610687919081019061167d565b805161069d9160028a019160209091019061149c565b506000866001600160a01b0316868460016040516024016106c093929190611afc565b60408051601f198184030181529181526020820180516001600160e01b0316633fd0718160e01b179052516106f59190611947565b6000604051808303816000865af19150503d8060008114610732576040519150601f19603f3d011682016040523d82523d6000602084013e610737565b606091505b5050600087815260208a90526040812091925061075791600101906114d6565b6107618689610a40565b81156107db576000868152602089905260409081902090516107869160010190611963565b6040518091039020868560405161079d9190611947565b6040519081900381208415158252907f04fe8f9cfd93054b371b8c9d7c8dd159744128334726e20da52a8ecaecabc4b0906020015b60405180910390a45b50610a36565b73__Library_______________________________635b28cf6373__Library_______________________________632b01313e888b6003016040518363ffffffff1660e01b8152600401610837929190611ae3565b60206040518083038186803b15801561084f57600080fd5b505af4158015610863573d6000803e3d6000fd5b505050506040513d601f19601f820116820180604052508101906108879190611892565b896003016040518363ffffffff1660e01b81526004016108a8929190611ae3565b60006040518083038186803b1580156108c057600080fd5b505af41580156108d4573d6000803e3d6000fd5b505050506040513d6000823e601f3d908101601f191682016040526108fc919081019061167d565b80516109129160038a019160209091019061149c565b506000866001600160a01b03168684600060405160240161093593929190611afc565b60408051601f198184030181529181526020820180516001600160e01b0316633fd0718160e01b1790525161096a9190611947565b6000604051808303816000865af19150503d80600081146109a7576040519150601f19603f3d011682016040523d82523d6000602084013e6109ac565b606091505b505090506109ba8689610a40565b8115610a34576000868152602089905260409081902090516109df9160010190611963565b604051809103902086856040516109f69190611947565b6040519081900381208415158252907f236882b6fe34d6ffe9b75d5b23ba6612441f1df5f1f9a40c6eb55a5bd99bc815906020015b60405180910390a45b505b5050505050505050565b6000828152602082905260408120610a5d91600390910190611513565b6000828152602082905260408120610a7a91600290910190611513565b5050565b82516040808501516060860151608087015160a088015160008681526020898152958120600201805460018101825581835296822090960180546001600160a01b03191633179055869052935492939192909190610adc90856113fd565b15610a3657610aeb8588610243565b15610d5b57600085815260208881526040808320805460ff191660019081179091558a8101805491820181558452919092200186905551631580989f60e11b815273__Library_______________________________90635b28cf63908290632b01313e90610b63908a9060028e0190600401611ae3565b60206040518083038186803b158015610b7b57600080fd5b505af4158015610b8f573d6000803e3d6000fd5b505050506040513d601f19601f82011682018060405250810190610bb39190611892565b896002016040518363ffffffff1660e01b8152600401610bd4929190611ae3565b60006040518083038186803b158015610bec57600080fd5b505af4158015610c00573d6000803e3d6000fd5b505050506040513d6000823e601f3d908101601f19168201604052610c28919081019061167d565b8051610c3e9160028a019160209091019061149c565b506000866001600160a01b031686846001604051602401610c6193929190611afc565b60408051601f198184030181529181526020820180516001600160e01b0316637c8c2add60e01b17905251610c969190611947565b6000604051808303816000865af19150503d8060008114610cd3576040519150601f19603f3d011682016040523d82523d6000602084013e610cd8565b606091505b50509050610ce68689610a40565b81156107db57600086815260208990526040908190209051610d0b9160010190611963565b60405180910390208685604051610d229190611947565b6040519081900381208415158252907f4e89f4ef2353e250f9619e74ad1063f22ed6067993e101c08cbb629b82aa678d906020016107d2565b73__Library_______________________________635b28cf6373__Library_______________________________632b01313e888b6001016040518363ffffffff1660e01b8152600401610db1929190611ae3565b60206040518083038186803b158015610dc957600080fd5b505af4158015610ddd573d6000803e3d6000fd5b505050506040513d601f19601f82011682018060405250810190610e019190611892565b896001016040518363ffffffff1660e01b8152600401610e22929190611ae3565b60006040518083038186803b158015610e3a57600080fd5b505af4158015610e4e573d6000803e3d6000fd5b505050506040513d6000823e601f3d908101601f19168201604052610e76919081019061167d565b8051610e8c9160018a019160209091019061149c565b5073__Library_______________________________635b28cf6373__Library_______________________________632b01313e888b6003016040518363ffffffff1660e01b8152600401610ee3929190611ae3565b60206040518083038186803b158015610efb57600080fd5b505af4158015610f0f573d6000803e3d6000fd5b505050506040513d601f19601f82011682018060405250810190610f339190611892565b896003016040518363ffffffff1660e01b8152600401610f54929190611ae3565b60006040518083038186803b158015610f6c57600080fd5b505af4158015610f80573d6000803e3d6000fd5b505050506040513d6000823e601f3d908101601f19168201604052610fa8919081019061167d565b8051610fbe9160038a019160209091019061149c565b506000866001600160a01b031686846000604051602401610fe193929190611afc565b60408051601f198184030181529181526020820180516001600160e01b0316637c8c2add60e01b179052516110169190611947565b6000604051808303816000865af19150503d8060008114611053576040519150601f19603f3d011682016040523d82523d6000602084013e611058565b606091505b5050600087815260208a905260408120805460ff1916815591925061108060018301826114d6565b61108e600283016000611513565b61109c600383016000611513565b50508115610a34576000868152602089905260409081902090516110c39160010190611963565b604051809103902086856040516110da9190611947565b6040519081900381208415158252907f6a8393a736871928d3418ef15e191eb9e9f2f2b0f34c7a896d0ce6472390b87090602001610a2b565b600082815260208290526040808220905163f7cf62d760e01b815273__AddressLibrary________________________9163f7cf62d79161115e9188916002909101906004016119ff565b60206040518083038186803b15801561117657600080fd5b505af415801561118a573d6000803e3d6000fd5b505050506040513d601f19601f820116820180604052508101906111ae9190611714565b80611250575060008381526020839052604090819020905163f7cf62d760e01b815273__AddressLibrary________________________9163f7cf62d7916112009188916003909101906004016119ff565b60206040518083038186803b15801561121857600080fd5b505af415801561122c573d6000803e3d6000fd5b505050506040513d601f19601f820116820180604052508101906112509190611714565b949350505050565b606080606084156112bd57836002018054806020026020016040519081016040528092919081815260200182805480156112b157602002820191906000526020600020905b81548152602001906001019080831161129d575b50505050509050611313565b8360030180548060200260200160405190810160405280929190818152602001828054801561130b57602002820191906000526020600020905b8154815260200190600101908083116112f7575b505050505090505b600081516001600160401b0381111561132e5761132e611c9a565b60405190808252806020026020018201604052801561136157816020015b606081526020019060019003908161134c5790505b50905060005b82518110156113c45761139383828151811061138557611385611c84565b60200260200101518761034a565b508282815181106113a6576113a6611c84565b602002602001018190525080806113bc90611c5b565b915050611367565b50909590945092505050565b825160038301805460018101825560009182526020909120018190556113f7848484610a7e565b50505050565b60008183101561140f575060006102ec565b50600192915050565b82805461142490611c20565b90600052602060002090601f016020900481019282611446576000855561148c565b82601f1061145f57805160ff191683800117855561148c565b8280016001018555821561148c579182015b8281111561148c578251825591602001919060010190611471565b5061149892915061152d565b5090565b82805482825590600052602060002090810192821561148c579160200282018281111561148c578251825591602001919060010190611471565b5080546114e290611c20565b6000825580601f106114f2575050565b601f016020900490600052602060002090810190611510919061152d565b50565b508054600082559060005260206000209081019061151091905b5b80821115611498576000815560010161152e565b80356001600160a01b038116811461155957600080fd5b919050565b600082601f83011261156f57600080fd5b8135602061158461157f83611bd1565b611ba1565b80838252828201915082860187848660051b89010111156115a457600080fd5b60005b858110156115c3578135845292840192908401906001016115a7565b5090979650505050505050565b803561155981611cb0565b600082601f8301126115ec57600080fd5b81356001600160401b0381111561160557611605611c9a565b611618601f8201601f1916602001611ba1565b81815284602083860101111561162d57600080fd5b816020850160208301376000918101602001919091529392505050565b60008060006060848603121561165f57600080fd5b61166884611542565b95602085013595506040909401359392505050565b6000602080838503121561169057600080fd5b82516001600160401b038111156116a657600080fd5b8301601f810185136116b757600080fd5b80516116c561157f82611bd1565b80828252848201915084840188868560051b87010111156116e557600080fd5b600094505b838510156117085780518352600194909401939185019185016116ea565b50979650505050505050565b60006020828403121561172657600080fd5b815161173181611cb0565b9392505050565b6000806040838503121561174b57600080fd5b823561175681611cb0565b946020939093013593505050565b6000806040838503121561177757600080fd5b50508035926020909101359150565b60006020828403121561179857600080fd5b5035919050565b6000806000606084860312156117b457600080fd5b83356001600160401b03808211156117cb57600080fd5b9085019060c082880312156117df57600080fd5b6117e7611b79565b823581526020830135828111156117fd57600080fd5b611809898286016115db565b6020830152506040830135604082015260608301358281111561182b57600080fd5b611837898286016115db565b60608301525060808301358281111561184f57600080fd5b61185b8982860161155e565b60808301525061186d60a084016115d0565b60a0820152945050506020840135915061188960408501611542565b90509250925092565b6000602082840312156118a457600080fd5b5051919050565b600081518084526020808501945080840160005b838110156118db578151875295820195908201906001016118bf565b509495945050505050565b6000815480845260208085019450836000528060002060005b838110156118db578154875295820195600191820191016118ff565b60008151808452611933816020860160208601611bf4565b601f01601f19169290920160200192915050565b60008251611959818460208701611bf4565b9190910192915050565b600080835481600182811c91508083168061197f57607f831692505b602080841082141561199f57634e487b7160e01b86526022600452602486fd5b8180156119b357600181146119c4576119f1565b60ff198616895284890196506119f1565b60008a81526020902060005b868110156119e95781548b8201529085019083016119d0565b505084890196505b509498975050505050505050565b60006040820160018060a01b03808616845260206040818601528286548085526060870191508760005282600020945060005b81811015611a50578554851683526001958601959284019201611a32565b509098975050505050505050565b60208152600061173160208301846118ab565b604081526000611a8460408301856118ab565b6020838203818501528185518084528284019150828160051b85010183880160005b83811015611ad457601f19878403018552611ac283835161191b565b94860194925090850190600101611aa6565b50909998505050505050505050565b82815260406020820152600061125060408301846118e6565b6000606082018583526020606081850152818651808452608086019150828801935060005b81811015611b3d57845183529383019391830191600101611b21565b50508093505050508215156040830152949350505050565b604081526000611b68604083018561191b565b905082151560208301529392505050565b60405160c081016001600160401b0381118282101715611b9b57611b9b611c9a565b60405290565b604051601f8201601f191681016001600160401b0381118282101715611bc957611bc9611c9a565b604052919050565b60006001600160401b03821115611bea57611bea611c9a565b5060051b60200190565b60005b83811015611c0f578181015183820152602001611bf7565b838111156113f75750506000910152565b600181811c90821680611c3457607f821691505b60208210811415611c5557634e487b7160e01b600052602260045260246000fd5b50919050565b6000600019821415611c7d57634e487b7160e01b600052601160045260246000fd5b5060010190565b634e487b7160e01b600052603260045260246000fd5b634e487b7160e01b600052604160045260246000fd5b801515811461151057600080fdfea2646970667358221220d08739d85759696d9b137962d908bf2d02c735379867af86af7d4837f65c14ef64736f6c63430008060033",
  "immutableReferences": {},
  "source": "// SPDX-License-Identifier: GPL-3.0\r\n\r\npragma solidity >=0.7.0 <0.9.0;\r\npragma experimental ABIEncoderV2;\r\n\r\n/**\r\n * @title Storage\r\n * @dev Store & retrieve value in a variable\r\n */\r\n\r\nimport \"./Library.sol\";\r\nimport \"../Libraries/AddressLibrary.sol\";\r\n\r\nlibrary ItemsLibrary{\r\n    using AddressLibrary for *;\r\n    using Library for *;\r\n\r\n    //events\r\n    event _AddItemValidation(bool, string indexed,  bytes32 indexed,  string indexed);\r\n    event _RemoveItemValidation(bool, string indexed,  bytes32 indexed,  string indexed);\r\n    event _AddItemRejection(bool, string indexed,  bytes32 indexed,  string indexed);\r\n    event _RemoveItemRejection(bool, string indexed,  bytes32 indexed,  string indexed);\r\n    \r\n    // Data structure\r\n    struct _itemIdentity{\r\n        bool _activated;\r\n        string _Info;\r\n        address[] _Validations;\r\n        address[] _Rejections;\r\n    }\r\n\r\n    struct _ItemsStruct{\r\n        mapping(bytes32 => _itemIdentity) _items;\r\n        bytes32[] _activatedItems;\r\n        bytes32[] _pendingItemsAdd;\r\n        bytes32[] _pendingItemsRemove;\r\n    }\r\n\r\n    struct _manipulateItemStruct{\r\n        bytes32 item;\r\n        string info;\r\n        uint256 _minSignatures;\r\n        string label;\r\n        uint[] ids;\r\n        bool emitEvent;\r\n    }\r\n\r\n    // Auxiliary functions\r\n     function CheckValidations(uint256 signatures, uint256 minSignatures) public pure returns(bool){\r\n        if(signatures < minSignatures) return false;\r\n        return true;\r\n    }\r\n\r\n    // ADD and REMOVE Functionality\r\n    function addItem(_manipulateItemStruct memory manipulateItemstruct, _ItemsStruct storage itemStruct, address c) public\r\n    {\r\n        bytes32 item = manipulateItemstruct.item;\r\n        string memory info = manipulateItemstruct.info;\r\n\r\n        itemStruct._items[item]._Info = info;\r\n        itemStruct._pendingItemsAdd.push(item);\r\n        \r\n        validateItem(manipulateItemstruct, itemStruct, c);\r\n    }\r\n     \r\n    function removeItem(_manipulateItemStruct memory manipulateItemstruct, _ItemsStruct storage itemStruct, address c) public\r\n    {\r\n        bytes32 item = manipulateItemstruct.item;\r\n\r\n        itemStruct._pendingItemsRemove.push(item);\r\n\r\n        validateItem(manipulateItemstruct, itemStruct, c);\r\n    }\r\n\r\n    function validateItem(_manipulateItemStruct memory manipulateItemstruct, _ItemsStruct storage itemStruct, address c) public\r\n    {\r\n        bytes32 item = manipulateItemstruct.item;\r\n        uint _minSignatures = manipulateItemstruct._minSignatures;\r\n        string memory label = manipulateItemstruct.label;\r\n        uint[] memory ids = manipulateItemstruct.ids;\r\n        bool emitEvent = manipulateItemstruct.emitEvent;\r\n\r\n        itemStruct._items[item]._Validations.push(msg.sender);\r\n\r\n        if(CheckValidations(itemStruct._items[item]._Validations.length, _minSignatures)){\r\n\r\n            if(isItemPendingToAdded(item, itemStruct)){\r\n                itemStruct._items[item]._activated = true; \r\n                itemStruct._activatedItems.push(item);\r\n                itemStruct._pendingItemsAdd = Library.ArrayRemoveResize(Library.FindPosition(item, itemStruct._pendingItemsAdd), itemStruct._pendingItemsAdd);\r\n                (bool success, ) = c.call(abi.encodeWithSignature(\"onItemValidated(bytes32,uint256[],bool)\", item, ids, true));\r\n                deleteVoters(item, itemStruct);\r\n                if(emitEvent) emit _AddItemValidation(success, label, item, itemStruct._items[item]._Info);\r\n            }\r\n            else{\r\n                itemStruct._activatedItems = Library.ArrayRemoveResize(Library.FindPosition(item, itemStruct._activatedItems), itemStruct._activatedItems);\r\n                itemStruct._pendingItemsRemove = Library.ArrayRemoveResize(Library.FindPosition(item, itemStruct._pendingItemsRemove), itemStruct._pendingItemsRemove);\r\n                (bool success, ) = c.call(abi.encodeWithSignature(\"onItemValidated(bytes32,uint256[],bool)\", item, ids, false));\r\n                delete(itemStruct._items[item]);\r\n                if(emitEvent) emit _RemoveItemValidation(success, label, item, itemStruct._items[item]._Info);\r\n            }   \r\n        }\r\n    }\r\n\r\n    function rejectItem(_manipulateItemStruct memory manipulateItemstruct, _ItemsStruct storage itemStruct, address c) public\r\n    {\r\n        bytes32 item = manipulateItemstruct.item;\r\n        uint _minSignatures = manipulateItemstruct._minSignatures;\r\n        string memory label = manipulateItemstruct.label;\r\n        uint[] memory ids = manipulateItemstruct.ids;\r\n        bool emitEvent = manipulateItemstruct.emitEvent;\r\n\r\n        itemStruct._items[item]._Rejections.push(msg.sender);\r\n\r\n        if(CheckValidations(itemStruct._items[item]._Rejections.length, _minSignatures)){\r\n\r\n            if(isItemPendingToAdded(item, itemStruct)){\r\n                itemStruct._pendingItemsAdd = Library.ArrayRemoveResize(Library.FindPosition(item, itemStruct._pendingItemsAdd), itemStruct._pendingItemsAdd);\r\n                (bool success, ) = c.call(abi.encodeWithSignature(\"onItemRejected(bytes32,uint256[],bool)\", item, ids, true));\r\n                delete(itemStruct._items[item]._Info);\r\n                deleteVoters(item, itemStruct); \r\n                if(emitEvent) emit _AddItemRejection(success, label, item, itemStruct._items[item]._Info);\r\n            }\r\n            else{\r\n                itemStruct._pendingItemsRemove = Library.ArrayRemoveResize(Library.FindPosition(item, itemStruct._pendingItemsRemove), itemStruct._pendingItemsRemove);\r\n                (bool success, ) = c.call(abi.encodeWithSignature(\"onItemRejected(bytes32,uint256[],bool)\", item, ids, false));\r\n                deleteVoters(item, itemStruct);\r\n                if(emitEvent) emit _RemoveItemRejection(success, label, item, itemStruct._items[item]._Info);\r\n            }\r\n                \r\n        }\r\n    }\r\n\r\n    function deleteVoters(bytes32 item, _ItemsStruct storage itemStruct) public{\r\n        delete(itemStruct._items[item]._Rejections);\r\n        delete(itemStruct._items[item]._Validations);\r\n    }\r\n\r\n    // READ Data\r\n\r\n    function isItem(bytes32 item, _ItemsStruct storage itemStruct) public view returns(bool){\r\n        return itemStruct._items[item]._activated;\r\n    }\r\n\r\n    function isItemPendingToAdded(bytes32 item, _ItemsStruct storage itemStruct) public view returns(bool)\r\n    {\r\n        bytes32[] memory pendingToBeAdded = itemStruct._pendingItemsAdd;\r\n        for(uint i=0; i < pendingToBeAdded.length; i++){\r\n            if(item == pendingToBeAdded[i]) return true;\r\n        }\r\n        return false;\r\n    }\r\n\r\n    function isItemPendingToRemoved(bytes32 item, _ItemsStruct storage itemStruct) public view returns(bool)\r\n    {\r\n        bytes32[] memory pendingToBeRemoved = itemStruct._pendingItemsRemove;\r\n        for(uint i=0; i < pendingToBeRemoved.length; i++){\r\n            if(item == pendingToBeRemoved[i]) return true;\r\n        }\r\n        return false;\r\n    }\r\n\r\n    function retrievePendingItems(bool addORemove, _ItemsStruct storage itemStruct) public view returns (bytes32[] memory, string[] memory)\r\n    {\r\n        bytes32[] memory Items;\r\n\r\n        if(addORemove) Items = itemStruct._pendingItemsAdd;\r\n        else Items = itemStruct._pendingItemsRemove;\r\n\r\n        string[] memory Items_Info = new string[](Items.length);\r\n\r\n        for(uint i=0; i < Items.length; i++){\r\n            (Items_Info[i],) = retrieveItem(Items[i], itemStruct);\r\n        }\r\n        \r\n        return(Items, Items_Info);\r\n    }\r\n\r\n    function retrieveItem(bytes32 item, _ItemsStruct storage itemStruct) public view returns (string memory, bool) \r\n    {\r\n        return (itemStruct._items[item]._Info, isItem(item, itemStruct));\r\n    }\r\n\r\n    function retrieveAllItems(_ItemsStruct storage itemStruct) public view returns (bytes32[] memory) \r\n    {\r\n        return itemStruct._activatedItems;\r\n    }\r\n\r\n    function hasVoted(address add, bytes32 item, _ItemsStruct storage itemStruct) public view returns (bool) \r\n    {\r\n        return (AddressLibrary.FindAddress(add, itemStruct._items[item]._Validations) ||\r\n                AddressLibrary.FindAddress(add, itemStruct._items[item]._Rejections));\r\n    }\r\n\r\n}",
  "sourcePath": "C:\\Users\\d-aam\\GitHub\\Certificates\\contracts\\Libraries\\ItemsLibrary.sol",
  "compiler": {
    "name": "solc",
    "version": "0.8.6+commit.11564f7e.Emscripten.clang"
  },
  "schemaVersion": "3.3.4",
  "updatedAt": "2021-08-10T12:03:31.492Z",
  "devdoc": {
    "kind": "dev",
    "methods": {},
    "version": 1
  },
  "userdoc": {
    "kind": "user",
    "methods": {},
    "version": 1
  }
}