{
  "contractName": "ItemsLibrary",
  "abi": [
    {
      "anonymous": false,
      "inputs": [
        {
          "indexed": false,
          "internalType": "bool",
          "name": "",
          "type": "bool"
        },
        {
          "indexed": true,
          "internalType": "string",
          "name": "",
          "type": "string"
        },
        {
          "indexed": true,
          "internalType": "bytes32",
          "name": "",
          "type": "bytes32"
        },
        {
          "indexed": true,
          "internalType": "string",
          "name": "",
          "type": "string"
        }
      ],
      "name": "_AddItemRejection",
      "type": "event"
    },
    {
      "anonymous": false,
      "inputs": [
        {
          "indexed": false,
          "internalType": "bool",
          "name": "",
          "type": "bool"
        },
        {
          "indexed": true,
          "internalType": "string",
          "name": "",
          "type": "string"
        },
        {
          "indexed": true,
          "internalType": "bytes32",
          "name": "",
          "type": "bytes32"
        },
        {
          "indexed": true,
          "internalType": "string",
          "name": "",
          "type": "string"
        }
      ],
      "name": "_AddItemValidation",
      "type": "event"
    },
    {
      "anonymous": false,
      "inputs": [
        {
          "indexed": false,
          "internalType": "bool",
          "name": "",
          "type": "bool"
        },
        {
          "indexed": true,
          "internalType": "string",
          "name": "",
          "type": "string"
        },
        {
          "indexed": true,
          "internalType": "bytes32",
          "name": "",
          "type": "bytes32"
        },
        {
          "indexed": true,
          "internalType": "string",
          "name": "",
          "type": "string"
        }
      ],
      "name": "_RemoveItemRejection",
      "type": "event"
    },
    {
      "anonymous": false,
      "inputs": [
        {
          "indexed": false,
          "internalType": "bool",
          "name": "",
          "type": "bool"
        },
        {
          "indexed": true,
          "internalType": "string",
          "name": "",
          "type": "string"
        },
        {
          "indexed": true,
          "internalType": "bytes32",
          "name": "",
          "type": "bytes32"
        },
        {
          "indexed": true,
          "internalType": "string",
          "name": "",
          "type": "string"
        }
      ],
      "name": "_RemoveItemValidation",
      "type": "event"
    },
    {
      "inputs": [
        {
          "internalType": "uint256",
          "name": "signatures",
          "type": "uint256"
        },
        {
          "internalType": "uint256",
          "name": "minSignatures",
          "type": "uint256"
        }
      ],
      "name": "CheckValidations",
      "outputs": [
        {
          "internalType": "bool",
          "name": "",
          "type": "bool"
        }
      ],
      "stateMutability": "pure",
      "type": "function"
    }
  ],
  "bytecode": "0x61185561003a600b82828239805160001a60731461002d57634e487b7160e01b600052600060045260246000fd5b30600052607381538281f3fe73000000000000000000000000000000000000000030146080604052600436106100ce5760003560e01c806226d766146100d35780630b985aaa146100fb5780631aeccc6a1461011d578063207c44271461013e57806327724f4b1461015e5780632854ed2e1461017e5780635cb09bcf146101915780636e088cc7146101b15780637493a70b146101d15780637b6d23de146101f15780638225579b14610204578063dbdfbeec14610224578063e035e00614610245578063e23fcdef14610266578063f6001d7d14610286575b600080fd5b6100e66100e1366004611330565b610299565b60405190151581526020015b60405180910390f35b81801561010757600080fd5b5061011b61011636600461136b565b610303565b005b61013061012b366004611330565b61037b565b6040516100f29291906116ba565b81801561014a57600080fd5b5061011b610159366004611330565b61042d565b61017161016c366004611352565b6104f4565b6040516100f291906115dc565b6100e661018c366004611330565b610550565b81801561019d57600080fd5b5061011b6101ac36600461136b565b61059b565b8180156101bd57600080fd5b5061011b6101cc366004611330565b6108c1565b8180156101dd57600080fd5b5061011b6101ec36600461136b565b61090d565b6100e66101ff36600461128d565b610c8d565b81801561021057600080fd5b5061011b61021f3660046112e4565b610dd0565b6100e6610232366004611330565b6000918252602052604090205460ff1690565b610258610253366004611304565b610ea8565b6040516100f29291906115ef565b81801561027257600080fd5b5061011b61028136600461136b565b611020565b6100e6610294366004611330565b611067565b600082815260208290526040812060030154600283015411156102f95760008381526020839052604090206003015460028301805490919081106102df576102df6117e5565b90600052602060002001548314156102f9575060016102fd565b5060005b92915050565b82516020808501516000838152858352604090208151919261032e9260019092019190840190611082565b506002840180546001818101835560008381526020902090910184905590546103579190611736565b60008381526020869052604090206003015561037485858561090d565b5050505050565b60008281526020829052604081208054606092916001019060ff168180546103a290611779565b80601f01602080910402602001604051908101604052809291908181526020018280546103ce90611779565b801561041b5780601f106103f05761010080835404028352916020019161041b565b820191906000526020600020905b8154815290600101906020018083116103fe57829003601f168201915b50505050509150915091509250929050565b60008281526020829052604090819020600201549051637277ce1960e11b8152600481018290526001830160248201819052919073__Library_______________________________9063e4ef9c329060440160006040518083038186803b15801561049857600080fd5b505af41580156104ac573d6000803e3d6000fd5b5050835483101591506104ee90505760008282815481106104cf576104cf6117e5565b6000918252602080832090910154825285905260409020600201829055505b50505050565b60608160010180548060200260200160405190810160405280929190818152602001828054801561054457602002820191906000526020600020905b815481526020019060010190808311610530575b50505050509050919050565b60008281526020829052604081206003908101549083015411156102f9578160030182600001600085815260200190815260200160002060030154815481106102df576102df6117e5565b82516040808501516060860151608087015160a088015160008681526020898152958120600501805460018101825581835296822090960180546001600160a01b031916331790558690529354929391929091906105f99085611067565b156108b7576106088588610299565b156107895761061960018689610dd0565b6000866001600160a01b03168684600160405160240161063b93929190611661565b60408051601f198184030181529181526020820180516001600160e01b0316633fd0718160e01b1790525161067091906114c5565b6000604051808303816000865af19150503d80600081146106ad576040519150601f19603f3d011682016040523d82523d6000602084013e6106b2565b606091505b50509050811561072f576000868152602089905260409081902090516106db91600101906114e1565b604051809103902086856040516106f291906114c5565b6040519081900381208415158252907f04fe8f9cfd93054b371b8c9d7c8dd159744128334726e20da52a8ecaecabc4b09060200160405180910390a45b6000868152602089905260408120805460ff19168155906107536001830182611106565b600282016000905560038201600090556004820160006107739190611143565b610781600583016000611143565b5050506108b7565b61079560008689610dd0565b6000866001600160a01b0316868460006040516024016107b793929190611661565b60408051601f198184030181529181526020820180516001600160e01b0316633fd0718160e01b179052516107ec91906114c5565b6000604051808303816000865af19150503d8060008114610829576040519150601f19603f3d011682016040523d82523d6000602084013e61082e565b606091505b5050905061083c86896108c1565b81156108b55760008681526020899052604090819020905161086191600101906114e1565b6040518091039020868560405161087891906114c5565b6040519081900381208415158252907f236882b6fe34d6ffe9b75d5b23ba6612441f1df5f1f9a40c6eb55a5bd99bc8159060200160405180910390a45b505b5050505050505050565b60008281526020829052604081206108de91600590910190611143565b60008281526020829052604081206108fb91600490910190611143565b60009182526020526040812060030155565b82516040808501516060860151608087015160a088015160008681526020898152958120600401805460018101825581835296822090960180546001600160a01b0319163317905586905293549293919290919061096b9085611067565b156108b75761097a8588610299565b15610b02576000858152602088815260408220805460ff19166001908117909155898101805480830182558185529290932090910187905590546109be9190611736565b6000868152602089905260409020600201556109dc60018689610dd0565b6000866001600160a01b0316868460016040516024016109fe93929190611661565b60408051601f198184030181529181526020820180516001600160e01b0316637c8c2add60e01b17905251610a3391906114c5565b6000604051808303816000865af19150503d8060008114610a70576040519150601f19603f3d011682016040523d82523d6000602084013e610a75565b606091505b50509050610a8386896108c1565b8115610afc57600086815260208990526040908190209051610aa891600101906114e1565b60405180910390208685604051610abf91906114c5565b6040519081900381208415158252907f4e89f4ef2353e250f9619e74ad1063f22ed6067993e101c08cbb629b82aa678d9060200160405180910390a45b506108b7565b610b0c858861042d565b610b1860008689610dd0565b6000866001600160a01b031686846000604051602401610b3a93929190611661565b60408051601f198184030181529181526020820180516001600160e01b0316637c8c2add60e01b17905251610b6f91906114c5565b6000604051808303816000865af19150503d8060008114610bac576040519150601f19603f3d011682016040523d82523d6000602084013e610bb1565b606091505b505090508115610c2e57600086815260208990526040908190209051610bda91600101906114e1565b60405180910390208685604051610bf191906114c5565b6040519081900381208415158252907f6a8393a736871928d3418ef15e191eb9e9f2f2b0f34c7a896d0ce6472390b8709060200160405180910390a45b6000868152602089905260408120805460ff1916815590610c526001830182611106565b60028201600090556003820160009055600482016000610c729190611143565b610c80600583016000611143565b5050505050505050505050565b600082815260208290526040808220905163f7cf62d760e01b815273__AddressLibrary________________________9163f7cf62d791610cd69188916004918201910161157d565b60206040518083038186803b158015610cee57600080fd5b505af4158015610d02573d6000803e3d6000fd5b505050506040513d601f19601f82011682018060405250810190610d2691906112c0565b80610dc8575060008381526020839052604090819020905163f7cf62d760e01b815273__AddressLibrary________________________9163f7cf62d791610d7891889160059091019060040161157d565b60206040518083038186803b158015610d9057600080fd5b505af4158015610da4573d6000803e3d6000fd5b505050506040513d601f19601f82011682018060405250810190610dc891906112c0565b949350505050565b6000828152602082905260408120600301548415610df357826002019150610dfa565b8260030191505b604051637277ce1960e11b8152600481018290526024810183905273__Library_______________________________9063e4ef9c329060440160006040518083038186803b158015610e4c57600080fd5b505af4158015610e60573d6000803e3d6000fd5b5050835483101591506103749050576000828281548110610e8357610e836117e5565b6000918252602080832090910154825285905260409020600301829055505050505050565b60608060608415610f0d5783600201805480602002602001604051908101604052809291908181526020018280548015610f0157602002820191906000526020600020905b815481526020019060010190808311610eed575b50505050509050610f63565b83600301805480602002602001604051908101604052809291908181526020018280548015610f5b57602002820191906000526020600020905b815481526020019060010190808311610f47575b505050505090505b600081516001600160401b03811115610f7e57610f7e6117fb565b604051908082528060200260200182016040528015610fb157816020015b6060815260200190600190039081610f9c5790505b50905060005b825181101561101457610fe3838281518110610fd557610fd56117e5565b60200260200101518761037b565b50828281518110610ff657610ff66117e5565b6020026020010181905250808061100c906117b4565b915050610fb7565b50909590945092505050565b825160038301805460018181018355600083815260209020909101839055905461104a9190611736565b6000828152602085905260409020600301556104ee84848461090d565b600081831015611079575060006102fd565b50600192915050565b82805461108e90611779565b90600052602060002090601f0160209004810192826110b057600085556110f6565b82601f106110c957805160ff19168380011785556110f6565b828001600101855582156110f6579182015b828111156110f65782518255916020019190600101906110db565b5061110292915061115d565b5090565b50805461111290611779565b6000825580601f10611122575050565b601f016020900490600052602060002090810190611140919061115d565b50565b508054600082559060005260206000209081019061114091905b5b80821115611102576000815560010161115e565b80356001600160a01b038116811461118957600080fd5b919050565b600082601f83011261119f57600080fd5b813560206001600160401b038211156111ba576111ba6117fb565b8160051b6111c9828201611706565b8381528281019086840183880185018910156111e457600080fd5b600093505b858410156112075780358352600193909301929184019184016111e9565b50979650505050505050565b803561118981611811565b600082601f83011261122f57600080fd5b81356001600160401b03811115611248576112486117fb565b61125b601f8201601f1916602001611706565b81815284602083860101111561127057600080fd5b816020850160208301376000918101602001919091529392505050565b6000806000606084860312156112a257600080fd5b6112ab84611172565b95602085013595506040909401359392505050565b6000602082840312156112d257600080fd5b81516112dd81611811565b9392505050565b6000806000606084860312156112f957600080fd5b83356112ab81611811565b6000806040838503121561131757600080fd5b823561132281611811565b946020939093013593505050565b6000806040838503121561134357600080fd5b50508035926020909101359150565b60006020828403121561136457600080fd5b5035919050565b60008060006060848603121561138057600080fd5b83356001600160401b038082111561139757600080fd5b9085019060c082880312156113ab57600080fd5b6113b36116de565b823581526020830135828111156113c957600080fd5b6113d58982860161121e565b602083015250604083013560408201526060830135828111156113f757600080fd5b6114038982860161121e565b60608301525060808301358281111561141b57600080fd5b6114278982860161118e565b60808301525061143960a08401611213565b60a0820152945050506020840135915061145560408501611172565b90509250925092565b600081518084526020808501945080840160005b8381101561148e57815187529582019590820190600101611472565b509495945050505050565b600081518084526114b181602086016020860161174d565b601f01601f19169290920160200192915050565b600082516114d781846020870161174d565b9190910192915050565b600080835481600182811c9150808316806114fd57607f831692505b602080841082141561151d57634e487b7160e01b86526022600452602486fd5b81801561153157600181146115425761156f565b60ff1986168952848901965061156f565b60008a81526020902060005b868110156115675781548b82015290850190830161154e565b505084890196505b509498975050505050505050565b60006040820160018060a01b03808616845260206040818601528286548085526060870191508760005282600020945060005b818110156115ce5785548516835260019586019592840192016115b0565b509098975050505050505050565b6020815260006112dd602083018461145e565b604081526000611602604083018561145e565b6020838203818501528185518084528284019150828160051b85010183880160005b8381101561165257601f19878403018552611640838351611499565b94860194925090850190600101611624565b50909998505050505050505050565b6000606082018583526020606081850152818651808452608086019150828801935060005b818110156116a257845183529383019391830191600101611686565b50508093505050508215156040830152949350505050565b6040815260006116cd6040830185611499565b905082151560208301529392505050565b60405160c081016001600160401b0381118282101715611700576117006117fb565b60405290565b604051601f8201601f191681016001600160401b038111828210171561172e5761172e6117fb565b604052919050565b600082821015611748576117486117cf565b500390565b60005b83811015611768578181015183820152602001611750565b838111156104ee5750506000910152565b600181811c9082168061178d57607f821691505b602082108114156117ae57634e487b7160e01b600052602260045260246000fd5b50919050565b60006000198214156117c8576117c86117cf565b5060010190565b634e487b7160e01b600052601160045260246000fd5b634e487b7160e01b600052603260045260246000fd5b634e487b7160e01b600052604160045260246000fd5b801515811461114057600080fdfea2646970667358221220e540fc0bbd9bc68e74a3203ec6214b33d8111e0b790ef3b8cd1953037e82ca0064736f6c63430008070033",
  "immutableReferences": {},
  "source": "// SPDX-License-Identifier: GPL-3.0\r\n\r\npragma solidity >=0.7.0 <0.9.0;\r\n\r\n/**\r\n * @title Storage\r\n * @dev Store & retrieve value in a variable\r\n */\r\n\r\nimport \"./Library.sol\";\r\nimport \"../Libraries/AddressLibrary.sol\";\r\n\r\nlibrary ItemsLibrary{\r\n    using AddressLibrary for *;\r\n    using Library for *;\r\n\r\n    //events\r\n    event _AddItemValidation(bool, string indexed,  bytes32 indexed,  string indexed);\r\n    event _RemoveItemValidation(bool, string indexed,  bytes32 indexed,  string indexed);\r\n    event _AddItemRejection(bool, string indexed,  bytes32 indexed,  string indexed);\r\n    event _RemoveItemRejection(bool, string indexed,  bytes32 indexed,  string indexed);\r\n    \r\n    // Data structure\r\n    struct _itemIdentity{\r\n        bool _activated;\r\n        string _Info;\r\n        uint _id;\r\n        uint _pendingId;\r\n        address[] _Validations;\r\n        address[] _Rejections;\r\n    }\r\n\r\n    struct _ItemsStruct{\r\n        mapping(bytes32 => _itemIdentity) _items;\r\n        bytes32[] _activatedItems;\r\n        bytes32[] _pendingItemsAdd;\r\n        bytes32[] _pendingItemsRemove;\r\n    }\r\n\r\n    struct _manipulateItemStruct{\r\n        bytes32 item;\r\n        string info;\r\n        uint256 _minSignatures;\r\n        string label;\r\n        uint[] ids;\r\n        bool emitEvent;\r\n    }\r\n\r\n    // Auxiliary functions\r\n    function CheckValidations(uint256 signatures, uint256 minSignatures) public pure returns(bool){\r\n        if(signatures < minSignatures) return false;\r\n        return true;\r\n    }\r\n\r\n    function RemoveResizePending(bool addOrRemove, bytes32 item, _ItemsStruct storage itemStruct) public\r\n    {\r\n        bytes32[] storage arrayToRemoveResize;\r\n        uint position = itemStruct._items[item]._pendingId;\r\n\r\n        if(addOrRemove)arrayToRemoveResize = itemStruct._pendingItemsAdd;\r\n        else arrayToRemoveResize = itemStruct._pendingItemsRemove;\r\n\r\n        Library.ArrayRemoveResize(position, arrayToRemoveResize);\r\n\r\n        if(position < arrayToRemoveResize.length){\r\n            bytes32 ItemMoved = arrayToRemoveResize[position];\r\n            itemStruct._items[ItemMoved]._pendingId = position;\r\n        }\r\n\r\n    }\r\n\r\n    function RemoveResizeActivated(bytes32 item, _ItemsStruct storage itemStruct) public\r\n    {\r\n        bytes32[] storage arrayToRemoveResize = itemStruct._activatedItems;\r\n        uint position = itemStruct._items[item]._id;\r\n\r\n        Library.ArrayRemoveResize(position, arrayToRemoveResize);\r\n\r\n        if(position < arrayToRemoveResize.length){\r\n            bytes32 ItemMoved = arrayToRemoveResize[position];\r\n            itemStruct._items[ItemMoved]._id = position;\r\n        }\r\n\r\n    }\r\n\r\n    // ADD and REMOVE Functionality\r\n    function addItem(_manipulateItemStruct memory manipulateItemstruct, _ItemsStruct storage itemStruct, address c) public\r\n    {\r\n        bytes32 item = manipulateItemstruct.item;\r\n        string memory info = manipulateItemstruct.info;\r\n\r\n        itemStruct._items[item]._Info = info;\r\n        itemStruct._pendingItemsAdd.push(item);\r\n        itemStruct._items[item]._pendingId = itemStruct._pendingItemsAdd.length - 1;\r\n        \r\n        validateItem(manipulateItemstruct, itemStruct, c);\r\n    }\r\n     \r\n    function removeItem(_manipulateItemStruct memory manipulateItemstruct, _ItemsStruct storage itemStruct, address c) public\r\n    {\r\n        bytes32 item = manipulateItemstruct.item;\r\n\r\n        itemStruct._pendingItemsRemove.push(item);\r\n        itemStruct._items[item]._pendingId = itemStruct._pendingItemsRemove.length - 1;\r\n\r\n        validateItem(manipulateItemstruct, itemStruct, c);\r\n    }\r\n\r\n    function validateItem(_manipulateItemStruct memory manipulateItemstruct, _ItemsStruct storage itemStruct, address c) public\r\n    {\r\n        bytes32 item = manipulateItemstruct.item;\r\n        uint _minSignatures = manipulateItemstruct._minSignatures;\r\n        string memory label = manipulateItemstruct.label;\r\n        uint[] memory ids = manipulateItemstruct.ids;\r\n        bool emitEvent = manipulateItemstruct.emitEvent;\r\n\r\n        itemStruct._items[item]._Validations.push(msg.sender);\r\n\r\n        if(CheckValidations(itemStruct._items[item]._Validations.length, _minSignatures))\r\n        {\r\n            if(isItemPendingToAdded(item, itemStruct)){\r\n                itemStruct._items[item]._activated = true; \r\n                itemStruct._activatedItems.push(item);\r\n                itemStruct._items[item]._id = itemStruct._activatedItems.length - 1;\r\n\r\n                RemoveResizePending(true, item, itemStruct);\r\n                (bool success, ) = c.call(abi.encodeWithSignature(\"onItemValidated(bytes32,uint256[],bool)\", item, ids, true));\r\n                deleteVoters(item, itemStruct);\r\n                if(emitEvent) emit _AddItemValidation(success, label, item, itemStruct._items[item]._Info);\r\n            }\r\n            else{\r\n                RemoveResizeActivated(item, itemStruct);\r\n                RemoveResizePending(false, item, itemStruct);\r\n                (bool success, ) = c.call(abi.encodeWithSignature(\"onItemValidated(bytes32,uint256[],bool)\", item, ids, false));\r\n                if(emitEvent) emit _RemoveItemValidation(success, label, item, itemStruct._items[item]._Info);\r\n                delete(itemStruct._items[item]);\r\n            }   \r\n        }\r\n    }\r\n\r\n    function rejectItem(_manipulateItemStruct memory manipulateItemstruct, _ItemsStruct storage itemStruct, address c) public\r\n    {\r\n        bytes32 item = manipulateItemstruct.item;\r\n        uint _minSignatures = manipulateItemstruct._minSignatures;\r\n        string memory label = manipulateItemstruct.label;\r\n        uint[] memory ids = manipulateItemstruct.ids;\r\n        bool emitEvent = manipulateItemstruct.emitEvent;\r\n\r\n        itemStruct._items[item]._Rejections.push(msg.sender);\r\n\r\n        if(CheckValidations(itemStruct._items[item]._Rejections.length, _minSignatures)){\r\n\r\n            if(isItemPendingToAdded(item, itemStruct)){\r\n                RemoveResizePending(true, item, itemStruct);\r\n                (bool success, ) = c.call(abi.encodeWithSignature(\"onItemRejected(bytes32,uint256[],bool)\", item, ids, true)); \r\n                if(emitEvent) emit _AddItemRejection(success, label, item, itemStruct._items[item]._Info);\r\n                delete(itemStruct._items[item]);\r\n            }\r\n            else{\r\n                RemoveResizePending(false, item, itemStruct);\r\n                (bool success, ) = c.call(abi.encodeWithSignature(\"onItemRejected(bytes32,uint256[],bool)\", item, ids, false));\r\n                deleteVoters(item, itemStruct);\r\n                if(emitEvent) emit _RemoveItemRejection(success, label, item, itemStruct._items[item]._Info);\r\n            }\r\n                \r\n        }\r\n    }\r\n\r\n    function deleteVoters(bytes32 item, _ItemsStruct storage itemStruct) public{\r\n        delete(itemStruct._items[item]._Rejections);\r\n        delete(itemStruct._items[item]._Validations);\r\n        itemStruct._items[item]._pendingId = 0;\r\n    }\r\n\r\n    // READ Data\r\n\r\n    function isItem(bytes32 item, _ItemsStruct storage itemStruct) public view returns(bool){\r\n        return itemStruct._items[item]._activated;\r\n    }\r\n\r\n    function isItemPendingToAdded(bytes32 item, _ItemsStruct storage itemStruct) public view returns(bool)\r\n    {\r\n        if(itemStruct._pendingItemsAdd.length > itemStruct._items[item]._pendingId){\r\n            if(item == itemStruct._pendingItemsAdd[itemStruct._items[item]._pendingId]) return true;\r\n        }\r\n        return false;\r\n    }\r\n\r\n    function isItemPendingToRemoved(bytes32 item, _ItemsStruct storage itemStruct) public view returns(bool)\r\n    {\r\n        if(itemStruct._pendingItemsRemove.length > itemStruct._items[item]._pendingId){\r\n            if(item == itemStruct._pendingItemsRemove[itemStruct._items[item]._pendingId]) return true;\r\n        }\r\n        return false;\r\n    }\r\n\r\n    function retrievePendingItems(bool addORemove, _ItemsStruct storage itemStruct) public view returns (bytes32[] memory, string[] memory)\r\n    {\r\n        bytes32[] memory Items;\r\n\r\n        if(addORemove) Items = itemStruct._pendingItemsAdd;\r\n        else Items = itemStruct._pendingItemsRemove;\r\n\r\n        string[] memory Items_Info = new string[](Items.length);\r\n\r\n        for(uint i=0; i < Items.length; i++){\r\n            (Items_Info[i],) = retrieveItem(Items[i], itemStruct);\r\n        }\r\n        \r\n        return(Items, Items_Info);\r\n    }\r\n\r\n    function retrieveItem(bytes32 item, _ItemsStruct storage itemStruct) public view returns (string memory, bool) \r\n    {\r\n        return (itemStruct._items[item]._Info, isItem(item, itemStruct));\r\n    }\r\n\r\n    function retrieveAllItems(_ItemsStruct storage itemStruct) public view returns (bytes32[] memory) \r\n    {\r\n        return itemStruct._activatedItems;\r\n    }\r\n\r\n    function hasVoted(address add, bytes32 item, _ItemsStruct storage itemStruct) public view returns (bool) \r\n    {\r\n        return (AddressLibrary.FindAddress(add, itemStruct._items[item]._Validations) ||\r\n                AddressLibrary.FindAddress(add, itemStruct._items[item]._Rejections));\r\n    }\r\n\r\n}",
  "sourcePath": "C:\\Users\\d-aam\\GitHub\\Certificates\\contracts\\Libraries\\ItemsLibrary.sol",
  "compiler": {
    "name": "solc",
    "version": "0.8.7+commit.e28d00a7.Emscripten.clang"
  },
  "schemaVersion": "3.3.4",
  "updatedAt": "2021-08-18T09:05:33.335Z",
  "devdoc": {
    "kind": "dev",
    "methods": {},
    "version": 1
  },
  "userdoc": {
    "kind": "user",
    "methods": {},
    "version": 1
  }
}