{
  "contractName": "Library",
  "abi": [
    {
      "inputs": [
        {
          "internalType": "uint256",
          "name": "Id",
          "type": "uint256"
        },
        {
          "internalType": "uint256",
          "name": "length",
          "type": "uint256"
        }
      ],
      "name": "IdCorrect",
      "outputs": [
        {
          "internalType": "bool",
          "name": "",
          "type": "bool"
        }
      ],
      "stateMutability": "pure",
      "type": "function"
    },
    {
      "inputs": [
        {
          "internalType": "address",
          "name": "someone",
          "type": "address"
        }
      ],
      "name": "ItIsSomeone",
      "outputs": [
        {
          "internalType": "bool",
          "name": "",
          "type": "bool"
        }
      ],
      "stateMutability": "view",
      "type": "function"
    },
    {
      "inputs": [
        {
          "internalType": "bytes32",
          "name": "data",
          "type": "bytes32"
        },
        {
          "internalType": "bytes32[]",
          "name": "list",
          "type": "bytes32[]"
        }
      ],
      "name": "FindPosition",
      "outputs": [
        {
          "internalType": "uint256",
          "name": "",
          "type": "uint256"
        }
      ],
      "stateMutability": "pure",
      "type": "function"
    },
    {
      "inputs": [
        {
          "internalType": "uint256",
          "name": "index",
          "type": "uint256"
        },
        {
          "internalType": "bytes32[]",
          "name": "array",
          "type": "bytes32[]"
        }
      ],
      "name": "ArrayRemoveResize",
      "outputs": [
        {
          "internalType": "bytes32[]",
          "name": "",
          "type": "bytes32[]"
        }
      ],
      "stateMutability": "pure",
      "type": "function"
    },
    {
      "inputs": [
        {
          "internalType": "bytes32",
          "name": "element",
          "type": "bytes32"
        }
      ],
      "name": "BytesToString",
      "outputs": [
        {
          "internalType": "string",
          "name": "",
          "type": "string"
        }
      ],
      "stateMutability": "pure",
      "type": "function"
    }
  ],
  "bytecode": "0x61059c61003a600b82828239805160001a60731461002d57634e487b7160e01b600052600060045260246000fd5b30600052607381538281f3fe73000000000000000000000000000000000000000030146080604052600436106100615760003560e01c80632477a0ea146100665780632b01313e1461008e578063587eda65146100af5780635b28cf63146100cf578063d1d719d0146100ef575b600080fd5b61007961007436600461041f565b610102565b60405190151581526020015b60405180910390f35b6100a161009c3660046103d9565b61010c565b604051908152602001610085565b6100c26100bd3660046103c0565b610168565b6040516100859190610485565b6100e26100dd3660046103d9565b610193565b6040516100859190610441565b6100796100fd366004610397565b6102d4565b8181115b92915050565b6000805b82518110156101535782818151811061012b5761012b61053a565b6020026020010151841415610141579050610106565b8061014b81610509565b915050610110565b5081516101619060016104da565b9392505050565b60608160405160200161017d91815260200190565b6040516020818303038152906040529050919050565b60608282516101a28282610102565b15156001146101dd5760405162461bcd60e51b815260206004820152600360248201526245433160e81b604482015260640160405180910390fd5b6000600185516101ed91906104f2565b6001600160401b0381111561020457610204610550565b60405190808252806020026020018201604052801561022d578160200160208202803683370190505b509050846001865161023f91906104f2565b8151811061024f5761024f61053a565b60200260200101518587815181106102695761026961053a565b60200260200101818152505060005b81518110156102ca578581815181106102935761029361053a565b60200260200101518282815181106102ad576102ad61053a565b6020908102919091010152806102c281610509565b915050610278565b5095945050505050565b6000336001600160a01b03831614156102ef57506001919050565b506000919050565b600082601f83011261030857600080fd5b813560206001600160401b038083111561032457610324610550565b8260051b604051601f19603f8301168101818110848211171561034957610349610550565b6040528481528381019250868401828801850189101561036857600080fd5b600092505b8583101561038b57803584529284019260019290920191840161036d565b50979650505050505050565b6000602082840312156103a957600080fd5b81356001600160a01b038116811461016157600080fd5b6000602082840312156103d257600080fd5b5035919050565b600080604083850312156103ec57600080fd5b8235915060208301356001600160401b0381111561040957600080fd5b610415858286016102f7565b9150509250929050565b6000806040838503121561043257600080fd5b50508035926020909101359150565b6020808252825182820181905260009190848201906040850190845b818110156104795783518352928401929184019160010161045d565b50909695505050505050565b600060208083528351808285015260005b818110156104b257858101830151858201604001528201610496565b818111156104c4576000604083870101525b50601f01601f1916929092016040019392505050565b600082198211156104ed576104ed610524565b500190565b60008282101561050457610504610524565b500390565b600060001982141561051d5761051d610524565b5060010190565b634e487b7160e01b600052601160045260246000fd5b634e487b7160e01b600052603260045260246000fd5b634e487b7160e01b600052604160045260246000fdfea26469706673582212206d7663523a2bbd699acf735f52a03f814280b9170b3ac39e799a43444dc2e2c264736f6c63430008060033",
  "immutableReferences": {},
  "source": "// SPDX-License-Identifier: GPL-3.0\r\n\r\npragma solidity >=0.7.0 <0.9.0;\r\npragma experimental ABIEncoderV2;\r\n\r\n/**\r\n * @title Storage\r\n * @dev Store & retrieve value in a variable\r\n */\r\n\r\nlibrary Library{\r\n\r\n    // enum\r\n    enum Prices{NewProvider, NewPool, NewCertificate, NewProviderContract}\r\n\r\n    // modifier\r\n    modifier isIdCorrect(uint Id, uint length){\r\n        require(true == IdCorrect(Id, length), \"EC1\");\r\n        _;\r\n    }\r\n\r\n    // auxiliary functions\r\n    function IdCorrect(uint Id, uint length) public pure returns (bool){\r\n        return (length > Id);\r\n    }\r\n\r\n    function ItIsSomeone(address someone) public view returns(bool){\r\n        if(msg.sender == someone) return true;\r\n        return false;\r\n    }\r\n\r\n    function FindPosition(bytes32 data, bytes32[] memory list) public pure returns (uint){\r\n        for(uint i=0; i < list.length; i++){\r\n            if(data == list[i]) return i;\r\n        }\r\n\r\n        return list.length + 1;\r\n    }\r\n\r\n    function ArrayRemoveResize(uint index, bytes32[] memory array) public \r\n        isIdCorrect(index, array.length)\r\n    pure returns(bytes32[] memory) \r\n    {\r\n        bytes32[] memory newArray = new bytes32[](array.length - 1);\r\n        array[index] = array[array.length - 1];\r\n        \r\n        for(uint i=0; i < newArray.length; i++){\r\n            newArray[i] = array[i];\r\n        }\r\n        \r\n        return newArray;\r\n    }\r\n\r\n    function BytesToString(bytes32 element) public pure returns(string memory){\r\n        return string(abi.encodePacked(element));\r\n    }\r\n    \r\n}",
  "sourcePath": "C:\\Users\\d-aam\\GitHub\\Certificates\\contracts\\Libraries\\Library.sol",
  "compiler": {
    "name": "solc",
    "version": "0.8.6+commit.11564f7e.Emscripten.clang"
  },
  "schemaVersion": "3.3.4",
  "updatedAt": "2021-08-05T07:23:02.675Z",
  "devdoc": {
    "details": "Store & retrieve value in a variable",
    "kind": "dev",
    "methods": {},
    "title": "Storage",
    "version": 1
  },
  "userdoc": {
    "kind": "user",
    "methods": {},
    "version": 1
  }
}