{
  "contractName": "Library",
  "abi": [
    {
      "inputs": [
        {
          "internalType": "uint256",
          "name": "Id",
          "type": "uint256"
        },
        {
          "internalType": "uint256",
          "name": "length",
          "type": "uint256"
        }
      ],
      "name": "IdCorrect",
      "outputs": [
        {
          "internalType": "bool",
          "name": "",
          "type": "bool"
        }
      ],
      "stateMutability": "pure",
      "type": "function"
    },
    {
      "inputs": [
        {
          "internalType": "address",
          "name": "someone",
          "type": "address"
        }
      ],
      "name": "ItIsSomeone",
      "outputs": [
        {
          "internalType": "bool",
          "name": "",
          "type": "bool"
        }
      ],
      "stateMutability": "view",
      "type": "function"
    }
  ],
  "bytecode": "0x61026661003a600b82828239805160001a60731461002d57634e487b7160e01b600052600060045260246000fd5b30600052607381538281f3fe730000000000000000000000000000000000000000301460806040526004361061004b5760003560e01c80632477a0ea14610050578063d1d719d014610076578063e4ef9c3214610089575b600080fd5b61006261005e3660046101bd565b1190565b604051901515815260200160405180910390f35b61006261008436600461018d565b6100ab565b81801561009557600080fd5b506100a96100a43660046101bd565b6100ce565b005b6000336001600160a01b03831614156100c657506001919050565b506000919050565b805482906001828211146101165760405162461bcd60e51b815260040161010d906020808252600490820152634543312d60e01b604082015260600190565b60405180910390fd5b82548390610126906001906101df565b815481106101365761013661021a565b90600052602060002001548385815481106101535761015361021a565b90600052602060002001819055508280548061017157610171610204565b6001900381819060005260206000200160009055905550505050565b60006020828403121561019f57600080fd5b81356001600160a01b03811681146101b657600080fd5b9392505050565b600080604083850312156101d057600080fd5b50508035926020909101359150565b6000828210156101ff57634e487b7160e01b600052601160045260246000fd5b500390565b634e487b7160e01b600052603160045260246000fd5b634e487b7160e01b600052603260045260246000fdfea2646970667358221220dd27a760ab8d954d7b4fcdb69ad891d292f87d108d4ff18bdbd3d9bc1c5e031064736f6c63430008070033",
  "immutableReferences": {},
  "source": "// SPDX-License-Identifier: GPL-3.0\r\n\r\npragma solidity >=0.7.0 <0.9.0;\r\n\r\n/**\r\n * @title Storage\r\n * @dev Store & retrieve value in a variable\r\n */\r\n\r\nlibrary Library{\r\n\r\n    // enum\r\n    enum Prices{NewProvider, NewPool, NewCertificate, NewProviderContract}\r\n\r\n    // modifier\r\n    modifier isIdCorrect(uint Id, uint length){\r\n        require(true == IdCorrect(Id, length), \"EC1-\");\r\n        _;\r\n    }\r\n\r\n    // Structures\r\n    // Certificate Manager\r\n    struct ProposedContractsStruct{\r\n        address NewPublicPoolAddress;\r\n        address NewTreasuryAddress;\r\n        address NewCertisTokenAddress;\r\n        address NewPrivatePoolFactoryAddress;\r\n        address NewPrivatePoolAddress;\r\n        address NewProviderFactoryAddress;\r\n        address NewProviderAddress;\r\n        bytes NewPublicPoolData;\r\n        bytes NewTreasuryData;\r\n        bytes NewCertisTokenData;\r\n        bytes NewPrivatePoolFactoryData;\r\n        bytes NewProviderFactoryData;\r\n    }\r\n\r\n    // Pending Certificates\r\n    struct _pendingCertificatesStruct{\r\n        address pool;\r\n        address holder;\r\n        bytes32 certificate;\r\n    }\r\n\r\n    // auxiliary functions\r\n    function IdCorrect(uint Id, uint length) public pure returns (bool){\r\n        return (length > Id);\r\n    }\r\n\r\n    function ItIsSomeone(address someone) public view returns(bool){\r\n        if(msg.sender == someone) return true;\r\n        return false;\r\n    }\r\n\r\n    function ArrayRemoveResize(uint index, bytes32[] storage array) public \r\n        isIdCorrect(index, array.length) \r\n    {\r\n        array[index] = array[array.length - 1];\r\n        array.pop();\r\n    }\r\n\r\n    function Bytes32ArrayToString(bytes32[] memory element) internal pure returns(string memory){\r\n        return string(abi.encodePacked(element));\r\n    }\r\n\r\n    function BytestoBytes32(bytes memory _b) private pure returns(bytes32[] memory){\r\n        uint num = _b.length / 32;\r\n        bytes32[] memory result = new bytes32[](num + 1);\r\n        uint t = 0;\r\n        \r\n        for(uint i=0; i<_b.length; i = i + 32){\r\n            bytes32 r;\r\n            uint p = i + 32;\r\n             assembly {\r\n                r := mload(add(_b, p))\r\n            }\r\n            result[t] = r;\r\n            t += 1;\r\n        }\r\n       \r\n        return result;\r\n    }\r\n    \r\n}",
  "sourcePath": "C:\\Users\\d-aam\\GitHub\\Certificates\\contracts\\Libraries\\Library.sol",
  "compiler": {
    "name": "solc",
    "version": "0.8.7+commit.e28d00a7.Emscripten.clang"
  },
  "schemaVersion": "3.3.4",
  "updatedAt": "2021-08-24T12:42:49.699Z",
  "devdoc": {
    "details": "Store & retrieve value in a variable",
    "kind": "dev",
    "methods": {},
    "title": "Storage",
    "version": 1
  },
  "userdoc": {
    "kind": "user",
    "methods": {},
    "version": 1
  }
}