{
  "contractName": "Library",
  "abi": [
    {
      "inputs": [
        {
          "internalType": "uint256",
          "name": "Id",
          "type": "uint256"
        },
        {
          "internalType": "uint256",
          "name": "length",
          "type": "uint256"
        }
      ],
      "name": "IdCorrect",
      "outputs": [
        {
          "internalType": "bool",
          "name": "",
          "type": "bool"
        }
      ],
      "stateMutability": "pure",
      "type": "function"
    },
    {
      "inputs": [
        {
          "internalType": "uint256",
          "name": "index",
          "type": "uint256"
        },
        {
          "internalType": "bytes32[]",
          "name": "array",
          "type": "bytes32[]"
        }
      ],
      "name": "ArrayRemoveResize",
      "outputs": [
        {
          "internalType": "bytes32[]",
          "name": "",
          "type": "bytes32[]"
        }
      ],
      "stateMutability": "pure",
      "type": "function"
    }
  ],
  "bytecode": "0x6103ac61003a600b82828239805160001a60731461002d57634e487b7160e01b600052600060045260246000fd5b30600052607381538281f3fe73000000000000000000000000000000000000000030146080604052600436106100405760003560e01c80632477a0ea146100455780635b28cf631461006c575b600080fd5b61005761005336600461029c565b1190565b60405190151581526020015b60405180910390f35b61007f61007a3660046101cc565b61008c565b60405161006391906102be565b606082825161009a82821190565b15156001146100d55760405162461bcd60e51b815260206004820152600360248201526245433160e81b604482015260640160405180910390fd5b6000600185516100e59190610302565b6001600160401b038111156100fc576100fc610360565b604051908082528060200260200182016040528015610125578160200160208202803683370190505b50905084600186516101379190610302565b815181106101475761014761034a565b60200260200101518587815181106101615761016161034a565b60200260200101818152505060005b81518110156101c25785818151811061018b5761018b61034a565b60200260200101518282815181106101a5576101a561034a565b6020908102919091010152806101ba81610319565b915050610170565b5095945050505050565b600080604083850312156101df57600080fd5b823591506020808401356001600160401b03808211156101fe57600080fd5b818601915086601f83011261021257600080fd5b81358181111561022457610224610360565b8060051b604051601f19603f8301168101818110858211171561024957610249610360565b604052828152858101935084860182860187018b101561026857600080fd5b600095505b8386101561028b57803585526001959095019493860193860161026d565b508096505050505050509250929050565b600080604083850312156102af57600080fd5b50508035926020909101359150565b6020808252825182820181905260009190848201906040850190845b818110156102f6578351835292840192918401916001016102da565b50909695505050505050565b60008282101561031457610314610334565b500390565b600060001982141561032d5761032d610334565b5060010190565b634e487b7160e01b600052601160045260246000fd5b634e487b7160e01b600052603260045260246000fd5b634e487b7160e01b600052604160045260246000fdfea264697066735822122097095248fd14ad5a3a1dbd46570713fc80a94d2af162ce7ea645e6d454a8e04764736f6c63430008060033",
  "immutableReferences": {},
  "source": "// SPDX-License-Identifier: GPL-3.0\r\n\r\npragma solidity >=0.7.0 <0.9.0;\r\npragma experimental ABIEncoderV2;\r\n\r\n/**\r\n * @title Storage\r\n * @dev Store & retrieve value in a variable\r\n */\r\n\r\nlibrary Library{\r\n\r\n    // enum\r\n    enum Prices{NewProvider, NewPool, NewCertificate}\r\n\r\n    // modifier\r\n    modifier isIdCorrect(uint Id, uint length){\r\n        require(true == IdCorrect(Id, length), \"EC1\");\r\n        _;\r\n    }\r\n\r\n    // auxiliary functions\r\n    function IdCorrect(uint Id, uint length) public pure returns (bool){\r\n        return (length > Id);\r\n    }\r\n\r\n    function CheckValidations(uint256 signatures, uint256 minSignatures) internal pure returns(bool){\r\n        if(signatures < minSignatures) return false;\r\n        return true;\r\n    }\r\n\r\n    function ItIsSomeone(address someone) internal view returns(bool){\r\n        if(msg.sender == someone) return true;\r\n        return false;\r\n    }\r\n\r\n    function FindPosition(bytes32 data, bytes32[] memory list) internal pure returns (uint){\r\n        for(uint i=0; i < list.length; i++){\r\n            if(data == list[i]) return i;\r\n        }\r\n\r\n        return list.length + 1;\r\n    }\r\n\r\n    function ArrayRemoveResize(uint index, bytes32[] memory array) public \r\n        isIdCorrect(index, array.length)\r\n    pure returns(bytes32[] memory) \r\n    {\r\n        bytes32[] memory newArray = new bytes32[](array.length - 1);\r\n        array[index] = array[array.length - 1];\r\n        \r\n        for(uint i=0; i < newArray.length; i++){\r\n            newArray[i] = array[i];\r\n        }\r\n        \r\n        return newArray;\r\n    }\r\n\r\n    function BytesToString(bytes32 element) internal pure returns(string memory){\r\n        return string(abi.encodePacked(element));\r\n    }\r\n    \r\n}",
  "sourcePath": "C:\\Users\\d-aam\\GitHub\\Certificates\\contracts\\Libraries\\Library.sol",
  "compiler": {
    "name": "solc",
    "version": "0.8.6+commit.11564f7e.Emscripten.clang"
  },
  "schemaVersion": "3.3.4",
  "updatedAt": "2021-07-23T14:39:26.222Z",
  "devdoc": {
    "details": "Store & retrieve value in a variable",
    "kind": "dev",
    "methods": {},
    "title": "Storage",
    "version": 1
  },
  "userdoc": {
    "kind": "user",
    "methods": {},
    "version": 1
  }
}