{
  "contractName": "Library",
  "abi": [
    {
      "inputs": [
        {
          "internalType": "uint256",
          "name": "Id",
          "type": "uint256"
        },
        {
          "internalType": "uint256",
          "name": "length",
          "type": "uint256"
        }
      ],
      "name": "IdCorrect",
      "outputs": [
        {
          "internalType": "bool",
          "name": "",
          "type": "bool"
        }
      ],
      "stateMutability": "pure",
      "type": "function"
    },
    {
      "inputs": [
        {
          "internalType": "address",
          "name": "someone",
          "type": "address"
        }
      ],
      "name": "ItIsSomeone",
      "outputs": [
        {
          "internalType": "bool",
          "name": "",
          "type": "bool"
        }
      ],
      "stateMutability": "view",
      "type": "function"
    },
    {
      "inputs": [
        {
          "internalType": "bytes32",
          "name": "data",
          "type": "bytes32"
        },
        {
          "internalType": "bytes32[]",
          "name": "list",
          "type": "bytes32[]"
        }
      ],
      "name": "FindPosition",
      "outputs": [
        {
          "internalType": "uint256",
          "name": "",
          "type": "uint256"
        }
      ],
      "stateMutability": "pure",
      "type": "function"
    },
    {
      "inputs": [
        {
          "internalType": "uint256",
          "name": "index",
          "type": "uint256"
        },
        {
          "internalType": "bytes32[]",
          "name": "array",
          "type": "bytes32[]"
        }
      ],
      "name": "ArrayRemoveResize",
      "outputs": [
        {
          "internalType": "bytes32[]",
          "name": "",
          "type": "bytes32[]"
        }
      ],
      "stateMutability": "pure",
      "type": "function"
    }
  ],
  "bytecode": "0x6104d861003a600b82828239805160001a60731461002d57634e487b7160e01b600052600060045260246000fd5b30600052607381538281f3fe73000000000000000000000000000000000000000030146080604052600436106100565760003560e01c80632477a0ea1461005b5780632b01313e146100835780635b28cf63146100a4578063d1d719d0146100c4575b600080fd5b61006e6100693660046103b0565b6100d7565b60405190151581526020015b60405180910390f35b61009661009136600461036a565b6100e1565b60405190815260200161007a565b6100b76100b236600461036a565b61013d565b60405161007a91906103d2565b61006e6100d2366004610341565b61027e565b8181115b92915050565b6000805b82518110156101285782818151811061010057610100610476565b60200260200101518414156101165790506100db565b8061012081610445565b9150506100e5565b508151610136906001610416565b9392505050565b606082825161014c82826100d7565b15156001146101875760405162461bcd60e51b815260206004820152600360248201526245433160e81b604482015260640160405180910390fd5b600060018551610197919061042e565b6001600160401b038111156101ae576101ae61048c565b6040519080825280602002602001820160405280156101d7578160200160208202803683370190505b50905084600186516101e9919061042e565b815181106101f9576101f9610476565b602002602001015185878151811061021357610213610476565b60200260200101818152505060005b81518110156102745785818151811061023d5761023d610476565b602002602001015182828151811061025757610257610476565b60209081029190910101528061026c81610445565b915050610222565b5095945050505050565b6000336001600160a01b038316141561029957506001919050565b506000919050565b600082601f8301126102b257600080fd5b813560206001600160401b03808311156102ce576102ce61048c565b8260051b604051601f19603f830116810181811084821117156102f3576102f361048c565b6040528481528381019250868401828801850189101561031257600080fd5b600092505b85831015610335578035845292840192600192909201918401610317565b50979650505050505050565b60006020828403121561035357600080fd5b81356001600160a01b038116811461013657600080fd5b6000806040838503121561037d57600080fd5b8235915060208301356001600160401b0381111561039a57600080fd5b6103a6858286016102a1565b9150509250929050565b600080604083850312156103c357600080fd5b50508035926020909101359150565b6020808252825182820181905260009190848201906040850190845b8181101561040a578351835292840192918401916001016103ee565b50909695505050505050565b6000821982111561042957610429610460565b500190565b60008282101561044057610440610460565b500390565b600060001982141561045957610459610460565b5060010190565b634e487b7160e01b600052601160045260246000fd5b634e487b7160e01b600052603260045260246000fd5b634e487b7160e01b600052604160045260246000fdfea26469706673582212207def2d7ebdca93844195483340f20ea73b56986a7953ca658c708f9d3758ce6b64736f6c63430008070033",
  "immutableReferences": {},
  "source": "// SPDX-License-Identifier: GPL-3.0\r\n\r\npragma solidity >=0.7.0 <0.9.0;\r\n\r\n/**\r\n * @title Storage\r\n * @dev Store & retrieve value in a variable\r\n */\r\n\r\nlibrary Library{\r\n\r\n    // enum\r\n    enum Prices{NewProvider, NewPool, NewCertificate, NewProviderContract}\r\n\r\n    // modifier\r\n    modifier isIdCorrect(uint Id, uint length){\r\n        require(true == IdCorrect(Id, length), \"EC1\");\r\n        _;\r\n    }\r\n\r\n    // Structures\r\n    // Certificate Manager\r\n    struct ProposedContractsStruct{\r\n        address NewPublicPoolAddress;\r\n        address NewTreasuryAddress;\r\n        address NewCertisTokenAddress;\r\n        address NewPrivatePoolFactoryAddress;\r\n        address NewPrivatePoolAddress;\r\n        address NewProviderFactoryAddress;\r\n        address NewProviderAddress;\r\n        bytes NewPublicPoolData;\r\n        bytes NewTreasuryData;\r\n        bytes NewCertisTokenData;\r\n        bytes NewPrivatePoolFactoryData;\r\n        bytes NewProviderFactoryData;\r\n    }\r\n\r\n    struct InitialContractsStruct{\r\n        address payable PublicPoolProxyAddress;\r\n        address payable TreasuryProxyAddress;\r\n        address payable CertisTokenProxyAddress;\r\n        address payable PrivatePoolFactoryProxyAddress;\r\n        address PrivateCertificatePoolImplAddress;\r\n        address payable ProviderFactoryProxyAddress;\r\n        address ProviderImplAddress;\r\n    }\r\n\r\n    // auxiliary functions\r\n    function IdCorrect(uint Id, uint length) public pure returns (bool){\r\n        return (length > Id);\r\n    }\r\n\r\n    function ItIsSomeone(address someone) public view returns(bool){\r\n        if(msg.sender == someone) return true;\r\n        return false;\r\n    }\r\n\r\n    function FindPosition(bytes32 data, bytes32[] memory list) public pure returns (uint){\r\n        for(uint i=0; i < list.length; i++){\r\n            if(data == list[i]) return i;\r\n        }\r\n\r\n        return list.length + 1;\r\n    }\r\n\r\n    function ArrayRemoveResize(uint index, bytes32[] memory array) public \r\n        isIdCorrect(index, array.length)\r\n    pure returns(bytes32[] memory) \r\n    {\r\n        bytes32[] memory newArray = new bytes32[](array.length - 1);\r\n        array[index] = array[array.length - 1];\r\n        \r\n        for(uint i=0; i < newArray.length; i++){\r\n            newArray[i] = array[i];\r\n        }\r\n        \r\n        return newArray;\r\n    }\r\n\r\n    function Bytes32ArrayToString(bytes32[] memory element) internal pure returns(string memory){\r\n        return string(abi.encodePacked(element));\r\n    }\r\n\r\n    function BytestoBytes32(bytes memory _b) private pure returns(bytes32[] memory){\r\n        uint num = _b.length / 32;\r\n        bytes32[] memory result = new bytes32[](num + 1);\r\n        uint t = 0;\r\n        \r\n        for(uint i=0; i<_b.length; i = i + 32){\r\n            bytes32 r;\r\n            uint p = i + 32;\r\n             assembly {\r\n                r := mload(add(_b, p))\r\n            }\r\n            result[t] = r;\r\n            t += 1;\r\n        }\r\n       \r\n        return result;\r\n    }\r\n    \r\n}",
  "sourcePath": "C:\\Users\\d-aam\\GitHub\\Certificates\\contracts\\Libraries\\Library.sol",
  "compiler": {
    "name": "solc",
    "version": "0.8.7+commit.e28d00a7.Emscripten.clang"
  },
  "schemaVersion": "3.3.4",
  "updatedAt": "2021-08-13T10:22:41.102Z",
  "devdoc": {
    "details": "Store & retrieve value in a variable",
    "kind": "dev",
    "methods": {},
    "title": "Storage",
    "version": 1
  },
  "userdoc": {
    "kind": "user",
    "methods": {},
    "version": 1
  }
}