{
  "contractName": "Library",
  "abi": [
    {
      "inputs": [
        {
          "internalType": "enum Library.Actions",
          "name": "action",
          "type": "Library.Actions"
        },
        {
          "components": [
            {
              "internalType": "bool",
              "name": "_activated",
              "type": "bool"
            },
            {
              "internalType": "bytes",
              "name": "_Info",
              "type": "bytes"
            },
            {
              "internalType": "address[]",
              "name": "_AddValidated",
              "type": "address[]"
            },
            {
              "internalType": "address[]",
              "name": "_RemoveValidated",
              "type": "address[]"
            }
          ],
          "internalType": "struct Library._entityIdentity",
          "name": "Entity",
          "type": "tuple"
        }
      ],
      "name": "NotAlreadyVoted",
      "outputs": [],
      "stateMutability": "view",
      "type": "function"
    },
    {
      "inputs": [
        {
          "internalType": "bool",
          "name": "YesOrNo",
          "type": "bool"
        },
        {
          "components": [
            {
              "internalType": "bool",
              "name": "_activated",
              "type": "bool"
            },
            {
              "internalType": "bytes",
              "name": "_Info",
              "type": "bytes"
            },
            {
              "internalType": "address[]",
              "name": "_AddValidated",
              "type": "address[]"
            },
            {
              "internalType": "address[]",
              "name": "_RemoveValidated",
              "type": "address[]"
            }
          ],
          "internalType": "struct Library._entityIdentity",
          "name": "Entity",
          "type": "tuple"
        }
      ],
      "name": "EntityActivated",
      "outputs": [],
      "stateMutability": "pure",
      "type": "function"
    },
    {
      "inputs": [
        {
          "internalType": "uint256",
          "name": "Id",
          "type": "uint256"
        },
        {
          "internalType": "uint256",
          "name": "length",
          "type": "uint256"
        }
      ],
      "name": "IdCorrect",
      "outputs": [
        {
          "internalType": "bool",
          "name": "",
          "type": "bool"
        }
      ],
      "stateMutability": "pure",
      "type": "function"
    }
  ],
  "bytecode": "0x6104ca610026600b82828239805160001a60731461001957fe5b30600052607381538281f3fe730000000000000000000000000000000000000000301460806040526004361061004b5760003560e01c80632477a0ea14610050578063354945be14610079578063777d5c581461008e575b600080fd5b61006361005e3660046103ed565b6100a1565b604051610070919061040e565b60405180910390f35b61008c610087366004610381565b6100ab565b005b61008c61009c3660046103cd565b610112565b8181115b92915050565b816100e4576100b981610178565b156100df5760405162461bcd60e51b81526004016100d690610453565b60405180910390fd5b61010e565b6100ed81610178565b151560011461010e5760405162461bcd60e51b81526004016100d690610419565b5050565b81600181111561011e57fe5b61014d57610130338260400151610180565b156100df5760405162461bcd60e51b81526004016100d690610436565b61015b338260600151610180565b1561010e5760405162461bcd60e51b81526004016100d690610436565b80515b919050565b6000805b82518110156101cc5782818151811061019957fe5b60200260200101516001600160a01b0316846001600160a01b031614156101c45760019150506100a5565b600101610184565b5060009392505050565b600082601f8301126101e6578081fd5b8135602067ffffffffffffffff8211156101fc57fe5b80820261020a828201610470565b838152828101908684018388018501891015610224578687fd5b8693505b8584101561025a5780356001600160a01b0381168114610246578788fd5b835260019390930192918401918401610228565b50979650505050505050565b8035801515811461017b57600080fd5b600082601f830112610286578081fd5b813567ffffffffffffffff81111561029a57fe5b6102ad601f8201601f1916602001610470565b8181528460208386010111156102c1578283fd5b816020850160208301379081016020019190915292915050565b6000608082840312156102ec578081fd5b6102f66080610470565b905061030182610266565b8152602082013567ffffffffffffffff8082111561031e57600080fd5b61032a85838601610276565b6020840152604084013591508082111561034357600080fd5b61034f858386016101d6565b6040840152606084013591508082111561036857600080fd5b50610375848285016101d6565b60608301525092915050565b60008060408385031215610393578182fd5b61039c83610266565b9150602083013567ffffffffffffffff8111156103b7578182fd5b6103c3858286016102db565b9150509250929050565b600080604083850312156103df578182fd5b82356002811061039c578283fd5b600080604083850312156103ff578182fd5b50508035926020909101359150565b901515815260200190565b60208082526003908201526245433760e81b604082015260600190565b60208082526003908201526245433560e81b604082015260600190565b60208082526003908201526222a19b60e91b604082015260600190565b60405181810167ffffffffffffffff8111828210171561048c57fe5b60405291905056fea264697066735822122018da1419f703711a109e6e6b0501aff1f649fb34f3e6f62ca93e13f4eb58adbd64736f6c63430007060033",
  "immutableReferences": {},
  "source": "// SPDX-License-Identifier: GPL-3.0\r\n\r\npragma solidity >=0.7.0 <0.9.0;\r\npragma experimental ABIEncoderV2;\r\n\r\n/**\r\n * @title Storage\r\n * @dev Store & retrieve value in a variable\r\n */\r\n\r\nlibrary Library{\r\n    //Actions that can be performed on entities\r\n    enum Actions{\r\n        Add,\r\n        Remove\r\n    }\r\n\r\n    //Structures\r\n    struct _entityIdentity{\r\n        bool _activated;\r\n        bytes _Info;\r\n        address[] _AddValidated;\r\n        address[] _RemoveValidated;\r\n    }\r\n\r\n    struct _entityStruct{\r\n        mapping(address => _entityIdentity) _entities;\r\n        address[] _activatedEntities;\r\n    }\r\n\r\n\r\n    // modifier\r\n    modifier HasNotAlreadyVoted(Actions action, _entityIdentity memory Entity){\r\n        NotAlreadyVoted(action, Entity);\r\n        _;\r\n    }\r\n    \r\n    modifier isEntityActivated(bool YesOrNo, _entityIdentity memory Entity){\r\n        EntityActivated(YesOrNo, Entity);\r\n        _;\r\n    }\r\n\r\n    modifier isIdCorrect(uint Id, uint length){\r\n        require(true == IdCorrect(Id, length), \"EC1\");\r\n        _;\r\n    }\r\n\r\n    // auxiliary functions\r\n    function NotAlreadyVoted(Actions action, _entityIdentity memory Entity) public view{\r\n        if(Actions.Add == action) require(false == FindAddress(msg.sender, Entity._AddValidated), \"EC5\");\r\n        else require(false == FindAddress(msg.sender, Entity._RemoveValidated), \"EC5\");\r\n    }\r\n    \r\n    function EntityActivated(bool YesOrNo, _entityIdentity memory Entity) public pure{\r\n        if(false == YesOrNo) require(false == isEntity(Entity), \"EC6\");\r\n        else require(true == isEntity(Entity), \"EC7\");\r\n    }\r\n    \r\n    function IdCorrect(uint Id, uint length) public pure returns (bool){\r\n        return (length > Id);\r\n    }\r\n\r\n    function FindAddress(address add, address[] memory list) internal pure returns (bool){\r\n        for(uint i=0; i < list.length; i++){\r\n            if(add == list[i]) return true;\r\n        }\r\n\r\n        return false;\r\n    }\r\n\r\n    function FindAddressPosition(address add, address[] memory list) internal pure returns (uint){\r\n        for(uint i=0; i < list.length; i++){\r\n            if(add == list[i]) return i;\r\n        }\r\n\r\n        return list.length + 1;\r\n    }\r\n\r\n    function ArrayRemoveResize(uint index, bytes32[] memory array) internal \r\n        isIdCorrect(index, array.length)\r\n    pure returns(bytes32[] memory) \r\n    {\r\n        bytes32[] memory newArray = new bytes32[](array.length - 1);\r\n        array[index] = array[array.length - 1];\r\n        \r\n        for(uint i=0; i < newArray.length; i++){\r\n            newArray[i] = array[i];\r\n        }\r\n        \r\n        return newArray;\r\n    }\r\n\r\n    function Bytes32ToAddress(bytes32 data) internal pure returns (address) {\r\n        return address(uint160(uint256(data)));\r\n    }\r\n\r\n    function AddressToBytes32(address addr) internal pure returns (bytes32) {\r\n        return bytes32(uint256(uint160(addr)));\r\n    }\r\n\r\n    function ArrayBytes32ToAddress(bytes32[] memory data) internal pure returns (address[] memory) {\r\n        address[] memory returnedAddr = new address[](data.length);\r\n        for(uint i=0; i < data.length; i++){\r\n            returnedAddr[i] = Bytes32ToAddress(data[i]);\r\n        }\r\n        return returnedAddr;\r\n    }\r\n\r\n    function ArrayAddressToBytes32(address[] memory addr) internal pure returns (bytes32[] memory) {\r\n        bytes32[] memory returnedBytes = new bytes32[](addr.length);\r\n        for(uint i=0; i < addr.length; i++){\r\n            returnedBytes[i] = AddressToBytes32(addr[i]);\r\n        }\r\n        return returnedBytes;\r\n    }\r\n\r\n    function CheckValidations(uint256 signatures, uint256 minSignatures) internal pure returns(bool){\r\n        if(signatures < minSignatures) return false;\r\n        return true;\r\n    }\r\n\r\n    // functions for entities\r\n    function addEntity(address entity, bytes memory entityInfo, _entityStruct storage Entities, uint256 minSignatures) internal \r\n        isEntityActivated(false, Entities._entities[entity]) \r\n        HasNotAlreadyVoted(Actions.Add, Entities._entities[entity])\r\n    {\r\n        if(0 == Entities._entities[entity]._AddValidated.length) Entities._entities[entity]._Info = entityInfo;\r\n\r\n        Entities._entities[entity]._AddValidated.push(msg.sender);\r\n\r\n        if(CheckValidations(Entities._entities[entity]._AddValidated.length, minSignatures)){\r\n            Entities._entities[entity]._activated = true; \r\n            Entities._activatedEntities.push(entity);\r\n        }\r\n    }\r\n\r\n    function removeEntity(address entity, _entityStruct storage Entities, uint256 minSignatures) internal \r\n        isEntityActivated(true, Entities._entities[entity])\r\n        HasNotAlreadyVoted(Actions.Remove, Entities._entities[entity])\r\n    {\r\n        Entities._entities[entity]._RemoveValidated.push(msg.sender);\r\n\r\n        if(msg.sender == entity || CheckValidations(Entities._entities[entity]._RemoveValidated.length, minSignatures)){\r\n            Entities._activatedEntities = ArrayBytes32ToAddress(ArrayRemoveResize(FindAddressPosition(entity, Entities._activatedEntities), ArrayAddressToBytes32(Entities._activatedEntities)));\r\n            delete(Entities._entities[entity]);\r\n        }  \r\n       \r\n    }\r\n\r\n    function retrieveEntity(address entity, _entityStruct storage Entities) internal \r\n        isEntityActivated(true, Entities._entities[entity])\r\n    view returns (bytes memory) \r\n    {\r\n        return Entities._entities[entity]._Info;\r\n    }\r\n\r\n    function retrieveAllEntities(_entityStruct storage Entities) internal \r\n    view returns (address[] memory) \r\n    {\r\n        return Entities._activatedEntities;\r\n    }\r\n\r\n    function retrieveTotalEntities(_entityStruct storage Entities) internal \r\n    view returns (uint) \r\n    {\r\n        return Entities._activatedEntities.length;\r\n    }\r\n\r\n    function isEntity(_entityIdentity memory Entity) internal pure returns (bool){\r\n        return Entity._activated;\r\n    }\r\n}",
  "sourcePath": "C:\\Users\\d-aam\\GitHub\\Certificates\\contracts\\Libraries\\Library.sol",
  "compiler": {
    "name": "solc",
    "version": "0.7.6+commit.7338295f.Emscripten.clang"
  },
  "schemaVersion": "3.3.4",
  "updatedAt": "2021-07-02T12:37:10.359Z",
  "devdoc": {
    "details": "Store & retrieve value in a variable",
    "kind": "dev",
    "methods": {},
    "title": "Storage",
    "version": 1
  },
  "userdoc": {
    "kind": "user",
    "methods": {},
    "version": 1
  }
}