{
  "contractName": "Library",
  "abi": [
    {
      "inputs": [
        {
          "internalType": "uint256",
          "name": "Id",
          "type": "uint256"
        },
        {
          "internalType": "uint256",
          "name": "length",
          "type": "uint256"
        }
      ],
      "name": "IdCorrect",
      "outputs": [],
      "stateMutability": "pure",
      "type": "function"
    },
    {
      "inputs": [
        {
          "internalType": "address",
          "name": "addr",
          "type": "address"
        },
        {
          "internalType": "address",
          "name": "someone",
          "type": "address"
        }
      ],
      "name": "ItIsSomeone",
      "outputs": [],
      "stateMutability": "pure",
      "type": "function"
    },
    {
      "inputs": [
        {
          "internalType": "bytes32[]",
          "name": "element",
          "type": "bytes32[]"
        }
      ],
      "name": "Bytes32ArrayToString",
      "outputs": [
        {
          "internalType": "string",
          "name": "",
          "type": "string"
        }
      ],
      "stateMutability": "pure",
      "type": "function"
    },
    {
      "inputs": [
        {
          "internalType": "bytes",
          "name": "_b",
          "type": "bytes"
        }
      ],
      "name": "BytestoBytes32",
      "outputs": [
        {
          "internalType": "bytes32[]",
          "name": "",
          "type": "bytes32[]"
        }
      ],
      "stateMutability": "pure",
      "type": "function"
    },
    {
      "inputs": [
        {
          "internalType": "bytes32",
          "name": "_b",
          "type": "bytes32"
        }
      ],
      "name": "Bytes32toBytes",
      "outputs": [
        {
          "internalType": "bytes",
          "name": "",
          "type": "bytes"
        }
      ],
      "stateMutability": "pure",
      "type": "function"
    }
  ],
  "bytecode": "0x6106f061003a600b82828239805160001a60731461002d57634e487b7160e01b600052600060045260246000fd5b30600052607381538281f3fe730000000000000000000000000000000000000000301460806040526004361061006c5760003560e01c80632477a0ea1461007157806337ea3063146100865780634b648f11146100995780639bc6133c146100c2578063caa8f589146100d5578063e4ef9c32146100f5575b600080fd5b61008461007f3660046104de565b610115565b005b610084610094366004610352565b61015a565b6100ac6100a7366004610385565b6101a4565b6040516100b991906105c7565b60405180910390f35b6100ac6100d0366004610431565b6101cd565b6100e86100e336600461044a565b6101e2565b6040516100b99190610583565b81801561010157600080fd5b506100846101103660046104de565b6102b4565b8181116101565760405162461bcd60e51b815260040161014d906020808252600490820152634543312d60e01b604082015260600190565b60405180910390fd5b5050565b816001600160a01b0316816001600160a01b0316146101565760405162461bcd60e51b815260040161014d906020808252600490820152634543382d60e01b604082015260600190565b6060816040516020016101b7919061054d565b6040516020818303038152906040529050919050565b6060816040516020016101b791815260200190565b60606000602083516101f49190610629565b90506000610203826001610611565b6001600160401b0381111561021a5761021a6106a4565b604051908082528060200260200182016040528015610243578160200160208202803683370190505b5090506000805b85518110156102aa57600080610261836020610611565b90508088015191508185858151811061027c5761027c61068e565b6020908102919091010152610292600185610611565b935050508060206102a39190610611565b905061024a565b5090949350505050565b80546102c1908390610115565b805481906102d19060019061064b565b815481106102e1576102e161068e565b90600052602060002001548183815481106102fe576102fe61068e565b90600052602060002001819055508080548061031c5761031c610678565b600190038181906000526020600020016000905590555050565b80356001600160a01b038116811461034d57600080fd5b919050565b6000806040838503121561036557600080fd5b61036e83610336565b915061037c60208401610336565b90509250929050565b6000602080838503121561039857600080fd5b82356001600160401b03808211156103af57600080fd5b818501915085601f8301126103c357600080fd5b8135818111156103d5576103d56106a4565b8060051b91506103e68483016105e1565b8181528481019084860184860187018a101561040157600080fd5b600095505b83861015610424578035835260019590950194918601918601610406565b5098975050505050505050565b60006020828403121561044357600080fd5b5035919050565b6000602080838503121561045d57600080fd5b82356001600160401b038082111561047457600080fd5b818501915085601f83011261048857600080fd5b81358181111561049a5761049a6106a4565b6104ac601f8201601f191685016105e1565b915080825286848285010111156104c257600080fd5b8084840185840137600090820190930192909252509392505050565b600080604083850312156104f157600080fd5b50508035926020909101359150565b6000815180845260005b818110156105265760208185018101518683018201520161050a565b81811115610538576000602083870101525b50601f01601f19169290920160200192915050565b815160009082906020808601845b838110156105775781518552938201939082019060010161055b565b50929695505050505050565b6020808252825182820181905260009190848201906040850190845b818110156105bb5783518352928401929184019160010161059f565b50909695505050505050565b6020815260006105da6020830184610500565b9392505050565b604051601f8201601f191681016001600160401b0381118282101715610609576106096106a4565b604052919050565b6000821982111561062457610624610662565b500190565b60008261064657634e487b7160e01b600052601260045260246000fd5b500490565b60008282101561065d5761065d610662565b500390565b634e487b7160e01b600052601160045260246000fd5b634e487b7160e01b600052603160045260246000fd5b634e487b7160e01b600052603260045260246000fd5b634e487b7160e01b600052604160045260246000fdfea2646970667358221220e23cf055328ac066163d3d730aa014069c06e0c0cfe01b058b4853879b95e35a64736f6c63430008070033",
  "immutableReferences": {},
  "source": "// SPDX-License-Identifier: GPL-3.0\r\n\r\npragma solidity 0.8.7;\r\n\r\n/*\r\nCommon functionality for all contracts and libraries\r\n*/\r\n\r\nlibrary Library{\r\n\r\n    // DATA /////////////////////////////////////////\r\n    // enum\r\n    enum Prices{NewProvider, NewPool, NewCertificate, NewProviderContract}\r\n\r\n    // Structures\r\n    // Certificate Manager\r\n    struct ProposedContractsStruct{\r\n        address NewPublicPoolAddress;\r\n        address NewTreasuryAddress;\r\n        address NewCertisTokenAddress;\r\n        address NewPrivatePoolFactoryAddress;\r\n        address NewPrivatePoolAddress;\r\n        address NewProviderFactoryAddress;\r\n        address NewProviderAddress;\r\n        address NewPriceConverterAddress;\r\n        address NewPropositionSettingsAddress;\r\n        address NewENSAddress;\r\n        bytes NewPublicPoolData;\r\n        bytes NewTreasuryData;\r\n        bytes NewCertisTokenData;\r\n        bytes NewPrivatePoolFactoryData;\r\n        bytes NewProviderFactoryData;\r\n        bytes NewPriceConverterData;\r\n        bytes NewPropositionSettingsData;\r\n        bytes NewENSData;\r\n        string NewPrivatePoolContractName;\r\n        string NewPrivatePoolContractVersion;\r\n    }\r\n\r\n    // Pending Certificates\r\n    struct _pendingCertificatesStruct{\r\n        address pool;\r\n        address holder;\r\n        bytes32 certificate;\r\n    }\r\n\r\n    // FUNCTIONALITY /////////////////////////////////////////\r\n    function IdCorrect(uint Id, uint length) public pure{\r\n        require(length > Id, \"EC1-\");\r\n    }\r\n\r\n    function ItIsSomeone(address addr, address someone) public pure{\r\n        require(someone == addr, \"EC8-\");\r\n    }\r\n\r\n    function ArrayRemoveResize(uint index, bytes32[] storage array) public \r\n    {\r\n        IdCorrect(index, array.length);\r\n        array[index] = array[array.length - 1];\r\n        array.pop();\r\n    }\r\n\r\n    function Bytes32ArrayToString(bytes32[] memory element) public pure returns(string memory){\r\n        return string(abi.encodePacked(element));\r\n    }\r\n\r\n    function BytestoBytes32(bytes memory _b) public pure returns(bytes32[] memory){\r\n        uint num = _b.length / 32;\r\n        bytes32[] memory result = new bytes32[](num + 1);\r\n        uint t = 0;\r\n        \r\n        for(uint i=0; i<_b.length; i = i + 32){\r\n            bytes32 r;\r\n            uint p = i + 32;\r\n             assembly {\r\n                r := mload(add(_b, p))\r\n            }\r\n            result[t] = r;\r\n            t += 1;\r\n        }\r\n       \r\n        return result;\r\n    }\r\n\r\n    function Bytes32toBytes(bytes32 _b) public pure returns(bytes memory){\r\n        return abi.encodePacked(_b);\r\n    }\r\n    \r\n}",
  "sourcePath": "C:\\Users\\d-aam\\GitHub\\Certificates\\contracts\\Libraries\\Library.sol",
  "compiler": {
    "name": "solc",
    "version": "0.8.7+commit.e28d00a7.Emscripten.clang"
  },
  "schemaVersion": "3.3.4",
  "updatedAt": "2021-11-03T08:46:09.915Z",
  "devdoc": {
    "kind": "dev",
    "methods": {},
    "version": 1
  },
  "userdoc": {
    "kind": "user",
    "methods": {},
    "version": 1
  }
}