{
  "contractName": "Library",
  "abi": [
    {
      "inputs": [
        {
          "internalType": "uint256",
          "name": "Id",
          "type": "uint256"
        },
        {
          "internalType": "uint256",
          "name": "length",
          "type": "uint256"
        }
      ],
      "name": "IdCorrect",
      "outputs": [
        {
          "internalType": "bool",
          "name": "",
          "type": "bool"
        }
      ],
      "stateMutability": "pure",
      "type": "function"
    },
    {
      "inputs": [
        {
          "internalType": "address",
          "name": "someone",
          "type": "address"
        }
      ],
      "name": "ItIsSomeone",
      "outputs": [
        {
          "internalType": "bool",
          "name": "",
          "type": "bool"
        }
      ],
      "stateMutability": "view",
      "type": "function"
    },
    {
      "inputs": [
        {
          "internalType": "bytes32[]",
          "name": "element",
          "type": "bytes32[]"
        }
      ],
      "name": "Bytes32ArrayToString",
      "outputs": [
        {
          "internalType": "string",
          "name": "",
          "type": "string"
        }
      ],
      "stateMutability": "pure",
      "type": "function"
    },
    {
      "inputs": [
        {
          "internalType": "bytes",
          "name": "_b",
          "type": "bytes"
        }
      ],
      "name": "BytestoBytes32",
      "outputs": [
        {
          "internalType": "bytes32[]",
          "name": "",
          "type": "bytes32[]"
        }
      ],
      "stateMutability": "pure",
      "type": "function"
    }
  ],
  "bytecode": "0x61064f61003a600b82828239805160001a60731461002d57634e487b7160e01b600052600060045260246000fd5b30600052607381538281f3fe73000000000000000000000000000000000000000030146080604052600436106100615760003560e01c80632477a0ea146100665780634b648f111461008d578063caa8f589146100ad578063d1d719d0146100cd578063e4ef9c32146100e0575b600080fd5b61007861007436600461044f565b1190565b60405190151581526020015b60405180910390f35b6100a061009b36600461030f565b610102565b60405161008491906104eb565b6100c06100bb3660046103bb565b61012b565b60405161008491906104a7565b6100786100db3660046102df565b6101fd565b8180156100ec57600080fd5b506101006100fb36600461044f565b610220565b005b6060816040516020016101159190610471565b6040516020818303038152906040529050919050565b606060006020835161013d9190610588565b9050600061014c826001610570565b6001600160401b0381111561016357610163610603565b60405190808252806020026020018201604052801561018c578160200160208202803683370190505b5090506000805b85518110156101f3576000806101aa836020610570565b9050808801519150818585815181106101c5576101c56105ed565b60209081029190910101526101db600185610570565b935050508060206101ec9190610570565b9050610193565b5090949350505050565b6000336001600160a01b038316141561021857506001919050565b506000919050565b805482906001828211146102685760405162461bcd60e51b815260040161025f906020808252600490820152634543312d60e01b604082015260600190565b60405180910390fd5b82548390610278906001906105aa565b81548110610288576102886105ed565b90600052602060002001548385815481106102a5576102a56105ed565b9060005260206000200181905550828054806102c3576102c36105d7565b6001900381819060005260206000200160009055905550505050565b6000602082840312156102f157600080fd5b81356001600160a01b038116811461030857600080fd5b9392505050565b6000602080838503121561032257600080fd5b82356001600160401b038082111561033957600080fd5b818501915085601f83011261034d57600080fd5b81358181111561035f5761035f610603565b8060051b9150610370848301610540565b8181528481019084860184860187018a101561038b57600080fd5b600095505b838610156103ae578035835260019590950194918601918601610390565b5098975050505050505050565b600060208083850312156103ce57600080fd5b82356001600160401b03808211156103e557600080fd5b818501915085601f8301126103f957600080fd5b81358181111561040b5761040b610603565b61041d601f8201601f19168501610540565b9150808252868482850101111561043357600080fd5b8084840185840137600090820190930192909252509392505050565b6000806040838503121561046257600080fd5b50508035926020909101359150565b815160009082906020808601845b8381101561049b5781518552938201939082019060010161047f565b50929695505050505050565b6020808252825182820181905260009190848201906040850190845b818110156104df578351835292840192918401916001016104c3565b50909695505050505050565b600060208083528351808285015260005b81811015610518578581018301518582016040015282016104fc565b8181111561052a576000604083870101525b50601f01601f1916929092016040019392505050565b604051601f8201601f191681016001600160401b038111828210171561056857610568610603565b604052919050565b60008219821115610583576105836105c1565b500190565b6000826105a557634e487b7160e01b600052601260045260246000fd5b500490565b6000828210156105bc576105bc6105c1565b500390565b634e487b7160e01b600052601160045260246000fd5b634e487b7160e01b600052603160045260246000fd5b634e487b7160e01b600052603260045260246000fd5b634e487b7160e01b600052604160045260246000fdfea26469706673582212209ffc22f480ab442679afb2da77864d0e05b02097e50b5da15ba89ebc9d22d32164736f6c63430008070033",
  "immutableReferences": {},
  "source": "// SPDX-License-Identifier: GPL-3.0\r\n\r\npragma solidity 0.8.7;\r\n\r\n/*\r\nCommon functionality for all contracts and libraries\r\n*/\r\n\r\nlibrary Library{\r\n\r\n    // DATA /////////////////////////////////////////\r\n    // enum\r\n    enum Prices{NewProvider, NewPool, NewCertificate, NewProviderContract}\r\n\r\n    // Structures\r\n    // Certificate Manager\r\n    struct ProposedContractsStruct{\r\n        address NewPublicPoolAddress;\r\n        address NewTreasuryAddress;\r\n        address NewCertisTokenAddress;\r\n        address NewPrivatePoolFactoryAddress;\r\n        address NewPrivatePoolAddress;\r\n        address NewProviderFactoryAddress;\r\n        address NewProviderAddress;\r\n        address NewPriceConverterAddress;\r\n        bytes NewPublicPoolData;\r\n        bytes NewTreasuryData;\r\n        bytes NewCertisTokenData;\r\n        bytes NewPrivatePoolFactoryData;\r\n        bytes NewProviderFactoryData;\r\n        bytes NewPriceConverterData;\r\n    }\r\n\r\n    // Pending Certificates\r\n    struct _pendingCertificatesStruct{\r\n        address pool;\r\n        address holder;\r\n        bytes32 certificate;\r\n    }\r\n\r\n    // MODIFIERS /////////////////////////////////////////\r\n    modifier isIdCorrect(uint Id, uint length){\r\n        require(true == IdCorrect(Id, length), \"EC1-\");\r\n        _;\r\n    }\r\n\r\n    // FUNCTIONALITY /////////////////////////////////////////\r\n    function IdCorrect(uint Id, uint length) public pure returns (bool){\r\n        return (length > Id);\r\n    }\r\n\r\n    function ItIsSomeone(address someone) public view returns(bool){\r\n        if(msg.sender == someone) return true;\r\n        return false;\r\n    }\r\n\r\n    function ArrayRemoveResize(uint index, bytes32[] storage array) public \r\n        isIdCorrect(index, array.length) \r\n    {\r\n        array[index] = array[array.length - 1];\r\n        array.pop();\r\n    }\r\n\r\n    function Bytes32ArrayToString(bytes32[] memory element) public pure returns(string memory){\r\n        return string(abi.encodePacked(element));\r\n    }\r\n\r\n    function BytestoBytes32(bytes memory _b) public pure returns(bytes32[] memory){\r\n        uint num = _b.length / 32;\r\n        bytes32[] memory result = new bytes32[](num + 1);\r\n        uint t = 0;\r\n        \r\n        for(uint i=0; i<_b.length; i = i + 32){\r\n            bytes32 r;\r\n            uint p = i + 32;\r\n             assembly {\r\n                r := mload(add(_b, p))\r\n            }\r\n            result[t] = r;\r\n            t += 1;\r\n        }\r\n       \r\n        return result;\r\n    }\r\n    \r\n}",
  "sourcePath": "C:\\Users\\d-aam\\GitHub\\Certificates\\contracts\\Libraries\\Library.sol",
  "compiler": {
    "name": "solc",
    "version": "0.8.7+commit.e28d00a7.Emscripten.clang"
  },
  "schemaVersion": "3.3.4",
  "updatedAt": "2021-09-23T09:58:59.442Z",
  "devdoc": {
    "kind": "dev",
    "methods": {},
    "version": 1
  },
  "userdoc": {
    "kind": "user",
    "methods": {},
    "version": 1
  }
}