{
  "contractName": "Library",
  "abi": [
    {
      "inputs": [
        {
          "internalType": "uint256",
          "name": "Id",
          "type": "uint256"
        },
        {
          "internalType": "uint256",
          "name": "length",
          "type": "uint256"
        }
      ],
      "name": "IdCorrect",
      "outputs": [
        {
          "internalType": "bool",
          "name": "",
          "type": "bool"
        }
      ],
      "stateMutability": "pure",
      "type": "function"
    },
    {
      "inputs": [
        {
          "internalType": "address",
          "name": "someone",
          "type": "address"
        }
      ],
      "name": "ItIsSomeone",
      "outputs": [
        {
          "internalType": "bool",
          "name": "",
          "type": "bool"
        }
      ],
      "stateMutability": "view",
      "type": "function"
    }
  ],
  "bytecode": "0x61025e61003a600b82828239805160001a60731461002d57634e487b7160e01b600052600060045260246000fd5b30600052607381538281f3fe730000000000000000000000000000000000000000301460806040526004361061004b5760003560e01c80632477a0ea14610050578063d1d719d014610076578063e4ef9c3214610089575b600080fd5b61006261005e3660046101b5565b1190565b604051901515815260200160405180910390f35b610062610084366004610185565b6100ab565b81801561009557600080fd5b506100a96100a43660046101b5565b6100ce565b005b6000336001600160a01b03831614156100c657506001919050565b506000919050565b8054829060018282111461010e5760405162461bcd60e51b815260206004820152600360248201526245433160e81b604482015260640160405180910390fd5b8254839061011e906001906101d7565b8154811061012e5761012e610212565b906000526020600020015483858154811061014b5761014b610212565b906000526020600020018190555082805480610169576101696101fc565b6001900381819060005260206000200160009055905550505050565b60006020828403121561019757600080fd5b81356001600160a01b03811681146101ae57600080fd5b9392505050565b600080604083850312156101c857600080fd5b50508035926020909101359150565b6000828210156101f757634e487b7160e01b600052601160045260246000fd5b500390565b634e487b7160e01b600052603160045260246000fd5b634e487b7160e01b600052603260045260246000fdfea2646970667358221220691b4a91a9f3ae8979df93965c5c257e170e890a7cfe3eb628c790108af3caa964736f6c63430008070033",
  "immutableReferences": {},
  "source": "// SPDX-License-Identifier: GPL-3.0\r\n\r\npragma solidity >=0.7.0 <0.9.0;\r\n\r\n/**\r\n * @title Storage\r\n * @dev Store & retrieve value in a variable\r\n */\r\n\r\nlibrary Library{\r\n\r\n    // enum\r\n    enum Prices{NewProvider, NewPool, NewCertificate, NewProviderContract}\r\n\r\n    // modifier\r\n    modifier isIdCorrect(uint Id, uint length){\r\n        require(true == IdCorrect(Id, length), \"EC1\");\r\n        _;\r\n    }\r\n\r\n    // Structures\r\n    // Certificate Manager\r\n    struct ProposedContractsStruct{\r\n        address NewPublicPoolAddress;\r\n        address NewTreasuryAddress;\r\n        address NewCertisTokenAddress;\r\n        address NewPrivatePoolFactoryAddress;\r\n        address NewPrivatePoolAddress;\r\n        address NewProviderFactoryAddress;\r\n        address NewProviderAddress;\r\n        bytes NewPublicPoolData;\r\n        bytes NewTreasuryData;\r\n        bytes NewCertisTokenData;\r\n        bytes NewPrivatePoolFactoryData;\r\n        bytes NewProviderFactoryData;\r\n    }\r\n\r\n    struct InitialContractsStruct{\r\n        address payable PublicPoolProxyAddress;\r\n        address payable TreasuryProxyAddress;\r\n        address payable CertisTokenProxyAddress;\r\n        address payable PrivatePoolFactoryProxyAddress;\r\n        address PrivateCertificatePoolImplAddress;\r\n        address payable ProviderFactoryProxyAddress;\r\n        address ProviderImplAddress;\r\n    }\r\n\r\n    // Pending Certificates\r\n    struct _pendingCertificatesStruct{\r\n        address pool;\r\n        address holder;\r\n        bytes32 certificate;\r\n    }\r\n\r\n    // auxiliary functions\r\n    function IdCorrect(uint Id, uint length) public pure returns (bool){\r\n        return (length > Id);\r\n    }\r\n\r\n    function ItIsSomeone(address someone) public view returns(bool){\r\n        if(msg.sender == someone) return true;\r\n        return false;\r\n    }\r\n\r\n    function ArrayRemoveResize(uint index, bytes32[] storage array) public \r\n        isIdCorrect(index, array.length) \r\n    {\r\n        array[index] = array[array.length - 1];\r\n        array.pop();\r\n    }\r\n\r\n    function Bytes32ArrayToString(bytes32[] memory element) internal pure returns(string memory){\r\n        return string(abi.encodePacked(element));\r\n    }\r\n\r\n    function BytestoBytes32(bytes memory _b) private pure returns(bytes32[] memory){\r\n        uint num = _b.length / 32;\r\n        bytes32[] memory result = new bytes32[](num + 1);\r\n        uint t = 0;\r\n        \r\n        for(uint i=0; i<_b.length; i = i + 32){\r\n            bytes32 r;\r\n            uint p = i + 32;\r\n             assembly {\r\n                r := mload(add(_b, p))\r\n            }\r\n            result[t] = r;\r\n            t += 1;\r\n        }\r\n       \r\n        return result;\r\n    }\r\n    \r\n}",
  "sourcePath": "C:\\Users\\d-aam\\GitHub\\Certificates\\contracts\\Libraries\\Library.sol",
  "compiler": {
    "name": "solc",
    "version": "0.8.7+commit.e28d00a7.Emscripten.clang"
  },
  "schemaVersion": "3.3.4",
  "updatedAt": "2021-08-19T06:39:01.002Z",
  "devdoc": {
    "details": "Store & retrieve value in a variable",
    "kind": "dev",
    "methods": {},
    "title": "Storage",
    "version": 1
  },
  "userdoc": {
    "kind": "user",
    "methods": {},
    "version": 1
  }
}