{
  "contractName": "Library",
  "abi": [
    {
      "inputs": [
        {
          "internalType": "uint256",
          "name": "Id",
          "type": "uint256"
        },
        {
          "internalType": "uint256",
          "name": "length",
          "type": "uint256"
        }
      ],
      "name": "IdCorrect",
      "outputs": [
        {
          "internalType": "bool",
          "name": "",
          "type": "bool"
        }
      ],
      "stateMutability": "pure",
      "type": "function"
    },
    {
      "inputs": [
        {
          "internalType": "uint256",
          "name": "index",
          "type": "uint256"
        },
        {
          "internalType": "bytes32[]",
          "name": "array",
          "type": "bytes32[]"
        }
      ],
      "name": "ArrayRemoveResize",
      "outputs": [
        {
          "internalType": "bytes32[]",
          "name": "",
          "type": "bytes32[]"
        }
      ],
      "stateMutability": "pure",
      "type": "function"
    }
  ],
  "bytecode": "0x610309610026600b82828239805160001a60731461001957fe5b30600052607381538281f3fe73000000000000000000000000000000000000000030146080604052600436106100405760003560e01c80632477a0ea146100455780635b28cf631461006e575b600080fd5b610058610053366004610246565b61008e565b60405161006591906102ab565b60405180910390f35b61008161007c36600461018d565b610092565b6040516100659190610267565b1190565b60608282516100a1828261008e565b15156001146100cb5760405162461bcd60e51b81526004016100c2906102b6565b60405180910390fd5b600060018551036001600160401b03811180156100e757600080fd5b50604051908082528060200260200182016040528015610111578160200160208202803683370190505b5090508460018651038151811061012457fe5b602002602001015185878151811061013857fe5b60200260200101818152505060005b81518110156101835785818151811061015c57fe5b602002602001015182828151811061017057fe5b6020908102919091010152600101610147565b5095945050505050565b6000806040838503121561019f578182fd5b823591506020808401356001600160401b03808211156101bd578384fd5b818601915086601f8301126101d0578384fd5b8135818111156101dc57fe5b838102604051858282010181811085821117156101f557fe5b604052828152858101935084860182860187018b1015610213578788fd5b8795505b83861015610235578035855260019590950194938601938601610217565b508096505050505050509250929050565b60008060408385031215610258578182fd5b50508035926020909101359150565b6020808252825182820181905260009190848201906040850190845b8181101561029f57835183529284019291840191600101610283565b50909695505050505050565b901515815260200190565b60208082526003908201526245433160e81b60408201526060019056fea2646970667358221220511b4cc5d69275d9cb80ddffa1c83a6b55f16dc213f22429f89079983aea743464736f6c63430007060033",
  "immutableReferences": {},
  "source": "// SPDX-License-Identifier: GPL-3.0\r\n\r\npragma solidity >=0.7.0 <0.9.0;\r\npragma experimental ABIEncoderV2;\r\n\r\n/**\r\n * @title Storage\r\n * @dev Store & retrieve value in a variable\r\n */\r\n\r\nlibrary Library{\r\n\r\n    // modifier\r\n    modifier isIdCorrect(uint Id, uint length){\r\n        require(true == IdCorrect(Id, length), \"EC1\");\r\n        _;\r\n    }\r\n\r\n    // auxiliary functions\r\n    function IdCorrect(uint Id, uint length) public pure returns (bool){\r\n        return (length > Id);\r\n    }\r\n\r\n    function CheckValidations(uint256 signatures, uint256 minSignatures) internal pure returns(bool){\r\n        if(signatures < minSignatures) return false;\r\n        return true;\r\n    }\r\n\r\n    function ItIsSomeone(address someone) internal view returns(bool){\r\n        if(msg.sender == someone) return true;\r\n        return false;\r\n    }\r\n\r\n    function FindPosition(bytes32 data, bytes32[] memory list) internal pure returns (uint){\r\n        for(uint i=0; i < list.length; i++){\r\n            if(data == list[i]) return i;\r\n        }\r\n\r\n        return list.length + 1;\r\n    }\r\n\r\n    function ArrayRemoveResize(uint index, bytes32[] memory array) public \r\n        isIdCorrect(index, array.length)\r\n    pure returns(bytes32[] memory) \r\n    {\r\n        bytes32[] memory newArray = new bytes32[](array.length - 1);\r\n        array[index] = array[array.length - 1];\r\n        \r\n        for(uint i=0; i < newArray.length; i++){\r\n            newArray[i] = array[i];\r\n        }\r\n        \r\n        return newArray;\r\n    }\r\n    \r\n}",
  "sourcePath": "C:\\Users\\d-aam\\GitHub\\Certificates\\contracts\\Libraries\\Library.sol",
  "compiler": {
    "name": "solc",
    "version": "0.7.6+commit.7338295f.Emscripten.clang"
  },
  "schemaVersion": "3.3.4",
  "updatedAt": "2021-07-19T08:31:18.618Z",
  "devdoc": {
    "details": "Store & retrieve value in a variable",
    "kind": "dev",
    "methods": {},
    "title": "Storage",
    "version": 1
  },
  "userdoc": {
    "kind": "user",
    "methods": {},
    "version": 1
  }
}