{
  "contractName": "Library",
  "abi": [
    {
      "inputs": [
        {
          "internalType": "enum Library.Actions",
          "name": "action",
          "type": "Library.Actions"
        },
        {
          "components": [
            {
              "internalType": "uint256",
              "name": "_id",
              "type": "uint256"
            },
            {
              "internalType": "bool",
              "name": "_activated",
              "type": "bool"
            },
            {
              "internalType": "bytes",
              "name": "_Info",
              "type": "bytes"
            },
            {
              "internalType": "uint256",
              "name": "_updatedTimes",
              "type": "uint256"
            },
            {
              "internalType": "address[]",
              "name": "_AddValidated",
              "type": "address[]"
            },
            {
              "internalType": "address[]",
              "name": "_RemoveValidated",
              "type": "address[]"
            },
            {
              "internalType": "address[]",
              "name": "_UpdateValidated",
              "type": "address[]"
            }
          ],
          "internalType": "struct Library._entityIdentity",
          "name": "Entity",
          "type": "tuple"
        }
      ],
      "name": "NotAlreadyVoted",
      "outputs": [],
      "stateMutability": "view",
      "type": "function"
    },
    {
      "inputs": [
        {
          "internalType": "bool",
          "name": "YesOrNo",
          "type": "bool"
        },
        {
          "components": [
            {
              "internalType": "uint256",
              "name": "_id",
              "type": "uint256"
            },
            {
              "internalType": "bool",
              "name": "_activated",
              "type": "bool"
            },
            {
              "internalType": "bytes",
              "name": "_Info",
              "type": "bytes"
            },
            {
              "internalType": "uint256",
              "name": "_updatedTimes",
              "type": "uint256"
            },
            {
              "internalType": "address[]",
              "name": "_AddValidated",
              "type": "address[]"
            },
            {
              "internalType": "address[]",
              "name": "_RemoveValidated",
              "type": "address[]"
            },
            {
              "internalType": "address[]",
              "name": "_UpdateValidated",
              "type": "address[]"
            }
          ],
          "internalType": "struct Library._entityIdentity",
          "name": "Entity",
          "type": "tuple"
        }
      ],
      "name": "EntityActivated",
      "outputs": [],
      "stateMutability": "pure",
      "type": "function"
    },
    {
      "inputs": [
        {
          "internalType": "uint256",
          "name": "Id",
          "type": "uint256"
        },
        {
          "internalType": "uint256",
          "name": "length",
          "type": "uint256"
        }
      ],
      "name": "IdCorrect",
      "outputs": [
        {
          "internalType": "bool",
          "name": "",
          "type": "bool"
        }
      ],
      "stateMutability": "pure",
      "type": "function"
    }
  ],
  "bytecode": "0x6109f0610026600b82828239805160001a60731461001957fe5b30600052607381538281f3fe730000000000000000000000000000000000000000301460806040526004361061004b5760003560e01c80632477a0ea14610050578063354945be14610080578063777d5c581461009c575b600080fd5b61006a6004803603810190610065919061069e565b6100b8565b60405161007791906107a2565b60405180910390f35b61009a600480360381019061009591906105f6565b6100c5565b005b6100b660048036038101906100b1919061064a565b61017a565b005b6000828211905092915050565b811515600015151415610126576100db8161030b565b15156000151514610121576040517f08c379a0000000000000000000000000000000000000000000000000000000008152600401610118906107ff565b60405180910390fd5b610176565b61012f8161030b565b15156001151514610175576040517f08c379a000000000000000000000000000000000000000000000000000000000815260040161016c906107df565b60405180910390fd5b5b5050565b60006040518060400160405280601781526020017f4f776e65722068617320616c726561647920766f74656400000000000000000081525090508260028111156101c057fe5b600160028111156101cd57fe5b1415610230576101e1338360c00151610319565b15156000151514819061022a576040517f08c379a000000000000000000000000000000000000000000000000000000000815260040161022191906107bd565b60405180910390fd5b50610306565b82600281111561023c57fe5b6000600281111561024957fe5b14156102ac5761025d338360800151610319565b1515600015151481906102a6576040517f08c379a000000000000000000000000000000000000000000000000000000000815260040161029d91906107bd565b60405180910390fd5b50610305565b6102ba338360a00151610319565b151560001515148190610303576040517f08c379a00000000000000000000000000000000000000000000000000000000081526004016102fa91906107bd565b60405180910390fd5b505b5b505050565b600081602001519050919050565b600080600090505b82518110156103885782818151811061033657fe5b602002602001015173ffffffffffffffffffffffffffffffffffffffff168473ffffffffffffffffffffffffffffffffffffffff16141561037b57600191505061038e565b8080600101915050610321565b50600090505b92915050565b60006103a76103a284610850565b61081f565b905080838252602082019050828560208602820111156103c657600080fd5b60005b858110156103f657816103dc888261043e565b8452602084019350602083019250506001810190506103c9565b5050509392505050565b600061041361040e8461087c565b61081f565b90508281526020810184848401111561042b57600080fd5b610436848285610910565b509392505050565b60008135905061044d81610965565b92915050565b600082601f83011261046457600080fd5b8135610474848260208601610394565b91505092915050565b60008135905061048c8161097c565b92915050565b600082601f8301126104a357600080fd5b81356104b3848260208601610400565b91505092915050565b6000813590506104cb81610993565b92915050565b600060e082840312156104e357600080fd5b6104ed60e061081f565b905060006104fd848285016105e1565b60008301525060206105118482850161047d565b602083015250604082013567ffffffffffffffff81111561053157600080fd5b61053d84828501610492565b6040830152506060610551848285016105e1565b606083015250608082013567ffffffffffffffff81111561057157600080fd5b61057d84828501610453565b60808301525060a082013567ffffffffffffffff81111561059d57600080fd5b6105a984828501610453565b60a08301525060c082013567ffffffffffffffff8111156105c957600080fd5b6105d584828501610453565b60c08301525092915050565b6000813590506105f0816109a3565b92915050565b6000806040838503121561060957600080fd5b60006106178582860161047d565b925050602083013567ffffffffffffffff81111561063457600080fd5b610640858286016104d1565b9150509250929050565b6000806040838503121561065d57600080fd5b600061066b858286016104bc565b925050602083013567ffffffffffffffff81111561068857600080fd5b610694858286016104d1565b9150509250929050565b600080604083850312156106b157600080fd5b60006106bf858286016105e1565b92505060206106d0858286016105e1565b9150509250929050565b6106e3816108da565b82525050565b60006106f4826108ac565b6106fe81856108b7565b935061070e81856020860161091f565b61071781610954565b840191505092915050565b600061072f6018836108b7565b91507f456e74697479206d7573742062652061637469766174656400000000000000006000830152602082019050919050565b600061076f6018836108b7565b91507f456e7469747920616c72656164792061637469766174656400000000000000006000830152602082019050919050565b60006020820190506107b760008301846106da565b92915050565b600060208201905081810360008301526107d781846106e9565b905092915050565b600060208201905081810360008301526107f881610722565b9050919050565b6000602082019050818103600083015261081881610762565b9050919050565b6000604051905081810181811067ffffffffffffffff8211171561084657610845610952565b5b8060405250919050565b600067ffffffffffffffff82111561086b5761086a610952565b5b602082029050602081019050919050565b600067ffffffffffffffff82111561089757610896610952565b5b601f19601f8301169050602081019050919050565b600081519050919050565b600082825260208201905092915050565b60006108d3826108e6565b9050919050565b60008115159050919050565b600073ffffffffffffffffffffffffffffffffffffffff82169050919050565b6000819050919050565b82818337600083830152505050565b60005b8381101561093d578082015181840152602081019050610922565b8381111561094c576000848401525b50505050565bfe5b6000601f19601f8301169050919050565b61096e816108c8565b811461097957600080fd5b50565b610985816108da565b811461099057600080fd5b50565b600381106109a057600080fd5b50565b6109ac81610906565b81146109b757600080fd5b5056fea2646970667358221220f0ad8de00a3b9c4c6980fc35d62cf37c6bebb97573daa7a25488727e4ed2dac364736f6c63430007060033",
  "immutableReferences": {},
  "source": "// SPDX-License-Identifier: GPL-3.0\r\n\r\npragma solidity >=0.7.0 <0.9.0;\r\npragma experimental ABIEncoderV2;\r\n\r\n/**\r\n * @title Storage\r\n * @dev Store & retrieve value in a variable\r\n */\r\n\r\nlibrary Library{\r\n    //Actions that can be performed on entities\r\n    enum Actions{\r\n        Add,\r\n        Update,\r\n        Remove\r\n    }\r\n\r\n    //Structures\r\n    struct _entityIdentity{\r\n        uint256 _id;\r\n        bool _activated;\r\n        bytes _Info;\r\n        uint256 _updatedTimes;\r\n        address[] _AddValidated;\r\n        address[] _RemoveValidated;\r\n        address[] _UpdateValidated;\r\n    }\r\n\r\n    struct _entityStruct{\r\n        mapping(address => _entityIdentity) _entities;\r\n        address[] _activatedEntities;\r\n    }\r\n\r\n\r\n    // modifier\r\n    modifier HasNotAlreadyVoted(Actions action, _entityIdentity memory Entity){\r\n        NotAlreadyVoted(action, Entity);\r\n        _;\r\n    }\r\n    \r\n    modifier isEntityActivated(bool YesOrNo, _entityIdentity memory Entity){\r\n        EntityActivated(YesOrNo, Entity);\r\n        _;\r\n    }\r\n\r\n    // auxiliary functions\r\n    function NotAlreadyVoted(Actions action, _entityIdentity memory Entity) public view{\r\n        string memory message = \"Owner has already voted\";\r\n        if(Actions.Update == action) require(false == FindAddress(msg.sender, Entity._UpdateValidated), message);\r\n        else if(Actions.Add == action) require(false == FindAddress(msg.sender, Entity._AddValidated), message);\r\n        else require(false == FindAddress(msg.sender, Entity._RemoveValidated), message);\r\n    }\r\n    \r\n    function EntityActivated(bool YesOrNo, _entityIdentity memory Entity) public pure{\r\n        if(false == YesOrNo) require(false == isEntity(Entity), \"Entity already activated\");\r\n        else require(true == isEntity(Entity), \"Entity must be activated\");\r\n    }\r\n    \r\n    function IdCorrect(uint Id, uint length) public pure returns (bool){\r\n        return (length > Id);\r\n    }\r\n\r\n    function FindAddress(address add, address[] memory list) internal pure returns (bool){\r\n        for(uint i=0; i < list.length; i++){\r\n            if(add == list[i]) return true;\r\n        }\r\n\r\n        return false;\r\n    }\r\n\r\n    function CountActiveItems(address[] memory list) internal pure returns (uint){\r\n        uint total = 0;\r\n        for(uint i=0; i < list.length; i++){\r\n            if(address(0) != list[i]){\r\n                total += 1;\r\n            }\r\n        }\r\n        return total;\r\n    }\r\n\r\n    function CheckValidations(uint256 signatures, uint256 minSignatures) internal pure returns(bool){\r\n        if(signatures < minSignatures) return false;\r\n        return true;\r\n    }\r\n\r\n    // functions for entities\r\n    function addEntity(address entity, bytes memory entityInfo, _entityStruct storage Entities, uint256 minSignatures) internal \r\n        isEntityActivated(false, Entities._entities[entity]) \r\n        HasNotAlreadyVoted(Actions.Add, Entities._entities[entity])\r\n    {\r\n        if(0 == Entities._entities[entity]._AddValidated.length && 0 == Entities._entities[entity]._Info.length) Entities._entities[entity]._Info = entityInfo;\r\n\r\n        Entities._entities[entity]._AddValidated.push(msg.sender);\r\n\r\n        if(CheckValidations(Entities._entities[entity]._AddValidated.length, minSignatures)){\r\n            Entities._entities[entity]._activated = true;\r\n            Entities._entities[entity]._id = Entities._activatedEntities.length;\r\n            Entities._activatedEntities.push(entity);\r\n        }\r\n    }\r\n\r\n    function removeEntity(address entity, _entityStruct storage Entities, uint256 minSignatures) internal \r\n        isEntityActivated(true, Entities._entities[entity])\r\n        HasNotAlreadyVoted(Actions.Remove, Entities._entities[entity])\r\n    {\r\n        Entities._entities[entity]._RemoveValidated.push(msg.sender);\r\n\r\n        if(msg.sender == entity || CheckValidations(Entities._entities[entity]._RemoveValidated.length, minSignatures)){\r\n            delete(Entities._activatedEntities[Entities._entities[entity]._id]);\r\n            delete(Entities._entities[entity]);\r\n        }  \r\n       \r\n    }\r\n\r\n    function updateEntity(address entity, bytes memory entityInfo, _entityStruct storage Entities, uint256 minSignatures) internal \r\n        isEntityActivated(true, Entities._entities[entity])\r\n        HasNotAlreadyVoted(Actions.Update, Entities._entities[entity])\r\n    {   \r\n        Entities._entities[entity]._UpdateValidated.push(msg.sender); \r\n\r\n        if(CheckValidations(Entities._entities[entity]._UpdateValidated.length, minSignatures)){\r\n            Entities._entities[entity]._Info = entityInfo;\r\n            Entities._entities[entity]._updatedTimes += 1;\r\n            delete(Entities._entities[entity]._UpdateValidated);\r\n        }       \r\n    }\r\n\r\n    function retrieveEntity(address entity, _entityStruct storage Entities) internal \r\n        isEntityActivated(true, Entities._entities[entity])\r\n    view returns (bytes memory) \r\n    {\r\n        return Entities._entities[entity]._Info;\r\n    }\r\n\r\n    function retrieveAllEntities(_entityStruct storage Entities) internal \r\n    view returns (address[] memory) \r\n    {\r\n        uint TotalEntities = retrieveTotalEntities(Entities);\r\n        address[] memory activatedEntities = new address[](TotalEntities);\r\n        uint counter;\r\n\r\n        for(uint i=0; i < Entities._activatedEntities.length; i++){\r\n            if(address(0) != Entities._activatedEntities[i]){\r\n                activatedEntities[counter] = Entities._activatedEntities[i];\r\n                counter += 1;\r\n            }\r\n        }\r\n\r\n        return(activatedEntities);\r\n    }\r\n\r\n    function retrieveTotalEntities(_entityStruct storage Entities) internal \r\n    view returns (uint) \r\n    {\r\n        return(CountActiveItems(Entities._activatedEntities));\r\n    }\r\n\r\n    function retrieveUpdatedTimes(address entity, _entityStruct storage Entities) internal \r\n        isEntityActivated(true, Entities._entities[entity])\r\n    view returns (uint) \r\n    {\r\n        return Entities._entities[entity]._updatedTimes;\r\n    }\r\n\r\n    function isEntity(_entityIdentity memory Entity) internal pure returns (bool){\r\n        return(Entity._activated);\r\n    }\r\n}",
  "sourcePath": "C:\\Users\\d-aam\\GitHub\\Certificates\\contracts\\Libraries\\Library.sol",
  "compiler": {
    "name": "solc",
    "version": "0.7.6+commit.7338295f.Emscripten.clang"
  },
  "schemaVersion": "3.3.4",
  "updatedAt": "2021-05-20T14:55:11.128Z",
  "devdoc": {
    "details": "Store & retrieve value in a variable",
    "kind": "dev",
    "methods": {},
    "title": "Storage",
    "version": 1
  },
  "userdoc": {
    "kind": "user",
    "methods": {},
    "version": 1
  }
}