{
  "contractName": "Library",
  "abi": [
    {
      "inputs": [
        {
          "internalType": "uint256",
          "name": "Id",
          "type": "uint256"
        },
        {
          "internalType": "uint256",
          "name": "length",
          "type": "uint256"
        }
      ],
      "name": "IdCorrect",
      "outputs": [],
      "stateMutability": "pure",
      "type": "function",
      "constant": true
    },
    {
      "inputs": [
        {
          "internalType": "address",
          "name": "addr",
          "type": "address"
        },
        {
          "internalType": "address",
          "name": "someone",
          "type": "address"
        }
      ],
      "name": "ItIsSomeone",
      "outputs": [],
      "stateMutability": "pure",
      "type": "function",
      "constant": true
    },
    {
      "inputs": [
        {
          "internalType": "bytes32[]",
          "name": "element",
          "type": "bytes32[]"
        }
      ],
      "name": "Bytes32ArrayToString",
      "outputs": [
        {
          "internalType": "string",
          "name": "",
          "type": "string"
        }
      ],
      "stateMutability": "pure",
      "type": "function",
      "constant": true
    },
    {
      "inputs": [
        {
          "internalType": "bytes",
          "name": "_b",
          "type": "bytes"
        }
      ],
      "name": "BytestoBytes32",
      "outputs": [
        {
          "internalType": "bytes32[]",
          "name": "",
          "type": "bytes32[]"
        }
      ],
      "stateMutability": "pure",
      "type": "function",
      "constant": true
    }
  ],
  "bytecode": "0x61069261003a600b82828239805160001a60731461002d57634e487b7160e01b600052600060045260246000fd5b30600052607381538281f3fe73000000000000000000000000000000000000000030146080604052600436106100615760003560e01c80632477a0ea1461006657806337ea30631461007b5780634b648f111461008e578063caa8f589146100b7578063e4ef9c32146100d7575b600080fd5b610079610074366004610492565b6100f7565b005b61007961008936600461031f565b61013c565b6100a161009c366004610352565b610186565b6040516100ae919061052e565b60405180910390f35b6100ca6100c53660046103fe565b6101af565b6040516100ae91906104ea565b8180156100e357600080fd5b506100796100f2366004610492565b610281565b8181116101385760405162461bcd60e51b815260040161012f906020808252600490820152634543312d60e01b604082015260600190565b60405180910390fd5b5050565b816001600160a01b0316816001600160a01b0316146101385760405162461bcd60e51b815260040161012f906020808252600490820152634543382d60e01b604082015260600190565b60608160405160200161019991906104b4565b6040516020818303038152906040529050919050565b60606000602083516101c191906105cb565b905060006101d08260016105b3565b6001600160401b038111156101e7576101e7610646565b604051908082528060200260200182016040528015610210578160200160208202803683370190505b5090506000805b85518110156102775760008061022e8360206105b3565b90508088015191508185858151811061024957610249610630565b602090810291909101015261025f6001856105b3565b9350505080602061027091906105b3565b9050610217565b5090949350505050565b805461028e9083906100f7565b8054819061029e906001906105ed565b815481106102ae576102ae610630565b90600052602060002001548183815481106102cb576102cb610630565b9060005260206000200181905550808054806102e9576102e961061a565b600190038181906000526020600020016000905590555050565b80356001600160a01b038116811461031a57600080fd5b919050565b6000806040838503121561033257600080fd5b61033b83610303565b915061034960208401610303565b90509250929050565b6000602080838503121561036557600080fd5b82356001600160401b038082111561037c57600080fd5b818501915085601f83011261039057600080fd5b8135818111156103a2576103a2610646565b8060051b91506103b3848301610583565b8181528481019084860184860187018a10156103ce57600080fd5b600095505b838610156103f15780358352600195909501949186019186016103d3565b5098975050505050505050565b6000602080838503121561041157600080fd5b82356001600160401b038082111561042857600080fd5b818501915085601f83011261043c57600080fd5b81358181111561044e5761044e610646565b610460601f8201601f19168501610583565b9150808252868482850101111561047657600080fd5b8084840185840137600090820190930192909252509392505050565b600080604083850312156104a557600080fd5b50508035926020909101359150565b815160009082906020808601845b838110156104de578151855293820193908201906001016104c2565b50929695505050505050565b6020808252825182820181905260009190848201906040850190845b8181101561052257835183529284019291840191600101610506565b50909695505050505050565b600060208083528351808285015260005b8181101561055b5785810183015185820160400152820161053f565b8181111561056d576000604083870101525b50601f01601f1916929092016040019392505050565b604051601f8201601f191681016001600160401b03811182821017156105ab576105ab610646565b604052919050565b600082198211156105c6576105c6610604565b500190565b6000826105e857634e487b7160e01b600052601260045260246000fd5b500490565b6000828210156105ff576105ff610604565b500390565b634e487b7160e01b600052601160045260246000fd5b634e487b7160e01b600052603160045260246000fd5b634e487b7160e01b600052603260045260246000fd5b634e487b7160e01b600052604160045260246000fdfea2646970667358221220fe625ab1065b1312b405ba4244e3f60124491db5b1877350251b4c65b059314864736f6c63430008070033",
  "immutableReferences": {},
  "source": "// SPDX-License-Identifier: GPL-3.0\r\n\r\npragma solidity 0.8.7;\r\n\r\n/*\r\nCommon functionality for all contracts and libraries\r\n*/\r\n\r\nlibrary Library{\r\n\r\n    // DATA /////////////////////////////////////////\r\n    // enum\r\n    enum Prices{NewProvider, NewPool, NewCertificate, NewProviderContract}\r\n\r\n    // Structures\r\n    // Certificate Manager\r\n    struct ProposedContractsStruct{\r\n        address NewPublicPoolAddress;\r\n        address NewTreasuryAddress;\r\n        address NewCertisTokenAddress;\r\n        address NewPrivatePoolFactoryAddress;\r\n        address NewPrivatePoolAddress;\r\n        address NewProviderFactoryAddress;\r\n        address NewProviderAddress;\r\n        address NewPriceConverterAddress;\r\n        address NewPropositionSettingsAddress;\r\n        address NewENSAddress;\r\n        bytes NewPublicPoolData;\r\n        bytes NewTreasuryData;\r\n        bytes NewCertisTokenData;\r\n        bytes NewPrivatePoolFactoryData;\r\n        bytes NewProviderFactoryData;\r\n        bytes NewPriceConverterData;\r\n        bytes NewPropositionSettingsData;\r\n        bytes NewENSData;\r\n        string NewPrivatePoolContractName;\r\n        string NewPrivatePoolContractVersion;\r\n    }\r\n\r\n    // Pending Certificates\r\n    struct _pendingCertificatesStruct{\r\n        address pool;\r\n        address holder;\r\n        bytes32 certificate;\r\n    }\r\n\r\n    // FUNCTIONALITY /////////////////////////////////////////\r\n    function IdCorrect(uint Id, uint length) public pure{\r\n        require(length > Id, \"EC1-\");\r\n    }\r\n\r\n    function ItIsSomeone(address addr, address someone) public pure{\r\n        require(someone == addr, \"EC8-\");\r\n    }\r\n\r\n    function ArrayRemoveResize(uint index, bytes32[] storage array) public \r\n    {\r\n        IdCorrect(index, array.length);\r\n        array[index] = array[array.length - 1];\r\n        array.pop();\r\n    }\r\n\r\n    function Bytes32ArrayToString(bytes32[] memory element) public pure returns(string memory){\r\n        return string(abi.encodePacked(element));\r\n    }\r\n\r\n    function BytestoBytes32(bytes memory _b) public pure returns(bytes32[] memory){\r\n        uint num = _b.length / 32;\r\n        bytes32[] memory result = new bytes32[](num + 1);\r\n        uint t = 0;\r\n        \r\n        for(uint i=0; i<_b.length; i = i + 32){\r\n            bytes32 r;\r\n            uint p = i + 32;\r\n             assembly {\r\n                r := mload(add(_b, p))\r\n            }\r\n            result[t] = r;\r\n            t += 1;\r\n        }\r\n       \r\n        return result;\r\n    }\r\n    \r\n}",
  "sourcePath": "C:\\Users\\d-aam\\GitHub\\Certificates\\contracts\\Libraries\\Library.sol",
  "compiler": {
    "name": "solc",
    "version": "0.8.7+commit.e28d00a7.Emscripten.clang"
  },
  "schemaVersion": "3.3.4",
  "updatedAt": "2021-10-28T12:31:38.265Z",
  "networkType": "ethereum",
  "devdoc": {
    "kind": "dev",
    "methods": {},
    "version": 1
  },
  "userdoc": {
    "kind": "user",
    "methods": {},
    "version": 1
  }
}