{
  "contractName": "ManagedBaseContract",
  "abi": [
    {
      "inputs": [],
      "name": "retrieveManagerContract",
      "outputs": [
        {
          "internalType": "address",
          "name": "",
          "type": "address"
        }
      ],
      "stateMutability": "view",
      "type": "function"
    }
  ],
  "bytecode": "0x6080604052348015600f57600080fd5b5060918061001e6000396000f3fe6080604052348015600f57600080fd5b506004361060285760003560e01c80635b362e8414602d575b600080fd5b6000546201000090046001600160a01b03166040516001600160a01b03909116815260200160405180910390f3fea2646970667358221220b069ec967b8ac934bc4617ea398b516f75347ce7889f30dcbb3ddb1e2c371cc464736f6c63430008070033",
  "immutableReferences": {},
  "source": "// SPDX-License-Identifier: GPL-3.0\r\n\r\npragma solidity 0.8.7;\r\n\r\n/*\r\n  Manager Contract is a Base contract that simply adds a manager contract as a reference for multiple operations\r\n */\r\n\r\nimport \"../Libraries/Library.sol\";\r\nimport \"../Interfaces/IManager.sol\";\r\nimport \"@openzeppelin/contracts-upgradeable/proxy/utils/Initializable.sol\";\r\n\r\ncontract ManagedBaseContract is Initializable{\r\n    using Library for *;\r\n\r\n    // DATA /////////////////////////////////////////\r\n    IManager internal _managerContract;\r\n\r\n    // MODIFIERS /////////////////////////////////////////\r\n     modifier isFromManagerContract(address addr){\r\n        Library.ItIsSomeone(addr, address(_managerContract));\r\n        _;\r\n    }\r\n\r\n    // CONSTRUCTOR /////////////////////////////////////////\r\n    function ManagedBaseContract_init(address managerContractAddress) internal initializer {\r\n        _managerContract = IManager(managerContractAddress);\r\n    }\r\n\r\n    // FUNCTIONALITY /////////////////////////////////////////\r\n    function retrieveManagerContract() external view returns(address){\r\n        return address(_managerContract);\r\n    }\r\n\r\n}",
  "sourcePath": "C:\\Users\\d-aam\\GitHub\\Certificates\\contracts\\Base\\ManagedBaseContract.sol",
  "compiler": {
    "name": "solc",
    "version": "0.8.7+commit.e28d00a7.Emscripten.clang"
  },
  "schemaVersion": "3.3.4",
  "updatedAt": "2021-11-03T10:08:13.890Z",
  "devdoc": {
    "kind": "dev",
    "methods": {},
    "version": 1
  },
  "userdoc": {
    "kind": "user",
    "methods": {},
    "version": 1
  }
}