{
  "contractName": "MockENSRegistry",
  "abi": [
    {
      "inputs": [],
      "stateMutability": "nonpayable",
      "type": "constructor"
    },
    {
      "anonymous": false,
      "inputs": [
        {
          "indexed": true,
          "internalType": "address",
          "name": "owner",
          "type": "address"
        },
        {
          "indexed": true,
          "internalType": "address",
          "name": "operator",
          "type": "address"
        },
        {
          "indexed": false,
          "internalType": "bool",
          "name": "approved",
          "type": "bool"
        }
      ],
      "name": "ApprovalForAll",
      "type": "event"
    },
    {
      "anonymous": false,
      "inputs": [
        {
          "indexed": true,
          "internalType": "bytes32",
          "name": "node",
          "type": "bytes32"
        },
        {
          "indexed": true,
          "internalType": "bytes32",
          "name": "label",
          "type": "bytes32"
        },
        {
          "indexed": false,
          "internalType": "address",
          "name": "owner",
          "type": "address"
        }
      ],
      "name": "NewOwner",
      "type": "event"
    },
    {
      "anonymous": false,
      "inputs": [
        {
          "indexed": true,
          "internalType": "bytes32",
          "name": "node",
          "type": "bytes32"
        },
        {
          "indexed": false,
          "internalType": "address",
          "name": "resolver",
          "type": "address"
        }
      ],
      "name": "NewResolver",
      "type": "event"
    },
    {
      "anonymous": false,
      "inputs": [
        {
          "indexed": true,
          "internalType": "bytes32",
          "name": "node",
          "type": "bytes32"
        },
        {
          "indexed": false,
          "internalType": "uint64",
          "name": "ttl",
          "type": "uint64"
        }
      ],
      "name": "NewTTL",
      "type": "event"
    },
    {
      "anonymous": false,
      "inputs": [
        {
          "indexed": true,
          "internalType": "bytes32",
          "name": "node",
          "type": "bytes32"
        },
        {
          "indexed": false,
          "internalType": "address",
          "name": "owner",
          "type": "address"
        }
      ],
      "name": "Transfer",
      "type": "event"
    },
    {
      "inputs": [
        {
          "internalType": "bytes32[]",
          "name": "initNodes",
          "type": "bytes32[]"
        },
        {
          "internalType": "address",
          "name": "resolver",
          "type": "address"
        }
      ],
      "name": "initialize",
      "outputs": [],
      "stateMutability": "nonpayable",
      "type": "function"
    },
    {
      "inputs": [
        {
          "internalType": "bytes32",
          "name": "node",
          "type": "bytes32"
        },
        {
          "internalType": "address",
          "name": "owner",
          "type": "address"
        },
        {
          "internalType": "address",
          "name": "resolver",
          "type": "address"
        },
        {
          "internalType": "uint64",
          "name": "ttl",
          "type": "uint64"
        }
      ],
      "name": "setRecord",
      "outputs": [],
      "stateMutability": "nonpayable",
      "type": "function"
    },
    {
      "inputs": [
        {
          "internalType": "bytes32",
          "name": "node",
          "type": "bytes32"
        },
        {
          "internalType": "bytes32",
          "name": "label",
          "type": "bytes32"
        },
        {
          "internalType": "address",
          "name": "owner",
          "type": "address"
        },
        {
          "internalType": "address",
          "name": "resolver",
          "type": "address"
        },
        {
          "internalType": "uint64",
          "name": "ttl",
          "type": "uint64"
        }
      ],
      "name": "setSubnodeRecord",
      "outputs": [],
      "stateMutability": "nonpayable",
      "type": "function"
    },
    {
      "inputs": [
        {
          "internalType": "bytes32",
          "name": "node",
          "type": "bytes32"
        },
        {
          "internalType": "address",
          "name": "owner",
          "type": "address"
        }
      ],
      "name": "setOwner",
      "outputs": [],
      "stateMutability": "nonpayable",
      "type": "function"
    },
    {
      "inputs": [
        {
          "internalType": "bytes32",
          "name": "node",
          "type": "bytes32"
        },
        {
          "internalType": "bytes32",
          "name": "label",
          "type": "bytes32"
        },
        {
          "internalType": "address",
          "name": "owner",
          "type": "address"
        }
      ],
      "name": "setSubnodeOwner",
      "outputs": [
        {
          "internalType": "bytes32",
          "name": "",
          "type": "bytes32"
        }
      ],
      "stateMutability": "nonpayable",
      "type": "function"
    },
    {
      "inputs": [
        {
          "internalType": "bytes32",
          "name": "node",
          "type": "bytes32"
        },
        {
          "internalType": "address",
          "name": "resolver",
          "type": "address"
        }
      ],
      "name": "setResolver",
      "outputs": [],
      "stateMutability": "nonpayable",
      "type": "function"
    },
    {
      "inputs": [
        {
          "internalType": "bytes32",
          "name": "node",
          "type": "bytes32"
        },
        {
          "internalType": "uint64",
          "name": "ttl",
          "type": "uint64"
        }
      ],
      "name": "setTTL",
      "outputs": [],
      "stateMutability": "nonpayable",
      "type": "function"
    },
    {
      "inputs": [
        {
          "internalType": "address",
          "name": "operator",
          "type": "address"
        },
        {
          "internalType": "bool",
          "name": "approved",
          "type": "bool"
        }
      ],
      "name": "setApprovalForAll",
      "outputs": [],
      "stateMutability": "nonpayable",
      "type": "function"
    },
    {
      "inputs": [
        {
          "internalType": "bytes32",
          "name": "node",
          "type": "bytes32"
        }
      ],
      "name": "owner",
      "outputs": [
        {
          "internalType": "address",
          "name": "",
          "type": "address"
        }
      ],
      "stateMutability": "view",
      "type": "function"
    },
    {
      "inputs": [
        {
          "internalType": "bytes32",
          "name": "node",
          "type": "bytes32"
        }
      ],
      "name": "resolver",
      "outputs": [
        {
          "internalType": "address",
          "name": "",
          "type": "address"
        }
      ],
      "stateMutability": "view",
      "type": "function"
    },
    {
      "inputs": [
        {
          "internalType": "bytes32",
          "name": "node",
          "type": "bytes32"
        }
      ],
      "name": "ttl",
      "outputs": [
        {
          "internalType": "uint64",
          "name": "",
          "type": "uint64"
        }
      ],
      "stateMutability": "view",
      "type": "function"
    },
    {
      "inputs": [
        {
          "internalType": "bytes32",
          "name": "node",
          "type": "bytes32"
        }
      ],
      "name": "recordExists",
      "outputs": [
        {
          "internalType": "bool",
          "name": "",
          "type": "bool"
        }
      ],
      "stateMutability": "view",
      "type": "function"
    },
    {
      "inputs": [
        {
          "internalType": "address",
          "name": "owner",
          "type": "address"
        },
        {
          "internalType": "address",
          "name": "operator",
          "type": "address"
        }
      ],
      "name": "isApprovedForAll",
      "outputs": [
        {
          "internalType": "bool",
          "name": "",
          "type": "bool"
        }
      ],
      "stateMutability": "view",
      "type": "function"
    }
  ],
  "bytecode": "0x608060405234801561001057600080fd5b5060008080526020527fad3228b676f7d3cd4284a5443f17f1962b36e491b30a40b2405849e597ba5fb580546001600160a01b03191633179055610c5e806100596000396000f3fe608060405234801561001057600080fd5b50600436106100af5760003560e01c80630178b8bf146100b457806302571be3146100f657806306ab59231461010957806314ab90381461012a57806316a25cbd1461013f5780631896f70a1461017f5780635b0fc9c3146101925780635ef2c7f0146101a5578063a22cb465146101b8578063c39a8452146101cb578063cf408823146101de578063e985e9c5146101f1578063f79fe5381461023d575b600080fd5b6100e06100c2366004610a33565b6000908152602081905260409020600101546001600160a01b031690565b6040516100ed9190610b6b565b60405180910390f35b6100e0610104366004610a33565b610268565b61011c610117366004610abc565b610297565b6040519081526020016100ed565b61013d610138366004610b48565b610360565b005b61017261014d366004610a33565b600090815260208190526040902060010154600160a01b90046001600160401b031690565b6040516100ed9190610b7f565b61013d61018d366004610a4c565b610418565b61013d6101a0366004610a4c565b6104c5565b61013d6101b3366004610af1565b610561565b61013d6101c6366004610921565b610583565b61013d6101d936600461095d565b6105ef565b61013d6101ec366004610a6f565b610770565b61022d6101ff3660046108ee565b6001600160a01b03918216600090815260016020908152604080832093909416825291909152205460ff1690565b60405190151581526020016100ed565b61022d61024b366004610a33565b6000908152602081905260409020546001600160a01b0316151590565b6000818152602081905260408120546001600160a01b0316308114156102915750600092915050565b92915050565b60008381526020819052604081205484906001600160a01b0316338114806102e257506001600160a01b038116600090815260016020908152604080832033845290915290205460ff165b6102eb57600080fd5b6040805160208082018990528183018890528251808303840181526060909201909252805191012061031d818661078b565b85877fce0457fe73731f824cc272376169235128c118b49d344817417c6d108d155e828760405161034e9190610b6b565b60405180910390a39695505050505050565b60008281526020819052604090205482906001600160a01b0316338114806103ab57506001600160a01b038116600090815260016020908152604080832033845290915290205460ff165b6103b457600080fd5b83600080516020610c09833981519152846040516103d29190610b7f565b60405180910390a2505060009182526020829052604090912060010180546001600160401b03909216600160a01b02600160a01b600160e01b0319909216919091179055565b60008281526020819052604090205482906001600160a01b03163381148061046357506001600160a01b038116600090815260016020908152604080832033845290915290205460ff165b61046c57600080fd5b83600080516020610be98339815191528460405161048a9190610b6b565b60405180910390a2505060009182526020829052604090912060010180546001600160a01b0319166001600160a01b03909216919091179055565b60008281526020819052604090205482906001600160a01b03163381148061051057506001600160a01b038116600090815260016020908152604080832033845290915290205460ff165b61051957600080fd5b610523848461078b565b837fd4735d920b0f87494915f556dd9b54c8f309026070caea5c737245152564d266846040516105539190610b6b565b60405180910390a250505050565b600061056e868686610297565b905061057b8184846107b9565b505050505050565b3360008181526001602090815260408083206001600160a01b03871680855290835292819020805460ff191686151590811790915590519081529192917f17307eab39ab6107e8899845ad3d59bd9653f200f220920489ca2b5937696c31910160405180910390a35050565b60025460ff16156106455760405162461bcd60e51b815260206004820152601c60248201527b149959da5cdd1c9e48185b1c9958591e481a5b9a5d1a585b1a5e995960221b604482015260640160405180910390fd5b6002805460ff1916600117905560005b825181101561076b57600080600085848151811061067557610675610bbc565b6020026020010151815260200190815260200160002060010160146101000a8154816001600160401b0302191690836001600160401b03160217905550816000808584815181106106c8576106c8610bbc565b6020026020010151815260200190815260200160002060010160006101000a8154816001600160a01b0302191690836001600160a01b031602179055503360008085848151811061071b5761071b610bbc565b6020026020010151815260200190815260200160002060000160006101000a8154816001600160a01b0302191690836001600160a01b03160217905550808061076390610b93565b915050610655565b505050565b61077a84846104c5565b6107858483836107b9565b50505050565b60009182526020829052604090912080546001600160a01b0319166001600160a01b03909216919091179055565b6000838152602081905260409020600101546001600160a01b03838116911614610830576000838152602081905260409081902060010180546001600160a01b0319166001600160a01b038516179055518390600080516020610be983398151915290610827908590610b6b565b60405180910390a25b6000838152602081905260409020600101546001600160401b03828116600160a01b909204161461076b57600083815260208190526040908190206001018054600160a01b600160e01b031916600160a01b6001600160401b03851602179055518390600080516020610c09833981519152906108ae908490610b7f565b60405180910390a2505050565b80356001600160a01b03811681146108d257600080fd5b919050565b80356001600160401b03811681146108d257600080fd5b6000806040838503121561090157600080fd5b61090a836108bb565b9150610918602084016108bb565b90509250929050565b6000806040838503121561093457600080fd5b61093d836108bb565b91506020830135801515811461095257600080fd5b809150509250929050565b6000806040838503121561097057600080fd5b82356001600160401b038082111561098757600080fd5b818501915085601f83011261099b57600080fd5b81356020828211156109af576109af610bd2565b8160051b604051601f19603f830116810181811086821117156109d4576109d4610bd2565b604052838152828101945085830182870184018b10156109f357600080fd5b600096505b84871015610a165780358652600196909601959483019483016109f8565b509650610a2690508782016108bb565b9450505050509250929050565b600060208284031215610a4557600080fd5b5035919050565b60008060408385031215610a5f57600080fd5b82359150610918602084016108bb565b60008060008060808587031215610a8557600080fd5b84359350610a95602086016108bb565b9250610aa3604086016108bb565b9150610ab1606086016108d7565b905092959194509250565b600080600060608486031215610ad157600080fd5b8335925060208401359150610ae8604085016108bb565b90509250925092565b600080600080600060a08688031215610b0957600080fd5b8535945060208601359350610b20604087016108bb565b9250610b2e606087016108bb565b9150610b3c608087016108d7565b90509295509295909350565b60008060408385031215610b5b57600080fd5b82359150610918602084016108d7565b6001600160a01b0391909116815260200190565b6001600160401b0391909116815260200190565b6000600019821415610bb557634e487b7160e01b600052601160045260246000fd5b5060010190565b634e487b7160e01b600052603260045260246000fd5b634e487b7160e01b600052604160045260246000fdfe335721b01866dc23fbee8b6b2c7b1e14d6f05c28cd35a2c934239f94095602a01d4f9bbfc9cab89d66e1a1562f2233ccbf1308cb4f63de2ead5787adddb8fa68a2646970667358221220c128c257c6bc0760cb9a5d8d0d90934b87ffcfba3d9b727e01344bb817454db364736f6c63430008070033",
  "immutableReferences": {},
  "source": "// SPDX-License-Identifier: GPL-3.0\r\n\r\npragma solidity 0.8.7;\r\n\r\n/**\r\n Mock Contract simulating the ChainLink Feed Registry ETH <-> USD for the tests chains that do not include it\r\n */\r\n\r\n // copied from ENS domain GutHub repository: https://github.com/ensdomains/ens/blob/master/contracts/ENSRegistry.sol\r\n\r\n import \"../Interfaces/IENSRegistry.sol\";\r\n\r\ncontract MockENSRegistry is IENSRegistry{\r\n\r\n    struct Record {\r\n        address owner;\r\n        address resolver;\r\n        uint64 ttl;\r\n    }\r\n\r\n    mapping (bytes32 => Record) records;\r\n    mapping (address => mapping(address => bool)) operators;\r\n\r\n    bool init;\r\n\r\n    // Permits modifications only by the owner of the specified node.\r\n    modifier authorised(bytes32 node) {\r\n        address owner = records[node].owner;\r\n        require(owner == msg.sender || operators[owner][msg.sender]);\r\n        _;\r\n    }\r\n\r\n    /**\r\n     * @dev Constructs a new ENS registrar.\r\n     */\r\n    constructor() {\r\n        records[0x0].owner = msg.sender;\r\n    }\r\n\r\n    function initialize(bytes32[] memory initNodes, address resolver) external {\r\n        require(false == init, \"Registry already initialized\");\r\n        init = true;\r\n        for(uint i = 0; i < initNodes.length; i++){\r\n            records[initNodes[i]].ttl = 0;\r\n            records[initNodes[i]].resolver = resolver;\r\n            records[initNodes[i]].owner = msg.sender;\r\n        }\r\n    }\r\n\r\n    /**\r\n     * @dev Sets the record for a node.\r\n     * @param node The node to update.\r\n     * @param owner The address of the new owner.\r\n     * @param resolver The address of the resolver.\r\n     * @param ttl The TTL in seconds.\r\n     */\r\n    function setRecord(bytes32 node, address owner, address resolver, uint64 ttl) external virtual override {\r\n        setOwner(node, owner);\r\n        _setResolverAndTTL(node, resolver, ttl);\r\n    }\r\n\r\n    /**\r\n     * @dev Sets the record for a subnode.\r\n     * @param node The parent node.\r\n     * @param label The hash of the label specifying the subnode.\r\n     * @param owner The address of the new owner.\r\n     * @param resolver The address of the resolver.\r\n     * @param ttl The TTL in seconds.\r\n     */\r\n    function setSubnodeRecord(bytes32 node, bytes32 label, address owner, address resolver, uint64 ttl) external virtual override {\r\n        bytes32 subnode = setSubnodeOwner(node, label, owner);\r\n        _setResolverAndTTL(subnode, resolver, ttl);\r\n    }\r\n\r\n    /**\r\n     * @dev Transfers ownership of a node to a new address. May only be called by the current owner of the node.\r\n     * @param node The node to transfer ownership of.\r\n     * @param owner The address of the new owner.\r\n     */\r\n    function setOwner(bytes32 node, address owner) public virtual override authorised(node) {\r\n        _setOwner(node, owner);\r\n        emit Transfer(node, owner);\r\n    }\r\n\r\n    /**\r\n     * @dev Transfers ownership of a subnode keccak256(node, label) to a new address. May only be called by the owner of the parent node.\r\n     * @param node The parent node.\r\n     * @param label The hash of the label specifying the subnode.\r\n     * @param owner The address of the new owner.\r\n     */\r\n    function setSubnodeOwner(bytes32 node, bytes32 label, address owner) public virtual override authorised(node) returns(bytes32) {\r\n        bytes32 subnode = keccak256(abi.encodePacked(node, label));\r\n        _setOwner(subnode, owner);\r\n        emit NewOwner(node, label, owner);\r\n        return subnode;\r\n    }\r\n\r\n    /**\r\n     * @dev Sets the resolver address for the specified node.\r\n     * @param node The node to update.\r\n     * @param resolver The address of the resolver.\r\n     */\r\n    function setResolver(bytes32 node, address resolver) public virtual override authorised(node) {\r\n        emit NewResolver(node, resolver);\r\n        records[node].resolver = resolver;\r\n    }\r\n\r\n    /**\r\n     * @dev Sets the TTL for the specified node.\r\n     * @param node The node to update.\r\n     * @param ttl The TTL in seconds.\r\n     */\r\n    function setTTL(bytes32 node, uint64 ttl) public virtual override authorised(node) {\r\n        emit NewTTL(node, ttl);\r\n        records[node].ttl = ttl;\r\n    }\r\n\r\n    /**\r\n     * @dev Enable or disable approval for a third party (\"operator\") to manage\r\n     *  all of `msg.sender`'s ENS records. Emits the ApprovalForAll event.\r\n     * @param operator Address to add to the set of authorized operators.\r\n     * @param approved True if the operator is approved, false to revoke approval.\r\n     */\r\n    function setApprovalForAll(address operator, bool approved) external virtual override {\r\n        operators[msg.sender][operator] = approved;\r\n        emit ApprovalForAll(msg.sender, operator, approved);\r\n    }\r\n\r\n    /**\r\n     * @dev Returns the address that owns the specified node.\r\n     * @param node The specified node.\r\n     * @return address of the owner.\r\n     */\r\n    function owner(bytes32 node) public virtual override view returns (address) {\r\n        address addr = records[node].owner;\r\n        if (addr == address(this)) {\r\n            return address(0x0);\r\n        }\r\n\r\n        return addr;\r\n    }\r\n\r\n    /**\r\n     * @dev Returns the address of the resolver for the specified node.\r\n     * @param node The specified node.\r\n     * @return address of the resolver.\r\n     */\r\n    function resolver(bytes32 node) public virtual override view returns (address) {\r\n        return records[node].resolver;\r\n    }\r\n\r\n    /**\r\n     * @dev Returns the TTL of a node, and any records associated with it.\r\n     * @param node The specified node.\r\n     * @return ttl of the node.\r\n     */\r\n    function ttl(bytes32 node) public virtual override view returns (uint64) {\r\n        return records[node].ttl;\r\n    }\r\n\r\n    /**\r\n     * @dev Returns whether a record has been imported to the registry.\r\n     * @param node The specified node.\r\n     * @return Bool if record exists\r\n     */\r\n    function recordExists(bytes32 node) public virtual override view returns (bool) {\r\n        return (records[node].owner != address(0));\r\n    }\r\n\r\n    /**\r\n     * @dev Query if an address is an authorized operator for another address.\r\n     * @param owner The address that owns the records.\r\n     * @param operator The address that acts on behalf of the owner.\r\n     * @return True if `operator` is an approved operator for `owner`, false otherwise.\r\n     */\r\n    function isApprovedForAll(address owner, address operator) external virtual override view returns (bool) {\r\n        return operators[owner][operator];\r\n    }\r\n\r\n    function _setOwner(bytes32 node, address owner) internal virtual {\r\n        records[node].owner = owner;\r\n    }\r\n\r\n    function _setResolverAndTTL(bytes32 node, address resolver, uint64 ttl) internal {\r\n        if(resolver != records[node].resolver) {\r\n            records[node].resolver = resolver;\r\n            emit NewResolver(node, resolver);\r\n        }\r\n\r\n        if(ttl != records[node].ttl) {\r\n            records[node].ttl = ttl;\r\n            emit NewTTL(node, ttl);\r\n        }\r\n    }\r\n\r\n   /* struct RegistryStruct{\r\n        address resolver;\r\n        uint64 ttl;\r\n        address owner; // does not really matter a slong as it is not empty\r\n    }\r\n\r\n    mapping(bytes32 => RegistryStruct) nodes;\r\n\r\n    constructor(bytes32[] memory initNodes, address resolver){\r\n        for(uint i = 0; i < initNodes.length; i++){\r\n            nodes[initNodes[i]].ttl = 0;\r\n            nodes[initNodes[i]].resolver = resolver;\r\n            nodes[initNodes[i]].owner = msg.sender;\r\n        }\r\n    }\r\n\r\n    function resolver(bytes32 node) external override view returns (address){ \r\n        return nodes[node].resolver;\r\n    }\r\n\r\n    function owner(bytes32 node) external override view returns (address){ \r\n        return nodes[node].owner;\r\n    }\r\n\r\n    function ttl(bytes32 node) external override view returns (uint64){ \r\n        return nodes[node].ttl;\r\n    }\r\n\r\n    function setOwner(bytes32 node, address owner) external override{}\r\n    function setResolver(bytes32 node, address resolver) external override{}\r\n    function setTTL(bytes32 node, uint64 ttl) external override{}\r\n    function setSubnodeOwner(bytes32 node, bytes32 label, address owner) external override{}\r\n    function setRecord(bytes32 node, address owner, address resolver, uint64 ttl) external override{}\r\n    function setApprovalForAll(address operator, bool approved) external override{}\r\n\r\n    function isApprovedForAll(address owner, address operator) external override view returns (bool){ \r\n        return false;\r\n    }\r\n\r\n    function recordExists(bytes32 node) external override view returns (bool){\r\n        return (address(0) != nodes[node].owner);\r\n    }\r\n\r\n    function setSubnodeRecord(bytes32 node, bytes32 label, address owner, address resolver, uint64 ttl) external override {\r\n        bytes32 FullNode = keccak256(abi.encodePacked(node, label));\r\n        nodes[FullNode].resolver = resolver;\r\n        nodes[FullNode].owner = owner;\r\n        nodes[FullNode].ttl = ttl;\r\n    }*/\r\n\r\n}",
  "sourcePath": "C:\\Users\\d-aam\\GitHub\\Certificates\\contracts\\Mock\\MockENSRegistry.sol",
  "compiler": {
    "name": "solc",
    "version": "0.8.7+commit.e28d00a7.Emscripten.clang"
  },
  "schemaVersion": "3.4.3",
  "updatedAt": "2022-01-05T12:52:40.007Z",
  "devdoc": {
    "kind": "dev",
    "methods": {
      "constructor": {
        "details": "Constructs a new ENS registrar."
      },
      "isApprovedForAll(address,address)": {
        "details": "Query if an address is an authorized operator for another address.",
        "params": {
          "operator": "The address that acts on behalf of the owner.",
          "owner": "The address that owns the records."
        },
        "returns": {
          "_0": "True if `operator` is an approved operator for `owner`, false otherwise."
        }
      },
      "owner(bytes32)": {
        "details": "Returns the address that owns the specified node.",
        "params": {
          "node": "The specified node."
        },
        "returns": {
          "_0": "address of the owner."
        }
      },
      "recordExists(bytes32)": {
        "details": "Returns whether a record has been imported to the registry.",
        "params": {
          "node": "The specified node."
        },
        "returns": {
          "_0": "Bool if record exists"
        }
      },
      "resolver(bytes32)": {
        "details": "Returns the address of the resolver for the specified node.",
        "params": {
          "node": "The specified node."
        },
        "returns": {
          "_0": "address of the resolver."
        }
      },
      "setApprovalForAll(address,bool)": {
        "details": "Enable or disable approval for a third party (\"operator\") to manage  all of `msg.sender`'s ENS records. Emits the ApprovalForAll event.",
        "params": {
          "approved": "True if the operator is approved, false to revoke approval.",
          "operator": "Address to add to the set of authorized operators."
        }
      },
      "setOwner(bytes32,address)": {
        "details": "Transfers ownership of a node to a new address. May only be called by the current owner of the node.",
        "params": {
          "node": "The node to transfer ownership of.",
          "owner": "The address of the new owner."
        }
      },
      "setRecord(bytes32,address,address,uint64)": {
        "details": "Sets the record for a node.",
        "params": {
          "node": "The node to update.",
          "owner": "The address of the new owner.",
          "resolver": "The address of the resolver.",
          "ttl": "The TTL in seconds."
        }
      },
      "setResolver(bytes32,address)": {
        "details": "Sets the resolver address for the specified node.",
        "params": {
          "node": "The node to update.",
          "resolver": "The address of the resolver."
        }
      },
      "setSubnodeOwner(bytes32,bytes32,address)": {
        "details": "Transfers ownership of a subnode keccak256(node, label) to a new address. May only be called by the owner of the parent node.",
        "params": {
          "label": "The hash of the label specifying the subnode.",
          "node": "The parent node.",
          "owner": "The address of the new owner."
        }
      },
      "setSubnodeRecord(bytes32,bytes32,address,address,uint64)": {
        "details": "Sets the record for a subnode.",
        "params": {
          "label": "The hash of the label specifying the subnode.",
          "node": "The parent node.",
          "owner": "The address of the new owner.",
          "resolver": "The address of the resolver.",
          "ttl": "The TTL in seconds."
        }
      },
      "setTTL(bytes32,uint64)": {
        "details": "Sets the TTL for the specified node.",
        "params": {
          "node": "The node to update.",
          "ttl": "The TTL in seconds."
        }
      },
      "ttl(bytes32)": {
        "details": "Returns the TTL of a node, and any records associated with it.",
        "params": {
          "node": "The specified node."
        },
        "returns": {
          "_0": "ttl of the node."
        }
      }
    },
    "version": 1
  },
  "userdoc": {
    "kind": "user",
    "methods": {},
    "version": 1
  }
}