{
  "contractName": "MockChainLinkFeedRegistry",
  "abi": [
    {
      "inputs": [
        {
          "internalType": "int256",
          "name": "_factor",
          "type": "int256"
        }
      ],
      "stateMutability": "nonpayable",
      "type": "constructor"
    },
    {
      "inputs": [
        {
          "internalType": "address",
          "name": "base",
          "type": "address"
        },
        {
          "internalType": "address",
          "name": "quote",
          "type": "address"
        }
      ],
      "name": "latestRoundData",
      "outputs": [
        {
          "internalType": "uint80",
          "name": "roundId",
          "type": "uint80"
        },
        {
          "internalType": "int256",
          "name": "answer",
          "type": "int256"
        },
        {
          "internalType": "uint256",
          "name": "startedAt",
          "type": "uint256"
        },
        {
          "internalType": "uint256",
          "name": "updatedAt",
          "type": "uint256"
        },
        {
          "internalType": "uint80",
          "name": "answeredInRound",
          "type": "uint80"
        }
      ],
      "stateMutability": "view",
      "type": "function",
      "constant": true
    }
  ],
  "bytecode": "0x608060405234801561001057600080fd5b5060405161015d38038061015d83398101604081905261002f91610037565b600055610050565b60006020828403121561004957600080fd5b5051919050565b60ff8061005e6000396000f3fe6080604052348015600f57600080fd5b506004361060285760003560e01c8063bcfd032d14602d575b600080fd5b60486038366004609b565b5050600080549091829081908190565b604080516001600160501b03968716815260208101959095528401929092526060830152909116608082015260a00160405180910390f35b80356001600160a01b0381168114609657600080fd5b919050565b6000806040838503121560ad57600080fd5b60b4836080565b915060c0602084016080565b9050925092905056fea2646970667358221220003d7c625fecf3556016321bd78a0d2a2467949b0efe653137ec3ff18091a46464736f6c63430008070033",
  "immutableReferences": {},
  "source": "// SPDX-License-Identifier: GPL-3.0\r\n\r\npragma solidity >=0.8.0 <0.9.0;\r\n\r\n/**\r\n * @title Storage\r\n * @dev Store & retrieve value in a variable\r\n */\r\n\r\n\r\ncontract MockChainLinkFeedRegistry {\r\n    int256 factor;\r\n\r\n    constructor(int256 _factor){\r\n        factor = _factor;\r\n    }\r\n\r\n    function latestRoundData(address base,address quote)external view\r\n    returns (\r\n      uint80 roundId,\r\n      int256 answer,\r\n      uint256 startedAt,\r\n      uint256 updatedAt,\r\n      uint80 answeredInRound\r\n    )\r\n    {\r\n        return (0, factor, 0, 0, 0);\r\n    }\r\n\r\n}",
  "sourcePath": "C:/Users/d-aam/GitHub/Certificates/contracts/Mock/MockChainLinkFeedRegistry.sol",
  "compiler": {
    "name": "solc",
    "version": "0.8.7+commit.e28d00a7.Emscripten.clang"
  },
  "schemaVersion": "3.3.4",
  "updatedAt": "2021-09-01T12:55:41.392Z",
  "networkType": "ethereum",
  "devdoc": {
    "details": "Store & retrieve value in a variable",
    "kind": "dev",
    "methods": {},
    "title": "Storage",
    "version": 1
  },
  "userdoc": {
    "kind": "user",
    "methods": {},
    "version": 1
  }
}