{
  "contractName": "MockENSRegistry",
  "abi": [
    {
      "inputs": [
        {
          "internalType": "bytes32",
          "name": "_initlNode",
          "type": "bytes32"
        },
        {
          "internalType": "address",
          "name": "_resolver",
          "type": "address"
        },
        {
          "internalType": "uint64",
          "name": "_ttl",
          "type": "uint64"
        },
        {
          "internalType": "address",
          "name": "_Owner",
          "type": "address"
        }
      ],
      "stateMutability": "nonpayable",
      "type": "constructor"
    },
    {
      "inputs": [
        {
          "internalType": "bytes32",
          "name": "node",
          "type": "bytes32"
        }
      ],
      "name": "resolver",
      "outputs": [
        {
          "internalType": "address",
          "name": "",
          "type": "address"
        }
      ],
      "stateMutability": "view",
      "type": "function"
    },
    {
      "inputs": [
        {
          "internalType": "bytes32",
          "name": "node",
          "type": "bytes32"
        }
      ],
      "name": "owner",
      "outputs": [
        {
          "internalType": "address",
          "name": "",
          "type": "address"
        }
      ],
      "stateMutability": "view",
      "type": "function"
    },
    {
      "inputs": [
        {
          "internalType": "bytes32",
          "name": "node",
          "type": "bytes32"
        }
      ],
      "name": "ttl",
      "outputs": [
        {
          "internalType": "uint64",
          "name": "",
          "type": "uint64"
        }
      ],
      "stateMutability": "view",
      "type": "function"
    },
    {
      "inputs": [
        {
          "internalType": "bytes32",
          "name": "node",
          "type": "bytes32"
        },
        {
          "internalType": "address",
          "name": "owner",
          "type": "address"
        }
      ],
      "name": "setOwner",
      "outputs": [],
      "stateMutability": "nonpayable",
      "type": "function"
    },
    {
      "inputs": [
        {
          "internalType": "bytes32",
          "name": "node",
          "type": "bytes32"
        },
        {
          "internalType": "address",
          "name": "resolver",
          "type": "address"
        }
      ],
      "name": "setResolver",
      "outputs": [],
      "stateMutability": "nonpayable",
      "type": "function"
    },
    {
      "inputs": [
        {
          "internalType": "bytes32",
          "name": "node",
          "type": "bytes32"
        },
        {
          "internalType": "uint64",
          "name": "ttl",
          "type": "uint64"
        }
      ],
      "name": "setTTL",
      "outputs": [],
      "stateMutability": "nonpayable",
      "type": "function"
    },
    {
      "inputs": [
        {
          "internalType": "bytes32",
          "name": "node",
          "type": "bytes32"
        },
        {
          "internalType": "bytes32",
          "name": "label",
          "type": "bytes32"
        },
        {
          "internalType": "address",
          "name": "owner",
          "type": "address"
        }
      ],
      "name": "setSubnodeOwner",
      "outputs": [],
      "stateMutability": "nonpayable",
      "type": "function"
    },
    {
      "inputs": [
        {
          "internalType": "bytes32",
          "name": "node",
          "type": "bytes32"
        },
        {
          "internalType": "address",
          "name": "owner",
          "type": "address"
        },
        {
          "internalType": "address",
          "name": "resolver",
          "type": "address"
        },
        {
          "internalType": "uint64",
          "name": "ttl",
          "type": "uint64"
        }
      ],
      "name": "setRecord",
      "outputs": [],
      "stateMutability": "nonpayable",
      "type": "function"
    },
    {
      "inputs": [
        {
          "internalType": "address",
          "name": "operator",
          "type": "address"
        },
        {
          "internalType": "bool",
          "name": "approved",
          "type": "bool"
        }
      ],
      "name": "setApprovalForAll",
      "outputs": [],
      "stateMutability": "nonpayable",
      "type": "function"
    },
    {
      "inputs": [
        {
          "internalType": "address",
          "name": "owner",
          "type": "address"
        },
        {
          "internalType": "address",
          "name": "operator",
          "type": "address"
        }
      ],
      "name": "isApprovedForAll",
      "outputs": [
        {
          "internalType": "bool",
          "name": "",
          "type": "bool"
        }
      ],
      "stateMutability": "view",
      "type": "function"
    },
    {
      "inputs": [
        {
          "internalType": "bytes32",
          "name": "node",
          "type": "bytes32"
        }
      ],
      "name": "recordExists",
      "outputs": [
        {
          "internalType": "bool",
          "name": "",
          "type": "bool"
        }
      ],
      "stateMutability": "view",
      "type": "function"
    },
    {
      "inputs": [
        {
          "internalType": "bytes32",
          "name": "node",
          "type": "bytes32"
        },
        {
          "internalType": "bytes32",
          "name": "label",
          "type": "bytes32"
        },
        {
          "internalType": "address",
          "name": "owner",
          "type": "address"
        },
        {
          "internalType": "address",
          "name": "resolver",
          "type": "address"
        },
        {
          "internalType": "uint64",
          "name": "ttl",
          "type": "uint64"
        }
      ],
      "name": "setSubnodeRecord",
      "outputs": [],
      "stateMutability": "nonpayable",
      "type": "function"
    }
  ],
  "bytecode": "0x608060405234801561001057600080fd5b5060405161061e38038061061e83398101604081905261002f916100a9565b60009384526020849052604090932080546001600160401b0392909216600160a01b026001600160e01b03199092166001600160a01b03938416179190911781556001018054919092166001600160a01b0319909116179055610105565b80516001600160a01b03811681146100a457600080fd5b919050565b600080600080608085870312156100bf57600080fd5b845193506100cf6020860161008d565b60408601519093506001600160401b03811681146100ec57600080fd5b91506100fa6060860161008d565b905092959194509250565b61050a806101146000396000f3fe608060405234801561001057600080fd5b50600436106100a45760003560e01c80630178b8bf146100a957806302571be3146100ef57806306ab59231461010357806314ab90381461011857806316a25cbd1461012a5780631896f70a146101725780635b0fc9c3146101725780635ef2c7f014610180578063a22cb46514610193578063cf408823146101a1578063e985e9c5146101b5578063f79fe538146101db575b600080fd5b6100d26100b736600461039c565b6000908152602081905260409020546001600160a01b031690565b6040516001600160a01b0390911681526020015b60405180910390f35b6100d26100fd36600461039c565b50600090565b610116610111366004610425565b505050565b005b6101166101263660046104b1565b5050565b61015a61013836600461039c565b600090815260208190526040902054600160a01b90046001600160401b031690565b6040516001600160401b0390911681526020016100e6565b6101166101263660046103b5565b61011661018e36600461045a565b610209565b610116610126366004610360565b6101166101af3660046103d8565b50505050565b6101cb6101c336600461032d565b600092915050565b60405190151581526020016100e6565b6101cb6101e936600461039c565b6000908152602081905260409020600101546001600160a01b0316151590565b600085815260208190526040902060010154339086906001600160a01b031682146102755760405162461bcd60e51b815260206004820152601860248201527734ba1034b9903737ba103a3432903737b2329037bbb732b960411b604482015260640160405180910390fd5b50506040805160208082019790975280820195909552805180860382018152606090950181528451948601949094206000908152948590529290932080546001820180546001600160a01b039485166001600160a01b03199091161790556001600160401b03909316600160a01b026001600160e01b03199093169190931617179055565b80356001600160a01b038116811461031157600080fd5b919050565b80356001600160401b038116811461031157600080fd5b6000806040838503121561034057600080fd5b610349836102fa565b9150610357602084016102fa565b90509250929050565b6000806040838503121561037357600080fd5b61037c836102fa565b91506020830135801515811461039157600080fd5b809150509250929050565b6000602082840312156103ae57600080fd5b5035919050565b600080604083850312156103c857600080fd5b82359150610357602084016102fa565b600080600080608085870312156103ee57600080fd5b843593506103fe602086016102fa565b925061040c604086016102fa565b915061041a60608601610316565b905092959194509250565b60008060006060848603121561043a57600080fd5b8335925060208401359150610451604085016102fa565b90509250925092565b600080600080600060a0868803121561047257600080fd5b8535945060208601359350610489604087016102fa565b9250610497606087016102fa565b91506104a560808701610316565b90509295509295909350565b600080604083850312156104c457600080fd5b823591506103576020840161031656fea2646970667358221220424dcd67f9ef8ee485ffc633ee38c600c3f70e403a83de86fa85f4628ead274564736f6c63430008070033",
  "immutableReferences": {},
  "source": "// SPDX-License-Identifier: GPL-3.0\r\n\r\npragma solidity 0.8.7;\r\n\r\n/**\r\n Mock Contract simulating the ChainLink Feed Registry ETH <-> USD for the tests chains that do not include it\r\n */\r\n\r\n import \"../Interfaces/IENSRegistry.sol\";\r\n\r\n\r\n\r\ncontract MockENSRegistry is IENSRegistry{\r\n\r\n    struct RegistryStruct{\r\n        address resolver;\r\n        uint64 ttl;\r\n        address owner;\r\n    }\r\n\r\n    mapping(bytes32 => RegistryStruct) registry;\r\n\r\n    modifier isOwner(address addr, bytes32 node){\r\n        require(addr == registry[node].owner, \"it is not the node owner\");\r\n        _;\r\n    }\r\n\r\n    constructor(bytes32 _initlNode, address _resolver, uint64 _ttl, address _Owner){\r\n        registry[_initlNode].resolver = _resolver;\r\n        registry[_initlNode].ttl = _ttl;\r\n        registry[_initlNode].owner = _Owner;\r\n    }\r\n\r\n    function resolver(bytes32 node) external override view returns (address){ \r\n        return registry[node].resolver;\r\n    }\r\n\r\n    function owner(bytes32 node) external override view returns (address){ return address(0);}\r\n\r\n    function ttl(bytes32 node) external override view returns (uint64){ \r\n        return registry[node].ttl;\r\n    }\r\n\r\n    function setOwner(bytes32 node, address owner) external override{}\r\n    function setResolver(bytes32 node, address resolver) external override{}\r\n    function setTTL(bytes32 node, uint64 ttl) external override{}\r\n    function setSubnodeOwner(bytes32 node, bytes32 label, address owner) external override{}\r\n    function setRecord(bytes32 node, address owner, address resolver, uint64 ttl) external override{}\r\n    function setApprovalForAll(address operator, bool approved) external override{}\r\n\r\n    function isApprovedForAll(address owner, address operator) external override view returns (bool){ \r\n        return false;\r\n    }\r\n\r\n    function recordExists(bytes32 node) external override view returns (bool){\r\n        return (address(0) != registry[node].owner);\r\n    }\r\n\r\n    function setSubnodeRecord(bytes32 node, bytes32 label, address owner, address resolver, uint64 ttl) external override isOwner(msg.sender, node){\r\n        bytes32 FullNode = keccak256(abi.encodePacked(node, label));\r\n        registry[FullNode].resolver = resolver;\r\n        registry[FullNode].owner = owner;\r\n        registry[FullNode].ttl = ttl;\r\n    }\r\n\r\n}",
  "sourcePath": "C:/Users/d-aam/GitHub/Certificates/contracts/Mock/MockENSRegistry.sol",
  "compiler": {
    "name": "solc",
    "version": "0.8.7+commit.e28d00a7.Emscripten.clang"
  },
  "schemaVersion": "3.3.4",
  "updatedAt": "2021-10-28T08:17:18.700Z",
  "devdoc": {
    "kind": "dev",
    "methods": {},
    "version": 1
  },
  "userdoc": {
    "kind": "user",
    "methods": {},
    "version": 1
  }
}