{
  "contractName": "MockENSReverseRegistry",
  "abi": [
    {
      "inputs": [
        {
          "internalType": "address",
          "name": "owner",
          "type": "address"
        }
      ],
      "name": "claim",
      "outputs": [
        {
          "internalType": "bytes32",
          "name": "",
          "type": "bytes32"
        }
      ],
      "stateMutability": "nonpayable",
      "type": "function"
    },
    {
      "inputs": [
        {
          "internalType": "address",
          "name": "owner",
          "type": "address"
        },
        {
          "internalType": "address",
          "name": "resolver",
          "type": "address"
        }
      ],
      "name": "claimWithResolver",
      "outputs": [
        {
          "internalType": "bytes32",
          "name": "",
          "type": "bytes32"
        }
      ],
      "stateMutability": "nonpayable",
      "type": "function"
    },
    {
      "inputs": [
        {
          "internalType": "string",
          "name": "name",
          "type": "string"
        }
      ],
      "name": "setName",
      "outputs": [
        {
          "internalType": "bytes32",
          "name": "",
          "type": "bytes32"
        }
      ],
      "stateMutability": "nonpayable",
      "type": "function"
    },
    {
      "inputs": [
        {
          "internalType": "address",
          "name": "addr",
          "type": "address"
        }
      ],
      "name": "node",
      "outputs": [
        {
          "internalType": "bytes32",
          "name": "",
          "type": "bytes32"
        }
      ],
      "stateMutability": "pure",
      "type": "function",
      "constant": true
    },
    {
      "inputs": [],
      "name": "defaultResolver",
      "outputs": [
        {
          "internalType": "address",
          "name": "",
          "type": "address"
        }
      ],
      "stateMutability": "view",
      "type": "function",
      "constant": true
    }
  ],
  "bytecode": "0x608060405234801561001057600080fd5b50610361806100206000396000f3fe608060405234801561001057600080fd5b50600436106100575760003560e01c80630f5a54661461005c5780631e83409a14610085578063828eab0e146100c4578063bffbe61c146100d2578063c47f0027146100e6575b600080fd5b61007261006a3660046101f7565b600092915050565b6040519081526020015b60405180910390f35b6100726100933660046101d5565b33600090815260208190526040812080546001600160a01b0319166001600160a01b03939093169290921790915590565b60405130815260200161007c565b6100726100e03660046101d5565b50600090565b6100726100f436600461022a565b336000908152602081815260408220835161011792600190920191850190610120565b50600092915050565b82805461012c906102da565b90600052602060002090601f01602090048101928261014e5760008555610194565b82601f1061016757805160ff1916838001178555610194565b82800160010185558215610194579182015b82811115610194578251825591602001919060010190610179565b506101a09291506101a4565b5090565b5b808211156101a057600081556001016101a5565b80356001600160a01b03811681146101d057600080fd5b919050565b6000602082840312156101e757600080fd5b6101f0826101b9565b9392505050565b6000806040838503121561020a57600080fd5b610213836101b9565b9150610221602084016101b9565b90509250929050565b60006020828403121561023c57600080fd5b81356001600160401b038082111561025357600080fd5b818401915084601f83011261026757600080fd5b81358181111561027957610279610315565b604051601f8201601f19908116603f011681019083821181831017156102a1576102a1610315565b816040528281528760208487010111156102ba57600080fd5b826020860160208301376000928101602001929092525095945050505050565b600181811c908216806102ee57607f821691505b6020821081141561030f57634e487b7160e01b600052602260045260246000fd5b50919050565b634e487b7160e01b600052604160045260246000fdfea26469706673582212206b66208eeed2b961612ad87a01cf73526205f2c8a4f6c7f76768854bbbd69cbe64736f6c63430008070033",
  "immutableReferences": {},
  "source": "// SPDX-License-Identifier: GPL-3.0\r\n\r\npragma solidity 0.8.7;\r\n\r\n/**\r\n Mock Contract simulating the ChainLink Feed Registry ETH <-> USD for the tests chains that do not include it\r\n */\r\n\r\n import \"../Interfaces/IENSReverseRegistry.sol\";\r\n\r\n\r\n\r\ncontract MockENSReverseRegistry is IENSReverseRegistry{\r\n\r\n    struct ReverStruct{\r\n        address owner;\r\n        string name;\r\n    }\r\n\r\n    mapping(address => ReverStruct) reverseRegistry;\r\n\r\n    function claim(address owner) external override returns (bytes32){\r\n        reverseRegistry[msg.sender].owner = owner;\r\n        return 0;\r\n    }\r\n\r\n    function claimWithResolver(address owner, address resolver) external override returns (bytes32) {\r\n        return 0;\r\n    }\r\n\r\n    function setName(string memory name) external override returns (bytes32){\r\n        reverseRegistry[msg.sender].name = name;\r\n        return 0;\r\n    }\r\n\r\n    function node(address addr) external pure override returns (bytes32){\r\n        return 0;\r\n    }\r\n\r\n    function defaultResolver() external view override returns (address){\r\n        return address(this);\r\n    }\r\n}",
  "sourcePath": "C:/Users/d-aam/GitHub/Certificates/contracts/Mock/MockENSReverseRegistry.sol",
  "compiler": {
    "name": "solc",
    "version": "0.8.7+commit.e28d00a7.Emscripten.clang"
  },
  "schemaVersion": "3.3.4",
  "updatedAt": "2021-11-10T14:06:22.296Z",
  "networkType": "ethereum",
  "devdoc": {
    "kind": "dev",
    "methods": {},
    "version": 1
  },
  "userdoc": {
    "kind": "user",
    "methods": {},
    "version": 1
  }
}