{
  "contractName": "MockENSResolver",
  "abi": [
    {
      "inputs": [
        {
          "internalType": "bytes32",
          "name": "node",
          "type": "bytes32"
        }
      ],
      "name": "addr",
      "outputs": [
        {
          "internalType": "address",
          "name": "",
          "type": "address"
        }
      ],
      "stateMutability": "view",
      "type": "function",
      "constant": true
    },
    {
      "inputs": [
        {
          "internalType": "bytes32",
          "name": "node",
          "type": "bytes32"
        },
        {
          "internalType": "address",
          "name": "addr",
          "type": "address"
        }
      ],
      "name": "setAddr",
      "outputs": [],
      "stateMutability": "nonpayable",
      "type": "function"
    }
  ],
  "bytecode": "0x608060405234801561001057600080fd5b50610149806100206000396000f3fe608060405234801561001057600080fd5b50600436106100365760003560e01c80633b3b57de1461003b578063d5fa2b0014610080575b600080fd5b6100646100493660046100be565b6000908152602081905260409020546001600160a01b031690565b6040516001600160a01b03909116815260200160405180910390f35b6100bc61008e3660046100d7565b60009182526020829052604090912080546001600160a01b0319166001600160a01b03909216919091179055565b005b6000602082840312156100d057600080fd5b5035919050565b600080604083850312156100ea57600080fd5b8235915060208301356001600160a01b038116811461010857600080fd5b80915050925092905056fea2646970667358221220cc6e92e1a8972a2de2286f57789f1e3fac89b4d8e50ef65f855b37b094051d4a64736f6c63430008070033",
  "immutableReferences": {},
  "source": "// SPDX-License-Identifier: GPL-3.0\r\n\r\npragma solidity 0.8.7;\r\n\r\n/**\r\n Mock Contract simulating the ChainLink Feed Registry ETH <-> USD for the tests chains that do not include it\r\n */\r\n\r\n import \"../Interfaces/IENSResolver.sol\";\r\n\r\n\r\n\r\ncontract MockENSResolver is IENSResolver{\r\n    mapping(bytes32 => address) list;\r\n\r\n    function addr(bytes32 node) external override view returns (address){\r\n        return list[node];\r\n    }\r\n\r\n    function setAddr(bytes32 node, address addr) external override{\r\n        list[node] = addr;\r\n    }\r\n}",
  "sourcePath": "C:/Users/d-aam/GitHub/Certificates/contracts/Mock/MockENSResolver.sol",
  "compiler": {
    "name": "solc",
    "version": "0.8.7+commit.e28d00a7.Emscripten.clang"
  },
  "schemaVersion": "3.3.4",
  "updatedAt": "2021-11-01T12:22:50.721Z",
  "networkType": "ethereum",
  "devdoc": {
    "kind": "dev",
    "methods": {},
    "version": 1
  },
  "userdoc": {
    "kind": "user",
    "methods": {},
    "version": 1
  }
}