{
  "contractName": "MockChainLinkFeedRegistry",
  "abi": [
    {
      "inputs": [
        {
          "internalType": "int256",
          "name": "_factor",
          "type": "int256"
        },
        {
          "internalType": "uint8",
          "name": "_decimals",
          "type": "uint8"
        }
      ],
      "stateMutability": "nonpayable",
      "type": "constructor"
    },
    {
      "inputs": [
        {
          "internalType": "address",
          "name": "base",
          "type": "address"
        },
        {
          "internalType": "address",
          "name": "quote",
          "type": "address"
        }
      ],
      "name": "latestRoundData",
      "outputs": [
        {
          "internalType": "uint80",
          "name": "roundId",
          "type": "uint80"
        },
        {
          "internalType": "int256",
          "name": "answer",
          "type": "int256"
        },
        {
          "internalType": "uint256",
          "name": "startedAt",
          "type": "uint256"
        },
        {
          "internalType": "uint256",
          "name": "updatedAt",
          "type": "uint256"
        },
        {
          "internalType": "uint80",
          "name": "answeredInRound",
          "type": "uint80"
        }
      ],
      "stateMutability": "view",
      "type": "function",
      "constant": true
    },
    {
      "inputs": [
        {
          "internalType": "address",
          "name": "base",
          "type": "address"
        },
        {
          "internalType": "address",
          "name": "quote",
          "type": "address"
        }
      ],
      "name": "decimals",
      "outputs": [
        {
          "internalType": "uint8",
          "name": "",
          "type": "uint8"
        }
      ],
      "stateMutability": "view",
      "type": "function",
      "constant": true
    }
  ],
  "bytecode": "0x608060405234801561001057600080fd5b506040516101c33803806101c383398101604081905261002f9161004d565b6000919091556001805460ff191660ff909216919091179055610083565b6000806040838503121561006057600080fd5b82519150602083015160ff8116811461007857600080fd5b809150509250929050565b610131806100926000396000f3fe6080604052348015600f57600080fd5b506004361060325760003560e01c806358e2d3a8146037578063bcfd032d146064575b600080fd5b604d604236600460cd565b505060015460ff1690565b60405160ff90911681526020015b60405180910390f35b607f606f36600460cd565b5050600080549091829081908190565b604080516001600160501b03968716815260208101959095528401929092526060830152909116608082015260a001605b565b80356001600160a01b038116811460c857600080fd5b919050565b6000806040838503121560df57600080fd5b60e68360b2565b915060f26020840160b2565b9050925092905056fea26469706673582212203c551cdd6bd0f78173e927514e765af311d1fb39d47073ba273dcd77e1f2e43f64736f6c63430008070033",
  "immutableReferences": {},
  "source": "// SPDX-License-Identifier: GPL-3.0\r\n\r\npragma solidity 0.8.7;\r\n\r\n/**\r\n Mock Contract simulating the ChainLink Feed Registry ETH <-> USD for the tests chains that do not include it\r\n */\r\n\r\n\r\ncontract MockChainLinkFeedRegistry {\r\n    int256 factor;\r\n    uint8 decimalsValue;\r\n\r\n    constructor(int256 _factor, uint8 _decimals){\r\n        factor = _factor;\r\n        decimalsValue = _decimals;\r\n    }\r\n\r\n    function latestRoundData(address base,address quote)external view\r\n    returns (\r\n      uint80 roundId,\r\n      int256 answer,\r\n      uint256 startedAt,\r\n      uint256 updatedAt,\r\n      uint80 answeredInRound\r\n    )\r\n    {\r\n        return (0, factor, 0, 0, 0);\r\n    }\r\n\r\n    function decimals(address base, address quote) external view returns (uint8){\r\n        return decimalsValue;\r\n    }\r\n\r\n}",
  "sourcePath": "C:/Users/d-aam/GitHub/Certificates/contracts/Mock/MockChainLinkFeedRegistry.sol",
  "compiler": {
    "name": "solc",
    "version": "0.8.7+commit.e28d00a7.Emscripten.clang"
  },
  "schemaVersion": "3.3.4",
  "updatedAt": "2021-12-03T12:44:21.182Z",
  "networkType": "ethereum",
  "devdoc": {
    "kind": "dev",
    "methods": {},
    "version": 1
  },
  "userdoc": {
    "kind": "user",
    "methods": {},
    "notice": "Mock Contract simulating the ChainLink Feed Registry ETH <-> USD for the tests chains that do not include it",
    "version": 1
  }
}