{
  "contractName": "MockENSRegistry",
  "abi": [
    {
      "inputs": [
        {
          "internalType": "bytes32[]",
          "name": "initNodes",
          "type": "bytes32[]"
        },
        {
          "internalType": "address",
          "name": "resolver",
          "type": "address"
        }
      ],
      "stateMutability": "nonpayable",
      "type": "constructor"
    },
    {
      "inputs": [
        {
          "internalType": "bytes32",
          "name": "node",
          "type": "bytes32"
        }
      ],
      "name": "resolver",
      "outputs": [
        {
          "internalType": "address",
          "name": "",
          "type": "address"
        }
      ],
      "stateMutability": "view",
      "type": "function"
    },
    {
      "inputs": [
        {
          "internalType": "bytes32",
          "name": "node",
          "type": "bytes32"
        }
      ],
      "name": "owner",
      "outputs": [
        {
          "internalType": "address",
          "name": "",
          "type": "address"
        }
      ],
      "stateMutability": "view",
      "type": "function"
    },
    {
      "inputs": [
        {
          "internalType": "bytes32",
          "name": "node",
          "type": "bytes32"
        }
      ],
      "name": "ttl",
      "outputs": [
        {
          "internalType": "uint64",
          "name": "",
          "type": "uint64"
        }
      ],
      "stateMutability": "view",
      "type": "function"
    },
    {
      "inputs": [
        {
          "internalType": "bytes32",
          "name": "node",
          "type": "bytes32"
        },
        {
          "internalType": "address",
          "name": "owner",
          "type": "address"
        }
      ],
      "name": "setOwner",
      "outputs": [],
      "stateMutability": "nonpayable",
      "type": "function"
    },
    {
      "inputs": [
        {
          "internalType": "bytes32",
          "name": "node",
          "type": "bytes32"
        },
        {
          "internalType": "address",
          "name": "resolver",
          "type": "address"
        }
      ],
      "name": "setResolver",
      "outputs": [],
      "stateMutability": "nonpayable",
      "type": "function"
    },
    {
      "inputs": [
        {
          "internalType": "bytes32",
          "name": "node",
          "type": "bytes32"
        },
        {
          "internalType": "uint64",
          "name": "ttl",
          "type": "uint64"
        }
      ],
      "name": "setTTL",
      "outputs": [],
      "stateMutability": "nonpayable",
      "type": "function"
    },
    {
      "inputs": [
        {
          "internalType": "bytes32",
          "name": "node",
          "type": "bytes32"
        },
        {
          "internalType": "bytes32",
          "name": "label",
          "type": "bytes32"
        },
        {
          "internalType": "address",
          "name": "owner",
          "type": "address"
        }
      ],
      "name": "setSubnodeOwner",
      "outputs": [],
      "stateMutability": "nonpayable",
      "type": "function"
    },
    {
      "inputs": [
        {
          "internalType": "bytes32",
          "name": "node",
          "type": "bytes32"
        },
        {
          "internalType": "address",
          "name": "owner",
          "type": "address"
        },
        {
          "internalType": "address",
          "name": "resolver",
          "type": "address"
        },
        {
          "internalType": "uint64",
          "name": "ttl",
          "type": "uint64"
        }
      ],
      "name": "setRecord",
      "outputs": [],
      "stateMutability": "nonpayable",
      "type": "function"
    },
    {
      "inputs": [
        {
          "internalType": "address",
          "name": "operator",
          "type": "address"
        },
        {
          "internalType": "bool",
          "name": "approved",
          "type": "bool"
        }
      ],
      "name": "setApprovalForAll",
      "outputs": [],
      "stateMutability": "nonpayable",
      "type": "function"
    },
    {
      "inputs": [
        {
          "internalType": "address",
          "name": "owner",
          "type": "address"
        },
        {
          "internalType": "address",
          "name": "operator",
          "type": "address"
        }
      ],
      "name": "isApprovedForAll",
      "outputs": [
        {
          "internalType": "bool",
          "name": "",
          "type": "bool"
        }
      ],
      "stateMutability": "view",
      "type": "function"
    },
    {
      "inputs": [
        {
          "internalType": "bytes32",
          "name": "node",
          "type": "bytes32"
        }
      ],
      "name": "recordExists",
      "outputs": [
        {
          "internalType": "bool",
          "name": "",
          "type": "bool"
        }
      ],
      "stateMutability": "view",
      "type": "function"
    },
    {
      "inputs": [
        {
          "internalType": "bytes32",
          "name": "node",
          "type": "bytes32"
        },
        {
          "internalType": "bytes32",
          "name": "label",
          "type": "bytes32"
        },
        {
          "internalType": "address",
          "name": "owner",
          "type": "address"
        },
        {
          "internalType": "address",
          "name": "resolver",
          "type": "address"
        },
        {
          "internalType": "uint64",
          "name": "ttl",
          "type": "uint64"
        }
      ],
      "name": "setSubnodeRecord",
      "outputs": [],
      "stateMutability": "nonpayable",
      "type": "function"
    }
  ],
  "bytecode": "0x608060405234801561001057600080fd5b5060405161075c38038061075c83398101604081905261002f9161016c565b60005b82518110156101485760008060008584815181106100525761005261026b565b6020026020010151815260200190815260200160002060000160146101000a8154816001600160401b0302191690836001600160401b03160217905550816000808584815181106100a5576100a561026b565b6020026020010151815260200190815260200160002060000160006101000a8154816001600160a01b0302191690836001600160a01b03160217905550336000808584815181106100f8576100f861026b565b6020026020010151815260200190815260200160002060010160006101000a8154816001600160a01b0302191690836001600160a01b03160217905550808061014090610242565b915050610032565b505050610297565b80516001600160a01b038116811461016757600080fd5b919050565b6000806040838503121561017f57600080fd5b82516001600160401b038082111561019657600080fd5b818501915085601f8301126101aa57600080fd5b81516020828211156101be576101be610281565b8160051b604051601f19603f830116810181811086821117156101e3576101e3610281565b604052838152828101945085830182870184018b101561020257600080fd5b600096505b84871015610225578051865260019690960195948301948301610207565b5096506102359050878201610150565b9450505050509250929050565b600060001982141561026457634e487b7160e01b600052601160045260246000fd5b5060010190565b634e487b7160e01b600052603260045260246000fd5b634e487b7160e01b600052604160045260246000fd5b6104b6806102a66000396000f3fe608060405234801561001057600080fd5b50600436106100a45760003560e01c80630178b8bf146100a957806302571be3146100ef57806306ab59231461011b57806314ab90381461013057806316a25cbd146101425780631896f70a1461018a5780635b0fc9c31461018a5780635ef2c7f014610198578063a22cb46514610230578063cf4088231461023e578063e985e9c514610252578063f79fe53814610278575b600080fd5b6100d26100b7366004610348565b6000908152602081905260409020546001600160a01b031690565b6040516001600160a01b0390911681526020015b60405180910390f35b6100d26100fd366004610348565b6000908152602081905260409020600101546001600160a01b031690565b61012e6101293660046103d1565b505050565b005b61012e61013e36600461045d565b5050565b610172610150366004610348565b600090815260208190526040902054600160a01b90046001600160401b031690565b6040516001600160401b0390911681526020016100e6565b61012e61013e366004610361565b61012e6101a6366004610406565b604080516020810187905290810185905260009060600160408051601f198184030181529181528151602092830120600090815291829052902080546001820180546001600160a01b039788166001600160a01b0319919091161790556001600160401b03909316600160a01b026001600160e01b03199093169490931693909317179055505050565b61012e61013e36600461030c565b61012e61024c366004610384565b50505050565b6102686102603660046102d9565b600092915050565b60405190151581526020016100e6565b610268610286366004610348565b6000908152602081905260409020600101546001600160a01b0316151590565b80356001600160a01b03811681146102bd57600080fd5b919050565b80356001600160401b03811681146102bd57600080fd5b600080604083850312156102ec57600080fd5b6102f5836102a6565b9150610303602084016102a6565b90509250929050565b6000806040838503121561031f57600080fd5b610328836102a6565b91506020830135801515811461033d57600080fd5b809150509250929050565b60006020828403121561035a57600080fd5b5035919050565b6000806040838503121561037457600080fd5b82359150610303602084016102a6565b6000806000806080858703121561039a57600080fd5b843593506103aa602086016102a6565b92506103b8604086016102a6565b91506103c6606086016102c2565b905092959194509250565b6000806000606084860312156103e657600080fd5b83359250602084013591506103fd604085016102a6565b90509250925092565b600080600080600060a0868803121561041e57600080fd5b8535945060208601359350610435604087016102a6565b9250610443606087016102a6565b9150610451608087016102c2565b90509295509295909350565b6000806040838503121561047057600080fd5b82359150610303602084016102c256fea2646970667358221220d941942411fd9282b5608c528fc17090beb2b3d633233dca8d031196f4e9a01864736f6c63430008070033",
  "immutableReferences": {},
  "source": "// SPDX-License-Identifier: GPL-3.0\r\n\r\npragma solidity 0.8.7;\r\n\r\n/**\r\n Mock Contract simulating the ChainLink Feed Registry ETH <-> USD for the tests chains that do not include it\r\n */\r\n\r\n import \"../Interfaces/IENSRegistry.sol\";\r\n\r\n\r\n\r\ncontract MockENSRegistry is IENSRegistry{\r\n\r\n    struct RegistryStruct{\r\n        address resolver;\r\n        uint64 ttl;\r\n        address owner; // does not really matter a slong as it is not empty\r\n    }\r\n\r\n    mapping(bytes32 => RegistryStruct) nodes;\r\n\r\n    constructor(bytes32[] memory initNodes, address resolver){\r\n        for(uint i = 0; i < initNodes.length; i++){\r\n            nodes[initNodes[i]].ttl = 0;\r\n            nodes[initNodes[i]].resolver = resolver;\r\n            nodes[initNodes[i]].owner = msg.sender;\r\n        }\r\n    }\r\n\r\n    function resolver(bytes32 node) external override view returns (address){ \r\n        return nodes[node].resolver;\r\n    }\r\n\r\n    function owner(bytes32 node) external override view returns (address){ \r\n        return nodes[node].owner;\r\n    }\r\n\r\n    function ttl(bytes32 node) external override view returns (uint64){ \r\n        return nodes[node].ttl;\r\n    }\r\n\r\n    function setOwner(bytes32 node, address owner) external override{}\r\n    function setResolver(bytes32 node, address resolver) external override{}\r\n    function setTTL(bytes32 node, uint64 ttl) external override{}\r\n    function setSubnodeOwner(bytes32 node, bytes32 label, address owner) external override{}\r\n    function setRecord(bytes32 node, address owner, address resolver, uint64 ttl) external override{}\r\n    function setApprovalForAll(address operator, bool approved) external override{}\r\n\r\n    function isApprovedForAll(address owner, address operator) external override view returns (bool){ \r\n        return false;\r\n    }\r\n\r\n    function recordExists(bytes32 node) external override view returns (bool){\r\n        return (address(0) != nodes[node].owner);\r\n    }\r\n\r\n    function setSubnodeRecord(bytes32 node, bytes32 label, address owner, address resolver, uint64 ttl) external override {\r\n        bytes32 FullNode = keccak256(abi.encodePacked(node, label));\r\n        nodes[FullNode].resolver = resolver;\r\n        nodes[FullNode].owner = owner;\r\n        nodes[FullNode].ttl = ttl;\r\n    }\r\n\r\n}",
  "sourcePath": "C:\\Users\\d-aam\\GitHub\\Certificates\\contracts\\Mock\\MockENSRegistry.sol",
  "compiler": {
    "name": "solc",
    "version": "0.8.7+commit.e28d00a7.Emscripten.clang"
  },
  "schemaVersion": "3.4.3",
  "updatedAt": "2021-12-10T09:30:18.477Z",
  "networkType": "ethereum",
  "devdoc": {
    "kind": "dev",
    "methods": {},
    "version": 1
  },
  "userdoc": {
    "kind": "user",
    "methods": {},
    "version": 1
  }
}