{
  "contractName": "MockENSReverseRegistry",
  "abi": [
    {
      "inputs": [
        {
          "internalType": "contract IENSRegistry",
          "name": "ensAddr",
          "type": "address"
        },
        {
          "internalType": "contract NameResolver",
          "name": "resolverAddr",
          "type": "address"
        }
      ],
      "stateMutability": "nonpayable",
      "type": "constructor"
    },
    {
      "inputs": [],
      "name": "ADDR_REVERSE_NODE",
      "outputs": [
        {
          "internalType": "bytes32",
          "name": "",
          "type": "bytes32"
        }
      ],
      "stateMutability": "view",
      "type": "function"
    },
    {
      "inputs": [],
      "name": "defaultResolver",
      "outputs": [
        {
          "internalType": "contract NameResolver",
          "name": "",
          "type": "address"
        }
      ],
      "stateMutability": "view",
      "type": "function"
    },
    {
      "inputs": [],
      "name": "ens",
      "outputs": [
        {
          "internalType": "contract IENSRegistry",
          "name": "",
          "type": "address"
        }
      ],
      "stateMutability": "view",
      "type": "function"
    },
    {
      "inputs": [
        {
          "internalType": "address",
          "name": "owner",
          "type": "address"
        }
      ],
      "name": "claim",
      "outputs": [
        {
          "internalType": "bytes32",
          "name": "",
          "type": "bytes32"
        }
      ],
      "stateMutability": "nonpayable",
      "type": "function"
    },
    {
      "inputs": [
        {
          "internalType": "address",
          "name": "owner",
          "type": "address"
        },
        {
          "internalType": "address",
          "name": "resolver",
          "type": "address"
        }
      ],
      "name": "claimWithResolver",
      "outputs": [
        {
          "internalType": "bytes32",
          "name": "",
          "type": "bytes32"
        }
      ],
      "stateMutability": "nonpayable",
      "type": "function"
    },
    {
      "inputs": [
        {
          "internalType": "string",
          "name": "name",
          "type": "string"
        }
      ],
      "name": "setName",
      "outputs": [
        {
          "internalType": "bytes32",
          "name": "",
          "type": "bytes32"
        }
      ],
      "stateMutability": "nonpayable",
      "type": "function"
    },
    {
      "inputs": [
        {
          "internalType": "address",
          "name": "addr",
          "type": "address"
        }
      ],
      "name": "node",
      "outputs": [
        {
          "internalType": "bytes32",
          "name": "",
          "type": "bytes32"
        }
      ],
      "stateMutability": "pure",
      "type": "function"
    },
    {
      "inputs": [],
      "name": "getDefaultResolver",
      "outputs": [
        {
          "internalType": "address",
          "name": "",
          "type": "address"
        }
      ],
      "stateMutability": "view",
      "type": "function"
    }
  ],
  "bytecode": "0x608060405234801561001057600080fd5b50604051610a1f380380610a1f83398101604081905261002f916101ba565b600080546001600160a01b03199081166001600160a01b03858116918217845560018054909316908516179091556040516302571be360e01b81527f91d1777781884d03a6757a803996e38de2a42967fb37eeaca72729271025a9e260048201526302571be39060240160206040518083038186803b1580156100b157600080fd5b505afa1580156100c5573d6000803e3d6000fd5b505050506040513d601f19601f820116820180604052508101906100e9919061017d565b90506001600160a01b0381161561017557604051630f41a04d60e11b81523360048201526001600160a01b03821690631e83409a90602401602060405180830381600087803b15801561013b57600080fd5b505af115801561014f573d6000803e3d6000fd5b505050506040513d601f19601f8201168201806040525081019061017391906101a1565b505b50505061020c565b60006020828403121561018f57600080fd5b815161019a816101f4565b9392505050565b6000602082840312156101b357600080fd5b5051919050565b600080604083850312156101cd57600080fd5b82516101d8816101f4565b60208401519092506101e9816101f4565b809150509250929050565b6001600160a01b038116811461020957600080fd5b50565b6108048061021b6000396000f3fe608060405234801561001057600080fd5b50600436106100785760003560e01c80630f5a54661461007d5780631e83409a146100a35780633efa047f146100b65780633f15457f146100db5780637cf8a2eb146100ee578063828eab0e14610103578063bffbe61c14610116578063c47f002714610129575b600080fd5b61009061008b366004610602565b61013c565b6040519081526020015b60405180910390f35b6100906100b13660046105c8565b61014f565b6001546001600160a01b03165b6040516001600160a01b03909116815260200161009a565b6000546100c3906001600160a01b031681565b6100906000805160206107af83398151915281565b6001546100c3906001600160a01b031681565b6100906101243660046105c8565b610162565b610090610137366004610654565b6101ab565b60006101488383610233565b9392505050565b600061015c826000610233565b92915050565b60006000805160206107af83398151915261017c83610571565b604080516020810193909352820152606001604051602081830303815290604052805190602001209050919050565b60015460009081906101c79030906001600160a01b0316610233565b600154604051637737221360e01b81529192506001600160a01b0316906377372213906101fa9084908790600401610723565b600060405180830381600087803b15801561021457600080fd5b505af1158015610228573d6000803e3d6000fd5b509295945050505050565b60008061023f33610571565b604080516000805160206107af833981519152602082015290810182905290915060009060600160408051808303601f19018152908290528051602090910120600080546302571be360e01b845260048401839052919350916001600160a01b03909116906302571be39060240160206040518083038186803b1580156102c557600080fd5b505afa1580156102d9573d6000803e3d6000fd5b505050506040513d601f19601f820116820180604052508101906102fd91906105e5565b90506001600160a01b038516158015906103a45750600054604051630178b8bf60e01b8152600481018490526001600160a01b0390911690630178b8bf9060240160206040518083038186803b15801561035657600080fd5b505afa15801561036a573d6000803e3d6000fd5b505050506040513d601f19601f8201168201806040525081019061038e91906105e5565b6001600160a01b0316856001600160a01b031614155b156104b9576001600160a01b0381163014610452576000546040516306ab592360e01b81526001600160a01b03909116906306ab5923906103fb906000805160206107af8339815191529087903090600401610704565b602060405180830381600087803b15801561041557600080fd5b505af1158015610429573d6000803e3d6000fd5b505050506040513d601f19601f8201168201806040525081019061044d919061063b565b503090505b600054604051630c4b7b8560e11b8152600481018490526001600160a01b03878116602483015290911690631896f70a90604401600060405180830381600087803b1580156104a057600080fd5b505af11580156104b4573d6000803e3d6000fd5b505050505b856001600160a01b0316816001600160a01b031614610568576000546040516306ab592360e01b81526001600160a01b03909116906306ab592390610514906000805160206107af8339815191529087908b90600401610704565b602060405180830381600087803b15801561052e57600080fd5b505af1158015610542573d6000803e3d6000fd5b505050506040513d601f19601f82011682018060405250810190610566919061063b565b505b50949350505050565b60006f181899199a1a9b1b9c1cb0b131b232b360811b60285b80156105bb5760001901600f841682901a815360109093049260001901600f841682901a815360108404935061058a565b5050602860002092915050565b6000602082840312156105da57600080fd5b813561014881610796565b6000602082840312156105f757600080fd5b815161014881610796565b6000806040838503121561061557600080fd5b823561062081610796565b9150602083013561063081610796565b809150509250929050565b60006020828403121561064d57600080fd5b5051919050565b60006020828403121561066657600080fd5b81356001600160401b038082111561067d57600080fd5b818401915084601f83011261069157600080fd5b8135818111156106a3576106a3610780565b604051601f8201601f19908116603f011681019083821181831017156106cb576106cb610780565b816040528281528760208487010111156106e457600080fd5b826020860160208301376000928101602001929092525095945050505050565b92835260208301919091526001600160a01b0316604082015260600190565b82815260006020604081840152835180604085015260005b818110156107575785810183015185820160600152820161073b565b81811115610769576000606083870101525b50601f01601f191692909201606001949350505050565b634e487b7160e01b600052604160045260246000fd5b6001600160a01b03811681146107ab57600080fd5b5056fe91d1777781884d03a6757a803996e38de2a42967fb37eeaca72729271025a9e2a2646970667358221220d74277a4e14853f914d76f8a26d74b097af3b33a320093f0945e62f473755b7464736f6c63430008070033",
  "immutableReferences": {},
  "source": "// SPDX-License-Identifier: GPL-3.0\r\n\r\npragma solidity 0.8.7;\r\n\r\n/**\r\n Mock Contract simulating the ChainLink Feed Registry ETH <-> USD for the tests chains that do not include it\r\n */\r\n\r\n  // copied from ENS domain GutHub repository: https://github.com/ensdomains/ens/blob/master/contracts/ReverseRegistrar.sol\r\n\r\n\r\n import \"../Interfaces/IENSReverseRegistry.sol\";\r\n import \"../Interfaces/IENSRegistry.sol\";\r\n import \"./MockENSResolver.sol\";\r\n\r\n\r\ncontract MockENSReverseRegistry is IENSReverseRegistry{\r\n\r\n    // namehash('addr.reverse')\r\n    bytes32 public constant ADDR_REVERSE_NODE = 0x91d1777781884d03a6757a803996e38de2a42967fb37eeaca72729271025a9e2;\r\n\r\n    IENSRegistry public ens;\r\n    NameResolver public defaultResolver;\r\n\r\n    /**\r\n     * @dev Constructor\r\n     * @param ensAddr The address of the ENS registry.\r\n     * @param resolverAddr The address of the default reverse resolver.\r\n     */\r\n    constructor(IENSRegistry ensAddr, NameResolver resolverAddr) {\r\n        ens = ensAddr;\r\n        defaultResolver = resolverAddr;\r\n\r\n        // Assign ownership of the reverse record to our deployer\r\n        MockENSReverseRegistry oldRegistrar = MockENSReverseRegistry(ens.owner(ADDR_REVERSE_NODE));\r\n        if (address(oldRegistrar) != address(0x0)) {\r\n            oldRegistrar.claim(msg.sender);\r\n        }\r\n    }\r\n\r\n    /**\r\n     * @dev Transfers ownership of the reverse ENS record associated with the\r\n     *      calling account.\r\n     * @param owner The address to set as the owner of the reverse record in ENS.\r\n     * @return The ENS node hash of the reverse record.\r\n     */\r\n    function claim(address owner) external override returns (bytes32) {\r\n        return claimWithResolver_int(owner, address(0x0));\r\n    }\r\n\r\n    /**\r\n     * @dev Transfers ownership of the reverse ENS record associated with the\r\n     *      calling account.\r\n     * @param owner The address to set as the owner of the reverse record in ENS.\r\n     * @param resolver The address of the resolver to set; 0 to leave unchanged.\r\n     * @return The ENS node hash of the reverse record.\r\n     */\r\n    function claimWithResolver(address owner, address resolver) external override returns (bytes32) {\r\n        return claimWithResolver_int(owner, resolver);\r\n    }\r\n\r\n    function claimWithResolver_int(address owner, address resolver) internal returns (bytes32) {\r\n        bytes32 label = sha3HexAddress(msg.sender);\r\n        bytes32 node = keccak256(abi.encodePacked(ADDR_REVERSE_NODE, label));\r\n        address currentOwner = ens.owner(node);\r\n\r\n        // Update the resolver if required\r\n        if (resolver != address(0x0) && resolver != ens.resolver(node)) {\r\n            // Transfer the name to us first if it's not already\r\n            if (currentOwner != address(this)) {\r\n                ens.setSubnodeOwner(ADDR_REVERSE_NODE, label, address(this));\r\n                currentOwner = address(this);\r\n            }\r\n            ens.setResolver(node, resolver);\r\n        }\r\n\r\n        // Update the owner if required\r\n        if (currentOwner != owner) {\r\n            ens.setSubnodeOwner(ADDR_REVERSE_NODE, label, owner);\r\n        }\r\n\r\n        return node;\r\n    }\r\n\r\n    /**\r\n     * @dev Sets the `name()` record for the reverse ENS record associated with\r\n     * the calling account. First updates the resolver to the default reverse\r\n     * resolver if necessary.\r\n     * @param name The name to set for this address.\r\n     * @return The ENS node hash of the reverse record.\r\n     */\r\n    function setName(string memory name) external override returns (bytes32) {\r\n        bytes32 node = claimWithResolver_int(address(this), address(defaultResolver));\r\n        defaultResolver.setName(node, name);\r\n        return node;\r\n    }\r\n\r\n    /**\r\n     * @dev Returns the node hash for a given account's reverse records.\r\n     * @param addr The address to hash\r\n     * @return The ENS node hash.\r\n     */\r\n    function node(address addr) external override pure returns (bytes32) {\r\n        return keccak256(abi.encodePacked(ADDR_REVERSE_NODE, sha3HexAddress(addr)));\r\n    }\r\n\r\n    /**\r\n     * @dev An optimised function to compute the sha3 of the lower-case\r\n     *      hexadecimal representation of an Ethereum address.\r\n     * @param addr The address to hash\r\n     * @return ret The SHA3 hash of the lower-case hexadecimal encoding of the\r\n     *         input address.\r\n     */\r\n    function sha3HexAddress(address addr) private pure returns (bytes32 ret) {\r\n        addr;\r\n        ret; // Stop warning us about unused variables\r\n        assembly {\r\n            let lookup := 0x3031323334353637383961626364656600000000000000000000000000000000\r\n\r\n            for { let i := 40 } gt(i, 0) { } {\r\n                i := sub(i, 1)\r\n                mstore8(i, byte(and(addr, 0xf), lookup))\r\n                addr := div(addr, 0x10)\r\n                i := sub(i, 1)\r\n                mstore8(i, byte(and(addr, 0xf), lookup))\r\n                addr := div(addr, 0x10)\r\n            }\r\n\r\n            ret := keccak256(0, 40)\r\n        }\r\n    }\r\n\r\n    function getDefaultResolver() external view override returns (address){\r\n        return address(defaultResolver);\r\n    }\r\n\r\n}",
  "sourcePath": "C:\\Users\\d-aam\\GitHub\\Certificates\\contracts\\Mock\\MockENSReverseRegistry.sol",
  "compiler": {
    "name": "solc",
    "version": "0.8.7+commit.e28d00a7.Emscripten.clang"
  },
  "schemaVersion": "3.4.3",
  "updatedAt": "2022-01-17T12:39:36.792Z",
  "devdoc": {
    "kind": "dev",
    "methods": {
      "claim(address)": {
        "details": "Transfers ownership of the reverse ENS record associated with the      calling account.",
        "params": {
          "owner": "The address to set as the owner of the reverse record in ENS."
        },
        "returns": {
          "_0": "The ENS node hash of the reverse record."
        }
      },
      "claimWithResolver(address,address)": {
        "details": "Transfers ownership of the reverse ENS record associated with the      calling account.",
        "params": {
          "owner": "The address to set as the owner of the reverse record in ENS.",
          "resolver": "The address of the resolver to set; 0 to leave unchanged."
        },
        "returns": {
          "_0": "The ENS node hash of the reverse record."
        }
      },
      "constructor": {
        "details": "Constructor",
        "params": {
          "ensAddr": "The address of the ENS registry.",
          "resolverAddr": "The address of the default reverse resolver."
        }
      },
      "node(address)": {
        "details": "Returns the node hash for a given account's reverse records.",
        "params": {
          "addr": "The address to hash"
        },
        "returns": {
          "_0": "The ENS node hash."
        }
      },
      "setName(string)": {
        "details": "Sets the `name()` record for the reverse ENS record associated with the calling account. First updates the resolver to the default reverse resolver if necessary.",
        "params": {
          "name": "The name to set for this address."
        },
        "returns": {
          "_0": "The ENS node hash of the reverse record."
        }
      }
    },
    "version": 1
  },
  "userdoc": {
    "kind": "user",
    "methods": {},
    "version": 1
  }
}