{
  "contractName": "MockENSResolver",
  "abi": [
    {
      "inputs": [
        {
          "internalType": "contract IENSRegistry",
          "name": "_ens",
          "type": "address"
        }
      ],
      "stateMutability": "nonpayable",
      "type": "constructor"
    },
    {
      "anonymous": false,
      "inputs": [
        {
          "indexed": true,
          "internalType": "bytes32",
          "name": "node",
          "type": "bytes32"
        },
        {
          "indexed": false,
          "internalType": "address",
          "name": "a",
          "type": "address"
        }
      ],
      "name": "AddrChanged",
      "type": "event"
    },
    {
      "anonymous": false,
      "inputs": [
        {
          "indexed": true,
          "internalType": "bytes32",
          "name": "node",
          "type": "bytes32"
        },
        {
          "indexed": false,
          "internalType": "uint256",
          "name": "coinType",
          "type": "uint256"
        },
        {
          "indexed": false,
          "internalType": "bytes",
          "name": "newAddress",
          "type": "bytes"
        }
      ],
      "name": "AddressChanged",
      "type": "event"
    },
    {
      "anonymous": false,
      "inputs": [
        {
          "indexed": true,
          "internalType": "bytes32",
          "name": "node",
          "type": "bytes32"
        },
        {
          "indexed": true,
          "internalType": "address",
          "name": "owner",
          "type": "address"
        },
        {
          "indexed": true,
          "internalType": "address",
          "name": "target",
          "type": "address"
        },
        {
          "indexed": false,
          "internalType": "bool",
          "name": "isAuthorised",
          "type": "bool"
        }
      ],
      "name": "AuthorisationChanged",
      "type": "event"
    },
    {
      "anonymous": false,
      "inputs": [
        {
          "indexed": true,
          "internalType": "bytes32",
          "name": "node",
          "type": "bytes32"
        },
        {
          "indexed": false,
          "internalType": "string",
          "name": "name",
          "type": "string"
        }
      ],
      "name": "NameChanged",
      "type": "event"
    },
    {
      "inputs": [
        {
          "internalType": "bytes32",
          "name": "node",
          "type": "bytes32"
        }
      ],
      "name": "addr",
      "outputs": [
        {
          "internalType": "address",
          "name": "",
          "type": "address"
        }
      ],
      "stateMutability": "view",
      "type": "function"
    },
    {
      "inputs": [
        {
          "internalType": "bytes32",
          "name": "",
          "type": "bytes32"
        },
        {
          "internalType": "address",
          "name": "",
          "type": "address"
        },
        {
          "internalType": "address",
          "name": "",
          "type": "address"
        }
      ],
      "name": "authorisations",
      "outputs": [
        {
          "internalType": "bool",
          "name": "",
          "type": "bool"
        }
      ],
      "stateMutability": "view",
      "type": "function"
    },
    {
      "inputs": [
        {
          "internalType": "bytes32",
          "name": "node",
          "type": "bytes32"
        }
      ],
      "name": "name",
      "outputs": [
        {
          "internalType": "string",
          "name": "",
          "type": "string"
        }
      ],
      "stateMutability": "view",
      "type": "function"
    },
    {
      "inputs": [
        {
          "internalType": "bytes32",
          "name": "node",
          "type": "bytes32"
        },
        {
          "internalType": "address",
          "name": "a",
          "type": "address"
        }
      ],
      "name": "setAddr",
      "outputs": [],
      "stateMutability": "nonpayable",
      "type": "function"
    },
    {
      "inputs": [
        {
          "internalType": "bytes32",
          "name": "node",
          "type": "bytes32"
        },
        {
          "internalType": "string",
          "name": "name",
          "type": "string"
        }
      ],
      "name": "setName",
      "outputs": [],
      "stateMutability": "nonpayable",
      "type": "function"
    },
    {
      "inputs": [
        {
          "internalType": "bytes32",
          "name": "node",
          "type": "bytes32"
        },
        {
          "internalType": "address",
          "name": "target",
          "type": "address"
        },
        {
          "internalType": "bool",
          "name": "isAuthorised",
          "type": "bool"
        }
      ],
      "name": "setAuthorisation",
      "outputs": [],
      "stateMutability": "nonpayable",
      "type": "function"
    },
    {
      "inputs": [
        {
          "internalType": "bytes[]",
          "name": "data",
          "type": "bytes[]"
        }
      ],
      "name": "multicall",
      "outputs": [
        {
          "internalType": "bytes[]",
          "name": "results",
          "type": "bytes[]"
        }
      ],
      "stateMutability": "nonpayable",
      "type": "function"
    }
  ],
  "bytecode": "0x608060405234801561001057600080fd5b50604051610cb4380380610cb483398101604081905261002f91610054565b600280546001600160a01b0319166001600160a01b0392909216919091179055610084565b60006020828403121561006657600080fd5b81516001600160a01b038116811461007d57600080fd5b9392505050565b610c21806100936000396000f3fe608060405234801561001057600080fd5b506004361061006d5760003560e01c80633b3b57de146100725780633e9ce7941461009b578063691f3431146100b057806377372213146100d0578063ac9650d8146100e3578063d5fa2b0014610103578063f86bc87914610116575b600080fd5b61008561008036600461087e565b61015a565b6040516100929190610a1d565b60405180910390f35b6100ae6100a9366004610909565b61018d565b005b6100c36100be36600461087e565b610203565b6040516100929190610ac2565b6100ae6100de366004610945565b6102a5565b6100f66100f136600461080a565b610312565b6040516100929190610a31565b6100ae610111366004610897565b61042c565b61014a6101243660046108c7565b600360209081526000938452604080852082529284528284209052825290205460ff1681565b6040519015158152602001610092565b60008061016883603c610458565b905080516000141561017d5750600092915050565b61018681610504565b9392505050565b6000838152600360209081526040808320338085529083528184206001600160a01b03871680865290845293829020805460ff191686151590811790915591519182529186917fe1c5610a6e0cbe10764ecd182adcef1ec338dc4e199c99c32ce98f38e12791df910160405180910390a4505050565b600081815260016020526040902080546060919061022090610b43565b80601f016020809104026020016040519081016040528092919081815260200182805461024c90610b43565b80156102995780601f1061026e57610100808354040283529160200191610299565b820191906000526020600020905b81548152906001019060200180831161027c57829003601f168201915b50505050509050919050565b826102af81610523565b6102b857600080fd5b60008481526001602052604090206102d19084846106e0565b50837fb7d29e911041e8d9b843369e890bcb72c9388692ba48b65ac54e7214c4c348f78484604051610304929190610a93565b60405180910390a250505050565b6060816001600160401b0381111561032c5761032c610bbd565b60405190808252806020026020018201604052801561035f57816020015b606081526020019060019003908161034a5790505b50905060005b82811015610425576000803086868581811061038357610383610ba7565b90506020028101906103959190610af6565b6040516103a3929190610a0d565b600060405180830381855af49150503d80600081146103de576040519150601f19603f3d011682016040523d82523d6000602084013e6103e3565b606091505b5091509150816103f257600080fd5b8084848151811061040557610405610ba7565b60200260200101819052505050808061041d90610b7e565b915050610365565b5092915050565b8161043681610523565b61043f57600080fd5b61045383603c61044e856105ed565b61061d565b505050565b600082815260208181526040808320848452909152902080546060919061047e90610b43565b80601f01602080910402602001604051908101604052809291908181526020018280546104aa90610b43565b80156104f75780601f106104cc576101008083540402835291602001916104f7565b820191906000526020600020905b8154815290600101906020018083116104da57829003601f168201915b5050505050905092915050565b6000815160141461051457600080fd5b5060200151600160601b900490565b6002546040516302571be360e01b81526004810183905260009182916001600160a01b03909116906302571be39060240160206040518083038186803b15801561056c57600080fd5b505afa158015610580573d6000803e3d6000fd5b505050506040513d601f19601f820116820180604052508101906105a491906107ed565b90506001600160a01b038116331480610186575060008381526003602090815260408083206001600160a01b0385168452825280832033845290915290205460ff169392505050565b604080516014808252818301909252606091602082018180368337505050600160601b9290920260208301525090565b8261062781610523565b61063057600080fd5b837f65412581168e88a1e60c6459d7f44ae83ad0832e670826c05a4e2476b57af7528484604051610662929190610ad5565b60405180910390a2603c8314156106b457837f52d7d861f09ab3d26239d492e8968629f95e9e318cf0b73bfddc441522a15fd261069e84610504565b6040516106ab9190610a1d565b60405180910390a25b600084815260208181526040808320868452825290912083516106d992850190610764565b5050505050565b8280546106ec90610b43565b90600052602060002090601f01602090048101928261070e5760008555610754565b82601f106107275782800160ff19823516178555610754565b82800160010185558215610754579182015b82811115610754578235825591602001919060010190610739565b506107609291506107d8565b5090565b82805461077090610b43565b90600052602060002090601f0160209004810192826107925760008555610754565b82601f106107ab57805160ff1916838001178555610754565b82800160010185558215610754579182015b828111156107545782518255916020019190600101906107bd565b5b8082111561076057600081556001016107d9565b6000602082840312156107ff57600080fd5b815161018681610bd3565b6000806020838503121561081d57600080fd5b82356001600160401b038082111561083457600080fd5b818501915085601f83011261084857600080fd5b81358181111561085757600080fd5b8660208260051b850101111561086c57600080fd5b60209290920196919550909350505050565b60006020828403121561089057600080fd5b5035919050565b600080604083850312156108aa57600080fd5b8235915060208301356108bc81610bd3565b809150509250929050565b6000806000606084860312156108dc57600080fd5b8335925060208401356108ee81610bd3565b915060408401356108fe81610bd3565b809150509250925092565b60008060006060848603121561091e57600080fd5b83359250602084013561093081610bd3565b9150604084013580151581146108fe57600080fd5b60008060006040848603121561095a57600080fd5b8335925060208401356001600160401b038082111561097857600080fd5b818601915086601f83011261098c57600080fd5b81358181111561099b57600080fd5b8760208285010111156109ad57600080fd5b6020830194508093505050509250925092565b6000815180845260005b818110156109e6576020818501810151868301820152016109ca565b818111156109f8576000602083870101525b50601f01601f19169290920160200192915050565b8183823760009101908152919050565b6001600160a01b0391909116815260200190565b6000602080830181845280855180835260408601915060408160051b870101925083870160005b82811015610a8657603f19888603018452610a748583516109c0565b94509285019290850190600101610a58565b5092979650505050505050565b60208152816020820152818360408301376000818301604090810191909152601f909201601f19160101919050565b60208152600061018660208301846109c0565b828152604060208201526000610aee60408301846109c0565b949350505050565b6000808335601e19843603018112610b0d57600080fd5b8301803591506001600160401b03821115610b2757600080fd5b602001915036819003821315610b3c57600080fd5b9250929050565b600181811c90821680610b5757607f821691505b60208210811415610b7857634e487b7160e01b600052602260045260246000fd5b50919050565b6000600019821415610ba057634e487b7160e01b600052601160045260246000fd5b5060010190565b634e487b7160e01b600052603260045260246000fd5b634e487b7160e01b600052604160045260246000fd5b6001600160a01b0381168114610be857600080fd5b5056fea2646970667358221220313a5a7a1220e211002708674e4f6ae1b7ba8339ef161828e108c80cdae18d0964736f6c63430008070033",
  "immutableReferences": {},
  "source": "// SPDX-License-Identifier: GPL-3.0\r\n\r\npragma solidity 0.8.7;\r\n\r\n/**\r\n Mock Contract simulating the ChainLink Feed Registry ETH <-> USD for the tests chains that do not include it\r\n */\r\n\r\n // copied from ENS domain GutHub repository: https://github.com/ensdomains/resolvers/blob/master/contracts/PublicResolver.sol\r\n\r\n\r\n import \"../Interfaces/IENSResolver.sol\";\r\n import \"../Interfaces/IENSRegistry.sol\";\r\n\r\nabstract contract ResolverBase {\r\n    bytes4 private constant INTERFACE_META_ID = 0x01ffc9a7;\r\n\r\n    function isAuthorised(bytes32 node) internal virtual view returns(bool);\r\n\r\n    modifier authorised(bytes32 node) {\r\n        require(isAuthorised(node));\r\n        _;\r\n    }\r\n\r\n    function bytesToAddress(bytes memory b) internal pure returns(address payable a) {\r\n        require(b.length == 20);\r\n        assembly {\r\n            a := div(mload(add(b, 32)), exp(256, 12))\r\n        }\r\n    }\r\n\r\n    function addressToBytes(address a) internal pure returns(bytes memory b) {\r\n        b = new bytes(20);\r\n        assembly {\r\n            mstore(add(b, 32), mul(a, exp(256, 12)))\r\n        }\r\n    }\r\n}\r\n\r\nabstract contract AddrResolver is IENSResolver, ResolverBase {\r\n    bytes4 constant private ADDR_INTERFACE_ID = 0x3b3b57de;\r\n    bytes4 constant private ADDRESS_INTERFACE_ID = 0xf1cb7e06;\r\n    uint constant private COIN_TYPE_ETH = 60;\r\n\r\n    event AddrChanged(bytes32 indexed node, address a);\r\n    event AddressChanged(bytes32 indexed node, uint coinType, bytes newAddress);\r\n\r\n    mapping(bytes32=>mapping(uint=>bytes)) _addresses;\r\n\r\n    /**\r\n     * Sets the address associated with an ENS node.\r\n     * May only be called by the owner of that node in the ENS registry.\r\n     * @param node The node to update.\r\n     * @param a The address to set.\r\n     */\r\n    function setAddr(bytes32 node, address a) external override authorised(node) {\r\n        setAddr(node, COIN_TYPE_ETH, addressToBytes(a));\r\n    }\r\n\r\n    /**\r\n     * Returns the address associated with an ENS node.\r\n     * @param node The ENS node to query.\r\n     * @return The associated address.\r\n     */\r\n    function addr(bytes32 node) external override view returns (address) {\r\n        bytes memory a = addr(node, COIN_TYPE_ETH);\r\n        if(a.length == 0) {\r\n            return address(0);\r\n        }\r\n        return bytesToAddress(a);\r\n    }\r\n\r\n    function setAddr(bytes32 node, uint coinType, bytes memory a) internal authorised(node) {\r\n        emit AddressChanged(node, coinType, a);\r\n        if(coinType == COIN_TYPE_ETH) {\r\n            emit AddrChanged(node, bytesToAddress(a));\r\n        }\r\n        _addresses[node][coinType] = a;\r\n    }\r\n\r\n    function addr(bytes32 node, uint coinType) internal view returns(bytes memory) {\r\n        return _addresses[node][coinType];\r\n    }\r\n}\r\n\r\nabstract contract NameResolver is ResolverBase {\r\n    bytes4 constant private NAME_INTERFACE_ID = 0x691f3431;\r\n\r\n    event NameChanged(bytes32 indexed node, string name);\r\n\r\n    mapping(bytes32=>string) names;\r\n\r\n    /**\r\n     * Sets the name associated with an ENS node, for reverse records.\r\n     * May only be called by the owner of that node in the ENS registry.\r\n     * @param node The node to update.\r\n     * @param name The name to set.\r\n     */\r\n    function setName(bytes32 node, string calldata name) external authorised(node) {\r\n        names[node] = name;\r\n        emit NameChanged(node, name);\r\n    }\r\n\r\n    /**\r\n     * Returns the name associated with an ENS node, for reverse records.\r\n     * Defined in EIP181.\r\n     * @param node The ENS node to query.\r\n     * @return The associated name.\r\n     */\r\n    function name(bytes32 node) external view returns (string memory) {\r\n        return names[node];\r\n    }\r\n\r\n}\r\n\r\ncontract MockENSResolver is AddrResolver, NameResolver{\r\n\r\n    IENSRegistry ens;\r\n\r\n    /**\r\n     * A mapping of authorisations. An address that is authorised for a name\r\n     * may make any changes to the name that the owner could, but may not update\r\n     * the set of authorisations.\r\n     * (node, owner, caller) => isAuthorised\r\n     */\r\n    mapping(bytes32=>mapping(address=>mapping(address=>bool))) public authorisations;\r\n\r\n    event AuthorisationChanged(bytes32 indexed node, address indexed owner, address indexed target, bool isAuthorised);\r\n\r\n    constructor(IENSRegistry _ens) {\r\n        ens = _ens;\r\n    }\r\n\r\n    /**\r\n     * @dev Sets or clears an authorisation.\r\n     * Authorisations are specific to the caller. Any account can set an authorisation\r\n     * for any name, but the authorisation that is checked will be that of the\r\n     * current owner of a name. Thus, transferring a name effectively clears any\r\n     * existing authorisations, and new authorisations can be set in advance of\r\n     * an ownership transfer if desired.\r\n     *\r\n     * @param node The name to change the authorisation on.\r\n     * @param target The address that is to be authorised or deauthorised.\r\n     * @param isAuthorised True if the address should be authorised, or false if it should be deauthorised.\r\n     */\r\n    function setAuthorisation(bytes32 node, address target, bool isAuthorised) external {\r\n        authorisations[node][msg.sender][target] = isAuthorised;\r\n        emit AuthorisationChanged(node, msg.sender, target, isAuthorised);\r\n    }\r\n\r\n    function isAuthorised(bytes32 node) internal override view returns(bool) {\r\n        address owner = ens.owner(node);\r\n        return owner == msg.sender || authorisations[node][owner][msg.sender];\r\n    }\r\n\r\n    function multicall(bytes[] calldata data) external returns(bytes[] memory results) {\r\n        results = new bytes[](data.length);\r\n        for(uint i = 0; i < data.length; i++) {\r\n            (bool success, bytes memory result) = address(this).delegatecall(data[i]);\r\n            require(success);\r\n            results[i] = result;\r\n        }\r\n        return results;\r\n    }\r\n\r\n}",
  "sourcePath": "C:\\Users\\d-aam\\GitHub\\Certificates\\contracts\\Mock\\MockENSResolver.sol",
  "compiler": {
    "name": "solc",
    "version": "0.8.7+commit.e28d00a7.Emscripten.clang"
  },
  "schemaVersion": "3.4.3",
  "updatedAt": "2022-03-22T11:40:15.717Z",
  "networkType": "ethereum",
  "devdoc": {
    "kind": "dev",
    "methods": {
      "addr(bytes32)": {
        "params": {
          "node": "The ENS node to query."
        },
        "returns": {
          "_0": "The associated address."
        }
      },
      "name(bytes32)": {
        "params": {
          "node": "The ENS node to query."
        },
        "returns": {
          "_0": "The associated name."
        }
      },
      "setAddr(bytes32,address)": {
        "params": {
          "a": "The address to set.",
          "node": "The node to update."
        }
      },
      "setAuthorisation(bytes32,address,bool)": {
        "details": "Sets or clears an authorisation. Authorisations are specific to the caller. Any account can set an authorisation for any name, but the authorisation that is checked will be that of the current owner of a name. Thus, transferring a name effectively clears any existing authorisations, and new authorisations can be set in advance of an ownership transfer if desired.",
        "params": {
          "isAuthorised": "True if the address should be authorised, or false if it should be deauthorised.",
          "node": "The name to change the authorisation on.",
          "target": "The address that is to be authorised or deauthorised."
        }
      },
      "setName(bytes32,string)": {
        "params": {
          "name": "The name to set.",
          "node": "The node to update."
        }
      }
    },
    "version": 1
  },
  "userdoc": {
    "kind": "user",
    "methods": {
      "addr(bytes32)": {
        "notice": "Returns the address associated with an ENS node."
      },
      "authorisations(bytes32,address,address)": {
        "notice": "A mapping of authorisations. An address that is authorised for a name may make any changes to the name that the owner could, but may not update the set of authorisations. (node, owner, caller) => isAuthorised"
      },
      "name(bytes32)": {
        "notice": "Returns the name associated with an ENS node, for reverse records. Defined in EIP181."
      },
      "setAddr(bytes32,address)": {
        "notice": "Sets the address associated with an ENS node. May only be called by the owner of that node in the ENS registry."
      },
      "setName(bytes32,string)": {
        "notice": "Sets the name associated with an ENS node, for reverse records. May only be called by the owner of that node in the ENS registry."
      }
    },
    "version": 1
  }
}