{
  "contractName": "MultiSigProvider",
  "abi": [
    {
      "inputs": [
        {
          "internalType": "address[]",
          "name": "owners",
          "type": "address[]"
        },
        {
          "internalType": "uint256",
          "name": "minOwners",
          "type": "uint256"
        }
      ],
      "stateMutability": "payable",
      "type": "constructor"
    },
    {
      "anonymous": false,
      "inputs": [
        {
          "indexed": false,
          "internalType": "string",
          "name": "",
          "type": "string"
        },
        {
          "indexed": false,
          "internalType": "address",
          "name": "",
          "type": "address"
        }
      ],
      "name": "_AddEntityValidationIdEvent",
      "type": "event"
    },
    {
      "anonymous": false,
      "inputs": [
        {
          "indexed": false,
          "internalType": "string",
          "name": "",
          "type": "string"
        },
        {
          "indexed": false,
          "internalType": "address",
          "name": "",
          "type": "address"
        }
      ],
      "name": "_RemoveEntityValidationIdEvent",
      "type": "event"
    },
    {
      "anonymous": false,
      "inputs": [
        {
          "indexed": false,
          "internalType": "string",
          "name": "",
          "type": "string"
        },
        {
          "indexed": false,
          "internalType": "address",
          "name": "",
          "type": "address"
        }
      ],
      "name": "_UpdateEntityValidationIdEvent",
      "type": "event"
    },
    {
      "inputs": [
        {
          "internalType": "address",
          "name": "owner",
          "type": "address"
        },
        {
          "internalType": "string",
          "name": "ownerInfo",
          "type": "string"
        }
      ],
      "name": "addOwner",
      "outputs": [],
      "stateMutability": "nonpayable",
      "type": "function"
    },
    {
      "inputs": [
        {
          "internalType": "address",
          "name": "owner",
          "type": "address"
        }
      ],
      "name": "isOwner",
      "outputs": [
        {
          "internalType": "bool",
          "name": "",
          "type": "bool"
        }
      ],
      "stateMutability": "view",
      "type": "function"
    },
    {
      "inputs": [
        {
          "internalType": "address",
          "name": "owner",
          "type": "address"
        }
      ],
      "name": "removeOwner",
      "outputs": [],
      "stateMutability": "nonpayable",
      "type": "function"
    },
    {
      "inputs": [],
      "name": "retrieveAllOwners",
      "outputs": [
        {
          "internalType": "address[]",
          "name": "",
          "type": "address[]"
        }
      ],
      "stateMutability": "view",
      "type": "function"
    },
    {
      "inputs": [
        {
          "internalType": "address",
          "name": "owner",
          "type": "address"
        }
      ],
      "name": "retrieveOwner",
      "outputs": [
        {
          "internalType": "string",
          "name": "",
          "type": "string"
        }
      ],
      "stateMutability": "view",
      "type": "function"
    },
    {
      "inputs": [],
      "name": "retrieveTotalOwners",
      "outputs": [
        {
          "internalType": "uint256",
          "name": "",
          "type": "uint256"
        }
      ],
      "stateMutability": "view",
      "type": "function"
    },
    {
      "inputs": [
        {
          "internalType": "address",
          "name": "owner",
          "type": "address"
        },
        {
          "internalType": "string",
          "name": "ownerInfo",
          "type": "string"
        }
      ],
      "name": "updateOwner",
      "outputs": [],
      "stateMutability": "nonpayable",
      "type": "function"
    },
    {
      "inputs": [
        {
          "internalType": "address",
          "name": "pool",
          "type": "address"
        },
        {
          "internalType": "string",
          "name": "poolInfo",
          "type": "string"
        }
      ],
      "name": "addPool",
      "outputs": [],
      "stateMutability": "nonpayable",
      "type": "function"
    },
    {
      "inputs": [
        {
          "internalType": "address",
          "name": "pool",
          "type": "address"
        }
      ],
      "name": "removePool",
      "outputs": [],
      "stateMutability": "nonpayable",
      "type": "function"
    },
    {
      "inputs": [
        {
          "internalType": "address",
          "name": "pool",
          "type": "address"
        },
        {
          "internalType": "string",
          "name": "poolInfo",
          "type": "string"
        }
      ],
      "name": "updatePool",
      "outputs": [],
      "stateMutability": "nonpayable",
      "type": "function"
    },
    {
      "inputs": [
        {
          "internalType": "address",
          "name": "pool",
          "type": "address"
        }
      ],
      "name": "retrievePool",
      "outputs": [
        {
          "internalType": "string",
          "name": "",
          "type": "string"
        }
      ],
      "stateMutability": "view",
      "type": "function"
    },
    {
      "inputs": [],
      "name": "retrieveAllPools",
      "outputs": [
        {
          "internalType": "address[]",
          "name": "",
          "type": "address[]"
        }
      ],
      "stateMutability": "view",
      "type": "function"
    },
    {
      "inputs": [],
      "name": "retrieveTotalPools",
      "outputs": [
        {
          "internalType": "uint256",
          "name": "",
          "type": "uint256"
        }
      ],
      "stateMutability": "view",
      "type": "function"
    },
    {
      "inputs": [
        {
          "internalType": "address",
          "name": "pool",
          "type": "address"
        }
      ],
      "name": "isPool",
      "outputs": [
        {
          "internalType": "bool",
          "name": "",
          "type": "bool"
        }
      ],
      "stateMutability": "view",
      "type": "function"
    },
    {
      "inputs": [
        {
          "internalType": "address",
          "name": "pool",
          "type": "address"
        },
        {
          "internalType": "bytes32",
          "name": "CertificateHash",
          "type": "bytes32"
        },
        {
          "internalType": "address",
          "name": "holder",
          "type": "address"
        }
      ],
      "name": "addCertificate",
      "outputs": [],
      "stateMutability": "nonpayable",
      "type": "function"
    },
    {
      "inputs": [
        {
          "internalType": "address",
          "name": "pool",
          "type": "address"
        },
        {
          "internalType": "bytes32",
          "name": "CertificateHash",
          "type": "bytes32"
        },
        {
          "internalType": "address",
          "name": "holder",
          "type": "address"
        }
      ],
      "name": "removeCertificate",
      "outputs": [],
      "stateMutability": "nonpayable",
      "type": "function"
    }
  ],
  "bytecode": "0x608060405260405180604001604052806040518060400160405280600581526020017f4f776e657200000000000000000000000000000000000000000000000000000081525081526020016040518060400160405280600481526020017f506f6f6c0000000000000000000000000000000000000000000000000000000081525081525060049060026200009592919062000462565b5060405162005d7138038062005d718339818101604052810190620000bb9190620006c3565b818160026004805480602002602001604051908101604052809291908181526020016000905b82821015620001a3578382906000526020600020018054600181600116156101000203166002900480601f0160208091040260200160405190810160405280929190818152602001828054600181600116156101000203166002900480156200018e5780601f1062000162576101008083540402835291602001916200018e565b820191906000526020600020905b8154815290600101906020018083116200017057829003601f168201915b505050505081526020019060010190620000e1565b5050505060008451841115620001f0576040517f08c379a0000000000000000000000000000000000000000000000000000000008152600401620001e79062000809565b60405180910390fd5b6000841162000236576040517f08c379a00000000000000000000000000000000000000000000000000000000081526004016200022d906200084d565b60405180910390fd5b815183146200027c576040517f08c379a000000000000000000000000000000000000000000000000000000000815260040162000273906200082b565b60405180910390fd5b8060008190555060005b838110156200030d576003600181600181540180825580915050039060005260206000209050506002838281518110620002bc57fe5b6020026020010151908060018154018082558091505060019003906000526020600020016000909190919091509080519060200190620002fe929190620004c9565b50808060010191505062000286565b508360018190555060005b8551811015620004545760016003600054815481106200033457fe5b906000526020600020906002020160000160008884815181106200035457fe5b602002602001015173ffffffffffffffffffffffffffffffffffffffff1673ffffffffffffffffffffffffffffffffffffffff16815260200190815260200160002060010160006101000a81548160ff021916908315150217905550600360005481548110620003c057fe5b9060005260206000209060020201600101868281518110620003de57fe5b60200260200101519080600181540180825580915050600190039060005260206000200160009091909190916101000a81548173ffffffffffffffffffffffffffffffffffffffff021916908373ffffffffffffffffffffffffffffffffffffffff160217905550808060010191505062000318565b505050505050505062000957565b828054828255906000526020600020908101928215620004b6579160200282015b82811115620004b5578251829080519060200190620004a4929190620004c9565b509160200191906001019062000483565b5b509050620004c5919062000560565b5090565b828054600181600116156101000203166002900490600052602060002090601f0160209004810192826200050157600085556200054d565b82601f106200051c57805160ff19168380011785556200054d565b828001600101855582156200054d579182015b828111156200054c5782518255916020019190600101906200052f565b5b5090506200055c919062000588565b5090565b5b808211156200058457600081816200057a9190620005a7565b5060010162000561565b5090565b5b80821115620005a357600081600090555060010162000589565b5090565b50805460018160011615610100020316600290046000825580601f10620005cf5750620005f0565b601f016020900490600052602060002090810190620005ef919062000588565b5b50565b60006200060a6200060484620008a3565b6200086f565b905080838252602082019050828560208602820111156200062a57600080fd5b60005b858110156200065e578162000643888262000668565b8452602084019350602083019250506001810190506200062d565b5050509392505050565b600081519050620006798162000923565b92915050565b600082601f8301126200069157600080fd5b8151620006a3848260208601620005f3565b91505092915050565b600081519050620006bd816200093d565b92915050565b60008060408385031215620006d757600080fd5b600083015167ffffffffffffffff811115620006f257600080fd5b62000700858286016200067f565b92505060206200071385828601620006ac565b9150509250929050565b60006200072c603c83620008d2565b91507f4e6f7420656e6f756768206f776e6572732070726f766964656420746f206d6560008301527f657420746865206d696e4f776e65727320726571756972656d656e74000000006020830152604082019050919050565b600062000794601d83620008d2565b91507f4e6f7420656e6f756768206f7220746f6f206d616e79206c6162656c730000006000830152602082019050919050565b6000620007d6601883620008d2565b91507f4174206c656173742031206d696e696d756d206f776e657200000000000000006000830152602082019050919050565b6000602082019050818103600083015262000824816200071d565b9050919050565b60006020820190508181036000830152620008468162000785565b9050919050565b600060208201905081810360008301526200086881620007c7565b9050919050565b6000604051905081810181811067ffffffffffffffff8211171562000899576200089862000921565b5b8060405250919050565b600067ffffffffffffffff821115620008c157620008c062000921565b5b602082029050602081019050919050565b600082825260208201905092915050565b6000620008f082620008f7565b9050919050565b600073ffffffffffffffffffffffffffffffffffffffff82169050919050565b6000819050919050565bfe5b6200092e81620008e3565b81146200093a57600080fd5b50565b620009488162000917565b81146200095457600080fd5b50565b61540a80620009676000396000f3fe608060405234801561001057600080fd5b50600436106101005760003560e01c806373bd22b8116100975780639fc10436116100665780639fc10436146102a9578063a93d5ed6146102c5578063eefe7681146102e3578063f4989e711461030157610100565b806373bd22b81461020f57806376c091791461022d57806377bc5a1f146102495780638fc2d8ea1461027957610100565b80633542758f116100d35780633542758f1461018b5780633b7d0946146101a75780635b16ebb7146101c3578063704dc09b146101f357610100565b806314a2ed2f14610105578063173825d9146101215780632d99aaf21461013d5780632f54bf6e1461015b575b600080fd5b61011f600480360381019061011a919061499e565b61031d565b005b61013b60048036038101906101369190614975565b61032f565b005b61014561033e565b6040516101529190614fb0565b60405180910390f35b61017560048036038101906101709190614975565b61034f565b6040516101829190614fd2565b60405180910390f35b6101a560048036038101906101a091906149ed565b610364565b005b6101c160048036038101906101bc9190614975565b610375565b005b6101dd60048036038101906101d89190614975565b610383565b6040516101ea9190614fd2565b60405180910390f35b61020d600480360381019061020891906149ed565b610397565b005b6102176103a7565b6040516102249190615168565b60405180910390f35b610247600480360381019061024291906149ed565b6103b8565b005b610263600480360381019061025e9190614975565b6103c8565b6040516102709190615076565b60405180910390f35b610293600480360381019061028e9190614975565b6103dd565b6040516102a09190615076565b60405180910390f35b6102c360048036038101906102be91906149ed565b6103ef565b005b6102cd610400565b6040516102da9190614fb0565b60405180910390f35b6102eb610412565b6040516102f89190615168565b60405180910390f35b61031b6004803603810190610316919061499e565b610424565b005b61032a8383836000610436565b505050565b61033b81600054611090565b50565b606061034a600161155f565b905090565b600061035d82600054611663565b9050919050565b6103718282600054611a2e565b5050565b610380816001611090565b50565b6000610390826001611663565b9050919050565b6103a382826001611a2e565b5050565b60006103b36001611ec7565b905090565b6103c482826001611fcb565b5050565b60606103d6826000546121c6565b9050919050565b60606103e8826122cc565b9050919050565b6103fc8282600054611fcb565b5050565b606061040d60005461155f565b905090565b600061041f600054611ec7565b905090565b6104318383836002610436565b505050565b8361044081610383565b1515600115151461045057600080fd5b6104593361034f565b1515600115151461049f576040517f08c379a000000000000000000000000000000000000000000000000000000000815260040161049690615128565b60405180910390fd5b6002808111156104ab57fe5b8260028111156104b757fe5b14600560008773ffffffffffffffffffffffffffffffffffffffff1673ffffffffffffffffffffffffffffffffffffffff16815260200190815260200160002060000160008573ffffffffffffffffffffffffffffffffffffffff1673ffffffffffffffffffffffffffffffffffffffff16815260200190815260200160002060000160008681526020019081526020016000206040518060e0016040529081600082015481526020016001820160009054906101000a900460ff16151515158152602001600282018054600181600116156101000203166002900480601f0160208091040260200160405190810160405280929190818152602001828054600181600116156101000203166002900480156106145780601f106105e957610100808354040283529160200191610614565b820191906000526020600020905b8154815290600101906020018083116105f757829003601f168201915b5050505050815260200160038201548152602001600482018054806020026020016040519081016040528092919081815260200182805480156106ac57602002820191906000526020600020905b8160009054906101000a900473ffffffffffffffffffffffffffffffffffffffff1673ffffffffffffffffffffffffffffffffffffffff1681526020019060010190808311610662575b505050505081526020016005820180548060200260200160405190810160405280929190818152602001828054801561073a57602002820191906000526020600020905b8160009054906101000a900473ffffffffffffffffffffffffffffffffffffffff1673ffffffffffffffffffffffffffffffffffffffff16815260200190600101908083116106f0575b50505050508152602001600682018054806020026020016040519081016040528092919081815260200182805480156107c857602002820191906000526020600020905b8160009054906101000a900473ffffffffffffffffffffffffffffffffffffffff1673ffffffffffffffffffffffffffffffffffffffff168152602001906001019080831161077e575b50505050508152505073__Library_______________________________63354945be83836040518363ffffffff1660e01b815260040161080a929190614fed565b60006040518083038186803b15801561082257600080fd5b505af4158015610836573d6000803e3d6000fd5b505050506000600560008973ffffffffffffffffffffffffffffffffffffffff1673ffffffffffffffffffffffffffffffffffffffff16815260200190815260200160002060000160008773ffffffffffffffffffffffffffffffffffffffff1673ffffffffffffffffffffffffffffffffffffffff16815260200190815260200160002060000160008881526020019081526020016000206040518060e0016040529081600082015481526020016001820160009054906101000a900460ff16151515158152602001600282018054600181600116156101000203166002900480601f0160208091040260200160405190810160405280929190818152602001828054600181600116156101000203166002900480156109985780601f1061096d57610100808354040283529160200191610998565b820191906000526020600020905b81548152906001019060200180831161097b57829003601f168201915b505050505081526020016003820154815260200160048201805480602002602001604051908101604052809291908181526020018280548015610a3057602002820191906000526020600020905b8160009054906101000a900473ffffffffffffffffffffffffffffffffffffffff1673ffffffffffffffffffffffffffffffffffffffff16815260200190600101908083116109e6575b5050505050815260200160058201805480602002602001604051908101604052809291908181526020018280548015610abe57602002820191906000526020600020905b8160009054906101000a900473ffffffffffffffffffffffffffffffffffffffff1673ffffffffffffffffffffffffffffffffffffffff1681526020019060010190808311610a74575b5050505050815260200160068201805480602002602001604051908101604052809291908181526020018280548015610b4c57602002820191906000526020600020905b8160009054906101000a900473ffffffffffffffffffffffffffffffffffffffff1673ffffffffffffffffffffffffffffffffffffffff1681526020019060010190808311610b02575b50505050508152505073__Library_______________________________63777d5c5883836040518363ffffffff1660e01b8152600401610b8e929190615046565b60006040518083038186803b158015610ba657600080fd5b505af4158015610bba573d6000803e3d6000fd5b505050506000806002811115610bcc57fe5b876002811115610bd857fe5b1415610d7657600560008b73ffffffffffffffffffffffffffffffffffffffff1673ffffffffffffffffffffffffffffffffffffffff16815260200190815260200160002060000160008973ffffffffffffffffffffffffffffffffffffffff1673ffffffffffffffffffffffffffffffffffffffff16815260200190815260200160002060000160008a8152602001908152602001600020600401339080600181540180825580915050600190039060005260206000200160009091909190916101000a81548173ffffffffffffffffffffffffffffffffffffffff021916908373ffffffffffffffffffffffffffffffffffffffff160217905550600560008b73ffffffffffffffffffffffffffffffffffffffff1673ffffffffffffffffffffffffffffffffffffffff16815260200190815260200160002060000160008973ffffffffffffffffffffffffffffffffffffffff1673ffffffffffffffffffffffffffffffffffffffff16815260200190815260200160002060000160008a8152602001908152602001600020600401805490509050610f0a565b600560008b73ffffffffffffffffffffffffffffffffffffffff1673ffffffffffffffffffffffffffffffffffffffff16815260200190815260200160002060000160008973ffffffffffffffffffffffffffffffffffffffff1673ffffffffffffffffffffffffffffffffffffffff16815260200190815260200160002060000160008a8152602001908152602001600020600501339080600181540180825580915050600190039060005260206000200160009091909190916101000a81548173ffffffffffffffffffffffffffffffffffffffff021916908373ffffffffffffffffffffffffffffffffffffffff160217905550600560008b73ffffffffffffffffffffffffffffffffffffffff1673ffffffffffffffffffffffffffffffffffffffff16815260200190815260200160002060000160008973ffffffffffffffffffffffffffffffffffffffff1673ffffffffffffffffffffffffffffffffffffffff16815260200190815260200160002060000160008a81526020019081526020016000206005018054905090505b610f16816001546122e0565b15611084576000610f268b6122cc565b604051602001610f369190614f84565b60405160208183030381529060405280519060200120604051602001610f5b90614f9b565b604051602081830303815290604052805190602001201415610f7f578a9050610f83565b8a90505b60006002811115610f9057fe5b886002811115610f9c57fe5b1415611014578073ffffffffffffffffffffffffffffffffffffffff16631ab807f88b8b6040518363ffffffff1660e01b8152600401610fdd92919061501d565b600060405180830381600087803b158015610ff757600080fd5b505af115801561100b573d6000803e3d6000fd5b50505050611082565b8073ffffffffffffffffffffffffffffffffffffffff1663a73db28a8b8b6040518363ffffffff1660e01b815260040161104f92919061501d565b600060405180830381600087803b15801561106957600080fd5b505af115801561107d573d6000803e3d6000fd5b505050505b505b50505050505050505050565b8060038054905073__Library_______________________________632477a0ea83836040518363ffffffff1660e01b81526004016110d0929190615183565b60206040518083038186803b1580156110e857600080fd5b505af41580156110fc573d6000803e3d6000fd5b505050506040513d601f19601f820116820180604052508101906111209190614a41565b15156001151514611166576040517f08c379a000000000000000000000000000000000000000000000000000000000815260040161115d906150c8565b60405180910390fd5b836111703361034f565b15156001151514806111ad57508073ffffffffffffffffffffffffffffffffffffffff163373ffffffffffffffffffffffffffffffffffffffff16145b6111ec576040517f08c379a00000000000000000000000000000000000000000000000000000000081526004016111e3906150e8565b60405180910390fd5b61121385600386815481106111fd57fe5b90600052602060002090600202016001546122fe565b6114fc6003858154811061122357fe5b906000526020600020906002020160000160008773ffffffffffffffffffffffffffffffffffffffff1673ffffffffffffffffffffffffffffffffffffffff1681526020019081526020016000206040518060e0016040529081600082015481526020016001820160009054906101000a900460ff16151515158152602001600282018054600181600116156101000203166002900480601f01602080910402602001604051908101604052809291908181526020018280546001816001161561010002031660029004801561133a5780601f1061130f5761010080835404028352916020019161133a565b820191906000526020600020905b81548152906001019060200180831161131d57829003601f168201915b5050505050815260200160038201548152602001600482018054806020026020016040519081016040528092919081815260200182805480156113d257602002820191906000526020600020905b8160009054906101000a900473ffffffffffffffffffffffffffffffffffffffff1673ffffffffffffffffffffffffffffffffffffffff1681526020019060010190808311611388575b505050505081526020016005820180548060200260200160405190810160405280929190818152602001828054801561146057602002820191906000526020600020905b8160009054906101000a900473ffffffffffffffffffffffffffffffffffffffff1673ffffffffffffffffffffffffffffffffffffffff1681526020019060010190808311611416575b50505050508152602001600682018054806020026020016040519081016040528092919081815260200182805480156114ee57602002820191906000526020600020905b8160009054906101000a900473ffffffffffffffffffffffffffffffffffffffff1673ffffffffffffffffffffffffffffffffffffffff16815260200190600101908083116114a4575b505050505081525050612b07565b1515600015151415611558577f1f62d535f971041db7bd8760bf0f1f9f476461558744a35c0d477b5ad6893e896002858154811061153657fe5b906000526020600020018660405161154f929190615098565b60405180910390a15b5050505050565b60608160038054905073__Library_______________________________632477a0ea83836040518363ffffffff1660e01b81526004016115a1929190615183565b60206040518083038186803b1580156115b957600080fd5b505af41580156115cd573d6000803e3d6000fd5b505050506040513d601f19601f820116820180604052508101906115f19190614a41565b15156001151514611637576040517f08c379a000000000000000000000000000000000000000000000000000000000815260040161162e906150c8565b60405180910390fd5b61165a6003858154811061164757fe5b9060005260206000209060020201612b15565b92505050919050565b60008160038054905073__Library_______________________________632477a0ea83836040518363ffffffff1660e01b81526004016116a5929190615183565b60206040518083038186803b1580156116bd57600080fd5b505af41580156116d1573d6000803e3d6000fd5b505050506040513d601f19601f820116820180604052508101906116f59190614a41565b1515600115151461173b576040517f08c379a0000000000000000000000000000000000000000000000000000000008152600401611732906150c8565b60405180910390fd5b611a246003858154811061174b57fe5b906000526020600020906002020160000160008773ffffffffffffffffffffffffffffffffffffffff1673ffffffffffffffffffffffffffffffffffffffff1681526020019081526020016000206040518060e0016040529081600082015481526020016001820160009054906101000a900460ff16151515158152602001600282018054600181600116156101000203166002900480601f0160208091040260200160405190810160405280929190818152602001828054600181600116156101000203166002900480156118625780601f1061183757610100808354040283529160200191611862565b820191906000526020600020905b81548152906001019060200180831161184557829003601f168201915b5050505050815260200160038201548152602001600482018054806020026020016040519081016040528092919081815260200182805480156118fa57602002820191906000526020600020905b8160009054906101000a900473ffffffffffffffffffffffffffffffffffffffff1673ffffffffffffffffffffffffffffffffffffffff16815260200190600101908083116118b0575b505050505081526020016005820180548060200260200160405190810160405280929190818152602001828054801561198857602002820191906000526020600020905b8160009054906101000a900473ffffffffffffffffffffffffffffffffffffffff1673ffffffffffffffffffffffffffffffffffffffff168152602001906001019080831161193e575b5050505050815260200160068201805480602002602001604051908101604052809291908181526020018280548015611a1657602002820191906000526020600020905b8160009054906101000a900473ffffffffffffffffffffffffffffffffffffffff1673ffffffffffffffffffffffffffffffffffffffff16815260200190600101908083116119cc575b505050505081525050612b07565b9250505092915050565b8060038054905073__Library_______________________________632477a0ea83836040518363ffffffff1660e01b8152600401611a6e929190615183565b60206040518083038186803b158015611a8657600080fd5b505af4158015611a9a573d6000803e3d6000fd5b505050506040513d601f19601f82011682018060405250810190611abe9190614a41565b15156001151514611b04576040517f08c379a0000000000000000000000000000000000000000000000000000000008152600401611afb906150c8565b60405180910390fd5b611b0d3361034f565b15156001151514611b53576040517f08c379a0000000000000000000000000000000000000000000000000000000008152600401611b4a90615128565b60405180910390fd5b611b7b858560038681548110611b6557fe5b9060005260206000209060020201600154612c93565b611e6460038481548110611b8b57fe5b906000526020600020906002020160000160008773ffffffffffffffffffffffffffffffffffffffff1673ffffffffffffffffffffffffffffffffffffffff1681526020019081526020016000206040518060e0016040529081600082015481526020016001820160009054906101000a900460ff16151515158152602001600282018054600181600116156101000203166002900480601f016020809104026020016040519081016040528092919081815260200182805460018160011615610100020316600290048015611ca25780601f10611c7757610100808354040283529160200191611ca2565b820191906000526020600020905b815481529060010190602001808311611c8557829003601f168201915b505050505081526020016003820154815260200160048201805480602002602001604051908101604052809291908181526020018280548015611d3a57602002820191906000526020600020905b8160009054906101000a900473ffffffffffffffffffffffffffffffffffffffff1673ffffffffffffffffffffffffffffffffffffffff1681526020019060010190808311611cf0575b5050505050815260200160058201805480602002602001604051908101604052809291908181526020018280548015611dc857602002820191906000526020600020905b8160009054906101000a900473ffffffffffffffffffffffffffffffffffffffff1673ffffffffffffffffffffffffffffffffffffffff1681526020019060010190808311611d7e575b5050505050815260200160068201805480602002602001604051908101604052809291908181526020018280548015611e5657602002820191906000526020600020905b8160009054906101000a900473ffffffffffffffffffffffffffffffffffffffff1673ffffffffffffffffffffffffffffffffffffffff1681526020019060010190808311611e0c575b505050505081525050612b07565b1515600115151415611ec0577f3c139d46a211844e248647688545a37c07c505c999c1232d1247c707dc0a91e260028481548110611e9e57fe5b9060005260206000200186604051611eb7929190615098565b60405180910390a15b5050505050565b60008160038054905073__Library_______________________________632477a0ea83836040518363ffffffff1660e01b8152600401611f09929190615183565b60206040518083038186803b158015611f2157600080fd5b505af4158015611f35573d6000803e3d6000fd5b505050506040513d601f19601f82011682018060405250810190611f599190614a41565b15156001151514611f9f576040517f08c379a0000000000000000000000000000000000000000000000000000000008152600401611f96906150c8565b60405180910390fd5b611fc260038581548110611faf57fe5b906000526020600020906002020161355f565b92505050919050565b8060038054905073__Library_______________________________632477a0ea83836040518363ffffffff1660e01b815260040161200b929190615183565b60206040518083038186803b15801561202357600080fd5b505af4158015612037573d6000803e3d6000fd5b505050506040513d601f19601f8201168201806040525081019061205b9190614a41565b151560011515146120a1576040517f08c379a0000000000000000000000000000000000000000000000000000000008152600401612098906150c8565b60405180910390fd5b6120aa3361034f565b151560011515146120f0576040517f08c379a00000000000000000000000000000000000000000000000000000000081526004016120e790615128565b60405180910390fd5b6000612116866003868154811061210357fe5b90600052602060002090600202016135f9565b905061214086866003878154811061212a57fe5b906000526020600020906002020160015461391d565b60018101612168876003878154811061215557fe5b90600052602060002090600202016135f9565b14156121be577fddf8a9c2d29b02b191b0a29b7a0f698bfd4655230a23853e2af123ab0b1188d76002858154811061219c57fe5b90600052602060002001876040516121b5929190615098565b60405180910390a15b505050505050565b60608160038054905073__Library_______________________________632477a0ea83836040518363ffffffff1660e01b8152600401612208929190615183565b60206040518083038186803b15801561222057600080fd5b505af4158015612234573d6000803e3d6000fd5b505050506040513d601f19601f820116820180604052508101906122589190614a41565b1515600115151461229e576040517f08c379a0000000000000000000000000000000000000000000000000000000008152600401612295906150c8565b60405180910390fd5b6122c285600386815481106122af57fe5b90600052602060002090600202016140c5565b9250505092915050565b60606122d98260016121c6565b9050919050565b6000818310156122f357600090506122f8565b600190505b92915050565b60018260000160008573ffffffffffffffffffffffffffffffffffffffff1673ffffffffffffffffffffffffffffffffffffffff1681526020019081526020016000206040518060e0016040529081600082015481526020016001820160009054906101000a900460ff16151515158152602001600282018054600181600116156101000203166002900480601f01602080910402602001604051908101604052809291908181526020018280546001816001161561010002031660029004801561240a5780601f106123df5761010080835404028352916020019161240a565b820191906000526020600020905b8154815290600101906020018083116123ed57829003601f168201915b5050505050815260200160038201548152602001600482018054806020026020016040519081016040528092919081815260200182805480156124a257602002820191906000526020600020905b8160009054906101000a900473ffffffffffffffffffffffffffffffffffffffff1673ffffffffffffffffffffffffffffffffffffffff1681526020019060010190808311612458575b505050505081526020016005820180548060200260200160405190810160405280929190818152602001828054801561253057602002820191906000526020600020905b8160009054906101000a900473ffffffffffffffffffffffffffffffffffffffff1673ffffffffffffffffffffffffffffffffffffffff16815260200190600101908083116124e6575b50505050508152602001600682018054806020026020016040519081016040528092919081815260200182805480156125be57602002820191906000526020600020905b8160009054906101000a900473ffffffffffffffffffffffffffffffffffffffff1673ffffffffffffffffffffffffffffffffffffffff1681526020019060010190808311612574575b5050505050815250506125d18282614481565b60028460000160008773ffffffffffffffffffffffffffffffffffffffff1673ffffffffffffffffffffffffffffffffffffffff1681526020019081526020016000206040518060e0016040529081600082015481526020016001820160009054906101000a900460ff16151515158152602001600282018054600181600116156101000203166002900480601f0160208091040260200160405190810160405280929190818152602001828054600181600116156101000203166002900480156126dd5780601f106126b2576101008083540402835291602001916126dd565b820191906000526020600020905b8154815290600101906020018083116126c057829003601f168201915b50505050508152602001600382015481526020016004820180548060200260200160405190810160405280929190818152602001828054801561277557602002820191906000526020600020905b8160009054906101000a900473ffffffffffffffffffffffffffffffffffffffff1673ffffffffffffffffffffffffffffffffffffffff168152602001906001019080831161272b575b505050505081526020016005820180548060200260200160405190810160405280929190818152602001828054801561280357602002820191906000526020600020905b8160009054906101000a900473ffffffffffffffffffffffffffffffffffffffff1673ffffffffffffffffffffffffffffffffffffffff16815260200190600101908083116127b9575b505050505081526020016006820180548060200260200160405190810160405280929190818152602001828054801561289157602002820191906000526020600020905b8160009054906101000a900473ffffffffffffffffffffffffffffffffffffffff1673ffffffffffffffffffffffffffffffffffffffff1681526020019060010190808311612847575b5050505050815250506128a48282614536565b8560000160008873ffffffffffffffffffffffffffffffffffffffff1673ffffffffffffffffffffffffffffffffffffffff168152602001908152602001600020600501339080600181540180825580915050600190039060005260206000200160009091909190916101000a81548173ffffffffffffffffffffffffffffffffffffffff021916908373ffffffffffffffffffffffffffffffffffffffff1602179055508673ffffffffffffffffffffffffffffffffffffffff163373ffffffffffffffffffffffffffffffffffffffff1614806129d057506129cf8660000160008973ffffffffffffffffffffffffffffffffffffffff1673ffffffffffffffffffffffffffffffffffffffff16815260200190815260200160002060050180549050866122e0565b5b15612afe57856001018660000160008973ffffffffffffffffffffffffffffffffffffffff1673ffffffffffffffffffffffffffffffffffffffff1681526020019081526020016000206000015481548110612a2857fe5b9060005260206000200160006101000a81549073ffffffffffffffffffffffffffffffffffffffff02191690558560000160008873ffffffffffffffffffffffffffffffffffffffff1673ffffffffffffffffffffffffffffffffffffffff1681526020019081526020016000206000808201600090556001820160006101000a81549060ff0219169055600282016000612ac391906147ba565b6003820160009055600482016000612adb9190614802565b600582016000612aeb9190614802565b600682016000612afb9190614802565b50505b50505050505050565b600081602001519050919050565b60606000612b228361355f565b905060008167ffffffffffffffff81118015612b3d57600080fd5b50604051908082528060200260200182016040528015612b6c5781602001602082028036833780820191505090505b509050600080600090505b8560010180549050811015612c8757856001018181548110612b9557fe5b9060005260206000200160009054906101000a900473ffffffffffffffffffffffffffffffffffffffff1673ffffffffffffffffffffffffffffffffffffffff16600073ffffffffffffffffffffffffffffffffffffffff1614612c7a57856001018181548110612c0257fe5b9060005260206000200160009054906101000a900473ffffffffffffffffffffffffffffffffffffffff16838381518110612c3957fe5b602002602001019073ffffffffffffffffffffffffffffffffffffffff16908173ffffffffffffffffffffffffffffffffffffffff16815250506001820191505b8080600101915050612b77565b50819350505050919050565b60008260000160008673ffffffffffffffffffffffffffffffffffffffff1673ffffffffffffffffffffffffffffffffffffffff1681526020019081526020016000206040518060e0016040529081600082015481526020016001820160009054906101000a900460ff16151515158152602001600282018054600181600116156101000203166002900480601f016020809104026020016040519081016040528092919081815260200182805460018160011615610100020316600290048015612d9f5780601f10612d7457610100808354040283529160200191612d9f565b820191906000526020600020905b815481529060010190602001808311612d8257829003601f168201915b505050505081526020016003820154815260200160048201805480602002602001604051908101604052809291908181526020018280548015612e3757602002820191906000526020600020905b8160009054906101000a900473ffffffffffffffffffffffffffffffffffffffff1673ffffffffffffffffffffffffffffffffffffffff1681526020019060010190808311612ded575b5050505050815260200160058201805480602002602001604051908101604052809291908181526020018280548015612ec557602002820191906000526020600020905b8160009054906101000a900473ffffffffffffffffffffffffffffffffffffffff1673ffffffffffffffffffffffffffffffffffffffff1681526020019060010190808311612e7b575b5050505050815260200160068201805480602002602001604051908101604052809291908181526020018280548015612f5357602002820191906000526020600020905b8160009054906101000a900473ffffffffffffffffffffffffffffffffffffffff1673ffffffffffffffffffffffffffffffffffffffff1681526020019060010190808311612f09575b505050505081525050612f668282614481565b60008460000160008873ffffffffffffffffffffffffffffffffffffffff1673ffffffffffffffffffffffffffffffffffffffff1681526020019081526020016000206040518060e0016040529081600082015481526020016001820160009054906101000a900460ff16151515158152602001600282018054600181600116156101000203166002900480601f0160208091040260200160405190810160405280929190818152602001828054600181600116156101000203166002900480156130725780601f1061304757610100808354040283529160200191613072565b820191906000526020600020905b81548152906001019060200180831161305557829003601f168201915b50505050508152602001600382015481526020016004820180548060200260200160405190810160405280929190818152602001828054801561310a57602002820191906000526020600020905b8160009054906101000a900473ffffffffffffffffffffffffffffffffffffffff1673ffffffffffffffffffffffffffffffffffffffff16815260200190600101908083116130c0575b505050505081526020016005820180548060200260200160405190810160405280929190818152602001828054801561319857602002820191906000526020600020905b8160009054906101000a900473ffffffffffffffffffffffffffffffffffffffff1673ffffffffffffffffffffffffffffffffffffffff168152602001906001019080831161314e575b505050505081526020016006820180548060200260200160405190810160405280929190818152602001828054801561322657602002820191906000526020600020905b8160009054906101000a900473ffffffffffffffffffffffffffffffffffffffff1673ffffffffffffffffffffffffffffffffffffffff16815260200190600101908083116131dc575b5050505050815250506132398282614536565b8560000160008973ffffffffffffffffffffffffffffffffffffffff1673ffffffffffffffffffffffffffffffffffffffff1681526020019081526020016000206004018054905060001480156132e857508560000160008973ffffffffffffffffffffffffffffffffffffffff1673ffffffffffffffffffffffffffffffffffffffff1681526020019081526020016000206002018054600181600116156101000203166002900490506000145b1561334757868660000160008a73ffffffffffffffffffffffffffffffffffffffff1673ffffffffffffffffffffffffffffffffffffffff1681526020019081526020016000206002019080519060200190613345929190614823565b505b8560000160008973ffffffffffffffffffffffffffffffffffffffff1673ffffffffffffffffffffffffffffffffffffffff168152602001908152602001600020600401339080600181540180825580915050600190039060005260206000200160009091909190916101000a81548173ffffffffffffffffffffffffffffffffffffffff021916908373ffffffffffffffffffffffffffffffffffffffff16021790555061343d8660000160008a73ffffffffffffffffffffffffffffffffffffffff1673ffffffffffffffffffffffffffffffffffffffff16815260200190815260200160002060040180549050866122e0565b156135555760018660000160008a73ffffffffffffffffffffffffffffffffffffffff1673ffffffffffffffffffffffffffffffffffffffff16815260200190815260200160002060010160006101000a81548160ff02191690831515021790555085600101805490508660000160008a73ffffffffffffffffffffffffffffffffffffffff1673ffffffffffffffffffffffffffffffffffffffff1681526020019081526020016000206000018190555085600101889080600181540180825580915050600190039060005260206000200160009091909190916101000a81548173ffffffffffffffffffffffffffffffffffffffff021916908373ffffffffffffffffffffffffffffffffffffffff1602179055505b5050505050505050565b60006135f2826001018054806020026020016040519081016040528092919081815260200182805480156135e857602002820191906000526020600020905b8160009054906101000a900473ffffffffffffffffffffffffffffffffffffffff1673ffffffffffffffffffffffffffffffffffffffff168152602001906001019080831161359e575b50505050506146c7565b9050919050565b600060018260000160008573ffffffffffffffffffffffffffffffffffffffff1673ffffffffffffffffffffffffffffffffffffffff1681526020019081526020016000206040518060e0016040529081600082015481526020016001820160009054906101000a900460ff16151515158152602001600282018054600181600116156101000203166002900480601f0160208091040260200160405190810160405280929190818152602001828054600181600116156101000203166002900480156137075780601f106136dc57610100808354040283529160200191613707565b820191906000526020600020905b8154815290600101906020018083116136ea57829003601f168201915b50505050508152602001600382015481526020016004820180548060200260200160405190810160405280929190818152602001828054801561379f57602002820191906000526020600020905b8160009054906101000a900473ffffffffffffffffffffffffffffffffffffffff1673ffffffffffffffffffffffffffffffffffffffff1681526020019060010190808311613755575b505050505081526020016005820180548060200260200160405190810160405280929190818152602001828054801561382d57602002820191906000526020600020905b8160009054906101000a900473ffffffffffffffffffffffffffffffffffffffff1673ffffffffffffffffffffffffffffffffffffffff16815260200190600101908083116137e3575b50505050508152602001600682018054806020026020016040519081016040528092919081815260200182805480156138bb57602002820191906000526020600020905b8160009054906101000a900473ffffffffffffffffffffffffffffffffffffffff1673ffffffffffffffffffffffffffffffffffffffff1681526020019060010190808311613871575b5050505050815250506138ce8282614481565b8360000160008673ffffffffffffffffffffffffffffffffffffffff1673ffffffffffffffffffffffffffffffffffffffff168152602001908152602001600020600301549250505092915050565b60018260000160008673ffffffffffffffffffffffffffffffffffffffff1673ffffffffffffffffffffffffffffffffffffffff1681526020019081526020016000206040518060e0016040529081600082015481526020016001820160009054906101000a900460ff16151515158152602001600282018054600181600116156101000203166002900480601f016020809104026020016040519081016040528092919081815260200182805460018160011615610100020316600290048015613a295780601f106139fe57610100808354040283529160200191613a29565b820191906000526020600020905b815481529060010190602001808311613a0c57829003601f168201915b505050505081526020016003820154815260200160048201805480602002602001604051908101604052809291908181526020018280548015613ac157602002820191906000526020600020905b8160009054906101000a900473ffffffffffffffffffffffffffffffffffffffff1673ffffffffffffffffffffffffffffffffffffffff1681526020019060010190808311613a77575b5050505050815260200160058201805480602002602001604051908101604052809291908181526020018280548015613b4f57602002820191906000526020600020905b8160009054906101000a900473ffffffffffffffffffffffffffffffffffffffff1673ffffffffffffffffffffffffffffffffffffffff1681526020019060010190808311613b05575b5050505050815260200160068201805480602002602001604051908101604052809291908181526020018280548015613bdd57602002820191906000526020600020905b8160009054906101000a900473ffffffffffffffffffffffffffffffffffffffff1673ffffffffffffffffffffffffffffffffffffffff1681526020019060010190808311613b93575b505050505081525050613bf08282614481565b60018460000160008873ffffffffffffffffffffffffffffffffffffffff1673ffffffffffffffffffffffffffffffffffffffff1681526020019081526020016000206040518060e0016040529081600082015481526020016001820160009054906101000a900460ff16151515158152602001600282018054600181600116156101000203166002900480601f016020809104026020016040519081016040528092919081815260200182805460018160011615610100020316600290048015613cfc5780601f10613cd157610100808354040283529160200191613cfc565b820191906000526020600020905b815481529060010190602001808311613cdf57829003601f168201915b505050505081526020016003820154815260200160048201805480602002602001604051908101604052809291908181526020018280548015613d9457602002820191906000526020600020905b8160009054906101000a900473ffffffffffffffffffffffffffffffffffffffff1673ffffffffffffffffffffffffffffffffffffffff1681526020019060010190808311613d4a575b5050505050815260200160058201805480602002602001604051908101604052809291908181526020018280548015613e2257602002820191906000526020600020905b8160009054906101000a900473ffffffffffffffffffffffffffffffffffffffff1673ffffffffffffffffffffffffffffffffffffffff1681526020019060010190808311613dd8575b5050505050815260200160068201805480602002602001604051908101604052809291908181526020018280548015613eb057602002820191906000526020600020905b8160009054906101000a900473ffffffffffffffffffffffffffffffffffffffff1673ffffffffffffffffffffffffffffffffffffffff1681526020019060010190808311613e66575b505050505081525050613ec38282614536565b8560000160008973ffffffffffffffffffffffffffffffffffffffff1673ffffffffffffffffffffffffffffffffffffffff168152602001908152602001600020600601339080600181540180825580915050600190039060005260206000200160009091909190916101000a81548173ffffffffffffffffffffffffffffffffffffffff021916908373ffffffffffffffffffffffffffffffffffffffff160217905550613fb98660000160008a73ffffffffffffffffffffffffffffffffffffffff1673ffffffffffffffffffffffffffffffffffffffff16815260200190815260200160002060060180549050866122e0565b156140bb57868660000160008a73ffffffffffffffffffffffffffffffffffffffff1673ffffffffffffffffffffffffffffffffffffffff1681526020019081526020016000206002019080519060200190614016929190614823565b5060018660000160008a73ffffffffffffffffffffffffffffffffffffffff1673ffffffffffffffffffffffffffffffffffffffff168152602001908152602001600020600301600082825401925050819055508560000160008973ffffffffffffffffffffffffffffffffffffffff1673ffffffffffffffffffffffffffffffffffffffff16815260200190815260200160002060060160006140ba9190614802565b5b5050505050505050565b606060018260000160008573ffffffffffffffffffffffffffffffffffffffff1673ffffffffffffffffffffffffffffffffffffffff1681526020019081526020016000206040518060e0016040529081600082015481526020016001820160009054906101000a900460ff16151515158152602001600282018054600181600116156101000203166002900480601f0160208091040260200160405190810160405280929190818152602001828054600181600116156101000203166002900480156141d35780601f106141a8576101008083540402835291602001916141d3565b820191906000526020600020905b8154815290600101906020018083116141b657829003601f168201915b50505050508152602001600382015481526020016004820180548060200260200160405190810160405280929190818152602001828054801561426b57602002820191906000526020600020905b8160009054906101000a900473ffffffffffffffffffffffffffffffffffffffff1673ffffffffffffffffffffffffffffffffffffffff1681526020019060010190808311614221575b50505050508152602001600582018054806020026020016040519081016040528092919081815260200182805480156142f957602002820191906000526020600020905b8160009054906101000a900473ffffffffffffffffffffffffffffffffffffffff1673ffffffffffffffffffffffffffffffffffffffff16815260200190600101908083116142af575b505050505081526020016006820180548060200260200160405190810160405280929190818152602001828054801561438757602002820191906000526020600020905b8160009054906101000a900473ffffffffffffffffffffffffffffffffffffffff1673ffffffffffffffffffffffffffffffffffffffff168152602001906001019080831161433d575b50505050508152505061439a8282614481565b8360000160008673ffffffffffffffffffffffffffffffffffffffff1673ffffffffffffffffffffffffffffffffffffffff1681526020019081526020016000206002018054600181600116156101000203166002900480601f0160208091040260200160405190810160405280929190818152602001828054600181600116156101000203166002900480156144725780601f1061444757610100808354040283529160200191614472565b820191906000526020600020905b81548152906001019060200180831161445557829003601f168201915b50505050509250505092915050565b8115156000151514156144e25761449781612b07565b151560001515146144dd576040517f08c379a00000000000000000000000000000000000000000000000000000000081526004016144d490615148565b60405180910390fd5b614532565b6144eb81612b07565b15156001151514614531576040517f08c379a000000000000000000000000000000000000000000000000000000000815260040161452890615108565b60405180910390fd5b5b5050565b60006040518060400160405280601781526020017f4f776e65722068617320616c726561647920766f746564000000000000000000815250905082600281111561457c57fe5b6001600281111561458957fe5b14156145ec5761459d338360c0015161473f565b1515600015151481906145e6576040517f08c379a00000000000000000000000000000000000000000000000000000000081526004016145dd9190615076565b60405180910390fd5b506146c2565b8260028111156145f857fe5b6000600281111561460557fe5b14156146685761461933836080015161473f565b151560001515148190614662576040517f08c379a00000000000000000000000000000000000000000000000000000000081526004016146599190615076565b60405180910390fd5b506146c1565b614676338360a0015161473f565b1515600015151481906146bf576040517f08c379a00000000000000000000000000000000000000000000000000000000081526004016146b69190615076565b60405180910390fd5b505b5b505050565b6000806000905060005b8351811015614735578381815181106146e657fe5b602002602001015173ffffffffffffffffffffffffffffffffffffffff16600073ffffffffffffffffffffffffffffffffffffffff1614614728576001820191505b80806001019150506146d1565b5080915050919050565b600080600090505b82518110156147ae5782818151811061475c57fe5b602002602001015173ffffffffffffffffffffffffffffffffffffffff168473ffffffffffffffffffffffffffffffffffffffff1614156147a15760019150506147b4565b8080600101915050614747565b50600090505b92915050565b50805460018160011615610100020316600290046000825580601f106147e057506147ff565b601f0160209004906000526020600020908101906147fe91906148b1565b5b50565b508054600082559060005260206000209081019061482091906148b1565b50565b828054600181600116156101000203166002900490600052602060002090601f01602090048101928261485957600085556148a0565b82601f1061487257805160ff19168380011785556148a0565b828001600101855582156148a0579182015b8281111561489f578251825591602001919060010190614884565b5b5090506148ad91906148b1565b5090565b5b808211156148ca5760008160009055506001016148b2565b5090565b60006148e16148dc846151dd565b6151ac565b9050828152602081018484840111156148f957600080fd5b614904848285615326565b509392505050565b60008135905061491b8161538f565b92915050565b600081519050614930816153a6565b92915050565b600081359050614945816153bd565b92915050565b600082601f83011261495c57600080fd5b813561496c8482602086016148ce565b91505092915050565b60006020828403121561498757600080fd5b60006149958482850161490c565b91505092915050565b6000806000606084860312156149b357600080fd5b60006149c18682870161490c565b93505060206149d286828701614936565b92505060406149e38682870161490c565b9150509250925092565b60008060408385031215614a0057600080fd5b6000614a0e8582860161490c565b925050602083013567ffffffffffffffff811115614a2b57600080fd5b614a378582860161494b565b9150509250929050565b600060208284031215614a5357600080fd5b6000614a6184828501614921565b91505092915050565b6000614a768383614a9a565b60208301905092915050565b6000614a8e8383614ab8565b60208301905092915050565b614aa3816152af565b82525050565b614ab2816152af565b82525050565b614ac1816152af565b82525050565b6000614ad282615232565b614adc8185615260565b9350614ae78361520d565b8060005b83811015614b18578151614aff8882614a6a565b9750614b0a83615253565b925050600181019050614aeb565b5085935050505092915050565b6000614b3082615232565b614b3a8185615271565b9350614b458361520d565b8060005b83811015614b76578151614b5d8882614a82565b9750614b6883615253565b925050600181019050614b49565b5085935050505092915050565b614b8c816152c1565b82525050565b614b9b816152c1565b82525050565b614baa816152c1565b82525050565b614bb9816152cd565b82525050565b6000614bca8261523d565b614bd48185615282565b9350614be4818560208601615335565b614bed8161536a565b840191505092915050565b614c0181615314565b82525050565b6000614c1282615248565b614c1c8185615293565b9350614c2c818560208601615335565b614c358161536a565b840191505092915050565b6000614c4b82615248565b614c5581856152a4565b9350614c65818560208601615335565b80840191505092915050565b600081546001811660008114614c8e5760018114614cb457614cf8565b607f6002830416614c9f8187615293565b955060ff198316865260208601935050614cf8565b60028204614cc28187615293565b9550614ccd8561521d565b60005b82811015614cef57815481890152600182019150602081019050614cd0565b80880195505050505b505092915050565b6000614d0d601483615293565b91507f70726f76696465642049642069732077726f6e670000000000000000000000006000830152602082019050919050565b6000614d4d601c83615293565b91507f4e6f7420616c6c6f77656420746f2072656d6f766520656e74697479000000006000830152602082019050919050565b6000614d8d601883615293565b91507f456e74697479206d7573742062652061637469766174656400000000000000006000830152602082019050919050565b6000614dcd602e83615293565b91507f4f6e6c79204f776e6572732061726520616c6c6f77656420746f20706572666f60008301527f726d207468697320616374696f6e0000000000000000000000000000000000006020830152604082019050919050565b6000614e33601883615293565b91507f456e7469747920616c72656164792061637469766174656400000000000000006000830152602082019050919050565b6000614e736007836152a4565b91507f50726976617465000000000000000000000000000000000000000000000000006000830152600782019050919050565b600060e083016000830151614ebe6000860182614f75565b506020830151614ed16020860182614ba1565b5060408301518482036040860152614ee98282614bbf565b9150506060830151614efe6060860182614f75565b5060808301518482036080860152614f168282614b25565b91505060a083015184820360a0860152614f308282614b25565b91505060c083015184820360c0860152614f4a8282614b25565b9150508091505092915050565b614f608161530a565b82525050565b614f6f8161530a565b82525050565b614f7e8161530a565b82525050565b6000614f908284614c40565b915081905092915050565b6000614fa682614e66565b9150819050919050565b60006020820190508181036000830152614fca8184614ac7565b905092915050565b6000602082019050614fe76000830184614b83565b92915050565b60006040820190506150026000830185614b92565b81810360208301526150148184614ea6565b90509392505050565b60006040820190506150326000830185614bb0565b61503f6020830184614aa9565b9392505050565b600060408201905061505b6000830185614bf8565b818103602083015261506d8184614ea6565b90509392505050565b600060208201905081810360008301526150908184614c07565b905092915050565b600060408201905081810360008301526150b28185614c71565b90506150c16020830184614aa9565b9392505050565b600060208201905081810360008301526150e181614d00565b9050919050565b6000602082019050818103600083015261510181614d40565b9050919050565b6000602082019050818103600083015261512181614d80565b9050919050565b6000602082019050818103600083015261514181614dc0565b9050919050565b6000602082019050818103600083015261516181614e26565b9050919050565b600060208201905061517d6000830184614f57565b92915050565b60006040820190506151986000830185614f66565b6151a56020830184614f66565b9392505050565b6000604051905081810181811067ffffffffffffffff821117156151d3576151d2615368565b5b8060405250919050565b600067ffffffffffffffff8211156151f8576151f7615368565b5b601f19601f8301169050602081019050919050565b6000819050602082019050919050565b60008190508160005260206000209050919050565b600081519050919050565b600081519050919050565b600081519050919050565b6000602082019050919050565b600082825260208201905092915050565b600082825260208201905092915050565b600082825260208201905092915050565b600082825260208201905092915050565b600081905092915050565b60006152ba826152ea565b9050919050565b60008115159050919050565b6000819050919050565b60008190506152e58261537b565b919050565b600073ffffffffffffffffffffffffffffffffffffffff82169050919050565b6000819050919050565b600061531f826152d7565b9050919050565b82818337600083830152505050565b60005b83811015615353578082015181840152602081019050615338565b83811115615362576000848401525b50505050565bfe5b6000601f19601f8301169050919050565b6003811061538c5761538b615368565b5b50565b615398816152af565b81146153a357600080fd5b50565b6153af816152c1565b81146153ba57600080fd5b50565b6153c6816152cd565b81146153d157600080fd5b5056fea26469706673582212208e414cde1a258afee28c90faa2928fad39b485e510c88b0495641562006b8a1764736f6c63430007060033",
  "immutableReferences": {},
  "source": "// SPDX-License-Identifier: GPL-3.0\r\n\r\npragma solidity >=0.7.0 <0.9.0;\r\npragma experimental ABIEncoderV2;\r\n\r\n/**\r\n * @title Storage\r\n * @dev Store & retrieve value in a variable\r\n */\r\n import \"./Library.sol\";\r\n import \"./IProvider.sol\";\r\n import \"./MultiSigContract.sol\";\r\n import \"./PrivateCertificatesPool.sol\";\r\n import \"./PublicCertificatesPool.sol\";\r\n\r\n\r\n contract MultiSigProvider is IProvider, MultiSigContract {\r\n     using Library for *;\r\n\r\n     uint256 constant TotalEntities = 2;\r\n\r\n    // Owners\r\n    uint256 constant _ownerIdProviders = 0;\r\n    string constant _ownerLabel = \"Owner\";\r\n\r\n    // Pools\r\n    uint256 constant _poolId = 1;\r\n    string constant _poolLabel = \"Pool\";\r\n\r\n    string[] _Label = [_ownerLabel, _poolLabel];\r\n    \r\n    struct _CertificateStruct{\r\n        mapping(bytes32 => Library._entityIdentity) _cert;\r\n    }\r\n    \r\n    struct _CertificatesPerHolderStruct{\r\n        mapping(address => _CertificateStruct) _CertificatesPerHolder;\r\n    }\r\n   \r\n    mapping(address => _CertificatesPerHolderStruct) _CertificatesPerPool;\r\n\r\n    // modifiers\r\n    modifier isAPool(address pool){\r\n        require(true == isPool(pool));\r\n        _;\r\n    }\r\n    \r\n    modifier isEntityActivated(bool YesOrNo, Library._entityIdentity memory Entity){\r\n        Library.EntityActivated(YesOrNo, Entity);\r\n        _;\r\n    }\r\n    \r\n    modifier HasNotAlreadyVoted(Library.Actions action, Library._entityIdentity memory Entity){\r\n        Library.NotAlreadyVoted(action, Entity);\r\n        _;\r\n    }\r\n\r\n     // Constructor\r\n    constructor(address[] memory owners,  uint256 minOwners) \r\n        MultiSigContract(owners, minOwners, TotalEntities, _Label, _ownerIdProviders)\r\n    payable\r\n    {}\r\n\r\n    // POOL CRUD Operations\r\n    function addPool(address pool, string memory poolInfo) external override{\r\n        addEntity(pool, bytes(poolInfo), _poolId);\r\n    }\r\n\r\n    function removePool(address pool) external override{\r\n       removeEntity(pool, _poolId); \r\n    }\r\n    \r\n    function updatePool(address pool, string memory poolInfo) external override{\r\n       updateEntity(pool, bytes(poolInfo), _poolId);\r\n    }\r\n    \r\n    function retrievePool(address pool) external override view returns (string memory){\r\n        return InternalRetrievePool(pool);\r\n    }\r\n    \r\n    function InternalRetrievePool(address pool) internal view returns (string memory){\r\n        return string(retrieveEntity(pool, _poolId));\r\n    }\r\n\r\n    function retrieveAllPools() external override view returns (address[] memory){\r\n        return(retrieveAllEntities(_poolId));\r\n    }\r\n    \r\n    function retrieveTotalPools() external override view returns (uint){\r\n        return (retrieveTotalEntities(_poolId));\r\n    }\r\n\r\n    function isPool(address pool) public view returns (bool){\r\n        return(isEntity(pool, _poolId));\r\n    }\r\n    \r\n    // Certificates management\r\n     function addCertificate(address pool, bytes32 CertificateHash, address holder) external override\r\n     {\r\n        manipulateCertificate(pool, CertificateHash, holder, Library.Actions.Add);\r\n     }\r\n     \r\n     function removeCertificate(address pool, bytes32 CertificateHash, address holder) external override\r\n     {\r\n         manipulateCertificate(pool, CertificateHash, holder, Library.Actions.Remove);\r\n     }\r\n\r\n    \r\n    function manipulateCertificate(address pool, bytes32 CertificateHash, address holder, Library.Actions act) \r\n        isAPool(pool)\r\n        isAnOwner\r\n        isEntityActivated(act == Library.Actions.Remove,  _CertificatesPerPool[pool]._CertificatesPerHolder[holder]._cert[CertificateHash])\r\n        HasNotAlreadyVoted(Library.Actions.Add, _CertificatesPerPool[pool]._CertificatesPerHolder[holder]._cert[CertificateHash])\r\n    internal{\r\n        \r\n        uint validations;\r\n        \r\n        if(act == Library.Actions.Add){\r\n            _CertificatesPerPool[pool]._CertificatesPerHolder[holder]._cert[CertificateHash]._AddValidated.push(msg.sender);\r\n            validations = _CertificatesPerPool[pool]._CertificatesPerHolder[holder]._cert[CertificateHash]._AddValidated.length;\r\n        }\r\n        else{\r\n            _CertificatesPerPool[pool]._CertificatesPerHolder[holder]._cert[CertificateHash]._RemoveValidated.push(msg.sender);\r\n            validations = _CertificatesPerPool[pool]._CertificatesPerHolder[holder]._cert[CertificateHash]._RemoveValidated.length;\r\n        }\r\n\r\n        if(Library.CheckValidations(validations, _minOwners)){\r\n            MultiSigCertificatesPool poolToSend;\r\n            \r\n            if(keccak256(abi.encodePacked(\"Private\")) == keccak256(abi.encodePacked((InternalRetrievePool(pool))))){\r\n                poolToSend = PrivateCertificatesPool(pool);\r\n            }\r\n            else {\r\n                poolToSend = PublicCertificatesPool(pool);\r\n            }\r\n            \r\n            \r\n            if(act == Library.Actions.Add){\r\n                poolToSend.addCertificate(CertificateHash, holder);\r\n            }\r\n            else{\r\n               poolToSend.removeCertificate(CertificateHash, holder);\r\n            }\r\n            \r\n            \r\n        }\r\n    }\r\n    \r\n }",
  "sourcePath": "C:/Users/d-aam/GitHub/Certificates/contracts/MultiSigProvider.sol",
  "compiler": {
    "name": "solc",
    "version": "0.7.6+commit.7338295f.Emscripten.clang"
  },
  "schemaVersion": "3.3.4",
  "updatedAt": "2021-05-20T14:15:40.116Z",
  "devdoc": {
    "kind": "dev",
    "methods": {},
    "version": 1
  },
  "userdoc": {
    "kind": "user",
    "methods": {},
    "version": 1
  }
}