{
  "contractName": "MultiSigProvider",
  "abi": [
    {
      "inputs": [
        {
          "internalType": "address[]",
          "name": "owners",
          "type": "address[]"
        },
        {
          "internalType": "uint256",
          "name": "minOwners",
          "type": "uint256"
        }
      ],
      "stateMutability": "payable",
      "type": "constructor"
    },
    {
      "anonymous": false,
      "inputs": [
        {
          "indexed": false,
          "internalType": "string",
          "name": "",
          "type": "string"
        },
        {
          "indexed": false,
          "internalType": "address",
          "name": "",
          "type": "address"
        }
      ],
      "name": "_AddEntityValidationIdEvent",
      "type": "event"
    },
    {
      "anonymous": false,
      "inputs": [
        {
          "indexed": false,
          "internalType": "string",
          "name": "",
          "type": "string"
        },
        {
          "indexed": false,
          "internalType": "address",
          "name": "",
          "type": "address"
        }
      ],
      "name": "_RemoveEntityValidationIdEvent",
      "type": "event"
    },
    {
      "anonymous": false,
      "inputs": [
        {
          "indexed": false,
          "internalType": "string",
          "name": "",
          "type": "string"
        },
        {
          "indexed": false,
          "internalType": "address",
          "name": "",
          "type": "address"
        }
      ],
      "name": "_UpdateEntityValidationIdEvent",
      "type": "event"
    },
    {
      "inputs": [
        {
          "internalType": "address",
          "name": "owner",
          "type": "address"
        },
        {
          "internalType": "string",
          "name": "ownerInfo",
          "type": "string"
        }
      ],
      "name": "addOwner",
      "outputs": [],
      "stateMutability": "nonpayable",
      "type": "function"
    },
    {
      "inputs": [
        {
          "internalType": "address",
          "name": "owner",
          "type": "address"
        }
      ],
      "name": "isOwner",
      "outputs": [
        {
          "internalType": "bool",
          "name": "",
          "type": "bool"
        }
      ],
      "stateMutability": "view",
      "type": "function"
    },
    {
      "inputs": [
        {
          "internalType": "address",
          "name": "owner",
          "type": "address"
        }
      ],
      "name": "removeOwner",
      "outputs": [],
      "stateMutability": "nonpayable",
      "type": "function"
    },
    {
      "inputs": [],
      "name": "retrieveAllOwners",
      "outputs": [
        {
          "internalType": "address[]",
          "name": "",
          "type": "address[]"
        }
      ],
      "stateMutability": "view",
      "type": "function"
    },
    {
      "inputs": [
        {
          "internalType": "address",
          "name": "owner",
          "type": "address"
        }
      ],
      "name": "retrieveOwner",
      "outputs": [
        {
          "internalType": "string",
          "name": "",
          "type": "string"
        }
      ],
      "stateMutability": "view",
      "type": "function"
    },
    {
      "inputs": [],
      "name": "retrieveTotalOwners",
      "outputs": [
        {
          "internalType": "uint256",
          "name": "",
          "type": "uint256"
        }
      ],
      "stateMutability": "view",
      "type": "function"
    },
    {
      "inputs": [
        {
          "internalType": "address",
          "name": "owner",
          "type": "address"
        },
        {
          "internalType": "string",
          "name": "ownerInfo",
          "type": "string"
        }
      ],
      "name": "updateOwner",
      "outputs": [],
      "stateMutability": "nonpayable",
      "type": "function"
    },
    {
      "inputs": [
        {
          "internalType": "address",
          "name": "pool",
          "type": "address"
        },
        {
          "internalType": "string",
          "name": "poolInfo",
          "type": "string"
        }
      ],
      "name": "addPool",
      "outputs": [],
      "stateMutability": "nonpayable",
      "type": "function"
    },
    {
      "inputs": [
        {
          "internalType": "address",
          "name": "pool",
          "type": "address"
        }
      ],
      "name": "removePool",
      "outputs": [],
      "stateMutability": "nonpayable",
      "type": "function"
    },
    {
      "inputs": [
        {
          "internalType": "address",
          "name": "pool",
          "type": "address"
        },
        {
          "internalType": "string",
          "name": "poolInfo",
          "type": "string"
        }
      ],
      "name": "updatePool",
      "outputs": [],
      "stateMutability": "nonpayable",
      "type": "function"
    },
    {
      "inputs": [
        {
          "internalType": "address",
          "name": "pool",
          "type": "address"
        }
      ],
      "name": "retrievePool",
      "outputs": [
        {
          "internalType": "string",
          "name": "",
          "type": "string"
        }
      ],
      "stateMutability": "view",
      "type": "function"
    },
    {
      "inputs": [],
      "name": "retrieveAllPools",
      "outputs": [
        {
          "internalType": "address[]",
          "name": "",
          "type": "address[]"
        }
      ],
      "stateMutability": "view",
      "type": "function"
    },
    {
      "inputs": [],
      "name": "retrieveTotalPools",
      "outputs": [
        {
          "internalType": "uint256",
          "name": "",
          "type": "uint256"
        }
      ],
      "stateMutability": "view",
      "type": "function"
    },
    {
      "inputs": [
        {
          "internalType": "address",
          "name": "pool",
          "type": "address"
        }
      ],
      "name": "isPool",
      "outputs": [
        {
          "internalType": "bool",
          "name": "",
          "type": "bool"
        }
      ],
      "stateMutability": "view",
      "type": "function"
    },
    {
      "inputs": [
        {
          "internalType": "address",
          "name": "pool",
          "type": "address"
        },
        {
          "internalType": "bytes",
          "name": "CertificateHash",
          "type": "bytes"
        },
        {
          "internalType": "address",
          "name": "holder",
          "type": "address"
        },
        {
          "internalType": "bool",
          "name": "poolPrivate",
          "type": "bool"
        }
      ],
      "name": "addCertificate",
      "outputs": [],
      "stateMutability": "nonpayable",
      "type": "function"
    },
    {
      "inputs": [
        {
          "internalType": "address",
          "name": "pool",
          "type": "address"
        },
        {
          "internalType": "uint256",
          "name": "CertificateId",
          "type": "uint256"
        },
        {
          "internalType": "address",
          "name": "holder",
          "type": "address"
        },
        {
          "internalType": "bool",
          "name": "poolPrivate",
          "type": "bool"
        }
      ],
      "name": "removeCertificate",
      "outputs": [],
      "stateMutability": "nonpayable",
      "type": "function"
    },
    {
      "inputs": [
        {
          "internalType": "address",
          "name": "pool",
          "type": "address"
        },
        {
          "internalType": "uint256",
          "name": "CertificateId",
          "type": "uint256"
        },
        {
          "internalType": "address",
          "name": "holder",
          "type": "address"
        },
        {
          "internalType": "bytes",
          "name": "CertificateHash",
          "type": "bytes"
        },
        {
          "internalType": "bool",
          "name": "poolPrivate",
          "type": "bool"
        }
      ],
      "name": "updateCertificate",
      "outputs": [],
      "stateMutability": "nonpayable",
      "type": "function"
    }
  ],
  "bytecode": "0x608060405260405180604001604052806040518060400160405280600581526020017f4f776e657200000000000000000000000000000000000000000000000000000081525081526020016040518060400160405280600481526020017f506f6f6c00000000000000000000000000000000000000000000000000000000815250815250600490600262000095929190620004d9565b5060405162005f2638038062005f268339818101604052810190620000bb91906200073a565b818160026004805480602002602001604051908101604052809291908181526020016000905b82821015620001a3578382906000526020600020018054600181600116156101000203166002900480601f0160208091040260200160405190810160405280929190818152602001828054600181600116156101000203166002900480156200018e5780601f1062000162576101008083540402835291602001916200018e565b820191906000526020600020905b8154815290600101906020018083116200017057829003601f168201915b505050505081526020019060010190620000e1565b505050506000845184111562000205576040517f08c379a000000000000000000000000000000000000000000000000000000000815260040180806020018281038252603c81526020018062005eea603c913960400191505060405180910390fd5b600084116200027c576040517f08c379a00000000000000000000000000000000000000000000000000000000081526004018080602001828103825260188152602001807f4174206c656173742031206d696e696d756d206f776e6572000000000000000081525060200191505060405180910390fd5b81518314620002f3576040517f08c379a000000000000000000000000000000000000000000000000000000000815260040180806020018281038252601d8152602001807f4e6f7420656e6f756768206f7220746f6f206d616e79206c6162656c7300000081525060200191505060405180910390fd5b8060008190555060005b83811015620003845760036001816001815401808255809150500390600052602060002090505060028382815181106200033357fe5b60200260200101519080600181540180825580915050600190039060005260206000200160009091909190915090805190602001906200037592919062000540565b508080600101915050620002fd565b508360018190555060005b8551811015620004cb576001600360005481548110620003ab57fe5b90600052602060002090600202016000016000888481518110620003cb57fe5b602002602001015173ffffffffffffffffffffffffffffffffffffffff1673ffffffffffffffffffffffffffffffffffffffff16815260200190815260200160002060010160006101000a81548160ff0219169083151502179055506003600054815481106200043757fe5b90600052602060002090600202016001018682815181106200045557fe5b60200260200101519080600181540180825580915050600190039060005260206000200160009091909190916101000a81548173ffffffffffffffffffffffffffffffffffffffff021916908373ffffffffffffffffffffffffffffffffffffffff16021790555080806001019150506200038f565b50505050505050506200086b565b8280548282559060005260206000209081019282156200052d579160200282015b828111156200052c5782518290805190602001906200051b92919062000540565b5091602001919060010190620004fa565b5b5090506200053c9190620005d7565b5090565b828054600181600116156101000203166002900490600052602060002090601f016020900481019282620005785760008555620005c4565b82601f106200059357805160ff1916838001178555620005c4565b82800160010185558215620005c4579182015b82811115620005c3578251825591602001919060010190620005a6565b5b509050620005d39190620005ff565b5090565b5b80821115620005fb5760008181620005f191906200061e565b50600101620005d8565b5090565b5b808211156200061a57600081600090555060010162000600565b5090565b50805460018160011615610100020316600290046000825580601f1062000646575062000667565b601f016020900490600052602060002090810190620006669190620005ff565b5b50565b6000620006816200067b84620007c8565b62000794565b90508083825260208201905082856020860282011115620006a157600080fd5b60005b85811015620006d55781620006ba8882620006df565b845260208401935060208301925050600181019050620006a4565b5050509392505050565b600081519050620006f08162000837565b92915050565b600082601f8301126200070857600080fd5b81516200071a8482602086016200066a565b91505092915050565b600081519050620007348162000851565b92915050565b600080604083850312156200074e57600080fd5b600083015167ffffffffffffffff8111156200076957600080fd5b6200077785828601620006f6565b92505060206200078a8582860162000723565b9150509250929050565b6000604051905081810181811067ffffffffffffffff82111715620007be57620007bd62000835565b5b8060405250919050565b600067ffffffffffffffff821115620007e657620007e562000835565b5b602082029050602081019050919050565b600062000804826200080b565b9050919050565b600073ffffffffffffffffffffffffffffffffffffffff82169050919050565b6000819050919050565bfe5b6200084281620007f7565b81146200084e57600080fd5b50565b6200085c816200082b565b81146200086857600080fd5b50565b61566f806200087b6000396000f3fe608060405234801561001057600080fd5b506004361061010b5760003560e01c8063704dc09b116100a25780638fc2d8ea116100715780638fc2d8ea146102a05780639fc10436146102d0578063a93d5ed6146102ec578063d2ceec8b1461030a578063eefe7681146103265761010b565b8063704dc09b1461021a57806373bd22b81461023657806376c091791461025457806377bc5a1f146102705761010b565b80632f54bf6e116100de5780632f54bf6e146101825780633542758f146101b25780633b7d0946146101ce5780635b16ebb7146101ea5761010b565b80631406bf0a14610110578063173825d91461012c5780632d99aaf2146101485780632db79f0114610166575b600080fd5b61012a60048036038101906101259190614d1f565b610344565b005b61014660048036038101906101419190614cf6565b610edc565b005b610150610eeb565b60405161015d9190615277565b60405180910390f35b610180600480360381019061017b9190614dee565b610efc565b005b61019c60048036038101906101979190614cf6565b610f02565b6040516101a99190615299565b60405180910390f35b6101cc60048036038101906101c79190614d9a565b610f17565b005b6101e860048036038101906101e39190614cf6565b610f28565b005b61020460048036038101906101ff9190614cf6565b610f36565b6040516102119190615299565b60405180910390f35b610234600480360381019061022f9190614d9a565b610f4a565b005b61023e610f5a565b60405161024b91906153a6565b60405180910390f35b61026e60048036038101906102699190614d9a565b610f6b565b005b61028a60048036038101906102859190614cf6565b610f7b565b6040516102979190615344565b60405180910390f35b6102ba60048036038101906102b59190614cf6565b610f90565b6040516102c79190615344565b60405180910390f35b6102ea60048036038101906102e59190614d9a565b610fa4565b005b6102f4610fb5565b6040516103019190615277565b60405180910390f35b610324600480360381019061031f9190614e51565b610fc7565b005b61032e610fce565b60405161033b91906153a6565b60405180910390f35b8361034e81610f36565b1515600115151461035e57600080fd5b61036733610f02565b151560011515146103c3576040517f08c379a000000000000000000000000000000000000000000000000000000000815260040180806020018281038252602e81526020018061560c602e913960400191505060405180910390fd5b6000600560008773ffffffffffffffffffffffffffffffffffffffff1673ffffffffffffffffffffffffffffffffffffffff16815260200190815260200160002060000160008573ffffffffffffffffffffffffffffffffffffffff1673ffffffffffffffffffffffffffffffffffffffff168152602001908152602001600020600001856040518082805190602001908083835b6020831061047b5780518252602082019150602081019050602083039250610458565b6001836020036101000a03801982511681845116808217855250505050505090500191505090815260200160405180910390206040518060e0016040529081600082015481526020016001820160009054906101000a900460ff16151515158152602001600282018054600181600116156101000203166002900480601f0160208091040260200160405190810160405280929190818152602001828054600181600116156101000203166002900480156105775780601f1061054c57610100808354040283529160200191610577565b820191906000526020600020905b81548152906001019060200180831161055a57829003601f168201915b50505050508152602001600382015481526020016004820180548060200260200160405190810160405280929190818152602001828054801561060f57602002820191906000526020600020905b8160009054906101000a900473ffffffffffffffffffffffffffffffffffffffff1673ffffffffffffffffffffffffffffffffffffffff16815260200190600101908083116105c5575b505050505081526020016005820180548060200260200160405190810160405280929190818152602001828054801561069d57602002820191906000526020600020905b8160009054906101000a900473ffffffffffffffffffffffffffffffffffffffff1673ffffffffffffffffffffffffffffffffffffffff1681526020019060010190808311610653575b505050505081526020016006820180548060200260200160405190810160405280929190818152602001828054801561072b57602002820191906000526020600020905b8160009054906101000a900473ffffffffffffffffffffffffffffffffffffffff1673ffffffffffffffffffffffffffffffffffffffff16815260200190600101908083116106e1575b50505050508152505073__Library_______________________________63354945be83836040518363ffffffff1660e01b815260040161076d9291906152b4565b60006040518083038186803b15801561078557600080fd5b505af4158015610799573d6000803e3d6000fd5b505050506000600560008973ffffffffffffffffffffffffffffffffffffffff1673ffffffffffffffffffffffffffffffffffffffff16815260200190815260200160002060000160008773ffffffffffffffffffffffffffffffffffffffff1673ffffffffffffffffffffffffffffffffffffffff1681526020019081526020016000206000018760405161082f9190615260565b90815260200160405180910390206040518060e0016040529081600082015481526020016001820160009054906101000a900460ff16151515158152602001600282018054600181600116156101000203166002900480601f0160208091040260200160405190810160405280929190818152602001828054600181600116156101000203166002900480156109065780601f106108db57610100808354040283529160200191610906565b820191906000526020600020905b8154815290600101906020018083116108e957829003601f168201915b50505050508152602001600382015481526020016004820180548060200260200160405190810160405280929190818152602001828054801561099e57602002820191906000526020600020905b8160009054906101000a900473ffffffffffffffffffffffffffffffffffffffff1673ffffffffffffffffffffffffffffffffffffffff1681526020019060010190808311610954575b5050505050815260200160058201805480602002602001604051908101604052809291908181526020018280548015610a2c57602002820191906000526020600020905b8160009054906101000a900473ffffffffffffffffffffffffffffffffffffffff1673ffffffffffffffffffffffffffffffffffffffff16815260200190600101908083116109e2575b5050505050815260200160068201805480602002602001604051908101604052809291908181526020018280548015610aba57602002820191906000526020600020905b8160009054906101000a900473ffffffffffffffffffffffffffffffffffffffff1673ffffffffffffffffffffffffffffffffffffffff1681526020019060010190808311610a70575b50505050508152505073__Library_______________________________63777d5c5883836040518363ffffffff1660e01b8152600401610afc929190615314565b60006040518083038186803b158015610b1457600080fd5b505af4158015610b28573d6000803e3d6000fd5b50505050600560008a73ffffffffffffffffffffffffffffffffffffffff1673ffffffffffffffffffffffffffffffffffffffff16815260200190815260200160002060000160008873ffffffffffffffffffffffffffffffffffffffff1673ffffffffffffffffffffffffffffffffffffffff16815260200190815260200160002060000188604051610bbc9190615260565b90815260200160405180910390206004018054905060001415610c905787600560008b73ffffffffffffffffffffffffffffffffffffffff1673ffffffffffffffffffffffffffffffffffffffff16815260200190815260200160002060000160008973ffffffffffffffffffffffffffffffffffffffff1673ffffffffffffffffffffffffffffffffffffffff16815260200190815260200160002060000189604051610c6a9190615260565b90815260200160405180910390206002019080519060200190610c8e929190614ad3565b505b600560008a73ffffffffffffffffffffffffffffffffffffffff1673ffffffffffffffffffffffffffffffffffffffff16815260200190815260200160002060000160008873ffffffffffffffffffffffffffffffffffffffff1673ffffffffffffffffffffffffffffffffffffffff16815260200190815260200160002060000188604051610d209190615260565b9081526020016040518091039020600401339080600181540180825580915050600190039060005260206000200160009091909190916101000a81548173ffffffffffffffffffffffffffffffffffffffff021916908373ffffffffffffffffffffffffffffffffffffffff160217905550610e42600560008b73ffffffffffffffffffffffffffffffffffffffff1673ffffffffffffffffffffffffffffffffffffffff16815260200190815260200160002060000160008973ffffffffffffffffffffffffffffffffffffffff1673ffffffffffffffffffffffffffffffffffffffff16815260200190815260200160002060000189604051610e259190615260565b908152602001604051809103902060040180549050600154610fe0565b15610ed1576000861515600115151415610e5e57899050610e62565b8990505b8073ffffffffffffffffffffffffffffffffffffffff16637c5a1bdb8a8a6040518363ffffffff1660e01b8152600401610e9d9291906152e4565b600060405180830381600087803b158015610eb757600080fd5b505af1158015610ecb573d6000803e3d6000fd5b50505050505b505050505050505050565b610ee881600054610ffe565b50565b6060610ef760016115da565b905090565b50505050565b6000610f108260005461171a565b9050919050565b610f248282600054611b21565b5050565b610f33816001610ffe565b50565b6000610f4382600161171a565b9050919050565b610f5682826001611b21565b5050565b6000610f6660016120aa565b905090565b610f77828260016121ea565b5050565b6060610f89826000546124d5565b9050919050565b6060610f9d8260016124d5565b9050919050565b610fb182826000546121ea565b5050565b6060610fc26000546115da565b905090565b5050505050565b6000610fdb6000546120aa565b905090565b600081831015610ff35760009050610ff8565b600190505b92915050565b8060038054905073__Library_______________________________632477a0ea83836040518363ffffffff1660e01b8152600401808381526020018281526020019250505060206040518083038186803b15801561105c57600080fd5b505af4158015611070573d6000803e3d6000fd5b505050506040513d602081101561108657600080fd5b810190808051906020019092919050505015156001151514611110576040517f08c379a00000000000000000000000000000000000000000000000000000000081526004018080602001828103825260148152602001807f70726f76696465642049642069732077726f6e6700000000000000000000000081525060200191505060405180910390fd5b8361111a33610f02565b151560011515148061115757508073ffffffffffffffffffffffffffffffffffffffff163373ffffffffffffffffffffffffffffffffffffffff16145b6111c9576040517f08c379a000000000000000000000000000000000000000000000000000000000815260040180806020018281038252601c8152602001807f4e6f7420616c6c6f77656420746f2072656d6f766520656e746974790000000081525060200191505060405180910390fd5b6111f085600386815481106111da57fe5b9060005260206000209060020201600154612617565b6114d96003858154811061120057fe5b906000526020600020906002020160000160008773ffffffffffffffffffffffffffffffffffffffff1673ffffffffffffffffffffffffffffffffffffffff1681526020019081526020016000206040518060e0016040529081600082015481526020016001820160009054906101000a900460ff16151515158152602001600282018054600181600116156101000203166002900480601f0160208091040260200160405190810160405280929190818152602001828054600181600116156101000203166002900480156113175780601f106112ec57610100808354040283529160200191611317565b820191906000526020600020905b8154815290600101906020018083116112fa57829003601f168201915b5050505050815260200160038201548152602001600482018054806020026020016040519081016040528092919081815260200182805480156113af57602002820191906000526020600020905b8160009054906101000a900473ffffffffffffffffffffffffffffffffffffffff1673ffffffffffffffffffffffffffffffffffffffff1681526020019060010190808311611365575b505050505081526020016005820180548060200260200160405190810160405280929190818152602001828054801561143d57602002820191906000526020600020905b8160009054906101000a900473ffffffffffffffffffffffffffffffffffffffff1673ffffffffffffffffffffffffffffffffffffffff16815260200190600101908083116113f3575b50505050508152602001600682018054806020026020016040519081016040528092919081815260200182805480156114cb57602002820191906000526020600020905b8160009054906101000a900473ffffffffffffffffffffffffffffffffffffffff1673ffffffffffffffffffffffffffffffffffffffff1681526020019060010190808311611481575b505050505081525050612e20565b15156000151514156115d3577f1f62d535f971041db7bd8760bf0f1f9f476461558744a35c0d477b5ad6893e896002858154811061151357fe5b906000526020600020018660405180806020018373ffffffffffffffffffffffffffffffffffffffff1681526020018281038252848181546001816001161561010002031660029004815260200191508054600181600116156101000203166002900480156115c35780601f10611598576101008083540402835291602001916115c3565b820191906000526020600020905b8154815290600101906020018083116115a657829003601f168201915b5050935050505060405180910390a15b5050505050565b60608160038054905073__Library_______________________________632477a0ea83836040518363ffffffff1660e01b8152600401808381526020018281526020019250505060206040518083038186803b15801561163a57600080fd5b505af415801561164e573d6000803e3d6000fd5b505050506040513d602081101561166457600080fd5b8101908080519060200190929190505050151560011515146116ee576040517f08c379a00000000000000000000000000000000000000000000000000000000081526004018080602001828103825260148152602001807f70726f76696465642049642069732077726f6e6700000000000000000000000081525060200191505060405180910390fd5b611711600385815481106116fe57fe5b9060005260206000209060020201612e2e565b92505050919050565b60008160038054905073__Library_______________________________632477a0ea83836040518363ffffffff1660e01b8152600401808381526020018281526020019250505060206040518083038186803b15801561177a57600080fd5b505af415801561178e573d6000803e3d6000fd5b505050506040513d60208110156117a457600080fd5b81019080805190602001909291905050501515600115151461182e576040517f08c379a00000000000000000000000000000000000000000000000000000000081526004018080602001828103825260148152602001807f70726f76696465642049642069732077726f6e6700000000000000000000000081525060200191505060405180910390fd5b611b176003858154811061183e57fe5b906000526020600020906002020160000160008773ffffffffffffffffffffffffffffffffffffffff1673ffffffffffffffffffffffffffffffffffffffff1681526020019081526020016000206040518060e0016040529081600082015481526020016001820160009054906101000a900460ff16151515158152602001600282018054600181600116156101000203166002900480601f0160208091040260200160405190810160405280929190818152602001828054600181600116156101000203166002900480156119555780601f1061192a57610100808354040283529160200191611955565b820191906000526020600020905b81548152906001019060200180831161193857829003601f168201915b5050505050815260200160038201548152602001600482018054806020026020016040519081016040528092919081815260200182805480156119ed57602002820191906000526020600020905b8160009054906101000a900473ffffffffffffffffffffffffffffffffffffffff1673ffffffffffffffffffffffffffffffffffffffff16815260200190600101908083116119a3575b5050505050815260200160058201805480602002602001604051908101604052809291908181526020018280548015611a7b57602002820191906000526020600020905b8160009054906101000a900473ffffffffffffffffffffffffffffffffffffffff1673ffffffffffffffffffffffffffffffffffffffff1681526020019060010190808311611a31575b5050505050815260200160068201805480602002602001604051908101604052809291908181526020018280548015611b0957602002820191906000526020600020905b8160009054906101000a900473ffffffffffffffffffffffffffffffffffffffff1673ffffffffffffffffffffffffffffffffffffffff1681526020019060010190808311611abf575b505050505081525050612e20565b9250505092915050565b8060038054905073__Library_______________________________632477a0ea83836040518363ffffffff1660e01b8152600401808381526020018281526020019250505060206040518083038186803b158015611b7f57600080fd5b505af4158015611b93573d6000803e3d6000fd5b505050506040513d6020811015611ba957600080fd5b810190808051906020019092919050505015156001151514611c33576040517f08c379a00000000000000000000000000000000000000000000000000000000081526004018080602001828103825260148152602001807f70726f76696465642049642069732077726f6e6700000000000000000000000081525060200191505060405180910390fd5b611c3c33610f02565b15156001151514611c98576040517f08c379a000000000000000000000000000000000000000000000000000000000815260040180806020018281038252602e81526020018061560c602e913960400191505060405180910390fd5b611cc0858560038681548110611caa57fe5b9060005260206000209060020201600154612fac565b611fa960038481548110611cd057fe5b906000526020600020906002020160000160008773ffffffffffffffffffffffffffffffffffffffff1673ffffffffffffffffffffffffffffffffffffffff1681526020019081526020016000206040518060e0016040529081600082015481526020016001820160009054906101000a900460ff16151515158152602001600282018054600181600116156101000203166002900480601f016020809104026020016040519081016040528092919081815260200182805460018160011615610100020316600290048015611de75780601f10611dbc57610100808354040283529160200191611de7565b820191906000526020600020905b815481529060010190602001808311611dca57829003601f168201915b505050505081526020016003820154815260200160048201805480602002602001604051908101604052809291908181526020018280548015611e7f57602002820191906000526020600020905b8160009054906101000a900473ffffffffffffffffffffffffffffffffffffffff1673ffffffffffffffffffffffffffffffffffffffff1681526020019060010190808311611e35575b5050505050815260200160058201805480602002602001604051908101604052809291908181526020018280548015611f0d57602002820191906000526020600020905b8160009054906101000a900473ffffffffffffffffffffffffffffffffffffffff1673ffffffffffffffffffffffffffffffffffffffff1681526020019060010190808311611ec3575b5050505050815260200160068201805480602002602001604051908101604052809291908181526020018280548015611f9b57602002820191906000526020600020905b8160009054906101000a900473ffffffffffffffffffffffffffffffffffffffff1673ffffffffffffffffffffffffffffffffffffffff1681526020019060010190808311611f51575b505050505081525050612e20565b15156001151514156120a3577f3c139d46a211844e248647688545a37c07c505c999c1232d1247c707dc0a91e260028481548110611fe357fe5b906000526020600020018660405180806020018373ffffffffffffffffffffffffffffffffffffffff1681526020018281038252848181546001816001161561010002031660029004815260200191508054600181600116156101000203166002900480156120935780601f1061206857610100808354040283529160200191612093565b820191906000526020600020905b81548152906001019060200180831161207657829003601f168201915b5050935050505060405180910390a15b5050505050565b60008160038054905073__Library_______________________________632477a0ea83836040518363ffffffff1660e01b8152600401808381526020018281526020019250505060206040518083038186803b15801561210a57600080fd5b505af415801561211e573d6000803e3d6000fd5b505050506040513d602081101561213457600080fd5b8101908080519060200190929190505050151560011515146121be576040517f08c379a00000000000000000000000000000000000000000000000000000000081526004018080602001828103825260148152602001807f70726f76696465642049642069732077726f6e6700000000000000000000000081525060200191505060405180910390fd5b6121e1600385815481106121ce57fe5b9060005260206000209060020201613878565b92505050919050565b8060038054905073__Library_______________________________632477a0ea83836040518363ffffffff1660e01b8152600401808381526020018281526020019250505060206040518083038186803b15801561224857600080fd5b505af415801561225c573d6000803e3d6000fd5b505050506040513d602081101561227257600080fd5b8101908080519060200190929190505050151560011515146122fc576040517f08c379a00000000000000000000000000000000000000000000000000000000081526004018080602001828103825260148152602001807f70726f76696465642049642069732077726f6e6700000000000000000000000081525060200191505060405180910390fd5b61230533610f02565b15156001151514612361576040517f08c379a000000000000000000000000000000000000000000000000000000000815260040180806020018281038252602e81526020018061560c602e913960400191505060405180910390fd5b6000612387866003868154811061237457fe5b9060005260206000209060020201613912565b90506123b186866003878154811061239b57fe5b9060005260206000209060020201600154613c36565b600181016123d987600387815481106123c657fe5b9060005260206000209060020201613912565b14156124cd577fddf8a9c2d29b02b191b0a29b7a0f698bfd4655230a23853e2af123ab0b1188d76002858154811061240d57fe5b906000526020600020018760405180806020018373ffffffffffffffffffffffffffffffffffffffff1681526020018281038252848181546001816001161561010002031660029004815260200191508054600181600116156101000203166002900480156124bd5780601f10612492576101008083540402835291602001916124bd565b820191906000526020600020905b8154815290600101906020018083116124a057829003601f168201915b5050935050505060405180910390a15b505050505050565b60608160038054905073__Library_______________________________632477a0ea83836040518363ffffffff1660e01b8152600401808381526020018281526020019250505060206040518083038186803b15801561253557600080fd5b505af4158015612549573d6000803e3d6000fd5b505050506040513d602081101561255f57600080fd5b8101908080519060200190929190505050151560011515146125e9576040517f08c379a00000000000000000000000000000000000000000000000000000000081526004018080602001828103825260148152602001807f70726f76696465642049642069732077726f6e6700000000000000000000000081525060200191505060405180910390fd5b61260d85600386815481106125fa57fe5b90600052602060002090600202016143de565b9250505092915050565b60018260000160008573ffffffffffffffffffffffffffffffffffffffff1673ffffffffffffffffffffffffffffffffffffffff1681526020019081526020016000206040518060e0016040529081600082015481526020016001820160009054906101000a900460ff16151515158152602001600282018054600181600116156101000203166002900480601f0160208091040260200160405190810160405280929190818152602001828054600181600116156101000203166002900480156127235780601f106126f857610100808354040283529160200191612723565b820191906000526020600020905b81548152906001019060200180831161270657829003601f168201915b5050505050815260200160038201548152602001600482018054806020026020016040519081016040528092919081815260200182805480156127bb57602002820191906000526020600020905b8160009054906101000a900473ffffffffffffffffffffffffffffffffffffffff1673ffffffffffffffffffffffffffffffffffffffff1681526020019060010190808311612771575b505050505081526020016005820180548060200260200160405190810160405280929190818152602001828054801561284957602002820191906000526020600020905b8160009054906101000a900473ffffffffffffffffffffffffffffffffffffffff1673ffffffffffffffffffffffffffffffffffffffff16815260200190600101908083116127ff575b50505050508152602001600682018054806020026020016040519081016040528092919081815260200182805480156128d757602002820191906000526020600020905b8160009054906101000a900473ffffffffffffffffffffffffffffffffffffffff1673ffffffffffffffffffffffffffffffffffffffff168152602001906001019080831161288d575b5050505050815250506128ea828261479a565b60028460000160008773ffffffffffffffffffffffffffffffffffffffff1673ffffffffffffffffffffffffffffffffffffffff1681526020019081526020016000206040518060e0016040529081600082015481526020016001820160009054906101000a900460ff16151515158152602001600282018054600181600116156101000203166002900480601f0160208091040260200160405190810160405280929190818152602001828054600181600116156101000203166002900480156129f65780601f106129cb576101008083540402835291602001916129f6565b820191906000526020600020905b8154815290600101906020018083116129d957829003601f168201915b505050505081526020016003820154815260200160048201805480602002602001604051908101604052809291908181526020018280548015612a8e57602002820191906000526020600020905b8160009054906101000a900473ffffffffffffffffffffffffffffffffffffffff1673ffffffffffffffffffffffffffffffffffffffff1681526020019060010190808311612a44575b5050505050815260200160058201805480602002602001604051908101604052809291908181526020018280548015612b1c57602002820191906000526020600020905b8160009054906101000a900473ffffffffffffffffffffffffffffffffffffffff1673ffffffffffffffffffffffffffffffffffffffff1681526020019060010190808311612ad2575b5050505050815260200160068201805480602002602001604051908101604052809291908181526020018280548015612baa57602002820191906000526020600020905b8160009054906101000a900473ffffffffffffffffffffffffffffffffffffffff1673ffffffffffffffffffffffffffffffffffffffff1681526020019060010190808311612b60575b505050505081525050612bbd828261484f565b8560000160008873ffffffffffffffffffffffffffffffffffffffff1673ffffffffffffffffffffffffffffffffffffffff168152602001908152602001600020600501339080600181540180825580915050600190039060005260206000200160009091909190916101000a81548173ffffffffffffffffffffffffffffffffffffffff021916908373ffffffffffffffffffffffffffffffffffffffff1602179055508673ffffffffffffffffffffffffffffffffffffffff163373ffffffffffffffffffffffffffffffffffffffff161480612ce95750612ce88660000160008973ffffffffffffffffffffffffffffffffffffffff1673ffffffffffffffffffffffffffffffffffffffff1681526020019081526020016000206005018054905086610fe0565b5b15612e1757856001018660000160008973ffffffffffffffffffffffffffffffffffffffff1673ffffffffffffffffffffffffffffffffffffffff1681526020019081526020016000206000015481548110612d4157fe5b9060005260206000200160006101000a81549073ffffffffffffffffffffffffffffffffffffffff02191690558560000160008873ffffffffffffffffffffffffffffffffffffffff1673ffffffffffffffffffffffffffffffffffffffff1681526020019081526020016000206000808201600090556001820160006101000a81549060ff0219169055600282016000612ddc9190614b61565b6003820160009055600482016000612df49190614ba9565b600582016000612e049190614ba9565b600682016000612e149190614ba9565b50505b50505050505050565b600081602001519050919050565b60606000612e3b83613878565b905060008167ffffffffffffffff81118015612e5657600080fd5b50604051908082528060200260200182016040528015612e855781602001602082028036833780820191505090505b509050600080600090505b8560010180549050811015612fa057856001018181548110612eae57fe5b9060005260206000200160009054906101000a900473ffffffffffffffffffffffffffffffffffffffff1673ffffffffffffffffffffffffffffffffffffffff16600073ffffffffffffffffffffffffffffffffffffffff1614612f9357856001018181548110612f1b57fe5b9060005260206000200160009054906101000a900473ffffffffffffffffffffffffffffffffffffffff16838381518110612f5257fe5b602002602001019073ffffffffffffffffffffffffffffffffffffffff16908173ffffffffffffffffffffffffffffffffffffffff16815250506001820191505b8080600101915050612e90565b50819350505050919050565b60008260000160008673ffffffffffffffffffffffffffffffffffffffff1673ffffffffffffffffffffffffffffffffffffffff1681526020019081526020016000206040518060e0016040529081600082015481526020016001820160009054906101000a900460ff16151515158152602001600282018054600181600116156101000203166002900480601f0160208091040260200160405190810160405280929190818152602001828054600181600116156101000203166002900480156130b85780601f1061308d576101008083540402835291602001916130b8565b820191906000526020600020905b81548152906001019060200180831161309b57829003601f168201915b50505050508152602001600382015481526020016004820180548060200260200160405190810160405280929190818152602001828054801561315057602002820191906000526020600020905b8160009054906101000a900473ffffffffffffffffffffffffffffffffffffffff1673ffffffffffffffffffffffffffffffffffffffff1681526020019060010190808311613106575b50505050508152602001600582018054806020026020016040519081016040528092919081815260200182805480156131de57602002820191906000526020600020905b8160009054906101000a900473ffffffffffffffffffffffffffffffffffffffff1673ffffffffffffffffffffffffffffffffffffffff1681526020019060010190808311613194575b505050505081526020016006820180548060200260200160405190810160405280929190818152602001828054801561326c57602002820191906000526020600020905b8160009054906101000a900473ffffffffffffffffffffffffffffffffffffffff1673ffffffffffffffffffffffffffffffffffffffff1681526020019060010190808311613222575b50505050508152505061327f828261479a565b60008460000160008873ffffffffffffffffffffffffffffffffffffffff1673ffffffffffffffffffffffffffffffffffffffff1681526020019081526020016000206040518060e0016040529081600082015481526020016001820160009054906101000a900460ff16151515158152602001600282018054600181600116156101000203166002900480601f01602080910402602001604051908101604052809291908181526020018280546001816001161561010002031660029004801561338b5780601f106133605761010080835404028352916020019161338b565b820191906000526020600020905b81548152906001019060200180831161336e57829003601f168201915b50505050508152602001600382015481526020016004820180548060200260200160405190810160405280929190818152602001828054801561342357602002820191906000526020600020905b8160009054906101000a900473ffffffffffffffffffffffffffffffffffffffff1673ffffffffffffffffffffffffffffffffffffffff16815260200190600101908083116133d9575b50505050508152602001600582018054806020026020016040519081016040528092919081815260200182805480156134b157602002820191906000526020600020905b8160009054906101000a900473ffffffffffffffffffffffffffffffffffffffff1673ffffffffffffffffffffffffffffffffffffffff1681526020019060010190808311613467575b505050505081526020016006820180548060200260200160405190810160405280929190818152602001828054801561353f57602002820191906000526020600020905b8160009054906101000a900473ffffffffffffffffffffffffffffffffffffffff1673ffffffffffffffffffffffffffffffffffffffff16815260200190600101908083116134f5575b505050505081525050613552828261484f565b8560000160008973ffffffffffffffffffffffffffffffffffffffff1673ffffffffffffffffffffffffffffffffffffffff16815260200190815260200160002060040180549050600014801561360157508560000160008973ffffffffffffffffffffffffffffffffffffffff1673ffffffffffffffffffffffffffffffffffffffff1681526020019081526020016000206002018054600181600116156101000203166002900490506000145b1561366057868660000160008a73ffffffffffffffffffffffffffffffffffffffff1673ffffffffffffffffffffffffffffffffffffffff168152602001908152602001600020600201908051906020019061365e929190614ad3565b505b8560000160008973ffffffffffffffffffffffffffffffffffffffff1673ffffffffffffffffffffffffffffffffffffffff168152602001908152602001600020600401339080600181540180825580915050600190039060005260206000200160009091909190916101000a81548173ffffffffffffffffffffffffffffffffffffffff021916908373ffffffffffffffffffffffffffffffffffffffff1602179055506137568660000160008a73ffffffffffffffffffffffffffffffffffffffff1673ffffffffffffffffffffffffffffffffffffffff1681526020019081526020016000206004018054905086610fe0565b1561386e5760018660000160008a73ffffffffffffffffffffffffffffffffffffffff1673ffffffffffffffffffffffffffffffffffffffff16815260200190815260200160002060010160006101000a81548160ff02191690831515021790555085600101805490508660000160008a73ffffffffffffffffffffffffffffffffffffffff1673ffffffffffffffffffffffffffffffffffffffff1681526020019081526020016000206000018190555085600101889080600181540180825580915050600190039060005260206000200160009091909190916101000a81548173ffffffffffffffffffffffffffffffffffffffff021916908373ffffffffffffffffffffffffffffffffffffffff1602179055505b5050505050505050565b600061390b8260010180548060200260200160405190810160405280929190818152602001828054801561390157602002820191906000526020600020905b8160009054906101000a900473ffffffffffffffffffffffffffffffffffffffff1673ffffffffffffffffffffffffffffffffffffffff16815260200190600101908083116138b7575b50505050506149e0565b9050919050565b600060018260000160008573ffffffffffffffffffffffffffffffffffffffff1673ffffffffffffffffffffffffffffffffffffffff1681526020019081526020016000206040518060e0016040529081600082015481526020016001820160009054906101000a900460ff16151515158152602001600282018054600181600116156101000203166002900480601f016020809104026020016040519081016040528092919081815260200182805460018160011615610100020316600290048015613a205780601f106139f557610100808354040283529160200191613a20565b820191906000526020600020905b815481529060010190602001808311613a0357829003601f168201915b505050505081526020016003820154815260200160048201805480602002602001604051908101604052809291908181526020018280548015613ab857602002820191906000526020600020905b8160009054906101000a900473ffffffffffffffffffffffffffffffffffffffff1673ffffffffffffffffffffffffffffffffffffffff1681526020019060010190808311613a6e575b5050505050815260200160058201805480602002602001604051908101604052809291908181526020018280548015613b4657602002820191906000526020600020905b8160009054906101000a900473ffffffffffffffffffffffffffffffffffffffff1673ffffffffffffffffffffffffffffffffffffffff1681526020019060010190808311613afc575b5050505050815260200160068201805480602002602001604051908101604052809291908181526020018280548015613bd457602002820191906000526020600020905b8160009054906101000a900473ffffffffffffffffffffffffffffffffffffffff1673ffffffffffffffffffffffffffffffffffffffff1681526020019060010190808311613b8a575b505050505081525050613be7828261479a565b8360000160008673ffffffffffffffffffffffffffffffffffffffff1673ffffffffffffffffffffffffffffffffffffffff168152602001908152602001600020600301549250505092915050565b60018260000160008673ffffffffffffffffffffffffffffffffffffffff1673ffffffffffffffffffffffffffffffffffffffff1681526020019081526020016000206040518060e0016040529081600082015481526020016001820160009054906101000a900460ff16151515158152602001600282018054600181600116156101000203166002900480601f016020809104026020016040519081016040528092919081815260200182805460018160011615610100020316600290048015613d425780601f10613d1757610100808354040283529160200191613d42565b820191906000526020600020905b815481529060010190602001808311613d2557829003601f168201915b505050505081526020016003820154815260200160048201805480602002602001604051908101604052809291908181526020018280548015613dda57602002820191906000526020600020905b8160009054906101000a900473ffffffffffffffffffffffffffffffffffffffff1673ffffffffffffffffffffffffffffffffffffffff1681526020019060010190808311613d90575b5050505050815260200160058201805480602002602001604051908101604052809291908181526020018280548015613e6857602002820191906000526020600020905b8160009054906101000a900473ffffffffffffffffffffffffffffffffffffffff1673ffffffffffffffffffffffffffffffffffffffff1681526020019060010190808311613e1e575b5050505050815260200160068201805480602002602001604051908101604052809291908181526020018280548015613ef657602002820191906000526020600020905b8160009054906101000a900473ffffffffffffffffffffffffffffffffffffffff1673ffffffffffffffffffffffffffffffffffffffff1681526020019060010190808311613eac575b505050505081525050613f09828261479a565b60018460000160008873ffffffffffffffffffffffffffffffffffffffff1673ffffffffffffffffffffffffffffffffffffffff1681526020019081526020016000206040518060e0016040529081600082015481526020016001820160009054906101000a900460ff16151515158152602001600282018054600181600116156101000203166002900480601f0160208091040260200160405190810160405280929190818152602001828054600181600116156101000203166002900480156140155780601f10613fea57610100808354040283529160200191614015565b820191906000526020600020905b815481529060010190602001808311613ff857829003601f168201915b5050505050815260200160038201548152602001600482018054806020026020016040519081016040528092919081815260200182805480156140ad57602002820191906000526020600020905b8160009054906101000a900473ffffffffffffffffffffffffffffffffffffffff1673ffffffffffffffffffffffffffffffffffffffff1681526020019060010190808311614063575b505050505081526020016005820180548060200260200160405190810160405280929190818152602001828054801561413b57602002820191906000526020600020905b8160009054906101000a900473ffffffffffffffffffffffffffffffffffffffff1673ffffffffffffffffffffffffffffffffffffffff16815260200190600101908083116140f1575b50505050508152602001600682018054806020026020016040519081016040528092919081815260200182805480156141c957602002820191906000526020600020905b8160009054906101000a900473ffffffffffffffffffffffffffffffffffffffff1673ffffffffffffffffffffffffffffffffffffffff168152602001906001019080831161417f575b5050505050815250506141dc828261484f565b8560000160008973ffffffffffffffffffffffffffffffffffffffff1673ffffffffffffffffffffffffffffffffffffffff168152602001908152602001600020600601339080600181540180825580915050600190039060005260206000200160009091909190916101000a81548173ffffffffffffffffffffffffffffffffffffffff021916908373ffffffffffffffffffffffffffffffffffffffff1602179055506142d28660000160008a73ffffffffffffffffffffffffffffffffffffffff1673ffffffffffffffffffffffffffffffffffffffff1681526020019081526020016000206006018054905086610fe0565b156143d457868660000160008a73ffffffffffffffffffffffffffffffffffffffff1673ffffffffffffffffffffffffffffffffffffffff168152602001908152602001600020600201908051906020019061432f929190614ad3565b5060018660000160008a73ffffffffffffffffffffffffffffffffffffffff1673ffffffffffffffffffffffffffffffffffffffff168152602001908152602001600020600301600082825401925050819055508560000160008973ffffffffffffffffffffffffffffffffffffffff1673ffffffffffffffffffffffffffffffffffffffff16815260200190815260200160002060060160006143d39190614ba9565b5b5050505050505050565b606060018260000160008573ffffffffffffffffffffffffffffffffffffffff1673ffffffffffffffffffffffffffffffffffffffff1681526020019081526020016000206040518060e0016040529081600082015481526020016001820160009054906101000a900460ff16151515158152602001600282018054600181600116156101000203166002900480601f0160208091040260200160405190810160405280929190818152602001828054600181600116156101000203166002900480156144ec5780601f106144c1576101008083540402835291602001916144ec565b820191906000526020600020905b8154815290600101906020018083116144cf57829003601f168201915b50505050508152602001600382015481526020016004820180548060200260200160405190810160405280929190818152602001828054801561458457602002820191906000526020600020905b8160009054906101000a900473ffffffffffffffffffffffffffffffffffffffff1673ffffffffffffffffffffffffffffffffffffffff168152602001906001019080831161453a575b505050505081526020016005820180548060200260200160405190810160405280929190818152602001828054801561461257602002820191906000526020600020905b8160009054906101000a900473ffffffffffffffffffffffffffffffffffffffff1673ffffffffffffffffffffffffffffffffffffffff16815260200190600101908083116145c8575b50505050508152602001600682018054806020026020016040519081016040528092919081815260200182805480156146a057602002820191906000526020600020905b8160009054906101000a900473ffffffffffffffffffffffffffffffffffffffff1673ffffffffffffffffffffffffffffffffffffffff1681526020019060010190808311614656575b5050505050815250506146b3828261479a565b8360000160008673ffffffffffffffffffffffffffffffffffffffff1673ffffffffffffffffffffffffffffffffffffffff1681526020019081526020016000206002018054600181600116156101000203166002900480601f01602080910402602001604051908101604052809291908181526020018280546001816001161561010002031660029004801561478b5780601f106147605761010080835404028352916020019161478b565b820191906000526020600020905b81548152906001019060200180831161476e57829003601f168201915b50505050509250505092915050565b8115156000151514156147fb576147b081612e20565b151560001515146147f6576040517f08c379a00000000000000000000000000000000000000000000000000000000081526004016147ed90615386565b60405180910390fd5b61484b565b61480481612e20565b1515600115151461484a576040517f08c379a000000000000000000000000000000000000000000000000000000000815260040161484190615366565b60405180910390fd5b5b5050565b60006040518060400160405280601781526020017f4f776e65722068617320616c726561647920766f746564000000000000000000815250905082600281111561489557fe5b600160028111156148a257fe5b1415614905576148b6338360c00151614a58565b1515600015151481906148ff576040517f08c379a00000000000000000000000000000000000000000000000000000000081526004016148f69190615344565b60405180910390fd5b506149db565b82600281111561491157fe5b6000600281111561491e57fe5b141561498157614932338360800151614a58565b15156000151514819061497b576040517f08c379a00000000000000000000000000000000000000000000000000000000081526004016149729190615344565b60405180910390fd5b506149da565b61498f338360a00151614a58565b1515600015151481906149d8576040517f08c379a00000000000000000000000000000000000000000000000000000000081526004016149cf9190615344565b60405180910390fd5b505b5b505050565b6000806000905060005b8351811015614a4e578381815181106149ff57fe5b602002602001015173ffffffffffffffffffffffffffffffffffffffff16600073ffffffffffffffffffffffffffffffffffffffff1614614a41576001820191505b80806001019150506149ea565b5080915050919050565b600080600090505b8251811015614ac757828181518110614a7557fe5b602002602001015173ffffffffffffffffffffffffffffffffffffffff168473ffffffffffffffffffffffffffffffffffffffff161415614aba576001915050614acd565b8080600101915050614a60565b50600090505b92915050565b828054600181600116156101000203166002900490600052602060002090601f016020900481019282614b095760008555614b50565b82601f10614b2257805160ff1916838001178555614b50565b82800160010185558215614b50579182015b82811115614b4f578251825591602001919060010190614b34565b5b509050614b5d9190614bca565b5090565b50805460018160011615610100020316600290046000825580601f10614b875750614ba6565b601f016020900490600052602060002090810190614ba59190614bca565b5b50565b5080546000825590600052602060002090810190614bc79190614bca565b50565b5b80821115614be3576000816000905550600101614bcb565b5090565b6000614bfa614bf5846153f2565b6153c1565b905082815260208101848484011115614c1257600080fd5b614c1d84828561555d565b509392505050565b6000614c38614c3384615422565b6153c1565b905082815260208101848484011115614c5057600080fd5b614c5b84828561555d565b509392505050565b600081359050614c72816155c6565b92915050565b600081359050614c87816155dd565b92915050565b600082601f830112614c9e57600080fd5b8135614cae848260208601614be7565b91505092915050565b600082601f830112614cc857600080fd5b8135614cd8848260208601614c25565b91505092915050565b600081359050614cf0816155f4565b92915050565b600060208284031215614d0857600080fd5b6000614d1684828501614c63565b91505092915050565b60008060008060808587031215614d3557600080fd5b6000614d4387828801614c63565b945050602085013567ffffffffffffffff811115614d6057600080fd5b614d6c87828801614c8d565b9350506040614d7d87828801614c63565b9250506060614d8e87828801614c78565b91505092959194509250565b60008060408385031215614dad57600080fd5b6000614dbb85828601614c63565b925050602083013567ffffffffffffffff811115614dd857600080fd5b614de485828601614cb7565b9150509250929050565b60008060008060808587031215614e0457600080fd5b6000614e1287828801614c63565b9450506020614e2387828801614ce1565b9350506040614e3487828801614c63565b9250506060614e4587828801614c78565b91505092959194509250565b600080600080600060a08688031215614e6957600080fd5b6000614e7788828901614c63565b9550506020614e8888828901614ce1565b9450506040614e9988828901614c63565b935050606086013567ffffffffffffffff811115614eb657600080fd5b614ec288828901614c8d565b9250506080614ed388828901614c78565b9150509295509295909350565b6000614eec8383614f10565b60208301905092915050565b6000614f048383614f2e565b60208301905092915050565b614f19816154f0565b82525050565b614f28816154f0565b82525050565b614f37816154f0565b82525050565b6000614f4882615462565b614f528185615490565b9350614f5d83615452565b8060005b83811015614f8e578151614f758882614ee0565b9750614f8083615483565b925050600181019050614f61565b5085935050505092915050565b6000614fa682615462565b614fb081856154a1565b9350614fbb83615452565b8060005b83811015614fec578151614fd38882614ef8565b9750614fde83615483565b925050600181019050614fbf565b5085935050505092915050565b61500281615502565b82525050565b61501181615502565b82525050565b61502081615502565b82525050565b60006150318261546d565b61503b81856154b2565b935061504b81856020860161556c565b615054816155a1565b840191505092915050565b600061506a8261546d565b61507481856154c3565b935061508481856020860161556c565b61508d816155a1565b840191505092915050565b60006150a38261546d565b6150ad81856154d4565b93506150bd81856020860161556c565b80840191505092915050565b6150d28161554b565b82525050565b60006150e382615478565b6150ed81856154df565b93506150fd81856020860161556c565b615106816155a1565b840191505092915050565b600061511e6018836154df565b91507f456e74697479206d7573742062652061637469766174656400000000000000006000830152602082019050919050565b600061515e6018836154df565b91507f456e7469747920616c72656164792061637469766174656400000000000000006000830152602082019050919050565b600060e0830160008301516151a96000860182615251565b5060208301516151bc6020860182615017565b50604083015184820360408601526151d4828261505f565b91505060608301516151e96060860182615251565b50608083015184820360808601526152018282614f9b565b91505060a083015184820360a086015261521b8282614f9b565b91505060c083015184820360c08601526152358282614f9b565b9150508091505092915050565b61524b81615541565b82525050565b61525a81615541565b82525050565b600061526c8284615098565b915081905092915050565b600060208201905081810360008301526152918184614f3d565b905092915050565b60006020820190506152ae6000830184614ff9565b92915050565b60006040820190506152c96000830185615008565b81810360208301526152db8184615191565b90509392505050565b600060408201905081810360008301526152fe8185615026565b905061530d6020830184614f1f565b9392505050565b600060408201905061532960008301856150c9565b818103602083015261533b8184615191565b90509392505050565b6000602082019050818103600083015261535e81846150d8565b905092915050565b6000602082019050818103600083015261537f81615111565b9050919050565b6000602082019050818103600083015261539f81615151565b9050919050565b60006020820190506153bb6000830184615242565b92915050565b6000604051905081810181811067ffffffffffffffff821117156153e8576153e761559f565b5b8060405250919050565b600067ffffffffffffffff82111561540d5761540c61559f565b5b601f19601f8301169050602081019050919050565b600067ffffffffffffffff82111561543d5761543c61559f565b5b601f19601f8301169050602081019050919050565b6000819050602082019050919050565b600081519050919050565b600081519050919050565b600081519050919050565b6000602082019050919050565b600082825260208201905092915050565b600082825260208201905092915050565b600082825260208201905092915050565b600082825260208201905092915050565b600081905092915050565b600082825260208201905092915050565b60006154fb82615521565b9050919050565b60008115159050919050565b600081905061551c826155b2565b919050565b600073ffffffffffffffffffffffffffffffffffffffff82169050919050565b6000819050919050565b60006155568261550e565b9050919050565b82818337600083830152505050565b60005b8381101561558a57808201518184015260208101905061556f565b83811115615599576000848401525b50505050565bfe5b6000601f19601f8301169050919050565b600381106155c3576155c261559f565b5b50565b6155cf816154f0565b81146155da57600080fd5b50565b6155e681615502565b81146155f157600080fd5b50565b6155fd81615541565b811461560857600080fd5b5056fe4f6e6c79204f776e6572732061726520616c6c6f77656420746f20706572666f726d207468697320616374696f6ea2646970667358221220c947270fb0887911afc1b904d166045e77fa97289b329c80cf3c2874aea98e8864736f6c634300070600334e6f7420656e6f756768206f776e6572732070726f766964656420746f206d65657420746865206d696e4f776e65727320726571756972656d656e74",
  "immutableReferences": {},
  "source": "// SPDX-License-Identifier: GPL-3.0\r\n\r\npragma solidity >=0.7.0 <0.9.0;\r\npragma experimental ABIEncoderV2;\r\n\r\n/**\r\n * @title Storage\r\n * @dev Store & retrieve value in a variable\r\n */\r\n import \"./Library.sol\";\r\n import \"./IProvider.sol\";\r\n import \"./MultiSigContract.sol\";\r\n import \"./PrivateCertificatesPool.sol\";\r\n import \"./PublicCertificatesPool.sol\";\r\n\r\n\r\n contract MultiSigProvider is IProvider, MultiSigContract {\r\n     using Library for *;\r\n\r\n     uint256 constant TotalEntities = 2;\r\n\r\n    // Owners\r\n    uint256 constant _ownerIdProviders = 0;\r\n    string constant _ownerLabel = \"Owner\";\r\n\r\n    // Pools\r\n    uint256 constant _poolId = 1;\r\n    string constant _poolLabel = \"Pool\";\r\n\r\n    string[] _Label = [_ownerLabel, _poolLabel];\r\n    \r\n    struct _CertificateStruct{\r\n        mapping(bytes => Library._entityIdentity) _cert;\r\n    }\r\n    \r\n    struct _CertificatesPerHolderStruct{\r\n        mapping(address => _CertificateStruct) _CertificatesPerHolder;\r\n    }\r\n   \r\n    mapping(address => _CertificatesPerHolderStruct) _CertificatesPerPool;\r\n\r\n    // modifiers\r\n    modifier isAPool(address pool){\r\n        require(true == isPool(pool));\r\n        _;\r\n    }\r\n    \r\n    modifier isEntityActivated(bool YesOrNo, Library._entityIdentity memory Entity){\r\n        Library.EntityActivated(YesOrNo, Entity);\r\n        _;\r\n    }\r\n    \r\n    modifier HasNotAlreadyVoted(Library.Actions action, Library._entityIdentity memory Entity){\r\n        Library.NotAlreadyVoted(action, Entity);\r\n        _;\r\n    }\r\n\r\n     // Constructor\r\n    constructor(address[] memory owners,  uint256 minOwners) \r\n        MultiSigContract(owners, minOwners, TotalEntities, _Label, _ownerIdProviders)\r\n    payable\r\n    {}\r\n\r\n    // POOL CRUD Operations\r\n    function addPool(address pool, string memory poolInfo) external override{\r\n        addEntity(pool, bytes(poolInfo), _poolId);\r\n    }\r\n\r\n    function removePool(address pool) external override{\r\n       removeEntity(pool, _poolId); \r\n    }\r\n    \r\n    function updatePool(address pool, string memory poolInfo) external override{\r\n       updateEntity(pool, bytes(poolInfo), _poolId);\r\n    }\r\n    \r\n    function retrievePool(address pool) external override view returns (string memory){\r\n        return string(retrieveEntity(pool, _poolId));\r\n    }\r\n\r\n    function retrieveAllPools() external override view returns (address[] memory){\r\n        return(retrieveAllEntities(_poolId));\r\n    }\r\n    \r\n    function retrieveTotalPools() external override view returns (uint){\r\n        return (retrieveTotalEntities(_poolId));\r\n    }\r\n\r\n    function isPool(address pool) public view returns (bool){\r\n        return(isEntity(pool, _poolId));\r\n    }\r\n    \r\n    // Certificates management\r\n     function addCertificate(address pool, bytes memory CertificateHash, address holder, bool poolPrivate) external\r\n        isAPool(pool)\r\n        isAnOwner\r\n        isEntityActivated(false,  _CertificatesPerPool[pool]._CertificatesPerHolder[holder]._cert[CertificateHash])\r\n        HasNotAlreadyVoted(Library.Actions.Add, _CertificatesPerPool[pool]._CertificatesPerHolder[holder]._cert[CertificateHash])\r\n     override\r\n     {\r\n        if(0 == _CertificatesPerPool[pool]._CertificatesPerHolder[holder]._cert[CertificateHash]._AddValidated.length) _CertificatesPerPool[pool]._CertificatesPerHolder[holder]._cert[CertificateHash]._Info = CertificateHash;\r\n\r\n        _CertificatesPerPool[pool]._CertificatesPerHolder[holder]._cert[CertificateHash]._AddValidated.push(msg.sender);\r\n\r\n        if(Library.CheckValidations(_CertificatesPerPool[pool]._CertificatesPerHolder[holder]._cert[CertificateHash]._AddValidated.length, _minOwners)){\r\n            MultiSigCertificatesPool poolToSend;\r\n            if(true == poolPrivate){\r\n                poolToSend = PrivateCertificatesPool(pool);\r\n            }\r\n            else {\r\n                poolToSend = PublicCertificatesPool(pool);\r\n            }\r\n            \r\n            \r\n            poolToSend.addCertificate(CertificateHash, holder);\r\n        }\r\n     }\r\n     \r\n     function removeCertificate(address pool, uint256 CertificateId, address holder, bool poolPrivate) external override{}\r\n     \r\n     function updateCertificate(address pool, uint256 CertificateId, address holder, bytes memory CertificateHash, bool poolPrivate) external override{}\r\n\r\n    \r\n }",
  "sourcePath": "C:/Users/d-aam/GitHub/Certificates/contracts/MultiSigProvider.sol",
  "compiler": {
    "name": "solc",
    "version": "0.7.6+commit.7338295f.Emscripten.clang"
  },
  "schemaVersion": "3.3.4",
  "updatedAt": "2021-05-14T13:19:11.247Z",
  "devdoc": {
    "kind": "dev",
    "methods": {},
    "version": 1
  },
  "userdoc": {
    "kind": "user",
    "methods": {},
    "version": 1
  }
}