{
  "contractName": "PriceConverter",
  "abi": [
    {
      "anonymous": false,
      "inputs": [
        {
          "indexed": false,
          "internalType": "uint256",
          "name": "Id",
          "type": "uint256"
        },
        {
          "indexed": true,
          "internalType": "address",
          "name": "Proposer",
          "type": "address"
        },
        {
          "indexed": false,
          "internalType": "uint256",
          "name": "Deadline",
          "type": "uint256"
        },
        {
          "indexed": false,
          "internalType": "uint256",
          "name": "Threshold",
          "type": "uint256"
        }
      ],
      "name": "_AddedProposition",
      "type": "event"
    },
    {
      "anonymous": false,
      "inputs": [
        {
          "indexed": false,
          "internalType": "uint256",
          "name": "Id",
          "type": "uint256"
        },
        {
          "indexed": true,
          "internalType": "address",
          "name": "Proposer",
          "type": "address"
        }
      ],
      "name": "_CancelledProposition",
      "type": "event"
    },
    {
      "anonymous": false,
      "inputs": [
        {
          "indexed": false,
          "internalType": "address",
          "name": "Registry",
          "type": "address"
        }
      ],
      "name": "_NewRegistryAddress",
      "type": "event"
    },
    {
      "anonymous": false,
      "inputs": [
        {
          "indexed": false,
          "internalType": "uint256",
          "name": "Id",
          "type": "uint256"
        },
        {
          "indexed": true,
          "internalType": "address",
          "name": "Proposer",
          "type": "address"
        },
        {
          "indexed": false,
          "internalType": "uint256",
          "name": "VotesFor",
          "type": "uint256"
        },
        {
          "indexed": false,
          "internalType": "uint256",
          "name": "VotesAgainst",
          "type": "uint256"
        }
      ],
      "name": "_PropositionApproved",
      "type": "event"
    },
    {
      "anonymous": false,
      "inputs": [
        {
          "indexed": false,
          "internalType": "uint256",
          "name": "Id",
          "type": "uint256"
        },
        {
          "indexed": true,
          "internalType": "address",
          "name": "Proposer",
          "type": "address"
        },
        {
          "indexed": false,
          "internalType": "uint256",
          "name": "VotesFor",
          "type": "uint256"
        },
        {
          "indexed": false,
          "internalType": "uint256",
          "name": "VotesAgainst",
          "type": "uint256"
        }
      ],
      "name": "_PropositionRejected",
      "type": "event"
    },
    {
      "anonymous": false,
      "inputs": [
        {
          "indexed": false,
          "internalType": "uint256",
          "name": "Id",
          "type": "uint256"
        },
        {
          "indexed": true,
          "internalType": "address",
          "name": "Voter",
          "type": "address"
        },
        {
          "indexed": false,
          "internalType": "bool",
          "name": "Vote",
          "type": "bool"
        },
        {
          "indexed": false,
          "internalType": "uint256",
          "name": "AmountTokens",
          "type": "uint256"
        }
      ],
      "name": "_PropositionVote",
      "type": "event"
    },
    {
      "anonymous": false,
      "inputs": [
        {
          "indexed": true,
          "internalType": "uint256",
          "name": "Id",
          "type": "uint256"
        },
        {
          "indexed": false,
          "internalType": "address",
          "name": "From",
          "type": "address"
        },
        {
          "indexed": false,
          "internalType": "address",
          "name": "To",
          "type": "address"
        },
        {
          "indexed": false,
          "internalType": "uint256",
          "name": "Amount",
          "type": "uint256"
        }
      ],
      "name": "_UsedTokensTransfered",
      "type": "event"
    },
    {
      "inputs": [
        {
          "internalType": "address",
          "name": "chairPerson",
          "type": "address"
        },
        {
          "internalType": "address",
          "name": "managerContractAddress",
          "type": "address"
        },
        {
          "internalType": "string",
          "name": "contractName",
          "type": "string"
        },
        {
          "internalType": "string",
          "name": "contractVersion",
          "type": "string"
        }
      ],
      "name": "ExternalRegistryBaseContract_init",
      "outputs": [],
      "stateMutability": "nonpayable",
      "type": "function"
    },
    {
      "inputs": [],
      "name": "cancelProposition",
      "outputs": [],
      "stateMutability": "nonpayable",
      "type": "function"
    },
    {
      "inputs": [
        {
          "internalType": "address",
          "name": "from",
          "type": "address"
        },
        {
          "internalType": "address",
          "name": "to",
          "type": "address"
        },
        {
          "internalType": "uint256",
          "name": "amount",
          "type": "uint256"
        }
      ],
      "name": "onTokenBalanceChanged",
      "outputs": [],
      "stateMutability": "nonpayable",
      "type": "function"
    },
    {
      "inputs": [],
      "name": "retrieveChairPerson",
      "outputs": [
        {
          "internalType": "address",
          "name": "",
          "type": "address"
        }
      ],
      "stateMutability": "view",
      "type": "function"
    },
    {
      "inputs": [],
      "name": "retrieveContractConfig",
      "outputs": [
        {
          "internalType": "string",
          "name": "",
          "type": "string"
        },
        {
          "internalType": "string",
          "name": "",
          "type": "string"
        }
      ],
      "stateMutability": "view",
      "type": "function"
    },
    {
      "inputs": [],
      "name": "retrieveManagerContract",
      "outputs": [
        {
          "internalType": "address",
          "name": "",
          "type": "address"
        }
      ],
      "stateMutability": "view",
      "type": "function"
    },
    {
      "inputs": [],
      "name": "retrieveNextPropId",
      "outputs": [
        {
          "internalType": "uint256",
          "name": "",
          "type": "uint256"
        }
      ],
      "stateMutability": "view",
      "type": "function"
    },
    {
      "inputs": [
        {
          "internalType": "address",
          "name": "addr",
          "type": "address"
        },
        {
          "internalType": "uint256",
          "name": "nonce",
          "type": "uint256"
        }
      ],
      "name": "retrieveNonce",
      "outputs": [
        {
          "internalType": "bool",
          "name": "",
          "type": "bool"
        }
      ],
      "stateMutability": "view",
      "type": "function"
    },
    {
      "inputs": [],
      "name": "retrieveProposition",
      "outputs": [
        {
          "internalType": "bytes32[]",
          "name": "",
          "type": "bytes32[]"
        }
      ],
      "stateMutability": "view",
      "type": "function"
    },
    {
      "inputs": [],
      "name": "retrievePropositionStatus",
      "outputs": [
        {
          "internalType": "address",
          "name": "",
          "type": "address"
        },
        {
          "internalType": "uint256",
          "name": "",
          "type": "uint256"
        },
        {
          "internalType": "uint256",
          "name": "",
          "type": "uint256"
        },
        {
          "internalType": "uint256",
          "name": "",
          "type": "uint256"
        },
        {
          "internalType": "uint256",
          "name": "",
          "type": "uint256"
        }
      ],
      "stateMutability": "view",
      "type": "function"
    },
    {
      "inputs": [
        {
          "internalType": "uint256",
          "name": "PropId",
          "type": "uint256"
        },
        {
          "internalType": "address",
          "name": "voter",
          "type": "address"
        }
      ],
      "name": "retrieveVotesForVoter",
      "outputs": [
        {
          "internalType": "uint256",
          "name": "",
          "type": "uint256"
        }
      ],
      "stateMutability": "view",
      "type": "function"
    },
    {
      "inputs": [
        {
          "internalType": "address",
          "name": "NewRegistryAddress",
          "type": "address"
        }
      ],
      "name": "updateRegistryAddress",
      "outputs": [],
      "stateMutability": "nonpayable",
      "type": "function"
    },
    {
      "inputs": [
        {
          "internalType": "bool",
          "name": "vote",
          "type": "bool"
        }
      ],
      "name": "voteProposition",
      "outputs": [],
      "stateMutability": "nonpayable",
      "type": "function"
    },
    {
      "inputs": [
        {
          "internalType": "address",
          "name": "voter",
          "type": "address"
        },
        {
          "internalType": "uint256",
          "name": "propID",
          "type": "uint256"
        },
        {
          "internalType": "bool",
          "name": "vote",
          "type": "bool"
        },
        {
          "internalType": "uint256",
          "name": "nonce",
          "type": "uint256"
        },
        {
          "internalType": "uint256",
          "name": "deadline",
          "type": "uint256"
        },
        {
          "internalType": "bytes",
          "name": "signature",
          "type": "bytes"
        }
      ],
      "name": "votePropositionOnBehalfOf",
      "outputs": [],
      "stateMutability": "nonpayable",
      "type": "function"
    },
    {
      "inputs": [
        {
          "internalType": "address",
          "name": "registry",
          "type": "address"
        },
        {
          "internalType": "address",
          "name": "managerContractAddress",
          "type": "address"
        },
        {
          "internalType": "address",
          "name": "chairPerson",
          "type": "address"
        },
        {
          "internalType": "string",
          "name": "contractName",
          "type": "string"
        },
        {
          "internalType": "string",
          "name": "contractVersion",
          "type": "string"
        }
      ],
      "name": "PriceConverter_init",
      "outputs": [],
      "stateMutability": "nonpayable",
      "type": "function"
    },
    {
      "inputs": [],
      "name": "retrieveRegistryAddress",
      "outputs": [
        {
          "internalType": "address",
          "name": "",
          "type": "address"
        }
      ],
      "stateMutability": "view",
      "type": "function"
    },
    {
      "inputs": [
        {
          "internalType": "uint256",
          "name": "_USDamount",
          "type": "uint256"
        }
      ],
      "name": "fromUSDToETH",
      "outputs": [
        {
          "internalType": "uint256",
          "name": "",
          "type": "uint256"
        }
      ],
      "stateMutability": "view",
      "type": "function"
    }
  ],
  "bytecode": "0x608060405234801561001057600080fd5b506121da806100206000396000f3fe608060405234801561001057600080fd5b50600436106100db5760003560e01c806304cc67a9146100e05780631e7feef1146100f75780633c7df55d1461010c5780633feca4ca1461011f5780634044adb21461014257806355457ee9146101785780635b362e8414610180578063612032a6146101a05780637faa3d6f146101b3578063840f6d17146101c65780638d12420b1461020757806391f916711461021a578063a93316f51461022d578063c57a882514610242578063d2116a0214610255578063db85bc4d1461026b578063e1f5f8581461027c575b600080fd5b600b545b6040519081526020015b60405180910390f35b61010a6101053660046119fa565b61028d565b005b61010a61011a366004611a82565b610312565b61013261012d366004611ac3565b610412565b60405190151581526020016100ee565b6100e4610150366004611bec565b6000918252600c602090815260408084206001600160a01b0393909316845291905290205490565b61010a610440565b6003546201000090046001600160a01b03165b6040516100ee9190611db0565b61010a6101ae36600461195f565b610512565b61010a6101c1366004611aef565b6105aa565b600654600754600854600954600a54604080516001600160a01b0390961686526020860194909452928401919091526060830152608082015260a0016100ee565b6100e4610215366004611bd3565b6105c2565b61010a610228366004611b80565b61079a565b6102356107a7565b6040516100ee9190611e51565b61010a610250366004611925565b610882565b61025d6108ac565b6040516100ee929190611e95565b6004546001600160a01b0316610193565b600e546001600160a01b0316610193565b600354610100900460ff16806102a6575060035460ff16155b6102cb5760405162461bcd60e51b81526004016102c290611ec3565b60405180910390fd5b600354610100900460ff161580156102ed576003805461ffff19166101011790555b6102f9858585856109d3565b801561030b576003805461ff00191690555b5050505050565b3373__Library_______________________________6337ea306382600360029054906101000a90046001600160a01b03166001600160a01b031663da3dce266040518163ffffffff1660e01b815260040160206040518083038186803b15801561037c57600080fd5b505afa158015610390573d6000803e3d6000fd5b505050506040513d601f19601f820116820180604052508101906103b49190611942565b6040518363ffffffff1660e01b81526004016103d1929190611dc4565b60006040518083038186803b1580156103e957600080fd5b505af41580156103fd573d6000803e3d6000fd5b5050505061040c848484610a5d565b50505050565b6001600160a01b038216600090815260026020908152604080832084845290915290205460ff165b92915050565b600161044b81610a7f565b6006546040516337ea306360e01b8152339173__Library_______________________________916337ea3063916104919185916001600160a01b031690600401611dc4565b60006040518083038186803b1580156104a957600080fd5b505af41580156104bd573d6000803e3d6000fd5b505050506104c9610b03565b6006546005546040519081526001600160a01b03909116907f1fe8aec10c0a50fa765076161e08c1f961ced69594ff45cf7d559f593afe14799060200160405180910390a25050565b600354610100900460ff168061052b575060035460ff16155b6105475760405162461bcd60e51b81526004016102c290611ec3565b600354610100900460ff16158015610569576003805461ffff19166101011790555b6105758486858561028d565b600e80546001600160a01b0319166001600160a01b03881617905580156105a2576003805461ff00191690555b505050505050565b6105b8868686868686610b2e565b6105a28685610c8d565b600e54604051630b1c5a7560e31b815260009182916001600160a01b03909116906358e2d3a89061060f9073eeeeeeeeeeeeeeeeeeeeeeeeeeeeeeeeeeeeeeee9061034890600401611dc4565b60206040518083038186803b15801561062757600080fd5b505afa15801561063b573d6000803e3d6000fd5b505050506040513d601f19601f8201168201806040525081019061065f9190611ca8565b600e5460405163bcfd032d60e01b81529192506000916001600160a01b039091169063bcfd032d906106ad9073eeeeeeeeeeeeeeeeeeeeeeeeeeeeeeeeeeeeeeee9061034890600401611dc4565b60a06040518083038186803b1580156106c557600080fd5b505afa1580156106d9573d6000803e3d6000fd5b505050506040513d601f19601f820116820180604052508101906106fd9190611c58565b5050509150506000818560026012866107169190611f3f565b610720919061209c565b61072b90600a611fbb565b6107359190612066565b61073f9190611f64565b9050600082866002610752601288611f3f565b61075c919061209c565b61076790600a611fbb565b6107719190612066565b61077b9190612115565b905080156107915761078e600183611f27565b91505b50949350505050565b6107a43382610c8d565b50565b60408051600180825281830190925260609160009190602080830190803683375050600d5460405163bc215e8560e01b815292935073__AddressLibrary________________________9263bc215e85925061080f916001600160a01b031690600401611db0565b60206040518083038186803b15801561082757600080fd5b505af415801561083b573d6000803e3d6000fd5b505050506040513d601f19601f8201168201806040525081019061085f9190611bba565b8160008151811061087257610872612155565b6020908102919091010152919050565b61088a610da4565b600d80546001600160a01b0319166001600160a01b0392909216919091179055565b606080600060018180546108bf906120bf565b80601f01602080910402602001604051908101604052809291908181526020018280546108eb906120bf565b80156109385780601f1061090d57610100808354040283529160200191610938565b820191906000526020600020905b81548152906001019060200180831161091b57829003601f168201915b5050505050915080805461094b906120bf565b80601f0160208091040260200160405190810160405280929190818152602001828054610977906120bf565b80156109c45780601f10610999576101008083540402835291602001916109c4565b820191906000526020600020905b8154815290600101906020018083116109a757829003601f168201915b50505050509050915091509091565b600354610100900460ff16806109ec575060035460ff16155b610a085760405162461bcd60e51b81526004016102c290611ec3565b600354610100900460ff16158015610a2a576003805461ffff19166101011790555b610a33846110f8565b600480546001600160a01b0319166001600160a01b0387161790556000600b556102f98383611187565b610a656111ae565b151560011415610a7a57610a7a8383836111e8565b505050565b8015610ac657610a8d6111ae565b15156001146107a45760405162461bcd60e51b8152602060048201526005602482015264454332352d60d81b60448201526064016102c2565b610ace6111ae565b156107a45760405162461bcd60e51b8152602060048201526005602482015264454332342d60d81b60448201526064016102c2565b60006005819055600680546001600160a01b0319169055600781905560088190556009819055600a55565b81610b3881611358565b8684610b44828261138f565b6005548814610b7d5760405162461bcd60e51b8152602060048201526005602482015264454333352d60d81b60448201526064016102c2565b60405163432f9a5560e01b815273__SignatureLibrary______________________9063432f9a5590610bc4908c908c908c908c908c908c90600090600190600401611dde565b60206040518083038186803b158015610bdc57600080fd5b505af4158015610bf0573d6000803e3d6000fd5b505050506040513d601f19601f82011682018060405250810190610c149190611b9d565b1515600114610c4d5760405162461bcd60e51b8152602060048201526005602482015264454333322d60d81b60448201526064016102c2565b610c8289876001600160a01b03909116600090815260026020908152604080832093835292905220805460ff19166001179055565b505050505050505050565b6001610c9881610a7f565b60055483906000610ca983836113eb565b905060008111610ce35760405162461bcd60e51b8152602060048201526005602482015264454332332d60d81b60448201526064016102c2565b6000610cf4876005600001546113eb565b90508515610d1c578060056004016000828254610d119190611f27565b90915550610d369050565b80600580016000828254610d309190611f27565b90915550505b600554610d44908883611428565b60055460408051918252871515602083015281018290526001600160a01b038816907f50f654d58981575c05e369cb129aeacb01e1b036af429380242cfc5d1a4b743f9060600160405180910390a2610d9b611464565b50505050505050565b6000610daf81610a7f565b60045433906000906001600160a01b0316821415610dcf57506001610f08565b6000610dda8361153a565b90506000600360029054906101000a90046001600160a01b03166001600160a01b03166387552a0d6040518163ffffffff1660e01b815260040160206040518083038186803b158015610e2c57600080fd5b505afa158015610e40573d6000803e3d6000fd5b505050506040513d601f19601f82011682018060405250810190610e649190611942565b6001600160a01b031663b049473f6040518163ffffffff1660e01b815260040160606040518083038186803b158015610e9c57600080fd5b505afa158015610eb0573d6000803e3d6000fd5b505050506040513d601f19601f82011682018060405250810190610ed49190611c1c565b925050506064610ee261163d565b610eef9060ff8416612066565b610ef99190611f64565b821115610f0557600192505b50505b600181151514610f425760405162461bcd60e51b8152602060048201526005602482015264454332322d60d81b60448201526064016102c2565b600080600360029054906101000a90046001600160a01b03166001600160a01b03166387552a0d6040518163ffffffff1660e01b815260040160206040518083038186803b158015610f9357600080fd5b505afa158015610fa7573d6000803e3d6000fd5b505050506040513d601f19601f82011682018060405250810190610fcb9190611942565b6001600160a01b031663b049473f6040518163ffffffff1660e01b815260040160606040518083038186803b15801561100357600080fd5b505afa158015611017573d6000803e3d6000fd5b505050506040513d601f19601f8201168201806040525081019061103b9190611c1c565b50600680546001600160a01b03191633179055909250905061105d8242611f27565b600755606460ff821661106e61163d565b6110789190612066565b6110829190611f64565b600855600b8054600581905590600061109a836120fa565b90915550506006546005546007546008546040516001600160a01b03909416937f472501d19bf75639b2e316cd36f8568b0c3ab943b82a87de3c086c98c1929df9936110e99390929091611f11565b60405180910390a25050505050565b600354610100900460ff1680611111575060035460ff16155b61112d5760405162461bcd60e51b81526004016102c290611ec3565b600354610100900460ff1615801561114f576003805461ffff19166101011790555b6003805462010000600160b01b031916620100006001600160a01b038516021790558015611183576003805461ff00191690555b5050565b815161119a9060009060208501906117ca565b508051610a7a9060019060208401906117ca565b6007546000904210156111c15750600190565b6006546001600160a01b0316156111e2576111da61173a565b6111e2610b03565b50600090565b6001600160a01b0383161580159061122457506005546000908152600c602090815260408083206001600160a01b038716845290915290205415155b15610a7a576005546000908152600c602090815260408083206001600160a01b0387168452909152902054819081111561128057506005546000908152600c602090815260408083206001600160a01b03871684529091529020545b6005546000908152600c602090815260408083206001600160a01b0388168452909152812080548392906112b5908490612085565b90915550506001600160a01b03831615611304576005546000908152600c602090815260408083206001600160a01b0387168452909152812080548392906112fe908490611f27565b90915550505b600554604080516001600160a01b038088168252861660208201529081018390527f65fbd5e5dd32bea4aeca85bd0be0abf0e489d655dee888a7510d43b06dda2dba9060600160405180910390a250505050565b8042106107a45760405162461bcd60e51b8152602060048201526005602482015264454333332d60d81b60448201526064016102c2565b6001600160a01b038216600090815260026020908152604080832084845290915290205460ff16156111835760405162461bcd60e51b8152602060048201526005602482015264454333342d60d81b60448201526064016102c2565b6000818152600c602090815260408083206001600160a01b03861684529091528120546114178461153a565b6114219190612085565b9392505050565b6000838152600c602090815260408083206001600160a01b03861684529091528120805483929061145a908490611f27565b9091555050505050565b600854600954106114d357611477611742565b61147f610b03565b600654600554600954600a546040516001600160a01b03909416937f23ca0034cf5aad32571b4a492e9598ea8a490e1643a60970e3cdc6933b55e49f936114c99390929091611f11565b60405180910390a2565b600854600a5410611538576114e661173a565b6114ee610b03565b600654600554600954600a546040516001600160a01b03909416937fa58eb6daa3c62c3f883973c4035e5bd3e81aa627c8379de068a7de42df122be2936114c99390929091611f11565b565b6000600360029054906101000a90046001600160a01b03166001600160a01b031663da3dce266040518163ffffffff1660e01b815260040160206040518083038186803b15801561158a57600080fd5b505afa15801561159e573d6000803e3d6000fd5b505050506040513d601f19601f820116820180604052508101906115c29190611942565b6001600160a01b03166370a08231836040518263ffffffff1660e01b81526004016115ed9190611db0565b60206040518083038186803b15801561160557600080fd5b505afa158015611619573d6000803e3d6000fd5b505050506040513d601f19601f8201168201806040525081019061043a9190611bba565b6000600360029054906101000a90046001600160a01b03166001600160a01b031663da3dce266040518163ffffffff1660e01b815260040160206040518083038186803b15801561168d57600080fd5b505afa1580156116a1573d6000803e3d6000fd5b505050506040513d601f19601f820116820180604052508101906116c59190611942565b6001600160a01b03166318160ddd6040518163ffffffff1660e01b815260040160206040518083038186803b1580156116fd57600080fd5b505afa158015611711573d6000803e3d6000fd5b505050506040513d601f19601f820116820180604052508101906117359190611bba565b905090565b6115386117b8565b611769600d54600e80546001600160a01b0319166001600160a01b03909216919091179055565b6117716117b8565b600d546040517fe08b34098bd9a7db19810e36803d50bdcf85ca58118d07b4ef3705811d8303b5916117ae916001600160a01b0390911690611db0565b60405180910390a1565b600d80546001600160a01b0319169055565b8280546117d6906120bf565b90600052602060002090601f0160209004810192826117f8576000855561183e565b82601f1061181157805160ff191683800117855561183e565b8280016001018555821561183e579182015b8281111561183e578251825591602001919060010190611823565b5061184a92915061184e565b5090565b5b8082111561184a576000815560010161184f565b60006001600160401b038084111561187d5761187d61216b565b604051601f8501601f19908116603f011681019082821181831017156118a5576118a561216b565b816040528093508581528686860111156118be57600080fd5b858560208301376000602087830101525050509392505050565b600082601f8301126118e957600080fd5b61142183833560208501611863565b80516001600160501b038116811461190f57600080fd5b919050565b805160ff8116811461190f57600080fd5b60006020828403121561193757600080fd5b813561142181612181565b60006020828403121561195457600080fd5b815161142181612181565b600080600080600060a0868803121561197757600080fd5b853561198281612181565b9450602086013561199281612181565b935060408601356119a281612181565b925060608601356001600160401b03808211156119be57600080fd5b6119ca89838a016118d8565b935060808801359150808211156119e057600080fd5b506119ed888289016118d8565b9150509295509295909350565b60008060008060808587031215611a1057600080fd5b8435611a1b81612181565b93506020850135611a2b81612181565b925060408501356001600160401b0380821115611a4757600080fd5b611a53888389016118d8565b93506060870135915080821115611a6957600080fd5b50611a76878288016118d8565b91505092959194509250565b600080600060608486031215611a9757600080fd5b8335611aa281612181565b92506020840135611ab281612181565b929592945050506040919091013590565b60008060408385031215611ad657600080fd5b8235611ae181612181565b946020939093013593505050565b60008060008060008060c08789031215611b0857600080fd5b8635611b1381612181565b9550602087013594506040870135611b2a81612196565b9350606087013592506080870135915060a08701356001600160401b03811115611b5357600080fd5b8701601f81018913611b6457600080fd5b611b7389823560208401611863565b9150509295509295509295565b600060208284031215611b9257600080fd5b813561142181612196565b600060208284031215611baf57600080fd5b815161142181612196565b600060208284031215611bcc57600080fd5b5051919050565b600060208284031215611be557600080fd5b5035919050565b60008060408385031215611bff57600080fd5b823591506020830135611c1181612181565b809150509250929050565b600080600060608486031215611c3157600080fd5b83519250611c4160208501611914565b9150611c4f60408501611914565b90509250925092565b600080600080600060a08688031215611c7057600080fd5b611c79866118f8565b9450602086015193506040860151925060608601519150611c9c608087016118f8565b90509295509295909350565b600060208284031215611cba57600080fd5b61142182611914565b6000815180845260005b81811015611ce957602081850181015186830182015201611ccd565b81811115611cfb576000602083870101525b50601f01601f19169290920160200192915050565b8054600090600181811c9080831680611d2a57607f831692505b6020808410821415611d4c57634e487b7160e01b600052602260045260246000fd5b83885260208801828015611d675760018114611d7857611da3565b60ff19871682528282019750611da3565b60008981526020902060005b87811015611d9d57815484820152908601908401611d84565b83019850505b5050505050505092915050565b6001600160a01b0391909116815260200190565b6001600160a01b0392831681529116602082015260400190565b600061010060018060a01b038b16835289602084015288151560408401528760608401528660808401528060a0840152611e1a81840187611cc3565b905082810360c0840152611e2e8186611d10565b905082810360e0840152611e428185611d10565b9b9a5050505050505050505050565b6020808252825182820181905260009190848201906040850190845b81811015611e8957835183529284019291840191600101611e6d565b50909695505050505050565b604081526000611ea86040830185611cc3565b8281036020840152611eba8185611cc3565b95945050505050565b6020808252602e908201527f496e697469616c697a61626c653a20636f6e747261637420697320616c72656160408201526d191e481a5b9a5d1a585b1a5e995960921b606082015260800190565b9283526020830191909152604082015260600190565b60008219821115611f3a57611f3a612129565b500190565b600060ff821660ff84168060ff03821115611f5c57611f5c612129565b019392505050565b600082611f7357611f7361213f565b500490565b600181815b80851115611fb3578160001904821115611f9957611f99612129565b80851615611fa657918102915b93841c9390800290611f7d565b509250929050565b600061142160ff841683600082611fd45750600161043a565b81611fe15750600061043a565b8160018114611ff757600281146120015761201d565b600191505061043a565b60ff84111561201257612012612129565b50506001821b61043a565b5060208310610133831016604e8410600b8410161715612040575081810a61043a565b61204a8383611f78565b806000190482111561205e5761205e612129565b029392505050565b600081600019048311821515161561208057612080612129565b500290565b60008282101561209757612097612129565b500390565b600060ff821660ff8416808210156120b6576120b6612129565b90039392505050565b600181811c908216806120d357607f821691505b602082108114156120f457634e487b7160e01b600052602260045260246000fd5b50919050565b600060001982141561210e5761210e612129565b5060010190565b6000826121245761212461213f565b500690565b634e487b7160e01b600052601160045260246000fd5b634e487b7160e01b600052601260045260246000fd5b634e487b7160e01b600052603260045260246000fd5b634e487b7160e01b600052604160045260246000fd5b6001600160a01b03811681146107a457600080fd5b80151581146107a457600080fdfea26469706673582212205c3cef3d635b77dc70af60d9537e7138a2269caa88c6da590d5cea4af58f89a764736f6c63430008070033",
  "immutableReferences": {},
  "source": "// SPDX-License-Identifier: GPL-3.0\r\n\r\npragma solidity 0.8.7;\r\n\r\n/**\r\n Price Converter is an interface to the Chain Link Price Registry for USD to ETH exchange\r\n */\r\n\r\nimport \"../Interfaces/IPriceConverter.sol\";\r\nimport \"../Base/ExternalRegistryBaseContract.sol\";\r\nimport \"@chainlink/contracts/src/v0.8/interfaces/FeedRegistryInterface.sol\";\r\nimport \"@chainlink/contracts/src/v0.8/Denominations.sol\";\r\n\r\n\r\ncontract PriceConverter is IPriceConverter, ExternalRegistryBaseContract {\r\n\r\n    // DATA /////////////////////////////////////////\r\n    FeedRegistryInterface internal _registry;\r\n    uint8 constant _ETHDecimals = 18;\r\n    uint8 constant _USDDecimals = 2;\r\n\r\n    // CONSTRUCTOR /////////////////////////////////////////\r\n    function PriceConverter_init(address registry, address managerContractAddress, address chairPerson, string memory contractName, string memory contractVersion) public initializer \r\n    {\r\n        super.ExternalRegistryBaseContract_init(chairPerson, managerContractAddress, contractName, contractVersion);\r\n        _registry = FeedRegistryInterface(registry);\r\n    }\r\n\r\n    // GOVERNANCE /////////////////////////////////////////\r\n    function UpdateRegistry() internal override\r\n    {\r\n        _registry = FeedRegistryInterface(_ProposedRegistryAddress);\r\n    }\r\n\r\n    function retrieveRegistryAddress() external override view returns(address)\r\n    {\r\n        return address(_registry);\r\n    }\r\n\r\n    // FUNCTIONALITY /////////////////////////////////////////\r\n    function fromUSDToETH(uint _USDamount) external override view returns (uint) {\r\n        uint8 decimals = _registry.decimals(Denominations.ETH, Denominations.USD);\r\n        (,int price,,,) = _registry.latestRoundData(Denominations.ETH, Denominations.USD);\r\n\r\n        uint256 amount = 10**(decimals + _ETHDecimals - _USDDecimals) * _USDamount / uint(price);\r\n        uint256 remainder = 10**(decimals + _ETHDecimals - _USDDecimals) * _USDamount % uint(price);\r\n\r\n        if(remainder > 0) amount += 1;\r\n\r\n        return amount;\r\n    }\r\n\r\n}",
  "sourcePath": "C:/Users/d-aam/GitHub/Certificates/contracts/DeployedContracts/PriceConverter.sol",
  "compiler": {
    "name": "solc",
    "version": "0.8.7+commit.e28d00a7.Emscripten.clang"
  },
  "schemaVersion": "3.3.4",
  "updatedAt": "2021-10-27T11:19:55.343Z",
  "devdoc": {
    "kind": "dev",
    "methods": {},
    "version": 1
  },
  "userdoc": {
    "kind": "user",
    "methods": {},
    "version": 1
  }
}