{
  "contractName": "PriceConverter",
  "abi": [
    {
      "anonymous": false,
      "inputs": [
        {
          "indexed": false,
          "internalType": "uint256",
          "name": "",
          "type": "uint256"
        },
        {
          "indexed": true,
          "internalType": "address",
          "name": "",
          "type": "address"
        },
        {
          "indexed": false,
          "internalType": "uint256",
          "name": "",
          "type": "uint256"
        },
        {
          "indexed": false,
          "internalType": "uint256",
          "name": "",
          "type": "uint256"
        }
      ],
      "name": "_AddedProposition",
      "type": "event"
    },
    {
      "anonymous": false,
      "inputs": [
        {
          "indexed": false,
          "internalType": "uint256",
          "name": "",
          "type": "uint256"
        },
        {
          "indexed": true,
          "internalType": "address",
          "name": "",
          "type": "address"
        }
      ],
      "name": "_CancelledProposition",
      "type": "event"
    },
    {
      "anonymous": false,
      "inputs": [
        {
          "indexed": false,
          "internalType": "address",
          "name": "",
          "type": "address"
        }
      ],
      "name": "_NewRegistryAddress",
      "type": "event"
    },
    {
      "anonymous": false,
      "inputs": [
        {
          "indexed": false,
          "internalType": "uint256",
          "name": "",
          "type": "uint256"
        },
        {
          "indexed": true,
          "internalType": "address",
          "name": "",
          "type": "address"
        },
        {
          "indexed": false,
          "internalType": "uint256",
          "name": "",
          "type": "uint256"
        },
        {
          "indexed": false,
          "internalType": "uint256",
          "name": "",
          "type": "uint256"
        }
      ],
      "name": "_PropositionApproved",
      "type": "event"
    },
    {
      "anonymous": false,
      "inputs": [
        {
          "indexed": false,
          "internalType": "uint256",
          "name": "",
          "type": "uint256"
        },
        {
          "indexed": true,
          "internalType": "address",
          "name": "",
          "type": "address"
        },
        {
          "indexed": false,
          "internalType": "uint256",
          "name": "",
          "type": "uint256"
        },
        {
          "indexed": false,
          "internalType": "uint256",
          "name": "",
          "type": "uint256"
        }
      ],
      "name": "_PropositionRejected",
      "type": "event"
    },
    {
      "anonymous": false,
      "inputs": [
        {
          "indexed": false,
          "internalType": "uint256",
          "name": "",
          "type": "uint256"
        },
        {
          "indexed": true,
          "internalType": "address",
          "name": "",
          "type": "address"
        },
        {
          "indexed": false,
          "internalType": "bool",
          "name": "",
          "type": "bool"
        },
        {
          "indexed": false,
          "internalType": "uint256",
          "name": "",
          "type": "uint256"
        }
      ],
      "name": "_PropositionVote",
      "type": "event"
    },
    {
      "anonymous": false,
      "inputs": [
        {
          "indexed": true,
          "internalType": "uint256",
          "name": "",
          "type": "uint256"
        },
        {
          "indexed": false,
          "internalType": "address",
          "name": "",
          "type": "address"
        },
        {
          "indexed": false,
          "internalType": "address",
          "name": "",
          "type": "address"
        },
        {
          "indexed": false,
          "internalType": "uint256",
          "name": "",
          "type": "uint256"
        }
      ],
      "name": "_UsedTokensTransfered",
      "type": "event"
    },
    {
      "inputs": [],
      "name": "cancelProposition",
      "outputs": [],
      "stateMutability": "nonpayable",
      "type": "function"
    },
    {
      "inputs": [],
      "name": "isCurrentPropositionProp",
      "outputs": [
        {
          "internalType": "bool",
          "name": "",
          "type": "bool"
        }
      ],
      "stateMutability": "view",
      "type": "function"
    },
    {
      "inputs": [
        {
          "internalType": "address",
          "name": "from",
          "type": "address"
        },
        {
          "internalType": "address",
          "name": "to",
          "type": "address"
        },
        {
          "internalType": "uint256",
          "name": "amount",
          "type": "uint256"
        }
      ],
      "name": "onTokenBalanceChanged",
      "outputs": [],
      "stateMutability": "nonpayable",
      "type": "function"
    },
    {
      "inputs": [],
      "name": "retrieveChairPerson",
      "outputs": [
        {
          "internalType": "address",
          "name": "",
          "type": "address"
        }
      ],
      "stateMutability": "view",
      "type": "function"
    },
    {
      "inputs": [],
      "name": "retrieveManagerContract",
      "outputs": [
        {
          "internalType": "address",
          "name": "",
          "type": "address"
        }
      ],
      "stateMutability": "view",
      "type": "function"
    },
    {
      "inputs": [],
      "name": "retrieveNextPropId",
      "outputs": [
        {
          "internalType": "uint256",
          "name": "",
          "type": "uint256"
        }
      ],
      "stateMutability": "view",
      "type": "function"
    },
    {
      "inputs": [],
      "name": "retrievePendingPropConfig",
      "outputs": [
        {
          "internalType": "uint256",
          "name": "",
          "type": "uint256"
        },
        {
          "internalType": "uint8",
          "name": "",
          "type": "uint8"
        },
        {
          "internalType": "uint8",
          "name": "",
          "type": "uint8"
        },
        {
          "internalType": "bool",
          "name": "",
          "type": "bool"
        }
      ],
      "stateMutability": "view",
      "type": "function"
    },
    {
      "inputs": [],
      "name": "retrievePropConfig",
      "outputs": [
        {
          "internalType": "uint256",
          "name": "",
          "type": "uint256"
        },
        {
          "internalType": "uint8",
          "name": "",
          "type": "uint8"
        },
        {
          "internalType": "uint8",
          "name": "",
          "type": "uint8"
        }
      ],
      "stateMutability": "view",
      "type": "function"
    },
    {
      "inputs": [],
      "name": "retrievePropositionStatus",
      "outputs": [
        {
          "internalType": "address",
          "name": "",
          "type": "address"
        },
        {
          "internalType": "uint256",
          "name": "",
          "type": "uint256"
        },
        {
          "internalType": "uint256",
          "name": "",
          "type": "uint256"
        },
        {
          "internalType": "uint256",
          "name": "",
          "type": "uint256"
        },
        {
          "internalType": "uint256",
          "name": "",
          "type": "uint256"
        }
      ],
      "stateMutability": "view",
      "type": "function"
    },
    {
      "inputs": [
        {
          "internalType": "uint256",
          "name": "PropId",
          "type": "uint256"
        },
        {
          "internalType": "address",
          "name": "voter",
          "type": "address"
        }
      ],
      "name": "retrieveVotesForVoter",
      "outputs": [
        {
          "internalType": "uint256",
          "name": "",
          "type": "uint256"
        }
      ],
      "stateMutability": "view",
      "type": "function"
    },
    {
      "inputs": [
        {
          "internalType": "uint256",
          "name": "PropLifeTime",
          "type": "uint256"
        },
        {
          "internalType": "uint8",
          "name": "PropThresholdPerc",
          "type": "uint8"
        },
        {
          "internalType": "uint8",
          "name": "minWeightToPropPerc",
          "type": "uint8"
        }
      ],
      "name": "updateProp",
      "outputs": [],
      "stateMutability": "nonpayable",
      "type": "function"
    },
    {
      "inputs": [
        {
          "internalType": "bool",
          "name": "vote",
          "type": "bool"
        }
      ],
      "name": "voteProposition",
      "outputs": [],
      "stateMutability": "nonpayable",
      "type": "function"
    },
    {
      "inputs": [
        {
          "internalType": "address",
          "name": "registry",
          "type": "address"
        },
        {
          "internalType": "address",
          "name": "managerContractAddress",
          "type": "address"
        },
        {
          "internalType": "address",
          "name": "chairPerson",
          "type": "address"
        },
        {
          "internalType": "uint256",
          "name": "PropositionLifeTime",
          "type": "uint256"
        },
        {
          "internalType": "uint8",
          "name": "PropositionThresholdPercentage",
          "type": "uint8"
        },
        {
          "internalType": "uint8",
          "name": "minWeightToProposePercentage",
          "type": "uint8"
        }
      ],
      "name": "PriceConverter_init",
      "outputs": [],
      "stateMutability": "nonpayable",
      "type": "function"
    },
    {
      "inputs": [
        {
          "internalType": "address",
          "name": "NewRegistryAddress",
          "type": "address"
        }
      ],
      "name": "updateRegistryAddress",
      "outputs": [],
      "stateMutability": "nonpayable",
      "type": "function"
    },
    {
      "inputs": [],
      "name": "retrieveProposition",
      "outputs": [
        {
          "internalType": "bytes32[]",
          "name": "",
          "type": "bytes32[]"
        }
      ],
      "stateMutability": "view",
      "type": "function"
    },
    {
      "inputs": [
        {
          "internalType": "uint256",
          "name": "_USDamount",
          "type": "uint256"
        }
      ],
      "name": "fromUSDToETH",
      "outputs": [
        {
          "internalType": "uint256",
          "name": "",
          "type": "uint256"
        }
      ],
      "stateMutability": "view",
      "type": "function"
    },
    {
      "inputs": [],
      "name": "retrieveRegistryAddress",
      "outputs": [
        {
          "internalType": "address",
          "name": "",
          "type": "address"
        }
      ],
      "stateMutability": "view",
      "type": "function"
    }
  ],
  "bytecode": "0x608060405234801561001057600080fd5b5061196a806100206000396000f3fe608060405234801561001057600080fd5b50600436106100db5760003560e01c806304cc67a9146100e05780632bd39113146100f75780633c7df55d1461010c5780634044adb21461011f57806355457ee9146101325780635b362e841461013a578063840f6d171461015a5780638d12420b1461019b57806390d138ed146101ae57806391f91671146101e2578063a93316f5146101f5578063ac2bb4421461020a578063bc3be0961461021d578063c57a882514610239578063d660ab341461024c578063db85bc4d14610278578063e1f5f85814610289575b600080fd5b6008545b6040519081526020015b60405180910390f35b61010a610105366004611422565b61029a565b005b61010a61011a36600461149b565b61033d565b6100e461012d366004611548565b610493565b61010a6104bd565b6000546201000090046001600160a01b03165b6040516100ee9190611627565b600354600454600554600654600754604080516001600160a01b0390961686526020860194909452928401919091526060830152608082015260a0016100ee565b6100e46101a936600461152f565b6105ec565b6101b661076a565b6040516100ee949392919093845260ff9283166020850152911660408301521515606082015260800190565b61010a6101f03660046114dc565b6107c5565b6101fd6108e8565b6040516100ee9190611655565b61010a610218366004611578565b6109c3565b600b5462010000900460ff1660405190151581526020016100ee565b61010a6102473660046113e8565b6109d0565b600a54600b546040805192835260ff8083166020850152610100909204909116908201526060016100ee565b6001546001600160a01b031661014d565b600e546001600160a01b031661014d565b600054610100900460ff16806102b3575060005460ff16155b6102d85760405162461bcd60e51b81526004016102cf906116b8565b60405180910390fd5b600054610100900460ff161580156102fa576000805461ffff19166101011790555b610307848484888a6109fa565b600e80546001600160a01b0319166001600160a01b0389161790558015610334576000805461ff00191690555b50505050505050565b73__Library_______________________________63d1d719d0600060029054906101000a90046001600160a01b03166001600160a01b031663da3dce266040518163ffffffff1660e01b815260040160206040518083038186803b1580156103a557600080fd5b505afa1580156103b9573d6000803e3d6000fd5b505050506040513d601f19601f820116820180604052508101906103dd9190611405565b6040518263ffffffff1660e01b81526004016103f99190611627565b60206040518083038186803b15801561041157600080fd5b505af4158015610425573d6000803e3d6000fd5b505050506040513d601f19601f8201168201806040525081019061044991906114f9565b15156001146104835760405162461bcd60e51b81526004016102cf906020808252600490820152634543382d60e01b604082015260600190565b61048e838383610aa3565b505050565b60008281526009602090815260408083206001600160a01b03851684529091529020545b92915050565b60016104c7610ac0565b15156001146104e85760405162461bcd60e51b81526004016102cf90611706565b600354604051630d1d719d60e41b815273__Library_______________________________9163d1d719d09161052a916001600160a01b031690600401611627565b60206040518083038186803b15801561054257600080fd5b505af4158015610556573d6000803e3d6000fd5b505050506040513d601f19601f8201168201806040525081019061057a91906114f9565b151560011461059b5760405162461bcd60e51b81526004016102cf90611725565b6105a3610afa565b6003546002546040519081526001600160a01b03909116907f1fe8aec10c0a50fa765076161e08c1f961ced69594ff45cf7d559f593afe1479906020015b60405180910390a250565b600e54604051630b1c5a7560e31b815260009182916001600160a01b03909116906358e2d3a8906106399073eeeeeeeeeeeeeeeeeeeeeeeeeeeeeeeeeeeeeeee906103489060040161163b565b60206040518083038186803b15801561065157600080fd5b505afa158015610665573d6000803e3d6000fd5b505050506040513d601f19601f82011682018060405250810190610689919061160a565b600e5460405163bcfd032d60e01b81529192506000916001600160a01b039091169063bcfd032d906106d79073eeeeeeeeeeeeeeeeeeeeeeeeeeeeeeeeeeeeeeee906103489060040161163b565b60a06040518083038186803b1580156106ef57600080fd5b505afa158015610703573d6000803e3d6000fd5b505050506040513d601f19601f8201168201806040525081019061072791906115ba565b505050915050808483600a61073c91906117d7565b61074e90670de0b6b3a7640000611882565b6107589190611882565b6107629190611772565b949350505050565b600080600080600b60029054906101000a900460ff16801561078d575060045442105b156107b2575050600c54600d5490925060ff80821692506101009091041660016107bf565b5060009250829150819050805b90919293565b60016107cf610ac0565b15156001146107f05760405162461bcd60e51b81526004016102cf90611706565b6107ff33600260000154610b25565b15156001146108385760405162461bcd60e51b8152602060048201526005602482015264454332332d60d81b60448201526064016102cf565b600061084933600260000154610b3c565b90508215610871578060026004016000828254610866919061175a565b9091555061088c9050565b8060026005016000828254610886919061175a565b90915550505b60025461089a903383610b79565b600254604080519182528415156020830152810182905233907f50f654d58981575c05e369cb129aeacb01e1b036af429380242cfc5d1a4b743f9060600160405180910390a261048e610bb5565b60408051600180825281830190925260609160009190602080830190803683375050600f5460405163bc215e8560e01b815292935073__AddressLibrary________________________9263bc215e859250610950916001600160a01b031690600401611627565b60206040518083038186803b15801561096857600080fd5b505af415801561097c573d6000803e3d6000fd5b505050506040513d601f19601f820116820180604052508101906109a09190611516565b816000815181106109b3576109b36118e9565b6020908102919091010152919050565b61048e8383836000610cf5565b6109d8610d9f565b600f80546001600160a01b0319166001600160a01b0392909216919091179055565b600054610100900460ff1680610a13575060005460ff16155b610a2f5760405162461bcd60e51b81526004016102cf906116b8565b600054610100900460ff16158015610a51576000805461ffff19166101011790555b610a5a82610eb6565b600180546001600160a01b0319166001600160a01b0385161781556000600855610a8990879087908790610cf5565b8015610a9b576000805461ff00191690555b505050505050565b610aab610ac0565b15156001141561048e5761048e838383610f45565b600454600090421015610ad35750600190565b6003546001600160a01b031615610af457610aec6110b5565b610af4610afa565b50600090565b60006002819055600380546001600160a01b0319169055600481905560058190556006819055600755565b600080610b328484610b3c565b1515949350505050565b60008181526009602090815260408083206001600160a01b0386168452909152812054610b68846110bd565b610b7291906118a1565b9392505050565b60008381526009602090815260408083206001600160a01b038616845290915281208054839290610bab90849061175a565b9091555050505050565b60055460065410610c7057600b5462010000900460ff1615610c0c57600c54600a55600d54600b805461010080840460ff90811690910261ffff19909216931692909217919091179055610c076111bf565b610c14565b610c146111dd565b610c1c610afa565b6003546002546006546007546040516001600160a01b03909416937f23ca0034cf5aad32571b4a492e9598ea8a490e1643a60970e3cdc6933b55e49f93610c669390929091611744565b60405180910390a2565b60055460075410610cf357600b5462010000900460ff1615610c9957610c946111bf565b610ca1565b610ca16110b5565b610ca9610afa565b6003546002546006546007546040516001600160a01b03909416937fa58eb6daa3c62c3f883973c4035e5bd3e81aa627c8379de068a7de42df122be293610c669390929091611744565b565b82828160ff1660641015610d1b5760405162461bcd60e51b81526004016102cf90611699565b8060ff1660641015610d3f5760405162461bcd60e51b81526004016102cf90611699565b8215610d6a57600a869055600b805460ff8681166101000261ffff1990921690881617179055610a9b565b600c869055600d805460ff8681166101000261ffff1990921690881617179055600b805462ff0000191662010000179055610a9b5b6000610da9610ac0565b15610dde5760405162461bcd60e51b8152602060048201526005602482015264454332342d60d81b60448201526064016102cf565b610de73361124e565b1515600114610e085760405162461bcd60e51b81526004016102cf90611725565b600380546001600160a01b03191633179055600a54610e27904261175a565b600455600b5460649060ff16610e3b6112c3565b610e459190611882565b610e4f9190611772565b600555600880546002819055906000610e67836118b8565b90915550506003546002546004546005546040516001600160a01b03909416937f472501d19bf75639b2e316cd36f8568b0c3ab943b82a87de3c086c98c1929df9936105e19390929091611744565b600054610100900460ff1680610ecf575060005460ff16155b610eeb5760405162461bcd60e51b81526004016102cf906116b8565b600054610100900460ff16158015610f0d576000805461ffff19166101011790555b6000805462010000600160b01b031916620100006001600160a01b038516021790558015610f41576000805461ff00191690555b5050565b6001600160a01b03831615801590610f81575060025460009081526009602090815260408083206001600160a01b038716845290915290205415155b1561048e5760025460009081526009602090815260408083206001600160a01b03871684529091529020548190811115610fdd575060025460009081526009602090815260408083206001600160a01b03871684529091529020545b60025460009081526009602090815260408083206001600160a01b0388168452909152812080548392906110129084906118a1565b90915550506001600160a01b038316156110615760025460009081526009602090815260408083206001600160a01b03871684529091528120805483929061105b90849061175a565b90915550505b600254604080516001600160a01b038088168252861660208201529081018390527f65fbd5e5dd32bea4aeca85bd0be0abf0e489d655dee888a7510d43b06dda2dba9060600160405180910390a250505050565b610cf36113bf565b60008060029054906101000a90046001600160a01b03166001600160a01b031663da3dce266040518163ffffffff1660e01b815260040160206040518083038186803b15801561110c57600080fd5b505afa158015611120573d6000803e3d6000fd5b505050506040513d601f19601f820116820180604052508101906111449190611405565b6001600160a01b03166370a08231836040518263ffffffff1660e01b815260040161116f9190611627565b60206040518083038186803b15801561118757600080fd5b505afa15801561119b573d6000803e3d6000fd5b505050506040513d601f19601f820116820180604052508101906104b79190611516565b6000600c55600d805461ffff19169055600b805462ff000019169055565b600f54600e80546001600160a01b0319166001600160a01b039092169190911790556112076113bf565b600f546040517fe08b34098bd9a7db19810e36803d50bdcf85ca58118d07b4ef3705811d8303b591611244916001600160a01b0390911690611627565b60405180910390a1565b6001546000906001600160a01b038381169116141561126f57506001919050565b600061127a836110bd565b905060646112866112c3565b600b5461129b9190610100900460ff16611882565b6112a59190611772565b8111156112b55750600192915050565b50600092915050565b919050565b60008060029054906101000a90046001600160a01b03166001600160a01b031663da3dce266040518163ffffffff1660e01b815260040160206040518083038186803b15801561131257600080fd5b505afa158015611326573d6000803e3d6000fd5b505050506040513d601f19601f8201168201806040525081019061134a9190611405565b6001600160a01b03166318160ddd6040518163ffffffff1660e01b815260040160206040518083038186803b15801561138257600080fd5b505afa158015611396573d6000803e3d6000fd5b505050506040513d601f19601f820116820180604052508101906113ba9190611516565b905090565b600f80546001600160a01b0319169055565b80516001600160501b03811681146112be57600080fd5b6000602082840312156113fa57600080fd5b8135610b72816118ff565b60006020828403121561141757600080fd5b8151610b72816118ff565b60008060008060008060c0878903121561143b57600080fd5b8635611446816118ff565b95506020870135611456816118ff565b94506040870135611466816118ff565b935060608701359250608087013561147d81611925565b915060a087013561148d81611925565b809150509295509295509295565b6000806000606084860312156114b057600080fd5b83356114bb816118ff565b925060208401356114cb816118ff565b929592945050506040919091013590565b6000602082840312156114ee57600080fd5b8135610b7281611917565b60006020828403121561150b57600080fd5b8151610b7281611917565b60006020828403121561152857600080fd5b5051919050565b60006020828403121561154157600080fd5b5035919050565b6000806040838503121561155b57600080fd5b82359150602083013561156d816118ff565b809150509250929050565b60008060006060848603121561158d57600080fd5b83359250602084013561159f81611925565b915060408401356115af81611925565b809150509250925092565b600080600080600060a086880312156115d257600080fd5b6115db866113d1565b94506020860151935060408601519250606086015191506115fe608087016113d1565b90509295509295909350565b60006020828403121561161c57600080fd5b8151610b7281611925565b6001600160a01b0391909116815260200190565b6001600160a01b0392831681529116602082015260400190565b6020808252825182820181905260009190848201906040850190845b8181101561168d57835183529284019291840191600101611671565b50909695505050505050565b602080825260059082015264454332312d60d81b604082015260600190565b6020808252602e908201527f496e697469616c697a61626c653a20636f6e747261637420697320616c72656160408201526d191e481a5b9a5d1a585b1a5e995960921b606082015260800190565b602080825260059082015264454332352d60d81b604082015260600190565b602080825260059082015264454332322d60d81b604082015260600190565b9283526020830191909152604082015260600190565b6000821982111561176d5761176d6118d3565b500190565b60008261178f57634e487b7160e01b600052601260045260246000fd5b500490565b600181815b808511156117cf5781600019048211156117b5576117b56118d3565b808516156117c257918102915b93841c9390800290611799565b509250929050565b6000610b7260ff8416836000826117f0575060016104b7565b816117fd575060006104b7565b8160018114611813576002811461181d57611839565b60019150506104b7565b60ff84111561182e5761182e6118d3565b50506001821b6104b7565b5060208310610133831016604e8410600b841016171561185c575081810a6104b7565b6118668383611794565b806000190482111561187a5761187a6118d3565b029392505050565b600081600019048311821515161561189c5761189c6118d3565b500290565b6000828210156118b3576118b36118d3565b500390565b60006000198214156118cc576118cc6118d3565b5060010190565b634e487b7160e01b600052601160045260246000fd5b634e487b7160e01b600052603260045260246000fd5b6001600160a01b038116811461191457600080fd5b50565b801515811461191457600080fd5b60ff8116811461191457600080fdfea2646970667358221220b24c5e01da0013faaaa50329a19cfcba2bc60cd16212b946568707abc0712f4c64736f6c63430008070033",
  "immutableReferences": {},
  "source": "// SPDX-License-Identifier: GPL-3.0\r\n\r\npragma solidity 0.8.7;\r\n\r\n/**\r\n Price Converter is an interface to the Chain Link Price Registry for USD to ETH exchange\r\n */\r\n\r\nimport \"../Interfaces/IPriceConverter.sol\";\r\nimport \"../Base/TokenGovernanceBaseContract.sol\";\r\nimport \"@chainlink/contracts/src/v0.8/interfaces/FeedRegistryInterface.sol\";\r\nimport \"@chainlink/contracts/src/v0.8/Denominations.sol\";\r\n\r\n\r\ncontract PriceConverter is IPriceConverter, TokenGovernanceBaseContract {\r\n\r\n     // EVENTS /////////////////////////////////////////\r\n    event _NewRegistryAddress(address);\r\n\r\n    // DATA /////////////////////////////////////////\r\n    FeedRegistryInterface internal _registry;\r\n\r\n    address internal _ProposedRegistryAddress;\r\n\r\n    // CONSTRUCTOR /////////////////////////////////////////\r\n    function PriceConverter_init(address registry, address managerContractAddress, address chairPerson, uint256 PropositionLifeTime, uint8 PropositionThresholdPercentage, uint8 minWeightToProposePercentage) public initializer \r\n    {\r\n        super.TokenGovernanceContract_init(PropositionLifeTime, PropositionThresholdPercentage, minWeightToProposePercentage, chairPerson, managerContractAddress);\r\n        _registry = FeedRegistryInterface(registry);\r\n    }\r\n\r\n    // GOVERNANCE /////////////////////////////////////////\r\n    function updateRegistryAddress(address NewRegistryAddress) external override\r\n    {\r\n        addProposition();\r\n        _ProposedRegistryAddress = NewRegistryAddress;\r\n    }\r\n\r\n    function propositionApproved() internal override\r\n    {\r\n        _registry = FeedRegistryInterface(_ProposedRegistryAddress);\r\n        \r\n        removeProposition();\r\n\r\n        emit _NewRegistryAddress(_ProposedRegistryAddress);\r\n    }\r\n\r\n    function propositionRejected() internal override\r\n    {\r\n        removeProposition();\r\n    }\r\n\r\n    function propositionExpired() internal override\r\n    {\r\n        removeProposition();\r\n    }\r\n\r\n    function removeProposition() internal\r\n    {\r\n         delete(_ProposedRegistryAddress);\r\n    }\r\n\r\n    function retrieveProposition() external override view returns(bytes32[] memory)\r\n    {\r\n        bytes32[] memory proposition = new bytes32[](1);\r\n        proposition[0] = AddressLibrary.AddressToBytes32(_ProposedRegistryAddress);\r\n        return proposition;\r\n    }\r\n\r\n    // FUNCTIONALITY /////////////////////////////////////////\r\n    function fromUSDToETH(uint _USDamount) external override view returns (uint) {\r\n        uint8 decimals = _registry.decimals(Denominations.ETH, Denominations.USD);\r\n        (,int price,,,) = _registry.latestRoundData(Denominations.ETH, Denominations.USD);\r\n        return (10**18 * 10**decimals * _USDamount) / uint(price);\r\n    }\r\n\r\n    function retrieveRegistryAddress() external override view returns(address){\r\n        return address(_registry);\r\n    }\r\n\r\n}",
  "sourcePath": "C:/Users/d-aam/GitHub/Certificates/contracts/DeployedContracts/PriceConverter.sol",
  "compiler": {
    "name": "solc",
    "version": "0.8.7+commit.e28d00a7.Emscripten.clang"
  },
  "schemaVersion": "3.3.4",
  "updatedAt": "2021-09-14T14:45:14.245Z",
  "devdoc": {
    "kind": "dev",
    "methods": {},
    "version": 1
  },
  "userdoc": {
    "kind": "user",
    "methods": {},
    "version": 1
  }
}