{
  "contractName": "PriceConverter",
  "abi": [
    {
      "anonymous": false,
      "inputs": [
        {
          "indexed": false,
          "internalType": "uint256",
          "name": "Id",
          "type": "uint256"
        },
        {
          "indexed": true,
          "internalType": "address",
          "name": "Proposer",
          "type": "address"
        },
        {
          "indexed": false,
          "internalType": "uint256",
          "name": "Deadline",
          "type": "uint256"
        },
        {
          "indexed": false,
          "internalType": "uint256",
          "name": "Threshold",
          "type": "uint256"
        }
      ],
      "name": "_AddedProposition",
      "type": "event"
    },
    {
      "anonymous": false,
      "inputs": [
        {
          "indexed": false,
          "internalType": "uint256",
          "name": "Id",
          "type": "uint256"
        },
        {
          "indexed": true,
          "internalType": "address",
          "name": "Proposer",
          "type": "address"
        }
      ],
      "name": "_CancelledProposition",
      "type": "event"
    },
    {
      "anonymous": false,
      "inputs": [
        {
          "indexed": false,
          "internalType": "address",
          "name": "Registry",
          "type": "address"
        }
      ],
      "name": "_NewRegistryAddress",
      "type": "event"
    },
    {
      "anonymous": false,
      "inputs": [
        {
          "indexed": false,
          "internalType": "uint256",
          "name": "Id",
          "type": "uint256"
        },
        {
          "indexed": true,
          "internalType": "address",
          "name": "Proposer",
          "type": "address"
        },
        {
          "indexed": false,
          "internalType": "uint256",
          "name": "VotesFor",
          "type": "uint256"
        },
        {
          "indexed": false,
          "internalType": "uint256",
          "name": "VotesAgainst",
          "type": "uint256"
        }
      ],
      "name": "_PropositionApproved",
      "type": "event"
    },
    {
      "anonymous": false,
      "inputs": [
        {
          "indexed": false,
          "internalType": "uint256",
          "name": "Id",
          "type": "uint256"
        },
        {
          "indexed": true,
          "internalType": "address",
          "name": "Proposer",
          "type": "address"
        },
        {
          "indexed": false,
          "internalType": "uint256",
          "name": "VotesFor",
          "type": "uint256"
        },
        {
          "indexed": false,
          "internalType": "uint256",
          "name": "VotesAgainst",
          "type": "uint256"
        }
      ],
      "name": "_PropositionRejected",
      "type": "event"
    },
    {
      "anonymous": false,
      "inputs": [
        {
          "indexed": false,
          "internalType": "uint256",
          "name": "Id",
          "type": "uint256"
        },
        {
          "indexed": true,
          "internalType": "address",
          "name": "Voter",
          "type": "address"
        },
        {
          "indexed": false,
          "internalType": "bool",
          "name": "Vote",
          "type": "bool"
        },
        {
          "indexed": false,
          "internalType": "uint256",
          "name": "AmountTokens",
          "type": "uint256"
        }
      ],
      "name": "_PropositionVote",
      "type": "event"
    },
    {
      "anonymous": false,
      "inputs": [
        {
          "indexed": true,
          "internalType": "uint256",
          "name": "Id",
          "type": "uint256"
        },
        {
          "indexed": false,
          "internalType": "address",
          "name": "From",
          "type": "address"
        },
        {
          "indexed": false,
          "internalType": "address",
          "name": "To",
          "type": "address"
        },
        {
          "indexed": false,
          "internalType": "uint256",
          "name": "Amount",
          "type": "uint256"
        }
      ],
      "name": "_UsedTokensTransfered",
      "type": "event"
    },
    {
      "inputs": [
        {
          "internalType": "address",
          "name": "chairPerson",
          "type": "address"
        },
        {
          "internalType": "address",
          "name": "managerContractAddress",
          "type": "address"
        },
        {
          "internalType": "string",
          "name": "contractName",
          "type": "string"
        },
        {
          "internalType": "string",
          "name": "contractVersion",
          "type": "string"
        }
      ],
      "name": "StdPropositionBaseContract_init",
      "outputs": [],
      "stateMutability": "nonpayable",
      "type": "function"
    },
    {
      "inputs": [],
      "name": "cancelProposition",
      "outputs": [],
      "stateMutability": "nonpayable",
      "type": "function"
    },
    {
      "inputs": [
        {
          "internalType": "address",
          "name": "from",
          "type": "address"
        },
        {
          "internalType": "address",
          "name": "to",
          "type": "address"
        },
        {
          "internalType": "uint256",
          "name": "amount",
          "type": "uint256"
        }
      ],
      "name": "onTokenBalanceChanged",
      "outputs": [],
      "stateMutability": "nonpayable",
      "type": "function"
    },
    {
      "inputs": [],
      "name": "retrieveChairPerson",
      "outputs": [
        {
          "internalType": "address",
          "name": "",
          "type": "address"
        }
      ],
      "stateMutability": "view",
      "type": "function"
    },
    {
      "inputs": [],
      "name": "retrieveContractConfig",
      "outputs": [
        {
          "internalType": "string",
          "name": "",
          "type": "string"
        },
        {
          "internalType": "string",
          "name": "",
          "type": "string"
        }
      ],
      "stateMutability": "view",
      "type": "function"
    },
    {
      "inputs": [],
      "name": "retrieveManagerContract",
      "outputs": [
        {
          "internalType": "address",
          "name": "",
          "type": "address"
        }
      ],
      "stateMutability": "view",
      "type": "function"
    },
    {
      "inputs": [],
      "name": "retrieveNextPropId",
      "outputs": [
        {
          "internalType": "uint256",
          "name": "",
          "type": "uint256"
        }
      ],
      "stateMutability": "view",
      "type": "function"
    },
    {
      "inputs": [
        {
          "internalType": "address",
          "name": "addr",
          "type": "address"
        },
        {
          "internalType": "uint256",
          "name": "nonce",
          "type": "uint256"
        }
      ],
      "name": "retrieveNonce",
      "outputs": [
        {
          "internalType": "bool",
          "name": "",
          "type": "bool"
        }
      ],
      "stateMutability": "view",
      "type": "function"
    },
    {
      "inputs": [],
      "name": "retrieveProposition",
      "outputs": [
        {
          "internalType": "bytes[]",
          "name": "",
          "type": "bytes[]"
        }
      ],
      "stateMutability": "view",
      "type": "function"
    },
    {
      "inputs": [],
      "name": "retrievePropositionStatus",
      "outputs": [
        {
          "internalType": "address",
          "name": "",
          "type": "address"
        },
        {
          "internalType": "uint256",
          "name": "",
          "type": "uint256"
        },
        {
          "internalType": "uint256",
          "name": "",
          "type": "uint256"
        },
        {
          "internalType": "uint256",
          "name": "",
          "type": "uint256"
        },
        {
          "internalType": "uint256",
          "name": "",
          "type": "uint256"
        }
      ],
      "stateMutability": "view",
      "type": "function"
    },
    {
      "inputs": [
        {
          "internalType": "uint256",
          "name": "PropId",
          "type": "uint256"
        },
        {
          "internalType": "address",
          "name": "voter",
          "type": "address"
        }
      ],
      "name": "retrieveVotesForVoter",
      "outputs": [
        {
          "internalType": "uint256",
          "name": "",
          "type": "uint256"
        }
      ],
      "stateMutability": "view",
      "type": "function"
    },
    {
      "inputs": [
        {
          "internalType": "bytes[]",
          "name": "NewValues",
          "type": "bytes[]"
        }
      ],
      "name": "sendProposition",
      "outputs": [],
      "stateMutability": "nonpayable",
      "type": "function"
    },
    {
      "inputs": [
        {
          "internalType": "bool",
          "name": "vote",
          "type": "bool"
        }
      ],
      "name": "voteProposition",
      "outputs": [],
      "stateMutability": "nonpayable",
      "type": "function"
    },
    {
      "inputs": [
        {
          "internalType": "address",
          "name": "voter",
          "type": "address"
        },
        {
          "internalType": "uint256",
          "name": "propID",
          "type": "uint256"
        },
        {
          "internalType": "bool",
          "name": "vote",
          "type": "bool"
        },
        {
          "internalType": "uint256",
          "name": "nonce",
          "type": "uint256"
        },
        {
          "internalType": "uint256",
          "name": "deadline",
          "type": "uint256"
        },
        {
          "internalType": "bytes",
          "name": "signature",
          "type": "bytes"
        }
      ],
      "name": "votePropositionOnBehalfOf",
      "outputs": [],
      "stateMutability": "nonpayable",
      "type": "function"
    },
    {
      "inputs": [
        {
          "internalType": "address",
          "name": "registry",
          "type": "address"
        },
        {
          "internalType": "address",
          "name": "managerContractAddress",
          "type": "address"
        },
        {
          "internalType": "address",
          "name": "chairPerson",
          "type": "address"
        },
        {
          "internalType": "string",
          "name": "contractName",
          "type": "string"
        },
        {
          "internalType": "string",
          "name": "contractVersion",
          "type": "string"
        }
      ],
      "name": "PriceConverter_init",
      "outputs": [],
      "stateMutability": "nonpayable",
      "type": "function"
    },
    {
      "inputs": [
        {
          "internalType": "uint256",
          "name": "_USDamount",
          "type": "uint256"
        }
      ],
      "name": "fromUSDToETH",
      "outputs": [
        {
          "internalType": "uint256",
          "name": "",
          "type": "uint256"
        }
      ],
      "stateMutability": "view",
      "type": "function"
    },
    {
      "inputs": [],
      "name": "retrieveSettings",
      "outputs": [
        {
          "internalType": "address",
          "name": "",
          "type": "address"
        }
      ],
      "stateMutability": "view",
      "type": "function"
    }
  ],
  "bytecode": "0x608060405234801561001057600080fd5b50612750806100206000396000f3fe608060405234801561001057600080fd5b50600436106100db5760003560e01c806304cc67a9146100e05780630f13bbc9146100f75780633c7df55d1461010c5780633feca4ca1461011f5780634044adb21461014257806355457ee9146101785780635b362e8414610180578063612032a6146101a05780637faa3d6f146101b3578063840f6d17146101c65780638d12420b1461020757806391f916711461021a578063a93316f51461022d578063b049473f14610242578063d2116a0214610253578063db85bc4d14610269578063e15aa3a61461027a575b600080fd5b600b545b6040519081526020015b60405180910390f35b61010a610105366004611d11565b61028d565b005b61010a61011a366004611d99565b610312565b61013261012d366004611dda565b610430565b60405190151581526020016100ee565b6100e46101503660046120d6565b6000918252600c602090815260408084206001600160a01b0393909316845291905290205490565b61010a61045e565b6003546201000090046001600160a01b03165b6040516100ee9190612295565b61010a6101ae366004611c76565b610538565b61010a6101c1366004611e06565b6105d0565b600654600754600854600954600a54604080516001600160a01b0390961686526020860194909452928401919091526060830152608082015260a0016100ee565b6100e46102153660046120a4565b6105e8565b61010a61022836600461206a565b6107c0565b6102356107cd565b6040516100ee9190612336565b600e546001600160a01b0316610193565b61025b6108a6565b6040516100ee9291906123be565b6004546001600160a01b0316610193565b61010a610288366004611fb3565b6109cd565b600354610100900460ff16806102a6575060035460ff16155b6102cb5760405162461bcd60e51b81526004016102c2906123ec565b60405180910390fd5b600354610100900460ff161580156102ed576003805461ffff19166101011790555b6102f985858585610a47565b801561030b576003805461ff00191690555b5050505050565b3373__Library_______________________________6337ea306382600360029054906101000a90046001600160a01b03166001600160a01b031663e220ad956040518163ffffffff1660e01b815260040160006040518083038186803b15801561037c57600080fd5b505afa158015610390573d6000803e3d6000fd5b505050506040513d6000823e601f3d908101601f191682016040526103b89190810190611e83565b6003815181106103ca576103ca6126cb565b60200260200101516040518363ffffffff1660e01b81526004016103ef9291906122a9565b60006040518083038186803b15801561040757600080fd5b505af415801561041b573d6000803e3d6000fd5b5050505061042a848484610ad1565b50505050565b6001600160a01b038216600090815260026020908152604080832084845290915290205460ff165b92915050565b600161046981610af3565b6006546040516337ea306360e01b8152339173__Library_______________________________916337ea3063916104af9185916001600160a01b0316906004016122a9565b60006040518083038186803b1580156104c757600080fd5b505af41580156104db573d6000803e3d6000fd5b505050506104e7610b77565b6104ef610b81565b6006546005546040519081526001600160a01b03909116907f1fe8aec10c0a50fa765076161e08c1f961ced69594ff45cf7d559f593afe14799060200160405180910390a25050565b600354610100900460ff1680610551575060035460ff16155b61056d5760405162461bcd60e51b81526004016102c2906123ec565b600354610100900460ff1615801561058f576003805461ffff19166101011790555b61059b8486858561028d565b600e80546001600160a01b0319166001600160a01b03881617905580156105c8576003805461ff00191690555b505050505050565b6105de868686868686610bac565b6105c88685610d0b565b600e54604051630b1c5a7560e31b815260009182916001600160a01b03909116906358e2d3a8906106359073eeeeeeeeeeeeeeeeeeeeeeeeeeeeeeeeeeeeeeee90610348906004016122a9565b60206040518083038186803b15801561064d57600080fd5b505afa158015610661573d6000803e3d6000fd5b505050506040513d601f19601f820116820180604052508101906106859190612184565b600e5460405163bcfd032d60e01b81529192506000916001600160a01b039091169063bcfd032d906106d39073eeeeeeeeeeeeeeeeeeeeeeeeeeeeeeeeeeeeeeee90610348906004016122a9565b60a06040518083038186803b1580156106eb57600080fd5b505afa1580156106ff573d6000803e3d6000fd5b505050506040513d601f19601f820116820180604052508101906107239190612134565b50505091505060008185600260128661073c91906124bb565b6107469190612618565b61075190600a612537565b61075b91906125e2565b61076591906124e0565b90506000828660026107786012886124bb565b6107829190612618565b61078d90600a612537565b61079791906125e2565b6107a1919061268b565b905080156107b7576107b46001836124a3565b91505b50949350505050565b6107ca3382610d0b565b50565b6060600d805480602002602001604051908101604052809291908181526020016000905b8282101561089d5783829060005260206000200180546108109061263b565b80601f016020809104026020016040519081016040528092919081815260200182805461083c9061263b565b80156108895780601f1061085e57610100808354040283529160200191610889565b820191906000526020600020905b81548152906001019060200180831161086c57829003601f168201915b5050505050815260200190600101906107f1565b50505050905090565b606080600060018180546108b99061263b565b80601f01602080910402602001604051908101604052809291908181526020018280546108e59061263b565b80156109325780601f1061090757610100808354040283529160200191610932565b820191906000526020600020905b81548152906001019060200180831161091557829003601f168201915b505050505091508080546109459061263b565b80601f01602080910402602001604051908101604052809291908181526020018280546109719061263b565b80156109be5780601f10610993576101008083540402835291602001916109be565b820191906000526020600020905b8154815290600101906020018083116109a157829003601f168201915b50505050509050915091509091565b6109d681610e22565b6109de610fa7565b60005b8151811015610a4357600d8282815181106109fe576109fe6126cb565b60209081029190910181015182546001810184556000938452928290208151610a309491909101929190910190611ac0565b5080610a3b81612670565b9150506109e1565b5050565b600354610100900460ff1680610a60575060035460ff16155b610a7c5760405162461bcd60e51b81526004016102c2906123ec565b600354610100900460ff16158015610a9e576003805461ffff19166101011790555b610aa7846112f7565b600480546001600160a01b0319166001600160a01b0387161790556000600b556102f98383611385565b610ad96113ac565b151560011415610aee57610aee8383836113e6565b505050565b8015610b3a57610b016113ac565b15156001146107ca5760405162461bcd60e51b8152602060048201526005602482015264454332352d60d81b60448201526064016102c2565b610b426113ac565b156107ca5760405162461bcd60e51b8152602060048201526005602482015264454332342d60d81b60448201526064016102c2565b610b7f611556565b565b60006005819055600680546001600160a01b0319169055600781905560088190556009819055600a55565b81610bb681611562565b8684610bc28282611599565b6005548814610bfb5760405162461bcd60e51b8152602060048201526005602482015264454333352d60d81b60448201526064016102c2565b60405163432f9a5560e01b815273__SignatureLibrary______________________9063432f9a5590610c42908c908c908c908c908c908c906000906001906004016122c3565b60206040518083038186803b158015610c5a57600080fd5b505af4158015610c6e573d6000803e3d6000fd5b505050506040513d601f19601f82011682018060405250810190610c929190612087565b1515600114610ccb5760405162461bcd60e51b8152602060048201526005602482015264454333322d60d81b60448201526064016102c2565b610d0089876001600160a01b03909116600090815260026020908152604080832093835292905220805460ff19166001179055565b505050505050505050565b6001610d1681610af3565b60055483906000610d2783836115f5565b905060008111610d615760405162461bcd60e51b8152602060048201526005602482015264454332332d60d81b60448201526064016102c2565b6000610d72876005600001546115f5565b90508515610d9a578060056004016000828254610d8f91906124a3565b90915550610db49050565b80600580016000828254610dae91906124a3565b90915550505b600554610dc2908883611632565b60055460408051918252871515602083015281018290526001600160a01b038816907f50f654d58981575c05e369cb129aeacb01e1b036af429380242cfc5d1a4b743f9060600160405180910390a2610e1961166e565b50505050505050565b73__AddressLibrary________________________63f4ce9ae873__Library_______________________________63caa8f58984600081518110610e6957610e696126cb565b60200260200101516040518263ffffffff1660e01b8152600401610e8d9190612398565b60006040518083038186803b158015610ea557600080fd5b505af4158015610eb9573d6000803e3d6000fd5b505050506040513d6000823e601f3d908101601f19168201604052610ee19190810190611f28565b600081518110610ef357610ef36126cb565b60200260200101516040518263ffffffff1660e01b8152600401610f1991815260200190565b60206040518083038186803b158015610f3157600080fd5b505af4158015610f45573d6000803e3d6000fd5b505050506040513d601f19601f82011682018060405250810190610f699190611c59565b6001600160a01b038116610a435760405162461bcd60e51b8152602060048201526005602482015264454332312d60d81b60448201526064016102c2565b6000610fb281610af3565b60045433906000906001600160a01b0316821415610fd257506001611109565b6000610fdd83611742565b90506000600360029054906101000a90046001600160a01b03166001600160a01b031663e220ad956040518163ffffffff1660e01b815260040160006040518083038186803b15801561102f57600080fd5b505afa158015611043573d6000803e3d6000fd5b505050506040513d6000823e601f3d908101601f1916820160405261106b9190810190611e83565b60078151811061107d5761107d6126cb565b60200260200101516001600160a01b031663b049473f6040518163ffffffff1660e01b815260040160606040518083038186803b1580156110bd57600080fd5b505afa1580156110d1573d6000803e3d6000fd5b505050506040513d601f19601f820116820180604052508101906110f59190612106565b925050508082111561110657600192505b50505b6001811515146111435760405162461bcd60e51b8152602060048201526005602482015264454332322d60d81b60448201526064016102c2565b600080600360029054906101000a90046001600160a01b03166001600160a01b031663e220ad956040518163ffffffff1660e01b815260040160006040518083038186803b15801561119457600080fd5b505afa1580156111a8573d6000803e3d6000fd5b505050506040513d6000823e601f3d908101601f191682016040526111d09190810190611e83565b6007815181106111e2576111e26126cb565b60200260200101516001600160a01b031663b049473f6040518163ffffffff1660e01b815260040160606040518083038186803b15801561122257600080fd5b505afa158015611236573d6000803e3d6000fd5b505050506040513d601f19601f8201168201806040525081019061125a9190612106565b50600680546001600160a01b03191633179055909250905061127c82426124a3565b6007556008819055600b8054600581905590600061129983612670565b90915550506006546005546007546008546040516001600160a01b03909416937f472501d19bf75639b2e316cd36f8568b0c3ab943b82a87de3c086c98c1929df9936112e8939092909161243a565b60405180910390a25050505050565b600354610100900460ff1680611310575060035460ff16155b61132c5760405162461bcd60e51b81526004016102c2906123ec565b600354610100900460ff1615801561134e576003805461ffff19166101011790555b6003805462010000600160b01b031916620100006001600160a01b038516021790558015610a43576003805461ff00191690555050565b8151611398906000906020850190611ac0565b508051610aee906001906020840190611ac0565b6007546000904210156113bf5750600190565b6006546001600160a01b0316156113e0576113d8610b77565b6113e0610b81565b50600090565b6001600160a01b0383161580159061142257506005546000908152600c602090815260408083206001600160a01b038716845290915290205415155b15610aee576005546000908152600c602090815260408083206001600160a01b0387168452909152902054819081111561147e57506005546000908152600c602090815260408083206001600160a01b03871684529091529020545b6005546000908152600c602090815260408083206001600160a01b0388168452909152812080548392906114b3908490612601565b90915550506001600160a01b03831615611502576005546000908152600c602090815260408083206001600160a01b0387168452909152812080548392906114fc9084906124a3565b90915550505b600554604080516001600160a01b038088168252861660208201529081018390527f65fbd5e5dd32bea4aeca85bd0be0abf0e489d655dee888a7510d43b06dda2dba9060600160405180910390a250505050565b610b7f600d6000611b44565b8042106107ca5760405162461bcd60e51b8152602060048201526005602482015264454333332d60d81b60448201526064016102c2565b6001600160a01b038216600090815260026020908152604080832084845290915290205460ff1615610a435760405162461bcd60e51b8152602060048201526005602482015264454333342d60d81b60448201526064016102c2565b6000818152600c602090815260408083206001600160a01b038616845290915281205461162184611742565b61162b9190612601565b9392505050565b6000838152600c602090815260408083206001600160a01b0386168452909152812080548392906116649084906124a3565b9091555050505050565b600854600954106116dd57611681611863565b611689610b81565b600654600554600954600a546040516001600160a01b03909416937f23ca0034cf5aad32571b4a492e9598ea8a490e1643a60970e3cdc6933b55e49f936116d3939092909161243a565b60405180910390a2565b600854600a5410610b7f576116f0610b77565b6116f8610b81565b600654600554600954600a546040516001600160a01b03909416937fa58eb6daa3c62c3f883973c4035e5bd3e81aa627c8379de068a7de42df122be2936116d3939092909161243a565b6000600360029054906101000a90046001600160a01b03166001600160a01b031663e220ad956040518163ffffffff1660e01b815260040160006040518083038186803b15801561179257600080fd5b505afa1580156117a6573d6000803e3d6000fd5b505050506040513d6000823e601f3d908101601f191682016040526117ce9190810190611e83565b6003815181106117e0576117e06126cb565b60200260200101516001600160a01b03166370a08231836040518263ffffffff1660e01b81526004016118139190612295565b60206040518083038186803b15801561182b57600080fd5b505afa15801561183f573d6000803e3d6000fd5b505050506040513d601f19601f8201168201806040525081019061045891906120bd565b610b776000611870611971565b9050600073__AddressLibrary________________________63f4ce9ae8836000815181106118a1576118a16126cb565b60200260200101516040518263ffffffff1660e01b81526004016118c791815260200190565b60206040518083038186803b1580156118df57600080fd5b505af41580156118f3573d6000803e3d6000fd5b505050506040513d601f19601f820116820180604052508101906119179190611c59565b600e80546001600160a01b0319166001600160a01b0383161790556040519091507fe08b34098bd9a7db19810e36803d50bdcf85ca58118d07b4ef3705811d8303b590611965908390612295565b60405180910390a15050565b600d546060906000906001600160401b03811115611991576119916126e1565b6040519080825280602002602001820160405280156119ba578160200160208202803683370190505b50905060005b600d54811015611aba5773__Library_______________________________63caa8f589600d83815481106119f7576119f76126cb565b906000526020600020016040518263ffffffff1660e01b8152600401611a1d91906123ab565b60006040518083038186803b158015611a3557600080fd5b505af4158015611a49573d6000803e3d6000fd5b505050506040513d6000823e601f3d908101601f19168201604052611a719190810190611f28565b600081518110611a8357611a836126cb565b6020026020010151828281518110611a9d57611a9d6126cb565b602090810291909101015280611ab281612670565b9150506119c0565b50919050565b828054611acc9061263b565b90600052602060002090601f016020900481019282611aee5760008555611b34565b82601f10611b0757805160ff1916838001178555611b34565b82800160010185558215611b34579182015b82811115611b34578251825591602001919060010190611b19565b50611b40929150611b62565b5090565b50805460008255906000526020600020908101906107ca9190611b77565b5b80821115611b405760008155600101611b63565b80821115611b40576000611b8b8282611b94565b50600101611b77565b508054611ba09061263b565b6000825580601f10611bb0575050565b601f0160209004906000526020600020908101906107ca9190611b62565b600082601f830112611bdf57600080fd5b81356001600160401b03811115611bf857611bf86126e1565b611c0b601f8201601f1916602001612450565b818152846020838601011115611c2057600080fd5b816020850160208301376000918101602001919091529392505050565b80516001600160501b0381168114611c5457600080fd5b919050565b600060208284031215611c6b57600080fd5b815161162b816126f7565b600080600080600060a08688031215611c8e57600080fd5b8535611c99816126f7565b94506020860135611ca9816126f7565b93506040860135611cb9816126f7565b925060608601356001600160401b0380821115611cd557600080fd5b611ce189838a01611bce565b93506080880135915080821115611cf757600080fd5b50611d0488828901611bce565b9150509295509295909350565b60008060008060808587031215611d2757600080fd5b8435611d32816126f7565b93506020850135611d42816126f7565b925060408501356001600160401b0380821115611d5e57600080fd5b611d6a88838901611bce565b93506060870135915080821115611d8057600080fd5b50611d8d87828801611bce565b91505092959194509250565b600080600060608486031215611dae57600080fd5b8335611db9816126f7565b92506020840135611dc9816126f7565b929592945050506040919091013590565b60008060408385031215611ded57600080fd5b8235611df8816126f7565b946020939093013593505050565b60008060008060008060c08789031215611e1f57600080fd5b8635611e2a816126f7565b9550602087013594506040870135611e418161270c565b9350606087013592506080870135915060a08701356001600160401b03811115611e6a57600080fd5b611e7689828a01611bce565b9150509295509295509295565b60006020808385031215611e9657600080fd5b82516001600160401b03811115611eac57600080fd5b8301601f81018513611ebd57600080fd5b8051611ed0611ecb82612480565b612450565b80828252848201915084840188868560051b8701011115611ef057600080fd5b600094505b83851015611f1c578051611f08816126f7565b835260019490940193918501918501611ef5565b50979650505050505050565b60006020808385031215611f3b57600080fd5b82516001600160401b03811115611f5157600080fd5b8301601f81018513611f6257600080fd5b8051611f70611ecb82612480565b80828252848201915084840188868560051b8701011115611f9057600080fd5b600094505b83851015611f1c578051835260019490940193918501918501611f95565b60006020808385031215611fc657600080fd5b82356001600160401b0380821115611fdd57600080fd5b818501915085601f830112611ff157600080fd5b8135611fff611ecb82612480565b80828252858201915085850189878560051b880101111561201f57600080fd5b6000805b8581101561205a57823587811115612039578283fd5b6120478d8b838c0101611bce565b8652509388019391880191600101612023565b50919a9950505050505050505050565b60006020828403121561207c57600080fd5b813561162b8161270c565b60006020828403121561209957600080fd5b815161162b8161270c565b6000602082840312156120b657600080fd5b5035919050565b6000602082840312156120cf57600080fd5b5051919050565b600080604083850312156120e957600080fd5b8235915060208301356120fb816126f7565b809150509250929050565b60008060006060848603121561211b57600080fd5b8351925060208401519150604084015190509250925092565b600080600080600060a0868803121561214c57600080fd5b61215586611c3d565b945060208601519350604086015192506060860151915061217860808701611c3d565b90509295509295909350565b60006020828403121561219657600080fd5b815160ff8116811461162b57600080fd5b6000815180845260005b818110156121cd576020818501810151868301820152016121b1565b818111156121df576000602083870101525b50601f01601f19169290920160200192915050565b8054600090600181811c908083168061220e57607f831692505b602080841082141561223057634e487b7160e01b600052602260045260246000fd5b838852818015612247576001811461225b57612289565b60ff19861689830152604089019650612289565b876000528160002060005b868110156122815781548b8201850152908501908301612266565b8a0183019750505b50505050505092915050565b6001600160a01b0391909116815260200190565b6001600160a01b0392831681529116602082015260400190565b600061010060018060a01b038b16835289602084015288151560408401528760608401528660808401528060a08401526122ff818401876121a7565b905082810360c084015261231381866121f4565b905082810360e084015261232781856121f4565b9b9a5050505050505050505050565b6000602080830181845280855180835260408601915060408160051b870101925083870160005b8281101561238b57603f198886030184526123798583516121a7565b9450928501929085019060010161235d565b5092979650505050505050565b60208152600061162b60208301846121a7565b60208152600061162b60208301846121f4565b6040815260006123d160408301856121a7565b82810360208401526123e381856121a7565b95945050505050565b6020808252602e908201527f496e697469616c697a61626c653a20636f6e747261637420697320616c72656160408201526d191e481a5b9a5d1a585b1a5e995960921b606082015260800190565b9283526020830191909152604082015260600190565b604051601f8201601f191681016001600160401b0381118282101715612478576124786126e1565b604052919050565b60006001600160401b03821115612499576124996126e1565b5060051b60200190565b600082198211156124b6576124b661269f565b500190565b600060ff821660ff84168060ff038211156124d8576124d861269f565b019392505050565b6000826124ef576124ef6126b5565b500490565b600181815b8085111561252f5781600019048211156125155761251561269f565b8085161561252257918102915b93841c93908002906124f9565b509250929050565b600061162b60ff84168360008261255057506001610458565b8161255d57506000610458565b8160018114612573576002811461257d57612599565b6001915050610458565b60ff84111561258e5761258e61269f565b50506001821b610458565b5060208310610133831016604e8410600b84101617156125bc575081810a610458565b6125c683836124f4565b80600019048211156125da576125da61269f565b029392505050565b60008160001904831182151516156125fc576125fc61269f565b500290565b6000828210156126135761261361269f565b500390565b600060ff821660ff8416808210156126325761263261269f565b90039392505050565b600181811c9082168061264f57607f821691505b60208210811415611aba57634e487b7160e01b600052602260045260246000fd5b60006000198214156126845761268461269f565b5060010190565b60008261269a5761269a6126b5565b500690565b634e487b7160e01b600052601160045260246000fd5b634e487b7160e01b600052601260045260246000fd5b634e487b7160e01b600052603260045260246000fd5b634e487b7160e01b600052604160045260246000fd5b6001600160a01b03811681146107ca57600080fd5b80151581146107ca57600080fdfea26469706673582212201dc7605b8822db95a4bf7737594c1953b9337f75cd933e18e04029f0e984ccfd64736f6c63430008070033",
  "immutableReferences": {},
  "source": "// SPDX-License-Identifier: GPL-3.0\r\n\r\npragma solidity 0.8.7;\r\n\r\n/**\r\n Price Converter is an interface to the Chain Link Price Registry for USD to ETH exchange\r\n */\r\n\r\nimport \"../Interfaces/IPriceConverter.sol\";\r\nimport \"../Base/StdPropositionBaseContract.sol\";\r\nimport \"@chainlink/contracts/src/v0.8/interfaces/FeedRegistryInterface.sol\";\r\nimport \"@chainlink/contracts/src/v0.8/Denominations.sol\";\r\n\r\n\r\ncontract PriceConverter is IPriceConverter, StdPropositionBaseContract {\r\n\r\n    // EVENTS /////////////////////////////////////////\r\n    event _NewRegistryAddress(address Registry);\r\n\r\n    // DATA /////////////////////////////////////////\r\n    FeedRegistryInterface internal _registry;\r\n    uint8 constant _ETHDecimals = 18;\r\n    uint8 constant _USDDecimals = 2;\r\n\r\n    // MODIFIERS /////////////////////////////////////////\r\n    modifier isAddressOK(address addr){\r\n        require(address(0) != addr, \"EC21-\");\r\n        _;\r\n    }\r\n\r\n    // CONSTRUCTOR /////////////////////////////////////////\r\n    function PriceConverter_init(address registry, address managerContractAddress, address chairPerson, string memory contractName, string memory contractVersion) public initializer \r\n    {\r\n        super.StdPropositionBaseContract_init(chairPerson, managerContractAddress, contractName, contractVersion);\r\n        _registry = FeedRegistryInterface(registry);\r\n    }\r\n\r\n    // GOVERNANCE /////////////////////////////////////////\r\n    function checkProposition(bytes[] memory NewValues) internal override \r\n        isAddressOK(AddressLibrary.Bytes32ToAddress(Library.BytestoBytes32(NewValues[0])[0]))\r\n    {}\r\n\r\n    function UpdateAll() internal override\r\n    {\r\n        bytes32[] memory ProposedNewValues = PropositionsToBytes32();\r\n        address NewRegistryAddress = AddressLibrary.Bytes32ToAddress(ProposedNewValues[0]);\r\n        _registry = FeedRegistryInterface(NewRegistryAddress);\r\n        emit _NewRegistryAddress(NewRegistryAddress);\r\n    }\r\n\r\n    // FUNCTIONALITY /////////////////////////////////////////\r\n    function fromUSDToETH(uint _USDamount) external override view returns (uint) {\r\n        uint8 decimals = _registry.decimals(Denominations.ETH, Denominations.USD);\r\n        (,int price,,,) = _registry.latestRoundData(Denominations.ETH, Denominations.USD);\r\n\r\n        uint256 amount = 10**(decimals + _ETHDecimals - _USDDecimals) * _USDamount / uint(price);\r\n        uint256 remainder = 10**(decimals + _ETHDecimals - _USDDecimals) * _USDamount % uint(price);\r\n\r\n        if(remainder > 0) amount += 1;\r\n\r\n        return amount;\r\n    }\r\n\r\n    function retrieveSettings() external override view returns(address)\r\n    {\r\n        return address(_registry);\r\n    }\r\n\r\n}",
  "sourcePath": "C:\\Users\\d-aam\\GitHub\\Certificates\\contracts\\DeployedContracts\\PriceConverter.sol",
  "compiler": {
    "name": "solc",
    "version": "0.8.7+commit.e28d00a7.Emscripten.clang"
  },
  "schemaVersion": "3.4.3",
  "updatedAt": "2022-01-20T13:57:50.865Z",
  "devdoc": {
    "kind": "dev",
    "methods": {},
    "version": 1
  },
  "userdoc": {
    "kind": "user",
    "methods": {},
    "version": 1
  }
}