{
  "contractName": "PriceConverter",
  "abi": [
    {
      "anonymous": false,
      "inputs": [
        {
          "indexed": false,
          "internalType": "uint256",
          "name": "Id",
          "type": "uint256"
        },
        {
          "indexed": true,
          "internalType": "address",
          "name": "Proposer",
          "type": "address"
        },
        {
          "indexed": false,
          "internalType": "uint256",
          "name": "Deadline",
          "type": "uint256"
        },
        {
          "indexed": false,
          "internalType": "uint256",
          "name": "Threshold",
          "type": "uint256"
        }
      ],
      "name": "_AddedProposition",
      "type": "event"
    },
    {
      "anonymous": false,
      "inputs": [
        {
          "indexed": false,
          "internalType": "uint256",
          "name": "Id",
          "type": "uint256"
        },
        {
          "indexed": true,
          "internalType": "address",
          "name": "Proposer",
          "type": "address"
        }
      ],
      "name": "_CancelledProposition",
      "type": "event"
    },
    {
      "anonymous": false,
      "inputs": [
        {
          "indexed": false,
          "internalType": "address",
          "name": "Registry",
          "type": "address"
        }
      ],
      "name": "_NewRegistryAddress",
      "type": "event"
    },
    {
      "anonymous": false,
      "inputs": [
        {
          "indexed": false,
          "internalType": "uint256",
          "name": "Id",
          "type": "uint256"
        },
        {
          "indexed": true,
          "internalType": "address",
          "name": "Proposer",
          "type": "address"
        },
        {
          "indexed": false,
          "internalType": "uint256",
          "name": "VotesFor",
          "type": "uint256"
        },
        {
          "indexed": false,
          "internalType": "uint256",
          "name": "VotesAgainst",
          "type": "uint256"
        }
      ],
      "name": "_PropositionApproved",
      "type": "event"
    },
    {
      "anonymous": false,
      "inputs": [
        {
          "indexed": false,
          "internalType": "uint256",
          "name": "Id",
          "type": "uint256"
        },
        {
          "indexed": true,
          "internalType": "address",
          "name": "Proposer",
          "type": "address"
        },
        {
          "indexed": false,
          "internalType": "uint256",
          "name": "VotesFor",
          "type": "uint256"
        },
        {
          "indexed": false,
          "internalType": "uint256",
          "name": "VotesAgainst",
          "type": "uint256"
        }
      ],
      "name": "_PropositionRejected",
      "type": "event"
    },
    {
      "anonymous": false,
      "inputs": [
        {
          "indexed": false,
          "internalType": "uint256",
          "name": "Id",
          "type": "uint256"
        },
        {
          "indexed": true,
          "internalType": "address",
          "name": "Voter",
          "type": "address"
        },
        {
          "indexed": false,
          "internalType": "bool",
          "name": "Vote",
          "type": "bool"
        },
        {
          "indexed": false,
          "internalType": "uint256",
          "name": "AmountTokens",
          "type": "uint256"
        }
      ],
      "name": "_PropositionVote",
      "type": "event"
    },
    {
      "anonymous": false,
      "inputs": [
        {
          "indexed": true,
          "internalType": "uint256",
          "name": "Id",
          "type": "uint256"
        },
        {
          "indexed": false,
          "internalType": "address",
          "name": "From",
          "type": "address"
        },
        {
          "indexed": false,
          "internalType": "address",
          "name": "To",
          "type": "address"
        },
        {
          "indexed": false,
          "internalType": "uint256",
          "name": "Amount",
          "type": "uint256"
        }
      ],
      "name": "_UsedTokensTransfered",
      "type": "event"
    },
    {
      "inputs": [
        {
          "internalType": "address",
          "name": "chairPerson",
          "type": "address"
        },
        {
          "internalType": "address",
          "name": "managerContractAddress",
          "type": "address"
        },
        {
          "internalType": "string",
          "name": "contractName",
          "type": "string"
        },
        {
          "internalType": "string",
          "name": "contractVersion",
          "type": "string"
        }
      ],
      "name": "ExternalRegistryBaseContract_init",
      "outputs": [],
      "stateMutability": "nonpayable",
      "type": "function"
    },
    {
      "inputs": [],
      "name": "cancelProposition",
      "outputs": [],
      "stateMutability": "nonpayable",
      "type": "function"
    },
    {
      "inputs": [
        {
          "internalType": "address",
          "name": "from",
          "type": "address"
        },
        {
          "internalType": "address",
          "name": "to",
          "type": "address"
        },
        {
          "internalType": "uint256",
          "name": "amount",
          "type": "uint256"
        }
      ],
      "name": "onTokenBalanceChanged",
      "outputs": [],
      "stateMutability": "nonpayable",
      "type": "function"
    },
    {
      "inputs": [],
      "name": "retrieveChairPerson",
      "outputs": [
        {
          "internalType": "address",
          "name": "",
          "type": "address"
        }
      ],
      "stateMutability": "view",
      "type": "function",
      "constant": true
    },
    {
      "inputs": [],
      "name": "retrieveContractConfig",
      "outputs": [
        {
          "internalType": "string",
          "name": "",
          "type": "string"
        },
        {
          "internalType": "string",
          "name": "",
          "type": "string"
        }
      ],
      "stateMutability": "view",
      "type": "function",
      "constant": true
    },
    {
      "inputs": [],
      "name": "retrieveManagerContract",
      "outputs": [
        {
          "internalType": "address",
          "name": "",
          "type": "address"
        }
      ],
      "stateMutability": "view",
      "type": "function",
      "constant": true
    },
    {
      "inputs": [],
      "name": "retrieveNextPropId",
      "outputs": [
        {
          "internalType": "uint256",
          "name": "",
          "type": "uint256"
        }
      ],
      "stateMutability": "view",
      "type": "function",
      "constant": true
    },
    {
      "inputs": [
        {
          "internalType": "address",
          "name": "addr",
          "type": "address"
        },
        {
          "internalType": "uint256",
          "name": "nonce",
          "type": "uint256"
        }
      ],
      "name": "retrieveNonce",
      "outputs": [
        {
          "internalType": "bool",
          "name": "",
          "type": "bool"
        }
      ],
      "stateMutability": "view",
      "type": "function",
      "constant": true
    },
    {
      "inputs": [],
      "name": "retrieveProposition",
      "outputs": [
        {
          "internalType": "bytes32[]",
          "name": "",
          "type": "bytes32[]"
        }
      ],
      "stateMutability": "view",
      "type": "function",
      "constant": true
    },
    {
      "inputs": [],
      "name": "retrievePropositionStatus",
      "outputs": [
        {
          "internalType": "address",
          "name": "",
          "type": "address"
        },
        {
          "internalType": "uint256",
          "name": "",
          "type": "uint256"
        },
        {
          "internalType": "uint256",
          "name": "",
          "type": "uint256"
        },
        {
          "internalType": "uint256",
          "name": "",
          "type": "uint256"
        },
        {
          "internalType": "uint256",
          "name": "",
          "type": "uint256"
        }
      ],
      "stateMutability": "view",
      "type": "function",
      "constant": true
    },
    {
      "inputs": [
        {
          "internalType": "uint256",
          "name": "PropId",
          "type": "uint256"
        },
        {
          "internalType": "address",
          "name": "voter",
          "type": "address"
        }
      ],
      "name": "retrieveVotesForVoter",
      "outputs": [
        {
          "internalType": "uint256",
          "name": "",
          "type": "uint256"
        }
      ],
      "stateMutability": "view",
      "type": "function",
      "constant": true
    },
    {
      "inputs": [
        {
          "internalType": "address",
          "name": "NewRegistryAddress",
          "type": "address"
        },
        {
          "internalType": "bytes32[]",
          "name": "NewOthers",
          "type": "bytes32[]"
        }
      ],
      "name": "update",
      "outputs": [],
      "stateMutability": "nonpayable",
      "type": "function"
    },
    {
      "inputs": [
        {
          "internalType": "bool",
          "name": "vote",
          "type": "bool"
        }
      ],
      "name": "voteProposition",
      "outputs": [],
      "stateMutability": "nonpayable",
      "type": "function"
    },
    {
      "inputs": [
        {
          "internalType": "address",
          "name": "voter",
          "type": "address"
        },
        {
          "internalType": "uint256",
          "name": "propID",
          "type": "uint256"
        },
        {
          "internalType": "bool",
          "name": "vote",
          "type": "bool"
        },
        {
          "internalType": "uint256",
          "name": "nonce",
          "type": "uint256"
        },
        {
          "internalType": "uint256",
          "name": "deadline",
          "type": "uint256"
        },
        {
          "internalType": "bytes",
          "name": "signature",
          "type": "bytes"
        }
      ],
      "name": "votePropositionOnBehalfOf",
      "outputs": [],
      "stateMutability": "nonpayable",
      "type": "function"
    },
    {
      "inputs": [
        {
          "internalType": "address",
          "name": "registry",
          "type": "address"
        },
        {
          "internalType": "address",
          "name": "managerContractAddress",
          "type": "address"
        },
        {
          "internalType": "address",
          "name": "chairPerson",
          "type": "address"
        },
        {
          "internalType": "string",
          "name": "contractName",
          "type": "string"
        },
        {
          "internalType": "string",
          "name": "contractVersion",
          "type": "string"
        }
      ],
      "name": "PriceConverter_init",
      "outputs": [],
      "stateMutability": "nonpayable",
      "type": "function"
    },
    {
      "inputs": [],
      "name": "retrieveRegistryAddress",
      "outputs": [
        {
          "internalType": "address",
          "name": "",
          "type": "address"
        }
      ],
      "stateMutability": "view",
      "type": "function",
      "constant": true
    },
    {
      "inputs": [
        {
          "internalType": "uint256",
          "name": "_USDamount",
          "type": "uint256"
        }
      ],
      "name": "fromUSDToETH",
      "outputs": [
        {
          "internalType": "uint256",
          "name": "",
          "type": "uint256"
        }
      ],
      "stateMutability": "view",
      "type": "function",
      "constant": true
    }
  ],
  "bytecode": "0x608060405234801561001057600080fd5b5061232b806100206000396000f3fe608060405234801561001057600080fd5b50600436106100db5760003560e01c806304cc67a9146100e05780631e7feef1146100f75780633c7df55d1461010c5780633feca4ca1461011f5780634044adb21461014257806355457ee9146101785780635b362e8414610180578063612032a6146101a05780637faa3d6f146101b3578063840f6d17146101c65780638d12420b1461020757806391f916711461021a578063a93316f51461022d578063d2116a0214610242578063db85bc4d14610258578063e1f5f85814610269578063ed67335b1461027a575b600080fd5b600b545b6040519081526020015b60405180910390f35b61010a610105366004611a5a565b61028d565b005b61010a61011a366004611ae2565b610312565b61013261012d366004611be4565b610412565b60405190151581526020016100ee565b6100e4610150366004611d0d565b6000918252600c602090815260408084206001600160a01b0393909316845291905290205490565b61010a610440565b6003546201000090046001600160a01b03165b6040516100ee9190611ed1565b61010a6101ae3660046119bf565b610512565b61010a6101c1366004611c10565b6105aa565b600654600754600854600954600a54604080516001600160a01b0390961686526020860194909452928401919091526060830152608082015260a0016100ee565b6100e4610215366004611cf4565b6105c2565b61010a610228366004611ca1565b61079a565b6102356107a7565b6040516100ee9190611f72565b61024a610931565b6040516100ee929190611fb6565b6004546001600160a01b0316610193565b600e546001600160a01b0316610193565b61010a610288366004611b23565b610a58565b600354610100900460ff16806102a6575060035460ff16155b6102cb5760405162461bcd60e51b81526004016102c290611fe4565b60405180910390fd5b600354610100900460ff161580156102ed576003805461ffff19166101011790555b6102f985858585610a80565b801561030b576003805461ff00191690555b5050505050565b3373__Library_______________________________6337ea306382600360029054906101000a90046001600160a01b03166001600160a01b031663da3dce266040518163ffffffff1660e01b815260040160206040518083038186803b15801561037c57600080fd5b505afa158015610390573d6000803e3d6000fd5b505050506040513d601f19601f820116820180604052508101906103b491906119a2565b6040518363ffffffff1660e01b81526004016103d1929190611ee5565b60006040518083038186803b1580156103e957600080fd5b505af41580156103fd573d6000803e3d6000fd5b5050505061040c848484610b0a565b50505050565b6001600160a01b038216600090815260026020908152604080832084845290915290205460ff165b92915050565b600161044b81610b2c565b6006546040516337ea306360e01b8152339173__Library_______________________________916337ea3063916104919185916001600160a01b031690600401611ee5565b60006040518083038186803b1580156104a957600080fd5b505af41580156104bd573d6000803e3d6000fd5b505050506104c9610bb0565b6006546005546040519081526001600160a01b03909116907f1fe8aec10c0a50fa765076161e08c1f961ced69594ff45cf7d559f593afe14799060200160405180910390a25050565b600354610100900460ff168061052b575060035460ff16155b6105475760405162461bcd60e51b81526004016102c290611fe4565b600354610100900460ff16158015610569576003805461ffff19166101011790555b6105758486858561028d565b600e80546001600160a01b0319166001600160a01b03881617905580156105a2576003805461ff00191690555b505050505050565b6105b8868686868686610bdb565b6105a28685610d3a565b600e54604051630b1c5a7560e31b815260009182916001600160a01b03909116906358e2d3a89061060f9073eeeeeeeeeeeeeeeeeeeeeeeeeeeeeeeeeeeeeeee9061034890600401611ee5565b60206040518083038186803b15801561062757600080fd5b505afa15801561063b573d6000803e3d6000fd5b505050506040513d601f19601f8201168201806040525081019061065f9190611dc9565b600e5460405163bcfd032d60e01b81529192506000916001600160a01b039091169063bcfd032d906106ad9073eeeeeeeeeeeeeeeeeeeeeeeeeeeeeeeeeeeeeeee9061034890600401611ee5565b60a06040518083038186803b1580156106c557600080fd5b505afa1580156106d9573d6000803e3d6000fd5b505050506040513d601f19601f820116820180604052508101906106fd9190611d79565b5050509150506000818560026012866107169190612090565b61072091906121ed565b61072b90600a61210c565b61073591906121b7565b61073f91906120b5565b9050600082866002610752601288612090565b61075c91906121ed565b61076790600a61210c565b61077191906121b7565b61077b9190612266565b905080156107915761078e600183612078565b91505b50949350505050565b6107a43382610d3a565b50565b606060006107c060408051600081526020810190915290565b90506000815160016107d29190612078565b6001600160401b038111156107e9576107e96122bc565b604051908082528060200260200182016040528015610812578160200160208202803683370190505b50600d5460405163bc215e8560e01b815291925073__AddressLibrary________________________9163bc215e859161085a916001600160a01b0390911690600401611ed1565b60206040518083038186803b15801561087257600080fd5b505af4158015610886573d6000803e3d6000fd5b505050506040513d601f19601f820116820180604052508101906108aa9190611cdb565b816000815181106108bd576108bd6122a6565b60200260200101818152505060005b825181101561092a578281815181106108e7576108e76122a6565b6020026020010151828260016108fd9190612078565b8151811061090d5761090d6122a6565b6020908102919091010152806109228161224b565b9150506108cc565b5092915050565b6060806000600181805461094490612210565b80601f016020809104026020016040519081016040528092919081815260200182805461097090612210565b80156109bd5780601f10610992576101008083540402835291602001916109bd565b820191906000526020600020905b8154815290600101906020018083116109a057829003601f168201915b505050505091508080546109d090612210565b80601f01602080910402602001604051908101604052809291908181526020018280546109fc90612210565b8015610a495780601f10610a1e57610100808354040283529160200191610a49565b820191906000526020600020905b815481529060010190602001808311610a2c57829003601f168201915b50505050509050915091509091565b610a60610e51565b600d80546001600160a01b0319166001600160a01b0384161790555b5050565b600354610100900460ff1680610a99575060035460ff16155b610ab55760405162461bcd60e51b81526004016102c290611fe4565b600354610100900460ff16158015610ad7576003805461ffff19166101011790555b610ae0846111a5565b600480546001600160a01b0319166001600160a01b0387161790556000600b556102f98383611233565b610b1261125a565b151560011415610b2757610b27838383611294565b505050565b8015610b7357610b3a61125a565b15156001146107a45760405162461bcd60e51b8152602060048201526005602482015264454332352d60d81b60448201526064016102c2565b610b7b61125a565b156107a45760405162461bcd60e51b8152602060048201526005602482015264454332342d60d81b60448201526064016102c2565b60006005819055600680546001600160a01b0319169055600781905560088190556009819055600a55565b81610be581611404565b8684610bf1828261143b565b6005548814610c2a5760405162461bcd60e51b8152602060048201526005602482015264454333352d60d81b60448201526064016102c2565b60405163432f9a5560e01b815273__SignatureLibrary______________________9063432f9a5590610c71908c908c908c908c908c908c90600090600190600401611eff565b60206040518083038186803b158015610c8957600080fd5b505af4158015610c9d573d6000803e3d6000fd5b505050506040513d601f19601f82011682018060405250810190610cc19190611cbe565b1515600114610cfa5760405162461bcd60e51b8152602060048201526005602482015264454333322d60d81b60448201526064016102c2565b610d2f89876001600160a01b03909116600090815260026020908152604080832093835292905220805460ff19166001179055565b505050505050505050565b6001610d4581610b2c565b60055483906000610d568383611497565b905060008111610d905760405162461bcd60e51b8152602060048201526005602482015264454332332d60d81b60448201526064016102c2565b6000610da187600560000154611497565b90508515610dc9578060056004016000828254610dbe9190612078565b90915550610de39050565b80600580016000828254610ddd9190612078565b90915550505b600554610df19088836114d4565b60055460408051918252871515602083015281018290526001600160a01b038816907f50f654d58981575c05e369cb129aeacb01e1b036af429380242cfc5d1a4b743f9060600160405180910390a2610e48611510565b50505050505050565b6000610e5c81610b2c565b60045433906000906001600160a01b0316821415610e7c57506001610fb5565b6000610e87836115e6565b90506000600360029054906101000a90046001600160a01b03166001600160a01b03166387552a0d6040518163ffffffff1660e01b815260040160206040518083038186803b158015610ed957600080fd5b505afa158015610eed573d6000803e3d6000fd5b505050506040513d601f19601f82011682018060405250810190610f1191906119a2565b6001600160a01b031663b049473f6040518163ffffffff1660e01b815260040160606040518083038186803b158015610f4957600080fd5b505afa158015610f5d573d6000803e3d6000fd5b505050506040513d601f19601f82011682018060405250810190610f819190611d3d565b925050506064610f8f6116e9565b610f9c9060ff84166121b7565b610fa691906120b5565b821115610fb257600192505b50505b600181151514610fef5760405162461bcd60e51b8152602060048201526005602482015264454332322d60d81b60448201526064016102c2565b600080600360029054906101000a90046001600160a01b03166001600160a01b03166387552a0d6040518163ffffffff1660e01b815260040160206040518083038186803b15801561104057600080fd5b505afa158015611054573d6000803e3d6000fd5b505050506040513d601f19601f8201168201806040525081019061107891906119a2565b6001600160a01b031663b049473f6040518163ffffffff1660e01b815260040160606040518083038186803b1580156110b057600080fd5b505afa1580156110c4573d6000803e3d6000fd5b505050506040513d601f19601f820116820180604052508101906110e89190611d3d565b50600680546001600160a01b03191633179055909250905061110a8242612078565b600755606460ff821661111b6116e9565b61112591906121b7565b61112f91906120b5565b600855600b805460058190559060006111478361224b565b90915550506006546005546007546008546040516001600160a01b03909416937f472501d19bf75639b2e316cd36f8568b0c3ab943b82a87de3c086c98c1929df9936111969390929091612032565b60405180910390a25050505050565b600354610100900460ff16806111be575060035460ff16155b6111da5760405162461bcd60e51b81526004016102c290611fe4565b600354610100900460ff161580156111fc576003805461ffff19166101011790555b6003805462010000600160b01b031916620100006001600160a01b038516021790558015610a7c576003805461ff00191690555050565b8151611246906000906020850190611865565b508051610b27906001906020840190611865565b60075460009042101561126d5750600190565b6006546001600160a01b03161561128e576112866117e6565b61128e610bb0565b50600090565b6001600160a01b038316158015906112d057506005546000908152600c602090815260408083206001600160a01b038716845290915290205415155b15610b27576005546000908152600c602090815260408083206001600160a01b0387168452909152902054819081111561132c57506005546000908152600c602090815260408083206001600160a01b03871684529091529020545b6005546000908152600c602090815260408083206001600160a01b0388168452909152812080548392906113619084906121d6565b90915550506001600160a01b038316156113b0576005546000908152600c602090815260408083206001600160a01b0387168452909152812080548392906113aa908490612078565b90915550505b600554604080516001600160a01b038088168252861660208201529081018390527f65fbd5e5dd32bea4aeca85bd0be0abf0e489d655dee888a7510d43b06dda2dba9060600160405180910390a250505050565b8042106107a45760405162461bcd60e51b8152602060048201526005602482015264454333332d60d81b60448201526064016102c2565b6001600160a01b038216600090815260026020908152604080832084845290915290205460ff1615610a7c5760405162461bcd60e51b8152602060048201526005602482015264454333342d60d81b60448201526064016102c2565b6000818152600c602090815260408083206001600160a01b03861684529091528120546114c3846115e6565b6114cd91906121d6565b9392505050565b6000838152600c602090815260408083206001600160a01b038616845290915281208054839290611506908490612078565b9091555050505050565b6008546009541061157f576115236117ee565b61152b610bb0565b600654600554600954600a546040516001600160a01b03909416937f23ca0034cf5aad32571b4a492e9598ea8a490e1643a60970e3cdc6933b55e49f936115759390929091612032565b60405180910390a2565b600854600a54106115e4576115926117e6565b61159a610bb0565b600654600554600954600a546040516001600160a01b03909416937fa58eb6daa3c62c3f883973c4035e5bd3e81aa627c8379de068a7de42df122be2936115759390929091612032565b565b6000600360029054906101000a90046001600160a01b03166001600160a01b031663da3dce266040518163ffffffff1660e01b815260040160206040518083038186803b15801561163657600080fd5b505afa15801561164a573d6000803e3d6000fd5b505050506040513d601f19601f8201168201806040525081019061166e91906119a2565b6001600160a01b03166370a08231836040518263ffffffff1660e01b81526004016116999190611ed1565b60206040518083038186803b1580156116b157600080fd5b505afa1580156116c5573d6000803e3d6000fd5b505050506040513d601f19601f8201168201806040525081019061043a9190611cdb565b6000600360029054906101000a90046001600160a01b03166001600160a01b031663da3dce266040518163ffffffff1660e01b815260040160206040518083038186803b15801561173957600080fd5b505afa15801561174d573d6000803e3d6000fd5b505050506040513d601f19601f8201168201806040525081019061177191906119a2565b6001600160a01b03166318160ddd6040518163ffffffff1660e01b815260040160206040518083038186803b1580156117a957600080fd5b505afa1580156117bd573d6000803e3d6000fd5b505050506040513d601f19601f820116820180604052508101906117e19190611cdb565b905090565b6115e46117f6565b6117e661180c565b600d80546001600160a01b03191690556115e480565b600d54600e80546001600160a01b0319166001600160a01b0390921691821790556040517fe08b34098bd9a7db19810e36803d50bdcf85ca58118d07b4ef3705811d8303b59161185b91611ed1565b60405180910390a1565b82805461187190612210565b90600052602060002090601f01602090048101928261189357600085556118d9565b82601f106118ac57805160ff19168380011785556118d9565b828001600101855582156118d9579182015b828111156118d95782518255916020019190600101906118be565b506118e59291506118e9565b5090565b5b808211156118e557600081556001016118ea565b60006001600160401b03831115611917576119176122bc565b61192a601f8401601f1916602001612048565b905082815283838301111561193e57600080fd5b828260208301376000602084830101529392505050565b600082601f83011261196657600080fd5b6114cd838335602085016118fe565b80516001600160501b038116811461198c57600080fd5b919050565b805160ff8116811461198c57600080fd5b6000602082840312156119b457600080fd5b81516114cd816122d2565b600080600080600060a086880312156119d757600080fd5b85356119e2816122d2565b945060208601356119f2816122d2565b93506040860135611a02816122d2565b925060608601356001600160401b0380821115611a1e57600080fd5b611a2a89838a01611955565b93506080880135915080821115611a4057600080fd5b50611a4d88828901611955565b9150509295509295909350565b60008060008060808587031215611a7057600080fd5b8435611a7b816122d2565b93506020850135611a8b816122d2565b925060408501356001600160401b0380821115611aa757600080fd5b611ab388838901611955565b93506060870135915080821115611ac957600080fd5b50611ad687828801611955565b91505092959194509250565b600080600060608486031215611af757600080fd5b8335611b02816122d2565b92506020840135611b12816122d2565b929592945050506040919091013590565b60008060408385031215611b3657600080fd5b8235611b41816122d2565b91506020838101356001600160401b0380821115611b5e57600080fd5b818601915086601f830112611b7257600080fd5b813581811115611b8457611b846122bc565b8060051b9150611b95848301612048565b8181528481019084860184860187018b1015611bb057600080fd5b600095505b83861015611bd3578035835260019590950194918601918601611bb5565b508096505050505050509250929050565b60008060408385031215611bf757600080fd5b8235611c02816122d2565b946020939093013593505050565b60008060008060008060c08789031215611c2957600080fd5b8635611c34816122d2565b9550602087013594506040870135611c4b816122e7565b9350606087013592506080870135915060a08701356001600160401b03811115611c7457600080fd5b8701601f81018913611c8557600080fd5b611c94898235602084016118fe565b9150509295509295509295565b600060208284031215611cb357600080fd5b81356114cd816122e7565b600060208284031215611cd057600080fd5b81516114cd816122e7565b600060208284031215611ced57600080fd5b5051919050565b600060208284031215611d0657600080fd5b5035919050565b60008060408385031215611d2057600080fd5b823591506020830135611d32816122d2565b809150509250929050565b600080600060608486031215611d5257600080fd5b83519250611d6260208501611991565b9150611d7060408501611991565b90509250925092565b600080600080600060a08688031215611d9157600080fd5b611d9a86611975565b9450602086015193506040860151925060608601519150611dbd60808701611975565b90509295509295909350565b600060208284031215611ddb57600080fd5b6114cd82611991565b6000815180845260005b81811015611e0a57602081850181015186830182015201611dee565b81811115611e1c576000602083870101525b50601f01601f19169290920160200192915050565b8054600090600181811c9080831680611e4b57607f831692505b6020808410821415611e6d57634e487b7160e01b600052602260045260246000fd5b83885260208801828015611e885760018114611e9957611ec4565b60ff19871682528282019750611ec4565b60008981526020902060005b87811015611ebe57815484820152908601908401611ea5565b83019850505b5050505050505092915050565b6001600160a01b0391909116815260200190565b6001600160a01b0392831681529116602082015260400190565b600061010060018060a01b038b16835289602084015288151560408401528760608401528660808401528060a0840152611f3b81840187611de4565b905082810360c0840152611f4f8186611e31565b905082810360e0840152611f638185611e31565b9b9a5050505050505050505050565b6020808252825182820181905260009190848201906040850190845b81811015611faa57835183529284019291840191600101611f8e565b50909695505050505050565b604081526000611fc96040830185611de4565b8281036020840152611fdb8185611de4565b95945050505050565b6020808252602e908201527f496e697469616c697a61626c653a20636f6e747261637420697320616c72656160408201526d191e481a5b9a5d1a585b1a5e995960921b606082015260800190565b9283526020830191909152604082015260600190565b604051601f8201601f191681016001600160401b0381118282101715612070576120706122bc565b604052919050565b6000821982111561208b5761208b61227a565b500190565b600060ff821660ff84168060ff038211156120ad576120ad61227a565b019392505050565b6000826120c4576120c4612290565b500490565b600181815b808511156121045781600019048211156120ea576120ea61227a565b808516156120f757918102915b93841c93908002906120ce565b509250929050565b60006114cd60ff8416836000826121255750600161043a565b816121325750600061043a565b816001811461214857600281146121525761216e565b600191505061043a565b60ff8411156121635761216361227a565b50506001821b61043a565b5060208310610133831016604e8410600b8410161715612191575081810a61043a565b61219b83836120c9565b80600019048211156121af576121af61227a565b029392505050565b60008160001904831182151516156121d1576121d161227a565b500290565b6000828210156121e8576121e861227a565b500390565b600060ff821660ff8416808210156122075761220761227a565b90039392505050565b600181811c9082168061222457607f821691505b6020821081141561224557634e487b7160e01b600052602260045260246000fd5b50919050565b600060001982141561225f5761225f61227a565b5060010190565b60008261227557612275612290565b500690565b634e487b7160e01b600052601160045260246000fd5b634e487b7160e01b600052601260045260246000fd5b634e487b7160e01b600052603260045260246000fd5b634e487b7160e01b600052604160045260246000fd5b6001600160a01b03811681146107a457600080fd5b80151581146107a457600080fdfea264697066735822122031bed261679ab738b7ce8f1652d8d537892ccfdc60a5b88ab50708a55eabba2e64736f6c63430008070033",
  "immutableReferences": {},
  "source": "// SPDX-License-Identifier: GPL-3.0\r\n\r\npragma solidity 0.8.7;\r\n\r\n/**\r\n Price Converter is an interface to the Chain Link Price Registry for USD to ETH exchange\r\n */\r\n\r\nimport \"../Interfaces/IPriceConverter.sol\";\r\nimport \"../Base/ExternalRegistryBaseContract.sol\";\r\nimport \"@chainlink/contracts/src/v0.8/interfaces/FeedRegistryInterface.sol\";\r\nimport \"@chainlink/contracts/src/v0.8/Denominations.sol\";\r\n\r\n\r\ncontract PriceConverter is IPriceConverter, ExternalRegistryBaseContract {\r\n\r\n    // EVENTS /////////////////////////////////////////\r\n    event _NewRegistryAddress(address Registry);\r\n\r\n    // DATA /////////////////////////////////////////\r\n    FeedRegistryInterface internal _registry;\r\n    uint8 constant _ETHDecimals = 18;\r\n    uint8 constant _USDDecimals = 2;\r\n\r\n    // CONSTRUCTOR /////////////////////////////////////////\r\n    function PriceConverter_init(address registry, address managerContractAddress, address chairPerson, string memory contractName, string memory contractVersion) public initializer \r\n    {\r\n        super.ExternalRegistryBaseContract_init(chairPerson, managerContractAddress, contractName, contractVersion);\r\n        _registry = FeedRegistryInterface(registry);\r\n    }\r\n\r\n    // GOVERNANCE /////////////////////////////////////////\r\n    function UpdateAll() internal override\r\n    {\r\n        _registry = FeedRegistryInterface(_ProposedRegistryAddress);\r\n        emit _NewRegistryAddress(_ProposedRegistryAddress);\r\n    }\r\n\r\n    function retrieveRegistryAddress() external override view returns(address)\r\n    {\r\n        return address(_registry);\r\n    }\r\n\r\n    function updateOthers(bytes32[] memory NewOthers) internal override{}\r\n\r\n    function removePropositionPOST() internal override{}\r\n\r\n    function retrievePropositionOthers() internal override view returns(bytes32[] memory)\r\n    {\r\n        return new bytes32[](0);\r\n    }\r\n\r\n    // FUNCTIONALITY /////////////////////////////////////////\r\n    function fromUSDToETH(uint _USDamount) external override view returns (uint) {\r\n        uint8 decimals = _registry.decimals(Denominations.ETH, Denominations.USD);\r\n        (,int price,,,) = _registry.latestRoundData(Denominations.ETH, Denominations.USD);\r\n\r\n        uint256 amount = 10**(decimals + _ETHDecimals - _USDDecimals) * _USDamount / uint(price);\r\n        uint256 remainder = 10**(decimals + _ETHDecimals - _USDDecimals) * _USDamount % uint(price);\r\n\r\n        if(remainder > 0) amount += 1;\r\n\r\n        return amount;\r\n    }\r\n\r\n}",
  "sourcePath": "C:/Users/d-aam/GitHub/Certificates/contracts/DeployedContracts/PriceConverter.sol",
  "compiler": {
    "name": "solc",
    "version": "0.8.7+commit.e28d00a7.Emscripten.clang"
  },
  "schemaVersion": "3.3.4",
  "updatedAt": "2021-10-28T13:11:37.971Z",
  "networkType": "ethereum",
  "devdoc": {
    "kind": "dev",
    "methods": {},
    "version": 1
  },
  "userdoc": {
    "kind": "user",
    "methods": {},
    "version": 1
  }
}