{
  "contractName": "PriceConverter",
  "abi": [
    {
      "anonymous": false,
      "inputs": [
        {
          "indexed": false,
          "internalType": "uint256",
          "name": "Id",
          "type": "uint256"
        },
        {
          "indexed": true,
          "internalType": "address",
          "name": "Proposer",
          "type": "address"
        },
        {
          "indexed": false,
          "internalType": "uint256",
          "name": "Deadline",
          "type": "uint256"
        },
        {
          "indexed": false,
          "internalType": "uint256",
          "name": "Threshold",
          "type": "uint256"
        }
      ],
      "name": "_AddedProposition",
      "type": "event"
    },
    {
      "anonymous": false,
      "inputs": [
        {
          "indexed": false,
          "internalType": "uint256",
          "name": "Id",
          "type": "uint256"
        },
        {
          "indexed": true,
          "internalType": "address",
          "name": "Proposer",
          "type": "address"
        }
      ],
      "name": "_CancelledProposition",
      "type": "event"
    },
    {
      "anonymous": false,
      "inputs": [
        {
          "indexed": false,
          "internalType": "address",
          "name": "Registry",
          "type": "address"
        }
      ],
      "name": "_NewRegistryAddress",
      "type": "event"
    },
    {
      "anonymous": false,
      "inputs": [
        {
          "indexed": false,
          "internalType": "uint256",
          "name": "Id",
          "type": "uint256"
        },
        {
          "indexed": true,
          "internalType": "address",
          "name": "Proposer",
          "type": "address"
        },
        {
          "indexed": false,
          "internalType": "uint256",
          "name": "VotesFor",
          "type": "uint256"
        },
        {
          "indexed": false,
          "internalType": "uint256",
          "name": "VotesAgainst",
          "type": "uint256"
        }
      ],
      "name": "_PropositionApproved",
      "type": "event"
    },
    {
      "anonymous": false,
      "inputs": [
        {
          "indexed": false,
          "internalType": "uint256",
          "name": "Id",
          "type": "uint256"
        },
        {
          "indexed": true,
          "internalType": "address",
          "name": "Proposer",
          "type": "address"
        },
        {
          "indexed": false,
          "internalType": "uint256",
          "name": "VotesFor",
          "type": "uint256"
        },
        {
          "indexed": false,
          "internalType": "uint256",
          "name": "VotesAgainst",
          "type": "uint256"
        }
      ],
      "name": "_PropositionRejected",
      "type": "event"
    },
    {
      "anonymous": false,
      "inputs": [
        {
          "indexed": false,
          "internalType": "uint256",
          "name": "Id",
          "type": "uint256"
        },
        {
          "indexed": true,
          "internalType": "address",
          "name": "Voter",
          "type": "address"
        },
        {
          "indexed": false,
          "internalType": "bool",
          "name": "Vote",
          "type": "bool"
        },
        {
          "indexed": false,
          "internalType": "uint256",
          "name": "AmountTokens",
          "type": "uint256"
        }
      ],
      "name": "_PropositionVote",
      "type": "event"
    },
    {
      "anonymous": false,
      "inputs": [
        {
          "indexed": true,
          "internalType": "uint256",
          "name": "Id",
          "type": "uint256"
        },
        {
          "indexed": false,
          "internalType": "address",
          "name": "From",
          "type": "address"
        },
        {
          "indexed": false,
          "internalType": "address",
          "name": "To",
          "type": "address"
        },
        {
          "indexed": false,
          "internalType": "uint256",
          "name": "Amount",
          "type": "uint256"
        }
      ],
      "name": "_UsedTokensTransfered",
      "type": "event"
    },
    {
      "inputs": [
        {
          "internalType": "address",
          "name": "chairPerson",
          "type": "address"
        },
        {
          "internalType": "address",
          "name": "managerContractAddress",
          "type": "address"
        },
        {
          "internalType": "string",
          "name": "contractName",
          "type": "string"
        },
        {
          "internalType": "string",
          "name": "contractVersion",
          "type": "string"
        }
      ],
      "name": "StdPropositionBaseContract_init",
      "outputs": [],
      "stateMutability": "nonpayable",
      "type": "function"
    },
    {
      "inputs": [],
      "name": "cancelProposition",
      "outputs": [],
      "stateMutability": "nonpayable",
      "type": "function"
    },
    {
      "inputs": [
        {
          "internalType": "address",
          "name": "from",
          "type": "address"
        },
        {
          "internalType": "address",
          "name": "to",
          "type": "address"
        },
        {
          "internalType": "uint256",
          "name": "amount",
          "type": "uint256"
        }
      ],
      "name": "onTokenBalanceChanged",
      "outputs": [],
      "stateMutability": "nonpayable",
      "type": "function"
    },
    {
      "inputs": [],
      "name": "retrieveChairPerson",
      "outputs": [
        {
          "internalType": "address",
          "name": "",
          "type": "address"
        }
      ],
      "stateMutability": "view",
      "type": "function",
      "constant": true
    },
    {
      "inputs": [],
      "name": "retrieveContractConfig",
      "outputs": [
        {
          "internalType": "string",
          "name": "",
          "type": "string"
        },
        {
          "internalType": "string",
          "name": "",
          "type": "string"
        }
      ],
      "stateMutability": "view",
      "type": "function",
      "constant": true
    },
    {
      "inputs": [],
      "name": "retrieveManagerContract",
      "outputs": [
        {
          "internalType": "address",
          "name": "",
          "type": "address"
        }
      ],
      "stateMutability": "view",
      "type": "function",
      "constant": true
    },
    {
      "inputs": [],
      "name": "retrieveNextPropId",
      "outputs": [
        {
          "internalType": "uint256",
          "name": "",
          "type": "uint256"
        }
      ],
      "stateMutability": "view",
      "type": "function",
      "constant": true
    },
    {
      "inputs": [
        {
          "internalType": "address",
          "name": "addr",
          "type": "address"
        },
        {
          "internalType": "uint256",
          "name": "nonce",
          "type": "uint256"
        }
      ],
      "name": "retrieveNonce",
      "outputs": [
        {
          "internalType": "bool",
          "name": "",
          "type": "bool"
        }
      ],
      "stateMutability": "view",
      "type": "function",
      "constant": true
    },
    {
      "inputs": [],
      "name": "retrieveProposition",
      "outputs": [
        {
          "internalType": "bytes[]",
          "name": "",
          "type": "bytes[]"
        }
      ],
      "stateMutability": "view",
      "type": "function",
      "constant": true
    },
    {
      "inputs": [],
      "name": "retrievePropositionStatus",
      "outputs": [
        {
          "internalType": "address",
          "name": "",
          "type": "address"
        },
        {
          "internalType": "uint256",
          "name": "",
          "type": "uint256"
        },
        {
          "internalType": "uint256",
          "name": "",
          "type": "uint256"
        },
        {
          "internalType": "uint256",
          "name": "",
          "type": "uint256"
        },
        {
          "internalType": "uint256",
          "name": "",
          "type": "uint256"
        }
      ],
      "stateMutability": "view",
      "type": "function",
      "constant": true
    },
    {
      "inputs": [
        {
          "internalType": "uint256",
          "name": "PropId",
          "type": "uint256"
        },
        {
          "internalType": "address",
          "name": "voter",
          "type": "address"
        }
      ],
      "name": "retrieveVotesForVoter",
      "outputs": [
        {
          "internalType": "uint256",
          "name": "",
          "type": "uint256"
        }
      ],
      "stateMutability": "view",
      "type": "function",
      "constant": true
    },
    {
      "inputs": [
        {
          "internalType": "bytes[]",
          "name": "NewValues",
          "type": "bytes[]"
        }
      ],
      "name": "sendProposition",
      "outputs": [],
      "stateMutability": "nonpayable",
      "type": "function"
    },
    {
      "inputs": [
        {
          "internalType": "bool",
          "name": "vote",
          "type": "bool"
        }
      ],
      "name": "voteProposition",
      "outputs": [],
      "stateMutability": "nonpayable",
      "type": "function"
    },
    {
      "inputs": [
        {
          "internalType": "address",
          "name": "voter",
          "type": "address"
        },
        {
          "internalType": "uint256",
          "name": "propID",
          "type": "uint256"
        },
        {
          "internalType": "bool",
          "name": "vote",
          "type": "bool"
        },
        {
          "internalType": "uint256",
          "name": "nonce",
          "type": "uint256"
        },
        {
          "internalType": "uint256",
          "name": "deadline",
          "type": "uint256"
        },
        {
          "internalType": "bytes",
          "name": "signature",
          "type": "bytes"
        }
      ],
      "name": "votePropositionOnBehalfOf",
      "outputs": [],
      "stateMutability": "nonpayable",
      "type": "function"
    },
    {
      "inputs": [
        {
          "internalType": "address",
          "name": "registry",
          "type": "address"
        },
        {
          "internalType": "address",
          "name": "managerContractAddress",
          "type": "address"
        },
        {
          "internalType": "address",
          "name": "chairPerson",
          "type": "address"
        },
        {
          "internalType": "string",
          "name": "contractName",
          "type": "string"
        },
        {
          "internalType": "string",
          "name": "contractVersion",
          "type": "string"
        }
      ],
      "name": "PriceConverter_init",
      "outputs": [],
      "stateMutability": "nonpayable",
      "type": "function"
    },
    {
      "inputs": [
        {
          "internalType": "uint256",
          "name": "_USDamount",
          "type": "uint256"
        }
      ],
      "name": "fromUSDToETH",
      "outputs": [
        {
          "internalType": "uint256",
          "name": "",
          "type": "uint256"
        }
      ],
      "stateMutability": "view",
      "type": "function",
      "constant": true
    },
    {
      "inputs": [],
      "name": "retrieveSettings",
      "outputs": [
        {
          "internalType": "address",
          "name": "",
          "type": "address"
        }
      ],
      "stateMutability": "view",
      "type": "function",
      "constant": true
    }
  ],
  "bytecode": "0x608060405234801561001057600080fd5b506125f4806100206000396000f3fe608060405234801561001057600080fd5b50600436106100db5760003560e01c806304cc67a9146100e05780630f13bbc9146100f75780633c7df55d1461010c5780633feca4ca1461011f5780634044adb21461014257806355457ee9146101785780635b362e8414610180578063612032a6146101a05780637faa3d6f146101b3578063840f6d17146101c65780638d12420b1461020757806391f916711461021a578063a93316f51461022d578063b049473f14610242578063d2116a0214610253578063db85bc4d14610269578063e15aa3a61461027a575b600080fd5b600b545b6040519081526020015b60405180910390f35b61010a610105366004611c56565b61028d565b005b61010a61011a366004611cde565b610312565b61013261012d366004611d1f565b610412565b60405190151581526020016100ee565b6100e4610150366004611f87565b6000918252600c602090815260408084206001600160a01b0393909316845291905290205490565b61010a610440565b6003546201000090046001600160a01b03165b6040516100ee919061214c565b61010a6101ae366004611bbb565b610512565b61010a6101c1366004611d4b565b6105aa565b600654600754600854600954600a54604080516001600160a01b0390961686526020860194909452928401919091526060830152608082015260a0016100ee565b6100e4610215366004611f55565b6105c2565b61010a610228366004611f1b565b61079a565b6102356107a7565b6040516100ee91906121ed565b600e546001600160a01b0316610193565b61025b610880565b6040516100ee929190612262565b6004546001600160a01b0316610193565b61010a610288366004611e64565b6109a7565b600354610100900460ff16806102a6575060035460ff16155b6102cb5760405162461bcd60e51b81526004016102c290612290565b60405180910390fd5b600354610100900460ff161580156102ed576003805461ffff19166101011790555b6102f985858585610a18565b801561030b576003805461ff00191690555b5050505050565b3373__Library_______________________________6337ea306382600360029054906101000a90046001600160a01b03166001600160a01b031663da3dce266040518163ffffffff1660e01b815260040160206040518083038186803b15801561037c57600080fd5b505afa158015610390573d6000803e3d6000fd5b505050506040513d601f19601f820116820180604052508101906103b49190611b9e565b6040518363ffffffff1660e01b81526004016103d1929190612160565b60006040518083038186803b1580156103e957600080fd5b505af41580156103fd573d6000803e3d6000fd5b5050505061040c848484610aa2565b50505050565b6001600160a01b038216600090815260026020908152604080832084845290915290205460ff165b92915050565b600161044b81610ac4565b6006546040516337ea306360e01b8152339173__Library_______________________________916337ea3063916104919185916001600160a01b031690600401612160565b60006040518083038186803b1580156104a957600080fd5b505af41580156104bd573d6000803e3d6000fd5b505050506104c9610b48565b6006546005546040519081526001600160a01b03909116907f1fe8aec10c0a50fa765076161e08c1f961ced69594ff45cf7d559f593afe14799060200160405180910390a25050565b600354610100900460ff168061052b575060035460ff16155b6105475760405162461bcd60e51b81526004016102c290612290565b600354610100900460ff16158015610569576003805461ffff19166101011790555b6105758486858561028d565b600e80546001600160a01b0319166001600160a01b03881617905580156105a2576003805461ff00191690555b505050505050565b6105b8868686868686610b73565b6105a28685610cd2565b600e54604051630b1c5a7560e31b815260009182916001600160a01b03909116906358e2d3a89061060f9073eeeeeeeeeeeeeeeeeeeeeeeeeeeeeeeeeeeeeeee9061034890600401612160565b60206040518083038186803b15801561062757600080fd5b505afa15801561063b573d6000803e3d6000fd5b505050506040513d601f19601f8201168201806040525081019061065f9190612043565b600e5460405163bcfd032d60e01b81529192506000916001600160a01b039091169063bcfd032d906106ad9073eeeeeeeeeeeeeeeeeeeeeeeeeeeeeeeeeeeeeeee9061034890600401612160565b60a06040518083038186803b1580156106c557600080fd5b505afa1580156106d9573d6000803e3d6000fd5b505050506040513d601f19601f820116820180604052508101906106fd9190611ff3565b505050915050600081856002601286610716919061235f565b61072091906124bc565b61072b90600a6123db565b6107359190612486565b61073f9190612384565b905060008286600261075260128861235f565b61075c91906124bc565b61076790600a6123db565b6107719190612486565b61077b919061252f565b905080156107915761078e600183612347565b91505b50949350505050565b6107a43382610cd2565b50565b6060600d805480602002602001604051908101604052809291908181526020016000905b828210156108775783829060005260206000200180546107ea906124df565b80601f0160208091040260200160405190810160405280929190818152602001828054610816906124df565b80156108635780601f1061083857610100808354040283529160200191610863565b820191906000526020600020905b81548152906001019060200180831161084657829003601f168201915b5050505050815260200190600101906107cb565b50505050905090565b60608060006001818054610893906124df565b80601f01602080910402602001604051908101604052809291908181526020018280546108bf906124df565b801561090c5780601f106108e15761010080835404028352916020019161090c565b820191906000526020600020905b8154815290600101906020018083116108ef57829003601f168201915b5050505050915080805461091f906124df565b80601f016020809104026020016040519081016040528092919081815260200182805461094b906124df565b80156109985780601f1061096d57610100808354040283529160200191610998565b820191906000526020600020905b81548152906001019060200180831161097b57829003601f168201915b50505050509050915091509091565b6109af610de9565b60005b8151811015610a1457600d8282815181106109cf576109cf61256f565b60209081029190910181015182546001810184556000938452928290208151610a0194919091019291909101906119f4565b5080610a0c81612514565b9150506109b2565b5050565b600354610100900460ff1680610a31575060035460ff16155b610a4d5760405162461bcd60e51b81526004016102c290612290565b600354610100900460ff16158015610a6f576003805461ffff19166101011790555b610a788461113d565b600480546001600160a01b0319166001600160a01b0387161790556000600b556102f983836111cb565b610aaa6111f2565b151560011415610abf57610abf83838361122c565b505050565b8015610b0b57610ad26111f2565b15156001146107a45760405162461bcd60e51b8152602060048201526005602482015264454332352d60d81b60448201526064016102c2565b610b136111f2565b156107a45760405162461bcd60e51b8152602060048201526005602482015264454332342d60d81b60448201526064016102c2565b60006005819055600680546001600160a01b0319169055600781905560088190556009819055600a55565b81610b7d8161139c565b8684610b8982826113d3565b6005548814610bc25760405162461bcd60e51b8152602060048201526005602482015264454333352d60d81b60448201526064016102c2565b60405163432f9a5560e01b815273__SignatureLibrary______________________9063432f9a5590610c09908c908c908c908c908c908c9060009060019060040161217a565b60206040518083038186803b158015610c2157600080fd5b505af4158015610c35573d6000803e3d6000fd5b505050506040513d601f19601f82011682018060405250810190610c599190611f38565b1515600114610c925760405162461bcd60e51b8152602060048201526005602482015264454333322d60d81b60448201526064016102c2565b610cc789876001600160a01b03909116600090815260026020908152604080832093835292905220805460ff19166001179055565b505050505050505050565b6001610cdd81610ac4565b60055483906000610cee838361142f565b905060008111610d285760405162461bcd60e51b8152602060048201526005602482015264454332332d60d81b60448201526064016102c2565b6000610d398760056000015461142f565b90508515610d61578060056004016000828254610d569190612347565b90915550610d7b9050565b80600580016000828254610d759190612347565b90915550505b600554610d8990888361146c565b60055460408051918252871515602083015281018290526001600160a01b038816907f50f654d58981575c05e369cb129aeacb01e1b036af429380242cfc5d1a4b743f9060600160405180910390a2610de06114a8565b50505050505050565b6000610df481610ac4565b60045433906000906001600160a01b0316821415610e1457506001610f4d565b6000610e1f8361157e565b90506000600360029054906101000a90046001600160a01b03166001600160a01b03166387552a0d6040518163ffffffff1660e01b815260040160206040518083038186803b158015610e7157600080fd5b505afa158015610e85573d6000803e3d6000fd5b505050506040513d601f19601f82011682018060405250810190610ea99190611b9e565b6001600160a01b031663b049473f6040518163ffffffff1660e01b815260040160606040518083038186803b158015610ee157600080fd5b505afa158015610ef5573d6000803e3d6000fd5b505050506040513d601f19601f82011682018060405250810190610f199190611fb7565b925050506064610f27611681565b610f349060ff8416612486565b610f3e9190612384565b821115610f4a57600192505b50505b600181151514610f875760405162461bcd60e51b8152602060048201526005602482015264454332322d60d81b60448201526064016102c2565b600080600360029054906101000a90046001600160a01b03166001600160a01b03166387552a0d6040518163ffffffff1660e01b815260040160206040518083038186803b158015610fd857600080fd5b505afa158015610fec573d6000803e3d6000fd5b505050506040513d601f19601f820116820180604052508101906110109190611b9e565b6001600160a01b031663b049473f6040518163ffffffff1660e01b815260040160606040518083038186803b15801561104857600080fd5b505afa15801561105c573d6000803e3d6000fd5b505050506040513d601f19601f820116820180604052508101906110809190611fb7565b50600680546001600160a01b0319163317905590925090506110a28242612347565b600755606460ff82166110b3611681565b6110bd9190612486565b6110c79190612384565b600855600b805460058190559060006110df83612514565b90915550506006546005546007546008546040516001600160a01b03909416937f472501d19bf75639b2e316cd36f8568b0c3ab943b82a87de3c086c98c1929df99361112e93909290916122de565b60405180910390a25050505050565b600354610100900460ff1680611156575060035460ff16155b6111725760405162461bcd60e51b81526004016102c290612290565b600354610100900460ff16158015611194576003805461ffff19166101011790555b6003805462010000600160b01b031916620100006001600160a01b038516021790558015610a14576003805461ff00191690555050565b81516111de9060009060208501906119f4565b508051610abf9060019060208401906119f4565b6007546000904210156112055750600190565b6006546001600160a01b0316156112265761121e61177e565b611226610b48565b50600090565b6001600160a01b0383161580159061126857506005546000908152600c602090815260408083206001600160a01b038716845290915290205415155b15610abf576005546000908152600c602090815260408083206001600160a01b038716845290915290205481908111156112c457506005546000908152600c602090815260408083206001600160a01b03871684529091529020545b6005546000908152600c602090815260408083206001600160a01b0388168452909152812080548392906112f99084906124a5565b90915550506001600160a01b03831615611348576005546000908152600c602090815260408083206001600160a01b038716845290915281208054839290611342908490612347565b90915550505b600554604080516001600160a01b038088168252861660208201529081018390527f65fbd5e5dd32bea4aeca85bd0be0abf0e489d655dee888a7510d43b06dda2dba9060600160405180910390a250505050565b8042106107a45760405162461bcd60e51b8152602060048201526005602482015264454333332d60d81b60448201526064016102c2565b6001600160a01b038216600090815260026020908152604080832084845290915290205460ff1615610a145760405162461bcd60e51b8152602060048201526005602482015264454333342d60d81b60448201526064016102c2565b6000818152600c602090815260408083206001600160a01b038616845290915281205461145b8461157e565b61146591906124a5565b9392505050565b6000838152600c602090815260408083206001600160a01b03861684529091528120805483929061149e908490612347565b9091555050505050565b60085460095410611517576114bb611786565b6114c3610b48565b600654600554600954600a546040516001600160a01b03909416937f23ca0034cf5aad32571b4a492e9598ea8a490e1643a60970e3cdc6933b55e49f9361150d93909290916122de565b60405180910390a2565b600854600a541061157c5761152a61177e565b611532610b48565b600654600554600954600a546040516001600160a01b03909416937fa58eb6daa3c62c3f883973c4035e5bd3e81aa627c8379de068a7de42df122be29361150d93909290916122de565b565b6000600360029054906101000a90046001600160a01b03166001600160a01b031663da3dce266040518163ffffffff1660e01b815260040160206040518083038186803b1580156115ce57600080fd5b505afa1580156115e2573d6000803e3d6000fd5b505050506040513d601f19601f820116820180604052508101906116069190611b9e565b6001600160a01b03166370a08231836040518263ffffffff1660e01b8152600401611631919061214c565b60206040518083038186803b15801561164957600080fd5b505afa15801561165d573d6000803e3d6000fd5b505050506040513d601f19601f8201168201806040525081019061043a9190611f6e565b6000600360029054906101000a90046001600160a01b03166001600160a01b031663da3dce266040518163ffffffff1660e01b815260040160206040518083038186803b1580156116d157600080fd5b505afa1580156116e5573d6000803e3d6000fd5b505050506040513d601f19601f820116820180604052508101906117099190611b9e565b6001600160a01b03166318160ddd6040518163ffffffff1660e01b815260040160206040518083038186803b15801561174157600080fd5b505afa158015611755573d6000803e3d6000fd5b505050506040513d601f19601f820116820180604052508101906117799190611f6e565b905090565b61157c61178e565b61177e61179a565b61157c600d6000611a78565b60006117a46118a5565b9050600073__AddressLibrary________________________63f4ce9ae8836000815181106117d5576117d561256f565b60200260200101516040518263ffffffff1660e01b81526004016117fb91815260200190565b60206040518083038186803b15801561181357600080fd5b505af4158015611827573d6000803e3d6000fd5b505050506040513d601f19601f8201168201806040525081019061184b9190611b9e565b600e80546001600160a01b0319166001600160a01b0383161790556040519091507fe08b34098bd9a7db19810e36803d50bdcf85ca58118d07b4ef3705811d8303b59061189990839061214c565b60405180910390a15050565b600d546060906000906001600160401b038111156118c5576118c5612585565b6040519080825280602002602001820160405280156118ee578160200160208202803683370190505b50905060005b600d548110156119ee5773__Library_______________________________63caa8f589600d838154811061192b5761192b61256f565b906000526020600020016040518263ffffffff1660e01b8152600401611951919061224f565b60006040518083038186803b15801561196957600080fd5b505af415801561197d573d6000803e3d6000fd5b505050506040513d6000823e601f3d908101601f191682016040526119a59190810190611dc8565b6000815181106119b7576119b761256f565b60200260200101518282815181106119d1576119d161256f565b6020908102919091010152806119e681612514565b9150506118f4565b50919050565b828054611a00906124df565b90600052602060002090601f016020900481019282611a225760008555611a68565b82601f10611a3b57805160ff1916838001178555611a68565b82800160010185558215611a68579182015b82811115611a68578251825591602001919060010190611a4d565b50611a74929150611a96565b5090565b50805460008255906000526020600020908101906107a49190611aab565b5b80821115611a745760008155600101611a97565b80821115611a74576000611abf8282611ac8565b50600101611aab565b508054611ad4906124df565b6000825580601f10611ae4575050565b601f0160209004906000526020600020908101906107a49190611a96565b600082601f830112611b1357600080fd5b81356001600160401b03811115611b2c57611b2c612585565b611b3f601f8201601f19166020016122f4565b818152846020838601011115611b5457600080fd5b816020850160208301376000918101602001919091529392505050565b80516001600160501b0381168114611b8857600080fd5b919050565b805160ff81168114611b8857600080fd5b600060208284031215611bb057600080fd5b81516114658161259b565b600080600080600060a08688031215611bd357600080fd5b8535611bde8161259b565b94506020860135611bee8161259b565b93506040860135611bfe8161259b565b925060608601356001600160401b0380821115611c1a57600080fd5b611c2689838a01611b02565b93506080880135915080821115611c3c57600080fd5b50611c4988828901611b02565b9150509295509295909350565b60008060008060808587031215611c6c57600080fd5b8435611c778161259b565b93506020850135611c878161259b565b925060408501356001600160401b0380821115611ca357600080fd5b611caf88838901611b02565b93506060870135915080821115611cc557600080fd5b50611cd287828801611b02565b91505092959194509250565b600080600060608486031215611cf357600080fd5b8335611cfe8161259b565b92506020840135611d0e8161259b565b929592945050506040919091013590565b60008060408385031215611d3257600080fd5b8235611d3d8161259b565b946020939093013593505050565b60008060008060008060c08789031215611d6457600080fd5b8635611d6f8161259b565b9550602087013594506040870135611d86816125b0565b9350606087013592506080870135915060a08701356001600160401b03811115611daf57600080fd5b611dbb89828a01611b02565b9150509295509295509295565b60006020808385031215611ddb57600080fd5b82516001600160401b03811115611df157600080fd5b8301601f81018513611e0257600080fd5b8051611e15611e1082612324565b6122f4565b80828252848201915084840188868560051b8701011115611e3557600080fd5b600094505b83851015611e58578051835260019490940193918501918501611e3a565b50979650505050505050565b60006020808385031215611e7757600080fd5b82356001600160401b0380821115611e8e57600080fd5b818501915085601f830112611ea257600080fd5b8135611eb0611e1082612324565b80828252858201915085850189878560051b8801011115611ed057600080fd5b6000805b85811015611f0b57823587811115611eea578283fd5b611ef88d8b838c0101611b02565b8652509388019391880191600101611ed4565b50919a9950505050505050505050565b600060208284031215611f2d57600080fd5b8135611465816125b0565b600060208284031215611f4a57600080fd5b8151611465816125b0565b600060208284031215611f6757600080fd5b5035919050565b600060208284031215611f8057600080fd5b5051919050565b60008060408385031215611f9a57600080fd5b823591506020830135611fac8161259b565b809150509250929050565b600080600060608486031215611fcc57600080fd5b83519250611fdc60208501611b8d565b9150611fea60408501611b8d565b90509250925092565b600080600080600060a0868803121561200b57600080fd5b61201486611b71565b945060208601519350604086015192506060860151915061203760808701611b71565b90509295509295909350565b60006020828403121561205557600080fd5b61146582611b8d565b6000815180845260005b8181101561208457602081850181015186830182015201612068565b81811115612096576000602083870101525b50601f01601f19169290920160200192915050565b8054600090600181811c90808316806120c557607f831692505b60208084108214156120e757634e487b7160e01b600052602260045260246000fd5b8388528180156120fe576001811461211257612140565b60ff19861689830152604089019650612140565b876000528160002060005b868110156121385781548b820185015290850190830161211d565b8a0183019750505b50505050505092915050565b6001600160a01b0391909116815260200190565b6001600160a01b0392831681529116602082015260400190565b600061010060018060a01b038b16835289602084015288151560408401528760608401528660808401528060a08401526121b68184018761205e565b905082810360c08401526121ca81866120ab565b905082810360e08401526121de81856120ab565b9b9a5050505050505050505050565b6000602080830181845280855180835260408601915060408160051b870101925083870160005b8281101561224257603f1988860301845261223085835161205e565b94509285019290850190600101612214565b5092979650505050505050565b60208152600061146560208301846120ab565b604081526000612275604083018561205e565b8281036020840152612287818561205e565b95945050505050565b6020808252602e908201527f496e697469616c697a61626c653a20636f6e747261637420697320616c72656160408201526d191e481a5b9a5d1a585b1a5e995960921b606082015260800190565b9283526020830191909152604082015260600190565b604051601f8201601f191681016001600160401b038111828210171561231c5761231c612585565b604052919050565b60006001600160401b0382111561233d5761233d612585565b5060051b60200190565b6000821982111561235a5761235a612543565b500190565b600060ff821660ff84168060ff0382111561237c5761237c612543565b019392505050565b60008261239357612393612559565b500490565b600181815b808511156123d35781600019048211156123b9576123b9612543565b808516156123c657918102915b93841c939080029061239d565b509250929050565b600061146560ff8416836000826123f45750600161043a565b816124015750600061043a565b816001811461241757600281146124215761243d565b600191505061043a565b60ff84111561243257612432612543565b50506001821b61043a565b5060208310610133831016604e8410600b8410161715612460575081810a61043a565b61246a8383612398565b806000190482111561247e5761247e612543565b029392505050565b60008160001904831182151516156124a0576124a0612543565b500290565b6000828210156124b7576124b7612543565b500390565b600060ff821660ff8416808210156124d6576124d6612543565b90039392505050565b600181811c908216806124f357607f821691505b602082108114156119ee57634e487b7160e01b600052602260045260246000fd5b600060001982141561252857612528612543565b5060010190565b60008261253e5761253e612559565b500690565b634e487b7160e01b600052601160045260246000fd5b634e487b7160e01b600052601260045260246000fd5b634e487b7160e01b600052603260045260246000fd5b634e487b7160e01b600052604160045260246000fd5b6001600160a01b03811681146107a457600080fd5b80151581146107a457600080fdfea264697066735822122075fee0257e56ab29f2d4e4fd175cd5c6d9279057bcf5463e25cda2934b624c9764736f6c63430008070033",
  "immutableReferences": {},
  "source": "// SPDX-License-Identifier: GPL-3.0\r\n\r\npragma solidity 0.8.7;\r\n\r\n/**\r\n Price Converter is an interface to the Chain Link Price Registry for USD to ETH exchange\r\n */\r\n\r\nimport \"../Interfaces/IPriceConverter.sol\";\r\nimport \"../Base/StdPropositionBaseContract.sol\";\r\nimport \"@chainlink/contracts/src/v0.8/interfaces/FeedRegistryInterface.sol\";\r\nimport \"@chainlink/contracts/src/v0.8/Denominations.sol\";\r\n\r\n\r\ncontract PriceConverter is IPriceConverter, StdPropositionBaseContract {\r\n\r\n    // EVENTS /////////////////////////////////////////\r\n    event _NewRegistryAddress(address Registry);\r\n\r\n    // DATA /////////////////////////////////////////\r\n    FeedRegistryInterface internal _registry;\r\n    uint8 constant _ETHDecimals = 18;\r\n    uint8 constant _USDDecimals = 2;\r\n\r\n    // CONSTRUCTOR /////////////////////////////////////////\r\n    function PriceConverter_init(address registry, address managerContractAddress, address chairPerson, string memory contractName, string memory contractVersion) public initializer \r\n    {\r\n        super.StdPropositionBaseContract_init(chairPerson, managerContractAddress, contractName, contractVersion);\r\n        _registry = FeedRegistryInterface(registry);\r\n    }\r\n\r\n    // GOVERNANCE /////////////////////////////////////////\r\n    function UpdateAll() internal override\r\n    {\r\n        bytes32[] memory ProposedNewValues = PropositionsToBytes32();\r\n\r\n        address NewRegistryAddress = AddressLibrary.Bytes32ToAddress(ProposedNewValues[0]);\r\n\r\n        _registry = FeedRegistryInterface(NewRegistryAddress);\r\n\r\n        emit _NewRegistryAddress(NewRegistryAddress);\r\n    }\r\n\r\n    // FUNCTIONALITY /////////////////////////////////////////\r\n    function fromUSDToETH(uint _USDamount) external override view returns (uint) {\r\n        uint8 decimals = _registry.decimals(Denominations.ETH, Denominations.USD);\r\n        (,int price,,,) = _registry.latestRoundData(Denominations.ETH, Denominations.USD);\r\n\r\n        uint256 amount = 10**(decimals + _ETHDecimals - _USDDecimals) * _USDamount / uint(price);\r\n        uint256 remainder = 10**(decimals + _ETHDecimals - _USDDecimals) * _USDamount % uint(price);\r\n\r\n        if(remainder > 0) amount += 1;\r\n\r\n        return amount;\r\n    }\r\n\r\n    function retrieveSettings() external override view returns(address)\r\n    {\r\n        return address(_registry);\r\n    }\r\n\r\n}",
  "sourcePath": "C:/Users/d-aam/GitHub/Certificates/contracts/DeployedContracts/PriceConverter.sol",
  "compiler": {
    "name": "solc",
    "version": "0.8.7+commit.e28d00a7.Emscripten.clang"
  },
  "schemaVersion": "3.3.4",
  "updatedAt": "2021-11-02T07:11:27.780Z",
  "networkType": "ethereum",
  "devdoc": {
    "kind": "dev",
    "methods": {},
    "version": 1
  },
  "userdoc": {
    "kind": "user",
    "methods": {},
    "version": 1
  }
}