{
  "contractName": "PriceConverter",
  "abi": [
    {
      "anonymous": false,
      "inputs": [
        {
          "indexed": false,
          "internalType": "uint256",
          "name": "Id",
          "type": "uint256"
        },
        {
          "indexed": true,
          "internalType": "address",
          "name": "Proposer",
          "type": "address"
        },
        {
          "indexed": false,
          "internalType": "uint256",
          "name": "Deadline",
          "type": "uint256"
        },
        {
          "indexed": false,
          "internalType": "uint256",
          "name": "Threshold",
          "type": "uint256"
        }
      ],
      "name": "_AddedProposition",
      "type": "event"
    },
    {
      "anonymous": false,
      "inputs": [
        {
          "indexed": false,
          "internalType": "uint256",
          "name": "Id",
          "type": "uint256"
        },
        {
          "indexed": true,
          "internalType": "address",
          "name": "Proposer",
          "type": "address"
        }
      ],
      "name": "_CancelledProposition",
      "type": "event"
    },
    {
      "anonymous": false,
      "inputs": [
        {
          "indexed": false,
          "internalType": "address",
          "name": "Registry",
          "type": "address"
        }
      ],
      "name": "_NewRegistryAddress",
      "type": "event"
    },
    {
      "anonymous": false,
      "inputs": [
        {
          "indexed": false,
          "internalType": "uint256",
          "name": "Id",
          "type": "uint256"
        },
        {
          "indexed": true,
          "internalType": "address",
          "name": "Proposer",
          "type": "address"
        },
        {
          "indexed": false,
          "internalType": "uint256",
          "name": "VotesFor",
          "type": "uint256"
        },
        {
          "indexed": false,
          "internalType": "uint256",
          "name": "VotesAgainst",
          "type": "uint256"
        }
      ],
      "name": "_PropositionApproved",
      "type": "event"
    },
    {
      "anonymous": false,
      "inputs": [
        {
          "indexed": false,
          "internalType": "uint256",
          "name": "Id",
          "type": "uint256"
        },
        {
          "indexed": true,
          "internalType": "address",
          "name": "Proposer",
          "type": "address"
        },
        {
          "indexed": false,
          "internalType": "uint256",
          "name": "VotesFor",
          "type": "uint256"
        },
        {
          "indexed": false,
          "internalType": "uint256",
          "name": "VotesAgainst",
          "type": "uint256"
        }
      ],
      "name": "_PropositionRejected",
      "type": "event"
    },
    {
      "anonymous": false,
      "inputs": [
        {
          "indexed": false,
          "internalType": "uint256",
          "name": "Id",
          "type": "uint256"
        },
        {
          "indexed": true,
          "internalType": "address",
          "name": "Voter",
          "type": "address"
        },
        {
          "indexed": false,
          "internalType": "bool",
          "name": "Vote",
          "type": "bool"
        },
        {
          "indexed": false,
          "internalType": "uint256",
          "name": "AmountTokens",
          "type": "uint256"
        }
      ],
      "name": "_PropositionVote",
      "type": "event"
    },
    {
      "anonymous": false,
      "inputs": [
        {
          "indexed": true,
          "internalType": "uint256",
          "name": "Id",
          "type": "uint256"
        },
        {
          "indexed": false,
          "internalType": "address",
          "name": "From",
          "type": "address"
        },
        {
          "indexed": false,
          "internalType": "address",
          "name": "To",
          "type": "address"
        },
        {
          "indexed": false,
          "internalType": "uint256",
          "name": "Amount",
          "type": "uint256"
        }
      ],
      "name": "_UsedTokensTransfered",
      "type": "event"
    },
    {
      "inputs": [],
      "name": "cancelProposition",
      "outputs": [],
      "stateMutability": "nonpayable",
      "type": "function"
    },
    {
      "inputs": [],
      "name": "isCurrentPropositionProp",
      "outputs": [
        {
          "internalType": "bool",
          "name": "",
          "type": "bool"
        }
      ],
      "stateMutability": "view",
      "type": "function"
    },
    {
      "inputs": [
        {
          "internalType": "address",
          "name": "from",
          "type": "address"
        },
        {
          "internalType": "address",
          "name": "to",
          "type": "address"
        },
        {
          "internalType": "uint256",
          "name": "amount",
          "type": "uint256"
        }
      ],
      "name": "onTokenBalanceChanged",
      "outputs": [],
      "stateMutability": "nonpayable",
      "type": "function"
    },
    {
      "inputs": [],
      "name": "retrieveChairPerson",
      "outputs": [
        {
          "internalType": "address",
          "name": "",
          "type": "address"
        }
      ],
      "stateMutability": "view",
      "type": "function"
    },
    {
      "inputs": [],
      "name": "retrieveContractConfig",
      "outputs": [
        {
          "internalType": "string",
          "name": "",
          "type": "string"
        },
        {
          "internalType": "string",
          "name": "",
          "type": "string"
        }
      ],
      "stateMutability": "view",
      "type": "function"
    },
    {
      "inputs": [],
      "name": "retrieveManagerContract",
      "outputs": [
        {
          "internalType": "address",
          "name": "",
          "type": "address"
        }
      ],
      "stateMutability": "view",
      "type": "function"
    },
    {
      "inputs": [],
      "name": "retrieveNextPropId",
      "outputs": [
        {
          "internalType": "uint256",
          "name": "",
          "type": "uint256"
        }
      ],
      "stateMutability": "view",
      "type": "function"
    },
    {
      "inputs": [
        {
          "internalType": "address",
          "name": "addr",
          "type": "address"
        },
        {
          "internalType": "uint256",
          "name": "nonce",
          "type": "uint256"
        }
      ],
      "name": "retrieveNonce",
      "outputs": [
        {
          "internalType": "bool",
          "name": "",
          "type": "bool"
        }
      ],
      "stateMutability": "view",
      "type": "function"
    },
    {
      "inputs": [],
      "name": "retrievePendingPropConfig",
      "outputs": [
        {
          "internalType": "uint256",
          "name": "",
          "type": "uint256"
        },
        {
          "internalType": "uint8",
          "name": "",
          "type": "uint8"
        },
        {
          "internalType": "uint8",
          "name": "",
          "type": "uint8"
        },
        {
          "internalType": "bool",
          "name": "",
          "type": "bool"
        }
      ],
      "stateMutability": "view",
      "type": "function"
    },
    {
      "inputs": [],
      "name": "retrievePropConfig",
      "outputs": [
        {
          "internalType": "uint256",
          "name": "",
          "type": "uint256"
        },
        {
          "internalType": "uint8",
          "name": "",
          "type": "uint8"
        },
        {
          "internalType": "uint8",
          "name": "",
          "type": "uint8"
        }
      ],
      "stateMutability": "view",
      "type": "function"
    },
    {
      "inputs": [],
      "name": "retrievePropositionStatus",
      "outputs": [
        {
          "internalType": "address",
          "name": "",
          "type": "address"
        },
        {
          "internalType": "uint256",
          "name": "",
          "type": "uint256"
        },
        {
          "internalType": "uint256",
          "name": "",
          "type": "uint256"
        },
        {
          "internalType": "uint256",
          "name": "",
          "type": "uint256"
        },
        {
          "internalType": "uint256",
          "name": "",
          "type": "uint256"
        }
      ],
      "stateMutability": "view",
      "type": "function"
    },
    {
      "inputs": [
        {
          "internalType": "uint256",
          "name": "PropId",
          "type": "uint256"
        },
        {
          "internalType": "address",
          "name": "voter",
          "type": "address"
        }
      ],
      "name": "retrieveVotesForVoter",
      "outputs": [
        {
          "internalType": "uint256",
          "name": "",
          "type": "uint256"
        }
      ],
      "stateMutability": "view",
      "type": "function"
    },
    {
      "inputs": [
        {
          "internalType": "uint256",
          "name": "PropLifeTime",
          "type": "uint256"
        },
        {
          "internalType": "uint8",
          "name": "PropThresholdPerc",
          "type": "uint8"
        },
        {
          "internalType": "uint8",
          "name": "minWeightToPropPerc",
          "type": "uint8"
        }
      ],
      "name": "updateProp",
      "outputs": [],
      "stateMutability": "nonpayable",
      "type": "function"
    },
    {
      "inputs": [
        {
          "internalType": "bool",
          "name": "vote",
          "type": "bool"
        }
      ],
      "name": "voteProposition",
      "outputs": [],
      "stateMutability": "nonpayable",
      "type": "function"
    },
    {
      "inputs": [
        {
          "internalType": "address",
          "name": "voter",
          "type": "address"
        },
        {
          "internalType": "uint256",
          "name": "propID",
          "type": "uint256"
        },
        {
          "internalType": "bool",
          "name": "vote",
          "type": "bool"
        },
        {
          "internalType": "uint256",
          "name": "nonce",
          "type": "uint256"
        },
        {
          "internalType": "uint256",
          "name": "deadline",
          "type": "uint256"
        },
        {
          "internalType": "bytes",
          "name": "signature",
          "type": "bytes"
        }
      ],
      "name": "votePropositionOnBehalfOf",
      "outputs": [],
      "stateMutability": "nonpayable",
      "type": "function"
    },
    {
      "inputs": [
        {
          "internalType": "address",
          "name": "registry",
          "type": "address"
        },
        {
          "internalType": "address",
          "name": "managerContractAddress",
          "type": "address"
        },
        {
          "internalType": "address",
          "name": "chairPerson",
          "type": "address"
        },
        {
          "internalType": "uint256",
          "name": "PropositionLifeTime",
          "type": "uint256"
        },
        {
          "internalType": "uint8",
          "name": "PropositionThresholdPercentage",
          "type": "uint8"
        },
        {
          "internalType": "uint8",
          "name": "minWeightToProposePercentage",
          "type": "uint8"
        },
        {
          "internalType": "string",
          "name": "contractName",
          "type": "string"
        },
        {
          "internalType": "string",
          "name": "contractVersion",
          "type": "string"
        }
      ],
      "name": "PriceConverter_init",
      "outputs": [],
      "stateMutability": "nonpayable",
      "type": "function"
    },
    {
      "inputs": [
        {
          "internalType": "address",
          "name": "NewRegistryAddress",
          "type": "address"
        }
      ],
      "name": "updateRegistryAddress",
      "outputs": [],
      "stateMutability": "nonpayable",
      "type": "function"
    },
    {
      "inputs": [],
      "name": "retrieveProposition",
      "outputs": [
        {
          "internalType": "bytes32[]",
          "name": "",
          "type": "bytes32[]"
        }
      ],
      "stateMutability": "view",
      "type": "function"
    },
    {
      "inputs": [
        {
          "internalType": "uint256",
          "name": "_USDamount",
          "type": "uint256"
        }
      ],
      "name": "fromUSDToETH",
      "outputs": [
        {
          "internalType": "uint256",
          "name": "",
          "type": "uint256"
        }
      ],
      "stateMutability": "view",
      "type": "function"
    },
    {
      "inputs": [],
      "name": "retrieveRegistryAddress",
      "outputs": [
        {
          "internalType": "address",
          "name": "",
          "type": "address"
        }
      ],
      "stateMutability": "view",
      "type": "function"
    }
  ],
  "bytecode": "0x608060405234801561001057600080fd5b5061223a806100206000396000f3fe608060405234801561001057600080fd5b50600436106100fc5760003560e01c806304cc67a9146101015780633c7df55d146101185780633feca4ca1461012d5780634044adb21461015057806355457ee9146101865780635b362e841461018e5780637faa3d6f146101ae578063840f6d17146101c157806386c34f96146102025780638d12420b1461021557806390d138ed1461022857806391f916711461025c578063a93316f51461026f578063ac2bb44214610284578063bc3be09614610297578063c57a8825146102a8578063d2116a02146102bb578063d660ab34146102d1578063db85bc4d146102fd578063e1f5f8581461030e575b600080fd5b600b545b6040519081526020015b60405180910390f35b61012b610126366004611a6e565b61031f565b005b61014061013b366004611aaf565b61047e565b604051901515815260200161010f565b61010561015e366004611bd8565b6000918252600c602090815260408084206001600160a01b0393909316845291905290205490565b61012b6104ac565b6003546201000090046001600160a01b03165b60405161010f9190611da4565b61012b6101bc366004611adb565b6105db565b600654600754600854600954600a54604080516001600160a01b0390961686526020860194909452928401919091526060830152608082015260a00161010f565b61012b6102103660046119a4565b6105fb565b610105610223366004611bbf565b610699565b610230610871565b60405161010f949392919093845260ff9283166020850152911660408301521515606082015260800190565b61012b61026a366004611b6c565b6108cc565b6102776108d9565b60405161010f9190611e45565b61012b610292366004611c08565b6109b4565b600e5462010000900460ff16610140565b61012b6102b636600461196a565b6109c1565b6102c36109eb565b60405161010f929190611e89565b600d54600e546040805192835260ff80831660208501526101009092049091169082015260600161010f565b6004546001600160a01b03166101a1565b6011546001600160a01b03166101a1565b73__Library_______________________________63d1d719d0600360029054906101000a90046001600160a01b03166001600160a01b031663da3dce266040518163ffffffff1660e01b815260040160206040518083038186803b15801561038757600080fd5b505afa15801561039b573d6000803e3d6000fd5b505050506040513d601f19601f820116820180604052508101906103bf9190611987565b6040518263ffffffff1660e01b81526004016103db9190611da4565b60206040518083038186803b1580156103f357600080fd5b505af4158015610407573d6000803e3d6000fd5b505050506040513d601f19601f8201168201806040525081019061042b9190611b89565b151560011461046e5760405162461bcd60e51b8152600401610465906020808252600490820152634543382d60e01b604082015260600190565b60405180910390fd5b610479838383610b12565b505050565b6001600160a01b038216600090815260026020908152604080832084845290915290205460ff165b92915050565b60016104b6610b2f565b15156001146104d75760405162461bcd60e51b815260040161046590611f24565b600654604051630d1d719d60e41b815273__Library_______________________________9163d1d719d091610519916001600160a01b031690600401611da4565b60206040518083038186803b15801561053157600080fd5b505af4158015610545573d6000803e3d6000fd5b505050506040513d601f19601f820116820180604052508101906105699190611b89565b151560011461058a5760405162461bcd60e51b815260040161046590611f43565b610592610b69565b6006546005546040519081526001600160a01b03909116907f1fe8aec10c0a50fa765076161e08c1f961ced69594ff45cf7d559f593afe1479906020015b60405180910390a250565b6105e9868686868686610b94565b6105f38685610d6a565b505050505050565b600354610100900460ff1680610614575060035460ff16155b6106305760405162461bcd60e51b815260040161046590611ed6565b600354610100900460ff16158015610652576003805461ffff19166101011790555b6106618686868a8c8888610e9d565b601180546001600160a01b0319166001600160a01b038b16179055801561068e576003805461ff00191690555b505050505050505050565b601154604051630b1c5a7560e31b815260009182916001600160a01b03909116906358e2d3a8906106e69073eeeeeeeeeeeeeeeeeeeeeeeeeeeeeeeeeeeeeeee9061034890600401611db8565b60206040518083038186803b1580156106fe57600080fd5b505afa158015610712573d6000803e3d6000fd5b505050506040513d601f19601f820116820180604052508101906107369190611c9a565b60115460405163bcfd032d60e01b81529192506000916001600160a01b039091169063bcfd032d906107849073eeeeeeeeeeeeeeeeeeeeeeeeeeeeeeeeeeeeeeee9061034890600401611db8565b60a06040518083038186803b15801561079c57600080fd5b505afa1580156107b0573d6000803e3d6000fd5b505050506040513d601f19601f820116820180604052508101906107d49190611c4a565b5050509150506000818560026012866107ed9190611f90565b6107f791906120ed565b61080290600a61200c565b61080c91906120b7565b6108169190611fb5565b9050600082866002610829601288611f90565b61083391906120ed565b61083e90600a61200c565b61084891906120b7565b6108529190612166565b9050801561086857610865600183611f78565b91505b50949350505050565b600080600080600e60029054906101000a900460ff168015610894575060075442105b156108b9575050600f5460105490925060ff80821692506101009091041660016108c6565b5060009250829150819050805b90919293565b6108d63382610d6a565b50565b6040805160018082528183019092526060916000919060208083019080368337505060125460405163bc215e8560e01b815292935073__AddressLibrary________________________9263bc215e859250610941916001600160a01b031690600401611da4565b60206040518083038186803b15801561095957600080fd5b505af415801561096d573d6000803e3d6000fd5b505050506040513d601f19601f820116820180604052508101906109919190611ba6565b816000815181106109a4576109a46121a6565b6020908102919091010152919050565b6104798383836000610f50565b6109c9610ffa565b601280546001600160a01b0319166001600160a01b0392909216919091179055565b606080600060018180546109fe90612110565b80601f0160208091040260200160405190810160405280929190818152602001828054610a2a90612110565b8015610a775780601f10610a4c57610100808354040283529160200191610a77565b820191906000526020600020905b815481529060010190602001808311610a5a57829003601f168201915b50505050509150808054610a8a90612110565b80601f0160208091040260200160405190810160405280929190818152602001828054610ab690612110565b8015610b035780601f10610ad857610100808354040283529160200191610b03565b820191906000526020600020905b815481529060010190602001808311610ae657829003601f168201915b50505050509050915091509091565b610b1a610b2f565b15156001141561047957610479838383611111565b600754600090421015610b425750600190565b6006546001600160a01b031615610b6357610b5b611281565b610b63610b69565b50600090565b60006005819055600680546001600160a01b0319169055600781905560088190556009819055600a55565b81804210610bcc5760405162461bcd60e51b8152602060048201526005602482015264454333332d60d81b6044820152606401610465565b6001600160a01b03871660009081526002602090815260408083208784529091529020548790859060ff1615610c2c5760405162461bcd60e51b8152602060048201526005602482015264454333342d60d81b6044820152606401610465565b6005548814610c655760405162461bcd60e51b8152602060048201526005602482015264454333352d60d81b6044820152606401610465565b604051633f0856fd60e01b815273__SignatureLibrary______________________90633f0856fd90610cac908c908c908c908c908c908c90600090600190600401611dd2565b60206040518083038186803b158015610cc457600080fd5b505af4158015610cd8573d6000803e3d6000fd5b505050506040513d601f19601f82011682018060405250810190610cfc9190611b89565b1515600114610d355760405162461bcd60e51b8152602060048201526005602482015264454333322d60d81b6044820152606401610465565b61068e89876001600160a01b03909116600090815260026020908152604080832093835292905220805460ff19166001179055565b6001610d74610b2f565b1515600114610d955760405162461bcd60e51b815260040161046590611f24565b82610da58160056000015461128b565b1515600114610dde5760405162461bcd60e51b8152602060048201526005602482015264454332332d60d81b6044820152606401610465565b6000610def856005600001546112a2565b90508315610e17578060056004016000828254610e0c9190611f78565b90915550610e319050565b80600580016000828254610e2b9190611f78565b90915550505b600554610e3f9086836112df565b60055460408051918252851515602083015281018290526001600160a01b038616907f50f654d58981575c05e369cb129aeacb01e1b036af429380242cfc5d1a4b743f9060600160405180910390a2610e9661131b565b5050505050565b600354610100900460ff1680610eb6575060035460ff16155b610ed25760405162461bcd60e51b815260040161046590611ed6565b600354610100900460ff16158015610ef4576003805461ffff19166101011790555b610efd84611459565b600480546001600160a01b0319166001600160a01b0387161790556000600b55610f2783836114e8565b610f348888886001610f50565b8015610f46576003805461ff00191690555b5050505050505050565b82828160ff1660641015610f765760405162461bcd60e51b815260040161046590611eb7565b8060ff1660641015610f9a5760405162461bcd60e51b815260040161046590611eb7565b8215610fc557600d869055600e805460ff8681166101000261ffff19909216908816171790556105f3565b600f8690556010805460ff8681166101000261ffff1990921690881617179055600e805462ff00001916620100001790556105f35b6000611004610b2f565b156110395760405162461bcd60e51b8152602060048201526005602482015264454332342d60d81b6044820152606401610465565b6110423361150f565b15156001146110635760405162461bcd60e51b815260040161046590611f43565b600680546001600160a01b03191633179055600d546110829042611f78565b600755600e5460649060ff16611096611584565b6110a091906120b7565b6110aa9190611fb5565b600855600b805460058190559060006110c28361214b565b90915550506006546005546007546008546040516001600160a01b03909416937f472501d19bf75639b2e316cd36f8568b0c3ab943b82a87de3c086c98c1929df9936105d09390929091611f62565b6001600160a01b0383161580159061114d57506005546000908152600c602090815260408083206001600160a01b038716845290915290205415155b15610479576005546000908152600c602090815260408083206001600160a01b038716845290915290205481908111156111a957506005546000908152600c602090815260408083206001600160a01b03871684529091529020545b6005546000908152600c602090815260408083206001600160a01b0388168452909152812080548392906111de9084906120d6565b90915550506001600160a01b0383161561122d576005546000908152600c602090815260408083206001600160a01b038716845290915281208054839290611227908490611f78565b90915550505b600554604080516001600160a01b038088168252861660208201529081018390527f65fbd5e5dd32bea4aeca85bd0be0abf0e489d655dee888a7510d43b06dda2dba9060600160405180910390a250505050565b611289611681565b565b60008061129884846112a2565b1515949350505050565b6000818152600c602090815260408083206001600160a01b03861684529091528120546112ce84611693565b6112d891906120d6565b9392505050565b6000838152600c602090815260408083206001600160a01b038616845290915281208054839290611311908490611f78565b9091555050505050565b600854600954106113d657600e5462010000900460ff161561137257600f54600d55601054600e805461010080840460ff90811690910261ffff1990921693169290921791909117905561136d611796565b61137a565b61137a6117b4565b611382610b69565b600654600554600954600a546040516001600160a01b03909416937f23ca0034cf5aad32571b4a492e9598ea8a490e1643a60970e3cdc6933b55e49f936113cc9390929091611f62565b60405180910390a2565b600854600a541061128957600e5462010000900460ff16156113ff576113fa611796565b611407565b611407611281565b61140f610b69565b600654600554600954600a546040516001600160a01b03909416937fa58eb6daa3c62c3f883973c4035e5bd3e81aa627c8379de068a7de42df122be2936113cc9390929091611f62565b600354610100900460ff1680611472575060035460ff16155b61148e5760405162461bcd60e51b815260040161046590611ed6565b600354610100900460ff161580156114b0576003805461ffff19166101011790555b6003805462010000600160b01b031916620100006001600160a01b0385160217905580156114e4576003805461ff00191690555b5050565b81516114fb906000906020850190611825565b508051610479906001906020840190611825565b6004546000906001600160a01b038381169116141561153057506001919050565b600061153b83611693565b90506064611547611584565b600e5461155c9190610100900460ff166120b7565b6115669190611fb5565b8111156115765750600192915050565b50600092915050565b919050565b6000600360029054906101000a90046001600160a01b03166001600160a01b031663da3dce266040518163ffffffff1660e01b815260040160206040518083038186803b1580156115d457600080fd5b505afa1580156115e8573d6000803e3d6000fd5b505050506040513d601f19601f8201168201806040525081019061160c9190611987565b6001600160a01b03166318160ddd6040518163ffffffff1660e01b815260040160206040518083038186803b15801561164457600080fd5b505afa158015611658573d6000803e3d6000fd5b505050506040513d601f19601f8201168201806040525081019061167c9190611ba6565b905090565b601280546001600160a01b0319169055565b6000600360029054906101000a90046001600160a01b03166001600160a01b031663da3dce266040518163ffffffff1660e01b815260040160206040518083038186803b1580156116e357600080fd5b505afa1580156116f7573d6000803e3d6000fd5b505050506040513d601f19601f8201168201806040525081019061171b9190611987565b6001600160a01b03166370a08231836040518263ffffffff1660e01b81526004016117469190611da4565b60206040518083038186803b15801561175e57600080fd5b505afa158015611772573d6000803e3d6000fd5b505050506040513d601f19601f820116820180604052508101906104a69190611ba6565b6000600f556010805461ffff19169055600e805462ff000019169055565b601254601180546001600160a01b0319166001600160a01b039092169190911790556117de611681565b6012546040517fe08b34098bd9a7db19810e36803d50bdcf85ca58118d07b4ef3705811d8303b59161181b916001600160a01b0390911690611da4565b60405180910390a1565b82805461183190612110565b90600052602060002090601f0160209004810192826118535760008555611899565b82601f1061186c57805160ff1916838001178555611899565b82800160010185558215611899579182015b8281111561189957825182559160200191906001019061187e565b506118a59291506118a9565b5090565b5b808211156118a557600081556001016118aa565b60006001600160401b03808411156118d8576118d86121bc565b604051601f8501601f19908116603f01168101908282118183101715611900576119006121bc565b8160405280935085815286868601111561191957600080fd5b858560208301376000602087830101525050509392505050565b600082601f83011261194457600080fd5b6112d8838335602085016118be565b80516001600160501b038116811461157f57600080fd5b60006020828403121561197c57600080fd5b81356112d8816121d2565b60006020828403121561199957600080fd5b81516112d8816121d2565b600080600080600080600080610100898b0312156119c157600080fd5b88356119cc816121d2565b975060208901356119dc816121d2565b965060408901356119ec816121d2565b9550606089013594506080890135611a03816121f5565b935060a0890135611a13816121f5565b925060c08901356001600160401b0380821115611a2f57600080fd5b611a3b8c838d01611933565b935060e08b0135915080821115611a5157600080fd5b50611a5e8b828c01611933565b9150509295985092959890939650565b600080600060608486031215611a8357600080fd5b8335611a8e816121d2565b92506020840135611a9e816121d2565b929592945050506040919091013590565b60008060408385031215611ac257600080fd5b8235611acd816121d2565b946020939093013593505050565b60008060008060008060c08789031215611af457600080fd5b8635611aff816121d2565b9550602087013594506040870135611b16816121e7565b9350606087013592506080870135915060a08701356001600160401b03811115611b3f57600080fd5b8701601f81018913611b5057600080fd5b611b5f898235602084016118be565b9150509295509295509295565b600060208284031215611b7e57600080fd5b81356112d8816121e7565b600060208284031215611b9b57600080fd5b81516112d8816121e7565b600060208284031215611bb857600080fd5b5051919050565b600060208284031215611bd157600080fd5b5035919050565b60008060408385031215611beb57600080fd5b823591506020830135611bfd816121d2565b809150509250929050565b600080600060608486031215611c1d57600080fd5b833592506020840135611c2f816121f5565b91506040840135611c3f816121f5565b809150509250925092565b600080600080600060a08688031215611c6257600080fd5b611c6b86611953565b9450602086015193506040860151925060608601519150611c8e60808701611953565b90509295509295909350565b600060208284031215611cac57600080fd5b81516112d8816121f5565b6000815180845260005b81811015611cdd57602081850181015186830182015201611cc1565b81811115611cef576000602083870101525b50601f01601f19169290920160200192915050565b8054600090600181811c9080831680611d1e57607f831692505b6020808410821415611d4057634e487b7160e01b600052602260045260246000fd5b83885260208801828015611d5b5760018114611d6c57611d97565b60ff19871682528282019750611d97565b60008981526020902060005b87811015611d9157815484820152908601908401611d78565b83019850505b5050505050505092915050565b6001600160a01b0391909116815260200190565b6001600160a01b0392831681529116602082015260400190565b600061010060018060a01b038b16835289602084015288151560408401528760608401528660808401528060a0840152611e0e81840187611cb7565b905082810360c0840152611e228186611d04565b905082810360e0840152611e368185611d04565b9b9a5050505050505050505050565b6020808252825182820181905260009190848201906040850190845b81811015611e7d57835183529284019291840191600101611e61565b50909695505050505050565b604081526000611e9c6040830185611cb7565b8281036020840152611eae8185611cb7565b95945050505050565b602080825260059082015264454332312d60d81b604082015260600190565b6020808252602e908201527f496e697469616c697a61626c653a20636f6e747261637420697320616c72656160408201526d191e481a5b9a5d1a585b1a5e995960921b606082015260800190565b602080825260059082015264454332352d60d81b604082015260600190565b602080825260059082015264454332322d60d81b604082015260600190565b9283526020830191909152604082015260600190565b60008219821115611f8b57611f8b61217a565b500190565b600060ff821660ff84168060ff03821115611fad57611fad61217a565b019392505050565b600082611fc457611fc4612190565b500490565b600181815b80851115612004578160001904821115611fea57611fea61217a565b80851615611ff757918102915b93841c9390800290611fce565b509250929050565b60006112d860ff841683600082612025575060016104a6565b81612032575060006104a6565b816001811461204857600281146120525761206e565b60019150506104a6565b60ff8411156120635761206361217a565b50506001821b6104a6565b5060208310610133831016604e8410600b8410161715612091575081810a6104a6565b61209b8383611fc9565b80600019048211156120af576120af61217a565b029392505050565b60008160001904831182151516156120d1576120d161217a565b500290565b6000828210156120e8576120e861217a565b500390565b600060ff821660ff8416808210156121075761210761217a565b90039392505050565b600181811c9082168061212457607f821691505b6020821081141561214557634e487b7160e01b600052602260045260246000fd5b50919050565b600060001982141561215f5761215f61217a565b5060010190565b60008261217557612175612190565b500690565b634e487b7160e01b600052601160045260246000fd5b634e487b7160e01b600052601260045260246000fd5b634e487b7160e01b600052603260045260246000fd5b634e487b7160e01b600052604160045260246000fd5b6001600160a01b03811681146108d657600080fd5b80151581146108d657600080fd5b60ff811681146108d657600080fdfea2646970667358221220a049e0d0383e9b01fc6e0dfa872f2a4a6ec15b3fefcff0c2fd2b9a315701205964736f6c63430008070033",
  "immutableReferences": {},
  "source": "// SPDX-License-Identifier: GPL-3.0\r\n\r\npragma solidity 0.8.7;\r\n\r\n/**\r\n Price Converter is an interface to the Chain Link Price Registry for USD to ETH exchange\r\n */\r\n\r\nimport \"../Interfaces/IPriceConverter.sol\";\r\nimport \"../Base/TokenGovernanceBaseContract.sol\";\r\nimport \"@chainlink/contracts/src/v0.8/interfaces/FeedRegistryInterface.sol\";\r\nimport \"@chainlink/contracts/src/v0.8/Denominations.sol\";\r\n\r\n\r\ncontract PriceConverter is IPriceConverter, TokenGovernanceBaseContract {\r\n\r\n     // EVENTS /////////////////////////////////////////\r\n    event _NewRegistryAddress(address Registry);\r\n\r\n    // DATA /////////////////////////////////////////\r\n    FeedRegistryInterface internal _registry;\r\n    uint8 constant _ETHDecimals = 18;\r\n    uint8 constant _USDDecimals = 2;\r\n\r\n    address internal _ProposedRegistryAddress;\r\n\r\n    // CONSTRUCTOR /////////////////////////////////////////\r\n    function PriceConverter_init(address registry, address managerContractAddress, address chairPerson, uint256 PropositionLifeTime, uint8 PropositionThresholdPercentage, uint8 minWeightToProposePercentage, string memory contractName, string memory contractVersion) public initializer \r\n    {\r\n        super.TokenGovernanceContract_init(PropositionLifeTime, PropositionThresholdPercentage, minWeightToProposePercentage, chairPerson, managerContractAddress, contractName, contractVersion);\r\n        _registry = FeedRegistryInterface(registry);\r\n    }\r\n\r\n    // GOVERNANCE /////////////////////////////////////////\r\n    function updateRegistryAddress(address NewRegistryAddress) external override\r\n    {\r\n        addProposition();\r\n        _ProposedRegistryAddress = NewRegistryAddress;\r\n    }\r\n\r\n    function propositionApproved() internal override\r\n    {\r\n        _registry = FeedRegistryInterface(_ProposedRegistryAddress);\r\n        \r\n        removeProposition();\r\n\r\n        emit _NewRegistryAddress(_ProposedRegistryAddress);\r\n    }\r\n\r\n    function propositionRejected() internal override\r\n    {\r\n        removeProposition();\r\n    }\r\n\r\n    function propositionExpired() internal override\r\n    {\r\n        removeProposition();\r\n    }\r\n\r\n    function removeProposition() internal\r\n    {\r\n         delete(_ProposedRegistryAddress);\r\n    }\r\n\r\n    function retrieveProposition() external override view returns(bytes32[] memory)\r\n    {\r\n        bytes32[] memory proposition = new bytes32[](1);\r\n        proposition[0] = AddressLibrary.AddressToBytes32(_ProposedRegistryAddress);\r\n        return proposition;\r\n    }\r\n\r\n    // FUNCTIONALITY /////////////////////////////////////////\r\n    function fromUSDToETH(uint _USDamount) external override view returns (uint) {\r\n        uint8 decimals = _registry.decimals(Denominations.ETH, Denominations.USD);\r\n        (,int price,,,) = _registry.latestRoundData(Denominations.ETH, Denominations.USD);\r\n\r\n        uint256 amount = 10**(decimals + _ETHDecimals - _USDDecimals) * _USDamount / uint(price);\r\n        uint256 remainder = 10**(decimals + _ETHDecimals - _USDDecimals) * _USDamount % uint(price);\r\n\r\n        if(remainder > 0) amount += 1;\r\n\r\n        return amount;\r\n    }\r\n\r\n    function retrieveRegistryAddress() external override view returns(address){\r\n        return address(_registry);\r\n    }\r\n\r\n}",
  "sourcePath": "C:/Users/d-aam/GitHub/Certificates/contracts/DeployedContracts/PriceConverter.sol",
  "compiler": {
    "name": "solc",
    "version": "0.8.7+commit.e28d00a7.Emscripten.clang"
  },
  "schemaVersion": "3.3.4",
  "updatedAt": "2021-10-06T12:16:52.625Z",
  "devdoc": {
    "kind": "dev",
    "methods": {},
    "version": 1
  },
  "userdoc": {
    "kind": "user",
    "methods": {},
    "version": 1
  }
}