{
  "contractName": "PriceConverter",
  "abi": [
    {
      "anonymous": false,
      "inputs": [
        {
          "indexed": false,
          "internalType": "uint256",
          "name": "",
          "type": "uint256"
        },
        {
          "indexed": true,
          "internalType": "address",
          "name": "",
          "type": "address"
        },
        {
          "indexed": false,
          "internalType": "uint256",
          "name": "",
          "type": "uint256"
        },
        {
          "indexed": false,
          "internalType": "uint256",
          "name": "",
          "type": "uint256"
        }
      ],
      "name": "_AddedProposition",
      "type": "event"
    },
    {
      "anonymous": false,
      "inputs": [
        {
          "indexed": false,
          "internalType": "uint256",
          "name": "",
          "type": "uint256"
        },
        {
          "indexed": true,
          "internalType": "address",
          "name": "",
          "type": "address"
        }
      ],
      "name": "_CancelledProposition",
      "type": "event"
    },
    {
      "anonymous": false,
      "inputs": [
        {
          "indexed": false,
          "internalType": "address",
          "name": "",
          "type": "address"
        }
      ],
      "name": "_NewRegistryAddress",
      "type": "event"
    },
    {
      "anonymous": false,
      "inputs": [
        {
          "indexed": false,
          "internalType": "uint256",
          "name": "",
          "type": "uint256"
        },
        {
          "indexed": true,
          "internalType": "address",
          "name": "",
          "type": "address"
        },
        {
          "indexed": false,
          "internalType": "uint256",
          "name": "",
          "type": "uint256"
        },
        {
          "indexed": false,
          "internalType": "uint256",
          "name": "",
          "type": "uint256"
        }
      ],
      "name": "_PropositionApproved",
      "type": "event"
    },
    {
      "anonymous": false,
      "inputs": [
        {
          "indexed": false,
          "internalType": "uint256",
          "name": "",
          "type": "uint256"
        },
        {
          "indexed": true,
          "internalType": "address",
          "name": "",
          "type": "address"
        },
        {
          "indexed": false,
          "internalType": "uint256",
          "name": "",
          "type": "uint256"
        },
        {
          "indexed": false,
          "internalType": "uint256",
          "name": "",
          "type": "uint256"
        }
      ],
      "name": "_PropositionRejected",
      "type": "event"
    },
    {
      "anonymous": false,
      "inputs": [
        {
          "indexed": false,
          "internalType": "uint256",
          "name": "",
          "type": "uint256"
        },
        {
          "indexed": true,
          "internalType": "address",
          "name": "",
          "type": "address"
        },
        {
          "indexed": false,
          "internalType": "bool",
          "name": "",
          "type": "bool"
        },
        {
          "indexed": false,
          "internalType": "uint256",
          "name": "",
          "type": "uint256"
        }
      ],
      "name": "_PropositionVote",
      "type": "event"
    },
    {
      "anonymous": false,
      "inputs": [
        {
          "indexed": true,
          "internalType": "uint256",
          "name": "",
          "type": "uint256"
        },
        {
          "indexed": false,
          "internalType": "address",
          "name": "",
          "type": "address"
        },
        {
          "indexed": false,
          "internalType": "address",
          "name": "",
          "type": "address"
        },
        {
          "indexed": false,
          "internalType": "uint256",
          "name": "",
          "type": "uint256"
        }
      ],
      "name": "_UsedTokensTransfered",
      "type": "event"
    },
    {
      "inputs": [],
      "name": "cancelProposition",
      "outputs": [],
      "stateMutability": "nonpayable",
      "type": "function"
    },
    {
      "inputs": [],
      "name": "isCurrentPropositionProp",
      "outputs": [
        {
          "internalType": "bool",
          "name": "",
          "type": "bool"
        }
      ],
      "stateMutability": "view",
      "type": "function",
      "constant": true
    },
    {
      "inputs": [
        {
          "internalType": "address",
          "name": "from",
          "type": "address"
        },
        {
          "internalType": "address",
          "name": "to",
          "type": "address"
        },
        {
          "internalType": "uint256",
          "name": "amount",
          "type": "uint256"
        }
      ],
      "name": "onTokenBalanceChanged",
      "outputs": [],
      "stateMutability": "nonpayable",
      "type": "function"
    },
    {
      "inputs": [],
      "name": "retrieveChairPerson",
      "outputs": [
        {
          "internalType": "address",
          "name": "",
          "type": "address"
        }
      ],
      "stateMutability": "view",
      "type": "function",
      "constant": true
    },
    {
      "inputs": [],
      "name": "retrieveManagerContract",
      "outputs": [
        {
          "internalType": "address",
          "name": "",
          "type": "address"
        }
      ],
      "stateMutability": "view",
      "type": "function",
      "constant": true
    },
    {
      "inputs": [],
      "name": "retrieveNextPropId",
      "outputs": [
        {
          "internalType": "uint256",
          "name": "",
          "type": "uint256"
        }
      ],
      "stateMutability": "view",
      "type": "function",
      "constant": true
    },
    {
      "inputs": [],
      "name": "retrievePendingPropConfig",
      "outputs": [
        {
          "internalType": "uint256",
          "name": "",
          "type": "uint256"
        },
        {
          "internalType": "uint8",
          "name": "",
          "type": "uint8"
        },
        {
          "internalType": "uint8",
          "name": "",
          "type": "uint8"
        },
        {
          "internalType": "bool",
          "name": "",
          "type": "bool"
        }
      ],
      "stateMutability": "view",
      "type": "function",
      "constant": true
    },
    {
      "inputs": [],
      "name": "retrievePropConfig",
      "outputs": [
        {
          "internalType": "uint256",
          "name": "",
          "type": "uint256"
        },
        {
          "internalType": "uint8",
          "name": "",
          "type": "uint8"
        },
        {
          "internalType": "uint8",
          "name": "",
          "type": "uint8"
        }
      ],
      "stateMutability": "view",
      "type": "function",
      "constant": true
    },
    {
      "inputs": [],
      "name": "retrievePropositionStatus",
      "outputs": [
        {
          "internalType": "address",
          "name": "",
          "type": "address"
        },
        {
          "internalType": "uint256",
          "name": "",
          "type": "uint256"
        },
        {
          "internalType": "uint256",
          "name": "",
          "type": "uint256"
        },
        {
          "internalType": "uint256",
          "name": "",
          "type": "uint256"
        },
        {
          "internalType": "uint256",
          "name": "",
          "type": "uint256"
        }
      ],
      "stateMutability": "view",
      "type": "function",
      "constant": true
    },
    {
      "inputs": [
        {
          "internalType": "uint256",
          "name": "PropId",
          "type": "uint256"
        },
        {
          "internalType": "address",
          "name": "voter",
          "type": "address"
        }
      ],
      "name": "retrieveVotesForVoter",
      "outputs": [
        {
          "internalType": "uint256",
          "name": "",
          "type": "uint256"
        }
      ],
      "stateMutability": "view",
      "type": "function",
      "constant": true
    },
    {
      "inputs": [
        {
          "internalType": "uint256",
          "name": "PropLifeTime",
          "type": "uint256"
        },
        {
          "internalType": "uint8",
          "name": "PropThresholdPerc",
          "type": "uint8"
        },
        {
          "internalType": "uint8",
          "name": "minWeightToPropPerc",
          "type": "uint8"
        }
      ],
      "name": "updateProp",
      "outputs": [],
      "stateMutability": "nonpayable",
      "type": "function"
    },
    {
      "inputs": [
        {
          "internalType": "bool",
          "name": "vote",
          "type": "bool"
        }
      ],
      "name": "voteProposition",
      "outputs": [],
      "stateMutability": "nonpayable",
      "type": "function"
    },
    {
      "inputs": [
        {
          "internalType": "address",
          "name": "registry",
          "type": "address"
        },
        {
          "internalType": "address",
          "name": "managerContractAddress",
          "type": "address"
        },
        {
          "internalType": "address",
          "name": "chairPerson",
          "type": "address"
        },
        {
          "internalType": "uint256",
          "name": "PropositionLifeTime",
          "type": "uint256"
        },
        {
          "internalType": "uint8",
          "name": "PropositionThresholdPercentage",
          "type": "uint8"
        },
        {
          "internalType": "uint8",
          "name": "minWeightToProposePercentage",
          "type": "uint8"
        }
      ],
      "name": "PriceConverter_init",
      "outputs": [],
      "stateMutability": "nonpayable",
      "type": "function"
    },
    {
      "inputs": [
        {
          "internalType": "address",
          "name": "NewRegistryAddress",
          "type": "address"
        }
      ],
      "name": "updateRegistryAddress",
      "outputs": [],
      "stateMutability": "nonpayable",
      "type": "function"
    },
    {
      "inputs": [],
      "name": "retrieveProposition",
      "outputs": [
        {
          "internalType": "bytes32[]",
          "name": "",
          "type": "bytes32[]"
        }
      ],
      "stateMutability": "view",
      "type": "function",
      "constant": true
    },
    {
      "inputs": [
        {
          "internalType": "uint256",
          "name": "_USDamount",
          "type": "uint256"
        }
      ],
      "name": "fromUSDToETH",
      "outputs": [
        {
          "internalType": "uint256",
          "name": "",
          "type": "uint256"
        }
      ],
      "stateMutability": "view",
      "type": "function",
      "constant": true
    },
    {
      "inputs": [],
      "name": "retrieveRegistryAddress",
      "outputs": [
        {
          "internalType": "address",
          "name": "",
          "type": "address"
        }
      ],
      "stateMutability": "view",
      "type": "function",
      "constant": true
    }
  ],
  "bytecode": "0x608060405234801561001057600080fd5b5061176a806100206000396000f3fe608060405234801561001057600080fd5b50600436106100db5760003560e01c806304cc67a9146100e05780632bd39113146100f75780633c7df55d1461010c5780634044adb21461011f57806355457ee9146101555780635b362e841461015d578063840f6d171461017d5780638d12420b146101be57806390d138ed146101d157806391f9167114610205578063a93316f514610218578063ac2bb4421461022d578063bc3be09614610240578063c57a88251461025c578063d660ab341461026f578063db85bc4d1461029b578063e1f5f858146102ac575b600080fd5b6008545b6040519081526020015b60405180910390f35b61010a610105366004611362565b6102bd565b005b61010a61011a3660046113d5565b610360565b6100e461012d366004611482565b60009182526009602090815260408084206001600160a01b0393909316845291905290205490565b61010a6104b6565b6000546201000090046001600160a01b03165b6040516100ee919061153e565b600354600454600554600654600754604080516001600160a01b0390961686526020860194909452928401919091526060830152608082015260a0016100ee565b6100e46101cc366004611469565b6105e5565b6101d961069a565b6040516100ee949392919093845260ff9283166020850152911660408301521515606082015260800190565b61010a610213366004611416565b6106f5565b610220610818565b6040516100ee9190611552565b61010a61023b3660046114b2565b6108f3565b600b5462010000900460ff1660405190151581526020016100ee565b61010a61026a366004611328565b610900565b600a54600b546040805192835260ff8083166020850152610100909204909116908201526060016100ee565b6001546001600160a01b0316610170565b600e546001600160a01b0316610170565b600054610100900460ff16806102d6575060005460ff16155b6102fb5760405162461bcd60e51b81526004016102f2906115b5565b60405180910390fd5b600054610100900460ff1615801561031d576000805461ffff19166101011790555b61032a848484888a61092a565b600e80546001600160a01b0319166001600160a01b0389161790558015610357576000805461ff00191690555b50505050505050565b73__Library_______________________________63d1d719d0600060029054906101000a90046001600160a01b03166001600160a01b031663da3dce266040518163ffffffff1660e01b815260040160206040518083038186803b1580156103c857600080fd5b505afa1580156103dc573d6000803e3d6000fd5b505050506040513d601f19601f820116820180604052508101906104009190611345565b6040518263ffffffff1660e01b815260040161041c919061153e565b60206040518083038186803b15801561043457600080fd5b505af4158015610448573d6000803e3d6000fd5b505050506040513d601f19601f8201168201806040525081019061046c9190611433565b15156001146104a65760405162461bcd60e51b81526004016102f2906020808252600490820152634543382d60e01b604082015260600190565b6104b18383836109d3565b505050565b60016104c06109f0565b15156001146104e15760405162461bcd60e51b81526004016102f290611603565b600354604051630d1d719d60e41b815273__Library_______________________________9163d1d719d091610523916001600160a01b03169060040161153e565b60206040518083038186803b15801561053b57600080fd5b505af415801561054f573d6000803e3d6000fd5b505050506040513d601f19601f820116820180604052508101906105739190611433565b15156001146105945760405162461bcd60e51b81526004016102f290611622565b61059c610a2a565b6003546002546040519081526001600160a01b03909116907f1fe8aec10c0a50fa765076161e08c1f961ced69594ff45cf7d559f593afe1479906020015b60405180910390a250565b600e5460405163bcfd032d60e01b8152610348600482015273eeeeeeeeeeeeeeeeeeeeeeeeeeeeeeeeeeeeeeee602482015260009182916001600160a01b039091169063bcfd032d9060440160a06040518083038186803b15801561064957600080fd5b505afa15801561065d573d6000803e3d6000fd5b505050506040513d601f19601f8201168201806040525081019061068191906114ee565b50505091505082816106939190611691565b9392505050565b600080600080600b60029054906101000a900460ff1680156106bd575060045442105b156106e2575050600c54600d5490925060ff80821692506101009091041660016106ef565b5060009250829150819050805b90919293565b60016106ff6109f0565b15156001146107205760405162461bcd60e51b81526004016102f290611603565b61072f33600260000154610a55565b15156001146107685760405162461bcd60e51b8152602060048201526005602482015264454332332d60d81b60448201526064016102f2565b600061077933600260000154610a6c565b905082156107a15780600260040160008282546107969190611657565b909155506107bc9050565b80600260050160008282546107b69190611657565b90915550505b6002546107ca903383610aa2565b600254604080519182528415156020830152810182905233907f50f654d58981575c05e369cb129aeacb01e1b036af429380242cfc5d1a4b743f9060600160405180910390a26104b1610ade565b60408051600180825281830190925260609160009190602080830190803683375050600f5460405163bc215e8560e01b815292935073__AddressLibrary________________________9263bc215e859250610880916001600160a01b03169060040161153e565b60206040518083038186803b15801561089857600080fd5b505af41580156108ac573d6000803e3d6000fd5b505050506040513d601f19601f820116820180604052508101906108d09190611450565b816000815181106108e3576108e36116f8565b6020908102919091010152919050565b6104b18383836000610c1e565b610908610cc8565b600f80546001600160a01b0319166001600160a01b0392909216919091179055565b600054610100900460ff1680610943575060005460ff16155b61095f5760405162461bcd60e51b81526004016102f2906115b5565b600054610100900460ff16158015610981576000805461ffff19166101011790555b61098a82610ddf565b600180546001600160a01b0319166001600160a01b03851617815560006008556109b990879087908790610c1e565b80156109cb576000805461ff00191690555b505050505050565b6109db6109f0565b1515600114156104b1576104b1838383610e6e565b600454600090421015610a035750600190565b6003546001600160a01b031615610a2457610a1c610fde565b610a24610a2a565b50600090565b60006002819055600380546001600160a01b0319169055600481905560058190556006819055600755565b600080610a628484610a6c565b1515949350505050565b60008181526009602090815260408083206001600160a01b0386168452909152812054610a9884610fe6565b61069391906116b0565b60008381526009602090815260408083206001600160a01b038616845290915281208054839290610ad4908490611657565b9091555050505050565b60055460065410610b9957600b5462010000900460ff1615610b3557600c54600a55600d54600b805461010080840460ff90811690910261ffff19909216931692909217919091179055610b306110ee565b610b3d565b610b3d61110c565b610b45610a2a565b6003546002546006546007546040516001600160a01b03909416937f23ca0034cf5aad32571b4a492e9598ea8a490e1643a60970e3cdc6933b55e49f93610b8f9390929091611641565b60405180910390a2565b60055460075410610c1c57600b5462010000900460ff1615610bc257610bbd6110ee565b610bca565b610bca610fde565b610bd2610a2a565b6003546002546006546007546040516001600160a01b03909416937fa58eb6daa3c62c3f883973c4035e5bd3e81aa627c8379de068a7de42df122be293610b8f9390929091611641565b565b82828160ff1660641015610c445760405162461bcd60e51b81526004016102f290611596565b8060ff1660641015610c685760405162461bcd60e51b81526004016102f290611596565b8215610c9357600a869055600b805460ff8681166101000261ffff19909216908816171790556109cb565b600c869055600d805460ff8681166101000261ffff1990921690881617179055600b805462ff00001916620100001790556109cb5b6000610cd26109f0565b15610d075760405162461bcd60e51b8152602060048201526005602482015264454332342d60d81b60448201526064016102f2565b610d103361117d565b1515600114610d315760405162461bcd60e51b81526004016102f290611622565b600380546001600160a01b03191633179055600a54610d509042611657565b600455600b5460649060ff16610d646111f2565b610d6e9190611691565b610d78919061166f565b600555600880546002819055906000610d90836116c7565b90915550506003546002546004546005546040516001600160a01b03909416937f472501d19bf75639b2e316cd36f8568b0c3ab943b82a87de3c086c98c1929df9936105da9390929091611641565b600054610100900460ff1680610df8575060005460ff16155b610e145760405162461bcd60e51b81526004016102f2906115b5565b600054610100900460ff16158015610e36576000805461ffff19166101011790555b6000805462010000600160b01b031916620100006001600160a01b038516021790558015610e6a576000805461ff00191690555b5050565b6001600160a01b03831615801590610eaa575060025460009081526009602090815260408083206001600160a01b038716845290915290205415155b156104b15760025460009081526009602090815260408083206001600160a01b03871684529091529020548190811115610f06575060025460009081526009602090815260408083206001600160a01b03871684529091529020545b60025460009081526009602090815260408083206001600160a01b038816845290915281208054839290610f3b9084906116b0565b90915550506001600160a01b03831615610f8a5760025460009081526009602090815260408083206001600160a01b038716845290915281208054839290610f84908490611657565b90915550505b600254604080516001600160a01b038088168252861660208201529081018390527f65fbd5e5dd32bea4aeca85bd0be0abf0e489d655dee888a7510d43b06dda2dba9060600160405180910390a250505050565b610c1c6112ee565b60008060029054906101000a90046001600160a01b03166001600160a01b031663da3dce266040518163ffffffff1660e01b815260040160206040518083038186803b15801561103557600080fd5b505afa158015611049573d6000803e3d6000fd5b505050506040513d601f19601f8201168201806040525081019061106d9190611345565b6001600160a01b03166370a08231836040518263ffffffff1660e01b8152600401611098919061153e565b60206040518083038186803b1580156110b057600080fd5b505afa1580156110c4573d6000803e3d6000fd5b505050506040513d601f19601f820116820180604052508101906110e89190611450565b92915050565b6000600c55600d805461ffff19169055600b805462ff000019169055565b600f54600e80546001600160a01b0319166001600160a01b039092169190911790556111366112ee565b600f546040517fe08b34098bd9a7db19810e36803d50bdcf85ca58118d07b4ef3705811d8303b591611173916001600160a01b039091169061153e565b60405180910390a1565b6001546000906001600160a01b038381169116141561119e57506001919050565b60006111a983610fe6565b905060646111b56111f2565b600b546111ca9190610100900460ff16611691565b6111d4919061166f565b8111156111e45750600192915050565b50600092915050565b919050565b60008060029054906101000a90046001600160a01b03166001600160a01b031663da3dce266040518163ffffffff1660e01b815260040160206040518083038186803b15801561124157600080fd5b505afa158015611255573d6000803e3d6000fd5b505050506040513d601f19601f820116820180604052508101906112799190611345565b6001600160a01b03166318160ddd6040518163ffffffff1660e01b815260040160206040518083038186803b1580156112b157600080fd5b505afa1580156112c5573d6000803e3d6000fd5b505050506040513d601f19601f820116820180604052508101906112e99190611450565b905090565b600f80546001600160a01b0319169055565b803560ff811681146111ed57600080fd5b80516001600160501b03811681146111ed57600080fd5b60006020828403121561133a57600080fd5b81356106938161170e565b60006020828403121561135757600080fd5b81516106938161170e565b60008060008060008060c0878903121561137b57600080fd5b86356113868161170e565b955060208701356113968161170e565b945060408701356113a68161170e565b9350606087013592506113bb60808801611300565b91506113c960a08801611300565b90509295509295509295565b6000806000606084860312156113ea57600080fd5b83356113f58161170e565b925060208401356114058161170e565b929592945050506040919091013590565b60006020828403121561142857600080fd5b813561069381611726565b60006020828403121561144557600080fd5b815161069381611726565b60006020828403121561146257600080fd5b5051919050565b60006020828403121561147b57600080fd5b5035919050565b6000806040838503121561149557600080fd5b8235915060208301356114a78161170e565b809150509250929050565b6000806000606084860312156114c757600080fd5b833592506114d760208501611300565b91506114e560408501611300565b90509250925092565b600080600080600060a0868803121561150657600080fd5b61150f86611311565b945060208601519350604086015192506060860151915061153260808701611311565b90509295509295909350565b6001600160a01b0391909116815260200190565b6020808252825182820181905260009190848201906040850190845b8181101561158a5783518352928401929184019160010161156e565b50909695505050505050565b602080825260059082015264454332312d60d81b604082015260600190565b6020808252602e908201527f496e697469616c697a61626c653a20636f6e747261637420697320616c72656160408201526d191e481a5b9a5d1a585b1a5e995960921b606082015260800190565b602080825260059082015264454332352d60d81b604082015260600190565b602080825260059082015264454332322d60d81b604082015260600190565b9283526020830191909152604082015260600190565b6000821982111561166a5761166a6116e2565b500190565b60008261168c57634e487b7160e01b600052601260045260246000fd5b500490565b60008160001904831182151516156116ab576116ab6116e2565b500290565b6000828210156116c2576116c26116e2565b500390565b60006000198214156116db576116db6116e2565b5060010190565b634e487b7160e01b600052601160045260246000fd5b634e487b7160e01b600052603260045260246000fd5b6001600160a01b038116811461172357600080fd5b50565b801515811461172357600080fdfea264697066735822122093642384d410dce6c533477d7d49d2212224330b6cbc02f73713a42cbe92c3a164736f6c63430008070033",
  "immutableReferences": {},
  "source": "// SPDX-License-Identifier: GPL-3.0\r\n\r\npragma solidity 0.8.7;\r\n\r\n/**\r\n Price Converter is an interface to the Chain Link Price Registry for USD to ETH exchange\r\n */\r\n\r\nimport \"../Interfaces/IPriceConverter.sol\";\r\nimport \"../Base/TokenGovernanceBaseContract.sol\";\r\nimport \"@chainlink/contracts/src/v0.8/interfaces/FeedRegistryInterface.sol\";\r\nimport \"@chainlink/contracts/src/v0.8/Denominations.sol\";\r\n\r\n\r\ncontract PriceConverter is IPriceConverter, TokenGovernanceBaseContract {\r\n\r\n     // EVENTS /////////////////////////////////////////\r\n    event _NewRegistryAddress(address);\r\n\r\n    // DATA /////////////////////////////////////////\r\n    FeedRegistryInterface internal _registry;\r\n\r\n    address internal _ProposedRegistryAddress;\r\n\r\n    // CONSTRUCTOR /////////////////////////////////////////\r\n    function PriceConverter_init(address registry, address managerContractAddress, address chairPerson, uint256 PropositionLifeTime, uint8 PropositionThresholdPercentage, uint8 minWeightToProposePercentage) public initializer \r\n    {\r\n        super.TokenGovernanceContract_init(PropositionLifeTime, PropositionThresholdPercentage, minWeightToProposePercentage, chairPerson, managerContractAddress);\r\n        _registry = FeedRegistryInterface(registry);\r\n    }\r\n\r\n    // GOVERNANCE /////////////////////////////////////////\r\n    function updateRegistryAddress(address NewRegistryAddress) external override\r\n    {\r\n        addProposition();\r\n        _ProposedRegistryAddress = NewRegistryAddress;\r\n    }\r\n\r\n    function propositionApproved() internal override\r\n    {\r\n        _registry = FeedRegistryInterface(_ProposedRegistryAddress);\r\n        \r\n        removeProposition();\r\n\r\n        emit _NewRegistryAddress(_ProposedRegistryAddress);\r\n    }\r\n\r\n    function propositionRejected() internal override\r\n    {\r\n        removeProposition();\r\n    }\r\n\r\n    function propositionExpired() internal override\r\n    {\r\n        removeProposition();\r\n    }\r\n\r\n    function removeProposition() internal\r\n    {\r\n         delete(_ProposedRegistryAddress);\r\n    }\r\n\r\n    function retrieveProposition() external override view returns(bytes32[] memory)\r\n    {\r\n        bytes32[] memory proposition = new bytes32[](1);\r\n        proposition[0] = AddressLibrary.AddressToBytes32(_ProposedRegistryAddress);\r\n        return proposition;\r\n    }\r\n\r\n    // FUNCTIONALITY /////////////////////////////////////////\r\n    function fromUSDToETH(uint _USDamount) external override view returns (uint) {\r\n        (,int price,,,) = _registry.latestRoundData(Denominations.USD, Denominations.ETH);\r\n        return uint(price) * _USDamount;\r\n    }\r\n\r\n    function retrieveRegistryAddress() external override view returns(address){\r\n        return address(_registry);\r\n    }\r\n\r\n}",
  "sourcePath": "C:/Users/d-aam/GitHub/Certificates/contracts/DeployedContracts/PriceConverter.sol",
  "compiler": {
    "name": "solc",
    "version": "0.8.7+commit.e28d00a7.Emscripten.clang"
  },
  "schemaVersion": "3.3.4",
  "updatedAt": "2021-09-14T11:04:07.911Z",
  "networkType": "ethereum",
  "devdoc": {
    "kind": "dev",
    "methods": {},
    "version": 1
  },
  "userdoc": {
    "kind": "user",
    "methods": {},
    "version": 1
  }
}