{
  "contractName": "PrivatePoolGenerator",
  "abi": [
    {
      "inputs": [
        {
          "internalType": "address",
          "name": "managerContractAddress",
          "type": "address"
        }
      ],
      "stateMutability": "nonpayable",
      "type": "constructor"
    },
    {
      "anonymous": false,
      "inputs": [
        {
          "indexed": false,
          "internalType": "uint256",
          "name": "",
          "type": "uint256"
        },
        {
          "indexed": false,
          "internalType": "address",
          "name": "",
          "type": "address"
        },
        {
          "indexed": false,
          "internalType": "contract MultiSigCertificatesPool",
          "name": "",
          "type": "address"
        }
      ],
      "name": "_NewCertificatesPool",
      "type": "event"
    },
    {
      "inputs": [
        {
          "internalType": "address",
          "name": "TreasuryAddress",
          "type": "address"
        }
      ],
      "name": "updateContracts",
      "outputs": [],
      "stateMutability": "nonpayable",
      "type": "function"
    },
    {
      "inputs": [
        {
          "internalType": "address[]",
          "name": "owners",
          "type": "address[]"
        },
        {
          "internalType": "uint256",
          "name": "minOwners",
          "type": "uint256"
        }
      ],
      "name": "createPrivateCertificatesPool",
      "outputs": [],
      "stateMutability": "payable",
      "type": "function"
    },
    {
      "inputs": [
        {
          "internalType": "uint256",
          "name": "certificatePoolId",
          "type": "uint256"
        }
      ],
      "name": "retrievePrivateCertificatesPool",
      "outputs": [
        {
          "internalType": "address",
          "name": "",
          "type": "address"
        },
        {
          "internalType": "address",
          "name": "",
          "type": "address"
        }
      ],
      "stateMutability": "view",
      "type": "function"
    },
    {
      "inputs": [],
      "name": "retrieveTotalPrivateCertificatesPool",
      "outputs": [
        {
          "internalType": "uint256",
          "name": "",
          "type": "uint256"
        }
      ],
      "stateMutability": "view",
      "type": "function"
    }
  ],
  "bytecode": "0x608060405234801561001057600080fd5b50604051613d35380380613d3583398101604081905261002f91610054565b600080546001600160a01b0319166001600160a01b0392909216919091179055610084565b60006020828403121561006657600080fd5b81516001600160a01b038116811461007d57600080fd5b9392505050565b613ca2806100936000396000f3fe608060405260043610620000445760003560e01c8063279958a9146200004957806360f029c91462000070578063d185a5261462000094578063f5807c0514620000da575b600080fd5b3480156200005657600080fd5b506200006e620000683660046200050c565b620000f1565b005b3480156200007d57600080fd5b506001546040519081526020015b60405180910390f35b348015620000a157600080fd5b50620000b9620000b336600462000634565b620001e3565b604080516001600160a01b039384168152929091166020830152016200008b565b6200006e620000eb36600462000531565b62000328565b600054604051630d1d719d60e41b81526001600160a01b03909116600482015273__Library_______________________________9063d1d719d09060240160206040518083038186803b1580156200014957600080fd5b505af41580156200015e573d6000803e3d6000fd5b505050506040513d601f19601f8201168201806040525081019062000184919062000610565b1515600114620001c15760405162461bcd60e51b815260206004820152600360248201526208a86760eb1b60448201526064015b60405180910390fd5b600280546001600160a01b0319166001600160a01b0392909216919091179055565b60015460405163123bd07560e11b81526004810183905260248101829052600091829184919073__Library_______________________________90632477a0ea9060440160206040518083038186803b1580156200024157600080fd5b505af415801562000256573d6000803e3d6000fd5b505050506040513d601f19601f820116820180604052508101906200027c919062000610565b1515600114620002b55760405162461bcd60e51b815260206004820152600360248201526245433160e81b6044820152606401620001b8565b60018581548110620002cb57620002cb620006f0565b6000918252602090912060029091020154600180546001600160a01b039092169187908110620002ff57620002ff620006f0565b60009182526020909120600160029092020101549094506001600160a01b031692505050915091565b600254604051637864992f60e11b81526001600160a01b039091169063f0c9325e9034906200035d90600190600401620006a1565b6000604051808303818588803b1580156200037757600080fd5b505af11580156200038c573d6000803e3d6000fd5b505050505060008282604051620003a390620004e1565b620003b09291906200064e565b604051809103906000f080158015620003cd573d6000803e3d6000fd5b50604080518082019091523381526001600160a01b03808316602083019081526001805480820182556000829052845160029091027fb10e2d527612073b26eecdfd717e6a320cf44b4afac2b0732d9fcbe2b7fa0cf6810180549286166001600160a01b031993841617905592517fb10e2d527612073b26eecdfd717e6a320cf44b4afac2b0732d9fcbe2b7fa0cf7909301805493909416921691909117909155805492935090917f9bfff6b81778f7b8086272d62a71be896cfc1876bb5f2e4e1fe28bc4c241596891620004a291620006ca565b82516020840151604051620004d3939291909283526001600160a01b03918216602084015216604082015260600190565b60405180910390a150505050565b613550806200071d83390190565b80356001600160a01b03811681146200050757600080fd5b919050565b6000602082840312156200051f57600080fd5b6200052a82620004ef565b9392505050565b600080604083850312156200054557600080fd5b82356001600160401b03808211156200055d57600080fd5b818501915085601f8301126200057257600080fd5b813560208282111562000589576200058962000706565b8160051b604051601f19603f83011681018181108682111715620005b157620005b162000706565b604052838152828101945085830182870184018b1015620005d157600080fd5b600096505b84871015620005ff57620005ea81620004ef565b865260019690960195948301948301620005d6565b509997909101359750505050505050565b6000602082840312156200062357600080fd5b815180151581146200052a57600080fd5b6000602082840312156200064757600080fd5b5035919050565b604080825283519082018190526000906020906060840190828701845b82811015620006925781516001600160a01b0316845292840192908401906001016200066b565b50505092019290925292915050565b6020810160038310620006c457634e487b7160e01b600052602160045260246000fd5b91905290565b600082821015620006eb57634e487b7160e01b600052601160045260246000fd5b500390565b634e487b7160e01b600052603260045260246000fd5b634e487b7160e01b600052604160045260246000fdfe600560c09081526427bbb732b960d91b60e0526080908152610140604052600861010090815267283937bb34b232b960c11b6101205260a05262000048906004906002620003fd565b5060405162003550380380620035508339810160408190526200006b9162000583565b8181818160026004805480602002602001604051908101604052809291908181526020016000905b8282101562000149578382906000526020600020018054620000b5906200067e565b80601f0160208091040260200160405190810160405280929190818152602001828054620000e3906200067e565b8015620001345780601f10620001085761010080835404028352916020019162000134565b820191906000526020600020905b8154815290600101906020018083116200011657829003601f168201915b50505050508152602001906001019062000093565b5050505060008451841115620001945760405162461bcd60e51b81526004016200018b9060208082526004908201526322a1989b60e11b604082015260600190565b60405180910390fd5b60008411620001cf5760405162461bcd60e51b81526004016200018b906020808252600490820152634543313760e01b604082015260600190565b815183146200020a5760405162461bcd60e51b81526004016200018b9060208082526004908201526308a8662760e31b604082015260600190565b60008181555b83811015620002895760028054600101815560005282516003908490839081106200023f576200023f620006e5565b6020908102919091018101518254600181018455600093845292829020815162000273949190910192919091019062000461565b50806200028081620006bb565b91505062000210565b50600184905560005b8551811015620003ed57600073__AddressLibrary________________________634d84c524888481518110620002cd57620002cd620006e5565b60200260200101516040518263ffffffff1660e01b81526004016200030191906001600160a01b0391909116815260200190565b60206040518083038186803b1580156200031a57600080fd5b505af41580156200032f573d6000803e3d6000fd5b505050506040513d601f19601f8201168201806040525081019062000355919062000664565b90506001600260005481548110620003715762000371620006e5565b60009182526020808320858452600492909202909101905260408120805460ff19169215159290921790915554600280549091908110620003b657620003b6620006e5565b6000918252602080832060016004909302018201805492830181558352909120015580620003e481620006bb565b91505062000292565b5050505050505050505062000711565b8280548282559060005260206000209081019282156200044f579160200282015b828111156200044f57825180516200043e91849160209091019062000461565b50916020019190600101906200041e565b506200045d929150620004ec565b5090565b8280546200046f906200067e565b90600052602060002090601f016020900481019282620004935760008555620004de565b82601f10620004ae57805160ff1916838001178555620004de565b82800160010185558215620004de579182015b82811115620004de578251825591602001919060010190620004c1565b506200045d9291506200050d565b808211156200045d57600062000503828262000524565b50600101620004ec565b5b808211156200045d57600081556001016200050e565b50805462000532906200067e565b6000825580601f1062000543575050565b601f0160209004906000526020600020908101906200056391906200050d565b50565b80516001600160a01b03811681146200057e57600080fd5b919050565b600080604083850312156200059757600080fd5b82516001600160401b0380821115620005af57600080fd5b818501915085601f830112620005c457600080fd5b8151602082821115620005db57620005db620006fb565b8160051b604051601f19603f83011681018181108682111715620006035762000603620006fb565b604052838152828101945085830182870184018b10156200062357600080fd5b600096505b8487101562000651576200063c8162000566565b86526001969096019594830194830162000628565b5097909101519698969750505050505050565b6000602082840312156200067757600080fd5b5051919050565b600181811c908216806200069357607f821691505b60208210811415620006b557634e487b7160e01b600052602260045260246000fd5b50919050565b6000600019821415620006de57634e487b7160e01b600052601160045260246000fd5b5060010190565b634e487b7160e01b600052603260045260246000fd5b634e487b7160e01b600052604160045260246000fd5b612e2f80620007216000396000f3fe6080604052600436106101105760003560e01c80630b4c72a914610115578063173825d9146101375780631ab807f81461015757806327a40b4b1461016a5780632f54bf6e1461018a5780633542758f146101bf57806337583499146101df5780633fd071811461020d57806358a1ba251461022d57806365b973e51461025a5780636b074a07146102795780636b299604146102995780636b3a0fec146102c75780636e4f9179146102e75780636e55d2d41461030957806376f8f90f1461032957806377bc5a1f146103495780637c8c2add1461020d5780638a355a5714610369578063a93d5ed614610389578063ce33d58a1461039e578063d0a4adfe146103be578063fc00050014610411575b600080fd5b34801561012157600080fd5b5061013561013036600461259f565b610424565b005b34801561014357600080fd5b5061013561015236600461259f565b610432565b610135610165366004612876565b610487565b34801561017657600080fd5b5061013561018536600461259f565b610495565b34801561019657600080fd5b506101aa6101a536600461259f565b6104a0565b60405190151581526020015b60405180910390f35b3480156101cb57600080fd5b506101356101da3660046125bc565b6104b4565b3480156101eb57600080fd5b506101ff6101fa36600461259f565b6104c2565b6040516101b6929190612af9565b34801561021957600080fd5b506101356102283660046128a6565b6104da565b34801561023957600080fd5b5061024d610248366004612640565b6105a1565b6040516101b69190612aa7565b34801561026657600080fd5b506001545b6040519081526020016101b6565b34801561028557600080fd5b506101aa61029436600461259f565b610747565b3480156102a557600080fd5b506102b96102b4366004612823565b610754565b6040516101b6929190612a35565b3480156102d357600080fd5b506102b96102e2366004612823565b610763565b3480156102f357600080fd5b506102fc610771565b6040516101b69190612a22565b34801561031557600080fd5b5061026b61032436600461259f565b610782565b34801561033557600080fd5b5061013561034436600461259f565b6107a0565b34801561035557600080fd5b506101ff61036436600461259f565b6107fb565b34801561037557600080fd5b5061013561038436600461259f565b61080b565b34801561039557600080fd5b506102fc610816565b3480156103aa57600080fd5b506101356103b936600461259f565b610823565b3480156103ca57600080fd5b506104046103d9366004612876565b6001600160a01b03908116600090815260056020908152604080832094835293905291909120541690565b6040516101b691906129ed565b61013561041f3660046125bc565b61082f565b61042f81600161083c565b50565b6001546001610442600054610d0d565b5161044d9190612cf7565b808211156104765760405162461bcd60e51b815260040161046d90612b1d565b60405180910390fd5b61048283600054610efe565b505050565b6104918282611265565b5050565b61042f816001611398565b60006104ae82600054611829565b92915050565b610482838383600054611a1a565b606060006104d1836001611de9565b91509150915091565b604051630d1d719d60e41b8152309073__Library_______________________________9063d1d719d0906105139084906004016129ed565b60206040518083038186803b15801561052b57600080fd5b505af415801561053f573d6000803e3d6000fd5b505050506040513d601f19601f820116820180604052508101906105639190612840565b151560011461059a5760405162461bcd60e51b815260206004820152600360248201526208a86760eb1b604482015260640161046d565b5050505050565b6060826105ad85610782565b116105c75750604080516000815260208101909152610740565b8180846105d387610782565b6105dd9190612cf7565b10156105fa57836105ed86610782565b6105f79190612cf7565b90505b6000816001600160401b0381111561061457610614612dc0565b60405190808252806020026020018201604052801561063d578160200160208202803683370190505b506001600160a01b0387166000908152600560209081526040808320600101805482518185028101850190935280835294955092939092918301828280156106a457602002820191906000526020600020905b815481526020019060010190808311610690575b5050505050905060008060005b8351811015610737578783106106c657610737565b818911156106e0576106d9600183612cdf565b9150610725565b8381815181106106f2576106f2612daa565b602002602001015185848151811061070c5761070c612daa565b6020908102919091010152610722600184612cdf565b92505b8061072f81612d79565b9150506106b1565b50929450505050505b9392505050565b60006104ae826001611829565b6060806104d183600054611fe6565b6060806104d1836001611fe6565b606061077d6001610d0d565b905090565b6001600160a01b031660009081526005602052604090206001015490565b6107ac816000546121f3565b1515600114156107ef5760016107c3600054610d0d565b516107ce9190612cf7565b60015411156107ef5760405162461bcd60e51b815260040161046d90612b1d565b61042f81600054611398565b606060006104d183600054611de9565b61042f816001610efe565b606061077d600054610d0d565b61042f8160005461083c565b6104828383836001611a1a565b60025460405163123bd07560e11b815282919073__Library_______________________________90632477a0ea9061087b9085908590600401612aeb565b60206040518083038186803b15801561089357600080fd5b505af41580156108a7573d6000803e3d6000fd5b505050506040513d601f19601f820116820180604052508101906108cb9190612840565b15156001146108ec5760405162461bcd60e51b815260040161046d90612bb1565b6108f833600054611829565b15156001146109195760405162461bcd60e51b815260040161046d90612b94565b60018484610927828261235f565b151560011480610942575061093c82826121f3565b15156001145b61095e5760405162461bcd60e51b815260040161046d90612b76565b8686600073__AddressLibrary________________________634d84c524846040518263ffffffff1660e01b815260040161099991906129ed565b60206040518083038186803b1580156109b157600080fd5b505af41580156109c5573d6000803e3d6000fd5b505050506040513d601f19601f820116820180604052508101906109e9919061285d565b905073__ItemsLibrary__________________________637b6d23de338360028681548110610a1a57610a1a612daa565b90600052602060002090600402016040518463ffffffff1660e01b8152600401610a4693929190612a01565b60206040518083038186803b158015610a5e57600080fd5b505af4158015610a72573d6000803e3d6000fd5b505050506040513d601f19601f82011682018060405250810190610a969190612840565b15610ab35760405162461bcd60e51b815260040161046d90612b59565b604051631361314960e21b815260009073__AddressLibrary________________________90634d84c52490610aed908e906004016129ed565b60206040518083038186803b158015610b0557600080fd5b505af4158015610b19573d6000803e3d6000fd5b505050506040513d601f19601f82011682018060405250810190610b3d919061285d565b60408051600180825281830190925291925060009190602080830190803683370190505090508a81600081518110610b7757610b77612daa565b60200260200101818152505060006040518060c00160405280848152602001604051806020016040528060008152508152602001600154815260200160038e81548110610bc657610bc6612daa565b906000526020600020018054610bdb90612d3e565b80601f0160208091040260200160405190810160405280929190818152602001828054610c0790612d3e565b8015610c545780601f10610c2957610100808354040283529160200191610c54565b820191906000526020600020905b815481529060010190602001808311610c3757829003601f168201915b50505050508152602001838152602001600115158152509050600060028d81548110610c8257610c82612daa565b9060005260206000209060040201905073__ItemsLibrary__________________________635cb09bcf8383306040518463ffffffff1660e01b8152600401610ccd93929190612bce565b60006040518083038186803b158015610ce557600080fd5b505af4158015610cf9573d6000803e3d6000fd5b505050505050505050505050505050505050565b60025460405163123bd07560e11b8152606091839173__Library_______________________________90632477a0ea90610d4e9085908590600401612aeb565b60206040518083038186803b158015610d6657600080fd5b505af4158015610d7a573d6000803e3d6000fd5b505050506040513d601f19601f82011682018060405250810190610d9e9190612840565b1515600114610dbf5760405162461bcd60e51b815260040161046d90612bb1565b73__AddressLibrary________________________635f2e8a5d73__ItemsLibrary__________________________6327724f4b60028881548110610e0657610e06612daa565b90600052602060002090600402016040518263ffffffff1660e01b8152600401610e3291815260200190565b60006040518083038186803b158015610e4a57600080fd5b505af4158015610e5e573d6000803e3d6000fd5b505050506040513d6000823e601f3d908101601f19168201604052610e869190810190612715565b6040518263ffffffff1660e01b8152600401610ea29190612aa7565b60006040518083038186803b158015610eba57600080fd5b505af4158015610ece573d6000803e3d6000fd5b505050506040513d6000823e601f3d908101601f19168201604052610ef69190810190612675565b949350505050565b60025460405163123bd07560e11b815282919073__Library_______________________________90632477a0ea90610f3d9085908590600401612aeb565b60206040518083038186803b158015610f5557600080fd5b505af4158015610f69573d6000803e3d6000fd5b505050506040513d601f19601f82011682018060405250810190610f8d9190612840565b1515600114610fae5760405162461bcd60e51b815260040161046d90612bb1565b610fba33600054611829565b1515600114610fdb5760405162461bcd60e51b815260040161046d90612b94565b60018484610fe98282611829565b15156001146110205760405162461bcd60e51b815260206004820152600360248201526245433760e81b604482015260640161046d565b6000878761102e82826121f3565b1561104b5760405162461bcd60e51b815260040161046d90612b3b565b604051631361314960e21b815260009073__AddressLibrary________________________90634d84c52490611085908e906004016129ed565b60206040518083038186803b15801561109d57600080fd5b505af41580156110b1573d6000803e3d6000fd5b505050506040513d601f19601f820116820180604052508101906110d5919061285d565b60408051600180825281830190925291925060009190602080830190803683370190505090508a8160008151811061110f5761110f612daa565b60200260200101818152505060006040518060c00160405280848152602001604051806020016040528060008152508152602001600154815260200160038e8154811061115e5761115e612daa565b90600052602060002001805461117390612d3e565b80601f016020809104026020016040519081016040528092919081815260200182805461119f90612d3e565b80156111ec5780601f106111c1576101008083540402835291602001916111ec565b820191906000526020600020905b8154815290600101906020018083116111cf57829003601f168201915b50505050508152602001838152602001600115158152509050600060028d8154811061121a5761121a612daa565b9060005260206000209060040201905073__ItemsLibrary__________________________63e23fcdef8383306040518463ffffffff1660e01b8152600401610ccd93929190612bce565b61126e33610747565b15156001146112a85760405162461bcd60e51b815260040161046d9060208082526004908201526322a1989960e11b604082015260600190565b816001600160a01b0380831660009081526005602090815260408083208784529091529020548391859116156113095760405162461bcd60e51b815260040161046d906020808252600490820152634543313560e01b604082015260600190565b6001600160a01b03841660008181526005602081815260408084208a855280835281852080546001600160a01b0319163390811790915593835260019081018054918201815585529382902090930189905582519182528101929092527f601cb9a073dbfa468ef12878ee6c720641a49b76af7c16099e8c0a1ac3ca79b5910160405180910390a15050505050565b60025460405163123bd07560e11b815282919073__Library_______________________________90632477a0ea906113d79085908590600401612aeb565b60206040518083038186803b1580156113ef57600080fd5b505af4158015611403573d6000803e3d6000fd5b505050506040513d601f19601f820116820180604052508101906114279190612840565b15156001146114485760405162461bcd60e51b815260040161046d90612bb1565b61145433600054611829565b15156001146114755760405162461bcd60e51b815260040161046d90612b94565b60018484611483828261235f565b15156001148061149e575061149882826121f3565b15156001145b6114ba5760405162461bcd60e51b815260040161046d90612b76565b8686600073__AddressLibrary________________________634d84c524846040518263ffffffff1660e01b81526004016114f591906129ed565b60206040518083038186803b15801561150d57600080fd5b505af4158015611521573d6000803e3d6000fd5b505050506040513d601f19601f82011682018060405250810190611545919061285d565b905073__ItemsLibrary__________________________637b6d23de33836002868154811061157657611576612daa565b90600052602060002090600402016040518463ffffffff1660e01b81526004016115a293929190612a01565b60206040518083038186803b1580156115ba57600080fd5b505af41580156115ce573d6000803e3d6000fd5b505050506040513d601f19601f820116820180604052508101906115f29190612840565b1561160f5760405162461bcd60e51b815260040161046d90612b59565b604051631361314960e21b815260009073__AddressLibrary________________________90634d84c52490611649908e906004016129ed565b60206040518083038186803b15801561166157600080fd5b505af4158015611675573d6000803e3d6000fd5b505050506040513d601f19601f82011682018060405250810190611699919061285d565b60408051600180825281830190925291925060009190602080830190803683370190505090508a816000815181106116d3576116d3612daa565b60200260200101818152505060006040518060c00160405280848152602001604051806020016040528060008152508152602001600154815260200160038e8154811061172257611722612daa565b90600052602060002001805461173790612d3e565b80601f016020809104026020016040519081016040528092919081815260200182805461176390612d3e565b80156117b05780601f10611785576101008083540402835291602001916117b0565b820191906000526020600020905b81548152906001019060200180831161179357829003601f168201915b50505050508152602001838152602001600115158152509050600060028d815481106117de576117de612daa565b9060005260206000209060040201905073__ItemsLibrary__________________________637493a70b8383306040518463ffffffff1660e01b8152600401610ccd93929190612bce565b60025460405163123bd07560e11b8152600091839173__Library_______________________________90632477a0ea9061186a9085908590600401612aeb565b60206040518083038186803b15801561188257600080fd5b505af4158015611896573d6000803e3d6000fd5b505050506040513d601f19601f820116820180604052508101906118ba9190612840565b15156001146118db5760405162461bcd60e51b815260040161046d90612bb1565b604051631361314960e21b815260009073__AddressLibrary________________________90634d84c524906119159089906004016129ed565b60206040518083038186803b15801561192d57600080fd5b505af4158015611941573d6000803e3d6000fd5b505050506040513d601f19601f82011682018060405250810190611965919061285d565b905073__ItemsLibrary__________________________63dbdfbeec826002888154811061199557611995612daa565b90600052602060002090600402016040518363ffffffff1660e01b81526004016119c0929190612aeb565b60206040518083038186803b1580156119d857600080fd5b505af41580156119ec573d6000803e3d6000fd5b505050506040513d601f19601f82011682018060405250810190611a109190612840565b9695505050505050565b60025460405163123bd07560e11b815282919073__Library_______________________________90632477a0ea90611a599085908590600401612aeb565b60206040518083038186803b158015611a7157600080fd5b505af4158015611a85573d6000803e3d6000fd5b505050506040513d601f19601f82011682018060405250810190611aa99190612840565b1515600114611aca5760405162461bcd60e51b815260040161046d90612bb1565b611ad633600054611829565b1515600114611af75760405162461bcd60e51b815260040161046d90612b94565b60008684611b058282611829565b15611b385760405162461bcd60e51b815260206004820152600360248201526222a19b60e91b604482015260640161046d565b60008987611b46828261235f565b15611b635760405162461bcd60e51b815260040161046d90612b3b565b600073__AddressLibrary________________________634d84c5248e6040518263ffffffff1660e01b8152600401611b9c91906129ed565b60206040518083038186803b158015611bb457600080fd5b505af4158015611bc8573d6000803e3d6000fd5b505050506040513d601f19601f82011682018060405250810190611bec919061285d565b60408051600180825281830190925291925060009190602080830190803683370190505090508a81600081518110611c2657611c26612daa565b60200260200101818152505060006040518060c001604052808481526020018f8f8080601f0160208091040260200160405190810160405280939291908181526020018383808284376000920191909152505050908252506001546020820152600380546040909201918f908110611ca057611ca0612daa565b906000526020600020018054611cb590612d3e565b80601f0160208091040260200160405190810160405280929190818152602001828054611ce190612d3e565b8015611d2e5780601f10611d0357610100808354040283529160200191611d2e565b820191906000526020600020905b815481529060010190602001808311611d1157829003601f168201915b50505050508152602001838152602001600115158152509050600060028d81548110611d5c57611d5c612daa565b9060005260206000209060040201905073__ItemsLibrary__________________________630b985aaa8383306040518463ffffffff1660e01b8152600401611da793929190612bce565b60006040518083038186803b158015611dbf57600080fd5b505af4158015611dd3573d6000803e3d6000fd5b5050505050505050505050505050505050505050565b60025460405163123bd07560e11b815260609160009184919073__Library_______________________________90632477a0ea90611e2e9085908590600401612aeb565b60206040518083038186803b158015611e4657600080fd5b505af4158015611e5a573d6000803e3d6000fd5b505050506040513d601f19601f82011682018060405250810190611e7e9190612840565b1515600114611e9f5760405162461bcd60e51b815260040161046d90612bb1565b604051631361314960e21b815260009073__AddressLibrary________________________90634d84c52490611ed9908a906004016129ed565b60206040518083038186803b158015611ef157600080fd5b505af4158015611f05573d6000803e3d6000fd5b505050506040513d601f19601f82011682018060405250810190611f29919061285d565b905073__ItemsLibrary__________________________631aeccc6a8260028981548110611f5957611f59612daa565b90600052602060002090600402016040518363ffffffff1660e01b8152600401611f84929190612aeb565b60006040518083038186803b158015611f9c57600080fd5b505af4158015611fb0573d6000803e3d6000fd5b505050506040513d6000823e601f3d908101601f19168201604052611fd89190810190612937565b945094505050509250929050565b60025460405163123bd07560e11b8152606091829184919073__Library_______________________________90632477a0ea9061202a9085908590600401612aeb565b60206040518083038186803b15801561204257600080fd5b505af4158015612056573d6000803e3d6000fd5b505050506040513d601f19601f8201168201806040525081019061207a9190612840565b151560011461209b5760405162461bcd60e51b815260040161046d90612bb1565b60608073__ItemsLibrary__________________________63e035e0068960028a815481106120cc576120cc612daa565b90600052602060002090600402016040518363ffffffff1660e01b81526004016121029291909115158252602082015260400190565b60006040518083038186803b15801561211a57600080fd5b505af415801561212e573d6000803e3d6000fd5b505050506040513d6000823e601f3d908101601f191682016040526121569190810190612749565b604051635f2e8a5d60e01b8152919350915073__AddressLibrary________________________90635f2e8a5d90612192908590600401612aa7565b60006040518083038186803b1580156121aa57600080fd5b505af41580156121be573d6000803e3d6000fd5b505050506040513d6000823e601f3d908101601f191682016040526121e69190810190612675565b9890975095505050505050565b60025460405163123bd07560e11b8152600091839173__Library_______________________________90632477a0ea906122349085908590600401612aeb565b60206040518083038186803b15801561224c57600080fd5b505af4158015612260573d6000803e3d6000fd5b505050506040513d601f19601f820116820180604052508101906122849190612840565b15156001146122a55760405162461bcd60e51b815260040161046d90612bb1565b604051631361314960e21b815260009073__AddressLibrary________________________90634d84c524906122df9089906004016129ed565b60206040518083038186803b1580156122f757600080fd5b505af415801561230b573d6000803e3d6000fd5b505050506040513d601f19601f8201168201806040525081019061232f919061285d565b905073__ItemsLibrary__________________________632854ed2e826002888154811061199557611995612daa565b60025460405163123bd07560e11b8152600091839173__Library_______________________________90632477a0ea906123a09085908590600401612aeb565b60206040518083038186803b1580156123b857600080fd5b505af41580156123cc573d6000803e3d6000fd5b505050506040513d601f19601f820116820180604052508101906123f09190612840565b15156001146124115760405162461bcd60e51b815260040161046d90612bb1565b604051631361314960e21b815260009073__AddressLibrary________________________90634d84c5249061244b9089906004016129ed565b60206040518083038186803b15801561246357600080fd5b505af4158015612477573d6000803e3d6000fd5b505050506040513d601f19601f8201168201806040525081019061249b919061285d565b905073__ItemsLibrary__________________________6226d766826002888154811061199557611995612daa565b600082601f8301126124db57600080fd5b815160206124f06124eb83612cbc565b612c8c565b80838252828201915082860187848660051b890101111561251057600080fd5b60005b8581101561252f57815184529284019290840190600101612513565b5090979650505050505050565b600082601f83011261254d57600080fd5b81516001600160401b0381111561256657612566612dc0565b612579601f8201601f1916602001612c8c565b81815284602083860101111561258e57600080fd5b610ef6826020830160208701612d0e565b6000602082840312156125b157600080fd5b813561074081612dd6565b6000806000604084860312156125d157600080fd5b83356125dc81612dd6565b925060208401356001600160401b03808211156125f857600080fd5b818601915086601f83011261260c57600080fd5b81358181111561261b57600080fd5b87602082850101111561262d57600080fd5b6020830194508093505050509250925092565b60008060006060848603121561265557600080fd5b833561266081612dd6565b95602085013595506040909401359392505050565b6000602080838503121561268857600080fd5b82516001600160401b0381111561269e57600080fd5b8301601f810185136126af57600080fd5b80516126bd6124eb82612cbc565b80828252848201915084840188868560051b87010111156126dd57600080fd5b600094505b838510156127095780516126f581612dd6565b8352600194909401939185019185016126e2565b50979650505050505050565b60006020828403121561272757600080fd5b81516001600160401b0381111561273d57600080fd5b610ef6848285016124ca565b6000806040838503121561275c57600080fd5b82516001600160401b038082111561277357600080fd5b61277f868387016124ca565b935060209150818501518181111561279657600080fd5b8501601f810187136127a757600080fd5b80516127b56124eb82612cbc565b8082825285820191508584018a878560051b87010111156127d557600080fd5b6000805b85811015612810578251888111156127ef578283fd5b6127fd8e8b838b010161253c565b86525093880193918801916001016127d9565b5050508096505050505050509250929050565b60006020828403121561283557600080fd5b813561074081612deb565b60006020828403121561285257600080fd5b815161074081612deb565b60006020828403121561286f57600080fd5b5051919050565b6000806040838503121561288957600080fd5b82359150602083013561289b81612dd6565b809150509250929050565b600080600080606085870312156128bc57600080fd5b8435935060208501356001600160401b03808211156128da57600080fd5b818701915087601f8301126128ee57600080fd5b8135818111156128fd57600080fd5b8860208260051b850101111561291257600080fd5b602083019550809450505050604085013561292c81612deb565b939692955090935050565b6000806040838503121561294a57600080fd5b82516001600160401b0381111561296057600080fd5b61296c8582860161253c565b925050602083015161289b81612deb565b600081518084526020808501945080840160005b838110156129b65781516001600160a01b031687529582019590820190600101612991565b509495945050505050565b600081518084526129d9816020860160208601612d0e565b601f01601f19169290920160200192915050565b6001600160a01b0391909116815260200190565b6001600160a01b039390931683526020830191909152604082015260600190565b602081526000610740602083018461297d565b604081526000612a48604083018561297d565b6020838203818501528185518084528284019150828160051b85010183880160005b83811015612a9857601f19878403018552612a868383516129c1565b94860194925090850190600101612a6a565b50909998505050505050505050565b6020808252825182820181905260009190848201906040850190845b81811015612adf57835183529284019291840191600101612ac3565b50909695505050505050565b918252602082015260400190565b604081526000612b0c60408301856129c1565b905082151560208301529392505050565b6020808252600490820152634543313960e01b604082015260600190565b6020808252600490820152634543323760e01b604082015260600190565b60208082526003908201526245433560e81b604082015260600190565b60208082526004908201526308a8664760e31b604082015260600190565b60208082526003908201526245433960e81b604082015260600190565b60208082526003908201526245433160e81b604082015260600190565b6060815283516060820152600060208086015160c06080850152612bf66101208501826129c1565b9050604087015160a08501526060870151605f19808684030160c0870152612c1e83836129c1565b60808a015187820390920160e088015281518082529185019350600092508401905b80831015612c605783518252928401926001929092019190840190612c40565b5060a0890151151561010087015292850187905250506001600160a01b03841660408401529050610ef6565b604051601f8201601f191681016001600160401b0381118282101715612cb457612cb4612dc0565b604052919050565b60006001600160401b03821115612cd557612cd5612dc0565b5060051b60200190565b60008219821115612cf257612cf2612d94565b500190565b600082821015612d0957612d09612d94565b500390565b60005b83811015612d29578181015183820152602001612d11565b83811115612d38576000848401525b50505050565b600181811c90821680612d5257607f821691505b60208210811415612d7357634e487b7160e01b600052602260045260246000fd5b50919050565b6000600019821415612d8d57612d8d612d94565b5060010190565b634e487b7160e01b600052601160045260246000fd5b634e487b7160e01b600052603260045260246000fd5b634e487b7160e01b600052604160045260246000fd5b6001600160a01b038116811461042f57600080fd5b801515811461042f57600080fdfea26469706673582212206f391f36bcf44f911a96de2b170d681a52bd3cba15cbd3d0e8c0f2143e943b3c64736f6c63430008060033a2646970667358221220006c33dff5e277232a1fc17d8485798cc2d8041b1d42971be8a3efd28e2d131b64736f6c63430008060033",
  "immutableReferences": {},
  "source": "// SPDX-License-Identifier: GPL-3.0\r\n\r\npragma solidity >=0.7.0 <0.9.0;\r\n\r\n/**\r\n * @title Storage\r\n * @dev Store & retrieve value in a variable\r\n */\r\n\r\n import './Interfaces/IPoolGenerator.sol';\r\n import \"./PrivateCertificatesPool.sol\";\r\n import \"./Treasury.sol\";\r\n import \"./Libraries/Library.sol\";\r\n import \"./Base/ManagedBaseContract.sol\";\r\n\r\n\r\ncontract PrivatePoolGenerator is IPoolGenerator, ManagedBaseContract {\r\n    using Library for *;\r\n\r\n     // events\r\n    event _NewCertificatesPool(uint256, address, MultiSigCertificatesPool);\r\n\r\n    // modfiers\r\n    modifier isIdCorrect(uint Id, uint length){\r\n        require(true == Library.IdCorrect(Id, length), \"EC1\");\r\n        _;\r\n    }\r\n\r\n    // Private Certificates Pool structure\r\n    struct _privateCertificatesPoolStruct{\r\n        address _creator;\r\n        PrivateCertificatesPool _PrivateCertificatesPool;\r\n    } \r\n\r\n    _privateCertificatesPoolStruct[] _PrivateCertificatesPools;\r\n\r\n    // Treasury\r\n    Treasury _Treasury;\r\n\r\n    // Constructor\r\n    constructor(address managerContractAddress)\r\n    ManagedBaseContract(managerContractAddress) \r\n    {}\r\n\r\n    // functionality\r\n    function updateContracts(address TreasuryAddress) external\r\n        isFromManagerContract()\r\n    {\r\n        _Treasury = Treasury(TreasuryAddress);\r\n    }\r\n\r\n\r\n    function createPrivateCertificatesPool(address[] memory owners,  uint256 minOwners) external override payable\r\n    {\r\n        _Treasury.pay{value:msg.value}(Library.Prices.NewPool);\r\n        PrivateCertificatesPool certificatePool = new PrivateCertificatesPool(owners, minOwners);\r\n        _privateCertificatesPoolStruct memory privateCertificatesPool = _privateCertificatesPoolStruct(msg.sender, certificatePool);\r\n        _PrivateCertificatesPools.push(privateCertificatesPool);\r\n\r\n        emit _NewCertificatesPool(_PrivateCertificatesPools.length - 1, privateCertificatesPool._creator, privateCertificatesPool._PrivateCertificatesPool);\r\n    }\r\n\r\n    function retrievePrivateCertificatesPool(uint certificatePoolId) external override\r\n        isIdCorrect(certificatePoolId, _PrivateCertificatesPools.length)\r\n    view returns (address, address)\r\n    {\r\n        return(_PrivateCertificatesPools[certificatePoolId]._creator, address(_PrivateCertificatesPools[certificatePoolId]._PrivateCertificatesPool));\r\n    }\r\n\r\n    function retrieveTotalPrivateCertificatesPool() external override view returns (uint)\r\n    {\r\n        return(_PrivateCertificatesPools.length);\r\n    }\r\n\r\n}",
  "sourcePath": "C:\\Users\\d-aam\\GitHub\\Certificates\\contracts\\PrivatePoolGenerator.sol",
  "compiler": {
    "name": "solc",
    "version": "0.8.6+commit.11564f7e.Emscripten.clang"
  },
  "schemaVersion": "3.3.4",
  "updatedAt": "2021-07-29T08:14:52.666Z",
  "devdoc": {
    "kind": "dev",
    "methods": {},
    "version": 1
  },
  "userdoc": {
    "kind": "user",
    "methods": {},
    "version": 1
  }
}