{
  "contractName": "PrivateCertificatesPool",
  "abi": [
    {
      "inputs": [
        {
          "internalType": "address[]",
          "name": "owners",
          "type": "address[]"
        },
        {
          "internalType": "uint256",
          "name": "minOwners",
          "type": "uint256"
        }
      ],
      "stateMutability": "payable",
      "type": "constructor"
    },
    {
      "anonymous": false,
      "inputs": [
        {
          "indexed": false,
          "internalType": "address",
          "name": "",
          "type": "address"
        },
        {
          "indexed": false,
          "internalType": "address",
          "name": "",
          "type": "address"
        }
      ],
      "name": "_AddCertificateIdEvent",
      "type": "event"
    },
    {
      "anonymous": false,
      "inputs": [
        {
          "indexed": true,
          "internalType": "string",
          "name": "",
          "type": "string"
        },
        {
          "indexed": true,
          "internalType": "address",
          "name": "",
          "type": "address"
        },
        {
          "indexed": true,
          "internalType": "string",
          "name": "",
          "type": "string"
        }
      ],
      "name": "_AddEntityRejectionIdEvent",
      "type": "event"
    },
    {
      "anonymous": false,
      "inputs": [
        {
          "indexed": true,
          "internalType": "string",
          "name": "",
          "type": "string"
        },
        {
          "indexed": true,
          "internalType": "address",
          "name": "",
          "type": "address"
        },
        {
          "indexed": true,
          "internalType": "string",
          "name": "",
          "type": "string"
        }
      ],
      "name": "_AddEntityValidationIdEvent",
      "type": "event"
    },
    {
      "anonymous": false,
      "inputs": [
        {
          "indexed": false,
          "internalType": "address",
          "name": "",
          "type": "address"
        },
        {
          "indexed": false,
          "internalType": "address",
          "name": "",
          "type": "address"
        }
      ],
      "name": "_RemoveCertificateIdEvent",
      "type": "event"
    },
    {
      "anonymous": false,
      "inputs": [
        {
          "indexed": true,
          "internalType": "string",
          "name": "",
          "type": "string"
        },
        {
          "indexed": true,
          "internalType": "address",
          "name": "",
          "type": "address"
        },
        {
          "indexed": true,
          "internalType": "string",
          "name": "",
          "type": "string"
        }
      ],
      "name": "_RemoveEntityRejectionIdEvent",
      "type": "event"
    },
    {
      "anonymous": false,
      "inputs": [
        {
          "indexed": true,
          "internalType": "string",
          "name": "",
          "type": "string"
        },
        {
          "indexed": true,
          "internalType": "address",
          "name": "",
          "type": "address"
        },
        {
          "indexed": true,
          "internalType": "string",
          "name": "",
          "type": "string"
        }
      ],
      "name": "_RemoveEntityValidationIdEvent",
      "type": "event"
    },
    {
      "inputs": [
        {
          "internalType": "bytes32",
          "name": "CertificateHash",
          "type": "bytes32"
        },
        {
          "internalType": "address",
          "name": "holder",
          "type": "address"
        }
      ],
      "name": "addCertificate",
      "outputs": [],
      "stateMutability": "payable",
      "type": "function"
    },
    {
      "inputs": [
        {
          "internalType": "address",
          "name": "owner",
          "type": "address"
        },
        {
          "internalType": "string",
          "name": "ownerInfo",
          "type": "string"
        }
      ],
      "name": "addOwner",
      "outputs": [],
      "stateMutability": "nonpayable",
      "type": "function"
    },
    {
      "inputs": [
        {
          "internalType": "address",
          "name": "owner",
          "type": "address"
        }
      ],
      "name": "isOwner",
      "outputs": [
        {
          "internalType": "bool",
          "name": "",
          "type": "bool"
        }
      ],
      "stateMutability": "view",
      "type": "function"
    },
    {
      "inputs": [
        {
          "internalType": "address",
          "name": "provider",
          "type": "address"
        }
      ],
      "name": "isProvider",
      "outputs": [
        {
          "internalType": "bool",
          "name": "",
          "type": "bool"
        }
      ],
      "stateMutability": "view",
      "type": "function"
    },
    {
      "inputs": [
        {
          "internalType": "address",
          "name": "owner",
          "type": "address"
        }
      ],
      "name": "rejectOwner",
      "outputs": [],
      "stateMutability": "nonpayable",
      "type": "function"
    },
    {
      "inputs": [
        {
          "internalType": "address",
          "name": "provider",
          "type": "address"
        }
      ],
      "name": "rejectProvider",
      "outputs": [],
      "stateMutability": "nonpayable",
      "type": "function"
    },
    {
      "inputs": [
        {
          "internalType": "bytes32",
          "name": "CertificateHash",
          "type": "bytes32"
        },
        {
          "internalType": "address",
          "name": "holder",
          "type": "address"
        }
      ],
      "name": "removeCertificate",
      "outputs": [],
      "stateMutability": "nonpayable",
      "type": "function"
    },
    {
      "inputs": [
        {
          "internalType": "address",
          "name": "owner",
          "type": "address"
        }
      ],
      "name": "removeOwner",
      "outputs": [],
      "stateMutability": "nonpayable",
      "type": "function"
    },
    {
      "inputs": [
        {
          "internalType": "address",
          "name": "provider",
          "type": "address"
        }
      ],
      "name": "removeProvider",
      "outputs": [],
      "stateMutability": "nonpayable",
      "type": "function"
    },
    {
      "inputs": [],
      "name": "retrieveAllOwners",
      "outputs": [
        {
          "internalType": "address[]",
          "name": "",
          "type": "address[]"
        }
      ],
      "stateMutability": "view",
      "type": "function"
    },
    {
      "inputs": [],
      "name": "retrieveAllProviders",
      "outputs": [
        {
          "internalType": "address[]",
          "name": "",
          "type": "address[]"
        }
      ],
      "stateMutability": "view",
      "type": "function"
    },
    {
      "inputs": [
        {
          "internalType": "bytes32",
          "name": "CertificateHash",
          "type": "bytes32"
        },
        {
          "internalType": "address",
          "name": "holder",
          "type": "address"
        }
      ],
      "name": "retrieveCertificateProvider",
      "outputs": [
        {
          "internalType": "address",
          "name": "",
          "type": "address"
        }
      ],
      "stateMutability": "view",
      "type": "function"
    },
    {
      "inputs": [
        {
          "internalType": "address",
          "name": "holder",
          "type": "address"
        },
        {
          "internalType": "uint256",
          "name": "skipFirst",
          "type": "uint256"
        },
        {
          "internalType": "uint256",
          "name": "max",
          "type": "uint256"
        }
      ],
      "name": "retrieveCertificatesByHolder",
      "outputs": [
        {
          "internalType": "bytes32[]",
          "name": "",
          "type": "bytes32[]"
        }
      ],
      "stateMutability": "view",
      "type": "function"
    },
    {
      "inputs": [],
      "name": "retrieveMinOwners",
      "outputs": [
        {
          "internalType": "uint256",
          "name": "",
          "type": "uint256"
        }
      ],
      "stateMutability": "view",
      "type": "function"
    },
    {
      "inputs": [
        {
          "internalType": "address",
          "name": "owner",
          "type": "address"
        }
      ],
      "name": "retrieveOwner",
      "outputs": [
        {
          "internalType": "string",
          "name": "",
          "type": "string"
        },
        {
          "internalType": "bool",
          "name": "",
          "type": "bool"
        }
      ],
      "stateMutability": "view",
      "type": "function"
    },
    {
      "inputs": [
        {
          "internalType": "bool",
          "name": "addedORremove",
          "type": "bool"
        }
      ],
      "name": "retrievePendingOwners",
      "outputs": [
        {
          "internalType": "address[]",
          "name": "",
          "type": "address[]"
        },
        {
          "internalType": "string[]",
          "name": "",
          "type": "string[]"
        }
      ],
      "stateMutability": "view",
      "type": "function"
    },
    {
      "inputs": [
        {
          "internalType": "bool",
          "name": "addedORremove",
          "type": "bool"
        }
      ],
      "name": "retrievePendingProviders",
      "outputs": [
        {
          "internalType": "address[]",
          "name": "",
          "type": "address[]"
        },
        {
          "internalType": "string[]",
          "name": "",
          "type": "string[]"
        }
      ],
      "stateMutability": "view",
      "type": "function"
    },
    {
      "inputs": [
        {
          "internalType": "address",
          "name": "provider",
          "type": "address"
        }
      ],
      "name": "retrieveProvider",
      "outputs": [
        {
          "internalType": "string",
          "name": "",
          "type": "string"
        },
        {
          "internalType": "bool",
          "name": "",
          "type": "bool"
        }
      ],
      "stateMutability": "view",
      "type": "function"
    },
    {
      "inputs": [
        {
          "internalType": "address",
          "name": "holder",
          "type": "address"
        }
      ],
      "name": "retrieveTotalCertificatesByHolder",
      "outputs": [
        {
          "internalType": "uint256",
          "name": "",
          "type": "uint256"
        }
      ],
      "stateMutability": "view",
      "type": "function"
    },
    {
      "inputs": [
        {
          "internalType": "address",
          "name": "owner",
          "type": "address"
        }
      ],
      "name": "validateOwner",
      "outputs": [],
      "stateMutability": "nonpayable",
      "type": "function"
    },
    {
      "inputs": [
        {
          "internalType": "address",
          "name": "provider",
          "type": "address"
        }
      ],
      "name": "validateProvider",
      "outputs": [],
      "stateMutability": "nonpayable",
      "type": "function"
    },
    {
      "inputs": [
        {
          "internalType": "address",
          "name": "provider",
          "type": "address"
        },
        {
          "internalType": "string",
          "name": "providerInfo",
          "type": "string"
        }
      ],
      "name": "addProvider",
      "outputs": [],
      "stateMutability": "payable",
      "type": "function"
    }
  ],
  "bytecode": "0x600560c09081526427bbb732b960d91b60e0526080908152610140604052600861010090815267283937bb34b232b960c11b6101205260a05262000048906004906002620003be565b5060405162003a9338038062003a938339810160408190526200006b9162000544565b8181818160026004805480602002602001604051908101604052809291908181526020016000905b8282101562000149578382906000526020600020018054620000b59062000625565b80601f0160208091040260200160405190810160405280929190818152602001828054620000e39062000625565b8015620001345780601f10620001085761010080835404028352916020019162000134565b820191906000526020600020905b8154815290600101906020018083116200011657829003601f168201915b50505050508152602001906001019062000093565b5050505060008451841115620001945760405162461bcd60e51b81526004016200018b9060208082526004908201526322a1989b60e11b604082015260600190565b60405180910390fd5b60008411620001cf5760405162461bcd60e51b81526004016200018b906020808252600490820152634543313760e01b604082015260600190565b815183146200020a5760405162461bcd60e51b81526004016200018b9060208082526004908201526308a8662760e31b604082015260600190565b60008181555b83811015620002895760028054600101815560005282516003908490839081106200023f576200023f6200068c565b6020908102919091018101518254600181018455600093845292829020815162000273949190910192919091019062000422565b5080620002808162000662565b91505062000210565b50600184905560005b8551811015620003ae576001600260005481548110620002b657620002b66200068c565b90600052602060002090600402016000016000888481518110620002de57620002de6200068c565b60200260200101516001600160a01b03166001600160a01b0316815260200190815260200160002060000160006101000a81548160ff0219169083151502179055506002600054815481106200033857620003386200068c565b90600052602060002090600402016001018682815181106200035e576200035e6200068c565b60209081029190910181015182546001810184556000938452919092200180546001600160a01b0319166001600160a01b0390921691909117905580620003a58162000662565b91505062000292565b50505050505050505050620006b8565b82805482825590600052602060002090810192821562000410579160200282015b82811115620004105782518051620003ff91849160209091019062000422565b5091602001919060010190620003df565b506200041e929150620004ad565b5090565b828054620004309062000625565b90600052602060002090601f0160209004810192826200045457600085556200049f565b82601f106200046f57805160ff19168380011785556200049f565b828001600101855582156200049f579182015b828111156200049f57825182559160200191906001019062000482565b506200041e929150620004ce565b808211156200041e576000620004c48282620004e5565b50600101620004ad565b5b808211156200041e5760008155600101620004cf565b508054620004f39062000625565b6000825580601f1062000504575050565b601f016020900490600052602060002090810190620005249190620004ce565b50565b80516001600160a01b03811681146200053f57600080fd5b919050565b600080604083850312156200055857600080fd5b82516001600160401b03808211156200057057600080fd5b818501915085601f8301126200058557600080fd5b81516020828211156200059c576200059c620006a2565b8160051b604051601f19603f83011681018181108682111715620005c457620005c4620006a2565b604052838152828101945085830182870184018b1015620005e457600080fd5b600096505b848710156200061257620005fd8162000527565b865260019690960195948301948301620005e9565b5097909101519698969750505050505050565b600181811c908216806200063a57607f821691505b602082108114156200065c57634e487b7160e01b600052602260045260246000fd5b50919050565b60006000198214156200068557634e487b7160e01b600052601160045260246000fd5b5060010190565b634e487b7160e01b600052603260045260246000fd5b634e487b7160e01b600052604160045260246000fd5b6133cb80620006c86000396000f3fe6080604052600436106101055760003560e01c80630b4c72a91461010a578063173825d91461012c5780631ab807f81461014c57806327a40b4b1461015f5780632f54bf6e1461017f5780633542758f146101b457806337583499146101d457806358a1ba251461020257806365b973e51461022f5780636b074a071461024e5780636b2996041461026e5780636b3a0fec1461029c5780636e4f9179146102bc5780636e55d2d4146102de57806376f8f90f146102fe57806377bc5a1f1461031e5780638a355a571461033e578063a73db28a1461035e578063a93d5ed61461037e578063ce33d58a14610393578063d0a4adfe146103b3578063fc00050014610411575b600080fd5b34801561011657600080fd5b5061012a610125366004612d3f565b610424565b005b34801561013857600080fd5b5061012a610147366004612d3f565b610432565b61012a61015a366004612f0d565b6104a0565b34801561016b57600080fd5b5061012a61017a366004612d3f565b6104ae565b34801561018b57600080fd5b5061019f61019a366004612d3f565b6104b9565b60405190151581526020015b60405180910390f35b3480156101c057600080fd5b5061012a6101cf366004612d5a565b6104cd565b3480156101e057600080fd5b506101f46101ef366004612d3f565b6104db565b6040516101ab929190613149565b34801561020e57600080fd5b5061022261021d366004612ddc565b6104f3565b6040516101ab9190613105565b34801561023b57600080fd5b506001545b6040519081526020016101ab565b34801561025a57600080fd5b5061019f610269366004612d3f565b610699565b34801561027a57600080fd5b5061028e610289366004612ed3565b6106a6565b6040516101ab929190613093565b3480156102a857600080fd5b5061028e6102b7366004612ed3565b6106b5565b3480156102c857600080fd5b506102d16106c3565b6040516101ab9190613080565b3480156102ea57600080fd5b506102406102f9366004612d3f565b6106d4565b34801561030a57600080fd5b5061012a610319366004612d3f565b6106f2565b34801561032a57600080fd5b506101f4610339366004612d3f565b6106fe565b34801561034a57600080fd5b5061012a610359366004612d3f565b61070e565b34801561036a57600080fd5b5061012a610379366004612f0d565b610719565b34801561038a57600080fd5b506102d16109ce565b34801561039f57600080fd5b5061012a6103ae366004612d3f565b6109db565b3480156103bf57600080fd5b506103f96103ce366004612f0d565b6001600160a01b03908116600090815260056020908152604080832094835293905291909120541690565b6040516001600160a01b0390911681526020016101ab565b61012a61041f366004612d5a565b6109e7565b61042f8160016109f4565b50565b6001546001610442600054611205565b5161044d91906132d8565b8082111561048f5760405162461bcd60e51b8152600401610486906020808252600490820152634543313960e01b604082015260600190565b60405180910390fd5b61049b8360005461133d565b505050565b6104aa82826114c3565b5050565b61042f8160016115dc565b60006104c782600054611e09565b92915050565b61049b838383600054611f01565b606060006104ea8360016120df565b91509150915091565b6060826104ff856106d4565b116105195750604080516000815260208101909152610692565b818084610525876106d4565b61052f91906132d8565b101561054c578361053f866106d4565b61054991906132d8565b90505b6000816001600160401b0381111561056657610566613371565b60405190808252806020026020018201604052801561058f578160200160208202803683370190505b506001600160a01b0387166000908152600560209081526040808320600101805482518185028101850190935280835294955092939092918301828280156105f657602002820191906000526020600020905b8154815260200190600101908083116105e2575b5050505050905060008060005b83518110156106895787831061061857610689565b818911156106325761062b6001836132c0565b9150610677565b8381815181106106445761064461335b565b602002602001015185848151811061065e5761065e61335b565b60209081029190910101526106746001846132c0565b92505b806106818161332a565b915050610603565b50929450505050505b9392505050565b60006104c7826001611e09565b6060806104ea83600054612272565b6060806104ea836001612272565b60606106cf6001611205565b905090565b6001600160a01b031660009081526005602052604090206001015490565b61042f816000546115dc565b606060006104ea836000546120df565b61042f81600161133d565b61072233610699565b15156001146107435760405162461bcd60e51b8152600401610486906131c6565b6001600160a01b03818116600090815260056020908152604080832086845290915290205482918491163314806107825750336001600160a01b038316145b6107b75760405162461bcd60e51b8152600401610486906020808252600490820152631150cc4d60e21b604082015260600190565b6001600160a01b0380841660008181526005602081815260408084208a85528083528185205495855292825260019092018054835181840281018401909452808452949095169492939192919083018282801561083357602002820191906000526020600020905b81548152602001906001019080831161081f575b5050505050905060005b815181101561095a578181815181106108585761085861335b565b6020026020010151871415610948576001600160a01b038616600090815260056020526040908190209051635b28cf6360e01b815273__Library_______________________________91635b28cf63916108bd91859160019091019060040161326c565b60006040518083038186803b1580156108d557600080fd5b505af41580156108e9573d6000803e3d6000fd5b505050506040513d6000823e601f3d908101601f191682016040526109119190810190612e0f565b6001600160a01b03871660009081526005602090815260409091208251610942936001909201929190910190612ba2565b5061095a565b806109528161332a565b91505061083d565b506001600160a01b03851660009081526005602090815260408083208984529091529081902080546001600160a01b0319169055517fd12847594abf0621035046f61129f2a9dc5093eb516c6c517ece306362ef6f17906109be9084908890613066565b60405180910390a1505050505050565b60606106cf600054611205565b61042f816000546109f4565b61049b8383836001611f01565b60025460405163123bd07560e11b815282919073__Library_______________________________90632477a0ea90610a3390859085906004016132b2565b60206040518083038186803b158015610a4b57600080fd5b505af4158015610a5f573d6000803e3d6000fd5b505050506040513d601f19601f82011682018060405250810190610a839190612ef0565b1515600114610aa45760405162461bcd60e51b815260040161048690613201565b610ab033600054611e09565b1515600114610ad15760405162461bcd60e51b8152600401610486906131e4565b60018484610adf82826124f4565b151560011480610afa5750610af48282612690565b15156001145b610b165760405162461bcd60e51b8152600401610486906131a8565b60028681548110610b2957610b2961335b565b600091825260208083206001600160a01b038b16845260049092029091018152604091829020825160808101909352805460ff16151583526001810180549192840191610b75906132ef565b80601f0160208091040260200160405190810160405280929190818152602001828054610ba1906132ef565b8015610bee5780601f10610bc357610100808354040283529160200191610bee565b820191906000526020600020905b815481529060010190602001808311610bd157829003601f168201915b5050505050815260200160028201805480602002602001604051908101604052809291908181526020018280548015610c5057602002820191906000526020600020905b81546001600160a01b03168152600190910190602001808311610c32575b5050505050815260200160038201805480602002602001604051908101604052809291908181526020018280548015610cb257602002820191906000526020600020905b81546001600160a01b03168152600190910190602001808311610c94575b505050505081525050610cc933826040015161281f565b158015610ce15750610cdf33826060015161281f565b155b610cfd5760405162461bcd60e51b81526004016104869061318b565b60028781548110610d1057610d1061335b565b600091825260208083206001600160a01b038c1684526004909202909101815260408220600301805460018101825590835291200180546001600160a01b0319163317905560028054610d9e919089908110610d6e57610d6e61335b565b600091825260208083206001600160a01b038d168452600490920290910190526040902060030154600154612885565b156111fb57610dad88886124f4565b15610ffe57610ebd610e3b8960028a81548110610dcc57610dcc61335b565b9060005260206000209060040201600201805480602002602001604051908101604052809291908181526020018280548015610e3157602002820191906000526020600020905b81546001600160a01b03168152600190910190602001808311610e13575b50505050506128a0565b60028981548110610e4e57610e4e61335b565b9060005260206000209060040201600201805480602002602001604051908101604052809291908181526020018280548015610eb357602002820191906000526020600020905b81546001600160a01b03168152600190910190602001808311610e95575b50505050506128bd565b60028881548110610ed057610ed061335b565b90600052602060002090600402016002019080519060200190610ef4929190612bed565b5060028781548110610f0857610f0861335b565b600091825260208083206001600160a01b038c1684526004909202909101905260408120610f3b91600190910190612c42565b610f45888861295c565b60028781548110610f5857610f5861335b565b600091825260208083206001600160a01b038c168452600490920290910190526040908190209051610f8d9160010190612fca565b6040518091039020886001600160a01b031660038981548110610fb257610fb261335b565b90600052602060002001604051610fc99190612fca565b604051908190038120907f685e6db2d3847649450b48fc97cb6a50c54b7327a96b01f9302d7da45eec2f2390600090a46111fb565b6111056110858960028a815481106110185761101861335b565b9060005260206000209060040201600301805480602002602001604051908101604052809291908181526020018280548015610e31576020028201919060005260206000209081546001600160a01b03168152600190910190602001808311610e135750505050506128a0565b600289815481106110985761109861335b565b9060005260206000209060040201600301805480602002602001604051908101604052809291908181526020018280548015610eb3576020028201919060005260206000209081546001600160a01b03168152600190910190602001808311610e955750505050506128bd565b600288815481106111185761111861335b565b9060005260206000209060040201600301908051906020019061113c929190612bed565b50611147888861295c565b6002878154811061115a5761115a61335b565b600091825260208083206001600160a01b038c16845260049092029091019052604090819020905161118f9160010190612fca565b6040518091039020886001600160a01b0316600389815481106111b4576111b461335b565b906000526020600020016040516111cb9190612fca565b604051908190038120907e92c5dda54f9336a7649d49b86adbdc7725094433e5dcd54d69c4a8a3d7bed790600090a45b5050505050505050565b60025460405163123bd07560e11b8152606091839173__Library_______________________________90632477a0ea9061124690859085906004016132b2565b60206040518083038186803b15801561125e57600080fd5b505af4158015611272573d6000803e3d6000fd5b505050506040513d601f19601f820116820180604052508101906112969190612ef0565b15156001146112b75760405162461bcd60e51b815260040161048690613201565b600284815481106112ca576112ca61335b565b906000526020600020906004020160010180548060200260200160405190810160405280929190818152602001828054801561132f57602002820191906000526020600020905b81546001600160a01b03168152600190910190602001808311611311575b505050505092505050919050565b60025460405163123bd07560e11b815282919073__Library_______________________________90632477a0ea9061137c90859085906004016132b2565b60206040518083038186803b15801561139457600080fd5b505af41580156113a8573d6000803e3d6000fd5b505050506040513d601f19601f820116820180604052508101906113cc9190612ef0565b15156001146113ed5760405162461bcd60e51b815260040161048690613201565b600184846113fb8282611e09565b15156001146114325760405162461bcd60e51b815260206004820152600360248201526245433760e81b6044820152606401610486565b600087876114408282612690565b1561145d5760405162461bcd60e51b81526004016104869061316d565b600289815481106114705761147061335b565b60009182526020808320600492909202909101600301805460018101825590835291200180546001600160a01b0319166001600160a01b038c161790556114b78a8a6115dc565b50505050505050505050565b6114cc33610699565b15156001146114ed5760405162461bcd60e51b8152600401610486906131c6565b816001600160a01b03808316600090815260056020908152604080832087845290915290205483918591161561154e5760405162461bcd60e51b8152600401610486906020808252600490820152634543313560e01b604082015260600190565b6001600160a01b038416600090815260056020818152604080842089855280835281852080546001600160a01b031916339081179091559383526001908101805491820181558552919093200187905590517f601cb9a073dbfa468ef12878ee6c720641a49b76af7c16099e8c0a1ac3ca79b5916115cd918790613066565b60405180910390a15050505050565b60025460405163123bd07560e11b815282919073__Library_______________________________90632477a0ea9061161b90859085906004016132b2565b60206040518083038186803b15801561163357600080fd5b505af4158015611647573d6000803e3d6000fd5b505050506040513d601f19601f8201168201806040525081019061166b9190612ef0565b151560011461168c5760405162461bcd60e51b815260040161048690613201565b61169833600054611e09565b15156001146116b95760405162461bcd60e51b8152600401610486906131e4565b600184846116c782826124f4565b1515600114806116e257506116dc8282612690565b15156001145b6116fe5760405162461bcd60e51b8152600401610486906131a8565b600286815481106117115761171161335b565b600091825260208083206001600160a01b038b16845260049092029091018152604091829020825160808101909352805460ff1615158352600181018054919284019161175d906132ef565b80601f0160208091040260200160405190810160405280929190818152602001828054611789906132ef565b80156117d65780601f106117ab576101008083540402835291602001916117d6565b820191906000526020600020905b8154815290600101906020018083116117b957829003601f168201915b505050505081526020016002820180548060200260200160405190810160405280929190818152602001828054801561183857602002820191906000526020600020905b81546001600160a01b0316815260019091019060200180831161181a575b505050505081526020016003820180548060200260200160405190810160405280929190818152602001828054801561189a57602002820191906000526020600020905b81546001600160a01b0316815260019091019060200180831161187c575b5050505050815250506118b133826040015161281f565b1580156118c957506118c733826060015161281f565b155b6118e55760405162461bcd60e51b81526004016104869061318b565b600287815481106118f8576118f861335b565b600091825260208083206001600160a01b038c168452600490920290910181526040822060029081018054600181018255908452919092200180546001600160a01b0319163317905580546119889190899081106119585761195861335b565b600091825260208083206001600160a01b038d168452600490920290910190526040902060020154600154612885565b156111fb5761199788886124f4565b15611b4f576001600288815481106119b1576119b161335b565b600091825260208083206001600160a01b038d168452600492909202909101905260409020805460ff191691151591909117905560028054889081106119f9576119f961335b565b60009182526020808320600160049093020182018054928301815583529091200180546001600160a01b038a166001600160a01b031990911617905560028054611a5491610e3b918b91908b908110610dcc57610dcc61335b565b60028881548110611a6757611a6761335b565b90600052602060002090600402016002019080519060200190611a8b929190612bed565b50611a96888861295c565b60028781548110611aa957611aa961335b565b600091825260208083206001600160a01b038c168452600490920290910190526040908190209051611ade9160010190612fca565b6040518091039020886001600160a01b031660038981548110611b0357611b0361335b565b90600052602060002001604051611b1a9190612fca565b604051908190038120907ff778f27e2be3126cfd6682a3a8180c62d5ade2b397aee62ea41b5d914a64b83690600090a46111fb565b611c56611bd68960028a81548110611b6957611b6961335b565b9060005260206000209060040201600101805480602002602001604051908101604052809291908181526020018280548015610e31576020028201919060005260206000209081546001600160a01b03168152600190910190602001808311610e135750505050506128a0565b60028981548110611be957611be961335b565b9060005260206000209060040201600101805480602002602001604051908101604052809291908181526020018280548015610eb3576020028201919060005260206000209081546001600160a01b03168152600190910190602001808311610e955750505050506128bd565b60028881548110611c6957611c6961335b565b90600052602060002090600402016001019080519060200190611c8d929190612bed565b50611ca86110858960028a815481106110185761101861335b565b60028881548110611cbb57611cbb61335b565b90600052602060002090600402016003019080519060200190611cdf929190612bed565b5060028781548110611cf357611cf361335b565b600091825260208083206001600160a01b038c1684526004909202909101905260408120805460ff1916815590611d2d6001830182612c42565b611d3b600283016000612c7c565b611d49600383016000612c7c565b505060028781548110611d5e57611d5e61335b565b600091825260208083206001600160a01b038c168452600490920290910190526040908190209051611d939160010190612fca565b6040518091039020886001600160a01b031660038981548110611db857611db861335b565b90600052602060002001604051611dcf9190612fca565b604051908190038120907ff4d29cefc0aa6918a670a91a9871910128a6f3a91e110d99dd91eef92cdc2f4890600090a45050505050505050565b60025460405163123bd07560e11b8152600091839173__Library_______________________________90632477a0ea90611e4a90859085906004016132b2565b60206040518083038186803b158015611e6257600080fd5b505af4158015611e76573d6000803e3d6000fd5b505050506040513d601f19601f82011682018060405250810190611e9a9190612ef0565b1515600114611ebb5760405162461bcd60e51b815260040161048690613201565b60028481548110611ece57611ece61335b565b600091825260208083206001600160a01b038916845260049092029091019052604090205460ff1692505b505092915050565b60025460405163123bd07560e11b815282919073__Library_______________________________90632477a0ea90611f4090859085906004016132b2565b60206040518083038186803b158015611f5857600080fd5b505af4158015611f6c573d6000803e3d6000fd5b505050506040513d601f19601f82011682018060405250810190611f909190612ef0565b1515600114611fb15760405162461bcd60e51b815260040161048690613201565b60008684611fbf8282611e09565b15611ff25760405162461bcd60e51b815260206004820152600360248201526222a19b60e91b6044820152606401610486565b6000898761200082826124f4565b1561201d5760405162461bcd60e51b81526004016104869061316d565b8a8a60028b815481106120325761203261335b565b906000526020600020906004020160000160008f6001600160a01b03166001600160a01b031681526020019081526020016000206001019190612076929190612c9a565b506002898154811061208a5761208a61335b565b60009182526020808320600492909202909101600201805460018101825590835291200180546001600160a01b0319166001600160a01b038e161790556120d18c8a6115dc565b505050505050505050505050565b60025460405163123bd07560e11b815260609160009184919073__Library_______________________________90632477a0ea9061212490859085906004016132b2565b60206040518083038186803b15801561213c57600080fd5b505af4158015612150573d6000803e3d6000fd5b505050506040513d601f19601f820116820180604052508101906121749190612ef0565b15156001146121955760405162461bcd60e51b815260040161048690613201565b600285815481106121a8576121a861335b565b600091825260208083206001600160a01b038a16845260049092029091019052604090206001016121d98787611e09565b8180546121e5906132ef565b80601f0160208091040260200160405190810160405280929190818152602001828054612211906132ef565b801561225e5780601f106122335761010080835404028352916020019161225e565b820191906000526020600020905b81548152906001019060200180831161224157829003601f168201915b505050505091509350935050509250929050565b60025460405163123bd07560e11b8152606091829184919073__Library_______________________________90632477a0ea906122b690859085906004016132b2565b60206040518083038186803b1580156122ce57600080fd5b505af41580156122e2573d6000803e3d6000fd5b505050506040513d601f19601f820116820180604052508101906123069190612ef0565b15156001146123275760405162461bcd60e51b815260040161048690613201565b606086156123b357600286815481106123425761234261335b565b90600052602060002090600402016002018054806020026020016040519081016040528092919081815260200182805480156123a757602002820191906000526020600020905b81546001600160a01b03168152600190910190602001808311612389575b50505050509050612433565b600286815481106123c6576123c661335b565b906000526020600020906004020160030180548060200260200160405190810160405280929190818152602001828054801561242b57602002820191906000526020600020905b81546001600160a01b0316815260019091019060200180831161240d575b505050505090505b6002546000906001600160401b0381111561245057612450613371565b60405190808252806020026020018201604052801561248357816020015b606081526020019060019003908161246e5790505b50905060005b82518110156124e6576124b58382815181106124a7576124a761335b565b6020026020010151896120df565b508282815181106124c8576124c861335b565b602002602001018190525080806124de9061332a565b915050612489565b509097909650945050505050565b60025460405163123bd07560e11b8152600091839173__Library_______________________________90632477a0ea9061253590859085906004016132b2565b60206040518083038186803b15801561254d57600080fd5b505af4158015612561573d6000803e3d6000fd5b505050506040513d601f19601f820116820180604052508101906125859190612ef0565b15156001146125a65760405162461bcd60e51b815260040161048690613201565b6000600285815481106125bb576125bb61335b565b906000526020600020906004020160020180548060200260200160405190810160405280929190818152602001828054801561262057602002820191906000526020600020905b81546001600160a01b03168152600190910190602001808311612602575b5050505050905060005b8151811015612683578181815181106126455761264561335b565b60200260200101516001600160a01b0316876001600160a01b0316141561267157600194505050611ef9565b8061267b8161332a565b91505061262a565b5060009695505050505050565b60025460405163123bd07560e11b8152600091839173__Library_______________________________90632477a0ea906126d190859085906004016132b2565b60206040518083038186803b1580156126e957600080fd5b505af41580156126fd573d6000803e3d6000fd5b505050506040513d601f19601f820116820180604052508101906127219190612ef0565b15156001146127425760405162461bcd60e51b815260040161048690613201565b6000600285815481106127575761275761335b565b90600052602060002090600402016003018054806020026020016040519081016040528092919081815260200182805480156127bc57602002820191906000526020600020905b81546001600160a01b0316815260019091019060200180831161279e575b5050505050905060005b8151811015612683578181815181106127e1576127e161335b565b60200260200101516001600160a01b0316876001600160a01b0316141561280d57600194505050611ef9565b806128178161332a565b9150506127c6565b6000805b825181101561287b5782818151811061283e5761283e61335b565b60200260200101516001600160a01b0316846001600160a01b031614156128695760019150506104c7565b806128738161332a565b915050612823565b5060009392505050565b600081831015612897575060006104c7565b50600192915050565b60006106926001600160a01b0384166128b8846129e8565b612a9c565b606061069273__Library_______________________________635b28cf63856128e6866129e8565b6040518363ffffffff1660e01b815260040161290392919061321e565b60006040518083038186803b15801561291b57600080fd5b505af415801561292f573d6000803e3d6000fd5b505050506040513d6000823e601f3d908101601f191682016040526129579190810190612e0f565b612af1565b6002818154811061296f5761296f61335b565b600091825260208083206001600160a01b038616845260049092029091019052604081206129a291600390910190612c7c565b600281815481106129b5576129b561335b565b600091825260208083206001600160a01b038616845260049092029091019052604081206104aa91600290910190612c7c565b6060600082516001600160401b03811115612a0557612a05613371565b604051908082528060200260200182016040528015612a2e578160200160208202803683370190505b50905060005b8151811015612a9557612a66848281518110612a5257612a5261335b565b60200260200101516001600160a01b031690565b828281518110612a7857612a7861335b565b602090810291909101015280612a8d8161332a565b915050612a34565b5092915050565b6000805b8251811015612ae357828181518110612abb57612abb61335b565b6020026020010151841415612ad15790506104c7565b80612adb8161332a565b915050612aa0565b5081516106929060016132c0565b6060600082516001600160401b03811115612b0e57612b0e613371565b604051908082528060200260200182016040528015612b37578160200160208202803683370190505b50905060005b8151811015612a9557612b66848281518110612b5b57612b5b61335b565b602002602001015190565b828281518110612b7857612b7861335b565b6001600160a01b039092166020928302919091019091015280612b9a8161332a565b915050612b3d565b828054828255906000526020600020908101928215612bdd579160200282015b82811115612bdd578251825591602001919060010190612bc2565b50612be9929150612d0e565b5090565b828054828255906000526020600020908101928215612bdd579160200282015b82811115612bdd57825182546001600160a01b0319166001600160a01b03909116178255602090920191600190910190612c0d565b508054612c4e906132ef565b6000825580601f10612c5e575050565b601f01602090049060005260206000209081019061042f9190612d0e565b508054600082559060005260206000209081019061042f9190612d0e565b828054612ca6906132ef565b90600052602060002090601f016020900481019282612cc85760008555612bdd565b82601f10612ce15782800160ff19823516178555612bdd565b82800160010185558215612bdd579182015b82811115612bdd578235825591602001919060010190612cf3565b5b80821115612be95760008155600101612d0f565b80356001600160a01b0381168114612d3a57600080fd5b919050565b600060208284031215612d5157600080fd5b61069282612d23565b600080600060408486031215612d6f57600080fd5b612d7884612d23565b925060208401356001600160401b0380821115612d9457600080fd5b818601915086601f830112612da857600080fd5b813581811115612db757600080fd5b876020828501011115612dc957600080fd5b6020830194508093505050509250925092565b600080600060608486031215612df157600080fd5b612dfa84612d23565b95602085013595506040909401359392505050565b60006020808385031215612e2257600080fd5b82516001600160401b0380821115612e3957600080fd5b818501915085601f830112612e4d57600080fd5b815181811115612e5f57612e5f613371565b8060051b604051601f19603f83011681018181108582111715612e8457612e84613371565b604052828152858101935084860182860187018a1015612ea357600080fd5b600095505b83861015612ec6578051855260019590950194938601938601612ea8565b5098975050505050505050565b600060208284031215612ee557600080fd5b813561069281613387565b600060208284031215612f0257600080fd5b815161069281613387565b60008060408385031215612f2057600080fd5b82359150612f3060208401612d23565b90509250929050565b600081518084526020808501945080840160005b83811015612f725781516001600160a01b031687529582019590820190600101612f4d565b509495945050505050565b6000815180845260005b81811015612fa357602081850181015186830182015201612f87565b81811115612fb5576000602083870101525b50601f01601f19169290920160200192915050565b600080835481600182811c915080831680612fe657607f831692505b602080841082141561300657634e487b7160e01b86526022600452602486fd5b81801561301a576001811461302b57613058565b60ff19861689528489019650613058565b60008a81526020902060005b868110156130505781548b820152908501908301613037565b505084890196505b509498975050505050505050565b6001600160a01b0392831681529116602082015260400190565b6020815260006106926020830184612f39565b6040815260006130a66040830185612f39565b6020838203818501528185518084528284019150828160051b85010183880160005b838110156130f657601f198784030185526130e4838351612f7d565b948601949250908501906001016130c8565b50909998505050505050505050565b6020808252825182820181905260009190848201906040850190845b8181101561313d57835183529284019291840191600101613121565b50909695505050505050565b60408152600061315c6040830185612f7d565b905082151560208301529392505050565b6020808252600490820152634543323760e01b604082015260600190565b60208082526003908201526245433560e81b604082015260600190565b60208082526004908201526308a8664760e31b604082015260600190565b60208082526004908201526322a1989960e11b604082015260600190565b60208082526003908201526245433960e81b604082015260600190565b60208082526003908201526245433160e81b604082015260600190565b6000604082018483526020604081850152818551808452606086019150828701935060005b8181101561325f57845183529383019391830191600101613243565b5090979650505050505050565b60006040820184835260206040818501528185548084526060860191508660005282600020935060005b8181101561325f57845483526001948501949284019201613296565b918252602082015260400190565b600082198211156132d3576132d3613345565b500190565b6000828210156132ea576132ea613345565b500390565b600181811c9082168061330357607f821691505b6020821081141561332457634e487b7160e01b600052602260045260246000fd5b50919050565b600060001982141561333e5761333e613345565b5060010190565b634e487b7160e01b600052601160045260246000fd5b634e487b7160e01b600052603260045260246000fd5b634e487b7160e01b600052604160045260246000fd5b801515811461042f57600080fdfea2646970667358221220826c0953fae847062ef713883b31f55f29e5ae0ac578a8ac520a521cc74c1e3764736f6c63430008060033",
  "immutableReferences": {},
  "source": "// SPDX-License-Identifier: GPL-3.0\r\n\r\npragma solidity >=0.7.0 <0.9.0;\r\npragma experimental ABIEncoderV2;\r\n\r\n/**\r\n * @title Storage\r\n * @dev Store & retrieve value in a variable\r\n */\r\n\r\n import \"./Abstract/MultiSigCertificatesPool.sol\";\r\n\r\n contract PrivateCertificatesPool is MultiSigCertificatesPool {\r\n\r\n     constructor(address[] memory owners,  uint256 minOwners) MultiSigCertificatesPool(owners, minOwners) payable {\r\n    }\r\n\r\n    function addProvider(address provider, string calldata providerInfo) external override payable{\r\n        addEntity(provider, providerInfo, _providerId);\r\n    }\r\n\r\n    function onEntityValidated(address entity, uint listId, bool addOrRemove) internal override{}\r\n\r\n    function onEntityRejected(address entity, uint listId, bool addOrRemove) internal override{}\r\n\r\n }",
  "sourcePath": "C:\\Users\\d-aam\\GitHub\\Certificates\\contracts\\PrivateCertificatesPool.sol",
  "compiler": {
    "name": "solc",
    "version": "0.8.6+commit.11564f7e.Emscripten.clang"
  },
  "schemaVersion": "3.3.4",
  "updatedAt": "2021-07-26T09:36:09.823Z",
  "devdoc": {
    "kind": "dev",
    "methods": {},
    "version": 1
  },
  "userdoc": {
    "kind": "user",
    "methods": {},
    "version": 1
  }
}