{
  "contractName": "PrivatePoolFactory",
  "abi": [
    {
      "anonymous": false,
      "inputs": [
        {
          "indexed": true,
          "internalType": "string",
          "name": "",
          "type": "string"
        },
        {
          "indexed": false,
          "internalType": "uint256",
          "name": "",
          "type": "uint256"
        },
        {
          "indexed": true,
          "internalType": "address",
          "name": "",
          "type": "address"
        },
        {
          "indexed": false,
          "internalType": "address",
          "name": "",
          "type": "address"
        },
        {
          "indexed": true,
          "internalType": "string",
          "name": "",
          "type": "string"
        }
      ],
      "name": "_NewElement",
      "type": "event"
    },
    {
      "inputs": [
        {
          "internalType": "address",
          "name": "managerContractAddress",
          "type": "address"
        }
      ],
      "name": "Factory_init",
      "outputs": [],
      "stateMutability": "nonpayable",
      "type": "function"
    },
    {
      "inputs": [
        {
          "internalType": "uint256",
          "name": "Id",
          "type": "uint256"
        }
      ],
      "name": "retrieve",
      "outputs": [
        {
          "internalType": "address",
          "name": "",
          "type": "address"
        },
        {
          "internalType": "address",
          "name": "",
          "type": "address"
        }
      ],
      "stateMutability": "view",
      "type": "function"
    },
    {
      "inputs": [],
      "name": "retrieveTotal",
      "outputs": [
        {
          "internalType": "uint256",
          "name": "",
          "type": "uint256"
        }
      ],
      "stateMutability": "view",
      "type": "function"
    },
    {
      "inputs": [
        {
          "internalType": "address",
          "name": "managerContractAddress",
          "type": "address"
        }
      ],
      "name": "PrivatePoolFactory_init",
      "outputs": [],
      "stateMutability": "nonpayable",
      "type": "function"
    },
    {
      "inputs": [
        {
          "internalType": "address[]",
          "name": "owners",
          "type": "address[]"
        },
        {
          "internalType": "uint256",
          "name": "minOwners",
          "type": "uint256"
        },
        {
          "internalType": "string",
          "name": "ElementName",
          "type": "string"
        }
      ],
      "name": "create",
      "outputs": [],
      "stateMutability": "payable",
      "type": "function"
    }
  ],
  "bytecode": "0x608060405234801561001057600080fd5b50611518806100206000396000f3fe608060405260043610620000505760003560e01c806358e9a54f14620000555780636f86542a146200007c5780638f88708b14620000a05780639d4260a314620000e6578063aeb1c1ad14620000fd575b600080fd5b3480156200006257600080fd5b506200007a62000074366004620007da565b62000122565b005b3480156200008957600080fd5b506001546040519081526020015b60405180910390f35b348015620000ad57600080fd5b50620000c5620000bf36600462000938565b620001a9565b604080516001600160a01b0393841681529290911660208301520162000097565b6200007a620000f736600462000821565b620002f1565b3480156200010a57600080fd5b506200007a6200011c366004620007da565b6200051c565b600054610100900460ff16806200013c575060005460ff16155b620001645760405162461bcd60e51b81526004016200015b9062000a30565b60405180910390fd5b600054610100900460ff1615801562000187576000805461ffff19166101011790555b620001928262000583565b8015620001a5576000805461ff00191690555b5050565b60015460405163123bd07560e11b81526004810183905260248101829052600091829184919073__Library_______________________________90632477a0ea9060440160206040518083038186803b1580156200020757600080fd5b505af41580156200021c573d6000803e3d6000fd5b505050506040513d601f19601f8201168201806040525081019062000242919062000914565b15156001146200027e5760405162461bcd60e51b81526004016200015b906020808252600490820152634543312d60e01b604082015260600190565b6001858154811062000294576200029462000b0a565b6000918252602090912060029091020154600180546001600160a01b039092169187908110620002c857620002c862000b0a565b60009182526020909120600160029092020101549094506001600160a01b031692505050915091565b600060029054906101000a90046001600160a01b03166001600160a01b0316635a3794e96040518163ffffffff1660e01b815260040160206040518083038186803b1580156200034057600080fd5b505afa15801562000355573d6000803e3d6000fd5b505050506040513d601f19601f820116820180604052508101906200037b919062000801565b6001600160a01b031663f0c9325e3460016040518363ffffffff1660e01b8152600401620003aa919062000a07565b6000604051808303818588803b158015620003c457600080fd5b505af1158015620003d9573d6000803e3d6000fd5b505050505060008383604051602401620003f5929190620009b4565b60408051808303601f19018152918152602080830180516334870afb60e21b6001600160e01b03909116179052600080548351637c2f3aaf60e01b815293519495509093620100009091046001600160a01b031692637c2f3aaf926004808301939192829003018186803b1580156200046d57600080fd5b505afa15801562000482573d6000803e3d6000fd5b505050506040513d601f19601f82011682018060405250810190620004a8919062000801565b82604051620004b79062000756565b620004c492919062000970565b604051809103906000f080158015620004e1573d6000803e3d6000fd5b50905062000515816040518060400160405280600c81526020016b141c9a5d985d1948141bdbdb60a21b8152508562000617565b5050505050565b600054610100900460ff168062000536575060005460ff16155b620005555760405162461bcd60e51b81526004016200015b9062000a30565b600054610100900460ff1615801562000578576000805461ffff19166101011790555b620001928262000122565b600054610100900460ff16806200059d575060005460ff16155b620005bc5760405162461bcd60e51b81526004016200015b9062000a30565b600054610100900460ff16158015620005df576000805461ffff19166101011790555b6000805462010000600160b01b031916620100006001600160a01b038516021790558015620001a5576000805461ff00191690555050565b6040805180820182523381526001600160a01b0385811660208301908152600180548082018255600091909152835160029091027fb10e2d527612073b26eecdfd717e6a320cf44b4afac2b0732d9fcbe2b7fa0cf6810180549285166001600160a01b031993841617905591517fb10e2d527612073b26eecdfd717e6a320cf44b4afac2b0732d9fcbe2b7fa0cf790920180549290931691161790559051620006c290839062000952565b604051809103902081600001516001600160a01b031684604051620006e8919062000952565b604051908190039020600180547f1ca39c7d81f021b1dca105fb858bf2a88540adf1df782672dfd71b5ace6b839a91620007229162000ab1565b8560200151604051620007489291909182526001600160a01b0316602082015260400190565b60405180910390a450505050565b6109938062000b5083390190565b600082601f8301126200077657600080fd5b81356001600160401b0381111562000792576200079262000b20565b620007a7601f8201601f191660200162000a7e565b818152846020838601011115620007bd57600080fd5b816020850160208301376000918101602001919091529392505050565b600060208284031215620007ed57600080fd5b8135620007fa8162000b36565b9392505050565b6000602082840312156200081457600080fd5b8151620007fa8162000b36565b6000806000606084860312156200083757600080fd5b83356001600160401b03808211156200084f57600080fd5b818601915086601f8301126200086457600080fd5b81356020828211156200087b576200087b62000b20565b8160051b6200088c82820162000a7e565b8381528281019086840183880185018d1015620008a857600080fd5b600097505b85881015620008db5780359350620008c58462000b36565b83835260019790970196918401918401620008ad565b50985050508701359450506040860135915080821115620008fb57600080fd5b506200090a8682870162000764565b9150509250925092565b6000602082840312156200092757600080fd5b81518015158114620007fa57600080fd5b6000602082840312156200094b57600080fd5b5035919050565b600082516200096681846020870162000ad7565b9190910192915050565b60018060a01b038316815260406020820152600082518060408401526200099f81606085016020870162000ad7565b601f01601f1916919091016060019392505050565b604080825283519082018190526000906020906060840190828701845b82811015620009f85781516001600160a01b031684529284019290840190600101620009d1565b50505092019290925292915050565b602081016004831062000a2a57634e487b7160e01b600052602160045260246000fd5b91905290565b6020808252602e908201527f496e697469616c697a61626c653a20636f6e747261637420697320616c72656160408201526d191e481a5b9a5d1a585b1a5e995960921b606082015260800190565b604051601f8201601f191681016001600160401b038111828210171562000aa95762000aa962000b20565b604052919050565b60008282101562000ad257634e487b7160e01b600052601160045260246000fd5b500390565b60005b8381101562000af457818101518382015260200162000ada565b8381111562000b04576000848401525b50505050565b634e487b7160e01b600052603260045260246000fd5b634e487b7160e01b600052604160045260246000fd5b6001600160a01b038116811462000b4c57600080fd5b5056fe608060405260405161099338038061099383398101604081905261002291610470565b61004d60017fa3f0ad74e5423aebfd80d3ef4346578335a9a72aeaee59ff6cb3582b35133d5161057f565b60008051602061094c83398151915214610069576100696105d0565b6100758282600061007c565b50506105fc565b61008583610156565b6040516001600160a01b038416907f1cf3b03a6cf19fa2baba4df148e9dcabedea7f8a5c07840e207e5c089be95d3e90600090a26000825111806100c65750805b156101515761014f836001600160a01b0316635c60da1b6040518163ffffffff1660e01b815260040160206040518083038186803b15801561010757600080fd5b505afa15801561011b573d6000803e3d6000fd5b505050506040513d601f19601f8201168201806040525081019061013f9190610455565b836102f660201b6100291760201c565b505b505050565b6101698161032260201b6100551760201c565b6101c85760405162461bcd60e51b815260206004820152602560248201527f455243313936373a206e657720626561636f6e206973206e6f74206120636f6e6044820152641d1c9858dd60da1b60648201526084015b60405180910390fd5b61024b816001600160a01b0316635c60da1b6040518163ffffffff1660e01b815260040160206040518083038186803b15801561020457600080fd5b505afa158015610218573d6000803e3d6000fd5b505050506040513d601f19601f8201168201806040525081019061023c9190610455565b61032260201b6100551760201c565b6102b05760405162461bcd60e51b815260206004820152603060248201527f455243313936373a20626561636f6e20696d706c656d656e746174696f6e206960448201526f1cc81b9bdd08184818dbdb9d1c9858dd60821b60648201526084016101bf565b806102d560008051602061094c83398151915260001b61032860201b61005b1760201c565b80546001600160a01b0319166001600160a01b039290921691909117905550565b606061031b838360405180606001604052806027815260200161096c6027913961032b565b9392505050565b3b151590565b90565b6060833b61038a5760405162461bcd60e51b815260206004820152602660248201527f416464726573733a2064656c65676174652063616c6c20746f206e6f6e2d636f6044820152651b9d1c9858dd60d21b60648201526084016101bf565b600080856001600160a01b0316856040516103a59190610530565b600060405180830381855af49150503d80600081146103e0576040519150601f19603f3d011682016040523d82523d6000602084013e6103e5565b606091505b5090925090506103f6828286610400565b9695505050505050565b6060831561040f57508161031b565b82511561041f5782518084602001fd5b8160405162461bcd60e51b81526004016101bf919061054c565b80516001600160a01b038116811461045057600080fd5b919050565b60006020828403121561046757600080fd5b61031b82610439565b6000806040838503121561048357600080fd5b61048c83610439565b60208401519092506001600160401b03808211156104a957600080fd5b818501915085601f8301126104bd57600080fd5b8151818111156104cf576104cf6105e6565b604051601f8201601f19908116603f011681019083821181831017156104f7576104f76105e6565b8160405282815288602084870101111561051057600080fd5b6105218360208301602088016105a4565b80955050505050509250929050565b600082516105428184602087016105a4565b9190910192915050565b602081526000825180602084015261056b8160408501602087016105a4565b601f01601f19169190910160400192915050565b60008282101561059f57634e487b7160e01b600052601160045260246000fd5b500390565b60005b838110156105bf5781810151838201526020016105a7565b8381111561014f5750506000910152565b634e487b7160e01b600052600160045260246000fd5b634e487b7160e01b600052604160045260246000fd5b6103418061060b6000396000f3fe60806040523661001357610011610017565b005b6100115b61002761002261005e565b610106565b565b606061004e83836040518060600160405280602781526020016102e56027913961012a565b9392505050565b3b151590565b90565b60006100917fa3f0ad74e5423aebfd80d3ef4346578335a9a72aeaee59ff6cb3582b35133d50546001600160a01b031690565b6001600160a01b0316635c60da1b6040518163ffffffff1660e01b815260040160206040518083038186803b1580156100c957600080fd5b505afa1580156100dd573d6000803e3d6000fd5b505050506040513d601f19601f82011682018060405250810190610101919061023c565b905090565b3660008037600080366000845af43d6000803e808015610125573d6000f35b3d6000fd5b6060833b61018e5760405162461bcd60e51b815260206004820152602660248201527f416464726573733a2064656c65676174652063616c6c20746f206e6f6e2d636f6044820152651b9d1c9858dd60d21b60648201526084015b60405180910390fd5b600080856001600160a01b0316856040516101a99190610265565b600060405180830381855af49150503d80600081146101e4576040519150601f19603f3d011682016040523d82523d6000602084013e6101e9565b606091505b50915091506101f9828286610203565b9695505050505050565b6060831561021257508161004e565b8251156102225782518084602001fd5b8160405162461bcd60e51b81526004016101859190610281565b60006020828403121561024e57600080fd5b81516001600160a01b038116811461004e57600080fd5b600082516102778184602087016102b4565b9190910192915050565b60208152600082518060208401526102a08160408501602087016102b4565b601f01601f19169190910160400192915050565b60005b838110156102cf5781810151838201526020016102b7565b838111156102de576000848401525b5050505056fe416464726573733a206c6f772d6c6576656c2064656c65676174652063616c6c206661696c6564a2646970667358221220d403ceeafd1a8a95bac5042ee17868655bf495ec1518e7fe81eb94935c79e11764736f6c63430008070033a3f0ad74e5423aebfd80d3ef4346578335a9a72aeaee59ff6cb3582b35133d50416464726573733a206c6f772d6c6576656c2064656c65676174652063616c6c206661696c6564a264697066735822122075cad737338201034be6f97c425f68ae25ad2f7cc860b66b8bb2455ca0863ce264736f6c63430008070033",
  "immutableReferences": {},
  "source": "// SPDX-License-Identifier: GPL-3.0\r\n\r\npragma solidity 0.8.7;\r\n\r\n/*\r\n  Private Pool Factory inherits from Factory.\r\n  Before creating a new Element a payment is made to Treasury.\r\n  Private Pool Elements are Beacon Proxy, the Beacon implementation address is stored in Manager contract.\r\n */\r\n\r\n import \"../Interfaces/ITreasury.sol\";\r\n import \"../Abstract/Factory.sol\";\r\n import \"@openzeppelin/contracts/proxy/beacon/BeaconProxy.sol\";\r\n\r\ncontract PrivatePoolFactory is Factory{\r\n\r\n    // CONSTRUCTOR /////////////////////////////////////////\r\n    function PrivatePoolFactory_init(address managerContractAddress) public initializer {\r\n        super.Factory_init(managerContractAddress);\r\n    }\r\n\r\n    // FUNCTIONALITY /////////////////////////////////////////\r\n    function create(address[] memory owners,  uint256 minOwners, string memory ElementName) external override payable\r\n    {\r\n        ITreasury(_managerContract.retrieveTreasuryProxy()).pay{value:msg.value}(Library.Prices.NewPool);\r\n        bytes memory data = abi.encodeWithSignature(\"PrivateCertPool_init(address[],uint256)\", owners, minOwners);\r\n        BeaconProxy certificatePoolProxy = new BeaconProxy(_managerContract.retrievePrivatePoolBeacon(), data);\r\n        internalCreate(address(certificatePoolProxy), \"Private Pool\", ElementName);\r\n    }\r\n\r\n\r\n}",
  "sourcePath": "C:/Users/d-aam/GitHub/Certificates/contracts/DeployedContracts/PrivatePoolFactory.sol",
  "compiler": {
    "name": "solc",
    "version": "0.8.7+commit.e28d00a7.Emscripten.clang"
  },
  "schemaVersion": "3.3.4",
  "updatedAt": "2021-09-14T06:18:58.414Z",
  "devdoc": {
    "kind": "dev",
    "methods": {},
    "version": 1
  },
  "userdoc": {
    "kind": "user",
    "methods": {},
    "version": 1
  }
}