{
  "contractName": "PrivateCertificatesPool",
  "abi": [
    {
      "inputs": [
        {
          "internalType": "address[]",
          "name": "owners",
          "type": "address[]"
        },
        {
          "internalType": "uint256",
          "name": "minOwners",
          "type": "uint256"
        }
      ],
      "stateMutability": "payable",
      "type": "constructor"
    },
    {
      "anonymous": false,
      "inputs": [
        {
          "indexed": false,
          "internalType": "address",
          "name": "",
          "type": "address"
        },
        {
          "indexed": false,
          "internalType": "address",
          "name": "",
          "type": "address"
        }
      ],
      "name": "_AddCertificateIdEvent",
      "type": "event"
    },
    {
      "anonymous": false,
      "inputs": [
        {
          "indexed": false,
          "internalType": "string",
          "name": "",
          "type": "string"
        },
        {
          "indexed": false,
          "internalType": "address",
          "name": "",
          "type": "address"
        }
      ],
      "name": "_AddEntityValidationIdEvent",
      "type": "event"
    },
    {
      "anonymous": false,
      "inputs": [
        {
          "indexed": false,
          "internalType": "address",
          "name": "",
          "type": "address"
        },
        {
          "indexed": false,
          "internalType": "address",
          "name": "",
          "type": "address"
        }
      ],
      "name": "_RemoveCertificateIdEvent",
      "type": "event"
    },
    {
      "anonymous": false,
      "inputs": [
        {
          "indexed": false,
          "internalType": "string",
          "name": "",
          "type": "string"
        },
        {
          "indexed": false,
          "internalType": "address",
          "name": "",
          "type": "address"
        }
      ],
      "name": "_RemoveEntityValidationIdEvent",
      "type": "event"
    },
    {
      "inputs": [
        {
          "internalType": "bytes32",
          "name": "CertificateHash",
          "type": "bytes32"
        },
        {
          "internalType": "address",
          "name": "holder",
          "type": "address"
        },
        {
          "internalType": "uint256",
          "name": "nonce",
          "type": "uint256"
        }
      ],
      "name": "addCertificate",
      "outputs": [],
      "stateMutability": "nonpayable",
      "type": "function"
    },
    {
      "inputs": [
        {
          "internalType": "address",
          "name": "owner",
          "type": "address"
        },
        {
          "internalType": "string",
          "name": "ownerInfo",
          "type": "string"
        },
        {
          "internalType": "uint256",
          "name": "nonce",
          "type": "uint256"
        }
      ],
      "name": "addOwner",
      "outputs": [],
      "stateMutability": "nonpayable",
      "type": "function"
    },
    {
      "inputs": [
        {
          "internalType": "address",
          "name": "owner",
          "type": "address"
        }
      ],
      "name": "isOwner",
      "outputs": [
        {
          "internalType": "bool",
          "name": "",
          "type": "bool"
        }
      ],
      "stateMutability": "view",
      "type": "function"
    },
    {
      "inputs": [
        {
          "internalType": "address",
          "name": "provider",
          "type": "address"
        }
      ],
      "name": "isProvider",
      "outputs": [
        {
          "internalType": "bool",
          "name": "",
          "type": "bool"
        }
      ],
      "stateMutability": "view",
      "type": "function"
    },
    {
      "inputs": [
        {
          "internalType": "bytes32",
          "name": "CertificateHash",
          "type": "bytes32"
        },
        {
          "internalType": "address",
          "name": "holder",
          "type": "address"
        },
        {
          "internalType": "uint256",
          "name": "nonce",
          "type": "uint256"
        }
      ],
      "name": "removeCertificate",
      "outputs": [],
      "stateMutability": "nonpayable",
      "type": "function"
    },
    {
      "inputs": [
        {
          "internalType": "address",
          "name": "owner",
          "type": "address"
        },
        {
          "internalType": "uint256",
          "name": "nonce",
          "type": "uint256"
        }
      ],
      "name": "removeOwner",
      "outputs": [],
      "stateMutability": "nonpayable",
      "type": "function"
    },
    {
      "inputs": [],
      "name": "retrieveAllOwners",
      "outputs": [
        {
          "internalType": "address[]",
          "name": "",
          "type": "address[]"
        }
      ],
      "stateMutability": "view",
      "type": "function"
    },
    {
      "inputs": [],
      "name": "retrieveAllProviders",
      "outputs": [
        {
          "internalType": "address[]",
          "name": "",
          "type": "address[]"
        }
      ],
      "stateMutability": "view",
      "type": "function"
    },
    {
      "inputs": [
        {
          "internalType": "bytes32",
          "name": "CertificateHash",
          "type": "bytes32"
        },
        {
          "internalType": "address",
          "name": "holder",
          "type": "address"
        }
      ],
      "name": "retrieveCertificateProvider",
      "outputs": [
        {
          "internalType": "address",
          "name": "",
          "type": "address"
        }
      ],
      "stateMutability": "view",
      "type": "function"
    },
    {
      "inputs": [
        {
          "internalType": "address",
          "name": "holder",
          "type": "address"
        },
        {
          "internalType": "uint256",
          "name": "skipFirst",
          "type": "uint256"
        },
        {
          "internalType": "uint256",
          "name": "max",
          "type": "uint256"
        }
      ],
      "name": "retrieveCertificatesByHolder",
      "outputs": [
        {
          "internalType": "bytes32[]",
          "name": "",
          "type": "bytes32[]"
        }
      ],
      "stateMutability": "view",
      "type": "function"
    },
    {
      "inputs": [],
      "name": "retrieveMinOwners",
      "outputs": [
        {
          "internalType": "uint256",
          "name": "",
          "type": "uint256"
        }
      ],
      "stateMutability": "view",
      "type": "function"
    },
    {
      "inputs": [
        {
          "internalType": "address",
          "name": "owner",
          "type": "address"
        }
      ],
      "name": "retrieveOwner",
      "outputs": [
        {
          "internalType": "string",
          "name": "",
          "type": "string"
        }
      ],
      "stateMutability": "view",
      "type": "function"
    },
    {
      "inputs": [
        {
          "internalType": "address",
          "name": "provider",
          "type": "address"
        }
      ],
      "name": "retrieveProvider",
      "outputs": [
        {
          "internalType": "string",
          "name": "",
          "type": "string"
        }
      ],
      "stateMutability": "view",
      "type": "function"
    },
    {
      "inputs": [
        {
          "internalType": "address",
          "name": "holder",
          "type": "address"
        }
      ],
      "name": "retrieveTotalCertificatesByHolder",
      "outputs": [
        {
          "internalType": "uint256",
          "name": "",
          "type": "uint256"
        }
      ],
      "stateMutability": "view",
      "type": "function"
    },
    {
      "inputs": [],
      "name": "retrieveTotalOwners",
      "outputs": [
        {
          "internalType": "uint256",
          "name": "",
          "type": "uint256"
        }
      ],
      "stateMutability": "view",
      "type": "function"
    },
    {
      "inputs": [],
      "name": "retrieveTotalProviders",
      "outputs": [
        {
          "internalType": "uint256",
          "name": "",
          "type": "uint256"
        }
      ],
      "stateMutability": "view",
      "type": "function"
    },
    {
      "inputs": [
        {
          "internalType": "address",
          "name": "provider",
          "type": "address"
        },
        {
          "internalType": "string",
          "name": "providerInfo",
          "type": "string"
        },
        {
          "internalType": "uint256",
          "name": "nonce",
          "type": "uint256"
        }
      ],
      "name": "addProvider",
      "outputs": [],
      "stateMutability": "nonpayable",
      "type": "function"
    },
    {
      "inputs": [
        {
          "internalType": "address",
          "name": "provider",
          "type": "address"
        },
        {
          "internalType": "uint256",
          "name": "nonce",
          "type": "uint256"
        }
      ],
      "name": "removeProvider",
      "outputs": [],
      "stateMutability": "nonpayable",
      "type": "function"
    }
  ],
  "bytecode": "0x600560c08181526427bbb732b960d91b60e0526080908152610140604052600861010090815267283937bb34b232b960c11b6101205260a052620000469190600262000331565b5060405162002e9038038062002e908339810160408190526200006991620004c6565b8181818160026005805480602002602001604051908101604052809291908181526020016000905b82821015620001425760008481526020908190208301805460408051601f60026000196101006001871615020190941693909304928301859004850281018501909152818152928301828280156200012d5780601f1062000101576101008083540402835291602001916200012d565b820191906000526020600020905b8154815290600101906020018083116200010f57829003601f168201915b50505050508152602001906001019062000091565b5050505060008451841115620001755760405162461bcd60e51b81526004016200016c906200058c565b60405180910390fd5b60008411620001985760405162461bcd60e51b81526004016200016c90620005aa565b81518314620001bb5760405162461bcd60e51b81526004016200016c90620005c8565b60008181555b8381101562000226576003805460010181556000528251600290849083908110620001e857fe5b602090810291909101810151825460018101845560009384529282902081516200021c949190910192919091019062000395565b50600101620001c1565b50600184905560005b8551811015620003215760016003600054815481106200024b57fe5b906000526020600020906002020160000160008884815181106200026b57fe5b60200260200101516001600160a01b03166001600160a01b0316815260200190815260200160002060000160006101000a81548160ff021916908315150217905550600360005481548110620002bd57fe5b9060005260206000209060020201600101868281518110620002db57fe5b60209081029190910181015182546001808201855560009485529290932090920180546001600160a01b0319166001600160a01b0390931692909217909155016200022f565b50505050505050505050620005e6565b82805482825590600052602060002090810192821562000383579160200282015b828111156200038357825180516200037291849160209091019062000395565b509160200191906001019062000352565b506200039192915062000426565b5090565b828054600181600116156101000203166002900490600052602060002090601f016020900481019282620003cd576000855562000418565b82601f10620003e857805160ff191683800117855562000418565b8280016001018555821562000418579182015b8281111562000418578251825591602001919060010190620003fb565b506200039192915062000447565b80821115620003915760006200043d82826200045e565b5060010162000426565b5b8082111562000391576000815560010162000448565b50805460018160011615610100020316600290046000825580601f10620004865750620004a6565b601f016020900490600052602060002090810190620004a6919062000447565b50565b80516001600160a01b0381168114620004c157600080fd5b919050565b60008060408385031215620004d9578182fd5b82516001600160401b0380821115620004f0578384fd5b818501915085601f83011262000504578384fd5b81516020828211156200051357fe5b808202604051828282010181811086821117156200052d57fe5b604052838152828101945085830182870184018b10156200054c578889fd5b8896505b8487101562000579576200056481620004a9565b86526001969096019594830194830162000550565b5097909101519698969750505050505050565b60208082526004908201526322a1989b60e11b604082015260600190565b6020808252600490820152634543313760e01b604082015260600190565b60208082526004908201526308a8662760e31b604082015260600190565b61289a80620005f66000396000f3fe608060405234801561001057600080fd5b50600436106101165760003560e01c80636e55d2d4116100a2578063d0a4adfe11610071578063d0a4adfe1461023d578063d744d2f31461025d578063e466154714610265578063eefe768114610278578063f05d87031461028057610116565b80636e55d2d4146101fc57806377bc5a1f1461020f578063a93d5ed614610222578063bfd2b3a31461022a57610116565b806358a1ba25116100e957806358a1ba251461018c57806365b973e5146101ac57806369767eab146101c15780636b074a07146101d45780636e4f9179146101e757610116565b8063073855ca1461011b5780632f54bf6e14610130578063375834991461015957806341929ea914610179575b600080fd5b61012e610129366004612517565b610293565b005b61014361013e3660046123a7565b610588565b604051610150919061260b565b60405180910390f35b61016c6101673660046123a7565b61059e565b6040516101509190612616565b61012e6101873660046123c1565b6105ab565b61019f61019a36600461249a565b6105be565b60405161015091906125d3565b6101b461072f565b6040516101509190612841565b61012e6101cf366004612517565b610735565b6101436101e23660046123a7565b6108c0565b6101ef6108cd565b6040516101509190612586565b6101b461020a3660046123a7565b6108de565b61016c61021d3660046123a7565b6108fc565b6101ef61090a565b61012e610238366004612471565b610917565b61025061024b3660046124ec565b61095b565b6040516101509190612558565b6101b4610988565b61012e610273366004612471565b610994565b6101b46109a4565b61012e61028e3660046123c1565b6109b1565b61029c336108c0565b15156001146102c65760405162461bcd60e51b81526004016102bd90612790565b60405180910390fd5b6001600160a01b03828116600090815260066020908152604080832087845290915290205483918591163314806103055750336001600160a01b038316145b6103215760405162461bcd60e51b81526004016102bd90612754565b604051635c6309fb60e11b8152839073__Library_______________________________9063b8c613f69061035c908490600490810161284a565b60006040518083038186803b15801561037457600080fd5b505af4158015610388573d6000803e3d6000fd5b5050506001600160a01b0380871660008181526006602081815260408084208d8552808352818520549585529282526001909201805483518184028101840190945280845294909516955091939092909183018282801561040857602002820191906000526020600020905b8154815260200190600101908083116103f4575b5050505050905060005b81518110156104f55781818151811061042757fe5b60200260200101518914156104ed576104b681600660008b6001600160a01b03166001600160a01b031681526020019081526020016000206001018054806020026020016040519081016040528092919081815260200182805480156104ac57602002820191906000526020600020905b815481526020019060010190808311610498575b50505050506109be565b6001600160a01b038916600090815260066020908152604090912082516104e79360019092019291909101906121ff565b506104f5565b600101610412565b506001600160a01b03871660009081526006602090815260408083208b8452825280832080546001600160a01b03191690553383526004825280832089845290915290819020805460ff19166001179055517fd12847594abf0621035046f61129f2a9dc5093eb516c6c517ece306362ef6f17906105769084908a9061256c565b60405180910390a15050505050505050565b600061059682600054610ab1565b90505b919050565b6060610596826001610d10565b6105b9838360005484610de6565b505050565b6060826105ca856108de565b116105e45750604080516000815260208101909152610728565b8180846105f0876108de565b0310156106055783610601866108de565b0390505b60008167ffffffffffffffff8111801561061e57600080fd5b50604051908082528060200260200182016040528015610648578160200160208202803683370190505b506001600160a01b0387166000908152600660209081526040808320600101805482518185028101850190935280835294955092939092918301828280156106af57602002820191906000526020600020905b81548152602001906001019080831161069b575b5050505050905060008060005b835181101561071f578783106106d15761071f565b818911156106e457600182019150610717565b8381815181106106f057fe5b602002602001015185848151811061070457fe5b6020026020010181815250506001830192505b6001016106bc565b50929450505050505b9392505050565b60015490565b61073e336108c0565b151560011461075f5760405162461bcd60e51b81526004016102bd90612790565b826001600160a01b0380841660009081526006602090815260408083208884529091529020548491869116156107a75760405162461bcd60e51b81526004016102bd90612772565b604051635c6309fb60e11b8152849073__Library_______________________________9063b8c613f6906107e2908490600490810161284a565b60006040518083038186803b1580156107fa57600080fd5b505af415801561080e573d6000803e3d6000fd5b5050506001600160a01b03871660009081526006602090815260408083208b845280835281842080546001600160a01b03191633908117909155600191820180548084018255908652848620018d9055808552600484528285208b865290935292819020805460ff191690931790925590517f601cb9a073dbfa468ef12878ee6c720641a49b76af7c16099e8c0a1ac3ca79b592506108af9190899061256c565b60405180910390a150505050505050565b6000610596826001610ab1565b60606108d96001610ff4565b905090565b6001600160a01b031660009081526006602052604090206001015490565b606061059682600054610d10565b60606108d9600054610ff4565b60015460016109276000546110d1565b03808211156109485760405162461bcd60e51b81526004016102bd90612719565b61095584600054856111a6565b50505050565b6001600160a01b038082166000908152600660209081526040808320868452909152902054165b92915050565b60006108d960016110d1565b6109a0826001836111a6565b5050565b60006108d96000546110d1565b6105b98383600184610de6565b60608282516109cd8282611300565b15156001146109ee5760405162461bcd60e51b81526004016102bd906127e9565b6000600185510367ffffffffffffffff81118015610a0b57600080fd5b50604051908082528060200260200182016040528015610a35578160200160208202803683370190505b50905084600186510381518110610a4857fe5b6020026020010151858781518110610a5c57fe5b60200260200101818152505060005b8151811015610aa757858181518110610a8057fe5b6020026020010151828281518110610a9457fe5b6020908102919091010152600101610a6b565b5095945050505050565b60035460405163123bd07560e11b8152600091839173__Library_______________________________90632477a0ea90610af2908590859060040161284a565b60206040518083038186803b158015610b0a57600080fd5b505af4158015610b1e573d6000803e3d6000fd5b505050506040513d601f19601f82011682018060405250810190610b4291906124cc565b1515600114610b635760405162461bcd60e51b81526004016102bd906127e9565b610d0760038581548110610b7357fe5b600091825260208083206001600160a01b038a16845260029283020181526040928390208351608081018552815460ff16151581526001808301805487516101009382161593909302600019011695909504601f8101859004850282018501909652858152909491938584019391929091830182828015610c355780601f10610c0a57610100808354040283529160200191610c35565b820191906000526020600020905b815481529060010190602001808311610c1857829003601f168201915b5050505050815260200160028201805480602002602001604051908101604052809291908181526020018280548015610c9757602002820191906000526020600020905b81546001600160a01b03168152600190910190602001808311610c79575b5050505050815260200160038201805480602002602001604051908101604052809291908181526020018280548015610cf957602002820191906000526020600020905b81546001600160a01b03168152600190910190602001808311610cdb575b505050505081525050611304565b95945050505050565b60035460405163123bd07560e11b8152606091839173__Library_______________________________90632477a0ea90610d51908590859060040161284a565b60206040518083038186803b158015610d6957600080fd5b505af4158015610d7d573d6000803e3d6000fd5b505050506040513d601f19601f82011682018060405250810190610da191906124cc565b1515600114610dc25760405162461bcd60e51b81526004016102bd906127e9565b610d078560038681548110610dd357fe5b9060005260206000209060020201611308565b60035460405163123bd07560e11b815283919073__Library_______________________________90632477a0ea90610e25908590859060040161284a565b60206040518083038186803b158015610e3d57600080fd5b505af4158015610e51573d6000803e3d6000fd5b505050506040513d601f19601f82011682018060405250810190610e7591906124cc565b1515600114610e965760405162461bcd60e51b81526004016102bd906127e9565b610e9f33610588565b1515600114610ec05760405162461bcd60e51b81526004016102bd906127cc565b610eeb868660038781548110610ed257fe5b906000526020600020906002020160015460048861154b565b610f9260038581548110610efb57fe5b600091825260208083206001600160a01b038b16845260029283020181526040928390208351608081018552815460ff16151581526001808301805487516101009382161593909302600019011695909504601f8101859004850282018501909652858152909491938584019391929091830182828015610c355780601f10610c0a57610100808354040283529160200191610c35565b151560011415610fec577f3c139d46a211844e248647688545a37c07c505c999c1232d1247c707dc0a91e260028581548110610fca57fe5b9060005260206000200187604051610fe3929190612669565b60405180910390a15b505050505050565b60035460405163123bd07560e11b8152606091839173__Library_______________________________90632477a0ea90611035908590859060040161284a565b60206040518083038186803b15801561104d57600080fd5b505af4158015611061573d6000803e3d6000fd5b505050506040513d601f19601f8201168201806040525081019061108591906124cc565b15156001146110a65760405162461bcd60e51b81526004016102bd906127e9565b6110c9600385815481106110b657fe5b9060005260206000209060020201611991565b949350505050565b60035460405163123bd07560e11b8152600091839173__Library_______________________________90632477a0ea90611112908590859060040161284a565b60206040518083038186803b15801561112a57600080fd5b505af415801561113e573d6000803e3d6000fd5b505050506040513d601f19601f8201168201806040525081019061116291906124cc565b15156001146111835760405162461bcd60e51b81526004016102bd906127e9565b6110c96003858154811061119357fe5b90600052602060002090600202016119f7565b60035460405163123bd07560e11b815283919073__Library_______________________________90632477a0ea906111e5908590859060040161284a565b60206040518083038186803b1580156111fd57600080fd5b505af4158015611211573d6000803e3d6000fd5b505050506040513d601f19601f8201168201806040525081019061123591906124cc565b15156001146112565760405162461bcd60e51b81526004016102bd906127e9565b8461126033610588565b1515600114806112785750336001600160a01b038216145b6112945760405162461bcd60e51b81526004016102bd90612806565b6112be86600387815481106112a557fe5b90600052602060002090600202016001546004886119fe565b6112ce60038681548110610efb57fe5b610fec577f1f62d535f971041db7bd8760bf0f1f9f476461558744a35c0d477b5ad6893e8960028681548110610fca57fe5b1190565b5190565b6001600160a01b038216600090815260208281526040918290208251608081018452815460ff1615158152600182810180548651601f6002600019848716156101000201909316929092049182018790048702810187019097528087526060969295939493858101939291908301828280156113c55780601f1061139a576101008083540402835291602001916113c5565b820191906000526020600020905b8154815290600101906020018083116113a857829003601f168201915b505050505081526020016002820180548060200260200160405190810160405280929190818152602001828054801561142757602002820191906000526020600020905b81546001600160a01b03168152600190910190602001808311611409575b505050505081526020016003820180548060200260200160405190810160405280929190818152602001828054801561148957602002820191906000526020600020905b81546001600160a01b0316815260019091019060200180831161146b575b50505050508152505061149c8282611efe565b6001600160a01b03851660009081526020858152604091829020600190810180548451600293821615610100026000190190911692909204601f81018490048402830184019094528382529092909183018282801561153c5780601f106115115761010080835404028352916020019161153c565b820191906000526020600020905b81548152906001019060200180831161151f57829003601f168201915b50505050509250505092915050565b6001600160a01b0386166000908152602085815260408083208151608081018352815460ff1615158152600180830180548551600261010094831615949094026000190190911692909204601f810187900487028301870190955284825291949293858401939192918301828280156116055780601f106115da57610100808354040283529160200191611605565b820191906000526020600020905b8154815290600101906020018083116115e857829003601f168201915b505050505081526020016002820180548060200260200160405190810160405280929190818152602001828054801561166757602002820191906000526020600020905b81546001600160a01b03168152600190910190602001808311611649575b50505050508152602001600382018054806020026020016040519081016040528092919081815260200182805480156116c957602002820191906000526020600020905b81546001600160a01b031681526001909101906020018083116116ab575b5050505050815250506116dc8282611efe565b6001600160a01b0388166000908152602087815260408083208151608081018352815460ff1615158152600180830180548551600261010094831615949094026000190190911692909204601f810187900487028301870190955284825291949293858401939192918301828280156117965780601f1061176b57610100808354040283529160200191611796565b820191906000526020600020905b81548152906001019060200180831161177957829003601f168201915b50505050508152602001600282018054806020026020016040519081016040528092919081815260200182805480156117f857602002820191906000526020600020905b81546001600160a01b031681526001909101906020018083116117da575b505050505081526020016003820180548060200260200160405190810160405280929190818152602001828054801561185a57602002820191906000526020600020905b81546001600160a01b0316815260019091019060200180831161183c575b50505050508152505061186d8282611f58565b84866118798282611fbe565b6001600160a01b038c16600090815260208b905260409020600201546118c8576001600160a01b038c16600090815260208b815260409091208c516118c6926001909201918e019061224a565b505b6001600160a01b038c16600081815260208c8152604080832060020180546001818101835582865284862090910180546001600160a01b0319163390811790915585528d84528285208d86528452918420805460ff1916909217909155929091528b905254611937908a611ff7565b15611983576001600160a01b038c16600081815260208c815260408220805460ff191660019081179091558d810180549182018155835291200180546001600160a01b03191690911790555b505050505050505050505050565b6060816001018054806020026020016040519081016040528092919081815260200182805480156119eb57602002820191906000526020600020905b81546001600160a01b031681526001909101906020018083116119cd575b50505050509050919050565b6001015490565b6001600160a01b038516600090815260208581526040918290208251608081018452815460ff1615158152600180830180548651600261010083861615026000190190921691909104601f8101879004870282018701909752868152919592948581019390830182828015611ab45780601f10611a8957610100808354040283529160200191611ab4565b820191906000526020600020905b815481529060010190602001808311611a9757829003601f168201915b5050505050815260200160028201805480602002602001604051908101604052809291908181526020018280548015611b1657602002820191906000526020600020905b81546001600160a01b03168152600190910190602001808311611af8575b5050505050815260200160038201805480602002602001604051908101604052809291908181526020018280548015611b7857602002820191906000526020600020905b81546001600160a01b03168152600190910190602001808311611b5a575b505050505081525050611b8b8282611efe565b6001600160a01b038716600090815260208781526040918290208251608081018452815460ff1615158152600180830180548651600261010083861615026000190190921691909104601f8101879004870282018701909752868152919592948581019390830182828015611c415780601f10611c1657610100808354040283529160200191611c41565b820191906000526020600020905b815481529060010190602001808311611c2457829003601f168201915b5050505050815260200160028201805480602002602001604051908101604052809291908181526020018280548015611ca357602002820191906000526020600020905b81546001600160a01b03168152600190910190602001808311611c85575b5050505050815260200160038201805480602002602001604051908101604052809291908181526020018280548015611d0557602002820191906000526020600020905b81546001600160a01b03168152600190910190602001808311611ce7575b505050505081525050611d188282611f58565b8486611d248282611fbe565b6001600160a01b038b16600081815260208c815260408083206003018054600181810183559185528385200180546001600160a01b031916339081179091558085528d84528285208d86529093529220805460ff19169092179091551480611dad57506001600160a01b038b16600090815260208b90526040902060030154611dad908a611ff7565b15611ef157611e8d611e88611e1e8d8d600101805480602002602001604051908101604052809291908181526020018280548015611e1457602002820191906000526020600020905b81546001600160a01b03168152600190910190602001808311611df6575b5050505050612012565b611e838d600101805480602002602001604051908101604052809291908181526020018280548015611e7957602002820191906000526020600020905b81546001600160a01b03168152600190910190602001808311611e5b575b5050505050612066565b6109be565b6120fd565b8051611ea39160018d01916020909101906122c5565b506001600160a01b038b16600090815260208b905260408120805460ff1916815590611ed2600183018261231a565b611ee0600283016000612361565b611eee600383016000612361565b50505b5050505050505050505050565b81611f2e57611f0c81611304565b15611f295760405162461bcd60e51b81526004016102bd90612824565b6109a0565b611f3781611304565b15156001146109a05760405162461bcd60e51b81526004016102bd906126fc565b816001811115611f6457fe5b611f9357611f7633826040015161219a565b15611f295760405162461bcd60e51b81526004016102bd90612737565b611fa133826060015161219a565b156109a05760405162461bcd60e51b81526004016102bd90612737565b3360009081526020828152604080832085845290915290205460ff16156109a05760405162461bcd60e51b81526004016102bd906127ae565b60008183101561200957506000610982565b50600192915050565b6000805b825181101561205b5782818151811061202b57fe5b60200260200101516001600160a01b0316846001600160a01b03161415612053579050610982565b600101612016565b505051600101919050565b60606000825167ffffffffffffffff8111801561208257600080fd5b506040519080825280602002602001820160405280156120ac578160200160208202803683370190505b50905060005b83518110156120f6576120d78482815181106120ca57fe5b60200260200101516121f0565b8282815181106120e357fe5b60209081029190910101526001016120b2565b5092915050565b60606000825167ffffffffffffffff8111801561211957600080fd5b50604051908082528060200260200182016040528015612143578160200160208202803683370190505b50905060005b83518110156120f65761216e84828151811061216157fe5b60200260200101516121fc565b82828151811061217a57fe5b6001600160a01b0390921660209283029190910190910152600101612149565b6000805b82518110156121e6578281815181106121b357fe5b60200260200101516001600160a01b0316846001600160a01b031614156121de576001915050610982565b60010161219e565b5060009392505050565b6001600160a01b031690565b90565b82805482825590600052602060002090810192821561223a579160200282015b8281111561223a57825182559160200191906001019061221f565b5061224692915061237b565b5090565b828054600181600116156101000203166002900490600052602060002090601f016020900481019282612280576000855561223a565b82601f1061229957805160ff191683800117855561223a565b8280016001018555821561223a579182018281111561223a57825182559160200191906001019061221f565b82805482825590600052602060002090810192821561223a579160200282015b8281111561223a57825182546001600160a01b0319166001600160a01b039091161782556020909201916001909101906122e5565b50805460018160011615610100020316600290046000825580601f10612340575061235e565b601f01602090049060005260206000209081019061235e919061237b565b50565b508054600082559060005260206000209081019061235e91905b5b80821115612246576000815560010161237c565b80356001600160a01b038116811461059957600080fd5b6000602082840312156123b8578081fd5b61072882612390565b6000806000606084860312156123d5578182fd5b6123de84612390565b925060208085013567ffffffffffffffff808211156123fb578485fd5b818701915087601f83011261240e578485fd5b81358181111561241a57fe5b604051601f8201601f191681018501838111828210171561243757fe5b60405281815283820185018a101561244d578687fd5b81858501868301379081019093019490945250929592945050506040919091013590565b60008060408385031215612483578182fd5b61248c83612390565b946020939093013593505050565b6000806000606084860312156124ae578283fd5b6124b784612390565b95602085013595506040909401359392505050565b6000602082840312156124dd578081fd5b81518015158114610728578182fd5b600080604083850312156124fe578182fd5b8235915061250e60208401612390565b90509250929050565b60008060006060848603121561252b578283fd5b8335925061253b60208501612390565b9150604084013590509250925092565b6001600160a01b03169052565b6001600160a01b0391909116815260200190565b6001600160a01b0392831681529116602082015260400190565b6020808252825182820181905260009190848201906040850190845b818110156125c75783516001600160a01b0316835292840192918401916001016125a2565b50909695505050505050565b6020808252825182820181905260009190848201906040850190845b818110156125c7578351835292840192918401916001016125ef565b901515815260200190565b6000602080835283518082850152825b8181101561264257858101830151858201604001528201612626565b818111156126535783604083870101525b50601f01601f1916929092016040019392505050565b6000604082016040835281855460018082166000811461269057600181146126ae576126e7565b60028304607f16855260ff19831660608801526080870193506126e7565b600283048086526126be8a612858565b875b828110156126dd5781548a820160600152908401906020016126c0565b8901606001955050505b5050508092505050610728602083018461254b565b60208082526003908201526245433760e81b604082015260600190565b6020808252600490820152634543313960e01b604082015260600190565b60208082526003908201526245433560e81b604082015260600190565b6020808252600490820152631150cc4d60e21b604082015260600190565b6020808252600490820152634543313560e01b604082015260600190565b60208082526004908201526322a1989960e11b604082015260600190565b6020808252600490820152630454332360e41b604082015260600190565b60208082526003908201526245433960e81b604082015260600190565b60208082526003908201526245433160e81b604082015260600190565b6020808252600490820152630454331360e41b604082015260600190565b60208082526003908201526222a19b60e91b604082015260600190565b90815260200190565b918252602082015260400190565b6000908152602090209056fea26469706673582212203e1ea02fc212eaa6987b11d517f9527b3f4aac3084c1d25fc27d9836a6a4648764736f6c63430007060033",
  "immutableReferences": {},
  "source": "// SPDX-License-Identifier: GPL-3.0\r\n\r\npragma solidity >=0.7.0 <0.9.0;\r\npragma experimental ABIEncoderV2;\r\n\r\n/**\r\n * @title Storage\r\n * @dev Store & retrieve value in a variable\r\n */\r\n\r\n import \"./Abstract/MultiSigCertificatesPool.sol\";\r\n\r\n contract PrivateCertificatesPool is MultiSigCertificatesPool {\r\n\r\n     constructor(address[] memory owners,  uint256 minOwners) MultiSigCertificatesPool(owners, minOwners) payable {\r\n    }\r\n\r\n    function addProvider(address provider, string memory providerInfo, uint nonce) external override{\r\n        addEntity(provider, bytes(providerInfo), _providerId, nonce);\r\n    }\r\n\r\n    function removeProvider(address provider, uint nonce) external override{\r\n       removeEntity(provider, _providerId, nonce); \r\n    }\r\n\r\n }",
  "sourcePath": "C:\\Users\\d-aam\\GitHub\\Certificates\\contracts\\PrivateCertificatesPool.sol",
  "compiler": {
    "name": "solc",
    "version": "0.7.6+commit.7338295f.Emscripten.clang"
  },
  "schemaVersion": "3.3.4",
  "updatedAt": "2021-07-13T07:50:29.540Z",
  "devdoc": {
    "kind": "dev",
    "methods": {},
    "version": 1
  },
  "userdoc": {
    "kind": "user",
    "methods": {},
    "version": 1
  }
}