{
  "contractName": "PrivateCertificatesPool",
  "abi": [
    {
      "anonymous": false,
      "inputs": [
        {
          "indexed": true,
          "internalType": "address",
          "name": "",
          "type": "address"
        },
        {
          "indexed": true,
          "internalType": "address",
          "name": "",
          "type": "address"
        },
        {
          "indexed": false,
          "internalType": "bytes32",
          "name": "",
          "type": "bytes32"
        }
      ],
      "name": "_AddCertificate",
      "type": "event"
    },
    {
      "inputs": [
        {
          "internalType": "address[]",
          "name": "owners",
          "type": "address[]"
        },
        {
          "internalType": "uint256",
          "name": "minOwners",
          "type": "uint256"
        }
      ],
      "name": "MultiSigCertPool_init",
      "outputs": [],
      "stateMutability": "nonpayable",
      "type": "function"
    },
    {
      "inputs": [
        {
          "internalType": "address[]",
          "name": "owners",
          "type": "address[]"
        },
        {
          "internalType": "uint256",
          "name": "minOwners",
          "type": "uint256"
        },
        {
          "internalType": "uint256",
          "name": "TotalEntities",
          "type": "uint256"
        },
        {
          "internalType": "string[]",
          "name": "labels",
          "type": "string[]"
        },
        {
          "internalType": "uint256",
          "name": "ownerId",
          "type": "uint256"
        }
      ],
      "name": "MultiSigContract_init",
      "outputs": [],
      "stateMutability": "nonpayable",
      "type": "function"
    },
    {
      "inputs": [
        {
          "internalType": "bytes32",
          "name": "CertificateHash",
          "type": "bytes32"
        },
        {
          "internalType": "address",
          "name": "holder",
          "type": "address"
        }
      ],
      "name": "addCertificate",
      "outputs": [],
      "stateMutability": "payable",
      "type": "function"
    },
    {
      "inputs": [
        {
          "internalType": "address",
          "name": "owner",
          "type": "address"
        },
        {
          "internalType": "string",
          "name": "ownerInfo",
          "type": "string"
        }
      ],
      "name": "addOwner",
      "outputs": [],
      "stateMutability": "nonpayable",
      "type": "function"
    },
    {
      "inputs": [
        {
          "internalType": "address",
          "name": "provider",
          "type": "address"
        },
        {
          "internalType": "string",
          "name": "providerInfo",
          "type": "string"
        }
      ],
      "name": "addProvider",
      "outputs": [],
      "stateMutability": "payable",
      "type": "function"
    },
    {
      "inputs": [
        {
          "internalType": "uint256",
          "name": "newMinOwners",
          "type": "uint256"
        }
      ],
      "name": "changeMinOwners",
      "outputs": [],
      "stateMutability": "nonpayable",
      "type": "function"
    },
    {
      "inputs": [
        {
          "internalType": "bytes32",
          "name": "item",
          "type": "bytes32"
        },
        {
          "internalType": "uint256[]",
          "name": "ids",
          "type": "uint256[]"
        },
        {
          "internalType": "bool",
          "name": "addOrRemove",
          "type": "bool"
        }
      ],
      "name": "onItemRejected",
      "outputs": [],
      "stateMutability": "nonpayable",
      "type": "function"
    },
    {
      "inputs": [
        {
          "internalType": "bytes32",
          "name": "item",
          "type": "bytes32"
        },
        {
          "internalType": "uint256[]",
          "name": "ids",
          "type": "uint256[]"
        },
        {
          "internalType": "bool",
          "name": "addOrRemove",
          "type": "bool"
        }
      ],
      "name": "onItemValidated",
      "outputs": [],
      "stateMutability": "nonpayable",
      "type": "function"
    },
    {
      "inputs": [],
      "name": "rejectMinOwners",
      "outputs": [],
      "stateMutability": "nonpayable",
      "type": "function"
    },
    {
      "inputs": [
        {
          "internalType": "address",
          "name": "owner",
          "type": "address"
        }
      ],
      "name": "rejectOwner",
      "outputs": [],
      "stateMutability": "nonpayable",
      "type": "function"
    },
    {
      "inputs": [
        {
          "internalType": "address",
          "name": "provider",
          "type": "address"
        }
      ],
      "name": "rejectProvider",
      "outputs": [],
      "stateMutability": "nonpayable",
      "type": "function"
    },
    {
      "inputs": [
        {
          "internalType": "address",
          "name": "owner",
          "type": "address"
        }
      ],
      "name": "removeOwner",
      "outputs": [],
      "stateMutability": "nonpayable",
      "type": "function"
    },
    {
      "inputs": [
        {
          "internalType": "address",
          "name": "provider",
          "type": "address"
        }
      ],
      "name": "removeProvider",
      "outputs": [],
      "stateMutability": "nonpayable",
      "type": "function"
    },
    {
      "inputs": [],
      "name": "retrieveAddCertificatePriceWei",
      "outputs": [
        {
          "internalType": "uint256",
          "name": "",
          "type": "uint256"
        }
      ],
      "stateMutability": "view",
      "type": "function"
    },
    {
      "inputs": [],
      "name": "retrieveAllOwners",
      "outputs": [
        {
          "internalType": "bytes32[]",
          "name": "",
          "type": "bytes32[]"
        }
      ],
      "stateMutability": "view",
      "type": "function"
    },
    {
      "inputs": [],
      "name": "retrieveAllProviders",
      "outputs": [
        {
          "internalType": "bytes32[]",
          "name": "",
          "type": "bytes32[]"
        }
      ],
      "stateMutability": "view",
      "type": "function"
    },
    {
      "inputs": [
        {
          "internalType": "bytes32",
          "name": "CertificateHash",
          "type": "bytes32"
        },
        {
          "internalType": "address",
          "name": "holder",
          "type": "address"
        }
      ],
      "name": "retrieveCertificateProvider",
      "outputs": [
        {
          "internalType": "address",
          "name": "",
          "type": "address"
        }
      ],
      "stateMutability": "view",
      "type": "function"
    },
    {
      "inputs": [
        {
          "internalType": "address",
          "name": "holder",
          "type": "address"
        },
        {
          "internalType": "uint256",
          "name": "skipFirst",
          "type": "uint256"
        },
        {
          "internalType": "uint256",
          "name": "max",
          "type": "uint256"
        }
      ],
      "name": "retrieveCertificatesByHolder",
      "outputs": [
        {
          "internalType": "bytes32[]",
          "name": "",
          "type": "bytes32[]"
        }
      ],
      "stateMutability": "view",
      "type": "function"
    },
    {
      "inputs": [],
      "name": "retrieveMinOwners",
      "outputs": [
        {
          "internalType": "uint256",
          "name": "",
          "type": "uint256"
        }
      ],
      "stateMutability": "view",
      "type": "function"
    },
    {
      "inputs": [
        {
          "internalType": "address",
          "name": "owner",
          "type": "address"
        }
      ],
      "name": "retrieveOwner",
      "outputs": [
        {
          "components": [
            {
              "internalType": "bool",
              "name": "_activated",
              "type": "bool"
            },
            {
              "internalType": "string",
              "name": "_Info",
              "type": "string"
            },
            {
              "internalType": "uint256",
              "name": "_id",
              "type": "uint256"
            },
            {
              "internalType": "uint256",
              "name": "_pendingId",
              "type": "uint256"
            },
            {
              "internalType": "address[]",
              "name": "_Validations",
              "type": "address[]"
            },
            {
              "internalType": "address[]",
              "name": "_Rejections",
              "type": "address[]"
            }
          ],
          "internalType": "struct ItemsLibrary._itemIdentity",
          "name": "",
          "type": "tuple"
        }
      ],
      "stateMutability": "view",
      "type": "function"
    },
    {
      "inputs": [],
      "name": "retrievePendingMinOwners",
      "outputs": [
        {
          "internalType": "uint256",
          "name": "",
          "type": "uint256"
        }
      ],
      "stateMutability": "view",
      "type": "function"
    },
    {
      "inputs": [],
      "name": "retrievePendingMinOwnersStatus",
      "outputs": [
        {
          "internalType": "uint256",
          "name": "",
          "type": "uint256"
        },
        {
          "internalType": "uint256",
          "name": "",
          "type": "uint256"
        },
        {
          "internalType": "address[]",
          "name": "",
          "type": "address[]"
        }
      ],
      "stateMutability": "view",
      "type": "function"
    },
    {
      "inputs": [
        {
          "internalType": "bool",
          "name": "addedORremove",
          "type": "bool"
        }
      ],
      "name": "retrievePendingOwners",
      "outputs": [
        {
          "internalType": "bytes32[]",
          "name": "",
          "type": "bytes32[]"
        }
      ],
      "stateMutability": "view",
      "type": "function"
    },
    {
      "inputs": [
        {
          "internalType": "bool",
          "name": "addedORremove",
          "type": "bool"
        }
      ],
      "name": "retrievePendingProviders",
      "outputs": [
        {
          "internalType": "bytes32[]",
          "name": "",
          "type": "bytes32[]"
        }
      ],
      "stateMutability": "view",
      "type": "function"
    },
    {
      "inputs": [
        {
          "internalType": "address",
          "name": "provider",
          "type": "address"
        }
      ],
      "name": "retrieveProvider",
      "outputs": [
        {
          "components": [
            {
              "internalType": "bool",
              "name": "_activated",
              "type": "bool"
            },
            {
              "internalType": "string",
              "name": "_Info",
              "type": "string"
            },
            {
              "internalType": "uint256",
              "name": "_id",
              "type": "uint256"
            },
            {
              "internalType": "uint256",
              "name": "_pendingId",
              "type": "uint256"
            },
            {
              "internalType": "address[]",
              "name": "_Validations",
              "type": "address[]"
            },
            {
              "internalType": "address[]",
              "name": "_Rejections",
              "type": "address[]"
            }
          ],
          "internalType": "struct ItemsLibrary._itemIdentity",
          "name": "",
          "type": "tuple"
        }
      ],
      "stateMutability": "view",
      "type": "function"
    },
    {
      "inputs": [],
      "name": "retrieveSubscriptionPriceWei",
      "outputs": [
        {
          "internalType": "uint256",
          "name": "",
          "type": "uint256"
        }
      ],
      "stateMutability": "view",
      "type": "function"
    },
    {
      "inputs": [
        {
          "internalType": "address",
          "name": "holder",
          "type": "address"
        }
      ],
      "name": "retrieveTotalCertificatesByHolder",
      "outputs": [
        {
          "internalType": "uint256",
          "name": "",
          "type": "uint256"
        }
      ],
      "stateMutability": "view",
      "type": "function"
    },
    {
      "inputs": [],
      "name": "validateMinOwners",
      "outputs": [],
      "stateMutability": "nonpayable",
      "type": "function"
    },
    {
      "inputs": [
        {
          "internalType": "address",
          "name": "owner",
          "type": "address"
        }
      ],
      "name": "validateOwner",
      "outputs": [],
      "stateMutability": "nonpayable",
      "type": "function"
    },
    {
      "inputs": [
        {
          "internalType": "address",
          "name": "provider",
          "type": "address"
        }
      ],
      "name": "validateProvider",
      "outputs": [],
      "stateMutability": "nonpayable",
      "type": "function"
    },
    {
      "inputs": [
        {
          "internalType": "address[]",
          "name": "owners",
          "type": "address[]"
        },
        {
          "internalType": "uint256",
          "name": "minOwners",
          "type": "uint256"
        }
      ],
      "name": "PrivateCertPool_init",
      "outputs": [],
      "stateMutability": "nonpayable",
      "type": "function"
    }
  ],
  "bytecode": "0x608060405234801561001057600080fd5b506131a7806100206000396000f3fe6080604052600436106101685760003560e01c80630b4c72a91461016d578063173825d91461018f5780631ab807f8146101af57806327a40b4b146101c25780632edbe7fc146101e257806330ade922146102065780633542758f1461021b578063375834991461023b5780633fd07181146102685780634774779d1461028857806357e7ea2e146102885780635888ebb31461029c57806358a1ba25146102c057806365b973e5146102ed5780636b299604146103025780636b3a0fec146103225780636e4f9179146103425780636e55d2d41461035757806376f8f90f1461037757806377bc5a1f146103975780637c8c2add146102685780638a355a57146103b7578063a93d5ed6146103d7578063c3079ae7146103ec578063c3ccb19114610401578063c66433ea14610421578063ce33d58a14610441578063cf2041d914610461578063d0a4adfe14610481578063d21c2bec146104d4578063fc000500146104f4575b600080fd5b34801561017957600080fd5b5061018d61018836600461273a565b610507565b005b34801561019b57600080fd5b5061018d6101aa36600461273a565b610515565b61018d6101bd366004612a77565b61056a565b3480156101ce57600080fd5b5061018d6101dd36600461273a565b610578565b3480156101ee57600080fd5b506005545b6040519081526020015b60405180910390f35b34801561021257600080fd5b5061018d610583565b34801561022757600080fd5b5061018d610236366004612757565b610682565b34801561024757600080fd5b5061025b61025636600461273a565b610690565b6040516101fd9190612e64565b34801561027457600080fd5b5061018d610283366004612aa7565b6106a9565b34801561029457600080fd5b5060006101f3565b3480156102a857600080fd5b506102b1610773565b6040516101fd93929190612f96565b3480156102cc57600080fd5b506102e06102db3660046127db565b6107e7565b6040516101fd9190612d0d565b3480156102f957600080fd5b506001546101f3565b34801561030e57600080fd5b506102e061031d366004612a24565b61098d565b34801561032e57600080fd5b506102e061033d366004612a24565b61099b565b34801561034e57600080fd5b506102e06109a8565b34801561036357600080fd5b506101f361037236600461273a565b6109b9565b34801561038357600080fd5b5061018d61039236600461273a565b6109d7565b3480156103a357600080fd5b5061025b6103b236600461273a565b610a32565b3480156103c357600080fd5b5061018d6103d236600461273a565b610a46565b3480156103e357600080fd5b506102e0610a51565b3480156103f857600080fd5b5061018d610a5e565b34801561040d57600080fd5b5061018d61041c366004612810565b610b5d565b34801561042d57600080fd5b5061018d61043c366004612c11565b610d8c565b34801561044d57600080fd5b5061018d61045c36600461273a565b610e77565b34801561046d57600080fd5b5061018d61047c366004612854565b610e83565b34801561048d57600080fd5b506104c761049c366004612a77565b6001600160a01b039081166000908152600a6020908152604080832094835293905291909120541690565b6040516101fd9190612c9a565b3480156104e057600080fd5b5061018d6104ef366004612810565b61112e565b61018d610502366004612757565b61118f565b61051281600161119c565b50565b600154600161052560005461130e565b51610530919061306f565b808211156105595760405162461bcd60e51b815260040161055090612d7d565b60405180910390fd5b61056583600054611475565b505050565b61057482826115af565b5050565b6105128160016116e1565b61058f3360005461181b565b15156001146105b05760405162461bcd60e51b815260040161055090612e28565b60016005546105d15760405162461bcd60e51b815260040161055090612d9c565b60405163f7cf62d760e01b815273__AddressLibrary________________________9063f7cf62d79061060b903390600890600401612cae565b60206040518083038186803b15801561062357600080fd5b505af4158015610637573d6000803e3d6000fd5b505050506040513d601f19601f8201168201806040525081019061065b9190612a41565b156106785760405162461bcd60e51b815260040161055090612e46565b6105126001611a0c565b610565838383600054611a93565b610698612462565b6106a3826001611c2f565b92915050565b604051630d1d719d60e41b8152309073__Library_______________________________9063d1d719d0906106e2908490600401612c9a565b60206040518083038186803b1580156106fa57600080fd5b505af415801561070e573d6000803e3d6000fd5b505050506040513d601f19601f820116820180604052508101906107329190612a41565b151560011461076c5760405162461bcd60e51b8152600401610550906020808252600490820152634543382d60e01b604082015260600190565b5050505050565b60008060606006546007546008808054806020026020016040519081016040528092919081815260200182805480156107d557602002820191906000526020600020905b81546001600160a01b031681526001909101906020018083116107b7575b50505050509050925092509250909192565b6060826107f3856109b9565b1161080d5750604080516000815260208101909152610986565b818084610819876109b9565b610823919061306f565b10156108405783610833866109b9565b61083d919061306f565b90505b6000816001600160401b0381111561085a5761085a613138565b604051908082528060200260200182016040528015610883578160200160208202803683370190505b506001600160a01b0387166000908152600a60209081526040808320600101805482518185028101850190935280835294955092939092918301828280156108ea57602002820191906000526020600020905b8154815260200190600101908083116108d6575b5050505050905060008060005b835181101561097d5787831061090c5761097d565b818911156109265761091f600183613057565b915061096b565b83818151811061093857610938613122565b602002602001015185848151811061095257610952613122565b6020908102919091010152610968600184613057565b92505b80610975816130f1565b9150506108f7565b50929450505050505b9392505050565b60606106a382600054611e20565b60606106a3826001611e20565b60606109b4600161130e565b905090565b6001600160a01b03166000908152600a602052604090206001015490565b6109e381600054611f8c565b151560011415610a265760016109fa60005461130e565b51610a05919061306f565b6001541115610a265760405162461bcd60e51b815260040161055090612d7d565b610512816000546116e1565b610a3a612462565b6106a382600054611c2f565b610512816001611475565b60606109b460005461130e565b610a6a3360005461181b565b1515600114610a8b5760405162461bcd60e51b815260040161055090612e28565b6001600554610aac5760405162461bcd60e51b815260040161055090612d9c565b60405163f7cf62d760e01b815273__AddressLibrary________________________9063f7cf62d790610ae6903390600890600401612cae565b60206040518083038186803b158015610afe57600080fd5b505af4158015610b12573d6000803e3d6000fd5b505050506040513d601f19601f82011682018060405250810190610b369190612a41565b15610b535760405162461bcd60e51b815260040161055090612e46565b6105126000611a0c565b600454610100900460ff1680610b76575060045460ff16155b610b925760405162461bcd60e51b815260040161055090612dda565b600454610100900460ff16158015610bb4576004805461ffff19166101011790555b6040805160028082526060820190925290816020015b6060815260200190600190039081610bca5750508051610bf29160099160209091019061249a565b506040518060400160405280600581526020016427bbb732b960d91b8152506009600081548110610c2557610c25613122565b906000526020600020019080519060200190610c429291906124f7565b5060405180604001604052806008815260200167283937bb34b232b960c11b8152506009600181548110610c7857610c78613122565b906000526020600020019080519060200190610c959291906124f7565b50610d76838360026009805480602002602001604051908101604052809291908181526020016000905b82821015610d6b578382906000526020600020018054610cde906130b6565b80601f0160208091040260200160405190810160405280929190818152602001828054610d0a906130b6565b8015610d575780601f10610d2c57610100808354040283529160200191610d57565b820191906000526020600020905b815481529060010190602001808311610d3a57829003601f168201915b505050505081526020019060010190610cbf565b505050506000610e83565b8015610565576004805461ff0019169055505050565b610d983360005461181b565b1515600114610db95760405162461bcd60e51b815260040161055090612e28565b600060055415610df35760405162461bcd60e51b8152602060048201526005602482015264454333302d60d81b6044820152606401610550565b81600260005481548110610e0957610e09613122565b90600052602060002090600402016001018054905080821115610e3e5760405162461bcd60e51b815260040161055090612d7d565b600084818111610e605760405162461bcd60e51b815260040161055090612dbb565b6005869055610e6f6001611a0c565b505050505050565b6105128160005461119c565b600454610100900460ff1680610e9c575060045460ff16155b610eb85760405162461bcd60e51b815260040161055090612dda565b600454610100900460ff16158015610eda576004805461ffff19166101011790555b84865180821115610efd5760405162461bcd60e51b815260040161055090612d7d565b600087818111610f1f5760405162461bcd60e51b815260040161055090612dbb565b86518814610f575760405162461bcd60e51b8152602060048201526005602482015264454331382d60d81b6044820152606401610550565b60008681555b88811015610fcd576002805460010181556000528751600390899083908110610f8857610f88613122565b60209081029190910181015182546001810184556000938452928290208151610fba94919091019291909101906124f7565b5080610fc5816130f1565b915050610f5d565b50600189905560005b8a5181101561111057600073__AddressLibrary________________________63bc215e858d848151811061100d5761100d613122565b60200260200101516040518263ffffffff1660e01b81526004016110319190612c9a565b60206040518083038186803b15801561104957600080fd5b505af415801561105d573d6000803e3d6000fd5b505050506040513d601f19601f820116820180604052508101906110819190612a5e565b9050600160026000548154811061109a5761109a613122565b60009182526020808320858452600492909202909101905260408120805460ff191692151592909217909155546002805490919081106110dc576110dc613122565b6000918252602080832060016004909302018201805492830181558352909120015580611108816130f1565b915050610fd6565b50505050508015610e6f576004805461ff0019169055505050505050565b600454610100900460ff1680611147575060045460ff16155b6111635760405162461bcd60e51b815260040161055090612dda565b600454610100900460ff16158015611185576004805461ffff19166101011790555b610d768383610b5d565b6105658383836001611a93565b60025460405163123bd07560e11b815282919073__Library_______________________________90632477a0ea906111db9085908590600401612d51565b60206040518083038186803b1580156111f357600080fd5b505af4158015611207573d6000803e3d6000fd5b505050506040513d601f19601f8201168201806040525081019061122b9190612a41565b151560011461124c5760405162461bcd60e51b815260040161055090612d5f565b6112583360005461181b565b15156001146112795760405162461bcd60e51b815260040161055090612e28565b6000806112968660405180602001604052806000815250876120f8565b604051635cb09bcf60e01b8152919350915073__ItemsLibrary__________________________90635cb09bcf906112d690859085903090600401612ee5565b60006040518083038186803b1580156112ee57600080fd5b505af4158015611302573d6000803e3d6000fd5b50505050505050505050565b60025460405163123bd07560e11b8152606091839173__Library_______________________________90632477a0ea9061134f9085908590600401612d51565b60206040518083038186803b15801561136757600080fd5b505af415801561137b573d6000803e3d6000fd5b505050506040513d601f19601f8201168201806040525081019061139f9190612a41565b15156001146113c05760405162461bcd60e51b815260040161055090612d5f565b73__ItemsLibrary__________________________6327724f4b600286815481106113ed576113ed613122565b90600052602060002090600402016040518263ffffffff1660e01b815260040161141991815260200190565b60006040518083038186803b15801561143157600080fd5b505af4158015611445573d6000803e3d6000fd5b505050506040513d6000823e601f3d908101601f1916820160405261146d919081019061298d565b949350505050565b60025460405163123bd07560e11b815282919073__Library_______________________________90632477a0ea906114b49085908590600401612d51565b60206040518083038186803b1580156114cc57600080fd5b505af41580156114e0573d6000803e3d6000fd5b505050506040513d601f19601f820116820180604052508101906115049190612a41565b15156001146115255760405162461bcd60e51b815260040161055090612d5f565b6115313360005461181b565b15156001146115525760405162461bcd60e51b815260040161055090612e28565b60008061156f8660405180602001604052806000815250876120f8565b60405163e23fcdef60e01b8152919350915073__ItemsLibrary__________________________9063e23fcdef906112d690859085903090600401612ee5565b6115b833612304565b15156001146115f15760405162461bcd60e51b8152602060048201526005602482015264454331322d60d81b6044820152606401610550565b816001600160a01b038083166000908152600a602090815260408083208784529091529020548391859116156116515760405162461bcd60e51b8152602060048201526005602482015264454331352d60d81b6044820152606401610550565b6001600160a01b0384166000818152600a602081815260408084208a855280835281852080546001600160a01b031916339081179091559383526001908101805491820181558552919093200188905590517ff55a90628981610edc26894247bee72e1963d1c9faa4ea6533fd3df39fd36ed4906116d29089815260200190565b60405180910390a35050505050565b60025460405163123bd07560e11b815282919073__Library_______________________________90632477a0ea906117209085908590600401612d51565b60206040518083038186803b15801561173857600080fd5b505af415801561174c573d6000803e3d6000fd5b505050506040513d601f19601f820116820180604052508101906117709190612a41565b15156001146117915760405162461bcd60e51b815260040161055090612d5f565b61179d3360005461181b565b15156001146117be5760405162461bcd60e51b815260040161055090612e28565b6000806117db8660405180602001604052806000815250876120f8565b604051637493a70b60e01b8152919350915073__ItemsLibrary__________________________90637493a70b906112d690859085903090600401612ee5565b60025460405163123bd07560e11b8152600091839173__Library_______________________________90632477a0ea9061185c9085908590600401612d51565b60206040518083038186803b15801561187457600080fd5b505af4158015611888573d6000803e3d6000fd5b505050506040513d601f19601f820116820180604052508101906118ac9190612a41565b15156001146118cd5760405162461bcd60e51b815260040161055090612d5f565b60405163bc215e8560e01b815260009073__AddressLibrary________________________9063bc215e8590611907908990600401612c9a565b60206040518083038186803b15801561191f57600080fd5b505af4158015611933573d6000803e3d6000fd5b505050506040513d601f19601f820116820180604052508101906119579190612a5e565b905073__ItemsLibrary__________________________63dbdfbeec826002888154811061198757611987613122565b90600052602060002090600402016040518363ffffffff1660e01b81526004016119b2929190612d51565b60206040518083038186803b1580156119ca57600080fd5b505af41580156119de573d6000803e3d6000fd5b505050506040513d601f19601f82011682018060405250810190611a029190612a41565b9695505050505050565b8015611a3057600160066000828254611a259190613057565b90915550611a499050565b600160076000828254611a439190613057565b90915550505b600880546001810182556000919091527ff3f7a9fe364faab93b216da50a3214154f22a0a2b415b23a84c8169e8b636ee30180546001600160a01b03191633179055610512612311565b60025460405163123bd07560e11b815282919073__Library_______________________________90632477a0ea90611ad29085908590600401612d51565b60206040518083038186803b158015611aea57600080fd5b505af4158015611afe573d6000803e3d6000fd5b505050506040513d601f19601f82011682018060405250810190611b229190612a41565b1515600114611b435760405162461bcd60e51b815260040161055090612d5f565b611b4f3360005461181b565b1515600114611b705760405162461bcd60e51b815260040161055090612e28565b600080611bb58888888080601f0160208091040260200160405190810160405280939291908181526020018383808284376000920191909152508a92506120f8915050565b6040516305cc2d5560e11b8152919350915073__ItemsLibrary__________________________90630b985aaa90611bf590859085903090600401612ee5565b60006040518083038186803b158015611c0d57600080fd5b505af4158015611c21573d6000803e3d6000fd5b505050505050505050505050565b611c37612462565b60025460405163123bd07560e11b815283919073__Library_______________________________90632477a0ea90611c769085908590600401612d51565b60206040518083038186803b158015611c8e57600080fd5b505af4158015611ca2573d6000803e3d6000fd5b505050506040513d601f19601f82011682018060405250810190611cc69190612a41565b1515600114611ce75760405162461bcd60e51b815260040161055090612d5f565b60405163bc215e8560e01b815260009073__AddressLibrary________________________9063bc215e8590611d21908990600401612c9a565b60206040518083038186803b158015611d3957600080fd5b505af4158015611d4d573d6000803e3d6000fd5b505050506040513d601f19601f82011682018060405250810190611d719190612a5e565b905073__ItemsLibrary__________________________631aeccc6a8260028881548110611da157611da1613122565b90600052602060002090600402016040518363ffffffff1660e01b8152600401611dcc929190612d51565b60006040518083038186803b158015611de457600080fd5b505af4158015611df8573d6000803e3d6000fd5b505050506040513d6000823e601f3d908101601f19168201604052611a029190810190612b38565b60025460405163123bd07560e11b8152606091839173__Library_______________________________90632477a0ea90611e619085908590600401612d51565b60206040518083038186803b158015611e7957600080fd5b505af4158015611e8d573d6000803e3d6000fd5b505050506040513d601f19601f82011682018060405250810190611eb19190612a41565b1515600114611ed25760405162461bcd60e51b815260040161055090612d5f565b606073__ItemsLibrary__________________________63e035e0068760028881548110611f0257611f02613122565b90600052602060002090600402016040518363ffffffff1660e01b8152600401611f389291909115158252602082015260400190565b60006040518083038186803b158015611f5057600080fd5b505af4158015611f64573d6000803e3d6000fd5b505050506040513d6000823e601f3d908101601f19168201604052611a02919081019061298d565b60025460405163123bd07560e11b8152600091839173__Library_______________________________90632477a0ea90611fcd9085908590600401612d51565b60206040518083038186803b158015611fe557600080fd5b505af4158015611ff9573d6000803e3d6000fd5b505050506040513d601f19601f8201168201806040525081019061201d9190612a41565b151560011461203e5760405162461bcd60e51b815260040161055090612d5f565b60405163bc215e8560e01b815260009073__AddressLibrary________________________9063bc215e8590612078908990600401612c9a565b60206040518083038186803b15801561209057600080fd5b505af41580156120a4573d6000803e3d6000fd5b505050506040513d601f19601f820116820180604052508101906120c89190612a5e565b905073__ItemsLibrary__________________________632854ed2e826002888154811061198757611987613122565b61212d6040518060a0016040528060008019168152602001606081526020016000815260200160608152602001606081525090565b60008073__AddressLibrary________________________63bc215e85876040518263ffffffff1660e01b81526004016121679190612c9a565b60206040518083038186803b15801561217f57600080fd5b505af4158015612193573d6000803e3d6000fd5b505050506040513d601f19601f820116820180604052508101906121b79190612a5e565b604080516001808252818301909252919250600091906020808301908036833701905050905084816000815181106121f1576121f1613122565b60200260200101818152505060006040518060a0016040528084815260200188815260200160015481526020016003888154811061223157612231613122565b906000526020600020018054612246906130b6565b80601f0160208091040260200160405190810160405280929190818152602001828054612272906130b6565b80156122bf5780601f10612294576101008083540402835291602001916122bf565b820191906000526020600020905b8154815290600101906020018083116122a257829003601f168201915b505050505081526020018381525090506000600287815481106122e4576122e4613122565b600091825260209091209296506004029091019350505050935093915050565b60006106a382600161181b565b60065460015460405163f6001d7d60e01b815273__ItemsLibrary__________________________9263f6001d7d9261234c92600401612d51565b60206040518083038186803b15801561236457600080fd5b505af4158015612378573d6000803e3d6000fd5b505050506040513d601f19601f8201168201806040525081019061239c9190612a41565b156123b1576005546001556123af612445565b565b60075460015460405163f6001d7d60e01b815273__ItemsLibrary__________________________9263f6001d7d926123ec92600401612d51565b60206040518083038186803b15801561240457600080fd5b505af4158015612418573d6000803e3d6000fd5b505050506040513d601f19601f8201168201806040525081019061243c9190612a41565b156123af576123af5b60006005819055600681905560078190556123af90600890612577565b6040518060c0016040528060001515815260200160608152602001600081526020016000815260200160608152602001606081525090565b8280548282559060005260206000209081019282156124e7579160200282015b828111156124e757825180516124d79184916020909101906124f7565b50916020019190600101906124ba565b506124f3929150612595565b5090565b828054612503906130b6565b90600052602060002090601f016020900481019282612525576000855561256b565b82601f1061253e57805160ff191683800117855561256b565b8280016001018555821561256b579182015b8281111561256b578251825591602001919060010190612550565b506124f39291506125b2565b508054600082559060005260206000209081019061051291906125b2565b808211156124f35760006125a982826125c7565b50600101612595565b5b808211156124f357600081556001016125b3565b5080546125d3906130b6565b6000825580601f106125e3575050565b601f01602090049060005260206000209081019061051291906125b2565b600082601f83011261261257600080fd5b813560206126276126228361300d565b612fdd565b80838252828201915082860187848660051b890101111561264757600080fd5b60005b8581101561266f57813561265d8161314e565b8452928401929084019060010161264a565b5090979650505050505050565b600082601f83011261268d57600080fd5b8151602061269d6126228361300d565b80838252828201915082860187848660051b89010111156126bd57600080fd5b60005b8581101561266f5781516126d38161314e565b845292840192908401906001016126c0565b80516126f081613163565b919050565b600082601f83011261270657600080fd5b815161271461262282613030565b81815284602083860101111561272957600080fd5b61146d826020830160208701613086565b60006020828403121561274c57600080fd5b81356109868161314e565b60008060006040848603121561276c57600080fd5b83356127778161314e565b925060208401356001600160401b038082111561279357600080fd5b818601915086601f8301126127a757600080fd5b8135818111156127b657600080fd5b8760208285010111156127c857600080fd5b6020830194508093505050509250925092565b6000806000606084860312156127f057600080fd5b83356127fb8161314e565b95602085013595506040909401359392505050565b6000806040838503121561282357600080fd5b82356001600160401b0381111561283957600080fd5b61284585828601612601565b95602094909401359450505050565b600080600080600060a0868803121561286c57600080fd5b6001600160401b03863581101561288257600080fd5b61288f8888358901612601565b9550602087013594506040870135935080606088013511156128b057600080fd5b6060870135870188601f8201126128c657600080fd5b6128d3612622823561300d565b8082358252602082019150602083018b6020853560051b86010111156128f857600080fd5b60005b843581101561297357858235111561291257600080fd5b813585018d603f82011261292557600080fd5b602081013561293661262282613030565b8181528f604083850101111561294b57600080fd5b81604084016020830137600060209282018301528652948501949290920191506001016128fb565b505080955050505050608086013590509295509295909350565b600060208083850312156129a057600080fd5b82516001600160401b038111156129b657600080fd5b8301601f810185136129c757600080fd5b80516129d56126228261300d565b80828252848201915084840188868560051b87010111156129f557600080fd5b600094505b83851015612a185780518352600194909401939185019185016129fa565b50979650505050505050565b600060208284031215612a3657600080fd5b813561098681613163565b600060208284031215612a5357600080fd5b815161098681613163565b600060208284031215612a7057600080fd5b5051919050565b60008060408385031215612a8a57600080fd5b823591506020830135612a9c8161314e565b809150509250929050565b60008060008060608587031215612abd57600080fd5b8435935060208501356001600160401b0380821115612adb57600080fd5b818701915087601f830112612aef57600080fd5b813581811115612afe57600080fd5b8860208260051b8501011115612b1357600080fd5b6020830195508094505050506040850135612b2d81613163565b939692955090935050565b600060208284031215612b4a57600080fd5b81516001600160401b0380821115612b6157600080fd5b9083019060c08286031215612b7557600080fd5b612b7d612fb5565b612b86836126e5565b8152602083015182811115612b9a57600080fd5b612ba6878286016126f5565b6020830152506040830151604082015260608301516060820152608083015182811115612bd257600080fd5b612bde8782860161267c565b60808301525060a083015182811115612bf657600080fd5b612c028782860161267c565b60a08301525095945050505050565b600060208284031215612c2357600080fd5b5035919050565b600081518084526020808501945080840160005b83811015612c635781516001600160a01b031687529582019590820190600101612c3e565b509495945050505050565b60008151808452612c86816020860160208601613086565b601f01601f19169290920160200192915050565b6001600160a01b0391909116815260200190565b60006040820160018060a01b03808616845260206040818601528286548085526060870191508760005282600020945060005b81811015612cff578554851683526001958601959284019201612ce1565b509098975050505050505050565b6020808252825182820181905260009190848201906040850190845b81811015612d4557835183529284019291840191600101612d29565b50909695505050505050565b918252602082015260400190565b6020808252600490820152634543312d60e01b604082015260600190565b602080825260059082015264454331392d60d81b604082015260600190565b602080825260059082015264454333312d60d81b604082015260600190565b602080825260059082015264454331372d60d81b604082015260600190565b6020808252602e908201527f496e697469616c697a61626c653a20636f6e747261637420697320616c72656160408201526d191e481a5b9a5d1a585b1a5e995960921b606082015260800190565b6020808252600490820152634543392d60e01b604082015260600190565b6020808252600490820152634543352d60e01b604082015260600190565b602081528151151560208201526000602083015160c06040840152612e8c60e0840182612c6e565b905060408401516060840152606084015160808401526080840151601f19808584030160a0860152612ebe8383612c2a565b925060a08601519150808584030160c086015250612edc8282612c2a565b95945050505050565b6060815283516060820152600060208086015160a06080850152612f0d610100850182612c6e565b9050604087015160a08501526060870151605f19808684030160c0870152612f358383612c6e565b60808a015187820390920160e088015281518082529185019350600092508401905b80831015612f775783518252928401926001929092019190840190612f57565b5092850187905250506001600160a01b0384166040840152905061146d565b838152826020820152606060408201526000612edc6060830184612c2a565b60405160c081016001600160401b0381118282101715612fd757612fd7613138565b60405290565b604051601f8201601f191681016001600160401b038111828210171561300557613005613138565b604052919050565b60006001600160401b0382111561302657613026613138565b5060051b60200190565b60006001600160401b0382111561304957613049613138565b50601f01601f191660200190565b6000821982111561306a5761306a61310c565b500190565b6000828210156130815761308161310c565b500390565b60005b838110156130a1578181015183820152602001613089565b838111156130b0576000848401525b50505050565b600181811c908216806130ca57607f821691505b602082108114156130eb57634e487b7160e01b600052602260045260246000fd5b50919050565b60006000198214156131055761310561310c565b5060010190565b634e487b7160e01b600052601160045260246000fd5b634e487b7160e01b600052603260045260246000fd5b634e487b7160e01b600052604160045260246000fd5b6001600160a01b038116811461051257600080fd5b801515811461051257600080fdfea2646970667358221220d59902f0ad79373e3101a1aaf98784797c58cacb789f8a203e187286684278df64736f6c63430008070033",
  "immutableReferences": {},
  "source": "// SPDX-License-Identifier: GPL-3.0\r\n\r\npragma solidity 0.8.7;\r\n\r\n/*\r\n  Private Certificate Pools offer the default MultiSig Certificate Pool functionality\r\n */\r\n\r\n import \"../Abstract/MultiSigCertificatesPool.sol\";\r\n\r\n contract PrivateCertificatesPool is MultiSigCertificatesPool {\r\n\r\n    // CONSTRUCTOR & INIT /////////////////////////////////////////\r\n    function PrivateCertPool_init(address[] memory owners,  uint256 minOwners) public initializer \r\n    {\r\n      super.MultiSigCertPool_init(owners, minOwners);\r\n    }\r\n\r\n  }",
  "sourcePath": "C:/Users/d-aam/GitHub/Certificates/contracts/DeployedContracts/PrivateCertificatesPool.sol",
  "compiler": {
    "name": "solc",
    "version": "0.8.7+commit.e28d00a7.Emscripten.clang"
  },
  "schemaVersion": "3.3.4",
  "updatedAt": "2021-09-14T07:37:09.897Z",
  "devdoc": {
    "kind": "dev",
    "methods": {},
    "version": 1
  },
  "userdoc": {
    "kind": "user",
    "methods": {},
    "version": 1
  }
}