{
  "contractName": "PrivateCertificatesPool",
  "abi": [
    {
      "anonymous": false,
      "inputs": [
        {
          "indexed": true,
          "internalType": "address",
          "name": "Provider",
          "type": "address"
        },
        {
          "indexed": true,
          "internalType": "address",
          "name": "Holder",
          "type": "address"
        },
        {
          "indexed": false,
          "internalType": "bytes32",
          "name": "Certificate",
          "type": "bytes32"
        }
      ],
      "name": "_AddCertificate",
      "type": "event"
    },
    {
      "anonymous": false,
      "inputs": [
        {
          "indexed": false,
          "internalType": "string",
          "name": "ItemType",
          "type": "string"
        },
        {
          "indexed": true,
          "internalType": "bytes32",
          "name": "Item",
          "type": "bytes32"
        },
        {
          "indexed": false,
          "internalType": "string",
          "name": "Info",
          "type": "string"
        }
      ],
      "name": "_AddItemRejection",
      "type": "event"
    },
    {
      "anonymous": false,
      "inputs": [
        {
          "indexed": false,
          "internalType": "string",
          "name": "ItemType",
          "type": "string"
        },
        {
          "indexed": true,
          "internalType": "bytes32",
          "name": "Item",
          "type": "bytes32"
        },
        {
          "indexed": false,
          "internalType": "string",
          "name": "Info",
          "type": "string"
        }
      ],
      "name": "_AddItemValidation",
      "type": "event"
    },
    {
      "anonymous": false,
      "inputs": [
        {
          "indexed": false,
          "internalType": "string",
          "name": "ENSName",
          "type": "string"
        },
        {
          "indexed": false,
          "internalType": "bytes32",
          "name": "node",
          "type": "bytes32"
        },
        {
          "indexed": false,
          "internalType": "address",
          "name": "addr",
          "type": "address"
        }
      ],
      "name": "_NewReverseENSCreated",
      "type": "event"
    },
    {
      "anonymous": false,
      "inputs": [
        {
          "indexed": false,
          "internalType": "string",
          "name": "ItemType",
          "type": "string"
        },
        {
          "indexed": true,
          "internalType": "bytes32",
          "name": "Item",
          "type": "bytes32"
        },
        {
          "indexed": false,
          "internalType": "string",
          "name": "Info",
          "type": "string"
        }
      ],
      "name": "_RemoveItemRejection",
      "type": "event"
    },
    {
      "anonymous": false,
      "inputs": [
        {
          "indexed": false,
          "internalType": "string",
          "name": "ItemType",
          "type": "string"
        },
        {
          "indexed": true,
          "internalType": "bytes32",
          "name": "Item",
          "type": "bytes32"
        },
        {
          "indexed": false,
          "internalType": "string",
          "name": "Info",
          "type": "string"
        }
      ],
      "name": "_RemoveItemValidation",
      "type": "event"
    },
    {
      "anonymous": false,
      "inputs": [
        {
          "indexed": true,
          "internalType": "address",
          "name": "oldHolder",
          "type": "address"
        },
        {
          "indexed": true,
          "internalType": "address",
          "name": "newHolder",
          "type": "address"
        },
        {
          "indexed": false,
          "internalType": "bytes32",
          "name": "Certificate",
          "type": "bytes32"
        }
      ],
      "name": "_TransferCertificate",
      "type": "event"
    },
    {
      "inputs": [
        {
          "internalType": "address[]",
          "name": "owners",
          "type": "address[]"
        },
        {
          "internalType": "uint256",
          "name": "minOwners",
          "type": "uint256"
        },
        {
          "internalType": "string",
          "name": "contractName",
          "type": "string"
        },
        {
          "internalType": "string",
          "name": "contractVersion",
          "type": "string"
        }
      ],
      "name": "MultiSigCertPool_init",
      "outputs": [],
      "stateMutability": "nonpayable",
      "type": "function"
    },
    {
      "inputs": [
        {
          "internalType": "address[]",
          "name": "owners",
          "type": "address[]"
        },
        {
          "internalType": "uint256",
          "name": "minOwners",
          "type": "uint256"
        },
        {
          "internalType": "uint256",
          "name": "TotalEntities",
          "type": "uint256"
        },
        {
          "internalType": "string[]",
          "name": "labels",
          "type": "string[]"
        },
        {
          "internalType": "uint256",
          "name": "ownerId",
          "type": "uint256"
        }
      ],
      "name": "MultiSigContract_init",
      "outputs": [],
      "stateMutability": "nonpayable",
      "type": "function"
    },
    {
      "inputs": [
        {
          "internalType": "bytes32",
          "name": "CertificateHash",
          "type": "bytes32"
        },
        {
          "internalType": "address",
          "name": "holder",
          "type": "address"
        }
      ],
      "name": "addCertificate",
      "outputs": [],
      "stateMutability": "payable",
      "type": "function"
    },
    {
      "inputs": [
        {
          "internalType": "address",
          "name": "provider",
          "type": "address"
        },
        {
          "internalType": "bytes32",
          "name": "CertificateHash",
          "type": "bytes32"
        },
        {
          "internalType": "address",
          "name": "holder",
          "type": "address"
        },
        {
          "internalType": "uint256",
          "name": "nonce",
          "type": "uint256"
        },
        {
          "internalType": "uint256",
          "name": "deadline",
          "type": "uint256"
        },
        {
          "internalType": "bytes",
          "name": "signature",
          "type": "bytes"
        }
      ],
      "name": "addCertificateOnBehalfOf",
      "outputs": [],
      "stateMutability": "payable",
      "type": "function"
    },
    {
      "inputs": [
        {
          "internalType": "address",
          "name": "owner",
          "type": "address"
        },
        {
          "internalType": "string",
          "name": "ownerInfo",
          "type": "string"
        }
      ],
      "name": "addOwner",
      "outputs": [],
      "stateMutability": "nonpayable",
      "type": "function"
    },
    {
      "inputs": [
        {
          "internalType": "address",
          "name": "provider",
          "type": "address"
        },
        {
          "internalType": "string",
          "name": "providerInfo",
          "type": "string"
        }
      ],
      "name": "addProvider",
      "outputs": [],
      "stateMutability": "payable",
      "type": "function"
    },
    {
      "inputs": [
        {
          "internalType": "uint256",
          "name": "newMinOwners",
          "type": "uint256"
        }
      ],
      "name": "changeMinOwners",
      "outputs": [],
      "stateMutability": "nonpayable",
      "type": "function"
    },
    {
      "inputs": [
        {
          "internalType": "bytes32",
          "name": "item",
          "type": "bytes32"
        },
        {
          "internalType": "uint256[]",
          "name": "ids",
          "type": "uint256[]"
        },
        {
          "internalType": "bool",
          "name": "addOrRemove",
          "type": "bool"
        }
      ],
      "name": "onItemRejected",
      "outputs": [],
      "stateMutability": "nonpayable",
      "type": "function"
    },
    {
      "inputs": [
        {
          "internalType": "bytes32",
          "name": "item",
          "type": "bytes32"
        },
        {
          "internalType": "uint256[]",
          "name": "ids",
          "type": "uint256[]"
        },
        {
          "internalType": "bool",
          "name": "addOrRemove",
          "type": "bool"
        }
      ],
      "name": "onItemValidated",
      "outputs": [],
      "stateMutability": "nonpayable",
      "type": "function"
    },
    {
      "inputs": [],
      "name": "rejectMinOwners",
      "outputs": [],
      "stateMutability": "nonpayable",
      "type": "function"
    },
    {
      "inputs": [
        {
          "internalType": "address",
          "name": "owner",
          "type": "address"
        }
      ],
      "name": "rejectOwner",
      "outputs": [],
      "stateMutability": "nonpayable",
      "type": "function"
    },
    {
      "inputs": [
        {
          "internalType": "address",
          "name": "provider",
          "type": "address"
        }
      ],
      "name": "rejectProvider",
      "outputs": [],
      "stateMutability": "nonpayable",
      "type": "function"
    },
    {
      "inputs": [
        {
          "internalType": "address",
          "name": "owner",
          "type": "address"
        }
      ],
      "name": "removeOwner",
      "outputs": [],
      "stateMutability": "nonpayable",
      "type": "function"
    },
    {
      "inputs": [
        {
          "internalType": "address",
          "name": "provider",
          "type": "address"
        }
      ],
      "name": "removeProvider",
      "outputs": [],
      "stateMutability": "nonpayable",
      "type": "function"
    },
    {
      "inputs": [],
      "name": "retrieveAddCertificatePriceWei",
      "outputs": [
        {
          "internalType": "uint256",
          "name": "",
          "type": "uint256"
        }
      ],
      "stateMutability": "view",
      "type": "function"
    },
    {
      "inputs": [],
      "name": "retrieveAllOwners",
      "outputs": [
        {
          "internalType": "bytes32[]",
          "name": "",
          "type": "bytes32[]"
        }
      ],
      "stateMutability": "view",
      "type": "function"
    },
    {
      "inputs": [],
      "name": "retrieveAllProviders",
      "outputs": [
        {
          "internalType": "bytes32[]",
          "name": "",
          "type": "bytes32[]"
        }
      ],
      "stateMutability": "view",
      "type": "function"
    },
    {
      "inputs": [
        {
          "internalType": "bytes32",
          "name": "CertificateHash",
          "type": "bytes32"
        },
        {
          "internalType": "address",
          "name": "holder",
          "type": "address"
        }
      ],
      "name": "retrieveCertificateProvider",
      "outputs": [
        {
          "internalType": "address",
          "name": "",
          "type": "address"
        }
      ],
      "stateMutability": "view",
      "type": "function"
    },
    {
      "inputs": [
        {
          "internalType": "address",
          "name": "holder",
          "type": "address"
        },
        {
          "internalType": "uint256",
          "name": "skipFirst",
          "type": "uint256"
        },
        {
          "internalType": "uint256",
          "name": "max",
          "type": "uint256"
        }
      ],
      "name": "retrieveCertificatesByHolder",
      "outputs": [
        {
          "internalType": "bytes32[]",
          "name": "",
          "type": "bytes32[]"
        }
      ],
      "stateMutability": "view",
      "type": "function"
    },
    {
      "inputs": [],
      "name": "retrieveContractConfig",
      "outputs": [
        {
          "internalType": "string",
          "name": "",
          "type": "string"
        },
        {
          "internalType": "string",
          "name": "",
          "type": "string"
        }
      ],
      "stateMutability": "view",
      "type": "function"
    },
    {
      "inputs": [],
      "name": "retrieveMinOwners",
      "outputs": [
        {
          "internalType": "uint256",
          "name": "",
          "type": "uint256"
        }
      ],
      "stateMutability": "view",
      "type": "function"
    },
    {
      "inputs": [
        {
          "internalType": "address",
          "name": "addr",
          "type": "address"
        },
        {
          "internalType": "uint256",
          "name": "nonce",
          "type": "uint256"
        }
      ],
      "name": "retrieveNonce",
      "outputs": [
        {
          "internalType": "bool",
          "name": "",
          "type": "bool"
        }
      ],
      "stateMutability": "view",
      "type": "function"
    },
    {
      "inputs": [
        {
          "internalType": "address",
          "name": "owner",
          "type": "address"
        }
      ],
      "name": "retrieveOwner",
      "outputs": [
        {
          "components": [
            {
              "internalType": "string",
              "name": "_Info",
              "type": "string"
            },
            {
              "internalType": "bool",
              "name": "_activated",
              "type": "bool"
            },
            {
              "internalType": "uint256",
              "name": "_id",
              "type": "uint256"
            },
            {
              "internalType": "uint256",
              "name": "_pendingId",
              "type": "uint256"
            },
            {
              "internalType": "address[]",
              "name": "_Validations",
              "type": "address[]"
            },
            {
              "internalType": "address[]",
              "name": "_Rejections",
              "type": "address[]"
            }
          ],
          "internalType": "struct ItemsLibrary._itemIdentity",
          "name": "",
          "type": "tuple"
        }
      ],
      "stateMutability": "view",
      "type": "function"
    },
    {
      "inputs": [],
      "name": "retrievePendingMinOwners",
      "outputs": [
        {
          "internalType": "uint256",
          "name": "",
          "type": "uint256"
        }
      ],
      "stateMutability": "view",
      "type": "function"
    },
    {
      "inputs": [],
      "name": "retrievePendingMinOwnersStatus",
      "outputs": [
        {
          "internalType": "uint256",
          "name": "",
          "type": "uint256"
        },
        {
          "internalType": "uint256",
          "name": "",
          "type": "uint256"
        },
        {
          "internalType": "address[]",
          "name": "",
          "type": "address[]"
        }
      ],
      "stateMutability": "view",
      "type": "function"
    },
    {
      "inputs": [
        {
          "internalType": "bool",
          "name": "addedORremove",
          "type": "bool"
        }
      ],
      "name": "retrievePendingOwners",
      "outputs": [
        {
          "internalType": "bytes32[]",
          "name": "",
          "type": "bytes32[]"
        }
      ],
      "stateMutability": "view",
      "type": "function"
    },
    {
      "inputs": [
        {
          "internalType": "bool",
          "name": "addedORremove",
          "type": "bool"
        }
      ],
      "name": "retrievePendingProviders",
      "outputs": [
        {
          "internalType": "bytes32[]",
          "name": "",
          "type": "bytes32[]"
        }
      ],
      "stateMutability": "view",
      "type": "function"
    },
    {
      "inputs": [
        {
          "internalType": "address",
          "name": "provider",
          "type": "address"
        }
      ],
      "name": "retrieveProvider",
      "outputs": [
        {
          "components": [
            {
              "internalType": "string",
              "name": "_Info",
              "type": "string"
            },
            {
              "internalType": "bool",
              "name": "_activated",
              "type": "bool"
            },
            {
              "internalType": "uint256",
              "name": "_id",
              "type": "uint256"
            },
            {
              "internalType": "uint256",
              "name": "_pendingId",
              "type": "uint256"
            },
            {
              "internalType": "address[]",
              "name": "_Validations",
              "type": "address[]"
            },
            {
              "internalType": "address[]",
              "name": "_Rejections",
              "type": "address[]"
            }
          ],
          "internalType": "struct ItemsLibrary._itemIdentity",
          "name": "",
          "type": "tuple"
        }
      ],
      "stateMutability": "view",
      "type": "function"
    },
    {
      "inputs": [],
      "name": "retrieveSubscriptionPriceWei",
      "outputs": [
        {
          "internalType": "uint256",
          "name": "",
          "type": "uint256"
        }
      ],
      "stateMutability": "view",
      "type": "function"
    },
    {
      "inputs": [
        {
          "internalType": "address",
          "name": "holder",
          "type": "address"
        }
      ],
      "name": "retrieveTotalCertificatesByHolder",
      "outputs": [
        {
          "internalType": "uint256",
          "name": "",
          "type": "uint256"
        }
      ],
      "stateMutability": "view",
      "type": "function"
    },
    {
      "inputs": [
        {
          "internalType": "bytes32",
          "name": "CertificateHash",
          "type": "bytes32"
        },
        {
          "internalType": "address",
          "name": "newHolder",
          "type": "address"
        }
      ],
      "name": "transferCertificate",
      "outputs": [],
      "stateMutability": "nonpayable",
      "type": "function"
    },
    {
      "inputs": [],
      "name": "validateMinOwners",
      "outputs": [],
      "stateMutability": "nonpayable",
      "type": "function"
    },
    {
      "inputs": [
        {
          "internalType": "address",
          "name": "owner",
          "type": "address"
        }
      ],
      "name": "validateOwner",
      "outputs": [],
      "stateMutability": "nonpayable",
      "type": "function"
    },
    {
      "inputs": [
        {
          "internalType": "address",
          "name": "provider",
          "type": "address"
        }
      ],
      "name": "validateProvider",
      "outputs": [],
      "stateMutability": "nonpayable",
      "type": "function"
    },
    {
      "inputs": [
        {
          "internalType": "address[]",
          "name": "owners",
          "type": "address[]"
        },
        {
          "internalType": "uint256",
          "name": "minOwners",
          "type": "uint256"
        },
        {
          "internalType": "string",
          "name": "contractName",
          "type": "string"
        },
        {
          "internalType": "string",
          "name": "contractVersion",
          "type": "string"
        },
        {
          "internalType": "string",
          "name": "ENSName",
          "type": "string"
        },
        {
          "internalType": "address",
          "name": "ReverseRegistryAddress",
          "type": "address"
        }
      ],
      "name": "PrivateCertPool_init",
      "outputs": [],
      "stateMutability": "nonpayable",
      "type": "function"
    }
  ],
  "bytecode": "0x608060405234801561001057600080fd5b50613833806100206000396000f3fe6080604052600436106101935760003560e01c8062070d19146101985780630b4c72a9146101ba578063173825d9146101da5780631ab807f8146101fa578063253ad5ae1461020d57806327a40b4b1461022d5780632edbe7fc1461024d57806330ade922146102715780633542758f1461028657806337583499146102a65780633fd07181146102d35780633feca4ca146102f35780634774779d1461034957806357e7ea2e146103495780635888ebb31461035d57806358a1ba251461038157806365b973e5146103ae5780636825b263146103c35780636b299604146103e35780636b3a0fec146104035780636e4f9179146104235780636e55d2d41461043857806376f8f90f1461045857806377bc5a1f146104785780637c8c2add146102d35780638a355a57146104985780638b9be256146104b8578063a93d5ed6146104cb578063c3079ae7146104e0578063c66433ea146104f5578063ce33d58a14610515578063cf2041d914610535578063d0a4adfe14610555578063d2116a02146105a8578063fc000500146105cb575b600080fd5b3480156101a457600080fd5b506101b86101b3366004612d79565b6105de565b005b3480156101c657600080fd5b506101b86101d5366004612b55565b610676565b3480156101e657600080fd5b506101b86101f5366004612b55565b610684565b6101b861020836600461301b565b6106ba565b34801561021957600080fd5b506101b861022836600461301b565b6106c9565b34801561023957600080fd5b506101b8610248366004612b55565b610912565b34801561025957600080fd5b506008545b6040519081526020015b60405180910390f35b34801561027d57600080fd5b506101b861091d565b34801561029257600080fd5b506101b86102a1366004612c03565b610946565b3480156102b257600080fd5b506102c66102c1366004612b55565b610954565b60405161026891906134fd565b3480156102df57600080fd5b506101b86102ee36600461304b565b61096d565b3480156102ff57600080fd5b5061033961030e366004612c87565b6001600160a01b03919091166000908152600260209081526040808320938352929052205460ff1690565b6040519015158152602001610268565b34801561035557600080fd5b50600061025e565b34801561036957600080fd5b506103726109e3565b60405161026893929190613626565b34801561038d57600080fd5b506103a161039c366004612cb3565b610a57565b60405161026891906133ca565b3480156103ba57600080fd5b5060045461025e565b3480156103cf57600080fd5b506101b86103de366004612ce8565b610bfd565b3480156103ef57600080fd5b506103a16103fe366004612fc8565b610e39565b34801561040f57600080fd5b506103a161041e366004612fc8565b610e47565b34801561042f57600080fd5b506103a1610e54565b34801561044457600080fd5b5061025e610453366004612b55565b610e65565b34801561046457600080fd5b506101b8610473366004612b55565b610e83565b34801561048457600080fd5b506102c6610493366004612b55565b610ede565b3480156104a457600080fd5b506101b86104b3366004612b55565b610ef2565b6101b86104c6366004612b72565b610efd565b3480156104d757600080fd5b506103a1610f1e565b3480156104ec57600080fd5b506101b8610f2b565b34801561050157600080fd5b506101b86105103660046131b5565b610f54565b34801561052157600080fd5b506101b8610530366004612b55565b610fba565b34801561054157600080fd5b506101b8610550366004612e3e565b610fc6565b34801561056157600080fd5b5061059b61057036600461301b565b6001600160a01b039081166000908152600d6020908152604080832094835293905291909120541690565b60405161026891906132de565b3480156105b457600080fd5b506105bd61124c565b604051610268929190613462565b6101b86105d9366004612c03565b611373565b600754610100900460ff16806105f7575060075460ff16155b61061c5760405162461bcd60e51b8152600401610613906134af565b60405180910390fd5b600754610100900460ff1615801561063e576007805461ffff19166101011790555b61064a87878787610bfd565b82511561065b5761065b8383611380565b801561066d576007805461ff00191690555b50505050505050565b610681816001611446565b50565b6004546001610694600354611555565b5161069f91906136ff565b6106a9828261167b565b6106b58360035461169b565b505050565b6106c5338383611773565b5050565b336000818152600d6020908152604080832086845290915290205483906001600160a01b03166107235760405162461bcd60e51b8152602060048201526005602482015264454331362d60d81b6044820152606401610613565b6001600160a01b038084166000908152600d602090815260408083208884529091529020541661077c57336000908152600d6020908152604080832087845290915290205461077c906001600160a01b03168585611877565b6001600160a01b038084166000908152600d602081815260408084208985528252808420543385529282528084208985529091529091205482169116141561090c57336000818152600d602081815260408084208985528083528185206001808201805483546001600160a01b031916909355879055969095529290915251637277ce1960e11b8152919273__Library_______________________________9263e4ef9c329261083492869291019060040161340e565b60006040518083038186803b15801561084c57600080fd5b505af4158015610860573d6000803e3d6000fd5b5050336000908152600d602052604090206001015483101591506108ca905057336000908152600d6020526040812060018101805484939190849081106108a9576108a96137ae565b90600052602060002001548152602001908152602001600020600101819055505b6040518581526001600160a01b0385169033907f2f721f6467540d120069c1842568b578382bd1743fab48cb9893890ae1646a8b9060200160405180910390a3505b50505050565b610681816001611908565b33610927816119de565b600161093281611a24565b3361093c81611a99565b6106b56001611b59565b6106b5838383600354611be0565b61095c612819565b610967826001611d19565b92915050565b6040516337ea306360e01b815233600482018190523060248301819052909173__Library_______________________________906337ea30639060440160006040518083038186803b1580156109c357600080fd5b505af41580156109d7573d6000803e3d6000fd5b50505050505050505050565b6000806060600954600a54600b80805480602002602001604051908101604052809291908181526020018280548015610a4557602002820191906000526020600020905b81546001600160a01b03168152600190910190602001808311610a27575b50505050509050925092509250909192565b606082610a6385610e65565b11610a7d5750604080516000815260208101909152610bf6565b818084610a8987610e65565b610a9391906136ff565b1015610ab05783610aa386610e65565b610aad91906136ff565b90505b6000816001600160401b03811115610aca57610aca6137c4565b604051908082528060200260200182016040528015610af3578160200160208202803683370190505b506001600160a01b0387166000908152600d6020908152604080832060010180548251818502810185019093528083529495509293909291830182828015610b5a57602002820191906000526020600020905b815481526020019060010190808311610b46575b5050505050905060008060005b8351811015610bed57878310610b7c57610bed565b81891115610b9657610b8f6001836136e7565b9150610bdb565b838181518110610ba857610ba86137ae565b6020026020010151858481518110610bc257610bc26137ae565b6020908102919091010152610bd86001846136e7565b92505b80610be58161377d565b915050610b67565b50929450505050505b9392505050565b600754610100900460ff1680610c16575060075460ff16155b610c325760405162461bcd60e51b8152600401610613906134af565b600754610100900460ff16158015610c54576007805461ffff19166101011790555b6040805160028082526060820190925290816020015b6060815260200190600190039081610c6a5750508051610c9291600c91602090910190612851565b506040518060400160405280600581526020016427bbb732b960d91b815250600c600081548110610cc557610cc56137ae565b906000526020600020019080519060200190610ce29291906128ae565b5060405180604001604052806008815260200167283937bb34b232b960c11b815250600c600181548110610d1857610d186137ae565b906000526020600020019080519060200190610d359291906128ae565b50610d408383611ed3565b610e2085856002600c805480602002602001604051908101604052809291908181526020016000905b82821015610e15578382906000526020600020018054610d8890613742565b80601f0160208091040260200160405190810160405280929190818152602001828054610db490613742565b8015610e015780601f10610dd657610100808354040283529160200191610e01565b820191906000526020600020905b815481529060010190602001808311610de457829003601f168201915b505050505081526020019060010190610d69565b505050506000610fc6565b8015610e32576007805461ff00191690555b5050505050565b606061096782600354611efa565b6060610967826001611efa565b6060610e606001611555565b905090565b6001600160a01b03166000908152600d602052604090206001015490565b610e8f81600354612025565b151560011415610ed2576001610ea6600354611555565b51610eb191906136ff565b6004541115610ed25760405162461bcd60e51b815260040161061390613490565b61068181600354611908565b610ee6612819565b61096782600354611d19565b61068181600161169b565b610f0b8686868686866121cb565b610f16868686611773565b505050505050565b6060610e60600354611555565b33610f35816119de565b6001610f4081611a24565b33610f4a81611a99565b6106b56000611b59565b33610f5e816119de565b6000610f6981611a24565b82600560035481548110610f7f57610f7f6137ae565b906000526020600020906004020160010180549050610f9e828261167b565b600185610fab828261167b565b600887905561066d6001611b59565b61068181600354611446565b600754610100900460ff1680610fdf575060075460ff16155b610ffb5760405162461bcd60e51b8152600401610613906134af565b600754610100900460ff1615801561101d576007805461ffff19166101011790555b84865161102a828261167b565b600187611037828261167b565b8651881461106f5760405162461bcd60e51b8152602060048201526005602482015264454331382d60d81b6044820152606401610613565b600386905560005b888110156110e75760058054600101815560005287516006908990839081106110a2576110a26137ae565b602090810291909101810151825460018101845560009384529282902081516110d494919091019291909101906128ae565b50806110df8161377d565b915050611077565b50600489905560005b8a5181101561122e57600073__AddressLibrary________________________63bc215e858d8481518110611127576111276137ae565b60200260200101516040518263ffffffff1660e01b815260040161114b91906132de565b60206040518083038186803b15801561116357600080fd5b505af4158015611177573d6000803e3d6000fd5b505050506040513d601f19601f8201168201806040525081019061119b9190613002565b905060016005600354815481106111b4576111b46137ae565b60009182526020808320858452600492909202909101905260409020600101805460ff19169115159190911790556003546005805490919081106111fa576111fa6137ae565b60009182526020808320600160049093020182018054928301815583529091200155806112268161377d565b9150506110f0565b50505050508015610f16576007805461ff0019169055505050505050565b6060806000600181805461125f90613742565b80601f016020809104026020016040519081016040528092919081815260200182805461128b90613742565b80156112d85780601f106112ad576101008083540402835291602001916112d8565b820191906000526020600020905b8154815290600101906020018083116112bb57829003601f168201915b505050505091508080546112eb90613742565b80601f016020809104026020016040519081016040528092919081815260200182805461131790613742565b80156113645780601f1061133957610100808354040283529160200191611364565b820191906000526020600020905b81548152906001019060200180831161134757829003601f168201915b50505050509050915091509091565b6106b58383836001611be0565b60405163c47f002760e01b815281906000906001600160a01b0383169063c47f0027906113b190879060040161341c565b602060405180830381600087803b1580156113cb57600080fd5b505af11580156113df573d6000803e3d6000fd5b505050506040513d601f19601f820116820180604052508101906114039190613002565b90507f33ef81cad1e96e7a08670293e5ef94b9d7f3b8799292751c76914bc8c1270ca48482306040516114389392919061342f565b60405180910390a150505050565b60055460405163123bd07560e11b815282919073__Library_______________________________90632477a0ea90611485908590859060040161340e565b60006040518083038186803b15801561149d57600080fd5b505af41580156114b1573d6000803e3d6000fd5b50505050336114bf816119de565b6000806114dc8760405180602001604052806000815250886122f1565b604051635cb09bcf60e01b8152919350915073__ItemsLibrary__________________________90635cb09bcf9061151c90859085903090600401613575565b60006040518083038186803b15801561153457600080fd5b505af4158015611548573d6000803e3d6000fd5b5050505050505050505050565b60055460405163123bd07560e11b8152606091839173__Library_______________________________90632477a0ea90611596908590859060040161340e565b60006040518083038186803b1580156115ae57600080fd5b505af41580156115c2573d6000803e3d6000fd5b5050505073__ItemsLibrary__________________________6327724f4b600586815481106115f3576115f36137ae565b90600052602060002090600402016040518263ffffffff1660e01b815260040161161f91815260200190565b60006040518083038186803b15801561163757600080fd5b505af415801561164b573d6000803e3d6000fd5b505050506040513d6000823e601f3d908101601f191682016040526116739190810190612f31565b949350505050565b808211156106c55760405162461bcd60e51b815260040161061390613490565b60055460405163123bd07560e11b815282919073__Library_______________________________90632477a0ea906116da908590859060040161340e565b60006040518083038186803b1580156116f257600080fd5b505af4158015611706573d6000803e3d6000fd5b5050505033611714816119de565b6000806117318760405180602001604052806000815250886122f1565b60405163e23fcdef60e01b8152919350915073__ItemsLibrary__________________________9063e23fcdef9061151c90859085903090600401613575565b565b8261177d816124fd565b15156001146117b65760405162461bcd60e51b8152602060048201526005602482015264454331322d60d81b6044820152606401610613565b826001600160a01b038084166000908152600d602090815260408083208884529091529020548491869116156118165760405162461bcd60e51b8152602060048201526005602482015264454331352d60d81b6044820152606401610613565b611821878787611877565b846001600160a01b0316876001600160a01b03167ff55a90628981610edc26894247bee72e1963d1c9faa4ea6533fd3df39fd36ed48860405161186691815260200190565b60405180910390a350505050505050565b6001600160a01b038181166000818152600d6020818152604080842088855280835290842080546001600160a01b031916968a1696909617909555908152600193840180548086018255818452918320909101869055919052546118db91906136ff565b6001600160a01b039091166000908152600d60209081526040808320948352939052919091206001015550565b60055460405163123bd07560e11b815282919073__Library_______________________________90632477a0ea90611947908590859060040161340e565b60006040518083038186803b15801561195f57600080fd5b505af4158015611973573d6000803e3d6000fd5b5050505033611981816119de565b60008061199e8760405180602001604052806000815250886122f1565b604051637493a70b60e01b8152919350915073__ItemsLibrary__________________________90637493a70b9061151c90859085903090600401613575565b6119ea81600354612506565b15156001146106815760405162461bcd60e51b8152600401610613906020808252600490820152634543392d60e01b604082015260600190565b8015611a61576008546106815760405162461bcd60e51b8152602060048201526005602482015264454333312d60d81b6044820152606401610613565b600854156106815760405162461bcd60e51b8152602060048201526005602482015264454333302d60d81b6044820152606401610613565b60405163f7cf62d760e01b815273__AddressLibrary________________________9063f7cf62d790611ad3908490600b906004016132f2565b60206040518083038186803b158015611aeb57600080fd5b505af4158015611aff573d6000803e3d6000fd5b505050506040513d601f19601f82011682018060405250810190611b239190612fe5565b156106815760405162461bcd60e51b8152600401610613906020808252600490820152634543352d60e01b604082015260600190565b8015611b7d57600160096000828254611b7291906136e7565b90915550611b969050565b6001600a6000828254611b9091906136e7565b90915550505b600b80546001810182556000919091527f0175b7a638427703f0dbe7bb9bbf987a2551717b34e79f33b5b1008d1fa01db90180546001600160a01b03191633179055610681612631565b60055460405163123bd07560e11b815282919073__Library_______________________________90632477a0ea90611c1f908590859060040161340e565b60006040518083038186803b158015611c3757600080fd5b505af4158015611c4b573d6000803e3d6000fd5b5050505033611c59816119de565b600080611c9e8989898080601f0160208091040260200160405190810160405280939291908181526020018383808284376000920191909152508b92506122f1915050565b6040516305cc2d5560e11b8152919350915073__ItemsLibrary__________________________90630b985aaa90611cde90859085903090600401613575565b60006040518083038186803b158015611cf657600080fd5b505af4158015611d0a573d6000803e3d6000fd5b50505050505050505050505050565b611d21612819565b60055460405163123bd07560e11b815283919073__Library_______________________________90632477a0ea90611d60908590859060040161340e565b60006040518083038186803b158015611d7857600080fd5b505af4158015611d8c573d6000803e3d6000fd5b505060405163bc215e8560e01b81526000925073__AddressLibrary________________________915063bc215e8590611dca9089906004016132de565b60206040518083038186803b158015611de257600080fd5b505af4158015611df6573d6000803e3d6000fd5b505050506040513d601f19601f82011682018060405250810190611e1a9190613002565b905073__ItemsLibrary__________________________631aeccc6a8260058881548110611e4a57611e4a6137ae565b90600052602060002090600402016040518363ffffffff1660e01b8152600401611e7592919061340e565b60006040518083038186803b158015611e8d57600080fd5b505af4158015611ea1573d6000803e3d6000fd5b505050506040513d6000823e601f3d908101601f19168201604052611ec991908101906130dc565b9695505050505050565b8151611ee69060009060208501906128ae565b5080516106b59060019060208401906128ae565b60055460405163123bd07560e11b8152606091839173__Library_______________________________90632477a0ea90611f3b908590859060040161340e565b60006040518083038186803b158015611f5357600080fd5b505af4158015611f67573d6000803e3d6000fd5b50505050606073__ItemsLibrary__________________________63e035e0068760058881548110611f9b57611f9b6137ae565b90600052602060002090600402016040518363ffffffff1660e01b8152600401611fd19291909115158252602082015260400190565b60006040518083038186803b158015611fe957600080fd5b505af4158015611ffd573d6000803e3d6000fd5b505050506040513d6000823e601f3d908101601f19168201604052611ec99190810190612f31565b60055460405163123bd07560e11b8152600091839173__Library_______________________________90632477a0ea90612066908590859060040161340e565b60006040518083038186803b15801561207e57600080fd5b505af4158015612092573d6000803e3d6000fd5b505060405163bc215e8560e01b81526000925073__AddressLibrary________________________915063bc215e85906120d09089906004016132de565b60206040518083038186803b1580156120e857600080fd5b505af41580156120fc573d6000803e3d6000fd5b505050506040513d601f19601f820116820180604052508101906121209190613002565b905073__ItemsLibrary__________________________632854ed2e8260058881548110612150576121506137ae565b90600052602060002090600402016040518363ffffffff1660e01b815260040161217b92919061340e565b60206040518083038186803b15801561219357600080fd5b505af41580156121a7573d6000803e3d6000fd5b505050506040513d601f19601f82011682018060405250810190611ec99190612fe5565b816121d581612769565b86846121e182826127a0565b60405163c1bc5c3f60e01b815273__SignatureLibrary______________________9063c1bc5c3f90612228908c908c908c908c908c908c90600090600190600401613351565b60206040518083038186803b15801561224057600080fd5b505af4158015612254573d6000803e3d6000fd5b505050506040513d601f19601f820116820180604052508101906122789190612fe5565b15156001146122b15760405162461bcd60e51b8152602060048201526005602482015264454333322d60d81b6044820152606401610613565b6122e689876001600160a01b03909116600090815260026020908152604080832093835292905220805460ff19166001179055565b505050505050505050565b6123266040518060a0016040528060008019168152602001606081526020016000815260200160608152602001606081525090565b60008073__AddressLibrary________________________63bc215e85876040518263ffffffff1660e01b815260040161236091906132de565b60206040518083038186803b15801561237857600080fd5b505af415801561238c573d6000803e3d6000fd5b505050506040513d601f19601f820116820180604052508101906123b09190613002565b604080516001808252818301909252919250600091906020808301908036833701905050905084816000815181106123ea576123ea6137ae565b60200260200101818152505060006040518060a0016040528084815260200188815260200160045481526020016006888154811061242a5761242a6137ae565b90600052602060002001805461243f90613742565b80601f016020809104026020016040519081016040528092919081815260200182805461246b90613742565b80156124b85780601f1061248d576101008083540402835291602001916124b8565b820191906000526020600020905b81548152906001019060200180831161249b57829003601f168201915b505050505081526020018381525090506000600587815481106124dd576124dd6137ae565b600091825260209091209296506004029091019350505050935093915050565b60006109678260015b60055460405163123bd07560e11b8152600091839173__Library_______________________________90632477a0ea90612547908590859060040161340e565b60006040518083038186803b15801561255f57600080fd5b505af4158015612573573d6000803e3d6000fd5b505060405163bc215e8560e01b81526000925073__AddressLibrary________________________915063bc215e85906125b19089906004016132de565b60206040518083038186803b1580156125c957600080fd5b505af41580156125dd573d6000803e3d6000fd5b505050506040513d601f19601f820116820180604052508101906126019190613002565b905073__ItemsLibrary__________________________63dbdfbeec8260058881548110612150576121506137ae565b6009546004805460405163f6001d7d60e01b815273__ItemsLibrary__________________________9363f6001d7d9361266d9391920161340e565b60206040518083038186803b15801561268557600080fd5b505af4158015612699573d6000803e3d6000fd5b505050506040513d601f19601f820116820180604052508101906126bd9190612fe5565b156126d0576008546004556117716127fc565b600a546004805460405163f6001d7d60e01b815273__ItemsLibrary__________________________9363f6001d7d9361270c9391920161340e565b60206040518083038186803b15801561272457600080fd5b505af4158015612738573d6000803e3d6000fd5b505050506040513d601f19601f8201168201806040525081019061275c9190612fe5565b15611771576117716127fc565b8042106106815760405162461bcd60e51b8152602060048201526005602482015264454333332d60d81b6044820152606401610613565b6001600160a01b038216600090815260026020908152604080832084845290915290205460ff16156106c55760405162461bcd60e51b8152602060048201526005602482015264454333342d60d81b6044820152606401610613565b600060088190556009819055600a81905561177190600b9061292e565b6040518060c0016040528060608152602001600015158152602001600081526020016000815260200160608152602001606081525090565b82805482825590600052602060002090810192821561289e579160200282015b8281111561289e578251805161288e9184916020909101906128ae565b5091602001919060010190612871565b506128aa92915061294c565b5090565b8280546128ba90613742565b90600052602060002090601f0160209004810192826128dc5760008555612922565b82601f106128f557805160ff1916838001178555612922565b82800160010185558215612922579182015b82811115612922578251825591602001919060010190612907565b506128aa929150612969565b50805460008255906000526020600020908101906106819190612969565b808211156128aa576000612960828261297e565b5060010161294c565b5b808211156128aa576000815560010161296a565b50805461298a90613742565b6000825580601f1061299a575050565b601f0160209004906000526020600020908101906106819190612969565b60006129cb6129c6846136c0565b61366d565b90508281528383830111156129df57600080fd5b828260208301376000602084830101529392505050565b8035612a01816137da565b919050565b600082601f830112612a1757600080fd5b81356020612a276129c68361369d565b80838252828201915082860187848660051b8901011115612a4757600080fd5b60005b85811015612a6f578135612a5d816137da565b84529284019290840190600101612a4a565b5090979650505050505050565b600082601f830112612a8d57600080fd5b81516020612a9d6129c68361369d565b80838252828201915082860187848660051b8901011115612abd57600080fd5b60005b85811015612a6f578151612ad3816137da565b84529284019290840190600101612ac0565b8051612a01816137ef565b600082601f830112612b0157600080fd5b610bf6838335602085016129b8565b600082601f830112612b2157600080fd5b8151612b2f6129c6826136c0565b818152846020838601011115612b4457600080fd5b611673826020830160208701613716565b600060208284031215612b6757600080fd5b8135610bf6816137da565b60008060008060008060c08789031215612b8b57600080fd5b8635612b96816137da565b9550602087013594506040870135612bad816137da565b9350606087013592506080870135915060a08701356001600160401b03811115612bd657600080fd5b8701601f81018913612be757600080fd5b612bf6898235602084016129b8565b9150509295509295509295565b600080600060408486031215612c1857600080fd5b8335612c23816137da565b925060208401356001600160401b0380821115612c3f57600080fd5b818601915086601f830112612c5357600080fd5b813581811115612c6257600080fd5b876020828501011115612c7457600080fd5b6020830194508093505050509250925092565b60008060408385031215612c9a57600080fd5b8235612ca5816137da565b946020939093013593505050565b600080600060608486031215612cc857600080fd5b8335612cd3816137da565b95602085013595506040909401359392505050565b60008060008060808587031215612cfe57600080fd5b84356001600160401b0380821115612d1557600080fd5b612d2188838901612a06565b9550602087013594506040870135915080821115612d3e57600080fd5b612d4a88838901612af0565b93506060870135915080821115612d6057600080fd5b50612d6d87828801612af0565b91505092959194509250565b60008060008060008060c08789031215612d9257600080fd5b86356001600160401b0380821115612da957600080fd5b612db58a838b01612a06565b9750602089013596506040890135915080821115612dd257600080fd5b612dde8a838b01612af0565b95506060890135915080821115612df457600080fd5b612e008a838b01612af0565b94506080890135915080821115612e1657600080fd5b50612e2389828a01612af0565b925050612e3260a088016129f6565b90509295509295509295565b600080600080600060a08688031215612e5657600080fd5b6001600160401b038635811015612e6c57600080fd5b612e798888358901612a06565b9550602080880135955060408801359450606088013582811115612e9c57600080fd5b8801601f81018a13612ead57600080fd5b8035612ebb6129c68261369d565b8082825284820191508484018d868560051b8701011115612edb57600080fd5b60005b84811015612f15578782351115612ef457600080fd5b612f038f888435890101612af0565b84529286019290860190600101612ede565b5050809750505050505050608086013590509295509295909350565b60006020808385031215612f4457600080fd5b82516001600160401b03811115612f5a57600080fd5b8301601f81018513612f6b57600080fd5b8051612f796129c68261369d565b80828252848201915084840188868560051b8701011115612f9957600080fd5b600094505b83851015612fbc578051835260019490940193918501918501612f9e565b50979650505050505050565b600060208284031215612fda57600080fd5b8135610bf6816137ef565b600060208284031215612ff757600080fd5b8151610bf6816137ef565b60006020828403121561301457600080fd5b5051919050565b6000806040838503121561302e57600080fd5b823591506020830135613040816137da565b809150509250929050565b6000806000806060858703121561306157600080fd5b8435935060208501356001600160401b038082111561307f57600080fd5b818701915087601f83011261309357600080fd5b8135818111156130a257600080fd5b8860208260051b85010111156130b757600080fd5b60208301955080945050505060408501356130d1816137ef565b939692955090935050565b6000602082840312156130ee57600080fd5b81516001600160401b038082111561310557600080fd5b9083019060c0828603121561311957600080fd5b613121613645565b82518281111561313057600080fd5b61313c87828601612b10565b82525061314b60208401612ae5565b6020820152604083015160408201526060830151606082015260808301518281111561317657600080fd5b61318287828601612a7c565b60808301525060a08301518281111561319a57600080fd5b6131a687828601612a7c565b60a08301525095945050505050565b6000602082840312156131c757600080fd5b5035919050565b600081518084526020808501945080840160005b838110156132075781516001600160a01b0316875295820195908201906001016131e2565b509495945050505050565b6000815180845261322a816020860160208601613716565b601f01601f19169290920160200192915050565b8054600090600181811c908083168061325857607f831692505b602080841082141561327a57634e487b7160e01b600052602260045260246000fd5b8388526020880182801561329557600181146132a6576132d1565b60ff198716825282820197506132d1565b60008981526020902060005b878110156132cb578154848201529086019084016132b2565b83019850505b5050505050505092915050565b6001600160a01b0391909116815260200190565b60006040820160018060a01b03808616845260206040818601528286548085526060870191508760005282600020945060005b81811015613343578554851683526001958601959284019201613325565b509098975050505050505050565b6001600160a01b0389811682526020820189905287166040820152606081018690526080810185905261010060a0820181905260009061339383820187613212565b905082810360c08401526133a7818661323e565b905082810360e08401526133bb818561323e565b9b9a5050505050505050505050565b6020808252825182820181905260009190848201906040850190845b81811015613402578351835292840192918401916001016133e6565b50909695505050505050565b918252602082015260400190565b602081526000610bf66020830184613212565b6060815260006134426060830186613212565b6020830194909452506001600160a01b0391909116604090910152919050565b6040815260006134756040830185613212565b82810360208401526134878185613212565b95945050505050565b602080825260059082015264454331392d60d81b604082015260600190565b6020808252602e908201527f496e697469616c697a61626c653a20636f6e747261637420697320616c72656160408201526d191e481a5b9a5d1a585b1a5e995960921b606082015260800190565b602081526000825160c0602084015261351960e0840182613212565b905060208401511515604084015260408401516060840152606084015160808401526080840151601f19808584030160a086015261355783836131ce565b925060a08601519150808584030160c08601525061348782826131ce565b6060815283516060820152600060208086015160a0608085015261359d610100850182613212565b9050604087015160a08501526060870151605f19808684030160c08701526135c58383613212565b60808a015187820390920160e088015281518082529185019350600092508401905b8083101561360757835182529284019260019290920191908401906135e7565b5092850187905250506001600160a01b03841660408401529050611673565b83815282602082015260606040820152600061348760608301846131ce565b60405160c081016001600160401b0381118282101715613667576136676137c4565b60405290565b604051601f8201601f191681016001600160401b0381118282101715613695576136956137c4565b604052919050565b60006001600160401b038211156136b6576136b66137c4565b5060051b60200190565b60006001600160401b038211156136d9576136d96137c4565b50601f01601f191660200190565b600082198211156136fa576136fa613798565b500190565b60008282101561371157613711613798565b500390565b60005b83811015613731578181015183820152602001613719565b8381111561090c5750506000910152565b600181811c9082168061375657607f821691505b6020821081141561377757634e487b7160e01b600052602260045260246000fd5b50919050565b600060001982141561379157613791613798565b5060010190565b634e487b7160e01b600052601160045260246000fd5b634e487b7160e01b600052603260045260246000fd5b634e487b7160e01b600052604160045260246000fd5b6001600160a01b038116811461068157600080fd5b801515811461068157600080fdfea2646970667358221220c684c53c6c99731e0aba0e2ce04e4c62914a1b7bcaad059dc1a297acf4cedf4864736f6c63430008070033",
  "immutableReferences": {},
  "source": "// SPDX-License-Identifier: GPL-3.0\r\n\r\npragma solidity 0.8.7;\r\n\r\n/*\r\n  Private Certificate Pools offer the default MultiSig Certificate Pool functionality\r\n */\r\n\r\n import \"../Abstract/MultiSigCertificatesPool.sol\";\r\n import \"../Base/ReverseRegistryBaseContract.sol\";\r\n\r\n\r\n contract PrivateCertificatesPool is ReverseRegistryBaseContract, MultiSigCertificatesPool {\r\n\r\n    // CONSTRUCTOR & INIT /////////////////////////////////////////\r\n    function PrivateCertPool_init(address[] memory owners,  uint256 minOwners, string memory contractName, string memory contractVersion, string memory ENSName, address ReverseRegistryAddress) public initializer \r\n    {\r\n      super.MultiSigCertPool_init(owners, minOwners, contractName, contractVersion);\r\n\r\n      if(0 < bytes(ENSName).length){\r\n        RegisterReverseAddress(ENSName, ReverseRegistryAddress);\r\n      }\r\n      \r\n    }\r\n\r\n  }",
  "sourcePath": "C:\\Users\\d-aam\\GitHub\\Certificates\\contracts\\DeployedContracts\\PrivateCertificatesPool.sol",
  "compiler": {
    "name": "solc",
    "version": "0.8.7+commit.e28d00a7.Emscripten.clang"
  },
  "schemaVersion": "3.4.3",
  "updatedAt": "2022-01-20T13:57:50.877Z",
  "devdoc": {
    "kind": "dev",
    "methods": {},
    "version": 1
  },
  "userdoc": {
    "kind": "user",
    "methods": {},
    "version": 1
  }
}