{
  "contractName": "PrivatePoolFactory",
  "abi": [
    {
      "anonymous": false,
      "inputs": [
        {
          "indexed": false,
          "internalType": "string",
          "name": "Factory",
          "type": "string"
        },
        {
          "indexed": false,
          "internalType": "string",
          "name": "Name",
          "type": "string"
        }
      ],
      "name": "_NewContractName",
      "type": "event"
    },
    {
      "anonymous": false,
      "inputs": [
        {
          "indexed": false,
          "internalType": "string",
          "name": "Factory",
          "type": "string"
        },
        {
          "indexed": false,
          "internalType": "string",
          "name": "Version",
          "type": "string"
        }
      ],
      "name": "_NewContractVersion",
      "type": "event"
    },
    {
      "anonymous": false,
      "inputs": [
        {
          "indexed": false,
          "internalType": "string",
          "name": "Factory",
          "type": "string"
        },
        {
          "indexed": false,
          "internalType": "uint256",
          "name": "Id",
          "type": "uint256"
        },
        {
          "indexed": true,
          "internalType": "address",
          "name": "Creator",
          "type": "address"
        },
        {
          "indexed": false,
          "internalType": "address",
          "name": "Element",
          "type": "address"
        },
        {
          "indexed": false,
          "internalType": "string",
          "name": "Name",
          "type": "string"
        }
      ],
      "name": "_NewElement",
      "type": "event"
    },
    {
      "inputs": [
        {
          "internalType": "string",
          "name": "factoryName",
          "type": "string"
        },
        {
          "internalType": "address",
          "name": "managerContractAddress",
          "type": "address"
        }
      ],
      "name": "Factory_init",
      "outputs": [],
      "stateMutability": "nonpayable",
      "type": "function"
    },
    {
      "inputs": [
        {
          "internalType": "uint256",
          "name": "Id",
          "type": "uint256"
        }
      ],
      "name": "retrieve",
      "outputs": [
        {
          "internalType": "address",
          "name": "",
          "type": "address"
        },
        {
          "internalType": "address",
          "name": "",
          "type": "address"
        }
      ],
      "stateMutability": "view",
      "type": "function"
    },
    {
      "inputs": [],
      "name": "retrieveConfig",
      "outputs": [
        {
          "internalType": "string",
          "name": "",
          "type": "string"
        },
        {
          "internalType": "string",
          "name": "",
          "type": "string"
        },
        {
          "internalType": "string",
          "name": "",
          "type": "string"
        }
      ],
      "stateMutability": "view",
      "type": "function"
    },
    {
      "inputs": [],
      "name": "retrieveManagerContract",
      "outputs": [
        {
          "internalType": "address",
          "name": "",
          "type": "address"
        }
      ],
      "stateMutability": "view",
      "type": "function"
    },
    {
      "inputs": [],
      "name": "retrieveTotal",
      "outputs": [
        {
          "internalType": "uint256",
          "name": "",
          "type": "uint256"
        }
      ],
      "stateMutability": "view",
      "type": "function"
    },
    {
      "inputs": [
        {
          "internalType": "string",
          "name": "contractName",
          "type": "string"
        }
      ],
      "name": "updateContractName",
      "outputs": [],
      "stateMutability": "nonpayable",
      "type": "function"
    },
    {
      "inputs": [
        {
          "internalType": "string",
          "name": "contractVersion",
          "type": "string"
        }
      ],
      "name": "updateContractVersion",
      "outputs": [],
      "stateMutability": "nonpayable",
      "type": "function"
    },
    {
      "inputs": [
        {
          "internalType": "address",
          "name": "managerContractAddress",
          "type": "address"
        }
      ],
      "name": "PrivatePoolFactory_init",
      "outputs": [],
      "stateMutability": "nonpayable",
      "type": "function"
    },
    {
      "inputs": [
        {
          "internalType": "address[]",
          "name": "owners",
          "type": "address[]"
        },
        {
          "internalType": "uint256",
          "name": "minOwners",
          "type": "uint256"
        },
        {
          "internalType": "string",
          "name": "ElementName",
          "type": "string"
        },
        {
          "internalType": "bytes32",
          "name": "ENSLabel",
          "type": "bytes32"
        }
      ],
      "name": "create",
      "outputs": [],
      "stateMutability": "payable",
      "type": "function"
    }
  ],
  "bytecode": "0x608060405234801561001057600080fd5b50611d1a806100206000396000f3fe608060405260043610620000805760003560e01c80631dd5862c146200008557806327a0ed1614620000ac5780634612ea0b14620000c35780635b362e8414620000e85780636f86542a14620001255780638f88708b14620001455780639d8c56c6146200017a578063aeb1c1ad14620001a3578063ce50ac7614620001c8575b600080fd5b3480156200009257600080fd5b50620000aa620000a436600462000eda565b620001ed565b005b620000aa620000bd36600462000ddf565b620002c4565b348015620000d057600080fd5b50620000aa620000e236600462000f1a565b62000493565b348015620000f557600080fd5b506000546201000090046001600160a01b03166040516001600160a01b0390911681526020015b60405180910390f35b3480156200013257600080fd5b506004546040519081526020016200011c565b3480156200015257600080fd5b506200016a6200016436600462000f71565b62000573565b6040516200011c92919062001083565b3480156200018757600080fd5b50620001926200065c565b6040516200011c939291906200116e565b348015620001b057600080fd5b50620000aa620001c236600462000d98565b6200082e565b348015620001d557600080fd5b50620000aa620001e736600462000eda565b620008d1565b6000546040516337ea306360e01b8152339173__Library_______________________________916337ea3063916200023b9185916201000090046001600160a01b03169060040162001083565b60006040518083038186803b1580156200025457600080fd5b505af415801562000269573d6000803e3d6000fd5b5050835162000282925060039150602085019062000c6e565b507f85825cad4af8c1dad9ad1a76eae95f95b6b46edc35d47b11259bca5daa7713ce60016003604051620002b8929190620011b7565b60405180910390a15050565b600060029054906101000a90046001600160a01b03166001600160a01b0316635a3794e96040518163ffffffff1660e01b815260040160206040518083038186803b1580156200031357600080fd5b505afa15801562000328573d6000803e3d6000fd5b505050506040513d601f19601f820116820180604052508101906200034e919062000dbf565b6001600160a01b031663f0c9325e3460016040518363ffffffff1660e01b81526004016200037d919062001145565b6000604051808303818588803b1580156200039757600080fd5b505af1158015620003ac573d6000803e3d6000fd5b50505050506000848460026003604051602401620003ce9493929190620010c3565b60408051808303601f190181529181526020808301805163030731cd60e51b6001600160e01b039091161790526000548251637c2f3aaf60e01b815292519394506200048c93620100009091046001600160a01b031692637c2f3aaf926004808301939192829003018186803b1580156200044857600080fd5b505afa1580156200045d573d6000803e3d6000fd5b505050506040513d601f19601f8201168201806040525081019062000483919062000dbf565b8285856200099c565b5050505050565b600054610100900460ff1680620004ad575060005460ff16155b620004d55760405162461bcd60e51b8152600401620004cc9062001228565b60405180910390fd5b600054610100900460ff16158015620004f8576000805461ffff19166101011790555b620005038262000bda565b82516200051890600190602086019062000c6e565b50604080516020810191829052600090819052620005399160029162000c6e565b506040805160208101918290526000908190526200055a9160039162000c6e565b5080156200056e576000805461ff00191690555b505050565b6004805460405163123bd07560e11b8152918201839052602482018190526000918291849173__Library_______________________________90632477a0ea9060440160006040518083038186803b158015620005d057600080fd5b505af4158015620005e5573d6000803e3d6000fd5b5050505060048581548110620005ff57620005ff6200130c565b6000918252602090912060029091020154600480546001600160a01b0390921691879081106200063357620006336200130c565b60009182526020909120600160029092020101549094506001600160a01b031692505050915091565b60608060606001600260038280546200067590620012cf565b80601f0160208091040260200160405190810160405280929190818152602001828054620006a390620012cf565b8015620006f45780601f10620006c857610100808354040283529160200191620006f4565b820191906000526020600020905b815481529060010190602001808311620006d657829003601f168201915b505050505092508180546200070990620012cf565b80601f01602080910402602001604051908101604052809291908181526020018280546200073790620012cf565b8015620007885780601f106200075c5761010080835404028352916020019162000788565b820191906000526020600020905b8154815290600101906020018083116200076a57829003601f168201915b505050505091508080546200079d90620012cf565b80601f0160208091040260200160405190810160405280929190818152602001828054620007cb90620012cf565b80156200081c5780601f10620007f0576101008083540402835291602001916200081c565b820191906000526020600020905b815481529060010190602001808311620007fe57829003601f168201915b50505050509050925092509250909192565b600054610100900460ff168062000848575060005460ff16155b620008675760405162461bcd60e51b8152600401620004cc9062001228565b600054610100900460ff161580156200088a576000805461ffff19166101011790555b620008ba6040518060400160405280600c81526020016b141c9a5d985d1948141bdbdb60a21b8152508362000493565b8015620008cd576000805461ff00191690555b5050565b6000546040516337ea306360e01b8152339173__Library_______________________________916337ea3063916200091f9185916201000090046001600160a01b03169060040162001083565b60006040518083038186803b1580156200093857600080fd5b505af41580156200094d573d6000803e3d6000fd5b5050835162000966925060029150602085019062000c6e565b507fca713f964ba9fd248b552b210e1ec6035169f38c143b0500c211f277f1ad454360016002604051620002b8929190620011b7565b60008484604051620009ae9062000cfd565b620009bb9291906200109d565b604051809103906000f080158015620009d8573d6000803e3d6000fd5b50604080518082019091523381526001600160a01b038083166020830190815260048054600181018255600091909152835160029091027f8a35acfbc15ff81a39ae7d344fd709f28e8600b4aa8c65c6b64bfe7fe36bd19b810180549285166001600160a01b031993841617905591517f8a35acfbc15ff81a39ae7d344fd709f28e8600b4aa8c65c6b64bfe7fe36bd19c9092018054929093169116179055909150821562000b6e57600060029054906101000a90046001600160a01b03166001600160a01b0316637634af786040518163ffffffff1660e01b815260040160206040518083038186803b15801562000ad057600080fd5b505afa15801562000ae5573d6000803e3d6000fd5b505050506040513d601f19601f8201168201806040525081019062000b0b919062000dbf565b6001600160a01b0316637746a5dc846040518263ffffffff1660e01b815260040162000b3991815260200190565b600060405180830381600087803b15801562000b5457600080fd5b505af115801562000b69573d6000803e3d6000fd5b505050505b80600001516001600160a01b03167f1ca39c7d81f021b1dca105fb858bf2a88540adf1df782672dfd71b5ace6b839a60018060048054905062000bb29190620012a9565b84602001518860405162000bca9493929190620011e9565b60405180910390a2505050505050565b600054610100900460ff168062000bf4575060005460ff16155b62000c135760405162461bcd60e51b8152600401620004cc9062001228565b600054610100900460ff1615801562000c36576000805461ffff19166101011790555b6000805462010000600160b01b031916620100006001600160a01b038516021790558015620008cd576000805461ff00191690555050565b82805462000c7c90620012cf565b90600052602060002090601f01602090048101928262000ca0576000855562000ceb565b82601f1062000cbb57805160ff191683800117855562000ceb565b8280016001018555821562000ceb579182015b8281111562000ceb57825182559160200191906001019062000cce565b5062000cf992915062000d0b565b5090565b610993806200135283390190565b5b8082111562000cf9576000815560010162000d0c565b600082601f83011262000d3457600080fd5b81356001600160401b0381111562000d505762000d5062001322565b62000d65601f8201601f191660200162001276565b81815284602083860101111562000d7b57600080fd5b816020850160208301376000918101602001919091529392505050565b60006020828403121562000dab57600080fd5b813562000db88162001338565b9392505050565b60006020828403121562000dd257600080fd5b815162000db88162001338565b6000806000806080858703121562000df657600080fd5b84356001600160401b038082111562000e0e57600080fd5b818701915087601f83011262000e2357600080fd5b813560208282111562000e3a5762000e3a62001322565b8160051b62000e4b82820162001276565b8381528281019086840183880185018e101562000e6757600080fd5b600097505b8588101562000e9a578035935062000e848462001338565b8383526001979097019691840191840162000e6c565b5099505050880135955050604087013591508082111562000eba57600080fd5b5062000ec98782880162000d22565b949793965093946060013593505050565b60006020828403121562000eed57600080fd5b81356001600160401b0381111562000f0457600080fd5b62000f128482850162000d22565b949350505050565b6000806040838503121562000f2e57600080fd5b82356001600160401b0381111562000f4557600080fd5b62000f538582860162000d22565b925050602083013562000f668162001338565b809150509250929050565b60006020828403121562000f8457600080fd5b5035919050565b6000815180845260005b8181101562000fb35760208185018101518683018201520162000f95565b8181111562000fc6576000602083870101525b50601f01601f19169290920160200192915050565b8054600090600181811c908083168062000ff657607f831692505b60208084108214156200101957634e487b7160e01b600052602260045260246000fd5b83885260208801828015620010375760018114620010495762001076565b60ff1987168252828201975062001076565b60008981526020902060005b87811015620010705781548482015290860190840162001055565b83019850505b5050505050505092915050565b6001600160a01b0392831681529116602082015260400190565b6001600160a01b038316815260406020820181905260009062000f129083018462000f8b565b6080808252855190820181905260009060209060a0840190828901845b82811015620011075781516001600160a01b031684529284019290840190600101620010e0565b5050508682850152838103604085015262001123818762000fdb565b91505082810360608401526200113a818562000fdb565b979650505050505050565b60208101600483106200116857634e487b7160e01b600052602160045260246000fd5b91905290565b60608152600062001183606083018662000f8b565b828103602084015262001197818662000f8b565b90508281036040840152620011ad818562000f8b565b9695505050505050565b604081526000620011cc604083018562000fdb565b8281036020840152620011e0818562000fdb565b95945050505050565b608081526000620011fe608083018762000fdb565b602083018690526001600160a01b038516604084015282810360608401526200113a818562000f8b565b6020808252602e908201527f496e697469616c697a61626c653a20636f6e747261637420697320616c72656160408201526d191e481a5b9a5d1a585b1a5e995960921b606082015260800190565b604051601f8201601f191681016001600160401b0381118282101715620012a157620012a162001322565b604052919050565b600082821015620012ca57634e487b7160e01b600052601160045260246000fd5b500390565b600181811c90821680620012e457607f821691505b602082108114156200130657634e487b7160e01b600052602260045260246000fd5b50919050565b634e487b7160e01b600052603260045260246000fd5b634e487b7160e01b600052604160045260246000fd5b6001600160a01b03811681146200134e57600080fd5b5056fe608060405260405161099338038061099383398101604081905261002291610470565b61004d60017fa3f0ad74e5423aebfd80d3ef4346578335a9a72aeaee59ff6cb3582b35133d5161057f565b60008051602061094c83398151915214610069576100696105d0565b6100758282600061007c565b50506105fc565b61008583610156565b6040516001600160a01b038416907f1cf3b03a6cf19fa2baba4df148e9dcabedea7f8a5c07840e207e5c089be95d3e90600090a26000825111806100c65750805b156101515761014f836001600160a01b0316635c60da1b6040518163ffffffff1660e01b815260040160206040518083038186803b15801561010757600080fd5b505afa15801561011b573d6000803e3d6000fd5b505050506040513d601f19601f8201168201806040525081019061013f9190610455565b836102f660201b6100291760201c565b505b505050565b6101698161032260201b6100551760201c565b6101c85760405162461bcd60e51b815260206004820152602560248201527f455243313936373a206e657720626561636f6e206973206e6f74206120636f6e6044820152641d1c9858dd60da1b60648201526084015b60405180910390fd5b61024b816001600160a01b0316635c60da1b6040518163ffffffff1660e01b815260040160206040518083038186803b15801561020457600080fd5b505afa158015610218573d6000803e3d6000fd5b505050506040513d601f19601f8201168201806040525081019061023c9190610455565b61032260201b6100551760201c565b6102b05760405162461bcd60e51b815260206004820152603060248201527f455243313936373a20626561636f6e20696d706c656d656e746174696f6e206960448201526f1cc81b9bdd08184818dbdb9d1c9858dd60821b60648201526084016101bf565b806102d560008051602061094c83398151915260001b61032860201b61005b1760201c565b80546001600160a01b0319166001600160a01b039290921691909117905550565b606061031b838360405180606001604052806027815260200161096c6027913961032b565b9392505050565b3b151590565b90565b6060833b61038a5760405162461bcd60e51b815260206004820152602660248201527f416464726573733a2064656c65676174652063616c6c20746f206e6f6e2d636f6044820152651b9d1c9858dd60d21b60648201526084016101bf565b600080856001600160a01b0316856040516103a59190610530565b600060405180830381855af49150503d80600081146103e0576040519150601f19603f3d011682016040523d82523d6000602084013e6103e5565b606091505b5090925090506103f6828286610400565b9695505050505050565b6060831561040f57508161031b565b82511561041f5782518084602001fd5b8160405162461bcd60e51b81526004016101bf919061054c565b80516001600160a01b038116811461045057600080fd5b919050565b60006020828403121561046757600080fd5b61031b82610439565b6000806040838503121561048357600080fd5b61048c83610439565b60208401519092506001600160401b03808211156104a957600080fd5b818501915085601f8301126104bd57600080fd5b8151818111156104cf576104cf6105e6565b604051601f8201601f19908116603f011681019083821181831017156104f7576104f76105e6565b8160405282815288602084870101111561051057600080fd5b6105218360208301602088016105a4565b80955050505050509250929050565b600082516105428184602087016105a4565b9190910192915050565b602081526000825180602084015261056b8160408501602087016105a4565b601f01601f19169190910160400192915050565b60008282101561059f57634e487b7160e01b600052601160045260246000fd5b500390565b60005b838110156105bf5781810151838201526020016105a7565b8381111561014f5750506000910152565b634e487b7160e01b600052600160045260246000fd5b634e487b7160e01b600052604160045260246000fd5b6103418061060b6000396000f3fe60806040523661001357610011610017565b005b6100115b61002761002261005e565b610106565b565b606061004e83836040518060600160405280602781526020016102e56027913961012a565b9392505050565b3b151590565b90565b60006100917fa3f0ad74e5423aebfd80d3ef4346578335a9a72aeaee59ff6cb3582b35133d50546001600160a01b031690565b6001600160a01b0316635c60da1b6040518163ffffffff1660e01b815260040160206040518083038186803b1580156100c957600080fd5b505afa1580156100dd573d6000803e3d6000fd5b505050506040513d601f19601f82011682018060405250810190610101919061023c565b905090565b3660008037600080366000845af43d6000803e808015610125573d6000f35b3d6000fd5b6060833b61018e5760405162461bcd60e51b815260206004820152602660248201527f416464726573733a2064656c65676174652063616c6c20746f206e6f6e2d636f6044820152651b9d1c9858dd60d21b60648201526084015b60405180910390fd5b600080856001600160a01b0316856040516101a99190610265565b600060405180830381855af49150503d80600081146101e4576040519150601f19603f3d011682016040523d82523d6000602084013e6101e9565b606091505b50915091506101f9828286610203565b9695505050505050565b6060831561021257508161004e565b8251156102225782518084602001fd5b8160405162461bcd60e51b81526004016101859190610281565b60006020828403121561024e57600080fd5b81516001600160a01b038116811461004e57600080fd5b600082516102778184602087016102b4565b9190910192915050565b60208152600082518060208401526102a08160408501602087016102b4565b601f01601f19169190910160400192915050565b60005b838110156102cf5781810151838201526020016102b7565b838111156102de576000848401525b5050505056fe416464726573733a206c6f772d6c6576656c2064656c65676174652063616c6c206661696c6564a2646970667358221220d403ceeafd1a8a95bac5042ee17868655bf495ec1518e7fe81eb94935c79e11764736f6c63430008070033a3f0ad74e5423aebfd80d3ef4346578335a9a72aeaee59ff6cb3582b35133d50416464726573733a206c6f772d6c6576656c2064656c65676174652063616c6c206661696c6564a2646970667358221220e8600f5d2f24de96a9a24c4bfd098a8daaca3aa814f021a3f77403c42c630f4f64736f6c63430008070033",
  "immutableReferences": {},
  "source": "// SPDX-License-Identifier: GPL-3.0\r\n\r\npragma solidity 0.8.7;\r\n\r\n/*\r\n  Private Pool Factory inherits from Factory.\r\n  Before creating a new Element a payment is made to Treasury.\r\n  Private Pool Elements are Beacon Proxy, the Beacon implementation address is stored in Manager contract.\r\n */\r\n\r\n import \"../Interfaces/ITreasury.sol\";\r\n import \"../Abstract/Factory.sol\";\r\n import \"@openzeppelin/contracts/proxy/beacon/BeaconProxy.sol\";\r\n\r\ncontract PrivatePoolFactory is Factory{\r\n    // CONSTRUCTOR /////////////////////////////////////////\r\n    function PrivatePoolFactory_init(address managerContractAddress) public initializer {\r\n        super.Factory_init(\"Private Pool\", managerContractAddress);\r\n    }\r\n\r\n    // FUNCTIONALITY /////////////////////////////////////////\r\n    function create(address[] memory owners,  uint256 minOwners, string memory ElementName, bytes32 ENSLabel) external override payable\r\n    {\r\n        ITreasury(_managerContract.retrieveTreasuryProxy()).pay{value:msg.value}(Library.Prices.NewPool);\r\n        bytes memory data = abi.encodeWithSignature(\"PrivateCertPool_init(address[],uint256,string,string)\", owners, minOwners, _ContractName, _ContractVersion);\r\n        internalCreate(_managerContract.retrievePrivatePoolBeacon(), data, ElementName, ENSLabel);\r\n    }\r\n\r\n\r\n}",
  "sourcePath": "C:/Users/d-aam/GitHub/Certificates/contracts/DeployedContracts/PrivatePoolFactory.sol",
  "compiler": {
    "name": "solc",
    "version": "0.8.7+commit.e28d00a7.Emscripten.clang"
  },
  "schemaVersion": "3.3.4",
  "updatedAt": "2021-10-28T06:39:18.353Z",
  "devdoc": {
    "kind": "dev",
    "methods": {},
    "version": 1
  },
  "userdoc": {
    "kind": "user",
    "methods": {},
    "version": 1
  }
}