{
  "contractName": "PrivateCertificatesPool",
  "abi": [
    {
      "inputs": [
        {
          "internalType": "address[]",
          "name": "owners",
          "type": "address[]"
        },
        {
          "internalType": "uint256",
          "name": "minOwners",
          "type": "uint256"
        }
      ],
      "stateMutability": "payable",
      "type": "constructor"
    },
    {
      "anonymous": false,
      "inputs": [
        {
          "indexed": false,
          "internalType": "address",
          "name": "",
          "type": "address"
        },
        {
          "indexed": false,
          "internalType": "address",
          "name": "",
          "type": "address"
        }
      ],
      "name": "_AddCertificateIdEvent",
      "type": "event"
    },
    {
      "anonymous": false,
      "inputs": [
        {
          "indexed": true,
          "internalType": "string",
          "name": "",
          "type": "string"
        },
        {
          "indexed": true,
          "internalType": "address",
          "name": "",
          "type": "address"
        },
        {
          "indexed": true,
          "internalType": "string",
          "name": "",
          "type": "string"
        }
      ],
      "name": "_AddEntityRejectionIdEvent",
      "type": "event"
    },
    {
      "anonymous": false,
      "inputs": [
        {
          "indexed": true,
          "internalType": "string",
          "name": "",
          "type": "string"
        },
        {
          "indexed": true,
          "internalType": "address",
          "name": "",
          "type": "address"
        },
        {
          "indexed": true,
          "internalType": "string",
          "name": "",
          "type": "string"
        }
      ],
      "name": "_AddEntityValidationIdEvent",
      "type": "event"
    },
    {
      "anonymous": false,
      "inputs": [
        {
          "indexed": false,
          "internalType": "address",
          "name": "",
          "type": "address"
        },
        {
          "indexed": false,
          "internalType": "address",
          "name": "",
          "type": "address"
        }
      ],
      "name": "_RemoveCertificateIdEvent",
      "type": "event"
    },
    {
      "anonymous": false,
      "inputs": [
        {
          "indexed": true,
          "internalType": "string",
          "name": "",
          "type": "string"
        },
        {
          "indexed": true,
          "internalType": "address",
          "name": "",
          "type": "address"
        },
        {
          "indexed": true,
          "internalType": "string",
          "name": "",
          "type": "string"
        }
      ],
      "name": "_RemoveEntityRejectionIdEvent",
      "type": "event"
    },
    {
      "anonymous": false,
      "inputs": [
        {
          "indexed": true,
          "internalType": "string",
          "name": "",
          "type": "string"
        },
        {
          "indexed": true,
          "internalType": "address",
          "name": "",
          "type": "address"
        },
        {
          "indexed": true,
          "internalType": "string",
          "name": "",
          "type": "string"
        }
      ],
      "name": "_RemoveEntityValidationIdEvent",
      "type": "event"
    },
    {
      "inputs": [
        {
          "internalType": "bytes32",
          "name": "CertificateHash",
          "type": "bytes32"
        },
        {
          "internalType": "address",
          "name": "holder",
          "type": "address"
        }
      ],
      "name": "addCertificate",
      "outputs": [],
      "stateMutability": "payable",
      "type": "function"
    },
    {
      "inputs": [
        {
          "internalType": "address",
          "name": "owner",
          "type": "address"
        },
        {
          "internalType": "string",
          "name": "ownerInfo",
          "type": "string"
        }
      ],
      "name": "addOwner",
      "outputs": [],
      "stateMutability": "nonpayable",
      "type": "function"
    },
    {
      "inputs": [
        {
          "internalType": "address",
          "name": "owner",
          "type": "address"
        }
      ],
      "name": "isOwner",
      "outputs": [
        {
          "internalType": "bool",
          "name": "",
          "type": "bool"
        }
      ],
      "stateMutability": "view",
      "type": "function"
    },
    {
      "inputs": [
        {
          "internalType": "address",
          "name": "provider",
          "type": "address"
        }
      ],
      "name": "isProvider",
      "outputs": [
        {
          "internalType": "bool",
          "name": "",
          "type": "bool"
        }
      ],
      "stateMutability": "view",
      "type": "function"
    },
    {
      "inputs": [
        {
          "internalType": "address",
          "name": "owner",
          "type": "address"
        }
      ],
      "name": "rejectOwner",
      "outputs": [],
      "stateMutability": "nonpayable",
      "type": "function"
    },
    {
      "inputs": [
        {
          "internalType": "address",
          "name": "provider",
          "type": "address"
        }
      ],
      "name": "rejectProvider",
      "outputs": [],
      "stateMutability": "nonpayable",
      "type": "function"
    },
    {
      "inputs": [
        {
          "internalType": "bytes32",
          "name": "CertificateHash",
          "type": "bytes32"
        },
        {
          "internalType": "address",
          "name": "holder",
          "type": "address"
        }
      ],
      "name": "removeCertificate",
      "outputs": [],
      "stateMutability": "nonpayable",
      "type": "function"
    },
    {
      "inputs": [
        {
          "internalType": "address",
          "name": "owner",
          "type": "address"
        }
      ],
      "name": "removeOwner",
      "outputs": [],
      "stateMutability": "nonpayable",
      "type": "function"
    },
    {
      "inputs": [
        {
          "internalType": "address",
          "name": "provider",
          "type": "address"
        }
      ],
      "name": "removeProvider",
      "outputs": [],
      "stateMutability": "nonpayable",
      "type": "function"
    },
    {
      "inputs": [],
      "name": "retrieveAllOwners",
      "outputs": [
        {
          "internalType": "address[]",
          "name": "",
          "type": "address[]"
        }
      ],
      "stateMutability": "view",
      "type": "function"
    },
    {
      "inputs": [],
      "name": "retrieveAllProviders",
      "outputs": [
        {
          "internalType": "address[]",
          "name": "",
          "type": "address[]"
        }
      ],
      "stateMutability": "view",
      "type": "function"
    },
    {
      "inputs": [
        {
          "internalType": "bytes32",
          "name": "CertificateHash",
          "type": "bytes32"
        },
        {
          "internalType": "address",
          "name": "holder",
          "type": "address"
        }
      ],
      "name": "retrieveCertificateProvider",
      "outputs": [
        {
          "internalType": "address",
          "name": "",
          "type": "address"
        }
      ],
      "stateMutability": "view",
      "type": "function"
    },
    {
      "inputs": [
        {
          "internalType": "address",
          "name": "holder",
          "type": "address"
        },
        {
          "internalType": "uint256",
          "name": "skipFirst",
          "type": "uint256"
        },
        {
          "internalType": "uint256",
          "name": "max",
          "type": "uint256"
        }
      ],
      "name": "retrieveCertificatesByHolder",
      "outputs": [
        {
          "internalType": "bytes32[]",
          "name": "",
          "type": "bytes32[]"
        }
      ],
      "stateMutability": "view",
      "type": "function"
    },
    {
      "inputs": [],
      "name": "retrieveMinOwners",
      "outputs": [
        {
          "internalType": "uint256",
          "name": "",
          "type": "uint256"
        }
      ],
      "stateMutability": "view",
      "type": "function"
    },
    {
      "inputs": [
        {
          "internalType": "address",
          "name": "owner",
          "type": "address"
        }
      ],
      "name": "retrieveOwner",
      "outputs": [
        {
          "internalType": "string",
          "name": "",
          "type": "string"
        },
        {
          "internalType": "bool",
          "name": "",
          "type": "bool"
        }
      ],
      "stateMutability": "view",
      "type": "function"
    },
    {
      "inputs": [
        {
          "internalType": "bool",
          "name": "addedORremove",
          "type": "bool"
        }
      ],
      "name": "retrievePendingOwners",
      "outputs": [
        {
          "internalType": "address[]",
          "name": "",
          "type": "address[]"
        },
        {
          "internalType": "string[]",
          "name": "",
          "type": "string[]"
        }
      ],
      "stateMutability": "view",
      "type": "function"
    },
    {
      "inputs": [
        {
          "internalType": "bool",
          "name": "addedORremove",
          "type": "bool"
        }
      ],
      "name": "retrievePendingProviders",
      "outputs": [
        {
          "internalType": "address[]",
          "name": "",
          "type": "address[]"
        },
        {
          "internalType": "string[]",
          "name": "",
          "type": "string[]"
        }
      ],
      "stateMutability": "view",
      "type": "function"
    },
    {
      "inputs": [
        {
          "internalType": "address",
          "name": "provider",
          "type": "address"
        }
      ],
      "name": "retrieveProvider",
      "outputs": [
        {
          "internalType": "string",
          "name": "",
          "type": "string"
        },
        {
          "internalType": "bool",
          "name": "",
          "type": "bool"
        }
      ],
      "stateMutability": "view",
      "type": "function"
    },
    {
      "inputs": [
        {
          "internalType": "address",
          "name": "holder",
          "type": "address"
        }
      ],
      "name": "retrieveTotalCertificatesByHolder",
      "outputs": [
        {
          "internalType": "uint256",
          "name": "",
          "type": "uint256"
        }
      ],
      "stateMutability": "view",
      "type": "function"
    },
    {
      "inputs": [
        {
          "internalType": "address",
          "name": "owner",
          "type": "address"
        }
      ],
      "name": "validateOwner",
      "outputs": [],
      "stateMutability": "nonpayable",
      "type": "function"
    },
    {
      "inputs": [
        {
          "internalType": "address",
          "name": "provider",
          "type": "address"
        }
      ],
      "name": "validateProvider",
      "outputs": [],
      "stateMutability": "nonpayable",
      "type": "function"
    },
    {
      "inputs": [
        {
          "internalType": "address",
          "name": "provider",
          "type": "address"
        },
        {
          "internalType": "string",
          "name": "providerInfo",
          "type": "string"
        }
      ],
      "name": "addProvider",
      "outputs": [],
      "stateMutability": "payable",
      "type": "function"
    },
    {
      "inputs": [
        {
          "internalType": "bytes32",
          "name": "item",
          "type": "bytes32"
        },
        {
          "internalType": "uint256[]",
          "name": "id",
          "type": "uint256[]"
        },
        {
          "internalType": "bool",
          "name": "addOrRemove",
          "type": "bool"
        }
      ],
      "name": "onItemValidated",
      "outputs": [],
      "stateMutability": "nonpayable",
      "type": "function"
    },
    {
      "inputs": [
        {
          "internalType": "bytes32",
          "name": "item",
          "type": "bytes32"
        },
        {
          "internalType": "uint256[]",
          "name": "id",
          "type": "uint256[]"
        },
        {
          "internalType": "bool",
          "name": "addOrRemove",
          "type": "bool"
        }
      ],
      "name": "onItemRejected",
      "outputs": [],
      "stateMutability": "nonpayable",
      "type": "function"
    }
  ],
  "bytecode": "0x600560c09081526427bbb732b960d91b60e0526080908152610140604052600861010090815267283937bb34b232b960c11b6101205260a05262000048906004906002620003fd565b506040516200382a3803806200382a8339810160408190526200006b9162000583565b8181818160026004805480602002602001604051908101604052809291908181526020016000905b8282101562000149578382906000526020600020018054620000b5906200067e565b80601f0160208091040260200160405190810160405280929190818152602001828054620000e3906200067e565b8015620001345780601f10620001085761010080835404028352916020019162000134565b820191906000526020600020905b8154815290600101906020018083116200011657829003601f168201915b50505050508152602001906001019062000093565b5050505060008451841115620001945760405162461bcd60e51b81526004016200018b9060208082526004908201526322a1989b60e11b604082015260600190565b60405180910390fd5b60008411620001cf5760405162461bcd60e51b81526004016200018b906020808252600490820152634543313760e01b604082015260600190565b815183146200020a5760405162461bcd60e51b81526004016200018b9060208082526004908201526308a8662760e31b604082015260600190565b60008181555b83811015620002895760028054600101815560005282516003908490839081106200023f576200023f620006e5565b6020908102919091018101518254600181018455600093845292829020815162000273949190910192919091019062000461565b50806200028081620006bb565b91505062000210565b50600184905560005b8551811015620003ed57600073__AddressLibrary________________________634d84c524888481518110620002cd57620002cd620006e5565b60200260200101516040518263ffffffff1660e01b81526004016200030191906001600160a01b0391909116815260200190565b60206040518083038186803b1580156200031a57600080fd5b505af41580156200032f573d6000803e3d6000fd5b505050506040513d601f19601f8201168201806040525081019062000355919062000664565b90506001600260005481548110620003715762000371620006e5565b60009182526020808320858452600492909202909101905260408120805460ff19169215159290921790915554600280549091908110620003b657620003b6620006e5565b6000918252602080832060016004909302018201805492830181558352909120015580620003e481620006bb565b91505062000292565b5050505050505050505062000711565b8280548282559060005260206000209081019282156200044f579160200282015b828111156200044f57825180516200043e91849160209091019062000461565b50916020019190600101906200041e565b506200045d929150620004ec565b5090565b8280546200046f906200067e565b90600052602060002090601f016020900481019282620004935760008555620004de565b82601f10620004ae57805160ff1916838001178555620004de565b82800160010185558215620004de579182015b82811115620004de578251825591602001919060010190620004c1565b506200045d9291506200050d565b808211156200045d57600062000503828262000524565b50600101620004ec565b5b808211156200045d57600081556001016200050e565b50805462000532906200067e565b6000825580601f1062000543575050565b601f0160209004906000526020600020908101906200056391906200050d565b50565b80516001600160a01b03811681146200057e57600080fd5b919050565b600080604083850312156200059757600080fd5b82516001600160401b0380821115620005af57600080fd5b818501915085601f830112620005c457600080fd5b8151602082821115620005db57620005db620006fb565b8160051b604051601f19603f83011681018181108682111715620006035762000603620006fb565b604052838152828101945085830182870184018b10156200062357600080fd5b600096505b8487101562000651576200063c8162000566565b86526001969096019594830194830162000628565b5097909101519698969750505050505050565b6000602082840312156200067757600080fd5b5051919050565b600181811c908216806200069357607f821691505b60208210811415620006b557634e487b7160e01b600052602260045260246000fd5b50919050565b6000600019821415620006de57634e487b7160e01b600052601160045260246000fd5b5060010190565b634e487b7160e01b600052603260045260246000fd5b634e487b7160e01b600052604160045260246000fd5b61310980620007216000396000f3fe60806040526004361061011b5760003560e01c80630b4c72a914610120578063173825d9146101425780631ab807f81461016257806327a40b4b146101755780632f54bf6e146101955780633542758f146101ca57806337583499146101ea5780633fd071811461021857806358a1ba251461023957806365b973e5146102665780636b074a07146102855780636b299604146102a55780636b3a0fec146102d35780636e4f9179146102f35780636e55d2d41461031557806376f8f90f1461033557806377bc5a1f146103555780637c8c2add146102185780638a355a5714610375578063a73db28a14610395578063a93d5ed6146103b5578063ce33d58a146103ca578063d0a4adfe146103ea578063fc0005001461043d575b600080fd5b34801561012c57600080fd5b5061014061013b3660046127ff565b610450565b005b34801561014e57600080fd5b5061014061015d3660046127ff565b61045e565b610140610170366004612ad6565b6104b3565b34801561018157600080fd5b506101406101903660046127ff565b6104c1565b3480156101a157600080fd5b506101b56101b03660046127ff565b6104cc565b60405190151581526020015b60405180910390f35b3480156101d657600080fd5b506101406101e536600461281c565b6104e0565b3480156101f657600080fd5b5061020a6102053660046127ff565b6104ee565b6040516101c1929190612d73565b34801561022457600080fd5b50610140610233366004612b06565b50505050565b34801561024557600080fd5b506102596102543660046128a0565b610506565b6040516101c19190612d21565b34801561027257600080fd5b506001545b6040519081526020016101c1565b34801561029157600080fd5b506101b56102a03660046127ff565b6106ac565b3480156102b157600080fd5b506102c56102c0366004612a83565b6106b9565b6040516101c1929190612caf565b3480156102df57600080fd5b506102c56102ee366004612a83565b6106c8565b3480156102ff57600080fd5b506103086106d6565b6040516101c19190612c9c565b34801561032157600080fd5b506102776103303660046127ff565b6106e7565b34801561034157600080fd5b506101406103503660046127ff565b610705565b34801561036157600080fd5b5061020a6103703660046127ff565b610760565b34801561038157600080fd5b506101406103903660046127ff565b610770565b3480156103a157600080fd5b506101406103b0366004612ad6565b61077b565b3480156103c157600080fd5b50610308610a30565b3480156103d657600080fd5b506101406103e53660046127ff565b610a3d565b3480156103f657600080fd5b50610430610405366004612ad6565b6001600160a01b03908116600090815260056020908152604080832094835293905291909120541690565b6040516101c19190612c4d565b61014061044b36600461281c565b610a49565b61045b816001610a56565b50565b600154600161046e600054610f27565b516104799190612fd5565b808211156104a25760405162461bcd60e51b815260040161049990612d97565b60405180910390fd5b6104ae83600054611118565b505050565b6104bd828261147f565b5050565b61045b816001611598565b60006104da82600054611a29565b92915050565b6104ae838383600054611c1a565b606060006104fd836001611fe9565b91509150915091565b606082610512856106e7565b1161052c57506040805160008152602081019091526106a5565b818084610538876106e7565b6105429190612fd5565b101561055f5783610552866106e7565b61055c9190612fd5565b90505b6000816001600160401b038111156105795761057961309a565b6040519080825280602002602001820160405280156105a2578160200160208202803683370190505b506001600160a01b03871660009081526005602090815260408083206001018054825181850281018501909352808352949550929390929183018282801561060957602002820191906000526020600020905b8154815260200190600101908083116105f5575b5050505050905060008060005b835181101561069c5787831061062b5761069c565b818911156106455761063e600183612fbd565b915061068a565b83818151811061065757610657613084565b602002602001015185848151811061067157610671613084565b6020908102919091010152610687600184612fbd565b92505b8061069481613053565b915050610616565b50929450505050505b9392505050565b60006104da826001611a29565b6060806104fd836000546121e6565b6060806104fd8360016121e6565b60606106e26001610f27565b905090565b6001600160a01b031660009081526005602052604090206001015490565b610711816000546123f3565b151560011415610754576001610728600054610f27565b516107339190612fd5565b60015411156107545760405162461bcd60e51b815260040161049990612d97565b61045b81600054611598565b606060006104fd83600054611fe9565b61045b816001611118565b610784336106ac565b15156001146107a55760405162461bcd60e51b815260040161049990612e0e565b6001600160a01b03818116600090815260056020908152604080832086845290915290205482918491163314806107e45750336001600160a01b038316145b6108195760405162461bcd60e51b8152600401610499906020808252600490820152631150cc4d60e21b604082015260600190565b6001600160a01b0380841660008181526005602081815260408084208a85528083528185205495855292825260019092018054835181840281018401909452808452949095169492939192919083018282801561089557602002820191906000526020600020905b815481526020019060010190808311610881575b5050505050905060005b81518110156109bc578181815181106108ba576108ba613084565b60200260200101518714156109aa576001600160a01b038616600090815260056020526040908190209051635b28cf6360e01b815273__Library_______________________________91635b28cf639161091f918591600190910190600401612f24565b60006040518083038186803b15801561093757600080fd5b505af415801561094b573d6000803e3d6000fd5b505050506040513d6000823e601f3d908101601f191682016040526109739190810190612975565b6001600160a01b038716600090815260056020908152604090912082516109a49360019092019291909101906126ca565b506109bc565b806109b481613053565b91505061089f565b506001600160a01b03851660009081526005602090815260408083208984529091529081902080546001600160a01b0319169055517fd12847594abf0621035046f61129f2a9dc5093eb516c6c517ece306362ef6f1790610a209084908890612c61565b60405180910390a1505050505050565b60606106e2600054610f27565b61045b81600054610a56565b6104ae8383836001611c1a565b60025460405163123bd07560e11b815282919073__Library_______________________________90632477a0ea90610a959085908590600401612d65565b60206040518083038186803b158015610aad57600080fd5b505af4158015610ac1573d6000803e3d6000fd5b505050506040513d601f19601f82011682018060405250810190610ae59190612aa0565b1515600114610b065760405162461bcd60e51b815260040161049990612e49565b610b1233600054611a29565b1515600114610b335760405162461bcd60e51b815260040161049990612e2c565b60018484610b41828261255f565b151560011480610b5c5750610b5682826123f3565b15156001145b610b785760405162461bcd60e51b815260040161049990612df0565b8686600073__AddressLibrary________________________634d84c524846040518263ffffffff1660e01b8152600401610bb39190612c4d565b60206040518083038186803b158015610bcb57600080fd5b505af4158015610bdf573d6000803e3d6000fd5b505050506040513d601f19601f82011682018060405250810190610c039190612abd565b905073__ItemsLibrary__________________________637b6d23de338360028681548110610c3457610c34613084565b90600052602060002090600402016040518463ffffffff1660e01b8152600401610c6093929190612c7b565b60206040518083038186803b158015610c7857600080fd5b505af4158015610c8c573d6000803e3d6000fd5b505050506040513d601f19601f82011682018060405250810190610cb09190612aa0565b15610ccd5760405162461bcd60e51b815260040161049990612dd3565b604051631361314960e21b815260009073__AddressLibrary________________________90634d84c52490610d07908e90600401612c4d565b60206040518083038186803b158015610d1f57600080fd5b505af4158015610d33573d6000803e3d6000fd5b505050506040513d601f19601f82011682018060405250810190610d579190612abd565b60408051600180825281830190925291925060009190602080830190803683370190505090508a81600081518110610d9157610d91613084565b60200260200101818152505060006040518060c00160405280848152602001604051806020016040528060008152508152602001600154815260200160038e81548110610de057610de0613084565b906000526020600020018054610df590613018565b80601f0160208091040260200160405190810160405280929190818152602001828054610e2190613018565b8015610e6e5780601f10610e4357610100808354040283529160200191610e6e565b820191906000526020600020905b815481529060010190602001808311610e5157829003601f168201915b50505050508152602001838152602001600115158152509050600060028d81548110610e9c57610e9c613084565b9060005260206000209060040201905073__ItemsLibrary__________________________635cb09bcf8383306040518463ffffffff1660e01b8152600401610ee793929190612e66565b60006040518083038186803b158015610eff57600080fd5b505af4158015610f13573d6000803e3d6000fd5b505050505050505050505050505050505050565b60025460405163123bd07560e11b8152606091839173__Library_______________________________90632477a0ea90610f689085908590600401612d65565b60206040518083038186803b158015610f8057600080fd5b505af4158015610f94573d6000803e3d6000fd5b505050506040513d601f19601f82011682018060405250810190610fb89190612aa0565b1515600114610fd95760405162461bcd60e51b815260040161049990612e49565b73__AddressLibrary________________________635f2e8a5d73__ItemsLibrary__________________________6327724f4b6002888154811061102057611020613084565b90600052602060002090600402016040518263ffffffff1660e01b815260040161104c91815260200190565b60006040518083038186803b15801561106457600080fd5b505af4158015611078573d6000803e3d6000fd5b505050506040513d6000823e601f3d908101601f191682016040526110a09190810190612975565b6040518263ffffffff1660e01b81526004016110bc9190612d21565b60006040518083038186803b1580156110d457600080fd5b505af41580156110e8573d6000803e3d6000fd5b505050506040513d6000823e601f3d908101601f1916820160405261111091908101906128d5565b949350505050565b60025460405163123bd07560e11b815282919073__Library_______________________________90632477a0ea906111579085908590600401612d65565b60206040518083038186803b15801561116f57600080fd5b505af4158015611183573d6000803e3d6000fd5b505050506040513d601f19601f820116820180604052508101906111a79190612aa0565b15156001146111c85760405162461bcd60e51b815260040161049990612e49565b6111d433600054611a29565b15156001146111f55760405162461bcd60e51b815260040161049990612e2c565b600184846112038282611a29565b151560011461123a5760405162461bcd60e51b815260206004820152600360248201526245433760e81b6044820152606401610499565b6000878761124882826123f3565b156112655760405162461bcd60e51b815260040161049990612db5565b604051631361314960e21b815260009073__AddressLibrary________________________90634d84c5249061129f908e90600401612c4d565b60206040518083038186803b1580156112b757600080fd5b505af41580156112cb573d6000803e3d6000fd5b505050506040513d601f19601f820116820180604052508101906112ef9190612abd565b60408051600180825281830190925291925060009190602080830190803683370190505090508a8160008151811061132957611329613084565b60200260200101818152505060006040518060c00160405280848152602001604051806020016040528060008152508152602001600154815260200160038e8154811061137857611378613084565b90600052602060002001805461138d90613018565b80601f01602080910402602001604051908101604052809291908181526020018280546113b990613018565b80156114065780601f106113db57610100808354040283529160200191611406565b820191906000526020600020905b8154815290600101906020018083116113e957829003601f168201915b50505050508152602001838152602001600115158152509050600060028d8154811061143457611434613084565b9060005260206000209060040201905073__ItemsLibrary__________________________63e23fcdef8383306040518463ffffffff1660e01b8152600401610ee793929190612e66565b611488336106ac565b15156001146114a95760405162461bcd60e51b815260040161049990612e0e565b816001600160a01b03808316600090815260056020908152604080832087845290915290205483918591161561150a5760405162461bcd60e51b8152600401610499906020808252600490820152634543313560e01b604082015260600190565b6001600160a01b038416600090815260056020818152604080842089855280835281852080546001600160a01b031916339081179091559383526001908101805491820181558552919093200187905590517f601cb9a073dbfa468ef12878ee6c720641a49b76af7c16099e8c0a1ac3ca79b591611589918790612c61565b60405180910390a15050505050565b60025460405163123bd07560e11b815282919073__Library_______________________________90632477a0ea906115d79085908590600401612d65565b60206040518083038186803b1580156115ef57600080fd5b505af4158015611603573d6000803e3d6000fd5b505050506040513d601f19601f820116820180604052508101906116279190612aa0565b15156001146116485760405162461bcd60e51b815260040161049990612e49565b61165433600054611a29565b15156001146116755760405162461bcd60e51b815260040161049990612e2c565b60018484611683828261255f565b15156001148061169e575061169882826123f3565b15156001145b6116ba5760405162461bcd60e51b815260040161049990612df0565b8686600073__AddressLibrary________________________634d84c524846040518263ffffffff1660e01b81526004016116f59190612c4d565b60206040518083038186803b15801561170d57600080fd5b505af4158015611721573d6000803e3d6000fd5b505050506040513d601f19601f820116820180604052508101906117459190612abd565b905073__ItemsLibrary__________________________637b6d23de33836002868154811061177657611776613084565b90600052602060002090600402016040518463ffffffff1660e01b81526004016117a293929190612c7b565b60206040518083038186803b1580156117ba57600080fd5b505af41580156117ce573d6000803e3d6000fd5b505050506040513d601f19601f820116820180604052508101906117f29190612aa0565b1561180f5760405162461bcd60e51b815260040161049990612dd3565b604051631361314960e21b815260009073__AddressLibrary________________________90634d84c52490611849908e90600401612c4d565b60206040518083038186803b15801561186157600080fd5b505af4158015611875573d6000803e3d6000fd5b505050506040513d601f19601f820116820180604052508101906118999190612abd565b60408051600180825281830190925291925060009190602080830190803683370190505090508a816000815181106118d3576118d3613084565b60200260200101818152505060006040518060c00160405280848152602001604051806020016040528060008152508152602001600154815260200160038e8154811061192257611922613084565b90600052602060002001805461193790613018565b80601f016020809104026020016040519081016040528092919081815260200182805461196390613018565b80156119b05780601f10611985576101008083540402835291602001916119b0565b820191906000526020600020905b81548152906001019060200180831161199357829003601f168201915b50505050508152602001838152602001600115158152509050600060028d815481106119de576119de613084565b9060005260206000209060040201905073__ItemsLibrary__________________________637493a70b8383306040518463ffffffff1660e01b8152600401610ee793929190612e66565b60025460405163123bd07560e11b8152600091839173__Library_______________________________90632477a0ea90611a6a9085908590600401612d65565b60206040518083038186803b158015611a8257600080fd5b505af4158015611a96573d6000803e3d6000fd5b505050506040513d601f19601f82011682018060405250810190611aba9190612aa0565b1515600114611adb5760405162461bcd60e51b815260040161049990612e49565b604051631361314960e21b815260009073__AddressLibrary________________________90634d84c52490611b15908990600401612c4d565b60206040518083038186803b158015611b2d57600080fd5b505af4158015611b41573d6000803e3d6000fd5b505050506040513d601f19601f82011682018060405250810190611b659190612abd565b905073__ItemsLibrary__________________________63dbdfbeec8260028881548110611b9557611b95613084565b90600052602060002090600402016040518363ffffffff1660e01b8152600401611bc0929190612d65565b60206040518083038186803b158015611bd857600080fd5b505af4158015611bec573d6000803e3d6000fd5b505050506040513d601f19601f82011682018060405250810190611c109190612aa0565b9695505050505050565b60025460405163123bd07560e11b815282919073__Library_______________________________90632477a0ea90611c599085908590600401612d65565b60206040518083038186803b158015611c7157600080fd5b505af4158015611c85573d6000803e3d6000fd5b505050506040513d601f19601f82011682018060405250810190611ca99190612aa0565b1515600114611cca5760405162461bcd60e51b815260040161049990612e49565b611cd633600054611a29565b1515600114611cf75760405162461bcd60e51b815260040161049990612e2c565b60008684611d058282611a29565b15611d385760405162461bcd60e51b815260206004820152600360248201526222a19b60e91b6044820152606401610499565b60008987611d46828261255f565b15611d635760405162461bcd60e51b815260040161049990612db5565b600073__AddressLibrary________________________634d84c5248e6040518263ffffffff1660e01b8152600401611d9c9190612c4d565b60206040518083038186803b158015611db457600080fd5b505af4158015611dc8573d6000803e3d6000fd5b505050506040513d601f19601f82011682018060405250810190611dec9190612abd565b60408051600180825281830190925291925060009190602080830190803683370190505090508a81600081518110611e2657611e26613084565b60200260200101818152505060006040518060c001604052808481526020018f8f8080601f0160208091040260200160405190810160405280939291908181526020018383808284376000920191909152505050908252506001546020820152600380546040909201918f908110611ea057611ea0613084565b906000526020600020018054611eb590613018565b80601f0160208091040260200160405190810160405280929190818152602001828054611ee190613018565b8015611f2e5780601f10611f0357610100808354040283529160200191611f2e565b820191906000526020600020905b815481529060010190602001808311611f1157829003601f168201915b50505050508152602001838152602001600115158152509050600060028d81548110611f5c57611f5c613084565b9060005260206000209060040201905073__ItemsLibrary__________________________630b985aaa8383306040518463ffffffff1660e01b8152600401611fa793929190612e66565b60006040518083038186803b158015611fbf57600080fd5b505af4158015611fd3573d6000803e3d6000fd5b5050505050505050505050505050505050505050565b60025460405163123bd07560e11b815260609160009184919073__Library_______________________________90632477a0ea9061202e9085908590600401612d65565b60206040518083038186803b15801561204657600080fd5b505af415801561205a573d6000803e3d6000fd5b505050506040513d601f19601f8201168201806040525081019061207e9190612aa0565b151560011461209f5760405162461bcd60e51b815260040161049990612e49565b604051631361314960e21b815260009073__AddressLibrary________________________90634d84c524906120d9908a90600401612c4d565b60206040518083038186803b1580156120f157600080fd5b505af4158015612105573d6000803e3d6000fd5b505050506040513d601f19601f820116820180604052508101906121299190612abd565b905073__ItemsLibrary__________________________631aeccc6a826002898154811061215957612159613084565b90600052602060002090600402016040518363ffffffff1660e01b8152600401612184929190612d65565b60006040518083038186803b15801561219c57600080fd5b505af41580156121b0573d6000803e3d6000fd5b505050506040513d6000823e601f3d908101601f191682016040526121d89190810190612b97565b945094505050509250929050565b60025460405163123bd07560e11b8152606091829184919073__Library_______________________________90632477a0ea9061222a9085908590600401612d65565b60206040518083038186803b15801561224257600080fd5b505af4158015612256573d6000803e3d6000fd5b505050506040513d601f19601f8201168201806040525081019061227a9190612aa0565b151560011461229b5760405162461bcd60e51b815260040161049990612e49565b60608073__ItemsLibrary__________________________63e035e0068960028a815481106122cc576122cc613084565b90600052602060002090600402016040518363ffffffff1660e01b81526004016123029291909115158252602082015260400190565b60006040518083038186803b15801561231a57600080fd5b505af415801561232e573d6000803e3d6000fd5b505050506040513d6000823e601f3d908101601f1916820160405261235691908101906129a9565b604051635f2e8a5d60e01b8152919350915073__AddressLibrary________________________90635f2e8a5d90612392908590600401612d21565b60006040518083038186803b1580156123aa57600080fd5b505af41580156123be573d6000803e3d6000fd5b505050506040513d6000823e601f3d908101601f191682016040526123e691908101906128d5565b9890975095505050505050565b60025460405163123bd07560e11b8152600091839173__Library_______________________________90632477a0ea906124349085908590600401612d65565b60206040518083038186803b15801561244c57600080fd5b505af4158015612460573d6000803e3d6000fd5b505050506040513d601f19601f820116820180604052508101906124849190612aa0565b15156001146124a55760405162461bcd60e51b815260040161049990612e49565b604051631361314960e21b815260009073__AddressLibrary________________________90634d84c524906124df908990600401612c4d565b60206040518083038186803b1580156124f757600080fd5b505af415801561250b573d6000803e3d6000fd5b505050506040513d601f19601f8201168201806040525081019061252f9190612abd565b905073__ItemsLibrary__________________________632854ed2e8260028881548110611b9557611b95613084565b60025460405163123bd07560e11b8152600091839173__Library_______________________________90632477a0ea906125a09085908590600401612d65565b60206040518083038186803b1580156125b857600080fd5b505af41580156125cc573d6000803e3d6000fd5b505050506040513d601f19601f820116820180604052508101906125f09190612aa0565b15156001146126115760405162461bcd60e51b815260040161049990612e49565b604051631361314960e21b815260009073__AddressLibrary________________________90634d84c5249061264b908990600401612c4d565b60206040518083038186803b15801561266357600080fd5b505af4158015612677573d6000803e3d6000fd5b505050506040513d601f19601f8201168201806040525081019061269b9190612abd565b905073__ItemsLibrary__________________________6226d7668260028881548110611b9557611b95613084565b828054828255906000526020600020908101928215612705579160200282015b828111156127055782518255916020019190600101906126ea565b50612711929150612715565b5090565b5b808211156127115760008155600101612716565b600082601f83011261273b57600080fd5b8151602061275061274b83612f9a565b612f6a565b80838252828201915082860187848660051b890101111561277057600080fd5b60005b8581101561278f57815184529284019290840190600101612773565b5090979650505050505050565b600082601f8301126127ad57600080fd5b81516001600160401b038111156127c6576127c661309a565b6127d9601f8201601f1916602001612f6a565b8181528460208386010111156127ee57600080fd5b611110826020830160208701612fec565b60006020828403121561281157600080fd5b81356106a5816130b0565b60008060006040848603121561283157600080fd5b833561283c816130b0565b925060208401356001600160401b038082111561285857600080fd5b818601915086601f83011261286c57600080fd5b81358181111561287b57600080fd5b87602082850101111561288d57600080fd5b6020830194508093505050509250925092565b6000806000606084860312156128b557600080fd5b83356128c0816130b0565b95602085013595506040909401359392505050565b600060208083850312156128e857600080fd5b82516001600160401b038111156128fe57600080fd5b8301601f8101851361290f57600080fd5b805161291d61274b82612f9a565b80828252848201915084840188868560051b870101111561293d57600080fd5b600094505b83851015612969578051612955816130b0565b835260019490940193918501918501612942565b50979650505050505050565b60006020828403121561298757600080fd5b81516001600160401b0381111561299d57600080fd5b6111108482850161272a565b600080604083850312156129bc57600080fd5b82516001600160401b03808211156129d357600080fd5b6129df8683870161272a565b93506020915081850151818111156129f657600080fd5b8501601f81018713612a0757600080fd5b8051612a1561274b82612f9a565b8082825285820191508584018a878560051b8701011115612a3557600080fd5b6000805b85811015612a7057825188811115612a4f578283fd5b612a5d8e8b838b010161279c565b8652509388019391880191600101612a39565b5050508096505050505050509250929050565b600060208284031215612a9557600080fd5b81356106a5816130c5565b600060208284031215612ab257600080fd5b81516106a5816130c5565b600060208284031215612acf57600080fd5b5051919050565b60008060408385031215612ae957600080fd5b823591506020830135612afb816130b0565b809150509250929050565b60008060008060608587031215612b1c57600080fd5b8435935060208501356001600160401b0380821115612b3a57600080fd5b818701915087601f830112612b4e57600080fd5b813581811115612b5d57600080fd5b8860208260051b8501011115612b7257600080fd5b6020830195508094505050506040850135612b8c816130c5565b939692955090935050565b60008060408385031215612baa57600080fd5b82516001600160401b03811115612bc057600080fd5b612bcc8582860161279c565b9250506020830151612afb816130c5565b600081518084526020808501945080840160005b83811015612c165781516001600160a01b031687529582019590820190600101612bf1565b509495945050505050565b60008151808452612c39816020860160208601612fec565b601f01601f19169290920160200192915050565b6001600160a01b0391909116815260200190565b6001600160a01b0392831681529116602082015260400190565b6001600160a01b039390931683526020830191909152604082015260600190565b6020815260006106a56020830184612bdd565b604081526000612cc26040830185612bdd565b6020838203818501528185518084528284019150828160051b85010183880160005b83811015612d1257601f19878403018552612d00838351612c21565b94860194925090850190600101612ce4565b50909998505050505050505050565b6020808252825182820181905260009190848201906040850190845b81811015612d5957835183529284019291840191600101612d3d565b50909695505050505050565b918252602082015260400190565b604081526000612d866040830185612c21565b905082151560208301529392505050565b6020808252600490820152634543313960e01b604082015260600190565b6020808252600490820152634543323760e01b604082015260600190565b60208082526003908201526245433560e81b604082015260600190565b60208082526004908201526308a8664760e31b604082015260600190565b60208082526004908201526322a1989960e11b604082015260600190565b60208082526003908201526245433960e81b604082015260600190565b60208082526003908201526245433160e81b604082015260600190565b6060815283516060820152600060208086015160c06080850152612e8e610120850182612c21565b9050604087015160a08501526060870151605f19808684030160c0870152612eb68383612c21565b60808a015187820390920160e088015281518082529185019350600092508401905b80831015612ef85783518252928401926001929092019190840190612ed8565b5060a0890151151561010087015292850187905250506001600160a01b03841660408401529050611110565b60006040820184835260206040818501528185548084526060860191508660005282600020935060005b8181101561278f57845483526001948501949284019201612f4e565b604051601f8201601f191681016001600160401b0381118282101715612f9257612f9261309a565b604052919050565b60006001600160401b03821115612fb357612fb361309a565b5060051b60200190565b60008219821115612fd057612fd061306e565b500190565b600082821015612fe757612fe761306e565b500390565b60005b83811015613007578181015183820152602001612fef565b838111156102335750506000910152565b600181811c9082168061302c57607f821691505b6020821081141561304d57634e487b7160e01b600052602260045260246000fd5b50919050565b60006000198214156130675761306761306e565b5060010190565b634e487b7160e01b600052601160045260246000fd5b634e487b7160e01b600052603260045260246000fd5b634e487b7160e01b600052604160045260246000fd5b6001600160a01b038116811461045b57600080fd5b801515811461045b57600080fdfea2646970667358221220d0568bf6e7d35c4ad67bbd040a975a249ea51302b116fbc8f93af879dcaa32f564736f6c63430008060033",
  "immutableReferences": {},
  "source": "// SPDX-License-Identifier: GPL-3.0\r\n\r\npragma solidity >=0.7.0 <0.9.0;\r\npragma experimental ABIEncoderV2;\r\n\r\n/**\r\n * @title Storage\r\n * @dev Store & retrieve value in a variable\r\n */\r\n\r\n import \"./Abstract/MultiSigCertificatesPool.sol\";\r\n\r\n contract PrivateCertificatesPool is MultiSigCertificatesPool {\r\n\r\n     constructor(address[] memory owners,  uint256 minOwners) MultiSigCertificatesPool(owners, minOwners) payable {\r\n    }\r\n\r\n    function addProvider(address provider, string calldata providerInfo) external override payable{\r\n        addEntity(provider, providerInfo, _providerId);\r\n    }\r\n\r\n    // Callback functions\r\n\r\n    function onItemValidated(bytes32 item, uint256[] calldata id, bool addOrRemove) public override {}\r\n\r\n    function onItemRejected(bytes32 item, uint256[] calldata id, bool addOrRemove) public override {}\r\n }",
  "sourcePath": "C:\\Users\\d-aam\\GitHub\\Certificates\\contracts\\PrivateCertificatesPool.sol",
  "compiler": {
    "name": "solc",
    "version": "0.8.6+commit.11564f7e.Emscripten.clang"
  },
  "schemaVersion": "3.3.4",
  "updatedAt": "2021-07-28T09:49:03.902Z",
  "devdoc": {
    "kind": "dev",
    "methods": {},
    "version": 1
  },
  "userdoc": {
    "kind": "user",
    "methods": {},
    "version": 1
  }
}