{
  "contractName": "PrivateCertificatesPool",
  "abi": [
    {
      "inputs": [
        {
          "internalType": "address[]",
          "name": "owners",
          "type": "address[]"
        },
        {
          "internalType": "uint256",
          "name": "minOwners",
          "type": "uint256"
        }
      ],
      "stateMutability": "payable",
      "type": "constructor"
    },
    {
      "anonymous": false,
      "inputs": [
        {
          "indexed": false,
          "internalType": "address",
          "name": "",
          "type": "address"
        },
        {
          "indexed": false,
          "internalType": "address",
          "name": "",
          "type": "address"
        }
      ],
      "name": "_AddCertificateIdEvent",
      "type": "event"
    },
    {
      "anonymous": false,
      "inputs": [
        {
          "indexed": true,
          "internalType": "string",
          "name": "",
          "type": "string"
        },
        {
          "indexed": true,
          "internalType": "address",
          "name": "",
          "type": "address"
        },
        {
          "indexed": true,
          "internalType": "string",
          "name": "",
          "type": "string"
        }
      ],
      "name": "_AddEntityRejectionIdEvent",
      "type": "event"
    },
    {
      "anonymous": false,
      "inputs": [
        {
          "indexed": true,
          "internalType": "string",
          "name": "",
          "type": "string"
        },
        {
          "indexed": true,
          "internalType": "address",
          "name": "",
          "type": "address"
        },
        {
          "indexed": true,
          "internalType": "string",
          "name": "",
          "type": "string"
        }
      ],
      "name": "_AddEntityValidationIdEvent",
      "type": "event"
    },
    {
      "anonymous": false,
      "inputs": [
        {
          "indexed": false,
          "internalType": "address",
          "name": "",
          "type": "address"
        },
        {
          "indexed": false,
          "internalType": "address",
          "name": "",
          "type": "address"
        }
      ],
      "name": "_RemoveCertificateIdEvent",
      "type": "event"
    },
    {
      "anonymous": false,
      "inputs": [
        {
          "indexed": true,
          "internalType": "string",
          "name": "",
          "type": "string"
        },
        {
          "indexed": true,
          "internalType": "address",
          "name": "",
          "type": "address"
        },
        {
          "indexed": true,
          "internalType": "string",
          "name": "",
          "type": "string"
        }
      ],
      "name": "_RemoveEntityRejectionIdEvent",
      "type": "event"
    },
    {
      "anonymous": false,
      "inputs": [
        {
          "indexed": true,
          "internalType": "string",
          "name": "",
          "type": "string"
        },
        {
          "indexed": true,
          "internalType": "address",
          "name": "",
          "type": "address"
        },
        {
          "indexed": true,
          "internalType": "string",
          "name": "",
          "type": "string"
        }
      ],
      "name": "_RemoveEntityValidationIdEvent",
      "type": "event"
    },
    {
      "inputs": [
        {
          "internalType": "bytes32",
          "name": "CertificateHash",
          "type": "bytes32"
        },
        {
          "internalType": "address",
          "name": "holder",
          "type": "address"
        }
      ],
      "name": "addCertificate",
      "outputs": [],
      "stateMutability": "payable",
      "type": "function"
    },
    {
      "inputs": [
        {
          "internalType": "address",
          "name": "owner",
          "type": "address"
        },
        {
          "internalType": "string",
          "name": "ownerInfo",
          "type": "string"
        }
      ],
      "name": "addOwner",
      "outputs": [],
      "stateMutability": "nonpayable",
      "type": "function"
    },
    {
      "inputs": [
        {
          "internalType": "address",
          "name": "owner",
          "type": "address"
        }
      ],
      "name": "isOwner",
      "outputs": [
        {
          "internalType": "bool",
          "name": "",
          "type": "bool"
        }
      ],
      "stateMutability": "view",
      "type": "function"
    },
    {
      "inputs": [
        {
          "internalType": "address",
          "name": "provider",
          "type": "address"
        }
      ],
      "name": "isProvider",
      "outputs": [
        {
          "internalType": "bool",
          "name": "",
          "type": "bool"
        }
      ],
      "stateMutability": "view",
      "type": "function"
    },
    {
      "inputs": [
        {
          "internalType": "address",
          "name": "owner",
          "type": "address"
        }
      ],
      "name": "rejectOwner",
      "outputs": [],
      "stateMutability": "nonpayable",
      "type": "function"
    },
    {
      "inputs": [
        {
          "internalType": "address",
          "name": "provider",
          "type": "address"
        }
      ],
      "name": "rejectProvider",
      "outputs": [],
      "stateMutability": "nonpayable",
      "type": "function"
    },
    {
      "inputs": [
        {
          "internalType": "bytes32",
          "name": "CertificateHash",
          "type": "bytes32"
        },
        {
          "internalType": "address",
          "name": "holder",
          "type": "address"
        }
      ],
      "name": "removeCertificate",
      "outputs": [],
      "stateMutability": "nonpayable",
      "type": "function"
    },
    {
      "inputs": [
        {
          "internalType": "address",
          "name": "owner",
          "type": "address"
        }
      ],
      "name": "removeOwner",
      "outputs": [],
      "stateMutability": "nonpayable",
      "type": "function"
    },
    {
      "inputs": [
        {
          "internalType": "address",
          "name": "provider",
          "type": "address"
        }
      ],
      "name": "removeProvider",
      "outputs": [],
      "stateMutability": "nonpayable",
      "type": "function"
    },
    {
      "inputs": [],
      "name": "retrieveAllOwners",
      "outputs": [
        {
          "internalType": "address[]",
          "name": "",
          "type": "address[]"
        }
      ],
      "stateMutability": "view",
      "type": "function"
    },
    {
      "inputs": [],
      "name": "retrieveAllProviders",
      "outputs": [
        {
          "internalType": "address[]",
          "name": "",
          "type": "address[]"
        }
      ],
      "stateMutability": "view",
      "type": "function"
    },
    {
      "inputs": [
        {
          "internalType": "bytes32",
          "name": "CertificateHash",
          "type": "bytes32"
        },
        {
          "internalType": "address",
          "name": "holder",
          "type": "address"
        }
      ],
      "name": "retrieveCertificateProvider",
      "outputs": [
        {
          "internalType": "address",
          "name": "",
          "type": "address"
        }
      ],
      "stateMutability": "view",
      "type": "function"
    },
    {
      "inputs": [
        {
          "internalType": "address",
          "name": "holder",
          "type": "address"
        },
        {
          "internalType": "uint256",
          "name": "skipFirst",
          "type": "uint256"
        },
        {
          "internalType": "uint256",
          "name": "max",
          "type": "uint256"
        }
      ],
      "name": "retrieveCertificatesByHolder",
      "outputs": [
        {
          "internalType": "bytes32[]",
          "name": "",
          "type": "bytes32[]"
        }
      ],
      "stateMutability": "view",
      "type": "function"
    },
    {
      "inputs": [],
      "name": "retrieveMinOwners",
      "outputs": [
        {
          "internalType": "uint256",
          "name": "",
          "type": "uint256"
        }
      ],
      "stateMutability": "view",
      "type": "function"
    },
    {
      "inputs": [
        {
          "internalType": "address",
          "name": "owner",
          "type": "address"
        }
      ],
      "name": "retrieveOwner",
      "outputs": [
        {
          "internalType": "string",
          "name": "",
          "type": "string"
        },
        {
          "internalType": "bool",
          "name": "",
          "type": "bool"
        }
      ],
      "stateMutability": "view",
      "type": "function"
    },
    {
      "inputs": [
        {
          "internalType": "bool",
          "name": "addedORremove",
          "type": "bool"
        }
      ],
      "name": "retrievePendingOwners",
      "outputs": [
        {
          "internalType": "address[]",
          "name": "",
          "type": "address[]"
        },
        {
          "internalType": "string[]",
          "name": "",
          "type": "string[]"
        }
      ],
      "stateMutability": "view",
      "type": "function"
    },
    {
      "inputs": [
        {
          "internalType": "bool",
          "name": "addedORremove",
          "type": "bool"
        }
      ],
      "name": "retrievePendingProviders",
      "outputs": [
        {
          "internalType": "address[]",
          "name": "",
          "type": "address[]"
        },
        {
          "internalType": "string[]",
          "name": "",
          "type": "string[]"
        }
      ],
      "stateMutability": "view",
      "type": "function"
    },
    {
      "inputs": [
        {
          "internalType": "address",
          "name": "provider",
          "type": "address"
        }
      ],
      "name": "retrieveProvider",
      "outputs": [
        {
          "internalType": "string",
          "name": "",
          "type": "string"
        },
        {
          "internalType": "bool",
          "name": "",
          "type": "bool"
        }
      ],
      "stateMutability": "view",
      "type": "function"
    },
    {
      "inputs": [
        {
          "internalType": "address",
          "name": "holder",
          "type": "address"
        }
      ],
      "name": "retrieveTotalCertificatesByHolder",
      "outputs": [
        {
          "internalType": "uint256",
          "name": "",
          "type": "uint256"
        }
      ],
      "stateMutability": "view",
      "type": "function"
    },
    {
      "inputs": [
        {
          "internalType": "address",
          "name": "owner",
          "type": "address"
        }
      ],
      "name": "validateOwner",
      "outputs": [],
      "stateMutability": "nonpayable",
      "type": "function"
    },
    {
      "inputs": [
        {
          "internalType": "address",
          "name": "provider",
          "type": "address"
        }
      ],
      "name": "validateProvider",
      "outputs": [],
      "stateMutability": "nonpayable",
      "type": "function"
    },
    {
      "inputs": [
        {
          "internalType": "address",
          "name": "provider",
          "type": "address"
        },
        {
          "internalType": "string",
          "name": "providerInfo",
          "type": "string"
        }
      ],
      "name": "addProvider",
      "outputs": [],
      "stateMutability": "payable",
      "type": "function"
    },
    {
      "inputs": [
        {
          "internalType": "bytes32",
          "name": "item",
          "type": "bytes32"
        },
        {
          "internalType": "string",
          "name": "id",
          "type": "string"
        },
        {
          "internalType": "bool",
          "name": "addOrRemove",
          "type": "bool"
        }
      ],
      "name": "onItemValidated",
      "outputs": [],
      "stateMutability": "nonpayable",
      "type": "function"
    },
    {
      "inputs": [
        {
          "internalType": "bytes32",
          "name": "item",
          "type": "bytes32"
        },
        {
          "internalType": "string",
          "name": "id",
          "type": "string"
        },
        {
          "internalType": "bool",
          "name": "addOrRemove",
          "type": "bool"
        }
      ],
      "name": "onItemRejected",
      "outputs": [],
      "stateMutability": "nonpayable",
      "type": "function"
    }
  ],
  "bytecode": "0x600560c09081526427bbb732b960d91b60e0526080908152610140604052600861010090815267283937bb34b232b960c11b6101205260a05262000048906004906002620003fd565b5060405162003e0838038062003e088339810160408190526200006b9162000583565b8181818160026004805480602002602001604051908101604052809291908181526020016000905b8282101562000149578382906000526020600020018054620000b5906200067e565b80601f0160208091040260200160405190810160405280929190818152602001828054620000e3906200067e565b8015620001345780601f10620001085761010080835404028352916020019162000134565b820191906000526020600020905b8154815290600101906020018083116200011657829003601f168201915b50505050508152602001906001019062000093565b5050505060008451841115620001945760405162461bcd60e51b81526004016200018b9060208082526004908201526322a1989b60e11b604082015260600190565b60405180910390fd5b60008411620001cf5760405162461bcd60e51b81526004016200018b906020808252600490820152634543313760e01b604082015260600190565b815183146200020a5760405162461bcd60e51b81526004016200018b9060208082526004908201526308a8662760e31b604082015260600190565b60008181555b83811015620002895760028054600101815560005282516003908490839081106200023f576200023f620006e5565b6020908102919091018101518254600181018455600093845292829020815162000273949190910192919091019062000461565b50806200028081620006bb565b91505062000210565b50600184905560005b8551811015620003ed57600073__AddressLibrary________________________634d84c524888481518110620002cd57620002cd620006e5565b60200260200101516040518263ffffffff1660e01b81526004016200030191906001600160a01b0391909116815260200190565b60206040518083038186803b1580156200031a57600080fd5b505af41580156200032f573d6000803e3d6000fd5b505050506040513d601f19601f8201168201806040525081019062000355919062000664565b90506001600260005481548110620003715762000371620006e5565b60009182526020808320858452600492909202909101905260408120805460ff19169215159290921790915554600280549091908110620003b657620003b6620006e5565b6000918252602080832060016004909302018201805492830181558352909120015580620003e481620006bb565b91505062000292565b5050505050505050505062000711565b8280548282559060005260206000209081019282156200044f579160200282015b828111156200044f57825180516200043e91849160209091019062000461565b50916020019190600101906200041e565b506200045d929150620004ec565b5090565b8280546200046f906200067e565b90600052602060002090601f016020900481019282620004935760008555620004de565b82601f10620004ae57805160ff1916838001178555620004de565b82800160010185558215620004de579182015b82811115620004de578251825591602001919060010190620004c1565b506200045d9291506200050d565b808211156200045d57600062000503828262000524565b50600101620004ec565b5b808211156200045d57600081556001016200050e565b50805462000532906200067e565b6000825580601f1062000543575050565b601f0160209004906000526020600020908101906200056391906200050d565b50565b80516001600160a01b03811681146200057e57600080fd5b919050565b600080604083850312156200059757600080fd5b82516001600160401b0380821115620005af57600080fd5b818501915085601f830112620005c457600080fd5b8151602082821115620005db57620005db620006fb565b8160051b604051601f19603f83011681018181108682111715620006035762000603620006fb565b604052838152828101945085830182870184018b10156200062357600080fd5b600096505b8487101562000651576200063c8162000566565b86526001969096019594830194830162000628565b5097909101519698969750505050505050565b6000602082840312156200067757600080fd5b5051919050565b600181811c908216806200069357607f821691505b60208210811415620006b557634e487b7160e01b600052602260045260246000fd5b50919050565b6000600019821415620006de57634e487b7160e01b600052601160045260246000fd5b5060010190565b634e487b7160e01b600052603260045260246000fd5b634e487b7160e01b600052604160045260246000fd5b6136e780620007216000396000f3fe60806040526004361061011b5760003560e01c80630b4c72a914610120578063173825d9146101425780631ab807f81461016257806327a40b4b146101755780632f54bf6e146101955780633542758f146101ca57806337583499146101ea57806358a1ba251461021857806365b973e5146102455780636b074a07146102645780636b299604146102845780636b3a0fec146102b25780636e4f9179146102d25780636e55d2d4146102f457806376f8f90f1461031457806377bc5a1f146103345780638a355a5714610354578063a73db28a14610374578063a93d5ed614610394578063abb3d70b146103a9578063ce33d58a146103ca578063d0a4adfe146103ea578063f7db3f8a146103a9578063fc0005001461043d575b600080fd5b34801561012c57600080fd5b5061014061013b366004612dee565b610450565b005b34801561014e57600080fd5b5061014061015d366004612dee565b61045e565b610140610170366004613095565b6104b3565b34801561018157600080fd5b50610140610190366004612dee565b6104c1565b3480156101a157600080fd5b506101b56101b0366004612dee565b6104cc565b60405190151581526020015b60405180910390f35b3480156101d657600080fd5b506101406101e5366004612e0b565b6104e0565b3480156101f657600080fd5b5061020a610205366004612dee565b6104ee565b6040516101c1929190613405565b34801561022457600080fd5b50610238610233366004612e5f565b610506565b6040516101c1919061339a565b34801561025157600080fd5b506001545b6040519081526020016101c1565b34801561027057600080fd5b506101b561027f366004612dee565b6106ac565b34801561029057600080fd5b506102a461029f366004613042565b6106b9565b6040516101c1929190613328565b3480156102be57600080fd5b506102a46102cd366004613042565b6106c8565b3480156102de57600080fd5b506102e76106d6565b6040516101c19190613315565b34801561030057600080fd5b5061025661030f366004612dee565b6106e7565b34801561032057600080fd5b5061014061032f366004612dee565b610705565b34801561034057600080fd5b5061020a61034f366004612dee565b610760565b34801561036057600080fd5b5061014061036f366004612dee565b610770565b34801561038057600080fd5b5061014061038f366004613095565b61077b565b3480156103a057600080fd5b506102e7610a30565b3480156103b557600080fd5b506101406103c43660046130c5565b50505050565b3480156103d657600080fd5b506101406103e5366004612dee565b610a3d565b3480156103f657600080fd5b50610430610405366004613095565b6001600160a01b03908116600090815260056020908152604080832094835293905291909120541690565b6040516101c191906132c6565b61014061044b366004612e0b565b610a49565b61045b816001610a56565b50565b600154600161046e600054610ecb565b5161047991906135b3565b808211156104a25760405162461bcd60e51b815260040161049990613429565b60405180910390fd5b6104ae836000546110bc565b505050565b6104bd82826113c8565b5050565b61045b8160016114e1565b60006104da82600054611917565b92915050565b6104ae838383600054611b08565b606060006104fd836001611e29565b91509150915091565b606082610512856106e7565b1161052c57506040805160008152602081019091526106a5565b818084610538876106e7565b61054291906135b3565b101561055f5783610552866106e7565b61055c91906135b3565b90505b6000816001600160401b0381111561057957610579613678565b6040519080825280602002602001820160405280156105a2578160200160208202803683370190505b506001600160a01b03871660009081526005602090815260408083206001018054825181850281018501909352808352949550929390929183018282801561060957602002820191906000526020600020905b8154815260200190600101908083116105f5575b5050505050905060008060005b835181101561069c5787831061062b5761069c565b818911156106455761063e60018361359b565b915061068a565b83818151811061065757610657613662565b602002602001015185848151811061067157610671613662565b602090810291909101015261068760018461359b565b92505b8061069481613631565b915050610616565b50929450505050505b9392505050565b60006104da826001611917565b6060806104fd83600054612026565b6060806104fd836001612026565b60606106e26001610ecb565b905090565b6001600160a01b031660009081526005602052604090206001015490565b61071181600054612233565b151560011415610754576001610728600054610ecb565b5161073391906135b3565b60015411156107545760405162461bcd60e51b815260040161049990613429565b61045b816000546114e1565b606060006104fd83600054611e29565b61045b8160016110bc565b610784336106ac565b15156001146107a55760405162461bcd60e51b8152600401610499906134a0565b6001600160a01b03818116600090815260056020908152604080832086845290915290205482918491163314806107e45750336001600160a01b038316145b6108195760405162461bcd60e51b8152600401610499906020808252600490820152631150cc4d60e21b604082015260600190565b6001600160a01b0380841660008181526005602081815260408084208a85528083528185205495855292825260019092018054835181840281018401909452808452949095169492939192919083018282801561089557602002820191906000526020600020905b815481526020019060010190808311610881575b5050505050905060005b81518110156109bc578181815181106108ba576108ba613662565b60200260200101518714156109aa576001600160a01b038616600090815260056020526040908190209051635b28cf6360e01b815273__Library_______________________________91635b28cf639161091f9185916001909101906004016133de565b60006040518083038186803b15801561093757600080fd5b505af415801561094b573d6000803e3d6000fd5b505050506040513d6000823e601f3d908101601f191682016040526109739190810190612f34565b6001600160a01b038716600090815260056020908152604090912082516109a4936001909201929190910190612baa565b506109bc565b806109b481613631565b91505061089f565b506001600160a01b03851660009081526005602090815260408083208984529091529081902080546001600160a01b0319169055517fd12847594abf0621035046f61129f2a9dc5093eb516c6c517ece306362ef6f1790610a2090849088906132da565b60405180910390a1505050505050565b60606106e2600054610ecb565b61045b81600054610a56565b6104ae8383836001611b08565b60025460405163123bd07560e11b815282919073__Library_______________________________90632477a0ea90610a9590859085906004016133f7565b60206040518083038186803b158015610aad57600080fd5b505af4158015610ac1573d6000803e3d6000fd5b505050506040513d601f19601f82011682018060405250810190610ae5919061305f565b1515600114610b065760405162461bcd60e51b8152600401610499906134db565b610b1233600054611917565b1515600114610b335760405162461bcd60e51b8152600401610499906134be565b60018484610b41828261239f565b151560011480610b5c5750610b568282612233565b15156001145b610b785760405162461bcd60e51b815260040161049990613482565b8686600073__AddressLibrary________________________634d84c524846040518263ffffffff1660e01b8152600401610bb391906132c6565b60206040518083038186803b158015610bcb57600080fd5b505af4158015610bdf573d6000803e3d6000fd5b505050506040513d601f19601f82011682018060405250810190610c03919061307c565b905073__ItemsLibrary__________________________637b6d23de338360028681548110610c3457610c34613662565b90600052602060002090600402016040518463ffffffff1660e01b8152600401610c60939291906132f4565b60206040518083038186803b158015610c7857600080fd5b505af4158015610c8c573d6000803e3d6000fd5b505050506040513d601f19601f82011682018060405250810190610cb0919061305f565b15610ccd5760405162461bcd60e51b815260040161049990613465565b604051631361314960e21b815260009073__AddressLibrary________________________90634d84c52490610d07908e906004016132c6565b60206040518083038186803b158015610d1f57600080fd5b505af4158015610d33573d6000803e3d6000fd5b505050506040513d601f19601f82011682018060405250810190610d57919061307c565b905060006040518060a00160405280838152602001600154815260200160038d81548110610d8757610d87613662565b906000526020600020018054610d9c906135f6565b80601f0160208091040260200160405190810160405280929190818152602001828054610dc8906135f6565b8015610e155780601f10610dea57610100808354040283529160200191610e15565b820191906000526020600020905b815481529060010190602001808311610df857829003601f168201915b505050505081526020018c8152602001600115158152509050600060028c81548110610e4357610e43613662565b9060005260206000209060040201905073__ItemsLibrary__________________________63b475c59b83836040518363ffffffff1660e01b8152600401610e8c9291906134f8565b60006040518083038186803b158015610ea457600080fd5b505af4158015610eb8573d6000803e3d6000fd5b5050505050505050505050505050505050565b60025460405163123bd07560e11b8152606091839173__Library_______________________________90632477a0ea90610f0c90859085906004016133f7565b60206040518083038186803b158015610f2457600080fd5b505af4158015610f38573d6000803e3d6000fd5b505050506040513d601f19601f82011682018060405250810190610f5c919061305f565b1515600114610f7d5760405162461bcd60e51b8152600401610499906134db565b73__AddressLibrary________________________635f2e8a5d73__ItemsLibrary__________________________6327724f4b60028881548110610fc457610fc4613662565b90600052602060002090600402016040518263ffffffff1660e01b8152600401610ff091815260200190565b60006040518083038186803b15801561100857600080fd5b505af415801561101c573d6000803e3d6000fd5b505050506040513d6000823e601f3d908101601f191682016040526110449190810190612f34565b6040518263ffffffff1660e01b8152600401611060919061339a565b60006040518083038186803b15801561107857600080fd5b505af415801561108c573d6000803e3d6000fd5b505050506040513d6000823e601f3d908101601f191682016040526110b49190810190612e94565b949350505050565b60025460405163123bd07560e11b815282919073__Library_______________________________90632477a0ea906110fb90859085906004016133f7565b60206040518083038186803b15801561111357600080fd5b505af4158015611127573d6000803e3d6000fd5b505050506040513d601f19601f8201168201806040525081019061114b919061305f565b151560011461116c5760405162461bcd60e51b8152600401610499906134db565b61117833600054611917565b15156001146111995760405162461bcd60e51b8152600401610499906134be565b600184846111a78282611917565b15156001146111de5760405162461bcd60e51b815260206004820152600360248201526245433760e81b6044820152606401610499565b600087876111ec8282612233565b156112095760405162461bcd60e51b815260040161049990613447565b604051631361314960e21b815260009073__AddressLibrary________________________90634d84c52490611243908e906004016132c6565b60206040518083038186803b15801561125b57600080fd5b505af415801561126f573d6000803e3d6000fd5b505050506040513d601f19601f82011682018060405250810190611293919061307c565b905060006040518060a00160405280838152602001600154815260200160038d815481106112c3576112c3613662565b9060005260206000200180546112d8906135f6565b80601f0160208091040260200160405190810160405280929190818152602001828054611304906135f6565b80156113515780601f1061132657610100808354040283529160200191611351565b820191906000526020600020905b81548152906001019060200180831161133457829003601f168201915b505050505081526020018c8152602001600115158152509050600060028c8154811061137f5761137f613662565b9060005260206000209060040201905073__ItemsLibrary__________________________6372e5178f83836040518363ffffffff1660e01b8152600401610e8c9291906134f8565b6113d1336106ac565b15156001146113f25760405162461bcd60e51b8152600401610499906134a0565b816001600160a01b0380831660009081526005602090815260408083208784529091529020548391859116156114535760405162461bcd60e51b8152600401610499906020808252600490820152634543313560e01b604082015260600190565b6001600160a01b038416600090815260056020818152604080842089855280835281852080546001600160a01b031916339081179091559383526001908101805491820181558552919093200187905590517f601cb9a073dbfa468ef12878ee6c720641a49b76af7c16099e8c0a1ac3ca79b5916114d29187906132da565b60405180910390a15050505050565b60025460405163123bd07560e11b815282919073__Library_______________________________90632477a0ea9061152090859085906004016133f7565b60206040518083038186803b15801561153857600080fd5b505af415801561154c573d6000803e3d6000fd5b505050506040513d601f19601f82011682018060405250810190611570919061305f565b15156001146115915760405162461bcd60e51b8152600401610499906134db565b61159d33600054611917565b15156001146115be5760405162461bcd60e51b8152600401610499906134be565b600184846115cc828261239f565b1515600114806115e757506115e18282612233565b15156001145b6116035760405162461bcd60e51b815260040161049990613482565b8686600073__AddressLibrary________________________634d84c524846040518263ffffffff1660e01b815260040161163e91906132c6565b60206040518083038186803b15801561165657600080fd5b505af415801561166a573d6000803e3d6000fd5b505050506040513d601f19601f8201168201806040525081019061168e919061307c565b905073__ItemsLibrary__________________________637b6d23de3383600286815481106116bf576116bf613662565b90600052602060002090600402016040518463ffffffff1660e01b81526004016116eb939291906132f4565b60206040518083038186803b15801561170357600080fd5b505af4158015611717573d6000803e3d6000fd5b505050506040513d601f19601f8201168201806040525081019061173b919061305f565b156117585760405162461bcd60e51b815260040161049990613465565b604051631361314960e21b815260009073__AddressLibrary________________________90634d84c52490611792908e906004016132c6565b60206040518083038186803b1580156117aa57600080fd5b505af41580156117be573d6000803e3d6000fd5b505050506040513d601f19601f820116820180604052508101906117e2919061307c565b905060006040518060a00160405280838152602001600154815260200160038d8154811061181257611812613662565b906000526020600020018054611827906135f6565b80601f0160208091040260200160405190810160405280929190818152602001828054611853906135f6565b80156118a05780601f10611875576101008083540402835291602001916118a0565b820191906000526020600020905b81548152906001019060200180831161188357829003601f168201915b505050505081526020018c8152602001600115158152509050600060028c815481106118ce576118ce613662565b9060005260206000209060040201905073__ItemsLibrary__________________________63da19701483836040518363ffffffff1660e01b8152600401610e8c9291906134f8565b60025460405163123bd07560e11b8152600091839173__Library_______________________________90632477a0ea9061195890859085906004016133f7565b60206040518083038186803b15801561197057600080fd5b505af4158015611984573d6000803e3d6000fd5b505050506040513d601f19601f820116820180604052508101906119a8919061305f565b15156001146119c95760405162461bcd60e51b8152600401610499906134db565b604051631361314960e21b815260009073__AddressLibrary________________________90634d84c52490611a039089906004016132c6565b60206040518083038186803b158015611a1b57600080fd5b505af4158015611a2f573d6000803e3d6000fd5b505050506040513d601f19601f82011682018060405250810190611a53919061307c565b905073__ItemsLibrary__________________________63dbdfbeec8260028881548110611a8357611a83613662565b90600052602060002090600402016040518363ffffffff1660e01b8152600401611aae9291906133f7565b60206040518083038186803b158015611ac657600080fd5b505af4158015611ada573d6000803e3d6000fd5b505050506040513d601f19601f82011682018060405250810190611afe919061305f565b9695505050505050565b60025460405163123bd07560e11b815282919073__Library_______________________________90632477a0ea90611b4790859085906004016133f7565b60206040518083038186803b158015611b5f57600080fd5b505af4158015611b73573d6000803e3d6000fd5b505050506040513d601f19601f82011682018060405250810190611b97919061305f565b1515600114611bb85760405162461bcd60e51b8152600401610499906134db565b611bc433600054611917565b1515600114611be55760405162461bcd60e51b8152600401610499906134be565b60008684611bf38282611917565b15611c265760405162461bcd60e51b815260206004820152600360248201526222a19b60e91b6044820152606401610499565b60008987611c34828261239f565b15611c515760405162461bcd60e51b815260040161049990613447565b600073__AddressLibrary________________________634d84c5248e6040518263ffffffff1660e01b8152600401611c8a91906132c6565b60206040518083038186803b158015611ca257600080fd5b505af4158015611cb6573d6000803e3d6000fd5b505050506040513d601f19601f82011682018060405250810190611cda919061307c565b905060006040518060a00160405280838152602001600154815260200160038d81548110611d0a57611d0a613662565b906000526020600020018054611d1f906135f6565b80601f0160208091040260200160405190810160405280929190818152602001828054611d4b906135f6565b8015611d985780601f10611d6d57610100808354040283529160200191611d98565b820191906000526020600020905b815481529060010190602001808311611d7b57829003601f168201915b505050505081526020018c8152602001600115158152509050600060028c81548110611dc657611dc6613662565b90600052602060002090600402019050611e18828f8f8080601f01602080910402602001604051908101604052809392919081815260200183838082843760009201919091525086925061250a915050565b505050505050505050505050505050565b60025460405163123bd07560e11b815260609160009184919073__Library_______________________________90632477a0ea90611e6e90859085906004016133f7565b60206040518083038186803b158015611e8657600080fd5b505af4158015611e9a573d6000803e3d6000fd5b505050506040513d601f19601f82011682018060405250810190611ebe919061305f565b1515600114611edf5760405162461bcd60e51b8152600401610499906134db565b604051631361314960e21b815260009073__AddressLibrary________________________90634d84c52490611f19908a906004016132c6565b60206040518083038186803b158015611f3157600080fd5b505af4158015611f45573d6000803e3d6000fd5b505050506040513d601f19601f82011682018060405250810190611f69919061307c565b905073__ItemsLibrary__________________________631aeccc6a8260028981548110611f9957611f99613662565b90600052602060002090600402016040518363ffffffff1660e01b8152600401611fc49291906133f7565b60006040518083038186803b158015611fdc57600080fd5b505af4158015611ff0573d6000803e3d6000fd5b505050506040513d6000823e601f3d908101601f191682016040526120189190810190613123565b945094505050509250929050565b60025460405163123bd07560e11b8152606091829184919073__Library_______________________________90632477a0ea9061206a90859085906004016133f7565b60206040518083038186803b15801561208257600080fd5b505af4158015612096573d6000803e3d6000fd5b505050506040513d601f19601f820116820180604052508101906120ba919061305f565b15156001146120db5760405162461bcd60e51b8152600401610499906134db565b60608073__ItemsLibrary__________________________63e035e0068960028a8154811061210c5761210c613662565b90600052602060002090600402016040518363ffffffff1660e01b81526004016121429291909115158252602082015260400190565b60006040518083038186803b15801561215a57600080fd5b505af415801561216e573d6000803e3d6000fd5b505050506040513d6000823e601f3d908101601f191682016040526121969190810190612f68565b604051635f2e8a5d60e01b8152919350915073__AddressLibrary________________________90635f2e8a5d906121d290859060040161339a565b60006040518083038186803b1580156121ea57600080fd5b505af41580156121fe573d6000803e3d6000fd5b505050506040513d6000823e601f3d908101601f191682016040526122269190810190612e94565b9890975095505050505050565b60025460405163123bd07560e11b8152600091839173__Library_______________________________90632477a0ea9061227490859085906004016133f7565b60206040518083038186803b15801561228c57600080fd5b505af41580156122a0573d6000803e3d6000fd5b505050506040513d601f19601f820116820180604052508101906122c4919061305f565b15156001146122e55760405162461bcd60e51b8152600401610499906134db565b604051631361314960e21b815260009073__AddressLibrary________________________90634d84c5249061231f9089906004016132c6565b60206040518083038186803b15801561233757600080fd5b505af415801561234b573d6000803e3d6000fd5b505050506040513d601f19601f8201168201806040525081019061236f919061307c565b905073__ItemsLibrary__________________________632854ed2e8260028881548110611a8357611a83613662565b60025460405163123bd07560e11b8152600091839173__Library_______________________________90632477a0ea906123e090859085906004016133f7565b60206040518083038186803b1580156123f857600080fd5b505af415801561240c573d6000803e3d6000fd5b505050506040513d601f19601f82011682018060405250810190612430919061305f565b15156001146124515760405162461bcd60e51b8152600401610499906134db565b604051631361314960e21b815260009073__AddressLibrary________________________90634d84c5249061248b9089906004016132c6565b60206040518083038186803b1580156124a357600080fd5b505af41580156124b7573d6000803e3d6000fd5b505050506040513d601f19601f820116820180604052508101906124db919061307c565b905073__ItemsLibrary__________________________6226d7668260028881548110611a8357611a83613662565b8251600081815260208381526040909120845161252f92600190920191860190612bf5565b5060028201805460018101825560009182526020909120018190556103c484838151602080840151604080860151606087015160808801516000878152888752938420600201805460018101825581865296852090960180546001600160a01b03191633179055928690529354929390929091906125ad9085612aa8565b15612a9f576125bc8587612ac3565b1561278c57600085815260208781526040808320805460ff19166001908117909155898101805491820181558452919092200186905551631580989f60e11b815273__Library_______________________________90635b28cf63908290632b01313e90612634908a9060028d01906004016133de565b60206040518083038186803b15801561264c57600080fd5b505af4158015612660573d6000803e3d6000fd5b505050506040513d601f19601f82011682018060405250810190612684919061307c565b886002016040518363ffffffff1660e01b81526004016126a59291906133de565b60006040518083038186803b1580156126bd57600080fd5b505af41580156126d1573d6000803e3d6000fd5b505050506040513d6000823e601f3d908101601f191682016040526126f99190810190612f34565b805161270f916002890191602090910190612baa565b5061271a8587612b70565b80156127875760008581526020879052604090819020905161273f916001019061322a565b60405180910390208584604051612756919061320e565b604051908190038120907f160f29d558202d77de33f9ebda8fd33ba2d87da20dc7b129e9f5de4421d310aa90600090a45b612a9f565b73__Library_______________________________635b28cf6373__Library_______________________________632b01313e888a6001016040518363ffffffff1660e01b81526004016127e29291906133de565b60206040518083038186803b1580156127fa57600080fd5b505af415801561280e573d6000803e3d6000fd5b505050506040513d601f19601f82011682018060405250810190612832919061307c565b886001016040518363ffffffff1660e01b81526004016128539291906133de565b60006040518083038186803b15801561286b57600080fd5b505af415801561287f573d6000803e3d6000fd5b505050506040513d6000823e601f3d908101601f191682016040526128a79190810190612f34565b80516128bd916001890191602090910190612baa565b5073__Library_______________________________635b28cf6373__Library_______________________________632b01313e888a6003016040518363ffffffff1660e01b81526004016129149291906133de565b60206040518083038186803b15801561292c57600080fd5b505af4158015612940573d6000803e3d6000fd5b505050506040513d601f19601f82011682018060405250810190612964919061307c565b886003016040518363ffffffff1660e01b81526004016129859291906133de565b60006040518083038186803b15801561299d57600080fd5b505af41580156129b1573d6000803e3d6000fd5b505050506040513d6000823e601f3d908101601f191682016040526129d99190810190612f34565b80516129ef916003890191602090910190612baa565b506000858152602087905260408120805460ff1916815590612a146001830182612c68565b612a22600283016000612ca2565b612a30600383016000612ca2565b50508015612a9f57600085815260208790526040908190209051612a57916001019061322a565b60405180910390208584604051612a6e919061320e565b604051908190038120907f69862bba93dc216568c2c5aa127c0834bcc3e5edd6fb7dbd3596d46a4cde95c290600090a45b50505050505050565b600081831015612aba575060006104da565b50600192915050565b60008082600201805480602002602001604051908101604052809291908181526020018280548015612b1457602002820191906000526020600020905b815481526020019060010190808311612b00575b5050505050905060005b8151811015612b6557818181518110612b3957612b39613662565b6020026020010151851415612b53576001925050506104da565b80612b5d81613631565b915050612b1e565b506000949350505050565b6000828152602082905260408120612b8d91600390910190612ca2565b60008281526020829052604081206104bd91600290910190612ca2565b828054828255906000526020600020908101928215612be5579160200282015b82811115612be5578251825591602001919060010190612bca565b50612bf1929150612cbc565b5090565b828054612c01906135f6565b90600052602060002090601f016020900481019282612c235760008555612be5565b82601f10612c3c57805160ff1916838001178555612be5565b82800160010185558215612be55791820182811115612be5578251825591602001919060010190612bca565b508054612c74906135f6565b6000825580601f10612c84575050565b601f01602090049060005260206000209081019061045b9190612cbc565b508054600082559060005260206000209081019061045b91905b5b80821115612bf15760008155600101612cbd565b600082601f830112612ce257600080fd5b81516020612cf7612cf283613578565b613548565b80838252828201915082860187848660051b8901011115612d1757600080fd5b60005b85811015612d3657815184529284019290840190600101612d1a565b5090979650505050505050565b60008083601f840112612d5557600080fd5b5081356001600160401b03811115612d6c57600080fd5b602083019150836020828501011115612d8457600080fd5b9250929050565b600082601f830112612d9c57600080fd5b81516001600160401b03811115612db557612db5613678565b612dc8601f8201601f1916602001613548565b818152846020838601011115612ddd57600080fd5b6110b48260208301602087016135ca565b600060208284031215612e0057600080fd5b81356106a58161368e565b600080600060408486031215612e2057600080fd5b8335612e2b8161368e565b925060208401356001600160401b03811115612e4657600080fd5b612e5286828701612d43565b9497909650939450505050565b600080600060608486031215612e7457600080fd5b8335612e7f8161368e565b95602085013595506040909401359392505050565b60006020808385031215612ea757600080fd5b82516001600160401b03811115612ebd57600080fd5b8301601f81018513612ece57600080fd5b8051612edc612cf282613578565b80828252848201915084840188868560051b8701011115612efc57600080fd5b600094505b83851015612f28578051612f148161368e565b835260019490940193918501918501612f01565b50979650505050505050565b600060208284031215612f4657600080fd5b81516001600160401b03811115612f5c57600080fd5b6110b484828501612cd1565b60008060408385031215612f7b57600080fd5b82516001600160401b0380821115612f9257600080fd5b612f9e86838701612cd1565b9350602091508185015181811115612fb557600080fd5b8501601f81018713612fc657600080fd5b8051612fd4612cf282613578565b8082825285820191508584018a878560051b8701011115612ff457600080fd5b6000805b8581101561302f5782518881111561300e578283fd5b61301c8e8b838b0101612d8b565b8652509388019391880191600101612ff8565b5050508096505050505050509250929050565b60006020828403121561305457600080fd5b81356106a5816136a3565b60006020828403121561307157600080fd5b81516106a5816136a3565b60006020828403121561308e57600080fd5b5051919050565b600080604083850312156130a857600080fd5b8235915060208301356130ba8161368e565b809150509250929050565b600080600080606085870312156130db57600080fd5b8435935060208501356001600160401b038111156130f857600080fd5b61310487828801612d43565b9094509250506040850135613118816136a3565b939692955090935050565b6000806040838503121561313657600080fd5b82516001600160401b0381111561314c57600080fd5b61315885828601612d8b565b92505060208301516130ba816136a3565b600081518084526020808501945080840160005b838110156131a25781516001600160a01b03168752958201959082019060010161317d565b509495945050505050565b6000815480845260208085019450836000528060002060005b838110156131a2578154875295820195600191820191016131c6565b600081518084526131fa8160208601602086016135ca565b601f01601f19169290920160200192915050565b600082516132208184602087016135ca565b9190910192915050565b600080835481600182811c91508083168061324657607f831692505b602080841082141561326657634e487b7160e01b86526022600452602486fd5b81801561327a576001811461328b576132b8565b60ff198616895284890196506132b8565b60008a81526020902060005b868110156132b05781548b820152908501908301613297565b505084890196505b509498975050505050505050565b6001600160a01b0391909116815260200190565b6001600160a01b0392831681529116602082015260400190565b6001600160a01b039390931683526020830191909152604082015260600190565b6020815260006106a56020830184613169565b60408152600061333b6040830185613169565b6020838203818501528185518084528284019150828160051b85010183880160005b8381101561338b57601f198784030185526133798383516131e2565b9486019492509085019060010161335d565b50909998505050505050505050565b6020808252825182820181905260009190848201906040850190845b818110156133d2578351835292840192918401916001016133b6565b50909695505050505050565b8281526040602082015260006110b460408301846131ad565b918252602082015260400190565b60408152600061341860408301856131e2565b905082151560208301529392505050565b6020808252600490820152634543313960e01b604082015260600190565b6020808252600490820152634543323760e01b604082015260600190565b60208082526003908201526245433560e81b604082015260600190565b60208082526004908201526308a8664760e31b604082015260600190565b60208082526004908201526322a1989960e11b604082015260600190565b60208082526003908201526245433960e81b604082015260600190565b60208082526003908201526245433160e81b604082015260600190565b6040815282516040820152602083015160608201526000604084015160a0608084015261352860e08401826131e2565b606086015160a0850152608090950151151560c084015250506020015290565b604051601f8201601f191681016001600160401b038111828210171561357057613570613678565b604052919050565b60006001600160401b0382111561359157613591613678565b5060051b60200190565b600082198211156135ae576135ae61364c565b500190565b6000828210156135c5576135c561364c565b500390565b60005b838110156135e55781810151838201526020016135cd565b838111156103c45750506000910152565b600181811c9082168061360a57607f821691505b6020821081141561362b57634e487b7160e01b600052602260045260246000fd5b50919050565b60006000198214156136455761364561364c565b5060010190565b634e487b7160e01b600052601160045260246000fd5b634e487b7160e01b600052603260045260246000fd5b634e487b7160e01b600052604160045260246000fd5b6001600160a01b038116811461045b57600080fd5b801515811461045b57600080fdfea26469706673582212204a2d24b8e2afb9f7e10feb885d9a6adee1f6f63fa8693bb1527de9ea99753a4864736f6c63430008060033",
  "immutableReferences": {},
  "source": "// SPDX-License-Identifier: GPL-3.0\r\n\r\npragma solidity >=0.7.0 <0.9.0;\r\npragma experimental ABIEncoderV2;\r\n\r\n/**\r\n * @title Storage\r\n * @dev Store & retrieve value in a variable\r\n */\r\n\r\n import \"./Abstract/MultiSigCertificatesPool.sol\";\r\n\r\n contract PrivateCertificatesPool is MultiSigCertificatesPool {\r\n\r\n     constructor(address[] memory owners,  uint256 minOwners) MultiSigCertificatesPool(owners, minOwners) payable {\r\n    }\r\n\r\n    function addProvider(address provider, string calldata providerInfo) external override payable{\r\n        addEntity(provider, providerInfo, _providerId);\r\n    }\r\n\r\n    function onItemValidated(bytes32 item, string calldata id, bool addOrRemove) public {}\r\n\r\n    function onItemRejected(bytes32 item, string calldata id, bool addOrRemove) public {}\r\n }",
  "sourcePath": "C:\\Users\\d-aam\\GitHub\\Certificates\\contracts\\PrivateCertificatesPool.sol",
  "compiler": {
    "name": "solc",
    "version": "0.8.6+commit.11564f7e.Emscripten.clang"
  },
  "schemaVersion": "3.3.4",
  "updatedAt": "2021-07-27T09:38:25.084Z",
  "devdoc": {
    "kind": "dev",
    "methods": {},
    "version": 1
  },
  "userdoc": {
    "kind": "user",
    "methods": {},
    "version": 1
  }
}