{
  "contractName": "PrivateCertificatesPool",
  "abi": [
    {
      "anonymous": false,
      "inputs": [
        {
          "indexed": true,
          "internalType": "address",
          "name": "Provider",
          "type": "address"
        },
        {
          "indexed": true,
          "internalType": "address",
          "name": "Holder",
          "type": "address"
        },
        {
          "indexed": false,
          "internalType": "bytes32",
          "name": "Certificate",
          "type": "bytes32"
        }
      ],
      "name": "_AddCertificate",
      "type": "event"
    },
    {
      "anonymous": false,
      "inputs": [
        {
          "indexed": false,
          "internalType": "string",
          "name": "ItemType",
          "type": "string"
        },
        {
          "indexed": true,
          "internalType": "bytes32",
          "name": "Item",
          "type": "bytes32"
        },
        {
          "indexed": false,
          "internalType": "string",
          "name": "Info",
          "type": "string"
        }
      ],
      "name": "_AddItemRejection",
      "type": "event"
    },
    {
      "anonymous": false,
      "inputs": [
        {
          "indexed": false,
          "internalType": "string",
          "name": "ItemType",
          "type": "string"
        },
        {
          "indexed": true,
          "internalType": "bytes32",
          "name": "Item",
          "type": "bytes32"
        },
        {
          "indexed": false,
          "internalType": "string",
          "name": "Info",
          "type": "string"
        }
      ],
      "name": "_AddItemValidation",
      "type": "event"
    },
    {
      "anonymous": false,
      "inputs": [
        {
          "indexed": false,
          "internalType": "string",
          "name": "ENSName",
          "type": "string"
        },
        {
          "indexed": false,
          "internalType": "bytes32",
          "name": "node",
          "type": "bytes32"
        },
        {
          "indexed": false,
          "internalType": "address",
          "name": "addr",
          "type": "address"
        }
      ],
      "name": "_NewReverseENSCreated",
      "type": "event"
    },
    {
      "anonymous": false,
      "inputs": [
        {
          "indexed": false,
          "internalType": "string",
          "name": "ItemType",
          "type": "string"
        },
        {
          "indexed": true,
          "internalType": "bytes32",
          "name": "Item",
          "type": "bytes32"
        },
        {
          "indexed": false,
          "internalType": "string",
          "name": "Info",
          "type": "string"
        }
      ],
      "name": "_RemoveItemRejection",
      "type": "event"
    },
    {
      "anonymous": false,
      "inputs": [
        {
          "indexed": false,
          "internalType": "string",
          "name": "ItemType",
          "type": "string"
        },
        {
          "indexed": true,
          "internalType": "bytes32",
          "name": "Item",
          "type": "bytes32"
        },
        {
          "indexed": false,
          "internalType": "string",
          "name": "Info",
          "type": "string"
        }
      ],
      "name": "_RemoveItemValidation",
      "type": "event"
    },
    {
      "anonymous": false,
      "inputs": [
        {
          "indexed": true,
          "internalType": "address",
          "name": "oldHolder",
          "type": "address"
        },
        {
          "indexed": true,
          "internalType": "address",
          "name": "newHolder",
          "type": "address"
        },
        {
          "indexed": false,
          "internalType": "bytes32",
          "name": "Certificate",
          "type": "bytes32"
        }
      ],
      "name": "_TransferCertificate",
      "type": "event"
    },
    {
      "inputs": [
        {
          "internalType": "address[]",
          "name": "owners",
          "type": "address[]"
        },
        {
          "internalType": "uint256",
          "name": "minOwners",
          "type": "uint256"
        },
        {
          "internalType": "string",
          "name": "contractName",
          "type": "string"
        },
        {
          "internalType": "string",
          "name": "contractVersion",
          "type": "string"
        }
      ],
      "name": "MultiSigCertPool_init",
      "outputs": [],
      "stateMutability": "nonpayable",
      "type": "function"
    },
    {
      "inputs": [
        {
          "internalType": "address[]",
          "name": "owners",
          "type": "address[]"
        },
        {
          "internalType": "uint256",
          "name": "minOwners",
          "type": "uint256"
        },
        {
          "internalType": "uint256",
          "name": "TotalEntities",
          "type": "uint256"
        },
        {
          "internalType": "string[]",
          "name": "labels",
          "type": "string[]"
        },
        {
          "internalType": "uint256",
          "name": "ownerId",
          "type": "uint256"
        }
      ],
      "name": "MultiSigContract_init",
      "outputs": [],
      "stateMutability": "nonpayable",
      "type": "function"
    },
    {
      "inputs": [
        {
          "internalType": "bytes32",
          "name": "CertificateHash",
          "type": "bytes32"
        },
        {
          "internalType": "address",
          "name": "holder",
          "type": "address"
        }
      ],
      "name": "addCertificate",
      "outputs": [],
      "stateMutability": "payable",
      "type": "function",
      "payable": true
    },
    {
      "inputs": [
        {
          "internalType": "address",
          "name": "provider",
          "type": "address"
        },
        {
          "internalType": "bytes32",
          "name": "CertificateHash",
          "type": "bytes32"
        },
        {
          "internalType": "address",
          "name": "holder",
          "type": "address"
        },
        {
          "internalType": "uint256",
          "name": "nonce",
          "type": "uint256"
        },
        {
          "internalType": "uint256",
          "name": "deadline",
          "type": "uint256"
        },
        {
          "internalType": "bytes",
          "name": "signature",
          "type": "bytes"
        }
      ],
      "name": "addCertificateOnBehalfOf",
      "outputs": [],
      "stateMutability": "payable",
      "type": "function",
      "payable": true
    },
    {
      "inputs": [
        {
          "internalType": "address",
          "name": "owner",
          "type": "address"
        },
        {
          "internalType": "string",
          "name": "ownerInfo",
          "type": "string"
        }
      ],
      "name": "addOwner",
      "outputs": [],
      "stateMutability": "nonpayable",
      "type": "function"
    },
    {
      "inputs": [
        {
          "internalType": "address",
          "name": "provider",
          "type": "address"
        },
        {
          "internalType": "string",
          "name": "providerInfo",
          "type": "string"
        }
      ],
      "name": "addProvider",
      "outputs": [],
      "stateMutability": "payable",
      "type": "function",
      "payable": true
    },
    {
      "inputs": [
        {
          "internalType": "uint256",
          "name": "newMinOwners",
          "type": "uint256"
        }
      ],
      "name": "changeMinOwners",
      "outputs": [],
      "stateMutability": "nonpayable",
      "type": "function"
    },
    {
      "inputs": [
        {
          "internalType": "bytes32",
          "name": "item",
          "type": "bytes32"
        },
        {
          "internalType": "uint256[]",
          "name": "ids",
          "type": "uint256[]"
        },
        {
          "internalType": "bool",
          "name": "addOrRemove",
          "type": "bool"
        }
      ],
      "name": "onItemRejected",
      "outputs": [],
      "stateMutability": "nonpayable",
      "type": "function"
    },
    {
      "inputs": [
        {
          "internalType": "bytes32",
          "name": "item",
          "type": "bytes32"
        },
        {
          "internalType": "uint256[]",
          "name": "ids",
          "type": "uint256[]"
        },
        {
          "internalType": "bool",
          "name": "addOrRemove",
          "type": "bool"
        }
      ],
      "name": "onItemValidated",
      "outputs": [],
      "stateMutability": "nonpayable",
      "type": "function"
    },
    {
      "inputs": [],
      "name": "rejectMinOwners",
      "outputs": [],
      "stateMutability": "nonpayable",
      "type": "function"
    },
    {
      "inputs": [
        {
          "internalType": "address",
          "name": "owner",
          "type": "address"
        }
      ],
      "name": "rejectOwner",
      "outputs": [],
      "stateMutability": "nonpayable",
      "type": "function"
    },
    {
      "inputs": [
        {
          "internalType": "address",
          "name": "provider",
          "type": "address"
        }
      ],
      "name": "rejectProvider",
      "outputs": [],
      "stateMutability": "nonpayable",
      "type": "function"
    },
    {
      "inputs": [
        {
          "internalType": "address",
          "name": "owner",
          "type": "address"
        }
      ],
      "name": "removeOwner",
      "outputs": [],
      "stateMutability": "nonpayable",
      "type": "function"
    },
    {
      "inputs": [
        {
          "internalType": "address",
          "name": "provider",
          "type": "address"
        }
      ],
      "name": "removeProvider",
      "outputs": [],
      "stateMutability": "nonpayable",
      "type": "function"
    },
    {
      "inputs": [],
      "name": "retrieveAddCertificatePriceWei",
      "outputs": [
        {
          "internalType": "uint256",
          "name": "",
          "type": "uint256"
        }
      ],
      "stateMutability": "view",
      "type": "function",
      "constant": true
    },
    {
      "inputs": [],
      "name": "retrieveAllOwners",
      "outputs": [
        {
          "internalType": "bytes32[]",
          "name": "",
          "type": "bytes32[]"
        }
      ],
      "stateMutability": "view",
      "type": "function",
      "constant": true
    },
    {
      "inputs": [],
      "name": "retrieveAllProviders",
      "outputs": [
        {
          "internalType": "bytes32[]",
          "name": "",
          "type": "bytes32[]"
        }
      ],
      "stateMutability": "view",
      "type": "function",
      "constant": true
    },
    {
      "inputs": [
        {
          "internalType": "bytes32",
          "name": "CertificateHash",
          "type": "bytes32"
        },
        {
          "internalType": "address",
          "name": "holder",
          "type": "address"
        }
      ],
      "name": "retrieveCertificateProvider",
      "outputs": [
        {
          "internalType": "address",
          "name": "",
          "type": "address"
        }
      ],
      "stateMutability": "view",
      "type": "function",
      "constant": true
    },
    {
      "inputs": [
        {
          "internalType": "address",
          "name": "holder",
          "type": "address"
        },
        {
          "internalType": "uint256",
          "name": "skipFirst",
          "type": "uint256"
        },
        {
          "internalType": "uint256",
          "name": "max",
          "type": "uint256"
        }
      ],
      "name": "retrieveCertificatesByHolder",
      "outputs": [
        {
          "internalType": "bytes32[]",
          "name": "",
          "type": "bytes32[]"
        }
      ],
      "stateMutability": "view",
      "type": "function",
      "constant": true
    },
    {
      "inputs": [],
      "name": "retrieveContractConfig",
      "outputs": [
        {
          "internalType": "string",
          "name": "",
          "type": "string"
        },
        {
          "internalType": "string",
          "name": "",
          "type": "string"
        }
      ],
      "stateMutability": "view",
      "type": "function",
      "constant": true
    },
    {
      "inputs": [],
      "name": "retrieveMinOwners",
      "outputs": [
        {
          "internalType": "uint256",
          "name": "",
          "type": "uint256"
        }
      ],
      "stateMutability": "view",
      "type": "function",
      "constant": true
    },
    {
      "inputs": [
        {
          "internalType": "address",
          "name": "addr",
          "type": "address"
        },
        {
          "internalType": "uint256",
          "name": "nonce",
          "type": "uint256"
        }
      ],
      "name": "retrieveNonce",
      "outputs": [
        {
          "internalType": "bool",
          "name": "",
          "type": "bool"
        }
      ],
      "stateMutability": "view",
      "type": "function",
      "constant": true
    },
    {
      "inputs": [
        {
          "internalType": "address",
          "name": "owner",
          "type": "address"
        }
      ],
      "name": "retrieveOwner",
      "outputs": [
        {
          "components": [
            {
              "internalType": "string",
              "name": "_Info",
              "type": "string"
            },
            {
              "internalType": "bool",
              "name": "_activated",
              "type": "bool"
            },
            {
              "internalType": "uint256",
              "name": "_id",
              "type": "uint256"
            },
            {
              "internalType": "uint256",
              "name": "_pendingId",
              "type": "uint256"
            },
            {
              "internalType": "address[]",
              "name": "_Validations",
              "type": "address[]"
            },
            {
              "internalType": "address[]",
              "name": "_Rejections",
              "type": "address[]"
            }
          ],
          "internalType": "struct ItemsLibrary._itemIdentity",
          "name": "",
          "type": "tuple"
        }
      ],
      "stateMutability": "view",
      "type": "function",
      "constant": true
    },
    {
      "inputs": [],
      "name": "retrievePendingMinOwners",
      "outputs": [
        {
          "internalType": "uint256",
          "name": "",
          "type": "uint256"
        }
      ],
      "stateMutability": "view",
      "type": "function",
      "constant": true
    },
    {
      "inputs": [],
      "name": "retrievePendingMinOwnersStatus",
      "outputs": [
        {
          "internalType": "uint256",
          "name": "",
          "type": "uint256"
        },
        {
          "internalType": "uint256",
          "name": "",
          "type": "uint256"
        },
        {
          "internalType": "address[]",
          "name": "",
          "type": "address[]"
        }
      ],
      "stateMutability": "view",
      "type": "function",
      "constant": true
    },
    {
      "inputs": [
        {
          "internalType": "bool",
          "name": "addedORremove",
          "type": "bool"
        }
      ],
      "name": "retrievePendingOwners",
      "outputs": [
        {
          "internalType": "bytes32[]",
          "name": "",
          "type": "bytes32[]"
        }
      ],
      "stateMutability": "view",
      "type": "function",
      "constant": true
    },
    {
      "inputs": [
        {
          "internalType": "bool",
          "name": "addedORremove",
          "type": "bool"
        }
      ],
      "name": "retrievePendingProviders",
      "outputs": [
        {
          "internalType": "bytes32[]",
          "name": "",
          "type": "bytes32[]"
        }
      ],
      "stateMutability": "view",
      "type": "function",
      "constant": true
    },
    {
      "inputs": [
        {
          "internalType": "address",
          "name": "provider",
          "type": "address"
        }
      ],
      "name": "retrieveProvider",
      "outputs": [
        {
          "components": [
            {
              "internalType": "string",
              "name": "_Info",
              "type": "string"
            },
            {
              "internalType": "bool",
              "name": "_activated",
              "type": "bool"
            },
            {
              "internalType": "uint256",
              "name": "_id",
              "type": "uint256"
            },
            {
              "internalType": "uint256",
              "name": "_pendingId",
              "type": "uint256"
            },
            {
              "internalType": "address[]",
              "name": "_Validations",
              "type": "address[]"
            },
            {
              "internalType": "address[]",
              "name": "_Rejections",
              "type": "address[]"
            }
          ],
          "internalType": "struct ItemsLibrary._itemIdentity",
          "name": "",
          "type": "tuple"
        }
      ],
      "stateMutability": "view",
      "type": "function",
      "constant": true
    },
    {
      "inputs": [],
      "name": "retrieveSubscriptionPriceWei",
      "outputs": [
        {
          "internalType": "uint256",
          "name": "",
          "type": "uint256"
        }
      ],
      "stateMutability": "view",
      "type": "function",
      "constant": true
    },
    {
      "inputs": [
        {
          "internalType": "address",
          "name": "holder",
          "type": "address"
        }
      ],
      "name": "retrieveTotalCertificatesByHolder",
      "outputs": [
        {
          "internalType": "uint256",
          "name": "",
          "type": "uint256"
        }
      ],
      "stateMutability": "view",
      "type": "function",
      "constant": true
    },
    {
      "inputs": [
        {
          "internalType": "bytes32",
          "name": "CertificateHash",
          "type": "bytes32"
        },
        {
          "internalType": "address",
          "name": "newHolder",
          "type": "address"
        }
      ],
      "name": "transferCertificate",
      "outputs": [],
      "stateMutability": "nonpayable",
      "type": "function"
    },
    {
      "inputs": [],
      "name": "validateMinOwners",
      "outputs": [],
      "stateMutability": "nonpayable",
      "type": "function"
    },
    {
      "inputs": [
        {
          "internalType": "address",
          "name": "owner",
          "type": "address"
        }
      ],
      "name": "validateOwner",
      "outputs": [],
      "stateMutability": "nonpayable",
      "type": "function"
    },
    {
      "inputs": [
        {
          "internalType": "address",
          "name": "provider",
          "type": "address"
        }
      ],
      "name": "validateProvider",
      "outputs": [],
      "stateMutability": "nonpayable",
      "type": "function"
    },
    {
      "inputs": [
        {
          "internalType": "address[]",
          "name": "owners",
          "type": "address[]"
        },
        {
          "internalType": "uint256",
          "name": "minOwners",
          "type": "uint256"
        },
        {
          "internalType": "string",
          "name": "contractName",
          "type": "string"
        },
        {
          "internalType": "string",
          "name": "contractVersion",
          "type": "string"
        },
        {
          "internalType": "string",
          "name": "ENSName",
          "type": "string"
        },
        {
          "internalType": "address",
          "name": "ReverseRegistryAddress",
          "type": "address"
        }
      ],
      "name": "PrivateCertPool_init",
      "outputs": [],
      "stateMutability": "nonpayable",
      "type": "function"
    }
  ],
  "bytecode": "0x608060405234801561001057600080fd5b50613866806100206000396000f3fe6080604052600436106101935760003560e01c8062070d19146101985780630b4c72a9146101ba578063173825d9146101da5780631ab807f8146101fa578063253ad5ae1461020d57806327a40b4b1461022d5780632edbe7fc1461024d57806330ade922146102715780633542758f1461028657806337583499146102a65780633fd07181146102d35780633feca4ca146102f35780634774779d1461034957806357e7ea2e146103495780635888ebb31461035d57806358a1ba251461038157806365b973e5146103ae5780636825b263146103c35780636b299604146103e35780636b3a0fec146104035780636e4f9179146104235780636e55d2d41461043857806376f8f90f1461045857806377bc5a1f146104785780637c8c2add146102d35780638a355a57146104985780638b9be256146104b8578063a93d5ed6146104cb578063c3079ae7146104e0578063c66433ea146104f5578063ce33d58a14610515578063cf2041d914610535578063d0a4adfe14610555578063d2116a02146105a8578063fc000500146105cb575b600080fd5b3480156101a457600080fd5b506101b86101b3366004612da6565b6105de565b005b3480156101c657600080fd5b506101b86101d5366004612b82565b610676565b3480156101e657600080fd5b506101b86101f5366004612b82565b610684565b6101b861020836600461304a565b6106ba565b34801561021957600080fd5b506101b861022836600461304a565b6106c9565b34801561023957600080fd5b506101b8610248366004612b82565b610958565b34801561025957600080fd5b506008545b6040519081526020015b60405180910390f35b34801561027d57600080fd5b506101b8610963565b34801561029257600080fd5b506101b86102a1366004612c30565b61098c565b3480156102b257600080fd5b506102c66102c1366004612b82565b61099a565b604051610268919061352c565b3480156102df57600080fd5b506101b86102ee36600461307a565b6109b3565b3480156102ff57600080fd5b5061033961030e366004612cb4565b6001600160a01b03919091166000908152600260209081526040808320938352929052205460ff1690565b6040519015158152602001610268565b34801561035557600080fd5b50600061025e565b34801561036957600080fd5b50610372610a29565b60405161026893929190613655565b34801561038d57600080fd5b506103a161039c366004612ce0565b610a9d565b60405161026891906133f9565b3480156103ba57600080fd5b5060045461025e565b3480156103cf57600080fd5b506101b86103de366004612d15565b610c43565b3480156103ef57600080fd5b506103a16103fe366004612ff7565b610e7f565b34801561040f57600080fd5b506103a161041e366004612ff7565b610e8d565b34801561042f57600080fd5b506103a1610e9a565b34801561044457600080fd5b5061025e610453366004612b82565b610eab565b34801561046457600080fd5b506101b8610473366004612b82565b610ec9565b34801561048457600080fd5b506102c6610493366004612b82565b610f24565b3480156104a457600080fd5b506101b86104b3366004612b82565b610f38565b6101b86104c6366004612b9f565b610f43565b3480156104d757600080fd5b506103a1610f5c565b3480156104ec57600080fd5b506101b8610f69565b34801561050157600080fd5b506101b86105103660046131e4565b610f92565b34801561052157600080fd5b506101b8610530366004612b82565b610ff8565b34801561054157600080fd5b506101b8610550366004612e6b565b611004565b34801561056157600080fd5b5061059b61057036600461304a565b6001600160a01b039081166000908152600d6020908152604080832094835293905291909120541690565b604051610268919061330d565b3480156105b457600080fd5b506105bd61128a565b604051610268929190613491565b6101b86105d9366004612c30565b6113b1565b600754610100900460ff16806105f7575060075460ff16155b61061c5760405162461bcd60e51b8152600401610613906134de565b60405180910390fd5b600754610100900460ff1615801561063e576007805461ffff19166101011790555b61064a87878787610c43565b82511561065b5761065b83836113be565b801561066d576007805461ff00191690555b50505050505050565b610681816001611484565b50565b6004546001610694600354611593565b5161069f919061372e565b6106a982826116b9565b6106b5836003546116d9565b505050565b6106c53383836117b1565b5050565b336000818152600d6020908152604080832086845290915290205483906001600160a01b03166107235760405162461bcd60e51b8152602060048201526005602482015264454331362d60d81b6044820152606401610613565b33836001600160a01b0381168214156107665760405162461bcd60e51b8152602060048201526005602482015264454331372d60d81b6044820152606401610613565b6001600160a01b038086166000908152600d602090815260408083208a8452909152902054166107bf57336000908152600d602090815260408083208984529091529020546107bf906001600160a01b031687876118a4565b6001600160a01b038086166000908152600d602081815260408084208b85528252808420543385529282528084208b85529091529091205482169116141561095057336000818152600d602081815260408084208b85528083528185206001808201805483546001600160a01b031916909355879055969095529290915251637277ce1960e11b8152919273__Library_______________________________9263e4ef9c329261087792869291019060040161343d565b60006040518083038186803b15801561088f57600080fd5b505af41580156108a3573d6000803e3d6000fd5b5050336000908152600d6020526040902060010154831015915061090d905057336000908152600d6020526040812060018101805484939190849081106108ec576108ec6137e1565b90600052602060002001548152602001908152602001600020600101819055505b6040518781526001600160a01b0387169033907f2f721f6467540d120069c1842568b578382bd1743fab48cb9893890ae1646a8b906020015b60405180910390a3505b505050505050565b610681816001611935565b3361096d81611a0b565b600161097881611a51565b3361098281611ac6565b6106b56001611b86565b6106b5838383600354611c0d565b6109a2612846565b6109ad826001611d46565b92915050565b6040516337ea306360e01b815233600482018190523060248301819052909173__Library_______________________________906337ea30639060440160006040518083038186803b158015610a0957600080fd5b505af4158015610a1d573d6000803e3d6000fd5b50505050505050505050565b6000806060600954600a54600b80805480602002602001604051908101604052809291908181526020018280548015610a8b57602002820191906000526020600020905b81546001600160a01b03168152600190910190602001808311610a6d575b50505050509050925092509250909192565b606082610aa985610eab565b11610ac35750604080516000815260208101909152610c3c565b818084610acf87610eab565b610ad9919061372e565b1015610af65783610ae986610eab565b610af3919061372e565b90505b6000816001600160401b03811115610b1057610b106137f7565b604051908082528060200260200182016040528015610b39578160200160208202803683370190505b506001600160a01b0387166000908152600d6020908152604080832060010180548251818502810185019093528083529495509293909291830182828015610ba057602002820191906000526020600020905b815481526020019060010190808311610b8c575b5050505050905060008060005b8351811015610c3357878310610bc257610c33565b81891115610bdc57610bd5600183613716565b9150610c21565b838181518110610bee57610bee6137e1565b6020026020010151858481518110610c0857610c086137e1565b6020908102919091010152610c1e600184613716565b92505b80610c2b816137b0565b915050610bad565b50929450505050505b9392505050565b600754610100900460ff1680610c5c575060075460ff16155b610c785760405162461bcd60e51b8152600401610613906134de565b600754610100900460ff16158015610c9a576007805461ffff19166101011790555b6040805160028082526060820190925290816020015b6060815260200190600190039081610cb05750508051610cd891600c9160209091019061287e565b506040518060400160405280600581526020016427bbb732b960d91b815250600c600081548110610d0b57610d0b6137e1565b906000526020600020019080519060200190610d289291906128db565b5060405180604001604052806008815260200167283937bb34b232b960c11b815250600c600181548110610d5e57610d5e6137e1565b906000526020600020019080519060200190610d7b9291906128db565b50610d868383611f00565b610e6685856002600c805480602002602001604051908101604052809291908181526020016000905b82821015610e5b578382906000526020600020018054610dce90613775565b80601f0160208091040260200160405190810160405280929190818152602001828054610dfa90613775565b8015610e475780601f10610e1c57610100808354040283529160200191610e47565b820191906000526020600020905b815481529060010190602001808311610e2a57829003601f168201915b505050505081526020019060010190610daf565b505050506000611004565b8015610e78576007805461ff00191690555b5050505050565b60606109ad82600354611f27565b60606109ad826001611f27565b6060610ea66001611593565b905090565b6001600160a01b03166000908152600d602052604090206001015490565b610ed581600354612052565b151560011415610f18576001610eec600354611593565b51610ef7919061372e565b6004541115610f185760405162461bcd60e51b8152600401610613906134bf565b61068181600354611935565b610f2c612846565b6109ad82600354611d46565b6106818160016116d9565b610f518686868686866121f8565b6109508686866117b1565b6060610ea6600354611593565b33610f7381611a0b565b6001610f7e81611a51565b33610f8881611ac6565b6106b56000611b86565b33610f9c81611a0b565b6000610fa781611a51565b82600560035481548110610fbd57610fbd6137e1565b906000526020600020906004020160010180549050610fdc82826116b9565b600185610fe982826116b9565b600887905561066d6001611b86565b61068181600354611484565b600754610100900460ff168061101d575060075460ff16155b6110395760405162461bcd60e51b8152600401610613906134de565b600754610100900460ff1615801561105b576007805461ffff19166101011790555b84865161106882826116b9565b60018761107582826116b9565b865188146110ad5760405162461bcd60e51b8152602060048201526005602482015264454331382d60d81b6044820152606401610613565b600386905560005b888110156111255760058054600101815560005287516006908990839081106110e0576110e06137e1565b6020908102919091018101518254600181018455600093845292829020815161111294919091019291909101906128db565b508061111d816137b0565b9150506110b5565b50600489905560005b8a5181101561126c57600073__AddressLibrary________________________63bc215e858d8481518110611165576111656137e1565b60200260200101516040518263ffffffff1660e01b8152600401611189919061330d565b60206040518083038186803b1580156111a157600080fd5b505af41580156111b5573d6000803e3d6000fd5b505050506040513d601f19601f820116820180604052508101906111d99190613031565b905060016005600354815481106111f2576111f26137e1565b60009182526020808320858452600492909202909101905260409020600101805460ff1916911515919091179055600354600580549091908110611238576112386137e1565b6000918252602080832060016004909302018201805492830181558352909120015580611264816137b0565b91505061112e565b50505050508015610950576007805461ff0019169055505050505050565b6060806000600181805461129d90613775565b80601f01602080910402602001604051908101604052809291908181526020018280546112c990613775565b80156113165780601f106112eb57610100808354040283529160200191611316565b820191906000526020600020905b8154815290600101906020018083116112f957829003601f168201915b5050505050915080805461132990613775565b80601f016020809104026020016040519081016040528092919081815260200182805461135590613775565b80156113a25780601f10611377576101008083540402835291602001916113a2565b820191906000526020600020905b81548152906001019060200180831161138557829003601f168201915b50505050509050915091509091565b6106b58383836001611c0d565b60405163c47f002760e01b815281906000906001600160a01b0383169063c47f0027906113ef90879060040161344b565b602060405180830381600087803b15801561140957600080fd5b505af115801561141d573d6000803e3d6000fd5b505050506040513d601f19601f820116820180604052508101906114419190613031565b90507f33ef81cad1e96e7a08670293e5ef94b9d7f3b8799292751c76914bc8c1270ca48482306040516114769392919061345e565b60405180910390a150505050565b60055460405163123bd07560e11b815282919073__Library_______________________________90632477a0ea906114c3908590859060040161343d565b60006040518083038186803b1580156114db57600080fd5b505af41580156114ef573d6000803e3d6000fd5b50505050336114fd81611a0b565b60008061151a87604051806020016040528060008152508861231e565b604051635cb09bcf60e01b8152919350915073__ItemsLibrary__________________________90635cb09bcf9061155a908590859030906004016135a4565b60006040518083038186803b15801561157257600080fd5b505af4158015611586573d6000803e3d6000fd5b5050505050505050505050565b60055460405163123bd07560e11b8152606091839173__Library_______________________________90632477a0ea906115d4908590859060040161343d565b60006040518083038186803b1580156115ec57600080fd5b505af4158015611600573d6000803e3d6000fd5b5050505073__ItemsLibrary__________________________6327724f4b60058681548110611631576116316137e1565b90600052602060002090600402016040518263ffffffff1660e01b815260040161165d91815260200190565b60006040518083038186803b15801561167557600080fd5b505af4158015611689573d6000803e3d6000fd5b505050506040513d6000823e601f3d908101601f191682016040526116b19190810190612f60565b949350505050565b808211156106c55760405162461bcd60e51b8152600401610613906134bf565b60055460405163123bd07560e11b815282919073__Library_______________________________90632477a0ea90611718908590859060040161343d565b60006040518083038186803b15801561173057600080fd5b505af4158015611744573d6000803e3d6000fd5b505050503361175281611a0b565b60008061176f87604051806020016040528060008152508861231e565b60405163e23fcdef60e01b8152919350915073__ItemsLibrary__________________________9063e23fcdef9061155a908590859030906004016135a4565b565b826117bb8161252a565b15156001146117f45760405162461bcd60e51b8152602060048201526005602482015264454331322d60d81b6044820152606401610613565b826001600160a01b038084166000908152600d602090815260408083208884529091529020548491869116156118545760405162461bcd60e51b8152602060048201526005602482015264454331352d60d81b6044820152606401610613565b61185f8787876118a4565b846001600160a01b0316876001600160a01b03167ff55a90628981610edc26894247bee72e1963d1c9faa4ea6533fd3df39fd36ed48860405161094691815260200190565b6001600160a01b038181166000818152600d6020818152604080842088855280835290842080546001600160a01b031916968a169690961790955590815260019384018054808601825581845291832090910186905591905254611908919061372e565b6001600160a01b039091166000908152600d60209081526040808320948352939052919091206001015550565b60055460405163123bd07560e11b815282919073__Library_______________________________90632477a0ea90611974908590859060040161343d565b60006040518083038186803b15801561198c57600080fd5b505af41580156119a0573d6000803e3d6000fd5b50505050336119ae81611a0b565b6000806119cb87604051806020016040528060008152508861231e565b604051637493a70b60e01b8152919350915073__ItemsLibrary__________________________90637493a70b9061155a908590859030906004016135a4565b611a1781600354612533565b15156001146106815760405162461bcd60e51b8152600401610613906020808252600490820152634543392d60e01b604082015260600190565b8015611a8e576008546106815760405162461bcd60e51b8152602060048201526005602482015264454333312d60d81b6044820152606401610613565b600854156106815760405162461bcd60e51b8152602060048201526005602482015264454333302d60d81b6044820152606401610613565b60405163f7cf62d760e01b815273__AddressLibrary________________________9063f7cf62d790611b00908490600b90600401613321565b60206040518083038186803b158015611b1857600080fd5b505af4158015611b2c573d6000803e3d6000fd5b505050506040513d601f19601f82011682018060405250810190611b509190613014565b156106815760405162461bcd60e51b8152600401610613906020808252600490820152634543352d60e01b604082015260600190565b8015611baa57600160096000828254611b9f9190613716565b90915550611bc39050565b6001600a6000828254611bbd9190613716565b90915550505b600b80546001810182556000919091527f0175b7a638427703f0dbe7bb9bbf987a2551717b34e79f33b5b1008d1fa01db90180546001600160a01b0319163317905561068161265e565b60055460405163123bd07560e11b815282919073__Library_______________________________90632477a0ea90611c4c908590859060040161343d565b60006040518083038186803b158015611c6457600080fd5b505af4158015611c78573d6000803e3d6000fd5b5050505033611c8681611a0b565b600080611ccb8989898080601f0160208091040260200160405190810160405280939291908181526020018383808284376000920191909152508b925061231e915050565b6040516305cc2d5560e11b8152919350915073__ItemsLibrary__________________________90630b985aaa90611d0b908590859030906004016135a4565b60006040518083038186803b158015611d2357600080fd5b505af4158015611d37573d6000803e3d6000fd5b50505050505050505050505050565b611d4e612846565b60055460405163123bd07560e11b815283919073__Library_______________________________90632477a0ea90611d8d908590859060040161343d565b60006040518083038186803b158015611da557600080fd5b505af4158015611db9573d6000803e3d6000fd5b505060405163bc215e8560e01b81526000925073__AddressLibrary________________________915063bc215e8590611df790899060040161330d565b60206040518083038186803b158015611e0f57600080fd5b505af4158015611e23573d6000803e3d6000fd5b505050506040513d601f19601f82011682018060405250810190611e479190613031565b905073__ItemsLibrary__________________________631aeccc6a8260058881548110611e7757611e776137e1565b90600052602060002090600402016040518363ffffffff1660e01b8152600401611ea292919061343d565b60006040518083038186803b158015611eba57600080fd5b505af4158015611ece573d6000803e3d6000fd5b505050506040513d6000823e601f3d908101601f19168201604052611ef6919081019061310b565b9695505050505050565b8151611f139060009060208501906128db565b5080516106b59060019060208401906128db565b60055460405163123bd07560e11b8152606091839173__Library_______________________________90632477a0ea90611f68908590859060040161343d565b60006040518083038186803b158015611f8057600080fd5b505af4158015611f94573d6000803e3d6000fd5b50505050606073__ItemsLibrary__________________________63e035e0068760058881548110611fc857611fc86137e1565b90600052602060002090600402016040518363ffffffff1660e01b8152600401611ffe9291909115158252602082015260400190565b60006040518083038186803b15801561201657600080fd5b505af415801561202a573d6000803e3d6000fd5b505050506040513d6000823e601f3d908101601f19168201604052611ef69190810190612f60565b60055460405163123bd07560e11b8152600091839173__Library_______________________________90632477a0ea90612093908590859060040161343d565b60006040518083038186803b1580156120ab57600080fd5b505af41580156120bf573d6000803e3d6000fd5b505060405163bc215e8560e01b81526000925073__AddressLibrary________________________915063bc215e85906120fd90899060040161330d565b60206040518083038186803b15801561211557600080fd5b505af4158015612129573d6000803e3d6000fd5b505050506040513d601f19601f8201168201806040525081019061214d9190613031565b905073__ItemsLibrary__________________________632854ed2e826005888154811061217d5761217d6137e1565b90600052602060002090600402016040518363ffffffff1660e01b81526004016121a892919061343d565b60206040518083038186803b1580156121c057600080fd5b505af41580156121d4573d6000803e3d6000fd5b505050506040513d601f19601f82011682018060405250810190611ef69190613014565b8161220281612796565b868461220e82826127cd565b60405163c1bc5c3f60e01b815273__SignatureLibrary______________________9063c1bc5c3f90612255908c908c908c908c908c908c90600090600190600401613380565b60206040518083038186803b15801561226d57600080fd5b505af4158015612281573d6000803e3d6000fd5b505050506040513d601f19601f820116820180604052508101906122a59190613014565b15156001146122de5760405162461bcd60e51b8152602060048201526005602482015264454333322d60d81b6044820152606401610613565b61231389876001600160a01b03909116600090815260026020908152604080832093835292905220805460ff19166001179055565b505050505050505050565b6123536040518060a0016040528060008019168152602001606081526020016000815260200160608152602001606081525090565b60008073__AddressLibrary________________________63bc215e85876040518263ffffffff1660e01b815260040161238d919061330d565b60206040518083038186803b1580156123a557600080fd5b505af41580156123b9573d6000803e3d6000fd5b505050506040513d601f19601f820116820180604052508101906123dd9190613031565b60408051600180825281830190925291925060009190602080830190803683370190505090508481600081518110612417576124176137e1565b60200260200101818152505060006040518060a00160405280848152602001888152602001600454815260200160068881548110612457576124576137e1565b90600052602060002001805461246c90613775565b80601f016020809104026020016040519081016040528092919081815260200182805461249890613775565b80156124e55780601f106124ba576101008083540402835291602001916124e5565b820191906000526020600020905b8154815290600101906020018083116124c857829003601f168201915b5050505050815260200183815250905060006005878154811061250a5761250a6137e1565b600091825260209091209296506004029091019350505050935093915050565b60006109ad8260015b60055460405163123bd07560e11b8152600091839173__Library_______________________________90632477a0ea90612574908590859060040161343d565b60006040518083038186803b15801561258c57600080fd5b505af41580156125a0573d6000803e3d6000fd5b505060405163bc215e8560e01b81526000925073__AddressLibrary________________________915063bc215e85906125de90899060040161330d565b60206040518083038186803b1580156125f657600080fd5b505af415801561260a573d6000803e3d6000fd5b505050506040513d601f19601f8201168201806040525081019061262e9190613031565b905073__ItemsLibrary__________________________63dbdfbeec826005888154811061217d5761217d6137e1565b6009546004805460405163f6001d7d60e01b815273__ItemsLibrary__________________________9363f6001d7d9361269a9391920161343d565b60206040518083038186803b1580156126b257600080fd5b505af41580156126c6573d6000803e3d6000fd5b505050506040513d601f19601f820116820180604052508101906126ea9190613014565b156126fd576008546004556117af612829565b600a546004805460405163f6001d7d60e01b815273__ItemsLibrary__________________________9363f6001d7d936127399391920161343d565b60206040518083038186803b15801561275157600080fd5b505af4158015612765573d6000803e3d6000fd5b505050506040513d601f19601f820116820180604052508101906127899190613014565b156117af576117af612829565b8042106106815760405162461bcd60e51b8152602060048201526005602482015264454333332d60d81b6044820152606401610613565b6001600160a01b038216600090815260026020908152604080832084845290915290205460ff16156106c55760405162461bcd60e51b8152602060048201526005602482015264454333342d60d81b6044820152606401610613565b600060088190556009819055600a8190556117af90600b9061295b565b6040518060c0016040528060608152602001600015158152602001600081526020016000815260200160608152602001606081525090565b8280548282559060005260206000209081019282156128cb579160200282015b828111156128cb57825180516128bb9184916020909101906128db565b509160200191906001019061289e565b506128d7929150612979565b5090565b8280546128e790613775565b90600052602060002090601f016020900481019282612909576000855561294f565b82601f1061292257805160ff191683800117855561294f565b8280016001018555821561294f579182015b8281111561294f578251825591602001919060010190612934565b506128d7929150612996565b50805460008255906000526020600020908101906106819190612996565b808211156128d757600061298d82826129ab565b50600101612979565b5b808211156128d75760008155600101612997565b5080546129b790613775565b6000825580601f106129c7575050565b601f0160209004906000526020600020908101906106819190612996565b60006129f86129f3846136ef565b61369c565b9050828152838383011115612a0c57600080fd5b828260208301376000602084830101529392505050565b8035612a2e8161380d565b919050565b600082601f830112612a4457600080fd5b81356020612a546129f3836136cc565b80838252828201915082860187848660051b8901011115612a7457600080fd5b60005b85811015612a9c578135612a8a8161380d565b84529284019290840190600101612a77565b5090979650505050505050565b600082601f830112612aba57600080fd5b81516020612aca6129f3836136cc565b80838252828201915082860187848660051b8901011115612aea57600080fd5b60005b85811015612a9c578151612b008161380d565b84529284019290840190600101612aed565b8051612a2e81613822565b600082601f830112612b2e57600080fd5b610c3c838335602085016129e5565b600082601f830112612b4e57600080fd5b8151612b5c6129f3826136ef565b818152846020838601011115612b7157600080fd5b6116b1826020830160208701613745565b600060208284031215612b9457600080fd5b8135610c3c8161380d565b60008060008060008060c08789031215612bb857600080fd5b8635612bc38161380d565b9550602087013594506040870135612bda8161380d565b9350606087013592506080870135915060a08701356001600160401b03811115612c0357600080fd5b8701601f81018913612c1457600080fd5b612c23898235602084016129e5565b9150509295509295509295565b600080600060408486031215612c4557600080fd5b8335612c508161380d565b925060208401356001600160401b0380821115612c6c57600080fd5b818601915086601f830112612c8057600080fd5b813581811115612c8f57600080fd5b876020828501011115612ca157600080fd5b6020830194508093505050509250925092565b60008060408385031215612cc757600080fd5b8235612cd28161380d565b946020939093013593505050565b600080600060608486031215612cf557600080fd5b8335612d008161380d565b95602085013595506040909401359392505050565b60008060008060808587031215612d2b57600080fd5b84356001600160401b0380821115612d4257600080fd5b612d4e88838901612a33565b9550602087013594506040870135915080821115612d6b57600080fd5b612d7788838901612b1d565b93506060870135915080821115612d8d57600080fd5b50612d9a87828801612b1d565b91505092959194509250565b60008060008060008060c08789031215612dbf57600080fd5b86356001600160401b0380821115612dd657600080fd5b612de28a838b01612a33565b9750602089013596506040890135915080821115612dff57600080fd5b612e0b8a838b01612b1d565b95506060890135915080821115612e2157600080fd5b612e2d8a838b01612b1d565b94506080890135915080821115612e4357600080fd5b50612e5089828a01612b1d565b925050612e5f60a08801612a23565b90509295509295509295565b600080600080600060a08688031215612e8357600080fd5b85356001600160401b0380821115612e9a57600080fd5b612ea689838a01612a33565b96506020915081880135955060408801359450606088013581811115612ecb57600080fd5b8801601f81018a13612edc57600080fd5b8035612eea6129f3826136cc565b8082825285820191508584018d878560051b8701011115612f0a57600080fd5b60005b84811015612f44578682351115612f2357600080fd5b612f328f898435890101612b1d565b84529287019290870190600101612f0d565b5050809750505050505050608086013590509295509295909350565b60006020808385031215612f7357600080fd5b82516001600160401b03811115612f8957600080fd5b8301601f81018513612f9a57600080fd5b8051612fa86129f3826136cc565b80828252848201915084840188868560051b8701011115612fc857600080fd5b600094505b83851015612feb578051835260019490940193918501918501612fcd565b50979650505050505050565b60006020828403121561300957600080fd5b8135610c3c81613822565b60006020828403121561302657600080fd5b8151610c3c81613822565b60006020828403121561304357600080fd5b5051919050565b6000806040838503121561305d57600080fd5b82359150602083013561306f8161380d565b809150509250929050565b6000806000806060858703121561309057600080fd5b8435935060208501356001600160401b03808211156130ae57600080fd5b818701915087601f8301126130c257600080fd5b8135818111156130d157600080fd5b8860208260051b85010111156130e657600080fd5b602083019550809450505050604085013561310081613822565b939692955090935050565b60006020828403121561311d57600080fd5b81516001600160401b038082111561313457600080fd5b9083019060c0828603121561314857600080fd5b613150613674565b82518281111561315f57600080fd5b61316b87828601612b3d565b82525061317a60208401612b12565b602082015260408301516040820152606083015160608201526080830151828111156131a557600080fd5b6131b187828601612aa9565b60808301525060a0830151828111156131c957600080fd5b6131d587828601612aa9565b60a08301525095945050505050565b6000602082840312156131f657600080fd5b5035919050565b600081518084526020808501945080840160005b838110156132365781516001600160a01b031687529582019590820190600101613211565b509495945050505050565b60008151808452613259816020860160208601613745565b601f01601f19169290920160200192915050565b8054600090600181811c908083168061328757607f831692505b60208084108214156132a957634e487b7160e01b600052602260045260246000fd5b838852602088018280156132c457600181146132d557613300565b60ff19871682528282019750613300565b60008981526020902060005b878110156132fa578154848201529086019084016132e1565b83019850505b5050505050505092915050565b6001600160a01b0391909116815260200190565b60006040820160018060a01b03808616845260206040818601528286548085526060870191508760005282600020945060005b81811015613372578554851683526001958601959284019201613354565b509098975050505050505050565b6001600160a01b0389811682526020820189905287166040820152606081018690526080810185905261010060a082018190526000906133c283820187613241565b905082810360c08401526133d6818661326d565b905082810360e08401526133ea818561326d565b9b9a5050505050505050505050565b6020808252825182820181905260009190848201906040850190845b8181101561343157835183529284019291840191600101613415565b50909695505050505050565b918252602082015260400190565b602081526000610c3c6020830184613241565b6060815260006134716060830186613241565b6020830194909452506001600160a01b0391909116604090910152919050565b6040815260006134a46040830185613241565b82810360208401526134b68185613241565b95945050505050565b602080825260059082015264454331392d60d81b604082015260600190565b6020808252602e908201527f496e697469616c697a61626c653a20636f6e747261637420697320616c72656160408201526d191e481a5b9a5d1a585b1a5e995960921b606082015260800190565b602081526000825160c0602084015261354860e0840182613241565b905060208401511515604084015260408401516060840152606084015160808401526080840151601f19808584030160a086015261358683836131fd565b925060a08601519150808584030160c0860152506134b682826131fd565b6060815283516060820152600060208086015160a060808501526135cc610100850182613241565b9050604087015160a08501526060870151605f19808684030160c08701526135f48383613241565b60808a015187820390920160e088015281518082529185019350600092508401905b808310156136365783518252928401926001929092019190840190613616565b5092850187905250506001600160a01b038416604084015290506116b1565b8381528260208201526060604082015260006134b660608301846131fd565b60405160c081016001600160401b0381118282101715613696576136966137f7565b60405290565b604051601f8201601f191681016001600160401b03811182821017156136c4576136c46137f7565b604052919050565b60006001600160401b038211156136e5576136e56137f7565b5060051b60200190565b60006001600160401b03821115613708576137086137f7565b50601f01601f191660200190565b60008219821115613729576137296137cb565b500190565b600082821015613740576137406137cb565b500390565b60005b83811015613760578181015183820152602001613748565b8381111561376f576000848401525b50505050565b600181811c9082168061378957607f821691505b602082108114156137aa57634e487b7160e01b600052602260045260246000fd5b50919050565b60006000198214156137c4576137c46137cb565b5060010190565b634e487b7160e01b600052601160045260246000fd5b634e487b7160e01b600052603260045260246000fd5b634e487b7160e01b600052604160045260246000fd5b6001600160a01b038116811461068157600080fd5b801515811461068157600080fdfea2646970667358221220a6356f14449b49dc0cd85d96b0b04eba94b1bd1414bc5344ec8d14a5288ea70c64736f6c63430008070033",
  "immutableReferences": {},
  "source": "// SPDX-License-Identifier: GPL-3.0\r\n\r\npragma solidity 0.8.7;\r\n\r\n/*\r\n  Private Certificate Pools offer the default MultiSig Certificate Pool functionality\r\n */\r\n\r\n import \"../Abstract/MultiSigCertificatesPool.sol\";\r\n import \"../Base/ReverseRegistryBaseContract.sol\";\r\n\r\n\r\n contract PrivateCertificatesPool is ReverseRegistryBaseContract, MultiSigCertificatesPool {\r\n\r\n    // CONSTRUCTOR & INIT /////////////////////////////////////////\r\n    function PrivateCertPool_init(address[] memory owners,  uint256 minOwners, string memory contractName, string memory contractVersion, string memory ENSName, address ReverseRegistryAddress) public initializer \r\n    {\r\n      super.MultiSigCertPool_init(owners, minOwners, contractName, contractVersion);\r\n\r\n      if(0 < bytes(ENSName).length){\r\n        RegisterReverseAddress(ENSName, ReverseRegistryAddress);\r\n      }\r\n      \r\n    }\r\n\r\n  }",
  "sourcePath": "C:\\Users\\d-aam\\GitHub\\Certificates\\contracts\\DeployedContracts\\PrivateCertificatesPool.sol",
  "compiler": {
    "name": "solc",
    "version": "0.8.7+commit.e28d00a7.Emscripten.clang"
  },
  "schemaVersion": "3.4.3",
  "updatedAt": "2022-01-21T10:05:38.832Z",
  "networkType": "ethereum",
  "devdoc": {
    "kind": "dev",
    "methods": {},
    "version": 1
  },
  "userdoc": {
    "kind": "user",
    "methods": {},
    "version": 1
  }
}