{
  "contractName": "PrivateCertificatesPool",
  "abi": [
    {
      "anonymous": false,
      "inputs": [
        {
          "indexed": true,
          "internalType": "address",
          "name": "Provider",
          "type": "address"
        },
        {
          "indexed": true,
          "internalType": "address",
          "name": "Holder",
          "type": "address"
        },
        {
          "indexed": false,
          "internalType": "bytes32",
          "name": "Certificate",
          "type": "bytes32"
        }
      ],
      "name": "_AddCertificate",
      "type": "event"
    },
    {
      "anonymous": false,
      "inputs": [
        {
          "indexed": false,
          "internalType": "string",
          "name": "ItemType",
          "type": "string"
        },
        {
          "indexed": true,
          "internalType": "bytes32",
          "name": "Item",
          "type": "bytes32"
        },
        {
          "indexed": false,
          "internalType": "string",
          "name": "Info",
          "type": "string"
        }
      ],
      "name": "_AddItemRejection",
      "type": "event"
    },
    {
      "anonymous": false,
      "inputs": [
        {
          "indexed": false,
          "internalType": "string",
          "name": "ItemType",
          "type": "string"
        },
        {
          "indexed": true,
          "internalType": "bytes32",
          "name": "Item",
          "type": "bytes32"
        },
        {
          "indexed": false,
          "internalType": "string",
          "name": "Info",
          "type": "string"
        }
      ],
      "name": "_AddItemValidation",
      "type": "event"
    },
    {
      "anonymous": false,
      "inputs": [
        {
          "indexed": false,
          "internalType": "string",
          "name": "ItemType",
          "type": "string"
        },
        {
          "indexed": true,
          "internalType": "bytes32",
          "name": "Item",
          "type": "bytes32"
        },
        {
          "indexed": false,
          "internalType": "string",
          "name": "Info",
          "type": "string"
        }
      ],
      "name": "_RemoveItemRejection",
      "type": "event"
    },
    {
      "anonymous": false,
      "inputs": [
        {
          "indexed": false,
          "internalType": "string",
          "name": "ItemType",
          "type": "string"
        },
        {
          "indexed": true,
          "internalType": "bytes32",
          "name": "Item",
          "type": "bytes32"
        },
        {
          "indexed": false,
          "internalType": "string",
          "name": "Info",
          "type": "string"
        }
      ],
      "name": "_RemoveItemValidation",
      "type": "event"
    },
    {
      "inputs": [
        {
          "internalType": "address[]",
          "name": "owners",
          "type": "address[]"
        },
        {
          "internalType": "uint256",
          "name": "minOwners",
          "type": "uint256"
        },
        {
          "internalType": "string",
          "name": "contractName",
          "type": "string"
        },
        {
          "internalType": "string",
          "name": "contractVersion",
          "type": "string"
        }
      ],
      "name": "MultiSigCertPool_init",
      "outputs": [],
      "stateMutability": "nonpayable",
      "type": "function"
    },
    {
      "inputs": [
        {
          "internalType": "address[]",
          "name": "owners",
          "type": "address[]"
        },
        {
          "internalType": "uint256",
          "name": "minOwners",
          "type": "uint256"
        },
        {
          "internalType": "uint256",
          "name": "TotalEntities",
          "type": "uint256"
        },
        {
          "internalType": "string[]",
          "name": "labels",
          "type": "string[]"
        },
        {
          "internalType": "uint256",
          "name": "ownerId",
          "type": "uint256"
        }
      ],
      "name": "MultiSigContract_init",
      "outputs": [],
      "stateMutability": "nonpayable",
      "type": "function"
    },
    {
      "inputs": [
        {
          "internalType": "bytes32",
          "name": "CertificateHash",
          "type": "bytes32"
        },
        {
          "internalType": "address",
          "name": "holder",
          "type": "address"
        }
      ],
      "name": "addCertificate",
      "outputs": [],
      "stateMutability": "payable",
      "type": "function",
      "payable": true
    },
    {
      "inputs": [
        {
          "internalType": "address",
          "name": "provider",
          "type": "address"
        },
        {
          "internalType": "bytes32",
          "name": "CertificateHash",
          "type": "bytes32"
        },
        {
          "internalType": "address",
          "name": "holder",
          "type": "address"
        },
        {
          "internalType": "uint256",
          "name": "nonce",
          "type": "uint256"
        },
        {
          "internalType": "uint256",
          "name": "deadline",
          "type": "uint256"
        },
        {
          "internalType": "bytes",
          "name": "signature",
          "type": "bytes"
        }
      ],
      "name": "addCertificateOnBehalfOf",
      "outputs": [],
      "stateMutability": "payable",
      "type": "function",
      "payable": true
    },
    {
      "inputs": [
        {
          "internalType": "address",
          "name": "owner",
          "type": "address"
        },
        {
          "internalType": "string",
          "name": "ownerInfo",
          "type": "string"
        }
      ],
      "name": "addOwner",
      "outputs": [],
      "stateMutability": "nonpayable",
      "type": "function"
    },
    {
      "inputs": [
        {
          "internalType": "address",
          "name": "provider",
          "type": "address"
        },
        {
          "internalType": "string",
          "name": "providerInfo",
          "type": "string"
        }
      ],
      "name": "addProvider",
      "outputs": [],
      "stateMutability": "payable",
      "type": "function",
      "payable": true
    },
    {
      "inputs": [
        {
          "internalType": "uint256",
          "name": "newMinOwners",
          "type": "uint256"
        }
      ],
      "name": "changeMinOwners",
      "outputs": [],
      "stateMutability": "nonpayable",
      "type": "function"
    },
    {
      "inputs": [
        {
          "internalType": "bytes32",
          "name": "item",
          "type": "bytes32"
        },
        {
          "internalType": "uint256[]",
          "name": "ids",
          "type": "uint256[]"
        },
        {
          "internalType": "bool",
          "name": "addOrRemove",
          "type": "bool"
        }
      ],
      "name": "onItemRejected",
      "outputs": [],
      "stateMutability": "nonpayable",
      "type": "function"
    },
    {
      "inputs": [
        {
          "internalType": "bytes32",
          "name": "item",
          "type": "bytes32"
        },
        {
          "internalType": "uint256[]",
          "name": "ids",
          "type": "uint256[]"
        },
        {
          "internalType": "bool",
          "name": "addOrRemove",
          "type": "bool"
        }
      ],
      "name": "onItemValidated",
      "outputs": [],
      "stateMutability": "nonpayable",
      "type": "function"
    },
    {
      "inputs": [],
      "name": "rejectMinOwners",
      "outputs": [],
      "stateMutability": "nonpayable",
      "type": "function"
    },
    {
      "inputs": [
        {
          "internalType": "address",
          "name": "owner",
          "type": "address"
        }
      ],
      "name": "rejectOwner",
      "outputs": [],
      "stateMutability": "nonpayable",
      "type": "function"
    },
    {
      "inputs": [
        {
          "internalType": "address",
          "name": "provider",
          "type": "address"
        }
      ],
      "name": "rejectProvider",
      "outputs": [],
      "stateMutability": "nonpayable",
      "type": "function"
    },
    {
      "inputs": [
        {
          "internalType": "address",
          "name": "owner",
          "type": "address"
        }
      ],
      "name": "removeOwner",
      "outputs": [],
      "stateMutability": "nonpayable",
      "type": "function"
    },
    {
      "inputs": [
        {
          "internalType": "address",
          "name": "provider",
          "type": "address"
        }
      ],
      "name": "removeProvider",
      "outputs": [],
      "stateMutability": "nonpayable",
      "type": "function"
    },
    {
      "inputs": [],
      "name": "retrieveAddCertificatePriceWei",
      "outputs": [
        {
          "internalType": "uint256",
          "name": "",
          "type": "uint256"
        }
      ],
      "stateMutability": "view",
      "type": "function",
      "constant": true
    },
    {
      "inputs": [],
      "name": "retrieveAllOwners",
      "outputs": [
        {
          "internalType": "bytes32[]",
          "name": "",
          "type": "bytes32[]"
        }
      ],
      "stateMutability": "view",
      "type": "function",
      "constant": true
    },
    {
      "inputs": [],
      "name": "retrieveAllProviders",
      "outputs": [
        {
          "internalType": "bytes32[]",
          "name": "",
          "type": "bytes32[]"
        }
      ],
      "stateMutability": "view",
      "type": "function",
      "constant": true
    },
    {
      "inputs": [
        {
          "internalType": "bytes32",
          "name": "CertificateHash",
          "type": "bytes32"
        },
        {
          "internalType": "address",
          "name": "holder",
          "type": "address"
        }
      ],
      "name": "retrieveCertificateProvider",
      "outputs": [
        {
          "internalType": "address",
          "name": "",
          "type": "address"
        }
      ],
      "stateMutability": "view",
      "type": "function",
      "constant": true
    },
    {
      "inputs": [
        {
          "internalType": "address",
          "name": "holder",
          "type": "address"
        },
        {
          "internalType": "uint256",
          "name": "skipFirst",
          "type": "uint256"
        },
        {
          "internalType": "uint256",
          "name": "max",
          "type": "uint256"
        }
      ],
      "name": "retrieveCertificatesByHolder",
      "outputs": [
        {
          "internalType": "bytes32[]",
          "name": "",
          "type": "bytes32[]"
        }
      ],
      "stateMutability": "view",
      "type": "function",
      "constant": true
    },
    {
      "inputs": [],
      "name": "retrieveContractConfig",
      "outputs": [
        {
          "internalType": "string",
          "name": "",
          "type": "string"
        },
        {
          "internalType": "string",
          "name": "",
          "type": "string"
        }
      ],
      "stateMutability": "view",
      "type": "function",
      "constant": true
    },
    {
      "inputs": [],
      "name": "retrieveMinOwners",
      "outputs": [
        {
          "internalType": "uint256",
          "name": "",
          "type": "uint256"
        }
      ],
      "stateMutability": "view",
      "type": "function",
      "constant": true
    },
    {
      "inputs": [
        {
          "internalType": "address",
          "name": "addr",
          "type": "address"
        },
        {
          "internalType": "uint256",
          "name": "nonce",
          "type": "uint256"
        }
      ],
      "name": "retrieveNonce",
      "outputs": [
        {
          "internalType": "bool",
          "name": "",
          "type": "bool"
        }
      ],
      "stateMutability": "view",
      "type": "function",
      "constant": true
    },
    {
      "inputs": [
        {
          "internalType": "address",
          "name": "owner",
          "type": "address"
        }
      ],
      "name": "retrieveOwner",
      "outputs": [
        {
          "components": [
            {
              "internalType": "string",
              "name": "_Info",
              "type": "string"
            },
            {
              "internalType": "bool",
              "name": "_activated",
              "type": "bool"
            },
            {
              "internalType": "uint256",
              "name": "_id",
              "type": "uint256"
            },
            {
              "internalType": "uint256",
              "name": "_pendingId",
              "type": "uint256"
            },
            {
              "internalType": "address[]",
              "name": "_Validations",
              "type": "address[]"
            },
            {
              "internalType": "address[]",
              "name": "_Rejections",
              "type": "address[]"
            }
          ],
          "internalType": "struct ItemsLibrary._itemIdentity",
          "name": "",
          "type": "tuple"
        }
      ],
      "stateMutability": "view",
      "type": "function",
      "constant": true
    },
    {
      "inputs": [],
      "name": "retrievePendingMinOwners",
      "outputs": [
        {
          "internalType": "uint256",
          "name": "",
          "type": "uint256"
        }
      ],
      "stateMutability": "view",
      "type": "function",
      "constant": true
    },
    {
      "inputs": [],
      "name": "retrievePendingMinOwnersStatus",
      "outputs": [
        {
          "internalType": "uint256",
          "name": "",
          "type": "uint256"
        },
        {
          "internalType": "uint256",
          "name": "",
          "type": "uint256"
        },
        {
          "internalType": "address[]",
          "name": "",
          "type": "address[]"
        }
      ],
      "stateMutability": "view",
      "type": "function",
      "constant": true
    },
    {
      "inputs": [
        {
          "internalType": "bool",
          "name": "addedORremove",
          "type": "bool"
        }
      ],
      "name": "retrievePendingOwners",
      "outputs": [
        {
          "internalType": "bytes32[]",
          "name": "",
          "type": "bytes32[]"
        }
      ],
      "stateMutability": "view",
      "type": "function",
      "constant": true
    },
    {
      "inputs": [
        {
          "internalType": "bool",
          "name": "addedORremove",
          "type": "bool"
        }
      ],
      "name": "retrievePendingProviders",
      "outputs": [
        {
          "internalType": "bytes32[]",
          "name": "",
          "type": "bytes32[]"
        }
      ],
      "stateMutability": "view",
      "type": "function",
      "constant": true
    },
    {
      "inputs": [
        {
          "internalType": "address",
          "name": "provider",
          "type": "address"
        }
      ],
      "name": "retrieveProvider",
      "outputs": [
        {
          "components": [
            {
              "internalType": "string",
              "name": "_Info",
              "type": "string"
            },
            {
              "internalType": "bool",
              "name": "_activated",
              "type": "bool"
            },
            {
              "internalType": "uint256",
              "name": "_id",
              "type": "uint256"
            },
            {
              "internalType": "uint256",
              "name": "_pendingId",
              "type": "uint256"
            },
            {
              "internalType": "address[]",
              "name": "_Validations",
              "type": "address[]"
            },
            {
              "internalType": "address[]",
              "name": "_Rejections",
              "type": "address[]"
            }
          ],
          "internalType": "struct ItemsLibrary._itemIdentity",
          "name": "",
          "type": "tuple"
        }
      ],
      "stateMutability": "view",
      "type": "function",
      "constant": true
    },
    {
      "inputs": [],
      "name": "retrieveSubscriptionPriceWei",
      "outputs": [
        {
          "internalType": "uint256",
          "name": "",
          "type": "uint256"
        }
      ],
      "stateMutability": "view",
      "type": "function",
      "constant": true
    },
    {
      "inputs": [
        {
          "internalType": "address",
          "name": "holder",
          "type": "address"
        }
      ],
      "name": "retrieveTotalCertificatesByHolder",
      "outputs": [
        {
          "internalType": "uint256",
          "name": "",
          "type": "uint256"
        }
      ],
      "stateMutability": "view",
      "type": "function",
      "constant": true
    },
    {
      "inputs": [],
      "name": "validateMinOwners",
      "outputs": [],
      "stateMutability": "nonpayable",
      "type": "function"
    },
    {
      "inputs": [
        {
          "internalType": "address",
          "name": "owner",
          "type": "address"
        }
      ],
      "name": "validateOwner",
      "outputs": [],
      "stateMutability": "nonpayable",
      "type": "function"
    },
    {
      "inputs": [
        {
          "internalType": "address",
          "name": "provider",
          "type": "address"
        }
      ],
      "name": "validateProvider",
      "outputs": [],
      "stateMutability": "nonpayable",
      "type": "function"
    },
    {
      "inputs": [
        {
          "internalType": "address[]",
          "name": "owners",
          "type": "address[]"
        },
        {
          "internalType": "uint256",
          "name": "minOwners",
          "type": "uint256"
        },
        {
          "internalType": "string",
          "name": "contractName",
          "type": "string"
        },
        {
          "internalType": "string",
          "name": "contractVersion",
          "type": "string"
        }
      ],
      "name": "PrivateCertPool_init",
      "outputs": [],
      "stateMutability": "nonpayable",
      "type": "function"
    }
  ],
  "bytecode": "0x608060405234801561001057600080fd5b506137db806100206000396000f3fe6080604052600436106101895760003560e01c80630b4c72a91461018e578063173825d9146101b05780631ab807f8146101d057806327a40b4b146101e35780632edbe7fc1461020357806330ade922146102275780633542758f1461023c578063375834991461025c5780633fd07181146102895780633feca4ca146102a95780634774779d146102ff57806357e7ea2e146102ff5780635888ebb31461031357806358a1ba251461033757806360e639a01461036457806365b973e5146103845780636825b263146103995780636b299604146103b95780636b3a0fec146103d95780636e4f9179146103f95780636e55d2d41461040e57806376f8f90f1461042e57806377bc5a1f1461044e5780637c8c2add146102895780638a355a571461046e5780638b9be2561461048e578063a93d5ed6146104a1578063c3079ae7146104b6578063c66433ea146104cb578063ce33d58a146104eb578063cf2041d91461050b578063d0a4adfe1461052b578063d2116a021461057e578063fc000500146105a1575b600080fd5b34801561019a57600080fd5b506101ae6101a9366004612b6c565b6105b4565b005b3480156101bc57600080fd5b506101ae6101cb366004612b6c565b6105c2565b6101ae6101de366004612f6d565b610617565b3480156101ef57600080fd5b506101ae6101fe366004612b6c565b610626565b34801561020f57600080fd5b506008545b6040519081526020015b60405180910390f35b34801561023357600080fd5b506101ae610631565b34801561024857600080fd5b506101ae610257366004612c1a565b610730565b34801561026857600080fd5b5061027c610277366004612b6c565b61073e565b60405161021e91906134a1565b34801561029557600080fd5b506101ae6102a4366004612f9d565b610757565b3480156102b557600080fd5b506102ef6102c4366004612c9e565b6001600160a01b03919091166000908152600260209081526040808320938352929052205460ff1690565b604051901515815260200161021e565b34801561030b57600080fd5b506000610214565b34801561031f57600080fd5b50610328610821565b60405161021e939291906135ca565b34801561034357600080fd5b50610357610352366004612cca565b610895565b60405161021e919061331c565b34801561037057600080fd5b506101ae61037f366004612cff565b610a3b565b34801561039057600080fd5b50600454610214565b3480156103a557600080fd5b506101ae6103b4366004612cff565b610ab6565b3480156103c557600080fd5b506103576103d4366004612f1a565b610cd9565b3480156103e557600080fd5b506103576103f4366004612f1a565b610ce7565b34801561040557600080fd5b50610357610cf4565b34801561041a57600080fd5b50610214610429366004612b6c565b610d05565b34801561043a57600080fd5b506101ae610449366004612b6c565b610d23565b34801561045a57600080fd5b5061027c610469366004612b6c565b610d7e565b34801561047a57600080fd5b506101ae610489366004612b6c565b610d92565b6101ae61049c366004612b89565b610d9d565b3480156104ad57600080fd5b50610357610dbe565b3480156104c257600080fd5b506101ae610dcb565b3480156104d757600080fd5b506101ae6104e6366004613107565b610eca565b3480156104f757600080fd5b506101ae610506366004612b6c565b610fad565b34801561051757600080fd5b506101ae610526366004612d90565b610fb9565b34801561053757600080fd5b50610571610546366004612f6d565b6001600160a01b039081166000908152600d6020908152604080832094835293905291909120541690565b60405161021e9190613230565b34801561058a57600080fd5b5061059361126a565b60405161021e92919061336e565b6101ae6105af366004612c1a565b611391565b6105bf81600161139e565b50565b60045460016105d2600354611510565b516105dd91906136a3565b808211156106065760405162461bcd60e51b81526004016105fd906133ba565b60405180910390fd5b61061283600354611677565b505050565b6106223383836117b3565b5050565b6105bf8160016118eb565b61063d33600354611a25565b151560011461065e5760405162461bcd60e51b81526004016105fd90613465565b600160085461067f5760405162461bcd60e51b81526004016105fd906133d9565b60405163f7cf62d760e01b815273__AddressLibrary________________________9063f7cf62d7906106b9903390600b90600401613244565b60206040518083038186803b1580156106d157600080fd5b505af41580156106e5573d6000803e3d6000fd5b505050506040513d601f19601f820116820180604052508101906107099190612f37565b156107265760405162461bcd60e51b81526004016105fd90613483565b6105bf6001611c16565b610612838383600354611c9d565b61074661283b565b610751826001611e39565b92915050565b604051630d1d719d60e41b8152309073__Library_______________________________9063d1d719d090610790908490600401613230565b60206040518083038186803b1580156107a857600080fd5b505af41580156107bc573d6000803e3d6000fd5b505050506040513d601f19601f820116820180604052508101906107e09190612f37565b151560011461081a5760405162461bcd60e51b81526004016105fd906020808252600490820152634543382d60e01b604082015260600190565b5050505050565b6000806060600954600a54600b8080548060200260200160405190810160405280929190818152602001828054801561088357602002820191906000526020600020905b81546001600160a01b03168152600190910190602001808311610865575b50505050509050925092509250909192565b6060826108a185610d05565b116108bb5750604080516000815260208101909152610a34565b8180846108c787610d05565b6108d191906136a3565b10156108ee57836108e186610d05565b6108eb91906136a3565b90505b6000816001600160401b038111156109085761090861376c565b604051908082528060200260200182016040528015610931578160200160208202803683370190505b506001600160a01b0387166000908152600d602090815260408083206001018054825181850281018501909352808352949550929390929183018282801561099857602002820191906000526020600020905b815481526020019060010190808311610984575b5050505050905060008060005b8351811015610a2b578783106109ba57610a2b565b818911156109d4576109cd60018361368b565b9150610a19565b8381815181106109e6576109e6613756565b6020026020010151858481518110610a0057610a00613756565b6020908102919091010152610a1660018461368b565b92505b80610a2381613725565b9150506109a5565b50929450505050505b9392505050565b600754610100900460ff1680610a54575060075460ff16155b610a705760405162461bcd60e51b81526004016105fd90613417565b600754610100900460ff16158015610a92576007805461ffff19166101011790555b610a9e85858585610ab6565b801561081a576007805461ff00191690555050505050565b600754610100900460ff1680610acf575060075460ff16155b610aeb5760405162461bcd60e51b81526004016105fd90613417565b600754610100900460ff16158015610b0d576007805461ffff19166101011790555b6040805160028082526060820190925290816020015b6060815260200190600190039081610b235750508051610b4b91600c91602090910190612873565b506040518060400160405280600581526020016427bbb732b960d91b815250600c600081548110610b7e57610b7e613756565b906000526020600020019080519060200190610b9b9291906128d0565b5060405180604001604052806008815260200167283937bb34b232b960c11b815250600c600181548110610bd157610bd1613756565b906000526020600020019080519060200190610bee9291906128d0565b50610bf9838361202a565b610a9e85856002600c805480602002602001604051908101604052809291908181526020016000905b82821015610cce578382906000526020600020018054610c41906136ea565b80601f0160208091040260200160405190810160405280929190818152602001828054610c6d906136ea565b8015610cba5780601f10610c8f57610100808354040283529160200191610cba565b820191906000526020600020905b815481529060010190602001808311610c9d57829003601f168201915b505050505081526020019060010190610c22565b505050506000610fb9565b606061075182600354612051565b6060610751826001612051565b6060610d006001611510565b905090565b6001600160a01b03166000908152600d602052604090206001015490565b610d2f816003546121bd565b151560011415610d72576001610d46600354611510565b51610d5191906136a3565b6004541115610d725760405162461bcd60e51b81526004016105fd906133ba565b6105bf816003546118eb565b610d8661283b565b61075182600354611e39565b6105bf816001611677565b610dab868686868686612329565b610db68686866117b3565b505050505050565b6060610d00600354611510565b610dd733600354611a25565b1515600114610df85760405162461bcd60e51b81526004016105fd90613465565b6001600854610e195760405162461bcd60e51b81526004016105fd906133d9565b60405163f7cf62d760e01b815273__AddressLibrary________________________9063f7cf62d790610e53903390600b90600401613244565b60206040518083038186803b158015610e6b57600080fd5b505af4158015610e7f573d6000803e3d6000fd5b505050506040513d601f19601f82011682018060405250810190610ea39190612f37565b15610ec05760405162461bcd60e51b81526004016105fd90613483565b6105bf6000611c16565b610ed633600354611a25565b1515600114610ef75760405162461bcd60e51b81526004016105fd90613465565b600060085415610f315760405162461bcd60e51b8152602060048201526005602482015264454333302d60d81b60448201526064016105fd565b81600560035481548110610f4757610f47613756565b90600052602060002090600402016001018054905080821115610f7c5760405162461bcd60e51b81526004016105fd906133ba565b600084818111610f9e5760405162461bcd60e51b81526004016105fd906133f8565b6008869055610db66001611c16565b6105bf8160035461139e565b600754610100900460ff1680610fd2575060075460ff16155b610fee5760405162461bcd60e51b81526004016105fd90613417565b600754610100900460ff16158015611010576007805461ffff19166101011790555b848651808211156110335760405162461bcd60e51b81526004016105fd906133ba565b6000878181116110555760405162461bcd60e51b81526004016105fd906133f8565b8651881461108d5760405162461bcd60e51b8152602060048201526005602482015264454331382d60d81b60448201526064016105fd565b600386905560005b888110156111055760058054600101815560005287516006908990839081106110c0576110c0613756565b602090810291909101810151825460018101845560009384529282902081516110f294919091019291909101906128d0565b50806110fd81613725565b915050611095565b50600489905560005b8a5181101561124c57600073__AddressLibrary________________________63bc215e858d848151811061114557611145613756565b60200260200101516040518263ffffffff1660e01b81526004016111699190613230565b60206040518083038186803b15801561118157600080fd5b505af4158015611195573d6000803e3d6000fd5b505050506040513d601f19601f820116820180604052508101906111b99190612f54565b905060016005600354815481106111d2576111d2613756565b60009182526020808320858452600492909202909101905260409020600101805460ff191691151591909117905560035460058054909190811061121857611218613756565b600091825260208083206001600490930201820180549283018155835290912001558061124481613725565b91505061110e565b50505050508015610db6576007805461ff0019169055505050505050565b6060806000600181805461127d906136ea565b80601f01602080910402602001604051908101604052809291908181526020018280546112a9906136ea565b80156112f65780601f106112cb576101008083540402835291602001916112f6565b820191906000526020600020905b8154815290600101906020018083116112d957829003601f168201915b50505050509150808054611309906136ea565b80601f0160208091040260200160405190810160405280929190818152602001828054611335906136ea565b80156113825780601f1061135757610100808354040283529160200191611382565b820191906000526020600020905b81548152906001019060200180831161136557829003601f168201915b50505050509050915091509091565b6106128383836001611c9d565b60055460405163123bd07560e11b815282919073__Library_______________________________90632477a0ea906113dd9085908590600401613360565b60206040518083038186803b1580156113f557600080fd5b505af4158015611409573d6000803e3d6000fd5b505050506040513d601f19601f8201168201806040525081019061142d9190612f37565b151560011461144e5760405162461bcd60e51b81526004016105fd9061339c565b61145a33600354611a25565b151560011461147b5760405162461bcd60e51b81526004016105fd90613465565b6000806114988660405180602001604052806000815250876124d1565b604051635cb09bcf60e01b8152919350915073__ItemsLibrary__________________________90635cb09bcf906114d890859085903090600401613519565b60006040518083038186803b1580156114f057600080fd5b505af4158015611504573d6000803e3d6000fd5b50505050505050505050565b60055460405163123bd07560e11b8152606091839173__Library_______________________________90632477a0ea906115519085908590600401613360565b60206040518083038186803b15801561156957600080fd5b505af415801561157d573d6000803e3d6000fd5b505050506040513d601f19601f820116820180604052508101906115a19190612f37565b15156001146115c25760405162461bcd60e51b81526004016105fd9061339c565b73__ItemsLibrary__________________________6327724f4b600586815481106115ef576115ef613756565b90600052602060002090600402016040518263ffffffff1660e01b815260040161161b91815260200190565b60006040518083038186803b15801561163357600080fd5b505af4158015611647573d6000803e3d6000fd5b505050506040513d6000823e601f3d908101601f1916820160405261166f9190810190612e83565b949350505050565b60055460405163123bd07560e11b815282919073__Library_______________________________90632477a0ea906116b69085908590600401613360565b60206040518083038186803b1580156116ce57600080fd5b505af41580156116e2573d6000803e3d6000fd5b505050506040513d601f19601f820116820180604052508101906117069190612f37565b15156001146117275760405162461bcd60e51b81526004016105fd9061339c565b61173333600354611a25565b15156001146117545760405162461bcd60e51b81526004016105fd90613465565b6000806117718660405180602001604052806000815250876124d1565b60405163e23fcdef60e01b8152919350915073__ItemsLibrary__________________________9063e23fcdef906114d890859085903090600401613519565b565b826117bd816126dd565b15156001146117f65760405162461bcd60e51b8152602060048201526005602482015264454331322d60d81b60448201526064016105fd565b826001600160a01b038084166000908152600d602090815260408083208884529091529020548491869116156118565760405162461bcd60e51b8152602060048201526005602482015264454331352d60d81b60448201526064016105fd565b6001600160a01b038086166000818152600d602081815260408084208c85528083528185208054978f166001600160a01b0319909816881790559282526001928301805493840181558452922001899055519091907ff55a90628981610edc26894247bee72e1963d1c9faa4ea6533fd3df39fd36ed4906118da908a815260200190565b60405180910390a350505050505050565b60055460405163123bd07560e11b815282919073__Library_______________________________90632477a0ea9061192a9085908590600401613360565b60206040518083038186803b15801561194257600080fd5b505af4158015611956573d6000803e3d6000fd5b505050506040513d601f19601f8201168201806040525081019061197a9190612f37565b151560011461199b5760405162461bcd60e51b81526004016105fd9061339c565b6119a733600354611a25565b15156001146119c85760405162461bcd60e51b81526004016105fd90613465565b6000806119e58660405180602001604052806000815250876124d1565b604051637493a70b60e01b8152919350915073__ItemsLibrary__________________________90637493a70b906114d890859085903090600401613519565b60055460405163123bd07560e11b8152600091839173__Library_______________________________90632477a0ea90611a669085908590600401613360565b60206040518083038186803b158015611a7e57600080fd5b505af4158015611a92573d6000803e3d6000fd5b505050506040513d601f19601f82011682018060405250810190611ab69190612f37565b1515600114611ad75760405162461bcd60e51b81526004016105fd9061339c565b60405163bc215e8560e01b815260009073__AddressLibrary________________________9063bc215e8590611b11908990600401613230565b60206040518083038186803b158015611b2957600080fd5b505af4158015611b3d573d6000803e3d6000fd5b505050506040513d601f19601f82011682018060405250810190611b619190612f54565b905073__ItemsLibrary__________________________63dbdfbeec8260058881548110611b9157611b91613756565b90600052602060002090600402016040518363ffffffff1660e01b8152600401611bbc929190613360565b60206040518083038186803b158015611bd457600080fd5b505af4158015611be8573d6000803e3d6000fd5b505050506040513d601f19601f82011682018060405250810190611c0c9190612f37565b9695505050505050565b8015611c3a57600160096000828254611c2f919061368b565b90915550611c539050565b6001600a6000828254611c4d919061368b565b90915550505b600b80546001810182556000919091527f0175b7a638427703f0dbe7bb9bbf987a2551717b34e79f33b5b1008d1fa01db90180546001600160a01b031916331790556105bf6126ea565b60055460405163123bd07560e11b815282919073__Library_______________________________90632477a0ea90611cdc9085908590600401613360565b60206040518083038186803b158015611cf457600080fd5b505af4158015611d08573d6000803e3d6000fd5b505050506040513d601f19601f82011682018060405250810190611d2c9190612f37565b1515600114611d4d5760405162461bcd60e51b81526004016105fd9061339c565b611d5933600354611a25565b1515600114611d7a5760405162461bcd60e51b81526004016105fd90613465565b600080611dbf8888888080601f0160208091040260200160405190810160405280939291908181526020018383808284376000920191909152508a92506124d1915050565b6040516305cc2d5560e11b8152919350915073__ItemsLibrary__________________________90630b985aaa90611dff90859085903090600401613519565b60006040518083038186803b158015611e1757600080fd5b505af4158015611e2b573d6000803e3d6000fd5b505050505050505050505050565b611e4161283b565b60055460405163123bd07560e11b815283919073__Library_______________________________90632477a0ea90611e809085908590600401613360565b60206040518083038186803b158015611e9857600080fd5b505af4158015611eac573d6000803e3d6000fd5b505050506040513d601f19601f82011682018060405250810190611ed09190612f37565b1515600114611ef15760405162461bcd60e51b81526004016105fd9061339c565b60405163bc215e8560e01b815260009073__AddressLibrary________________________9063bc215e8590611f2b908990600401613230565b60206040518083038186803b158015611f4357600080fd5b505af4158015611f57573d6000803e3d6000fd5b505050506040513d601f19601f82011682018060405250810190611f7b9190612f54565b905073__ItemsLibrary__________________________631aeccc6a8260058881548110611fab57611fab613756565b90600052602060002090600402016040518363ffffffff1660e01b8152600401611fd6929190613360565b60006040518083038186803b158015611fee57600080fd5b505af4158015612002573d6000803e3d6000fd5b505050506040513d6000823e601f3d908101601f19168201604052611c0c919081019061302e565b815161203d9060009060208501906128d0565b5080516106129060019060208401906128d0565b60055460405163123bd07560e11b8152606091839173__Library_______________________________90632477a0ea906120929085908590600401613360565b60206040518083038186803b1580156120aa57600080fd5b505af41580156120be573d6000803e3d6000fd5b505050506040513d601f19601f820116820180604052508101906120e29190612f37565b15156001146121035760405162461bcd60e51b81526004016105fd9061339c565b606073__ItemsLibrary__________________________63e035e006876005888154811061213357612133613756565b90600052602060002090600402016040518363ffffffff1660e01b81526004016121699291909115158252602082015260400190565b60006040518083038186803b15801561218157600080fd5b505af4158015612195573d6000803e3d6000fd5b505050506040513d6000823e601f3d908101601f19168201604052611c0c9190810190612e83565b60055460405163123bd07560e11b8152600091839173__Library_______________________________90632477a0ea906121fe9085908590600401613360565b60206040518083038186803b15801561221657600080fd5b505af415801561222a573d6000803e3d6000fd5b505050506040513d601f19601f8201168201806040525081019061224e9190612f37565b151560011461226f5760405162461bcd60e51b81526004016105fd9061339c565b60405163bc215e8560e01b815260009073__AddressLibrary________________________9063bc215e85906122a9908990600401613230565b60206040518083038186803b1580156122c157600080fd5b505af41580156122d5573d6000803e3d6000fd5b505050506040513d601f19601f820116820180604052508101906122f99190612f54565b905073__ItemsLibrary__________________________632854ed2e8260058881548110611b9157611b91613756565b818042106123615760405162461bcd60e51b8152602060048201526005602482015264454333332d60d81b60448201526064016105fd565b6001600160a01b03871660009081526002602090815260408083208784529091529020548790859060ff16156123c15760405162461bcd60e51b8152602060048201526005602482015264454333342d60d81b60448201526064016105fd565b60405163c1bc5c3f60e01b815273__SignatureLibrary______________________9063c1bc5c3f90612408908c908c908c908c908c908c906000906001906004016132a3565b60206040518083038186803b15801561242057600080fd5b505af4158015612434573d6000803e3d6000fd5b505050506040513d601f19601f820116820180604052508101906124589190612f37565b15156001146124915760405162461bcd60e51b8152602060048201526005602482015264454333322d60d81b60448201526064016105fd565b6124c689876001600160a01b03909116600090815260026020908152604080832093835292905220805460ff19166001179055565b505050505050505050565b6125066040518060a0016040528060008019168152602001606081526020016000815260200160608152602001606081525090565b60008073__AddressLibrary________________________63bc215e85876040518263ffffffff1660e01b81526004016125409190613230565b60206040518083038186803b15801561255857600080fd5b505af415801561256c573d6000803e3d6000fd5b505050506040513d601f19601f820116820180604052508101906125909190612f54565b604080516001808252818301909252919250600091906020808301908036833701905050905084816000815181106125ca576125ca613756565b60200260200101818152505060006040518060a0016040528084815260200188815260200160045481526020016006888154811061260a5761260a613756565b90600052602060002001805461261f906136ea565b80601f016020809104026020016040519081016040528092919081815260200182805461264b906136ea565b80156126985780601f1061266d57610100808354040283529160200191612698565b820191906000526020600020905b81548152906001019060200180831161267b57829003601f168201915b505050505081526020018381525090506000600587815481106126bd576126bd613756565b600091825260209091209296506004029091019350505050935093915050565b6000610751826001611a25565b6009546004805460405163f6001d7d60e01b815273__ItemsLibrary__________________________9363f6001d7d9361272693919201613360565b60206040518083038186803b15801561273e57600080fd5b505af4158015612752573d6000803e3d6000fd5b505050506040513d601f19601f820116820180604052508101906127769190612f37565b15612789576008546004556117b161281e565b600a546004805460405163f6001d7d60e01b815273__ItemsLibrary__________________________9363f6001d7d936127c593919201613360565b60206040518083038186803b1580156127dd57600080fd5b505af41580156127f1573d6000803e3d6000fd5b505050506040513d601f19601f820116820180604052508101906128159190612f37565b156117b1576117b15b600060088190556009819055600a8190556117b190600b90612950565b6040518060c0016040528060608152602001600015158152602001600081526020016000815260200160608152602001606081525090565b8280548282559060005260206000209081019282156128c0579160200282015b828111156128c057825180516128b09184916020909101906128d0565b5091602001919060010190612893565b506128cc92915061296e565b5090565b8280546128dc906136ea565b90600052602060002090601f0160209004810192826128fe5760008555612944565b82601f1061291757805160ff1916838001178555612944565b82800160010185558215612944579182015b82811115612944578251825591602001919060010190612929565b506128cc92915061298b565b50805460008255906000526020600020908101906105bf919061298b565b808211156128cc57600061298282826129a0565b5060010161296e565b5b808211156128cc576000815560010161298c565b5080546129ac906136ea565b6000825580601f106129bc575050565b601f0160209004906000526020600020908101906105bf919061298b565b60006129ed6129e884613664565b613611565b9050828152838383011115612a0157600080fd5b828260208301376000602084830101529392505050565b600082601f830112612a2957600080fd5b81356020612a396129e883613641565b80838252828201915082860187848660051b8901011115612a5957600080fd5b60005b85811015612a81578135612a6f81613782565b84529284019290840190600101612a5c565b5090979650505050505050565b600082601f830112612a9f57600080fd5b81516020612aaf6129e883613641565b80838252828201915082860187848660051b8901011115612acf57600080fd5b60005b85811015612a81578151612ae581613782565b84529284019290840190600101612ad2565b8051612b0281613797565b919050565b600082601f830112612b1857600080fd5b610a34838335602085016129da565b600082601f830112612b3857600080fd5b8151612b466129e882613664565b818152846020838601011115612b5b57600080fd5b61166f8260208301602087016136ba565b600060208284031215612b7e57600080fd5b8135610a3481613782565b60008060008060008060c08789031215612ba257600080fd5b8635612bad81613782565b9550602087013594506040870135612bc481613782565b9350606087013592506080870135915060a08701356001600160401b03811115612bed57600080fd5b8701601f81018913612bfe57600080fd5b612c0d898235602084016129da565b9150509295509295509295565b600080600060408486031215612c2f57600080fd5b8335612c3a81613782565b925060208401356001600160401b0380821115612c5657600080fd5b818601915086601f830112612c6a57600080fd5b813581811115612c7957600080fd5b876020828501011115612c8b57600080fd5b6020830194508093505050509250925092565b60008060408385031215612cb157600080fd5b8235612cbc81613782565b946020939093013593505050565b600080600060608486031215612cdf57600080fd5b8335612cea81613782565b95602085013595506040909401359392505050565b60008060008060808587031215612d1557600080fd5b84356001600160401b0380821115612d2c57600080fd5b612d3888838901612a18565b9550602087013594506040870135915080821115612d5557600080fd5b612d6188838901612b07565b93506060870135915080821115612d7757600080fd5b50612d8487828801612b07565b91505092959194509250565b600080600080600060a08688031215612da857600080fd5b6001600160401b038635811015612dbe57600080fd5b612dcb8888358901612a18565b9550602080880135955060408801359450606088013582811115612dee57600080fd5b8801601f81018a13612dff57600080fd5b8035612e0d6129e882613641565b8082825284820191508484018d868560051b8701011115612e2d57600080fd5b60005b84811015612e67578782351115612e4657600080fd5b612e558f888435890101612b07565b84529286019290860190600101612e30565b5050809750505050505050608086013590509295509295909350565b60006020808385031215612e9657600080fd5b82516001600160401b03811115612eac57600080fd5b8301601f81018513612ebd57600080fd5b8051612ecb6129e882613641565b80828252848201915084840188868560051b8701011115612eeb57600080fd5b600094505b83851015612f0e578051835260019490940193918501918501612ef0565b50979650505050505050565b600060208284031215612f2c57600080fd5b8135610a3481613797565b600060208284031215612f4957600080fd5b8151610a3481613797565b600060208284031215612f6657600080fd5b5051919050565b60008060408385031215612f8057600080fd5b823591506020830135612f9281613782565b809150509250929050565b60008060008060608587031215612fb357600080fd5b8435935060208501356001600160401b0380821115612fd157600080fd5b818701915087601f830112612fe557600080fd5b813581811115612ff457600080fd5b8860208260051b850101111561300957600080fd5b602083019550809450505050604085013561302381613797565b939692955090935050565b60006020828403121561304057600080fd5b81516001600160401b038082111561305757600080fd5b9083019060c0828603121561306b57600080fd5b6130736135e9565b82518281111561308257600080fd5b61308e87828601612b27565b82525061309d60208401612af7565b602082015260408301516040820152606083015160608201526080830151828111156130c857600080fd5b6130d487828601612a8e565b60808301525060a0830151828111156130ec57600080fd5b6130f887828601612a8e565b60a08301525095945050505050565b60006020828403121561311957600080fd5b5035919050565b600081518084526020808501945080840160005b838110156131595781516001600160a01b031687529582019590820190600101613134565b509495945050505050565b6000815180845261317c8160208601602086016136ba565b601f01601f19169290920160200192915050565b8054600090600181811c90808316806131aa57607f831692505b60208084108214156131cc57634e487b7160e01b600052602260045260246000fd5b838852602088018280156131e757600181146131f857613223565b60ff19871682528282019750613223565b60008981526020902060005b8781101561321d57815484820152908601908401613204565b83019850505b5050505050505092915050565b6001600160a01b0391909116815260200190565b60006040820160018060a01b03808616845260206040818601528286548085526060870191508760005282600020945060005b81811015613295578554851683526001958601959284019201613277565b509098975050505050505050565b6001600160a01b0389811682526020820189905287166040820152606081018690526080810185905261010060a082018190526000906132e583820187613164565b905082810360c08401526132f98186613190565b905082810360e084015261330d8185613190565b9b9a5050505050505050505050565b6020808252825182820181905260009190848201906040850190845b8181101561335457835183529284019291840191600101613338565b50909695505050505050565b918252602082015260400190565b6040815260006133816040830185613164565b82810360208401526133938185613164565b95945050505050565b6020808252600490820152634543312d60e01b604082015260600190565b602080825260059082015264454331392d60d81b604082015260600190565b602080825260059082015264454333312d60d81b604082015260600190565b602080825260059082015264454331372d60d81b604082015260600190565b6020808252602e908201527f496e697469616c697a61626c653a20636f6e747261637420697320616c72656160408201526d191e481a5b9a5d1a585b1a5e995960921b606082015260800190565b6020808252600490820152634543392d60e01b604082015260600190565b6020808252600490820152634543352d60e01b604082015260600190565b602081526000825160c060208401526134bd60e0840182613164565b905060208401511515604084015260408401516060840152606084015160808401526080840151601f19808584030160a08601526134fb8383613120565b925060a08601519150808584030160c0860152506133938282613120565b6060815283516060820152600060208086015160a06080850152613541610100850182613164565b9050604087015160a08501526060870151605f19808684030160c08701526135698383613164565b60808a015187820390920160e088015281518082529185019350600092508401905b808310156135ab578351825292840192600192909201919084019061358b565b5092850187905250506001600160a01b0384166040840152905061166f565b8381528260208201526060604082015260006133936060830184613120565b60405160c081016001600160401b038111828210171561360b5761360b61376c565b60405290565b604051601f8201601f191681016001600160401b03811182821017156136395761363961376c565b604052919050565b60006001600160401b0382111561365a5761365a61376c565b5060051b60200190565b60006001600160401b0382111561367d5761367d61376c565b50601f01601f191660200190565b6000821982111561369e5761369e613740565b500190565b6000828210156136b5576136b5613740565b500390565b60005b838110156136d55781810151838201526020016136bd565b838111156136e4576000848401525b50505050565b600181811c908216806136fe57607f821691505b6020821081141561371f57634e487b7160e01b600052602260045260246000fd5b50919050565b600060001982141561373957613739613740565b5060010190565b634e487b7160e01b600052601160045260246000fd5b634e487b7160e01b600052603260045260246000fd5b634e487b7160e01b600052604160045260246000fd5b6001600160a01b03811681146105bf57600080fd5b80151581146105bf57600080fdfea2646970667358221220efbc9680bda5a74b96439431a2981517853d549622580491a9a4ee73202d83dd64736f6c63430008070033",
  "immutableReferences": {},
  "source": "// SPDX-License-Identifier: GPL-3.0\r\n\r\npragma solidity 0.8.7;\r\n\r\n/*\r\n  Private Certificate Pools offer the default MultiSig Certificate Pool functionality\r\n */\r\n\r\n import \"../Abstract/MultiSigCertificatesPool.sol\";\r\n\r\n contract PrivateCertificatesPool is MultiSigCertificatesPool {\r\n\r\n    // CONSTRUCTOR & INIT /////////////////////////////////////////\r\n    function PrivateCertPool_init(address[] memory owners,  uint256 minOwners, string memory contractName, string memory contractVersion) public initializer \r\n    {\r\n      super.MultiSigCertPool_init(owners, minOwners, contractName, contractVersion);\r\n    }\r\n\r\n  }",
  "sourcePath": "C:/Users/d-aam/GitHub/Certificates/contracts/DeployedContracts/PrivateCertificatesPool.sol",
  "compiler": {
    "name": "solc",
    "version": "0.8.7+commit.e28d00a7.Emscripten.clang"
  },
  "schemaVersion": "3.3.4",
  "updatedAt": "2021-10-07T09:18:45.571Z",
  "networkType": "ethereum",
  "devdoc": {
    "kind": "dev",
    "methods": {},
    "version": 1
  },
  "userdoc": {
    "kind": "user",
    "methods": {},
    "version": 1
  }
}