{
  "contractName": "PrivatePoolFactory",
  "abi": [
    {
      "anonymous": false,
      "inputs": [
        {
          "indexed": false,
          "internalType": "uint256",
          "name": "",
          "type": "uint256"
        },
        {
          "indexed": false,
          "internalType": "address",
          "name": "",
          "type": "address"
        },
        {
          "indexed": false,
          "internalType": "address",
          "name": "",
          "type": "address"
        }
      ],
      "name": "_NewCertificatesPool",
      "type": "event"
    },
    {
      "inputs": [
        {
          "internalType": "address",
          "name": "managerContractAddress",
          "type": "address"
        }
      ],
      "name": "PrivatePoolGenerator_init",
      "outputs": [],
      "stateMutability": "nonpayable",
      "type": "function"
    },
    {
      "inputs": [
        {
          "internalType": "address[]",
          "name": "owners",
          "type": "address[]"
        },
        {
          "internalType": "uint256",
          "name": "minOwners",
          "type": "uint256"
        }
      ],
      "name": "createPrivateCertificatesPool",
      "outputs": [],
      "stateMutability": "payable",
      "type": "function"
    },
    {
      "inputs": [
        {
          "internalType": "uint256",
          "name": "certificatePoolId",
          "type": "uint256"
        }
      ],
      "name": "retrievePrivateCertificatesPool",
      "outputs": [
        {
          "internalType": "address",
          "name": "",
          "type": "address"
        },
        {
          "internalType": "address",
          "name": "",
          "type": "address"
        }
      ],
      "stateMutability": "view",
      "type": "function"
    },
    {
      "inputs": [],
      "name": "retrieveTotalPrivateCertificatesPool",
      "outputs": [
        {
          "internalType": "uint256",
          "name": "",
          "type": "uint256"
        }
      ],
      "stateMutability": "view",
      "type": "function"
    }
  ],
  "bytecode": "0x608060405234801561001057600080fd5b5061134c806100206000396000f3fe608060405260043610620000445760003560e01c806360f029c91462000049578063d185a526146200006d578063f5807c0514620000b3578063f7b4f28914620000cc575b600080fd5b3480156200005657600080fd5b506001546040519081526020015b60405180910390f35b3480156200007a57600080fd5b50620000926200008c366004620007bb565b620000f1565b604080516001600160a01b0393841681529290911660208301520162000064565b620000ca620000c4366004620006b8565b6200023a565b005b348015620000d957600080fd5b50620000ca620000eb36600462000671565b6200053f565b60015460405163123bd07560e11b81526004810183905260248101829052600091829184919073__Library_______________________________90632477a0ea9060440160206040518083038186803b1580156200014f57600080fd5b505af415801562000164573d6000803e3d6000fd5b505050506040513d601f19601f820116820180604052508101906200018a919062000797565b1515600114620001c75760405162461bcd60e51b815260206004820152600360248201526245433160e81b60448201526064015b60405180910390fd5b60018581548110620001dd57620001dd6200092d565b6000918252602090912060029091020154600180546001600160a01b0390921691879081106200021157620002116200092d565b60009182526020909120600160029092020101549094506001600160a01b031692505050915091565b600060029054906101000a90046001600160a01b03166001600160a01b0316635a3794e96040518163ffffffff1660e01b815260040160206040518083038186803b1580156200028957600080fd5b505afa1580156200029e573d6000803e3d6000fd5b505050506040513d601f19601f82011682018060405250810190620002c4919062000698565b6001600160a01b031663f0c9325e3460016040518363ffffffff1660e01b8152600401620002f3919062000890565b6000604051808303818588803b1580156200030d57600080fd5b505af115801562000322573d6000803e3d6000fd5b5050505050600082826040516024016200033e9291906200083d565b60408051808303601f19018152918152602080830180516334870afb60e21b6001600160e01b03909116179052600080548351637c2f3aaf60e01b815293519495509093620100009091046001600160a01b031692637c2f3aaf926004808301939192829003018186803b158015620003b657600080fd5b505afa158015620003cb573d6000803e3d6000fd5b505050506040513d601f19601f82011682018060405250810190620003f1919062000698565b82604051620004009062000651565b6200040d929190620007d5565b604051809103906000f0801580156200042a573d6000803e3d6000fd5b50604080518082019091523381526001600160a01b03808316602083019081526001805480820182556000829052845160029091027fb10e2d527612073b26eecdfd717e6a320cf44b4afac2b0732d9fcbe2b7fa0cf6810180549286166001600160a01b031993841617905592517fb10e2d527612073b26eecdfd717e6a320cf44b4afac2b0732d9fcbe2b7fa0cf7909301805493909416921691909117909155805492935090917f9bfff6b81778f7b8086272d62a71be896cfc1876bb5f2e4e1fe28bc4c241596891620004ff9162000907565b8251602084015160405162000530939291909283526001600160a01b03918216602084015216604082015260600190565b60405180910390a15050505050565b600054610100900460ff168062000559575060005460ff16155b620005785760405162461bcd60e51b8152600401620001be90620008b9565b600054610100900460ff161580156200059b576000805461ffff19166101011790555b620005a682620005bd565b8015620005b9576000805461ff00191690555b5050565b600054610100900460ff1680620005d7575060005460ff16155b620005f65760405162461bcd60e51b8152600401620001be90620008b9565b600054610100900460ff1615801562000619576000805461ffff19166101011790555b6000805462010000600160b01b031916620100006001600160a01b038516021790558015620005b9576000805461ff00191690555050565b6109a4806200097383390190565b80356200066c8162000959565b919050565b6000602082840312156200068457600080fd5b8135620006918162000959565b9392505050565b600060208284031215620006ab57600080fd5b8151620006918162000959565b60008060408385031215620006cc57600080fd5b82356001600160401b0380821115620006e457600080fd5b818501915085601f830112620006f957600080fd5b813560208282111562000710576200071062000943565b8160051b604051601f19603f8301168101818110868211171562000738576200073862000943565b604052838152828101945085830182870184018b10156200075857600080fd5b600096505b84871015620007865762000771816200065f565b8652600196909601959483019483016200075d565b509997909101359750505050505050565b600060208284031215620007aa57600080fd5b815180151581146200069157600080fd5b600060208284031215620007ce57600080fd5b5035919050565b60018060a01b038316815260006020604081840152835180604085015260005b818110156200081357858101830151858201606001528201620007f5565b8181111562000826576000606083870101525b50601f01601f191692909201606001949350505050565b604080825283519082018190526000906020906060840190828701845b82811015620008815781516001600160a01b0316845292840192908401906001016200085a565b50505092019290925292915050565b6020810160038310620008b357634e487b7160e01b600052602160045260246000fd5b91905290565b6020808252602e908201527f496e697469616c697a61626c653a20636f6e747261637420697320616c72656160408201526d191e481a5b9a5d1a585b1a5e995960921b606082015260800190565b6000828210156200092857634e487b7160e01b600052601160045260246000fd5b500390565b634e487b7160e01b600052603260045260246000fd5b634e487b7160e01b600052604160045260246000fd5b6001600160a01b03811681146200096f57600080fd5b5056fe608060405234801561001057600080fd5b506040516109a43803806109a483398101604081905261002f91610481565b818161005c60017fa3f0ad74e5423aebfd80d3ef4346578335a9a72aeaee59ff6cb3582b35133d51610590565b60008051602061095d83398151915214610078576100786105e1565b6100848282600061008d565b5050505061060d565b61009683610167565b6040516001600160a01b038416907f1cf3b03a6cf19fa2baba4df148e9dcabedea7f8a5c07840e207e5c089be95d3e90600090a26000825111806100d75750805b1561016257610160836001600160a01b0316635c60da1b6040518163ffffffff1660e01b815260040160206040518083038186803b15801561011857600080fd5b505afa15801561012c573d6000803e3d6000fd5b505050506040513d601f19601f820116820180604052508101906101509190610466565b8361030760201b6100291760201c565b505b505050565b61017a8161033360201b6100551760201c565b6101d95760405162461bcd60e51b815260206004820152602560248201527f455243313936373a206e657720626561636f6e206973206e6f74206120636f6e6044820152641d1c9858dd60da1b60648201526084015b60405180910390fd5b61025c816001600160a01b0316635c60da1b6040518163ffffffff1660e01b815260040160206040518083038186803b15801561021557600080fd5b505afa158015610229573d6000803e3d6000fd5b505050506040513d601f19601f8201168201806040525081019061024d9190610466565b61033360201b6100551760201c565b6102c15760405162461bcd60e51b815260206004820152603060248201527f455243313936373a20626561636f6e20696d706c656d656e746174696f6e206960448201526f1cc81b9bdd08184818dbdb9d1c9858dd60821b60648201526084016101d0565b806102e660008051602061095d83398151915260001b61033960201b61005b1760201c565b80546001600160a01b0319166001600160a01b039290921691909117905550565b606061032c838360405180606001604052806027815260200161097d6027913961033c565b9392505050565b3b151590565b90565b6060833b61039b5760405162461bcd60e51b815260206004820152602660248201527f416464726573733a2064656c65676174652063616c6c20746f206e6f6e2d636f6044820152651b9d1c9858dd60d21b60648201526084016101d0565b600080856001600160a01b0316856040516103b69190610541565b600060405180830381855af49150503d80600081146103f1576040519150601f19603f3d011682016040523d82523d6000602084013e6103f6565b606091505b509092509050610407828286610411565b9695505050505050565b6060831561042057508161032c565b8251156104305782518084602001fd5b8160405162461bcd60e51b81526004016101d0919061055d565b80516001600160a01b038116811461046157600080fd5b919050565b60006020828403121561047857600080fd5b61032c8261044a565b6000806040838503121561049457600080fd5b61049d8361044a565b60208401519092506001600160401b03808211156104ba57600080fd5b818501915085601f8301126104ce57600080fd5b8151818111156104e0576104e06105f7565b604051601f8201601f19908116603f01168101908382118183101715610508576105086105f7565b8160405282815288602084870101111561052157600080fd5b6105328360208301602088016105b5565b80955050505050509250929050565b600082516105538184602087016105b5565b9190910192915050565b602081526000825180602084015261057c8160408501602087016105b5565b601f01601f19169190910160400192915050565b6000828210156105b057634e487b7160e01b600052601160045260246000fd5b500390565b60005b838110156105d05781810151838201526020016105b8565b838111156101605750506000910152565b634e487b7160e01b600052600160045260246000fd5b634e487b7160e01b600052604160045260246000fd5b6103418061061c6000396000f3fe60806040523661001357610011610017565b005b6100115b61002761002261005e565b610106565b565b606061004e83836040518060600160405280602781526020016102e56027913961012a565b9392505050565b3b151590565b90565b60006100917fa3f0ad74e5423aebfd80d3ef4346578335a9a72aeaee59ff6cb3582b35133d50546001600160a01b031690565b6001600160a01b0316635c60da1b6040518163ffffffff1660e01b815260040160206040518083038186803b1580156100c957600080fd5b505afa1580156100dd573d6000803e3d6000fd5b505050506040513d601f19601f82011682018060405250810190610101919061023c565b905090565b3660008037600080366000845af43d6000803e808015610125573d6000f35b3d6000fd5b6060833b61018e5760405162461bcd60e51b815260206004820152602660248201527f416464726573733a2064656c65676174652063616c6c20746f206e6f6e2d636f6044820152651b9d1c9858dd60d21b60648201526084015b60405180910390fd5b600080856001600160a01b0316856040516101a99190610265565b600060405180830381855af49150503d80600081146101e4576040519150601f19603f3d011682016040523d82523d6000602084013e6101e9565b606091505b50915091506101f9828286610203565b9695505050505050565b6060831561021257508161004e565b8251156102225782518084602001fd5b8160405162461bcd60e51b81526004016101859190610281565b60006020828403121561024e57600080fd5b81516001600160a01b038116811461004e57600080fd5b600082516102778184602087016102b4565b9190910192915050565b60208152600082518060208401526102a08160408501602087016102b4565b601f01601f19169190910160400192915050565b60005b838110156102cf5781810151838201526020016102b7565b838111156102de576000848401525b5050505056fe416464726573733a206c6f772d6c6576656c2064656c65676174652063616c6c206661696c6564a26469706673582212209a27b541467727b8b83534793c3cc6e7589e594ba5f987b758d2f8922950a6c864736f6c63430008060033a3f0ad74e5423aebfd80d3ef4346578335a9a72aeaee59ff6cb3582b35133d50416464726573733a206c6f772d6c6576656c2064656c65676174652063616c6c206661696c6564a2646970667358221220ebc2a019f60c6ee9ef6c8e61c80e32fa7942be6287ac185cf23fab6136a229fd64736f6c63430008060033",
  "immutableReferences": {},
  "source": "// SPDX-License-Identifier: GPL-3.0\r\n\r\npragma solidity >=0.7.0 <0.9.0;\r\n\r\n/**\r\n * @title Storage\r\n * @dev Store & retrieve value in a variable\r\n */\r\n\r\n import '../Interfaces/IPoolGenerator.sol';\r\n import \"./PrivateCertificatesPool.sol\";\r\n import \"./Proxies/PrivateCertificatesPoolProxy.sol\";\r\n import \"./Treasury.sol\";\r\n import \"../Libraries/Library.sol\";\r\n import \"../Base/ManagedBaseContract.sol\";\r\n import \"@openzeppelin/contracts-upgradeable/proxy/utils/Initializable.sol\";\r\n import \"@openzeppelin/contracts/proxy/beacon/UpgradeableBeacon.sol\";\r\n\r\n\r\ncontract PrivatePoolFactory is IPoolGenerator, Initializable, ManagedBaseContract{\r\n    using Library for *;\r\n\r\n     // EVENTS /////////////////////////////////////////\r\n    event _NewCertificatesPool(uint256, address, address);\r\n\r\n    // DATA /////////////////////////////////////////\r\n    // Private Certificates Pool structure\r\n    struct _privateCertificatesPoolStruct{\r\n        address _creator;\r\n        address _PrivateCertificatesPoolProxyAddress;\r\n    } \r\n\r\n    _privateCertificatesPoolStruct[] _PrivateCertificatesPools;\r\n\r\n    // MODIFIERS /////////////////////////////////////////\r\n    modifier isIdCorrect(uint Id, uint length){\r\n        require(true == Library.IdCorrect(Id, length), \"EC1\");\r\n        _;\r\n    }\r\n\r\n    \r\n    // CONSTRUCTOR /////////////////////////////////////////\r\n    function PrivatePoolGenerator_init(address managerContractAddress) public initializer {\r\n        super.ManagedBaseContract_init(managerContractAddress);\r\n    }\r\n\r\n    // FUNCTIONALITY /////////////////////////////////////////\r\n    function createPrivateCertificatesPool(address[] memory owners,  uint256 minOwners) external override payable\r\n    {\r\n        Treasury(_managerContract.retrieveTreasuryProxy()).pay{value:msg.value}(Library.Prices.NewPool);\r\n        bytes memory data = abi.encodeWithSignature(\"PrivateCertPool_init(address[],uint256)\", owners, minOwners);\r\n        PrivateCertificatesPoolProxy certificatePoolProxy = new PrivateCertificatesPoolProxy(_managerContract.retrievePrivatePoolBeacon(), data);\r\n        _privateCertificatesPoolStruct memory privateCertificatesPool = _privateCertificatesPoolStruct(msg.sender, address(certificatePoolProxy));\r\n        _PrivateCertificatesPools.push(privateCertificatesPool);\r\n\r\n        emit _NewCertificatesPool(_PrivateCertificatesPools.length - 1, privateCertificatesPool._creator, privateCertificatesPool._PrivateCertificatesPoolProxyAddress);\r\n    }\r\n\r\n    function retrievePrivateCertificatesPool(uint certificatePoolId) external override\r\n        isIdCorrect(certificatePoolId, _PrivateCertificatesPools.length)\r\n    view returns (address, address)\r\n    {\r\n        return(_PrivateCertificatesPools[certificatePoolId]._creator, _PrivateCertificatesPools[certificatePoolId]._PrivateCertificatesPoolProxyAddress);\r\n    }\r\n\r\n    function retrieveTotalPrivateCertificatesPool() external override view returns (uint)\r\n    {\r\n        return(_PrivateCertificatesPools.length);\r\n    }\r\n\r\n}",
  "sourcePath": "C:/Users/d-aam/GitHub/Certificates/contracts/DeployedContracts/PrivatePoolFactory.sol",
  "compiler": {
    "name": "solc",
    "version": "0.8.6+commit.11564f7e.Emscripten.clang"
  },
  "schemaVersion": "3.3.4",
  "updatedAt": "2021-08-05T06:19:21.033Z",
  "devdoc": {
    "kind": "dev",
    "methods": {},
    "version": 1
  },
  "userdoc": {
    "kind": "user",
    "methods": {},
    "version": 1
  }
}