{
  "contractName": "PrivateCertificatesPool",
  "abi": [
    {
      "anonymous": false,
      "inputs": [
        {
          "indexed": true,
          "internalType": "address",
          "name": "Provider",
          "type": "address"
        },
        {
          "indexed": true,
          "internalType": "address",
          "name": "Holder",
          "type": "address"
        },
        {
          "indexed": false,
          "internalType": "bytes32",
          "name": "Certificate",
          "type": "bytes32"
        }
      ],
      "name": "_AddCertificate",
      "type": "event"
    },
    {
      "anonymous": false,
      "inputs": [
        {
          "indexed": false,
          "internalType": "string",
          "name": "ItemType",
          "type": "string"
        },
        {
          "indexed": true,
          "internalType": "bytes32",
          "name": "Item",
          "type": "bytes32"
        },
        {
          "indexed": false,
          "internalType": "string",
          "name": "Info",
          "type": "string"
        }
      ],
      "name": "_AddItemRejection",
      "type": "event"
    },
    {
      "anonymous": false,
      "inputs": [
        {
          "indexed": false,
          "internalType": "string",
          "name": "ItemType",
          "type": "string"
        },
        {
          "indexed": true,
          "internalType": "bytes32",
          "name": "Item",
          "type": "bytes32"
        },
        {
          "indexed": false,
          "internalType": "string",
          "name": "Info",
          "type": "string"
        }
      ],
      "name": "_AddItemValidation",
      "type": "event"
    },
    {
      "anonymous": false,
      "inputs": [
        {
          "indexed": false,
          "internalType": "string",
          "name": "ItemType",
          "type": "string"
        },
        {
          "indexed": true,
          "internalType": "bytes32",
          "name": "Item",
          "type": "bytes32"
        },
        {
          "indexed": false,
          "internalType": "string",
          "name": "Info",
          "type": "string"
        }
      ],
      "name": "_RemoveItemRejection",
      "type": "event"
    },
    {
      "anonymous": false,
      "inputs": [
        {
          "indexed": false,
          "internalType": "string",
          "name": "ItemType",
          "type": "string"
        },
        {
          "indexed": true,
          "internalType": "bytes32",
          "name": "Item",
          "type": "bytes32"
        },
        {
          "indexed": false,
          "internalType": "string",
          "name": "Info",
          "type": "string"
        }
      ],
      "name": "_RemoveItemValidation",
      "type": "event"
    },
    {
      "inputs": [
        {
          "internalType": "address[]",
          "name": "owners",
          "type": "address[]"
        },
        {
          "internalType": "uint256",
          "name": "minOwners",
          "type": "uint256"
        },
        {
          "internalType": "string",
          "name": "contractName",
          "type": "string"
        },
        {
          "internalType": "string",
          "name": "contractVersion",
          "type": "string"
        }
      ],
      "name": "MultiSigCertPool_init",
      "outputs": [],
      "stateMutability": "nonpayable",
      "type": "function"
    },
    {
      "inputs": [
        {
          "internalType": "address[]",
          "name": "owners",
          "type": "address[]"
        },
        {
          "internalType": "uint256",
          "name": "minOwners",
          "type": "uint256"
        },
        {
          "internalType": "uint256",
          "name": "TotalEntities",
          "type": "uint256"
        },
        {
          "internalType": "string[]",
          "name": "labels",
          "type": "string[]"
        },
        {
          "internalType": "uint256",
          "name": "ownerId",
          "type": "uint256"
        }
      ],
      "name": "MultiSigContract_init",
      "outputs": [],
      "stateMutability": "nonpayable",
      "type": "function"
    },
    {
      "inputs": [
        {
          "internalType": "bytes32",
          "name": "CertificateHash",
          "type": "bytes32"
        },
        {
          "internalType": "address",
          "name": "holder",
          "type": "address"
        }
      ],
      "name": "addCertificate",
      "outputs": [],
      "stateMutability": "payable",
      "type": "function"
    },
    {
      "inputs": [
        {
          "internalType": "address",
          "name": "provider",
          "type": "address"
        },
        {
          "internalType": "bytes32",
          "name": "CertificateHash",
          "type": "bytes32"
        },
        {
          "internalType": "address",
          "name": "holder",
          "type": "address"
        },
        {
          "internalType": "uint256",
          "name": "nonce",
          "type": "uint256"
        },
        {
          "internalType": "uint256",
          "name": "deadline",
          "type": "uint256"
        },
        {
          "internalType": "bytes",
          "name": "signature",
          "type": "bytes"
        }
      ],
      "name": "addCertificateOnBehalfOf",
      "outputs": [],
      "stateMutability": "payable",
      "type": "function"
    },
    {
      "inputs": [
        {
          "internalType": "address",
          "name": "owner",
          "type": "address"
        },
        {
          "internalType": "string",
          "name": "ownerInfo",
          "type": "string"
        }
      ],
      "name": "addOwner",
      "outputs": [],
      "stateMutability": "nonpayable",
      "type": "function"
    },
    {
      "inputs": [
        {
          "internalType": "address",
          "name": "provider",
          "type": "address"
        },
        {
          "internalType": "string",
          "name": "providerInfo",
          "type": "string"
        }
      ],
      "name": "addProvider",
      "outputs": [],
      "stateMutability": "payable",
      "type": "function"
    },
    {
      "inputs": [
        {
          "internalType": "uint256",
          "name": "newMinOwners",
          "type": "uint256"
        }
      ],
      "name": "changeMinOwners",
      "outputs": [],
      "stateMutability": "nonpayable",
      "type": "function"
    },
    {
      "inputs": [
        {
          "internalType": "bytes32",
          "name": "item",
          "type": "bytes32"
        },
        {
          "internalType": "uint256[]",
          "name": "ids",
          "type": "uint256[]"
        },
        {
          "internalType": "bool",
          "name": "addOrRemove",
          "type": "bool"
        }
      ],
      "name": "onItemRejected",
      "outputs": [],
      "stateMutability": "nonpayable",
      "type": "function"
    },
    {
      "inputs": [
        {
          "internalType": "bytes32",
          "name": "item",
          "type": "bytes32"
        },
        {
          "internalType": "uint256[]",
          "name": "ids",
          "type": "uint256[]"
        },
        {
          "internalType": "bool",
          "name": "addOrRemove",
          "type": "bool"
        }
      ],
      "name": "onItemValidated",
      "outputs": [],
      "stateMutability": "nonpayable",
      "type": "function"
    },
    {
      "inputs": [],
      "name": "rejectMinOwners",
      "outputs": [],
      "stateMutability": "nonpayable",
      "type": "function"
    },
    {
      "inputs": [
        {
          "internalType": "address",
          "name": "owner",
          "type": "address"
        }
      ],
      "name": "rejectOwner",
      "outputs": [],
      "stateMutability": "nonpayable",
      "type": "function"
    },
    {
      "inputs": [
        {
          "internalType": "address",
          "name": "provider",
          "type": "address"
        }
      ],
      "name": "rejectProvider",
      "outputs": [],
      "stateMutability": "nonpayable",
      "type": "function"
    },
    {
      "inputs": [
        {
          "internalType": "address",
          "name": "owner",
          "type": "address"
        }
      ],
      "name": "removeOwner",
      "outputs": [],
      "stateMutability": "nonpayable",
      "type": "function"
    },
    {
      "inputs": [
        {
          "internalType": "address",
          "name": "provider",
          "type": "address"
        }
      ],
      "name": "removeProvider",
      "outputs": [],
      "stateMutability": "nonpayable",
      "type": "function"
    },
    {
      "inputs": [],
      "name": "retrieveAddCertificatePriceWei",
      "outputs": [
        {
          "internalType": "uint256",
          "name": "",
          "type": "uint256"
        }
      ],
      "stateMutability": "view",
      "type": "function"
    },
    {
      "inputs": [],
      "name": "retrieveAllOwners",
      "outputs": [
        {
          "internalType": "bytes32[]",
          "name": "",
          "type": "bytes32[]"
        }
      ],
      "stateMutability": "view",
      "type": "function"
    },
    {
      "inputs": [],
      "name": "retrieveAllProviders",
      "outputs": [
        {
          "internalType": "bytes32[]",
          "name": "",
          "type": "bytes32[]"
        }
      ],
      "stateMutability": "view",
      "type": "function"
    },
    {
      "inputs": [
        {
          "internalType": "bytes32",
          "name": "CertificateHash",
          "type": "bytes32"
        },
        {
          "internalType": "address",
          "name": "holder",
          "type": "address"
        }
      ],
      "name": "retrieveCertificateProvider",
      "outputs": [
        {
          "internalType": "address",
          "name": "",
          "type": "address"
        }
      ],
      "stateMutability": "view",
      "type": "function"
    },
    {
      "inputs": [
        {
          "internalType": "address",
          "name": "holder",
          "type": "address"
        },
        {
          "internalType": "uint256",
          "name": "skipFirst",
          "type": "uint256"
        },
        {
          "internalType": "uint256",
          "name": "max",
          "type": "uint256"
        }
      ],
      "name": "retrieveCertificatesByHolder",
      "outputs": [
        {
          "internalType": "bytes32[]",
          "name": "",
          "type": "bytes32[]"
        }
      ],
      "stateMutability": "view",
      "type": "function"
    },
    {
      "inputs": [],
      "name": "retrieveContractConfig",
      "outputs": [
        {
          "internalType": "string",
          "name": "",
          "type": "string"
        },
        {
          "internalType": "string",
          "name": "",
          "type": "string"
        }
      ],
      "stateMutability": "view",
      "type": "function"
    },
    {
      "inputs": [],
      "name": "retrieveMinOwners",
      "outputs": [
        {
          "internalType": "uint256",
          "name": "",
          "type": "uint256"
        }
      ],
      "stateMutability": "view",
      "type": "function"
    },
    {
      "inputs": [
        {
          "internalType": "address",
          "name": "addr",
          "type": "address"
        },
        {
          "internalType": "uint256",
          "name": "nonce",
          "type": "uint256"
        }
      ],
      "name": "retrieveNonce",
      "outputs": [
        {
          "internalType": "bool",
          "name": "",
          "type": "bool"
        }
      ],
      "stateMutability": "view",
      "type": "function"
    },
    {
      "inputs": [
        {
          "internalType": "address",
          "name": "owner",
          "type": "address"
        }
      ],
      "name": "retrieveOwner",
      "outputs": [
        {
          "components": [
            {
              "internalType": "string",
              "name": "_Info",
              "type": "string"
            },
            {
              "internalType": "bool",
              "name": "_activated",
              "type": "bool"
            },
            {
              "internalType": "uint256",
              "name": "_id",
              "type": "uint256"
            },
            {
              "internalType": "uint256",
              "name": "_pendingId",
              "type": "uint256"
            },
            {
              "internalType": "address[]",
              "name": "_Validations",
              "type": "address[]"
            },
            {
              "internalType": "address[]",
              "name": "_Rejections",
              "type": "address[]"
            }
          ],
          "internalType": "struct ItemsLibrary._itemIdentity",
          "name": "",
          "type": "tuple"
        }
      ],
      "stateMutability": "view",
      "type": "function"
    },
    {
      "inputs": [],
      "name": "retrievePendingMinOwners",
      "outputs": [
        {
          "internalType": "uint256",
          "name": "",
          "type": "uint256"
        }
      ],
      "stateMutability": "view",
      "type": "function"
    },
    {
      "inputs": [],
      "name": "retrievePendingMinOwnersStatus",
      "outputs": [
        {
          "internalType": "uint256",
          "name": "",
          "type": "uint256"
        },
        {
          "internalType": "uint256",
          "name": "",
          "type": "uint256"
        },
        {
          "internalType": "address[]",
          "name": "",
          "type": "address[]"
        }
      ],
      "stateMutability": "view",
      "type": "function"
    },
    {
      "inputs": [
        {
          "internalType": "bool",
          "name": "addedORremove",
          "type": "bool"
        }
      ],
      "name": "retrievePendingOwners",
      "outputs": [
        {
          "internalType": "bytes32[]",
          "name": "",
          "type": "bytes32[]"
        }
      ],
      "stateMutability": "view",
      "type": "function"
    },
    {
      "inputs": [
        {
          "internalType": "bool",
          "name": "addedORremove",
          "type": "bool"
        }
      ],
      "name": "retrievePendingProviders",
      "outputs": [
        {
          "internalType": "bytes32[]",
          "name": "",
          "type": "bytes32[]"
        }
      ],
      "stateMutability": "view",
      "type": "function"
    },
    {
      "inputs": [
        {
          "internalType": "address",
          "name": "provider",
          "type": "address"
        }
      ],
      "name": "retrieveProvider",
      "outputs": [
        {
          "components": [
            {
              "internalType": "string",
              "name": "_Info",
              "type": "string"
            },
            {
              "internalType": "bool",
              "name": "_activated",
              "type": "bool"
            },
            {
              "internalType": "uint256",
              "name": "_id",
              "type": "uint256"
            },
            {
              "internalType": "uint256",
              "name": "_pendingId",
              "type": "uint256"
            },
            {
              "internalType": "address[]",
              "name": "_Validations",
              "type": "address[]"
            },
            {
              "internalType": "address[]",
              "name": "_Rejections",
              "type": "address[]"
            }
          ],
          "internalType": "struct ItemsLibrary._itemIdentity",
          "name": "",
          "type": "tuple"
        }
      ],
      "stateMutability": "view",
      "type": "function"
    },
    {
      "inputs": [],
      "name": "retrieveSubscriptionPriceWei",
      "outputs": [
        {
          "internalType": "uint256",
          "name": "",
          "type": "uint256"
        }
      ],
      "stateMutability": "view",
      "type": "function"
    },
    {
      "inputs": [
        {
          "internalType": "address",
          "name": "holder",
          "type": "address"
        }
      ],
      "name": "retrieveTotalCertificatesByHolder",
      "outputs": [
        {
          "internalType": "uint256",
          "name": "",
          "type": "uint256"
        }
      ],
      "stateMutability": "view",
      "type": "function"
    },
    {
      "inputs": [],
      "name": "validateMinOwners",
      "outputs": [],
      "stateMutability": "nonpayable",
      "type": "function"
    },
    {
      "inputs": [
        {
          "internalType": "address",
          "name": "owner",
          "type": "address"
        }
      ],
      "name": "validateOwner",
      "outputs": [],
      "stateMutability": "nonpayable",
      "type": "function"
    },
    {
      "inputs": [
        {
          "internalType": "address",
          "name": "provider",
          "type": "address"
        }
      ],
      "name": "validateProvider",
      "outputs": [],
      "stateMutability": "nonpayable",
      "type": "function"
    },
    {
      "inputs": [
        {
          "internalType": "address[]",
          "name": "owners",
          "type": "address[]"
        },
        {
          "internalType": "uint256",
          "name": "minOwners",
          "type": "uint256"
        },
        {
          "internalType": "string",
          "name": "contractName",
          "type": "string"
        },
        {
          "internalType": "string",
          "name": "contractVersion",
          "type": "string"
        },
        {
          "internalType": "string",
          "name": "ENSName",
          "type": "string"
        },
        {
          "internalType": "address",
          "name": "ReverseRegistryAddress",
          "type": "address"
        }
      ],
      "name": "PrivateCertPool_init",
      "outputs": [],
      "stateMutability": "nonpayable",
      "type": "function"
    }
  ],
  "bytecode": "0x608060405234801561001057600080fd5b506134ef806100206000396000f3fe6080604052600436106101885760003560e01c8062070d191461018d5780630b4c72a9146101af578063173825d9146101cf5780631ab807f8146101ef57806327a40b4b146102025780632edbe7fc1461022257806330ade922146102465780633542758f1461025b578063375834991461027b5780633fd07181146102a85780633feca4ca146102c85780634774779d1461031e57806357e7ea2e1461031e5780635888ebb31461033257806358a1ba251461035657806365b973e5146103835780636825b263146103985780636b299604146103b85780636b3a0fec146103d85780636e4f9179146103f85780636e55d2d41461040d57806376f8f90f1461042d57806377bc5a1f1461044d5780637c8c2add146102a85780638a355a571461046d5780638b9be2561461048d578063a93d5ed6146104a0578063c3079ae7146104b5578063c66433ea146104ca578063ce33d58a146104ea578063cf2041d91461050a578063d0a4adfe1461052a578063d2116a021461057d578063fc000500146105a0575b600080fd5b34801561019957600080fd5b506101ad6101a8366004612a68565b6105b3565b005b3480156101bb57600080fd5b506101ad6101ca366004612844565b61064b565b3480156101db57600080fd5b506101ad6101ea366004612844565b610659565b6101ad6101fd366004612d0a565b61068f565b34801561020e57600080fd5b506101ad61021d366004612844565b61069e565b34801561022e57600080fd5b506008545b6040519081526020015b60405180910390f35b34801561025257600080fd5b506101ad6106a9565b34801561026757600080fd5b506101ad6102763660046128f2565b6106d2565b34801561028757600080fd5b5061029b610296366004612844565b6106e0565b60405161023d91906131b9565b3480156102b457600080fd5b506101ad6102c3366004612d3a565b6106f9565b3480156102d457600080fd5b5061030e6102e3366004612976565b6001600160a01b03919091166000908152600260209081526040808320938352929052205460ff1690565b604051901515815260200161023d565b34801561032a57600080fd5b506000610233565b34801561033e57600080fd5b5061034761076f565b60405161023d939291906132e2565b34801561036257600080fd5b506103766103713660046129a2565b6107e3565b60405161023d91906130b9565b34801561038f57600080fd5b50600454610233565b3480156103a457600080fd5b506101ad6103b33660046129d7565b610989565b3480156103c457600080fd5b506103766103d3366004612cb7565b610bc5565b3480156103e457600080fd5b506103766103f3366004612cb7565b610bd3565b34801561040457600080fd5b50610376610be0565b34801561041957600080fd5b50610233610428366004612844565b610bf1565b34801561043957600080fd5b506101ad610448366004612844565b610c0f565b34801561045957600080fd5b5061029b610468366004612844565b610c6a565b34801561047957600080fd5b506101ad610488366004612844565b610c7e565b6101ad61049b366004612861565b610c89565b3480156104ac57600080fd5b50610376610caa565b3480156104c157600080fd5b506101ad610cb7565b3480156104d657600080fd5b506101ad6104e5366004612ea4565b610ce0565b3480156104f657600080fd5b506101ad610505366004612844565b610d46565b34801561051657600080fd5b506101ad610525366004612b2d565b610d52565b34801561053657600080fd5b50610570610545366004612d0a565b6001600160a01b039081166000908152600d6020908152604080832094835293905291909120541690565b60405161023d9190612fcd565b34801561058957600080fd5b50610592610fd8565b60405161023d92919061311e565b6101ad6105ae3660046128f2565b6110ff565b600754610100900460ff16806105cc575060075460ff16155b6105f15760405162461bcd60e51b81526004016105e89061316b565b60405180910390fd5b600754610100900460ff16158015610613576007805461ffff19166101011790555b61061f87878787610989565b82511561063057610630838361110c565b8015610642576007805461ff00191690555b50505050505050565b610656816001611192565b50565b60045460016106696003546112a1565b5161067491906133bb565b61067e82826113c7565b61068a836003546113e7565b505050565b61069a3383836114bf565b5050565b6106568160016115f7565b336106b3816116cd565b60016106be81611713565b336106c881611788565b61068a6001611848565b61068a8383836003546118cf565b6106e8612508565b6106f3826001611a08565b92915050565b6040516337ea306360e01b815233600482018190523060248301819052909173__Library_______________________________906337ea30639060440160006040518083038186803b15801561074f57600080fd5b505af4158015610763573d6000803e3d6000fd5b50505050505050505050565b6000806060600954600a54600b808054806020026020016040519081016040528092919081815260200182805480156107d157602002820191906000526020600020905b81546001600160a01b031681526001909101906020018083116107b3575b50505050509050925092509250909192565b6060826107ef85610bf1565b116108095750604080516000815260208101909152610982565b81808461081587610bf1565b61081f91906133bb565b101561083c578361082f86610bf1565b61083991906133bb565b90505b6000816001600160401b0381111561085657610856613480565b60405190808252806020026020018201604052801561087f578160200160208202803683370190505b506001600160a01b0387166000908152600d60209081526040808320600101805482518185028101850190935280835294955092939092918301828280156108e657602002820191906000526020600020905b8154815260200190600101908083116108d2575b5050505050905060008060005b83518110156109795787831061090857610979565b818911156109225761091b6001836133a3565b9150610967565b8381815181106109345761093461346a565b602002602001015185848151811061094e5761094e61346a565b60209081029190910101526109646001846133a3565b92505b8061097181613439565b9150506108f3565b50929450505050505b9392505050565b600754610100900460ff16806109a2575060075460ff16155b6109be5760405162461bcd60e51b81526004016105e89061316b565b600754610100900460ff161580156109e0576007805461ffff19166101011790555b6040805160028082526060820190925290816020015b60608152602001906001900390816109f65750508051610a1e91600c91602090910190612540565b506040518060400160405280600581526020016427bbb732b960d91b815250600c600081548110610a5157610a5161346a565b906000526020600020019080519060200190610a6e92919061259d565b5060405180604001604052806008815260200167283937bb34b232b960c11b815250600c600181548110610aa457610aa461346a565b906000526020600020019080519060200190610ac192919061259d565b50610acc8383611bc2565b610bac85856002600c805480602002602001604051908101604052809291908181526020016000905b82821015610ba1578382906000526020600020018054610b14906133fe565b80601f0160208091040260200160405190810160405280929190818152602001828054610b40906133fe565b8015610b8d5780601f10610b6257610100808354040283529160200191610b8d565b820191906000526020600020905b815481529060010190602001808311610b7057829003601f168201915b505050505081526020019060010190610af5565b505050506000610d52565b8015610bbe576007805461ff00191690555b5050505050565b60606106f382600354611be9565b60606106f3826001611be9565b6060610bec60016112a1565b905090565b6001600160a01b03166000908152600d602052604090206001015490565b610c1b81600354611d14565b151560011415610c5e576001610c326003546112a1565b51610c3d91906133bb565b6004541115610c5e5760405162461bcd60e51b81526004016105e89061314c565b610656816003546115f7565b610c72612508565b6106f382600354611a08565b6106568160016113e7565b610c97868686868686611eba565b610ca28686866114bf565b505050505050565b6060610bec6003546112a1565b33610cc1816116cd565b6001610ccc81611713565b33610cd681611788565b61068a6000611848565b33610cea816116cd565b6000610cf581611713565b82600560035481548110610d0b57610d0b61346a565b906000526020600020906004020160010180549050610d2a82826113c7565b600185610d3782826113c7565b60088790556106426001611848565b61065681600354611192565b600754610100900460ff1680610d6b575060075460ff16155b610d875760405162461bcd60e51b81526004016105e89061316b565b600754610100900460ff16158015610da9576007805461ffff19166101011790555b848651610db682826113c7565b600187610dc382826113c7565b86518814610dfb5760405162461bcd60e51b8152602060048201526005602482015264454331382d60d81b60448201526064016105e8565b600386905560005b88811015610e73576005805460010181556000528751600690899083908110610e2e57610e2e61346a565b60209081029190910181015182546001810184556000938452928290208151610e60949190910192919091019061259d565b5080610e6b81613439565b915050610e03565b50600489905560005b8a51811015610fba57600073__AddressLibrary________________________63bc215e858d8481518110610eb357610eb361346a565b60200260200101516040518263ffffffff1660e01b8152600401610ed79190612fcd565b60206040518083038186803b158015610eef57600080fd5b505af4158015610f03573d6000803e3d6000fd5b505050506040513d601f19601f82011682018060405250810190610f279190612cf1565b90506001600560035481548110610f4057610f4061346a565b60009182526020808320858452600492909202909101905260409020600101805460ff1916911515919091179055600354600580549091908110610f8657610f8661346a565b6000918252602080832060016004909302018201805492830181558352909120015580610fb281613439565b915050610e7c565b50505050508015610ca2576007805461ff0019169055505050505050565b60608060006001818054610feb906133fe565b80601f0160208091040260200160405190810160405280929190818152602001828054611017906133fe565b80156110645780601f1061103957610100808354040283529160200191611064565b820191906000526020600020905b81548152906001019060200180831161104757829003601f168201915b50505050509150808054611077906133fe565b80601f01602080910402602001604051908101604052809291908181526020018280546110a3906133fe565b80156110f05780601f106110c5576101008083540402835291602001916110f0565b820191906000526020600020905b8154815290600101906020018083116110d357829003601f168201915b50505050509050915091509091565b61068a83838360016118cf565b60405163c47f002760e01b815281906001600160a01b0382169063c47f00279061113a90869060040161310b565b602060405180830381600087803b15801561115457600080fd5b505af1158015611168573d6000803e3d6000fd5b505050506040513d601f19601f8201168201806040525081019061118c9190612cf1565b50505050565b60055460405163123bd07560e11b815282919073__Library_______________________________90632477a0ea906111d190859085906004016130fd565b60006040518083038186803b1580156111e957600080fd5b505af41580156111fd573d6000803e3d6000fd5b505050503361120b816116cd565b600080611228876040518060200160405280600081525088611fe0565b604051635cb09bcf60e01b8152919350915073__ItemsLibrary__________________________90635cb09bcf9061126890859085903090600401613231565b60006040518083038186803b15801561128057600080fd5b505af4158015611294573d6000803e3d6000fd5b5050505050505050505050565b60055460405163123bd07560e11b8152606091839173__Library_______________________________90632477a0ea906112e290859085906004016130fd565b60006040518083038186803b1580156112fa57600080fd5b505af415801561130e573d6000803e3d6000fd5b5050505073__ItemsLibrary__________________________6327724f4b6005868154811061133f5761133f61346a565b90600052602060002090600402016040518263ffffffff1660e01b815260040161136b91815260200190565b60006040518083038186803b15801561138357600080fd5b505af4158015611397573d6000803e3d6000fd5b505050506040513d6000823e601f3d908101601f191682016040526113bf9190810190612c20565b949350505050565b8082111561069a5760405162461bcd60e51b81526004016105e89061314c565b60055460405163123bd07560e11b815282919073__Library_______________________________90632477a0ea9061142690859085906004016130fd565b60006040518083038186803b15801561143e57600080fd5b505af4158015611452573d6000803e3d6000fd5b5050505033611460816116cd565b60008061147d876040518060200160405280600081525088611fe0565b60405163e23fcdef60e01b8152919350915073__ItemsLibrary__________________________9063e23fcdef9061126890859085903090600401613231565b565b826114c9816121ec565b15156001146115025760405162461bcd60e51b8152602060048201526005602482015264454331322d60d81b60448201526064016105e8565b826001600160a01b038084166000908152600d602090815260408083208884529091529020548491869116156115625760405162461bcd60e51b8152602060048201526005602482015264454331352d60d81b60448201526064016105e8565b6001600160a01b038086166000818152600d602081815260408084208c85528083528185208054978f166001600160a01b0319909816881790559282526001928301805493840181558452922001899055519091907ff55a90628981610edc26894247bee72e1963d1c9faa4ea6533fd3df39fd36ed4906115e6908a815260200190565b60405180910390a350505050505050565b60055460405163123bd07560e11b815282919073__Library_______________________________90632477a0ea9061163690859085906004016130fd565b60006040518083038186803b15801561164e57600080fd5b505af4158015611662573d6000803e3d6000fd5b5050505033611670816116cd565b60008061168d876040518060200160405280600081525088611fe0565b604051637493a70b60e01b8152919350915073__ItemsLibrary__________________________90637493a70b9061126890859085903090600401613231565b6116d9816003546121f5565b15156001146106565760405162461bcd60e51b81526004016105e8906020808252600490820152634543392d60e01b604082015260600190565b8015611750576008546106565760405162461bcd60e51b8152602060048201526005602482015264454333312d60d81b60448201526064016105e8565b600854156106565760405162461bcd60e51b8152602060048201526005602482015264454333302d60d81b60448201526064016105e8565b60405163f7cf62d760e01b815273__AddressLibrary________________________9063f7cf62d7906117c2908490600b90600401612fe1565b60206040518083038186803b1580156117da57600080fd5b505af41580156117ee573d6000803e3d6000fd5b505050506040513d601f19601f820116820180604052508101906118129190612cd4565b156106565760405162461bcd60e51b81526004016105e8906020808252600490820152634543352d60e01b604082015260600190565b801561186c5760016009600082825461186191906133a3565b909155506118859050565b6001600a600082825461187f91906133a3565b90915550505b600b80546001810182556000919091527f0175b7a638427703f0dbe7bb9bbf987a2551717b34e79f33b5b1008d1fa01db90180546001600160a01b03191633179055610656612320565b60055460405163123bd07560e11b815282919073__Library_______________________________90632477a0ea9061190e90859085906004016130fd565b60006040518083038186803b15801561192657600080fd5b505af415801561193a573d6000803e3d6000fd5b5050505033611948816116cd565b60008061198d8989898080601f0160208091040260200160405190810160405280939291908181526020018383808284376000920191909152508b9250611fe0915050565b6040516305cc2d5560e11b8152919350915073__ItemsLibrary__________________________90630b985aaa906119cd90859085903090600401613231565b60006040518083038186803b1580156119e557600080fd5b505af41580156119f9573d6000803e3d6000fd5b50505050505050505050505050565b611a10612508565b60055460405163123bd07560e11b815283919073__Library_______________________________90632477a0ea90611a4f90859085906004016130fd565b60006040518083038186803b158015611a6757600080fd5b505af4158015611a7b573d6000803e3d6000fd5b505060405163bc215e8560e01b81526000925073__AddressLibrary________________________915063bc215e8590611ab9908990600401612fcd565b60206040518083038186803b158015611ad157600080fd5b505af4158015611ae5573d6000803e3d6000fd5b505050506040513d601f19601f82011682018060405250810190611b099190612cf1565b905073__ItemsLibrary__________________________631aeccc6a8260058881548110611b3957611b3961346a565b90600052602060002090600402016040518363ffffffff1660e01b8152600401611b649291906130fd565b60006040518083038186803b158015611b7c57600080fd5b505af4158015611b90573d6000803e3d6000fd5b505050506040513d6000823e601f3d908101601f19168201604052611bb89190810190612dcb565b9695505050505050565b8151611bd590600090602085019061259d565b50805161068a90600190602084019061259d565b60055460405163123bd07560e11b8152606091839173__Library_______________________________90632477a0ea90611c2a90859085906004016130fd565b60006040518083038186803b158015611c4257600080fd5b505af4158015611c56573d6000803e3d6000fd5b50505050606073__ItemsLibrary__________________________63e035e0068760058881548110611c8a57611c8a61346a565b90600052602060002090600402016040518363ffffffff1660e01b8152600401611cc09291909115158252602082015260400190565b60006040518083038186803b158015611cd857600080fd5b505af4158015611cec573d6000803e3d6000fd5b505050506040513d6000823e601f3d908101601f19168201604052611bb89190810190612c20565b60055460405163123bd07560e11b8152600091839173__Library_______________________________90632477a0ea90611d5590859085906004016130fd565b60006040518083038186803b158015611d6d57600080fd5b505af4158015611d81573d6000803e3d6000fd5b505060405163bc215e8560e01b81526000925073__AddressLibrary________________________915063bc215e8590611dbf908990600401612fcd565b60206040518083038186803b158015611dd757600080fd5b505af4158015611deb573d6000803e3d6000fd5b505050506040513d601f19601f82011682018060405250810190611e0f9190612cf1565b905073__ItemsLibrary__________________________632854ed2e8260058881548110611e3f57611e3f61346a565b90600052602060002090600402016040518363ffffffff1660e01b8152600401611e6a9291906130fd565b60206040518083038186803b158015611e8257600080fd5b505af4158015611e96573d6000803e3d6000fd5b505050506040513d601f19601f82011682018060405250810190611bb89190612cd4565b81611ec481612458565b8684611ed0828261248f565b60405163c1bc5c3f60e01b815273__SignatureLibrary______________________9063c1bc5c3f90611f17908c908c908c908c908c908c90600090600190600401613040565b60206040518083038186803b158015611f2f57600080fd5b505af4158015611f43573d6000803e3d6000fd5b505050506040513d601f19601f82011682018060405250810190611f679190612cd4565b1515600114611fa05760405162461bcd60e51b8152602060048201526005602482015264454333322d60d81b60448201526064016105e8565b611fd589876001600160a01b03909116600090815260026020908152604080832093835292905220805460ff19166001179055565b505050505050505050565b6120156040518060a0016040528060008019168152602001606081526020016000815260200160608152602001606081525090565b60008073__AddressLibrary________________________63bc215e85876040518263ffffffff1660e01b815260040161204f9190612fcd565b60206040518083038186803b15801561206757600080fd5b505af415801561207b573d6000803e3d6000fd5b505050506040513d601f19601f8201168201806040525081019061209f9190612cf1565b604080516001808252818301909252919250600091906020808301908036833701905050905084816000815181106120d9576120d961346a565b60200260200101818152505060006040518060a001604052808481526020018881526020016004548152602001600688815481106121195761211961346a565b90600052602060002001805461212e906133fe565b80601f016020809104026020016040519081016040528092919081815260200182805461215a906133fe565b80156121a75780601f1061217c576101008083540402835291602001916121a7565b820191906000526020600020905b81548152906001019060200180831161218a57829003601f168201915b505050505081526020018381525090506000600587815481106121cc576121cc61346a565b600091825260209091209296506004029091019350505050935093915050565b60006106f38260015b60055460405163123bd07560e11b8152600091839173__Library_______________________________90632477a0ea9061223690859085906004016130fd565b60006040518083038186803b15801561224e57600080fd5b505af4158015612262573d6000803e3d6000fd5b505060405163bc215e8560e01b81526000925073__AddressLibrary________________________915063bc215e85906122a0908990600401612fcd565b60206040518083038186803b1580156122b857600080fd5b505af41580156122cc573d6000803e3d6000fd5b505050506040513d601f19601f820116820180604052508101906122f09190612cf1565b905073__ItemsLibrary__________________________63dbdfbeec8260058881548110611e3f57611e3f61346a565b6009546004805460405163f6001d7d60e01b815273__ItemsLibrary__________________________9363f6001d7d9361235c939192016130fd565b60206040518083038186803b15801561237457600080fd5b505af4158015612388573d6000803e3d6000fd5b505050506040513d601f19601f820116820180604052508101906123ac9190612cd4565b156123bf576008546004556114bd6124eb565b600a546004805460405163f6001d7d60e01b815273__ItemsLibrary__________________________9363f6001d7d936123fb939192016130fd565b60206040518083038186803b15801561241357600080fd5b505af4158015612427573d6000803e3d6000fd5b505050506040513d601f19601f8201168201806040525081019061244b9190612cd4565b156114bd576114bd6124eb565b8042106106565760405162461bcd60e51b8152602060048201526005602482015264454333332d60d81b60448201526064016105e8565b6001600160a01b038216600090815260026020908152604080832084845290915290205460ff161561069a5760405162461bcd60e51b8152602060048201526005602482015264454333342d60d81b60448201526064016105e8565b600060088190556009819055600a8190556114bd90600b9061261d565b6040518060c0016040528060608152602001600015158152602001600081526020016000815260200160608152602001606081525090565b82805482825590600052602060002090810192821561258d579160200282015b8281111561258d578251805161257d91849160209091019061259d565b5091602001919060010190612560565b5061259992915061263b565b5090565b8280546125a9906133fe565b90600052602060002090601f0160209004810192826125cb5760008555612611565b82601f106125e457805160ff1916838001178555612611565b82800160010185558215612611579182015b828111156126115782518255916020019190600101906125f6565b50612599929150612658565b50805460008255906000526020600020908101906106569190612658565b8082111561259957600061264f828261266d565b5060010161263b565b5b808211156125995760008155600101612659565b508054612679906133fe565b6000825580601f10612689575050565b601f0160209004906000526020600020908101906106569190612658565b60006126ba6126b58461337c565b613329565b90508281528383830111156126ce57600080fd5b828260208301376000602084830101529392505050565b80356126f081613496565b919050565b600082601f83011261270657600080fd5b813560206127166126b583613359565b80838252828201915082860187848660051b890101111561273657600080fd5b60005b8581101561275e57813561274c81613496565b84529284019290840190600101612739565b5090979650505050505050565b600082601f83011261277c57600080fd5b8151602061278c6126b583613359565b80838252828201915082860187848660051b89010111156127ac57600080fd5b60005b8581101561275e5781516127c281613496565b845292840192908401906001016127af565b80516126f0816134ab565b600082601f8301126127f057600080fd5b610982838335602085016126a7565b600082601f83011261281057600080fd5b815161281e6126b58261337c565b81815284602083860101111561283357600080fd5b6113bf8260208301602087016133d2565b60006020828403121561285657600080fd5b813561098281613496565b60008060008060008060c0878903121561287a57600080fd5b863561288581613496565b955060208701359450604087013561289c81613496565b9350606087013592506080870135915060a08701356001600160401b038111156128c557600080fd5b8701601f810189136128d657600080fd5b6128e5898235602084016126a7565b9150509295509295509295565b60008060006040848603121561290757600080fd5b833561291281613496565b925060208401356001600160401b038082111561292e57600080fd5b818601915086601f83011261294257600080fd5b81358181111561295157600080fd5b87602082850101111561296357600080fd5b6020830194508093505050509250925092565b6000806040838503121561298957600080fd5b823561299481613496565b946020939093013593505050565b6000806000606084860312156129b757600080fd5b83356129c281613496565b95602085013595506040909401359392505050565b600080600080608085870312156129ed57600080fd5b84356001600160401b0380821115612a0457600080fd5b612a10888389016126f5565b9550602087013594506040870135915080821115612a2d57600080fd5b612a39888389016127df565b93506060870135915080821115612a4f57600080fd5b50612a5c878288016127df565b91505092959194509250565b60008060008060008060c08789031215612a8157600080fd5b86356001600160401b0380821115612a9857600080fd5b612aa48a838b016126f5565b9750602089013596506040890135915080821115612ac157600080fd5b612acd8a838b016127df565b95506060890135915080821115612ae357600080fd5b612aef8a838b016127df565b94506080890135915080821115612b0557600080fd5b50612b1289828a016127df565b925050612b2160a088016126e5565b90509295509295509295565b600080600080600060a08688031215612b4557600080fd5b6001600160401b038635811015612b5b57600080fd5b612b6888883589016126f5565b9550602080880135955060408801359450606088013582811115612b8b57600080fd5b8801601f81018a13612b9c57600080fd5b8035612baa6126b582613359565b8082825284820191508484018d868560051b8701011115612bca57600080fd5b60005b84811015612c04578782351115612be357600080fd5b612bf28f8884358901016127df565b84529286019290860190600101612bcd565b5050809750505050505050608086013590509295509295909350565b60006020808385031215612c3357600080fd5b82516001600160401b03811115612c4957600080fd5b8301601f81018513612c5a57600080fd5b8051612c686126b582613359565b80828252848201915084840188868560051b8701011115612c8857600080fd5b600094505b83851015612cab578051835260019490940193918501918501612c8d565b50979650505050505050565b600060208284031215612cc957600080fd5b8135610982816134ab565b600060208284031215612ce657600080fd5b8151610982816134ab565b600060208284031215612d0357600080fd5b5051919050565b60008060408385031215612d1d57600080fd5b823591506020830135612d2f81613496565b809150509250929050565b60008060008060608587031215612d5057600080fd5b8435935060208501356001600160401b0380821115612d6e57600080fd5b818701915087601f830112612d8257600080fd5b813581811115612d9157600080fd5b8860208260051b8501011115612da657600080fd5b6020830195508094505050506040850135612dc0816134ab565b939692955090935050565b600060208284031215612ddd57600080fd5b81516001600160401b0380821115612df457600080fd5b9083019060c08286031215612e0857600080fd5b612e10613301565b825182811115612e1f57600080fd5b612e2b878286016127ff565b825250612e3a602084016127d4565b60208201526040830151604082015260608301516060820152608083015182811115612e6557600080fd5b612e718782860161276b565b60808301525060a083015182811115612e8957600080fd5b612e958782860161276b565b60a08301525095945050505050565b600060208284031215612eb657600080fd5b5035919050565b600081518084526020808501945080840160005b83811015612ef65781516001600160a01b031687529582019590820190600101612ed1565b509495945050505050565b60008151808452612f198160208601602086016133d2565b601f01601f19169290920160200192915050565b8054600090600181811c9080831680612f4757607f831692505b6020808410821415612f6957634e487b7160e01b600052602260045260246000fd5b83885260208801828015612f845760018114612f9557612fc0565b60ff19871682528282019750612fc0565b60008981526020902060005b87811015612fba57815484820152908601908401612fa1565b83019850505b5050505050505092915050565b6001600160a01b0391909116815260200190565b60006040820160018060a01b03808616845260206040818601528286548085526060870191508760005282600020945060005b81811015613032578554851683526001958601959284019201613014565b509098975050505050505050565b6001600160a01b0389811682526020820189905287166040820152606081018690526080810185905261010060a0820181905260009061308283820187612f01565b905082810360c08401526130968186612f2d565b905082810360e08401526130aa8185612f2d565b9b9a5050505050505050505050565b6020808252825182820181905260009190848201906040850190845b818110156130f1578351835292840192918401916001016130d5565b50909695505050505050565b918252602082015260400190565b6020815260006109826020830184612f01565b6040815260006131316040830185612f01565b82810360208401526131438185612f01565b95945050505050565b602080825260059082015264454331392d60d81b604082015260600190565b6020808252602e908201527f496e697469616c697a61626c653a20636f6e747261637420697320616c72656160408201526d191e481a5b9a5d1a585b1a5e995960921b606082015260800190565b602081526000825160c060208401526131d560e0840182612f01565b905060208401511515604084015260408401516060840152606084015160808401526080840151601f19808584030160a08601526132138383612ebd565b925060a08601519150808584030160c0860152506131438282612ebd565b6060815283516060820152600060208086015160a06080850152613259610100850182612f01565b9050604087015160a08501526060870151605f19808684030160c08701526132818383612f01565b60808a015187820390920160e088015281518082529185019350600092508401905b808310156132c357835182529284019260019290920191908401906132a3565b5092850187905250506001600160a01b038416604084015290506113bf565b8381528260208201526060604082015260006131436060830184612ebd565b60405160c081016001600160401b038111828210171561332357613323613480565b60405290565b604051601f8201601f191681016001600160401b038111828210171561335157613351613480565b604052919050565b60006001600160401b0382111561337257613372613480565b5060051b60200190565b60006001600160401b0382111561339557613395613480565b50601f01601f191660200190565b600082198211156133b6576133b6613454565b500190565b6000828210156133cd576133cd613454565b500390565b60005b838110156133ed5781810151838201526020016133d5565b8381111561118c5750506000910152565b600181811c9082168061341257607f821691505b6020821081141561343357634e487b7160e01b600052602260045260246000fd5b50919050565b600060001982141561344d5761344d613454565b5060010190565b634e487b7160e01b600052601160045260246000fd5b634e487b7160e01b600052603260045260246000fd5b634e487b7160e01b600052604160045260246000fd5b6001600160a01b038116811461065657600080fd5b801515811461065657600080fdfea2646970667358221220c0acbaf8944e44cc9eff88e9be7cba6a250eaaa7821b11bddbd825b61505108c64736f6c63430008070033",
  "immutableReferences": {},
  "source": "// SPDX-License-Identifier: GPL-3.0\r\n\r\npragma solidity 0.8.7;\r\n\r\n/*\r\n  Private Certificate Pools offer the default MultiSig Certificate Pool functionality\r\n */\r\n\r\n import \"../Abstract/MultiSigCertificatesPool.sol\";\r\n import \"../Base/ReverseRegistryBaseContract.sol\";\r\n\r\n\r\n contract PrivateCertificatesPool is ReverseRegistryBaseContract, MultiSigCertificatesPool {\r\n\r\n    // CONSTRUCTOR & INIT /////////////////////////////////////////\r\n    function PrivateCertPool_init(address[] memory owners,  uint256 minOwners, string memory contractName, string memory contractVersion, string memory ENSName, address ReverseRegistryAddress) public initializer \r\n    {\r\n      super.MultiSigCertPool_init(owners, minOwners, contractName, contractVersion);\r\n\r\n      if(0 < bytes(ENSName).length){\r\n        RegisterReverseAddress(ENSName, ReverseRegistryAddress);\r\n      }\r\n      \r\n    }\r\n\r\n  }",
  "sourcePath": "C:/Users/d-aam/GitHub/Certificates/contracts/DeployedContracts/PrivateCertificatesPool.sol",
  "compiler": {
    "name": "solc",
    "version": "0.8.7+commit.e28d00a7.Emscripten.clang"
  },
  "schemaVersion": "3.3.4",
  "updatedAt": "2021-11-05T10:05:55.259Z",
  "devdoc": {
    "kind": "dev",
    "methods": {},
    "version": 1
  },
  "userdoc": {
    "kind": "user",
    "methods": {},
    "version": 1
  }
}