{
  "contractName": "PrivateCertificatesPool",
  "abi": [
    {
      "anonymous": false,
      "inputs": [
        {
          "indexed": true,
          "internalType": "address",
          "name": "Provider",
          "type": "address"
        },
        {
          "indexed": true,
          "internalType": "address",
          "name": "Holder",
          "type": "address"
        },
        {
          "indexed": false,
          "internalType": "bytes32",
          "name": "Certificate",
          "type": "bytes32"
        }
      ],
      "name": "_AddCertificate",
      "type": "event"
    },
    {
      "anonymous": false,
      "inputs": [
        {
          "indexed": false,
          "internalType": "string",
          "name": "ItemType",
          "type": "string"
        },
        {
          "indexed": true,
          "internalType": "bytes32",
          "name": "Item",
          "type": "bytes32"
        },
        {
          "indexed": false,
          "internalType": "string",
          "name": "Info",
          "type": "string"
        }
      ],
      "name": "_AddItemRejection",
      "type": "event"
    },
    {
      "anonymous": false,
      "inputs": [
        {
          "indexed": false,
          "internalType": "string",
          "name": "ItemType",
          "type": "string"
        },
        {
          "indexed": true,
          "internalType": "bytes32",
          "name": "Item",
          "type": "bytes32"
        },
        {
          "indexed": false,
          "internalType": "string",
          "name": "Info",
          "type": "string"
        }
      ],
      "name": "_AddItemValidation",
      "type": "event"
    },
    {
      "anonymous": false,
      "inputs": [
        {
          "indexed": false,
          "internalType": "string",
          "name": "ItemType",
          "type": "string"
        },
        {
          "indexed": true,
          "internalType": "bytes32",
          "name": "Item",
          "type": "bytes32"
        },
        {
          "indexed": false,
          "internalType": "string",
          "name": "Info",
          "type": "string"
        }
      ],
      "name": "_RemoveItemRejection",
      "type": "event"
    },
    {
      "anonymous": false,
      "inputs": [
        {
          "indexed": false,
          "internalType": "string",
          "name": "ItemType",
          "type": "string"
        },
        {
          "indexed": true,
          "internalType": "bytes32",
          "name": "Item",
          "type": "bytes32"
        },
        {
          "indexed": false,
          "internalType": "string",
          "name": "Info",
          "type": "string"
        }
      ],
      "name": "_RemoveItemValidation",
      "type": "event"
    },
    {
      "inputs": [
        {
          "internalType": "address[]",
          "name": "owners",
          "type": "address[]"
        },
        {
          "internalType": "uint256",
          "name": "minOwners",
          "type": "uint256"
        },
        {
          "internalType": "string",
          "name": "contractName",
          "type": "string"
        },
        {
          "internalType": "string",
          "name": "contractVersion",
          "type": "string"
        }
      ],
      "name": "MultiSigCertPool_init",
      "outputs": [],
      "stateMutability": "nonpayable",
      "type": "function"
    },
    {
      "inputs": [
        {
          "internalType": "address[]",
          "name": "owners",
          "type": "address[]"
        },
        {
          "internalType": "uint256",
          "name": "minOwners",
          "type": "uint256"
        },
        {
          "internalType": "uint256",
          "name": "TotalEntities",
          "type": "uint256"
        },
        {
          "internalType": "string[]",
          "name": "labels",
          "type": "string[]"
        },
        {
          "internalType": "uint256",
          "name": "ownerId",
          "type": "uint256"
        }
      ],
      "name": "MultiSigContract_init",
      "outputs": [],
      "stateMutability": "nonpayable",
      "type": "function"
    },
    {
      "inputs": [
        {
          "internalType": "bytes32",
          "name": "CertificateHash",
          "type": "bytes32"
        },
        {
          "internalType": "address",
          "name": "holder",
          "type": "address"
        }
      ],
      "name": "addCertificate",
      "outputs": [],
      "stateMutability": "payable",
      "type": "function",
      "payable": true
    },
    {
      "inputs": [
        {
          "internalType": "address",
          "name": "provider",
          "type": "address"
        },
        {
          "internalType": "bytes32",
          "name": "CertificateHash",
          "type": "bytes32"
        },
        {
          "internalType": "address",
          "name": "holder",
          "type": "address"
        },
        {
          "internalType": "uint256",
          "name": "nonce",
          "type": "uint256"
        },
        {
          "internalType": "uint256",
          "name": "deadline",
          "type": "uint256"
        },
        {
          "internalType": "bytes",
          "name": "signature",
          "type": "bytes"
        }
      ],
      "name": "addCertificateOnBehalfOf",
      "outputs": [],
      "stateMutability": "payable",
      "type": "function",
      "payable": true
    },
    {
      "inputs": [
        {
          "internalType": "address",
          "name": "owner",
          "type": "address"
        },
        {
          "internalType": "string",
          "name": "ownerInfo",
          "type": "string"
        }
      ],
      "name": "addOwner",
      "outputs": [],
      "stateMutability": "nonpayable",
      "type": "function"
    },
    {
      "inputs": [
        {
          "internalType": "address",
          "name": "provider",
          "type": "address"
        },
        {
          "internalType": "string",
          "name": "providerInfo",
          "type": "string"
        }
      ],
      "name": "addProvider",
      "outputs": [],
      "stateMutability": "payable",
      "type": "function",
      "payable": true
    },
    {
      "inputs": [
        {
          "internalType": "uint256",
          "name": "newMinOwners",
          "type": "uint256"
        }
      ],
      "name": "changeMinOwners",
      "outputs": [],
      "stateMutability": "nonpayable",
      "type": "function"
    },
    {
      "inputs": [
        {
          "internalType": "bytes32",
          "name": "item",
          "type": "bytes32"
        },
        {
          "internalType": "uint256[]",
          "name": "ids",
          "type": "uint256[]"
        },
        {
          "internalType": "bool",
          "name": "addOrRemove",
          "type": "bool"
        }
      ],
      "name": "onItemRejected",
      "outputs": [],
      "stateMutability": "nonpayable",
      "type": "function"
    },
    {
      "inputs": [
        {
          "internalType": "bytes32",
          "name": "item",
          "type": "bytes32"
        },
        {
          "internalType": "uint256[]",
          "name": "ids",
          "type": "uint256[]"
        },
        {
          "internalType": "bool",
          "name": "addOrRemove",
          "type": "bool"
        }
      ],
      "name": "onItemValidated",
      "outputs": [],
      "stateMutability": "nonpayable",
      "type": "function"
    },
    {
      "inputs": [],
      "name": "rejectMinOwners",
      "outputs": [],
      "stateMutability": "nonpayable",
      "type": "function"
    },
    {
      "inputs": [
        {
          "internalType": "address",
          "name": "owner",
          "type": "address"
        }
      ],
      "name": "rejectOwner",
      "outputs": [],
      "stateMutability": "nonpayable",
      "type": "function"
    },
    {
      "inputs": [
        {
          "internalType": "address",
          "name": "provider",
          "type": "address"
        }
      ],
      "name": "rejectProvider",
      "outputs": [],
      "stateMutability": "nonpayable",
      "type": "function"
    },
    {
      "inputs": [
        {
          "internalType": "address",
          "name": "owner",
          "type": "address"
        }
      ],
      "name": "removeOwner",
      "outputs": [],
      "stateMutability": "nonpayable",
      "type": "function"
    },
    {
      "inputs": [
        {
          "internalType": "address",
          "name": "provider",
          "type": "address"
        }
      ],
      "name": "removeProvider",
      "outputs": [],
      "stateMutability": "nonpayable",
      "type": "function"
    },
    {
      "inputs": [],
      "name": "retrieveAddCertificatePriceWei",
      "outputs": [
        {
          "internalType": "uint256",
          "name": "",
          "type": "uint256"
        }
      ],
      "stateMutability": "view",
      "type": "function",
      "constant": true
    },
    {
      "inputs": [],
      "name": "retrieveAllOwners",
      "outputs": [
        {
          "internalType": "bytes32[]",
          "name": "",
          "type": "bytes32[]"
        }
      ],
      "stateMutability": "view",
      "type": "function",
      "constant": true
    },
    {
      "inputs": [],
      "name": "retrieveAllProviders",
      "outputs": [
        {
          "internalType": "bytes32[]",
          "name": "",
          "type": "bytes32[]"
        }
      ],
      "stateMutability": "view",
      "type": "function",
      "constant": true
    },
    {
      "inputs": [
        {
          "internalType": "bytes32",
          "name": "CertificateHash",
          "type": "bytes32"
        },
        {
          "internalType": "address",
          "name": "holder",
          "type": "address"
        }
      ],
      "name": "retrieveCertificateProvider",
      "outputs": [
        {
          "internalType": "address",
          "name": "",
          "type": "address"
        }
      ],
      "stateMutability": "view",
      "type": "function",
      "constant": true
    },
    {
      "inputs": [
        {
          "internalType": "address",
          "name": "holder",
          "type": "address"
        },
        {
          "internalType": "uint256",
          "name": "skipFirst",
          "type": "uint256"
        },
        {
          "internalType": "uint256",
          "name": "max",
          "type": "uint256"
        }
      ],
      "name": "retrieveCertificatesByHolder",
      "outputs": [
        {
          "internalType": "bytes32[]",
          "name": "",
          "type": "bytes32[]"
        }
      ],
      "stateMutability": "view",
      "type": "function",
      "constant": true
    },
    {
      "inputs": [],
      "name": "retrieveContractConfig",
      "outputs": [
        {
          "internalType": "string",
          "name": "",
          "type": "string"
        },
        {
          "internalType": "string",
          "name": "",
          "type": "string"
        }
      ],
      "stateMutability": "view",
      "type": "function",
      "constant": true
    },
    {
      "inputs": [],
      "name": "retrieveMinOwners",
      "outputs": [
        {
          "internalType": "uint256",
          "name": "",
          "type": "uint256"
        }
      ],
      "stateMutability": "view",
      "type": "function",
      "constant": true
    },
    {
      "inputs": [
        {
          "internalType": "address",
          "name": "addr",
          "type": "address"
        },
        {
          "internalType": "uint256",
          "name": "nonce",
          "type": "uint256"
        }
      ],
      "name": "retrieveNonce",
      "outputs": [
        {
          "internalType": "bool",
          "name": "",
          "type": "bool"
        }
      ],
      "stateMutability": "view",
      "type": "function",
      "constant": true
    },
    {
      "inputs": [
        {
          "internalType": "address",
          "name": "owner",
          "type": "address"
        }
      ],
      "name": "retrieveOwner",
      "outputs": [
        {
          "components": [
            {
              "internalType": "string",
              "name": "_Info",
              "type": "string"
            },
            {
              "internalType": "bool",
              "name": "_activated",
              "type": "bool"
            },
            {
              "internalType": "uint256",
              "name": "_id",
              "type": "uint256"
            },
            {
              "internalType": "uint256",
              "name": "_pendingId",
              "type": "uint256"
            },
            {
              "internalType": "address[]",
              "name": "_Validations",
              "type": "address[]"
            },
            {
              "internalType": "address[]",
              "name": "_Rejections",
              "type": "address[]"
            }
          ],
          "internalType": "struct ItemsLibrary._itemIdentity",
          "name": "",
          "type": "tuple"
        }
      ],
      "stateMutability": "view",
      "type": "function",
      "constant": true
    },
    {
      "inputs": [],
      "name": "retrievePendingMinOwners",
      "outputs": [
        {
          "internalType": "uint256",
          "name": "",
          "type": "uint256"
        }
      ],
      "stateMutability": "view",
      "type": "function",
      "constant": true
    },
    {
      "inputs": [],
      "name": "retrievePendingMinOwnersStatus",
      "outputs": [
        {
          "internalType": "uint256",
          "name": "",
          "type": "uint256"
        },
        {
          "internalType": "uint256",
          "name": "",
          "type": "uint256"
        },
        {
          "internalType": "address[]",
          "name": "",
          "type": "address[]"
        }
      ],
      "stateMutability": "view",
      "type": "function",
      "constant": true
    },
    {
      "inputs": [
        {
          "internalType": "bool",
          "name": "addedORremove",
          "type": "bool"
        }
      ],
      "name": "retrievePendingOwners",
      "outputs": [
        {
          "internalType": "bytes32[]",
          "name": "",
          "type": "bytes32[]"
        }
      ],
      "stateMutability": "view",
      "type": "function",
      "constant": true
    },
    {
      "inputs": [
        {
          "internalType": "bool",
          "name": "addedORremove",
          "type": "bool"
        }
      ],
      "name": "retrievePendingProviders",
      "outputs": [
        {
          "internalType": "bytes32[]",
          "name": "",
          "type": "bytes32[]"
        }
      ],
      "stateMutability": "view",
      "type": "function",
      "constant": true
    },
    {
      "inputs": [
        {
          "internalType": "address",
          "name": "provider",
          "type": "address"
        }
      ],
      "name": "retrieveProvider",
      "outputs": [
        {
          "components": [
            {
              "internalType": "string",
              "name": "_Info",
              "type": "string"
            },
            {
              "internalType": "bool",
              "name": "_activated",
              "type": "bool"
            },
            {
              "internalType": "uint256",
              "name": "_id",
              "type": "uint256"
            },
            {
              "internalType": "uint256",
              "name": "_pendingId",
              "type": "uint256"
            },
            {
              "internalType": "address[]",
              "name": "_Validations",
              "type": "address[]"
            },
            {
              "internalType": "address[]",
              "name": "_Rejections",
              "type": "address[]"
            }
          ],
          "internalType": "struct ItemsLibrary._itemIdentity",
          "name": "",
          "type": "tuple"
        }
      ],
      "stateMutability": "view",
      "type": "function",
      "constant": true
    },
    {
      "inputs": [],
      "name": "retrieveSubscriptionPriceWei",
      "outputs": [
        {
          "internalType": "uint256",
          "name": "",
          "type": "uint256"
        }
      ],
      "stateMutability": "view",
      "type": "function",
      "constant": true
    },
    {
      "inputs": [
        {
          "internalType": "address",
          "name": "holder",
          "type": "address"
        }
      ],
      "name": "retrieveTotalCertificatesByHolder",
      "outputs": [
        {
          "internalType": "uint256",
          "name": "",
          "type": "uint256"
        }
      ],
      "stateMutability": "view",
      "type": "function",
      "constant": true
    },
    {
      "inputs": [],
      "name": "validateMinOwners",
      "outputs": [],
      "stateMutability": "nonpayable",
      "type": "function"
    },
    {
      "inputs": [
        {
          "internalType": "address",
          "name": "owner",
          "type": "address"
        }
      ],
      "name": "validateOwner",
      "outputs": [],
      "stateMutability": "nonpayable",
      "type": "function"
    },
    {
      "inputs": [
        {
          "internalType": "address",
          "name": "provider",
          "type": "address"
        }
      ],
      "name": "validateProvider",
      "outputs": [],
      "stateMutability": "nonpayable",
      "type": "function"
    },
    {
      "inputs": [
        {
          "internalType": "address[]",
          "name": "owners",
          "type": "address[]"
        },
        {
          "internalType": "uint256",
          "name": "minOwners",
          "type": "uint256"
        },
        {
          "internalType": "string",
          "name": "contractName",
          "type": "string"
        },
        {
          "internalType": "string",
          "name": "contractVersion",
          "type": "string"
        }
      ],
      "name": "PrivateCertPool_init",
      "outputs": [],
      "stateMutability": "nonpayable",
      "type": "function"
    }
  ],
  "bytecode": "0x608060405234801561001057600080fd5b50613368806100206000396000f3fe6080604052600436106101895760003560e01c80630b4c72a91461018e578063173825d9146101b05780631ab807f8146101d057806327a40b4b146101e35780632edbe7fc1461020357806330ade922146102275780633542758f1461023c578063375834991461025c5780633fd07181146102895780633feca4ca146102a95780634774779d146102ff57806357e7ea2e146102ff5780635888ebb31461031357806358a1ba251461033757806360e639a01461036457806365b973e5146103845780636825b263146103995780636b299604146103b95780636b3a0fec146103d95780636e4f9179146103f95780636e55d2d41461040e57806376f8f90f1461042e57806377bc5a1f1461044e5780637c8c2add146102895780638a355a571461046e5780638b9be2561461048e578063a93d5ed6146104a1578063c3079ae7146104b6578063c66433ea146104cb578063ce33d58a146104eb578063cf2041d91461050b578063d0a4adfe1461052b578063d2116a021461057e578063fc000500146105a1575b600080fd5b34801561019a57600080fd5b506101ae6101a9366004612791565b6105b4565b005b3480156101bc57600080fd5b506101ae6101cb366004612791565b6105c2565b6101ae6101de366004612b92565b6105f8565b3480156101ef57600080fd5b506101ae6101fe366004612791565b610607565b34801561020f57600080fd5b506008545b6040519081526020015b60405180910390f35b34801561023357600080fd5b506101ae610612565b34801561024857600080fd5b506101ae61025736600461283f565b61063b565b34801561026857600080fd5b5061027c610277366004612791565b610649565b60405161021e919061302e565b34801561029557600080fd5b506101ae6102a4366004612bc2565b610662565b3480156102b557600080fd5b506102ef6102c43660046128c3565b6001600160a01b03919091166000908152600260209081526040808320938352929052205460ff1690565b604051901515815260200161021e565b34801561030b57600080fd5b506000610214565b34801561031f57600080fd5b506103286106d8565b60405161021e93929190613157565b34801561034357600080fd5b506103576103523660046128ef565b61074c565b60405161021e9190612f41565b34801561037057600080fd5b506101ae61037f366004612924565b6108f2565b34801561039057600080fd5b50600454610214565b3480156103a557600080fd5b506101ae6103b4366004612924565b610977565b3480156103c557600080fd5b506103576103d4366004612b3f565b610b9a565b3480156103e557600080fd5b506103576103f4366004612b3f565b610ba8565b34801561040557600080fd5b50610357610bb5565b34801561041a57600080fd5b50610214610429366004612791565b610bc6565b34801561043a57600080fd5b506101ae610449366004612791565b610be4565b34801561045a57600080fd5b5061027c610469366004612791565b610c3f565b34801561047a57600080fd5b506101ae610489366004612791565b610c53565b6101ae61049c3660046127ae565b610c5e565b3480156104ad57600080fd5b50610357610c7f565b3480156104c257600080fd5b506101ae610c8c565b3480156104d757600080fd5b506101ae6104e6366004612d2c565b610cb5565b3480156104f757600080fd5b506101ae610506366004612791565b610d24565b34801561051757600080fd5b506101ae6105263660046129b5565b610d30565b34801561053757600080fd5b50610571610546366004612b92565b6001600160a01b039081166000908152600d6020908152604080832094835293905291909120541690565b60405161021e9190612e55565b34801561058a57600080fd5b50610593610fb6565b60405161021e929190612f93565b6101ae6105af36600461283f565b6110dd565b6105bf8160016110ea565b50565b60045460016105d26003546111f9565b516105dd9190613230565b6105e7828261131f565b6105f38360035461133f565b505050565b610603338383611417565b5050565b6105bf81600161154f565b3361061c81611625565b60016106278161166b565b33610631816116e0565b6105f360016117a0565b6105f3838383600354611827565b610651612460565b61065c826001611960565b92915050565b6040516337ea306360e01b815233600482018190523060248301819052909173__Library_______________________________906337ea30639060440160006040518083038186803b1580156106b857600080fd5b505af41580156106cc573d6000803e3d6000fd5b50505050505050505050565b6000806060600954600a54600b8080548060200260200160405190810160405280929190818152602001828054801561073a57602002820191906000526020600020905b81546001600160a01b0316815260019091019060200180831161071c575b50505050509050925092509250909192565b60608261075885610bc6565b1161077257506040805160008152602081019091526108eb565b81808461077e87610bc6565b6107889190613230565b10156107a5578361079886610bc6565b6107a29190613230565b90505b6000816001600160401b038111156107bf576107bf6132f9565b6040519080825280602002602001820160405280156107e8578160200160208202803683370190505b506001600160a01b0387166000908152600d602090815260408083206001018054825181850281018501909352808352949550929390929183018282801561084f57602002820191906000526020600020905b81548152602001906001019080831161083b575b5050505050905060008060005b83518110156108e257878310610871576108e2565b8189111561088b57610884600183613218565b91506108d0565b83818151811061089d5761089d6132e3565b60200260200101518584815181106108b7576108b76132e3565b60209081029190910101526108cd600184613218565b92505b806108da816132b2565b91505061085c565b50929450505050505b9392505050565b600754610100900460ff168061090b575060075460ff16155b6109305760405162461bcd60e51b815260040161092790612fe0565b60405180910390fd5b600754610100900460ff16158015610952576007805461ffff19166101011790555b61095e85858585610977565b8015610970576007805461ff00191690555b5050505050565b600754610100900460ff1680610990575060075460ff16155b6109ac5760405162461bcd60e51b815260040161092790612fe0565b600754610100900460ff161580156109ce576007805461ffff19166101011790555b6040805160028082526060820190925290816020015b60608152602001906001900390816109e45750508051610a0c91600c91602090910190612498565b506040518060400160405280600581526020016427bbb732b960d91b815250600c600081548110610a3f57610a3f6132e3565b906000526020600020019080519060200190610a5c9291906124f5565b5060405180604001604052806008815260200167283937bb34b232b960c11b815250600c600181548110610a9257610a926132e3565b906000526020600020019080519060200190610aaf9291906124f5565b50610aba8383611b1a565b61095e85856002600c805480602002602001604051908101604052809291908181526020016000905b82821015610b8f578382906000526020600020018054610b0290613277565b80601f0160208091040260200160405190810160405280929190818152602001828054610b2e90613277565b8015610b7b5780601f10610b5057610100808354040283529160200191610b7b565b820191906000526020600020905b815481529060010190602001808311610b5e57829003601f168201915b505050505081526020019060010190610ae3565b505050506000610d30565b606061065c82600354611b41565b606061065c826001611b41565b6060610bc160016111f9565b905090565b6001600160a01b03166000908152600d602052604090206001015490565b610bf081600354611c6c565b151560011415610c33576001610c076003546111f9565b51610c129190613230565b6004541115610c335760405162461bcd60e51b815260040161092790612fc1565b6105bf8160035461154f565b610c47612460565b61065c82600354611960565b6105bf81600161133f565b610c6c868686868686611e12565b610c77868686611417565b505050505050565b6060610bc16003546111f9565b33610c9681611625565b6001610ca18161166b565b33610cab816116e0565b6105f360006117a0565b33610cbf81611625565b6000610cca8161166b565b82600560035481548110610ce057610ce06132e3565b906000526020600020906004020160010180549050610cff828261131f565b600185610d0c828261131f565b6008879055610d1b60016117a0565b50505050505050565b6105bf816003546110ea565b600754610100900460ff1680610d49575060075460ff16155b610d655760405162461bcd60e51b815260040161092790612fe0565b600754610100900460ff16158015610d87576007805461ffff19166101011790555b848651610d94828261131f565b600187610da1828261131f565b86518814610dd95760405162461bcd60e51b8152602060048201526005602482015264454331382d60d81b6044820152606401610927565b600386905560005b88811015610e51576005805460010181556000528751600690899083908110610e0c57610e0c6132e3565b60209081029190910181015182546001810184556000938452928290208151610e3e94919091019291909101906124f5565b5080610e49816132b2565b915050610de1565b50600489905560005b8a51811015610f9857600073__AddressLibrary________________________63bc215e858d8481518110610e9157610e916132e3565b60200260200101516040518263ffffffff1660e01b8152600401610eb59190612e55565b60206040518083038186803b158015610ecd57600080fd5b505af4158015610ee1573d6000803e3d6000fd5b505050506040513d601f19601f82011682018060405250810190610f059190612b79565b90506001600560035481548110610f1e57610f1e6132e3565b60009182526020808320858452600492909202909101905260409020600101805460ff1916911515919091179055600354600580549091908110610f6457610f646132e3565b6000918252602080832060016004909302018201805492830181558352909120015580610f90816132b2565b915050610e5a565b50505050508015610c77576007805461ff0019169055505050505050565b60608060006001818054610fc990613277565b80601f0160208091040260200160405190810160405280929190818152602001828054610ff590613277565b80156110425780601f1061101757610100808354040283529160200191611042565b820191906000526020600020905b81548152906001019060200180831161102557829003601f168201915b5050505050915080805461105590613277565b80601f016020809104026020016040519081016040528092919081815260200182805461108190613277565b80156110ce5780601f106110a3576101008083540402835291602001916110ce565b820191906000526020600020905b8154815290600101906020018083116110b157829003601f168201915b50505050509050915091509091565b6105f38383836001611827565b60055460405163123bd07560e11b815282919073__Library_______________________________90632477a0ea906111299085908590600401612f85565b60006040518083038186803b15801561114157600080fd5b505af4158015611155573d6000803e3d6000fd5b505050503361116381611625565b600080611180876040518060200160405280600081525088611f38565b604051635cb09bcf60e01b8152919350915073__ItemsLibrary__________________________90635cb09bcf906111c0908590859030906004016130a6565b60006040518083038186803b1580156111d857600080fd5b505af41580156111ec573d6000803e3d6000fd5b5050505050505050505050565b60055460405163123bd07560e11b8152606091839173__Library_______________________________90632477a0ea9061123a9085908590600401612f85565b60006040518083038186803b15801561125257600080fd5b505af4158015611266573d6000803e3d6000fd5b5050505073__ItemsLibrary__________________________6327724f4b60058681548110611297576112976132e3565b90600052602060002090600402016040518263ffffffff1660e01b81526004016112c391815260200190565b60006040518083038186803b1580156112db57600080fd5b505af41580156112ef573d6000803e3d6000fd5b505050506040513d6000823e601f3d908101601f191682016040526113179190810190612aa8565b949350505050565b808211156106035760405162461bcd60e51b815260040161092790612fc1565b60055460405163123bd07560e11b815282919073__Library_______________________________90632477a0ea9061137e9085908590600401612f85565b60006040518083038186803b15801561139657600080fd5b505af41580156113aa573d6000803e3d6000fd5b50505050336113b881611625565b6000806113d5876040518060200160405280600081525088611f38565b60405163e23fcdef60e01b8152919350915073__ItemsLibrary__________________________9063e23fcdef906111c0908590859030906004016130a6565b565b8261142181612144565b151560011461145a5760405162461bcd60e51b8152602060048201526005602482015264454331322d60d81b6044820152606401610927565b826001600160a01b038084166000908152600d602090815260408083208884529091529020548491869116156114ba5760405162461bcd60e51b8152602060048201526005602482015264454331352d60d81b6044820152606401610927565b6001600160a01b038086166000818152600d602081815260408084208c85528083528185208054978f166001600160a01b0319909816881790559282526001928301805493840181558452922001899055519091907ff55a90628981610edc26894247bee72e1963d1c9faa4ea6533fd3df39fd36ed49061153e908a815260200190565b60405180910390a350505050505050565b60055460405163123bd07560e11b815282919073__Library_______________________________90632477a0ea9061158e9085908590600401612f85565b60006040518083038186803b1580156115a657600080fd5b505af41580156115ba573d6000803e3d6000fd5b50505050336115c881611625565b6000806115e5876040518060200160405280600081525088611f38565b604051637493a70b60e01b8152919350915073__ItemsLibrary__________________________90637493a70b906111c0908590859030906004016130a6565b6116318160035461214d565b15156001146105bf5760405162461bcd60e51b8152600401610927906020808252600490820152634543392d60e01b604082015260600190565b80156116a8576008546105bf5760405162461bcd60e51b8152602060048201526005602482015264454333312d60d81b6044820152606401610927565b600854156105bf5760405162461bcd60e51b8152602060048201526005602482015264454333302d60d81b6044820152606401610927565b60405163f7cf62d760e01b815273__AddressLibrary________________________9063f7cf62d79061171a908490600b90600401612e69565b60206040518083038186803b15801561173257600080fd5b505af4158015611746573d6000803e3d6000fd5b505050506040513d601f19601f8201168201806040525081019061176a9190612b5c565b156105bf5760405162461bcd60e51b8152600401610927906020808252600490820152634543352d60e01b604082015260600190565b80156117c4576001600960008282546117b99190613218565b909155506117dd9050565b6001600a60008282546117d79190613218565b90915550505b600b80546001810182556000919091527f0175b7a638427703f0dbe7bb9bbf987a2551717b34e79f33b5b1008d1fa01db90180546001600160a01b031916331790556105bf612278565b60055460405163123bd07560e11b815282919073__Library_______________________________90632477a0ea906118669085908590600401612f85565b60006040518083038186803b15801561187e57600080fd5b505af4158015611892573d6000803e3d6000fd5b50505050336118a081611625565b6000806118e58989898080601f0160208091040260200160405190810160405280939291908181526020018383808284376000920191909152508b9250611f38915050565b6040516305cc2d5560e11b8152919350915073__ItemsLibrary__________________________90630b985aaa90611925908590859030906004016130a6565b60006040518083038186803b15801561193d57600080fd5b505af4158015611951573d6000803e3d6000fd5b50505050505050505050505050565b611968612460565b60055460405163123bd07560e11b815283919073__Library_______________________________90632477a0ea906119a79085908590600401612f85565b60006040518083038186803b1580156119bf57600080fd5b505af41580156119d3573d6000803e3d6000fd5b505060405163bc215e8560e01b81526000925073__AddressLibrary________________________915063bc215e8590611a11908990600401612e55565b60206040518083038186803b158015611a2957600080fd5b505af4158015611a3d573d6000803e3d6000fd5b505050506040513d601f19601f82011682018060405250810190611a619190612b79565b905073__ItemsLibrary__________________________631aeccc6a8260058881548110611a9157611a916132e3565b90600052602060002090600402016040518363ffffffff1660e01b8152600401611abc929190612f85565b60006040518083038186803b158015611ad457600080fd5b505af4158015611ae8573d6000803e3d6000fd5b505050506040513d6000823e601f3d908101601f19168201604052611b109190810190612c53565b9695505050505050565b8151611b2d9060009060208501906124f5565b5080516105f39060019060208401906124f5565b60055460405163123bd07560e11b8152606091839173__Library_______________________________90632477a0ea90611b829085908590600401612f85565b60006040518083038186803b158015611b9a57600080fd5b505af4158015611bae573d6000803e3d6000fd5b50505050606073__ItemsLibrary__________________________63e035e0068760058881548110611be257611be26132e3565b90600052602060002090600402016040518363ffffffff1660e01b8152600401611c189291909115158252602082015260400190565b60006040518083038186803b158015611c3057600080fd5b505af4158015611c44573d6000803e3d6000fd5b505050506040513d6000823e601f3d908101601f19168201604052611b109190810190612aa8565b60055460405163123bd07560e11b8152600091839173__Library_______________________________90632477a0ea90611cad9085908590600401612f85565b60006040518083038186803b158015611cc557600080fd5b505af4158015611cd9573d6000803e3d6000fd5b505060405163bc215e8560e01b81526000925073__AddressLibrary________________________915063bc215e8590611d17908990600401612e55565b60206040518083038186803b158015611d2f57600080fd5b505af4158015611d43573d6000803e3d6000fd5b505050506040513d601f19601f82011682018060405250810190611d679190612b79565b905073__ItemsLibrary__________________________632854ed2e8260058881548110611d9757611d976132e3565b90600052602060002090600402016040518363ffffffff1660e01b8152600401611dc2929190612f85565b60206040518083038186803b158015611dda57600080fd5b505af4158015611dee573d6000803e3d6000fd5b505050506040513d601f19601f82011682018060405250810190611b109190612b5c565b81611e1c816123b0565b8684611e2882826123e7565b60405163c1bc5c3f60e01b815273__SignatureLibrary______________________9063c1bc5c3f90611e6f908c908c908c908c908c908c90600090600190600401612ec8565b60206040518083038186803b158015611e8757600080fd5b505af4158015611e9b573d6000803e3d6000fd5b505050506040513d601f19601f82011682018060405250810190611ebf9190612b5c565b1515600114611ef85760405162461bcd60e51b8152602060048201526005602482015264454333322d60d81b6044820152606401610927565b611f2d89876001600160a01b03909116600090815260026020908152604080832093835292905220805460ff19166001179055565b505050505050505050565b611f6d6040518060a0016040528060008019168152602001606081526020016000815260200160608152602001606081525090565b60008073__AddressLibrary________________________63bc215e85876040518263ffffffff1660e01b8152600401611fa79190612e55565b60206040518083038186803b158015611fbf57600080fd5b505af4158015611fd3573d6000803e3d6000fd5b505050506040513d601f19601f82011682018060405250810190611ff79190612b79565b60408051600180825281830190925291925060009190602080830190803683370190505090508481600081518110612031576120316132e3565b60200260200101818152505060006040518060a00160405280848152602001888152602001600454815260200160068881548110612071576120716132e3565b90600052602060002001805461208690613277565b80601f01602080910402602001604051908101604052809291908181526020018280546120b290613277565b80156120ff5780601f106120d4576101008083540402835291602001916120ff565b820191906000526020600020905b8154815290600101906020018083116120e257829003601f168201915b50505050508152602001838152509050600060058781548110612124576121246132e3565b600091825260209091209296506004029091019350505050935093915050565b600061065c8260015b60055460405163123bd07560e11b8152600091839173__Library_______________________________90632477a0ea9061218e9085908590600401612f85565b60006040518083038186803b1580156121a657600080fd5b505af41580156121ba573d6000803e3d6000fd5b505060405163bc215e8560e01b81526000925073__AddressLibrary________________________915063bc215e85906121f8908990600401612e55565b60206040518083038186803b15801561221057600080fd5b505af4158015612224573d6000803e3d6000fd5b505050506040513d601f19601f820116820180604052508101906122489190612b79565b905073__ItemsLibrary__________________________63dbdfbeec8260058881548110611d9757611d976132e3565b6009546004805460405163f6001d7d60e01b815273__ItemsLibrary__________________________9363f6001d7d936122b493919201612f85565b60206040518083038186803b1580156122cc57600080fd5b505af41580156122e0573d6000803e3d6000fd5b505050506040513d601f19601f820116820180604052508101906123049190612b5c565b1561231757600854600455611415612443565b600a546004805460405163f6001d7d60e01b815273__ItemsLibrary__________________________9363f6001d7d9361235393919201612f85565b60206040518083038186803b15801561236b57600080fd5b505af415801561237f573d6000803e3d6000fd5b505050506040513d601f19601f820116820180604052508101906123a39190612b5c565b1561141557611415612443565b8042106105bf5760405162461bcd60e51b8152602060048201526005602482015264454333332d60d81b6044820152606401610927565b6001600160a01b038216600090815260026020908152604080832084845290915290205460ff16156106035760405162461bcd60e51b8152602060048201526005602482015264454333342d60d81b6044820152606401610927565b600060088190556009819055600a81905561141590600b90612575565b6040518060c0016040528060608152602001600015158152602001600081526020016000815260200160608152602001606081525090565b8280548282559060005260206000209081019282156124e5579160200282015b828111156124e557825180516124d59184916020909101906124f5565b50916020019190600101906124b8565b506124f1929150612593565b5090565b82805461250190613277565b90600052602060002090601f0160209004810192826125235760008555612569565b82601f1061253c57805160ff1916838001178555612569565b82800160010185558215612569579182015b8281111561256957825182559160200191906001019061254e565b506124f19291506125b0565b50805460008255906000526020600020908101906105bf91906125b0565b808211156124f15760006125a782826125c5565b50600101612593565b5b808211156124f157600081556001016125b1565b5080546125d190613277565b6000825580601f106125e1575050565b601f0160209004906000526020600020908101906105bf91906125b0565b600061261261260d846131f1565b61319e565b905082815283838301111561262657600080fd5b828260208301376000602084830101529392505050565b600082601f83011261264e57600080fd5b8135602061265e61260d836131ce565b80838252828201915082860187848660051b890101111561267e57600080fd5b60005b858110156126a65781356126948161330f565b84529284019290840190600101612681565b5090979650505050505050565b600082601f8301126126c457600080fd5b815160206126d461260d836131ce565b80838252828201915082860187848660051b89010111156126f457600080fd5b60005b858110156126a657815161270a8161330f565b845292840192908401906001016126f7565b805161272781613324565b919050565b600082601f83011261273d57600080fd5b6108eb838335602085016125ff565b600082601f83011261275d57600080fd5b815161276b61260d826131f1565b81815284602083860101111561278057600080fd5b611317826020830160208701613247565b6000602082840312156127a357600080fd5b81356108eb8161330f565b60008060008060008060c087890312156127c757600080fd5b86356127d28161330f565b95506020870135945060408701356127e98161330f565b9350606087013592506080870135915060a08701356001600160401b0381111561281257600080fd5b8701601f8101891361282357600080fd5b612832898235602084016125ff565b9150509295509295509295565b60008060006040848603121561285457600080fd5b833561285f8161330f565b925060208401356001600160401b038082111561287b57600080fd5b818601915086601f83011261288f57600080fd5b81358181111561289e57600080fd5b8760208285010111156128b057600080fd5b6020830194508093505050509250925092565b600080604083850312156128d657600080fd5b82356128e18161330f565b946020939093013593505050565b60008060006060848603121561290457600080fd5b833561290f8161330f565b95602085013595506040909401359392505050565b6000806000806080858703121561293a57600080fd5b84356001600160401b038082111561295157600080fd5b61295d8883890161263d565b955060208701359450604087013591508082111561297a57600080fd5b6129868883890161272c565b9350606087013591508082111561299c57600080fd5b506129a98782880161272c565b91505092959194509250565b600080600080600060a086880312156129cd57600080fd5b6001600160401b0386358110156129e357600080fd5b6129f0888835890161263d565b9550602080880135955060408801359450606088013582811115612a1357600080fd5b8801601f81018a13612a2457600080fd5b8035612a3261260d826131ce565b8082825284820191508484018d868560051b8701011115612a5257600080fd5b60005b84811015612a8c578782351115612a6b57600080fd5b612a7a8f88843589010161272c565b84529286019290860190600101612a55565b5050809750505050505050608086013590509295509295909350565b60006020808385031215612abb57600080fd5b82516001600160401b03811115612ad157600080fd5b8301601f81018513612ae257600080fd5b8051612af061260d826131ce565b80828252848201915084840188868560051b8701011115612b1057600080fd5b600094505b83851015612b33578051835260019490940193918501918501612b15565b50979650505050505050565b600060208284031215612b5157600080fd5b81356108eb81613324565b600060208284031215612b6e57600080fd5b81516108eb81613324565b600060208284031215612b8b57600080fd5b5051919050565b60008060408385031215612ba557600080fd5b823591506020830135612bb78161330f565b809150509250929050565b60008060008060608587031215612bd857600080fd5b8435935060208501356001600160401b0380821115612bf657600080fd5b818701915087601f830112612c0a57600080fd5b813581811115612c1957600080fd5b8860208260051b8501011115612c2e57600080fd5b6020830195508094505050506040850135612c4881613324565b939692955090935050565b600060208284031215612c6557600080fd5b81516001600160401b0380821115612c7c57600080fd5b9083019060c08286031215612c9057600080fd5b612c98613176565b825182811115612ca757600080fd5b612cb38782860161274c565b825250612cc26020840161271c565b60208201526040830151604082015260608301516060820152608083015182811115612ced57600080fd5b612cf9878286016126b3565b60808301525060a083015182811115612d1157600080fd5b612d1d878286016126b3565b60a08301525095945050505050565b600060208284031215612d3e57600080fd5b5035919050565b600081518084526020808501945080840160005b83811015612d7e5781516001600160a01b031687529582019590820190600101612d59565b509495945050505050565b60008151808452612da1816020860160208601613247565b601f01601f19169290920160200192915050565b8054600090600181811c9080831680612dcf57607f831692505b6020808410821415612df157634e487b7160e01b600052602260045260246000fd5b83885260208801828015612e0c5760018114612e1d57612e48565b60ff19871682528282019750612e48565b60008981526020902060005b87811015612e4257815484820152908601908401612e29565b83019850505b5050505050505092915050565b6001600160a01b0391909116815260200190565b60006040820160018060a01b03808616845260206040818601528286548085526060870191508760005282600020945060005b81811015612eba578554851683526001958601959284019201612e9c565b509098975050505050505050565b6001600160a01b0389811682526020820189905287166040820152606081018690526080810185905261010060a08201819052600090612f0a83820187612d89565b905082810360c0840152612f1e8186612db5565b905082810360e0840152612f328185612db5565b9b9a5050505050505050505050565b6020808252825182820181905260009190848201906040850190845b81811015612f7957835183529284019291840191600101612f5d565b50909695505050505050565b918252602082015260400190565b604081526000612fa66040830185612d89565b8281036020840152612fb88185612d89565b95945050505050565b602080825260059082015264454331392d60d81b604082015260600190565b6020808252602e908201527f496e697469616c697a61626c653a20636f6e747261637420697320616c72656160408201526d191e481a5b9a5d1a585b1a5e995960921b606082015260800190565b602081526000825160c0602084015261304a60e0840182612d89565b905060208401511515604084015260408401516060840152606084015160808401526080840151601f19808584030160a08601526130888383612d45565b925060a08601519150808584030160c086015250612fb88282612d45565b6060815283516060820152600060208086015160a060808501526130ce610100850182612d89565b9050604087015160a08501526060870151605f19808684030160c08701526130f68383612d89565b60808a015187820390920160e088015281518082529185019350600092508401905b808310156131385783518252928401926001929092019190840190613118565b5092850187905250506001600160a01b03841660408401529050611317565b838152826020820152606060408201526000612fb86060830184612d45565b60405160c081016001600160401b0381118282101715613198576131986132f9565b60405290565b604051601f8201601f191681016001600160401b03811182821017156131c6576131c66132f9565b604052919050565b60006001600160401b038211156131e7576131e76132f9565b5060051b60200190565b60006001600160401b0382111561320a5761320a6132f9565b50601f01601f191660200190565b6000821982111561322b5761322b6132cd565b500190565b600082821015613242576132426132cd565b500390565b60005b8381101561326257818101518382015260200161324a565b83811115613271576000848401525b50505050565b600181811c9082168061328b57607f821691505b602082108114156132ac57634e487b7160e01b600052602260045260246000fd5b50919050565b60006000198214156132c6576132c66132cd565b5060010190565b634e487b7160e01b600052601160045260246000fd5b634e487b7160e01b600052603260045260246000fd5b634e487b7160e01b600052604160045260246000fd5b6001600160a01b03811681146105bf57600080fd5b80151581146105bf57600080fdfea264697066735822122085a9d3133e1ca0bc8b514893c4d0f62fccf9b32e939acd591c5b90be9f42ab2f64736f6c63430008070033",
  "immutableReferences": {},
  "source": "// SPDX-License-Identifier: GPL-3.0\r\n\r\npragma solidity 0.8.7;\r\n\r\n/*\r\n  Private Certificate Pools offer the default MultiSig Certificate Pool functionality\r\n */\r\n\r\n import \"../Abstract/MultiSigCertificatesPool.sol\";\r\n\r\n contract PrivateCertificatesPool is MultiSigCertificatesPool {\r\n\r\n    // CONSTRUCTOR & INIT /////////////////////////////////////////\r\n    function PrivateCertPool_init(address[] memory owners,  uint256 minOwners, string memory contractName, string memory contractVersion) public initializer \r\n    {\r\n      super.MultiSigCertPool_init(owners, minOwners, contractName, contractVersion);\r\n    }\r\n\r\n  }",
  "sourcePath": "C:/Users/d-aam/GitHub/Certificates/contracts/DeployedContracts/PrivateCertificatesPool.sol",
  "compiler": {
    "name": "solc",
    "version": "0.8.7+commit.e28d00a7.Emscripten.clang"
  },
  "schemaVersion": "3.3.4",
  "updatedAt": "2021-10-19T11:48:14.265Z",
  "networkType": "ethereum",
  "devdoc": {
    "kind": "dev",
    "methods": {},
    "version": 1
  },
  "userdoc": {
    "kind": "user",
    "methods": {},
    "version": 1
  }
}