{
  "contractName": "PrivateCertificatesPool",
  "abi": [
    {
      "anonymous": false,
      "inputs": [
        {
          "indexed": true,
          "internalType": "address",
          "name": "Provider",
          "type": "address"
        },
        {
          "indexed": true,
          "internalType": "address",
          "name": "Holder",
          "type": "address"
        },
        {
          "indexed": false,
          "internalType": "bytes32",
          "name": "Certificate",
          "type": "bytes32"
        }
      ],
      "name": "_AddCertificate",
      "type": "event"
    },
    {
      "anonymous": false,
      "inputs": [
        {
          "indexed": false,
          "internalType": "string",
          "name": "ItemType",
          "type": "string"
        },
        {
          "indexed": true,
          "internalType": "bytes32",
          "name": "Item",
          "type": "bytes32"
        },
        {
          "indexed": false,
          "internalType": "string",
          "name": "Info",
          "type": "string"
        }
      ],
      "name": "_AddItemRejection",
      "type": "event"
    },
    {
      "anonymous": false,
      "inputs": [
        {
          "indexed": false,
          "internalType": "string",
          "name": "ItemType",
          "type": "string"
        },
        {
          "indexed": true,
          "internalType": "bytes32",
          "name": "Item",
          "type": "bytes32"
        },
        {
          "indexed": false,
          "internalType": "string",
          "name": "Info",
          "type": "string"
        }
      ],
      "name": "_AddItemValidation",
      "type": "event"
    },
    {
      "anonymous": false,
      "inputs": [
        {
          "indexed": false,
          "internalType": "string",
          "name": "ENSName",
          "type": "string"
        },
        {
          "indexed": false,
          "internalType": "bytes32",
          "name": "node",
          "type": "bytes32"
        },
        {
          "indexed": false,
          "internalType": "address",
          "name": "addr",
          "type": "address"
        }
      ],
      "name": "_NewReverseENSCreated",
      "type": "event"
    },
    {
      "anonymous": false,
      "inputs": [
        {
          "indexed": false,
          "internalType": "string",
          "name": "ItemType",
          "type": "string"
        },
        {
          "indexed": true,
          "internalType": "bytes32",
          "name": "Item",
          "type": "bytes32"
        },
        {
          "indexed": false,
          "internalType": "string",
          "name": "Info",
          "type": "string"
        }
      ],
      "name": "_RemoveItemRejection",
      "type": "event"
    },
    {
      "anonymous": false,
      "inputs": [
        {
          "indexed": false,
          "internalType": "string",
          "name": "ItemType",
          "type": "string"
        },
        {
          "indexed": true,
          "internalType": "bytes32",
          "name": "Item",
          "type": "bytes32"
        },
        {
          "indexed": false,
          "internalType": "string",
          "name": "Info",
          "type": "string"
        }
      ],
      "name": "_RemoveItemValidation",
      "type": "event"
    },
    {
      "inputs": [
        {
          "internalType": "address[]",
          "name": "owners",
          "type": "address[]"
        },
        {
          "internalType": "uint256",
          "name": "minOwners",
          "type": "uint256"
        },
        {
          "internalType": "string",
          "name": "contractName",
          "type": "string"
        },
        {
          "internalType": "string",
          "name": "contractVersion",
          "type": "string"
        }
      ],
      "name": "MultiSigCertPool_init",
      "outputs": [],
      "stateMutability": "nonpayable",
      "type": "function"
    },
    {
      "inputs": [
        {
          "internalType": "address[]",
          "name": "owners",
          "type": "address[]"
        },
        {
          "internalType": "uint256",
          "name": "minOwners",
          "type": "uint256"
        },
        {
          "internalType": "uint256",
          "name": "TotalEntities",
          "type": "uint256"
        },
        {
          "internalType": "string[]",
          "name": "labels",
          "type": "string[]"
        },
        {
          "internalType": "uint256",
          "name": "ownerId",
          "type": "uint256"
        }
      ],
      "name": "MultiSigContract_init",
      "outputs": [],
      "stateMutability": "nonpayable",
      "type": "function"
    },
    {
      "inputs": [
        {
          "internalType": "bytes32",
          "name": "CertificateHash",
          "type": "bytes32"
        },
        {
          "internalType": "address",
          "name": "holder",
          "type": "address"
        }
      ],
      "name": "addCertificate",
      "outputs": [],
      "stateMutability": "payable",
      "type": "function",
      "payable": true
    },
    {
      "inputs": [
        {
          "internalType": "address",
          "name": "provider",
          "type": "address"
        },
        {
          "internalType": "bytes32",
          "name": "CertificateHash",
          "type": "bytes32"
        },
        {
          "internalType": "address",
          "name": "holder",
          "type": "address"
        },
        {
          "internalType": "uint256",
          "name": "nonce",
          "type": "uint256"
        },
        {
          "internalType": "uint256",
          "name": "deadline",
          "type": "uint256"
        },
        {
          "internalType": "bytes",
          "name": "signature",
          "type": "bytes"
        }
      ],
      "name": "addCertificateOnBehalfOf",
      "outputs": [],
      "stateMutability": "payable",
      "type": "function",
      "payable": true
    },
    {
      "inputs": [
        {
          "internalType": "address",
          "name": "owner",
          "type": "address"
        },
        {
          "internalType": "string",
          "name": "ownerInfo",
          "type": "string"
        }
      ],
      "name": "addOwner",
      "outputs": [],
      "stateMutability": "nonpayable",
      "type": "function"
    },
    {
      "inputs": [
        {
          "internalType": "address",
          "name": "provider",
          "type": "address"
        },
        {
          "internalType": "string",
          "name": "providerInfo",
          "type": "string"
        }
      ],
      "name": "addProvider",
      "outputs": [],
      "stateMutability": "payable",
      "type": "function",
      "payable": true
    },
    {
      "inputs": [
        {
          "internalType": "uint256",
          "name": "newMinOwners",
          "type": "uint256"
        }
      ],
      "name": "changeMinOwners",
      "outputs": [],
      "stateMutability": "nonpayable",
      "type": "function"
    },
    {
      "inputs": [
        {
          "internalType": "bytes32",
          "name": "item",
          "type": "bytes32"
        },
        {
          "internalType": "uint256[]",
          "name": "ids",
          "type": "uint256[]"
        },
        {
          "internalType": "bool",
          "name": "addOrRemove",
          "type": "bool"
        }
      ],
      "name": "onItemRejected",
      "outputs": [],
      "stateMutability": "nonpayable",
      "type": "function"
    },
    {
      "inputs": [
        {
          "internalType": "bytes32",
          "name": "item",
          "type": "bytes32"
        },
        {
          "internalType": "uint256[]",
          "name": "ids",
          "type": "uint256[]"
        },
        {
          "internalType": "bool",
          "name": "addOrRemove",
          "type": "bool"
        }
      ],
      "name": "onItemValidated",
      "outputs": [],
      "stateMutability": "nonpayable",
      "type": "function"
    },
    {
      "inputs": [],
      "name": "rejectMinOwners",
      "outputs": [],
      "stateMutability": "nonpayable",
      "type": "function"
    },
    {
      "inputs": [
        {
          "internalType": "address",
          "name": "owner",
          "type": "address"
        }
      ],
      "name": "rejectOwner",
      "outputs": [],
      "stateMutability": "nonpayable",
      "type": "function"
    },
    {
      "inputs": [
        {
          "internalType": "address",
          "name": "provider",
          "type": "address"
        }
      ],
      "name": "rejectProvider",
      "outputs": [],
      "stateMutability": "nonpayable",
      "type": "function"
    },
    {
      "inputs": [
        {
          "internalType": "address",
          "name": "owner",
          "type": "address"
        }
      ],
      "name": "removeOwner",
      "outputs": [],
      "stateMutability": "nonpayable",
      "type": "function"
    },
    {
      "inputs": [
        {
          "internalType": "address",
          "name": "provider",
          "type": "address"
        }
      ],
      "name": "removeProvider",
      "outputs": [],
      "stateMutability": "nonpayable",
      "type": "function"
    },
    {
      "inputs": [],
      "name": "retrieveAddCertificatePriceWei",
      "outputs": [
        {
          "internalType": "uint256",
          "name": "",
          "type": "uint256"
        }
      ],
      "stateMutability": "view",
      "type": "function",
      "constant": true
    },
    {
      "inputs": [],
      "name": "retrieveAllOwners",
      "outputs": [
        {
          "internalType": "bytes32[]",
          "name": "",
          "type": "bytes32[]"
        }
      ],
      "stateMutability": "view",
      "type": "function",
      "constant": true
    },
    {
      "inputs": [],
      "name": "retrieveAllProviders",
      "outputs": [
        {
          "internalType": "bytes32[]",
          "name": "",
          "type": "bytes32[]"
        }
      ],
      "stateMutability": "view",
      "type": "function",
      "constant": true
    },
    {
      "inputs": [
        {
          "internalType": "bytes32",
          "name": "CertificateHash",
          "type": "bytes32"
        },
        {
          "internalType": "address",
          "name": "holder",
          "type": "address"
        }
      ],
      "name": "retrieveCertificateProvider",
      "outputs": [
        {
          "internalType": "address",
          "name": "",
          "type": "address"
        }
      ],
      "stateMutability": "view",
      "type": "function",
      "constant": true
    },
    {
      "inputs": [
        {
          "internalType": "address",
          "name": "holder",
          "type": "address"
        },
        {
          "internalType": "uint256",
          "name": "skipFirst",
          "type": "uint256"
        },
        {
          "internalType": "uint256",
          "name": "max",
          "type": "uint256"
        }
      ],
      "name": "retrieveCertificatesByHolder",
      "outputs": [
        {
          "internalType": "bytes32[]",
          "name": "",
          "type": "bytes32[]"
        }
      ],
      "stateMutability": "view",
      "type": "function",
      "constant": true
    },
    {
      "inputs": [],
      "name": "retrieveContractConfig",
      "outputs": [
        {
          "internalType": "string",
          "name": "",
          "type": "string"
        },
        {
          "internalType": "string",
          "name": "",
          "type": "string"
        }
      ],
      "stateMutability": "view",
      "type": "function",
      "constant": true
    },
    {
      "inputs": [],
      "name": "retrieveMinOwners",
      "outputs": [
        {
          "internalType": "uint256",
          "name": "",
          "type": "uint256"
        }
      ],
      "stateMutability": "view",
      "type": "function",
      "constant": true
    },
    {
      "inputs": [
        {
          "internalType": "address",
          "name": "addr",
          "type": "address"
        },
        {
          "internalType": "uint256",
          "name": "nonce",
          "type": "uint256"
        }
      ],
      "name": "retrieveNonce",
      "outputs": [
        {
          "internalType": "bool",
          "name": "",
          "type": "bool"
        }
      ],
      "stateMutability": "view",
      "type": "function",
      "constant": true
    },
    {
      "inputs": [
        {
          "internalType": "address",
          "name": "owner",
          "type": "address"
        }
      ],
      "name": "retrieveOwner",
      "outputs": [
        {
          "components": [
            {
              "internalType": "string",
              "name": "_Info",
              "type": "string"
            },
            {
              "internalType": "bool",
              "name": "_activated",
              "type": "bool"
            },
            {
              "internalType": "uint256",
              "name": "_id",
              "type": "uint256"
            },
            {
              "internalType": "uint256",
              "name": "_pendingId",
              "type": "uint256"
            },
            {
              "internalType": "address[]",
              "name": "_Validations",
              "type": "address[]"
            },
            {
              "internalType": "address[]",
              "name": "_Rejections",
              "type": "address[]"
            }
          ],
          "internalType": "struct ItemsLibrary._itemIdentity",
          "name": "",
          "type": "tuple"
        }
      ],
      "stateMutability": "view",
      "type": "function",
      "constant": true
    },
    {
      "inputs": [],
      "name": "retrievePendingMinOwners",
      "outputs": [
        {
          "internalType": "uint256",
          "name": "",
          "type": "uint256"
        }
      ],
      "stateMutability": "view",
      "type": "function",
      "constant": true
    },
    {
      "inputs": [],
      "name": "retrievePendingMinOwnersStatus",
      "outputs": [
        {
          "internalType": "uint256",
          "name": "",
          "type": "uint256"
        },
        {
          "internalType": "uint256",
          "name": "",
          "type": "uint256"
        },
        {
          "internalType": "address[]",
          "name": "",
          "type": "address[]"
        }
      ],
      "stateMutability": "view",
      "type": "function",
      "constant": true
    },
    {
      "inputs": [
        {
          "internalType": "bool",
          "name": "addedORremove",
          "type": "bool"
        }
      ],
      "name": "retrievePendingOwners",
      "outputs": [
        {
          "internalType": "bytes32[]",
          "name": "",
          "type": "bytes32[]"
        }
      ],
      "stateMutability": "view",
      "type": "function",
      "constant": true
    },
    {
      "inputs": [
        {
          "internalType": "bool",
          "name": "addedORremove",
          "type": "bool"
        }
      ],
      "name": "retrievePendingProviders",
      "outputs": [
        {
          "internalType": "bytes32[]",
          "name": "",
          "type": "bytes32[]"
        }
      ],
      "stateMutability": "view",
      "type": "function",
      "constant": true
    },
    {
      "inputs": [
        {
          "internalType": "address",
          "name": "provider",
          "type": "address"
        }
      ],
      "name": "retrieveProvider",
      "outputs": [
        {
          "components": [
            {
              "internalType": "string",
              "name": "_Info",
              "type": "string"
            },
            {
              "internalType": "bool",
              "name": "_activated",
              "type": "bool"
            },
            {
              "internalType": "uint256",
              "name": "_id",
              "type": "uint256"
            },
            {
              "internalType": "uint256",
              "name": "_pendingId",
              "type": "uint256"
            },
            {
              "internalType": "address[]",
              "name": "_Validations",
              "type": "address[]"
            },
            {
              "internalType": "address[]",
              "name": "_Rejections",
              "type": "address[]"
            }
          ],
          "internalType": "struct ItemsLibrary._itemIdentity",
          "name": "",
          "type": "tuple"
        }
      ],
      "stateMutability": "view",
      "type": "function",
      "constant": true
    },
    {
      "inputs": [],
      "name": "retrieveSubscriptionPriceWei",
      "outputs": [
        {
          "internalType": "uint256",
          "name": "",
          "type": "uint256"
        }
      ],
      "stateMutability": "view",
      "type": "function",
      "constant": true
    },
    {
      "inputs": [
        {
          "internalType": "address",
          "name": "holder",
          "type": "address"
        }
      ],
      "name": "retrieveTotalCertificatesByHolder",
      "outputs": [
        {
          "internalType": "uint256",
          "name": "",
          "type": "uint256"
        }
      ],
      "stateMutability": "view",
      "type": "function",
      "constant": true
    },
    {
      "inputs": [],
      "name": "validateMinOwners",
      "outputs": [],
      "stateMutability": "nonpayable",
      "type": "function"
    },
    {
      "inputs": [
        {
          "internalType": "address",
          "name": "owner",
          "type": "address"
        }
      ],
      "name": "validateOwner",
      "outputs": [],
      "stateMutability": "nonpayable",
      "type": "function"
    },
    {
      "inputs": [
        {
          "internalType": "address",
          "name": "provider",
          "type": "address"
        }
      ],
      "name": "validateProvider",
      "outputs": [],
      "stateMutability": "nonpayable",
      "type": "function"
    },
    {
      "inputs": [
        {
          "internalType": "address[]",
          "name": "owners",
          "type": "address[]"
        },
        {
          "internalType": "uint256",
          "name": "minOwners",
          "type": "uint256"
        },
        {
          "internalType": "string",
          "name": "contractName",
          "type": "string"
        },
        {
          "internalType": "string",
          "name": "contractVersion",
          "type": "string"
        },
        {
          "internalType": "string",
          "name": "ENSName",
          "type": "string"
        },
        {
          "internalType": "address",
          "name": "ReverseRegistryAddress",
          "type": "address"
        }
      ],
      "name": "PrivateCertPool_init",
      "outputs": [],
      "stateMutability": "nonpayable",
      "type": "function"
    }
  ],
  "bytecode": "0x608060405234801561001057600080fd5b50613568806100206000396000f3fe6080604052600436106101885760003560e01c8062070d191461018d5780630b4c72a9146101af578063173825d9146101cf5780631ab807f8146101ef57806327a40b4b146102025780632edbe7fc1461022257806330ade922146102465780633542758f1461025b578063375834991461027b5780633fd07181146102a85780633feca4ca146102c85780634774779d1461031e57806357e7ea2e1461031e5780635888ebb31461033257806358a1ba251461035657806365b973e5146103835780636825b263146103985780636b299604146103b85780636b3a0fec146103d85780636e4f9179146103f85780636e55d2d41461040d57806376f8f90f1461042d57806377bc5a1f1461044d5780637c8c2add146102a85780638a355a571461046d5780638b9be2561461048d578063a93d5ed6146104a0578063c3079ae7146104b5578063c66433ea146104ca578063ce33d58a146104ea578063cf2041d91461050a578063d0a4adfe1461052a578063d2116a021461057d578063fc000500146105a0575b600080fd5b34801561019957600080fd5b506101ad6101a8366004612aa8565b6105b3565b005b3480156101bb57600080fd5b506101ad6101ca366004612884565b61064b565b3480156101db57600080fd5b506101ad6101ea366004612884565b610659565b6101ad6101fd366004612d4c565b61068f565b34801561020e57600080fd5b506101ad61021d366004612884565b61069e565b34801561022e57600080fd5b506008545b6040519081526020015b60405180910390f35b34801561025257600080fd5b506101ad6106a9565b34801561026757600080fd5b506101ad610276366004612932565b6106d2565b34801561028757600080fd5b5061029b610296366004612884565b6106e0565b60405161023d919061322e565b3480156102b457600080fd5b506101ad6102c3366004612d7c565b6106f9565b3480156102d457600080fd5b5061030e6102e33660046129b6565b6001600160a01b03919091166000908152600260209081526040808320938352929052205460ff1690565b604051901515815260200161023d565b34801561032a57600080fd5b506000610233565b34801561033e57600080fd5b5061034761076f565b60405161023d93929190613357565b34801561036257600080fd5b506103766103713660046129e2565b6107e3565b60405161023d91906130fb565b34801561038f57600080fd5b50600454610233565b3480156103a457600080fd5b506101ad6103b3366004612a17565b610989565b3480156103c457600080fd5b506103766103d3366004612cf9565b610bc5565b3480156103e457600080fd5b506103766103f3366004612cf9565b610bd3565b34801561040457600080fd5b50610376610be0565b34801561041957600080fd5b50610233610428366004612884565b610bf1565b34801561043957600080fd5b506101ad610448366004612884565b610c0f565b34801561045957600080fd5b5061029b610468366004612884565b610c6a565b34801561047957600080fd5b506101ad610488366004612884565b610c7e565b6101ad61049b3660046128a1565b610c89565b3480156104ac57600080fd5b50610376610caa565b3480156104c157600080fd5b506101ad610cb7565b3480156104d657600080fd5b506101ad6104e5366004612ee6565b610ce0565b3480156104f657600080fd5b506101ad610505366004612884565b610d46565b34801561051657600080fd5b506101ad610525366004612b6d565b610d52565b34801561053657600080fd5b50610570610545366004612d4c565b6001600160a01b039081166000908152600d6020908152604080832094835293905291909120541690565b60405161023d919061300f565b34801561058957600080fd5b50610592610fd8565b60405161023d929190613193565b6101ad6105ae366004612932565b6110ff565b600754610100900460ff16806105cc575060075460ff16155b6105f15760405162461bcd60e51b81526004016105e8906131e0565b60405180910390fd5b600754610100900460ff16158015610613576007805461ffff19166101011790555b61061f87878787610989565b82511561063057610630838361110c565b8015610642576007805461ff00191690555b50505050505050565b6106568160016111d2565b50565b60045460016106696003546112e1565b516106749190613430565b61067e8282611407565b61068a83600354611427565b505050565b61069a3383836114ff565b5050565b610656816001611637565b336106b38161170d565b60016106be81611753565b336106c8816117c8565b61068a6001611888565b61068a83838360035461190f565b6106e8612548565b6106f3826001611a48565b92915050565b6040516337ea306360e01b815233600482018190523060248301819052909173__Library_______________________________906337ea30639060440160006040518083038186803b15801561074f57600080fd5b505af4158015610763573d6000803e3d6000fd5b50505050505050505050565b6000806060600954600a54600b808054806020026020016040519081016040528092919081815260200182805480156107d157602002820191906000526020600020905b81546001600160a01b031681526001909101906020018083116107b3575b50505050509050925092509250909192565b6060826107ef85610bf1565b116108095750604080516000815260208101909152610982565b81808461081587610bf1565b61081f9190613430565b101561083c578361082f86610bf1565b6108399190613430565b90505b6000816001600160401b03811115610856576108566134f9565b60405190808252806020026020018201604052801561087f578160200160208202803683370190505b506001600160a01b0387166000908152600d60209081526040808320600101805482518185028101850190935280835294955092939092918301828280156108e657602002820191906000526020600020905b8154815260200190600101908083116108d2575b5050505050905060008060005b83518110156109795787831061090857610979565b818911156109225761091b600183613418565b9150610967565b838181518110610934576109346134e3565b602002602001015185848151811061094e5761094e6134e3565b6020908102919091010152610964600184613418565b92505b80610971816134b2565b9150506108f3565b50929450505050505b9392505050565b600754610100900460ff16806109a2575060075460ff16155b6109be5760405162461bcd60e51b81526004016105e8906131e0565b600754610100900460ff161580156109e0576007805461ffff19166101011790555b6040805160028082526060820190925290816020015b60608152602001906001900390816109f65750508051610a1e91600c91602090910190612580565b506040518060400160405280600581526020016427bbb732b960d91b815250600c600081548110610a5157610a516134e3565b906000526020600020019080519060200190610a6e9291906125dd565b5060405180604001604052806008815260200167283937bb34b232b960c11b815250600c600181548110610aa457610aa46134e3565b906000526020600020019080519060200190610ac19291906125dd565b50610acc8383611c02565b610bac85856002600c805480602002602001604051908101604052809291908181526020016000905b82821015610ba1578382906000526020600020018054610b1490613477565b80601f0160208091040260200160405190810160405280929190818152602001828054610b4090613477565b8015610b8d5780601f10610b6257610100808354040283529160200191610b8d565b820191906000526020600020905b815481529060010190602001808311610b7057829003601f168201915b505050505081526020019060010190610af5565b505050506000610d52565b8015610bbe576007805461ff00191690555b5050505050565b60606106f382600354611c29565b60606106f3826001611c29565b6060610bec60016112e1565b905090565b6001600160a01b03166000908152600d602052604090206001015490565b610c1b81600354611d54565b151560011415610c5e576001610c326003546112e1565b51610c3d9190613430565b6004541115610c5e5760405162461bcd60e51b81526004016105e8906131c1565b61065681600354611637565b610c72612548565b6106f382600354611a48565b610656816001611427565b610c97868686868686611efa565b610ca28686866114ff565b505050505050565b6060610bec6003546112e1565b33610cc18161170d565b6001610ccc81611753565b33610cd6816117c8565b61068a6000611888565b33610cea8161170d565b6000610cf581611753565b82600560035481548110610d0b57610d0b6134e3565b906000526020600020906004020160010180549050610d2a8282611407565b600185610d378282611407565b60088790556106426001611888565b610656816003546111d2565b600754610100900460ff1680610d6b575060075460ff16155b610d875760405162461bcd60e51b81526004016105e8906131e0565b600754610100900460ff16158015610da9576007805461ffff19166101011790555b848651610db68282611407565b600187610dc38282611407565b86518814610dfb5760405162461bcd60e51b8152602060048201526005602482015264454331382d60d81b60448201526064016105e8565b600386905560005b88811015610e73576005805460010181556000528751600690899083908110610e2e57610e2e6134e3565b60209081029190910181015182546001810184556000938452928290208151610e6094919091019291909101906125dd565b5080610e6b816134b2565b915050610e03565b50600489905560005b8a51811015610fba57600073__AddressLibrary________________________63bc215e858d8481518110610eb357610eb36134e3565b60200260200101516040518263ffffffff1660e01b8152600401610ed7919061300f565b60206040518083038186803b158015610eef57600080fd5b505af4158015610f03573d6000803e3d6000fd5b505050506040513d601f19601f82011682018060405250810190610f279190612d33565b90506001600560035481548110610f4057610f406134e3565b60009182526020808320858452600492909202909101905260409020600101805460ff1916911515919091179055600354600580549091908110610f8657610f866134e3565b6000918252602080832060016004909302018201805492830181558352909120015580610fb2816134b2565b915050610e7c565b50505050508015610ca2576007805461ff0019169055505050505050565b60608060006001818054610feb90613477565b80601f016020809104026020016040519081016040528092919081815260200182805461101790613477565b80156110645780601f1061103957610100808354040283529160200191611064565b820191906000526020600020905b81548152906001019060200180831161104757829003601f168201915b5050505050915080805461107790613477565b80601f01602080910402602001604051908101604052809291908181526020018280546110a390613477565b80156110f05780601f106110c5576101008083540402835291602001916110f0565b820191906000526020600020905b8154815290600101906020018083116110d357829003601f168201915b50505050509050915091509091565b61068a838383600161190f565b60405163c47f002760e01b815281906000906001600160a01b0383169063c47f00279061113d90879060040161314d565b602060405180830381600087803b15801561115757600080fd5b505af115801561116b573d6000803e3d6000fd5b505050506040513d601f19601f8201168201806040525081019061118f9190612d33565b90507f33ef81cad1e96e7a08670293e5ef94b9d7f3b8799292751c76914bc8c1270ca48482306040516111c493929190613160565b60405180910390a150505050565b60055460405163123bd07560e11b815282919073__Library_______________________________90632477a0ea90611211908590859060040161313f565b60006040518083038186803b15801561122957600080fd5b505af415801561123d573d6000803e3d6000fd5b505050503361124b8161170d565b600080611268876040518060200160405280600081525088612020565b604051635cb09bcf60e01b8152919350915073__ItemsLibrary__________________________90635cb09bcf906112a8908590859030906004016132a6565b60006040518083038186803b1580156112c057600080fd5b505af41580156112d4573d6000803e3d6000fd5b5050505050505050505050565b60055460405163123bd07560e11b8152606091839173__Library_______________________________90632477a0ea90611322908590859060040161313f565b60006040518083038186803b15801561133a57600080fd5b505af415801561134e573d6000803e3d6000fd5b5050505073__ItemsLibrary__________________________6327724f4b6005868154811061137f5761137f6134e3565b90600052602060002090600402016040518263ffffffff1660e01b81526004016113ab91815260200190565b60006040518083038186803b1580156113c357600080fd5b505af41580156113d7573d6000803e3d6000fd5b505050506040513d6000823e601f3d908101601f191682016040526113ff9190810190612c62565b949350505050565b8082111561069a5760405162461bcd60e51b81526004016105e8906131c1565b60055460405163123bd07560e11b815282919073__Library_______________________________90632477a0ea90611466908590859060040161313f565b60006040518083038186803b15801561147e57600080fd5b505af4158015611492573d6000803e3d6000fd5b50505050336114a08161170d565b6000806114bd876040518060200160405280600081525088612020565b60405163e23fcdef60e01b8152919350915073__ItemsLibrary__________________________9063e23fcdef906112a8908590859030906004016132a6565b565b826115098161222c565b15156001146115425760405162461bcd60e51b8152602060048201526005602482015264454331322d60d81b60448201526064016105e8565b826001600160a01b038084166000908152600d602090815260408083208884529091529020548491869116156115a25760405162461bcd60e51b8152602060048201526005602482015264454331352d60d81b60448201526064016105e8565b6001600160a01b038086166000818152600d602081815260408084208c85528083528185208054978f166001600160a01b0319909816881790559282526001928301805493840181558452922001899055519091907ff55a90628981610edc26894247bee72e1963d1c9faa4ea6533fd3df39fd36ed490611626908a815260200190565b60405180910390a350505050505050565b60055460405163123bd07560e11b815282919073__Library_______________________________90632477a0ea90611676908590859060040161313f565b60006040518083038186803b15801561168e57600080fd5b505af41580156116a2573d6000803e3d6000fd5b50505050336116b08161170d565b6000806116cd876040518060200160405280600081525088612020565b604051637493a70b60e01b8152919350915073__ItemsLibrary__________________________90637493a70b906112a8908590859030906004016132a6565b61171981600354612235565b15156001146106565760405162461bcd60e51b81526004016105e8906020808252600490820152634543392d60e01b604082015260600190565b8015611790576008546106565760405162461bcd60e51b8152602060048201526005602482015264454333312d60d81b60448201526064016105e8565b600854156106565760405162461bcd60e51b8152602060048201526005602482015264454333302d60d81b60448201526064016105e8565b60405163f7cf62d760e01b815273__AddressLibrary________________________9063f7cf62d790611802908490600b90600401613023565b60206040518083038186803b15801561181a57600080fd5b505af415801561182e573d6000803e3d6000fd5b505050506040513d601f19601f820116820180604052508101906118529190612d16565b156106565760405162461bcd60e51b81526004016105e8906020808252600490820152634543352d60e01b604082015260600190565b80156118ac576001600960008282546118a19190613418565b909155506118c59050565b6001600a60008282546118bf9190613418565b90915550505b600b80546001810182556000919091527f0175b7a638427703f0dbe7bb9bbf987a2551717b34e79f33b5b1008d1fa01db90180546001600160a01b03191633179055610656612360565b60055460405163123bd07560e11b815282919073__Library_______________________________90632477a0ea9061194e908590859060040161313f565b60006040518083038186803b15801561196657600080fd5b505af415801561197a573d6000803e3d6000fd5b50505050336119888161170d565b6000806119cd8989898080601f0160208091040260200160405190810160405280939291908181526020018383808284376000920191909152508b9250612020915050565b6040516305cc2d5560e11b8152919350915073__ItemsLibrary__________________________90630b985aaa90611a0d908590859030906004016132a6565b60006040518083038186803b158015611a2557600080fd5b505af4158015611a39573d6000803e3d6000fd5b50505050505050505050505050565b611a50612548565b60055460405163123bd07560e11b815283919073__Library_______________________________90632477a0ea90611a8f908590859060040161313f565b60006040518083038186803b158015611aa757600080fd5b505af4158015611abb573d6000803e3d6000fd5b505060405163bc215e8560e01b81526000925073__AddressLibrary________________________915063bc215e8590611af990899060040161300f565b60206040518083038186803b158015611b1157600080fd5b505af4158015611b25573d6000803e3d6000fd5b505050506040513d601f19601f82011682018060405250810190611b499190612d33565b905073__ItemsLibrary__________________________631aeccc6a8260058881548110611b7957611b796134e3565b90600052602060002090600402016040518363ffffffff1660e01b8152600401611ba492919061313f565b60006040518083038186803b158015611bbc57600080fd5b505af4158015611bd0573d6000803e3d6000fd5b505050506040513d6000823e601f3d908101601f19168201604052611bf89190810190612e0d565b9695505050505050565b8151611c159060009060208501906125dd565b50805161068a9060019060208401906125dd565b60055460405163123bd07560e11b8152606091839173__Library_______________________________90632477a0ea90611c6a908590859060040161313f565b60006040518083038186803b158015611c8257600080fd5b505af4158015611c96573d6000803e3d6000fd5b50505050606073__ItemsLibrary__________________________63e035e0068760058881548110611cca57611cca6134e3565b90600052602060002090600402016040518363ffffffff1660e01b8152600401611d009291909115158252602082015260400190565b60006040518083038186803b158015611d1857600080fd5b505af4158015611d2c573d6000803e3d6000fd5b505050506040513d6000823e601f3d908101601f19168201604052611bf89190810190612c62565b60055460405163123bd07560e11b8152600091839173__Library_______________________________90632477a0ea90611d95908590859060040161313f565b60006040518083038186803b158015611dad57600080fd5b505af4158015611dc1573d6000803e3d6000fd5b505060405163bc215e8560e01b81526000925073__AddressLibrary________________________915063bc215e8590611dff90899060040161300f565b60206040518083038186803b158015611e1757600080fd5b505af4158015611e2b573d6000803e3d6000fd5b505050506040513d601f19601f82011682018060405250810190611e4f9190612d33565b905073__ItemsLibrary__________________________632854ed2e8260058881548110611e7f57611e7f6134e3565b90600052602060002090600402016040518363ffffffff1660e01b8152600401611eaa92919061313f565b60206040518083038186803b158015611ec257600080fd5b505af4158015611ed6573d6000803e3d6000fd5b505050506040513d601f19601f82011682018060405250810190611bf89190612d16565b81611f0481612498565b8684611f1082826124cf565b60405163c1bc5c3f60e01b815273__SignatureLibrary______________________9063c1bc5c3f90611f57908c908c908c908c908c908c90600090600190600401613082565b60206040518083038186803b158015611f6f57600080fd5b505af4158015611f83573d6000803e3d6000fd5b505050506040513d601f19601f82011682018060405250810190611fa79190612d16565b1515600114611fe05760405162461bcd60e51b8152602060048201526005602482015264454333322d60d81b60448201526064016105e8565b61201589876001600160a01b03909116600090815260026020908152604080832093835292905220805460ff19166001179055565b505050505050505050565b6120556040518060a0016040528060008019168152602001606081526020016000815260200160608152602001606081525090565b60008073__AddressLibrary________________________63bc215e85876040518263ffffffff1660e01b815260040161208f919061300f565b60206040518083038186803b1580156120a757600080fd5b505af41580156120bb573d6000803e3d6000fd5b505050506040513d601f19601f820116820180604052508101906120df9190612d33565b60408051600180825281830190925291925060009190602080830190803683370190505090508481600081518110612119576121196134e3565b60200260200101818152505060006040518060a00160405280848152602001888152602001600454815260200160068881548110612159576121596134e3565b90600052602060002001805461216e90613477565b80601f016020809104026020016040519081016040528092919081815260200182805461219a90613477565b80156121e75780601f106121bc576101008083540402835291602001916121e7565b820191906000526020600020905b8154815290600101906020018083116121ca57829003601f168201915b5050505050815260200183815250905060006005878154811061220c5761220c6134e3565b600091825260209091209296506004029091019350505050935093915050565b60006106f38260015b60055460405163123bd07560e11b8152600091839173__Library_______________________________90632477a0ea90612276908590859060040161313f565b60006040518083038186803b15801561228e57600080fd5b505af41580156122a2573d6000803e3d6000fd5b505060405163bc215e8560e01b81526000925073__AddressLibrary________________________915063bc215e85906122e090899060040161300f565b60206040518083038186803b1580156122f857600080fd5b505af415801561230c573d6000803e3d6000fd5b505050506040513d601f19601f820116820180604052508101906123309190612d33565b905073__ItemsLibrary__________________________63dbdfbeec8260058881548110611e7f57611e7f6134e3565b6009546004805460405163f6001d7d60e01b815273__ItemsLibrary__________________________9363f6001d7d9361239c9391920161313f565b60206040518083038186803b1580156123b457600080fd5b505af41580156123c8573d6000803e3d6000fd5b505050506040513d601f19601f820116820180604052508101906123ec9190612d16565b156123ff576008546004556114fd61252b565b600a546004805460405163f6001d7d60e01b815273__ItemsLibrary__________________________9363f6001d7d9361243b9391920161313f565b60206040518083038186803b15801561245357600080fd5b505af4158015612467573d6000803e3d6000fd5b505050506040513d601f19601f8201168201806040525081019061248b9190612d16565b156114fd576114fd61252b565b8042106106565760405162461bcd60e51b8152602060048201526005602482015264454333332d60d81b60448201526064016105e8565b6001600160a01b038216600090815260026020908152604080832084845290915290205460ff161561069a5760405162461bcd60e51b8152602060048201526005602482015264454333342d60d81b60448201526064016105e8565b600060088190556009819055600a8190556114fd90600b9061265d565b6040518060c0016040528060608152602001600015158152602001600081526020016000815260200160608152602001606081525090565b8280548282559060005260206000209081019282156125cd579160200282015b828111156125cd57825180516125bd9184916020909101906125dd565b50916020019190600101906125a0565b506125d992915061267b565b5090565b8280546125e990613477565b90600052602060002090601f01602090048101928261260b5760008555612651565b82601f1061262457805160ff1916838001178555612651565b82800160010185558215612651579182015b82811115612651578251825591602001919060010190612636565b506125d9929150612698565b50805460008255906000526020600020908101906106569190612698565b808211156125d957600061268f82826126ad565b5060010161267b565b5b808211156125d95760008155600101612699565b5080546126b990613477565b6000825580601f106126c9575050565b601f0160209004906000526020600020908101906106569190612698565b60006126fa6126f5846133f1565b61339e565b905082815283838301111561270e57600080fd5b828260208301376000602084830101529392505050565b80356127308161350f565b919050565b600082601f83011261274657600080fd5b813560206127566126f5836133ce565b80838252828201915082860187848660051b890101111561277657600080fd5b60005b8581101561279e57813561278c8161350f565b84529284019290840190600101612779565b5090979650505050505050565b600082601f8301126127bc57600080fd5b815160206127cc6126f5836133ce565b80838252828201915082860187848660051b89010111156127ec57600080fd5b60005b8581101561279e5781516128028161350f565b845292840192908401906001016127ef565b805161273081613524565b600082601f83011261283057600080fd5b610982838335602085016126e7565b600082601f83011261285057600080fd5b815161285e6126f5826133f1565b81815284602083860101111561287357600080fd5b6113ff826020830160208701613447565b60006020828403121561289657600080fd5b81356109828161350f565b60008060008060008060c087890312156128ba57600080fd5b86356128c58161350f565b95506020870135945060408701356128dc8161350f565b9350606087013592506080870135915060a08701356001600160401b0381111561290557600080fd5b8701601f8101891361291657600080fd5b612925898235602084016126e7565b9150509295509295509295565b60008060006040848603121561294757600080fd5b83356129528161350f565b925060208401356001600160401b038082111561296e57600080fd5b818601915086601f83011261298257600080fd5b81358181111561299157600080fd5b8760208285010111156129a357600080fd5b6020830194508093505050509250925092565b600080604083850312156129c957600080fd5b82356129d48161350f565b946020939093013593505050565b6000806000606084860312156129f757600080fd5b8335612a028161350f565b95602085013595506040909401359392505050565b60008060008060808587031215612a2d57600080fd5b84356001600160401b0380821115612a4457600080fd5b612a5088838901612735565b9550602087013594506040870135915080821115612a6d57600080fd5b612a798883890161281f565b93506060870135915080821115612a8f57600080fd5b50612a9c8782880161281f565b91505092959194509250565b60008060008060008060c08789031215612ac157600080fd5b86356001600160401b0380821115612ad857600080fd5b612ae48a838b01612735565b9750602089013596506040890135915080821115612b0157600080fd5b612b0d8a838b0161281f565b95506060890135915080821115612b2357600080fd5b612b2f8a838b0161281f565b94506080890135915080821115612b4557600080fd5b50612b5289828a0161281f565b925050612b6160a08801612725565b90509295509295509295565b600080600080600060a08688031215612b8557600080fd5b85356001600160401b0380821115612b9c57600080fd5b612ba889838a01612735565b96506020915081880135955060408801359450606088013581811115612bcd57600080fd5b8801601f81018a13612bde57600080fd5b8035612bec6126f5826133ce565b8082825285820191508584018d878560051b8701011115612c0c57600080fd5b60005b84811015612c46578682351115612c2557600080fd5b612c348f89843589010161281f565b84529287019290870190600101612c0f565b5050809750505050505050608086013590509295509295909350565b60006020808385031215612c7557600080fd5b82516001600160401b03811115612c8b57600080fd5b8301601f81018513612c9c57600080fd5b8051612caa6126f5826133ce565b80828252848201915084840188868560051b8701011115612cca57600080fd5b600094505b83851015612ced578051835260019490940193918501918501612ccf565b50979650505050505050565b600060208284031215612d0b57600080fd5b813561098281613524565b600060208284031215612d2857600080fd5b815161098281613524565b600060208284031215612d4557600080fd5b5051919050565b60008060408385031215612d5f57600080fd5b823591506020830135612d718161350f565b809150509250929050565b60008060008060608587031215612d9257600080fd5b8435935060208501356001600160401b0380821115612db057600080fd5b818701915087601f830112612dc457600080fd5b813581811115612dd357600080fd5b8860208260051b8501011115612de857600080fd5b6020830195508094505050506040850135612e0281613524565b939692955090935050565b600060208284031215612e1f57600080fd5b81516001600160401b0380821115612e3657600080fd5b9083019060c08286031215612e4a57600080fd5b612e52613376565b825182811115612e6157600080fd5b612e6d8782860161283f565b825250612e7c60208401612814565b60208201526040830151604082015260608301516060820152608083015182811115612ea757600080fd5b612eb3878286016127ab565b60808301525060a083015182811115612ecb57600080fd5b612ed7878286016127ab565b60a08301525095945050505050565b600060208284031215612ef857600080fd5b5035919050565b600081518084526020808501945080840160005b83811015612f385781516001600160a01b031687529582019590820190600101612f13565b509495945050505050565b60008151808452612f5b816020860160208601613447565b601f01601f19169290920160200192915050565b8054600090600181811c9080831680612f8957607f831692505b6020808410821415612fab57634e487b7160e01b600052602260045260246000fd5b83885260208801828015612fc65760018114612fd757613002565b60ff19871682528282019750613002565b60008981526020902060005b87811015612ffc57815484820152908601908401612fe3565b83019850505b5050505050505092915050565b6001600160a01b0391909116815260200190565b60006040820160018060a01b03808616845260206040818601528286548085526060870191508760005282600020945060005b81811015613074578554851683526001958601959284019201613056565b509098975050505050505050565b6001600160a01b0389811682526020820189905287166040820152606081018690526080810185905261010060a082018190526000906130c483820187612f43565b905082810360c08401526130d88186612f6f565b905082810360e08401526130ec8185612f6f565b9b9a5050505050505050505050565b6020808252825182820181905260009190848201906040850190845b8181101561313357835183529284019291840191600101613117565b50909695505050505050565b918252602082015260400190565b6020815260006109826020830184612f43565b6060815260006131736060830186612f43565b6020830194909452506001600160a01b0391909116604090910152919050565b6040815260006131a66040830185612f43565b82810360208401526131b88185612f43565b95945050505050565b602080825260059082015264454331392d60d81b604082015260600190565b6020808252602e908201527f496e697469616c697a61626c653a20636f6e747261637420697320616c72656160408201526d191e481a5b9a5d1a585b1a5e995960921b606082015260800190565b602081526000825160c0602084015261324a60e0840182612f43565b905060208401511515604084015260408401516060840152606084015160808401526080840151601f19808584030160a08601526132888383612eff565b925060a08601519150808584030160c0860152506131b88282612eff565b6060815283516060820152600060208086015160a060808501526132ce610100850182612f43565b9050604087015160a08501526060870151605f19808684030160c08701526132f68383612f43565b60808a015187820390920160e088015281518082529185019350600092508401905b808310156133385783518252928401926001929092019190840190613318565b5092850187905250506001600160a01b038416604084015290506113ff565b8381528260208201526060604082015260006131b86060830184612eff565b60405160c081016001600160401b0381118282101715613398576133986134f9565b60405290565b604051601f8201601f191681016001600160401b03811182821017156133c6576133c66134f9565b604052919050565b60006001600160401b038211156133e7576133e76134f9565b5060051b60200190565b60006001600160401b0382111561340a5761340a6134f9565b50601f01601f191660200190565b6000821982111561342b5761342b6134cd565b500190565b600082821015613442576134426134cd565b500390565b60005b8381101561346257818101518382015260200161344a565b83811115613471576000848401525b50505050565b600181811c9082168061348b57607f821691505b602082108114156134ac57634e487b7160e01b600052602260045260246000fd5b50919050565b60006000198214156134c6576134c66134cd565b5060010190565b634e487b7160e01b600052601160045260246000fd5b634e487b7160e01b600052603260045260246000fd5b634e487b7160e01b600052604160045260246000fd5b6001600160a01b038116811461065657600080fd5b801515811461065657600080fdfea26469706673582212200ff2d54623af77b6209ccbd7772b4ca38744ea20c975d90febdfc4fd2ff07a0764736f6c63430008070033",
  "immutableReferences": {},
  "source": "// SPDX-License-Identifier: GPL-3.0\r\n\r\npragma solidity 0.8.7;\r\n\r\n/*\r\n  Private Certificate Pools offer the default MultiSig Certificate Pool functionality\r\n */\r\n\r\n import \"../Abstract/MultiSigCertificatesPool.sol\";\r\n import \"../Base/ReverseRegistryBaseContract.sol\";\r\n\r\n\r\n contract PrivateCertificatesPool is ReverseRegistryBaseContract, MultiSigCertificatesPool {\r\n\r\n    // CONSTRUCTOR & INIT /////////////////////////////////////////\r\n    function PrivateCertPool_init(address[] memory owners,  uint256 minOwners, string memory contractName, string memory contractVersion, string memory ENSName, address ReverseRegistryAddress) public initializer \r\n    {\r\n      super.MultiSigCertPool_init(owners, minOwners, contractName, contractVersion);\r\n\r\n      if(0 < bytes(ENSName).length){\r\n        RegisterReverseAddress(ENSName, ReverseRegistryAddress);\r\n      }\r\n      \r\n    }\r\n\r\n  }",
  "sourcePath": "C:/Users/d-aam/GitHub/Certificates/contracts/DeployedContracts/PrivateCertificatesPool.sol",
  "compiler": {
    "name": "solc",
    "version": "0.8.7+commit.e28d00a7.Emscripten.clang"
  },
  "schemaVersion": "3.3.4",
  "updatedAt": "2021-12-03T12:15:20.716Z",
  "networkType": "ethereum",
  "devdoc": {
    "kind": "dev",
    "methods": {},
    "version": 1
  },
  "userdoc": {
    "kind": "user",
    "methods": {},
    "version": 1
  }
}