{
  "contractName": "PrivateCertificatesPool",
  "abi": [
    {
      "anonymous": false,
      "inputs": [
        {
          "indexed": true,
          "internalType": "address",
          "name": "",
          "type": "address"
        },
        {
          "indexed": true,
          "internalType": "address",
          "name": "",
          "type": "address"
        },
        {
          "indexed": false,
          "internalType": "bytes32",
          "name": "",
          "type": "bytes32"
        }
      ],
      "name": "_AddCertificate",
      "type": "event"
    },
    {
      "inputs": [
        {
          "internalType": "address[]",
          "name": "owners",
          "type": "address[]"
        },
        {
          "internalType": "uint256",
          "name": "minOwners",
          "type": "uint256"
        }
      ],
      "name": "MultiSigCertPool_init",
      "outputs": [],
      "stateMutability": "nonpayable",
      "type": "function"
    },
    {
      "inputs": [
        {
          "internalType": "address[]",
          "name": "owners",
          "type": "address[]"
        },
        {
          "internalType": "uint256",
          "name": "minOwners",
          "type": "uint256"
        },
        {
          "internalType": "uint256",
          "name": "TotalEntities",
          "type": "uint256"
        },
        {
          "internalType": "string[]",
          "name": "labels",
          "type": "string[]"
        },
        {
          "internalType": "uint256",
          "name": "ownerId",
          "type": "uint256"
        }
      ],
      "name": "MultiSigContract_init",
      "outputs": [],
      "stateMutability": "nonpayable",
      "type": "function"
    },
    {
      "inputs": [
        {
          "internalType": "bytes32",
          "name": "CertificateHash",
          "type": "bytes32"
        },
        {
          "internalType": "address",
          "name": "holder",
          "type": "address"
        }
      ],
      "name": "addCertificate",
      "outputs": [],
      "stateMutability": "payable",
      "type": "function"
    },
    {
      "inputs": [
        {
          "internalType": "address",
          "name": "owner",
          "type": "address"
        },
        {
          "internalType": "string",
          "name": "ownerInfo",
          "type": "string"
        }
      ],
      "name": "addOwner",
      "outputs": [],
      "stateMutability": "nonpayable",
      "type": "function"
    },
    {
      "inputs": [
        {
          "internalType": "address",
          "name": "provider",
          "type": "address"
        },
        {
          "internalType": "string",
          "name": "providerInfo",
          "type": "string"
        }
      ],
      "name": "addProvider",
      "outputs": [],
      "stateMutability": "payable",
      "type": "function"
    },
    {
      "inputs": [
        {
          "internalType": "uint256",
          "name": "newMinOwners",
          "type": "uint256"
        }
      ],
      "name": "changeMinOwners",
      "outputs": [],
      "stateMutability": "nonpayable",
      "type": "function"
    },
    {
      "inputs": [
        {
          "internalType": "bytes32",
          "name": "item",
          "type": "bytes32"
        },
        {
          "internalType": "uint256[]",
          "name": "ids",
          "type": "uint256[]"
        },
        {
          "internalType": "bool",
          "name": "addOrRemove",
          "type": "bool"
        }
      ],
      "name": "onItemRejected",
      "outputs": [],
      "stateMutability": "nonpayable",
      "type": "function"
    },
    {
      "inputs": [
        {
          "internalType": "bytes32",
          "name": "item",
          "type": "bytes32"
        },
        {
          "internalType": "uint256[]",
          "name": "ids",
          "type": "uint256[]"
        },
        {
          "internalType": "bool",
          "name": "addOrRemove",
          "type": "bool"
        }
      ],
      "name": "onItemValidated",
      "outputs": [],
      "stateMutability": "nonpayable",
      "type": "function"
    },
    {
      "inputs": [],
      "name": "rejectMinOwners",
      "outputs": [],
      "stateMutability": "nonpayable",
      "type": "function"
    },
    {
      "inputs": [
        {
          "internalType": "address",
          "name": "owner",
          "type": "address"
        }
      ],
      "name": "rejectOwner",
      "outputs": [],
      "stateMutability": "nonpayable",
      "type": "function"
    },
    {
      "inputs": [
        {
          "internalType": "address",
          "name": "provider",
          "type": "address"
        }
      ],
      "name": "rejectProvider",
      "outputs": [],
      "stateMutability": "nonpayable",
      "type": "function"
    },
    {
      "inputs": [
        {
          "internalType": "address",
          "name": "owner",
          "type": "address"
        }
      ],
      "name": "removeOwner",
      "outputs": [],
      "stateMutability": "nonpayable",
      "type": "function"
    },
    {
      "inputs": [
        {
          "internalType": "address",
          "name": "provider",
          "type": "address"
        }
      ],
      "name": "removeProvider",
      "outputs": [],
      "stateMutability": "nonpayable",
      "type": "function"
    },
    {
      "inputs": [],
      "name": "retrieveAllOwners",
      "outputs": [
        {
          "internalType": "bytes32[]",
          "name": "",
          "type": "bytes32[]"
        }
      ],
      "stateMutability": "view",
      "type": "function"
    },
    {
      "inputs": [],
      "name": "retrieveAllProviders",
      "outputs": [
        {
          "internalType": "bytes32[]",
          "name": "",
          "type": "bytes32[]"
        }
      ],
      "stateMutability": "view",
      "type": "function"
    },
    {
      "inputs": [
        {
          "internalType": "bytes32",
          "name": "CertificateHash",
          "type": "bytes32"
        },
        {
          "internalType": "address",
          "name": "holder",
          "type": "address"
        }
      ],
      "name": "retrieveCertificateProvider",
      "outputs": [
        {
          "internalType": "address",
          "name": "",
          "type": "address"
        }
      ],
      "stateMutability": "view",
      "type": "function"
    },
    {
      "inputs": [
        {
          "internalType": "address",
          "name": "holder",
          "type": "address"
        },
        {
          "internalType": "uint256",
          "name": "skipFirst",
          "type": "uint256"
        },
        {
          "internalType": "uint256",
          "name": "max",
          "type": "uint256"
        }
      ],
      "name": "retrieveCertificatesByHolder",
      "outputs": [
        {
          "internalType": "bytes32[]",
          "name": "",
          "type": "bytes32[]"
        }
      ],
      "stateMutability": "view",
      "type": "function"
    },
    {
      "inputs": [],
      "name": "retrieveMinOwners",
      "outputs": [
        {
          "internalType": "uint256",
          "name": "",
          "type": "uint256"
        }
      ],
      "stateMutability": "view",
      "type": "function"
    },
    {
      "inputs": [
        {
          "internalType": "address",
          "name": "owner",
          "type": "address"
        }
      ],
      "name": "retrieveOwner",
      "outputs": [
        {
          "internalType": "string",
          "name": "",
          "type": "string"
        },
        {
          "internalType": "bool",
          "name": "",
          "type": "bool"
        }
      ],
      "stateMutability": "view",
      "type": "function"
    },
    {
      "inputs": [],
      "name": "retrievePendingMinOwners",
      "outputs": [
        {
          "internalType": "uint256",
          "name": "",
          "type": "uint256"
        }
      ],
      "stateMutability": "view",
      "type": "function"
    },
    {
      "inputs": [
        {
          "internalType": "bool",
          "name": "addedORremove",
          "type": "bool"
        }
      ],
      "name": "retrievePendingOwners",
      "outputs": [
        {
          "internalType": "bytes32[]",
          "name": "",
          "type": "bytes32[]"
        },
        {
          "internalType": "string[]",
          "name": "",
          "type": "string[]"
        }
      ],
      "stateMutability": "view",
      "type": "function"
    },
    {
      "inputs": [
        {
          "internalType": "bool",
          "name": "addedORremove",
          "type": "bool"
        }
      ],
      "name": "retrievePendingProviders",
      "outputs": [
        {
          "internalType": "bytes32[]",
          "name": "",
          "type": "bytes32[]"
        },
        {
          "internalType": "string[]",
          "name": "",
          "type": "string[]"
        }
      ],
      "stateMutability": "view",
      "type": "function"
    },
    {
      "inputs": [
        {
          "internalType": "address",
          "name": "provider",
          "type": "address"
        }
      ],
      "name": "retrieveProvider",
      "outputs": [
        {
          "internalType": "string",
          "name": "",
          "type": "string"
        },
        {
          "internalType": "bool",
          "name": "",
          "type": "bool"
        }
      ],
      "stateMutability": "view",
      "type": "function"
    },
    {
      "inputs": [
        {
          "internalType": "address",
          "name": "holder",
          "type": "address"
        }
      ],
      "name": "retrieveTotalCertificatesByHolder",
      "outputs": [
        {
          "internalType": "uint256",
          "name": "",
          "type": "uint256"
        }
      ],
      "stateMutability": "view",
      "type": "function"
    },
    {
      "inputs": [],
      "name": "validateMinOwners",
      "outputs": [],
      "stateMutability": "nonpayable",
      "type": "function"
    },
    {
      "inputs": [
        {
          "internalType": "address",
          "name": "owner",
          "type": "address"
        }
      ],
      "name": "validateOwner",
      "outputs": [],
      "stateMutability": "nonpayable",
      "type": "function"
    },
    {
      "inputs": [
        {
          "internalType": "address",
          "name": "provider",
          "type": "address"
        }
      ],
      "name": "validateProvider",
      "outputs": [],
      "stateMutability": "nonpayable",
      "type": "function"
    },
    {
      "inputs": [
        {
          "internalType": "address[]",
          "name": "owners",
          "type": "address[]"
        },
        {
          "internalType": "uint256",
          "name": "minOwners",
          "type": "uint256"
        }
      ],
      "name": "PrivateCertPool_init",
      "outputs": [],
      "stateMutability": "nonpayable",
      "type": "function"
    }
  ],
  "bytecode": "0x608060405234801561001057600080fd5b50613b1f806100206000396000f3fe6080604052600436106101475760003560e01c80630b4c72a91461014c578063173825d91461016e5780631ab807f81461018e57806327a40b4b146101a15780632edbe7fc146101c157806330ade922146101e55780633542758f146101fa578063375834991461021a5780633fd071811461024857806358a1ba251461026857806365b973e5146102955780636b299604146102aa5780636b3a0fec146102d85780636e4f9179146102f85780636e55d2d41461030d57806376f8f90f1461032d57806377bc5a1f1461034d5780637c8c2add146102485780638a355a571461036d578063a93d5ed61461038d578063c3079ae7146103a2578063c3ccb191146103b7578063c66433ea146103d7578063ce33d58a146103f7578063cf2041d914610417578063d0a4adfe14610437578063d21c2bec1461048a578063fc000500146104aa575b600080fd5b34801561015857600080fd5b5061016c6101673660046130e2565b6104bd565b005b34801561017a57600080fd5b5061016c6101893660046130e2565b6104cb565b61016c61019c366004613490565b610520565b3480156101ad57600080fd5b5061016c6101bc3660046130e2565b61052e565b3480156101cd57600080fd5b506005545b6040519081526020015b60405180910390f35b3480156101f157600080fd5b5061016c610539565b34801561020657600080fd5b5061016c6102153660046130fd565b610638565b34801561022657600080fd5b5061023a6102353660046130e2565b610646565b6040516101dc929190613745565b34801561025457600080fd5b5061016c6102633660046134bc565b61065e565b34801561027457600080fd5b5061028861028336600461317f565b610728565b6040516101dc91906136b2565b3480156102a157600080fd5b506001546101d2565b3480156102b657600080fd5b506102ca6102c536600461343d565b6108ce565b6040516101dc9291906136c5565b3480156102e457600080fd5b506102ca6102f336600461343d565b6108dd565b34801561030457600080fd5b506102886108eb565b34801561031957600080fd5b506101d26103283660046130e2565b6108fc565b34801561033957600080fd5b5061016c6103483660046130e2565b61091a565b34801561035957600080fd5b5061023a6103683660046130e2565b610975565b34801561037957600080fd5b5061016c6103883660046130e2565b610985565b34801561039957600080fd5b50610288610990565b3480156103ae57600080fd5b5061016c61099d565b3480156103c357600080fd5b5061016c6103d23660046131b2565b610a9c565b3480156103e357600080fd5b5061016c6103f236600461359e565b610ccb565b34801561040357600080fd5b5061016c6104123660046130e2565b610db6565b34801561042357600080fd5b5061016c6104323660046131f6565b610dc2565b34801561044357600080fd5b5061047d610452366004613490565b6001600160a01b039081166000908152600a6020908152604080832094835293905291909120541690565b6040516101dc919061361e565b34801561049657600080fd5b5061016c6104a53660046131b2565b61106d565b61016c6104b83660046130fd565b6110ce565b6104c88160016110db565b50565b60015460016104db6000546115ac565b516104e691906139fc565b8082111561050f5760405162461bcd60e51b8152600401610506906137c5565b60405180910390fd5b61051b83600054611713565b505050565b61052a8282611a7d565b5050565b6104c8816001611baf565b61054533600054612040565b15156001146105665760405162461bcd60e51b815260040161050690613870565b60016005546105875760405162461bcd60e51b8152600401610506906137e4565b60405163f7cf62d760e01b815273__AddressLibrary________________________9063f7cf62d7906105c1903390600890600401613632565b60206040518083038186803b1580156105d957600080fd5b505af41580156105ed573d6000803e3d6000fd5b505050506040513d601f19601f82011682018060405250810190610611919061345a565b1561062e5760405162461bcd60e51b81526004016105069061388e565b6104c86001612231565b61051b8383836000546122b8565b6060600061065583600161268a565b91509150915091565b604051630d1d719d60e41b8152309073__Library_______________________________9063d1d719d09061069790849060040161361e565b60206040518083038186803b1580156106af57600080fd5b505af41580156106c3573d6000803e3d6000fd5b505050506040513d601f19601f820116820180604052508101906106e7919061345a565b15156001146107215760405162461bcd60e51b8152600401610506906020808252600490820152634543382d60e01b604082015260600190565b5050505050565b606082610734856108fc565b1161074e57506040805160008152602081019091526108c7565b81808461075a876108fc565b61076491906139fc565b10156107815783610774866108fc565b61077e91906139fc565b90505b6000816001600160401b0381111561079b5761079b613ac5565b6040519080825280602002602001820160405280156107c4578160200160208202803683370190505b506001600160a01b0387166000908152600a602090815260408083206001018054825181850281018501909352808352949550929390929183018282801561082b57602002820191906000526020600020905b815481526020019060010190808311610817575b5050505050905060008060005b83518110156108be5787831061084d576108be565b81891115610867576108606001836139e4565b91506108ac565b83818151811061087957610879613aaf565b602002602001015185848151811061089357610893613aaf565b60209081029190910101526108a96001846139e4565b92505b806108b681613a7e565b915050610838565b50929450505050505b9392505050565b60608061065583600054612887565b606080610655836001612887565b60606108f760016115ac565b905090565b6001600160a01b03166000908152600a602052604090206001015490565b61092681600054612a06565b15156001141561096957600161093d6000546115ac565b5161094891906139fc565b60015411156109695760405162461bcd60e51b8152600401610506906137c5565b6104c881600054611baf565b606060006106558360005461268a565b6104c8816001611713565b60606108f76000546115ac565b6109a933600054612040565b15156001146109ca5760405162461bcd60e51b815260040161050690613870565b60016005546109eb5760405162461bcd60e51b8152600401610506906137e4565b60405163f7cf62d760e01b815273__AddressLibrary________________________9063f7cf62d790610a25903390600890600401613632565b60206040518083038186803b158015610a3d57600080fd5b505af4158015610a51573d6000803e3d6000fd5b505050506040513d601f19601f82011682018060405250810190610a75919061345a565b15610a925760405162461bcd60e51b81526004016105069061388e565b6104c86000612231565b600454610100900460ff1680610ab5575060045460ff16155b610ad15760405162461bcd60e51b815260040161050690613822565b600454610100900460ff16158015610af3576004805461ffff19166101011790555b6040805160028082526060820190925290816020015b6060815260200190600190039081610b095750508051610b3191600991602090910190612e41565b506040518060400160405280600581526020016427bbb732b960d91b8152506009600081548110610b6457610b64613aaf565b906000526020600020019080519060200190610b81929190612e9e565b5060405180604001604052806008815260200167283937bb34b232b960c11b8152506009600181548110610bb757610bb7613aaf565b906000526020600020019080519060200190610bd4929190612e9e565b50610cb5838360026009805480602002602001604051908101604052809291908181526020016000905b82821015610caa578382906000526020600020018054610c1d90613a43565b80601f0160208091040260200160405190810160405280929190818152602001828054610c4990613a43565b8015610c965780601f10610c6b57610100808354040283529160200191610c96565b820191906000526020600020905b815481529060010190602001808311610c7957829003601f168201915b505050505081526020019060010190610bfe565b505050506000610dc2565b801561051b576004805461ff0019169055505050565b610cd733600054612040565b1515600114610cf85760405162461bcd60e51b815260040161050690613870565b600060055415610d325760405162461bcd60e51b8152602060048201526005602482015264454333302d60d81b6044820152606401610506565b81600260005481548110610d4857610d48613aaf565b90600052602060002090600402016001018054905080821115610d7d5760405162461bcd60e51b8152600401610506906137c5565b600084818111610d9f5760405162461bcd60e51b815260040161050690613803565b6005869055610dae6001612231565b505050505050565b6104c8816000546110db565b600454610100900460ff1680610ddb575060045460ff16155b610df75760405162461bcd60e51b815260040161050690613822565b600454610100900460ff16158015610e19576004805461ffff19166101011790555b84865180821115610e3c5760405162461bcd60e51b8152600401610506906137c5565b600087818111610e5e5760405162461bcd60e51b815260040161050690613803565b86518814610e965760405162461bcd60e51b8152602060048201526005602482015264454331382d60d81b6044820152606401610506565b60008681555b88811015610f0c576002805460010181556000528751600390899083908110610ec757610ec7613aaf565b60209081029190910181015182546001810184556000938452928290208151610ef99491909101929190910190612e9e565b5080610f0481613a7e565b915050610e9c565b50600189905560005b8a5181101561104f57600073__AddressLibrary________________________63bc215e858d8481518110610f4c57610f4c613aaf565b60200260200101516040518263ffffffff1660e01b8152600401610f70919061361e565b60206040518083038186803b158015610f8857600080fd5b505af4158015610f9c573d6000803e3d6000fd5b505050506040513d601f19601f82011682018060405250810190610fc09190613477565b90506001600260005481548110610fd957610fd9613aaf565b60009182526020808320858452600492909202909101905260408120805460ff1916921515929092179091555460028054909190811061101b5761101b613aaf565b600091825260208083206001600490930201820180549283018155835290912001558061104781613a7e565b915050610f15565b50505050508015610dae576004805461ff0019169055505050505050565b600454610100900460ff1680611086575060045460ff16155b6110a25760405162461bcd60e51b815260040161050690613822565b600454610100900460ff161580156110c4576004805461ffff19166101011790555b610cb58383610a9c565b61051b83838360016122b8565b60025460405163123bd07560e11b815282919073__Library_______________________________90632477a0ea9061111a9085908590600401613737565b60206040518083038186803b15801561113257600080fd5b505af4158015611146573d6000803e3d6000fd5b505050506040513d601f19601f8201168201806040525081019061116a919061345a565b151560011461118b5760405162461bcd60e51b815260040161050690613769565b61119733600054612040565b15156001146111b85760405162461bcd60e51b815260040161050690613870565b600184846111c68282612b72565b1515600114806111e157506111db8282612a06565b15156001145b6111fd5760405162461bcd60e51b8152600401610506906137a6565b8686600073__AddressLibrary________________________63bc215e85846040518263ffffffff1660e01b8152600401611238919061361e565b60206040518083038186803b15801561125057600080fd5b505af4158015611264573d6000803e3d6000fd5b505050506040513d601f19601f820116820180604052508101906112889190613477565b905073__ItemsLibrary__________________________637b6d23de3383600286815481106112b9576112b9613aaf565b90600052602060002090600402016040518463ffffffff1660e01b81526004016112e593929190613691565b60206040518083038186803b1580156112fd57600080fd5b505af4158015611311573d6000803e3d6000fd5b505050506040513d601f19601f82011682018060405250810190611335919061345a565b156113525760405162461bcd60e51b81526004016105069061388e565b60405163bc215e8560e01b815260009073__AddressLibrary________________________9063bc215e859061138c908e9060040161361e565b60206040518083038186803b1580156113a457600080fd5b505af41580156113b8573d6000803e3d6000fd5b505050506040513d601f19601f820116820180604052508101906113dc9190613477565b60408051600180825281830190925291925060009190602080830190803683370190505090508a8160008151811061141657611416613aaf565b60200260200101818152505060006040518060c00160405280848152602001604051806020016040528060008152508152602001600154815260200160038e8154811061146557611465613aaf565b90600052602060002001805461147a90613a43565b80601f01602080910402602001604051908101604052809291908181526020018280546114a690613a43565b80156114f35780601f106114c8576101008083540402835291602001916114f3565b820191906000526020600020905b8154815290600101906020018083116114d657829003601f168201915b50505050508152602001838152602001600115158152509050600060028d8154811061152157611521613aaf565b9060005260206000209060040201905073__ItemsLibrary__________________________635cb09bcf8383306040518463ffffffff1660e01b815260040161156c939291906138ac565b60006040518083038186803b15801561158457600080fd5b505af4158015611598573d6000803e3d6000fd5b505050505050505050505050505050505050565b60025460405163123bd07560e11b8152606091839173__Library_______________________________90632477a0ea906115ed9085908590600401613737565b60206040518083038186803b15801561160557600080fd5b505af4158015611619573d6000803e3d6000fd5b505050506040513d601f19601f8201168201806040525081019061163d919061345a565b151560011461165e5760405162461bcd60e51b815260040161050690613769565b73__ItemsLibrary__________________________6327724f4b6002868154811061168b5761168b613aaf565b90600052602060002090600402016040518263ffffffff1660e01b81526004016116b791815260200190565b60006040518083038186803b1580156116cf57600080fd5b505af41580156116e3573d6000803e3d6000fd5b505050506040513d6000823e601f3d908101601f1916820160405261170b919081019061332f565b949350505050565b60025460405163123bd07560e11b815282919073__Library_______________________________90632477a0ea906117529085908590600401613737565b60206040518083038186803b15801561176a57600080fd5b505af415801561177e573d6000803e3d6000fd5b505050506040513d601f19601f820116820180604052508101906117a2919061345a565b15156001146117c35760405162461bcd60e51b815260040161050690613769565b6117cf33600054612040565b15156001146117f05760405162461bcd60e51b815260040161050690613870565b600184846117fe8282612040565b15156001146118385760405162461bcd60e51b8152600401610506906020808252600490820152634543372d60e01b604082015260600190565b600087876118468282612a06565b156118635760405162461bcd60e51b815260040161050690613787565b60405163bc215e8560e01b815260009073__AddressLibrary________________________9063bc215e859061189d908e9060040161361e565b60206040518083038186803b1580156118b557600080fd5b505af41580156118c9573d6000803e3d6000fd5b505050506040513d601f19601f820116820180604052508101906118ed9190613477565b60408051600180825281830190925291925060009190602080830190803683370190505090508a8160008151811061192757611927613aaf565b60200260200101818152505060006040518060c00160405280848152602001604051806020016040528060008152508152602001600154815260200160038e8154811061197657611976613aaf565b90600052602060002001805461198b90613a43565b80601f01602080910402602001604051908101604052809291908181526020018280546119b790613a43565b8015611a045780601f106119d957610100808354040283529160200191611a04565b820191906000526020600020905b8154815290600101906020018083116119e757829003601f168201915b50505050508152602001838152602001600115158152509050600060028d81548110611a3257611a32613aaf565b9060005260206000209060040201905073__ItemsLibrary__________________________63e23fcdef8383306040518463ffffffff1660e01b815260040161156c939291906138ac565b611a8633612cdd565b1515600114611abf5760405162461bcd60e51b8152602060048201526005602482015264454331322d60d81b6044820152606401610506565b816001600160a01b038083166000908152600a60209081526040808320878452909152902054839185911615611b1f5760405162461bcd60e51b8152602060048201526005602482015264454331352d60d81b6044820152606401610506565b6001600160a01b0384166000818152600a602081815260408084208a855280835281852080546001600160a01b031916339081179091559383526001908101805491820181558552919093200188905590517ff55a90628981610edc26894247bee72e1963d1c9faa4ea6533fd3df39fd36ed490611ba09089815260200190565b60405180910390a35050505050565b60025460405163123bd07560e11b815282919073__Library_______________________________90632477a0ea90611bee9085908590600401613737565b60206040518083038186803b158015611c0657600080fd5b505af4158015611c1a573d6000803e3d6000fd5b505050506040513d601f19601f82011682018060405250810190611c3e919061345a565b1515600114611c5f5760405162461bcd60e51b815260040161050690613769565b611c6b33600054612040565b1515600114611c8c5760405162461bcd60e51b815260040161050690613870565b60018484611c9a8282612b72565b151560011480611cb55750611caf8282612a06565b15156001145b611cd15760405162461bcd60e51b8152600401610506906137a6565b8686600073__AddressLibrary________________________63bc215e85846040518263ffffffff1660e01b8152600401611d0c919061361e565b60206040518083038186803b158015611d2457600080fd5b505af4158015611d38573d6000803e3d6000fd5b505050506040513d601f19601f82011682018060405250810190611d5c9190613477565b905073__ItemsLibrary__________________________637b6d23de338360028681548110611d8d57611d8d613aaf565b90600052602060002090600402016040518463ffffffff1660e01b8152600401611db993929190613691565b60206040518083038186803b158015611dd157600080fd5b505af4158015611de5573d6000803e3d6000fd5b505050506040513d601f19601f82011682018060405250810190611e09919061345a565b15611e265760405162461bcd60e51b81526004016105069061388e565b60405163bc215e8560e01b815260009073__AddressLibrary________________________9063bc215e8590611e60908e9060040161361e565b60206040518083038186803b158015611e7857600080fd5b505af4158015611e8c573d6000803e3d6000fd5b505050506040513d601f19601f82011682018060405250810190611eb09190613477565b60408051600180825281830190925291925060009190602080830190803683370190505090508a81600081518110611eea57611eea613aaf565b60200260200101818152505060006040518060c00160405280848152602001604051806020016040528060008152508152602001600154815260200160038e81548110611f3957611f39613aaf565b906000526020600020018054611f4e90613a43565b80601f0160208091040260200160405190810160405280929190818152602001828054611f7a90613a43565b8015611fc75780601f10611f9c57610100808354040283529160200191611fc7565b820191906000526020600020905b815481529060010190602001808311611faa57829003601f168201915b50505050508152602001838152602001600115158152509050600060028d81548110611ff557611ff5613aaf565b9060005260206000209060040201905073__ItemsLibrary__________________________637493a70b8383306040518463ffffffff1660e01b815260040161156c939291906138ac565b60025460405163123bd07560e11b8152600091839173__Library_______________________________90632477a0ea906120819085908590600401613737565b60206040518083038186803b15801561209957600080fd5b505af41580156120ad573d6000803e3d6000fd5b505050506040513d601f19601f820116820180604052508101906120d1919061345a565b15156001146120f25760405162461bcd60e51b815260040161050690613769565b60405163bc215e8560e01b815260009073__AddressLibrary________________________9063bc215e859061212c90899060040161361e565b60206040518083038186803b15801561214457600080fd5b505af4158015612158573d6000803e3d6000fd5b505050506040513d601f19601f8201168201806040525081019061217c9190613477565b905073__ItemsLibrary__________________________63dbdfbeec82600288815481106121ac576121ac613aaf565b90600052602060002090600402016040518363ffffffff1660e01b81526004016121d7929190613737565b60206040518083038186803b1580156121ef57600080fd5b505af4158015612203573d6000803e3d6000fd5b505050506040513d601f19601f82011682018060405250810190612227919061345a565b9695505050505050565b80156122555760016006600082825461224a91906139e4565b9091555061226e9050565b60016007600082825461226891906139e4565b90915550505b600880546001810182556000919091527ff3f7a9fe364faab93b216da50a3214154f22a0a2b415b23a84c8169e8b636ee30180546001600160a01b031916331790556104c8612cf0565b60025460405163123bd07560e11b815282919073__Library_______________________________90632477a0ea906122f79085908590600401613737565b60206040518083038186803b15801561230f57600080fd5b505af4158015612323573d6000803e3d6000fd5b505050506040513d601f19601f82011682018060405250810190612347919061345a565b15156001146123685760405162461bcd60e51b815260040161050690613769565b61237433600054612040565b15156001146123955760405162461bcd60e51b815260040161050690613870565b600086846123a38282612040565b156123d95760405162461bcd60e51b8152600401610506906020808252600490820152634543362d60e01b604082015260600190565b600089876123e78282612b72565b156124045760405162461bcd60e51b815260040161050690613787565b600073__AddressLibrary________________________63bc215e858e6040518263ffffffff1660e01b815260040161243d919061361e565b60206040518083038186803b15801561245557600080fd5b505af4158015612469573d6000803e3d6000fd5b505050506040513d601f19601f8201168201806040525081019061248d9190613477565b60408051600180825281830190925291925060009190602080830190803683370190505090508a816000815181106124c7576124c7613aaf565b60200260200101818152505060006040518060c001604052808481526020018f8f8080601f0160208091040260200160405190810160405280939291908181526020018383808284376000920191909152505050908252506001546020820152600380546040909201918f90811061254157612541613aaf565b90600052602060002001805461255690613a43565b80601f016020809104026020016040519081016040528092919081815260200182805461258290613a43565b80156125cf5780601f106125a4576101008083540402835291602001916125cf565b820191906000526020600020905b8154815290600101906020018083116125b257829003601f168201915b50505050508152602001838152602001600115158152509050600060028d815481106125fd576125fd613aaf565b9060005260206000209060040201905073__ItemsLibrary__________________________630b985aaa8383306040518463ffffffff1660e01b8152600401612648939291906138ac565b60006040518083038186803b15801561266057600080fd5b505af4158015612674573d6000803e3d6000fd5b5050505050505050505050505050505050505050565b60025460405163123bd07560e11b815260609160009184919073__Library_______________________________90632477a0ea906126cf9085908590600401613737565b60206040518083038186803b1580156126e757600080fd5b505af41580156126fb573d6000803e3d6000fd5b505050506040513d601f19601f8201168201806040525081019061271f919061345a565b15156001146127405760405162461bcd60e51b815260040161050690613769565b60405163bc215e8560e01b815260009073__AddressLibrary________________________9063bc215e859061277a908a9060040161361e565b60206040518083038186803b15801561279257600080fd5b505af41580156127a6573d6000803e3d6000fd5b505050506040513d601f19601f820116820180604052508101906127ca9190613477565b905073__ItemsLibrary__________________________631aeccc6a82600289815481106127fa576127fa613aaf565b90600052602060002090600402016040518363ffffffff1660e01b8152600401612825929190613737565b60006040518083038186803b15801561283d57600080fd5b505af4158015612851573d6000803e3d6000fd5b505050506040513d6000823e601f3d908101601f19168201604052612879919081019061354d565b945094505050509250929050565b60025460405163123bd07560e11b8152606091829184919073__Library_______________________________90632477a0ea906128cb9085908590600401613737565b60206040518083038186803b1580156128e357600080fd5b505af41580156128f7573d6000803e3d6000fd5b505050506040513d601f19601f8201168201806040525081019061291b919061345a565b151560011461293c5760405162461bcd60e51b815260040161050690613769565b60608073__ItemsLibrary__________________________63e035e0068960028a8154811061296d5761296d613aaf565b90600052602060002090600402016040518363ffffffff1660e01b81526004016129a39291909115158252602082015260400190565b60006040518083038186803b1580156129bb57600080fd5b505af41580156129cf573d6000803e3d6000fd5b505050506040513d6000823e601f3d908101601f191682016040526129f79190810190613363565b90999098509650505050505050565b60025460405163123bd07560e11b8152600091839173__Library_______________________________90632477a0ea90612a479085908590600401613737565b60206040518083038186803b158015612a5f57600080fd5b505af4158015612a73573d6000803e3d6000fd5b505050506040513d601f19601f82011682018060405250810190612a97919061345a565b1515600114612ab85760405162461bcd60e51b815260040161050690613769565b60405163bc215e8560e01b815260009073__AddressLibrary________________________9063bc215e8590612af290899060040161361e565b60206040518083038186803b158015612b0a57600080fd5b505af4158015612b1e573d6000803e3d6000fd5b505050506040513d601f19601f82011682018060405250810190612b429190613477565b905073__ItemsLibrary__________________________632854ed2e82600288815481106121ac576121ac613aaf565b60025460405163123bd07560e11b8152600091839173__Library_______________________________90632477a0ea90612bb39085908590600401613737565b60206040518083038186803b158015612bcb57600080fd5b505af4158015612bdf573d6000803e3d6000fd5b505050506040513d601f19601f82011682018060405250810190612c03919061345a565b1515600114612c245760405162461bcd60e51b815260040161050690613769565b60405163bc215e8560e01b815260009073__AddressLibrary________________________9063bc215e8590612c5e90899060040161361e565b60206040518083038186803b158015612c7657600080fd5b505af4158015612c8a573d6000803e3d6000fd5b505050506040513d601f19601f82011682018060405250810190612cae9190613477565b905073__ItemsLibrary__________________________6226d76682600288815481106121ac576121ac613aaf565b6000612cea826001612040565b92915050565b60065460015460405163f6001d7d60e01b815273__ItemsLibrary__________________________9263f6001d7d92612d2b92600401613737565b60206040518083038186803b158015612d4357600080fd5b505af4158015612d57573d6000803e3d6000fd5b505050506040513d601f19601f82011682018060405250810190612d7b919061345a565b15612d9057600554600155612d8e612e24565b565b60075460015460405163f6001d7d60e01b815273__ItemsLibrary__________________________9263f6001d7d92612dcb92600401613737565b60206040518083038186803b158015612de357600080fd5b505af4158015612df7573d6000803e3d6000fd5b505050506040513d601f19601f82011682018060405250810190612e1b919061345a565b15612d8e57612d8e5b6000600581905560068190556007819055612d8e90600890612f1e565b828054828255906000526020600020908101928215612e8e579160200282015b82811115612e8e5782518051612e7e918491602090910190612e9e565b5091602001919060010190612e61565b50612e9a929150612f3c565b5090565b828054612eaa90613a43565b90600052602060002090601f016020900481019282612ecc5760008555612f12565b82601f10612ee557805160ff1916838001178555612f12565b82800160010185558215612f12579182015b82811115612f12578251825591602001919060010190612ef7565b50612e9a929150612f59565b50805460008255906000526020600020908101906104c89190612f59565b80821115612e9a576000612f508282612f6e565b50600101612f3c565b5b80821115612e9a5760008155600101612f5a565b508054612f7a90613a43565b6000825580601f10612f8a575050565b601f0160209004906000526020600020908101906104c89190612f59565b80356001600160a01b0381168114612fbf57600080fd5b919050565b600082601f830112612fd557600080fd5b81356020612fea612fe58361399a565b61396a565b80838252828201915082860187848660051b890101111561300a57600080fd5b60005b858110156130305761301e82612fa8565b8452928401929084019060010161300d565b5090979650505050505050565b600082601f83011261304e57600080fd5b8151602061305e612fe58361399a565b80838252828201915082860187848660051b890101111561307e57600080fd5b60005b8581101561303057815184529284019290840190600101613081565b600082601f8301126130ae57600080fd5b81516130bc612fe5826139bd565b8181528460208386010111156130d157600080fd5b61170b826020830160208701613a13565b6000602082840312156130f457600080fd5b6108c782612fa8565b60008060006040848603121561311257600080fd5b61311b84612fa8565b925060208401356001600160401b038082111561313757600080fd5b818601915086601f83011261314b57600080fd5b81358181111561315a57600080fd5b87602082850101111561316c57600080fd5b6020830194508093505050509250925092565b60008060006060848603121561319457600080fd5b61319d84612fa8565b95602085013595506040909401359392505050565b600080604083850312156131c557600080fd5b82356001600160401b038111156131db57600080fd5b6131e785828601612fc4565b95602094909401359450505050565b600080600080600060a0868803121561320e57600080fd5b6001600160401b03863581101561322457600080fd5b6132318888358901612fc4565b95506020870135945060408701359350806060880135111561325257600080fd5b6060870135870188601f82011261326857600080fd5b613275612fe5823561399a565b8082358252602082019150602083018b6020853560051b860101111561329a57600080fd5b60005b84358110156133155785823511156132b457600080fd5b813585018d603f8201126132c757600080fd5b60208101356132d8612fe5826139bd565b8181528f60408385010111156132ed57600080fd5b816040840160208301376000602092820183015286529485019492909201915060010161329d565b505080955050505050608086013590509295509295909350565b60006020828403121561334157600080fd5b81516001600160401b0381111561335757600080fd5b61170b8482850161303d565b6000806040838503121561337657600080fd5b82516001600160401b038082111561338d57600080fd5b6133998683870161303d565b93506020915081850151818111156133b057600080fd5b8501601f810187136133c157600080fd5b80516133cf612fe58261399a565b8082825285820191508584018a878560051b87010111156133ef57600080fd5b6000805b8581101561342a57825188811115613409578283fd5b6134178e8b838b010161309d565b86525093880193918801916001016133f3565b5050508096505050505050509250929050565b60006020828403121561344f57600080fd5b81356108c781613adb565b60006020828403121561346c57600080fd5b81516108c781613adb565b60006020828403121561348957600080fd5b5051919050565b600080604083850312156134a357600080fd5b823591506134b360208401612fa8565b90509250929050565b600080600080606085870312156134d257600080fd5b8435935060208501356001600160401b03808211156134f057600080fd5b818701915087601f83011261350457600080fd5b81358181111561351357600080fd5b8860208260051b850101111561352857600080fd5b602083019550809450505050604085013561354281613adb565b939692955090935050565b6000806040838503121561356057600080fd5b82516001600160401b0381111561357657600080fd5b6135828582860161309d565b925050602083015161359381613adb565b809150509250929050565b6000602082840312156135b057600080fd5b5035919050565b600081518084526020808501945080840160005b838110156135e7578151875295820195908201906001016135cb565b509495945050505050565b6000815180845261360a816020860160208601613a13565b601f01601f19169290920160200192915050565b6001600160a01b0391909116815260200190565b60006040820160018060a01b03808616845260206040818601528286548085526060870191508760005282600020945060005b81811015613683578554851683526001958601959284019201613665565b509098975050505050505050565b6001600160a01b039390931683526020830191909152604082015260600190565b6020815260006108c760208301846135b7565b6040815260006136d860408301856135b7565b6020838203818501528185518084528284019150828160051b85010183880160005b8381101561372857601f198784030185526137168383516135f2565b948601949250908501906001016136fa565b50909998505050505050505050565b918252602082015260400190565b60408152600061375860408301856135f2565b905082151560208301529392505050565b6020808252600490820152634543312d60e01b604082015260600190565b602080825260059082015264454332372d60d81b604082015260600190565b602080825260059082015264454332382d60d81b604082015260600190565b602080825260059082015264454331392d60d81b604082015260600190565b602080825260059082015264454333312d60d81b604082015260600190565b602080825260059082015264454331372d60d81b604082015260600190565b6020808252602e908201527f496e697469616c697a61626c653a20636f6e747261637420697320616c72656160408201526d191e481a5b9a5d1a585b1a5e995960921b606082015260800190565b6020808252600490820152634543392d60e01b604082015260600190565b6020808252600490820152634543352d60e01b604082015260600190565b6060815283516060820152600060208086015160c060808501526138d46101208501826135f2565b9050604087015160a08501526060870151605f19808684030160c08701526138fc83836135f2565b60808a015187820390920160e088015281518082529185019350600092508401905b8083101561393e578351825292840192600192909201919084019061391e565b5060a0890151151561010087015292850187905250506001600160a01b0384166040840152905061170b565b604051601f8201601f191681016001600160401b038111828210171561399257613992613ac5565b604052919050565b60006001600160401b038211156139b3576139b3613ac5565b5060051b60200190565b60006001600160401b038211156139d6576139d6613ac5565b50601f01601f191660200190565b600082198211156139f7576139f7613a99565b500190565b600082821015613a0e57613a0e613a99565b500390565b60005b83811015613a2e578181015183820152602001613a16565b83811115613a3d576000848401525b50505050565b600181811c90821680613a5757607f821691505b60208210811415613a7857634e487b7160e01b600052602260045260246000fd5b50919050565b6000600019821415613a9257613a92613a99565b5060010190565b634e487b7160e01b600052601160045260246000fd5b634e487b7160e01b600052603260045260246000fd5b634e487b7160e01b600052604160045260246000fd5b80151581146104c857600080fdfea264697066735822122045baedaf5f09416d928c777c7baa9c76c338dc32496b7ee668532de150d64c0464736f6c63430008070033",
  "immutableReferences": {},
  "source": "// SPDX-License-Identifier: GPL-3.0\r\n\r\npragma solidity >=0.7.0 <0.9.0;\r\n\r\n/**\r\n * @title Storage\r\n * @dev Store & retrieve value in a variable\r\n */\r\n\r\n import \"../Abstract/MultiSigCertificatesPool.sol\";\r\n import \"@openzeppelin/contracts-upgradeable/proxy/utils/Initializable.sol\";\r\n\r\n contract PrivateCertificatesPool is Initializable, MultiSigCertificatesPool {\r\n\r\n    // CONSTRUCTOR & INIT /////////////////////////////////////////\r\n    function PrivateCertPool_init(address[] memory owners,  uint256 minOwners) public initializer \r\n    {\r\n      super.MultiSigCertPool_init(owners, minOwners);\r\n    }\r\n\r\n  }",
  "sourcePath": "C:/Users/d-aam/GitHub/Certificates/contracts/DeployedContracts/PrivateCertificatesPool.sol",
  "compiler": {
    "name": "solc",
    "version": "0.8.7+commit.e28d00a7.Emscripten.clang"
  },
  "schemaVersion": "3.3.4",
  "updatedAt": "2021-08-31T11:52:34.422Z",
  "devdoc": {
    "kind": "dev",
    "methods": {},
    "version": 1
  },
  "userdoc": {
    "kind": "user",
    "methods": {},
    "version": 1
  }
}