{
  "contractName": "PrivateCertificatesPool",
  "abi": [
    {
      "anonymous": false,
      "inputs": [
        {
          "indexed": true,
          "internalType": "address",
          "name": "",
          "type": "address"
        },
        {
          "indexed": true,
          "internalType": "address",
          "name": "",
          "type": "address"
        },
        {
          "indexed": false,
          "internalType": "bytes32",
          "name": "",
          "type": "bytes32"
        }
      ],
      "name": "_AddCertificateIdEvent",
      "type": "event"
    },
    {
      "inputs": [
        {
          "internalType": "address[]",
          "name": "owners",
          "type": "address[]"
        },
        {
          "internalType": "uint256",
          "name": "minOwners",
          "type": "uint256"
        }
      ],
      "name": "MultiSigCertPool_init",
      "outputs": [],
      "stateMutability": "nonpayable",
      "type": "function"
    },
    {
      "inputs": [
        {
          "internalType": "address[]",
          "name": "owners",
          "type": "address[]"
        },
        {
          "internalType": "uint256",
          "name": "minOwners",
          "type": "uint256"
        },
        {
          "internalType": "uint256",
          "name": "TotalEntities",
          "type": "uint256"
        },
        {
          "internalType": "string[]",
          "name": "labels",
          "type": "string[]"
        },
        {
          "internalType": "uint256",
          "name": "ownerId",
          "type": "uint256"
        }
      ],
      "name": "MultiSigContract_init",
      "outputs": [],
      "stateMutability": "nonpayable",
      "type": "function"
    },
    {
      "inputs": [
        {
          "internalType": "bytes32",
          "name": "CertificateHash",
          "type": "bytes32"
        },
        {
          "internalType": "address",
          "name": "holder",
          "type": "address"
        }
      ],
      "name": "addCertificate",
      "outputs": [],
      "stateMutability": "payable",
      "type": "function"
    },
    {
      "inputs": [
        {
          "internalType": "address",
          "name": "owner",
          "type": "address"
        },
        {
          "internalType": "string",
          "name": "ownerInfo",
          "type": "string"
        }
      ],
      "name": "addOwner",
      "outputs": [],
      "stateMutability": "nonpayable",
      "type": "function"
    },
    {
      "inputs": [
        {
          "internalType": "address",
          "name": "provider",
          "type": "address"
        },
        {
          "internalType": "string",
          "name": "providerInfo",
          "type": "string"
        }
      ],
      "name": "addProvider",
      "outputs": [],
      "stateMutability": "payable",
      "type": "function"
    },
    {
      "inputs": [
        {
          "internalType": "address",
          "name": "owner",
          "type": "address"
        }
      ],
      "name": "isOwner",
      "outputs": [
        {
          "internalType": "bool",
          "name": "",
          "type": "bool"
        }
      ],
      "stateMutability": "view",
      "type": "function"
    },
    {
      "inputs": [
        {
          "internalType": "address",
          "name": "provider",
          "type": "address"
        }
      ],
      "name": "isProvider",
      "outputs": [
        {
          "internalType": "bool",
          "name": "",
          "type": "bool"
        }
      ],
      "stateMutability": "view",
      "type": "function"
    },
    {
      "inputs": [
        {
          "internalType": "bytes32",
          "name": "item",
          "type": "bytes32"
        },
        {
          "internalType": "uint256[]",
          "name": "ids",
          "type": "uint256[]"
        },
        {
          "internalType": "bool",
          "name": "addOrRemove",
          "type": "bool"
        }
      ],
      "name": "onItemRejected",
      "outputs": [],
      "stateMutability": "nonpayable",
      "type": "function"
    },
    {
      "inputs": [
        {
          "internalType": "bytes32",
          "name": "item",
          "type": "bytes32"
        },
        {
          "internalType": "uint256[]",
          "name": "ids",
          "type": "uint256[]"
        },
        {
          "internalType": "bool",
          "name": "addOrRemove",
          "type": "bool"
        }
      ],
      "name": "onItemValidated",
      "outputs": [],
      "stateMutability": "nonpayable",
      "type": "function"
    },
    {
      "inputs": [
        {
          "internalType": "address",
          "name": "owner",
          "type": "address"
        }
      ],
      "name": "rejectOwner",
      "outputs": [],
      "stateMutability": "nonpayable",
      "type": "function"
    },
    {
      "inputs": [
        {
          "internalType": "address",
          "name": "provider",
          "type": "address"
        }
      ],
      "name": "rejectProvider",
      "outputs": [],
      "stateMutability": "nonpayable",
      "type": "function"
    },
    {
      "inputs": [
        {
          "internalType": "address",
          "name": "owner",
          "type": "address"
        }
      ],
      "name": "removeOwner",
      "outputs": [],
      "stateMutability": "nonpayable",
      "type": "function"
    },
    {
      "inputs": [
        {
          "internalType": "address",
          "name": "provider",
          "type": "address"
        }
      ],
      "name": "removeProvider",
      "outputs": [],
      "stateMutability": "nonpayable",
      "type": "function"
    },
    {
      "inputs": [],
      "name": "retrieveAllOwners",
      "outputs": [
        {
          "internalType": "address[]",
          "name": "",
          "type": "address[]"
        }
      ],
      "stateMutability": "view",
      "type": "function"
    },
    {
      "inputs": [],
      "name": "retrieveAllProviders",
      "outputs": [
        {
          "internalType": "address[]",
          "name": "",
          "type": "address[]"
        }
      ],
      "stateMutability": "view",
      "type": "function"
    },
    {
      "inputs": [
        {
          "internalType": "bytes32",
          "name": "CertificateHash",
          "type": "bytes32"
        },
        {
          "internalType": "address",
          "name": "holder",
          "type": "address"
        }
      ],
      "name": "retrieveCertificateProvider",
      "outputs": [
        {
          "internalType": "address",
          "name": "",
          "type": "address"
        }
      ],
      "stateMutability": "view",
      "type": "function"
    },
    {
      "inputs": [
        {
          "internalType": "address",
          "name": "holder",
          "type": "address"
        },
        {
          "internalType": "uint256",
          "name": "skipFirst",
          "type": "uint256"
        },
        {
          "internalType": "uint256",
          "name": "max",
          "type": "uint256"
        }
      ],
      "name": "retrieveCertificatesByHolder",
      "outputs": [
        {
          "internalType": "bytes32[]",
          "name": "",
          "type": "bytes32[]"
        }
      ],
      "stateMutability": "view",
      "type": "function"
    },
    {
      "inputs": [],
      "name": "retrieveMinOwners",
      "outputs": [
        {
          "internalType": "uint256",
          "name": "",
          "type": "uint256"
        }
      ],
      "stateMutability": "view",
      "type": "function"
    },
    {
      "inputs": [
        {
          "internalType": "address",
          "name": "owner",
          "type": "address"
        }
      ],
      "name": "retrieveOwner",
      "outputs": [
        {
          "internalType": "string",
          "name": "",
          "type": "string"
        },
        {
          "internalType": "bool",
          "name": "",
          "type": "bool"
        }
      ],
      "stateMutability": "view",
      "type": "function"
    },
    {
      "inputs": [
        {
          "internalType": "bool",
          "name": "addedORremove",
          "type": "bool"
        }
      ],
      "name": "retrievePendingOwners",
      "outputs": [
        {
          "internalType": "address[]",
          "name": "",
          "type": "address[]"
        },
        {
          "internalType": "string[]",
          "name": "",
          "type": "string[]"
        }
      ],
      "stateMutability": "view",
      "type": "function"
    },
    {
      "inputs": [
        {
          "internalType": "bool",
          "name": "addedORremove",
          "type": "bool"
        }
      ],
      "name": "retrievePendingProviders",
      "outputs": [
        {
          "internalType": "address[]",
          "name": "",
          "type": "address[]"
        },
        {
          "internalType": "string[]",
          "name": "",
          "type": "string[]"
        }
      ],
      "stateMutability": "view",
      "type": "function"
    },
    {
      "inputs": [
        {
          "internalType": "address",
          "name": "provider",
          "type": "address"
        }
      ],
      "name": "retrieveProvider",
      "outputs": [
        {
          "internalType": "string",
          "name": "",
          "type": "string"
        },
        {
          "internalType": "bool",
          "name": "",
          "type": "bool"
        }
      ],
      "stateMutability": "view",
      "type": "function"
    },
    {
      "inputs": [
        {
          "internalType": "address",
          "name": "holder",
          "type": "address"
        }
      ],
      "name": "retrieveTotalCertificatesByHolder",
      "outputs": [
        {
          "internalType": "uint256",
          "name": "",
          "type": "uint256"
        }
      ],
      "stateMutability": "view",
      "type": "function"
    },
    {
      "inputs": [
        {
          "internalType": "address",
          "name": "owner",
          "type": "address"
        }
      ],
      "name": "validateOwner",
      "outputs": [],
      "stateMutability": "nonpayable",
      "type": "function"
    },
    {
      "inputs": [
        {
          "internalType": "address",
          "name": "provider",
          "type": "address"
        }
      ],
      "name": "validateProvider",
      "outputs": [],
      "stateMutability": "nonpayable",
      "type": "function"
    },
    {
      "inputs": [
        {
          "internalType": "address[]",
          "name": "owners",
          "type": "address[]"
        },
        {
          "internalType": "uint256",
          "name": "minOwners",
          "type": "uint256"
        }
      ],
      "name": "PrivateCertPool_init",
      "outputs": [],
      "stateMutability": "nonpayable",
      "type": "function"
    }
  ],
  "bytecode": "0x608060405234801561001057600080fd5b50613789806100206000396000f3fe6080604052600436106101315760003560e01c80630b4c72a914610136578063173825d9146101585780631ab807f81461017857806327a40b4b1461018b5780632f54bf6e146101ab5780633542758f146101e057806337583499146102005780633fd071811461022e57806358a1ba251461024e57806365b973e51461027b5780636b074a071461029a5780636b299604146102ba5780636b3a0fec146102e85780636e4f9179146103085780636e55d2d41461032a57806376f8f90f1461034a57806377bc5a1f1461036a5780637c8c2add1461022e5780638a355a571461038a578063a93d5ed6146103aa578063c3ccb191146103bf578063ce33d58a146103df578063cf2041d9146103ff578063d0a4adfe1461041f578063d21c2bec14610472578063fc00050014610492575b600080fd5b34801561014257600080fd5b50610156610151366004612d07565b6104a5565b005b34801561016457600080fd5b50610156610173366004612d07565b6104b3565b61015661018636600461315b565b610508565b34801561019757600080fd5b506101566101a6366004612d07565b610516565b3480156101b757600080fd5b506101cb6101c6366004612d07565b610521565b60405190151581526020015b60405180910390f35b3480156101ec57600080fd5b506101566101fb366004612d24565b610535565b34801561020c57600080fd5b5061022061021b366004612d07565b610543565b6040516101d79291906133de565b34801561023a57600080fd5b5061015661024936600461318b565b61055b565b34801561025a57600080fd5b5061026e610269366004612da8565b610622565b6040516101d7919061338c565b34801561028757600080fd5b506001545b6040519081526020016101d7565b3480156102a657600080fd5b506101cb6102b5366004612d07565b6107c8565b3480156102c657600080fd5b506102da6102d5366004613108565b6107d5565b6040516101d792919061331a565b3480156102f457600080fd5b506102da610303366004613108565b6107e4565b34801561031457600080fd5b5061031d6107f2565b6040516101d79190613307565b34801561033657600080fd5b5061028c610345366004612d07565b610803565b34801561035657600080fd5b50610156610365366004612d07565b610821565b34801561037657600080fd5b50610220610385366004612d07565b61087c565b34801561039657600080fd5b506101566103a5366004612d07565b61088c565b3480156103b657600080fd5b5061031d610897565b3480156103cb57600080fd5b506101566103da366004612e7d565b6108a4565b3480156103eb57600080fd5b506101566103fa366004612d07565b610ad3565b34801561040b57600080fd5b5061015661041a366004612ec1565b610adf565b34801561042b57600080fd5b5061046561043a36600461315b565b6001600160a01b03908116600090815260066020908152604080832094835293905291909120541690565b6040516101d791906132d2565b34801561047e57600080fd5b5061015661048d366004612e7d565b610da1565b6101566104a0366004612d24565b610e02565b6104b0816001610e0f565b50565b60015460016104c36000546112e0565b516104ce9190613651565b808211156104f75760405162461bcd60e51b81526004016104ee90613402565b60405180910390fd5b610503836000546114d1565b505050565b6105128282611838565b5050565b6104b081600161196c565b600061052f82600054611dfd565b92915050565b610503838383600054611fee565b606060006105528360016123bd565b91509150915091565b604051630d1d719d60e41b8152309073__Library_______________________________9063d1d719d0906105949084906004016132d2565b60206040518083038186803b1580156105ac57600080fd5b505af41580156105c0573d6000803e3d6000fd5b505050506040513d601f19601f820116820180604052508101906105e49190613125565b151560011461061b5760405162461bcd60e51b815260206004820152600360248201526208a86760eb1b60448201526064016104ee565b5050505050565b60608261062e85610803565b1161064857506040805160008152602081019091526107c1565b81808461065487610803565b61065e9190613651565b101561067b578361066e86610803565b6106789190613651565b90505b6000816001600160401b038111156106955761069561371a565b6040519080825280602002602001820160405280156106be578160200160208202803683370190505b506001600160a01b03871660009081526006602090815260408083206001018054825181850281018501909352808352949550929390929183018282801561072557602002820191906000526020600020905b815481526020019060010190808311610711575b5050505050905060008060005b83518110156107b857878310610747576107b8565b818911156107615761075a600183613639565b91506107a6565b83818151811061077357610773613704565b602002602001015185848151811061078d5761078d613704565b60209081029190910101526107a3600184613639565b92505b806107b0816136d3565b915050610732565b50929450505050505b9392505050565b600061052f826001611dfd565b606080610552836000546125ba565b6060806105528360016125ba565b60606107fe60016112e0565b905090565b6001600160a01b031660009081526006602052604090206001015490565b61082d816000546127c7565b1515600114156108705760016108446000546112e0565b5161084f9190613651565b60015411156108705760405162461bcd60e51b81526004016104ee90613402565b6104b08160005461196c565b60606000610552836000546123bd565b6104b08160016114d1565b60606107fe6000546112e0565b600454610100900460ff16806108bd575060045460ff16155b6108d95760405162461bcd60e51b81526004016104ee90613479565b600454610100900460ff161580156108fb576004805461ffff19166101011790555b6040805160028082526060820190925290816020015b6060815260200190600190039081610911575050805161093991600591602090910190612a9e565b506040518060400160405280600581526020016427bbb732b960d91b815250600560008154811061096c5761096c613704565b906000526020600020019080519060200190610989929190612afb565b5060405180604001604052806008815260200167283937bb34b232b960c11b81525060056001815481106109bf576109bf613704565b9060005260206000200190805190602001906109dc929190612afb565b50610abd838360026005805480602002602001604051908101604052809291908181526020016000905b82821015610ab2578382906000526020600020018054610a2590613698565b80601f0160208091040260200160405190810160405280929190818152602001828054610a5190613698565b8015610a9e5780601f10610a7357610100808354040283529160200191610a9e565b820191906000526020600020905b815481529060010190602001808311610a8157829003601f168201915b505050505081526020019060010190610a06565b505050506000610adf565b8015610503576004805461ff0019169055505050565b6104b081600054610e0f565b600454610100900460ff1680610af8575060045460ff16155b610b145760405162461bcd60e51b81526004016104ee90613479565b600454610100900460ff16158015610b36576004805461ffff19166101011790555b84865180821115610b595760405162461bcd60e51b81526004016104ee90613402565b60008711610b925760405162461bcd60e51b81526004016104ee906020808252600490820152634543313760e01b604082015260600190565b84518614610bcb5760405162461bcd60e51b81526004016104ee9060208082526004908201526308a8662760e31b604082015260600190565b60008481555b86811015610c41576002805460010181556000528551600390879083908110610bfc57610bfc613704565b60209081029190910181015182546001810184556000938452928290208151610c2e9491909101929190910190612afb565b5080610c39816136d3565b915050610bd1565b50600187905560005b8851811015610d8457600073__AddressLibrary________________________63bc215e858b8481518110610c8157610c81613704565b60200260200101516040518263ffffffff1660e01b8152600401610ca591906132d2565b60206040518083038186803b158015610cbd57600080fd5b505af4158015610cd1573d6000803e3d6000fd5b505050506040513d601f19601f82011682018060405250810190610cf59190613142565b90506001600260005481548110610d0e57610d0e613704565b60009182526020808320858452600492909202909101905260408120805460ff19169215159290921790915554600280549091908110610d5057610d50613704565b6000918252602080832060016004909302018201805492830181558352909120015580610d7c816136d3565b915050610c4a565b5050508015610d99576004805461ff00191690555b505050505050565b600454610100900460ff1680610dba575060045460ff16155b610dd65760405162461bcd60e51b81526004016104ee90613479565b600454610100900460ff16158015610df8576004805461ffff19166101011790555b610abd83836108a4565b6105038383836001611fee565b60025460405163123bd07560e11b815282919073__Library_______________________________90632477a0ea90610e4e90859085906004016133d0565b60206040518083038186803b158015610e6657600080fd5b505af4158015610e7a573d6000803e3d6000fd5b505050506040513d601f19601f82011682018060405250810190610e9e9190613125565b1515600114610ebf5760405162461bcd60e51b81526004016104ee906134e4565b610ecb33600054611dfd565b1515600114610eec5760405162461bcd60e51b81526004016104ee906134c7565b60018484610efa8282612933565b151560011480610f155750610f0f82826127c7565b15156001145b610f315760405162461bcd60e51b81526004016104ee9061345b565b8686600073__AddressLibrary________________________63bc215e85846040518263ffffffff1660e01b8152600401610f6c91906132d2565b60206040518083038186803b158015610f8457600080fd5b505af4158015610f98573d6000803e3d6000fd5b505050506040513d601f19601f82011682018060405250810190610fbc9190613142565b905073__ItemsLibrary__________________________637b6d23de338360028681548110610fed57610fed613704565b90600052602060002090600402016040518463ffffffff1660e01b8152600401611019939291906132e6565b60206040518083038186803b15801561103157600080fd5b505af4158015611045573d6000803e3d6000fd5b505050506040513d601f19601f820116820180604052508101906110699190613125565b156110865760405162461bcd60e51b81526004016104ee9061343e565b60405163bc215e8560e01b815260009073__AddressLibrary________________________9063bc215e85906110c0908e906004016132d2565b60206040518083038186803b1580156110d857600080fd5b505af41580156110ec573d6000803e3d6000fd5b505050506040513d601f19601f820116820180604052508101906111109190613142565b60408051600180825281830190925291925060009190602080830190803683370190505090508a8160008151811061114a5761114a613704565b60200260200101818152505060006040518060c00160405280848152602001604051806020016040528060008152508152602001600154815260200160038e8154811061119957611199613704565b9060005260206000200180546111ae90613698565b80601f01602080910402602001604051908101604052809291908181526020018280546111da90613698565b80156112275780601f106111fc57610100808354040283529160200191611227565b820191906000526020600020905b81548152906001019060200180831161120a57829003601f168201915b50505050508152602001838152602001600115158152509050600060028d8154811061125557611255613704565b9060005260206000209060040201905073__ItemsLibrary__________________________635cb09bcf8383306040518463ffffffff1660e01b81526004016112a093929190613501565b60006040518083038186803b1580156112b857600080fd5b505af41580156112cc573d6000803e3d6000fd5b505050505050505050505050505050505050565b60025460405163123bd07560e11b8152606091839173__Library_______________________________90632477a0ea9061132190859085906004016133d0565b60206040518083038186803b15801561133957600080fd5b505af415801561134d573d6000803e3d6000fd5b505050506040513d601f19601f820116820180604052508101906113719190613125565b15156001146113925760405162461bcd60e51b81526004016104ee906134e4565b73__AddressLibrary________________________6391421b1173__ItemsLibrary__________________________6327724f4b600288815481106113d9576113d9613704565b90600052602060002090600402016040518263ffffffff1660e01b815260040161140591815260200190565b60006040518083038186803b15801561141d57600080fd5b505af4158015611431573d6000803e3d6000fd5b505050506040513d6000823e601f3d908101601f191682016040526114599190810190612ffa565b6040518263ffffffff1660e01b8152600401611475919061338c565b60006040518083038186803b15801561148d57600080fd5b505af41580156114a1573d6000803e3d6000fd5b505050506040513d6000823e601f3d908101601f191682016040526114c99190810190612ddd565b949350505050565b60025460405163123bd07560e11b815282919073__Library_______________________________90632477a0ea9061151090859085906004016133d0565b60206040518083038186803b15801561152857600080fd5b505af415801561153c573d6000803e3d6000fd5b505050506040513d601f19601f820116820180604052508101906115609190613125565b15156001146115815760405162461bcd60e51b81526004016104ee906134e4565b61158d33600054611dfd565b15156001146115ae5760405162461bcd60e51b81526004016104ee906134c7565b600184846115bc8282611dfd565b15156001146115f35760405162461bcd60e51b815260206004820152600360248201526245433760e81b60448201526064016104ee565b6000878761160182826127c7565b1561161e5760405162461bcd60e51b81526004016104ee90613420565b60405163bc215e8560e01b815260009073__AddressLibrary________________________9063bc215e8590611658908e906004016132d2565b60206040518083038186803b15801561167057600080fd5b505af4158015611684573d6000803e3d6000fd5b505050506040513d601f19601f820116820180604052508101906116a89190613142565b60408051600180825281830190925291925060009190602080830190803683370190505090508a816000815181106116e2576116e2613704565b60200260200101818152505060006040518060c00160405280848152602001604051806020016040528060008152508152602001600154815260200160038e8154811061173157611731613704565b90600052602060002001805461174690613698565b80601f016020809104026020016040519081016040528092919081815260200182805461177290613698565b80156117bf5780601f10611794576101008083540402835291602001916117bf565b820191906000526020600020905b8154815290600101906020018083116117a257829003601f168201915b50505050508152602001838152602001600115158152509050600060028d815481106117ed576117ed613704565b9060005260206000209060040201905073__ItemsLibrary__________________________63e23fcdef8383306040518463ffffffff1660e01b81526004016112a093929190613501565b611841336107c8565b151560011461187b5760405162461bcd60e51b81526004016104ee9060208082526004908201526322a1989960e11b604082015260600190565b816001600160a01b0380831660009081526006602090815260408083208784529091529020548391859116156118dc5760405162461bcd60e51b81526004016104ee906020808252600490820152634543313560e01b604082015260600190565b6001600160a01b03841660008181526006602081815260408084208a855280835281852080546001600160a01b031916339081179091559383526001908101805491820181558552919093200188905590517f5df0098933b25c2c0156d07a036bf41f5a90b521ab9c00c82fdfad6a4d9d76989061195d9089815260200190565b60405180910390a35050505050565b60025460405163123bd07560e11b815282919073__Library_______________________________90632477a0ea906119ab90859085906004016133d0565b60206040518083038186803b1580156119c357600080fd5b505af41580156119d7573d6000803e3d6000fd5b505050506040513d601f19601f820116820180604052508101906119fb9190613125565b1515600114611a1c5760405162461bcd60e51b81526004016104ee906134e4565b611a2833600054611dfd565b1515600114611a495760405162461bcd60e51b81526004016104ee906134c7565b60018484611a578282612933565b151560011480611a725750611a6c82826127c7565b15156001145b611a8e5760405162461bcd60e51b81526004016104ee9061345b565b8686600073__AddressLibrary________________________63bc215e85846040518263ffffffff1660e01b8152600401611ac991906132d2565b60206040518083038186803b158015611ae157600080fd5b505af4158015611af5573d6000803e3d6000fd5b505050506040513d601f19601f82011682018060405250810190611b199190613142565b905073__ItemsLibrary__________________________637b6d23de338360028681548110611b4a57611b4a613704565b90600052602060002090600402016040518463ffffffff1660e01b8152600401611b76939291906132e6565b60206040518083038186803b158015611b8e57600080fd5b505af4158015611ba2573d6000803e3d6000fd5b505050506040513d601f19601f82011682018060405250810190611bc69190613125565b15611be35760405162461bcd60e51b81526004016104ee9061343e565b60405163bc215e8560e01b815260009073__AddressLibrary________________________9063bc215e8590611c1d908e906004016132d2565b60206040518083038186803b158015611c3557600080fd5b505af4158015611c49573d6000803e3d6000fd5b505050506040513d601f19601f82011682018060405250810190611c6d9190613142565b60408051600180825281830190925291925060009190602080830190803683370190505090508a81600081518110611ca757611ca7613704565b60200260200101818152505060006040518060c00160405280848152602001604051806020016040528060008152508152602001600154815260200160038e81548110611cf657611cf6613704565b906000526020600020018054611d0b90613698565b80601f0160208091040260200160405190810160405280929190818152602001828054611d3790613698565b8015611d845780601f10611d5957610100808354040283529160200191611d84565b820191906000526020600020905b815481529060010190602001808311611d6757829003601f168201915b50505050508152602001838152602001600115158152509050600060028d81548110611db257611db2613704565b9060005260206000209060040201905073__ItemsLibrary__________________________637493a70b8383306040518463ffffffff1660e01b81526004016112a093929190613501565b60025460405163123bd07560e11b8152600091839173__Library_______________________________90632477a0ea90611e3e90859085906004016133d0565b60206040518083038186803b158015611e5657600080fd5b505af4158015611e6a573d6000803e3d6000fd5b505050506040513d601f19601f82011682018060405250810190611e8e9190613125565b1515600114611eaf5760405162461bcd60e51b81526004016104ee906134e4565b60405163bc215e8560e01b815260009073__AddressLibrary________________________9063bc215e8590611ee99089906004016132d2565b60206040518083038186803b158015611f0157600080fd5b505af4158015611f15573d6000803e3d6000fd5b505050506040513d601f19601f82011682018060405250810190611f399190613142565b905073__ItemsLibrary__________________________63dbdfbeec8260028881548110611f6957611f69613704565b90600052602060002090600402016040518363ffffffff1660e01b8152600401611f949291906133d0565b60206040518083038186803b158015611fac57600080fd5b505af4158015611fc0573d6000803e3d6000fd5b505050506040513d601f19601f82011682018060405250810190611fe49190613125565b9695505050505050565b60025460405163123bd07560e11b815282919073__Library_______________________________90632477a0ea9061202d90859085906004016133d0565b60206040518083038186803b15801561204557600080fd5b505af4158015612059573d6000803e3d6000fd5b505050506040513d601f19601f8201168201806040525081019061207d9190613125565b151560011461209e5760405162461bcd60e51b81526004016104ee906134e4565b6120aa33600054611dfd565b15156001146120cb5760405162461bcd60e51b81526004016104ee906134c7565b600086846120d98282611dfd565b1561210c5760405162461bcd60e51b815260206004820152600360248201526222a19b60e91b60448201526064016104ee565b6000898761211a8282612933565b156121375760405162461bcd60e51b81526004016104ee90613420565b600073__AddressLibrary________________________63bc215e858e6040518263ffffffff1660e01b815260040161217091906132d2565b60206040518083038186803b15801561218857600080fd5b505af415801561219c573d6000803e3d6000fd5b505050506040513d601f19601f820116820180604052508101906121c09190613142565b60408051600180825281830190925291925060009190602080830190803683370190505090508a816000815181106121fa576121fa613704565b60200260200101818152505060006040518060c001604052808481526020018f8f8080601f0160208091040260200160405190810160405280939291908181526020018383808284376000920191909152505050908252506001546020820152600380546040909201918f90811061227457612274613704565b90600052602060002001805461228990613698565b80601f01602080910402602001604051908101604052809291908181526020018280546122b590613698565b80156123025780601f106122d757610100808354040283529160200191612302565b820191906000526020600020905b8154815290600101906020018083116122e557829003601f168201915b50505050508152602001838152602001600115158152509050600060028d8154811061233057612330613704565b9060005260206000209060040201905073__ItemsLibrary__________________________630b985aaa8383306040518463ffffffff1660e01b815260040161237b93929190613501565b60006040518083038186803b15801561239357600080fd5b505af41580156123a7573d6000803e3d6000fd5b5050505050505050505050505050505050505050565b60025460405163123bd07560e11b815260609160009184919073__Library_______________________________90632477a0ea9061240290859085906004016133d0565b60206040518083038186803b15801561241a57600080fd5b505af415801561242e573d6000803e3d6000fd5b505050506040513d601f19601f820116820180604052508101906124529190613125565b15156001146124735760405162461bcd60e51b81526004016104ee906134e4565b60405163bc215e8560e01b815260009073__AddressLibrary________________________9063bc215e85906124ad908a906004016132d2565b60206040518083038186803b1580156124c557600080fd5b505af41580156124d9573d6000803e3d6000fd5b505050506040513d601f19601f820116820180604052508101906124fd9190613142565b905073__ItemsLibrary__________________________631aeccc6a826002898154811061252d5761252d613704565b90600052602060002090600402016040518363ffffffff1660e01b81526004016125589291906133d0565b60006040518083038186803b15801561257057600080fd5b505af4158015612584573d6000803e3d6000fd5b505050506040513d6000823e601f3d908101601f191682016040526125ac919081019061321c565b945094505050509250929050565b60025460405163123bd07560e11b8152606091829184919073__Library_______________________________90632477a0ea906125fe90859085906004016133d0565b60206040518083038186803b15801561261657600080fd5b505af415801561262a573d6000803e3d6000fd5b505050506040513d601f19601f8201168201806040525081019061264e9190613125565b151560011461266f5760405162461bcd60e51b81526004016104ee906134e4565b60608073__ItemsLibrary__________________________63e035e0068960028a815481106126a0576126a0613704565b90600052602060002090600402016040518363ffffffff1660e01b81526004016126d69291909115158252602082015260400190565b60006040518083038186803b1580156126ee57600080fd5b505af4158015612702573d6000803e3d6000fd5b505050506040513d6000823e601f3d908101601f1916820160405261272a919081019061302e565b6040516391421b1160e01b8152919350915073__AddressLibrary________________________906391421b119061276690859060040161338c565b60006040518083038186803b15801561277e57600080fd5b505af4158015612792573d6000803e3d6000fd5b505050506040513d6000823e601f3d908101601f191682016040526127ba9190810190612ddd565b9890975095505050505050565b60025460405163123bd07560e11b8152600091839173__Library_______________________________90632477a0ea9061280890859085906004016133d0565b60206040518083038186803b15801561282057600080fd5b505af4158015612834573d6000803e3d6000fd5b505050506040513d601f19601f820116820180604052508101906128589190613125565b15156001146128795760405162461bcd60e51b81526004016104ee906134e4565b60405163bc215e8560e01b815260009073__AddressLibrary________________________9063bc215e85906128b39089906004016132d2565b60206040518083038186803b1580156128cb57600080fd5b505af41580156128df573d6000803e3d6000fd5b505050506040513d601f19601f820116820180604052508101906129039190613142565b905073__ItemsLibrary__________________________632854ed2e8260028881548110611f6957611f69613704565b60025460405163123bd07560e11b8152600091839173__Library_______________________________90632477a0ea9061297490859085906004016133d0565b60206040518083038186803b15801561298c57600080fd5b505af41580156129a0573d6000803e3d6000fd5b505050506040513d601f19601f820116820180604052508101906129c49190613125565b15156001146129e55760405162461bcd60e51b81526004016104ee906134e4565b60405163bc215e8560e01b815260009073__AddressLibrary________________________9063bc215e8590612a1f9089906004016132d2565b60206040518083038186803b158015612a3757600080fd5b505af4158015612a4b573d6000803e3d6000fd5b505050506040513d601f19601f82011682018060405250810190612a6f9190613142565b905073__ItemsLibrary__________________________6226d7668260028881548110611f6957611f69613704565b828054828255906000526020600020908101928215612aeb579160200282015b82811115612aeb5782518051612adb918491602090910190612afb565b5091602001919060010190612abe565b50612af7929150612b7b565b5090565b828054612b0790613698565b90600052602060002090601f016020900481019282612b295760008555612b6f565b82601f10612b4257805160ff1916838001178555612b6f565b82800160010185558215612b6f579182015b82811115612b6f578251825591602001919060010190612b54565b50612af7929150612b98565b80821115612af7576000612b8f8282612bad565b50600101612b7b565b5b80821115612af75760008155600101612b99565b508054612bb990613698565b6000825580601f10612bc9575050565b601f0160209004906000526020600020908101906104b09190612b98565b600082601f830112612bf857600080fd5b81356020612c0d612c08836135ef565b6135bf565b80838252828201915082860187848660051b8901011115612c2d57600080fd5b60005b85811015612c55578135612c4381613730565b84529284019290840190600101612c30565b5090979650505050505050565b600082601f830112612c7357600080fd5b81516020612c83612c08836135ef565b80838252828201915082860187848660051b8901011115612ca357600080fd5b60005b85811015612c5557815184529284019290840190600101612ca6565b600082601f830112612cd357600080fd5b8151612ce1612c0882613612565b818152846020838601011115612cf657600080fd5b6114c9826020830160208701613668565b600060208284031215612d1957600080fd5b81356107c181613730565b600080600060408486031215612d3957600080fd5b8335612d4481613730565b925060208401356001600160401b0380821115612d6057600080fd5b818601915086601f830112612d7457600080fd5b813581811115612d8357600080fd5b876020828501011115612d9557600080fd5b6020830194508093505050509250925092565b600080600060608486031215612dbd57600080fd5b8335612dc881613730565b95602085013595506040909401359392505050565b60006020808385031215612df057600080fd5b82516001600160401b03811115612e0657600080fd5b8301601f81018513612e1757600080fd5b8051612e25612c08826135ef565b80828252848201915084840188868560051b8701011115612e4557600080fd5b600094505b83851015612e71578051612e5d81613730565b835260019490940193918501918501612e4a565b50979650505050505050565b60008060408385031215612e9057600080fd5b82356001600160401b03811115612ea657600080fd5b612eb285828601612be7565b95602094909401359450505050565b600080600080600060a08688031215612ed957600080fd5b6001600160401b038635811015612eef57600080fd5b612efc8888358901612be7565b955060208701359450604087013593508060608801351115612f1d57600080fd5b6060870135870188601f820112612f3357600080fd5b612f40612c0882356135ef565b8082358252602082019150602083018b6020853560051b8601011115612f6557600080fd5b60005b8435811015612fe0578582351115612f7f57600080fd5b813585018d603f820112612f9257600080fd5b6020810135612fa3612c0882613612565b8181528f6040838501011115612fb857600080fd5b8160408401602083013760006020928201830152865294850194929092019150600101612f68565b505080955050505050608086013590509295509295909350565b60006020828403121561300c57600080fd5b81516001600160401b0381111561302257600080fd5b6114c984828501612c62565b6000806040838503121561304157600080fd5b82516001600160401b038082111561305857600080fd5b61306486838701612c62565b935060209150818501518181111561307b57600080fd5b8501601f8101871361308c57600080fd5b805161309a612c08826135ef565b8082825285820191508584018a878560051b87010111156130ba57600080fd5b6000805b858110156130f5578251888111156130d4578283fd5b6130e28e8b838b0101612cc2565b86525093880193918801916001016130be565b5050508096505050505050509250929050565b60006020828403121561311a57600080fd5b81356107c181613745565b60006020828403121561313757600080fd5b81516107c181613745565b60006020828403121561315457600080fd5b5051919050565b6000806040838503121561316e57600080fd5b82359150602083013561318081613730565b809150509250929050565b600080600080606085870312156131a157600080fd5b8435935060208501356001600160401b03808211156131bf57600080fd5b818701915087601f8301126131d357600080fd5b8135818111156131e257600080fd5b8860208260051b85010111156131f757600080fd5b602083019550809450505050604085013561321181613745565b939692955090935050565b6000806040838503121561322f57600080fd5b82516001600160401b0381111561324557600080fd5b61325185828601612cc2565b925050602083015161318081613745565b600081518084526020808501945080840160005b8381101561329b5781516001600160a01b031687529582019590820190600101613276565b509495945050505050565b600081518084526132be816020860160208601613668565b601f01601f19169290920160200192915050565b6001600160a01b0391909116815260200190565b6001600160a01b039390931683526020830191909152604082015260600190565b6020815260006107c16020830184613262565b60408152600061332d6040830185613262565b6020838203818501528185518084528284019150828160051b85010183880160005b8381101561337d57601f1987840301855261336b8383516132a6565b9486019492509085019060010161334f565b50909998505050505050505050565b6020808252825182820181905260009190848201906040850190845b818110156133c4578351835292840192918401916001016133a8565b50909695505050505050565b918252602082015260400190565b6040815260006133f160408301856132a6565b905082151560208301529392505050565b6020808252600490820152634543313960e01b604082015260600190565b6020808252600490820152634543323760e01b604082015260600190565b60208082526003908201526245433560e81b604082015260600190565b60208082526004908201526308a8664760e31b604082015260600190565b6020808252602e908201527f496e697469616c697a61626c653a20636f6e747261637420697320616c72656160408201526d191e481a5b9a5d1a585b1a5e995960921b606082015260800190565b60208082526003908201526245433960e81b604082015260600190565b60208082526003908201526245433160e81b604082015260600190565b6060815283516060820152600060208086015160c060808501526135296101208501826132a6565b9050604087015160a08501526060870151605f19808684030160c087015261355183836132a6565b60808a015187820390920160e088015281518082529185019350600092508401905b808310156135935783518252928401926001929092019190840190613573565b5060a0890151151561010087015292850187905250506001600160a01b038416604084015290506114c9565b604051601f8201601f191681016001600160401b03811182821017156135e7576135e761371a565b604052919050565b60006001600160401b038211156136085761360861371a565b5060051b60200190565b60006001600160401b0382111561362b5761362b61371a565b50601f01601f191660200190565b6000821982111561364c5761364c6136ee565b500190565b600082821015613663576136636136ee565b500390565b60005b8381101561368357818101518382015260200161366b565b83811115613692576000848401525b50505050565b600181811c908216806136ac57607f821691505b602082108114156136cd57634e487b7160e01b600052602260045260246000fd5b50919050565b60006000198214156136e7576136e76136ee565b5060010190565b634e487b7160e01b600052601160045260246000fd5b634e487b7160e01b600052603260045260246000fd5b634e487b7160e01b600052604160045260246000fd5b6001600160a01b03811681146104b057600080fd5b80151581146104b057600080fdfea264697066735822122099edd0a0f10c894158e5b884b59844feca300c59b4e6ae01220662a274f7d7a564736f6c63430008060033",
  "immutableReferences": {},
  "source": "// SPDX-License-Identifier: GPL-3.0\r\n\r\npragma solidity >=0.7.0 <0.9.0;\r\npragma experimental ABIEncoderV2;\r\n\r\n/**\r\n * @title Storage\r\n * @dev Store & retrieve value in a variable\r\n */\r\n\r\n import \"../Abstract/MultiSigCertificatesPool.sol\";\r\n import \"@openzeppelin/contracts-upgradeable/proxy/utils/Initializable.sol\";\r\n\r\n contract PrivateCertificatesPool is Initializable, MultiSigCertificatesPool {\r\n\r\n    // CONSTRUCTOR & INIT /////////////////////////////////////////\r\n    function PrivateCertPool_init(address[] memory owners,  uint256 minOwners) public initializer \r\n    {\r\n      super.MultiSigCertPool_init(owners, minOwners);\r\n    }\r\n\r\n  }",
  "sourcePath": "C:/Users/d-aam/GitHub/Certificates/contracts/DeployedContracts/PrivateCertificatesPool.sol",
  "compiler": {
    "name": "solc",
    "version": "0.8.6+commit.11564f7e.Emscripten.clang"
  },
  "schemaVersion": "3.3.4",
  "updatedAt": "2021-08-10T11:14:25.706Z",
  "devdoc": {
    "kind": "dev",
    "methods": {},
    "version": 1
  },
  "userdoc": {
    "kind": "user",
    "methods": {},
    "version": 1
  }
}