{
  "contractName": "PrivateCertificatesPool",
  "abi": [
    {
      "inputs": [
        {
          "internalType": "address[]",
          "name": "owners",
          "type": "address[]"
        },
        {
          "internalType": "uint256",
          "name": "minOwners",
          "type": "uint256"
        }
      ],
      "stateMutability": "payable",
      "type": "constructor"
    },
    {
      "anonymous": false,
      "inputs": [
        {
          "indexed": false,
          "internalType": "address",
          "name": "",
          "type": "address"
        },
        {
          "indexed": false,
          "internalType": "address",
          "name": "",
          "type": "address"
        },
        {
          "indexed": false,
          "internalType": "uint256",
          "name": "",
          "type": "uint256"
        }
      ],
      "name": "_AddCertificateIdEvent",
      "type": "event"
    },
    {
      "anonymous": false,
      "inputs": [
        {
          "indexed": false,
          "internalType": "string",
          "name": "",
          "type": "string"
        },
        {
          "indexed": false,
          "internalType": "address",
          "name": "",
          "type": "address"
        }
      ],
      "name": "_AddEntityValidationIdEvent",
      "type": "event"
    },
    {
      "anonymous": false,
      "inputs": [
        {
          "indexed": false,
          "internalType": "address",
          "name": "",
          "type": "address"
        },
        {
          "indexed": false,
          "internalType": "address",
          "name": "",
          "type": "address"
        },
        {
          "indexed": false,
          "internalType": "uint256",
          "name": "",
          "type": "uint256"
        }
      ],
      "name": "_RemoveCertificateIdEvent",
      "type": "event"
    },
    {
      "anonymous": false,
      "inputs": [
        {
          "indexed": false,
          "internalType": "string",
          "name": "",
          "type": "string"
        },
        {
          "indexed": false,
          "internalType": "address",
          "name": "",
          "type": "address"
        }
      ],
      "name": "_RemoveEntityValidationIdEvent",
      "type": "event"
    },
    {
      "anonymous": false,
      "inputs": [
        {
          "indexed": false,
          "internalType": "address",
          "name": "",
          "type": "address"
        },
        {
          "indexed": false,
          "internalType": "address",
          "name": "",
          "type": "address"
        },
        {
          "indexed": false,
          "internalType": "uint256",
          "name": "",
          "type": "uint256"
        }
      ],
      "name": "_UpdateCertificateIdEvent",
      "type": "event"
    },
    {
      "anonymous": false,
      "inputs": [
        {
          "indexed": false,
          "internalType": "string",
          "name": "",
          "type": "string"
        },
        {
          "indexed": false,
          "internalType": "address",
          "name": "",
          "type": "address"
        }
      ],
      "name": "_UpdateEntityValidationIdEvent",
      "type": "event"
    },
    {
      "inputs": [
        {
          "internalType": "bytes",
          "name": "CertificateHash",
          "type": "bytes"
        },
        {
          "internalType": "address",
          "name": "holder",
          "type": "address"
        }
      ],
      "name": "addCertificate",
      "outputs": [],
      "stateMutability": "nonpayable",
      "type": "function"
    },
    {
      "inputs": [
        {
          "internalType": "address",
          "name": "owner",
          "type": "address"
        },
        {
          "internalType": "string",
          "name": "ownerInfo",
          "type": "string"
        }
      ],
      "name": "addOwner",
      "outputs": [],
      "stateMutability": "nonpayable",
      "type": "function"
    },
    {
      "inputs": [
        {
          "internalType": "address",
          "name": "owner",
          "type": "address"
        }
      ],
      "name": "isOwner",
      "outputs": [
        {
          "internalType": "bool",
          "name": "",
          "type": "bool"
        }
      ],
      "stateMutability": "view",
      "type": "function"
    },
    {
      "inputs": [
        {
          "internalType": "address",
          "name": "provider",
          "type": "address"
        }
      ],
      "name": "isProvider",
      "outputs": [
        {
          "internalType": "bool",
          "name": "",
          "type": "bool"
        }
      ],
      "stateMutability": "view",
      "type": "function"
    },
    {
      "inputs": [
        {
          "internalType": "uint256",
          "name": "CertificateId",
          "type": "uint256"
        },
        {
          "internalType": "address",
          "name": "holder",
          "type": "address"
        }
      ],
      "name": "removeCertificate",
      "outputs": [],
      "stateMutability": "nonpayable",
      "type": "function"
    },
    {
      "inputs": [
        {
          "internalType": "address",
          "name": "owner",
          "type": "address"
        }
      ],
      "name": "removeOwner",
      "outputs": [],
      "stateMutability": "nonpayable",
      "type": "function"
    },
    {
      "inputs": [],
      "name": "retrieveAllOwners",
      "outputs": [
        {
          "internalType": "address[]",
          "name": "",
          "type": "address[]"
        }
      ],
      "stateMutability": "view",
      "type": "function"
    },
    {
      "inputs": [],
      "name": "retrieveAllProviders",
      "outputs": [
        {
          "internalType": "address[]",
          "name": "",
          "type": "address[]"
        }
      ],
      "stateMutability": "view",
      "type": "function"
    },
    {
      "inputs": [
        {
          "internalType": "uint256",
          "name": "CertificateId",
          "type": "uint256"
        },
        {
          "internalType": "address",
          "name": "holder",
          "type": "address"
        }
      ],
      "name": "retrieveCertificate",
      "outputs": [
        {
          "internalType": "address",
          "name": "",
          "type": "address"
        },
        {
          "internalType": "bytes",
          "name": "",
          "type": "bytes"
        }
      ],
      "stateMutability": "view",
      "type": "function"
    },
    {
      "inputs": [
        {
          "internalType": "address",
          "name": "provider",
          "type": "address"
        },
        {
          "internalType": "address",
          "name": "holder",
          "type": "address"
        }
      ],
      "name": "retrieveCertificatesByProviderAndHolder",
      "outputs": [
        {
          "internalType": "uint256[]",
          "name": "",
          "type": "uint256[]"
        }
      ],
      "stateMutability": "view",
      "type": "function"
    },
    {
      "inputs": [
        {
          "internalType": "address",
          "name": "owner",
          "type": "address"
        }
      ],
      "name": "retrieveOwner",
      "outputs": [
        {
          "internalType": "string",
          "name": "",
          "type": "string"
        }
      ],
      "stateMutability": "view",
      "type": "function"
    },
    {
      "inputs": [
        {
          "internalType": "address",
          "name": "provider",
          "type": "address"
        }
      ],
      "name": "retrieveProvider",
      "outputs": [
        {
          "internalType": "string",
          "name": "",
          "type": "string"
        }
      ],
      "stateMutability": "view",
      "type": "function"
    },
    {
      "inputs": [
        {
          "internalType": "address",
          "name": "holder",
          "type": "address"
        }
      ],
      "name": "retrieveTotalCertificatesByHolder",
      "outputs": [
        {
          "internalType": "uint256",
          "name": "",
          "type": "uint256"
        }
      ],
      "stateMutability": "view",
      "type": "function"
    },
    {
      "inputs": [
        {
          "internalType": "address",
          "name": "provider",
          "type": "address"
        },
        {
          "internalType": "address",
          "name": "holder",
          "type": "address"
        }
      ],
      "name": "retrieveTotalCertificatesByProviderAndHolder",
      "outputs": [
        {
          "internalType": "uint256",
          "name": "",
          "type": "uint256"
        }
      ],
      "stateMutability": "view",
      "type": "function"
    },
    {
      "inputs": [],
      "name": "retrieveTotalOwners",
      "outputs": [
        {
          "internalType": "uint256",
          "name": "",
          "type": "uint256"
        }
      ],
      "stateMutability": "view",
      "type": "function"
    },
    {
      "inputs": [],
      "name": "retrieveTotalProviders",
      "outputs": [
        {
          "internalType": "uint256",
          "name": "",
          "type": "uint256"
        }
      ],
      "stateMutability": "view",
      "type": "function"
    },
    {
      "inputs": [
        {
          "internalType": "uint256",
          "name": "CertificateId",
          "type": "uint256"
        },
        {
          "internalType": "address",
          "name": "holder",
          "type": "address"
        },
        {
          "internalType": "bytes",
          "name": "CertificateHash",
          "type": "bytes"
        }
      ],
      "name": "updateCertificate",
      "outputs": [],
      "stateMutability": "nonpayable",
      "type": "function"
    },
    {
      "inputs": [
        {
          "internalType": "address",
          "name": "owner",
          "type": "address"
        },
        {
          "internalType": "string",
          "name": "ownerInfo",
          "type": "string"
        }
      ],
      "name": "updateOwner",
      "outputs": [],
      "stateMutability": "nonpayable",
      "type": "function"
    },
    {
      "inputs": [
        {
          "internalType": "address",
          "name": "provider",
          "type": "address"
        },
        {
          "internalType": "string",
          "name": "providerInfo",
          "type": "string"
        }
      ],
      "name": "updateProvider",
      "outputs": [],
      "stateMutability": "nonpayable",
      "type": "function"
    },
    {
      "inputs": [
        {
          "internalType": "address",
          "name": "provider",
          "type": "address"
        },
        {
          "internalType": "string",
          "name": "providerInfo",
          "type": "string"
        }
      ],
      "name": "addProvider",
      "outputs": [],
      "stateMutability": "nonpayable",
      "type": "function"
    },
    {
      "inputs": [
        {
          "internalType": "address",
          "name": "provider",
          "type": "address"
        }
      ],
      "name": "removeProvider",
      "outputs": [],
      "stateMutability": "nonpayable",
      "type": "function"
    }
  ],
  "bytecode": "0x608060405260405180604001604052806040518060400160405280600581526020017f4f776e657200000000000000000000000000000000000000000000000000000081525081526020016040518060400160405280600881526020017f50726f766964657200000000000000000000000000000000000000000000000081525081525060049060026200009592919062000586565b506040516200651a3803806200651a83398181016040526040811015620000bb57600080fd5b8101908080516040519392919084640100000000821115620000dc57600080fd5b83820191506020820185811115620000f357600080fd5b82518660208202830111640100000000821117156200011157600080fd5b8083526020830192505050908051906020019060200280838360005b838110156200014a5780820151818401526020810190506200012d565b50505050905001604052602001805190602001909291905050508181818160026004805480602002602001604051908101604052809291908181526020016000905b828210156200024e578382906000526020600020018054600181600116156101000203166002900480601f016020809104026020016040519081016040528092919081815260200182805460018160011615610100020316600290048015620002395780601f106200020d5761010080835404028352916020019162000239565b820191906000526020600020905b8154815290600101906020018083116200021b57829003601f168201915b5050505050815260200190600101906200018c565b5050505060008451841115620002b0576040517f08c379a000000000000000000000000000000000000000000000000000000000815260040180806020018281038252603c815260200180620064de603c913960400191505060405180910390fd5b6000841162000327576040517f08c379a00000000000000000000000000000000000000000000000000000000081526004018080602001828103825260188152602001807f4174206c656173742031206d696e696d756d206f776e6572000000000000000081525060200191505060405180910390fd5b815183146200039e576040517f08c379a000000000000000000000000000000000000000000000000000000000815260040180806020018281038252601d8152602001807f4e6f7420656e6f756768206f7220746f6f206d616e79206c6162656c7300000081525060200191505060405180910390fd5b8060008190555060005b838110156200042f576003600181600181540180825580915050039060005260206000209050506002838281518110620003de57fe5b602002602001015190806001815401808255809150506001900390600052602060002001600090919091909150908051906020019062000420929190620005ed565b508080600101915050620003a8565b508360018190555060005b8551811015620005765760016003600054815481106200045657fe5b906000526020600020906002020160000160008884815181106200047657fe5b602002602001015173ffffffffffffffffffffffffffffffffffffffff1673ffffffffffffffffffffffffffffffffffffffff16815260200190815260200160002060010160006101000a81548160ff021916908315150217905550600360005481548110620004e257fe5b90600052602060002090600202016001018682815181106200050057fe5b60200260200101519080600181540180825580915050600190039060005260206000200160009091909190916101000a81548173ffffffffffffffffffffffffffffffffffffffff021916908373ffffffffffffffffffffffffffffffffffffffff16021790555080806001019150506200043a565b5050505050505050505062000717565b828054828255906000526020600020908101928215620005da579160200282015b82811115620005d9578251829080519060200190620005c8929190620005ed565b5091602001919060010190620005a7565b5b509050620005e9919062000684565b5090565b828054600181600116156101000203166002900490600052602060002090601f01602090048101928262000625576000855562000671565b82601f106200064057805160ff191683800117855562000671565b8280016001018555821562000671579182015b828111156200067057825182559160200191906001019062000653565b5b509050620006809190620006ac565b5090565b5b80821115620006a857600081816200069e9190620006cb565b5060010162000685565b5090565b5b80821115620006c7576000816000905550600101620006ad565b5090565b50805460018160011615610100020316600290046000825580601f10620006f3575062000714565b601f016020900490600052602060002090810190620007139190620006ac565b5b50565b615db780620007276000396000f3fe608060405234801561001057600080fd5b50600436106101375760003560e01c80636e55d2d4116100b85780639fc104361161007c5780639fc104361461099e578063a93d5ed614610a79578063d744d2f314610ad8578063eefe768114610af6578063fc00050014610b14578063fd90ae7614610bef57610137565b80636e55d2d4146106b157806377bc5a1f146107095780637c5a1bdb146107c65780638a355a57146108a15780639a90be9e146108e557610137565b80633542758f116100ff5780633542758f1461041257806337583499146104ed5780633bc6fe0e146105aa5780636b074a07146105f85780636e4f91791461065257610137565b80631270db7a1461013c5780631660c22a146101b4578063173825d91461028f5780632f54bf6e146102d3578063308206eb1461032d575b600080fd5b61019e6004803603604081101561015257600080fd5b81019080803573ffffffffffffffffffffffffffffffffffffffff169060200190929190803573ffffffffffffffffffffffffffffffffffffffff169060200190929190505050610cd3565b6040518082815260200191505060405180910390f35b61028d600480360360408110156101ca57600080fd5b81019080803573ffffffffffffffffffffffffffffffffffffffff1690602001909291908035906020019064010000000081111561020757600080fd5b82018360208201111561021957600080fd5b8035906020019184600183028401116401000000008311171561023b57600080fd5b91908080601f016020809104026020016040519081016040528093929190818152602001838380828437600081840152601f19601f820116905080830192505050505050509192919290505050610df5565b005b6102d1600480360360208110156102a557600080fd5b81019080803573ffffffffffffffffffffffffffffffffffffffff169060200190929190505050610e05565b005b610315600480360360208110156102e957600080fd5b81019080803573ffffffffffffffffffffffffffffffffffffffff169060200190929190505050610e14565b60405180821515815260200191505060405180910390f35b6104106004803603606081101561034357600080fd5b8101908080359060200190929190803573ffffffffffffffffffffffffffffffffffffffff1690602001909291908035906020019064010000000081111561038a57600080fd5b82018360208201111561039c57600080fd5b803590602001918460018302840111640100000000831117156103be57600080fd5b91908080601f016020809104026020016040519081016040528093929190818152602001838380828437600081840152601f19601f820116905080830192505050505050509192919290505050610e29565b005b6104eb6004803603604081101561042857600080fd5b81019080803573ffffffffffffffffffffffffffffffffffffffff1690602001909291908035906020019064010000000081111561046557600080fd5b82018360208201111561047757600080fd5b8035906020019184600183028401116401000000008311171561049957600080fd5b91908080601f016020809104026020016040519081016040528093929190818152602001838380828437600081840152601f19601f8201169050808301925050505050505091929192905050506112be565b005b61052f6004803603602081101561050357600080fd5b81019080803573ffffffffffffffffffffffffffffffffffffffff1690602001909291905050506112cf565b6040518080602001828103825283818151815260200191508051906020019080838360005b8381101561056f578082015181840152602081019050610554565b50505050905090810190601f16801561059c5780820380516001836020036101000a031916815260200191505b509250505060405180910390f35b6105f6600480360360408110156105c057600080fd5b8101908080359060200190929190803573ffffffffffffffffffffffffffffffffffffffff1690602001909291905050506112e3565b005b61063a6004803603602081101561060e57600080fd5b81019080803573ffffffffffffffffffffffffffffffffffffffff16906020019092919050505061175c565b60405180821515815260200191505060405180910390f35b61065a611770565b6040518080602001828103825283818151815260200191508051906020019060200280838360005b8381101561069d578082015181840152602081019050610682565b505050509050019250505060405180910390f35b6106f3600480360360208110156106c757600080fd5b81019080803573ffffffffffffffffffffffffffffffffffffffff169060200190929190505050611781565b6040518082815260200191505060405180910390f35b61074b6004803603602081101561071f57600080fd5b81019080803573ffffffffffffffffffffffffffffffffffffffff1690602001909291905050506117cd565b6040518080602001828103825283818151815260200191508051906020019080838360005b8381101561078b578082015181840152602081019050610770565b50505050905090810190601f1680156107b85780820380516001836020036101000a031916815260200191505b509250505060405180910390f35b61089f600480360360408110156107dc57600080fd5b81019080803590602001906401000000008111156107f957600080fd5b82018360208201111561080b57600080fd5b8035906020019184600183028401116401000000008311171561082d57600080fd5b91908080601f016020809104026020016040519081016040528093929190818152602001838380828437600081840152601f19601f820116905080830192505050505050509192919290803573ffffffffffffffffffffffffffffffffffffffff1690602001909291905050506117e2565b005b6108e3600480360360208110156108b757600080fd5b81019080803573ffffffffffffffffffffffffffffffffffffffff169060200190929190505050611a7b565b005b610947600480360360408110156108fb57600080fd5b81019080803573ffffffffffffffffffffffffffffffffffffffff169060200190929190803573ffffffffffffffffffffffffffffffffffffffff169060200190929190505050611a89565b6040518080602001828103825283818151815260200191508051906020019060200280838360005b8381101561098a57808201518184015260208101905061096f565b505050509050019250505060405180910390f35b610a77600480360360408110156109b457600080fd5b81019080803573ffffffffffffffffffffffffffffffffffffffff169060200190929190803590602001906401000000008111156109f157600080fd5b820183602082011115610a0357600080fd5b80359060200191846001830284011164010000000083111715610a2557600080fd5b91908080601f016020809104026020016040519081016040528093929190818152602001838380828437600081840152601f19601f820116905080830192505050505050509192919290505050611c15565b005b610a81611c26565b6040518080602001828103825283818151815260200191508051906020019060200280838360005b83811015610ac4578082015181840152602081019050610aa9565b505050509050019250505060405180910390f35b610ae0611c38565b6040518082815260200191505060405180910390f35b610afe611c49565b6040518082815260200191505060405180910390f35b610bed60048036036040811015610b2a57600080fd5b81019080803573ffffffffffffffffffffffffffffffffffffffff16906020019092919080359060200190640100000000811115610b6757600080fd5b820183602082011115610b7957600080fd5b80359060200191846001830284011164010000000083111715610b9b57600080fd5b91908080601f016020809104026020016040519081016040528093929190818152602001838380828437600081840152601f19601f820116905080830192505050505050509192919290505050611c5b565b005b610c3b60048036036040811015610c0557600080fd5b8101908080359060200190929190803573ffffffffffffffffffffffffffffffffffffffff169060200190929190505050611c6b565b604051808373ffffffffffffffffffffffffffffffffffffffff16815260200180602001828103825283818151815260200191508051906020019080838360005b83811015610c97578082015181840152602081019050610c7c565b50505050905090810190601f168015610cc45780820380516001836020036101000a031916815260200191505b50935050505060405180910390f35b6000806000905060005b600560008573ffffffffffffffffffffffffffffffffffffffff1673ffffffffffffffffffffffffffffffffffffffff16815260200190815260200160002080549050811015610dea578473ffffffffffffffffffffffffffffffffffffffff16600560008673ffffffffffffffffffffffffffffffffffffffff1673ffffffffffffffffffffffffffffffffffffffff1681526020019081526020016000208281548110610d8857fe5b906000526020600020906002020160000160009054906101000a900473ffffffffffffffffffffffffffffffffffffffff1673ffffffffffffffffffffffffffffffffffffffff161415610ddd576001820191505b8080600101915050610cdd565b508091505092915050565b610e0182826001611f3e565b5050565b610e1181600054612229565b50565b6000610e2282600054612805565b9050919050565b610e323361175c565b15156001151514610e8e576040517f08c379a0000000000000000000000000000000000000000000000000000000008152600401808060200182810382526031815260200180615cf26031913960400191505060405180910390fd5b82600560008473ffffffffffffffffffffffffffffffffffffffff1673ffffffffffffffffffffffffffffffffffffffff1681526020019081526020016000208054905073__Library_______________________________632477a0ea83836040518363ffffffff1660e01b8152600401808381526020018281526020019250505060206040518083038186803b158015610f2957600080fd5b505af4158015610f3d573d6000803e3d6000fd5b505050506040513d6020811015610f5357600080fd5b810190808051906020019092919050505015156001151514610fdd576040517f08c379a00000000000000000000000000000000000000000000000000000000081526004018080602001828103825260148152602001807f70726f76696465642049642069732077726f6e6700000000000000000000000081525060200191505060405180910390fd5b8385600560008373ffffffffffffffffffffffffffffffffffffffff1673ffffffffffffffffffffffffffffffffffffffff168152602001908152602001600020818154811061102957fe5b906000526020600020906002020160000160009054906101000a900473ffffffffffffffffffffffffffffffffffffffff1673ffffffffffffffffffffffffffffffffffffffff163373ffffffffffffffffffffffffffffffffffffffff16146110de576040517f08c379a0000000000000000000000000000000000000000000000000000000008152600401808060200182810382526031815260200180615cc16031913960400191505060405180910390fd5b848051600010611156576040517f08c379a00000000000000000000000000000000000000000000000000000000081526004018080602001828103825260058152602001807f456d70747900000000000000000000000000000000000000000000000000000081525060200191505060405180910390fd5b85600560008973ffffffffffffffffffffffffffffffffffffffff1673ffffffffffffffffffffffffffffffffffffffff16815260200190815260200160002089815481106111a157fe5b906000526020600020906002020160010190805190602001906111c5929190615a31565b507f736a6334743f8e5fff8d835332a115f2c34c1bbf6e2384459e1a24e0540bd47c600560008973ffffffffffffffffffffffffffffffffffffffff1673ffffffffffffffffffffffffffffffffffffffff168152602001908152602001600020898154811061123157fe5b906000526020600020906002020160000160009054906101000a900473ffffffffffffffffffffffffffffffffffffffff16888a604051808473ffffffffffffffffffffffffffffffffffffffff1681526020018373ffffffffffffffffffffffffffffffffffffffff168152602001828152602001935050505060405180910390a15050505050505050565b6112cb8282600054612c0c565b5050565b60606112dc826001613195565b9050919050565b6112ec3361175c565b15156001151514611348576040517f08c379a0000000000000000000000000000000000000000000000000000000008152600401808060200182810382526031815260200180615cf26031913960400191505060405180910390fd5b81600560008373ffffffffffffffffffffffffffffffffffffffff1673ffffffffffffffffffffffffffffffffffffffff1681526020019081526020016000208054905073__Library_______________________________632477a0ea83836040518363ffffffff1660e01b8152600401808381526020018281526020019250505060206040518083038186803b1580156113e357600080fd5b505af41580156113f7573d6000803e3d6000fd5b505050506040513d602081101561140d57600080fd5b810190808051906020019092919050505015156001151514611497576040517f08c379a00000000000000000000000000000000000000000000000000000000081526004018080602001828103825260148152602001807f70726f76696465642049642069732077726f6e6700000000000000000000000081525060200191505060405180910390fd5b8284600560008373ffffffffffffffffffffffffffffffffffffffff1673ffffffffffffffffffffffffffffffffffffffff16815260200190815260200160002081815481106114e357fe5b906000526020600020906002020160000160009054906101000a900473ffffffffffffffffffffffffffffffffffffffff1673ffffffffffffffffffffffffffffffffffffffff163373ffffffffffffffffffffffffffffffffffffffff16148061157957508173ffffffffffffffffffffffffffffffffffffffff163373ffffffffffffffffffffffffffffffffffffffff16145b6115ce576040517f08c379a0000000000000000000000000000000000000000000000000000000008152600401808060200182810382526031815260200180615d516031913960400191505060405180910390fd5b6000600560008773ffffffffffffffffffffffffffffffffffffffff1673ffffffffffffffffffffffffffffffffffffffff168152602001908152602001600020878154811061161a57fe5b906000526020600020906002020160000160009054906101000a900473ffffffffffffffffffffffffffffffffffffffff169050600560008773ffffffffffffffffffffffffffffffffffffffff1673ffffffffffffffffffffffffffffffffffffffff168152602001908152602001600020878154811061169857fe5b9060005260206000209060020201600080820160006101000a81549073ffffffffffffffffffffffffffffffffffffffff02191690556001820160006116de9190615abf565b50507f709d6b1b4d6f0b57a9f43c17f08c02648af8d37929b58caa594a4b03b8424687818789604051808473ffffffffffffffffffffffffffffffffffffffff1681526020018373ffffffffffffffffffffffffffffffffffffffff168152602001828152602001935050505060405180910390a150505050505050565b6000611769826001612805565b9050919050565b606061177c60016132d7565b905090565b6000600560008373ffffffffffffffffffffffffffffffffffffffff1673ffffffffffffffffffffffffffffffffffffffff168152602001908152602001600020805490509050919050565b60606117db82600054613195565b9050919050565b6117eb3361175c565b15156001151514611847576040517f08c379a0000000000000000000000000000000000000000000000000000000008152600401808060200182810382526031815260200180615cf26031913960400191505060405180910390fd5b8180516000106118bf576040517f08c379a00000000000000000000000000000000000000000000000000000000081526004018080602001828103825260058152602001807f456d70747900000000000000000000000000000000000000000000000000000081525060200191505060405180910390fd5b600560008373ffffffffffffffffffffffffffffffffffffffff1673ffffffffffffffffffffffffffffffffffffffff16815260200190815260200160002060405180604001604052803373ffffffffffffffffffffffffffffffffffffffff16815260200185815250908060018154018082558091505060019003906000526020600020906002020160009091909190915060008201518160000160006101000a81548173ffffffffffffffffffffffffffffffffffffffff021916908373ffffffffffffffffffffffffffffffffffffffff16021790555060208201518160010190805190602001906119b5929190615a31565b50505060006001600560008573ffffffffffffffffffffffffffffffffffffffff1673ffffffffffffffffffffffffffffffffffffffff168152602001908152602001600020805490500390507f76f4df91a34263fc533728c4689dd106f547d04117b44c2f5606efdbc184bdde338483604051808473ffffffffffffffffffffffffffffffffffffffff1681526020018373ffffffffffffffffffffffffffffffffffffffff168152602001828152602001935050505060405180910390a150505050565b611a86816001612229565b50565b60606000611a978484610cd3565b67ffffffffffffffff81118015611aad57600080fd5b50604051908082528060200260200182016040528015611adc5781602001602082028036833780820191505090505b5090506000805b600560008673ffffffffffffffffffffffffffffffffffffffff1673ffffffffffffffffffffffffffffffffffffffff16815260200190815260200160002080549050811015611c09578573ffffffffffffffffffffffffffffffffffffffff16600560008773ffffffffffffffffffffffffffffffffffffffff1673ffffffffffffffffffffffffffffffffffffffff1681526020019081526020016000208281548110611b8e57fe5b906000526020600020906002020160000160009054906101000a900473ffffffffffffffffffffffffffffffffffffffff1673ffffffffffffffffffffffffffffffffffffffff161415611bfc5780838381518110611be957fe5b6020026020010181815250506001820191505b8080600101915050611ae3565b50819250505092915050565b611c228282600054611f3e565b5050565b6060611c336000546132d7565b905090565b6000611c446001613417565b905090565b6000611c56600054613417565b905090565b611c6782826001612c0c565b5050565b6000606083600560008573ffffffffffffffffffffffffffffffffffffffff1673ffffffffffffffffffffffffffffffffffffffff1681526020019081526020016000208054905073__Library_______________________________632477a0ea83836040518363ffffffff1660e01b8152600401808381526020018281526020019250505060206040518083038186803b158015611d0a57600080fd5b505af4158015611d1e573d6000803e3d6000fd5b505050506040513d6020811015611d3457600080fd5b810190808051906020019092919050505015156001151514611dbe576040517f08c379a00000000000000000000000000000000000000000000000000000000081526004018080602001828103825260148152602001807f70726f76696465642049642069732077726f6e6700000000000000000000000081525060200191505060405180910390fd5b600560008673ffffffffffffffffffffffffffffffffffffffff1673ffffffffffffffffffffffffffffffffffffffff1681526020019081526020016000208681548110611e0857fe5b906000526020600020906002020160000160009054906101000a900473ffffffffffffffffffffffffffffffffffffffff16600560008773ffffffffffffffffffffffffffffffffffffffff1673ffffffffffffffffffffffffffffffffffffffff1681526020019081526020016000208781548110611e8457fe5b9060005260206000209060020201600101808054600181600116156101000203166002900480601f016020809104026020016040519081016040528092919081815260200182805460018160011615610100020316600290048015611f2a5780601f10611eff57610100808354040283529160200191611f2a565b820191906000526020600020905b815481529060010190602001808311611f0d57829003601f168201915b505050505090509350935050509250929050565b8060038054905073__Library_______________________________632477a0ea83836040518363ffffffff1660e01b8152600401808381526020018281526020019250505060206040518083038186803b158015611f9c57600080fd5b505af4158015611fb0573d6000803e3d6000fd5b505050506040513d6020811015611fc657600080fd5b810190808051906020019092919050505015156001151514612050576040517f08c379a00000000000000000000000000000000000000000000000000000000081526004018080602001828103825260148152602001807f70726f76696465642049642069732077726f6e6700000000000000000000000081525060200191505060405180910390fd5b61205933610e14565b151560011515146120b5576040517f08c379a000000000000000000000000000000000000000000000000000000000815260040180806020018281038252602e815260200180615d23602e913960400191505060405180910390fd5b60006120db86600386815481106120c857fe5b9060005260206000209060020201613557565b90506121058686600387815481106120ef57fe5b906000526020600020906002020160015461387b565b6001810161212d876003878154811061211a57fe5b9060005260206000209060020201613557565b1415612221577fddf8a9c2d29b02b191b0a29b7a0f698bfd4655230a23853e2af123ab0b1188d76002858154811061216157fe5b906000526020600020018760405180806020018373ffffffffffffffffffffffffffffffffffffffff1681526020018281038252848181546001816001161561010002031660029004815260200191508054600181600116156101000203166002900480156122115780601f106121e657610100808354040283529160200191612211565b820191906000526020600020905b8154815290600101906020018083116121f457829003601f168201915b5050935050505060405180910390a15b505050505050565b8060038054905073__Library_______________________________632477a0ea83836040518363ffffffff1660e01b8152600401808381526020018281526020019250505060206040518083038186803b15801561228757600080fd5b505af415801561229b573d6000803e3d6000fd5b505050506040513d60208110156122b157600080fd5b81019080805190602001909291905050501515600115151461233b576040517f08c379a00000000000000000000000000000000000000000000000000000000081526004018080602001828103825260148152602001807f70726f76696465642049642069732077726f6e6700000000000000000000000081525060200191505060405180910390fd5b8361234533610e14565b151560011515148061238257508073ffffffffffffffffffffffffffffffffffffffff163373ffffffffffffffffffffffffffffffffffffffff16145b6123f4576040517f08c379a000000000000000000000000000000000000000000000000000000000815260040180806020018281038252601c8152602001807f4e6f7420616c6c6f77656420746f2072656d6f766520656e746974790000000081525060200191505060405180910390fd5b61241b856003868154811061240557fe5b9060005260206000209060020201600154614023565b6127046003858154811061242b57fe5b906000526020600020906002020160000160008773ffffffffffffffffffffffffffffffffffffffff1673ffffffffffffffffffffffffffffffffffffffff1681526020019081526020016000206040518060e0016040529081600082015481526020016001820160009054906101000a900460ff16151515158152602001600282018054600181600116156101000203166002900480601f0160208091040260200160405190810160405280929190818152602001828054600181600116156101000203166002900480156125425780601f1061251757610100808354040283529160200191612542565b820191906000526020600020905b81548152906001019060200180831161252557829003601f168201915b5050505050815260200160038201548152602001600482018054806020026020016040519081016040528092919081815260200182805480156125da57602002820191906000526020600020905b8160009054906101000a900473ffffffffffffffffffffffffffffffffffffffff1673ffffffffffffffffffffffffffffffffffffffff1681526020019060010190808311612590575b505050505081526020016005820180548060200260200160405190810160405280929190818152602001828054801561266857602002820191906000526020600020905b8160009054906101000a900473ffffffffffffffffffffffffffffffffffffffff1673ffffffffffffffffffffffffffffffffffffffff168152602001906001019080831161261e575b50505050508152602001600682018054806020026020016040519081016040528092919081815260200182805480156126f657602002820191906000526020600020905b8160009054906101000a900473ffffffffffffffffffffffffffffffffffffffff1673ffffffffffffffffffffffffffffffffffffffff16815260200190600101908083116126ac575b50505050508152505061482c565b15156000151514156127fe577f1f62d535f971041db7bd8760bf0f1f9f476461558744a35c0d477b5ad6893e896002858154811061273e57fe5b906000526020600020018660405180806020018373ffffffffffffffffffffffffffffffffffffffff1681526020018281038252848181546001816001161561010002031660029004815260200191508054600181600116156101000203166002900480156127ee5780601f106127c3576101008083540402835291602001916127ee565b820191906000526020600020905b8154815290600101906020018083116127d157829003601f168201915b5050935050505060405180910390a15b5050505050565b60008160038054905073__Library_______________________________632477a0ea83836040518363ffffffff1660e01b8152600401808381526020018281526020019250505060206040518083038186803b15801561286557600080fd5b505af4158015612879573d6000803e3d6000fd5b505050506040513d602081101561288f57600080fd5b810190808051906020019092919050505015156001151514612919576040517f08c379a00000000000000000000000000000000000000000000000000000000081526004018080602001828103825260148152602001807f70726f76696465642049642069732077726f6e6700000000000000000000000081525060200191505060405180910390fd5b612c026003858154811061292957fe5b906000526020600020906002020160000160008773ffffffffffffffffffffffffffffffffffffffff1673ffffffffffffffffffffffffffffffffffffffff1681526020019081526020016000206040518060e0016040529081600082015481526020016001820160009054906101000a900460ff16151515158152602001600282018054600181600116156101000203166002900480601f016020809104026020016040519081016040528092919081815260200182805460018160011615610100020316600290048015612a405780601f10612a1557610100808354040283529160200191612a40565b820191906000526020600020905b815481529060010190602001808311612a2357829003601f168201915b505050505081526020016003820154815260200160048201805480602002602001604051908101604052809291908181526020018280548015612ad857602002820191906000526020600020905b8160009054906101000a900473ffffffffffffffffffffffffffffffffffffffff1673ffffffffffffffffffffffffffffffffffffffff1681526020019060010190808311612a8e575b5050505050815260200160058201805480602002602001604051908101604052809291908181526020018280548015612b6657602002820191906000526020600020905b8160009054906101000a900473ffffffffffffffffffffffffffffffffffffffff1673ffffffffffffffffffffffffffffffffffffffff1681526020019060010190808311612b1c575b5050505050815260200160068201805480602002602001604051908101604052809291908181526020018280548015612bf457602002820191906000526020600020905b8160009054906101000a900473ffffffffffffffffffffffffffffffffffffffff1673ffffffffffffffffffffffffffffffffffffffff1681526020019060010190808311612baa575b50505050508152505061482c565b9250505092915050565b8060038054905073__Library_______________________________632477a0ea83836040518363ffffffff1660e01b8152600401808381526020018281526020019250505060206040518083038186803b158015612c6a57600080fd5b505af4158015612c7e573d6000803e3d6000fd5b505050506040513d6020811015612c9457600080fd5b810190808051906020019092919050505015156001151514612d1e576040517f08c379a00000000000000000000000000000000000000000000000000000000081526004018080602001828103825260148152602001807f70726f76696465642049642069732077726f6e6700000000000000000000000081525060200191505060405180910390fd5b612d2733610e14565b15156001151514612d83576040517f08c379a000000000000000000000000000000000000000000000000000000000815260040180806020018281038252602e815260200180615d23602e913960400191505060405180910390fd5b612dab858560038681548110612d9557fe5b906000526020600020906002020160015461483a565b61309460038481548110612dbb57fe5b906000526020600020906002020160000160008773ffffffffffffffffffffffffffffffffffffffff1673ffffffffffffffffffffffffffffffffffffffff1681526020019081526020016000206040518060e0016040529081600082015481526020016001820160009054906101000a900460ff16151515158152602001600282018054600181600116156101000203166002900480601f016020809104026020016040519081016040528092919081815260200182805460018160011615610100020316600290048015612ed25780601f10612ea757610100808354040283529160200191612ed2565b820191906000526020600020905b815481529060010190602001808311612eb557829003601f168201915b505050505081526020016003820154815260200160048201805480602002602001604051908101604052809291908181526020018280548015612f6a57602002820191906000526020600020905b8160009054906101000a900473ffffffffffffffffffffffffffffffffffffffff1673ffffffffffffffffffffffffffffffffffffffff1681526020019060010190808311612f20575b5050505050815260200160058201805480602002602001604051908101604052809291908181526020018280548015612ff857602002820191906000526020600020905b8160009054906101000a900473ffffffffffffffffffffffffffffffffffffffff1673ffffffffffffffffffffffffffffffffffffffff1681526020019060010190808311612fae575b505050505081526020016006820180548060200260200160405190810160405280929190818152602001828054801561308657602002820191906000526020600020905b8160009054906101000a900473ffffffffffffffffffffffffffffffffffffffff1673ffffffffffffffffffffffffffffffffffffffff168152602001906001019080831161303c575b50505050508152505061482c565b151560011515141561318e577f3c139d46a211844e248647688545a37c07c505c999c1232d1247c707dc0a91e2600284815481106130ce57fe5b906000526020600020018660405180806020018373ffffffffffffffffffffffffffffffffffffffff16815260200182810382528481815460018160011615610100020316600290048152602001915080546001816001161561010002031660029004801561317e5780601f106131535761010080835404028352916020019161317e565b820191906000526020600020905b81548152906001019060200180831161316157829003601f168201915b5050935050505060405180910390a15b5050505050565b60608160038054905073__Library_______________________________632477a0ea83836040518363ffffffff1660e01b8152600401808381526020018281526020019250505060206040518083038186803b1580156131f557600080fd5b505af4158015613209573d6000803e3d6000fd5b505050506040513d602081101561321f57600080fd5b8101908080519060200190929190505050151560011515146132a9576040517f08c379a00000000000000000000000000000000000000000000000000000000081526004018080602001828103825260148152602001807f70726f76696465642049642069732077726f6e6700000000000000000000000081525060200191505060405180910390fd5b6132cd85600386815481106132ba57fe5b9060005260206000209060020201615106565b9250505092915050565b60608160038054905073__Library_______________________________632477a0ea83836040518363ffffffff1660e01b8152600401808381526020018281526020019250505060206040518083038186803b15801561333757600080fd5b505af415801561334b573d6000803e3d6000fd5b505050506040513d602081101561336157600080fd5b8101908080519060200190929190505050151560011515146133eb576040517f08c379a00000000000000000000000000000000000000000000000000000000081526004018080602001828103825260148152602001807f70726f76696465642049642069732077726f6e6700000000000000000000000081525060200191505060405180910390fd5b61340e600385815481106133fb57fe5b90600052602060002090600202016154c2565b92505050919050565b60008160038054905073__Library_______________________________632477a0ea83836040518363ffffffff1660e01b8152600401808381526020018281526020019250505060206040518083038186803b15801561347757600080fd5b505af415801561348b573d6000803e3d6000fd5b505050506040513d60208110156134a157600080fd5b81019080805190602001909291905050501515600115151461352b576040517f08c379a00000000000000000000000000000000000000000000000000000000081526004018080602001828103825260148152602001807f70726f76696465642049642069732077726f6e6700000000000000000000000081525060200191505060405180910390fd5b61354e6003858154811061353b57fe5b9060005260206000209060020201615640565b92505050919050565b600060018260000160008573ffffffffffffffffffffffffffffffffffffffff1673ffffffffffffffffffffffffffffffffffffffff1681526020019081526020016000206040518060e0016040529081600082015481526020016001820160009054906101000a900460ff16151515158152602001600282018054600181600116156101000203166002900480601f0160208091040260200160405190810160405280929190818152602001828054600181600116156101000203166002900480156136655780601f1061363a57610100808354040283529160200191613665565b820191906000526020600020905b81548152906001019060200180831161364857829003601f168201915b5050505050815260200160038201548152602001600482018054806020026020016040519081016040528092919081815260200182805480156136fd57602002820191906000526020600020905b8160009054906101000a900473ffffffffffffffffffffffffffffffffffffffff1673ffffffffffffffffffffffffffffffffffffffff16815260200190600101908083116136b3575b505050505081526020016005820180548060200260200160405190810160405280929190818152602001828054801561378b57602002820191906000526020600020905b8160009054906101000a900473ffffffffffffffffffffffffffffffffffffffff1673ffffffffffffffffffffffffffffffffffffffff1681526020019060010190808311613741575b505050505081526020016006820180548060200260200160405190810160405280929190818152602001828054801561381957602002820191906000526020600020905b8160009054906101000a900473ffffffffffffffffffffffffffffffffffffffff1673ffffffffffffffffffffffffffffffffffffffff16815260200190600101908083116137cf575b50505050508152505061382c82826156da565b8360000160008673ffffffffffffffffffffffffffffffffffffffff1673ffffffffffffffffffffffffffffffffffffffff168152602001908152602001600020600301549250505092915050565b60018260000160008673ffffffffffffffffffffffffffffffffffffffff1673ffffffffffffffffffffffffffffffffffffffff1681526020019081526020016000206040518060e0016040529081600082015481526020016001820160009054906101000a900460ff16151515158152602001600282018054600181600116156101000203166002900480601f0160208091040260200160405190810160405280929190818152602001828054600181600116156101000203166002900480156139875780601f1061395c57610100808354040283529160200191613987565b820191906000526020600020905b81548152906001019060200180831161396a57829003601f168201915b505050505081526020016003820154815260200160048201805480602002602001604051908101604052809291908181526020018280548015613a1f57602002820191906000526020600020905b8160009054906101000a900473ffffffffffffffffffffffffffffffffffffffff1673ffffffffffffffffffffffffffffffffffffffff16815260200190600101908083116139d5575b5050505050815260200160058201805480602002602001604051908101604052809291908181526020018280548015613aad57602002820191906000526020600020905b8160009054906101000a900473ffffffffffffffffffffffffffffffffffffffff1673ffffffffffffffffffffffffffffffffffffffff1681526020019060010190808311613a63575b5050505050815260200160068201805480602002602001604051908101604052809291908181526020018280548015613b3b57602002820191906000526020600020905b8160009054906101000a900473ffffffffffffffffffffffffffffffffffffffff1673ffffffffffffffffffffffffffffffffffffffff1681526020019060010190808311613af1575b505050505081525050613b4e82826156da565b60018460000160008873ffffffffffffffffffffffffffffffffffffffff1673ffffffffffffffffffffffffffffffffffffffff1681526020019081526020016000206040518060e0016040529081600082015481526020016001820160009054906101000a900460ff16151515158152602001600282018054600181600116156101000203166002900480601f016020809104026020016040519081016040528092919081815260200182805460018160011615610100020316600290048015613c5a5780601f10613c2f57610100808354040283529160200191613c5a565b820191906000526020600020905b815481529060010190602001808311613c3d57829003601f168201915b505050505081526020016003820154815260200160048201805480602002602001604051908101604052809291908181526020018280548015613cf257602002820191906000526020600020905b8160009054906101000a900473ffffffffffffffffffffffffffffffffffffffff1673ffffffffffffffffffffffffffffffffffffffff1681526020019060010190808311613ca8575b5050505050815260200160058201805480602002602001604051908101604052809291908181526020018280548015613d8057602002820191906000526020600020905b8160009054906101000a900473ffffffffffffffffffffffffffffffffffffffff1673ffffffffffffffffffffffffffffffffffffffff1681526020019060010190808311613d36575b5050505050815260200160068201805480602002602001604051908101604052809291908181526020018280548015613e0e57602002820191906000526020600020905b8160009054906101000a900473ffffffffffffffffffffffffffffffffffffffff1673ffffffffffffffffffffffffffffffffffffffff1681526020019060010190808311613dc4575b505050505081525050613e21828261578f565b8560000160008973ffffffffffffffffffffffffffffffffffffffff1673ffffffffffffffffffffffffffffffffffffffff168152602001908152602001600020600601339080600181540180825580915050600190039060005260206000200160009091909190916101000a81548173ffffffffffffffffffffffffffffffffffffffff021916908373ffffffffffffffffffffffffffffffffffffffff160217905550613f178660000160008a73ffffffffffffffffffffffffffffffffffffffff1673ffffffffffffffffffffffffffffffffffffffff1681526020019081526020016000206006018054905086615920565b1561401957868660000160008a73ffffffffffffffffffffffffffffffffffffffff1673ffffffffffffffffffffffffffffffffffffffff1681526020019081526020016000206002019080519060200190613f74929190615a31565b5060018660000160008a73ffffffffffffffffffffffffffffffffffffffff1673ffffffffffffffffffffffffffffffffffffffff168152602001908152602001600020600301600082825401925050819055508560000160008973ffffffffffffffffffffffffffffffffffffffff1673ffffffffffffffffffffffffffffffffffffffff16815260200190815260200160002060060160006140189190615b07565b5b5050505050505050565b60018260000160008573ffffffffffffffffffffffffffffffffffffffff1673ffffffffffffffffffffffffffffffffffffffff1681526020019081526020016000206040518060e0016040529081600082015481526020016001820160009054906101000a900460ff16151515158152602001600282018054600181600116156101000203166002900480601f01602080910402602001604051908101604052809291908181526020018280546001816001161561010002031660029004801561412f5780601f106141045761010080835404028352916020019161412f565b820191906000526020600020905b81548152906001019060200180831161411257829003601f168201915b5050505050815260200160038201548152602001600482018054806020026020016040519081016040528092919081815260200182805480156141c757602002820191906000526020600020905b8160009054906101000a900473ffffffffffffffffffffffffffffffffffffffff1673ffffffffffffffffffffffffffffffffffffffff168152602001906001019080831161417d575b505050505081526020016005820180548060200260200160405190810160405280929190818152602001828054801561425557602002820191906000526020600020905b8160009054906101000a900473ffffffffffffffffffffffffffffffffffffffff1673ffffffffffffffffffffffffffffffffffffffff168152602001906001019080831161420b575b50505050508152602001600682018054806020026020016040519081016040528092919081815260200182805480156142e357602002820191906000526020600020905b8160009054906101000a900473ffffffffffffffffffffffffffffffffffffffff1673ffffffffffffffffffffffffffffffffffffffff1681526020019060010190808311614299575b5050505050815250506142f682826156da565b60028460000160008773ffffffffffffffffffffffffffffffffffffffff1673ffffffffffffffffffffffffffffffffffffffff1681526020019081526020016000206040518060e0016040529081600082015481526020016001820160009054906101000a900460ff16151515158152602001600282018054600181600116156101000203166002900480601f0160208091040260200160405190810160405280929190818152602001828054600181600116156101000203166002900480156144025780601f106143d757610100808354040283529160200191614402565b820191906000526020600020905b8154815290600101906020018083116143e557829003601f168201915b50505050508152602001600382015481526020016004820180548060200260200160405190810160405280929190818152602001828054801561449a57602002820191906000526020600020905b8160009054906101000a900473ffffffffffffffffffffffffffffffffffffffff1673ffffffffffffffffffffffffffffffffffffffff1681526020019060010190808311614450575b505050505081526020016005820180548060200260200160405190810160405280929190818152602001828054801561452857602002820191906000526020600020905b8160009054906101000a900473ffffffffffffffffffffffffffffffffffffffff1673ffffffffffffffffffffffffffffffffffffffff16815260200190600101908083116144de575b50505050508152602001600682018054806020026020016040519081016040528092919081815260200182805480156145b657602002820191906000526020600020905b8160009054906101000a900473ffffffffffffffffffffffffffffffffffffffff1673ffffffffffffffffffffffffffffffffffffffff168152602001906001019080831161456c575b5050505050815250506145c9828261578f565b8560000160008873ffffffffffffffffffffffffffffffffffffffff1673ffffffffffffffffffffffffffffffffffffffff168152602001908152602001600020600501339080600181540180825580915050600190039060005260206000200160009091909190916101000a81548173ffffffffffffffffffffffffffffffffffffffff021916908373ffffffffffffffffffffffffffffffffffffffff1602179055508673ffffffffffffffffffffffffffffffffffffffff163373ffffffffffffffffffffffffffffffffffffffff1614806146f557506146f48660000160008973ffffffffffffffffffffffffffffffffffffffff1673ffffffffffffffffffffffffffffffffffffffff1681526020019081526020016000206005018054905086615920565b5b1561482357856001018660000160008973ffffffffffffffffffffffffffffffffffffffff1673ffffffffffffffffffffffffffffffffffffffff168152602001908152602001600020600001548154811061474d57fe5b9060005260206000200160006101000a81549073ffffffffffffffffffffffffffffffffffffffff02191690558560000160008873ffffffffffffffffffffffffffffffffffffffff1673ffffffffffffffffffffffffffffffffffffffff1681526020019081526020016000206000808201600090556001820160006101000a81549060ff02191690556002820160006147e89190615abf565b60038201600090556004820160006148009190615b07565b6005820160006148109190615b07565b6006820160006148209190615b07565b50505b50505050505050565b600081602001519050919050565b60008260000160008673ffffffffffffffffffffffffffffffffffffffff1673ffffffffffffffffffffffffffffffffffffffff1681526020019081526020016000206040518060e0016040529081600082015481526020016001820160009054906101000a900460ff16151515158152602001600282018054600181600116156101000203166002900480601f0160208091040260200160405190810160405280929190818152602001828054600181600116156101000203166002900480156149465780601f1061491b57610100808354040283529160200191614946565b820191906000526020600020905b81548152906001019060200180831161492957829003601f168201915b5050505050815260200160038201548152602001600482018054806020026020016040519081016040528092919081815260200182805480156149de57602002820191906000526020600020905b8160009054906101000a900473ffffffffffffffffffffffffffffffffffffffff1673ffffffffffffffffffffffffffffffffffffffff1681526020019060010190808311614994575b5050505050815260200160058201805480602002602001604051908101604052809291908181526020018280548015614a6c57602002820191906000526020600020905b8160009054906101000a900473ffffffffffffffffffffffffffffffffffffffff1673ffffffffffffffffffffffffffffffffffffffff1681526020019060010190808311614a22575b5050505050815260200160068201805480602002602001604051908101604052809291908181526020018280548015614afa57602002820191906000526020600020905b8160009054906101000a900473ffffffffffffffffffffffffffffffffffffffff1673ffffffffffffffffffffffffffffffffffffffff1681526020019060010190808311614ab0575b505050505081525050614b0d82826156da565b60008460000160008873ffffffffffffffffffffffffffffffffffffffff1673ffffffffffffffffffffffffffffffffffffffff1681526020019081526020016000206040518060e0016040529081600082015481526020016001820160009054906101000a900460ff16151515158152602001600282018054600181600116156101000203166002900480601f016020809104026020016040519081016040528092919081815260200182805460018160011615610100020316600290048015614c195780601f10614bee57610100808354040283529160200191614c19565b820191906000526020600020905b815481529060010190602001808311614bfc57829003601f168201915b505050505081526020016003820154815260200160048201805480602002602001604051908101604052809291908181526020018280548015614cb157602002820191906000526020600020905b8160009054906101000a900473ffffffffffffffffffffffffffffffffffffffff1673ffffffffffffffffffffffffffffffffffffffff1681526020019060010190808311614c67575b5050505050815260200160058201805480602002602001604051908101604052809291908181526020018280548015614d3f57602002820191906000526020600020905b8160009054906101000a900473ffffffffffffffffffffffffffffffffffffffff1673ffffffffffffffffffffffffffffffffffffffff1681526020019060010190808311614cf5575b5050505050815260200160068201805480602002602001604051908101604052809291908181526020018280548015614dcd57602002820191906000526020600020905b8160009054906101000a900473ffffffffffffffffffffffffffffffffffffffff1673ffffffffffffffffffffffffffffffffffffffff1681526020019060010190808311614d83575b505050505081525050614de0828261578f565b8560000160008973ffffffffffffffffffffffffffffffffffffffff1673ffffffffffffffffffffffffffffffffffffffff168152602001908152602001600020600401805490506000148015614e8f57508560000160008973ffffffffffffffffffffffffffffffffffffffff1673ffffffffffffffffffffffffffffffffffffffff1681526020019081526020016000206002018054600181600116156101000203166002900490506000145b15614eee57868660000160008a73ffffffffffffffffffffffffffffffffffffffff1673ffffffffffffffffffffffffffffffffffffffff1681526020019081526020016000206002019080519060200190614eec929190615a31565b505b8560000160008973ffffffffffffffffffffffffffffffffffffffff1673ffffffffffffffffffffffffffffffffffffffff168152602001908152602001600020600401339080600181540180825580915050600190039060005260206000200160009091909190916101000a81548173ffffffffffffffffffffffffffffffffffffffff021916908373ffffffffffffffffffffffffffffffffffffffff160217905550614fe48660000160008a73ffffffffffffffffffffffffffffffffffffffff1673ffffffffffffffffffffffffffffffffffffffff1681526020019081526020016000206004018054905086615920565b156150fc5760018660000160008a73ffffffffffffffffffffffffffffffffffffffff1673ffffffffffffffffffffffffffffffffffffffff16815260200190815260200160002060010160006101000a81548160ff02191690831515021790555085600101805490508660000160008a73ffffffffffffffffffffffffffffffffffffffff1673ffffffffffffffffffffffffffffffffffffffff1681526020019081526020016000206000018190555085600101889080600181540180825580915050600190039060005260206000200160009091909190916101000a81548173ffffffffffffffffffffffffffffffffffffffff021916908373ffffffffffffffffffffffffffffffffffffffff1602179055505b5050505050505050565b606060018260000160008573ffffffffffffffffffffffffffffffffffffffff1673ffffffffffffffffffffffffffffffffffffffff1681526020019081526020016000206040518060e0016040529081600082015481526020016001820160009054906101000a900460ff16151515158152602001600282018054600181600116156101000203166002900480601f0160208091040260200160405190810160405280929190818152602001828054600181600116156101000203166002900480156152145780601f106151e957610100808354040283529160200191615214565b820191906000526020600020905b8154815290600101906020018083116151f757829003601f168201915b5050505050815260200160038201548152602001600482018054806020026020016040519081016040528092919081815260200182805480156152ac57602002820191906000526020600020905b8160009054906101000a900473ffffffffffffffffffffffffffffffffffffffff1673ffffffffffffffffffffffffffffffffffffffff1681526020019060010190808311615262575b505050505081526020016005820180548060200260200160405190810160405280929190818152602001828054801561533a57602002820191906000526020600020905b8160009054906101000a900473ffffffffffffffffffffffffffffffffffffffff1673ffffffffffffffffffffffffffffffffffffffff16815260200190600101908083116152f0575b50505050508152602001600682018054806020026020016040519081016040528092919081815260200182805480156153c857602002820191906000526020600020905b8160009054906101000a900473ffffffffffffffffffffffffffffffffffffffff1673ffffffffffffffffffffffffffffffffffffffff168152602001906001019080831161537e575b5050505050815250506153db82826156da565b8360000160008673ffffffffffffffffffffffffffffffffffffffff1673ffffffffffffffffffffffffffffffffffffffff1681526020019081526020016000206002018054600181600116156101000203166002900480601f0160208091040260200160405190810160405280929190818152602001828054600181600116156101000203166002900480156154b35780601f10615488576101008083540402835291602001916154b3565b820191906000526020600020905b81548152906001019060200180831161549657829003601f168201915b50505050509250505092915050565b606060006154cf83615640565b905060008167ffffffffffffffff811180156154ea57600080fd5b506040519080825280602002602001820160405280156155195781602001602082028036833780820191505090505b509050600080600090505b85600101805490508110156156345785600101818154811061554257fe5b9060005260206000200160009054906101000a900473ffffffffffffffffffffffffffffffffffffffff1673ffffffffffffffffffffffffffffffffffffffff16600073ffffffffffffffffffffffffffffffffffffffff1614615627578560010181815481106155af57fe5b9060005260206000200160009054906101000a900473ffffffffffffffffffffffffffffffffffffffff168383815181106155e657fe5b602002602001019073ffffffffffffffffffffffffffffffffffffffff16908173ffffffffffffffffffffffffffffffffffffffff16815250506001820191505b8080600101915050615524565b50819350505050919050565b60006156d3826001018054806020026020016040519081016040528092919081815260200182805480156156c957602002820191906000526020600020905b8160009054906101000a900473ffffffffffffffffffffffffffffffffffffffff1673ffffffffffffffffffffffffffffffffffffffff168152602001906001019080831161567f575b505050505061593e565b9050919050565b81151560001515141561573b576156f08161482c565b15156000151514615736576040517f08c379a000000000000000000000000000000000000000000000000000000000815260040161572d90615c40565b60405180910390fd5b61578b565b6157448161482c565b1515600115151461578a576040517f08c379a000000000000000000000000000000000000000000000000000000000815260040161578190615c20565b60405180910390fd5b5b5050565b60006040518060400160405280601781526020017f4f776e65722068617320616c726561647920766f74656400000000000000000081525090508260028111156157d557fe5b600160028111156157e257fe5b1415615845576157f6338360c001516159b6565b15156000151514819061583f576040517f08c379a00000000000000000000000000000000000000000000000000000000081526004016158369190615bfe565b60405180910390fd5b5061591b565b82600281111561585157fe5b6000600281111561585e57fe5b14156158c1576158723383608001516159b6565b1515600015151481906158bb576040517f08c379a00000000000000000000000000000000000000000000000000000000081526004016158b29190615bfe565b60405180910390fd5b5061591a565b6158cf338360a001516159b6565b151560001515148190615918576040517f08c379a000000000000000000000000000000000000000000000000000000000815260040161590f9190615bfe565b60405180910390fd5b505b5b505050565b6000818310156159335760009050615938565b600190505b92915050565b6000806000905060005b83518110156159ac5783818151811061595d57fe5b602002602001015173ffffffffffffffffffffffffffffffffffffffff16600073ffffffffffffffffffffffffffffffffffffffff161461599f576001820191505b8080600101915050615948565b5080915050919050565b600080600090505b8251811015615a25578281815181106159d357fe5b602002602001015173ffffffffffffffffffffffffffffffffffffffff168473ffffffffffffffffffffffffffffffffffffffff161415615a18576001915050615a2b565b80806001019150506159be565b50600090505b92915050565b828054600181600116156101000203166002900490600052602060002090601f016020900481019282615a675760008555615aae565b82601f10615a8057805160ff1916838001178555615aae565b82800160010185558215615aae579182015b82811115615aad578251825591602001919060010190615a92565b5b509050615abb9190615b28565b5090565b50805460018160011615610100020316600290046000825580601f10615ae55750615b04565b601f016020900490600052602060002090810190615b039190615b28565b5b50565b5080546000825590600052602060002090810190615b259190615b28565b50565b5b80821115615b41576000816000905550600101615b29565b5090565b6000615b5082615c60565b615b5a8185615c6b565b9350615b6a818560208601615c7c565b615b7381615caf565b840191505092915050565b6000615b8b601883615c6b565b91507f456e74697479206d7573742062652061637469766174656400000000000000006000830152602082019050919050565b6000615bcb601883615c6b565b91507f456e7469747920616c72656164792061637469766174656400000000000000006000830152602082019050919050565b60006020820190508181036000830152615c188184615b45565b905092915050565b60006020820190508181036000830152615c3981615b7e565b9050919050565b60006020820190508181036000830152615c5981615bbe565b9050919050565b600081519050919050565b600082825260208201905092915050565b60005b83811015615c9a578082015181840152602081019050615c7f565b83811115615ca9576000848401525b50505050565b6000601f19601f830116905091905056fe4e6f7420616c6c6f77656420746f20757064617465207468697320706172746963756c61722043657274696669636174654f6e6c792050726f7669646572732061726520616c6c6f77656420746f20706572666f726d207468697320616374696f6e4f6e6c79204f776e6572732061726520616c6c6f77656420746f20706572666f726d207468697320616374696f6e4e6f7420616c6c6f77656420746f2072656d6f7665207468697320706172746963756c6172204365727469666963617465a2646970667358221220bbd55ff90ca048a8ba31c47e1b1ac0bd4df2e9ffa45b02ae2eac19adad7ca20064736f6c634300070600334e6f7420656e6f756768206f776e6572732070726f766964656420746f206d65657420746865206d696e4f776e65727320726571756972656d656e74",
  "immutableReferences": {},
  "source": "// SPDX-License-Identifier: GPL-3.0\r\n\r\npragma solidity >=0.7.0 <0.9.0;\r\n\r\n/**\r\n * @title Storage\r\n * @dev Store & retrieve value in a variable\r\n */\r\n\r\n import \"./MultiSigCertificatesPool.sol\";\r\n\r\n /* \r\n Like Private Certificates except that Providers must be sent from \"Creator\" who is not an owner\r\n */\r\n\r\n contract PrivateCertificatesPool is MultiSigCertificatesPool {\r\n\r\n     constructor(address[] memory owners,  uint256 minOwners) MultiSigCertificatesPool(owners, minOwners) payable {\r\n    }\r\n\r\n    function addProvider(address provider, string memory providerInfo) external override{\r\n        addEntity(provider, bytes(providerInfo), _providerId);\r\n    }\r\n\r\n    function removeProvider(address provider) external override{\r\n       removeEntity(provider, _providerId); \r\n    }\r\n\r\n }",
  "sourcePath": "C:\\Users\\d-aam\\GitHub\\Certificates\\contracts\\PrivateCertificatesPool.sol",
  "compiler": {
    "name": "solc",
    "version": "0.7.6+commit.7338295f.Emscripten.clang"
  },
  "schemaVersion": "3.3.4",
  "updatedAt": "2021-05-14T13:19:11.258Z",
  "devdoc": {
    "kind": "dev",
    "methods": {},
    "version": 1
  },
  "userdoc": {
    "kind": "user",
    "methods": {},
    "version": 1
  }
}