{
  "contractName": "PrivateCertificatesPool",
  "abi": [
    {
      "anonymous": false,
      "inputs": [
        {
          "indexed": true,
          "internalType": "address",
          "name": "",
          "type": "address"
        },
        {
          "indexed": true,
          "internalType": "address",
          "name": "",
          "type": "address"
        },
        {
          "indexed": false,
          "internalType": "bytes32",
          "name": "",
          "type": "bytes32"
        }
      ],
      "name": "_AddCertificate",
      "type": "event"
    },
    {
      "inputs": [
        {
          "internalType": "address[]",
          "name": "owners",
          "type": "address[]"
        },
        {
          "internalType": "uint256",
          "name": "minOwners",
          "type": "uint256"
        }
      ],
      "name": "MultiSigCertPool_init",
      "outputs": [],
      "stateMutability": "nonpayable",
      "type": "function"
    },
    {
      "inputs": [
        {
          "internalType": "address[]",
          "name": "owners",
          "type": "address[]"
        },
        {
          "internalType": "uint256",
          "name": "minOwners",
          "type": "uint256"
        },
        {
          "internalType": "uint256",
          "name": "TotalEntities",
          "type": "uint256"
        },
        {
          "internalType": "string[]",
          "name": "labels",
          "type": "string[]"
        },
        {
          "internalType": "uint256",
          "name": "ownerId",
          "type": "uint256"
        }
      ],
      "name": "MultiSigContract_init",
      "outputs": [],
      "stateMutability": "nonpayable",
      "type": "function"
    },
    {
      "inputs": [
        {
          "internalType": "bytes32",
          "name": "CertificateHash",
          "type": "bytes32"
        },
        {
          "internalType": "address",
          "name": "holder",
          "type": "address"
        }
      ],
      "name": "addCertificate",
      "outputs": [],
      "stateMutability": "payable",
      "type": "function",
      "payable": true
    },
    {
      "inputs": [
        {
          "internalType": "address",
          "name": "owner",
          "type": "address"
        },
        {
          "internalType": "string",
          "name": "ownerInfo",
          "type": "string"
        }
      ],
      "name": "addOwner",
      "outputs": [],
      "stateMutability": "nonpayable",
      "type": "function"
    },
    {
      "inputs": [
        {
          "internalType": "address",
          "name": "provider",
          "type": "address"
        },
        {
          "internalType": "string",
          "name": "providerInfo",
          "type": "string"
        }
      ],
      "name": "addProvider",
      "outputs": [],
      "stateMutability": "payable",
      "type": "function",
      "payable": true
    },
    {
      "inputs": [
        {
          "internalType": "uint256",
          "name": "newMinOwners",
          "type": "uint256"
        }
      ],
      "name": "changeMinOwners",
      "outputs": [],
      "stateMutability": "nonpayable",
      "type": "function"
    },
    {
      "inputs": [
        {
          "internalType": "bytes32",
          "name": "item",
          "type": "bytes32"
        },
        {
          "internalType": "uint256[]",
          "name": "ids",
          "type": "uint256[]"
        },
        {
          "internalType": "bool",
          "name": "addOrRemove",
          "type": "bool"
        }
      ],
      "name": "onItemRejected",
      "outputs": [],
      "stateMutability": "nonpayable",
      "type": "function"
    },
    {
      "inputs": [
        {
          "internalType": "bytes32",
          "name": "item",
          "type": "bytes32"
        },
        {
          "internalType": "uint256[]",
          "name": "ids",
          "type": "uint256[]"
        },
        {
          "internalType": "bool",
          "name": "addOrRemove",
          "type": "bool"
        }
      ],
      "name": "onItemValidated",
      "outputs": [],
      "stateMutability": "nonpayable",
      "type": "function"
    },
    {
      "inputs": [],
      "name": "rejectMinOwners",
      "outputs": [],
      "stateMutability": "nonpayable",
      "type": "function"
    },
    {
      "inputs": [
        {
          "internalType": "address",
          "name": "owner",
          "type": "address"
        }
      ],
      "name": "rejectOwner",
      "outputs": [],
      "stateMutability": "nonpayable",
      "type": "function"
    },
    {
      "inputs": [
        {
          "internalType": "address",
          "name": "provider",
          "type": "address"
        }
      ],
      "name": "rejectProvider",
      "outputs": [],
      "stateMutability": "nonpayable",
      "type": "function"
    },
    {
      "inputs": [
        {
          "internalType": "address",
          "name": "owner",
          "type": "address"
        }
      ],
      "name": "removeOwner",
      "outputs": [],
      "stateMutability": "nonpayable",
      "type": "function"
    },
    {
      "inputs": [
        {
          "internalType": "address",
          "name": "provider",
          "type": "address"
        }
      ],
      "name": "removeProvider",
      "outputs": [],
      "stateMutability": "nonpayable",
      "type": "function"
    },
    {
      "inputs": [],
      "name": "retrieveAllOwners",
      "outputs": [
        {
          "internalType": "bytes32[]",
          "name": "",
          "type": "bytes32[]"
        }
      ],
      "stateMutability": "view",
      "type": "function",
      "constant": true
    },
    {
      "inputs": [],
      "name": "retrieveAllProviders",
      "outputs": [
        {
          "internalType": "bytes32[]",
          "name": "",
          "type": "bytes32[]"
        }
      ],
      "stateMutability": "view",
      "type": "function",
      "constant": true
    },
    {
      "inputs": [
        {
          "internalType": "bytes32",
          "name": "CertificateHash",
          "type": "bytes32"
        },
        {
          "internalType": "address",
          "name": "holder",
          "type": "address"
        }
      ],
      "name": "retrieveCertificateProvider",
      "outputs": [
        {
          "internalType": "address",
          "name": "",
          "type": "address"
        }
      ],
      "stateMutability": "view",
      "type": "function",
      "constant": true
    },
    {
      "inputs": [
        {
          "internalType": "address",
          "name": "holder",
          "type": "address"
        },
        {
          "internalType": "uint256",
          "name": "skipFirst",
          "type": "uint256"
        },
        {
          "internalType": "uint256",
          "name": "max",
          "type": "uint256"
        }
      ],
      "name": "retrieveCertificatesByHolder",
      "outputs": [
        {
          "internalType": "bytes32[]",
          "name": "",
          "type": "bytes32[]"
        }
      ],
      "stateMutability": "view",
      "type": "function",
      "constant": true
    },
    {
      "inputs": [],
      "name": "retrieveMinOwners",
      "outputs": [
        {
          "internalType": "uint256",
          "name": "",
          "type": "uint256"
        }
      ],
      "stateMutability": "view",
      "type": "function",
      "constant": true
    },
    {
      "inputs": [
        {
          "internalType": "address",
          "name": "owner",
          "type": "address"
        }
      ],
      "name": "retrieveOwner",
      "outputs": [
        {
          "internalType": "string",
          "name": "",
          "type": "string"
        },
        {
          "internalType": "bool",
          "name": "",
          "type": "bool"
        }
      ],
      "stateMutability": "view",
      "type": "function",
      "constant": true
    },
    {
      "inputs": [],
      "name": "retrievePendingMinOwners",
      "outputs": [
        {
          "internalType": "uint256",
          "name": "",
          "type": "uint256"
        }
      ],
      "stateMutability": "view",
      "type": "function",
      "constant": true
    },
    {
      "inputs": [
        {
          "internalType": "bool",
          "name": "addedORremove",
          "type": "bool"
        }
      ],
      "name": "retrievePendingOwners",
      "outputs": [
        {
          "internalType": "bytes32[]",
          "name": "",
          "type": "bytes32[]"
        },
        {
          "internalType": "string[]",
          "name": "",
          "type": "string[]"
        }
      ],
      "stateMutability": "view",
      "type": "function",
      "constant": true
    },
    {
      "inputs": [
        {
          "internalType": "bool",
          "name": "addedORremove",
          "type": "bool"
        }
      ],
      "name": "retrievePendingProviders",
      "outputs": [
        {
          "internalType": "bytes32[]",
          "name": "",
          "type": "bytes32[]"
        },
        {
          "internalType": "string[]",
          "name": "",
          "type": "string[]"
        }
      ],
      "stateMutability": "view",
      "type": "function",
      "constant": true
    },
    {
      "inputs": [
        {
          "internalType": "address",
          "name": "provider",
          "type": "address"
        }
      ],
      "name": "retrieveProvider",
      "outputs": [
        {
          "internalType": "string",
          "name": "",
          "type": "string"
        },
        {
          "internalType": "bool",
          "name": "",
          "type": "bool"
        }
      ],
      "stateMutability": "view",
      "type": "function",
      "constant": true
    },
    {
      "inputs": [
        {
          "internalType": "address",
          "name": "holder",
          "type": "address"
        }
      ],
      "name": "retrieveTotalCertificatesByHolder",
      "outputs": [
        {
          "internalType": "uint256",
          "name": "",
          "type": "uint256"
        }
      ],
      "stateMutability": "view",
      "type": "function",
      "constant": true
    },
    {
      "inputs": [],
      "name": "validateMinOwners",
      "outputs": [],
      "stateMutability": "nonpayable",
      "type": "function"
    },
    {
      "inputs": [
        {
          "internalType": "address",
          "name": "owner",
          "type": "address"
        }
      ],
      "name": "validateOwner",
      "outputs": [],
      "stateMutability": "nonpayable",
      "type": "function"
    },
    {
      "inputs": [
        {
          "internalType": "address",
          "name": "provider",
          "type": "address"
        }
      ],
      "name": "validateProvider",
      "outputs": [],
      "stateMutability": "nonpayable",
      "type": "function"
    },
    {
      "inputs": [
        {
          "internalType": "address[]",
          "name": "owners",
          "type": "address[]"
        },
        {
          "internalType": "uint256",
          "name": "minOwners",
          "type": "uint256"
        }
      ],
      "name": "PrivateCertPool_init",
      "outputs": [],
      "stateMutability": "nonpayable",
      "type": "function"
    }
  ],
  "bytecode": "0x608060405234801561001057600080fd5b50613b12806100206000396000f3fe6080604052600436106101475760003560e01c80630b4c72a91461014c578063173825d91461016e5780631ab807f81461018e57806327a40b4b146101a15780632edbe7fc146101c157806330ade922146101e55780633542758f146101fa578063375834991461021a5780633fd071811461024857806358a1ba251461026857806365b973e5146102955780636b299604146102aa5780636b3a0fec146102d85780636e4f9179146102f85780636e55d2d41461030d57806376f8f90f1461032d57806377bc5a1f1461034d5780637c8c2add146102485780638a355a571461036d578063a93d5ed61461038d578063c3079ae7146103a2578063c3ccb191146103b7578063c66433ea146103d7578063ce33d58a146103f7578063cf2041d914610417578063d0a4adfe14610437578063d21c2bec1461048a578063fc000500146104aa575b600080fd5b34801561015857600080fd5b5061016c6101673660046130dd565b6104bd565b005b34801561017a57600080fd5b5061016c6101893660046130dd565b6104cb565b61016c61019c36600461348b565b610520565b3480156101ad57600080fd5b5061016c6101bc3660046130dd565b61052e565b3480156101cd57600080fd5b506005545b6040519081526020015b60405180910390f35b3480156101f157600080fd5b5061016c610539565b34801561020657600080fd5b5061016c6102153660046130f8565b610638565b34801561022657600080fd5b5061023a6102353660046130dd565b610646565b6040516101dc929190613740565b34801561025457600080fd5b5061016c6102633660046134b7565b61065e565b34801561027457600080fd5b5061028861028336600461317a565b610725565b6040516101dc91906136ad565b3480156102a157600080fd5b506001546101d2565b3480156102b657600080fd5b506102ca6102c5366004613438565b6108cb565b6040516101dc9291906136c0565b3480156102e457600080fd5b506102ca6102f3366004613438565b6108da565b34801561030457600080fd5b506102886108e8565b34801561031957600080fd5b506101d26103283660046130dd565b6108f9565b34801561033957600080fd5b5061016c6103483660046130dd565b610917565b34801561035957600080fd5b5061023a6103683660046130dd565b610972565b34801561037957600080fd5b5061016c6103883660046130dd565b610982565b34801561039957600080fd5b5061028861098d565b3480156103ae57600080fd5b5061016c61099a565b3480156103c357600080fd5b5061016c6103d23660046131ad565b610a99565b3480156103e357600080fd5b5061016c6103f2366004613599565b610cc8565b34801561040357600080fd5b5061016c6104123660046130dd565b610db4565b34801561042357600080fd5b5061016c6104323660046131f1565b610dc0565b34801561044357600080fd5b5061047d61045236600461348b565b6001600160a01b039081166000908152600a6020908152604080832094835293905291909120541690565b6040516101dc9190613619565b34801561049657600080fd5b5061016c6104a53660046131ad565b61106c565b61016c6104b83660046130f8565b6110cd565b6104c88160016110da565b50565b60015460016104db6000546115ab565b516104e691906139ef565b8082111561050f5760405162461bcd60e51b815260040161050690613764565b60405180910390fd5b61051b83600054611712565b505050565b61052a8282611a79565b5050565b6104c8816001611bad565b6105453360005461203e565b15156001146105665760405162461bcd60e51b815260040161050690613865565b60016005546105875760405162461bcd60e51b815260040161050690613782565b60405163f7cf62d760e01b815273__AddressLibrary________________________9063f7cf62d7906105c190339060089060040161362d565b60206040518083038186803b1580156105d957600080fd5b505af41580156105ed573d6000803e3d6000fd5b505050506040513d601f19601f820116820180604052508101906106119190613455565b1561062e5760405162461bcd60e51b8152600401610506906137be565b6104c8600161222f565b61051b8383836000546122b6565b60606000610655836001612685565b91509150915091565b604051630d1d719d60e41b8152309073__Library_______________________________9063d1d719d090610697908490600401613619565b60206040518083038186803b1580156106af57600080fd5b505af41580156106c3573d6000803e3d6000fd5b505050506040513d601f19601f820116820180604052508101906106e79190613455565b151560011461071e5760405162461bcd60e51b815260206004820152600360248201526208a86760eb1b6044820152606401610506565b5050505050565b606082610731856108f9565b1161074b57506040805160008152602081019091526108c4565b818084610757876108f9565b61076191906139ef565b101561077e5783610771866108f9565b61077b91906139ef565b90505b6000816001600160401b0381111561079857610798613ab8565b6040519080825280602002602001820160405280156107c1578160200160208202803683370190505b506001600160a01b0387166000908152600a602090815260408083206001018054825181850281018501909352808352949550929390929183018282801561082857602002820191906000526020600020905b815481526020019060010190808311610814575b5050505050905060008060005b83518110156108bb5787831061084a576108bb565b818911156108645761085d6001836139d7565b91506108a9565b83818151811061087657610876613aa2565b602002602001015185848151811061089057610890613aa2565b60209081029190910101526108a66001846139d7565b92505b806108b381613a71565b915050610835565b50929450505050505b9392505050565b60608061065583600054612882565b606080610655836001612882565b60606108f460016115ab565b905090565b6001600160a01b03166000908152600a602052604090206001015490565b61092381600054612a01565b15156001141561096657600161093a6000546115ab565b5161094591906139ef565b60015411156109665760405162461bcd60e51b815260040161050690613764565b6104c881600054611bad565b6060600061065583600054612685565b6104c8816001611712565b60606108f46000546115ab565b6109a63360005461203e565b15156001146109c75760405162461bcd60e51b815260040161050690613865565b60016005546109e85760405162461bcd60e51b815260040161050690613782565b60405163f7cf62d760e01b815273__AddressLibrary________________________9063f7cf62d790610a2290339060089060040161362d565b60206040518083038186803b158015610a3a57600080fd5b505af4158015610a4e573d6000803e3d6000fd5b505050506040513d601f19601f82011682018060405250810190610a729190613455565b15610a8f5760405162461bcd60e51b8152600401610506906137be565b6104c8600061222f565b600454610100900460ff1680610ab2575060045460ff16155b610ace5760405162461bcd60e51b8152600401610506906137f9565b600454610100900460ff16158015610af0576004805461ffff19166101011790555b6040805160028082526060820190925290816020015b6060815260200190600190039081610b065750508051610b2e91600991602090910190612e3c565b506040518060400160405280600581526020016427bbb732b960d91b8152506009600081548110610b6157610b61613aa2565b906000526020600020019080519060200190610b7e929190612e99565b5060405180604001604052806008815260200167283937bb34b232b960c11b8152506009600181548110610bb457610bb4613aa2565b906000526020600020019080519060200190610bd1929190612e99565b50610cb2838360026009805480602002602001604051908101604052809291908181526020016000905b82821015610ca7578382906000526020600020018054610c1a90613a36565b80601f0160208091040260200160405190810160405280929190818152602001828054610c4690613a36565b8015610c935780601f10610c6857610100808354040283529160200191610c93565b820191906000526020600020905b815481529060010190602001808311610c7657829003601f168201915b505050505081526020019060010190610bfb565b505050506000610dc0565b801561051b576004805461ff0019169055505050565b610cd43360005461203e565b1515600114610cf55760405162461bcd60e51b815260040161050690613865565b600060055415610d305760405162461bcd60e51b8152600401610506906020808252600490820152630454333360e41b604082015260600190565b81600260005481548110610d4657610d46613aa2565b90600052602060002090600402016001018054905080821115610d7b5760405162461bcd60e51b815260040161050690613764565b600084818111610d9d5760405162461bcd60e51b815260040161050690613847565b6005869055610dac600161222f565b505050505050565b6104c8816000546110da565b600454610100900460ff1680610dd9575060045460ff16155b610df55760405162461bcd60e51b8152600401610506906137f9565b600454610100900460ff16158015610e17576004805461ffff19166101011790555b84865180821115610e3a5760405162461bcd60e51b815260040161050690613764565b600087818111610e5c5760405162461bcd60e51b815260040161050690613847565b86518814610e955760405162461bcd60e51b81526004016105069060208082526004908201526308a8662760e31b604082015260600190565b60008681555b88811015610f0b576002805460010181556000528751600390899083908110610ec657610ec6613aa2565b60209081029190910181015182546001810184556000938452928290208151610ef89491909101929190910190612e99565b5080610f0381613a71565b915050610e9b565b50600189905560005b8a5181101561104e57600073__AddressLibrary________________________63bc215e858d8481518110610f4b57610f4b613aa2565b60200260200101516040518263ffffffff1660e01b8152600401610f6f9190613619565b60206040518083038186803b158015610f8757600080fd5b505af4158015610f9b573d6000803e3d6000fd5b505050506040513d601f19601f82011682018060405250810190610fbf9190613472565b90506001600260005481548110610fd857610fd8613aa2565b60009182526020808320858452600492909202909101905260408120805460ff1916921515929092179091555460028054909190811061101a5761101a613aa2565b600091825260208083206001600490930201820180549283018155835290912001558061104681613a71565b915050610f14565b50505050508015610dac576004805461ff0019169055505050505050565b600454610100900460ff1680611085575060045460ff16155b6110a15760405162461bcd60e51b8152600401610506906137f9565b600454610100900460ff161580156110c3576004805461ffff19166101011790555b610cb28383610a99565b61051b83838360016122b6565b60025460405163123bd07560e11b815282919073__Library_______________________________90632477a0ea906111199085908590600401613732565b60206040518083038186803b15801561113157600080fd5b505af4158015611145573d6000803e3d6000fd5b505050506040513d601f19601f820116820180604052508101906111699190613455565b151560011461118a5760405162461bcd60e51b815260040161050690613882565b6111963360005461203e565b15156001146111b75760405162461bcd60e51b815260040161050690613865565b600184846111c58282612b6d565b1515600114806111e057506111da8282612a01565b15156001145b6111fc5760405162461bcd60e51b8152600401610506906137db565b8686600073__AddressLibrary________________________63bc215e85846040518263ffffffff1660e01b81526004016112379190613619565b60206040518083038186803b15801561124f57600080fd5b505af4158015611263573d6000803e3d6000fd5b505050506040513d601f19601f820116820180604052508101906112879190613472565b905073__ItemsLibrary__________________________637b6d23de3383600286815481106112b8576112b8613aa2565b90600052602060002090600402016040518463ffffffff1660e01b81526004016112e49392919061368c565b60206040518083038186803b1580156112fc57600080fd5b505af4158015611310573d6000803e3d6000fd5b505050506040513d601f19601f820116820180604052508101906113349190613455565b156113515760405162461bcd60e51b8152600401610506906137be565b60405163bc215e8560e01b815260009073__AddressLibrary________________________9063bc215e859061138b908e90600401613619565b60206040518083038186803b1580156113a357600080fd5b505af41580156113b7573d6000803e3d6000fd5b505050506040513d601f19601f820116820180604052508101906113db9190613472565b60408051600180825281830190925291925060009190602080830190803683370190505090508a8160008151811061141557611415613aa2565b60200260200101818152505060006040518060c00160405280848152602001604051806020016040528060008152508152602001600154815260200160038e8154811061146457611464613aa2565b90600052602060002001805461147990613a36565b80601f01602080910402602001604051908101604052809291908181526020018280546114a590613a36565b80156114f25780601f106114c7576101008083540402835291602001916114f2565b820191906000526020600020905b8154815290600101906020018083116114d557829003601f168201915b50505050508152602001838152602001600115158152509050600060028d8154811061152057611520613aa2565b9060005260206000209060040201905073__ItemsLibrary__________________________635cb09bcf8383306040518463ffffffff1660e01b815260040161156b9392919061389f565b60006040518083038186803b15801561158357600080fd5b505af4158015611597573d6000803e3d6000fd5b505050505050505050505050505050505050565b60025460405163123bd07560e11b8152606091839173__Library_______________________________90632477a0ea906115ec9085908590600401613732565b60206040518083038186803b15801561160457600080fd5b505af4158015611618573d6000803e3d6000fd5b505050506040513d601f19601f8201168201806040525081019061163c9190613455565b151560011461165d5760405162461bcd60e51b815260040161050690613882565b73__ItemsLibrary__________________________6327724f4b6002868154811061168a5761168a613aa2565b90600052602060002090600402016040518263ffffffff1660e01b81526004016116b691815260200190565b60006040518083038186803b1580156116ce57600080fd5b505af41580156116e2573d6000803e3d6000fd5b505050506040513d6000823e601f3d908101601f1916820160405261170a919081019061332a565b949350505050565b60025460405163123bd07560e11b815282919073__Library_______________________________90632477a0ea906117519085908590600401613732565b60206040518083038186803b15801561176957600080fd5b505af415801561177d573d6000803e3d6000fd5b505050506040513d601f19601f820116820180604052508101906117a19190613455565b15156001146117c25760405162461bcd60e51b815260040161050690613882565b6117ce3360005461203e565b15156001146117ef5760405162461bcd60e51b815260040161050690613865565b600184846117fd828261203e565b15156001146118345760405162461bcd60e51b815260206004820152600360248201526245433760e81b6044820152606401610506565b600087876118428282612a01565b1561185f5760405162461bcd60e51b8152600401610506906137a0565b60405163bc215e8560e01b815260009073__AddressLibrary________________________9063bc215e8590611899908e90600401613619565b60206040518083038186803b1580156118b157600080fd5b505af41580156118c5573d6000803e3d6000fd5b505050506040513d601f19601f820116820180604052508101906118e99190613472565b60408051600180825281830190925291925060009190602080830190803683370190505090508a8160008151811061192357611923613aa2565b60200260200101818152505060006040518060c00160405280848152602001604051806020016040528060008152508152602001600154815260200160038e8154811061197257611972613aa2565b90600052602060002001805461198790613a36565b80601f01602080910402602001604051908101604052809291908181526020018280546119b390613a36565b8015611a005780601f106119d557610100808354040283529160200191611a00565b820191906000526020600020905b8154815290600101906020018083116119e357829003601f168201915b50505050508152602001838152602001600115158152509050600060028d81548110611a2e57611a2e613aa2565b9060005260206000209060040201905073__ItemsLibrary__________________________63e23fcdef8383306040518463ffffffff1660e01b815260040161156b9392919061389f565b611a8233612cd8565b1515600114611abc5760405162461bcd60e51b81526004016105069060208082526004908201526322a1989960e11b604082015260600190565b816001600160a01b038083166000908152600a60209081526040808320878452909152902054839185911615611b1d5760405162461bcd60e51b8152600401610506906020808252600490820152634543313560e01b604082015260600190565b6001600160a01b0384166000818152600a602081815260408084208a855280835281852080546001600160a01b031916339081179091559383526001908101805491820181558552919093200188905590517ff55a90628981610edc26894247bee72e1963d1c9faa4ea6533fd3df39fd36ed490611b9e9089815260200190565b60405180910390a35050505050565b60025460405163123bd07560e11b815282919073__Library_______________________________90632477a0ea90611bec9085908590600401613732565b60206040518083038186803b158015611c0457600080fd5b505af4158015611c18573d6000803e3d6000fd5b505050506040513d601f19601f82011682018060405250810190611c3c9190613455565b1515600114611c5d5760405162461bcd60e51b815260040161050690613882565b611c693360005461203e565b1515600114611c8a5760405162461bcd60e51b815260040161050690613865565b60018484611c988282612b6d565b151560011480611cb35750611cad8282612a01565b15156001145b611ccf5760405162461bcd60e51b8152600401610506906137db565b8686600073__AddressLibrary________________________63bc215e85846040518263ffffffff1660e01b8152600401611d0a9190613619565b60206040518083038186803b158015611d2257600080fd5b505af4158015611d36573d6000803e3d6000fd5b505050506040513d601f19601f82011682018060405250810190611d5a9190613472565b905073__ItemsLibrary__________________________637b6d23de338360028681548110611d8b57611d8b613aa2565b90600052602060002090600402016040518463ffffffff1660e01b8152600401611db79392919061368c565b60206040518083038186803b158015611dcf57600080fd5b505af4158015611de3573d6000803e3d6000fd5b505050506040513d601f19601f82011682018060405250810190611e079190613455565b15611e245760405162461bcd60e51b8152600401610506906137be565b60405163bc215e8560e01b815260009073__AddressLibrary________________________9063bc215e8590611e5e908e90600401613619565b60206040518083038186803b158015611e7657600080fd5b505af4158015611e8a573d6000803e3d6000fd5b505050506040513d601f19601f82011682018060405250810190611eae9190613472565b60408051600180825281830190925291925060009190602080830190803683370190505090508a81600081518110611ee857611ee8613aa2565b60200260200101818152505060006040518060c00160405280848152602001604051806020016040528060008152508152602001600154815260200160038e81548110611f3757611f37613aa2565b906000526020600020018054611f4c90613a36565b80601f0160208091040260200160405190810160405280929190818152602001828054611f7890613a36565b8015611fc55780601f10611f9a57610100808354040283529160200191611fc5565b820191906000526020600020905b815481529060010190602001808311611fa857829003601f168201915b50505050508152602001838152602001600115158152509050600060028d81548110611ff357611ff3613aa2565b9060005260206000209060040201905073__ItemsLibrary__________________________637493a70b8383306040518463ffffffff1660e01b815260040161156b9392919061389f565b60025460405163123bd07560e11b8152600091839173__Library_______________________________90632477a0ea9061207f9085908590600401613732565b60206040518083038186803b15801561209757600080fd5b505af41580156120ab573d6000803e3d6000fd5b505050506040513d601f19601f820116820180604052508101906120cf9190613455565b15156001146120f05760405162461bcd60e51b815260040161050690613882565b60405163bc215e8560e01b815260009073__AddressLibrary________________________9063bc215e859061212a908990600401613619565b60206040518083038186803b15801561214257600080fd5b505af4158015612156573d6000803e3d6000fd5b505050506040513d601f19601f8201168201806040525081019061217a9190613472565b905073__ItemsLibrary__________________________63dbdfbeec82600288815481106121aa576121aa613aa2565b90600052602060002090600402016040518363ffffffff1660e01b81526004016121d5929190613732565b60206040518083038186803b1580156121ed57600080fd5b505af4158015612201573d6000803e3d6000fd5b505050506040513d601f19601f820116820180604052508101906122259190613455565b9695505050505050565b80156122535760016006600082825461224891906139d7565b9091555061226c9050565b60016007600082825461226691906139d7565b90915550505b600880546001810182556000919091527ff3f7a9fe364faab93b216da50a3214154f22a0a2b415b23a84c8169e8b636ee30180546001600160a01b031916331790556104c8612ceb565b60025460405163123bd07560e11b815282919073__Library_______________________________90632477a0ea906122f59085908590600401613732565b60206040518083038186803b15801561230d57600080fd5b505af4158015612321573d6000803e3d6000fd5b505050506040513d601f19601f820116820180604052508101906123459190613455565b15156001146123665760405162461bcd60e51b815260040161050690613882565b6123723360005461203e565b15156001146123935760405162461bcd60e51b815260040161050690613865565b600086846123a1828261203e565b156123d45760405162461bcd60e51b815260206004820152600360248201526222a19b60e91b6044820152606401610506565b600089876123e28282612b6d565b156123ff5760405162461bcd60e51b8152600401610506906137a0565b600073__AddressLibrary________________________63bc215e858e6040518263ffffffff1660e01b81526004016124389190613619565b60206040518083038186803b15801561245057600080fd5b505af4158015612464573d6000803e3d6000fd5b505050506040513d601f19601f820116820180604052508101906124889190613472565b60408051600180825281830190925291925060009190602080830190803683370190505090508a816000815181106124c2576124c2613aa2565b60200260200101818152505060006040518060c001604052808481526020018f8f8080601f0160208091040260200160405190810160405280939291908181526020018383808284376000920191909152505050908252506001546020820152600380546040909201918f90811061253c5761253c613aa2565b90600052602060002001805461255190613a36565b80601f016020809104026020016040519081016040528092919081815260200182805461257d90613a36565b80156125ca5780601f1061259f576101008083540402835291602001916125ca565b820191906000526020600020905b8154815290600101906020018083116125ad57829003601f168201915b50505050508152602001838152602001600115158152509050600060028d815481106125f8576125f8613aa2565b9060005260206000209060040201905073__ItemsLibrary__________________________630b985aaa8383306040518463ffffffff1660e01b81526004016126439392919061389f565b60006040518083038186803b15801561265b57600080fd5b505af415801561266f573d6000803e3d6000fd5b5050505050505050505050505050505050505050565b60025460405163123bd07560e11b815260609160009184919073__Library_______________________________90632477a0ea906126ca9085908590600401613732565b60206040518083038186803b1580156126e257600080fd5b505af41580156126f6573d6000803e3d6000fd5b505050506040513d601f19601f8201168201806040525081019061271a9190613455565b151560011461273b5760405162461bcd60e51b815260040161050690613882565b60405163bc215e8560e01b815260009073__AddressLibrary________________________9063bc215e8590612775908a90600401613619565b60206040518083038186803b15801561278d57600080fd5b505af41580156127a1573d6000803e3d6000fd5b505050506040513d601f19601f820116820180604052508101906127c59190613472565b905073__ItemsLibrary__________________________631aeccc6a82600289815481106127f5576127f5613aa2565b90600052602060002090600402016040518363ffffffff1660e01b8152600401612820929190613732565b60006040518083038186803b15801561283857600080fd5b505af415801561284c573d6000803e3d6000fd5b505050506040513d6000823e601f3d908101601f191682016040526128749190810190613548565b945094505050509250929050565b60025460405163123bd07560e11b8152606091829184919073__Library_______________________________90632477a0ea906128c69085908590600401613732565b60206040518083038186803b1580156128de57600080fd5b505af41580156128f2573d6000803e3d6000fd5b505050506040513d601f19601f820116820180604052508101906129169190613455565b15156001146129375760405162461bcd60e51b815260040161050690613882565b60608073__ItemsLibrary__________________________63e035e0068960028a8154811061296857612968613aa2565b90600052602060002090600402016040518363ffffffff1660e01b815260040161299e9291909115158252602082015260400190565b60006040518083038186803b1580156129b657600080fd5b505af41580156129ca573d6000803e3d6000fd5b505050506040513d6000823e601f3d908101601f191682016040526129f2919081019061335e565b90999098509650505050505050565b60025460405163123bd07560e11b8152600091839173__Library_______________________________90632477a0ea90612a429085908590600401613732565b60206040518083038186803b158015612a5a57600080fd5b505af4158015612a6e573d6000803e3d6000fd5b505050506040513d601f19601f82011682018060405250810190612a929190613455565b1515600114612ab35760405162461bcd60e51b815260040161050690613882565b60405163bc215e8560e01b815260009073__AddressLibrary________________________9063bc215e8590612aed908990600401613619565b60206040518083038186803b158015612b0557600080fd5b505af4158015612b19573d6000803e3d6000fd5b505050506040513d601f19601f82011682018060405250810190612b3d9190613472565b905073__ItemsLibrary__________________________632854ed2e82600288815481106121aa576121aa613aa2565b60025460405163123bd07560e11b8152600091839173__Library_______________________________90632477a0ea90612bae9085908590600401613732565b60206040518083038186803b158015612bc657600080fd5b505af4158015612bda573d6000803e3d6000fd5b505050506040513d601f19601f82011682018060405250810190612bfe9190613455565b1515600114612c1f5760405162461bcd60e51b815260040161050690613882565b60405163bc215e8560e01b815260009073__AddressLibrary________________________9063bc215e8590612c59908990600401613619565b60206040518083038186803b158015612c7157600080fd5b505af4158015612c85573d6000803e3d6000fd5b505050506040513d601f19601f82011682018060405250810190612ca99190613472565b905073__ItemsLibrary__________________________6226d76682600288815481106121aa576121aa613aa2565b6000612ce582600161203e565b92915050565b60065460015460405163f6001d7d60e01b815273__ItemsLibrary__________________________9263f6001d7d92612d2692600401613732565b60206040518083038186803b158015612d3e57600080fd5b505af4158015612d52573d6000803e3d6000fd5b505050506040513d601f19601f82011682018060405250810190612d769190613455565b15612d8b57600554600155612d89612e1f565b565b60075460015460405163f6001d7d60e01b815273__ItemsLibrary__________________________9263f6001d7d92612dc692600401613732565b60206040518083038186803b158015612dde57600080fd5b505af4158015612df2573d6000803e3d6000fd5b505050506040513d601f19601f82011682018060405250810190612e169190613455565b15612d8957612d895b6000600581905560068190556007819055612d8990600890612f19565b828054828255906000526020600020908101928215612e89579160200282015b82811115612e895782518051612e79918491602090910190612e99565b5091602001919060010190612e5c565b50612e95929150612f37565b5090565b828054612ea590613a36565b90600052602060002090601f016020900481019282612ec75760008555612f0d565b82601f10612ee057805160ff1916838001178555612f0d565b82800160010185558215612f0d579182015b82811115612f0d578251825591602001919060010190612ef2565b50612e95929150612f54565b50805460008255906000526020600020908101906104c89190612f54565b80821115612e95576000612f4b8282612f69565b50600101612f37565b5b80821115612e955760008155600101612f55565b508054612f7590613a36565b6000825580601f10612f85575050565b601f0160209004906000526020600020908101906104c89190612f54565b80356001600160a01b0381168114612fba57600080fd5b919050565b600082601f830112612fd057600080fd5b81356020612fe5612fe08361398d565b61395d565b80838252828201915082860187848660051b890101111561300557600080fd5b60005b8581101561302b5761301982612fa3565b84529284019290840190600101613008565b5090979650505050505050565b600082601f83011261304957600080fd5b81516020613059612fe08361398d565b80838252828201915082860187848660051b890101111561307957600080fd5b60005b8581101561302b5781518452928401929084019060010161307c565b600082601f8301126130a957600080fd5b81516130b7612fe0826139b0565b8181528460208386010111156130cc57600080fd5b61170a826020830160208701613a06565b6000602082840312156130ef57600080fd5b6108c482612fa3565b60008060006040848603121561310d57600080fd5b61311684612fa3565b925060208401356001600160401b038082111561313257600080fd5b818601915086601f83011261314657600080fd5b81358181111561315557600080fd5b87602082850101111561316757600080fd5b6020830194508093505050509250925092565b60008060006060848603121561318f57600080fd5b61319884612fa3565b95602085013595506040909401359392505050565b600080604083850312156131c057600080fd5b82356001600160401b038111156131d657600080fd5b6131e285828601612fbf565b95602094909401359450505050565b600080600080600060a0868803121561320957600080fd5b6001600160401b03863581101561321f57600080fd5b61322c8888358901612fbf565b95506020870135945060408701359350806060880135111561324d57600080fd5b6060870135870188601f82011261326357600080fd5b613270612fe0823561398d565b8082358252602082019150602083018b6020853560051b860101111561329557600080fd5b60005b84358110156133105785823511156132af57600080fd5b813585018d603f8201126132c257600080fd5b60208101356132d3612fe0826139b0565b8181528f60408385010111156132e857600080fd5b8160408401602083013760006020928201830152865294850194929092019150600101613298565b505080955050505050608086013590509295509295909350565b60006020828403121561333c57600080fd5b81516001600160401b0381111561335257600080fd5b61170a84828501613038565b6000806040838503121561337157600080fd5b82516001600160401b038082111561338857600080fd5b61339486838701613038565b93506020915081850151818111156133ab57600080fd5b8501601f810187136133bc57600080fd5b80516133ca612fe08261398d565b8082825285820191508584018a878560051b87010111156133ea57600080fd5b6000805b8581101561342557825188811115613404578283fd5b6134128e8b838b0101613098565b86525093880193918801916001016133ee565b5050508096505050505050509250929050565b60006020828403121561344a57600080fd5b81356108c481613ace565b60006020828403121561346757600080fd5b81516108c481613ace565b60006020828403121561348457600080fd5b5051919050565b6000806040838503121561349e57600080fd5b823591506134ae60208401612fa3565b90509250929050565b600080600080606085870312156134cd57600080fd5b8435935060208501356001600160401b03808211156134eb57600080fd5b818701915087601f8301126134ff57600080fd5b81358181111561350e57600080fd5b8860208260051b850101111561352357600080fd5b602083019550809450505050604085013561353d81613ace565b939692955090935050565b6000806040838503121561355b57600080fd5b82516001600160401b0381111561357157600080fd5b61357d85828601613098565b925050602083015161358e81613ace565b809150509250929050565b6000602082840312156135ab57600080fd5b5035919050565b600081518084526020808501945080840160005b838110156135e2578151875295820195908201906001016135c6565b509495945050505050565b60008151808452613605816020860160208601613a06565b601f01601f19169290920160200192915050565b6001600160a01b0391909116815260200190565b60006040820160018060a01b03808616845260206040818601528286548085526060870191508760005282600020945060005b8181101561367e578554851683526001958601959284019201613660565b509098975050505050505050565b6001600160a01b039390931683526020830191909152604082015260600190565b6020815260006108c460208301846135b2565b6040815260006136d360408301856135b2565b6020838203818501528185518084528284019150828160051b85010183880160005b8381101561372357601f198784030185526137118383516135ed565b948601949250908501906001016136f5565b50909998505050505050505050565b918252602082015260400190565b60408152600061375360408301856135ed565b905082151560208301529392505050565b6020808252600490820152634543313960e01b604082015260600190565b6020808252600490820152634543333160e01b604082015260600190565b6020808252600490820152634543323760e01b604082015260600190565b60208082526003908201526245433560e81b604082015260600190565b60208082526004908201526308a8664760e31b604082015260600190565b6020808252602e908201527f496e697469616c697a61626c653a20636f6e747261637420697320616c72656160408201526d191e481a5b9a5d1a585b1a5e995960921b606082015260800190565b6020808252600490820152634543313760e01b604082015260600190565b60208082526003908201526245433960e81b604082015260600190565b60208082526003908201526245433160e81b604082015260600190565b6060815283516060820152600060208086015160c060808501526138c76101208501826135ed565b9050604087015160a08501526060870151605f19808684030160c08701526138ef83836135ed565b60808a015187820390920160e088015281518082529185019350600092508401905b808310156139315783518252928401926001929092019190840190613911565b5060a0890151151561010087015292850187905250506001600160a01b0384166040840152905061170a565b604051601f8201601f191681016001600160401b038111828210171561398557613985613ab8565b604052919050565b60006001600160401b038211156139a6576139a6613ab8565b5060051b60200190565b60006001600160401b038211156139c9576139c9613ab8565b50601f01601f191660200190565b600082198211156139ea576139ea613a8c565b500190565b600082821015613a0157613a01613a8c565b500390565b60005b83811015613a21578181015183820152602001613a09565b83811115613a30576000848401525b50505050565b600181811c90821680613a4a57607f821691505b60208210811415613a6b57634e487b7160e01b600052602260045260246000fd5b50919050565b6000600019821415613a8557613a85613a8c565b5060010190565b634e487b7160e01b600052601160045260246000fd5b634e487b7160e01b600052603260045260246000fd5b634e487b7160e01b600052604160045260246000fd5b80151581146104c857600080fdfea2646970667358221220ee93e847fa61d8aec14c06d8a1ab042da98a29c1ad291fc2a690793c3f38d37464736f6c63430008070033",
  "immutableReferences": {},
  "source": "// SPDX-License-Identifier: GPL-3.0\r\n\r\npragma solidity >=0.7.0 <0.9.0;\r\n\r\n/**\r\n * @title Storage\r\n * @dev Store & retrieve value in a variable\r\n */\r\n\r\n import \"../Abstract/MultiSigCertificatesPool.sol\";\r\n import \"@openzeppelin/contracts-upgradeable/proxy/utils/Initializable.sol\";\r\n\r\n contract PrivateCertificatesPool is Initializable, MultiSigCertificatesPool {\r\n\r\n    // CONSTRUCTOR & INIT /////////////////////////////////////////\r\n    function PrivateCertPool_init(address[] memory owners,  uint256 minOwners) public initializer \r\n    {\r\n      super.MultiSigCertPool_init(owners, minOwners);\r\n    }\r\n\r\n  }",
  "sourcePath": "C:/Users/d-aam/GitHub/Certificates/contracts/DeployedContracts/PrivateCertificatesPool.sol",
  "compiler": {
    "name": "solc",
    "version": "0.8.7+commit.e28d00a7.Emscripten.clang"
  },
  "schemaVersion": "3.3.4",
  "updatedAt": "2021-08-24T06:28:03.901Z",
  "networkType": "ethereum",
  "devdoc": {
    "kind": "dev",
    "methods": {},
    "version": 1
  },
  "userdoc": {
    "kind": "user",
    "methods": {},
    "version": 1
  }
}