{
  "contractName": "PrivatePoolFactory",
  "abi": [
    {
      "anonymous": false,
      "inputs": [
        {
          "indexed": true,
          "internalType": "string",
          "name": "",
          "type": "string"
        },
        {
          "indexed": false,
          "internalType": "uint256",
          "name": "",
          "type": "uint256"
        },
        {
          "indexed": true,
          "internalType": "address",
          "name": "",
          "type": "address"
        },
        {
          "indexed": false,
          "internalType": "address",
          "name": "",
          "type": "address"
        },
        {
          "indexed": true,
          "internalType": "string",
          "name": "",
          "type": "string"
        }
      ],
      "name": "_NewElement",
      "type": "event"
    },
    {
      "inputs": [
        {
          "internalType": "address",
          "name": "managerContractAddress",
          "type": "address"
        }
      ],
      "name": "Factory_init",
      "outputs": [],
      "stateMutability": "nonpayable",
      "type": "function"
    },
    {
      "inputs": [
        {
          "internalType": "uint256",
          "name": "Id",
          "type": "uint256"
        }
      ],
      "name": "retrieve",
      "outputs": [
        {
          "internalType": "address",
          "name": "",
          "type": "address"
        },
        {
          "internalType": "address",
          "name": "",
          "type": "address"
        }
      ],
      "stateMutability": "view",
      "type": "function"
    },
    {
      "inputs": [],
      "name": "retrieveManagerContract",
      "outputs": [
        {
          "internalType": "address",
          "name": "",
          "type": "address"
        }
      ],
      "stateMutability": "view",
      "type": "function"
    },
    {
      "inputs": [],
      "name": "retrieveTotal",
      "outputs": [
        {
          "internalType": "uint256",
          "name": "",
          "type": "uint256"
        }
      ],
      "stateMutability": "view",
      "type": "function"
    },
    {
      "inputs": [
        {
          "internalType": "address",
          "name": "managerContractAddress",
          "type": "address"
        }
      ],
      "name": "PrivatePoolFactory_init",
      "outputs": [],
      "stateMutability": "nonpayable",
      "type": "function"
    },
    {
      "inputs": [
        {
          "internalType": "address[]",
          "name": "owners",
          "type": "address[]"
        },
        {
          "internalType": "uint256",
          "name": "minOwners",
          "type": "uint256"
        },
        {
          "internalType": "string",
          "name": "ElementName",
          "type": "string"
        }
      ],
      "name": "create",
      "outputs": [],
      "stateMutability": "payable",
      "type": "function"
    }
  ],
  "bytecode": "0x608060405234801561001057600080fd5b5061155d806100206000396000f3fe6080604052600436106200005c5760003560e01c806358e9a54f14620000615780635b362e8414620000885780636f86542a14620000c55780638f88708b14620000e55780639d4260a3146200012b578063aeb1c1ad1462000142575b600080fd5b3480156200006e57600080fd5b5062000086620000803660046200081f565b62000167565b005b3480156200009557600080fd5b506000546201000090046001600160a01b03166040516001600160a01b0390911681526020015b60405180910390f35b348015620000d257600080fd5b50600154604051908152602001620000bc565b348015620000f257600080fd5b506200010a620001043660046200097d565b620001ee565b604080516001600160a01b03938416815292909116602083015201620000bc565b620000866200013c36600462000866565b62000336565b3480156200014f57600080fd5b5062000086620001613660046200081f565b62000561565b600054610100900460ff168062000181575060005460ff16155b620001a95760405162461bcd60e51b8152600401620001a09062000a75565b60405180910390fd5b600054610100900460ff16158015620001cc576000805461ffff19166101011790555b620001d782620005c8565b8015620001ea576000805461ff00191690555b5050565b60015460405163123bd07560e11b81526004810183905260248101829052600091829184919073__Library_______________________________90632477a0ea9060440160206040518083038186803b1580156200024c57600080fd5b505af415801562000261573d6000803e3d6000fd5b505050506040513d601f19601f8201168201806040525081019062000287919062000959565b1515600114620002c35760405162461bcd60e51b8152600401620001a0906020808252600490820152634543312d60e01b604082015260600190565b60018581548110620002d957620002d962000b4f565b6000918252602090912060029091020154600180546001600160a01b0390921691879081106200030d576200030d62000b4f565b60009182526020909120600160029092020101549094506001600160a01b031692505050915091565b600060029054906101000a90046001600160a01b03166001600160a01b0316635a3794e96040518163ffffffff1660e01b815260040160206040518083038186803b1580156200038557600080fd5b505afa1580156200039a573d6000803e3d6000fd5b505050506040513d601f19601f82011682018060405250810190620003c0919062000846565b6001600160a01b031663f0c9325e3460016040518363ffffffff1660e01b8152600401620003ef919062000a4c565b6000604051808303818588803b1580156200040957600080fd5b505af11580156200041e573d6000803e3d6000fd5b5050505050600083836040516024016200043a929190620009f9565b60408051808303601f19018152918152602080830180516334870afb60e21b6001600160e01b03909116179052600080548351637c2f3aaf60e01b815293519495509093620100009091046001600160a01b031692637c2f3aaf926004808301939192829003018186803b158015620004b257600080fd5b505afa158015620004c7573d6000803e3d6000fd5b505050506040513d601f19601f82011682018060405250810190620004ed919062000846565b82604051620004fc906200079b565b62000509929190620009b5565b604051809103906000f08015801562000526573d6000803e3d6000fd5b5090506200055a816040518060400160405280600c81526020016b141c9a5d985d1948141bdbdb60a21b815250856200065c565b5050505050565b600054610100900460ff16806200057b575060005460ff16155b6200059a5760405162461bcd60e51b8152600401620001a09062000a75565b600054610100900460ff16158015620005bd576000805461ffff19166101011790555b620001d78262000167565b600054610100900460ff1680620005e2575060005460ff16155b620006015760405162461bcd60e51b8152600401620001a09062000a75565b600054610100900460ff1615801562000624576000805461ffff19166101011790555b6000805462010000600160b01b031916620100006001600160a01b038516021790558015620001ea576000805461ff00191690555050565b6040805180820182523381526001600160a01b0385811660208301908152600180548082018255600091909152835160029091027fb10e2d527612073b26eecdfd717e6a320cf44b4afac2b0732d9fcbe2b7fa0cf6810180549285166001600160a01b031993841617905591517fb10e2d527612073b26eecdfd717e6a320cf44b4afac2b0732d9fcbe2b7fa0cf7909201805492909316911617905590516200070790839062000997565b604051809103902081600001516001600160a01b0316846040516200072d919062000997565b604051908190039020600180547f1ca39c7d81f021b1dca105fb858bf2a88540adf1df782672dfd71b5ace6b839a91620007679162000af6565b85602001516040516200078d9291909182526001600160a01b0316602082015260400190565b60405180910390a450505050565b6109938062000b9583390190565b600082601f830112620007bb57600080fd5b81356001600160401b03811115620007d757620007d762000b65565b620007ec601f8201601f191660200162000ac3565b8181528460208386010111156200080257600080fd5b816020850160208301376000918101602001919091529392505050565b6000602082840312156200083257600080fd5b81356200083f8162000b7b565b9392505050565b6000602082840312156200085957600080fd5b81516200083f8162000b7b565b6000806000606084860312156200087c57600080fd5b83356001600160401b03808211156200089457600080fd5b818601915086601f830112620008a957600080fd5b8135602082821115620008c057620008c062000b65565b8160051b620008d182820162000ac3565b8381528281019086840183880185018d1015620008ed57600080fd5b600097505b858810156200092057803593506200090a8462000b7b565b83835260019790970196918401918401620008f2565b509850505087013594505060408601359150808211156200094057600080fd5b506200094f86828701620007a9565b9150509250925092565b6000602082840312156200096c57600080fd5b815180151581146200083f57600080fd5b6000602082840312156200099057600080fd5b5035919050565b60008251620009ab81846020870162000b1c565b9190910192915050565b60018060a01b03831681526040602082015260008251806040840152620009e481606085016020870162000b1c565b601f01601f1916919091016060019392505050565b604080825283519082018190526000906020906060840190828701845b8281101562000a3d5781516001600160a01b03168452928401929084019060010162000a16565b50505092019290925292915050565b602081016004831062000a6f57634e487b7160e01b600052602160045260246000fd5b91905290565b6020808252602e908201527f496e697469616c697a61626c653a20636f6e747261637420697320616c72656160408201526d191e481a5b9a5d1a585b1a5e995960921b606082015260800190565b604051601f8201601f191681016001600160401b038111828210171562000aee5762000aee62000b65565b604052919050565b60008282101562000b1757634e487b7160e01b600052601160045260246000fd5b500390565b60005b8381101562000b3957818101518382015260200162000b1f565b8381111562000b49576000848401525b50505050565b634e487b7160e01b600052603260045260246000fd5b634e487b7160e01b600052604160045260246000fd5b6001600160a01b038116811462000b9157600080fd5b5056fe608060405260405161099338038061099383398101604081905261002291610470565b61004d60017fa3f0ad74e5423aebfd80d3ef4346578335a9a72aeaee59ff6cb3582b35133d5161057f565b60008051602061094c83398151915214610069576100696105d0565b6100758282600061007c565b50506105fc565b61008583610156565b6040516001600160a01b038416907f1cf3b03a6cf19fa2baba4df148e9dcabedea7f8a5c07840e207e5c089be95d3e90600090a26000825111806100c65750805b156101515761014f836001600160a01b0316635c60da1b6040518163ffffffff1660e01b815260040160206040518083038186803b15801561010757600080fd5b505afa15801561011b573d6000803e3d6000fd5b505050506040513d601f19601f8201168201806040525081019061013f9190610455565b836102f660201b6100291760201c565b505b505050565b6101698161032260201b6100551760201c565b6101c85760405162461bcd60e51b815260206004820152602560248201527f455243313936373a206e657720626561636f6e206973206e6f74206120636f6e6044820152641d1c9858dd60da1b60648201526084015b60405180910390fd5b61024b816001600160a01b0316635c60da1b6040518163ffffffff1660e01b815260040160206040518083038186803b15801561020457600080fd5b505afa158015610218573d6000803e3d6000fd5b505050506040513d601f19601f8201168201806040525081019061023c9190610455565b61032260201b6100551760201c565b6102b05760405162461bcd60e51b815260206004820152603060248201527f455243313936373a20626561636f6e20696d706c656d656e746174696f6e206960448201526f1cc81b9bdd08184818dbdb9d1c9858dd60821b60648201526084016101bf565b806102d560008051602061094c83398151915260001b61032860201b61005b1760201c565b80546001600160a01b0319166001600160a01b039290921691909117905550565b606061031b838360405180606001604052806027815260200161096c6027913961032b565b9392505050565b3b151590565b90565b6060833b61038a5760405162461bcd60e51b815260206004820152602660248201527f416464726573733a2064656c65676174652063616c6c20746f206e6f6e2d636f6044820152651b9d1c9858dd60d21b60648201526084016101bf565b600080856001600160a01b0316856040516103a59190610530565b600060405180830381855af49150503d80600081146103e0576040519150601f19603f3d011682016040523d82523d6000602084013e6103e5565b606091505b5090925090506103f6828286610400565b9695505050505050565b6060831561040f57508161031b565b82511561041f5782518084602001fd5b8160405162461bcd60e51b81526004016101bf919061054c565b80516001600160a01b038116811461045057600080fd5b919050565b60006020828403121561046757600080fd5b61031b82610439565b6000806040838503121561048357600080fd5b61048c83610439565b60208401519092506001600160401b03808211156104a957600080fd5b818501915085601f8301126104bd57600080fd5b8151818111156104cf576104cf6105e6565b604051601f8201601f19908116603f011681019083821181831017156104f7576104f76105e6565b8160405282815288602084870101111561051057600080fd5b6105218360208301602088016105a4565b80955050505050509250929050565b600082516105428184602087016105a4565b9190910192915050565b602081526000825180602084015261056b8160408501602087016105a4565b601f01601f19169190910160400192915050565b60008282101561059f57634e487b7160e01b600052601160045260246000fd5b500390565b60005b838110156105bf5781810151838201526020016105a7565b8381111561014f5750506000910152565b634e487b7160e01b600052600160045260246000fd5b634e487b7160e01b600052604160045260246000fd5b6103418061060b6000396000f3fe60806040523661001357610011610017565b005b6100115b61002761002261005e565b610106565b565b606061004e83836040518060600160405280602781526020016102e56027913961012a565b9392505050565b3b151590565b90565b60006100917fa3f0ad74e5423aebfd80d3ef4346578335a9a72aeaee59ff6cb3582b35133d50546001600160a01b031690565b6001600160a01b0316635c60da1b6040518163ffffffff1660e01b815260040160206040518083038186803b1580156100c957600080fd5b505afa1580156100dd573d6000803e3d6000fd5b505050506040513d601f19601f82011682018060405250810190610101919061023c565b905090565b3660008037600080366000845af43d6000803e808015610125573d6000f35b3d6000fd5b6060833b61018e5760405162461bcd60e51b815260206004820152602660248201527f416464726573733a2064656c65676174652063616c6c20746f206e6f6e2d636f6044820152651b9d1c9858dd60d21b60648201526084015b60405180910390fd5b600080856001600160a01b0316856040516101a99190610265565b600060405180830381855af49150503d80600081146101e4576040519150601f19603f3d011682016040523d82523d6000602084013e6101e9565b606091505b50915091506101f9828286610203565b9695505050505050565b6060831561021257508161004e565b8251156102225782518084602001fd5b8160405162461bcd60e51b81526004016101859190610281565b60006020828403121561024e57600080fd5b81516001600160a01b038116811461004e57600080fd5b600082516102778184602087016102b4565b9190910192915050565b60208152600082518060208401526102a08160408501602087016102b4565b601f01601f19169190910160400192915050565b60005b838110156102cf5781810151838201526020016102b7565b838111156102de576000848401525b5050505056fe416464726573733a206c6f772d6c6576656c2064656c65676174652063616c6c206661696c6564a2646970667358221220d403ceeafd1a8a95bac5042ee17868655bf495ec1518e7fe81eb94935c79e11764736f6c63430008070033a3f0ad74e5423aebfd80d3ef4346578335a9a72aeaee59ff6cb3582b35133d50416464726573733a206c6f772d6c6576656c2064656c65676174652063616c6c206661696c6564a26469706673582212205ac69417ecf0b4b7f9956243593c7f1ef757e5b772ac0b580838c3dab21bb8e564736f6c63430008070033",
  "immutableReferences": {},
  "source": "// SPDX-License-Identifier: GPL-3.0\r\n\r\npragma solidity 0.8.7;\r\n\r\n/*\r\n  Private Pool Factory inherits from Factory.\r\n  Before creating a new Element a payment is made to Treasury.\r\n  Private Pool Elements are Beacon Proxy, the Beacon implementation address is stored in Manager contract.\r\n */\r\n\r\n import \"../Interfaces/ITreasury.sol\";\r\n import \"../Abstract/Factory.sol\";\r\n import \"@openzeppelin/contracts/proxy/beacon/BeaconProxy.sol\";\r\n\r\ncontract PrivatePoolFactory is Factory{\r\n\r\n    // CONSTRUCTOR /////////////////////////////////////////\r\n    function PrivatePoolFactory_init(address managerContractAddress) public initializer {\r\n        super.Factory_init(managerContractAddress);\r\n    }\r\n\r\n    // FUNCTIONALITY /////////////////////////////////////////\r\n    function create(address[] memory owners,  uint256 minOwners, string memory ElementName) external override payable\r\n    {\r\n        ITreasury(_managerContract.retrieveTreasuryProxy()).pay{value:msg.value}(Library.Prices.NewPool);\r\n        bytes memory data = abi.encodeWithSignature(\"PrivateCertPool_init(address[],uint256)\", owners, minOwners);\r\n        BeaconProxy certificatePoolProxy = new BeaconProxy(_managerContract.retrievePrivatePoolBeacon(), data);\r\n        internalCreate(address(certificatePoolProxy), \"Private Pool\", ElementName);\r\n    }\r\n\r\n\r\n}",
  "sourcePath": "C:/Users/d-aam/GitHub/Certificates/contracts/DeployedContracts/PrivatePoolFactory.sol",
  "compiler": {
    "name": "solc",
    "version": "0.8.7+commit.e28d00a7.Emscripten.clang"
  },
  "schemaVersion": "3.3.4",
  "updatedAt": "2021-09-14T07:52:55.722Z",
  "devdoc": {
    "kind": "dev",
    "methods": {},
    "version": 1
  },
  "userdoc": {
    "kind": "user",
    "methods": {},
    "version": 1
  }
}