{
  "contractName": "PrivateCertificatesPool",
  "abi": [
    {
      "anonymous": false,
      "inputs": [
        {
          "indexed": true,
          "internalType": "address",
          "name": "",
          "type": "address"
        },
        {
          "indexed": true,
          "internalType": "address",
          "name": "",
          "type": "address"
        },
        {
          "indexed": false,
          "internalType": "bytes32",
          "name": "",
          "type": "bytes32"
        }
      ],
      "name": "_AddCertificate",
      "type": "event"
    },
    {
      "inputs": [
        {
          "internalType": "address[]",
          "name": "owners",
          "type": "address[]"
        },
        {
          "internalType": "uint256",
          "name": "minOwners",
          "type": "uint256"
        }
      ],
      "name": "MultiSigCertPool_init",
      "outputs": [],
      "stateMutability": "nonpayable",
      "type": "function"
    },
    {
      "inputs": [
        {
          "internalType": "address[]",
          "name": "owners",
          "type": "address[]"
        },
        {
          "internalType": "uint256",
          "name": "minOwners",
          "type": "uint256"
        },
        {
          "internalType": "uint256",
          "name": "TotalEntities",
          "type": "uint256"
        },
        {
          "internalType": "string[]",
          "name": "labels",
          "type": "string[]"
        },
        {
          "internalType": "uint256",
          "name": "ownerId",
          "type": "uint256"
        }
      ],
      "name": "MultiSigContract_init",
      "outputs": [],
      "stateMutability": "nonpayable",
      "type": "function"
    },
    {
      "inputs": [
        {
          "internalType": "bytes32",
          "name": "CertificateHash",
          "type": "bytes32"
        },
        {
          "internalType": "address",
          "name": "holder",
          "type": "address"
        }
      ],
      "name": "addCertificate",
      "outputs": [],
      "stateMutability": "payable",
      "type": "function"
    },
    {
      "inputs": [
        {
          "internalType": "address",
          "name": "owner",
          "type": "address"
        },
        {
          "internalType": "string",
          "name": "ownerInfo",
          "type": "string"
        }
      ],
      "name": "addOwner",
      "outputs": [],
      "stateMutability": "nonpayable",
      "type": "function"
    },
    {
      "inputs": [
        {
          "internalType": "address",
          "name": "provider",
          "type": "address"
        },
        {
          "internalType": "string",
          "name": "providerInfo",
          "type": "string"
        }
      ],
      "name": "addProvider",
      "outputs": [],
      "stateMutability": "payable",
      "type": "function"
    },
    {
      "inputs": [
        {
          "internalType": "uint256",
          "name": "newMinOwners",
          "type": "uint256"
        }
      ],
      "name": "changeMinOwners",
      "outputs": [],
      "stateMutability": "nonpayable",
      "type": "function"
    },
    {
      "inputs": [
        {
          "internalType": "bytes32",
          "name": "item",
          "type": "bytes32"
        },
        {
          "internalType": "uint256[]",
          "name": "ids",
          "type": "uint256[]"
        },
        {
          "internalType": "bool",
          "name": "addOrRemove",
          "type": "bool"
        }
      ],
      "name": "onItemRejected",
      "outputs": [],
      "stateMutability": "nonpayable",
      "type": "function"
    },
    {
      "inputs": [
        {
          "internalType": "bytes32",
          "name": "item",
          "type": "bytes32"
        },
        {
          "internalType": "uint256[]",
          "name": "ids",
          "type": "uint256[]"
        },
        {
          "internalType": "bool",
          "name": "addOrRemove",
          "type": "bool"
        }
      ],
      "name": "onItemValidated",
      "outputs": [],
      "stateMutability": "nonpayable",
      "type": "function"
    },
    {
      "inputs": [],
      "name": "rejectMinOwners",
      "outputs": [],
      "stateMutability": "nonpayable",
      "type": "function"
    },
    {
      "inputs": [
        {
          "internalType": "address",
          "name": "owner",
          "type": "address"
        }
      ],
      "name": "rejectOwner",
      "outputs": [],
      "stateMutability": "nonpayable",
      "type": "function"
    },
    {
      "inputs": [
        {
          "internalType": "address",
          "name": "provider",
          "type": "address"
        }
      ],
      "name": "rejectProvider",
      "outputs": [],
      "stateMutability": "nonpayable",
      "type": "function"
    },
    {
      "inputs": [
        {
          "internalType": "address",
          "name": "owner",
          "type": "address"
        }
      ],
      "name": "removeOwner",
      "outputs": [],
      "stateMutability": "nonpayable",
      "type": "function"
    },
    {
      "inputs": [
        {
          "internalType": "address",
          "name": "provider",
          "type": "address"
        }
      ],
      "name": "removeProvider",
      "outputs": [],
      "stateMutability": "nonpayable",
      "type": "function"
    },
    {
      "inputs": [],
      "name": "retrieveAddCertificatePriceWei",
      "outputs": [
        {
          "internalType": "uint256",
          "name": "",
          "type": "uint256"
        }
      ],
      "stateMutability": "view",
      "type": "function"
    },
    {
      "inputs": [],
      "name": "retrieveAllOwners",
      "outputs": [
        {
          "internalType": "bytes32[]",
          "name": "",
          "type": "bytes32[]"
        }
      ],
      "stateMutability": "view",
      "type": "function"
    },
    {
      "inputs": [],
      "name": "retrieveAllProviders",
      "outputs": [
        {
          "internalType": "bytes32[]",
          "name": "",
          "type": "bytes32[]"
        }
      ],
      "stateMutability": "view",
      "type": "function"
    },
    {
      "inputs": [
        {
          "internalType": "bytes32",
          "name": "CertificateHash",
          "type": "bytes32"
        },
        {
          "internalType": "address",
          "name": "holder",
          "type": "address"
        }
      ],
      "name": "retrieveCertificateProvider",
      "outputs": [
        {
          "internalType": "address",
          "name": "",
          "type": "address"
        }
      ],
      "stateMutability": "view",
      "type": "function"
    },
    {
      "inputs": [
        {
          "internalType": "address",
          "name": "holder",
          "type": "address"
        },
        {
          "internalType": "uint256",
          "name": "skipFirst",
          "type": "uint256"
        },
        {
          "internalType": "uint256",
          "name": "max",
          "type": "uint256"
        }
      ],
      "name": "retrieveCertificatesByHolder",
      "outputs": [
        {
          "internalType": "bytes32[]",
          "name": "",
          "type": "bytes32[]"
        }
      ],
      "stateMutability": "view",
      "type": "function"
    },
    {
      "inputs": [],
      "name": "retrieveMinOwners",
      "outputs": [
        {
          "internalType": "uint256",
          "name": "",
          "type": "uint256"
        }
      ],
      "stateMutability": "view",
      "type": "function"
    },
    {
      "inputs": [
        {
          "internalType": "address",
          "name": "owner",
          "type": "address"
        }
      ],
      "name": "retrieveOwner",
      "outputs": [
        {
          "internalType": "string",
          "name": "",
          "type": "string"
        },
        {
          "internalType": "bool",
          "name": "",
          "type": "bool"
        }
      ],
      "stateMutability": "view",
      "type": "function"
    },
    {
      "inputs": [],
      "name": "retrievePendingMinOwners",
      "outputs": [
        {
          "internalType": "uint256",
          "name": "",
          "type": "uint256"
        }
      ],
      "stateMutability": "view",
      "type": "function"
    },
    {
      "inputs": [
        {
          "internalType": "bool",
          "name": "addedORremove",
          "type": "bool"
        }
      ],
      "name": "retrievePendingOwners",
      "outputs": [
        {
          "internalType": "bytes32[]",
          "name": "",
          "type": "bytes32[]"
        },
        {
          "internalType": "string[]",
          "name": "",
          "type": "string[]"
        }
      ],
      "stateMutability": "view",
      "type": "function"
    },
    {
      "inputs": [
        {
          "internalType": "bool",
          "name": "addedORremove",
          "type": "bool"
        }
      ],
      "name": "retrievePendingProviders",
      "outputs": [
        {
          "internalType": "bytes32[]",
          "name": "",
          "type": "bytes32[]"
        },
        {
          "internalType": "string[]",
          "name": "",
          "type": "string[]"
        }
      ],
      "stateMutability": "view",
      "type": "function"
    },
    {
      "inputs": [
        {
          "internalType": "address",
          "name": "provider",
          "type": "address"
        }
      ],
      "name": "retrieveProvider",
      "outputs": [
        {
          "internalType": "string",
          "name": "",
          "type": "string"
        },
        {
          "internalType": "bool",
          "name": "",
          "type": "bool"
        }
      ],
      "stateMutability": "view",
      "type": "function"
    },
    {
      "inputs": [],
      "name": "retrieveSubscriptionPriceWei",
      "outputs": [
        {
          "internalType": "uint256",
          "name": "",
          "type": "uint256"
        }
      ],
      "stateMutability": "view",
      "type": "function"
    },
    {
      "inputs": [
        {
          "internalType": "address",
          "name": "holder",
          "type": "address"
        }
      ],
      "name": "retrieveTotalCertificatesByHolder",
      "outputs": [
        {
          "internalType": "uint256",
          "name": "",
          "type": "uint256"
        }
      ],
      "stateMutability": "view",
      "type": "function"
    },
    {
      "inputs": [],
      "name": "validateMinOwners",
      "outputs": [],
      "stateMutability": "nonpayable",
      "type": "function"
    },
    {
      "inputs": [
        {
          "internalType": "address",
          "name": "owner",
          "type": "address"
        }
      ],
      "name": "validateOwner",
      "outputs": [],
      "stateMutability": "nonpayable",
      "type": "function"
    },
    {
      "inputs": [
        {
          "internalType": "address",
          "name": "provider",
          "type": "address"
        }
      ],
      "name": "validateProvider",
      "outputs": [],
      "stateMutability": "nonpayable",
      "type": "function"
    },
    {
      "inputs": [
        {
          "internalType": "address[]",
          "name": "owners",
          "type": "address[]"
        },
        {
          "internalType": "uint256",
          "name": "minOwners",
          "type": "uint256"
        }
      ],
      "name": "PrivateCertPool_init",
      "outputs": [],
      "stateMutability": "nonpayable",
      "type": "function"
    }
  ],
  "bytecode": "0x608060405234801561001057600080fd5b50613062806100206000396000f3fe60806040526004361061015d5760003560e01c80630b4c72a914610162578063173825d9146101845780631ab807f8146101a457806327a40b4b146101b75780632edbe7fc146101d757806330ade922146101fb5780633542758f1461021057806337583499146102305780633fd071811461025e5780634774779d1461027e57806357e7ea2e1461027e57806358a1ba251461029257806365b973e5146102bf5780636b299604146102d45780636b3a0fec146103025780636e4f9179146103225780636e55d2d41461033757806376f8f90f1461035757806377bc5a1f146103775780637c8c2add1461025e5780638a355a5714610397578063a93d5ed6146103b7578063c3079ae7146103cc578063c3ccb191146103e1578063c66433ea14610401578063ce33d58a14610421578063cf2041d914610441578063d0a4adfe14610461578063d21c2bec146104b4578063fc000500146104d4575b600080fd5b34801561016e57600080fd5b5061018261017d366004612691565b6104e7565b005b34801561019057600080fd5b5061018261019f366004612691565b6104f5565b6101826101b2366004612a3f565b61054a565b3480156101c357600080fd5b506101826101d2366004612691565b610558565b3480156101e357600080fd5b506005545b6040519081526020015b60405180910390f35b34801561020757600080fd5b50610182610563565b34801561021c57600080fd5b5061018261022b3660046126ac565b610662565b34801561023c57600080fd5b5061025061024b366004612691565b610670565b6040516101f2929190612cd3565b34801561026a57600080fd5b50610182610279366004612a6b565b610688565b34801561028a57600080fd5b5060006101e8565b34801561029e57600080fd5b506102b26102ad36600461272e565b610752565b6040516101f29190612c40565b3480156102cb57600080fd5b506001546101e8565b3480156102e057600080fd5b506102f46102ef3660046129ec565b6108f8565b6040516101f2929190612c53565b34801561030e57600080fd5b506102f461031d3660046129ec565b610907565b34801561032e57600080fd5b506102b2610915565b34801561034357600080fd5b506101e8610352366004612691565b610926565b34801561036357600080fd5b50610182610372366004612691565b610944565b34801561038357600080fd5b50610250610392366004612691565b61099f565b3480156103a357600080fd5b506101826103b2366004612691565b6109af565b3480156103c357600080fd5b506102b26109ba565b3480156103d857600080fd5b506101826109c7565b3480156103ed57600080fd5b506101826103fc366004612761565b610ac6565b34801561040d57600080fd5b5061018261041c366004612b4d565b610cf5565b34801561042d57600080fd5b5061018261043c366004612691565b610de0565b34801561044d57600080fd5b5061018261045c3660046127a5565b610dec565b34801561046d57600080fd5b506104a761047c366004612a3f565b6001600160a01b039081166000908152600a6020908152604080832094835293905291909120541690565b6040516101f29190612bcd565b3480156104c057600080fd5b506101826104cf366004612761565b611097565b6101826104e23660046126ac565b6110f8565b6104f2816001611105565b50565b6001546001610505600054611277565b516105109190612f3f565b808211156105395760405162461bcd60e51b815260040161053090612d15565b60405180910390fd5b610545836000546113de565b505050565b6105548282611518565b5050565b6104f281600161164a565b61056f33600054611784565b15156001146105905760405162461bcd60e51b815260040161053090612dc0565b60016005546105b15760405162461bcd60e51b815260040161053090612d34565b60405163f7cf62d760e01b815273__AddressLibrary________________________9063f7cf62d7906105eb903390600890600401612be1565b60206040518083038186803b15801561060357600080fd5b505af4158015610617573d6000803e3d6000fd5b505050506040513d601f19601f8201168201806040525081019061063b9190612a09565b156106585760405162461bcd60e51b815260040161053090612dde565b6104f26001611975565b6105458383836000546119fc565b6060600061067f836001611b98565b91509150915091565b604051630d1d719d60e41b8152309073__Library_______________________________9063d1d719d0906106c1908490600401612bcd565b60206040518083038186803b1580156106d957600080fd5b505af41580156106ed573d6000803e3d6000fd5b505050506040513d601f19601f820116820180604052508101906107119190612a09565b151560011461074b5760405162461bcd60e51b8152600401610530906020808252600490820152634543382d60e01b604082015260600190565b5050505050565b60608261075e85610926565b1161077857506040805160008152602081019091526108f1565b81808461078487610926565b61078e9190612f3f565b10156107ab578361079e86610926565b6107a89190612f3f565b90505b6000816001600160401b038111156107c5576107c5613008565b6040519080825280602002602001820160405280156107ee578160200160208202803683370190505b506001600160a01b0387166000908152600a602090815260408083206001018054825181850281018501909352808352949550929390929183018282801561085557602002820191906000526020600020905b815481526020019060010190808311610841575b5050505050905060008060005b83518110156108e857878310610877576108e8565b818911156108915761088a600183612f27565b91506108d6565b8381815181106108a3576108a3612ff2565b60200260200101518584815181106108bd576108bd612ff2565b60209081029190910101526108d3600184612f27565b92505b806108e081612fc1565b915050610862565b50929450505050505b9392505050565b60608061067f83600054611d95565b60608061067f836001611d95565b60606109216001611277565b905090565b6001600160a01b03166000908152600a602052604090206001015490565b61095081600054611f14565b151560011415610993576001610967600054611277565b516109729190612f3f565b60015411156109935760405162461bcd60e51b815260040161053090612d15565b6104f28160005461164a565b6060600061067f83600054611b98565b6104f28160016113de565b6060610921600054611277565b6109d333600054611784565b15156001146109f45760405162461bcd60e51b815260040161053090612dc0565b6001600554610a155760405162461bcd60e51b815260040161053090612d34565b60405163f7cf62d760e01b815273__AddressLibrary________________________9063f7cf62d790610a4f903390600890600401612be1565b60206040518083038186803b158015610a6757600080fd5b505af4158015610a7b573d6000803e3d6000fd5b505050506040513d601f19601f82011682018060405250810190610a9f9190612a09565b15610abc5760405162461bcd60e51b815260040161053090612dde565b6104f26000611975565b600454610100900460ff1680610adf575060045460ff16155b610afb5760405162461bcd60e51b815260040161053090612d72565b600454610100900460ff16158015610b1d576004805461ffff19166101011790555b6040805160028082526060820190925290816020015b6060815260200190600190039081610b335750508051610b5b916009916020909101906123f0565b506040518060400160405280600581526020016427bbb732b960d91b8152506009600081548110610b8e57610b8e612ff2565b906000526020600020019080519060200190610bab92919061244d565b5060405180604001604052806008815260200167283937bb34b232b960c11b8152506009600181548110610be157610be1612ff2565b906000526020600020019080519060200190610bfe92919061244d565b50610cdf838360026009805480602002602001604051908101604052809291908181526020016000905b82821015610cd4578382906000526020600020018054610c4790612f86565b80601f0160208091040260200160405190810160405280929190818152602001828054610c7390612f86565b8015610cc05780601f10610c9557610100808354040283529160200191610cc0565b820191906000526020600020905b815481529060010190602001808311610ca357829003601f168201915b505050505081526020019060010190610c28565b505050506000610dec565b8015610545576004805461ff0019169055505050565b610d0133600054611784565b1515600114610d225760405162461bcd60e51b815260040161053090612dc0565b600060055415610d5c5760405162461bcd60e51b8152602060048201526005602482015264454333302d60d81b6044820152606401610530565b81600260005481548110610d7257610d72612ff2565b90600052602060002090600402016001018054905080821115610da75760405162461bcd60e51b815260040161053090612d15565b600084818111610dc95760405162461bcd60e51b815260040161053090612d53565b6005869055610dd86001611975565b505050505050565b6104f281600054611105565b600454610100900460ff1680610e05575060045460ff16155b610e215760405162461bcd60e51b815260040161053090612d72565b600454610100900460ff16158015610e43576004805461ffff19166101011790555b84865180821115610e665760405162461bcd60e51b815260040161053090612d15565b600087818111610e885760405162461bcd60e51b815260040161053090612d53565b86518814610ec05760405162461bcd60e51b8152602060048201526005602482015264454331382d60d81b6044820152606401610530565b60008681555b88811015610f36576002805460010181556000528751600390899083908110610ef157610ef1612ff2565b60209081029190910181015182546001810184556000938452928290208151610f23949190910192919091019061244d565b5080610f2e81612fc1565b915050610ec6565b50600189905560005b8a5181101561107957600073__AddressLibrary________________________63bc215e858d8481518110610f7657610f76612ff2565b60200260200101516040518263ffffffff1660e01b8152600401610f9a9190612bcd565b60206040518083038186803b158015610fb257600080fd5b505af4158015610fc6573d6000803e3d6000fd5b505050506040513d601f19601f82011682018060405250810190610fea9190612a26565b9050600160026000548154811061100357611003612ff2565b60009182526020808320858452600492909202909101905260408120805460ff1916921515929092179091555460028054909190811061104557611045612ff2565b600091825260208083206001600490930201820180549283018155835290912001558061107181612fc1565b915050610f3f565b50505050508015610dd8576004805461ff0019169055505050505050565b600454610100900460ff16806110b0575060045460ff16155b6110cc5760405162461bcd60e51b815260040161053090612d72565b600454610100900460ff161580156110ee576004805461ffff19166101011790555b610cdf8383610ac6565b61054583838360016119fc565b60025460405163123bd07560e11b815282919073__Library_______________________________90632477a0ea906111449085908590600401612cc5565b60206040518083038186803b15801561115c57600080fd5b505af4158015611170573d6000803e3d6000fd5b505050506040513d601f19601f820116820180604052508101906111949190612a09565b15156001146111b55760405162461bcd60e51b815260040161053090612cf7565b6111c133600054611784565b15156001146111e25760405162461bcd60e51b815260040161053090612dc0565b6000806111ff866040518060200160405280600081525087612080565b604051635cb09bcf60e01b8152919350915073__ItemsLibrary__________________________90635cb09bcf9061123f90859085903090600401612dfc565b60006040518083038186803b15801561125757600080fd5b505af415801561126b573d6000803e3d6000fd5b50505050505050505050565b60025460405163123bd07560e11b8152606091839173__Library_______________________________90632477a0ea906112b89085908590600401612cc5565b60206040518083038186803b1580156112d057600080fd5b505af41580156112e4573d6000803e3d6000fd5b505050506040513d601f19601f820116820180604052508101906113089190612a09565b15156001146113295760405162461bcd60e51b815260040161053090612cf7565b73__ItemsLibrary__________________________6327724f4b6002868154811061135657611356612ff2565b90600052602060002090600402016040518263ffffffff1660e01b815260040161138291815260200190565b60006040518083038186803b15801561139a57600080fd5b505af41580156113ae573d6000803e3d6000fd5b505050506040513d6000823e601f3d908101601f191682016040526113d691908101906128de565b949350505050565b60025460405163123bd07560e11b815282919073__Library_______________________________90632477a0ea9061141d9085908590600401612cc5565b60206040518083038186803b15801561143557600080fd5b505af4158015611449573d6000803e3d6000fd5b505050506040513d601f19601f8201168201806040525081019061146d9190612a09565b151560011461148e5760405162461bcd60e51b815260040161053090612cf7565b61149a33600054611784565b15156001146114bb5760405162461bcd60e51b815260040161053090612dc0565b6000806114d8866040518060200160405280600081525087612080565b60405163e23fcdef60e01b8152919350915073__ItemsLibrary__________________________9063e23fcdef9061123f90859085903090600401612dfc565b6115213361228c565b151560011461155a5760405162461bcd60e51b8152602060048201526005602482015264454331322d60d81b6044820152606401610530565b816001600160a01b038083166000908152600a602090815260408083208784529091529020548391859116156115ba5760405162461bcd60e51b8152602060048201526005602482015264454331352d60d81b6044820152606401610530565b6001600160a01b0384166000818152600a602081815260408084208a855280835281852080546001600160a01b031916339081179091559383526001908101805491820181558552919093200188905590517ff55a90628981610edc26894247bee72e1963d1c9faa4ea6533fd3df39fd36ed49061163b9089815260200190565b60405180910390a35050505050565b60025460405163123bd07560e11b815282919073__Library_______________________________90632477a0ea906116899085908590600401612cc5565b60206040518083038186803b1580156116a157600080fd5b505af41580156116b5573d6000803e3d6000fd5b505050506040513d601f19601f820116820180604052508101906116d99190612a09565b15156001146116fa5760405162461bcd60e51b815260040161053090612cf7565b61170633600054611784565b15156001146117275760405162461bcd60e51b815260040161053090612dc0565b600080611744866040518060200160405280600081525087612080565b604051637493a70b60e01b8152919350915073__ItemsLibrary__________________________90637493a70b9061123f90859085903090600401612dfc565b60025460405163123bd07560e11b8152600091839173__Library_______________________________90632477a0ea906117c59085908590600401612cc5565b60206040518083038186803b1580156117dd57600080fd5b505af41580156117f1573d6000803e3d6000fd5b505050506040513d601f19601f820116820180604052508101906118159190612a09565b15156001146118365760405162461bcd60e51b815260040161053090612cf7565b60405163bc215e8560e01b815260009073__AddressLibrary________________________9063bc215e8590611870908990600401612bcd565b60206040518083038186803b15801561188857600080fd5b505af415801561189c573d6000803e3d6000fd5b505050506040513d601f19601f820116820180604052508101906118c09190612a26565b905073__ItemsLibrary__________________________63dbdfbeec82600288815481106118f0576118f0612ff2565b90600052602060002090600402016040518363ffffffff1660e01b815260040161191b929190612cc5565b60206040518083038186803b15801561193357600080fd5b505af4158015611947573d6000803e3d6000fd5b505050506040513d601f19601f8201168201806040525081019061196b9190612a09565b9695505050505050565b80156119995760016006600082825461198e9190612f27565b909155506119b29050565b6001600760008282546119ac9190612f27565b90915550505b600880546001810182556000919091527ff3f7a9fe364faab93b216da50a3214154f22a0a2b415b23a84c8169e8b636ee30180546001600160a01b031916331790556104f261229f565b60025460405163123bd07560e11b815282919073__Library_______________________________90632477a0ea90611a3b9085908590600401612cc5565b60206040518083038186803b158015611a5357600080fd5b505af4158015611a67573d6000803e3d6000fd5b505050506040513d601f19601f82011682018060405250810190611a8b9190612a09565b1515600114611aac5760405162461bcd60e51b815260040161053090612cf7565b611ab833600054611784565b1515600114611ad95760405162461bcd60e51b815260040161053090612dc0565b600080611b1e8888888080601f0160208091040260200160405190810160405280939291908181526020018383808284376000920191909152508a9250612080915050565b6040516305cc2d5560e11b8152919350915073__ItemsLibrary__________________________90630b985aaa90611b5e90859085903090600401612dfc565b60006040518083038186803b158015611b7657600080fd5b505af4158015611b8a573d6000803e3d6000fd5b505050505050505050505050565b60025460405163123bd07560e11b815260609160009184919073__Library_______________________________90632477a0ea90611bdd9085908590600401612cc5565b60206040518083038186803b158015611bf557600080fd5b505af4158015611c09573d6000803e3d6000fd5b505050506040513d601f19601f82011682018060405250810190611c2d9190612a09565b1515600114611c4e5760405162461bcd60e51b815260040161053090612cf7565b60405163bc215e8560e01b815260009073__AddressLibrary________________________9063bc215e8590611c88908a90600401612bcd565b60206040518083038186803b158015611ca057600080fd5b505af4158015611cb4573d6000803e3d6000fd5b505050506040513d601f19601f82011682018060405250810190611cd89190612a26565b905073__ItemsLibrary__________________________631aeccc6a8260028981548110611d0857611d08612ff2565b90600052602060002090600402016040518363ffffffff1660e01b8152600401611d33929190612cc5565b60006040518083038186803b158015611d4b57600080fd5b505af4158015611d5f573d6000803e3d6000fd5b505050506040513d6000823e601f3d908101601f19168201604052611d879190810190612afc565b945094505050509250929050565b60025460405163123bd07560e11b8152606091829184919073__Library_______________________________90632477a0ea90611dd99085908590600401612cc5565b60206040518083038186803b158015611df157600080fd5b505af4158015611e05573d6000803e3d6000fd5b505050506040513d601f19601f82011682018060405250810190611e299190612a09565b1515600114611e4a5760405162461bcd60e51b815260040161053090612cf7565b60608073__ItemsLibrary__________________________63e035e0068960028a81548110611e7b57611e7b612ff2565b90600052602060002090600402016040518363ffffffff1660e01b8152600401611eb19291909115158252602082015260400190565b60006040518083038186803b158015611ec957600080fd5b505af4158015611edd573d6000803e3d6000fd5b505050506040513d6000823e601f3d908101601f19168201604052611f059190810190612912565b90999098509650505050505050565b60025460405163123bd07560e11b8152600091839173__Library_______________________________90632477a0ea90611f559085908590600401612cc5565b60206040518083038186803b158015611f6d57600080fd5b505af4158015611f81573d6000803e3d6000fd5b505050506040513d601f19601f82011682018060405250810190611fa59190612a09565b1515600114611fc65760405162461bcd60e51b815260040161053090612cf7565b60405163bc215e8560e01b815260009073__AddressLibrary________________________9063bc215e8590612000908990600401612bcd565b60206040518083038186803b15801561201857600080fd5b505af415801561202c573d6000803e3d6000fd5b505050506040513d601f19601f820116820180604052508101906120509190612a26565b905073__ItemsLibrary__________________________632854ed2e82600288815481106118f0576118f0612ff2565b6120b56040518060a0016040528060008019168152602001606081526020016000815260200160608152602001606081525090565b60008073__AddressLibrary________________________63bc215e85876040518263ffffffff1660e01b81526004016120ef9190612bcd565b60206040518083038186803b15801561210757600080fd5b505af415801561211b573d6000803e3d6000fd5b505050506040513d601f19601f8201168201806040525081019061213f9190612a26565b6040805160018082528183019092529192506000919060208083019080368337019050509050848160008151811061217957612179612ff2565b60200260200101818152505060006040518060a001604052808481526020018881526020016001548152602001600388815481106121b9576121b9612ff2565b9060005260206000200180546121ce90612f86565b80601f01602080910402602001604051908101604052809291908181526020018280546121fa90612f86565b80156122475780601f1061221c57610100808354040283529160200191612247565b820191906000526020600020905b81548152906001019060200180831161222a57829003601f168201915b5050505050815260200183815250905060006002878154811061226c5761226c612ff2565b600091825260209091209296506004029091019350505050935093915050565b6000612299826001611784565b92915050565b60065460015460405163f6001d7d60e01b815273__ItemsLibrary__________________________9263f6001d7d926122da92600401612cc5565b60206040518083038186803b1580156122f257600080fd5b505af4158015612306573d6000803e3d6000fd5b505050506040513d601f19601f8201168201806040525081019061232a9190612a09565b1561233f5760055460015561233d6123d3565b565b60075460015460405163f6001d7d60e01b815273__ItemsLibrary__________________________9263f6001d7d9261237a92600401612cc5565b60206040518083038186803b15801561239257600080fd5b505af41580156123a6573d6000803e3d6000fd5b505050506040513d601f19601f820116820180604052508101906123ca9190612a09565b1561233d5761233d5b600060058190556006819055600781905561233d906008906124cd565b82805482825590600052602060002090810192821561243d579160200282015b8281111561243d578251805161242d91849160209091019061244d565b5091602001919060010190612410565b506124499291506124eb565b5090565b82805461245990612f86565b90600052602060002090601f01602090048101928261247b57600085556124c1565b82601f1061249457805160ff19168380011785556124c1565b828001600101855582156124c1579182015b828111156124c15782518255916020019190600101906124a6565b50612449929150612508565b50805460008255906000526020600020908101906104f29190612508565b808211156124495760006124ff828261251d565b506001016124eb565b5b808211156124495760008155600101612509565b50805461252990612f86565b6000825580601f10612539575050565b601f0160209004906000526020600020908101906104f29190612508565b80356001600160a01b038116811461256e57600080fd5b919050565b600082601f83011261258457600080fd5b8135602061259961259483612edd565b612ead565b80838252828201915082860187848660051b89010111156125b957600080fd5b60005b858110156125df576125cd82612557565b845292840192908401906001016125bc565b5090979650505050505050565b600082601f8301126125fd57600080fd5b8151602061260d61259483612edd565b80838252828201915082860187848660051b890101111561262d57600080fd5b60005b858110156125df57815184529284019290840190600101612630565b600082601f83011261265d57600080fd5b815161266b61259482612f00565b81815284602083860101111561268057600080fd5b6113d6826020830160208701612f56565b6000602082840312156126a357600080fd5b6108f182612557565b6000806000604084860312156126c157600080fd5b6126ca84612557565b925060208401356001600160401b03808211156126e657600080fd5b818601915086601f8301126126fa57600080fd5b81358181111561270957600080fd5b87602082850101111561271b57600080fd5b6020830194508093505050509250925092565b60008060006060848603121561274357600080fd5b61274c84612557565b95602085013595506040909401359392505050565b6000806040838503121561277457600080fd5b82356001600160401b0381111561278a57600080fd5b61279685828601612573565b95602094909401359450505050565b600080600080600060a086880312156127bd57600080fd5b6001600160401b0386358110156127d357600080fd5b6127e08888358901612573565b95506020870135945060408701359350806060880135111561280157600080fd5b6060870135870188601f82011261281757600080fd5b6128246125948235612edd565b8082358252602082019150602083018b6020853560051b860101111561284957600080fd5b60005b84358110156128c457858235111561286357600080fd5b813585018d603f82011261287657600080fd5b602081013561288761259482612f00565b8181528f604083850101111561289c57600080fd5b816040840160208301376000602092820183015286529485019492909201915060010161284c565b505080955050505050608086013590509295509295909350565b6000602082840312156128f057600080fd5b81516001600160401b0381111561290657600080fd5b6113d6848285016125ec565b6000806040838503121561292557600080fd5b82516001600160401b038082111561293c57600080fd5b612948868387016125ec565b935060209150818501518181111561295f57600080fd5b8501601f8101871361297057600080fd5b805161297e61259482612edd565b8082825285820191508584018a878560051b870101111561299e57600080fd5b6000805b858110156129d9578251888111156129b8578283fd5b6129c68e8b838b010161264c565b86525093880193918801916001016129a2565b5050508096505050505050509250929050565b6000602082840312156129fe57600080fd5b81356108f18161301e565b600060208284031215612a1b57600080fd5b81516108f18161301e565b600060208284031215612a3857600080fd5b5051919050565b60008060408385031215612a5257600080fd5b82359150612a6260208401612557565b90509250929050565b60008060008060608587031215612a8157600080fd5b8435935060208501356001600160401b0380821115612a9f57600080fd5b818701915087601f830112612ab357600080fd5b813581811115612ac257600080fd5b8860208260051b8501011115612ad757600080fd5b6020830195508094505050506040850135612af18161301e565b939692955090935050565b60008060408385031215612b0f57600080fd5b82516001600160401b03811115612b2557600080fd5b612b318582860161264c565b9250506020830151612b428161301e565b809150509250929050565b600060208284031215612b5f57600080fd5b5035919050565b600081518084526020808501945080840160005b83811015612b9657815187529582019590820190600101612b7a565b509495945050505050565b60008151808452612bb9816020860160208601612f56565b601f01601f19169290920160200192915050565b6001600160a01b0391909116815260200190565b60006040820160018060a01b03808616845260206040818601528286548085526060870191508760005282600020945060005b81811015612c32578554851683526001958601959284019201612c14565b509098975050505050505050565b6020815260006108f16020830184612b66565b604081526000612c666040830185612b66565b6020838203818501528185518084528284019150828160051b85010183880160005b83811015612cb657601f19878403018552612ca4838351612ba1565b94860194925090850190600101612c88565b50909998505050505050505050565b918252602082015260400190565b604081526000612ce66040830185612ba1565b905082151560208301529392505050565b6020808252600490820152634543312d60e01b604082015260600190565b602080825260059082015264454331392d60d81b604082015260600190565b602080825260059082015264454333312d60d81b604082015260600190565b602080825260059082015264454331372d60d81b604082015260600190565b6020808252602e908201527f496e697469616c697a61626c653a20636f6e747261637420697320616c72656160408201526d191e481a5b9a5d1a585b1a5e995960921b606082015260800190565b6020808252600490820152634543392d60e01b604082015260600190565b6020808252600490820152634543352d60e01b604082015260600190565b6060815283516060820152600060208086015160a06080850152612e24610100850182612ba1565b9050604087015160a08501526060870151605f19808684030160c0870152612e4c8383612ba1565b60808a015187820390920160e088015281518082529185019350600092508401905b80831015612e8e5783518252928401926001929092019190840190612e6e565b5092850187905250506001600160a01b038416604084015290506113d6565b604051601f8201601f191681016001600160401b0381118282101715612ed557612ed5613008565b604052919050565b60006001600160401b03821115612ef657612ef6613008565b5060051b60200190565b60006001600160401b03821115612f1957612f19613008565b50601f01601f191660200190565b60008219821115612f3a57612f3a612fdc565b500190565b600082821015612f5157612f51612fdc565b500390565b60005b83811015612f71578181015183820152602001612f59565b83811115612f80576000848401525b50505050565b600181811c90821680612f9a57607f821691505b60208210811415612fbb57634e487b7160e01b600052602260045260246000fd5b50919050565b6000600019821415612fd557612fd5612fdc565b5060010190565b634e487b7160e01b600052601160045260246000fd5b634e487b7160e01b600052603260045260246000fd5b634e487b7160e01b600052604160045260246000fd5b80151581146104f257600080fdfea2646970667358221220d2a13e9d3a2fcec45663134a99954beb45acace54528020d95d99b6bc76ba20e64736f6c63430008070033",
  "immutableReferences": {},
  "source": "// SPDX-License-Identifier: GPL-3.0\r\n\r\npragma solidity 0.8.7;\r\n\r\n/*\r\n  Private Certificate Pools offer the default MultiSig Certificate Pool functionality\r\n */\r\n\r\n import \"../Abstract/MultiSigCertificatesPool.sol\";\r\n\r\n contract PrivateCertificatesPool is MultiSigCertificatesPool {\r\n\r\n    // CONSTRUCTOR & INIT /////////////////////////////////////////\r\n    function PrivateCertPool_init(address[] memory owners,  uint256 minOwners) public initializer \r\n    {\r\n      super.MultiSigCertPool_init(owners, minOwners);\r\n    }\r\n\r\n  }",
  "sourcePath": "C:/Users/d-aam/GitHub/Certificates/contracts/DeployedContracts/PrivateCertificatesPool.sol",
  "compiler": {
    "name": "solc",
    "version": "0.8.7+commit.e28d00a7.Emscripten.clang"
  },
  "schemaVersion": "3.3.4",
  "updatedAt": "2021-09-03T09:26:24.744Z",
  "devdoc": {
    "kind": "dev",
    "methods": {},
    "version": 1
  },
  "userdoc": {
    "kind": "user",
    "methods": {},
    "version": 1
  }
}