{
  "contractName": "PropositionSettings",
  "abi": [
    {
      "anonymous": false,
      "inputs": [
        {
          "indexed": false,
          "internalType": "uint256",
          "name": "Id",
          "type": "uint256"
        },
        {
          "indexed": true,
          "internalType": "address",
          "name": "Proposer",
          "type": "address"
        },
        {
          "indexed": false,
          "internalType": "uint256",
          "name": "Deadline",
          "type": "uint256"
        },
        {
          "indexed": false,
          "internalType": "uint256",
          "name": "Threshold",
          "type": "uint256"
        }
      ],
      "name": "_AddedProposition",
      "type": "event"
    },
    {
      "anonymous": false,
      "inputs": [
        {
          "indexed": false,
          "internalType": "uint256",
          "name": "Id",
          "type": "uint256"
        },
        {
          "indexed": true,
          "internalType": "address",
          "name": "Proposer",
          "type": "address"
        }
      ],
      "name": "_CancelledProposition",
      "type": "event"
    },
    {
      "anonymous": false,
      "inputs": [
        {
          "indexed": false,
          "internalType": "uint256",
          "name": "LifeTime",
          "type": "uint256"
        },
        {
          "indexed": false,
          "internalType": "uint8",
          "name": "ThresholdPercentage",
          "type": "uint8"
        },
        {
          "indexed": false,
          "internalType": "uint8",
          "name": "minWeightToProposePercentage",
          "type": "uint8"
        }
      ],
      "name": "_NewSettings",
      "type": "event"
    },
    {
      "anonymous": false,
      "inputs": [
        {
          "indexed": false,
          "internalType": "uint256",
          "name": "Id",
          "type": "uint256"
        },
        {
          "indexed": true,
          "internalType": "address",
          "name": "Proposer",
          "type": "address"
        },
        {
          "indexed": false,
          "internalType": "uint256",
          "name": "VotesFor",
          "type": "uint256"
        },
        {
          "indexed": false,
          "internalType": "uint256",
          "name": "VotesAgainst",
          "type": "uint256"
        }
      ],
      "name": "_PropositionApproved",
      "type": "event"
    },
    {
      "anonymous": false,
      "inputs": [
        {
          "indexed": false,
          "internalType": "uint256",
          "name": "Id",
          "type": "uint256"
        },
        {
          "indexed": true,
          "internalType": "address",
          "name": "Proposer",
          "type": "address"
        },
        {
          "indexed": false,
          "internalType": "uint256",
          "name": "VotesFor",
          "type": "uint256"
        },
        {
          "indexed": false,
          "internalType": "uint256",
          "name": "VotesAgainst",
          "type": "uint256"
        }
      ],
      "name": "_PropositionRejected",
      "type": "event"
    },
    {
      "anonymous": false,
      "inputs": [
        {
          "indexed": false,
          "internalType": "uint256",
          "name": "Id",
          "type": "uint256"
        },
        {
          "indexed": true,
          "internalType": "address",
          "name": "Voter",
          "type": "address"
        },
        {
          "indexed": false,
          "internalType": "bool",
          "name": "Vote",
          "type": "bool"
        },
        {
          "indexed": false,
          "internalType": "uint256",
          "name": "AmountTokens",
          "type": "uint256"
        }
      ],
      "name": "_PropositionVote",
      "type": "event"
    },
    {
      "anonymous": false,
      "inputs": [
        {
          "indexed": true,
          "internalType": "uint256",
          "name": "Id",
          "type": "uint256"
        },
        {
          "indexed": false,
          "internalType": "address",
          "name": "From",
          "type": "address"
        },
        {
          "indexed": false,
          "internalType": "address",
          "name": "To",
          "type": "address"
        },
        {
          "indexed": false,
          "internalType": "uint256",
          "name": "Amount",
          "type": "uint256"
        }
      ],
      "name": "_UsedTokensTransfered",
      "type": "event"
    },
    {
      "inputs": [],
      "name": "cancelProposition",
      "outputs": [],
      "stateMutability": "nonpayable",
      "type": "function"
    },
    {
      "inputs": [
        {
          "internalType": "address",
          "name": "from",
          "type": "address"
        },
        {
          "internalType": "address",
          "name": "to",
          "type": "address"
        },
        {
          "internalType": "uint256",
          "name": "amount",
          "type": "uint256"
        }
      ],
      "name": "onTokenBalanceChanged",
      "outputs": [],
      "stateMutability": "nonpayable",
      "type": "function"
    },
    {
      "inputs": [],
      "name": "retrieveChairPerson",
      "outputs": [
        {
          "internalType": "address",
          "name": "",
          "type": "address"
        }
      ],
      "stateMutability": "view",
      "type": "function"
    },
    {
      "inputs": [],
      "name": "retrieveContractConfig",
      "outputs": [
        {
          "internalType": "string",
          "name": "",
          "type": "string"
        },
        {
          "internalType": "string",
          "name": "",
          "type": "string"
        }
      ],
      "stateMutability": "view",
      "type": "function"
    },
    {
      "inputs": [],
      "name": "retrieveManagerContract",
      "outputs": [
        {
          "internalType": "address",
          "name": "",
          "type": "address"
        }
      ],
      "stateMutability": "view",
      "type": "function"
    },
    {
      "inputs": [],
      "name": "retrieveNextPropId",
      "outputs": [
        {
          "internalType": "uint256",
          "name": "",
          "type": "uint256"
        }
      ],
      "stateMutability": "view",
      "type": "function"
    },
    {
      "inputs": [
        {
          "internalType": "address",
          "name": "addr",
          "type": "address"
        },
        {
          "internalType": "uint256",
          "name": "nonce",
          "type": "uint256"
        }
      ],
      "name": "retrieveNonce",
      "outputs": [
        {
          "internalType": "bool",
          "name": "",
          "type": "bool"
        }
      ],
      "stateMutability": "view",
      "type": "function"
    },
    {
      "inputs": [],
      "name": "retrievePropositionStatus",
      "outputs": [
        {
          "internalType": "address",
          "name": "",
          "type": "address"
        },
        {
          "internalType": "uint256",
          "name": "",
          "type": "uint256"
        },
        {
          "internalType": "uint256",
          "name": "",
          "type": "uint256"
        },
        {
          "internalType": "uint256",
          "name": "",
          "type": "uint256"
        },
        {
          "internalType": "uint256",
          "name": "",
          "type": "uint256"
        }
      ],
      "stateMutability": "view",
      "type": "function"
    },
    {
      "inputs": [
        {
          "internalType": "uint256",
          "name": "PropId",
          "type": "uint256"
        },
        {
          "internalType": "address",
          "name": "voter",
          "type": "address"
        }
      ],
      "name": "retrieveVotesForVoter",
      "outputs": [
        {
          "internalType": "uint256",
          "name": "",
          "type": "uint256"
        }
      ],
      "stateMutability": "view",
      "type": "function"
    },
    {
      "inputs": [
        {
          "internalType": "bool",
          "name": "vote",
          "type": "bool"
        }
      ],
      "name": "voteProposition",
      "outputs": [],
      "stateMutability": "nonpayable",
      "type": "function"
    },
    {
      "inputs": [
        {
          "internalType": "address",
          "name": "voter",
          "type": "address"
        },
        {
          "internalType": "uint256",
          "name": "propID",
          "type": "uint256"
        },
        {
          "internalType": "bool",
          "name": "vote",
          "type": "bool"
        },
        {
          "internalType": "uint256",
          "name": "nonce",
          "type": "uint256"
        },
        {
          "internalType": "uint256",
          "name": "deadline",
          "type": "uint256"
        },
        {
          "internalType": "bytes",
          "name": "signature",
          "type": "bytes"
        }
      ],
      "name": "votePropositionOnBehalfOf",
      "outputs": [],
      "stateMutability": "nonpayable",
      "type": "function"
    },
    {
      "inputs": [
        {
          "internalType": "address",
          "name": "managerContractAddress",
          "type": "address"
        },
        {
          "internalType": "address",
          "name": "chairPerson",
          "type": "address"
        },
        {
          "internalType": "uint256",
          "name": "PropositionLifeTime",
          "type": "uint256"
        },
        {
          "internalType": "uint8",
          "name": "PropositionThresholdPercentage",
          "type": "uint8"
        },
        {
          "internalType": "uint8",
          "name": "minWeightToProposePercentage",
          "type": "uint8"
        },
        {
          "internalType": "string",
          "name": "contractName",
          "type": "string"
        },
        {
          "internalType": "string",
          "name": "contractVersion",
          "type": "string"
        }
      ],
      "name": "PropositionSettings_init",
      "outputs": [],
      "stateMutability": "nonpayable",
      "type": "function"
    },
    {
      "inputs": [
        {
          "internalType": "uint256",
          "name": "PropositionLifeTime",
          "type": "uint256"
        },
        {
          "internalType": "uint8",
          "name": "PropositionThresholdPercentage",
          "type": "uint8"
        },
        {
          "internalType": "uint8",
          "name": "minWeightToProposePercentage",
          "type": "uint8"
        }
      ],
      "name": "updateSettings",
      "outputs": [],
      "stateMutability": "nonpayable",
      "type": "function"
    },
    {
      "inputs": [],
      "name": "retrieveProposition",
      "outputs": [
        {
          "internalType": "bytes32[]",
          "name": "",
          "type": "bytes32[]"
        }
      ],
      "stateMutability": "view",
      "type": "function"
    },
    {
      "inputs": [],
      "name": "retrieveSettings",
      "outputs": [
        {
          "internalType": "uint256",
          "name": "",
          "type": "uint256"
        },
        {
          "internalType": "uint8",
          "name": "",
          "type": "uint8"
        },
        {
          "internalType": "uint8",
          "name": "",
          "type": "uint8"
        }
      ],
      "stateMutability": "view",
      "type": "function"
    }
  ],
  "bytecode": "0x608060405234801561001057600080fd5b50611f42806100206000396000f3fe608060405234801561001057600080fd5b50600436106100c55760003560e01c806304cc67a9146100ca5780633c7df55d146100e15780633feca4ca146100f65780634044adb21461013f57806355457ee9146101755780635b362e841461017d5780635e0448031461019d57806379dc2839146101b05780637faa3d6f146101c3578063840f6d17146101d657806391f9167114610217578063a93316f51461022a578063b049473f1461023f578063d2116a0214610260578063db85bc4d14610276575b600080fd5b600b545b6040519081526020015b60405180910390f35b6100f46100ef366004611884565b610287565b005b61012f61010436600461197c565b6001600160a01b03919091166000908152600260209081526040808320938352929052205460ff1690565b60405190151581526020016100d8565b6100ce61014d366004611a8c565b6000918252600c602090815260408084206001600160a01b0393909316845291905290205490565b6100f4610387565b6003546201000090046001600160a01b03165b6040516100d89190611c23565b6100f46101ab3660046118c5565b610459565b6100f46101be366004611abc565b6104ee565b6100f46101d13660046119a8565b610500565b600654600754600854600954600a54604080516001600160a01b0390961686526020860194909452928401919091526060830152608082015260a0016100d8565b6100f4610225366004611a39565b610520565b61023261052d565b6040516100d89190611cc4565b600d54600e5460ff808216916101009004166040516100d893929190611db9565b61026861074f565b6040516100d8929190611d08565b6004546001600160a01b0316610190565b3373__Library_______________________________6337ea306382600360029054906101000a90046001600160a01b03166001600160a01b031663da3dce266040518163ffffffff1660e01b815260040160206040518083038186803b1580156102f157600080fd5b505afa158015610305573d6000803e3d6000fd5b505050506040513d601f19601f820116820180604052508101906103299190611867565b6040518363ffffffff1660e01b8152600401610346929190611c37565b60006040518083038186803b15801561035e57600080fd5b505af4158015610372573d6000803e3d6000fd5b50505050610381848484610876565b50505050565b600161039281610893565b6006546040516337ea306360e01b8152339173__Library_______________________________916337ea3063916103d89185916001600160a01b031690600401611c37565b60006040518083038186803b1580156103f057600080fd5b505af4158015610404573d6000803e3d6000fd5b50505050610410610917565b6006546005546040519081526001600160a01b03909116907f1fe8aec10c0a50fa765076161e08c1f961ced69594ff45cf7d559f593afe14799060200160405180910390a25050565b600354610100900460ff1680610472575060035460ff16155b6104975760405162461bcd60e51b815260040161048e90611d55565b60405180910390fd5b600354610100900460ff161580156104b9576003805461ffff19166101011790555b6104c587898585610942565b6104d286868660016109e5565b80156104e4576003805461ff00191690555b5050505050505050565b6104fb83838360006109e5565b505050565b61050e868686868686610a8a565b6105188685610be9565b505050505050565b61052a3382610be9565b50565b60408051600380825260808201909252606091600091906020820184803683375050600f54604051631635719760e31b8152600481019190915291925073__UintLibrary___________________________9163b1ab8cb8915060240160206040518083038186803b1580156105a257600080fd5b505af41580156105b6573d6000803e3d6000fd5b505050506040513d601f19601f820116820180604052508101906105da9190611a73565b816000815181106105ed576105ed611eae565b6020908102919091010152601054604051631635719760e31b815260ff909116600482015273__UintLibrary___________________________9063b1ab8cb89060240160206040518083038186803b15801561064957600080fd5b505af415801561065d573d6000803e3d6000fd5b505050506040513d601f19601f820116820180604052508101906106819190611a73565b8160018151811061069457610694611eae565b6020908102919091010152601054604051631635719760e31b815261010090910460ff16600482015273__UintLibrary___________________________9063b1ab8cb89060240160206040518083038186803b1580156106f457600080fd5b505af4158015610708573d6000803e3d6000fd5b505050506040513d601f19601f8201168201806040525081019061072c9190611a73565b8160028151811061073f5761073f611eae565b6020908102919091010152919050565b6060806000600181805461076290611e42565b80601f016020809104026020016040519081016040528092919081815260200182805461078e90611e42565b80156107db5780601f106107b0576101008083540402835291602001916107db565b820191906000526020600020905b8154815290600101906020018083116107be57829003601f168201915b505050505091508080546107ee90611e42565b80601f016020809104026020016040519081016040528092919081815260200182805461081a90611e42565b80156108675780601f1061083c57610100808354040283529160200191610867565b820191906000526020600020905b81548152906001019060200180831161084a57829003601f168201915b50505050509050915091509091565b61087e610d00565b1515600114156104fb576104fb838383610d3a565b80156108da576108a1610d00565b151560011461052a5760405162461bcd60e51b8152602060048201526005602482015264454332352d60d81b604482015260640161048e565b6108e2610d00565b1561052a5760405162461bcd60e51b8152602060048201526005602482015264454332342d60d81b604482015260640161048e565b60006005819055600680546001600160a01b0319169055600781905560088190556009819055600a55565b600354610100900460ff168061095b575060035460ff16155b6109775760405162461bcd60e51b815260040161048e90611d55565b600354610100900460ff16158015610999576003805461ffff19166101011790555b6109a284610eaa565b600480546001600160a01b0319166001600160a01b0387161790556000600b556109cc8383610f39565b80156109de576003805461ff00191690555b5050505050565b82828160ff1660641015610a0b5760405162461bcd60e51b815260040161048e90611d36565b8060ff1660641015610a2f5760405162461bcd60e51b815260040161048e90611d36565b8215610a5a57600d869055600e805460ff8681166101000261ffff1990921690881617179055610518565b610a62610f60565b600f8690556010805460ff8681166101000261ffff1990921690881617179055505050505050565b81610a94816112b4565b8684610aa082826112eb565b6005548814610ad95760405162461bcd60e51b8152602060048201526005602482015264454333352d60d81b604482015260640161048e565b60405163432f9a5560e01b815273__SignatureLibrary______________________9063432f9a5590610b20908c908c908c908c908c908c90600090600190600401611c51565b60206040518083038186803b158015610b3857600080fd5b505af4158015610b4c573d6000803e3d6000fd5b505050506040513d601f19601f82011682018060405250810190610b709190611a56565b1515600114610ba95760405162461bcd60e51b8152602060048201526005602482015264454333322d60d81b604482015260640161048e565b610bde89876001600160a01b03909116600090815260026020908152604080832093835292905220805460ff19166001179055565b505050505050505050565b6001610bf481610893565b60055483906000610c058383611347565b905060008111610c3f5760405162461bcd60e51b8152602060048201526005602482015264454332332d60d81b604482015260640161048e565b6000610c5087600560000154611347565b90508515610c78578060056004016000828254610c6d9190611dd2565b90915550610c929050565b80600580016000828254610c8c9190611dd2565b90915550505b600554610ca0908883611384565b60055460408051918252871515602083015281018290526001600160a01b038816907f50f654d58981575c05e369cb129aeacb01e1b036af429380242cfc5d1a4b743f9060600160405180910390a2610cf76113c0565b50505050505050565b600754600090421015610d135750600190565b6006546001600160a01b031615610d3457610d2c611496565b610d34610917565b50600090565b6001600160a01b03831615801590610d7657506005546000908152600c602090815260408083206001600160a01b038716845290915290205415155b156104fb576005546000908152600c602090815260408083206001600160a01b03871684529091529020548190811115610dd257506005546000908152600c602090815260408083206001600160a01b03871684529091529020545b6005546000908152600c602090815260408083206001600160a01b038816845290915281208054839290610e07908490611e2b565b90915550506001600160a01b03831615610e56576005546000908152600c602090815260408083206001600160a01b038716845290915281208054839290610e50908490611dd2565b90915550505b600554604080516001600160a01b038088168252861660208201529081018390527f65fbd5e5dd32bea4aeca85bd0be0abf0e489d655dee888a7510d43b06dda2dba9060600160405180910390a250505050565b600354610100900460ff1680610ec3575060035460ff16155b610edf5760405162461bcd60e51b815260040161048e90611d55565b600354610100900460ff16158015610f01576003805461ffff19166101011790555b6003805462010000600160b01b031916620100006001600160a01b038516021790558015610f35576003805461ff00191690555b5050565b8151610f4c906000906020850190611739565b5080516104fb906001906020840190611739565b6000610f6b81610893565b60045433906000906001600160a01b0316821415610f8b575060016110c4565b6000610f968361149e565b90506000600360029054906101000a90046001600160a01b03166001600160a01b03166387552a0d6040518163ffffffff1660e01b815260040160206040518083038186803b158015610fe857600080fd5b505afa158015610ffc573d6000803e3d6000fd5b505050506040513d601f19601f820116820180604052508101906110209190611867565b6001600160a01b031663b049473f6040518163ffffffff1660e01b815260040160606040518083038186803b15801561105857600080fd5b505afa15801561106c573d6000803e3d6000fd5b505050506040513d601f19601f820116820180604052508101906110909190611afe565b92505050606461109e6115a7565b6110ab9060ff8416611e0c565b6110b59190611dea565b8211156110c157600192505b50505b6001811515146110fe5760405162461bcd60e51b8152602060048201526005602482015264454332322d60d81b604482015260640161048e565b600080600360029054906101000a90046001600160a01b03166001600160a01b03166387552a0d6040518163ffffffff1660e01b815260040160206040518083038186803b15801561114f57600080fd5b505afa158015611163573d6000803e3d6000fd5b505050506040513d601f19601f820116820180604052508101906111879190611867565b6001600160a01b031663b049473f6040518163ffffffff1660e01b815260040160606040518083038186803b1580156111bf57600080fd5b505afa1580156111d3573d6000803e3d6000fd5b505050506040513d601f19601f820116820180604052508101906111f79190611afe565b50600680546001600160a01b0319163317905590925090506112198242611dd2565b600755606460ff821661122a6115a7565b6112349190611e0c565b61123e9190611dea565b600855600b8054600581905590600061125683611e7d565b90915550506006546005546007546008546040516001600160a01b03909416937f472501d19bf75639b2e316cd36f8568b0c3ab943b82a87de3c086c98c1929df9936112a59390929091611da3565b60405180910390a25050505050565b80421061052a5760405162461bcd60e51b8152602060048201526005602482015264454333332d60d81b604482015260640161048e565b6001600160a01b038216600090815260026020908152604080832084845290915290205460ff1615610f355760405162461bcd60e51b8152602060048201526005602482015264454333342d60d81b604482015260640161048e565b6000818152600c602090815260408083206001600160a01b03861684529091528120546113738461149e565b61137d9190611e2b565b9392505050565b6000838152600c602090815260408083206001600160a01b0386168452909152812080548392906113b6908490611dd2565b9091555050505050565b6008546009541061142f576113d36116a4565b6113db610917565b600654600554600954600a546040516001600160a01b03909416937f23ca0034cf5aad32571b4a492e9598ea8a490e1643a60970e3cdc6933b55e49f936114259390929091611da3565b60405180910390a2565b600854600a541061149457611442611496565b61144a610917565b600654600554600954600a546040516001600160a01b03909416937fa58eb6daa3c62c3f883973c4035e5bd3e81aa627c8379de068a7de42df122be2936114259390929091611da3565b565b611494611727565b6000600360029054906101000a90046001600160a01b03166001600160a01b031663da3dce266040518163ffffffff1660e01b815260040160206040518083038186803b1580156114ee57600080fd5b505afa158015611502573d6000803e3d6000fd5b505050506040513d601f19601f820116820180604052508101906115269190611867565b6001600160a01b03166370a08231836040518263ffffffff1660e01b81526004016115519190611c23565b60206040518083038186803b15801561156957600080fd5b505afa15801561157d573d6000803e3d6000fd5b505050506040513d601f19601f820116820180604052508101906115a19190611a73565b92915050565b6000600360029054906101000a90046001600160a01b03166001600160a01b031663da3dce266040518163ffffffff1660e01b815260040160206040518083038186803b1580156115f757600080fd5b505afa15801561160b573d6000803e3d6000fd5b505050506040513d601f19601f8201168201806040525081019061162f9190611867565b6001600160a01b03166318160ddd6040518163ffffffff1660e01b815260040160206040518083038186803b15801561166757600080fd5b505afa15801561167b573d6000803e3d6000fd5b505050506040513d601f19601f8201168201806040525081019061169f9190611a73565b905090565b600f54600d55601054600e805461010080840460ff90811690910261ffff199092169316929092179190911790556116da611727565b600d54600e546040517f83deefe7fb1ea73067fb2d8cf1e52c3d0027e44736b48a1ea92352a1096fd8d49261171d92909160ff8083169261010090041690611db9565b60405180910390a1565b6000600f556010805461ffff19169055565b82805461174590611e42565b90600052602060002090601f01602090048101928261176757600085556117ad565b82601f1061178057805160ff19168380011785556117ad565b828001600101855582156117ad579182015b828111156117ad578251825591602001919060010190611792565b506117b99291506117bd565b5090565b5b808211156117b957600081556001016117be565b60006001600160401b03808411156117ec576117ec611ec4565b604051601f8501601f19908116603f0116810190828211818310171561181457611814611ec4565b8160405280935085815286868601111561182d57600080fd5b858560208301376000602087830101525050509392505050565b600082601f83011261185857600080fd5b61137d838335602085016117d2565b60006020828403121561187957600080fd5b815161137d81611eda565b60008060006060848603121561189957600080fd5b83356118a481611eda565b925060208401356118b481611eda565b929592945050506040919091013590565b600080600080600080600060e0888a0312156118e057600080fd5b87356118eb81611eda565b965060208801356118fb81611eda565b955060408801359450606088013561191281611efd565b9350608088013561192281611efd565b925060a08801356001600160401b038082111561193e57600080fd5b61194a8b838c01611847565b935060c08a013591508082111561196057600080fd5b5061196d8a828b01611847565b91505092959891949750929550565b6000806040838503121561198f57600080fd5b823561199a81611eda565b946020939093013593505050565b60008060008060008060c087890312156119c157600080fd5b86356119cc81611eda565b95506020870135945060408701356119e381611eef565b9350606087013592506080870135915060a08701356001600160401b03811115611a0c57600080fd5b8701601f81018913611a1d57600080fd5b611a2c898235602084016117d2565b9150509295509295509295565b600060208284031215611a4b57600080fd5b813561137d81611eef565b600060208284031215611a6857600080fd5b815161137d81611eef565b600060208284031215611a8557600080fd5b5051919050565b60008060408385031215611a9f57600080fd5b823591506020830135611ab181611eda565b809150509250929050565b600080600060608486031215611ad157600080fd5b833592506020840135611ae381611efd565b91506040840135611af381611efd565b809150509250925092565b600080600060608486031215611b1357600080fd5b835192506020840151611b2581611efd565b6040850151909250611af381611efd565b6000815180845260005b81811015611b5c57602081850181015186830182015201611b40565b81811115611b6e576000602083870101525b50601f01601f19169290920160200192915050565b8054600090600181811c9080831680611b9d57607f831692505b6020808410821415611bbf57634e487b7160e01b600052602260045260246000fd5b83885260208801828015611bda5760018114611beb57611c16565b60ff19871682528282019750611c16565b60008981526020902060005b87811015611c1057815484820152908601908401611bf7565b83019850505b5050505050505092915050565b6001600160a01b0391909116815260200190565b6001600160a01b0392831681529116602082015260400190565b600061010060018060a01b038b16835289602084015288151560408401528760608401528660808401528060a0840152611c8d81840187611b36565b905082810360c0840152611ca18186611b83565b905082810360e0840152611cb58185611b83565b9b9a5050505050505050505050565b6020808252825182820181905260009190848201906040850190845b81811015611cfc57835183529284019291840191600101611ce0565b50909695505050505050565b604081526000611d1b6040830185611b36565b8281036020840152611d2d8185611b36565b95945050505050565b602080825260059082015264454332312d60d81b604082015260600190565b6020808252602e908201527f496e697469616c697a61626c653a20636f6e747261637420697320616c72656160408201526d191e481a5b9a5d1a585b1a5e995960921b606082015260800190565b9283526020830191909152604082015260600190565b92835260ff918216602084015216604082015260600190565b60008219821115611de557611de5611e98565b500190565b600082611e0757634e487b7160e01b600052601260045260246000fd5b500490565b6000816000190483118215151615611e2657611e26611e98565b500290565b600082821015611e3d57611e3d611e98565b500390565b600181811c90821680611e5657607f821691505b60208210811415611e7757634e487b7160e01b600052602260045260246000fd5b50919050565b6000600019821415611e9157611e91611e98565b5060010190565b634e487b7160e01b600052601160045260246000fd5b634e487b7160e01b600052603260045260246000fd5b634e487b7160e01b600052604160045260246000fd5b6001600160a01b038116811461052a57600080fd5b801515811461052a57600080fd5b60ff8116811461052a57600080fdfea2646970667358221220373b811786001cba305742f0a3985efdb4ffb828ec1ae95a48a883849ccc5be864736f6c63430008070033",
  "immutableReferences": {},
  "source": "// SPDX-License-Identifier: GPL-3.0\r\n\r\npragma solidity 0.8.7;\r\n\r\n/**\r\n  Events : \r\n    - New Settings Added : list of settings\r\n */\r\n\r\nimport \"../Interfaces/IPropositionSettings.sol\";\r\nimport \"../Libraries/UintLibrary.sol\";\r\nimport \"../Base/TokenGovernanceBaseContract.sol\";\r\n\r\ncontract PropositionSettings is IPropositionSettings, TokenGovernanceBaseContract{\r\n    using UintLibrary for *;\r\n\r\n    // EVENTS /////////////////////////////////////////\r\n    event _NewSettings(uint256 LifeTime, uint8 ThresholdPercentage, uint8 minWeightToProposePercentage);\r\n\r\n    // DATA /////////////////////////////////////////\r\n    uint256 internal _LifeTime;\r\n    uint8 internal _ThresholdPerc;\r\n    uint8 internal _minWeightToProposePerc;\r\n\r\n    // proposition to change prices\r\n    struct ProposedSettingsStruct{\r\n        uint256 NewLifeTime;\r\n        uint8 NewThresholdPerc;\r\n        uint8 NewMinWeightToProposePerc;\r\n    }\r\n\r\n    ProposedSettingsStruct internal _ProposedSettings;\r\n\r\n    // MODIFIERS /////////////////////////////////////////\r\n    modifier areSettingsOK(uint8 PropositionThresholdPercentage, uint8 minWeightToProposePercentage){\r\n        require(100 >= PropositionThresholdPercentage, \"EC21-\");\r\n        require(100 >= minWeightToProposePercentage, \"EC21-\");\r\n        _;\r\n    }\r\n    \r\n    // CONSTRUCTOR /////////////////////////////////////////\r\n    function PropositionSettings_init(address managerContractAddress, address chairPerson, uint256 PropositionLifeTime, uint8 PropositionThresholdPercentage, uint8 minWeightToProposePercentage, string memory contractName, string memory contractVersion) public initializer \r\n    {\r\n        super.TokenGovernanceContract_init(chairPerson, managerContractAddress, contractName, contractVersion);\r\n        InternalupdateSettings(PropositionLifeTime, PropositionThresholdPercentage, minWeightToProposePercentage, true);\r\n    }\r\n\r\n    // GOVERNANCE /////////////////////////////////////////\r\n    function updateSettings(uint256 PropositionLifeTime, uint8 PropositionThresholdPercentage, uint8 minWeightToProposePercentage) external override\r\n    {\r\n        InternalupdateSettings(PropositionLifeTime, PropositionThresholdPercentage, minWeightToProposePercentage, false);\r\n    }\r\n\r\n    function InternalupdateSettings(uint256 PropLifeTime, uint8 PropThresholdPerc, uint8 minWeightToPropPerc, bool fromConstructor) internal\r\n        areSettingsOK(PropThresholdPerc, minWeightToPropPerc)\r\n    {\r\n        if(fromConstructor){\r\n            _LifeTime = PropLifeTime;\r\n            _ThresholdPerc = PropThresholdPerc;\r\n            _minWeightToProposePerc = minWeightToPropPerc;\r\n        }\r\n        else{\r\n            addProposition();\r\n            _ProposedSettings.NewLifeTime = PropLifeTime;\r\n            _ProposedSettings.NewThresholdPerc = PropThresholdPerc;\r\n            _ProposedSettings.NewMinWeightToProposePerc = minWeightToPropPerc;\r\n        }   \r\n        \r\n    }\r\n\r\n    function propositionApproved() internal override\r\n    {\r\n        _LifeTime = _ProposedSettings.NewLifeTime;\r\n        _ThresholdPerc = _ProposedSettings.NewThresholdPerc;\r\n        _minWeightToProposePerc = _ProposedSettings.NewMinWeightToProposePerc;\r\n        \r\n        removeProposition();\r\n\r\n        emit _NewSettings(_LifeTime, _ThresholdPerc, _minWeightToProposePerc);\r\n    }\r\n\r\n    function propositionRejected() internal override\r\n    {\r\n        removeProposition();\r\n    }\r\n\r\n    function propositionExpired() internal override\r\n    {\r\n        removeProposition();\r\n    }\r\n\r\n    function removeProposition() internal\r\n    {\r\n         delete(_ProposedSettings);\r\n    }\r\n\r\n    function retrieveProposition() external override view returns(bytes32[] memory)\r\n    {\r\n        bytes32[] memory proposition = new bytes32[](3);\r\n        proposition[0] = UintLibrary.UintToBytes32(_ProposedSettings.NewLifeTime);\r\n        proposition[1] = UintLibrary.UintToBytes32(_ProposedSettings.NewThresholdPerc);\r\n        proposition[2] = UintLibrary.UintToBytes32(_ProposedSettings.NewMinWeightToProposePerc);\r\n        return proposition;\r\n    }\r\n\r\n    function retrieveSettings() external override view returns(uint256, uint8, uint8)\r\n    {\r\n        return(_LifeTime, _ThresholdPerc, _minWeightToProposePerc);\r\n    }\r\n\r\n\r\n}",
  "sourcePath": "C:/Users/d-aam/GitHub/Certificates/contracts/DeployedContracts/PropositionSettings.sol",
  "compiler": {
    "name": "solc",
    "version": "0.8.7+commit.e28d00a7.Emscripten.clang"
  },
  "schemaVersion": "3.3.4",
  "updatedAt": "2021-10-27T11:19:55.354Z",
  "devdoc": {
    "kind": "dev",
    "methods": {},
    "version": 1
  },
  "userdoc": {
    "kind": "user",
    "methods": {},
    "version": 1
  }
}