{
  "contractName": "PropositionSettings",
  "abi": [
    {
      "anonymous": false,
      "inputs": [
        {
          "indexed": false,
          "internalType": "uint256",
          "name": "Id",
          "type": "uint256"
        },
        {
          "indexed": true,
          "internalType": "address",
          "name": "Proposer",
          "type": "address"
        },
        {
          "indexed": false,
          "internalType": "uint256",
          "name": "Deadline",
          "type": "uint256"
        },
        {
          "indexed": false,
          "internalType": "uint256",
          "name": "Threshold",
          "type": "uint256"
        }
      ],
      "name": "_AddedProposition",
      "type": "event"
    },
    {
      "anonymous": false,
      "inputs": [
        {
          "indexed": false,
          "internalType": "uint256",
          "name": "Id",
          "type": "uint256"
        },
        {
          "indexed": true,
          "internalType": "address",
          "name": "Proposer",
          "type": "address"
        }
      ],
      "name": "_CancelledProposition",
      "type": "event"
    },
    {
      "anonymous": false,
      "inputs": [
        {
          "indexed": false,
          "internalType": "uint256",
          "name": "LifeTime",
          "type": "uint256"
        },
        {
          "indexed": false,
          "internalType": "uint8",
          "name": "ThresholdPercentage",
          "type": "uint8"
        },
        {
          "indexed": false,
          "internalType": "uint8",
          "name": "minWeightToProposePercentage",
          "type": "uint8"
        }
      ],
      "name": "_NewSettings",
      "type": "event"
    },
    {
      "anonymous": false,
      "inputs": [
        {
          "indexed": false,
          "internalType": "uint256",
          "name": "Id",
          "type": "uint256"
        },
        {
          "indexed": true,
          "internalType": "address",
          "name": "Proposer",
          "type": "address"
        },
        {
          "indexed": false,
          "internalType": "uint256",
          "name": "VotesFor",
          "type": "uint256"
        },
        {
          "indexed": false,
          "internalType": "uint256",
          "name": "VotesAgainst",
          "type": "uint256"
        }
      ],
      "name": "_PropositionApproved",
      "type": "event"
    },
    {
      "anonymous": false,
      "inputs": [
        {
          "indexed": false,
          "internalType": "uint256",
          "name": "Id",
          "type": "uint256"
        },
        {
          "indexed": true,
          "internalType": "address",
          "name": "Proposer",
          "type": "address"
        },
        {
          "indexed": false,
          "internalType": "uint256",
          "name": "VotesFor",
          "type": "uint256"
        },
        {
          "indexed": false,
          "internalType": "uint256",
          "name": "VotesAgainst",
          "type": "uint256"
        }
      ],
      "name": "_PropositionRejected",
      "type": "event"
    },
    {
      "anonymous": false,
      "inputs": [
        {
          "indexed": false,
          "internalType": "uint256",
          "name": "Id",
          "type": "uint256"
        },
        {
          "indexed": true,
          "internalType": "address",
          "name": "Voter",
          "type": "address"
        },
        {
          "indexed": false,
          "internalType": "bool",
          "name": "Vote",
          "type": "bool"
        },
        {
          "indexed": false,
          "internalType": "uint256",
          "name": "AmountTokens",
          "type": "uint256"
        }
      ],
      "name": "_PropositionVote",
      "type": "event"
    },
    {
      "anonymous": false,
      "inputs": [
        {
          "indexed": true,
          "internalType": "uint256",
          "name": "Id",
          "type": "uint256"
        },
        {
          "indexed": false,
          "internalType": "address",
          "name": "From",
          "type": "address"
        },
        {
          "indexed": false,
          "internalType": "address",
          "name": "To",
          "type": "address"
        },
        {
          "indexed": false,
          "internalType": "uint256",
          "name": "Amount",
          "type": "uint256"
        }
      ],
      "name": "_UsedTokensTransfered",
      "type": "event"
    },
    {
      "inputs": [
        {
          "internalType": "address",
          "name": "chairPerson",
          "type": "address"
        },
        {
          "internalType": "address",
          "name": "managerContractAddress",
          "type": "address"
        },
        {
          "internalType": "string",
          "name": "contractName",
          "type": "string"
        },
        {
          "internalType": "string",
          "name": "contractVersion",
          "type": "string"
        }
      ],
      "name": "StdPropositionBaseContract_init",
      "outputs": [],
      "stateMutability": "nonpayable",
      "type": "function"
    },
    {
      "inputs": [],
      "name": "cancelProposition",
      "outputs": [],
      "stateMutability": "nonpayable",
      "type": "function"
    },
    {
      "inputs": [
        {
          "internalType": "address",
          "name": "from",
          "type": "address"
        },
        {
          "internalType": "address",
          "name": "to",
          "type": "address"
        },
        {
          "internalType": "uint256",
          "name": "amount",
          "type": "uint256"
        }
      ],
      "name": "onTokenBalanceChanged",
      "outputs": [],
      "stateMutability": "nonpayable",
      "type": "function"
    },
    {
      "inputs": [],
      "name": "retrieveChairPerson",
      "outputs": [
        {
          "internalType": "address",
          "name": "",
          "type": "address"
        }
      ],
      "stateMutability": "view",
      "type": "function",
      "constant": true
    },
    {
      "inputs": [],
      "name": "retrieveContractConfig",
      "outputs": [
        {
          "internalType": "string",
          "name": "",
          "type": "string"
        },
        {
          "internalType": "string",
          "name": "",
          "type": "string"
        }
      ],
      "stateMutability": "view",
      "type": "function",
      "constant": true
    },
    {
      "inputs": [],
      "name": "retrieveManagerContract",
      "outputs": [
        {
          "internalType": "address",
          "name": "",
          "type": "address"
        }
      ],
      "stateMutability": "view",
      "type": "function",
      "constant": true
    },
    {
      "inputs": [],
      "name": "retrieveNextPropId",
      "outputs": [
        {
          "internalType": "uint256",
          "name": "",
          "type": "uint256"
        }
      ],
      "stateMutability": "view",
      "type": "function",
      "constant": true
    },
    {
      "inputs": [
        {
          "internalType": "address",
          "name": "addr",
          "type": "address"
        },
        {
          "internalType": "uint256",
          "name": "nonce",
          "type": "uint256"
        }
      ],
      "name": "retrieveNonce",
      "outputs": [
        {
          "internalType": "bool",
          "name": "",
          "type": "bool"
        }
      ],
      "stateMutability": "view",
      "type": "function",
      "constant": true
    },
    {
      "inputs": [],
      "name": "retrieveProposition",
      "outputs": [
        {
          "internalType": "bytes32[]",
          "name": "",
          "type": "bytes32[]"
        }
      ],
      "stateMutability": "view",
      "type": "function",
      "constant": true
    },
    {
      "inputs": [],
      "name": "retrievePropositionStatus",
      "outputs": [
        {
          "internalType": "address",
          "name": "",
          "type": "address"
        },
        {
          "internalType": "uint256",
          "name": "",
          "type": "uint256"
        },
        {
          "internalType": "uint256",
          "name": "",
          "type": "uint256"
        },
        {
          "internalType": "uint256",
          "name": "",
          "type": "uint256"
        },
        {
          "internalType": "uint256",
          "name": "",
          "type": "uint256"
        }
      ],
      "stateMutability": "view",
      "type": "function",
      "constant": true
    },
    {
      "inputs": [
        {
          "internalType": "uint256",
          "name": "PropId",
          "type": "uint256"
        },
        {
          "internalType": "address",
          "name": "voter",
          "type": "address"
        }
      ],
      "name": "retrieveVotesForVoter",
      "outputs": [
        {
          "internalType": "uint256",
          "name": "",
          "type": "uint256"
        }
      ],
      "stateMutability": "view",
      "type": "function",
      "constant": true
    },
    {
      "inputs": [
        {
          "internalType": "bytes32[]",
          "name": "NewValues",
          "type": "bytes32[]"
        }
      ],
      "name": "sendProposition",
      "outputs": [],
      "stateMutability": "nonpayable",
      "type": "function"
    },
    {
      "inputs": [
        {
          "internalType": "bool",
          "name": "vote",
          "type": "bool"
        }
      ],
      "name": "voteProposition",
      "outputs": [],
      "stateMutability": "nonpayable",
      "type": "function"
    },
    {
      "inputs": [
        {
          "internalType": "address",
          "name": "voter",
          "type": "address"
        },
        {
          "internalType": "uint256",
          "name": "propID",
          "type": "uint256"
        },
        {
          "internalType": "bool",
          "name": "vote",
          "type": "bool"
        },
        {
          "internalType": "uint256",
          "name": "nonce",
          "type": "uint256"
        },
        {
          "internalType": "uint256",
          "name": "deadline",
          "type": "uint256"
        },
        {
          "internalType": "bytes",
          "name": "signature",
          "type": "bytes"
        }
      ],
      "name": "votePropositionOnBehalfOf",
      "outputs": [],
      "stateMutability": "nonpayable",
      "type": "function"
    },
    {
      "inputs": [
        {
          "internalType": "address",
          "name": "managerContractAddress",
          "type": "address"
        },
        {
          "internalType": "address",
          "name": "chairPerson",
          "type": "address"
        },
        {
          "internalType": "uint256",
          "name": "PropositionLifeTime",
          "type": "uint256"
        },
        {
          "internalType": "uint8",
          "name": "PropositionThresholdPercentage",
          "type": "uint8"
        },
        {
          "internalType": "uint8",
          "name": "minWeightToProposePercentage",
          "type": "uint8"
        },
        {
          "internalType": "string",
          "name": "contractName",
          "type": "string"
        },
        {
          "internalType": "string",
          "name": "contractVersion",
          "type": "string"
        }
      ],
      "name": "PropositionSettings_init",
      "outputs": [],
      "stateMutability": "nonpayable",
      "type": "function"
    },
    {
      "inputs": [],
      "name": "retrieveSettings",
      "outputs": [
        {
          "internalType": "uint256",
          "name": "",
          "type": "uint256"
        },
        {
          "internalType": "uint8",
          "name": "",
          "type": "uint8"
        },
        {
          "internalType": "uint8",
          "name": "",
          "type": "uint8"
        }
      ],
      "stateMutability": "view",
      "type": "function",
      "constant": true
    }
  ],
  "bytecode": "0x608060405234801561001057600080fd5b50612288806100206000396000f3fe608060405234801561001057600080fd5b50600436106100d05760003560e01c806304cc67a9146100d55780630f13bbc9146100ec5780633c7df55d146101015780633feca4ca146101145780634044adb21461015d57806355457ee9146101935780635b362e841461019b5780635e044803146101bb5780637faa3d6f146101ce578063840f6d17146101e157806391f9167114610222578063a93316f514610235578063b049473f1461024a578063d2116a021461026b578063db85bc4d14610281578063ea1ff61714610292575b600080fd5b600b545b6040519081526020015b60405180910390f35b6100ff6100fa366004611a80565b6102a5565b005b6100ff61010f366004611b08565b61032a565b61014d610122366004611c00565b6001600160a01b03919091166000908152600260209081526040808320938352929052205460ff1690565b60405190151581526020016100e3565b6100d961016b366004611dbc565b6000918252600c602090815260408084206001600160a01b0393909316845291905290205490565b6100ff61042a565b6003546201000090046001600160a01b03165b6040516100e39190611f39565b6100ff6101c9366004611b49565b6104fc565b6100ff6101dc366004611c2c565b610594565b600654600754600854600954600a54604080516001600160a01b0390961686526020860194909452928401919091526060830152608082015260a0016100e3565b6100ff610230366004611d69565b6105b4565b61023d6105c1565b6040516100e39190611fda565b600e54600f5460ff808216916101009004166040516100e3939291906120cf565b610273610619565b6040516100e392919061201e565b6004546001600160a01b03166101ae565b6100ff6102a0366004611cbd565b610740565b600354610100900460ff16806102be575060035460ff16155b6102e35760405162461bcd60e51b81526004016102da9061206b565b60405180910390fd5b600354610100900460ff16158015610305576003805461ffff19166101011790555b610311858585856107a6565b8015610323576003805461ff00191690555b5050505050565b3373__Library_______________________________6337ea306382600360029054906101000a90046001600160a01b03166001600160a01b031663da3dce266040518163ffffffff1660e01b815260040160206040518083038186803b15801561039457600080fd5b505afa1580156103a8573d6000803e3d6000fd5b505050506040513d601f19601f820116820180604052508101906103cc9190611a63565b6040518363ffffffff1660e01b81526004016103e9929190611f4d565b60006040518083038186803b15801561040157600080fd5b505af4158015610415573d6000803e3d6000fd5b50505050610424848484610830565b50505050565b600161043581610852565b6006546040516337ea306360e01b8152339173__Library_______________________________916337ea30639161047b9185916001600160a01b031690600401611f4d565b60006040518083038186803b15801561049357600080fd5b505af41580156104a7573d6000803e3d6000fd5b505050506104b36108d6565b6006546005546040519081526001600160a01b03909116907f1fe8aec10c0a50fa765076161e08c1f961ced69594ff45cf7d559f593afe14799060200160405180910390a25050565b600354610100900460ff1680610515575060035460ff16155b6105315760405162461bcd60e51b81526004016102da9061206b565b600354610100900460ff16158015610553576003805461ffff19166101011790555b848461055f8282610901565b61056b898b87876102a5565b610576888888610949565b5050801561058a576003805461ff00191690555b5050505050505050565b6105a2868686868686610970565b6105ac8685610acf565b505050505050565b6105be3382610acf565b50565b6060600d80548060200260200160405190810160405280929190818152602001828054801561060f57602002820191906000526020600020905b8154815260200190600101908083116105fb575b5050505050905090565b6060806000600181805461062c90612188565b80601f016020809104026020016040519081016040528092919081815260200182805461065890612188565b80156106a55780601f1061067a576101008083540402835291602001916106a5565b820191906000526020600020905b81548152906001019060200180831161068857829003601f168201915b505050505091508080546106b890612188565b80601f01602080910402602001604051908101604052809291908181526020018280546106e490612188565b80156107315780601f1061070657610100808354040283529160200191610731565b820191906000526020600020905b81548152906001019060200180831161071457829003601f168201915b50505050509050915091509091565b61074981610be6565b610751610d36565b60005b81518110156107a257600d828281518110610771576107716121f4565b602090810291909101810151825460018101845560009384529190922001558061079a816121c3565b915050610754565b5050565b600354610100900460ff16806107bf575060035460ff16155b6107db5760405162461bcd60e51b81526004016102da9061206b565b600354610100900460ff161580156107fd576003805461ffff19166101011790555b6108068461108a565b600480546001600160a01b0319166001600160a01b0387161790556000600b556103118383611118565b61083861113f565b15156001141561084d5761084d838383611179565b505050565b80156108995761086061113f565b15156001146105be5760405162461bcd60e51b8152602060048201526005602482015264454332352d60d81b60448201526064016102da565b6108a161113f565b156105be5760405162461bcd60e51b8152602060048201526005602482015264454332342d60d81b60448201526064016102da565b60006005819055600680546001600160a01b0319169055600781905560088190556009819055600a55565b8160ff16606410156109255760405162461bcd60e51b81526004016102da9061204c565b8060ff16606410156107a25760405162461bcd60e51b81526004016102da9061204c565b600e92909255600f805460ff9384166101000261ffff199091169390921692909217179055565b8161097a816112e9565b86846109868282611320565b60055488146109bf5760405162461bcd60e51b8152602060048201526005602482015264454333352d60d81b60448201526064016102da565b60405163432f9a5560e01b815273__SignatureLibrary______________________9063432f9a5590610a06908c908c908c908c908c908c90600090600190600401611f67565b60206040518083038186803b158015610a1e57600080fd5b505af4158015610a32573d6000803e3d6000fd5b505050506040513d601f19601f82011682018060405250810190610a569190611d86565b1515600114610a8f5760405162461bcd60e51b8152602060048201526005602482015264454333322d60d81b60448201526064016102da565b610ac489876001600160a01b03909116600090815260026020908152604080832093835292905220805460ff19166001179055565b505050505050505050565b6001610ada81610852565b60055483906000610aeb838361137c565b905060008111610b255760405162461bcd60e51b8152602060048201526005602482015264454332332d60d81b60448201526064016102da565b6000610b368760056000015461137c565b90508515610b5e578060056004016000828254610b539190612118565b90915550610b789050565b80600580016000828254610b729190612118565b90915550505b600554610b869088836113b9565b60055460408051918252871515602083015281018290526001600160a01b038816907f50f654d58981575c05e369cb129aeacb01e1b036af429380242cfc5d1a4b743f9060600160405180910390a2610bdd6113f5565b50505050505050565b73__UintLibrary___________________________634d6550ed82600181518110610c1357610c136121f4565b60200260200101516040518263ffffffff1660e01b8152600401610c3991815260200190565b60206040518083038186803b158015610c5157600080fd5b505af4158015610c65573d6000803e3d6000fd5b505050506040513d601f19601f82011682018060405250810190610c899190611e2f565b73__UintLibrary___________________________634d6550ed83600281518110610cb657610cb66121f4565b60200260200101516040518263ffffffff1660e01b8152600401610cdc91815260200190565b60206040518083038186803b158015610cf457600080fd5b505af4158015610d08573d6000803e3d6000fd5b505050506040513d601f19601f82011682018060405250810190610d2c9190611e2f565b61084d8282610901565b6000610d4181610852565b60045433906000906001600160a01b0316821415610d6157506001610e9a565b6000610d6c836114cb565b90506000600360029054906101000a90046001600160a01b03166001600160a01b03166387552a0d6040518163ffffffff1660e01b815260040160206040518083038186803b158015610dbe57600080fd5b505afa158015610dd2573d6000803e3d6000fd5b505050506040513d601f19601f82011682018060405250810190610df69190611a63565b6001600160a01b031663b049473f6040518163ffffffff1660e01b815260040160606040518083038186803b158015610e2e57600080fd5b505afa158015610e42573d6000803e3d6000fd5b505050506040513d601f19601f82011682018060405250810190610e669190611dec565b925050506064610e746115d4565b610e819060ff8416612152565b610e8b9190612130565b821115610e9757600192505b50505b600181151514610ed45760405162461bcd60e51b8152602060048201526005602482015264454332322d60d81b60448201526064016102da565b600080600360029054906101000a90046001600160a01b03166001600160a01b03166387552a0d6040518163ffffffff1660e01b815260040160206040518083038186803b158015610f2557600080fd5b505afa158015610f39573d6000803e3d6000fd5b505050506040513d601f19601f82011682018060405250810190610f5d9190611a63565b6001600160a01b031663b049473f6040518163ffffffff1660e01b815260040160606040518083038186803b158015610f9557600080fd5b505afa158015610fa9573d6000803e3d6000fd5b505050506040513d601f19601f82011682018060405250810190610fcd9190611dec565b50600680546001600160a01b031916331790559092509050610fef8242612118565b600755606460ff82166110006115d4565b61100a9190612152565b6110149190612130565b600855600b8054600581905590600061102c836121c3565b90915550506006546005546007546008546040516001600160a01b03909416937f472501d19bf75639b2e316cd36f8568b0c3ab943b82a87de3c086c98c1929df99361107b93909290916120b9565b60405180910390a25050505050565b600354610100900460ff16806110a3575060035460ff16155b6110bf5760405162461bcd60e51b81526004016102da9061206b565b600354610100900460ff161580156110e1576003805461ffff19166101011790555b6003805462010000600160b01b031916620100006001600160a01b0385160217905580156107a2576003805461ff00191690555050565b815161112b906000906020850190611939565b50805161084d906001906020840190611939565b6007546000904210156111525750600190565b6006546001600160a01b0316156111735761116b6116d1565b6111736108d6565b50600090565b6001600160a01b038316158015906111b557506005546000908152600c602090815260408083206001600160a01b038716845290915290205415155b1561084d576005546000908152600c602090815260408083206001600160a01b0387168452909152902054819081111561121157506005546000908152600c602090815260408083206001600160a01b03871684529091529020545b6005546000908152600c602090815260408083206001600160a01b038816845290915281208054839290611246908490612171565b90915550506001600160a01b03831615611295576005546000908152600c602090815260408083206001600160a01b03871684529091528120805483929061128f908490612118565b90915550505b600554604080516001600160a01b038088168252861660208201529081018390527f65fbd5e5dd32bea4aeca85bd0be0abf0e489d655dee888a7510d43b06dda2dba9060600160405180910390a250505050565b8042106105be5760405162461bcd60e51b8152602060048201526005602482015264454333332d60d81b60448201526064016102da565b6001600160a01b038216600090815260026020908152604080832084845290915290205460ff16156107a25760405162461bcd60e51b8152602060048201526005602482015264454333342d60d81b60448201526064016102da565b6000818152600c602090815260408083206001600160a01b03861684529091528120546113a8846114cb565b6113b29190612171565b9392505050565b6000838152600c602090815260408083206001600160a01b0386168452909152812080548392906113eb908490612118565b9091555050505050565b60085460095410611464576114086116d9565b6114106108d6565b600654600554600954600a546040516001600160a01b03909416937f23ca0034cf5aad32571b4a492e9598ea8a490e1643a60970e3cdc6933b55e49f9361145a93909290916120b9565b60405180910390a2565b600854600a54106114c9576114776116d1565b61147f6108d6565b600654600554600954600a546040516001600160a01b03909416937fa58eb6daa3c62c3f883973c4035e5bd3e81aa627c8379de068a7de42df122be29361145a93909290916120b9565b565b6000600360029054906101000a90046001600160a01b03166001600160a01b031663da3dce266040518163ffffffff1660e01b815260040160206040518083038186803b15801561151b57600080fd5b505afa15801561152f573d6000803e3d6000fd5b505050506040513d601f19601f820116820180604052508101906115539190611a63565b6001600160a01b03166370a08231836040518263ffffffff1660e01b815260040161157e9190611f39565b60206040518083038186803b15801561159657600080fd5b505afa1580156115aa573d6000803e3d6000fd5b505050506040513d601f19601f820116820180604052508101906115ce9190611da3565b92915050565b6000600360029054906101000a90046001600160a01b03166001600160a01b031663da3dce266040518163ffffffff1660e01b815260040160206040518083038186803b15801561162457600080fd5b505afa158015611638573d6000803e3d6000fd5b505050506040513d601f19601f8201168201806040525081019061165c9190611a63565b6001600160a01b03166318160ddd6040518163ffffffff1660e01b815260040160206040518083038186803b15801561169457600080fd5b505afa1580156116a8573d6000803e3d6000fd5b505050506040513d601f19601f820116820180604052508101906116cc9190611da3565b905090565b6114c96116e1565b6116d16116ed565b6114c9600d60006119bd565b600073__UintLibrary___________________________630bd4715e600d60008154811061171d5761171d6121f4565b90600052602060002001546040518263ffffffff1660e01b815260040161174691815260200190565b60206040518083038186803b15801561175e57600080fd5b505af4158015611772573d6000803e3d6000fd5b505050506040513d601f19601f820116820180604052508101906117969190611da3565b9050600073__UintLibrary___________________________634d6550ed600d6001815481106117c8576117c86121f4565b90600052602060002001546040518263ffffffff1660e01b81526004016117f191815260200190565b60206040518083038186803b15801561180957600080fd5b505af415801561181d573d6000803e3d6000fd5b505050506040513d601f19601f820116820180604052508101906118419190611e2f565b9050600073__UintLibrary___________________________634d6550ed600d600281548110611873576118736121f4565b90600052602060002001546040518263ffffffff1660e01b815260040161189c91815260200190565b60206040518083038186803b1580156118b457600080fd5b505af41580156118c8573d6000803e3d6000fd5b505050506040513d601f19601f820116820180604052508101906118ec9190611e2f565b90506118f9838383610949565b7f83deefe7fb1ea73067fb2d8cf1e52c3d0027e44736b48a1ea92352a1096fd8d483838360405161192c939291906120cf565b60405180910390a1505050565b82805461194590612188565b90600052602060002090601f01602090048101928261196757600085556119ad565b82601f1061198057805160ff19168380011785556119ad565b828001600101855582156119ad579182015b828111156119ad578251825591602001919060010190611992565b506119b99291506119d7565b5090565b50805460008255906000526020600020908101906105be91905b5b808211156119b957600081556001016119d8565b60006001600160401b03831115611a0557611a0561220a565b611a18601f8401601f19166020016120e8565b9050828152838383011115611a2c57600080fd5b828260208301376000602084830101529392505050565b600082601f830112611a5457600080fd5b6113b2838335602085016119ec565b600060208284031215611a7557600080fd5b81516113b281612220565b60008060008060808587031215611a9657600080fd5b8435611aa181612220565b93506020850135611ab181612220565b925060408501356001600160401b0380821115611acd57600080fd5b611ad988838901611a43565b93506060870135915080821115611aef57600080fd5b50611afc87828801611a43565b91505092959194509250565b600080600060608486031215611b1d57600080fd5b8335611b2881612220565b92506020840135611b3881612220565b929592945050506040919091013590565b600080600080600080600060e0888a031215611b6457600080fd5b8735611b6f81612220565b96506020880135611b7f81612220565b9550604088013594506060880135611b9681612243565b93506080880135611ba681612243565b925060a08801356001600160401b0380821115611bc257600080fd5b611bce8b838c01611a43565b935060c08a0135915080821115611be457600080fd5b50611bf18a828b01611a43565b91505092959891949750929550565b60008060408385031215611c1357600080fd5b8235611c1e81612220565b946020939093013593505050565b60008060008060008060c08789031215611c4557600080fd5b8635611c5081612220565b9550602087013594506040870135611c6781612235565b9350606087013592506080870135915060a08701356001600160401b03811115611c9057600080fd5b8701601f81018913611ca157600080fd5b611cb0898235602084016119ec565b9150509295509295509295565b60006020808385031215611cd057600080fd5b82356001600160401b0380821115611ce757600080fd5b818501915085601f830112611cfb57600080fd5b813581811115611d0d57611d0d61220a565b8060051b9150611d1e8483016120e8565b8181528481019084860184860187018a1015611d3957600080fd5b600095505b83861015611d5c578035835260019590950194918601918601611d3e565b5098975050505050505050565b600060208284031215611d7b57600080fd5b81356113b281612235565b600060208284031215611d9857600080fd5b81516113b281612235565b600060208284031215611db557600080fd5b5051919050565b60008060408385031215611dcf57600080fd5b823591506020830135611de181612220565b809150509250929050565b600080600060608486031215611e0157600080fd5b835192506020840151611e1381612243565b6040850151909250611e2481612243565b809150509250925092565b600060208284031215611e4157600080fd5b81516113b281612243565b6000815180845260005b81811015611e7257602081850181015186830182015201611e56565b81811115611e84576000602083870101525b50601f01601f19169290920160200192915050565b8054600090600181811c9080831680611eb357607f831692505b6020808410821415611ed557634e487b7160e01b600052602260045260246000fd5b83885260208801828015611ef05760018114611f0157611f2c565b60ff19871682528282019750611f2c565b60008981526020902060005b87811015611f2657815484820152908601908401611f0d565b83019850505b5050505050505092915050565b6001600160a01b0391909116815260200190565b6001600160a01b0392831681529116602082015260400190565b600061010060018060a01b038b16835289602084015288151560408401528760608401528660808401528060a0840152611fa381840187611e4c565b905082810360c0840152611fb78186611e99565b905082810360e0840152611fcb8185611e99565b9b9a5050505050505050505050565b6020808252825182820181905260009190848201906040850190845b8181101561201257835183529284019291840191600101611ff6565b50909695505050505050565b6040815260006120316040830185611e4c565b82810360208401526120438185611e4c565b95945050505050565b602080825260059082015264454332312d60d81b604082015260600190565b6020808252602e908201527f496e697469616c697a61626c653a20636f6e747261637420697320616c72656160408201526d191e481a5b9a5d1a585b1a5e995960921b606082015260800190565b9283526020830191909152604082015260600190565b92835260ff918216602084015216604082015260600190565b604051601f8201601f191681016001600160401b03811182821017156121105761211061220a565b604052919050565b6000821982111561212b5761212b6121de565b500190565b60008261214d57634e487b7160e01b600052601260045260246000fd5b500490565b600081600019048311821515161561216c5761216c6121de565b500290565b600082821015612183576121836121de565b500390565b600181811c9082168061219c57607f821691505b602082108114156121bd57634e487b7160e01b600052602260045260246000fd5b50919050565b60006000198214156121d7576121d76121de565b5060010190565b634e487b7160e01b600052601160045260246000fd5b634e487b7160e01b600052603260045260246000fd5b634e487b7160e01b600052604160045260246000fd5b6001600160a01b03811681146105be57600080fd5b80151581146105be57600080fd5b60ff811681146105be57600080fdfea2646970667358221220ed449fda6f0bf549937f3aae4c2eebef607f7f51bf7fa8f9ee93fc18ba1ae9bd64736f6c63430008070033",
  "immutableReferences": {},
  "source": "// SPDX-License-Identifier: GPL-3.0\r\n\r\npragma solidity 0.8.7;\r\n\r\n/**\r\n  Events : \r\n    - New Settings Added : list of settings\r\n */\r\n\r\nimport \"../Interfaces/IPropositionSettings.sol\";\r\nimport \"../Libraries/UintLibrary.sol\";\r\nimport \"../Base/StdPropositionBaseContract.sol\";\r\n\r\ncontract PropositionSettings is IPropositionSettings, StdPropositionBaseContract{\r\n    using UintLibrary for *;\r\n\r\n    // EVENTS /////////////////////////////////////////\r\n    event _NewSettings(uint256 LifeTime, uint8 ThresholdPercentage, uint8 minWeightToProposePercentage);\r\n\r\n    // DATA /////////////////////////////////////////\r\n    uint256 internal _LifeTime;\r\n    uint8 internal _ThresholdPerc;\r\n    uint8 internal _minWeightToProposePerc;\r\n\r\n    // MODIFIERS /////////////////////////////////////////\r\n    modifier areSettingsOK(uint8 PropositionThresholdPercentage, uint8 minWeightToProposePercentage){\r\n        areSettingsOKFunc(PropositionThresholdPercentage, minWeightToProposePercentage);\r\n        _;\r\n    }\r\n\r\n    function areSettingsOKFunc(uint8 PropositionThresholdPercentage, uint8 minWeightToProposePercentage) internal pure{\r\n        require(100 >= PropositionThresholdPercentage, \"EC21-\");\r\n        require(100 >= minWeightToProposePercentage, \"EC21-\");\r\n    }\r\n    \r\n    // CONSTRUCTOR /////////////////////////////////////////\r\n    function PropositionSettings_init(address managerContractAddress, address chairPerson, uint256 PropositionLifeTime, uint8 PropositionThresholdPercentage, uint8 minWeightToProposePercentage, string memory contractName, string memory contractVersion) public initializer \r\n        areSettingsOK(PropositionThresholdPercentage, minWeightToProposePercentage)\r\n\r\n    {\r\n        super.StdPropositionBaseContract_init(chairPerson, managerContractAddress, contractName, contractVersion);\r\n        InternalupdateSettings(PropositionLifeTime, PropositionThresholdPercentage, minWeightToProposePercentage);\r\n    }\r\n\r\n    // GOVERNANCE /////////////////////////////////////////\r\n    function checkProposition(bytes32[] memory NewValues) internal override \r\n        areSettingsOK(UintLibrary.Bytes32ToUint8(NewValues[1]), UintLibrary.Bytes32ToUint8(NewValues[2]))\r\n    {}\r\n\r\n    function UpdateAll() internal override\r\n    {\r\n        uint256 PropositionLifeTime = UintLibrary.Bytes32ToUint(_ProposedNewValues[0]);\r\n        uint8 PropositionThresholdPercentage = UintLibrary.Bytes32ToUint8(_ProposedNewValues[1]);\r\n        uint8 minWeightToProposePercentage = UintLibrary.Bytes32ToUint8(_ProposedNewValues[2]);\r\n\r\n        InternalupdateSettings(PropositionLifeTime, PropositionThresholdPercentage, minWeightToProposePercentage);\r\n\r\n        emit _NewSettings(PropositionLifeTime, PropositionThresholdPercentage, minWeightToProposePercentage);\r\n    }\r\n\r\n    function InternalupdateSettings(uint256 PropLifeTime, uint8 PropThresholdPerc, uint8 minWeightToPropPerc) internal\r\n    {\r\n        _LifeTime = PropLifeTime;\r\n        _ThresholdPerc = PropThresholdPerc;\r\n        _minWeightToProposePerc = minWeightToPropPerc;\r\n    }\r\n\r\n    // FUNCTIONALITY /////////////////////////////////////////\r\n    function retrieveSettings() external override view returns(uint256, uint8, uint8)\r\n    {\r\n        return(_LifeTime, _ThresholdPerc, _minWeightToProposePerc);\r\n    }\r\n\r\n\r\n}",
  "sourcePath": "C:/Users/d-aam/GitHub/Certificates/contracts/DeployedContracts/PropositionSettings.sol",
  "compiler": {
    "name": "solc",
    "version": "0.8.7+commit.e28d00a7.Emscripten.clang"
  },
  "schemaVersion": "3.3.4",
  "updatedAt": "2021-11-01T12:22:50.701Z",
  "networkType": "ethereum",
  "devdoc": {
    "kind": "dev",
    "methods": {},
    "version": 1
  },
  "userdoc": {
    "kind": "user",
    "methods": {},
    "version": 1
  }
}