{
  "contractName": "PropositionSettings",
  "abi": [
    {
      "anonymous": false,
      "inputs": [
        {
          "indexed": false,
          "internalType": "uint256",
          "name": "Id",
          "type": "uint256"
        },
        {
          "indexed": true,
          "internalType": "address",
          "name": "Proposer",
          "type": "address"
        },
        {
          "indexed": false,
          "internalType": "uint256",
          "name": "Deadline",
          "type": "uint256"
        },
        {
          "indexed": false,
          "internalType": "uint256",
          "name": "Threshold",
          "type": "uint256"
        }
      ],
      "name": "_AddedProposition",
      "type": "event"
    },
    {
      "anonymous": false,
      "inputs": [
        {
          "indexed": false,
          "internalType": "uint256",
          "name": "Id",
          "type": "uint256"
        },
        {
          "indexed": true,
          "internalType": "address",
          "name": "Proposer",
          "type": "address"
        }
      ],
      "name": "_CancelledProposition",
      "type": "event"
    },
    {
      "anonymous": false,
      "inputs": [
        {
          "indexed": false,
          "internalType": "uint256",
          "name": "LifeTime",
          "type": "uint256"
        },
        {
          "indexed": false,
          "internalType": "uint8",
          "name": "ThresholdPercentage",
          "type": "uint8"
        },
        {
          "indexed": false,
          "internalType": "uint8",
          "name": "minWeightToProposePercentage",
          "type": "uint8"
        }
      ],
      "name": "_NewSettings",
      "type": "event"
    },
    {
      "anonymous": false,
      "inputs": [
        {
          "indexed": false,
          "internalType": "uint256",
          "name": "Id",
          "type": "uint256"
        },
        {
          "indexed": true,
          "internalType": "address",
          "name": "Proposer",
          "type": "address"
        },
        {
          "indexed": false,
          "internalType": "uint256",
          "name": "VotesFor",
          "type": "uint256"
        },
        {
          "indexed": false,
          "internalType": "uint256",
          "name": "VotesAgainst",
          "type": "uint256"
        }
      ],
      "name": "_PropositionApproved",
      "type": "event"
    },
    {
      "anonymous": false,
      "inputs": [
        {
          "indexed": false,
          "internalType": "uint256",
          "name": "Id",
          "type": "uint256"
        },
        {
          "indexed": true,
          "internalType": "address",
          "name": "Proposer",
          "type": "address"
        },
        {
          "indexed": false,
          "internalType": "uint256",
          "name": "VotesFor",
          "type": "uint256"
        },
        {
          "indexed": false,
          "internalType": "uint256",
          "name": "VotesAgainst",
          "type": "uint256"
        }
      ],
      "name": "_PropositionRejected",
      "type": "event"
    },
    {
      "anonymous": false,
      "inputs": [
        {
          "indexed": false,
          "internalType": "uint256",
          "name": "Id",
          "type": "uint256"
        },
        {
          "indexed": true,
          "internalType": "address",
          "name": "Voter",
          "type": "address"
        },
        {
          "indexed": false,
          "internalType": "bool",
          "name": "Vote",
          "type": "bool"
        },
        {
          "indexed": false,
          "internalType": "uint256",
          "name": "AmountTokens",
          "type": "uint256"
        }
      ],
      "name": "_PropositionVote",
      "type": "event"
    },
    {
      "anonymous": false,
      "inputs": [
        {
          "indexed": true,
          "internalType": "uint256",
          "name": "Id",
          "type": "uint256"
        },
        {
          "indexed": false,
          "internalType": "address",
          "name": "From",
          "type": "address"
        },
        {
          "indexed": false,
          "internalType": "address",
          "name": "To",
          "type": "address"
        },
        {
          "indexed": false,
          "internalType": "uint256",
          "name": "Amount",
          "type": "uint256"
        }
      ],
      "name": "_UsedTokensTransfered",
      "type": "event"
    },
    {
      "inputs": [
        {
          "internalType": "address",
          "name": "chairPerson",
          "type": "address"
        },
        {
          "internalType": "address",
          "name": "managerContractAddress",
          "type": "address"
        },
        {
          "internalType": "string",
          "name": "contractName",
          "type": "string"
        },
        {
          "internalType": "string",
          "name": "contractVersion",
          "type": "string"
        }
      ],
      "name": "StdPropositionBaseContract_init",
      "outputs": [],
      "stateMutability": "nonpayable",
      "type": "function"
    },
    {
      "inputs": [],
      "name": "cancelProposition",
      "outputs": [],
      "stateMutability": "nonpayable",
      "type": "function"
    },
    {
      "inputs": [
        {
          "internalType": "address",
          "name": "from",
          "type": "address"
        },
        {
          "internalType": "address",
          "name": "to",
          "type": "address"
        },
        {
          "internalType": "uint256",
          "name": "amount",
          "type": "uint256"
        }
      ],
      "name": "onTokenBalanceChanged",
      "outputs": [],
      "stateMutability": "nonpayable",
      "type": "function"
    },
    {
      "inputs": [],
      "name": "retrieveChairPerson",
      "outputs": [
        {
          "internalType": "address",
          "name": "",
          "type": "address"
        }
      ],
      "stateMutability": "view",
      "type": "function"
    },
    {
      "inputs": [],
      "name": "retrieveContractConfig",
      "outputs": [
        {
          "internalType": "string",
          "name": "",
          "type": "string"
        },
        {
          "internalType": "string",
          "name": "",
          "type": "string"
        }
      ],
      "stateMutability": "view",
      "type": "function"
    },
    {
      "inputs": [],
      "name": "retrieveManagerContract",
      "outputs": [
        {
          "internalType": "address",
          "name": "",
          "type": "address"
        }
      ],
      "stateMutability": "view",
      "type": "function"
    },
    {
      "inputs": [],
      "name": "retrieveNextPropId",
      "outputs": [
        {
          "internalType": "uint256",
          "name": "",
          "type": "uint256"
        }
      ],
      "stateMutability": "view",
      "type": "function"
    },
    {
      "inputs": [
        {
          "internalType": "address",
          "name": "addr",
          "type": "address"
        },
        {
          "internalType": "uint256",
          "name": "nonce",
          "type": "uint256"
        }
      ],
      "name": "retrieveNonce",
      "outputs": [
        {
          "internalType": "bool",
          "name": "",
          "type": "bool"
        }
      ],
      "stateMutability": "view",
      "type": "function"
    },
    {
      "inputs": [],
      "name": "retrieveProposition",
      "outputs": [
        {
          "internalType": "bytes[]",
          "name": "",
          "type": "bytes[]"
        }
      ],
      "stateMutability": "view",
      "type": "function"
    },
    {
      "inputs": [],
      "name": "retrievePropositionStatus",
      "outputs": [
        {
          "internalType": "address",
          "name": "",
          "type": "address"
        },
        {
          "internalType": "uint256",
          "name": "",
          "type": "uint256"
        },
        {
          "internalType": "uint256",
          "name": "",
          "type": "uint256"
        },
        {
          "internalType": "uint256",
          "name": "",
          "type": "uint256"
        },
        {
          "internalType": "uint256",
          "name": "",
          "type": "uint256"
        }
      ],
      "stateMutability": "view",
      "type": "function"
    },
    {
      "inputs": [
        {
          "internalType": "uint256",
          "name": "PropId",
          "type": "uint256"
        },
        {
          "internalType": "address",
          "name": "voter",
          "type": "address"
        }
      ],
      "name": "retrieveVotesForVoter",
      "outputs": [
        {
          "internalType": "uint256",
          "name": "",
          "type": "uint256"
        }
      ],
      "stateMutability": "view",
      "type": "function"
    },
    {
      "inputs": [
        {
          "internalType": "bytes[]",
          "name": "NewValues",
          "type": "bytes[]"
        }
      ],
      "name": "sendProposition",
      "outputs": [],
      "stateMutability": "nonpayable",
      "type": "function"
    },
    {
      "inputs": [
        {
          "internalType": "bool",
          "name": "vote",
          "type": "bool"
        }
      ],
      "name": "voteProposition",
      "outputs": [],
      "stateMutability": "nonpayable",
      "type": "function"
    },
    {
      "inputs": [
        {
          "internalType": "address",
          "name": "voter",
          "type": "address"
        },
        {
          "internalType": "uint256",
          "name": "propID",
          "type": "uint256"
        },
        {
          "internalType": "bool",
          "name": "vote",
          "type": "bool"
        },
        {
          "internalType": "uint256",
          "name": "nonce",
          "type": "uint256"
        },
        {
          "internalType": "uint256",
          "name": "deadline",
          "type": "uint256"
        },
        {
          "internalType": "bytes",
          "name": "signature",
          "type": "bytes"
        }
      ],
      "name": "votePropositionOnBehalfOf",
      "outputs": [],
      "stateMutability": "nonpayable",
      "type": "function"
    },
    {
      "inputs": [
        {
          "internalType": "address",
          "name": "managerContractAddress",
          "type": "address"
        },
        {
          "internalType": "address",
          "name": "chairPerson",
          "type": "address"
        },
        {
          "internalType": "uint256",
          "name": "PropositionLifeTime",
          "type": "uint256"
        },
        {
          "internalType": "uint8",
          "name": "PropositionThresholdPercentage",
          "type": "uint8"
        },
        {
          "internalType": "uint8",
          "name": "minWeightToProposePercentage",
          "type": "uint8"
        },
        {
          "internalType": "string",
          "name": "contractName",
          "type": "string"
        },
        {
          "internalType": "string",
          "name": "contractVersion",
          "type": "string"
        }
      ],
      "name": "PropositionSettings_init",
      "outputs": [],
      "stateMutability": "nonpayable",
      "type": "function"
    },
    {
      "inputs": [],
      "name": "retrieveSettings",
      "outputs": [
        {
          "internalType": "uint256",
          "name": "",
          "type": "uint256"
        },
        {
          "internalType": "uint8",
          "name": "",
          "type": "uint8"
        },
        {
          "internalType": "uint8",
          "name": "",
          "type": "uint8"
        }
      ],
      "stateMutability": "view",
      "type": "function"
    }
  ],
  "bytecode": "0x608060405234801561001057600080fd5b506126fd806100206000396000f3fe608060405234801561001057600080fd5b50600436106100d05760003560e01c806304cc67a9146100d55780630f13bbc9146100ec5780633c7df55d146101015780633feca4ca146101145780634044adb21461015d57806355457ee9146101935780635b362e841461019b5780635e044803146101bb5780637faa3d6f146101ce578063840f6d17146101e157806391f9167114610222578063a93316f514610235578063b049473f1461024a578063d2116a021461026b578063db85bc4d14610281578063e15aa3a614610292575b600080fd5b600b545b6040519081526020015b60405180910390f35b6100ff6100fa366004611e00565b6102a5565b005b6100ff61010f366004611e88565b61032a565b61014d610122366004611f80565b6001600160a01b03919091166000908152600260209081526040808320938352929052205460ff1690565b60405190151581526020016100e3565b6100d961016b3660046121cf565b6000918252600c602090815260408084206001600160a01b0393909316845291905290205490565b6100ff61042a565b6003546201000090046001600160a01b03165b6040516100e3919061234d565b6100ff6101c9366004611ec9565b6104fc565b6100ff6101dc366004611fac565b610594565b600654600754600854600954600a54604080516001600160a01b0390961686526020860194909452928401919091526060830152608082015260a0016100e3565b6100ff61023036600461217c565b6105b4565b61023d6105c1565b6040516100e391906123ee565b600e54600f5460ff808216916101009004166040516100e393929190612527565b61027361069a565b6040516100e3929190612476565b6004546001600160a01b03166101ae565b6100ff6102a03660046120c5565b6107c1565b600354610100900460ff16806102be575060035460ff16155b6102e35760405162461bcd60e51b81526004016102da906124c3565b60405180910390fd5b600354610100900460ff16158015610305576003805461ffff19166101011790555b6103118585858561083b565b8015610323576003805461ff00191690555b5050505050565b3373__Library_______________________________6337ea306382600360029054906101000a90046001600160a01b03166001600160a01b031663da3dce266040518163ffffffff1660e01b815260040160206040518083038186803b15801561039457600080fd5b505afa1580156103a8573d6000803e3d6000fd5b505050506040513d601f19601f820116820180604052508101906103cc9190611de3565b6040518363ffffffff1660e01b81526004016103e9929190612361565b60006040518083038186803b15801561040157600080fd5b505af4158015610415573d6000803e3d6000fd5b505050506104248484846108c5565b50505050565b6001610435816108e7565b6006546040516337ea306360e01b8152339173__Library_______________________________916337ea30639161047b9185916001600160a01b031690600401612361565b60006040518083038186803b15801561049357600080fd5b505af41580156104a7573d6000803e3d6000fd5b505050506104b361096b565b6006546005546040519081526001600160a01b03909116907f1fe8aec10c0a50fa765076161e08c1f961ced69594ff45cf7d559f593afe14799060200160405180910390a25050565b600354610100900460ff1680610515575060035460ff16155b6105315760405162461bcd60e51b81526004016102da906124c3565b600354610100900460ff16158015610553576003805461ffff19166101011790555b848461055f8282610996565b61056b898b87876102a5565b6105768888886109de565b5050801561058a576003805461ff00191690555b5050505050505050565b6105a2868686868686610a05565b6105ac8685610b64565b505050505050565b6105be3382610b64565b50565b6060600d805480602002602001604051908101604052809291908181526020016000905b8282101561069157838290600052602060002001805461060490612603565b80601f016020809104026020016040519081016040528092919081815260200182805461063090612603565b801561067d5780601f106106525761010080835404028352916020019161067d565b820191906000526020600020905b81548152906001019060200180831161066057829003601f168201915b5050505050815260200190600101906105e5565b50505050905090565b606080600060018180546106ad90612603565b80601f01602080910402602001604051908101604052809291908181526020018280546106d990612603565b80156107265780601f106106fb57610100808354040283529160200191610726565b820191906000526020600020905b81548152906001019060200180831161070957829003601f168201915b5050505050915080805461073990612603565b80601f016020809104026020016040519081016040528092919081815260200182805461076590612603565b80156107b25780601f10610787576101008083540402835291602001916107b2565b820191906000526020600020905b81548152906001019060200180831161079557829003601f168201915b50505050509050915091509091565b6107ca81610c7b565b6107d2610f13565b60005b815181101561083757600d8282815181106107f2576107f2612669565b602090810291909101810151825460018101845560009384529282902081516108249491909101929190910190611c66565b508061082f81612638565b9150506107d5565b5050565b600354610100900460ff1680610854575060035460ff16155b6108705760405162461bcd60e51b81526004016102da906124c3565b600354610100900460ff16158015610892576003805461ffff19166101011790555b61089b84611267565b600480546001600160a01b0319166001600160a01b0387161790556000600b5561031183836112f5565b6108cd61131c565b1515600114156108e2576108e2838383611356565b505050565b801561092e576108f561131c565b15156001146105be5760405162461bcd60e51b8152602060048201526005602482015264454332352d60d81b60448201526064016102da565b61093661131c565b156105be5760405162461bcd60e51b8152602060048201526005602482015264454332342d60d81b60448201526064016102da565b60006005819055600680546001600160a01b0319169055600781905560088190556009819055600a55565b8160ff16606410156109ba5760405162461bcd60e51b81526004016102da906124a4565b8060ff16606410156108375760405162461bcd60e51b81526004016102da906124a4565b600e92909255600f805460ff9384166101000261ffff199091169390921692909217179055565b81610a0f816114c6565b8684610a1b82826114fd565b6005548814610a545760405162461bcd60e51b8152602060048201526005602482015264454333352d60d81b60448201526064016102da565b60405163432f9a5560e01b815273__SignatureLibrary______________________9063432f9a5590610a9b908c908c908c908c908c908c9060009060019060040161237b565b60206040518083038186803b158015610ab357600080fd5b505af4158015610ac7573d6000803e3d6000fd5b505050506040513d601f19601f82011682018060405250810190610aeb9190612199565b1515600114610b245760405162461bcd60e51b8152602060048201526005602482015264454333322d60d81b60448201526064016102da565b610b5989876001600160a01b03909116600090815260026020908152604080832093835292905220805460ff19166001179055565b505050505050505050565b6001610b6f816108e7565b60055483906000610b808383611559565b905060008111610bba5760405162461bcd60e51b8152602060048201526005602482015264454332332d60d81b60448201526064016102da565b6000610bcb87600560000154611559565b90508515610bf3578060056004016000828254610be89190612593565b90915550610c0d9050565b80600580016000828254610c079190612593565b90915550505b600554610c1b908883611596565b60055460408051918252871515602083015281018290526001600160a01b038816907f50f654d58981575c05e369cb129aeacb01e1b036af429380242cfc5d1a4b743f9060600160405180910390a2610c726115d2565b50505050505050565b73__UintLibrary___________________________634d6550ed73__Library_______________________________63caa8f58984600181518110610cc257610cc2612669565b60200260200101516040518263ffffffff1660e01b8152600401610ce69190612450565b60006040518083038186803b158015610cfe57600080fd5b505af4158015610d12573d6000803e3d6000fd5b505050506040513d6000823e601f3d908101601f19168201604052610d3a9190810190612029565b600081518110610d4c57610d4c612669565b60200260200101516040518263ffffffff1660e01b8152600401610d7291815260200190565b60206040518083038186803b158015610d8a57600080fd5b505af4158015610d9e573d6000803e3d6000fd5b505050506040513d601f19601f82011682018060405250810190610dc29190612242565b73__UintLibrary___________________________634d6550ed73__Library_______________________________63caa8f58985600281518110610e0957610e09612669565b60200260200101516040518263ffffffff1660e01b8152600401610e2d9190612450565b60006040518083038186803b158015610e4557600080fd5b505af4158015610e59573d6000803e3d6000fd5b505050506040513d6000823e601f3d908101601f19168201604052610e819190810190612029565b600081518110610e9357610e93612669565b60200260200101516040518263ffffffff1660e01b8152600401610eb991815260200190565b60206040518083038186803b158015610ed157600080fd5b505af4158015610ee5573d6000803e3d6000fd5b505050506040513d601f19601f82011682018060405250810190610f099190612242565b6108e28282610996565b6000610f1e816108e7565b60045433906000906001600160a01b0316821415610f3e57506001611077565b6000610f49836116a8565b90506000600360029054906101000a90046001600160a01b03166001600160a01b03166387552a0d6040518163ffffffff1660e01b815260040160206040518083038186803b158015610f9b57600080fd5b505afa158015610faf573d6000803e3d6000fd5b505050506040513d601f19601f82011682018060405250810190610fd39190611de3565b6001600160a01b031663b049473f6040518163ffffffff1660e01b815260040160606040518083038186803b15801561100b57600080fd5b505afa15801561101f573d6000803e3d6000fd5b505050506040513d601f19601f8201168201806040525081019061104391906121ff565b9250505060646110516117b1565b61105e9060ff84166125cd565b61106891906125ab565b82111561107457600192505b50505b6001811515146110b15760405162461bcd60e51b8152602060048201526005602482015264454332322d60d81b60448201526064016102da565b600080600360029054906101000a90046001600160a01b03166001600160a01b03166387552a0d6040518163ffffffff1660e01b815260040160206040518083038186803b15801561110257600080fd5b505afa158015611116573d6000803e3d6000fd5b505050506040513d601f19601f8201168201806040525081019061113a9190611de3565b6001600160a01b031663b049473f6040518163ffffffff1660e01b815260040160606040518083038186803b15801561117257600080fd5b505afa158015611186573d6000803e3d6000fd5b505050506040513d601f19601f820116820180604052508101906111aa91906121ff565b50600680546001600160a01b0319163317905590925090506111cc8242612593565b600755606460ff82166111dd6117b1565b6111e791906125cd565b6111f191906125ab565b600855600b8054600581905590600061120983612638565b90915550506006546005546007546008546040516001600160a01b03909416937f472501d19bf75639b2e316cd36f8568b0c3ab943b82a87de3c086c98c1929df9936112589390929091612511565b60405180910390a25050505050565b600354610100900460ff1680611280575060035460ff16155b61129c5760405162461bcd60e51b81526004016102da906124c3565b600354610100900460ff161580156112be576003805461ffff19166101011790555b6003805462010000600160b01b031916620100006001600160a01b038516021790558015610837576003805461ff00191690555050565b8151611308906000906020850190611c66565b5080516108e2906001906020840190611c66565b60075460009042101561132f5750600190565b6006546001600160a01b031615611350576113486118ae565b61135061096b565b50600090565b6001600160a01b0383161580159061139257506005546000908152600c602090815260408083206001600160a01b038716845290915290205415155b156108e2576005546000908152600c602090815260408083206001600160a01b038716845290915290205481908111156113ee57506005546000908152600c602090815260408083206001600160a01b03871684529091529020545b6005546000908152600c602090815260408083206001600160a01b0388168452909152812080548392906114239084906125ec565b90915550506001600160a01b03831615611472576005546000908152600c602090815260408083206001600160a01b03871684529091528120805483929061146c908490612593565b90915550505b600554604080516001600160a01b038088168252861660208201529081018390527f65fbd5e5dd32bea4aeca85bd0be0abf0e489d655dee888a7510d43b06dda2dba9060600160405180910390a250505050565b8042106105be5760405162461bcd60e51b8152602060048201526005602482015264454333332d60d81b60448201526064016102da565b6001600160a01b038216600090815260026020908152604080832084845290915290205460ff16156108375760405162461bcd60e51b8152602060048201526005602482015264454333342d60d81b60448201526064016102da565b6000818152600c602090815260408083206001600160a01b0386168452909152812054611585846116a8565b61158f91906125ec565b9392505050565b6000838152600c602090815260408083206001600160a01b0386168452909152812080548392906115c8908490612593565b9091555050505050565b60085460095410611641576115e56118b6565b6115ed61096b565b600654600554600954600a546040516001600160a01b03909416937f23ca0034cf5aad32571b4a492e9598ea8a490e1643a60970e3cdc6933b55e49f936116379390929091612511565b60405180910390a2565b600854600a54106116a6576116546118ae565b61165c61096b565b600654600554600954600a546040516001600160a01b03909416937fa58eb6daa3c62c3f883973c4035e5bd3e81aa627c8379de068a7de42df122be2936116379390929091612511565b565b6000600360029054906101000a90046001600160a01b03166001600160a01b031663da3dce266040518163ffffffff1660e01b815260040160206040518083038186803b1580156116f857600080fd5b505afa15801561170c573d6000803e3d6000fd5b505050506040513d601f19601f820116820180604052508101906117309190611de3565b6001600160a01b03166370a08231836040518263ffffffff1660e01b815260040161175b919061234d565b60206040518083038186803b15801561177357600080fd5b505afa158015611787573d6000803e3d6000fd5b505050506040513d601f19601f820116820180604052508101906117ab91906121b6565b92915050565b6000600360029054906101000a90046001600160a01b03166001600160a01b031663da3dce266040518163ffffffff1660e01b815260040160206040518083038186803b15801561180157600080fd5b505afa158015611815573d6000803e3d6000fd5b505050506040513d601f19601f820116820180604052508101906118399190611de3565b6001600160a01b03166318160ddd6040518163ffffffff1660e01b815260040160206040518083038186803b15801561187157600080fd5b505afa158015611885573d6000803e3d6000fd5b505050506040513d601f19601f820116820180604052508101906118a991906121b6565b905090565b6116a66118be565b6118ae6118ca565b6116a6600d6000611cea565b60006118d4611b17565b9050600073__UintLibrary___________________________630bd4715e8360008151811061190557611905612669565b60200260200101516040518263ffffffff1660e01b815260040161192b91815260200190565b60206040518083038186803b15801561194357600080fd5b505af4158015611957573d6000803e3d6000fd5b505050506040513d601f19601f8201168201806040525081019061197b91906121b6565b9050600073__UintLibrary___________________________634d6550ed846001815181106119ac576119ac612669565b60200260200101516040518263ffffffff1660e01b81526004016119d291815260200190565b60206040518083038186803b1580156119ea57600080fd5b505af41580156119fe573d6000803e3d6000fd5b505050506040513d601f19601f82011682018060405250810190611a229190612242565b9050600073__UintLibrary___________________________634d6550ed85600281518110611a5357611a53612669565b60200260200101516040518263ffffffff1660e01b8152600401611a7991815260200190565b60206040518083038186803b158015611a9157600080fd5b505af4158015611aa5573d6000803e3d6000fd5b505050506040513d601f19601f82011682018060405250810190611ac99190612242565b9050611ad68383836109de565b7f83deefe7fb1ea73067fb2d8cf1e52c3d0027e44736b48a1ea92352a1096fd8d4838383604051611b0993929190612527565b60405180910390a150505050565b600d546060906000906001600160401b03811115611b3757611b3761267f565b604051908082528060200260200182016040528015611b60578160200160208202803683370190505b50905060005b600d54811015611c605773__Library_______________________________63caa8f589600d8381548110611b9d57611b9d612669565b906000526020600020016040518263ffffffff1660e01b8152600401611bc39190612463565b60006040518083038186803b158015611bdb57600080fd5b505af4158015611bef573d6000803e3d6000fd5b505050506040513d6000823e601f3d908101601f19168201604052611c179190810190612029565b600081518110611c2957611c29612669565b6020026020010151828281518110611c4357611c43612669565b602090810291909101015280611c5881612638565b915050611b66565b50919050565b828054611c7290612603565b90600052602060002090601f016020900481019282611c945760008555611cda565b82601f10611cad57805160ff1916838001178555611cda565b82800160010185558215611cda579182015b82811115611cda578251825591602001919060010190611cbf565b50611ce6929150611d08565b5090565b50805460008255906000526020600020908101906105be9190611d1d565b5b80821115611ce65760008155600101611d09565b80821115611ce6576000611d318282611d3a565b50600101611d1d565b508054611d4690612603565b6000825580601f10611d56575050565b601f0160209004906000526020600020908101906105be9190611d08565b600082601f830112611d8557600080fd5b81356001600160401b03811115611d9e57611d9e61267f565b611db1601f8201601f1916602001612540565b818152846020838601011115611dc657600080fd5b816020850160208301376000918101602001919091529392505050565b600060208284031215611df557600080fd5b815161158f81612695565b60008060008060808587031215611e1657600080fd5b8435611e2181612695565b93506020850135611e3181612695565b925060408501356001600160401b0380821115611e4d57600080fd5b611e5988838901611d74565b93506060870135915080821115611e6f57600080fd5b50611e7c87828801611d74565b91505092959194509250565b600080600060608486031215611e9d57600080fd5b8335611ea881612695565b92506020840135611eb881612695565b929592945050506040919091013590565b600080600080600080600060e0888a031215611ee457600080fd5b8735611eef81612695565b96506020880135611eff81612695565b9550604088013594506060880135611f16816126b8565b93506080880135611f26816126b8565b925060a08801356001600160401b0380821115611f4257600080fd5b611f4e8b838c01611d74565b935060c08a0135915080821115611f6457600080fd5b50611f718a828b01611d74565b91505092959891949750929550565b60008060408385031215611f9357600080fd5b8235611f9e81612695565b946020939093013593505050565b60008060008060008060c08789031215611fc557600080fd5b8635611fd081612695565b9550602087013594506040870135611fe7816126aa565b9350606087013592506080870135915060a08701356001600160401b0381111561201057600080fd5b61201c89828a01611d74565b9150509295509295509295565b6000602080838503121561203c57600080fd5b82516001600160401b0381111561205257600080fd5b8301601f8101851361206357600080fd5b805161207661207182612570565b612540565b80828252848201915084840188868560051b870101111561209657600080fd5b600094505b838510156120b957805183526001949094019391850191850161209b565b50979650505050505050565b600060208083850312156120d857600080fd5b82356001600160401b03808211156120ef57600080fd5b818501915085601f83011261210357600080fd5b813561211161207182612570565b80828252858201915085850189878560051b880101111561213157600080fd5b6000805b8581101561216c5782358781111561214b578283fd5b6121598d8b838c0101611d74565b8652509388019391880191600101612135565b50919a9950505050505050505050565b60006020828403121561218e57600080fd5b813561158f816126aa565b6000602082840312156121ab57600080fd5b815161158f816126aa565b6000602082840312156121c857600080fd5b5051919050565b600080604083850312156121e257600080fd5b8235915060208301356121f481612695565b809150509250929050565b60008060006060848603121561221457600080fd5b835192506020840151612226816126b8565b6040850151909250612237816126b8565b809150509250925092565b60006020828403121561225457600080fd5b815161158f816126b8565b6000815180845260005b8181101561228557602081850181015186830182015201612269565b81811115612297576000602083870101525b50601f01601f19169290920160200192915050565b8054600090600181811c90808316806122c657607f831692505b60208084108214156122e857634e487b7160e01b600052602260045260246000fd5b8388528180156122ff576001811461231357612341565b60ff19861689830152604089019650612341565b876000528160002060005b868110156123395781548b820185015290850190830161231e565b8a0183019750505b50505050505092915050565b6001600160a01b0391909116815260200190565b6001600160a01b0392831681529116602082015260400190565b600061010060018060a01b038b16835289602084015288151560408401528760608401528660808401528060a08401526123b78184018761225f565b905082810360c08401526123cb81866122ac565b905082810360e08401526123df81856122ac565b9b9a5050505050505050505050565b6000602080830181845280855180835260408601915060408160051b870101925083870160005b8281101561244357603f1988860301845261243185835161225f565b94509285019290850190600101612415565b5092979650505050505050565b60208152600061158f602083018461225f565b60208152600061158f60208301846122ac565b604081526000612489604083018561225f565b828103602084015261249b818561225f565b95945050505050565b602080825260059082015264454332312d60d81b604082015260600190565b6020808252602e908201527f496e697469616c697a61626c653a20636f6e747261637420697320616c72656160408201526d191e481a5b9a5d1a585b1a5e995960921b606082015260800190565b9283526020830191909152604082015260600190565b92835260ff918216602084015216604082015260600190565b604051601f8201601f191681016001600160401b03811182821017156125685761256861267f565b604052919050565b60006001600160401b038211156125895761258961267f565b5060051b60200190565b600082198211156125a6576125a6612653565b500190565b6000826125c857634e487b7160e01b600052601260045260246000fd5b500490565b60008160001904831182151516156125e7576125e7612653565b500290565b6000828210156125fe576125fe612653565b500390565b600181811c9082168061261757607f821691505b60208210811415611c6057634e487b7160e01b600052602260045260246000fd5b600060001982141561264c5761264c612653565b5060010190565b634e487b7160e01b600052601160045260246000fd5b634e487b7160e01b600052603260045260246000fd5b634e487b7160e01b600052604160045260246000fd5b6001600160a01b03811681146105be57600080fd5b80151581146105be57600080fd5b60ff811681146105be57600080fdfea2646970667358221220337568a06c19389fbee0cebc667ffc78e2aa857ed6cc18d8630ed6ab39acd8b564736f6c63430008070033",
  "immutableReferences": {},
  "source": "// SPDX-License-Identifier: GPL-3.0\r\n\r\npragma solidity 0.8.7;\r\n\r\n/**\r\n  Events : \r\n    - New Settings Added : list of settings\r\n */\r\n\r\nimport \"../Interfaces/IPropositionSettings.sol\";\r\nimport \"../Libraries/UintLibrary.sol\";\r\nimport \"../Base/StdPropositionBaseContract.sol\";\r\n\r\ncontract PropositionSettings is IPropositionSettings, StdPropositionBaseContract{\r\n    using UintLibrary for *;\r\n\r\n    // EVENTS /////////////////////////////////////////\r\n    event _NewSettings(uint256 LifeTime, uint8 ThresholdPercentage, uint8 minWeightToProposePercentage);\r\n\r\n    // DATA /////////////////////////////////////////\r\n    uint256 internal _LifeTime;\r\n    uint8 internal _ThresholdPerc;\r\n    uint8 internal _minWeightToProposePerc;\r\n\r\n    // MODIFIERS /////////////////////////////////////////\r\n    modifier areSettingsOK(uint8 PropositionThresholdPercentage, uint8 minWeightToProposePercentage){\r\n        areSettingsOKFunc(PropositionThresholdPercentage, minWeightToProposePercentage);\r\n        _;\r\n    }\r\n\r\n    function areSettingsOKFunc(uint8 PropositionThresholdPercentage, uint8 minWeightToProposePercentage) internal pure{\r\n        require(100 >= PropositionThresholdPercentage, \"EC21-\");\r\n        require(100 >= minWeightToProposePercentage, \"EC21-\");\r\n    }\r\n    \r\n    // CONSTRUCTOR /////////////////////////////////////////\r\n    function PropositionSettings_init(address managerContractAddress, address chairPerson, uint256 PropositionLifeTime, uint8 PropositionThresholdPercentage, uint8 minWeightToProposePercentage, string memory contractName, string memory contractVersion) public initializer \r\n        areSettingsOK(PropositionThresholdPercentage, minWeightToProposePercentage)\r\n\r\n    {\r\n        super.StdPropositionBaseContract_init(chairPerson, managerContractAddress, contractName, contractVersion);\r\n        InternalupdateSettings(PropositionLifeTime, PropositionThresholdPercentage, minWeightToProposePercentage);\r\n    }\r\n\r\n    // GOVERNANCE /////////////////////////////////////////\r\n    function checkProposition(bytes[] memory NewValues) internal override \r\n        areSettingsOK(UintLibrary.Bytes32ToUint8(Library.BytestoBytes32(NewValues[1])[0]), UintLibrary.Bytes32ToUint8(Library.BytestoBytes32(NewValues[2])[0]))\r\n    {}\r\n\r\n    function UpdateAll() internal override\r\n    {\r\n        bytes32[] memory ProposedNewValues = PropositionsToBytes32();\r\n\r\n        uint256 PropositionLifeTime = UintLibrary.Bytes32ToUint(ProposedNewValues[0]);\r\n        uint8 PropositionThresholdPercentage = UintLibrary.Bytes32ToUint8(ProposedNewValues[1]);\r\n        uint8 minWeightToProposePercentage = UintLibrary.Bytes32ToUint8(ProposedNewValues[2]);\r\n\r\n        InternalupdateSettings(PropositionLifeTime, PropositionThresholdPercentage, minWeightToProposePercentage);\r\n\r\n        emit _NewSettings(PropositionLifeTime, PropositionThresholdPercentage, minWeightToProposePercentage);\r\n    }\r\n\r\n    function InternalupdateSettings(uint256 PropLifeTime, uint8 PropThresholdPerc, uint8 minWeightToPropPerc) internal\r\n    {\r\n        _LifeTime = PropLifeTime;\r\n        _ThresholdPerc = PropThresholdPerc;\r\n        _minWeightToProposePerc = minWeightToPropPerc;\r\n    }\r\n\r\n    // FUNCTIONALITY /////////////////////////////////////////\r\n    function retrieveSettings() external override view returns(uint256, uint8, uint8)\r\n    {\r\n        return(_LifeTime, _ThresholdPerc, _minWeightToProposePerc);\r\n    }\r\n\r\n\r\n}",
  "sourcePath": "C:/Users/d-aam/GitHub/Certificates/contracts/DeployedContracts/PropositionSettings.sol",
  "compiler": {
    "name": "solc",
    "version": "0.8.7+commit.e28d00a7.Emscripten.clang"
  },
  "schemaVersion": "3.3.4",
  "updatedAt": "2021-11-03T10:08:13.962Z",
  "devdoc": {
    "kind": "dev",
    "methods": {},
    "version": 1
  },
  "userdoc": {
    "kind": "user",
    "methods": {},
    "version": 1
  }
}