{
  "contractName": "Proposals",
  "abi": [
    {
      "inputs": [],
      "stateMutability": "payable",
      "type": "constructor"
    },
    {
      "anonymous": false,
      "inputs": [
        {
          "indexed": false,
          "internalType": "address",
          "name": "",
          "type": "address"
        }
      ],
      "name": "_ApproveProposalId",
      "type": "event"
    },
    {
      "anonymous": false,
      "inputs": [
        {
          "indexed": false,
          "internalType": "address",
          "name": "",
          "type": "address"
        }
      ],
      "name": "_RejectProposalId",
      "type": "event"
    },
    {
      "anonymous": false,
      "inputs": [
        {
          "indexed": false,
          "internalType": "address",
          "name": "",
          "type": "address"
        }
      ],
      "name": "_SendProposalId",
      "type": "event"
    },
    {
      "inputs": [
        {
          "internalType": "address",
          "name": "",
          "type": "address"
        }
      ],
      "name": "_proposals",
      "outputs": [
        {
          "internalType": "enum Proposals.proposalState",
          "name": "_state",
          "type": "uint8"
        },
        {
          "internalType": "string",
          "name": "_providerInfo",
          "type": "string"
        }
      ],
      "stateMutability": "view",
      "type": "function"
    },
    {
      "inputs": [
        {
          "internalType": "address",
          "name": "provider",
          "type": "address"
        },
        {
          "internalType": "string",
          "name": "providerInfo",
          "type": "string"
        }
      ],
      "name": "sendProposal",
      "outputs": [],
      "stateMutability": "payable",
      "type": "function"
    },
    {
      "inputs": [
        {
          "internalType": "address",
          "name": "provider",
          "type": "address"
        }
      ],
      "name": "approveProposal",
      "outputs": [],
      "stateMutability": "nonpayable",
      "type": "function"
    },
    {
      "inputs": [
        {
          "internalType": "address",
          "name": "provider",
          "type": "address"
        }
      ],
      "name": "rejectProposal",
      "outputs": [],
      "stateMutability": "nonpayable",
      "type": "function"
    },
    {
      "inputs": [
        {
          "internalType": "address",
          "name": "provider",
          "type": "address"
        }
      ],
      "name": "retrieveProposal",
      "outputs": [
        {
          "internalType": "uint256",
          "name": "",
          "type": "uint256"
        },
        {
          "internalType": "string",
          "name": "",
          "type": "string"
        }
      ],
      "stateMutability": "view",
      "type": "function"
    },
    {
      "inputs": [],
      "name": "retrieveCertificatesContractAddress",
      "outputs": [
        {
          "internalType": "contract Certificates",
          "name": "",
          "type": "address"
        }
      ],
      "stateMutability": "view",
      "type": "function"
    },
    {
      "inputs": [],
      "name": "retrieveChairPerson",
      "outputs": [
        {
          "internalType": "address",
          "name": "",
          "type": "address"
        }
      ],
      "stateMutability": "view",
      "type": "function"
    }
  ],
  "bytecode": "0x608060405233600160006101000a81548173ffffffffffffffffffffffffffffffffffffffff021916908373ffffffffffffffffffffffffffffffffffffffff1602179055506003339080600181540180825580915050600190039060005260206000200160009091909190916101000a81548173ffffffffffffffffffffffffffffffffffffffff021916908373ffffffffffffffffffffffffffffffffffffffff16021790555060036040516100b690610195565b8080602001828103825283818154815260200191508054801561012e57602002820191906000526020600020905b8160009054906101000a900473ffffffffffffffffffffffffffffffffffffffff1673ffffffffffffffffffffffffffffffffffffffff16815260200190600101908083116100e4575b505092505050604051809103906000f080158015610150573d6000803e3d6000fd5b506000806101000a81548173ffffffffffffffffffffffffffffffffffffffff021916908373ffffffffffffffffffffffffffffffffffffffff1602179055506101a2565b6133868061125e83390190565b6110ad806101b16000396000f3fe6080604052600436106100705760003560e01c8063858e7ce61161004e578063858e7ce6146101e3578063cddab28b146102be578063db85bc4d1461030f578063efec414b1461035057610070565b806303354faa146100755780633bd2993c146100c65780634f3f6c2914610107575b600080fd5b34801561008157600080fd5b506100c46004803603602081101561009857600080fd5b81019080803573ffffffffffffffffffffffffffffffffffffffff169060200190929190505050610421565b005b3480156100d257600080fd5b506100db6107de565b604051808273ffffffffffffffffffffffffffffffffffffffff16815260200191505060405180910390f35b34801561011357600080fd5b506101566004803603602081101561012a57600080fd5b81019080803573ffffffffffffffffffffffffffffffffffffffff169060200190929190505050610807565b6040518083600381111561016657fe5b815260200180602001828103825283818151815260200191508051906020019080838360005b838110156101a757808201518184015260208101905061018c565b50505050905090810190601f1680156101d45780820380516001836020036101000a031916815260200191505b50935050505060405180910390f35b6102bc600480360360408110156101f957600080fd5b81019080803573ffffffffffffffffffffffffffffffffffffffff1690602001909291908035906020019064010000000081111561023657600080fd5b82018360208201111561024857600080fd5b8035906020019184600183028401116401000000008311171561026a57600080fd5b91908080601f016020809104026020016040519081016040528093929190818152602001838380828437600081840152601f19601f8201169050808301925050505050505091929192905050506108d0565b005b3480156102ca57600080fd5b5061030d600480360360208110156102e157600080fd5b81019080803573ffffffffffffffffffffffffffffffffffffffff169060200190929190505050610b2e565b005b34801561031b57600080fd5b50610324610d80565b604051808273ffffffffffffffffffffffffffffffffffffffff16815260200191505060405180910390f35b34801561035c57600080fd5b5061039f6004803603602081101561037357600080fd5b81019080803573ffffffffffffffffffffffffffffffffffffffff169060200190929190505050610daa565b6040518083815260200180602001828103825283818151815260200191508051906020019080838360005b838110156103e55780820151818401526020810190506103ca565b50505050905090810190601f1680156104125780820380516001836020036101000a031916815260200191505b50935050505060405180910390f35b600160009054906101000a900473ffffffffffffffffffffffffffffffffffffffff1673ffffffffffffffffffffffffffffffffffffffff163373ffffffffffffffffffffffffffffffffffffffff16146104e4576040517f08c379a00000000000000000000000000000000000000000000000000000000081526004018080602001828103825260208152602001807f4e6f7420616c6c6f77656420746f20617070726f76652070726f706f73616c7381525060200191505060405180910390fd5b600260008273ffffffffffffffffffffffffffffffffffffffff1673ffffffffffffffffffffffffffffffffffffffff16815260200190815260200160002060000160009054906101000a900460ff16600381111561053f57fe5b6001600381111561054c57fe5b146105bf576040517f08c379a00000000000000000000000000000000000000000000000000000000081526004018080602001828103825260208152602001807f546869732070726f706f73616c2063616e6e6f74206265206d6f64696669656481525060200191505060405180910390fd5b60028060008373ffffffffffffffffffffffffffffffffffffffff1673ffffffffffffffffffffffffffffffffffffffff16815260200190815260200160002060000160006101000a81548160ff0219169083600381111561061d57fe5b021790555060008054906101000a900473ffffffffffffffffffffffffffffffffffffffff1673ffffffffffffffffffffffffffffffffffffffff1663fc00050082600260008573ffffffffffffffffffffffffffffffffffffffff1673ffffffffffffffffffffffffffffffffffffffff1681526020019081526020016000206001016040518363ffffffff1660e01b8152600401808373ffffffffffffffffffffffffffffffffffffffff168152602001806020018281038252838181546001816001161561010002031660029004815260200191508054600181600116156101000203166002900480156107555780601f1061072a57610100808354040283529160200191610755565b820191906000526020600020905b81548152906001019060200180831161073857829003601f168201915b50509350505050600060405180830381600087803b15801561077657600080fd5b505af115801561078a573d6000803e3d6000fd5b505050507f177c08bb2a258cee1a3d193682dd89fb318e12d135f68b304a183e2576168acc81604051808273ffffffffffffffffffffffffffffffffffffffff16815260200191505060405180910390a150565b60008060009054906101000a900473ffffffffffffffffffffffffffffffffffffffff16905090565b60026020528060005260406000206000915090508060000160009054906101000a900460ff1690806001018054600181600116156101000203166002900480601f0160208091040260200160405190810160405280929190818152602001828054600181600116156101000203166002900480156108c65780601f1061089b576101008083540402835291602001916108c6565b820191906000526020600020905b8154815290600101906020018083116108a957829003601f168201915b5050505050905082565b600a341015610947576040517f08c379a00000000000000000000000000000000000000000000000000000000081526004018080602001828103825260108152602001807f4e6f7420656e6f7567682066756e64730000000000000000000000000000000081525060200191505060405180910390fd5b600260008373ffffffffffffffffffffffffffffffffffffffff1673ffffffffffffffffffffffffffffffffffffffff16815260200190815260200160002060000160009054906101000a900460ff1660038111156109a257fe5b600060038111156109af57fe5b14610a22576040517f08c379a000000000000000000000000000000000000000000000000000000000815260040180806020018281038252601a8152602001807f50726f706f73616c20616c7265616479207375626d697474656400000000000081525060200191505060405180910390fd5b6001600260008473ffffffffffffffffffffffffffffffffffffffff1673ffffffffffffffffffffffffffffffffffffffff16815260200190815260200160002060000160006101000a81548160ff02191690836003811115610a8157fe5b021790555080600260008473ffffffffffffffffffffffffffffffffffffffff1673ffffffffffffffffffffffffffffffffffffffff1681526020019081526020016000206001019080519060200190610adc929190610fcc565b507fbaf065d025fe427c7c36f893bdec1c49e6c164c4a6531f4216f64e6e876a9a4f82604051808273ffffffffffffffffffffffffffffffffffffffff16815260200191505060405180910390a15050565b600160009054906101000a900473ffffffffffffffffffffffffffffffffffffffff1673ffffffffffffffffffffffffffffffffffffffff163373ffffffffffffffffffffffffffffffffffffffff1614610bf1576040517f08c379a000000000000000000000000000000000000000000000000000000000815260040180806020018281038252601f8152602001807f4e6f7420616c6c6f77656420746f2072656a6563742070726f706f73616c730081525060200191505060405180910390fd5b600260008273ffffffffffffffffffffffffffffffffffffffff1673ffffffffffffffffffffffffffffffffffffffff16815260200190815260200160002060000160009054906101000a900460ff166003811115610c4c57fe5b60016003811115610c5957fe5b14610ccc576040517f08c379a00000000000000000000000000000000000000000000000000000000081526004018080602001828103825260208152602001807f546869732070726f706f73616c2063616e6e6f74206265206d6f64696669656481525060200191505060405180910390fd5b6003600260008373ffffffffffffffffffffffffffffffffffffffff1673ffffffffffffffffffffffffffffffffffffffff16815260200190815260200160002060000160006101000a81548160ff02191690836003811115610d2b57fe5b02179055507fcc3f9ae01bdc82f13971bfb71fc93d203b797e70714c5c6c2abda1b9e302b19c81604051808273ffffffffffffffffffffffffffffffffffffffff16815260200191505060405180910390a150565b6000600160009054906101000a900473ffffffffffffffffffffffffffffffffffffffff16905090565b60006060600260008473ffffffffffffffffffffffffffffffffffffffff1673ffffffffffffffffffffffffffffffffffffffff16815260200190815260200160002060000160009054906101000a900460ff166003811115610e0957fe5b60006003811115610e1657fe5b1415610e8a576040517f08c379a000000000000000000000000000000000000000000000000000000000815260040180806020018281038252601c8152602001807f546869732070726f706f73616c20646f6573206e6f742065786973740000000081525060200191505060405180910390fd5b600260008473ffffffffffffffffffffffffffffffffffffffff1673ffffffffffffffffffffffffffffffffffffffff16815260200190815260200160002060000160009054906101000a900460ff166003811115610ee557fe5b600260008573ffffffffffffffffffffffffffffffffffffffff1673ffffffffffffffffffffffffffffffffffffffff168152602001908152602001600020600101808054600181600116156101000203166002900480601f016020809104026020016040519081016040528092919081815260200182805460018160011615610100020316600290048015610fbc5780601f10610f9157610100808354040283529160200191610fbc565b820191906000526020600020905b815481529060010190602001808311610f9f57829003601f168201915b5050505050905091509150915091565b828054600181600116156101000203166002900490600052602060002090601f0160209004810192826110025760008555611049565b82601f1061101b57805160ff1916838001178555611049565b82800160010185558215611049579182015b8281111561104857825182559160200191906001019061102d565b5b509050611056919061105a565b5090565b5b8082111561107357600081600090555060010161105b565b509056fea2646970667358221220b9ef42f92e583c652dcbf64ca41d720dd240b93dc5dba245842f7503286b076664736f6c6343000706003360806040526040516200338638038062003386833981810160405260208110156200002957600080fd5b81019080805160405193929190846401000000008211156200004a57600080fd5b838201915060208201858111156200006157600080fd5b82518660208202830111640100000000821117156200007f57600080fd5b8083526020830192505050908051906020019060200280838360005b83811015620000b85780820151818401526020810190506200009b565b50505050905001604052505050336000806101000a81548173ffffffffffffffffffffffffffffffffffffffff021916908373ffffffffffffffffffffffffffffffffffffffff1602179055506001600460003373ffffffffffffffffffffffffffffffffffffffff1673ffffffffffffffffffffffffffffffffffffffff16815260200190815260200160002060006101000a81548160ff021916908315150217905550600160058190555060005b81518110156200026c57600460008383815181106200018357fe5b602002602001015173ffffffffffffffffffffffffffffffffffffffff1673ffffffffffffffffffffffffffffffffffffffff16815260200190815260200160002060009054906101000a900460ff1615156000151514156200025e57600160046000848481518110620001f357fe5b602002602001015173ffffffffffffffffffffffffffffffffffffffff1673ffffffffffffffffffffffffffffffffffffffff16815260200190815260200160002060006101000a81548160ff02191690831515021790555060016005600082825401925050819055505b808060010191505062000168565b5060006002819055505061310080620002866000396000f3fe608060405234801561001057600080fd5b50600436106101215760003560e01c806382ff66a3116100ad578063bf3a5c0211610071578063bf3a5c0214610ad1578063d744d2f314610b2b578063eefe768114610b49578063fc00050014610b67578063fd90ae7614610c4257610121565b806382ff66a31461058457806383ce57b31461078d5780638a355a57146107c15780639a90be9e146108055780639df66528146108be57610121565b806337583499116100f457806337583499146103175780633bc6fe0e146103d45780636e55d2d4146104225780637065cb481461047a578063769d7235146104be57610121565b80631270db7a146101265780631660c22a1461019e578063173825d9146102795780632f54bf6e146102bd575b600080fd5b6101886004803603604081101561013c57600080fd5b81019080803573ffffffffffffffffffffffffffffffffffffffff169060200190929190803573ffffffffffffffffffffffffffffffffffffffff169060200190929190505050610dfe565b6040518082815260200191505060405180910390f35b610277600480360360408110156101b457600080fd5b81019080803573ffffffffffffffffffffffffffffffffffffffff169060200190929190803590602001906401000000008111156101f157600080fd5b82018360208201111561020357600080fd5b8035906020019184600183028401116401000000008311171561022557600080fd5b91908080601f016020809104026020016040519081016040528093929190818152602001838380828437600081840152601f19601f820116905080830192505050505050509192919290505050610f20565b005b6102bb6004803603602081101561028f57600080fd5b81019080803573ffffffffffffffffffffffffffffffffffffffff169060200190929190505050611140565b005b6102ff600480360360208110156102d357600080fd5b81019080803573ffffffffffffffffffffffffffffffffffffffff16906020019092919050505061138e565b60405180821515815260200191505060405180910390f35b6103596004803603602081101561032d57600080fd5b81019080803573ffffffffffffffffffffffffffffffffffffffff1690602001909291905050506113e4565b6040518080602001828103825283818151815260200191508051906020019080838360005b8381101561039957808201518184015260208101905061037e565b50505050905090810190601f1680156103c65780820380516001836020036101000a031916815260200191505b509250505060405180910390f35b610420600480360360408110156103ea57600080fd5b8101908080359060200190929190803573ffffffffffffffffffffffffffffffffffffffff169060200190929190505050611591565b005b6104646004803603602081101561043857600080fd5b81019080803573ffffffffffffffffffffffffffffffffffffffff169060200190929190505050611927565b6040518082815260200191505060405180910390f35b6104bc6004803603602081101561049057600080fd5b81019080803573ffffffffffffffffffffffffffffffffffffffff169060200190929190505050611973565b005b610500600480360360208110156104d457600080fd5b81019080803573ffffffffffffffffffffffffffffffffffffffff169060200190929190505050611bc1565b60405180831515815260200180602001828103825283818151815260200191508051906020019080838360005b8381101561054857808201518184015260208101905061052d565b50505050905090810190601f1680156105755780820380516001836020036101000a031916815260200191505b50935050505060405180910390f35b61078b6004803603608081101561059a57600080fd5b81019080803590602001906401000000008111156105b757600080fd5b8201836020820111156105c957600080fd5b803590602001918460018302840111640100000000831117156105eb57600080fd5b91908080601f016020809104026020016040519081016040528093929190818152602001838380828437600081840152601f19601f8201169050808301925050505050505091929192908035906020019064010000000081111561064e57600080fd5b82018360208201111561066057600080fd5b8035906020019184600183028401116401000000008311171561068257600080fd5b91908080601f016020809104026020016040519081016040528093929190818152602001838380828437600081840152601f19601f820116905080830192505050505050509192919290803590602001906401000000008111156106e557600080fd5b8201836020820111156106f757600080fd5b8035906020019184600183028401116401000000008311171561071957600080fd5b91908080601f016020809104026020016040519081016040528093929190818152602001838380828437600081840152601f19601f820116905080830192505050505050509192919290803573ffffffffffffffffffffffffffffffffffffffff169060200190929190505050611c8a565b005b610795611fe6565b604051808273ffffffffffffffffffffffffffffffffffffffff16815260200191505060405180910390f35b610803600480360360208110156107d757600080fd5b81019080803573ffffffffffffffffffffffffffffffffffffffff16906020019092919050505061200f565b005b6108676004803603604081101561081b57600080fd5b81019080803573ffffffffffffffffffffffffffffffffffffffff169060200190929190803573ffffffffffffffffffffffffffffffffffffffff169060200190929190505050612243565b6040518080602001828103825283818151815260200191508051906020019060200280838360005b838110156108aa57808201518184015260208101905061088f565b505050509050019250505060405180910390f35b610acf600480360360a08110156108d457600080fd5b8101908080359060200190929190803573ffffffffffffffffffffffffffffffffffffffff1690602001909291908035906020019064010000000081111561091b57600080fd5b82018360208201111561092d57600080fd5b8035906020019184600183028401116401000000008311171561094f57600080fd5b91908080601f016020809104026020016040519081016040528093929190818152602001838380828437600081840152601f19601f820116905080830192505050505050509192919290803590602001906401000000008111156109b257600080fd5b8201836020820111156109c457600080fd5b803590602001918460018302840111640100000000831117156109e657600080fd5b91908080601f016020809104026020016040519081016040528093929190818152602001838380828437600081840152601f19601f82011690508083019250505050505050919291929080359060200190640100000000811115610a4957600080fd5b820183602082011115610a5b57600080fd5b80359060200191846001830284011164010000000083111715610a7d57600080fd5b91908080601f016020809104026020016040519081016040528093929190818152602001838380828437600081840152601f19601f8201169050808301925050505050505091929192905050506123cf565b005b610b1360048036036020811015610ae757600080fd5b81019080803573ffffffffffffffffffffffffffffffffffffffff1690602001909291905050506127eb565b60405180821515815260200191505060405180910390f35b610b3361280b565b6040518082815260200191505060405180910390f35b610b51612815565b6040518082815260200191505060405180910390f35b610c4060048036036040811015610b7d57600080fd5b81019080803573ffffffffffffffffffffffffffffffffffffffff16906020019092919080359060200190640100000000811115610bba57600080fd5b820183602082011115610bcc57600080fd5b80359060200191846001830284011164010000000083111715610bee57600080fd5b91908080601f016020809104026020016040519081016040528093929190818152602001838380828437600081840152601f19601f82011690508083019250505050505050919291929050505061281f565b005b610c8e60048036036040811015610c5857600080fd5b8101908080359060200190929190803573ffffffffffffffffffffffffffffffffffffffff169060200190929190505050612a6f565b604051808573ffffffffffffffffffffffffffffffffffffffff168152602001806020018060200180602001848103845287818151815260200191508051906020019080838360005b83811015610cf2578082015181840152602081019050610cd7565b50505050905090810190601f168015610d1f5780820380516001836020036101000a031916815260200191505b50848103835286818151815260200191508051906020019080838360005b83811015610d58578082015181840152602081019050610d3d565b50505050905090810190601f168015610d855780820380516001836020036101000a031916815260200191505b50848103825285818151815260200191508051906020019080838360005b83811015610dbe578082015181840152602081019050610da3565b50505050905090810190601f168015610deb5780820380516001836020036101000a031916815260200191505b5097505050505050505060405180910390f35b6000806000905060005b600360008573ffffffffffffffffffffffffffffffffffffffff1673ffffffffffffffffffffffffffffffffffffffff16815260200190815260200160002080549050811015610f15578473ffffffffffffffffffffffffffffffffffffffff16600360008673ffffffffffffffffffffffffffffffffffffffff1673ffffffffffffffffffffffffffffffffffffffff1681526020019081526020016000208281548110610eb357fe5b906000526020600020906004020160000160009054906101000a900473ffffffffffffffffffffffffffffffffffffffff1673ffffffffffffffffffffffffffffffffffffffff161415610f08576001820191505b8080600101915050610e08565b508091505092915050565b600460003373ffffffffffffffffffffffffffffffffffffffff1673ffffffffffffffffffffffffffffffffffffffff16815260200190815260200160002060009054906101000a900460ff161515600115151480610faa57508173ffffffffffffffffffffffffffffffffffffffff163373ffffffffffffffffffffffffffffffffffffffff16145b61101c576040517f08c379a000000000000000000000000000000000000000000000000000000000815260040180806020018281038252601f8152602001807f4e6f7420616c6c6f77656420746f207570646174652070726f7669646572730081525060200191505060405180910390fd5b600160008373ffffffffffffffffffffffffffffffffffffffff1673ffffffffffffffffffffffffffffffffffffffff16815260200190815260200160002060000160009054906101000a900460ff16151560011515146110e5576040517f08c379a00000000000000000000000000000000000000000000000000000000081526004018080602001828103825260168152602001807f50726f7669646572206e6f74206163746976617465640000000000000000000081525060200191505060405180910390fd5b80600160008473ffffffffffffffffffffffffffffffffffffffff1673ffffffffffffffffffffffffffffffffffffffff168152602001908152602001600020600101908051906020019061113b929190612e9f565b505050565b600460003373ffffffffffffffffffffffffffffffffffffffff1673ffffffffffffffffffffffffffffffffffffffff16815260200190815260200160002060009054906101000a900460ff1615156001151514806111ea575060008054906101000a900473ffffffffffffffffffffffffffffffffffffffff1673ffffffffffffffffffffffffffffffffffffffff163373ffffffffffffffffffffffffffffffffffffffff16145b61125c576040517f08c379a000000000000000000000000000000000000000000000000000000000815260040180806020018281038252601c8152602001807f4e6f7420616c6c6f77656420746f2072656d6f7665206f776e6572730000000081525060200191505060405180910390fd5b600460008273ffffffffffffffffffffffffffffffffffffffff1673ffffffffffffffffffffffffffffffffffffffff16815260200190815260200160002060009054906101000a900460ff1615156001151514611322576040517f08c379a000000000000000000000000000000000000000000000000000000000815260040180806020018281038252601a8152602001807f4f776e657220616c72656164792064652d61637469766174656400000000000081525060200191505060405180910390fd5b6000600460008373ffffffffffffffffffffffffffffffffffffffff1673ffffffffffffffffffffffffffffffffffffffff16815260200190815260200160002060006101000a81548160ff021916908315150217905550600160056000828254039250508190555050565b6000600460008373ffffffffffffffffffffffffffffffffffffffff1673ffffffffffffffffffffffffffffffffffffffff16815260200190815260200160002060009054906101000a900460ff169050919050565b6060600160008373ffffffffffffffffffffffffffffffffffffffff1673ffffffffffffffffffffffffffffffffffffffff16815260200190815260200160002060000160009054906101000a900460ff16151560011515146114af576040517f08c379a00000000000000000000000000000000000000000000000000000000081526004018080602001828103825260178152602001807f50726f766964657220646f6573206e6f7420657869737400000000000000000081525060200191505060405180910390fd5b600160008373ffffffffffffffffffffffffffffffffffffffff1673ffffffffffffffffffffffffffffffffffffffff1681526020019081526020016000206001018054600181600116156101000203166002900480601f0160208091040260200160405190810160405280929190818152602001828054600181600116156101000203166002900480156115855780601f1061155a57610100808354040283529160200191611585565b820191906000526020600020905b81548152906001019060200180831161156857829003601f168201915b50505050509050919050565b600360008273ffffffffffffffffffffffffffffffffffffffff1673ffffffffffffffffffffffffffffffffffffffff168152602001908152602001600020805490508210611648576040517f08c379a000000000000000000000000000000000000000000000000000000000815260040180806020018281038252601a8152602001807f436572746966696361746520646f6573206e6f7420657869737400000000000081525060200191505060405180910390fd5b600360008273ffffffffffffffffffffffffffffffffffffffff1673ffffffffffffffffffffffffffffffffffffffff168152602001908152602001600020828154811061169257fe5b906000526020600020906004020160000160009054906101000a900473ffffffffffffffffffffffffffffffffffffffff1673ffffffffffffffffffffffffffffffffffffffff163373ffffffffffffffffffffffffffffffffffffffff16148061172857508073ffffffffffffffffffffffffffffffffffffffff163373ffffffffffffffffffffffffffffffffffffffff16145b61177d576040517f08c379a000000000000000000000000000000000000000000000000000000000815260040180806020018281038252603181526020018061309a6031913960400191505060405180910390fd5b6000600360008373ffffffffffffffffffffffffffffffffffffffff1673ffffffffffffffffffffffffffffffffffffffff16815260200190815260200160002083815481106117c957fe5b906000526020600020906004020160000160009054906101000a900473ffffffffffffffffffffffffffffffffffffffff169050600360008373ffffffffffffffffffffffffffffffffffffffff1673ffffffffffffffffffffffffffffffffffffffff168152602001908152602001600020838154811061184757fe5b9060005260206000209060040201600080820160006101000a81549073ffffffffffffffffffffffffffffffffffffffff021916905560018201600061188d9190612f2d565b60028201600061189d9190612f2d565b6003820160006118ad9190612f75565b50507f709d6b1b4d6f0b57a9f43c17f08c02648af8d37929b58caa594a4b03b8424687818385604051808473ffffffffffffffffffffffffffffffffffffffff1681526020018373ffffffffffffffffffffffffffffffffffffffff168152602001828152602001935050505060405180910390a1505050565b6000600360008373ffffffffffffffffffffffffffffffffffffffff1673ffffffffffffffffffffffffffffffffffffffff168152602001908152602001600020805490509050919050565b600460003373ffffffffffffffffffffffffffffffffffffffff1673ffffffffffffffffffffffffffffffffffffffff16815260200190815260200160002060009054906101000a900460ff161515600115151480611a1d575060008054906101000a900473ffffffffffffffffffffffffffffffffffffffff1673ffffffffffffffffffffffffffffffffffffffff163373ffffffffffffffffffffffffffffffffffffffff16145b611a8f576040517f08c379a00000000000000000000000000000000000000000000000000000000081526004018080602001828103825260198152602001807f4e6f7420616c6c6f77656420746f20616464206f776e6572730000000000000081525060200191505060405180910390fd5b600460008273ffffffffffffffffffffffffffffffffffffffff1673ffffffffffffffffffffffffffffffffffffffff16815260200190815260200160002060009054906101000a900460ff1615156000151514611b55576040517f08c379a00000000000000000000000000000000000000000000000000000000081526004018080602001828103825260178152602001807f4f776e657220616c72656164792061637469766174656400000000000000000081525060200191505060405180910390fd5b6001600460008373ffffffffffffffffffffffffffffffffffffffff1673ffffffffffffffffffffffffffffffffffffffff16815260200190815260200160002060006101000a81548160ff021916908315150217905550600160056000828254019250508190555050565b60016020528060005260406000206000915090508060000160009054906101000a900460ff1690806001018054600181600116156101000203166002900480601f016020809104026020016040519081016040528092919081815260200182805460018160011615610100020316600290048015611c805780601f10611c5557610100808354040283529160200191611c80565b820191906000526020600020905b815481529060010190602001808311611c6357829003601f168201915b5050505050905082565b600160003373ffffffffffffffffffffffffffffffffffffffff1673ffffffffffffffffffffffffffffffffffffffff16815260200190815260200160002060000160009054906101000a900460ff1615156001151514611d53576040517f08c379a000000000000000000000000000000000000000000000000000000000815260040180806020018281038252601f8152602001807f4e6f7420616c6c6f77656420746f20616464204365727469666963617465730081525060200191505060405180910390fd5b81516000108015611d715750825160001080611d70575083516000105b5b611de3576040517f08c379a00000000000000000000000000000000000000000000000000000000081526004018080602001828103825260148152602001807f436572746966696361746520697320656d70747900000000000000000000000081525060200191505060405180910390fd5b600360008273ffffffffffffffffffffffffffffffffffffffff1673ffffffffffffffffffffffffffffffffffffffff16815260200190815260200160002060405180608001604052803373ffffffffffffffffffffffffffffffffffffffff16815260200186815260200185815260200184815250908060018154018082558091505060019003906000526020600020906004020160009091909190915060008201518160000160006101000a81548173ffffffffffffffffffffffffffffffffffffffff021916908373ffffffffffffffffffffffffffffffffffffffff1602179055506020820151816001019080519060200190611ee5929190612e9f565b506040820151816002019080519060200190611f02929190612e9f565b506060820151816003019080519060200190611f1f929190612fbd565b50505060006001600360008473ffffffffffffffffffffffffffffffffffffffff1673ffffffffffffffffffffffffffffffffffffffff168152602001908152602001600020805490500390507f76f4df91a34263fc533728c4689dd106f547d04117b44c2f5606efdbc184bdde338383604051808473ffffffffffffffffffffffffffffffffffffffff1681526020018373ffffffffffffffffffffffffffffffffffffffff168152602001828152602001935050505060405180910390a15050505050565b60008060009054906101000a900473ffffffffffffffffffffffffffffffffffffffff16905090565b600460003373ffffffffffffffffffffffffffffffffffffffff1673ffffffffffffffffffffffffffffffffffffffff16815260200190815260200160002060009054906101000a900460ff16151560011515148061209957508073ffffffffffffffffffffffffffffffffffffffff163373ffffffffffffffffffffffffffffffffffffffff16145b61210b576040517f08c379a000000000000000000000000000000000000000000000000000000000815260040180806020018281038252601f8152602001807f4e6f7420616c6c6f77656420746f2072656d6f76652070726f7669646572730081525060200191505060405180910390fd5b600160008273ffffffffffffffffffffffffffffffffffffffff1673ffffffffffffffffffffffffffffffffffffffff16815260200190815260200160002060000160009054906101000a900460ff16151560011515146121d4576040517f08c379a00000000000000000000000000000000000000000000000000000000081526004018080602001828103825260168152602001807f50726f7669646572206e6f74206163746976617465640000000000000000000081525060200191505060405180910390fd5b6000600160008373ffffffffffffffffffffffffffffffffffffffff1673ffffffffffffffffffffffffffffffffffffffff16815260200190815260200160002060000160006101000a81548160ff021916908315150217905550600160026000828254039250508190555050565b606060006122518484610dfe565b67ffffffffffffffff8111801561226757600080fd5b506040519080825280602002602001820160405280156122965781602001602082028036833780820191505090505b5090506000805b600360008673ffffffffffffffffffffffffffffffffffffffff1673ffffffffffffffffffffffffffffffffffffffff168152602001908152602001600020805490508110156123c3578573ffffffffffffffffffffffffffffffffffffffff16600360008773ffffffffffffffffffffffffffffffffffffffff1673ffffffffffffffffffffffffffffffffffffffff168152602001908152602001600020828154811061234857fe5b906000526020600020906004020160000160009054906101000a900473ffffffffffffffffffffffffffffffffffffffff1673ffffffffffffffffffffffffffffffffffffffff1614156123b657808383815181106123a357fe5b6020026020010181815250506001820191505b808060010191505061229d565b50819250505092915050565b600360008573ffffffffffffffffffffffffffffffffffffffff1673ffffffffffffffffffffffffffffffffffffffff168152602001908152602001600020805490508510612486576040517f08c379a000000000000000000000000000000000000000000000000000000000815260040180806020018281038252601a8152602001807f436572746966696361746520646f6573206e6f7420657869737400000000000081525060200191505060405180910390fd5b600360008573ffffffffffffffffffffffffffffffffffffffff1673ffffffffffffffffffffffffffffffffffffffff16815260200190815260200160002085815481106124d057fe5b906000526020600020906004020160000160009054906101000a900473ffffffffffffffffffffffffffffffffffffffff1673ffffffffffffffffffffffffffffffffffffffff163373ffffffffffffffffffffffffffffffffffffffff1614612585576040517f08c379a00000000000000000000000000000000000000000000000000000000081526004018080602001828103825260318152602001806130696031913960400191505060405180910390fd5b8251600010156126005782600360008673ffffffffffffffffffffffffffffffffffffffff1673ffffffffffffffffffffffffffffffffffffffff16815260200190815260200160002086815481106125da57fe5b906000526020600020906004020160010190805190602001906125fe929190612e9f565b505b81516000101561267b5781600360008673ffffffffffffffffffffffffffffffffffffffff1673ffffffffffffffffffffffffffffffffffffffff168152602001908152602001600020868154811061265557fe5b90600052602060002090600402016002019080519060200190612679929190612e9f565b505b8051600010156126f65780600360008673ffffffffffffffffffffffffffffffffffffffff1673ffffffffffffffffffffffffffffffffffffffff16815260200190815260200160002086815481106126d057fe5b906000526020600020906004020160030190805190602001906126f4929190612fbd565b505b7f736a6334743f8e5fff8d835332a115f2c34c1bbf6e2384459e1a24e0540bd47c600360008673ffffffffffffffffffffffffffffffffffffffff1673ffffffffffffffffffffffffffffffffffffffff168152602001908152602001600020868154811061276157fe5b906000526020600020906004020160000160009054906101000a900473ffffffffffffffffffffffffffffffffffffffff168587604051808473ffffffffffffffffffffffffffffffffffffffff1681526020018373ffffffffffffffffffffffffffffffffffffffff168152602001828152602001935050505060405180910390a15050505050565b60046020528060005260406000206000915054906101000a900460ff1681565b6000600254905090565b6000600554905090565b60008054906101000a900473ffffffffffffffffffffffffffffffffffffffff1673ffffffffffffffffffffffffffffffffffffffff163373ffffffffffffffffffffffffffffffffffffffff16146128e0576040517f08c379a000000000000000000000000000000000000000000000000000000000815260040180806020018281038252601c8152602001807f4e6f7420616c6c6f77656420746f206164642070726f7669646572730000000081525060200191505060405180910390fd5b600160008373ffffffffffffffffffffffffffffffffffffffff1673ffffffffffffffffffffffffffffffffffffffff16815260200190815260200160002060000160009054906101000a900460ff16151560001515146129a9576040517f08c379a000000000000000000000000000000000000000000000000000000000815260040180806020018281038252601a8152602001807f50726f766964657220616c72656164792061637469766174656400000000000081525060200191505060405180910390fd5b80600160008473ffffffffffffffffffffffffffffffffffffffff1673ffffffffffffffffffffffffffffffffffffffff16815260200190815260200160002060010190805190602001906129ff929190612e9f565b5060018060008473ffffffffffffffffffffffffffffffffffffffff1673ffffffffffffffffffffffffffffffffffffffff16815260200190815260200160002060000160006101000a81548160ff02191690831515021790555060016002600082825401925050819055505050565b60006060806060600360008673ffffffffffffffffffffffffffffffffffffffff1673ffffffffffffffffffffffffffffffffffffffff168152602001908152602001600020805490508610612b2d576040517f08c379a000000000000000000000000000000000000000000000000000000000815260040180806020018281038252601a8152602001807f436572746966696361746520646f6573206e6f7420657869737400000000000081525060200191505060405180910390fd5b600360008673ffffffffffffffffffffffffffffffffffffffff1673ffffffffffffffffffffffffffffffffffffffff1681526020019081526020016000208681548110612b7757fe5b906000526020600020906004020160000160009054906101000a900473ffffffffffffffffffffffffffffffffffffffff16600360008773ffffffffffffffffffffffffffffffffffffffff1673ffffffffffffffffffffffffffffffffffffffff1681526020019081526020016000208781548110612bf357fe5b9060005260206000209060040201600101600360008873ffffffffffffffffffffffffffffffffffffffff1673ffffffffffffffffffffffffffffffffffffffff1681526020019081526020016000208881548110612c4e57fe5b9060005260206000209060040201600201600360008973ffffffffffffffffffffffffffffffffffffffff1673ffffffffffffffffffffffffffffffffffffffff1681526020019081526020016000208981548110612ca957fe5b9060005260206000209060040201600301828054600181600116156101000203166002900480601f016020809104026020016040519081016040528092919081815260200182805460018160011615610100020316600290048015612d4f5780601f10612d2457610100808354040283529160200191612d4f565b820191906000526020600020905b815481529060010190602001808311612d3257829003601f168201915b50505050509250818054600181600116156101000203166002900480601f016020809104026020016040519081016040528092919081815260200182805460018160011615610100020316600290048015612deb5780601f10612dc057610100808354040283529160200191612deb565b820191906000526020600020905b815481529060010190602001808311612dce57829003601f168201915b50505050509150808054600181600116156101000203166002900480601f016020809104026020016040519081016040528092919081815260200182805460018160011615610100020316600290048015612e875780601f10612e5c57610100808354040283529160200191612e87565b820191906000526020600020905b815481529060010190602001808311612e6a57829003601f168201915b50505050509050935093509350935092959194509250565b828054600181600116156101000203166002900490600052602060002090601f016020900481019282612ed55760008555612f1c565b82601f10612eee57805160ff1916838001178555612f1c565b82800160010185558215612f1c579182015b82811115612f1b578251825591602001919060010190612f00565b5b509050612f29919061304b565b5090565b50805460018160011615610100020316600290046000825580601f10612f535750612f72565b601f016020900490600052602060002090810190612f71919061304b565b5b50565b50805460018160011615610100020316600290046000825580601f10612f9b5750612fba565b601f016020900490600052602060002090810190612fb9919061304b565b5b50565b828054600181600116156101000203166002900490600052602060002090601f016020900481019282612ff3576000855561303a565b82601f1061300c57805160ff191683800117855561303a565b8280016001018555821561303a579182015b8281111561303957825182559160200191906001019061301e565b5b509050613047919061304b565b5090565b5b8082111561306457600081600090555060010161304c565b509056fe4e6f7420616c6c6f77656420746f20757064617465207468697320706172746963756c61722043657274696669636174654e6f7420616c6c6f77656420746f2072656d6f7665207468697320706172746963756c6172204365727469666963617465a264697066735822122016537c67ac525188c9016dc92296f0b729bbbd858dec13a41710290d88cd57bd64736f6c63430007060033",
  "immutableReferences": {},
  "source": "// SPDX-License-Identifier: GPL-3.0\r\n\r\npragma solidity >=0.7.0 <0.9.0;\r\n\r\n/**\r\n * @title Storage\r\n * @dev Store & retrieve value in a variable\r\n */\r\n \r\nimport \"./Certificates.sol\";\r\n\r\n /* \r\n Actors : Chair Person, Anyone\r\n Token : Proposals\r\n\r\n 1- Anyone can submit proposals (paying a fee)\r\n 2- Chair Person can approve proposals creating Providers in Certificates Contract\r\n\r\n\r\n Proposals lifecycle\r\n    Proposals Creation : Anyone (paying fee)\r\n    Proposals Update : \r\n    Proposals Remove :   \r\n    Proposals Validations : Only Chair Person  \r\n\r\n */\r\n\r\ncontract Proposals{\r\n\r\n    event _SendProposalId(address);\r\n    event _ApproveProposalId(address);\r\n    event _RejectProposalId(address);\r\n\r\n    enum proposalState { NOT_SUBMITTED, PENDING, APPROVED, REJECTED }\r\n    uint constant _PriceWei = 10;\r\n\r\n    Certificates  _CertificatesContract;\r\n    \r\n    struct _proposal{\r\n        proposalState _state;\r\n        string _providerInfo;\r\n    } \r\n    \r\n    address payable _chairperson;\r\n    mapping(address => _proposal) public _proposals;\r\n    address[] listOfOwners;\r\n    \r\n    constructor() payable{\r\n        _chairperson = payable(msg.sender);\r\n        listOfOwners.push(address(msg.sender));\r\n        _CertificatesContract = new Certificates(listOfOwners);\r\n    }\r\n    \r\n    // PROPOSALS CRUD Operations\r\n\r\n    function sendProposal(address provider, string memory providerInfo) public payable {\r\n       require(msg.value >= _PriceWei, \"Not enough funds\");\r\n       require(proposalState.NOT_SUBMITTED == _proposals[provider]._state, \"Proposal already submitted\");\r\n\r\n       _proposals[provider]._state = proposalState.PENDING;\r\n       _proposals[provider]._providerInfo = providerInfo;\r\n\r\n       emit _SendProposalId(provider);\r\n    }\r\n    \r\n    function approveProposal(address provider) public{\r\n        require(msg.sender == _chairperson, \"Not allowed to approve proposals\");\r\n        require(proposalState.PENDING == _proposals[provider]._state, \"This proposal cannot be modified\");\r\n\r\n        _proposals[provider]._state = proposalState.APPROVED;\r\n        _CertificatesContract.addProvider(provider, _proposals[provider]._providerInfo);   \r\n\r\n        emit _ApproveProposalId(provider);\r\n    }\r\n\r\n    function rejectProposal(address provider) public{\r\n        require(msg.sender == _chairperson, \"Not allowed to reject proposals\");\r\n        require(proposalState.PENDING == _proposals[provider]._state, \"This proposal cannot be modified\");\r\n\r\n        _proposals[provider]._state = proposalState.REJECTED;\r\n\r\n        emit _RejectProposalId(provider);\r\n    }\r\n    \r\n    function retrieveProposal(address provider) public view returns (uint, string memory) {\r\n        require(proposalState.NOT_SUBMITTED != _proposals[provider]._state, \"This proposal does not exist\");\r\n\r\n        return (uint(_proposals[provider]._state), _proposals[provider]._providerInfo);\r\n    }\r\n    \r\n    // Contract basic information\r\n\r\n    function retrieveCertificatesContractAddress() public view returns (Certificates) {\r\n        return _CertificatesContract;\r\n    }\r\n    \r\n    function retrieveChairPerson() public view returns (address) {\r\n        return _chairperson;\r\n    }\r\n    \r\n}",
  "sourcePath": "C:/Users/d-aam/GitHub/Certificates/contracts/Proposals.sol",
  "compiler": {
    "name": "solc",
    "version": "0.7.6+commit.7338295f.Emscripten.clang"
  },
  "schemaVersion": "3.3.4",
  "updatedAt": "2021-05-04T12:27:18.284Z",
  "devdoc": {
    "kind": "dev",
    "methods": {},
    "version": 1
  },
  "userdoc": {
    "kind": "user",
    "methods": {},
    "version": 1
  }
}