{
  "contractName": "PropositionSettings",
  "abi": [
    {
      "anonymous": false,
      "inputs": [
        {
          "indexed": false,
          "internalType": "uint256",
          "name": "Id",
          "type": "uint256"
        },
        {
          "indexed": true,
          "internalType": "address",
          "name": "Proposer",
          "type": "address"
        },
        {
          "indexed": false,
          "internalType": "uint256",
          "name": "Deadline",
          "type": "uint256"
        },
        {
          "indexed": false,
          "internalType": "uint256",
          "name": "Threshold",
          "type": "uint256"
        }
      ],
      "name": "_AddedProposition",
      "type": "event"
    },
    {
      "anonymous": false,
      "inputs": [
        {
          "indexed": false,
          "internalType": "uint256",
          "name": "Id",
          "type": "uint256"
        },
        {
          "indexed": true,
          "internalType": "address",
          "name": "Proposer",
          "type": "address"
        }
      ],
      "name": "_CancelledProposition",
      "type": "event"
    },
    {
      "anonymous": false,
      "inputs": [
        {
          "indexed": false,
          "internalType": "uint256",
          "name": "LifeTime",
          "type": "uint256"
        },
        {
          "indexed": false,
          "internalType": "uint256",
          "name": "Threshold",
          "type": "uint256"
        },
        {
          "indexed": false,
          "internalType": "uint256",
          "name": "minToPropose",
          "type": "uint256"
        }
      ],
      "name": "_NewSettings",
      "type": "event"
    },
    {
      "anonymous": false,
      "inputs": [
        {
          "indexed": false,
          "internalType": "uint256",
          "name": "Id",
          "type": "uint256"
        },
        {
          "indexed": true,
          "internalType": "address",
          "name": "Proposer",
          "type": "address"
        },
        {
          "indexed": false,
          "internalType": "uint256",
          "name": "VotesFor",
          "type": "uint256"
        },
        {
          "indexed": false,
          "internalType": "uint256",
          "name": "VotesAgainst",
          "type": "uint256"
        }
      ],
      "name": "_PropositionApproved",
      "type": "event"
    },
    {
      "anonymous": false,
      "inputs": [
        {
          "indexed": false,
          "internalType": "uint256",
          "name": "Id",
          "type": "uint256"
        },
        {
          "indexed": true,
          "internalType": "address",
          "name": "Proposer",
          "type": "address"
        },
        {
          "indexed": false,
          "internalType": "uint256",
          "name": "VotesFor",
          "type": "uint256"
        },
        {
          "indexed": false,
          "internalType": "uint256",
          "name": "VotesAgainst",
          "type": "uint256"
        }
      ],
      "name": "_PropositionRejected",
      "type": "event"
    },
    {
      "anonymous": false,
      "inputs": [
        {
          "indexed": false,
          "internalType": "uint256",
          "name": "Id",
          "type": "uint256"
        },
        {
          "indexed": true,
          "internalType": "address",
          "name": "Voter",
          "type": "address"
        },
        {
          "indexed": false,
          "internalType": "bool",
          "name": "Vote",
          "type": "bool"
        },
        {
          "indexed": false,
          "internalType": "uint256",
          "name": "AmountTokens",
          "type": "uint256"
        }
      ],
      "name": "_PropositionVote",
      "type": "event"
    },
    {
      "anonymous": false,
      "inputs": [
        {
          "indexed": true,
          "internalType": "uint256",
          "name": "Id",
          "type": "uint256"
        },
        {
          "indexed": false,
          "internalType": "address",
          "name": "From",
          "type": "address"
        },
        {
          "indexed": false,
          "internalType": "address",
          "name": "To",
          "type": "address"
        },
        {
          "indexed": false,
          "internalType": "uint256",
          "name": "Amount",
          "type": "uint256"
        }
      ],
      "name": "_UsedTokensTransfered",
      "type": "event"
    },
    {
      "inputs": [
        {
          "internalType": "address",
          "name": "chairPerson",
          "type": "address"
        },
        {
          "internalType": "address",
          "name": "managerContractAddress",
          "type": "address"
        },
        {
          "internalType": "string",
          "name": "contractName",
          "type": "string"
        },
        {
          "internalType": "string",
          "name": "contractVersion",
          "type": "string"
        }
      ],
      "name": "StdPropositionBaseContract_init",
      "outputs": [],
      "stateMutability": "nonpayable",
      "type": "function"
    },
    {
      "inputs": [],
      "name": "cancelProposition",
      "outputs": [],
      "stateMutability": "nonpayable",
      "type": "function"
    },
    {
      "inputs": [
        {
          "internalType": "address",
          "name": "from",
          "type": "address"
        },
        {
          "internalType": "address",
          "name": "to",
          "type": "address"
        },
        {
          "internalType": "uint256",
          "name": "amount",
          "type": "uint256"
        }
      ],
      "name": "onTokenBalanceChanged",
      "outputs": [],
      "stateMutability": "nonpayable",
      "type": "function"
    },
    {
      "inputs": [],
      "name": "retrieveChairPerson",
      "outputs": [
        {
          "internalType": "address",
          "name": "",
          "type": "address"
        }
      ],
      "stateMutability": "view",
      "type": "function"
    },
    {
      "inputs": [],
      "name": "retrieveContractConfig",
      "outputs": [
        {
          "internalType": "string",
          "name": "",
          "type": "string"
        },
        {
          "internalType": "string",
          "name": "",
          "type": "string"
        }
      ],
      "stateMutability": "view",
      "type": "function"
    },
    {
      "inputs": [],
      "name": "retrieveManagerContract",
      "outputs": [
        {
          "internalType": "address",
          "name": "",
          "type": "address"
        }
      ],
      "stateMutability": "view",
      "type": "function"
    },
    {
      "inputs": [],
      "name": "retrieveNextPropId",
      "outputs": [
        {
          "internalType": "uint256",
          "name": "",
          "type": "uint256"
        }
      ],
      "stateMutability": "view",
      "type": "function"
    },
    {
      "inputs": [
        {
          "internalType": "address",
          "name": "addr",
          "type": "address"
        },
        {
          "internalType": "uint256",
          "name": "nonce",
          "type": "uint256"
        }
      ],
      "name": "retrieveNonce",
      "outputs": [
        {
          "internalType": "bool",
          "name": "",
          "type": "bool"
        }
      ],
      "stateMutability": "view",
      "type": "function"
    },
    {
      "inputs": [],
      "name": "retrieveProposition",
      "outputs": [
        {
          "internalType": "bytes[]",
          "name": "",
          "type": "bytes[]"
        }
      ],
      "stateMutability": "view",
      "type": "function"
    },
    {
      "inputs": [],
      "name": "retrievePropositionStatus",
      "outputs": [
        {
          "internalType": "address",
          "name": "",
          "type": "address"
        },
        {
          "internalType": "uint256",
          "name": "",
          "type": "uint256"
        },
        {
          "internalType": "uint256",
          "name": "",
          "type": "uint256"
        },
        {
          "internalType": "uint256",
          "name": "",
          "type": "uint256"
        },
        {
          "internalType": "uint256",
          "name": "",
          "type": "uint256"
        }
      ],
      "stateMutability": "view",
      "type": "function"
    },
    {
      "inputs": [
        {
          "internalType": "uint256",
          "name": "PropId",
          "type": "uint256"
        },
        {
          "internalType": "address",
          "name": "voter",
          "type": "address"
        }
      ],
      "name": "retrieveVotesForVoter",
      "outputs": [
        {
          "internalType": "uint256",
          "name": "",
          "type": "uint256"
        }
      ],
      "stateMutability": "view",
      "type": "function"
    },
    {
      "inputs": [
        {
          "internalType": "bytes[]",
          "name": "NewValues",
          "type": "bytes[]"
        }
      ],
      "name": "sendProposition",
      "outputs": [],
      "stateMutability": "nonpayable",
      "type": "function"
    },
    {
      "inputs": [
        {
          "internalType": "bool",
          "name": "vote",
          "type": "bool"
        }
      ],
      "name": "voteProposition",
      "outputs": [],
      "stateMutability": "nonpayable",
      "type": "function"
    },
    {
      "inputs": [
        {
          "internalType": "address",
          "name": "voter",
          "type": "address"
        },
        {
          "internalType": "uint256",
          "name": "propID",
          "type": "uint256"
        },
        {
          "internalType": "bool",
          "name": "vote",
          "type": "bool"
        },
        {
          "internalType": "uint256",
          "name": "nonce",
          "type": "uint256"
        },
        {
          "internalType": "uint256",
          "name": "deadline",
          "type": "uint256"
        },
        {
          "internalType": "bytes",
          "name": "signature",
          "type": "bytes"
        }
      ],
      "name": "votePropositionOnBehalfOf",
      "outputs": [],
      "stateMutability": "nonpayable",
      "type": "function"
    },
    {
      "inputs": [
        {
          "internalType": "address",
          "name": "managerContractAddress",
          "type": "address"
        },
        {
          "internalType": "address",
          "name": "chairPerson",
          "type": "address"
        },
        {
          "internalType": "uint256",
          "name": "PropositionLifeTime",
          "type": "uint256"
        },
        {
          "internalType": "uint256",
          "name": "PropositionThreshold",
          "type": "uint256"
        },
        {
          "internalType": "uint256",
          "name": "minToPropose",
          "type": "uint256"
        },
        {
          "internalType": "string",
          "name": "contractName",
          "type": "string"
        },
        {
          "internalType": "string",
          "name": "contractVersion",
          "type": "string"
        }
      ],
      "name": "PropositionSettings_init",
      "outputs": [],
      "stateMutability": "nonpayable",
      "type": "function"
    },
    {
      "inputs": [],
      "name": "retrieveSettings",
      "outputs": [
        {
          "internalType": "uint256",
          "name": "",
          "type": "uint256"
        },
        {
          "internalType": "uint256",
          "name": "",
          "type": "uint256"
        },
        {
          "internalType": "uint256",
          "name": "",
          "type": "uint256"
        }
      ],
      "stateMutability": "view",
      "type": "function"
    }
  ],
  "bytecode": "0x608060405234801561001057600080fd5b50612702806100206000396000f3fe608060405234801561001057600080fd5b50600436106100d05760003560e01c806304cc67a9146100d55780630f13bbc9146100ec5780633c7df55d146101015780633feca4ca146101145780634044adb21461015d57806355457ee9146101935780635b362e841461019b5780637faa3d6f146101bb578063840f6d17146101ce57806391f916711461020f578063a93316f514610222578063b049473f14610237578063d2116a021461024f578063db85bc4d14610265578063dd93098f14610276578063e15aa3a614610289575b600080fd5b600b545b6040519081526020015b60405180910390f35b6100ff6100fa366004611e1e565b61029c565b005b6100ff61010f366004611ea6565b610321565b61014d610122366004611f8c565b6001600160a01b03919091166000908152600260209081526040808320938352929052205460ff1690565b60405190151581526020016100e3565b6100d961016b36600461226f565b6000918252600c602090815260408084206001600160a01b0393909316845291905290205490565b6100ff61043f565b6003546201000090046001600160a01b03165b6040516100e391906123bb565b6100ff6101c9366004611fb8565b610519565b600654600754600854600954600a54604080516001600160a01b0390961686526020860194909452928401919091526060830152608082015260a0016100e3565b6100ff61021d36600461221c565b610539565b61022a610546565b6040516100e3919061245c565b600e54600f546010546040516100e39392919061257f565b61025761061f565b6040516100e39291906124e4565b6004546001600160a01b03166101ae565b6100ff610284366004611ee7565b610746565b6100ff610297366004612165565b6107e3565b600354610100900460ff16806102b5575060035460ff16155b6102da5760405162461bcd60e51b81526004016102d190612531565b60405180910390fd5b600354610100900460ff161580156102fc576003805461ffff19166101011790555b6103088585858561085d565b801561031a576003805461ff00191690555b5050505050565b3373__Library_______________________________6337ea306382600360029054906101000a90046001600160a01b03166001600160a01b031663e220ad956040518163ffffffff1660e01b815260040160006040518083038186803b15801561038b57600080fd5b505afa15801561039f573d6000803e3d6000fd5b505050506040513d6000823e601f3d908101601f191682016040526103c79190810190612035565b6003815181106103d9576103d961267d565b60200260200101516040518363ffffffff1660e01b81526004016103fe9291906123cf565b60006040518083038186803b15801561041657600080fd5b505af415801561042a573d6000803e3d6000fd5b505050506104398484846108e7565b50505050565b600161044a81610909565b6006546040516337ea306360e01b8152339173__Library_______________________________916337ea3063916104909185916001600160a01b0316906004016123cf565b60006040518083038186803b1580156104a857600080fd5b505af41580156104bc573d6000803e3d6000fd5b505050506104c861098d565b6104d0610997565b6006546005546040519081526001600160a01b03909116907f1fe8aec10c0a50fa765076161e08c1f961ced69594ff45cf7d559f593afe14799060200160405180910390a25050565b6105278686868686866109c2565b6105318685610b21565b505050505050565b6105433382610b21565b50565b6060600d805480602002602001604051908101604052809291908181526020016000905b8282101561061657838290600052602060002001805461058990612617565b80601f01602080910402602001604051908101604052809291908181526020018280546105b590612617565b80156106025780601f106105d757610100808354040283529160200191610602565b820191906000526020600020905b8154815290600101906020018083116105e557829003601f168201915b50505050508152602001906001019061056a565b50505050905090565b6060806000600181805461063290612617565b80601f016020809104026020016040519081016040528092919081815260200182805461065e90612617565b80156106ab5780601f10610680576101008083540402835291602001916106ab565b820191906000526020600020905b81548152906001019060200180831161068e57829003601f168201915b505050505091508080546106be90612617565b80601f01602080910402602001604051908101604052809291908181526020018280546106ea90612617565b80156107375780601f1061070c57610100808354040283529160200191610737565b820191906000526020600020905b81548152906001019060200180831161071a57829003601f168201915b50505050509050915091509091565b600354610100900460ff168061075f575060035460ff16155b61077b5760405162461bcd60e51b81526004016102d190612531565b600354610100900460ff1615801561079d576003805461ffff19166101011790555b6107a98789858561029c565b6107b38585610c38565b6107c7868686600e92909255600f55601055565b80156107d9576003805461ff00191690555b5050505050505050565b6107ec81610c86565b6107f4610f1c565b60005b815181101561085957600d8282815181106108145761081461267d565b602090810291909101810151825460018101845560009384529282902081516108469491909101929190910190611ca1565b50806108518161264c565b9150506107f7565b5050565b600354610100900460ff1680610876575060035460ff16155b6108925760405162461bcd60e51b81526004016102d190612531565b600354610100900460ff161580156108b4576003805461ffff19166101011790555b6108bd8461126c565b600480546001600160a01b0319166001600160a01b0387161790556000600b5561030883836112fa565b6108ef611321565b1515600114156109045761090483838361135b565b505050565b801561095057610917611321565b15156001146105435760405162461bcd60e51b8152602060048201526005602482015264454332352d60d81b60448201526064016102d1565b610958611321565b156105435760405162461bcd60e51b8152602060048201526005602482015264454332342d60d81b60448201526064016102d1565b6109956114cb565b565b60006005819055600680546001600160a01b0319169055600781905560088190556009819055600a55565b816109cc816114d7565b86846109d8828261150e565b6005548814610a115760405162461bcd60e51b8152602060048201526005602482015264454333352d60d81b60448201526064016102d1565b60405163432f9a5560e01b815273__SignatureLibrary______________________9063432f9a5590610a58908c908c908c908c908c908c906000906001906004016123e9565b60206040518083038186803b158015610a7057600080fd5b505af4158015610a84573d6000803e3d6000fd5b505050506040513d601f19601f82011682018060405250810190610aa89190612239565b1515600114610ae15760405162461bcd60e51b8152602060048201526005602482015264454333322d60d81b60448201526064016102d1565b610b1689876001600160a01b03909116600090815260026020908152604080832093835292905220805460ff19166001179055565b505050505050505050565b6001610b2c81610909565b60055483906000610b3d838361156a565b905060008111610b775760405162461bcd60e51b8152602060048201526005602482015264454332332d60d81b60448201526064016102d1565b6000610b888760056000015461156a565b90508515610bb0578060056004016000828254610ba591906125e8565b90915550610bca9050565b80600580016000828254610bc491906125e8565b90915550505b600554610bd89088836115a7565b60055460408051918252871515602083015281018290526001600160a01b038816907f50f654d58981575c05e369cb129aeacb01e1b036af429380242cfc5d1a4b743f9060600160405180910390a2610c2f6115e3565b50505050505050565b81610c416116b7565b1015610c5f5760405162461bcd60e51b81526004016102d190612512565b80610c686116b7565b10156108595760405162461bcd60e51b81526004016102d190612512565b61054373__UintLibrary___________________________630bd4715e73__Library_______________________________63caa8f58985600181518110610cd057610cd061267d565b60200260200101516040518263ffffffff1660e01b8152600401610cf491906124be565b60006040518083038186803b158015610d0c57600080fd5b505af4158015610d20573d6000803e3d6000fd5b505050506040513d6000823e601f3d908101601f19168201604052610d4891908101906120da565b600081518110610d5a57610d5a61267d565b60200260200101516040518263ffffffff1660e01b8152600401610d8091815260200190565b60206040518083038186803b158015610d9857600080fd5b505af4158015610dac573d6000803e3d6000fd5b505050506040513d601f19601f82011682018060405250810190610dd09190612256565b73__UintLibrary___________________________630bd4715e73__Library_______________________________63caa8f58986600281518110610e1757610e1761267d565b60200260200101516040518263ffffffff1660e01b8152600401610e3b91906124be565b60006040518083038186803b158015610e5357600080fd5b505af4158015610e67573d6000803e3d6000fd5b505050506040513d6000823e601f3d908101601f19168201604052610e8f91908101906120da565b600081518110610ea157610ea161267d565b60200260200101516040518263ffffffff1660e01b8152600401610ec791815260200190565b60206040518083038186803b158015610edf57600080fd5b505af4158015610ef3573d6000803e3d6000fd5b505050506040513d601f19601f82011682018060405250810190610f179190612256565b610c38565b6000610f2781610909565b60045433906000906001600160a01b0316821415610f475750600161107e565b6000610f52836117d2565b90506000600360029054906101000a90046001600160a01b03166001600160a01b031663e220ad956040518163ffffffff1660e01b815260040160006040518083038186803b158015610fa457600080fd5b505afa158015610fb8573d6000803e3d6000fd5b505050506040513d6000823e601f3d908101601f19168201604052610fe09190810190612035565b600781518110610ff257610ff261267d565b60200260200101516001600160a01b031663b049473f6040518163ffffffff1660e01b815260040160606040518083038186803b15801561103257600080fd5b505afa158015611046573d6000803e3d6000fd5b505050506040513d601f19601f8201168201806040525081019061106a919061229f565b925050508082111561107b57600192505b50505b6001811515146110b85760405162461bcd60e51b8152602060048201526005602482015264454332322d60d81b60448201526064016102d1565b600080600360029054906101000a90046001600160a01b03166001600160a01b031663e220ad956040518163ffffffff1660e01b815260040160006040518083038186803b15801561110957600080fd5b505afa15801561111d573d6000803e3d6000fd5b505050506040513d6000823e601f3d908101601f191682016040526111459190810190612035565b6007815181106111575761115761267d565b60200260200101516001600160a01b031663b049473f6040518163ffffffff1660e01b815260040160606040518083038186803b15801561119757600080fd5b505afa1580156111ab573d6000803e3d6000fd5b505050506040513d601f19601f820116820180604052508101906111cf919061229f565b50600680546001600160a01b0319163317905590925090506111f182426125e8565b6007556008819055600b8054600581905590600061120e8361264c565b90915550506006546005546007546008546040516001600160a01b03909416937f472501d19bf75639b2e316cd36f8568b0c3ab943b82a87de3c086c98c1929df99361125d939092909161257f565b60405180910390a25050505050565b600354610100900460ff1680611285575060035460ff16155b6112a15760405162461bcd60e51b81526004016102d190612531565b600354610100900460ff161580156112c3576003805461ffff19166101011790555b6003805462010000600160b01b031916620100006001600160a01b038516021790558015610859576003805461ff00191690555050565b815161130d906000906020850190611ca1565b508051610904906001906020840190611ca1565b6007546000904210156113345750600190565b6006546001600160a01b0316156113555761134d61098d565b611355610997565b50600090565b6001600160a01b0383161580159061139757506005546000908152600c602090815260408083206001600160a01b038716845290915290205415155b15610904576005546000908152600c602090815260408083206001600160a01b038716845290915290205481908111156113f357506005546000908152600c602090815260408083206001600160a01b03871684529091529020545b6005546000908152600c602090815260408083206001600160a01b038816845290915281208054839290611428908490612600565b90915550506001600160a01b03831615611477576005546000908152600c602090815260408083206001600160a01b0387168452909152812080548392906114719084906125e8565b90915550505b600554604080516001600160a01b038088168252861660208201529081018390527f65fbd5e5dd32bea4aeca85bd0be0abf0e489d655dee888a7510d43b06dda2dba9060600160405180910390a250505050565b610995600d6000611d25565b8042106105435760405162461bcd60e51b8152602060048201526005602482015264454333332d60d81b60448201526064016102d1565b6001600160a01b038216600090815260026020908152604080832084845290915290205460ff16156108595760405162461bcd60e51b8152602060048201526005602482015264454333342d60d81b60448201526064016102d1565b6000818152600c602090815260408083206001600160a01b0386168452909152812054611596846117d2565b6115a09190612600565b9392505050565b6000838152600c602090815260408083206001600160a01b0386168452909152812080548392906115d99084906125e8565b9091555050505050565b60085460095410611652576115f66118f9565b6115fe610997565b600654600554600954600a546040516001600160a01b03909416937f23ca0034cf5aad32571b4a492e9598ea8a490e1643a60970e3cdc6933b55e49f93611648939092909161257f565b60405180910390a2565b600854600a54106109955761166561098d565b61166d610997565b600654600554600954600a546040516001600160a01b03909416937fa58eb6daa3c62c3f883973c4035e5bd3e81aa627c8379de068a7de42df122be293611648939092909161257f565b6000600360029054906101000a90046001600160a01b03166001600160a01b031663e220ad956040518163ffffffff1660e01b815260040160006040518083038186803b15801561170757600080fd5b505afa15801561171b573d6000803e3d6000fd5b505050506040513d6000823e601f3d908101601f191682016040526117439190810190612035565b6003815181106117555761175561267d565b60200260200101516001600160a01b03166318160ddd6040518163ffffffff1660e01b815260040160206040518083038186803b15801561179557600080fd5b505afa1580156117a9573d6000803e3d6000fd5b505050506040513d601f19601f820116820180604052508101906117cd9190612256565b905090565b6000600360029054906101000a90046001600160a01b03166001600160a01b031663e220ad956040518163ffffffff1660e01b815260040160006040518083038186803b15801561182257600080fd5b505afa158015611836573d6000803e3d6000fd5b505050506040513d6000823e601f3d908101601f1916820160405261185e9190810190612035565b6003815181106118705761187061267d565b60200260200101516001600160a01b03166370a08231836040518263ffffffff1660e01b81526004016118a391906123bb565b60206040518083038186803b1580156118bb57600080fd5b505afa1580156118cf573d6000803e3d6000fd5b505050506040513d601f19601f820116820180604052508101906118f39190612256565b92915050565b61098d6000611906611b52565b9050600073__UintLibrary___________________________630bd4715e836000815181106119375761193761267d565b60200260200101516040518263ffffffff1660e01b815260040161195d91815260200190565b60206040518083038186803b15801561197557600080fd5b505af4158015611989573d6000803e3d6000fd5b505050506040513d601f19601f820116820180604052508101906119ad9190612256565b9050600073__UintLibrary___________________________630bd4715e846001815181106119de576119de61267d565b60200260200101516040518263ffffffff1660e01b8152600401611a0491815260200190565b60206040518083038186803b158015611a1c57600080fd5b505af4158015611a30573d6000803e3d6000fd5b505050506040513d601f19601f82011682018060405250810190611a549190612256565b9050600073__UintLibrary___________________________630bd4715e85600281518110611a8557611a8561267d565b60200260200101516040518263ffffffff1660e01b8152600401611aab91815260200190565b60206040518083038186803b158015611ac357600080fd5b505af4158015611ad7573d6000803e3d6000fd5b505050506040513d601f19601f82011682018060405250810190611afb9190612256565b9050611b11838383600e92909255600f55601055565b7f5f142d19236803d18232d4e49383b84c9ce931aa90200b80fb6b2c22ef1c0b1d838383604051611b449392919061257f565b60405180910390a150505050565b600d546060906000906001600160401b03811115611b7257611b72612693565b604051908082528060200260200182016040528015611b9b578160200160208202803683370190505b50905060005b600d54811015611c9b5773__Library_______________________________63caa8f589600d8381548110611bd857611bd861267d565b906000526020600020016040518263ffffffff1660e01b8152600401611bfe91906124d1565b60006040518083038186803b158015611c1657600080fd5b505af4158015611c2a573d6000803e3d6000fd5b505050506040513d6000823e601f3d908101601f19168201604052611c5291908101906120da565b600081518110611c6457611c6461267d565b6020026020010151828281518110611c7e57611c7e61267d565b602090810291909101015280611c938161264c565b915050611ba1565b50919050565b828054611cad90612617565b90600052602060002090601f016020900481019282611ccf5760008555611d15565b82601f10611ce857805160ff1916838001178555611d15565b82800160010185558215611d15579182015b82811115611d15578251825591602001919060010190611cfa565b50611d21929150611d43565b5090565b50805460008255906000526020600020908101906105439190611d58565b5b80821115611d215760008155600101611d44565b80821115611d21576000611d6c8282611d75565b50600101611d58565b508054611d8190612617565b6000825580601f10611d91575050565b601f0160209004906000526020600020908101906105439190611d43565b600082601f830112611dc057600080fd5b81356001600160401b03811115611dd957611dd9612693565b611dec601f8201601f1916602001612595565b818152846020838601011115611e0157600080fd5b816020850160208301376000918101602001919091529392505050565b60008060008060808587031215611e3457600080fd5b8435611e3f816126a9565b93506020850135611e4f816126a9565b925060408501356001600160401b0380821115611e6b57600080fd5b611e7788838901611daf565b93506060870135915080821115611e8d57600080fd5b50611e9a87828801611daf565b91505092959194509250565b600080600060608486031215611ebb57600080fd5b8335611ec6816126a9565b92506020840135611ed6816126a9565b929592945050506040919091013590565b600080600080600080600060e0888a031215611f0257600080fd5b8735611f0d816126a9565b96506020880135611f1d816126a9565b955060408801359450606088013593506080880135925060a08801356001600160401b0380821115611f4e57600080fd5b611f5a8b838c01611daf565b935060c08a0135915080821115611f7057600080fd5b50611f7d8a828b01611daf565b91505092959891949750929550565b60008060408385031215611f9f57600080fd5b8235611faa816126a9565b946020939093013593505050565b60008060008060008060c08789031215611fd157600080fd5b8635611fdc816126a9565b9550602087013594506040870135611ff3816126be565b9350606087013592506080870135915060a08701356001600160401b0381111561201c57600080fd5b61202889828a01611daf565b9150509295509295509295565b6000602080838503121561204857600080fd5b82516001600160401b0381111561205e57600080fd5b8301601f8101851361206f57600080fd5b805161208261207d826125c5565b612595565b80828252848201915084840188868560051b87010111156120a257600080fd5b600094505b838510156120ce5780516120ba816126a9565b8352600194909401939185019185016120a7565b50979650505050505050565b600060208083850312156120ed57600080fd5b82516001600160401b0381111561210357600080fd5b8301601f8101851361211457600080fd5b805161212261207d826125c5565b80828252848201915084840188868560051b870101111561214257600080fd5b600094505b838510156120ce578051835260019490940193918501918501612147565b6000602080838503121561217857600080fd5b82356001600160401b038082111561218f57600080fd5b818501915085601f8301126121a357600080fd5b81356121b161207d826125c5565b80828252858201915085850189878560051b88010111156121d157600080fd5b6000805b8581101561220c578235878111156121eb578283fd5b6121f98d8b838c0101611daf565b86525093880193918801916001016121d5565b50919a9950505050505050505050565b60006020828403121561222e57600080fd5b81356115a0816126be565b60006020828403121561224b57600080fd5b81516115a0816126be565b60006020828403121561226857600080fd5b5051919050565b6000806040838503121561228257600080fd5b823591506020830135612294816126a9565b809150509250929050565b6000806000606084860312156122b457600080fd5b8351925060208401519150604084015190509250925092565b6000815180845260005b818110156122f3576020818501810151868301820152016122d7565b81811115612305576000602083870101525b50601f01601f19169290920160200192915050565b8054600090600181811c908083168061233457607f831692505b602080841082141561235657634e487b7160e01b600052602260045260246000fd5b83885281801561236d5760018114612381576123af565b60ff198616898301526040890196506123af565b876000528160002060005b868110156123a75781548b820185015290850190830161238c565b8a0183019750505b50505050505092915050565b6001600160a01b0391909116815260200190565b6001600160a01b0392831681529116602082015260400190565b600061010060018060a01b038b16835289602084015288151560408401528760608401528660808401528060a0840152612425818401876122cd565b905082810360c0840152612439818661231a565b905082810360e084015261244d818561231a565b9b9a5050505050505050505050565b6000602080830181845280855180835260408601915060408160051b870101925083870160005b828110156124b157603f1988860301845261249f8583516122cd565b94509285019290850190600101612483565b5092979650505050505050565b6020815260006115a060208301846122cd565b6020815260006115a0602083018461231a565b6040815260006124f760408301856122cd565b828103602084015261250981856122cd565b95945050505050565b602080825260059082015264454332312d60d81b604082015260600190565b6020808252602e908201527f496e697469616c697a61626c653a20636f6e747261637420697320616c72656160408201526d191e481a5b9a5d1a585b1a5e995960921b606082015260800190565b9283526020830191909152604082015260600190565b604051601f8201601f191681016001600160401b03811182821017156125bd576125bd612693565b604052919050565b60006001600160401b038211156125de576125de612693565b5060051b60200190565b600082198211156125fb576125fb612667565b500190565b60008282101561261257612612612667565b500390565b600181811c9082168061262b57607f821691505b60208210811415611c9b57634e487b7160e01b600052602260045260246000fd5b600060001982141561266057612660612667565b5060010190565b634e487b7160e01b600052601160045260246000fd5b634e487b7160e01b600052603260045260246000fd5b634e487b7160e01b600052604160045260246000fd5b6001600160a01b038116811461054357600080fd5b801515811461054357600080fdfea264697066735822122056f1a87f5eb50dc4f7b81cc12b9be8f39a73a7e01b959d9bd9aeefb20c6a8e8764736f6c63430008070033",
  "immutableReferences": {},
  "source": "// SPDX-License-Identifier: GPL-3.0\r\n\r\npragma solidity 0.8.7;\r\n\r\n/**\r\n  Events : \r\n    - New Settings Added : list of settings\r\n */\r\n\r\nimport \"../Interfaces/IPropositionSettings.sol\";\r\nimport \"../Libraries/UintLibrary.sol\";\r\nimport \"../Base/StdPropositionBaseContract.sol\";\r\n\r\ncontract PropositionSettings is IPropositionSettings, StdPropositionBaseContract{\r\n    using UintLibrary for *;\r\n\r\n    // EVENTS /////////////////////////////////////////\r\n    event _NewSettings(uint256 LifeTime, uint256 Threshold, uint256 minToPropose);\r\n\r\n    // DATA /////////////////////////////////////////\r\n    uint256 internal _LifeTime;\r\n    uint256 internal _Threshold;\r\n    uint256 internal _minToPropose;\r\n\r\n    // MODIFIERS /////////////////////////////////////////\r\n    function areSettingsOKFunc(uint256 PropositionThreshold, uint256 minToPropose) internal view{\r\n        require(totalSupply() >= PropositionThreshold, \"EC21-\");\r\n        require(totalSupply() >= minToPropose, \"EC21-\");\r\n    }\r\n    \r\n    // CONSTRUCTOR /////////////////////////////////////////\r\n    function PropositionSettings_init(address managerContractAddress, address chairPerson, uint256 PropositionLifeTime, uint256 PropositionThreshold, uint256 minToPropose, string memory contractName, string memory contractVersion) public initializer \r\n    {\r\n        super.StdPropositionBaseContract_init(chairPerson, managerContractAddress, contractName, contractVersion);\r\n        areSettingsOKFunc(PropositionThreshold, minToPropose);\r\n        InternalupdateSettings(PropositionLifeTime, PropositionThreshold, minToPropose);\r\n    }\r\n\r\n    // GOVERNANCE /////////////////////////////////////////\r\n    function checkProposition(bytes[] memory NewValues) internal override view \r\n    {\r\n        areSettingsOKFunc(UintLibrary.Bytes32ToUint(Library.BytestoBytes32(NewValues[1])[0]), UintLibrary.Bytes32ToUint(Library.BytestoBytes32(NewValues[2])[0]));\r\n    }\r\n\r\n    function UpdateAll() internal override\r\n    {\r\n        bytes32[] memory ProposedNewValues = PropositionsToBytes32();\r\n\r\n        uint256 PropositionLifeTime = UintLibrary.Bytes32ToUint(ProposedNewValues[0]);\r\n        uint256 PropositionThreshold = UintLibrary.Bytes32ToUint(ProposedNewValues[1]);\r\n        uint256 minToPropose = UintLibrary.Bytes32ToUint(ProposedNewValues[2]);\r\n\r\n        InternalupdateSettings(PropositionLifeTime, PropositionThreshold, minToPropose);\r\n\r\n        emit _NewSettings(PropositionLifeTime, PropositionThreshold, minToPropose);\r\n    }\r\n\r\n    function InternalupdateSettings(uint256 PropLifeTime, uint256 PropThreshold, uint256 minToProp) internal\r\n    {\r\n        _LifeTime = PropLifeTime;\r\n        _Threshold = PropThreshold;\r\n        _minToPropose = minToProp;\r\n    }\r\n\r\n    // FUNCTIONALITY /////////////////////////////////////////\r\n    function retrieveSettings() external override view returns(uint256, uint256, uint256)\r\n    {\r\n        return(_LifeTime, _Threshold, _minToPropose);\r\n    }\r\n\r\n\r\n}",
  "sourcePath": "C:\\Users\\d-aam\\GitHub\\Certificates\\contracts\\DeployedContracts\\PropositionSettings.sol",
  "compiler": {
    "name": "solc",
    "version": "0.8.7+commit.e28d00a7.Emscripten.clang"
  },
  "schemaVersion": "3.4.3",
  "updatedAt": "2022-01-17T12:39:36.607Z",
  "devdoc": {
    "kind": "dev",
    "methods": {},
    "version": 1
  },
  "userdoc": {
    "kind": "user",
    "methods": {},
    "version": 1
  }
}