{
  "contractName": "Proposals",
  "abi": [
    {
      "inputs": [],
      "stateMutability": "payable",
      "type": "constructor"
    },
    {
      "inputs": [
        {
          "internalType": "address",
          "name": "",
          "type": "address"
        }
      ],
      "name": "_proposals",
      "outputs": [
        {
          "internalType": "enum Proposals.proposalState",
          "name": "_state",
          "type": "uint8"
        },
        {
          "internalType": "string",
          "name": "_providerInfo",
          "type": "string"
        }
      ],
      "stateMutability": "view",
      "type": "function"
    },
    {
      "inputs": [
        {
          "internalType": "address",
          "name": "provider",
          "type": "address"
        },
        {
          "internalType": "string",
          "name": "providerInfo",
          "type": "string"
        }
      ],
      "name": "sendProposal",
      "outputs": [],
      "stateMutability": "payable",
      "type": "function"
    },
    {
      "inputs": [
        {
          "internalType": "address",
          "name": "provider",
          "type": "address"
        }
      ],
      "name": "approveProposal",
      "outputs": [],
      "stateMutability": "nonpayable",
      "type": "function"
    },
    {
      "inputs": [
        {
          "internalType": "address",
          "name": "provider",
          "type": "address"
        }
      ],
      "name": "retrieveProposal",
      "outputs": [
        {
          "internalType": "uint256",
          "name": "",
          "type": "uint256"
        },
        {
          "internalType": "string",
          "name": "",
          "type": "string"
        }
      ],
      "stateMutability": "view",
      "type": "function"
    },
    {
      "inputs": [],
      "name": "retrieveCredentialsContractAddress",
      "outputs": [
        {
          "internalType": "contract Credentials",
          "name": "",
          "type": "address"
        }
      ],
      "stateMutability": "view",
      "type": "function"
    },
    {
      "inputs": [],
      "name": "retrieveChairPerson",
      "outputs": [
        {
          "internalType": "address",
          "name": "",
          "type": "address"
        }
      ],
      "stateMutability": "view",
      "type": "function"
    }
  ],
  "bytecode": "0x608060405233600160006101000a81548173ffffffffffffffffffffffffffffffffffffffff021916908373ffffffffffffffffffffffffffffffffffffffff1602179055506003339080600181540180825580915050600190039060005260206000200160009091909190916101000a81548173ffffffffffffffffffffffffffffffffffffffff021916908373ffffffffffffffffffffffffffffffffffffffff16021790555060036040516100b690610195565b8080602001828103825283818154815260200191508054801561012e57602002820191906000526020600020905b8160009054906101000a900473ffffffffffffffffffffffffffffffffffffffff1673ffffffffffffffffffffffffffffffffffffffff16815260200190600101908083116100e4575b505092505050604051809103906000f080158015610150573d6000803e3d6000fd5b506000806101000a81548173ffffffffffffffffffffffffffffffffffffffff021916908373ffffffffffffffffffffffffffffffffffffffff1602179055506101a2565b6124b380610e3283390190565b610c81806101b16000396000f3fe6080604052600436106100555760003560e01c806303354faa1461005a5780634f3f6c29146100ab578063858e7ce614610187578063db85bc4d14610262578063df4053cc146102a3578063efec414b146102e4575b600080fd5b34801561006657600080fd5b506100a96004803603602081101561007d57600080fd5b81019080803573ffffffffffffffffffffffffffffffffffffffff1690602001909291905050506103b5565b005b3480156100b757600080fd5b506100fa600480360360208110156100ce57600080fd5b81019080803573ffffffffffffffffffffffffffffffffffffffff1690602001909291905050506106c3565b6040518083600381111561010a57fe5b815260200180602001828103825283818151815260200191508051906020019080838360005b8381101561014b578082015181840152602081019050610130565b50505050905090810190601f1680156101785780820380516001836020036101000a031916815260200191505b50935050505060405180910390f35b6102606004803603604081101561019d57600080fd5b81019080803573ffffffffffffffffffffffffffffffffffffffff169060200190929190803590602001906401000000008111156101da57600080fd5b8201836020820111156101ec57600080fd5b8035906020019184600183028401116401000000008311171561020e57600080fd5b91908080601f016020809104026020016040519081016040528093929190818152602001838380828437600081840152601f19601f82011690508083019250505050505050919291929050505061078c565b005b34801561026e57600080fd5b5061027761092b565b604051808273ffffffffffffffffffffffffffffffffffffffff16815260200191505060405180910390f35b3480156102af57600080fd5b506102b8610955565b604051808273ffffffffffffffffffffffffffffffffffffffff16815260200191505060405180910390f35b3480156102f057600080fd5b506103336004803603602081101561030757600080fd5b81019080803573ffffffffffffffffffffffffffffffffffffffff16906020019092919050505061097e565b6040518083815260200180602001828103825283818151815260200191508051906020019080838360005b8381101561037957808201518184015260208101905061035e565b50505050905090810190601f1680156103a65780820380516001836020036101000a031916815260200191505b50935050505060405180910390f35b600160009054906101000a900473ffffffffffffffffffffffffffffffffffffffff1673ffffffffffffffffffffffffffffffffffffffff163373ffffffffffffffffffffffffffffffffffffffff1614610478576040517f08c379a00000000000000000000000000000000000000000000000000000000081526004018080602001828103825260208152602001807f4e6f7420616c6c6f77656420746f20617070726f76652070726f706f73616c7381525060200191505060405180910390fd5b600260008273ffffffffffffffffffffffffffffffffffffffff1673ffffffffffffffffffffffffffffffffffffffff16815260200190815260200160002060000160009054906101000a900460ff1660038111156104d357fe5b600060038111156104e057fe5b1415610554576040517f08c379a000000000000000000000000000000000000000000000000000000000815260040180806020018281038252601c8152602001807f546869732070726f706f73616c20646f6573206e6f742065786973740000000081525060200191505060405180910390fd5b60008054906101000a900473ffffffffffffffffffffffffffffffffffffffff1673ffffffffffffffffffffffffffffffffffffffff1663fc00050082600260008573ffffffffffffffffffffffffffffffffffffffff1673ffffffffffffffffffffffffffffffffffffffff1681526020019081526020016000206001016040518363ffffffff1660e01b8152600401808373ffffffffffffffffffffffffffffffffffffffff168152602001806020018281038252838181546001816001161561010002031660029004815260200191508054600181600116156101000203166002900480156106875780601f1061065c57610100808354040283529160200191610687565b820191906000526020600020905b81548152906001019060200180831161066a57829003601f168201915b50509350505050600060405180830381600087803b1580156106a857600080fd5b505af11580156106bc573d6000803e3d6000fd5b5050505050565b60026020528060005260406000206000915090508060000160009054906101000a900460ff1690806001018054600181600116156101000203166002900480601f0160208091040260200160405190810160405280929190818152602001828054600181600116156101000203166002900480156107825780601f1061075757610100808354040283529160200191610782565b820191906000526020600020905b81548152906001019060200180831161076557829003601f168201915b5050505050905082565b600a341015610803576040517f08c379a00000000000000000000000000000000000000000000000000000000081526004018080602001828103825260108152602001807f4e6f7420656e6f7567682066756e64730000000000000000000000000000000081525060200191505060405180910390fd5b600160009054906101000a900473ffffffffffffffffffffffffffffffffffffffff1673ffffffffffffffffffffffffffffffffffffffff166108fc349081150290604051600060405180830381858888f1935050505015801561086b573d6000803e3d6000fd5b506001600260008473ffffffffffffffffffffffffffffffffffffffff1673ffffffffffffffffffffffffffffffffffffffff16815260200190815260200160002060000160006101000a81548160ff021916908360038111156108cb57fe5b021790555080600260008473ffffffffffffffffffffffffffffffffffffffff1673ffffffffffffffffffffffffffffffffffffffff1681526020019081526020016000206001019080519060200190610926929190610ba0565b505050565b6000600160009054906101000a900473ffffffffffffffffffffffffffffffffffffffff16905090565b60008060009054906101000a900473ffffffffffffffffffffffffffffffffffffffff16905090565b60006060600260008473ffffffffffffffffffffffffffffffffffffffff1673ffffffffffffffffffffffffffffffffffffffff16815260200190815260200160002060000160009054906101000a900460ff1660038111156109dd57fe5b600060038111156109ea57fe5b1415610a5e576040517f08c379a000000000000000000000000000000000000000000000000000000000815260040180806020018281038252601c8152602001807f546869732070726f706f73616c20646f6573206e6f742065786973740000000081525060200191505060405180910390fd5b600260008473ffffffffffffffffffffffffffffffffffffffff1673ffffffffffffffffffffffffffffffffffffffff16815260200190815260200160002060000160009054906101000a900460ff166003811115610ab957fe5b600260008573ffffffffffffffffffffffffffffffffffffffff1673ffffffffffffffffffffffffffffffffffffffff168152602001908152602001600020600101808054600181600116156101000203166002900480601f016020809104026020016040519081016040528092919081815260200182805460018160011615610100020316600290048015610b905780601f10610b6557610100808354040283529160200191610b90565b820191906000526020600020905b815481529060010190602001808311610b7357829003601f168201915b5050505050905091509150915091565b828054600181600116156101000203166002900490600052602060002090601f016020900481019282610bd65760008555610c1d565b82601f10610bef57805160ff1916838001178555610c1d565b82800160010185558215610c1d579182015b82811115610c1c578251825591602001919060010190610c01565b5b509050610c2a9190610c2e565b5090565b5b80821115610c47576000816000905550600101610c2f565b509056fea264697066735822122021198a60394bf36a4538e43ee508fbc6917da88586f56a546d343fab20ed28eb64736f6c634300070600336080604052604051620024b3380380620024b3833981810160405260208110156200002957600080fd5b81019080805160405193929190846401000000008211156200004a57600080fd5b838201915060208201858111156200006157600080fd5b82518660208202830111640100000000821117156200007f57600080fd5b8083526020830192505050908051906020019060200280838360005b83811015620000b85780820151818401526020810190506200009b565b50505050905001604052505050336000806101000a81548173ffffffffffffffffffffffffffffffffffffffff021916908373ffffffffffffffffffffffffffffffffffffffff1602179055506001600360003373ffffffffffffffffffffffffffffffffffffffff1673ffffffffffffffffffffffffffffffffffffffff16815260200190815260200160002060006101000a81548160ff021916908315150217905550600160048190555060005b81518110156200026c57600360008383815181106200018357fe5b602002602001015173ffffffffffffffffffffffffffffffffffffffff1673ffffffffffffffffffffffffffffffffffffffff16815260200190815260200160002060009054906101000a900460ff1615156000151514156200025e57600160036000848481518110620001f357fe5b602002602001015173ffffffffffffffffffffffffffffffffffffffff1673ffffffffffffffffffffffffffffffffffffffff16815260200190815260200160002060006101000a81548160ff02191690831515021790555060016004600082825401925050819055505b808060010191505062000168565b5060006002819055505061222d80620002866000396000f3fe608060405234801561001057600080fd5b506004361061010b5760003560e01c8063769d7235116100a2578063bf3a5c0211610071578063bf3a5c0214610761578063c513c120146107bb578063d744d2f31461089c578063eefe7681146108ba578063fc000500146108d85761010b565b8063769d72351461054857806383c3d8e21461060e5780638a355a57146106ef578063b8a47d7d146107335761010b565b806346a4cacb116100de57806346a4cacb1461034657806368e23af21461040b57806369c4ad95146104295780637065cb48146105045761010b565b80631660c22a14610110578063173825d9146101eb5780632f54bf6e1461022f5780633758349914610289575b600080fd5b6101e96004803603604081101561012657600080fd5b81019080803573ffffffffffffffffffffffffffffffffffffffff1690602001909291908035906020019064010000000081111561016357600080fd5b82018360208201111561017557600080fd5b8035906020019184600183028401116401000000008311171561019757600080fd5b91908080601f016020809104026020016040519081016040528093929190818152602001838380828437600081840152601f19601f8201169050808301925050505050505091929192905050506109b3565b005b61022d6004803603602081101561020157600080fd5b81019080803573ffffffffffffffffffffffffffffffffffffffff169060200190929190505050610bd3565b005b6102716004803603602081101561024557600080fd5b81019080803573ffffffffffffffffffffffffffffffffffffffff169060200190929190505050610e21565b60405180821515815260200191505060405180910390f35b6102cb6004803603602081101561029f57600080fd5b81019080803573ffffffffffffffffffffffffffffffffffffffff169060200190929190505050610e77565b6040518080602001828103825283818151815260200191508051906020019080838360005b8381101561030b5780820151818401526020810190506102f0565b50505050905090810190601f1680156103385780820380516001836020036101000a031916815260200191505b509250505060405180910390f35b6104096004803603604081101561035c57600080fd5b81019080803590602001909291908035906020019064010000000081111561038357600080fd5b82018360208201111561039557600080fd5b803590602001918460018302840111640100000000831117156103b757600080fd5b91908080601f016020809104026020016040519081016040528093929190818152602001838380828437600081840152601f19601f820116905080830192505050505050509192919290505050611024565b005b610413611197565b6040518082815260200191505060405180910390f35b6105026004803603604081101561043f57600080fd5b810190808035906020019064010000000081111561045c57600080fd5b82018360208201111561046e57600080fd5b8035906020019184600183028401116401000000008311171561049057600080fd5b91908080601f016020809104026020016040519081016040528093929190818152602001838380828437600081840152601f19601f820116905080830192505050505050509192919290803573ffffffffffffffffffffffffffffffffffffffff1690602001909291905050506111a4565b005b6105466004803603602081101561051a57600080fd5b81019080803573ffffffffffffffffffffffffffffffffffffffff1690602001909291905050506113cf565b005b61058a6004803603602081101561055e57600080fd5b81019080803573ffffffffffffffffffffffffffffffffffffffff16906020019092919050505061161d565b60405180831515815260200180602001828103825283818151815260200191508051906020019080838360005b838110156105d25780820151818401526020810190506105b7565b50505050905090810190601f1680156105ff5780820380516001836020036101000a031916815260200191505b50935050505060405180910390f35b61063a6004803603602081101561062457600080fd5b81019080803590602001909291905050506116e6565b604051808473ffffffffffffffffffffffffffffffffffffffff168152602001806020018373ffffffffffffffffffffffffffffffffffffffff168152602001828103825284818151815260200191508051906020019080838360005b838110156106b2578082015181840152602081019050610697565b50505050905090810190601f1680156106df5780820380516001836020036101000a031916815260200191505b5094505050505060405180910390f35b6107316004803603602081101561070557600080fd5b81019080803573ffffffffffffffffffffffffffffffffffffffff1690602001909291905050506118ab565b005b61075f6004803603602081101561074957600080fd5b8101908080359060200190929190505050611adf565b005b6107a36004803603602081101561077757600080fd5b81019080803573ffffffffffffffffffffffffffffffffffffffff169060200190929190505050611d0e565b60405180821515815260200191505060405180910390f35b6107e7600480360360208110156107d157600080fd5b8101908080359060200190929190505050611d2e565b604051808473ffffffffffffffffffffffffffffffffffffffff1681526020018373ffffffffffffffffffffffffffffffffffffffff16815260200180602001828103825283818151815260200191508051906020019080838360005b8381101561085f578082015181840152602081019050610844565b50505050905090810190601f16801561088c5780820380516001836020036101000a031916815260200191505b5094505050505060405180910390f35b6108a4611e40565b6040518082815260200191505060405180910390f35b6108c2611e4a565b6040518082815260200191505060405180910390f35b6109b1600480360360408110156108ee57600080fd5b81019080803573ffffffffffffffffffffffffffffffffffffffff1690602001909291908035906020019064010000000081111561092b57600080fd5b82018360208201111561093d57600080fd5b8035906020019184600183028401116401000000008311171561095f57600080fd5b91908080601f016020809104026020016040519081016040528093929190818152602001838380828437600081840152601f19601f820116905080830192505050505050509192919290505050611e54565b005b600360003373ffffffffffffffffffffffffffffffffffffffff1673ffffffffffffffffffffffffffffffffffffffff16815260200190815260200160002060009054906101000a900460ff161515600115151480610a3d57508173ffffffffffffffffffffffffffffffffffffffff163373ffffffffffffffffffffffffffffffffffffffff16145b610aaf576040517f08c379a000000000000000000000000000000000000000000000000000000000815260040180806020018281038252601f8152602001807f4e6f7420616c6c6f77656420746f207570646174652070726f7669646572730081525060200191505060405180910390fd5b600160008373ffffffffffffffffffffffffffffffffffffffff1673ffffffffffffffffffffffffffffffffffffffff16815260200190815260200160002060000160009054906101000a900460ff1615156001151514610b78576040517f08c379a00000000000000000000000000000000000000000000000000000000081526004018080602001828103825260168152602001807f50726f7669646572206e6f74206163746976617465640000000000000000000081525060200191505060405180910390fd5b80600160008473ffffffffffffffffffffffffffffffffffffffff1673ffffffffffffffffffffffffffffffffffffffff1681526020019081526020016000206001019080519060200190610bce9291906120a4565b505050565b600360003373ffffffffffffffffffffffffffffffffffffffff1673ffffffffffffffffffffffffffffffffffffffff16815260200190815260200160002060009054906101000a900460ff161515600115151480610c7d575060008054906101000a900473ffffffffffffffffffffffffffffffffffffffff1673ffffffffffffffffffffffffffffffffffffffff163373ffffffffffffffffffffffffffffffffffffffff16145b610cef576040517f08c379a000000000000000000000000000000000000000000000000000000000815260040180806020018281038252601c8152602001807f4e6f7420616c6c6f77656420746f2072656d6f7665206f776e6572730000000081525060200191505060405180910390fd5b600360008273ffffffffffffffffffffffffffffffffffffffff1673ffffffffffffffffffffffffffffffffffffffff16815260200190815260200160002060009054906101000a900460ff1615156001151514610db5576040517f08c379a000000000000000000000000000000000000000000000000000000000815260040180806020018281038252601a8152602001807f4f776e657220616c72656164792064652d61637469766174656400000000000081525060200191505060405180910390fd5b6000600360008373ffffffffffffffffffffffffffffffffffffffff1673ffffffffffffffffffffffffffffffffffffffff16815260200190815260200160002060006101000a81548160ff021916908315150217905550600160046000828254039250508190555050565b6000600360008373ffffffffffffffffffffffffffffffffffffffff1673ffffffffffffffffffffffffffffffffffffffff16815260200190815260200160002060009054906101000a900460ff169050919050565b6060600160008373ffffffffffffffffffffffffffffffffffffffff1673ffffffffffffffffffffffffffffffffffffffff16815260200190815260200160002060000160009054906101000a900460ff1615156001151514610f42576040517f08c379a00000000000000000000000000000000000000000000000000000000081526004018080602001828103825260178152602001807f50726f766964657220646f6573206e6f7420657869737400000000000000000081525060200191505060405180910390fd5b600160008373ffffffffffffffffffffffffffffffffffffffff1673ffffffffffffffffffffffffffffffffffffffff1681526020019081526020016000206001018054600181600116156101000203166002900480601f0160208091040260200160405190810160405280929190818152602001828054600181600116156101000203166002900480156110185780601f10610fed57610100808354040283529160200191611018565b820191906000526020600020905b815481529060010190602001808311610ffb57829003601f168201915b50505050509050919050565b6005828154811061103157fe5b906000526020600020906003020160000160009054906101000a900473ffffffffffffffffffffffffffffffffffffffff1673ffffffffffffffffffffffffffffffffffffffff163373ffffffffffffffffffffffffffffffffffffffff16146110e6576040517f08c379a00000000000000000000000000000000000000000000000000000000081526004018080602001828103825260308152602001806121c86030913960400191505060405180910390fd5b6005805490508210611160576040517f08c379a00000000000000000000000000000000000000000000000000000000081526004018080602001828103825260198152602001807f43726564656e7469616c20646f6573206e6f742065786973740000000000000081525060200191505060405180910390fd5b806005838154811061116e57fe5b906000526020600020906003020160020190805190602001906111929291906120a4565b505050565b6000600580549050905090565b600160003373ffffffffffffffffffffffffffffffffffffffff1673ffffffffffffffffffffffffffffffffffffffff16815260200190815260200160002060000160009054906101000a900460ff161515600115151461126d576040517f08c379a000000000000000000000000000000000000000000000000000000000815260040180806020018281038252601e8152602001807f4e6f7420616c6c6f77656420746f206164642063726564656e7469616c73000081525060200191505060405180910390fd5b600560405180606001604052803373ffffffffffffffffffffffffffffffffffffffff1681526020018373ffffffffffffffffffffffffffffffffffffffff16815260200184815250908060018154018082558091505060019003906000526020600020906003020160009091909190915060008201518160000160006101000a81548173ffffffffffffffffffffffffffffffffffffffff021916908373ffffffffffffffffffffffffffffffffffffffff16021790555060208201518160010160006101000a81548173ffffffffffffffffffffffffffffffffffffffff021916908373ffffffffffffffffffffffffffffffffffffffff16021790555060408201518160020190805190602001906113899291906120a4565b5050507f5f3527c69a463743c32aceb60e66119f6a798c1faf3de1e3a0a9b7d00c5d26236001600580549050036040518082815260200191505060405180910390a15050565b600360003373ffffffffffffffffffffffffffffffffffffffff1673ffffffffffffffffffffffffffffffffffffffff16815260200190815260200160002060009054906101000a900460ff161515600115151480611479575060008054906101000a900473ffffffffffffffffffffffffffffffffffffffff1673ffffffffffffffffffffffffffffffffffffffff163373ffffffffffffffffffffffffffffffffffffffff16145b6114eb576040517f08c379a00000000000000000000000000000000000000000000000000000000081526004018080602001828103825260198152602001807f4e6f7420616c6c6f77656420746f20616464206f776e6572730000000000000081525060200191505060405180910390fd5b600360008273ffffffffffffffffffffffffffffffffffffffff1673ffffffffffffffffffffffffffffffffffffffff16815260200190815260200160002060009054906101000a900460ff16151560001515146115b1576040517f08c379a00000000000000000000000000000000000000000000000000000000081526004018080602001828103825260178152602001807f4f776e657220616c72656164792061637469766174656400000000000000000081525060200191505060405180910390fd5b6001600360008373ffffffffffffffffffffffffffffffffffffffff1673ffffffffffffffffffffffffffffffffffffffff16815260200190815260200160002060006101000a81548160ff021916908315150217905550600160046000828254019250508190555050565b60016020528060005260406000206000915090508060000160009054906101000a900460ff1690806001018054600181600116156101000203166002900480601f0160208091040260200160405190810160405280929190818152602001828054600181600116156101000203166002900480156116dc5780601f106116b1576101008083540402835291602001916116dc565b820191906000526020600020905b8154815290600101906020018083116116bf57829003601f168201915b5050505050905082565b6000606060006005805490508410611766576040517f08c379a00000000000000000000000000000000000000000000000000000000081526004018080602001828103825260198152602001807f43726564656e7469616c20646f6573206e6f742065786973740000000000000081525060200191505060405180910390fd5b6005848154811061177357fe5b906000526020600020906003020160000160009054906101000a900473ffffffffffffffffffffffffffffffffffffffff16600585815481106117b257fe5b9060005260206000209060030201600201600586815481106117d057fe5b906000526020600020906003020160010160009054906101000a900473ffffffffffffffffffffffffffffffffffffffff16818054600181600116156101000203166002900480601f0160208091040260200160405190810160405280929190818152602001828054600181600116156101000203166002900480156118975780601f1061186c57610100808354040283529160200191611897565b820191906000526020600020905b81548152906001019060200180831161187a57829003601f168201915b505050505091509250925092509193909250565b600360003373ffffffffffffffffffffffffffffffffffffffff1673ffffffffffffffffffffffffffffffffffffffff16815260200190815260200160002060009054906101000a900460ff16151560011515148061193557508073ffffffffffffffffffffffffffffffffffffffff163373ffffffffffffffffffffffffffffffffffffffff16145b6119a7576040517f08c379a000000000000000000000000000000000000000000000000000000000815260040180806020018281038252601f8152602001807f4e6f7420616c6c6f77656420746f2072656d6f76652070726f7669646572730081525060200191505060405180910390fd5b600160008273ffffffffffffffffffffffffffffffffffffffff1673ffffffffffffffffffffffffffffffffffffffff16815260200190815260200160002060000160009054906101000a900460ff1615156001151514611a70576040517f08c379a00000000000000000000000000000000000000000000000000000000081526004018080602001828103825260168152602001807f50726f7669646572206e6f74206163746976617465640000000000000000000081525060200191505060405180910390fd5b6000600160008373ffffffffffffffffffffffffffffffffffffffff1673ffffffffffffffffffffffffffffffffffffffff16815260200190815260200160002060000160006101000a81548160ff021916908315150217905550600160026000828254039250508190555050565b60058181548110611aec57fe5b906000526020600020906003020160000160009054906101000a900473ffffffffffffffffffffffffffffffffffffffff1673ffffffffffffffffffffffffffffffffffffffff163373ffffffffffffffffffffffffffffffffffffffff161480611bc0575060058181548110611b5f57fe5b906000526020600020906003020160010160009054906101000a900473ffffffffffffffffffffffffffffffffffffffff1673ffffffffffffffffffffffffffffffffffffffff163373ffffffffffffffffffffffffffffffffffffffff16145b611c15576040517f08c379a00000000000000000000000000000000000000000000000000000000081526004018080602001828103825260308152602001806121986030913960400191505060405180910390fd5b6005805490508110611c8f576040517f08c379a00000000000000000000000000000000000000000000000000000000081526004018080602001828103825260198152602001807f43726564656e7469616c20646f6573206e6f742065786973740000000000000081525060200191505060405180910390fd5b60058181548110611c9c57fe5b9060005260206000209060030201600080820160006101000a81549073ffffffffffffffffffffffffffffffffffffffff02191690556001820160006101000a81549073ffffffffffffffffffffffffffffffffffffffff0219169055600282016000611d099190612132565b505050565b60036020528060005260406000206000915054906101000a900460ff1681565b60058181548110611d3e57600080fd5b90600052602060002090600302016000915090508060000160009054906101000a900473ffffffffffffffffffffffffffffffffffffffff16908060010160009054906101000a900473ffffffffffffffffffffffffffffffffffffffff1690806002018054600181600116156101000203166002900480601f016020809104026020016040519081016040528092919081815260200182805460018160011615610100020316600290048015611e365780601f10611e0b57610100808354040283529160200191611e36565b820191906000526020600020905b815481529060010190602001808311611e1957829003601f168201915b5050505050905083565b6000600254905090565b6000600454905090565b60008054906101000a900473ffffffffffffffffffffffffffffffffffffffff1673ffffffffffffffffffffffffffffffffffffffff163373ffffffffffffffffffffffffffffffffffffffff1614611f15576040517f08c379a000000000000000000000000000000000000000000000000000000000815260040180806020018281038252601c8152602001807f4e6f7420616c6c6f77656420746f206164642070726f7669646572730000000081525060200191505060405180910390fd5b600160008373ffffffffffffffffffffffffffffffffffffffff1673ffffffffffffffffffffffffffffffffffffffff16815260200190815260200160002060000160009054906101000a900460ff1615156000151514611fde576040517f08c379a000000000000000000000000000000000000000000000000000000000815260040180806020018281038252601a8152602001807f50726f766964657220616c72656164792061637469766174656400000000000081525060200191505060405180910390fd5b80600160008473ffffffffffffffffffffffffffffffffffffffff1673ffffffffffffffffffffffffffffffffffffffff16815260200190815260200160002060010190805190602001906120349291906120a4565b5060018060008473ffffffffffffffffffffffffffffffffffffffff1673ffffffffffffffffffffffffffffffffffffffff16815260200190815260200160002060000160006101000a81548160ff02191690831515021790555060016002600082825401925050819055505050565b828054600181600116156101000203166002900490600052602060002090601f0160209004810192826120da5760008555612121565b82601f106120f357805160ff1916838001178555612121565b82800160010185558215612121579182015b82811115612120578251825591602001919060010190612105565b5b50905061212e919061217a565b5090565b50805460018160011615610100020316600290046000825580601f106121585750612177565b601f016020900490600052602060002090810190612176919061217a565b5b50565b5b8082111561219357600081600090555060010161217b565b509056fe4e6f7420616c6c6f77656420746f2072656d6f7665207468697320706172746963756c61722063726564656e7469616c4e6f7420616c6c6f77656420746f20757064617465207468697320706172746963756c61722063726564656e7469616ca2646970667358221220a625857ce066e624ee761d289d67edf44b41df3c0c7bb9d5895c5c146eb4a31064736f6c63430007060033",
  "immutableReferences": {},
  "source": "// SPDX-License-Identifier: GPL-3.0\r\n\r\npragma solidity >=0.7.0 <0.9.0;\r\n\r\n/**\r\n * @title Storage\r\n * @dev Store & retrieve value in a variable\r\n */\r\n /* \r\n Actors : Creator, Owners, Providers, Holders\r\n Token : Credentials\r\n\r\n 1- Creator (an owner himslef) add Providers and manage Owners (both as creator and owner).\r\n 2- Owners manage other owners and Providers\r\n 3- Providers manage themselves and their own Credentials\r\n 4- Holders can remove their own Credentials\r\n\r\n Providers lifecycle\r\n    Provider Creation : Only creator (proposal contract)\r\n    Provider Update : Any Owner or Provider himself\r\n    Provider Remove : Any Owner or Provider himself\r\n\r\n Credentials lifecycle\r\n    Credential Creation : Any Provider\r\n    Credential Update : Only Provider that created credential\r\n    Credential Remove : Only Provider that created credential or Holder himself    \r\n\r\n Owners lifecycle\r\n    Owner Creation : Any Owner or Creator\r\n    Owner Remove : Any Owner or Creator\r\n */\r\n\r\ncontract Credentials {\r\n    \r\n    event _credentialIdEvent(uint256);\r\n    \r\n    struct _credentialToken{\r\n        address _provider;\r\n        address _holder;\r\n        string _credential;\r\n    }\r\n    \r\n    struct _providerIdentity{\r\n        bool _activated;\r\n        string _providerInfo;\r\n    }\r\n\r\n    // Contract Creator\r\n    address _creator;\r\n    // list and number of providers\r\n    mapping(address => _providerIdentity) public _providers;\r\n    uint256 _numberOfProviders;\r\n    // list and number of owners\r\n    mapping(address => bool) public _owners;\r\n    uint256 _numberOfOwners;\r\n    // list of credentials\r\n    _credentialToken[] public _credentials;\r\n\r\n    constructor(address[] memory owners) payable{\r\n        _creator = msg.sender;\r\n        _owners[msg.sender] = true;\r\n        _numberOfOwners = 1;\r\n        for (uint i=0; i<owners.length; i++) {\r\n            if(false == _owners[owners[i]]){\r\n                _owners[owners[i]] = true;\r\n                _numberOfOwners += 1;\r\n            }\r\n            \r\n        }\r\n        _numberOfProviders = 0;\r\n    }\r\n    \r\n    // PROVIDERS CRUD Operations\r\n\r\n    function addProvider(address provider, string memory providerInfo) public {\r\n       require(msg.sender == _creator, \"Not allowed to add providers\");\r\n       require(false == _providers[provider]._activated, \"Provider already activated\") ;\r\n       _providers[provider]._providerInfo = providerInfo;\r\n       _providers[provider]._activated = true;\r\n       _numberOfProviders += 1;\r\n    }\r\n    \r\n    function removeProvider(address provider) public {\r\n       require(true == _owners[msg.sender] || msg.sender == provider, \"Not allowed to remove providers\");\r\n       require(true == _providers[provider]._activated, \"Provider not activated\");\r\n       _providers[provider]._activated = false;\r\n       _numberOfProviders -= 1;\r\n    }\r\n    \r\n    function updateProvider(address provider, string memory providerInfo) public {\r\n       require(true == _owners[msg.sender] || msg.sender == provider, \"Not allowed to update providers\");\r\n       require(true == _providers[provider]._activated, \"Provider not activated\") ;\r\n       _providers[provider]._providerInfo = providerInfo;\r\n    }\r\n    \r\n    function retrieveProvider(address provider) public view returns (string memory){\r\n        require(true == _providers[provider]._activated, \"Provider does not exist\");\r\n        return _providers[provider]._providerInfo;\r\n    }\r\n    \r\n    function retrieveTotalProviders() public view returns (uint){\r\n        return (_numberOfProviders);\r\n    }\r\n    \r\n    // CREDENTIALS CRUD Operations\r\n\r\n    function addCredential(string memory credential, address holder) public {\r\n       require(true == _providers[msg.sender]._activated, \"Not allowed to add credentials\");\r\n       _credentials.push(_credentialToken(msg.sender, holder, credential));\r\n       emit _credentialIdEvent(_credentials.length - 1);\r\n    }\r\n    \r\n    function removeCredential(uint256 credentialTokenId) public {\r\n       require(msg.sender == _credentials[credentialTokenId]._provider || msg.sender == _credentials[credentialTokenId]._holder, \"Not allowed to remove this particular credential\");\r\n       require(credentialTokenId < _credentials.length, \"Credential does not exist\");\r\n       delete _credentials[credentialTokenId];\r\n    }\r\n    \r\n    function updateCredential(uint256 credentialTokenId, string memory credential) public {\r\n       require(msg.sender == _credentials[credentialTokenId]._provider, \"Not allowed to update this particular credential\");\r\n       require(credentialTokenId < _credentials.length, \"Credential does not exist\");\r\n       _credentials[credentialTokenId]._credential = credential;\r\n    }\r\n\r\n    function retrieveCredential(uint256 credentialTokenId) public view returns (address, string memory, address){\r\n        require(credentialTokenId < _credentials.length, \"Credential does not exist\");\r\n        return (_credentials[credentialTokenId]._provider, _credentials[credentialTokenId]._credential, _credentials[credentialTokenId]._holder);\r\n    }\r\n    \r\n    function retrieveTotalCredential() public view returns (uint){\r\n        return (_credentials.length);\r\n    }\r\n\r\n    // OWNERS CRD Operations\r\n\r\n    function addOwner(address owner) public {\r\n       require(true == _owners[msg.sender] || msg.sender == _creator, \"Not allowed to add owners\");\r\n       require(false == _owners[owner], \"Owner already activated\");\r\n       _owners[owner] = true;\r\n       _numberOfOwners += 1;\r\n    }\r\n    \r\n    function removeOwner(address owner) public {\r\n       require(true == _owners[msg.sender]  || msg.sender == _creator, \"Not allowed to remove owners\");\r\n       require(true == _owners[owner], \"Owner already de-activated\");\r\n       _owners[owner] = false;\r\n        _numberOfOwners -= 1;\r\n    }\r\n\r\n    function isOwner(address owner) public view returns (bool){\r\n        return(_owners[owner]);\r\n    }\r\n \r\n    function retrieveTotalOwners() public view returns (uint){\r\n        return (_numberOfOwners);\r\n    }\r\n\r\n}\r\n\r\n /* \r\n Actors : Chair Person, Anyone\r\n Token : Proposals\r\n\r\n 1- Anyone can submit proposals (paying a fee)\r\n 2- Chair Person can approve proposals creating Providers in Credentials Contract\r\n\r\n\r\n Proposals lifecycle\r\n    Proposals Creation : Anyone (paying fee)\r\n    Proposals Update : \r\n    Proposals Remove :   \r\n    Proposals Validations : Only Chair Person  \r\n\r\n */\r\n\r\ncontract Proposals{\r\n    enum proposalState { NOT_SUBMITTED, PENDING, APPROVED, REJECTED }\r\n    uint constant _PriceWei = 10;\r\n\r\n    Credentials  _credentialsContract;\r\n    \r\n    struct _proposal{\r\n        //bool _submitted;\r\n        proposalState _state;\r\n        string _providerInfo;\r\n    } \r\n    \r\n    address payable _chairperson;\r\n    mapping(address => _proposal) public _proposals;\r\n    address[] listOfOwners;\r\n    \r\n    constructor() payable{\r\n        _chairperson = payable(msg.sender);\r\n        listOfOwners.push(address(msg.sender));\r\n        _credentialsContract = new Credentials(listOfOwners);\r\n    }\r\n    \r\n    // PROPOSALS CRUD Operations\r\n\r\n    function sendProposal(address provider, string memory providerInfo) public payable {\r\n       require(msg.value >= _PriceWei, \"Not enough funds\");\r\n       _chairperson.transfer(msg.value);\r\n       //_proposals[provider]._submitted = true;\r\n       _proposals[provider]._state = proposalState.PENDING;\r\n       _proposals[provider]._providerInfo = providerInfo;\r\n    }\r\n    \r\n    function approveProposal(address provider) public{\r\n        require(msg.sender == _chairperson, \"Not allowed to approve proposals\");\r\n        //require(true == _proposals[provider]._activated, \"This proposal does not exist\");\r\n        require(proposalState.NOT_SUBMITTED != _proposals[provider]._state, \"This proposal does not exist\");\r\n        _credentialsContract.addProvider(provider, _proposals[provider]._providerInfo);\r\n    }\r\n    \r\n    function retrieveProposal(address provider) public view returns (uint, string memory) {\r\n        //require(true == _proposals[provider]._activated, \"This proposal does not exist\");\r\n        require(proposalState.NOT_SUBMITTED != _proposals[provider]._state, \"This proposal does not exist\");\r\n        //return (_proposals[provider]._activated, _proposals[provider]._providerInfo);\r\n        return (uint(_proposals[provider]._state), _proposals[provider]._providerInfo);\r\n    }\r\n    \r\n    // Contract basic information\r\n\r\n    function retrieveCredentialsContractAddress() public view returns (Credentials) {\r\n        return _credentialsContract;\r\n    }\r\n    \r\n    function retrieveChairPerson() public view returns (address) {\r\n        return _chairperson;\r\n    }\r\n    \r\n}",
  "sourcePath": "C:/Users/d-aam/Truffle/contracts/Proposals.sol",
  "compiler": {
    "name": "solc",
    "version": "0.7.6+commit.7338295f.Emscripten.clang"
  },
  "schemaVersion": "3.3.4",
  "updatedAt": "2021-04-23T14:36:49.237Z",
  "devdoc": {
    "kind": "dev",
    "methods": {},
    "version": 1
  },
  "userdoc": {
    "kind": "user",
    "methods": {},
    "version": 1
  }
}