{
  "contractName": "PropositionSettings",
  "abi": [
    {
      "anonymous": false,
      "inputs": [
        {
          "indexed": false,
          "internalType": "uint256",
          "name": "Id",
          "type": "uint256"
        },
        {
          "indexed": true,
          "internalType": "address",
          "name": "Proposer",
          "type": "address"
        },
        {
          "indexed": false,
          "internalType": "uint256",
          "name": "Deadline",
          "type": "uint256"
        },
        {
          "indexed": false,
          "internalType": "uint256",
          "name": "Threshold",
          "type": "uint256"
        }
      ],
      "name": "_AddedProposition",
      "type": "event"
    },
    {
      "anonymous": false,
      "inputs": [
        {
          "indexed": false,
          "internalType": "uint256",
          "name": "Id",
          "type": "uint256"
        },
        {
          "indexed": true,
          "internalType": "address",
          "name": "Proposer",
          "type": "address"
        }
      ],
      "name": "_CancelledProposition",
      "type": "event"
    },
    {
      "anonymous": false,
      "inputs": [
        {
          "indexed": false,
          "internalType": "uint256",
          "name": "LifeTime",
          "type": "uint256"
        },
        {
          "indexed": false,
          "internalType": "uint8",
          "name": "ThresholdPercentage",
          "type": "uint8"
        },
        {
          "indexed": false,
          "internalType": "uint8",
          "name": "minWeightToProposePercentage",
          "type": "uint8"
        }
      ],
      "name": "_NewSettings",
      "type": "event"
    },
    {
      "anonymous": false,
      "inputs": [
        {
          "indexed": false,
          "internalType": "uint256",
          "name": "Id",
          "type": "uint256"
        },
        {
          "indexed": true,
          "internalType": "address",
          "name": "Proposer",
          "type": "address"
        },
        {
          "indexed": false,
          "internalType": "uint256",
          "name": "VotesFor",
          "type": "uint256"
        },
        {
          "indexed": false,
          "internalType": "uint256",
          "name": "VotesAgainst",
          "type": "uint256"
        }
      ],
      "name": "_PropositionApproved",
      "type": "event"
    },
    {
      "anonymous": false,
      "inputs": [
        {
          "indexed": false,
          "internalType": "uint256",
          "name": "Id",
          "type": "uint256"
        },
        {
          "indexed": true,
          "internalType": "address",
          "name": "Proposer",
          "type": "address"
        },
        {
          "indexed": false,
          "internalType": "uint256",
          "name": "VotesFor",
          "type": "uint256"
        },
        {
          "indexed": false,
          "internalType": "uint256",
          "name": "VotesAgainst",
          "type": "uint256"
        }
      ],
      "name": "_PropositionRejected",
      "type": "event"
    },
    {
      "anonymous": false,
      "inputs": [
        {
          "indexed": false,
          "internalType": "uint256",
          "name": "Id",
          "type": "uint256"
        },
        {
          "indexed": true,
          "internalType": "address",
          "name": "Voter",
          "type": "address"
        },
        {
          "indexed": false,
          "internalType": "bool",
          "name": "Vote",
          "type": "bool"
        },
        {
          "indexed": false,
          "internalType": "uint256",
          "name": "AmountTokens",
          "type": "uint256"
        }
      ],
      "name": "_PropositionVote",
      "type": "event"
    },
    {
      "anonymous": false,
      "inputs": [
        {
          "indexed": true,
          "internalType": "uint256",
          "name": "Id",
          "type": "uint256"
        },
        {
          "indexed": false,
          "internalType": "address",
          "name": "From",
          "type": "address"
        },
        {
          "indexed": false,
          "internalType": "address",
          "name": "To",
          "type": "address"
        },
        {
          "indexed": false,
          "internalType": "uint256",
          "name": "Amount",
          "type": "uint256"
        }
      ],
      "name": "_UsedTokensTransfered",
      "type": "event"
    },
    {
      "inputs": [],
      "name": "cancelProposition",
      "outputs": [],
      "stateMutability": "nonpayable",
      "type": "function"
    },
    {
      "inputs": [],
      "name": "isCurrentPropositionProp",
      "outputs": [
        {
          "internalType": "bool",
          "name": "",
          "type": "bool"
        }
      ],
      "stateMutability": "view",
      "type": "function"
    },
    {
      "inputs": [
        {
          "internalType": "address",
          "name": "from",
          "type": "address"
        },
        {
          "internalType": "address",
          "name": "to",
          "type": "address"
        },
        {
          "internalType": "uint256",
          "name": "amount",
          "type": "uint256"
        }
      ],
      "name": "onTokenBalanceChanged",
      "outputs": [],
      "stateMutability": "nonpayable",
      "type": "function"
    },
    {
      "inputs": [],
      "name": "retrieveChairPerson",
      "outputs": [
        {
          "internalType": "address",
          "name": "",
          "type": "address"
        }
      ],
      "stateMutability": "view",
      "type": "function"
    },
    {
      "inputs": [],
      "name": "retrieveContractConfig",
      "outputs": [
        {
          "internalType": "string",
          "name": "",
          "type": "string"
        },
        {
          "internalType": "string",
          "name": "",
          "type": "string"
        }
      ],
      "stateMutability": "view",
      "type": "function"
    },
    {
      "inputs": [],
      "name": "retrieveManagerContract",
      "outputs": [
        {
          "internalType": "address",
          "name": "",
          "type": "address"
        }
      ],
      "stateMutability": "view",
      "type": "function"
    },
    {
      "inputs": [],
      "name": "retrieveNextPropId",
      "outputs": [
        {
          "internalType": "uint256",
          "name": "",
          "type": "uint256"
        }
      ],
      "stateMutability": "view",
      "type": "function"
    },
    {
      "inputs": [
        {
          "internalType": "address",
          "name": "addr",
          "type": "address"
        },
        {
          "internalType": "uint256",
          "name": "nonce",
          "type": "uint256"
        }
      ],
      "name": "retrieveNonce",
      "outputs": [
        {
          "internalType": "bool",
          "name": "",
          "type": "bool"
        }
      ],
      "stateMutability": "view",
      "type": "function"
    },
    {
      "inputs": [],
      "name": "retrievePendingPropConfig",
      "outputs": [
        {
          "internalType": "uint256",
          "name": "",
          "type": "uint256"
        },
        {
          "internalType": "uint8",
          "name": "",
          "type": "uint8"
        },
        {
          "internalType": "uint8",
          "name": "",
          "type": "uint8"
        },
        {
          "internalType": "bool",
          "name": "",
          "type": "bool"
        }
      ],
      "stateMutability": "view",
      "type": "function"
    },
    {
      "inputs": [],
      "name": "retrievePropConfig",
      "outputs": [
        {
          "internalType": "uint256",
          "name": "",
          "type": "uint256"
        },
        {
          "internalType": "uint8",
          "name": "",
          "type": "uint8"
        },
        {
          "internalType": "uint8",
          "name": "",
          "type": "uint8"
        }
      ],
      "stateMutability": "view",
      "type": "function"
    },
    {
      "inputs": [],
      "name": "retrievePropositionStatus",
      "outputs": [
        {
          "internalType": "address",
          "name": "",
          "type": "address"
        },
        {
          "internalType": "uint256",
          "name": "",
          "type": "uint256"
        },
        {
          "internalType": "uint256",
          "name": "",
          "type": "uint256"
        },
        {
          "internalType": "uint256",
          "name": "",
          "type": "uint256"
        },
        {
          "internalType": "uint256",
          "name": "",
          "type": "uint256"
        }
      ],
      "stateMutability": "view",
      "type": "function"
    },
    {
      "inputs": [
        {
          "internalType": "uint256",
          "name": "PropId",
          "type": "uint256"
        },
        {
          "internalType": "address",
          "name": "voter",
          "type": "address"
        }
      ],
      "name": "retrieveVotesForVoter",
      "outputs": [
        {
          "internalType": "uint256",
          "name": "",
          "type": "uint256"
        }
      ],
      "stateMutability": "view",
      "type": "function"
    },
    {
      "inputs": [
        {
          "internalType": "uint256",
          "name": "PropLifeTime",
          "type": "uint256"
        },
        {
          "internalType": "uint8",
          "name": "PropThresholdPerc",
          "type": "uint8"
        },
        {
          "internalType": "uint8",
          "name": "minWeightToPropPerc",
          "type": "uint8"
        }
      ],
      "name": "updateProp",
      "outputs": [],
      "stateMutability": "nonpayable",
      "type": "function"
    },
    {
      "inputs": [
        {
          "internalType": "bool",
          "name": "vote",
          "type": "bool"
        }
      ],
      "name": "voteProposition",
      "outputs": [],
      "stateMutability": "nonpayable",
      "type": "function"
    },
    {
      "inputs": [
        {
          "internalType": "address",
          "name": "voter",
          "type": "address"
        },
        {
          "internalType": "uint256",
          "name": "propID",
          "type": "uint256"
        },
        {
          "internalType": "bool",
          "name": "vote",
          "type": "bool"
        },
        {
          "internalType": "uint256",
          "name": "nonce",
          "type": "uint256"
        },
        {
          "internalType": "uint256",
          "name": "deadline",
          "type": "uint256"
        },
        {
          "internalType": "bytes",
          "name": "signature",
          "type": "bytes"
        }
      ],
      "name": "votePropositionOnBehalfOf",
      "outputs": [],
      "stateMutability": "nonpayable",
      "type": "function"
    },
    {
      "inputs": [
        {
          "internalType": "address",
          "name": "managerContractAddress",
          "type": "address"
        },
        {
          "internalType": "address",
          "name": "chairPerson",
          "type": "address"
        },
        {
          "internalType": "uint256",
          "name": "PropositionLifeTime",
          "type": "uint256"
        },
        {
          "internalType": "uint8",
          "name": "PropositionThresholdPercentage",
          "type": "uint8"
        },
        {
          "internalType": "uint8",
          "name": "minWeightToProposePercentage",
          "type": "uint8"
        },
        {
          "internalType": "string",
          "name": "contractName",
          "type": "string"
        },
        {
          "internalType": "string",
          "name": "contractVersion",
          "type": "string"
        }
      ],
      "name": "PropositionSettings_init",
      "outputs": [],
      "stateMutability": "nonpayable",
      "type": "function"
    },
    {
      "inputs": [
        {
          "internalType": "uint256",
          "name": "PropositionLifeTime",
          "type": "uint256"
        },
        {
          "internalType": "uint8",
          "name": "PropositionThresholdPercentage",
          "type": "uint8"
        },
        {
          "internalType": "uint8",
          "name": "minWeightToProposePercentage",
          "type": "uint8"
        }
      ],
      "name": "updateSettings",
      "outputs": [],
      "stateMutability": "nonpayable",
      "type": "function"
    },
    {
      "inputs": [],
      "name": "retrieveProposition",
      "outputs": [
        {
          "internalType": "bytes32[]",
          "name": "",
          "type": "bytes32[]"
        }
      ],
      "stateMutability": "view",
      "type": "function"
    },
    {
      "inputs": [],
      "name": "retrieveSettings",
      "outputs": [
        {
          "internalType": "uint256",
          "name": "",
          "type": "uint256"
        },
        {
          "internalType": "uint8",
          "name": "",
          "type": "uint8"
        },
        {
          "internalType": "uint8",
          "name": "",
          "type": "uint8"
        }
      ],
      "stateMutability": "view",
      "type": "function"
    }
  ],
  "bytecode": "0x608060405234801561001057600080fd5b50611f48806100206000396000f3fe608060405234801561001057600080fd5b50600436106100f15760003560e01c806304cc67a9146100f65780633c7df55d1461010d5780633feca4ca146101225780634044adb21461016b57806355457ee9146101a15780635b362e84146101a95780635e044803146101c957806379dc2839146101dc5780637faa3d6f146101ef578063840f6d171461020257806390d138ed1461024357806391f9167114610277578063a93316f51461028a578063ac2bb4421461029f578063b049473f146102b2578063bc3be096146102d4578063d2116a02146102e5578063d660ab34146102fb578063db85bc4d14610312575b600080fd5b600b545b6040519081526020015b60405180910390f35b61012061011b3660046118db565b610323565b005b61015b6101303660046119cf565b6001600160a01b03919091166000908152600260209081526040808320938352929052205460ff1690565b6040519015158152602001610104565b6100fa610179366004611adf565b6000918252600c602090815260408084206001600160a01b0393909316845291905290205490565b610120610423565b6003546201000090046001600160a01b03165b6040516101049190611c38565b6101206101d736600461191c565b6104f5565b6101206101ea366004611b0f565b61058d565b6101206101fd3660046119fb565b61059f565b600654600754600854600954600a54604080516001600160a01b0390961686526020860194909452928401919091526060830152608082015260a001610104565b61024b6105bf565b604051610104949392919093845260ff9283166020850152911660408301521515606082015260800190565b610120610285366004611a8c565b61061a565b610292610627565b6040516101049190611cd9565b6101206102ad366004611b0f565b610849565b60115460125460ff808216916101009004165b60405161010493929190611dce565b600e5462010000900460ff1661015b565b6102ed610856565b604051610104929190611d1d565b600d54600e5460ff808216916101009004166102c5565b6004546001600160a01b03166101bc565b3373__Library_______________________________6337ea306382600360029054906101000a90046001600160a01b03166001600160a01b031663da3dce266040518163ffffffff1660e01b815260040160206040518083038186803b15801561038d57600080fd5b505afa1580156103a1573d6000803e3d6000fd5b505050506040513d601f19601f820116820180604052508101906103c591906118be565b6040518363ffffffff1660e01b81526004016103e2929190611c4c565b60006040518083038186803b1580156103fa57600080fd5b505af415801561040e573d6000803e3d6000fd5b5050505061041d84848461097d565b50505050565b600161042e8161099a565b6006546040516337ea306360e01b8152339173__Library_______________________________916337ea3063916104749185916001600160a01b031690600401611c4c565b60006040518083038186803b15801561048c57600080fd5b505af41580156104a0573d6000803e3d6000fd5b505050506104ac610a1e565b6006546005546040519081526001600160a01b03909116907f1fe8aec10c0a50fa765076161e08c1f961ced69594ff45cf7d559f593afe14799060200160405180910390a25050565b600354610100900460ff168061050e575060035460ff16155b6105335760405162461bcd60e51b815260040161052a90611d6a565b60405180910390fd5b600354610100900460ff16158015610555576003805461ffff19166101011790555b6105648686868a8c8888610a49565b6105718686866001610ae0565b8015610583576003805461ff00191690555b5050505050505050565b61059a8383836000610ae0565b505050565b6105ad868686868686610b85565b6105b78685610ce4565b505050505050565b600080600080600e60029054906101000a900460ff1680156105e2575060075442105b15610607575050600f5460105490925060ff8082169250610100909104166001610614565b5060009250829150819050805b90919293565b6106243382610ce4565b50565b60408051600380825260808201909252606091600091906020820184803683375050601354604051631635719760e31b8152600481019190915291925073__UintLibrary___________________________9163b1ab8cb8915060240160206040518083038186803b15801561069c57600080fd5b505af41580156106b0573d6000803e3d6000fd5b505050506040513d601f19601f820116820180604052508101906106d49190611ac6565b816000815181106106e7576106e7611ec3565b6020908102919091010152601454604051631635719760e31b815260ff909116600482015273__UintLibrary___________________________9063b1ab8cb89060240160206040518083038186803b15801561074357600080fd5b505af4158015610757573d6000803e3d6000fd5b505050506040513d601f19601f8201168201806040525081019061077b9190611ac6565b8160018151811061078e5761078e611ec3565b6020908102919091010152601454604051631635719760e31b815261010090910460ff16600482015273__UintLibrary___________________________9063b1ab8cb89060240160206040518083038186803b1580156107ee57600080fd5b505af4158015610802573d6000803e3d6000fd5b505050506040513d601f19601f820116820180604052508101906108269190611ac6565b8160028151811061083957610839611ec3565b6020908102919091010152919050565b61059a8383836000610dfb565b6060806000600181805461086990611e57565b80601f016020809104026020016040519081016040528092919081815260200182805461089590611e57565b80156108e25780601f106108b7576101008083540402835291602001916108e2565b820191906000526020600020905b8154815290600101906020018083116108c557829003601f168201915b505050505091508080546108f590611e57565b80601f016020809104026020016040519081016040528092919081815260200182805461092190611e57565b801561096e5780601f106109435761010080835404028352916020019161096e565b820191906000526020600020905b81548152906001019060200180831161095157829003601f168201915b50505050509050915091509091565b610985610ea9565b15156001141561059a5761059a838383610ee3565b80156109e1576109a8610ea9565b15156001146106245760405162461bcd60e51b8152602060048201526005602482015264454332352d60d81b604482015260640161052a565b6109e9610ea9565b156106245760405162461bcd60e51b8152602060048201526005602482015264454332342d60d81b604482015260640161052a565b60006005819055600680546001600160a01b0319169055600781905560088190556009819055600a55565b600354610100900460ff1680610a62575060035460ff16155b610a7e5760405162461bcd60e51b815260040161052a90611d6a565b600354610100900460ff16158015610aa0576003805461ffff19166101011790555b610aa984611053565b600480546001600160a01b0319166001600160a01b0387161790556000600b55610ad383836110e2565b6105718888886001610dfb565b82828160ff1660641015610b065760405162461bcd60e51b815260040161052a90611d4b565b8060ff1660641015610b2a5760405162461bcd60e51b815260040161052a90611d4b565b8215610b555760118690556012805460ff8681166101000261ffff19909216908816171790556105b7565b610b5d611109565b60138690556014805460ff8681166101000261ffff1990921690881617179055505050505050565b81610b8f8161126d565b8684610b9b82826112a4565b6005548814610bd45760405162461bcd60e51b8152602060048201526005602482015264454333352d60d81b604482015260640161052a565b60405163432f9a5560e01b815273__SignatureLibrary______________________9063432f9a5590610c1b908c908c908c908c908c908c90600090600190600401611c66565b60206040518083038186803b158015610c3357600080fd5b505af4158015610c47573d6000803e3d6000fd5b505050506040513d601f19601f82011682018060405250810190610c6b9190611aa9565b1515600114610ca45760405162461bcd60e51b8152602060048201526005602482015264454333322d60d81b604482015260640161052a565b610cd989876001600160a01b03909116600090815260026020908152604080832093835292905220805460ff19166001179055565b505050505050505050565b6001610cef8161099a565b60055483906000610d008383611300565b905060008111610d3a5760405162461bcd60e51b8152602060048201526005602482015264454332332d60d81b604482015260640161052a565b6000610d4b87600560000154611300565b90508515610d73578060056004016000828254610d689190611de7565b90915550610d8d9050565b80600580016000828254610d879190611de7565b90915550505b600554610d9b90888361133d565b60055460408051918252871515602083015281018290526001600160a01b038816907f50f654d58981575c05e369cb129aeacb01e1b036af429380242cfc5d1a4b743f9060600160405180910390a2610df2611379565b50505050505050565b82828160ff1660641015610e215760405162461bcd60e51b815260040161052a90611d4b565b8060ff1660641015610e455760405162461bcd60e51b815260040161052a90611d4b565b8215610e7057600d869055600e805460ff8681166101000261ffff19909216908816171790556105b7565b600f8690556010805460ff8681166101000261ffff1990921690881617179055600e805462ff00001916620100001790556105b7611109565b600754600090421015610ebc5750600190565b6006546001600160a01b031615610edd57610ed56114b9565b610edd610a1e565b50600090565b6001600160a01b03831615801590610f1f57506005546000908152600c602090815260408083206001600160a01b038716845290915290205415155b1561059a576005546000908152600c602090815260408083206001600160a01b03871684529091529020548190811115610f7b57506005546000908152600c602090815260408083206001600160a01b03871684529091529020545b6005546000908152600c602090815260408083206001600160a01b038816845290915281208054839290610fb0908490611e40565b90915550506001600160a01b03831615610fff576005546000908152600c602090815260408083206001600160a01b038716845290915281208054839290610ff9908490611de7565b90915550505b600554604080516001600160a01b038088168252861660208201529081018390527f65fbd5e5dd32bea4aeca85bd0be0abf0e489d655dee888a7510d43b06dda2dba9060600160405180910390a250505050565b600354610100900460ff168061106c575060035460ff16155b6110885760405162461bcd60e51b815260040161052a90611d6a565b600354610100900460ff161580156110aa576003805461ffff19166101011790555b6003805462010000600160b01b031916620100006001600160a01b0385160217905580156110de576003805461ff00191690555b5050565b81516110f590600090602085019061177a565b50805161059a90600190602084019061177a565b60006111148161099a565b60045433906000906001600160a01b031682141561113457506001611178565b600061113f836114c1565b9050606461114b6115ca565b600e546111609190610100900460ff16611e21565b61116a9190611dff565b81111561117657600191505b505b6001811515146111b25760405162461bcd60e51b8152602060048201526005602482015264454332322d60d81b604482015260640161052a565b600680546001600160a01b03191633179055600d546111d19042611de7565b600755600e5460649060ff166111e56115ca565b6111ef9190611e21565b6111f99190611dff565b600855600b8054600581905590600061121183611e92565b90915550506006546005546007546008546040516001600160a01b03909416937f472501d19bf75639b2e316cd36f8568b0c3ab943b82a87de3c086c98c1929df9936112609390929091611db8565b60405180910390a2505050565b8042106106245760405162461bcd60e51b8152602060048201526005602482015264454333332d60d81b604482015260640161052a565b6001600160a01b038216600090815260026020908152604080832084845290915290205460ff16156110de5760405162461bcd60e51b8152602060048201526005602482015264454333342d60d81b604482015260640161052a565b6000818152600c602090815260408083206001600160a01b038616845290915281205461132c846114c1565b6113369190611e40565b9392505050565b6000838152600c602090815260408083206001600160a01b03861684529091528120805483929061136f908490611de7565b9091555050505050565b6008546009541061143457600e5462010000900460ff16156113d057600f54600d55601054600e805461010080840460ff90811690910261ffff199092169316929092179190911790556113cb6116c7565b6113d8565b6113d86116e5565b6113e0610a1e565b600654600554600954600a546040516001600160a01b03909416937f23ca0034cf5aad32571b4a492e9598ea8a490e1643a60970e3cdc6933b55e49f9361142a9390929091611db8565b60405180910390a2565b600854600a54106114b757600e5462010000900460ff161561145d576114586116c7565b611465565b6114656114b9565b61146d610a1e565b600654600554600954600a546040516001600160a01b03909416937fa58eb6daa3c62c3f883973c4035e5bd3e81aa627c8379de068a7de42df122be29361142a9390929091611db8565b565b6114b7611768565b6000600360029054906101000a90046001600160a01b03166001600160a01b031663da3dce266040518163ffffffff1660e01b815260040160206040518083038186803b15801561151157600080fd5b505afa158015611525573d6000803e3d6000fd5b505050506040513d601f19601f8201168201806040525081019061154991906118be565b6001600160a01b03166370a08231836040518263ffffffff1660e01b81526004016115749190611c38565b60206040518083038186803b15801561158c57600080fd5b505afa1580156115a0573d6000803e3d6000fd5b505050506040513d601f19601f820116820180604052508101906115c49190611ac6565b92915050565b6000600360029054906101000a90046001600160a01b03166001600160a01b031663da3dce266040518163ffffffff1660e01b815260040160206040518083038186803b15801561161a57600080fd5b505afa15801561162e573d6000803e3d6000fd5b505050506040513d601f19601f8201168201806040525081019061165291906118be565b6001600160a01b03166318160ddd6040518163ffffffff1660e01b815260040160206040518083038186803b15801561168a57600080fd5b505afa15801561169e573d6000803e3d6000fd5b505050506040513d601f19601f820116820180604052508101906116c29190611ac6565b905090565b6000600f556010805461ffff19169055600e805462ff000019169055565b6013546011556014546012805461010080840460ff90811690910261ffff1990921693169290921791909117905561171b611768565b6011546012546040517f83deefe7fb1ea73067fb2d8cf1e52c3d0027e44736b48a1ea92352a1096fd8d49261175e92909160ff8083169261010090041690611dce565b60405180910390a1565b60006013556014805461ffff19169055565b82805461178690611e57565b90600052602060002090601f0160209004810192826117a857600085556117ee565b82601f106117c157805160ff19168380011785556117ee565b828001600101855582156117ee579182015b828111156117ee5782518255916020019190600101906117d3565b506117fa9291506117fe565b5090565b5b808211156117fa57600081556001016117ff565b60006001600160401b038084111561182d5761182d611ed9565b604051601f8501601f19908116603f0116810190828211818310171561185557611855611ed9565b8160405280935085815286868601111561186e57600080fd5b858560208301376000602087830101525050509392505050565b600082601f83011261189957600080fd5b61133683833560208501611813565b803560ff811681146118b957600080fd5b919050565b6000602082840312156118d057600080fd5b815161133681611eef565b6000806000606084860312156118f057600080fd5b83356118fb81611eef565b9250602084013561190b81611eef565b929592945050506040919091013590565b600080600080600080600060e0888a03121561193757600080fd5b873561194281611eef565b9650602088013561195281611eef565b955060408801359450611967606089016118a8565b9350611975608089016118a8565b925060a08801356001600160401b038082111561199157600080fd5b61199d8b838c01611888565b935060c08a01359150808211156119b357600080fd5b506119c08a828b01611888565b91505092959891949750929550565b600080604083850312156119e257600080fd5b82356119ed81611eef565b946020939093013593505050565b60008060008060008060c08789031215611a1457600080fd5b8635611a1f81611eef565b9550602087013594506040870135611a3681611f04565b9350606087013592506080870135915060a08701356001600160401b03811115611a5f57600080fd5b8701601f81018913611a7057600080fd5b611a7f89823560208401611813565b9150509295509295509295565b600060208284031215611a9e57600080fd5b813561133681611f04565b600060208284031215611abb57600080fd5b815161133681611f04565b600060208284031215611ad857600080fd5b5051919050565b60008060408385031215611af257600080fd5b823591506020830135611b0481611eef565b809150509250929050565b600080600060608486031215611b2457600080fd5b83359250611b34602085016118a8565b9150611b42604085016118a8565b90509250925092565b6000815180845260005b81811015611b7157602081850181015186830182015201611b55565b81811115611b83576000602083870101525b50601f01601f19169290920160200192915050565b8054600090600181811c9080831680611bb257607f831692505b6020808410821415611bd457634e487b7160e01b600052602260045260246000fd5b83885260208801828015611bef5760018114611c0057611c2b565b60ff19871682528282019750611c2b565b60008981526020902060005b87811015611c2557815484820152908601908401611c0c565b83019850505b5050505050505092915050565b6001600160a01b0391909116815260200190565b6001600160a01b0392831681529116602082015260400190565b600061010060018060a01b038b16835289602084015288151560408401528760608401528660808401528060a0840152611ca281840187611b4b565b905082810360c0840152611cb68186611b98565b905082810360e0840152611cca8185611b98565b9b9a5050505050505050505050565b6020808252825182820181905260009190848201906040850190845b81811015611d1157835183529284019291840191600101611cf5565b50909695505050505050565b604081526000611d306040830185611b4b565b8281036020840152611d428185611b4b565b95945050505050565b602080825260059082015264454332312d60d81b604082015260600190565b6020808252602e908201527f496e697469616c697a61626c653a20636f6e747261637420697320616c72656160408201526d191e481a5b9a5d1a585b1a5e995960921b606082015260800190565b9283526020830191909152604082015260600190565b92835260ff918216602084015216604082015260600190565b60008219821115611dfa57611dfa611ead565b500190565b600082611e1c57634e487b7160e01b600052601260045260246000fd5b500490565b6000816000190483118215151615611e3b57611e3b611ead565b500290565b600082821015611e5257611e52611ead565b500390565b600181811c90821680611e6b57607f821691505b60208210811415611e8c57634e487b7160e01b600052602260045260246000fd5b50919050565b6000600019821415611ea657611ea6611ead565b5060010190565b634e487b7160e01b600052601160045260246000fd5b634e487b7160e01b600052603260045260246000fd5b634e487b7160e01b600052604160045260246000fd5b6001600160a01b038116811461062457600080fd5b801515811461062457600080fdfea26469706673582212208ad161ff5e2a5eb51ded13c101ccc69f980bfb609cf327b776134f584ed8619764736f6c63430008070033",
  "immutableReferences": {},
  "source": "// SPDX-License-Identifier: GPL-3.0\r\n\r\npragma solidity 0.8.7;\r\n\r\n/**\r\n  Events : \r\n    - New Settings Added : list of settings\r\n */\r\n\r\nimport \"../Interfaces/IPropositionSettings.sol\";\r\nimport \"../Libraries/UintLibrary.sol\";\r\nimport \"../Base/TokenGovernanceBaseContract.sol\";\r\n\r\ncontract PropositionSettings is IPropositionSettings, TokenGovernanceBaseContract{\r\n    using UintLibrary for *;\r\n\r\n    // EVENTS /////////////////////////////////////////\r\n    event _NewSettings(uint256 LifeTime, uint8 ThresholdPercentage, uint8 minWeightToProposePercentage);\r\n\r\n    // DATA /////////////////////////////////////////\r\n    uint256 internal _LifeTime;\r\n    uint8 internal _ThresholdPerc;\r\n    uint8 internal _minWeightToProposePerc;\r\n\r\n    // proposition to change prices\r\n    struct ProposedSettingsStruct{\r\n        uint256 NewLifeTime;\r\n        uint8 NewThresholdPerc;\r\n        uint8 NewMinWeightToProposePerc;\r\n    }\r\n\r\n    ProposedSettingsStruct internal _ProposedSettings;\r\n\r\n    // MODIFIERS /////////////////////////////////////////\r\n    modifier areSettingsOK(uint8 PropositionThresholdPercentage, uint8 minWeightToProposePercentage){\r\n        require(100 >= PropositionThresholdPercentage, \"EC21-\");\r\n        require(100 >= minWeightToProposePercentage, \"EC21-\");\r\n        _;\r\n    }\r\n    \r\n    // CONSTRUCTOR /////////////////////////////////////////\r\n    function PropositionSettings_init(address managerContractAddress, address chairPerson, uint256 PropositionLifeTime, uint8 PropositionThresholdPercentage, uint8 minWeightToProposePercentage, string memory contractName, string memory contractVersion) public initializer \r\n    {\r\n        super.TokenGovernanceContract_init(PropositionLifeTime, PropositionThresholdPercentage, minWeightToProposePercentage, chairPerson, managerContractAddress, contractName, contractVersion);\r\n        InternalupdateSettings(PropositionLifeTime, PropositionThresholdPercentage, minWeightToProposePercentage, true);\r\n    }\r\n\r\n    // GOVERNANCE /////////////////////////////////////////\r\n    function updateSettings(uint256 PropositionLifeTime, uint8 PropositionThresholdPercentage, uint8 minWeightToProposePercentage) external override\r\n    {\r\n        InternalupdateSettings(PropositionLifeTime, PropositionThresholdPercentage, minWeightToProposePercentage, false);\r\n    }\r\n\r\n    function InternalupdateSettings(uint256 PropLifeTime, uint8 PropThresholdPerc, uint8 minWeightToPropPerc, bool fromConstructor) internal\r\n        areSettingsOK(PropThresholdPerc, minWeightToPropPerc)\r\n    {\r\n        if(fromConstructor){\r\n            _LifeTime = PropLifeTime;\r\n            _ThresholdPerc = PropThresholdPerc;\r\n            _minWeightToProposePerc = minWeightToPropPerc;\r\n        }\r\n        else{\r\n            addProposition();\r\n            _ProposedSettings.NewLifeTime = PropLifeTime;\r\n            _ProposedSettings.NewThresholdPerc = PropThresholdPerc;\r\n            _ProposedSettings.NewMinWeightToProposePerc = minWeightToPropPerc;\r\n        }   \r\n        \r\n    }\r\n\r\n    function propositionApproved() internal override\r\n    {\r\n        _LifeTime = _ProposedSettings.NewLifeTime;\r\n        _ThresholdPerc = _ProposedSettings.NewThresholdPerc;\r\n        _minWeightToProposePerc = _ProposedSettings.NewMinWeightToProposePerc;\r\n        \r\n        removeProposition();\r\n\r\n        emit _NewSettings(_LifeTime, _ThresholdPerc, _minWeightToProposePerc);\r\n    }\r\n\r\n    function propositionRejected() internal override\r\n    {\r\n        removeProposition();\r\n    }\r\n\r\n    function propositionExpired() internal override\r\n    {\r\n        removeProposition();\r\n    }\r\n\r\n    function removeProposition() internal\r\n    {\r\n         delete(_ProposedSettings);\r\n    }\r\n\r\n    function retrieveProposition() external override view returns(bytes32[] memory)\r\n    {\r\n        bytes32[] memory proposition = new bytes32[](3);\r\n        proposition[0] = UintLibrary.UintToBytes32(_ProposedSettings.NewLifeTime);\r\n        proposition[1] = UintLibrary.UintToBytes32(_ProposedSettings.NewThresholdPerc);\r\n        proposition[2] = UintLibrary.UintToBytes32(_ProposedSettings.NewMinWeightToProposePerc);\r\n        return proposition;\r\n    }\r\n\r\n    function retrieveSettings() external override view returns(uint256, uint8, uint8)\r\n    {\r\n        return(_LifeTime, _ThresholdPerc, _minWeightToProposePerc);\r\n    }\r\n\r\n\r\n}",
  "sourcePath": "C:/Users/d-aam/GitHub/Certificates/contracts/DeployedContracts/PropositionSettings.sol",
  "compiler": {
    "name": "solc",
    "version": "0.8.7+commit.e28d00a7.Emscripten.clang"
  },
  "schemaVersion": "3.3.4",
  "updatedAt": "2021-10-27T09:39:55.643Z",
  "devdoc": {
    "kind": "dev",
    "methods": {},
    "version": 1
  },
  "userdoc": {
    "kind": "user",
    "methods": {},
    "version": 1
  }
}