{
  "contractName": "Proposals",
  "abi": [
    {
      "inputs": [],
      "stateMutability": "payable",
      "type": "constructor"
    },
    {
      "inputs": [
        {
          "internalType": "address",
          "name": "",
          "type": "address"
        }
      ],
      "name": "_proposals",
      "outputs": [
        {
          "internalType": "bool",
          "name": "_activated",
          "type": "bool"
        },
        {
          "internalType": "string",
          "name": "_providerInfo",
          "type": "string"
        }
      ],
      "stateMutability": "view",
      "type": "function"
    },
    {
      "inputs": [
        {
          "internalType": "address",
          "name": "provider",
          "type": "address"
        },
        {
          "internalType": "string",
          "name": "providerInfo",
          "type": "string"
        }
      ],
      "name": "sendProposal",
      "outputs": [],
      "stateMutability": "payable",
      "type": "function"
    },
    {
      "inputs": [
        {
          "internalType": "address",
          "name": "provider",
          "type": "address"
        }
      ],
      "name": "approveProposal",
      "outputs": [],
      "stateMutability": "nonpayable",
      "type": "function"
    },
    {
      "inputs": [],
      "name": "retreiveCredentialsContractAddress",
      "outputs": [
        {
          "internalType": "contract Credentials",
          "name": "",
          "type": "address"
        }
      ],
      "stateMutability": "view",
      "type": "function"
    },
    {
      "inputs": [],
      "name": "retreiveChairPerson",
      "outputs": [
        {
          "internalType": "address",
          "name": "",
          "type": "address"
        }
      ],
      "stateMutability": "view",
      "type": "function"
    }
  ],
  "bytecode": "0x608060405233600160006101000a81548173ffffffffffffffffffffffffffffffffffffffff021916908373ffffffffffffffffffffffffffffffffffffffff1602179055506003339080600181540180825580915050600190039060005260206000200160009091909190916101000a81548173ffffffffffffffffffffffffffffffffffffffff021916908373ffffffffffffffffffffffffffffffffffffffff16021790555060036040516100b690610195565b8080602001828103825283818154815260200191508054801561012e57602002820191906000526020600020905b8160009054906101000a900473ffffffffffffffffffffffffffffffffffffffff1673ffffffffffffffffffffffffffffffffffffffff16815260200190600101908083116100e4575b505092505050604051809103906000f080158015610150573d6000803e3d6000fd5b506000806101000a81548173ffffffffffffffffffffffffffffffffffffffff021916908373ffffffffffffffffffffffffffffffffffffffff1602179055506101a2565b611e5f80610b0f83390190565b61095e806101b16000396000f3fe60806040526004361061004a5760003560e01c806303354faa1461004f5780633225c399146100a05780634f3f6c29146100e1578063858e7ce6146101b4578063b0009c421461028f575b600080fd5b34801561005b57600080fd5b5061009e6004803603602081101561007257600080fd5b81019080803573ffffffffffffffffffffffffffffffffffffffff1690602001909291905050506102d0565b005b3480156100ac57600080fd5b506100b56105cb565b604051808273ffffffffffffffffffffffffffffffffffffffff16815260200191505060405180910390f35b3480156100ed57600080fd5b506101306004803603602081101561010457600080fd5b81019080803573ffffffffffffffffffffffffffffffffffffffff1690602001909291905050506105f4565b60405180831515815260200180602001828103825283818151815260200191508051906020019080838360005b8381101561017857808201518184015260208101905061015d565b50505050905090810190601f1680156101a55780820380516001836020036101000a031916815260200191505b50935050505060405180910390f35b61028d600480360360408110156101ca57600080fd5b81019080803573ffffffffffffffffffffffffffffffffffffffff1690602001909291908035906020019064010000000081111561020757600080fd5b82018360208201111561021957600080fd5b8035906020019184600183028401116401000000008311171561023b57600080fd5b91908080601f016020809104026020016040519081016040528093929190818152602001838380828437600081840152601f19601f8201169050808301925050505050505091929192905050506106bd565b005b34801561029b57600080fd5b506102a4610853565b604051808273ffffffffffffffffffffffffffffffffffffffff16815260200191505060405180910390f35b600160009054906101000a900473ffffffffffffffffffffffffffffffffffffffff1673ffffffffffffffffffffffffffffffffffffffff163373ffffffffffffffffffffffffffffffffffffffff1614610393576040517f08c379a00000000000000000000000000000000000000000000000000000000081526004018080602001828103825260208152602001807f4e6f7420616c6c6f77656420746f20617070726f76652070726f706f73616c7381525060200191505060405180910390fd5b600260008273ffffffffffffffffffffffffffffffffffffffff1673ffffffffffffffffffffffffffffffffffffffff16815260200190815260200160002060000160009054906101000a900460ff161515600115151461045c576040517f08c379a000000000000000000000000000000000000000000000000000000000815260040180806020018281038252601c8152602001807f546869732070726f706f73616c20646f6573206e6f742065786973740000000081525060200191505060405180910390fd5b60008054906101000a900473ffffffffffffffffffffffffffffffffffffffff1673ffffffffffffffffffffffffffffffffffffffff1663fc00050082600260008573ffffffffffffffffffffffffffffffffffffffff1673ffffffffffffffffffffffffffffffffffffffff1681526020019081526020016000206001016040518363ffffffff1660e01b8152600401808373ffffffffffffffffffffffffffffffffffffffff1681526020018060200182810382528381815460018160011615610100020316600290048152602001915080546001816001161561010002031660029004801561058f5780601f106105645761010080835404028352916020019161058f565b820191906000526020600020905b81548152906001019060200180831161057257829003601f168201915b50509350505050600060405180830381600087803b1580156105b057600080fd5b505af11580156105c4573d6000803e3d6000fd5b5050505050565b60008060009054906101000a900473ffffffffffffffffffffffffffffffffffffffff16905090565b60026020528060005260406000206000915090508060000160009054906101000a900460ff1690806001018054600181600116156101000203166002900480601f0160208091040260200160405190810160405280929190818152602001828054600181600116156101000203166002900480156106b35780601f10610688576101008083540402835291602001916106b3565b820191906000526020600020905b81548152906001019060200180831161069657829003601f168201915b5050505050905082565b600a341015610734576040517f08c379a00000000000000000000000000000000000000000000000000000000081526004018080602001828103825260108152602001807f4e6f7420656e6f7567682066756e64730000000000000000000000000000000081525060200191505060405180910390fd5b600160009054906101000a900473ffffffffffffffffffffffffffffffffffffffff1673ffffffffffffffffffffffffffffffffffffffff166108fc349081150290604051600060405180830381858888f1935050505015801561079c573d6000803e3d6000fd5b506001600260008473ffffffffffffffffffffffffffffffffffffffff1673ffffffffffffffffffffffffffffffffffffffff16815260200190815260200160002060000160006101000a81548160ff02191690831515021790555080600260008473ffffffffffffffffffffffffffffffffffffffff1673ffffffffffffffffffffffffffffffffffffffff168152602001908152602001600020600101908051906020019061084e92919061087d565b505050565b6000600160009054906101000a900473ffffffffffffffffffffffffffffffffffffffff16905090565b828054600181600116156101000203166002900490600052602060002090601f0160209004810192826108b357600085556108fa565b82601f106108cc57805160ff19168380011785556108fa565b828001600101855582156108fa579182015b828111156108f95782518255916020019190600101906108de565b5b509050610907919061090b565b5090565b5b8082111561092457600081600090555060010161090c565b509056fea264697066735822122005837ab37e37f793de67ecc51b035fa838a79328694e4c4383e20313ae019db864736f6c63430007060033608060405260405162001e5f38038062001e5f833981810160405260208110156200002957600080fd5b81019080805160405193929190846401000000008211156200004a57600080fd5b838201915060208201858111156200006157600080fd5b82518660208202830111640100000000821117156200007f57600080fd5b8083526020830192505050908051906020019060200280838360005b83811015620000b85780820151818401526020810190506200009b565b505050509050016040525050506001600360003373ffffffffffffffffffffffffffffffffffffffff1673ffffffffffffffffffffffffffffffffffffffff16815260200190815260200160002060006101000a81548160ff021916908315150217905550600160048190555060005b81518110156200022c57600360008383815181106200014357fe5b602002602001015173ffffffffffffffffffffffffffffffffffffffff1673ffffffffffffffffffffffffffffffffffffffff16815260200190815260200160002060009054906101000a900460ff1615156000151514156200021e57600160036000848481518110620001b357fe5b602002602001015173ffffffffffffffffffffffffffffffffffffffff1673ffffffffffffffffffffffffffffffffffffffff16815260200190815260200160002060006101000a81548160ff02191690831515021790555060016004600082825401925050819055505b808060010191505062000128565b50600060028190555050611c1980620002466000396000f3fe608060405234801561001057600080fd5b50600436106100f55760003560e01c806383c3d8e211610097578063c513c12011610066578063c513c12014610649578063d744d2f31461070d578063eefe76811461072b578063fc00050014610749576100f5565b806383c3d8e2146104b95780638a355a571461057d578063b8a47d7d146105c1578063bf3a5c02146105ef576100f5565b806337583499116100d357806337583499146102d457806368e23af2146103915780637065cb48146103af578063769d7235146103f3576100f5565b80631660c22a146100fa578063173825d9146101d5578063218e9fe414610219575b600080fd5b6101d36004803603604081101561011057600080fd5b81019080803573ffffffffffffffffffffffffffffffffffffffff1690602001909291908035906020019064010000000081111561014d57600080fd5b82018360208201111561015f57600080fd5b8035906020019184600183028401116401000000008311171561018157600080fd5b91908080601f016020809104026020016040519081016040528093929190818152602001838380828437600081840152601f19601f820116905080830192505050505050509192919290505050610824565b005b610217600480360360208110156101eb57600080fd5b81019080803573ffffffffffffffffffffffffffffffffffffffff169060200190929190505050610a44565b005b6102d26004803603602081101561022f57600080fd5b810190808035906020019064010000000081111561024c57600080fd5b82018360208201111561025e57600080fd5b8035906020019184600183028401116401000000008311171561028057600080fd5b91908080601f016020809104026020016040519081016040528093929190818152602001838380828437600081840152601f19601f820116905080830192505050505050509192919290505050610c3c565b005b610316600480360360208110156102ea57600080fd5b81019080803573ffffffffffffffffffffffffffffffffffffffff169060200190929190505050610e03565b6040518080602001828103825283818151815260200191508051906020019080838360005b8381101561035657808201518184015260208101905061033b565b50505050905090810190601f1680156103835780820380516001836020036101000a031916815260200191505b509250505060405180910390f35b610399610fb0565b6040518082815260200191505060405180910390f35b6103f1600480360360208110156103c557600080fd5b81019080803573ffffffffffffffffffffffffffffffffffffffff169060200190929190505050610fbc565b005b6104356004803603602081101561040957600080fd5b81019080803573ffffffffffffffffffffffffffffffffffffffff1690602001909291905050506111b4565b60405180831515815260200180602001828103825283818151815260200191508051906020019080838360005b8381101561047d578082015181840152602081019050610462565b50505050905090810190601f1680156104aa5780820380516001836020036101000a031916815260200191505b50935050505060405180910390f35b6104e5600480360360208110156104cf57600080fd5b810190808035906020019092919050505061127d565b604051808373ffffffffffffffffffffffffffffffffffffffff16815260200180602001828103825283818151815260200191508051906020019080838360005b83811015610541578082015181840152602081019050610526565b50505050905090810190601f16801561056e5780820380516001836020036101000a031916815260200191505b50935050505060405180910390f35b6105bf6004803603602081101561059357600080fd5b81019080803573ffffffffffffffffffffffffffffffffffffffff169060200190929190505050611383565b005b6105ed600480360360208110156105d757600080fd5b81019080803590602001909291905050506115b7565b005b6106316004803603602081101561060557600080fd5b81019080803573ffffffffffffffffffffffffffffffffffffffff16906020019092919050505061174b565b60405180821515815260200191505060405180910390f35b6106756004803603602081101561065f57600080fd5b810190808035906020019092919050505061176b565b604051808373ffffffffffffffffffffffffffffffffffffffff16815260200180602001828103825283818151815260200191508051906020019080838360005b838110156106d15780820151818401526020810190506106b6565b50505050905090810190601f1680156106fe5780820380516001836020036101000a031916815260200191505b50935050505060405180910390f35b610715611857565b6040518082815260200191505060405180910390f35b610733611861565b6040518082815260200191505060405180910390f35b6108226004803603604081101561075f57600080fd5b81019080803573ffffffffffffffffffffffffffffffffffffffff1690602001909291908035906020019064010000000081111561079c57600080fd5b8201836020820111156107ae57600080fd5b803590602001918460018302840111640100000000831117156107d057600080fd5b91908080601f016020809104026020016040519081016040528093929190818152602001838380828437600081840152601f19601f82011690508083019250505050505050919291929050505061186b565b005b600360003373ffffffffffffffffffffffffffffffffffffffff1673ffffffffffffffffffffffffffffffffffffffff16815260200190815260200160002060009054906101000a900460ff1615156001151514806108ae57508173ffffffffffffffffffffffffffffffffffffffff163373ffffffffffffffffffffffffffffffffffffffff16145b610920576040517f08c379a000000000000000000000000000000000000000000000000000000000815260040180806020018281038252601f8152602001807f4e6f7420616c6c6f77656420746f207570646174652070726f7669646572730081525060200191505060405180910390fd5b600160008373ffffffffffffffffffffffffffffffffffffffff1673ffffffffffffffffffffffffffffffffffffffff16815260200190815260200160002060000160009054906101000a900460ff16151560011515146109e9576040517f08c379a00000000000000000000000000000000000000000000000000000000081526004018080602001828103825260168152602001807f50726f7669646572206e6f74206163746976617465640000000000000000000081525060200191505060405180910390fd5b80600160008473ffffffffffffffffffffffffffffffffffffffff1673ffffffffffffffffffffffffffffffffffffffff1681526020019081526020016000206001019080519060200190610a3f929190611ac0565b505050565b600360003373ffffffffffffffffffffffffffffffffffffffff1673ffffffffffffffffffffffffffffffffffffffff16815260200190815260200160002060009054906101000a900460ff1615156001151514610b0a576040517f08c379a000000000000000000000000000000000000000000000000000000000815260040180806020018281038252601c8152602001807f4e6f7420616c6c6f77656420746f2072656d6f7665206f776e6572730000000081525060200191505060405180910390fd5b600360008273ffffffffffffffffffffffffffffffffffffffff1673ffffffffffffffffffffffffffffffffffffffff16815260200190815260200160002060009054906101000a900460ff1615156001151514610bd0576040517f08c379a000000000000000000000000000000000000000000000000000000000815260040180806020018281038252601a8152602001807f4f776e657220616c72656164792064652d61637469766174656400000000000081525060200191505060405180910390fd5b6000600360008373ffffffffffffffffffffffffffffffffffffffff1673ffffffffffffffffffffffffffffffffffffffff16815260200190815260200160002060006101000a81548160ff021916908315150217905550600160046000828254039250508190555050565b600160003373ffffffffffffffffffffffffffffffffffffffff1673ffffffffffffffffffffffffffffffffffffffff16815260200190815260200160002060000160009054906101000a900460ff1615156001151514610d05576040517f08c379a000000000000000000000000000000000000000000000000000000000815260040180806020018281038252601e8152602001807f4e6f7420616c6c6f77656420746f206164642063726564656e7469616c73000081525060200191505060405180910390fd5b600060405180604001604052803373ffffffffffffffffffffffffffffffffffffffff16815260200183815250908060018154018082558091505060019003906000526020600020906002020160009091909190915060008201518160000160006101000a81548173ffffffffffffffffffffffffffffffffffffffff021916908373ffffffffffffffffffffffffffffffffffffffff1602179055506020820151816001019080519060200190610dbe929190611ac0565b5050507f5f3527c69a463743c32aceb60e66119f6a798c1faf3de1e3a0a9b7d00c5d26236001600080549050036040518082815260200191505060405180910390a150565b6060600160008373ffffffffffffffffffffffffffffffffffffffff1673ffffffffffffffffffffffffffffffffffffffff16815260200190815260200160002060000160009054906101000a900460ff1615156001151514610ece576040517f08c379a00000000000000000000000000000000000000000000000000000000081526004018080602001828103825260178152602001807f50726f766964657220646f6573206e6f7420657869737400000000000000000081525060200191505060405180910390fd5b600160008373ffffffffffffffffffffffffffffffffffffffff1673ffffffffffffffffffffffffffffffffffffffff1681526020019081526020016000206001018054600181600116156101000203166002900480601f016020809104026020016040519081016040528092919081815260200182805460018160011615610100020316600290048015610fa45780601f10610f7957610100808354040283529160200191610fa4565b820191906000526020600020905b815481529060010190602001808311610f8757829003601f168201915b50505050509050919050565b60008080549050905090565b600360003373ffffffffffffffffffffffffffffffffffffffff1673ffffffffffffffffffffffffffffffffffffffff16815260200190815260200160002060009054906101000a900460ff1615156001151514611082576040517f08c379a00000000000000000000000000000000000000000000000000000000081526004018080602001828103825260198152602001807f4e6f7420616c6c6f77656420746f20616464206f776e6572730000000000000081525060200191505060405180910390fd5b600360008273ffffffffffffffffffffffffffffffffffffffff1673ffffffffffffffffffffffffffffffffffffffff16815260200190815260200160002060009054906101000a900460ff1615156000151514611148576040517f08c379a00000000000000000000000000000000000000000000000000000000081526004018080602001828103825260178152602001807f4f776e657220616c72656164792061637469766174656400000000000000000081525060200191505060405180910390fd5b6001600360008373ffffffffffffffffffffffffffffffffffffffff1673ffffffffffffffffffffffffffffffffffffffff16815260200190815260200160002060006101000a81548160ff021916908315150217905550600160046000828254019250508190555050565b60016020528060005260406000206000915090508060000160009054906101000a900460ff1690806001018054600181600116156101000203166002900480601f0160208091040260200160405190810160405280929190818152602001828054600181600116156101000203166002900480156112735780601f1061124857610100808354040283529160200191611273565b820191906000526020600020905b81548152906001019060200180831161125657829003601f168201915b5050505050905082565b600060606000838154811061128e57fe5b906000526020600020906002020160000160009054906101000a900473ffffffffffffffffffffffffffffffffffffffff16600084815481106112cd57fe5b9060005260206000209060020201600101808054600181600116156101000203166002900480601f0160208091040260200160405190810160405280929190818152602001828054600181600116156101000203166002900480156113735780601f1061134857610100808354040283529160200191611373565b820191906000526020600020905b81548152906001019060200180831161135657829003601f168201915b5050505050905091509150915091565b600360003373ffffffffffffffffffffffffffffffffffffffff1673ffffffffffffffffffffffffffffffffffffffff16815260200190815260200160002060009054906101000a900460ff16151560011515148061140d57508073ffffffffffffffffffffffffffffffffffffffff163373ffffffffffffffffffffffffffffffffffffffff16145b61147f576040517f08c379a000000000000000000000000000000000000000000000000000000000815260040180806020018281038252601f8152602001807f4e6f7420616c6c6f77656420746f2072656d6f76652070726f7669646572730081525060200191505060405180910390fd5b600160008273ffffffffffffffffffffffffffffffffffffffff1673ffffffffffffffffffffffffffffffffffffffff16815260200190815260200160002060000160009054906101000a900460ff1615156001151514611548576040517f08c379a00000000000000000000000000000000000000000000000000000000081526004018080602001828103825260168152602001807f50726f7669646572206e6f74206163746976617465640000000000000000000081525060200191505060405180910390fd5b6000600160008373ffffffffffffffffffffffffffffffffffffffff1673ffffffffffffffffffffffffffffffffffffffff16815260200190815260200160002060000160006101000a81548160ff021916908315150217905550600160026000828254039250508190555050565b600081815481106115c457fe5b906000526020600020906002020160000160009054906101000a900473ffffffffffffffffffffffffffffffffffffffff1673ffffffffffffffffffffffffffffffffffffffff163373ffffffffffffffffffffffffffffffffffffffff1614611679576040517f08c379a0000000000000000000000000000000000000000000000000000000008152600401808060200182810382526030815260200180611bb46030913960400191505060405180910390fd5b60008054905081106116f3576040517f08c379a00000000000000000000000000000000000000000000000000000000081526004018080602001828103825260198152602001807f43726564656e7469616c20646f6573206e6f742065786973740000000000000081525060200191505060405180910390fd5b6000818154811061170057fe5b9060005260206000209060020201600080820160006101000a81549073ffffffffffffffffffffffffffffffffffffffff02191690556001820160006117469190611b4e565b505050565b60036020528060005260406000206000915054906101000a900460ff1681565b6000818154811061177b57600080fd5b90600052602060002090600202016000915090508060000160009054906101000a900473ffffffffffffffffffffffffffffffffffffffff1690806001018054600181600116156101000203166002900480601f01602080910402602001604051908101604052809291908181526020018280546001816001161561010002031660029004801561184d5780601f106118225761010080835404028352916020019161184d565b820191906000526020600020905b81548152906001019060200180831161183057829003601f168201915b5050505050905082565b6000600254905090565b6000600454905090565b600360003373ffffffffffffffffffffffffffffffffffffffff1673ffffffffffffffffffffffffffffffffffffffff16815260200190815260200160002060009054906101000a900460ff1615156001151514611931576040517f08c379a000000000000000000000000000000000000000000000000000000000815260040180806020018281038252601c8152602001807f4e6f7420616c6c6f77656420746f206164642070726f7669646572730000000081525060200191505060405180910390fd5b600160008373ffffffffffffffffffffffffffffffffffffffff1673ffffffffffffffffffffffffffffffffffffffff16815260200190815260200160002060000160009054906101000a900460ff16151560001515146119fa576040517f08c379a000000000000000000000000000000000000000000000000000000000815260040180806020018281038252601a8152602001807f50726f766964657220616c72656164792061637469766174656400000000000081525060200191505060405180910390fd5b80600160008473ffffffffffffffffffffffffffffffffffffffff1673ffffffffffffffffffffffffffffffffffffffff1681526020019081526020016000206001019080519060200190611a50929190611ac0565b5060018060008473ffffffffffffffffffffffffffffffffffffffff1673ffffffffffffffffffffffffffffffffffffffff16815260200190815260200160002060000160006101000a81548160ff02191690831515021790555060016002600082825401925050819055505050565b828054600181600116156101000203166002900490600052602060002090601f016020900481019282611af65760008555611b3d565b82601f10611b0f57805160ff1916838001178555611b3d565b82800160010185558215611b3d579182015b82811115611b3c578251825591602001919060010190611b21565b5b509050611b4a9190611b96565b5090565b50805460018160011615610100020316600290046000825580601f10611b745750611b93565b601f016020900490600052602060002090810190611b929190611b96565b5b50565b5b80821115611baf576000816000905550600101611b97565b509056fe4e6f7420616c6c6f77656420746f2072656d6f7665207468697320706172746963756c61722063726564656e7469616ca2646970667358221220811710801834064430165f6722fe6cfabc9058a5a0f4fdb2a945308dee7912b964736f6c63430007060033",
  "immutableReferences": {},
  "source": "// SPDX-License-Identifier: GPL-3.0\r\n\r\npragma solidity >=0.7.0 <0.9.0;\r\n\r\n/**\r\n * @title Storage\r\n * @dev Store & retrieve value in a variable\r\n */\r\ncontract Credentials {\r\n    \r\n    event _credentialIdEvent(uint256);\r\n    \r\n    struct _credentialToken{\r\n        address _provider;\r\n        string _credential;\r\n    }\r\n    \r\n    struct _providerIdentity{\r\n        bool _activated;\r\n        string _providerInfo;\r\n    }\r\n\r\n    _credentialToken[] public _credentials;\r\n    mapping(address => _providerIdentity) public _providers;\r\n    uint256 _numberOfProviders;\r\n    mapping(address => bool) public _owners;\r\n    uint256 _numberOfOwners;\r\n\r\n\r\n    \r\n    constructor(address[] memory owners) payable{\r\n        _owners[msg.sender] = true;\r\n        _numberOfOwners = 1;\r\n        for (uint i=0; i<owners.length; i++) {\r\n            if(false == _owners[owners[i]]){\r\n                _owners[owners[i]] = true;\r\n                _numberOfOwners += 1;\r\n            }\r\n            \r\n        }\r\n        _numberOfProviders = 0;\r\n    }\r\n    \r\n    function addProvider(address provider, string memory providerInfo) public {\r\n       require(true == _owners[msg.sender], \"Not allowed to add providers\");\r\n       require (false == _providers[provider]._activated, \"Provider already activated\") ;\r\n       _providers[provider]._providerInfo = providerInfo;\r\n       _providers[provider]._activated = true;\r\n       _numberOfProviders += 1;\r\n    }\r\n    \r\n    function removeProvider(address provider) public {\r\n       require(true == _owners[msg.sender] || msg.sender == provider, \"Not allowed to remove providers\");\r\n       require(true == _providers[provider]._activated, \"Provider not activated\");\r\n       _providers[provider]._activated = false;\r\n       _numberOfProviders -= 1;\r\n    }\r\n    \r\n    function updateProvider(address provider, string memory providerInfo) public {\r\n       require(true == _owners[msg.sender] || msg.sender == provider, \"Not allowed to update providers\");\r\n       require (true == _providers[provider]._activated, \"Provider not activated\") ;\r\n       _providers[provider]._providerInfo = providerInfo;\r\n    }\r\n    \r\n    function addCredential(string memory credential) public {\r\n       require(true == _providers[msg.sender]._activated, \"Not allowed to add credentials\");\r\n       _credentials.push(_credentialToken(msg.sender, credential));\r\n       emit _credentialIdEvent(_credentials.length - 1);\r\n    }\r\n    \r\n    function removeCredential(uint256 credentialTokenId) public {\r\n       require(msg.sender == _credentials[credentialTokenId]._provider, \"Not allowed to remove this particular credential\");\r\n       require(credentialTokenId < _credentials.length, \"Credential does not exist\");\r\n       delete _credentials[credentialTokenId];\r\n    }\r\n    \r\n    function addOwner(address owner) public {\r\n       require(true == _owners[msg.sender], \"Not allowed to add owners\");\r\n       require(false == _owners[owner], \"Owner already activated\");\r\n       _owners[owner] = true;\r\n       _numberOfOwners += 1;\r\n    }\r\n    \r\n    function removeOwner(address owner) public {\r\n       require(true == _owners[msg.sender], \"Not allowed to remove owners\");\r\n       require(true == _owners[owner], \"Owner already de-activated\");\r\n       _owners[owner] = false;\r\n        _numberOfOwners -= 1;\r\n    }\r\n\r\n\r\n    function retrieveCredential(uint256 credentialTokenId) public view returns (address, string memory){\r\n        return (_credentials[credentialTokenId]._provider, _credentials[credentialTokenId]._credential);\r\n    }\r\n    \r\n    function retrieveProvider(address provider) public view returns (string memory){\r\n        require(true == _providers[provider]._activated, \"Provider does not exist\");\r\n        return _providers[provider]._providerInfo;\r\n    }\r\n    \r\n    function retrieveTotalProviders() public view returns (uint){\r\n        return (_numberOfProviders);\r\n    }\r\n    \r\n    function retrieveTotalCredential() public view returns (uint){\r\n        return (_credentials.length);\r\n    }\r\n    \r\n    function retrieveTotalOwners() public view returns (uint){\r\n        return (_numberOfOwners);\r\n    }\r\n\r\n}\r\n\r\ncontract Proposals{\r\n    Credentials  _credentialsContract;\r\n    \r\n    uint constant _PriceWei = 10;\r\n    \r\n    struct _proposal{\r\n        bool _activated;\r\n        string _providerInfo;\r\n    } \r\n    \r\n    address payable _chairperson;\r\n    mapping(address => _proposal) public _proposals;\r\n    address[] listOfOwners;\r\n    \r\n    constructor() payable{\r\n        _chairperson = payable(msg.sender);\r\n        listOfOwners.push(address(msg.sender));\r\n        _credentialsContract = new Credentials(listOfOwners);\r\n    }\r\n    \r\n    function sendProposal(address provider, string memory providerInfo) public payable {\r\n       require(msg.value >= _PriceWei, \"Not enough funds\");\r\n       _chairperson.transfer(msg.value);\r\n       _proposals[provider]._activated = true;\r\n       _proposals[provider]._providerInfo = providerInfo;\r\n    }\r\n    \r\n    function approveProposal(address provider) public{\r\n        require(msg.sender == _chairperson, \"Not allowed to approve proposals\");\r\n        require(true == _proposals[provider]._activated, \"This proposal does not exist\");\r\n        _credentialsContract.addProvider(provider, _proposals[provider]._providerInfo);\r\n    }\r\n    \r\n    \r\n    function retreiveCredentialsContractAddress() public view returns (Credentials) {\r\n        return _credentialsContract;\r\n    }\r\n    \r\n    function retreiveChairPerson() public view returns (address) {\r\n        return _chairperson;\r\n    }\r\n    \r\n}",
  "sourcePath": "C:/Users/d-aam/Truffle/contracts/Credentials.sol",
  "compiler": {
    "name": "solc",
    "version": "0.7.6+commit.7338295f.Emscripten.clang"
  },
  "schemaVersion": "3.3.4",
  "updatedAt": "2021-04-20T14:31:14.733Z",
  "devdoc": {
    "kind": "dev",
    "methods": {},
    "version": 1
  },
  "userdoc": {
    "kind": "user",
    "methods": {},
    "version": 1
  }
}