{
  "contractName": "Proposals",
  "abi": [
    {
      "inputs": [],
      "stateMutability": "payable",
      "type": "constructor"
    },
    {
      "anonymous": false,
      "inputs": [
        {
          "indexed": false,
          "internalType": "address",
          "name": "",
          "type": "address"
        }
      ],
      "name": "_ApproveProposalId",
      "type": "event"
    },
    {
      "anonymous": false,
      "inputs": [
        {
          "indexed": false,
          "internalType": "address",
          "name": "",
          "type": "address"
        }
      ],
      "name": "_RejectProposalId",
      "type": "event"
    },
    {
      "anonymous": false,
      "inputs": [
        {
          "indexed": false,
          "internalType": "address",
          "name": "",
          "type": "address"
        }
      ],
      "name": "_SendProposalId",
      "type": "event"
    },
    {
      "inputs": [
        {
          "internalType": "address",
          "name": "",
          "type": "address"
        }
      ],
      "name": "_proposals",
      "outputs": [
        {
          "internalType": "enum Proposals.proposalState",
          "name": "_state",
          "type": "uint8"
        },
        {
          "internalType": "string",
          "name": "_providerInfo",
          "type": "string"
        }
      ],
      "stateMutability": "view",
      "type": "function"
    },
    {
      "inputs": [
        {
          "internalType": "address",
          "name": "provider",
          "type": "address"
        },
        {
          "internalType": "string",
          "name": "providerInfo",
          "type": "string"
        }
      ],
      "name": "sendProposal",
      "outputs": [],
      "stateMutability": "payable",
      "type": "function"
    },
    {
      "inputs": [
        {
          "internalType": "address",
          "name": "provider",
          "type": "address"
        }
      ],
      "name": "approveProposal",
      "outputs": [],
      "stateMutability": "nonpayable",
      "type": "function"
    },
    {
      "inputs": [
        {
          "internalType": "address",
          "name": "provider",
          "type": "address"
        }
      ],
      "name": "rejectProposal",
      "outputs": [],
      "stateMutability": "nonpayable",
      "type": "function"
    },
    {
      "inputs": [
        {
          "internalType": "address",
          "name": "provider",
          "type": "address"
        }
      ],
      "name": "retrieveProposal",
      "outputs": [
        {
          "internalType": "uint256",
          "name": "",
          "type": "uint256"
        },
        {
          "internalType": "string",
          "name": "",
          "type": "string"
        }
      ],
      "stateMutability": "view",
      "type": "function"
    },
    {
      "inputs": [],
      "name": "retrieveCertificatesContractAddress",
      "outputs": [
        {
          "internalType": "contract Certificates",
          "name": "",
          "type": "address"
        }
      ],
      "stateMutability": "view",
      "type": "function"
    },
    {
      "inputs": [],
      "name": "retrieveChairPerson",
      "outputs": [
        {
          "internalType": "address",
          "name": "",
          "type": "address"
        }
      ],
      "stateMutability": "view",
      "type": "function"
    }
  ],
  "bytecode": "0x608060405233600160006101000a81548173ffffffffffffffffffffffffffffffffffffffff021916908373ffffffffffffffffffffffffffffffffffffffff1602179055506003339080600181540180825580915050600190039060005260206000200160009091909190916101000a81548173ffffffffffffffffffffffffffffffffffffffff021916908373ffffffffffffffffffffffffffffffffffffffff160217905550600360016040516100b89061019e565b8080602001838152602001828103825284818154815260200191508054801561013657602002820191906000526020600020905b8160009054906101000a900473ffffffffffffffffffffffffffffffffffffffff1673ffffffffffffffffffffffffffffffffffffffff16815260200190600101908083116100ec575b50509350505050604051809103906000f080158015610159573d6000803e3d6000fd5b506000806101000a81548173ffffffffffffffffffffffffffffffffffffffff021916908373ffffffffffffffffffffffffffffffffffffffff1602179055506101ab565b613ef18061126783390190565b6110ad806101ba6000396000f3fe6080604052600436106100705760003560e01c8063858e7ce61161004e578063858e7ce6146101e3578063cddab28b146102be578063db85bc4d1461030f578063efec414b1461035057610070565b806303354faa146100755780633bd2993c146100c65780634f3f6c2914610107575b600080fd5b34801561008157600080fd5b506100c46004803603602081101561009857600080fd5b81019080803573ffffffffffffffffffffffffffffffffffffffff169060200190929190505050610421565b005b3480156100d257600080fd5b506100db6107de565b604051808273ffffffffffffffffffffffffffffffffffffffff16815260200191505060405180910390f35b34801561011357600080fd5b506101566004803603602081101561012a57600080fd5b81019080803573ffffffffffffffffffffffffffffffffffffffff169060200190929190505050610807565b6040518083600381111561016657fe5b815260200180602001828103825283818151815260200191508051906020019080838360005b838110156101a757808201518184015260208101905061018c565b50505050905090810190601f1680156101d45780820380516001836020036101000a031916815260200191505b50935050505060405180910390f35b6102bc600480360360408110156101f957600080fd5b81019080803573ffffffffffffffffffffffffffffffffffffffff1690602001909291908035906020019064010000000081111561023657600080fd5b82018360208201111561024857600080fd5b8035906020019184600183028401116401000000008311171561026a57600080fd5b91908080601f016020809104026020016040519081016040528093929190818152602001838380828437600081840152601f19601f8201169050808301925050505050505091929192905050506108d0565b005b3480156102ca57600080fd5b5061030d600480360360208110156102e157600080fd5b81019080803573ffffffffffffffffffffffffffffffffffffffff169060200190929190505050610b2e565b005b34801561031b57600080fd5b50610324610d80565b604051808273ffffffffffffffffffffffffffffffffffffffff16815260200191505060405180910390f35b34801561035c57600080fd5b5061039f6004803603602081101561037357600080fd5b81019080803573ffffffffffffffffffffffffffffffffffffffff169060200190929190505050610daa565b6040518083815260200180602001828103825283818151815260200191508051906020019080838360005b838110156103e55780820151818401526020810190506103ca565b50505050905090810190601f1680156104125780820380516001836020036101000a031916815260200191505b50935050505060405180910390f35b600160009054906101000a900473ffffffffffffffffffffffffffffffffffffffff1673ffffffffffffffffffffffffffffffffffffffff163373ffffffffffffffffffffffffffffffffffffffff16146104e4576040517f08c379a00000000000000000000000000000000000000000000000000000000081526004018080602001828103825260208152602001807f4e6f7420616c6c6f77656420746f20617070726f76652070726f706f73616c7381525060200191505060405180910390fd5b600260008273ffffffffffffffffffffffffffffffffffffffff1673ffffffffffffffffffffffffffffffffffffffff16815260200190815260200160002060000160009054906101000a900460ff16600381111561053f57fe5b6001600381111561054c57fe5b146105bf576040517f08c379a00000000000000000000000000000000000000000000000000000000081526004018080602001828103825260208152602001807f546869732070726f706f73616c2063616e6e6f74206265206d6f64696669656481525060200191505060405180910390fd5b60028060008373ffffffffffffffffffffffffffffffffffffffff1673ffffffffffffffffffffffffffffffffffffffff16815260200190815260200160002060000160006101000a81548160ff0219169083600381111561061d57fe5b021790555060008054906101000a900473ffffffffffffffffffffffffffffffffffffffff1673ffffffffffffffffffffffffffffffffffffffff1663fc00050082600260008573ffffffffffffffffffffffffffffffffffffffff1673ffffffffffffffffffffffffffffffffffffffff1681526020019081526020016000206001016040518363ffffffff1660e01b8152600401808373ffffffffffffffffffffffffffffffffffffffff168152602001806020018281038252838181546001816001161561010002031660029004815260200191508054600181600116156101000203166002900480156107555780601f1061072a57610100808354040283529160200191610755565b820191906000526020600020905b81548152906001019060200180831161073857829003601f168201915b50509350505050600060405180830381600087803b15801561077657600080fd5b505af115801561078a573d6000803e3d6000fd5b505050507f177c08bb2a258cee1a3d193682dd89fb318e12d135f68b304a183e2576168acc81604051808273ffffffffffffffffffffffffffffffffffffffff16815260200191505060405180910390a150565b60008060009054906101000a900473ffffffffffffffffffffffffffffffffffffffff16905090565b60026020528060005260406000206000915090508060000160009054906101000a900460ff1690806001018054600181600116156101000203166002900480601f0160208091040260200160405190810160405280929190818152602001828054600181600116156101000203166002900480156108c65780601f1061089b576101008083540402835291602001916108c6565b820191906000526020600020905b8154815290600101906020018083116108a957829003601f168201915b5050505050905082565b600a341015610947576040517f08c379a00000000000000000000000000000000000000000000000000000000081526004018080602001828103825260108152602001807f4e6f7420656e6f7567682066756e64730000000000000000000000000000000081525060200191505060405180910390fd5b600260008373ffffffffffffffffffffffffffffffffffffffff1673ffffffffffffffffffffffffffffffffffffffff16815260200190815260200160002060000160009054906101000a900460ff1660038111156109a257fe5b600060038111156109af57fe5b14610a22576040517f08c379a000000000000000000000000000000000000000000000000000000000815260040180806020018281038252601a8152602001807f50726f706f73616c20616c7265616479207375626d697474656400000000000081525060200191505060405180910390fd5b6001600260008473ffffffffffffffffffffffffffffffffffffffff1673ffffffffffffffffffffffffffffffffffffffff16815260200190815260200160002060000160006101000a81548160ff02191690836003811115610a8157fe5b021790555080600260008473ffffffffffffffffffffffffffffffffffffffff1673ffffffffffffffffffffffffffffffffffffffff1681526020019081526020016000206001019080519060200190610adc929190610fcc565b507fbaf065d025fe427c7c36f893bdec1c49e6c164c4a6531f4216f64e6e876a9a4f82604051808273ffffffffffffffffffffffffffffffffffffffff16815260200191505060405180910390a15050565b600160009054906101000a900473ffffffffffffffffffffffffffffffffffffffff1673ffffffffffffffffffffffffffffffffffffffff163373ffffffffffffffffffffffffffffffffffffffff1614610bf1576040517f08c379a000000000000000000000000000000000000000000000000000000000815260040180806020018281038252601f8152602001807f4e6f7420616c6c6f77656420746f2072656a6563742070726f706f73616c730081525060200191505060405180910390fd5b600260008273ffffffffffffffffffffffffffffffffffffffff1673ffffffffffffffffffffffffffffffffffffffff16815260200190815260200160002060000160009054906101000a900460ff166003811115610c4c57fe5b60016003811115610c5957fe5b14610ccc576040517f08c379a00000000000000000000000000000000000000000000000000000000081526004018080602001828103825260208152602001807f546869732070726f706f73616c2063616e6e6f74206265206d6f64696669656481525060200191505060405180910390fd5b6003600260008373ffffffffffffffffffffffffffffffffffffffff1673ffffffffffffffffffffffffffffffffffffffff16815260200190815260200160002060000160006101000a81548160ff02191690836003811115610d2b57fe5b02179055507fcc3f9ae01bdc82f13971bfb71fc93d203b797e70714c5c6c2abda1b9e302b19c81604051808273ffffffffffffffffffffffffffffffffffffffff16815260200191505060405180910390a150565b6000600160009054906101000a900473ffffffffffffffffffffffffffffffffffffffff16905090565b60006060600260008473ffffffffffffffffffffffffffffffffffffffff1673ffffffffffffffffffffffffffffffffffffffff16815260200190815260200160002060000160009054906101000a900460ff166003811115610e0957fe5b60006003811115610e1657fe5b1415610e8a576040517f08c379a000000000000000000000000000000000000000000000000000000000815260040180806020018281038252601c8152602001807f546869732070726f706f73616c20646f6573206e6f742065786973740000000081525060200191505060405180910390fd5b600260008473ffffffffffffffffffffffffffffffffffffffff1673ffffffffffffffffffffffffffffffffffffffff16815260200190815260200160002060000160009054906101000a900460ff166003811115610ee557fe5b600260008573ffffffffffffffffffffffffffffffffffffffff1673ffffffffffffffffffffffffffffffffffffffff168152602001908152602001600020600101808054600181600116156101000203166002900480601f016020809104026020016040519081016040528092919081815260200182805460018160011615610100020316600290048015610fbc5780601f10610f9157610100808354040283529160200191610fbc565b820191906000526020600020905b815481529060010190602001808311610f9f57829003601f168201915b5050505050905091509150915091565b828054600181600116156101000203166002900490600052602060002090601f0160209004810192826110025760008555611049565b82601f1061101b57805160ff1916838001178555611049565b82800160010185558215611049579182015b8281111561104857825182559160200191906001019061102d565b5b509050611056919061105a565b5090565b5b8082111561107357600081600090555060010161105b565b509056fea264697066735822122072f7afdace1da8c83b48bd6b367f9dc95d809f2ebe4f9e2aa12bff32598d153964736f6c634300070600336080604052600267ffffffffffffffff811180156200001d57600080fd5b506040519080825280602002602001820160405280156200004d5781602001602082028036833780820191505090505b50600190805190602001906200006592919062000322565b5060405162003ef138038062003ef1833981810160405260408110156200008b57600080fd5b8101908080516040519392919084640100000000821115620000ac57600080fd5b83820191506020820185811115620000c357600080fd5b8251866020820283011164010000000082111715620000e157600080fd5b8083526020830192505050908051906020019060200280838360005b838110156200011a578082015181840152602081019050620000fd565b5050505090500160405260200180519060200190929190505050815181111562000190576040517f08c379a000000000000000000000000000000000000000000000000000000000815260040180806020018281038252603c81526020018062003eb5603c913960400191505060405180910390fd5b6000811162000207576040517f08c379a00000000000000000000000000000000000000000000000000000000081526004018080602001828103825260188152602001807f4174206c656173742031206d696e696d756d206f776e6572000000000000000081525060200191505060405180910390fd5b6002600181600181540180825580915050039060005260206000209050506002600181600181540180825580915050039060005260206000209050508060008190555060005b82518110156200031957600160026000815481106200026857fe5b906000526020600020906002020160000160008584815181106200028857fe5b602002602001015173ffffffffffffffffffffffffffffffffffffffff1673ffffffffffffffffffffffffffffffffffffffff16815260200190815260200160002060010160006101000a81548160ff021916908315150217905550600180600081548110620002f457fe5b906000526020600020016000828254019250508190555080806001019150506200024d565b50505062000393565b82805482825590600052602060002090810192821562000361579160200282015b828111156200036057825182559160200191906001019062000343565b5b50905062000370919062000374565b5090565b5b808211156200038f57600081600090555060010162000375565b5090565b613b1280620003a36000396000f3fe608060405234801561001057600080fd5b50600436106101375760003560e01c806377bc5a1f116100b85780639fc104361161007c5780639fc1043614610bfa578063a93d5ed614610cd5578063d744d2f314610d34578063eefe768114610d52578063fc00050014610d70578063fd90ae7614610e4b57610137565b806377bc5a1f1461062457806382ff66a3146106e15780638a355a57146108ea5780639a90be9e1461092e5780639df66528146109e757610137565b806337583499116100ff57806337583499146104085780633bc6fe0e146104c55780636b074a07146105135780636e4f91791461056d5780636e55d2d4146105cc57610137565b80631270db7a1461013c5780631660c22a146101b4578063173825d91461028f5780632f54bf6e146102d35780633542758f1461032d575b600080fd5b61019e6004803603604081101561015257600080fd5b81019080803573ffffffffffffffffffffffffffffffffffffffff169060200190929190803573ffffffffffffffffffffffffffffffffffffffff169060200190929190505050611007565b6040518082815260200191505060405180910390f35b61028d600480360360408110156101ca57600080fd5b81019080803573ffffffffffffffffffffffffffffffffffffffff1690602001909291908035906020019064010000000081111561020757600080fd5b82018360208201111561021957600080fd5b8035906020019184600183028401116401000000008311171561023b57600080fd5b91908080601f016020809104026020016040519081016040528093929190818152602001838380828437600081840152601f19601f820116905080830192505050505050509192919290505050611129565b005b6102d1600480360360208110156102a557600080fd5b81019080803573ffffffffffffffffffffffffffffffffffffffff169060200190929190505050611139565b005b610315600480360360208110156102e957600080fd5b81019080803573ffffffffffffffffffffffffffffffffffffffff169060200190929190505050611147565b60405180821515815260200191505060405180910390f35b6104066004803603604081101561034357600080fd5b81019080803573ffffffffffffffffffffffffffffffffffffffff1690602001909291908035906020019064010000000081111561038057600080fd5b82018360208201111561039257600080fd5b803590602001918460018302840111640100000000831117156103b457600080fd5b91908080601f016020809104026020016040519081016040528093929190818152602001838380828437600081840152601f19601f82011690508083019250505050505050919291929050505061115b565b005b61044a6004803603602081101561041e57600080fd5b81019080803573ffffffffffffffffffffffffffffffffffffffff16906020019092919050505061116b565b6040518080602001828103825283818151815260200191508051906020019080838360005b8381101561048a57808201518184015260208101905061046f565b50505050905090810190601f1680156104b75780820380516001836020036101000a031916815260200191505b509250505060405180910390f35b610511600480360360408110156104db57600080fd5b8101908080359060200190929190803573ffffffffffffffffffffffffffffffffffffffff16906020019092919050505061117f565b005b6105556004803603602081101561052957600080fd5b81019080803573ffffffffffffffffffffffffffffffffffffffff16906020019092919050505061157a565b60405180821515815260200191505060405180910390f35b61057561158e565b6040518080602001828103825283818151815260200191508051906020019060200280838360005b838110156105b857808201518184015260208101905061059d565b505050509050019250505060405180910390f35b61060e600480360360208110156105e257600080fd5b81019080803573ffffffffffffffffffffffffffffffffffffffff16906020019092919050505061159f565b6040518082815260200191505060405180910390f35b6106666004803603602081101561063a57600080fd5b81019080803573ffffffffffffffffffffffffffffffffffffffff1690602001909291905050506115eb565b6040518080602001828103825283818151815260200191508051906020019080838360005b838110156106a657808201518184015260208101905061068b565b50505050905090810190601f1680156106d35780820380516001836020036101000a031916815260200191505b509250505060405180910390f35b6108e8600480360360808110156106f757600080fd5b810190808035906020019064010000000081111561071457600080fd5b82018360208201111561072657600080fd5b8035906020019184600183028401116401000000008311171561074857600080fd5b91908080601f016020809104026020016040519081016040528093929190818152602001838380828437600081840152601f19601f820116905080830192505050505050509192919290803590602001906401000000008111156107ab57600080fd5b8201836020820111156107bd57600080fd5b803590602001918460018302840111640100000000831117156107df57600080fd5b91908080601f016020809104026020016040519081016040528093929190818152602001838380828437600081840152601f19601f8201169050808301925050505050505091929192908035906020019064010000000081111561084257600080fd5b82018360208201111561085457600080fd5b8035906020019184600183028401116401000000008311171561087657600080fd5b91908080601f016020809104026020016040519081016040528093929190818152602001838380828437600081840152601f19601f820116905080830192505050505050509192919290803573ffffffffffffffffffffffffffffffffffffffff1690602001909291905050506115ff565b005b61092c6004803603602081101561090057600080fd5b81019080803573ffffffffffffffffffffffffffffffffffffffff1690602001909291905050506118f7565b005b6109906004803603604081101561094457600080fd5b81019080803573ffffffffffffffffffffffffffffffffffffffff169060200190929190803573ffffffffffffffffffffffffffffffffffffffff169060200190929190505050611905565b6040518080602001828103825283818151815260200191508051906020019060200280838360005b838110156109d35780820151818401526020810190506109b8565b505050509050019250505060405180910390f35b610bf8600480360360a08110156109fd57600080fd5b8101908080359060200190929190803573ffffffffffffffffffffffffffffffffffffffff16906020019092919080359060200190640100000000811115610a4457600080fd5b820183602082011115610a5657600080fd5b80359060200191846001830284011164010000000083111715610a7857600080fd5b91908080601f016020809104026020016040519081016040528093929190818152602001838380828437600081840152601f19601f82011690508083019250505050505050919291929080359060200190640100000000811115610adb57600080fd5b820183602082011115610aed57600080fd5b80359060200191846001830284011164010000000083111715610b0f57600080fd5b91908080601f016020809104026020016040519081016040528093929190818152602001838380828437600081840152601f19601f82011690508083019250505050505050919291929080359060200190640100000000811115610b7257600080fd5b820183602082011115610b8457600080fd5b80359060200191846001830284011164010000000083111715610ba657600080fd5b91908080601f016020809104026020016040519081016040528093929190818152602001838380828437600081840152601f19601f820116905080830192505050505050509192919290505050611a91565b005b610cd360048036036040811015610c1057600080fd5b81019080803573ffffffffffffffffffffffffffffffffffffffff16906020019092919080359060200190640100000000811115610c4d57600080fd5b820183602082011115610c5f57600080fd5b80359060200191846001830284011164010000000083111715610c8157600080fd5b91908080601f016020809104026020016040519081016040528093929190818152602001838380828437600081840152601f19601f820116905080830192505050505050509192919290505050611f12565b005b610cdd611f22565b6040518080602001828103825283818151815260200191508051906020019060200280838360005b83811015610d20578082015181840152602081019050610d05565b505050509050019250505060405180910390f35b610d3c611f33565b6040518082815260200191505060405180910390f35b610d5a611f44565b6040518082815260200191505060405180910390f35b610e4960048036036040811015610d8657600080fd5b81019080803573ffffffffffffffffffffffffffffffffffffffff16906020019092919080359060200190640100000000811115610dc357600080fd5b820183602082011115610dd557600080fd5b80359060200191846001830284011164010000000083111715610df757600080fd5b91908080601f016020809104026020016040519081016040528093929190818152602001838380828437600081840152601f19601f820116905080830192505050505050509192919290505050611f55565b005b610e9760048036036040811015610e6157600080fd5b8101908080359060200190929190803573ffffffffffffffffffffffffffffffffffffffff169060200190929190505050611f65565b604051808573ffffffffffffffffffffffffffffffffffffffff168152602001806020018060200180602001848103845287818151815260200191508051906020019080838360005b83811015610efb578082015181840152602081019050610ee0565b50505050905090810190601f168015610f285780820380516001836020036101000a031916815260200191505b50848103835286818151815260200191508051906020019080838360005b83811015610f61578082015181840152602081019050610f46565b50505050905090810190601f168015610f8e5780820380516001836020036101000a031916815260200191505b50848103825285818151815260200191508051906020019080838360005b83811015610fc7578082015181840152602081019050610fac565b50505050905090810190601f168015610ff45780820380516001836020036101000a031916815260200191505b5097505050505050505060405180910390f35b6000806000905060005b600360008573ffffffffffffffffffffffffffffffffffffffff1673ffffffffffffffffffffffffffffffffffffffff1681526020019081526020016000208054905081101561111e578473ffffffffffffffffffffffffffffffffffffffff16600360008673ffffffffffffffffffffffffffffffffffffffff1673ffffffffffffffffffffffffffffffffffffffff16815260200190815260200160002082815481106110bc57fe5b906000526020600020906004020160000160009054906101000a900473ffffffffffffffffffffffffffffffffffffffff1673ffffffffffffffffffffffffffffffffffffffff161415611111576001820191505b8080600101915050611011565b508091505092915050565b61113582826001612395565b5050565b611144816000612531565b50565b6000611154826000612c4e565b9050919050565b61116782826000612cc4565b5050565b606061117882600161347d565b9050919050565b6111883361157a565b151560011515146111e4576040517f08c379a0000000000000000000000000000000000000000000000000000000008152600401808060200182810382526022815260200180613a8a6022913960400191505060405180910390fd5b600360008273ffffffffffffffffffffffffffffffffffffffff1673ffffffffffffffffffffffffffffffffffffffff16815260200190815260200160002080549050821061129b576040517f08c379a000000000000000000000000000000000000000000000000000000000815260040180806020018281038252601a8152602001807f436572746966696361746520646f6573206e6f7420657869737400000000000081525060200191505060405180910390fd5b600360008273ffffffffffffffffffffffffffffffffffffffff1673ffffffffffffffffffffffffffffffffffffffff16815260200190815260200160002082815481106112e557fe5b906000526020600020906004020160000160009054906101000a900473ffffffffffffffffffffffffffffffffffffffff1673ffffffffffffffffffffffffffffffffffffffff163373ffffffffffffffffffffffffffffffffffffffff16148061137b57508073ffffffffffffffffffffffffffffffffffffffff163373ffffffffffffffffffffffffffffffffffffffff16145b6113d0576040517f08c379a0000000000000000000000000000000000000000000000000000000008152600401808060200182810382526031815260200180613aac6031913960400191505060405180910390fd5b6000600360008373ffffffffffffffffffffffffffffffffffffffff1673ffffffffffffffffffffffffffffffffffffffff168152602001908152602001600020838154811061141c57fe5b906000526020600020906004020160000160009054906101000a900473ffffffffffffffffffffffffffffffffffffffff169050600360008373ffffffffffffffffffffffffffffffffffffffff1673ffffffffffffffffffffffffffffffffffffffff168152602001908152602001600020838154811061149a57fe5b9060005260206000209060040201600080820160006101000a81549073ffffffffffffffffffffffffffffffffffffffff02191690556001820160006114e0919061388f565b6002820160006114f0919061388f565b60038201600061150091906138d7565b50507f709d6b1b4d6f0b57a9f43c17f08c02648af8d37929b58caa594a4b03b8424687818385604051808473ffffffffffffffffffffffffffffffffffffffff1681526020018373ffffffffffffffffffffffffffffffffffffffff168152602001828152602001935050505060405180910390a1505050565b6000611587826001612c4e565b9050919050565b606061159a6001613601565b905090565b6000600360008373ffffffffffffffffffffffffffffffffffffffff1673ffffffffffffffffffffffffffffffffffffffff168152602001908152602001600020805490509050919050565b60606115f882600061347d565b9050919050565b6116083361157a565b15156001151514611664576040517f08c379a0000000000000000000000000000000000000000000000000000000008152600401808060200182810382526022815260200180613a8a6022913960400191505060405180910390fd5b815160001080156116825750825160001080611681575083516000105b5b6116f4576040517f08c379a00000000000000000000000000000000000000000000000000000000081526004018080602001828103825260148152602001807f436572746966696361746520697320656d70747900000000000000000000000081525060200191505060405180910390fd5b600360008273ffffffffffffffffffffffffffffffffffffffff1673ffffffffffffffffffffffffffffffffffffffff16815260200190815260200160002060405180608001604052803373ffffffffffffffffffffffffffffffffffffffff16815260200186815260200185815260200184815250908060018154018082558091505060019003906000526020600020906004020160009091909190915060008201518160000160006101000a81548173ffffffffffffffffffffffffffffffffffffffff021916908373ffffffffffffffffffffffffffffffffffffffff16021790555060208201518160010190805190602001906117f692919061391f565b50604082015181600201908051906020019061181392919061391f565b5060608201518160030190805190602001906118309291906139ad565b50505060006001600360008473ffffffffffffffffffffffffffffffffffffffff1673ffffffffffffffffffffffffffffffffffffffff168152602001908152602001600020805490500390507f76f4df91a34263fc533728c4689dd106f547d04117b44c2f5606efdbc184bdde338383604051808473ffffffffffffffffffffffffffffffffffffffff1681526020018373ffffffffffffffffffffffffffffffffffffffff168152602001828152602001935050505060405180910390a15050505050565b611902816001612531565b50565b606060006119138484611007565b67ffffffffffffffff8111801561192957600080fd5b506040519080825280602002602001820160405280156119585781602001602082028036833780820191505090505b5090506000805b600360008673ffffffffffffffffffffffffffffffffffffffff1673ffffffffffffffffffffffffffffffffffffffff16815260200190815260200160002080549050811015611a85578573ffffffffffffffffffffffffffffffffffffffff16600360008773ffffffffffffffffffffffffffffffffffffffff1673ffffffffffffffffffffffffffffffffffffffff1681526020019081526020016000208281548110611a0a57fe5b906000526020600020906004020160000160009054906101000a900473ffffffffffffffffffffffffffffffffffffffff1673ffffffffffffffffffffffffffffffffffffffff161415611a785780838381518110611a6557fe5b6020026020010181815250506001820191505b808060010191505061195f565b50819250505092915050565b611a9a3361157a565b15156001151514611af6576040517f08c379a0000000000000000000000000000000000000000000000000000000008152600401808060200182810382526022815260200180613a8a6022913960400191505060405180910390fd5b600360008573ffffffffffffffffffffffffffffffffffffffff1673ffffffffffffffffffffffffffffffffffffffff168152602001908152602001600020805490508510611bad576040517f08c379a000000000000000000000000000000000000000000000000000000000815260040180806020018281038252601a8152602001807f436572746966696361746520646f6573206e6f7420657869737400000000000081525060200191505060405180910390fd5b600360008573ffffffffffffffffffffffffffffffffffffffff1673ffffffffffffffffffffffffffffffffffffffff1681526020019081526020016000208581548110611bf757fe5b906000526020600020906004020160000160009054906101000a900473ffffffffffffffffffffffffffffffffffffffff1673ffffffffffffffffffffffffffffffffffffffff163373ffffffffffffffffffffffffffffffffffffffff1614611cac576040517f08c379a0000000000000000000000000000000000000000000000000000000008152600401808060200182810382526031815260200180613a596031913960400191505060405180910390fd5b825160001015611d275782600360008673ffffffffffffffffffffffffffffffffffffffff1673ffffffffffffffffffffffffffffffffffffffff1681526020019081526020016000208681548110611d0157fe5b90600052602060002090600402016001019080519060200190611d2592919061391f565b505b815160001015611da25781600360008673ffffffffffffffffffffffffffffffffffffffff1673ffffffffffffffffffffffffffffffffffffffff1681526020019081526020016000208681548110611d7c57fe5b90600052602060002090600402016002019080519060200190611da092919061391f565b505b805160001015611e1d5780600360008673ffffffffffffffffffffffffffffffffffffffff1673ffffffffffffffffffffffffffffffffffffffff1681526020019081526020016000208681548110611df757fe5b90600052602060002090600402016003019080519060200190611e1b9291906139ad565b505b7f736a6334743f8e5fff8d835332a115f2c34c1bbf6e2384459e1a24e0540bd47c600360008673ffffffffffffffffffffffffffffffffffffffff1673ffffffffffffffffffffffffffffffffffffffff1681526020019081526020016000208681548110611e8857fe5b906000526020600020906004020160000160009054906101000a900473ffffffffffffffffffffffffffffffffffffffff168587604051808473ffffffffffffffffffffffffffffffffffffffff1681526020018373ffffffffffffffffffffffffffffffffffffffff168152602001828152602001935050505060405180910390a15050505050565b611f1e82826000612395565b5050565b6060611f2e6000613601565b905090565b6000611f3f6001613850565b905090565b6000611f506000613850565b905090565b611f6182826001612cc4565b5050565b60006060806060600360008673ffffffffffffffffffffffffffffffffffffffff1673ffffffffffffffffffffffffffffffffffffffff168152602001908152602001600020805490508610612023576040517f08c379a000000000000000000000000000000000000000000000000000000000815260040180806020018281038252601a8152602001807f436572746966696361746520646f6573206e6f7420657869737400000000000081525060200191505060405180910390fd5b600360008673ffffffffffffffffffffffffffffffffffffffff1673ffffffffffffffffffffffffffffffffffffffff168152602001908152602001600020868154811061206d57fe5b906000526020600020906004020160000160009054906101000a900473ffffffffffffffffffffffffffffffffffffffff16600360008773ffffffffffffffffffffffffffffffffffffffff1673ffffffffffffffffffffffffffffffffffffffff16815260200190815260200160002087815481106120e957fe5b9060005260206000209060040201600101600360008873ffffffffffffffffffffffffffffffffffffffff1673ffffffffffffffffffffffffffffffffffffffff168152602001908152602001600020888154811061214457fe5b9060005260206000209060040201600201600360008973ffffffffffffffffffffffffffffffffffffffff1673ffffffffffffffffffffffffffffffffffffffff168152602001908152602001600020898154811061219f57fe5b9060005260206000209060040201600301828054600181600116156101000203166002900480601f0160208091040260200160405190810160405280929190818152602001828054600181600116156101000203166002900480156122455780601f1061221a57610100808354040283529160200191612245565b820191906000526020600020905b81548152906001019060200180831161222857829003601f168201915b50505050509250818054600181600116156101000203166002900480601f0160208091040260200160405190810160405280929190818152602001828054600181600116156101000203166002900480156122e15780601f106122b6576101008083540402835291602001916122e1565b820191906000526020600020905b8154815290600101906020018083116122c457829003601f168201915b50505050509150808054600181600116156101000203166002900480601f01602080910402602001604051908101604052809291908181526020018280546001816001161561010002031660029004801561237d5780601f106123525761010080835404028352916020019161237d565b820191906000526020600020905b81548152906001019060200180831161236057829003601f168201915b50505050509050935093509350935092959194509250565b8273ffffffffffffffffffffffffffffffffffffffff163373ffffffffffffffffffffffffffffffffffffffff1614612436576040517f08c379a000000000000000000000000000000000000000000000000000000000815260040180806020018281038252601c8152602001807f4e6f7420616c6c6f77656420746f2075706461746520656e746974790000000081525060200191505060405180910390fd5b6124408382612c4e565b151560011515146124b9576040517f08c379a00000000000000000000000000000000000000000000000000000000081526004018080602001828103825260148152602001807f456e74697479206e6f742061637469766174656400000000000000000000000081525060200191505060405180910390fd5b81600282815481106124c757fe5b906000526020600020906002020160000160008573ffffffffffffffffffffffffffffffffffffffff1673ffffffffffffffffffffffffffffffffffffffff168152602001908152602001600020600201908051906020019061252b92919061391f565b50505050565b80600180549050116125ab576040517f08c379a00000000000000000000000000000000000000000000000000000000081526004018080602001828103825260198152602001807f70726f7669646564206c6973742049642069732077726f6e670000000000000081525060200191505060405180910390fd5b6125b433611147565b15156001151514806125f157508173ffffffffffffffffffffffffffffffffffffffff163373ffffffffffffffffffffffffffffffffffffffff16145b612663576040517f08c379a000000000000000000000000000000000000000000000000000000000815260040180806020018281038252601c8152602001807f4e6f7420616c6c6f77656420746f2072656d6f766520656e746974790000000081525060200191505060405180910390fd5b6002818154811061267057fe5b906000526020600020906002020160000160008373ffffffffffffffffffffffffffffffffffffffff1673ffffffffffffffffffffffffffffffffffffffff16815260200190815260200160002060010160009054906101000a900460ff1615156001151514612748576040517f08c379a00000000000000000000000000000000000000000000000000000000081526004018080602001828103825260148152602001807f456e74697479206e6f742061637469766174656400000000000000000000000081525060200191505060405180910390fd5b6002818154811061275557fe5b906000526020600020906002020160000160008373ffffffffffffffffffffffffffffffffffffffff1673ffffffffffffffffffffffffffffffffffffffff16815260200190815260200160002060060160003373ffffffffffffffffffffffffffffffffffffffff1673ffffffffffffffffffffffffffffffffffffffff16815260200190815260200160002060009054906101000a900460ff161515600015151461286a576040517f08c379a00000000000000000000000000000000000000000000000000000000081526004018080602001828103825260178152602001807f4f776e65722068617320616c726561647920766f74656400000000000000000081525060200191505060405180910390fd5b60016002828154811061287957fe5b906000526020600020906002020160000160008473ffffffffffffffffffffffffffffffffffffffff1673ffffffffffffffffffffffffffffffffffffffff168152602001908152602001600020600501600082825401925050819055506001600282815481106128e657fe5b906000526020600020906002020160000160008473ffffffffffffffffffffffffffffffffffffffff1673ffffffffffffffffffffffffffffffffffffffff16815260200190815260200160002060060160003373ffffffffffffffffffffffffffffffffffffffff1673ffffffffffffffffffffffffffffffffffffffff16815260200190815260200160002060006101000a81548160ff0219169083151502179055508173ffffffffffffffffffffffffffffffffffffffff163373ffffffffffffffffffffffffffffffffffffffff161480612a285750612a27600282815481106129d057fe5b906000526020600020906002020160000160008473ffffffffffffffffffffffffffffffffffffffff1673ffffffffffffffffffffffffffffffffffffffff16815260200190815260200160002060050154613871565b5b15612c4a5760028181548110612a3a57fe5b906000526020600020906002020160010160028281548110612a5857fe5b906000526020600020906002020160000160008473ffffffffffffffffffffffffffffffffffffffff1673ffffffffffffffffffffffffffffffffffffffff1681526020019081526020016000206000015481548110612ab457fe5b9060005260206000200160006101000a81549073ffffffffffffffffffffffffffffffffffffffff021916905560028181548110612aee57fe5b906000526020600020906002020160000160008373ffffffffffffffffffffffffffffffffffffffff1673ffffffffffffffffffffffffffffffffffffffff1681526020019081526020016000206000808201600090556001820160006101000a81549060ff0219169055600282016000612b69919061388f565b6003820160009055600582016000905550506001808281548110612b8957fe5b90600052602060002001600082825403925050819055508060001415612bfb577fdeb2fd983f5ea76ad0475f0a39a88d8c773f60fda03f8048cf465814bde26af382604051808273ffffffffffffffffffffffffffffffffffffffff16815260200191505060405180910390a1612c49565b7f7fe3d1469180155418d41d4da2042f53bf3d76fdc4aab220f5d272e0699e4b6e82604051808273ffffffffffffffffffffffffffffffffffffffff16815260200191505060405180910390a15b5b5050565b600060028281548110612c5d57fe5b906000526020600020906002020160000160008473ffffffffffffffffffffffffffffffffffffffff1673ffffffffffffffffffffffffffffffffffffffff16815260200190815260200160002060010160009054906101000a900460ff16905092915050565b8060018054905011612d3e576040517f08c379a00000000000000000000000000000000000000000000000000000000081526004018080602001828103825260198152602001807f70726f7669646564206c6973742049642069732077726f6e670000000000000081525060200191505060405180910390fd5b612d4733611147565b15156001151514612dc0576040517f08c379a000000000000000000000000000000000000000000000000000000000815260040180806020018281038252601b8152602001807f4e6f7420616c6c6f77656420746f2061646420656e746974696573000000000081525060200191505060405180910390fd5b60028181548110612dcd57fe5b906000526020600020906002020160000160008473ffffffffffffffffffffffffffffffffffffffff1673ffffffffffffffffffffffffffffffffffffffff16815260200190815260200160002060010160009054906101000a900460ff1615156000151514612ea5576040517f08c379a00000000000000000000000000000000000000000000000000000000081526004018080602001828103825260188152602001807f456e7469747920616c726561647920616374697661746564000000000000000081525060200191505060405180910390fd5b60028181548110612eb257fe5b906000526020600020906002020160000160008473ffffffffffffffffffffffffffffffffffffffff1673ffffffffffffffffffffffffffffffffffffffff16815260200190815260200160002060040160003373ffffffffffffffffffffffffffffffffffffffff1673ffffffffffffffffffffffffffffffffffffffff16815260200190815260200160002060009054906101000a900460ff1615156000151514612fc7576040517f08c379a00000000000000000000000000000000000000000000000000000000081526004018080602001828103825260178152602001807f4f776e65722068617320616c726561647920766f74656400000000000000000081525060200191505060405180910390fd5b60028181548110612fd457fe5b906000526020600020906002020160000160008473ffffffffffffffffffffffffffffffffffffffff1673ffffffffffffffffffffffffffffffffffffffff16815260200190815260200160002060030154600014156130a257816002828154811061303c57fe5b906000526020600020906002020160000160008573ffffffffffffffffffffffffffffffffffffffff1673ffffffffffffffffffffffffffffffffffffffff16815260200190815260200160002060020190805190602001906130a092919061391f565b505b6001600282815481106130b157fe5b906000526020600020906002020160000160008573ffffffffffffffffffffffffffffffffffffffff1673ffffffffffffffffffffffffffffffffffffffff1681526020019081526020016000206003016000828254019250508190555060016002828154811061311e57fe5b906000526020600020906002020160000160008573ffffffffffffffffffffffffffffffffffffffff1673ffffffffffffffffffffffffffffffffffffffff16815260200190815260200160002060040160003373ffffffffffffffffffffffffffffffffffffffff1673ffffffffffffffffffffffffffffffffffffffff16815260200190815260200160002060006101000a81548160ff02191690831515021790555061322a600282815481106131d357fe5b906000526020600020906002020160000160008573ffffffffffffffffffffffffffffffffffffffff1673ffffffffffffffffffffffffffffffffffffffff16815260200190815260200160002060030154613871565b156134785760016002828154811061323e57fe5b906000526020600020906002020160000160008573ffffffffffffffffffffffffffffffffffffffff1673ffffffffffffffffffffffffffffffffffffffff16815260200190815260200160002060010160006101000a81548160ff021916908315150217905550600281815481106132b357fe5b906000526020600020906002020160010180549050600282815481106132d557fe5b906000526020600020906002020160000160008573ffffffffffffffffffffffffffffffffffffffff1673ffffffffffffffffffffffffffffffffffffffff168152602001908152602001600020600001819055506002818154811061333757fe5b9060005260206000209060020201600101839080600181540180825580915050600190039060005260206000200160009091909190916101000a81548173ffffffffffffffffffffffffffffffffffffffff021916908373ffffffffffffffffffffffffffffffffffffffff16021790555060018082815481106133b757fe5b90600052602060002001600082825401925050819055508060001415613429577f68c1703cd1b1bd3a48da3e9a8712cf464730736862199903eac069e0b2e1ab2f83604051808273ffffffffffffffffffffffffffffffffffffffff16815260200191505060405180910390a1613477565b7f4e682d2fe27aaaadc497c9446d76e9fad6e638e651d523202c138a0acc6ff52a83604051808273ffffffffffffffffffffffffffffffffffffffff16815260200191505060405180910390a15b5b505050565b60606134898383612c4e565b15156001151514613502576040517f08c379a00000000000000000000000000000000000000000000000000000000081526004018080602001828103825260158152602001807f456e7469747920646f6573206e6f74206578697374000000000000000000000081525060200191505060405180910390fd5b6002828154811061350f57fe5b906000526020600020906002020160000160008473ffffffffffffffffffffffffffffffffffffffff1673ffffffffffffffffffffffffffffffffffffffff1681526020019081526020016000206002018054600181600116156101000203166002900480601f0160208091040260200160405190810160405280929190818152602001828054600181600116156101000203166002900480156135f45780601f106135c9576101008083540402835291602001916135f4565b820191906000526020600020905b8154815290600101906020018083116135d757829003601f168201915b5050505050905092915050565b6060816001805490501161367d576040517f08c379a00000000000000000000000000000000000000000000000000000000081526004018080602001828103825260198152602001807f70726f7669646564206c6973742049642069732077726f6e670000000000000081525060200191505060405180910390fd5b60006001838154811061368c57fe5b906000526020600020015467ffffffffffffffff811180156136ad57600080fd5b506040519080825280602002602001820160405280156136dc5781602001602082028036833780820191505090505b509050600080600090505b600285815481106136f457fe5b906000526020600020906002020160010180549050811015613845576002858154811061371d57fe5b9060005260206000209060020201600101818154811061373957fe5b9060005260206000200160009054906101000a900473ffffffffffffffffffffffffffffffffffffffff1673ffffffffffffffffffffffffffffffffffffffff16600073ffffffffffffffffffffffffffffffffffffffff161461383857600285815481106137a457fe5b906000526020600020906002020160010181815481106137c057fe5b9060005260206000200160009054906101000a900473ffffffffffffffffffffffffffffffffffffffff168383815181106137f757fe5b602002602001019073ffffffffffffffffffffffffffffffffffffffff16908173ffffffffffffffffffffffffffffffffffffffff16815250506001820191505b80806001019150506136e7565b508192505050919050565b60006001828154811061385f57fe5b90600052602060002001549050919050565b60008054821015613885576000905061388a565b600190505b919050565b50805460018160011615610100020316600290046000825580601f106138b557506138d4565b601f0160209004906000526020600020908101906138d39190613a3b565b5b50565b50805460018160011615610100020316600290046000825580601f106138fd575061391c565b601f01602090049060005260206000209081019061391b9190613a3b565b5b50565b828054600181600116156101000203166002900490600052602060002090601f016020900481019282613955576000855561399c565b82601f1061396e57805160ff191683800117855561399c565b8280016001018555821561399c579182015b8281111561399b578251825591602001919060010190613980565b5b5090506139a99190613a3b565b5090565b828054600181600116156101000203166002900490600052602060002090601f0160209004810192826139e35760008555613a2a565b82601f106139fc57805160ff1916838001178555613a2a565b82800160010185558215613a2a579182015b82811115613a29578251825591602001919060010190613a0e565b5b509050613a379190613a3b565b5090565b5b80821115613a54576000816000905550600101613a3c565b509056fe4e6f7420616c6c6f77656420746f20757064617465207468697320706172746963756c61722043657274696669636174654e6f7420616c6c6f77656420746f206d616e616765204365727469666963617465734e6f7420616c6c6f77656420746f2072656d6f7665207468697320706172746963756c6172204365727469666963617465a2646970667358221220278478cb6383eec836bac8ad63197b6ddcd30a2d54811216a7c45a4b0ba5b93464736f6c634300070600334e6f7420656e6f756768206f776e6572732070726f766964656420746f206d65657420746865206d696e4f776e65727320726571756972656d656e74",
  "immutableReferences": {},
  "source": "// SPDX-License-Identifier: GPL-3.0\r\n\r\npragma solidity >=0.7.0 <0.9.0;\r\n\r\n/**\r\n * @title Storage\r\n * @dev Store & retrieve value in a variable\r\n */\r\n \r\nimport \"./Certificates.sol\";\r\n\r\n /* \r\n Actors : Chair Person, Anyone\r\n Token : Proposals\r\n\r\n 1- Anyone can submit proposals (paying a fee)\r\n 2- Chair Person can approve proposals creating Providers in Certificates Contract\r\n\r\n\r\n Proposals lifecycle\r\n    Proposals Creation : Anyone (paying fee)\r\n    Proposals Update : \r\n    Proposals Remove :   \r\n    Proposals Validations : Only Chair Person  \r\n\r\n */\r\n\r\ncontract Proposals{\r\n\r\n    event _SendProposalId(address);\r\n    event _ApproveProposalId(address);\r\n    event _RejectProposalId(address);\r\n\r\n    enum proposalState { NOT_SUBMITTED, PENDING, APPROVED, REJECTED }\r\n    uint constant _PriceWei = 10;\r\n\r\n    Certificates  _CertificatesContract;\r\n    \r\n    struct _proposal{\r\n        proposalState _state;\r\n        string _providerInfo;\r\n    } \r\n    \r\n    address payable _chairperson;\r\n    mapping(address => _proposal) public _proposals;\r\n    address[] listOfOwners;\r\n    \r\n    constructor() payable{\r\n        _chairperson = payable(msg.sender);\r\n        listOfOwners.push(address(msg.sender));\r\n        _CertificatesContract = new Certificates(listOfOwners, 1);\r\n    }\r\n    \r\n    // PROPOSALS CRUD Operations\r\n\r\n    function sendProposal(address provider, string memory providerInfo) public payable {\r\n       require(msg.value >= _PriceWei, \"Not enough funds\");\r\n       require(proposalState.NOT_SUBMITTED == _proposals[provider]._state, \"Proposal already submitted\");\r\n\r\n       _proposals[provider]._state = proposalState.PENDING;\r\n       _proposals[provider]._providerInfo = providerInfo;\r\n\r\n       emit _SendProposalId(provider);\r\n    }\r\n    \r\n    function approveProposal(address provider) public{\r\n        require(msg.sender == _chairperson, \"Not allowed to approve proposals\");\r\n        require(proposalState.PENDING == _proposals[provider]._state, \"This proposal cannot be modified\");\r\n\r\n        _proposals[provider]._state = proposalState.APPROVED;\r\n        _CertificatesContract.addProvider(provider, _proposals[provider]._providerInfo);   \r\n\r\n        emit _ApproveProposalId(provider);\r\n    }\r\n\r\n    function rejectProposal(address provider) public{\r\n        require(msg.sender == _chairperson, \"Not allowed to reject proposals\");\r\n        require(proposalState.PENDING == _proposals[provider]._state, \"This proposal cannot be modified\");\r\n\r\n        _proposals[provider]._state = proposalState.REJECTED;\r\n\r\n        emit _RejectProposalId(provider);\r\n    }\r\n    \r\n    function retrieveProposal(address provider) public view returns (uint, string memory) {\r\n        require(proposalState.NOT_SUBMITTED != _proposals[provider]._state, \"This proposal does not exist\");\r\n\r\n        return (uint(_proposals[provider]._state), _proposals[provider]._providerInfo);\r\n    }\r\n    \r\n    // Contract basic information\r\n\r\n    function retrieveCertificatesContractAddress() public view returns (Certificates) {\r\n        return _CertificatesContract;\r\n    }\r\n    \r\n    function retrieveChairPerson() public view returns (address) {\r\n        return _chairperson;\r\n    }\r\n    \r\n}",
  "sourcePath": "C:/Users/d-aam/GitHub/Certificates/contracts/Proposals.sol",
  "compiler": {
    "name": "solc",
    "version": "0.7.6+commit.7338295f.Emscripten.clang"
  },
  "schemaVersion": "3.3.4",
  "updatedAt": "2021-05-06T08:10:59.999Z",
  "devdoc": {
    "kind": "dev",
    "methods": {},
    "version": 1
  },
  "userdoc": {
    "kind": "user",
    "methods": {},
    "version": 1
  }
}