{
  "contractName": "Proposals",
  "abi": [
    {
      "inputs": [],
      "stateMutability": "payable",
      "type": "constructor"
    },
    {
      "inputs": [
        {
          "internalType": "address",
          "name": "",
          "type": "address"
        }
      ],
      "name": "_proposals",
      "outputs": [
        {
          "internalType": "enum Proposals.proposalState",
          "name": "_state",
          "type": "uint8"
        },
        {
          "internalType": "string",
          "name": "_providerInfo",
          "type": "string"
        }
      ],
      "stateMutability": "view",
      "type": "function"
    },
    {
      "inputs": [
        {
          "internalType": "address",
          "name": "provider",
          "type": "address"
        },
        {
          "internalType": "string",
          "name": "providerInfo",
          "type": "string"
        }
      ],
      "name": "sendProposal",
      "outputs": [],
      "stateMutability": "payable",
      "type": "function"
    },
    {
      "inputs": [
        {
          "internalType": "address",
          "name": "provider",
          "type": "address"
        }
      ],
      "name": "approveProposal",
      "outputs": [],
      "stateMutability": "nonpayable",
      "type": "function"
    },
    {
      "inputs": [
        {
          "internalType": "address",
          "name": "provider",
          "type": "address"
        }
      ],
      "name": "rejectProposal",
      "outputs": [],
      "stateMutability": "nonpayable",
      "type": "function"
    },
    {
      "inputs": [
        {
          "internalType": "address",
          "name": "provider",
          "type": "address"
        }
      ],
      "name": "retrieveProposal",
      "outputs": [
        {
          "internalType": "uint256",
          "name": "",
          "type": "uint256"
        },
        {
          "internalType": "string",
          "name": "",
          "type": "string"
        }
      ],
      "stateMutability": "view",
      "type": "function"
    },
    {
      "inputs": [],
      "name": "retrieveCertificatesContractAddress",
      "outputs": [
        {
          "internalType": "contract Certificates",
          "name": "",
          "type": "address"
        }
      ],
      "stateMutability": "view",
      "type": "function"
    },
    {
      "inputs": [],
      "name": "retrieveChairPerson",
      "outputs": [
        {
          "internalType": "address",
          "name": "",
          "type": "address"
        }
      ],
      "stateMutability": "view",
      "type": "function"
    }
  ],
  "bytecode": "0x608060405233600160006101000a81548173ffffffffffffffffffffffffffffffffffffffff021916908373ffffffffffffffffffffffffffffffffffffffff1602179055506003339080600181540180825580915050600190039060005260206000200160009091909190916101000a81548173ffffffffffffffffffffffffffffffffffffffff021916908373ffffffffffffffffffffffffffffffffffffffff16021790555060036040516100b690610195565b8080602001828103825283818154815260200191508054801561012e57602002820191906000526020600020905b8160009054906101000a900473ffffffffffffffffffffffffffffffffffffffff1673ffffffffffffffffffffffffffffffffffffffff16815260200190600101908083116100e4575b505092505050604051809103906000f080158015610150573d6000803e3d6000fd5b506000806101000a81548173ffffffffffffffffffffffffffffffffffffffff021916908373ffffffffffffffffffffffffffffffffffffffff1602179055506101a2565b612e2c8061117783390190565b610fc6806101b16000396000f3fe6080604052600436106100705760003560e01c8063858e7ce61161004e578063858e7ce6146101e3578063cddab28b146102be578063db85bc4d1461030f578063efec414b1461035057610070565b806303354faa146100755780633bd2993c146100c65780634f3f6c2914610107575b600080fd5b34801561008157600080fd5b506100c46004803603602081101561009857600080fd5b81019080803573ffffffffffffffffffffffffffffffffffffffff169060200190929190505050610421565b005b3480156100d257600080fd5b506100db610791565b604051808273ffffffffffffffffffffffffffffffffffffffff16815260200191505060405180910390f35b34801561011357600080fd5b506101566004803603602081101561012a57600080fd5b81019080803573ffffffffffffffffffffffffffffffffffffffff1690602001909291905050506107ba565b6040518083600381111561016657fe5b815260200180602001828103825283818151815260200191508051906020019080838360005b838110156101a757808201518184015260208101905061018c565b50505050905090810190601f1680156101d45780820380516001836020036101000a031916815260200191505b50935050505060405180910390f35b6102bc600480360360408110156101f957600080fd5b81019080803573ffffffffffffffffffffffffffffffffffffffff1690602001909291908035906020019064010000000081111561023657600080fd5b82018360208201111561024857600080fd5b8035906020019184600183028401116401000000008311171561026a57600080fd5b91908080601f016020809104026020016040519081016040528093929190818152602001838380828437600081840152601f19601f820116905080830192505050505050509192919290505050610883565b005b3480156102ca57600080fd5b5061030d600480360360208110156102e157600080fd5b81019080803573ffffffffffffffffffffffffffffffffffffffff169060200190929190505050610a94565b005b34801561031b57600080fd5b50610324610c99565b604051808273ffffffffffffffffffffffffffffffffffffffff16815260200191505060405180910390f35b34801561035c57600080fd5b5061039f6004803603602081101561037357600080fd5b81019080803573ffffffffffffffffffffffffffffffffffffffff169060200190929190505050610cc3565b6040518083815260200180602001828103825283818151815260200191508051906020019080838360005b838110156103e55780820151818401526020810190506103ca565b50505050905090810190601f1680156104125780820380516001836020036101000a031916815260200191505b50935050505060405180910390f35b600160009054906101000a900473ffffffffffffffffffffffffffffffffffffffff1673ffffffffffffffffffffffffffffffffffffffff163373ffffffffffffffffffffffffffffffffffffffff16146104e4576040517f08c379a00000000000000000000000000000000000000000000000000000000081526004018080602001828103825260208152602001807f4e6f7420616c6c6f77656420746f20617070726f76652070726f706f73616c7381525060200191505060405180910390fd5b600260008273ffffffffffffffffffffffffffffffffffffffff1673ffffffffffffffffffffffffffffffffffffffff16815260200190815260200160002060000160009054906101000a900460ff16600381111561053f57fe5b6001600381111561054c57fe5b146105bf576040517f08c379a00000000000000000000000000000000000000000000000000000000081526004018080602001828103825260208152602001807f546869732070726f706f73616c2063616e6e6f74206265206d6f64696669656481525060200191505060405180910390fd5b60028060008373ffffffffffffffffffffffffffffffffffffffff1673ffffffffffffffffffffffffffffffffffffffff16815260200190815260200160002060000160006101000a81548160ff0219169083600381111561061d57fe5b021790555060008054906101000a900473ffffffffffffffffffffffffffffffffffffffff1673ffffffffffffffffffffffffffffffffffffffff1663fc00050082600260008573ffffffffffffffffffffffffffffffffffffffff1673ffffffffffffffffffffffffffffffffffffffff1681526020019081526020016000206001016040518363ffffffff1660e01b8152600401808373ffffffffffffffffffffffffffffffffffffffff168152602001806020018281038252838181546001816001161561010002031660029004815260200191508054600181600116156101000203166002900480156107555780601f1061072a57610100808354040283529160200191610755565b820191906000526020600020905b81548152906001019060200180831161073857829003601f168201915b50509350505050600060405180830381600087803b15801561077657600080fd5b505af115801561078a573d6000803e3d6000fd5b5050505050565b60008060009054906101000a900473ffffffffffffffffffffffffffffffffffffffff16905090565b60026020528060005260406000206000915090508060000160009054906101000a900460ff1690806001018054600181600116156101000203166002900480601f0160208091040260200160405190810160405280929190818152602001828054600181600116156101000203166002900480156108795780601f1061084e57610100808354040283529160200191610879565b820191906000526020600020905b81548152906001019060200180831161085c57829003601f168201915b5050505050905082565b600a3410156108fa576040517f08c379a00000000000000000000000000000000000000000000000000000000081526004018080602001828103825260108152602001807f4e6f7420656e6f7567682066756e64730000000000000000000000000000000081525060200191505060405180910390fd5b600260008373ffffffffffffffffffffffffffffffffffffffff1673ffffffffffffffffffffffffffffffffffffffff16815260200190815260200160002060000160009054906101000a900460ff16600381111561095557fe5b6000600381111561096257fe5b146109d5576040517f08c379a000000000000000000000000000000000000000000000000000000000815260040180806020018281038252601a8152602001807f50726f706f73616c20616c7265616479207375626d697474656400000000000081525060200191505060405180910390fd5b6001600260008473ffffffffffffffffffffffffffffffffffffffff1673ffffffffffffffffffffffffffffffffffffffff16815260200190815260200160002060000160006101000a81548160ff02191690836003811115610a3457fe5b021790555080600260008473ffffffffffffffffffffffffffffffffffffffff1673ffffffffffffffffffffffffffffffffffffffff1681526020019081526020016000206001019080519060200190610a8f929190610ee5565b505050565b600160009054906101000a900473ffffffffffffffffffffffffffffffffffffffff1673ffffffffffffffffffffffffffffffffffffffff163373ffffffffffffffffffffffffffffffffffffffff1614610b57576040517f08c379a000000000000000000000000000000000000000000000000000000000815260040180806020018281038252601f8152602001807f4e6f7420616c6c6f77656420746f2072656a6563742070726f706f73616c730081525060200191505060405180910390fd5b600260008273ffffffffffffffffffffffffffffffffffffffff1673ffffffffffffffffffffffffffffffffffffffff16815260200190815260200160002060000160009054906101000a900460ff166003811115610bb257fe5b60016003811115610bbf57fe5b14610c32576040517f08c379a00000000000000000000000000000000000000000000000000000000081526004018080602001828103825260208152602001807f546869732070726f706f73616c2063616e6e6f74206265206d6f64696669656481525060200191505060405180910390fd5b6003600260008373ffffffffffffffffffffffffffffffffffffffff1673ffffffffffffffffffffffffffffffffffffffff16815260200190815260200160002060000160006101000a81548160ff02191690836003811115610c9157fe5b021790555050565b6000600160009054906101000a900473ffffffffffffffffffffffffffffffffffffffff16905090565b60006060600260008473ffffffffffffffffffffffffffffffffffffffff1673ffffffffffffffffffffffffffffffffffffffff16815260200190815260200160002060000160009054906101000a900460ff166003811115610d2257fe5b60006003811115610d2f57fe5b1415610da3576040517f08c379a000000000000000000000000000000000000000000000000000000000815260040180806020018281038252601c8152602001807f546869732070726f706f73616c20646f6573206e6f742065786973740000000081525060200191505060405180910390fd5b600260008473ffffffffffffffffffffffffffffffffffffffff1673ffffffffffffffffffffffffffffffffffffffff16815260200190815260200160002060000160009054906101000a900460ff166003811115610dfe57fe5b600260008573ffffffffffffffffffffffffffffffffffffffff1673ffffffffffffffffffffffffffffffffffffffff168152602001908152602001600020600101808054600181600116156101000203166002900480601f016020809104026020016040519081016040528092919081815260200182805460018160011615610100020316600290048015610ed55780601f10610eaa57610100808354040283529160200191610ed5565b820191906000526020600020905b815481529060010190602001808311610eb857829003601f168201915b5050505050905091509150915091565b828054600181600116156101000203166002900490600052602060002090601f016020900481019282610f1b5760008555610f62565b82601f10610f3457805160ff1916838001178555610f62565b82800160010185558215610f62579182015b82811115610f61578251825591602001919060010190610f46565b5b509050610f6f9190610f73565b5090565b5b80821115610f8c576000816000905550600101610f74565b509056fea264697066735822122007e73654babf2e068b17416eaca6924994408945c5f2156f9e7f4692cad2a07464736f6c63430007060033608060405260405162002e2c38038062002e2c833981810160405260208110156200002957600080fd5b81019080805160405193929190846401000000008211156200004a57600080fd5b838201915060208201858111156200006157600080fd5b82518660208202830111640100000000821117156200007f57600080fd5b8083526020830192505050908051906020019060200280838360005b83811015620000b85780820151818401526020810190506200009b565b50505050905001604052505050336000806101000a81548173ffffffffffffffffffffffffffffffffffffffff021916908373ffffffffffffffffffffffffffffffffffffffff1602179055506001600360003373ffffffffffffffffffffffffffffffffffffffff1673ffffffffffffffffffffffffffffffffffffffff16815260200190815260200160002060006101000a81548160ff021916908315150217905550600160048190555060005b81518110156200026c57600360008383815181106200018357fe5b602002602001015173ffffffffffffffffffffffffffffffffffffffff1673ffffffffffffffffffffffffffffffffffffffff16815260200190815260200160002060009054906101000a900460ff1615156000151514156200025e57600160036000848481518110620001f357fe5b602002602001015173ffffffffffffffffffffffffffffffffffffffff1673ffffffffffffffffffffffffffffffffffffffff16815260200190815260200160002060006101000a81548160ff02191690831515021790555060016004600082825401925050819055505b808060010191505062000168565b50600060028190555050612ba680620002866000396000f3fe608060405234801561001057600080fd5b50600436106101165760003560e01c806383ce57b3116100a2578063bf3a5c0211610071578063bf3a5c0214610c5f578063d610d85f14610cb9578063d744d2f314610ce7578063eefe768114610d05578063fc00050014610d2357610116565b806383ce57b3146108755780638a355a57146108a95780639f25cd12146108ed578063ad5ed47c14610aa657610116565b806337583499116100e957806337583499146102b257806340f5ba1c1461036f5780637065cb4814610562578063769d7235146105a657806382ff66a31461066c57610116565b80631660c22a1461011b578063173825d9146101f657806317c082541461023a5780632f54bf6e14610258575b600080fd5b6101f46004803603604081101561013157600080fd5b81019080803573ffffffffffffffffffffffffffffffffffffffff1690602001909291908035906020019064010000000081111561016e57600080fd5b82018360208201111561018057600080fd5b803590602001918460018302840111640100000000831117156101a257600080fd5b91908080601f016020809104026020016040519081016040528093929190818152602001838380828437600081840152601f19601f820116905080830192505050505050509192919290505050610dfe565b005b6102386004803603602081101561020c57600080fd5b81019080803573ffffffffffffffffffffffffffffffffffffffff16906020019092919050505061101e565b005b61024261126c565b6040518082815260200191505060405180910390f35b61029a6004803603602081101561026e57600080fd5b81019080803573ffffffffffffffffffffffffffffffffffffffff169060200190929190505050611279565b60405180821515815260200191505060405180910390f35b6102f4600480360360208110156102c857600080fd5b81019080803573ffffffffffffffffffffffffffffffffffffffff1690602001909291905050506112cf565b6040518080602001828103825283818151815260200191508051906020019080838360005b83811015610334578082015181840152602081019050610319565b50505050905090810190601f1680156103615780820380516001836020036101000a031916815260200191505b509250505060405180910390f35b6105606004803603608081101561038557600080fd5b8101908080359060200190929190803590602001906401000000008111156103ac57600080fd5b8201836020820111156103be57600080fd5b803590602001918460018302840111640100000000831117156103e057600080fd5b91908080601f016020809104026020016040519081016040528093929190818152602001838380828437600081840152601f19601f8201169050808301925050505050505091929192908035906020019064010000000081111561044357600080fd5b82018360208201111561045557600080fd5b8035906020019184600183028401116401000000008311171561047757600080fd5b91908080601f016020809104026020016040519081016040528093929190818152602001838380828437600081840152601f19601f820116905080830192505050505050509192919290803590602001906401000000008111156104da57600080fd5b8201836020820111156104ec57600080fd5b8035906020019184600183028401116401000000008311171561050e57600080fd5b91908080601f016020809104026020016040519081016040528093929190818152602001838380828437600081840152601f19601f82011690508083019250505050505050919291929050505061147c565b005b6105a46004803603602081101561057857600080fd5b81019080803573ffffffffffffffffffffffffffffffffffffffff169060200190929190505050611678565b005b6105e8600480360360208110156105bc57600080fd5b81019080803573ffffffffffffffffffffffffffffffffffffffff1690602001909291905050506118c6565b60405180831515815260200180602001828103825283818151815260200191508051906020019080838360005b83811015610630578082015181840152602081019050610615565b50505050905090810190601f16801561065d5780820380516001836020036101000a031916815260200191505b50935050505060405180910390f35b6108736004803603608081101561068257600080fd5b810190808035906020019064010000000081111561069f57600080fd5b8201836020820111156106b157600080fd5b803590602001918460018302840111640100000000831117156106d357600080fd5b91908080601f016020809104026020016040519081016040528093929190818152602001838380828437600081840152601f19601f8201169050808301925050505050505091929192908035906020019064010000000081111561073657600080fd5b82018360208201111561074857600080fd5b8035906020019184600183028401116401000000008311171561076a57600080fd5b91908080601f016020809104026020016040519081016040528093929190818152602001838380828437600081840152601f19601f820116905080830192505050505050509192919290803590602001906401000000008111156107cd57600080fd5b8201836020820111156107df57600080fd5b8035906020019184600183028401116401000000008311171561080157600080fd5b91908080601f016020809104026020016040519081016040528093929190818152602001838380828437600081840152601f19601f820116905080830192505050505050509192919290803573ffffffffffffffffffffffffffffffffffffffff16906020019092919050505061198f565b005b61087d611c85565b604051808273ffffffffffffffffffffffffffffffffffffffff16815260200191505060405180910390f35b6108eb600480360360208110156108bf57600080fd5b81019080803573ffffffffffffffffffffffffffffffffffffffff169060200190929190505050611cae565b005b6109196004803603602081101561090357600080fd5b8101908080359060200190929190505050611ee2565b604051808673ffffffffffffffffffffffffffffffffffffffff1681526020018573ffffffffffffffffffffffffffffffffffffffff168152602001806020018060200180602001848103845287818151815260200191508051906020019080838360005b8381101561099957808201518184015260208101905061097e565b50505050905090810190601f1680156109c65780820380516001836020036101000a031916815260200191505b50848103835286818151815260200191508051906020019080838360005b838110156109ff5780820151818401526020810190506109e4565b50505050905090810190601f168015610a2c5780820380516001836020036101000a031916815260200191505b50848103825285818151815260200191508051906020019080838360005b83811015610a65578082015181840152602081019050610a4a565b50505050905090810190601f168015610a925780820380516001836020036101000a031916815260200191505b509850505050505050505060405180910390f35b610ad260048036036020811015610abc57600080fd5b8101908080359060200190929190505050612130565b604051808673ffffffffffffffffffffffffffffffffffffffff1681526020018060200180602001806020018573ffffffffffffffffffffffffffffffffffffffff168152602001848103845288818151815260200191508051906020019080838360005b83811015610b52578082015181840152602081019050610b37565b50505050905090810190601f168015610b7f5780820380516001836020036101000a031916815260200191505b50848103835287818151815260200191508051906020019080838360005b83811015610bb8578082015181840152602081019050610b9d565b50505050905090810190601f168015610be55780820380516001836020036101000a031916815260200191505b50848103825286818151815260200191508051906020019080838360005b83811015610c1e578082015181840152602081019050610c03565b50505050905090810190601f168015610c4b5780820380516001836020036101000a031916815260200191505b509850505050505050505060405180910390f35b610ca160048036036020811015610c7557600080fd5b81019080803573ffffffffffffffffffffffffffffffffffffffff169060200190929190505050612472565b60405180821515815260200191505060405180910390f35b610ce560048036036020811015610ccf57600080fd5b8101908080359060200190929190505050612492565b005b610cef6126e1565b6040518082815260200191505060405180910390f35b610d0d6126eb565b6040518082815260200191505060405180910390f35b610dfc60048036036040811015610d3957600080fd5b81019080803573ffffffffffffffffffffffffffffffffffffffff16906020019092919080359060200190640100000000811115610d7657600080fd5b820183602082011115610d8857600080fd5b80359060200191846001830284011164010000000083111715610daa57600080fd5b91908080601f016020809104026020016040519081016040528093929190818152602001838380828437600081840152601f19601f8201169050808301925050505050505091929192905050506126f5565b005b600360003373ffffffffffffffffffffffffffffffffffffffff1673ffffffffffffffffffffffffffffffffffffffff16815260200190815260200160002060009054906101000a900460ff161515600115151480610e8857508173ffffffffffffffffffffffffffffffffffffffff163373ffffffffffffffffffffffffffffffffffffffff16145b610efa576040517f08c379a000000000000000000000000000000000000000000000000000000000815260040180806020018281038252601f8152602001807f4e6f7420616c6c6f77656420746f207570646174652070726f7669646572730081525060200191505060405180910390fd5b600160008373ffffffffffffffffffffffffffffffffffffffff1673ffffffffffffffffffffffffffffffffffffffff16815260200190815260200160002060000160009054906101000a900460ff1615156001151514610fc3576040517f08c379a00000000000000000000000000000000000000000000000000000000081526004018080602001828103825260168152602001807f50726f7669646572206e6f74206163746976617465640000000000000000000081525060200191505060405180910390fd5b80600160008473ffffffffffffffffffffffffffffffffffffffff1673ffffffffffffffffffffffffffffffffffffffff1681526020019081526020016000206001019080519060200190611019929190612945565b505050565b600360003373ffffffffffffffffffffffffffffffffffffffff1673ffffffffffffffffffffffffffffffffffffffff16815260200190815260200160002060009054906101000a900460ff1615156001151514806110c8575060008054906101000a900473ffffffffffffffffffffffffffffffffffffffff1673ffffffffffffffffffffffffffffffffffffffff163373ffffffffffffffffffffffffffffffffffffffff16145b61113a576040517f08c379a000000000000000000000000000000000000000000000000000000000815260040180806020018281038252601c8152602001807f4e6f7420616c6c6f77656420746f2072656d6f7665206f776e6572730000000081525060200191505060405180910390fd5b600360008273ffffffffffffffffffffffffffffffffffffffff1673ffffffffffffffffffffffffffffffffffffffff16815260200190815260200160002060009054906101000a900460ff1615156001151514611200576040517f08c379a000000000000000000000000000000000000000000000000000000000815260040180806020018281038252601a8152602001807f4f776e657220616c72656164792064652d61637469766174656400000000000081525060200191505060405180910390fd5b6000600360008373ffffffffffffffffffffffffffffffffffffffff1673ffffffffffffffffffffffffffffffffffffffff16815260200190815260200160002060006101000a81548160ff021916908315150217905550600160046000828254039250508190555050565b6000600580549050905090565b6000600360008373ffffffffffffffffffffffffffffffffffffffff1673ffffffffffffffffffffffffffffffffffffffff16815260200190815260200160002060009054906101000a900460ff169050919050565b6060600160008373ffffffffffffffffffffffffffffffffffffffff1673ffffffffffffffffffffffffffffffffffffffff16815260200190815260200160002060000160009054906101000a900460ff161515600115151461139a576040517f08c379a00000000000000000000000000000000000000000000000000000000081526004018080602001828103825260178152602001807f50726f766964657220646f6573206e6f7420657869737400000000000000000081525060200191505060405180910390fd5b600160008373ffffffffffffffffffffffffffffffffffffffff1673ffffffffffffffffffffffffffffffffffffffff1681526020019081526020016000206001018054600181600116156101000203166002900480601f0160208091040260200160405190810160405280929190818152602001828054600181600116156101000203166002900480156114705780601f1061144557610100808354040283529160200191611470565b820191906000526020600020905b81548152906001019060200180831161145357829003601f168201915b50505050509050919050565b6005848154811061148957fe5b906000526020600020906005020160000160009054906101000a900473ffffffffffffffffffffffffffffffffffffffff1673ffffffffffffffffffffffffffffffffffffffff163373ffffffffffffffffffffffffffffffffffffffff161461153e576040517f08c379a0000000000000000000000000000000000000000000000000000000008152600401808060200182810382526031815260200180612b0f6031913960400191505060405180910390fd5b60058054905084106115b8576040517f08c379a000000000000000000000000000000000000000000000000000000000815260040180806020018281038252601a8152602001807f436572746966696361746520646f6573206e6f7420657869737400000000000081525060200191505060405180910390fd5b8251600010156115f65782600585815481106115d057fe5b906000526020600020906005020160020190805190602001906115f4929190612945565b505b81516000101561163457816005858154811061160e57fe5b90600052602060002090600502016003019080519060200190611632929190612945565b505b80516000101561167257806005858154811061164c57fe5b906000526020600020906005020160040190805190602001906116709291906129d3565b505b50505050565b600360003373ffffffffffffffffffffffffffffffffffffffff1673ffffffffffffffffffffffffffffffffffffffff16815260200190815260200160002060009054906101000a900460ff161515600115151480611722575060008054906101000a900473ffffffffffffffffffffffffffffffffffffffff1673ffffffffffffffffffffffffffffffffffffffff163373ffffffffffffffffffffffffffffffffffffffff16145b611794576040517f08c379a00000000000000000000000000000000000000000000000000000000081526004018080602001828103825260198152602001807f4e6f7420616c6c6f77656420746f20616464206f776e6572730000000000000081525060200191505060405180910390fd5b600360008273ffffffffffffffffffffffffffffffffffffffff1673ffffffffffffffffffffffffffffffffffffffff16815260200190815260200160002060009054906101000a900460ff161515600015151461185a576040517f08c379a00000000000000000000000000000000000000000000000000000000081526004018080602001828103825260178152602001807f4f776e657220616c72656164792061637469766174656400000000000000000081525060200191505060405180910390fd5b6001600360008373ffffffffffffffffffffffffffffffffffffffff1673ffffffffffffffffffffffffffffffffffffffff16815260200190815260200160002060006101000a81548160ff021916908315150217905550600160046000828254019250508190555050565b60016020528060005260406000206000915090508060000160009054906101000a900460ff1690806001018054600181600116156101000203166002900480601f0160208091040260200160405190810160405280929190818152602001828054600181600116156101000203166002900480156119855780601f1061195a57610100808354040283529160200191611985565b820191906000526020600020905b81548152906001019060200180831161196857829003601f168201915b5050505050905082565b600160003373ffffffffffffffffffffffffffffffffffffffff1673ffffffffffffffffffffffffffffffffffffffff16815260200190815260200160002060000160009054906101000a900460ff1615156001151514611a58576040517f08c379a000000000000000000000000000000000000000000000000000000000815260040180806020018281038252601f8152602001807f4e6f7420616c6c6f77656420746f20616464204365727469666963617465730081525060200191505060405180910390fd5b825160001080611a69575083516000105b611adb576040517f08c379a00000000000000000000000000000000000000000000000000000000081526004018080602001828103825260148152602001807f436572746966696361746520697320656d70747900000000000000000000000081525060200191505060405180910390fd5b60056040518060a001604052803373ffffffffffffffffffffffffffffffffffffffff1681526020018373ffffffffffffffffffffffffffffffffffffffff16815260200186815260200185815260200184815250908060018154018082558091505060019003906000526020600020906005020160009091909190915060008201518160000160006101000a81548173ffffffffffffffffffffffffffffffffffffffff021916908373ffffffffffffffffffffffffffffffffffffffff16021790555060208201518160010160006101000a81548173ffffffffffffffffffffffffffffffffffffffff021916908373ffffffffffffffffffffffffffffffffffffffff1602179055506040820151816002019080519060200190611c03929190612945565b506060820151816003019080519060200190611c20929190612945565b506080820151816004019080519060200190611c3d9291906129d3565b5050507f17027320caf3eac157f42e54b35a0728ffed8184d38487008f3b46607cfb8f9c6001600580549050036040518082815260200191505060405180910390a150505050565b60008060009054906101000a900473ffffffffffffffffffffffffffffffffffffffff16905090565b600360003373ffffffffffffffffffffffffffffffffffffffff1673ffffffffffffffffffffffffffffffffffffffff16815260200190815260200160002060009054906101000a900460ff161515600115151480611d3857508073ffffffffffffffffffffffffffffffffffffffff163373ffffffffffffffffffffffffffffffffffffffff16145b611daa576040517f08c379a000000000000000000000000000000000000000000000000000000000815260040180806020018281038252601f8152602001807f4e6f7420616c6c6f77656420746f2072656d6f76652070726f7669646572730081525060200191505060405180910390fd5b600160008273ffffffffffffffffffffffffffffffffffffffff1673ffffffffffffffffffffffffffffffffffffffff16815260200190815260200160002060000160009054906101000a900460ff1615156001151514611e73576040517f08c379a00000000000000000000000000000000000000000000000000000000081526004018080602001828103825260168152602001807f50726f7669646572206e6f74206163746976617465640000000000000000000081525060200191505060405180910390fd5b6000600160008373ffffffffffffffffffffffffffffffffffffffff1673ffffffffffffffffffffffffffffffffffffffff16815260200190815260200160002060000160006101000a81548160ff021916908315150217905550600160026000828254039250508190555050565b60058181548110611ef257600080fd5b90600052602060002090600502016000915090508060000160009054906101000a900473ffffffffffffffffffffffffffffffffffffffff16908060010160009054906101000a900473ffffffffffffffffffffffffffffffffffffffff1690806002018054600181600116156101000203166002900480601f016020809104026020016040519081016040528092919081815260200182805460018160011615610100020316600290048015611fea5780601f10611fbf57610100808354040283529160200191611fea565b820191906000526020600020905b815481529060010190602001808311611fcd57829003601f168201915b505050505090806003018054600181600116156101000203166002900480601f0160208091040260200160405190810160405280929190818152602001828054600181600116156101000203166002900480156120885780601f1061205d57610100808354040283529160200191612088565b820191906000526020600020905b81548152906001019060200180831161206b57829003601f168201915b505050505090806004018054600181600116156101000203166002900480601f0160208091040260200160405190810160405280929190818152602001828054600181600116156101000203166002900480156121265780601f106120fb57610100808354040283529160200191612126565b820191906000526020600020905b81548152906001019060200180831161210957829003601f168201915b5050505050905085565b60006060806060600060058054905086106121b3576040517f08c379a000000000000000000000000000000000000000000000000000000000815260040180806020018281038252601a8152602001807f436572746966696361746520646f6573206e6f7420657869737400000000000081525060200191505060405180910390fd5b600586815481106121c057fe5b906000526020600020906005020160000160009054906101000a900473ffffffffffffffffffffffffffffffffffffffff16600587815481106121ff57fe5b90600052602060002090600502016002016005888154811061221d57fe5b90600052602060002090600502016003016005898154811061223b57fe5b906000526020600020906005020160040160058a8154811061225957fe5b906000526020600020906005020160010160009054906101000a900473ffffffffffffffffffffffffffffffffffffffff16838054600181600116156101000203166002900480601f0160208091040260200160405190810160405280929190818152602001828054600181600116156101000203166002900480156123205780601f106122f557610100808354040283529160200191612320565b820191906000526020600020905b81548152906001019060200180831161230357829003601f168201915b50505050509350828054600181600116156101000203166002900480601f0160208091040260200160405190810160405280929190818152602001828054600181600116156101000203166002900480156123bc5780601f10612391576101008083540402835291602001916123bc565b820191906000526020600020905b81548152906001019060200180831161239f57829003601f168201915b50505050509250818054600181600116156101000203166002900480601f0160208091040260200160405190810160405280929190818152602001828054600181600116156101000203166002900480156124585780601f1061242d57610100808354040283529160200191612458565b820191906000526020600020905b81548152906001019060200180831161243b57829003601f168201915b505050505091509450945094509450945091939590929450565b60036020528060005260406000206000915054906101000a900460ff1681565b6005818154811061249f57fe5b906000526020600020906005020160000160009054906101000a900473ffffffffffffffffffffffffffffffffffffffff1673ffffffffffffffffffffffffffffffffffffffff163373ffffffffffffffffffffffffffffffffffffffff16148061257357506005818154811061251257fe5b906000526020600020906005020160010160009054906101000a900473ffffffffffffffffffffffffffffffffffffffff1673ffffffffffffffffffffffffffffffffffffffff163373ffffffffffffffffffffffffffffffffffffffff16145b6125c8576040517f08c379a0000000000000000000000000000000000000000000000000000000008152600401808060200182810382526031815260200180612b406031913960400191505060405180910390fd5b6005805490508110612642576040517f08c379a000000000000000000000000000000000000000000000000000000000815260040180806020018281038252601a8152602001807f436572746966696361746520646f6573206e6f7420657869737400000000000081525060200191505060405180910390fd5b6005818154811061264f57fe5b9060005260206000209060050201600080820160006101000a81549073ffffffffffffffffffffffffffffffffffffffff02191690556001820160006101000a81549073ffffffffffffffffffffffffffffffffffffffff02191690556002820160006126bc9190612a61565b6003820160006126cc9190612a61565b6004820160006126dc9190612aa9565b505050565b6000600254905090565b6000600454905090565b60008054906101000a900473ffffffffffffffffffffffffffffffffffffffff1673ffffffffffffffffffffffffffffffffffffffff163373ffffffffffffffffffffffffffffffffffffffff16146127b6576040517f08c379a000000000000000000000000000000000000000000000000000000000815260040180806020018281038252601c8152602001807f4e6f7420616c6c6f77656420746f206164642070726f7669646572730000000081525060200191505060405180910390fd5b600160008373ffffffffffffffffffffffffffffffffffffffff1673ffffffffffffffffffffffffffffffffffffffff16815260200190815260200160002060000160009054906101000a900460ff161515600015151461287f576040517f08c379a000000000000000000000000000000000000000000000000000000000815260040180806020018281038252601a8152602001807f50726f766964657220616c72656164792061637469766174656400000000000081525060200191505060405180910390fd5b80600160008473ffffffffffffffffffffffffffffffffffffffff1673ffffffffffffffffffffffffffffffffffffffff16815260200190815260200160002060010190805190602001906128d5929190612945565b5060018060008473ffffffffffffffffffffffffffffffffffffffff1673ffffffffffffffffffffffffffffffffffffffff16815260200190815260200160002060000160006101000a81548160ff02191690831515021790555060016002600082825401925050819055505050565b828054600181600116156101000203166002900490600052602060002090601f01602090048101928261297b57600085556129c2565b82601f1061299457805160ff19168380011785556129c2565b828001600101855582156129c2579182015b828111156129c15782518255916020019190600101906129a6565b5b5090506129cf9190612af1565b5090565b828054600181600116156101000203166002900490600052602060002090601f016020900481019282612a095760008555612a50565b82601f10612a2257805160ff1916838001178555612a50565b82800160010185558215612a50579182015b82811115612a4f578251825591602001919060010190612a34565b5b509050612a5d9190612af1565b5090565b50805460018160011615610100020316600290046000825580601f10612a875750612aa6565b601f016020900490600052602060002090810190612aa59190612af1565b5b50565b50805460018160011615610100020316600290046000825580601f10612acf5750612aee565b601f016020900490600052602060002090810190612aed9190612af1565b5b50565b5b80821115612b0a576000816000905550600101612af2565b509056fe4e6f7420616c6c6f77656420746f20757064617465207468697320706172746963756c61722043657274696669636174654e6f7420616c6c6f77656420746f2072656d6f7665207468697320706172746963756c6172204365727469666963617465a2646970667358221220e37f9a6feddd6b1ffa723ea20a973b9abbb6eae7bb3d0a5769ad0b9a151b35a064736f6c63430007060033",
  "immutableReferences": {},
  "source": "// SPDX-License-Identifier: GPL-3.0\r\n\r\npragma solidity >=0.7.0 <0.9.0;\r\n\r\n/**\r\n * @title Storage\r\n * @dev Store & retrieve value in a variable\r\n */\r\n \r\nimport \"./Certificates.sol\";\r\n\r\n /* \r\n Actors : Chair Person, Anyone\r\n Token : Proposals\r\n\r\n 1- Anyone can submit proposals (paying a fee)\r\n 2- Chair Person can approve proposals creating Providers in Certificates Contract\r\n\r\n\r\n Proposals lifecycle\r\n    Proposals Creation : Anyone (paying fee)\r\n    Proposals Update : \r\n    Proposals Remove :   \r\n    Proposals Validations : Only Chair Person  \r\n\r\n */\r\n\r\ncontract Proposals{\r\n    enum proposalState { NOT_SUBMITTED, PENDING, APPROVED, REJECTED }\r\n    uint constant _PriceWei = 10;\r\n\r\n    Certificates  _CertificatesContract;\r\n    \r\n    struct _proposal{\r\n        //bool _submitted;\r\n        proposalState _state;\r\n        string _providerInfo;\r\n    } \r\n    \r\n    address payable _chairperson;\r\n    mapping(address => _proposal) public _proposals;\r\n    address[] listOfOwners;\r\n    \r\n    constructor() payable{\r\n        _chairperson = payable(msg.sender);\r\n        listOfOwners.push(address(msg.sender));\r\n        _CertificatesContract = new Certificates(listOfOwners);\r\n    }\r\n    \r\n    // PROPOSALS CRUD Operations\r\n\r\n    function sendProposal(address provider, string memory providerInfo) public payable {\r\n       require(msg.value >= _PriceWei, \"Not enough funds\");\r\n       require(proposalState.NOT_SUBMITTED == _proposals[provider]._state, \"Proposal already submitted\");\r\n\r\n       _proposals[provider]._state = proposalState.PENDING;\r\n       _proposals[provider]._providerInfo = providerInfo;\r\n    }\r\n    \r\n    function approveProposal(address provider) public{\r\n        require(msg.sender == _chairperson, \"Not allowed to approve proposals\");\r\n        require(proposalState.PENDING == _proposals[provider]._state, \"This proposal cannot be modified\");\r\n\r\n        _proposals[provider]._state = proposalState.APPROVED;\r\n        _CertificatesContract.addProvider(provider, _proposals[provider]._providerInfo);   \r\n    }\r\n\r\n    function rejectProposal(address provider) public{\r\n        require(msg.sender == _chairperson, \"Not allowed to reject proposals\");\r\n        require(proposalState.PENDING == _proposals[provider]._state, \"This proposal cannot be modified\");\r\n\r\n        _proposals[provider]._state = proposalState.REJECTED;\r\n    }\r\n    \r\n    function retrieveProposal(address provider) public view returns (uint, string memory) {\r\n        require(proposalState.NOT_SUBMITTED != _proposals[provider]._state, \"This proposal does not exist\");\r\n\r\n        return (uint(_proposals[provider]._state), _proposals[provider]._providerInfo);\r\n    }\r\n    \r\n    // Contract basic information\r\n\r\n    function retrieveCertificatesContractAddress() public view returns (Certificates) {\r\n        return _CertificatesContract;\r\n    }\r\n    \r\n    function retrieveChairPerson() public view returns (address) {\r\n        return _chairperson;\r\n    }\r\n    \r\n}",
  "sourcePath": "C:/Users/d-aam/GitHub/Certificates/contracts/Proposals.sol",
  "compiler": {
    "name": "solc",
    "version": "0.7.6+commit.7338295f.Emscripten.clang"
  },
  "schemaVersion": "3.3.4",
  "updatedAt": "2021-04-27T11:53:00.691Z",
  "devdoc": {
    "kind": "dev",
    "methods": {},
    "version": 1
  },
  "userdoc": {
    "kind": "user",
    "methods": {},
    "version": 1
  }
}