{
  "contractName": "Provider",
  "abi": [
    {
      "inputs": [
        {
          "internalType": "address[]",
          "name": "owners",
          "type": "address[]"
        },
        {
          "internalType": "uint256",
          "name": "minOwners",
          "type": "uint256"
        },
        {
          "internalType": "string",
          "name": "ProviderInfo",
          "type": "string"
        }
      ],
      "stateMutability": "payable",
      "type": "constructor"
    },
    {
      "anonymous": false,
      "inputs": [
        {
          "indexed": true,
          "internalType": "string",
          "name": "",
          "type": "string"
        },
        {
          "indexed": true,
          "internalType": "address",
          "name": "",
          "type": "address"
        },
        {
          "indexed": true,
          "internalType": "string",
          "name": "",
          "type": "string"
        }
      ],
      "name": "_AddEntityRejectionIdEvent",
      "type": "event"
    },
    {
      "anonymous": false,
      "inputs": [
        {
          "indexed": true,
          "internalType": "string",
          "name": "",
          "type": "string"
        },
        {
          "indexed": true,
          "internalType": "address",
          "name": "",
          "type": "address"
        },
        {
          "indexed": true,
          "internalType": "string",
          "name": "",
          "type": "string"
        }
      ],
      "name": "_AddEntityValidationIdEvent",
      "type": "event"
    },
    {
      "anonymous": false,
      "inputs": [
        {
          "indexed": true,
          "internalType": "string",
          "name": "",
          "type": "string"
        },
        {
          "indexed": true,
          "internalType": "address",
          "name": "",
          "type": "address"
        },
        {
          "indexed": true,
          "internalType": "string",
          "name": "",
          "type": "string"
        }
      ],
      "name": "_RemoveEntityRejectionIdEvent",
      "type": "event"
    },
    {
      "anonymous": false,
      "inputs": [
        {
          "indexed": true,
          "internalType": "string",
          "name": "",
          "type": "string"
        },
        {
          "indexed": true,
          "internalType": "address",
          "name": "",
          "type": "address"
        },
        {
          "indexed": true,
          "internalType": "string",
          "name": "",
          "type": "string"
        }
      ],
      "name": "_RemoveEntityValidationIdEvent",
      "type": "event"
    },
    {
      "inputs": [
        {
          "internalType": "address",
          "name": "owner",
          "type": "address"
        },
        {
          "internalType": "string",
          "name": "ownerInfo",
          "type": "string"
        }
      ],
      "name": "addOwner",
      "outputs": [],
      "stateMutability": "nonpayable",
      "type": "function"
    },
    {
      "inputs": [
        {
          "internalType": "address",
          "name": "owner",
          "type": "address"
        }
      ],
      "name": "isOwner",
      "outputs": [
        {
          "internalType": "bool",
          "name": "",
          "type": "bool"
        }
      ],
      "stateMutability": "view",
      "type": "function"
    },
    {
      "inputs": [
        {
          "internalType": "address",
          "name": "owner",
          "type": "address"
        }
      ],
      "name": "rejectOwner",
      "outputs": [],
      "stateMutability": "nonpayable",
      "type": "function"
    },
    {
      "inputs": [
        {
          "internalType": "address",
          "name": "owner",
          "type": "address"
        }
      ],
      "name": "removeOwner",
      "outputs": [],
      "stateMutability": "nonpayable",
      "type": "function"
    },
    {
      "inputs": [],
      "name": "retrieveAllOwners",
      "outputs": [
        {
          "internalType": "address[]",
          "name": "",
          "type": "address[]"
        }
      ],
      "stateMutability": "view",
      "type": "function"
    },
    {
      "inputs": [],
      "name": "retrieveMinOwners",
      "outputs": [
        {
          "internalType": "uint256",
          "name": "",
          "type": "uint256"
        }
      ],
      "stateMutability": "view",
      "type": "function"
    },
    {
      "inputs": [
        {
          "internalType": "address",
          "name": "owner",
          "type": "address"
        }
      ],
      "name": "retrieveOwner",
      "outputs": [
        {
          "internalType": "string",
          "name": "",
          "type": "string"
        },
        {
          "internalType": "bool",
          "name": "",
          "type": "bool"
        }
      ],
      "stateMutability": "view",
      "type": "function"
    },
    {
      "inputs": [
        {
          "internalType": "bool",
          "name": "addedORremove",
          "type": "bool"
        }
      ],
      "name": "retrievePendingOwners",
      "outputs": [
        {
          "internalType": "address[]",
          "name": "",
          "type": "address[]"
        },
        {
          "internalType": "string[]",
          "name": "",
          "type": "string[]"
        }
      ],
      "stateMutability": "view",
      "type": "function"
    },
    {
      "inputs": [
        {
          "internalType": "address",
          "name": "owner",
          "type": "address"
        }
      ],
      "name": "validateOwner",
      "outputs": [],
      "stateMutability": "nonpayable",
      "type": "function"
    },
    {
      "stateMutability": "payable",
      "type": "receive"
    },
    {
      "inputs": [
        {
          "internalType": "address",
          "name": "pool",
          "type": "address"
        },
        {
          "internalType": "string",
          "name": "poolInfo",
          "type": "string"
        },
        {
          "internalType": "uint256",
          "name": "AddCertificatePrice",
          "type": "uint256"
        },
        {
          "internalType": "uint256",
          "name": "SubscriptionPrice",
          "type": "uint256"
        }
      ],
      "name": "addPool",
      "outputs": [],
      "stateMutability": "nonpayable",
      "type": "function"
    },
    {
      "inputs": [
        {
          "internalType": "address",
          "name": "pool",
          "type": "address"
        }
      ],
      "name": "removePool",
      "outputs": [],
      "stateMutability": "nonpayable",
      "type": "function"
    },
    {
      "inputs": [
        {
          "internalType": "address",
          "name": "pool",
          "type": "address"
        }
      ],
      "name": "validatePool",
      "outputs": [],
      "stateMutability": "nonpayable",
      "type": "function"
    },
    {
      "inputs": [
        {
          "internalType": "address",
          "name": "pool",
          "type": "address"
        }
      ],
      "name": "rejectPool",
      "outputs": [],
      "stateMutability": "nonpayable",
      "type": "function"
    },
    {
      "inputs": [
        {
          "internalType": "address",
          "name": "pool",
          "type": "address"
        }
      ],
      "name": "retrievePool",
      "outputs": [
        {
          "internalType": "string",
          "name": "",
          "type": "string"
        },
        {
          "internalType": "bool",
          "name": "",
          "type": "bool"
        },
        {
          "internalType": "uint256",
          "name": "",
          "type": "uint256"
        },
        {
          "internalType": "uint256",
          "name": "",
          "type": "uint256"
        }
      ],
      "stateMutability": "view",
      "type": "function"
    },
    {
      "inputs": [],
      "name": "retrieveAllPools",
      "outputs": [
        {
          "internalType": "address[]",
          "name": "",
          "type": "address[]"
        }
      ],
      "stateMutability": "view",
      "type": "function"
    },
    {
      "inputs": [
        {
          "internalType": "address",
          "name": "pool",
          "type": "address"
        }
      ],
      "name": "isPool",
      "outputs": [
        {
          "internalType": "bool",
          "name": "",
          "type": "bool"
        }
      ],
      "stateMutability": "view",
      "type": "function"
    },
    {
      "inputs": [
        {
          "internalType": "address",
          "name": "pool",
          "type": "address"
        },
        {
          "internalType": "bytes32",
          "name": "CertificateHash",
          "type": "bytes32"
        },
        {
          "internalType": "address",
          "name": "holder",
          "type": "address"
        }
      ],
      "name": "addCertificate",
      "outputs": [],
      "stateMutability": "nonpayable",
      "type": "function"
    },
    {
      "inputs": [
        {
          "internalType": "address",
          "name": "pool",
          "type": "address"
        },
        {
          "internalType": "bytes32",
          "name": "CertificateHash",
          "type": "bytes32"
        },
        {
          "internalType": "address",
          "name": "holder",
          "type": "address"
        }
      ],
      "name": "validateCertificate",
      "outputs": [],
      "stateMutability": "nonpayable",
      "type": "function"
    },
    {
      "inputs": [
        {
          "internalType": "address",
          "name": "pool",
          "type": "address"
        },
        {
          "internalType": "bytes32",
          "name": "CertificateHash",
          "type": "bytes32"
        },
        {
          "internalType": "address",
          "name": "holder",
          "type": "address"
        }
      ],
      "name": "rejectCertificate",
      "outputs": [],
      "stateMutability": "nonpayable",
      "type": "function"
    },
    {
      "inputs": [
        {
          "internalType": "address",
          "name": "pool",
          "type": "address"
        },
        {
          "internalType": "bytes32",
          "name": "CertificateHash",
          "type": "bytes32"
        },
        {
          "internalType": "address",
          "name": "holder",
          "type": "address"
        }
      ],
      "name": "isCertificate",
      "outputs": [
        {
          "internalType": "bool",
          "name": "",
          "type": "bool"
        }
      ],
      "stateMutability": "view",
      "type": "function"
    },
    {
      "inputs": [
        {
          "internalType": "bytes32",
          "name": "item",
          "type": "bytes32"
        },
        {
          "internalType": "uint256[]",
          "name": "ids",
          "type": "uint256[]"
        },
        {
          "internalType": "bool",
          "name": "addOrRemove",
          "type": "bool"
        }
      ],
      "name": "onItemValidated",
      "outputs": [],
      "stateMutability": "nonpayable",
      "type": "function"
    },
    {
      "inputs": [
        {
          "internalType": "bytes32",
          "name": "item",
          "type": "bytes32"
        },
        {
          "internalType": "uint256[]",
          "name": "ids",
          "type": "uint256[]"
        },
        {
          "internalType": "bool",
          "name": "addOrRemove",
          "type": "bool"
        }
      ],
      "name": "onItemRejected",
      "outputs": [],
      "stateMutability": "nonpayable",
      "type": "function"
    }
  ],
  "bytecode": "0x600560c09081526427bbb732b960d91b60e0526080908152610140604052600461010081815263141bdbdb60e21b6101205260a052620000419160026200040a565b506040516200432b3803806200432b833981016040819052620000649162000608565b828260026004805480602002602001604051908101604052809291908181526020016000905b8282101562000140578382906000526020600020018054620000ac9062000756565b80601f0160208091040260200160405190810160405280929190818152602001828054620000da9062000756565b80156200012b5780601f10620000ff576101008083540402835291602001916200012b565b820191906000526020600020905b8154815290600101906020018083116200010d57829003601f168201915b5050505050815260200190600101906200008a565b50505050600084518411156200018b5760405162461bcd60e51b8152600401620001829060208082526004908201526322a1989b60e11b604082015260600190565b60405180910390fd5b60008411620001c65760405162461bcd60e51b815260040162000182906020808252600490820152634543313760e01b604082015260600190565b81518314620002015760405162461bcd60e51b8152600401620001829060208082526004908201526308a8662760e31b604082015260600190565b60008181555b8381101562000280576002805460010181556000528251600390849083908110620002365762000236620007bd565b602090810291909101810151825460018101845560009384529282902081516200026a94919091019291909101906200046e565b5080620002778162000793565b91505062000207565b50600184905560005b8551811015620003e457600073__AddressLibrary________________________634d84c524888481518110620002c457620002c4620007bd565b60200260200101516040518263ffffffff1660e01b8152600401620002f891906001600160a01b0391909116815260200190565b60206040518083038186803b1580156200031157600080fd5b505af415801562000326573d6000803e3d6000fd5b505050506040513d601f19601f820116820180604052508101906200034c919062000709565b90506001600260005481548110620003685762000368620007bd565b60009182526020808320858452600492909202909101905260408120805460ff19169215159290921790915554600280549091908110620003ad57620003ad620007bd565b6000918252602080832060016004909302018201805492830181558352909120015580620003db8162000793565b91505062000289565b505084516200040094506009935060208601925090506200046e565b50505050620007e9565b8280548282559060005260206000209081019282156200045c579160200282015b828111156200045c57825180516200044b9184916020909101906200046e565b50916020019190600101906200042b565b506200046a929150620004f9565b5090565b8280546200047c9062000756565b90600052602060002090601f016020900481019282620004a05760008555620004eb565b82601f10620004bb57805160ff1916838001178555620004eb565b82800160010185558215620004eb579182015b82811115620004eb578251825591602001919060010190620004ce565b506200046a9291506200051a565b808211156200046a57600062000510828262000531565b50600101620004f9565b5b808211156200046a57600081556001016200051b565b5080546200053f9062000756565b6000825580601f1062000550575050565b601f0160209004906000526020600020908101906200057091906200051a565b50565b600082601f8301126200058557600080fd5b81516001600160401b03811115620005a157620005a1620007d3565b6020620005b7601f8301601f1916820162000723565b8281528582848701011115620005cc57600080fd5b60005b83811015620005ec578581018301518282018401528201620005cf565b83811115620005fe5760008385840101525b5095945050505050565b6000806000606084860312156200061e57600080fd5b83516001600160401b03808211156200063657600080fd5b818601915086601f8301126200064b57600080fd5b8151602082821115620006625762000662620007d3565b8160051b6200067382820162000723565b8381528281019086840183880185018d10156200068f57600080fd5b600097505b85881015620006cd57805193506001600160a01b0384168414620006b757600080fd5b8383526001979097019691840191840162000694565b50928a015160408b0151939950975091945050505080821115620006f057600080fd5b50620006ff8682870162000573565b9150509250925092565b6000602082840312156200071c57600080fd5b5051919050565b604051601f8201601f191681016001600160401b03811182821017156200074e576200074e620007d3565b604052919050565b600181811c908216806200076b57607f821691505b602082108114156200078d57634e487b7160e01b600052602260045260246000fd5b50919050565b6000600019821415620007b657634e487b7160e01b600052601160045260246000fd5b5060010190565b634e487b7160e01b600052603260045260246000fd5b634e487b7160e01b600052604160045260246000fd5b613b3280620007f96000396000f3fe6080604052600436106101095760003560e01c8063017cb3db1461011557806314a2ed2f14610137578063173825d9146101575780632d99aaf2146101775780632f54bf6e146101a25780633542758f146101d25780633b7d0946146101f25780633fd07181146102125780635b16ebb71461023257806365b973e5146102525780636b2996041461027057806376f8f90f1461029e57806377bc5a1f146102be5780637c8c2add146102ec5780638fc2d8ea1461030c578063a706752c1461033c578063a93d5ed61461035c578063b683e37b14610371578063bd9f370514610391578063ce33d58a146103b1578063d9209289146103d1578063fb1f6917146103f157600080fd5b3661011057005b600080fd5b34801561012157600080fd5b506101356101303660046131bf565b610411565b005b34801561014357600080fd5b506101356101523660046131bf565b6106ad565b34801561016357600080fd5b5061013561017236600461317e565b610881565b34801561018357600080fd5b5061018c6108cd565b6040516101999190613718565b60405180910390f35b3480156101ae57600080fd5b506101c26101bd36600461317e565b6108de565b6040519015158152602001610199565b3480156101de57600080fd5b506101356101ed366004613201565b6108f2565b3480156101fe57600080fd5b5061013561020d36600461317e565b610900565b34801561021e57600080fd5b5061013561022d3660046134bc565b61090e565b34801561023e57600080fd5b506101c261024d36600461317e565b6109e0565b34801561025e57600080fd5b50600154604051908152602001610199565b34801561027c57600080fd5b5061029061028b366004613469565b6109ed565b60405161019992919061372b565b3480156102aa57600080fd5b506101356102b936600461317e565b610a05565b3480156102ca57600080fd5b506102de6102d936600461317e565b610a60565b6040516101999291906137ef565b3480156102f857600080fd5b506101356103073660046134bc565b610a70565b34801561031857600080fd5b5061032c61032736600461317e565b610d22565b6040516101999493929190613813565b34801561034857600080fd5b506101c26103573660046131bf565b610d6c565b34801561036857600080fd5b5061018c610e24565b34801561037d57600080fd5b5061013561038c366004613255565b610e31565b34801561039d57600080fd5b506101356103ac3660046131bf565b610e9f565b3480156103bd57600080fd5b506101356103cc36600461317e565b6110f1565b3480156103dd57600080fd5b506101356103ec36600461317e565b6110fd565b3480156103fd57600080fd5b5061013561040c36600461317e565b611108565b8261041b816109e0565b151560011461042957600080fd5b61043533600054611113565b151560011461045f5760405162461bcd60e51b8152600401610456906138b9565b60405180910390fd5b600183858461046f828483611304565b15156001148061048b5750610485828483611362565b15156001145b6104a75760405162461bcd60e51b81526004016104569061389b565b6001600160a01b038089166000908152600560209081526040808320938a1683529290528190209051633db691ef60e11b815288918a91899173__ItemsLibrary__________________________91637b6d23de9161050c913391889160040161363e565b60206040518083038186803b15801561052457600080fd5b505af4158015610538573d6000803e3d6000fd5b505050506040513d601f19601f8201168201806040525081019061055c9190613486565b156105795760405162461bcd60e51b81526004016104569061387e565b6001600160a01b038b1660009081526005602052604081209061059c8d8c6113c2565b905060006040518060c001604052808e815260200160405180602001604052806000815250815260200160015481526020016040518060400160405280600b81526020016a436572746966696361746560a81b815250815260200183815260200160001515815250905060008360000160008e6001600160a01b03166001600160a01b03168152602001908152602001600020905073__ItemsLibrary__________________________635cb09bcf8383306040518463ffffffff1660e01b815260040161066c93929190613910565b60006040518083038186803b15801561068457600080fd5b505af4158015610698573d6000803e3d6000fd5b50505050505050505050505050505050505050565b826106b7816109e0565b15156001146106c557600080fd5b6106d133600054611113565b15156001146106f25760405162461bcd60e51b8152600401610456906138b9565b6000838584610702828483610d6c565b1561071f5760405162461bcd60e51b8152600401610456906138f3565b600087898861072f828483611304565b1561074c5760405162461bcd60e51b815260040161045690613860565b6001600160a01b038c1660009081526005602052604081209061076f8e8d6113c2565b905060006040518060c001604052808f815260200160405180602001604052806000815250815260200160015481526020016040518060400160405280600b81526020016a436572746966696361746560a81b815250815260200183815260200160001515815250905060008360000160008f6001600160a01b03166001600160a01b03168152602001908152602001600020905073__ItemsLibrary__________________________630b985aaa8383306040518463ffffffff1660e01b815260040161083f93929190613910565b60006040518083038186803b15801561085757600080fd5b505af415801561086b573d6000803e3d6000fd5b5050505050505050505050505050505050505050565b6001546001610891600054611559565b5161089c9190613a21565b808211156108bc5760405162461bcd60e51b815260040161045690613842565b6108c883600054611742565b505050565b60606108d96001611559565b905090565b60006108ec82600054611113565b92915050565b6108c8838383600054611ae9565b61090b816001611742565b50565b61091a84848484611e60565b60018383600081811061092f5761092f613aad565b9050602002013514156109da5760405163162488eb60e31b81526004810185905260009073__AddressLibrary________________________9063b12447589060240160206040518083038186803b15801561098a57600080fd5b505af415801561099e573d6000803e3d6000fd5b505050506040513d601f19601f820116820180604052508101906109c291906131a2565b9050600182151514156109d8576109d881611f20565b505b50505050565b60006108ec826001611113565b6060806109fc83600054611f56565b91509150915091565b610a1181600054612163565b151560011415610a54576001610a28600054611559565b51610a339190613a21565b6001541115610a545760405162461bcd60e51b815260040161045690613842565b61090b816000546122cf565b606060006109fc83600054612760565b610a7c84848484611e60565b600183836000818110610a9157610a91613aad565b905060200201351415610bb35760405163162488eb60e31b81526004810185905260009073__AddressLibrary________________________9063b12447589060240160206040518083038186803b158015610aec57600080fd5b505af4158015610b00573d6000803e3d6000fd5b505050506040513d601f19601f82011682018060405250810190610b2491906131a2565b905081610b3957610b3481611f20565b610bad565b6001600160a01b0381166000818152600760205260409081902054905162fc000560e81b815283929163fc00050091610b7990309060099060040161365f565b6000604051808303818588803b158015610b9257600080fd5b505af1158015610ba6573d6000803e3d6000fd5b5050505050505b506109da565b600283836000818110610bc857610bc8613aad565b9050602002013514156109da576109da73__AddressLibrary________________________63b1e2771485856001818110610c0557610c05613aad565b905060200201356040518263ffffffff1660e01b8152600401610c2a91815260200190565b60206040518083038186803b158015610c4257600080fd5b505af4158015610c56573d6000803e3d6000fd5b505050506040513d601f19601f82011682018060405250810190610c7a91906131a2565b8573__AddressLibrary________________________63b1e2771487876002818110610ca857610ca8613aad565b905060200201356040518263ffffffff1660e01b8152600401610ccd91815260200190565b60206040518083038186803b158015610ce557600080fd5b505af4158015610cf9573d6000803e3d6000fd5b505050506040513d601f19601f82011682018060405250810190610d1d91906131a2565b61295d565b6060600080600060606000610d3687612a56565b6001600160a01b039890981660009081526006602090815260408083205460079092529091205491999097509095509350505050565b6001600160a01b038084166000908152600560209081526040808320938516835292905281812091516336f7efbb60e21b8152909173__ItemsLibrary__________________________9163dbdfbeec91610dcc918791906004016137e1565b60206040518083038186803b158015610de457600080fd5b505af4158015610df8573d6000803e3d6000fd5b505050506040513d601f19601f82011682018060405250810190610e1c9190613486565b949350505050565b60606108d9600054611559565b610e3e8585856001611ae9565b6001600160a01b03851660009081526008602052604090205460ff166109d8576001600160a01b03851660009081526006602090815260408083208590556007825280832084905560089091529020805460ff191660011790555050505050565b82610ea9816109e0565b1515600114610eb757600080fd5b610ec333600054611113565b1515600114610ee45760405162461bcd60e51b8152600401610456906138b9565b6001838584610ef4828483611304565b151560011480610f105750610f0a828483611362565b15156001145b610f2c5760405162461bcd60e51b81526004016104569061389b565b6001600160a01b038089166000908152600560209081526040808320938a1683529290528190209051633db691ef60e11b815288918a91899173__ItemsLibrary__________________________91637b6d23de91610f91913391889160040161363e565b60206040518083038186803b158015610fa957600080fd5b505af4158015610fbd573d6000803e3d6000fd5b505050506040513d601f19601f82011682018060405250810190610fe19190613486565b15610ffe5760405162461bcd60e51b81526004016104569061387e565b6001600160a01b038b166000908152600560205260408120906110218d8c6113c2565b905060006040518060c001604052808e815260200160405180602001604052806000815250815260200160015481526020016040518060400160405280600b81526020016a436572746966696361746560a81b815250815260200183815260200160001515815250905060008360000160008e6001600160a01b03166001600160a01b03168152602001908152602001600020905073__ItemsLibrary__________________________637493a70b8383306040518463ffffffff1660e01b815260040161066c93929190613910565b61090b81600054612a65565b61090b8160016122cf565b61090b816001612a65565b60025460405163123bd07560e11b8152600091839173__Library_______________________________90632477a0ea9061115490859085906004016137e1565b60206040518083038186803b15801561116c57600080fd5b505af4158015611180573d6000803e3d6000fd5b505050506040513d601f19601f820116820180604052508101906111a49190613486565b15156001146111c55760405162461bcd60e51b8152600401610456906138d6565b604051631361314960e21b815260009073__AddressLibrary________________________90634d84c524906111ff90899060040161362a565b60206040518083038186803b15801561121757600080fd5b505af415801561122b573d6000803e3d6000fd5b505050506040513d601f19601f8201168201806040525081019061124f91906134a3565b905073__ItemsLibrary__________________________63dbdfbeec826002888154811061127f5761127f613aad565b90600052602060002090600402016040518363ffffffff1660e01b81526004016112aa9291906137e1565b60206040518083038186803b1580156112c257600080fd5b505af41580156112d6573d6000803e3d6000fd5b505050506040513d601f19601f820116820180604052508101906112fa9190613486565b9695505050505050565b6001600160a01b0380841660009081526005602090815260408083209385168352929052818120915162136bb360e11b8152909173__ItemsLibrary__________________________916226d76691610dcc918791906004016137e1565b6001600160a01b0380841660009081526005602090815260408083209385168352929052818120915163142a769760e11b8152909173__ItemsLibrary__________________________91632854ed2e91610dcc918791906004016137e1565b60408051600380825260808201909252606091600091906020820184803683370190505090506002816000815181106113fd576113fd613aad565b602090810291909101015260405163cf0668ed60e01b815273__AddressLibrary________________________9063cf0668ed9061143f90879060040161362a565b60206040518083038186803b15801561145757600080fd5b505af415801561146b573d6000803e3d6000fd5b505050506040513d601f19601f8201168201806040525081019061148f91906134a3565b816001815181106114a2576114a2613aad565b602090810291909101015260405163cf0668ed60e01b815273__AddressLibrary________________________9063cf0668ed906114e490869060040161362a565b60206040518083038186803b1580156114fc57600080fd5b505af4158015611510573d6000803e3d6000fd5b505050506040513d601f19601f8201168201806040525081019061153491906134a3565b8160028151811061154757611547613aad565b60209081029190910101529392505050565b60025460405163123bd07560e11b8152606091839173__Library_______________________________90632477a0ea9061159a90859085906004016137e1565b60206040518083038186803b1580156115b257600080fd5b505af41580156115c6573d6000803e3d6000fd5b505050506040513d601f19601f820116820180604052508101906115ea9190613486565b151560011461160b5760405162461bcd60e51b8152600401610456906138d6565b73__AddressLibrary________________________635f2e8a5d73__ItemsLibrary__________________________6327724f4b6002888154811061165257611652613aad565b90600052602060002090600402016040518263ffffffff1660e01b815260040161167e91815260200190565b60006040518083038186803b15801561169657600080fd5b505af41580156116aa573d6000803e3d6000fd5b505050506040513d6000823e601f3d908101601f191682016040526116d2919081019061335b565b6040518263ffffffff1660e01b81526004016116ee919061379d565b60006040518083038186803b15801561170657600080fd5b505af415801561171a573d6000803e3d6000fd5b505050506040513d6000823e601f3d908101601f19168201604052610e1c91908101906132bb565b60025460405163123bd07560e11b815282919073__Library_______________________________90632477a0ea9061178190859085906004016137e1565b60206040518083038186803b15801561179957600080fd5b505af41580156117ad573d6000803e3d6000fd5b505050506040513d601f19601f820116820180604052508101906117d19190613486565b15156001146117f25760405162461bcd60e51b8152600401610456906138d6565b6117fe33600054611113565b151560011461181f5760405162461bcd60e51b8152600401610456906138b9565b6001848461182d8282611113565b15156001146118645760405162461bcd60e51b815260206004820152600360248201526245433760e81b6044820152606401610456565b600087876118728282612163565b1561188f5760405162461bcd60e51b815260040161045690613860565b604051631361314960e21b815260009073__AddressLibrary________________________90634d84c524906118c9908e9060040161362a565b60206040518083038186803b1580156118e157600080fd5b505af41580156118f5573d6000803e3d6000fd5b505050506040513d601f19601f8201168201806040525081019061191991906134a3565b60408051600180825281830190925291925060009190602080830190803683370190505090508a8160008151811061195357611953613aad565b60200260200101818152505060006040518060c00160405280848152602001604051806020016040528060008152508152602001600154815260200160038e815481106119a2576119a2613aad565b9060005260206000200180546119b790613a72565b80601f01602080910402602001604051908101604052809291908181526020018280546119e390613a72565b8015611a305780601f10611a0557610100808354040283529160200191611a30565b820191906000526020600020905b815481529060010190602001808311611a1357829003601f168201915b50505050508152602001838152602001600115158152509050600060028d81548110611a5e57611a5e613aad565b9060005260206000209060040201905073__ItemsLibrary__________________________63e23fcdef8383306040518463ffffffff1660e01b8152600401611aa993929190613910565b60006040518083038186803b158015611ac157600080fd5b505af4158015611ad5573d6000803e3d6000fd5b505050505050505050505050505050505050565b60025460405163123bd07560e11b815282919073__Library_______________________________90632477a0ea90611b2890859085906004016137e1565b60206040518083038186803b158015611b4057600080fd5b505af4158015611b54573d6000803e3d6000fd5b505050506040513d601f19601f82011682018060405250810190611b789190613486565b1515600114611b995760405162461bcd60e51b8152600401610456906138d6565b611ba533600054611113565b1515600114611bc65760405162461bcd60e51b8152600401610456906138b9565b60008684611bd48282611113565b15611bf15760405162461bcd60e51b8152600401610456906138f3565b60008987611bff8282612ef6565b15611c1c5760405162461bcd60e51b815260040161045690613860565b600073__AddressLibrary________________________634d84c5248e6040518263ffffffff1660e01b8152600401611c55919061362a565b60206040518083038186803b158015611c6d57600080fd5b505af4158015611c81573d6000803e3d6000fd5b505050506040513d601f19601f82011682018060405250810190611ca591906134a3565b60408051600180825281830190925291925060009190602080830190803683370190505090508a81600081518110611cdf57611cdf613aad565b60200260200101818152505060006040518060c001604052808481526020018f8f8080601f0160208091040260200160405190810160405280939291908181526020018383808284376000920191909152505050908252506001546020820152600380546040909201918f908110611d5957611d59613aad565b906000526020600020018054611d6e90613a72565b80601f0160208091040260200160405190810160405280929190818152602001828054611d9a90613a72565b8015611de75780601f10611dbc57610100808354040283529160200191611de7565b820191906000526020600020905b815481529060010190602001808311611dca57829003601f168201915b50505050508152602001838152602001600115158152509050600060028d81548110611e1557611e15613aad565b9060005260206000209060040201905073__ItemsLibrary__________________________630b985aaa8383306040518463ffffffff1660e01b815260040161083f93929190613910565b604051630d1d719d60e41b8152309073__Library_______________________________9063d1d719d090611e9990849060040161362a565b60206040518083038186803b158015611eb157600080fd5b505af4158015611ec5573d6000803e3d6000fd5b505050506040513d601f19601f82011682018060405250810190611ee99190613486565b15156001146109d85760405162461bcd60e51b815260206004820152600360248201526208a86760eb1b6044820152606401610456565b6001600160a01b03166000908152600860209081526040808320805460ff19169055600682528083208390556007909152812055565b60025460405163123bd07560e11b8152606091829184919073__Library_______________________________90632477a0ea90611f9a90859085906004016137e1565b60206040518083038186803b158015611fb257600080fd5b505af4158015611fc6573d6000803e3d6000fd5b505050506040513d601f19601f82011682018060405250810190611fea9190613486565b151560011461200b5760405162461bcd60e51b8152600401610456906138d6565b60608073__ItemsLibrary__________________________63e035e0068960028a8154811061203c5761203c613aad565b90600052602060002090600402016040518363ffffffff1660e01b81526004016120729291909115158252602082015260400190565b60006040518083038186803b15801561208a57600080fd5b505af415801561209e573d6000803e3d6000fd5b505050506040513d6000823e601f3d908101601f191682016040526120c6919081019061338f565b604051635f2e8a5d60e01b8152919350915073__AddressLibrary________________________90635f2e8a5d9061210290859060040161379d565b60006040518083038186803b15801561211a57600080fd5b505af415801561212e573d6000803e3d6000fd5b505050506040513d6000823e601f3d908101601f1916820160405261215691908101906132bb565b9890975095505050505050565b60025460405163123bd07560e11b8152600091839173__Library_______________________________90632477a0ea906121a490859085906004016137e1565b60206040518083038186803b1580156121bc57600080fd5b505af41580156121d0573d6000803e3d6000fd5b505050506040513d601f19601f820116820180604052508101906121f49190613486565b15156001146122155760405162461bcd60e51b8152600401610456906138d6565b604051631361314960e21b815260009073__AddressLibrary________________________90634d84c5249061224f90899060040161362a565b60206040518083038186803b15801561226757600080fd5b505af415801561227b573d6000803e3d6000fd5b505050506040513d601f19601f8201168201806040525081019061229f91906134a3565b905073__ItemsLibrary__________________________632854ed2e826002888154811061127f5761127f613aad565b60025460405163123bd07560e11b815282919073__Library_______________________________90632477a0ea9061230e90859085906004016137e1565b60206040518083038186803b15801561232657600080fd5b505af415801561233a573d6000803e3d6000fd5b505050506040513d601f19601f8201168201806040525081019061235e9190613486565b151560011461237f5760405162461bcd60e51b8152600401610456906138d6565b61238b33600054611113565b15156001146123ac5760405162461bcd60e51b8152600401610456906138b9565b600184846123ba8282612ef6565b1515600114806123d557506123cf8282612163565b15156001145b6123f15760405162461bcd60e51b81526004016104569061389b565b8686600073__AddressLibrary________________________634d84c524846040518263ffffffff1660e01b815260040161242c919061362a565b60206040518083038186803b15801561244457600080fd5b505af4158015612458573d6000803e3d6000fd5b505050506040513d601f19601f8201168201806040525081019061247c91906134a3565b905073__ItemsLibrary__________________________637b6d23de3383600286815481106124ad576124ad613aad565b90600052602060002090600402016040518463ffffffff1660e01b81526004016124d99392919061363e565b60206040518083038186803b1580156124f157600080fd5b505af4158015612505573d6000803e3d6000fd5b505050506040513d601f19601f820116820180604052508101906125299190613486565b156125465760405162461bcd60e51b81526004016104569061387e565b604051631361314960e21b815260009073__AddressLibrary________________________90634d84c52490612580908e9060040161362a565b60206040518083038186803b15801561259857600080fd5b505af41580156125ac573d6000803e3d6000fd5b505050506040513d601f19601f820116820180604052508101906125d091906134a3565b60408051600180825281830190925291925060009190602080830190803683370190505090508a8160008151811061260a5761260a613aad565b60200260200101818152505060006040518060c00160405280848152602001604051806020016040528060008152508152602001600154815260200160038e8154811061265957612659613aad565b90600052602060002001805461266e90613a72565b80601f016020809104026020016040519081016040528092919081815260200182805461269a90613a72565b80156126e75780601f106126bc576101008083540402835291602001916126e7565b820191906000526020600020905b8154815290600101906020018083116126ca57829003601f168201915b50505050508152602001838152602001600115158152509050600060028d8154811061271557612715613aad565b9060005260206000209060040201905073__ItemsLibrary__________________________637493a70b8383306040518463ffffffff1660e01b8152600401611aa993929190613910565b60025460405163123bd07560e11b815260609160009184919073__Library_______________________________90632477a0ea906127a590859085906004016137e1565b60206040518083038186803b1580156127bd57600080fd5b505af41580156127d1573d6000803e3d6000fd5b505050506040513d601f19601f820116820180604052508101906127f59190613486565b15156001146128165760405162461bcd60e51b8152600401610456906138d6565b604051631361314960e21b815260009073__AddressLibrary________________________90634d84c52490612850908a9060040161362a565b60206040518083038186803b15801561286857600080fd5b505af415801561287c573d6000803e3d6000fd5b505050506040513d601f19601f820116820180604052508101906128a091906134a3565b905073__ItemsLibrary__________________________631aeccc6a82600289815481106128d0576128d0613aad565b90600052602060002090600402016040518363ffffffff1660e01b81526004016128fb9291906137e1565b60006040518083038186803b15801561291357600080fd5b505af4158015612927573d6000803e3d6000fd5b505050506040513d6000823e601f3d908101601f1916820160405261294f919081019061354d565b945094505050509250929050565b60008061296985612a56565b5090508060405160200161297d919061360e565b604051602081830303815290604052805190602001206040516020016129b090665072697661746560c81b815260070190565b6040516020818303038152906040528051906020012014156129d4578491506129d8565b8491505b6001600160a01b038581166000908152600660205260409081902054905163035700ff60e31b815260048101879052858316602482015291841691631ab807f891906044016000604051808303818588803b158015612a3657600080fd5b505af1158015612a4a573d6000803e3d6000fd5b50505050505050505050565b606060006109fc836001612760565b60025460405163123bd07560e11b815282919073__Library_______________________________90632477a0ea90612aa490859085906004016137e1565b60206040518083038186803b158015612abc57600080fd5b505af4158015612ad0573d6000803e3d6000fd5b505050506040513d601f19601f82011682018060405250810190612af49190613486565b1515600114612b155760405162461bcd60e51b8152600401610456906138d6565b612b2133600054611113565b1515600114612b425760405162461bcd60e51b8152600401610456906138b9565b60018484612b508282612ef6565b151560011480612b6b5750612b658282612163565b15156001145b612b875760405162461bcd60e51b81526004016104569061389b565b8686600073__AddressLibrary________________________634d84c524846040518263ffffffff1660e01b8152600401612bc2919061362a565b60206040518083038186803b158015612bda57600080fd5b505af4158015612bee573d6000803e3d6000fd5b505050506040513d601f19601f82011682018060405250810190612c1291906134a3565b905073__ItemsLibrary__________________________637b6d23de338360028681548110612c4357612c43613aad565b90600052602060002090600402016040518463ffffffff1660e01b8152600401612c6f9392919061363e565b60206040518083038186803b158015612c8757600080fd5b505af4158015612c9b573d6000803e3d6000fd5b505050506040513d601f19601f82011682018060405250810190612cbf9190613486565b15612cdc5760405162461bcd60e51b81526004016104569061387e565b604051631361314960e21b815260009073__AddressLibrary________________________90634d84c52490612d16908e9060040161362a565b60206040518083038186803b158015612d2e57600080fd5b505af4158015612d42573d6000803e3d6000fd5b505050506040513d601f19601f82011682018060405250810190612d6691906134a3565b60408051600180825281830190925291925060009190602080830190803683370190505090508a81600081518110612da057612da0613aad565b60200260200101818152505060006040518060c00160405280848152602001604051806020016040528060008152508152602001600154815260200160038e81548110612def57612def613aad565b906000526020600020018054612e0490613a72565b80601f0160208091040260200160405190810160405280929190818152602001828054612e3090613a72565b8015612e7d5780601f10612e5257610100808354040283529160200191612e7d565b820191906000526020600020905b815481529060010190602001808311612e6057829003601f168201915b50505050508152602001838152602001600115158152509050600060028d81548110612eab57612eab613aad565b9060005260206000209060040201905073__ItemsLibrary__________________________635cb09bcf8383306040518463ffffffff1660e01b8152600401611aa993929190613910565b60025460405163123bd07560e11b8152600091839173__Library_______________________________90632477a0ea90612f3790859085906004016137e1565b60206040518083038186803b158015612f4f57600080fd5b505af4158015612f63573d6000803e3d6000fd5b505050506040513d601f19601f82011682018060405250810190612f879190613486565b1515600114612fa85760405162461bcd60e51b8152600401610456906138d6565b604051631361314960e21b815260009073__AddressLibrary________________________90634d84c52490612fe290899060040161362a565b60206040518083038186803b158015612ffa57600080fd5b505af415801561300e573d6000803e3d6000fd5b505050506040513d601f19601f8201168201806040525081019061303291906134a3565b905073__ItemsLibrary__________________________6226d766826002888154811061127f5761127f613aad565b600082601f83011261307257600080fd5b81516020613087613082836139fe565b6139ce565b80838252828201915082860187848660051b89010111156130a757600080fd5b60005b858110156130c6578151845292840192908401906001016130aa565b5090979650505050505050565b60008083601f8401126130e557600080fd5b5081356001600160401b038111156130fc57600080fd5b60208301915083602082850101111561311457600080fd5b9250929050565b600082601f83011261312c57600080fd5b81516001600160401b0381111561314557613145613ac3565b613158601f8201601f19166020016139ce565b81815284602083860101111561316d57600080fd5b610e1c826020830160208701613a46565b60006020828403121561319057600080fd5b813561319b81613ad9565b9392505050565b6000602082840312156131b457600080fd5b815161319b81613ad9565b6000806000606084860312156131d457600080fd5b83356131df81613ad9565b92506020840135915060408401356131f681613ad9565b809150509250925092565b60008060006040848603121561321657600080fd5b833561322181613ad9565b925060208401356001600160401b0381111561323c57600080fd5b613248868287016130d3565b9497909650939450505050565b60008060008060006080868803121561326d57600080fd5b853561327881613ad9565b945060208601356001600160401b0381111561329357600080fd5b61329f888289016130d3565b9699909850959660408101359660609091013595509350505050565b600060208083850312156132ce57600080fd5b82516001600160401b038111156132e457600080fd5b8301601f810185136132f557600080fd5b8051613303613082826139fe565b80828252848201915084840188868560051b870101111561332357600080fd5b600094505b8385101561334f57805161333b81613ad9565b835260019490940193918501918501613328565b50979650505050505050565b60006020828403121561336d57600080fd5b81516001600160401b0381111561338357600080fd5b610e1c84828501613061565b600080604083850312156133a257600080fd5b82516001600160401b03808211156133b957600080fd5b6133c586838701613061565b93506020915081850151818111156133dc57600080fd5b8501601f810187136133ed57600080fd5b80516133fb613082826139fe565b8082825285820191508584018a878560051b870101111561341b57600080fd5b6000805b8581101561345657825188811115613435578283fd5b6134438e8b838b010161311b565b865250938801939188019160010161341f565b5050508096505050505050509250929050565b60006020828403121561347b57600080fd5b813561319b81613aee565b60006020828403121561349857600080fd5b815161319b81613aee565b6000602082840312156134b557600080fd5b5051919050565b600080600080606085870312156134d257600080fd5b8435935060208501356001600160401b03808211156134f057600080fd5b818701915087601f83011261350457600080fd5b81358181111561351357600080fd5b8860208260051b850101111561352857600080fd5b602083019550809450505050604085013561354281613aee565b939692955090935050565b6000806040838503121561356057600080fd5b82516001600160401b0381111561357657600080fd5b6135828582860161311b565b925050602083015161359381613aee565b809150509250929050565b600081518084526020808501945080840160005b838110156135d75781516001600160a01b0316875295820195908201906001016135b2565b509495945050505050565b600081518084526135fa816020860160208601613a46565b601f01601f19169290920160200192915050565b60008251613620818460208701613a46565b9190910192915050565b6001600160a01b0391909116815260200190565b6001600160a01b039390931683526020830191909152604082015260600190565b60018060a01b0383168152600060206040818401526000845481600182811c91508083168061368f57607f831692505b8583108114156136ad57634e487b7160e01b85526022600452602485fd5b60408801839052606088018180156136cc57600181146136dd57613708565b60ff19861682528782019650613708565b60008b81526020902060005b86811015613702578154848201529085019089016136e9565b83019750505b50949a9950505050505050505050565b60208152600061319b602083018461359e565b60408152600061373e604083018561359e565b6020838203818501528185518084528284019150828160051b85010183880160005b8381101561378e57601f1987840301855261377c8383516135e2565b94860194925090850190600101613760565b50909998505050505050505050565b6020808252825182820181905260009190848201906040850190845b818110156137d5578351835292840192918401916001016137b9565b50909695505050505050565b918252602082015260400190565b60408152600061380260408301856135e2565b905082151560208301529392505050565b60808152600061382660808301876135e2565b9415156020830152506040810192909252606090910152919050565b6020808252600490820152634543313960e01b604082015260600190565b6020808252600490820152634543323760e01b604082015260600190565b60208082526003908201526245433560e81b604082015260600190565b60208082526004908201526308a8664760e31b604082015260600190565b60208082526003908201526245433960e81b604082015260600190565b60208082526003908201526245433160e81b604082015260600190565b60208082526003908201526222a19b60e91b604082015260600190565b6060815283516060820152600060208086015160c060808501526139386101208501826135e2565b9050604087015160a08501526060870151605f19808684030160c087015261396083836135e2565b60808a015187820390920160e088015281518082529185019350600092508401905b808310156139a25783518252928401926001929092019190840190613982565b5060a0890151151561010087015292850187905250506001600160a01b03841660408401529050610e1c565b604051601f8201601f191681016001600160401b03811182821017156139f6576139f6613ac3565b604052919050565b60006001600160401b03821115613a1757613a17613ac3565b5060051b60200190565b600082821015613a4157634e487b7160e01b600052601160045260246000fd5b500390565b60005b83811015613a61578181015183820152602001613a49565b838111156109da5750506000910152565b600181811c90821680613a8657607f821691505b60208210811415613aa757634e487b7160e01b600052602260045260246000fd5b50919050565b634e487b7160e01b600052603260045260246000fd5b634e487b7160e01b600052604160045260246000fd5b6001600160a01b038116811461090b57600080fd5b801515811461090b57600080fdfea2646970667358221220c93c538c687ce14d3f042cc9552961220c76963b94954c62bcf09e8716e8a47864736f6c63430008060033",
  "immutableReferences": {},
  "source": "// SPDX-License-Identifier: GPL-3.0\r\n\r\npragma solidity >=0.7.0 <0.9.0;\r\npragma experimental ABIEncoderV2;\r\n\r\n/**\r\n * @title Storage\r\n * @dev Store & retrieve value in a variable\r\n */\r\n import \"./Libraries/Library.sol\";\r\n import \"./Interfaces/IProvider.sol\";\r\n import \"./Abstract/MultiSigContract.sol\";\r\n import \"./PrivateCertificatesPool.sol\";\r\n import \"./PublicCertificatesPool.sol\";\r\n import \"./Libraries/ItemsLibrary.sol\";\r\n import \"./Libraries/AddressLibrary.sol\";\r\n\r\n contract Provider is IProvider, MultiSigContract {\r\n    using Library for *;\r\n    using AddressLibrary for *;\r\n    using ItemsLibrary for *;\r\n\r\n    // DATA\r\n    uint256 constant _TotalEntities = 2;\r\n\r\n    // Owners\r\n    uint256 constant _ownerIdProviders = 0;\r\n    string constant _ownerLabel = \"Owner\";\r\n\r\n    // Pools\r\n    uint256 constant _poolId = 1;\r\n    string constant _poolLabel = \"Pool\";\r\n\r\n    // Certificates\r\n    uint256 constant _certId = 2;\r\n    string constant _certLabel = \"Certificate\";\r\n\r\n    string[] _Label = [_ownerLabel, _poolLabel];\r\n    \r\n    struct _CertificatesPerHolderStruct{\r\n        mapping(address => ItemsLibrary._ItemsStruct) _CertificatesPerHolder;\r\n    }\r\n   \r\n    mapping(address => _CertificatesPerHolderStruct) _CertificatesPerPool;\r\n\r\n    mapping(address => uint256) _AddCertificatePricePerPool;\r\n    mapping(address => uint256) _SubscriptionPricePerPool;\r\n    mapping(address => bool) _submited;\r\n\r\n    // Provider\r\n    string _ProviderInfo;\r\n\r\n    // MODIFIERS\r\n    modifier isAPool(address pool){\r\n        require(true == isPool(pool));\r\n        _;\r\n    }\r\n\r\n    modifier isCertificateActivated(bool YesOrNo, bytes32 cert, address pool, address holder){\r\n        if(false == YesOrNo) require(false == isCertificate(pool, cert, holder), \"EC6\");\r\n        else require(true == isCertificate(pool, cert, holder), \"EC7\");\r\n        _;\r\n    }\r\n\r\n    modifier isCertificatePending(bool YesOrNo, bytes32 cert, address pool, address holder){\r\n        if(false == YesOrNo) require(false == isCertificatePendingToAdded(pool, cert, holder) && \r\n                                    false == isCertificatePendingToRemoved(pool, cert, holder), \"EC27\");\r\n        else require(true == isCertificatePendingToAdded(pool, cert, holder) || \r\n                    true == isCertificatePendingToRemoved(pool, cert, holder), \"EC28\");\r\n        _;\r\n    }\r\n\r\n    modifier isCertificatePendingToAdd(bool YesOrNo, bytes32 cert, address pool, address holder){\r\n        if(false == YesOrNo) require(false == isCertificatePendingToAdded(pool, cert, holder), \"EC27\");\r\n        else require(true == isCertificatePendingToAdded(pool, cert, holder), \"EC28\");\r\n        _;\r\n    }\r\n\r\n    modifier isCertificatePendingToRemove(bool YesOrNo, bytes32 cert, address pool, address holder){\r\n        if(false == YesOrNo) require(false == isCertificatePendingToRemoved(pool, cert, holder), \"EC27\");\r\n        else require(true == isCertificatePendingToRemoved(pool, cert, holder), \"EC28\");\r\n        _;\r\n    }\r\n\r\n    modifier HasNotAlreadyVotedForCertificate(bytes32 cert, address pool, address holder){\r\n        require(false == ItemsLibrary.hasVoted(msg.sender, cert, _CertificatesPerPool[pool]._CertificatesPerHolder[holder]), \"EC5\");\r\n        _;\r\n    }\r\n\r\n     // CONSTRUCTOR\r\n    constructor(address[] memory owners,  uint256 minOwners, string memory ProviderInfo) \r\n        MultiSigContract(owners, minOwners, _TotalEntities, _Label, _ownerIdProviders)\r\n    payable\r\n    {\r\n        _ProviderInfo = ProviderInfo;\r\n    }\r\n\r\n    // FUNCTIONALITY\r\n    function addPool(address pool, string calldata poolInfo, uint256 AddCertificatePrice, uint256 SubscriptionPrice) external override{\r\n        addEntity(pool, poolInfo, _poolId);\r\n        if(false == _submited[pool]){\r\n            _AddCertificatePricePerPool[pool] = AddCertificatePrice;\r\n            _SubscriptionPricePerPool[pool] = SubscriptionPrice;\r\n            _submited[pool] = true;\r\n        }\r\n    }\r\n\r\n    function removePool(address pool) external override\r\n    {\r\n       removeEntity(pool, _poolId); \r\n    }\r\n\r\n    function validatePool(address pool) external override\r\n    {\r\n        validateEntity(pool, _poolId);\r\n    }\r\n\r\n    function rejectPool(address pool) external override\r\n    {\r\n        rejectEntity(pool, _poolId);\r\n    }\r\n\r\n    function removePricesForPool(address pool) internal\r\n    {\r\n        delete(_submited[pool]);\r\n        delete(_AddCertificatePricePerPool[pool]);\r\n        delete(_SubscriptionPricePerPool[pool]);\r\n    }\r\n    \r\n    function retrievePool(address pool) external override view returns (string memory, bool, uint256, uint256)\r\n    {\r\n        string memory poolInfo;\r\n        bool isActivated;\r\n\r\n        (poolInfo, isActivated) = InternalRetrievePool(pool);\r\n        return (poolInfo, isActivated, _AddCertificatePricePerPool[pool], _SubscriptionPricePerPool[pool]);\r\n    }\r\n    \r\n    function InternalRetrievePool(address pool) internal view returns (string memory, bool)\r\n    {\r\n        return retrieveEntity(pool, _poolId);\r\n    }\r\n\r\n    function retrieveAllPools() external override view returns (address[] memory)\r\n    {\r\n        return retrieveAllEntities(_poolId);\r\n    }\r\n\r\n    function isPool(address pool) public view returns (bool)\r\n    {\r\n        return(isEntity(pool, _poolId));\r\n    }\r\n    \r\n    // Certificates management\r\n    function extractCertIds(address pool, address holder) internal pure returns(uint[] memory)\r\n    {\r\n        uint[] memory certIdIdArray = new uint[](3);\r\n        certIdIdArray[0] = _certId;\r\n        certIdIdArray[1] = AddressLibrary.AddressToUint(pool);\r\n        certIdIdArray[2] = AddressLibrary.AddressToUint(holder);\r\n\r\n        return(certIdIdArray);\r\n    }\r\n\r\n     function addCertificate(address pool, bytes32 CertificateHash, address holder) external override\r\n        isAPool(pool)\r\n        isAnOwner\r\n        isCertificateActivated(false, CertificateHash, pool, holder) \r\n        isCertificatePendingToAdd(false, CertificateHash, pool, holder)\r\n     {\r\n        _CertificatesPerHolderStruct storage hs = _CertificatesPerPool[pool];\r\n        uint[] memory certIdIdArray = extractCertIds(pool, holder);\r\n        ItemsLibrary._manipulateItemStruct memory manipulateItemStruct = ItemsLibrary._manipulateItemStruct(CertificateHash, \"\", _minOwners, _certLabel, certIdIdArray, false);\r\n        ItemsLibrary._ItemsStruct storage itemsstruct =  hs._CertificatesPerHolder[holder];\r\n        ItemsLibrary.addItem(manipulateItemStruct,itemsstruct, address(this));\r\n     }\r\n\r\n     function validateCertificate(address pool, bytes32 CertificateHash, address holder) external override\r\n        isAPool(pool)\r\n        isAnOwner\r\n        isCertificatePending(true, CertificateHash, pool, holder)\r\n        HasNotAlreadyVotedForCertificate(CertificateHash, pool, holder)\r\n     {\r\n        _CertificatesPerHolderStruct storage hs = _CertificatesPerPool[pool];\r\n        uint[] memory certIdIdArray = extractCertIds(pool, holder);\r\n        ItemsLibrary._manipulateItemStruct memory manipulateItemStruct = ItemsLibrary._manipulateItemStruct(CertificateHash, \"\", _minOwners, _certLabel, certIdIdArray, false);\r\n        ItemsLibrary._ItemsStruct storage itemsstruct =  hs._CertificatesPerHolder[holder];\r\n        ItemsLibrary.validateItem(manipulateItemStruct, itemsstruct, address(this));\r\n     }\r\n\r\n     function rejectCertificate(address pool, bytes32 CertificateHash, address holder) external override\r\n        isAPool(pool)\r\n        isAnOwner\r\n        isCertificatePending(true, CertificateHash, pool, holder)\r\n        HasNotAlreadyVotedForCertificate(CertificateHash, pool, holder)\r\n     {\r\n        _CertificatesPerHolderStruct storage hs = _CertificatesPerPool[pool];\r\n        uint[] memory certIdIdArray = extractCertIds(pool, holder);\r\n        ItemsLibrary._manipulateItemStruct memory manipulateItemStruct = ItemsLibrary._manipulateItemStruct(CertificateHash, \"\", _minOwners, _certLabel, certIdIdArray, false);\r\n        ItemsLibrary._ItemsStruct storage itemsstruct =  hs._CertificatesPerHolder[holder];\r\n        ItemsLibrary.rejectItem(manipulateItemStruct, itemsstruct, address(this));\r\n     }\r\n \r\n    function manipulateCertificate(address pool, bytes32 CertificateHash, address holder) internal\r\n    {\r\n        MultiSigCertificatesPool poolToSend;\r\n        (string memory p ,) = InternalRetrievePool(pool);\r\n\r\n        if(keccak256(abi.encodePacked(\"Private\")) == keccak256(abi.encodePacked((p)))){\r\n                poolToSend = PrivateCertificatesPool(pool);\r\n            }\r\n        else {\r\n                poolToSend = PublicCertificatesPool(pool);\r\n        }\r\n\r\n        poolToSend.addCertificate{value:_AddCertificatePricePerPool[pool]}(CertificateHash, holder);\r\n            \r\n        //delete(_CertificatesPerPool[getPoolId(pool)]._CertificatesPerHolder[getHolderId(holder)]._cert[CertificateHash]);\r\n        \r\n    }\r\n\r\n    function isCertificate(address pool, bytes32 CertificateHash, address holder) public view returns(bool)\r\n    {\r\n        return ItemsLibrary.isItem(CertificateHash, _CertificatesPerPool[pool]._CertificatesPerHolder[holder]);\r\n    }\r\n\r\n    function isCertificatePendingToAdded(address pool, bytes32 CertificateHash, address holder) internal view returns(bool)\r\n    {\r\n        return ItemsLibrary.isItemPendingToAdded(CertificateHash, _CertificatesPerPool[pool]._CertificatesPerHolder[holder]);\r\n    }\r\n\r\n    function isCertificatePendingToRemoved(address pool, bytes32 CertificateHash, address holder) internal view returns(bool)\r\n    {\r\n        return ItemsLibrary.isItemPendingToRemoved(CertificateHash, _CertificatesPerPool[pool]._CertificatesPerHolder[holder]);\r\n    }\r\n\r\n    \r\n    receive() external override payable{}\r\n\r\n    // CALLBACKS\r\n    function onItemValidated(bytes32 item, uint256[] calldata ids, bool addOrRemove) public override  \r\n    {\r\n        super.onItemValidated(item, ids, addOrRemove);\r\n\r\n        if(ids[0] == _poolId){\r\n            address pool = AddressLibrary.BytesToAddress(item);\r\n\r\n            if(false == addOrRemove)removePricesForPool(pool);\r\n            else{\r\n                MultiSigCertificatesPool poolToSubscribe = PublicCertificatesPool(pool);\r\n                poolToSubscribe.addProvider{value:_SubscriptionPricePerPool[pool]}(address(this), _ProviderInfo);\r\n            }\r\n        }\r\n        else if(ids[0] == _certId){\r\n            manipulateCertificate(AddressLibrary.UintToAddress(ids[1]), item, AddressLibrary.UintToAddress(ids[2]));\r\n        }\r\n    }\r\n\r\n    function onItemRejected(bytes32 item, uint256[] calldata ids, bool addOrRemove) public override  \r\n    {\r\n        super.onItemRejected(item, ids, addOrRemove);\r\n\r\n        if(ids[0] == _poolId){\r\n            address pool = AddressLibrary.BytesToAddress(item);\r\n\r\n            if(true == addOrRemove)removePricesForPool(pool);\r\n        } \r\n    }\r\n    \r\n }",
  "sourcePath": "C:/Users/d-aam/GitHub/Certificates/contracts/Provider.sol",
  "compiler": {
    "name": "solc",
    "version": "0.8.6+commit.11564f7e.Emscripten.clang"
  },
  "schemaVersion": "3.3.4",
  "updatedAt": "2021-07-29T10:07:29.751Z",
  "devdoc": {
    "kind": "dev",
    "methods": {},
    "version": 1
  },
  "userdoc": {
    "kind": "user",
    "methods": {},
    "version": 1
  }
}