{
  "contractName": "ProviderFactory",
  "abi": [
    {
      "anonymous": false,
      "inputs": [
        {
          "indexed": false,
          "internalType": "string",
          "name": "Factory",
          "type": "string"
        },
        {
          "indexed": false,
          "internalType": "string",
          "name": "Name",
          "type": "string"
        }
      ],
      "name": "_NewContractName",
      "type": "event"
    },
    {
      "anonymous": false,
      "inputs": [
        {
          "indexed": false,
          "internalType": "string",
          "name": "Factory",
          "type": "string"
        },
        {
          "indexed": false,
          "internalType": "string",
          "name": "Version",
          "type": "string"
        }
      ],
      "name": "_NewContractVersion",
      "type": "event"
    },
    {
      "anonymous": false,
      "inputs": [
        {
          "indexed": false,
          "internalType": "string",
          "name": "Factory",
          "type": "string"
        },
        {
          "indexed": false,
          "internalType": "uint256",
          "name": "Id",
          "type": "uint256"
        },
        {
          "indexed": true,
          "internalType": "address",
          "name": "Creator",
          "type": "address"
        },
        {
          "indexed": false,
          "internalType": "address",
          "name": "Element",
          "type": "address"
        },
        {
          "indexed": false,
          "internalType": "string",
          "name": "Name",
          "type": "string"
        }
      ],
      "name": "_NewElement",
      "type": "event"
    },
    {
      "inputs": [
        {
          "internalType": "string",
          "name": "factoryName",
          "type": "string"
        },
        {
          "internalType": "address",
          "name": "managerContractAddress",
          "type": "address"
        }
      ],
      "name": "Factory_init",
      "outputs": [],
      "stateMutability": "nonpayable",
      "type": "function"
    },
    {
      "inputs": [
        {
          "internalType": "uint256",
          "name": "Id",
          "type": "uint256"
        }
      ],
      "name": "retrieve",
      "outputs": [
        {
          "internalType": "address",
          "name": "",
          "type": "address"
        },
        {
          "internalType": "address",
          "name": "",
          "type": "address"
        },
        {
          "internalType": "string",
          "name": "",
          "type": "string"
        }
      ],
      "stateMutability": "view",
      "type": "function"
    },
    {
      "inputs": [],
      "name": "retrieveConfig",
      "outputs": [
        {
          "internalType": "string",
          "name": "",
          "type": "string"
        },
        {
          "internalType": "string",
          "name": "",
          "type": "string"
        },
        {
          "internalType": "string",
          "name": "",
          "type": "string"
        }
      ],
      "stateMutability": "view",
      "type": "function"
    },
    {
      "inputs": [],
      "name": "retrieveManagerContract",
      "outputs": [
        {
          "internalType": "address",
          "name": "",
          "type": "address"
        }
      ],
      "stateMutability": "view",
      "type": "function"
    },
    {
      "inputs": [],
      "name": "retrieveTotal",
      "outputs": [
        {
          "internalType": "uint256",
          "name": "",
          "type": "uint256"
        }
      ],
      "stateMutability": "view",
      "type": "function"
    },
    {
      "inputs": [
        {
          "internalType": "string",
          "name": "contractName",
          "type": "string"
        }
      ],
      "name": "updateContractName",
      "outputs": [],
      "stateMutability": "nonpayable",
      "type": "function"
    },
    {
      "inputs": [
        {
          "internalType": "string",
          "name": "contractVersion",
          "type": "string"
        }
      ],
      "name": "updateContractVersion",
      "outputs": [],
      "stateMutability": "nonpayable",
      "type": "function"
    },
    {
      "inputs": [
        {
          "internalType": "address",
          "name": "managerContractAddress",
          "type": "address"
        }
      ],
      "name": "ProviderFactory_init",
      "outputs": [],
      "stateMutability": "nonpayable",
      "type": "function"
    },
    {
      "inputs": [
        {
          "internalType": "address[]",
          "name": "owners",
          "type": "address[]"
        },
        {
          "internalType": "uint256",
          "name": "minOwners",
          "type": "uint256"
        },
        {
          "internalType": "string",
          "name": "ElementName",
          "type": "string"
        },
        {
          "internalType": "string",
          "name": "ENSName",
          "type": "string"
        }
      ],
      "name": "create",
      "outputs": [],
      "stateMutability": "payable",
      "type": "function"
    }
  ],
  "bytecode": "0x608060405234801561001057600080fd5b50612135806100206000396000f3fe608060405260043610620000805760003560e01c80631dd5862c14620000855780634612ea0b14620000ac5780635b362e8414620000d15780636f86542a146200010e5780637c980198146200012e5780638f88708b14620001455780639d8c56c6146200017b578063ce50ac7614620001a4578063fcc09e5b14620001c9575b600080fd5b3480156200009257600080fd5b50620000aa620000a436600462001286565b620001ee565b005b348015620000b957600080fd5b50620000aa620000cb366004620012c6565b620002c5565b348015620000de57600080fd5b506000546201000090046001600160a01b03166040516001600160a01b0390911681526020015b60405180910390f35b3480156200011b57600080fd5b5060045460405190815260200162000105565b620000aa6200013f3660046200117f565b620003a5565b3480156200015257600080fd5b506200016a620001643660046200131d565b620006dc565b604051620001059392919062001449565b3480156200018857600080fd5b50620001936200088f565b604051620001059392919062001561565b348015620001b157600080fd5b50620000aa620001c336600462001286565b62000a61565b348015620001d657600080fd5b50620000aa620001e83660046200105a565b62000b2c565b6000546040516337ea306360e01b8152339173__Library_______________________________916337ea3063916200023c9185916201000090046001600160a01b0316906004016200142f565b60006040518083038186803b1580156200025557600080fd5b505af41580156200026a573d6000803e3d6000fd5b5050835162000283925060039150602085019062000f30565b507f85825cad4af8c1dad9ad1a76eae95f95b6b46edc35d47b11259bca5daa7713ce60016003604051620002b9929190620015aa565b60405180910390a15050565b600054610100900460ff1680620002df575060005460ff16155b620003075760405162461bcd60e51b8152600401620002fe906200161d565b60405180910390fd5b600054610100900460ff161580156200032a576000805461ffff19166101011790555b620003358262000bcb565b82516200034a90600190602086019062000f30565b506040805160208101918290526000908190526200036b9160029162000f30565b506040805160208101918290526000908190526200038c9160039162000f30565b508015620003a0576000805461ff00191690555b505050565b600060029054906101000a90046001600160a01b03166001600160a01b031663e220ad956040518163ffffffff1660e01b815260040160006040518083038186803b158015620003f457600080fd5b505afa15801562000409573d6000803e3d6000fd5b505050506040513d6000823e601f3d908101601f19168201604052620004339190810190620010ce565b60018151811062000448576200044862001727565b60200260200101516001600160a01b031663f0c9325e3460036040518363ffffffff1660e01b81526004016200047f919062001538565b6000604051808303818588803b1580156200049957600080fd5b505af1158015620004ae573d6000803e3d6000fd5b505050505060008060029054906101000a90046001600160a01b03166001600160a01b031663e220ad956040518163ffffffff1660e01b815260040160006040518083038186803b1580156200050357600080fd5b505afa15801562000518573d6000803e3d6000fd5b505050506040513d6000823e601f3d908101601f19168201604052620005429190810190620010ce565b60078151811062000557576200055762001727565b60200260200101516001600160a01b031663b049473f6040518163ffffffff1660e01b815260040160806040518083038186803b1580156200059857600080fd5b505afa158015620005ad573d6000803e3d6000fd5b505050506040513d601f19601f82011682018060405250810190620005d3919062001081565b505091505060008585858585604051602401620005f5959493929190620014a6565b60408051808303601f1901815291815260208201805163302807cb60e11b6001600160e01b039091161790526000805482516377eb10ef60e11b81529251939450620006d493620100009091046001600160a01b03169263efd621de926004808301939192829003018186803b1580156200066f57600080fd5b505afa15801562000684573d6000803e3d6000fd5b505050506040513d6000823e601f3d908101601f19168201604052620006ae9190810190620010ce565b600181518110620006c357620006c362001727565b602002602001015182868662000c5f565b505050505050565b6004805460405163123bd07560e11b815291820183905260248201819052600091829160609185919073__Library_______________________________90632477a0ea9060440160006040518083038186803b1580156200073d57600080fd5b505af415801562000752573d6000803e3d6000fd5b50505050600486815481106200076c576200076c62001727565b6000918252602090912060039091020154600480546001600160a01b039092169188908110620007a057620007a062001727565b906000526020600020906003020160010160009054906101000a90046001600160a01b031660048881548110620007db57620007db62001727565b9060005260206000209060030201600201808054620007fa90620016ea565b80601f01602080910402602001604051908101604052809291908181526020018280546200082890620016ea565b8015620008795780601f106200084d5761010080835404028352916020019162000879565b820191906000526020600020905b8154815290600101906020018083116200085b57829003601f168201915b5050505050905094509450945050509193909250565b6060806060600160026003828054620008a890620016ea565b80601f0160208091040260200160405190810160405280929190818152602001828054620008d690620016ea565b8015620009275780601f10620008fb5761010080835404028352916020019162000927565b820191906000526020600020905b8154815290600101906020018083116200090957829003601f168201915b505050505092508180546200093c90620016ea565b80601f01602080910402602001604051908101604052809291908181526020018280546200096a90620016ea565b8015620009bb5780601f106200098f57610100808354040283529160200191620009bb565b820191906000526020600020905b8154815290600101906020018083116200099d57829003601f168201915b50505050509150808054620009d090620016ea565b80601f0160208091040260200160405190810160405280929190818152602001828054620009fe90620016ea565b801562000a4f5780601f1062000a235761010080835404028352916020019162000a4f565b820191906000526020600020905b81548152906001019060200180831162000a3157829003601f168201915b50505050509050925092509250909192565b6000546040516337ea306360e01b8152339173__Library_______________________________916337ea30639162000aaf9185916201000090046001600160a01b0316906004016200142f565b60006040518083038186803b15801562000ac857600080fd5b505af415801562000add573d6000803e3d6000fd5b5050835162000af6925060029150602085019062000f30565b507fca713f964ba9fd248b552b210e1ec6035169f38c143b0500c211f277f1ad454360016002604051620002b9929190620015aa565b600054610100900460ff168062000b46575060005460ff16155b62000b655760405162461bcd60e51b8152600401620002fe906200161d565b600054610100900460ff1615801562000b88576000805461ffff19166101011790555b62000bb460405180604001604052806008815260200167283937bb34b232b960c11b81525083620002c5565b801562000bc7576000805461ff00191690555b5050565b600054610100900460ff168062000be5575060005460ff16155b62000c045760405162461bcd60e51b8152600401620002fe906200161d565b600054610100900460ff1615801562000c27576000805461ffff19166101011790555b6000805462010000600160b01b031916620100006001600160a01b03851602179055801562000bc7576000805461ff00191690555050565b80516000901562000c735750805160208201205b6000858560405162000c859062000fbf565b62000c9292919062001480565b604051809103906000f08015801562000caf573d6000803e3d6000fd5b50604080516060810182523381526001600160a01b03808416602080840191825293830189815260048054600181018255600091909152845160039091027f8a35acfbc15ff81a39ae7d344fd709f28e8600b4aa8c65c6b64bfe7fe36bd19b810180549286166001600160a01b031993841617815593517f8a35acfbc15ff81a39ae7d344fd709f28e8600b4aa8c65c6b64bfe7fe36bd19c820180549190961692169190911790935551805195965092948594919362000d94937f8a35acfbc15ff81a39ae7d344fd709f28e8600b4aa8c65c6b64bfe7fe36bd19d0192019062000f30565b50508315905062000ebf57600060029054906101000a90046001600160a01b03166001600160a01b031663e220ad956040518163ffffffff1660e01b815260040160006040518083038186803b15801562000dee57600080fd5b505afa15801562000e03573d6000803e3d6000fd5b505050506040513d6000823e601f3d908101601f1916820160405262000e2d9190810190620010ce565b60078151811062000e425762000e4262001727565b60200260200101516001600160a01b0316632f50192884846040518363ffffffff1660e01b815260040162000e8a9291909182526001600160a01b0316602082015260400190565b600060405180830381600087803b15801562000ea557600080fd5b505af115801562000eba573d6000803e3d6000fd5b505050505b80600001516001600160a01b03167f1ca39c7d81f021b1dca105fb858bf2a88540adf1df782672dfd71b5ace6b839a60018060048054905062000f039190620016c4565b8460200151856040015160405162000f1f9493929190620015d3565b60405180910390a250505050505050565b82805462000f3e90620016ea565b90600052602060002090601f01602090048101928262000f62576000855562000fad565b82601f1062000f7d57805160ff191683800117855562000fad565b8280016001018555821562000fad579182015b8281111562000fad57825182559160200191906001019062000f90565b5062000fbb92915062000fcd565b5090565b610993806200176d83390190565b5b8082111562000fbb576000815560010162000fce565b600082601f83011262000ff657600080fd5b81356001600160401b038111156200101257620010126200173d565b62001027601f8201601f19166020016200166b565b8181528460208386010111156200103d57600080fd5b816020850160208301376000918101602001919091529392505050565b6000602082840312156200106d57600080fd5b81356200107a8162001753565b9392505050565b600080600080608085870312156200109857600080fd5b8451620010a58162001753565b6020860151909450620010b88162001753565b6040860151606090960151949790965092505050565b60006020808385031215620010e257600080fd5b82516001600160401b03811115620010f957600080fd5b8301601f810185136200110b57600080fd5b8051620011226200111c826200169e565b6200166b565b80828252848201915084840188868560051b87010111156200114357600080fd5b600094505b83851015620011735780516200115e8162001753565b83526001949094019391850191850162001148565b50979650505050505050565b600080600080608085870312156200119657600080fd5b84356001600160401b0380821115620011ae57600080fd5b818701915087601f830112620011c357600080fd5b81356020620011d66200111c836200169e565b8083825282820191508286018c848660051b8901011115620011f757600080fd5b600096505b8487101562001227578035620012128162001753565b835260019690960195918301918301620011fc565b5098505088013595505060408701359150808211156200124657600080fd5b620012548883890162000fe4565b935060608701359150808211156200126b57600080fd5b506200127a8782880162000fe4565b91505092959194509250565b6000602082840312156200129957600080fd5b81356001600160401b03811115620012b057600080fd5b620012be8482850162000fe4565b949350505050565b60008060408385031215620012da57600080fd5b82356001600160401b03811115620012f157600080fd5b620012ff8582860162000fe4565b9250506020830135620013128162001753565b809150509250929050565b6000602082840312156200133057600080fd5b5035919050565b6000815180845260005b818110156200135f5760208185018101518683018201520162001341565b8181111562001372576000602083870101525b50601f01601f19169290920160200192915050565b8054600090600181811c9080831680620013a257607f831692505b6020808410821415620013c557634e487b7160e01b600052602260045260246000fd5b83885260208801828015620013e35760018114620013f55762001422565b60ff1987168252828201975062001422565b60008981526020902060005b878110156200141c5781548482015290860190840162001401565b83019850505b5050505050505092915050565b6001600160a01b0392831681529116602082015260400190565b6001600160a01b03848116825283166020820152606060408201819052600090620014779083018462001337565b95945050505050565b6001600160a01b0383168152604060208201819052600090620012be9083018462001337565b60a0808252865190820181905260009060209060c0840190828a01845b82811015620014ea5781516001600160a01b031684529284019290840190600101620014c3565b5050508782850152838103604085015262001506818862001337565b91505082810360608401526200151d818662001337565b91505060018060a01b03831660808301529695505050505050565b60208101600483106200155b57634e487b7160e01b600052602160045260246000fd5b91905290565b60608152600062001576606083018662001337565b82810360208401526200158a818662001337565b90508281036040840152620015a0818562001337565b9695505050505050565b604081526000620015bf604083018562001387565b828103602084015262001477818562001387565b608081526000620015e8608083018762001387565b602083018690526001600160a01b0385166040840152828103606084015262001612818562001337565b979650505050505050565b6020808252602e908201527f496e697469616c697a61626c653a20636f6e747261637420697320616c72656160408201526d191e481a5b9a5d1a585b1a5e995960921b606082015260800190565b604051601f8201601f191681016001600160401b03811182821017156200169657620016966200173d565b604052919050565b60006001600160401b03821115620016ba57620016ba6200173d565b5060051b60200190565b600082821015620016e557634e487b7160e01b600052601160045260246000fd5b500390565b600181811c90821680620016ff57607f821691505b602082108114156200172157634e487b7160e01b600052602260045260246000fd5b50919050565b634e487b7160e01b600052603260045260246000fd5b634e487b7160e01b600052604160045260246000fd5b6001600160a01b03811681146200176957600080fd5b5056fe608060405260405161099338038061099383398101604081905261002291610470565b61004d60017fa3f0ad74e5423aebfd80d3ef4346578335a9a72aeaee59ff6cb3582b35133d5161057f565b60008051602061094c83398151915214610069576100696105d0565b6100758282600061007c565b50506105fc565b61008583610156565b6040516001600160a01b038416907f1cf3b03a6cf19fa2baba4df148e9dcabedea7f8a5c07840e207e5c089be95d3e90600090a26000825111806100c65750805b156101515761014f836001600160a01b0316635c60da1b6040518163ffffffff1660e01b815260040160206040518083038186803b15801561010757600080fd5b505afa15801561011b573d6000803e3d6000fd5b505050506040513d601f19601f8201168201806040525081019061013f9190610455565b836102f660201b6100291760201c565b505b505050565b6101698161032260201b6100551760201c565b6101c85760405162461bcd60e51b815260206004820152602560248201527f455243313936373a206e657720626561636f6e206973206e6f74206120636f6e6044820152641d1c9858dd60da1b60648201526084015b60405180910390fd5b61024b816001600160a01b0316635c60da1b6040518163ffffffff1660e01b815260040160206040518083038186803b15801561020457600080fd5b505afa158015610218573d6000803e3d6000fd5b505050506040513d601f19601f8201168201806040525081019061023c9190610455565b61032260201b6100551760201c565b6102b05760405162461bcd60e51b815260206004820152603060248201527f455243313936373a20626561636f6e20696d706c656d656e746174696f6e206960448201526f1cc81b9bdd08184818dbdb9d1c9858dd60821b60648201526084016101bf565b806102d560008051602061094c83398151915260001b61032860201b61005b1760201c565b80546001600160a01b0319166001600160a01b039290921691909117905550565b606061031b838360405180606001604052806027815260200161096c6027913961032b565b9392505050565b3b151590565b90565b6060833b61038a5760405162461bcd60e51b815260206004820152602660248201527f416464726573733a2064656c65676174652063616c6c20746f206e6f6e2d636f6044820152651b9d1c9858dd60d21b60648201526084016101bf565b600080856001600160a01b0316856040516103a59190610530565b600060405180830381855af49150503d80600081146103e0576040519150601f19603f3d011682016040523d82523d6000602084013e6103e5565b606091505b5090925090506103f6828286610400565b9695505050505050565b6060831561040f57508161031b565b82511561041f5782518084602001fd5b8160405162461bcd60e51b81526004016101bf919061054c565b80516001600160a01b038116811461045057600080fd5b919050565b60006020828403121561046757600080fd5b61031b82610439565b6000806040838503121561048357600080fd5b61048c83610439565b60208401519092506001600160401b03808211156104a957600080fd5b818501915085601f8301126104bd57600080fd5b8151818111156104cf576104cf6105e6565b604051601f8201601f19908116603f011681019083821181831017156104f7576104f76105e6565b8160405282815288602084870101111561051057600080fd5b6105218360208301602088016105a4565b80955050505050509250929050565b600082516105428184602087016105a4565b9190910192915050565b602081526000825180602084015261056b8160408501602087016105a4565b601f01601f19169190910160400192915050565b60008282101561059f57634e487b7160e01b600052601160045260246000fd5b500390565b60005b838110156105bf5781810151838201526020016105a7565b8381111561014f5750506000910152565b634e487b7160e01b600052600160045260246000fd5b634e487b7160e01b600052604160045260246000fd5b6103418061060b6000396000f3fe60806040523661001357610011610017565b005b6100115b61002761002261005e565b610106565b565b606061004e83836040518060600160405280602781526020016102e56027913961012a565b9392505050565b3b151590565b90565b60006100917fa3f0ad74e5423aebfd80d3ef4346578335a9a72aeaee59ff6cb3582b35133d50546001600160a01b031690565b6001600160a01b0316635c60da1b6040518163ffffffff1660e01b815260040160206040518083038186803b1580156100c957600080fd5b505afa1580156100dd573d6000803e3d6000fd5b505050506040513d601f19601f82011682018060405250810190610101919061023c565b905090565b3660008037600080366000845af43d6000803e808015610125573d6000f35b3d6000fd5b6060833b61018e5760405162461bcd60e51b815260206004820152602660248201527f416464726573733a2064656c65676174652063616c6c20746f206e6f6e2d636f6044820152651b9d1c9858dd60d21b60648201526084015b60405180910390fd5b600080856001600160a01b0316856040516101a99190610265565b600060405180830381855af49150503d80600081146101e4576040519150601f19603f3d011682016040523d82523d6000602084013e6101e9565b606091505b50915091506101f9828286610203565b9695505050505050565b6060831561021257508161004e565b8251156102225782518084602001fd5b8160405162461bcd60e51b81526004016101859190610281565b60006020828403121561024e57600080fd5b81516001600160a01b038116811461004e57600080fd5b600082516102778184602087016102b4565b9190910192915050565b60208152600082518060208401526102a08160408501602087016102b4565b601f01601f19169190910160400192915050565b60005b838110156102cf5781810151838201526020016102b7565b838111156102de576000848401525b5050505056fe416464726573733a206c6f772d6c6576656c2064656c65676174652063616c6c206661696c6564a2646970667358221220d403ceeafd1a8a95bac5042ee17868655bf495ec1518e7fe81eb94935c79e11764736f6c63430008070033a3f0ad74e5423aebfd80d3ef4346578335a9a72aeaee59ff6cb3582b35133d50416464726573733a206c6f772d6c6576656c2064656c65676174652063616c6c206661696c6564a2646970667358221220e8bfd275f2c07df25a7127a2cfe7a2511cfc7d1155500a4fc87b5b55590ec4a564736f6c63430008070033",
  "immutableReferences": {},
  "source": "// SPDX-License-Identifier: GPL-3.0\r\n\r\npragma solidity 0.8.7;\r\n\r\n/*\r\n  Provider Factory inherits from Factory.\r\n  Before creating a new Element a payment is made to Treasury.\r\n  Provider Elements are Beacon Proxy, the Beacon implementation address is stored in Manager contract.\r\n */\r\n\r\n import \"../Interfaces/ITreasury.sol\";\r\n import \"../Abstract/Factory.sol\";\r\n\r\ncontract ProviderFactory is Factory{\r\n    \r\n    // CONSTRUCTOR /////////////////////////////////////////\r\n    function ProviderFactory_init(address managerContractAddress) public initializer {\r\n        super.Factory_init(\"Provider\", managerContractAddress);\r\n    }\r\n\r\n    // FUNCTIONALITY /////////////////////////////////////////\r\n    function create(address[] memory owners,  uint256 minOwners, string memory ElementName, string memory ENSName) external override payable\r\n    {\r\n        ITreasury(_managerContract.retrieveTransparentProxies()[uint256(Library.TransparentProxies.Treasury)]).pay{value:msg.value}(Library.Prices.NewProviderContract);\r\n        (,address ENSReverseAddress,,) = IENS(_managerContract.retrieveTransparentProxies()[uint256(Library.TransparentProxies.ENS)]).retrieveSettings();\r\n        bytes memory data = abi.encodeWithSignature(\"Provider_init(address[],uint256,string,string,address)\", owners, minOwners, ElementName, ENSName, ENSReverseAddress);\r\n        internalCreate(_managerContract.retrieveBeacons()[uint256(Library.Beacons.Provider)], data, ElementName, ENSName);\r\n    }\r\n\r\n\r\n}",
  "sourcePath": "C:\\Users\\d-aam\\GitHub\\Certificates\\contracts\\DeployedContracts\\ProviderFactory.sol",
  "compiler": {
    "name": "solc",
    "version": "0.8.7+commit.e28d00a7.Emscripten.clang"
  },
  "schemaVersion": "3.4.3",
  "updatedAt": "2021-12-10T13:05:44.344Z",
  "devdoc": {
    "kind": "dev",
    "methods": {},
    "version": 1
  },
  "userdoc": {
    "kind": "user",
    "methods": {},
    "version": 1
  }
}