{
  "contractName": "Provider",
  "abi": [
    {
      "inputs": [
        {
          "internalType": "address[]",
          "name": "owners",
          "type": "address[]"
        },
        {
          "internalType": "uint256",
          "name": "minOwners",
          "type": "uint256"
        },
        {
          "internalType": "uint256",
          "name": "TotalEntities",
          "type": "uint256"
        },
        {
          "internalType": "string[]",
          "name": "labels",
          "type": "string[]"
        },
        {
          "internalType": "uint256",
          "name": "ownerId",
          "type": "uint256"
        }
      ],
      "name": "MultiSigContract_init",
      "outputs": [],
      "stateMutability": "nonpayable",
      "type": "function"
    },
    {
      "inputs": [
        {
          "internalType": "address",
          "name": "owner",
          "type": "address"
        },
        {
          "internalType": "string",
          "name": "ownerInfo",
          "type": "string"
        }
      ],
      "name": "addOwner",
      "outputs": [],
      "stateMutability": "nonpayable",
      "type": "function"
    },
    {
      "inputs": [
        {
          "internalType": "address",
          "name": "owner",
          "type": "address"
        }
      ],
      "name": "isOwner",
      "outputs": [
        {
          "internalType": "bool",
          "name": "",
          "type": "bool"
        }
      ],
      "stateMutability": "view",
      "type": "function"
    },
    {
      "inputs": [
        {
          "internalType": "address",
          "name": "owner",
          "type": "address"
        }
      ],
      "name": "rejectOwner",
      "outputs": [],
      "stateMutability": "nonpayable",
      "type": "function"
    },
    {
      "inputs": [
        {
          "internalType": "address",
          "name": "owner",
          "type": "address"
        }
      ],
      "name": "removeOwner",
      "outputs": [],
      "stateMutability": "nonpayable",
      "type": "function"
    },
    {
      "inputs": [],
      "name": "retrieveAllOwners",
      "outputs": [
        {
          "internalType": "address[]",
          "name": "",
          "type": "address[]"
        }
      ],
      "stateMutability": "view",
      "type": "function"
    },
    {
      "inputs": [],
      "name": "retrieveMinOwners",
      "outputs": [
        {
          "internalType": "uint256",
          "name": "",
          "type": "uint256"
        }
      ],
      "stateMutability": "view",
      "type": "function"
    },
    {
      "inputs": [
        {
          "internalType": "address",
          "name": "owner",
          "type": "address"
        }
      ],
      "name": "retrieveOwner",
      "outputs": [
        {
          "internalType": "string",
          "name": "",
          "type": "string"
        },
        {
          "internalType": "bool",
          "name": "",
          "type": "bool"
        }
      ],
      "stateMutability": "view",
      "type": "function"
    },
    {
      "inputs": [
        {
          "internalType": "bool",
          "name": "addedORremove",
          "type": "bool"
        }
      ],
      "name": "retrievePendingOwners",
      "outputs": [
        {
          "internalType": "address[]",
          "name": "",
          "type": "address[]"
        },
        {
          "internalType": "string[]",
          "name": "",
          "type": "string[]"
        }
      ],
      "stateMutability": "view",
      "type": "function"
    },
    {
      "inputs": [
        {
          "internalType": "address",
          "name": "owner",
          "type": "address"
        }
      ],
      "name": "validateOwner",
      "outputs": [],
      "stateMutability": "nonpayable",
      "type": "function"
    },
    {
      "stateMutability": "payable",
      "type": "receive"
    },
    {
      "inputs": [
        {
          "internalType": "address[]",
          "name": "owners",
          "type": "address[]"
        },
        {
          "internalType": "uint256",
          "name": "minOwners",
          "type": "uint256"
        },
        {
          "internalType": "string",
          "name": "ProviderInfo",
          "type": "string"
        }
      ],
      "name": "Provider_init",
      "outputs": [],
      "stateMutability": "nonpayable",
      "type": "function"
    },
    {
      "inputs": [
        {
          "internalType": "address",
          "name": "pool",
          "type": "address"
        },
        {
          "internalType": "string",
          "name": "poolInfo",
          "type": "string"
        },
        {
          "internalType": "uint256",
          "name": "AddCertificatePrice",
          "type": "uint256"
        },
        {
          "internalType": "uint256",
          "name": "SubscriptionPrice",
          "type": "uint256"
        }
      ],
      "name": "addPool",
      "outputs": [],
      "stateMutability": "nonpayable",
      "type": "function"
    },
    {
      "inputs": [
        {
          "internalType": "address",
          "name": "pool",
          "type": "address"
        }
      ],
      "name": "removePool",
      "outputs": [],
      "stateMutability": "nonpayable",
      "type": "function"
    },
    {
      "inputs": [
        {
          "internalType": "address",
          "name": "pool",
          "type": "address"
        }
      ],
      "name": "validatePool",
      "outputs": [],
      "stateMutability": "nonpayable",
      "type": "function"
    },
    {
      "inputs": [
        {
          "internalType": "address",
          "name": "pool",
          "type": "address"
        }
      ],
      "name": "rejectPool",
      "outputs": [],
      "stateMutability": "nonpayable",
      "type": "function"
    },
    {
      "inputs": [
        {
          "internalType": "address",
          "name": "pool",
          "type": "address"
        }
      ],
      "name": "retrievePool",
      "outputs": [
        {
          "internalType": "string",
          "name": "",
          "type": "string"
        },
        {
          "internalType": "bool",
          "name": "",
          "type": "bool"
        },
        {
          "internalType": "uint256",
          "name": "",
          "type": "uint256"
        },
        {
          "internalType": "uint256",
          "name": "",
          "type": "uint256"
        }
      ],
      "stateMutability": "view",
      "type": "function"
    },
    {
      "inputs": [],
      "name": "retrieveAllPools",
      "outputs": [
        {
          "internalType": "address[]",
          "name": "",
          "type": "address[]"
        }
      ],
      "stateMutability": "view",
      "type": "function"
    },
    {
      "inputs": [
        {
          "internalType": "bool",
          "name": "addedORremove",
          "type": "bool"
        }
      ],
      "name": "retrievePendingPools",
      "outputs": [
        {
          "internalType": "address[]",
          "name": "",
          "type": "address[]"
        },
        {
          "internalType": "string[]",
          "name": "",
          "type": "string[]"
        }
      ],
      "stateMutability": "view",
      "type": "function"
    },
    {
      "inputs": [
        {
          "internalType": "address",
          "name": "pool",
          "type": "address"
        },
        {
          "internalType": "bytes32",
          "name": "CertificateHash",
          "type": "bytes32"
        },
        {
          "internalType": "address",
          "name": "holder",
          "type": "address"
        }
      ],
      "name": "addCertificate",
      "outputs": [],
      "stateMutability": "nonpayable",
      "type": "function"
    },
    {
      "inputs": [
        {
          "internalType": "address",
          "name": "pool",
          "type": "address"
        },
        {
          "internalType": "bytes32",
          "name": "CertificateHash",
          "type": "bytes32"
        },
        {
          "internalType": "address",
          "name": "holder",
          "type": "address"
        }
      ],
      "name": "validateCertificate",
      "outputs": [],
      "stateMutability": "nonpayable",
      "type": "function"
    },
    {
      "inputs": [
        {
          "internalType": "address",
          "name": "pool",
          "type": "address"
        },
        {
          "internalType": "bytes32",
          "name": "CertificateHash",
          "type": "bytes32"
        },
        {
          "internalType": "address",
          "name": "holder",
          "type": "address"
        }
      ],
      "name": "rejectCertificate",
      "outputs": [],
      "stateMutability": "nonpayable",
      "type": "function"
    },
    {
      "inputs": [
        {
          "internalType": "address",
          "name": "pool",
          "type": "address"
        },
        {
          "internalType": "bytes32",
          "name": "CertificateHash",
          "type": "bytes32"
        },
        {
          "internalType": "address",
          "name": "holder",
          "type": "address"
        }
      ],
      "name": "isCertificate",
      "outputs": [
        {
          "internalType": "bool",
          "name": "",
          "type": "bool"
        }
      ],
      "stateMutability": "view",
      "type": "function"
    },
    {
      "inputs": [
        {
          "internalType": "bytes32",
          "name": "item",
          "type": "bytes32"
        },
        {
          "internalType": "uint256[]",
          "name": "ids",
          "type": "uint256[]"
        },
        {
          "internalType": "bool",
          "name": "addOrRemove",
          "type": "bool"
        }
      ],
      "name": "onItemValidated",
      "outputs": [],
      "stateMutability": "nonpayable",
      "type": "function"
    },
    {
      "inputs": [
        {
          "internalType": "bytes32",
          "name": "item",
          "type": "bytes32"
        },
        {
          "internalType": "uint256[]",
          "name": "ids",
          "type": "uint256[]"
        },
        {
          "internalType": "bool",
          "name": "addOrRemove",
          "type": "bool"
        }
      ],
      "name": "onItemRejected",
      "outputs": [],
      "stateMutability": "nonpayable",
      "type": "function"
    }
  ],
  "bytecode": "0x608060405234801561001057600080fd5b50614695806100206000396000f3fe60806040526004361061011f5760003560e01c8063017cb3db1461012b57806314a2ed2f1461014d578063173825d91461016d5780632d99aaf21461018d5780632f54bf6e146101b85780633542758f146101e85780633b7d0946146102085780633fd071811461022857806365b973e5146102485780636b2996041461026657806376f8f90f1461029457806377bc5a1f146102b45780637c8c2add146102e25780638fc2d8ea14610302578063a44bff2b14610332578063a706752c14610352578063a93d5ed614610372578063b683e37b14610387578063bd9f3705146103a7578063ce33d58a146103c7578063cf2041d9146103e7578063d920928914610407578063f804938214610427578063fb1f69171461044757600080fd5b3661012657005b600080fd5b34801561013757600080fd5b5061014b610146366004613ae0565b610467565b005b34801561015957600080fd5b5061014b610168366004613ae0565b610703565b34801561017957600080fd5b5061014b610188366004613aa6565b6108d7565b34801561019957600080fd5b506101a2610923565b6040516101af91906141b3565b60405180910390f35b3480156101c457600080fd5b506101d86101d3366004613aa6565b610934565b60405190151581526020016101af565b3480156101f457600080fd5b5061014b610203366004613b22565b610948565b34801561021457600080fd5b5061014b610223366004613aa6565b610956565b34801561023457600080fd5b5061014b610243366004613f3e565b610964565b34801561025457600080fd5b506001546040519081526020016101af565b34801561027257600080fd5b50610286610281366004613eeb565b610a36565b6040516101af9291906141c6565b3480156102a057600080fd5b5061014b6102af366004613aa6565b610a4e565b3480156102c057600080fd5b506102d46102cf366004613aa6565b610aa9565b6040516101af9291906142ba565b3480156102ee57600080fd5b5061014b6102fd366004613f3e565b610ab9565b34801561030e57600080fd5b5061032261031d366004613aa6565b610d6b565b6040516101af94939291906142de565b34801561033e57600080fd5b5061014b61034d366004613c7c565b610db5565b34801561035e57600080fd5b506101d861036d366004613ae0565b610ff5565b34801561037e57600080fd5b506101a261100c565b34801561039357600080fd5b5061014b6103a2366004613b76565b611019565b3480156103b357600080fd5b5061014b6103c2366004613ae0565b611087565b3480156103d357600080fd5b5061014b6103e2366004613aa6565b6112d9565b3480156103f357600080fd5b5061014b610402366004613ce8565b6112e5565b34801561041357600080fd5b5061014b610422366004613aa6565b6115a7565b34801561043357600080fd5b50610286610442366004613eeb565b6115b2565b34801561045357600080fd5b5061014b610462366004613aa6565b6115c0565b82610471816115cb565b151560011461047f57600080fd5b61048b336000546115d4565b15156001146104b55760405162461bcd60e51b81526004016104ac906143d2565b60405180910390fd5b60018385846104c58284836117c5565b1515600114806104e157506104db828483611873565b15156001145b6104fd5760405162461bcd60e51b81526004016104ac90614366565b6001600160a01b038089166000908152600960209081526040808320938a1683529290528190209051633db691ef60e11b815288918a91899173__ItemsLibrary__________________________91637b6d23de9161056291339188916004016140d9565b60206040518083038186803b15801561057a57600080fd5b505af415801561058e573d6000803e3d6000fd5b505050506040513d601f19601f820116820180604052508101906105b29190613f08565b156105cf5760405162461bcd60e51b81526004016104ac90614349565b6001600160a01b038b166000908152600960205260408120906105f28d8c6118d3565b905060006040518060c001604052808e815260200160405180602001604052806000815250815260200160015481526020016040518060400160405280600b81526020016a436572746966696361746560a81b815250815260200183815260200160001515815250905060008360000160008e6001600160a01b03166001600160a01b03168152602001908152602001600020905073__ItemsLibrary__________________________635cb09bcf8383306040518463ffffffff1660e01b81526004016106c293929190614429565b60006040518083038186803b1580156106da57600080fd5b505af41580156106ee573d6000803e3d6000fd5b50505050505050505050505050505050505050565b8261070d816115cb565b151560011461071b57600080fd5b610727336000546115d4565b15156001146107485760405162461bcd60e51b81526004016104ac906143d2565b6000838584610758828483611a6a565b156107755760405162461bcd60e51b81526004016104ac9061440c565b60008789886107858284836117c5565b156107a25760405162461bcd60e51b81526004016104ac9061432b565b6001600160a01b038c166000908152600960205260408120906107c58e8d6118d3565b905060006040518060c001604052808f815260200160405180602001604052806000815250815260200160015481526020016040518060400160405280600b81526020016a436572746966696361746560a81b815250815260200183815260200160001515815250905060008360000160008f6001600160a01b03166001600160a01b03168152602001908152602001600020905073__ItemsLibrary__________________________630b985aaa8383306040518463ffffffff1660e01b815260040161089593929190614429565b60006040518083038186803b1580156108ad57600080fd5b505af41580156108c1573d6000803e3d6000fd5b5050505050505050505050505050505050505050565b60015460016108e7600054611b19565b516108f29190614561565b808211156109125760405162461bcd60e51b81526004016104ac9061430d565b61091e83600054611d0a565b505050565b606061092f6001611b19565b905090565b6000610942826000546115d4565b92915050565b61091e8383836000546120b1565b610961816001611d0a565b50565b61097084848484612428565b60018383600081811061098557610985614610565b905060200201351415610a3057604051631e99d35d60e31b81526004810185905260009073__AddressLibrary________________________9063f4ce9ae89060240160206040518083038186803b1580156109e057600080fd5b505af41580156109f4573d6000803e3d6000fd5b505050506040513d601f19601f82011682018060405250810190610a189190613ac3565b905060018215151415610a2e57610a2e816124e8565b505b50505050565b606080610a458360005461251e565b91509150915091565b610a5a8160005461272b565b151560011415610a9d576001610a71600054611b19565b51610a7c9190614561565b6001541115610a9d5760405162461bcd60e51b81526004016104ac9061430d565b61096181600054612897565b60606000610a4583600054612d28565b610ac584848484612428565b600183836000818110610ada57610ada614610565b905060200201351415610bfc57604051631e99d35d60e31b81526004810185905260009073__AddressLibrary________________________9063f4ce9ae89060240160206040518083038186803b158015610b3557600080fd5b505af4158015610b49573d6000803e3d6000fd5b505050506040513d601f19601f82011682018060405250810190610b6d9190613ac3565b905081610b8257610b7d816124e8565b610bf6565b6001600160a01b0381166000818152600660205260409081902054905162fc000560e81b815283929163fc00050091610bc2903090600a906004016140fa565b6000604051808303818588803b158015610bdb57600080fd5b505af1158015610bef573d6000803e3d6000fd5b5050505050505b50610a30565b600283836000818110610c1157610c11614610565b905060200201351415610a3057610a3073__AddressLibrary________________________63b1e2771485856001818110610c4e57610c4e614610565b905060200201356040518263ffffffff1660e01b8152600401610c7391815260200190565b60206040518083038186803b158015610c8b57600080fd5b505af4158015610c9f573d6000803e3d6000fd5b505050506040513d601f19601f82011682018060405250810190610cc39190613ac3565b8573__AddressLibrary________________________63b1e2771487876002818110610cf157610cf1614610565b905060200201356040518263ffffffff1660e01b8152600401610d1691815260200190565b60206040518083038186803b158015610d2e57600080fd5b505af4158015610d42573d6000803e3d6000fd5b505050506040513d601f19601f82011682018060405250810190610d669190613ac3565b612f25565b6060600080600060606000610d7f87613141565b6001600160a01b039890981660009081526005602090815260408083205460069092529091205491999097509095509350505050565b600454610100900460ff1680610dce575060045460ff16155b610dea5760405162461bcd60e51b81526004016104ac90614384565b600454610100900460ff16158015610e0c576004805461ffff19166101011790555b6040805160028082526060820190925290816020015b6060815260200190600190039081610e225750508051610e4a9160089160209091019061374c565b506040518060400160405280600581526020016427bbb732b960d91b8152506008600081548110610e7d57610e7d614610565b906000526020600020019080519060200190610e9a9291906137a9565b5060405180604001604052806004815260200163141bdbdb60e21b8152506008600181548110610ecc57610ecc614610565b906000526020600020019080519060200190610ee99291906137a9565b50610fca848460026008805480602002602001604051908101604052809291908181526020016000905b82821015610fbf578382906000526020600020018054610f32906145a4565b80601f0160208091040260200160405190810160405280929190818152602001828054610f5e906145a4565b8015610fab5780601f10610f8057610100808354040283529160200191610fab565b820191906000526020600020905b815481529060010190602001808311610f8e57829003601f168201915b505050505081526020019060010190610f13565b5050505060006112e5565b8151610fdd90600a9060208501906137a9565b508015610a30576004805461ff001916905550505050565b6000611002848484611a6a565b90505b9392505050565b606061092f600054611b19565b61102685858560016120b1565b6001600160a01b03851660009081526007602052604090205460ff16610a2e576001600160a01b03851660009081526005602090815260408083208590556006825280832084905560079091529020805460ff191660011790555050505050565b82611091816115cb565b151560011461109f57600080fd5b6110ab336000546115d4565b15156001146110cc5760405162461bcd60e51b81526004016104ac906143d2565b60018385846110dc8284836117c5565b1515600114806110f857506110f2828483611873565b15156001145b6111145760405162461bcd60e51b81526004016104ac90614366565b6001600160a01b038089166000908152600960209081526040808320938a1683529290528190209051633db691ef60e11b815288918a91899173__ItemsLibrary__________________________91637b6d23de9161117991339188916004016140d9565b60206040518083038186803b15801561119157600080fd5b505af41580156111a5573d6000803e3d6000fd5b505050506040513d601f19601f820116820180604052508101906111c99190613f08565b156111e65760405162461bcd60e51b81526004016104ac90614349565b6001600160a01b038b166000908152600960205260408120906112098d8c6118d3565b905060006040518060c001604052808e815260200160405180602001604052806000815250815260200160015481526020016040518060400160405280600b81526020016a436572746966696361746560a81b815250815260200183815260200160001515815250905060008360000160008e6001600160a01b03166001600160a01b03168152602001908152602001600020905073__ItemsLibrary__________________________637493a70b8383306040518463ffffffff1660e01b81526004016106c293929190614429565b61096181600054613150565b600454610100900460ff16806112fe575060045460ff16155b61131a5760405162461bcd60e51b81526004016104ac90614384565b600454610100900460ff1615801561133c576004805461ffff19166101011790555b8486518082111561135f5760405162461bcd60e51b81526004016104ac9061430d565b600087116113985760405162461bcd60e51b81526004016104ac906020808252600490820152634543313760e01b604082015260600190565b845186146113d15760405162461bcd60e51b81526004016104ac9060208082526004908201526308a8662760e31b604082015260600190565b60008481555b8681101561144757600280546001018155600052855160039087908390811061140257611402614610565b6020908102919091018101518254600181018455600093845292829020815161143494919091019291909101906137a9565b508061143f816145df565b9150506113d7565b50600187905560005b885181101561158a57600073__AddressLibrary________________________63bc215e858b848151811061148757611487614610565b60200260200101516040518263ffffffff1660e01b81526004016114ab91906140c5565b60206040518083038186803b1580156114c357600080fd5b505af41580156114d7573d6000803e3d6000fd5b505050506040513d601f19601f820116820180604052508101906114fb9190613f25565b9050600160026000548154811061151457611514614610565b60009182526020808320858452600492909202909101905260408120805460ff1916921515929092179091555460028054909190811061155657611556614610565b6000918252602080832060016004909302018201805492830181558352909120015580611582816145df565b915050611450565b505050801561159f576004805461ff00191690555b505050505050565b610961816001612897565b606080610a4583600161251e565b610961816001613150565b60006109428260015b60025460405163123bd07560e11b8152600091839173__Library_______________________________90632477a0ea9061161590859085906004016142ac565b60206040518083038186803b15801561162d57600080fd5b505af4158015611641573d6000803e3d6000fd5b505050506040513d601f19601f820116820180604052508101906116659190613f08565b15156001146116865760405162461bcd60e51b81526004016104ac906143ef565b60405163bc215e8560e01b815260009073__AddressLibrary________________________9063bc215e85906116c09089906004016140c5565b60206040518083038186803b1580156116d857600080fd5b505af41580156116ec573d6000803e3d6000fd5b505050506040513d601f19601f820116820180604052508101906117109190613f25565b905073__ItemsLibrary__________________________63dbdfbeec826002888154811061174057611740614610565b90600052602060002090600402016040518363ffffffff1660e01b815260040161176b9291906142ac565b60206040518083038186803b15801561178357600080fd5b505af4158015611797573d6000803e3d6000fd5b505050506040513d601f19601f820116820180604052508101906117bb9190613f08565b9695505050505050565b6001600160a01b0380841660009081526009602090815260408083209385168352929052818120915162136bb360e11b8152909173__ItemsLibrary__________________________916226d76691611823918791906004016142ac565b60206040518083038186803b15801561183b57600080fd5b505af415801561184f573d6000803e3d6000fd5b505050506040513d601f19601f820116820180604052508101906110029190613f08565b6001600160a01b0380841660009081526009602090815260408083209385168352929052818120915163142a769760e11b8152909173__ItemsLibrary__________________________91632854ed2e91611823918791906004016142ac565b604080516003808252608082019092526060916000919060208201848036833701905050905060028160008151811061190e5761190e614610565b602090810291909101015260405163cf0668ed60e01b815273__AddressLibrary________________________9063cf0668ed906119509087906004016140c5565b60206040518083038186803b15801561196857600080fd5b505af415801561197c573d6000803e3d6000fd5b505050506040513d601f19601f820116820180604052508101906119a09190613f25565b816001815181106119b3576119b3614610565b602090810291909101015260405163cf0668ed60e01b815273__AddressLibrary________________________9063cf0668ed906119f59086906004016140c5565b60206040518083038186803b158015611a0d57600080fd5b505af4158015611a21573d6000803e3d6000fd5b505050506040513d601f19601f82011682018060405250810190611a459190613f25565b81600281518110611a5857611a58614610565b60209081029190910101529392505050565b60405163685256ff60e11b8152600090849082906001600160a01b0383169063d0a4adfe90611a9f908890889060040161427c565b60206040518083038186803b158015611ab757600080fd5b505afa158015611acb573d6000803e3d6000fd5b505050506040513d601f19601f82011682018060405250810190611aef9190613ac3565b90506001600160a01b038116301415611b0d57600192505050611005565b50600095945050505050565b60025460405163123bd07560e11b8152606091839173__Library_______________________________90632477a0ea90611b5a90859085906004016142ac565b60206040518083038186803b158015611b7257600080fd5b505af4158015611b86573d6000803e3d6000fd5b505050506040513d601f19601f82011682018060405250810190611baa9190613f08565b1515600114611bcb5760405162461bcd60e51b81526004016104ac906143ef565b73__AddressLibrary________________________6391421b1173__ItemsLibrary__________________________6327724f4b60028881548110611c1257611c12614610565b90600052602060002090600402016040518263ffffffff1660e01b8152600401611c3e91815260200190565b60006040518083038186803b158015611c5657600080fd5b505af4158015611c6a573d6000803e3d6000fd5b505050506040513d6000823e601f3d908101601f19168201604052611c929190810190613ddd565b6040518263ffffffff1660e01b8152600401611cae9190614238565b60006040518083038186803b158015611cc657600080fd5b505af4158015611cda573d6000803e3d6000fd5b505050506040513d6000823e601f3d908101601f19168201604052611d029190810190613bdc565b949350505050565b60025460405163123bd07560e11b815282919073__Library_______________________________90632477a0ea90611d4990859085906004016142ac565b60206040518083038186803b158015611d6157600080fd5b505af4158015611d75573d6000803e3d6000fd5b505050506040513d601f19601f82011682018060405250810190611d999190613f08565b1515600114611dba5760405162461bcd60e51b81526004016104ac906143ef565b611dc6336000546115d4565b1515600114611de75760405162461bcd60e51b81526004016104ac906143d2565b60018484611df582826115d4565b1515600114611e2c5760405162461bcd60e51b815260206004820152600360248201526245433760e81b60448201526064016104ac565b60008787611e3a828261272b565b15611e575760405162461bcd60e51b81526004016104ac9061432b565b60405163bc215e8560e01b815260009073__AddressLibrary________________________9063bc215e8590611e91908e906004016140c5565b60206040518083038186803b158015611ea957600080fd5b505af4158015611ebd573d6000803e3d6000fd5b505050506040513d601f19601f82011682018060405250810190611ee19190613f25565b60408051600180825281830190925291925060009190602080830190803683370190505090508a81600081518110611f1b57611f1b614610565b60200260200101818152505060006040518060c00160405280848152602001604051806020016040528060008152508152602001600154815260200160038e81548110611f6a57611f6a614610565b906000526020600020018054611f7f906145a4565b80601f0160208091040260200160405190810160405280929190818152602001828054611fab906145a4565b8015611ff85780601f10611fcd57610100808354040283529160200191611ff8565b820191906000526020600020905b815481529060010190602001808311611fdb57829003601f168201915b50505050508152602001838152602001600115158152509050600060028d8154811061202657612026614610565b9060005260206000209060040201905073__ItemsLibrary__________________________63e23fcdef8383306040518463ffffffff1660e01b815260040161207193929190614429565b60006040518083038186803b15801561208957600080fd5b505af415801561209d573d6000803e3d6000fd5b505050505050505050505050505050505050565b60025460405163123bd07560e11b815282919073__Library_______________________________90632477a0ea906120f090859085906004016142ac565b60206040518083038186803b15801561210857600080fd5b505af415801561211c573d6000803e3d6000fd5b505050506040513d601f19601f820116820180604052508101906121409190613f08565b15156001146121615760405162461bcd60e51b81526004016104ac906143ef565b61216d336000546115d4565b151560011461218e5760405162461bcd60e51b81526004016104ac906143d2565b6000868461219c82826115d4565b156121b95760405162461bcd60e51b81526004016104ac9061440c565b600089876121c782826135e1565b156121e45760405162461bcd60e51b81526004016104ac9061432b565b600073__AddressLibrary________________________63bc215e858e6040518263ffffffff1660e01b815260040161221d91906140c5565b60206040518083038186803b15801561223557600080fd5b505af4158015612249573d6000803e3d6000fd5b505050506040513d601f19601f8201168201806040525081019061226d9190613f25565b60408051600180825281830190925291925060009190602080830190803683370190505090508a816000815181106122a7576122a7614610565b60200260200101818152505060006040518060c001604052808481526020018f8f8080601f0160208091040260200160405190810160405280939291908181526020018383808284376000920191909152505050908252506001546020820152600380546040909201918f90811061232157612321614610565b906000526020600020018054612336906145a4565b80601f0160208091040260200160405190810160405280929190818152602001828054612362906145a4565b80156123af5780601f10612384576101008083540402835291602001916123af565b820191906000526020600020905b81548152906001019060200180831161239257829003601f168201915b50505050508152602001838152602001600115158152509050600060028d815481106123dd576123dd614610565b9060005260206000209060040201905073__ItemsLibrary__________________________630b985aaa8383306040518463ffffffff1660e01b815260040161089593929190614429565b604051630d1d719d60e41b8152309073__Library_______________________________9063d1d719d0906124619084906004016140c5565b60206040518083038186803b15801561247957600080fd5b505af415801561248d573d6000803e3d6000fd5b505050506040513d601f19601f820116820180604052508101906124b19190613f08565b1515600114610a2e5760405162461bcd60e51b815260206004820152600360248201526208a86760eb1b60448201526064016104ac565b6001600160a01b03166000908152600760209081526040808320805460ff19169055600582528083208390556006909152812055565b60025460405163123bd07560e11b8152606091829184919073__Library_______________________________90632477a0ea9061256290859085906004016142ac565b60206040518083038186803b15801561257a57600080fd5b505af415801561258e573d6000803e3d6000fd5b505050506040513d601f19601f820116820180604052508101906125b29190613f08565b15156001146125d35760405162461bcd60e51b81526004016104ac906143ef565b60608073__ItemsLibrary__________________________63e035e0068960028a8154811061260457612604614610565b90600052602060002090600402016040518363ffffffff1660e01b815260040161263a9291909115158252602082015260400190565b60006040518083038186803b15801561265257600080fd5b505af4158015612666573d6000803e3d6000fd5b505050506040513d6000823e601f3d908101601f1916820160405261268e9190810190613e11565b6040516391421b1160e01b8152919350915073__AddressLibrary________________________906391421b11906126ca908590600401614238565b60006040518083038186803b1580156126e257600080fd5b505af41580156126f6573d6000803e3d6000fd5b505050506040513d6000823e601f3d908101601f1916820160405261271e9190810190613bdc565b9890975095505050505050565b60025460405163123bd07560e11b8152600091839173__Library_______________________________90632477a0ea9061276c90859085906004016142ac565b60206040518083038186803b15801561278457600080fd5b505af4158015612798573d6000803e3d6000fd5b505050506040513d601f19601f820116820180604052508101906127bc9190613f08565b15156001146127dd5760405162461bcd60e51b81526004016104ac906143ef565b60405163bc215e8560e01b815260009073__AddressLibrary________________________9063bc215e85906128179089906004016140c5565b60206040518083038186803b15801561282f57600080fd5b505af4158015612843573d6000803e3d6000fd5b505050506040513d601f19601f820116820180604052508101906128679190613f25565b905073__ItemsLibrary__________________________632854ed2e826002888154811061174057611740614610565b60025460405163123bd07560e11b815282919073__Library_______________________________90632477a0ea906128d690859085906004016142ac565b60206040518083038186803b1580156128ee57600080fd5b505af4158015612902573d6000803e3d6000fd5b505050506040513d601f19601f820116820180604052508101906129269190613f08565b15156001146129475760405162461bcd60e51b81526004016104ac906143ef565b612953336000546115d4565b15156001146129745760405162461bcd60e51b81526004016104ac906143d2565b6001848461298282826135e1565b15156001148061299d5750612997828261272b565b15156001145b6129b95760405162461bcd60e51b81526004016104ac90614366565b8686600073__AddressLibrary________________________63bc215e85846040518263ffffffff1660e01b81526004016129f491906140c5565b60206040518083038186803b158015612a0c57600080fd5b505af4158015612a20573d6000803e3d6000fd5b505050506040513d601f19601f82011682018060405250810190612a449190613f25565b905073__ItemsLibrary__________________________637b6d23de338360028681548110612a7557612a75614610565b90600052602060002090600402016040518463ffffffff1660e01b8152600401612aa1939291906140d9565b60206040518083038186803b158015612ab957600080fd5b505af4158015612acd573d6000803e3d6000fd5b505050506040513d601f19601f82011682018060405250810190612af19190613f08565b15612b0e5760405162461bcd60e51b81526004016104ac90614349565b60405163bc215e8560e01b815260009073__AddressLibrary________________________9063bc215e8590612b48908e906004016140c5565b60206040518083038186803b158015612b6057600080fd5b505af4158015612b74573d6000803e3d6000fd5b505050506040513d601f19601f82011682018060405250810190612b989190613f25565b60408051600180825281830190925291925060009190602080830190803683370190505090508a81600081518110612bd257612bd2614610565b60200260200101818152505060006040518060c00160405280848152602001604051806020016040528060008152508152602001600154815260200160038e81548110612c2157612c21614610565b906000526020600020018054612c36906145a4565b80601f0160208091040260200160405190810160405280929190818152602001828054612c62906145a4565b8015612caf5780601f10612c8457610100808354040283529160200191612caf565b820191906000526020600020905b815481529060010190602001808311612c9257829003601f168201915b50505050508152602001838152602001600115158152509050600060028d81548110612cdd57612cdd614610565b9060005260206000209060040201905073__ItemsLibrary__________________________637493a70b8383306040518463ffffffff1660e01b815260040161207193929190614429565b60025460405163123bd07560e11b815260609160009184919073__Library_______________________________90632477a0ea90612d6d90859085906004016142ac565b60206040518083038186803b158015612d8557600080fd5b505af4158015612d99573d6000803e3d6000fd5b505050506040513d601f19601f82011682018060405250810190612dbd9190613f08565b1515600114612dde5760405162461bcd60e51b81526004016104ac906143ef565b60405163bc215e8560e01b815260009073__AddressLibrary________________________9063bc215e8590612e18908a906004016140c5565b60206040518083038186803b158015612e3057600080fd5b505af4158015612e44573d6000803e3d6000fd5b505050506040513d601f19601f82011682018060405250810190612e689190613f25565b905073__ItemsLibrary__________________________631aeccc6a8260028981548110612e9857612e98614610565b90600052602060002090600402016040518363ffffffff1660e01b8152600401612ec39291906142ac565b60006040518083038186803b158015612edb57600080fd5b505af4158015612eef573d6000803e3d6000fd5b505050506040513d6000823e601f3d908101601f19168201604052612f179190810190613fcf565b945094505050509250929050565b82612f2f816115cb565b1515600114612f3d57600080fd5b6001600160a01b0384166000818152600560205260409081902054905163035700ff60e31b8152869291631ab807f891612f7d908890889060040161427c565b6000604051808303818588803b158015612f9657600080fd5b505af1158015612faa573d6000803e3d6000fd5b5050506001600160a01b03808816600090815260096020908152604080832093891683529290528190209051631580989f60e11b815290925073__Library_______________________________9150635b28cf63908290632b01313e9061301b908a906001880190600401614293565b60206040518083038186803b15801561303357600080fd5b505af4158015613047573d6000803e3d6000fd5b505050506040513d601f19601f8201168201806040525081019061306b9190613f25565b836001016040518363ffffffff1660e01b815260040161308c929190614293565b60006040518083038186803b1580156130a457600080fd5b505af41580156130b8573d6000803e3d6000fd5b505050506040513d6000823e601f3d908101601f191682016040526130e09190810190613ddd565b80516130f6916001840191602090910190613829565b506000858152602082905260408120805460ff191681559061311b6001830182613863565b61312960028301600061389d565b61313760038301600061389d565b5050505050505050565b60606000610a45836001612d28565b60025460405163123bd07560e11b815282919073__Library_______________________________90632477a0ea9061318f90859085906004016142ac565b60206040518083038186803b1580156131a757600080fd5b505af41580156131bb573d6000803e3d6000fd5b505050506040513d601f19601f820116820180604052508101906131df9190613f08565b15156001146132005760405162461bcd60e51b81526004016104ac906143ef565b61320c336000546115d4565b151560011461322d5760405162461bcd60e51b81526004016104ac906143d2565b6001848461323b82826135e1565b1515600114806132565750613250828261272b565b15156001145b6132725760405162461bcd60e51b81526004016104ac90614366565b8686600073__AddressLibrary________________________63bc215e85846040518263ffffffff1660e01b81526004016132ad91906140c5565b60206040518083038186803b1580156132c557600080fd5b505af41580156132d9573d6000803e3d6000fd5b505050506040513d601f19601f820116820180604052508101906132fd9190613f25565b905073__ItemsLibrary__________________________637b6d23de33836002868154811061332e5761332e614610565b90600052602060002090600402016040518463ffffffff1660e01b815260040161335a939291906140d9565b60206040518083038186803b15801561337257600080fd5b505af4158015613386573d6000803e3d6000fd5b505050506040513d601f19601f820116820180604052508101906133aa9190613f08565b156133c75760405162461bcd60e51b81526004016104ac90614349565b60405163bc215e8560e01b815260009073__AddressLibrary________________________9063bc215e8590613401908e906004016140c5565b60206040518083038186803b15801561341957600080fd5b505af415801561342d573d6000803e3d6000fd5b505050506040513d601f19601f820116820180604052508101906134519190613f25565b60408051600180825281830190925291925060009190602080830190803683370190505090508a8160008151811061348b5761348b614610565b60200260200101818152505060006040518060c00160405280848152602001604051806020016040528060008152508152602001600154815260200160038e815481106134da576134da614610565b9060005260206000200180546134ef906145a4565b80601f016020809104026020016040519081016040528092919081815260200182805461351b906145a4565b80156135685780601f1061353d57610100808354040283529160200191613568565b820191906000526020600020905b81548152906001019060200180831161354b57829003601f168201915b50505050508152602001838152602001600115158152509050600060028d8154811061359657613596614610565b9060005260206000209060040201905073__ItemsLibrary__________________________635cb09bcf8383306040518463ffffffff1660e01b815260040161207193929190614429565b60025460405163123bd07560e11b8152600091839173__Library_______________________________90632477a0ea9061362290859085906004016142ac565b60206040518083038186803b15801561363a57600080fd5b505af415801561364e573d6000803e3d6000fd5b505050506040513d601f19601f820116820180604052508101906136729190613f08565b15156001146136935760405162461bcd60e51b81526004016104ac906143ef565b60405163bc215e8560e01b815260009073__AddressLibrary________________________9063bc215e85906136cd9089906004016140c5565b60206040518083038186803b1580156136e557600080fd5b505af41580156136f9573d6000803e3d6000fd5b505050506040513d601f19601f8201168201806040525081019061371d9190613f25565b905073__ItemsLibrary__________________________6226d766826002888154811061174057611740614610565b828054828255906000526020600020908101928215613799579160200282015b8281111561379957825180516137899184916020909101906137a9565b509160200191906001019061376c565b506137a59291506138bb565b5090565b8280546137b5906145a4565b90600052602060002090601f0160209004810192826137d7576000855561381d565b82601f106137f057805160ff191683800117855561381d565b8280016001018555821561381d579182015b8281111561381d578251825591602001919060010190613802565b506137a59291506138d8565b82805482825590600052602060002090810192821561381d579160200282018281111561381d578251825591602001919060010190613802565b50805461386f906145a4565b6000825580601f1061387f575050565b601f01602090049060005260206000209081019061096191906138d8565b508054600082559060005260206000209081019061096191906138d8565b808211156137a55760006138cf8282613863565b506001016138bb565b5b808211156137a557600081556001016138d9565b600082601f8301126138fe57600080fd5b8135602061391361390e83614517565b6144e7565b80838252828201915082860187848660051b890101111561393357600080fd5b60005b8581101561395b5781356139498161463c565b84529284019290840190600101613936565b5090979650505050505050565b600082601f83011261397957600080fd5b8151602061398961390e83614517565b80838252828201915082860187848660051b89010111156139a957600080fd5b60005b8581101561395b578151845292840192908401906001016139ac565b60008083601f8401126139da57600080fd5b5081356001600160401b038111156139f157600080fd5b602083019150836020828501011115613a0957600080fd5b9250929050565b600082601f830112613a2157600080fd5b8135613a2f61390e8261453a565b818152846020838601011115613a4457600080fd5b816020850160208301376000918101602001919091529392505050565b600082601f830112613a7257600080fd5b8151613a8061390e8261453a565b818152846020838601011115613a9557600080fd5b611d02826020830160208701614578565b600060208284031215613ab857600080fd5b81356110058161463c565b600060208284031215613ad557600080fd5b81516110058161463c565b600080600060608486031215613af557600080fd5b8335613b008161463c565b9250602084013591506040840135613b178161463c565b809150509250925092565b600080600060408486031215613b3757600080fd5b8335613b428161463c565b925060208401356001600160401b03811115613b5d57600080fd5b613b69868287016139c8565b9497909650939450505050565b600080600080600060808688031215613b8e57600080fd5b8535613b998161463c565b945060208601356001600160401b03811115613bb457600080fd5b613bc0888289016139c8565b9699909850959660408101359660609091013595509350505050565b60006020808385031215613bef57600080fd5b82516001600160401b03811115613c0557600080fd5b8301601f81018513613c1657600080fd5b8051613c2461390e82614517565b80828252848201915084840188868560051b8701011115613c4457600080fd5b600094505b83851015613c70578051613c5c8161463c565b835260019490940193918501918501613c49565b50979650505050505050565b600080600060608486031215613c9157600080fd5b83356001600160401b0380821115613ca857600080fd5b613cb4878388016138ed565b9450602086013593506040860135915080821115613cd157600080fd5b50613cde86828701613a10565b9150509250925092565b600080600080600060a08688031215613d0057600080fd5b85356001600160401b0380821115613d1757600080fd5b613d2389838a016138ed565b96506020915081880135955060408801359450606088013581811115613d4857600080fd5b8801601f81018a13613d5957600080fd5b8035613d6761390e82614517565b8082825285820191508584018d878560051b8701011115613d8757600080fd5b60005b84811015613dc1578682351115613da057600080fd5b613daf8f898435890101613a10565b84529287019290870190600101613d8a565b5050809750505050505050608086013590509295509295909350565b600060208284031215613def57600080fd5b81516001600160401b03811115613e0557600080fd5b611d0284828501613968565b60008060408385031215613e2457600080fd5b82516001600160401b0380821115613e3b57600080fd5b613e4786838701613968565b9350602091508185015181811115613e5e57600080fd5b8501601f81018713613e6f57600080fd5b8051613e7d61390e82614517565b8082825285820191508584018a878560051b8701011115613e9d57600080fd5b6000805b85811015613ed857825188811115613eb7578283fd5b613ec58e8b838b0101613a61565b8652509388019391880191600101613ea1565b5050508096505050505050509250929050565b600060208284031215613efd57600080fd5b813561100581614651565b600060208284031215613f1a57600080fd5b815161100581614651565b600060208284031215613f3757600080fd5b5051919050565b60008060008060608587031215613f5457600080fd5b8435935060208501356001600160401b0380821115613f7257600080fd5b818701915087601f830112613f8657600080fd5b813581811115613f9557600080fd5b8860208260051b8501011115613faa57600080fd5b6020830195508094505050506040850135613fc481614651565b939692955090935050565b60008060408385031215613fe257600080fd5b82516001600160401b03811115613ff857600080fd5b61400485828601613a61565b925050602083015161401581614651565b809150509250929050565b600081518084526020808501945080840160005b838110156140595781516001600160a01b031687529582019590820190600101614034565b509495945050505050565b6000815480845260208085019450836000528060002060005b838110156140595781548752958201956001918201910161407d565b600081518084526140b1816020860160208601614578565b601f01601f19169290920160200192915050565b6001600160a01b0391909116815260200190565b6001600160a01b039390931683526020830191909152604082015260600190565b60018060a01b0383168152600060206040818401526000845481600182811c91508083168061412a57607f831692505b85831081141561414857634e487b7160e01b85526022600452602485fd5b60408801839052606088018180156141675760018114614178576141a3565b60ff198616825287820196506141a3565b60008b81526020902060005b8681101561419d57815484820152908501908901614184565b83019750505b50949a9950505050505050505050565b6020815260006110056020830184614020565b6040815260006141d96040830185614020565b6020838203818501528185518084528284019150828160051b85010183880160005b8381101561422957601f19878403018552614217838351614099565b948601949250908501906001016141fb565b50909998505050505050505050565b6020808252825182820181905260009190848201906040850190845b8181101561427057835183529284019291840191600101614254565b50909695505050505050565b9182526001600160a01b0316602082015260400190565b8281526040602082015260006110026040830184614064565b918252602082015260400190565b6040815260006142cd6040830185614099565b905082151560208301529392505050565b6080815260006142f16080830187614099565b9415156020830152506040810192909252606090910152919050565b6020808252600490820152634543313960e01b604082015260600190565b6020808252600490820152634543323760e01b604082015260600190565b60208082526003908201526245433560e81b604082015260600190565b60208082526004908201526308a8664760e31b604082015260600190565b6020808252602e908201527f496e697469616c697a61626c653a20636f6e747261637420697320616c72656160408201526d191e481a5b9a5d1a585b1a5e995960921b606082015260800190565b60208082526003908201526245433960e81b604082015260600190565b60208082526003908201526245433160e81b604082015260600190565b60208082526003908201526222a19b60e91b604082015260600190565b6060815283516060820152600060208086015160c06080850152614451610120850182614099565b9050604087015160a08501526060870151605f19808684030160c08701526144798383614099565b60808a015187820390920160e088015281518082529185019350600092508401905b808310156144bb578351825292840192600192909201919084019061449b565b5060a0890151151561010087015292850187905250506001600160a01b03841660408401529050611d02565b604051601f8201601f191681016001600160401b038111828210171561450f5761450f614626565b604052919050565b60006001600160401b0382111561453057614530614626565b5060051b60200190565b60006001600160401b0382111561455357614553614626565b50601f01601f191660200190565b600082821015614573576145736145fa565b500390565b60005b8381101561459357818101518382015260200161457b565b83811115610a305750506000910152565b600181811c908216806145b857607f821691505b602082108114156145d957634e487b7160e01b600052602260045260246000fd5b50919050565b60006000198214156145f3576145f36145fa565b5060010190565b634e487b7160e01b600052601160045260246000fd5b634e487b7160e01b600052603260045260246000fd5b634e487b7160e01b600052604160045260246000fd5b6001600160a01b038116811461096157600080fd5b801515811461096157600080fdfea26469706673582212205c84af9d42685c12019ecea9645c39551732fefc4fd8b926d91dc16405b7bb0a64736f6c63430008070033",
  "immutableReferences": {},
  "source": "// SPDX-License-Identifier: GPL-3.0\r\n\r\npragma solidity >=0.7.0 <0.9.0;\r\n\r\n/**\r\n * @title Storage\r\n * @dev Store & retrieve value in a variable\r\n */\r\n import \"../Libraries/Library.sol\";\r\n import \"../Interfaces/IProvider.sol\";\r\n import \"../Interfaces/IPool.sol\";\r\n import \"../Abstract/MultiSigContract.sol\";\r\n import \"../Libraries/ItemsLibrary.sol\";\r\n import \"../Libraries/AddressLibrary.sol\";\r\n import \"@openzeppelin/contracts-upgradeable/proxy/utils/Initializable.sol\";\r\n\r\n contract Provider is IProvider, Initializable, MultiSigContract {\r\n    using Library for *;\r\n    using AddressLibrary for *;\r\n    using ItemsLibrary for *;\r\n\r\n    // DATA /////////////////////////////////////////\r\n    uint256 constant _TotalEntities = 2;\r\n\r\n    // Owners\r\n    uint256 constant _ownerIdProviders = 0;\r\n    string constant _ownerLabel = \"Owner\";\r\n\r\n    // Pools\r\n    uint256 constant _poolId = 1;\r\n    string constant _poolLabel = \"Pool\";\r\n\r\n    mapping(address => uint256) private _AddCertificatePricePerPool;\r\n    mapping(address => uint256) private _SubscriptionPricePerPool;\r\n    mapping(address => bool) private _submited;\r\n\r\n\r\n    // Certificates\r\n    uint256 constant _certId = 2;\r\n    string constant _certLabel = \"Certificate\";\r\n\r\n    string[] private _Label;\r\n    \r\n    struct _CertificatesPerHolderStruct{\r\n        mapping(address => ItemsLibrary._ItemsStruct) _CertificatesPerHolder;\r\n    }\r\n   \r\n    mapping(address => _CertificatesPerHolderStruct) private _CertificatesPerPool;\r\n    \r\n    // Provider\r\n    string private _ProviderInfo;\r\n\r\n    // MODIFIERS /////////////////////////////////////////\r\n    modifier isAPool(address pool){\r\n        require(true == isPool(pool));\r\n        _;\r\n    }\r\n\r\n    modifier isCertificateActivated(bool YesOrNo, bytes32 cert, address pool, address holder){\r\n        if(false == YesOrNo) require(false == internalisCertificate(pool, cert, holder), \"EC6\");\r\n        else require(true == internalisCertificate(pool, cert, holder), \"EC7\");\r\n        _;\r\n    }\r\n\r\n    modifier isCertificatePending(bool YesOrNo, bytes32 cert, address pool, address holder){\r\n        if(false == YesOrNo) require(false == isCertificatePendingToAdded(pool, cert, holder) && \r\n                                    false == isCertificatePendingToRemoved(pool, cert, holder), \"EC27\");\r\n        else require(true == isCertificatePendingToAdded(pool, cert, holder) || \r\n                    true == isCertificatePendingToRemoved(pool, cert, holder), \"EC28\");\r\n        _;\r\n    }\r\n\r\n    modifier isCertificatePendingToAdd(bool YesOrNo, bytes32 cert, address pool, address holder){\r\n        if(false == YesOrNo) require(false == isCertificatePendingToAdded(pool, cert, holder), \"EC27\");\r\n        else require(true == isCertificatePendingToAdded(pool, cert, holder), \"EC28\");\r\n        _;\r\n    }\r\n\r\n    modifier isCertificatePendingToRemove(bool YesOrNo, bytes32 cert, address pool, address holder){\r\n        if(false == YesOrNo) require(false == isCertificatePendingToRemoved(pool, cert, holder), \"EC27\");\r\n        else require(true == isCertificatePendingToRemoved(pool, cert, holder), \"EC28\");\r\n        _;\r\n    }\r\n\r\n    modifier HasNotAlreadyVotedForCertificate(bytes32 cert, address pool, address holder){\r\n        require(false == ItemsLibrary.hasVoted(msg.sender, cert, _CertificatesPerPool[pool]._CertificatesPerHolder[holder]), \"EC5\");\r\n        _;\r\n    }\r\n\r\n     // CONSTRUCTOR /////////////////////////////////////////\r\n    function Provider_init(address[] memory owners,  uint256 minOwners, string memory ProviderInfo) public initializer \r\n    {\r\n        _Label = new string[](2);\r\n        _Label[0] = _ownerLabel;\r\n        _Label[1] = _poolLabel;\r\n\r\n        super.MultiSigContract_init(owners, minOwners, _TotalEntities, _Label, _ownerIdProviders); \r\n        _ProviderInfo = ProviderInfo;\r\n    }\r\n\r\n    // FUNCTIONALITY /////////////////////////////////////////\r\n    function addPool(address pool, string calldata poolInfo, uint256 AddCertificatePrice, uint256 SubscriptionPrice) external override{\r\n        addEntity(pool, poolInfo, _poolId);\r\n        if(false == _submited[pool]){\r\n            _AddCertificatePricePerPool[pool] = AddCertificatePrice;\r\n            _SubscriptionPricePerPool[pool] = SubscriptionPrice;\r\n            _submited[pool] = true;\r\n        }\r\n    }\r\n\r\n    function removePool(address pool) external override\r\n    {\r\n       removeEntity(pool, _poolId); \r\n    }\r\n\r\n    function validatePool(address pool) external override\r\n    {\r\n        validateEntity(pool, _poolId);\r\n    }\r\n\r\n    function rejectPool(address pool) external override\r\n    {\r\n        rejectEntity(pool, _poolId);\r\n    }\r\n\r\n    function removePricesForPool(address pool) internal\r\n    {\r\n        delete(_submited[pool]);\r\n        delete(_AddCertificatePricePerPool[pool]);\r\n        delete(_SubscriptionPricePerPool[pool]);\r\n    }\r\n    \r\n    function retrievePool(address pool) external override view returns (string memory, bool, uint256, uint256)\r\n    {\r\n        string memory poolInfo;\r\n        bool isActivated;\r\n\r\n        (poolInfo, isActivated) = InternalRetrievePool(pool);\r\n        return (poolInfo, isActivated, _AddCertificatePricePerPool[pool], _SubscriptionPricePerPool[pool]);\r\n    }\r\n    \r\n    function InternalRetrievePool(address pool) internal view returns (string memory, bool)\r\n    {\r\n        return retrieveEntity(pool, _poolId);\r\n    }\r\n\r\n    function retrieveAllPools() external override view returns (address[] memory)\r\n    {\r\n        return retrieveAllEntities(_poolId);\r\n    }\r\n\r\n    function retrievePendingPools(bool addedORremove) external override view returns (address[] memory, string[] memory)\r\n    {\r\n        return(retrievePendingEntities(addedORremove, _poolId));\r\n    }\r\n\r\n    function isPool(address pool) internal view returns (bool)\r\n    {\r\n        return(isEntity(pool, _poolId));\r\n    }\r\n    // Certificates management\r\n    function extractCertIds(address pool, address holder) internal pure returns(uint[] memory)\r\n    {\r\n        uint[] memory certIdIdArray = new uint[](3);\r\n        certIdIdArray[0] = _certId;\r\n        certIdIdArray[1] = AddressLibrary.AddressToUint(pool);\r\n        certIdIdArray[2] = AddressLibrary.AddressToUint(holder);\r\n\r\n        return(certIdIdArray);\r\n    }\r\n\r\n     function addCertificate(address pool, bytes32 CertificateHash, address holder) external override\r\n        isAPool(pool)\r\n        isAnOwner\r\n        isCertificateActivated(false, CertificateHash, pool, holder) \r\n        isCertificatePendingToAdd(false, CertificateHash, pool, holder)\r\n     {\r\n        _CertificatesPerHolderStruct storage hs = _CertificatesPerPool[pool];\r\n        uint[] memory certIdIdArray = extractCertIds(pool, holder);\r\n        ItemsLibrary._manipulateItemStruct memory manipulateItemStruct = ItemsLibrary._manipulateItemStruct(CertificateHash, \"\", _minOwners, _certLabel, certIdIdArray, false);\r\n        ItemsLibrary._ItemsStruct storage itemsstruct =  hs._CertificatesPerHolder[holder];\r\n        ItemsLibrary.addItem(manipulateItemStruct,itemsstruct, address(this));\r\n     }\r\n\r\n     function validateCertificate(address pool, bytes32 CertificateHash, address holder) external override\r\n        isAPool(pool)\r\n        isAnOwner\r\n        isCertificatePending(true, CertificateHash, pool, holder)\r\n        HasNotAlreadyVotedForCertificate(CertificateHash, pool, holder)\r\n     {\r\n        _CertificatesPerHolderStruct storage hs = _CertificatesPerPool[pool];\r\n        uint[] memory certIdIdArray = extractCertIds(pool, holder);\r\n        ItemsLibrary._manipulateItemStruct memory manipulateItemStruct = ItemsLibrary._manipulateItemStruct(CertificateHash, \"\", _minOwners, _certLabel, certIdIdArray, false);\r\n        ItemsLibrary._ItemsStruct storage itemsstruct =  hs._CertificatesPerHolder[holder];\r\n        ItemsLibrary.validateItem(manipulateItemStruct, itemsstruct, address(this));\r\n     }\r\n\r\n     function rejectCertificate(address pool, bytes32 CertificateHash, address holder) external override\r\n        isAPool(pool)\r\n        isAnOwner\r\n        isCertificatePending(true, CertificateHash, pool, holder)\r\n        HasNotAlreadyVotedForCertificate(CertificateHash, pool, holder)\r\n     {\r\n        _CertificatesPerHolderStruct storage hs = _CertificatesPerPool[pool];\r\n        uint[] memory certIdIdArray = extractCertIds(pool, holder);\r\n        ItemsLibrary._manipulateItemStruct memory manipulateItemStruct = ItemsLibrary._manipulateItemStruct(CertificateHash, \"\", _minOwners, _certLabel, certIdIdArray, false);\r\n        ItemsLibrary._ItemsStruct storage itemsstruct =  hs._CertificatesPerHolder[holder];\r\n        ItemsLibrary.rejectItem(manipulateItemStruct, itemsstruct, address(this));\r\n     }\r\n \r\n    function manipulateCertificate(address pool, bytes32 CertificateHash, address holder) internal\r\n        isAPool(pool)\r\n    {\r\n        IPool poolToSend = IPool(pool);\r\n\r\n        poolToSend.addCertificate{value:_AddCertificatePricePerPool[pool]}(CertificateHash, holder);\r\n\r\n        ItemsLibrary._ItemsStruct storage itemStruct = _CertificatesPerPool[pool]._CertificatesPerHolder[holder];\r\n\r\n        itemStruct._activatedItems = Library.ArrayRemoveResize(Library.FindPosition(CertificateHash, itemStruct._activatedItems), itemStruct._activatedItems);\r\n        delete(itemStruct._items[CertificateHash]);   \r\n    }\r\n\r\n    function isCertificate(address pool, bytes32 CertificateHash, address holder) external override view returns(bool)\r\n    {\r\n        return internalisCertificate(pool, CertificateHash, holder);\r\n    }\r\n\r\n    function internalisCertificate(address pool, bytes32 CertificateHash, address holder) internal view returns(bool)\r\n    {\r\n        IPool poolToCheck = IPool(pool);\r\n        address provider = poolToCheck.retrieveCertificateProvider(CertificateHash, holder);\r\n        if(provider == address(this)) return true;\r\n        return false;\r\n    }\r\n\r\n    function isCertificatePendingToAdded(address pool, bytes32 CertificateHash, address holder) internal view returns(bool)\r\n    {\r\n        return ItemsLibrary.isItemPendingToAdded(CertificateHash, _CertificatesPerPool[pool]._CertificatesPerHolder[holder]);\r\n    }\r\n\r\n    function isCertificatePendingToRemoved(address pool, bytes32 CertificateHash, address holder) internal view returns(bool)\r\n    {\r\n        return ItemsLibrary.isItemPendingToRemoved(CertificateHash, _CertificatesPerPool[pool]._CertificatesPerHolder[holder]);\r\n    }\r\n\r\n    receive() external override payable{}\r\n\r\n    // CALLBACKS /////////////////////////////////////////\r\n    function onItemValidated(bytes32 item, uint256[] calldata ids, bool addOrRemove) public override  \r\n    {\r\n        super.onItemValidated(item, ids, addOrRemove);\r\n\r\n        if(ids[0] == _poolId){\r\n            address pool = AddressLibrary.Bytes32ToAddress(item);\r\n\r\n            if(false == addOrRemove)removePricesForPool(pool);\r\n            else{\r\n                IPool poolToSubscribe = IPool(pool);\r\n                poolToSubscribe.addProvider{value:_SubscriptionPricePerPool[pool]}(address(this), _ProviderInfo);\r\n            }\r\n        }\r\n        else if(ids[0] == _certId){\r\n            manipulateCertificate(AddressLibrary.UintToAddress(ids[1]), item, AddressLibrary.UintToAddress(ids[2]));\r\n        }\r\n    }\r\n\r\n    function onItemRejected(bytes32 item, uint256[] calldata ids, bool addOrRemove) public override  \r\n    {\r\n        super.onItemRejected(item, ids, addOrRemove);\r\n\r\n        if(ids[0] == _poolId){\r\n            address pool = AddressLibrary.Bytes32ToAddress(item);\r\n\r\n            if(true == addOrRemove)removePricesForPool(pool);\r\n        } \r\n    }\r\n    \r\n }",
  "sourcePath": "C:/Users/d-aam/GitHub/Certificates/contracts/DeployedContracts/Provider.sol",
  "compiler": {
    "name": "solc",
    "version": "0.8.7+commit.e28d00a7.Emscripten.clang"
  },
  "schemaVersion": "3.3.4",
  "updatedAt": "2021-08-13T10:22:41.042Z",
  "devdoc": {
    "kind": "dev",
    "methods": {},
    "version": 1
  },
  "userdoc": {
    "kind": "user",
    "methods": {},
    "version": 1
  }
}