{
  "contractName": "ProviderFactory",
  "abi": [
    {
      "anonymous": false,
      "inputs": [
        {
          "indexed": true,
          "internalType": "string",
          "name": "",
          "type": "string"
        },
        {
          "indexed": false,
          "internalType": "uint256",
          "name": "",
          "type": "uint256"
        },
        {
          "indexed": true,
          "internalType": "address",
          "name": "",
          "type": "address"
        },
        {
          "indexed": false,
          "internalType": "address",
          "name": "",
          "type": "address"
        },
        {
          "indexed": true,
          "internalType": "string",
          "name": "",
          "type": "string"
        }
      ],
      "name": "_NewElement",
      "type": "event"
    },
    {
      "inputs": [
        {
          "internalType": "address",
          "name": "managerContractAddress",
          "type": "address"
        }
      ],
      "name": "Factory_init",
      "outputs": [],
      "stateMutability": "nonpayable",
      "type": "function"
    },
    {
      "inputs": [
        {
          "internalType": "uint256",
          "name": "Id",
          "type": "uint256"
        }
      ],
      "name": "retrieve",
      "outputs": [
        {
          "internalType": "address",
          "name": "",
          "type": "address"
        },
        {
          "internalType": "address",
          "name": "",
          "type": "address"
        }
      ],
      "stateMutability": "view",
      "type": "function"
    },
    {
      "inputs": [],
      "name": "retrieveTotal",
      "outputs": [
        {
          "internalType": "uint256",
          "name": "",
          "type": "uint256"
        }
      ],
      "stateMutability": "view",
      "type": "function"
    },
    {
      "inputs": [
        {
          "internalType": "address",
          "name": "managerContractAddress",
          "type": "address"
        }
      ],
      "name": "ProviderFactory_init",
      "outputs": [],
      "stateMutability": "nonpayable",
      "type": "function"
    },
    {
      "inputs": [
        {
          "internalType": "address[]",
          "name": "owners",
          "type": "address[]"
        },
        {
          "internalType": "uint256",
          "name": "minOwners",
          "type": "uint256"
        },
        {
          "internalType": "string",
          "name": "ElementName",
          "type": "string"
        }
      ],
      "name": "create",
      "outputs": [],
      "stateMutability": "payable",
      "type": "function"
    }
  ],
  "bytecode": "0x608060405234801561001057600080fd5b50611543806100206000396000f3fe608060405260043610620000505760003560e01c806358e9a54f14620000555780636f86542a146200007c5780638f88708b14620000a05780639d4260a314620000e6578063fcc09e5b14620000fd575b600080fd5b3480156200006257600080fd5b506200007a62000074366004620007d5565b62000122565b005b3480156200008957600080fd5b506001546040519081526020015b60405180910390f35b348015620000ad57600080fd5b50620000c5620000bf36600462000933565b620001a9565b604080516001600160a01b0393841681529290911660208301520162000097565b6200007a620000f73660046200081c565b620002ee565b3480156200010a57600080fd5b506200007a6200011c366004620007d5565b62000517565b600054610100900460ff16806200013c575060005460ff16155b620001645760405162461bcd60e51b81526004016200015b9062000a5b565b60405180910390fd5b600054610100900460ff1615801562000187576000805461ffff19166101011790555b62000192826200057e565b8015620001a5576000805461ff00191690555b5050565b60015460405163123bd07560e11b81526004810183905260248101829052600091829184919073__Library_______________________________90632477a0ea9060440160206040518083038186803b1580156200020757600080fd5b505af41580156200021c573d6000803e3d6000fd5b505050506040513d601f19601f820116820180604052508101906200024291906200090f565b15156001146200027b5760405162461bcd60e51b815260206004820152600360248201526245433160e81b60448201526064016200015b565b6001858154811062000291576200029162000b35565b6000918252602090912060029091020154600180546001600160a01b039092169187908110620002c557620002c562000b35565b60009182526020909120600160029092020101549094506001600160a01b031692505050915091565b600060029054906101000a90046001600160a01b03166001600160a01b0316635a3794e96040518163ffffffff1660e01b815260040160206040518083038186803b1580156200033d57600080fd5b505afa15801562000352573d6000803e3d6000fd5b505050506040513d601f19601f82011682018060405250810190620003789190620007fc565b6001600160a01b031663f0c9325e3460036040518363ffffffff1660e01b8152600401620003a7919062000a32565b6000604051808303818588803b158015620003c157600080fd5b505af1158015620003d6573d6000803e3d6000fd5b50505050506000838383604051602401620003f493929190620009c7565b60408051808303601f190181529181526020808301805163a44bff2b60e01b6001600160e01b03909116179052600080548351633d6b66b360e21b815293519495509093620100009091046001600160a01b03169263f5ad9acc926004808301939192829003018186803b1580156200046c57600080fd5b505afa15801562000481573d6000803e3d6000fd5b505050506040513d601f19601f82011682018060405250810190620004a79190620007fc565b82604051620004b69062000751565b620004c392919062000999565b604051809103906000f080158015620004e0573d6000803e3d6000fd5b509050620005108160405180604001604052806008815260200167283937bb34b232b960c11b8152508562000612565b5050505050565b600054610100900460ff168062000531575060005460ff16155b620005505760405162461bcd60e51b81526004016200015b9062000a5b565b600054610100900460ff1615801562000573576000805461ffff19166101011790555b620001928262000122565b600054610100900460ff168062000598575060005460ff16155b620005b75760405162461bcd60e51b81526004016200015b9062000a5b565b600054610100900460ff16158015620005da576000805461ffff19166101011790555b6000805462010000600160b01b031916620100006001600160a01b038516021790558015620001a5576000805461ff00191690555050565b6040805180820182523381526001600160a01b0385811660208301908152600180548082018255600091909152835160029091027fb10e2d527612073b26eecdfd717e6a320cf44b4afac2b0732d9fcbe2b7fa0cf6810180549285166001600160a01b031993841617905591517fb10e2d527612073b26eecdfd717e6a320cf44b4afac2b0732d9fcbe2b7fa0cf790920180549290931691161790559051620006bd9083906200097b565b604051809103902081600001516001600160a01b031684604051620006e391906200097b565b604051908190039020600180547f1ca39c7d81f021b1dca105fb858bf2a88540adf1df782672dfd71b5ace6b839a916200071d9162000adc565b8560200151604051620007439291909182526001600160a01b0316602082015260400190565b60405180910390a450505050565b6109938062000b7b83390190565b600082601f8301126200077157600080fd5b81356001600160401b038111156200078d576200078d62000b4b565b620007a2601f8201601f191660200162000aa9565b818152846020838601011115620007b857600080fd5b816020850160208301376000918101602001919091529392505050565b600060208284031215620007e857600080fd5b8135620007f58162000b61565b9392505050565b6000602082840312156200080f57600080fd5b8151620007f58162000b61565b6000806000606084860312156200083257600080fd5b83356001600160401b03808211156200084a57600080fd5b818601915086601f8301126200085f57600080fd5b813560208282111562000876576200087662000b4b565b8160051b6200088782820162000aa9565b8381528281019086840183880185018d1015620008a357600080fd5b600097505b85881015620008d65780359350620008c08462000b61565b83835260019790970196918401918401620008a8565b50985050508701359450506040860135915080821115620008f657600080fd5b5062000905868287016200075f565b9150509250925092565b6000602082840312156200092257600080fd5b81518015158114620007f557600080fd5b6000602082840312156200094657600080fd5b5035919050565b600081518084526200096781602086016020860162000b02565b601f01601f19169290920160200192915050565b600082516200098f81846020870162000b02565b9190910192915050565b6001600160a01b0383168152604060208201819052600090620009bf908301846200094d565b949350505050565b606080825284519082018190526000906020906080840190828801845b8281101562000a0b5781516001600160a01b031684529284019290840190600101620009e4565b5050508582850152838103604085015262000a2781866200094d565b979650505050505050565b602081016004831062000a5557634e487b7160e01b600052602160045260246000fd5b91905290565b6020808252602e908201527f496e697469616c697a61626c653a20636f6e747261637420697320616c72656160408201526d191e481a5b9a5d1a585b1a5e995960921b606082015260800190565b604051601f8201601f191681016001600160401b038111828210171562000ad45762000ad462000b4b565b604052919050565b60008282101562000afd57634e487b7160e01b600052601160045260246000fd5b500390565b60005b8381101562000b1f57818101518382015260200162000b05565b8381111562000b2f576000848401525b50505050565b634e487b7160e01b600052603260045260246000fd5b634e487b7160e01b600052604160045260246000fd5b6001600160a01b038116811462000b7757600080fd5b5056fe608060405260405161099338038061099383398101604081905261002291610470565b61004d60017fa3f0ad74e5423aebfd80d3ef4346578335a9a72aeaee59ff6cb3582b35133d5161057f565b60008051602061094c83398151915214610069576100696105d0565b6100758282600061007c565b50506105fc565b61008583610156565b6040516001600160a01b038416907f1cf3b03a6cf19fa2baba4df148e9dcabedea7f8a5c07840e207e5c089be95d3e90600090a26000825111806100c65750805b156101515761014f836001600160a01b0316635c60da1b6040518163ffffffff1660e01b815260040160206040518083038186803b15801561010757600080fd5b505afa15801561011b573d6000803e3d6000fd5b505050506040513d601f19601f8201168201806040525081019061013f9190610455565b836102f660201b6100291760201c565b505b505050565b6101698161032260201b6100551760201c565b6101c85760405162461bcd60e51b815260206004820152602560248201527f455243313936373a206e657720626561636f6e206973206e6f74206120636f6e6044820152641d1c9858dd60da1b60648201526084015b60405180910390fd5b61024b816001600160a01b0316635c60da1b6040518163ffffffff1660e01b815260040160206040518083038186803b15801561020457600080fd5b505afa158015610218573d6000803e3d6000fd5b505050506040513d601f19601f8201168201806040525081019061023c9190610455565b61032260201b6100551760201c565b6102b05760405162461bcd60e51b815260206004820152603060248201527f455243313936373a20626561636f6e20696d706c656d656e746174696f6e206960448201526f1cc81b9bdd08184818dbdb9d1c9858dd60821b60648201526084016101bf565b806102d560008051602061094c83398151915260001b61032860201b61005b1760201c565b80546001600160a01b0319166001600160a01b039290921691909117905550565b606061031b838360405180606001604052806027815260200161096c6027913961032b565b9392505050565b3b151590565b90565b6060833b61038a5760405162461bcd60e51b815260206004820152602660248201527f416464726573733a2064656c65676174652063616c6c20746f206e6f6e2d636f6044820152651b9d1c9858dd60d21b60648201526084016101bf565b600080856001600160a01b0316856040516103a59190610530565b600060405180830381855af49150503d80600081146103e0576040519150601f19603f3d011682016040523d82523d6000602084013e6103e5565b606091505b5090925090506103f6828286610400565b9695505050505050565b6060831561040f57508161031b565b82511561041f5782518084602001fd5b8160405162461bcd60e51b81526004016101bf919061054c565b80516001600160a01b038116811461045057600080fd5b919050565b60006020828403121561046757600080fd5b61031b82610439565b6000806040838503121561048357600080fd5b61048c83610439565b60208401519092506001600160401b03808211156104a957600080fd5b818501915085601f8301126104bd57600080fd5b8151818111156104cf576104cf6105e6565b604051601f8201601f19908116603f011681019083821181831017156104f7576104f76105e6565b8160405282815288602084870101111561051057600080fd5b6105218360208301602088016105a4565b80955050505050509250929050565b600082516105428184602087016105a4565b9190910192915050565b602081526000825180602084015261056b8160408501602087016105a4565b601f01601f19169190910160400192915050565b60008282101561059f57634e487b7160e01b600052601160045260246000fd5b500390565b60005b838110156105bf5781810151838201526020016105a7565b8381111561014f5750506000910152565b634e487b7160e01b600052600160045260246000fd5b634e487b7160e01b600052604160045260246000fd5b6103418061060b6000396000f3fe60806040523661001357610011610017565b005b6100115b61002761002261005e565b610106565b565b606061004e83836040518060600160405280602781526020016102e56027913961012a565b9392505050565b3b151590565b90565b60006100917fa3f0ad74e5423aebfd80d3ef4346578335a9a72aeaee59ff6cb3582b35133d50546001600160a01b031690565b6001600160a01b0316635c60da1b6040518163ffffffff1660e01b815260040160206040518083038186803b1580156100c957600080fd5b505afa1580156100dd573d6000803e3d6000fd5b505050506040513d601f19601f82011682018060405250810190610101919061023c565b905090565b3660008037600080366000845af43d6000803e808015610125573d6000f35b3d6000fd5b6060833b61018e5760405162461bcd60e51b815260206004820152602660248201527f416464726573733a2064656c65676174652063616c6c20746f206e6f6e2d636f6044820152651b9d1c9858dd60d21b60648201526084015b60405180910390fd5b600080856001600160a01b0316856040516101a99190610265565b600060405180830381855af49150503d80600081146101e4576040519150601f19603f3d011682016040523d82523d6000602084013e6101e9565b606091505b50915091506101f9828286610203565b9695505050505050565b6060831561021257508161004e565b8251156102225782518084602001fd5b8160405162461bcd60e51b81526004016101859190610281565b60006020828403121561024e57600080fd5b81516001600160a01b038116811461004e57600080fd5b600082516102778184602087016102b4565b9190910192915050565b60208152600082518060208401526102a08160408501602087016102b4565b601f01601f19169190910160400192915050565b60005b838110156102cf5781810151838201526020016102b7565b838111156102de576000848401525b5050505056fe416464726573733a206c6f772d6c6576656c2064656c65676174652063616c6c206661696c6564a26469706673582212205a301b79a58b9c7b794a2154a97fd74cef58687f4ed97bdb6951cf25ef73dc7c64736f6c63430008060033a3f0ad74e5423aebfd80d3ef4346578335a9a72aeaee59ff6cb3582b35133d50416464726573733a206c6f772d6c6576656c2064656c65676174652063616c6c206661696c6564a2646970667358221220424ccf08343cf76366295f93062c2c6f033179d3348de30f1ff23f7832ab729c64736f6c63430008060033",
  "immutableReferences": {},
  "source": "// SPDX-License-Identifier: GPL-3.0\r\n\r\npragma solidity >=0.7.0 <0.9.0;\r\n\r\n/**\r\n * @title Storage\r\n * @dev Store & retrieve value in a variable\r\n */\r\n\r\n import \"../Interfaces/ITreasury.sol\";\r\n import \"../Libraries/Library.sol\";\r\n import \"../Abstract/Factory.sol\";\r\n import \"@openzeppelin/contracts/proxy/beacon/BeaconProxy.sol\";\r\n import \"@openzeppelin/contracts-upgradeable/proxy/utils/Initializable.sol\";\r\n\r\ncontract ProviderFactory is Initializable, Factory{\r\n    using Library for *;\r\n    \r\n    // CONSTRUCTOR /////////////////////////////////////////\r\n    function ProviderFactory_init(address managerContractAddress) public initializer {\r\n        super.Factory_init(managerContractAddress);\r\n    }\r\n\r\n    // FUNCTIONALITY /////////////////////////////////////////\r\n    function create(address[] memory owners,  uint256 minOwners, string memory ElementName) external override payable\r\n    {\r\n        ITreasury(_managerContract.retrieveTreasuryProxy()).pay{value:msg.value}(Library.Prices.NewProviderContract);\r\n        bytes memory data = abi.encodeWithSignature(\"Provider_init(address[],uint256,string)\", owners, minOwners, ElementName);\r\n        BeaconProxy providerProxy = new BeaconProxy(_managerContract.retrieveProviderBeacon(), data);\r\n        internalCreate(address(providerProxy), \"Provider\", ElementName);\r\n    }\r\n\r\n\r\n}",
  "sourcePath": "C:/Users/d-aam/GitHub/Certificates/contracts/DeployedContracts/ProviderFactory.sol",
  "compiler": {
    "name": "solc",
    "version": "0.8.6+commit.11564f7e.Emscripten.clang"
  },
  "schemaVersion": "3.3.4",
  "updatedAt": "2021-08-09T14:06:07.864Z",
  "devdoc": {
    "kind": "dev",
    "methods": {},
    "version": 1
  },
  "userdoc": {
    "kind": "user",
    "methods": {},
    "version": 1
  }
}