{
  "contractName": "ProviderFactory",
  "abi": [
    {
      "anonymous": false,
      "inputs": [
        {
          "indexed": false,
          "internalType": "string",
          "name": "Factory",
          "type": "string"
        },
        {
          "indexed": false,
          "internalType": "string",
          "name": "Name",
          "type": "string"
        }
      ],
      "name": "_NewContractName",
      "type": "event"
    },
    {
      "anonymous": false,
      "inputs": [
        {
          "indexed": false,
          "internalType": "string",
          "name": "Factory",
          "type": "string"
        },
        {
          "indexed": false,
          "internalType": "string",
          "name": "Version",
          "type": "string"
        }
      ],
      "name": "_NewContractVersion",
      "type": "event"
    },
    {
      "anonymous": false,
      "inputs": [
        {
          "indexed": false,
          "internalType": "string",
          "name": "Factory",
          "type": "string"
        },
        {
          "indexed": false,
          "internalType": "uint256",
          "name": "Id",
          "type": "uint256"
        },
        {
          "indexed": true,
          "internalType": "address",
          "name": "Creator",
          "type": "address"
        },
        {
          "indexed": false,
          "internalType": "address",
          "name": "Element",
          "type": "address"
        },
        {
          "indexed": false,
          "internalType": "string",
          "name": "Name",
          "type": "string"
        }
      ],
      "name": "_NewElement",
      "type": "event"
    },
    {
      "inputs": [
        {
          "internalType": "string",
          "name": "factoryName",
          "type": "string"
        },
        {
          "internalType": "address",
          "name": "managerContractAddress",
          "type": "address"
        }
      ],
      "name": "Factory_init",
      "outputs": [],
      "stateMutability": "nonpayable",
      "type": "function"
    },
    {
      "inputs": [
        {
          "internalType": "uint256",
          "name": "Id",
          "type": "uint256"
        }
      ],
      "name": "retrieve",
      "outputs": [
        {
          "internalType": "address",
          "name": "",
          "type": "address"
        },
        {
          "internalType": "address",
          "name": "",
          "type": "address"
        }
      ],
      "stateMutability": "view",
      "type": "function",
      "constant": true
    },
    {
      "inputs": [],
      "name": "retrieveConfig",
      "outputs": [
        {
          "internalType": "string",
          "name": "",
          "type": "string"
        },
        {
          "internalType": "string",
          "name": "",
          "type": "string"
        },
        {
          "internalType": "string",
          "name": "",
          "type": "string"
        }
      ],
      "stateMutability": "view",
      "type": "function",
      "constant": true
    },
    {
      "inputs": [],
      "name": "retrieveManagerContract",
      "outputs": [
        {
          "internalType": "address",
          "name": "",
          "type": "address"
        }
      ],
      "stateMutability": "view",
      "type": "function",
      "constant": true
    },
    {
      "inputs": [],
      "name": "retrieveTotal",
      "outputs": [
        {
          "internalType": "uint256",
          "name": "",
          "type": "uint256"
        }
      ],
      "stateMutability": "view",
      "type": "function",
      "constant": true
    },
    {
      "inputs": [
        {
          "internalType": "string",
          "name": "contractName",
          "type": "string"
        }
      ],
      "name": "updateContractName",
      "outputs": [],
      "stateMutability": "nonpayable",
      "type": "function"
    },
    {
      "inputs": [
        {
          "internalType": "string",
          "name": "contractVersion",
          "type": "string"
        }
      ],
      "name": "updateContractVersion",
      "outputs": [],
      "stateMutability": "nonpayable",
      "type": "function"
    },
    {
      "inputs": [
        {
          "internalType": "address",
          "name": "managerContractAddress",
          "type": "address"
        }
      ],
      "name": "ProviderFactory_init",
      "outputs": [],
      "stateMutability": "nonpayable",
      "type": "function"
    },
    {
      "inputs": [
        {
          "internalType": "address[]",
          "name": "owners",
          "type": "address[]"
        },
        {
          "internalType": "uint256",
          "name": "minOwners",
          "type": "uint256"
        },
        {
          "internalType": "string",
          "name": "ElementName",
          "type": "string"
        },
        {
          "internalType": "bytes32",
          "name": "ENSLabel",
          "type": "bytes32"
        }
      ],
      "name": "create",
      "outputs": [],
      "stateMutability": "payable",
      "type": "function",
      "payable": true
    }
  ],
  "bytecode": "0x608060405234801561001057600080fd5b50611cfb806100206000396000f3fe608060405260043610620000805760003560e01c80631dd5862c146200008557806327a0ed1614620000ac5780634612ea0b14620000c35780635b362e8414620000e85780636f86542a14620001255780638f88708b14620001455780639d8c56c6146200017a578063ce50ac7614620001a3578063fcc09e5b14620001c8575b600080fd5b3480156200009257600080fd5b50620000aa620000a436600462000ed2565b620001ed565b005b620000aa620000bd36600462000dd7565b620002c4565b348015620000d057600080fd5b50620000aa620000e236600462000f12565b6200048f565b348015620000f557600080fd5b506000546201000090046001600160a01b03166040516001600160a01b0390911681526020015b60405180910390f35b3480156200013257600080fd5b506004546040519081526020016200011c565b3480156200015257600080fd5b506200016a6200016436600462000f69565b6200056f565b6040516200011c9291906200107b565b3480156200018757600080fd5b506200019262000658565b6040516200011c939291906200114f565b348015620001b057600080fd5b50620000aa620001c236600462000ed2565b6200082a565b348015620001d557600080fd5b50620000aa620001e736600462000d90565b620008f5565b6000546040516337ea306360e01b8152339173__Library_______________________________916337ea3063916200023b9185916201000090046001600160a01b0316906004016200107b565b60006040518083038186803b1580156200025457600080fd5b505af415801562000269573d6000803e3d6000fd5b5050835162000282925060039150602085019062000c66565b507f85825cad4af8c1dad9ad1a76eae95f95b6b46edc35d47b11259bca5daa7713ce60016003604051620002b892919062001198565b60405180910390a15050565b600060029054906101000a90046001600160a01b03166001600160a01b0316635a3794e96040518163ffffffff1660e01b815260040160206040518083038186803b1580156200031357600080fd5b505afa15801562000328573d6000803e3d6000fd5b505050506040513d601f19601f820116820180604052508101906200034e919062000db7565b6001600160a01b031663f0c9325e3460036040518363ffffffff1660e01b81526004016200037d919062001126565b6000604051808303818588803b1580156200039757600080fd5b505af1158015620003ac573d6000803e3d6000fd5b50505050506000848484604051602401620003ca93929190620010bb565b60408051808303601f190181529181526020808301805163a44bff2b60e01b6001600160e01b039091161790526000548251633d6b66b360e21b815292519394506200048893620100009091046001600160a01b03169263f5ad9acc926004808301939192829003018186803b1580156200044457600080fd5b505afa15801562000459573d6000803e3d6000fd5b505050506040513d601f19601f820116820180604052508101906200047f919062000db7565b82858562000994565b5050505050565b600054610100900460ff1680620004a9575060005460ff16155b620004d15760405162461bcd60e51b8152600401620004c89062001209565b60405180910390fd5b600054610100900460ff16158015620004f4576000805461ffff19166101011790555b620004ff8262000bd2565b82516200051490600190602086019062000c66565b50604080516020810191829052600090819052620005359160029162000c66565b50604080516020810191829052600090819052620005569160039162000c66565b5080156200056a576000805461ff00191690555b505050565b6004805460405163123bd07560e11b8152918201839052602482018190526000918291849173__Library_______________________________90632477a0ea9060440160006040518083038186803b158015620005cc57600080fd5b505af4158015620005e1573d6000803e3d6000fd5b5050505060048581548110620005fb57620005fb620012ed565b6000918252602090912060029091020154600480546001600160a01b0390921691879081106200062f576200062f620012ed565b60009182526020909120600160029092020101549094506001600160a01b031692505050915091565b60608060606001600260038280546200067190620012b0565b80601f01602080910402602001604051908101604052809291908181526020018280546200069f90620012b0565b8015620006f05780601f10620006c457610100808354040283529160200191620006f0565b820191906000526020600020905b815481529060010190602001808311620006d257829003601f168201915b505050505092508180546200070590620012b0565b80601f01602080910402602001604051908101604052809291908181526020018280546200073390620012b0565b8015620007845780601f10620007585761010080835404028352916020019162000784565b820191906000526020600020905b8154815290600101906020018083116200076657829003601f168201915b505050505091508080546200079990620012b0565b80601f0160208091040260200160405190810160405280929190818152602001828054620007c790620012b0565b8015620008185780601f10620007ec5761010080835404028352916020019162000818565b820191906000526020600020905b815481529060010190602001808311620007fa57829003601f168201915b50505050509050925092509250909192565b6000546040516337ea306360e01b8152339173__Library_______________________________916337ea306391620008789185916201000090046001600160a01b0316906004016200107b565b60006040518083038186803b1580156200089157600080fd5b505af4158015620008a6573d6000803e3d6000fd5b50508351620008bf925060029150602085019062000c66565b507fca713f964ba9fd248b552b210e1ec6035169f38c143b0500c211f277f1ad454360016002604051620002b892919062001198565b600054610100900460ff16806200090f575060005460ff16155b6200092e5760405162461bcd60e51b8152600401620004c89062001209565b600054610100900460ff1615801562000951576000805461ffff19166101011790555b6200097d60405180604001604052806008815260200167283937bb34b232b960c11b815250836200048f565b801562000990576000805461ff00191690555b5050565b60008484604051620009a69062000cf5565b620009b392919062001095565b604051809103906000f080158015620009d0573d6000803e3d6000fd5b50604080518082019091523381526001600160a01b038083166020830190815260048054600181018255600091909152835160029091027f8a35acfbc15ff81a39ae7d344fd709f28e8600b4aa8c65c6b64bfe7fe36bd19b810180549285166001600160a01b031993841617905591517f8a35acfbc15ff81a39ae7d344fd709f28e8600b4aa8c65c6b64bfe7fe36bd19c9092018054929093169116179055909150821562000b6657600060029054906101000a90046001600160a01b03166001600160a01b0316637634af786040518163ffffffff1660e01b815260040160206040518083038186803b15801562000ac857600080fd5b505afa15801562000add573d6000803e3d6000fd5b505050506040513d601f19601f8201168201806040525081019062000b03919062000db7565b6001600160a01b0316637746a5dc846040518263ffffffff1660e01b815260040162000b3191815260200190565b600060405180830381600087803b15801562000b4c57600080fd5b505af115801562000b61573d6000803e3d6000fd5b505050505b80600001516001600160a01b03167f1ca39c7d81f021b1dca105fb858bf2a88540adf1df782672dfd71b5ace6b839a60018060048054905062000baa91906200128a565b84602001518860405162000bc29493929190620011ca565b60405180910390a2505050505050565b600054610100900460ff168062000bec575060005460ff16155b62000c0b5760405162461bcd60e51b8152600401620004c89062001209565b600054610100900460ff1615801562000c2e576000805461ffff19166101011790555b6000805462010000600160b01b031916620100006001600160a01b03851602179055801562000990576000805461ff00191690555050565b82805462000c7490620012b0565b90600052602060002090601f01602090048101928262000c98576000855562000ce3565b82601f1062000cb357805160ff191683800117855562000ce3565b8280016001018555821562000ce3579182015b8281111562000ce357825182559160200191906001019062000cc6565b5062000cf192915062000d03565b5090565b610993806200133383390190565b5b8082111562000cf1576000815560010162000d04565b600082601f83011262000d2c57600080fd5b81356001600160401b0381111562000d485762000d4862001303565b62000d5d601f8201601f191660200162001257565b81815284602083860101111562000d7357600080fd5b816020850160208301376000918101602001919091529392505050565b60006020828403121562000da357600080fd5b813562000db08162001319565b9392505050565b60006020828403121562000dca57600080fd5b815162000db08162001319565b6000806000806080858703121562000dee57600080fd5b84356001600160401b038082111562000e0657600080fd5b818701915087601f83011262000e1b57600080fd5b813560208282111562000e325762000e3262001303565b8160051b62000e4382820162001257565b8381528281019086840183880185018e101562000e5f57600080fd5b600097505b8588101562000e92578035935062000e7c8462001319565b8383526001979097019691840191840162000e64565b5099505050880135955050604087013591508082111562000eb257600080fd5b5062000ec18782880162000d1a565b949793965093946060013593505050565b60006020828403121562000ee557600080fd5b81356001600160401b0381111562000efc57600080fd5b62000f0a8482850162000d1a565b949350505050565b6000806040838503121562000f2657600080fd5b82356001600160401b0381111562000f3d57600080fd5b62000f4b8582860162000d1a565b925050602083013562000f5e8162001319565b809150509250929050565b60006020828403121562000f7c57600080fd5b5035919050565b6000815180845260005b8181101562000fab5760208185018101518683018201520162000f8d565b8181111562000fbe576000602083870101525b50601f01601f19169290920160200192915050565b8054600090600181811c908083168062000fee57607f831692505b60208084108214156200101157634e487b7160e01b600052602260045260246000fd5b838852602088018280156200102f576001811462001041576200106e565b60ff198716825282820197506200106e565b60008981526020902060005b8781101562001068578154848201529086019084016200104d565b83019850505b5050505050505092915050565b6001600160a01b0392831681529116602082015260400190565b6001600160a01b038316815260406020820181905260009062000f0a9083018462000f83565b606080825284519082018190526000906020906080840190828801845b82811015620010ff5781516001600160a01b031684529284019290840190600101620010d8565b505050858285015283810360408501526200111b818662000f83565b979650505050505050565b60208101600483106200114957634e487b7160e01b600052602160045260246000fd5b91905290565b60608152600062001164606083018662000f83565b828103602084015262001178818662000f83565b905082810360408401526200118e818562000f83565b9695505050505050565b604081526000620011ad604083018562000fd3565b8281036020840152620011c1818562000fd3565b95945050505050565b608081526000620011df608083018762000fd3565b602083018690526001600160a01b038516604084015282810360608401526200111b818562000f83565b6020808252602e908201527f496e697469616c697a61626c653a20636f6e747261637420697320616c72656160408201526d191e481a5b9a5d1a585b1a5e995960921b606082015260800190565b604051601f8201601f191681016001600160401b038111828210171562001282576200128262001303565b604052919050565b600082821015620012ab57634e487b7160e01b600052601160045260246000fd5b500390565b600181811c90821680620012c557607f821691505b60208210811415620012e757634e487b7160e01b600052602260045260246000fd5b50919050565b634e487b7160e01b600052603260045260246000fd5b634e487b7160e01b600052604160045260246000fd5b6001600160a01b03811681146200132f57600080fd5b5056fe608060405260405161099338038061099383398101604081905261002291610470565b61004d60017fa3f0ad74e5423aebfd80d3ef4346578335a9a72aeaee59ff6cb3582b35133d5161057f565b60008051602061094c83398151915214610069576100696105d0565b6100758282600061007c565b50506105fc565b61008583610156565b6040516001600160a01b038416907f1cf3b03a6cf19fa2baba4df148e9dcabedea7f8a5c07840e207e5c089be95d3e90600090a26000825111806100c65750805b156101515761014f836001600160a01b0316635c60da1b6040518163ffffffff1660e01b815260040160206040518083038186803b15801561010757600080fd5b505afa15801561011b573d6000803e3d6000fd5b505050506040513d601f19601f8201168201806040525081019061013f9190610455565b836102f660201b6100291760201c565b505b505050565b6101698161032260201b6100551760201c565b6101c85760405162461bcd60e51b815260206004820152602560248201527f455243313936373a206e657720626561636f6e206973206e6f74206120636f6e6044820152641d1c9858dd60da1b60648201526084015b60405180910390fd5b61024b816001600160a01b0316635c60da1b6040518163ffffffff1660e01b815260040160206040518083038186803b15801561020457600080fd5b505afa158015610218573d6000803e3d6000fd5b505050506040513d601f19601f8201168201806040525081019061023c9190610455565b61032260201b6100551760201c565b6102b05760405162461bcd60e51b815260206004820152603060248201527f455243313936373a20626561636f6e20696d706c656d656e746174696f6e206960448201526f1cc81b9bdd08184818dbdb9d1c9858dd60821b60648201526084016101bf565b806102d560008051602061094c83398151915260001b61032860201b61005b1760201c565b80546001600160a01b0319166001600160a01b039290921691909117905550565b606061031b838360405180606001604052806027815260200161096c6027913961032b565b9392505050565b3b151590565b90565b6060833b61038a5760405162461bcd60e51b815260206004820152602660248201527f416464726573733a2064656c65676174652063616c6c20746f206e6f6e2d636f6044820152651b9d1c9858dd60d21b60648201526084016101bf565b600080856001600160a01b0316856040516103a59190610530565b600060405180830381855af49150503d80600081146103e0576040519150601f19603f3d011682016040523d82523d6000602084013e6103e5565b606091505b5090925090506103f6828286610400565b9695505050505050565b6060831561040f57508161031b565b82511561041f5782518084602001fd5b8160405162461bcd60e51b81526004016101bf919061054c565b80516001600160a01b038116811461045057600080fd5b919050565b60006020828403121561046757600080fd5b61031b82610439565b6000806040838503121561048357600080fd5b61048c83610439565b60208401519092506001600160401b03808211156104a957600080fd5b818501915085601f8301126104bd57600080fd5b8151818111156104cf576104cf6105e6565b604051601f8201601f19908116603f011681019083821181831017156104f7576104f76105e6565b8160405282815288602084870101111561051057600080fd5b6105218360208301602088016105a4565b80955050505050509250929050565b600082516105428184602087016105a4565b9190910192915050565b602081526000825180602084015261056b8160408501602087016105a4565b601f01601f19169190910160400192915050565b60008282101561059f57634e487b7160e01b600052601160045260246000fd5b500390565b60005b838110156105bf5781810151838201526020016105a7565b8381111561014f5750506000910152565b634e487b7160e01b600052600160045260246000fd5b634e487b7160e01b600052604160045260246000fd5b6103418061060b6000396000f3fe60806040523661001357610011610017565b005b6100115b61002761002261005e565b610106565b565b606061004e83836040518060600160405280602781526020016102e56027913961012a565b9392505050565b3b151590565b90565b60006100917fa3f0ad74e5423aebfd80d3ef4346578335a9a72aeaee59ff6cb3582b35133d50546001600160a01b031690565b6001600160a01b0316635c60da1b6040518163ffffffff1660e01b815260040160206040518083038186803b1580156100c957600080fd5b505afa1580156100dd573d6000803e3d6000fd5b505050506040513d601f19601f82011682018060405250810190610101919061023c565b905090565b3660008037600080366000845af43d6000803e808015610125573d6000f35b3d6000fd5b6060833b61018e5760405162461bcd60e51b815260206004820152602660248201527f416464726573733a2064656c65676174652063616c6c20746f206e6f6e2d636f6044820152651b9d1c9858dd60d21b60648201526084015b60405180910390fd5b600080856001600160a01b0316856040516101a99190610265565b600060405180830381855af49150503d80600081146101e4576040519150601f19603f3d011682016040523d82523d6000602084013e6101e9565b606091505b50915091506101f9828286610203565b9695505050505050565b6060831561021257508161004e565b8251156102225782518084602001fd5b8160405162461bcd60e51b81526004016101859190610281565b60006020828403121561024e57600080fd5b81516001600160a01b038116811461004e57600080fd5b600082516102778184602087016102b4565b9190910192915050565b60208152600082518060208401526102a08160408501602087016102b4565b601f01601f19169190910160400192915050565b60005b838110156102cf5781810151838201526020016102b7565b838111156102de576000848401525b5050505056fe416464726573733a206c6f772d6c6576656c2064656c65676174652063616c6c206661696c6564a2646970667358221220d403ceeafd1a8a95bac5042ee17868655bf495ec1518e7fe81eb94935c79e11764736f6c63430008070033a3f0ad74e5423aebfd80d3ef4346578335a9a72aeaee59ff6cb3582b35133d50416464726573733a206c6f772d6c6576656c2064656c65676174652063616c6c206661696c6564a26469706673582212206dd3c6e0944d6ae9292c50a9dc5d7f309774f853da3ce610021e61a15e84d2e864736f6c63430008070033",
  "immutableReferences": {},
  "source": "// SPDX-License-Identifier: GPL-3.0\r\n\r\npragma solidity 0.8.7;\r\n\r\n/*\r\n  Provider Factory inherits from Factory.\r\n  Before creating a new Element a payment is made to Treasury.\r\n  Provider Elements are Beacon Proxy, the Beacon implementation address is stored in Manager contract.\r\n */\r\n\r\n import \"../Interfaces/ITreasury.sol\";\r\n import \"../Abstract/Factory.sol\";\r\n\r\ncontract ProviderFactory is Factory{\r\n    \r\n    // CONSTRUCTOR /////////////////////////////////////////\r\n    function ProviderFactory_init(address managerContractAddress) public initializer {\r\n        super.Factory_init(\"Provider\", managerContractAddress);\r\n    }\r\n\r\n    // FUNCTIONALITY /////////////////////////////////////////\r\n    function create(address[] memory owners,  uint256 minOwners, string memory ElementName, bytes32 ENSLabel) external override payable\r\n    {\r\n        ITreasury(_managerContract.retrieveTreasuryProxy()).pay{value:msg.value}(Library.Prices.NewProviderContract);\r\n        bytes memory data = abi.encodeWithSignature(\"Provider_init(address[],uint256,string)\", owners, minOwners, ElementName);\r\n        internalCreate(_managerContract.retrieveProviderBeacon(), data, ElementName, ENSLabel);\r\n    }\r\n\r\n\r\n}",
  "sourcePath": "C:/Users/d-aam/GitHub/Certificates/contracts/DeployedContracts/ProviderFactory.sol",
  "compiler": {
    "name": "solc",
    "version": "0.8.7+commit.e28d00a7.Emscripten.clang"
  },
  "schemaVersion": "3.3.4",
  "updatedAt": "2021-10-28T13:11:37.965Z",
  "networkType": "ethereum",
  "devdoc": {
    "kind": "dev",
    "methods": {},
    "version": 1
  },
  "userdoc": {
    "kind": "user",
    "methods": {},
    "version": 1
  }
}