{
  "contractName": "Provider",
  "abi": [
    {
      "inputs": [
        {
          "internalType": "address[]",
          "name": "owners",
          "type": "address[]"
        },
        {
          "internalType": "uint256",
          "name": "minOwners",
          "type": "uint256"
        },
        {
          "internalType": "string",
          "name": "ProviderInfo",
          "type": "string"
        }
      ],
      "stateMutability": "payable",
      "type": "constructor"
    },
    {
      "anonymous": false,
      "inputs": [
        {
          "indexed": true,
          "internalType": "string",
          "name": "",
          "type": "string"
        },
        {
          "indexed": true,
          "internalType": "address",
          "name": "",
          "type": "address"
        },
        {
          "indexed": true,
          "internalType": "string",
          "name": "",
          "type": "string"
        }
      ],
      "name": "_AddEntityRejectionIdEvent",
      "type": "event"
    },
    {
      "anonymous": false,
      "inputs": [
        {
          "indexed": true,
          "internalType": "string",
          "name": "",
          "type": "string"
        },
        {
          "indexed": true,
          "internalType": "address",
          "name": "",
          "type": "address"
        },
        {
          "indexed": true,
          "internalType": "string",
          "name": "",
          "type": "string"
        }
      ],
      "name": "_AddEntityValidationIdEvent",
      "type": "event"
    },
    {
      "anonymous": false,
      "inputs": [
        {
          "indexed": true,
          "internalType": "string",
          "name": "",
          "type": "string"
        },
        {
          "indexed": true,
          "internalType": "address",
          "name": "",
          "type": "address"
        },
        {
          "indexed": true,
          "internalType": "string",
          "name": "",
          "type": "string"
        }
      ],
      "name": "_RemoveEntityRejectionIdEvent",
      "type": "event"
    },
    {
      "anonymous": false,
      "inputs": [
        {
          "indexed": true,
          "internalType": "string",
          "name": "",
          "type": "string"
        },
        {
          "indexed": true,
          "internalType": "address",
          "name": "",
          "type": "address"
        },
        {
          "indexed": true,
          "internalType": "string",
          "name": "",
          "type": "string"
        }
      ],
      "name": "_RemoveEntityValidationIdEvent",
      "type": "event"
    },
    {
      "inputs": [
        {
          "internalType": "address",
          "name": "owner",
          "type": "address"
        },
        {
          "internalType": "string",
          "name": "ownerInfo",
          "type": "string"
        }
      ],
      "name": "addOwner",
      "outputs": [],
      "stateMutability": "nonpayable",
      "type": "function"
    },
    {
      "inputs": [
        {
          "internalType": "address",
          "name": "owner",
          "type": "address"
        }
      ],
      "name": "isOwner",
      "outputs": [
        {
          "internalType": "bool",
          "name": "",
          "type": "bool"
        }
      ],
      "stateMutability": "view",
      "type": "function"
    },
    {
      "inputs": [
        {
          "internalType": "address",
          "name": "owner",
          "type": "address"
        }
      ],
      "name": "rejectOwner",
      "outputs": [],
      "stateMutability": "nonpayable",
      "type": "function"
    },
    {
      "inputs": [
        {
          "internalType": "address",
          "name": "owner",
          "type": "address"
        }
      ],
      "name": "removeOwner",
      "outputs": [],
      "stateMutability": "nonpayable",
      "type": "function"
    },
    {
      "inputs": [],
      "name": "retrieveAllOwners",
      "outputs": [
        {
          "internalType": "address[]",
          "name": "",
          "type": "address[]"
        }
      ],
      "stateMutability": "view",
      "type": "function"
    },
    {
      "inputs": [],
      "name": "retrieveMinOwners",
      "outputs": [
        {
          "internalType": "uint256",
          "name": "",
          "type": "uint256"
        }
      ],
      "stateMutability": "view",
      "type": "function"
    },
    {
      "inputs": [
        {
          "internalType": "address",
          "name": "owner",
          "type": "address"
        }
      ],
      "name": "retrieveOwner",
      "outputs": [
        {
          "internalType": "string",
          "name": "",
          "type": "string"
        },
        {
          "internalType": "bool",
          "name": "",
          "type": "bool"
        }
      ],
      "stateMutability": "view",
      "type": "function"
    },
    {
      "inputs": [
        {
          "internalType": "bool",
          "name": "addedORremove",
          "type": "bool"
        }
      ],
      "name": "retrievePendingOwners",
      "outputs": [
        {
          "internalType": "address[]",
          "name": "",
          "type": "address[]"
        },
        {
          "internalType": "string[]",
          "name": "",
          "type": "string[]"
        }
      ],
      "stateMutability": "view",
      "type": "function"
    },
    {
      "inputs": [
        {
          "internalType": "address",
          "name": "owner",
          "type": "address"
        }
      ],
      "name": "validateOwner",
      "outputs": [],
      "stateMutability": "nonpayable",
      "type": "function"
    },
    {
      "stateMutability": "payable",
      "type": "receive"
    },
    {
      "inputs": [
        {
          "internalType": "address",
          "name": "pool",
          "type": "address"
        },
        {
          "internalType": "string",
          "name": "poolInfo",
          "type": "string"
        },
        {
          "internalType": "uint256",
          "name": "AddCertificatePrice",
          "type": "uint256"
        },
        {
          "internalType": "uint256",
          "name": "SubscriptionPrice",
          "type": "uint256"
        }
      ],
      "name": "subscribeToPublicPool",
      "outputs": [],
      "stateMutability": "nonpayable",
      "type": "function"
    },
    {
      "inputs": [
        {
          "internalType": "address",
          "name": "pool",
          "type": "address"
        },
        {
          "internalType": "string",
          "name": "poolInfo",
          "type": "string"
        },
        {
          "internalType": "uint256",
          "name": "AddCertificatePrice",
          "type": "uint256"
        }
      ],
      "name": "addPool",
      "outputs": [],
      "stateMutability": "nonpayable",
      "type": "function"
    },
    {
      "inputs": [
        {
          "internalType": "address",
          "name": "pool",
          "type": "address"
        }
      ],
      "name": "removePool",
      "outputs": [],
      "stateMutability": "nonpayable",
      "type": "function"
    },
    {
      "inputs": [
        {
          "internalType": "address",
          "name": "pool",
          "type": "address"
        }
      ],
      "name": "validatePool",
      "outputs": [],
      "stateMutability": "nonpayable",
      "type": "function"
    },
    {
      "inputs": [
        {
          "internalType": "address",
          "name": "pool",
          "type": "address"
        }
      ],
      "name": "rejectPool",
      "outputs": [],
      "stateMutability": "nonpayable",
      "type": "function"
    },
    {
      "inputs": [
        {
          "internalType": "bytes32",
          "name": "item",
          "type": "bytes32"
        },
        {
          "internalType": "uint256",
          "name": "id",
          "type": "uint256"
        },
        {
          "internalType": "bool",
          "name": "addOrRemove",
          "type": "bool"
        }
      ],
      "name": "onItemValidated",
      "outputs": [],
      "stateMutability": "nonpayable",
      "type": "function"
    },
    {
      "inputs": [
        {
          "internalType": "bytes32",
          "name": "item",
          "type": "bytes32"
        },
        {
          "internalType": "uint256",
          "name": "id",
          "type": "uint256"
        },
        {
          "internalType": "bool",
          "name": "addOrRemove",
          "type": "bool"
        }
      ],
      "name": "onItemRejected",
      "outputs": [],
      "stateMutability": "nonpayable",
      "type": "function"
    },
    {
      "inputs": [
        {
          "internalType": "address",
          "name": "pool",
          "type": "address"
        }
      ],
      "name": "retrievePool",
      "outputs": [
        {
          "internalType": "string",
          "name": "",
          "type": "string"
        },
        {
          "internalType": "bool",
          "name": "",
          "type": "bool"
        },
        {
          "internalType": "uint256",
          "name": "",
          "type": "uint256"
        }
      ],
      "stateMutability": "view",
      "type": "function"
    },
    {
      "inputs": [],
      "name": "retrieveAllPools",
      "outputs": [
        {
          "internalType": "address[]",
          "name": "",
          "type": "address[]"
        }
      ],
      "stateMutability": "view",
      "type": "function"
    },
    {
      "inputs": [
        {
          "internalType": "address",
          "name": "pool",
          "type": "address"
        }
      ],
      "name": "isPool",
      "outputs": [
        {
          "internalType": "bool",
          "name": "",
          "type": "bool"
        }
      ],
      "stateMutability": "view",
      "type": "function"
    },
    {
      "inputs": [
        {
          "internalType": "address",
          "name": "pool",
          "type": "address"
        },
        {
          "internalType": "bytes32",
          "name": "CertificateHash",
          "type": "bytes32"
        },
        {
          "internalType": "address",
          "name": "holder",
          "type": "address"
        }
      ],
      "name": "addCertificate",
      "outputs": [],
      "stateMutability": "nonpayable",
      "type": "function"
    },
    {
      "inputs": [
        {
          "internalType": "address",
          "name": "pool",
          "type": "address"
        },
        {
          "internalType": "bytes32",
          "name": "CertificateHash",
          "type": "bytes32"
        },
        {
          "internalType": "address",
          "name": "holder",
          "type": "address"
        }
      ],
      "name": "removeCertificate",
      "outputs": [],
      "stateMutability": "nonpayable",
      "type": "function"
    },
    {
      "inputs": [
        {
          "internalType": "address",
          "name": "pool",
          "type": "address"
        },
        {
          "internalType": "bytes32",
          "name": "CertificateHash",
          "type": "bytes32"
        },
        {
          "internalType": "address",
          "name": "holder",
          "type": "address"
        }
      ],
      "name": "validateCertificate",
      "outputs": [],
      "stateMutability": "nonpayable",
      "type": "function"
    },
    {
      "inputs": [
        {
          "internalType": "address",
          "name": "pool",
          "type": "address"
        },
        {
          "internalType": "bytes32",
          "name": "CertificateHash",
          "type": "bytes32"
        },
        {
          "internalType": "address",
          "name": "holder",
          "type": "address"
        }
      ],
      "name": "rejectCertificate",
      "outputs": [],
      "stateMutability": "nonpayable",
      "type": "function"
    },
    {
      "inputs": [
        {
          "internalType": "address",
          "name": "pool",
          "type": "address"
        },
        {
          "internalType": "bytes32",
          "name": "CertificateHash",
          "type": "bytes32"
        },
        {
          "internalType": "address",
          "name": "holder",
          "type": "address"
        }
      ],
      "name": "isCertificate",
      "outputs": [
        {
          "internalType": "bool",
          "name": "",
          "type": "bool"
        }
      ],
      "stateMutability": "view",
      "type": "function"
    }
  ],
  "bytecode": "0x600560c09081526427bbb732b960d91b60e0526080908152610140604052600461010081815263141bdbdb60e21b6101205260a052620000419160026200040a565b506040516200455d3803806200455d833981016040819052620000649162000608565b828260026004805480602002602001604051908101604052809291908181526020016000905b8282101562000140578382906000526020600020018054620000ac9062000756565b80601f0160208091040260200160405190810160405280929190818152602001828054620000da9062000756565b80156200012b5780601f10620000ff576101008083540402835291602001916200012b565b820191906000526020600020905b8154815290600101906020018083116200010d57829003601f168201915b5050505050815260200190600101906200008a565b50505050600084518411156200018b5760405162461bcd60e51b8152600401620001829060208082526004908201526322a1989b60e11b604082015260600190565b60405180910390fd5b60008411620001c65760405162461bcd60e51b815260040162000182906020808252600490820152634543313760e01b604082015260600190565b81518314620002015760405162461bcd60e51b8152600401620001829060208082526004908201526308a8662760e31b604082015260600190565b60008181555b8381101562000280576002805460010181556000528251600390849083908110620002365762000236620007bd565b602090810291909101810151825460018101845560009384529282902081516200026a94919091019291909101906200046e565b5080620002778162000793565b91505062000207565b50600184905560005b8551811015620003e457600073__AddressLibrary________________________634d84c524888481518110620002c457620002c4620007bd565b60200260200101516040518263ffffffff1660e01b8152600401620002f891906001600160a01b0391909116815260200190565b60206040518083038186803b1580156200031157600080fd5b505af415801562000326573d6000803e3d6000fd5b505050506040513d601f19601f820116820180604052508101906200034c919062000709565b90506001600260005481548110620003685762000368620007bd565b60009182526020808320858452600492909202909101905260408120805460ff19169215159290921790915554600280549091908110620003ad57620003ad620007bd565b6000918252602080832060016004909302018201805492830181558352909120015580620003db8162000793565b91505062000289565b505084516200040094506006935060208601925090506200046e565b50505050620007e9565b8280548282559060005260206000209081019282156200045c579160200282015b828111156200045c57825180516200044b9184916020909101906200046e565b50916020019190600101906200042b565b506200046a929150620004f9565b5090565b8280546200047c9062000756565b90600052602060002090601f016020900481019282620004a05760008555620004eb565b82601f10620004bb57805160ff1916838001178555620004eb565b82800160010185558215620004eb579182015b82811115620004eb578251825591602001919060010190620004ce565b506200046a9291506200051a565b808211156200046a57600062000510828262000531565b50600101620004f9565b5b808211156200046a57600081556001016200051b565b5080546200053f9062000756565b6000825580601f1062000550575050565b601f0160209004906000526020600020908101906200057091906200051a565b50565b600082601f8301126200058557600080fd5b81516001600160401b03811115620005a157620005a1620007d3565b6020620005b7601f8301601f1916820162000723565b8281528582848701011115620005cc57600080fd5b60005b83811015620005ec578581018301518282018401528201620005cf565b83811115620005fe5760008385840101525b5095945050505050565b6000806000606084860312156200061e57600080fd5b83516001600160401b03808211156200063657600080fd5b818601915086601f8301126200064b57600080fd5b8151602082821115620006625762000662620007d3565b8160051b6200067382820162000723565b8381528281019086840183880185018d10156200068f57600080fd5b600097505b85881015620006cd57805193506001600160a01b0384168414620006b757600080fd5b8383526001979097019691840191840162000694565b50928a015160408b0151939950975091945050505080821115620006f057600080fd5b50620006ff8682870162000573565b9150509250925092565b6000602082840312156200071c57600080fd5b5051919050565b604051601f8201601f191681016001600160401b03811182821017156200074e576200074e620007d3565b604052919050565b600181811c908216806200076b57607f821691505b602082108114156200078d57634e487b7160e01b600052602260045260246000fd5b50919050565b6000600019821415620007b657634e487b7160e01b600052601160045260246000fd5b5060010190565b634e487b7160e01b600052603260045260246000fd5b634e487b7160e01b600052604160045260246000fd5b613d6480620007f96000396000f3fe60806040526004361061011f5760003560e01c8063017cb3db1461012b57806314a2ed2f1461014d578063173825d91461016d57806319643b6e1461018d5780631b8d7764146101ad5780632d99aaf2146101cd5780632f54bf6e146101f85780633542758f146102285780633b7d09461461024857806359f8ef32146102685780635b16ebb71461028857806365b973e5146102a85780636b299604146102c657806376f8f90f146102f457806377bc5a1f146103145780638fc2d8ea14610342578063a706752c14610371578063a93d5ed614610391578063bd9f3705146103a6578063ce33d58a146103c6578063d9209289146103e6578063dd3ef44414610406578063f4989e7114610426578063fb1f69171461044657600080fd5b3661012657005b600080fd5b34801561013757600080fd5b5061014b610146366004613395565b610466565b005b34801561015957600080fd5b5061014b610168366004613395565b6106d5565b34801561017957600080fd5b5061014b610188366004613354565b61082d565b34801561019957600080fd5b5061014b6101a83660046136ed565b610879565b3480156101b957600080fd5b5061014b6101c83660046136ed565b610912565b3480156101d957600080fd5b506101e2610953565b6040516101ef9190613969565b60405180910390f35b34801561020457600080fd5b50610218610213366004613354565b610964565b60405190151581526020016101ef565b34801561023457600080fd5b5061014b6102433660046133d7565b610978565b34801561025457600080fd5b5061014b610263366004613354565b610986565b34801561027457600080fd5b5061014b610283366004613486565b610994565b34801561029457600080fd5b506102186102a3366004613354565b610a2f565b3480156102b457600080fd5b506001546040519081526020016101ef565b3480156102d257600080fd5b506102e66102e136600461369a565b610a3c565b6040516101ef92919061397c565b34801561030057600080fd5b5061014b61030f366004613354565b610a54565b34801561032057600080fd5b5061033461032f366004613354565b610aaf565b6040516101ef929190613a59565b34801561034e57600080fd5b5061036261035d366004613354565b610abf565b6040516101ef93929190613a7d565b34801561037d57600080fd5b5061021861038c366004613395565b610af8565b34801561039d57600080fd5b506101e2610bb0565b3480156103b257600080fd5b5061014b6103c1366004613395565b610bbd565b3480156103d257600080fd5b5061014b6103e1366004613354565b610de4565b3480156103f257600080fd5b5061014b610401366004613354565b610df0565b34801561041257600080fd5b5061014b61042136600461342b565b610dfb565b34801561043257600080fd5b5061014b610441366004613395565b610e0f565b34801561045257600080fd5b5061014b610461366004613354565b610fba565b8261047081610a2f565b151560011461047e57600080fd5b61048a33600054610fc5565b15156001146104b45760405162461bcd60e51b81526004016104ab90613b36565b60405180910390fd5b60018385846104c48284836111b6565b1515600114806104e057506104da828483611214565b15156001145b6104fc5760405162461bcd60e51b81526004016104ab90613b18565b6001600160a01b038089166000908152600560209081526040808320938a1683529290528190209051633db691ef60e11b815288918a91899173__ItemsLibrary__________________________91637b6d23de9161056191339188916004016138b3565b60206040518083038186803b15801561057957600080fd5b505af415801561058d573d6000803e3d6000fd5b505050506040513d601f19601f820116820180604052508101906105b191906136b7565b156105ce5760405162461bcd60e51b81526004016104ab90613afb565b60006040518060a001604052808c81526020016001548152602001604051806020016040528060008152508152602001600081526020016000151581525090506000600560008e6001600160a01b03166001600160a01b0316815260200190815260200160002060000160008c6001600160a01b03166001600160a01b03168152602001908152602001600020905073__ItemsLibrary__________________________63b475c59b83836040518363ffffffff1660e01b8152600401610696929190613b8d565b60006040518083038186803b1580156106ae57600080fd5b505af41580156106c2573d6000803e3d6000fd5b5050505050505050505050505050505050565b826106df81610a2f565b15156001146106ed57600080fd5b6106f933600054610fc5565b151560011461071a5760405162461bcd60e51b81526004016104ab90613b36565b600083858461072a828483610af8565b156107475760405162461bcd60e51b81526004016104ab90613b70565b60008789886107578284836111b6565b156107745760405162461bcd60e51b81526004016104ab90613add565b60006040518060a001604052808d81526020016001548152602001604051806020016040528060008152508152602001600081526020016000151581525090506000600560008f6001600160a01b03166001600160a01b0316815260200190815260200160002060000160008d6001600160a01b03166001600160a01b03168152602001908152602001600020905061081d826040518060200160405280600081525083611274565b5050505050505050505050505050565b600154600161083d6000546112be565b516108489190613c30565b808211156108685760405162461bcd60e51b81526004016104ab90613abf565b610874836000546114a7565b505050565b600181151514156108745760405163162488eb60e31b8152600481018490526108749073__AddressLibrary________________________9063b1244758906024015b60206040518083038186803b1580156108d457600080fd5b505af41580156108e8573d6000803e3d6000fd5b505050506040513d601f19601f8201168201806040525081019061090c9190613378565b8361179d565b806108745760405163162488eb60e31b8152600481018490526108749073__AddressLibrary________________________9063b1244758906024016108bc565b606061095f60016112be565b905090565b600061097282600054610fc5565b92915050565b6108748383836000546117e0565b6109918160016114a7565b50565b6109a18585858585611aeb565b6109aa85610a2f565b151560011415610a28576001600160a01b0385166000818152600860205260409081902054905162fc000560e81b815287929163fc000500916109f49030906006906004016138d4565b6000604051808303818588803b158015610a0d57600080fd5b505af1158015610a21573d6000803e3d6000fd5b5050505050505b5050505050565b6000610972826001610fc5565b606080610a4b83600054611b59565b91509150915091565b610a6081600054611d66565b151560011415610aa3576001610a776000546112be565b51610a829190613c30565b6001541115610aa35760405162461bcd60e51b81526004016104ab90613abf565b61099181600054611ed2565b60606000610a4b83600054612308565b606060008060606000610ad186612505565b6001600160a01b039790971660009081526007602052604090205490979095509350505050565b6001600160a01b038084166000908152600560209081526040808320938516835292905281812091516336f7efbb60e21b8152909173__ItemsLibrary__________________________9163dbdfbeec91610b5891879190600401613a4b565b60206040518083038186803b158015610b7057600080fd5b505af4158015610b84573d6000803e3d6000fd5b505050506040513d601f19601f82011682018060405250810190610ba891906136b7565b949350505050565b606061095f6000546112be565b82610bc781610a2f565b1515600114610bd557600080fd5b610be133600054610fc5565b1515600114610c025760405162461bcd60e51b81526004016104ab90613b36565b6001838584610c128284836111b6565b151560011480610c2e5750610c28828483611214565b15156001145b610c4a5760405162461bcd60e51b81526004016104ab90613b18565b6001600160a01b038089166000908152600560209081526040808320938a1683529290528190209051633db691ef60e11b815288918a91899173__ItemsLibrary__________________________91637b6d23de91610caf91339188916004016138b3565b60206040518083038186803b158015610cc757600080fd5b505af4158015610cdb573d6000803e3d6000fd5b505050506040513d601f19601f82011682018060405250810190610cff91906136b7565b15610d1c5760405162461bcd60e51b81526004016104ab90613afb565b60006040518060a001604052808c81526020016001548152602001604051806020016040528060008152508152602001600081526020016000151581525090506000600560008e6001600160a01b03166001600160a01b0316815260200190815260200160002060000160008c6001600160a01b03166001600160a01b03168152602001908152602001600020905073__ItemsLibrary__________________________63da19701483836040518363ffffffff1660e01b8152600401610696929190613b8d565b61099181600054612514565b610991816001611ed2565b610e09848484846000611aeb565b50505050565b82610e1981610a2f565b1515600114610e2757600080fd5b610e3333600054610fc5565b1515600114610e545760405162461bcd60e51b81526004016104ab90613b36565b6001838584610e64828483610af8565b1515600114610e855760405162461bcd60e51b81526004016104ab90613aa2565b6000878988610e95828483611214565b15610eb25760405162461bcd60e51b81526004016104ab90613add565b60006040518060a001604052808d81526020016001548152602001604051806020016040528060008152508152602001600081526020016000151581525090506000600560008f6001600160a01b03166001600160a01b0316815260200190815260200160002060000160008d6001600160a01b03166001600160a01b03168152602001908152602001600020905073__ItemsLibrary__________________________6372e5178f83836040518363ffffffff1660e01b8152600401610f7a929190613b8d565b60006040518083038186803b158015610f9257600080fd5b505af4158015610fa6573d6000803e3d6000fd5b505050505050505050505050505050505050565b610991816001612514565b60025460405163123bd07560e11b8152600091839173__Library_______________________________90632477a0ea906110069085908590600401613a4b565b60206040518083038186803b15801561101e57600080fd5b505af4158015611032573d6000803e3d6000fd5b505050506040513d601f19601f8201168201806040525081019061105691906136b7565b15156001146110775760405162461bcd60e51b81526004016104ab90613b53565b604051631361314960e21b815260009073__AddressLibrary________________________90634d84c524906110b190899060040161389f565b60206040518083038186803b1580156110c957600080fd5b505af41580156110dd573d6000803e3d6000fd5b505050506040513d601f19601f8201168201806040525081019061110191906136d4565b905073__ItemsLibrary__________________________63dbdfbeec826002888154811061113157611131613cdf565b90600052602060002090600402016040518363ffffffff1660e01b815260040161115c929190613a4b565b60206040518083038186803b15801561117457600080fd5b505af4158015611188573d6000803e3d6000fd5b505050506040513d601f19601f820116820180604052508101906111ac91906136b7565b9695505050505050565b6001600160a01b0380841660009081526005602090815260408083209385168352929052818120915162136bb360e11b8152909173__ItemsLibrary__________________________916226d76691610b5891879190600401613a4b565b6001600160a01b0380841660009081526005602090815260408083209385168352929052818120915163142a769760e11b8152909173__ItemsLibrary__________________________91632854ed2e91610b5891879190600401613a4b565b8251600081815260208381526040909120845161129992600190920191860190613110565b506002820180546001810182556000918252602090912001819055610e09848361294a565b60025460405163123bd07560e11b8152606091839173__Library_______________________________90632477a0ea906112ff9085908590600401613a4b565b60206040518083038186803b15801561131757600080fd5b505af415801561132b573d6000803e3d6000fd5b505050506040513d601f19601f8201168201806040525081019061134f91906136b7565b15156001146113705760405162461bcd60e51b81526004016104ab90613b53565b73__AddressLibrary________________________635f2e8a5d73__ItemsLibrary__________________________6327724f4b600288815481106113b7576113b7613cdf565b90600052602060002090600402016040518263ffffffff1660e01b81526004016113e391815260200190565b60006040518083038186803b1580156113fb57600080fd5b505af415801561140f573d6000803e3d6000fd5b505050506040513d6000823e601f3d908101601f19168201604052611437919081019061358c565b6040518263ffffffff1660e01b815260040161145391906139ee565b60006040518083038186803b15801561146b57600080fd5b505af415801561147f573d6000803e3d6000fd5b505050506040513d6000823e601f3d908101601f19168201604052610ba891908101906134ec565b60025460405163123bd07560e11b815282919073__Library_______________________________90632477a0ea906114e69085908590600401613a4b565b60206040518083038186803b1580156114fe57600080fd5b505af4158015611512573d6000803e3d6000fd5b505050506040513d601f19601f8201168201806040525081019061153691906136b7565b15156001146115575760405162461bcd60e51b81526004016104ab90613b53565b61156333600054610fc5565b15156001146115845760405162461bcd60e51b81526004016104ab90613b36565b600184846115928282610fc5565b15156001146115b35760405162461bcd60e51b81526004016104ab90613aa2565b600087876115c18282611d66565b156115de5760405162461bcd60e51b81526004016104ab90613add565b604051631361314960e21b815260009073__AddressLibrary________________________90634d84c52490611618908e9060040161389f565b60206040518083038186803b15801561163057600080fd5b505af4158015611644573d6000803e3d6000fd5b505050506040513d601f19601f8201168201806040525081019061166891906136d4565b905060006040518060a00160405280838152602001600154815260200160038d8154811061169857611698613cdf565b9060005260206000200180546116ad90613c73565b80601f01602080910402602001604051908101604052809291908181526020018280546116d990613c73565b80156117265780601f106116fb57610100808354040283529160200191611726565b820191906000526020600020905b81548152906001019060200180831161170957829003601f168201915b505050505081526020018c8152602001600115158152509050600060028c8154811061175457611754613cdf565b9060005260206000209060040201905073__ItemsLibrary__________________________6372e5178f83836040518363ffffffff1660e01b8152600401610696929190613b8d565b60018114156117dc576001600160a01b0382166000908152600960209081526040808320805460ff191690556007825280832083905560089091528120555b5050565b60025460405163123bd07560e11b815282919073__Library_______________________________90632477a0ea9061181f9085908590600401613a4b565b60206040518083038186803b15801561183757600080fd5b505af415801561184b573d6000803e3d6000fd5b505050506040513d601f19601f8201168201806040525081019061186f91906136b7565b15156001146118905760405162461bcd60e51b81526004016104ab90613b53565b61189c33600054610fc5565b15156001146118bd5760405162461bcd60e51b81526004016104ab90613b36565b600086846118cb8282610fc5565b156118e85760405162461bcd60e51b81526004016104ab90613b70565b600089876118f68282612ea3565b156119135760405162461bcd60e51b81526004016104ab90613add565b600073__AddressLibrary________________________634d84c5248e6040518263ffffffff1660e01b815260040161194c919061389f565b60206040518083038186803b15801561196457600080fd5b505af4158015611978573d6000803e3d6000fd5b505050506040513d601f19601f8201168201806040525081019061199c91906136d4565b905060006040518060a00160405280838152602001600154815260200160038d815481106119cc576119cc613cdf565b9060005260206000200180546119e190613c73565b80601f0160208091040260200160405190810160405280929190818152602001828054611a0d90613c73565b8015611a5a5780601f10611a2f57610100808354040283529160200191611a5a565b820191906000526020600020905b815481529060010190602001808311611a3d57829003601f168201915b505050505081526020018c8152602001600115158152509050600060028c81548110611a8857611a88613cdf565b90600052602060002090600402019050611ada828f8f8080601f016020809104026020016040519081016040528093929190818152602001838380828437600092019190915250869250611274915050565b505050505050505050505050505050565b611af885858560016117e0565b6001600160a01b03851660009081526009602052604090205460ff16610a28576001600160a01b03851660009081526007602090815260408083208590556008825280832084905560099091529020805460ff191660011790555050505050565b60025460405163123bd07560e11b8152606091829184919073__Library_______________________________90632477a0ea90611b9d9085908590600401613a4b565b60206040518083038186803b158015611bb557600080fd5b505af4158015611bc9573d6000803e3d6000fd5b505050506040513d601f19601f82011682018060405250810190611bed91906136b7565b1515600114611c0e5760405162461bcd60e51b81526004016104ab90613b53565b60608073__ItemsLibrary__________________________63e035e0068960028a81548110611c3f57611c3f613cdf565b90600052602060002090600402016040518363ffffffff1660e01b8152600401611c759291909115158252602082015260400190565b60006040518083038186803b158015611c8d57600080fd5b505af4158015611ca1573d6000803e3d6000fd5b505050506040513d6000823e601f3d908101601f19168201604052611cc991908101906135c0565b604051635f2e8a5d60e01b8152919350915073__AddressLibrary________________________90635f2e8a5d90611d059085906004016139ee565b60006040518083038186803b158015611d1d57600080fd5b505af4158015611d31573d6000803e3d6000fd5b505050506040513d6000823e601f3d908101601f19168201604052611d5991908101906134ec565b9890975095505050505050565b60025460405163123bd07560e11b8152600091839173__Library_______________________________90632477a0ea90611da79085908590600401613a4b565b60206040518083038186803b158015611dbf57600080fd5b505af4158015611dd3573d6000803e3d6000fd5b505050506040513d601f19601f82011682018060405250810190611df791906136b7565b1515600114611e185760405162461bcd60e51b81526004016104ab90613b53565b604051631361314960e21b815260009073__AddressLibrary________________________90634d84c52490611e5290899060040161389f565b60206040518083038186803b158015611e6a57600080fd5b505af4158015611e7e573d6000803e3d6000fd5b505050506040513d601f19601f82011682018060405250810190611ea291906136d4565b905073__ItemsLibrary__________________________632854ed2e826002888154811061113157611131613cdf565b60025460405163123bd07560e11b815282919073__Library_______________________________90632477a0ea90611f119085908590600401613a4b565b60206040518083038186803b158015611f2957600080fd5b505af4158015611f3d573d6000803e3d6000fd5b505050506040513d601f19601f82011682018060405250810190611f6191906136b7565b1515600114611f825760405162461bcd60e51b81526004016104ab90613b53565b611f8e33600054610fc5565b1515600114611faf5760405162461bcd60e51b81526004016104ab90613b36565b60018484611fbd8282612ea3565b151560011480611fd85750611fd28282611d66565b15156001145b611ff45760405162461bcd60e51b81526004016104ab90613b18565b8686600073__AddressLibrary________________________634d84c524846040518263ffffffff1660e01b815260040161202f919061389f565b60206040518083038186803b15801561204757600080fd5b505af415801561205b573d6000803e3d6000fd5b505050506040513d601f19601f8201168201806040525081019061207f91906136d4565b905073__ItemsLibrary__________________________637b6d23de3383600286815481106120b0576120b0613cdf565b90600052602060002090600402016040518463ffffffff1660e01b81526004016120dc939291906138b3565b60206040518083038186803b1580156120f457600080fd5b505af4158015612108573d6000803e3d6000fd5b505050506040513d601f19601f8201168201806040525081019061212c91906136b7565b156121495760405162461bcd60e51b81526004016104ab90613afb565b604051631361314960e21b815260009073__AddressLibrary________________________90634d84c52490612183908e9060040161389f565b60206040518083038186803b15801561219b57600080fd5b505af41580156121af573d6000803e3d6000fd5b505050506040513d601f19601f820116820180604052508101906121d391906136d4565b905060006040518060a00160405280838152602001600154815260200160038d8154811061220357612203613cdf565b90600052602060002001805461221890613c73565b80601f016020809104026020016040519081016040528092919081815260200182805461224490613c73565b80156122915780601f1061226657610100808354040283529160200191612291565b820191906000526020600020905b81548152906001019060200180831161227457829003601f168201915b505050505081526020018c8152602001600115158152509050600060028c815481106122bf576122bf613cdf565b9060005260206000209060040201905073__ItemsLibrary__________________________63da19701483836040518363ffffffff1660e01b8152600401610696929190613b8d565b60025460405163123bd07560e11b815260609160009184919073__Library_______________________________90632477a0ea9061234d9085908590600401613a4b565b60206040518083038186803b15801561236557600080fd5b505af4158015612379573d6000803e3d6000fd5b505050506040513d601f19601f8201168201806040525081019061239d91906136b7565b15156001146123be5760405162461bcd60e51b81526004016104ab90613b53565b604051631361314960e21b815260009073__AddressLibrary________________________90634d84c524906123f8908a9060040161389f565b60206040518083038186803b15801561241057600080fd5b505af4158015612424573d6000803e3d6000fd5b505050506040513d601f19601f8201168201806040525081019061244891906136d4565b905073__ItemsLibrary__________________________631aeccc6a826002898154811061247857612478613cdf565b90600052602060002090600402016040518363ffffffff1660e01b81526004016124a3929190613a4b565b60006040518083038186803b1580156124bb57600080fd5b505af41580156124cf573d6000803e3d6000fd5b505050506040513d6000823e601f3d908101601f191682016040526124f7919081019061371b565b945094505050509250929050565b60606000610a4b836001612308565b60025460405163123bd07560e11b815282919073__Library_______________________________90632477a0ea906125539085908590600401613a4b565b60206040518083038186803b15801561256b57600080fd5b505af415801561257f573d6000803e3d6000fd5b505050506040513d601f19601f820116820180604052508101906125a391906136b7565b15156001146125c45760405162461bcd60e51b81526004016104ab90613b53565b6125d033600054610fc5565b15156001146125f15760405162461bcd60e51b81526004016104ab90613b36565b600184846125ff8282612ea3565b15156001148061261a57506126148282611d66565b15156001145b6126365760405162461bcd60e51b81526004016104ab90613b18565b8686600073__AddressLibrary________________________634d84c524846040518263ffffffff1660e01b8152600401612671919061389f565b60206040518083038186803b15801561268957600080fd5b505af415801561269d573d6000803e3d6000fd5b505050506040513d601f19601f820116820180604052508101906126c191906136d4565b905073__ItemsLibrary__________________________637b6d23de3383600286815481106126f2576126f2613cdf565b90600052602060002090600402016040518463ffffffff1660e01b815260040161271e939291906138b3565b60206040518083038186803b15801561273657600080fd5b505af415801561274a573d6000803e3d6000fd5b505050506040513d601f19601f8201168201806040525081019061276e91906136b7565b1561278b5760405162461bcd60e51b81526004016104ab90613afb565b604051631361314960e21b815260009073__AddressLibrary________________________90634d84c524906127c5908e9060040161389f565b60206040518083038186803b1580156127dd57600080fd5b505af41580156127f1573d6000803e3d6000fd5b505050506040513d601f19601f8201168201806040525081019061281591906136d4565b905060006040518060a00160405280838152602001600154815260200160038d8154811061284557612845613cdf565b90600052602060002001805461285a90613c73565b80601f016020809104026020016040519081016040528092919081815260200182805461288690613c73565b80156128d35780601f106128a8576101008083540402835291602001916128d3565b820191906000526020600020905b8154815290600101906020018083116128b657829003601f168201915b505050505081526020018c8152602001600115158152509050600060028c8154811061290157612901613cdf565b9060005260206000209060040201905073__ItemsLibrary__________________________63b475c59b83836040518363ffffffff1660e01b8152600401610696929190613b8d565b8151602080840151604080860151606087015160808801516000878152888752938420600201805460018101825581865296852090960180546001600160a01b03191633179055928690529354929390929091906129a8908561300e565b15612e9a576129b78587613029565b15612b8757600085815260208781526040808320805460ff19166001908117909155898101805491820181558452919092200186905551631580989f60e11b815273__Library_______________________________90635b28cf63908290632b01313e90612a2f908a9060028d0190600401613a32565b60206040518083038186803b158015612a4757600080fd5b505af4158015612a5b573d6000803e3d6000fd5b505050506040513d601f19601f82011682018060405250810190612a7f91906136d4565b886002016040518363ffffffff1660e01b8152600401612aa0929190613a32565b60006040518083038186803b158015612ab857600080fd5b505af4158015612acc573d6000803e3d6000fd5b505050506040513d6000823e601f3d908101601f19168201604052612af4919081019061358c565b8051612b0a916002890191602090910190613194565b50612b1585876130d6565b8015612b8257600085815260208790526040908190209051612b3a916001019061382d565b60405180910390208584604051612b519190613811565b604051908190038120907f160f29d558202d77de33f9ebda8fd33ba2d87da20dc7b129e9f5de4421d310aa90600090a45b612e9a565b73__Library_______________________________635b28cf6373__Library_______________________________632b01313e888a6001016040518363ffffffff1660e01b8152600401612bdd929190613a32565b60206040518083038186803b158015612bf557600080fd5b505af4158015612c09573d6000803e3d6000fd5b505050506040513d601f19601f82011682018060405250810190612c2d91906136d4565b886001016040518363ffffffff1660e01b8152600401612c4e929190613a32565b60006040518083038186803b158015612c6657600080fd5b505af4158015612c7a573d6000803e3d6000fd5b505050506040513d6000823e601f3d908101601f19168201604052612ca2919081019061358c565b8051612cb8916001890191602090910190613194565b5073__Library_______________________________635b28cf6373__Library_______________________________632b01313e888a6003016040518363ffffffff1660e01b8152600401612d0f929190613a32565b60206040518083038186803b158015612d2757600080fd5b505af4158015612d3b573d6000803e3d6000fd5b505050506040513d601f19601f82011682018060405250810190612d5f91906136d4565b886003016040518363ffffffff1660e01b8152600401612d80929190613a32565b60006040518083038186803b158015612d9857600080fd5b505af4158015612dac573d6000803e3d6000fd5b505050506040513d6000823e601f3d908101601f19168201604052612dd4919081019061358c565b8051612dea916003890191602090910190613194565b506000858152602087905260408120805460ff1916815590612e0f60018301826131ce565b612e1d600283016000613208565b612e2b600383016000613208565b50508015612e9a57600085815260208790526040908190209051612e52916001019061382d565b60405180910390208584604051612e699190613811565b604051908190038120907f69862bba93dc216568c2c5aa127c0834bcc3e5edd6fb7dbd3596d46a4cde95c290600090a45b50505050505050565b60025460405163123bd07560e11b8152600091839173__Library_______________________________90632477a0ea90612ee49085908590600401613a4b565b60206040518083038186803b158015612efc57600080fd5b505af4158015612f10573d6000803e3d6000fd5b505050506040513d601f19601f82011682018060405250810190612f3491906136b7565b1515600114612f555760405162461bcd60e51b81526004016104ab90613b53565b604051631361314960e21b815260009073__AddressLibrary________________________90634d84c52490612f8f90899060040161389f565b60206040518083038186803b158015612fa757600080fd5b505af4158015612fbb573d6000803e3d6000fd5b505050506040513d601f19601f82011682018060405250810190612fdf91906136d4565b905073__ItemsLibrary__________________________6226d766826002888154811061113157611131613cdf565b60008183101561302057506000610972565b50600192915050565b6000808260020180548060200260200160405190810160405280929190818152602001828054801561307a57602002820191906000526020600020905b815481526020019060010190808311613066575b5050505050905060005b81518110156130cb5781818151811061309f5761309f613cdf565b60200260200101518514156130b957600192505050610972565b806130c381613cae565b915050613084565b506000949350505050565b60008281526020829052604081206130f391600390910190613208565b60008281526020829052604081206117dc91600290910190613208565b82805461311c90613c73565b90600052602060002090601f01602090048101928261313e5760008555613184565b82601f1061315757805160ff1916838001178555613184565b82800160010185558215613184579182015b82811115613184578251825591602001919060010190613169565b50613190929150613222565b5090565b8280548282559060005260206000209081019282156131845791602002820182811115613184578251825591602001919060010190613169565b5080546131da90613c73565b6000825580601f106131ea575050565b601f0160209004906000526020600020908101906109919190613222565b508054600082559060005260206000209081019061099191905b5b808211156131905760008155600101613223565b600082601f83011261324857600080fd5b8151602061325d61325883613c0d565b613bdd565b80838252828201915082860187848660051b890101111561327d57600080fd5b60005b8581101561329c57815184529284019290840190600101613280565b5090979650505050505050565b60008083601f8401126132bb57600080fd5b5081356001600160401b038111156132d257600080fd5b6020830191508360208285010111156132ea57600080fd5b9250929050565b600082601f83011261330257600080fd5b81516001600160401b0381111561331b5761331b613cf5565b61332e601f8201601f1916602001613bdd565b81815284602083860101111561334357600080fd5b610ba8826020830160208701613c47565b60006020828403121561336657600080fd5b813561337181613d0b565b9392505050565b60006020828403121561338a57600080fd5b815161337181613d0b565b6000806000606084860312156133aa57600080fd5b83356133b581613d0b565b92506020840135915060408401356133cc81613d0b565b809150509250925092565b6000806000604084860312156133ec57600080fd5b83356133f781613d0b565b925060208401356001600160401b0381111561341257600080fd5b61341e868287016132a9565b9497909650939450505050565b6000806000806060858703121561344157600080fd5b843561344c81613d0b565b935060208501356001600160401b0381111561346757600080fd5b613473878288016132a9565b9598909750949560400135949350505050565b60008060008060006080868803121561349e57600080fd5b85356134a981613d0b565b945060208601356001600160401b038111156134c457600080fd5b6134d0888289016132a9565b9699909850959660408101359660609091013595509350505050565b600060208083850312156134ff57600080fd5b82516001600160401b0381111561351557600080fd5b8301601f8101851361352657600080fd5b805161353461325882613c0d565b80828252848201915084840188868560051b870101111561355457600080fd5b600094505b8385101561358057805161356c81613d0b565b835260019490940193918501918501613559565b50979650505050505050565b60006020828403121561359e57600080fd5b81516001600160401b038111156135b457600080fd5b610ba884828501613237565b600080604083850312156135d357600080fd5b82516001600160401b03808211156135ea57600080fd5b6135f686838701613237565b935060209150818501518181111561360d57600080fd5b8501601f8101871361361e57600080fd5b805161362c61325882613c0d565b8082825285820191508584018a878560051b870101111561364c57600080fd5b6000805b8581101561368757825188811115613666578283fd5b6136748e8b838b01016132f1565b8652509388019391880191600101613650565b5050508096505050505050509250929050565b6000602082840312156136ac57600080fd5b813561337181613d20565b6000602082840312156136c957600080fd5b815161337181613d20565b6000602082840312156136e657600080fd5b5051919050565b60008060006060848603121561370257600080fd5b833592506020840135915060408401356133cc81613d20565b6000806040838503121561372e57600080fd5b82516001600160401b0381111561374457600080fd5b613750858286016132f1565b925050602083015161376181613d20565b809150509250929050565b600081518084526020808501945080840160005b838110156137a55781516001600160a01b031687529582019590820190600101613780565b509495945050505050565b6000815480845260208085019450836000528060002060005b838110156137a5578154875295820195600191820191016137c9565b600081518084526137fd816020860160208601613c47565b601f01601f19169290920160200192915050565b60008251613823818460208701613c47565b9190910192915050565b600080835461383b81613c73565b60018281168015613853576001811461386457613893565b60ff19841687528287019450613893565b8760005260208060002060005b8581101561388a5781548a820152908401908201613871565b50505082870194505b50929695505050505050565b6001600160a01b0391909116815260200190565b6001600160a01b039390931683526020830191909152604082015260600190565b60018060a01b038316815260006020604081840152600084546138f681613c73565b8060408701526060600180841660008114613918576001811461392c5761395a565b60ff1985168984015260808901955061395a565b896000528660002060005b858110156139525781548b8201860152908301908801613937565b8a0184019650505b50939998505050505050505050565b602081526000613371602083018461376c565b60408152600061398f604083018561376c565b6020838203818501528185518084528284019150828160051b85010183880160005b838110156139df57601f198784030185526139cd8383516137e5565b948601949250908501906001016139b1565b50909998505050505050505050565b6020808252825182820181905260009190848201906040850190845b81811015613a2657835183529284019291840191600101613a0a565b50909695505050505050565b828152604060208201526000610ba860408301846137b0565b918252602082015260400190565b604081526000613a6c60408301856137e5565b905082151560208301529392505050565b606081526000613a9060608301866137e5565b93151560208301525060400152919050565b60208082526003908201526245433760e81b604082015260600190565b6020808252600490820152634543313960e01b604082015260600190565b6020808252600490820152634543323760e01b604082015260600190565b60208082526003908201526245433560e81b604082015260600190565b60208082526004908201526308a8664760e31b604082015260600190565b60208082526003908201526245433960e81b604082015260600190565b60208082526003908201526245433160e81b604082015260600190565b60208082526003908201526222a19b60e91b604082015260600190565b6040815282516040820152602083015160608201526000604084015160a06080840152613bbd60e08401826137e5565b606086015160a0850152608090950151151560c084015250506020015290565b604051601f8201601f191681016001600160401b0381118282101715613c0557613c05613cf5565b604052919050565b60006001600160401b03821115613c2657613c26613cf5565b5060051b60200190565b600082821015613c4257613c42613cc9565b500390565b60005b83811015613c62578181015183820152602001613c4a565b83811115610e095750506000910152565b600181811c90821680613c8757607f821691505b60208210811415613ca857634e487b7160e01b600052602260045260246000fd5b50919050565b6000600019821415613cc257613cc2613cc9565b5060010190565b634e487b7160e01b600052601160045260246000fd5b634e487b7160e01b600052603260045260246000fd5b634e487b7160e01b600052604160045260246000fd5b6001600160a01b038116811461099157600080fd5b801515811461099157600080fdfea2646970667358221220df2e7f7d91b70538d61354ea6a83ef6f4f009f6a02ac448d7c09c9a64a792acb64736f6c63430008060033",
  "immutableReferences": {},
  "source": "// SPDX-License-Identifier: GPL-3.0\r\n\r\npragma solidity >=0.7.0 <0.9.0;\r\npragma experimental ABIEncoderV2;\r\n\r\n/**\r\n * @title Storage\r\n * @dev Store & retrieve value in a variable\r\n */\r\n import \"./Libraries/Library.sol\";\r\n import \"./Interfaces/IProvider.sol\";\r\n import \"./Abstract/MultiSigContract.sol\";\r\n import \"./PrivateCertificatesPool.sol\";\r\n import \"./PublicCertificatesPool.sol\";\r\n import \"./Libraries/ItemsLibrary.sol\";\r\n import \"./Libraries/AddressLibrary.sol\";\r\n\r\n contract Provider is IProvider, MultiSigContract {\r\n    using Library for *;\r\n    using AddressLibrary for *;\r\n    using ItemsLibrary for *;\r\n\r\n    uint256 constant TotalEntities = 2;\r\n\r\n    // Owners\r\n    uint256 constant _ownerIdProviders = 0;\r\n    string constant _ownerLabel = \"Owner\";\r\n\r\n    // Pools\r\n    uint256 constant _poolId = 1;\r\n    string constant _poolLabel = \"Pool\";\r\n\r\n    string[] _Label = [_ownerLabel, _poolLabel];\r\n    \r\n    struct _CertificatesPerHolderStruct{\r\n        mapping(address => ItemsLibrary._ItemsStruct) _CertificatesPerHolder;\r\n    }\r\n   \r\n    mapping(address => _CertificatesPerHolderStruct) _CertificatesPerPool;\r\n    string _ProviderInfo;\r\n\r\n    mapping(address => uint256) _AddCertificatePricePerPool;\r\n    mapping(address => uint256) _SubscriptionPricePerPool;\r\n    mapping(address => bool) _submited;\r\n\r\n    // modifiers\r\n    modifier isAPool(address pool){\r\n        require(true == isPool(pool));\r\n        _;\r\n    }\r\n\r\n    modifier isCertificateActivated(bool YesOrNo, bytes32 cert, address pool, address holder){\r\n        if(false == YesOrNo) require(false == isCertificate(pool, cert, holder), \"EC6\");\r\n        else require(true == isCertificate(pool, cert, holder), \"EC7\");\r\n        _;\r\n    }\r\n\r\n    modifier isCertificatePending(bool YesOrNo, bytes32 cert, address pool, address holder){\r\n        if(false == YesOrNo) require(false == isCertificatePendingToAdded(pool, cert, holder) && \r\n                                    false == isCertificatePendingToRemoved(pool, cert, holder), \"EC27\");\r\n        else require(true == isCertificatePendingToAdded(pool, cert, holder) || \r\n                    true == isCertificatePendingToRemoved(pool, cert, holder), \"EC28\");\r\n        _;\r\n    }\r\n\r\n    modifier isCertificatePendingToAdd(bool YesOrNo, bytes32 cert, address pool, address holder){\r\n        if(false == YesOrNo) require(false == isCertificatePendingToAdded(pool, cert, holder), \"EC27\");\r\n        else require(true == isCertificatePendingToAdded(pool, cert, holder), \"EC28\");\r\n        _;\r\n    }\r\n\r\n    modifier isCertificatePendingToRemove(bool YesOrNo, bytes32 cert, address pool, address holder){\r\n        if(false == YesOrNo) require(false == isCertificatePendingToRemoved(pool, cert, holder), \"EC27\");\r\n        else require(true == isCertificatePendingToRemoved(pool, cert, holder), \"EC28\");\r\n        _;\r\n    }\r\n\r\n    modifier HasNotAlreadyVotedForCertificate(bytes32 cert, address pool, address holder){\r\n        require(false == ItemsLibrary.hasVoted(msg.sender, cert, _CertificatesPerPool[pool]._CertificatesPerHolder[holder]), \"EC5\");\r\n        _;\r\n    }\r\n\r\n     // Constructor\r\n    constructor(address[] memory owners,  uint256 minOwners, string memory ProviderInfo) \r\n        MultiSigContract(owners, minOwners, TotalEntities, _Label, _ownerIdProviders)\r\n    payable\r\n    {\r\n        _ProviderInfo = ProviderInfo;\r\n    }\r\n\r\n    // POOL CRUD Operations\r\n    function subscribeToPublicPool(address pool, string calldata poolInfo, uint256 AddCertificatePrice, uint256 SubscriptionPrice) external override{\r\n        InternaladdPool(pool, poolInfo, AddCertificatePrice, SubscriptionPrice);\r\n        if(true == isPool(pool)){\r\n            MultiSigCertificatesPool poolToSubscribe = PublicCertificatesPool(pool);\r\n            poolToSubscribe.addProvider{value:_SubscriptionPricePerPool[pool]}(address(this), _ProviderInfo);\r\n        }\r\n    }\r\n\r\n    function addPool(address pool, string calldata poolInfo, uint256 AddCertificatePrice) external override{\r\n        InternaladdPool(pool, poolInfo, AddCertificatePrice, 0);\r\n    }\r\n\r\n    function InternaladdPool(address pool, string calldata poolInfo, uint256 AddCertificatePrice, uint256 SubscriptionPrice) internal{\r\n        addEntity(pool, poolInfo, _poolId);\r\n        if(false == _submited[pool]){\r\n            _AddCertificatePricePerPool[pool] = AddCertificatePrice;\r\n            _SubscriptionPricePerPool[pool] = SubscriptionPrice;\r\n            _submited[pool] = true;\r\n        }\r\n    }\r\n\r\n    function removePool(address pool) external override{\r\n       removeEntity(pool, _poolId); \r\n    }\r\n\r\n    function validatePool(address pool) external override{\r\n        validateEntity(pool, _poolId);\r\n    }\r\n\r\n    function rejectPool(address pool) external override{\r\n        rejectEntity(pool, _poolId);\r\n    }\r\n\r\n    function removePricesForPool(address entity, uint listId) internal\r\n    {\r\n        if(listId == _poolId){\r\n            delete(_submited[entity]);\r\n            delete(_AddCertificatePricePerPool[entity]);\r\n            delete(_SubscriptionPricePerPool[entity]);\r\n        }\r\n    }\r\n\r\n    function onItemValidated(bytes32 item, uint id, bool addOrRemove) public \r\n    {\r\n        if(false == addOrRemove)removePricesForPool(AddressLibrary.BytesToAddress(item), id);\r\n    }\r\n\r\n    function onItemRejected(bytes32 item, uint id, bool addOrRemove) public \r\n    {\r\n        if(true == addOrRemove)removePricesForPool(AddressLibrary.BytesToAddress(item), id);\r\n    }\r\n    \r\n    function retrievePool(address pool) external override view returns (string memory, bool, uint256){\r\n        string memory poolInfo;\r\n        bool isActivated;\r\n\r\n        (poolInfo, isActivated) = InternalRetrievePool(pool);\r\n        return (poolInfo, isActivated, _AddCertificatePricePerPool[pool]);\r\n    }\r\n    \r\n    function InternalRetrievePool(address pool) internal view returns (string memory, bool){\r\n        return retrieveEntity(pool, _poolId);\r\n    }\r\n\r\n    function retrieveAllPools() external override view returns (address[] memory){\r\n        return retrieveAllEntities(_poolId);\r\n    }\r\n\r\n    function isPool(address pool) public view returns (bool){\r\n        return(isEntity(pool, _poolId));\r\n    }\r\n    \r\n    // Certificates management\r\n     function addCertificate(address pool, bytes32 CertificateHash, address holder) external override\r\n        isAPool(pool)\r\n        isAnOwner\r\n        isCertificateActivated(false, CertificateHash, pool, holder) \r\n        isCertificatePendingToAdd(false, CertificateHash, pool, holder)\r\n     {\r\n        ItemsLibrary._manipulateItemStruct memory manipulateItemStruct = ItemsLibrary._manipulateItemStruct(CertificateHash, _minOwners, \"\", 0, false);\r\n        ItemsLibrary._ItemsStruct storage itemsstruct =  _CertificatesPerPool[pool]._CertificatesPerHolder[holder];\r\n        ItemsLibrary.addItem(manipulateItemStruct, \"\", itemsstruct);\r\n     }\r\n     \r\n     function removeCertificate(address pool, bytes32 CertificateHash, address holder) external override\r\n        isAPool(pool)\r\n        isAnOwner\r\n        isCertificateActivated(true, CertificateHash, pool, holder) \r\n        isCertificatePendingToRemove(false, CertificateHash, pool, holder)\r\n     {\r\n        ItemsLibrary._manipulateItemStruct memory manipulateItemStruct = ItemsLibrary._manipulateItemStruct(CertificateHash, _minOwners, \"\", 0, false);\r\n        ItemsLibrary._ItemsStruct storage itemsstruct =  _CertificatesPerPool[pool]._CertificatesPerHolder[holder];\r\n        ItemsLibrary.removeItem(manipulateItemStruct, itemsstruct);\r\n     }\r\n\r\n     function validateCertificate(address pool, bytes32 CertificateHash, address holder) external override\r\n        isAPool(pool)\r\n        isAnOwner\r\n        isCertificatePending(true, CertificateHash, pool, holder)\r\n        HasNotAlreadyVotedForCertificate(CertificateHash, pool, holder)\r\n     {\r\n        ItemsLibrary._manipulateItemStruct memory manipulateItemStruct = ItemsLibrary._manipulateItemStruct(CertificateHash, _minOwners, \"\", 0, false);\r\n        ItemsLibrary._ItemsStruct storage itemsstruct =  _CertificatesPerPool[pool]._CertificatesPerHolder[holder];\r\n        ItemsLibrary.validateItem(manipulateItemStruct, itemsstruct);\r\n     }\r\n\r\n     function rejectCertificate(address pool, bytes32 CertificateHash, address holder) external override\r\n        isAPool(pool)\r\n        isAnOwner\r\n        isCertificatePending(true, CertificateHash, pool, holder)\r\n        HasNotAlreadyVotedForCertificate(CertificateHash, pool, holder)\r\n     {\r\n        ItemsLibrary._manipulateItemStruct memory manipulateItemStruct = ItemsLibrary._manipulateItemStruct(CertificateHash, _minOwners, \"\", 0, false);\r\n        ItemsLibrary._ItemsStruct storage itemsstruct =  _CertificatesPerPool[pool]._CertificatesPerHolder[holder];\r\n        ItemsLibrary.rejectItem(manipulateItemStruct, itemsstruct);\r\n     }\r\n \r\n    function manipulateCertificate(address pool, bytes32 CertificateHash, address holder, bool addOrRemove) internal\r\n    {\r\n        MultiSigCertificatesPool poolToSend;\r\n        (string memory p ,) = InternalRetrievePool(pool);\r\n\r\n        if(keccak256(abi.encodePacked(\"Private\")) == keccak256(abi.encodePacked((p)))){\r\n                poolToSend = PrivateCertificatesPool(pool);\r\n            }\r\n        else {\r\n                poolToSend = PublicCertificatesPool(pool);\r\n        }\r\n\r\n        if(addOrRemove){\r\n                poolToSend.addCertificate{value:_AddCertificatePricePerPool[pool]}(CertificateHash, holder);\r\n            }\r\n        else{\r\n               poolToSend.removeCertificate(CertificateHash, holder);\r\n        }\r\n            \r\n        //delete(_CertificatesPerPool[pool]._CertificatesPerHolder[holder]._cert[CertificateHash]);\r\n        \r\n    }\r\n\r\n    function isCertificate(address pool, bytes32 CertificateHash, address holder) public view returns(bool){\r\n        return ItemsLibrary.isItem(CertificateHash, _CertificatesPerPool[pool]._CertificatesPerHolder[holder]);\r\n    }\r\n\r\n    function isCertificatePendingToAdded(address pool, bytes32 CertificateHash, address holder) internal view returns(bool)\r\n    {\r\n        return ItemsLibrary.isItemPendingToAdded(CertificateHash, _CertificatesPerPool[pool]._CertificatesPerHolder[holder]);\r\n    }\r\n\r\n    function isCertificatePendingToRemoved(address pool, bytes32 CertificateHash, address holder) internal view returns(bool)\r\n    {\r\n        return ItemsLibrary.isItemPendingToRemoved(CertificateHash, _CertificatesPerPool[pool]._CertificatesPerHolder[holder]);\r\n    }\r\n    \r\n    receive() external override payable{}\r\n    \r\n }",
  "sourcePath": "C:/Users/d-aam/GitHub/Certificates/contracts/Provider.sol",
  "compiler": {
    "name": "solc",
    "version": "0.8.6+commit.11564f7e.Emscripten.clang"
  },
  "schemaVersion": "3.3.4",
  "updatedAt": "2021-07-27T09:38:25.105Z",
  "devdoc": {
    "kind": "dev",
    "methods": {},
    "version": 1
  },
  "userdoc": {
    "kind": "user",
    "methods": {},
    "version": 1
  }
}