{
  "contractName": "ProviderFactory",
  "abi": [
    {
      "anonymous": false,
      "inputs": [
        {
          "indexed": false,
          "internalType": "string",
          "name": "Factory",
          "type": "string"
        },
        {
          "indexed": false,
          "internalType": "string",
          "name": "Name",
          "type": "string"
        }
      ],
      "name": "_NewContractName",
      "type": "event"
    },
    {
      "anonymous": false,
      "inputs": [
        {
          "indexed": false,
          "internalType": "string",
          "name": "Factory",
          "type": "string"
        },
        {
          "indexed": false,
          "internalType": "string",
          "name": "Version",
          "type": "string"
        }
      ],
      "name": "_NewContractVersion",
      "type": "event"
    },
    {
      "anonymous": false,
      "inputs": [
        {
          "indexed": false,
          "internalType": "string",
          "name": "Factory",
          "type": "string"
        },
        {
          "indexed": false,
          "internalType": "uint256",
          "name": "Id",
          "type": "uint256"
        },
        {
          "indexed": true,
          "internalType": "address",
          "name": "Creator",
          "type": "address"
        },
        {
          "indexed": false,
          "internalType": "address",
          "name": "Element",
          "type": "address"
        },
        {
          "indexed": false,
          "internalType": "string",
          "name": "Name",
          "type": "string"
        }
      ],
      "name": "_NewElement",
      "type": "event"
    },
    {
      "inputs": [
        {
          "internalType": "string",
          "name": "factoryName",
          "type": "string"
        },
        {
          "internalType": "address",
          "name": "managerContractAddress",
          "type": "address"
        }
      ],
      "name": "Factory_init",
      "outputs": [],
      "stateMutability": "nonpayable",
      "type": "function"
    },
    {
      "inputs": [
        {
          "internalType": "uint256",
          "name": "Id",
          "type": "uint256"
        }
      ],
      "name": "retrieve",
      "outputs": [
        {
          "internalType": "address",
          "name": "",
          "type": "address"
        },
        {
          "internalType": "address",
          "name": "",
          "type": "address"
        }
      ],
      "stateMutability": "view",
      "type": "function",
      "constant": true
    },
    {
      "inputs": [],
      "name": "retrieveConfig",
      "outputs": [
        {
          "internalType": "string",
          "name": "",
          "type": "string"
        },
        {
          "internalType": "string",
          "name": "",
          "type": "string"
        },
        {
          "internalType": "string",
          "name": "",
          "type": "string"
        }
      ],
      "stateMutability": "view",
      "type": "function",
      "constant": true
    },
    {
      "inputs": [],
      "name": "retrieveManagerContract",
      "outputs": [
        {
          "internalType": "address",
          "name": "",
          "type": "address"
        }
      ],
      "stateMutability": "view",
      "type": "function",
      "constant": true
    },
    {
      "inputs": [],
      "name": "retrieveTotal",
      "outputs": [
        {
          "internalType": "uint256",
          "name": "",
          "type": "uint256"
        }
      ],
      "stateMutability": "view",
      "type": "function",
      "constant": true
    },
    {
      "inputs": [
        {
          "internalType": "string",
          "name": "contractName",
          "type": "string"
        }
      ],
      "name": "updateContractName",
      "outputs": [],
      "stateMutability": "nonpayable",
      "type": "function"
    },
    {
      "inputs": [
        {
          "internalType": "string",
          "name": "contractVersion",
          "type": "string"
        }
      ],
      "name": "updateContractVersion",
      "outputs": [],
      "stateMutability": "nonpayable",
      "type": "function"
    },
    {
      "inputs": [
        {
          "internalType": "address",
          "name": "managerContractAddress",
          "type": "address"
        }
      ],
      "name": "ProviderFactory_init",
      "outputs": [],
      "stateMutability": "nonpayable",
      "type": "function"
    },
    {
      "inputs": [
        {
          "internalType": "address[]",
          "name": "owners",
          "type": "address[]"
        },
        {
          "internalType": "uint256",
          "name": "minOwners",
          "type": "uint256"
        },
        {
          "internalType": "string",
          "name": "ElementName",
          "type": "string"
        },
        {
          "internalType": "string",
          "name": "ENSName",
          "type": "string"
        }
      ],
      "name": "create",
      "outputs": [],
      "stateMutability": "payable",
      "type": "function",
      "payable": true
    }
  ],
  "bytecode": "0x608060405234801561001057600080fd5b50611fdf806100206000396000f3fe608060405260043610620000805760003560e01c80631dd5862c14620000855780634612ea0b14620000ac5780635b362e8414620000d15780636f86542a146200010e5780637c980198146200012e5780638f88708b14620001455780639d8c56c6146200017a578063ce50ac7614620001a3578063fcc09e5b14620001c8575b600080fd5b3480156200009257600080fd5b50620000aa620000a43660046200115e565b620001ed565b005b348015620000b957600080fd5b50620000aa620000cb3660046200119e565b620002c4565b348015620000de57600080fd5b506000546201000090046001600160a01b03166040516001600160a01b0390911681526020015b60405180910390f35b3480156200011b57600080fd5b5060045460405190815260200162000105565b620000aa6200013f36600462001057565b620003a4565b3480156200015257600080fd5b506200016a62000164366004620011f5565b620006db565b6040516200010592919062001307565b3480156200018757600080fd5b5062000192620007c4565b604051620001059392919062001402565b348015620001b057600080fd5b50620000aa620001c23660046200115e565b62000996565b348015620001d557600080fd5b50620000aa620001e736600462000f32565b62000a61565b6000546040516337ea306360e01b8152339173__Library_______________________________916337ea3063916200023b9185916201000090046001600160a01b03169060040162001307565b60006040518083038186803b1580156200025457600080fd5b505af415801562000269573d6000803e3d6000fd5b5050835162000282925060039150602085019062000e08565b507f85825cad4af8c1dad9ad1a76eae95f95b6b46edc35d47b11259bca5daa7713ce60016003604051620002b89291906200144b565b60405180910390a15050565b600054610100900460ff1680620002de575060005460ff16155b620003065760405162461bcd60e51b8152600401620002fd90620014c7565b60405180910390fd5b600054610100900460ff1615801562000329576000805461ffff19166101011790555b620003348262000b00565b82516200034990600190602086019062000e08565b506040805160208101918290526000908190526200036a9160029162000e08565b506040805160208101918290526000908190526200038b9160039162000e08565b5080156200039f576000805461ff00191690555b505050565b600060029054906101000a90046001600160a01b03166001600160a01b031663e220ad956040518163ffffffff1660e01b815260040160006040518083038186803b158015620003f357600080fd5b505afa15801562000408573d6000803e3d6000fd5b505050506040513d6000823e601f3d908101601f1916820160405262000432919081019062000fa6565b600181518110620004475762000447620015d1565b60200260200101516001600160a01b031663f0c9325e3460036040518363ffffffff1660e01b81526004016200047e9190620013d9565b6000604051808303818588803b1580156200049857600080fd5b505af1158015620004ad573d6000803e3d6000fd5b505050505060008060029054906101000a90046001600160a01b03166001600160a01b031663e220ad956040518163ffffffff1660e01b815260040160006040518083038186803b1580156200050257600080fd5b505afa15801562000517573d6000803e3d6000fd5b505050506040513d6000823e601f3d908101601f1916820160405262000541919081019062000fa6565b600781518110620005565762000556620015d1565b60200260200101516001600160a01b031663b049473f6040518163ffffffff1660e01b815260040160806040518083038186803b1580156200059757600080fd5b505afa158015620005ac573d6000803e3d6000fd5b505050506040513d601f19601f82011682018060405250810190620005d2919062000f59565b505091505060008585858585604051602401620005f495949392919062001347565b60408051808303601f1901815291815260208201805163302807cb60e11b6001600160e01b039091161790526000805482516377eb10ef60e11b81529251939450620006d393620100009091046001600160a01b03169263efd621de926004808301939192829003018186803b1580156200066e57600080fd5b505afa15801562000683573d6000803e3d6000fd5b505050506040513d6000823e601f3d908101601f19168201604052620006ad919081019062000fa6565b600181518110620006c257620006c2620015d1565b602002602001015182868662000b94565b505050505050565b6004805460405163123bd07560e11b8152918201839052602482018190526000918291849173__Library_______________________________90632477a0ea9060440160006040518083038186803b1580156200073857600080fd5b505af41580156200074d573d6000803e3d6000fd5b5050505060048581548110620007675762000767620015d1565b6000918252602090912060029091020154600480546001600160a01b0390921691879081106200079b576200079b620015d1565b60009182526020909120600160029092020101549094506001600160a01b031692505050915091565b6060806060600160026003828054620007dd9062001594565b80601f01602080910402602001604051908101604052809291908181526020018280546200080b9062001594565b80156200085c5780601f1062000830576101008083540402835291602001916200085c565b820191906000526020600020905b8154815290600101906020018083116200083e57829003601f168201915b50505050509250818054620008719062001594565b80601f01602080910402602001604051908101604052809291908181526020018280546200089f9062001594565b8015620008f05780601f10620008c457610100808354040283529160200191620008f0565b820191906000526020600020905b815481529060010190602001808311620008d257829003601f168201915b50505050509150808054620009059062001594565b80601f0160208091040260200160405190810160405280929190818152602001828054620009339062001594565b8015620009845780601f10620009585761010080835404028352916020019162000984565b820191906000526020600020905b8154815290600101906020018083116200096657829003601f168201915b50505050509050925092509250909192565b6000546040516337ea306360e01b8152339173__Library_______________________________916337ea306391620009e49185916201000090046001600160a01b03169060040162001307565b60006040518083038186803b158015620009fd57600080fd5b505af415801562000a12573d6000803e3d6000fd5b5050835162000a2b925060029150602085019062000e08565b507fca713f964ba9fd248b552b210e1ec6035169f38c143b0500c211f277f1ad454360016002604051620002b89291906200144b565b600054610100900460ff168062000a7b575060005460ff16155b62000a9a5760405162461bcd60e51b8152600401620002fd90620014c7565b600054610100900460ff1615801562000abd576000805461ffff19166101011790555b62000ae960405180604001604052806008815260200167283937bb34b232b960c11b81525083620002c4565b801562000afc576000805461ff00191690555b5050565b600054610100900460ff168062000b1a575060005460ff16155b62000b395760405162461bcd60e51b8152600401620002fd90620014c7565b600054610100900460ff1615801562000b5c576000805461ffff19166101011790555b6000805462010000600160b01b031916620100006001600160a01b03851602179055801562000afc576000805461ff00191690555050565b80516000901562000ba85750805160208201205b6000858560405162000bba9062000e97565b62000bc792919062001321565b604051809103906000f08015801562000be4573d6000803e3d6000fd5b50604080518082019091523381526001600160a01b038083166020830190815260048054600181018255600091909152835160029091027f8a35acfbc15ff81a39ae7d344fd709f28e8600b4aa8c65c6b64bfe7fe36bd19b810180549285166001600160a01b031993841617905591517f8a35acfbc15ff81a39ae7d344fd709f28e8600b4aa8c65c6b64bfe7fe36bd19c9092018054929093169116179055909150821562000d9b57600060029054906101000a90046001600160a01b03166001600160a01b031663e220ad956040518163ffffffff1660e01b815260040160006040518083038186803b15801562000cdc57600080fd5b505afa15801562000cf1573d6000803e3d6000fd5b505050506040513d6000823e601f3d908101601f1916820160405262000d1b919081019062000fa6565b60078151811062000d305762000d30620015d1565b60200260200101516001600160a01b0316637746a5dc846040518263ffffffff1660e01b815260040162000d6691815260200190565b600060405180830381600087803b15801562000d8157600080fd5b505af115801562000d96573d6000803e3d6000fd5b505050505b80600001516001600160a01b03167f1ca39c7d81f021b1dca105fb858bf2a88540adf1df782672dfd71b5ace6b839a60018060048054905062000ddf91906200156e565b84602001518960405162000df794939291906200147d565b60405180910390a250505050505050565b82805462000e169062001594565b90600052602060002090601f01602090048101928262000e3a576000855562000e85565b82601f1062000e5557805160ff191683800117855562000e85565b8280016001018555821562000e85579182015b8281111562000e8557825182559160200191906001019062000e68565b5062000e9392915062000ea5565b5090565b610993806200161783390190565b5b8082111562000e93576000815560010162000ea6565b600082601f83011262000ece57600080fd5b81356001600160401b0381111562000eea5762000eea620015e7565b62000eff601f8201601f191660200162001515565b81815284602083860101111562000f1557600080fd5b816020850160208301376000918101602001919091529392505050565b60006020828403121562000f4557600080fd5b813562000f5281620015fd565b9392505050565b6000806000806080858703121562000f7057600080fd5b845162000f7d81620015fd565b602086015190945062000f9081620015fd565b6040860151606090960151949790965092505050565b6000602080838503121562000fba57600080fd5b82516001600160401b0381111562000fd157600080fd5b8301601f8101851362000fe357600080fd5b805162000ffa62000ff48262001548565b62001515565b80828252848201915084840188868560051b87010111156200101b57600080fd5b600094505b838510156200104b5780516200103681620015fd565b83526001949094019391850191850162001020565b50979650505050505050565b600080600080608085870312156200106e57600080fd5b84356001600160401b03808211156200108657600080fd5b818701915087601f8301126200109b57600080fd5b81356020620010ae62000ff48362001548565b8083825282820191508286018c848660051b8901011115620010cf57600080fd5b600096505b84871015620010ff578035620010ea81620015fd565b835260019690960195918301918301620010d4565b5098505088013595505060408701359150808211156200111e57600080fd5b6200112c8883890162000ebc565b935060608701359150808211156200114357600080fd5b50620011528782880162000ebc565b91505092959194509250565b6000602082840312156200117157600080fd5b81356001600160401b038111156200118857600080fd5b620011968482850162000ebc565b949350505050565b60008060408385031215620011b257600080fd5b82356001600160401b03811115620011c957600080fd5b620011d78582860162000ebc565b9250506020830135620011ea81620015fd565b809150509250929050565b6000602082840312156200120857600080fd5b5035919050565b6000815180845260005b81811015620012375760208185018101518683018201520162001219565b818111156200124a576000602083870101525b50601f01601f19169290920160200192915050565b8054600090600181811c90808316806200127a57607f831692505b60208084108214156200129d57634e487b7160e01b600052602260045260246000fd5b83885260208801828015620012bb5760018114620012cd57620012fa565b60ff19871682528282019750620012fa565b60008981526020902060005b87811015620012f457815484820152908601908401620012d9565b83019850505b5050505050505092915050565b6001600160a01b0392831681529116602082015260400190565b6001600160a01b038316815260406020820181905260009062001196908301846200120f565b60a0808252865190820181905260009060209060c0840190828a01845b828110156200138b5781516001600160a01b03168452928401929084019060010162001364565b50505087828501528381036040850152620013a781886200120f565b9150508281036060840152620013be81866200120f565b91505060018060a01b03831660808301529695505050505050565b6020810160048310620013fc57634e487b7160e01b600052602160045260246000fd5b91905290565b6060815260006200141760608301866200120f565b82810360208401526200142b81866200120f565b905082810360408401526200144181856200120f565b9695505050505050565b6040815260006200146060408301856200125f565b82810360208401526200147481856200125f565b95945050505050565b6080815260006200149260808301876200125f565b602083018690526001600160a01b03851660408401528281036060840152620014bc81856200120f565b979650505050505050565b6020808252602e908201527f496e697469616c697a61626c653a20636f6e747261637420697320616c72656160408201526d191e481a5b9a5d1a585b1a5e995960921b606082015260800190565b604051601f8201601f191681016001600160401b0381118282101715620015405762001540620015e7565b604052919050565b60006001600160401b03821115620015645762001564620015e7565b5060051b60200190565b6000828210156200158f57634e487b7160e01b600052601160045260246000fd5b500390565b600181811c90821680620015a957607f821691505b60208210811415620015cb57634e487b7160e01b600052602260045260246000fd5b50919050565b634e487b7160e01b600052603260045260246000fd5b634e487b7160e01b600052604160045260246000fd5b6001600160a01b03811681146200161357600080fd5b5056fe608060405260405161099338038061099383398101604081905261002291610470565b61004d60017fa3f0ad74e5423aebfd80d3ef4346578335a9a72aeaee59ff6cb3582b35133d5161057f565b60008051602061094c83398151915214610069576100696105d0565b6100758282600061007c565b50506105fc565b61008583610156565b6040516001600160a01b038416907f1cf3b03a6cf19fa2baba4df148e9dcabedea7f8a5c07840e207e5c089be95d3e90600090a26000825111806100c65750805b156101515761014f836001600160a01b0316635c60da1b6040518163ffffffff1660e01b815260040160206040518083038186803b15801561010757600080fd5b505afa15801561011b573d6000803e3d6000fd5b505050506040513d601f19601f8201168201806040525081019061013f9190610455565b836102f660201b6100291760201c565b505b505050565b6101698161032260201b6100551760201c565b6101c85760405162461bcd60e51b815260206004820152602560248201527f455243313936373a206e657720626561636f6e206973206e6f74206120636f6e6044820152641d1c9858dd60da1b60648201526084015b60405180910390fd5b61024b816001600160a01b0316635c60da1b6040518163ffffffff1660e01b815260040160206040518083038186803b15801561020457600080fd5b505afa158015610218573d6000803e3d6000fd5b505050506040513d601f19601f8201168201806040525081019061023c9190610455565b61032260201b6100551760201c565b6102b05760405162461bcd60e51b815260206004820152603060248201527f455243313936373a20626561636f6e20696d706c656d656e746174696f6e206960448201526f1cc81b9bdd08184818dbdb9d1c9858dd60821b60648201526084016101bf565b806102d560008051602061094c83398151915260001b61032860201b61005b1760201c565b80546001600160a01b0319166001600160a01b039290921691909117905550565b606061031b838360405180606001604052806027815260200161096c6027913961032b565b9392505050565b3b151590565b90565b6060833b61038a5760405162461bcd60e51b815260206004820152602660248201527f416464726573733a2064656c65676174652063616c6c20746f206e6f6e2d636f6044820152651b9d1c9858dd60d21b60648201526084016101bf565b600080856001600160a01b0316856040516103a59190610530565b600060405180830381855af49150503d80600081146103e0576040519150601f19603f3d011682016040523d82523d6000602084013e6103e5565b606091505b5090925090506103f6828286610400565b9695505050505050565b6060831561040f57508161031b565b82511561041f5782518084602001fd5b8160405162461bcd60e51b81526004016101bf919061054c565b80516001600160a01b038116811461045057600080fd5b919050565b60006020828403121561046757600080fd5b61031b82610439565b6000806040838503121561048357600080fd5b61048c83610439565b60208401519092506001600160401b03808211156104a957600080fd5b818501915085601f8301126104bd57600080fd5b8151818111156104cf576104cf6105e6565b604051601f8201601f19908116603f011681019083821181831017156104f7576104f76105e6565b8160405282815288602084870101111561051057600080fd5b6105218360208301602088016105a4565b80955050505050509250929050565b600082516105428184602087016105a4565b9190910192915050565b602081526000825180602084015261056b8160408501602087016105a4565b601f01601f19169190910160400192915050565b60008282101561059f57634e487b7160e01b600052601160045260246000fd5b500390565b60005b838110156105bf5781810151838201526020016105a7565b8381111561014f5750506000910152565b634e487b7160e01b600052600160045260246000fd5b634e487b7160e01b600052604160045260246000fd5b6103418061060b6000396000f3fe60806040523661001357610011610017565b005b6100115b61002761002261005e565b610106565b565b606061004e83836040518060600160405280602781526020016102e56027913961012a565b9392505050565b3b151590565b90565b60006100917fa3f0ad74e5423aebfd80d3ef4346578335a9a72aeaee59ff6cb3582b35133d50546001600160a01b031690565b6001600160a01b0316635c60da1b6040518163ffffffff1660e01b815260040160206040518083038186803b1580156100c957600080fd5b505afa1580156100dd573d6000803e3d6000fd5b505050506040513d601f19601f82011682018060405250810190610101919061023c565b905090565b3660008037600080366000845af43d6000803e808015610125573d6000f35b3d6000fd5b6060833b61018e5760405162461bcd60e51b815260206004820152602660248201527f416464726573733a2064656c65676174652063616c6c20746f206e6f6e2d636f6044820152651b9d1c9858dd60d21b60648201526084015b60405180910390fd5b600080856001600160a01b0316856040516101a99190610265565b600060405180830381855af49150503d80600081146101e4576040519150601f19603f3d011682016040523d82523d6000602084013e6101e9565b606091505b50915091506101f9828286610203565b9695505050505050565b6060831561021257508161004e565b8251156102225782518084602001fd5b8160405162461bcd60e51b81526004016101859190610281565b60006020828403121561024e57600080fd5b81516001600160a01b038116811461004e57600080fd5b600082516102778184602087016102b4565b9190910192915050565b60208152600082518060208401526102a08160408501602087016102b4565b601f01601f19169190910160400192915050565b60005b838110156102cf5781810151838201526020016102b7565b838111156102de576000848401525b5050505056fe416464726573733a206c6f772d6c6576656c2064656c65676174652063616c6c206661696c6564a2646970667358221220d403ceeafd1a8a95bac5042ee17868655bf495ec1518e7fe81eb94935c79e11764736f6c63430008070033a3f0ad74e5423aebfd80d3ef4346578335a9a72aeaee59ff6cb3582b35133d50416464726573733a206c6f772d6c6576656c2064656c65676174652063616c6c206661696c6564a2646970667358221220ebe6f081ea7fefce922f23860ac2dac1fd550b3aaaba3a16a251802a4837db0364736f6c63430008070033",
  "immutableReferences": {},
  "source": "// SPDX-License-Identifier: GPL-3.0\r\n\r\npragma solidity 0.8.7;\r\n\r\n/*\r\n  Provider Factory inherits from Factory.\r\n  Before creating a new Element a payment is made to Treasury.\r\n  Provider Elements are Beacon Proxy, the Beacon implementation address is stored in Manager contract.\r\n */\r\n\r\n import \"../Interfaces/ITreasury.sol\";\r\n import \"../Abstract/Factory.sol\";\r\n\r\ncontract ProviderFactory is Factory{\r\n    \r\n    // CONSTRUCTOR /////////////////////////////////////////\r\n    function ProviderFactory_init(address managerContractAddress) public initializer {\r\n        super.Factory_init(\"Provider\", managerContractAddress);\r\n    }\r\n\r\n    // FUNCTIONALITY /////////////////////////////////////////\r\n    function create(address[] memory owners,  uint256 minOwners, string memory ElementName, string memory ENSName) external override payable\r\n    {\r\n        ITreasury(_managerContract.retrieveTransparentProxies()[1]).pay{value:msg.value}(Library.Prices.NewProviderContract);\r\n        (,address ENSReverseAddress,,) = IENS(_managerContract.retrieveTransparentProxies()[7]).retrieveSettings();\r\n        bytes memory data = abi.encodeWithSignature(\"Provider_init(address[],uint256,string,string,address)\", owners, minOwners, ElementName, ENSName, ENSReverseAddress);\r\n        internalCreate(_managerContract.retrieveBeacons()[1], data, ElementName, ENSName);\r\n    }\r\n\r\n\r\n}",
  "sourcePath": "C:/Users/d-aam/GitHub/Certificates/contracts/DeployedContracts/ProviderFactory.sol",
  "compiler": {
    "name": "solc",
    "version": "0.8.7+commit.e28d00a7.Emscripten.clang"
  },
  "schemaVersion": "3.3.4",
  "updatedAt": "2021-11-17T06:52:59.146Z",
  "networkType": "ethereum",
  "devdoc": {
    "kind": "dev",
    "methods": {},
    "version": 1
  },
  "userdoc": {
    "kind": "user",
    "methods": {},
    "version": 1
  }
}