{
  "contractName": "Provider",
  "abi": [
    {
      "anonymous": false,
      "inputs": [
        {
          "indexed": true,
          "internalType": "string",
          "name": "",
          "type": "string"
        },
        {
          "indexed": true,
          "internalType": "address",
          "name": "",
          "type": "address"
        },
        {
          "indexed": true,
          "internalType": "string",
          "name": "",
          "type": "string"
        }
      ],
      "name": "_AddEntityRejectionIdEvent",
      "type": "event"
    },
    {
      "anonymous": false,
      "inputs": [
        {
          "indexed": true,
          "internalType": "string",
          "name": "",
          "type": "string"
        },
        {
          "indexed": true,
          "internalType": "address",
          "name": "",
          "type": "address"
        },
        {
          "indexed": true,
          "internalType": "string",
          "name": "",
          "type": "string"
        }
      ],
      "name": "_AddEntityValidationIdEvent",
      "type": "event"
    },
    {
      "anonymous": false,
      "inputs": [
        {
          "indexed": true,
          "internalType": "string",
          "name": "",
          "type": "string"
        },
        {
          "indexed": true,
          "internalType": "address",
          "name": "",
          "type": "address"
        },
        {
          "indexed": true,
          "internalType": "string",
          "name": "",
          "type": "string"
        }
      ],
      "name": "_RemoveEntityRejectionIdEvent",
      "type": "event"
    },
    {
      "anonymous": false,
      "inputs": [
        {
          "indexed": true,
          "internalType": "string",
          "name": "",
          "type": "string"
        },
        {
          "indexed": true,
          "internalType": "address",
          "name": "",
          "type": "address"
        },
        {
          "indexed": true,
          "internalType": "string",
          "name": "",
          "type": "string"
        }
      ],
      "name": "_RemoveEntityValidationIdEvent",
      "type": "event"
    },
    {
      "inputs": [
        {
          "internalType": "address[]",
          "name": "owners",
          "type": "address[]"
        },
        {
          "internalType": "uint256",
          "name": "minOwners",
          "type": "uint256"
        },
        {
          "internalType": "uint256",
          "name": "TotalEntities",
          "type": "uint256"
        },
        {
          "internalType": "string[]",
          "name": "labels",
          "type": "string[]"
        },
        {
          "internalType": "uint256",
          "name": "ownerId",
          "type": "uint256"
        }
      ],
      "name": "MultiSigContract_init",
      "outputs": [],
      "stateMutability": "nonpayable",
      "type": "function"
    },
    {
      "inputs": [
        {
          "internalType": "address",
          "name": "owner",
          "type": "address"
        },
        {
          "internalType": "string",
          "name": "ownerInfo",
          "type": "string"
        }
      ],
      "name": "addOwner",
      "outputs": [],
      "stateMutability": "nonpayable",
      "type": "function"
    },
    {
      "inputs": [
        {
          "internalType": "address",
          "name": "owner",
          "type": "address"
        }
      ],
      "name": "isOwner",
      "outputs": [
        {
          "internalType": "bool",
          "name": "",
          "type": "bool"
        }
      ],
      "stateMutability": "view",
      "type": "function"
    },
    {
      "inputs": [
        {
          "internalType": "address",
          "name": "owner",
          "type": "address"
        }
      ],
      "name": "rejectOwner",
      "outputs": [],
      "stateMutability": "nonpayable",
      "type": "function"
    },
    {
      "inputs": [
        {
          "internalType": "address",
          "name": "owner",
          "type": "address"
        }
      ],
      "name": "removeOwner",
      "outputs": [],
      "stateMutability": "nonpayable",
      "type": "function"
    },
    {
      "inputs": [],
      "name": "retrieveAllOwners",
      "outputs": [
        {
          "internalType": "address[]",
          "name": "",
          "type": "address[]"
        }
      ],
      "stateMutability": "view",
      "type": "function"
    },
    {
      "inputs": [],
      "name": "retrieveMinOwners",
      "outputs": [
        {
          "internalType": "uint256",
          "name": "",
          "type": "uint256"
        }
      ],
      "stateMutability": "view",
      "type": "function"
    },
    {
      "inputs": [
        {
          "internalType": "address",
          "name": "owner",
          "type": "address"
        }
      ],
      "name": "retrieveOwner",
      "outputs": [
        {
          "internalType": "string",
          "name": "",
          "type": "string"
        },
        {
          "internalType": "bool",
          "name": "",
          "type": "bool"
        }
      ],
      "stateMutability": "view",
      "type": "function"
    },
    {
      "inputs": [
        {
          "internalType": "bool",
          "name": "addedORremove",
          "type": "bool"
        }
      ],
      "name": "retrievePendingOwners",
      "outputs": [
        {
          "internalType": "address[]",
          "name": "",
          "type": "address[]"
        },
        {
          "internalType": "string[]",
          "name": "",
          "type": "string[]"
        }
      ],
      "stateMutability": "view",
      "type": "function"
    },
    {
      "inputs": [
        {
          "internalType": "address",
          "name": "owner",
          "type": "address"
        }
      ],
      "name": "validateOwner",
      "outputs": [],
      "stateMutability": "nonpayable",
      "type": "function"
    },
    {
      "stateMutability": "payable",
      "type": "receive"
    },
    {
      "inputs": [
        {
          "internalType": "address[]",
          "name": "owners",
          "type": "address[]"
        },
        {
          "internalType": "uint256",
          "name": "minOwners",
          "type": "uint256"
        },
        {
          "internalType": "string",
          "name": "ProviderInfo",
          "type": "string"
        }
      ],
      "name": "Provider_init",
      "outputs": [],
      "stateMutability": "nonpayable",
      "type": "function"
    },
    {
      "inputs": [
        {
          "internalType": "address",
          "name": "pool",
          "type": "address"
        },
        {
          "internalType": "string",
          "name": "poolInfo",
          "type": "string"
        },
        {
          "internalType": "uint256",
          "name": "AddCertificatePrice",
          "type": "uint256"
        },
        {
          "internalType": "uint256",
          "name": "SubscriptionPrice",
          "type": "uint256"
        }
      ],
      "name": "addPool",
      "outputs": [],
      "stateMutability": "nonpayable",
      "type": "function"
    },
    {
      "inputs": [
        {
          "internalType": "address",
          "name": "pool",
          "type": "address"
        }
      ],
      "name": "removePool",
      "outputs": [],
      "stateMutability": "nonpayable",
      "type": "function"
    },
    {
      "inputs": [
        {
          "internalType": "address",
          "name": "pool",
          "type": "address"
        }
      ],
      "name": "validatePool",
      "outputs": [],
      "stateMutability": "nonpayable",
      "type": "function"
    },
    {
      "inputs": [
        {
          "internalType": "address",
          "name": "pool",
          "type": "address"
        }
      ],
      "name": "rejectPool",
      "outputs": [],
      "stateMutability": "nonpayable",
      "type": "function"
    },
    {
      "inputs": [
        {
          "internalType": "address",
          "name": "pool",
          "type": "address"
        }
      ],
      "name": "retrievePool",
      "outputs": [
        {
          "internalType": "string",
          "name": "",
          "type": "string"
        },
        {
          "internalType": "bool",
          "name": "",
          "type": "bool"
        },
        {
          "internalType": "uint256",
          "name": "",
          "type": "uint256"
        },
        {
          "internalType": "uint256",
          "name": "",
          "type": "uint256"
        }
      ],
      "stateMutability": "view",
      "type": "function"
    },
    {
      "inputs": [],
      "name": "retrieveAllPools",
      "outputs": [
        {
          "internalType": "address[]",
          "name": "",
          "type": "address[]"
        }
      ],
      "stateMutability": "view",
      "type": "function"
    },
    {
      "inputs": [
        {
          "internalType": "address",
          "name": "pool",
          "type": "address"
        }
      ],
      "name": "isPool",
      "outputs": [
        {
          "internalType": "bool",
          "name": "",
          "type": "bool"
        }
      ],
      "stateMutability": "view",
      "type": "function"
    },
    {
      "inputs": [
        {
          "internalType": "address",
          "name": "pool",
          "type": "address"
        },
        {
          "internalType": "bytes32",
          "name": "CertificateHash",
          "type": "bytes32"
        },
        {
          "internalType": "address",
          "name": "holder",
          "type": "address"
        }
      ],
      "name": "addCertificate",
      "outputs": [],
      "stateMutability": "nonpayable",
      "type": "function"
    },
    {
      "inputs": [
        {
          "internalType": "address",
          "name": "pool",
          "type": "address"
        },
        {
          "internalType": "bytes32",
          "name": "CertificateHash",
          "type": "bytes32"
        },
        {
          "internalType": "address",
          "name": "holder",
          "type": "address"
        }
      ],
      "name": "validateCertificate",
      "outputs": [],
      "stateMutability": "nonpayable",
      "type": "function"
    },
    {
      "inputs": [
        {
          "internalType": "address",
          "name": "pool",
          "type": "address"
        },
        {
          "internalType": "bytes32",
          "name": "CertificateHash",
          "type": "bytes32"
        },
        {
          "internalType": "address",
          "name": "holder",
          "type": "address"
        }
      ],
      "name": "rejectCertificate",
      "outputs": [],
      "stateMutability": "nonpayable",
      "type": "function"
    },
    {
      "inputs": [
        {
          "internalType": "address",
          "name": "pool",
          "type": "address"
        },
        {
          "internalType": "bytes32",
          "name": "CertificateHash",
          "type": "bytes32"
        },
        {
          "internalType": "address",
          "name": "holder",
          "type": "address"
        }
      ],
      "name": "isCertificate",
      "outputs": [
        {
          "internalType": "bool",
          "name": "",
          "type": "bool"
        }
      ],
      "stateMutability": "view",
      "type": "function"
    },
    {
      "inputs": [
        {
          "internalType": "bytes32",
          "name": "item",
          "type": "bytes32"
        },
        {
          "internalType": "uint256[]",
          "name": "ids",
          "type": "uint256[]"
        },
        {
          "internalType": "bool",
          "name": "addOrRemove",
          "type": "bool"
        }
      ],
      "name": "onItemValidated",
      "outputs": [],
      "stateMutability": "nonpayable",
      "type": "function"
    },
    {
      "inputs": [
        {
          "internalType": "bytes32",
          "name": "item",
          "type": "bytes32"
        },
        {
          "internalType": "uint256[]",
          "name": "ids",
          "type": "uint256[]"
        },
        {
          "internalType": "bool",
          "name": "addOrRemove",
          "type": "bool"
        }
      ],
      "name": "onItemRejected",
      "outputs": [],
      "stateMutability": "nonpayable",
      "type": "function"
    }
  ],
  "bytecode": "0x608060405234801561001057600080fd5b50614676806100206000396000f3fe60806040526004361061011f5760003560e01c8063017cb3db1461012b57806314a2ed2f1461014d578063173825d91461016d5780632d99aaf21461018d5780632f54bf6e146101b85780633542758f146101e85780633b7d0946146102085780633fd07181146102285780635b16ebb71461024857806365b973e5146102685780636b2996041461028657806376f8f90f146102b457806377bc5a1f146102d45780637c8c2add146103025780638fc2d8ea14610322578063a44bff2b14610352578063a706752c14610372578063a93d5ed614610392578063b683e37b146103a7578063bd9f3705146103c7578063ce33d58a146103e7578063cf2041d914610407578063d920928914610427578063fb1f69171461044757600080fd5b3661012657005b600080fd5b34801561013757600080fd5b5061014b610146366004613ac1565b610467565b005b34801561015957600080fd5b5061014b610168366004613ac1565b610703565b34801561017957600080fd5b5061014b610188366004613a87565b6108d7565b34801561019957600080fd5b506101a2610923565b6040516101af9190614194565b60405180910390f35b3480156101c457600080fd5b506101d86101d3366004613a87565b610934565b60405190151581526020016101af565b3480156101f457600080fd5b5061014b610203366004613b03565b610948565b34801561021457600080fd5b5061014b610223366004613a87565b610956565b34801561023457600080fd5b5061014b610243366004613f1f565b610964565b34801561025457600080fd5b506101d8610263366004613a87565b610a36565b34801561027457600080fd5b506001546040519081526020016101af565b34801561029257600080fd5b506102a66102a1366004613ecc565b610a43565b6040516101af9291906141a7565b3480156102c057600080fd5b5061014b6102cf366004613a87565b610a5b565b3480156102e057600080fd5b506102f46102ef366004613a87565b610ab6565b6040516101af92919061429b565b34801561030e57600080fd5b5061014b61031d366004613f1f565b610ac6565b34801561032e57600080fd5b5061034261033d366004613a87565b610d78565b6040516101af94939291906142bf565b34801561035e57600080fd5b5061014b61036d366004613c5d565b610dc2565b34801561037e57600080fd5b506101d861038d366004613ac1565b611002565b34801561039e57600080fd5b506101a26110b3565b3480156103b357600080fd5b5061014b6103c2366004613b57565b6110c0565b3480156103d357600080fd5b5061014b6103e2366004613ac1565b61112e565b3480156103f357600080fd5b5061014b610402366004613a87565b611380565b34801561041357600080fd5b5061014b610422366004613cc9565b61138c565b34801561043357600080fd5b5061014b610442366004613a87565b61164e565b34801561045357600080fd5b5061014b610462366004613a87565b611659565b8261047181610a36565b151560011461047f57600080fd5b61048b33600054611664565b15156001146104b55760405162461bcd60e51b81526004016104ac906143b3565b60405180910390fd5b60018385846104c5828483611855565b1515600114806104e157506104db82848361190b565b15156001145b6104fd5760405162461bcd60e51b81526004016104ac90614347565b6001600160a01b038089166000908152600960209081526040808320938a1683529290528190209051633db691ef60e11b815288918a91899173__ItemsLibrary__________________________91637b6d23de9161056291339188916004016140ba565b60206040518083038186803b15801561057a57600080fd5b505af415801561058e573d6000803e3d6000fd5b505050506040513d601f19601f820116820180604052508101906105b29190613ee9565b156105cf5760405162461bcd60e51b81526004016104ac9061432a565b6001600160a01b038b166000908152600960205260408120906105f28d8c61196b565b905060006040518060c001604052808e815260200160405180602001604052806000815250815260200160015481526020016040518060400160405280600b81526020016a436572746966696361746560a81b815250815260200183815260200160001515815250905060008360000160008e6001600160a01b03166001600160a01b03168152602001908152602001600020905073__ItemsLibrary__________________________635cb09bcf8383306040518463ffffffff1660e01b81526004016106c29392919061440a565b60006040518083038186803b1580156106da57600080fd5b505af41580156106ee573d6000803e3d6000fd5b50505050505050505050505050505050505050565b8261070d81610a36565b151560011461071b57600080fd5b61072733600054611664565b15156001146107485760405162461bcd60e51b81526004016104ac906143b3565b6000838584610758828483611002565b156107755760405162461bcd60e51b81526004016104ac906143ed565b6000878988610785828483611855565b156107a25760405162461bcd60e51b81526004016104ac9061430c565b6001600160a01b038c166000908152600960205260408120906107c58e8d61196b565b905060006040518060c001604052808f815260200160405180602001604052806000815250815260200160015481526020016040518060400160405280600b81526020016a436572746966696361746560a81b815250815260200183815260200160001515815250905060008360000160008f6001600160a01b03166001600160a01b03168152602001908152602001600020905073__ItemsLibrary__________________________630b985aaa8383306040518463ffffffff1660e01b81526004016108959392919061440a565b60006040518083038186803b1580156108ad57600080fd5b505af41580156108c1573d6000803e3d6000fd5b5050505050505050505050505050505050505050565b60015460016108e7600054611b02565b516108f29190614542565b808211156109125760405162461bcd60e51b81526004016104ac906142ee565b61091e83600054611ceb565b505050565b606061092f6001611b02565b905090565b600061094282600054611664565b92915050565b61091e838383600054612092565b610961816001611ceb565b50565b61097084848484612409565b600183836000818110610985576109856145f1565b905060200201351415610a3057604051631e99d35d60e31b81526004810185905260009073__AddressLibrary________________________9063f4ce9ae89060240160206040518083038186803b1580156109e057600080fd5b505af41580156109f4573d6000803e3d6000fd5b505050506040513d601f19601f82011682018060405250810190610a189190613aa4565b905060018215151415610a2e57610a2e816124c9565b505b50505050565b6000610942826001611664565b606080610a52836000546124ff565b91509150915091565b610a678160005461270c565b151560011415610aaa576001610a7e600054611b02565b51610a899190614542565b6001541115610aaa5760405162461bcd60e51b81526004016104ac906142ee565b61096181600054612878565b60606000610a5283600054612d09565b610ad284848484612409565b600183836000818110610ae757610ae76145f1565b905060200201351415610c0957604051631e99d35d60e31b81526004810185905260009073__AddressLibrary________________________9063f4ce9ae89060240160206040518083038186803b158015610b4257600080fd5b505af4158015610b56573d6000803e3d6000fd5b505050506040513d601f19601f82011682018060405250810190610b7a9190613aa4565b905081610b8f57610b8a816124c9565b610c03565b6001600160a01b0381166000818152600660205260409081902054905162fc000560e81b815283929163fc00050091610bcf903090600a906004016140db565b6000604051808303818588803b158015610be857600080fd5b505af1158015610bfc573d6000803e3d6000fd5b5050505050505b50610a30565b600283836000818110610c1e57610c1e6145f1565b905060200201351415610a3057610a3073__AddressLibrary________________________63b1e2771485856001818110610c5b57610c5b6145f1565b905060200201356040518263ffffffff1660e01b8152600401610c8091815260200190565b60206040518083038186803b158015610c9857600080fd5b505af4158015610cac573d6000803e3d6000fd5b505050506040513d601f19601f82011682018060405250810190610cd09190613aa4565b8573__AddressLibrary________________________63b1e2771487876002818110610cfe57610cfe6145f1565b905060200201356040518263ffffffff1660e01b8152600401610d2391815260200190565b60206040518083038186803b158015610d3b57600080fd5b505af4158015610d4f573d6000803e3d6000fd5b505050506040513d601f19601f82011682018060405250810190610d739190613aa4565b612f06565b6060600080600060606000610d8c87613122565b6001600160a01b039890981660009081526005602090815260408083205460069092529091205491999097509095509350505050565b600454610100900460ff1680610ddb575060045460ff16155b610df75760405162461bcd60e51b81526004016104ac90614365565b600454610100900460ff16158015610e19576004805461ffff19166101011790555b6040805160028082526060820190925290816020015b6060815260200190600190039081610e2f5750508051610e579160089160209091019061372d565b506040518060400160405280600581526020016427bbb732b960d91b8152506008600081548110610e8a57610e8a6145f1565b906000526020600020019080519060200190610ea792919061378a565b5060405180604001604052806004815260200163141bdbdb60e21b8152506008600181548110610ed957610ed96145f1565b906000526020600020019080519060200190610ef692919061378a565b50610fd7848460026008805480602002602001604051908101604052809291908181526020016000905b82821015610fcc578382906000526020600020018054610f3f90614585565b80601f0160208091040260200160405190810160405280929190818152602001828054610f6b90614585565b8015610fb85780601f10610f8d57610100808354040283529160200191610fb8565b820191906000526020600020905b815481529060010190602001808311610f9b57829003601f168201915b505050505081526020019060010190610f20565b50505050600061138c565b8151610fea90600a90602085019061378a565b508015610a30576004805461ff001916905550505050565b60405163685256ff60e11b8152600090849082906001600160a01b0383169063d0a4adfe90611037908890889060040161425d565b60206040518083038186803b15801561104f57600080fd5b505afa158015611063573d6000803e3d6000fd5b505050506040513d601f19601f820116820180604052508101906110879190613aa4565b90506001600160a01b0381163014156110a5576001925050506110ac565b6000925050505b9392505050565b606061092f600054611b02565b6110cd8585856001612092565b6001600160a01b03851660009081526007602052604090205460ff16610a2e576001600160a01b03851660009081526005602090815260408083208590556006825280832084905560079091529020805460ff191660011790555050505050565b8261113881610a36565b151560011461114657600080fd5b61115233600054611664565b15156001146111735760405162461bcd60e51b81526004016104ac906143b3565b6001838584611183828483611855565b15156001148061119f575061119982848361190b565b15156001145b6111bb5760405162461bcd60e51b81526004016104ac90614347565b6001600160a01b038089166000908152600960209081526040808320938a1683529290528190209051633db691ef60e11b815288918a91899173__ItemsLibrary__________________________91637b6d23de9161122091339188916004016140ba565b60206040518083038186803b15801561123857600080fd5b505af415801561124c573d6000803e3d6000fd5b505050506040513d601f19601f820116820180604052508101906112709190613ee9565b1561128d5760405162461bcd60e51b81526004016104ac9061432a565b6001600160a01b038b166000908152600960205260408120906112b08d8c61196b565b905060006040518060c001604052808e815260200160405180602001604052806000815250815260200160015481526020016040518060400160405280600b81526020016a436572746966696361746560a81b815250815260200183815260200160001515815250905060008360000160008e6001600160a01b03166001600160a01b03168152602001908152602001600020905073__ItemsLibrary__________________________637493a70b8383306040518463ffffffff1660e01b81526004016106c29392919061440a565b61096181600054613131565b600454610100900460ff16806113a5575060045460ff16155b6113c15760405162461bcd60e51b81526004016104ac90614365565b600454610100900460ff161580156113e3576004805461ffff19166101011790555b848651808211156114065760405162461bcd60e51b81526004016104ac906142ee565b6000871161143f5760405162461bcd60e51b81526004016104ac906020808252600490820152634543313760e01b604082015260600190565b845186146114785760405162461bcd60e51b81526004016104ac9060208082526004908201526308a8662760e31b604082015260600190565b60008481555b868110156114ee5760028054600101815560005285516003908790839081106114a9576114a96145f1565b602090810291909101810151825460018101845560009384529282902081516114db949190910192919091019061378a565b50806114e6816145c0565b91505061147e565b50600187905560005b885181101561163157600073__AddressLibrary________________________63bc215e858b848151811061152e5761152e6145f1565b60200260200101516040518263ffffffff1660e01b815260040161155291906140a6565b60206040518083038186803b15801561156a57600080fd5b505af415801561157e573d6000803e3d6000fd5b505050506040513d601f19601f820116820180604052508101906115a29190613f06565b905060016002600054815481106115bb576115bb6145f1565b60009182526020808320858452600492909202909101905260408120805460ff191692151592909217909155546002805490919081106115fd576115fd6145f1565b6000918252602080832060016004909302018201805492830181558352909120015580611629816145c0565b9150506114f7565b5050508015611646576004805461ff00191690555b505050505050565b610961816001612878565b610961816001613131565b60025460405163123bd07560e11b8152600091839173__Library_______________________________90632477a0ea906116a5908590859060040161428d565b60206040518083038186803b1580156116bd57600080fd5b505af41580156116d1573d6000803e3d6000fd5b505050506040513d601f19601f820116820180604052508101906116f59190613ee9565b15156001146117165760405162461bcd60e51b81526004016104ac906143d0565b60405163bc215e8560e01b815260009073__AddressLibrary________________________9063bc215e85906117509089906004016140a6565b60206040518083038186803b15801561176857600080fd5b505af415801561177c573d6000803e3d6000fd5b505050506040513d601f19601f820116820180604052508101906117a09190613f06565b905073__ItemsLibrary__________________________63dbdfbeec82600288815481106117d0576117d06145f1565b90600052602060002090600402016040518363ffffffff1660e01b81526004016117fb92919061428d565b60206040518083038186803b15801561181357600080fd5b505af4158015611827573d6000803e3d6000fd5b505050506040513d601f19601f8201168201806040525081019061184b9190613ee9565b9695505050505050565b6001600160a01b0380841660009081526009602090815260408083209385168352929052818120915162136bb360e11b8152909173__ItemsLibrary__________________________916226d766916118b39187919060040161428d565b60206040518083038186803b1580156118cb57600080fd5b505af41580156118df573d6000803e3d6000fd5b505050506040513d601f19601f820116820180604052508101906119039190613ee9565b949350505050565b6001600160a01b0380841660009081526009602090815260408083209385168352929052818120915163142a769760e11b8152909173__ItemsLibrary__________________________91632854ed2e916118b39187919060040161428d565b60408051600380825260808201909252606091600091906020820184803683370190505090506002816000815181106119a6576119a66145f1565b602090810291909101015260405163cf0668ed60e01b815273__AddressLibrary________________________9063cf0668ed906119e89087906004016140a6565b60206040518083038186803b158015611a0057600080fd5b505af4158015611a14573d6000803e3d6000fd5b505050506040513d601f19601f82011682018060405250810190611a389190613f06565b81600181518110611a4b57611a4b6145f1565b602090810291909101015260405163cf0668ed60e01b815273__AddressLibrary________________________9063cf0668ed90611a8d9086906004016140a6565b60206040518083038186803b158015611aa557600080fd5b505af4158015611ab9573d6000803e3d6000fd5b505050506040513d601f19601f82011682018060405250810190611add9190613f06565b81600281518110611af057611af06145f1565b60209081029190910101529392505050565b60025460405163123bd07560e11b8152606091839173__Library_______________________________90632477a0ea90611b43908590859060040161428d565b60206040518083038186803b158015611b5b57600080fd5b505af4158015611b6f573d6000803e3d6000fd5b505050506040513d601f19601f82011682018060405250810190611b939190613ee9565b1515600114611bb45760405162461bcd60e51b81526004016104ac906143d0565b73__AddressLibrary________________________6391421b1173__ItemsLibrary__________________________6327724f4b60028881548110611bfb57611bfb6145f1565b90600052602060002090600402016040518263ffffffff1660e01b8152600401611c2791815260200190565b60006040518083038186803b158015611c3f57600080fd5b505af4158015611c53573d6000803e3d6000fd5b505050506040513d6000823e601f3d908101601f19168201604052611c7b9190810190613dbe565b6040518263ffffffff1660e01b8152600401611c979190614219565b60006040518083038186803b158015611caf57600080fd5b505af4158015611cc3573d6000803e3d6000fd5b505050506040513d6000823e601f3d908101601f191682016040526119039190810190613bbd565b60025460405163123bd07560e11b815282919073__Library_______________________________90632477a0ea90611d2a908590859060040161428d565b60206040518083038186803b158015611d4257600080fd5b505af4158015611d56573d6000803e3d6000fd5b505050506040513d601f19601f82011682018060405250810190611d7a9190613ee9565b1515600114611d9b5760405162461bcd60e51b81526004016104ac906143d0565b611da733600054611664565b1515600114611dc85760405162461bcd60e51b81526004016104ac906143b3565b60018484611dd68282611664565b1515600114611e0d5760405162461bcd60e51b815260206004820152600360248201526245433760e81b60448201526064016104ac565b60008787611e1b828261270c565b15611e385760405162461bcd60e51b81526004016104ac9061430c565b60405163bc215e8560e01b815260009073__AddressLibrary________________________9063bc215e8590611e72908e906004016140a6565b60206040518083038186803b158015611e8a57600080fd5b505af4158015611e9e573d6000803e3d6000fd5b505050506040513d601f19601f82011682018060405250810190611ec29190613f06565b60408051600180825281830190925291925060009190602080830190803683370190505090508a81600081518110611efc57611efc6145f1565b60200260200101818152505060006040518060c00160405280848152602001604051806020016040528060008152508152602001600154815260200160038e81548110611f4b57611f4b6145f1565b906000526020600020018054611f6090614585565b80601f0160208091040260200160405190810160405280929190818152602001828054611f8c90614585565b8015611fd95780601f10611fae57610100808354040283529160200191611fd9565b820191906000526020600020905b815481529060010190602001808311611fbc57829003601f168201915b50505050508152602001838152602001600115158152509050600060028d81548110612007576120076145f1565b9060005260206000209060040201905073__ItemsLibrary__________________________63e23fcdef8383306040518463ffffffff1660e01b81526004016120529392919061440a565b60006040518083038186803b15801561206a57600080fd5b505af415801561207e573d6000803e3d6000fd5b505050505050505050505050505050505050565b60025460405163123bd07560e11b815282919073__Library_______________________________90632477a0ea906120d1908590859060040161428d565b60206040518083038186803b1580156120e957600080fd5b505af41580156120fd573d6000803e3d6000fd5b505050506040513d601f19601f820116820180604052508101906121219190613ee9565b15156001146121425760405162461bcd60e51b81526004016104ac906143d0565b61214e33600054611664565b151560011461216f5760405162461bcd60e51b81526004016104ac906143b3565b6000868461217d8282611664565b1561219a5760405162461bcd60e51b81526004016104ac906143ed565b600089876121a882826135c2565b156121c55760405162461bcd60e51b81526004016104ac9061430c565b600073__AddressLibrary________________________63bc215e858e6040518263ffffffff1660e01b81526004016121fe91906140a6565b60206040518083038186803b15801561221657600080fd5b505af415801561222a573d6000803e3d6000fd5b505050506040513d601f19601f8201168201806040525081019061224e9190613f06565b60408051600180825281830190925291925060009190602080830190803683370190505090508a81600081518110612288576122886145f1565b60200260200101818152505060006040518060c001604052808481526020018f8f8080601f0160208091040260200160405190810160405280939291908181526020018383808284376000920191909152505050908252506001546020820152600380546040909201918f908110612302576123026145f1565b90600052602060002001805461231790614585565b80601f016020809104026020016040519081016040528092919081815260200182805461234390614585565b80156123905780601f1061236557610100808354040283529160200191612390565b820191906000526020600020905b81548152906001019060200180831161237357829003601f168201915b50505050508152602001838152602001600115158152509050600060028d815481106123be576123be6145f1565b9060005260206000209060040201905073__ItemsLibrary__________________________630b985aaa8383306040518463ffffffff1660e01b81526004016108959392919061440a565b604051630d1d719d60e41b8152309073__Library_______________________________9063d1d719d0906124429084906004016140a6565b60206040518083038186803b15801561245a57600080fd5b505af415801561246e573d6000803e3d6000fd5b505050506040513d601f19601f820116820180604052508101906124929190613ee9565b1515600114610a2e5760405162461bcd60e51b815260206004820152600360248201526208a86760eb1b60448201526064016104ac565b6001600160a01b03166000908152600760209081526040808320805460ff19169055600582528083208390556006909152812055565b60025460405163123bd07560e11b8152606091829184919073__Library_______________________________90632477a0ea90612543908590859060040161428d565b60206040518083038186803b15801561255b57600080fd5b505af415801561256f573d6000803e3d6000fd5b505050506040513d601f19601f820116820180604052508101906125939190613ee9565b15156001146125b45760405162461bcd60e51b81526004016104ac906143d0565b60608073__ItemsLibrary__________________________63e035e0068960028a815481106125e5576125e56145f1565b90600052602060002090600402016040518363ffffffff1660e01b815260040161261b9291909115158252602082015260400190565b60006040518083038186803b15801561263357600080fd5b505af4158015612647573d6000803e3d6000fd5b505050506040513d6000823e601f3d908101601f1916820160405261266f9190810190613df2565b6040516391421b1160e01b8152919350915073__AddressLibrary________________________906391421b11906126ab908590600401614219565b60006040518083038186803b1580156126c357600080fd5b505af41580156126d7573d6000803e3d6000fd5b505050506040513d6000823e601f3d908101601f191682016040526126ff9190810190613bbd565b9890975095505050505050565b60025460405163123bd07560e11b8152600091839173__Library_______________________________90632477a0ea9061274d908590859060040161428d565b60206040518083038186803b15801561276557600080fd5b505af4158015612779573d6000803e3d6000fd5b505050506040513d601f19601f8201168201806040525081019061279d9190613ee9565b15156001146127be5760405162461bcd60e51b81526004016104ac906143d0565b60405163bc215e8560e01b815260009073__AddressLibrary________________________9063bc215e85906127f89089906004016140a6565b60206040518083038186803b15801561281057600080fd5b505af4158015612824573d6000803e3d6000fd5b505050506040513d601f19601f820116820180604052508101906128489190613f06565b905073__ItemsLibrary__________________________632854ed2e82600288815481106117d0576117d06145f1565b60025460405163123bd07560e11b815282919073__Library_______________________________90632477a0ea906128b7908590859060040161428d565b60206040518083038186803b1580156128cf57600080fd5b505af41580156128e3573d6000803e3d6000fd5b505050506040513d601f19601f820116820180604052508101906129079190613ee9565b15156001146129285760405162461bcd60e51b81526004016104ac906143d0565b61293433600054611664565b15156001146129555760405162461bcd60e51b81526004016104ac906143b3565b6001848461296382826135c2565b15156001148061297e5750612978828261270c565b15156001145b61299a5760405162461bcd60e51b81526004016104ac90614347565b8686600073__AddressLibrary________________________63bc215e85846040518263ffffffff1660e01b81526004016129d591906140a6565b60206040518083038186803b1580156129ed57600080fd5b505af4158015612a01573d6000803e3d6000fd5b505050506040513d601f19601f82011682018060405250810190612a259190613f06565b905073__ItemsLibrary__________________________637b6d23de338360028681548110612a5657612a566145f1565b90600052602060002090600402016040518463ffffffff1660e01b8152600401612a82939291906140ba565b60206040518083038186803b158015612a9a57600080fd5b505af4158015612aae573d6000803e3d6000fd5b505050506040513d601f19601f82011682018060405250810190612ad29190613ee9565b15612aef5760405162461bcd60e51b81526004016104ac9061432a565b60405163bc215e8560e01b815260009073__AddressLibrary________________________9063bc215e8590612b29908e906004016140a6565b60206040518083038186803b158015612b4157600080fd5b505af4158015612b55573d6000803e3d6000fd5b505050506040513d601f19601f82011682018060405250810190612b799190613f06565b60408051600180825281830190925291925060009190602080830190803683370190505090508a81600081518110612bb357612bb36145f1565b60200260200101818152505060006040518060c00160405280848152602001604051806020016040528060008152508152602001600154815260200160038e81548110612c0257612c026145f1565b906000526020600020018054612c1790614585565b80601f0160208091040260200160405190810160405280929190818152602001828054612c4390614585565b8015612c905780601f10612c6557610100808354040283529160200191612c90565b820191906000526020600020905b815481529060010190602001808311612c7357829003601f168201915b50505050508152602001838152602001600115158152509050600060028d81548110612cbe57612cbe6145f1565b9060005260206000209060040201905073__ItemsLibrary__________________________637493a70b8383306040518463ffffffff1660e01b81526004016120529392919061440a565b60025460405163123bd07560e11b815260609160009184919073__Library_______________________________90632477a0ea90612d4e908590859060040161428d565b60206040518083038186803b158015612d6657600080fd5b505af4158015612d7a573d6000803e3d6000fd5b505050506040513d601f19601f82011682018060405250810190612d9e9190613ee9565b1515600114612dbf5760405162461bcd60e51b81526004016104ac906143d0565b60405163bc215e8560e01b815260009073__AddressLibrary________________________9063bc215e8590612df9908a906004016140a6565b60206040518083038186803b158015612e1157600080fd5b505af4158015612e25573d6000803e3d6000fd5b505050506040513d601f19601f82011682018060405250810190612e499190613f06565b905073__ItemsLibrary__________________________631aeccc6a8260028981548110612e7957612e796145f1565b90600052602060002090600402016040518363ffffffff1660e01b8152600401612ea492919061428d565b60006040518083038186803b158015612ebc57600080fd5b505af4158015612ed0573d6000803e3d6000fd5b505050506040513d6000823e601f3d908101601f19168201604052612ef89190810190613fb0565b945094505050509250929050565b82612f1081610a36565b1515600114612f1e57600080fd5b6001600160a01b0384166000818152600560205260409081902054905163035700ff60e31b8152869291631ab807f891612f5e908890889060040161425d565b6000604051808303818588803b158015612f7757600080fd5b505af1158015612f8b573d6000803e3d6000fd5b5050506001600160a01b03808816600090815260096020908152604080832093891683529290528190209051631580989f60e11b815290925073__Library_______________________________9150635b28cf63908290632b01313e90612ffc908a906001880190600401614274565b60206040518083038186803b15801561301457600080fd5b505af4158015613028573d6000803e3d6000fd5b505050506040513d601f19601f8201168201806040525081019061304c9190613f06565b836001016040518363ffffffff1660e01b815260040161306d929190614274565b60006040518083038186803b15801561308557600080fd5b505af4158015613099573d6000803e3d6000fd5b505050506040513d6000823e601f3d908101601f191682016040526130c19190810190613dbe565b80516130d791600184019160209091019061380a565b506000858152602082905260408120805460ff19168155906130fc6001830182613844565b61310a60028301600061387e565b61311860038301600061387e565b5050505050505050565b60606000610a52836001612d09565b60025460405163123bd07560e11b815282919073__Library_______________________________90632477a0ea90613170908590859060040161428d565b60206040518083038186803b15801561318857600080fd5b505af415801561319c573d6000803e3d6000fd5b505050506040513d601f19601f820116820180604052508101906131c09190613ee9565b15156001146131e15760405162461bcd60e51b81526004016104ac906143d0565b6131ed33600054611664565b151560011461320e5760405162461bcd60e51b81526004016104ac906143b3565b6001848461321c82826135c2565b1515600114806132375750613231828261270c565b15156001145b6132535760405162461bcd60e51b81526004016104ac90614347565b8686600073__AddressLibrary________________________63bc215e85846040518263ffffffff1660e01b815260040161328e91906140a6565b60206040518083038186803b1580156132a657600080fd5b505af41580156132ba573d6000803e3d6000fd5b505050506040513d601f19601f820116820180604052508101906132de9190613f06565b905073__ItemsLibrary__________________________637b6d23de33836002868154811061330f5761330f6145f1565b90600052602060002090600402016040518463ffffffff1660e01b815260040161333b939291906140ba565b60206040518083038186803b15801561335357600080fd5b505af4158015613367573d6000803e3d6000fd5b505050506040513d601f19601f8201168201806040525081019061338b9190613ee9565b156133a85760405162461bcd60e51b81526004016104ac9061432a565b60405163bc215e8560e01b815260009073__AddressLibrary________________________9063bc215e85906133e2908e906004016140a6565b60206040518083038186803b1580156133fa57600080fd5b505af415801561340e573d6000803e3d6000fd5b505050506040513d601f19601f820116820180604052508101906134329190613f06565b60408051600180825281830190925291925060009190602080830190803683370190505090508a8160008151811061346c5761346c6145f1565b60200260200101818152505060006040518060c00160405280848152602001604051806020016040528060008152508152602001600154815260200160038e815481106134bb576134bb6145f1565b9060005260206000200180546134d090614585565b80601f01602080910402602001604051908101604052809291908181526020018280546134fc90614585565b80156135495780601f1061351e57610100808354040283529160200191613549565b820191906000526020600020905b81548152906001019060200180831161352c57829003601f168201915b50505050508152602001838152602001600115158152509050600060028d81548110613577576135776145f1565b9060005260206000209060040201905073__ItemsLibrary__________________________635cb09bcf8383306040518463ffffffff1660e01b81526004016120529392919061440a565b60025460405163123bd07560e11b8152600091839173__Library_______________________________90632477a0ea90613603908590859060040161428d565b60206040518083038186803b15801561361b57600080fd5b505af415801561362f573d6000803e3d6000fd5b505050506040513d601f19601f820116820180604052508101906136539190613ee9565b15156001146136745760405162461bcd60e51b81526004016104ac906143d0565b60405163bc215e8560e01b815260009073__AddressLibrary________________________9063bc215e85906136ae9089906004016140a6565b60206040518083038186803b1580156136c657600080fd5b505af41580156136da573d6000803e3d6000fd5b505050506040513d601f19601f820116820180604052508101906136fe9190613f06565b905073__ItemsLibrary__________________________6226d76682600288815481106117d0576117d06145f1565b82805482825590600052602060002090810192821561377a579160200282015b8281111561377a578251805161376a91849160209091019061378a565b509160200191906001019061374d565b5061378692915061389c565b5090565b82805461379690614585565b90600052602060002090601f0160209004810192826137b857600085556137fe565b82601f106137d157805160ff19168380011785556137fe565b828001600101855582156137fe579182015b828111156137fe5782518255916020019190600101906137e3565b506137869291506138b9565b8280548282559060005260206000209081019282156137fe57916020028201828111156137fe5782518255916020019190600101906137e3565b50805461385090614585565b6000825580601f10613860575050565b601f01602090049060005260206000209081019061096191906138b9565b508054600082559060005260206000209081019061096191906138b9565b808211156137865760006138b08282613844565b5060010161389c565b5b8082111561378657600081556001016138ba565b600082601f8301126138df57600080fd5b813560206138f46138ef836144f8565b6144c8565b80838252828201915082860187848660051b890101111561391457600080fd5b60005b8581101561393c57813561392a8161461d565b84529284019290840190600101613917565b5090979650505050505050565b600082601f83011261395a57600080fd5b8151602061396a6138ef836144f8565b80838252828201915082860187848660051b890101111561398a57600080fd5b60005b8581101561393c5781518452928401929084019060010161398d565b60008083601f8401126139bb57600080fd5b5081356001600160401b038111156139d257600080fd5b6020830191508360208285010111156139ea57600080fd5b9250929050565b600082601f830112613a0257600080fd5b8135613a106138ef8261451b565b818152846020838601011115613a2557600080fd5b816020850160208301376000918101602001919091529392505050565b600082601f830112613a5357600080fd5b8151613a616138ef8261451b565b818152846020838601011115613a7657600080fd5b611903826020830160208701614559565b600060208284031215613a9957600080fd5b81356110ac8161461d565b600060208284031215613ab657600080fd5b81516110ac8161461d565b600080600060608486031215613ad657600080fd5b8335613ae18161461d565b9250602084013591506040840135613af88161461d565b809150509250925092565b600080600060408486031215613b1857600080fd5b8335613b238161461d565b925060208401356001600160401b03811115613b3e57600080fd5b613b4a868287016139a9565b9497909650939450505050565b600080600080600060808688031215613b6f57600080fd5b8535613b7a8161461d565b945060208601356001600160401b03811115613b9557600080fd5b613ba1888289016139a9565b9699909850959660408101359660609091013595509350505050565b60006020808385031215613bd057600080fd5b82516001600160401b03811115613be657600080fd5b8301601f81018513613bf757600080fd5b8051613c056138ef826144f8565b80828252848201915084840188868560051b8701011115613c2557600080fd5b600094505b83851015613c51578051613c3d8161461d565b835260019490940193918501918501613c2a565b50979650505050505050565b600080600060608486031215613c7257600080fd5b83356001600160401b0380821115613c8957600080fd5b613c95878388016138ce565b9450602086013593506040860135915080821115613cb257600080fd5b50613cbf868287016139f1565b9150509250925092565b600080600080600060a08688031215613ce157600080fd5b85356001600160401b0380821115613cf857600080fd5b613d0489838a016138ce565b96506020915081880135955060408801359450606088013581811115613d2957600080fd5b8801601f81018a13613d3a57600080fd5b8035613d486138ef826144f8565b8082825285820191508584018d878560051b8701011115613d6857600080fd5b60005b84811015613da2578682351115613d8157600080fd5b613d908f8984358901016139f1565b84529287019290870190600101613d6b565b5050809750505050505050608086013590509295509295909350565b600060208284031215613dd057600080fd5b81516001600160401b03811115613de657600080fd5b61190384828501613949565b60008060408385031215613e0557600080fd5b82516001600160401b0380821115613e1c57600080fd5b613e2886838701613949565b9350602091508185015181811115613e3f57600080fd5b8501601f81018713613e5057600080fd5b8051613e5e6138ef826144f8565b8082825285820191508584018a878560051b8701011115613e7e57600080fd5b6000805b85811015613eb957825188811115613e98578283fd5b613ea68e8b838b0101613a42565b8652509388019391880191600101613e82565b5050508096505050505050509250929050565b600060208284031215613ede57600080fd5b81356110ac81614632565b600060208284031215613efb57600080fd5b81516110ac81614632565b600060208284031215613f1857600080fd5b5051919050565b60008060008060608587031215613f3557600080fd5b8435935060208501356001600160401b0380821115613f5357600080fd5b818701915087601f830112613f6757600080fd5b813581811115613f7657600080fd5b8860208260051b8501011115613f8b57600080fd5b6020830195508094505050506040850135613fa581614632565b939692955090935050565b60008060408385031215613fc357600080fd5b82516001600160401b03811115613fd957600080fd5b613fe585828601613a42565b9250506020830151613ff681614632565b809150509250929050565b600081518084526020808501945080840160005b8381101561403a5781516001600160a01b031687529582019590820190600101614015565b509495945050505050565b6000815480845260208085019450836000528060002060005b8381101561403a5781548752958201956001918201910161405e565b60008151808452614092816020860160208601614559565b601f01601f19169290920160200192915050565b6001600160a01b0391909116815260200190565b6001600160a01b039390931683526020830191909152604082015260600190565b60018060a01b0383168152600060206040818401526000845481600182811c91508083168061410b57607f831692505b85831081141561412957634e487b7160e01b85526022600452602485fd5b6040880183905260608801818015614148576001811461415957614184565b60ff19861682528782019650614184565b60008b81526020902060005b8681101561417e57815484820152908501908901614165565b83019750505b50949a9950505050505050505050565b6020815260006110ac6020830184614001565b6040815260006141ba6040830185614001565b6020838203818501528185518084528284019150828160051b85010183880160005b8381101561420a57601f198784030185526141f883835161407a565b948601949250908501906001016141dc565b50909998505050505050505050565b6020808252825182820181905260009190848201906040850190845b8181101561425157835183529284019291840191600101614235565b50909695505050505050565b9182526001600160a01b0316602082015260400190565b8281526040602082015260006119036040830184614045565b918252602082015260400190565b6040815260006142ae604083018561407a565b905082151560208301529392505050565b6080815260006142d2608083018761407a565b9415156020830152506040810192909252606090910152919050565b6020808252600490820152634543313960e01b604082015260600190565b6020808252600490820152634543323760e01b604082015260600190565b60208082526003908201526245433560e81b604082015260600190565b60208082526004908201526308a8664760e31b604082015260600190565b6020808252602e908201527f496e697469616c697a61626c653a20636f6e747261637420697320616c72656160408201526d191e481a5b9a5d1a585b1a5e995960921b606082015260800190565b60208082526003908201526245433960e81b604082015260600190565b60208082526003908201526245433160e81b604082015260600190565b60208082526003908201526222a19b60e91b604082015260600190565b6060815283516060820152600060208086015160c0608085015261443261012085018261407a565b9050604087015160a08501526060870151605f19808684030160c087015261445a838361407a565b60808a015187820390920160e088015281518082529185019350600092508401905b8083101561449c578351825292840192600192909201919084019061447c565b5060a0890151151561010087015292850187905250506001600160a01b03841660408401529050611903565b604051601f8201601f191681016001600160401b03811182821017156144f0576144f0614607565b604052919050565b60006001600160401b0382111561451157614511614607565b5060051b60200190565b60006001600160401b0382111561453457614534614607565b50601f01601f191660200190565b600082821015614554576145546145db565b500390565b60005b8381101561457457818101518382015260200161455c565b83811115610a305750506000910152565b600181811c9082168061459957607f821691505b602082108114156145ba57634e487b7160e01b600052602260045260246000fd5b50919050565b60006000198214156145d4576145d46145db565b5060010190565b634e487b7160e01b600052601160045260246000fd5b634e487b7160e01b600052603260045260246000fd5b634e487b7160e01b600052604160045260246000fd5b6001600160a01b038116811461096157600080fd5b801515811461096157600080fdfea2646970667358221220dbb954c10dc4d03bf4a160468c73f9c9662e25860d6faa926668a60cc66fc87264736f6c63430008060033",
  "immutableReferences": {},
  "source": "// SPDX-License-Identifier: GPL-3.0\r\n\r\npragma solidity >=0.7.0 <0.9.0;\r\npragma experimental ABIEncoderV2;\r\n\r\n/**\r\n * @title Storage\r\n * @dev Store & retrieve value in a variable\r\n */\r\n import \"../Libraries/Library.sol\";\r\n import \"../Interfaces/IProvider.sol\";\r\n import \"../Interfaces/IPool.sol\";\r\n import \"../Abstract/MultiSigContract.sol\";\r\n import \"../Libraries/ItemsLibrary.sol\";\r\n import \"../Libraries/AddressLibrary.sol\";\r\n import \"@openzeppelin/contracts-upgradeable/proxy/utils/Initializable.sol\";\r\n\r\n contract Provider is IProvider, Initializable, MultiSigContract {\r\n    using Library for *;\r\n    using AddressLibrary for *;\r\n    using ItemsLibrary for *;\r\n\r\n    // DATA /////////////////////////////////////////\r\n    uint256 constant _TotalEntities = 2;\r\n\r\n    // Owners\r\n    uint256 constant _ownerIdProviders = 0;\r\n    string constant _ownerLabel = \"Owner\";\r\n\r\n    // Pools\r\n    uint256 constant _poolId = 1;\r\n    string constant _poolLabel = \"Pool\";\r\n\r\n    mapping(address => uint256) _AddCertificatePricePerPool;\r\n    mapping(address => uint256) _SubscriptionPricePerPool;\r\n    mapping(address => bool) _submited;\r\n\r\n\r\n    // Certificates\r\n    uint256 constant _certId = 2;\r\n    string constant _certLabel = \"Certificate\";\r\n\r\n    string[] _Label;\r\n    \r\n    struct _CertificatesPerHolderStruct{\r\n        mapping(address => ItemsLibrary._ItemsStruct) _CertificatesPerHolder;\r\n    }\r\n   \r\n    mapping(address => _CertificatesPerHolderStruct) _CertificatesPerPool;\r\n    \r\n    // Provider\r\n    string _ProviderInfo;\r\n\r\n    // MODIFIERS /////////////////////////////////////////\r\n    modifier isAPool(address pool){\r\n        require(true == isPool(pool));\r\n        _;\r\n    }\r\n\r\n    modifier isCertificateActivated(bool YesOrNo, bytes32 cert, address pool, address holder){\r\n        if(false == YesOrNo) require(false == isCertificate(pool, cert, holder), \"EC6\");\r\n        else require(true == isCertificate(pool, cert, holder), \"EC7\");\r\n        _;\r\n    }\r\n\r\n    modifier isCertificatePending(bool YesOrNo, bytes32 cert, address pool, address holder){\r\n        if(false == YesOrNo) require(false == isCertificatePendingToAdded(pool, cert, holder) && \r\n                                    false == isCertificatePendingToRemoved(pool, cert, holder), \"EC27\");\r\n        else require(true == isCertificatePendingToAdded(pool, cert, holder) || \r\n                    true == isCertificatePendingToRemoved(pool, cert, holder), \"EC28\");\r\n        _;\r\n    }\r\n\r\n    modifier isCertificatePendingToAdd(bool YesOrNo, bytes32 cert, address pool, address holder){\r\n        if(false == YesOrNo) require(false == isCertificatePendingToAdded(pool, cert, holder), \"EC27\");\r\n        else require(true == isCertificatePendingToAdded(pool, cert, holder), \"EC28\");\r\n        _;\r\n    }\r\n\r\n    modifier isCertificatePendingToRemove(bool YesOrNo, bytes32 cert, address pool, address holder){\r\n        if(false == YesOrNo) require(false == isCertificatePendingToRemoved(pool, cert, holder), \"EC27\");\r\n        else require(true == isCertificatePendingToRemoved(pool, cert, holder), \"EC28\");\r\n        _;\r\n    }\r\n\r\n    modifier HasNotAlreadyVotedForCertificate(bytes32 cert, address pool, address holder){\r\n        require(false == ItemsLibrary.hasVoted(msg.sender, cert, _CertificatesPerPool[pool]._CertificatesPerHolder[holder]), \"EC5\");\r\n        _;\r\n    }\r\n\r\n     // CONSTRUCTOR /////////////////////////////////////////\r\n    function Provider_init(address[] memory owners,  uint256 minOwners, string memory ProviderInfo) public initializer \r\n    {\r\n        _Label = new string[](2);\r\n        _Label[0] = _ownerLabel;\r\n        _Label[1] = _poolLabel;\r\n\r\n        super.MultiSigContract_init(owners, minOwners, _TotalEntities, _Label, _ownerIdProviders); \r\n        _ProviderInfo = ProviderInfo;\r\n    }\r\n\r\n    // FUNCTIONALITY /////////////////////////////////////////\r\n    function addPool(address pool, string calldata poolInfo, uint256 AddCertificatePrice, uint256 SubscriptionPrice) external override{\r\n        addEntity(pool, poolInfo, _poolId);\r\n        if(false == _submited[pool]){\r\n            _AddCertificatePricePerPool[pool] = AddCertificatePrice;\r\n            _SubscriptionPricePerPool[pool] = SubscriptionPrice;\r\n            _submited[pool] = true;\r\n        }\r\n    }\r\n\r\n    function removePool(address pool) external override\r\n    {\r\n       removeEntity(pool, _poolId); \r\n    }\r\n\r\n    function validatePool(address pool) external override\r\n    {\r\n        validateEntity(pool, _poolId);\r\n    }\r\n\r\n    function rejectPool(address pool) external override\r\n    {\r\n        rejectEntity(pool, _poolId);\r\n    }\r\n\r\n    function removePricesForPool(address pool) internal\r\n    {\r\n        delete(_submited[pool]);\r\n        delete(_AddCertificatePricePerPool[pool]);\r\n        delete(_SubscriptionPricePerPool[pool]);\r\n    }\r\n    \r\n    function retrievePool(address pool) external override view returns (string memory, bool, uint256, uint256)\r\n    {\r\n        string memory poolInfo;\r\n        bool isActivated;\r\n\r\n        (poolInfo, isActivated) = InternalRetrievePool(pool);\r\n        return (poolInfo, isActivated, _AddCertificatePricePerPool[pool], _SubscriptionPricePerPool[pool]);\r\n    }\r\n    \r\n    function InternalRetrievePool(address pool) internal view returns (string memory, bool)\r\n    {\r\n        return retrieveEntity(pool, _poolId);\r\n    }\r\n\r\n    function retrieveAllPools() external override view returns (address[] memory)\r\n    {\r\n        return retrieveAllEntities(_poolId);\r\n    }\r\n\r\n    function isPool(address pool) public view returns (bool)\r\n    {\r\n        return(isEntity(pool, _poolId));\r\n    }\r\n    \r\n    // Certificates management\r\n    function extractCertIds(address pool, address holder) internal pure returns(uint[] memory)\r\n    {\r\n        uint[] memory certIdIdArray = new uint[](3);\r\n        certIdIdArray[0] = _certId;\r\n        certIdIdArray[1] = AddressLibrary.AddressToUint(pool);\r\n        certIdIdArray[2] = AddressLibrary.AddressToUint(holder);\r\n\r\n        return(certIdIdArray);\r\n    }\r\n\r\n     function addCertificate(address pool, bytes32 CertificateHash, address holder) external override\r\n        isAPool(pool)\r\n        isAnOwner\r\n        isCertificateActivated(false, CertificateHash, pool, holder) \r\n        isCertificatePendingToAdd(false, CertificateHash, pool, holder)\r\n     {\r\n        _CertificatesPerHolderStruct storage hs = _CertificatesPerPool[pool];\r\n        uint[] memory certIdIdArray = extractCertIds(pool, holder);\r\n        ItemsLibrary._manipulateItemStruct memory manipulateItemStruct = ItemsLibrary._manipulateItemStruct(CertificateHash, \"\", _minOwners, _certLabel, certIdIdArray, false);\r\n        ItemsLibrary._ItemsStruct storage itemsstruct =  hs._CertificatesPerHolder[holder];\r\n        ItemsLibrary.addItem(manipulateItemStruct,itemsstruct, address(this));\r\n     }\r\n\r\n     function validateCertificate(address pool, bytes32 CertificateHash, address holder) external override\r\n        isAPool(pool)\r\n        isAnOwner\r\n        isCertificatePending(true, CertificateHash, pool, holder)\r\n        HasNotAlreadyVotedForCertificate(CertificateHash, pool, holder)\r\n     {\r\n        _CertificatesPerHolderStruct storage hs = _CertificatesPerPool[pool];\r\n        uint[] memory certIdIdArray = extractCertIds(pool, holder);\r\n        ItemsLibrary._manipulateItemStruct memory manipulateItemStruct = ItemsLibrary._manipulateItemStruct(CertificateHash, \"\", _minOwners, _certLabel, certIdIdArray, false);\r\n        ItemsLibrary._ItemsStruct storage itemsstruct =  hs._CertificatesPerHolder[holder];\r\n        ItemsLibrary.validateItem(manipulateItemStruct, itemsstruct, address(this));\r\n     }\r\n\r\n     function rejectCertificate(address pool, bytes32 CertificateHash, address holder) external override\r\n        isAPool(pool)\r\n        isAnOwner\r\n        isCertificatePending(true, CertificateHash, pool, holder)\r\n        HasNotAlreadyVotedForCertificate(CertificateHash, pool, holder)\r\n     {\r\n        _CertificatesPerHolderStruct storage hs = _CertificatesPerPool[pool];\r\n        uint[] memory certIdIdArray = extractCertIds(pool, holder);\r\n        ItemsLibrary._manipulateItemStruct memory manipulateItemStruct = ItemsLibrary._manipulateItemStruct(CertificateHash, \"\", _minOwners, _certLabel, certIdIdArray, false);\r\n        ItemsLibrary._ItemsStruct storage itemsstruct =  hs._CertificatesPerHolder[holder];\r\n        ItemsLibrary.rejectItem(manipulateItemStruct, itemsstruct, address(this));\r\n     }\r\n \r\n    function manipulateCertificate(address pool, bytes32 CertificateHash, address holder) internal\r\n        isAPool(pool)\r\n    {\r\n        IPool poolToSend = IPool(pool);\r\n\r\n        poolToSend.addCertificate{value:_AddCertificatePricePerPool[pool]}(CertificateHash, holder);\r\n\r\n        ItemsLibrary._ItemsStruct storage itemStruct = _CertificatesPerPool[pool]._CertificatesPerHolder[holder];\r\n\r\n        itemStruct._activatedItems = Library.ArrayRemoveResize(Library.FindPosition(CertificateHash, itemStruct._activatedItems), itemStruct._activatedItems);\r\n        delete(itemStruct._items[CertificateHash]);   \r\n    }\r\n\r\n    function isCertificate(address pool, bytes32 CertificateHash, address holder) public view returns(bool)\r\n    {\r\n        IPool poolToCheck = IPool(pool);\r\n        address provider = poolToCheck.retrieveCertificateProvider(CertificateHash, holder);\r\n        if(provider == address(this)) return true;\r\n        return false;\r\n    }\r\n\r\n    function isCertificatePendingToAdded(address pool, bytes32 CertificateHash, address holder) internal view returns(bool)\r\n    {\r\n        return ItemsLibrary.isItemPendingToAdded(CertificateHash, _CertificatesPerPool[pool]._CertificatesPerHolder[holder]);\r\n    }\r\n\r\n    function isCertificatePendingToRemoved(address pool, bytes32 CertificateHash, address holder) internal view returns(bool)\r\n    {\r\n        return ItemsLibrary.isItemPendingToRemoved(CertificateHash, _CertificatesPerPool[pool]._CertificatesPerHolder[holder]);\r\n    }\r\n\r\n    receive() external override payable{}\r\n\r\n    // CALLBACKS /////////////////////////////////////////\r\n    function onItemValidated(bytes32 item, uint256[] calldata ids, bool addOrRemove) public override  \r\n    {\r\n        super.onItemValidated(item, ids, addOrRemove);\r\n\r\n        if(ids[0] == _poolId){\r\n            address pool = AddressLibrary.Bytes32ToAddress(item);\r\n\r\n            if(false == addOrRemove)removePricesForPool(pool);\r\n            else{\r\n                IPool poolToSubscribe = IPool(pool);\r\n                poolToSubscribe.addProvider{value:_SubscriptionPricePerPool[pool]}(address(this), _ProviderInfo);\r\n            }\r\n        }\r\n        else if(ids[0] == _certId){\r\n            manipulateCertificate(AddressLibrary.UintToAddress(ids[1]), item, AddressLibrary.UintToAddress(ids[2]));\r\n        }\r\n    }\r\n\r\n    function onItemRejected(bytes32 item, uint256[] calldata ids, bool addOrRemove) public override  \r\n    {\r\n        super.onItemRejected(item, ids, addOrRemove);\r\n\r\n        if(ids[0] == _poolId){\r\n            address pool = AddressLibrary.Bytes32ToAddress(item);\r\n\r\n            if(true == addOrRemove)removePricesForPool(pool);\r\n        } \r\n    }\r\n    \r\n }",
  "sourcePath": "C:/Users/d-aam/GitHub/Certificates/contracts/DeployedContracts/Provider.sol",
  "compiler": {
    "name": "solc",
    "version": "0.8.6+commit.11564f7e.Emscripten.clang"
  },
  "schemaVersion": "3.3.4",
  "updatedAt": "2021-08-09T14:01:01.404Z",
  "devdoc": {
    "kind": "dev",
    "methods": {},
    "version": 1
  },
  "userdoc": {
    "kind": "user",
    "methods": {},
    "version": 1
  }
}