{
  "contractName": "Provider",
  "abi": [
    {
      "anonymous": false,
      "inputs": [
        {
          "indexed": false,
          "internalType": "string",
          "name": "ItemType",
          "type": "string"
        },
        {
          "indexed": true,
          "internalType": "bytes32",
          "name": "Item",
          "type": "bytes32"
        },
        {
          "indexed": false,
          "internalType": "string",
          "name": "Info",
          "type": "string"
        }
      ],
      "name": "_AddItemRejection",
      "type": "event"
    },
    {
      "anonymous": false,
      "inputs": [
        {
          "indexed": false,
          "internalType": "string",
          "name": "ItemType",
          "type": "string"
        },
        {
          "indexed": true,
          "internalType": "bytes32",
          "name": "Item",
          "type": "bytes32"
        },
        {
          "indexed": false,
          "internalType": "string",
          "name": "Info",
          "type": "string"
        }
      ],
      "name": "_AddItemValidation",
      "type": "event"
    },
    {
      "anonymous": false,
      "inputs": [
        {
          "indexed": false,
          "internalType": "string",
          "name": "ENSName",
          "type": "string"
        },
        {
          "indexed": false,
          "internalType": "bytes32",
          "name": "node",
          "type": "bytes32"
        },
        {
          "indexed": false,
          "internalType": "address",
          "name": "addr",
          "type": "address"
        }
      ],
      "name": "_NewReverseENSCreated",
      "type": "event"
    },
    {
      "anonymous": false,
      "inputs": [
        {
          "indexed": false,
          "internalType": "string",
          "name": "ItemType",
          "type": "string"
        },
        {
          "indexed": true,
          "internalType": "bytes32",
          "name": "Item",
          "type": "bytes32"
        },
        {
          "indexed": false,
          "internalType": "string",
          "name": "Info",
          "type": "string"
        }
      ],
      "name": "_RemoveItemRejection",
      "type": "event"
    },
    {
      "anonymous": false,
      "inputs": [
        {
          "indexed": false,
          "internalType": "string",
          "name": "ItemType",
          "type": "string"
        },
        {
          "indexed": true,
          "internalType": "bytes32",
          "name": "Item",
          "type": "bytes32"
        },
        {
          "indexed": false,
          "internalType": "string",
          "name": "Info",
          "type": "string"
        }
      ],
      "name": "_RemoveItemValidation",
      "type": "event"
    },
    {
      "inputs": [
        {
          "internalType": "address[]",
          "name": "owners",
          "type": "address[]"
        },
        {
          "internalType": "uint256",
          "name": "minOwners",
          "type": "uint256"
        },
        {
          "internalType": "uint256",
          "name": "TotalEntities",
          "type": "uint256"
        },
        {
          "internalType": "string[]",
          "name": "labels",
          "type": "string[]"
        },
        {
          "internalType": "uint256",
          "name": "ownerId",
          "type": "uint256"
        }
      ],
      "name": "MultiSigContract_init",
      "outputs": [],
      "stateMutability": "nonpayable",
      "type": "function"
    },
    {
      "inputs": [
        {
          "internalType": "address",
          "name": "owner",
          "type": "address"
        },
        {
          "internalType": "string",
          "name": "ownerInfo",
          "type": "string"
        }
      ],
      "name": "addOwner",
      "outputs": [],
      "stateMutability": "nonpayable",
      "type": "function"
    },
    {
      "inputs": [
        {
          "internalType": "uint256",
          "name": "newMinOwners",
          "type": "uint256"
        }
      ],
      "name": "changeMinOwners",
      "outputs": [],
      "stateMutability": "nonpayable",
      "type": "function"
    },
    {
      "inputs": [],
      "name": "rejectMinOwners",
      "outputs": [],
      "stateMutability": "nonpayable",
      "type": "function"
    },
    {
      "inputs": [
        {
          "internalType": "address",
          "name": "owner",
          "type": "address"
        }
      ],
      "name": "rejectOwner",
      "outputs": [],
      "stateMutability": "nonpayable",
      "type": "function"
    },
    {
      "inputs": [
        {
          "internalType": "address",
          "name": "owner",
          "type": "address"
        }
      ],
      "name": "removeOwner",
      "outputs": [],
      "stateMutability": "nonpayable",
      "type": "function"
    },
    {
      "inputs": [],
      "name": "retrieveAllOwners",
      "outputs": [
        {
          "internalType": "bytes32[]",
          "name": "",
          "type": "bytes32[]"
        }
      ],
      "stateMutability": "view",
      "type": "function",
      "constant": true
    },
    {
      "inputs": [],
      "name": "retrieveMinOwners",
      "outputs": [
        {
          "internalType": "uint256",
          "name": "",
          "type": "uint256"
        }
      ],
      "stateMutability": "view",
      "type": "function",
      "constant": true
    },
    {
      "inputs": [
        {
          "internalType": "address",
          "name": "owner",
          "type": "address"
        }
      ],
      "name": "retrieveOwner",
      "outputs": [
        {
          "components": [
            {
              "internalType": "string",
              "name": "_Info",
              "type": "string"
            },
            {
              "internalType": "bool",
              "name": "_activated",
              "type": "bool"
            },
            {
              "internalType": "uint256",
              "name": "_id",
              "type": "uint256"
            },
            {
              "internalType": "uint256",
              "name": "_pendingId",
              "type": "uint256"
            },
            {
              "internalType": "address[]",
              "name": "_Validations",
              "type": "address[]"
            },
            {
              "internalType": "address[]",
              "name": "_Rejections",
              "type": "address[]"
            }
          ],
          "internalType": "struct ItemsLibrary._itemIdentity",
          "name": "",
          "type": "tuple"
        }
      ],
      "stateMutability": "view",
      "type": "function",
      "constant": true
    },
    {
      "inputs": [],
      "name": "retrievePendingMinOwners",
      "outputs": [
        {
          "internalType": "uint256",
          "name": "",
          "type": "uint256"
        }
      ],
      "stateMutability": "view",
      "type": "function",
      "constant": true
    },
    {
      "inputs": [],
      "name": "retrievePendingMinOwnersStatus",
      "outputs": [
        {
          "internalType": "uint256",
          "name": "",
          "type": "uint256"
        },
        {
          "internalType": "uint256",
          "name": "",
          "type": "uint256"
        },
        {
          "internalType": "address[]",
          "name": "",
          "type": "address[]"
        }
      ],
      "stateMutability": "view",
      "type": "function",
      "constant": true
    },
    {
      "inputs": [
        {
          "internalType": "bool",
          "name": "addedORremove",
          "type": "bool"
        }
      ],
      "name": "retrievePendingOwners",
      "outputs": [
        {
          "internalType": "bytes32[]",
          "name": "",
          "type": "bytes32[]"
        }
      ],
      "stateMutability": "view",
      "type": "function",
      "constant": true
    },
    {
      "inputs": [],
      "name": "validateMinOwners",
      "outputs": [],
      "stateMutability": "nonpayable",
      "type": "function"
    },
    {
      "inputs": [
        {
          "internalType": "address",
          "name": "owner",
          "type": "address"
        }
      ],
      "name": "validateOwner",
      "outputs": [],
      "stateMutability": "nonpayable",
      "type": "function"
    },
    {
      "stateMutability": "payable",
      "type": "receive",
      "payable": true
    },
    {
      "inputs": [
        {
          "internalType": "address[]",
          "name": "owners",
          "type": "address[]"
        },
        {
          "internalType": "uint256",
          "name": "minOwners",
          "type": "uint256"
        },
        {
          "internalType": "string",
          "name": "ProviderInfo",
          "type": "string"
        },
        {
          "internalType": "string",
          "name": "ENSName",
          "type": "string"
        },
        {
          "internalType": "address",
          "name": "ReverseRegistryAddress",
          "type": "address"
        }
      ],
      "name": "Provider_init",
      "outputs": [],
      "stateMutability": "nonpayable",
      "type": "function"
    },
    {
      "inputs": [
        {
          "internalType": "address",
          "name": "pool",
          "type": "address"
        },
        {
          "internalType": "string",
          "name": "poolInfo",
          "type": "string"
        },
        {
          "internalType": "bool",
          "name": "mustSubscribe",
          "type": "bool"
        }
      ],
      "name": "addPool",
      "outputs": [],
      "stateMutability": "nonpayable",
      "type": "function"
    },
    {
      "inputs": [
        {
          "internalType": "address",
          "name": "pool",
          "type": "address"
        }
      ],
      "name": "removePool",
      "outputs": [],
      "stateMutability": "nonpayable",
      "type": "function"
    },
    {
      "inputs": [
        {
          "internalType": "address",
          "name": "pool",
          "type": "address"
        }
      ],
      "name": "validatePool",
      "outputs": [],
      "stateMutability": "nonpayable",
      "type": "function"
    },
    {
      "inputs": [
        {
          "internalType": "address",
          "name": "pool",
          "type": "address"
        }
      ],
      "name": "rejectPool",
      "outputs": [],
      "stateMutability": "nonpayable",
      "type": "function"
    },
    {
      "inputs": [
        {
          "internalType": "address",
          "name": "pool",
          "type": "address"
        }
      ],
      "name": "retrievePool",
      "outputs": [
        {
          "components": [
            {
              "internalType": "string",
              "name": "_Info",
              "type": "string"
            },
            {
              "internalType": "bool",
              "name": "_activated",
              "type": "bool"
            },
            {
              "internalType": "uint256",
              "name": "_id",
              "type": "uint256"
            },
            {
              "internalType": "uint256",
              "name": "_pendingId",
              "type": "uint256"
            },
            {
              "internalType": "address[]",
              "name": "_Validations",
              "type": "address[]"
            },
            {
              "internalType": "address[]",
              "name": "_Rejections",
              "type": "address[]"
            }
          ],
          "internalType": "struct ItemsLibrary._itemIdentity",
          "name": "",
          "type": "tuple"
        }
      ],
      "stateMutability": "view",
      "type": "function",
      "constant": true
    },
    {
      "inputs": [
        {
          "internalType": "address",
          "name": "pool",
          "type": "address"
        }
      ],
      "name": "retrievePoolConfg",
      "outputs": [
        {
          "internalType": "bool",
          "name": "",
          "type": "bool"
        },
        {
          "internalType": "bool",
          "name": "",
          "type": "bool"
        }
      ],
      "stateMutability": "view",
      "type": "function",
      "constant": true
    },
    {
      "inputs": [],
      "name": "retrieveAllPools",
      "outputs": [
        {
          "internalType": "bytes32[]",
          "name": "",
          "type": "bytes32[]"
        }
      ],
      "stateMutability": "view",
      "type": "function",
      "constant": true
    },
    {
      "inputs": [
        {
          "internalType": "bool",
          "name": "addedORremove",
          "type": "bool"
        }
      ],
      "name": "retrievePendingPools",
      "outputs": [
        {
          "internalType": "bytes32[]",
          "name": "",
          "type": "bytes32[]"
        }
      ],
      "stateMutability": "view",
      "type": "function",
      "constant": true
    },
    {
      "inputs": [
        {
          "internalType": "address",
          "name": "pool",
          "type": "address"
        },
        {
          "internalType": "bytes32",
          "name": "CertificateHash",
          "type": "bytes32"
        },
        {
          "internalType": "address",
          "name": "holder",
          "type": "address"
        }
      ],
      "name": "addCertificate",
      "outputs": [],
      "stateMutability": "nonpayable",
      "type": "function"
    },
    {
      "inputs": [
        {
          "internalType": "address",
          "name": "pool",
          "type": "address"
        },
        {
          "internalType": "bytes32",
          "name": "CertificateHash",
          "type": "bytes32"
        },
        {
          "internalType": "address",
          "name": "holder",
          "type": "address"
        }
      ],
      "name": "validateCertificate",
      "outputs": [],
      "stateMutability": "nonpayable",
      "type": "function"
    },
    {
      "inputs": [
        {
          "internalType": "address",
          "name": "pool",
          "type": "address"
        },
        {
          "internalType": "bytes32",
          "name": "CertificateHash",
          "type": "bytes32"
        },
        {
          "internalType": "address",
          "name": "holder",
          "type": "address"
        }
      ],
      "name": "rejectCertificate",
      "outputs": [],
      "stateMutability": "nonpayable",
      "type": "function"
    },
    {
      "inputs": [],
      "name": "retrievePendingCertificates",
      "outputs": [
        {
          "components": [
            {
              "internalType": "address",
              "name": "pool",
              "type": "address"
            },
            {
              "internalType": "address",
              "name": "holder",
              "type": "address"
            },
            {
              "internalType": "bytes32",
              "name": "certificate",
              "type": "bytes32"
            }
          ],
          "internalType": "struct Library._pendingCertificatesStruct[]",
          "name": "",
          "type": "tuple[]"
        }
      ],
      "stateMutability": "view",
      "type": "function",
      "constant": true
    },
    {
      "inputs": [
        {
          "internalType": "address",
          "name": "pool",
          "type": "address"
        },
        {
          "internalType": "bytes32",
          "name": "CertificateHash",
          "type": "bytes32"
        },
        {
          "internalType": "address",
          "name": "holder",
          "type": "address"
        }
      ],
      "name": "isCertificate",
      "outputs": [
        {
          "internalType": "bool",
          "name": "",
          "type": "bool"
        }
      ],
      "stateMutability": "view",
      "type": "function",
      "constant": true
    },
    {
      "inputs": [
        {
          "internalType": "bytes32",
          "name": "item",
          "type": "bytes32"
        },
        {
          "internalType": "uint256[]",
          "name": "ids",
          "type": "uint256[]"
        },
        {
          "internalType": "bool",
          "name": "addOrRemove",
          "type": "bool"
        }
      ],
      "name": "onItemValidated",
      "outputs": [],
      "stateMutability": "nonpayable",
      "type": "function"
    },
    {
      "inputs": [
        {
          "internalType": "bytes32",
          "name": "item",
          "type": "bytes32"
        },
        {
          "internalType": "uint256[]",
          "name": "ids",
          "type": "uint256[]"
        },
        {
          "internalType": "bool",
          "name": "addOrRemove",
          "type": "bool"
        }
      ],
      "name": "onItemRejected",
      "outputs": [],
      "stateMutability": "nonpayable",
      "type": "function"
    }
  ],
  "bytecode": "0x608060405234801561001057600080fd5b50613d3c806100206000396000f3fe6080604052600436106101615760003560e01c8063017cb3db1461016d57806314a2ed2f1461018f578063173825d9146101af5780632d99aaf2146101cf5780632edbe7fc146101fa57806330ade922146102195780633542758f1461022e5780633b7d09461461024e5780633fd071811461026e578063530467461461028e5780635888ebb3146102ae57806360500f96146102d257806365b973e5146102f25780636b2996041461030757806376f8f90f1461032757806377bc5a1f146103475780637c8c2add146103745780638fc2d8ea1461039457806391d59093146103b4578063a706752c14610415578063a93d5ed614610445578063bd9f37051461045a578063c3079ae71461047a578063c66433ea1461048f578063cd019e07146104af578063ce33d58a146104d1578063cf2041d9146104f1578063d920928914610511578063f804938214610531578063fb1f69171461055157600080fd5b3661016857005b600080fd5b34801561017957600080fd5b5061018d6101883660046131d2565b610571565b005b34801561019b57600080fd5b5061018d6101aa3660046131d2565b61060c565b3480156101bb57600080fd5b5061018d6101ca366004613198565b61066e565b3480156101db57600080fd5b506101e46106a4565b6040516101f19190613866565b60405180910390f35b34801561020657600080fd5b506005545b6040519081526020016101f1565b34801561022557600080fd5b5061018d6106b5565b34801561023a57600080fd5b5061018d610249366004613214565b6106de565b34801561025a57600080fd5b5061018d610269366004613198565b6106ec565b34801561027a57600080fd5b5061018d610289366004613552565b6106fa565b34801561029a57600080fd5b5061018d6102a9366004613268565b610816565b3480156102ba57600080fd5b506102c3610880565b6040516101f193929190613b19565b3480156102de57600080fd5b5061018d6102ed3660046132cf565b6108f4565b3480156102fe57600080fd5b5060015461020b565b34801561031357600080fd5b506101e46103223660046134ff565b610b51565b34801561033357600080fd5b5061018d610342366004613198565b610b65565b34801561035357600080fd5b50610367610362366004613198565b610bc0565b6040516101f191906139e7565b34801561038057600080fd5b5061018d61038f366004613552565b610bd4565b3480156103a057600080fd5b506103676103af366004613198565b610f2e565b3480156103c057600080fd5b506103fe6103cf366004613198565b6001600160a01b0316600090815260096020908152604080832054600a9092529091205460ff91821692911690565b6040805192151583529015156020830152016101f1565b34801561042157600080fd5b506104356104303660046131d2565b610f41565b60405190151581526020016101f1565b34801561045157600080fd5b506101e4610f58565b34801561046657600080fd5b5061018d6104753660046131d2565b610f65565b34801561048657600080fd5b5061018d610fc7565b34801561049b57600080fd5b5061018d6104aa3660046136b1565b610ff0565b3480156104bb57600080fd5b506104c461105f565b6040516101f191906138aa565b3480156104dd57600080fd5b5061018d6104ec366004613198565b6110e6565b3480156104fd57600080fd5b5061018d61050c366004613375565b6110f2565b34801561051d57600080fd5b5061018d61052c366004613198565b6113e1565b34801561053d57600080fd5b506101e461054c3660046134ff565b6113ec565b34801561055d57600080fd5b5061018d61056c366004613198565b6113f9565b8261057b81611404565b3361058581611446565b60008061059387878761148c565b604051635cb09bcf60e01b8152919350915073__ItemsLibrary__________________________90635cb09bcf906105d390859085903090600401613a68565b60006040518083038186803b1580156105eb57600080fd5b505af41580156105ff573d6000803e3d6000fd5b5050505050505050505050565b8261061681611404565b3361062081611446565b60008061062e87878761148c565b6040516305cc2d5560e11b8152919350915073__ItemsLibrary__________________________90630b985aaa906105d390859085903090600401613a68565b600154600161067e60005461151d565b516106899190613bf2565b6106938282611643565b61069f83600054611667565b505050565b60606106b0600161151d565b905090565b336106bf81611446565b60016106ca8161173d565b336106d4816117b2565b61069f6001611872565b61069f8383836000546118f9565b6106f7816001611667565b50565b61070684848484611a32565b60018383600081811061071b5761071b613cb7565b9050602002013514156107ca57604051631e99d35d60e31b81526004810185905260009073__AddressLibrary________________________9063f4ce9ae89060240160206040518083038186803b15801561077657600080fd5b505af415801561078a573d6000803e3d6000fd5b505050506040513d601f19601f820116820180604052508101906107ae91906131b5565b9050600182151514156107c4576107c481611aa8565b50610810565b6002838360008181106107df576107df613cb7565b90506020020135141561081057610810600d8484600381811061080457610804613cb7565b90506020020135611ade565b50505050565b6001600160a01b0384166000908152600a602052604090205460ff16610873576001600160a01b0384166000908152600960209081526040808320805485151560ff1991821617909155600a909252909120805490911660011790555b61081084848460016118f9565b60008060606006546007546008808054806020026020016040519081016040528092919081815260200182805480156108e257602002820191906000526020600020905b81546001600160a01b031681526001909101906020018083116108c4575b50505050509050925092509250909192565b600454610100900460ff168061090d575060045460ff16155b6109325760405162461bcd60e51b815260040161092990613999565b60405180910390fd5b600454610100900460ff16158015610954576004805461ffff19166101011790555b6040805160028082526060820190925290816020015b606081526020019060019003908161096a575050805161099291600b91602090910190612df5565b506040518060400160405280600581526020016427bbb732b960d91b815250600b6000815481106109c5576109c5613cb7565b9060005260206000200190805190602001906109e2929190612e52565b5060405180604001604052806004815260200163141bdbdb60e21b815250600b600181548110610a1457610a14613cb7565b906000526020600020019080519060200190610a31929190612e52565b50610b1286866002600b805480602002602001604051908101604052809291908181526020016000905b82821015610b07578382906000526020600020018054610a7a90613c35565b80601f0160208091040260200160405190810160405280929190818152602001828054610aa690613c35565b8015610af35780601f10610ac857610100808354040283529160200191610af3565b820191906000526020600020905b815481529060010190602001808311610ad657829003601f168201915b505050505081526020019060010190610a5b565b5050505060006110f2565b8351610b2590600e906020870190612e52565b50825115610b3757610b378383611bb5565b8015610b49576004805461ff00191690555b505050505050565b6060610b5f82600054611c7b565b92915050565b610b7181600054611db0565b151560011415610bb4576001610b8860005461151d565b51610b939190613bf2565b6001541115610bb45760405162461bcd60e51b81526004016109299061397a565b6106f781600054611f56565b610bc8612ed2565b610b5f82600054611fec565b610be084848484611a32565b600183836000818110610bf557610bf5613cb7565b905060200201351415610da757604051631e99d35d60e31b81526004810185905260009073__AddressLibrary________________________9063f4ce9ae89060240160206040518083038186803b158015610c5057600080fd5b505af4158015610c64573d6000803e3d6000fd5b505050506040513d601f19601f82011682018060405250810190610c8891906131b5565b905081610c9d57610c9881611aa8565b6107c4565b6001600160a01b03811660009081526009602052604090205460ff161515600114156107c45760008190506000816001600160a01b03166357e7ea2e6040518163ffffffff1660e01b815260040160206040518083038186803b158015610d0357600080fd5b505afa158015610d17573d6000803e3d6000fd5b505050506040513d601f19601f82011682018060405250810190610d3b9190613539565b9050816001600160a01b031663fc0005008230600e6040518463ffffffff1660e01b8152600401610d6d9291906137ad565b6000604051808303818588803b158015610d8657600080fd5b505af1158015610d9a573d6000803e3d6000fd5b5050505050505050610810565b600283836000818110610dbc57610dbc613cb7565b90506020020135141561081057610f1673__AddressLibrary________________________63b1e2771485856001818110610df957610df9613cb7565b905060200201356040518263ffffffff1660e01b8152600401610e1e91815260200190565b60206040518083038186803b158015610e3657600080fd5b505af4158015610e4a573d6000803e3d6000fd5b505050506040513d601f19601f82011682018060405250810190610e6e91906131b5565b8573__AddressLibrary________________________63b1e2771487876002818110610e9c57610e9c613cb7565b905060200201356040518263ffffffff1660e01b8152600401610ec191815260200190565b60206040518083038186803b158015610ed957600080fd5b505af4158015610eed573d6000803e3d6000fd5b505050506040513d601f19601f82011682018060405250810190610f1191906131b5565b61219c565b610810600d8484600381811061080457610804613cb7565b610f36612ed2565b610b5f826001611fec565b6000610f4e84848461236e565b90505b9392505050565b60606106b060005461151d565b82610f6f81611404565b33610f7981611446565b600080610f8787878761148c565b604051637493a70b60e01b8152919350915073__ItemsLibrary__________________________90637493a70b906105d390859085903090600401613a68565b33610fd181611446565b6001610fdc8161173d565b33610fe6816117b2565b61069f6000611872565b33610ffa81611446565b60006110058161173d565b8260026000548154811061101b5761101b613cb7565b90600052602060002090600402016001018054905061103a8282611643565b6001856110478282611643565b60058790556110566001611872565b50505050505050565b6060600d805480602002602001604051908101604052809291908181526020016000905b828210156110dd576000848152602090819020604080516060810182526003860290920180546001600160a01b03908116845260018083015490911684860152600290910154918301919091529083529092019101611083565b50505050905090565b6106f78160005461241d565b600454610100900460ff168061110b575060045460ff16155b6111275760405162461bcd60e51b815260040161092990613999565b600454610100900460ff16158015611149576004805461ffff19166101011790555b8486516111568282611643565b6001876111638282611643565b8651881461119b5760405162461bcd60e51b8152602060048201526005602482015264454331382d60d81b6044820152606401610929565b60008681555b888110156112115760028054600101815560005287516003908990839081106111cc576111cc613cb7565b602090810291909101810151825460018101845560009384529282902081516111fe9491909101929190910190612e52565b508061120981613c70565b9150506111a1565b50600189905560005b8a518110156113c357600073__AddressLibrary________________________63bc215e858d848151811061125157611251613cb7565b60200260200101516040518263ffffffff1660e01b8152600401611275919061373a565b60206040518083038186803b15801561128d57600080fd5b505af41580156112a1573d6000803e3d6000fd5b505050506040513d601f19601f820116820180604052508101906112c59190613539565b90506002600054815481106112dc576112dc613cb7565b6000918252602080832084845260049092029091019052604090206001015460ff16156113335760405162461bcd60e51b8152602060048201526005602482015264454332392d60d81b6044820152606401610929565b600160026000548154811061134a5761134a613cb7565b60009182526020808320858452600492909202909101905260408120600101805460ff1916921515929092179091555460028054909190811061138f5761138f613cb7565b60009182526020808320600160049093020182018054928301815583529091200155806113bb81613c70565b91505061121a565b50505050508015610b49576004805461ff0019169055505050505050565b6106f7816001611f56565b6060610b5f826001611c7b565b6106f781600161241d565b61140d816124b3565b15156001146106f75760405162461bcd60e51b8152602060048201526005602482015264454333362d60d81b6044820152606401610929565b611452816000546124bc565b15156001146106f75760405162461bcd60e51b8152600401610929906020808252600490820152634543392d60e01b604082015260600190565b611494612f0a565b6000806114a28686866125e7565b6040805160a0810182529687528051602080820183526000808352818a01929092526001548984015282518084018452600b81526a436572746966696361746560a81b8183015260608a015260808901939093526001600160a01b039889168152600c83528181209690981688529490525050509091209091565b60025460405163123bd07560e11b8152606091839173__Library_______________________________90632477a0ea9061155e9085908590600401613926565b60006040518083038186803b15801561157657600080fd5b505af415801561158a573d6000803e3d6000fd5b5050505073__ItemsLibrary__________________________6327724f4b600286815481106115bb576115bb613cb7565b90600052602060002090600402016040518263ffffffff1660e01b81526004016115e791815260200190565b60006040518083038186803b1580156115ff57600080fd5b505af4158015611613573d6000803e3d6000fd5b505050506040513d6000823e601f3d908101601f1916820160405261163b9190810190613468565b949350505050565b808211156116635760405162461bcd60e51b81526004016109299061397a565b5050565b60025460405163123bd07560e11b815282919073__Library_______________________________90632477a0ea906116a69085908590600401613926565b60006040518083038186803b1580156116be57600080fd5b505af41580156116d2573d6000803e3d6000fd5b50505050336116e081611446565b6000806116fd87604051806020016040528060008152508861293a565b60405163e23fcdef60e01b8152919350915073__ItemsLibrary__________________________9063e23fcdef906105d390859085903090600401613a68565b801561177a576005546106f75760405162461bcd60e51b8152602060048201526005602482015264454333312d60d81b6044820152606401610929565b600554156106f75760405162461bcd60e51b8152602060048201526005602482015264454333302d60d81b6044820152606401610929565b60405163f7cf62d760e01b815273__AddressLibrary________________________9063f7cf62d7906117ec90849060089060040161374e565b60206040518083038186803b15801561180457600080fd5b505af4158015611818573d6000803e3d6000fd5b505050506040513d601f19601f8201168201806040525081019061183c919061351c565b156106f75760405162461bcd60e51b8152600401610929906020808252600490820152634543352d60e01b604082015260600190565b80156118965760016006600082825461188b9190613bda565b909155506118af9050565b6001600760008282546118a99190613bda565b90915550505b600880546001810182556000919091527ff3f7a9fe364faab93b216da50a3214154f22a0a2b415b23a84c8169e8b636ee30180546001600160a01b031916331790556106f7612b19565b60025460405163123bd07560e11b815282919073__Library_______________________________90632477a0ea906119389085908590600401613926565b60006040518083038186803b15801561195057600080fd5b505af4158015611964573d6000803e3d6000fd5b505050503361197281611446565b6000806119b78989898080601f0160208091040260200160405190810160405280939291908181526020018383808284376000920191909152508b925061293a915050565b6040516305cc2d5560e11b8152919350915073__ItemsLibrary__________________________90630b985aaa906119f790859085903090600401613a68565b60006040518083038186803b158015611a0f57600080fd5b505af4158015611a23573d6000803e3d6000fd5b50505050505050505050505050565b6040516337ea306360e01b815233600482018190523060248301819052909173__Library_______________________________906337ea30639060440160006040518083038186803b158015611a8857600080fd5b505af4158015611a9c573d6000803e3d6000fd5b50505050505050505050565b6001600160a01b03166000908152600a60209081526040808320805460ff19908116909155600990925290912080549091169055565b81548290611aee90600190613bf2565b81548110611afe57611afe613cb7565b9060005260206000209060030201828281548110611b1e57611b1e613cb7565b60009182526020909120825460039092020180546001600160a01b039283166001600160a01b03199182161782556001808501549083018054919094169116179091556002918201549101558154829080611b7b57611b7b613ca1565b60008281526020812060036000199093019283020180546001600160a01b0319908116825560018201805490911690556002015590555050565b60405163c47f002760e01b815281906000906001600160a01b0383169063c47f002790611be6908790600401613934565b602060405180830381600087803b158015611c0057600080fd5b505af1158015611c14573d6000803e3d6000fd5b505050506040513d601f19601f82011682018060405250810190611c389190613539565b90507f33ef81cad1e96e7a08670293e5ef94b9d7f3b8799292751c76914bc8c1270ca4848230604051611c6d93929190613947565b60405180910390a150505050565b60025460405163123bd07560e11b8152606091839173__Library_______________________________90632477a0ea90611cbc9085908590600401613926565b60006040518083038186803b158015611cd457600080fd5b505af4158015611ce8573d6000803e3d6000fd5b50505050606073__ItemsLibrary__________________________63e035e0068760028881548110611d1c57611d1c613cb7565b90600052602060002090600402016040518363ffffffff1660e01b8152600401611d529291909115158252602082015260400190565b60006040518083038186803b158015611d6a57600080fd5b505af4158015611d7e573d6000803e3d6000fd5b505050506040513d6000823e601f3d908101601f19168201604052611da69190810190613468565b9695505050505050565b60025460405163123bd07560e11b8152600091839173__Library_______________________________90632477a0ea90611df19085908590600401613926565b60006040518083038186803b158015611e0957600080fd5b505af4158015611e1d573d6000803e3d6000fd5b505060405163bc215e8560e01b81526000925073__AddressLibrary________________________915063bc215e8590611e5b90899060040161373a565b60206040518083038186803b158015611e7357600080fd5b505af4158015611e87573d6000803e3d6000fd5b505050506040513d601f19601f82011682018060405250810190611eab9190613539565b905073__ItemsLibrary__________________________632854ed2e8260028881548110611edb57611edb613cb7565b90600052602060002090600402016040518363ffffffff1660e01b8152600401611f06929190613926565b60206040518083038186803b158015611f1e57600080fd5b505af4158015611f32573d6000803e3d6000fd5b505050506040513d601f19601f82011682018060405250810190611da6919061351c565b60025460405163123bd07560e11b815282919073__Library_______________________________90632477a0ea90611f959085908590600401613926565b60006040518083038186803b158015611fad57600080fd5b505af4158015611fc1573d6000803e3d6000fd5b5050505033611fcf81611446565b600080610f8787604051806020016040528060008152508861293a565b611ff4612ed2565b60025460405163123bd07560e11b815283919073__Library_______________________________90632477a0ea906120339085908590600401613926565b60006040518083038186803b15801561204b57600080fd5b505af415801561205f573d6000803e3d6000fd5b505060405163bc215e8560e01b81526000925073__AddressLibrary________________________915063bc215e859061209d90899060040161373a565b60206040518083038186803b1580156120b557600080fd5b505af41580156120c9573d6000803e3d6000fd5b505050506040513d601f19601f820116820180604052508101906120ed9190613539565b905073__ItemsLibrary__________________________631aeccc6a826002888154811061211d5761211d613cb7565b90600052602060002090600402016040518363ffffffff1660e01b8152600401612148929190613926565b60006040518083038186803b15801561216057600080fd5b505af4158015612174573d6000803e3d6000fd5b505050506040513d6000823e601f3d908101601f19168201604052611da691908101906135d8565b826121a681611404565b60008490506000816001600160a01b0316634774779d6040518163ffffffff1660e01b815260040160206040518083038186803b1580156121e657600080fd5b505afa1580156121fa573d6000803e3d6000fd5b505050506040513d601f19601f8201168201806040525081019061221e9190613539565b9050816001600160a01b0316631ab807f88287876040518463ffffffff1660e01b815260040161224f92919061390f565b6000604051808303818588803b15801561226857600080fd5b505af115801561227c573d6000803e3d6000fd5b5050506001600160a01b038089166000908152600c60209081526040808320938a168352929052819020905163207c442760e01b815290925073__ItemsLibrary__________________________915063207c4427906122e29089908590600401613926565b60006040518083038186803b1580156122fa57600080fd5b505af415801561230e573d6000803e3d6000fd5b5050506000878152602083905260408120915061232b8282612f3c565b60018201805460ff1916905560006002830181905560038301819055612355906004840190612f76565b612363600583016000612f76565b505050505050505050565b60405163685256ff60e11b8152600090849082906001600160a01b0383169063d0a4adfe906123a3908890889060040161390f565b60206040518083038186803b1580156123bb57600080fd5b505afa1580156123cf573d6000803e3d6000fd5b505050506040513d601f19601f820116820180604052508101906123f391906131b5565b90506001600160a01b03811630141561241157600192505050610f51565b50600095945050505050565b60025460405163123bd07560e11b815282919073__Library_______________________________90632477a0ea9061245c9085908590600401613926565b60006040518083038186803b15801561247457600080fd5b505af4158015612488573d6000803e3d6000fd5b505050503361249681611446565b60008061059387604051806020016040528060008152508861293a565b6000610b5f8260015b60025460405163123bd07560e11b8152600091839173__Library_______________________________90632477a0ea906124fd9085908590600401613926565b60006040518083038186803b15801561251557600080fd5b505af4158015612529573d6000803e3d6000fd5b505060405163bc215e8560e01b81526000925073__AddressLibrary________________________915063bc215e859061256790899060040161373a565b60206040518083038186803b15801561257f57600080fd5b505af4158015612593573d6000803e3d6000fd5b505050506040513d601f19601f820116820180604052508101906125b79190613539565b905073__ItemsLibrary__________________________63dbdfbeec8260028881548110611edb57611edb613cb7565b60408051600480825260a0820190925260609160009182916020820160808036833701905050905060028160008151811061262457612624613cb7565b602090810291909101015260405163cf0668ed60e01b815273__AddressLibrary________________________9063cf0668ed9061266690899060040161373a565b60206040518083038186803b15801561267e57600080fd5b505af4158015612692573d6000803e3d6000fd5b505050506040513d601f19601f820116820180604052508101906126b69190613539565b816001815181106126c9576126c9613cb7565b602090810291909101015260405163cf0668ed60e01b815273__AddressLibrary________________________9063cf0668ed9061270b90879060040161373a565b60206040518083038186803b15801561272357600080fd5b505af4158015612737573d6000803e3d6000fd5b505050506040513d601f19601f8201168201806040525081019061275b9190613539565b8160028151811061276e5761276e613cb7565b60200260200101818152505060006040518060600160405280886001600160a01b03168152602001866001600160a01b031681526020018781525090506127b6878787612c51565b61288557600d8054600181810183556000839052835160039092027fd7b6990105719101dabeb77144f2a3385c8033acd3af97e9423a695e81ad1eb5810180546001600160a01b039485166001600160a01b03199182161790915560208601517fd7b6990105719101dabeb77144f2a3385c8033acd3af97e9423a695e81ad1eb6830180549190951691161790925560408401517fd7b6990105719101dabeb77144f2a3385c8033acd3af97e9423a695e81ad1eb790920191909155905461287e9190613bf2565b9250612911565b61290e81600d805480602002602001604051908101604052809291908181526020016000905b82821015612905576000848152602090819020604080516060810182526003860290920180546001600160a01b039081168452600180830154909116848601526002909101549183019190915290835290920191016128ab565b50505050612cff565b92505b828260038151811061292557612925613cb7565b60209081029190910101525095945050505050565b612942612f0a565b60008073__AddressLibrary________________________63bc215e85876040518263ffffffff1660e01b815260040161297c919061373a565b60206040518083038186803b15801561299457600080fd5b505af41580156129a8573d6000803e3d6000fd5b505050506040513d601f19601f820116820180604052508101906129cc9190613539565b60408051600180825281830190925291925060009190602080830190803683370190505090508481600081518110612a0657612a06613cb7565b60200260200101818152505060006040518060a00160405280848152602001888152602001600154815260200160038881548110612a4657612a46613cb7565b906000526020600020018054612a5b90613c35565b80601f0160208091040260200160405190810160405280929190818152602001828054612a8790613c35565b8015612ad45780601f10612aa957610100808354040283529160200191612ad4565b820191906000526020600020905b815481529060010190602001808311612ab757829003601f168201915b50505050508152602001838152509050600060028781548110612af957612af9613cb7565b600091825260209091209296506004029091019350505050935093915050565b60065460015460405163f6001d7d60e01b815273__ItemsLibrary__________________________9263f6001d7d92612b5492600401613926565b60206040518083038186803b158015612b6c57600080fd5b505af4158015612b80573d6000803e3d6000fd5b505050506040513d601f19601f82011682018060405250810190612ba4919061351c565b15612bb957600554600155612bb7612dd8565b565b60075460015460405163f6001d7d60e01b815273__ItemsLibrary__________________________9263f6001d7d92612bf492600401613926565b60206040518083038186803b158015612c0c57600080fd5b505af4158015612c20573d6000803e3d6000fd5b505050506040513d601f19601f82011682018060405250810190612c44919061351c565b15612bb757612bb7612dd8565b6001600160a01b038084166000908152600c602090815260408083209385168352929052818120915162136bb360e11b8152909173__ItemsLibrary__________________________916226d76691612caf91879190600401613926565b60206040518083038186803b158015612cc757600080fd5b505af4158015612cdb573d6000803e3d6000fd5b505050506040513d601f19601f82011682018060405250810190610f4e919061351c565b6000805b8251811015612dca57828181518110612d1e57612d1e613cb7565b6020026020010151600001516001600160a01b031684600001516001600160a01b0316148015612d805750828181518110612d5b57612d5b613cb7565b6020026020010151602001516001600160a01b031684602001516001600160a01b0316145b8015612dac5750828181518110612d9957612d99613cb7565b6020026020010151604001518460400151145b15612db8579050610b5f565b80612dc281613c70565b915050612d03565b508151610f51906001613bda565b6000600581905560068190556007819055612bb790600890612f76565b828054828255906000526020600020908101928215612e42579160200282015b82811115612e425782518051612e32918491602090910190612e52565b5091602001919060010190612e15565b50612e4e929150612f94565b5090565b828054612e5e90613c35565b90600052602060002090601f016020900481019282612e805760008555612ec6565b82601f10612e9957805160ff1916838001178555612ec6565b82800160010185558215612ec6579182015b82811115612ec6578251825591602001919060010190612eab565b50612e4e929150612fb1565b6040518060c0016040528060608152602001600015158152602001600081526020016000815260200160608152602001606081525090565b6040518060a0016040528060008019168152602001606081526020016000815260200160608152602001606081525090565b508054612f4890613c35565b6000825580601f10612f58575050565b601f0160209004906000526020600020908101906106f79190612fb1565b50805460008255906000526020600020908101906106f79190612fb1565b80821115612e4e576000612fa88282612f3c565b50600101612f94565b5b80821115612e4e5760008155600101612fb2565b600082601f830112612fd757600080fd5b81356020612fec612fe783613b90565b613b60565b80838252828201915082860187848660051b890101111561300c57600080fd5b60005b8581101561303457813561302281613ce3565b8452928401929084019060010161300f565b5090979650505050505050565b600082601f83011261305257600080fd5b81516020613062612fe783613b90565b80838252828201915082860187848660051b890101111561308257600080fd5b60005b8581101561303457815161309881613ce3565b84529284019290840190600101613085565b80516130b581613cf8565b919050565b60008083601f8401126130cc57600080fd5b5081356001600160401b038111156130e357600080fd5b6020830191508360208285010111156130fb57600080fd5b9250929050565b600082601f83011261311357600080fd5b8135613121612fe782613bb3565b81815284602083860101111561313657600080fd5b816020850160208301376000918101602001919091529392505050565b600082601f83011261316457600080fd5b8151613172612fe782613bb3565b81815284602083860101111561318757600080fd5b61163b826020830160208701613c09565b6000602082840312156131aa57600080fd5b8135610f5181613ce3565b6000602082840312156131c757600080fd5b8151610f5181613ce3565b6000806000606084860312156131e757600080fd5b83356131f281613ce3565b925060208401359150604084013561320981613ce3565b809150509250925092565b60008060006040848603121561322957600080fd5b833561323481613ce3565b925060208401356001600160401b0381111561324f57600080fd5b61325b868287016130ba565b9497909650939450505050565b6000806000806060858703121561327e57600080fd5b843561328981613ce3565b935060208501356001600160401b038111156132a457600080fd5b6132b0878288016130ba565b90945092505060408501356132c481613cf8565b939692955090935050565b600080600080600060a086880312156132e757600080fd5b85356001600160401b03808211156132fe57600080fd5b61330a89838a01612fc6565b965060208801359550604088013591508082111561332757600080fd5b61333389838a01613102565b9450606088013591508082111561334957600080fd5b5061335688828901613102565b925050608086013561336781613ce3565b809150509295509295909350565b600080600080600060a0868803121561338d57600080fd5b6001600160401b0386358110156133a357600080fd5b6133b08888358901612fc6565b95506020808801359550604088013594506060880135828111156133d357600080fd5b8801601f81018a136133e457600080fd5b80356133f2612fe782613b90565b8082825284820191508484018d868560051b870101111561341257600080fd5b60005b8481101561344c57878235111561342b57600080fd5b61343a8f888435890101613102565b84529286019290860190600101613415565b5050809750505050505050608086013590509295509295909350565b6000602080838503121561347b57600080fd5b82516001600160401b0381111561349157600080fd5b8301601f810185136134a257600080fd5b80516134b0612fe782613b90565b80828252848201915084840188868560051b87010111156134d057600080fd5b600094505b838510156134f35780518352600194909401939185019185016134d5565b50979650505050505050565b60006020828403121561351157600080fd5b8135610f5181613cf8565b60006020828403121561352e57600080fd5b8151610f5181613cf8565b60006020828403121561354b57600080fd5b5051919050565b6000806000806060858703121561356857600080fd5b8435935060208501356001600160401b038082111561358657600080fd5b818701915087601f83011261359a57600080fd5b8135818111156135a957600080fd5b8860208260051b85010111156135be57600080fd5b60208301955080945050505060408501356132c481613cf8565b6000602082840312156135ea57600080fd5b81516001600160401b038082111561360157600080fd5b9083019060c0828603121561361557600080fd5b61361d613b38565b82518281111561362c57600080fd5b61363887828601613153565b825250613647602084016130aa565b6020820152604083015160408201526060830151606082015260808301518281111561367257600080fd5b61367e87828601613041565b60808301525060a08301518281111561369657600080fd5b6136a287828601613041565b60a08301525095945050505050565b6000602082840312156136c357600080fd5b5035919050565b600081518084526020808501945080840160005b838110156137035781516001600160a01b0316875295820195908201906001016136de565b509495945050505050565b60008151808452613726816020860160208601613c09565b601f01601f19169290920160200192915050565b6001600160a01b0391909116815260200190565b60006040820160018060a01b03808616845260206040818601528286548085526060870191508760005282600020945060005b8181101561379f578554851683526001958601959284019201613781565b509098975050505050505050565b60018060a01b0383168152600060206040818401526000845481600182811c9150808316806137dd57607f831692505b8583108114156137fb57634e487b7160e01b85526022600452602485fd5b604088018390526060880181801561381a576001811461382b57613856565b60ff19861682528782019650613856565b60008b81526020902060005b8681101561385057815484820152908501908901613837565b83019750505b50949a9950505050505050505050565b6020808252825182820181905260009190848201906040850190845b8181101561389e57835183529284019291840191600101613882565b50909695505050505050565b602080825282518282018190526000919060409081850190868401855b8281101561390257815180516001600160a01b03908116865287820151168786015285015185850152606090930192908501906001016138c7565b5091979650505050505050565b9182526001600160a01b0316602082015260400190565b918252602082015260400190565b602081526000610f51602083018461370e565b60608152600061395a606083018661370e565b6020830194909452506001600160a01b0391909116604090910152919050565b602080825260059082015264454331392d60d81b604082015260600190565b6020808252602e908201527f496e697469616c697a61626c653a20636f6e747261637420697320616c72656160408201526d191e481a5b9a5d1a585b1a5e995960921b606082015260800190565b602081526000825160c06020840152613a0360e084018261370e565b905060208401511515604084015260408401516060840152606084015160808401526080840151601f19808584030160a0860152613a4183836136ca565b925060a08601519150808584030160c086015250613a5f82826136ca565b95945050505050565b6060815283516060820152600060208086015160a06080850152613a9061010085018261370e565b9050604087015160a08501526060870151605f19808684030160c0870152613ab8838361370e565b60808a015187820390920160e088015281518082529185019350600092508401905b80831015613afa5783518252928401926001929092019190840190613ada565b5092850187905250506001600160a01b0384166040840152905061163b565b838152826020820152606060408201526000613a5f60608301846136ca565b60405160c081016001600160401b0381118282101715613b5a57613b5a613ccd565b60405290565b604051601f8201601f191681016001600160401b0381118282101715613b8857613b88613ccd565b604052919050565b60006001600160401b03821115613ba957613ba9613ccd565b5060051b60200190565b60006001600160401b03821115613bcc57613bcc613ccd565b50601f01601f191660200190565b60008219821115613bed57613bed613c8b565b500190565b600082821015613c0457613c04613c8b565b500390565b60005b83811015613c24578181015183820152602001613c0c565b838111156108105750506000910152565b600181811c90821680613c4957607f821691505b60208210811415613c6a57634e487b7160e01b600052602260045260246000fd5b50919050565b6000600019821415613c8457613c84613c8b565b5060010190565b634e487b7160e01b600052601160045260246000fd5b634e487b7160e01b600052603160045260246000fd5b634e487b7160e01b600052603260045260246000fd5b634e487b7160e01b600052604160045260246000fd5b6001600160a01b03811681146106f757600080fd5b80151581146106f757600080fdfea264697066735822122091f1f7baa88d820fbb90019c66d2bc67ec2d7bc147930788be4115154b34adbb64736f6c63430008070033",
  "immutableReferences": {},
  "source": "// SPDX-License-Identifier: GPL-3.0\r\n\r\npragma solidity 0.8.7;\r\n\r\n/**\r\n  Provider contract allows for registering pools (and optionally subscribing to them too).\r\n  Certificates can be latter delivered to those pools\r\n */\r\n import \"../Interfaces/IProvider.sol\";\r\n import \"../Interfaces/IPool.sol\";\r\n import \"../Abstract/MultiSigContract.sol\";\r\n import \"../Interfaces/IPriceConverter.sol\";\r\n import \"../Base/ReverseRegistryBaseContract.sol\";\r\n\r\n\r\n contract Provider is IProvider, ReverseRegistryBaseContract, MultiSigContract {\r\n\r\n    // DATA /////////////////////////////////////////\r\n    uint256 constant _TotalEntities = 2;\r\n\r\n    // Owners\r\n    uint256 constant _ownerIdProviders = 0;\r\n    string constant _ownerLabel = \"Owner\";\r\n\r\n    // Pools\r\n    uint256 constant _poolId = 1;\r\n    string constant _poolLabel = \"Pool\";\r\n\r\n    mapping(address => bool) private _mustSubscribe;\r\n    mapping(address => bool) private _submited;\r\n\r\n    // Certificates\r\n    uint256 constant _certId = 2;\r\n    string constant _certLabel = \"Certificate\";\r\n\r\n    string[] private _Label;\r\n    \r\n    struct _CertificatesPerHolderStruct{\r\n        mapping(address => ItemsLibrary._ItemsStruct) _CertificatesPerHolder;\r\n    }\r\n   \r\n    mapping(address => _CertificatesPerHolderStruct) private _CertificatesPerPool;\r\n    \r\n    Library._pendingCertificatesStruct[] private _pendingCertificates;\r\n\r\n    // Provider\r\n    string private _ProviderInfo;\r\n\r\n    // MODIFIERS /////////////////////////////////////////\r\n    modifier isAPool(address pool){\r\n        isAPoolFunc(pool);\r\n        _;\r\n    }\r\n\r\n    function isAPoolFunc(address pool) internal view{\r\n        require(true == isPool(pool), \"EC36-\");\r\n    }\r\n\r\n     // CONSTRUCTOR /////////////////////////////////////////\r\n    function Provider_init(address[] memory owners,  uint256 minOwners, string memory ProviderInfo, string memory ENSName, address ReverseRegistryAddress) public initializer \r\n    {\r\n        _Label = new string[](2);\r\n        _Label[0] = _ownerLabel;\r\n        _Label[1] = _poolLabel;\r\n\r\n        super.MultiSigContract_init(owners, minOwners, _TotalEntities, _Label, _ownerIdProviders); \r\n        _ProviderInfo = ProviderInfo;\r\n\r\n        if(0 < bytes(ENSName).length){\r\n            RegisterReverseAddress(ENSName, ReverseRegistryAddress);\r\n        }\r\n    }\r\n\r\n    // FUNCTIONALITY /////////////////////////////////////////\r\n    function addPool(address pool, string calldata poolInfo, bool mustSubscribe) external override{\r\n         if(false == _submited[pool]){\r\n            _mustSubscribe[pool] = mustSubscribe;\r\n            _submited[pool] = true;\r\n        }\r\n        addEntity(pool, poolInfo, _poolId);\r\n    }\r\n\r\n    function removePool(address pool) external override\r\n    {\r\n       removeEntity(pool, _poolId); \r\n    }\r\n\r\n    function validatePool(address pool) external override\r\n    {\r\n        validateEntity(pool, _poolId);\r\n    }\r\n\r\n    function rejectPool(address pool) external override\r\n    {\r\n        rejectEntity(pool, _poolId);\r\n    }\r\n\r\n    function removeConfigForPool(address pool) internal\r\n    {\r\n        delete(_submited[pool]);\r\n        delete(_mustSubscribe[pool]);\r\n    }\r\n\r\n    function retrievePool(address pool) external override view returns (ItemsLibrary._itemIdentity memory)\r\n    {\r\n        return retrieveEntity(pool, _poolId);\r\n    }\r\n\r\n    function retrievePoolConfg(address pool) external override view returns (bool, bool)\r\n    {\r\n        return (_mustSubscribe[pool], _submited[pool]);\r\n    }\r\n\r\n    function retrieveAllPools() external override view returns (bytes32[] memory)\r\n    {\r\n        return retrieveAllEntities(_poolId);\r\n    }\r\n\r\n    function retrievePendingPools(bool addedORremove) external override view returns (bytes32[] memory)\r\n    {\r\n        return(retrievePendingEntities(addedORremove, _poolId));\r\n    }\r\n\r\n    function isPool(address pool) internal view returns (bool)\r\n    {\r\n        return(isEntity(pool, _poolId));\r\n    }\r\n    // Certificates management\r\n    function extractCertIds(address pool, bytes32 CertificateHash, address holder) internal returns(uint[] memory)\r\n    {\r\n        uint otherId;\r\n        uint[] memory certIdIdArray = new uint[](4);\r\n        certIdIdArray[0] = _certId;\r\n        certIdIdArray[1] = AddressLibrary.AddressToUint(pool);\r\n        certIdIdArray[2] = AddressLibrary.AddressToUint(holder);\r\n\r\n        Library._pendingCertificatesStruct memory pCS = Library._pendingCertificatesStruct(pool, holder, CertificateHash);\r\n\r\n        if(!isCertificatePendingToAdded(pool, CertificateHash, holder)){\r\n            _pendingCertificates.push(pCS);\r\n            otherId = _pendingCertificates.length - 1;\r\n        }\r\n        else{\r\n            otherId = PositionInArray(pCS, _pendingCertificates);\r\n        }\r\n\r\n        certIdIdArray[3] = otherId;\r\n\r\n        return(certIdIdArray);\r\n    }\r\n\r\n    function addCertificate(address pool, bytes32 CertificateHash, address holder) external override\r\n        isAPool(pool)\r\n        isAnOwner(msg.sender)\r\n     {\r\n        (ItemsLibrary._manipulateItemStruct memory manipulateItemStruct,\r\n            ItemsLibrary._ItemsStruct storage itemsstruct) = GenerateStructsCert(pool, CertificateHash, holder);\r\n\r\n        ItemsLibrary.addItem(manipulateItemStruct,itemsstruct, address(this));\r\n     }\r\n\r\n    function validateCertificate(address pool, bytes32 CertificateHash, address holder) external override\r\n        isAPool(pool)\r\n        isAnOwner(msg.sender)\r\n     {\r\n        (ItemsLibrary._manipulateItemStruct memory manipulateItemStruct,\r\n            ItemsLibrary._ItemsStruct storage itemsstruct) = GenerateStructsCert(pool, CertificateHash, holder);\r\n\r\n        ItemsLibrary.validateItem(manipulateItemStruct, itemsstruct, address(this));\r\n     }\r\n\r\n    function rejectCertificate(address pool, bytes32 CertificateHash, address holder) external override\r\n        isAPool(pool)\r\n        isAnOwner(msg.sender)\r\n    {\r\n        (ItemsLibrary._manipulateItemStruct memory manipulateItemStruct,\r\n            ItemsLibrary._ItemsStruct storage itemsstruct) = GenerateStructsCert(pool, CertificateHash, holder);\r\n\r\n        ItemsLibrary.rejectItem(manipulateItemStruct, itemsstruct, address(this));\r\n    }\r\n\r\n    function GenerateStructsCert(address pool, bytes32 CertificateHash, address holder) internal\r\n        returns(ItemsLibrary._manipulateItemStruct memory, ItemsLibrary._ItemsStruct storage)\r\n    {\r\n        uint[] memory certIdIdArray = extractCertIds(pool, CertificateHash, holder);\r\n        ItemsLibrary._manipulateItemStruct memory manipulateItemStruct = ItemsLibrary._manipulateItemStruct(CertificateHash, \"\", _minOwners, _certLabel, certIdIdArray);\r\n        ItemsLibrary._ItemsStruct storage itemsstruct =  _CertificatesPerPool[pool]._CertificatesPerHolder[holder];\r\n        return (manipulateItemStruct, itemsstruct);\r\n    }\r\n \r\n    function manipulateCertificate(address pool, bytes32 CertificateHash, address holder) internal\r\n        isAPool(pool)\r\n    {\r\n        IPool poolToSend = IPool(pool);\r\n\r\n        uint AddCertificatePriceWei = poolToSend.retrieveAddCertificatePriceWei();\r\n\r\n        poolToSend.addCertificate{value:AddCertificatePriceWei}(CertificateHash, holder);\r\n\r\n        ItemsLibrary._ItemsStruct storage itemStruct = _CertificatesPerPool[pool]._CertificatesPerHolder[holder];\r\n\r\n        ItemsLibrary.RemoveResizeActivated(CertificateHash, itemStruct);\r\n        delete(itemStruct._items[CertificateHash]);\r\n    }\r\n\r\n    function retrievePendingCertificates() external override view returns (Library._pendingCertificatesStruct[] memory)\r\n    {\r\n        return(_pendingCertificates);\r\n    }\r\n\r\n    function isCertificate(address pool, bytes32 CertificateHash, address holder) external override view returns(bool)\r\n    {\r\n        return internalisCertificate(pool, CertificateHash, holder);\r\n    }\r\n\r\n    function internalisCertificate(address pool, bytes32 CertificateHash, address holder) internal view returns(bool)\r\n    {\r\n        IPool poolToCheck = IPool(pool);\r\n        address provider = poolToCheck.retrieveCertificateProvider(CertificateHash, holder);\r\n        if(provider == address(this)) return true;\r\n        return false;\r\n    }\r\n\r\n    function isCertificatePendingToAdded(address pool, bytes32 CertificateHash, address holder) internal view returns(bool)\r\n    {\r\n        return ItemsLibrary.isItemPendingToAdded(CertificateHash, _CertificatesPerPool[pool]._CertificatesPerHolder[holder]);\r\n    }\r\n\r\n    function RemoveResizeCertificatesStructArray(Library._pendingCertificatesStruct[] storage array, uint index) internal\r\n    {\r\n        array[index] = array[array.length - 1];\r\n        array.pop();\r\n    }\r\n\r\n    function PositionInArray(Library._pendingCertificatesStruct memory value, Library._pendingCertificatesStruct[] memory array) internal pure returns(uint)\r\n    {\r\n         for(uint i=0; i < array.length; i++){\r\n            if(value.pool == array[i].pool && \r\n                value.holder == array[i].holder && \r\n                value.certificate == array[i].certificate) return i;\r\n        }\r\n\r\n        return array.length + 1;\r\n    }\r\n\r\n    receive() external override payable{}\r\n\r\n    // CALLBACKS /////////////////////////////////////////\r\n    function onItemValidated(bytes32 item, uint256[] calldata ids, bool addOrRemove) public override  \r\n    {\r\n        super.onItemValidated(item, ids, addOrRemove);\r\n\r\n        if(ids[0] == _poolId){\r\n            address pool = AddressLibrary.Bytes32ToAddress(item);\r\n\r\n            if(false == addOrRemove)removeConfigForPool(pool);\r\n            else if(true == _mustSubscribe[pool]){\r\n                IPool poolToSubscribe = IPool(pool);\r\n                uint SubscriptionPrice = poolToSubscribe.retrieveSubscriptionPriceWei();\r\n                poolToSubscribe.addProvider{value:SubscriptionPrice}(address(this), _ProviderInfo);\r\n            }\r\n        }\r\n        else if(ids[0] == _certId){\r\n            manipulateCertificate(AddressLibrary.UintToAddress(ids[1]), item, AddressLibrary.UintToAddress(ids[2]));\r\n            RemoveResizeCertificatesStructArray(_pendingCertificates, ids[3]);\r\n        }\r\n    }\r\n\r\n    function onItemRejected(bytes32 item, uint256[] calldata ids, bool addOrRemove) public override  \r\n    {\r\n        super.onItemRejected(item, ids, addOrRemove);\r\n\r\n        if(ids[0] == _poolId){\r\n            address pool = AddressLibrary.Bytes32ToAddress(item);\r\n\r\n            if(true == addOrRemove)removeConfigForPool(pool);\r\n        } \r\n        else if(ids[0] == _certId){\r\n            RemoveResizeCertificatesStructArray(_pendingCertificates, ids[3]);\r\n        }\r\n    }\r\n    \r\n }",
  "sourcePath": "C:\\Users\\d-aam\\GitHub\\Certificates\\contracts\\DeployedContracts\\Provider.sol",
  "compiler": {
    "name": "solc",
    "version": "0.8.7+commit.e28d00a7.Emscripten.clang"
  },
  "schemaVersion": "3.4.3",
  "updatedAt": "2022-03-22T11:40:15.563Z",
  "networkType": "ethereum",
  "devdoc": {
    "kind": "dev",
    "methods": {},
    "version": 1
  },
  "userdoc": {
    "kind": "user",
    "methods": {},
    "version": 1
  }
}