{
  "contractName": "Provider",
  "abi": [
    {
      "anonymous": false,
      "inputs": [
        {
          "indexed": false,
          "internalType": "string",
          "name": "ItemType",
          "type": "string"
        },
        {
          "indexed": true,
          "internalType": "bytes32",
          "name": "Item",
          "type": "bytes32"
        },
        {
          "indexed": false,
          "internalType": "string",
          "name": "Info",
          "type": "string"
        }
      ],
      "name": "_AddItemRejection",
      "type": "event"
    },
    {
      "anonymous": false,
      "inputs": [
        {
          "indexed": false,
          "internalType": "string",
          "name": "ItemType",
          "type": "string"
        },
        {
          "indexed": true,
          "internalType": "bytes32",
          "name": "Item",
          "type": "bytes32"
        },
        {
          "indexed": false,
          "internalType": "string",
          "name": "Info",
          "type": "string"
        }
      ],
      "name": "_AddItemValidation",
      "type": "event"
    },
    {
      "anonymous": false,
      "inputs": [
        {
          "indexed": false,
          "internalType": "string",
          "name": "ENSName",
          "type": "string"
        },
        {
          "indexed": false,
          "internalType": "bytes32",
          "name": "node",
          "type": "bytes32"
        },
        {
          "indexed": false,
          "internalType": "address",
          "name": "addr",
          "type": "address"
        }
      ],
      "name": "_NewReverseENSCreated",
      "type": "event"
    },
    {
      "anonymous": false,
      "inputs": [
        {
          "indexed": false,
          "internalType": "string",
          "name": "ItemType",
          "type": "string"
        },
        {
          "indexed": true,
          "internalType": "bytes32",
          "name": "Item",
          "type": "bytes32"
        },
        {
          "indexed": false,
          "internalType": "string",
          "name": "Info",
          "type": "string"
        }
      ],
      "name": "_RemoveItemRejection",
      "type": "event"
    },
    {
      "anonymous": false,
      "inputs": [
        {
          "indexed": false,
          "internalType": "string",
          "name": "ItemType",
          "type": "string"
        },
        {
          "indexed": true,
          "internalType": "bytes32",
          "name": "Item",
          "type": "bytes32"
        },
        {
          "indexed": false,
          "internalType": "string",
          "name": "Info",
          "type": "string"
        }
      ],
      "name": "_RemoveItemValidation",
      "type": "event"
    },
    {
      "inputs": [
        {
          "internalType": "address[]",
          "name": "owners",
          "type": "address[]"
        },
        {
          "internalType": "uint256",
          "name": "minOwners",
          "type": "uint256"
        },
        {
          "internalType": "uint256",
          "name": "TotalEntities",
          "type": "uint256"
        },
        {
          "internalType": "string[]",
          "name": "labels",
          "type": "string[]"
        },
        {
          "internalType": "uint256",
          "name": "ownerId",
          "type": "uint256"
        }
      ],
      "name": "MultiSigContract_init",
      "outputs": [],
      "stateMutability": "nonpayable",
      "type": "function"
    },
    {
      "inputs": [
        {
          "internalType": "address",
          "name": "owner",
          "type": "address"
        },
        {
          "internalType": "string",
          "name": "ownerInfo",
          "type": "string"
        }
      ],
      "name": "addOwner",
      "outputs": [],
      "stateMutability": "nonpayable",
      "type": "function"
    },
    {
      "inputs": [
        {
          "internalType": "uint256",
          "name": "newMinOwners",
          "type": "uint256"
        }
      ],
      "name": "changeMinOwners",
      "outputs": [],
      "stateMutability": "nonpayable",
      "type": "function"
    },
    {
      "inputs": [],
      "name": "rejectMinOwners",
      "outputs": [],
      "stateMutability": "nonpayable",
      "type": "function"
    },
    {
      "inputs": [
        {
          "internalType": "address",
          "name": "owner",
          "type": "address"
        }
      ],
      "name": "rejectOwner",
      "outputs": [],
      "stateMutability": "nonpayable",
      "type": "function"
    },
    {
      "inputs": [
        {
          "internalType": "address",
          "name": "owner",
          "type": "address"
        }
      ],
      "name": "removeOwner",
      "outputs": [],
      "stateMutability": "nonpayable",
      "type": "function"
    },
    {
      "inputs": [],
      "name": "retrieveAllOwners",
      "outputs": [
        {
          "internalType": "bytes32[]",
          "name": "",
          "type": "bytes32[]"
        }
      ],
      "stateMutability": "view",
      "type": "function"
    },
    {
      "inputs": [],
      "name": "retrieveMinOwners",
      "outputs": [
        {
          "internalType": "uint256",
          "name": "",
          "type": "uint256"
        }
      ],
      "stateMutability": "view",
      "type": "function"
    },
    {
      "inputs": [
        {
          "internalType": "address",
          "name": "owner",
          "type": "address"
        }
      ],
      "name": "retrieveOwner",
      "outputs": [
        {
          "components": [
            {
              "internalType": "string",
              "name": "_Info",
              "type": "string"
            },
            {
              "internalType": "bool",
              "name": "_activated",
              "type": "bool"
            },
            {
              "internalType": "uint256",
              "name": "_id",
              "type": "uint256"
            },
            {
              "internalType": "uint256",
              "name": "_pendingId",
              "type": "uint256"
            },
            {
              "internalType": "address[]",
              "name": "_Validations",
              "type": "address[]"
            },
            {
              "internalType": "address[]",
              "name": "_Rejections",
              "type": "address[]"
            }
          ],
          "internalType": "struct ItemsLibrary._itemIdentity",
          "name": "",
          "type": "tuple"
        }
      ],
      "stateMutability": "view",
      "type": "function"
    },
    {
      "inputs": [],
      "name": "retrievePendingMinOwners",
      "outputs": [
        {
          "internalType": "uint256",
          "name": "",
          "type": "uint256"
        }
      ],
      "stateMutability": "view",
      "type": "function"
    },
    {
      "inputs": [],
      "name": "retrievePendingMinOwnersStatus",
      "outputs": [
        {
          "internalType": "uint256",
          "name": "",
          "type": "uint256"
        },
        {
          "internalType": "uint256",
          "name": "",
          "type": "uint256"
        },
        {
          "internalType": "address[]",
          "name": "",
          "type": "address[]"
        }
      ],
      "stateMutability": "view",
      "type": "function"
    },
    {
      "inputs": [
        {
          "internalType": "bool",
          "name": "addedORremove",
          "type": "bool"
        }
      ],
      "name": "retrievePendingOwners",
      "outputs": [
        {
          "internalType": "bytes32[]",
          "name": "",
          "type": "bytes32[]"
        }
      ],
      "stateMutability": "view",
      "type": "function"
    },
    {
      "inputs": [],
      "name": "validateMinOwners",
      "outputs": [],
      "stateMutability": "nonpayable",
      "type": "function"
    },
    {
      "inputs": [
        {
          "internalType": "address",
          "name": "owner",
          "type": "address"
        }
      ],
      "name": "validateOwner",
      "outputs": [],
      "stateMutability": "nonpayable",
      "type": "function"
    },
    {
      "stateMutability": "payable",
      "type": "receive"
    },
    {
      "inputs": [
        {
          "internalType": "address[]",
          "name": "owners",
          "type": "address[]"
        },
        {
          "internalType": "uint256",
          "name": "minOwners",
          "type": "uint256"
        },
        {
          "internalType": "string",
          "name": "ProviderInfo",
          "type": "string"
        },
        {
          "internalType": "string",
          "name": "ENSName",
          "type": "string"
        },
        {
          "internalType": "address",
          "name": "ReverseRegistryAddress",
          "type": "address"
        }
      ],
      "name": "Provider_init",
      "outputs": [],
      "stateMutability": "nonpayable",
      "type": "function"
    },
    {
      "inputs": [
        {
          "internalType": "address",
          "name": "pool",
          "type": "address"
        },
        {
          "internalType": "string",
          "name": "poolInfo",
          "type": "string"
        },
        {
          "internalType": "bool",
          "name": "mustSubscribe",
          "type": "bool"
        }
      ],
      "name": "addPool",
      "outputs": [],
      "stateMutability": "nonpayable",
      "type": "function"
    },
    {
      "inputs": [
        {
          "internalType": "address",
          "name": "pool",
          "type": "address"
        }
      ],
      "name": "removePool",
      "outputs": [],
      "stateMutability": "nonpayable",
      "type": "function"
    },
    {
      "inputs": [
        {
          "internalType": "address",
          "name": "pool",
          "type": "address"
        }
      ],
      "name": "validatePool",
      "outputs": [],
      "stateMutability": "nonpayable",
      "type": "function"
    },
    {
      "inputs": [
        {
          "internalType": "address",
          "name": "pool",
          "type": "address"
        }
      ],
      "name": "rejectPool",
      "outputs": [],
      "stateMutability": "nonpayable",
      "type": "function"
    },
    {
      "inputs": [
        {
          "internalType": "address",
          "name": "pool",
          "type": "address"
        }
      ],
      "name": "retrievePool",
      "outputs": [
        {
          "components": [
            {
              "internalType": "string",
              "name": "_Info",
              "type": "string"
            },
            {
              "internalType": "bool",
              "name": "_activated",
              "type": "bool"
            },
            {
              "internalType": "uint256",
              "name": "_id",
              "type": "uint256"
            },
            {
              "internalType": "uint256",
              "name": "_pendingId",
              "type": "uint256"
            },
            {
              "internalType": "address[]",
              "name": "_Validations",
              "type": "address[]"
            },
            {
              "internalType": "address[]",
              "name": "_Rejections",
              "type": "address[]"
            }
          ],
          "internalType": "struct ItemsLibrary._itemIdentity",
          "name": "",
          "type": "tuple"
        }
      ],
      "stateMutability": "view",
      "type": "function"
    },
    {
      "inputs": [
        {
          "internalType": "address",
          "name": "pool",
          "type": "address"
        }
      ],
      "name": "retrievePoolConfg",
      "outputs": [
        {
          "internalType": "bool",
          "name": "",
          "type": "bool"
        },
        {
          "internalType": "bool",
          "name": "",
          "type": "bool"
        }
      ],
      "stateMutability": "view",
      "type": "function"
    },
    {
      "inputs": [],
      "name": "retrieveAllPools",
      "outputs": [
        {
          "internalType": "bytes32[]",
          "name": "",
          "type": "bytes32[]"
        }
      ],
      "stateMutability": "view",
      "type": "function"
    },
    {
      "inputs": [
        {
          "internalType": "bool",
          "name": "addedORremove",
          "type": "bool"
        }
      ],
      "name": "retrievePendingPools",
      "outputs": [
        {
          "internalType": "bytes32[]",
          "name": "",
          "type": "bytes32[]"
        }
      ],
      "stateMutability": "view",
      "type": "function"
    },
    {
      "inputs": [
        {
          "internalType": "address",
          "name": "pool",
          "type": "address"
        },
        {
          "internalType": "bytes32",
          "name": "CertificateHash",
          "type": "bytes32"
        },
        {
          "internalType": "address",
          "name": "holder",
          "type": "address"
        }
      ],
      "name": "addCertificate",
      "outputs": [],
      "stateMutability": "nonpayable",
      "type": "function"
    },
    {
      "inputs": [
        {
          "internalType": "address",
          "name": "pool",
          "type": "address"
        },
        {
          "internalType": "bytes32",
          "name": "CertificateHash",
          "type": "bytes32"
        },
        {
          "internalType": "address",
          "name": "holder",
          "type": "address"
        }
      ],
      "name": "validateCertificate",
      "outputs": [],
      "stateMutability": "nonpayable",
      "type": "function"
    },
    {
      "inputs": [
        {
          "internalType": "address",
          "name": "pool",
          "type": "address"
        },
        {
          "internalType": "bytes32",
          "name": "CertificateHash",
          "type": "bytes32"
        },
        {
          "internalType": "address",
          "name": "holder",
          "type": "address"
        }
      ],
      "name": "rejectCertificate",
      "outputs": [],
      "stateMutability": "nonpayable",
      "type": "function"
    },
    {
      "inputs": [],
      "name": "retrievePendingCertificates",
      "outputs": [
        {
          "components": [
            {
              "internalType": "address",
              "name": "pool",
              "type": "address"
            },
            {
              "internalType": "address",
              "name": "holder",
              "type": "address"
            },
            {
              "internalType": "bytes32",
              "name": "certificate",
              "type": "bytes32"
            }
          ],
          "internalType": "struct Library._pendingCertificatesStruct[]",
          "name": "",
          "type": "tuple[]"
        }
      ],
      "stateMutability": "view",
      "type": "function"
    },
    {
      "inputs": [
        {
          "internalType": "address",
          "name": "pool",
          "type": "address"
        },
        {
          "internalType": "bytes32",
          "name": "CertificateHash",
          "type": "bytes32"
        },
        {
          "internalType": "address",
          "name": "holder",
          "type": "address"
        }
      ],
      "name": "isCertificate",
      "outputs": [
        {
          "internalType": "bool",
          "name": "",
          "type": "bool"
        }
      ],
      "stateMutability": "view",
      "type": "function"
    },
    {
      "inputs": [
        {
          "internalType": "bytes32",
          "name": "item",
          "type": "bytes32"
        },
        {
          "internalType": "uint256[]",
          "name": "ids",
          "type": "uint256[]"
        },
        {
          "internalType": "bool",
          "name": "addOrRemove",
          "type": "bool"
        }
      ],
      "name": "onItemValidated",
      "outputs": [],
      "stateMutability": "nonpayable",
      "type": "function"
    },
    {
      "inputs": [
        {
          "internalType": "bytes32",
          "name": "item",
          "type": "bytes32"
        },
        {
          "internalType": "uint256[]",
          "name": "ids",
          "type": "uint256[]"
        },
        {
          "internalType": "bool",
          "name": "addOrRemove",
          "type": "bool"
        }
      ],
      "name": "onItemRejected",
      "outputs": [],
      "stateMutability": "nonpayable",
      "type": "function"
    }
  ],
  "bytecode": "0x608060405234801561001057600080fd5b50613cd0806100206000396000f3fe6080604052600436106101615760003560e01c8063017cb3db1461016d57806314a2ed2f1461018f578063173825d9146101af5780632d99aaf2146101cf5780632edbe7fc146101fa57806330ade922146102195780633542758f1461022e5780633b7d09461461024e5780633fd071811461026e578063530467461461028e5780635888ebb3146102ae57806360500f96146102d257806365b973e5146102f25780636b2996041461030757806376f8f90f1461032757806377bc5a1f146103475780637c8c2add146103745780638fc2d8ea1461039457806391d59093146103b4578063a706752c14610415578063a93d5ed614610445578063bd9f37051461045a578063c3079ae71461047a578063c66433ea1461048f578063cd019e07146104af578063ce33d58a146104d1578063cf2041d9146104f1578063d920928914610511578063f804938214610531578063fb1f69171461055157600080fd5b3661016857005b600080fd5b34801561017957600080fd5b5061018d610188366004613166565b610571565b005b34801561019b57600080fd5b5061018d6101aa366004613166565b61060c565b3480156101bb57600080fd5b5061018d6101ca36600461312c565b61066e565b3480156101db57600080fd5b506101e46106a4565b6040516101f191906137fa565b60405180910390f35b34801561020657600080fd5b506005545b6040519081526020016101f1565b34801561022557600080fd5b5061018d6106b5565b34801561023a57600080fd5b5061018d6102493660046131a8565b6106de565b34801561025a57600080fd5b5061018d61026936600461312c565b6106ec565b34801561027a57600080fd5b5061018d6102893660046134e6565b6106fa565b34801561029a57600080fd5b5061018d6102a93660046131fc565b610816565b3480156102ba57600080fd5b506102c3610880565b6040516101f193929190613aad565b3480156102de57600080fd5b5061018d6102ed366004613263565b6108f4565b3480156102fe57600080fd5b5060015461020b565b34801561031357600080fd5b506101e4610322366004613493565b610b51565b34801561033357600080fd5b5061018d61034236600461312c565b610b65565b34801561035357600080fd5b5061036761036236600461312c565b610bc0565b6040516101f1919061397b565b34801561038057600080fd5b5061018d61038f3660046134e6565b610bd4565b3480156103a057600080fd5b506103676103af36600461312c565b610f2e565b3480156103c057600080fd5b506103fe6103cf36600461312c565b6001600160a01b0316600090815260096020908152604080832054600a9092529091205460ff91821692911690565b6040805192151583529015156020830152016101f1565b34801561042157600080fd5b50610435610430366004613166565b610f41565b60405190151581526020016101f1565b34801561045157600080fd5b506101e4610f58565b34801561046657600080fd5b5061018d610475366004613166565b610f65565b34801561048657600080fd5b5061018d610fc7565b34801561049b57600080fd5b5061018d6104aa366004613645565b610ff0565b3480156104bb57600080fd5b506104c461105f565b6040516101f1919061383e565b3480156104dd57600080fd5b5061018d6104ec36600461312c565b6110e6565b3480156104fd57600080fd5b5061018d61050c366004613309565b6110f2565b34801561051d57600080fd5b5061018d61052c36600461312c565b611375565b34801561053d57600080fd5b506101e461054c366004613493565b611380565b34801561055d57600080fd5b5061018d61056c36600461312c565b61138d565b8261057b81611398565b33610585816113da565b600080610593878787611420565b604051635cb09bcf60e01b8152919350915073__ItemsLibrary__________________________90635cb09bcf906105d3908590859030906004016139fc565b60006040518083038186803b1580156105eb57600080fd5b505af41580156105ff573d6000803e3d6000fd5b5050505050505050505050565b8261061681611398565b33610620816113da565b60008061062e878787611420565b6040516305cc2d5560e11b8152919350915073__ItemsLibrary__________________________90630b985aaa906105d3908590859030906004016139fc565b600154600161067e6000546114b1565b516106899190613b86565b61069382826115d7565b61069f836000546115fb565b505050565b60606106b060016114b1565b905090565b336106bf816113da565b60016106ca816116d1565b336106d481611746565b61069f6001611806565b61069f83838360005461188d565b6106f78160016115fb565b50565b610706848484846119c6565b60018383600081811061071b5761071b613c4b565b9050602002013514156107ca57604051631e99d35d60e31b81526004810185905260009073__AddressLibrary________________________9063f4ce9ae89060240160206040518083038186803b15801561077657600080fd5b505af415801561078a573d6000803e3d6000fd5b505050506040513d601f19601f820116820180604052508101906107ae9190613149565b9050600182151514156107c4576107c481611a3c565b50610810565b6002838360008181106107df576107df613c4b565b90506020020135141561081057610810600d8484600381811061080457610804613c4b565b90506020020135611a72565b50505050565b6001600160a01b0384166000908152600a602052604090205460ff16610873576001600160a01b0384166000908152600960209081526040808320805485151560ff1991821617909155600a909252909120805490911660011790555b610810848484600161188d565b60008060606006546007546008808054806020026020016040519081016040528092919081815260200182805480156108e257602002820191906000526020600020905b81546001600160a01b031681526001909101906020018083116108c4575b50505050509050925092509250909192565b600454610100900460ff168061090d575060045460ff16155b6109325760405162461bcd60e51b81526004016109299061392d565b60405180910390fd5b600454610100900460ff16158015610954576004805461ffff19166101011790555b6040805160028082526060820190925290816020015b606081526020019060019003908161096a575050805161099291600b91602090910190612d89565b506040518060400160405280600581526020016427bbb732b960d91b815250600b6000815481106109c5576109c5613c4b565b9060005260206000200190805190602001906109e2929190612de6565b5060405180604001604052806004815260200163141bdbdb60e21b815250600b600181548110610a1457610a14613c4b565b906000526020600020019080519060200190610a31929190612de6565b50610b1286866002600b805480602002602001604051908101604052809291908181526020016000905b82821015610b07578382906000526020600020018054610a7a90613bc9565b80601f0160208091040260200160405190810160405280929190818152602001828054610aa690613bc9565b8015610af35780601f10610ac857610100808354040283529160200191610af3565b820191906000526020600020905b815481529060010190602001808311610ad657829003601f168201915b505050505081526020019060010190610a5b565b5050505060006110f2565b8351610b2590600e906020870190612de6565b50825115610b3757610b378383611b49565b8015610b49576004805461ff00191690555b505050505050565b6060610b5f82600054611c0f565b92915050565b610b7181600054611d44565b151560011415610bb4576001610b886000546114b1565b51610b939190613b86565b6001541115610bb45760405162461bcd60e51b81526004016109299061390e565b6106f781600054611eea565b610bc8612e66565b610b5f82600054611f80565b610be0848484846119c6565b600183836000818110610bf557610bf5613c4b565b905060200201351415610da757604051631e99d35d60e31b81526004810185905260009073__AddressLibrary________________________9063f4ce9ae89060240160206040518083038186803b158015610c5057600080fd5b505af4158015610c64573d6000803e3d6000fd5b505050506040513d601f19601f82011682018060405250810190610c889190613149565b905081610c9d57610c9881611a3c565b6107c4565b6001600160a01b03811660009081526009602052604090205460ff161515600114156107c45760008190506000816001600160a01b03166357e7ea2e6040518163ffffffff1660e01b815260040160206040518083038186803b158015610d0357600080fd5b505afa158015610d17573d6000803e3d6000fd5b505050506040513d601f19601f82011682018060405250810190610d3b91906134cd565b9050816001600160a01b031663fc0005008230600e6040518463ffffffff1660e01b8152600401610d6d929190613741565b6000604051808303818588803b158015610d8657600080fd5b505af1158015610d9a573d6000803e3d6000fd5b5050505050505050610810565b600283836000818110610dbc57610dbc613c4b565b90506020020135141561081057610f1673__AddressLibrary________________________63b1e2771485856001818110610df957610df9613c4b565b905060200201356040518263ffffffff1660e01b8152600401610e1e91815260200190565b60206040518083038186803b158015610e3657600080fd5b505af4158015610e4a573d6000803e3d6000fd5b505050506040513d601f19601f82011682018060405250810190610e6e9190613149565b8573__AddressLibrary________________________63b1e2771487876002818110610e9c57610e9c613c4b565b905060200201356040518263ffffffff1660e01b8152600401610ec191815260200190565b60206040518083038186803b158015610ed957600080fd5b505af4158015610eed573d6000803e3d6000fd5b505050506040513d601f19601f82011682018060405250810190610f119190613149565b612130565b610810600d8484600381811061080457610804613c4b565b610f36612e66565b610b5f826001611f80565b6000610f4e848484612302565b90505b9392505050565b60606106b06000546114b1565b82610f6f81611398565b33610f79816113da565b600080610f87878787611420565b604051637493a70b60e01b8152919350915073__ItemsLibrary__________________________90637493a70b906105d3908590859030906004016139fc565b33610fd1816113da565b6001610fdc816116d1565b33610fe681611746565b61069f6000611806565b33610ffa816113da565b6000611005816116d1565b8260026000548154811061101b5761101b613c4b565b90600052602060002090600402016001018054905061103a82826115d7565b60018561104782826115d7565b60058790556110566001611806565b50505050505050565b6060600d805480602002602001604051908101604052809291908181526020016000905b828210156110dd576000848152602090819020604080516060810182526003860290920180546001600160a01b03908116845260018083015490911684860152600290910154918301919091529083529092019101611083565b50505050905090565b6106f7816000546123b1565b600454610100900460ff168061110b575060045460ff16155b6111275760405162461bcd60e51b81526004016109299061392d565b600454610100900460ff16158015611149576004805461ffff19166101011790555b84865161115682826115d7565b60018761116382826115d7565b8651881461119b5760405162461bcd60e51b8152602060048201526005602482015264454331382d60d81b6044820152606401610929565b60008681555b888110156112115760028054600101815560005287516003908990839081106111cc576111cc613c4b565b602090810291909101810151825460018101845560009384529282902081516111fe9491909101929190910190612de6565b508061120981613c04565b9150506111a1565b50600189905560005b8a5181101561135757600073__AddressLibrary________________________63bc215e858d848151811061125157611251613c4b565b60200260200101516040518263ffffffff1660e01b815260040161127591906136ce565b60206040518083038186803b15801561128d57600080fd5b505af41580156112a1573d6000803e3d6000fd5b505050506040513d601f19601f820116820180604052508101906112c591906134cd565b905060016002600054815481106112de576112de613c4b565b60009182526020808320858452600492909202909101905260408120600101805460ff1916921515929092179091555460028054909190811061132357611323613c4b565b600091825260208083206001600490930201820180549283018155835290912001558061134f81613c04565b91505061121a565b50505050508015610b49576004805461ff0019169055505050505050565b6106f7816001611eea565b6060610b5f826001611c0f565b6106f78160016123b1565b6113a181612447565b15156001146106f75760405162461bcd60e51b8152602060048201526005602482015264454333362d60d81b6044820152606401610929565b6113e681600054612450565b15156001146106f75760405162461bcd60e51b8152600401610929906020808252600490820152634543392d60e01b604082015260600190565b611428612e9e565b60008061143686868661257b565b6040805160a0810182529687528051602080820183526000808352818a01929092526001548984015282518084018452600b81526a436572746966696361746560a81b8183015260608a015260808901939093526001600160a01b039889168152600c83528181209690981688529490525050509091209091565b60025460405163123bd07560e11b8152606091839173__Library_______________________________90632477a0ea906114f290859085906004016138ba565b60006040518083038186803b15801561150a57600080fd5b505af415801561151e573d6000803e3d6000fd5b5050505073__ItemsLibrary__________________________6327724f4b6002868154811061154f5761154f613c4b565b90600052602060002090600402016040518263ffffffff1660e01b815260040161157b91815260200190565b60006040518083038186803b15801561159357600080fd5b505af41580156115a7573d6000803e3d6000fd5b505050506040513d6000823e601f3d908101601f191682016040526115cf91908101906133fc565b949350505050565b808211156115f75760405162461bcd60e51b81526004016109299061390e565b5050565b60025460405163123bd07560e11b815282919073__Library_______________________________90632477a0ea9061163a90859085906004016138ba565b60006040518083038186803b15801561165257600080fd5b505af4158015611666573d6000803e3d6000fd5b5050505033611674816113da565b6000806116918760405180602001604052806000815250886128ce565b60405163e23fcdef60e01b8152919350915073__ItemsLibrary__________________________9063e23fcdef906105d3908590859030906004016139fc565b801561170e576005546106f75760405162461bcd60e51b8152602060048201526005602482015264454333312d60d81b6044820152606401610929565b600554156106f75760405162461bcd60e51b8152602060048201526005602482015264454333302d60d81b6044820152606401610929565b60405163f7cf62d760e01b815273__AddressLibrary________________________9063f7cf62d7906117809084906008906004016136e2565b60206040518083038186803b15801561179857600080fd5b505af41580156117ac573d6000803e3d6000fd5b505050506040513d601f19601f820116820180604052508101906117d091906134b0565b156106f75760405162461bcd60e51b8152600401610929906020808252600490820152634543352d60e01b604082015260600190565b801561182a5760016006600082825461181f9190613b6e565b909155506118439050565b60016007600082825461183d9190613b6e565b90915550505b600880546001810182556000919091527ff3f7a9fe364faab93b216da50a3214154f22a0a2b415b23a84c8169e8b636ee30180546001600160a01b031916331790556106f7612aad565b60025460405163123bd07560e11b815282919073__Library_______________________________90632477a0ea906118cc90859085906004016138ba565b60006040518083038186803b1580156118e457600080fd5b505af41580156118f8573d6000803e3d6000fd5b5050505033611906816113da565b60008061194b8989898080601f0160208091040260200160405190810160405280939291908181526020018383808284376000920191909152508b92506128ce915050565b6040516305cc2d5560e11b8152919350915073__ItemsLibrary__________________________90630b985aaa9061198b908590859030906004016139fc565b60006040518083038186803b1580156119a357600080fd5b505af41580156119b7573d6000803e3d6000fd5b50505050505050505050505050565b6040516337ea306360e01b815233600482018190523060248301819052909173__Library_______________________________906337ea30639060440160006040518083038186803b158015611a1c57600080fd5b505af4158015611a30573d6000803e3d6000fd5b50505050505050505050565b6001600160a01b03166000908152600a60209081526040808320805460ff19908116909155600990925290912080549091169055565b81548290611a8290600190613b86565b81548110611a9257611a92613c4b565b9060005260206000209060030201828281548110611ab257611ab2613c4b565b60009182526020909120825460039092020180546001600160a01b039283166001600160a01b03199182161782556001808501549083018054919094169116179091556002918201549101558154829080611b0f57611b0f613c35565b60008281526020812060036000199093019283020180546001600160a01b0319908116825560018201805490911690556002015590555050565b60405163c47f002760e01b815281906000906001600160a01b0383169063c47f002790611b7a9087906004016138c8565b602060405180830381600087803b158015611b9457600080fd5b505af1158015611ba8573d6000803e3d6000fd5b505050506040513d601f19601f82011682018060405250810190611bcc91906134cd565b90507f33ef81cad1e96e7a08670293e5ef94b9d7f3b8799292751c76914bc8c1270ca4848230604051611c01939291906138db565b60405180910390a150505050565b60025460405163123bd07560e11b8152606091839173__Library_______________________________90632477a0ea90611c5090859085906004016138ba565b60006040518083038186803b158015611c6857600080fd5b505af4158015611c7c573d6000803e3d6000fd5b50505050606073__ItemsLibrary__________________________63e035e0068760028881548110611cb057611cb0613c4b565b90600052602060002090600402016040518363ffffffff1660e01b8152600401611ce69291909115158252602082015260400190565b60006040518083038186803b158015611cfe57600080fd5b505af4158015611d12573d6000803e3d6000fd5b505050506040513d6000823e601f3d908101601f19168201604052611d3a91908101906133fc565b9695505050505050565b60025460405163123bd07560e11b8152600091839173__Library_______________________________90632477a0ea90611d8590859085906004016138ba565b60006040518083038186803b158015611d9d57600080fd5b505af4158015611db1573d6000803e3d6000fd5b505060405163bc215e8560e01b81526000925073__AddressLibrary________________________915063bc215e8590611def9089906004016136ce565b60206040518083038186803b158015611e0757600080fd5b505af4158015611e1b573d6000803e3d6000fd5b505050506040513d601f19601f82011682018060405250810190611e3f91906134cd565b905073__ItemsLibrary__________________________632854ed2e8260028881548110611e6f57611e6f613c4b565b90600052602060002090600402016040518363ffffffff1660e01b8152600401611e9a9291906138ba565b60206040518083038186803b158015611eb257600080fd5b505af4158015611ec6573d6000803e3d6000fd5b505050506040513d601f19601f82011682018060405250810190611d3a91906134b0565b60025460405163123bd07560e11b815282919073__Library_______________________________90632477a0ea90611f2990859085906004016138ba565b60006040518083038186803b158015611f4157600080fd5b505af4158015611f55573d6000803e3d6000fd5b5050505033611f63816113da565b600080610f878760405180602001604052806000815250886128ce565b611f88612e66565b60025460405163123bd07560e11b815283919073__Library_______________________________90632477a0ea90611fc790859085906004016138ba565b60006040518083038186803b158015611fdf57600080fd5b505af4158015611ff3573d6000803e3d6000fd5b505060405163bc215e8560e01b81526000925073__AddressLibrary________________________915063bc215e85906120319089906004016136ce565b60206040518083038186803b15801561204957600080fd5b505af415801561205d573d6000803e3d6000fd5b505050506040513d601f19601f8201168201806040525081019061208191906134cd565b905073__ItemsLibrary__________________________631aeccc6a82600288815481106120b1576120b1613c4b565b90600052602060002090600402016040518363ffffffff1660e01b81526004016120dc9291906138ba565b60006040518083038186803b1580156120f457600080fd5b505af4158015612108573d6000803e3d6000fd5b505050506040513d6000823e601f3d908101601f19168201604052611d3a919081019061356c565b8261213a81611398565b60008490506000816001600160a01b0316634774779d6040518163ffffffff1660e01b815260040160206040518083038186803b15801561217a57600080fd5b505afa15801561218e573d6000803e3d6000fd5b505050506040513d601f19601f820116820180604052508101906121b291906134cd565b9050816001600160a01b0316631ab807f88287876040518463ffffffff1660e01b81526004016121e39291906138a3565b6000604051808303818588803b1580156121fc57600080fd5b505af1158015612210573d6000803e3d6000fd5b5050506001600160a01b038089166000908152600c60209081526040808320938a168352929052819020905163207c442760e01b815290925073__ItemsLibrary__________________________915063207c44279061227690899085906004016138ba565b60006040518083038186803b15801561228e57600080fd5b505af41580156122a2573d6000803e3d6000fd5b505050600087815260208390526040812091506122bf8282612ed0565b60018201805460ff19169055600060028301819055600383018190556122e9906004840190612f0a565b6122f7600583016000612f0a565b505050505050505050565b60405163685256ff60e11b8152600090849082906001600160a01b0383169063d0a4adfe9061233790889088906004016138a3565b60206040518083038186803b15801561234f57600080fd5b505afa158015612363573d6000803e3d6000fd5b505050506040513d601f19601f820116820180604052508101906123879190613149565b90506001600160a01b0381163014156123a557600192505050610f51565b50600095945050505050565b60025460405163123bd07560e11b815282919073__Library_______________________________90632477a0ea906123f090859085906004016138ba565b60006040518083038186803b15801561240857600080fd5b505af415801561241c573d6000803e3d6000fd5b505050503361242a816113da565b6000806105938760405180602001604052806000815250886128ce565b6000610b5f8260015b60025460405163123bd07560e11b8152600091839173__Library_______________________________90632477a0ea9061249190859085906004016138ba565b60006040518083038186803b1580156124a957600080fd5b505af41580156124bd573d6000803e3d6000fd5b505060405163bc215e8560e01b81526000925073__AddressLibrary________________________915063bc215e85906124fb9089906004016136ce565b60206040518083038186803b15801561251357600080fd5b505af4158015612527573d6000803e3d6000fd5b505050506040513d601f19601f8201168201806040525081019061254b91906134cd565b905073__ItemsLibrary__________________________63dbdfbeec8260028881548110611e6f57611e6f613c4b565b60408051600480825260a082019092526060916000918291602082016080803683370190505090506002816000815181106125b8576125b8613c4b565b602090810291909101015260405163cf0668ed60e01b815273__AddressLibrary________________________9063cf0668ed906125fa9089906004016136ce565b60206040518083038186803b15801561261257600080fd5b505af4158015612626573d6000803e3d6000fd5b505050506040513d601f19601f8201168201806040525081019061264a91906134cd565b8160018151811061265d5761265d613c4b565b602090810291909101015260405163cf0668ed60e01b815273__AddressLibrary________________________9063cf0668ed9061269f9087906004016136ce565b60206040518083038186803b1580156126b757600080fd5b505af41580156126cb573d6000803e3d6000fd5b505050506040513d601f19601f820116820180604052508101906126ef91906134cd565b8160028151811061270257612702613c4b565b60200260200101818152505060006040518060600160405280886001600160a01b03168152602001866001600160a01b0316815260200187815250905061274a878787612be5565b61281957600d8054600181810183556000839052835160039092027fd7b6990105719101dabeb77144f2a3385c8033acd3af97e9423a695e81ad1eb5810180546001600160a01b039485166001600160a01b03199182161790915560208601517fd7b6990105719101dabeb77144f2a3385c8033acd3af97e9423a695e81ad1eb6830180549190951691161790925560408401517fd7b6990105719101dabeb77144f2a3385c8033acd3af97e9423a695e81ad1eb79092019190915590546128129190613b86565b92506128a5565b6128a281600d805480602002602001604051908101604052809291908181526020016000905b82821015612899576000848152602090819020604080516060810182526003860290920180546001600160a01b0390811684526001808301549091168486015260029091015491830191909152908352909201910161283f565b50505050612c93565b92505b82826003815181106128b9576128b9613c4b565b60209081029190910101525095945050505050565b6128d6612e9e565b60008073__AddressLibrary________________________63bc215e85876040518263ffffffff1660e01b815260040161291091906136ce565b60206040518083038186803b15801561292857600080fd5b505af415801561293c573d6000803e3d6000fd5b505050506040513d601f19601f8201168201806040525081019061296091906134cd565b6040805160018082528183019092529192506000919060208083019080368337019050509050848160008151811061299a5761299a613c4b565b60200260200101818152505060006040518060a001604052808481526020018881526020016001548152602001600388815481106129da576129da613c4b565b9060005260206000200180546129ef90613bc9565b80601f0160208091040260200160405190810160405280929190818152602001828054612a1b90613bc9565b8015612a685780601f10612a3d57610100808354040283529160200191612a68565b820191906000526020600020905b815481529060010190602001808311612a4b57829003601f168201915b50505050508152602001838152509050600060028781548110612a8d57612a8d613c4b565b600091825260209091209296506004029091019350505050935093915050565b60065460015460405163f6001d7d60e01b815273__ItemsLibrary__________________________9263f6001d7d92612ae8926004016138ba565b60206040518083038186803b158015612b0057600080fd5b505af4158015612b14573d6000803e3d6000fd5b505050506040513d601f19601f82011682018060405250810190612b3891906134b0565b15612b4d57600554600155612b4b612d6c565b565b60075460015460405163f6001d7d60e01b815273__ItemsLibrary__________________________9263f6001d7d92612b88926004016138ba565b60206040518083038186803b158015612ba057600080fd5b505af4158015612bb4573d6000803e3d6000fd5b505050506040513d601f19601f82011682018060405250810190612bd891906134b0565b15612b4b57612b4b612d6c565b6001600160a01b038084166000908152600c602090815260408083209385168352929052818120915162136bb360e11b8152909173__ItemsLibrary__________________________916226d76691612c43918791906004016138ba565b60206040518083038186803b158015612c5b57600080fd5b505af4158015612c6f573d6000803e3d6000fd5b505050506040513d601f19601f82011682018060405250810190610f4e91906134b0565b6000805b8251811015612d5e57828181518110612cb257612cb2613c4b565b6020026020010151600001516001600160a01b031684600001516001600160a01b0316148015612d145750828181518110612cef57612cef613c4b565b6020026020010151602001516001600160a01b031684602001516001600160a01b0316145b8015612d405750828181518110612d2d57612d2d613c4b565b6020026020010151604001518460400151145b15612d4c579050610b5f565b80612d5681613c04565b915050612c97565b508151610f51906001613b6e565b6000600581905560068190556007819055612b4b90600890612f0a565b828054828255906000526020600020908101928215612dd6579160200282015b82811115612dd65782518051612dc6918491602090910190612de6565b5091602001919060010190612da9565b50612de2929150612f28565b5090565b828054612df290613bc9565b90600052602060002090601f016020900481019282612e145760008555612e5a565b82601f10612e2d57805160ff1916838001178555612e5a565b82800160010185558215612e5a579182015b82811115612e5a578251825591602001919060010190612e3f565b50612de2929150612f45565b6040518060c0016040528060608152602001600015158152602001600081526020016000815260200160608152602001606081525090565b6040518060a0016040528060008019168152602001606081526020016000815260200160608152602001606081525090565b508054612edc90613bc9565b6000825580601f10612eec575050565b601f0160209004906000526020600020908101906106f79190612f45565b50805460008255906000526020600020908101906106f79190612f45565b80821115612de2576000612f3c8282612ed0565b50600101612f28565b5b80821115612de25760008155600101612f46565b600082601f830112612f6b57600080fd5b81356020612f80612f7b83613b24565b613af4565b80838252828201915082860187848660051b8901011115612fa057600080fd5b60005b85811015612fc8578135612fb681613c77565b84529284019290840190600101612fa3565b5090979650505050505050565b600082601f830112612fe657600080fd5b81516020612ff6612f7b83613b24565b80838252828201915082860187848660051b890101111561301657600080fd5b60005b85811015612fc857815161302c81613c77565b84529284019290840190600101613019565b805161304981613c8c565b919050565b60008083601f84011261306057600080fd5b5081356001600160401b0381111561307757600080fd5b60208301915083602082850101111561308f57600080fd5b9250929050565b600082601f8301126130a757600080fd5b81356130b5612f7b82613b47565b8181528460208386010111156130ca57600080fd5b816020850160208301376000918101602001919091529392505050565b600082601f8301126130f857600080fd5b8151613106612f7b82613b47565b81815284602083860101111561311b57600080fd5b6115cf826020830160208701613b9d565b60006020828403121561313e57600080fd5b8135610f5181613c77565b60006020828403121561315b57600080fd5b8151610f5181613c77565b60008060006060848603121561317b57600080fd5b833561318681613c77565b925060208401359150604084013561319d81613c77565b809150509250925092565b6000806000604084860312156131bd57600080fd5b83356131c881613c77565b925060208401356001600160401b038111156131e357600080fd5b6131ef8682870161304e565b9497909650939450505050565b6000806000806060858703121561321257600080fd5b843561321d81613c77565b935060208501356001600160401b0381111561323857600080fd5b6132448782880161304e565b909450925050604085013561325881613c8c565b939692955090935050565b600080600080600060a0868803121561327b57600080fd5b85356001600160401b038082111561329257600080fd5b61329e89838a01612f5a565b96506020880135955060408801359150808211156132bb57600080fd5b6132c789838a01613096565b945060608801359150808211156132dd57600080fd5b506132ea88828901613096565b92505060808601356132fb81613c77565b809150509295509295909350565b600080600080600060a0868803121561332157600080fd5b6001600160401b03863581101561333757600080fd5b6133448888358901612f5a565b955060208088013595506040880135945060608801358281111561336757600080fd5b8801601f81018a1361337857600080fd5b8035613386612f7b82613b24565b8082825284820191508484018d868560051b87010111156133a657600080fd5b60005b848110156133e05787823511156133bf57600080fd5b6133ce8f888435890101613096565b845292860192908601906001016133a9565b5050809750505050505050608086013590509295509295909350565b6000602080838503121561340f57600080fd5b82516001600160401b0381111561342557600080fd5b8301601f8101851361343657600080fd5b8051613444612f7b82613b24565b80828252848201915084840188868560051b870101111561346457600080fd5b600094505b83851015613487578051835260019490940193918501918501613469565b50979650505050505050565b6000602082840312156134a557600080fd5b8135610f5181613c8c565b6000602082840312156134c257600080fd5b8151610f5181613c8c565b6000602082840312156134df57600080fd5b5051919050565b600080600080606085870312156134fc57600080fd5b8435935060208501356001600160401b038082111561351a57600080fd5b818701915087601f83011261352e57600080fd5b81358181111561353d57600080fd5b8860208260051b850101111561355257600080fd5b602083019550809450505050604085013561325881613c8c565b60006020828403121561357e57600080fd5b81516001600160401b038082111561359557600080fd5b9083019060c082860312156135a957600080fd5b6135b1613acc565b8251828111156135c057600080fd5b6135cc878286016130e7565b8252506135db6020840161303e565b6020820152604083015160408201526060830151606082015260808301518281111561360657600080fd5b61361287828601612fd5565b60808301525060a08301518281111561362a57600080fd5b61363687828601612fd5565b60a08301525095945050505050565b60006020828403121561365757600080fd5b5035919050565b600081518084526020808501945080840160005b838110156136975781516001600160a01b031687529582019590820190600101613672565b509495945050505050565b600081518084526136ba816020860160208601613b9d565b601f01601f19169290920160200192915050565b6001600160a01b0391909116815260200190565b60006040820160018060a01b03808616845260206040818601528286548085526060870191508760005282600020945060005b81811015613733578554851683526001958601959284019201613715565b509098975050505050505050565b60018060a01b0383168152600060206040818401526000845481600182811c91508083168061377157607f831692505b85831081141561378f57634e487b7160e01b85526022600452602485fd5b60408801839052606088018180156137ae57600181146137bf576137ea565b60ff198616825287820196506137ea565b60008b81526020902060005b868110156137e4578154848201529085019089016137cb565b83019750505b50949a9950505050505050505050565b6020808252825182820181905260009190848201906040850190845b8181101561383257835183529284019291840191600101613816565b50909695505050505050565b602080825282518282018190526000919060409081850190868401855b8281101561389657815180516001600160a01b039081168652878201511687860152850151858501526060909301929085019060010161385b565b5091979650505050505050565b9182526001600160a01b0316602082015260400190565b918252602082015260400190565b602081526000610f5160208301846136a2565b6060815260006138ee60608301866136a2565b6020830194909452506001600160a01b0391909116604090910152919050565b602080825260059082015264454331392d60d81b604082015260600190565b6020808252602e908201527f496e697469616c697a61626c653a20636f6e747261637420697320616c72656160408201526d191e481a5b9a5d1a585b1a5e995960921b606082015260800190565b602081526000825160c0602084015261399760e08401826136a2565b905060208401511515604084015260408401516060840152606084015160808401526080840151601f19808584030160a08601526139d5838361365e565b925060a08601519150808584030160c0860152506139f3828261365e565b95945050505050565b6060815283516060820152600060208086015160a06080850152613a246101008501826136a2565b9050604087015160a08501526060870151605f19808684030160c0870152613a4c83836136a2565b60808a015187820390920160e088015281518082529185019350600092508401905b80831015613a8e5783518252928401926001929092019190840190613a6e565b5092850187905250506001600160a01b038416604084015290506115cf565b8381528260208201526060604082015260006139f3606083018461365e565b60405160c081016001600160401b0381118282101715613aee57613aee613c61565b60405290565b604051601f8201601f191681016001600160401b0381118282101715613b1c57613b1c613c61565b604052919050565b60006001600160401b03821115613b3d57613b3d613c61565b5060051b60200190565b60006001600160401b03821115613b6057613b60613c61565b50601f01601f191660200190565b60008219821115613b8157613b81613c1f565b500190565b600082821015613b9857613b98613c1f565b500390565b60005b83811015613bb8578181015183820152602001613ba0565b838111156108105750506000910152565b600181811c90821680613bdd57607f821691505b60208210811415613bfe57634e487b7160e01b600052602260045260246000fd5b50919050565b6000600019821415613c1857613c18613c1f565b5060010190565b634e487b7160e01b600052601160045260246000fd5b634e487b7160e01b600052603160045260246000fd5b634e487b7160e01b600052603260045260246000fd5b634e487b7160e01b600052604160045260246000fd5b6001600160a01b03811681146106f757600080fd5b80151581146106f757600080fdfea26469706673582212204b89e28860d16034d28c129910a32e9172fc174ac26fd892c5e9a1e8d3c7db0b64736f6c63430008070033",
  "immutableReferences": {},
  "source": "// SPDX-License-Identifier: GPL-3.0\r\n\r\npragma solidity 0.8.7;\r\n\r\n/**\r\n  Provider contract allows for registering pools (and optionally subscribing to them too).\r\n  Certificates can be latter delivered to those pools\r\n */\r\n import \"../Interfaces/IProvider.sol\";\r\n import \"../Interfaces/IPool.sol\";\r\n import \"../Abstract/MultiSigContract.sol\";\r\n import \"../Interfaces/IPriceConverter.sol\";\r\n import \"../Base/ReverseRegistryBaseContract.sol\";\r\n\r\n\r\n contract Provider is IProvider, ReverseRegistryBaseContract, MultiSigContract {\r\n\r\n    // DATA /////////////////////////////////////////\r\n    uint256 constant _TotalEntities = 2;\r\n\r\n    // Owners\r\n    uint256 constant _ownerIdProviders = 0;\r\n    string constant _ownerLabel = \"Owner\";\r\n\r\n    // Pools\r\n    uint256 constant _poolId = 1;\r\n    string constant _poolLabel = \"Pool\";\r\n\r\n    mapping(address => bool) private _mustSubscribe;\r\n    mapping(address => bool) private _submited;\r\n\r\n    // Certificates\r\n    uint256 constant _certId = 2;\r\n    string constant _certLabel = \"Certificate\";\r\n\r\n    string[] private _Label;\r\n    \r\n    struct _CertificatesPerHolderStruct{\r\n        mapping(address => ItemsLibrary._ItemsStruct) _CertificatesPerHolder;\r\n    }\r\n   \r\n    mapping(address => _CertificatesPerHolderStruct) private _CertificatesPerPool;\r\n    \r\n    Library._pendingCertificatesStruct[] private _pendingCertificates;\r\n\r\n    // Provider\r\n    string private _ProviderInfo;\r\n\r\n    // MODIFIERS /////////////////////////////////////////\r\n    modifier isAPool(address pool){\r\n        isAPoolFunc(pool);\r\n        _;\r\n    }\r\n\r\n    function isAPoolFunc(address pool) internal view{\r\n        require(true == isPool(pool), \"EC36-\");\r\n    }\r\n\r\n     // CONSTRUCTOR /////////////////////////////////////////\r\n    function Provider_init(address[] memory owners,  uint256 minOwners, string memory ProviderInfo, string memory ENSName, address ReverseRegistryAddress) public initializer \r\n    {\r\n        _Label = new string[](2);\r\n        _Label[0] = _ownerLabel;\r\n        _Label[1] = _poolLabel;\r\n\r\n        super.MultiSigContract_init(owners, minOwners, _TotalEntities, _Label, _ownerIdProviders); \r\n        _ProviderInfo = ProviderInfo;\r\n\r\n        if(0 < bytes(ENSName).length){\r\n            RegisterReverseAddress(ENSName, ReverseRegistryAddress);\r\n        }\r\n    }\r\n\r\n    // FUNCTIONALITY /////////////////////////////////////////\r\n    function addPool(address pool, string calldata poolInfo, bool mustSubscribe) external override{\r\n         if(false == _submited[pool]){\r\n            _mustSubscribe[pool] = mustSubscribe;\r\n            _submited[pool] = true;\r\n        }\r\n        addEntity(pool, poolInfo, _poolId);\r\n    }\r\n\r\n    function removePool(address pool) external override\r\n    {\r\n       removeEntity(pool, _poolId); \r\n    }\r\n\r\n    function validatePool(address pool) external override\r\n    {\r\n        validateEntity(pool, _poolId);\r\n    }\r\n\r\n    function rejectPool(address pool) external override\r\n    {\r\n        rejectEntity(pool, _poolId);\r\n    }\r\n\r\n    function removeConfigForPool(address pool) internal\r\n    {\r\n        delete(_submited[pool]);\r\n        delete(_mustSubscribe[pool]);\r\n    }\r\n\r\n    function retrievePool(address pool) external override view returns (ItemsLibrary._itemIdentity memory)\r\n    {\r\n        return retrieveEntity(pool, _poolId);\r\n    }\r\n\r\n    function retrievePoolConfg(address pool) external override view returns (bool, bool)\r\n    {\r\n        return (_mustSubscribe[pool], _submited[pool]);\r\n    }\r\n\r\n    function retrieveAllPools() external override view returns (bytes32[] memory)\r\n    {\r\n        return retrieveAllEntities(_poolId);\r\n    }\r\n\r\n    function retrievePendingPools(bool addedORremove) external override view returns (bytes32[] memory)\r\n    {\r\n        return(retrievePendingEntities(addedORremove, _poolId));\r\n    }\r\n\r\n    function isPool(address pool) internal view returns (bool)\r\n    {\r\n        return(isEntity(pool, _poolId));\r\n    }\r\n    // Certificates management\r\n    function extractCertIds(address pool, bytes32 CertificateHash, address holder) internal returns(uint[] memory)\r\n    {\r\n        uint otherId;\r\n        uint[] memory certIdIdArray = new uint[](4);\r\n        certIdIdArray[0] = _certId;\r\n        certIdIdArray[1] = AddressLibrary.AddressToUint(pool);\r\n        certIdIdArray[2] = AddressLibrary.AddressToUint(holder);\r\n\r\n        Library._pendingCertificatesStruct memory pCS = Library._pendingCertificatesStruct(pool, holder, CertificateHash);\r\n\r\n        if(!isCertificatePendingToAdded(pool, CertificateHash, holder)){\r\n            _pendingCertificates.push(pCS);\r\n            otherId = _pendingCertificates.length - 1;\r\n        }\r\n        else{\r\n            otherId = PositionInArray(pCS, _pendingCertificates);\r\n        }\r\n\r\n        certIdIdArray[3] = otherId;\r\n\r\n        return(certIdIdArray);\r\n    }\r\n\r\n    function addCertificate(address pool, bytes32 CertificateHash, address holder) external override\r\n        isAPool(pool)\r\n        isAnOwner(msg.sender)\r\n     {\r\n        (ItemsLibrary._manipulateItemStruct memory manipulateItemStruct,\r\n            ItemsLibrary._ItemsStruct storage itemsstruct) = GenerateStructsCert(pool, CertificateHash, holder);\r\n\r\n        ItemsLibrary.addItem(manipulateItemStruct,itemsstruct, address(this));\r\n     }\r\n\r\n    function validateCertificate(address pool, bytes32 CertificateHash, address holder) external override\r\n        isAPool(pool)\r\n        isAnOwner(msg.sender)\r\n     {\r\n        (ItemsLibrary._manipulateItemStruct memory manipulateItemStruct,\r\n            ItemsLibrary._ItemsStruct storage itemsstruct) = GenerateStructsCert(pool, CertificateHash, holder);\r\n\r\n        ItemsLibrary.validateItem(manipulateItemStruct, itemsstruct, address(this));\r\n     }\r\n\r\n    function rejectCertificate(address pool, bytes32 CertificateHash, address holder) external override\r\n        isAPool(pool)\r\n        isAnOwner(msg.sender)\r\n    {\r\n        (ItemsLibrary._manipulateItemStruct memory manipulateItemStruct,\r\n            ItemsLibrary._ItemsStruct storage itemsstruct) = GenerateStructsCert(pool, CertificateHash, holder);\r\n\r\n        ItemsLibrary.rejectItem(manipulateItemStruct, itemsstruct, address(this));\r\n    }\r\n\r\n    function GenerateStructsCert(address pool, bytes32 CertificateHash, address holder) internal\r\n        returns(ItemsLibrary._manipulateItemStruct memory, ItemsLibrary._ItemsStruct storage)\r\n    {\r\n        uint[] memory certIdIdArray = extractCertIds(pool, CertificateHash, holder);\r\n        ItemsLibrary._manipulateItemStruct memory manipulateItemStruct = ItemsLibrary._manipulateItemStruct(CertificateHash, \"\", _minOwners, _certLabel, certIdIdArray);\r\n        ItemsLibrary._ItemsStruct storage itemsstruct =  _CertificatesPerPool[pool]._CertificatesPerHolder[holder];\r\n        return (manipulateItemStruct, itemsstruct);\r\n    }\r\n \r\n    function manipulateCertificate(address pool, bytes32 CertificateHash, address holder) internal\r\n        isAPool(pool)\r\n    {\r\n        IPool poolToSend = IPool(pool);\r\n\r\n        uint AddCertificatePriceWei = poolToSend.retrieveAddCertificatePriceWei();\r\n\r\n        poolToSend.addCertificate{value:AddCertificatePriceWei}(CertificateHash, holder);\r\n\r\n        ItemsLibrary._ItemsStruct storage itemStruct = _CertificatesPerPool[pool]._CertificatesPerHolder[holder];\r\n\r\n        ItemsLibrary.RemoveResizeActivated(CertificateHash, itemStruct);\r\n        delete(itemStruct._items[CertificateHash]);\r\n    }\r\n\r\n    function retrievePendingCertificates() external override view returns (Library._pendingCertificatesStruct[] memory)\r\n    {\r\n        return(_pendingCertificates);\r\n    }\r\n\r\n    function isCertificate(address pool, bytes32 CertificateHash, address holder) external override view returns(bool)\r\n    {\r\n        return internalisCertificate(pool, CertificateHash, holder);\r\n    }\r\n\r\n    function internalisCertificate(address pool, bytes32 CertificateHash, address holder) internal view returns(bool)\r\n    {\r\n        IPool poolToCheck = IPool(pool);\r\n        address provider = poolToCheck.retrieveCertificateProvider(CertificateHash, holder);\r\n        if(provider == address(this)) return true;\r\n        return false;\r\n    }\r\n\r\n    function isCertificatePendingToAdded(address pool, bytes32 CertificateHash, address holder) internal view returns(bool)\r\n    {\r\n        return ItemsLibrary.isItemPendingToAdded(CertificateHash, _CertificatesPerPool[pool]._CertificatesPerHolder[holder]);\r\n    }\r\n\r\n    function RemoveResizeCertificatesStructArray(Library._pendingCertificatesStruct[] storage array, uint index) internal\r\n    {\r\n        array[index] = array[array.length - 1];\r\n        array.pop();\r\n    }\r\n\r\n    function PositionInArray(Library._pendingCertificatesStruct memory value, Library._pendingCertificatesStruct[] memory array) internal pure returns(uint)\r\n    {\r\n         for(uint i=0; i < array.length; i++){\r\n            if(value.pool == array[i].pool && \r\n                value.holder == array[i].holder && \r\n                value.certificate == array[i].certificate) return i;\r\n        }\r\n\r\n        return array.length + 1;\r\n    }\r\n\r\n    receive() external override payable{}\r\n\r\n    // CALLBACKS /////////////////////////////////////////\r\n    function onItemValidated(bytes32 item, uint256[] calldata ids, bool addOrRemove) public override  \r\n    {\r\n        super.onItemValidated(item, ids, addOrRemove);\r\n\r\n        if(ids[0] == _poolId){\r\n            address pool = AddressLibrary.Bytes32ToAddress(item);\r\n\r\n            if(false == addOrRemove)removeConfigForPool(pool);\r\n            else if(true == _mustSubscribe[pool]){\r\n                IPool poolToSubscribe = IPool(pool);\r\n                uint SubscriptionPrice = poolToSubscribe.retrieveSubscriptionPriceWei();\r\n                poolToSubscribe.addProvider{value:SubscriptionPrice}(address(this), _ProviderInfo);\r\n            }\r\n        }\r\n        else if(ids[0] == _certId){\r\n            manipulateCertificate(AddressLibrary.UintToAddress(ids[1]), item, AddressLibrary.UintToAddress(ids[2]));\r\n            RemoveResizeCertificatesStructArray(_pendingCertificates, ids[3]);\r\n        }\r\n    }\r\n\r\n    function onItemRejected(bytes32 item, uint256[] calldata ids, bool addOrRemove) public override  \r\n    {\r\n        super.onItemRejected(item, ids, addOrRemove);\r\n\r\n        if(ids[0] == _poolId){\r\n            address pool = AddressLibrary.Bytes32ToAddress(item);\r\n\r\n            if(true == addOrRemove)removeConfigForPool(pool);\r\n        } \r\n        else if(ids[0] == _certId){\r\n            RemoveResizeCertificatesStructArray(_pendingCertificates, ids[3]);\r\n        }\r\n    }\r\n    \r\n }",
  "sourcePath": "C:\\Users\\d-aam\\GitHub\\Certificates\\contracts\\DeployedContracts\\Provider.sol",
  "compiler": {
    "name": "solc",
    "version": "0.8.7+commit.e28d00a7.Emscripten.clang"
  },
  "schemaVersion": "3.4.3",
  "updatedAt": "2022-01-17T12:39:36.623Z",
  "devdoc": {
    "kind": "dev",
    "methods": {},
    "version": 1
  },
  "userdoc": {
    "kind": "user",
    "methods": {},
    "version": 1
  }
}