{
  "contractName": "Provider",
  "abi": [
    {
      "inputs": [
        {
          "internalType": "address[]",
          "name": "owners",
          "type": "address[]"
        },
        {
          "internalType": "uint256",
          "name": "minOwners",
          "type": "uint256"
        },
        {
          "internalType": "uint256",
          "name": "TotalEntities",
          "type": "uint256"
        },
        {
          "internalType": "string[]",
          "name": "labels",
          "type": "string[]"
        },
        {
          "internalType": "uint256",
          "name": "ownerId",
          "type": "uint256"
        }
      ],
      "name": "MultiSigContract_init",
      "outputs": [],
      "stateMutability": "nonpayable",
      "type": "function"
    },
    {
      "inputs": [
        {
          "internalType": "address",
          "name": "owner",
          "type": "address"
        },
        {
          "internalType": "string",
          "name": "ownerInfo",
          "type": "string"
        }
      ],
      "name": "addOwner",
      "outputs": [],
      "stateMutability": "nonpayable",
      "type": "function"
    },
    {
      "inputs": [
        {
          "internalType": "uint256",
          "name": "newMinOwners",
          "type": "uint256"
        }
      ],
      "name": "changeMinOwners",
      "outputs": [],
      "stateMutability": "nonpayable",
      "type": "function"
    },
    {
      "inputs": [],
      "name": "rejectMinOwners",
      "outputs": [],
      "stateMutability": "nonpayable",
      "type": "function"
    },
    {
      "inputs": [
        {
          "internalType": "address",
          "name": "owner",
          "type": "address"
        }
      ],
      "name": "rejectOwner",
      "outputs": [],
      "stateMutability": "nonpayable",
      "type": "function"
    },
    {
      "inputs": [
        {
          "internalType": "address",
          "name": "owner",
          "type": "address"
        }
      ],
      "name": "removeOwner",
      "outputs": [],
      "stateMutability": "nonpayable",
      "type": "function"
    },
    {
      "inputs": [],
      "name": "retrieveAllOwners",
      "outputs": [
        {
          "internalType": "bytes32[]",
          "name": "",
          "type": "bytes32[]"
        }
      ],
      "stateMutability": "view",
      "type": "function"
    },
    {
      "inputs": [],
      "name": "retrieveMinOwners",
      "outputs": [
        {
          "internalType": "uint256",
          "name": "",
          "type": "uint256"
        }
      ],
      "stateMutability": "view",
      "type": "function"
    },
    {
      "inputs": [
        {
          "internalType": "address",
          "name": "owner",
          "type": "address"
        }
      ],
      "name": "retrieveOwner",
      "outputs": [
        {
          "internalType": "string",
          "name": "",
          "type": "string"
        },
        {
          "internalType": "bool",
          "name": "",
          "type": "bool"
        }
      ],
      "stateMutability": "view",
      "type": "function"
    },
    {
      "inputs": [],
      "name": "retrievePendingMinOwners",
      "outputs": [
        {
          "internalType": "uint256",
          "name": "",
          "type": "uint256"
        }
      ],
      "stateMutability": "view",
      "type": "function"
    },
    {
      "inputs": [
        {
          "internalType": "bool",
          "name": "addedORremove",
          "type": "bool"
        }
      ],
      "name": "retrievePendingOwners",
      "outputs": [
        {
          "internalType": "bytes32[]",
          "name": "",
          "type": "bytes32[]"
        },
        {
          "internalType": "string[]",
          "name": "",
          "type": "string[]"
        }
      ],
      "stateMutability": "view",
      "type": "function"
    },
    {
      "inputs": [],
      "name": "validateMinOwners",
      "outputs": [],
      "stateMutability": "nonpayable",
      "type": "function"
    },
    {
      "inputs": [
        {
          "internalType": "address",
          "name": "owner",
          "type": "address"
        }
      ],
      "name": "validateOwner",
      "outputs": [],
      "stateMutability": "nonpayable",
      "type": "function"
    },
    {
      "stateMutability": "payable",
      "type": "receive"
    },
    {
      "inputs": [
        {
          "internalType": "address[]",
          "name": "owners",
          "type": "address[]"
        },
        {
          "internalType": "uint256",
          "name": "minOwners",
          "type": "uint256"
        },
        {
          "internalType": "string",
          "name": "ProviderInfo",
          "type": "string"
        }
      ],
      "name": "Provider_init",
      "outputs": [],
      "stateMutability": "nonpayable",
      "type": "function"
    },
    {
      "inputs": [
        {
          "internalType": "address",
          "name": "pool",
          "type": "address"
        },
        {
          "internalType": "string",
          "name": "poolInfo",
          "type": "string"
        },
        {
          "internalType": "uint256",
          "name": "AddCertificatePrice",
          "type": "uint256"
        },
        {
          "internalType": "uint256",
          "name": "SubscriptionPrice",
          "type": "uint256"
        }
      ],
      "name": "addPool",
      "outputs": [],
      "stateMutability": "nonpayable",
      "type": "function"
    },
    {
      "inputs": [
        {
          "internalType": "address",
          "name": "pool",
          "type": "address"
        }
      ],
      "name": "removePool",
      "outputs": [],
      "stateMutability": "nonpayable",
      "type": "function"
    },
    {
      "inputs": [
        {
          "internalType": "address",
          "name": "pool",
          "type": "address"
        }
      ],
      "name": "validatePool",
      "outputs": [],
      "stateMutability": "nonpayable",
      "type": "function"
    },
    {
      "inputs": [
        {
          "internalType": "address",
          "name": "pool",
          "type": "address"
        }
      ],
      "name": "rejectPool",
      "outputs": [],
      "stateMutability": "nonpayable",
      "type": "function"
    },
    {
      "inputs": [
        {
          "internalType": "address",
          "name": "pool",
          "type": "address"
        }
      ],
      "name": "retrievePool",
      "outputs": [
        {
          "internalType": "string",
          "name": "",
          "type": "string"
        },
        {
          "internalType": "bool",
          "name": "",
          "type": "bool"
        },
        {
          "internalType": "uint256",
          "name": "",
          "type": "uint256"
        },
        {
          "internalType": "uint256",
          "name": "",
          "type": "uint256"
        }
      ],
      "stateMutability": "view",
      "type": "function"
    },
    {
      "inputs": [],
      "name": "retrieveAllPools",
      "outputs": [
        {
          "internalType": "bytes32[]",
          "name": "",
          "type": "bytes32[]"
        }
      ],
      "stateMutability": "view",
      "type": "function"
    },
    {
      "inputs": [
        {
          "internalType": "bool",
          "name": "addedORremove",
          "type": "bool"
        }
      ],
      "name": "retrievePendingPools",
      "outputs": [
        {
          "internalType": "bytes32[]",
          "name": "",
          "type": "bytes32[]"
        },
        {
          "internalType": "string[]",
          "name": "",
          "type": "string[]"
        }
      ],
      "stateMutability": "view",
      "type": "function"
    },
    {
      "inputs": [
        {
          "internalType": "address",
          "name": "pool",
          "type": "address"
        },
        {
          "internalType": "bytes32",
          "name": "CertificateHash",
          "type": "bytes32"
        },
        {
          "internalType": "address",
          "name": "holder",
          "type": "address"
        }
      ],
      "name": "addCertificate",
      "outputs": [],
      "stateMutability": "nonpayable",
      "type": "function"
    },
    {
      "inputs": [
        {
          "internalType": "address",
          "name": "pool",
          "type": "address"
        },
        {
          "internalType": "bytes32",
          "name": "CertificateHash",
          "type": "bytes32"
        },
        {
          "internalType": "address",
          "name": "holder",
          "type": "address"
        }
      ],
      "name": "validateCertificate",
      "outputs": [],
      "stateMutability": "nonpayable",
      "type": "function"
    },
    {
      "inputs": [
        {
          "internalType": "address",
          "name": "pool",
          "type": "address"
        },
        {
          "internalType": "bytes32",
          "name": "CertificateHash",
          "type": "bytes32"
        },
        {
          "internalType": "address",
          "name": "holder",
          "type": "address"
        }
      ],
      "name": "rejectCertificate",
      "outputs": [],
      "stateMutability": "nonpayable",
      "type": "function"
    },
    {
      "inputs": [],
      "name": "retrievePendingCertificates",
      "outputs": [
        {
          "components": [
            {
              "internalType": "address",
              "name": "pool",
              "type": "address"
            },
            {
              "internalType": "address",
              "name": "holder",
              "type": "address"
            },
            {
              "internalType": "bytes32",
              "name": "certificate",
              "type": "bytes32"
            }
          ],
          "internalType": "struct Library._pendingCertificatesStruct[]",
          "name": "",
          "type": "tuple[]"
        }
      ],
      "stateMutability": "view",
      "type": "function"
    },
    {
      "inputs": [
        {
          "internalType": "address",
          "name": "pool",
          "type": "address"
        },
        {
          "internalType": "bytes32",
          "name": "CertificateHash",
          "type": "bytes32"
        },
        {
          "internalType": "address",
          "name": "holder",
          "type": "address"
        }
      ],
      "name": "isCertificate",
      "outputs": [
        {
          "internalType": "bool",
          "name": "",
          "type": "bool"
        }
      ],
      "stateMutability": "view",
      "type": "function"
    },
    {
      "inputs": [
        {
          "internalType": "bytes32",
          "name": "item",
          "type": "bytes32"
        },
        {
          "internalType": "uint256[]",
          "name": "ids",
          "type": "uint256[]"
        },
        {
          "internalType": "bool",
          "name": "addOrRemove",
          "type": "bool"
        }
      ],
      "name": "onItemValidated",
      "outputs": [],
      "stateMutability": "nonpayable",
      "type": "function"
    },
    {
      "inputs": [
        {
          "internalType": "bytes32",
          "name": "item",
          "type": "bytes32"
        },
        {
          "internalType": "uint256[]",
          "name": "ids",
          "type": "uint256[]"
        },
        {
          "internalType": "bool",
          "name": "addOrRemove",
          "type": "bool"
        }
      ],
      "name": "onItemRejected",
      "outputs": [],
      "stateMutability": "nonpayable",
      "type": "function"
    }
  ],
  "bytecode": "0x608060405234801561001057600080fd5b50614db3806100206000396000f3fe60806040526004361061014b5760003560e01c8063017cb3db1461015757806314a2ed2f14610179578063173825d9146101995780632d99aaf2146101b95780632edbe7fc146101e457806330ade922146102035780633542758f146102185780633b7d0946146102385780633fd071811461025857806365b973e5146102785780636b2996041461028d57806376f8f90f146102bb57806377bc5a1f146102db5780637c8c2add146103095780638fc2d8ea14610329578063a44bff2b14610359578063a706752c14610379578063a93d5ed6146103a9578063b683e37b146103be578063bd9f3705146103de578063c3079ae7146103fe578063c66433ea14610413578063cd019e0714610433578063ce33d58a14610455578063cf2041d914610475578063d920928914610495578063f8049382146104b5578063fb1f6917146104d557600080fd5b3661015257005b600080fd5b34801561016357600080fd5b506101776101723660046141eb565b6104f5565b005b34801561018557600080fd5b506101776101943660046141eb565b61077b565b3480156101a557600080fd5b506101776101b43660046141b1565b610950565b3480156101c557600080fd5b506101ce61099c565b6040516101db9190614856565b60405180910390f35b3480156101f057600080fd5b506005545b6040519081526020016101db565b34801561020f57600080fd5b506101776109ad565b34801561022457600080fd5b5061017761023336600461422d565b610aaf565b34801561024457600080fd5b506101776102533660046141b1565b610abd565b34801561026457600080fd5b506101776102733660046145a7565b610ac8565b34801561028457600080fd5b506001546101f5565b34801561029957600080fd5b506102ad6102a8366004614554565b610be4565b6040516101db929190614869565b3480156102c757600080fd5b506101776102d63660046141b1565b610bfc565b3480156102e757600080fd5b506102fb6102f63660046141b1565b610c57565b6040516101db929190614965565b34801561031557600080fd5b506101776103243660046145a7565b610c67565b34801561033557600080fd5b506103496103443660046141b1565b610f30565b6040516101db9493929190614989565b34801561036557600080fd5b506101776103743660046142e7565b610f7a565b34801561038557600080fd5b506103996103943660046141eb565b6111ba565b60405190151581526020016101db565b3480156103b557600080fd5b506101ce6111d1565b3480156103ca57600080fd5b506101776103d9366004614281565b6111de565b3480156103ea57600080fd5b506101776103f93660046141eb565b61124d565b34801561040a57600080fd5b50610177611489565b34801561041f57600080fd5b5061017761042e366004614689565b611588565b34801561043f57600080fd5b50610448611673565b6040516101db91906148db565b34801561046157600080fd5b506101776104703660046141b1565b6116fa565b34801561048157600080fd5b50610177610490366004614353565b611706565b3480156104a157600080fd5b506101776104b03660046141b1565b6119b1565b3480156104c157600080fd5b506102ad6104d0366004614554565b6119bc565b3480156104e157600080fd5b506101776104f03660046141b1565b6119ca565b826104ff816119d5565b151560011461050d57600080fd5b610519336000546119e8565b15156001146105435760405162461bcd60e51b815260040161053a90614add565b60405180910390fd5b6001838584610553828483611bd9565b15156001146105745760405162461bcd60e51b815260040161053a906149f5565b6001600160a01b038089166000908152600d60209081526040808320938a1683529290528190209051633db691ef60e11b815288918a91899173__ItemsLibrary__________________________91637b6d23de916105d9913391889160040161477c565b60206040518083038186803b1580156105f157600080fd5b505af4158015610605573d6000803e3d6000fd5b505050506040513d601f19601f820116820180604052508101906106299190614571565b156106465760405162461bcd60e51b815260040161053a90614afb565b6001600160a01b038b166000908152600d602052604081209061066a8d8d8d611c87565b905060006040518060c001604052808e815260200160405180602001604052806000815250815260200160015481526020016040518060400160405280600b81526020016a436572746966696361746560a81b815250815260200183815260200160001515815250905060008360000160008e6001600160a01b03166001600160a01b03168152602001908152602001600020905073__ItemsLibrary__________________________635cb09bcf8383306040518463ffffffff1660e01b815260040161073a93929190614b19565b60006040518083038186803b15801561075257600080fd5b505af4158015610766573d6000803e3d6000fd5b50505050505050505050505050505050505050565b82610785816119d5565b151560011461079357600080fd5b61079f336000546119e8565b15156001146107c05760405162461bcd60e51b815260040161053a90614add565b60008385846107d0828483611fda565b156107ed5760405162461bcd60e51b815260040161053a90614a52565b60008789886107fd828483611bd9565b1561081a5760405162461bcd60e51b815260040161053a906149d6565b6001600160a01b038c166000908152600d602052604081209061083e8e8e8e611c87565b905060006040518060c001604052808f815260200160405180602001604052806000815250815260200160015481526020016040518060400160405280600b81526020016a436572746966696361746560a81b815250815260200183815260200160001515815250905060008360000160008f6001600160a01b03166001600160a01b03168152602001908152602001600020905073__ItemsLibrary__________________________630b985aaa8383306040518463ffffffff1660e01b815260040161090e93929190614b19565b60006040518083038186803b15801561092657600080fd5b505af415801561093a573d6000803e3d6000fd5b5050505050505050505050505050505050505050565b6001546001610960600054612089565b5161096b9190614c69565b8082111561098b5760405162461bcd60e51b815260040161053a90614a14565b610997836000546121f0565b505050565b60606109a86001612089565b905090565b6109b9336000546119e8565b15156001146109da5760405162461bcd60e51b815260040161053a90614add565b60016005546109fb5760405162461bcd60e51b815260040161053a90614a33565b60405163f7cf62d760e01b815273__AddressLibrary________________________9063f7cf62d790610a3590339060089060040161471d565b60206040518083038186803b158015610a4d57600080fd5b505af4158015610a61573d6000803e3d6000fd5b505050506040513d601f19601f82011682018060405250810190610a859190614571565b15610aa25760405162461bcd60e51b815260040161053a90614afb565b610aac600161259a565b50565b610997838383600054612621565b610aac8160016121f0565b610ad484848484612998565b600183836000818110610ae957610ae9614d2e565b905060200201351415610b9857604051631e99d35d60e31b81526004810185905260009073__AddressLibrary________________________9063f4ce9ae89060240160206040518083038186803b158015610b4457600080fd5b505af4158015610b58573d6000803e3d6000fd5b505050506040513d601f19601f82011682018060405250810190610b7c91906141ce565b905060018215151415610b9257610b9281612a5b565b50610bde565b600283836000818110610bad57610bad614d2e565b905060200201351415610bde57610bde600e84846003818110610bd257610bd2614d2e565b90506020020135612a91565b50505050565b606080610bf383600054612b68565b91509150915091565b610c0881600054612ce7565b151560011415610c4b576001610c1f600054612089565b51610c2a9190614c69565b6001541115610c4b5760405162461bcd60e51b815260040161053a90614a14565b610aac81600054612e53565b60606000610bf3836000546132e4565b610c7384848484612998565b600183836000818110610c8857610c88614d2e565b905060200201351415610da957604051631e99d35d60e31b81526004810185905260009073__AddressLibrary________________________9063f4ce9ae89060240160206040518083038186803b158015610ce357600080fd5b505af4158015610cf7573d6000803e3d6000fd5b505050506040513d601f19601f82011682018060405250810190610d1b91906141ce565b905081610d3057610d2b81612a5b565b610b92565b6001600160a01b0381166000818152600a60205260409081902054905162fc000560e81b815283929163fc00050091610d70903090600f9060040161479d565b6000604051808303818588803b158015610d8957600080fd5b505af1158015610d9d573d6000803e3d6000fd5b50505050505050610bde565b600283836000818110610dbe57610dbe614d2e565b905060200201351415610bde57610f1873__AddressLibrary________________________63b1e2771485856001818110610dfb57610dfb614d2e565b905060200201356040518263ffffffff1660e01b8152600401610e2091815260200190565b60206040518083038186803b158015610e3857600080fd5b505af4158015610e4c573d6000803e3d6000fd5b505050506040513d601f19601f82011682018060405250810190610e7091906141ce565b8573__AddressLibrary________________________63b1e2771487876002818110610e9e57610e9e614d2e565b905060200201356040518263ffffffff1660e01b8152600401610ec391815260200190565b60206040518083038186803b158015610edb57600080fd5b505af4158015610eef573d6000803e3d6000fd5b505050506040513d601f19601f82011682018060405250810190610f1391906141ce565b6134e1565b610bde600e84846003818110610bd257610bd2614d2e565b6060600080600060606000610f4487613658565b6001600160a01b0398909816600090815260096020908152604080832054600a9092529091205491999097509095509350505050565b600454610100900460ff1680610f93575060045460ff16155b610faf5760405162461bcd60e51b815260040161053a90614a8f565b600454610100900460ff16158015610fd1576004805461ffff19166101011790555b6040805160028082526060820190925290816020015b6060815260200190600190039081610fe7575050805161100f91600c91602090910190613e91565b506040518060400160405280600581526020016427bbb732b960d91b815250600c60008154811061104257611042614d2e565b90600052602060002001908051906020019061105f929190613eee565b5060405180604001604052806004815260200163141bdbdb60e21b815250600c60018154811061109157611091614d2e565b9060005260206000200190805190602001906110ae929190613eee565b5061118f84846002600c805480602002602001604051908101604052809291908181526020016000905b828210156111845783829060005260206000200180546110f790614cac565b80601f016020809104026020016040519081016040528092919081815260200182805461112390614cac565b80156111705780601f1061114557610100808354040283529160200191611170565b820191906000526020600020905b81548152906001019060200180831161115357829003601f168201915b5050505050815260200190600101906110d8565b505050506000611706565b81516111a290600f906020850190613eee565b508015610bde576004805461ff001916905550505050565b60006111c7848484611fda565b90505b9392505050565b60606109a8600054612089565b6111eb8585856001612621565b6001600160a01b0385166000908152600b602052604090205460ff16611246576001600160a01b0385166000908152600960209081526040808320859055600a8252808320849055600b9091529020805460ff191660011790555b5050505050565b82611257816119d5565b151560011461126557600080fd5b611271336000546119e8565b15156001146112925760405162461bcd60e51b815260040161053a90614add565b60018385846112a2828483611bd9565b15156001146112c35760405162461bcd60e51b815260040161053a906149f5565b6001600160a01b038089166000908152600d60209081526040808320938a1683529290528190209051633db691ef60e11b815288918a91899173__ItemsLibrary__________________________91637b6d23de91611328913391889160040161477c565b60206040518083038186803b15801561134057600080fd5b505af4158015611354573d6000803e3d6000fd5b505050506040513d601f19601f820116820180604052508101906113789190614571565b156113955760405162461bcd60e51b815260040161053a90614afb565b6001600160a01b038b166000908152600d60205260408120906113b98d8d8d611c87565b905060006040518060c001604052808e815260200160405180602001604052806000815250815260200160015481526020016040518060400160405280600b81526020016a436572746966696361746560a81b815250815260200183815260200160001515815250905060008360000160008e6001600160a01b03166001600160a01b03168152602001908152602001600020905073__ItemsLibrary__________________________637493a70b8383306040518463ffffffff1660e01b815260040161073a93929190614b19565b611495336000546119e8565b15156001146114b65760405162461bcd60e51b815260040161053a90614add565b60016005546114d75760405162461bcd60e51b815260040161053a90614a33565b60405163f7cf62d760e01b815273__AddressLibrary________________________9063f7cf62d79061151190339060089060040161471d565b60206040518083038186803b15801561152957600080fd5b505af415801561153d573d6000803e3d6000fd5b505050506040513d601f19601f820116820180604052508101906115619190614571565b1561157e5760405162461bcd60e51b815260040161053a90614afb565b610aac600061259a565b611594336000546119e8565b15156001146115b55760405162461bcd60e51b815260040161053a90614add565b6000600554156115ef5760405162461bcd60e51b8152602060048201526005602482015264454333302d60d81b604482015260640161053a565b8160026000548154811061160557611605614d2e565b9060005260206000209060040201600101805490508082111561163a5760405162461bcd60e51b815260040161053a90614a14565b60008481811161165c5760405162461bcd60e51b815260040161053a90614a70565b600586905561166b600161259a565b505050505050565b6060600e805480602002602001604051908101604052809291908181526020016000905b828210156116f1576000848152602090819020604080516060810182526003860290920180546001600160a01b03908116845260018083015490911684860152600290910154918301919091529083529092019101611697565b50505050905090565b610aac81600054613667565b600454610100900460ff168061171f575060045460ff16155b61173b5760405162461bcd60e51b815260040161053a90614a8f565b600454610100900460ff1615801561175d576004805461ffff19166101011790555b848651808211156117805760405162461bcd60e51b815260040161053a90614a14565b6000878181116117a25760405162461bcd60e51b815260040161053a90614a70565b865188146117da5760405162461bcd60e51b8152602060048201526005602482015264454331382d60d81b604482015260640161053a565b60008681555b8881101561185057600280546001018155600052875160039089908390811061180b5761180b614d2e565b6020908102919091018101518254600181018455600093845292829020815161183d9491909101929190910190613eee565b508061184881614ce7565b9150506117e0565b50600189905560005b8a5181101561199357600073__AddressLibrary________________________63bc215e858d848151811061189057611890614d2e565b60200260200101516040518263ffffffff1660e01b81526004016118b49190614709565b60206040518083038186803b1580156118cc57600080fd5b505af41580156118e0573d6000803e3d6000fd5b505050506040513d601f19601f82011682018060405250810190611904919061458e565b9050600160026000548154811061191d5761191d614d2e565b60009182526020808320858452600492909202909101905260408120805460ff1916921515929092179091555460028054909190811061195f5761195f614d2e565b600091825260208083206001600490930201820180549283018155835290912001558061198b81614ce7565b915050611859565b5050505050801561166b576004805461ff0019169055505050505050565b610aac816001612e53565b606080610bf3836001612b68565b610aac816001613667565b60006119e28260016119e8565b92915050565b60025460405163123bd07560e11b8152600091839173__Library_______________________________90632477a0ea90611a299085908590600401614957565b60206040518083038186803b158015611a4157600080fd5b505af4158015611a55573d6000803e3d6000fd5b505050506040513d601f19601f82011682018060405250810190611a799190614571565b1515600114611a9a5760405162461bcd60e51b815260040161053a906149b8565b60405163bc215e8560e01b815260009073__AddressLibrary________________________9063bc215e8590611ad4908990600401614709565b60206040518083038186803b158015611aec57600080fd5b505af4158015611b00573d6000803e3d6000fd5b505050506040513d601f19601f82011682018060405250810190611b24919061458e565b905073__ItemsLibrary__________________________63dbdfbeec8260028881548110611b5457611b54614d2e565b90600052602060002090600402016040518363ffffffff1660e01b8152600401611b7f929190614957565b60206040518083038186803b158015611b9757600080fd5b505af4158015611bab573d6000803e3d6000fd5b505050506040513d601f19601f82011682018060405250810190611bcf9190614571565b9695505050505050565b6001600160a01b038084166000908152600d602090815260408083209385168352929052818120915162136bb360e11b8152909173__ItemsLibrary__________________________916226d76691611c3791879190600401614957565b60206040518083038186803b158015611c4f57600080fd5b505af4158015611c63573d6000803e3d6000fd5b505050506040513d601f19601f820116820180604052508101906111c79190614571565b60408051600480825260a08201909252606091600091829160208201608080368337019050509050600281600081518110611cc457611cc4614d2e565b602090810291909101015260405163cf0668ed60e01b815273__AddressLibrary________________________9063cf0668ed90611d06908990600401614709565b60206040518083038186803b158015611d1e57600080fd5b505af4158015611d32573d6000803e3d6000fd5b505050506040513d601f19601f82011682018060405250810190611d56919061458e565b81600181518110611d6957611d69614d2e565b602090810291909101015260405163cf0668ed60e01b815273__AddressLibrary________________________9063cf0668ed90611dab908790600401614709565b60206040518083038186803b158015611dc357600080fd5b505af4158015611dd7573d6000803e3d6000fd5b505050506040513d601f19601f82011682018060405250810190611dfb919061458e565b81600281518110611e0e57611e0e614d2e565b60200260200101818152505060006040518060600160405280886001600160a01b03168152602001866001600160a01b03168152602001878152509050611e56878787611bd9565b611f2557600e8054600181810183556000839052835160039092027fbb7b4a454dc3493923482f07822329ed19e8244eff582cc204f8554c3620c3fd810180546001600160a01b039485166001600160a01b03199182161790915560208601517fbb7b4a454dc3493923482f07822329ed19e8244eff582cc204f8554c3620c3fe830180549190951691161790925560408401517fbb7b4a454dc3493923482f07822329ed19e8244eff582cc204f8554c3620c3ff909201919091559054611f1e9190614c69565b9250611fb1565b611fae81600e805480602002602001604051908101604052809291908181526020016000905b82821015611fa5576000848152602090819020604080516060810182526003860290920180546001600160a01b03908116845260018083015490911684860152600290910154918301919091529083529092019101611f4b565b50505050613af8565b92505b8282600381518110611fc557611fc5614d2e565b60209081029190910101525095945050505050565b60405163685256ff60e11b8152600090849082906001600160a01b0383169063d0a4adfe9061200f9088908890600401614940565b60206040518083038186803b15801561202757600080fd5b505afa15801561203b573d6000803e3d6000fd5b505050506040513d601f19601f8201168201806040525081019061205f91906141ce565b90506001600160a01b03811630141561207d576001925050506111ca565b50600095945050505050565b60025460405163123bd07560e11b8152606091839173__Library_______________________________90632477a0ea906120ca9085908590600401614957565b60206040518083038186803b1580156120e257600080fd5b505af41580156120f6573d6000803e3d6000fd5b505050506040513d601f19601f8201168201806040525081019061211a9190614571565b151560011461213b5760405162461bcd60e51b815260040161053a906149b8565b73__ItemsLibrary__________________________6327724f4b6002868154811061216857612168614d2e565b90600052602060002090600402016040518263ffffffff1660e01b815260040161219491815260200190565b60006040518083038186803b1580156121ac57600080fd5b505af41580156121c0573d6000803e3d6000fd5b505050506040513d6000823e601f3d908101601f191682016040526121e89190810190614446565b949350505050565b60025460405163123bd07560e11b815282919073__Library_______________________________90632477a0ea9061222f9085908590600401614957565b60206040518083038186803b15801561224757600080fd5b505af415801561225b573d6000803e3d6000fd5b505050506040513d601f19601f8201168201806040525081019061227f9190614571565b15156001146122a05760405162461bcd60e51b815260040161053a906149b8565b6122ac336000546119e8565b15156001146122cd5760405162461bcd60e51b815260040161053a90614add565b600184846122db82826119e8565b15156001146123155760405162461bcd60e51b815260040161053a906020808252600490820152634543372d60e01b604082015260600190565b600087876123238282612ce7565b156123405760405162461bcd60e51b815260040161053a906149d6565b60405163bc215e8560e01b815260009073__AddressLibrary________________________9063bc215e859061237a908e90600401614709565b60206040518083038186803b15801561239257600080fd5b505af41580156123a6573d6000803e3d6000fd5b505050506040513d601f19601f820116820180604052508101906123ca919061458e565b60408051600180825281830190925291925060009190602080830190803683370190505090508a8160008151811061240457612404614d2e565b60200260200101818152505060006040518060c00160405280848152602001604051806020016040528060008152508152602001600154815260200160038e8154811061245357612453614d2e565b90600052602060002001805461246890614cac565b80601f016020809104026020016040519081016040528092919081815260200182805461249490614cac565b80156124e15780601f106124b6576101008083540402835291602001916124e1565b820191906000526020600020905b8154815290600101906020018083116124c457829003601f168201915b50505050508152602001838152602001600115158152509050600060028d8154811061250f5761250f614d2e565b9060005260206000209060040201905073__ItemsLibrary__________________________63e23fcdef8383306040518463ffffffff1660e01b815260040161255a93929190614b19565b60006040518083038186803b15801561257257600080fd5b505af4158015612586573d6000803e3d6000fd5b505050505050505050505050505050505050565b80156125be576001600660008282546125b39190614c51565b909155506125d79050565b6001600760008282546125d19190614c51565b90915550505b600880546001810182556000919091527ff3f7a9fe364faab93b216da50a3214154f22a0a2b415b23a84c8169e8b636ee30180546001600160a01b03191633179055610aac613bd1565b60025460405163123bd07560e11b815282919073__Library_______________________________90632477a0ea906126609085908590600401614957565b60206040518083038186803b15801561267857600080fd5b505af415801561268c573d6000803e3d6000fd5b505050506040513d601f19601f820116820180604052508101906126b09190614571565b15156001146126d15760405162461bcd60e51b815260040161053a906149b8565b6126dd336000546119e8565b15156001146126fe5760405162461bcd60e51b815260040161053a90614add565b6000868461270c82826119e8565b156127295760405162461bcd60e51b815260040161053a90614a52565b600089876127378282613d09565b156127545760405162461bcd60e51b815260040161053a906149d6565b600073__AddressLibrary________________________63bc215e858e6040518263ffffffff1660e01b815260040161278d9190614709565b60206040518083038186803b1580156127a557600080fd5b505af41580156127b9573d6000803e3d6000fd5b505050506040513d601f19601f820116820180604052508101906127dd919061458e565b60408051600180825281830190925291925060009190602080830190803683370190505090508a8160008151811061281757612817614d2e565b60200260200101818152505060006040518060c001604052808481526020018f8f8080601f0160208091040260200160405190810160405280939291908181526020018383808284376000920191909152505050908252506001546020820152600380546040909201918f90811061289157612891614d2e565b9060005260206000200180546128a690614cac565b80601f01602080910402602001604051908101604052809291908181526020018280546128d290614cac565b801561291f5780601f106128f45761010080835404028352916020019161291f565b820191906000526020600020905b81548152906001019060200180831161290257829003601f168201915b50505050508152602001838152602001600115158152509050600060028d8154811061294d5761294d614d2e565b9060005260206000209060040201905073__ItemsLibrary__________________________630b985aaa8383306040518463ffffffff1660e01b815260040161090e93929190614b19565b604051630d1d719d60e41b8152309073__Library_______________________________9063d1d719d0906129d1908490600401614709565b60206040518083038186803b1580156129e957600080fd5b505af41580156129fd573d6000803e3d6000fd5b505050506040513d601f19601f82011682018060405250810190612a219190614571565b15156001146112465760405162461bcd60e51b815260040161053a906020808252600490820152634543382d60e01b604082015260600190565b6001600160a01b03166000908152600b60209081526040808320805460ff1916905560098252808320839055600a909152812055565b81548290612aa190600190614c69565b81548110612ab157612ab1614d2e565b9060005260206000209060030201828281548110612ad157612ad1614d2e565b60009182526020909120825460039092020180546001600160a01b039283166001600160a01b03199182161782556001808501549083018054919094169116179091556002918201549101558154829080612b2e57612b2e614d18565b60008281526020812060036000199093019283020180546001600160a01b0319908116825560018201805490911690556002015590555050565b60025460405163123bd07560e11b8152606091829184919073__Library_______________________________90632477a0ea90612bac9085908590600401614957565b60206040518083038186803b158015612bc457600080fd5b505af4158015612bd8573d6000803e3d6000fd5b505050506040513d601f19601f82011682018060405250810190612bfc9190614571565b1515600114612c1d5760405162461bcd60e51b815260040161053a906149b8565b60608073__ItemsLibrary__________________________63e035e0068960028a81548110612c4e57612c4e614d2e565b90600052602060002090600402016040518363ffffffff1660e01b8152600401612c849291909115158252602082015260400190565b60006040518083038186803b158015612c9c57600080fd5b505af4158015612cb0573d6000803e3d6000fd5b505050506040513d6000823e601f3d908101601f19168201604052612cd8919081019061447a565b90999098509650505050505050565b60025460405163123bd07560e11b8152600091839173__Library_______________________________90632477a0ea90612d289085908590600401614957565b60206040518083038186803b158015612d4057600080fd5b505af4158015612d54573d6000803e3d6000fd5b505050506040513d601f19601f82011682018060405250810190612d789190614571565b1515600114612d995760405162461bcd60e51b815260040161053a906149b8565b60405163bc215e8560e01b815260009073__AddressLibrary________________________9063bc215e8590612dd3908990600401614709565b60206040518083038186803b158015612deb57600080fd5b505af4158015612dff573d6000803e3d6000fd5b505050506040513d601f19601f82011682018060405250810190612e23919061458e565b905073__ItemsLibrary__________________________632854ed2e8260028881548110611b5457611b54614d2e565b60025460405163123bd07560e11b815282919073__Library_______________________________90632477a0ea90612e929085908590600401614957565b60206040518083038186803b158015612eaa57600080fd5b505af4158015612ebe573d6000803e3d6000fd5b505050506040513d601f19601f82011682018060405250810190612ee29190614571565b1515600114612f035760405162461bcd60e51b815260040161053a906149b8565b612f0f336000546119e8565b1515600114612f305760405162461bcd60e51b815260040161053a90614add565b60018484612f3e8282613d09565b151560011480612f595750612f538282612ce7565b15156001145b612f755760405162461bcd60e51b815260040161053a906149f5565b8686600073__AddressLibrary________________________63bc215e85846040518263ffffffff1660e01b8152600401612fb09190614709565b60206040518083038186803b158015612fc857600080fd5b505af4158015612fdc573d6000803e3d6000fd5b505050506040513d601f19601f82011682018060405250810190613000919061458e565b905073__ItemsLibrary__________________________637b6d23de33836002868154811061303157613031614d2e565b90600052602060002090600402016040518463ffffffff1660e01b815260040161305d9392919061477c565b60206040518083038186803b15801561307557600080fd5b505af4158015613089573d6000803e3d6000fd5b505050506040513d601f19601f820116820180604052508101906130ad9190614571565b156130ca5760405162461bcd60e51b815260040161053a90614afb565b60405163bc215e8560e01b815260009073__AddressLibrary________________________9063bc215e8590613104908e90600401614709565b60206040518083038186803b15801561311c57600080fd5b505af4158015613130573d6000803e3d6000fd5b505050506040513d601f19601f82011682018060405250810190613154919061458e565b60408051600180825281830190925291925060009190602080830190803683370190505090508a8160008151811061318e5761318e614d2e565b60200260200101818152505060006040518060c00160405280848152602001604051806020016040528060008152508152602001600154815260200160038e815481106131dd576131dd614d2e565b9060005260206000200180546131f290614cac565b80601f016020809104026020016040519081016040528092919081815260200182805461321e90614cac565b801561326b5780601f106132405761010080835404028352916020019161326b565b820191906000526020600020905b81548152906001019060200180831161324e57829003601f168201915b50505050508152602001838152602001600115158152509050600060028d8154811061329957613299614d2e565b9060005260206000209060040201905073__ItemsLibrary__________________________637493a70b8383306040518463ffffffff1660e01b815260040161255a93929190614b19565b60025460405163123bd07560e11b815260609160009184919073__Library_______________________________90632477a0ea906133299085908590600401614957565b60206040518083038186803b15801561334157600080fd5b505af4158015613355573d6000803e3d6000fd5b505050506040513d601f19601f820116820180604052508101906133799190614571565b151560011461339a5760405162461bcd60e51b815260040161053a906149b8565b60405163bc215e8560e01b815260009073__AddressLibrary________________________9063bc215e85906133d4908a90600401614709565b60206040518083038186803b1580156133ec57600080fd5b505af4158015613400573d6000803e3d6000fd5b505050506040513d601f19601f82011682018060405250810190613424919061458e565b905073__ItemsLibrary__________________________631aeccc6a826002898154811061345457613454614d2e565b90600052602060002090600402016040518363ffffffff1660e01b815260040161347f929190614957565b60006040518083038186803b15801561349757600080fd5b505af41580156134ab573d6000803e3d6000fd5b505050506040513d6000823e601f3d908101601f191682016040526134d39190810190614638565b945094505050509250929050565b826134eb816119d5565b15156001146134f957600080fd5b6001600160a01b0384166000818152600960205260409081902054905163035700ff60e31b8152869291631ab807f8916135399088908890600401614940565b6000604051808303818588803b15801561355257600080fd5b505af1158015613566573d6000803e3d6000fd5b5050506001600160a01b038088166000908152600d602090815260408083209389168352929052819020905163207c442760e01b815290925073__ItemsLibrary__________________________915063207c4427906135cc9088908590600401614957565b60006040518083038186803b1580156135e457600080fd5b505af41580156135f8573d6000803e3d6000fd5b5050506000868152602083905260408120805460ff1916815591506136206001830182613f6e565b600282016000905560038201600090556004820160006136409190613fa8565b61364e600583016000613fa8565b5050505050505050565b60606000610bf38360016132e4565b60025460405163123bd07560e11b815282919073__Library_______________________________90632477a0ea906136a69085908590600401614957565b60206040518083038186803b1580156136be57600080fd5b505af41580156136d2573d6000803e3d6000fd5b505050506040513d601f19601f820116820180604052508101906136f69190614571565b15156001146137175760405162461bcd60e51b815260040161053a906149b8565b613723336000546119e8565b15156001146137445760405162461bcd60e51b815260040161053a90614add565b600184846137528282613d09565b15156001148061376d57506137678282612ce7565b15156001145b6137895760405162461bcd60e51b815260040161053a906149f5565b8686600073__AddressLibrary________________________63bc215e85846040518263ffffffff1660e01b81526004016137c49190614709565b60206040518083038186803b1580156137dc57600080fd5b505af41580156137f0573d6000803e3d6000fd5b505050506040513d601f19601f82011682018060405250810190613814919061458e565b905073__ItemsLibrary__________________________637b6d23de33836002868154811061384557613845614d2e565b90600052602060002090600402016040518463ffffffff1660e01b81526004016138719392919061477c565b60206040518083038186803b15801561388957600080fd5b505af415801561389d573d6000803e3d6000fd5b505050506040513d601f19601f820116820180604052508101906138c19190614571565b156138de5760405162461bcd60e51b815260040161053a90614afb565b60405163bc215e8560e01b815260009073__AddressLibrary________________________9063bc215e8590613918908e90600401614709565b60206040518083038186803b15801561393057600080fd5b505af4158015613944573d6000803e3d6000fd5b505050506040513d601f19601f82011682018060405250810190613968919061458e565b60408051600180825281830190925291925060009190602080830190803683370190505090508a816000815181106139a2576139a2614d2e565b60200260200101818152505060006040518060c00160405280848152602001604051806020016040528060008152508152602001600154815260200160038e815481106139f1576139f1614d2e565b906000526020600020018054613a0690614cac565b80601f0160208091040260200160405190810160405280929190818152602001828054613a3290614cac565b8015613a7f5780601f10613a5457610100808354040283529160200191613a7f565b820191906000526020600020905b815481529060010190602001808311613a6257829003601f168201915b50505050508152602001838152602001600115158152509050600060028d81548110613aad57613aad614d2e565b9060005260206000209060040201905073__ItemsLibrary__________________________635cb09bcf8383306040518463ffffffff1660e01b815260040161255a93929190614b19565b6000805b8251811015613bc357828181518110613b1757613b17614d2e565b6020026020010151600001516001600160a01b031684600001516001600160a01b0316148015613b795750828181518110613b5457613b54614d2e565b6020026020010151602001516001600160a01b031684602001516001600160a01b0316145b8015613ba55750828181518110613b9257613b92614d2e565b6020026020010151604001518460400151145b15613bb15790506119e2565b80613bbb81614ce7565b915050613afc565b5081516111ca906001614c51565b60065460015460405163f6001d7d60e01b815273__ItemsLibrary__________________________9263f6001d7d92613c0c92600401614957565b60206040518083038186803b158015613c2457600080fd5b505af4158015613c38573d6000803e3d6000fd5b505050506040513d601f19601f82011682018060405250810190613c5c9190614571565b15613c7157600554600155613c6f613e74565b565b60075460015460405163f6001d7d60e01b815273__ItemsLibrary__________________________9263f6001d7d92613cac92600401614957565b60206040518083038186803b158015613cc457600080fd5b505af4158015613cd8573d6000803e3d6000fd5b505050506040513d601f19601f82011682018060405250810190613cfc9190614571565b15613c6f57613c6f613e74565b60025460405163123bd07560e11b8152600091839173__Library_______________________________90632477a0ea90613d4a9085908590600401614957565b60206040518083038186803b158015613d6257600080fd5b505af4158015613d76573d6000803e3d6000fd5b505050506040513d601f19601f82011682018060405250810190613d9a9190614571565b1515600114613dbb5760405162461bcd60e51b815260040161053a906149b8565b60405163bc215e8560e01b815260009073__AddressLibrary________________________9063bc215e8590613df5908990600401614709565b60206040518083038186803b158015613e0d57600080fd5b505af4158015613e21573d6000803e3d6000fd5b505050506040513d601f19601f82011682018060405250810190613e45919061458e565b905073__ItemsLibrary__________________________6226d7668260028881548110611b5457611b54614d2e565b6000600581905560068190556007819055613c6f90600890613fa8565b828054828255906000526020600020908101928215613ede579160200282015b82811115613ede5782518051613ece918491602090910190613eee565b5091602001919060010190613eb1565b50613eea929150613fc6565b5090565b828054613efa90614cac565b90600052602060002090601f016020900481019282613f1c5760008555613f62565b82601f10613f3557805160ff1916838001178555613f62565b82800160010185558215613f62579182015b82811115613f62578251825591602001919060010190613f47565b50613eea929150613fe3565b508054613f7a90614cac565b6000825580601f10613f8a575050565b601f016020900490600052602060002090810190610aac9190613fe3565b5080546000825590600052602060002090810190610aac9190613fe3565b80821115613eea576000613fda8282613f6e565b50600101613fc6565b5b80821115613eea5760008155600101613fe4565b600082601f83011261400957600080fd5b8135602061401e61401983614c07565b614bd7565b80838252828201915082860187848660051b890101111561403e57600080fd5b60005b8581101561406657813561405481614d5a565b84529284019290840190600101614041565b5090979650505050505050565b600082601f83011261408457600080fd5b8151602061409461401983614c07565b80838252828201915082860187848660051b89010111156140b457600080fd5b60005b85811015614066578151845292840192908401906001016140b7565b60008083601f8401126140e557600080fd5b5081356001600160401b038111156140fc57600080fd5b60208301915083602082850101111561411457600080fd5b9250929050565b600082601f83011261412c57600080fd5b813561413a61401982614c2a565b81815284602083860101111561414f57600080fd5b816020850160208301376000918101602001919091529392505050565b600082601f83011261417d57600080fd5b815161418b61401982614c2a565b8181528460208386010111156141a057600080fd5b6121e8826020830160208701614c80565b6000602082840312156141c357600080fd5b81356111ca81614d5a565b6000602082840312156141e057600080fd5b81516111ca81614d5a565b60008060006060848603121561420057600080fd5b833561420b81614d5a565b925060208401359150604084013561422281614d5a565b809150509250925092565b60008060006040848603121561424257600080fd5b833561424d81614d5a565b925060208401356001600160401b0381111561426857600080fd5b614274868287016140d3565b9497909650939450505050565b60008060008060006080868803121561429957600080fd5b85356142a481614d5a565b945060208601356001600160401b038111156142bf57600080fd5b6142cb888289016140d3565b9699909850959660408101359660609091013595509350505050565b6000806000606084860312156142fc57600080fd5b83356001600160401b038082111561431357600080fd5b61431f87838801613ff8565b945060208601359350604086013591508082111561433c57600080fd5b506143498682870161411b565b9150509250925092565b600080600080600060a0868803121561436b57600080fd5b6001600160401b03863581101561438157600080fd5b61438e8888358901613ff8565b95506020808801359550604088013594506060880135828111156143b157600080fd5b8801601f81018a136143c257600080fd5b80356143d061401982614c07565b8082825284820191508484018d868560051b87010111156143f057600080fd5b60005b8481101561442a57878235111561440957600080fd5b6144188f88843589010161411b565b845292860192908601906001016143f3565b5050809750505050505050608086013590509295509295909350565b60006020828403121561445857600080fd5b81516001600160401b0381111561446e57600080fd5b6121e884828501614073565b6000806040838503121561448d57600080fd5b82516001600160401b03808211156144a457600080fd5b6144b086838701614073565b93506020915081850151818111156144c757600080fd5b8501601f810187136144d857600080fd5b80516144e661401982614c07565b8082825285820191508584018a878560051b870101111561450657600080fd5b6000805b8581101561454157825188811115614520578283fd5b61452e8e8b838b010161416c565b865250938801939188019160010161450a565b5050508096505050505050509250929050565b60006020828403121561456657600080fd5b81356111ca81614d6f565b60006020828403121561458357600080fd5b81516111ca81614d6f565b6000602082840312156145a057600080fd5b5051919050565b600080600080606085870312156145bd57600080fd5b8435935060208501356001600160401b03808211156145db57600080fd5b818701915087601f8301126145ef57600080fd5b8135818111156145fe57600080fd5b8860208260051b850101111561461357600080fd5b602083019550809450505050604085013561462d81614d6f565b939692955090935050565b6000806040838503121561464b57600080fd5b82516001600160401b0381111561466157600080fd5b61466d8582860161416c565b925050602083015161467e81614d6f565b809150509250929050565b60006020828403121561469b57600080fd5b5035919050565b600081518084526020808501945080840160005b838110156146d2578151875295820195908201906001016146b6565b509495945050505050565b600081518084526146f5816020860160208601614c80565b601f01601f19169290920160200192915050565b6001600160a01b0391909116815260200190565b60006040820160018060a01b03808616845260206040818601528286548085526060870191508760005282600020945060005b8181101561476e578554851683526001958601959284019201614750565b509098975050505050505050565b6001600160a01b039390931683526020830191909152604082015260600190565b60018060a01b0383168152600060206040818401526000845481600182811c9150808316806147cd57607f831692505b8583108114156147eb57634e487b7160e01b85526022600452602485fd5b604088018390526060880181801561480a576001811461481b57614846565b60ff19861682528782019650614846565b60008b81526020902060005b8681101561484057815484820152908501908901614827565b83019750505b50949a9950505050505050505050565b6020815260006111ca60208301846146a2565b60408152600061487c60408301856146a2565b6020838203818501528185518084528284019150828160051b85010183880160005b838110156148cc57601f198784030185526148ba8383516146dd565b9486019492509085019060010161489e565b50909998505050505050505050565b602080825282518282018190526000919060409081850190868401855b8281101561493357815180516001600160a01b03908116865287820151168786015285015185850152606090930192908501906001016148f8565b5091979650505050505050565b9182526001600160a01b0316602082015260400190565b918252602082015260400190565b60408152600061497860408301856146dd565b905082151560208301529392505050565b60808152600061499c60808301876146dd565b9415156020830152506040810192909252606090910152919050565b6020808252600490820152634543312d60e01b604082015260600190565b602080825260059082015264454332372d60d81b604082015260600190565b602080825260059082015264454332382d60d81b604082015260600190565b602080825260059082015264454331392d60d81b604082015260600190565b602080825260059082015264454333312d60d81b604082015260600190565b6020808252600490820152634543362d60e01b604082015260600190565b602080825260059082015264454331372d60d81b604082015260600190565b6020808252602e908201527f496e697469616c697a61626c653a20636f6e747261637420697320616c72656160408201526d191e481a5b9a5d1a585b1a5e995960921b606082015260800190565b6020808252600490820152634543392d60e01b604082015260600190565b6020808252600490820152634543352d60e01b604082015260600190565b6060815283516060820152600060208086015160c06080850152614b416101208501826146dd565b9050604087015160a08501526060870151605f19808684030160c0870152614b6983836146dd565b60808a015187820390920160e088015281518082529185019350600092508401905b80831015614bab5783518252928401926001929092019190840190614b8b565b5060a0890151151561010087015292850187905250506001600160a01b038416604084015290506121e8565b604051601f8201601f191681016001600160401b0381118282101715614bff57614bff614d44565b604052919050565b60006001600160401b03821115614c2057614c20614d44565b5060051b60200190565b60006001600160401b03821115614c4357614c43614d44565b50601f01601f191660200190565b60008219821115614c6457614c64614d02565b500190565b600082821015614c7b57614c7b614d02565b500390565b60005b83811015614c9b578181015183820152602001614c83565b83811115610bde5750506000910152565b600181811c90821680614cc057607f821691505b60208210811415614ce157634e487b7160e01b600052602260045260246000fd5b50919050565b6000600019821415614cfb57614cfb614d02565b5060010190565b634e487b7160e01b600052601160045260246000fd5b634e487b7160e01b600052603160045260246000fd5b634e487b7160e01b600052603260045260246000fd5b634e487b7160e01b600052604160045260246000fd5b6001600160a01b0381168114610aac57600080fd5b8015158114610aac57600080fdfea26469706673582212202eaae3ccab8c603f04800d8f6bafcc609708ea0b44fa4bb879e7546ba535f3b164736f6c63430008070033",
  "immutableReferences": {},
  "source": "// SPDX-License-Identifier: GPL-3.0\r\n\r\npragma solidity >=0.7.0 <0.9.0;\r\n\r\n/**\r\n * @title Storage\r\n * @dev Store & retrieve value in a variable\r\n */\r\n import \"../Libraries/Library.sol\";\r\n import \"../Interfaces/IProvider.sol\";\r\n import \"../Interfaces/IPool.sol\";\r\n import \"../Abstract/MultiSigContract.sol\";\r\n import \"../Libraries/ItemsLibrary.sol\";\r\n import \"../Libraries/AddressLibrary.sol\";\r\n import \"@openzeppelin/contracts-upgradeable/proxy/utils/Initializable.sol\";\r\n\r\n contract Provider is IProvider, Initializable, MultiSigContract {\r\n    using Library for *;\r\n    using AddressLibrary for *;\r\n    using ItemsLibrary for *;\r\n\r\n    // DATA /////////////////////////////////////////\r\n    uint256 constant _TotalEntities = 2;\r\n\r\n    // Owners\r\n    uint256 constant _ownerIdProviders = 0;\r\n    string constant _ownerLabel = \"Owner\";\r\n\r\n    // Pools\r\n    uint256 constant _poolId = 1;\r\n    string constant _poolLabel = \"Pool\";\r\n\r\n    mapping(address => uint256) private _AddCertificatePricePerPool;\r\n    mapping(address => uint256) private _SubscriptionPricePerPool;\r\n    mapping(address => bool) private _submited;\r\n\r\n\r\n    // Certificates\r\n    uint256 constant _certId = 2;\r\n    string constant _certLabel = \"Certificate\";\r\n\r\n    string[] private _Label;\r\n    \r\n    struct _CertificatesPerHolderStruct{\r\n        mapping(address => ItemsLibrary._ItemsStruct) _CertificatesPerHolder;\r\n    }\r\n   \r\n    mapping(address => _CertificatesPerHolderStruct) private _CertificatesPerPool;\r\n    \r\n    Library._pendingCertificatesStruct[] private _pendingCertificates;\r\n\r\n    // Provider\r\n    string private _ProviderInfo;\r\n\r\n    // MODIFIERS /////////////////////////////////////////\r\n    modifier isAPool(address pool){\r\n        require(true == isPool(pool));\r\n        _;\r\n    }\r\n\r\n    modifier isCertificateActivated(bool YesOrNo, bytes32 cert, address pool, address holder){\r\n        if(false == YesOrNo) require(false == internalisCertificate(pool, cert, holder), \"EC6-\");\r\n        else require(true == internalisCertificate(pool, cert, holder), \"EC7-\");\r\n        _;\r\n    }\r\n\r\n    modifier isCertificatePendingToAdd(bool YesOrNo, bytes32 cert, address pool, address holder){\r\n        if(false == YesOrNo) require(false == isCertificatePendingToAdded(pool, cert, holder), \"EC27-\");\r\n        else require(true == isCertificatePendingToAdded(pool, cert, holder), \"EC28-\");\r\n        _;\r\n    }\r\n\r\n    modifier HasNotAlreadyVotedForCertificate(bytes32 cert, address pool, address holder){\r\n        require(false == ItemsLibrary.hasVoted(msg.sender, cert, _CertificatesPerPool[pool]._CertificatesPerHolder[holder]), \"EC5-\");\r\n        _;\r\n    }\r\n\r\n     // CONSTRUCTOR /////////////////////////////////////////\r\n    function Provider_init(address[] memory owners,  uint256 minOwners, string memory ProviderInfo) public initializer \r\n    {\r\n        _Label = new string[](2);\r\n        _Label[0] = _ownerLabel;\r\n        _Label[1] = _poolLabel;\r\n\r\n        super.MultiSigContract_init(owners, minOwners, _TotalEntities, _Label, _ownerIdProviders); \r\n        _ProviderInfo = ProviderInfo;\r\n    }\r\n\r\n    // FUNCTIONALITY /////////////////////////////////////////\r\n    function addPool(address pool, string calldata poolInfo, uint256 AddCertificatePrice, uint256 SubscriptionPrice) external override{\r\n        addEntity(pool, poolInfo, _poolId);\r\n        if(false == _submited[pool]){\r\n            _AddCertificatePricePerPool[pool] = AddCertificatePrice;\r\n            _SubscriptionPricePerPool[pool] = SubscriptionPrice;\r\n            _submited[pool] = true;\r\n        }\r\n    }\r\n\r\n    function removePool(address pool) external override\r\n    {\r\n       removeEntity(pool, _poolId); \r\n    }\r\n\r\n    function validatePool(address pool) external override\r\n    {\r\n        validateEntity(pool, _poolId);\r\n    }\r\n\r\n    function rejectPool(address pool) external override\r\n    {\r\n        rejectEntity(pool, _poolId);\r\n    }\r\n\r\n    function removePricesForPool(address pool) internal\r\n    {\r\n        delete(_submited[pool]);\r\n        delete(_AddCertificatePricePerPool[pool]);\r\n        delete(_SubscriptionPricePerPool[pool]);\r\n    }\r\n    \r\n    function retrievePool(address pool) external override view returns (string memory, bool, uint256, uint256)\r\n    {\r\n        string memory poolInfo;\r\n        bool isActivated;\r\n\r\n        (poolInfo, isActivated) = InternalRetrievePool(pool);\r\n        return (poolInfo, isActivated, _AddCertificatePricePerPool[pool], _SubscriptionPricePerPool[pool]);\r\n    }\r\n    \r\n    function InternalRetrievePool(address pool) internal view returns (string memory, bool)\r\n    {\r\n        return retrieveEntity(pool, _poolId);\r\n    }\r\n\r\n    function retrieveAllPools() external override view returns (bytes32[] memory)\r\n    {\r\n        return retrieveAllEntities(_poolId);\r\n    }\r\n\r\n    function retrievePendingPools(bool addedORremove) external override view returns (bytes32[] memory, string[] memory)\r\n    {\r\n        return(retrievePendingEntities(addedORremove, _poolId));\r\n    }\r\n\r\n    function isPool(address pool) internal view returns (bool)\r\n    {\r\n        return(isEntity(pool, _poolId));\r\n    }\r\n    // Certificates management\r\n    function extractCertIds(address pool, bytes32 CertificateHash, address holder) internal returns(uint[] memory)\r\n    {\r\n        uint otherId;\r\n        uint[] memory certIdIdArray = new uint[](4);\r\n        certIdIdArray[0] = _certId;\r\n        certIdIdArray[1] = AddressLibrary.AddressToUint(pool);\r\n        certIdIdArray[2] = AddressLibrary.AddressToUint(holder);\r\n\r\n        Library._pendingCertificatesStruct memory pCS = Library._pendingCertificatesStruct(pool, holder, CertificateHash);\r\n\r\n        if(!isCertificatePendingToAdded(pool, CertificateHash, holder)){\r\n            _pendingCertificates.push(pCS);\r\n            otherId = _pendingCertificates.length - 1;\r\n        }\r\n        else{\r\n            otherId = PositionInArray(pCS, _pendingCertificates);\r\n        }\r\n\r\n        certIdIdArray[3] = otherId;\r\n\r\n        return(certIdIdArray);\r\n    }\r\n\r\n     function addCertificate(address pool, bytes32 CertificateHash, address holder) external override\r\n        isAPool(pool)\r\n        isAnOwner\r\n        isCertificateActivated(false, CertificateHash, pool, holder) \r\n        isCertificatePendingToAdd(false, CertificateHash, pool, holder)\r\n     {\r\n       \r\n        _CertificatesPerHolderStruct storage hs = _CertificatesPerPool[pool];\r\n        uint[] memory certIdIdArray = extractCertIds(pool, CertificateHash, holder);\r\n        ItemsLibrary._manipulateItemStruct memory manipulateItemStruct = ItemsLibrary._manipulateItemStruct(CertificateHash, \"\", _minOwners, _certLabel, certIdIdArray, false);\r\n        ItemsLibrary._ItemsStruct storage itemsstruct =  hs._CertificatesPerHolder[holder];\r\n        ItemsLibrary.addItem(manipulateItemStruct,itemsstruct, address(this));\r\n     }\r\n\r\n     function validateCertificate(address pool, bytes32 CertificateHash, address holder) external override\r\n        isAPool(pool)\r\n        isAnOwner\r\n        isCertificatePendingToAdd(true, CertificateHash, pool, holder)\r\n        HasNotAlreadyVotedForCertificate(CertificateHash, pool, holder)\r\n     {\r\n        _CertificatesPerHolderStruct storage hs = _CertificatesPerPool[pool];\r\n        uint[] memory certIdIdArray = extractCertIds(pool, CertificateHash, holder);\r\n        ItemsLibrary._manipulateItemStruct memory manipulateItemStruct = ItemsLibrary._manipulateItemStruct(CertificateHash, \"\", _minOwners, _certLabel, certIdIdArray, false);\r\n        ItemsLibrary._ItemsStruct storage itemsstruct =  hs._CertificatesPerHolder[holder];\r\n        ItemsLibrary.validateItem(manipulateItemStruct, itemsstruct, address(this));\r\n     }\r\n\r\n     function rejectCertificate(address pool, bytes32 CertificateHash, address holder) external override\r\n        isAPool(pool)\r\n        isAnOwner\r\n        isCertificatePendingToAdd(true, CertificateHash, pool, holder)\r\n        HasNotAlreadyVotedForCertificate(CertificateHash, pool, holder)\r\n     {\r\n        _CertificatesPerHolderStruct storage hs = _CertificatesPerPool[pool];\r\n        uint[] memory certIdIdArray = extractCertIds(pool, CertificateHash, holder);\r\n        ItemsLibrary._manipulateItemStruct memory manipulateItemStruct = ItemsLibrary._manipulateItemStruct(CertificateHash, \"\", _minOwners, _certLabel, certIdIdArray, false);\r\n        ItemsLibrary._ItemsStruct storage itemsstruct =  hs._CertificatesPerHolder[holder];\r\n        ItemsLibrary.rejectItem(manipulateItemStruct, itemsstruct, address(this));\r\n     }\r\n \r\n    function manipulateCertificate(address pool, bytes32 CertificateHash, address holder) internal\r\n        isAPool(pool)\r\n    {\r\n        IPool poolToSend = IPool(pool);\r\n\r\n        poolToSend.addCertificate{value:_AddCertificatePricePerPool[pool]}(CertificateHash, holder);\r\n\r\n        ItemsLibrary._ItemsStruct storage itemStruct = _CertificatesPerPool[pool]._CertificatesPerHolder[holder];\r\n\r\n        ItemsLibrary.RemoveResizeActivated(CertificateHash, itemStruct);\r\n        delete(itemStruct._items[CertificateHash]);   \r\n    }\r\n\r\n    function retrievePendingCertificates() external override view returns (Library._pendingCertificatesStruct[] memory)\r\n    {\r\n        return(_pendingCertificates);\r\n    }\r\n\r\n    function isCertificate(address pool, bytes32 CertificateHash, address holder) external override view returns(bool)\r\n    {\r\n        return internalisCertificate(pool, CertificateHash, holder);\r\n    }\r\n\r\n    function internalisCertificate(address pool, bytes32 CertificateHash, address holder) internal view returns(bool)\r\n    {\r\n        IPool poolToCheck = IPool(pool);\r\n        address provider = poolToCheck.retrieveCertificateProvider(CertificateHash, holder);\r\n        if(provider == address(this)) return true;\r\n        return false;\r\n    }\r\n\r\n    function isCertificatePendingToAdded(address pool, bytes32 CertificateHash, address holder) internal view returns(bool)\r\n    {\r\n        return ItemsLibrary.isItemPendingToAdded(CertificateHash, _CertificatesPerPool[pool]._CertificatesPerHolder[holder]);\r\n    }\r\n\r\n    function RemoveResizeCertificatesStructArray(Library._pendingCertificatesStruct[] storage array, uint index) internal\r\n    {\r\n        array[index] = array[array.length - 1];\r\n        array.pop();\r\n    }\r\n\r\n    function PositionInArray(Library._pendingCertificatesStruct memory value, Library._pendingCertificatesStruct[] memory array) internal pure returns(uint)\r\n    {\r\n         for(uint i=0; i < array.length; i++){\r\n            if(value.pool == array[i].pool && \r\n                value.holder == array[i].holder && \r\n                value.certificate == array[i].certificate) return i;\r\n        }\r\n\r\n        return array.length + 1;\r\n    }\r\n\r\n    receive() external override payable{}\r\n\r\n    // CALLBACKS /////////////////////////////////////////\r\n    function onItemValidated(bytes32 item, uint256[] calldata ids, bool addOrRemove) public override  \r\n    {\r\n        super.onItemValidated(item, ids, addOrRemove);\r\n\r\n        if(ids[0] == _poolId){\r\n            address pool = AddressLibrary.Bytes32ToAddress(item);\r\n\r\n            if(false == addOrRemove)removePricesForPool(pool);\r\n            else{\r\n                IPool poolToSubscribe = IPool(pool);\r\n                poolToSubscribe.addProvider{value:_SubscriptionPricePerPool[pool]}(address(this), _ProviderInfo);\r\n            }\r\n        }\r\n        else if(ids[0] == _certId){\r\n            manipulateCertificate(AddressLibrary.UintToAddress(ids[1]), item, AddressLibrary.UintToAddress(ids[2]));\r\n            RemoveResizeCertificatesStructArray(_pendingCertificates, ids[3]);\r\n        }\r\n    }\r\n\r\n    function onItemRejected(bytes32 item, uint256[] calldata ids, bool addOrRemove) public override  \r\n    {\r\n        super.onItemRejected(item, ids, addOrRemove);\r\n\r\n        if(ids[0] == _poolId){\r\n            address pool = AddressLibrary.Bytes32ToAddress(item);\r\n\r\n            if(true == addOrRemove)removePricesForPool(pool);\r\n        } \r\n        else if(ids[0] == _certId){\r\n            RemoveResizeCertificatesStructArray(_pendingCertificates, ids[3]);\r\n        }\r\n    }\r\n    \r\n }",
  "sourcePath": "C:/Users/d-aam/GitHub/Certificates/contracts/DeployedContracts/Provider.sol",
  "compiler": {
    "name": "solc",
    "version": "0.8.7+commit.e28d00a7.Emscripten.clang"
  },
  "schemaVersion": "3.3.4",
  "updatedAt": "2021-08-24T09:51:26.520Z",
  "devdoc": {
    "kind": "dev",
    "methods": {},
    "version": 1
  },
  "userdoc": {
    "kind": "user",
    "methods": {},
    "version": 1
  }
}