{
  "contractName": "Provider",
  "abi": [
    {
      "inputs": [
        {
          "internalType": "address[]",
          "name": "owners",
          "type": "address[]"
        },
        {
          "internalType": "uint256",
          "name": "minOwners",
          "type": "uint256"
        },
        {
          "internalType": "uint256",
          "name": "TotalEntities",
          "type": "uint256"
        },
        {
          "internalType": "string[]",
          "name": "labels",
          "type": "string[]"
        },
        {
          "internalType": "uint256",
          "name": "ownerId",
          "type": "uint256"
        }
      ],
      "name": "MultiSigContract_init",
      "outputs": [],
      "stateMutability": "nonpayable",
      "type": "function"
    },
    {
      "inputs": [
        {
          "internalType": "address",
          "name": "owner",
          "type": "address"
        },
        {
          "internalType": "string",
          "name": "ownerInfo",
          "type": "string"
        }
      ],
      "name": "addOwner",
      "outputs": [],
      "stateMutability": "nonpayable",
      "type": "function"
    },
    {
      "inputs": [
        {
          "internalType": "uint256",
          "name": "newMinOwners",
          "type": "uint256"
        }
      ],
      "name": "changeMinOwners",
      "outputs": [],
      "stateMutability": "nonpayable",
      "type": "function"
    },
    {
      "inputs": [],
      "name": "rejectMinOwners",
      "outputs": [],
      "stateMutability": "nonpayable",
      "type": "function"
    },
    {
      "inputs": [
        {
          "internalType": "address",
          "name": "owner",
          "type": "address"
        }
      ],
      "name": "rejectOwner",
      "outputs": [],
      "stateMutability": "nonpayable",
      "type": "function"
    },
    {
      "inputs": [
        {
          "internalType": "address",
          "name": "owner",
          "type": "address"
        }
      ],
      "name": "removeOwner",
      "outputs": [],
      "stateMutability": "nonpayable",
      "type": "function"
    },
    {
      "inputs": [],
      "name": "retrieveAllOwners",
      "outputs": [
        {
          "internalType": "bytes32[]",
          "name": "",
          "type": "bytes32[]"
        }
      ],
      "stateMutability": "view",
      "type": "function"
    },
    {
      "inputs": [],
      "name": "retrieveMinOwners",
      "outputs": [
        {
          "internalType": "uint256",
          "name": "",
          "type": "uint256"
        }
      ],
      "stateMutability": "view",
      "type": "function"
    },
    {
      "inputs": [
        {
          "internalType": "address",
          "name": "owner",
          "type": "address"
        }
      ],
      "name": "retrieveOwner",
      "outputs": [
        {
          "internalType": "string",
          "name": "",
          "type": "string"
        },
        {
          "internalType": "bool",
          "name": "",
          "type": "bool"
        }
      ],
      "stateMutability": "view",
      "type": "function"
    },
    {
      "inputs": [],
      "name": "retrievePendingMinOwners",
      "outputs": [
        {
          "internalType": "uint256",
          "name": "",
          "type": "uint256"
        }
      ],
      "stateMutability": "view",
      "type": "function"
    },
    {
      "inputs": [
        {
          "internalType": "bool",
          "name": "addedORremove",
          "type": "bool"
        }
      ],
      "name": "retrievePendingOwners",
      "outputs": [
        {
          "internalType": "bytes32[]",
          "name": "",
          "type": "bytes32[]"
        },
        {
          "internalType": "string[]",
          "name": "",
          "type": "string[]"
        }
      ],
      "stateMutability": "view",
      "type": "function"
    },
    {
      "inputs": [],
      "name": "validateMinOwners",
      "outputs": [],
      "stateMutability": "nonpayable",
      "type": "function"
    },
    {
      "inputs": [
        {
          "internalType": "address",
          "name": "owner",
          "type": "address"
        }
      ],
      "name": "validateOwner",
      "outputs": [],
      "stateMutability": "nonpayable",
      "type": "function"
    },
    {
      "stateMutability": "payable",
      "type": "receive"
    },
    {
      "inputs": [
        {
          "internalType": "address[]",
          "name": "owners",
          "type": "address[]"
        },
        {
          "internalType": "uint256",
          "name": "minOwners",
          "type": "uint256"
        },
        {
          "internalType": "string",
          "name": "ProviderInfo",
          "type": "string"
        }
      ],
      "name": "Provider_init",
      "outputs": [],
      "stateMutability": "nonpayable",
      "type": "function"
    },
    {
      "inputs": [
        {
          "internalType": "address",
          "name": "pool",
          "type": "address"
        },
        {
          "internalType": "string",
          "name": "poolInfo",
          "type": "string"
        },
        {
          "internalType": "uint256",
          "name": "AddCertificatePrice",
          "type": "uint256"
        },
        {
          "internalType": "uint256",
          "name": "SubscriptionPrice",
          "type": "uint256"
        }
      ],
      "name": "addPool",
      "outputs": [],
      "stateMutability": "nonpayable",
      "type": "function"
    },
    {
      "inputs": [
        {
          "internalType": "address",
          "name": "pool",
          "type": "address"
        }
      ],
      "name": "removePool",
      "outputs": [],
      "stateMutability": "nonpayable",
      "type": "function"
    },
    {
      "inputs": [
        {
          "internalType": "address",
          "name": "pool",
          "type": "address"
        }
      ],
      "name": "validatePool",
      "outputs": [],
      "stateMutability": "nonpayable",
      "type": "function"
    },
    {
      "inputs": [
        {
          "internalType": "address",
          "name": "pool",
          "type": "address"
        }
      ],
      "name": "rejectPool",
      "outputs": [],
      "stateMutability": "nonpayable",
      "type": "function"
    },
    {
      "inputs": [
        {
          "internalType": "address",
          "name": "pool",
          "type": "address"
        }
      ],
      "name": "retrievePool",
      "outputs": [
        {
          "internalType": "string",
          "name": "",
          "type": "string"
        },
        {
          "internalType": "bool",
          "name": "",
          "type": "bool"
        },
        {
          "internalType": "uint256",
          "name": "",
          "type": "uint256"
        },
        {
          "internalType": "uint256",
          "name": "",
          "type": "uint256"
        }
      ],
      "stateMutability": "view",
      "type": "function"
    },
    {
      "inputs": [],
      "name": "retrieveAllPools",
      "outputs": [
        {
          "internalType": "bytes32[]",
          "name": "",
          "type": "bytes32[]"
        }
      ],
      "stateMutability": "view",
      "type": "function"
    },
    {
      "inputs": [
        {
          "internalType": "bool",
          "name": "addedORremove",
          "type": "bool"
        }
      ],
      "name": "retrievePendingPools",
      "outputs": [
        {
          "internalType": "bytes32[]",
          "name": "",
          "type": "bytes32[]"
        },
        {
          "internalType": "string[]",
          "name": "",
          "type": "string[]"
        }
      ],
      "stateMutability": "view",
      "type": "function"
    },
    {
      "inputs": [
        {
          "internalType": "address",
          "name": "pool",
          "type": "address"
        },
        {
          "internalType": "bytes32",
          "name": "CertificateHash",
          "type": "bytes32"
        },
        {
          "internalType": "address",
          "name": "holder",
          "type": "address"
        }
      ],
      "name": "addCertificate",
      "outputs": [],
      "stateMutability": "nonpayable",
      "type": "function"
    },
    {
      "inputs": [
        {
          "internalType": "address",
          "name": "pool",
          "type": "address"
        },
        {
          "internalType": "bytes32",
          "name": "CertificateHash",
          "type": "bytes32"
        },
        {
          "internalType": "address",
          "name": "holder",
          "type": "address"
        }
      ],
      "name": "validateCertificate",
      "outputs": [],
      "stateMutability": "nonpayable",
      "type": "function"
    },
    {
      "inputs": [
        {
          "internalType": "address",
          "name": "pool",
          "type": "address"
        },
        {
          "internalType": "bytes32",
          "name": "CertificateHash",
          "type": "bytes32"
        },
        {
          "internalType": "address",
          "name": "holder",
          "type": "address"
        }
      ],
      "name": "rejectCertificate",
      "outputs": [],
      "stateMutability": "nonpayable",
      "type": "function"
    },
    {
      "inputs": [],
      "name": "retrievePendingCertificates",
      "outputs": [
        {
          "components": [
            {
              "internalType": "address",
              "name": "pool",
              "type": "address"
            },
            {
              "internalType": "address",
              "name": "holder",
              "type": "address"
            },
            {
              "internalType": "bytes32",
              "name": "certificate",
              "type": "bytes32"
            }
          ],
          "internalType": "struct Library._pendingCertificatesStruct[]",
          "name": "",
          "type": "tuple[]"
        }
      ],
      "stateMutability": "view",
      "type": "function"
    },
    {
      "inputs": [
        {
          "internalType": "address",
          "name": "pool",
          "type": "address"
        },
        {
          "internalType": "bytes32",
          "name": "CertificateHash",
          "type": "bytes32"
        },
        {
          "internalType": "address",
          "name": "holder",
          "type": "address"
        }
      ],
      "name": "isCertificate",
      "outputs": [
        {
          "internalType": "bool",
          "name": "",
          "type": "bool"
        }
      ],
      "stateMutability": "view",
      "type": "function"
    },
    {
      "inputs": [
        {
          "internalType": "bytes32",
          "name": "item",
          "type": "bytes32"
        },
        {
          "internalType": "uint256[]",
          "name": "ids",
          "type": "uint256[]"
        },
        {
          "internalType": "bool",
          "name": "addOrRemove",
          "type": "bool"
        }
      ],
      "name": "onItemValidated",
      "outputs": [],
      "stateMutability": "nonpayable",
      "type": "function"
    },
    {
      "inputs": [
        {
          "internalType": "bytes32",
          "name": "item",
          "type": "bytes32"
        },
        {
          "internalType": "uint256[]",
          "name": "ids",
          "type": "uint256[]"
        },
        {
          "internalType": "bool",
          "name": "addOrRemove",
          "type": "bool"
        }
      ],
      "name": "onItemRejected",
      "outputs": [],
      "stateMutability": "nonpayable",
      "type": "function"
    }
  ],
  "bytecode": "0x608060405234801561001057600080fd5b50614da6806100206000396000f3fe60806040526004361061014b5760003560e01c8063017cb3db1461015757806314a2ed2f14610179578063173825d9146101995780632d99aaf2146101b95780632edbe7fc146101e457806330ade922146102035780633542758f146102185780633b7d0946146102385780633fd071811461025857806365b973e5146102785780636b2996041461028d57806376f8f90f146102bb57806377bc5a1f146102db5780637c8c2add146103095780638fc2d8ea14610329578063a44bff2b14610359578063a706752c14610379578063a93d5ed6146103a9578063b683e37b146103be578063bd9f3705146103de578063c3079ae7146103fe578063c66433ea14610413578063cd019e0714610433578063ce33d58a14610455578063cf2041d914610475578063d920928914610495578063f8049382146104b5578063fb1f6917146104d557600080fd5b3661015257005b600080fd5b34801561016357600080fd5b506101776101723660046141e7565b6104f5565b005b34801561018557600080fd5b506101776101943660046141e7565b61077b565b3480156101a557600080fd5b506101776101b43660046141ad565b610950565b3480156101c557600080fd5b506101ce61099c565b6040516101db9190614852565b60405180910390f35b3480156101f057600080fd5b506005545b6040519081526020016101db565b34801561020f57600080fd5b506101776109ad565b34801561022457600080fd5b50610177610233366004614229565b610aaf565b34801561024457600080fd5b506101776102533660046141ad565b610abd565b34801561026457600080fd5b506101776102733660046145a3565b610ac8565b34801561028457600080fd5b506001546101f5565b34801561029957600080fd5b506102ad6102a8366004614550565b610be4565b6040516101db929190614865565b3480156102c757600080fd5b506101776102d63660046141ad565b610bfc565b3480156102e757600080fd5b506102fb6102f63660046141ad565b610c57565b6040516101db929190614961565b34801561031557600080fd5b506101776103243660046145a3565b610c67565b34801561033557600080fd5b506103496103443660046141ad565b610f30565b6040516101db9493929190614985565b34801561036557600080fd5b506101776103743660046142e3565b610f7a565b34801561038557600080fd5b506103996103943660046141e7565b6111ba565b60405190151581526020016101db565b3480156103b557600080fd5b506101ce6111d1565b3480156103ca57600080fd5b506101776103d936600461427d565b6111de565b3480156103ea57600080fd5b506101776103f93660046141e7565b61124d565b34801561040a57600080fd5b50610177611489565b34801561041f57600080fd5b5061017761042e366004614685565b611588565b34801561043f57600080fd5b50610448611674565b6040516101db91906148d7565b34801561046157600080fd5b506101776104703660046141ad565b6116fb565b34801561048157600080fd5b5061017761049036600461434f565b611707565b3480156104a157600080fd5b506101776104b03660046141ad565b6119b3565b3480156104c157600080fd5b506102ad6104d0366004614550565b6119be565b3480156104e157600080fd5b506101776104f03660046141ad565b6119cc565b826104ff816119d7565b151560011461050d57600080fd5b610519336000546119ea565b15156001146105435760405162461bcd60e51b815260040161053a90614ab5565b60405180910390fd5b6001838584610553828483611bdb565b15156001146105745760405162461bcd60e51b815260040161053a90614a2b565b6001600160a01b038089166000908152600d60209081526040808320938a1683529290528190209051633db691ef60e11b815288918a91899173__ItemsLibrary__________________________91637b6d23de916105d99133918891600401614778565b60206040518083038186803b1580156105f157600080fd5b505af4158015610605573d6000803e3d6000fd5b505050506040513d601f19601f82011682018060405250810190610629919061456d565b156106465760405162461bcd60e51b815260040161053a90614a0e565b6001600160a01b038b166000908152600d602052604081209061066a8d8d8d611c89565b905060006040518060c001604052808e815260200160405180602001604052806000815250815260200160015481526020016040518060400160405280600b81526020016a436572746966696361746560a81b815250815260200183815260200160001515815250905060008360000160008e6001600160a01b03166001600160a01b03168152602001908152602001600020905073__ItemsLibrary__________________________635cb09bcf8383306040518463ffffffff1660e01b815260040161073a93929190614b0c565b60006040518083038186803b15801561075257600080fd5b505af4158015610766573d6000803e3d6000fd5b50505050505050505050505050505050505050565b82610785816119d7565b151560011461079357600080fd5b61079f336000546119ea565b15156001146107c05760405162461bcd60e51b815260040161053a90614ab5565b60008385846107d0828483611fdc565b156107ed5760405162461bcd60e51b815260040161053a90614aef565b60008789886107fd828483611bdb565b1561081a5760405162461bcd60e51b815260040161053a906149f0565b6001600160a01b038c166000908152600d602052604081209061083e8e8e8e611c89565b905060006040518060c001604052808f815260200160405180602001604052806000815250815260200160015481526020016040518060400160405280600b81526020016a436572746966696361746560a81b815250815260200183815260200160001515815250905060008360000160008f6001600160a01b03166001600160a01b03168152602001908152602001600020905073__ItemsLibrary__________________________630b985aaa8383306040518463ffffffff1660e01b815260040161090e93929190614b0c565b60006040518083038186803b15801561092657600080fd5b505af415801561093a573d6000803e3d6000fd5b5050505050505050505050505050505050505050565b600154600161096060005461208b565b5161096b9190614c5c565b8082111561098b5760405162461bcd60e51b815260040161053a906149b4565b610997836000546121f2565b505050565b60606109a8600161208b565b905090565b6109b9336000546119ea565b15156001146109da5760405162461bcd60e51b815260040161053a90614ab5565b60016005546109fb5760405162461bcd60e51b815260040161053a906149d2565b60405163f7cf62d760e01b815273__AddressLibrary________________________9063f7cf62d790610a35903390600890600401614719565b60206040518083038186803b158015610a4d57600080fd5b505af4158015610a61573d6000803e3d6000fd5b505050506040513d601f19601f82011682018060405250810190610a85919061456d565b15610aa25760405162461bcd60e51b815260040161053a90614a0e565b610aac6001612599565b50565b610997838383600054612620565b610aac8160016121f2565b610ad484848484612997565b600183836000818110610ae957610ae9614d21565b905060200201351415610b9857604051631e99d35d60e31b81526004810185905260009073__AddressLibrary________________________9063f4ce9ae89060240160206040518083038186803b158015610b4457600080fd5b505af4158015610b58573d6000803e3d6000fd5b505050506040513d601f19601f82011682018060405250810190610b7c91906141ca565b905060018215151415610b9257610b9281612a57565b50610bde565b600283836000818110610bad57610bad614d21565b905060200201351415610bde57610bde600e84846003818110610bd257610bd2614d21565b90506020020135612a8d565b50505050565b606080610bf383600054612b64565b91509150915091565b610c0881600054612ce3565b151560011415610c4b576001610c1f60005461208b565b51610c2a9190614c5c565b6001541115610c4b5760405162461bcd60e51b815260040161053a906149b4565b610aac81600054612e4f565b60606000610bf3836000546132e0565b610c7384848484612997565b600183836000818110610c8857610c88614d21565b905060200201351415610da957604051631e99d35d60e31b81526004810185905260009073__AddressLibrary________________________9063f4ce9ae89060240160206040518083038186803b158015610ce357600080fd5b505af4158015610cf7573d6000803e3d6000fd5b505050506040513d601f19601f82011682018060405250810190610d1b91906141ca565b905081610d3057610d2b81612a57565b610b92565b6001600160a01b0381166000818152600a60205260409081902054905162fc000560e81b815283929163fc00050091610d70903090600f90600401614799565b6000604051808303818588803b158015610d8957600080fd5b505af1158015610d9d573d6000803e3d6000fd5b50505050505050610bde565b600283836000818110610dbe57610dbe614d21565b905060200201351415610bde57610f1873__AddressLibrary________________________63b1e2771485856001818110610dfb57610dfb614d21565b905060200201356040518263ffffffff1660e01b8152600401610e2091815260200190565b60206040518083038186803b158015610e3857600080fd5b505af4158015610e4c573d6000803e3d6000fd5b505050506040513d601f19601f82011682018060405250810190610e7091906141ca565b8573__AddressLibrary________________________63b1e2771487876002818110610e9e57610e9e614d21565b905060200201356040518263ffffffff1660e01b8152600401610ec391815260200190565b60206040518083038186803b158015610edb57600080fd5b505af4158015610eef573d6000803e3d6000fd5b505050506040513d601f19601f82011682018060405250810190610f1391906141ca565b6134dd565b610bde600e84846003818110610bd257610bd2614d21565b6060600080600060606000610f4487613654565b6001600160a01b0398909816600090815260096020908152604080832054600a9092529091205491999097509095509350505050565b600454610100900460ff1680610f93575060045460ff16155b610faf5760405162461bcd60e51b815260040161053a90614a49565b600454610100900460ff16158015610fd1576004805461ffff19166101011790555b6040805160028082526060820190925290816020015b6060815260200190600190039081610fe7575050805161100f91600c91602090910190613e8d565b506040518060400160405280600581526020016427bbb732b960d91b815250600c60008154811061104257611042614d21565b90600052602060002001908051906020019061105f929190613eea565b5060405180604001604052806004815260200163141bdbdb60e21b815250600c60018154811061109157611091614d21565b9060005260206000200190805190602001906110ae929190613eea565b5061118f84846002600c805480602002602001604051908101604052809291908181526020016000905b828210156111845783829060005260206000200180546110f790614c9f565b80601f016020809104026020016040519081016040528092919081815260200182805461112390614c9f565b80156111705780601f1061114557610100808354040283529160200191611170565b820191906000526020600020905b81548152906001019060200180831161115357829003601f168201915b5050505050815260200190600101906110d8565b505050506000611707565b81516111a290600f906020850190613eea565b508015610bde576004805461ff001916905550505050565b60006111c7848484611fdc565b90505b9392505050565b60606109a860005461208b565b6111eb8585856001612620565b6001600160a01b0385166000908152600b602052604090205460ff16611246576001600160a01b0385166000908152600960209081526040808320859055600a8252808320849055600b9091529020805460ff191660011790555b5050505050565b82611257816119d7565b151560011461126557600080fd5b611271336000546119ea565b15156001146112925760405162461bcd60e51b815260040161053a90614ab5565b60018385846112a2828483611bdb565b15156001146112c35760405162461bcd60e51b815260040161053a90614a2b565b6001600160a01b038089166000908152600d60209081526040808320938a1683529290528190209051633db691ef60e11b815288918a91899173__ItemsLibrary__________________________91637b6d23de916113289133918891600401614778565b60206040518083038186803b15801561134057600080fd5b505af4158015611354573d6000803e3d6000fd5b505050506040513d601f19601f82011682018060405250810190611378919061456d565b156113955760405162461bcd60e51b815260040161053a90614a0e565b6001600160a01b038b166000908152600d60205260408120906113b98d8d8d611c89565b905060006040518060c001604052808e815260200160405180602001604052806000815250815260200160015481526020016040518060400160405280600b81526020016a436572746966696361746560a81b815250815260200183815260200160001515815250905060008360000160008e6001600160a01b03166001600160a01b03168152602001908152602001600020905073__ItemsLibrary__________________________637493a70b8383306040518463ffffffff1660e01b815260040161073a93929190614b0c565b611495336000546119ea565b15156001146114b65760405162461bcd60e51b815260040161053a90614ab5565b60016005546114d75760405162461bcd60e51b815260040161053a906149d2565b60405163f7cf62d760e01b815273__AddressLibrary________________________9063f7cf62d790611511903390600890600401614719565b60206040518083038186803b15801561152957600080fd5b505af415801561153d573d6000803e3d6000fd5b505050506040513d601f19601f82011682018060405250810190611561919061456d565b1561157e5760405162461bcd60e51b815260040161053a90614a0e565b610aac6000612599565b611594336000546119ea565b15156001146115b55760405162461bcd60e51b815260040161053a90614ab5565b6000600554156115f05760405162461bcd60e51b815260040161053a906020808252600490820152630454333360e41b604082015260600190565b8160026000548154811061160657611606614d21565b9060005260206000209060040201600101805490508082111561163b5760405162461bcd60e51b815260040161053a906149b4565b60008481811161165d5760405162461bcd60e51b815260040161053a90614a97565b600586905561166c6001612599565b505050505050565b6060600e805480602002602001604051908101604052809291908181526020016000905b828210156116f2576000848152602090819020604080516060810182526003860290920180546001600160a01b03908116845260018083015490911684860152600290910154918301919091529083529092019101611698565b50505050905090565b610aac81600054613663565b600454610100900460ff1680611720575060045460ff16155b61173c5760405162461bcd60e51b815260040161053a90614a49565b600454610100900460ff1615801561175e576004805461ffff19166101011790555b848651808211156117815760405162461bcd60e51b815260040161053a906149b4565b6000878181116117a35760405162461bcd60e51b815260040161053a90614a97565b865188146117dc5760405162461bcd60e51b815260040161053a9060208082526004908201526308a8662760e31b604082015260600190565b60008681555b8881101561185257600280546001018155600052875160039089908390811061180d5761180d614d21565b6020908102919091018101518254600181018455600093845292829020815161183f9491909101929190910190613eea565b508061184a81614cda565b9150506117e2565b50600189905560005b8a5181101561199557600073__AddressLibrary________________________63bc215e858d848151811061189257611892614d21565b60200260200101516040518263ffffffff1660e01b81526004016118b69190614705565b60206040518083038186803b1580156118ce57600080fd5b505af41580156118e2573d6000803e3d6000fd5b505050506040513d601f19601f82011682018060405250810190611906919061458a565b9050600160026000548154811061191f5761191f614d21565b60009182526020808320858452600492909202909101905260408120805460ff1916921515929092179091555460028054909190811061196157611961614d21565b600091825260208083206001600490930201820180549283018155835290912001558061198d81614cda565b91505061185b565b5050505050801561166c576004805461ff0019169055505050505050565b610aac816001612e4f565b606080610bf3836001612b64565b610aac816001613663565b60006119e48260016119ea565b92915050565b60025460405163123bd07560e11b8152600091839173__Library_______________________________90632477a0ea90611a2b9085908590600401614953565b60206040518083038186803b158015611a4357600080fd5b505af4158015611a57573d6000803e3d6000fd5b505050506040513d601f19601f82011682018060405250810190611a7b919061456d565b1515600114611a9c5760405162461bcd60e51b815260040161053a90614ad2565b60405163bc215e8560e01b815260009073__AddressLibrary________________________9063bc215e8590611ad6908990600401614705565b60206040518083038186803b158015611aee57600080fd5b505af4158015611b02573d6000803e3d6000fd5b505050506040513d601f19601f82011682018060405250810190611b26919061458a565b905073__ItemsLibrary__________________________63dbdfbeec8260028881548110611b5657611b56614d21565b90600052602060002090600402016040518363ffffffff1660e01b8152600401611b81929190614953565b60206040518083038186803b158015611b9957600080fd5b505af4158015611bad573d6000803e3d6000fd5b505050506040513d601f19601f82011682018060405250810190611bd1919061456d565b9695505050505050565b6001600160a01b038084166000908152600d602090815260408083209385168352929052818120915162136bb360e11b8152909173__ItemsLibrary__________________________916226d76691611c3991879190600401614953565b60206040518083038186803b158015611c5157600080fd5b505af4158015611c65573d6000803e3d6000fd5b505050506040513d601f19601f820116820180604052508101906111c7919061456d565b60408051600480825260a08201909252606091600091829160208201608080368337019050509050600281600081518110611cc657611cc6614d21565b602090810291909101015260405163cf0668ed60e01b815273__AddressLibrary________________________9063cf0668ed90611d08908990600401614705565b60206040518083038186803b158015611d2057600080fd5b505af4158015611d34573d6000803e3d6000fd5b505050506040513d601f19601f82011682018060405250810190611d58919061458a565b81600181518110611d6b57611d6b614d21565b602090810291909101015260405163cf0668ed60e01b815273__AddressLibrary________________________9063cf0668ed90611dad908790600401614705565b60206040518083038186803b158015611dc557600080fd5b505af4158015611dd9573d6000803e3d6000fd5b505050506040513d601f19601f82011682018060405250810190611dfd919061458a565b81600281518110611e1057611e10614d21565b60200260200101818152505060006040518060600160405280886001600160a01b03168152602001866001600160a01b03168152602001878152509050611e58878787611bdb565b611f2757600e8054600181810183556000839052835160039092027fbb7b4a454dc3493923482f07822329ed19e8244eff582cc204f8554c3620c3fd810180546001600160a01b039485166001600160a01b03199182161790915560208601517fbb7b4a454dc3493923482f07822329ed19e8244eff582cc204f8554c3620c3fe830180549190951691161790925560408401517fbb7b4a454dc3493923482f07822329ed19e8244eff582cc204f8554c3620c3ff909201919091559054611f209190614c5c565b9250611fb3565b611fb081600e805480602002602001604051908101604052809291908181526020016000905b82821015611fa7576000848152602090819020604080516060810182526003860290920180546001600160a01b03908116845260018083015490911684860152600290910154918301919091529083529092019101611f4d565b50505050613af4565b92505b8282600381518110611fc757611fc7614d21565b60209081029190910101525095945050505050565b60405163685256ff60e11b8152600090849082906001600160a01b0383169063d0a4adfe90612011908890889060040161493c565b60206040518083038186803b15801561202957600080fd5b505afa15801561203d573d6000803e3d6000fd5b505050506040513d601f19601f8201168201806040525081019061206191906141ca565b90506001600160a01b03811630141561207f576001925050506111ca565b50600095945050505050565b60025460405163123bd07560e11b8152606091839173__Library_______________________________90632477a0ea906120cc9085908590600401614953565b60206040518083038186803b1580156120e457600080fd5b505af41580156120f8573d6000803e3d6000fd5b505050506040513d601f19601f8201168201806040525081019061211c919061456d565b151560011461213d5760405162461bcd60e51b815260040161053a90614ad2565b73__ItemsLibrary__________________________6327724f4b6002868154811061216a5761216a614d21565b90600052602060002090600402016040518263ffffffff1660e01b815260040161219691815260200190565b60006040518083038186803b1580156121ae57600080fd5b505af41580156121c2573d6000803e3d6000fd5b505050506040513d6000823e601f3d908101601f191682016040526121ea9190810190614442565b949350505050565b60025460405163123bd07560e11b815282919073__Library_______________________________90632477a0ea906122319085908590600401614953565b60206040518083038186803b15801561224957600080fd5b505af415801561225d573d6000803e3d6000fd5b505050506040513d601f19601f82011682018060405250810190612281919061456d565b15156001146122a25760405162461bcd60e51b815260040161053a90614ad2565b6122ae336000546119ea565b15156001146122cf5760405162461bcd60e51b815260040161053a90614ab5565b600184846122dd82826119ea565b15156001146123145760405162461bcd60e51b815260206004820152600360248201526245433760e81b604482015260640161053a565b600087876123228282612ce3565b1561233f5760405162461bcd60e51b815260040161053a906149f0565b60405163bc215e8560e01b815260009073__AddressLibrary________________________9063bc215e8590612379908e90600401614705565b60206040518083038186803b15801561239157600080fd5b505af41580156123a5573d6000803e3d6000fd5b505050506040513d601f19601f820116820180604052508101906123c9919061458a565b60408051600180825281830190925291925060009190602080830190803683370190505090508a8160008151811061240357612403614d21565b60200260200101818152505060006040518060c00160405280848152602001604051806020016040528060008152508152602001600154815260200160038e8154811061245257612452614d21565b90600052602060002001805461246790614c9f565b80601f016020809104026020016040519081016040528092919081815260200182805461249390614c9f565b80156124e05780601f106124b5576101008083540402835291602001916124e0565b820191906000526020600020905b8154815290600101906020018083116124c357829003601f168201915b50505050508152602001838152602001600115158152509050600060028d8154811061250e5761250e614d21565b9060005260206000209060040201905073__ItemsLibrary__________________________63e23fcdef8383306040518463ffffffff1660e01b815260040161255993929190614b0c565b60006040518083038186803b15801561257157600080fd5b505af4158015612585573d6000803e3d6000fd5b505050505050505050505050505050505050565b80156125bd576001600660008282546125b29190614c44565b909155506125d69050565b6001600760008282546125d09190614c44565b90915550505b600880546001810182556000919091527ff3f7a9fe364faab93b216da50a3214154f22a0a2b415b23a84c8169e8b636ee30180546001600160a01b03191633179055610aac613bcd565b60025460405163123bd07560e11b815282919073__Library_______________________________90632477a0ea9061265f9085908590600401614953565b60206040518083038186803b15801561267757600080fd5b505af415801561268b573d6000803e3d6000fd5b505050506040513d601f19601f820116820180604052508101906126af919061456d565b15156001146126d05760405162461bcd60e51b815260040161053a90614ad2565b6126dc336000546119ea565b15156001146126fd5760405162461bcd60e51b815260040161053a90614ab5565b6000868461270b82826119ea565b156127285760405162461bcd60e51b815260040161053a90614aef565b600089876127368282613d05565b156127535760405162461bcd60e51b815260040161053a906149f0565b600073__AddressLibrary________________________63bc215e858e6040518263ffffffff1660e01b815260040161278c9190614705565b60206040518083038186803b1580156127a457600080fd5b505af41580156127b8573d6000803e3d6000fd5b505050506040513d601f19601f820116820180604052508101906127dc919061458a565b60408051600180825281830190925291925060009190602080830190803683370190505090508a8160008151811061281657612816614d21565b60200260200101818152505060006040518060c001604052808481526020018f8f8080601f0160208091040260200160405190810160405280939291908181526020018383808284376000920191909152505050908252506001546020820152600380546040909201918f90811061289057612890614d21565b9060005260206000200180546128a590614c9f565b80601f01602080910402602001604051908101604052809291908181526020018280546128d190614c9f565b801561291e5780601f106128f35761010080835404028352916020019161291e565b820191906000526020600020905b81548152906001019060200180831161290157829003601f168201915b50505050508152602001838152602001600115158152509050600060028d8154811061294c5761294c614d21565b9060005260206000209060040201905073__ItemsLibrary__________________________630b985aaa8383306040518463ffffffff1660e01b815260040161090e93929190614b0c565b604051630d1d719d60e41b8152309073__Library_______________________________9063d1d719d0906129d0908490600401614705565b60206040518083038186803b1580156129e857600080fd5b505af41580156129fc573d6000803e3d6000fd5b505050506040513d601f19601f82011682018060405250810190612a20919061456d565b15156001146112465760405162461bcd60e51b815260206004820152600360248201526208a86760eb1b604482015260640161053a565b6001600160a01b03166000908152600b60209081526040808320805460ff1916905560098252808320839055600a909152812055565b81548290612a9d90600190614c5c565b81548110612aad57612aad614d21565b9060005260206000209060030201828281548110612acd57612acd614d21565b60009182526020909120825460039092020180546001600160a01b039283166001600160a01b03199182161782556001808501549083018054919094169116179091556002918201549101558154829080612b2a57612b2a614d0b565b60008281526020812060036000199093019283020180546001600160a01b0319908116825560018201805490911690556002015590555050565b60025460405163123bd07560e11b8152606091829184919073__Library_______________________________90632477a0ea90612ba89085908590600401614953565b60206040518083038186803b158015612bc057600080fd5b505af4158015612bd4573d6000803e3d6000fd5b505050506040513d601f19601f82011682018060405250810190612bf8919061456d565b1515600114612c195760405162461bcd60e51b815260040161053a90614ad2565b60608073__ItemsLibrary__________________________63e035e0068960028a81548110612c4a57612c4a614d21565b90600052602060002090600402016040518363ffffffff1660e01b8152600401612c809291909115158252602082015260400190565b60006040518083038186803b158015612c9857600080fd5b505af4158015612cac573d6000803e3d6000fd5b505050506040513d6000823e601f3d908101601f19168201604052612cd49190810190614476565b90999098509650505050505050565b60025460405163123bd07560e11b8152600091839173__Library_______________________________90632477a0ea90612d249085908590600401614953565b60206040518083038186803b158015612d3c57600080fd5b505af4158015612d50573d6000803e3d6000fd5b505050506040513d601f19601f82011682018060405250810190612d74919061456d565b1515600114612d955760405162461bcd60e51b815260040161053a90614ad2565b60405163bc215e8560e01b815260009073__AddressLibrary________________________9063bc215e8590612dcf908990600401614705565b60206040518083038186803b158015612de757600080fd5b505af4158015612dfb573d6000803e3d6000fd5b505050506040513d601f19601f82011682018060405250810190612e1f919061458a565b905073__ItemsLibrary__________________________632854ed2e8260028881548110611b5657611b56614d21565b60025460405163123bd07560e11b815282919073__Library_______________________________90632477a0ea90612e8e9085908590600401614953565b60206040518083038186803b158015612ea657600080fd5b505af4158015612eba573d6000803e3d6000fd5b505050506040513d601f19601f82011682018060405250810190612ede919061456d565b1515600114612eff5760405162461bcd60e51b815260040161053a90614ad2565b612f0b336000546119ea565b1515600114612f2c5760405162461bcd60e51b815260040161053a90614ab5565b60018484612f3a8282613d05565b151560011480612f555750612f4f8282612ce3565b15156001145b612f715760405162461bcd60e51b815260040161053a90614a2b565b8686600073__AddressLibrary________________________63bc215e85846040518263ffffffff1660e01b8152600401612fac9190614705565b60206040518083038186803b158015612fc457600080fd5b505af4158015612fd8573d6000803e3d6000fd5b505050506040513d601f19601f82011682018060405250810190612ffc919061458a565b905073__ItemsLibrary__________________________637b6d23de33836002868154811061302d5761302d614d21565b90600052602060002090600402016040518463ffffffff1660e01b815260040161305993929190614778565b60206040518083038186803b15801561307157600080fd5b505af4158015613085573d6000803e3d6000fd5b505050506040513d601f19601f820116820180604052508101906130a9919061456d565b156130c65760405162461bcd60e51b815260040161053a90614a0e565b60405163bc215e8560e01b815260009073__AddressLibrary________________________9063bc215e8590613100908e90600401614705565b60206040518083038186803b15801561311857600080fd5b505af415801561312c573d6000803e3d6000fd5b505050506040513d601f19601f82011682018060405250810190613150919061458a565b60408051600180825281830190925291925060009190602080830190803683370190505090508a8160008151811061318a5761318a614d21565b60200260200101818152505060006040518060c00160405280848152602001604051806020016040528060008152508152602001600154815260200160038e815481106131d9576131d9614d21565b9060005260206000200180546131ee90614c9f565b80601f016020809104026020016040519081016040528092919081815260200182805461321a90614c9f565b80156132675780601f1061323c57610100808354040283529160200191613267565b820191906000526020600020905b81548152906001019060200180831161324a57829003601f168201915b50505050508152602001838152602001600115158152509050600060028d8154811061329557613295614d21565b9060005260206000209060040201905073__ItemsLibrary__________________________637493a70b8383306040518463ffffffff1660e01b815260040161255993929190614b0c565b60025460405163123bd07560e11b815260609160009184919073__Library_______________________________90632477a0ea906133259085908590600401614953565b60206040518083038186803b15801561333d57600080fd5b505af4158015613351573d6000803e3d6000fd5b505050506040513d601f19601f82011682018060405250810190613375919061456d565b15156001146133965760405162461bcd60e51b815260040161053a90614ad2565b60405163bc215e8560e01b815260009073__AddressLibrary________________________9063bc215e85906133d0908a90600401614705565b60206040518083038186803b1580156133e857600080fd5b505af41580156133fc573d6000803e3d6000fd5b505050506040513d601f19601f82011682018060405250810190613420919061458a565b905073__ItemsLibrary__________________________631aeccc6a826002898154811061345057613450614d21565b90600052602060002090600402016040518363ffffffff1660e01b815260040161347b929190614953565b60006040518083038186803b15801561349357600080fd5b505af41580156134a7573d6000803e3d6000fd5b505050506040513d6000823e601f3d908101601f191682016040526134cf9190810190614634565b945094505050509250929050565b826134e7816119d7565b15156001146134f557600080fd5b6001600160a01b0384166000818152600960205260409081902054905163035700ff60e31b8152869291631ab807f891613535908890889060040161493c565b6000604051808303818588803b15801561354e57600080fd5b505af1158015613562573d6000803e3d6000fd5b5050506001600160a01b038088166000908152600d602090815260408083209389168352929052819020905163207c442760e01b815290925073__ItemsLibrary__________________________915063207c4427906135c89088908590600401614953565b60006040518083038186803b1580156135e057600080fd5b505af41580156135f4573d6000803e3d6000fd5b5050506000868152602083905260408120805460ff19168155915061361c6001830182613f6a565b6002820160009055600382016000905560048201600061363c9190613fa4565b61364a600583016000613fa4565b5050505050505050565b60606000610bf38360016132e0565b60025460405163123bd07560e11b815282919073__Library_______________________________90632477a0ea906136a29085908590600401614953565b60206040518083038186803b1580156136ba57600080fd5b505af41580156136ce573d6000803e3d6000fd5b505050506040513d601f19601f820116820180604052508101906136f2919061456d565b15156001146137135760405162461bcd60e51b815260040161053a90614ad2565b61371f336000546119ea565b15156001146137405760405162461bcd60e51b815260040161053a90614ab5565b6001848461374e8282613d05565b15156001148061376957506137638282612ce3565b15156001145b6137855760405162461bcd60e51b815260040161053a90614a2b565b8686600073__AddressLibrary________________________63bc215e85846040518263ffffffff1660e01b81526004016137c09190614705565b60206040518083038186803b1580156137d857600080fd5b505af41580156137ec573d6000803e3d6000fd5b505050506040513d601f19601f82011682018060405250810190613810919061458a565b905073__ItemsLibrary__________________________637b6d23de33836002868154811061384157613841614d21565b90600052602060002090600402016040518463ffffffff1660e01b815260040161386d93929190614778565b60206040518083038186803b15801561388557600080fd5b505af4158015613899573d6000803e3d6000fd5b505050506040513d601f19601f820116820180604052508101906138bd919061456d565b156138da5760405162461bcd60e51b815260040161053a90614a0e565b60405163bc215e8560e01b815260009073__AddressLibrary________________________9063bc215e8590613914908e90600401614705565b60206040518083038186803b15801561392c57600080fd5b505af4158015613940573d6000803e3d6000fd5b505050506040513d601f19601f82011682018060405250810190613964919061458a565b60408051600180825281830190925291925060009190602080830190803683370190505090508a8160008151811061399e5761399e614d21565b60200260200101818152505060006040518060c00160405280848152602001604051806020016040528060008152508152602001600154815260200160038e815481106139ed576139ed614d21565b906000526020600020018054613a0290614c9f565b80601f0160208091040260200160405190810160405280929190818152602001828054613a2e90614c9f565b8015613a7b5780601f10613a5057610100808354040283529160200191613a7b565b820191906000526020600020905b815481529060010190602001808311613a5e57829003601f168201915b50505050508152602001838152602001600115158152509050600060028d81548110613aa957613aa9614d21565b9060005260206000209060040201905073__ItemsLibrary__________________________635cb09bcf8383306040518463ffffffff1660e01b815260040161255993929190614b0c565b6000805b8251811015613bbf57828181518110613b1357613b13614d21565b6020026020010151600001516001600160a01b031684600001516001600160a01b0316148015613b755750828181518110613b5057613b50614d21565b6020026020010151602001516001600160a01b031684602001516001600160a01b0316145b8015613ba15750828181518110613b8e57613b8e614d21565b6020026020010151604001518460400151145b15613bad5790506119e4565b80613bb781614cda565b915050613af8565b5081516111ca906001614c44565b60065460015460405163f6001d7d60e01b815273__ItemsLibrary__________________________9263f6001d7d92613c0892600401614953565b60206040518083038186803b158015613c2057600080fd5b505af4158015613c34573d6000803e3d6000fd5b505050506040513d601f19601f82011682018060405250810190613c58919061456d565b15613c6d57600554600155613c6b613e70565b565b60075460015460405163f6001d7d60e01b815273__ItemsLibrary__________________________9263f6001d7d92613ca892600401614953565b60206040518083038186803b158015613cc057600080fd5b505af4158015613cd4573d6000803e3d6000fd5b505050506040513d601f19601f82011682018060405250810190613cf8919061456d565b15613c6b57613c6b613e70565b60025460405163123bd07560e11b8152600091839173__Library_______________________________90632477a0ea90613d469085908590600401614953565b60206040518083038186803b158015613d5e57600080fd5b505af4158015613d72573d6000803e3d6000fd5b505050506040513d601f19601f82011682018060405250810190613d96919061456d565b1515600114613db75760405162461bcd60e51b815260040161053a90614ad2565b60405163bc215e8560e01b815260009073__AddressLibrary________________________9063bc215e8590613df1908990600401614705565b60206040518083038186803b158015613e0957600080fd5b505af4158015613e1d573d6000803e3d6000fd5b505050506040513d601f19601f82011682018060405250810190613e41919061458a565b905073__ItemsLibrary__________________________6226d7668260028881548110611b5657611b56614d21565b6000600581905560068190556007819055613c6b90600890613fa4565b828054828255906000526020600020908101928215613eda579160200282015b82811115613eda5782518051613eca918491602090910190613eea565b5091602001919060010190613ead565b50613ee6929150613fc2565b5090565b828054613ef690614c9f565b90600052602060002090601f016020900481019282613f185760008555613f5e565b82601f10613f3157805160ff1916838001178555613f5e565b82800160010185558215613f5e579182015b82811115613f5e578251825591602001919060010190613f43565b50613ee6929150613fdf565b508054613f7690614c9f565b6000825580601f10613f86575050565b601f016020900490600052602060002090810190610aac9190613fdf565b5080546000825590600052602060002090810190610aac9190613fdf565b80821115613ee6576000613fd68282613f6a565b50600101613fc2565b5b80821115613ee65760008155600101613fe0565b600082601f83011261400557600080fd5b8135602061401a61401583614bfa565b614bca565b80838252828201915082860187848660051b890101111561403a57600080fd5b60005b8581101561406257813561405081614d4d565b8452928401929084019060010161403d565b5090979650505050505050565b600082601f83011261408057600080fd5b8151602061409061401583614bfa565b80838252828201915082860187848660051b89010111156140b057600080fd5b60005b85811015614062578151845292840192908401906001016140b3565b60008083601f8401126140e157600080fd5b5081356001600160401b038111156140f857600080fd5b60208301915083602082850101111561411057600080fd5b9250929050565b600082601f83011261412857600080fd5b813561413661401582614c1d565b81815284602083860101111561414b57600080fd5b816020850160208301376000918101602001919091529392505050565b600082601f83011261417957600080fd5b815161418761401582614c1d565b81815284602083860101111561419c57600080fd5b6121ea826020830160208701614c73565b6000602082840312156141bf57600080fd5b81356111ca81614d4d565b6000602082840312156141dc57600080fd5b81516111ca81614d4d565b6000806000606084860312156141fc57600080fd5b833561420781614d4d565b925060208401359150604084013561421e81614d4d565b809150509250925092565b60008060006040848603121561423e57600080fd5b833561424981614d4d565b925060208401356001600160401b0381111561426457600080fd5b614270868287016140cf565b9497909650939450505050565b60008060008060006080868803121561429557600080fd5b85356142a081614d4d565b945060208601356001600160401b038111156142bb57600080fd5b6142c7888289016140cf565b9699909850959660408101359660609091013595509350505050565b6000806000606084860312156142f857600080fd5b83356001600160401b038082111561430f57600080fd5b61431b87838801613ff4565b945060208601359350604086013591508082111561433857600080fd5b5061434586828701614117565b9150509250925092565b600080600080600060a0868803121561436757600080fd5b6001600160401b03863581101561437d57600080fd5b61438a8888358901613ff4565b95506020808801359550604088013594506060880135828111156143ad57600080fd5b8801601f81018a136143be57600080fd5b80356143cc61401582614bfa565b8082825284820191508484018d868560051b87010111156143ec57600080fd5b60005b8481101561442657878235111561440557600080fd5b6144148f888435890101614117565b845292860192908601906001016143ef565b5050809750505050505050608086013590509295509295909350565b60006020828403121561445457600080fd5b81516001600160401b0381111561446a57600080fd5b6121ea8482850161406f565b6000806040838503121561448957600080fd5b82516001600160401b03808211156144a057600080fd5b6144ac8683870161406f565b93506020915081850151818111156144c357600080fd5b8501601f810187136144d457600080fd5b80516144e261401582614bfa565b8082825285820191508584018a878560051b870101111561450257600080fd5b6000805b8581101561453d5782518881111561451c578283fd5b61452a8e8b838b0101614168565b8652509388019391880191600101614506565b5050508096505050505050509250929050565b60006020828403121561456257600080fd5b81356111ca81614d62565b60006020828403121561457f57600080fd5b81516111ca81614d62565b60006020828403121561459c57600080fd5b5051919050565b600080600080606085870312156145b957600080fd5b8435935060208501356001600160401b03808211156145d757600080fd5b818701915087601f8301126145eb57600080fd5b8135818111156145fa57600080fd5b8860208260051b850101111561460f57600080fd5b602083019550809450505050604085013561462981614d62565b939692955090935050565b6000806040838503121561464757600080fd5b82516001600160401b0381111561465d57600080fd5b61466985828601614168565b925050602083015161467a81614d62565b809150509250929050565b60006020828403121561469757600080fd5b5035919050565b600081518084526020808501945080840160005b838110156146ce578151875295820195908201906001016146b2565b509495945050505050565b600081518084526146f1816020860160208601614c73565b601f01601f19169290920160200192915050565b6001600160a01b0391909116815260200190565b60006040820160018060a01b03808616845260206040818601528286548085526060870191508760005282600020945060005b8181101561476a57855485168352600195860195928401920161474c565b509098975050505050505050565b6001600160a01b039390931683526020830191909152604082015260600190565b60018060a01b0383168152600060206040818401526000845481600182811c9150808316806147c957607f831692505b8583108114156147e757634e487b7160e01b85526022600452602485fd5b6040880183905260608801818015614806576001811461481757614842565b60ff19861682528782019650614842565b60008b81526020902060005b8681101561483c57815484820152908501908901614823565b83019750505b50949a9950505050505050505050565b6020815260006111ca602083018461469e565b604081526000614878604083018561469e565b6020838203818501528185518084528284019150828160051b85010183880160005b838110156148c857601f198784030185526148b68383516146d9565b9486019492509085019060010161489a565b50909998505050505050505050565b602080825282518282018190526000919060409081850190868401855b8281101561492f57815180516001600160a01b03908116865287820151168786015285015185850152606090930192908501906001016148f4565b5091979650505050505050565b9182526001600160a01b0316602082015260400190565b918252602082015260400190565b60408152600061497460408301856146d9565b905082151560208301529392505050565b60808152600061499860808301876146d9565b9415156020830152506040810192909252606090910152919050565b6020808252600490820152634543313960e01b604082015260600190565b6020808252600490820152634543333160e01b604082015260600190565b6020808252600490820152634543323760e01b604082015260600190565b60208082526003908201526245433560e81b604082015260600190565b60208082526004908201526308a8664760e31b604082015260600190565b6020808252602e908201527f496e697469616c697a61626c653a20636f6e747261637420697320616c72656160408201526d191e481a5b9a5d1a585b1a5e995960921b606082015260800190565b6020808252600490820152634543313760e01b604082015260600190565b60208082526003908201526245433960e81b604082015260600190565b60208082526003908201526245433160e81b604082015260600190565b60208082526003908201526222a19b60e91b604082015260600190565b6060815283516060820152600060208086015160c06080850152614b346101208501826146d9565b9050604087015160a08501526060870151605f19808684030160c0870152614b5c83836146d9565b60808a015187820390920160e088015281518082529185019350600092508401905b80831015614b9e5783518252928401926001929092019190840190614b7e565b5060a0890151151561010087015292850187905250506001600160a01b038416604084015290506121ea565b604051601f8201601f191681016001600160401b0381118282101715614bf257614bf2614d37565b604052919050565b60006001600160401b03821115614c1357614c13614d37565b5060051b60200190565b60006001600160401b03821115614c3657614c36614d37565b50601f01601f191660200190565b60008219821115614c5757614c57614cf5565b500190565b600082821015614c6e57614c6e614cf5565b500390565b60005b83811015614c8e578181015183820152602001614c76565b83811115610bde5750506000910152565b600181811c90821680614cb357607f821691505b60208210811415614cd457634e487b7160e01b600052602260045260246000fd5b50919050565b6000600019821415614cee57614cee614cf5565b5060010190565b634e487b7160e01b600052601160045260246000fd5b634e487b7160e01b600052603160045260246000fd5b634e487b7160e01b600052603260045260246000fd5b634e487b7160e01b600052604160045260246000fd5b6001600160a01b0381168114610aac57600080fd5b8015158114610aac57600080fdfea264697066735822122080b7c2e19ef658e06eba518a35590ee520c7e598a18b2214daccb6d2439b1a2064736f6c63430008070033",
  "immutableReferences": {},
  "source": "// SPDX-License-Identifier: GPL-3.0\r\n\r\npragma solidity >=0.7.0 <0.9.0;\r\n\r\n/**\r\n * @title Storage\r\n * @dev Store & retrieve value in a variable\r\n */\r\n import \"../Libraries/Library.sol\";\r\n import \"../Interfaces/IProvider.sol\";\r\n import \"../Interfaces/IPool.sol\";\r\n import \"../Abstract/MultiSigContract.sol\";\r\n import \"../Libraries/ItemsLibrary.sol\";\r\n import \"../Libraries/AddressLibrary.sol\";\r\n import \"@openzeppelin/contracts-upgradeable/proxy/utils/Initializable.sol\";\r\n\r\n contract Provider is IProvider, Initializable, MultiSigContract {\r\n    using Library for *;\r\n    using AddressLibrary for *;\r\n    using ItemsLibrary for *;\r\n\r\n    // DATA /////////////////////////////////////////\r\n    uint256 constant _TotalEntities = 2;\r\n\r\n    // Owners\r\n    uint256 constant _ownerIdProviders = 0;\r\n    string constant _ownerLabel = \"Owner\";\r\n\r\n    // Pools\r\n    uint256 constant _poolId = 1;\r\n    string constant _poolLabel = \"Pool\";\r\n\r\n    mapping(address => uint256) private _AddCertificatePricePerPool;\r\n    mapping(address => uint256) private _SubscriptionPricePerPool;\r\n    mapping(address => bool) private _submited;\r\n\r\n\r\n    // Certificates\r\n    uint256 constant _certId = 2;\r\n    string constant _certLabel = \"Certificate\";\r\n\r\n    string[] private _Label;\r\n    \r\n    struct _CertificatesPerHolderStruct{\r\n        mapping(address => ItemsLibrary._ItemsStruct) _CertificatesPerHolder;\r\n    }\r\n   \r\n    mapping(address => _CertificatesPerHolderStruct) private _CertificatesPerPool;\r\n    \r\n    Library._pendingCertificatesStruct[] private _pendingCertificates;\r\n\r\n    // Provider\r\n    string private _ProviderInfo;\r\n\r\n    // MODIFIERS /////////////////////////////////////////\r\n    modifier isAPool(address pool){\r\n        require(true == isPool(pool));\r\n        _;\r\n    }\r\n\r\n    modifier isCertificateActivated(bool YesOrNo, bytes32 cert, address pool, address holder){\r\n        if(false == YesOrNo) require(false == internalisCertificate(pool, cert, holder), \"EC6\");\r\n        else require(true == internalisCertificate(pool, cert, holder), \"EC7\");\r\n        _;\r\n    }\r\n\r\n    modifier isCertificatePendingToAdd(bool YesOrNo, bytes32 cert, address pool, address holder){\r\n        if(false == YesOrNo) require(false == isCertificatePendingToAdded(pool, cert, holder), \"EC27\");\r\n        else require(true == isCertificatePendingToAdded(pool, cert, holder), \"EC28\");\r\n        _;\r\n    }\r\n\r\n    modifier HasNotAlreadyVotedForCertificate(bytes32 cert, address pool, address holder){\r\n        require(false == ItemsLibrary.hasVoted(msg.sender, cert, _CertificatesPerPool[pool]._CertificatesPerHolder[holder]), \"EC5\");\r\n        _;\r\n    }\r\n\r\n     // CONSTRUCTOR /////////////////////////////////////////\r\n    function Provider_init(address[] memory owners,  uint256 minOwners, string memory ProviderInfo) public initializer \r\n    {\r\n        _Label = new string[](2);\r\n        _Label[0] = _ownerLabel;\r\n        _Label[1] = _poolLabel;\r\n\r\n        super.MultiSigContract_init(owners, minOwners, _TotalEntities, _Label, _ownerIdProviders); \r\n        _ProviderInfo = ProviderInfo;\r\n    }\r\n\r\n    // FUNCTIONALITY /////////////////////////////////////////\r\n    function addPool(address pool, string calldata poolInfo, uint256 AddCertificatePrice, uint256 SubscriptionPrice) external override{\r\n        addEntity(pool, poolInfo, _poolId);\r\n        if(false == _submited[pool]){\r\n            _AddCertificatePricePerPool[pool] = AddCertificatePrice;\r\n            _SubscriptionPricePerPool[pool] = SubscriptionPrice;\r\n            _submited[pool] = true;\r\n        }\r\n    }\r\n\r\n    function removePool(address pool) external override\r\n    {\r\n       removeEntity(pool, _poolId); \r\n    }\r\n\r\n    function validatePool(address pool) external override\r\n    {\r\n        validateEntity(pool, _poolId);\r\n    }\r\n\r\n    function rejectPool(address pool) external override\r\n    {\r\n        rejectEntity(pool, _poolId);\r\n    }\r\n\r\n    function removePricesForPool(address pool) internal\r\n    {\r\n        delete(_submited[pool]);\r\n        delete(_AddCertificatePricePerPool[pool]);\r\n        delete(_SubscriptionPricePerPool[pool]);\r\n    }\r\n    \r\n    function retrievePool(address pool) external override view returns (string memory, bool, uint256, uint256)\r\n    {\r\n        string memory poolInfo;\r\n        bool isActivated;\r\n\r\n        (poolInfo, isActivated) = InternalRetrievePool(pool);\r\n        return (poolInfo, isActivated, _AddCertificatePricePerPool[pool], _SubscriptionPricePerPool[pool]);\r\n    }\r\n    \r\n    function InternalRetrievePool(address pool) internal view returns (string memory, bool)\r\n    {\r\n        return retrieveEntity(pool, _poolId);\r\n    }\r\n\r\n    function retrieveAllPools() external override view returns (bytes32[] memory)\r\n    {\r\n        return retrieveAllEntities(_poolId);\r\n    }\r\n\r\n    function retrievePendingPools(bool addedORremove) external override view returns (bytes32[] memory, string[] memory)\r\n    {\r\n        return(retrievePendingEntities(addedORremove, _poolId));\r\n    }\r\n\r\n    function isPool(address pool) internal view returns (bool)\r\n    {\r\n        return(isEntity(pool, _poolId));\r\n    }\r\n    // Certificates management\r\n    function extractCertIds(address pool, bytes32 CertificateHash, address holder) internal returns(uint[] memory)\r\n    {\r\n        uint otherId;\r\n        uint[] memory certIdIdArray = new uint[](4);\r\n        certIdIdArray[0] = _certId;\r\n        certIdIdArray[1] = AddressLibrary.AddressToUint(pool);\r\n        certIdIdArray[2] = AddressLibrary.AddressToUint(holder);\r\n\r\n        Library._pendingCertificatesStruct memory pCS = Library._pendingCertificatesStruct(pool, holder, CertificateHash);\r\n\r\n        if(!isCertificatePendingToAdded(pool, CertificateHash, holder)){\r\n            _pendingCertificates.push(pCS);\r\n            otherId = _pendingCertificates.length - 1;\r\n        }\r\n        else{\r\n            otherId = PositionInArray(pCS, _pendingCertificates);\r\n        }\r\n\r\n        certIdIdArray[3] = otherId;\r\n\r\n        return(certIdIdArray);\r\n    }\r\n\r\n     function addCertificate(address pool, bytes32 CertificateHash, address holder) external override\r\n        isAPool(pool)\r\n        isAnOwner\r\n        isCertificateActivated(false, CertificateHash, pool, holder) \r\n        isCertificatePendingToAdd(false, CertificateHash, pool, holder)\r\n     {\r\n       \r\n        _CertificatesPerHolderStruct storage hs = _CertificatesPerPool[pool];\r\n        uint[] memory certIdIdArray = extractCertIds(pool, CertificateHash, holder);\r\n        ItemsLibrary._manipulateItemStruct memory manipulateItemStruct = ItemsLibrary._manipulateItemStruct(CertificateHash, \"\", _minOwners, _certLabel, certIdIdArray, false);\r\n        ItemsLibrary._ItemsStruct storage itemsstruct =  hs._CertificatesPerHolder[holder];\r\n        ItemsLibrary.addItem(manipulateItemStruct,itemsstruct, address(this));\r\n     }\r\n\r\n     function validateCertificate(address pool, bytes32 CertificateHash, address holder) external override\r\n        isAPool(pool)\r\n        isAnOwner\r\n        isCertificatePendingToAdd(true, CertificateHash, pool, holder)\r\n        HasNotAlreadyVotedForCertificate(CertificateHash, pool, holder)\r\n     {\r\n        _CertificatesPerHolderStruct storage hs = _CertificatesPerPool[pool];\r\n        uint[] memory certIdIdArray = extractCertIds(pool, CertificateHash, holder);\r\n        ItemsLibrary._manipulateItemStruct memory manipulateItemStruct = ItemsLibrary._manipulateItemStruct(CertificateHash, \"\", _minOwners, _certLabel, certIdIdArray, false);\r\n        ItemsLibrary._ItemsStruct storage itemsstruct =  hs._CertificatesPerHolder[holder];\r\n        ItemsLibrary.validateItem(manipulateItemStruct, itemsstruct, address(this));\r\n     }\r\n\r\n     function rejectCertificate(address pool, bytes32 CertificateHash, address holder) external override\r\n        isAPool(pool)\r\n        isAnOwner\r\n        isCertificatePendingToAdd(true, CertificateHash, pool, holder)\r\n        HasNotAlreadyVotedForCertificate(CertificateHash, pool, holder)\r\n     {\r\n        _CertificatesPerHolderStruct storage hs = _CertificatesPerPool[pool];\r\n        uint[] memory certIdIdArray = extractCertIds(pool, CertificateHash, holder);\r\n        ItemsLibrary._manipulateItemStruct memory manipulateItemStruct = ItemsLibrary._manipulateItemStruct(CertificateHash, \"\", _minOwners, _certLabel, certIdIdArray, false);\r\n        ItemsLibrary._ItemsStruct storage itemsstruct =  hs._CertificatesPerHolder[holder];\r\n        ItemsLibrary.rejectItem(manipulateItemStruct, itemsstruct, address(this));\r\n     }\r\n \r\n    function manipulateCertificate(address pool, bytes32 CertificateHash, address holder) internal\r\n        isAPool(pool)\r\n    {\r\n        IPool poolToSend = IPool(pool);\r\n\r\n        poolToSend.addCertificate{value:_AddCertificatePricePerPool[pool]}(CertificateHash, holder);\r\n\r\n        ItemsLibrary._ItemsStruct storage itemStruct = _CertificatesPerPool[pool]._CertificatesPerHolder[holder];\r\n\r\n        ItemsLibrary.RemoveResizeActivated(CertificateHash, itemStruct);\r\n        delete(itemStruct._items[CertificateHash]);   \r\n    }\r\n\r\n    function retrievePendingCertificates() external override view returns (Library._pendingCertificatesStruct[] memory)\r\n    {\r\n        return(_pendingCertificates);\r\n    }\r\n\r\n    function isCertificate(address pool, bytes32 CertificateHash, address holder) external override view returns(bool)\r\n    {\r\n        return internalisCertificate(pool, CertificateHash, holder);\r\n    }\r\n\r\n    function internalisCertificate(address pool, bytes32 CertificateHash, address holder) internal view returns(bool)\r\n    {\r\n        IPool poolToCheck = IPool(pool);\r\n        address provider = poolToCheck.retrieveCertificateProvider(CertificateHash, holder);\r\n        if(provider == address(this)) return true;\r\n        return false;\r\n    }\r\n\r\n    function isCertificatePendingToAdded(address pool, bytes32 CertificateHash, address holder) internal view returns(bool)\r\n    {\r\n        return ItemsLibrary.isItemPendingToAdded(CertificateHash, _CertificatesPerPool[pool]._CertificatesPerHolder[holder]);\r\n    }\r\n\r\n    function RemoveResizeCertificatesStructArray(Library._pendingCertificatesStruct[] storage array, uint index) internal\r\n    {\r\n        array[index] = array[array.length - 1];\r\n        array.pop();\r\n    }\r\n\r\n    function PositionInArray(Library._pendingCertificatesStruct memory value, Library._pendingCertificatesStruct[] memory array) internal pure returns(uint)\r\n    {\r\n         for(uint i=0; i < array.length; i++){\r\n            if(value.pool == array[i].pool && \r\n                value.holder == array[i].holder && \r\n                value.certificate == array[i].certificate) return i;\r\n        }\r\n\r\n        return array.length + 1;\r\n    }\r\n\r\n    receive() external override payable{}\r\n\r\n    // CALLBACKS /////////////////////////////////////////\r\n    function onItemValidated(bytes32 item, uint256[] calldata ids, bool addOrRemove) public override  \r\n    {\r\n        super.onItemValidated(item, ids, addOrRemove);\r\n\r\n        if(ids[0] == _poolId){\r\n            address pool = AddressLibrary.Bytes32ToAddress(item);\r\n\r\n            if(false == addOrRemove)removePricesForPool(pool);\r\n            else{\r\n                IPool poolToSubscribe = IPool(pool);\r\n                poolToSubscribe.addProvider{value:_SubscriptionPricePerPool[pool]}(address(this), _ProviderInfo);\r\n            }\r\n        }\r\n        else if(ids[0] == _certId){\r\n            manipulateCertificate(AddressLibrary.UintToAddress(ids[1]), item, AddressLibrary.UintToAddress(ids[2]));\r\n            RemoveResizeCertificatesStructArray(_pendingCertificates, ids[3]);\r\n        }\r\n    }\r\n\r\n    function onItemRejected(bytes32 item, uint256[] calldata ids, bool addOrRemove) public override  \r\n    {\r\n        super.onItemRejected(item, ids, addOrRemove);\r\n\r\n        if(ids[0] == _poolId){\r\n            address pool = AddressLibrary.Bytes32ToAddress(item);\r\n\r\n            if(true == addOrRemove)removePricesForPool(pool);\r\n        } \r\n        else if(ids[0] == _certId){\r\n            RemoveResizeCertificatesStructArray(_pendingCertificates, ids[3]);\r\n        }\r\n    }\r\n    \r\n }",
  "sourcePath": "C:/Users/d-aam/GitHub/Certificates/contracts/DeployedContracts/Provider.sol",
  "compiler": {
    "name": "solc",
    "version": "0.8.7+commit.e28d00a7.Emscripten.clang"
  },
  "schemaVersion": "3.3.4",
  "updatedAt": "2021-08-18T09:05:33.240Z",
  "devdoc": {
    "kind": "dev",
    "methods": {},
    "version": 1
  },
  "userdoc": {
    "kind": "user",
    "methods": {},
    "version": 1
  }
}