{
  "contractName": "ProviderFactory",
  "abi": [
    {
      "anonymous": false,
      "inputs": [
        {
          "indexed": true,
          "internalType": "string",
          "name": "",
          "type": "string"
        },
        {
          "indexed": false,
          "internalType": "uint256",
          "name": "",
          "type": "uint256"
        },
        {
          "indexed": false,
          "internalType": "address",
          "name": "",
          "type": "address"
        },
        {
          "indexed": false,
          "internalType": "address",
          "name": "",
          "type": "address"
        }
      ],
      "name": "_NewElement",
      "type": "event"
    },
    {
      "inputs": [
        {
          "internalType": "address",
          "name": "managerContractAddress",
          "type": "address"
        }
      ],
      "name": "Factory_init",
      "outputs": [],
      "stateMutability": "nonpayable",
      "type": "function"
    },
    {
      "inputs": [
        {
          "internalType": "uint256",
          "name": "Id",
          "type": "uint256"
        }
      ],
      "name": "retrieve",
      "outputs": [
        {
          "internalType": "address",
          "name": "",
          "type": "address"
        },
        {
          "internalType": "address",
          "name": "",
          "type": "address"
        }
      ],
      "stateMutability": "view",
      "type": "function"
    },
    {
      "inputs": [],
      "name": "retrieveTotal",
      "outputs": [
        {
          "internalType": "uint256",
          "name": "",
          "type": "uint256"
        }
      ],
      "stateMutability": "view",
      "type": "function"
    },
    {
      "inputs": [
        {
          "internalType": "address",
          "name": "managerContractAddress",
          "type": "address"
        }
      ],
      "name": "ProviderFactory_init",
      "outputs": [],
      "stateMutability": "nonpayable",
      "type": "function"
    },
    {
      "inputs": [
        {
          "internalType": "address[]",
          "name": "owners",
          "type": "address[]"
        },
        {
          "internalType": "uint256",
          "name": "minOwners",
          "type": "uint256"
        },
        {
          "internalType": "string",
          "name": "ElementName",
          "type": "string"
        }
      ],
      "name": "create",
      "outputs": [],
      "stateMutability": "payable",
      "type": "function"
    }
  ],
  "bytecode": "0x608060405234801561001057600080fd5b506114e6806100206000396000f3fe608060405260043610620000505760003560e01c806358e9a54f14620000555780636f86542a146200007c5780638f88708b14620000a05780639d4260a314620000e6578063fcc09e5b14620000fd575b600080fd5b3480156200006257600080fd5b506200007a6200007436600462000796565b62000122565b005b3480156200008957600080fd5b506001546040519081526020015b60405180910390f35b348015620000ad57600080fd5b50620000c5620000bf366004620008f4565b620001a9565b604080516001600160a01b0393841681529290911660208301520162000097565b6200007a620000f7366004620007dd565b620002ee565b3480156200010a57600080fd5b506200007a6200011c36600462000796565b62000617565b600054610100900460ff16806200013c575060005460ff16155b620001645760405162461bcd60e51b81526004016200015b9062000a20565b60405180910390fd5b600054610100900460ff1615801562000187576000805461ffff19166101011790555b62000192826200067e565b8015620001a5576000805461ff00191690555b5050565b60015460405163123bd07560e11b81526004810183905260248101829052600091829184919073__Library_______________________________90632477a0ea9060440160206040518083038186803b1580156200020757600080fd5b505af41580156200021c573d6000803e3d6000fd5b505050506040513d601f19601f82011682018060405250810190620002429190620008d0565b15156001146200027b5760405162461bcd60e51b815260206004820152600360248201526245433160e81b60448201526064016200015b565b6001858154811062000291576200029162000ac7565b6000918252602090912060029091020154600180546001600160a01b039092169187908110620002c557620002c562000ac7565b60009182526020909120600160029092020101549094506001600160a01b031692505050915091565b600060029054906101000a90046001600160a01b03166001600160a01b0316635a3794e96040518163ffffffff1660e01b815260040160206040518083038186803b1580156200033d57600080fd5b505afa15801562000352573d6000803e3d6000fd5b505050506040513d601f19601f82011682018060405250810190620003789190620007bd565b6001600160a01b031663f0c9325e3460036040518363ffffffff1660e01b8152600401620003a79190620009f7565b6000604051808303818588803b158015620003c157600080fd5b505af1158015620003d6573d6000803e3d6000fd5b50505050506000838383604051602401620003f4939291906200098c565b60408051808303601f190181529181526020808301805163a44bff2b60e01b6001600160e01b03909116179052600080548351633d6b66b360e21b815293519495509093620100009091046001600160a01b03169263f5ad9acc926004808301939192829003018186803b1580156200046c57600080fd5b505afa15801562000481573d6000803e3d6000fd5b505050506040513d601f19601f82011682018060405250810190620004a79190620007bd565b82604051620004b69062000712565b620004c39291906200095e565b604051809103906000f080158015620004e0573d6000803e3d6000fd5b506040805180820182523381526001600160a01b0380841660208301908152600180548082018255600091909152835160029091027fb10e2d527612073b26eecdfd717e6a320cf44b4afac2b0732d9fcbe2b7fa0cf6810180549285166001600160a01b031993841617905591517fb10e2d527612073b26eecdfd717e6a320cf44b4afac2b0732d9fcbe2b7fa0cf790920180549290931691161790559051919250906200059c9067283937bb34b232b960c11b815260080190565b604051908190039020600180547f192c19c3111adc199f9afbc1406d6c7af18255385de57df1ab882d761d62eda491620005d69162000aa1565b8351602085015160405162000607939291909283526001600160a01b03918216602084015216604082015260600190565b60405180910390a2505050505050565b600054610100900460ff168062000631575060005460ff16155b620006505760405162461bcd60e51b81526004016200015b9062000a20565b600054610100900460ff1615801562000673576000805461ffff19166101011790555b620001928262000122565b600054610100900460ff168062000698575060005460ff16155b620006b75760405162461bcd60e51b81526004016200015b9062000a20565b600054610100900460ff16158015620006da576000805461ffff19166101011790555b6000805462010000600160b01b031916620100006001600160a01b038516021790558015620001a5576000805461ff00191690555050565b6109a48062000b0d83390190565b600082601f8301126200073257600080fd5b81356001600160401b038111156200074e576200074e62000add565b62000763601f8201601f191660200162000a6e565b8181528460208386010111156200077957600080fd5b816020850160208301376000918101602001919091529392505050565b600060208284031215620007a957600080fd5b8135620007b68162000af3565b9392505050565b600060208284031215620007d057600080fd5b8151620007b68162000af3565b600080600060608486031215620007f357600080fd5b83356001600160401b03808211156200080b57600080fd5b818601915086601f8301126200082057600080fd5b813560208282111562000837576200083762000add565b8160051b6200084882820162000a6e565b8381528281019086840183880185018d10156200086457600080fd5b600097505b85881015620008975780359350620008818462000af3565b8383526001979097019691840191840162000869565b50985050508701359450506040860135915080821115620008b757600080fd5b50620008c68682870162000720565b9150509250925092565b600060208284031215620008e357600080fd5b81518015158114620007b657600080fd5b6000602082840312156200090757600080fd5b5035919050565b6000815180845260005b81811015620009365760208185018101518683018201520162000918565b8181111562000949576000602083870101525b50601f01601f19169290920160200192915050565b6001600160a01b038316815260406020820181905260009062000984908301846200090e565b949350505050565b606080825284519082018190526000906020906080840190828801845b82811015620009d05781516001600160a01b031684529284019290840190600101620009a9565b50505085828501528381036040850152620009ec81866200090e565b979650505050505050565b602081016004831062000a1a57634e487b7160e01b600052602160045260246000fd5b91905290565b6020808252602e908201527f496e697469616c697a61626c653a20636f6e747261637420697320616c72656160408201526d191e481a5b9a5d1a585b1a5e995960921b606082015260800190565b604051601f8201601f191681016001600160401b038111828210171562000a995762000a9962000add565b604052919050565b60008282101562000ac257634e487b7160e01b600052601160045260246000fd5b500390565b634e487b7160e01b600052603260045260246000fd5b634e487b7160e01b600052604160045260246000fd5b6001600160a01b038116811462000b0957600080fd5b5056fe608060405234801561001057600080fd5b506040516109a43803806109a483398101604081905261002f91610481565b818161005c60017fa3f0ad74e5423aebfd80d3ef4346578335a9a72aeaee59ff6cb3582b35133d51610590565b60008051602061095d83398151915214610078576100786105e1565b6100848282600061008d565b5050505061060d565b61009683610167565b6040516001600160a01b038416907f1cf3b03a6cf19fa2baba4df148e9dcabedea7f8a5c07840e207e5c089be95d3e90600090a26000825111806100d75750805b1561016257610160836001600160a01b0316635c60da1b6040518163ffffffff1660e01b815260040160206040518083038186803b15801561011857600080fd5b505afa15801561012c573d6000803e3d6000fd5b505050506040513d601f19601f820116820180604052508101906101509190610466565b8361030760201b6100291760201c565b505b505050565b61017a8161033360201b6100551760201c565b6101d95760405162461bcd60e51b815260206004820152602560248201527f455243313936373a206e657720626561636f6e206973206e6f74206120636f6e6044820152641d1c9858dd60da1b60648201526084015b60405180910390fd5b61025c816001600160a01b0316635c60da1b6040518163ffffffff1660e01b815260040160206040518083038186803b15801561021557600080fd5b505afa158015610229573d6000803e3d6000fd5b505050506040513d601f19601f8201168201806040525081019061024d9190610466565b61033360201b6100551760201c565b6102c15760405162461bcd60e51b815260206004820152603060248201527f455243313936373a20626561636f6e20696d706c656d656e746174696f6e206960448201526f1cc81b9bdd08184818dbdb9d1c9858dd60821b60648201526084016101d0565b806102e660008051602061095d83398151915260001b61033960201b61005b1760201c565b80546001600160a01b0319166001600160a01b039290921691909117905550565b606061032c838360405180606001604052806027815260200161097d6027913961033c565b9392505050565b3b151590565b90565b6060833b61039b5760405162461bcd60e51b815260206004820152602660248201527f416464726573733a2064656c65676174652063616c6c20746f206e6f6e2d636f6044820152651b9d1c9858dd60d21b60648201526084016101d0565b600080856001600160a01b0316856040516103b69190610541565b600060405180830381855af49150503d80600081146103f1576040519150601f19603f3d011682016040523d82523d6000602084013e6103f6565b606091505b509092509050610407828286610411565b9695505050505050565b6060831561042057508161032c565b8251156104305782518084602001fd5b8160405162461bcd60e51b81526004016101d0919061055d565b80516001600160a01b038116811461046157600080fd5b919050565b60006020828403121561047857600080fd5b61032c8261044a565b6000806040838503121561049457600080fd5b61049d8361044a565b60208401519092506001600160401b03808211156104ba57600080fd5b818501915085601f8301126104ce57600080fd5b8151818111156104e0576104e06105f7565b604051601f8201601f19908116603f01168101908382118183101715610508576105086105f7565b8160405282815288602084870101111561052157600080fd5b6105328360208301602088016105b5565b80955050505050509250929050565b600082516105538184602087016105b5565b9190910192915050565b602081526000825180602084015261057c8160408501602087016105b5565b601f01601f19169190910160400192915050565b6000828210156105b057634e487b7160e01b600052601160045260246000fd5b500390565b60005b838110156105d05781810151838201526020016105b8565b838111156101605750506000910152565b634e487b7160e01b600052600160045260246000fd5b634e487b7160e01b600052604160045260246000fd5b6103418061061c6000396000f3fe60806040523661001357610011610017565b005b6100115b61002761002261005e565b610106565b565b606061004e83836040518060600160405280602781526020016102e56027913961012a565b9392505050565b3b151590565b90565b60006100917fa3f0ad74e5423aebfd80d3ef4346578335a9a72aeaee59ff6cb3582b35133d50546001600160a01b031690565b6001600160a01b0316635c60da1b6040518163ffffffff1660e01b815260040160206040518083038186803b1580156100c957600080fd5b505afa1580156100dd573d6000803e3d6000fd5b505050506040513d601f19601f82011682018060405250810190610101919061023c565b905090565b3660008037600080366000845af43d6000803e808015610125573d6000f35b3d6000fd5b6060833b61018e5760405162461bcd60e51b815260206004820152602660248201527f416464726573733a2064656c65676174652063616c6c20746f206e6f6e2d636f6044820152651b9d1c9858dd60d21b60648201526084015b60405180910390fd5b600080856001600160a01b0316856040516101a99190610265565b600060405180830381855af49150503d80600081146101e4576040519150601f19603f3d011682016040523d82523d6000602084013e6101e9565b606091505b50915091506101f9828286610203565b9695505050505050565b6060831561021257508161004e565b8251156102225782518084602001fd5b8160405162461bcd60e51b81526004016101859190610281565b60006020828403121561024e57600080fd5b81516001600160a01b038116811461004e57600080fd5b600082516102778184602087016102b4565b9190910192915050565b60208152600082518060208401526102a08160408501602087016102b4565b601f01601f19169190910160400192915050565b60005b838110156102cf5781810151838201526020016102b7565b838111156102de576000848401525b5050505056fe416464726573733a206c6f772d6c6576656c2064656c65676174652063616c6c206661696c6564a2646970667358221220316b8ee8d0c47dc49b58ecbc09b53737a1e9d045f5277e64dbe7a112e23d03c764736f6c63430008060033a3f0ad74e5423aebfd80d3ef4346578335a9a72aeaee59ff6cb3582b35133d50416464726573733a206c6f772d6c6576656c2064656c65676174652063616c6c206661696c6564a2646970667358221220bf1ec0dbed0fe45f9ec72eca4587dbfea9f86f3ae4effb34c05832b32c4a954464736f6c63430008060033",
  "immutableReferences": {},
  "source": "// SPDX-License-Identifier: GPL-3.0\r\n\r\npragma solidity >=0.7.0 <0.9.0;\r\n\r\n/**\r\n * @title Storage\r\n * @dev Store & retrieve value in a variable\r\n */\r\n\r\n import \"./Treasury.sol\";\r\n import \"../Libraries/Library.sol\";\r\n import \"../Abstract/Factory.sol\";\r\n import \"./Proxies/ProviderProxy.sol\";\r\n import \"@openzeppelin/contracts-upgradeable/proxy/utils/Initializable.sol\";\r\n\r\ncontract ProviderFactory is Initializable, Factory{\r\n    using Library for *;\r\n    \r\n    // CONSTRUCTOR /////////////////////////////////////////\r\n    function ProviderFactory_init(address managerContractAddress) public initializer {\r\n        super.Factory_init(managerContractAddress);\r\n    }\r\n\r\n    // FUNCTIONALITY /////////////////////////////////////////\r\n    function create(address[] memory owners,  uint256 minOwners, string memory ElementName) external override payable\r\n    {\r\n        Treasury(_managerContract.retrieveTreasuryProxy()).pay{value:msg.value}(Library.Prices.NewProviderContract);\r\n        bytes memory data = abi.encodeWithSignature(\"Provider_init(address[],uint256,string)\", owners, minOwners, ElementName);\r\n        ProviderProxy providerProxy = new ProviderProxy(_managerContract.retrieveProviderBeacon(), data);\r\n        _ElementStruct memory element = _ElementStruct(msg.sender, address(providerProxy));\r\n        _Elements.push(element);\r\n\r\n        emit _NewElement(\"Provider\", _Elements.length - 1, element._creator, element._ElementProxyAddress);\r\n    }\r\n\r\n\r\n}",
  "sourcePath": "C:/Users/d-aam/GitHub/Certificates/contracts/DeployedContracts/ProviderFactory.sol",
  "compiler": {
    "name": "solc",
    "version": "0.8.6+commit.11564f7e.Emscripten.clang"
  },
  "schemaVersion": "3.3.4",
  "updatedAt": "2021-08-05T07:23:02.568Z",
  "devdoc": {
    "kind": "dev",
    "methods": {},
    "version": 1
  },
  "userdoc": {
    "kind": "user",
    "methods": {},
    "version": 1
  }
}