{
  "contractName": "ProviderFactory",
  "abi": [
    {
      "anonymous": false,
      "inputs": [
        {
          "indexed": false,
          "internalType": "string",
          "name": "Factory",
          "type": "string"
        },
        {
          "indexed": false,
          "internalType": "string",
          "name": "Name",
          "type": "string"
        }
      ],
      "name": "_NewContractName",
      "type": "event"
    },
    {
      "anonymous": false,
      "inputs": [
        {
          "indexed": false,
          "internalType": "string",
          "name": "Factory",
          "type": "string"
        },
        {
          "indexed": false,
          "internalType": "string",
          "name": "Version",
          "type": "string"
        }
      ],
      "name": "_NewContractVersion",
      "type": "event"
    },
    {
      "anonymous": false,
      "inputs": [
        {
          "indexed": false,
          "internalType": "string",
          "name": "Factory",
          "type": "string"
        },
        {
          "indexed": false,
          "internalType": "uint256",
          "name": "Id",
          "type": "uint256"
        },
        {
          "indexed": true,
          "internalType": "address",
          "name": "Creator",
          "type": "address"
        },
        {
          "indexed": false,
          "internalType": "address",
          "name": "Element",
          "type": "address"
        },
        {
          "indexed": false,
          "internalType": "string",
          "name": "Name",
          "type": "string"
        }
      ],
      "name": "_NewElement",
      "type": "event"
    },
    {
      "inputs": [
        {
          "internalType": "string",
          "name": "factoryName",
          "type": "string"
        },
        {
          "internalType": "address",
          "name": "managerContractAddress",
          "type": "address"
        }
      ],
      "name": "Factory_init",
      "outputs": [],
      "stateMutability": "nonpayable",
      "type": "function"
    },
    {
      "inputs": [
        {
          "internalType": "uint256",
          "name": "Id",
          "type": "uint256"
        }
      ],
      "name": "retrieve",
      "outputs": [
        {
          "internalType": "address",
          "name": "",
          "type": "address"
        },
        {
          "internalType": "address",
          "name": "",
          "type": "address"
        }
      ],
      "stateMutability": "view",
      "type": "function"
    },
    {
      "inputs": [],
      "name": "retrieveConfig",
      "outputs": [
        {
          "internalType": "string",
          "name": "",
          "type": "string"
        },
        {
          "internalType": "string",
          "name": "",
          "type": "string"
        },
        {
          "internalType": "string",
          "name": "",
          "type": "string"
        }
      ],
      "stateMutability": "view",
      "type": "function"
    },
    {
      "inputs": [],
      "name": "retrieveManagerContract",
      "outputs": [
        {
          "internalType": "address",
          "name": "",
          "type": "address"
        }
      ],
      "stateMutability": "view",
      "type": "function"
    },
    {
      "inputs": [],
      "name": "retrieveTotal",
      "outputs": [
        {
          "internalType": "uint256",
          "name": "",
          "type": "uint256"
        }
      ],
      "stateMutability": "view",
      "type": "function"
    },
    {
      "inputs": [
        {
          "internalType": "string",
          "name": "contractName",
          "type": "string"
        }
      ],
      "name": "updateContractName",
      "outputs": [],
      "stateMutability": "nonpayable",
      "type": "function"
    },
    {
      "inputs": [
        {
          "internalType": "string",
          "name": "contractVersion",
          "type": "string"
        }
      ],
      "name": "updateContractVersion",
      "outputs": [],
      "stateMutability": "nonpayable",
      "type": "function"
    },
    {
      "inputs": [
        {
          "internalType": "address",
          "name": "managerContractAddress",
          "type": "address"
        }
      ],
      "name": "ProviderFactory_init",
      "outputs": [],
      "stateMutability": "nonpayable",
      "type": "function"
    },
    {
      "inputs": [
        {
          "internalType": "address[]",
          "name": "owners",
          "type": "address[]"
        },
        {
          "internalType": "uint256",
          "name": "minOwners",
          "type": "uint256"
        },
        {
          "internalType": "string",
          "name": "ElementName",
          "type": "string"
        }
      ],
      "name": "create",
      "outputs": [],
      "stateMutability": "payable",
      "type": "function"
    }
  ],
  "bytecode": "0x608060405234801561001057600080fd5b50611bed806100206000396000f3fe608060405260043610620000805760003560e01c80631dd5862c14620000855780634612ea0b14620000ac5780635b362e8414620000d15780636f86542a146200010e5780638f88708b146200012e5780639d4260a314620001635780639d8c56c6146200017a578063ce50ac7614620001a3578063fcc09e5b14620001c8575b600080fd5b3480156200009257600080fd5b50620000aa620000a436600462000dc4565b620001ed565b005b348015620000b957600080fd5b50620000aa620000cb36600462000e04565b620002c4565b348015620000de57600080fd5b506000546201000090046001600160a01b03166040516001600160a01b0390911681526020015b60405180910390f35b3480156200011b57600080fd5b5060045460405190815260200162000105565b3480156200013b57600080fd5b50620001536200014d36600462000e5b565b620003a4565b6040516200010592919062000f6d565b620000aa6200017436600462000cd1565b6200048d565b3480156200018757600080fd5b506200019262000695565b604051620001059392919062001041565b348015620001b057600080fd5b50620000aa620001c236600462000dc4565b62000867565b348015620001d557600080fd5b50620000aa620001e736600462000c8a565b62000932565b6000546040516337ea306360e01b8152339173__Library_______________________________916337ea3063916200023b9185916201000090046001600160a01b03169060040162000f6d565b60006040518083038186803b1580156200025457600080fd5b505af415801562000269573d6000803e3d6000fd5b5050835162000282925060039150602085019062000b60565b507f85825cad4af8c1dad9ad1a76eae95f95b6b46edc35d47b11259bca5daa7713ce60016003604051620002b89291906200108a565b60405180910390a15050565b600054610100900460ff1680620002de575060005460ff16155b620003065760405162461bcd60e51b8152600401620002fd90620010fb565b60405180910390fd5b600054610100900460ff1615801562000329576000805461ffff19166101011790555b6200033482620009d1565b82516200034990600190602086019062000b60565b506040805160208101918290526000908190526200036a9160029162000b60565b506040805160208101918290526000908190526200038b9160039162000b60565b5080156200039f576000805461ff00191690555b505050565b6004805460405163123bd07560e11b8152918201839052602482018190526000918291849173__Library_______________________________90632477a0ea9060440160006040518083038186803b1580156200040157600080fd5b505af415801562000416573d6000803e3d6000fd5b5050505060048581548110620004305762000430620011df565b6000918252602090912060029091020154600480546001600160a01b039092169187908110620004645762000464620011df565b60009182526020909120600160029092020101549094506001600160a01b031692505050915091565b600060029054906101000a90046001600160a01b03166001600160a01b0316635a3794e96040518163ffffffff1660e01b815260040160206040518083038186803b158015620004dc57600080fd5b505afa158015620004f1573d6000803e3d6000fd5b505050506040513d601f19601f8201168201806040525081019062000517919062000cb1565b6001600160a01b031663f0c9325e3460036040518363ffffffff1660e01b815260040162000546919062001018565b6000604051808303818588803b1580156200056057600080fd5b505af115801562000575573d6000803e3d6000fd5b50505050506000838383604051602401620005939392919062000fad565b60408051808303601f190181529181526020808301805163a44bff2b60e01b6001600160e01b03909116179052600080548351633d6b66b360e21b815293519495509093620100009091046001600160a01b03169263f5ad9acc926004808301939192829003018186803b1580156200060b57600080fd5b505afa15801562000620573d6000803e3d6000fd5b505050506040513d601f19601f8201168201806040525081019062000646919062000cb1565b82604051620006559062000bef565b6200066292919062000f87565b604051809103906000f0801580156200067f573d6000803e3d6000fd5b5090506200068e818462000a65565b5050505050565b6060806060600160026003828054620006ae90620011a2565b80601f0160208091040260200160405190810160405280929190818152602001828054620006dc90620011a2565b80156200072d5780601f1062000701576101008083540402835291602001916200072d565b820191906000526020600020905b8154815290600101906020018083116200070f57829003601f168201915b505050505092508180546200074290620011a2565b80601f01602080910402602001604051908101604052809291908181526020018280546200077090620011a2565b8015620007c15780601f106200079557610100808354040283529160200191620007c1565b820191906000526020600020905b815481529060010190602001808311620007a357829003601f168201915b50505050509150808054620007d690620011a2565b80601f01602080910402602001604051908101604052809291908181526020018280546200080490620011a2565b8015620008555780601f10620008295761010080835404028352916020019162000855565b820191906000526020600020905b8154815290600101906020018083116200083757829003601f168201915b50505050509050925092509250909192565b6000546040516337ea306360e01b8152339173__Library_______________________________916337ea306391620008b59185916201000090046001600160a01b03169060040162000f6d565b60006040518083038186803b158015620008ce57600080fd5b505af4158015620008e3573d6000803e3d6000fd5b50508351620008fc925060029150602085019062000b60565b507fca713f964ba9fd248b552b210e1ec6035169f38c143b0500c211f277f1ad454360016002604051620002b89291906200108a565b600054610100900460ff16806200094c575060005460ff16155b6200096b5760405162461bcd60e51b8152600401620002fd90620010fb565b600054610100900460ff161580156200098e576000805461ffff19166101011790555b620009ba60405180604001604052806008815260200167283937bb34b232b960c11b81525083620002c4565b8015620009cd576000805461ff00191690555b5050565b600054610100900460ff1680620009eb575060005460ff16155b62000a0a5760405162461bcd60e51b8152600401620002fd90620010fb565b600054610100900460ff1615801562000a2d576000805461ffff19166101011790555b6000805462010000600160b01b031916620100006001600160a01b038516021790558015620009cd576000805461ff00191690555050565b604080518082019091523381526001600160a01b038381166020830190815260048054600181810183556000839052855160029092027f8a35acfbc15ff81a39ae7d344fd709f28e8600b4aa8c65c6b64bfe7fe36bd19b810180549387166001600160a01b0319948516811790915594517f8a35acfbc15ff81a39ae7d344fd709f28e8600b4aa8c65c6b64bfe7fe36bd19c9091018054919096169216919091179093555490917f1ca39c7d81f021b1dca105fb858bf2a88540adf1df782672dfd71b5ace6b839a9162000b3b9082906200117c565b84602001518660405162000b539493929190620010bc565b60405180910390a2505050565b82805462000b6e90620011a2565b90600052602060002090601f01602090048101928262000b92576000855562000bdd565b82601f1062000bad57805160ff191683800117855562000bdd565b8280016001018555821562000bdd579182015b8281111562000bdd57825182559160200191906001019062000bc0565b5062000beb92915062000bfd565b5090565b610993806200122583390190565b5b8082111562000beb576000815560010162000bfe565b600082601f83011262000c2657600080fd5b81356001600160401b0381111562000c425762000c42620011f5565b62000c57601f8201601f191660200162001149565b81815284602083860101111562000c6d57600080fd5b816020850160208301376000918101602001919091529392505050565b60006020828403121562000c9d57600080fd5b813562000caa816200120b565b9392505050565b60006020828403121562000cc457600080fd5b815162000caa816200120b565b60008060006060848603121562000ce757600080fd5b83356001600160401b038082111562000cff57600080fd5b818601915086601f83011262000d1457600080fd5b813560208282111562000d2b5762000d2b620011f5565b8160051b62000d3c82820162001149565b8381528281019086840183880185018d101562000d5857600080fd5b600097505b8588101562000d8b578035935062000d75846200120b565b8383526001979097019691840191840162000d5d565b5098505050870135945050604086013591508082111562000dab57600080fd5b5062000dba8682870162000c14565b9150509250925092565b60006020828403121562000dd757600080fd5b81356001600160401b0381111562000dee57600080fd5b62000dfc8482850162000c14565b949350505050565b6000806040838503121562000e1857600080fd5b82356001600160401b0381111562000e2f57600080fd5b62000e3d8582860162000c14565b925050602083013562000e50816200120b565b809150509250929050565b60006020828403121562000e6e57600080fd5b5035919050565b6000815180845260005b8181101562000e9d5760208185018101518683018201520162000e7f565b8181111562000eb0576000602083870101525b50601f01601f19169290920160200192915050565b8054600090600181811c908083168062000ee057607f831692505b602080841082141562000f0357634e487b7160e01b600052602260045260246000fd5b8388526020880182801562000f21576001811462000f335762000f60565b60ff1987168252828201975062000f60565b60008981526020902060005b8781101562000f5a5781548482015290860190840162000f3f565b83019850505b5050505050505092915050565b6001600160a01b0392831681529116602082015260400190565b6001600160a01b038316815260406020820181905260009062000dfc9083018462000e75565b606080825284519082018190526000906020906080840190828801845b8281101562000ff15781516001600160a01b03168452928401929084019060010162000fca565b505050858285015283810360408501526200100d818662000e75565b979650505050505050565b60208101600483106200103b57634e487b7160e01b600052602160045260246000fd5b91905290565b60608152600062001056606083018662000e75565b82810360208401526200106a818662000e75565b9050828103604084015262001080818562000e75565b9695505050505050565b6040815260006200109f604083018562000ec5565b8281036020840152620010b3818562000ec5565b95945050505050565b608081526000620010d1608083018762000ec5565b602083018690526001600160a01b038516604084015282810360608401526200100d818562000e75565b6020808252602e908201527f496e697469616c697a61626c653a20636f6e747261637420697320616c72656160408201526d191e481a5b9a5d1a585b1a5e995960921b606082015260800190565b604051601f8201601f191681016001600160401b0381118282101715620011745762001174620011f5565b604052919050565b6000828210156200119d57634e487b7160e01b600052601160045260246000fd5b500390565b600181811c90821680620011b757607f821691505b60208210811415620011d957634e487b7160e01b600052602260045260246000fd5b50919050565b634e487b7160e01b600052603260045260246000fd5b634e487b7160e01b600052604160045260246000fd5b6001600160a01b03811681146200122157600080fd5b5056fe608060405260405161099338038061099383398101604081905261002291610470565b61004d60017fa3f0ad74e5423aebfd80d3ef4346578335a9a72aeaee59ff6cb3582b35133d5161057f565b60008051602061094c83398151915214610069576100696105d0565b6100758282600061007c565b50506105fc565b61008583610156565b6040516001600160a01b038416907f1cf3b03a6cf19fa2baba4df148e9dcabedea7f8a5c07840e207e5c089be95d3e90600090a26000825111806100c65750805b156101515761014f836001600160a01b0316635c60da1b6040518163ffffffff1660e01b815260040160206040518083038186803b15801561010757600080fd5b505afa15801561011b573d6000803e3d6000fd5b505050506040513d601f19601f8201168201806040525081019061013f9190610455565b836102f660201b6100291760201c565b505b505050565b6101698161032260201b6100551760201c565b6101c85760405162461bcd60e51b815260206004820152602560248201527f455243313936373a206e657720626561636f6e206973206e6f74206120636f6e6044820152641d1c9858dd60da1b60648201526084015b60405180910390fd5b61024b816001600160a01b0316635c60da1b6040518163ffffffff1660e01b815260040160206040518083038186803b15801561020457600080fd5b505afa158015610218573d6000803e3d6000fd5b505050506040513d601f19601f8201168201806040525081019061023c9190610455565b61032260201b6100551760201c565b6102b05760405162461bcd60e51b815260206004820152603060248201527f455243313936373a20626561636f6e20696d706c656d656e746174696f6e206960448201526f1cc81b9bdd08184818dbdb9d1c9858dd60821b60648201526084016101bf565b806102d560008051602061094c83398151915260001b61032860201b61005b1760201c565b80546001600160a01b0319166001600160a01b039290921691909117905550565b606061031b838360405180606001604052806027815260200161096c6027913961032b565b9392505050565b3b151590565b90565b6060833b61038a5760405162461bcd60e51b815260206004820152602660248201527f416464726573733a2064656c65676174652063616c6c20746f206e6f6e2d636f6044820152651b9d1c9858dd60d21b60648201526084016101bf565b600080856001600160a01b0316856040516103a59190610530565b600060405180830381855af49150503d80600081146103e0576040519150601f19603f3d011682016040523d82523d6000602084013e6103e5565b606091505b5090925090506103f6828286610400565b9695505050505050565b6060831561040f57508161031b565b82511561041f5782518084602001fd5b8160405162461bcd60e51b81526004016101bf919061054c565b80516001600160a01b038116811461045057600080fd5b919050565b60006020828403121561046757600080fd5b61031b82610439565b6000806040838503121561048357600080fd5b61048c83610439565b60208401519092506001600160401b03808211156104a957600080fd5b818501915085601f8301126104bd57600080fd5b8151818111156104cf576104cf6105e6565b604051601f8201601f19908116603f011681019083821181831017156104f7576104f76105e6565b8160405282815288602084870101111561051057600080fd5b6105218360208301602088016105a4565b80955050505050509250929050565b600082516105428184602087016105a4565b9190910192915050565b602081526000825180602084015261056b8160408501602087016105a4565b601f01601f19169190910160400192915050565b60008282101561059f57634e487b7160e01b600052601160045260246000fd5b500390565b60005b838110156105bf5781810151838201526020016105a7565b8381111561014f5750506000910152565b634e487b7160e01b600052600160045260246000fd5b634e487b7160e01b600052604160045260246000fd5b6103418061060b6000396000f3fe60806040523661001357610011610017565b005b6100115b61002761002261005e565b610106565b565b606061004e83836040518060600160405280602781526020016102e56027913961012a565b9392505050565b3b151590565b90565b60006100917fa3f0ad74e5423aebfd80d3ef4346578335a9a72aeaee59ff6cb3582b35133d50546001600160a01b031690565b6001600160a01b0316635c60da1b6040518163ffffffff1660e01b815260040160206040518083038186803b1580156100c957600080fd5b505afa1580156100dd573d6000803e3d6000fd5b505050506040513d601f19601f82011682018060405250810190610101919061023c565b905090565b3660008037600080366000845af43d6000803e808015610125573d6000f35b3d6000fd5b6060833b61018e5760405162461bcd60e51b815260206004820152602660248201527f416464726573733a2064656c65676174652063616c6c20746f206e6f6e2d636f6044820152651b9d1c9858dd60d21b60648201526084015b60405180910390fd5b600080856001600160a01b0316856040516101a99190610265565b600060405180830381855af49150503d80600081146101e4576040519150601f19603f3d011682016040523d82523d6000602084013e6101e9565b606091505b50915091506101f9828286610203565b9695505050505050565b6060831561021257508161004e565b8251156102225782518084602001fd5b8160405162461bcd60e51b81526004016101859190610281565b60006020828403121561024e57600080fd5b81516001600160a01b038116811461004e57600080fd5b600082516102778184602087016102b4565b9190910192915050565b60208152600082518060208401526102a08160408501602087016102b4565b601f01601f19169190910160400192915050565b60005b838110156102cf5781810151838201526020016102b7565b838111156102de576000848401525b5050505056fe416464726573733a206c6f772d6c6576656c2064656c65676174652063616c6c206661696c6564a2646970667358221220d403ceeafd1a8a95bac5042ee17868655bf495ec1518e7fe81eb94935c79e11764736f6c63430008070033a3f0ad74e5423aebfd80d3ef4346578335a9a72aeaee59ff6cb3582b35133d50416464726573733a206c6f772d6c6576656c2064656c65676174652063616c6c206661696c6564a26469706673582212201dce6d5f461060944714c9f3dd9981298c2df8882a053c2a3a3cdbfe49f1d4ab64736f6c63430008070033",
  "immutableReferences": {},
  "source": "// SPDX-License-Identifier: GPL-3.0\r\n\r\npragma solidity 0.8.7;\r\n\r\n/*\r\n  Provider Factory inherits from Factory.\r\n  Before creating a new Element a payment is made to Treasury.\r\n  Provider Elements are Beacon Proxy, the Beacon implementation address is stored in Manager contract.\r\n */\r\n\r\n import \"../Interfaces/ITreasury.sol\";\r\n import \"../Abstract/Factory.sol\";\r\n import \"@openzeppelin/contracts/proxy/beacon/BeaconProxy.sol\";\r\n\r\ncontract ProviderFactory is Factory{\r\n    \r\n    // CONSTRUCTOR /////////////////////////////////////////\r\n    function ProviderFactory_init(address managerContractAddress) public initializer {\r\n        super.Factory_init(\"Provider\", managerContractAddress);\r\n    }\r\n\r\n    // FUNCTIONALITY /////////////////////////////////////////\r\n    function create(address[] memory owners,  uint256 minOwners, string memory ElementName) external override payable\r\n    {\r\n        ITreasury(_managerContract.retrieveTreasuryProxy()).pay{value:msg.value}(Library.Prices.NewProviderContract);\r\n        bytes memory data = abi.encodeWithSignature(\"Provider_init(address[],uint256,string)\", owners, minOwners, ElementName);\r\n        BeaconProxy providerProxy = new BeaconProxy(_managerContract.retrieveProviderBeacon(), data);\r\n        internalCreate(address(providerProxy), ElementName);\r\n    }\r\n\r\n\r\n}",
  "sourcePath": "C:/Users/d-aam/GitHub/Certificates/contracts/DeployedContracts/ProviderFactory.sol",
  "compiler": {
    "name": "solc",
    "version": "0.8.7+commit.e28d00a7.Emscripten.clang"
  },
  "schemaVersion": "3.3.4",
  "updatedAt": "2021-10-12T10:13:15.930Z",
  "devdoc": {
    "kind": "dev",
    "methods": {},
    "version": 1
  },
  "userdoc": {
    "kind": "user",
    "methods": {},
    "version": 1
  }
}