{
  "contractName": "Provider",
  "abi": [
    {
      "inputs": [
        {
          "internalType": "address[]",
          "name": "owners",
          "type": "address[]"
        },
        {
          "internalType": "uint256",
          "name": "minOwners",
          "type": "uint256"
        },
        {
          "internalType": "string",
          "name": "ProviderInfo",
          "type": "string"
        }
      ],
      "stateMutability": "payable",
      "type": "constructor"
    },
    {
      "anonymous": false,
      "inputs": [
        {
          "indexed": false,
          "internalType": "string",
          "name": "",
          "type": "string"
        },
        {
          "indexed": false,
          "internalType": "address",
          "name": "",
          "type": "address"
        }
      ],
      "name": "_AddEntityValidationIdEvent",
      "type": "event"
    },
    {
      "anonymous": false,
      "inputs": [
        {
          "indexed": false,
          "internalType": "string",
          "name": "",
          "type": "string"
        },
        {
          "indexed": false,
          "internalType": "address",
          "name": "",
          "type": "address"
        }
      ],
      "name": "_RemoveEntityValidationIdEvent",
      "type": "event"
    },
    {
      "inputs": [
        {
          "internalType": "address",
          "name": "owner",
          "type": "address"
        },
        {
          "internalType": "string",
          "name": "ownerInfo",
          "type": "string"
        }
      ],
      "name": "addOwner",
      "outputs": [],
      "stateMutability": "nonpayable",
      "type": "function"
    },
    {
      "inputs": [
        {
          "internalType": "address",
          "name": "owner",
          "type": "address"
        }
      ],
      "name": "isOwner",
      "outputs": [
        {
          "internalType": "bool",
          "name": "",
          "type": "bool"
        }
      ],
      "stateMutability": "view",
      "type": "function"
    },
    {
      "inputs": [
        {
          "internalType": "address",
          "name": "owner",
          "type": "address"
        }
      ],
      "name": "removeOwner",
      "outputs": [],
      "stateMutability": "nonpayable",
      "type": "function"
    },
    {
      "inputs": [],
      "name": "retrieveAllOwners",
      "outputs": [
        {
          "internalType": "address[]",
          "name": "",
          "type": "address[]"
        }
      ],
      "stateMutability": "view",
      "type": "function"
    },
    {
      "inputs": [],
      "name": "retrieveMinOwners",
      "outputs": [
        {
          "internalType": "uint256",
          "name": "",
          "type": "uint256"
        }
      ],
      "stateMutability": "view",
      "type": "function"
    },
    {
      "inputs": [
        {
          "internalType": "address",
          "name": "owner",
          "type": "address"
        }
      ],
      "name": "retrieveOwner",
      "outputs": [
        {
          "internalType": "string",
          "name": "",
          "type": "string"
        },
        {
          "internalType": "bool",
          "name": "",
          "type": "bool"
        }
      ],
      "stateMutability": "view",
      "type": "function"
    },
    {
      "inputs": [
        {
          "internalType": "bool",
          "name": "addedORremove",
          "type": "bool"
        }
      ],
      "name": "retrievePendingOwners",
      "outputs": [
        {
          "internalType": "address[]",
          "name": "",
          "type": "address[]"
        },
        {
          "internalType": "string[]",
          "name": "",
          "type": "string[]"
        }
      ],
      "stateMutability": "view",
      "type": "function"
    },
    {
      "inputs": [
        {
          "internalType": "address",
          "name": "owner",
          "type": "address"
        },
        {
          "internalType": "bool",
          "name": "addedORremove",
          "type": "bool"
        }
      ],
      "name": "validateOwner",
      "outputs": [],
      "stateMutability": "nonpayable",
      "type": "function"
    },
    {
      "stateMutability": "payable",
      "type": "receive"
    },
    {
      "inputs": [
        {
          "internalType": "address",
          "name": "pool",
          "type": "address"
        },
        {
          "internalType": "string",
          "name": "poolInfo",
          "type": "string"
        },
        {
          "internalType": "uint256",
          "name": "AddCertificatePrice",
          "type": "uint256"
        },
        {
          "internalType": "uint256",
          "name": "SubscriptionPrice",
          "type": "uint256"
        }
      ],
      "name": "subscribeToPublicPool",
      "outputs": [],
      "stateMutability": "nonpayable",
      "type": "function"
    },
    {
      "inputs": [
        {
          "internalType": "address",
          "name": "pool",
          "type": "address"
        },
        {
          "internalType": "string",
          "name": "poolInfo",
          "type": "string"
        },
        {
          "internalType": "uint256",
          "name": "AddCertificatePrice",
          "type": "uint256"
        }
      ],
      "name": "addPool",
      "outputs": [],
      "stateMutability": "nonpayable",
      "type": "function"
    },
    {
      "inputs": [
        {
          "internalType": "address",
          "name": "pool",
          "type": "address"
        }
      ],
      "name": "removePool",
      "outputs": [],
      "stateMutability": "nonpayable",
      "type": "function"
    },
    {
      "inputs": [
        {
          "internalType": "address",
          "name": "pool",
          "type": "address"
        },
        {
          "internalType": "bool",
          "name": "addedORremove",
          "type": "bool"
        }
      ],
      "name": "validatePool",
      "outputs": [],
      "stateMutability": "nonpayable",
      "type": "function"
    },
    {
      "inputs": [
        {
          "internalType": "address",
          "name": "pool",
          "type": "address"
        }
      ],
      "name": "retrievePool",
      "outputs": [
        {
          "internalType": "string",
          "name": "",
          "type": "string"
        },
        {
          "internalType": "bool",
          "name": "",
          "type": "bool"
        },
        {
          "internalType": "uint256",
          "name": "",
          "type": "uint256"
        }
      ],
      "stateMutability": "view",
      "type": "function"
    },
    {
      "inputs": [],
      "name": "retrieveAllPools",
      "outputs": [
        {
          "internalType": "address[]",
          "name": "",
          "type": "address[]"
        }
      ],
      "stateMutability": "view",
      "type": "function"
    },
    {
      "inputs": [
        {
          "internalType": "address",
          "name": "pool",
          "type": "address"
        }
      ],
      "name": "isPool",
      "outputs": [
        {
          "internalType": "bool",
          "name": "",
          "type": "bool"
        }
      ],
      "stateMutability": "view",
      "type": "function"
    },
    {
      "inputs": [
        {
          "internalType": "address",
          "name": "pool",
          "type": "address"
        },
        {
          "internalType": "bytes32",
          "name": "CertificateHash",
          "type": "bytes32"
        },
        {
          "internalType": "address",
          "name": "holder",
          "type": "address"
        }
      ],
      "name": "addCertificate",
      "outputs": [],
      "stateMutability": "nonpayable",
      "type": "function"
    },
    {
      "inputs": [
        {
          "internalType": "address",
          "name": "pool",
          "type": "address"
        },
        {
          "internalType": "bytes32",
          "name": "CertificateHash",
          "type": "bytes32"
        },
        {
          "internalType": "address",
          "name": "holder",
          "type": "address"
        }
      ],
      "name": "removeCertificate",
      "outputs": [],
      "stateMutability": "nonpayable",
      "type": "function"
    }
  ],
  "bytecode": "0x600560c09081526427bbb732b960d91b60e0526080908152610140604052600461010081815263141bdbdb60e21b6101205260a05262000041916002620003cb565b5060405162003641380380620036418339810160408190526200006491620005c9565b828260026004805480602002602001604051908101604052809291908181526020016000905b8282101562000140578382906000526020600020018054620000ac90620006fd565b80601f0160208091040260200160405190810160405280929190818152602001828054620000da90620006fd565b80156200012b5780601f10620000ff576101008083540402835291602001916200012b565b820191906000526020600020905b8154815290600101906020018083116200010d57829003601f168201915b5050505050815260200190600101906200008a565b50505050600084518411156200018b5760405162461bcd60e51b8152600401620001829060208082526004908201526322a1989b60e11b604082015260600190565b60405180910390fd5b60008411620001c65760405162461bcd60e51b815260040162000182906020808252600490820152634543313760e01b604082015260600190565b81518314620002015760405162461bcd60e51b8152600401620001829060208082526004908201526308a8662760e31b604082015260600190565b60008181555b838110156200028057600280546001018155600052825160039084908390811062000236576200023662000764565b602090810291909101810151825460018101845560009384529282902081516200026a94919091019291909101906200042f565b508062000277816200073a565b91505062000207565b50600184905560005b8551811015620003a5576001600260005481548110620002ad57620002ad62000764565b90600052602060002090600402016000016000888481518110620002d557620002d562000764565b60200260200101516001600160a01b03166001600160a01b0316815260200190815260200160002060000160006101000a81548160ff0219169083151502179055506002600054815481106200032f576200032f62000764565b906000526020600020906004020160010186828151811062000355576200035562000764565b60209081029190910181015182546001810184556000938452919092200180546001600160a01b0319166001600160a01b03909216919091179055806200039c816200073a565b91505062000289565b50508451620003c194506006935060208601925090506200042f565b5050505062000790565b8280548282559060005260206000209081019282156200041d579160200282015b828111156200041d57825180516200040c9184916020909101906200042f565b5091602001919060010190620003ec565b506200042b929150620004ba565b5090565b8280546200043d90620006fd565b90600052602060002090601f016020900481019282620004615760008555620004ac565b82601f106200047c57805160ff1916838001178555620004ac565b82800160010185558215620004ac579182015b82811115620004ac5782518255916020019190600101906200048f565b506200042b929150620004db565b808211156200042b576000620004d18282620004f2565b50600101620004ba565b5b808211156200042b5760008155600101620004dc565b5080546200050090620006fd565b6000825580601f1062000511575050565b601f016020900490600052602060002090810190620005319190620004db565b50565b600082601f8301126200054657600080fd5b81516001600160401b038111156200056257620005626200077a565b602062000578601f8301601f19168201620006ca565b82815285828487010111156200058d57600080fd5b60005b83811015620005ad57858101830151828201840152820162000590565b83811115620005bf5760008385840101525b5095945050505050565b600080600060608486031215620005df57600080fd5b83516001600160401b0380821115620005f757600080fd5b818601915086601f8301126200060c57600080fd5b81516020828211156200062357620006236200077a565b8160051b62000634828201620006ca565b8381528281019086840183880185018d10156200065057600080fd5b600097505b858810156200068e57805193506001600160a01b03841684146200067857600080fd5b8383526001979097019691840191840162000655565b50928a015160408b0151939950975091945050505080821115620006b157600080fd5b50620006c08682870162000534565b9150509250925092565b604051601f8201601f191681016001600160401b0381118282101715620006f557620006f56200077a565b604052919050565b600181811c908216806200071257607f821691505b602082108114156200073457634e487b7160e01b600052602260045260246000fd5b50919050565b60006000198214156200075d57634e487b7160e01b600052601160045260246000fd5b5060010190565b634e487b7160e01b600052603260045260246000fd5b634e487b7160e01b600052604160045260246000fd5b612ea180620007a06000396000f3fe6080604052600436106100d25760003560e01c806314a2ed2f146100de578063173825d9146101005780632d99aaf2146101205780632f54bf6e1461014b57806331af016d1461017b5780633542758f1461019b5780633b7d0946146101bb57806359f8ef32146101db5780635b16ebb7146101fb57806365b973e51461021b5780636b2996041461023957806377bc5a1f146102675780638fbad6f6146102955780638fc2d8ea146102b5578063a93d5ed6146102e4578063dd3ef444146102f9578063f4989e711461031957600080fd5b366100d957005b600080fd5b3480156100ea57600080fd5b506100fe6100f93660046127c2565b610339565b005b34801561010c57600080fd5b506100fe61011b366004612770565b61034b565b34801561012c57600080fd5b506101356103b4565b6040516101429190612b3c565b60405180910390f35b34801561015757600080fd5b5061016b610166366004612770565b6103c5565b6040519015158152602001610142565b34801561018757600080fd5b506100fe61019636600461278b565b6103d9565b3480156101a757600080fd5b506100fe6101b63660046127fe565b6103e9565b3480156101c757600080fd5b506100fe6101d6366004612770565b6103f6565b3480156101e757600080fd5b506100fe6101f63660046128a1565b610404565b34801561020757600080fd5b5061016b610216366004612770565b61049d565b34801561022757600080fd5b50600154604051908152602001610142565b34801561024557600080fd5b506102596102543660046129aa565b6104aa565b604051610142929190612b4f565b34801561027357600080fd5b50610287610282366004612770565b6104c2565b604051610142929190612bd8565b3480156102a157600080fd5b506100fe6102b036600461278b565b6104d2565b3480156102c157600080fd5b506102d56102d0366004612770565b6104df565b60405161014293929190612bfc565b3480156102f057600080fd5b50610135610518565b34801561030557600080fd5b506100fe61031436600461284b565b610525565b34801561032557600080fd5b506100fe6103343660046127c2565b610532565b610346838383600161053b565b505050565b600154600161035b600054610a20565b516103669190612d82565b808211156103a85760405162461bcd60e51b815260040161039f906020808252600490820152634543313960e01b604082015260600190565b60405180910390fd5b61034683600054610b58565b60606103c06001610a20565b905090565b60006103d382600054610d1e565b92915050565b6103e582600183610e16565b5050565b6103e582826000546118c9565b610401816001610b58565b50565b61041084848484611aa6565b6104198461049d565b151560011415610497576001600160a01b0384166000818152600860205260409081902054905162fc000560e81b815286929163fc00050091610463903090600690600401612b10565b6000604051808303818588803b15801561047c57600080fd5b505af1158015610490573d6000803e3d6000fd5b5050505050505b50505050565b60006103d3826001610d1e565b6060806104b983600054611b12565b91509150915091565b606060006104b983600054611d94565b6103e58260005483610e16565b6060600080606060006104f186611f27565b6001600160a01b039790971660009081526007602052604090205490979095509350505050565b60606103c0600054610a20565b6103468383836000611aa6565b61034683838360005b836105458161049d565b151560011461055357600080fd5b61055f33600054610d1e565b15156001146105805760405162461bcd60e51b815260040161039f90612ca4565b6001600160a01b0380861660009081526005602090815260408083209387168352928152828220878352815290829020825160808101909352805460ff1615158352600181018054869493840191906105d890612dc5565b80601f016020809104026020016040519081016040528092919081815260200182805461060490612dc5565b80156106515780601f1061062657610100808354040283529160200191610651565b820191906000526020600020905b81548152906001019060200180831161063457829003601f168201915b50505050508152602001600282018054806020026020016040519081016040528092919081815260200182805480156106b357602002820191906000526020600020905b81546001600160a01b03168152600190910190602001808311610695575b505050505081526020016003820180548060200260200160405190810160405280929190818152602001828054801561071557602002820191906000526020600020905b81546001600160a01b031681526001909101906020018083116106f7575b505050919092525050506001821515141561075a57610738338260400151611f36565b156107555760405162461bcd60e51b815260040161039f90612c69565b610785565b610768338260600151611f36565b156107855760405162461bcd60e51b815260040161039f90612c69565b600084156107ea57506001600160a01b03878116600090815260056020908152604080832093891683529281528282208983528152918120600201805460018101825581835292822090920180546001600160a01b0319163317905587905254610843565b506001600160a01b03878116600090815260056020908152604080832093891683529281528282208983528152918120600301805460018101825581835292822090920180546001600160a01b03191633179055879052545b61084f81600154611f9c565b15610a16576000806108608a611f27565b509050806040516020016108749190612af4565b604051602081830303815290604052805190602001206040516020016108a790665072697661746560c81b815260070190565b6040516020818303038152906040528051906020012014156108cb578991506108cf565b8991505b861561094f576001600160a01b038a81166000908152600760205260409081902054905163035700ff60e31b815291841691631ab807f89190610918908d908d90600401612bc1565b6000604051808303818588803b15801561093157600080fd5b505af1158015610945573d6000803e3d6000fd5b50505050506109b0565b60405163539ed94560e11b81526001600160a01b0383169063a73db28a9061097d908c908c90600401612bc1565b600060405180830381600087803b15801561099757600080fd5b505af11580156109ab573d6000803e3d6000fd5b505050505b6001600160a01b03808b166000908152600560209081526040808320938c1683529281528282208c83529052908120805460ff19168155906109f5600183018261259f565b610a036002830160006125d9565b610a116003830160006125d9565b505050505b5050505050505050565b60025460405163123bd07560e11b8152606091839173__Library_______________________________90632477a0ea90610a619085908590600401612d2c565b60206040518083038186803b158015610a7957600080fd5b505af4158015610a8d573d6000803e3d6000fd5b505050506040513d601f19601f82011682018060405250810190610ab191906129c7565b1515600114610ad25760405162461bcd60e51b815260040161039f90612cc1565b60028481548110610ae557610ae5612e31565b9060005260206000209060040201600101805480602002602001604051908101604052809291908181526020018280548015610b4a57602002820191906000526020600020905b81546001600160a01b03168152600190910190602001808311610b2c575b505050505092505050919050565b60025460405163123bd07560e11b815282919073__Library_______________________________90632477a0ea90610b979085908590600401612d2c565b60206040518083038186803b158015610baf57600080fd5b505af4158015610bc3573d6000803e3d6000fd5b505050506040513d601f19601f82011682018060405250810190610be791906129c7565b1515600114610c085760405162461bcd60e51b815260040161039f90612cc1565b60018484610c168282610d1e565b1515600114610c4d5760405162461bcd60e51b815260206004820152600360248201526245433760e81b604482015260640161039f565b6000878782610c79565b15610c745760405162461bcd60e51b815260040161039f90612c4b565b610cb3565b83610c8857610c578383612153565b610c928383612153565b1515600114610cb35760405162461bcd60e51b815260040161039f90612c86565b60028a81548110610cc657610cc6612e31565b6000918252602080832060049290920290910160030180546001810182559083529082200180546001600160a01b0319166001600160a01b038e16179055610d11908c908c90610e16565b5050505050505050505050565b60025460405163123bd07560e11b8152600091839173__Library_______________________________90632477a0ea90610d5f9085908590600401612d2c565b60206040518083038186803b158015610d7757600080fd5b505af4158015610d8b573d6000803e3d6000fd5b505050506040513d601f19601f82011682018060405250810190610daf91906129c7565b1515600114610dd05760405162461bcd60e51b815260040161039f90612cc1565b60028481548110610de357610de3612e31565b600091825260208083206001600160a01b038916845260049092029091019052604090205460ff1692505b505092915050565b60025460405163123bd07560e11b815283919073__Library_______________________________90632477a0ea90610e559085908590600401612d2c565b60206040518083038186803b158015610e6d57600080fd5b505af4158015610e81573d6000803e3d6000fd5b505050506040513d601f19601f82011682018060405250810190610ea591906129c7565b1515600114610ec65760405162461bcd60e51b815260040161039f90612cc1565b610ed233600054610d1e565b1515600114610ef35760405162461bcd60e51b815260040161039f90612ca4565b6001858585801515841415610f5e5783610f3357610f118383611fb7565b15610f2e5760405162461bcd60e51b815260040161039f90612c4b565b610f98565b610f3d8383611fb7565b1515600114610f2e5760405162461bcd60e51b815260040161039f90612c86565b83610f6d57610f118383612153565b610f778383612153565b1515600114610f985760405162461bcd60e51b815260040161039f90612c86565b8660028981548110610fac57610fac612e31565b600091825260208083206001600160a01b038e16845260049092029091018152604091829020825160808101909352805460ff16151583526001810180549192840191610ff890612dc5565b80601f016020809104026020016040519081016040528092919081815260200182805461102490612dc5565b80156110715780601f1061104657610100808354040283529160200191611071565b820191906000526020600020905b81548152906001019060200180831161105457829003601f168201915b50505050508152602001600282018054806020026020016040519081016040528092919081815260200182805480156110d357602002820191906000526020600020905b81546001600160a01b031681526001909101906020018083116110b5575b505050505081526020016003820180548060200260200160405190810160405280929190818152602001828054801561113557602002820191906000526020600020905b81546001600160a01b03168152600190910190602001808311611117575b505050919092525050506001821515141561117a57611158338260400151611f36565b156111755760405162461bcd60e51b815260040161039f90612c69565b6111a5565b611188338260600151611f36565b156111a55760405162461bcd60e51b815260040161039f90612c69565b88156114bb5760028a815481106111be576111be612e31565b600091825260208083206001600160a01b038f168452600490920290910181526040822060029081018054600181018255908452919092200180546001600160a01b03191633179055805461126191908c90811061121e5761121e612e31565b906000526020600020906004020160000160008d6001600160a01b03166001600160a01b0316815260200190815260200160002060020180549050600154611f9c565b156114b657600160028b8154811061127b5761127b612e31565b906000526020600020906004020160000160008d6001600160a01b03166001600160a01b0316815260200190815260200160002060000160006101000a81548160ff02191690831515021790555060028a815481106112dc576112dc612e31565b60009182526020808320600160049093020182018054928301815583529091200180546001600160a01b038d166001600160a01b031990911617905560028054611428916113a6918e91908e90811061133757611337612e31565b906000526020600020906004020160020180548060200260200160405190810160405280929190818152602001828054801561139c57602002820191906000526020600020905b81546001600160a01b0316815260019091019060200180831161137e575b50505050506122e2565b60028c815481106113b9576113b9612e31565b906000526020600020906004020160020180548060200260200160405190810160405280929190818152602001828054801561141e57602002820191906000526020600020905b81546001600160a01b03168152600190910190602001808311611400575b5050505050612306565b60028b8154811061143b5761143b612e31565b9060005260206000209060040201600201908051906020019061145f9291906125f7565b507f3c139d46a211844e248647688545a37c07c505c999c1232d1247c707dc0a91e260038b8154811061149457611494612e31565b906000526020600020018c6040516114ad929190612c21565b60405180910390a15b610d11565b60028a815481106114ce576114ce612e31565b600091825260208083206001600160a01b038f1684526004909202909101815260408220600301805460018101825590835291200180546001600160a01b031916331790556002805461156f91908c90811061152c5761152c612e31565b906000526020600020906004020160000160008d6001600160a01b03166001600160a01b0316815260200190815260200160002060030180549050600154611f9c565b15610d115761167b6115fb8c60028d8154811061158e5761158e612e31565b906000526020600020906004020160010180548060200260200160405190810160405280929190818152602001828054801561139c576020028201919060005260206000209081546001600160a01b0316815260019091019060200180831161137e5750505050506122e2565b60028c8154811061160e5761160e612e31565b906000526020600020906004020160010180548060200260200160405190810160405280929190818152602001828054801561141e576020028201919060005260206000209081546001600160a01b03168152600190910190602001808311611400575050505050612306565b60028b8154811061168e5761168e612e31565b906000526020600020906004020160010190805190602001906116b29291906125f7565b506117ba61173a8c60028d815481106116cd576116cd612e31565b906000526020600020906004020160030180548060200260200160405190810160405280929190818152602001828054801561139c576020028201919060005260206000209081546001600160a01b0316815260019091019060200180831161137e5750505050506122e2565b60028c8154811061174d5761174d612e31565b906000526020600020906004020160030180548060200260200160405190810160405280929190818152602001828054801561141e576020028201919060005260206000209081546001600160a01b03168152600190910190602001808311611400575050505050612306565b60028b815481106117cd576117cd612e31565b906000526020600020906004020160030190805190602001906117f19291906125f7565b5060028a8154811061180557611805612e31565b600091825260208083206001600160a01b038f1684526004909202909101905260408120805460ff191681559061183f600183018261259f565b61184d6002830160006125d9565b61185b6003830160006125d9565b50506118678b8b6123a5565b7f1f62d535f971041db7bd8760bf0f1f9f476461558744a35c0d477b5ad6893e8960038b8154811061189b5761189b612e31565b906000526020600020018c6040516118b4929190612c21565b60405180910390a15050505050505050505050565b60025460405163123bd07560e11b815282919073__Library_______________________________90632477a0ea906119089085908590600401612d2c565b60206040518083038186803b15801561192057600080fd5b505af4158015611934573d6000803e3d6000fd5b505050506040513d601f19601f8201168201806040525081019061195891906129c7565b15156001146119795760405162461bcd60e51b815260040161039f90612cc1565b600085846119878282610d1e565b156119ba5760405162461bcd60e51b815260206004820152600360248201526222a19b60e91b604482015260640161039f565b6000888760016119ca8383611fb7565b156119e75760405162461bcd60e51b815260040161039f90612c4b565b8a60028b815481106119fb576119fb612e31565b906000526020600020906004020160000160008e6001600160a01b03166001600160a01b031681526020019081526020016000206001019080519060200190611a4592919061265c565b5060028a81548110611a5957611a59612e31565b60009182526020808320600492909202909101600201805460018082018355918452919092200180546001600160a01b0319166001600160a01b038f16179055610a11908d908c90610e16565b611ab2848460016118c9565b6001600160a01b03841660009081526009602052604090205460ff16610497576001600160a01b03841660009081526007602090815260408083208590556008825280832084905560099091529020805460ff1916600117905550505050565b60025460405163123bd07560e11b8152606091829184919073__Library_______________________________90632477a0ea90611b569085908590600401612d2c565b60206040518083038186803b158015611b6e57600080fd5b505af4158015611b82573d6000803e3d6000fd5b505050506040513d601f19601f82011682018060405250810190611ba691906129c7565b1515600114611bc75760405162461bcd60e51b815260040161039f90612cc1565b60608615611c535760028681548110611be257611be2612e31565b9060005260206000209060040201600201805480602002602001604051908101604052809291908181526020018280548015611c4757602002820191906000526020600020905b81546001600160a01b03168152600190910190602001808311611c29575b50505050509050611cd3565b60028681548110611c6657611c66612e31565b9060005260206000209060040201600301805480602002602001604051908101604052809291908181526020018280548015611ccb57602002820191906000526020600020905b81546001600160a01b03168152600190910190602001808311611cad575b505050505090505b6002546000906001600160401b03811115611cf057611cf0612e47565b604051908082528060200260200182016040528015611d2357816020015b6060815260200190600190039081611d0e5790505b50905060005b8251811015611d8657611d55838281518110611d4757611d47612e31565b602002602001015189611d94565b50828281518110611d6857611d68612e31565b60200260200101819052508080611d7e90612e00565b915050611d29565b509097909650945050505050565b60025460405163123bd07560e11b815260609160009184919073__Library_______________________________90632477a0ea90611dd99085908590600401612d2c565b60206040518083038186803b158015611df157600080fd5b505af4158015611e05573d6000803e3d6000fd5b505050506040513d601f19601f82011682018060405250810190611e2991906129c7565b1515600114611e4a5760405162461bcd60e51b815260040161039f90612cc1565b60028581548110611e5d57611e5d612e31565b600091825260208083206001600160a01b038a1684526004909202909101905260409020600101611e8e8787610d1e565b818054611e9a90612dc5565b80601f0160208091040260200160405190810160405280929190818152602001828054611ec690612dc5565b8015611f135780601f10611ee857610100808354040283529160200191611f13565b820191906000526020600020905b815481529060010190602001808311611ef657829003601f168201915b505050505091509350935050509250929050565b606060006104b9836001611d94565b6000805b8251811015611f9257828181518110611f5557611f55612e31565b60200260200101516001600160a01b0316846001600160a01b03161415611f805760019150506103d3565b80611f8a81612e00565b915050611f3a565b5060009392505050565b600081831015611fae575060006103d3565b50600192915050565b60025460405163123bd07560e11b8152600091839173__Library_______________________________90632477a0ea90611ff89085908590600401612d2c565b60206040518083038186803b15801561201057600080fd5b505af4158015612024573d6000803e3d6000fd5b505050506040513d601f19601f8201168201806040525081019061204891906129c7565b15156001146120695760405162461bcd60e51b815260040161039f90612cc1565b60006002858154811061207e5761207e612e31565b90600052602060002090600402016002018054806020026020016040519081016040528092919081815260200182805480156120e357602002820191906000526020600020905b81546001600160a01b031681526001909101906020018083116120c5575b5050505050905060005b81518110156121465781818151811061210857612108612e31565b60200260200101516001600160a01b0316876001600160a01b0316141561213457600194505050610e0e565b8061213e81612e00565b9150506120ed565b5060009695505050505050565b60025460405163123bd07560e11b8152600091839173__Library_______________________________90632477a0ea906121949085908590600401612d2c565b60206040518083038186803b1580156121ac57600080fd5b505af41580156121c0573d6000803e3d6000fd5b505050506040513d601f19601f820116820180604052508101906121e491906129c7565b15156001146122055760405162461bcd60e51b815260040161039f90612cc1565b60006002858154811061221a5761221a612e31565b906000526020600020906004020160030180548060200260200160405190810160405280929190818152602001828054801561227f57602002820191906000526020600020905b81546001600160a01b03168152600190910190602001808311612261575b5050505050905060005b8151811015612146578181815181106122a4576122a4612e31565b60200260200101516001600160a01b0316876001600160a01b031614156122d057600194505050610e0e565b806122da81612e00565b915050612289565b60006122ff6001600160a01b0384166122fa846123e5565b612499565b9392505050565b60606122ff73__Library_______________________________635b28cf638561232f866123e5565b6040518363ffffffff1660e01b815260040161234c929190612cde565b60006040518083038186803b15801561236457600080fd5b505af4158015612378573d6000803e3d6000fd5b505050506040513d6000823e601f3d908101601f191682016040526123a091908101906128fe565b6124ee565b60018114156103e557506001600160a01b03166000908152600960209081526040808320805460ff19169055600782528083208390556008909152812055565b6060600082516001600160401b0381111561240257612402612e47565b60405190808252806020026020018201604052801561242b578160200160208202803683370190505b50905060005b81518110156124925761246384828151811061244f5761244f612e31565b60200260200101516001600160a01b031690565b82828151811061247557612475612e31565b60209081029190910101528061248a81612e00565b915050612431565b5092915050565b6000805b82518110156124e0578281815181106124b8576124b8612e31565b60200260200101518414156124ce5790506103d3565b806124d881612e00565b91505061249d565b5081516122ff906001612d6a565b6060600082516001600160401b0381111561250b5761250b612e47565b604051908082528060200260200182016040528015612534578160200160208202803683370190505b50905060005b81518110156124925761256384828151811061255857612558612e31565b602002602001015190565b82828151811061257557612575612e31565b6001600160a01b03909216602092830291909101909101528061259781612e00565b91505061253a565b5080546125ab90612dc5565b6000825580601f106125bb575050565b601f01602090049060005260206000209081019061040191906126d0565b508054600082559060005260206000209081019061040191906126d0565b82805482825590600052602060002090810192821561264c579160200282015b8281111561264c57825182546001600160a01b0319166001600160a01b03909116178255602090920191600190910190612617565b506126589291506126d0565b5090565b82805461266890612dc5565b90600052602060002090601f01602090048101928261268a576000855561264c565b82601f106126a357805160ff191683800117855561264c565b8280016001018555821561264c579182015b8281111561264c5782518255916020019190600101906126b5565b5b8082111561265857600081556001016126d1565b80356001600160a01b03811681146126fc57600080fd5b919050565b600082601f83011261271257600080fd5b81356001600160401b0381111561272b5761272b612e47565b61273e601f8201601f1916602001612d3a565b81815284602083860101111561275357600080fd5b816020850160208301376000918101602001919091529392505050565b60006020828403121561278257600080fd5b6122ff826126e5565b6000806040838503121561279e57600080fd5b6127a7836126e5565b915060208301356127b781612e5d565b809150509250929050565b6000806000606084860312156127d757600080fd5b6127e0846126e5565b9250602084013591506127f5604085016126e5565b90509250925092565b6000806040838503121561281157600080fd5b61281a836126e5565b915060208301356001600160401b0381111561283557600080fd5b61284185828601612701565b9150509250929050565b60008060006060848603121561286057600080fd5b612869846126e5565b925060208401356001600160401b0381111561288457600080fd5b61289086828701612701565b925050604084013590509250925092565b600080600080608085870312156128b757600080fd5b6128c0856126e5565b935060208501356001600160401b038111156128db57600080fd5b6128e787828801612701565b949794965050505060408301359260600135919050565b6000602080838503121561291157600080fd5b82516001600160401b038082111561292857600080fd5b818501915085601f83011261293c57600080fd5b81518181111561294e5761294e612e47565b8060051b915061295f848301612d3a565b8181528481019084860184860187018a101561297a57600080fd5b600095505b8386101561299d57805183526001959095019491860191860161297f565b5098975050505050505050565b6000602082840312156129bc57600080fd5b81356122ff81612e5d565b6000602082840312156129d957600080fd5b81516122ff81612e5d565b600081518084526020808501945080840160005b83811015612a1d5781516001600160a01b0316875295820195908201906001016129f8565b509495945050505050565b60008151808452612a40816020860160208601612d99565b601f01601f19169290920160200192915050565b8054600090600181811c9080831680612a6e57607f831692505b6020808410821415612a9057634e487b7160e01b600052602260045260246000fd5b83885260208801828015612aab5760018114612abc57612ae7565b60ff19871682528282019750612ae7565b60008981526020902060005b87811015612ae157815484820152908601908401612ac8565b83019850505b5050505050505092915050565b60008251612b06818460208701612d99565b9190910192915050565b6001600160a01b0383168152604060208201819052600090612b3490830184612a54565b949350505050565b6020815260006122ff60208301846129e4565b604081526000612b6260408301856129e4565b6020838203818501528185518084528284019150828160051b85010183880160005b83811015612bb257601f19878403018552612ba0838351612a28565b94860194925090850190600101612b84565b50909998505050505050505050565b9182526001600160a01b0316602082015260400190565b604081526000612beb6040830185612a28565b905082151560208301529392505050565b606081526000612c0f6060830186612a28565b93151560208301525060400152919050565b604081526000612c346040830185612a54565b905060018060a01b03831660208301529392505050565b6020808252600490820152634543323760e01b604082015260600190565b60208082526003908201526245433560e81b604082015260600190565b60208082526004908201526308a8664760e31b604082015260600190565b60208082526003908201526245433960e81b604082015260600190565b60208082526003908201526245433160e81b604082015260600190565b6000604082018483526020604081850152818551808452606086019150828701935060005b81811015612d1f57845183529383019391830191600101612d03565b5090979650505050505050565b918252602082015260400190565b604051601f8201601f191681016001600160401b0381118282101715612d6257612d62612e47565b604052919050565b60008219821115612d7d57612d7d612e1b565b500190565b600082821015612d9457612d94612e1b565b500390565b60005b83811015612db4578181015183820152602001612d9c565b838111156104975750506000910152565b600181811c90821680612dd957607f821691505b60208210811415612dfa57634e487b7160e01b600052602260045260246000fd5b50919050565b6000600019821415612e1457612e14612e1b565b5060010190565b634e487b7160e01b600052601160045260246000fd5b634e487b7160e01b600052603260045260246000fd5b634e487b7160e01b600052604160045260246000fd5b801515811461040157600080fdfea26469706673582212201d9604f076f5c62a7712c7d98879524aa726fd25a6f27c1dbea893811f22b6cc64736f6c63430008060033",
  "immutableReferences": {},
  "source": "// SPDX-License-Identifier: GPL-3.0\r\n\r\npragma solidity >=0.7.0 <0.9.0;\r\npragma experimental ABIEncoderV2;\r\n\r\n/**\r\n * @title Storage\r\n * @dev Store & retrieve value in a variable\r\n */\r\n import \"./Libraries/Library.sol\";\r\n import \"./Interfaces/IProvider.sol\";\r\n import \"./Abstract/MultiSigContract.sol\";\r\n import \"./PrivateCertificatesPool.sol\";\r\n import \"./PublicCertificatesPool.sol\";\r\n\r\n\r\n contract Provider is IProvider, MultiSigContract {\r\n    using Library for *;\r\n\r\n    uint256 constant TotalEntities = 2;\r\n\r\n    // Owners\r\n    uint256 constant _ownerIdProviders = 0;\r\n    string constant _ownerLabel = \"Owner\";\r\n\r\n    // Pools\r\n    uint256 constant _poolId = 1;\r\n    string constant _poolLabel = \"Pool\";\r\n\r\n    string[] _Label = [_ownerLabel, _poolLabel];\r\n    \r\n    struct _CertificateStruct{\r\n        mapping(bytes32 => _entityIdentity) _cert;\r\n    }\r\n    \r\n    struct _CertificatesPerHolderStruct{\r\n        mapping(address => _CertificateStruct) _CertificatesPerHolder;\r\n    }\r\n   \r\n    mapping(address => _CertificatesPerHolderStruct) _CertificatesPerPool;\r\n    string _ProviderInfo;\r\n\r\n    mapping(address => uint256) _AddCertificatePricePerPool;\r\n    mapping(address => uint256) _SubscriptionPricePerPool;\r\n    mapping(address => bool) _submited;\r\n\r\n    // modifiers\r\n    modifier isAPool(address pool){\r\n        require(true == isPool(pool));\r\n        _;\r\n    }\r\n\r\n     // Constructor\r\n    constructor(address[] memory owners,  uint256 minOwners, string memory ProviderInfo) \r\n        MultiSigContract(owners, minOwners, TotalEntities, _Label, _ownerIdProviders)\r\n    payable\r\n    {\r\n        _ProviderInfo = ProviderInfo;\r\n    }\r\n\r\n    // POOL CRUD Operations\r\n    function subscribeToPublicPool(address pool, string memory poolInfo, uint256 AddCertificatePrice, uint256 SubscriptionPrice) external override{\r\n        InternaladdPool(pool, poolInfo, AddCertificatePrice, SubscriptionPrice);\r\n        if(true == isPool(pool)){\r\n            MultiSigCertificatesPool poolToSubscribe = PublicCertificatesPool(pool);\r\n            poolToSubscribe.addProvider{value:_SubscriptionPricePerPool[pool]}(address(this), _ProviderInfo);\r\n        }\r\n    }\r\n\r\n    function addPool(address pool, string memory poolInfo, uint256 AddCertificatePrice) external override{\r\n        InternaladdPool(pool, poolInfo, AddCertificatePrice, 0);\r\n    }\r\n\r\n    function InternaladdPool(address pool, string memory poolInfo, uint256 AddCertificatePrice, uint256 SubscriptionPrice) internal{\r\n        addEntity(pool, poolInfo, _poolId);\r\n        if(false == _submited[pool]){\r\n            _AddCertificatePricePerPool[pool] = AddCertificatePrice;\r\n            _SubscriptionPricePerPool[pool] = SubscriptionPrice;\r\n            _submited[pool] = true;\r\n        }\r\n    }\r\n\r\n    function removePool(address pool) external override{\r\n       removeEntity(pool, _poolId); \r\n    }\r\n\r\n    function validatePool(address pool, bool addedORremove) external override{\r\n        validateEntity(pool, _poolId, addedORremove);\r\n    }\r\n\r\n    function onEntityAdded(address entity, uint listId) internal override\r\n    {}\r\n\r\n    function onEntityRemoved(address entity, uint listId) internal override\r\n    {\r\n        if(listId == _poolId){\r\n            delete(_submited[entity]);\r\n            delete(_AddCertificatePricePerPool[entity]);\r\n            delete(_SubscriptionPricePerPool[entity]);\r\n        }\r\n    }\r\n    \r\n    function retrievePool(address pool) external override view returns (string memory, bool, uint256){\r\n        string memory poolInfo;\r\n        bool isActivated;\r\n\r\n        (poolInfo, isActivated) = InternalRetrievePool(pool);\r\n        return (poolInfo, isActivated, _AddCertificatePricePerPool[pool]);\r\n    }\r\n    \r\n    function InternalRetrievePool(address pool) internal view returns (string memory, bool){\r\n        return retrieveEntity(pool, _poolId);\r\n    }\r\n\r\n    function retrieveAllPools() external override view returns (address[] memory){\r\n        return retrieveAllEntities(_poolId);\r\n    }\r\n\r\n    function isPool(address pool) public view returns (bool){\r\n        return(isEntity(pool, _poolId));\r\n    }\r\n    \r\n    // Certificates management\r\n     function addCertificate(address pool, bytes32 CertificateHash, address holder) external override\r\n     {\r\n        manipulateCertificate(pool, CertificateHash, holder, true);\r\n     }\r\n     \r\n     function removeCertificate(address pool, bytes32 CertificateHash, address holder) external override\r\n     {\r\n         manipulateCertificate(pool, CertificateHash, holder, false);\r\n     }\r\n\r\n    \r\n    function manipulateCertificate(address pool, bytes32 CertificateHash, address holder, bool addOrRemove) \r\n        isAPool(pool)\r\n        isAnOwner\r\n        HasNotAlreadyVoted(addOrRemove, _CertificatesPerPool[pool]._CertificatesPerHolder[holder]._cert[CertificateHash])\r\n    internal{\r\n        \r\n        uint validations;\r\n        \r\n        if(addOrRemove){\r\n            _CertificatesPerPool[pool]._CertificatesPerHolder[holder]._cert[CertificateHash]._AddValidated.push(msg.sender);\r\n            validations = _CertificatesPerPool[pool]._CertificatesPerHolder[holder]._cert[CertificateHash]._AddValidated.length;\r\n        }\r\n        else{\r\n            _CertificatesPerPool[pool]._CertificatesPerHolder[holder]._cert[CertificateHash]._RemoveValidated.push(msg.sender);\r\n            validations = _CertificatesPerPool[pool]._CertificatesPerHolder[holder]._cert[CertificateHash]._RemoveValidated.length;\r\n        }\r\n\r\n        if(Library.CheckValidations(validations, _minOwners)){\r\n            MultiSigCertificatesPool poolToSend;\r\n            (string memory p ,) = InternalRetrievePool(pool);\r\n            \r\n            if(keccak256(abi.encodePacked(\"Private\")) == keccak256(abi.encodePacked((p)))){\r\n                poolToSend = PrivateCertificatesPool(pool);\r\n            }\r\n            else {\r\n                poolToSend = PublicCertificatesPool(pool);\r\n            }\r\n            \r\n            \r\n            if(addOrRemove){\r\n                poolToSend.addCertificate{value:_AddCertificatePricePerPool[pool]}(CertificateHash, holder);\r\n            }\r\n            else{\r\n               poolToSend.removeCertificate(CertificateHash, holder);\r\n            }\r\n            \r\n            delete(_CertificatesPerPool[pool]._CertificatesPerHolder[holder]._cert[CertificateHash]);\r\n            \r\n        }\r\n    }\r\n\r\n    \r\n    receive() external override payable{}\r\n    \r\n }",
  "sourcePath": "C:/Users/d-aam/GitHub/Certificates/contracts/Provider.sol",
  "compiler": {
    "name": "solc",
    "version": "0.8.6+commit.11564f7e.Emscripten.clang"
  },
  "schemaVersion": "3.3.4",
  "updatedAt": "2021-07-23T15:12:56.285Z",
  "devdoc": {
    "kind": "dev",
    "methods": {},
    "version": 1
  },
  "userdoc": {
    "kind": "user",
    "methods": {},
    "version": 1
  }
}