{
  "contractName": "Provider",
  "abi": [
    {
      "inputs": [
        {
          "internalType": "address[]",
          "name": "owners",
          "type": "address[]"
        },
        {
          "internalType": "uint256",
          "name": "minOwners",
          "type": "uint256"
        },
        {
          "internalType": "uint256",
          "name": "TotalEntities",
          "type": "uint256"
        },
        {
          "internalType": "string[]",
          "name": "labels",
          "type": "string[]"
        },
        {
          "internalType": "uint256",
          "name": "ownerId",
          "type": "uint256"
        }
      ],
      "name": "MultiSigContract_init",
      "outputs": [],
      "stateMutability": "nonpayable",
      "type": "function"
    },
    {
      "inputs": [
        {
          "internalType": "address",
          "name": "owner",
          "type": "address"
        },
        {
          "internalType": "string",
          "name": "ownerInfo",
          "type": "string"
        }
      ],
      "name": "addOwner",
      "outputs": [],
      "stateMutability": "nonpayable",
      "type": "function"
    },
    {
      "inputs": [
        {
          "internalType": "uint256",
          "name": "newMinOwners",
          "type": "uint256"
        }
      ],
      "name": "changeMinOwners",
      "outputs": [],
      "stateMutability": "nonpayable",
      "type": "function"
    },
    {
      "inputs": [],
      "name": "rejectMinOwners",
      "outputs": [],
      "stateMutability": "nonpayable",
      "type": "function"
    },
    {
      "inputs": [
        {
          "internalType": "address",
          "name": "owner",
          "type": "address"
        }
      ],
      "name": "rejectOwner",
      "outputs": [],
      "stateMutability": "nonpayable",
      "type": "function"
    },
    {
      "inputs": [
        {
          "internalType": "address",
          "name": "owner",
          "type": "address"
        }
      ],
      "name": "removeOwner",
      "outputs": [],
      "stateMutability": "nonpayable",
      "type": "function"
    },
    {
      "inputs": [],
      "name": "retrieveAllOwners",
      "outputs": [
        {
          "internalType": "bytes32[]",
          "name": "",
          "type": "bytes32[]"
        }
      ],
      "stateMutability": "view",
      "type": "function",
      "constant": true
    },
    {
      "inputs": [],
      "name": "retrieveMinOwners",
      "outputs": [
        {
          "internalType": "uint256",
          "name": "",
          "type": "uint256"
        }
      ],
      "stateMutability": "view",
      "type": "function",
      "constant": true
    },
    {
      "inputs": [
        {
          "internalType": "address",
          "name": "owner",
          "type": "address"
        }
      ],
      "name": "retrieveOwner",
      "outputs": [
        {
          "components": [
            {
              "internalType": "string",
              "name": "_Info",
              "type": "string"
            },
            {
              "internalType": "bool",
              "name": "_activated",
              "type": "bool"
            },
            {
              "internalType": "uint256",
              "name": "_id",
              "type": "uint256"
            },
            {
              "internalType": "uint256",
              "name": "_pendingId",
              "type": "uint256"
            },
            {
              "internalType": "address[]",
              "name": "_Validations",
              "type": "address[]"
            },
            {
              "internalType": "address[]",
              "name": "_Rejections",
              "type": "address[]"
            }
          ],
          "internalType": "struct ItemsLibrary._itemIdentity",
          "name": "",
          "type": "tuple"
        }
      ],
      "stateMutability": "view",
      "type": "function",
      "constant": true
    },
    {
      "inputs": [],
      "name": "retrievePendingMinOwners",
      "outputs": [
        {
          "internalType": "uint256",
          "name": "",
          "type": "uint256"
        }
      ],
      "stateMutability": "view",
      "type": "function",
      "constant": true
    },
    {
      "inputs": [],
      "name": "retrievePendingMinOwnersStatus",
      "outputs": [
        {
          "internalType": "uint256",
          "name": "",
          "type": "uint256"
        },
        {
          "internalType": "uint256",
          "name": "",
          "type": "uint256"
        },
        {
          "internalType": "address[]",
          "name": "",
          "type": "address[]"
        }
      ],
      "stateMutability": "view",
      "type": "function",
      "constant": true
    },
    {
      "inputs": [
        {
          "internalType": "bool",
          "name": "addedORremove",
          "type": "bool"
        }
      ],
      "name": "retrievePendingOwners",
      "outputs": [
        {
          "internalType": "bytes32[]",
          "name": "",
          "type": "bytes32[]"
        }
      ],
      "stateMutability": "view",
      "type": "function",
      "constant": true
    },
    {
      "inputs": [],
      "name": "validateMinOwners",
      "outputs": [],
      "stateMutability": "nonpayable",
      "type": "function"
    },
    {
      "inputs": [
        {
          "internalType": "address",
          "name": "owner",
          "type": "address"
        }
      ],
      "name": "validateOwner",
      "outputs": [],
      "stateMutability": "nonpayable",
      "type": "function"
    },
    {
      "stateMutability": "payable",
      "type": "receive",
      "payable": true
    },
    {
      "inputs": [
        {
          "internalType": "address[]",
          "name": "owners",
          "type": "address[]"
        },
        {
          "internalType": "uint256",
          "name": "minOwners",
          "type": "uint256"
        },
        {
          "internalType": "string",
          "name": "ProviderInfo",
          "type": "string"
        }
      ],
      "name": "Provider_init",
      "outputs": [],
      "stateMutability": "nonpayable",
      "type": "function"
    },
    {
      "inputs": [
        {
          "internalType": "address",
          "name": "pool",
          "type": "address"
        },
        {
          "internalType": "string",
          "name": "poolInfo",
          "type": "string"
        },
        {
          "internalType": "bool",
          "name": "mustSubscribe",
          "type": "bool"
        }
      ],
      "name": "addPool",
      "outputs": [],
      "stateMutability": "nonpayable",
      "type": "function"
    },
    {
      "inputs": [
        {
          "internalType": "address",
          "name": "pool",
          "type": "address"
        }
      ],
      "name": "removePool",
      "outputs": [],
      "stateMutability": "nonpayable",
      "type": "function"
    },
    {
      "inputs": [
        {
          "internalType": "address",
          "name": "pool",
          "type": "address"
        }
      ],
      "name": "validatePool",
      "outputs": [],
      "stateMutability": "nonpayable",
      "type": "function"
    },
    {
      "inputs": [
        {
          "internalType": "address",
          "name": "pool",
          "type": "address"
        }
      ],
      "name": "rejectPool",
      "outputs": [],
      "stateMutability": "nonpayable",
      "type": "function"
    },
    {
      "inputs": [
        {
          "internalType": "address",
          "name": "pool",
          "type": "address"
        }
      ],
      "name": "retrievePool",
      "outputs": [
        {
          "components": [
            {
              "internalType": "string",
              "name": "_Info",
              "type": "string"
            },
            {
              "internalType": "bool",
              "name": "_activated",
              "type": "bool"
            },
            {
              "internalType": "uint256",
              "name": "_id",
              "type": "uint256"
            },
            {
              "internalType": "uint256",
              "name": "_pendingId",
              "type": "uint256"
            },
            {
              "internalType": "address[]",
              "name": "_Validations",
              "type": "address[]"
            },
            {
              "internalType": "address[]",
              "name": "_Rejections",
              "type": "address[]"
            }
          ],
          "internalType": "struct ItemsLibrary._itemIdentity",
          "name": "",
          "type": "tuple"
        }
      ],
      "stateMutability": "view",
      "type": "function",
      "constant": true
    },
    {
      "inputs": [
        {
          "internalType": "address",
          "name": "pool",
          "type": "address"
        }
      ],
      "name": "retrievePoolConfg",
      "outputs": [
        {
          "internalType": "bool",
          "name": "",
          "type": "bool"
        },
        {
          "internalType": "bool",
          "name": "",
          "type": "bool"
        }
      ],
      "stateMutability": "view",
      "type": "function",
      "constant": true
    },
    {
      "inputs": [],
      "name": "retrieveAllPools",
      "outputs": [
        {
          "internalType": "bytes32[]",
          "name": "",
          "type": "bytes32[]"
        }
      ],
      "stateMutability": "view",
      "type": "function",
      "constant": true
    },
    {
      "inputs": [
        {
          "internalType": "bool",
          "name": "addedORremove",
          "type": "bool"
        }
      ],
      "name": "retrievePendingPools",
      "outputs": [
        {
          "internalType": "bytes32[]",
          "name": "",
          "type": "bytes32[]"
        }
      ],
      "stateMutability": "view",
      "type": "function",
      "constant": true
    },
    {
      "inputs": [
        {
          "internalType": "address",
          "name": "pool",
          "type": "address"
        },
        {
          "internalType": "bytes32",
          "name": "CertificateHash",
          "type": "bytes32"
        },
        {
          "internalType": "address",
          "name": "holder",
          "type": "address"
        }
      ],
      "name": "addCertificate",
      "outputs": [],
      "stateMutability": "nonpayable",
      "type": "function"
    },
    {
      "inputs": [
        {
          "internalType": "address",
          "name": "pool",
          "type": "address"
        },
        {
          "internalType": "bytes32",
          "name": "CertificateHash",
          "type": "bytes32"
        },
        {
          "internalType": "address",
          "name": "holder",
          "type": "address"
        }
      ],
      "name": "validateCertificate",
      "outputs": [],
      "stateMutability": "nonpayable",
      "type": "function"
    },
    {
      "inputs": [
        {
          "internalType": "address",
          "name": "pool",
          "type": "address"
        },
        {
          "internalType": "bytes32",
          "name": "CertificateHash",
          "type": "bytes32"
        },
        {
          "internalType": "address",
          "name": "holder",
          "type": "address"
        }
      ],
      "name": "rejectCertificate",
      "outputs": [],
      "stateMutability": "nonpayable",
      "type": "function"
    },
    {
      "inputs": [],
      "name": "retrievePendingCertificates",
      "outputs": [
        {
          "components": [
            {
              "internalType": "address",
              "name": "pool",
              "type": "address"
            },
            {
              "internalType": "address",
              "name": "holder",
              "type": "address"
            },
            {
              "internalType": "bytes32",
              "name": "certificate",
              "type": "bytes32"
            }
          ],
          "internalType": "struct Library._pendingCertificatesStruct[]",
          "name": "",
          "type": "tuple[]"
        }
      ],
      "stateMutability": "view",
      "type": "function",
      "constant": true
    },
    {
      "inputs": [
        {
          "internalType": "address",
          "name": "pool",
          "type": "address"
        },
        {
          "internalType": "bytes32",
          "name": "CertificateHash",
          "type": "bytes32"
        },
        {
          "internalType": "address",
          "name": "holder",
          "type": "address"
        }
      ],
      "name": "isCertificate",
      "outputs": [
        {
          "internalType": "bool",
          "name": "",
          "type": "bool"
        }
      ],
      "stateMutability": "view",
      "type": "function",
      "constant": true
    },
    {
      "inputs": [
        {
          "internalType": "bytes32",
          "name": "item",
          "type": "bytes32"
        },
        {
          "internalType": "uint256[]",
          "name": "ids",
          "type": "uint256[]"
        },
        {
          "internalType": "bool",
          "name": "addOrRemove",
          "type": "bool"
        }
      ],
      "name": "onItemValidated",
      "outputs": [],
      "stateMutability": "nonpayable",
      "type": "function"
    },
    {
      "inputs": [
        {
          "internalType": "bytes32",
          "name": "item",
          "type": "bytes32"
        },
        {
          "internalType": "uint256[]",
          "name": "ids",
          "type": "uint256[]"
        },
        {
          "internalType": "bool",
          "name": "addOrRemove",
          "type": "bool"
        }
      ],
      "name": "onItemRejected",
      "outputs": [],
      "stateMutability": "nonpayable",
      "type": "function"
    }
  ],
  "bytecode": "0x608060405234801561001057600080fd5b5061405e806100206000396000f3fe6080604052600436106101615760003560e01c8063017cb3db1461016d57806314a2ed2f1461018f578063173825d9146101af5780632d99aaf2146101cf5780632edbe7fc146101fa57806330ade922146102195780633542758f1461022e5780633b7d09461461024e5780633fd071811461026e578063530467461461028e5780635888ebb3146102ae57806365b973e5146102d25780636b299604146102e757806376f8f90f1461030757806377bc5a1f146103275780637c8c2add146103545780638fc2d8ea1461037457806391d5909314610394578063a44bff2b146103f5578063a706752c14610415578063a93d5ed614610445578063bd9f37051461045a578063c3079ae71461047a578063c66433ea1461048f578063cd019e07146104af578063ce33d58a146104d1578063cf2041d9146104f1578063d920928914610511578063f804938214610531578063fb1f69171461055157600080fd5b3661016857005b600080fd5b34801561017957600080fd5b5061018d6101883660046134dc565b610571565b005b34801561019b57600080fd5b5061018d6101aa3660046134dc565b610645565b3480156101bb57600080fd5b5061018d6101ca3660046134a2565b6106d8565b3480156101db57600080fd5b506101e4610724565b6040516101f19190613b36565b60405180910390f35b34801561020657600080fd5b506005545b6040519081526020016101f1565b34801561022557600080fd5b5061018d610735565b34801561023a57600080fd5b5061018d61024936600461351e565b610837565b34801561025a57600080fd5b5061018d6102693660046134a2565b610845565b34801561027a57600080fd5b5061018d610289366004613822565b610850565b34801561029a57600080fd5b5061018d6102a9366004613572565b61096c565b3480156102ba57600080fd5b506102c36109d6565b6040516101f193929190613e3b565b3480156102de57600080fd5b5060015461020b565b3480156102f357600080fd5b506101e46103023660046137cf565b610a4a565b34801561031357600080fd5b5061018d6103223660046134a2565b610a5e565b34801561033357600080fd5b506103476103423660046134a2565b610ab9565b6040516101f19190613d09565b34801561036057600080fd5b5061018d61036f366004613822565b610acd565b34801561038057600080fd5b5061034761038f3660046134a2565b610e27565b3480156103a057600080fd5b506103de6103af3660046134a2565b6001600160a01b0316600090815260096020908152604080832054600a9092529091205460ff91821692911690565b6040805192151583529015156020830152016101f1565b34801561040157600080fd5b5061018d6104103660046135d9565b610e3a565b34801561042157600080fd5b506104356104303660046134dc565b61107a565b60405190151581526020016101f1565b34801561045157600080fd5b506101e4611091565b34801561046657600080fd5b5061018d6104753660046134dc565b61109e565b34801561048657600080fd5b5061018d611131565b34801561049b57600080fd5b5061018d6104aa366004613981565b611230565b3480156104bb57600080fd5b506104c461131b565b6040516101f19190613b7a565b3480156104dd57600080fd5b5061018d6104ec3660046134a2565b6113a2565b3480156104fd57600080fd5b5061018d61050c366004613645565b6113ae565b34801561051d57600080fd5b5061018d61052c3660046134a2565b61165c565b34801561053d57600080fd5b506101e461054c3660046137cf565b611667565b34801561055d57600080fd5b5061018d61056c3660046134a2565b611674565b8261057b8161167f565b151560011461058957600080fd5b61059533600054611688565b15156001146105bf5760405162461bcd60e51b81526004016105b690613ccd565b60405180910390fd5b6000806105cd868686611879565b604051635cb09bcf60e01b8152919350915073__ItemsLibrary__________________________90635cb09bcf9061060d90859085903090600401613d8a565b60006040518083038186803b15801561062557600080fd5b505af4158015610639573d6000803e3d6000fd5b50505050505050505050565b8261064f8161167f565b151560011461065d57600080fd5b61066933600054611688565b151560011461068a5760405162461bcd60e51b81526004016105b690613ccd565b600080610698868686611879565b6040516305cc2d5560e11b8152919350915073__ItemsLibrary__________________________90630b985aaa9061060d90859085903090600401613d8a565b60015460016106e860005461190a565b516106f39190613f14565b808211156107135760405162461bcd60e51b81526004016105b690613c22565b61071f83600054611a71565b505050565b6060610730600161190a565b905090565b61074133600054611688565b15156001146107625760405162461bcd60e51b81526004016105b690613ccd565b60016005546107835760405162461bcd60e51b81526004016105b690613c41565b60405163f7cf62d760e01b815273__AddressLibrary________________________9063f7cf62d7906107bd903390600890600401613a1e565b60206040518083038186803b1580156107d557600080fd5b505af41580156107e9573d6000803e3d6000fd5b505050506040513d601f19601f8201168201806040525081019061080d91906137ec565b1561082a5760405162461bcd60e51b81526004016105b690613ceb565b6108346001611bab565b50565b61071f838383600054611c32565b610834816001611a71565b61085c84848484611dce565b60018383600081811061087157610871613fd9565b90506020020135141561092057604051631e99d35d60e31b81526004810185905260009073__AddressLibrary________________________9063f4ce9ae89060240160206040518083038186803b1580156108cc57600080fd5b505af41580156108e0573d6000803e3d6000fd5b505050506040513d601f19601f8201168201806040525081019061090491906134bf565b90506001821515141561091a5761091a81611e98565b50610966565b60028383600081811061093557610935613fd9565b90506020020135141561096657610966600d8484600381811061095a5761095a613fd9565b90506020020135611ece565b50505050565b6001600160a01b0384166000908152600a602052604090205460ff166109c9576001600160a01b0384166000908152600960209081526040808320805485151560ff1991821617909155600a909252909120805490911660011790555b6109668484846001611c32565b6000806060600654600754600880805480602002602001604051908101604052809291908181526020018280548015610a3857602002820191906000526020600020905b81546001600160a01b03168152600190910190602001808311610a1a575b50505050509050925092509250909192565b6060610a5882600054611fa5565b92915050565b610a6a81600054612111565b151560011415610aad576001610a8160005461190a565b51610a8c9190613f14565b6001541115610aad5760405162461bcd60e51b81526004016105b690613c22565b6108348160005461227d565b610ac16130ff565b610a5882600054612377565b610ad984848484611dce565b600183836000818110610aee57610aee613fd9565b905060200201351415610ca057604051631e99d35d60e31b81526004810185905260009073__AddressLibrary________________________9063f4ce9ae89060240160206040518083038186803b158015610b4957600080fd5b505af4158015610b5d573d6000803e3d6000fd5b505050506040513d601f19601f82011682018060405250810190610b8191906134bf565b905081610b9657610b9181611e98565b61091a565b6001600160a01b03811660009081526009602052604090205460ff1615156001141561091a5760008190506000816001600160a01b03166357e7ea2e6040518163ffffffff1660e01b815260040160206040518083038186803b158015610bfc57600080fd5b505afa158015610c10573d6000803e3d6000fd5b505050506040513d601f19601f82011682018060405250810190610c349190613809565b9050816001600160a01b031663fc0005008230600e6040518463ffffffff1660e01b8152600401610c66929190613a7d565b6000604051808303818588803b158015610c7f57600080fd5b505af1158015610c93573d6000803e3d6000fd5b5050505050505050610966565b600283836000818110610cb557610cb5613fd9565b90506020020135141561096657610e0f73__AddressLibrary________________________63b1e2771485856001818110610cf257610cf2613fd9565b905060200201356040518263ffffffff1660e01b8152600401610d1791815260200190565b60206040518083038186803b158015610d2f57600080fd5b505af4158015610d43573d6000803e3d6000fd5b505050506040513d601f19601f82011682018060405250810190610d6791906134bf565b8573__AddressLibrary________________________63b1e2771487876002818110610d9557610d95613fd9565b905060200201356040518263ffffffff1660e01b8152600401610dba91815260200190565b60206040518083038186803b158015610dd257600080fd5b505af4158015610de6573d6000803e3d6000fd5b505050506040513d601f19601f82011682018060405250810190610e0a91906134bf565b612568565b610966600d8484600381811061095a5761095a613fd9565b610e2f6130ff565b610a58826001612377565b600454610100900460ff1680610e53575060045460ff16155b610e6f5760405162461bcd60e51b81526004016105b690613c7f565b600454610100900460ff16158015610e91576004805461ffff19166101011790555b6040805160028082526060820190925290816020015b6060815260200190600190039081610ea75750508051610ecf91600b91602090910190613137565b506040518060400160405280600581526020016427bbb732b960d91b815250600b600081548110610f0257610f02613fd9565b906000526020600020019080519060200190610f1f929190613194565b5060405180604001604052806004815260200163141bdbdb60e21b815250600b600181548110610f5157610f51613fd9565b906000526020600020019080519060200190610f6e929190613194565b5061104f84846002600b805480602002602001604051908101604052809291908181526020016000905b82821015611044578382906000526020600020018054610fb790613f57565b80601f0160208091040260200160405190810160405280929190818152602001828054610fe390613f57565b80156110305780601f1061100557610100808354040283529160200191611030565b820191906000526020600020905b81548152906001019060200180831161101357829003601f168201915b505050505081526020019060010190610f98565b5050505060006113ae565b815161106290600e906020850190613194565b508015610966576004805461ff001916905550505050565b6000611087848484612748565b90505b9392505050565b606061073060005461190a565b826110a88161167f565b15156001146110b657600080fd5b6110c233600054611688565b15156001146110e35760405162461bcd60e51b81526004016105b690613ccd565b6000806110f1868686611879565b604051637493a70b60e01b8152919350915073__ItemsLibrary__________________________90637493a70b9061060d90859085903090600401613d8a565b61113d33600054611688565b151560011461115e5760405162461bcd60e51b81526004016105b690613ccd565b600160055461117f5760405162461bcd60e51b81526004016105b690613c41565b60405163f7cf62d760e01b815273__AddressLibrary________________________9063f7cf62d7906111b9903390600890600401613a1e565b60206040518083038186803b1580156111d157600080fd5b505af41580156111e5573d6000803e3d6000fd5b505050506040513d601f19601f8201168201806040525081019061120991906137ec565b156112265760405162461bcd60e51b81526004016105b690613ceb565b6108346000611bab565b61123c33600054611688565b151560011461125d5760405162461bcd60e51b81526004016105b690613ccd565b6000600554156112975760405162461bcd60e51b8152602060048201526005602482015264454333302d60d81b60448201526064016105b6565b816002600054815481106112ad576112ad613fd9565b906000526020600020906004020160010180549050808211156112e25760405162461bcd60e51b81526004016105b690613c22565b6000848181116113045760405162461bcd60e51b81526004016105b690613c60565b60058690556113136001611bab565b505050505050565b6060600d805480602002602001604051908101604052809291908181526020016000905b82821015611399576000848152602090819020604080516060810182526003860290920180546001600160a01b0390811684526001808301549091168486015260029091015491830191909152908352909201910161133f565b50505050905090565b610834816000546127f7565b600454610100900460ff16806113c7575060045460ff16155b6113e35760405162461bcd60e51b81526004016105b690613c7f565b600454610100900460ff16158015611405576004805461ffff19166101011790555b848651808211156114285760405162461bcd60e51b81526004016105b690613c22565b60008781811161144a5760405162461bcd60e51b81526004016105b690613c60565b865188146114825760405162461bcd60e51b8152602060048201526005602482015264454331382d60d81b60448201526064016105b6565b60008681555b888110156114f85760028054600101815560005287516003908990839081106114b3576114b3613fd9565b602090810291909101810151825460018101845560009384529282902081516114e59491909101929190910190613194565b50806114f081613f92565b915050611488565b50600189905560005b8a5181101561163e57600073__AddressLibrary________________________63bc215e858d848151811061153857611538613fd9565b60200260200101516040518263ffffffff1660e01b815260040161155c9190613a0a565b60206040518083038186803b15801561157457600080fd5b505af4158015611588573d6000803e3d6000fd5b505050506040513d601f19601f820116820180604052508101906115ac9190613809565b905060016002600054815481106115c5576115c5613fd9565b60009182526020808320858452600492909202909101905260408120600101805460ff1916921515929092179091555460028054909190811061160a5761160a613fd9565b600091825260208083206001600490930201820180549283018155835290912001558061163681613f92565b915050611501565b50505050508015611313576004805461ff0019169055505050505050565b61083481600161227d565b6060610a58826001611fa5565b6108348160016127f7565b6000610a588260015b60025460405163123bd07560e11b8152600091839173__Library_______________________________90632477a0ea906116c99085908590600401613bf6565b60206040518083038186803b1580156116e157600080fd5b505af41580156116f5573d6000803e3d6000fd5b505050506040513d601f19601f8201168201806040525081019061171991906137ec565b151560011461173a5760405162461bcd60e51b81526004016105b690613c04565b60405163bc215e8560e01b815260009073__AddressLibrary________________________9063bc215e8590611774908990600401613a0a565b60206040518083038186803b15801561178c57600080fd5b505af41580156117a0573d6000803e3d6000fd5b505050506040513d601f19601f820116820180604052508101906117c49190613809565b905073__ItemsLibrary__________________________63dbdfbeec82600288815481106117f4576117f4613fd9565b90600052602060002090600402016040518363ffffffff1660e01b815260040161181f929190613bf6565b60206040518083038186803b15801561183757600080fd5b505af415801561184b573d6000803e3d6000fd5b505050506040513d601f19601f8201168201806040525081019061186f91906137ec565b9695505050505050565b611881613214565b60008061188f8686866128f1565b6040805160a0810182529687528051602080820183526000808352818a01929092526001548984015282518084018452600b81526a436572746966696361746560a81b8183015260608a015260808901939093526001600160a01b039889168152600c83528181209690981688529490525050509091209091565b60025460405163123bd07560e11b8152606091839173__Library_______________________________90632477a0ea9061194b9085908590600401613bf6565b60206040518083038186803b15801561196357600080fd5b505af4158015611977573d6000803e3d6000fd5b505050506040513d601f19601f8201168201806040525081019061199b91906137ec565b15156001146119bc5760405162461bcd60e51b81526004016105b690613c04565b73__ItemsLibrary__________________________6327724f4b600286815481106119e9576119e9613fd9565b90600052602060002090600402016040518263ffffffff1660e01b8152600401611a1591815260200190565b60006040518083038186803b158015611a2d57600080fd5b505af4158015611a41573d6000803e3d6000fd5b505050506040513d6000823e601f3d908101601f19168201604052611a699190810190613738565b949350505050565b60025460405163123bd07560e11b815282919073__Library_______________________________90632477a0ea90611ab09085908590600401613bf6565b60206040518083038186803b158015611ac857600080fd5b505af4158015611adc573d6000803e3d6000fd5b505050506040513d601f19601f82011682018060405250810190611b0091906137ec565b1515600114611b215760405162461bcd60e51b81526004016105b690613c04565b611b2d33600054611688565b1515600114611b4e5760405162461bcd60e51b81526004016105b690613ccd565b600080611b6b866040518060200160405280600081525087612c44565b60405163e23fcdef60e01b8152919350915073__ItemsLibrary__________________________9063e23fcdef9061060d90859085903090600401613d8a565b8015611bcf57600160066000828254611bc49190613efc565b90915550611be89050565b600160076000828254611be29190613efc565b90915550505b600880546001810182556000919091527ff3f7a9fe364faab93b216da50a3214154f22a0a2b415b23a84c8169e8b636ee30180546001600160a01b03191633179055610834612e23565b60025460405163123bd07560e11b815282919073__Library_______________________________90632477a0ea90611c719085908590600401613bf6565b60206040518083038186803b158015611c8957600080fd5b505af4158015611c9d573d6000803e3d6000fd5b505050506040513d601f19601f82011682018060405250810190611cc191906137ec565b1515600114611ce25760405162461bcd60e51b81526004016105b690613c04565b611cee33600054611688565b1515600114611d0f5760405162461bcd60e51b81526004016105b690613ccd565b600080611d548888888080601f0160208091040260200160405190810160405280939291908181526020018383808284376000920191909152508a9250612c44915050565b6040516305cc2d5560e11b8152919350915073__ItemsLibrary__________________________90630b985aaa90611d9490859085903090600401613d8a565b60006040518083038186803b158015611dac57600080fd5b505af4158015611dc0573d6000803e3d6000fd5b505050505050505050505050565b604051630d1d719d60e41b8152309073__Library_______________________________9063d1d719d090611e07908490600401613a0a565b60206040518083038186803b158015611e1f57600080fd5b505af4158015611e33573d6000803e3d6000fd5b505050506040513d601f19601f82011682018060405250810190611e5791906137ec565b1515600114611e915760405162461bcd60e51b81526004016105b6906020808252600490820152634543382d60e01b604082015260600190565b5050505050565b6001600160a01b03166000908152600a60209081526040808320805460ff19908116909155600990925290912080549091169055565b81548290611ede90600190613f14565b81548110611eee57611eee613fd9565b9060005260206000209060030201828281548110611f0e57611f0e613fd9565b60009182526020909120825460039092020180546001600160a01b039283166001600160a01b03199182161782556001808501549083018054919094169116179091556002918201549101558154829080611f6b57611f6b613fc3565b60008281526020812060036000199093019283020180546001600160a01b0319908116825560018201805490911690556002015590555050565b60025460405163123bd07560e11b8152606091839173__Library_______________________________90632477a0ea90611fe69085908590600401613bf6565b60206040518083038186803b158015611ffe57600080fd5b505af4158015612012573d6000803e3d6000fd5b505050506040513d601f19601f8201168201806040525081019061203691906137ec565b15156001146120575760405162461bcd60e51b81526004016105b690613c04565b606073__ItemsLibrary__________________________63e035e006876002888154811061208757612087613fd9565b90600052602060002090600402016040518363ffffffff1660e01b81526004016120bd9291909115158252602082015260400190565b60006040518083038186803b1580156120d557600080fd5b505af41580156120e9573d6000803e3d6000fd5b505050506040513d6000823e601f3d908101601f1916820160405261186f9190810190613738565b60025460405163123bd07560e11b8152600091839173__Library_______________________________90632477a0ea906121529085908590600401613bf6565b60206040518083038186803b15801561216a57600080fd5b505af415801561217e573d6000803e3d6000fd5b505050506040513d601f19601f820116820180604052508101906121a291906137ec565b15156001146121c35760405162461bcd60e51b81526004016105b690613c04565b60405163bc215e8560e01b815260009073__AddressLibrary________________________9063bc215e85906121fd908990600401613a0a565b60206040518083038186803b15801561221557600080fd5b505af4158015612229573d6000803e3d6000fd5b505050506040513d601f19601f8201168201806040525081019061224d9190613809565b905073__ItemsLibrary__________________________632854ed2e82600288815481106117f4576117f4613fd9565b60025460405163123bd07560e11b815282919073__Library_______________________________90632477a0ea906122bc9085908590600401613bf6565b60206040518083038186803b1580156122d457600080fd5b505af41580156122e8573d6000803e3d6000fd5b505050506040513d601f19601f8201168201806040525081019061230c91906137ec565b151560011461232d5760405162461bcd60e51b81526004016105b690613c04565b61233933600054611688565b151560011461235a5760405162461bcd60e51b81526004016105b690613ccd565b6000806110f1866040518060200160405280600081525087612c44565b61237f6130ff565b60025460405163123bd07560e11b815283919073__Library_______________________________90632477a0ea906123be9085908590600401613bf6565b60206040518083038186803b1580156123d657600080fd5b505af41580156123ea573d6000803e3d6000fd5b505050506040513d601f19601f8201168201806040525081019061240e91906137ec565b151560011461242f5760405162461bcd60e51b81526004016105b690613c04565b60405163bc215e8560e01b815260009073__AddressLibrary________________________9063bc215e8590612469908990600401613a0a565b60206040518083038186803b15801561248157600080fd5b505af4158015612495573d6000803e3d6000fd5b505050506040513d601f19601f820116820180604052508101906124b99190613809565b905073__ItemsLibrary__________________________631aeccc6a82600288815481106124e9576124e9613fd9565b90600052602060002090600402016040518363ffffffff1660e01b8152600401612514929190613bf6565b60006040518083038186803b15801561252c57600080fd5b505af4158015612540573d6000803e3d6000fd5b505050506040513d6000823e601f3d908101601f1916820160405261186f91908101906138a8565b826125728161167f565b151560011461258057600080fd5b60008490506000816001600160a01b0316634774779d6040518163ffffffff1660e01b815260040160206040518083038186803b1580156125c057600080fd5b505afa1580156125d4573d6000803e3d6000fd5b505050506040513d601f19601f820116820180604052508101906125f89190613809565b9050816001600160a01b0316631ab807f88287876040518463ffffffff1660e01b8152600401612629929190613bdf565b6000604051808303818588803b15801561264257600080fd5b505af1158015612656573d6000803e3d6000fd5b5050506001600160a01b038089166000908152600c60209081526040808320938a168352929052819020905163207c442760e01b815290925073__ItemsLibrary__________________________915063207c4427906126bc9089908590600401613bf6565b60006040518083038186803b1580156126d457600080fd5b505af41580156126e8573d6000803e3d6000fd5b505050600087815260208390526040812091506127058282613246565b60018201805460ff191690556000600283018190556003830181905561272f906004840190613280565b61273d600583016000613280565b505050505050505050565b60405163685256ff60e11b8152600090849082906001600160a01b0383169063d0a4adfe9061277d9088908890600401613bdf565b60206040518083038186803b15801561279557600080fd5b505afa1580156127a9573d6000803e3d6000fd5b505050506040513d601f19601f820116820180604052508101906127cd91906134bf565b90506001600160a01b0381163014156127eb5760019250505061108a565b50600095945050505050565b60025460405163123bd07560e11b815282919073__Library_______________________________90632477a0ea906128369085908590600401613bf6565b60206040518083038186803b15801561284e57600080fd5b505af4158015612862573d6000803e3d6000fd5b505050506040513d601f19601f8201168201806040525081019061288691906137ec565b15156001146128a75760405162461bcd60e51b81526004016105b690613c04565b6128b333600054611688565b15156001146128d45760405162461bcd60e51b81526004016105b690613ccd565b6000806105cd866040518060200160405280600081525087612c44565b60408051600480825260a0820190925260609160009182916020820160808036833701905050905060028160008151811061292e5761292e613fd9565b602090810291909101015260405163cf0668ed60e01b815273__AddressLibrary________________________9063cf0668ed90612970908990600401613a0a565b60206040518083038186803b15801561298857600080fd5b505af415801561299c573d6000803e3d6000fd5b505050506040513d601f19601f820116820180604052508101906129c09190613809565b816001815181106129d3576129d3613fd9565b602090810291909101015260405163cf0668ed60e01b815273__AddressLibrary________________________9063cf0668ed90612a15908790600401613a0a565b60206040518083038186803b158015612a2d57600080fd5b505af4158015612a41573d6000803e3d6000fd5b505050506040513d601f19601f82011682018060405250810190612a659190613809565b81600281518110612a7857612a78613fd9565b60200260200101818152505060006040518060600160405280886001600160a01b03168152602001866001600160a01b03168152602001878152509050612ac0878787612f5b565b612b8f57600d8054600181810183556000839052835160039092027fd7b6990105719101dabeb77144f2a3385c8033acd3af97e9423a695e81ad1eb5810180546001600160a01b039485166001600160a01b03199182161790915560208601517fd7b6990105719101dabeb77144f2a3385c8033acd3af97e9423a695e81ad1eb6830180549190951691161790925560408401517fd7b6990105719101dabeb77144f2a3385c8033acd3af97e9423a695e81ad1eb7909201919091559054612b889190613f14565b9250612c1b565b612c1881600d805480602002602001604051908101604052809291908181526020016000905b82821015612c0f576000848152602090819020604080516060810182526003860290920180546001600160a01b03908116845260018083015490911684860152600290910154918301919091529083529092019101612bb5565b50505050613009565b92505b8282600381518110612c2f57612c2f613fd9565b60209081029190910101525095945050505050565b612c4c613214565b60008073__AddressLibrary________________________63bc215e85876040518263ffffffff1660e01b8152600401612c869190613a0a565b60206040518083038186803b158015612c9e57600080fd5b505af4158015612cb2573d6000803e3d6000fd5b505050506040513d601f19601f82011682018060405250810190612cd69190613809565b60408051600180825281830190925291925060009190602080830190803683370190505090508481600081518110612d1057612d10613fd9565b60200260200101818152505060006040518060a00160405280848152602001888152602001600154815260200160038881548110612d5057612d50613fd9565b906000526020600020018054612d6590613f57565b80601f0160208091040260200160405190810160405280929190818152602001828054612d9190613f57565b8015612dde5780601f10612db357610100808354040283529160200191612dde565b820191906000526020600020905b815481529060010190602001808311612dc157829003601f168201915b50505050508152602001838152509050600060028781548110612e0357612e03613fd9565b600091825260209091209296506004029091019350505050935093915050565b60065460015460405163f6001d7d60e01b815273__ItemsLibrary__________________________9263f6001d7d92612e5e92600401613bf6565b60206040518083038186803b158015612e7657600080fd5b505af4158015612e8a573d6000803e3d6000fd5b505050506040513d601f19601f82011682018060405250810190612eae91906137ec565b15612ec357600554600155612ec16130e2565b565b60075460015460405163f6001d7d60e01b815273__ItemsLibrary__________________________9263f6001d7d92612efe92600401613bf6565b60206040518083038186803b158015612f1657600080fd5b505af4158015612f2a573d6000803e3d6000fd5b505050506040513d601f19601f82011682018060405250810190612f4e91906137ec565b15612ec157612ec16130e2565b6001600160a01b038084166000908152600c602090815260408083209385168352929052818120915162136bb360e11b8152909173__ItemsLibrary__________________________916226d76691612fb991879190600401613bf6565b60206040518083038186803b158015612fd157600080fd5b505af4158015612fe5573d6000803e3d6000fd5b505050506040513d601f19601f8201168201806040525081019061108791906137ec565b6000805b82518110156130d45782818151811061302857613028613fd9565b6020026020010151600001516001600160a01b031684600001516001600160a01b031614801561308a575082818151811061306557613065613fd9565b6020026020010151602001516001600160a01b031684602001516001600160a01b0316145b80156130b657508281815181106130a3576130a3613fd9565b6020026020010151604001518460400151145b156130c2579050610a58565b806130cc81613f92565b91505061300d565b50815161108a906001613efc565b6000600581905560068190556007819055612ec190600890613280565b6040518060c0016040528060608152602001600015158152602001600081526020016000815260200160608152602001606081525090565b828054828255906000526020600020908101928215613184579160200282015b828111156131845782518051613174918491602090910190613194565b5091602001919060010190613157565b5061319092915061329e565b5090565b8280546131a090613f57565b90600052602060002090601f0160209004810192826131c25760008555613208565b82601f106131db57805160ff1916838001178555613208565b82800160010185558215613208579182015b828111156132085782518255916020019190600101906131ed565b506131909291506132bb565b6040518060a0016040528060008019168152602001606081526020016000815260200160608152602001606081525090565b50805461325290613f57565b6000825580601f10613262575050565b601f01602090049060005260206000209081019061083491906132bb565b508054600082559060005260206000209081019061083491906132bb565b808211156131905760006132b28282613246565b5060010161329e565b5b8082111561319057600081556001016132bc565b600082601f8301126132e157600080fd5b813560206132f66132f183613eb2565b613e82565b80838252828201915082860187848660051b890101111561331657600080fd5b60005b8581101561333e57813561332c81614005565b84529284019290840190600101613319565b5090979650505050505050565b600082601f83011261335c57600080fd5b8151602061336c6132f183613eb2565b80838252828201915082860187848660051b890101111561338c57600080fd5b60005b8581101561333e5781516133a281614005565b8452928401929084019060010161338f565b80516133bf8161401a565b919050565b60008083601f8401126133d657600080fd5b5081356001600160401b038111156133ed57600080fd5b60208301915083602082850101111561340557600080fd5b9250929050565b600082601f83011261341d57600080fd5b813561342b6132f182613ed5565b81815284602083860101111561344057600080fd5b816020850160208301376000918101602001919091529392505050565b600082601f83011261346e57600080fd5b815161347c6132f182613ed5565b81815284602083860101111561349157600080fd5b611a69826020830160208701613f2b565b6000602082840312156134b457600080fd5b813561108a81614005565b6000602082840312156134d157600080fd5b815161108a81614005565b6000806000606084860312156134f157600080fd5b83356134fc81614005565b925060208401359150604084013561351381614005565b809150509250925092565b60008060006040848603121561353357600080fd5b833561353e81614005565b925060208401356001600160401b0381111561355957600080fd5b613565868287016133c4565b9497909650939450505050565b6000806000806060858703121561358857600080fd5b843561359381614005565b935060208501356001600160401b038111156135ae57600080fd5b6135ba878288016133c4565b90945092505060408501356135ce8161401a565b939692955090935050565b6000806000606084860312156135ee57600080fd5b83356001600160401b038082111561360557600080fd5b613611878388016132d0565b945060208601359350604086013591508082111561362e57600080fd5b5061363b8682870161340c565b9150509250925092565b600080600080600060a0868803121561365d57600080fd5b6001600160401b03863581101561367357600080fd5b61368088883589016132d0565b95506020808801359550604088013594506060880135828111156136a357600080fd5b8801601f81018a136136b457600080fd5b80356136c26132f182613eb2565b8082825284820191508484018d868560051b87010111156136e257600080fd5b60005b8481101561371c5787823511156136fb57600080fd5b61370a8f88843589010161340c565b845292860192908601906001016136e5565b5050809750505050505050608086013590509295509295909350565b6000602080838503121561374b57600080fd5b82516001600160401b0381111561376157600080fd5b8301601f8101851361377257600080fd5b80516137806132f182613eb2565b80828252848201915084840188868560051b87010111156137a057600080fd5b600094505b838510156137c35780518352600194909401939185019185016137a5565b50979650505050505050565b6000602082840312156137e157600080fd5b813561108a8161401a565b6000602082840312156137fe57600080fd5b815161108a8161401a565b60006020828403121561381b57600080fd5b5051919050565b6000806000806060858703121561383857600080fd5b8435935060208501356001600160401b038082111561385657600080fd5b818701915087601f83011261386a57600080fd5b81358181111561387957600080fd5b8860208260051b850101111561388e57600080fd5b60208301955080945050505060408501356135ce8161401a565b6000602082840312156138ba57600080fd5b81516001600160401b03808211156138d157600080fd5b9083019060c082860312156138e557600080fd5b6138ed613e5a565b8251828111156138fc57600080fd5b6139088782860161345d565b825250613917602084016133b4565b6020820152604083015160408201526060830151606082015260808301518281111561394257600080fd5b61394e8782860161334b565b60808301525060a08301518281111561396657600080fd5b6139728782860161334b565b60a08301525095945050505050565b60006020828403121561399357600080fd5b5035919050565b600081518084526020808501945080840160005b838110156139d35781516001600160a01b0316875295820195908201906001016139ae565b509495945050505050565b600081518084526139f6816020860160208601613f2b565b601f01601f19169290920160200192915050565b6001600160a01b0391909116815260200190565b60006040820160018060a01b03808616845260206040818601528286548085526060870191508760005282600020945060005b81811015613a6f578554851683526001958601959284019201613a51565b509098975050505050505050565b60018060a01b0383168152600060206040818401526000845481600182811c915080831680613aad57607f831692505b858310811415613acb57634e487b7160e01b85526022600452602485fd5b6040880183905260608801818015613aea5760018114613afb57613b26565b60ff19861682528782019650613b26565b60008b81526020902060005b86811015613b2057815484820152908501908901613b07565b83019750505b50949a9950505050505050505050565b6020808252825182820181905260009190848201906040850190845b81811015613b6e57835183529284019291840191600101613b52565b50909695505050505050565b602080825282518282018190526000919060409081850190868401855b82811015613bd257815180516001600160a01b0390811686528782015116878601528501518585015260609093019290850190600101613b97565b5091979650505050505050565b9182526001600160a01b0316602082015260400190565b918252602082015260400190565b6020808252600490820152634543312d60e01b604082015260600190565b602080825260059082015264454331392d60d81b604082015260600190565b602080825260059082015264454333312d60d81b604082015260600190565b602080825260059082015264454331372d60d81b604082015260600190565b6020808252602e908201527f496e697469616c697a61626c653a20636f6e747261637420697320616c72656160408201526d191e481a5b9a5d1a585b1a5e995960921b606082015260800190565b6020808252600490820152634543392d60e01b604082015260600190565b6020808252600490820152634543352d60e01b604082015260600190565b602081526000825160c06020840152613d2560e08401826139de565b905060208401511515604084015260408401516060840152606084015160808401526080840151601f19808584030160a0860152613d63838361399a565b925060a08601519150808584030160c086015250613d81828261399a565b95945050505050565b6060815283516060820152600060208086015160a06080850152613db26101008501826139de565b9050604087015160a08501526060870151605f19808684030160c0870152613dda83836139de565b60808a015187820390920160e088015281518082529185019350600092508401905b80831015613e1c5783518252928401926001929092019190840190613dfc565b5092850187905250506001600160a01b03841660408401529050611a69565b838152826020820152606060408201526000613d81606083018461399a565b60405160c081016001600160401b0381118282101715613e7c57613e7c613fef565b60405290565b604051601f8201601f191681016001600160401b0381118282101715613eaa57613eaa613fef565b604052919050565b60006001600160401b03821115613ecb57613ecb613fef565b5060051b60200190565b60006001600160401b03821115613eee57613eee613fef565b50601f01601f191660200190565b60008219821115613f0f57613f0f613fad565b500190565b600082821015613f2657613f26613fad565b500390565b60005b83811015613f46578181015183820152602001613f2e565b838111156109665750506000910152565b600181811c90821680613f6b57607f821691505b60208210811415613f8c57634e487b7160e01b600052602260045260246000fd5b50919050565b6000600019821415613fa657613fa6613fad565b5060010190565b634e487b7160e01b600052601160045260246000fd5b634e487b7160e01b600052603160045260246000fd5b634e487b7160e01b600052603260045260246000fd5b634e487b7160e01b600052604160045260246000fd5b6001600160a01b038116811461083457600080fd5b801515811461083457600080fdfea2646970667358221220dd14144cd9a7c48379f53d37a6e65db3772e2fcf599a1f3f2e8ab601877fa1c064736f6c63430008070033",
  "immutableReferences": {},
  "source": "// SPDX-License-Identifier: GPL-3.0\r\n\r\npragma solidity 0.8.7;\r\n\r\n/**\r\n  Provider contract allows for registering pools (and optionally subscribing to them too).\r\n  Certificates can be latter delivered to those pools\r\n */\r\n import \"../Interfaces/IProvider.sol\";\r\n import \"../Interfaces/IPool.sol\";\r\n import \"../Abstract/MultiSigContract.sol\";\r\n import \"../Interfaces/IPriceConverter.sol\";\r\n\r\n contract Provider is IProvider, MultiSigContract {\r\n\r\n    // DATA /////////////////////////////////////////\r\n    uint256 constant _TotalEntities = 2;\r\n\r\n    // Owners\r\n    uint256 constant _ownerIdProviders = 0;\r\n    string constant _ownerLabel = \"Owner\";\r\n\r\n    // Pools\r\n    uint256 constant _poolId = 1;\r\n    string constant _poolLabel = \"Pool\";\r\n\r\n    mapping(address => bool) private _mustSubscribe;\r\n    mapping(address => bool) private _submited;\r\n\r\n    // Certificates\r\n    uint256 constant _certId = 2;\r\n    string constant _certLabel = \"Certificate\";\r\n\r\n    string[] private _Label;\r\n    \r\n    struct _CertificatesPerHolderStruct{\r\n        mapping(address => ItemsLibrary._ItemsStruct) _CertificatesPerHolder;\r\n    }\r\n   \r\n    mapping(address => _CertificatesPerHolderStruct) private _CertificatesPerPool;\r\n    \r\n    Library._pendingCertificatesStruct[] private _pendingCertificates;\r\n\r\n    // Provider\r\n    string private _ProviderInfo;\r\n\r\n    // MODIFIERS /////////////////////////////////////////\r\n    modifier isAPool(address pool){\r\n        require(true == isPool(pool));\r\n        _;\r\n    }\r\n\r\n     // CONSTRUCTOR /////////////////////////////////////////\r\n    function Provider_init(address[] memory owners,  uint256 minOwners, string memory ProviderInfo) public initializer \r\n    {\r\n        _Label = new string[](2);\r\n        _Label[0] = _ownerLabel;\r\n        _Label[1] = _poolLabel;\r\n\r\n        super.MultiSigContract_init(owners, minOwners, _TotalEntities, _Label, _ownerIdProviders); \r\n        _ProviderInfo = ProviderInfo;\r\n    }\r\n\r\n    // FUNCTIONALITY /////////////////////////////////////////\r\n    function addPool(address pool, string calldata poolInfo, bool mustSubscribe) external override{\r\n         if(false == _submited[pool]){\r\n            _mustSubscribe[pool] = mustSubscribe;\r\n            _submited[pool] = true;\r\n        }\r\n        addEntity(pool, poolInfo, _poolId);\r\n    }\r\n\r\n    function removePool(address pool) external override\r\n    {\r\n       removeEntity(pool, _poolId); \r\n    }\r\n\r\n    function validatePool(address pool) external override\r\n    {\r\n        validateEntity(pool, _poolId);\r\n    }\r\n\r\n    function rejectPool(address pool) external override\r\n    {\r\n        rejectEntity(pool, _poolId);\r\n    }\r\n\r\n    function removeConfigForPool(address pool) internal\r\n    {\r\n        delete(_submited[pool]);\r\n        delete(_mustSubscribe[pool]);\r\n    }\r\n\r\n    function retrievePool(address pool) external override view returns (ItemsLibrary._itemIdentity memory)\r\n    {\r\n        return retrieveEntity(pool, _poolId);\r\n    }\r\n\r\n    function retrievePoolConfg(address pool) external override view returns (bool, bool)\r\n    {\r\n        return (_mustSubscribe[pool], _submited[pool]);\r\n    }\r\n\r\n    function retrieveAllPools() external override view returns (bytes32[] memory)\r\n    {\r\n        return retrieveAllEntities(_poolId);\r\n    }\r\n\r\n    function retrievePendingPools(bool addedORremove) external override view returns (bytes32[] memory)\r\n    {\r\n        return(retrievePendingEntities(addedORremove, _poolId));\r\n    }\r\n\r\n    function isPool(address pool) internal view returns (bool)\r\n    {\r\n        return(isEntity(pool, _poolId));\r\n    }\r\n    // Certificates management\r\n    function extractCertIds(address pool, bytes32 CertificateHash, address holder) internal returns(uint[] memory)\r\n    {\r\n        uint otherId;\r\n        uint[] memory certIdIdArray = new uint[](4);\r\n        certIdIdArray[0] = _certId;\r\n        certIdIdArray[1] = AddressLibrary.AddressToUint(pool);\r\n        certIdIdArray[2] = AddressLibrary.AddressToUint(holder);\r\n\r\n        Library._pendingCertificatesStruct memory pCS = Library._pendingCertificatesStruct(pool, holder, CertificateHash);\r\n\r\n        if(!isCertificatePendingToAdded(pool, CertificateHash, holder)){\r\n            _pendingCertificates.push(pCS);\r\n            otherId = _pendingCertificates.length - 1;\r\n        }\r\n        else{\r\n            otherId = PositionInArray(pCS, _pendingCertificates);\r\n        }\r\n\r\n        certIdIdArray[3] = otherId;\r\n\r\n        return(certIdIdArray);\r\n    }\r\n\r\n    function addCertificate(address pool, bytes32 CertificateHash, address holder) external override\r\n        isAPool(pool)\r\n        isAnOwner\r\n     {\r\n        (ItemsLibrary._manipulateItemStruct memory manipulateItemStruct,\r\n            ItemsLibrary._ItemsStruct storage itemsstruct) = GenerateStructsCert(pool, CertificateHash, holder);\r\n\r\n        ItemsLibrary.addItem(manipulateItemStruct,itemsstruct, address(this));\r\n     }\r\n\r\n    function validateCertificate(address pool, bytes32 CertificateHash, address holder) external override\r\n        isAPool(pool)\r\n        isAnOwner\r\n     {\r\n        (ItemsLibrary._manipulateItemStruct memory manipulateItemStruct,\r\n            ItemsLibrary._ItemsStruct storage itemsstruct) = GenerateStructsCert(pool, CertificateHash, holder);\r\n\r\n        ItemsLibrary.validateItem(manipulateItemStruct, itemsstruct, address(this));\r\n     }\r\n\r\n    function rejectCertificate(address pool, bytes32 CertificateHash, address holder) external override\r\n        isAPool(pool)\r\n        isAnOwner\r\n    {\r\n        (ItemsLibrary._manipulateItemStruct memory manipulateItemStruct,\r\n            ItemsLibrary._ItemsStruct storage itemsstruct) = GenerateStructsCert(pool, CertificateHash, holder);\r\n\r\n        ItemsLibrary.rejectItem(manipulateItemStruct, itemsstruct, address(this));\r\n    }\r\n\r\n    function GenerateStructsCert(address pool, bytes32 CertificateHash, address holder) internal\r\n        returns(ItemsLibrary._manipulateItemStruct memory, ItemsLibrary._ItemsStruct storage)\r\n    {\r\n        uint[] memory certIdIdArray = extractCertIds(pool, CertificateHash, holder);\r\n        ItemsLibrary._manipulateItemStruct memory manipulateItemStruct = ItemsLibrary._manipulateItemStruct(CertificateHash, \"\", _minOwners, _certLabel, certIdIdArray);\r\n        ItemsLibrary._ItemsStruct storage itemsstruct =  _CertificatesPerPool[pool]._CertificatesPerHolder[holder];\r\n        return (manipulateItemStruct, itemsstruct);\r\n    }\r\n \r\n    function manipulateCertificate(address pool, bytes32 CertificateHash, address holder) internal\r\n        isAPool(pool)\r\n    {\r\n        IPool poolToSend = IPool(pool);\r\n\r\n        uint AddCertificatePriceWei = poolToSend.retrieveAddCertificatePriceWei();\r\n\r\n        poolToSend.addCertificate{value:AddCertificatePriceWei}(CertificateHash, holder);\r\n\r\n        ItemsLibrary._ItemsStruct storage itemStruct = _CertificatesPerPool[pool]._CertificatesPerHolder[holder];\r\n\r\n        ItemsLibrary.RemoveResizeActivated(CertificateHash, itemStruct);\r\n        delete(itemStruct._items[CertificateHash]);\r\n    }\r\n\r\n    function retrievePendingCertificates() external override view returns (Library._pendingCertificatesStruct[] memory)\r\n    {\r\n        return(_pendingCertificates);\r\n    }\r\n\r\n    function isCertificate(address pool, bytes32 CertificateHash, address holder) external override view returns(bool)\r\n    {\r\n        return internalisCertificate(pool, CertificateHash, holder);\r\n    }\r\n\r\n    function internalisCertificate(address pool, bytes32 CertificateHash, address holder) internal view returns(bool)\r\n    {\r\n        IPool poolToCheck = IPool(pool);\r\n        address provider = poolToCheck.retrieveCertificateProvider(CertificateHash, holder);\r\n        if(provider == address(this)) return true;\r\n        return false;\r\n    }\r\n\r\n    function isCertificatePendingToAdded(address pool, bytes32 CertificateHash, address holder) internal view returns(bool)\r\n    {\r\n        return ItemsLibrary.isItemPendingToAdded(CertificateHash, _CertificatesPerPool[pool]._CertificatesPerHolder[holder]);\r\n    }\r\n\r\n    function RemoveResizeCertificatesStructArray(Library._pendingCertificatesStruct[] storage array, uint index) internal\r\n    {\r\n        array[index] = array[array.length - 1];\r\n        array.pop();\r\n    }\r\n\r\n    function PositionInArray(Library._pendingCertificatesStruct memory value, Library._pendingCertificatesStruct[] memory array) internal pure returns(uint)\r\n    {\r\n         for(uint i=0; i < array.length; i++){\r\n            if(value.pool == array[i].pool && \r\n                value.holder == array[i].holder && \r\n                value.certificate == array[i].certificate) return i;\r\n        }\r\n\r\n        return array.length + 1;\r\n    }\r\n\r\n    receive() external override payable{}\r\n\r\n    // CALLBACKS /////////////////////////////////////////\r\n    function onItemValidated(bytes32 item, uint256[] calldata ids, bool addOrRemove) public override  \r\n    {\r\n        super.onItemValidated(item, ids, addOrRemove);\r\n\r\n        if(ids[0] == _poolId){\r\n            address pool = AddressLibrary.Bytes32ToAddress(item);\r\n\r\n            if(false == addOrRemove)removeConfigForPool(pool);\r\n            else if(true == _mustSubscribe[pool]){\r\n                IPool poolToSubscribe = IPool(pool);\r\n                uint SubscriptionPrice = poolToSubscribe.retrieveSubscriptionPriceWei();\r\n                poolToSubscribe.addProvider{value:SubscriptionPrice}(address(this), _ProviderInfo);\r\n            }\r\n        }\r\n        else if(ids[0] == _certId){\r\n            manipulateCertificate(AddressLibrary.UintToAddress(ids[1]), item, AddressLibrary.UintToAddress(ids[2]));\r\n            RemoveResizeCertificatesStructArray(_pendingCertificates, ids[3]);\r\n        }\r\n    }\r\n\r\n    function onItemRejected(bytes32 item, uint256[] calldata ids, bool addOrRemove) public override  \r\n    {\r\n        super.onItemRejected(item, ids, addOrRemove);\r\n\r\n        if(ids[0] == _poolId){\r\n            address pool = AddressLibrary.Bytes32ToAddress(item);\r\n\r\n            if(true == addOrRemove)removeConfigForPool(pool);\r\n        } \r\n        else if(ids[0] == _certId){\r\n            RemoveResizeCertificatesStructArray(_pendingCertificates, ids[3]);\r\n        }\r\n    }\r\n    \r\n }",
  "sourcePath": "C:/Users/d-aam/GitHub/Certificates/contracts/DeployedContracts/Provider.sol",
  "compiler": {
    "name": "solc",
    "version": "0.8.7+commit.e28d00a7.Emscripten.clang"
  },
  "schemaVersion": "3.3.4",
  "updatedAt": "2021-09-15T07:31:43.738Z",
  "networkType": "ethereum",
  "devdoc": {
    "kind": "dev",
    "methods": {},
    "version": 1
  },
  "userdoc": {
    "kind": "user",
    "methods": {},
    "version": 1
  }
}