{
  "contractName": "ProviderFactory",
  "abi": [
    {
      "anonymous": false,
      "inputs": [
        {
          "indexed": false,
          "internalType": "string",
          "name": "Factory",
          "type": "string"
        },
        {
          "indexed": false,
          "internalType": "string",
          "name": "Name",
          "type": "string"
        }
      ],
      "name": "_NewContractName",
      "type": "event"
    },
    {
      "anonymous": false,
      "inputs": [
        {
          "indexed": false,
          "internalType": "string",
          "name": "Factory",
          "type": "string"
        },
        {
          "indexed": false,
          "internalType": "string",
          "name": "Version",
          "type": "string"
        }
      ],
      "name": "_NewContractVersion",
      "type": "event"
    },
    {
      "anonymous": false,
      "inputs": [
        {
          "indexed": false,
          "internalType": "string",
          "name": "Factory",
          "type": "string"
        },
        {
          "indexed": false,
          "internalType": "uint256",
          "name": "Id",
          "type": "uint256"
        },
        {
          "indexed": true,
          "internalType": "address",
          "name": "Creator",
          "type": "address"
        },
        {
          "indexed": false,
          "internalType": "address",
          "name": "Element",
          "type": "address"
        },
        {
          "indexed": false,
          "internalType": "string",
          "name": "Name",
          "type": "string"
        }
      ],
      "name": "_NewElement",
      "type": "event"
    },
    {
      "inputs": [
        {
          "internalType": "string",
          "name": "factoryName",
          "type": "string"
        },
        {
          "internalType": "address",
          "name": "managerContractAddress",
          "type": "address"
        }
      ],
      "name": "Factory_init",
      "outputs": [],
      "stateMutability": "nonpayable",
      "type": "function"
    },
    {
      "inputs": [
        {
          "internalType": "uint256",
          "name": "Id",
          "type": "uint256"
        }
      ],
      "name": "retrieve",
      "outputs": [
        {
          "internalType": "address",
          "name": "",
          "type": "address"
        },
        {
          "internalType": "address",
          "name": "",
          "type": "address"
        }
      ],
      "stateMutability": "view",
      "type": "function"
    },
    {
      "inputs": [],
      "name": "retrieveConfig",
      "outputs": [
        {
          "internalType": "string",
          "name": "",
          "type": "string"
        },
        {
          "internalType": "string",
          "name": "",
          "type": "string"
        },
        {
          "internalType": "string",
          "name": "",
          "type": "string"
        }
      ],
      "stateMutability": "view",
      "type": "function"
    },
    {
      "inputs": [],
      "name": "retrieveManagerContract",
      "outputs": [
        {
          "internalType": "address",
          "name": "",
          "type": "address"
        }
      ],
      "stateMutability": "view",
      "type": "function"
    },
    {
      "inputs": [],
      "name": "retrieveTotal",
      "outputs": [
        {
          "internalType": "uint256",
          "name": "",
          "type": "uint256"
        }
      ],
      "stateMutability": "view",
      "type": "function"
    },
    {
      "inputs": [
        {
          "internalType": "string",
          "name": "contractName",
          "type": "string"
        }
      ],
      "name": "updateContractName",
      "outputs": [],
      "stateMutability": "nonpayable",
      "type": "function"
    },
    {
      "inputs": [
        {
          "internalType": "string",
          "name": "contractVersion",
          "type": "string"
        }
      ],
      "name": "updateContractVersion",
      "outputs": [],
      "stateMutability": "nonpayable",
      "type": "function"
    },
    {
      "inputs": [
        {
          "internalType": "address",
          "name": "managerContractAddress",
          "type": "address"
        }
      ],
      "name": "ProviderFactory_init",
      "outputs": [],
      "stateMutability": "nonpayable",
      "type": "function"
    },
    {
      "inputs": [
        {
          "internalType": "address[]",
          "name": "owners",
          "type": "address[]"
        },
        {
          "internalType": "uint256",
          "name": "minOwners",
          "type": "uint256"
        },
        {
          "internalType": "string",
          "name": "ElementName",
          "type": "string"
        }
      ],
      "name": "create",
      "outputs": [],
      "stateMutability": "payable",
      "type": "function"
    }
  ],
  "bytecode": "0x608060405234801561001057600080fd5b50611d16806100206000396000f3fe608060405260043610620000805760003560e01c80631dd5862c14620000855780634612ea0b14620000ac5780635b362e8414620000d15780636f86542a14620001095780638f88708b14620001295780639d4260a3146200016f5780639d8c56c61462000186578063ce50ac7614620001af578063fcc09e5b14620001d4575b600080fd5b3480156200009257600080fd5b50620000aa620000a436600462000ed5565b620001f9565b005b348015620000b957600080fd5b50620000aa620000cb36600462000f15565b6200031a565b348015620000de57600080fd5b506000546201000090046001600160a01b03166040516200010091906200107e565b60405180910390f35b3480156200011657600080fd5b5060045460405190815260200162000100565b3480156200013657600080fd5b506200014e6200014836600462000f6c565b620003f1565b604080516001600160a01b0393841681529290911660208301520162000100565b620000aa6200018036600462000dbe565b62000538565b3480156200019357600080fd5b506200019e62000740565b60405162000100939291906200114c565b348015620001bc57600080fd5b50620000aa620001ce36600462000ed5565b62000912565b348015620001e157600080fd5b50620000aa620001f336600462000d77565b62000a1f565b600054604051630d1d719d60e41b815273__Library_______________________________9163d1d719d09162000243916201000090046001600160a01b0316906004016200107e565b60206040518083038186803b1580156200025c57600080fd5b505af415801562000271573d6000803e3d6000fd5b505050506040513d601f19601f8201168201806040525081019062000297919062000eb1565b1515600114620002c45760405162461bcd60e51b8152600401620002bb9062001206565b60405180910390fd5b8051620002d990600390602084019062000c4d565b507f85825cad4af8c1dad9ad1a76eae95f95b6b46edc35d47b11259bca5daa7713ce600160036040516200030f92919062001195565b60405180910390a150565b600054610100900460ff168062000334575060005460ff16155b620003535760405162461bcd60e51b8152600401620002bb9062001224565b600054610100900460ff1615801562000376576000805461ffff19166101011790555b620003818262000abe565b82516200039690600190602086019062000c4d565b50604080516020810191829052600090819052620003b79160029162000c4d565b50604080516020810191829052600090819052620003d89160039162000c4d565b508015620003ec576000805461ff00191690555b505050565b6004805460405163123bd07560e11b8152918201839052602482018190526000918291849173__Library_______________________________90632477a0ea9060440160206040518083038186803b1580156200044e57600080fd5b505af415801562000463573d6000803e3d6000fd5b505050506040513d601f19601f8201168201806040525081019062000489919062000eb1565b1515600114620004c55760405162461bcd60e51b8152600401620002bb906020808252600490820152634543312d60e01b604082015260600190565b60048581548110620004db57620004db62001308565b6000918252602090912060029091020154600480546001600160a01b0390921691879081106200050f576200050f62001308565b60009182526020909120600160029092020101549094506001600160a01b031692505050915091565b600060029054906101000a90046001600160a01b03166001600160a01b0316635a3794e96040518163ffffffff1660e01b815260040160206040518083038186803b1580156200058757600080fd5b505afa1580156200059c573d6000803e3d6000fd5b505050506040513d601f19601f82011682018060405250810190620005c2919062000d9e565b6001600160a01b031663f0c9325e3460036040518363ffffffff1660e01b8152600401620005f1919062001123565b6000604051808303818588803b1580156200060b57600080fd5b505af115801562000620573d6000803e3d6000fd5b505050505060008383836040516024016200063e93929190620010b8565b60408051808303601f190181529181526020808301805163a44bff2b60e01b6001600160e01b03909116179052600080548351633d6b66b360e21b815293519495509093620100009091046001600160a01b03169263f5ad9acc926004808301939192829003018186803b158015620006b657600080fd5b505afa158015620006cb573d6000803e3d6000fd5b505050506040513d601f19601f82011682018060405250810190620006f1919062000d9e565b82604051620007009062000cdc565b6200070d92919062001092565b604051809103906000f0801580156200072a573d6000803e3d6000fd5b50905062000739818462000b52565b5050505050565b60608060606001600260038280546200075990620012cb565b80601f01602080910402602001604051908101604052809291908181526020018280546200078790620012cb565b8015620007d85780601f10620007ac57610100808354040283529160200191620007d8565b820191906000526020600020905b815481529060010190602001808311620007ba57829003601f168201915b50505050509250818054620007ed90620012cb565b80601f01602080910402602001604051908101604052809291908181526020018280546200081b90620012cb565b80156200086c5780601f1062000840576101008083540402835291602001916200086c565b820191906000526020600020905b8154815290600101906020018083116200084e57829003601f168201915b505050505091508080546200088190620012cb565b80601f0160208091040260200160405190810160405280929190818152602001828054620008af90620012cb565b8015620009005780601f10620008d45761010080835404028352916020019162000900565b820191906000526020600020905b815481529060010190602001808311620008e257829003601f168201915b50505050509050925092509250909192565b600054604051630d1d719d60e41b815273__Library_______________________________9163d1d719d0916200095c916201000090046001600160a01b0316906004016200107e565b60206040518083038186803b1580156200097557600080fd5b505af41580156200098a573d6000803e3d6000fd5b505050506040513d601f19601f82011682018060405250810190620009b0919062000eb1565b1515600114620009d45760405162461bcd60e51b8152600401620002bb9062001206565b8051620009e990600290602084019062000c4d565b507fca713f964ba9fd248b552b210e1ec6035169f38c143b0500c211f277f1ad4543600160026040516200030f92919062001195565b600054610100900460ff168062000a39575060005460ff16155b62000a585760405162461bcd60e51b8152600401620002bb9062001224565b600054610100900460ff1615801562000a7b576000805461ffff19166101011790555b62000aa760405180604001604052806008815260200167283937bb34b232b960c11b815250836200031a565b801562000aba576000805461ff00191690555b5050565b600054610100900460ff168062000ad8575060005460ff16155b62000af75760405162461bcd60e51b8152600401620002bb9062001224565b600054610100900460ff1615801562000b1a576000805461ffff19166101011790555b6000805462010000600160b01b031916620100006001600160a01b03851602179055801562000aba576000805461ff00191690555050565b604080518082019091523381526001600160a01b038381166020830190815260048054600181810183556000839052855160029092027f8a35acfbc15ff81a39ae7d344fd709f28e8600b4aa8c65c6b64bfe7fe36bd19b810180549387166001600160a01b0319948516811790915594517f8a35acfbc15ff81a39ae7d344fd709f28e8600b4aa8c65c6b64bfe7fe36bd19c9091018054919096169216919091179093555490917f1ca39c7d81f021b1dca105fb858bf2a88540adf1df782672dfd71b5ace6b839a9162000c28908290620012a5565b84602001518660405162000c409493929190620011c7565b60405180910390a2505050565b82805462000c5b90620012cb565b90600052602060002090601f01602090048101928262000c7f576000855562000cca565b82601f1062000c9a57805160ff191683800117855562000cca565b8280016001018555821562000cca579182015b8281111562000cca57825182559160200191906001019062000cad565b5062000cd892915062000cea565b5090565b610993806200134e83390190565b5b8082111562000cd8576000815560010162000ceb565b600082601f83011262000d1357600080fd5b81356001600160401b0381111562000d2f5762000d2f6200131e565b62000d44601f8201601f191660200162001272565b81815284602083860101111562000d5a57600080fd5b816020850160208301376000918101602001919091529392505050565b60006020828403121562000d8a57600080fd5b813562000d978162001334565b9392505050565b60006020828403121562000db157600080fd5b815162000d978162001334565b60008060006060848603121562000dd457600080fd5b83356001600160401b038082111562000dec57600080fd5b818601915086601f83011262000e0157600080fd5b813560208282111562000e185762000e186200131e565b8160051b62000e2982820162001272565b8381528281019086840183880185018d101562000e4557600080fd5b600097505b8588101562000e78578035935062000e628462001334565b8383526001979097019691840191840162000e4a565b5098505050870135945050604086013591508082111562000e9857600080fd5b5062000ea78682870162000d01565b9150509250925092565b60006020828403121562000ec457600080fd5b8151801515811462000d9757600080fd5b60006020828403121562000ee857600080fd5b81356001600160401b0381111562000eff57600080fd5b62000f0d8482850162000d01565b949350505050565b6000806040838503121562000f2957600080fd5b82356001600160401b0381111562000f4057600080fd5b62000f4e8582860162000d01565b925050602083013562000f618162001334565b809150509250929050565b60006020828403121562000f7f57600080fd5b5035919050565b6000815180845260005b8181101562000fae5760208185018101518683018201520162000f90565b8181111562000fc1576000602083870101525b50601f01601f19169290920160200192915050565b8054600090600181811c908083168062000ff157607f831692505b60208084108214156200101457634e487b7160e01b600052602260045260246000fd5b83885260208801828015620010325760018114620010445762001071565b60ff1987168252828201975062001071565b60008981526020902060005b878110156200106b5781548482015290860190840162001050565b83019850505b5050505050505092915050565b6001600160a01b0391909116815260200190565b6001600160a01b038316815260406020820181905260009062000f0d9083018462000f86565b606080825284519082018190526000906020906080840190828801845b82811015620010fc5781516001600160a01b031684529284019290840190600101620010d5565b5050508582850152838103604085015262001118818662000f86565b979650505050505050565b60208101600483106200114657634e487b7160e01b600052602160045260246000fd5b91905290565b60608152600062001161606083018662000f86565b828103602084015262001175818662000f86565b905082810360408401526200118b818562000f86565b9695505050505050565b604081526000620011aa604083018562000fd6565b8281036020840152620011be818562000fd6565b95945050505050565b608081526000620011dc608083018762000fd6565b602083018690526001600160a01b0385166040840152828103606084015262001118818562000f86565b6020808252600490820152634543382d60e01b604082015260600190565b6020808252602e908201527f496e697469616c697a61626c653a20636f6e747261637420697320616c72656160408201526d191e481a5b9a5d1a585b1a5e995960921b606082015260800190565b604051601f8201601f191681016001600160401b03811182821017156200129d576200129d6200131e565b604052919050565b600082821015620012c657634e487b7160e01b600052601160045260246000fd5b500390565b600181811c90821680620012e057607f821691505b602082108114156200130257634e487b7160e01b600052602260045260246000fd5b50919050565b634e487b7160e01b600052603260045260246000fd5b634e487b7160e01b600052604160045260246000fd5b6001600160a01b03811681146200134a57600080fd5b5056fe608060405260405161099338038061099383398101604081905261002291610470565b61004d60017fa3f0ad74e5423aebfd80d3ef4346578335a9a72aeaee59ff6cb3582b35133d5161057f565b60008051602061094c83398151915214610069576100696105d0565b6100758282600061007c565b50506105fc565b61008583610156565b6040516001600160a01b038416907f1cf3b03a6cf19fa2baba4df148e9dcabedea7f8a5c07840e207e5c089be95d3e90600090a26000825111806100c65750805b156101515761014f836001600160a01b0316635c60da1b6040518163ffffffff1660e01b815260040160206040518083038186803b15801561010757600080fd5b505afa15801561011b573d6000803e3d6000fd5b505050506040513d601f19601f8201168201806040525081019061013f9190610455565b836102f660201b6100291760201c565b505b505050565b6101698161032260201b6100551760201c565b6101c85760405162461bcd60e51b815260206004820152602560248201527f455243313936373a206e657720626561636f6e206973206e6f74206120636f6e6044820152641d1c9858dd60da1b60648201526084015b60405180910390fd5b61024b816001600160a01b0316635c60da1b6040518163ffffffff1660e01b815260040160206040518083038186803b15801561020457600080fd5b505afa158015610218573d6000803e3d6000fd5b505050506040513d601f19601f8201168201806040525081019061023c9190610455565b61032260201b6100551760201c565b6102b05760405162461bcd60e51b815260206004820152603060248201527f455243313936373a20626561636f6e20696d706c656d656e746174696f6e206960448201526f1cc81b9bdd08184818dbdb9d1c9858dd60821b60648201526084016101bf565b806102d560008051602061094c83398151915260001b61032860201b61005b1760201c565b80546001600160a01b0319166001600160a01b039290921691909117905550565b606061031b838360405180606001604052806027815260200161096c6027913961032b565b9392505050565b3b151590565b90565b6060833b61038a5760405162461bcd60e51b815260206004820152602660248201527f416464726573733a2064656c65676174652063616c6c20746f206e6f6e2d636f6044820152651b9d1c9858dd60d21b60648201526084016101bf565b600080856001600160a01b0316856040516103a59190610530565b600060405180830381855af49150503d80600081146103e0576040519150601f19603f3d011682016040523d82523d6000602084013e6103e5565b606091505b5090925090506103f6828286610400565b9695505050505050565b6060831561040f57508161031b565b82511561041f5782518084602001fd5b8160405162461bcd60e51b81526004016101bf919061054c565b80516001600160a01b038116811461045057600080fd5b919050565b60006020828403121561046757600080fd5b61031b82610439565b6000806040838503121561048357600080fd5b61048c83610439565b60208401519092506001600160401b03808211156104a957600080fd5b818501915085601f8301126104bd57600080fd5b8151818111156104cf576104cf6105e6565b604051601f8201601f19908116603f011681019083821181831017156104f7576104f76105e6565b8160405282815288602084870101111561051057600080fd5b6105218360208301602088016105a4565b80955050505050509250929050565b600082516105428184602087016105a4565b9190910192915050565b602081526000825180602084015261056b8160408501602087016105a4565b601f01601f19169190910160400192915050565b60008282101561059f57634e487b7160e01b600052601160045260246000fd5b500390565b60005b838110156105bf5781810151838201526020016105a7565b8381111561014f5750506000910152565b634e487b7160e01b600052600160045260246000fd5b634e487b7160e01b600052604160045260246000fd5b6103418061060b6000396000f3fe60806040523661001357610011610017565b005b6100115b61002761002261005e565b610106565b565b606061004e83836040518060600160405280602781526020016102e56027913961012a565b9392505050565b3b151590565b90565b60006100917fa3f0ad74e5423aebfd80d3ef4346578335a9a72aeaee59ff6cb3582b35133d50546001600160a01b031690565b6001600160a01b0316635c60da1b6040518163ffffffff1660e01b815260040160206040518083038186803b1580156100c957600080fd5b505afa1580156100dd573d6000803e3d6000fd5b505050506040513d601f19601f82011682018060405250810190610101919061023c565b905090565b3660008037600080366000845af43d6000803e808015610125573d6000f35b3d6000fd5b6060833b61018e5760405162461bcd60e51b815260206004820152602660248201527f416464726573733a2064656c65676174652063616c6c20746f206e6f6e2d636f6044820152651b9d1c9858dd60d21b60648201526084015b60405180910390fd5b600080856001600160a01b0316856040516101a99190610265565b600060405180830381855af49150503d80600081146101e4576040519150601f19603f3d011682016040523d82523d6000602084013e6101e9565b606091505b50915091506101f9828286610203565b9695505050505050565b6060831561021257508161004e565b8251156102225782518084602001fd5b8160405162461bcd60e51b81526004016101859190610281565b60006020828403121561024e57600080fd5b81516001600160a01b038116811461004e57600080fd5b600082516102778184602087016102b4565b9190910192915050565b60208152600082518060208401526102a08160408501602087016102b4565b601f01601f19169190910160400192915050565b60005b838110156102cf5781810151838201526020016102b7565b838111156102de576000848401525b5050505056fe416464726573733a206c6f772d6c6576656c2064656c65676174652063616c6c206661696c6564a2646970667358221220d403ceeafd1a8a95bac5042ee17868655bf495ec1518e7fe81eb94935c79e11764736f6c63430008070033a3f0ad74e5423aebfd80d3ef4346578335a9a72aeaee59ff6cb3582b35133d50416464726573733a206c6f772d6c6576656c2064656c65676174652063616c6c206661696c6564a2646970667358221220a90e1bd636e97d49da3b570eed92451bba0bc79c8ac80bbc18242fe9b9b3bbba64736f6c63430008070033",
  "immutableReferences": {},
  "source": "// SPDX-License-Identifier: GPL-3.0\r\n\r\npragma solidity 0.8.7;\r\n\r\n/*\r\n  Provider Factory inherits from Factory.\r\n  Before creating a new Element a payment is made to Treasury.\r\n  Provider Elements are Beacon Proxy, the Beacon implementation address is stored in Manager contract.\r\n */\r\n\r\n import \"../Interfaces/ITreasury.sol\";\r\n import \"../Abstract/Factory.sol\";\r\n import \"@openzeppelin/contracts/proxy/beacon/BeaconProxy.sol\";\r\n\r\ncontract ProviderFactory is Factory{\r\n    \r\n    // CONSTRUCTOR /////////////////////////////////////////\r\n    function ProviderFactory_init(address managerContractAddress) public initializer {\r\n        super.Factory_init(\"Provider\", managerContractAddress);\r\n    }\r\n\r\n    // FUNCTIONALITY /////////////////////////////////////////\r\n    function create(address[] memory owners,  uint256 minOwners, string memory ElementName) external override payable\r\n    {\r\n        ITreasury(_managerContract.retrieveTreasuryProxy()).pay{value:msg.value}(Library.Prices.NewProviderContract);\r\n        bytes memory data = abi.encodeWithSignature(\"Provider_init(address[],uint256,string)\", owners, minOwners, ElementName);\r\n        BeaconProxy providerProxy = new BeaconProxy(_managerContract.retrieveProviderBeacon(), data);\r\n        internalCreate(address(providerProxy), ElementName);\r\n    }\r\n\r\n\r\n}",
  "sourcePath": "C:/Users/d-aam/GitHub/Certificates/contracts/DeployedContracts/ProviderFactory.sol",
  "compiler": {
    "name": "solc",
    "version": "0.8.7+commit.e28d00a7.Emscripten.clang"
  },
  "schemaVersion": "3.3.4",
  "updatedAt": "2021-09-28T11:21:40.680Z",
  "devdoc": {
    "kind": "dev",
    "methods": {},
    "version": 1
  },
  "userdoc": {
    "kind": "user",
    "methods": {},
    "version": 1
  }
}