{
  "contractName": "Provider",
  "abi": [
    {
      "inputs": [
        {
          "internalType": "address[]",
          "name": "owners",
          "type": "address[]"
        },
        {
          "internalType": "uint256",
          "name": "minOwners",
          "type": "uint256"
        }
      ],
      "stateMutability": "payable",
      "type": "constructor",
      "payable": true
    },
    {
      "anonymous": false,
      "inputs": [
        {
          "indexed": false,
          "internalType": "string",
          "name": "",
          "type": "string"
        },
        {
          "indexed": false,
          "internalType": "address",
          "name": "",
          "type": "address"
        }
      ],
      "name": "_AddEntityValidationIdEvent",
      "type": "event"
    },
    {
      "anonymous": false,
      "inputs": [
        {
          "indexed": false,
          "internalType": "string",
          "name": "",
          "type": "string"
        },
        {
          "indexed": false,
          "internalType": "address",
          "name": "",
          "type": "address"
        }
      ],
      "name": "_RemoveEntityValidationIdEvent",
      "type": "event"
    },
    {
      "inputs": [
        {
          "internalType": "address",
          "name": "owner",
          "type": "address"
        },
        {
          "internalType": "string",
          "name": "ownerInfo",
          "type": "string"
        },
        {
          "internalType": "uint256",
          "name": "nonce",
          "type": "uint256"
        }
      ],
      "name": "addOwner",
      "outputs": [],
      "stateMutability": "nonpayable",
      "type": "function"
    },
    {
      "inputs": [
        {
          "internalType": "address",
          "name": "owner",
          "type": "address"
        }
      ],
      "name": "isOwner",
      "outputs": [
        {
          "internalType": "bool",
          "name": "",
          "type": "bool"
        }
      ],
      "stateMutability": "view",
      "type": "function",
      "constant": true
    },
    {
      "inputs": [
        {
          "internalType": "address",
          "name": "owner",
          "type": "address"
        },
        {
          "internalType": "uint256",
          "name": "nonce",
          "type": "uint256"
        }
      ],
      "name": "removeOwner",
      "outputs": [],
      "stateMutability": "nonpayable",
      "type": "function"
    },
    {
      "inputs": [],
      "name": "retrieveAllOwners",
      "outputs": [
        {
          "internalType": "address[]",
          "name": "",
          "type": "address[]"
        }
      ],
      "stateMutability": "view",
      "type": "function",
      "constant": true
    },
    {
      "inputs": [
        {
          "internalType": "address",
          "name": "addr",
          "type": "address"
        }
      ],
      "name": "retrieveHighestNonceForAddress",
      "outputs": [
        {
          "internalType": "uint256",
          "name": "",
          "type": "uint256"
        }
      ],
      "stateMutability": "view",
      "type": "function",
      "constant": true
    },
    {
      "inputs": [],
      "name": "retrieveMinOwners",
      "outputs": [
        {
          "internalType": "uint256",
          "name": "",
          "type": "uint256"
        }
      ],
      "stateMutability": "view",
      "type": "function",
      "constant": true
    },
    {
      "inputs": [
        {
          "internalType": "address",
          "name": "owner",
          "type": "address"
        }
      ],
      "name": "retrieveOwner",
      "outputs": [
        {
          "internalType": "string",
          "name": "",
          "type": "string"
        }
      ],
      "stateMutability": "view",
      "type": "function",
      "constant": true
    },
    {
      "inputs": [
        {
          "internalType": "bool",
          "name": "addedORremove",
          "type": "bool"
        }
      ],
      "name": "retrievePendingOwners",
      "outputs": [
        {
          "internalType": "address[]",
          "name": "",
          "type": "address[]"
        }
      ],
      "stateMutability": "view",
      "type": "function",
      "constant": true
    },
    {
      "inputs": [],
      "name": "retrieveTotalOwners",
      "outputs": [
        {
          "internalType": "uint256",
          "name": "",
          "type": "uint256"
        }
      ],
      "stateMutability": "view",
      "type": "function",
      "constant": true
    },
    {
      "inputs": [
        {
          "internalType": "address",
          "name": "pool",
          "type": "address"
        },
        {
          "internalType": "string",
          "name": "poolInfo",
          "type": "string"
        },
        {
          "internalType": "uint256",
          "name": "nonce",
          "type": "uint256"
        }
      ],
      "name": "addPool",
      "outputs": [],
      "stateMutability": "nonpayable",
      "type": "function"
    },
    {
      "inputs": [
        {
          "internalType": "address",
          "name": "pool",
          "type": "address"
        },
        {
          "internalType": "uint256",
          "name": "nonce",
          "type": "uint256"
        }
      ],
      "name": "removePool",
      "outputs": [],
      "stateMutability": "nonpayable",
      "type": "function"
    },
    {
      "inputs": [
        {
          "internalType": "address",
          "name": "pool",
          "type": "address"
        }
      ],
      "name": "retrievePool",
      "outputs": [
        {
          "internalType": "string",
          "name": "",
          "type": "string"
        }
      ],
      "stateMutability": "view",
      "type": "function",
      "constant": true
    },
    {
      "inputs": [],
      "name": "retrieveAllPools",
      "outputs": [
        {
          "internalType": "address[]",
          "name": "",
          "type": "address[]"
        }
      ],
      "stateMutability": "view",
      "type": "function",
      "constant": true
    },
    {
      "inputs": [],
      "name": "retrieveTotalPools",
      "outputs": [
        {
          "internalType": "uint256",
          "name": "",
          "type": "uint256"
        }
      ],
      "stateMutability": "view",
      "type": "function",
      "constant": true
    },
    {
      "inputs": [
        {
          "internalType": "address",
          "name": "pool",
          "type": "address"
        }
      ],
      "name": "isPool",
      "outputs": [
        {
          "internalType": "bool",
          "name": "",
          "type": "bool"
        }
      ],
      "stateMutability": "view",
      "type": "function",
      "constant": true
    },
    {
      "inputs": [
        {
          "internalType": "address",
          "name": "pool",
          "type": "address"
        },
        {
          "internalType": "bytes32",
          "name": "CertificateHash",
          "type": "bytes32"
        },
        {
          "internalType": "address",
          "name": "holder",
          "type": "address"
        },
        {
          "internalType": "uint256",
          "name": "nonce",
          "type": "uint256"
        }
      ],
      "name": "addCertificate",
      "outputs": [],
      "stateMutability": "nonpayable",
      "type": "function"
    },
    {
      "inputs": [
        {
          "internalType": "address",
          "name": "pool",
          "type": "address"
        },
        {
          "internalType": "bytes32",
          "name": "CertificateHash",
          "type": "bytes32"
        },
        {
          "internalType": "address",
          "name": "holder",
          "type": "address"
        },
        {
          "internalType": "uint256",
          "name": "nonce",
          "type": "uint256"
        }
      ],
      "name": "removeCertificate",
      "outputs": [],
      "stateMutability": "nonpayable",
      "type": "function"
    }
  ],
  "bytecode": "0x600560c09081526427bbb732b960d91b60e0526080908152610140604052600461010090815263141bdbdb60e21b6101205260a052620000449060069060026200032b565b50604051620031f6380380620031f68339810160408190526200006791620004c0565b818160026006805480602002602001604051908101604052809291908181526020016000905b828210156200013e5760008481526020908190208301805460408051601f6002600019610100600187161502019094169390930492830185900485028101850190915281815292830182828015620001295780601f10620000fd5761010080835404028352916020019162000129565b820191906000526020600020905b8154815290600101906020018083116200010b57829003601f168201915b5050505050815260200190600101906200008d565b5050505060008451841115620001715760405162461bcd60e51b8152600401620001689062000586565b60405180910390fd5b60008411620001945760405162461bcd60e51b81526004016200016890620005a4565b81518314620001b75760405162461bcd60e51b81526004016200016890620005c2565b60008181555b8381101562000222576003805460010181556000528251600290849083908110620001e457fe5b602090810291909101810151825460018101845560009384529282902081516200021894919091019291909101906200038f565b50600101620001bd565b50600184905560005b85518110156200031d5760016003600054815481106200024757fe5b906000526020600020906004020160000160008884815181106200026757fe5b60200260200101516001600160a01b03166001600160a01b0316815260200190815260200160002060000160006101000a81548160ff021916908315150217905550600360005481548110620002b957fe5b9060005260206000209060040201600101868281518110620002d757fe5b60209081029190910181015182546001808201855560009485529290932090920180546001600160a01b0319166001600160a01b0390931692909217909155016200022b565b5050505050505050620005e0565b8280548282559060005260206000209081019282156200037d579160200282015b828111156200037d57825180516200036c9184916020909101906200038f565b50916020019190600101906200034c565b506200038b92915062000420565b5090565b828054600181600116156101000203166002900490600052602060002090601f016020900481019282620003c7576000855562000412565b82601f10620003e257805160ff191683800117855562000412565b8280016001018555821562000412579182015b8281111562000412578251825591602001919060010190620003f5565b506200038b92915062000441565b808211156200038b57600062000437828262000458565b5060010162000420565b5b808211156200038b576000815560010162000442565b50805460018160011615610100020316600290046000825580601f10620004805750620004a0565b601f016020900490600052602060002090810190620004a0919062000441565b50565b80516001600160a01b0381168114620004bb57600080fd5b919050565b60008060408385031215620004d3578182fd5b82516001600160401b0380821115620004ea578384fd5b818501915085601f830112620004fe578384fd5b81516020828211156200050d57fe5b808202604051828282010181811086821117156200052757fe5b604052838152828101945085830182870184018b101562000546578889fd5b8896505b8487101562000573576200055e81620004a3565b8652600196909601959483019483016200054a565b5097909101519698969750505050505050565b60208082526004908201526322a1989b60e11b604082015260600190565b6020808252600490820152634543313760e01b604082015260600190565b60208082526004908201526308a8662760e31b604082015260600190565b612c0680620005f06000396000f3fe608060405234801561001057600080fd5b506004361061010b5760003560e01c806377bc5a1f116100a2578063ba001d1611610071578063ba001d1614610207578063bba4d0501461021a578063bfd2b3a31461022d578063dd3ef44414610240578063eefe7681146102535761010b565b806377bc5a1f146101b95780637d1f3226146101d95780638fc2d8ea146101ec578063a93d5ed6146101ff5761010b565b80635b16ebb7116100de5780635b16ebb71461017657806365b973e5146101895780636b2996041461019e57806373bd22b8146101b15761010b565b80632d99aaf2146101105780632f54bf6e1461012e57806341929ea91461014e57806354f8d90d14610163575b600080fd5b61011861025b565b60405161012591906128ed565b60405180910390f35b61014161013c3660046126cd565b61026c565b604051610125919061293a565b61016161015c366004612731565b610282565b005b6101616101713660046126ee565b610295565b6101416101843660046126cd565b6102a9565b6101916102b6565b6040516101259190612b73565b6101186101ac36600461280a565b6102bc565b6101916102e4565b6101cc6101c73660046126cd565b6102f0565b60405161012591906129e2565b6101616101e73660046127e1565b6102fe565b6101cc6101fa3660046126cd565b61030e565b610118610319565b6101916102153660046126cd565b610326565b6101616102283660046126ee565b610341565b61016161023b3660046127e1565b61034f565b61016161024e366004612731565b610396565b6101916103a3565b606061026760016103b0565b905090565b600061027a8260005461048d565b90505b919050565b6102908383600054846106f3565b505050565b6102a3848484600185610908565b50505050565b600061027a82600161048d565b60015490565b606061027a6003600054815481106102d057fe5b906000526020600020906004020183610ebd565b60006102676001610f8d565b606061027a82600054611062565b61030a82600183611138565b5050565b606061027a82611292565b60606102676000546103b0565b6001600160a01b031660009081526004602052604090205490565b6102a3848484600085610908565b600154600161035f600054610f8d565b03808211156103895760405162461bcd60e51b815260040161038090612aa5565b60405180910390fd5b6102a38460005485611138565b61029083836001846106f3565b6000610267600054610f8d565b60035460405163123bd07560e11b8152606091839173__Library_______________________________90632477a0ea906103f19085908590600401612b7c565b60206040518083038186803b15801561040957600080fd5b505af415801561041d573d6000803e3d6000fd5b505050506040513d601f19601f820116820180604052508101906104419190612826565b15156001146104625760405162461bcd60e51b815260040161038090612b1b565b6104856003858154811061047257fe5b906000526020600020906004020161129f565b949350505050565b60035460405163123bd07560e11b8152600091839173__Library_______________________________90632477a0ea906104ce9085908590600401612b7c565b60206040518083038186803b1580156104e657600080fd5b505af41580156104fa573d6000803e3d6000fd5b505050506040513d601f19601f8201168201806040525081019061051e9190612826565b151560011461053f5760405162461bcd60e51b815260040161038090612b1b565b6106ea6003858154811061054f57fe5b600091825260208083206001600160a01b038a168452600490920290910181526040918290208251608081018452815460ff1615158152600180830180548651601f6002600019958416156101000295909501909216939093049081018690048602830186019096528582529194929385810193919291908301828280156106185780601f106105ed57610100808354040283529160200191610618565b820191906000526020600020905b8154815290600101906020018083116105fb57829003601f168201915b505050505081526020016002820180548060200260200160405190810160405280929190818152602001828054801561067a57602002820191906000526020600020905b81546001600160a01b0316815260019091019060200180831161065c575b50505050508152602001600382018054806020026020016040519081016040528092919081815260200182805480156106dc57602002820191906000526020600020905b81546001600160a01b031681526001909101906020018083116106be575b505050505081525050611305565b95945050505050565b60035460405163123bd07560e11b815283919073__Library_______________________________90632477a0ea906107329085908590600401612b7c565b60206040518083038186803b15801561074a57600080fd5b505af415801561075e573d6000803e3d6000fd5b505050506040513d601f19601f820116820180604052508101906107829190612826565b15156001146107a35760405162461bcd60e51b815260040161038090612b1b565b6107ac3361026c565b15156001146107cd5760405162461bcd60e51b815260040161038090612afe565b6107f88686600387815481106107df57fe5b9060005260206000209060040201600154600488611309565b6108a66003858154811061080857fe5b600091825260208083206001600160a01b038b168452600490920290910181526040918290208251608081018452815460ff1615158152600180830180548651601f6002600019958416156101000295909501909216939093049081018690048602830186019096528582529194929385810193919291908301828280156106185780601f106105ed57610100808354040283529160200191610618565b151560011415610900577f3c139d46a211844e248647688545a37c07c505c999c1232d1247c707dc0a91e2600285815481106108de57fe5b90600052602060002001876040516108f79291906129f5565b60405180910390a15b505050505050565b84610912816102a9565b151560011461092057600080fd5b6109293361026c565b151560011461094a5760405162461bcd60e51b815260040161038090612afe565b6001600160a01b03868116600090815260076020908152604080832093881683529281528282208883528152908290208251608081018452815460ff1615158152600180830180548651600261010094831615949094026000190190911692909204601f8101869004860283018601909652858252889592948581019390830182828015610a195780601f106109ee57610100808354040283529160200191610a19565b820191906000526020600020905b8154815290600101906020018083116109fc57829003601f168201915b5050505050815260200160028201805480602002602001604051908101604052809291908181526020018280548015610a7b57602002820191906000526020600020905b81546001600160a01b03168152600190910190602001808311610a5d575b5050505050815260200160038201805480602002602001604051908101604052809291908181526020018280548015610add57602002820191906000526020600020905b81546001600160a01b03168152600190910190602001808311610abf575b505050919092525050604051630eefab8b60e31b815273__Library_______________________________915063777d5c5890610b209085908590600401612964565b60006040518083038186803b158015610b3857600080fd5b505af4158015610b4c573d6000803e3d6000fd5b5050604051635c6309fb60e11b815286925073__Library_______________________________915063b8c613f690610b8b9084906004908101612b7c565b60006040518083038186803b158015610ba357600080fd5b505af4158015610bb7573d6000803e3d6000fd5b5060009250829150610bc69050565b876001811115610bd257fe5b1415610c3557506001600160a01b038981166000908152600760209081526040808320938b1683529281528282208b83528152918120600201805460018101825581835292822090920180546001600160a01b0319163317905589905254610c8e565b506001600160a01b038981166000908152600760209081526040808320938b1683529281528282208b83528152918120600301805460018101825581835292822090920180546001600160a01b03191633179055899052545b610c9a816001546118b3565b15610eb1576000610caa8b611292565b604051602001610cba91906128be565b60405160208183030381529060405280519060200120604051602001610cdf906128da565b604051602081830303815290604052805190602001201415610d02575089610d05565b50895b6000886001811115610d1357fe5b1415610d80576040516369767eab60e01b81526001600160a01b038216906369767eab90610d49908d908d908c90600401612945565b600060405180830381600087803b158015610d6357600080fd5b505af1158015610d77573d6000803e3d6000fd5b50505050610de3565b60405163039c2ae560e11b81526001600160a01b0382169063073855ca90610db0908d908d908c90600401612945565b600060405180830381600087803b158015610dca57600080fd5b505af1158015610dde573d6000803e3d6000fd5b505050505b6001600160a01b03808c166000908152600760209081526040808320938d1683529281528282208d83529052908120805460ff1916815590610e28600183018261255b565b610e366002830160006125a2565b610e446003830160006125a2565b505060405163136ea6e160e21b815273__Library_______________________________90634dba9b8490610e7f908a906004908101612b7c565b60006040518083038186803b158015610e9757600080fd5b505af4158015610eab573d6000803e3d6000fd5b50505050505b50505050505050505050565b60608115610f295782600201805480602002602001604051908101604052809291908181526020018280548015610f1d57602002820191906000526020600020905b81546001600160a01b03168152600190910190602001808311610eff575b50505050509050610f87565b82600301805480602002602001604051908101604052809291908181526020018280548015610f1d576020028201919060005260206000209081546001600160a01b03168152600190910190602001808311610eff57505050505090505b92915050565b60035460405163123bd07560e11b8152600091839173__Library_______________________________90632477a0ea90610fce9085908590600401612b7c565b60206040518083038186803b158015610fe657600080fd5b505af4158015610ffa573d6000803e3d6000fd5b505050506040513d601f19601f8201168201806040525081019061101e9190612826565b151560011461103f5760405162461bcd60e51b815260040161038090612b1b565b6104856003858154811061104f57fe5b90600052602060002090600402016118ce565b60035460405163123bd07560e11b8152606091839173__Library_______________________________90632477a0ea906110a39085908590600401612b7c565b60206040518083038186803b1580156110bb57600080fd5b505af41580156110cf573d6000803e3d6000fd5b505050506040513d601f19601f820116820180604052508101906110f39190612826565b15156001146111145760405162461bcd60e51b815260040161038090612b1b565b6106ea856003868154811061112557fe5b90600052602060002090600402016118d5565b60035460405163123bd07560e11b815283919073__Library_______________________________90632477a0ea906111779085908590600401612b7c565b60206040518083038186803b15801561118f57600080fd5b505af41580156111a3573d6000803e3d6000fd5b505050506040513d601f19601f820116820180604052508101906111c79190612826565b15156001146111e85760405162461bcd60e51b815260040161038090612b1b565b846111f23361026c565b15156001148061120a5750336001600160a01b038216145b6112265760405162461bcd60e51b815260040161038090612b38565b611250866003878154811061123757fe5b9060005260206000209060040201600154600488611b18565b6112606003868154811061080857fe5b610900577f1f62d535f971041db7bd8760bf0f1f9f476461558744a35c0d477b5ad6893e89600286815481106108de57fe5b606061027a826001611062565b6060816001018054806020026020016040519081016040528092919081815260200182805480156112f957602002820191906000526020600020905b81546001600160a01b031681526001909101906020018083116112db575b50505050509050919050565b5190565b6001600160a01b0386166000908152602085815260408083208151608081018352815460ff1615158152600180830180548551600261010094831615949094026000190190911692909204601f810187900487028301870190955284825291949293858401939192918301828280156113c35780601f10611398576101008083540402835291602001916113c3565b820191906000526020600020905b8154815290600101906020018083116113a657829003601f168201915b505050505081526020016002820180548060200260200160405190810160405280929190818152602001828054801561142557602002820191906000526020600020905b81546001600160a01b03168152600190910190602001808311611407575b505050505081526020016003820180548060200260200160405190810160405280929190818152602001828054801561148757602002820191906000526020600020905b81546001600160a01b03168152600190910190602001808311611469575b50505050508152505061149a828261212e565b6001600160a01b0388166000908152602087815260408083208151608081018352815460ff1615158152600180830180548551600261010094831615949094026000190190911692909204601f810187900487028301870190955284825291949293858401939192918301828280156115545780601f1061152957610100808354040283529160200191611554565b820191906000526020600020905b81548152906001019060200180831161153757829003601f168201915b50505050508152602001600282018054806020026020016040519081016040528092919081815260200182805480156115b657602002820191906000526020600020905b81546001600160a01b03168152600190910190602001808311611598575b505050505081526020016003820180548060200260200160405190810160405280929190818152602001828054801561161857602002820191906000526020600020905b81546001600160a01b031681526001909101906020018083116115fa575b50505050508152505061162b8282612188565b848661163782826121ee565b6001600160a01b038c16600090815260208b905260409020600201546116b6576001600160a01b038c16600090815260208b815260409091208c51611684926001909201918e01906125c0565b5060028a018054600181018255600091825260209091200180546001600160a01b0319166001600160a01b038e161790555b6001600160a01b038c16600090815260208b815260408220600201805460018101825590835291200180546001600160a01b031916331790556116f9878961222b565b6001600160a01b038c16600090815260208b9052604090206002015461171f908a6118b3565b156118a55760018a60000160008e6001600160a01b03166001600160a01b0316815260200190815260200160002060000160006101000a81548160ff021916908315150217905550896001018c9080600181540180825580915050600190039060005260206000200160009091909190916101000a8154816001600160a01b0302191690836001600160a01b0316021790555061188d61188861181e8e8d60020180548060200260200160405190810160405280929190818152602001828054801561181457602002820191906000526020600020905b81546001600160a01b031681526001909101906020018083116117f6575b5050505050612277565b6118838d60020180548060200260200160405190810160405280929190818152602001828054801561187957602002820191906000526020600020905b81546001600160a01b0316815260019091019060200180831161185b575b50505050506122cb565b612362565b612455565b80516118a39160028d019160209091019061264c565b505b505050505050505050505050565b6000818310156118c557506000610f87565b50600192915050565b6001015490565b6001600160a01b038216600090815260208281526040918290208251608081018452815460ff1615158152600182810180548651601f6002600019848716156101000201909316929092049182018790048702810187019097528087526060969295939493858101939291908301828280156119925780601f1061196757610100808354040283529160200191611992565b820191906000526020600020905b81548152906001019060200180831161197557829003601f168201915b50505050508152602001600282018054806020026020016040519081016040528092919081815260200182805480156119f457602002820191906000526020600020905b81546001600160a01b031681526001909101906020018083116119d6575b5050505050815260200160038201805480602002602001604051908101604052809291908181526020018280548015611a5657602002820191906000526020600020905b81546001600160a01b03168152600190910190602001808311611a38575b505050505081525050611a69828261212e565b6001600160a01b03851660009081526020858152604091829020600190810180548451600293821615610100026000190190911692909204601f810184900484028301840190945283825290929091830182828015611b095780601f10611ade57610100808354040283529160200191611b09565b820191906000526020600020905b815481529060010190602001808311611aec57829003601f168201915b50505050509250505092915050565b6001600160a01b038516600090815260208581526040918290208251608081018452815460ff1615158152600180830180548651600261010083861615026000190190921691909104601f8101879004870282018701909752868152919592948581019390830182828015611bce5780601f10611ba357610100808354040283529160200191611bce565b820191906000526020600020905b815481529060010190602001808311611bb157829003601f168201915b5050505050815260200160028201805480602002602001604051908101604052809291908181526020018280548015611c3057602002820191906000526020600020905b81546001600160a01b03168152600190910190602001808311611c12575b5050505050815260200160038201805480602002602001604051908101604052809291908181526020018280548015611c9257602002820191906000526020600020905b81546001600160a01b03168152600190910190602001808311611c74575b505050505081525050611ca5828261212e565b6001600160a01b038716600090815260208781526040918290208251608081018452815460ff1615158152600180830180548651600261010083861615026000190190921691909104601f8101879004870282018701909752868152919592948581019390830182828015611d5b5780601f10611d3057610100808354040283529160200191611d5b565b820191906000526020600020905b815481529060010190602001808311611d3e57829003601f168201915b5050505050815260200160028201805480602002602001604051908101604052809291908181526020018280548015611dbd57602002820191906000526020600020905b81546001600160a01b03168152600190910190602001808311611d9f575b5050505050815260200160038201805480602002602001604051908101604052809291908181526020018280548015611e1f57602002820191906000526020600020905b81546001600160a01b03168152600190910190602001808311611e01575b505050505081525050611e328282612188565b8486611e3e82826121ee565b6001600160a01b038b16600090815260208b90526040902060030154611e8f5760038a018054600181018255600091825260209091200180546001600160a01b0319166001600160a01b038d161790555b6001600160a01b038b16600090815260208b815260408220600301805460018101825590835291200180546001600160a01b03191633179055611ed2878961222b565b336001600160a01b038c161480611f0a57506001600160a01b038b16600090815260208b90526040902060030154611f0a908a6118b3565b1561212157611fdc611888611f798d8d600101805480602002602001604051908101604052809291908181526020018280548015611814576020028201919060005260206000209081546001600160a01b031681526001909101906020018083116117f6575050505050612277565b6118838d600101805480602002602001604051908101604052809291908181526020018280548015611879576020028201919060005260206000209081546001600160a01b0316815260019091019060200180831161185b5750505050506122cb565b8051611ff29160018d019160209091019061264c565b506120c061188861205d8d8d600301805480602002602001604051908101604052809291908181526020018280548015611814576020028201919060005260206000209081546001600160a01b031681526001909101906020018083116117f6575050505050612277565b6118838d600301805480602002602001604051908101604052809291908181526020018280548015611879576020028201919060005260206000209081546001600160a01b0316815260019091019060200180831161185b5750505050506122cb565b80516120d69160038d019160209091019061264c565b506001600160a01b038b16600090815260208b905260408120805460ff1916815590612105600183018261255b565b6121136002830160006125a2565b6118a36003830160006125a2565b5050505050505050505050565b8161215e5761213c81611305565b156121595760405162461bcd60e51b815260040161038090612b56565b61030a565b61216781611305565b151560011461030a5760405162461bcd60e51b815260040161038090612a88565b81600181111561219457fe5b6121c3576121a63382604001516124f2565b156121595760405162461bcd60e51b815260040161038090612ac3565b6121d13382606001516124f2565b1561030a5760405162461bcd60e51b815260040161038090612ac3565b336000908152600182016020908152604080832085845290915290205460ff161561030a5760405162461bcd60e51b815260040161038090612ae0565b3360008181526001838101602090815260408084208785528252808420805460ff191690931790925592825291839052205482111561030a573360009081526020919091526040902055565b6000805b82518110156122c05782818151811061229057fe5b60200260200101516001600160a01b0316846001600160a01b031614156122b8579050610f87565b60010161227b565b505051600101919050565b60606000825167ffffffffffffffff811180156122e757600080fd5b50604051908082528060200260200182016040528015612311578160200160208202803683370190505b50905060005b835181101561235b5761233c84828151811061232f57fe5b6020026020010151612548565b82828151811061234857fe5b6020908102919091010152600101612317565b5092915050565b60608282516123718282612554565b15156001146123925760405162461bcd60e51b815260040161038090612b1b565b6000600185510367ffffffffffffffff811180156123af57600080fd5b506040519080825280602002602001820160405280156123d9578160200160208202803683370190505b509050846001865103815181106123ec57fe5b602002602001015185878151811061240057fe5b60200260200101818152505060005b815181101561244b5785818151811061242457fe5b602002602001015182828151811061243857fe5b602090810291909101015260010161240f565b5095945050505050565b60606000825167ffffffffffffffff8111801561247157600080fd5b5060405190808252806020026020018201604052801561249b578160200160208202803683370190505b50905060005b835181101561235b576124c68482815181106124b957fe5b6020026020010151612558565b8282815181106124d257fe5b6001600160a01b03909216602092830291909101909101526001016124a1565b6000805b825181101561253e5782818151811061250b57fe5b60200260200101516001600160a01b0316846001600160a01b03161415612536576001915050610f87565b6001016124f6565b5060009392505050565b6001600160a01b031690565b1190565b90565b50805460018160011615610100020316600290046000825580601f10612581575061259f565b601f01602090049060005260206000209081019061259f91906126a1565b50565b508054600082559060005260206000209081019061259f91906126a1565b828054600181600116156101000203166002900490600052602060002090601f0160209004810192826125f6576000855561263c565b82601f1061260f57805160ff191683800117855561263c565b8280016001018555821561263c579182015b8281111561263c578251825591602001919060010190612621565b506126489291506126a1565b5090565b82805482825590600052602060002090810192821561263c579160200282015b8281111561263c57825182546001600160a01b0319166001600160a01b0390911617825560209092019160019091019061266c565b5b8082111561264857600081556001016126a2565b80356001600160a01b038116811461027d57600080fd5b6000602082840312156126de578081fd5b6126e7826126b6565b9392505050565b60008060008060808587031215612703578283fd5b61270c856126b6565b935060208501359250612721604086016126b6565b9396929550929360600135925050565b600080600060608486031215612745578283fd5b61274e846126b6565b925060208085013567ffffffffffffffff8082111561276b578485fd5b818701915087601f83011261277e578485fd5b81358181111561278a57fe5b604051601f8201601f19168101850183811182821017156127a757fe5b60405281815283820185018a10156127bd578687fd5b81858501868301379081019093019490945250929592945050506040919091013590565b600080604083850312156127f3578182fd5b6127fc836126b6565b946020939093013593505050565b60006020828403121561281b578081fd5b81356126e781612bc2565b600060208284031215612837578081fd5b81516126e781612bc2565b6001600160a01b03169052565b6000815180845260208085019450808401835b838110156128875781516001600160a01b031687529582019590820190600101612862565b509495945050505050565b600081518084526128aa816020860160208601612b96565b601f01601f19169290920160200192915050565b600082516128d0818460208701612b96565b9190910192915050565b665072697661746560c81b815260070190565b6020808252825182820181905260009190848201906040850190845b8181101561292e5783516001600160a01b031683529284019291840191600101612909565b50909695505050505050565b901515815260200190565b9283526001600160a01b03919091166020830152604082015260600190565b60006002841061297057fe5b8382526040602083015282511515604083015260208301516080606084015261299c60c0840182612892565b90506040840151603f19808584030160808601526129ba838361284f565b925060608601519150808584030160a0860152506129d8828261284f565b9695505050505050565b6000602082526126e76020830184612892565b60006040820160408352818554600180821660008114612a1c5760018114612a3a57612a73565b60028304607f16855260ff1983166060880152608087019350612a73565b60028304808652612a4a8a612b8a565b875b82811015612a695781548a82016060015290840190602001612a4c565b8901606001955050505b50505080925050506126e76020830184612842565b60208082526003908201526245433760e81b604082015260600190565b6020808252600490820152634543313960e01b604082015260600190565b60208082526003908201526245433560e81b604082015260600190565b6020808252600490820152630454332360e41b604082015260600190565b60208082526003908201526245433960e81b604082015260600190565b60208082526003908201526245433160e81b604082015260600190565b6020808252600490820152630454331360e41b604082015260600190565b60208082526003908201526222a19b60e91b604082015260600190565b90815260200190565b918252602082015260400190565b60009081526020902090565b60005b83811015612bb1578181015183820152602001612b99565b838111156102a35750506000910152565b801515811461259f57600080fdfea2646970667358221220195ad8f69908cd84cb818e9aa8a48344c3b46794282bc6786f0cd992a1de6b5864736f6c63430007060033",
  "immutableReferences": {},
  "source": "// SPDX-License-Identifier: GPL-3.0\r\n\r\npragma solidity >=0.7.0 <0.9.0;\r\npragma experimental ABIEncoderV2;\r\n\r\n/**\r\n * @title Storage\r\n * @dev Store & retrieve value in a variable\r\n */\r\n import \"./Libraries/Library.sol\";\r\n import \"./Interfaces/IProvider.sol\";\r\n import \"./Abstract/MultiSigContract.sol\";\r\n import \"./PrivateCertificatesPool.sol\";\r\n import \"./PublicCertificatesPool.sol\";\r\n\r\n\r\n contract Provider is IProvider, MultiSigContract {\r\n    using Library for *;\r\n\r\n    uint256 constant TotalEntities = 2;\r\n\r\n    // Owners\r\n    uint256 constant _ownerIdProviders = 0;\r\n    string constant _ownerLabel = \"Owner\";\r\n\r\n    // Pools\r\n    uint256 constant _poolId = 1;\r\n    string constant _poolLabel = \"Pool\";\r\n\r\n    string[] _Label = [_ownerLabel, _poolLabel];\r\n    \r\n    struct _CertificateStruct{\r\n        mapping(bytes32 => Library._entityIdentity) _cert;\r\n    }\r\n    \r\n    struct _CertificatesPerHolderStruct{\r\n        mapping(address => _CertificateStruct) _CertificatesPerHolder;\r\n    }\r\n   \r\n    mapping(address => _CertificatesPerHolderStruct) _CertificatesPerPool;\r\n\r\n    // modifiers\r\n    modifier isAPool(address pool){\r\n        require(true == isPool(pool));\r\n        _;\r\n    }\r\n    \r\n    modifier isEntityActivated(bool YesOrNo, Library._entityIdentity memory Entity){\r\n        Library.EntityActivated(YesOrNo, Entity);\r\n        _;\r\n    }\r\n    \r\n    modifier HasNotAlreadyVoted(Library.Actions action, Library._entityIdentity memory Entity){\r\n        Library.NotAlreadyVoted(action, Entity);\r\n        _;\r\n    }\r\n\r\n     // Constructor\r\n    constructor(address[] memory owners,  uint256 minOwners) \r\n        MultiSigContract(owners, minOwners, TotalEntities, _Label, _ownerIdProviders)\r\n    payable\r\n    {}\r\n\r\n    // POOL CRUD Operations\r\n    function addPool(address pool, string memory poolInfo, uint nonce) external override{\r\n        addEntity(pool, bytes(poolInfo), _poolId, nonce);\r\n    }\r\n\r\n    function removePool(address pool, uint nonce) external override{\r\n       removeEntity(pool, _poolId, nonce); \r\n    }\r\n    \r\n    function retrievePool(address pool) external override view returns (string memory){\r\n        return InternalRetrievePool(pool);\r\n    }\r\n    \r\n    function InternalRetrievePool(address pool) internal view returns (string memory){\r\n        return string(retrieveEntity(pool, _poolId));\r\n    }\r\n\r\n    function retrieveAllPools() external override view returns (address[] memory){\r\n        return(retrieveAllEntities(_poolId));\r\n    }\r\n    \r\n    function retrieveTotalPools() external override view returns (uint){\r\n        return (retrieveTotalEntities(_poolId));\r\n    }\r\n\r\n    function isPool(address pool) public view returns (bool){\r\n        return(isEntity(pool, _poolId));\r\n    }\r\n    \r\n    // Certificates management\r\n     function addCertificate(address pool, bytes32 CertificateHash, address holder, uint nonce) external override\r\n     {\r\n        manipulateCertificate(pool, CertificateHash, holder, Library.Actions.Add, nonce);\r\n     }\r\n     \r\n     function removeCertificate(address pool, bytes32 CertificateHash, address holder, uint nonce) external override\r\n     {\r\n         manipulateCertificate(pool, CertificateHash, holder, Library.Actions.Remove, nonce);\r\n     }\r\n\r\n    \r\n    function manipulateCertificate(address pool, bytes32 CertificateHash, address holder, Library.Actions act, uint nonce) \r\n        isAPool(pool)\r\n        isAnOwner\r\n        HasNotAlreadyVoted(act, _CertificatesPerPool[pool]._CertificatesPerHolder[holder]._cert[CertificateHash])\r\n        isNonceOK(nonce)\r\n    internal{\r\n        \r\n        uint validations;\r\n        \r\n        if(act == Library.Actions.Add){\r\n            _CertificatesPerPool[pool]._CertificatesPerHolder[holder]._cert[CertificateHash]._AddValidated.push(msg.sender);\r\n            validations = _CertificatesPerPool[pool]._CertificatesPerHolder[holder]._cert[CertificateHash]._AddValidated.length;\r\n        }\r\n        else{\r\n            _CertificatesPerPool[pool]._CertificatesPerHolder[holder]._cert[CertificateHash]._RemoveValidated.push(msg.sender);\r\n            validations = _CertificatesPerPool[pool]._CertificatesPerHolder[holder]._cert[CertificateHash]._RemoveValidated.length;\r\n        }\r\n\r\n        if(Library.CheckValidations(validations, _minOwners)){\r\n            MultiSigCertificatesPool poolToSend;\r\n            \r\n            if(keccak256(abi.encodePacked(\"Private\")) == keccak256(abi.encodePacked((InternalRetrievePool(pool))))){\r\n                poolToSend = PrivateCertificatesPool(pool);\r\n            }\r\n            else {\r\n                poolToSend = PublicCertificatesPool(pool);\r\n            }\r\n            \r\n            \r\n            if(act == Library.Actions.Add){\r\n                poolToSend.addCertificate(CertificateHash, holder, nonce);\r\n            }\r\n            else{\r\n               poolToSend.removeCertificate(CertificateHash, holder, nonce);\r\n            }\r\n            \r\n            delete(_CertificatesPerPool[pool]._CertificatesPerHolder[holder]._cert[CertificateHash]);\r\n\r\n            Library.AddNonce(nonce, _Nonces);\r\n            \r\n        }\r\n    }\r\n    \r\n }",
  "sourcePath": "C:/Users/d-aam/GitHub/Certificates/contracts/Provider.sol",
  "compiler": {
    "name": "solc",
    "version": "0.7.6+commit.7338295f.Emscripten.clang"
  },
  "schemaVersion": "3.3.4",
  "updatedAt": "2021-07-13T14:28:37.293Z",
  "networkType": "ethereum",
  "devdoc": {
    "kind": "dev",
    "methods": {},
    "version": 1
  },
  "userdoc": {
    "kind": "user",
    "methods": {},
    "version": 1
  }
}