{
  "contractName": "Provider",
  "abi": [
    {
      "inputs": [
        {
          "internalType": "address[]",
          "name": "owners",
          "type": "address[]"
        },
        {
          "internalType": "uint256",
          "name": "minOwners",
          "type": "uint256"
        },
        {
          "internalType": "string",
          "name": "ProviderInfo",
          "type": "string"
        }
      ],
      "stateMutability": "payable",
      "type": "constructor"
    },
    {
      "anonymous": false,
      "inputs": [
        {
          "indexed": false,
          "internalType": "string",
          "name": "",
          "type": "string"
        },
        {
          "indexed": false,
          "internalType": "address",
          "name": "",
          "type": "address"
        }
      ],
      "name": "_AddEntityValidationIdEvent",
      "type": "event"
    },
    {
      "anonymous": false,
      "inputs": [
        {
          "indexed": false,
          "internalType": "string",
          "name": "",
          "type": "string"
        },
        {
          "indexed": false,
          "internalType": "address",
          "name": "",
          "type": "address"
        }
      ],
      "name": "_RemoveEntityValidationIdEvent",
      "type": "event"
    },
    {
      "inputs": [
        {
          "internalType": "address",
          "name": "owner",
          "type": "address"
        },
        {
          "internalType": "string",
          "name": "ownerInfo",
          "type": "string"
        }
      ],
      "name": "addOwner",
      "outputs": [],
      "stateMutability": "nonpayable",
      "type": "function"
    },
    {
      "inputs": [
        {
          "internalType": "address",
          "name": "owner",
          "type": "address"
        }
      ],
      "name": "isOwner",
      "outputs": [
        {
          "internalType": "bool",
          "name": "",
          "type": "bool"
        }
      ],
      "stateMutability": "view",
      "type": "function"
    },
    {
      "inputs": [
        {
          "internalType": "address",
          "name": "owner",
          "type": "address"
        }
      ],
      "name": "removeOwner",
      "outputs": [],
      "stateMutability": "nonpayable",
      "type": "function"
    },
    {
      "inputs": [],
      "name": "retrieveAllOwners",
      "outputs": [
        {
          "internalType": "address[]",
          "name": "",
          "type": "address[]"
        }
      ],
      "stateMutability": "view",
      "type": "function"
    },
    {
      "inputs": [],
      "name": "retrieveMinOwners",
      "outputs": [
        {
          "internalType": "uint256",
          "name": "",
          "type": "uint256"
        }
      ],
      "stateMutability": "view",
      "type": "function"
    },
    {
      "inputs": [
        {
          "internalType": "address",
          "name": "owner",
          "type": "address"
        }
      ],
      "name": "retrieveOwner",
      "outputs": [
        {
          "internalType": "string",
          "name": "",
          "type": "string"
        },
        {
          "internalType": "bool",
          "name": "",
          "type": "bool"
        }
      ],
      "stateMutability": "view",
      "type": "function"
    },
    {
      "inputs": [
        {
          "internalType": "bool",
          "name": "addedORremove",
          "type": "bool"
        }
      ],
      "name": "retrievePendingOwners",
      "outputs": [
        {
          "internalType": "address[]",
          "name": "",
          "type": "address[]"
        },
        {
          "internalType": "string[]",
          "name": "",
          "type": "string[]"
        }
      ],
      "stateMutability": "view",
      "type": "function"
    },
    {
      "stateMutability": "payable",
      "type": "receive"
    },
    {
      "inputs": [
        {
          "internalType": "address",
          "name": "pool",
          "type": "address"
        },
        {
          "internalType": "string",
          "name": "poolInfo",
          "type": "string"
        },
        {
          "internalType": "uint256",
          "name": "AddCertificatePrice",
          "type": "uint256"
        },
        {
          "internalType": "uint256",
          "name": "SubscriptionPrice",
          "type": "uint256"
        }
      ],
      "name": "subscribeToPublicPool",
      "outputs": [],
      "stateMutability": "nonpayable",
      "type": "function"
    },
    {
      "inputs": [
        {
          "internalType": "address",
          "name": "pool",
          "type": "address"
        },
        {
          "internalType": "string",
          "name": "poolInfo",
          "type": "string"
        },
        {
          "internalType": "uint256",
          "name": "AddCertificatePrice",
          "type": "uint256"
        }
      ],
      "name": "addPool",
      "outputs": [],
      "stateMutability": "nonpayable",
      "type": "function"
    },
    {
      "inputs": [
        {
          "internalType": "address",
          "name": "pool",
          "type": "address"
        }
      ],
      "name": "removePool",
      "outputs": [],
      "stateMutability": "nonpayable",
      "type": "function"
    },
    {
      "inputs": [
        {
          "internalType": "address",
          "name": "pool",
          "type": "address"
        }
      ],
      "name": "retrievePool",
      "outputs": [
        {
          "internalType": "string",
          "name": "",
          "type": "string"
        },
        {
          "internalType": "bool",
          "name": "",
          "type": "bool"
        },
        {
          "internalType": "uint256",
          "name": "",
          "type": "uint256"
        }
      ],
      "stateMutability": "view",
      "type": "function"
    },
    {
      "inputs": [],
      "name": "retrieveAllPools",
      "outputs": [
        {
          "internalType": "address[]",
          "name": "",
          "type": "address[]"
        }
      ],
      "stateMutability": "view",
      "type": "function"
    },
    {
      "inputs": [
        {
          "internalType": "address",
          "name": "pool",
          "type": "address"
        }
      ],
      "name": "isPool",
      "outputs": [
        {
          "internalType": "bool",
          "name": "",
          "type": "bool"
        }
      ],
      "stateMutability": "view",
      "type": "function"
    },
    {
      "inputs": [
        {
          "internalType": "address",
          "name": "pool",
          "type": "address"
        },
        {
          "internalType": "bytes32",
          "name": "CertificateHash",
          "type": "bytes32"
        },
        {
          "internalType": "address",
          "name": "holder",
          "type": "address"
        }
      ],
      "name": "addCertificate",
      "outputs": [],
      "stateMutability": "nonpayable",
      "type": "function"
    },
    {
      "inputs": [
        {
          "internalType": "address",
          "name": "pool",
          "type": "address"
        },
        {
          "internalType": "bytes32",
          "name": "CertificateHash",
          "type": "bytes32"
        },
        {
          "internalType": "address",
          "name": "holder",
          "type": "address"
        }
      ],
      "name": "removeCertificate",
      "outputs": [],
      "stateMutability": "nonpayable",
      "type": "function"
    }
  ],
  "bytecode": "0x600560c09081526427bbb732b960d91b60e0526080908152610140604052600461010081815263141bdbdb60e21b6101205260a0526200004191600262000340565b5060405162002fef38038062002fef833981016040819052620000649162000541565b828260026004805480602002602001604051908101604052809291908181526020016000905b828210156200013b5760008481526020908190208301805460408051601f6002600019610100600187161502019094169390930492830185900485028101850190915281815292830182828015620001265780601f10620000fa5761010080835404028352916020019162000126565b820191906000526020600020905b8154815290600101906020018083116200010857829003601f168201915b5050505050815260200190600101906200008a565b50505050600084518411156200016e5760405162461bcd60e51b8152600401620001659062000632565b60405180910390fd5b60008411620001915760405162461bcd60e51b8152600401620001659062000650565b81518314620001b45760405162461bcd60e51b815260040162000165906200066e565b60008181555b838110156200021f576002805460010181556000528251600390849083908110620001e157fe5b60209081029190910181015182546001810184556000938452928290208151620002159491909101929190910190620003a4565b50600101620001ba565b50600184905560005b85518110156200031a5760016002600054815481106200024457fe5b906000526020600020906004020160000160008884815181106200026457fe5b60200260200101516001600160a01b03166001600160a01b0316815260200190815260200160002060000160006101000a81548160ff021916908315150217905550600260005481548110620002b657fe5b9060005260206000209060040201600101868281518110620002d457fe5b60209081029190910181015182546001808201855560009485529290932090920180546001600160a01b0319166001600160a01b03909316929092179091550162000228565b50508451620003369450600693506020860192509050620003a4565b50505050620006b0565b82805482825590600052602060002090810192821562000392579160200282015b8281111562000392578251805162000381918491602090910190620003a4565b509160200191906001019062000361565b50620003a092915062000435565b5090565b828054600181600116156101000203166002900490600052602060002090601f016020900481019282620003dc576000855562000427565b82601f10620003f757805160ff191683800117855562000427565b8280016001018555821562000427579182015b82811115620004275782518255916020019190600101906200040a565b50620003a092915062000456565b80821115620003a05760006200044c82826200046d565b5060010162000435565b5b80821115620003a0576000815560010162000457565b50805460018160011615610100020316600290046000825580601f10620004955750620004b5565b601f016020900490600052602060002090810190620004b5919062000456565b50565b600082601f830112620004c9578081fd5b81516001600160401b03811115620004dd57fe5b6020620004f3601f8301601f191682016200068c565b828152858284870101111562000507578384fd5b835b838110156200052657858101830151828201840152820162000509565b838111156200053757848385840101525b5095945050505050565b60008060006060848603121562000556578283fd5b83516001600160401b03808211156200056d578485fd5b818601915086601f83011262000581578485fd5b81516020828211156200059057fe5b808202620005a08282016200068c565b8381528281019086840183880185018d1015620005bb578a8bfd5b8a97505b85881015620005f757805193506001600160a01b0384168414620005e1578a8bfd5b83835260019790970196918401918401620005bf565b50928a015160408b015193995097509194505050508082111562000619578283fd5b506200062886828701620004b8565b9150509250925092565b60208082526004908201526322a1989b60e11b604082015260600190565b6020808252600490820152634543313760e01b604082015260600190565b60208082526004908201526308a8662760e31b604082015260600190565b6040518181016001600160401b0381118282101715620006a857fe5b604052919050565b61292f80620006c06000396000f3fe6080604052600436106100bc5760003560e01c806314a2ed2f146100c8578063173825d9146100ea5780632d99aaf21461010a5780632f54bf6e146101355780633542758f146101625780633b7d09461461018257806359f8ef32146101a25780635b16ebb7146101c257806365b973e5146101e25780636b2996041461020457806377bc5a1f146102325780638fc2d8ea14610260578063a93d5ed61461028f578063dd3ef444146102a4578063f4989e71146102c4576100c3565b366100c357005b600080fd5b3480156100d457600080fd5b506100e86100e33660046122ed565b6102e4565b005b3480156100f657600080fd5b506100e86101053660046122d3565b6102f6565b34801561011657600080fd5b5061011f61033d565b60405161012c9190612647565b60405180910390f35b34801561014157600080fd5b506101556101503660046122d3565b61034e565b60405161012c91906126ca565b34801561016e57600080fd5b506100e861017d366004612328565b610364565b34801561018e57600080fd5b506100e861019d3660046122d3565b610375565b3480156101ae57600080fd5b506100e86101bd3660046123c7565b6103c6565b3480156101ce57600080fd5b506101556101dd3660046122d3565b61045f565b3480156101ee57600080fd5b506101f761046c565b60405161012c919061282c565b34801561021057600080fd5b5061022461021f3660046124c2565b610472565b60405161012c92919061265a565b34801561023e57600080fd5b5061025261024d3660046122d3565b61048a565b60405161012c9291906126ec565b34801561026c57600080fd5b5061028061027b3660046122d3565b61049a565b60405161012c93929190612710565b34801561029b57600080fd5b5061011f6104d3565b3480156102b057600080fd5b506100e86102bf366004612373565b6104e0565b3480156102d057600080fd5b506100e86102df3660046122ed565b6104ed565b6102f183838360006104f6565b505050565b60015460016103066000546109ea565b5103808211156103315760405162461bcd60e51b81526004016103289061277c565b60405180910390fd5b6102f183600054610b1c565b606061034960016109ea565b905090565b600061035c82600054611290565b90505b919050565b6103718282600054611381565b5050565b610380816001610b1c565b6103898161045f565b6103c3576001600160a01b0381166000908152600960209081526040808320805460ff191690556007825280832083905560089091528120555b50565b6103d2848484846119f0565b6103db8461045f565b151560011415610459576001600160a01b0384166000818152600860205260409081902054905162fc000560e81b815286929163fc0005009161042590309060069060040161261b565b6000604051808303818588803b15801561043e57600080fd5b505af1158015610452573d6000803e3d6000fd5b5050505050505b50505050565b600061035c826001611290565b60015490565b60608061048183600054611a5c565b91509150915091565b6060600061048183600054611cba565b6060600080606060006104ac86611e48565b6001600160a01b039790971660009081526007602052604090205490979095509350505050565b60606103496000546109ea565b6102f183838360006119f0565b6102f183838360015b836105008161045f565b151560011461050e57600080fd5b61051a33600054611290565b151560011461053b5760405162461bcd60e51b8152600401610328906127b7565b6001600160a01b03858116600090815260056020908152604080832093871683529281528282208783528152908290208251608081018452815460ff1615158152600180830180548651600261010094831615949094026000190190911692909204601f810186900486028301860190965285825287959294858101939083018282801561060a5780601f106105df5761010080835404028352916020019161060a565b820191906000526020600020905b8154815290600101906020018083116105ed57829003601f168201915b505050505081526020016002820180548060200260200160405190810160405280929190818152602001828054801561066c57602002820191906000526020600020905b81546001600160a01b0316815260019091019060200180831161064e575b50505050508152602001600382018054806020026020016040519081016040528092919081815260200182805480156106ce57602002820191906000526020600020905b81546001600160a01b031681526001909101906020018083116106b0575b5050505050815250508160018111156106e357fe5b610717576106f5338260400151611e57565b156107125760405162461bcd60e51b81526004016103289061279a565b610742565b610725338260600151611e57565b156107425760405162461bcd60e51b81526004016103289061279a565b60008085600181111561075157fe5b14156107b457506001600160a01b03878116600090815260056020908152604080832093891683529281528282208983528152918120600201805460018101825581835292822090920180546001600160a01b031916331790558790525461080d565b506001600160a01b03878116600090815260056020908152604080832093891683529281528282208983528152918120600301805460018101825581835292822090920180546001600160a01b03191633179055879052545b61081981600154611eaf565b156109e05760008061082a8a611e48565b5090508060405160200161083e91906125ec565b6040516020818303038152906040528051906020012060405160200161086390612608565b6040516020818303038152906040528051906020012014156108875789915061088b565b8991505b600087600181111561089957fe5b1415610919576001600160a01b038a81166000908152600760205260409081902054905163035700ff60e31b815291841691631ab807f891906108e2908d908d906004016126d5565b6000604051808303818588803b1580156108fb57600080fd5b505af115801561090f573d6000803e3d6000fd5b505050505061097a565b60405163539ed94560e11b81526001600160a01b0383169063a73db28a90610947908c908c906004016126d5565b600060405180830381600087803b15801561096157600080fd5b505af1158015610975573d6000803e3d6000fd5b505050505b6001600160a01b03808b166000908152600560209081526040808320938c1683529281528282208c83529052908120805460ff19168155906109bf6001830182612100565b6109cd600283016000612144565b6109db600383016000612144565b505050505b5050505050505050565b60025460405163123bd07560e11b8152606091839173__Library_______________________________90632477a0ea90610a2b9085908590600401612882565b60206040518083038186803b158015610a4357600080fd5b505af4158015610a57573d6000803e3d6000fd5b505050506040513d601f19601f82011682018060405250810190610a7b91906124de565b1515600114610a9c5760405162461bcd60e51b8152600401610328906127d4565b60028481548110610aa957fe5b9060005260206000209060040201600101805480602002602001604051908101604052809291908181526020018280548015610b0e57602002820191906000526020600020905b81546001600160a01b03168152600190910190602001808311610af0575b505050505092505050919050565b60025460405163123bd07560e11b815282919073__Library_______________________________90632477a0ea90610b5b9085908590600401612882565b60206040518083038186803b158015610b7357600080fd5b505af4158015610b87573d6000803e3d6000fd5b505050506040513d601f19601f82011682018060405250810190610bab91906124de565b1515600114610bcc5760405162461bcd60e51b8152600401610328906127d4565b83610bd933600054611290565b151560011480610bf15750336001600160a01b038216145b610c0d5760405162461bcd60e51b8152600401610328906127f1565b60018585610c1b8282611290565b1515600114610c3c5760405162461bcd60e51b81526004016103289061275f565b600160028881548110610c4b57fe5b600091825260208083206001600160a01b038d168452600490920290910181526040918290208251608081018452815460ff1615158152600180830180548651601f600260001995841615610100029590950190921693909304908101869004860283018601909652858252919492938581019391929190830182828015610d145780601f10610ce957610100808354040283529160200191610d14565b820191906000526020600020905b815481529060010190602001808311610cf757829003601f168201915b5050505050815260200160028201805480602002602001604051908101604052809291908181526020018280548015610d7657602002820191906000526020600020905b81546001600160a01b03168152600190910190602001808311610d58575b5050505050815260200160038201805480602002602001604051908101604052809291908181526020018280548015610dd857602002820191906000526020600020905b81546001600160a01b03168152600190910190602001808311610dba575b505050505081525050816001811115610ded57fe5b610e2157610dff338260400151611e57565b15610e1c5760405162461bcd60e51b81526004016103289061279a565b610e4c565b610e2f338260600151611e57565b15610e4c5760405162461bcd60e51b81526004016103289061279a565b60028981548110610e5957fe5b600091825260208083206001600160a01b038e168452600490920290910190526040902060030154610ed05760028981548110610e9257fe5b60009182526020808320600492909202909101600301805460018101825590835291200180546001600160a01b0319166001600160a01b038c161790555b60028981548110610edd57fe5b600091825260208083206001600160a01b038e168085526004909302018152604083206003018054600181018255908452922090910180546001600160a01b031916339081179091551480610f6d5750610f6d60028a81548110610f3d57fe5b600091825260208083206001600160a01b038f168452600490920290910190526040902060030154600154611eaf565b1561045257611071610ff58b60028c81548110610f8657fe5b9060005260206000209060040201600101805480602002602001604051908101604052809291908181526020018280548015610feb57602002820191906000526020600020905b81546001600160a01b03168152600190910190602001808311610fcd575b5050505050611eca565b60028b8154811061100257fe5b906000526020600020906004020160010180548060200260200160405190810160405280929190818152602001828054801561106757602002820191906000526020600020905b81546001600160a01b03168152600190910190602001808311611049575b5050505050611eee565b60028a8154811061107e57fe5b906000526020600020906004020160010190805190602001906110a2929190612162565b5061119e6111248b60028c815481106110b757fe5b9060005260206000209060040201600301805480602002602001604051908101604052809291908181526020018280548015610feb576020028201919060005260206000209081546001600160a01b03168152600190910190602001808311610fcd575050505050611eca565b60028b8154811061113157fe5b9060005260206000209060040201600301805480602002602001604051908101604052809291908181526020018280548015611067576020028201919060005260206000209081546001600160a01b03168152600190910190602001808311611049575050505050611eee565b60028a815481106111ab57fe5b906000526020600020906004020160030190805190602001906111cf929190612162565b50600289815481106111dd57fe5b600091825260208083206001600160a01b038e1684526004909202909101905260408120805460ff19168155906112176001830182612100565b611225600283016000612144565b611233600383016000612144565b50507f1f62d535f971041db7bd8760bf0f1f9f476461558744a35c0d477b5ad6893e8960038a8154811061126357fe5b906000526020600020018b60405161127c929190612735565b60405180910390a150505050505050505050565b60025460405163123bd07560e11b8152600091839173__Library_______________________________90632477a0ea906112d19085908590600401612882565b60206040518083038186803b1580156112e957600080fd5b505af41580156112fd573d6000803e3d6000fd5b505050506040513d601f19601f8201168201806040525081019061132191906124de565b15156001146113425760405162461bcd60e51b8152600401610328906127d4565b6002848154811061134f57fe5b600091825260208083206001600160a01b038916845260049092029091019052604090205460ff169250505092915050565b60025460405163123bd07560e11b815282919073__Library_______________________________90632477a0ea906113c09085908590600401612882565b60206040518083038186803b1580156113d857600080fd5b505af41580156113ec573d6000803e3d6000fd5b505050506040513d601f19601f8201168201806040525081019061141091906124de565b15156001146114315760405162461bcd60e51b8152600401610328906127d4565b61143d33600054611290565b151560011461145e5760405162461bcd60e51b8152600401610328906127b7565b6000858461146c8282611290565b156114895760405162461bcd60e51b81526004016103289061280f565b60006002878154811061149857fe5b600091825260208083206001600160a01b038d168452600490920290910181526040918290208251608081018452815460ff1615158152600180830180548651601f6002600019958416156101000295909501909216939093049081018690048602830186019096528582529194929385810193919291908301828280156115615780601f1061153657610100808354040283529160200191611561565b820191906000526020600020905b81548152906001019060200180831161154457829003601f168201915b50505050508152602001600282018054806020026020016040519081016040528092919081815260200182805480156115c357602002820191906000526020600020905b81546001600160a01b031681526001909101906020018083116115a5575b505050505081526020016003820180548060200260200160405190810160405280929190818152602001828054801561162557602002820191906000526020600020905b81546001600160a01b03168152600190910190602001808311611607575b50505050508152505081600181111561163a57fe5b61166e5761164c338260400151611e57565b156116695760405162461bcd60e51b81526004016103289061279a565b611699565b61167c338260600151611e57565b156116995760405162461bcd60e51b81526004016103289061279a565b600288815481106116a657fe5b600091825260208083206001600160a01b038e1684526004909202909101905260409020600201546117675788600289815481106116e057fe5b600091825260208083206001600160a01b038f168452600490920290910181526040909120825161171b9360019092019291909101906121c7565b506002888154811061172957fe5b60009182526020808320600492909202909101600201805460018101825590835291200180546001600160a01b0319166001600160a01b038c161790555b6002888154811061177457fe5b600091825260208083206001600160a01b038e168452600490920290910181526040822060029081018054600181018255908452919092200180546001600160a01b0319163317905580546117fe91908a9081106117ce57fe5b600091825260208083206001600160a01b038f168452600490920290910190526040902060020154600154611eaf565b156104525760016002898154811061181257fe5b600091825260208083206001600160a01b038f168452600492909202909101905260409020805460ff1916911515919091179055600280548990811061185457fe5b60009182526020808320600160049093020182018054928301815583529091200180546001600160a01b038c166001600160a01b03199091161790556002805461199091611916918d91908c9081106118a957fe5b9060005260206000209060040201600201805480602002602001604051908101604052809291908181526020018280548015610feb576020028201919060005260206000209081546001600160a01b03168152600190910190602001808311610fcd575050505050611eca565b60028a8154811061192357fe5b9060005260206000209060040201600201805480602002602001604051908101604052809291908181526020018280548015611067576020028201919060005260206000209081546001600160a01b03168152600190910190602001808311611049575050505050611eee565b6002898154811061199d57fe5b906000526020600020906004020160020190805190602001906119c1929190612162565b507f3c139d46a211844e248647688545a37c07c505c999c1232d1247c707dc0a91e26003898154811061126357fe5b6119fc84846001611381565b6001600160a01b03841660009081526009602052604090205460ff16610459576001600160a01b03841660009081526007602090815260408083208590556008825280832084905560099091529020805460ff1916600117905550505050565b60025460405163123bd07560e11b8152606091829184919073__Library_______________________________90632477a0ea90611aa09085908590600401612882565b60206040518083038186803b158015611ab857600080fd5b505af4158015611acc573d6000803e3d6000fd5b505050506040513d601f19601f82011682018060405250810190611af091906124de565b1515600114611b115760405162461bcd60e51b8152600401610328906127d4565b60608615611b975760028681548110611b2657fe5b9060005260206000209060040201600201805480602002602001604051908101604052809291908181526020018280548015611b8b57602002820191906000526020600020905b81546001600160a01b03168152600190910190602001808311611b6d575b50505050509050611c11565b60028681548110611ba457fe5b9060005260206000209060040201600301805480602002602001604051908101604052809291908181526020018280548015611c0957602002820191906000526020600020905b81546001600160a01b03168152600190910190602001808311611beb575b505050505090505b6002546000906001600160401b0381118015611c2c57600080fd5b50604051908082528060200260200182016040528015611c6057816020015b6060815260200190600190039081611c4b5790505b50905060005b8251811015611cac57611c8c838281518110611c7e57fe5b602002602001015189611cba565b50828281518110611c9957fe5b6020908102919091010152600101611c66565b509097909650945050505050565b60025460405163123bd07560e11b815260609160009184919073__Library_______________________________90632477a0ea90611cff9085908590600401612882565b60206040518083038186803b158015611d1757600080fd5b505af4158015611d2b573d6000803e3d6000fd5b505050506040513d601f19601f82011682018060405250810190611d4f91906124de565b1515600114611d705760405162461bcd60e51b8152600401610328906127d4565b60028581548110611d7d57fe5b600091825260208083206001600160a01b038a1684526004909202909101905260409020600101611dae8787611290565b8154604080516020601f60026000196101006001881615020190951694909404938401819004810282018101909252828152918491830182828015611e345780601f10611e0957610100808354040283529160200191611e34565b820191906000526020600020905b815481529060010190602001808311611e1757829003601f168201915b505050505091509350935050509250929050565b60606000610481836001611cba565b6000805b8251811015611ea357828181518110611e7057fe5b60200260200101516001600160a01b0316846001600160a01b03161415611e9b576001915050611ea9565b600101611e5b565b50600090505b92915050565b600081831015611ec157506000611ea9565b50600192915050565b6000611ee76001600160a01b038416611ee284611f8d565b612027565b9392505050565b6060611ee773__Library_______________________________635b28cf6385611f1786611f8d565b6040518363ffffffff1660e01b8152600401611f34929190612835565b60006040518083038186803b158015611f4c57600080fd5b505af4158015611f60573d6000803e3d6000fd5b505050506040513d6000823e601f3d908101601f19168201604052611f889190810190612422565b612069565b6060600082516001600160401b0381118015611fa857600080fd5b50604051908082528060200260200182016040528015611fd2578160200160208202803683370190505b50905060005b815181101561202057838181518110611fed57fe5b60200260200101516001600160a01b031660001b82828151811061200d57fe5b6020908102919091010152600101611fd8565b5092915050565b6000805b825181101561205e5782818151811061204057fe5b6020026020010151841415612056579050611ea9565b60010161202b565b505051600101919050565b6060600082516001600160401b038111801561208457600080fd5b506040519080825280602002602001820160405280156120ae578160200160208202803683370190505b50905060005b8151811015612020578381815181106120c957fe5b602002602001015160001c8282815181106120e057fe5b6001600160a01b03909216602092830291909101909101526001016120b4565b50805460018160011615610100020316600290046000825580601f1061212657506103c3565b601f0160209004906000526020600020908101906103c39190612243565b50805460008255906000526020600020908101906103c39190612243565b8280548282559060005260206000209081019282156121b7579160200282015b828111156121b757825182546001600160a01b0319166001600160a01b03909116178255602090920191600190910190612182565b506121c3929150612243565b5090565b828054600181600116156101000203166002900490600052602060002090601f0160209004810192826121fd57600085556121b7565b82601f1061221657805160ff19168380011785556121b7565b828001600101855582156121b7579182015b828111156121b7578251825591602001919060010190612228565b5b808211156121c35760008155600101612244565b80356001600160a01b038116811461035f57600080fd5b600082601f83011261227f578081fd5b81356001600160401b0381111561229257fe5b6122a5601f8201601f1916602001612890565b8181528460208386010111156122b9578283fd5b816020850160208301379081016020019190915292915050565b6000602082840312156122e4578081fd5b611ee782612258565b600080600060608486031215612301578182fd5b61230a84612258565b92506020840135915061231f60408501612258565b90509250925092565b6000806040838503121561233a578182fd5b61234383612258565b915060208301356001600160401b0381111561235d578182fd5b6123698582860161226f565b9150509250929050565b600080600060608486031215612387578283fd5b61239084612258565b925060208401356001600160401b038111156123aa578283fd5b6123b68682870161226f565b925050604084013590509250925092565b600080600080608085870312156123dc578081fd5b6123e585612258565b935060208501356001600160401b038111156123ff578182fd5b61240b8782880161226f565b949794965050505060408301359260600135919050565b60006020808385031215612434578182fd5b82516001600160401b038082111561244a578384fd5b818501915085601f83011261245d578384fd5b81518181111561246957fe5b8381029150612479848301612890565b8181528481019084860184860187018a1015612493578788fd5b8795505b838610156124b5578051835260019590950194918601918601612497565b5098975050505050505050565b6000602082840312156124d3578081fd5b8135611ee7816128eb565b6000602082840312156124ef578081fd5b8151611ee7816128eb565b6000815180845260208085019450808401835b838110156125325781516001600160a01b03168752958201959082019060010161250d565b509495945050505050565b600081518084526125558160208601602086016128bf565b601f01601f19169290920160200192915050565b6000815460018082166000811461258757600181146125a5576125e3565b60028304607f16865260ff19831660208701526040860193506125e3565b600283048087526125b5866128b3565b60005b828110156125d95781546020828b01015284820191506020810190506125b8565b8801602001955050505b50505092915050565b600082516125fe8184602087016128bf565b9190910192915050565b665072697661746560c81b815260070190565b6001600160a01b038316815260406020820181905260009061263f90830184612569565b949350505050565b600060208252611ee760208301846124fa565b60006040825261266d60408301856124fa565b602083820381850152818551808452828401915082838202850101838801865b838110156126bb57601f198784030185526126a983835161253d565b9486019492509085019060010161268d565b50909998505050505050505050565b901515815260200190565b9182526001600160a01b0316602082015260400190565b6000604082526126ff604083018561253d565b905082151560208301529392505050565b600060608252612723606083018661253d565b93151560208301525060400152919050565b6000604082526127486040830185612569565b905060018060a01b03831660208301529392505050565b60208082526003908201526245433760e81b604082015260600190565b6020808252600490820152634543313960e01b604082015260600190565b60208082526003908201526245433560e81b604082015260600190565b60208082526003908201526245433960e81b604082015260600190565b60208082526003908201526245433160e81b604082015260600190565b6020808252600490820152630454331360e41b604082015260600190565b60208082526003908201526222a19b60e91b604082015260600190565b90815260200190565b60006040820184835260206040818501528185518084526060860191508287019350845b8181101561287557845183529383019391830191600101612859565b5090979650505050505050565b918252602082015260400190565b6040518181016001600160401b03811182821017156128ab57fe5b604052919050565b60009081526020902090565b60005b838110156128da5781810151838201526020016128c2565b838111156104595750506000910152565b80151581146103c357600080fdfea264697066735822122033e9fc8b5d01937fad179c43a6739d8e5b36160280b1d1cebf87969b5c7a8fef64736f6c63430007060033",
  "immutableReferences": {},
  "source": "// SPDX-License-Identifier: GPL-3.0\r\n\r\npragma solidity >=0.7.0 <0.9.0;\r\npragma experimental ABIEncoderV2;\r\n\r\n/**\r\n * @title Storage\r\n * @dev Store & retrieve value in a variable\r\n */\r\n import \"./Libraries/Library.sol\";\r\n import \"./Interfaces/IProvider.sol\";\r\n import \"./Abstract/MultiSigContract.sol\";\r\n import \"./PrivateCertificatesPool.sol\";\r\n import \"./PublicCertificatesPool.sol\";\r\n\r\n\r\n contract Provider is IProvider, MultiSigContract {\r\n    using Library for *;\r\n\r\n    uint256 constant TotalEntities = 2;\r\n\r\n    // Owners\r\n    uint256 constant _ownerIdProviders = 0;\r\n    string constant _ownerLabel = \"Owner\";\r\n\r\n    // Pools\r\n    uint256 constant _poolId = 1;\r\n    string constant _poolLabel = \"Pool\";\r\n\r\n    string[] _Label = [_ownerLabel, _poolLabel];\r\n    \r\n    struct _CertificateStruct{\r\n        mapping(bytes32 => _entityIdentity) _cert;\r\n    }\r\n    \r\n    struct _CertificatesPerHolderStruct{\r\n        mapping(address => _CertificateStruct) _CertificatesPerHolder;\r\n    }\r\n   \r\n    mapping(address => _CertificatesPerHolderStruct) _CertificatesPerPool;\r\n    string _ProviderInfo;\r\n\r\n    mapping(address => uint256) _AddCertificatePricePerPool;\r\n    mapping(address => uint256) _SubscriptionPricePerPool;\r\n    mapping(address => bool) _submited;\r\n\r\n    // modifiers\r\n    modifier isAPool(address pool){\r\n        require(true == isPool(pool));\r\n        _;\r\n    }\r\n\r\n     // Constructor\r\n    constructor(address[] memory owners,  uint256 minOwners, string memory ProviderInfo) \r\n        MultiSigContract(owners, minOwners, TotalEntities, _Label, _ownerIdProviders)\r\n    payable\r\n    {\r\n        _ProviderInfo = ProviderInfo;\r\n    }\r\n\r\n    // POOL CRUD Operations\r\n    function subscribeToPublicPool(address pool, string memory poolInfo, uint256 AddCertificatePrice, uint256 SubscriptionPrice) external override{\r\n        InternaladdPool(pool, poolInfo, AddCertificatePrice, SubscriptionPrice);\r\n        if(true == isPool(pool)){\r\n            MultiSigCertificatesPool poolToSubscribe = PublicCertificatesPool(pool);\r\n            poolToSubscribe.addProvider{value:_SubscriptionPricePerPool[pool]}(address(this), _ProviderInfo);\r\n        }\r\n    }\r\n\r\n    function addPool(address pool, string memory poolInfo, uint256 AddCertificatePrice) external override{\r\n        InternaladdPool(pool, poolInfo, AddCertificatePrice, 0);\r\n    }\r\n\r\n    function InternaladdPool(address pool, string memory poolInfo, uint256 AddCertificatePrice, uint256 SubscriptionPrice) internal{\r\n        addEntity(pool, poolInfo, _poolId);\r\n        if(false == _submited[pool]){\r\n            _AddCertificatePricePerPool[pool] = AddCertificatePrice;\r\n            _SubscriptionPricePerPool[pool] = SubscriptionPrice;\r\n            _submited[pool] = true;\r\n        }\r\n    }\r\n\r\n    function removePool(address pool) external override{\r\n       removeEntity(pool, _poolId); \r\n       if(false == isPool(pool)){\r\n           delete(_submited[pool]);\r\n           delete(_AddCertificatePricePerPool[pool]);\r\n           delete(_SubscriptionPricePerPool[pool]);\r\n       } \r\n\r\n    }\r\n    \r\n    function retrievePool(address pool) external override view returns (string memory, bool, uint256){\r\n        string memory poolInfo;\r\n        bool isActivated;\r\n\r\n        (poolInfo, isActivated) = InternalRetrievePool(pool);\r\n        return (poolInfo, isActivated, _AddCertificatePricePerPool[pool]);\r\n    }\r\n    \r\n    function InternalRetrievePool(address pool) internal view returns (string memory, bool){\r\n        return retrieveEntity(pool, _poolId);\r\n    }\r\n\r\n    function retrieveAllPools() external override view returns (address[] memory){\r\n        return retrieveAllEntities(_poolId);\r\n    }\r\n\r\n    function isPool(address pool) public view returns (bool){\r\n        return(isEntity(pool, _poolId));\r\n    }\r\n    \r\n    // Certificates management\r\n     function addCertificate(address pool, bytes32 CertificateHash, address holder) external override\r\n     {\r\n        manipulateCertificate(pool, CertificateHash, holder, Actions.Add);\r\n     }\r\n     \r\n     function removeCertificate(address pool, bytes32 CertificateHash, address holder) external override\r\n     {\r\n         manipulateCertificate(pool, CertificateHash, holder, Actions.Remove);\r\n     }\r\n\r\n    \r\n    function manipulateCertificate(address pool, bytes32 CertificateHash, address holder, Actions act) \r\n        isAPool(pool)\r\n        isAnOwner\r\n        HasNotAlreadyVoted(act, _CertificatesPerPool[pool]._CertificatesPerHolder[holder]._cert[CertificateHash])\r\n    internal{\r\n        \r\n        uint validations;\r\n        \r\n        if(act == Actions.Add){\r\n            _CertificatesPerPool[pool]._CertificatesPerHolder[holder]._cert[CertificateHash]._AddValidated.push(msg.sender);\r\n            validations = _CertificatesPerPool[pool]._CertificatesPerHolder[holder]._cert[CertificateHash]._AddValidated.length;\r\n        }\r\n        else{\r\n            _CertificatesPerPool[pool]._CertificatesPerHolder[holder]._cert[CertificateHash]._RemoveValidated.push(msg.sender);\r\n            validations = _CertificatesPerPool[pool]._CertificatesPerHolder[holder]._cert[CertificateHash]._RemoveValidated.length;\r\n        }\r\n\r\n        if(Library.CheckValidations(validations, _minOwners)){\r\n            MultiSigCertificatesPool poolToSend;\r\n            (string memory p ,) = InternalRetrievePool(pool);\r\n            \r\n            if(keccak256(abi.encodePacked(\"Private\")) == keccak256(abi.encodePacked((p)))){\r\n                poolToSend = PrivateCertificatesPool(pool);\r\n            }\r\n            else {\r\n                poolToSend = PublicCertificatesPool(pool);\r\n            }\r\n            \r\n            \r\n            if(act == Actions.Add){\r\n                poolToSend.addCertificate{value:_AddCertificatePricePerPool[pool]}(CertificateHash, holder);\r\n            }\r\n            else{\r\n               poolToSend.removeCertificate(CertificateHash, holder);\r\n            }\r\n            \r\n            delete(_CertificatesPerPool[pool]._CertificatesPerHolder[holder]._cert[CertificateHash]);\r\n            \r\n        }\r\n    }\r\n\r\n    \r\n    receive() external override payable{}\r\n    \r\n }",
  "sourcePath": "C:/Users/d-aam/GitHub/Certificates/contracts/Provider.sol",
  "compiler": {
    "name": "solc",
    "version": "0.7.6+commit.7338295f.Emscripten.clang"
  },
  "schemaVersion": "3.3.4",
  "updatedAt": "2021-07-20T05:39:57.764Z",
  "devdoc": {
    "kind": "dev",
    "methods": {},
    "version": 1
  },
  "userdoc": {
    "kind": "user",
    "methods": {},
    "version": 1
  }
}