{
  "contractName": "Provider",
  "abi": [
    {
      "inputs": [
        {
          "internalType": "address[]",
          "name": "owners",
          "type": "address[]"
        },
        {
          "internalType": "uint256",
          "name": "minOwners",
          "type": "uint256"
        },
        {
          "internalType": "string",
          "name": "ProviderInfo",
          "type": "string"
        }
      ],
      "stateMutability": "payable",
      "type": "constructor"
    },
    {
      "anonymous": false,
      "inputs": [
        {
          "indexed": true,
          "internalType": "string",
          "name": "",
          "type": "string"
        },
        {
          "indexed": true,
          "internalType": "address",
          "name": "",
          "type": "address"
        },
        {
          "indexed": true,
          "internalType": "string",
          "name": "",
          "type": "string"
        }
      ],
      "name": "_AddEntityRejectionIdEvent",
      "type": "event"
    },
    {
      "anonymous": false,
      "inputs": [
        {
          "indexed": true,
          "internalType": "string",
          "name": "",
          "type": "string"
        },
        {
          "indexed": true,
          "internalType": "address",
          "name": "",
          "type": "address"
        },
        {
          "indexed": true,
          "internalType": "string",
          "name": "",
          "type": "string"
        }
      ],
      "name": "_AddEntityValidationIdEvent",
      "type": "event"
    },
    {
      "anonymous": false,
      "inputs": [
        {
          "indexed": true,
          "internalType": "string",
          "name": "",
          "type": "string"
        },
        {
          "indexed": true,
          "internalType": "address",
          "name": "",
          "type": "address"
        },
        {
          "indexed": true,
          "internalType": "string",
          "name": "",
          "type": "string"
        }
      ],
      "name": "_RemoveEntityRejectionIdEvent",
      "type": "event"
    },
    {
      "anonymous": false,
      "inputs": [
        {
          "indexed": true,
          "internalType": "string",
          "name": "",
          "type": "string"
        },
        {
          "indexed": true,
          "internalType": "address",
          "name": "",
          "type": "address"
        },
        {
          "indexed": true,
          "internalType": "string",
          "name": "",
          "type": "string"
        }
      ],
      "name": "_RemoveEntityValidationIdEvent",
      "type": "event"
    },
    {
      "inputs": [
        {
          "internalType": "address",
          "name": "owner",
          "type": "address"
        },
        {
          "internalType": "string",
          "name": "ownerInfo",
          "type": "string"
        }
      ],
      "name": "addOwner",
      "outputs": [],
      "stateMutability": "nonpayable",
      "type": "function"
    },
    {
      "inputs": [
        {
          "internalType": "address",
          "name": "owner",
          "type": "address"
        }
      ],
      "name": "isOwner",
      "outputs": [
        {
          "internalType": "bool",
          "name": "",
          "type": "bool"
        }
      ],
      "stateMutability": "view",
      "type": "function"
    },
    {
      "inputs": [
        {
          "internalType": "address",
          "name": "owner",
          "type": "address"
        }
      ],
      "name": "rejectOwner",
      "outputs": [],
      "stateMutability": "nonpayable",
      "type": "function"
    },
    {
      "inputs": [
        {
          "internalType": "address",
          "name": "owner",
          "type": "address"
        }
      ],
      "name": "removeOwner",
      "outputs": [],
      "stateMutability": "nonpayable",
      "type": "function"
    },
    {
      "inputs": [],
      "name": "retrieveAllOwners",
      "outputs": [
        {
          "internalType": "address[]",
          "name": "",
          "type": "address[]"
        }
      ],
      "stateMutability": "view",
      "type": "function"
    },
    {
      "inputs": [],
      "name": "retrieveMinOwners",
      "outputs": [
        {
          "internalType": "uint256",
          "name": "",
          "type": "uint256"
        }
      ],
      "stateMutability": "view",
      "type": "function"
    },
    {
      "inputs": [
        {
          "internalType": "address",
          "name": "owner",
          "type": "address"
        }
      ],
      "name": "retrieveOwner",
      "outputs": [
        {
          "internalType": "string",
          "name": "",
          "type": "string"
        },
        {
          "internalType": "bool",
          "name": "",
          "type": "bool"
        }
      ],
      "stateMutability": "view",
      "type": "function"
    },
    {
      "inputs": [
        {
          "internalType": "bool",
          "name": "addedORremove",
          "type": "bool"
        }
      ],
      "name": "retrievePendingOwners",
      "outputs": [
        {
          "internalType": "address[]",
          "name": "",
          "type": "address[]"
        },
        {
          "internalType": "string[]",
          "name": "",
          "type": "string[]"
        }
      ],
      "stateMutability": "view",
      "type": "function"
    },
    {
      "inputs": [
        {
          "internalType": "address",
          "name": "owner",
          "type": "address"
        }
      ],
      "name": "validateOwner",
      "outputs": [],
      "stateMutability": "nonpayable",
      "type": "function"
    },
    {
      "stateMutability": "payable",
      "type": "receive"
    },
    {
      "inputs": [
        {
          "internalType": "address",
          "name": "pool",
          "type": "address"
        },
        {
          "internalType": "string",
          "name": "poolInfo",
          "type": "string"
        },
        {
          "internalType": "uint256",
          "name": "AddCertificatePrice",
          "type": "uint256"
        },
        {
          "internalType": "uint256",
          "name": "SubscriptionPrice",
          "type": "uint256"
        }
      ],
      "name": "subscribeToPublicPool",
      "outputs": [],
      "stateMutability": "nonpayable",
      "type": "function"
    },
    {
      "inputs": [
        {
          "internalType": "address",
          "name": "pool",
          "type": "address"
        },
        {
          "internalType": "string",
          "name": "poolInfo",
          "type": "string"
        },
        {
          "internalType": "uint256",
          "name": "AddCertificatePrice",
          "type": "uint256"
        }
      ],
      "name": "addPool",
      "outputs": [],
      "stateMutability": "nonpayable",
      "type": "function"
    },
    {
      "inputs": [
        {
          "internalType": "address",
          "name": "pool",
          "type": "address"
        }
      ],
      "name": "removePool",
      "outputs": [],
      "stateMutability": "nonpayable",
      "type": "function"
    },
    {
      "inputs": [
        {
          "internalType": "address",
          "name": "pool",
          "type": "address"
        }
      ],
      "name": "validatePool",
      "outputs": [],
      "stateMutability": "nonpayable",
      "type": "function"
    },
    {
      "inputs": [
        {
          "internalType": "address",
          "name": "pool",
          "type": "address"
        }
      ],
      "name": "rejectPool",
      "outputs": [],
      "stateMutability": "nonpayable",
      "type": "function"
    },
    {
      "inputs": [
        {
          "internalType": "address",
          "name": "pool",
          "type": "address"
        }
      ],
      "name": "retrievePool",
      "outputs": [
        {
          "internalType": "string",
          "name": "",
          "type": "string"
        },
        {
          "internalType": "bool",
          "name": "",
          "type": "bool"
        },
        {
          "internalType": "uint256",
          "name": "",
          "type": "uint256"
        }
      ],
      "stateMutability": "view",
      "type": "function"
    },
    {
      "inputs": [],
      "name": "retrieveAllPools",
      "outputs": [
        {
          "internalType": "address[]",
          "name": "",
          "type": "address[]"
        }
      ],
      "stateMutability": "view",
      "type": "function"
    },
    {
      "inputs": [
        {
          "internalType": "address",
          "name": "pool",
          "type": "address"
        }
      ],
      "name": "isPool",
      "outputs": [
        {
          "internalType": "bool",
          "name": "",
          "type": "bool"
        }
      ],
      "stateMutability": "view",
      "type": "function"
    },
    {
      "inputs": [
        {
          "internalType": "address",
          "name": "pool",
          "type": "address"
        },
        {
          "internalType": "bytes32",
          "name": "CertificateHash",
          "type": "bytes32"
        },
        {
          "internalType": "address",
          "name": "holder",
          "type": "address"
        }
      ],
      "name": "addCertificate",
      "outputs": [],
      "stateMutability": "nonpayable",
      "type": "function"
    },
    {
      "inputs": [
        {
          "internalType": "address",
          "name": "pool",
          "type": "address"
        },
        {
          "internalType": "bytes32",
          "name": "CertificateHash",
          "type": "bytes32"
        },
        {
          "internalType": "address",
          "name": "holder",
          "type": "address"
        }
      ],
      "name": "removeCertificate",
      "outputs": [],
      "stateMutability": "nonpayable",
      "type": "function"
    },
    {
      "inputs": [
        {
          "internalType": "address",
          "name": "pool",
          "type": "address"
        },
        {
          "internalType": "bytes32",
          "name": "CertificateHash",
          "type": "bytes32"
        },
        {
          "internalType": "address",
          "name": "holder",
          "type": "address"
        }
      ],
      "name": "validateCertificate",
      "outputs": [],
      "stateMutability": "nonpayable",
      "type": "function"
    },
    {
      "inputs": [
        {
          "internalType": "address",
          "name": "pool",
          "type": "address"
        },
        {
          "internalType": "bytes32",
          "name": "CertificateHash",
          "type": "bytes32"
        },
        {
          "internalType": "address",
          "name": "holder",
          "type": "address"
        }
      ],
      "name": "rejectCertificate",
      "outputs": [],
      "stateMutability": "nonpayable",
      "type": "function"
    },
    {
      "inputs": [
        {
          "internalType": "address",
          "name": "pool",
          "type": "address"
        },
        {
          "internalType": "bytes32",
          "name": "CertificateHash",
          "type": "bytes32"
        },
        {
          "internalType": "address",
          "name": "holder",
          "type": "address"
        }
      ],
      "name": "isCertificate",
      "outputs": [
        {
          "internalType": "bool",
          "name": "",
          "type": "bool"
        }
      ],
      "stateMutability": "view",
      "type": "function"
    }
  ],
  "bytecode": "0x600560c09081526427bbb732b960d91b60e0526080908152610140604052600461010081815263141bdbdb60e21b6101205260a05262000041916002620003cb565b5060405162004bab38038062004bab8339810160408190526200006491620005c9565b828260026004805480602002602001604051908101604052809291908181526020016000905b8282101562000140578382906000526020600020018054620000ac90620006fd565b80601f0160208091040260200160405190810160405280929190818152602001828054620000da90620006fd565b80156200012b5780601f10620000ff576101008083540402835291602001916200012b565b820191906000526020600020905b8154815290600101906020018083116200010d57829003601f168201915b5050505050815260200190600101906200008a565b50505050600084518411156200018b5760405162461bcd60e51b8152600401620001829060208082526004908201526322a1989b60e11b604082015260600190565b60405180910390fd5b60008411620001c65760405162461bcd60e51b815260040162000182906020808252600490820152634543313760e01b604082015260600190565b81518314620002015760405162461bcd60e51b8152600401620001829060208082526004908201526308a8662760e31b604082015260600190565b60008181555b838110156200028057600280546001018155600052825160039084908390811062000236576200023662000764565b602090810291909101810151825460018101845560009384529282902081516200026a94919091019291909101906200042f565b508062000277816200073a565b91505062000207565b50600184905560005b8551811015620003a5576001600260005481548110620002ad57620002ad62000764565b90600052602060002090600402016000016000888481518110620002d557620002d562000764565b60200260200101516001600160a01b03166001600160a01b0316815260200190815260200160002060000160006101000a81548160ff0219169083151502179055506002600054815481106200032f576200032f62000764565b906000526020600020906004020160010186828151811062000355576200035562000764565b60209081029190910181015182546001810184556000938452919092200180546001600160a01b0319166001600160a01b03909216919091179055806200039c816200073a565b91505062000289565b50508451620003c194506006935060208601925090506200042f565b5050505062000790565b8280548282559060005260206000209081019282156200041d579160200282015b828111156200041d57825180516200040c9184916020909101906200042f565b5091602001919060010190620003ec565b506200042b929150620004ba565b5090565b8280546200043d90620006fd565b90600052602060002090601f016020900481019282620004615760008555620004ac565b82601f106200047c57805160ff1916838001178555620004ac565b82800160010185558215620004ac579182015b82811115620004ac5782518255916020019190600101906200048f565b506200042b929150620004db565b808211156200042b576000620004d18282620004f2565b50600101620004ba565b5b808211156200042b5760008155600101620004dc565b5080546200050090620006fd565b6000825580601f1062000511575050565b601f016020900490600052602060002090810190620005319190620004db565b50565b600082601f8301126200054657600080fd5b81516001600160401b038111156200056257620005626200077a565b602062000578601f8301601f19168201620006ca565b82815285828487010111156200058d57600080fd5b60005b83811015620005ad57858101830151828201840152820162000590565b83811115620005bf5760008385840101525b5095945050505050565b600080600060608486031215620005df57600080fd5b83516001600160401b0380821115620005f757600080fd5b818601915086601f8301126200060c57600080fd5b81516020828211156200062357620006236200077a565b8160051b62000634828201620006ca565b8381528281019086840183880185018d10156200065057600080fd5b600097505b858810156200068e57805193506001600160a01b03841684146200067857600080fd5b8383526001979097019691840191840162000655565b50928a015160408b0151939950975091945050505080821115620006b157600080fd5b50620006c08682870162000534565b9150509250925092565b604051601f8201601f191681016001600160401b0381118282101715620006f557620006f56200077a565b604052919050565b600181811c908216806200071257607f821691505b602082108114156200073457634e487b7160e01b600052602260045260246000fd5b50919050565b60006000198214156200075d57634e487b7160e01b600052601160045260246000fd5b5060010190565b634e487b7160e01b600052603260045260246000fd5b634e487b7160e01b600052604160045260246000fd5b61440b80620007a06000396000f3fe6080604052600436106101095760003560e01c8063017cb3db1461011557806314a2ed2f14610137578063173825d9146101575780632d99aaf2146101775780632f54bf6e146101a25780633542758f146101d25780633b7d0946146101f257806359f8ef32146102125780635b16ebb71461023257806365b973e5146102525780636b2996041461027057806376f8f90f1461029e57806377bc5a1f146102be5780638fc2d8ea146102ec578063a706752c1461031b578063a93d5ed61461033b578063bd9f370514610350578063ce33d58a14610370578063d920928914610390578063dd3ef444146103b0578063f4989e71146103d0578063fb1f6917146103f057600080fd5b3661011057005b600080fd5b34801561012157600080fd5b50610135610130366004613ca4565b610410565b005b34801561014357600080fd5b50610135610152366004613ca4565b6109e2565b34801561016357600080fd5b50610135610172366004613c89565b610ad6565b34801561018357600080fd5b5061018c610b3b565b6040516101999190614080565b60405180910390f35b3480156101ae57600080fd5b506101c26101bd366004613c89565b610b4c565b6040519015158152602001610199565b3480156101de57600080fd5b506101356101ed366004613ce0565b610b60565b3480156101fe57600080fd5b5061013561020d366004613c89565b610b6e565b34801561021e57600080fd5b5061013561022d366004613d8b565b610b7c565b34801561023e57600080fd5b506101c261024d366004613c89565b610c17565b34801561025e57600080fd5b50600154604051908152602001610199565b34801561027c57600080fd5b5061029061028b366004613eb3565b610c24565b604051610199929190614093565b3480156102aa57600080fd5b506101356102b9366004613c89565b610c3c565b3480156102ca57600080fd5b506102de6102d9366004613c89565b610c48565b60405161019992919061411c565b3480156102f857600080fd5b5061030c610307366004613c89565b610c58565b60405161019993929190614140565b34801561032757600080fd5b506101c2610336366004613ca4565b610c91565b34801561034757600080fd5b5061018c610cca565b34801561035c57600080fd5b5061013561036b366004613ca4565b610cd7565b34801561037c57600080fd5b5061013561038b366004613c89565b610f4d565b34801561039c57600080fd5b506101356103ab366004613c89565b610f59565b3480156103bc57600080fd5b506101356103cb366004613d32565b610f64565b3480156103dc57600080fd5b506101356103eb366004613ca4565b610f78565b3480156103fc57600080fd5b5061013561040b366004613c89565b611062565b8261041a81610c17565b151560011461042857600080fd5b6104343360005461106d565b151560011461045e5760405162461bcd60e51b8152600401610455906141db565b60405180910390fd5b600183858461046e828483611165565b15156001148061048a5750610484828483611232565b15156001145b6104a65760405162461bcd60e51b8152600401610455906141bd565b6001600160a01b038089166000908152600560209081526040808320938a1683529281528282208a8352815290829020825160808101909352805460ff161515835260018101805491928401916104fc9061432f565b80601f01602080910402602001604051908101604052809291908181526020018280546105289061432f565b80156105755780601f1061054a57610100808354040283529160200191610575565b820191906000526020600020905b81548152906001019060200180831161055857829003601f168201915b50505050508152602001600282018054806020026020016040519081016040528092919081815260200182805480156105d757602002820191906000526020600020905b81546001600160a01b031681526001909101906020018083116105b9575b505050505081526020016003820180548060200260200160405190810160405280929190818152602001828054801561063957602002820191906000526020600020905b81546001600160a01b0316815260019091019060200180831161061b575b5050505050815250506106503382604001516112f3565b15801561066857506106663382606001516112f3565b155b6106845760405162461bcd60e51b8152600401610455906141a0565b61068f898989611165565b15610858576001600160a01b03808a166000908152600560209081526040808320938b16835292815290829020600201805483518184028101840190945280845273__Library_______________________________93635b28cf639361072d938e93909183018282801561072357602002820191906000526020600020905b81548152602001906001019080831161070f575b5050505050611359565b6001600160a01b03808d166000908152600560209081526040808320938e16835292905281902090516001600160e01b031960e085901b168152610778929160020190600401614280565b60006040518083038186803b15801561079057600080fd5b505af41580156107a4573d6000803e3d6000fd5b505050506040513d6000823e601f3d908101601f191682016040526107cc9190810190613def565b6001600160a01b03808b166000908152600560209081526040808320938c1683529281529190208251610809936002909201929190910190613aa4565b506001600160a01b03808a166000908152600560209081526040808320938b1683529281528282208b8352905290812061084891600190910190613aef565b6108538989896113ae565b6109d7565b6001600160a01b03808a166000908152600560209081526040808320938b16835292815290829020600301805483518184028101840190945280845273__Library_______________________________93635b28cf63936108ef938e939091830182828015610723576020028201919060005260206000209081548152602001906001019080831161070f575050505050611359565b6001600160a01b03808d166000908152600560209081526040808320938e16835292905281902090516001600160e01b031960e085901b16815261093a929160030190600401614280565b60006040518083038186803b15801561095257600080fd5b505af4158015610966573d6000803e3d6000fd5b505050506040513d6000823e601f3d908101601f1916820160405261098e9190810190613def565b6001600160a01b03808b166000908152600560209081526040808320938c16835292815291902082516109cb936003909201929190910190613aa4565b506109d78989896113ae565b505050505050505050565b826109ec81610c17565b15156001146109fa57600080fd5b610a063360005461106d565b1515600114610a275760405162461bcd60e51b8152600401610455906141db565b6000838584610a37828483610c91565b15610a545760405162461bcd60e51b815260040161045590614215565b6000878988610a64828483611165565b15610a815760405162461bcd60e51b815260040161045590614182565b6001600160a01b03808d166000908152600560209081526040808320938e1683529281529181206002018054600181018255908252919020018b9055610ac88c8c8c61142a565b505050505050505050505050565b6001546001610ae66000546119b5565b51610af191906142ec565b80821115610b2a5760405162461bcd60e51b8152600401610455906020808252600490820152634543313960e01b604082015260600190565b610b3683600054611aed565b505050565b6060610b4760016119b5565b905090565b6000610b5a8260005461106d565b92915050565b610b36838383600054611c5d565b610b79816001611aed565b50565b610b898585858585611e17565b610b9285610c17565b151560011415610c10576001600160a01b0385166000818152600860205260409081902054905162fc000560e81b815287929163fc00050091610bdc903090600690600401613feb565b6000604051808303818588803b158015610bf557600080fd5b505af1158015610c09573d6000803e3d6000fd5b5050505050505b5050505050565b6000610b5a82600161106d565b606080610c3383600054611e85565b91509150915091565b610b7981600054612107565b60606000610c3383600054612b2b565b606060008060606000610c6a86612cbe565b6001600160a01b039790971660009081526007602052604090205490979095509350505050565b6001600160a01b03808416600090815260056020908152604080832093851683529281528282208583529052205460ff165b9392505050565b6060610b476000546119b5565b82610ce181610c17565b1515600114610cef57600080fd5b610cfb3360005461106d565b1515600114610d1c5760405162461bcd60e51b8152600401610455906141db565b6001838584610d2c828483611165565b151560011480610d485750610d42828483611232565b15156001145b610d645760405162461bcd60e51b8152600401610455906141bd565b6001600160a01b038089166000908152600560209081526040808320938a1683529281528282208a8352815290829020825160808101909352805460ff16151583526001810180549192840191610dba9061432f565b80601f0160208091040260200160405190810160405280929190818152602001828054610de69061432f565b8015610e335780601f10610e0857610100808354040283529160200191610e33565b820191906000526020600020905b815481529060010190602001808311610e1657829003601f168201915b5050505050815260200160028201805480602002602001604051908101604052809291908181526020018280548015610e9557602002820191906000526020600020905b81546001600160a01b03168152600190910190602001808311610e77575b5050505050815260200160038201805480602002602001604051908101604052809291908181526020018280548015610ef757602002820191906000526020600020905b81546001600160a01b03168152600190910190602001808311610ed9575b505050505081525050610f0e3382604001516112f3565b158015610f265750610f243382606001516112f3565b155b610f425760405162461bcd60e51b8152600401610455906141a0565b6109d789898961142a565b610b7981600054612ccd565b610b79816001612107565b610f72848484846000611e17565b50505050565b82610f8281610c17565b1515600114610f9057600080fd5b610f9c3360005461106d565b1515600114610fbd5760405162461bcd60e51b8152600401610455906141db565b6001838584610fcd828483610c91565b1515600114610fee5760405162461bcd60e51b815260040161045590614165565b6000878988610ffe828483611232565b1561101b5760405162461bcd60e51b815260040161045590614182565b6001600160a01b03808d166000908152600560209081526040808320938e1683529281529181206003018054600181018255908252919020018b9055610ac88c8c8c61142a565b610b79816001612ccd565b60025460405163123bd07560e11b8152600091839173__Library_______________________________90632477a0ea906110ae90859085906004016142c6565b60206040518083038186803b1580156110c657600080fd5b505af41580156110da573d6000803e3d6000fd5b505050506040513d601f19601f820116820180604052508101906110fe9190613ed0565b151560011461111f5760405162461bcd60e51b8152600401610455906141f8565b600284815481106111325761113261439b565b600091825260208083206001600160a01b038916845260049092029091019052604090205460ff1692505b505092915050565b6001600160a01b038084166000908152600560209081526040808320938516835292815282822060020180548451818402810184019095528085529293849390928301828280156111d557602002820191906000526020600020905b8154815260200190600101908083116111c1575b5050505050905060005b8151811015611226578181815181106111fa576111fa61439b565b602002602001015185141561121457600192505050610cc3565b8061121e8161436a565b9150506111df565b50600095945050505050565b6001600160a01b038084166000908152600560209081526040808320938516835292815282822060030180548451818402810184019095528085529293849390928301828280156112a257602002820191906000526020600020905b81548152602001906001019080831161128e575b5050505050905060005b8151811015611226578181815181106112c7576112c761439b565b60200260200101518514156112e157600192505050610cc3565b806112eb8161436a565b9150506112ac565b6000805b825181101561134f578281815181106113125761131261439b565b60200260200101516001600160a01b0316846001600160a01b0316141561133d576001915050610b5a565b806113478161436a565b9150506112f7565b5060009392505050565b6000805b82518110156113a0578281815181106113785761137861439b565b602002602001015184141561138e579050610b5a565b806113988161436a565b91505061135d565b508151610cc39060016142d4565b6001600160a01b038084166000908152600560209081526040808320938516835292815282822085835290529081206113ec91600390910190613b29565b6001600160a01b03808416600090815260056020908152604080832093851683529281528282208583529052908120610b3691600290910190613b29565b6001600160a01b038381166000908152600560209081526040808320938516835292815282822085835281529181206002018054600180820183558284529383200180546001600160a01b031916331790559084905254905461148d91906132ff565b15610b365761149d838383611165565b1561165f576001600160a01b038084166000908152600560209081526040808320938516808452848352818420878552808452828520805460ff191660019081179091558181018054918201815586528486200188905593529281526002909101805483518184028101840190945280845273__Library_______________________________93635b28cf639361156a9388939091830182828015610723576020028201919060005260206000209081548152602001906001019080831161070f575050505050611359565b6001600160a01b038087166000908152600560209081526040808320938816835292905281902090516001600160e01b031960e085901b1681526115b5929160020190600401614280565b60006040518083038186803b1580156115cd57600080fd5b505af41580156115e1573d6000803e3d6000fd5b505050506040513d6000823e601f3d908101601f191682016040526116099190810190613def565b6001600160a01b03808516600090815260056020908152604080832093861683529281529190208251611646936002909201929190910190613aa4565b50611654838383600161331a565b610b368383836113ae565b6001600160a01b038084166000908152600560209081526040808320938516835292815290829020600101805483518184028101840190945280845273__Library_______________________________93635b28cf63936116f69388939091830182828015610723576020028201919060005260206000209081548152602001906001019080831161070f575050505050611359565b6001600160a01b038087166000908152600560209081526040808320938816835292905281902090516001600160e01b031960e085901b168152611741929160010190600401614280565b60006040518083038186803b15801561175957600080fd5b505af415801561176d573d6000803e3d6000fd5b505050506040513d6000823e601f3d908101601f191682016040526117959190810190613def565b6001600160a01b038085166000908152600560209081526040808320938616835292815291902082516117d2936001909201929190910190613aa4565b506001600160a01b038084166000908152600560209081526040808320938516835292815290829020600301805483518184028101840190945280845273__Library_______________________________93635b28cf639361186a9388939091830182828015610723576020028201919060005260206000209081548152602001906001019080831161070f575050505050611359565b6001600160a01b038087166000908152600560209081526040808320938816835292905281902090516001600160e01b031960e085901b1681526118b5929160030190600401614280565b60006040518083038186803b1580156118cd57600080fd5b505af41580156118e1573d6000803e3d6000fd5b505050506040513d6000823e601f3d908101601f191682016040526119099190810190613def565b6001600160a01b03808516600090815260056020908152604080832093861683529281529190208251611946936003909201929190910190613aa4565b50611954838383600061331a565b6001600160a01b03808416600090815260056020908152604080832093851683529281528282208583529052908120805460ff19168155906119996001830182613aef565b6119a7600283016000613b29565b610c10600383016000613b29565b60025460405163123bd07560e11b8152606091839173__Library_______________________________90632477a0ea906119f690859085906004016142c6565b60206040518083038186803b158015611a0e57600080fd5b505af4158015611a22573d6000803e3d6000fd5b505050506040513d601f19601f82011682018060405250810190611a469190613ed0565b1515600114611a675760405162461bcd60e51b8152600401610455906141f8565b60028481548110611a7a57611a7a61439b565b9060005260206000209060040201600101805480602002602001604051908101604052809291908181526020018280548015611adf57602002820191906000526020600020905b81546001600160a01b03168152600190910190602001808311611ac1575b505050505092505050919050565b60025460405163123bd07560e11b815282919073__Library_______________________________90632477a0ea90611b2c90859085906004016142c6565b60206040518083038186803b158015611b4457600080fd5b505af4158015611b58573d6000803e3d6000fd5b505050506040513d601f19601f82011682018060405250810190611b7c9190613ed0565b1515600114611b9d5760405162461bcd60e51b8152600401610455906141f8565b60018484611bab828261106d565b1515600114611bcc5760405162461bcd60e51b815260040161045590614165565b60008787611bda8282613479565b15611bf75760405162461bcd60e51b815260040161045590614182565b60028981548110611c0a57611c0a61439b565b60009182526020808320600492909202909101600301805460018101825590835291200180546001600160a01b0319166001600160a01b038c16179055611c518a8a612107565b50505050505050505050565b60025460405163123bd07560e11b815282919073__Library_______________________________90632477a0ea90611c9c90859085906004016142c6565b60206040518083038186803b158015611cb457600080fd5b505af4158015611cc8573d6000803e3d6000fd5b505050506040513d601f19601f82011682018060405250810190611cec9190613ed0565b1515600114611d0d5760405162461bcd60e51b8152600401610455906141f8565b60008684611d1b828261106d565b15611d385760405162461bcd60e51b815260040161045590614215565b60008987611d468282613615565b15611d635760405162461bcd60e51b815260040161045590614182565b8a8a60028b81548110611d7857611d7861439b565b906000526020600020906004020160000160008f6001600160a01b03166001600160a01b031681526020019081526020016000206001019190611dbc929190613b47565b5060028981548110611dd057611dd061439b565b60009182526020808320600492909202909101600201805460018101825590835291200180546001600160a01b0319166001600160a01b038e16179055610ac88c8a612107565b611e248585856001611c5d565b6001600160a01b03851660009081526009602052604090205460ff16610c10576001600160a01b03851660009081526007602090815260408083208590556008825280832084905560099091529020805460ff191660011790555050505050565b60025460405163123bd07560e11b8152606091829184919073__Library_______________________________90632477a0ea90611ec990859085906004016142c6565b60206040518083038186803b158015611ee157600080fd5b505af4158015611ef5573d6000803e3d6000fd5b505050506040513d601f19601f82011682018060405250810190611f199190613ed0565b1515600114611f3a5760405162461bcd60e51b8152600401610455906141f8565b60608615611fc65760028681548110611f5557611f5561439b565b9060005260206000209060040201600201805480602002602001604051908101604052809291908181526020018280548015611fba57602002820191906000526020600020905b81546001600160a01b03168152600190910190602001808311611f9c575b50505050509050612046565b60028681548110611fd957611fd961439b565b906000526020600020906004020160030180548060200260200160405190810160405280929190818152602001828054801561203e57602002820191906000526020600020905b81546001600160a01b03168152600190910190602001808311612020575b505050505090505b6002546000906001600160401b03811115612063576120636143b1565b60405190808252806020026020018201604052801561209657816020015b60608152602001906001900390816120815790505b50905060005b82518110156120f9576120c88382815181106120ba576120ba61439b565b602002602001015189612b2b565b508282815181106120db576120db61439b565b602002602001018190525080806120f19061436a565b91505061209c565b509097909650945050505050565b60025460405163123bd07560e11b815282919073__Library_______________________________90632477a0ea9061214690859085906004016142c6565b60206040518083038186803b15801561215e57600080fd5b505af4158015612172573d6000803e3d6000fd5b505050506040513d601f19601f820116820180604052508101906121969190613ed0565b15156001146121b75760405162461bcd60e51b8152600401610455906141f8565b6121c33360005461106d565b15156001146121e45760405162461bcd60e51b8152600401610455906141db565b600184846121f28282613615565b15156001148061220d57506122078282613479565b15156001145b6122295760405162461bcd60e51b8152600401610455906141bd565b6002868154811061223c5761223c61439b565b600091825260208083206001600160a01b038b16845260049092029091018152604091829020825160808101909352805460ff161515835260018101805491928401916122889061432f565b80601f01602080910402602001604051908101604052809291908181526020018280546122b49061432f565b80156123015780601f106122d657610100808354040283529160200191612301565b820191906000526020600020905b8154815290600101906020018083116122e457829003601f168201915b505050505081526020016002820180548060200260200160405190810160405280929190818152602001828054801561236357602002820191906000526020600020905b81546001600160a01b03168152600190910190602001808311612345575b50505050508152602001600382018054806020026020016040519081016040528092919081815260200182805480156123c557602002820191906000526020600020905b81546001600160a01b031681526001909101906020018083116123a7575b5050505050815250506123dc3382604001516112f3565b1580156123f457506123f23382606001516112f3565b155b6124105760405162461bcd60e51b8152600401610455906141a0565b600287815481106124235761242361439b565b600091825260208083206001600160a01b038c168452600490920290910181526040822060029081018054600181018255908452919092200180546001600160a01b0319163317905580546124b39190899081106124835761248361439b565b600091825260208083206001600160a01b038d1684526004909202909101905260409020600201546001546132ff565b15612b21576124c28888613615565b15612777576001600288815481106124dc576124dc61439b565b600091825260208083206001600160a01b038d168452600492909202909101905260409020805460ff191691151591909117905560028054889081106125245761252461439b565b60009182526020808320600160049093020182018054928301815583529091200180546001600160a01b038a166001600160a01b031990911617905560028054612670916125ee918b91908b90811061257f5761257f61439b565b90600052602060002090600402016002018054806020026020016040519081016040528092919081815260200182805480156125e457602002820191906000526020600020905b81546001600160a01b031681526001909101906020018083116125c6575b50505050506137a4565b600289815481106126015761260161439b565b906000526020600020906004020160020180548060200260200160405190810160405280929190818152602001828054801561266657602002820191906000526020600020905b81546001600160a01b03168152600190910190602001808311612648575b50505050506137c1565b600288815481106126835761268361439b565b906000526020600020906004020160020190805190602001906126a7929190613bbb565b506126b488886001613860565b6126be888861386f565b600287815481106126d1576126d161439b565b600091825260208083206001600160a01b038c1684526004909202909101905260409081902090516127069160010190613f79565b6040518091039020886001600160a01b03166003898154811061272b5761272b61439b565b906000526020600020016040516127429190613f79565b604051908190038120907ff778f27e2be3126cfd6682a3a8180c62d5ade2b397aee62ea41b5d914a64b83690600090a4612b21565b61287e6127fe8960028a815481106127915761279161439b565b90600052602060002090600402016001018054806020026020016040519081016040528092919081815260200182805480156125e4576020028201919060005260206000209081546001600160a01b031681526001909101906020018083116125c65750505050506137a4565b600289815481106128115761281161439b565b9060005260206000209060040201600101805480602002602001604051908101604052809291908181526020018280548015612666576020028201919060005260206000209081546001600160a01b031681526001909101906020018083116126485750505050506137c1565b600288815481106128915761289161439b565b906000526020600020906004020160010190805190602001906128b5929190613bbb565b506129bd61293d8960028a815481106128d0576128d061439b565b90600052602060002090600402016003018054806020026020016040519081016040528092919081815260200182805480156125e4576020028201919060005260206000209081546001600160a01b031681526001909101906020018083116125c65750505050506137a4565b600289815481106129505761295061439b565b9060005260206000209060040201600301805480602002602001604051908101604052809291908181526020018280548015612666576020028201919060005260206000209081546001600160a01b031681526001909101906020018083116126485750505050506137c1565b600288815481106129d0576129d061439b565b906000526020600020906004020160030190805190602001906129f4929190613bbb565b50612a0188886000613860565b60028781548110612a1457612a1461439b565b600091825260208083206001600160a01b038c1684526004909202909101905260408120805460ff1916815590612a4e6001830182613aef565b612a5c600283016000613b29565b612a6a600383016000613b29565b505060028781548110612a7f57612a7f61439b565b600091825260208083206001600160a01b038c168452600490920290910190526040908190209051612ab49160010190613f79565b6040518091039020886001600160a01b031660038981548110612ad957612ad961439b565b90600052602060002001604051612af09190613f79565b604051908190038120907ff4d29cefc0aa6918a670a91a9871910128a6f3a91e110d99dd91eef92cdc2f4890600090a45b5050505050505050565b60025460405163123bd07560e11b815260609160009184919073__Library_______________________________90632477a0ea90612b7090859085906004016142c6565b60206040518083038186803b158015612b8857600080fd5b505af4158015612b9c573d6000803e3d6000fd5b505050506040513d601f19601f82011682018060405250810190612bc09190613ed0565b1515600114612be15760405162461bcd60e51b8152600401610455906141f8565b60028581548110612bf457612bf461439b565b600091825260208083206001600160a01b038a1684526004909202909101905260409020600101612c25878761106d565b818054612c319061432f565b80601f0160208091040260200160405190810160405280929190818152602001828054612c5d9061432f565b8015612caa5780601f10612c7f57610100808354040283529160200191612caa565b820191906000526020600020905b815481529060010190602001808311612c8d57829003601f168201915b505050505091509350935050509250929050565b60606000610c33836001612b2b565b60025460405163123bd07560e11b815282919073__Library_______________________________90632477a0ea90612d0c90859085906004016142c6565b60206040518083038186803b158015612d2457600080fd5b505af4158015612d38573d6000803e3d6000fd5b505050506040513d601f19601f82011682018060405250810190612d5c9190613ed0565b1515600114612d7d5760405162461bcd60e51b8152600401610455906141f8565b612d893360005461106d565b1515600114612daa5760405162461bcd60e51b8152600401610455906141db565b60018484612db88282613615565b151560011480612dd35750612dcd8282613479565b15156001145b612def5760405162461bcd60e51b8152600401610455906141bd565b60028681548110612e0257612e0261439b565b600091825260208083206001600160a01b038b16845260049092029091018152604091829020825160808101909352805460ff16151583526001810180549192840191612e4e9061432f565b80601f0160208091040260200160405190810160405280929190818152602001828054612e7a9061432f565b8015612ec75780601f10612e9c57610100808354040283529160200191612ec7565b820191906000526020600020905b815481529060010190602001808311612eaa57829003601f168201915b5050505050815260200160028201805480602002602001604051908101604052809291908181526020018280548015612f2957602002820191906000526020600020905b81546001600160a01b03168152600190910190602001808311612f0b575b5050505050815260200160038201805480602002602001604051908101604052809291908181526020018280548015612f8b57602002820191906000526020600020905b81546001600160a01b03168152600190910190602001808311612f6d575b505050505081525050612fa23382604001516112f3565b158015612fba5750612fb83382606001516112f3565b155b612fd65760405162461bcd60e51b8152600401610455906141a0565b60028781548110612fe957612fe961439b565b600091825260208083206001600160a01b038c1684526004909202909101815260408220600301805460018101825590835291200180546001600160a01b03191633179055600280546130779190899081106130475761304761439b565b600091825260208083206001600160a01b038d1684526004909202909101905260409020600301546001546132ff565b15612b21576130868888613615565b156131e6576130a56125ee8960028a8154811061257f5761257f61439b565b600288815481106130b8576130b861439b565b906000526020600020906004020160020190805190602001906130dc929190613bbb565b50600287815481106130f0576130f061439b565b600091825260208083206001600160a01b038c168452600490920290910190526040812061312391600190910190613aef565b61312d888861386f565b600287815481106131405761314061439b565b600091825260208083206001600160a01b038c1684526004909202909101905260409081902090516131759160010190613f79565b6040518091039020886001600160a01b03166003898154811061319a5761319a61439b565b906000526020600020016040516131b19190613f79565b604051908190038120907f685e6db2d3847649450b48fc97cb6a50c54b7327a96b01f9302d7da45eec2f2390600090a4612b21565b61320061293d8960028a815481106128d0576128d061439b565b600288815481106132135761321361439b565b90600052602060002090600402016003019080519060200190613237929190613bbb565b50613242888861386f565b600287815481106132555761325561439b565b600091825260208083206001600160a01b038c16845260049092029091019052604090819020905161328a9160010190613f79565b6040518091039020886001600160a01b0316600389815481106132af576132af61439b565b906000526020600020016040516132c69190613f79565b604051908190038120907e92c5dda54f9336a7649d49b86adbdc7725094433e5dcd54d69c4a8a3d7bed790600090a45050505050505050565b60008183101561331157506000610b5a565b50600192915050565b60008061332686612cbe565b5090508060405160200161333a9190613f5d565b6040516020818303038152906040528051906020012060405160200161336d90665072697661746560c81b815260070190565b60405160208183030381529060405280519060200120141561339157859150613395565b8591505b8215613415576001600160a01b038681166000908152600760205260409081902054905163035700ff60e31b815291841691631ab807f891906133de9089908990600401614105565b6000604051808303818588803b1580156133f757600080fd5b505af115801561340b573d6000803e3d6000fd5b5050505050613471565b60405163539ed94560e11b81526001600160a01b0383169063a73db28a906134439088908890600401614105565b600060405180830381600087803b15801561345d57600080fd5b505af1158015611c51573d6000803e3d6000fd5b505050505050565b60025460405163123bd07560e11b8152600091839173__Library_______________________________90632477a0ea906134ba90859085906004016142c6565b60206040518083038186803b1580156134d257600080fd5b505af41580156134e6573d6000803e3d6000fd5b505050506040513d601f19601f8201168201806040525081019061350a9190613ed0565b151560011461352b5760405162461bcd60e51b8152600401610455906141f8565b6000600285815481106135405761354061439b565b90600052602060002090600402016003018054806020026020016040519081016040528092919081815260200182805480156135a557602002820191906000526020600020905b81546001600160a01b03168152600190910190602001808311613587575b5050505050905060005b8151811015613608578181815181106135ca576135ca61439b565b60200260200101516001600160a01b0316876001600160a01b031614156135f65760019450505061115d565b806136008161436a565b9150506135af565b5060009695505050505050565b60025460405163123bd07560e11b8152600091839173__Library_______________________________90632477a0ea9061365690859085906004016142c6565b60206040518083038186803b15801561366e57600080fd5b505af4158015613682573d6000803e3d6000fd5b505050506040513d601f19601f820116820180604052508101906136a69190613ed0565b15156001146136c75760405162461bcd60e51b8152600401610455906141f8565b6000600285815481106136dc576136dc61439b565b906000526020600020906004020160020180548060200260200160405190810160405280929190818152602001828054801561374157602002820191906000526020600020905b81546001600160a01b03168152600190910190602001808311613723575b5050505050905060005b8151811015613608578181815181106137665761376661439b565b60200260200101516001600160a01b0316876001600160a01b031614156137925760019450505061115d565b8061379c8161436a565b91505061374b565b6000610cc36001600160a01b0384166137bc846138ff565b611359565b6060610cc373__Library_______________________________635b28cf63856137ea866138ff565b6040518363ffffffff1660e01b8152600401613807929190614232565b60006040518083038186803b15801561381f57600080fd5b505af4158015613833573d6000803e3d6000fd5b505050506040513d6000823e601f3d908101601f1916820160405261385b9190810190613def565b6139b3565b80610b3657610b368383613a64565b600281815481106138825761388261439b565b600091825260208083206001600160a01b038616845260049092029091019052604081206138b591600390910190613b29565b600281815481106138c8576138c861439b565b600091825260208083206001600160a01b038616845260049092029091019052604081206138fb91600290910190613b29565b5050565b6060600082516001600160401b0381111561391c5761391c6143b1565b604051908082528060200260200182016040528015613945578160200160208202803683370190505b50905060005b81518110156139ac5761397d8482815181106139695761396961439b565b60200260200101516001600160a01b031690565b82828151811061398f5761398f61439b565b6020908102919091010152806139a48161436a565b91505061394b565b5092915050565b6060600082516001600160401b038111156139d0576139d06143b1565b6040519080825280602002602001820160405280156139f9578160200160208202803683370190505b50905060005b81518110156139ac57613a28848281518110613a1d57613a1d61439b565b602002602001015190565b828281518110613a3a57613a3a61439b565b6001600160a01b039092166020928302919091019091015280613a5c8161436a565b9150506139ff565b60018114156138fb57506001600160a01b03166000908152600960209081526040808320805460ff19169055600782528083208390556008909152812055565b828054828255906000526020600020908101928215613adf579160200282015b82811115613adf578251825591602001919060010190613ac4565b50613aeb929150613c10565b5090565b508054613afb9061432f565b6000825580601f10613b0b575050565b601f016020900490600052602060002090810190610b799190613c10565b5080546000825590600052602060002090810190610b799190613c10565b828054613b539061432f565b90600052602060002090601f016020900481019282613b755760008555613adf565b82601f10613b8e5782800160ff19823516178555613adf565b82800160010185558215613adf579182015b82811115613adf578235825591602001919060010190613ba0565b828054828255906000526020600020908101928215613adf579160200282015b82811115613adf57825182546001600160a01b0319166001600160a01b03909116178255602090920191600190910190613bdb565b5b80821115613aeb5760008155600101613c11565b80356001600160a01b0381168114613c3c57600080fd5b919050565b60008083601f840112613c5357600080fd5b5081356001600160401b03811115613c6a57600080fd5b602083019150836020828501011115613c8257600080fd5b9250929050565b600060208284031215613c9b57600080fd5b610cc382613c25565b600080600060608486031215613cb957600080fd5b613cc284613c25565b925060208401359150613cd760408501613c25565b90509250925092565b600080600060408486031215613cf557600080fd5b613cfe84613c25565b925060208401356001600160401b03811115613d1957600080fd5b613d2586828701613c41565b9497909650939450505050565b60008060008060608587031215613d4857600080fd5b613d5185613c25565b935060208501356001600160401b03811115613d6c57600080fd5b613d7887828801613c41565b9598909750949560400135949350505050565b600080600080600060808688031215613da357600080fd5b613dac86613c25565b945060208601356001600160401b03811115613dc757600080fd5b613dd388828901613c41565b9699909850959660408101359660609091013595509350505050565b60006020808385031215613e0257600080fd5b82516001600160401b0380821115613e1957600080fd5b818501915085601f830112613e2d57600080fd5b815181811115613e3f57613e3f6143b1565b8060051b604051601f19603f83011681018181108582111715613e6457613e646143b1565b604052828152858101935084860182860187018a1015613e8357600080fd5b600095505b83861015613ea6578051855260019590950194938601938601613e88565b5098975050505050505050565b600060208284031215613ec557600080fd5b8135610cc3816143c7565b600060208284031215613ee257600080fd5b8151610cc3816143c7565b600081518084526020808501945080840160005b83811015613f265781516001600160a01b031687529582019590820190600101613f01565b509495945050505050565b60008151808452613f49816020860160208601614303565b601f01601f19169290920160200192915050565b60008251613f6f818460208701614303565b9190910192915050565b6000808354613f878161432f565b60018281168015613f9f5760018114613fb057613fdf565b60ff19841687528287019450613fdf565b8760005260208060002060005b85811015613fd65781548a820152908401908201613fbd565b50505082870194505b50929695505050505050565b60018060a01b0383168152600060206040818401526000845461400d8161432f565b806040870152606060018084166000811461402f576001811461404357614071565b60ff19851689840152608089019550614071565b896000528660002060005b858110156140695781548b820186015290830190880161404e565b8a0184019650505b50939998505050505050505050565b602081526000610cc36020830184613eed565b6040815260006140a66040830185613eed565b6020838203818501528185518084528284019150828160051b85010183880160005b838110156140f657601f198784030185526140e4838351613f31565b948601949250908501906001016140c8565b50909998505050505050505050565b9182526001600160a01b0316602082015260400190565b60408152600061412f6040830185613f31565b905082151560208301529392505050565b6060815260006141536060830186613f31565b93151560208301525060400152919050565b60208082526003908201526245433760e81b604082015260600190565b6020808252600490820152634543323760e01b604082015260600190565b60208082526003908201526245433560e81b604082015260600190565b60208082526004908201526308a8664760e31b604082015260600190565b60208082526003908201526245433960e81b604082015260600190565b60208082526003908201526245433160e81b604082015260600190565b60208082526003908201526222a19b60e91b604082015260600190565b6000604082018483526020604081850152818551808452606086019150828701935060005b8181101561427357845183529383019391830191600101614257565b5090979650505050505050565b60006040820184835260206040818501528185548084526060860191508660005282600020935060005b81811015614273578454835260019485019492840192016142aa565b918252602082015260400190565b600082198211156142e7576142e7614385565b500190565b6000828210156142fe576142fe614385565b500390565b60005b8381101561431e578181015183820152602001614306565b83811115610f725750506000910152565b600181811c9082168061434357607f821691505b6020821081141561436457634e487b7160e01b600052602260045260246000fd5b50919050565b600060001982141561437e5761437e614385565b5060010190565b634e487b7160e01b600052601160045260246000fd5b634e487b7160e01b600052603260045260246000fd5b634e487b7160e01b600052604160045260246000fd5b8015158114610b7957600080fdfea2646970667358221220af4405e2e1d7b2f9c60e84f8d16e305372e1cf72d1d8d09efce4f08b3305ed0864736f6c63430008060033",
  "immutableReferences": {},
  "source": "// SPDX-License-Identifier: GPL-3.0\r\n\r\npragma solidity >=0.7.0 <0.9.0;\r\npragma experimental ABIEncoderV2;\r\n\r\n/**\r\n * @title Storage\r\n * @dev Store & retrieve value in a variable\r\n */\r\n import \"./Libraries/Library.sol\";\r\n import \"./Interfaces/IProvider.sol\";\r\n import \"./Abstract/MultiSigContract.sol\";\r\n import \"./PrivateCertificatesPool.sol\";\r\n import \"./PublicCertificatesPool.sol\";\r\n\r\n\r\n contract Provider is IProvider, MultiSigContract {\r\n    using Library for *;\r\n\r\n    uint256 constant TotalEntities = 2;\r\n\r\n    // Owners\r\n    uint256 constant _ownerIdProviders = 0;\r\n    string constant _ownerLabel = \"Owner\";\r\n\r\n    // Pools\r\n    uint256 constant _poolId = 1;\r\n    string constant _poolLabel = \"Pool\";\r\n\r\n    string[] _Label = [_ownerLabel, _poolLabel];\r\n    \r\n    struct _CertificateStruct{\r\n        mapping(bytes32 => _entityIdentity) _cert;\r\n        bytes32[] _activatedCertificates;\r\n        bytes32[] _pendingCertificatesAdd;\r\n        bytes32[] _pendingCertificatesRemove;\r\n    }\r\n    \r\n    struct _CertificatesPerHolderStruct{\r\n        mapping(address => _CertificateStruct) _CertificatesPerHolder;\r\n    }\r\n   \r\n    mapping(address => _CertificatesPerHolderStruct) _CertificatesPerPool;\r\n    string _ProviderInfo;\r\n\r\n    mapping(address => uint256) _AddCertificatePricePerPool;\r\n    mapping(address => uint256) _SubscriptionPricePerPool;\r\n    mapping(address => bool) _submited;\r\n\r\n    // modifiers\r\n    modifier isAPool(address pool){\r\n        require(true == isPool(pool));\r\n        _;\r\n    }\r\n\r\n    modifier isCertificateActivated(bool YesOrNo, bytes32 cert, address pool, address holder){\r\n        if(false == YesOrNo) require(false == isCertificate(pool, cert, holder), \"EC6\");\r\n        else require(true == isCertificate(pool, cert, holder), \"EC7\");\r\n        _;\r\n    }\r\n\r\n    modifier isCertificatePending(bool YesOrNo, bytes32 cert, address pool, address holder){\r\n        if(false == YesOrNo) require(false == isCertificatePendingToAdded(pool, cert, holder) && \r\n                                    false == isCertificatePendingToRemoved(pool, cert, holder), \"EC27\");\r\n        else require(true == isCertificatePendingToAdded(pool, cert, holder) || \r\n                    true == isCertificatePendingToRemoved(pool, cert, holder), \"EC28\");\r\n        _;\r\n    }\r\n\r\n    modifier isCertificatePendingToAdd(bool YesOrNo, bytes32 cert, address pool, address holder){\r\n        if(false == YesOrNo) require(false == isCertificatePendingToAdded(pool, cert, holder), \"EC27\");\r\n        else require(true == isCertificatePendingToAdded(pool, cert, holder), \"EC28\");\r\n        _;\r\n    }\r\n\r\n    modifier isCertificatePendingToRemove(bool YesOrNo, bytes32 cert, address pool, address holder){\r\n        if(false == YesOrNo) require(false == isCertificatePendingToRemoved(pool, cert, holder), \"EC27\");\r\n        else require(true == isCertificatePendingToRemoved(pool, cert, holder), \"EC28\");\r\n        _;\r\n    }\r\n\r\n     // Constructor\r\n    constructor(address[] memory owners,  uint256 minOwners, string memory ProviderInfo) \r\n        MultiSigContract(owners, minOwners, TotalEntities, _Label, _ownerIdProviders)\r\n    payable\r\n    {\r\n        _ProviderInfo = ProviderInfo;\r\n    }\r\n\r\n    // POOL CRUD Operations\r\n    function subscribeToPublicPool(address pool, string calldata poolInfo, uint256 AddCertificatePrice, uint256 SubscriptionPrice) external override{\r\n        InternaladdPool(pool, poolInfo, AddCertificatePrice, SubscriptionPrice);\r\n        if(true == isPool(pool)){\r\n            MultiSigCertificatesPool poolToSubscribe = PublicCertificatesPool(pool);\r\n            poolToSubscribe.addProvider{value:_SubscriptionPricePerPool[pool]}(address(this), _ProviderInfo);\r\n        }\r\n    }\r\n\r\n    function addPool(address pool, string calldata poolInfo, uint256 AddCertificatePrice) external override{\r\n        InternaladdPool(pool, poolInfo, AddCertificatePrice, 0);\r\n    }\r\n\r\n    function InternaladdPool(address pool, string calldata poolInfo, uint256 AddCertificatePrice, uint256 SubscriptionPrice) internal{\r\n        addEntity(pool, poolInfo, _poolId);\r\n        if(false == _submited[pool]){\r\n            _AddCertificatePricePerPool[pool] = AddCertificatePrice;\r\n            _SubscriptionPricePerPool[pool] = SubscriptionPrice;\r\n            _submited[pool] = true;\r\n        }\r\n    }\r\n\r\n    function removePool(address pool) external override{\r\n       removeEntity(pool, _poolId); \r\n    }\r\n\r\n    function validatePool(address pool) external override{\r\n        validateEntity(pool, _poolId);\r\n    }\r\n\r\n    function rejectPool(address pool) external override{\r\n        rejectEntity(pool, _poolId);\r\n    }\r\n\r\n    function removePricesForPool(address entity, uint listId) internal\r\n    {\r\n        if(listId == _poolId){\r\n            delete(_submited[entity]);\r\n            delete(_AddCertificatePricePerPool[entity]);\r\n            delete(_SubscriptionPricePerPool[entity]);\r\n        }\r\n    }\r\n\r\n    function onEntityValidated(address entity, uint listId, bool addOrRemove) internal override\r\n    {\r\n        if(false == addOrRemove)removePricesForPool(entity, listId);\r\n    }\r\n\r\n    function onEntityRejected(address entity, uint listId, bool addOrRemove) internal override{}\r\n    \r\n    function retrievePool(address pool) external override view returns (string memory, bool, uint256){\r\n        string memory poolInfo;\r\n        bool isActivated;\r\n\r\n        (poolInfo, isActivated) = InternalRetrievePool(pool);\r\n        return (poolInfo, isActivated, _AddCertificatePricePerPool[pool]);\r\n    }\r\n    \r\n    function InternalRetrievePool(address pool) internal view returns (string memory, bool){\r\n        return retrieveEntity(pool, _poolId);\r\n    }\r\n\r\n    function retrieveAllPools() external override view returns (address[] memory){\r\n        return retrieveAllEntities(_poolId);\r\n    }\r\n\r\n    function isPool(address pool) public view returns (bool){\r\n        return(isEntity(pool, _poolId));\r\n    }\r\n    \r\n    // Certificates management\r\n     function addCertificate(address pool, bytes32 CertificateHash, address holder) external override\r\n        isAPool(pool)\r\n        isAnOwner\r\n        isCertificateActivated(false, CertificateHash, pool, holder) \r\n        isCertificatePendingToAdd(false, CertificateHash, pool, holder)\r\n     {\r\n        _CertificatesPerPool[pool]._CertificatesPerHolder[holder]._pendingCertificatesAdd.push(CertificateHash);\r\n        \r\n        internalValidateCertificate(pool, CertificateHash, holder);\r\n     }\r\n     \r\n     function removeCertificate(address pool, bytes32 CertificateHash, address holder) external override\r\n        isAPool(pool)\r\n        isAnOwner\r\n        isCertificateActivated(true, CertificateHash, pool, holder) \r\n        isCertificatePendingToRemove(false, CertificateHash, pool, holder)\r\n     {\r\n         _CertificatesPerPool[pool]._CertificatesPerHolder[holder]._pendingCertificatesRemove.push(CertificateHash);\r\n\r\n         internalValidateCertificate(pool, CertificateHash, holder);\r\n     }\r\n\r\n     function validateCertificate(address pool, bytes32 CertificateHash, address holder) external override\r\n        isAPool(pool)\r\n        isAnOwner\r\n        isCertificatePending(true, CertificateHash, pool, holder)\r\n        HasNotAlreadyVoted(_CertificatesPerPool[pool]._CertificatesPerHolder[holder]._cert[CertificateHash])\r\n     {\r\n        internalValidateCertificate(pool, CertificateHash, holder);\r\n     }\r\n\r\n     function internalValidateCertificate(address pool, bytes32 CertificateHash, address holder) internal\r\n     {\r\n         _CertificatesPerPool[pool]._CertificatesPerHolder[holder]._cert[CertificateHash]._Validations.push(msg.sender);\r\n\r\n         if(Library.CheckValidations(_CertificatesPerPool[pool]._CertificatesPerHolder[holder]._cert[CertificateHash]._Validations.length, _minOwners)){\r\n\r\n                if(isCertificatePendingToAdded(pool, CertificateHash, holder)){\r\n                    _CertificatesPerPool[pool]._CertificatesPerHolder[holder]._cert[CertificateHash]._activated = true; \r\n                    _CertificatesPerPool[pool]._CertificatesPerHolder[holder]._activatedCertificates.push(CertificateHash);\r\n                    _CertificatesPerPool[pool]._CertificatesPerHolder[holder]._pendingCertificatesAdd = Library.ArrayRemoveResize(Library.FindPosition(CertificateHash, _CertificatesPerPool[pool]._CertificatesPerHolder[holder]._pendingCertificatesAdd), _CertificatesPerPool[pool]._CertificatesPerHolder[holder]._pendingCertificatesAdd);\r\n                    manipulateCertificate(pool, CertificateHash, holder, true);\r\n                    deleteVoters(pool, CertificateHash, holder);\r\n                    //emit _AddEntityValidationIdEvent(_entitiesLabel[listId], entity, _Entities[listId]._entities[entity]._Info);\r\n                }\r\n                else{\r\n                    _CertificatesPerPool[pool]._CertificatesPerHolder[holder]._activatedCertificates = Library.ArrayRemoveResize(Library.FindPosition(CertificateHash, _CertificatesPerPool[pool]._CertificatesPerHolder[holder]._activatedCertificates), _CertificatesPerPool[pool]._CertificatesPerHolder[holder]._activatedCertificates);\r\n                    _CertificatesPerPool[pool]._CertificatesPerHolder[holder]._pendingCertificatesRemove = Library.ArrayRemoveResize(Library.FindPosition(CertificateHash, _CertificatesPerPool[pool]._CertificatesPerHolder[holder]._pendingCertificatesRemove), _CertificatesPerPool[pool]._CertificatesPerHolder[holder]._pendingCertificatesRemove);\r\n                    manipulateCertificate(pool, CertificateHash, holder, false);\r\n                    delete(_CertificatesPerPool[pool]._CertificatesPerHolder[holder]._cert[CertificateHash]);\r\n                    //emit _RemoveEntityValidationIdEvent(_entitiesLabel[listId], entity, _Entities[listId]._entities[entity]._Info);\r\n                }\r\n\r\n                \r\n            }\r\n     }\r\n     \r\n     function rejectCertificate(address pool, bytes32 CertificateHash, address holder) external override\r\n        isAPool(pool)\r\n        isAnOwner\r\n        isCertificatePending(true, CertificateHash, pool, holder)\r\n        HasNotAlreadyVoted(_CertificatesPerPool[pool]._CertificatesPerHolder[holder]._cert[CertificateHash])\r\n     {\r\n            if(isCertificatePendingToAdded(pool, CertificateHash, holder)){\r\n                    _CertificatesPerPool[pool]._CertificatesPerHolder[holder]._pendingCertificatesAdd = Library.ArrayRemoveResize(Library.FindPosition(CertificateHash, _CertificatesPerPool[pool]._CertificatesPerHolder[holder]._pendingCertificatesAdd), _CertificatesPerPool[pool]._CertificatesPerHolder[holder]._pendingCertificatesAdd);\r\n                    //onEntityRejected(entity, listId, true);\r\n                    delete(_CertificatesPerPool[pool]._CertificatesPerHolder[holder]._cert[CertificateHash]._Info);\r\n                    deleteVoters(pool, CertificateHash, holder);\r\n                    //emit _AddEntityRejectionIdEvent(_entitiesLabel[listId], entity, _Entities[listId]._entities[entity]._Info);\r\n                }\r\n            else{\r\n                    _CertificatesPerPool[pool]._CertificatesPerHolder[holder]._pendingCertificatesRemove = Library.ArrayRemoveResize(Library.FindPosition(CertificateHash, _CertificatesPerPool[pool]._CertificatesPerHolder[holder]._pendingCertificatesRemove), _CertificatesPerPool[pool]._CertificatesPerHolder[holder]._pendingCertificatesRemove);\r\n                    //onEntityRejected(entity, listId, false);\r\n                    deleteVoters(pool, CertificateHash, holder);\r\n                    //emit _RemoveEntityRejectionIdEvent(_entitiesLabel[listId], entity, _Entities[listId]._entities[entity]._Info);\r\n                }\r\n     }\r\n\r\n    function deleteVoters(address pool, bytes32 CertificateHash, address holder) internal{\r\n        delete(_CertificatesPerPool[pool]._CertificatesPerHolder[holder]._cert[CertificateHash]._Rejections);\r\n        delete(_CertificatesPerPool[pool]._CertificatesPerHolder[holder]._cert[CertificateHash]._Validations);\r\n    }\r\n    \r\n    function manipulateCertificate(address pool, bytes32 CertificateHash, address holder, bool addOrRemove) internal\r\n    {\r\n        MultiSigCertificatesPool poolToSend;\r\n        (string memory p ,) = InternalRetrievePool(pool);\r\n\r\n        if(keccak256(abi.encodePacked(\"Private\")) == keccak256(abi.encodePacked((p)))){\r\n                poolToSend = PrivateCertificatesPool(pool);\r\n            }\r\n        else {\r\n                poolToSend = PublicCertificatesPool(pool);\r\n        }\r\n\r\n        if(addOrRemove){\r\n                poolToSend.addCertificate{value:_AddCertificatePricePerPool[pool]}(CertificateHash, holder);\r\n            }\r\n        else{\r\n               poolToSend.removeCertificate(CertificateHash, holder);\r\n        }\r\n            \r\n        //delete(_CertificatesPerPool[pool]._CertificatesPerHolder[holder]._cert[CertificateHash]);\r\n        \r\n    }\r\n\r\n    function isCertificate(address pool, bytes32 CertificateHash, address holder) public view returns(bool){\r\n        return _CertificatesPerPool[pool]._CertificatesPerHolder[holder]._cert[CertificateHash]._activated;\r\n    }\r\n\r\n    function isCertificatePendingToAdded(address pool, bytes32 CertificateHash, address holder) internal view returns(bool)\r\n    {\r\n        bytes32[] memory pendingToBeAdded = _CertificatesPerPool[pool]._CertificatesPerHolder[holder]._pendingCertificatesAdd;\r\n        for(uint i=0; i < pendingToBeAdded.length; i++){\r\n            if(CertificateHash == pendingToBeAdded[i]) return true;\r\n        }\r\n        return false;\r\n    }\r\n\r\n    function isCertificatePendingToRemoved(address pool, bytes32 CertificateHash, address holder) internal view returns(bool)\r\n    {\r\n        bytes32[] memory pendingToBeRemoved = _CertificatesPerPool[pool]._CertificatesPerHolder[holder]._pendingCertificatesRemove;\r\n        for(uint i=0; i < pendingToBeRemoved.length; i++){\r\n            if(CertificateHash == pendingToBeRemoved[i]) return true;\r\n        }\r\n        return false;\r\n    }\r\n    \r\n    receive() external override payable{}\r\n    \r\n }",
  "sourcePath": "C:/Users/d-aam/GitHub/Certificates/contracts/Provider.sol",
  "compiler": {
    "name": "solc",
    "version": "0.8.6+commit.11564f7e.Emscripten.clang"
  },
  "schemaVersion": "3.3.4",
  "updatedAt": "2021-07-26T09:36:09.839Z",
  "devdoc": {
    "kind": "dev",
    "methods": {},
    "version": 1
  },
  "userdoc": {
    "kind": "user",
    "methods": {},
    "version": 1
  }
}