{
  "contractName": "Provider",
  "abi": [
    {
      "inputs": [
        {
          "internalType": "address[]",
          "name": "owners",
          "type": "address[]"
        },
        {
          "internalType": "uint256",
          "name": "minOwners",
          "type": "uint256"
        }
      ],
      "stateMutability": "payable",
      "type": "constructor"
    },
    {
      "anonymous": false,
      "inputs": [
        {
          "indexed": false,
          "internalType": "string",
          "name": "",
          "type": "string"
        },
        {
          "indexed": false,
          "internalType": "address",
          "name": "",
          "type": "address"
        }
      ],
      "name": "_AddEntityValidationIdEvent",
      "type": "event"
    },
    {
      "anonymous": false,
      "inputs": [
        {
          "indexed": false,
          "internalType": "string",
          "name": "",
          "type": "string"
        },
        {
          "indexed": false,
          "internalType": "address",
          "name": "",
          "type": "address"
        }
      ],
      "name": "_RemoveEntityValidationIdEvent",
      "type": "event"
    },
    {
      "inputs": [
        {
          "internalType": "address",
          "name": "owner",
          "type": "address"
        },
        {
          "internalType": "string",
          "name": "ownerInfo",
          "type": "string"
        }
      ],
      "name": "addOwner",
      "outputs": [],
      "stateMutability": "nonpayable",
      "type": "function"
    },
    {
      "inputs": [
        {
          "internalType": "address",
          "name": "owner",
          "type": "address"
        }
      ],
      "name": "isOwner",
      "outputs": [
        {
          "internalType": "bool",
          "name": "",
          "type": "bool"
        }
      ],
      "stateMutability": "view",
      "type": "function"
    },
    {
      "inputs": [
        {
          "internalType": "address",
          "name": "owner",
          "type": "address"
        }
      ],
      "name": "removeOwner",
      "outputs": [],
      "stateMutability": "nonpayable",
      "type": "function"
    },
    {
      "inputs": [],
      "name": "retrieveAllOwners",
      "outputs": [
        {
          "internalType": "address[]",
          "name": "",
          "type": "address[]"
        }
      ],
      "stateMutability": "view",
      "type": "function"
    },
    {
      "inputs": [
        {
          "internalType": "address",
          "name": "owner",
          "type": "address"
        }
      ],
      "name": "retrieveOwner",
      "outputs": [
        {
          "internalType": "string",
          "name": "",
          "type": "string"
        }
      ],
      "stateMutability": "view",
      "type": "function"
    },
    {
      "inputs": [],
      "name": "retrieveTotalOwners",
      "outputs": [
        {
          "internalType": "uint256",
          "name": "",
          "type": "uint256"
        }
      ],
      "stateMutability": "view",
      "type": "function"
    },
    {
      "inputs": [
        {
          "internalType": "address",
          "name": "pool",
          "type": "address"
        },
        {
          "internalType": "string",
          "name": "poolInfo",
          "type": "string"
        }
      ],
      "name": "addPool",
      "outputs": [],
      "stateMutability": "nonpayable",
      "type": "function"
    },
    {
      "inputs": [
        {
          "internalType": "address",
          "name": "pool",
          "type": "address"
        }
      ],
      "name": "removePool",
      "outputs": [],
      "stateMutability": "nonpayable",
      "type": "function"
    },
    {
      "inputs": [
        {
          "internalType": "address",
          "name": "pool",
          "type": "address"
        }
      ],
      "name": "retrievePool",
      "outputs": [
        {
          "internalType": "string",
          "name": "",
          "type": "string"
        }
      ],
      "stateMutability": "view",
      "type": "function"
    },
    {
      "inputs": [],
      "name": "retrieveAllPools",
      "outputs": [
        {
          "internalType": "address[]",
          "name": "",
          "type": "address[]"
        }
      ],
      "stateMutability": "view",
      "type": "function"
    },
    {
      "inputs": [],
      "name": "retrieveTotalPools",
      "outputs": [
        {
          "internalType": "uint256",
          "name": "",
          "type": "uint256"
        }
      ],
      "stateMutability": "view",
      "type": "function"
    },
    {
      "inputs": [
        {
          "internalType": "address",
          "name": "pool",
          "type": "address"
        }
      ],
      "name": "isPool",
      "outputs": [
        {
          "internalType": "bool",
          "name": "",
          "type": "bool"
        }
      ],
      "stateMutability": "view",
      "type": "function"
    },
    {
      "inputs": [
        {
          "internalType": "address",
          "name": "pool",
          "type": "address"
        },
        {
          "internalType": "bytes32",
          "name": "CertificateHash",
          "type": "bytes32"
        },
        {
          "internalType": "address",
          "name": "holder",
          "type": "address"
        }
      ],
      "name": "addCertificate",
      "outputs": [],
      "stateMutability": "nonpayable",
      "type": "function"
    },
    {
      "inputs": [
        {
          "internalType": "address",
          "name": "pool",
          "type": "address"
        },
        {
          "internalType": "bytes32",
          "name": "CertificateHash",
          "type": "bytes32"
        },
        {
          "internalType": "address",
          "name": "holder",
          "type": "address"
        }
      ],
      "name": "removeCertificate",
      "outputs": [],
      "stateMutability": "nonpayable",
      "type": "function"
    }
  ],
  "bytecode": "0x608060405260405180604001604052806040518060400160405280600581526020017f4f776e657200000000000000000000000000000000000000000000000000000081525081526020016040518060400160405280600481526020017f506f6f6c0000000000000000000000000000000000000000000000000000000081525081525060049060026200009592919062000462565b5060405162004cc938038062004cc98339818101604052810190620000bb9190620006c3565b818160026004805480602002602001604051908101604052809291908181526020016000905b82821015620001a3578382906000526020600020018054600181600116156101000203166002900480601f0160208091040260200160405190810160405280929190818152602001828054600181600116156101000203166002900480156200018e5780601f1062000162576101008083540402835291602001916200018e565b820191906000526020600020905b8154815290600101906020018083116200017057829003601f168201915b505050505081526020019060010190620000e1565b5050505060008451841115620001f0576040517f08c379a0000000000000000000000000000000000000000000000000000000008152600401620001e790620007e3565b60405180910390fd5b6000841162000236576040517f08c379a00000000000000000000000000000000000000000000000000000000081526004016200022d9062000805565b60405180910390fd5b815183146200027c576040517f08c379a0000000000000000000000000000000000000000000000000000000008152600401620002739062000827565b60405180910390fd5b8060008190555060005b838110156200030d576003600181600181540180825580915050039060005260206000209050506002838281518110620002bc57fe5b6020026020010151908060018154018082558091505060019003906000526020600020016000909190919091509080519060200190620002fe929190620004c9565b50808060010191505062000286565b508360018190555060005b8551811015620004545760016003600054815481106200033457fe5b906000526020600020906002020160000160008884815181106200035457fe5b602002602001015173ffffffffffffffffffffffffffffffffffffffff1673ffffffffffffffffffffffffffffffffffffffff16815260200190815260200160002060000160006101000a81548160ff021916908315150217905550600360005481548110620003c057fe5b9060005260206000209060020201600101868281518110620003de57fe5b60200260200101519080600181540180825580915050600190039060005260206000200160009091909190916101000a81548173ffffffffffffffffffffffffffffffffffffffff021916908373ffffffffffffffffffffffffffffffffffffffff160217905550808060010191505062000318565b505050505050505062000931565b828054828255906000526020600020908101928215620004b6579160200282015b82811115620004b5578251829080519060200190620004a4929190620004c9565b509160200191906001019062000483565b5b509050620004c5919062000560565b5090565b828054600181600116156101000203166002900490600052602060002090601f0160209004810192826200050157600085556200054d565b82601f106200051c57805160ff19168380011785556200054d565b828001600101855582156200054d579182015b828111156200054c5782518255916020019190600101906200052f565b5b5090506200055c919062000588565b5090565b5b808211156200058457600081816200057a9190620005a7565b5060010162000561565b5090565b5b80821115620005a357600081600090555060010162000589565b5090565b50805460018160011615610100020316600290046000825580601f10620005cf5750620005f0565b601f016020900490600052602060002090810190620005ef919062000588565b5b50565b60006200060a62000604846200087d565b62000849565b905080838252602082019050828560208602820111156200062a57600080fd5b60005b858110156200065e578162000643888262000668565b8452602084019350602083019250506001810190506200062d565b5050509392505050565b6000815190506200067981620008fd565b92915050565b600082601f8301126200069157600080fd5b8151620006a3848260208601620005f3565b91505092915050565b600081519050620006bd8162000917565b92915050565b60008060408385031215620006d757600080fd5b600083015167ffffffffffffffff811115620006f257600080fd5b62000700858286016200067f565b92505060206200071385828601620006ac565b9150509250929050565b60006200072c600483620008ac565b91507f45433136000000000000000000000000000000000000000000000000000000006000830152602082019050919050565b60006200076e600483620008ac565b91507f45433137000000000000000000000000000000000000000000000000000000006000830152602082019050919050565b6000620007b0600483620008ac565b91507f45433138000000000000000000000000000000000000000000000000000000006000830152602082019050919050565b60006020820190508181036000830152620007fe816200071d565b9050919050565b6000602082019050818103600083015262000820816200075f565b9050919050565b600060208201905081810360008301526200084281620007a1565b9050919050565b6000604051905081810181811067ffffffffffffffff82111715620008735762000872620008fb565b5b8060405250919050565b600067ffffffffffffffff8211156200089b576200089a620008fb565b5b602082029050602081019050919050565b600082825260208201905092915050565b6000620008ca82620008d1565b9050919050565b600073ffffffffffffffffffffffffffffffffffffffff82169050919050565b6000819050919050565bfe5b6200090881620008bd565b81146200091457600080fd5b50565b6200092281620008f1565b81146200092e57600080fd5b50565b61438880620009416000396000f3fe608060405234801561001057600080fd5b50600436106100ea5760003560e01c8063704dc09b1161008c5780638fc2d8ea116100665780638fc2d8ea14610247578063a93d5ed614610277578063eefe768114610295578063f4989e71146102b3576100ea565b8063704dc09b146101dd57806373bd22b8146101f957806377bc5a1f14610217576100ea565b80632f54bf6e116100c85780632f54bf6e146101455780633542758f146101755780633b7d0946146101915780635b16ebb7146101ad576100ea565b806314a2ed2f146100ef578063173825d91461010b5780632d99aaf214610127575b600080fd5b610109600480360381019061010491906138d1565b6102cf565b005b610125600480360381019061012091906138a8565b6102e1565b005b61012f610343565b60405161013c9190613eee565b60405180910390f35b61015f600480360381019061015a91906138a8565b610354565b60405161016c9190613f10565b60405180910390f35b61018f600480360381019061018a9190613920565b610369565b005b6101ab60048036038101906101a691906138a8565b61037a565b005b6101c760048036038101906101c291906138a8565b610388565b6040516101d49190613f10565b60405180910390f35b6101f760048036038101906101f29190613920565b61039c565b005b6102016103ac565b60405161020e91906140e6565b60405180910390f35b610231600480360381019061022c91906138a8565b6103bd565b60405161023e9190613fb4565b60405180910390f35b610261600480360381019061025c91906138a8565b6103d2565b60405161026e9190613fb4565b60405180910390f35b61027f6103e4565b60405161028c9190613eee565b60405180910390f35b61029d6103f6565b6040516102aa91906140e6565b60405180910390f35b6102cd60048036038101906102c891906138d1565b610408565b005b6102dc838383600061041a565b505050565b60015460016102ee6103f6565b0380821115610332576040517f08c379a000000000000000000000000000000000000000000000000000000000815260040161032990614026565b60405180910390fd5b61033e8360005461100a565b505050565b606061034f6001611437565b905090565b60006103628260005461153b565b9050919050565b6103768282600054611864565b5050565b61038581600161100a565b50565b600061039582600161153b565b9050919050565b6103a882826001611864565b5050565b60006103b86001611c5b565b905090565b60606103cb82600054611d5f565b9050919050565b60606103dd82611e65565b9050919050565b60606103f1600054611437565b905090565b6000610403600054611c5b565b905090565b610415838383600161041a565b505050565b8361042481610388565b1515600115151461043457600080fd5b61043d33610354565b15156001151514610483576040517f08c379a000000000000000000000000000000000000000000000000000000000815260040161047a90614066565b60405180910390fd5b60018081111561048f57fe5b82600181111561049b57fe5b14600560008773ffffffffffffffffffffffffffffffffffffffff1673ffffffffffffffffffffffffffffffffffffffff16815260200190815260200160002060000160008573ffffffffffffffffffffffffffffffffffffffff1673ffffffffffffffffffffffffffffffffffffffff16815260200190815260200160002060000160008681526020019081526020016000206040518060800160405290816000820160009054906101000a900460ff16151515158152602001600182018054600181600116156101000203166002900480601f0160208091040260200160405190810160405280929190818152602001828054600181600116156101000203166002900480156105ee5780601f106105c3576101008083540402835291602001916105ee565b820191906000526020600020905b8154815290600101906020018083116105d157829003601f168201915b505050505081526020016002820180548060200260200160405190810160405280929190818152602001828054801561067c57602002820191906000526020600020905b8160009054906101000a900473ffffffffffffffffffffffffffffffffffffffff1673ffffffffffffffffffffffffffffffffffffffff1681526020019060010190808311610632575b505050505081526020016003820180548060200260200160405190810160405280929190818152602001828054801561070a57602002820191906000526020600020905b8160009054906101000a900473ffffffffffffffffffffffffffffffffffffffff1673ffffffffffffffffffffffffffffffffffffffff16815260200190600101908083116106c0575b50505050508152505073__Library_______________________________63354945be83836040518363ffffffff1660e01b815260040161074c929190613f2b565b60006040518083038186803b15801561076457600080fd5b505af4158015610778573d6000803e3d6000fd5b505050506000600560008973ffffffffffffffffffffffffffffffffffffffff1673ffffffffffffffffffffffffffffffffffffffff16815260200190815260200160002060000160008773ffffffffffffffffffffffffffffffffffffffff1673ffffffffffffffffffffffffffffffffffffffff16815260200190815260200160002060000160008881526020019081526020016000206040518060800160405290816000820160009054906101000a900460ff16151515158152602001600182018054600181600116156101000203166002900480601f0160208091040260200160405190810160405280929190818152602001828054600181600116156101000203166002900480156108d05780601f106108a5576101008083540402835291602001916108d0565b820191906000526020600020905b8154815290600101906020018083116108b357829003601f168201915b505050505081526020016002820180548060200260200160405190810160405280929190818152602001828054801561095e57602002820191906000526020600020905b8160009054906101000a900473ffffffffffffffffffffffffffffffffffffffff1673ffffffffffffffffffffffffffffffffffffffff1681526020019060010190808311610914575b50505050508152602001600382018054806020026020016040519081016040528092919081815260200182805480156109ec57602002820191906000526020600020905b8160009054906101000a900473ffffffffffffffffffffffffffffffffffffffff1673ffffffffffffffffffffffffffffffffffffffff16815260200190600101908083116109a2575b50505050508152505073__Library_______________________________63777d5c5883836040518363ffffffff1660e01b8152600401610a2e929190613f84565b60006040518083038186803b158015610a4657600080fd5b505af4158015610a5a573d6000803e3d6000fd5b505050506000806001811115610a6c57fe5b876001811115610a7857fe5b1415610c1657600560008b73ffffffffffffffffffffffffffffffffffffffff1673ffffffffffffffffffffffffffffffffffffffff16815260200190815260200160002060000160008973ffffffffffffffffffffffffffffffffffffffff1673ffffffffffffffffffffffffffffffffffffffff16815260200190815260200160002060000160008a8152602001908152602001600020600201339080600181540180825580915050600190039060005260206000200160009091909190916101000a81548173ffffffffffffffffffffffffffffffffffffffff021916908373ffffffffffffffffffffffffffffffffffffffff160217905550600560008b73ffffffffffffffffffffffffffffffffffffffff1673ffffffffffffffffffffffffffffffffffffffff16815260200190815260200160002060000160008973ffffffffffffffffffffffffffffffffffffffff1673ffffffffffffffffffffffffffffffffffffffff16815260200190815260200160002060000160008a8152602001908152602001600020600201805490509050610daa565b600560008b73ffffffffffffffffffffffffffffffffffffffff1673ffffffffffffffffffffffffffffffffffffffff16815260200190815260200160002060000160008973ffffffffffffffffffffffffffffffffffffffff1673ffffffffffffffffffffffffffffffffffffffff16815260200190815260200160002060000160008a8152602001908152602001600020600301339080600181540180825580915050600190039060005260206000200160009091909190916101000a81548173ffffffffffffffffffffffffffffffffffffffff021916908373ffffffffffffffffffffffffffffffffffffffff160217905550600560008b73ffffffffffffffffffffffffffffffffffffffff1673ffffffffffffffffffffffffffffffffffffffff16815260200190815260200160002060000160008973ffffffffffffffffffffffffffffffffffffffff1673ffffffffffffffffffffffffffffffffffffffff16815260200190815260200160002060000160008a81526020019081526020016000206003018054905090505b610db681600154611e79565b15610ffe576000610dc68b611e65565b604051602001610dd69190613ec2565b60405160208183030381529060405280519060200120604051602001610dfb90613ed9565b604051602081830303815290604052805190602001201415610e1f578a9050610e23565b8a90505b60006001811115610e3057fe5b886001811115610e3c57fe5b1415610eb4578073ffffffffffffffffffffffffffffffffffffffff16631ab807f88b8b6040518363ffffffff1660e01b8152600401610e7d929190613f5b565b600060405180830381600087803b158015610e9757600080fd5b505af1158015610eab573d6000803e3d6000fd5b50505050610f22565b8073ffffffffffffffffffffffffffffffffffffffff1663a73db28a8b8b6040518363ffffffff1660e01b8152600401610eef929190613f5b565b600060405180830381600087803b158015610f0957600080fd5b505af1158015610f1d573d6000803e3d6000fd5b505050505b600560008c73ffffffffffffffffffffffffffffffffffffffff1673ffffffffffffffffffffffffffffffffffffffff16815260200190815260200160002060000160008a73ffffffffffffffffffffffffffffffffffffffff1673ffffffffffffffffffffffffffffffffffffffff16815260200190815260200160002060000160008b8152602001908152602001600020600080820160006101000a81549060ff0219169055600182016000610fda9190613663565b600282016000610fea91906136ab565b600382016000610ffa91906136ab565b5050505b50505050505050505050565b8060038054905073__Library_______________________________632477a0ea83836040518363ffffffff1660e01b815260040161104a929190614101565b60206040518083038186803b15801561106257600080fd5b505af4158015611076573d6000803e3d6000fd5b505050506040513d601f19601f8201168201806040525081019061109a9190613974565b151560011515146110e0576040517f08c379a00000000000000000000000000000000000000000000000000000000081526004016110d790614086565b60405180910390fd5b836110ea33610354565b151560011515148061112757508073ffffffffffffffffffffffffffffffffffffffff163373ffffffffffffffffffffffffffffffffffffffff16145b611166576040517f08c379a000000000000000000000000000000000000000000000000000000000815260040161115d906140a6565b60405180910390fd5b61118d856003868154811061117757fe5b9060005260206000209060020201600154611e97565b6113d46003858154811061119d57fe5b906000526020600020906002020160000160008773ffffffffffffffffffffffffffffffffffffffff1673ffffffffffffffffffffffffffffffffffffffff1681526020019081526020016000206040518060800160405290816000820160009054906101000a900460ff16151515158152602001600182018054600181600116156101000203166002900480601f0160208091040260200160405190810160405280929190818152602001828054600181600116156101000203166002900480156112aa5780601f1061127f576101008083540402835291602001916112aa565b820191906000526020600020905b81548152906001019060200180831161128d57829003601f168201915b505050505081526020016002820180548060200260200160405190810160405280929190818152602001828054801561133857602002820191906000526020600020905b8160009054906101000a900473ffffffffffffffffffffffffffffffffffffffff1673ffffffffffffffffffffffffffffffffffffffff16815260200190600101908083116112ee575b50505050508152602001600382018054806020026020016040519081016040528092919081815260200182805480156113c657602002820191906000526020600020905b8160009054906101000a900473ffffffffffffffffffffffffffffffffffffffff1673ffffffffffffffffffffffffffffffffffffffff168152602001906001019080831161137c575b505050505081525050612607565b1515600015151415611430577f1f62d535f971041db7bd8760bf0f1f9f476461558744a35c0d477b5ad6893e896002858154811061140e57fe5b9060005260206000200186604051611427929190613fd6565b60405180910390a15b5050505050565b60608160038054905073__Library_______________________________632477a0ea83836040518363ffffffff1660e01b8152600401611479929190614101565b60206040518083038186803b15801561149157600080fd5b505af41580156114a5573d6000803e3d6000fd5b505050506040513d601f19601f820116820180604052508101906114c99190613974565b1515600115151461150f576040517f08c379a000000000000000000000000000000000000000000000000000000000815260040161150690614086565b60405180910390fd5b6115326003858154811061151f57fe5b9060005260206000209060020201612615565b92505050919050565b60008160038054905073__Library_______________________________632477a0ea83836040518363ffffffff1660e01b815260040161157d929190614101565b60206040518083038186803b15801561159557600080fd5b505af41580156115a9573d6000803e3d6000fd5b505050506040513d601f19601f820116820180604052508101906115cd9190613974565b15156001151514611613576040517f08c379a000000000000000000000000000000000000000000000000000000000815260040161160a90614086565b60405180910390fd5b61185a6003858154811061162357fe5b906000526020600020906002020160000160008773ffffffffffffffffffffffffffffffffffffffff1673ffffffffffffffffffffffffffffffffffffffff1681526020019081526020016000206040518060800160405290816000820160009054906101000a900460ff16151515158152602001600182018054600181600116156101000203166002900480601f0160208091040260200160405190810160405280929190818152602001828054600181600116156101000203166002900480156117305780601f1061170557610100808354040283529160200191611730565b820191906000526020600020905b81548152906001019060200180831161171357829003601f168201915b50505050508152602001600282018054806020026020016040519081016040528092919081815260200182805480156117be57602002820191906000526020600020905b8160009054906101000a900473ffffffffffffffffffffffffffffffffffffffff1673ffffffffffffffffffffffffffffffffffffffff1681526020019060010190808311611774575b505050505081526020016003820180548060200260200160405190810160405280929190818152602001828054801561184c57602002820191906000526020600020905b8160009054906101000a900473ffffffffffffffffffffffffffffffffffffffff1673ffffffffffffffffffffffffffffffffffffffff1681526020019060010190808311611802575b505050505081525050612607565b9250505092915050565b8060038054905073__Library_______________________________632477a0ea83836040518363ffffffff1660e01b81526004016118a4929190614101565b60206040518083038186803b1580156118bc57600080fd5b505af41580156118d0573d6000803e3d6000fd5b505050506040513d601f19601f820116820180604052508101906118f49190613974565b1515600115151461193a576040517f08c379a000000000000000000000000000000000000000000000000000000000815260040161193190614086565b60405180910390fd5b61194333610354565b15156001151514611989576040517f08c379a000000000000000000000000000000000000000000000000000000000815260040161198090614066565b60405180910390fd5b6119b185856003868154811061199b57fe5b90600052602060002090600202016001546126a7565b611bf8600384815481106119c157fe5b906000526020600020906002020160000160008773ffffffffffffffffffffffffffffffffffffffff1673ffffffffffffffffffffffffffffffffffffffff1681526020019081526020016000206040518060800160405290816000820160009054906101000a900460ff16151515158152602001600182018054600181600116156101000203166002900480601f016020809104026020016040519081016040528092919081815260200182805460018160011615610100020316600290048015611ace5780601f10611aa357610100808354040283529160200191611ace565b820191906000526020600020905b815481529060010190602001808311611ab157829003601f168201915b5050505050815260200160028201805480602002602001604051908101604052809291908181526020018280548015611b5c57602002820191906000526020600020905b8160009054906101000a900473ffffffffffffffffffffffffffffffffffffffff1673ffffffffffffffffffffffffffffffffffffffff1681526020019060010190808311611b12575b5050505050815260200160038201805480602002602001604051908101604052809291908181526020018280548015611bea57602002820191906000526020600020905b8160009054906101000a900473ffffffffffffffffffffffffffffffffffffffff1673ffffffffffffffffffffffffffffffffffffffff1681526020019060010190808311611ba0575b505050505081525050612607565b1515600115151415611c54577f3c139d46a211844e248647688545a37c07c505c999c1232d1247c707dc0a91e260028481548110611c3257fe5b9060005260206000200186604051611c4b929190613fd6565b60405180910390a15b5050505050565b60008160038054905073__Library_______________________________632477a0ea83836040518363ffffffff1660e01b8152600401611c9d929190614101565b60206040518083038186803b158015611cb557600080fd5b505af4158015611cc9573d6000803e3d6000fd5b505050506040513d601f19601f82011682018060405250810190611ced9190613974565b15156001151514611d33576040517f08c379a0000000000000000000000000000000000000000000000000000000008152600401611d2a90614086565b60405180910390fd5b611d5660038581548110611d4357fe5b9060005260206000209060020201612ddf565b92505050919050565b60608160038054905073__Library_______________________________632477a0ea83836040518363ffffffff1660e01b8152600401611da1929190614101565b60206040518083038186803b158015611db957600080fd5b505af4158015611dcd573d6000803e3d6000fd5b505050506040513d601f19601f82011682018060405250810190611df19190613974565b15156001151514611e37576040517f08c379a0000000000000000000000000000000000000000000000000000000008152600401611e2e90614086565b60405180910390fd5b611e5b8560038681548110611e4857fe5b9060005260206000209060020201612df0565b9250505092915050565b6060611e72826001611d5f565b9050919050565b600081831015611e8c5760009050611e91565b600190505b92915050565b60018260000160008573ffffffffffffffffffffffffffffffffffffffff1673ffffffffffffffffffffffffffffffffffffffff1681526020019081526020016000206040518060800160405290816000820160009054906101000a900460ff16151515158152602001600182018054600181600116156101000203166002900480601f016020809104026020016040519081016040528092919081815260200182805460018160011615610100020316600290048015611f995780601f10611f6e57610100808354040283529160200191611f99565b820191906000526020600020905b815481529060010190602001808311611f7c57829003601f168201915b505050505081526020016002820180548060200260200160405190810160405280929190818152602001828054801561202757602002820191906000526020600020905b8160009054906101000a900473ffffffffffffffffffffffffffffffffffffffff1673ffffffffffffffffffffffffffffffffffffffff1681526020019060010190808311611fdd575b50505050508152602001600382018054806020026020016040519081016040528092919081815260200182805480156120b557602002820191906000526020600020905b8160009054906101000a900473ffffffffffffffffffffffffffffffffffffffff1673ffffffffffffffffffffffffffffffffffffffff168152602001906001019080831161206b575b5050505050815250506120c8828261310a565b60018460000160008773ffffffffffffffffffffffffffffffffffffffff1673ffffffffffffffffffffffffffffffffffffffff1681526020019081526020016000206040518060800160405290816000820160009054906101000a900460ff16151515158152602001600182018054600181600116156101000203166002900480601f0160208091040260200160405190810160405280929190818152602001828054600181600116156101000203166002900480156121ca5780601f1061219f576101008083540402835291602001916121ca565b820191906000526020600020905b8154815290600101906020018083116121ad57829003601f168201915b505050505081526020016002820180548060200260200160405190810160405280929190818152602001828054801561225857602002820191906000526020600020905b8160009054906101000a900473ffffffffffffffffffffffffffffffffffffffff1673ffffffffffffffffffffffffffffffffffffffff168152602001906001019080831161220e575b50505050508152602001600382018054806020026020016040519081016040528092919081815260200182805480156122e657602002820191906000526020600020905b8160009054906101000a900473ffffffffffffffffffffffffffffffffffffffff1673ffffffffffffffffffffffffffffffffffffffff168152602001906001019080831161229c575b5050505050815250506122f982826131bf565b8560000160008873ffffffffffffffffffffffffffffffffffffffff1673ffffffffffffffffffffffffffffffffffffffff168152602001908152602001600020600301339080600181540180825580915050600190039060005260206000200160009091909190916101000a81548173ffffffffffffffffffffffffffffffffffffffff021916908373ffffffffffffffffffffffffffffffffffffffff1602179055508673ffffffffffffffffffffffffffffffffffffffff163373ffffffffffffffffffffffffffffffffffffffff16148061242557506124248660000160008973ffffffffffffffffffffffffffffffffffffffff1673ffffffffffffffffffffffffffffffffffffffff1681526020019081526020016000206003018054905086611e79565b5b156125fe5761255d6125586124c289896001018054806020026020016040519081016040528092919081815260200182805480156124b857602002820191906000526020600020905b8160009054906101000a900473ffffffffffffffffffffffffffffffffffffffff1673ffffffffffffffffffffffffffffffffffffffff168152602001906001019080831161246e575b5050505050613290565b6125538960010180548060200260200160405190810160405280929190818152602001828054801561254957602002820191906000526020600020905b8160009054906101000a900473ffffffffffffffffffffffffffffffffffffffff1673ffffffffffffffffffffffffffffffffffffffff16815260200190600101908083116124ff575b505050505061330d565b6133b2565b6134d8565b8660010190805190602001906125749291906136cc565b508560000160008873ffffffffffffffffffffffffffffffffffffffff1673ffffffffffffffffffffffffffffffffffffffff168152602001908152602001600020600080820160006101000a81549060ff02191690556001820160006125db9190613663565b6002820160006125eb91906136ab565b6003820160006125fb91906136ab565b50505b50505050505050565b600081600001519050919050565b60608160010180548060200260200160405190810160405280929190818152602001828054801561269b57602002820191906000526020600020905b8160009054906101000a900473ffffffffffffffffffffffffffffffffffffffff1673ffffffffffffffffffffffffffffffffffffffff1681526020019060010190808311612651575b50505050509050919050565b60008260000160008673ffffffffffffffffffffffffffffffffffffffff1673ffffffffffffffffffffffffffffffffffffffff1681526020019081526020016000206040518060800160405290816000820160009054906101000a900460ff16151515158152602001600182018054600181600116156101000203166002900480601f0160208091040260200160405190810160405280929190818152602001828054600181600116156101000203166002900480156127a95780601f1061277e576101008083540402835291602001916127a9565b820191906000526020600020905b81548152906001019060200180831161278c57829003601f168201915b505050505081526020016002820180548060200260200160405190810160405280929190818152602001828054801561283757602002820191906000526020600020905b8160009054906101000a900473ffffffffffffffffffffffffffffffffffffffff1673ffffffffffffffffffffffffffffffffffffffff16815260200190600101908083116127ed575b50505050508152602001600382018054806020026020016040519081016040528092919081815260200182805480156128c557602002820191906000526020600020905b8160009054906101000a900473ffffffffffffffffffffffffffffffffffffffff1673ffffffffffffffffffffffffffffffffffffffff168152602001906001019080831161287b575b5050505050815250506128d8828261310a565b60008460000160008873ffffffffffffffffffffffffffffffffffffffff1673ffffffffffffffffffffffffffffffffffffffff1681526020019081526020016000206040518060800160405290816000820160009054906101000a900460ff16151515158152602001600182018054600181600116156101000203166002900480601f0160208091040260200160405190810160405280929190818152602001828054600181600116156101000203166002900480156129da5780601f106129af576101008083540402835291602001916129da565b820191906000526020600020905b8154815290600101906020018083116129bd57829003601f168201915b5050505050815260200160028201805480602002602001604051908101604052809291908181526020018280548015612a6857602002820191906000526020600020905b8160009054906101000a900473ffffffffffffffffffffffffffffffffffffffff1673ffffffffffffffffffffffffffffffffffffffff1681526020019060010190808311612a1e575b5050505050815260200160038201805480602002602001604051908101604052809291908181526020018280548015612af657602002820191906000526020600020905b8160009054906101000a900473ffffffffffffffffffffffffffffffffffffffff1673ffffffffffffffffffffffffffffffffffffffff1681526020019060010190808311612aac575b505050505081525050612b0982826131bf565b8560000160008973ffffffffffffffffffffffffffffffffffffffff1673ffffffffffffffffffffffffffffffffffffffff168152602001908152602001600020600201805490506000148015612bb857508560000160008973ffffffffffffffffffffffffffffffffffffffff1673ffffffffffffffffffffffffffffffffffffffff1681526020019081526020016000206001018054600181600116156101000203166002900490506000145b15612c1757868660000160008a73ffffffffffffffffffffffffffffffffffffffff1673ffffffffffffffffffffffffffffffffffffffff1681526020019081526020016000206001019080519060200190612c15929190613756565b505b8560000160008973ffffffffffffffffffffffffffffffffffffffff1673ffffffffffffffffffffffffffffffffffffffff168152602001908152602001600020600201339080600181540180825580915050600190039060005260206000200160009091909190916101000a81548173ffffffffffffffffffffffffffffffffffffffff021916908373ffffffffffffffffffffffffffffffffffffffff160217905550612d0d8660000160008a73ffffffffffffffffffffffffffffffffffffffff1673ffffffffffffffffffffffffffffffffffffffff1681526020019081526020016000206002018054905086611e79565b15612dd55760018660000160008a73ffffffffffffffffffffffffffffffffffffffff1673ffffffffffffffffffffffffffffffffffffffff16815260200190815260200160002060000160006101000a81548160ff02191690831515021790555085600101889080600181540180825580915050600190039060005260206000200160009091909190916101000a81548173ffffffffffffffffffffffffffffffffffffffff021916908373ffffffffffffffffffffffffffffffffffffffff1602179055505b5050505050505050565b600081600101805490509050919050565b606060018260000160008573ffffffffffffffffffffffffffffffffffffffff1673ffffffffffffffffffffffffffffffffffffffff1681526020019081526020016000206040518060800160405290816000820160009054906101000a900460ff16151515158152602001600182018054600181600116156101000203166002900480601f016020809104026020016040519081016040528092919081815260200182805460018160011615610100020316600290048015612ef45780601f10612ec957610100808354040283529160200191612ef4565b820191906000526020600020905b815481529060010190602001808311612ed757829003601f168201915b5050505050815260200160028201805480602002602001604051908101604052809291908181526020018280548015612f8257602002820191906000526020600020905b8160009054906101000a900473ffffffffffffffffffffffffffffffffffffffff1673ffffffffffffffffffffffffffffffffffffffff1681526020019060010190808311612f38575b505050505081526020016003820180548060200260200160405190810160405280929190818152602001828054801561301057602002820191906000526020600020905b8160009054906101000a900473ffffffffffffffffffffffffffffffffffffffff1673ffffffffffffffffffffffffffffffffffffffff1681526020019060010190808311612fc6575b505050505081525050613023828261310a565b8360000160008673ffffffffffffffffffffffffffffffffffffffff1673ffffffffffffffffffffffffffffffffffffffff1681526020019081526020016000206001018054600181600116156101000203166002900480601f0160208091040260200160405190810160405280929190818152602001828054600181600116156101000203166002900480156130fb5780601f106130d0576101008083540402835291602001916130fb565b820191906000526020600020905b8154815290600101906020018083116130de57829003601f168201915b50505050509250505092915050565b81151560001515141561316b5761312081612607565b15156000151514613166576040517f08c379a000000000000000000000000000000000000000000000000000000000815260040161315d906140c6565b60405180910390fd5b6131bb565b61317481612607565b151560011515146131ba576040517f08c379a00000000000000000000000000000000000000000000000000000000081526004016131b190614006565b60405180910390fd5b5b5050565b8160018111156131cb57fe5b600060018111156131d857fe5b1415613237576131ec3382604001516135ab565b15156000151514613232576040517f08c379a000000000000000000000000000000000000000000000000000000000815260040161322990614046565b60405180910390fd5b61328c565b6132453382606001516135ab565b1515600015151461328b576040517f08c379a000000000000000000000000000000000000000000000000000000000815260040161328290614046565b60405180910390fd5b5b5050565b600080600090505b82518110156132fe578281815181106132ad57fe5b602002602001015173ffffffffffffffffffffffffffffffffffffffff168473ffffffffffffffffffffffffffffffffffffffff1614156132f15780915050613307565b8080600101915050613298565b50600182510190505b92915050565b60606000825167ffffffffffffffff8111801561332957600080fd5b506040519080825280602002602001820160405280156133585781602001602082028036833780820191505090505b50905060005b83518110156133a85761338384828151811061337657fe5b6020026020010151613626565b82828151811061338f57fe5b602002602001018181525050808060010191505061335e565b5080915050919050565b60608282516133c18282613649565b15156001151514613407576040517f08c379a00000000000000000000000000000000000000000000000000000000081526004016133fe90614086565b60405180910390fd5b6000600185510367ffffffffffffffff8111801561342457600080fd5b506040519080825280602002602001820160405280156134535781602001602082028036833780820191505090505b5090508460018651038151811061346657fe5b602002602001015185878151811061347a57fe5b60200260200101818152505060005b81518110156134cb5785818151811061349e57fe5b60200260200101518282815181106134b257fe5b6020026020010181815250508080600101915050613489565b5080935050505092915050565b60606000825167ffffffffffffffff811180156134f457600080fd5b506040519080825280602002602001820160405280156135235781602001602082028036833780820191505090505b50905060005b83518110156135a15761354e84828151811061354157fe5b6020026020010151613656565b82828151811061355a57fe5b602002602001019073ffffffffffffffffffffffffffffffffffffffff16908173ffffffffffffffffffffffffffffffffffffffff16815250508080600101915050613529565b5080915050919050565b600080600090505b825181101561361a578281815181106135c857fe5b602002602001015173ffffffffffffffffffffffffffffffffffffffff168473ffffffffffffffffffffffffffffffffffffffff16141561360d576001915050613620565b80806001019150506135b3565b50600090505b92915050565b60008173ffffffffffffffffffffffffffffffffffffffff1660001b9050919050565b6000828211905092915050565b60008160001c9050919050565b50805460018160011615610100020316600290046000825580601f1061368957506136a8565b601f0160209004906000526020600020908101906136a791906137e4565b5b50565b50805460008255906000526020600020908101906136c991906137e4565b50565b828054828255906000526020600020908101928215613745579160200282015b828111156137445782518260006101000a81548173ffffffffffffffffffffffffffffffffffffffff021916908373ffffffffffffffffffffffffffffffffffffffff160217905550916020019190600101906136ec565b5b50905061375291906137e4565b5090565b828054600181600116156101000203166002900490600052602060002090601f01602090048101928261378c57600085556137d3565b82601f106137a557805160ff19168380011785556137d3565b828001600101855582156137d3579182015b828111156137d25782518255916020019190600101906137b7565b5b5090506137e091906137e4565b5090565b5b808211156137fd5760008160009055506001016137e5565b5090565b600061381461380f8461415b565b61412a565b90508281526020810184848401111561382c57600080fd5b6138378482856142a4565b509392505050565b60008135905061384e8161430d565b92915050565b60008151905061386381614324565b92915050565b6000813590506138788161433b565b92915050565b600082601f83011261388f57600080fd5b813561389f848260208601613801565b91505092915050565b6000602082840312156138ba57600080fd5b60006138c88482850161383f565b91505092915050565b6000806000606084860312156138e657600080fd5b60006138f48682870161383f565b935050602061390586828701613869565b92505060406139168682870161383f565b9150509250925092565b6000806040838503121561393357600080fd5b60006139418582860161383f565b925050602083013567ffffffffffffffff81111561395e57600080fd5b61396a8582860161387e565b9150509250929050565b60006020828403121561398657600080fd5b600061399484828501613854565b91505092915050565b60006139a983836139cd565b60208301905092915050565b60006139c183836139eb565b60208301905092915050565b6139d68161422d565b82525050565b6139e58161422d565b82525050565b6139f48161422d565b82525050565b6000613a05826141b0565b613a0f81856141de565b9350613a1a8361418b565b8060005b83811015613a4b578151613a32888261399d565b9750613a3d836141d1565b925050600181019050613a1e565b5085935050505092915050565b6000613a63826141b0565b613a6d81856141ef565b9350613a788361418b565b8060005b83811015613aa9578151613a9088826139b5565b9750613a9b836141d1565b925050600181019050613a7c565b5085935050505092915050565b613abf8161423f565b82525050565b613ace8161423f565b82525050565b613add8161423f565b82525050565b613aec8161424b565b82525050565b6000613afd826141bb565b613b078185614200565b9350613b178185602086016142b3565b613b20816142e8565b840191505092915050565b613b3481614292565b82525050565b6000613b45826141c6565b613b4f8185614211565b9350613b5f8185602086016142b3565b613b68816142e8565b840191505092915050565b6000613b7e826141c6565b613b888185614222565b9350613b988185602086016142b3565b80840191505092915050565b600081546001811660008114613bc15760018114613be757613c2b565b607f6002830416613bd28187614211565b955060ff198316865260208601935050613c2b565b60028204613bf58187614211565b9550613c008561419b565b60005b82811015613c2257815481890152600182019150602081019050613c03565b80880195505050505b505092915050565b6000613c40600383614211565b91507f45433700000000000000000000000000000000000000000000000000000000006000830152602082019050919050565b6000613c80600483614211565b91507f45433139000000000000000000000000000000000000000000000000000000006000830152602082019050919050565b6000613cc0600383614211565b91507f45433500000000000000000000000000000000000000000000000000000000006000830152602082019050919050565b6000613d00600383614211565b91507f45433900000000000000000000000000000000000000000000000000000000006000830152602082019050919050565b6000613d40600383614211565b91507f45433100000000000000000000000000000000000000000000000000000000006000830152602082019050919050565b6000613d80600783614222565b91507f50726976617465000000000000000000000000000000000000000000000000006000830152600782019050919050565b6000613dc0600483614211565b91507f45433130000000000000000000000000000000000000000000000000000000006000830152602082019050919050565b6000613e00600383614211565b91507f45433600000000000000000000000000000000000000000000000000000000006000830152602082019050919050565b6000608083016000830151613e4b6000860182613ad4565b5060208301518482036020860152613e638282613af2565b91505060408301518482036040860152613e7d8282613a58565b91505060608301518482036060860152613e978282613a58565b9150508091505092915050565b613ead81614288565b82525050565b613ebc81614288565b82525050565b6000613ece8284613b73565b915081905092915050565b6000613ee482613d73565b9150819050919050565b60006020820190508181036000830152613f0881846139fa565b905092915050565b6000602082019050613f256000830184613ab6565b92915050565b6000604082019050613f406000830185613ac5565b8181036020830152613f528184613e33565b90509392505050565b6000604082019050613f706000830185613ae3565b613f7d60208301846139dc565b9392505050565b6000604082019050613f996000830185613b2b565b8181036020830152613fab8184613e33565b90509392505050565b60006020820190508181036000830152613fce8184613b3a565b905092915050565b60006040820190508181036000830152613ff08185613ba4565b9050613fff60208301846139dc565b9392505050565b6000602082019050818103600083015261401f81613c33565b9050919050565b6000602082019050818103600083015261403f81613c73565b9050919050565b6000602082019050818103600083015261405f81613cb3565b9050919050565b6000602082019050818103600083015261407f81613cf3565b9050919050565b6000602082019050818103600083015261409f81613d33565b9050919050565b600060208201905081810360008301526140bf81613db3565b9050919050565b600060208201905081810360008301526140df81613df3565b9050919050565b60006020820190506140fb6000830184613ea4565b92915050565b60006040820190506141166000830185613eb3565b6141236020830184613eb3565b9392505050565b6000604051905081810181811067ffffffffffffffff82111715614151576141506142e6565b5b8060405250919050565b600067ffffffffffffffff821115614176576141756142e6565b5b601f19601f8301169050602081019050919050565b6000819050602082019050919050565b60008190508160005260206000209050919050565b600081519050919050565b600081519050919050565b600081519050919050565b6000602082019050919050565b600082825260208201905092915050565b600082825260208201905092915050565b600082825260208201905092915050565b600082825260208201905092915050565b600081905092915050565b600061423882614268565b9050919050565b60008115159050919050565b6000819050919050565b6000819050614263826142f9565b919050565b600073ffffffffffffffffffffffffffffffffffffffff82169050919050565b6000819050919050565b600061429d82614255565b9050919050565b82818337600083830152505050565b60005b838110156142d15780820151818401526020810190506142b6565b838111156142e0576000848401525b50505050565bfe5b6000601f19601f8301169050919050565b6002811061430a576143096142e6565b5b50565b6143168161422d565b811461432157600080fd5b50565b61432d8161423f565b811461433857600080fd5b50565b6143448161424b565b811461434f57600080fd5b5056fea26469706673582212203e1c65f641c838d2315df66fb089cfbaa1dc5de6ff516d11e4b6bd54347d650c64736f6c63430007060033",
  "immutableReferences": {},
  "source": "// SPDX-License-Identifier: GPL-3.0\r\n\r\npragma solidity >=0.7.0 <0.9.0;\r\npragma experimental ABIEncoderV2;\r\n\r\n/**\r\n * @title Storage\r\n * @dev Store & retrieve value in a variable\r\n */\r\n import \"./Libraries/Library.sol\";\r\n import \"./Interfaces/IProvider.sol\";\r\n import \"./Abstract/MultiSigContract.sol\";\r\n import \"./PrivateCertificatesPool.sol\";\r\n import \"./PublicCertificatesPool.sol\";\r\n\r\n\r\n contract Provider is IProvider, MultiSigContract {\r\n    using Library for *;\r\n\r\n    uint256 constant TotalEntities = 2;\r\n\r\n    // Owners\r\n    uint256 constant _ownerIdProviders = 0;\r\n    string constant _ownerLabel = \"Owner\";\r\n\r\n    // Pools\r\n    uint256 constant _poolId = 1;\r\n    string constant _poolLabel = \"Pool\";\r\n\r\n    string[] _Label = [_ownerLabel, _poolLabel];\r\n    \r\n    struct _CertificateStruct{\r\n        mapping(bytes32 => Library._entityIdentity) _cert;\r\n    }\r\n    \r\n    struct _CertificatesPerHolderStruct{\r\n        mapping(address => _CertificateStruct) _CertificatesPerHolder;\r\n    }\r\n   \r\n    mapping(address => _CertificatesPerHolderStruct) _CertificatesPerPool;\r\n\r\n    // modifiers\r\n    modifier isAPool(address pool){\r\n        require(true == isPool(pool));\r\n        _;\r\n    }\r\n    \r\n    modifier isEntityActivated(bool YesOrNo, Library._entityIdentity memory Entity){\r\n        Library.EntityActivated(YesOrNo, Entity);\r\n        _;\r\n    }\r\n    \r\n    modifier HasNotAlreadyVoted(Library.Actions action, Library._entityIdentity memory Entity){\r\n        Library.NotAlreadyVoted(action, Entity);\r\n        _;\r\n    }\r\n\r\n     // Constructor\r\n    constructor(address[] memory owners,  uint256 minOwners) \r\n        MultiSigContract(owners, minOwners, TotalEntities, _Label, _ownerIdProviders)\r\n    payable\r\n    {}\r\n\r\n    // POOL CRUD Operations\r\n    function addPool(address pool, string memory poolInfo) external override{\r\n        addEntity(pool, bytes(poolInfo), _poolId);\r\n    }\r\n\r\n    function removePool(address pool) external override{\r\n       removeEntity(pool, _poolId); \r\n    }\r\n    \r\n    function retrievePool(address pool) external override view returns (string memory){\r\n        return InternalRetrievePool(pool);\r\n    }\r\n    \r\n    function InternalRetrievePool(address pool) internal view returns (string memory){\r\n        return string(retrieveEntity(pool, _poolId));\r\n    }\r\n\r\n    function retrieveAllPools() external override view returns (address[] memory){\r\n        return(retrieveAllEntities(_poolId));\r\n    }\r\n    \r\n    function retrieveTotalPools() external override view returns (uint){\r\n        return (retrieveTotalEntities(_poolId));\r\n    }\r\n\r\n    function isPool(address pool) public view returns (bool){\r\n        return(isEntity(pool, _poolId));\r\n    }\r\n    \r\n    // Certificates management\r\n     function addCertificate(address pool, bytes32 CertificateHash, address holder) external override\r\n     {\r\n        manipulateCertificate(pool, CertificateHash, holder, Library.Actions.Add);\r\n     }\r\n     \r\n     function removeCertificate(address pool, bytes32 CertificateHash, address holder) external override\r\n     {\r\n         manipulateCertificate(pool, CertificateHash, holder, Library.Actions.Remove);\r\n     }\r\n\r\n    \r\n    function manipulateCertificate(address pool, bytes32 CertificateHash, address holder, Library.Actions act) \r\n        isAPool(pool)\r\n        isAnOwner\r\n        isEntityActivated(act == Library.Actions.Remove,  _CertificatesPerPool[pool]._CertificatesPerHolder[holder]._cert[CertificateHash])\r\n        HasNotAlreadyVoted(Library.Actions.Add, _CertificatesPerPool[pool]._CertificatesPerHolder[holder]._cert[CertificateHash])\r\n    internal{\r\n        \r\n        uint validations;\r\n        \r\n        if(act == Library.Actions.Add){\r\n            _CertificatesPerPool[pool]._CertificatesPerHolder[holder]._cert[CertificateHash]._AddValidated.push(msg.sender);\r\n            validations = _CertificatesPerPool[pool]._CertificatesPerHolder[holder]._cert[CertificateHash]._AddValidated.length;\r\n        }\r\n        else{\r\n            _CertificatesPerPool[pool]._CertificatesPerHolder[holder]._cert[CertificateHash]._RemoveValidated.push(msg.sender);\r\n            validations = _CertificatesPerPool[pool]._CertificatesPerHolder[holder]._cert[CertificateHash]._RemoveValidated.length;\r\n        }\r\n\r\n        if(Library.CheckValidations(validations, _minOwners)){\r\n            MultiSigCertificatesPool poolToSend;\r\n            \r\n            if(keccak256(abi.encodePacked(\"Private\")) == keccak256(abi.encodePacked((InternalRetrievePool(pool))))){\r\n                poolToSend = PrivateCertificatesPool(pool);\r\n            }\r\n            else {\r\n                poolToSend = PublicCertificatesPool(pool);\r\n            }\r\n            \r\n            \r\n            if(act == Library.Actions.Add){\r\n                poolToSend.addCertificate(CertificateHash, holder);\r\n            }\r\n            else{\r\n               poolToSend.removeCertificate(CertificateHash, holder);\r\n            }\r\n            \r\n            delete(_CertificatesPerPool[pool]._CertificatesPerHolder[holder]._cert[CertificateHash]);\r\n            \r\n        }\r\n    }\r\n    \r\n }",
  "sourcePath": "C:/Users/d-aam/GitHub/Certificates/contracts/Provider.sol",
  "compiler": {
    "name": "solc",
    "version": "0.7.6+commit.7338295f.Emscripten.clang"
  },
  "schemaVersion": "3.3.4",
  "updatedAt": "2021-06-08T08:07:38.728Z",
  "devdoc": {
    "kind": "dev",
    "methods": {},
    "version": 1
  },
  "userdoc": {
    "kind": "user",
    "methods": {},
    "version": 1
  }
}