{
  "contractName": "Provider",
  "abi": [
    {
      "inputs": [
        {
          "internalType": "address[]",
          "name": "owners",
          "type": "address[]"
        },
        {
          "internalType": "uint256",
          "name": "minOwners",
          "type": "uint256"
        },
        {
          "internalType": "uint256",
          "name": "TotalEntities",
          "type": "uint256"
        },
        {
          "internalType": "string[]",
          "name": "labels",
          "type": "string[]"
        },
        {
          "internalType": "uint256",
          "name": "ownerId",
          "type": "uint256"
        }
      ],
      "name": "MultiSigContract_init",
      "outputs": [],
      "stateMutability": "nonpayable",
      "type": "function"
    },
    {
      "inputs": [
        {
          "internalType": "address",
          "name": "owner",
          "type": "address"
        },
        {
          "internalType": "string",
          "name": "ownerInfo",
          "type": "string"
        }
      ],
      "name": "addOwner",
      "outputs": [],
      "stateMutability": "nonpayable",
      "type": "function"
    },
    {
      "inputs": [
        {
          "internalType": "uint256",
          "name": "newMinOwners",
          "type": "uint256"
        }
      ],
      "name": "changeMinOwners",
      "outputs": [],
      "stateMutability": "nonpayable",
      "type": "function"
    },
    {
      "inputs": [],
      "name": "rejectMinOwners",
      "outputs": [],
      "stateMutability": "nonpayable",
      "type": "function"
    },
    {
      "inputs": [
        {
          "internalType": "address",
          "name": "owner",
          "type": "address"
        }
      ],
      "name": "rejectOwner",
      "outputs": [],
      "stateMutability": "nonpayable",
      "type": "function"
    },
    {
      "inputs": [
        {
          "internalType": "address",
          "name": "owner",
          "type": "address"
        }
      ],
      "name": "removeOwner",
      "outputs": [],
      "stateMutability": "nonpayable",
      "type": "function"
    },
    {
      "inputs": [],
      "name": "retrieveAllOwners",
      "outputs": [
        {
          "internalType": "bytes32[]",
          "name": "",
          "type": "bytes32[]"
        }
      ],
      "stateMutability": "view",
      "type": "function"
    },
    {
      "inputs": [],
      "name": "retrieveMinOwners",
      "outputs": [
        {
          "internalType": "uint256",
          "name": "",
          "type": "uint256"
        }
      ],
      "stateMutability": "view",
      "type": "function"
    },
    {
      "inputs": [
        {
          "internalType": "address",
          "name": "owner",
          "type": "address"
        }
      ],
      "name": "retrieveOwner",
      "outputs": [
        {
          "internalType": "string",
          "name": "",
          "type": "string"
        },
        {
          "internalType": "bool",
          "name": "",
          "type": "bool"
        }
      ],
      "stateMutability": "view",
      "type": "function"
    },
    {
      "inputs": [],
      "name": "retrievePendingMinOwners",
      "outputs": [
        {
          "internalType": "uint256",
          "name": "",
          "type": "uint256"
        }
      ],
      "stateMutability": "view",
      "type": "function"
    },
    {
      "inputs": [
        {
          "internalType": "bool",
          "name": "addedORremove",
          "type": "bool"
        }
      ],
      "name": "retrievePendingOwners",
      "outputs": [
        {
          "internalType": "bytes32[]",
          "name": "",
          "type": "bytes32[]"
        },
        {
          "internalType": "string[]",
          "name": "",
          "type": "string[]"
        }
      ],
      "stateMutability": "view",
      "type": "function"
    },
    {
      "inputs": [],
      "name": "validateMinOwners",
      "outputs": [],
      "stateMutability": "nonpayable",
      "type": "function"
    },
    {
      "inputs": [
        {
          "internalType": "address",
          "name": "owner",
          "type": "address"
        }
      ],
      "name": "validateOwner",
      "outputs": [],
      "stateMutability": "nonpayable",
      "type": "function"
    },
    {
      "stateMutability": "payable",
      "type": "receive"
    },
    {
      "inputs": [
        {
          "internalType": "address[]",
          "name": "owners",
          "type": "address[]"
        },
        {
          "internalType": "uint256",
          "name": "minOwners",
          "type": "uint256"
        },
        {
          "internalType": "string",
          "name": "ProviderInfo",
          "type": "string"
        }
      ],
      "name": "Provider_init",
      "outputs": [],
      "stateMutability": "nonpayable",
      "type": "function"
    },
    {
      "inputs": [
        {
          "internalType": "address",
          "name": "pool",
          "type": "address"
        },
        {
          "internalType": "string",
          "name": "poolInfo",
          "type": "string"
        },
        {
          "internalType": "uint256",
          "name": "AddCertificatePrice",
          "type": "uint256"
        },
        {
          "internalType": "uint256",
          "name": "SubscriptionPrice",
          "type": "uint256"
        }
      ],
      "name": "addPool",
      "outputs": [],
      "stateMutability": "nonpayable",
      "type": "function"
    },
    {
      "inputs": [
        {
          "internalType": "address",
          "name": "pool",
          "type": "address"
        }
      ],
      "name": "removePool",
      "outputs": [],
      "stateMutability": "nonpayable",
      "type": "function"
    },
    {
      "inputs": [
        {
          "internalType": "address",
          "name": "pool",
          "type": "address"
        }
      ],
      "name": "validatePool",
      "outputs": [],
      "stateMutability": "nonpayable",
      "type": "function"
    },
    {
      "inputs": [
        {
          "internalType": "address",
          "name": "pool",
          "type": "address"
        }
      ],
      "name": "rejectPool",
      "outputs": [],
      "stateMutability": "nonpayable",
      "type": "function"
    },
    {
      "inputs": [
        {
          "internalType": "address",
          "name": "pool",
          "type": "address"
        }
      ],
      "name": "retrievePool",
      "outputs": [
        {
          "internalType": "string",
          "name": "",
          "type": "string"
        },
        {
          "internalType": "bool",
          "name": "",
          "type": "bool"
        },
        {
          "internalType": "uint256",
          "name": "",
          "type": "uint256"
        },
        {
          "internalType": "uint256",
          "name": "",
          "type": "uint256"
        }
      ],
      "stateMutability": "view",
      "type": "function"
    },
    {
      "inputs": [],
      "name": "retrieveAllPools",
      "outputs": [
        {
          "internalType": "bytes32[]",
          "name": "",
          "type": "bytes32[]"
        }
      ],
      "stateMutability": "view",
      "type": "function"
    },
    {
      "inputs": [
        {
          "internalType": "bool",
          "name": "addedORremove",
          "type": "bool"
        }
      ],
      "name": "retrievePendingPools",
      "outputs": [
        {
          "internalType": "bytes32[]",
          "name": "",
          "type": "bytes32[]"
        },
        {
          "internalType": "string[]",
          "name": "",
          "type": "string[]"
        }
      ],
      "stateMutability": "view",
      "type": "function"
    },
    {
      "inputs": [
        {
          "internalType": "address",
          "name": "pool",
          "type": "address"
        },
        {
          "internalType": "bytes32",
          "name": "CertificateHash",
          "type": "bytes32"
        },
        {
          "internalType": "address",
          "name": "holder",
          "type": "address"
        }
      ],
      "name": "addCertificate",
      "outputs": [],
      "stateMutability": "nonpayable",
      "type": "function"
    },
    {
      "inputs": [
        {
          "internalType": "address",
          "name": "pool",
          "type": "address"
        },
        {
          "internalType": "bytes32",
          "name": "CertificateHash",
          "type": "bytes32"
        },
        {
          "internalType": "address",
          "name": "holder",
          "type": "address"
        }
      ],
      "name": "validateCertificate",
      "outputs": [],
      "stateMutability": "nonpayable",
      "type": "function"
    },
    {
      "inputs": [
        {
          "internalType": "address",
          "name": "pool",
          "type": "address"
        },
        {
          "internalType": "bytes32",
          "name": "CertificateHash",
          "type": "bytes32"
        },
        {
          "internalType": "address",
          "name": "holder",
          "type": "address"
        }
      ],
      "name": "rejectCertificate",
      "outputs": [],
      "stateMutability": "nonpayable",
      "type": "function"
    },
    {
      "inputs": [
        {
          "internalType": "address",
          "name": "pool",
          "type": "address"
        },
        {
          "internalType": "bytes32",
          "name": "CertificateHash",
          "type": "bytes32"
        },
        {
          "internalType": "address",
          "name": "holder",
          "type": "address"
        }
      ],
      "name": "isCertificate",
      "outputs": [
        {
          "internalType": "bool",
          "name": "",
          "type": "bool"
        }
      ],
      "stateMutability": "view",
      "type": "function"
    },
    {
      "inputs": [
        {
          "internalType": "bytes32",
          "name": "item",
          "type": "bytes32"
        },
        {
          "internalType": "uint256[]",
          "name": "ids",
          "type": "uint256[]"
        },
        {
          "internalType": "bool",
          "name": "addOrRemove",
          "type": "bool"
        }
      ],
      "name": "onItemValidated",
      "outputs": [],
      "stateMutability": "nonpayable",
      "type": "function"
    },
    {
      "inputs": [
        {
          "internalType": "bytes32",
          "name": "item",
          "type": "bytes32"
        },
        {
          "internalType": "uint256[]",
          "name": "ids",
          "type": "uint256[]"
        },
        {
          "internalType": "bool",
          "name": "addOrRemove",
          "type": "bool"
        }
      ],
      "name": "onItemRejected",
      "outputs": [],
      "stateMutability": "nonpayable",
      "type": "function"
    }
  ],
  "bytecode": "0x608060405234801561001057600080fd5b50614934806100206000396000f3fe6080604052600436106101405760003560e01c8063017cb3db1461014c57806314a2ed2f1461016e578063173825d91461018e5780632d99aaf2146101ae5780632edbe7fc146101d957806330ade922146101f85780633542758f1461020d5780633b7d09461461022d5780633fd071811461024d57806365b973e51461026d5780636b2996041461028257806376f8f90f146102b057806377bc5a1f146102d05780637c8c2add146102fe5780638fc2d8ea1461031e578063a44bff2b1461034e578063a706752c1461036e578063a93d5ed61461039e578063b683e37b146103b3578063bd9f3705146103d3578063c3079ae7146103f3578063c66433ea14610408578063ce33d58a14610428578063cf2041d914610448578063d920928914610468578063f804938214610488578063fb1f6917146104a857600080fd5b3661014757005b600080fd5b34801561015857600080fd5b5061016c610167366004613df0565b6104c8565b005b34801561017a57600080fd5b5061016c610189366004613df0565b610764565b34801561019a57600080fd5b5061016c6101a9366004613db6565b610938565b3480156101ba57600080fd5b506101c3610984565b6040516101d0919061445b565b60405180910390f35b3480156101e557600080fd5b506005545b6040519081526020016101d0565b34801561020457600080fd5b5061016c610995565b34801561021957600080fd5b5061016c610228366004613e32565b610a97565b34801561023957600080fd5b5061016c610248366004613db6565b610aa5565b34801561025957600080fd5b5061016c6102683660046141ac565b610ab0565b34801561027957600080fd5b506001546101ea565b34801561028e57600080fd5b506102a261029d366004614159565b610b82565b6040516101d092919061446e565b3480156102bc57600080fd5b5061016c6102cb366004613db6565b610b9a565b3480156102dc57600080fd5b506102f06102eb366004613db6565b610bf5565b6040516101d0929190614505565b34801561030a57600080fd5b5061016c6103193660046141ac565b610c05565b34801561032a57600080fd5b5061033e610339366004613db6565b610eb7565b6040516101d09493929190614529565b34801561035a57600080fd5b5061016c610369366004613eec565b610f01565b34801561037a57600080fd5b5061038e610389366004613df0565b611141565b60405190151581526020016101d0565b3480156103aa57600080fd5b506101c3611158565b3480156103bf57600080fd5b5061016c6103ce366004613e86565b611165565b3480156103df57600080fd5b5061016c6103ee366004613df0565b6111d3565b3480156103ff57600080fd5b5061016c611425565b34801561041457600080fd5b5061016c61042336600461428e565b611524565b34801561043457600080fd5b5061016c610443366004613db6565b611610565b34801561045457600080fd5b5061016c610463366004613f58565b61161c565b34801561047457600080fd5b5061016c610483366004613db6565b6118c8565b34801561049457600080fd5b506102a26104a3366004614159565b6118d3565b3480156104b457600080fd5b5061016c6104c3366004613db6565b6118e1565b826104d2816118ec565b15156001146104e057600080fd5b6104ec336000546118ff565b15156001146105165760405162461bcd60e51b815260040161050d90614659565b60405180910390fd5b6001838584610526828483611af0565b151560011480610542575061053c828483611b9e565b15156001145b61055e5760405162461bcd60e51b815260040161050d906145cf565b6001600160a01b038089166000908152600d60209081526040808320938a1683529290528190209051633db691ef60e11b815288918a91899173__ItemsLibrary__________________________91637b6d23de916105c39133918891600401614381565b60206040518083038186803b1580156105db57600080fd5b505af41580156105ef573d6000803e3d6000fd5b505050506040513d601f19601f820116820180604052508101906106139190614176565b156106305760405162461bcd60e51b815260040161050d906145b2565b6001600160a01b038b166000908152600d60205260408120906106538d8c611bfe565b905060006040518060c001604052808e815260200160405180602001604052806000815250815260200160015481526020016040518060400160405280600b81526020016a436572746966696361746560a81b815250815260200183815260200160001515815250905060008360000160008e6001600160a01b03166001600160a01b03168152602001908152602001600020905073__ItemsLibrary__________________________635cb09bcf8383306040518463ffffffff1660e01b8152600401610723939291906146b0565b60006040518083038186803b15801561073b57600080fd5b505af415801561074f573d6000803e3d6000fd5b50505050505050505050505050505050505050565b8261076e816118ec565b151560011461077c57600080fd5b610788336000546118ff565b15156001146107a95760405162461bcd60e51b815260040161050d90614659565b60008385846107b9828483611d95565b156107d65760405162461bcd60e51b815260040161050d90614693565b60008789886107e6828483611af0565b156108035760405162461bcd60e51b815260040161050d90614594565b6001600160a01b038c166000908152600d60205260408120906108268e8d611bfe565b905060006040518060c001604052808f815260200160405180602001604052806000815250815260200160015481526020016040518060400160405280600b81526020016a436572746966696361746560a81b815250815260200183815260200160001515815250905060008360000160008f6001600160a01b03166001600160a01b03168152602001908152602001600020905073__ItemsLibrary__________________________630b985aaa8383306040518463ffffffff1660e01b81526004016108f6939291906146b0565b60006040518083038186803b15801561090e57600080fd5b505af4158015610922573d6000803e3d6000fd5b5050505050505050505050505050505050505050565b6001546001610948600054611e44565b516109539190614800565b808211156109735760405162461bcd60e51b815260040161050d90614558565b61097f83600054611fab565b505050565b60606109906001611e44565b905090565b6109a1336000546118ff565b15156001146109c25760405162461bcd60e51b815260040161050d90614659565b60016005546109e35760405162461bcd60e51b815260040161050d90614576565b60405163f7cf62d760e01b815273__AddressLibrary________________________9063f7cf62d790610a1d903390600890600401614322565b60206040518083038186803b158015610a3557600080fd5b505af4158015610a49573d6000803e3d6000fd5b505050506040513d601f19601f82011682018060405250810190610a6d9190614176565b15610a8a5760405162461bcd60e51b815260040161050d906145b2565b610a946001612352565b50565b61097f8383836000546123d9565b610a94816001611fab565b610abc84848484612750565b600183836000818110610ad157610ad16148af565b905060200201351415610b7c57604051631e99d35d60e31b81526004810185905260009073__AddressLibrary________________________9063f4ce9ae89060240160206040518083038186803b158015610b2c57600080fd5b505af4158015610b40573d6000803e3d6000fd5b505050506040513d601f19601f82011682018060405250810190610b649190613dd3565b905060018215151415610b7a57610b7a81612810565b505b50505050565b606080610b9183600054612846565b91509150915091565b610ba6816000546129c5565b151560011415610be9576001610bbd600054611e44565b51610bc89190614800565b6001541115610be95760405162461bcd60e51b815260040161050d90614558565b610a9481600054612b31565b60606000610b9183600054612fc2565b610c1184848484612750565b600183836000818110610c2657610c266148af565b905060200201351415610d4857604051631e99d35d60e31b81526004810185905260009073__AddressLibrary________________________9063f4ce9ae89060240160206040518083038186803b158015610c8157600080fd5b505af4158015610c95573d6000803e3d6000fd5b505050506040513d601f19601f82011682018060405250810190610cb99190613dd3565b905081610cce57610cc981612810565b610d42565b6001600160a01b0381166000818152600a60205260409081902054905162fc000560e81b815283929163fc00050091610d0e903090600e906004016143a2565b6000604051808303818588803b158015610d2757600080fd5b505af1158015610d3b573d6000803e3d6000fd5b5050505050505b50610b7c565b600283836000818110610d5d57610d5d6148af565b905060200201351415610b7c57610b7c73__AddressLibrary________________________63b1e2771485856001818110610d9a57610d9a6148af565b905060200201356040518263ffffffff1660e01b8152600401610dbf91815260200190565b60206040518083038186803b158015610dd757600080fd5b505af4158015610deb573d6000803e3d6000fd5b505050506040513d601f19601f82011682018060405250810190610e0f9190613dd3565b8573__AddressLibrary________________________63b1e2771487876002818110610e3d57610e3d6148af565b905060200201356040518263ffffffff1660e01b8152600401610e6291815260200190565b60206040518083038186803b158015610e7a57600080fd5b505af4158015610e8e573d6000803e3d6000fd5b505050506040513d601f19601f82011682018060405250810190610eb29190613dd3565b6131bf565b6060600080600060606000610ecb87613336565b6001600160a01b0398909816600090815260096020908152604080832054600a9092529091205491999097509095509350505050565b600454610100900460ff1680610f1a575060045460ff16155b610f365760405162461bcd60e51b815260040161050d906145ed565b600454610100900460ff16158015610f58576004805461ffff19166101011790555b6040805160028082526060820190925290816020015b6060815260200190600190039081610f6e5750508051610f9691600c91602090910190613a96565b506040518060400160405280600581526020016427bbb732b960d91b815250600c600081548110610fc957610fc96148af565b906000526020600020019080519060200190610fe6929190613af3565b5060405180604001604052806004815260200163141bdbdb60e21b815250600c600181548110611018576110186148af565b906000526020600020019080519060200190611035929190613af3565b5061111684846002600c805480602002602001604051908101604052809291908181526020016000905b8282101561110b57838290600052602060002001805461107e90614843565b80601f01602080910402602001604051908101604052809291908181526020018280546110aa90614843565b80156110f75780601f106110cc576101008083540402835291602001916110f7565b820191906000526020600020905b8154815290600101906020018083116110da57829003601f168201915b50505050508152602001906001019061105f565b50505050600061161c565b815161112990600e906020850190613af3565b508015610b7c576004805461ff001916905550505050565b600061114e848484611d95565b90505b9392505050565b6060610990600054611e44565b61117285858560016123d9565b6001600160a01b0385166000908152600b602052604090205460ff16610b7a576001600160a01b0385166000908152600960209081526040808320859055600a8252808320849055600b9091529020805460ff191660011790555050505050565b826111dd816118ec565b15156001146111eb57600080fd5b6111f7336000546118ff565b15156001146112185760405162461bcd60e51b815260040161050d90614659565b6001838584611228828483611af0565b151560011480611244575061123e828483611b9e565b15156001145b6112605760405162461bcd60e51b815260040161050d906145cf565b6001600160a01b038089166000908152600d60209081526040808320938a1683529290528190209051633db691ef60e11b815288918a91899173__ItemsLibrary__________________________91637b6d23de916112c59133918891600401614381565b60206040518083038186803b1580156112dd57600080fd5b505af41580156112f1573d6000803e3d6000fd5b505050506040513d601f19601f820116820180604052508101906113159190614176565b156113325760405162461bcd60e51b815260040161050d906145b2565b6001600160a01b038b166000908152600d60205260408120906113558d8c611bfe565b905060006040518060c001604052808e815260200160405180602001604052806000815250815260200160015481526020016040518060400160405280600b81526020016a436572746966696361746560a81b815250815260200183815260200160001515815250905060008360000160008e6001600160a01b03166001600160a01b03168152602001908152602001600020905073__ItemsLibrary__________________________637493a70b8383306040518463ffffffff1660e01b8152600401610723939291906146b0565b611431336000546118ff565b15156001146114525760405162461bcd60e51b815260040161050d90614659565b60016005546114735760405162461bcd60e51b815260040161050d90614576565b60405163f7cf62d760e01b815273__AddressLibrary________________________9063f7cf62d7906114ad903390600890600401614322565b60206040518083038186803b1580156114c557600080fd5b505af41580156114d9573d6000803e3d6000fd5b505050506040513d601f19601f820116820180604052508101906114fd9190614176565b1561151a5760405162461bcd60e51b815260040161050d906145b2565b610a946000612352565b611530336000546118ff565b15156001146115515760405162461bcd60e51b815260040161050d90614659565b60006005541561158c5760405162461bcd60e51b815260040161050d906020808252600490820152630454333360e41b604082015260600190565b816002600054815481106115a2576115a26148af565b906000526020600020906004020160010180549050808211156115d75760405162461bcd60e51b815260040161050d90614558565b6000848181116115f95760405162461bcd60e51b815260040161050d9061463b565b60058690556116086001612352565b505050505050565b610a9481600054613345565b600454610100900460ff1680611635575060045460ff16155b6116515760405162461bcd60e51b815260040161050d906145ed565b600454610100900460ff16158015611673576004805461ffff19166101011790555b848651808211156116965760405162461bcd60e51b815260040161050d90614558565b6000878181116116b85760405162461bcd60e51b815260040161050d9061463b565b865188146116f15760405162461bcd60e51b815260040161050d9060208082526004908201526308a8662760e31b604082015260600190565b60008681555b88811015611767576002805460010181556000528751600390899083908110611722576117226148af565b602090810291909101810151825460018101845560009384529282902081516117549491909101929190910190613af3565b508061175f8161487e565b9150506116f7565b50600189905560005b8a518110156118aa57600073__AddressLibrary________________________63bc215e858d84815181106117a7576117a76148af565b60200260200101516040518263ffffffff1660e01b81526004016117cb919061430e565b60206040518083038186803b1580156117e357600080fd5b505af41580156117f7573d6000803e3d6000fd5b505050506040513d601f19601f8201168201806040525081019061181b9190614193565b90506001600260005481548110611834576118346148af565b60009182526020808320858452600492909202909101905260408120805460ff19169215159290921790915554600280549091908110611876576118766148af565b60009182526020808320600160049093020182018054928301815583529091200155806118a28161487e565b915050611770565b50505050508015611608576004805461ff0019169055505050505050565b610a94816001612b31565b606080610b91836001612846565b610a94816001613345565b60006118f98260016118ff565b92915050565b60025460405163123bd07560e11b8152600091839173__Library_______________________________90632477a0ea9061194090859085906004016144f7565b60206040518083038186803b15801561195857600080fd5b505af415801561196c573d6000803e3d6000fd5b505050506040513d601f19601f820116820180604052508101906119909190614176565b15156001146119b15760405162461bcd60e51b815260040161050d90614676565b60405163bc215e8560e01b815260009073__AddressLibrary________________________9063bc215e85906119eb90899060040161430e565b60206040518083038186803b158015611a0357600080fd5b505af4158015611a17573d6000803e3d6000fd5b505050506040513d601f19601f82011682018060405250810190611a3b9190614193565b905073__ItemsLibrary__________________________63dbdfbeec8260028881548110611a6b57611a6b6148af565b90600052602060002090600402016040518363ffffffff1660e01b8152600401611a969291906144f7565b60206040518083038186803b158015611aae57600080fd5b505af4158015611ac2573d6000803e3d6000fd5b505050506040513d601f19601f82011682018060405250810190611ae69190614176565b9695505050505050565b6001600160a01b038084166000908152600d602090815260408083209385168352929052818120915162136bb360e11b8152909173__ItemsLibrary__________________________916226d76691611b4e918791906004016144f7565b60206040518083038186803b158015611b6657600080fd5b505af4158015611b7a573d6000803e3d6000fd5b505050506040513d601f19601f8201168201806040525081019061114e9190614176565b6001600160a01b038084166000908152600d602090815260408083209385168352929052818120915163142a769760e11b8152909173__ItemsLibrary__________________________91632854ed2e91611b4e918791906004016144f7565b6040805160038082526080820190925260609160009190602082018480368337019050509050600281600081518110611c3957611c396148af565b602090810291909101015260405163cf0668ed60e01b815273__AddressLibrary________________________9063cf0668ed90611c7b90879060040161430e565b60206040518083038186803b158015611c9357600080fd5b505af4158015611ca7573d6000803e3d6000fd5b505050506040513d601f19601f82011682018060405250810190611ccb9190614193565b81600181518110611cde57611cde6148af565b602090810291909101015260405163cf0668ed60e01b815273__AddressLibrary________________________9063cf0668ed90611d2090869060040161430e565b60206040518083038186803b158015611d3857600080fd5b505af4158015611d4c573d6000803e3d6000fd5b505050506040513d601f19601f82011682018060405250810190611d709190614193565b81600281518110611d8357611d836148af565b60209081029190910101529392505050565b60405163685256ff60e11b8152600090849082906001600160a01b0383169063d0a4adfe90611dca90889088906004016144e0565b60206040518083038186803b158015611de257600080fd5b505afa158015611df6573d6000803e3d6000fd5b505050506040513d601f19601f82011682018060405250810190611e1a9190613dd3565b90506001600160a01b038116301415611e3857600192505050611151565b50600095945050505050565b60025460405163123bd07560e11b8152606091839173__Library_______________________________90632477a0ea90611e8590859085906004016144f7565b60206040518083038186803b158015611e9d57600080fd5b505af4158015611eb1573d6000803e3d6000fd5b505050506040513d601f19601f82011682018060405250810190611ed59190614176565b1515600114611ef65760405162461bcd60e51b815260040161050d90614676565b73__ItemsLibrary__________________________6327724f4b60028681548110611f2357611f236148af565b90600052602060002090600402016040518263ffffffff1660e01b8152600401611f4f91815260200190565b60006040518083038186803b158015611f6757600080fd5b505af4158015611f7b573d6000803e3d6000fd5b505050506040513d6000823e601f3d908101601f19168201604052611fa3919081019061404b565b949350505050565b60025460405163123bd07560e11b815282919073__Library_______________________________90632477a0ea90611fea90859085906004016144f7565b60206040518083038186803b15801561200257600080fd5b505af4158015612016573d6000803e3d6000fd5b505050506040513d601f19601f8201168201806040525081019061203a9190614176565b151560011461205b5760405162461bcd60e51b815260040161050d90614676565b612067336000546118ff565b15156001146120885760405162461bcd60e51b815260040161050d90614659565b6001848461209682826118ff565b15156001146120cd5760405162461bcd60e51b815260206004820152600360248201526245433760e81b604482015260640161050d565b600087876120db82826129c5565b156120f85760405162461bcd60e51b815260040161050d90614594565b60405163bc215e8560e01b815260009073__AddressLibrary________________________9063bc215e8590612132908e9060040161430e565b60206040518083038186803b15801561214a57600080fd5b505af415801561215e573d6000803e3d6000fd5b505050506040513d601f19601f820116820180604052508101906121829190614193565b60408051600180825281830190925291925060009190602080830190803683370190505090508a816000815181106121bc576121bc6148af565b60200260200101818152505060006040518060c00160405280848152602001604051806020016040528060008152508152602001600154815260200160038e8154811061220b5761220b6148af565b90600052602060002001805461222090614843565b80601f016020809104026020016040519081016040528092919081815260200182805461224c90614843565b80156122995780601f1061226e57610100808354040283529160200191612299565b820191906000526020600020905b81548152906001019060200180831161227c57829003601f168201915b50505050508152602001838152602001600115158152509050600060028d815481106122c7576122c76148af565b9060005260206000209060040201905073__ItemsLibrary__________________________63e23fcdef8383306040518463ffffffff1660e01b8152600401612312939291906146b0565b60006040518083038186803b15801561232a57600080fd5b505af415801561233e573d6000803e3d6000fd5b505050505050505050505050505050505050565b80156123765760016006600082825461236b91906147e8565b9091555061238f9050565b60016007600082825461238991906147e8565b90915550505b600880546001810182556000919091527ff3f7a9fe364faab93b216da50a3214154f22a0a2b415b23a84c8169e8b636ee30180546001600160a01b03191633179055610a946137d6565b60025460405163123bd07560e11b815282919073__Library_______________________________90632477a0ea9061241890859085906004016144f7565b60206040518083038186803b15801561243057600080fd5b505af4158015612444573d6000803e3d6000fd5b505050506040513d601f19601f820116820180604052508101906124689190614176565b15156001146124895760405162461bcd60e51b815260040161050d90614676565b612495336000546118ff565b15156001146124b65760405162461bcd60e51b815260040161050d90614659565b600086846124c482826118ff565b156124e15760405162461bcd60e51b815260040161050d90614693565b600089876124ef828261390e565b1561250c5760405162461bcd60e51b815260040161050d90614594565b600073__AddressLibrary________________________63bc215e858e6040518263ffffffff1660e01b8152600401612545919061430e565b60206040518083038186803b15801561255d57600080fd5b505af4158015612571573d6000803e3d6000fd5b505050506040513d601f19601f820116820180604052508101906125959190614193565b60408051600180825281830190925291925060009190602080830190803683370190505090508a816000815181106125cf576125cf6148af565b60200260200101818152505060006040518060c001604052808481526020018f8f8080601f0160208091040260200160405190810160405280939291908181526020018383808284376000920191909152505050908252506001546020820152600380546040909201918f908110612649576126496148af565b90600052602060002001805461265e90614843565b80601f016020809104026020016040519081016040528092919081815260200182805461268a90614843565b80156126d75780601f106126ac576101008083540402835291602001916126d7565b820191906000526020600020905b8154815290600101906020018083116126ba57829003601f168201915b50505050508152602001838152602001600115158152509050600060028d81548110612705576127056148af565b9060005260206000209060040201905073__ItemsLibrary__________________________630b985aaa8383306040518463ffffffff1660e01b81526004016108f6939291906146b0565b604051630d1d719d60e41b8152309073__Library_______________________________9063d1d719d09061278990849060040161430e565b60206040518083038186803b1580156127a157600080fd5b505af41580156127b5573d6000803e3d6000fd5b505050506040513d601f19601f820116820180604052508101906127d99190614176565b1515600114610b7a5760405162461bcd60e51b815260206004820152600360248201526208a86760eb1b604482015260640161050d565b6001600160a01b03166000908152600b60209081526040808320805460ff1916905560098252808320839055600a909152812055565b60025460405163123bd07560e11b8152606091829184919073__Library_______________________________90632477a0ea9061288a90859085906004016144f7565b60206040518083038186803b1580156128a257600080fd5b505af41580156128b6573d6000803e3d6000fd5b505050506040513d601f19601f820116820180604052508101906128da9190614176565b15156001146128fb5760405162461bcd60e51b815260040161050d90614676565b60608073__ItemsLibrary__________________________63e035e0068960028a8154811061292c5761292c6148af565b90600052602060002090600402016040518363ffffffff1660e01b81526004016129629291909115158252602082015260400190565b60006040518083038186803b15801561297a57600080fd5b505af415801561298e573d6000803e3d6000fd5b505050506040513d6000823e601f3d908101601f191682016040526129b6919081019061407f565b90999098509650505050505050565b60025460405163123bd07560e11b8152600091839173__Library_______________________________90632477a0ea90612a0690859085906004016144f7565b60206040518083038186803b158015612a1e57600080fd5b505af4158015612a32573d6000803e3d6000fd5b505050506040513d601f19601f82011682018060405250810190612a569190614176565b1515600114612a775760405162461bcd60e51b815260040161050d90614676565b60405163bc215e8560e01b815260009073__AddressLibrary________________________9063bc215e8590612ab190899060040161430e565b60206040518083038186803b158015612ac957600080fd5b505af4158015612add573d6000803e3d6000fd5b505050506040513d601f19601f82011682018060405250810190612b019190614193565b905073__ItemsLibrary__________________________632854ed2e8260028881548110611a6b57611a6b6148af565b60025460405163123bd07560e11b815282919073__Library_______________________________90632477a0ea90612b7090859085906004016144f7565b60206040518083038186803b158015612b8857600080fd5b505af4158015612b9c573d6000803e3d6000fd5b505050506040513d601f19601f82011682018060405250810190612bc09190614176565b1515600114612be15760405162461bcd60e51b815260040161050d90614676565b612bed336000546118ff565b1515600114612c0e5760405162461bcd60e51b815260040161050d90614659565b60018484612c1c828261390e565b151560011480612c375750612c3182826129c5565b15156001145b612c535760405162461bcd60e51b815260040161050d906145cf565b8686600073__AddressLibrary________________________63bc215e85846040518263ffffffff1660e01b8152600401612c8e919061430e565b60206040518083038186803b158015612ca657600080fd5b505af4158015612cba573d6000803e3d6000fd5b505050506040513d601f19601f82011682018060405250810190612cde9190614193565b905073__ItemsLibrary__________________________637b6d23de338360028681548110612d0f57612d0f6148af565b90600052602060002090600402016040518463ffffffff1660e01b8152600401612d3b93929190614381565b60206040518083038186803b158015612d5357600080fd5b505af4158015612d67573d6000803e3d6000fd5b505050506040513d601f19601f82011682018060405250810190612d8b9190614176565b15612da85760405162461bcd60e51b815260040161050d906145b2565b60405163bc215e8560e01b815260009073__AddressLibrary________________________9063bc215e8590612de2908e9060040161430e565b60206040518083038186803b158015612dfa57600080fd5b505af4158015612e0e573d6000803e3d6000fd5b505050506040513d601f19601f82011682018060405250810190612e329190614193565b60408051600180825281830190925291925060009190602080830190803683370190505090508a81600081518110612e6c57612e6c6148af565b60200260200101818152505060006040518060c00160405280848152602001604051806020016040528060008152508152602001600154815260200160038e81548110612ebb57612ebb6148af565b906000526020600020018054612ed090614843565b80601f0160208091040260200160405190810160405280929190818152602001828054612efc90614843565b8015612f495780601f10612f1e57610100808354040283529160200191612f49565b820191906000526020600020905b815481529060010190602001808311612f2c57829003601f168201915b50505050508152602001838152602001600115158152509050600060028d81548110612f7757612f776148af565b9060005260206000209060040201905073__ItemsLibrary__________________________637493a70b8383306040518463ffffffff1660e01b8152600401612312939291906146b0565b60025460405163123bd07560e11b815260609160009184919073__Library_______________________________90632477a0ea9061300790859085906004016144f7565b60206040518083038186803b15801561301f57600080fd5b505af4158015613033573d6000803e3d6000fd5b505050506040513d601f19601f820116820180604052508101906130579190614176565b15156001146130785760405162461bcd60e51b815260040161050d90614676565b60405163bc215e8560e01b815260009073__AddressLibrary________________________9063bc215e85906130b2908a9060040161430e565b60206040518083038186803b1580156130ca57600080fd5b505af41580156130de573d6000803e3d6000fd5b505050506040513d601f19601f820116820180604052508101906131029190614193565b905073__ItemsLibrary__________________________631aeccc6a8260028981548110613132576131326148af565b90600052602060002090600402016040518363ffffffff1660e01b815260040161315d9291906144f7565b60006040518083038186803b15801561317557600080fd5b505af4158015613189573d6000803e3d6000fd5b505050506040513d6000823e601f3d908101601f191682016040526131b1919081019061423d565b945094505050509250929050565b826131c9816118ec565b15156001146131d757600080fd5b6001600160a01b0384166000818152600960205260409081902054905163035700ff60e31b8152869291631ab807f89161321790889088906004016144e0565b6000604051808303818588803b15801561323057600080fd5b505af1158015613244573d6000803e3d6000fd5b5050506001600160a01b038088166000908152600d602090815260408083209389168352929052819020905163207c442760e01b815290925073__ItemsLibrary__________________________915063207c4427906132aa90889085906004016144f7565b60006040518083038186803b1580156132c257600080fd5b505af41580156132d6573d6000803e3d6000fd5b5050506000868152602083905260408120805460ff1916815591506132fe6001830182613b73565b6002820160009055600382016000905560048201600061331e9190613bad565b61332c600583016000613bad565b5050505050505050565b60606000610b91836001612fc2565b60025460405163123bd07560e11b815282919073__Library_______________________________90632477a0ea9061338490859085906004016144f7565b60206040518083038186803b15801561339c57600080fd5b505af41580156133b0573d6000803e3d6000fd5b505050506040513d601f19601f820116820180604052508101906133d49190614176565b15156001146133f55760405162461bcd60e51b815260040161050d90614676565b613401336000546118ff565b15156001146134225760405162461bcd60e51b815260040161050d90614659565b60018484613430828261390e565b15156001148061344b575061344582826129c5565b15156001145b6134675760405162461bcd60e51b815260040161050d906145cf565b8686600073__AddressLibrary________________________63bc215e85846040518263ffffffff1660e01b81526004016134a2919061430e565b60206040518083038186803b1580156134ba57600080fd5b505af41580156134ce573d6000803e3d6000fd5b505050506040513d601f19601f820116820180604052508101906134f29190614193565b905073__ItemsLibrary__________________________637b6d23de338360028681548110613523576135236148af565b90600052602060002090600402016040518463ffffffff1660e01b815260040161354f93929190614381565b60206040518083038186803b15801561356757600080fd5b505af415801561357b573d6000803e3d6000fd5b505050506040513d601f19601f8201168201806040525081019061359f9190614176565b156135bc5760405162461bcd60e51b815260040161050d906145b2565b60405163bc215e8560e01b815260009073__AddressLibrary________________________9063bc215e85906135f6908e9060040161430e565b60206040518083038186803b15801561360e57600080fd5b505af4158015613622573d6000803e3d6000fd5b505050506040513d601f19601f820116820180604052508101906136469190614193565b60408051600180825281830190925291925060009190602080830190803683370190505090508a81600081518110613680576136806148af565b60200260200101818152505060006040518060c00160405280848152602001604051806020016040528060008152508152602001600154815260200160038e815481106136cf576136cf6148af565b9060005260206000200180546136e490614843565b80601f016020809104026020016040519081016040528092919081815260200182805461371090614843565b801561375d5780601f106137325761010080835404028352916020019161375d565b820191906000526020600020905b81548152906001019060200180831161374057829003601f168201915b50505050508152602001838152602001600115158152509050600060028d8154811061378b5761378b6148af565b9060005260206000209060040201905073__ItemsLibrary__________________________635cb09bcf8383306040518463ffffffff1660e01b8152600401612312939291906146b0565b60065460015460405163f6001d7d60e01b815273__ItemsLibrary__________________________9263f6001d7d92613811926004016144f7565b60206040518083038186803b15801561382957600080fd5b505af415801561383d573d6000803e3d6000fd5b505050506040513d601f19601f820116820180604052508101906138619190614176565b1561387657600554600155613874613a79565b565b60075460015460405163f6001d7d60e01b815273__ItemsLibrary__________________________9263f6001d7d926138b1926004016144f7565b60206040518083038186803b1580156138c957600080fd5b505af41580156138dd573d6000803e3d6000fd5b505050506040513d601f19601f820116820180604052508101906139019190614176565b1561387457613874613a79565b60025460405163123bd07560e11b8152600091839173__Library_______________________________90632477a0ea9061394f90859085906004016144f7565b60206040518083038186803b15801561396757600080fd5b505af415801561397b573d6000803e3d6000fd5b505050506040513d601f19601f8201168201806040525081019061399f9190614176565b15156001146139c05760405162461bcd60e51b815260040161050d90614676565b60405163bc215e8560e01b815260009073__AddressLibrary________________________9063bc215e85906139fa90899060040161430e565b60206040518083038186803b158015613a1257600080fd5b505af4158015613a26573d6000803e3d6000fd5b505050506040513d601f19601f82011682018060405250810190613a4a9190614193565b905073__ItemsLibrary__________________________6226d7668260028881548110611a6b57611a6b6148af565b600060058190556006819055600781905561387490600890613bad565b828054828255906000526020600020908101928215613ae3579160200282015b82811115613ae35782518051613ad3918491602090910190613af3565b5091602001919060010190613ab6565b50613aef929150613bcb565b5090565b828054613aff90614843565b90600052602060002090601f016020900481019282613b215760008555613b67565b82601f10613b3a57805160ff1916838001178555613b67565b82800160010185558215613b67579182015b82811115613b67578251825591602001919060010190613b4c565b50613aef929150613be8565b508054613b7f90614843565b6000825580601f10613b8f575050565b601f016020900490600052602060002090810190610a949190613be8565b5080546000825590600052602060002090810190610a949190613be8565b80821115613aef576000613bdf8282613b73565b50600101613bcb565b5b80821115613aef5760008155600101613be9565b600082601f830112613c0e57600080fd5b81356020613c23613c1e8361479e565b61476e565b80838252828201915082860187848660051b8901011115613c4357600080fd5b60005b85811015613c6b578135613c59816148db565b84529284019290840190600101613c46565b5090979650505050505050565b600082601f830112613c8957600080fd5b81516020613c99613c1e8361479e565b80838252828201915082860187848660051b8901011115613cb957600080fd5b60005b85811015613c6b57815184529284019290840190600101613cbc565b60008083601f840112613cea57600080fd5b5081356001600160401b03811115613d0157600080fd5b602083019150836020828501011115613d1957600080fd5b9250929050565b600082601f830112613d3157600080fd5b8135613d3f613c1e826147c1565b818152846020838601011115613d5457600080fd5b816020850160208301376000918101602001919091529392505050565b600082601f830112613d8257600080fd5b8151613d90613c1e826147c1565b818152846020838601011115613da557600080fd5b611fa3826020830160208701614817565b600060208284031215613dc857600080fd5b8135611151816148db565b600060208284031215613de557600080fd5b8151611151816148db565b600080600060608486031215613e0557600080fd5b8335613e10816148db565b9250602084013591506040840135613e27816148db565b809150509250925092565b600080600060408486031215613e4757600080fd5b8335613e52816148db565b925060208401356001600160401b03811115613e6d57600080fd5b613e7986828701613cd8565b9497909650939450505050565b600080600080600060808688031215613e9e57600080fd5b8535613ea9816148db565b945060208601356001600160401b03811115613ec457600080fd5b613ed088828901613cd8565b9699909850959660408101359660609091013595509350505050565b600080600060608486031215613f0157600080fd5b83356001600160401b0380821115613f1857600080fd5b613f2487838801613bfd565b9450602086013593506040860135915080821115613f4157600080fd5b50613f4e86828701613d20565b9150509250925092565b600080600080600060a08688031215613f7057600080fd5b6001600160401b038635811015613f8657600080fd5b613f938888358901613bfd565b9550602080880135955060408801359450606088013582811115613fb657600080fd5b8801601f81018a13613fc757600080fd5b8035613fd5613c1e8261479e565b8082825284820191508484018d868560051b8701011115613ff557600080fd5b60005b8481101561402f57878235111561400e57600080fd5b61401d8f888435890101613d20565b84529286019290860190600101613ff8565b5050809750505050505050608086013590509295509295909350565b60006020828403121561405d57600080fd5b81516001600160401b0381111561407357600080fd5b611fa384828501613c78565b6000806040838503121561409257600080fd5b82516001600160401b03808211156140a957600080fd5b6140b586838701613c78565b93506020915081850151818111156140cc57600080fd5b8501601f810187136140dd57600080fd5b80516140eb613c1e8261479e565b8082825285820191508584018a878560051b870101111561410b57600080fd5b6000805b8581101561414657825188811115614125578283fd5b6141338e8b838b0101613d71565b865250938801939188019160010161410f565b5050508096505050505050509250929050565b60006020828403121561416b57600080fd5b8135611151816148f0565b60006020828403121561418857600080fd5b8151611151816148f0565b6000602082840312156141a557600080fd5b5051919050565b600080600080606085870312156141c257600080fd5b8435935060208501356001600160401b03808211156141e057600080fd5b818701915087601f8301126141f457600080fd5b81358181111561420357600080fd5b8860208260051b850101111561421857600080fd5b6020830195508094505050506040850135614232816148f0565b939692955090935050565b6000806040838503121561425057600080fd5b82516001600160401b0381111561426657600080fd5b61427285828601613d71565b9250506020830151614283816148f0565b809150509250929050565b6000602082840312156142a057600080fd5b5035919050565b600081518084526020808501945080840160005b838110156142d7578151875295820195908201906001016142bb565b509495945050505050565b600081518084526142fa816020860160208601614817565b601f01601f19169290920160200192915050565b6001600160a01b0391909116815260200190565b60006040820160018060a01b03808616845260206040818601528286548085526060870191508760005282600020945060005b81811015614373578554851683526001958601959284019201614355565b509098975050505050505050565b6001600160a01b039390931683526020830191909152604082015260600190565b60018060a01b0383168152600060206040818401526000845481600182811c9150808316806143d257607f831692505b8583108114156143f057634e487b7160e01b85526022600452602485fd5b604088018390526060880181801561440f57600181146144205761444b565b60ff1986168252878201965061444b565b60008b81526020902060005b868110156144455781548482015290850190890161442c565b83019750505b50949a9950505050505050505050565b60208152600061115160208301846142a7565b60408152600061448160408301856142a7565b6020838203818501528185518084528284019150828160051b85010183880160005b838110156144d157601f198784030185526144bf8383516142e2565b948601949250908501906001016144a3565b50909998505050505050505050565b9182526001600160a01b0316602082015260400190565b918252602082015260400190565b60408152600061451860408301856142e2565b905082151560208301529392505050565b60808152600061453c60808301876142e2565b9415156020830152506040810192909252606090910152919050565b6020808252600490820152634543313960e01b604082015260600190565b6020808252600490820152634543333160e01b604082015260600190565b6020808252600490820152634543323760e01b604082015260600190565b60208082526003908201526245433560e81b604082015260600190565b60208082526004908201526308a8664760e31b604082015260600190565b6020808252602e908201527f496e697469616c697a61626c653a20636f6e747261637420697320616c72656160408201526d191e481a5b9a5d1a585b1a5e995960921b606082015260800190565b6020808252600490820152634543313760e01b604082015260600190565b60208082526003908201526245433960e81b604082015260600190565b60208082526003908201526245433160e81b604082015260600190565b60208082526003908201526222a19b60e91b604082015260600190565b6060815283516060820152600060208086015160c060808501526146d86101208501826142e2565b9050604087015160a08501526060870151605f19808684030160c087015261470083836142e2565b60808a015187820390920160e088015281518082529185019350600092508401905b808310156147425783518252928401926001929092019190840190614722565b5060a0890151151561010087015292850187905250506001600160a01b03841660408401529050611fa3565b604051601f8201601f191681016001600160401b0381118282101715614796576147966148c5565b604052919050565b60006001600160401b038211156147b7576147b76148c5565b5060051b60200190565b60006001600160401b038211156147da576147da6148c5565b50601f01601f191660200190565b600082198211156147fb576147fb614899565b500190565b60008282101561481257614812614899565b500390565b60005b8381101561483257818101518382015260200161481a565b83811115610b7c5750506000910152565b600181811c9082168061485757607f821691505b6020821081141561487857634e487b7160e01b600052602260045260246000fd5b50919050565b600060001982141561489257614892614899565b5060010190565b634e487b7160e01b600052601160045260246000fd5b634e487b7160e01b600052603260045260246000fd5b634e487b7160e01b600052604160045260246000fd5b6001600160a01b0381168114610a9457600080fd5b8015158114610a9457600080fdfea264697066735822122030e57f2f84583fbdfd2a4563befca0da9979dcdeecb8b53e5e0ddc8bf7bd09f364736f6c63430008070033",
  "immutableReferences": {},
  "source": "// SPDX-License-Identifier: GPL-3.0\r\n\r\npragma solidity >=0.7.0 <0.9.0;\r\n\r\n/**\r\n * @title Storage\r\n * @dev Store & retrieve value in a variable\r\n */\r\n import \"../Libraries/Library.sol\";\r\n import \"../Interfaces/IProvider.sol\";\r\n import \"../Interfaces/IPool.sol\";\r\n import \"../Abstract/MultiSigContract.sol\";\r\n import \"../Libraries/ItemsLibrary.sol\";\r\n import \"../Libraries/AddressLibrary.sol\";\r\n import \"@openzeppelin/contracts-upgradeable/proxy/utils/Initializable.sol\";\r\n\r\n contract Provider is IProvider, Initializable, MultiSigContract {\r\n    using Library for *;\r\n    using AddressLibrary for *;\r\n    using ItemsLibrary for *;\r\n\r\n    // DATA /////////////////////////////////////////\r\n    uint256 constant _TotalEntities = 2;\r\n\r\n    // Owners\r\n    uint256 constant _ownerIdProviders = 0;\r\n    string constant _ownerLabel = \"Owner\";\r\n\r\n    // Pools\r\n    uint256 constant _poolId = 1;\r\n    string constant _poolLabel = \"Pool\";\r\n\r\n    mapping(address => uint256) private _AddCertificatePricePerPool;\r\n    mapping(address => uint256) private _SubscriptionPricePerPool;\r\n    mapping(address => bool) private _submited;\r\n\r\n\r\n    // Certificates\r\n    uint256 constant _certId = 2;\r\n    string constant _certLabel = \"Certificate\";\r\n\r\n    string[] private _Label;\r\n    \r\n    struct _CertificatesPerHolderStruct{\r\n        mapping(address => ItemsLibrary._ItemsStruct) _CertificatesPerHolder;\r\n    }\r\n   \r\n    mapping(address => _CertificatesPerHolderStruct) private _CertificatesPerPool;\r\n    \r\n    // Provider\r\n    string private _ProviderInfo;\r\n\r\n    // MODIFIERS /////////////////////////////////////////\r\n    modifier isAPool(address pool){\r\n        require(true == isPool(pool));\r\n        _;\r\n    }\r\n\r\n    modifier isCertificateActivated(bool YesOrNo, bytes32 cert, address pool, address holder){\r\n        if(false == YesOrNo) require(false == internalisCertificate(pool, cert, holder), \"EC6\");\r\n        else require(true == internalisCertificate(pool, cert, holder), \"EC7\");\r\n        _;\r\n    }\r\n\r\n    modifier isCertificatePending(bool YesOrNo, bytes32 cert, address pool, address holder){\r\n        if(false == YesOrNo) require(false == isCertificatePendingToAdded(pool, cert, holder) && \r\n                                    false == isCertificatePendingToRemoved(pool, cert, holder), \"EC27\");\r\n        else require(true == isCertificatePendingToAdded(pool, cert, holder) || \r\n                    true == isCertificatePendingToRemoved(pool, cert, holder), \"EC28\");\r\n        _;\r\n    }\r\n\r\n    modifier isCertificatePendingToAdd(bool YesOrNo, bytes32 cert, address pool, address holder){\r\n        if(false == YesOrNo) require(false == isCertificatePendingToAdded(pool, cert, holder), \"EC27\");\r\n        else require(true == isCertificatePendingToAdded(pool, cert, holder), \"EC28\");\r\n        _;\r\n    }\r\n\r\n    modifier isCertificatePendingToRemove(bool YesOrNo, bytes32 cert, address pool, address holder){\r\n        if(false == YesOrNo) require(false == isCertificatePendingToRemoved(pool, cert, holder), \"EC27\");\r\n        else require(true == isCertificatePendingToRemoved(pool, cert, holder), \"EC28\");\r\n        _;\r\n    }\r\n\r\n    modifier HasNotAlreadyVotedForCertificate(bytes32 cert, address pool, address holder){\r\n        require(false == ItemsLibrary.hasVoted(msg.sender, cert, _CertificatesPerPool[pool]._CertificatesPerHolder[holder]), \"EC5\");\r\n        _;\r\n    }\r\n\r\n     // CONSTRUCTOR /////////////////////////////////////////\r\n    function Provider_init(address[] memory owners,  uint256 minOwners, string memory ProviderInfo) public initializer \r\n    {\r\n        _Label = new string[](2);\r\n        _Label[0] = _ownerLabel;\r\n        _Label[1] = _poolLabel;\r\n\r\n        super.MultiSigContract_init(owners, minOwners, _TotalEntities, _Label, _ownerIdProviders); \r\n        _ProviderInfo = ProviderInfo;\r\n    }\r\n\r\n    // FUNCTIONALITY /////////////////////////////////////////\r\n    function addPool(address pool, string calldata poolInfo, uint256 AddCertificatePrice, uint256 SubscriptionPrice) external override{\r\n        addEntity(pool, poolInfo, _poolId);\r\n        if(false == _submited[pool]){\r\n            _AddCertificatePricePerPool[pool] = AddCertificatePrice;\r\n            _SubscriptionPricePerPool[pool] = SubscriptionPrice;\r\n            _submited[pool] = true;\r\n        }\r\n    }\r\n\r\n    function removePool(address pool) external override\r\n    {\r\n       removeEntity(pool, _poolId); \r\n    }\r\n\r\n    function validatePool(address pool) external override\r\n    {\r\n        validateEntity(pool, _poolId);\r\n    }\r\n\r\n    function rejectPool(address pool) external override\r\n    {\r\n        rejectEntity(pool, _poolId);\r\n    }\r\n\r\n    function removePricesForPool(address pool) internal\r\n    {\r\n        delete(_submited[pool]);\r\n        delete(_AddCertificatePricePerPool[pool]);\r\n        delete(_SubscriptionPricePerPool[pool]);\r\n    }\r\n    \r\n    function retrievePool(address pool) external override view returns (string memory, bool, uint256, uint256)\r\n    {\r\n        string memory poolInfo;\r\n        bool isActivated;\r\n\r\n        (poolInfo, isActivated) = InternalRetrievePool(pool);\r\n        return (poolInfo, isActivated, _AddCertificatePricePerPool[pool], _SubscriptionPricePerPool[pool]);\r\n    }\r\n    \r\n    function InternalRetrievePool(address pool) internal view returns (string memory, bool)\r\n    {\r\n        return retrieveEntity(pool, _poolId);\r\n    }\r\n\r\n    function retrieveAllPools() external override view returns (bytes32[] memory)\r\n    {\r\n        return retrieveAllEntities(_poolId);\r\n    }\r\n\r\n    function retrievePendingPools(bool addedORremove) external override view returns (bytes32[] memory, string[] memory)\r\n    {\r\n        return(retrievePendingEntities(addedORremove, _poolId));\r\n    }\r\n\r\n    function isPool(address pool) internal view returns (bool)\r\n    {\r\n        return(isEntity(pool, _poolId));\r\n    }\r\n    // Certificates management\r\n    function extractCertIds(address pool, address holder) internal pure returns(uint[] memory)\r\n    {\r\n        uint[] memory certIdIdArray = new uint[](3);\r\n        certIdIdArray[0] = _certId;\r\n        certIdIdArray[1] = AddressLibrary.AddressToUint(pool);\r\n        certIdIdArray[2] = AddressLibrary.AddressToUint(holder);\r\n\r\n        return(certIdIdArray);\r\n    }\r\n\r\n     function addCertificate(address pool, bytes32 CertificateHash, address holder) external override\r\n        isAPool(pool)\r\n        isAnOwner\r\n        isCertificateActivated(false, CertificateHash, pool, holder) \r\n        isCertificatePendingToAdd(false, CertificateHash, pool, holder)\r\n     {\r\n        _CertificatesPerHolderStruct storage hs = _CertificatesPerPool[pool];\r\n        uint[] memory certIdIdArray = extractCertIds(pool, holder);\r\n        ItemsLibrary._manipulateItemStruct memory manipulateItemStruct = ItemsLibrary._manipulateItemStruct(CertificateHash, \"\", _minOwners, _certLabel, certIdIdArray, false);\r\n        ItemsLibrary._ItemsStruct storage itemsstruct =  hs._CertificatesPerHolder[holder];\r\n        ItemsLibrary.addItem(manipulateItemStruct,itemsstruct, address(this));\r\n     }\r\n\r\n     function validateCertificate(address pool, bytes32 CertificateHash, address holder) external override\r\n        isAPool(pool)\r\n        isAnOwner\r\n        isCertificatePending(true, CertificateHash, pool, holder)\r\n        HasNotAlreadyVotedForCertificate(CertificateHash, pool, holder)\r\n     {\r\n        _CertificatesPerHolderStruct storage hs = _CertificatesPerPool[pool];\r\n        uint[] memory certIdIdArray = extractCertIds(pool, holder);\r\n        ItemsLibrary._manipulateItemStruct memory manipulateItemStruct = ItemsLibrary._manipulateItemStruct(CertificateHash, \"\", _minOwners, _certLabel, certIdIdArray, false);\r\n        ItemsLibrary._ItemsStruct storage itemsstruct =  hs._CertificatesPerHolder[holder];\r\n        ItemsLibrary.validateItem(manipulateItemStruct, itemsstruct, address(this));\r\n     }\r\n\r\n     function rejectCertificate(address pool, bytes32 CertificateHash, address holder) external override\r\n        isAPool(pool)\r\n        isAnOwner\r\n        isCertificatePending(true, CertificateHash, pool, holder)\r\n        HasNotAlreadyVotedForCertificate(CertificateHash, pool, holder)\r\n     {\r\n        _CertificatesPerHolderStruct storage hs = _CertificatesPerPool[pool];\r\n        uint[] memory certIdIdArray = extractCertIds(pool, holder);\r\n        ItemsLibrary._manipulateItemStruct memory manipulateItemStruct = ItemsLibrary._manipulateItemStruct(CertificateHash, \"\", _minOwners, _certLabel, certIdIdArray, false);\r\n        ItemsLibrary._ItemsStruct storage itemsstruct =  hs._CertificatesPerHolder[holder];\r\n        ItemsLibrary.rejectItem(manipulateItemStruct, itemsstruct, address(this));\r\n     }\r\n \r\n    function manipulateCertificate(address pool, bytes32 CertificateHash, address holder) internal\r\n        isAPool(pool)\r\n    {\r\n        IPool poolToSend = IPool(pool);\r\n\r\n        poolToSend.addCertificate{value:_AddCertificatePricePerPool[pool]}(CertificateHash, holder);\r\n\r\n        ItemsLibrary._ItemsStruct storage itemStruct = _CertificatesPerPool[pool]._CertificatesPerHolder[holder];\r\n\r\n        //itemStruct._activatedItems = Library.ArrayRemoveResize(Library.FindPosition(CertificateHash, itemStruct._activatedItems), itemStruct._activatedItems);\r\n        //Library.ArrayRemove(itemStruct._items[CertificateHash]._id, itemStruct._activatedItems);\r\n        ItemsLibrary.RemoveResizeActivated(CertificateHash, itemStruct);\r\n        delete(itemStruct._items[CertificateHash]);   \r\n    }\r\n\r\n    function isCertificate(address pool, bytes32 CertificateHash, address holder) external override view returns(bool)\r\n    {\r\n        return internalisCertificate(pool, CertificateHash, holder);\r\n    }\r\n\r\n    function internalisCertificate(address pool, bytes32 CertificateHash, address holder) internal view returns(bool)\r\n    {\r\n        IPool poolToCheck = IPool(pool);\r\n        address provider = poolToCheck.retrieveCertificateProvider(CertificateHash, holder);\r\n        if(provider == address(this)) return true;\r\n        return false;\r\n    }\r\n\r\n    function isCertificatePendingToAdded(address pool, bytes32 CertificateHash, address holder) internal view returns(bool)\r\n    {\r\n        return ItemsLibrary.isItemPendingToAdded(CertificateHash, _CertificatesPerPool[pool]._CertificatesPerHolder[holder]);\r\n    }\r\n\r\n    function isCertificatePendingToRemoved(address pool, bytes32 CertificateHash, address holder) internal view returns(bool)\r\n    {\r\n        return ItemsLibrary.isItemPendingToRemoved(CertificateHash, _CertificatesPerPool[pool]._CertificatesPerHolder[holder]);\r\n    }\r\n\r\n    receive() external override payable{}\r\n\r\n    // CALLBACKS /////////////////////////////////////////\r\n    function onItemValidated(bytes32 item, uint256[] calldata ids, bool addOrRemove) public override  \r\n    {\r\n        super.onItemValidated(item, ids, addOrRemove);\r\n\r\n        if(ids[0] == _poolId){\r\n            address pool = AddressLibrary.Bytes32ToAddress(item);\r\n\r\n            if(false == addOrRemove)removePricesForPool(pool);\r\n            else{\r\n                IPool poolToSubscribe = IPool(pool);\r\n                poolToSubscribe.addProvider{value:_SubscriptionPricePerPool[pool]}(address(this), _ProviderInfo);\r\n            }\r\n        }\r\n        else if(ids[0] == _certId){\r\n            manipulateCertificate(AddressLibrary.UintToAddress(ids[1]), item, AddressLibrary.UintToAddress(ids[2]));\r\n        }\r\n    }\r\n\r\n    function onItemRejected(bytes32 item, uint256[] calldata ids, bool addOrRemove) public override  \r\n    {\r\n        super.onItemRejected(item, ids, addOrRemove);\r\n\r\n        if(ids[0] == _poolId){\r\n            address pool = AddressLibrary.Bytes32ToAddress(item);\r\n\r\n            if(true == addOrRemove)removePricesForPool(pool);\r\n        } \r\n    }\r\n    \r\n }",
  "sourcePath": "C:/Users/d-aam/GitHub/Certificates/contracts/DeployedContracts/Provider.sol",
  "compiler": {
    "name": "solc",
    "version": "0.8.7+commit.e28d00a7.Emscripten.clang"
  },
  "schemaVersion": "3.3.4",
  "updatedAt": "2021-08-17T09:26:52.101Z",
  "devdoc": {
    "kind": "dev",
    "methods": {},
    "version": 1
  },
  "userdoc": {
    "kind": "user",
    "methods": {},
    "version": 1
  }
}