{
  "contractName": "Provider",
  "abi": [
    {
      "inputs": [
        {
          "internalType": "address[]",
          "name": "owners",
          "type": "address[]"
        },
        {
          "internalType": "uint256",
          "name": "minOwners",
          "type": "uint256"
        }
      ],
      "stateMutability": "payable",
      "type": "constructor"
    },
    {
      "anonymous": false,
      "inputs": [
        {
          "indexed": false,
          "internalType": "string",
          "name": "",
          "type": "string"
        },
        {
          "indexed": false,
          "internalType": "address",
          "name": "",
          "type": "address"
        }
      ],
      "name": "_AddEntityValidationIdEvent",
      "type": "event"
    },
    {
      "anonymous": false,
      "inputs": [
        {
          "indexed": false,
          "internalType": "string",
          "name": "",
          "type": "string"
        },
        {
          "indexed": false,
          "internalType": "address",
          "name": "",
          "type": "address"
        }
      ],
      "name": "_RemoveEntityValidationIdEvent",
      "type": "event"
    },
    {
      "inputs": [
        {
          "internalType": "address",
          "name": "owner",
          "type": "address"
        },
        {
          "internalType": "string",
          "name": "ownerInfo",
          "type": "string"
        }
      ],
      "name": "addOwner",
      "outputs": [],
      "stateMutability": "nonpayable",
      "type": "function"
    },
    {
      "inputs": [
        {
          "internalType": "address",
          "name": "owner",
          "type": "address"
        }
      ],
      "name": "isOwner",
      "outputs": [
        {
          "internalType": "bool",
          "name": "",
          "type": "bool"
        }
      ],
      "stateMutability": "view",
      "type": "function"
    },
    {
      "inputs": [
        {
          "internalType": "address",
          "name": "owner",
          "type": "address"
        }
      ],
      "name": "removeOwner",
      "outputs": [],
      "stateMutability": "nonpayable",
      "type": "function"
    },
    {
      "inputs": [],
      "name": "retrieveAllOwners",
      "outputs": [
        {
          "internalType": "address[]",
          "name": "",
          "type": "address[]"
        }
      ],
      "stateMutability": "view",
      "type": "function"
    },
    {
      "inputs": [
        {
          "internalType": "address",
          "name": "owner",
          "type": "address"
        }
      ],
      "name": "retrieveOwner",
      "outputs": [
        {
          "internalType": "string",
          "name": "",
          "type": "string"
        }
      ],
      "stateMutability": "view",
      "type": "function"
    },
    {
      "inputs": [],
      "name": "retrieveTotalOwners",
      "outputs": [
        {
          "internalType": "uint256",
          "name": "",
          "type": "uint256"
        }
      ],
      "stateMutability": "view",
      "type": "function"
    },
    {
      "inputs": [
        {
          "internalType": "address",
          "name": "pool",
          "type": "address"
        },
        {
          "internalType": "string",
          "name": "poolInfo",
          "type": "string"
        }
      ],
      "name": "addPool",
      "outputs": [],
      "stateMutability": "nonpayable",
      "type": "function"
    },
    {
      "inputs": [
        {
          "internalType": "address",
          "name": "pool",
          "type": "address"
        }
      ],
      "name": "removePool",
      "outputs": [],
      "stateMutability": "nonpayable",
      "type": "function"
    },
    {
      "inputs": [
        {
          "internalType": "address",
          "name": "pool",
          "type": "address"
        }
      ],
      "name": "retrievePool",
      "outputs": [
        {
          "internalType": "string",
          "name": "",
          "type": "string"
        }
      ],
      "stateMutability": "view",
      "type": "function"
    },
    {
      "inputs": [],
      "name": "retrieveAllPools",
      "outputs": [
        {
          "internalType": "address[]",
          "name": "",
          "type": "address[]"
        }
      ],
      "stateMutability": "view",
      "type": "function"
    },
    {
      "inputs": [],
      "name": "retrieveTotalPools",
      "outputs": [
        {
          "internalType": "uint256",
          "name": "",
          "type": "uint256"
        }
      ],
      "stateMutability": "view",
      "type": "function"
    },
    {
      "inputs": [
        {
          "internalType": "address",
          "name": "pool",
          "type": "address"
        }
      ],
      "name": "isPool",
      "outputs": [
        {
          "internalType": "bool",
          "name": "",
          "type": "bool"
        }
      ],
      "stateMutability": "view",
      "type": "function"
    },
    {
      "inputs": [
        {
          "internalType": "address",
          "name": "pool",
          "type": "address"
        },
        {
          "internalType": "bytes32",
          "name": "CertificateHash",
          "type": "bytes32"
        },
        {
          "internalType": "address",
          "name": "holder",
          "type": "address"
        }
      ],
      "name": "addCertificate",
      "outputs": [],
      "stateMutability": "nonpayable",
      "type": "function"
    },
    {
      "inputs": [
        {
          "internalType": "address",
          "name": "pool",
          "type": "address"
        },
        {
          "internalType": "bytes32",
          "name": "CertificateHash",
          "type": "bytes32"
        },
        {
          "internalType": "address",
          "name": "holder",
          "type": "address"
        }
      ],
      "name": "removeCertificate",
      "outputs": [],
      "stateMutability": "nonpayable",
      "type": "function"
    }
  ],
  "bytecode": "0x608060405260405180604001604052806040518060400160405280600581526020017f4f776e657200000000000000000000000000000000000000000000000000000081525081526020016040518060400160405280600481526020017f506f6f6c0000000000000000000000000000000000000000000000000000000081525081525060049060026200009592919062000462565b5060405162004be838038062004be88339818101604052810190620000bb9190620006c3565b818160026004805480602002602001604051908101604052809291908181526020016000905b82821015620001a3578382906000526020600020018054600181600116156101000203166002900480601f0160208091040260200160405190810160405280929190818152602001828054600181600116156101000203166002900480156200018e5780601f1062000162576101008083540402835291602001916200018e565b820191906000526020600020905b8154815290600101906020018083116200017057829003601f168201915b505050505081526020019060010190620000e1565b5050505060008451841115620001f0576040517f08c379a0000000000000000000000000000000000000000000000000000000008152600401620001e79062000809565b60405180910390fd5b6000841162000236576040517f08c379a00000000000000000000000000000000000000000000000000000000081526004016200022d906200084d565b60405180910390fd5b815183146200027c576040517f08c379a000000000000000000000000000000000000000000000000000000000815260040162000273906200082b565b60405180910390fd5b8060008190555060005b838110156200030d576003600181600181540180825580915050039060005260206000209050506002838281518110620002bc57fe5b6020026020010151908060018154018082558091505060019003906000526020600020016000909190919091509080519060200190620002fe929190620004c9565b50808060010191505062000286565b508360018190555060005b8551811015620004545760016003600054815481106200033457fe5b906000526020600020906002020160000160008884815181106200035457fe5b602002602001015173ffffffffffffffffffffffffffffffffffffffff1673ffffffffffffffffffffffffffffffffffffffff16815260200190815260200160002060000160006101000a81548160ff021916908315150217905550600360005481548110620003c057fe5b9060005260206000209060020201600101868281518110620003de57fe5b60200260200101519080600181540180825580915050600190039060005260206000200160009091909190916101000a81548173ffffffffffffffffffffffffffffffffffffffff021916908373ffffffffffffffffffffffffffffffffffffffff160217905550808060010191505062000318565b505050505050505062000957565b828054828255906000526020600020908101928215620004b6579160200282015b82811115620004b5578251829080519060200190620004a4929190620004c9565b509160200191906001019062000483565b5b509050620004c5919062000560565b5090565b828054600181600116156101000203166002900490600052602060002090601f0160209004810192826200050157600085556200054d565b82601f106200051c57805160ff19168380011785556200054d565b828001600101855582156200054d579182015b828111156200054c5782518255916020019190600101906200052f565b5b5090506200055c919062000588565b5090565b5b808211156200058457600081816200057a9190620005a7565b5060010162000561565b5090565b5b80821115620005a357600081600090555060010162000589565b5090565b50805460018160011615610100020316600290046000825580601f10620005cf5750620005f0565b601f016020900490600052602060002090810190620005ef919062000588565b5b50565b60006200060a6200060484620008a3565b6200086f565b905080838252602082019050828560208602820111156200062a57600080fd5b60005b858110156200065e578162000643888262000668565b8452602084019350602083019250506001810190506200062d565b5050509392505050565b600081519050620006798162000923565b92915050565b600082601f8301126200069157600080fd5b8151620006a3848260208601620005f3565b91505092915050565b600081519050620006bd816200093d565b92915050565b60008060408385031215620006d757600080fd5b600083015167ffffffffffffffff811115620006f257600080fd5b62000700858286016200067f565b92505060206200071385828601620006ac565b9150509250929050565b60006200072c603c83620008d2565b91507f4e6f7420656e6f756768206f776e6572732070726f766964656420746f206d6560008301527f657420746865206d696e4f776e65727320726571756972656d656e74000000006020830152604082019050919050565b600062000794601d83620008d2565b91507f4e6f7420656e6f756768206f7220746f6f206d616e79206c6162656c730000006000830152602082019050919050565b6000620007d6601883620008d2565b91507f4174206c656173742031206d696e696d756d206f776e657200000000000000006000830152602082019050919050565b6000602082019050818103600083015262000824816200071d565b9050919050565b60006020820190508181036000830152620008468162000785565b9050919050565b600060208201905081810360008301526200086881620007c7565b9050919050565b6000604051905081810181811067ffffffffffffffff8211171562000899576200089862000921565b5b8060405250919050565b600067ffffffffffffffff821115620008c157620008c062000921565b5b602082029050602081019050919050565b600082825260208201905092915050565b6000620008f082620008f7565b9050919050565b600073ffffffffffffffffffffffffffffffffffffffff82169050919050565b6000819050919050565bfe5b6200092e81620008e3565b81146200093a57600080fd5b50565b620009488162000917565b81146200095457600080fd5b50565b61428180620009676000396000f3fe608060405234801561001057600080fd5b50600436106100ea5760003560e01c8063704dc09b1161008c5780638fc2d8ea116100665780638fc2d8ea14610247578063a93d5ed614610277578063eefe768114610295578063f4989e71146102b3576100ea565b8063704dc09b146101dd57806373bd22b8146101f957806377bc5a1f14610217576100ea565b80632f54bf6e116100c85780632f54bf6e146101455780633542758f146101755780633b7d0946146101915780635b16ebb7146101ad576100ea565b806314a2ed2f146100ef578063173825d91461010b5780632d99aaf214610127575b600080fd5b6101096004803603810190610104919061382a565b6102cf565b005b61012560048036038101906101209190613801565b6102e1565b005b61012f6102f0565b60405161013c9190613e07565b60405180910390f35b61015f600480360381019061015a9190613801565b610301565b60405161016c9190613e29565b60405180910390f35b61018f600480360381019061018a9190613879565b610316565b005b6101ab60048036038101906101a69190613801565b610327565b005b6101c760048036038101906101c29190613801565b610335565b6040516101d49190613e29565b60405180910390f35b6101f760048036038101906101f29190613879565b610349565b005b610201610359565b60405161020e9190613fdf565b60405180910390f35b610231600480360381019061022c9190613801565b61036a565b60405161023e9190613ecd565b60405180910390f35b610261600480360381019061025c9190613801565b61037f565b60405161026e9190613ecd565b60405180910390f35b61027f610391565b60405161028c9190613e07565b60405180910390f35b61029d6103a3565b6040516102aa9190613fdf565b60405180910390f35b6102cd60048036038101906102c8919061382a565b6103b5565b005b6102dc83838360006103c7565b505050565b6102ed81600054610fb7565b50565b60606102fc60016113e4565b905090565b600061030f826000546114e8565b9050919050565b6103238282600054611811565b5050565b610332816001610fb7565b50565b60006103428260016114e8565b9050919050565b61035582826001611811565b5050565b60006103656001611c08565b905090565b606061037882600054611d0c565b9050919050565b606061038a82611e12565b9050919050565b606061039e6000546113e4565b905090565b60006103b0600054611c08565b905090565b6103c283838360016103c7565b505050565b836103d181610335565b151560011515146103e157600080fd5b6103ea33610301565b15156001151514610430576040517f08c379a000000000000000000000000000000000000000000000000000000000815260040161042790613f5f565b60405180910390fd5b60018081111561043c57fe5b82600181111561044857fe5b14600560008773ffffffffffffffffffffffffffffffffffffffff1673ffffffffffffffffffffffffffffffffffffffff16815260200190815260200160002060000160008573ffffffffffffffffffffffffffffffffffffffff1673ffffffffffffffffffffffffffffffffffffffff16815260200190815260200160002060000160008681526020019081526020016000206040518060800160405290816000820160009054906101000a900460ff16151515158152602001600182018054600181600116156101000203166002900480601f01602080910402602001604051908101604052809291908181526020018280546001816001161561010002031660029004801561059b5780601f106105705761010080835404028352916020019161059b565b820191906000526020600020905b81548152906001019060200180831161057e57829003601f168201915b505050505081526020016002820180548060200260200160405190810160405280929190818152602001828054801561062957602002820191906000526020600020905b8160009054906101000a900473ffffffffffffffffffffffffffffffffffffffff1673ffffffffffffffffffffffffffffffffffffffff16815260200190600101908083116105df575b50505050508152602001600382018054806020026020016040519081016040528092919081815260200182805480156106b757602002820191906000526020600020905b8160009054906101000a900473ffffffffffffffffffffffffffffffffffffffff1673ffffffffffffffffffffffffffffffffffffffff168152602001906001019080831161066d575b50505050508152505073__Library_______________________________63354945be83836040518363ffffffff1660e01b81526004016106f9929190613e44565b60006040518083038186803b15801561071157600080fd5b505af4158015610725573d6000803e3d6000fd5b505050506000600560008973ffffffffffffffffffffffffffffffffffffffff1673ffffffffffffffffffffffffffffffffffffffff16815260200190815260200160002060000160008773ffffffffffffffffffffffffffffffffffffffff1673ffffffffffffffffffffffffffffffffffffffff16815260200190815260200160002060000160008881526020019081526020016000206040518060800160405290816000820160009054906101000a900460ff16151515158152602001600182018054600181600116156101000203166002900480601f01602080910402602001604051908101604052809291908181526020018280546001816001161561010002031660029004801561087d5780601f106108525761010080835404028352916020019161087d565b820191906000526020600020905b81548152906001019060200180831161086057829003601f168201915b505050505081526020016002820180548060200260200160405190810160405280929190818152602001828054801561090b57602002820191906000526020600020905b8160009054906101000a900473ffffffffffffffffffffffffffffffffffffffff1673ffffffffffffffffffffffffffffffffffffffff16815260200190600101908083116108c1575b505050505081526020016003820180548060200260200160405190810160405280929190818152602001828054801561099957602002820191906000526020600020905b8160009054906101000a900473ffffffffffffffffffffffffffffffffffffffff1673ffffffffffffffffffffffffffffffffffffffff168152602001906001019080831161094f575b50505050508152505073__Library_______________________________63777d5c5883836040518363ffffffff1660e01b81526004016109db929190613e9d565b60006040518083038186803b1580156109f357600080fd5b505af4158015610a07573d6000803e3d6000fd5b505050506000806001811115610a1957fe5b876001811115610a2557fe5b1415610bc357600560008b73ffffffffffffffffffffffffffffffffffffffff1673ffffffffffffffffffffffffffffffffffffffff16815260200190815260200160002060000160008973ffffffffffffffffffffffffffffffffffffffff1673ffffffffffffffffffffffffffffffffffffffff16815260200190815260200160002060000160008a8152602001908152602001600020600201339080600181540180825580915050600190039060005260206000200160009091909190916101000a81548173ffffffffffffffffffffffffffffffffffffffff021916908373ffffffffffffffffffffffffffffffffffffffff160217905550600560008b73ffffffffffffffffffffffffffffffffffffffff1673ffffffffffffffffffffffffffffffffffffffff16815260200190815260200160002060000160008973ffffffffffffffffffffffffffffffffffffffff1673ffffffffffffffffffffffffffffffffffffffff16815260200190815260200160002060000160008a8152602001908152602001600020600201805490509050610d57565b600560008b73ffffffffffffffffffffffffffffffffffffffff1673ffffffffffffffffffffffffffffffffffffffff16815260200190815260200160002060000160008973ffffffffffffffffffffffffffffffffffffffff1673ffffffffffffffffffffffffffffffffffffffff16815260200190815260200160002060000160008a8152602001908152602001600020600301339080600181540180825580915050600190039060005260206000200160009091909190916101000a81548173ffffffffffffffffffffffffffffffffffffffff021916908373ffffffffffffffffffffffffffffffffffffffff160217905550600560008b73ffffffffffffffffffffffffffffffffffffffff1673ffffffffffffffffffffffffffffffffffffffff16815260200190815260200160002060000160008973ffffffffffffffffffffffffffffffffffffffff1673ffffffffffffffffffffffffffffffffffffffff16815260200190815260200160002060000160008a81526020019081526020016000206003018054905090505b610d6381600154611e26565b15610fab576000610d738b611e12565b604051602001610d839190613ddb565b60405160208183030381529060405280519060200120604051602001610da890613df2565b604051602081830303815290604052805190602001201415610dcc578a9050610dd0565b8a90505b60006001811115610ddd57fe5b886001811115610de957fe5b1415610e61578073ffffffffffffffffffffffffffffffffffffffff16631ab807f88b8b6040518363ffffffff1660e01b8152600401610e2a929190613e74565b600060405180830381600087803b158015610e4457600080fd5b505af1158015610e58573d6000803e3d6000fd5b50505050610ecf565b8073ffffffffffffffffffffffffffffffffffffffff1663a73db28a8b8b6040518363ffffffff1660e01b8152600401610e9c929190613e74565b600060405180830381600087803b158015610eb657600080fd5b505af1158015610eca573d6000803e3d6000fd5b505050505b600560008c73ffffffffffffffffffffffffffffffffffffffff1673ffffffffffffffffffffffffffffffffffffffff16815260200190815260200160002060000160008a73ffffffffffffffffffffffffffffffffffffffff1673ffffffffffffffffffffffffffffffffffffffff16815260200190815260200160002060000160008b8152602001908152602001600020600080820160006101000a81549060ff0219169055600182016000610f8791906135bc565b600282016000610f979190613604565b600382016000610fa79190613604565b5050505b50505050505050505050565b8060038054905073__Library_______________________________632477a0ea83836040518363ffffffff1660e01b8152600401610ff7929190613ffa565b60206040518083038186803b15801561100f57600080fd5b505af4158015611023573d6000803e3d6000fd5b505050506040513d601f19601f8201168201806040525081019061104791906138cd565b1515600115151461108d576040517f08c379a000000000000000000000000000000000000000000000000000000000815260040161108490613f7f565b60405180910390fd5b8361109733610301565b15156001151514806110d457508073ffffffffffffffffffffffffffffffffffffffff163373ffffffffffffffffffffffffffffffffffffffff16145b611113576040517f08c379a000000000000000000000000000000000000000000000000000000000815260040161110a90613f9f565b60405180910390fd5b61113a856003868154811061112457fe5b9060005260206000209060020201600154611e44565b6113816003858154811061114a57fe5b906000526020600020906002020160000160008773ffffffffffffffffffffffffffffffffffffffff1673ffffffffffffffffffffffffffffffffffffffff1681526020019081526020016000206040518060800160405290816000820160009054906101000a900460ff16151515158152602001600182018054600181600116156101000203166002900480601f0160208091040260200160405190810160405280929190818152602001828054600181600116156101000203166002900480156112575780601f1061122c57610100808354040283529160200191611257565b820191906000526020600020905b81548152906001019060200180831161123a57829003601f168201915b50505050508152602001600282018054806020026020016040519081016040528092919081815260200182805480156112e557602002820191906000526020600020905b8160009054906101000a900473ffffffffffffffffffffffffffffffffffffffff1673ffffffffffffffffffffffffffffffffffffffff168152602001906001019080831161129b575b505050505081526020016003820180548060200260200160405190810160405280929190818152602001828054801561137357602002820191906000526020600020905b8160009054906101000a900473ffffffffffffffffffffffffffffffffffffffff1673ffffffffffffffffffffffffffffffffffffffff1681526020019060010190808311611329575b5050505050815250506125b4565b15156000151514156113dd577f1f62d535f971041db7bd8760bf0f1f9f476461558744a35c0d477b5ad6893e89600285815481106113bb57fe5b90600052602060002001866040516113d4929190613eef565b60405180910390a15b5050505050565b60608160038054905073__Library_______________________________632477a0ea83836040518363ffffffff1660e01b8152600401611426929190613ffa565b60206040518083038186803b15801561143e57600080fd5b505af4158015611452573d6000803e3d6000fd5b505050506040513d601f19601f8201168201806040525081019061147691906138cd565b151560011515146114bc576040517f08c379a00000000000000000000000000000000000000000000000000000000081526004016114b390613f7f565b60405180910390fd5b6114df600385815481106114cc57fe5b90600052602060002090600202016125c2565b92505050919050565b60008160038054905073__Library_______________________________632477a0ea83836040518363ffffffff1660e01b815260040161152a929190613ffa565b60206040518083038186803b15801561154257600080fd5b505af4158015611556573d6000803e3d6000fd5b505050506040513d601f19601f8201168201806040525081019061157a91906138cd565b151560011515146115c0576040517f08c379a00000000000000000000000000000000000000000000000000000000081526004016115b790613f7f565b60405180910390fd5b611807600385815481106115d057fe5b906000526020600020906002020160000160008773ffffffffffffffffffffffffffffffffffffffff1673ffffffffffffffffffffffffffffffffffffffff1681526020019081526020016000206040518060800160405290816000820160009054906101000a900460ff16151515158152602001600182018054600181600116156101000203166002900480601f0160208091040260200160405190810160405280929190818152602001828054600181600116156101000203166002900480156116dd5780601f106116b2576101008083540402835291602001916116dd565b820191906000526020600020905b8154815290600101906020018083116116c057829003601f168201915b505050505081526020016002820180548060200260200160405190810160405280929190818152602001828054801561176b57602002820191906000526020600020905b8160009054906101000a900473ffffffffffffffffffffffffffffffffffffffff1673ffffffffffffffffffffffffffffffffffffffff1681526020019060010190808311611721575b50505050508152602001600382018054806020026020016040519081016040528092919081815260200182805480156117f957602002820191906000526020600020905b8160009054906101000a900473ffffffffffffffffffffffffffffffffffffffff1673ffffffffffffffffffffffffffffffffffffffff16815260200190600101908083116117af575b5050505050815250506125b4565b9250505092915050565b8060038054905073__Library_______________________________632477a0ea83836040518363ffffffff1660e01b8152600401611851929190613ffa565b60206040518083038186803b15801561186957600080fd5b505af415801561187d573d6000803e3d6000fd5b505050506040513d601f19601f820116820180604052508101906118a191906138cd565b151560011515146118e7576040517f08c379a00000000000000000000000000000000000000000000000000000000081526004016118de90613f7f565b60405180910390fd5b6118f033610301565b15156001151514611936576040517f08c379a000000000000000000000000000000000000000000000000000000000815260040161192d90613f5f565b60405180910390fd5b61195e85856003868154811061194857fe5b9060005260206000209060020201600154612654565b611ba56003848154811061196e57fe5b906000526020600020906002020160000160008773ffffffffffffffffffffffffffffffffffffffff1673ffffffffffffffffffffffffffffffffffffffff1681526020019081526020016000206040518060800160405290816000820160009054906101000a900460ff16151515158152602001600182018054600181600116156101000203166002900480601f016020809104026020016040519081016040528092919081815260200182805460018160011615610100020316600290048015611a7b5780601f10611a5057610100808354040283529160200191611a7b565b820191906000526020600020905b815481529060010190602001808311611a5e57829003601f168201915b5050505050815260200160028201805480602002602001604051908101604052809291908181526020018280548015611b0957602002820191906000526020600020905b8160009054906101000a900473ffffffffffffffffffffffffffffffffffffffff1673ffffffffffffffffffffffffffffffffffffffff1681526020019060010190808311611abf575b5050505050815260200160038201805480602002602001604051908101604052809291908181526020018280548015611b9757602002820191906000526020600020905b8160009054906101000a900473ffffffffffffffffffffffffffffffffffffffff1673ffffffffffffffffffffffffffffffffffffffff1681526020019060010190808311611b4d575b5050505050815250506125b4565b1515600115151415611c01577f3c139d46a211844e248647688545a37c07c505c999c1232d1247c707dc0a91e260028481548110611bdf57fe5b9060005260206000200186604051611bf8929190613eef565b60405180910390a15b5050505050565b60008160038054905073__Library_______________________________632477a0ea83836040518363ffffffff1660e01b8152600401611c4a929190613ffa565b60206040518083038186803b158015611c6257600080fd5b505af4158015611c76573d6000803e3d6000fd5b505050506040513d601f19601f82011682018060405250810190611c9a91906138cd565b15156001151514611ce0576040517f08c379a0000000000000000000000000000000000000000000000000000000008152600401611cd790613f7f565b60405180910390fd5b611d0360038581548110611cf057fe5b9060005260206000209060020201612d8c565b92505050919050565b60608160038054905073__Library_______________________________632477a0ea83836040518363ffffffff1660e01b8152600401611d4e929190613ffa565b60206040518083038186803b158015611d6657600080fd5b505af4158015611d7a573d6000803e3d6000fd5b505050506040513d601f19601f82011682018060405250810190611d9e91906138cd565b15156001151514611de4576040517f08c379a0000000000000000000000000000000000000000000000000000000008152600401611ddb90613f7f565b60405180910390fd5b611e088560038681548110611df557fe5b9060005260206000209060020201612d9d565b9250505092915050565b6060611e1f826001611d0c565b9050919050565b600081831015611e395760009050611e3e565b600190505b92915050565b60018260000160008573ffffffffffffffffffffffffffffffffffffffff1673ffffffffffffffffffffffffffffffffffffffff1681526020019081526020016000206040518060800160405290816000820160009054906101000a900460ff16151515158152602001600182018054600181600116156101000203166002900480601f016020809104026020016040519081016040528092919081815260200182805460018160011615610100020316600290048015611f465780601f10611f1b57610100808354040283529160200191611f46565b820191906000526020600020905b815481529060010190602001808311611f2957829003601f168201915b5050505050815260200160028201805480602002602001604051908101604052809291908181526020018280548015611fd457602002820191906000526020600020905b8160009054906101000a900473ffffffffffffffffffffffffffffffffffffffff1673ffffffffffffffffffffffffffffffffffffffff1681526020019060010190808311611f8a575b505050505081526020016003820180548060200260200160405190810160405280929190818152602001828054801561206257602002820191906000526020600020905b8160009054906101000a900473ffffffffffffffffffffffffffffffffffffffff1673ffffffffffffffffffffffffffffffffffffffff1681526020019060010190808311612018575b50505050508152505061207582826130b7565b60018460000160008773ffffffffffffffffffffffffffffffffffffffff1673ffffffffffffffffffffffffffffffffffffffff1681526020019081526020016000206040518060800160405290816000820160009054906101000a900460ff16151515158152602001600182018054600181600116156101000203166002900480601f0160208091040260200160405190810160405280929190818152602001828054600181600116156101000203166002900480156121775780601f1061214c57610100808354040283529160200191612177565b820191906000526020600020905b81548152906001019060200180831161215a57829003601f168201915b505050505081526020016002820180548060200260200160405190810160405280929190818152602001828054801561220557602002820191906000526020600020905b8160009054906101000a900473ffffffffffffffffffffffffffffffffffffffff1673ffffffffffffffffffffffffffffffffffffffff16815260200190600101908083116121bb575b505050505081526020016003820180548060200260200160405190810160405280929190818152602001828054801561229357602002820191906000526020600020905b8160009054906101000a900473ffffffffffffffffffffffffffffffffffffffff1673ffffffffffffffffffffffffffffffffffffffff1681526020019060010190808311612249575b5050505050815250506122a6828261316c565b8560000160008873ffffffffffffffffffffffffffffffffffffffff1673ffffffffffffffffffffffffffffffffffffffff168152602001908152602001600020600301339080600181540180825580915050600190039060005260206000200160009091909190916101000a81548173ffffffffffffffffffffffffffffffffffffffff021916908373ffffffffffffffffffffffffffffffffffffffff1602179055508673ffffffffffffffffffffffffffffffffffffffff163373ffffffffffffffffffffffffffffffffffffffff1614806123d257506123d18660000160008973ffffffffffffffffffffffffffffffffffffffff1673ffffffffffffffffffffffffffffffffffffffff1681526020019081526020016000206003018054905086611e26565b5b156125ab5761250a61250561246f898960010180548060200260200160405190810160405280929190818152602001828054801561246557602002820191906000526020600020905b8160009054906101000a900473ffffffffffffffffffffffffffffffffffffffff1673ffffffffffffffffffffffffffffffffffffffff168152602001906001019080831161241b575b505050505061323d565b612500896001018054806020026020016040519081016040528092919081815260200182805480156124f657602002820191906000526020600020905b8160009054906101000a900473ffffffffffffffffffffffffffffffffffffffff1673ffffffffffffffffffffffffffffffffffffffff16815260200190600101908083116124ac575b50505050506132ba565b61335f565b61342d565b866001019080519060200190612521929190613625565b508560000160008873ffffffffffffffffffffffffffffffffffffffff1673ffffffffffffffffffffffffffffffffffffffff168152602001908152602001600020600080820160006101000a81549060ff021916905560018201600061258891906135bc565b6002820160006125989190613604565b6003820160006125a89190613604565b50505b50505050505050565b600081600001519050919050565b60608160010180548060200260200160405190810160405280929190818152602001828054801561264857602002820191906000526020600020905b8160009054906101000a900473ffffffffffffffffffffffffffffffffffffffff1673ffffffffffffffffffffffffffffffffffffffff16815260200190600101908083116125fe575b50505050509050919050565b60008260000160008673ffffffffffffffffffffffffffffffffffffffff1673ffffffffffffffffffffffffffffffffffffffff1681526020019081526020016000206040518060800160405290816000820160009054906101000a900460ff16151515158152602001600182018054600181600116156101000203166002900480601f0160208091040260200160405190810160405280929190818152602001828054600181600116156101000203166002900480156127565780601f1061272b57610100808354040283529160200191612756565b820191906000526020600020905b81548152906001019060200180831161273957829003601f168201915b50505050508152602001600282018054806020026020016040519081016040528092919081815260200182805480156127e457602002820191906000526020600020905b8160009054906101000a900473ffffffffffffffffffffffffffffffffffffffff1673ffffffffffffffffffffffffffffffffffffffff168152602001906001019080831161279a575b505050505081526020016003820180548060200260200160405190810160405280929190818152602001828054801561287257602002820191906000526020600020905b8160009054906101000a900473ffffffffffffffffffffffffffffffffffffffff1673ffffffffffffffffffffffffffffffffffffffff1681526020019060010190808311612828575b50505050508152505061288582826130b7565b60008460000160008873ffffffffffffffffffffffffffffffffffffffff1673ffffffffffffffffffffffffffffffffffffffff1681526020019081526020016000206040518060800160405290816000820160009054906101000a900460ff16151515158152602001600182018054600181600116156101000203166002900480601f0160208091040260200160405190810160405280929190818152602001828054600181600116156101000203166002900480156129875780601f1061295c57610100808354040283529160200191612987565b820191906000526020600020905b81548152906001019060200180831161296a57829003601f168201915b5050505050815260200160028201805480602002602001604051908101604052809291908181526020018280548015612a1557602002820191906000526020600020905b8160009054906101000a900473ffffffffffffffffffffffffffffffffffffffff1673ffffffffffffffffffffffffffffffffffffffff16815260200190600101908083116129cb575b5050505050815260200160038201805480602002602001604051908101604052809291908181526020018280548015612aa357602002820191906000526020600020905b8160009054906101000a900473ffffffffffffffffffffffffffffffffffffffff1673ffffffffffffffffffffffffffffffffffffffff1681526020019060010190808311612a59575b505050505081525050612ab6828261316c565b8560000160008973ffffffffffffffffffffffffffffffffffffffff1673ffffffffffffffffffffffffffffffffffffffff168152602001908152602001600020600201805490506000148015612b6557508560000160008973ffffffffffffffffffffffffffffffffffffffff1673ffffffffffffffffffffffffffffffffffffffff1681526020019081526020016000206001018054600181600116156101000203166002900490506000145b15612bc457868660000160008a73ffffffffffffffffffffffffffffffffffffffff1673ffffffffffffffffffffffffffffffffffffffff1681526020019081526020016000206001019080519060200190612bc29291906136af565b505b8560000160008973ffffffffffffffffffffffffffffffffffffffff1673ffffffffffffffffffffffffffffffffffffffff168152602001908152602001600020600201339080600181540180825580915050600190039060005260206000200160009091909190916101000a81548173ffffffffffffffffffffffffffffffffffffffff021916908373ffffffffffffffffffffffffffffffffffffffff160217905550612cba8660000160008a73ffffffffffffffffffffffffffffffffffffffff1673ffffffffffffffffffffffffffffffffffffffff1681526020019081526020016000206002018054905086611e26565b15612d825760018660000160008a73ffffffffffffffffffffffffffffffffffffffff1673ffffffffffffffffffffffffffffffffffffffff16815260200190815260200160002060000160006101000a81548160ff02191690831515021790555085600101889080600181540180825580915050600190039060005260206000200160009091909190916101000a81548173ffffffffffffffffffffffffffffffffffffffff021916908373ffffffffffffffffffffffffffffffffffffffff1602179055505b5050505050505050565b600081600101805490509050919050565b606060018260000160008573ffffffffffffffffffffffffffffffffffffffff1673ffffffffffffffffffffffffffffffffffffffff1681526020019081526020016000206040518060800160405290816000820160009054906101000a900460ff16151515158152602001600182018054600181600116156101000203166002900480601f016020809104026020016040519081016040528092919081815260200182805460018160011615610100020316600290048015612ea15780601f10612e7657610100808354040283529160200191612ea1565b820191906000526020600020905b815481529060010190602001808311612e8457829003601f168201915b5050505050815260200160028201805480602002602001604051908101604052809291908181526020018280548015612f2f57602002820191906000526020600020905b8160009054906101000a900473ffffffffffffffffffffffffffffffffffffffff1673ffffffffffffffffffffffffffffffffffffffff1681526020019060010190808311612ee5575b5050505050815260200160038201805480602002602001604051908101604052809291908181526020018280548015612fbd57602002820191906000526020600020905b8160009054906101000a900473ffffffffffffffffffffffffffffffffffffffff1673ffffffffffffffffffffffffffffffffffffffff1681526020019060010190808311612f73575b505050505081525050612fd082826130b7565b8360000160008673ffffffffffffffffffffffffffffffffffffffff1673ffffffffffffffffffffffffffffffffffffffff1681526020019081526020016000206001018054600181600116156101000203166002900480601f0160208091040260200160405190810160405280929190818152602001828054600181600116156101000203166002900480156130a85780601f1061307d576101008083540402835291602001916130a8565b820191906000526020600020905b81548152906001019060200180831161308b57829003601f168201915b50505050509250505092915050565b811515600015151415613118576130cd816125b4565b15156000151514613113576040517f08c379a000000000000000000000000000000000000000000000000000000000815260040161310a90613fbf565b60405180910390fd5b613168565b613121816125b4565b15156001151514613167576040517f08c379a000000000000000000000000000000000000000000000000000000000815260040161315e90613f1f565b60405180910390fd5b5b5050565b81600181111561317857fe5b6000600181111561318557fe5b14156131e457613199338260400151613500565b151560001515146131df576040517f08c379a00000000000000000000000000000000000000000000000000000000081526004016131d690613f3f565b60405180910390fd5b613239565b6131f2338260600151613500565b15156000151514613238576040517f08c379a000000000000000000000000000000000000000000000000000000000815260040161322f90613f3f565b60405180910390fd5b5b5050565b600080600090505b82518110156132ab5782818151811061325a57fe5b602002602001015173ffffffffffffffffffffffffffffffffffffffff168473ffffffffffffffffffffffffffffffffffffffff16141561329e57809150506132b4565b8080600101915050613245565b50600182510190505b92915050565b60606000825167ffffffffffffffff811180156132d657600080fd5b506040519080825280602002602001820160405280156133055781602001602082028036833780820191505090505b50905060005b83518110156133555761333084828151811061332357fe5b602002602001015161357b565b82828151811061333c57fe5b602002602001018181525050808060010191505061330b565b5080915050919050565b606082825161336e82826135a2565b151560011515146133b4576040517f08c379a00000000000000000000000000000000000000000000000000000000081526004016133ab90613f7f565b60405180910390fd5b60008590505b6001855103811015613402578460018201815181106133d557fe5b60200260200101518582815181106133e957fe5b60200260200101818152505080806001019150506133ba565b508360018551038151811061341357fe5b602002602001016000801916815250839250505092915050565b60606000825167ffffffffffffffff8111801561344957600080fd5b506040519080825280602002602001820160405280156134785781602001602082028036833780820191505090505b50905060005b83518110156134f6576134a384828151811061349657fe5b60200260200101516135af565b8282815181106134af57fe5b602002602001019073ffffffffffffffffffffffffffffffffffffffff16908173ffffffffffffffffffffffffffffffffffffffff1681525050808060010191505061347e565b5080915050919050565b600080600090505b825181101561356f5782818151811061351d57fe5b602002602001015173ffffffffffffffffffffffffffffffffffffffff168473ffffffffffffffffffffffffffffffffffffffff161415613562576001915050613575565b8080600101915050613508565b50600090505b92915050565b600060608273ffffffffffffffffffffffffffffffffffffffff16901b60001b9050919050565b6000828211905092915050565b60008160001c9050919050565b50805460018160011615610100020316600290046000825580601f106135e25750613601565b601f016020900490600052602060002090810190613600919061373d565b5b50565b5080546000825590600052602060002090810190613622919061373d565b50565b82805482825590600052602060002090810192821561369e579160200282015b8281111561369d5782518260006101000a81548173ffffffffffffffffffffffffffffffffffffffff021916908373ffffffffffffffffffffffffffffffffffffffff16021790555091602001919060010190613645565b5b5090506136ab919061373d565b5090565b828054600181600116156101000203166002900490600052602060002090601f0160209004810192826136e5576000855561372c565b82601f106136fe57805160ff191683800117855561372c565b8280016001018555821561372c579182015b8281111561372b578251825591602001919060010190613710565b5b509050613739919061373d565b5090565b5b8082111561375657600081600090555060010161373e565b5090565b600061376d61376884614054565b614023565b90508281526020810184848401111561378557600080fd5b61379084828561419d565b509392505050565b6000813590506137a781614206565b92915050565b6000815190506137bc8161421d565b92915050565b6000813590506137d181614234565b92915050565b600082601f8301126137e857600080fd5b81356137f884826020860161375a565b91505092915050565b60006020828403121561381357600080fd5b600061382184828501613798565b91505092915050565b60008060006060848603121561383f57600080fd5b600061384d86828701613798565b935050602061385e868287016137c2565b925050604061386f86828701613798565b9150509250925092565b6000806040838503121561388c57600080fd5b600061389a85828601613798565b925050602083013567ffffffffffffffff8111156138b757600080fd5b6138c3858286016137d7565b9150509250929050565b6000602082840312156138df57600080fd5b60006138ed848285016137ad565b91505092915050565b60006139028383613926565b60208301905092915050565b600061391a8383613944565b60208301905092915050565b61392f81614126565b82525050565b61393e81614126565b82525050565b61394d81614126565b82525050565b600061395e826140a9565b61396881856140d7565b935061397383614084565b8060005b838110156139a457815161398b88826138f6565b9750613996836140ca565b925050600181019050613977565b5085935050505092915050565b60006139bc826140a9565b6139c681856140e8565b93506139d183614084565b8060005b83811015613a025781516139e9888261390e565b97506139f4836140ca565b9250506001810190506139d5565b5085935050505092915050565b613a1881614138565b82525050565b613a2781614138565b82525050565b613a3681614138565b82525050565b613a4581614144565b82525050565b6000613a56826140b4565b613a6081856140f9565b9350613a708185602086016141ac565b613a79816141e1565b840191505092915050565b613a8d8161418b565b82525050565b6000613a9e826140bf565b613aa8818561410a565b9350613ab88185602086016141ac565b613ac1816141e1565b840191505092915050565b6000613ad7826140bf565b613ae1818561411b565b9350613af18185602086016141ac565b80840191505092915050565b600081546001811660008114613b1a5760018114613b4057613b84565b607f6002830416613b2b818761410a565b955060ff198316865260208601935050613b84565b60028204613b4e818761410a565b9550613b5985614094565b60005b82811015613b7b57815481890152600182019150602081019050613b5c565b80880195505050505b505092915050565b6000613b9960038361410a565b91507f45433700000000000000000000000000000000000000000000000000000000006000830152602082019050919050565b6000613bd960038361410a565b91507f45433500000000000000000000000000000000000000000000000000000000006000830152602082019050919050565b6000613c1960038361410a565b91507f45433900000000000000000000000000000000000000000000000000000000006000830152602082019050919050565b6000613c5960038361410a565b91507f45433100000000000000000000000000000000000000000000000000000000006000830152602082019050919050565b6000613c9960078361411b565b91507f50726976617465000000000000000000000000000000000000000000000000006000830152600782019050919050565b6000613cd960048361410a565b91507f45433130000000000000000000000000000000000000000000000000000000006000830152602082019050919050565b6000613d1960038361410a565b91507f45433600000000000000000000000000000000000000000000000000000000006000830152602082019050919050565b6000608083016000830151613d646000860182613a2d565b5060208301518482036020860152613d7c8282613a4b565b91505060408301518482036040860152613d9682826139b1565b91505060608301518482036060860152613db082826139b1565b9150508091505092915050565b613dc681614181565b82525050565b613dd581614181565b82525050565b6000613de78284613acc565b915081905092915050565b6000613dfd82613c8c565b9150819050919050565b60006020820190508181036000830152613e218184613953565b905092915050565b6000602082019050613e3e6000830184613a0f565b92915050565b6000604082019050613e596000830185613a1e565b8181036020830152613e6b8184613d4c565b90509392505050565b6000604082019050613e896000830185613a3c565b613e966020830184613935565b9392505050565b6000604082019050613eb26000830185613a84565b8181036020830152613ec48184613d4c565b90509392505050565b60006020820190508181036000830152613ee78184613a93565b905092915050565b60006040820190508181036000830152613f098185613afd565b9050613f186020830184613935565b9392505050565b60006020820190508181036000830152613f3881613b8c565b9050919050565b60006020820190508181036000830152613f5881613bcc565b9050919050565b60006020820190508181036000830152613f7881613c0c565b9050919050565b60006020820190508181036000830152613f9881613c4c565b9050919050565b60006020820190508181036000830152613fb881613ccc565b9050919050565b60006020820190508181036000830152613fd881613d0c565b9050919050565b6000602082019050613ff46000830184613dbd565b92915050565b600060408201905061400f6000830185613dcc565b61401c6020830184613dcc565b9392505050565b6000604051905081810181811067ffffffffffffffff8211171561404a576140496141df565b5b8060405250919050565b600067ffffffffffffffff82111561406f5761406e6141df565b5b601f19601f8301169050602081019050919050565b6000819050602082019050919050565b60008190508160005260206000209050919050565b600081519050919050565b600081519050919050565b600081519050919050565b6000602082019050919050565b600082825260208201905092915050565b600082825260208201905092915050565b600082825260208201905092915050565b600082825260208201905092915050565b600081905092915050565b600061413182614161565b9050919050565b60008115159050919050565b6000819050919050565b600081905061415c826141f2565b919050565b600073ffffffffffffffffffffffffffffffffffffffff82169050919050565b6000819050919050565b60006141968261414e565b9050919050565b82818337600083830152505050565b60005b838110156141ca5780820151818401526020810190506141af565b838111156141d9576000848401525b50505050565bfe5b6000601f19601f8301169050919050565b60028110614203576142026141df565b5b50565b61420f81614126565b811461421a57600080fd5b50565b61422681614138565b811461423157600080fd5b50565b61423d81614144565b811461424857600080fd5b5056fea2646970667358221220d6e18fa437d5601ea788e23a6454c65154bc69b44a96a8e76099de003020d92964736f6c63430007060033",
  "immutableReferences": {},
  "source": "// SPDX-License-Identifier: GPL-3.0\r\n\r\npragma solidity >=0.7.0 <0.9.0;\r\npragma experimental ABIEncoderV2;\r\n\r\n/**\r\n * @title Storage\r\n * @dev Store & retrieve value in a variable\r\n */\r\n import \"./Libraries/Library.sol\";\r\n import \"./Interfaces/IProvider.sol\";\r\n import \"./Abstract/MultiSigContract.sol\";\r\n import \"./PrivateCertificatesPool.sol\";\r\n import \"./PublicCertificatesPool.sol\";\r\n\r\n\r\n contract Provider is IProvider, MultiSigContract {\r\n     using Library for *;\r\n\r\n     uint256 constant TotalEntities = 2;\r\n\r\n    // Owners\r\n    uint256 constant _ownerIdProviders = 0;\r\n    string constant _ownerLabel = \"Owner\";\r\n\r\n    // Pools\r\n    uint256 constant _poolId = 1;\r\n    string constant _poolLabel = \"Pool\";\r\n\r\n    string[] _Label = [_ownerLabel, _poolLabel];\r\n    \r\n    struct _CertificateStruct{\r\n        mapping(bytes32 => Library._entityIdentity) _cert;\r\n    }\r\n    \r\n    struct _CertificatesPerHolderStruct{\r\n        mapping(address => _CertificateStruct) _CertificatesPerHolder;\r\n    }\r\n   \r\n    mapping(address => _CertificatesPerHolderStruct) _CertificatesPerPool;\r\n\r\n    // modifiers\r\n    modifier isAPool(address pool){\r\n        require(true == isPool(pool));\r\n        _;\r\n    }\r\n    \r\n    modifier isEntityActivated(bool YesOrNo, Library._entityIdentity memory Entity){\r\n        Library.EntityActivated(YesOrNo, Entity);\r\n        _;\r\n    }\r\n    \r\n    modifier HasNotAlreadyVoted(Library.Actions action, Library._entityIdentity memory Entity){\r\n        Library.NotAlreadyVoted(action, Entity);\r\n        _;\r\n    }\r\n\r\n     // Constructor\r\n    constructor(address[] memory owners,  uint256 minOwners) \r\n        MultiSigContract(owners, minOwners, TotalEntities, _Label, _ownerIdProviders)\r\n    payable\r\n    {}\r\n\r\n    // POOL CRUD Operations\r\n    function addPool(address pool, string memory poolInfo) external override{\r\n        addEntity(pool, bytes(poolInfo), _poolId);\r\n    }\r\n\r\n    function removePool(address pool) external override{\r\n       removeEntity(pool, _poolId); \r\n    }\r\n    \r\n    function retrievePool(address pool) external override view returns (string memory){\r\n        return InternalRetrievePool(pool);\r\n    }\r\n    \r\n    function InternalRetrievePool(address pool) internal view returns (string memory){\r\n        return string(retrieveEntity(pool, _poolId));\r\n    }\r\n\r\n    function retrieveAllPools() external override view returns (address[] memory){\r\n        return(retrieveAllEntities(_poolId));\r\n    }\r\n    \r\n    function retrieveTotalPools() external override view returns (uint){\r\n        return (retrieveTotalEntities(_poolId));\r\n    }\r\n\r\n    function isPool(address pool) public view returns (bool){\r\n        return(isEntity(pool, _poolId));\r\n    }\r\n    \r\n    // Certificates management\r\n     function addCertificate(address pool, bytes32 CertificateHash, address holder) external override\r\n     {\r\n        manipulateCertificate(pool, CertificateHash, holder, Library.Actions.Add);\r\n     }\r\n     \r\n     function removeCertificate(address pool, bytes32 CertificateHash, address holder) external override\r\n     {\r\n         manipulateCertificate(pool, CertificateHash, holder, Library.Actions.Remove);\r\n     }\r\n\r\n    \r\n    function manipulateCertificate(address pool, bytes32 CertificateHash, address holder, Library.Actions act) \r\n        isAPool(pool)\r\n        isAnOwner\r\n        isEntityActivated(act == Library.Actions.Remove,  _CertificatesPerPool[pool]._CertificatesPerHolder[holder]._cert[CertificateHash])\r\n        HasNotAlreadyVoted(Library.Actions.Add, _CertificatesPerPool[pool]._CertificatesPerHolder[holder]._cert[CertificateHash])\r\n    internal{\r\n        \r\n        uint validations;\r\n        \r\n        if(act == Library.Actions.Add){\r\n            _CertificatesPerPool[pool]._CertificatesPerHolder[holder]._cert[CertificateHash]._AddValidated.push(msg.sender);\r\n            validations = _CertificatesPerPool[pool]._CertificatesPerHolder[holder]._cert[CertificateHash]._AddValidated.length;\r\n        }\r\n        else{\r\n            _CertificatesPerPool[pool]._CertificatesPerHolder[holder]._cert[CertificateHash]._RemoveValidated.push(msg.sender);\r\n            validations = _CertificatesPerPool[pool]._CertificatesPerHolder[holder]._cert[CertificateHash]._RemoveValidated.length;\r\n        }\r\n\r\n        if(Library.CheckValidations(validations, _minOwners)){\r\n            MultiSigCertificatesPool poolToSend;\r\n            \r\n            if(keccak256(abi.encodePacked(\"Private\")) == keccak256(abi.encodePacked((InternalRetrievePool(pool))))){\r\n                poolToSend = PrivateCertificatesPool(pool);\r\n            }\r\n            else {\r\n                poolToSend = PublicCertificatesPool(pool);\r\n            }\r\n            \r\n            \r\n            if(act == Library.Actions.Add){\r\n                poolToSend.addCertificate(CertificateHash, holder);\r\n            }\r\n            else{\r\n               poolToSend.removeCertificate(CertificateHash, holder);\r\n            }\r\n            \r\n            delete(_CertificatesPerPool[pool]._CertificatesPerHolder[holder]._cert[CertificateHash]);\r\n            \r\n        }\r\n    }\r\n    \r\n }",
  "sourcePath": "C:/Users/d-aam/GitHub/Certificates/contracts/Provider.sol",
  "compiler": {
    "name": "solc",
    "version": "0.7.6+commit.7338295f.Emscripten.clang"
  },
  "schemaVersion": "3.3.4",
  "updatedAt": "2021-05-26T13:47:12.406Z",
  "devdoc": {
    "kind": "dev",
    "methods": {},
    "version": 1
  },
  "userdoc": {
    "kind": "user",
    "methods": {},
    "version": 1
  }
}