{
  "contractName": "Provider",
  "abi": [
    {
      "anonymous": false,
      "inputs": [
        {
          "indexed": true,
          "internalType": "string",
          "name": "",
          "type": "string"
        },
        {
          "indexed": true,
          "internalType": "address",
          "name": "",
          "type": "address"
        },
        {
          "indexed": true,
          "internalType": "string",
          "name": "",
          "type": "string"
        }
      ],
      "name": "_AddEntityRejectionIdEvent",
      "type": "event"
    },
    {
      "anonymous": false,
      "inputs": [
        {
          "indexed": true,
          "internalType": "string",
          "name": "",
          "type": "string"
        },
        {
          "indexed": true,
          "internalType": "address",
          "name": "",
          "type": "address"
        },
        {
          "indexed": true,
          "internalType": "string",
          "name": "",
          "type": "string"
        }
      ],
      "name": "_AddEntityValidationIdEvent",
      "type": "event"
    },
    {
      "anonymous": false,
      "inputs": [
        {
          "indexed": true,
          "internalType": "string",
          "name": "",
          "type": "string"
        },
        {
          "indexed": true,
          "internalType": "address",
          "name": "",
          "type": "address"
        },
        {
          "indexed": true,
          "internalType": "string",
          "name": "",
          "type": "string"
        }
      ],
      "name": "_RemoveEntityRejectionIdEvent",
      "type": "event"
    },
    {
      "anonymous": false,
      "inputs": [
        {
          "indexed": true,
          "internalType": "string",
          "name": "",
          "type": "string"
        },
        {
          "indexed": true,
          "internalType": "address",
          "name": "",
          "type": "address"
        },
        {
          "indexed": true,
          "internalType": "string",
          "name": "",
          "type": "string"
        }
      ],
      "name": "_RemoveEntityValidationIdEvent",
      "type": "event"
    },
    {
      "inputs": [
        {
          "internalType": "address[]",
          "name": "owners",
          "type": "address[]"
        },
        {
          "internalType": "uint256",
          "name": "minOwners",
          "type": "uint256"
        },
        {
          "internalType": "uint256",
          "name": "TotalEntities",
          "type": "uint256"
        },
        {
          "internalType": "string[]",
          "name": "labels",
          "type": "string[]"
        },
        {
          "internalType": "uint256",
          "name": "ownerId",
          "type": "uint256"
        }
      ],
      "name": "MultiSigContract_init",
      "outputs": [],
      "stateMutability": "nonpayable",
      "type": "function"
    },
    {
      "inputs": [
        {
          "internalType": "address",
          "name": "owner",
          "type": "address"
        },
        {
          "internalType": "string",
          "name": "ownerInfo",
          "type": "string"
        }
      ],
      "name": "addOwner",
      "outputs": [],
      "stateMutability": "nonpayable",
      "type": "function"
    },
    {
      "inputs": [
        {
          "internalType": "address",
          "name": "owner",
          "type": "address"
        }
      ],
      "name": "isOwner",
      "outputs": [
        {
          "internalType": "bool",
          "name": "",
          "type": "bool"
        }
      ],
      "stateMutability": "view",
      "type": "function"
    },
    {
      "inputs": [
        {
          "internalType": "address",
          "name": "owner",
          "type": "address"
        }
      ],
      "name": "rejectOwner",
      "outputs": [],
      "stateMutability": "nonpayable",
      "type": "function"
    },
    {
      "inputs": [
        {
          "internalType": "address",
          "name": "owner",
          "type": "address"
        }
      ],
      "name": "removeOwner",
      "outputs": [],
      "stateMutability": "nonpayable",
      "type": "function"
    },
    {
      "inputs": [],
      "name": "retrieveAllOwners",
      "outputs": [
        {
          "internalType": "address[]",
          "name": "",
          "type": "address[]"
        }
      ],
      "stateMutability": "view",
      "type": "function"
    },
    {
      "inputs": [],
      "name": "retrieveMinOwners",
      "outputs": [
        {
          "internalType": "uint256",
          "name": "",
          "type": "uint256"
        }
      ],
      "stateMutability": "view",
      "type": "function"
    },
    {
      "inputs": [
        {
          "internalType": "address",
          "name": "owner",
          "type": "address"
        }
      ],
      "name": "retrieveOwner",
      "outputs": [
        {
          "internalType": "string",
          "name": "",
          "type": "string"
        },
        {
          "internalType": "bool",
          "name": "",
          "type": "bool"
        }
      ],
      "stateMutability": "view",
      "type": "function"
    },
    {
      "inputs": [
        {
          "internalType": "bool",
          "name": "addedORremove",
          "type": "bool"
        }
      ],
      "name": "retrievePendingOwners",
      "outputs": [
        {
          "internalType": "address[]",
          "name": "",
          "type": "address[]"
        },
        {
          "internalType": "string[]",
          "name": "",
          "type": "string[]"
        }
      ],
      "stateMutability": "view",
      "type": "function"
    },
    {
      "inputs": [
        {
          "internalType": "address",
          "name": "owner",
          "type": "address"
        }
      ],
      "name": "validateOwner",
      "outputs": [],
      "stateMutability": "nonpayable",
      "type": "function"
    },
    {
      "stateMutability": "payable",
      "type": "receive"
    },
    {
      "inputs": [
        {
          "internalType": "address[]",
          "name": "owners",
          "type": "address[]"
        },
        {
          "internalType": "uint256",
          "name": "minOwners",
          "type": "uint256"
        },
        {
          "internalType": "string",
          "name": "ProviderInfo",
          "type": "string"
        }
      ],
      "name": "Provider_init",
      "outputs": [],
      "stateMutability": "nonpayable",
      "type": "function"
    },
    {
      "inputs": [
        {
          "internalType": "address",
          "name": "pool",
          "type": "address"
        },
        {
          "internalType": "string",
          "name": "poolInfo",
          "type": "string"
        },
        {
          "internalType": "uint256",
          "name": "AddCertificatePrice",
          "type": "uint256"
        },
        {
          "internalType": "uint256",
          "name": "SubscriptionPrice",
          "type": "uint256"
        }
      ],
      "name": "addPool",
      "outputs": [],
      "stateMutability": "nonpayable",
      "type": "function"
    },
    {
      "inputs": [
        {
          "internalType": "address",
          "name": "pool",
          "type": "address"
        }
      ],
      "name": "removePool",
      "outputs": [],
      "stateMutability": "nonpayable",
      "type": "function"
    },
    {
      "inputs": [
        {
          "internalType": "address",
          "name": "pool",
          "type": "address"
        }
      ],
      "name": "validatePool",
      "outputs": [],
      "stateMutability": "nonpayable",
      "type": "function"
    },
    {
      "inputs": [
        {
          "internalType": "address",
          "name": "pool",
          "type": "address"
        }
      ],
      "name": "rejectPool",
      "outputs": [],
      "stateMutability": "nonpayable",
      "type": "function"
    },
    {
      "inputs": [
        {
          "internalType": "address",
          "name": "pool",
          "type": "address"
        }
      ],
      "name": "retrievePool",
      "outputs": [
        {
          "internalType": "string",
          "name": "",
          "type": "string"
        },
        {
          "internalType": "bool",
          "name": "",
          "type": "bool"
        },
        {
          "internalType": "uint256",
          "name": "",
          "type": "uint256"
        },
        {
          "internalType": "uint256",
          "name": "",
          "type": "uint256"
        }
      ],
      "stateMutability": "view",
      "type": "function"
    },
    {
      "inputs": [],
      "name": "retrieveAllPools",
      "outputs": [
        {
          "internalType": "address[]",
          "name": "",
          "type": "address[]"
        }
      ],
      "stateMutability": "view",
      "type": "function"
    },
    {
      "inputs": [
        {
          "internalType": "address",
          "name": "pool",
          "type": "address"
        }
      ],
      "name": "isPool",
      "outputs": [
        {
          "internalType": "bool",
          "name": "",
          "type": "bool"
        }
      ],
      "stateMutability": "view",
      "type": "function"
    },
    {
      "inputs": [
        {
          "internalType": "address",
          "name": "pool",
          "type": "address"
        },
        {
          "internalType": "bytes32",
          "name": "CertificateHash",
          "type": "bytes32"
        },
        {
          "internalType": "address",
          "name": "holder",
          "type": "address"
        }
      ],
      "name": "addCertificate",
      "outputs": [],
      "stateMutability": "nonpayable",
      "type": "function"
    },
    {
      "inputs": [
        {
          "internalType": "address",
          "name": "pool",
          "type": "address"
        },
        {
          "internalType": "bytes32",
          "name": "CertificateHash",
          "type": "bytes32"
        },
        {
          "internalType": "address",
          "name": "holder",
          "type": "address"
        }
      ],
      "name": "validateCertificate",
      "outputs": [],
      "stateMutability": "nonpayable",
      "type": "function"
    },
    {
      "inputs": [
        {
          "internalType": "address",
          "name": "pool",
          "type": "address"
        },
        {
          "internalType": "bytes32",
          "name": "CertificateHash",
          "type": "bytes32"
        },
        {
          "internalType": "address",
          "name": "holder",
          "type": "address"
        }
      ],
      "name": "rejectCertificate",
      "outputs": [],
      "stateMutability": "nonpayable",
      "type": "function"
    },
    {
      "inputs": [
        {
          "internalType": "address",
          "name": "pool",
          "type": "address"
        },
        {
          "internalType": "bytes32",
          "name": "CertificateHash",
          "type": "bytes32"
        },
        {
          "internalType": "address",
          "name": "holder",
          "type": "address"
        }
      ],
      "name": "isCertificate",
      "outputs": [
        {
          "internalType": "bool",
          "name": "",
          "type": "bool"
        }
      ],
      "stateMutability": "view",
      "type": "function"
    },
    {
      "inputs": [
        {
          "internalType": "bytes32",
          "name": "item",
          "type": "bytes32"
        },
        {
          "internalType": "uint256[]",
          "name": "ids",
          "type": "uint256[]"
        },
        {
          "internalType": "bool",
          "name": "addOrRemove",
          "type": "bool"
        }
      ],
      "name": "onItemValidated",
      "outputs": [],
      "stateMutability": "nonpayable",
      "type": "function"
    },
    {
      "inputs": [
        {
          "internalType": "bytes32",
          "name": "item",
          "type": "bytes32"
        },
        {
          "internalType": "uint256[]",
          "name": "ids",
          "type": "uint256[]"
        },
        {
          "internalType": "bool",
          "name": "addOrRemove",
          "type": "bool"
        }
      ],
      "name": "onItemRejected",
      "outputs": [],
      "stateMutability": "nonpayable",
      "type": "function"
    }
  ],
  "bytecode": "0x608060405234801561001057600080fd5b5061447d806100206000396000f3fe60806040526004361061011f5760003560e01c8063017cb3db1461012b57806314a2ed2f1461014d578063173825d91461016d5780632d99aaf21461018d5780632f54bf6e146101b85780633542758f146101e85780633b7d0946146102085780633fd07181146102285780635b16ebb71461024857806365b973e5146102685780636b2996041461028657806376f8f90f146102b457806377bc5a1f146102d45780637c8c2add146103025780638fc2d8ea14610322578063a44bff2b14610352578063a706752c14610372578063a93d5ed614610392578063b683e37b146103a7578063bd9f3705146103c7578063ce33d58a146103e7578063cf2041d914610407578063d920928914610427578063fb1f69171461044757600080fd5b3661012657005b600080fd5b34801561013757600080fd5b5061014b610146366004613911565b610467565b005b34801561015957600080fd5b5061014b610168366004613911565b610703565b34801561017957600080fd5b5061014b6101883660046138d0565b6108d7565b34801561019957600080fd5b506101a2610923565b6040516101af9190613fcb565b60405180910390f35b3480156101c457600080fd5b506101d86101d33660046138d0565b610934565b60405190151581526020016101af565b3480156101f457600080fd5b5061014b610203366004613953565b610948565b34801561021457600080fd5b5061014b6102233660046138d0565b610956565b34801561023457600080fd5b5061014b610243366004613d6f565b610964565b34801561025457600080fd5b506101d86102633660046138d0565b610a36565b34801561027457600080fd5b506001546040519081526020016101af565b34801561029257600080fd5b506102a66102a1366004613d1c565b610a43565b6040516101af929190613fde565b3480156102c057600080fd5b5061014b6102cf3660046138d0565b610a5b565b3480156102e057600080fd5b506102f46102ef3660046138d0565b610ab6565b6040516101af9291906140a2565b34801561030e57600080fd5b5061014b61031d366004613d6f565b610ac6565b34801561032e57600080fd5b5061034261033d3660046138d0565b610d78565b6040516101af94939291906140c6565b34801561035e57600080fd5b5061014b61036d366004613aad565b610dc2565b34801561037e57600080fd5b506101d861038d366004613911565b611002565b34801561039e57600080fd5b506101a26110ba565b3480156103b357600080fd5b5061014b6103c23660046139a7565b6110c7565b3480156103d357600080fd5b5061014b6103e2366004613911565b611135565b3480156103f357600080fd5b5061014b6104023660046138d0565b611387565b34801561041357600080fd5b5061014b610422366004613b19565b611393565b34801561043357600080fd5b5061014b6104423660046138d0565b61166a565b34801561045357600080fd5b5061014b6104623660046138d0565b611675565b8261047181610a36565b151560011461047f57600080fd5b61048b33600054611680565b15156001146104b55760405162461bcd60e51b81526004016104ac906141ba565b60405180910390fd5b60018385846104c5828483611871565b1515600114806104e157506104db8284836118cf565b15156001145b6104fd5760405162461bcd60e51b81526004016104ac9061414e565b6001600160a01b038089166000908152600660209081526040808320938a1683529290528190209051633db691ef60e11b815288918a91899173__ItemsLibrary__________________________91637b6d23de916105629133918891600401613ef1565b60206040518083038186803b15801561057a57600080fd5b505af415801561058e573d6000803e3d6000fd5b505050506040513d601f19601f820116820180604052508101906105b29190613d39565b156105cf5760405162461bcd60e51b81526004016104ac90614131565b6001600160a01b038b166000908152600660205260408120906105f28d8c61192f565b905060006040518060c001604052808e815260200160405180602001604052806000815250815260200160015481526020016040518060400160405280600b81526020016a436572746966696361746560a81b815250815260200183815260200160001515815250905060008360000160008e6001600160a01b03166001600160a01b03168152602001908152602001600020905073__ItemsLibrary__________________________635cb09bcf8383306040518463ffffffff1660e01b81526004016106c293929190614211565b60006040518083038186803b1580156106da57600080fd5b505af41580156106ee573d6000803e3d6000fd5b50505050505050505050505050505050505050565b8261070d81610a36565b151560011461071b57600080fd5b61072733600054611680565b15156001146107485760405162461bcd60e51b81526004016104ac906141ba565b6000838584610758828483611002565b156107755760405162461bcd60e51b81526004016104ac906141f4565b6000878988610785828483611871565b156107a25760405162461bcd60e51b81526004016104ac90614113565b6001600160a01b038c166000908152600660205260408120906107c58e8d61192f565b905060006040518060c001604052808f815260200160405180602001604052806000815250815260200160015481526020016040518060400160405280600b81526020016a436572746966696361746560a81b815250815260200183815260200160001515815250905060008360000160008f6001600160a01b03166001600160a01b03168152602001908152602001600020905073__ItemsLibrary__________________________630b985aaa8383306040518463ffffffff1660e01b815260040161089593929190614211565b60006040518083038186803b1580156108ad57600080fd5b505af41580156108c1573d6000803e3d6000fd5b5050505050505050505050505050505050505050565b60015460016108e7600054611ac6565b516108f29190614349565b808211156109125760405162461bcd60e51b81526004016104ac906140f5565b61091e83600054611caf565b505050565b606061092f6001611ac6565b905090565b600061094282600054611680565b92915050565b61091e838383600054612056565b610961816001611caf565b50565b610970848484846123cd565b600183836000818110610985576109856143f8565b905060200201351415610a305760405163162488eb60e31b81526004810185905260009073__AddressLibrary________________________9063b12447589060240160206040518083038186803b1580156109e057600080fd5b505af41580156109f4573d6000803e3d6000fd5b505050506040513d601f19601f82011682018060405250810190610a1891906138f4565b905060018215151415610a2e57610a2e8161248d565b505b50505050565b6000610942826001611680565b606080610a52836000546124c3565b91509150915091565b610a67816000546126d0565b151560011415610aaa576001610a7e600054611ac6565b51610a899190614349565b6001541115610aaa5760405162461bcd60e51b81526004016104ac906140f5565b6109618160005461283c565b60606000610a5283600054612ccd565b610ad2848484846123cd565b600183836000818110610ae757610ae76143f8565b905060200201351415610c095760405163162488eb60e31b81526004810185905260009073__AddressLibrary________________________9063b12447589060240160206040518083038186803b158015610b4257600080fd5b505af4158015610b56573d6000803e3d6000fd5b505050506040513d601f19601f82011682018060405250810190610b7a91906138f4565b905081610b8f57610b8a8161248d565b610c03565b6001600160a01b0381166000818152600860205260409081902054905162fc000560e81b815283929163fc00050091610bcf903090600a90600401613f12565b6000604051808303818588803b158015610be857600080fd5b505af1158015610bfc573d6000803e3d6000fd5b5050505050505b50610a30565b600283836000818110610c1e57610c1e6143f8565b905060200201351415610a3057610a3073__AddressLibrary________________________63b1e2771485856001818110610c5b57610c5b6143f8565b905060200201356040518263ffffffff1660e01b8152600401610c8091815260200190565b60206040518083038186803b158015610c9857600080fd5b505af4158015610cac573d6000803e3d6000fd5b505050506040513d601f19601f82011682018060405250810190610cd091906138f4565b8573__AddressLibrary________________________63b1e2771487876002818110610cfe57610cfe6143f8565b905060200201356040518263ffffffff1660e01b8152600401610d2391815260200190565b60206040518083038186803b158015610d3b57600080fd5b505af4158015610d4f573d6000803e3d6000fd5b505050506040513d601f19601f82011682018060405250810190610d7391906138f4565b612eca565b6060600080600060606000610d8c87612fc3565b6001600160a01b039890981660009081526007602090815260408083205460089092529091205491999097509095509350505050565b600454610100900460ff1680610ddb575060045460ff16155b610df75760405162461bcd60e51b81526004016104ac9061416c565b600454610100900460ff16158015610e19576004805461ffff19166101011790555b6040805160028082526060820190925290816020015b6060815260200190600190039081610e2f5750508051610e57916005916020909101906135ce565b506040518060400160405280600581526020016427bbb732b960d91b8152506005600081548110610e8a57610e8a6143f8565b906000526020600020019080519060200190610ea792919061362b565b5060405180604001604052806004815260200163141bdbdb60e21b8152506005600181548110610ed957610ed96143f8565b906000526020600020019080519060200190610ef692919061362b565b50610fd7848460026005805480602002602001604051908101604052809291908181526020016000905b82821015610fcc578382906000526020600020018054610f3f9061438c565b80601f0160208091040260200160405190810160405280929190818152602001828054610f6b9061438c565b8015610fb85780601f10610f8d57610100808354040283529160200191610fb8565b820191906000526020600020905b815481529060010190602001808311610f9b57829003601f168201915b505050505081526020019060010190610f20565b505050506000611393565b8151610fea90600a90602085019061362b565b508015610a30576004805461ff001916905550505050565b6001600160a01b038084166000908152600660209081526040808320938516835292905281812091516336f7efbb60e21b8152909173__ItemsLibrary__________________________9163dbdfbeec9161106291879190600401614094565b60206040518083038186803b15801561107a57600080fd5b505af415801561108e573d6000803e3d6000fd5b505050506040513d601f19601f820116820180604052508101906110b29190613d39565b949350505050565b606061092f600054611ac6565b6110d48585856001612056565b6001600160a01b03851660009081526009602052604090205460ff16610a2e576001600160a01b03851660009081526007602090815260408083208590556008825280832084905560099091529020805460ff191660011790555050505050565b8261113f81610a36565b151560011461114d57600080fd5b61115933600054611680565b151560011461117a5760405162461bcd60e51b81526004016104ac906141ba565b600183858461118a828483611871565b1515600114806111a657506111a08284836118cf565b15156001145b6111c25760405162461bcd60e51b81526004016104ac9061414e565b6001600160a01b038089166000908152600660209081526040808320938a1683529290528190209051633db691ef60e11b815288918a91899173__ItemsLibrary__________________________91637b6d23de916112279133918891600401613ef1565b60206040518083038186803b15801561123f57600080fd5b505af4158015611253573d6000803e3d6000fd5b505050506040513d601f19601f820116820180604052508101906112779190613d39565b156112945760405162461bcd60e51b81526004016104ac90614131565b6001600160a01b038b166000908152600660205260408120906112b78d8c61192f565b905060006040518060c001604052808e815260200160405180602001604052806000815250815260200160015481526020016040518060400160405280600b81526020016a436572746966696361746560a81b815250815260200183815260200160001515815250905060008360000160008e6001600160a01b03166001600160a01b03168152602001908152602001600020905073__ItemsLibrary__________________________637493a70b8383306040518463ffffffff1660e01b81526004016106c293929190614211565b61096181600054612fd2565b600454610100900460ff16806113ac575060045460ff16155b6113c85760405162461bcd60e51b81526004016104ac9061416c565b600454610100900460ff161580156113ea576004805461ffff19166101011790555b85518511156114245760405162461bcd60e51b81526004016104ac9060208082526004908201526322a1989b60e11b604082015260600190565b6000851161145d5760405162461bcd60e51b81526004016104ac906020808252600490820152634543313760e01b604082015260600190565b825184146114965760405162461bcd60e51b81526004016104ac9060208082526004908201526308a8662760e31b604082015260600190565b60008281555b8481101561150c5760028054600101815560005283516003908590839081106114c7576114c76143f8565b602090810291909101810151825460018101845560009384529282902081516114f9949190910192919091019061362b565b5080611504816143c7565b91505061149c565b50600185905560005b865181101561164f57600073__AddressLibrary________________________634d84c52489848151811061154c5761154c6143f8565b60200260200101516040518263ffffffff1660e01b81526004016115709190613edd565b60206040518083038186803b15801561158857600080fd5b505af415801561159c573d6000803e3d6000fd5b505050506040513d601f19601f820116820180604052508101906115c09190613d56565b905060016002600054815481106115d9576115d96143f8565b60009182526020808320858452600492909202909101905260408120805460ff1916921515929092179091555460028054909190811061161b5761161b6143f8565b6000918252602080832060016004909302018201805492830181558352909120015580611647816143c7565b915050611515565b508015611662576004805461ff00191690555b505050505050565b61096181600161283c565b610961816001612fd2565b60025460405163123bd07560e11b8152600091839173__Library_______________________________90632477a0ea906116c19085908590600401614094565b60206040518083038186803b1580156116d957600080fd5b505af41580156116ed573d6000803e3d6000fd5b505050506040513d601f19601f820116820180604052508101906117119190613d39565b15156001146117325760405162461bcd60e51b81526004016104ac906141d7565b604051631361314960e21b815260009073__AddressLibrary________________________90634d84c5249061176c908990600401613edd565b60206040518083038186803b15801561178457600080fd5b505af4158015611798573d6000803e3d6000fd5b505050506040513d601f19601f820116820180604052508101906117bc9190613d56565b905073__ItemsLibrary__________________________63dbdfbeec82600288815481106117ec576117ec6143f8565b90600052602060002090600402016040518363ffffffff1660e01b8152600401611817929190614094565b60206040518083038186803b15801561182f57600080fd5b505af4158015611843573d6000803e3d6000fd5b505050506040513d601f19601f820116820180604052508101906118679190613d39565b9695505050505050565b6001600160a01b0380841660009081526006602090815260408083209385168352929052818120915162136bb360e11b8152909173__ItemsLibrary__________________________916226d7669161106291879190600401614094565b6001600160a01b0380841660009081526006602090815260408083209385168352929052818120915163142a769760e11b8152909173__ItemsLibrary__________________________91632854ed2e9161106291879190600401614094565b604080516003808252608082019092526060916000919060208201848036833701905050905060028160008151811061196a5761196a6143f8565b602090810291909101015260405163cf0668ed60e01b815273__AddressLibrary________________________9063cf0668ed906119ac908790600401613edd565b60206040518083038186803b1580156119c457600080fd5b505af41580156119d8573d6000803e3d6000fd5b505050506040513d601f19601f820116820180604052508101906119fc9190613d56565b81600181518110611a0f57611a0f6143f8565b602090810291909101015260405163cf0668ed60e01b815273__AddressLibrary________________________9063cf0668ed90611a51908690600401613edd565b60206040518083038186803b158015611a6957600080fd5b505af4158015611a7d573d6000803e3d6000fd5b505050506040513d601f19601f82011682018060405250810190611aa19190613d56565b81600281518110611ab457611ab46143f8565b60209081029190910101529392505050565b60025460405163123bd07560e11b8152606091839173__Library_______________________________90632477a0ea90611b079085908590600401614094565b60206040518083038186803b158015611b1f57600080fd5b505af4158015611b33573d6000803e3d6000fd5b505050506040513d601f19601f82011682018060405250810190611b579190613d39565b1515600114611b785760405162461bcd60e51b81526004016104ac906141d7565b73__AddressLibrary________________________635f2e8a5d73__ItemsLibrary__________________________6327724f4b60028881548110611bbf57611bbf6143f8565b90600052602060002090600402016040518263ffffffff1660e01b8152600401611beb91815260200190565b60006040518083038186803b158015611c0357600080fd5b505af4158015611c17573d6000803e3d6000fd5b505050506040513d6000823e601f3d908101601f19168201604052611c3f9190810190613c0e565b6040518263ffffffff1660e01b8152600401611c5b9190614050565b60006040518083038186803b158015611c7357600080fd5b505af4158015611c87573d6000803e3d6000fd5b505050506040513d6000823e601f3d908101601f191682016040526110b29190810190613a0d565b60025460405163123bd07560e11b815282919073__Library_______________________________90632477a0ea90611cee9085908590600401614094565b60206040518083038186803b158015611d0657600080fd5b505af4158015611d1a573d6000803e3d6000fd5b505050506040513d601f19601f82011682018060405250810190611d3e9190613d39565b1515600114611d5f5760405162461bcd60e51b81526004016104ac906141d7565b611d6b33600054611680565b1515600114611d8c5760405162461bcd60e51b81526004016104ac906141ba565b60018484611d9a8282611680565b1515600114611dd15760405162461bcd60e51b815260206004820152600360248201526245433760e81b60448201526064016104ac565b60008787611ddf82826126d0565b15611dfc5760405162461bcd60e51b81526004016104ac90614113565b604051631361314960e21b815260009073__AddressLibrary________________________90634d84c52490611e36908e90600401613edd565b60206040518083038186803b158015611e4e57600080fd5b505af4158015611e62573d6000803e3d6000fd5b505050506040513d601f19601f82011682018060405250810190611e869190613d56565b60408051600180825281830190925291925060009190602080830190803683370190505090508a81600081518110611ec057611ec06143f8565b60200260200101818152505060006040518060c00160405280848152602001604051806020016040528060008152508152602001600154815260200160038e81548110611f0f57611f0f6143f8565b906000526020600020018054611f249061438c565b80601f0160208091040260200160405190810160405280929190818152602001828054611f509061438c565b8015611f9d5780601f10611f7257610100808354040283529160200191611f9d565b820191906000526020600020905b815481529060010190602001808311611f8057829003601f168201915b50505050508152602001838152602001600115158152509050600060028d81548110611fcb57611fcb6143f8565b9060005260206000209060040201905073__ItemsLibrary__________________________63e23fcdef8383306040518463ffffffff1660e01b815260040161201693929190614211565b60006040518083038186803b15801561202e57600080fd5b505af4158015612042573d6000803e3d6000fd5b505050505050505050505050505050505050565b60025460405163123bd07560e11b815282919073__Library_______________________________90632477a0ea906120959085908590600401614094565b60206040518083038186803b1580156120ad57600080fd5b505af41580156120c1573d6000803e3d6000fd5b505050506040513d601f19601f820116820180604052508101906120e59190613d39565b15156001146121065760405162461bcd60e51b81526004016104ac906141d7565b61211233600054611680565b15156001146121335760405162461bcd60e51b81526004016104ac906141ba565b600086846121418282611680565b1561215e5760405162461bcd60e51b81526004016104ac906141f4565b6000898761216c8282613463565b156121895760405162461bcd60e51b81526004016104ac90614113565b600073__AddressLibrary________________________634d84c5248e6040518263ffffffff1660e01b81526004016121c29190613edd565b60206040518083038186803b1580156121da57600080fd5b505af41580156121ee573d6000803e3d6000fd5b505050506040513d601f19601f820116820180604052508101906122129190613d56565b60408051600180825281830190925291925060009190602080830190803683370190505090508a8160008151811061224c5761224c6143f8565b60200260200101818152505060006040518060c001604052808481526020018f8f8080601f0160208091040260200160405190810160405280939291908181526020018383808284376000920191909152505050908252506001546020820152600380546040909201918f9081106122c6576122c66143f8565b9060005260206000200180546122db9061438c565b80601f01602080910402602001604051908101604052809291908181526020018280546123079061438c565b80156123545780601f1061232957610100808354040283529160200191612354565b820191906000526020600020905b81548152906001019060200180831161233757829003601f168201915b50505050508152602001838152602001600115158152509050600060028d81548110612382576123826143f8565b9060005260206000209060040201905073__ItemsLibrary__________________________630b985aaa8383306040518463ffffffff1660e01b815260040161089593929190614211565b604051630d1d719d60e41b8152309073__Library_______________________________9063d1d719d090612406908490600401613edd565b60206040518083038186803b15801561241e57600080fd5b505af4158015612432573d6000803e3d6000fd5b505050506040513d601f19601f820116820180604052508101906124569190613d39565b1515600114610a2e5760405162461bcd60e51b815260206004820152600360248201526208a86760eb1b60448201526064016104ac565b6001600160a01b03166000908152600960209081526040808320805460ff19169055600782528083208390556008909152812055565b60025460405163123bd07560e11b8152606091829184919073__Library_______________________________90632477a0ea906125079085908590600401614094565b60206040518083038186803b15801561251f57600080fd5b505af4158015612533573d6000803e3d6000fd5b505050506040513d601f19601f820116820180604052508101906125579190613d39565b15156001146125785760405162461bcd60e51b81526004016104ac906141d7565b60608073__ItemsLibrary__________________________63e035e0068960028a815481106125a9576125a96143f8565b90600052602060002090600402016040518363ffffffff1660e01b81526004016125df9291909115158252602082015260400190565b60006040518083038186803b1580156125f757600080fd5b505af415801561260b573d6000803e3d6000fd5b505050506040513d6000823e601f3d908101601f191682016040526126339190810190613c42565b604051635f2e8a5d60e01b8152919350915073__AddressLibrary________________________90635f2e8a5d9061266f908590600401614050565b60006040518083038186803b15801561268757600080fd5b505af415801561269b573d6000803e3d6000fd5b505050506040513d6000823e601f3d908101601f191682016040526126c39190810190613a0d565b9890975095505050505050565b60025460405163123bd07560e11b8152600091839173__Library_______________________________90632477a0ea906127119085908590600401614094565b60206040518083038186803b15801561272957600080fd5b505af415801561273d573d6000803e3d6000fd5b505050506040513d601f19601f820116820180604052508101906127619190613d39565b15156001146127825760405162461bcd60e51b81526004016104ac906141d7565b604051631361314960e21b815260009073__AddressLibrary________________________90634d84c524906127bc908990600401613edd565b60206040518083038186803b1580156127d457600080fd5b505af41580156127e8573d6000803e3d6000fd5b505050506040513d601f19601f8201168201806040525081019061280c9190613d56565b905073__ItemsLibrary__________________________632854ed2e82600288815481106117ec576117ec6143f8565b60025460405163123bd07560e11b815282919073__Library_______________________________90632477a0ea9061287b9085908590600401614094565b60206040518083038186803b15801561289357600080fd5b505af41580156128a7573d6000803e3d6000fd5b505050506040513d601f19601f820116820180604052508101906128cb9190613d39565b15156001146128ec5760405162461bcd60e51b81526004016104ac906141d7565b6128f833600054611680565b15156001146129195760405162461bcd60e51b81526004016104ac906141ba565b600184846129278282613463565b151560011480612942575061293c82826126d0565b15156001145b61295e5760405162461bcd60e51b81526004016104ac9061414e565b8686600073__AddressLibrary________________________634d84c524846040518263ffffffff1660e01b81526004016129999190613edd565b60206040518083038186803b1580156129b157600080fd5b505af41580156129c5573d6000803e3d6000fd5b505050506040513d601f19601f820116820180604052508101906129e99190613d56565b905073__ItemsLibrary__________________________637b6d23de338360028681548110612a1a57612a1a6143f8565b90600052602060002090600402016040518463ffffffff1660e01b8152600401612a4693929190613ef1565b60206040518083038186803b158015612a5e57600080fd5b505af4158015612a72573d6000803e3d6000fd5b505050506040513d601f19601f82011682018060405250810190612a969190613d39565b15612ab35760405162461bcd60e51b81526004016104ac90614131565b604051631361314960e21b815260009073__AddressLibrary________________________90634d84c52490612aed908e90600401613edd565b60206040518083038186803b158015612b0557600080fd5b505af4158015612b19573d6000803e3d6000fd5b505050506040513d601f19601f82011682018060405250810190612b3d9190613d56565b60408051600180825281830190925291925060009190602080830190803683370190505090508a81600081518110612b7757612b776143f8565b60200260200101818152505060006040518060c00160405280848152602001604051806020016040528060008152508152602001600154815260200160038e81548110612bc657612bc66143f8565b906000526020600020018054612bdb9061438c565b80601f0160208091040260200160405190810160405280929190818152602001828054612c079061438c565b8015612c545780601f10612c2957610100808354040283529160200191612c54565b820191906000526020600020905b815481529060010190602001808311612c3757829003601f168201915b50505050508152602001838152602001600115158152509050600060028d81548110612c8257612c826143f8565b9060005260206000209060040201905073__ItemsLibrary__________________________637493a70b8383306040518463ffffffff1660e01b815260040161201693929190614211565b60025460405163123bd07560e11b815260609160009184919073__Library_______________________________90632477a0ea90612d129085908590600401614094565b60206040518083038186803b158015612d2a57600080fd5b505af4158015612d3e573d6000803e3d6000fd5b505050506040513d601f19601f82011682018060405250810190612d629190613d39565b1515600114612d835760405162461bcd60e51b81526004016104ac906141d7565b604051631361314960e21b815260009073__AddressLibrary________________________90634d84c52490612dbd908a90600401613edd565b60206040518083038186803b158015612dd557600080fd5b505af4158015612de9573d6000803e3d6000fd5b505050506040513d601f19601f82011682018060405250810190612e0d9190613d56565b905073__ItemsLibrary__________________________631aeccc6a8260028981548110612e3d57612e3d6143f8565b90600052602060002090600402016040518363ffffffff1660e01b8152600401612e68929190614094565b60006040518083038186803b158015612e8057600080fd5b505af4158015612e94573d6000803e3d6000fd5b505050506040513d6000823e601f3d908101601f19168201604052612ebc9190810190613e00565b945094505050509250929050565b600080612ed685612fc3565b50905080604051602001612eea9190613ec1565b60405160208183030381529060405280519060200120604051602001612f1d90665072697661746560c81b815260070190565b604051602081830303815290604052805190602001201415612f4157849150612f45565b8491505b6001600160a01b038581166000908152600760205260409081902054905163035700ff60e31b815260048101879052858316602482015291841691631ab807f891906044016000604051808303818588803b158015612fa357600080fd5b505af1158015612fb7573d6000803e3d6000fd5b50505050505050505050565b60606000610a52836001612ccd565b60025460405163123bd07560e11b815282919073__Library_______________________________90632477a0ea906130119085908590600401614094565b60206040518083038186803b15801561302957600080fd5b505af415801561303d573d6000803e3d6000fd5b505050506040513d601f19601f820116820180604052508101906130619190613d39565b15156001146130825760405162461bcd60e51b81526004016104ac906141d7565b61308e33600054611680565b15156001146130af5760405162461bcd60e51b81526004016104ac906141ba565b600184846130bd8282613463565b1515600114806130d857506130d282826126d0565b15156001145b6130f45760405162461bcd60e51b81526004016104ac9061414e565b8686600073__AddressLibrary________________________634d84c524846040518263ffffffff1660e01b815260040161312f9190613edd565b60206040518083038186803b15801561314757600080fd5b505af415801561315b573d6000803e3d6000fd5b505050506040513d601f19601f8201168201806040525081019061317f9190613d56565b905073__ItemsLibrary__________________________637b6d23de3383600286815481106131b0576131b06143f8565b90600052602060002090600402016040518463ffffffff1660e01b81526004016131dc93929190613ef1565b60206040518083038186803b1580156131f457600080fd5b505af4158015613208573d6000803e3d6000fd5b505050506040513d601f19601f8201168201806040525081019061322c9190613d39565b156132495760405162461bcd60e51b81526004016104ac90614131565b604051631361314960e21b815260009073__AddressLibrary________________________90634d84c52490613283908e90600401613edd565b60206040518083038186803b15801561329b57600080fd5b505af41580156132af573d6000803e3d6000fd5b505050506040513d601f19601f820116820180604052508101906132d39190613d56565b60408051600180825281830190925291925060009190602080830190803683370190505090508a8160008151811061330d5761330d6143f8565b60200260200101818152505060006040518060c00160405280848152602001604051806020016040528060008152508152602001600154815260200160038e8154811061335c5761335c6143f8565b9060005260206000200180546133719061438c565b80601f016020809104026020016040519081016040528092919081815260200182805461339d9061438c565b80156133ea5780601f106133bf576101008083540402835291602001916133ea565b820191906000526020600020905b8154815290600101906020018083116133cd57829003601f168201915b50505050508152602001838152602001600115158152509050600060028d81548110613418576134186143f8565b9060005260206000209060040201905073__ItemsLibrary__________________________635cb09bcf8383306040518463ffffffff1660e01b815260040161201693929190614211565b60025460405163123bd07560e11b8152600091839173__Library_______________________________90632477a0ea906134a49085908590600401614094565b60206040518083038186803b1580156134bc57600080fd5b505af41580156134d0573d6000803e3d6000fd5b505050506040513d601f19601f820116820180604052508101906134f49190613d39565b15156001146135155760405162461bcd60e51b81526004016104ac906141d7565b604051631361314960e21b815260009073__AddressLibrary________________________90634d84c5249061354f908990600401613edd565b60206040518083038186803b15801561356757600080fd5b505af415801561357b573d6000803e3d6000fd5b505050506040513d601f19601f8201168201806040525081019061359f9190613d56565b905073__ItemsLibrary__________________________6226d76682600288815481106117ec576117ec6143f8565b82805482825590600052602060002090810192821561361b579160200282015b8281111561361b578251805161360b91849160209091019061362b565b50916020019190600101906135ee565b506136279291506136ab565b5090565b8280546136379061438c565b90600052602060002090601f016020900481019282613659576000855561369f565b82601f1061367257805160ff191683800117855561369f565b8280016001018555821561369f579182015b8281111561369f578251825591602001919060010190613684565b506136279291506136c8565b808211156136275760006136bf82826136dd565b506001016136ab565b5b8082111561362757600081556001016136c9565b5080546136e99061438c565b6000825580601f106136f9575050565b601f01602090049060005260206000209081019061096191906136c8565b600082601f83011261372857600080fd5b8135602061373d613738836142ff565b6142cf565b80838252828201915082860187848660051b890101111561375d57600080fd5b60005b8581101561378557813561377381614424565b84529284019290840190600101613760565b5090979650505050505050565b600082601f8301126137a357600080fd5b815160206137b3613738836142ff565b80838252828201915082860187848660051b89010111156137d357600080fd5b60005b85811015613785578151845292840192908401906001016137d6565b60008083601f84011261380457600080fd5b5081356001600160401b0381111561381b57600080fd5b60208301915083602082850101111561383357600080fd5b9250929050565b600082601f83011261384b57600080fd5b813561385961373882614322565b81815284602083860101111561386e57600080fd5b816020850160208301376000918101602001919091529392505050565b600082601f83011261389c57600080fd5b81516138aa61373882614322565b8181528460208386010111156138bf57600080fd5b6110b2826020830160208701614360565b6000602082840312156138e257600080fd5b81356138ed81614424565b9392505050565b60006020828403121561390657600080fd5b81516138ed81614424565b60008060006060848603121561392657600080fd5b833561393181614424565b925060208401359150604084013561394881614424565b809150509250925092565b60008060006040848603121561396857600080fd5b833561397381614424565b925060208401356001600160401b0381111561398e57600080fd5b61399a868287016137f2565b9497909650939450505050565b6000806000806000608086880312156139bf57600080fd5b85356139ca81614424565b945060208601356001600160401b038111156139e557600080fd5b6139f1888289016137f2565b9699909850959660408101359660609091013595509350505050565b60006020808385031215613a2057600080fd5b82516001600160401b03811115613a3657600080fd5b8301601f81018513613a4757600080fd5b8051613a55613738826142ff565b80828252848201915084840188868560051b8701011115613a7557600080fd5b600094505b83851015613aa1578051613a8d81614424565b835260019490940193918501918501613a7a565b50979650505050505050565b600080600060608486031215613ac257600080fd5b83356001600160401b0380821115613ad957600080fd5b613ae587838801613717565b9450602086013593506040860135915080821115613b0257600080fd5b50613b0f8682870161383a565b9150509250925092565b600080600080600060a08688031215613b3157600080fd5b85356001600160401b0380821115613b4857600080fd5b613b5489838a01613717565b96506020915081880135955060408801359450606088013581811115613b7957600080fd5b8801601f81018a13613b8a57600080fd5b8035613b98613738826142ff565b8082825285820191508584018d878560051b8701011115613bb857600080fd5b60005b84811015613bf2578682351115613bd157600080fd5b613be08f89843589010161383a565b84529287019290870190600101613bbb565b5050809750505050505050608086013590509295509295909350565b600060208284031215613c2057600080fd5b81516001600160401b03811115613c3657600080fd5b6110b284828501613792565b60008060408385031215613c5557600080fd5b82516001600160401b0380821115613c6c57600080fd5b613c7886838701613792565b9350602091508185015181811115613c8f57600080fd5b8501601f81018713613ca057600080fd5b8051613cae613738826142ff565b8082825285820191508584018a878560051b8701011115613cce57600080fd5b6000805b85811015613d0957825188811115613ce8578283fd5b613cf68e8b838b010161388b565b8652509388019391880191600101613cd2565b5050508096505050505050509250929050565b600060208284031215613d2e57600080fd5b81356138ed81614439565b600060208284031215613d4b57600080fd5b81516138ed81614439565b600060208284031215613d6857600080fd5b5051919050565b60008060008060608587031215613d8557600080fd5b8435935060208501356001600160401b0380821115613da357600080fd5b818701915087601f830112613db757600080fd5b813581811115613dc657600080fd5b8860208260051b8501011115613ddb57600080fd5b6020830195508094505050506040850135613df581614439565b939692955090935050565b60008060408385031215613e1357600080fd5b82516001600160401b03811115613e2957600080fd5b613e358582860161388b565b9250506020830151613e4681614439565b809150509250929050565b600081518084526020808501945080840160005b83811015613e8a5781516001600160a01b031687529582019590820190600101613e65565b509495945050505050565b60008151808452613ead816020860160208601614360565b601f01601f19169290920160200192915050565b60008251613ed3818460208701614360565b9190910192915050565b6001600160a01b0391909116815260200190565b6001600160a01b039390931683526020830191909152604082015260600190565b60018060a01b0383168152600060206040818401526000845481600182811c915080831680613f4257607f831692505b858310811415613f6057634e487b7160e01b85526022600452602485fd5b6040880183905260608801818015613f7f5760018114613f9057613fbb565b60ff19861682528782019650613fbb565b60008b81526020902060005b86811015613fb557815484820152908501908901613f9c565b83019750505b50949a9950505050505050505050565b6020815260006138ed6020830184613e51565b604081526000613ff16040830185613e51565b6020838203818501528185518084528284019150828160051b85010183880160005b8381101561404157601f1987840301855261402f838351613e95565b94860194925090850190600101614013565b50909998505050505050505050565b6020808252825182820181905260009190848201906040850190845b818110156140885783518352928401929184019160010161406c565b50909695505050505050565b918252602082015260400190565b6040815260006140b56040830185613e95565b905082151560208301529392505050565b6080815260006140d96080830187613e95565b9415156020830152506040810192909252606090910152919050565b6020808252600490820152634543313960e01b604082015260600190565b6020808252600490820152634543323760e01b604082015260600190565b60208082526003908201526245433560e81b604082015260600190565b60208082526004908201526308a8664760e31b604082015260600190565b6020808252602e908201527f496e697469616c697a61626c653a20636f6e747261637420697320616c72656160408201526d191e481a5b9a5d1a585b1a5e995960921b606082015260800190565b60208082526003908201526245433960e81b604082015260600190565b60208082526003908201526245433160e81b604082015260600190565b60208082526003908201526222a19b60e91b604082015260600190565b6060815283516060820152600060208086015160c06080850152614239610120850182613e95565b9050604087015160a08501526060870151605f19808684030160c08701526142618383613e95565b60808a015187820390920160e088015281518082529185019350600092508401905b808310156142a35783518252928401926001929092019190840190614283565b5060a0890151151561010087015292850187905250506001600160a01b038416604084015290506110b2565b604051601f8201601f191681016001600160401b03811182821017156142f7576142f761440e565b604052919050565b60006001600160401b038211156143185761431861440e565b5060051b60200190565b60006001600160401b0382111561433b5761433b61440e565b50601f01601f191660200190565b60008282101561435b5761435b6143e2565b500390565b60005b8381101561437b578181015183820152602001614363565b83811115610a305750506000910152565b600181811c908216806143a057607f821691505b602082108114156143c157634e487b7160e01b600052602260045260246000fd5b50919050565b60006000198214156143db576143db6143e2565b5060010190565b634e487b7160e01b600052601160045260246000fd5b634e487b7160e01b600052603260045260246000fd5b634e487b7160e01b600052604160045260246000fd5b6001600160a01b038116811461096157600080fd5b801515811461096157600080fdfea26469706673582212206df3dbfdcb9ac9c0297d50245ede0518bb919215f45b5903af0a29c77c932a7864736f6c63430008060033",
  "immutableReferences": {},
  "source": "// SPDX-License-Identifier: GPL-3.0\r\n\r\npragma solidity >=0.7.0 <0.9.0;\r\npragma experimental ABIEncoderV2;\r\n\r\n/**\r\n * @title Storage\r\n * @dev Store & retrieve value in a variable\r\n */\r\n import \"../Libraries/Library.sol\";\r\n import \"../Interfaces/IProvider.sol\";\r\n import \"../Abstract/MultiSigContract.sol\";\r\n import \"./PrivateCertificatesPool.sol\";\r\n import \"./PublicCertificatesPool.sol\";\r\n import \"../Libraries/ItemsLibrary.sol\";\r\n import \"../Libraries/AddressLibrary.sol\";\r\n import \"@openzeppelin/contracts-upgradeable/proxy/utils/Initializable.sol\";\r\n\r\n contract Provider is IProvider, Initializable, MultiSigContract {\r\n    using Library for *;\r\n    using AddressLibrary for *;\r\n    using ItemsLibrary for *;\r\n\r\n    // DATA\r\n    uint256 constant _TotalEntities = 2;\r\n\r\n    // Owners\r\n    uint256 constant _ownerIdProviders = 0;\r\n    string constant _ownerLabel = \"Owner\";\r\n\r\n    // Pools\r\n    uint256 constant _poolId = 1;\r\n    string constant _poolLabel = \"Pool\";\r\n\r\n    // Certificates\r\n    uint256 constant _certId = 2;\r\n    string constant _certLabel = \"Certificate\";\r\n\r\n    string[] _Label;\r\n    \r\n    struct _CertificatesPerHolderStruct{\r\n        mapping(address => ItemsLibrary._ItemsStruct) _CertificatesPerHolder;\r\n    }\r\n   \r\n    mapping(address => _CertificatesPerHolderStruct) _CertificatesPerPool;\r\n\r\n    mapping(address => uint256) _AddCertificatePricePerPool;\r\n    mapping(address => uint256) _SubscriptionPricePerPool;\r\n    mapping(address => bool) _submited;\r\n\r\n    // Provider\r\n    string _ProviderInfo;\r\n\r\n    // MODIFIERS\r\n    modifier isAPool(address pool){\r\n        require(true == isPool(pool));\r\n        _;\r\n    }\r\n\r\n    modifier isCertificateActivated(bool YesOrNo, bytes32 cert, address pool, address holder){\r\n        if(false == YesOrNo) require(false == isCertificate(pool, cert, holder), \"EC6\");\r\n        else require(true == isCertificate(pool, cert, holder), \"EC7\");\r\n        _;\r\n    }\r\n\r\n    modifier isCertificatePending(bool YesOrNo, bytes32 cert, address pool, address holder){\r\n        if(false == YesOrNo) require(false == isCertificatePendingToAdded(pool, cert, holder) && \r\n                                    false == isCertificatePendingToRemoved(pool, cert, holder), \"EC27\");\r\n        else require(true == isCertificatePendingToAdded(pool, cert, holder) || \r\n                    true == isCertificatePendingToRemoved(pool, cert, holder), \"EC28\");\r\n        _;\r\n    }\r\n\r\n    modifier isCertificatePendingToAdd(bool YesOrNo, bytes32 cert, address pool, address holder){\r\n        if(false == YesOrNo) require(false == isCertificatePendingToAdded(pool, cert, holder), \"EC27\");\r\n        else require(true == isCertificatePendingToAdded(pool, cert, holder), \"EC28\");\r\n        _;\r\n    }\r\n\r\n    modifier isCertificatePendingToRemove(bool YesOrNo, bytes32 cert, address pool, address holder){\r\n        if(false == YesOrNo) require(false == isCertificatePendingToRemoved(pool, cert, holder), \"EC27\");\r\n        else require(true == isCertificatePendingToRemoved(pool, cert, holder), \"EC28\");\r\n        _;\r\n    }\r\n\r\n    modifier HasNotAlreadyVotedForCertificate(bytes32 cert, address pool, address holder){\r\n        require(false == ItemsLibrary.hasVoted(msg.sender, cert, _CertificatesPerPool[pool]._CertificatesPerHolder[holder]), \"EC5\");\r\n        _;\r\n    }\r\n\r\n     // CONSTRUCTOR\r\n    /*constructor(address[] memory owners,  uint256 minOwners, string memory ProviderInfo) \r\n        MultiSigContract(owners, minOwners, _TotalEntities, _Label, _ownerIdProviders)\r\n    payable\r\n    {\r\n        _ProviderInfo = ProviderInfo;\r\n    }*/\r\n\r\n    function Provider_init(address[] memory owners,  uint256 minOwners, string memory ProviderInfo) public initializer \r\n    {\r\n        _Label = new string[](2);\r\n        _Label[0] = _ownerLabel;\r\n        _Label[1] = _poolLabel;\r\n\r\n        super.MultiSigContract_init(owners, minOwners, _TotalEntities, _Label, _ownerIdProviders); \r\n        _ProviderInfo = ProviderInfo;\r\n    }\r\n\r\n    // FUNCTIONALITY\r\n    function addPool(address pool, string calldata poolInfo, uint256 AddCertificatePrice, uint256 SubscriptionPrice) external override{\r\n        addEntity(pool, poolInfo, _poolId);\r\n        if(false == _submited[pool]){\r\n            _AddCertificatePricePerPool[pool] = AddCertificatePrice;\r\n            _SubscriptionPricePerPool[pool] = SubscriptionPrice;\r\n            _submited[pool] = true;\r\n        }\r\n    }\r\n\r\n    function removePool(address pool) external override\r\n    {\r\n       removeEntity(pool, _poolId); \r\n    }\r\n\r\n    function validatePool(address pool) external override\r\n    {\r\n        validateEntity(pool, _poolId);\r\n    }\r\n\r\n    function rejectPool(address pool) external override\r\n    {\r\n        rejectEntity(pool, _poolId);\r\n    }\r\n\r\n    function removePricesForPool(address pool) internal\r\n    {\r\n        delete(_submited[pool]);\r\n        delete(_AddCertificatePricePerPool[pool]);\r\n        delete(_SubscriptionPricePerPool[pool]);\r\n    }\r\n    \r\n    function retrievePool(address pool) external override view returns (string memory, bool, uint256, uint256)\r\n    {\r\n        string memory poolInfo;\r\n        bool isActivated;\r\n\r\n        (poolInfo, isActivated) = InternalRetrievePool(pool);\r\n        return (poolInfo, isActivated, _AddCertificatePricePerPool[pool], _SubscriptionPricePerPool[pool]);\r\n    }\r\n    \r\n    function InternalRetrievePool(address pool) internal view returns (string memory, bool)\r\n    {\r\n        return retrieveEntity(pool, _poolId);\r\n    }\r\n\r\n    function retrieveAllPools() external override view returns (address[] memory)\r\n    {\r\n        return retrieveAllEntities(_poolId);\r\n    }\r\n\r\n    function isPool(address pool) public view returns (bool)\r\n    {\r\n        return(isEntity(pool, _poolId));\r\n    }\r\n    \r\n    // Certificates management\r\n    function extractCertIds(address pool, address holder) internal pure returns(uint[] memory)\r\n    {\r\n        uint[] memory certIdIdArray = new uint[](3);\r\n        certIdIdArray[0] = _certId;\r\n        certIdIdArray[1] = AddressLibrary.AddressToUint(pool);\r\n        certIdIdArray[2] = AddressLibrary.AddressToUint(holder);\r\n\r\n        return(certIdIdArray);\r\n    }\r\n\r\n     function addCertificate(address pool, bytes32 CertificateHash, address holder) external override\r\n        isAPool(pool)\r\n        isAnOwner\r\n        isCertificateActivated(false, CertificateHash, pool, holder) \r\n        isCertificatePendingToAdd(false, CertificateHash, pool, holder)\r\n     {\r\n        _CertificatesPerHolderStruct storage hs = _CertificatesPerPool[pool];\r\n        uint[] memory certIdIdArray = extractCertIds(pool, holder);\r\n        ItemsLibrary._manipulateItemStruct memory manipulateItemStruct = ItemsLibrary._manipulateItemStruct(CertificateHash, \"\", _minOwners, _certLabel, certIdIdArray, false);\r\n        ItemsLibrary._ItemsStruct storage itemsstruct =  hs._CertificatesPerHolder[holder];\r\n        ItemsLibrary.addItem(manipulateItemStruct,itemsstruct, address(this));\r\n     }\r\n\r\n     function validateCertificate(address pool, bytes32 CertificateHash, address holder) external override\r\n        isAPool(pool)\r\n        isAnOwner\r\n        isCertificatePending(true, CertificateHash, pool, holder)\r\n        HasNotAlreadyVotedForCertificate(CertificateHash, pool, holder)\r\n     {\r\n        _CertificatesPerHolderStruct storage hs = _CertificatesPerPool[pool];\r\n        uint[] memory certIdIdArray = extractCertIds(pool, holder);\r\n        ItemsLibrary._manipulateItemStruct memory manipulateItemStruct = ItemsLibrary._manipulateItemStruct(CertificateHash, \"\", _minOwners, _certLabel, certIdIdArray, false);\r\n        ItemsLibrary._ItemsStruct storage itemsstruct =  hs._CertificatesPerHolder[holder];\r\n        ItemsLibrary.validateItem(manipulateItemStruct, itemsstruct, address(this));\r\n     }\r\n\r\n     function rejectCertificate(address pool, bytes32 CertificateHash, address holder) external override\r\n        isAPool(pool)\r\n        isAnOwner\r\n        isCertificatePending(true, CertificateHash, pool, holder)\r\n        HasNotAlreadyVotedForCertificate(CertificateHash, pool, holder)\r\n     {\r\n        _CertificatesPerHolderStruct storage hs = _CertificatesPerPool[pool];\r\n        uint[] memory certIdIdArray = extractCertIds(pool, holder);\r\n        ItemsLibrary._manipulateItemStruct memory manipulateItemStruct = ItemsLibrary._manipulateItemStruct(CertificateHash, \"\", _minOwners, _certLabel, certIdIdArray, false);\r\n        ItemsLibrary._ItemsStruct storage itemsstruct =  hs._CertificatesPerHolder[holder];\r\n        ItemsLibrary.rejectItem(manipulateItemStruct, itemsstruct, address(this));\r\n     }\r\n \r\n    function manipulateCertificate(address pool, bytes32 CertificateHash, address holder) internal\r\n    {\r\n        MultiSigCertificatesPool poolToSend;\r\n        (string memory p ,) = InternalRetrievePool(pool);\r\n\r\n        if(keccak256(abi.encodePacked(\"Private\")) == keccak256(abi.encodePacked((p)))){\r\n                poolToSend = PrivateCertificatesPool(pool);\r\n            }\r\n        else {\r\n                poolToSend = PublicCertificatesPool(pool);\r\n        }\r\n\r\n        poolToSend.addCertificate{value:_AddCertificatePricePerPool[pool]}(CertificateHash, holder);\r\n            \r\n        //delete(_CertificatesPerPool[getPoolId(pool)]._CertificatesPerHolder[getHolderId(holder)]._cert[CertificateHash]);\r\n        \r\n    }\r\n\r\n    function isCertificate(address pool, bytes32 CertificateHash, address holder) public view returns(bool)\r\n    {\r\n        return ItemsLibrary.isItem(CertificateHash, _CertificatesPerPool[pool]._CertificatesPerHolder[holder]);\r\n    }\r\n\r\n    function isCertificatePendingToAdded(address pool, bytes32 CertificateHash, address holder) internal view returns(bool)\r\n    {\r\n        return ItemsLibrary.isItemPendingToAdded(CertificateHash, _CertificatesPerPool[pool]._CertificatesPerHolder[holder]);\r\n    }\r\n\r\n    function isCertificatePendingToRemoved(address pool, bytes32 CertificateHash, address holder) internal view returns(bool)\r\n    {\r\n        return ItemsLibrary.isItemPendingToRemoved(CertificateHash, _CertificatesPerPool[pool]._CertificatesPerHolder[holder]);\r\n    }\r\n\r\n    \r\n    receive() external override payable{}\r\n\r\n    // CALLBACKS\r\n    function onItemValidated(bytes32 item, uint256[] calldata ids, bool addOrRemove) public override  \r\n    {\r\n        super.onItemValidated(item, ids, addOrRemove);\r\n\r\n        if(ids[0] == _poolId){\r\n            address pool = AddressLibrary.BytesToAddress(item);\r\n\r\n            if(false == addOrRemove)removePricesForPool(pool);\r\n            else{\r\n                MultiSigCertificatesPool poolToSubscribe = PublicCertificatesPool(pool);\r\n                poolToSubscribe.addProvider{value:_SubscriptionPricePerPool[pool]}(address(this), _ProviderInfo);\r\n            }\r\n        }\r\n        else if(ids[0] == _certId){\r\n            manipulateCertificate(AddressLibrary.UintToAddress(ids[1]), item, AddressLibrary.UintToAddress(ids[2]));\r\n        }\r\n    }\r\n\r\n    function onItemRejected(bytes32 item, uint256[] calldata ids, bool addOrRemove) public override  \r\n    {\r\n        super.onItemRejected(item, ids, addOrRemove);\r\n\r\n        if(ids[0] == _poolId){\r\n            address pool = AddressLibrary.BytesToAddress(item);\r\n\r\n            if(true == addOrRemove)removePricesForPool(pool);\r\n        } \r\n    }\r\n    \r\n }",
  "sourcePath": "C:/Users/d-aam/GitHub/Certificates/contracts/DeployedContracts/Provider.sol",
  "compiler": {
    "name": "solc",
    "version": "0.8.6+commit.11564f7e.Emscripten.clang"
  },
  "schemaVersion": "3.3.4",
  "updatedAt": "2021-08-04T11:20:38.971Z",
  "devdoc": {
    "kind": "dev",
    "methods": {},
    "version": 1
  },
  "userdoc": {
    "kind": "user",
    "methods": {},
    "version": 1
  }
}