{
  "contractName": "Provider",
  "abi": [
    {
      "inputs": [
        {
          "internalType": "address[]",
          "name": "owners",
          "type": "address[]"
        },
        {
          "internalType": "uint256",
          "name": "minOwners",
          "type": "uint256"
        }
      ],
      "stateMutability": "payable",
      "type": "constructor",
      "payable": true
    },
    {
      "anonymous": false,
      "inputs": [
        {
          "indexed": false,
          "internalType": "string",
          "name": "",
          "type": "string"
        },
        {
          "indexed": false,
          "internalType": "address",
          "name": "",
          "type": "address"
        }
      ],
      "name": "_AddEntityValidationIdEvent",
      "type": "event"
    },
    {
      "anonymous": false,
      "inputs": [
        {
          "indexed": false,
          "internalType": "string",
          "name": "",
          "type": "string"
        },
        {
          "indexed": false,
          "internalType": "address",
          "name": "",
          "type": "address"
        }
      ],
      "name": "_RemoveEntityValidationIdEvent",
      "type": "event"
    },
    {
      "inputs": [
        {
          "internalType": "address",
          "name": "owner",
          "type": "address"
        },
        {
          "internalType": "string",
          "name": "ownerInfo",
          "type": "string"
        }
      ],
      "name": "addOwner",
      "outputs": [],
      "stateMutability": "nonpayable",
      "type": "function"
    },
    {
      "inputs": [
        {
          "internalType": "address",
          "name": "owner",
          "type": "address"
        }
      ],
      "name": "isOwner",
      "outputs": [
        {
          "internalType": "bool",
          "name": "",
          "type": "bool"
        }
      ],
      "stateMutability": "view",
      "type": "function",
      "constant": true
    },
    {
      "inputs": [
        {
          "internalType": "address",
          "name": "owner",
          "type": "address"
        }
      ],
      "name": "removeOwner",
      "outputs": [],
      "stateMutability": "nonpayable",
      "type": "function"
    },
    {
      "inputs": [],
      "name": "retrieveAllOwners",
      "outputs": [
        {
          "internalType": "address[]",
          "name": "",
          "type": "address[]"
        }
      ],
      "stateMutability": "view",
      "type": "function",
      "constant": true
    },
    {
      "inputs": [],
      "name": "retrieveMinOwners",
      "outputs": [
        {
          "internalType": "uint256",
          "name": "",
          "type": "uint256"
        }
      ],
      "stateMutability": "view",
      "type": "function",
      "constant": true
    },
    {
      "inputs": [
        {
          "internalType": "address",
          "name": "owner",
          "type": "address"
        }
      ],
      "name": "retrieveOwner",
      "outputs": [
        {
          "internalType": "string",
          "name": "",
          "type": "string"
        }
      ],
      "stateMutability": "view",
      "type": "function",
      "constant": true
    },
    {
      "inputs": [],
      "name": "retrieveTotalOwners",
      "outputs": [
        {
          "internalType": "uint256",
          "name": "",
          "type": "uint256"
        }
      ],
      "stateMutability": "view",
      "type": "function",
      "constant": true
    },
    {
      "inputs": [
        {
          "internalType": "address",
          "name": "pool",
          "type": "address"
        },
        {
          "internalType": "string",
          "name": "poolInfo",
          "type": "string"
        }
      ],
      "name": "addPool",
      "outputs": [],
      "stateMutability": "nonpayable",
      "type": "function"
    },
    {
      "inputs": [
        {
          "internalType": "address",
          "name": "pool",
          "type": "address"
        }
      ],
      "name": "removePool",
      "outputs": [],
      "stateMutability": "nonpayable",
      "type": "function"
    },
    {
      "inputs": [
        {
          "internalType": "address",
          "name": "pool",
          "type": "address"
        }
      ],
      "name": "retrievePool",
      "outputs": [
        {
          "internalType": "string",
          "name": "",
          "type": "string"
        }
      ],
      "stateMutability": "view",
      "type": "function",
      "constant": true
    },
    {
      "inputs": [],
      "name": "retrieveAllPools",
      "outputs": [
        {
          "internalType": "address[]",
          "name": "",
          "type": "address[]"
        }
      ],
      "stateMutability": "view",
      "type": "function",
      "constant": true
    },
    {
      "inputs": [],
      "name": "retrieveTotalPools",
      "outputs": [
        {
          "internalType": "uint256",
          "name": "",
          "type": "uint256"
        }
      ],
      "stateMutability": "view",
      "type": "function",
      "constant": true
    },
    {
      "inputs": [
        {
          "internalType": "address",
          "name": "pool",
          "type": "address"
        }
      ],
      "name": "isPool",
      "outputs": [
        {
          "internalType": "bool",
          "name": "",
          "type": "bool"
        }
      ],
      "stateMutability": "view",
      "type": "function",
      "constant": true
    },
    {
      "inputs": [
        {
          "internalType": "address",
          "name": "pool",
          "type": "address"
        },
        {
          "internalType": "bytes32",
          "name": "CertificateHash",
          "type": "bytes32"
        },
        {
          "internalType": "address",
          "name": "holder",
          "type": "address"
        }
      ],
      "name": "addCertificate",
      "outputs": [],
      "stateMutability": "nonpayable",
      "type": "function"
    },
    {
      "inputs": [
        {
          "internalType": "address",
          "name": "pool",
          "type": "address"
        },
        {
          "internalType": "bytes32",
          "name": "CertificateHash",
          "type": "bytes32"
        },
        {
          "internalType": "address",
          "name": "holder",
          "type": "address"
        }
      ],
      "name": "removeCertificate",
      "outputs": [],
      "stateMutability": "nonpayable",
      "type": "function"
    }
  ],
  "bytecode": "0x600560c09081526427bbb732b960d91b60e0526080908152610140604052600461010081815263141bdbdb60e21b6101205260a0526200004191600262000328565b5060405162002b2538038062002b258339810160408190526200006491620004bd565b818160026004805480602002602001604051908101604052809291908181526020016000905b828210156200013b5760008481526020908190208301805460408051601f6002600019610100600187161502019094169390930492830185900485028101850190915281815292830182828015620001265780601f10620000fa5761010080835404028352916020019162000126565b820191906000526020600020905b8154815290600101906020018083116200010857829003601f168201915b5050505050815260200190600101906200008a565b50505050600084518411156200016e5760405162461bcd60e51b8152600401620001659062000583565b60405180910390fd5b60008411620001915760405162461bcd60e51b81526004016200016590620005a1565b81518314620001b45760405162461bcd60e51b81526004016200016590620005bf565b60008181555b838110156200021f576003805460010181556000528251600290849083908110620001e157fe5b602090810291909101810151825460018101845560009384529282902081516200021594919091019291909101906200038c565b50600101620001ba565b50600184905560005b85518110156200031a5760016003600054815481106200024457fe5b906000526020600020906002020160000160008884815181106200026457fe5b60200260200101516001600160a01b03166001600160a01b0316815260200190815260200160002060000160006101000a81548160ff021916908315150217905550600360005481548110620002b657fe5b9060005260206000209060020201600101868281518110620002d457fe5b60209081029190910181015182546001808201855560009485529290932090920180546001600160a01b0319166001600160a01b03909316929092179091550162000228565b5050505050505050620005dd565b8280548282559060005260206000209081019282156200037a579160200282015b828111156200037a5782518051620003699184916020909101906200038c565b509160200191906001019062000349565b50620003889291506200041d565b5090565b828054600181600116156101000203166002900490600052602060002090601f016020900481019282620003c457600085556200040f565b82601f10620003df57805160ff19168380011785556200040f565b828001600101855582156200040f579182015b828111156200040f578251825591602001919060010190620003f2565b50620003889291506200043e565b808211156200038857600062000434828262000455565b506001016200041d565b5b808211156200038857600081556001016200043f565b50805460018160011615610100020316600290046000825580601f106200047d57506200049d565b601f0160209004906000526020600020908101906200049d91906200043e565b50565b80516001600160a01b0381168114620004b857600080fd5b919050565b60008060408385031215620004d0578182fd5b82516001600160401b0380821115620004e7578384fd5b818501915085601f830112620004fb578384fd5b81516020828211156200050a57fe5b808202604051828282010181811086821117156200052457fe5b604052838152828101945085830182870184018b101562000543578889fd5b8896505b8487101562000570576200055b81620004a0565b86526001969096019594830194830162000547565b5097909101519698969750505050505050565b60208082526004908201526322a1989b60e11b604082015260600190565b6020808252600490820152634543313760e01b604082015260600190565b60208082526004908201526308a8662760e31b604082015260600190565b61253880620005ed6000396000f3fe608060405234801561001057600080fd5b50600436106100f55760003560e01c806365b973e5116100975780638fc2d8ea116100665780638fc2d8ea146101e9578063a93d5ed6146101fc578063eefe768114610204578063f4989e711461020c576100f5565b806365b973e514610199578063704dc09b146101ae57806373bd22b8146101c157806377bc5a1f146101c9576100f5565b80632f54bf6e116100d35780632f54bf6e146101405780633542758f146101605780633b7d0946146101735780635b16ebb714610186576100f5565b806314a2ed2f146100fa578063173825d91461010f5780632d99aaf214610122575b600080fd5b61010d6101083660046120a1565b61021f565b005b61010d61011d366004612080565b610231565b61012a610277565b604051610137919061224f565b60405180910390f35b61015361014e366004612080565b610288565b604051610137919061229c565b61010d61016e3660046120dc565b61029e565b61010d610181366004612080565b6102af565b610153610194366004612080565b6102bd565b6101a16102ca565b60405161013791906124af565b61010d6101bc3660046120dc565b6102d0565b6101a16102dc565b6101dc6101d7366004612080565b6102e8565b604051610137919061233c565b6101dc6101f7366004612080565b6102f6565b61012a610301565b6101a161030e565b61010d61021a3660046120a1565b61031b565b61022c8383836000610324565b505050565b60015460016102416000546107ff565b038082111561026b5760405162461bcd60e51b8152600401610262906123ff565b60405180910390fd5b61022c836000546108dc565b60606102836001610bf0565b905090565b600061029682600054610cc5565b90505b919050565b6102ab8282600054610d90565b5050565b6102ba8160016108dc565b50565b6000610296826001610cc5565b60015490565b6102ab82826001610d90565b600061028360016107ff565b606061029682600054610eda565b606061029682610fb0565b6060610283600054610bf0565b60006102836000546107ff565b61022c83838360015b8361032e816102bd565b151560011461033c57600080fd5b61034533610288565b15156001146103665760405162461bcd60e51b81526004016102629061243a565b6001600160a01b03858116600090815260056020908152604080832093871683529281528282208783528152908290208251608081018452815460ff1615158152600180830180548651600261010094831615949094026000190190911692909204601f81018690048602830186019096528582528795929485810193908301828280156104355780601f1061040a57610100808354040283529160200191610435565b820191906000526020600020905b81548152906001019060200180831161041857829003601f168201915b505050505081526020016002820180548060200260200160405190810160405280929190818152602001828054801561049757602002820191906000526020600020905b81546001600160a01b03168152600190910190602001808311610479575b50505050508152602001600382018054806020026020016040519081016040528092919081815260200182805480156104f957602002820191906000526020600020905b81546001600160a01b031681526001909101906020018083116104db575b505050919092525050604051630eefab8b60e31b815273__Library_______________________________915063777d5c589061053c90859085906004016122be565b60006040518083038186803b15801561055457600080fd5b505af4158015610568573d6000803e3d6000fd5b50600092508291506105779050565b85600181111561058357fe5b14156105e657506001600160a01b03878116600090815260056020908152604080832093891683529281528282208983528152918120600201805460018101825581835292822090920180546001600160a01b031916331790558790525461063f565b506001600160a01b03878116600090815260056020908152604080832093891683529281528282208983528152918120600301805460018101825581835292822090920180546001600160a01b03191633179055879052545b61064b81600154610fbd565b156107f557600061065b89610fb0565b60405160200161066b9190612220565b604051602081830303815290604052805190602001206040516020016106909061223c565b6040516020818303038152906040528051906020012014156106b35750876106b6565b50875b60008660018111156106c457fe5b141561072f5760405163035700ff60e31b81526001600160a01b03821690631ab807f8906106f8908b908b906004016122a7565b600060405180830381600087803b15801561071257600080fd5b505af1158015610726573d6000803e3d6000fd5b50505050610790565b60405163539ed94560e11b81526001600160a01b0382169063a73db28a9061075d908b908b906004016122a7565b600060405180830381600087803b15801561077757600080fd5b505af115801561078b573d6000803e3d6000fd5b505050505b6001600160a01b03808a166000908152600560209081526040808320938b1683529281528282208b83529052908120805460ff19168155906107d56001830182611f11565b6107e3600283016000611f55565b6107f1600383016000611f55565b5050505b5050505050505050565b60035460405163123bd07560e11b8152600091839173__Library_______________________________90632477a0ea9061084090859085906004016124b8565b60206040518083038186803b15801561085857600080fd5b505af415801561086c573d6000803e3d6000fd5b505050506040513d601f19601f820116820180604052508101906108909190612184565b15156001146108b15760405162461bcd60e51b815260040161026290612457565b6108d4600385815481106108c157fe5b9060005260206000209060020201610fd9565b949350505050565b60035460405163123bd07560e11b815282919073__Library_______________________________90632477a0ea9061091b90859085906004016124b8565b60206040518083038186803b15801561093357600080fd5b505af4158015610947573d6000803e3d6000fd5b505050506040513d601f19601f8201168201806040525081019061096b9190612184565b151560011461098c5760405162461bcd60e51b815260040161026290612457565b8361099633610288565b1515600114806109ae5750336001600160a01b038216145b6109ca5760405162461bcd60e51b815260040161026290612474565b6109f185600386815481106109db57fe5b9060005260206000209060020201600154610fe0565b610b9560038581548110610a0157fe5b600091825260208083206001600160a01b038a16845260029283020181526040928390208351608081018552815460ff16151581526001808301805487516101009382161593909302600019011695909504601f8101859004850282018501909652858152909491938584019391929091830182828015610ac35780601f10610a9857610100808354040283529160200191610ac3565b820191906000526020600020905b815481529060010190602001808311610aa657829003601f168201915b5050505050815260200160028201805480602002602001604051908101604052809291908181526020018280548015610b2557602002820191906000526020600020905b81546001600160a01b03168152600190910190602001808311610b07575b5050505050815260200160038201805480602002602001604051908101604052809291908181526020018280548015610b8757602002820191906000526020600020905b81546001600160a01b03168152600190910190602001808311610b69575b5050505050815250506114b0565b610be9577f1f62d535f971041db7bd8760bf0f1f9f476461558744a35c0d477b5ad6893e8960028581548110610bc757fe5b9060005260206000200186604051610be092919061234f565b60405180910390a15b5050505050565b60035460405163123bd07560e11b8152606091839173__Library_______________________________90632477a0ea90610c3190859085906004016124b8565b60206040518083038186803b158015610c4957600080fd5b505af4158015610c5d573d6000803e3d6000fd5b505050506040513d601f19601f82011682018060405250810190610c819190612184565b1515600114610ca25760405162461bcd60e51b815260040161026290612457565b6108d460038581548110610cb257fe5b90600052602060002090600202016114b4565b60035460405163123bd07560e11b8152600091839173__Library_______________________________90632477a0ea90610d0690859085906004016124b8565b60206040518083038186803b158015610d1e57600080fd5b505af4158015610d32573d6000803e3d6000fd5b505050506040513d601f19601f82011682018060405250810190610d569190612184565b1515600114610d775760405162461bcd60e51b815260040161026290612457565b610d8760038581548110610a0157fe5b95945050505050565b60035460405163123bd07560e11b815282919073__Library_______________________________90632477a0ea90610dcf90859085906004016124b8565b60206040518083038186803b158015610de757600080fd5b505af4158015610dfb573d6000803e3d6000fd5b505050506040513d601f19601f82011682018060405250810190610e1f9190612184565b1515600114610e405760405162461bcd60e51b815260040161026290612457565b610e4933610288565b1515600114610e6a5760405162461bcd60e51b81526004016102629061243a565b610e92858560038681548110610e7c57fe5b906000526020600020906002020160015461151a565b610ea260038481548110610a0157fe5b151560011415610be9577f3c139d46a211844e248647688545a37c07c505c999c1232d1247c707dc0a91e260028481548110610bc757fe5b60035460405163123bd07560e11b8152606091839173__Library_______________________________90632477a0ea90610f1b90859085906004016124b8565b60206040518083038186803b158015610f3357600080fd5b505af4158015610f47573d6000803e3d6000fd5b505050506040513d601f19601f82011682018060405250810190610f6b9190612184565b1515600114610f8c5760405162461bcd60e51b815260040161026290612457565b610d878560038681548110610f9d57fe5b906000526020600020906002020161192a565b6060610296826001610eda565b600081831015610fcf57506000610fd3565b5060015b92915050565b6001015490565b6001600160a01b038316600090815260208381526040918290208251608081018452815460ff1615158152600180830180548651600261010083861615026000190190921691909104601f81018790048702820187019097528681529195929485810193908301828280156110965780601f1061106b57610100808354040283529160200191611096565b820191906000526020600020905b81548152906001019060200180831161107957829003601f168201915b50505050508152602001600282018054806020026020016040519081016040528092919081815260200182805480156110f857602002820191906000526020600020905b81546001600160a01b031681526001909101906020018083116110da575b505050505081526020016003820180548060200260200160405190810160405280929190818152602001828054801561115a57602002820191906000526020600020905b81546001600160a01b0316815260019091019060200180831161113c575b50505050508152505061116d8282611b6d565b6001600160a01b038516600090815260208581526040918290208251608081018452815460ff1615158152600180830180548651600261010083861615026000190190921691909104601f81018790048702820187019097528681529195929485810193908301828280156112235780601f106111f857610100808354040283529160200191611223565b820191906000526020600020905b81548152906001019060200180831161120657829003601f168201915b505050505081526020016002820180548060200260200160405190810160405280929190818152602001828054801561128557602002820191906000526020600020905b81546001600160a01b03168152600190910190602001808311611267575b50505050508152602001600382018054806020026020016040519081016040528092919081815260200182805480156112e757602002820191906000526020600020905b81546001600160a01b031681526001909101906020018083116112c9575b5050505050815250506112fa8282611bc7565b6001600160a01b0387166000818152602088815260408220600301805460018101825590835291200180546001600160a01b03191633908117909155148061136357506001600160a01b0387166000908152602087905260409020600301546113639086610fbd565b156114a75761144361143e6113d489896001018054806020026020016040519081016040528092919081815260200182805480156113ca57602002820191906000526020600020905b81546001600160a01b031681526001909101906020018083116113ac575b5050505050611c2d565b6114398960010180548060200260200160405190810160405280929190818152602001828054801561142f57602002820191906000526020600020905b81546001600160a01b03168152600190910190602001808311611411575b5050505050611c81565b611d18565b611e0b565b8051611459916001890191602090910190611f73565b506001600160a01b0387166000908152602087905260408120805460ff19168155906114886001830182611f11565b611496600283016000611f55565b6114a4600383016000611f55565b50505b50505050505050565b5190565b60608160010180548060200260200160405190810160405280929190818152602001828054801561150e57602002820191906000526020600020905b81546001600160a01b031681526001909101906020018083116114f0575b50505050509050919050565b6001600160a01b0384166000908152602083815260408083208151608081018352815460ff1615158152600180830180548551600261010094831615949094026000190190911692909204601f810187900487028301870190955284825291949293858401939192918301828280156115d45780601f106115a9576101008083540402835291602001916115d4565b820191906000526020600020905b8154815290600101906020018083116115b757829003601f168201915b505050505081526020016002820180548060200260200160405190810160405280929190818152602001828054801561163657602002820191906000526020600020905b81546001600160a01b03168152600190910190602001808311611618575b505050505081526020016003820180548060200260200160405190810160405280929190818152602001828054801561169857602002820191906000526020600020905b81546001600160a01b0316815260019091019060200180831161167a575b5050505050815250506116ab8282611b6d565b6001600160a01b0386166000908152602085815260408083208151608081018352815460ff1615158152600180830180548551600261010094831615949094026000190190911692909204601f810187900487028301870190955284825291949293858401939192918301828280156117655780601f1061173a57610100808354040283529160200191611765565b820191906000526020600020905b81548152906001019060200180831161174857829003601f168201915b50505050508152602001600282018054806020026020016040519081016040528092919081815260200182805480156117c757602002820191906000526020600020905b81546001600160a01b031681526001909101906020018083116117a9575b505050505081526020016003820180548060200260200160405190810160405280929190818152602001828054801561182957602002820191906000526020600020905b81546001600160a01b0316815260019091019060200180831161180b575b50505050508152505061183c8282611bc7565b6001600160a01b03881660009081526020879052604090206002015461188b576001600160a01b0388166000908152602087815260409091208851611889926001909201918a0190611fd8565b505b6001600160a01b0388166000818152602088815260408220600201805460018101825581845291832090910180546001600160a01b03191633179055919052546118d59086610fbd565b156107f5576001600160a01b0388166000818152602088815260408220805460ff1916600190811790915589810180549182018155835291200180546001600160a01b03191690911790555050505050505050565b6001600160a01b038216600090815260208281526040918290208251608081018452815460ff1615158152600182810180548651601f6002600019848716156101000201909316929092049182018790048702810187019097528087526060969295939493858101939291908301828280156119e75780601f106119bc576101008083540402835291602001916119e7565b820191906000526020600020905b8154815290600101906020018083116119ca57829003601f168201915b5050505050815260200160028201805480602002602001604051908101604052809291908181526020018280548015611a4957602002820191906000526020600020905b81546001600160a01b03168152600190910190602001808311611a2b575b5050505050815260200160038201805480602002602001604051908101604052809291908181526020018280548015611aab57602002820191906000526020600020905b81546001600160a01b03168152600190910190602001808311611a8d575b505050505081525050611abe8282611b6d565b6001600160a01b03851660009081526020858152604091829020600190810180548451600293821615610100026000190190911692909204601f810184900484028301840190945283825290929091830182828015611b5e5780601f10611b3357610100808354040283529160200191611b5e565b820191906000526020600020905b815481529060010190602001808311611b4157829003601f168201915b50505050509250505092915050565b81611b9d57611b7b816114b0565b15611b985760405162461bcd60e51b815260040161026290612492565b6102ab565b611ba6816114b0565b15156001146102ab5760405162461bcd60e51b8152600401610262906123e2565b816001811115611bd357fe5b611c0257611be5338260400151611ea8565b15611b985760405162461bcd60e51b81526004016102629061241d565b611c10338260600151611ea8565b156102ab5760405162461bcd60e51b81526004016102629061241d565b6000805b8251811015611c7657828181518110611c4657fe5b60200260200101516001600160a01b0316846001600160a01b03161415611c6e579050610fd3565b600101611c31565b505051600101919050565b60606000825167ffffffffffffffff81118015611c9d57600080fd5b50604051908082528060200260200182016040528015611cc7578160200160208202803683370190505b50905060005b8351811015611d1157611cf2848281518110611ce557fe5b6020026020010151611efe565b828281518110611cfe57fe5b6020908102919091010152600101611ccd565b5092915050565b6060828251611d278282611f0a565b1515600114611d485760405162461bcd60e51b815260040161026290612457565b6000600185510367ffffffffffffffff81118015611d6557600080fd5b50604051908082528060200260200182016040528015611d8f578160200160208202803683370190505b50905084600186510381518110611da257fe5b6020026020010151858781518110611db657fe5b60200260200101818152505060005b8151811015611e0157858181518110611dda57fe5b6020026020010151828281518110611dee57fe5b6020908102919091010152600101611dc5565b5095945050505050565b60606000825167ffffffffffffffff81118015611e2757600080fd5b50604051908082528060200260200182016040528015611e51578160200160208202803683370190505b50905060005b8351811015611d1157611e7c848281518110611e6f57fe5b6020026020010151611f0e565b828281518110611e8857fe5b6001600160a01b0390921660209283029190910190910152600101611e57565b6000805b8251811015611ef457828181518110611ec157fe5b60200260200101516001600160a01b0316846001600160a01b03161415611eec576001915050610fd3565b600101611eac565b5060009392505050565b6001600160a01b031690565b1190565b90565b50805460018160011615610100020316600290046000825580601f10611f3757506102ba565b601f0160209004906000526020600020908101906102ba9190612054565b50805460008255906000526020600020908101906102ba9190612054565b828054828255906000526020600020908101928215611fc8579160200282015b82811115611fc857825182546001600160a01b0319166001600160a01b03909116178255602090920191600190910190611f93565b50611fd4929150612054565b5090565b828054600181600116156101000203166002900490600052602060002090601f01602090048101928261200e5760008555611fc8565b82601f1061202757805160ff1916838001178555611fc8565b82800160010185558215611fc8579182015b82811115611fc8578251825591602001919060010190612039565b5b80821115611fd45760008155600101612055565b80356001600160a01b038116811461029957600080fd5b600060208284031215612091578081fd5b61209a82612069565b9392505050565b6000806000606084860312156120b5578182fd5b6120be84612069565b9250602084013591506120d360408501612069565b90509250925092565b600080604083850312156120ee578182fd5b6120f783612069565b915060208084013567ffffffffffffffff80821115612114578384fd5b818601915086601f830112612127578384fd5b81358181111561213357fe5b604051601f8201601f191681018501838111828210171561215057fe5b6040528181528382018501891015612166578586fd5b81858501868301378585838301015280955050505050509250929050565b600060208284031215612195578081fd5b8151801515811461209a578182fd5b6001600160a01b03169052565b6000815180845260208085019450808401835b838110156121e95781516001600160a01b0316875295820195908201906001016121c4565b509495945050505050565b6000815180845261220c8160208601602086016124d2565b601f01601f19169290920160200192915050565b600082516122328184602087016124d2565b9190910192915050565b665072697661746560c81b815260070190565b6020808252825182820181905260009190848201906040850190845b818110156122905783516001600160a01b03168352928401929184019160010161226b565b50909695505050505050565b901515815260200190565b9182526001600160a01b0316602082015260400190565b6000600284106122ca57fe5b838252604060208301528251151560408301526020830151608060608401526122f660c08401826121f4565b90506040840151603f198085840301608086015261231483836121b1565b925060608601519150808584030160a08601525061233282826121b1565b9695505050505050565b60006020825261209a60208301846121f4565b600060408201604083528185546001808216600081146123765760018114612394576123cd565b60028304607f16855260ff19831660608801526080870193506123cd565b600283048086526123a48a6124c6565b875b828110156123c35781548a820160600152908401906020016123a6565b8901606001955050505b505050809250505061209a60208301846121a4565b60208082526003908201526245433760e81b604082015260600190565b6020808252600490820152634543313960e01b604082015260600190565b60208082526003908201526245433560e81b604082015260600190565b60208082526003908201526245433960e81b604082015260600190565b60208082526003908201526245433160e81b604082015260600190565b6020808252600490820152630454331360e41b604082015260600190565b60208082526003908201526222a19b60e91b604082015260600190565b90815260200190565b918252602082015260400190565b60009081526020902090565b60005b838110156124ed5781810151838201526020016124d5565b838111156124fc576000848401525b5050505056fea2646970667358221220fbf47912ca3b29230a539897482c17ccc45f5a4410aed3b7ed7b5602a1b5565164736f6c63430007060033",
  "immutableReferences": {},
  "source": "// SPDX-License-Identifier: GPL-3.0\r\n\r\npragma solidity >=0.7.0 <0.9.0;\r\npragma experimental ABIEncoderV2;\r\n\r\n/**\r\n * @title Storage\r\n * @dev Store & retrieve value in a variable\r\n */\r\n import \"./Libraries/Library.sol\";\r\n import \"./Interfaces/IProvider.sol\";\r\n import \"./Abstract/MultiSigContract.sol\";\r\n import \"./PrivateCertificatesPool.sol\";\r\n import \"./PublicCertificatesPool.sol\";\r\n\r\n\r\n contract Provider is IProvider, MultiSigContract {\r\n    using Library for *;\r\n\r\n    uint256 constant TotalEntities = 2;\r\n\r\n    // Owners\r\n    uint256 constant _ownerIdProviders = 0;\r\n    string constant _ownerLabel = \"Owner\";\r\n\r\n    // Pools\r\n    uint256 constant _poolId = 1;\r\n    string constant _poolLabel = \"Pool\";\r\n\r\n    string[] _Label = [_ownerLabel, _poolLabel];\r\n    \r\n    struct _CertificateStruct{\r\n        mapping(bytes32 => Library._entityIdentity) _cert;\r\n    }\r\n    \r\n    struct _CertificatesPerHolderStruct{\r\n        mapping(address => _CertificateStruct) _CertificatesPerHolder;\r\n    }\r\n   \r\n    mapping(address => _CertificatesPerHolderStruct) _CertificatesPerPool;\r\n\r\n    // modifiers\r\n    modifier isAPool(address pool){\r\n        require(true == isPool(pool));\r\n        _;\r\n    }\r\n    \r\n    modifier isEntityActivated(bool YesOrNo, Library._entityIdentity memory Entity){\r\n        Library.EntityActivated(YesOrNo, Entity);\r\n        _;\r\n    }\r\n    \r\n    modifier HasNotAlreadyVoted(Library.Actions action, Library._entityIdentity memory Entity){\r\n        Library.NotAlreadyVoted(action, Entity);\r\n        _;\r\n    }\r\n\r\n     // Constructor\r\n    constructor(address[] memory owners,  uint256 minOwners) \r\n        MultiSigContract(owners, minOwners, TotalEntities, _Label, _ownerIdProviders)\r\n    payable\r\n    {}\r\n\r\n    // POOL CRUD Operations\r\n    function addPool(address pool, string memory poolInfo) external override{\r\n        addEntity(pool, bytes(poolInfo), _poolId);\r\n    }\r\n\r\n    function removePool(address pool) external override{\r\n       removeEntity(pool, _poolId); \r\n    }\r\n    \r\n    function retrievePool(address pool) external override view returns (string memory){\r\n        return InternalRetrievePool(pool);\r\n    }\r\n    \r\n    function InternalRetrievePool(address pool) internal view returns (string memory){\r\n        return string(retrieveEntity(pool, _poolId));\r\n    }\r\n\r\n    function retrieveAllPools() external override view returns (address[] memory){\r\n        return(retrieveAllEntities(_poolId));\r\n    }\r\n    \r\n    function retrieveTotalPools() external override view returns (uint){\r\n        return (retrieveTotalEntities(_poolId));\r\n    }\r\n\r\n    function isPool(address pool) public view returns (bool){\r\n        return(isEntity(pool, _poolId));\r\n    }\r\n    \r\n    // Certificates management\r\n     function addCertificate(address pool, bytes32 CertificateHash, address holder) external override\r\n     {\r\n        manipulateCertificate(pool, CertificateHash, holder, Library.Actions.Add);\r\n     }\r\n     \r\n     function removeCertificate(address pool, bytes32 CertificateHash, address holder) external override\r\n     {\r\n         manipulateCertificate(pool, CertificateHash, holder, Library.Actions.Remove);\r\n     }\r\n\r\n    \r\n    function manipulateCertificate(address pool, bytes32 CertificateHash, address holder, Library.Actions act) \r\n        isAPool(pool)\r\n        isAnOwner\r\n        HasNotAlreadyVoted(act, _CertificatesPerPool[pool]._CertificatesPerHolder[holder]._cert[CertificateHash])\r\n    internal{\r\n        \r\n        uint validations;\r\n        \r\n        if(act == Library.Actions.Add){\r\n            _CertificatesPerPool[pool]._CertificatesPerHolder[holder]._cert[CertificateHash]._AddValidated.push(msg.sender);\r\n            validations = _CertificatesPerPool[pool]._CertificatesPerHolder[holder]._cert[CertificateHash]._AddValidated.length;\r\n        }\r\n        else{\r\n            _CertificatesPerPool[pool]._CertificatesPerHolder[holder]._cert[CertificateHash]._RemoveValidated.push(msg.sender);\r\n            validations = _CertificatesPerPool[pool]._CertificatesPerHolder[holder]._cert[CertificateHash]._RemoveValidated.length;\r\n        }\r\n\r\n        if(Library.CheckValidations(validations, _minOwners)){\r\n            MultiSigCertificatesPool poolToSend;\r\n            \r\n            if(keccak256(abi.encodePacked(\"Private\")) == keccak256(abi.encodePacked((InternalRetrievePool(pool))))){\r\n                poolToSend = PrivateCertificatesPool(pool);\r\n            }\r\n            else {\r\n                poolToSend = PublicCertificatesPool(pool);\r\n            }\r\n            \r\n            \r\n            if(act == Library.Actions.Add){\r\n                poolToSend.addCertificate(CertificateHash, holder);\r\n            }\r\n            else{\r\n               poolToSend.removeCertificate(CertificateHash, holder);\r\n            }\r\n            \r\n            delete(_CertificatesPerPool[pool]._CertificatesPerHolder[holder]._cert[CertificateHash]);\r\n            \r\n        }\r\n    }\r\n    \r\n }",
  "sourcePath": "C:/Users/d-aam/GitHub/Certificates/contracts/Provider.sol",
  "compiler": {
    "name": "solc",
    "version": "0.7.6+commit.7338295f.Emscripten.clang"
  },
  "schemaVersion": "3.3.4",
  "updatedAt": "2021-07-07T14:09:27.136Z",
  "networkType": "ethereum",
  "devdoc": {
    "kind": "dev",
    "methods": {},
    "version": 1
  },
  "userdoc": {
    "kind": "user",
    "methods": {},
    "version": 1
  }
}