{
  "contractName": "Provider",
  "abi": [
    {
      "inputs": [
        {
          "internalType": "address[]",
          "name": "owners",
          "type": "address[]"
        },
        {
          "internalType": "uint256",
          "name": "minOwners",
          "type": "uint256"
        },
        {
          "internalType": "uint256",
          "name": "TotalEntities",
          "type": "uint256"
        },
        {
          "internalType": "string[]",
          "name": "labels",
          "type": "string[]"
        },
        {
          "internalType": "uint256",
          "name": "ownerId",
          "type": "uint256"
        }
      ],
      "name": "MultiSigContract_init",
      "outputs": [],
      "stateMutability": "nonpayable",
      "type": "function"
    },
    {
      "inputs": [
        {
          "internalType": "address",
          "name": "owner",
          "type": "address"
        },
        {
          "internalType": "string",
          "name": "ownerInfo",
          "type": "string"
        }
      ],
      "name": "addOwner",
      "outputs": [],
      "stateMutability": "nonpayable",
      "type": "function"
    },
    {
      "inputs": [
        {
          "internalType": "uint256",
          "name": "newMinOwners",
          "type": "uint256"
        }
      ],
      "name": "changeMinOwners",
      "outputs": [],
      "stateMutability": "nonpayable",
      "type": "function"
    },
    {
      "inputs": [],
      "name": "rejectMinOwners",
      "outputs": [],
      "stateMutability": "nonpayable",
      "type": "function"
    },
    {
      "inputs": [
        {
          "internalType": "address",
          "name": "owner",
          "type": "address"
        }
      ],
      "name": "rejectOwner",
      "outputs": [],
      "stateMutability": "nonpayable",
      "type": "function"
    },
    {
      "inputs": [
        {
          "internalType": "address",
          "name": "owner",
          "type": "address"
        }
      ],
      "name": "removeOwner",
      "outputs": [],
      "stateMutability": "nonpayable",
      "type": "function"
    },
    {
      "inputs": [],
      "name": "retrieveAllOwners",
      "outputs": [
        {
          "internalType": "bytes32[]",
          "name": "",
          "type": "bytes32[]"
        }
      ],
      "stateMutability": "view",
      "type": "function"
    },
    {
      "inputs": [],
      "name": "retrieveMinOwners",
      "outputs": [
        {
          "internalType": "uint256",
          "name": "",
          "type": "uint256"
        }
      ],
      "stateMutability": "view",
      "type": "function"
    },
    {
      "inputs": [
        {
          "internalType": "address",
          "name": "owner",
          "type": "address"
        }
      ],
      "name": "retrieveOwner",
      "outputs": [
        {
          "internalType": "string",
          "name": "",
          "type": "string"
        },
        {
          "internalType": "bool",
          "name": "",
          "type": "bool"
        }
      ],
      "stateMutability": "view",
      "type": "function"
    },
    {
      "inputs": [],
      "name": "retrievePendingMinOwners",
      "outputs": [
        {
          "internalType": "uint256",
          "name": "",
          "type": "uint256"
        }
      ],
      "stateMutability": "view",
      "type": "function"
    },
    {
      "inputs": [
        {
          "internalType": "bool",
          "name": "addedORremove",
          "type": "bool"
        }
      ],
      "name": "retrievePendingOwners",
      "outputs": [
        {
          "internalType": "bytes32[]",
          "name": "",
          "type": "bytes32[]"
        },
        {
          "internalType": "string[]",
          "name": "",
          "type": "string[]"
        }
      ],
      "stateMutability": "view",
      "type": "function"
    },
    {
      "inputs": [],
      "name": "validateMinOwners",
      "outputs": [],
      "stateMutability": "nonpayable",
      "type": "function"
    },
    {
      "inputs": [
        {
          "internalType": "address",
          "name": "owner",
          "type": "address"
        }
      ],
      "name": "validateOwner",
      "outputs": [],
      "stateMutability": "nonpayable",
      "type": "function"
    },
    {
      "stateMutability": "payable",
      "type": "receive"
    },
    {
      "inputs": [
        {
          "internalType": "address[]",
          "name": "owners",
          "type": "address[]"
        },
        {
          "internalType": "uint256",
          "name": "minOwners",
          "type": "uint256"
        },
        {
          "internalType": "string",
          "name": "ProviderInfo",
          "type": "string"
        }
      ],
      "name": "Provider_init",
      "outputs": [],
      "stateMutability": "nonpayable",
      "type": "function"
    },
    {
      "inputs": [
        {
          "internalType": "address",
          "name": "pool",
          "type": "address"
        },
        {
          "internalType": "string",
          "name": "poolInfo",
          "type": "string"
        },
        {
          "internalType": "bool",
          "name": "mustSubscribe",
          "type": "bool"
        }
      ],
      "name": "addPool",
      "outputs": [],
      "stateMutability": "nonpayable",
      "type": "function"
    },
    {
      "inputs": [
        {
          "internalType": "address",
          "name": "pool",
          "type": "address"
        }
      ],
      "name": "removePool",
      "outputs": [],
      "stateMutability": "nonpayable",
      "type": "function"
    },
    {
      "inputs": [
        {
          "internalType": "address",
          "name": "pool",
          "type": "address"
        }
      ],
      "name": "validatePool",
      "outputs": [],
      "stateMutability": "nonpayable",
      "type": "function"
    },
    {
      "inputs": [
        {
          "internalType": "address",
          "name": "pool",
          "type": "address"
        }
      ],
      "name": "rejectPool",
      "outputs": [],
      "stateMutability": "nonpayable",
      "type": "function"
    },
    {
      "inputs": [
        {
          "internalType": "address",
          "name": "pool",
          "type": "address"
        }
      ],
      "name": "retrievePool",
      "outputs": [
        {
          "internalType": "string",
          "name": "",
          "type": "string"
        },
        {
          "internalType": "bool",
          "name": "",
          "type": "bool"
        },
        {
          "internalType": "bool",
          "name": "",
          "type": "bool"
        }
      ],
      "stateMutability": "view",
      "type": "function"
    },
    {
      "inputs": [],
      "name": "retrieveAllPools",
      "outputs": [
        {
          "internalType": "bytes32[]",
          "name": "",
          "type": "bytes32[]"
        }
      ],
      "stateMutability": "view",
      "type": "function"
    },
    {
      "inputs": [
        {
          "internalType": "bool",
          "name": "addedORremove",
          "type": "bool"
        }
      ],
      "name": "retrievePendingPools",
      "outputs": [
        {
          "internalType": "bytes32[]",
          "name": "",
          "type": "bytes32[]"
        },
        {
          "internalType": "string[]",
          "name": "",
          "type": "string[]"
        }
      ],
      "stateMutability": "view",
      "type": "function"
    },
    {
      "inputs": [
        {
          "internalType": "address",
          "name": "pool",
          "type": "address"
        },
        {
          "internalType": "bytes32",
          "name": "CertificateHash",
          "type": "bytes32"
        },
        {
          "internalType": "address",
          "name": "holder",
          "type": "address"
        }
      ],
      "name": "addCertificate",
      "outputs": [],
      "stateMutability": "nonpayable",
      "type": "function"
    },
    {
      "inputs": [
        {
          "internalType": "address",
          "name": "pool",
          "type": "address"
        },
        {
          "internalType": "bytes32",
          "name": "CertificateHash",
          "type": "bytes32"
        },
        {
          "internalType": "address",
          "name": "holder",
          "type": "address"
        }
      ],
      "name": "validateCertificate",
      "outputs": [],
      "stateMutability": "nonpayable",
      "type": "function"
    },
    {
      "inputs": [
        {
          "internalType": "address",
          "name": "pool",
          "type": "address"
        },
        {
          "internalType": "bytes32",
          "name": "CertificateHash",
          "type": "bytes32"
        },
        {
          "internalType": "address",
          "name": "holder",
          "type": "address"
        }
      ],
      "name": "rejectCertificate",
      "outputs": [],
      "stateMutability": "nonpayable",
      "type": "function"
    },
    {
      "inputs": [],
      "name": "retrievePendingCertificates",
      "outputs": [
        {
          "components": [
            {
              "internalType": "address",
              "name": "pool",
              "type": "address"
            },
            {
              "internalType": "address",
              "name": "holder",
              "type": "address"
            },
            {
              "internalType": "bytes32",
              "name": "certificate",
              "type": "bytes32"
            }
          ],
          "internalType": "struct Library._pendingCertificatesStruct[]",
          "name": "",
          "type": "tuple[]"
        }
      ],
      "stateMutability": "view",
      "type": "function"
    },
    {
      "inputs": [
        {
          "internalType": "address",
          "name": "pool",
          "type": "address"
        },
        {
          "internalType": "bytes32",
          "name": "CertificateHash",
          "type": "bytes32"
        },
        {
          "internalType": "address",
          "name": "holder",
          "type": "address"
        }
      ],
      "name": "isCertificate",
      "outputs": [
        {
          "internalType": "bool",
          "name": "",
          "type": "bool"
        }
      ],
      "stateMutability": "view",
      "type": "function"
    },
    {
      "inputs": [
        {
          "internalType": "bytes32",
          "name": "item",
          "type": "bytes32"
        },
        {
          "internalType": "uint256[]",
          "name": "ids",
          "type": "uint256[]"
        },
        {
          "internalType": "bool",
          "name": "addOrRemove",
          "type": "bool"
        }
      ],
      "name": "onItemValidated",
      "outputs": [],
      "stateMutability": "nonpayable",
      "type": "function"
    },
    {
      "inputs": [
        {
          "internalType": "bytes32",
          "name": "item",
          "type": "bytes32"
        },
        {
          "internalType": "uint256[]",
          "name": "ids",
          "type": "uint256[]"
        },
        {
          "internalType": "bool",
          "name": "addOrRemove",
          "type": "bool"
        }
      ],
      "name": "onItemRejected",
      "outputs": [],
      "stateMutability": "nonpayable",
      "type": "function"
    }
  ],
  "bytecode": "0x608060405234801561001057600080fd5b50613f2c806100206000396000f3fe60806040526004361061014b5760003560e01c8063017cb3db1461015757806314a2ed2f14610179578063173825d9146101995780632d99aaf2146101b95780632edbe7fc146101e457806330ade922146102035780633542758f146102185780633b7d0946146102385780633fd0718114610258578063530467461461027857806365b973e5146102985780636b299604146102ad57806376f8f90f146102db57806377bc5a1f146102fb5780637c8c2add146103295780638fc2d8ea14610349578063a44bff2b14610378578063a706752c14610398578063a93d5ed6146103c8578063bd9f3705146103dd578063c3079ae7146103fd578063c66433ea14610412578063cd019e0714610432578063ce33d58a14610454578063cf2041d914610474578063d920928914610494578063f8049382146104b4578063fb1f6917146104d457600080fd5b3661015257005b600080fd5b34801561016357600080fd5b506101776101723660046133fb565b6104f4565b005b34801561018557600080fd5b506101776101943660046133fb565b6105c8565b3480156101a557600080fd5b506101776101b43660046133c1565b61065b565b3480156101c557600080fd5b506101ce6106a7565b6040516101db9190613a3d565b60405180910390f35b3480156101f057600080fd5b506005545b6040519081526020016101db565b34801561020f57600080fd5b506101776106b8565b34801561022457600080fd5b5061017761023336600461343d565b6107ba565b34801561024457600080fd5b506101776102533660046133c1565b6107c8565b34801561026457600080fd5b506101776102733660046137ba565b6107d3565b34801561028457600080fd5b50610177610293366004613491565b6108ef565b3480156102a457600080fd5b506001546101f5565b3480156102b957600080fd5b506102cd6102c8366004613767565b610959565b6040516101db929190613a50565b3480156102e757600080fd5b506101776102f63660046133c1565b610971565b34801561030757600080fd5b5061031b6103163660046133c1565b6109cc565b6040516101db929190613b4c565b34801561033557600080fd5b506101776103443660046137ba565b6109dc565b34801561035557600080fd5b506103696103643660046133c1565b610d36565b6040516101db93929190613b70565b34801561038457600080fd5b506101776103933660046134f8565b610d73565b3480156103a457600080fd5b506103b86103b33660046133fb565b610fb3565b60405190151581526020016101db565b3480156103d457600080fd5b506101ce610fca565b3480156103e957600080fd5b506101776103f83660046133fb565b610fd7565b34801561040957600080fd5b5061017761106a565b34801561041e57600080fd5b5061017761042d366004613891565b611169565b34801561043e57600080fd5b50610447611254565b6040516101db9190613ac2565b34801561046057600080fd5b5061017761046f3660046133c1565b6112db565b34801561048057600080fd5b5061017761048f366004613564565b6112e7565b3480156104a057600080fd5b506101776104af3660046133c1565b611592565b3480156104c057600080fd5b506102cd6104cf366004613767565b61159d565b3480156104e057600080fd5b506101776104ef3660046133c1565b6115ab565b826104fe816115b6565b151560011461050c57600080fd5b610518336000546115c9565b15156001146105425760405162461bcd60e51b815260040161053990613c63565b60405180910390fd5b6000806105508686866117ba565b604051635cb09bcf60e01b8152919350915073__ItemsLibrary__________________________90635cb09bcf9061059090859085903090600401613c9f565b60006040518083038186803b1580156105a857600080fd5b505af41580156105bc573d6000803e3d6000fd5b50505050505050505050565b826105d2816115b6565b15156001146105e057600080fd5b6105ec336000546115c9565b151560011461060d5760405162461bcd60e51b815260040161053990613c63565b60008061061b8686866117ba565b6040516305cc2d5560e11b8152919350915073__ItemsLibrary__________________________90630b985aaa9061059090859085903090600401613c9f565b600154600161066b60005461184b565b516106769190613de2565b808211156106965760405162461bcd60e51b815260040161053990613bb8565b6106a2836000546119b2565b505050565b60606106b3600161184b565b905090565b6106c4336000546115c9565b15156001146106e55760405162461bcd60e51b815260040161053990613c63565b60016005546107065760405162461bcd60e51b815260040161053990613bd7565b60405163f7cf62d760e01b815273__AddressLibrary________________________9063f7cf62d790610740903390600890600401613925565b60206040518083038186803b15801561075857600080fd5b505af415801561076c573d6000803e3d6000fd5b505050506040513d601f19601f820116820180604052508101906107909190613784565b156107ad5760405162461bcd60e51b815260040161053990613c81565b6107b76001611aec565b50565b6106a2838383600054611b73565b6107b78160016119b2565b6107df84848484611d0f565b6001838360008181106107f4576107f4613ea7565b9050602002013514156108a357604051631e99d35d60e31b81526004810185905260009073__AddressLibrary________________________9063f4ce9ae89060240160206040518083038186803b15801561084f57600080fd5b505af4158015610863573d6000803e3d6000fd5b505050506040513d601f19601f8201168201806040525081019061088791906133de565b90506001821515141561089d5761089d81611dd9565b506108e9565b6002838360008181106108b8576108b8613ea7565b9050602002013514156108e9576108e9600d848460038181106108dd576108dd613ea7565b90506020020135611e0f565b50505050565b6001600160a01b0384166000908152600a602052604090205460ff1661094c576001600160a01b0384166000908152600960209081526040808320805485151560ff1991821617909155600a909252909120805490911660011790555b6108e98484846001611b73565b60608061096883600054611ee6565b91509150915091565b61097d81600054612065565b1515600114156109c057600161099460005461184b565b5161099f9190613de2565b60015411156109c05760405162461bcd60e51b815260040161053990613bb8565b6107b7816000546121d1565b60606000610968836000546122cb565b6109e884848484611d0f565b6001838360008181106109fd576109fd613ea7565b905060200201351415610baf57604051631e99d35d60e31b81526004810185905260009073__AddressLibrary________________________9063f4ce9ae89060240160206040518083038186803b158015610a5857600080fd5b505af4158015610a6c573d6000803e3d6000fd5b505050506040513d601f19601f82011682018060405250810190610a9091906133de565b905081610aa557610aa081611dd9565b61089d565b6001600160a01b03811660009081526009602052604090205460ff1615156001141561089d5760008190506000816001600160a01b03166357e7ea2e6040518163ffffffff1660e01b815260040160206040518083038186803b158015610b0b57600080fd5b505afa158015610b1f573d6000803e3d6000fd5b505050506040513d601f19601f82011682018060405250810190610b4391906137a1565b9050816001600160a01b031663fc0005008230600e6040518463ffffffff1660e01b8152600401610b75929190613984565b6000604051808303818588803b158015610b8e57600080fd5b505af1158015610ba2573d6000803e3d6000fd5b50505050505050506108e9565b600283836000818110610bc457610bc4613ea7565b9050602002013514156108e957610d1e73__AddressLibrary________________________63b1e2771485856001818110610c0157610c01613ea7565b905060200201356040518263ffffffff1660e01b8152600401610c2691815260200190565b60206040518083038186803b158015610c3e57600080fd5b505af4158015610c52573d6000803e3d6000fd5b505050506040513d601f19601f82011682018060405250810190610c7691906133de565b8573__AddressLibrary________________________63b1e2771487876002818110610ca457610ca4613ea7565b905060200201356040518263ffffffff1660e01b8152600401610cc991815260200190565b60206040518083038186803b158015610ce157600080fd5b505af4158015610cf5573d6000803e3d6000fd5b505050506040513d601f19601f82011682018060405250810190610d1991906133de565b6124c8565b6108e9600d848460038181106108dd576108dd613ea7565b606060008060606000610d48866126a9565b6001600160a01b0397909716600090815260096020526040902054909760ff90911695509350505050565b600454610100900460ff1680610d8c575060045460ff16155b610da85760405162461bcd60e51b815260040161053990613c15565b600454610100900460ff16158015610dca576004805461ffff19166101011790555b6040805160028082526060820190925290816020015b6060815260200190600190039081610de05750508051610e0891600b9160209091019061306f565b506040518060400160405280600581526020016427bbb732b960d91b815250600b600081548110610e3b57610e3b613ea7565b906000526020600020019080519060200190610e589291906130cc565b5060405180604001604052806004815260200163141bdbdb60e21b815250600b600181548110610e8a57610e8a613ea7565b906000526020600020019080519060200190610ea79291906130cc565b50610f8884846002600b805480602002602001604051908101604052809291908181526020016000905b82821015610f7d578382906000526020600020018054610ef090613e25565b80601f0160208091040260200160405190810160405280929190818152602001828054610f1c90613e25565b8015610f695780601f10610f3e57610100808354040283529160200191610f69565b820191906000526020600020905b815481529060010190602001808311610f4c57829003601f168201915b505050505081526020019060010190610ed1565b5050505060006112e7565b8151610f9b90600e9060208501906130cc565b5080156108e9576004805461ff001916905550505050565b6000610fc08484846126b8565b90505b9392505050565b60606106b360005461184b565b82610fe1816115b6565b1515600114610fef57600080fd5b610ffb336000546115c9565b151560011461101c5760405162461bcd60e51b815260040161053990613c63565b60008061102a8686866117ba565b604051637493a70b60e01b8152919350915073__ItemsLibrary__________________________90637493a70b9061059090859085903090600401613c9f565b611076336000546115c9565b15156001146110975760405162461bcd60e51b815260040161053990613c63565b60016005546110b85760405162461bcd60e51b815260040161053990613bd7565b60405163f7cf62d760e01b815273__AddressLibrary________________________9063f7cf62d7906110f2903390600890600401613925565b60206040518083038186803b15801561110a57600080fd5b505af415801561111e573d6000803e3d6000fd5b505050506040513d601f19601f820116820180604052508101906111429190613784565b1561115f5760405162461bcd60e51b815260040161053990613c81565b6107b76000611aec565b611175336000546115c9565b15156001146111965760405162461bcd60e51b815260040161053990613c63565b6000600554156111d05760405162461bcd60e51b8152602060048201526005602482015264454333302d60d81b6044820152606401610539565b816002600054815481106111e6576111e6613ea7565b9060005260206000209060040201600101805490508082111561121b5760405162461bcd60e51b815260040161053990613bb8565b60008481811161123d5760405162461bcd60e51b815260040161053990613bf6565b600586905561124c6001611aec565b505050505050565b6060600d805480602002602001604051908101604052809291908181526020016000905b828210156112d2576000848152602090819020604080516060810182526003860290920180546001600160a01b03908116845260018083015490911684860152600290910154918301919091529083529092019101611278565b50505050905090565b6107b781600054612767565b600454610100900460ff1680611300575060045460ff16155b61131c5760405162461bcd60e51b815260040161053990613c15565b600454610100900460ff1615801561133e576004805461ffff19166101011790555b848651808211156113615760405162461bcd60e51b815260040161053990613bb8565b6000878181116113835760405162461bcd60e51b815260040161053990613bf6565b865188146113bb5760405162461bcd60e51b8152602060048201526005602482015264454331382d60d81b6044820152606401610539565b60008681555b888110156114315760028054600101815560005287516003908990839081106113ec576113ec613ea7565b6020908102919091018101518254600181018455600093845292829020815161141e94919091019291909101906130cc565b508061142981613e60565b9150506113c1565b50600189905560005b8a5181101561157457600073__AddressLibrary________________________63bc215e858d848151811061147157611471613ea7565b60200260200101516040518263ffffffff1660e01b81526004016114959190613911565b60206040518083038186803b1580156114ad57600080fd5b505af41580156114c1573d6000803e3d6000fd5b505050506040513d601f19601f820116820180604052508101906114e591906137a1565b905060016002600054815481106114fe576114fe613ea7565b60009182526020808320858452600492909202909101905260408120805460ff1916921515929092179091555460028054909190811061154057611540613ea7565b600091825260208083206001600490930201820180549283018155835290912001558061156c81613e60565b91505061143a565b5050505050801561124c576004805461ff0019169055505050505050565b6107b78160016121d1565b606080610968836001611ee6565b6107b7816001612767565b60006115c38260016115c9565b92915050565b60025460405163123bd07560e11b8152600091839173__Library_______________________________90632477a0ea9061160a9085908590600401613b3e565b60206040518083038186803b15801561162257600080fd5b505af4158015611636573d6000803e3d6000fd5b505050506040513d601f19601f8201168201806040525081019061165a9190613784565b151560011461167b5760405162461bcd60e51b815260040161053990613b9a565b60405163bc215e8560e01b815260009073__AddressLibrary________________________9063bc215e85906116b5908990600401613911565b60206040518083038186803b1580156116cd57600080fd5b505af41580156116e1573d6000803e3d6000fd5b505050506040513d601f19601f8201168201806040525081019061170591906137a1565b905073__ItemsLibrary__________________________63dbdfbeec826002888154811061173557611735613ea7565b90600052602060002090600402016040518363ffffffff1660e01b8152600401611760929190613b3e565b60206040518083038186803b15801561177857600080fd5b505af415801561178c573d6000803e3d6000fd5b505050506040513d601f19601f820116820180604052508101906117b09190613784565b9695505050505050565b6117c261314c565b6000806117d0868686612861565b6040805160a0810182529687528051602080820183526000808352818a01929092526001548984015282518084018452600b81526a436572746966696361746560a81b8183015260608a015260808901939093526001600160a01b039889168152600c83528181209690981688529490525050509091209091565b60025460405163123bd07560e11b8152606091839173__Library_______________________________90632477a0ea9061188c9085908590600401613b3e565b60206040518083038186803b1580156118a457600080fd5b505af41580156118b8573d6000803e3d6000fd5b505050506040513d601f19601f820116820180604052508101906118dc9190613784565b15156001146118fd5760405162461bcd60e51b815260040161053990613b9a565b73__ItemsLibrary__________________________6327724f4b6002868154811061192a5761192a613ea7565b90600052602060002090600402016040518263ffffffff1660e01b815260040161195691815260200190565b60006040518083038186803b15801561196e57600080fd5b505af4158015611982573d6000803e3d6000fd5b505050506040513d6000823e601f3d908101601f191682016040526119aa9190810190613659565b949350505050565b60025460405163123bd07560e11b815282919073__Library_______________________________90632477a0ea906119f19085908590600401613b3e565b60206040518083038186803b158015611a0957600080fd5b505af4158015611a1d573d6000803e3d6000fd5b505050506040513d601f19601f82011682018060405250810190611a419190613784565b1515600114611a625760405162461bcd60e51b815260040161053990613b9a565b611a6e336000546115c9565b1515600114611a8f5760405162461bcd60e51b815260040161053990613c63565b600080611aac866040518060200160405280600081525087612bb4565b60405163e23fcdef60e01b8152919350915073__ItemsLibrary__________________________9063e23fcdef9061059090859085903090600401613c9f565b8015611b1057600160066000828254611b059190613dca565b90915550611b299050565b600160076000828254611b239190613dca565b90915550505b600880546001810182556000919091527ff3f7a9fe364faab93b216da50a3214154f22a0a2b415b23a84c8169e8b636ee30180546001600160a01b031916331790556107b7612d93565b60025460405163123bd07560e11b815282919073__Library_______________________________90632477a0ea90611bb29085908590600401613b3e565b60206040518083038186803b158015611bca57600080fd5b505af4158015611bde573d6000803e3d6000fd5b505050506040513d601f19601f82011682018060405250810190611c029190613784565b1515600114611c235760405162461bcd60e51b815260040161053990613b9a565b611c2f336000546115c9565b1515600114611c505760405162461bcd60e51b815260040161053990613c63565b600080611c958888888080601f0160208091040260200160405190810160405280939291908181526020018383808284376000920191909152508a9250612bb4915050565b6040516305cc2d5560e11b8152919350915073__ItemsLibrary__________________________90630b985aaa90611cd590859085903090600401613c9f565b60006040518083038186803b158015611ced57600080fd5b505af4158015611d01573d6000803e3d6000fd5b505050505050505050505050565b604051630d1d719d60e41b8152309073__Library_______________________________9063d1d719d090611d48908490600401613911565b60206040518083038186803b158015611d6057600080fd5b505af4158015611d74573d6000803e3d6000fd5b505050506040513d601f19601f82011682018060405250810190611d989190613784565b1515600114611dd25760405162461bcd60e51b8152600401610539906020808252600490820152634543382d60e01b604082015260600190565b5050505050565b6001600160a01b03166000908152600a60209081526040808320805460ff19908116909155600990925290912080549091169055565b81548290611e1f90600190613de2565b81548110611e2f57611e2f613ea7565b9060005260206000209060030201828281548110611e4f57611e4f613ea7565b60009182526020909120825460039092020180546001600160a01b039283166001600160a01b03199182161782556001808501549083018054919094169116179091556002918201549101558154829080611eac57611eac613e91565b60008281526020812060036000199093019283020180546001600160a01b0319908116825560018201805490911690556002015590555050565b60025460405163123bd07560e11b8152606091829184919073__Library_______________________________90632477a0ea90611f2a9085908590600401613b3e565b60206040518083038186803b158015611f4257600080fd5b505af4158015611f56573d6000803e3d6000fd5b505050506040513d601f19601f82011682018060405250810190611f7a9190613784565b1515600114611f9b5760405162461bcd60e51b815260040161053990613b9a565b60608073__ItemsLibrary__________________________63e035e0068960028a81548110611fcc57611fcc613ea7565b90600052602060002090600402016040518363ffffffff1660e01b81526004016120029291909115158252602082015260400190565b60006040518083038186803b15801561201a57600080fd5b505af415801561202e573d6000803e3d6000fd5b505050506040513d6000823e601f3d908101601f19168201604052612056919081019061368d565b90999098509650505050505050565b60025460405163123bd07560e11b8152600091839173__Library_______________________________90632477a0ea906120a69085908590600401613b3e565b60206040518083038186803b1580156120be57600080fd5b505af41580156120d2573d6000803e3d6000fd5b505050506040513d601f19601f820116820180604052508101906120f69190613784565b15156001146121175760405162461bcd60e51b815260040161053990613b9a565b60405163bc215e8560e01b815260009073__AddressLibrary________________________9063bc215e8590612151908990600401613911565b60206040518083038186803b15801561216957600080fd5b505af415801561217d573d6000803e3d6000fd5b505050506040513d601f19601f820116820180604052508101906121a191906137a1565b905073__ItemsLibrary__________________________632854ed2e826002888154811061173557611735613ea7565b60025460405163123bd07560e11b815282919073__Library_______________________________90632477a0ea906122109085908590600401613b3e565b60206040518083038186803b15801561222857600080fd5b505af415801561223c573d6000803e3d6000fd5b505050506040513d601f19601f820116820180604052508101906122609190613784565b15156001146122815760405162461bcd60e51b815260040161053990613b9a565b61228d336000546115c9565b15156001146122ae5760405162461bcd60e51b815260040161053990613c63565b60008061102a866040518060200160405280600081525087612bb4565b60025460405163123bd07560e11b815260609160009184919073__Library_______________________________90632477a0ea906123109085908590600401613b3e565b60206040518083038186803b15801561232857600080fd5b505af415801561233c573d6000803e3d6000fd5b505050506040513d601f19601f820116820180604052508101906123609190613784565b15156001146123815760405162461bcd60e51b815260040161053990613b9a565b60405163bc215e8560e01b815260009073__AddressLibrary________________________9063bc215e85906123bb908a90600401613911565b60206040518083038186803b1580156123d357600080fd5b505af41580156123e7573d6000803e3d6000fd5b505050506040513d601f19601f8201168201806040525081019061240b91906137a1565b905073__ItemsLibrary__________________________631aeccc6a826002898154811061243b5761243b613ea7565b90600052602060002090600402016040518363ffffffff1660e01b8152600401612466929190613b3e565b60006040518083038186803b15801561247e57600080fd5b505af4158015612492573d6000803e3d6000fd5b505050506040513d6000823e601f3d908101601f191682016040526124ba9190810190613840565b945094505050509250929050565b826124d2816115b6565b15156001146124e057600080fd5b60008490506000816001600160a01b0316634774779d6040518163ffffffff1660e01b815260040160206040518083038186803b15801561252057600080fd5b505afa158015612534573d6000803e3d6000fd5b505050506040513d601f19601f8201168201806040525081019061255891906137a1565b9050816001600160a01b0316631ab807f88287876040518463ffffffff1660e01b8152600401612589929190613b27565b6000604051808303818588803b1580156125a257600080fd5b505af11580156125b6573d6000803e3d6000fd5b5050506001600160a01b038089166000908152600c60209081526040808320938a168352929052819020905163207c442760e01b815290925073__ItemsLibrary__________________________915063207c44279061261c9089908590600401613b3e565b60006040518083038186803b15801561263457600080fd5b505af4158015612648573d6000803e3d6000fd5b5050506000878152602083905260408120805460ff191681559150612670600183018261317e565b6002820160009055600382016000905560048201600061269091906131b8565b61269e6005830160006131b8565b505050505050505050565b606060006109688360016122cb565b60405163685256ff60e11b8152600090849082906001600160a01b0383169063d0a4adfe906126ed9088908890600401613b27565b60206040518083038186803b15801561270557600080fd5b505afa158015612719573d6000803e3d6000fd5b505050506040513d601f19601f8201168201806040525081019061273d91906133de565b90506001600160a01b03811630141561275b57600192505050610fc3565b50600095945050505050565b60025460405163123bd07560e11b815282919073__Library_______________________________90632477a0ea906127a69085908590600401613b3e565b60206040518083038186803b1580156127be57600080fd5b505af41580156127d2573d6000803e3d6000fd5b505050506040513d601f19601f820116820180604052508101906127f69190613784565b15156001146128175760405162461bcd60e51b815260040161053990613b9a565b612823336000546115c9565b15156001146128445760405162461bcd60e51b815260040161053990613c63565b600080610550866040518060200160405280600081525087612bb4565b60408051600480825260a0820190925260609160009182916020820160808036833701905050905060028160008151811061289e5761289e613ea7565b602090810291909101015260405163cf0668ed60e01b815273__AddressLibrary________________________9063cf0668ed906128e0908990600401613911565b60206040518083038186803b1580156128f857600080fd5b505af415801561290c573d6000803e3d6000fd5b505050506040513d601f19601f8201168201806040525081019061293091906137a1565b8160018151811061294357612943613ea7565b602090810291909101015260405163cf0668ed60e01b815273__AddressLibrary________________________9063cf0668ed90612985908790600401613911565b60206040518083038186803b15801561299d57600080fd5b505af41580156129b1573d6000803e3d6000fd5b505050506040513d601f19601f820116820180604052508101906129d591906137a1565b816002815181106129e8576129e8613ea7565b60200260200101818152505060006040518060600160405280886001600160a01b03168152602001866001600160a01b03168152602001878152509050612a30878787612ecb565b612aff57600d8054600181810183556000839052835160039092027fd7b6990105719101dabeb77144f2a3385c8033acd3af97e9423a695e81ad1eb5810180546001600160a01b039485166001600160a01b03199182161790915560208601517fd7b6990105719101dabeb77144f2a3385c8033acd3af97e9423a695e81ad1eb6830180549190951691161790925560408401517fd7b6990105719101dabeb77144f2a3385c8033acd3af97e9423a695e81ad1eb7909201919091559054612af89190613de2565b9250612b8b565b612b8881600d805480602002602001604051908101604052809291908181526020016000905b82821015612b7f576000848152602090819020604080516060810182526003860290920180546001600160a01b03908116845260018083015490911684860152600290910154918301919091529083529092019101612b25565b50505050612f79565b92505b8282600381518110612b9f57612b9f613ea7565b60209081029190910101525095945050505050565b612bbc61314c565b60008073__AddressLibrary________________________63bc215e85876040518263ffffffff1660e01b8152600401612bf69190613911565b60206040518083038186803b158015612c0e57600080fd5b505af4158015612c22573d6000803e3d6000fd5b505050506040513d601f19601f82011682018060405250810190612c4691906137a1565b60408051600180825281830190925291925060009190602080830190803683370190505090508481600081518110612c8057612c80613ea7565b60200260200101818152505060006040518060a00160405280848152602001888152602001600154815260200160038881548110612cc057612cc0613ea7565b906000526020600020018054612cd590613e25565b80601f0160208091040260200160405190810160405280929190818152602001828054612d0190613e25565b8015612d4e5780601f10612d2357610100808354040283529160200191612d4e565b820191906000526020600020905b815481529060010190602001808311612d3157829003601f168201915b50505050508152602001838152509050600060028781548110612d7357612d73613ea7565b600091825260209091209296506004029091019350505050935093915050565b60065460015460405163f6001d7d60e01b815273__ItemsLibrary__________________________9263f6001d7d92612dce92600401613b3e565b60206040518083038186803b158015612de657600080fd5b505af4158015612dfa573d6000803e3d6000fd5b505050506040513d601f19601f82011682018060405250810190612e1e9190613784565b15612e3357600554600155612e31613052565b565b60075460015460405163f6001d7d60e01b815273__ItemsLibrary__________________________9263f6001d7d92612e6e92600401613b3e565b60206040518083038186803b158015612e8657600080fd5b505af4158015612e9a573d6000803e3d6000fd5b505050506040513d601f19601f82011682018060405250810190612ebe9190613784565b15612e3157612e31613052565b6001600160a01b038084166000908152600c602090815260408083209385168352929052818120915162136bb360e11b8152909173__ItemsLibrary__________________________916226d76691612f2991879190600401613b3e565b60206040518083038186803b158015612f4157600080fd5b505af4158015612f55573d6000803e3d6000fd5b505050506040513d601f19601f82011682018060405250810190610fc09190613784565b6000805b825181101561304457828181518110612f9857612f98613ea7565b6020026020010151600001516001600160a01b031684600001516001600160a01b0316148015612ffa5750828181518110612fd557612fd5613ea7565b6020026020010151602001516001600160a01b031684602001516001600160a01b0316145b8015613026575082818151811061301357613013613ea7565b6020026020010151604001518460400151145b156130325790506115c3565b8061303c81613e60565b915050612f7d565b508151610fc3906001613dca565b6000600581905560068190556007819055612e31906008906131b8565b8280548282559060005260206000209081019282156130bc579160200282015b828111156130bc57825180516130ac9184916020909101906130cc565b509160200191906001019061308f565b506130c89291506131d6565b5090565b8280546130d890613e25565b90600052602060002090601f0160209004810192826130fa5760008555613140565b82601f1061311357805160ff1916838001178555613140565b82800160010185558215613140579182015b82811115613140578251825591602001919060010190613125565b506130c89291506131f3565b6040518060a0016040528060008019168152602001606081526020016000815260200160608152602001606081525090565b50805461318a90613e25565b6000825580601f1061319a575050565b601f0160209004906000526020600020908101906107b791906131f3565b50805460008255906000526020600020908101906107b791906131f3565b808211156130c85760006131ea828261317e565b506001016131d6565b5b808211156130c857600081556001016131f4565b600082601f83011261321957600080fd5b8135602061322e61322983613d80565b613d50565b80838252828201915082860187848660051b890101111561324e57600080fd5b60005b8581101561327657813561326481613ed3565b84529284019290840190600101613251565b5090979650505050505050565b600082601f83011261329457600080fd5b815160206132a461322983613d80565b80838252828201915082860187848660051b89010111156132c457600080fd5b60005b85811015613276578151845292840192908401906001016132c7565b60008083601f8401126132f557600080fd5b5081356001600160401b0381111561330c57600080fd5b60208301915083602082850101111561332457600080fd5b9250929050565b600082601f83011261333c57600080fd5b813561334a61322982613da3565b81815284602083860101111561335f57600080fd5b816020850160208301376000918101602001919091529392505050565b600082601f83011261338d57600080fd5b815161339b61322982613da3565b8181528460208386010111156133b057600080fd5b6119aa826020830160208701613df9565b6000602082840312156133d357600080fd5b8135610fc381613ed3565b6000602082840312156133f057600080fd5b8151610fc381613ed3565b60008060006060848603121561341057600080fd5b833561341b81613ed3565b925060208401359150604084013561343281613ed3565b809150509250925092565b60008060006040848603121561345257600080fd5b833561345d81613ed3565b925060208401356001600160401b0381111561347857600080fd5b613484868287016132e3565b9497909650939450505050565b600080600080606085870312156134a757600080fd5b84356134b281613ed3565b935060208501356001600160401b038111156134cd57600080fd5b6134d9878288016132e3565b90945092505060408501356134ed81613ee8565b939692955090935050565b60008060006060848603121561350d57600080fd5b83356001600160401b038082111561352457600080fd5b61353087838801613208565b945060208601359350604086013591508082111561354d57600080fd5b5061355a8682870161332b565b9150509250925092565b600080600080600060a0868803121561357c57600080fd5b85356001600160401b038082111561359357600080fd5b61359f89838a01613208565b965060209150818801359550604088013594506060880135818111156135c457600080fd5b8801601f81018a136135d557600080fd5b80356135e361322982613d80565b8082825285820191508584018d878560051b870101111561360357600080fd5b60005b8481101561363d57868235111561361c57600080fd5b61362b8f89843589010161332b565b84529287019290870190600101613606565b5050809750505050505050608086013590509295509295909350565b60006020828403121561366b57600080fd5b81516001600160401b0381111561368157600080fd5b6119aa84828501613283565b600080604083850312156136a057600080fd5b82516001600160401b03808211156136b757600080fd5b6136c386838701613283565b93506020915081850151818111156136da57600080fd5b8501601f810187136136eb57600080fd5b80516136f961322982613d80565b8082825285820191508584018a878560051b870101111561371957600080fd5b6000805b8581101561375457825188811115613733578283fd5b6137418e8b838b010161337c565b865250938801939188019160010161371d565b5050508096505050505050509250929050565b60006020828403121561377957600080fd5b8135610fc381613ee8565b60006020828403121561379657600080fd5b8151610fc381613ee8565b6000602082840312156137b357600080fd5b5051919050565b600080600080606085870312156137d057600080fd5b8435935060208501356001600160401b03808211156137ee57600080fd5b818701915087601f83011261380257600080fd5b81358181111561381157600080fd5b8860208260051b850101111561382657600080fd5b60208301955080945050505060408501356134ed81613ee8565b6000806040838503121561385357600080fd5b82516001600160401b0381111561386957600080fd5b6138758582860161337c565b925050602083015161388681613ee8565b809150509250929050565b6000602082840312156138a357600080fd5b5035919050565b600081518084526020808501945080840160005b838110156138da578151875295820195908201906001016138be565b509495945050505050565b600081518084526138fd816020860160208601613df9565b601f01601f19169290920160200192915050565b6001600160a01b0391909116815260200190565b60006040820160018060a01b03808616845260206040818601528286548085526060870191508760005282600020945060005b81811015613976578554851683526001958601959284019201613958565b509098975050505050505050565b60018060a01b0383168152600060206040818401526000845481600182811c9150808316806139b457607f831692505b8583108114156139d257634e487b7160e01b85526022600452602485fd5b60408801839052606088018180156139f15760018114613a0257613a2d565b60ff19861682528782019650613a2d565b60008b81526020902060005b86811015613a2757815484820152908501908901613a0e565b83019750505b50949a9950505050505050505050565b602081526000610fc360208301846138aa565b604081526000613a6360408301856138aa565b6020838203818501528185518084528284019150828160051b85010183880160005b83811015613ab357601f19878403018552613aa18383516138e5565b94860194925090850190600101613a85565b50909998505050505050505050565b602080825282518282018190526000919060409081850190868401855b82811015613b1a57815180516001600160a01b0390811686528782015116878601528501518585015260609093019290850190600101613adf565b5091979650505050505050565b9182526001600160a01b0316602082015260400190565b918252602082015260400190565b604081526000613b5f60408301856138e5565b905082151560208301529392505050565b606081526000613b8360608301866138e5565b931515602083015250901515604090910152919050565b6020808252600490820152634543312d60e01b604082015260600190565b602080825260059082015264454331392d60d81b604082015260600190565b602080825260059082015264454333312d60d81b604082015260600190565b602080825260059082015264454331372d60d81b604082015260600190565b6020808252602e908201527f496e697469616c697a61626c653a20636f6e747261637420697320616c72656160408201526d191e481a5b9a5d1a585b1a5e995960921b606082015260800190565b6020808252600490820152634543392d60e01b604082015260600190565b6020808252600490820152634543352d60e01b604082015260600190565b6060815283516060820152600060208086015160a06080850152613cc76101008501826138e5565b9050604087015160a08501526060870151605f19808684030160c0870152613cef83836138e5565b60808a015187820390920160e088015281518082529185019350600092508401905b80831015613d315783518252928401926001929092019190840190613d11565b5092850187905250506001600160a01b038416604084015290506119aa565b604051601f8201601f191681016001600160401b0381118282101715613d7857613d78613ebd565b604052919050565b60006001600160401b03821115613d9957613d99613ebd565b5060051b60200190565b60006001600160401b03821115613dbc57613dbc613ebd565b50601f01601f191660200190565b60008219821115613ddd57613ddd613e7b565b500190565b600082821015613df457613df4613e7b565b500390565b60005b83811015613e14578181015183820152602001613dfc565b838111156108e95750506000910152565b600181811c90821680613e3957607f821691505b60208210811415613e5a57634e487b7160e01b600052602260045260246000fd5b50919050565b6000600019821415613e7457613e74613e7b565b5060010190565b634e487b7160e01b600052601160045260246000fd5b634e487b7160e01b600052603160045260246000fd5b634e487b7160e01b600052603260045260246000fd5b634e487b7160e01b600052604160045260246000fd5b6001600160a01b03811681146107b757600080fd5b80151581146107b757600080fdfea26469706673582212208238bb5b8aa55a5120e621439eea6ceb9002f29c18d991ff27edd40332fc133664736f6c63430008070033",
  "immutableReferences": {},
  "source": "// SPDX-License-Identifier: GPL-3.0\r\n\r\npragma solidity >=0.7.0 <0.9.0;\r\n\r\n/**\r\n * @title Storage\r\n * @dev Store & retrieve value in a variable\r\n */\r\n import \"../Libraries/Library.sol\";\r\n import \"../Interfaces/IProvider.sol\";\r\n import \"../Interfaces/IPool.sol\";\r\n import \"../Abstract/MultiSigContract.sol\";\r\n import \"../Libraries/ItemsLibrary.sol\";\r\n import \"../Libraries/AddressLibrary.sol\";\r\n import \"@openzeppelin/contracts-upgradeable/proxy/utils/Initializable.sol\";\r\n import \"../Interfaces/IPriceConverter.sol\";\r\n\r\n contract Provider is IProvider, Initializable, MultiSigContract {\r\n    using Library for *;\r\n    using AddressLibrary for *;\r\n    using ItemsLibrary for *;\r\n\r\n    // DATA /////////////////////////////////////////\r\n    uint256 constant _TotalEntities = 2;\r\n\r\n    // Owners\r\n    uint256 constant _ownerIdProviders = 0;\r\n    string constant _ownerLabel = \"Owner\";\r\n\r\n    // Pools\r\n    uint256 constant _poolId = 1;\r\n    string constant _poolLabel = \"Pool\";\r\n\r\n    mapping(address => bool) private _mustSubscribe;\r\n    mapping(address => bool) private _submited;\r\n\r\n    // Certificates\r\n    uint256 constant _certId = 2;\r\n    string constant _certLabel = \"Certificate\";\r\n\r\n    string[] private _Label;\r\n    \r\n    struct _CertificatesPerHolderStruct{\r\n        mapping(address => ItemsLibrary._ItemsStruct) _CertificatesPerHolder;\r\n    }\r\n   \r\n    mapping(address => _CertificatesPerHolderStruct) private _CertificatesPerPool;\r\n    \r\n    Library._pendingCertificatesStruct[] private _pendingCertificates;\r\n\r\n    // Provider\r\n    string private _ProviderInfo;\r\n\r\n    // MODIFIERS /////////////////////////////////////////\r\n    modifier isAPool(address pool){\r\n        require(true == isPool(pool));\r\n        _;\r\n    }\r\n\r\n     // CONSTRUCTOR /////////////////////////////////////////\r\n    function Provider_init(address[] memory owners,  uint256 minOwners, string memory ProviderInfo) public initializer \r\n    {\r\n        _Label = new string[](2);\r\n        _Label[0] = _ownerLabel;\r\n        _Label[1] = _poolLabel;\r\n\r\n        super.MultiSigContract_init(owners, minOwners, _TotalEntities, _Label, _ownerIdProviders); \r\n        _ProviderInfo = ProviderInfo;\r\n    }\r\n\r\n    // FUNCTIONALITY /////////////////////////////////////////\r\n    function addPool(address pool, string calldata poolInfo, bool mustSubscribe) external override{\r\n         if(false == _submited[pool]){\r\n            _mustSubscribe[pool] = mustSubscribe;\r\n            _submited[pool] = true;\r\n        }\r\n        addEntity(pool, poolInfo, _poolId);\r\n    }\r\n\r\n    function removePool(address pool) external override\r\n    {\r\n       removeEntity(pool, _poolId); \r\n    }\r\n\r\n    function validatePool(address pool) external override\r\n    {\r\n        validateEntity(pool, _poolId);\r\n    }\r\n\r\n    function rejectPool(address pool) external override\r\n    {\r\n        rejectEntity(pool, _poolId);\r\n    }\r\n\r\n    function removeConfigForPool(address pool) internal\r\n    {\r\n        delete(_submited[pool]);\r\n        delete(_mustSubscribe[pool]);\r\n    }\r\n\r\n    function retrievePool(address pool) external override view returns (string memory, bool, bool)\r\n    {\r\n        string memory poolInfo;\r\n        bool isActivated;\r\n\r\n        (poolInfo, isActivated) = InternalRetrievePool(pool);\r\n        return (poolInfo, isActivated, _mustSubscribe[pool]);\r\n    }\r\n    \r\n    function InternalRetrievePool(address pool) internal view returns (string memory, bool)\r\n    {\r\n        return retrieveEntity(pool, _poolId);\r\n    }\r\n\r\n    function retrieveAllPools() external override view returns (bytes32[] memory)\r\n    {\r\n        return retrieveAllEntities(_poolId);\r\n    }\r\n\r\n    function retrievePendingPools(bool addedORremove) external override view returns (bytes32[] memory, string[] memory)\r\n    {\r\n        return(retrievePendingEntities(addedORremove, _poolId));\r\n    }\r\n\r\n    function isPool(address pool) internal view returns (bool)\r\n    {\r\n        return(isEntity(pool, _poolId));\r\n    }\r\n    // Certificates management\r\n    function extractCertIds(address pool, bytes32 CertificateHash, address holder) internal returns(uint[] memory)\r\n    {\r\n        uint otherId;\r\n        uint[] memory certIdIdArray = new uint[](4);\r\n        certIdIdArray[0] = _certId;\r\n        certIdIdArray[1] = AddressLibrary.AddressToUint(pool);\r\n        certIdIdArray[2] = AddressLibrary.AddressToUint(holder);\r\n\r\n        Library._pendingCertificatesStruct memory pCS = Library._pendingCertificatesStruct(pool, holder, CertificateHash);\r\n\r\n        if(!isCertificatePendingToAdded(pool, CertificateHash, holder)){\r\n            _pendingCertificates.push(pCS);\r\n            otherId = _pendingCertificates.length - 1;\r\n        }\r\n        else{\r\n            otherId = PositionInArray(pCS, _pendingCertificates);\r\n        }\r\n\r\n        certIdIdArray[3] = otherId;\r\n\r\n        return(certIdIdArray);\r\n    }\r\n\r\n    function addCertificate(address pool, bytes32 CertificateHash, address holder) external override\r\n        isAPool(pool)\r\n        isAnOwner\r\n     {\r\n        (ItemsLibrary._manipulateItemStruct memory manipulateItemStruct,\r\n            ItemsLibrary._ItemsStruct storage itemsstruct) = GenerateStructsCert(pool, CertificateHash, holder);\r\n\r\n        ItemsLibrary.addItem(manipulateItemStruct,itemsstruct, address(this));\r\n     }\r\n\r\n    function validateCertificate(address pool, bytes32 CertificateHash, address holder) external override\r\n        isAPool(pool)\r\n        isAnOwner\r\n     {\r\n        (ItemsLibrary._manipulateItemStruct memory manipulateItemStruct,\r\n            ItemsLibrary._ItemsStruct storage itemsstruct) = GenerateStructsCert(pool, CertificateHash, holder);\r\n\r\n        ItemsLibrary.validateItem(manipulateItemStruct, itemsstruct, address(this));\r\n     }\r\n\r\n    function rejectCertificate(address pool, bytes32 CertificateHash, address holder) external override\r\n        isAPool(pool)\r\n        isAnOwner\r\n    {\r\n        (ItemsLibrary._manipulateItemStruct memory manipulateItemStruct,\r\n            ItemsLibrary._ItemsStruct storage itemsstruct) = GenerateStructsCert(pool, CertificateHash, holder);\r\n\r\n        ItemsLibrary.rejectItem(manipulateItemStruct, itemsstruct, address(this));\r\n    }\r\n\r\n    function GenerateStructsCert(address pool, bytes32 CertificateHash, address holder) internal\r\n        returns(ItemsLibrary._manipulateItemStruct memory, ItemsLibrary._ItemsStruct storage)\r\n    {\r\n        uint[] memory certIdIdArray = extractCertIds(pool, CertificateHash, holder);\r\n        ItemsLibrary._manipulateItemStruct memory manipulateItemStruct = ItemsLibrary._manipulateItemStruct(CertificateHash, \"\", _minOwners, _certLabel, certIdIdArray);\r\n        ItemsLibrary._ItemsStruct storage itemsstruct =  _CertificatesPerPool[pool]._CertificatesPerHolder[holder];\r\n        return (manipulateItemStruct, itemsstruct);\r\n    }\r\n \r\n    function manipulateCertificate(address pool, bytes32 CertificateHash, address holder) internal\r\n        isAPool(pool)\r\n    {\r\n        IPool poolToSend = IPool(pool);\r\n\r\n        uint AddCertificatePriceWei = poolToSend.retrieveAddCertificatePriceWei();\r\n\r\n        poolToSend.addCertificate{value:AddCertificatePriceWei}(CertificateHash, holder);\r\n\r\n        ItemsLibrary._ItemsStruct storage itemStruct = _CertificatesPerPool[pool]._CertificatesPerHolder[holder];\r\n\r\n        ItemsLibrary.RemoveResizeActivated(CertificateHash, itemStruct);\r\n        delete(itemStruct._items[CertificateHash]);\r\n    }\r\n\r\n    function retrievePendingCertificates() external override view returns (Library._pendingCertificatesStruct[] memory)\r\n    {\r\n        return(_pendingCertificates);\r\n    }\r\n\r\n    function isCertificate(address pool, bytes32 CertificateHash, address holder) external override view returns(bool)\r\n    {\r\n        return internalisCertificate(pool, CertificateHash, holder);\r\n    }\r\n\r\n    function internalisCertificate(address pool, bytes32 CertificateHash, address holder) internal view returns(bool)\r\n    {\r\n        IPool poolToCheck = IPool(pool);\r\n        address provider = poolToCheck.retrieveCertificateProvider(CertificateHash, holder);\r\n        if(provider == address(this)) return true;\r\n        return false;\r\n    }\r\n\r\n    function isCertificatePendingToAdded(address pool, bytes32 CertificateHash, address holder) internal view returns(bool)\r\n    {\r\n        return ItemsLibrary.isItemPendingToAdded(CertificateHash, _CertificatesPerPool[pool]._CertificatesPerHolder[holder]);\r\n    }\r\n\r\n    function RemoveResizeCertificatesStructArray(Library._pendingCertificatesStruct[] storage array, uint index) internal\r\n    {\r\n        array[index] = array[array.length - 1];\r\n        array.pop();\r\n    }\r\n\r\n    function PositionInArray(Library._pendingCertificatesStruct memory value, Library._pendingCertificatesStruct[] memory array) internal pure returns(uint)\r\n    {\r\n         for(uint i=0; i < array.length; i++){\r\n            if(value.pool == array[i].pool && \r\n                value.holder == array[i].holder && \r\n                value.certificate == array[i].certificate) return i;\r\n        }\r\n\r\n        return array.length + 1;\r\n    }\r\n\r\n    receive() external override payable{}\r\n\r\n    // CALLBACKS /////////////////////////////////////////\r\n    function onItemValidated(bytes32 item, uint256[] calldata ids, bool addOrRemove) public override  \r\n    {\r\n        super.onItemValidated(item, ids, addOrRemove);\r\n\r\n        if(ids[0] == _poolId){\r\n            address pool = AddressLibrary.Bytes32ToAddress(item);\r\n\r\n            if(false == addOrRemove)removeConfigForPool(pool);\r\n            else if(true == _mustSubscribe[pool]){\r\n                IPool poolToSubscribe = IPool(pool);\r\n                uint SubscriptionPrice = poolToSubscribe.retrieveSubscriptionPriceWei();\r\n                poolToSubscribe.addProvider{value:SubscriptionPrice}(address(this), _ProviderInfo);\r\n            }\r\n        }\r\n        else if(ids[0] == _certId){\r\n            manipulateCertificate(AddressLibrary.UintToAddress(ids[1]), item, AddressLibrary.UintToAddress(ids[2]));\r\n            RemoveResizeCertificatesStructArray(_pendingCertificates, ids[3]);\r\n        }\r\n    }\r\n\r\n    function onItemRejected(bytes32 item, uint256[] calldata ids, bool addOrRemove) public override  \r\n    {\r\n        super.onItemRejected(item, ids, addOrRemove);\r\n\r\n        if(ids[0] == _poolId){\r\n            address pool = AddressLibrary.Bytes32ToAddress(item);\r\n\r\n            if(true == addOrRemove)removeConfigForPool(pool);\r\n        } \r\n        else if(ids[0] == _certId){\r\n            RemoveResizeCertificatesStructArray(_pendingCertificates, ids[3]);\r\n        }\r\n    }\r\n    \r\n }",
  "sourcePath": "C:/Users/d-aam/GitHub/Certificates/contracts/DeployedContracts/Provider.sol",
  "compiler": {
    "name": "solc",
    "version": "0.8.7+commit.e28d00a7.Emscripten.clang"
  },
  "schemaVersion": "3.3.4",
  "updatedAt": "2021-09-03T09:26:24.754Z",
  "devdoc": {
    "kind": "dev",
    "methods": {},
    "version": 1
  },
  "userdoc": {
    "kind": "user",
    "methods": {},
    "version": 1
  }
}