{
  "contractName": "Provider",
  "abi": [
    {
      "inputs": [
        {
          "internalType": "address[]",
          "name": "owners",
          "type": "address[]"
        },
        {
          "internalType": "uint256",
          "name": "minOwners",
          "type": "uint256"
        },
        {
          "internalType": "uint256",
          "name": "TotalEntities",
          "type": "uint256"
        },
        {
          "internalType": "string[]",
          "name": "labels",
          "type": "string[]"
        },
        {
          "internalType": "uint256",
          "name": "ownerId",
          "type": "uint256"
        }
      ],
      "name": "MultiSigContract_init",
      "outputs": [],
      "stateMutability": "nonpayable",
      "type": "function"
    },
    {
      "inputs": [
        {
          "internalType": "address",
          "name": "owner",
          "type": "address"
        },
        {
          "internalType": "string",
          "name": "ownerInfo",
          "type": "string"
        }
      ],
      "name": "addOwner",
      "outputs": [],
      "stateMutability": "nonpayable",
      "type": "function"
    },
    {
      "inputs": [
        {
          "internalType": "uint256",
          "name": "newMinOwners",
          "type": "uint256"
        }
      ],
      "name": "changeMinOwners",
      "outputs": [],
      "stateMutability": "nonpayable",
      "type": "function"
    },
    {
      "inputs": [],
      "name": "rejectMinOwners",
      "outputs": [],
      "stateMutability": "nonpayable",
      "type": "function"
    },
    {
      "inputs": [
        {
          "internalType": "address",
          "name": "owner",
          "type": "address"
        }
      ],
      "name": "rejectOwner",
      "outputs": [],
      "stateMutability": "nonpayable",
      "type": "function"
    },
    {
      "inputs": [
        {
          "internalType": "address",
          "name": "owner",
          "type": "address"
        }
      ],
      "name": "removeOwner",
      "outputs": [],
      "stateMutability": "nonpayable",
      "type": "function"
    },
    {
      "inputs": [],
      "name": "retrieveAllOwners",
      "outputs": [
        {
          "internalType": "bytes32[]",
          "name": "",
          "type": "bytes32[]"
        }
      ],
      "stateMutability": "view",
      "type": "function"
    },
    {
      "inputs": [],
      "name": "retrieveMinOwners",
      "outputs": [
        {
          "internalType": "uint256",
          "name": "",
          "type": "uint256"
        }
      ],
      "stateMutability": "view",
      "type": "function"
    },
    {
      "inputs": [
        {
          "internalType": "address",
          "name": "owner",
          "type": "address"
        }
      ],
      "name": "retrieveOwner",
      "outputs": [
        {
          "internalType": "string",
          "name": "",
          "type": "string"
        },
        {
          "internalType": "bool",
          "name": "",
          "type": "bool"
        }
      ],
      "stateMutability": "view",
      "type": "function"
    },
    {
      "inputs": [],
      "name": "retrievePendingMinOwners",
      "outputs": [
        {
          "internalType": "uint256",
          "name": "",
          "type": "uint256"
        }
      ],
      "stateMutability": "view",
      "type": "function"
    },
    {
      "inputs": [
        {
          "internalType": "bool",
          "name": "addedORremove",
          "type": "bool"
        }
      ],
      "name": "retrievePendingOwners",
      "outputs": [
        {
          "internalType": "bytes32[]",
          "name": "",
          "type": "bytes32[]"
        },
        {
          "internalType": "string[]",
          "name": "",
          "type": "string[]"
        }
      ],
      "stateMutability": "view",
      "type": "function"
    },
    {
      "inputs": [],
      "name": "validateMinOwners",
      "outputs": [],
      "stateMutability": "nonpayable",
      "type": "function"
    },
    {
      "inputs": [
        {
          "internalType": "address",
          "name": "owner",
          "type": "address"
        }
      ],
      "name": "validateOwner",
      "outputs": [],
      "stateMutability": "nonpayable",
      "type": "function"
    },
    {
      "stateMutability": "payable",
      "type": "receive"
    },
    {
      "inputs": [
        {
          "internalType": "address[]",
          "name": "owners",
          "type": "address[]"
        },
        {
          "internalType": "uint256",
          "name": "minOwners",
          "type": "uint256"
        },
        {
          "internalType": "string",
          "name": "ProviderInfo",
          "type": "string"
        }
      ],
      "name": "Provider_init",
      "outputs": [],
      "stateMutability": "nonpayable",
      "type": "function"
    },
    {
      "inputs": [
        {
          "internalType": "address",
          "name": "pool",
          "type": "address"
        },
        {
          "internalType": "string",
          "name": "poolInfo",
          "type": "string"
        },
        {
          "internalType": "uint256",
          "name": "AddCertificatePrice",
          "type": "uint256"
        },
        {
          "internalType": "uint256",
          "name": "SubscriptionPrice",
          "type": "uint256"
        },
        {
          "internalType": "bool",
          "name": "mustSubscribe",
          "type": "bool"
        }
      ],
      "name": "addPool",
      "outputs": [],
      "stateMutability": "nonpayable",
      "type": "function"
    },
    {
      "inputs": [
        {
          "internalType": "address",
          "name": "pool",
          "type": "address"
        }
      ],
      "name": "removePool",
      "outputs": [],
      "stateMutability": "nonpayable",
      "type": "function"
    },
    {
      "inputs": [
        {
          "internalType": "address",
          "name": "pool",
          "type": "address"
        }
      ],
      "name": "validatePool",
      "outputs": [],
      "stateMutability": "nonpayable",
      "type": "function"
    },
    {
      "inputs": [
        {
          "internalType": "address",
          "name": "pool",
          "type": "address"
        }
      ],
      "name": "rejectPool",
      "outputs": [],
      "stateMutability": "nonpayable",
      "type": "function"
    },
    {
      "inputs": [
        {
          "internalType": "address",
          "name": "pool",
          "type": "address"
        }
      ],
      "name": "retrievePool",
      "outputs": [
        {
          "internalType": "string",
          "name": "",
          "type": "string"
        },
        {
          "internalType": "bool",
          "name": "",
          "type": "bool"
        },
        {
          "internalType": "uint256",
          "name": "",
          "type": "uint256"
        },
        {
          "internalType": "uint256",
          "name": "",
          "type": "uint256"
        },
        {
          "internalType": "bool",
          "name": "",
          "type": "bool"
        }
      ],
      "stateMutability": "view",
      "type": "function"
    },
    {
      "inputs": [],
      "name": "retrieveAllPools",
      "outputs": [
        {
          "internalType": "bytes32[]",
          "name": "",
          "type": "bytes32[]"
        }
      ],
      "stateMutability": "view",
      "type": "function"
    },
    {
      "inputs": [
        {
          "internalType": "bool",
          "name": "addedORremove",
          "type": "bool"
        }
      ],
      "name": "retrievePendingPools",
      "outputs": [
        {
          "internalType": "bytes32[]",
          "name": "",
          "type": "bytes32[]"
        },
        {
          "internalType": "string[]",
          "name": "",
          "type": "string[]"
        }
      ],
      "stateMutability": "view",
      "type": "function"
    },
    {
      "inputs": [
        {
          "internalType": "address",
          "name": "pool",
          "type": "address"
        },
        {
          "internalType": "bytes32",
          "name": "CertificateHash",
          "type": "bytes32"
        },
        {
          "internalType": "address",
          "name": "holder",
          "type": "address"
        }
      ],
      "name": "addCertificate",
      "outputs": [],
      "stateMutability": "nonpayable",
      "type": "function"
    },
    {
      "inputs": [
        {
          "internalType": "address",
          "name": "pool",
          "type": "address"
        },
        {
          "internalType": "bytes32",
          "name": "CertificateHash",
          "type": "bytes32"
        },
        {
          "internalType": "address",
          "name": "holder",
          "type": "address"
        }
      ],
      "name": "validateCertificate",
      "outputs": [],
      "stateMutability": "nonpayable",
      "type": "function"
    },
    {
      "inputs": [
        {
          "internalType": "address",
          "name": "pool",
          "type": "address"
        },
        {
          "internalType": "bytes32",
          "name": "CertificateHash",
          "type": "bytes32"
        },
        {
          "internalType": "address",
          "name": "holder",
          "type": "address"
        }
      ],
      "name": "rejectCertificate",
      "outputs": [],
      "stateMutability": "nonpayable",
      "type": "function"
    },
    {
      "inputs": [],
      "name": "retrievePendingCertificates",
      "outputs": [
        {
          "components": [
            {
              "internalType": "address",
              "name": "pool",
              "type": "address"
            },
            {
              "internalType": "address",
              "name": "holder",
              "type": "address"
            },
            {
              "internalType": "bytes32",
              "name": "certificate",
              "type": "bytes32"
            }
          ],
          "internalType": "struct Library._pendingCertificatesStruct[]",
          "name": "",
          "type": "tuple[]"
        }
      ],
      "stateMutability": "view",
      "type": "function"
    },
    {
      "inputs": [
        {
          "internalType": "address",
          "name": "pool",
          "type": "address"
        },
        {
          "internalType": "bytes32",
          "name": "CertificateHash",
          "type": "bytes32"
        },
        {
          "internalType": "address",
          "name": "holder",
          "type": "address"
        }
      ],
      "name": "isCertificate",
      "outputs": [
        {
          "internalType": "bool",
          "name": "",
          "type": "bool"
        }
      ],
      "stateMutability": "view",
      "type": "function"
    },
    {
      "inputs": [
        {
          "internalType": "bytes32",
          "name": "item",
          "type": "bytes32"
        },
        {
          "internalType": "uint256[]",
          "name": "ids",
          "type": "uint256[]"
        },
        {
          "internalType": "bool",
          "name": "addOrRemove",
          "type": "bool"
        }
      ],
      "name": "onItemValidated",
      "outputs": [],
      "stateMutability": "nonpayable",
      "type": "function"
    },
    {
      "inputs": [
        {
          "internalType": "bytes32",
          "name": "item",
          "type": "bytes32"
        },
        {
          "internalType": "uint256[]",
          "name": "ids",
          "type": "uint256[]"
        },
        {
          "internalType": "bool",
          "name": "addOrRemove",
          "type": "bool"
        }
      ],
      "name": "onItemRejected",
      "outputs": [],
      "stateMutability": "nonpayable",
      "type": "function"
    }
  ],
  "bytecode": "0x608060405234801561001057600080fd5b50614e2a806100206000396000f3fe60806040526004361061014b5760003560e01c8063017cb3db146101575780631089551a1461017957806314a2ed2f14610199578063173825d9146101b95780632d99aaf2146101d95780632edbe7fc1461020457806330ade922146102235780633542758f146102385780633b7d0946146102585780633fd071811461027857806365b973e5146102985780636b299604146102ad57806376f8f90f146102db57806377bc5a1f146102fb5780637c8c2add146103295780638fc2d8ea14610349578063a44bff2b1461037a578063a706752c1461039a578063a93d5ed6146103ca578063bd9f3705146103df578063c3079ae7146103ff578063c66433ea14610414578063cd019e0714610434578063ce33d58a14610456578063cf2041d914610476578063d920928914610496578063f8049382146104b6578063fb1f6917146104d657600080fd5b3661015257005b600080fd5b34801561016357600080fd5b50610177610172366004614243565b6104f6565b005b34801561018557600080fd5b506101776101943660046142d9565b61077c565b3480156101a557600080fd5b506101776101b4366004614243565b610802565b3480156101c557600080fd5b506101776101d4366004614209565b6109d7565b3480156101e557600080fd5b506101ee610a23565b6040516101fb91906148c3565b60405180910390f35b34801561021057600080fd5b506005545b6040519081526020016101fb565b34801561022f57600080fd5b50610177610a34565b34801561024457600080fd5b50610177610253366004614285565b610b36565b34801561026457600080fd5b50610177610273366004614209565b610b44565b34801561028457600080fd5b50610177610293366004614614565b610b4f565b3480156102a457600080fd5b50600154610215565b3480156102b957600080fd5b506102cd6102c83660046145c1565b610c6b565b6040516101fb9291906148d6565b3480156102e757600080fd5b506101776102f6366004614209565b610c83565b34801561030757600080fd5b5061031b610316366004614209565b610cde565b6040516101fb9291906149d2565b34801561033557600080fd5b50610177610344366004614614565b610cee565b34801561035557600080fd5b50610369610364366004614209565b610fdd565b6040516101fb9594939291906149f6565b34801561038657600080fd5b50610177610395366004614354565b611035565b3480156103a657600080fd5b506103ba6103b5366004614243565b611275565b60405190151581526020016101fb565b3480156103d657600080fd5b506101ee61128c565b3480156103eb57600080fd5b506101776103fa366004614243565b611299565b34801561040b57600080fd5b506101776114d5565b34801561042057600080fd5b5061017761042f3660046146f6565b6115d4565b34801561044057600080fd5b506104496116b7565b6040516101fb9190614948565b34801561046257600080fd5b50610177610471366004614209565b61173e565b34801561048257600080fd5b506101776104913660046143c0565b61174a565b3480156104a257600080fd5b506101776104b1366004614209565b6119f5565b3480156104c257600080fd5b506102cd6104d13660046145c1565b611a00565b3480156104e257600080fd5b506101776104f1366004614209565b611a0e565b8261050081611a19565b151560011461050e57600080fd5b61051a33600054611a2c565b15156001146105445760405162461bcd60e51b815260040161053b90614b54565b60405180910390fd5b6001838584610554828483611c1d565b15156001146105755760405162461bcd60e51b815260040161053b90614a6c565b6001600160a01b038089166000908152600e60209081526040808320938a1683529290528190209051633db691ef60e11b815288918a91899173__ItemsLibrary__________________________91637b6d23de916105da91339188916004016147e9565b60206040518083038186803b1580156105f257600080fd5b505af4158015610606573d6000803e3d6000fd5b505050506040513d601f19601f8201168201806040525081019061062a91906145de565b156106475760405162461bcd60e51b815260040161053b90614b72565b6001600160a01b038b166000908152600e602052604081209061066b8d8d8d611ccb565b905060006040518060c001604052808e815260200160405180602001604052806000815250815260200160015481526020016040518060400160405280600b81526020016a436572746966696361746560a81b815250815260200183815260200160001515815250905060008360000160008e6001600160a01b03166001600160a01b03168152602001908152602001600020905073__ItemsLibrary__________________________635cb09bcf8383306040518463ffffffff1660e01b815260040161073b93929190614b90565b60006040518083038186803b15801561075357600080fd5b505af4158015610767573d6000803e3d6000fd5b50505050505050505050505050505050505050565b6001600160a01b0386166000908152600c602052604090205460ff166107ed576001600160a01b0386166000908152600960209081526040808320869055600a8252808320859055600b8252808320805485151560ff1991821617909155600c909252909120805490911660011790555b6107fa868686600161201e565b505050505050565b8261080c81611a19565b151560011461081a57600080fd5b61082633600054611a2c565b15156001146108475760405162461bcd60e51b815260040161053b90614b54565b6000838584610857828483612395565b156108745760405162461bcd60e51b815260040161053b90614ac9565b6000878988610884828483611c1d565b156108a15760405162461bcd60e51b815260040161053b90614a4d565b6001600160a01b038c166000908152600e60205260408120906108c58e8e8e611ccb565b905060006040518060c001604052808f815260200160405180602001604052806000815250815260200160015481526020016040518060400160405280600b81526020016a436572746966696361746560a81b815250815260200183815260200160001515815250905060008360000160008f6001600160a01b03166001600160a01b03168152602001908152602001600020905073__ItemsLibrary__________________________630b985aaa8383306040518463ffffffff1660e01b815260040161099593929190614b90565b60006040518083038186803b1580156109ad57600080fd5b505af41580156109c1573d6000803e3d6000fd5b5050505050505050505050505050505050505050565b60015460016109e7600054612444565b516109f29190614ce0565b80821115610a125760405162461bcd60e51b815260040161053b90614a8b565b610a1e836000546125ab565b505050565b6060610a2f6001612444565b905090565b610a4033600054611a2c565b1515600114610a615760405162461bcd60e51b815260040161053b90614b54565b6001600554610a825760405162461bcd60e51b815260040161053b90614aaa565b60405163f7cf62d760e01b815273__AddressLibrary________________________9063f7cf62d790610abc90339060089060040161478a565b60206040518083038186803b158015610ad457600080fd5b505af4158015610ae8573d6000803e3d6000fd5b505050506040513d601f19601f82011682018060405250810190610b0c91906145de565b15610b295760405162461bcd60e51b815260040161053b90614b72565b610b336001612955565b50565b610a1e83838360005461201e565b610b338160016125ab565b610b5b848484846129dc565b600183836000818110610b7057610b70614da5565b905060200201351415610c1f57604051631e99d35d60e31b81526004810185905260009073__AddressLibrary________________________9063f4ce9ae89060240160206040518083038186803b158015610bcb57600080fd5b505af4158015610bdf573d6000803e3d6000fd5b505050506040513d601f19601f82011682018060405250810190610c039190614226565b905060018215151415610c1957610c1981612aa6565b50610c65565b600283836000818110610c3457610c34614da5565b905060200201351415610c6557610c65600f84846003818110610c5957610c59614da5565b90506020020135612aed565b50505050565b606080610c7a83600054612bc4565b91509150915091565b610c8f81600054612d43565b151560011415610cd2576001610ca6600054612444565b51610cb19190614ce0565b6001541115610cd25760405162461bcd60e51b815260040161053b90614a8b565b610b3381600054612eaf565b60606000610c7a83600054613340565b610cfa848484846129dc565b600183836000818110610d0f57610d0f614da5565b905060200201351415610e5657604051631e99d35d60e31b81526004810185905260009073__AddressLibrary________________________9063f4ce9ae89060240160206040518083038186803b158015610d6a57600080fd5b505af4158015610d7e573d6000803e3d6000fd5b505050506040513d601f19601f82011682018060405250810190610da29190614226565b905081610db757610db281612aa6565b610c19565b6001600160a01b0381166000908152600b602052604090205460ff16151560011415610c19576001600160a01b0381166000818152600a60205260409081902054905162fc000560e81b815283929163fc00050091610e1d90309060109060040161480a565b6000604051808303818588803b158015610e3657600080fd5b505af1158015610e4a573d6000803e3d6000fd5b50505050505050610c65565b600283836000818110610e6b57610e6b614da5565b905060200201351415610c6557610fc573__AddressLibrary________________________63b1e2771485856001818110610ea857610ea8614da5565b905060200201356040518263ffffffff1660e01b8152600401610ecd91815260200190565b60206040518083038186803b158015610ee557600080fd5b505af4158015610ef9573d6000803e3d6000fd5b505050506040513d601f19601f82011682018060405250810190610f1d9190614226565b8573__AddressLibrary________________________63b1e2771487876002818110610f4b57610f4b614da5565b905060200201356040518263ffffffff1660e01b8152600401610f7091815260200190565b60206040518083038186803b158015610f8857600080fd5b505af4158015610f9c573d6000803e3d6000fd5b505050506040513d601f19601f82011682018060405250810190610fc09190614226565b61353d565b610c65600f84846003818110610c5957610c59614da5565b606060008060008060606000610ff2886136b4565b6001600160a01b0399909916600090815260096020908152604080832054600a835281842054600b909352922054929b919950975060ff90911695509350505050565b600454610100900460ff168061104e575060045460ff16155b61106a5760405162461bcd60e51b815260040161053b90614b06565b600454610100900460ff1615801561108c576004805461ffff19166101011790555b6040805160028082526060820190925290816020015b60608152602001906001900390816110a257505080516110ca91600d91602090910190613ee9565b506040518060400160405280600581526020016427bbb732b960d91b815250600d6000815481106110fd576110fd614da5565b90600052602060002001908051906020019061111a929190613f46565b5060405180604001604052806004815260200163141bdbdb60e21b815250600d60018154811061114c5761114c614da5565b906000526020600020019080519060200190611169929190613f46565b5061124a84846002600d805480602002602001604051908101604052809291908181526020016000905b8282101561123f5783829060005260206000200180546111b290614d23565b80601f01602080910402602001604051908101604052809291908181526020018280546111de90614d23565b801561122b5780601f106112005761010080835404028352916020019161122b565b820191906000526020600020905b81548152906001019060200180831161120e57829003601f168201915b505050505081526020019060010190611193565b50505050600061174a565b815161125d906010906020850190613f46565b508015610c65576004805461ff001916905550505050565b6000611282848484612395565b90505b9392505050565b6060610a2f600054612444565b826112a381611a19565b15156001146112b157600080fd5b6112bd33600054611a2c565b15156001146112de5760405162461bcd60e51b815260040161053b90614b54565b60018385846112ee828483611c1d565b151560011461130f5760405162461bcd60e51b815260040161053b90614a6c565b6001600160a01b038089166000908152600e60209081526040808320938a1683529290528190209051633db691ef60e11b815288918a91899173__ItemsLibrary__________________________91637b6d23de9161137491339188916004016147e9565b60206040518083038186803b15801561138c57600080fd5b505af41580156113a0573d6000803e3d6000fd5b505050506040513d601f19601f820116820180604052508101906113c491906145de565b156113e15760405162461bcd60e51b815260040161053b90614b72565b6001600160a01b038b166000908152600e60205260408120906114058d8d8d611ccb565b905060006040518060c001604052808e815260200160405180602001604052806000815250815260200160015481526020016040518060400160405280600b81526020016a436572746966696361746560a81b815250815260200183815260200160001515815250905060008360000160008e6001600160a01b03166001600160a01b03168152602001908152602001600020905073__ItemsLibrary__________________________637493a70b8383306040518463ffffffff1660e01b815260040161073b93929190614b90565b6114e133600054611a2c565b15156001146115025760405162461bcd60e51b815260040161053b90614b54565b60016005546115235760405162461bcd60e51b815260040161053b90614aaa565b60405163f7cf62d760e01b815273__AddressLibrary________________________9063f7cf62d79061155d90339060089060040161478a565b60206040518083038186803b15801561157557600080fd5b505af4158015611589573d6000803e3d6000fd5b505050506040513d601f19601f820116820180604052508101906115ad91906145de565b156115ca5760405162461bcd60e51b815260040161053b90614b72565b610b336000612955565b6115e033600054611a2c565b15156001146116015760405162461bcd60e51b815260040161053b90614b54565b60006005541561163b5760405162461bcd60e51b8152602060048201526005602482015264454333302d60d81b604482015260640161053b565b8160026000548154811061165157611651614da5565b906000526020600020906004020160010180549050808211156116865760405162461bcd60e51b815260040161053b90614a8b565b6000848181116116a85760405162461bcd60e51b815260040161053b90614ae7565b60058690556107fa6001612955565b6060600f805480602002602001604051908101604052809291908181526020016000905b82821015611735576000848152602090819020604080516060810182526003860290920180546001600160a01b039081168452600180830154909116848601526002909101549183019190915290835290920191016116db565b50505050905090565b610b33816000546136c3565b600454610100900460ff1680611763575060045460ff16155b61177f5760405162461bcd60e51b815260040161053b90614b06565b600454610100900460ff161580156117a1576004805461ffff19166101011790555b848651808211156117c45760405162461bcd60e51b815260040161053b90614a8b565b6000878181116117e65760405162461bcd60e51b815260040161053b90614ae7565b8651881461181e5760405162461bcd60e51b8152602060048201526005602482015264454331382d60d81b604482015260640161053b565b60008681555b8881101561189457600280546001018155600052875160039089908390811061184f5761184f614da5565b602090810291909101810151825460018101845560009384529282902081516118819491909101929190910190613f46565b508061188c81614d5e565b915050611824565b50600189905560005b8a518110156119d757600073__AddressLibrary________________________63bc215e858d84815181106118d4576118d4614da5565b60200260200101516040518263ffffffff1660e01b81526004016118f89190614776565b60206040518083038186803b15801561191057600080fd5b505af4158015611924573d6000803e3d6000fd5b505050506040513d601f19601f8201168201806040525081019061194891906145fb565b9050600160026000548154811061196157611961614da5565b60009182526020808320858452600492909202909101905260408120805460ff191692151592909217909155546002805490919081106119a3576119a3614da5565b60009182526020808320600160049093020182018054928301815583529091200155806119cf81614d5e565b91505061189d565b505050505080156107fa576004805461ff0019169055505050505050565b610b33816001612eaf565b606080610c7a836001612bc4565b610b338160016136c3565b6000611a26826001611a2c565b92915050565b60025460405163123bd07560e11b8152600091839173__Library_______________________________90632477a0ea90611a6d90859085906004016149c4565b60206040518083038186803b158015611a8557600080fd5b505af4158015611a99573d6000803e3d6000fd5b505050506040513d601f19601f82011682018060405250810190611abd91906145de565b1515600114611ade5760405162461bcd60e51b815260040161053b90614a2f565b60405163bc215e8560e01b815260009073__AddressLibrary________________________9063bc215e8590611b18908990600401614776565b60206040518083038186803b158015611b3057600080fd5b505af4158015611b44573d6000803e3d6000fd5b505050506040513d601f19601f82011682018060405250810190611b6891906145fb565b905073__ItemsLibrary__________________________63dbdfbeec8260028881548110611b9857611b98614da5565b90600052602060002090600402016040518363ffffffff1660e01b8152600401611bc39291906149c4565b60206040518083038186803b158015611bdb57600080fd5b505af4158015611bef573d6000803e3d6000fd5b505050506040513d601f19601f82011682018060405250810190611c1391906145de565b9695505050505050565b6001600160a01b038084166000908152600e602090815260408083209385168352929052818120915162136bb360e11b8152909173__ItemsLibrary__________________________916226d76691611c7b918791906004016149c4565b60206040518083038186803b158015611c9357600080fd5b505af4158015611ca7573d6000803e3d6000fd5b505050506040513d601f19601f8201168201806040525081019061128291906145de565b60408051600480825260a08201909252606091600091829160208201608080368337019050509050600281600081518110611d0857611d08614da5565b602090810291909101015260405163cf0668ed60e01b815273__AddressLibrary________________________9063cf0668ed90611d4a908990600401614776565b60206040518083038186803b158015611d6257600080fd5b505af4158015611d76573d6000803e3d6000fd5b505050506040513d601f19601f82011682018060405250810190611d9a91906145fb565b81600181518110611dad57611dad614da5565b602090810291909101015260405163cf0668ed60e01b815273__AddressLibrary________________________9063cf0668ed90611def908790600401614776565b60206040518083038186803b158015611e0757600080fd5b505af4158015611e1b573d6000803e3d6000fd5b505050506040513d601f19601f82011682018060405250810190611e3f91906145fb565b81600281518110611e5257611e52614da5565b60200260200101818152505060006040518060600160405280886001600160a01b03168152602001866001600160a01b03168152602001878152509050611e9a878787611c1d565b611f6957600f8054600181810183556000839052835160039092027f8d1108e10bcb7c27dddfc02ed9d693a074039d026cf4ea4240b40f7d581ac802810180546001600160a01b039485166001600160a01b03199182161790915560208601517f8d1108e10bcb7c27dddfc02ed9d693a074039d026cf4ea4240b40f7d581ac803830180549190951691161790925560408401517f8d1108e10bcb7c27dddfc02ed9d693a074039d026cf4ea4240b40f7d581ac804909201919091559054611f629190614ce0565b9250611ff5565b611ff281600f805480602002602001604051908101604052809291908181526020016000905b82821015611fe9576000848152602090819020604080516060810182526003860290920180546001600160a01b03908116845260018083015490911684860152600290910154918301919091529083529092019101611f8f565b50505050613b54565b92505b828260038151811061200957612009614da5565b60209081029190910101525095945050505050565b60025460405163123bd07560e11b815282919073__Library_______________________________90632477a0ea9061205d90859085906004016149c4565b60206040518083038186803b15801561207557600080fd5b505af4158015612089573d6000803e3d6000fd5b505050506040513d601f19601f820116820180604052508101906120ad91906145de565b15156001146120ce5760405162461bcd60e51b815260040161053b90614a2f565b6120da33600054611a2c565b15156001146120fb5760405162461bcd60e51b815260040161053b90614b54565b600086846121098282611a2c565b156121265760405162461bcd60e51b815260040161053b90614ac9565b600089876121348282613c2d565b156121515760405162461bcd60e51b815260040161053b90614a4d565b600073__AddressLibrary________________________63bc215e858e6040518263ffffffff1660e01b815260040161218a9190614776565b60206040518083038186803b1580156121a257600080fd5b505af41580156121b6573d6000803e3d6000fd5b505050506040513d601f19601f820116820180604052508101906121da91906145fb565b60408051600180825281830190925291925060009190602080830190803683370190505090508a8160008151811061221457612214614da5565b60200260200101818152505060006040518060c001604052808481526020018f8f8080601f0160208091040260200160405190810160405280939291908181526020018383808284376000920191909152505050908252506001546020820152600380546040909201918f90811061228e5761228e614da5565b9060005260206000200180546122a390614d23565b80601f01602080910402602001604051908101604052809291908181526020018280546122cf90614d23565b801561231c5780601f106122f15761010080835404028352916020019161231c565b820191906000526020600020905b8154815290600101906020018083116122ff57829003601f168201915b50505050508152602001838152602001600115158152509050600060028d8154811061234a5761234a614da5565b9060005260206000209060040201905073__ItemsLibrary__________________________630b985aaa8383306040518463ffffffff1660e01b815260040161099593929190614b90565b60405163685256ff60e11b8152600090849082906001600160a01b0383169063d0a4adfe906123ca90889088906004016149ad565b60206040518083038186803b1580156123e257600080fd5b505afa1580156123f6573d6000803e3d6000fd5b505050506040513d601f19601f8201168201806040525081019061241a9190614226565b90506001600160a01b03811630141561243857600192505050611285565b50600095945050505050565b60025460405163123bd07560e11b8152606091839173__Library_______________________________90632477a0ea9061248590859085906004016149c4565b60206040518083038186803b15801561249d57600080fd5b505af41580156124b1573d6000803e3d6000fd5b505050506040513d601f19601f820116820180604052508101906124d591906145de565b15156001146124f65760405162461bcd60e51b815260040161053b90614a2f565b73__ItemsLibrary__________________________6327724f4b6002868154811061252357612523614da5565b90600052602060002090600402016040518263ffffffff1660e01b815260040161254f91815260200190565b60006040518083038186803b15801561256757600080fd5b505af415801561257b573d6000803e3d6000fd5b505050506040513d6000823e601f3d908101601f191682016040526125a391908101906144b3565b949350505050565b60025460405163123bd07560e11b815282919073__Library_______________________________90632477a0ea906125ea90859085906004016149c4565b60206040518083038186803b15801561260257600080fd5b505af4158015612616573d6000803e3d6000fd5b505050506040513d601f19601f8201168201806040525081019061263a91906145de565b151560011461265b5760405162461bcd60e51b815260040161053b90614a2f565b61266733600054611a2c565b15156001146126885760405162461bcd60e51b815260040161053b90614b54565b600184846126968282611a2c565b15156001146126d05760405162461bcd60e51b815260040161053b906020808252600490820152634543372d60e01b604082015260600190565b600087876126de8282612d43565b156126fb5760405162461bcd60e51b815260040161053b90614a4d565b60405163bc215e8560e01b815260009073__AddressLibrary________________________9063bc215e8590612735908e90600401614776565b60206040518083038186803b15801561274d57600080fd5b505af4158015612761573d6000803e3d6000fd5b505050506040513d601f19601f8201168201806040525081019061278591906145fb565b60408051600180825281830190925291925060009190602080830190803683370190505090508a816000815181106127bf576127bf614da5565b60200260200101818152505060006040518060c00160405280848152602001604051806020016040528060008152508152602001600154815260200160038e8154811061280e5761280e614da5565b90600052602060002001805461282390614d23565b80601f016020809104026020016040519081016040528092919081815260200182805461284f90614d23565b801561289c5780601f106128715761010080835404028352916020019161289c565b820191906000526020600020905b81548152906001019060200180831161287f57829003601f168201915b50505050508152602001838152602001600115158152509050600060028d815481106128ca576128ca614da5565b9060005260206000209060040201905073__ItemsLibrary__________________________63e23fcdef8383306040518463ffffffff1660e01b815260040161291593929190614b90565b60006040518083038186803b15801561292d57600080fd5b505af4158015612941573d6000803e3d6000fd5b505050505050505050505050505050505050565b80156129795760016006600082825461296e9190614cc8565b909155506129929050565b60016007600082825461298c9190614cc8565b90915550505b600880546001810182556000919091527ff3f7a9fe364faab93b216da50a3214154f22a0a2b415b23a84c8169e8b636ee30180546001600160a01b03191633179055610b33613d98565b604051630d1d719d60e41b8152309073__Library_______________________________9063d1d719d090612a15908490600401614776565b60206040518083038186803b158015612a2d57600080fd5b505af4158015612a41573d6000803e3d6000fd5b505050506040513d601f19601f82011682018060405250810190612a6591906145de565b1515600114612a9f5760405162461bcd60e51b815260040161053b906020808252600490820152634543382d60e01b604082015260600190565b5050505050565b6001600160a01b03166000908152600c60209081526040808320805460ff19908116909155600b83528184208054909116905560098252808320839055600a909152812055565b81548290612afd90600190614ce0565b81548110612b0d57612b0d614da5565b9060005260206000209060030201828281548110612b2d57612b2d614da5565b60009182526020909120825460039092020180546001600160a01b039283166001600160a01b03199182161782556001808501549083018054919094169116179091556002918201549101558154829080612b8a57612b8a614d8f565b60008281526020812060036000199093019283020180546001600160a01b0319908116825560018201805490911690556002015590555050565b60025460405163123bd07560e11b8152606091829184919073__Library_______________________________90632477a0ea90612c0890859085906004016149c4565b60206040518083038186803b158015612c2057600080fd5b505af4158015612c34573d6000803e3d6000fd5b505050506040513d601f19601f82011682018060405250810190612c5891906145de565b1515600114612c795760405162461bcd60e51b815260040161053b90614a2f565b60608073__ItemsLibrary__________________________63e035e0068960028a81548110612caa57612caa614da5565b90600052602060002090600402016040518363ffffffff1660e01b8152600401612ce09291909115158252602082015260400190565b60006040518083038186803b158015612cf857600080fd5b505af4158015612d0c573d6000803e3d6000fd5b505050506040513d6000823e601f3d908101601f19168201604052612d3491908101906144e7565b90999098509650505050505050565b60025460405163123bd07560e11b8152600091839173__Library_______________________________90632477a0ea90612d8490859085906004016149c4565b60206040518083038186803b158015612d9c57600080fd5b505af4158015612db0573d6000803e3d6000fd5b505050506040513d601f19601f82011682018060405250810190612dd491906145de565b1515600114612df55760405162461bcd60e51b815260040161053b90614a2f565b60405163bc215e8560e01b815260009073__AddressLibrary________________________9063bc215e8590612e2f908990600401614776565b60206040518083038186803b158015612e4757600080fd5b505af4158015612e5b573d6000803e3d6000fd5b505050506040513d601f19601f82011682018060405250810190612e7f91906145fb565b905073__ItemsLibrary__________________________632854ed2e8260028881548110611b9857611b98614da5565b60025460405163123bd07560e11b815282919073__Library_______________________________90632477a0ea90612eee90859085906004016149c4565b60206040518083038186803b158015612f0657600080fd5b505af4158015612f1a573d6000803e3d6000fd5b505050506040513d601f19601f82011682018060405250810190612f3e91906145de565b1515600114612f5f5760405162461bcd60e51b815260040161053b90614a2f565b612f6b33600054611a2c565b1515600114612f8c5760405162461bcd60e51b815260040161053b90614b54565b60018484612f9a8282613c2d565b151560011480612fb55750612faf8282612d43565b15156001145b612fd15760405162461bcd60e51b815260040161053b90614a6c565b8686600073__AddressLibrary________________________63bc215e85846040518263ffffffff1660e01b815260040161300c9190614776565b60206040518083038186803b15801561302457600080fd5b505af4158015613038573d6000803e3d6000fd5b505050506040513d601f19601f8201168201806040525081019061305c91906145fb565b905073__ItemsLibrary__________________________637b6d23de33836002868154811061308d5761308d614da5565b90600052602060002090600402016040518463ffffffff1660e01b81526004016130b9939291906147e9565b60206040518083038186803b1580156130d157600080fd5b505af41580156130e5573d6000803e3d6000fd5b505050506040513d601f19601f8201168201806040525081019061310991906145de565b156131265760405162461bcd60e51b815260040161053b90614b72565b60405163bc215e8560e01b815260009073__AddressLibrary________________________9063bc215e8590613160908e90600401614776565b60206040518083038186803b15801561317857600080fd5b505af415801561318c573d6000803e3d6000fd5b505050506040513d601f19601f820116820180604052508101906131b091906145fb565b60408051600180825281830190925291925060009190602080830190803683370190505090508a816000815181106131ea576131ea614da5565b60200260200101818152505060006040518060c00160405280848152602001604051806020016040528060008152508152602001600154815260200160038e8154811061323957613239614da5565b90600052602060002001805461324e90614d23565b80601f016020809104026020016040519081016040528092919081815260200182805461327a90614d23565b80156132c75780601f1061329c576101008083540402835291602001916132c7565b820191906000526020600020905b8154815290600101906020018083116132aa57829003601f168201915b50505050508152602001838152602001600115158152509050600060028d815481106132f5576132f5614da5565b9060005260206000209060040201905073__ItemsLibrary__________________________637493a70b8383306040518463ffffffff1660e01b815260040161291593929190614b90565b60025460405163123bd07560e11b815260609160009184919073__Library_______________________________90632477a0ea9061338590859085906004016149c4565b60206040518083038186803b15801561339d57600080fd5b505af41580156133b1573d6000803e3d6000fd5b505050506040513d601f19601f820116820180604052508101906133d591906145de565b15156001146133f65760405162461bcd60e51b815260040161053b90614a2f565b60405163bc215e8560e01b815260009073__AddressLibrary________________________9063bc215e8590613430908a90600401614776565b60206040518083038186803b15801561344857600080fd5b505af415801561345c573d6000803e3d6000fd5b505050506040513d601f19601f8201168201806040525081019061348091906145fb565b905073__ItemsLibrary__________________________631aeccc6a82600289815481106134b0576134b0614da5565b90600052602060002090600402016040518363ffffffff1660e01b81526004016134db9291906149c4565b60006040518083038186803b1580156134f357600080fd5b505af4158015613507573d6000803e3d6000fd5b505050506040513d6000823e601f3d908101601f1916820160405261352f91908101906146a5565b945094505050509250929050565b8261354781611a19565b151560011461355557600080fd5b6001600160a01b0384166000818152600960205260409081902054905163035700ff60e31b8152869291631ab807f89161359590889088906004016149ad565b6000604051808303818588803b1580156135ae57600080fd5b505af11580156135c2573d6000803e3d6000fd5b5050506001600160a01b038088166000908152600e602090815260408083209389168352929052819020905163207c442760e01b815290925073__ItemsLibrary__________________________915063207c44279061362890889085906004016149c4565b60006040518083038186803b15801561364057600080fd5b505af4158015613654573d6000803e3d6000fd5b5050506000868152602083905260408120805460ff19168155915061367c6001830182613fc6565b6002820160009055600382016000905560048201600061369c9190614000565b6136aa600583016000614000565b5050505050505050565b60606000610c7a836001613340565b60025460405163123bd07560e11b815282919073__Library_______________________________90632477a0ea9061370290859085906004016149c4565b60206040518083038186803b15801561371a57600080fd5b505af415801561372e573d6000803e3d6000fd5b505050506040513d601f19601f8201168201806040525081019061375291906145de565b15156001146137735760405162461bcd60e51b815260040161053b90614a2f565b61377f33600054611a2c565b15156001146137a05760405162461bcd60e51b815260040161053b90614b54565b600184846137ae8282613c2d565b1515600114806137c957506137c38282612d43565b15156001145b6137e55760405162461bcd60e51b815260040161053b90614a6c565b8686600073__AddressLibrary________________________63bc215e85846040518263ffffffff1660e01b81526004016138209190614776565b60206040518083038186803b15801561383857600080fd5b505af415801561384c573d6000803e3d6000fd5b505050506040513d601f19601f8201168201806040525081019061387091906145fb565b905073__ItemsLibrary__________________________637b6d23de3383600286815481106138a1576138a1614da5565b90600052602060002090600402016040518463ffffffff1660e01b81526004016138cd939291906147e9565b60206040518083038186803b1580156138e557600080fd5b505af41580156138f9573d6000803e3d6000fd5b505050506040513d601f19601f8201168201806040525081019061391d91906145de565b1561393a5760405162461bcd60e51b815260040161053b90614b72565b60405163bc215e8560e01b815260009073__AddressLibrary________________________9063bc215e8590613974908e90600401614776565b60206040518083038186803b15801561398c57600080fd5b505af41580156139a0573d6000803e3d6000fd5b505050506040513d601f19601f820116820180604052508101906139c491906145fb565b60408051600180825281830190925291925060009190602080830190803683370190505090508a816000815181106139fe576139fe614da5565b60200260200101818152505060006040518060c00160405280848152602001604051806020016040528060008152508152602001600154815260200160038e81548110613a4d57613a4d614da5565b906000526020600020018054613a6290614d23565b80601f0160208091040260200160405190810160405280929190818152602001828054613a8e90614d23565b8015613adb5780601f10613ab057610100808354040283529160200191613adb565b820191906000526020600020905b815481529060010190602001808311613abe57829003601f168201915b50505050508152602001838152602001600115158152509050600060028d81548110613b0957613b09614da5565b9060005260206000209060040201905073__ItemsLibrary__________________________635cb09bcf8383306040518463ffffffff1660e01b815260040161291593929190614b90565b6000805b8251811015613c1f57828181518110613b7357613b73614da5565b6020026020010151600001516001600160a01b031684600001516001600160a01b0316148015613bd55750828181518110613bb057613bb0614da5565b6020026020010151602001516001600160a01b031684602001516001600160a01b0316145b8015613c015750828181518110613bee57613bee614da5565b6020026020010151604001518460400151145b15613c0d579050611a26565b80613c1781614d5e565b915050613b58565b508151611285906001614cc8565b60025460405163123bd07560e11b8152600091839173__Library_______________________________90632477a0ea90613c6e90859085906004016149c4565b60206040518083038186803b158015613c8657600080fd5b505af4158015613c9a573d6000803e3d6000fd5b505050506040513d601f19601f82011682018060405250810190613cbe91906145de565b1515600114613cdf5760405162461bcd60e51b815260040161053b90614a2f565b60405163bc215e8560e01b815260009073__AddressLibrary________________________9063bc215e8590613d19908990600401614776565b60206040518083038186803b158015613d3157600080fd5b505af4158015613d45573d6000803e3d6000fd5b505050506040513d601f19601f82011682018060405250810190613d6991906145fb565b905073__ItemsLibrary__________________________6226d7668260028881548110611b9857611b98614da5565b60065460015460405163f6001d7d60e01b815273__ItemsLibrary__________________________9263f6001d7d92613dd3926004016149c4565b60206040518083038186803b158015613deb57600080fd5b505af4158015613dff573d6000803e3d6000fd5b505050506040513d601f19601f82011682018060405250810190613e2391906145de565b15613e3857600554600155613e36613ecc565b565b60075460015460405163f6001d7d60e01b815273__ItemsLibrary__________________________9263f6001d7d92613e73926004016149c4565b60206040518083038186803b158015613e8b57600080fd5b505af4158015613e9f573d6000803e3d6000fd5b505050506040513d601f19601f82011682018060405250810190613ec391906145de565b15613e3657613e365b6000600581905560068190556007819055613e3690600890614000565b828054828255906000526020600020908101928215613f36579160200282015b82811115613f365782518051613f26918491602090910190613f46565b5091602001919060010190613f09565b50613f4292915061401e565b5090565b828054613f5290614d23565b90600052602060002090601f016020900481019282613f745760008555613fba565b82601f10613f8d57805160ff1916838001178555613fba565b82800160010185558215613fba579182015b82811115613fba578251825591602001919060010190613f9f565b50613f4292915061403b565b508054613fd290614d23565b6000825580601f10613fe2575050565b601f016020900490600052602060002090810190610b33919061403b565b5080546000825590600052602060002090810190610b33919061403b565b80821115613f425760006140328282613fc6565b5060010161401e565b5b80821115613f42576000815560010161403c565b600082601f83011261406157600080fd5b8135602061407661407183614c7e565b614c4e565b80838252828201915082860187848660051b890101111561409657600080fd5b60005b858110156140be5781356140ac81614dd1565b84529284019290840190600101614099565b5090979650505050505050565b600082601f8301126140dc57600080fd5b815160206140ec61407183614c7e565b80838252828201915082860187848660051b890101111561410c57600080fd5b60005b858110156140be5781518452928401929084019060010161410f565b60008083601f84011261413d57600080fd5b5081356001600160401b0381111561415457600080fd5b60208301915083602082850101111561416c57600080fd5b9250929050565b600082601f83011261418457600080fd5b813561419261407182614ca1565b8181528460208386010111156141a757600080fd5b816020850160208301376000918101602001919091529392505050565b600082601f8301126141d557600080fd5b81516141e361407182614ca1565b8181528460208386010111156141f857600080fd5b6125a3826020830160208701614cf7565b60006020828403121561421b57600080fd5b813561128581614dd1565b60006020828403121561423857600080fd5b815161128581614dd1565b60008060006060848603121561425857600080fd5b833561426381614dd1565b925060208401359150604084013561427a81614dd1565b809150509250925092565b60008060006040848603121561429a57600080fd5b83356142a581614dd1565b925060208401356001600160401b038111156142c057600080fd5b6142cc8682870161412b565b9497909650939450505050565b60008060008060008060a087890312156142f257600080fd5b86356142fd81614dd1565b955060208701356001600160401b0381111561431857600080fd5b61432489828a0161412b565b9096509450506040870135925060608701359150608087013561434681614de6565b809150509295509295509295565b60008060006060848603121561436957600080fd5b83356001600160401b038082111561438057600080fd5b61438c87838801614050565b94506020860135935060408601359150808211156143a957600080fd5b506143b686828701614173565b9150509250925092565b600080600080600060a086880312156143d857600080fd5b6001600160401b0386358110156143ee57600080fd5b6143fb8888358901614050565b955060208088013595506040880135945060608801358281111561441e57600080fd5b8801601f81018a1361442f57600080fd5b803561443d61407182614c7e565b8082825284820191508484018d868560051b870101111561445d57600080fd5b60005b8481101561449757878235111561447657600080fd5b6144858f888435890101614173565b84529286019290860190600101614460565b5050809750505050505050608086013590509295509295909350565b6000602082840312156144c557600080fd5b81516001600160401b038111156144db57600080fd5b6125a3848285016140cb565b600080604083850312156144fa57600080fd5b82516001600160401b038082111561451157600080fd5b61451d868387016140cb565b935060209150818501518181111561453457600080fd5b8501601f8101871361454557600080fd5b805161455361407182614c7e565b8082825285820191508584018a878560051b870101111561457357600080fd5b6000805b858110156145ae5782518881111561458d578283fd5b61459b8e8b838b01016141c4565b8652509388019391880191600101614577565b5050508096505050505050509250929050565b6000602082840312156145d357600080fd5b813561128581614de6565b6000602082840312156145f057600080fd5b815161128581614de6565b60006020828403121561460d57600080fd5b5051919050565b6000806000806060858703121561462a57600080fd5b8435935060208501356001600160401b038082111561464857600080fd5b818701915087601f83011261465c57600080fd5b81358181111561466b57600080fd5b8860208260051b850101111561468057600080fd5b602083019550809450505050604085013561469a81614de6565b939692955090935050565b600080604083850312156146b857600080fd5b82516001600160401b038111156146ce57600080fd5b6146da858286016141c4565b92505060208301516146eb81614de6565b809150509250929050565b60006020828403121561470857600080fd5b5035919050565b600081518084526020808501945080840160005b8381101561473f57815187529582019590820190600101614723565b509495945050505050565b60008151808452614762816020860160208601614cf7565b601f01601f19169290920160200192915050565b6001600160a01b0391909116815260200190565b60006040820160018060a01b03808616845260206040818601528286548085526060870191508760005282600020945060005b818110156147db5785548516835260019586019592840192016147bd565b509098975050505050505050565b6001600160a01b039390931683526020830191909152604082015260600190565b60018060a01b0383168152600060206040818401526000845481600182811c91508083168061483a57607f831692505b85831081141561485857634e487b7160e01b85526022600452602485fd5b60408801839052606088018180156148775760018114614888576148b3565b60ff198616825287820196506148b3565b60008b81526020902060005b868110156148ad57815484820152908501908901614894565b83019750505b50949a9950505050505050505050565b602081526000611285602083018461470f565b6040815260006148e9604083018561470f565b6020838203818501528185518084528284019150828160051b85010183880160005b8381101561493957601f1987840301855261492783835161474a565b9486019492509085019060010161490b565b50909998505050505050505050565b602080825282518282018190526000919060409081850190868401855b828110156149a057815180516001600160a01b0390811686528782015116878601528501518585015260609093019290850190600101614965565b5091979650505050505050565b9182526001600160a01b0316602082015260400190565b918252602082015260400190565b6040815260006149e5604083018561474a565b905082151560208301529392505050565b60a081526000614a0960a083018861474a565b951515602083015250604081019390935260608301919091521515608090910152919050565b6020808252600490820152634543312d60e01b604082015260600190565b602080825260059082015264454332372d60d81b604082015260600190565b602080825260059082015264454332382d60d81b604082015260600190565b602080825260059082015264454331392d60d81b604082015260600190565b602080825260059082015264454333312d60d81b604082015260600190565b6020808252600490820152634543362d60e01b604082015260600190565b602080825260059082015264454331372d60d81b604082015260600190565b6020808252602e908201527f496e697469616c697a61626c653a20636f6e747261637420697320616c72656160408201526d191e481a5b9a5d1a585b1a5e995960921b606082015260800190565b6020808252600490820152634543392d60e01b604082015260600190565b6020808252600490820152634543352d60e01b604082015260600190565b6060815283516060820152600060208086015160c06080850152614bb861012085018261474a565b9050604087015160a08501526060870151605f19808684030160c0870152614be0838361474a565b60808a015187820390920160e088015281518082529185019350600092508401905b80831015614c225783518252928401926001929092019190840190614c02565b5060a0890151151561010087015292850187905250506001600160a01b038416604084015290506125a3565b604051601f8201601f191681016001600160401b0381118282101715614c7657614c76614dbb565b604052919050565b60006001600160401b03821115614c9757614c97614dbb565b5060051b60200190565b60006001600160401b03821115614cba57614cba614dbb565b50601f01601f191660200190565b60008219821115614cdb57614cdb614d79565b500190565b600082821015614cf257614cf2614d79565b500390565b60005b83811015614d12578181015183820152602001614cfa565b83811115610c655750506000910152565b600181811c90821680614d3757607f821691505b60208210811415614d5857634e487b7160e01b600052602260045260246000fd5b50919050565b6000600019821415614d7257614d72614d79565b5060010190565b634e487b7160e01b600052601160045260246000fd5b634e487b7160e01b600052603160045260246000fd5b634e487b7160e01b600052603260045260246000fd5b634e487b7160e01b600052604160045260246000fd5b6001600160a01b0381168114610b3357600080fd5b8015158114610b3357600080fdfea26469706673582212200c7e078b4de5856d01ccb94855754482dbc7de0aac708f0ee00b3c2abfd5b36964736f6c63430008070033",
  "immutableReferences": {},
  "source": "// SPDX-License-Identifier: GPL-3.0\r\n\r\npragma solidity >=0.7.0 <0.9.0;\r\n\r\n/**\r\n * @title Storage\r\n * @dev Store & retrieve value in a variable\r\n */\r\n import \"../Libraries/Library.sol\";\r\n import \"../Interfaces/IProvider.sol\";\r\n import \"../Interfaces/IPool.sol\";\r\n import \"../Abstract/MultiSigContract.sol\";\r\n import \"../Libraries/ItemsLibrary.sol\";\r\n import \"../Libraries/AddressLibrary.sol\";\r\n import \"@openzeppelin/contracts-upgradeable/proxy/utils/Initializable.sol\";\r\n\r\n contract Provider is IProvider, Initializable, MultiSigContract {\r\n    using Library for *;\r\n    using AddressLibrary for *;\r\n    using ItemsLibrary for *;\r\n\r\n    // DATA /////////////////////////////////////////\r\n    uint256 constant _TotalEntities = 2;\r\n\r\n    // Owners\r\n    uint256 constant _ownerIdProviders = 0;\r\n    string constant _ownerLabel = \"Owner\";\r\n\r\n    // Pools\r\n    uint256 constant _poolId = 1;\r\n    string constant _poolLabel = \"Pool\";\r\n\r\n    mapping(address => uint256) private _AddCertificatePricePerPool;\r\n    mapping(address => uint256) private _SubscriptionPricePerPool;\r\n    mapping(address => bool) private _mustSubscribe;\r\n    mapping(address => bool) private _submited;\r\n\r\n\r\n    // Certificates\r\n    uint256 constant _certId = 2;\r\n    string constant _certLabel = \"Certificate\";\r\n\r\n    string[] private _Label;\r\n    \r\n    struct _CertificatesPerHolderStruct{\r\n        mapping(address => ItemsLibrary._ItemsStruct) _CertificatesPerHolder;\r\n    }\r\n   \r\n    mapping(address => _CertificatesPerHolderStruct) private _CertificatesPerPool;\r\n    \r\n    Library._pendingCertificatesStruct[] private _pendingCertificates;\r\n\r\n    // Provider\r\n    string private _ProviderInfo;\r\n\r\n    // MODIFIERS /////////////////////////////////////////\r\n    modifier isAPool(address pool){\r\n        require(true == isPool(pool));\r\n        _;\r\n    }\r\n\r\n    modifier isCertificateActivated(bool YesOrNo, bytes32 cert, address pool, address holder){\r\n        if(false == YesOrNo) require(false == internalisCertificate(pool, cert, holder), \"EC6-\");\r\n        else require(true == internalisCertificate(pool, cert, holder), \"EC7-\");\r\n        _;\r\n    }\r\n\r\n    modifier isCertificatePendingToAdd(bool YesOrNo, bytes32 cert, address pool, address holder){\r\n        if(false == YesOrNo) require(false == isCertificatePendingToAdded(pool, cert, holder), \"EC27-\");\r\n        else require(true == isCertificatePendingToAdded(pool, cert, holder), \"EC28-\");\r\n        _;\r\n    }\r\n\r\n    modifier HasNotAlreadyVotedForCertificate(bytes32 cert, address pool, address holder){\r\n        require(false == ItemsLibrary.hasVoted(msg.sender, cert, _CertificatesPerPool[pool]._CertificatesPerHolder[holder]), \"EC5-\");\r\n        _;\r\n    }\r\n\r\n     // CONSTRUCTOR /////////////////////////////////////////\r\n    function Provider_init(address[] memory owners,  uint256 minOwners, string memory ProviderInfo) public initializer \r\n    {\r\n        _Label = new string[](2);\r\n        _Label[0] = _ownerLabel;\r\n        _Label[1] = _poolLabel;\r\n\r\n        super.MultiSigContract_init(owners, minOwners, _TotalEntities, _Label, _ownerIdProviders); \r\n        _ProviderInfo = ProviderInfo;\r\n    }\r\n\r\n    // FUNCTIONALITY /////////////////////////////////////////\r\n    function addPool(address pool, string calldata poolInfo, uint256 AddCertificatePrice, uint256 SubscriptionPrice, bool mustSubscribe) external override{\r\n         if(false == _submited[pool]){\r\n            _AddCertificatePricePerPool[pool] = AddCertificatePrice;\r\n            _SubscriptionPricePerPool[pool] = SubscriptionPrice;\r\n            _mustSubscribe[pool] = mustSubscribe;\r\n            _submited[pool] = true;\r\n        }\r\n        addEntity(pool, poolInfo, _poolId);\r\n    }\r\n\r\n    function removePool(address pool) external override\r\n    {\r\n       removeEntity(pool, _poolId); \r\n    }\r\n\r\n    function validatePool(address pool) external override\r\n    {\r\n        validateEntity(pool, _poolId);\r\n    }\r\n\r\n    function rejectPool(address pool) external override\r\n    {\r\n        rejectEntity(pool, _poolId);\r\n    }\r\n\r\n    function removePricesForPool(address pool) internal\r\n    {\r\n        delete(_submited[pool]);\r\n        delete(_mustSubscribe[pool]);\r\n        delete(_AddCertificatePricePerPool[pool]);\r\n        delete(_SubscriptionPricePerPool[pool]);\r\n    }\r\n    \r\n    function retrievePool(address pool) external override view returns (string memory, bool, uint256, uint256, bool)\r\n    {\r\n        string memory poolInfo;\r\n        bool isActivated;\r\n\r\n        (poolInfo, isActivated) = InternalRetrievePool(pool);\r\n        return (poolInfo, isActivated, _AddCertificatePricePerPool[pool], _SubscriptionPricePerPool[pool], _mustSubscribe[pool]);\r\n    }\r\n    \r\n    function InternalRetrievePool(address pool) internal view returns (string memory, bool)\r\n    {\r\n        return retrieveEntity(pool, _poolId);\r\n    }\r\n\r\n    function retrieveAllPools() external override view returns (bytes32[] memory)\r\n    {\r\n        return retrieveAllEntities(_poolId);\r\n    }\r\n\r\n    function retrievePendingPools(bool addedORremove) external override view returns (bytes32[] memory, string[] memory)\r\n    {\r\n        return(retrievePendingEntities(addedORremove, _poolId));\r\n    }\r\n\r\n    function isPool(address pool) internal view returns (bool)\r\n    {\r\n        return(isEntity(pool, _poolId));\r\n    }\r\n    // Certificates management\r\n    function extractCertIds(address pool, bytes32 CertificateHash, address holder) internal returns(uint[] memory)\r\n    {\r\n        uint otherId;\r\n        uint[] memory certIdIdArray = new uint[](4);\r\n        certIdIdArray[0] = _certId;\r\n        certIdIdArray[1] = AddressLibrary.AddressToUint(pool);\r\n        certIdIdArray[2] = AddressLibrary.AddressToUint(holder);\r\n\r\n        Library._pendingCertificatesStruct memory pCS = Library._pendingCertificatesStruct(pool, holder, CertificateHash);\r\n\r\n        if(!isCertificatePendingToAdded(pool, CertificateHash, holder)){\r\n            _pendingCertificates.push(pCS);\r\n            otherId = _pendingCertificates.length - 1;\r\n        }\r\n        else{\r\n            otherId = PositionInArray(pCS, _pendingCertificates);\r\n        }\r\n\r\n        certIdIdArray[3] = otherId;\r\n\r\n        return(certIdIdArray);\r\n    }\r\n\r\n     function addCertificate(address pool, bytes32 CertificateHash, address holder) external override\r\n        isAPool(pool)\r\n        isAnOwner\r\n        isCertificateActivated(false, CertificateHash, pool, holder) \r\n        isCertificatePendingToAdd(false, CertificateHash, pool, holder)\r\n     {\r\n       \r\n        _CertificatesPerHolderStruct storage hs = _CertificatesPerPool[pool];\r\n        uint[] memory certIdIdArray = extractCertIds(pool, CertificateHash, holder);\r\n        ItemsLibrary._manipulateItemStruct memory manipulateItemStruct = ItemsLibrary._manipulateItemStruct(CertificateHash, \"\", _minOwners, _certLabel, certIdIdArray, false);\r\n        ItemsLibrary._ItemsStruct storage itemsstruct =  hs._CertificatesPerHolder[holder];\r\n        ItemsLibrary.addItem(manipulateItemStruct,itemsstruct, address(this));\r\n     }\r\n\r\n     function validateCertificate(address pool, bytes32 CertificateHash, address holder) external override\r\n        isAPool(pool)\r\n        isAnOwner\r\n        isCertificatePendingToAdd(true, CertificateHash, pool, holder)\r\n        HasNotAlreadyVotedForCertificate(CertificateHash, pool, holder)\r\n     {\r\n        _CertificatesPerHolderStruct storage hs = _CertificatesPerPool[pool];\r\n        uint[] memory certIdIdArray = extractCertIds(pool, CertificateHash, holder);\r\n        ItemsLibrary._manipulateItemStruct memory manipulateItemStruct = ItemsLibrary._manipulateItemStruct(CertificateHash, \"\", _minOwners, _certLabel, certIdIdArray, false);\r\n        ItemsLibrary._ItemsStruct storage itemsstruct =  hs._CertificatesPerHolder[holder];\r\n        ItemsLibrary.validateItem(manipulateItemStruct, itemsstruct, address(this));\r\n     }\r\n\r\n     function rejectCertificate(address pool, bytes32 CertificateHash, address holder) external override\r\n        isAPool(pool)\r\n        isAnOwner\r\n        isCertificatePendingToAdd(true, CertificateHash, pool, holder)\r\n        HasNotAlreadyVotedForCertificate(CertificateHash, pool, holder)\r\n     {\r\n        _CertificatesPerHolderStruct storage hs = _CertificatesPerPool[pool];\r\n        uint[] memory certIdIdArray = extractCertIds(pool, CertificateHash, holder);\r\n        ItemsLibrary._manipulateItemStruct memory manipulateItemStruct = ItemsLibrary._manipulateItemStruct(CertificateHash, \"\", _minOwners, _certLabel, certIdIdArray, false);\r\n        ItemsLibrary._ItemsStruct storage itemsstruct =  hs._CertificatesPerHolder[holder];\r\n        ItemsLibrary.rejectItem(manipulateItemStruct, itemsstruct, address(this));\r\n     }\r\n \r\n    function manipulateCertificate(address pool, bytes32 CertificateHash, address holder) internal\r\n        isAPool(pool)\r\n    {\r\n        IPool poolToSend = IPool(pool);\r\n\r\n        poolToSend.addCertificate{value:_AddCertificatePricePerPool[pool]}(CertificateHash, holder);\r\n\r\n        ItemsLibrary._ItemsStruct storage itemStruct = _CertificatesPerPool[pool]._CertificatesPerHolder[holder];\r\n\r\n        ItemsLibrary.RemoveResizeActivated(CertificateHash, itemStruct);\r\n        delete(itemStruct._items[CertificateHash]);   \r\n    }\r\n\r\n    function retrievePendingCertificates() external override view returns (Library._pendingCertificatesStruct[] memory)\r\n    {\r\n        return(_pendingCertificates);\r\n    }\r\n\r\n    function isCertificate(address pool, bytes32 CertificateHash, address holder) external override view returns(bool)\r\n    {\r\n        return internalisCertificate(pool, CertificateHash, holder);\r\n    }\r\n\r\n    function internalisCertificate(address pool, bytes32 CertificateHash, address holder) internal view returns(bool)\r\n    {\r\n        IPool poolToCheck = IPool(pool);\r\n        address provider = poolToCheck.retrieveCertificateProvider(CertificateHash, holder);\r\n        if(provider == address(this)) return true;\r\n        return false;\r\n    }\r\n\r\n    function isCertificatePendingToAdded(address pool, bytes32 CertificateHash, address holder) internal view returns(bool)\r\n    {\r\n        return ItemsLibrary.isItemPendingToAdded(CertificateHash, _CertificatesPerPool[pool]._CertificatesPerHolder[holder]);\r\n    }\r\n\r\n    function RemoveResizeCertificatesStructArray(Library._pendingCertificatesStruct[] storage array, uint index) internal\r\n    {\r\n        array[index] = array[array.length - 1];\r\n        array.pop();\r\n    }\r\n\r\n    function PositionInArray(Library._pendingCertificatesStruct memory value, Library._pendingCertificatesStruct[] memory array) internal pure returns(uint)\r\n    {\r\n         for(uint i=0; i < array.length; i++){\r\n            if(value.pool == array[i].pool && \r\n                value.holder == array[i].holder && \r\n                value.certificate == array[i].certificate) return i;\r\n        }\r\n\r\n        return array.length + 1;\r\n    }\r\n\r\n    receive() external override payable{}\r\n\r\n    // CALLBACKS /////////////////////////////////////////\r\n    function onItemValidated(bytes32 item, uint256[] calldata ids, bool addOrRemove) public override  \r\n    {\r\n        super.onItemValidated(item, ids, addOrRemove);\r\n\r\n        if(ids[0] == _poolId){\r\n            address pool = AddressLibrary.Bytes32ToAddress(item);\r\n\r\n            if(false == addOrRemove)removePricesForPool(pool);\r\n            else if(true == _mustSubscribe[pool]){\r\n                IPool poolToSubscribe = IPool(pool);\r\n                poolToSubscribe.addProvider{value:_SubscriptionPricePerPool[pool]}(address(this), _ProviderInfo);\r\n            }\r\n        }\r\n        else if(ids[0] == _certId){\r\n            manipulateCertificate(AddressLibrary.UintToAddress(ids[1]), item, AddressLibrary.UintToAddress(ids[2]));\r\n            RemoveResizeCertificatesStructArray(_pendingCertificates, ids[3]);\r\n        }\r\n    }\r\n\r\n    function onItemRejected(bytes32 item, uint256[] calldata ids, bool addOrRemove) public override  \r\n    {\r\n        super.onItemRejected(item, ids, addOrRemove);\r\n\r\n        if(ids[0] == _poolId){\r\n            address pool = AddressLibrary.Bytes32ToAddress(item);\r\n\r\n            if(true == addOrRemove)removePricesForPool(pool);\r\n        } \r\n        else if(ids[0] == _certId){\r\n            RemoveResizeCertificatesStructArray(_pendingCertificates, ids[3]);\r\n        }\r\n    }\r\n    \r\n }",
  "sourcePath": "C:/Users/d-aam/GitHub/Certificates/contracts/DeployedContracts/Provider.sol",
  "compiler": {
    "name": "solc",
    "version": "0.8.7+commit.e28d00a7.Emscripten.clang"
  },
  "schemaVersion": "3.3.4",
  "updatedAt": "2021-08-24T12:42:49.657Z",
  "devdoc": {
    "kind": "dev",
    "methods": {},
    "version": 1
  },
  "userdoc": {
    "kind": "user",
    "methods": {},
    "version": 1
  }
}