{
  "contractName": "Provider",
  "abi": [
    {
      "inputs": [
        {
          "internalType": "address[]",
          "name": "owners",
          "type": "address[]"
        },
        {
          "internalType": "uint256",
          "name": "minOwners",
          "type": "uint256"
        }
      ],
      "stateMutability": "payable",
      "type": "constructor"
    },
    {
      "anonymous": false,
      "inputs": [
        {
          "indexed": false,
          "internalType": "string",
          "name": "",
          "type": "string"
        },
        {
          "indexed": false,
          "internalType": "address",
          "name": "",
          "type": "address"
        }
      ],
      "name": "_AddEntityValidationIdEvent",
      "type": "event"
    },
    {
      "anonymous": false,
      "inputs": [
        {
          "indexed": false,
          "internalType": "string",
          "name": "",
          "type": "string"
        },
        {
          "indexed": false,
          "internalType": "address",
          "name": "",
          "type": "address"
        }
      ],
      "name": "_RemoveEntityValidationIdEvent",
      "type": "event"
    },
    {
      "inputs": [
        {
          "internalType": "address",
          "name": "owner",
          "type": "address"
        },
        {
          "internalType": "string",
          "name": "ownerInfo",
          "type": "string"
        },
        {
          "internalType": "uint256",
          "name": "nonce",
          "type": "uint256"
        }
      ],
      "name": "addOwner",
      "outputs": [],
      "stateMutability": "nonpayable",
      "type": "function"
    },
    {
      "inputs": [
        {
          "internalType": "address",
          "name": "owner",
          "type": "address"
        }
      ],
      "name": "isOwner",
      "outputs": [
        {
          "internalType": "bool",
          "name": "",
          "type": "bool"
        }
      ],
      "stateMutability": "view",
      "type": "function"
    },
    {
      "inputs": [
        {
          "internalType": "address",
          "name": "owner",
          "type": "address"
        },
        {
          "internalType": "uint256",
          "name": "nonce",
          "type": "uint256"
        }
      ],
      "name": "removeOwner",
      "outputs": [],
      "stateMutability": "nonpayable",
      "type": "function"
    },
    {
      "inputs": [],
      "name": "retrieveAllOwners",
      "outputs": [
        {
          "internalType": "address[]",
          "name": "",
          "type": "address[]"
        }
      ],
      "stateMutability": "view",
      "type": "function"
    },
    {
      "inputs": [],
      "name": "retrieveMinOwners",
      "outputs": [
        {
          "internalType": "uint256",
          "name": "",
          "type": "uint256"
        }
      ],
      "stateMutability": "view",
      "type": "function"
    },
    {
      "inputs": [
        {
          "internalType": "address",
          "name": "owner",
          "type": "address"
        }
      ],
      "name": "retrieveOwner",
      "outputs": [
        {
          "internalType": "string",
          "name": "",
          "type": "string"
        }
      ],
      "stateMutability": "view",
      "type": "function"
    },
    {
      "inputs": [],
      "name": "retrieveTotalOwners",
      "outputs": [
        {
          "internalType": "uint256",
          "name": "",
          "type": "uint256"
        }
      ],
      "stateMutability": "view",
      "type": "function"
    },
    {
      "inputs": [
        {
          "internalType": "address",
          "name": "pool",
          "type": "address"
        },
        {
          "internalType": "string",
          "name": "poolInfo",
          "type": "string"
        },
        {
          "internalType": "uint256",
          "name": "nonce",
          "type": "uint256"
        }
      ],
      "name": "addPool",
      "outputs": [],
      "stateMutability": "nonpayable",
      "type": "function"
    },
    {
      "inputs": [
        {
          "internalType": "address",
          "name": "pool",
          "type": "address"
        },
        {
          "internalType": "uint256",
          "name": "nonce",
          "type": "uint256"
        }
      ],
      "name": "removePool",
      "outputs": [],
      "stateMutability": "nonpayable",
      "type": "function"
    },
    {
      "inputs": [
        {
          "internalType": "address",
          "name": "pool",
          "type": "address"
        }
      ],
      "name": "retrievePool",
      "outputs": [
        {
          "internalType": "string",
          "name": "",
          "type": "string"
        }
      ],
      "stateMutability": "view",
      "type": "function"
    },
    {
      "inputs": [],
      "name": "retrieveAllPools",
      "outputs": [
        {
          "internalType": "address[]",
          "name": "",
          "type": "address[]"
        }
      ],
      "stateMutability": "view",
      "type": "function"
    },
    {
      "inputs": [],
      "name": "retrieveTotalPools",
      "outputs": [
        {
          "internalType": "uint256",
          "name": "",
          "type": "uint256"
        }
      ],
      "stateMutability": "view",
      "type": "function"
    },
    {
      "inputs": [
        {
          "internalType": "address",
          "name": "pool",
          "type": "address"
        }
      ],
      "name": "isPool",
      "outputs": [
        {
          "internalType": "bool",
          "name": "",
          "type": "bool"
        }
      ],
      "stateMutability": "view",
      "type": "function"
    },
    {
      "inputs": [
        {
          "internalType": "address",
          "name": "pool",
          "type": "address"
        },
        {
          "internalType": "bytes32",
          "name": "CertificateHash",
          "type": "bytes32"
        },
        {
          "internalType": "address",
          "name": "holder",
          "type": "address"
        },
        {
          "internalType": "uint256",
          "name": "nonce",
          "type": "uint256"
        }
      ],
      "name": "addCertificate",
      "outputs": [],
      "stateMutability": "nonpayable",
      "type": "function"
    },
    {
      "inputs": [
        {
          "internalType": "address",
          "name": "pool",
          "type": "address"
        },
        {
          "internalType": "bytes32",
          "name": "CertificateHash",
          "type": "bytes32"
        },
        {
          "internalType": "address",
          "name": "holder",
          "type": "address"
        },
        {
          "internalType": "uint256",
          "name": "nonce",
          "type": "uint256"
        }
      ],
      "name": "removeCertificate",
      "outputs": [],
      "stateMutability": "nonpayable",
      "type": "function"
    }
  ],
  "bytecode": "0x600560c08181526427bbb732b960d91b60e0526080908152610140604052600461010090815263141bdbdb60e21b6101205260a052620000429190600262000329565b5060405162002d6438038062002d648339810160408190526200006591620004be565b818160026005805480602002602001604051908101604052809291908181526020016000905b828210156200013c5760008481526020908190208301805460408051601f6002600019610100600187161502019094169390930492830185900485028101850190915281815292830182828015620001275780601f10620000fb5761010080835404028352916020019162000127565b820191906000526020600020905b8154815290600101906020018083116200010957829003601f168201915b5050505050815260200190600101906200008b565b50505050600084518411156200016f5760405162461bcd60e51b8152600401620001669062000584565b60405180910390fd5b60008411620001925760405162461bcd60e51b81526004016200016690620005a2565b81518314620001b55760405162461bcd60e51b81526004016200016690620005c0565b60008181555b8381101562000220576003805460010181556000528251600290849083908110620001e257fe5b602090810291909101810151825460018101845560009384529282902081516200021694919091019291909101906200038d565b50600101620001bb565b50600184905560005b85518110156200031b5760016003600054815481106200024557fe5b906000526020600020906002020160000160008884815181106200026557fe5b60200260200101516001600160a01b03166001600160a01b0316815260200190815260200160002060000160006101000a81548160ff021916908315150217905550600360005481548110620002b757fe5b9060005260206000209060020201600101868281518110620002d557fe5b60209081029190910181015182546001808201855560009485529290932090920180546001600160a01b0319166001600160a01b03909316929092179091550162000229565b5050505050505050620005de565b8280548282559060005260206000209081019282156200037b579160200282015b828111156200037b57825180516200036a9184916020909101906200038d565b50916020019190600101906200034a565b50620003899291506200041e565b5090565b828054600181600116156101000203166002900490600052602060002090601f016020900481019282620003c5576000855562000410565b82601f10620003e057805160ff191683800117855562000410565b8280016001018555821562000410579182015b8281111562000410578251825591602001919060010190620003f3565b50620003899291506200043f565b808211156200038957600062000435828262000456565b506001016200041e565b5b8082111562000389576000815560010162000440565b50805460018160011615610100020316600290046000825580601f106200047e57506200049e565b601f0160209004906000526020600020908101906200049e91906200043f565b50565b80516001600160a01b0381168114620004b957600080fd5b919050565b60008060408385031215620004d1578182fd5b82516001600160401b0380821115620004e8578384fd5b818501915085601f830112620004fc578384fd5b81516020828211156200050b57fe5b808202604051828282010181811086821117156200052557fe5b604052838152828101945085830182870184018b101562000544578889fd5b8896505b8487101562000571576200055c81620004a1565b86526001969096019594830194830162000548565b5097909101519698969750505050505050565b60208082526004908201526322a1989b60e11b604082015260600190565b6020808252600490820152634543313760e01b604082015260600190565b60208082526004908201526308a8662760e31b604082015260600190565b61277680620005ee6000396000f3fe608060405234801561001057600080fd5b50600436106100f55760003560e01c806377bc5a1f11610097578063bba4d05011610066578063bba4d050146101de578063bfd2b3a3146101f1578063dd3ef44414610204578063eefe768114610217576100f5565b806377bc5a1f146101905780637d1f3226146101b05780638fc2d8ea146101c3578063a93d5ed6146101d6576100f5565b806354f8d90d116100d357806354f8d90d1461014d5780635b16ebb71461016057806365b973e51461017357806373bd22b814610188576100f5565b80632d99aaf2146100fa5780632f54bf6e1461011857806341929ea914610138575b600080fd5b61010261021f565b60405161010f919061246b565b60405180910390f35b61012b610126366004612263565b610230565b60405161010f91906124b8565b61014b6101463660046122c7565b610246565b005b61014b61015b366004612284565b610259565b61012b61016e366004612263565b61026d565b61017b61027a565b60405161010f91906126f1565b61017b610280565b6101a361019e366004612263565b61028c565b60405161010f9190612560565b61014b6101be366004612377565b61029a565b6101a36101d1366004612263565b6102aa565b6101026102b5565b61014b6101ec366004612284565b6102c2565b61014b6101ff366004612377565b6102d0565b61014b6102123660046122c7565b610317565b61017b610324565b606061022b6001610331565b905090565b600061023e8260005461040e565b90505b919050565b61025483836000548461066d565b505050565b61026784848460018561087b565b50505050565b600061023e82600161040e565b60015490565b600061022b6001610dec565b606061023e82600054610ec1565b6102a682600183610f97565b5050565b606061023e826110f1565b606061022b600054610331565b61026784848460008561087b565b60015460016102e0600054610dec565b038082111561030a5760405162461bcd60e51b815260040161030190612623565b60405180910390fd5b6102678460005485610f97565b610254838360018461066d565b600061022b600054610dec565b60035460405163123bd07560e11b8152606091839173__Library_______________________________90632477a0ea9061037290859085906004016126fa565b60206040518083038186803b15801561038a57600080fd5b505af415801561039e573d6000803e3d6000fd5b505050506040513d601f19601f820116820180604052508101906103c291906123a0565b15156001146103e35760405162461bcd60e51b815260040161030190612699565b610406600385815481106103f357fe5b90600052602060002090600202016110fe565b949350505050565b60035460405163123bd07560e11b8152600091839173__Library_______________________________90632477a0ea9061044f90859085906004016126fa565b60206040518083038186803b15801561046757600080fd5b505af415801561047b573d6000803e3d6000fd5b505050506040513d601f19601f8201168201806040525081019061049f91906123a0565b15156001146104c05760405162461bcd60e51b815260040161030190612699565b610664600385815481106104d057fe5b600091825260208083206001600160a01b038a16845260029283020181526040928390208351608081018552815460ff16151581526001808301805487516101009382161593909302600019011695909504601f81018590048502820185019096528581529094919385840193919290918301828280156105925780601f1061056757610100808354040283529160200191610592565b820191906000526020600020905b81548152906001019060200180831161057557829003601f168201915b50505050508152602001600282018054806020026020016040519081016040528092919081815260200182805480156105f457602002820191906000526020600020905b81546001600160a01b031681526001909101906020018083116105d6575b505050505081526020016003820180548060200260200160405190810160405280929190818152602001828054801561065657602002820191906000526020600020905b81546001600160a01b03168152600190910190602001808311610638575b505050505081525050611164565b95945050505050565b60035460405163123bd07560e11b815283919073__Library_______________________________90632477a0ea906106ac90859085906004016126fa565b60206040518083038186803b1580156106c457600080fd5b505af41580156106d8573d6000803e3d6000fd5b505050506040513d601f19601f820116820180604052508101906106fc91906123a0565b151560011461071d5760405162461bcd60e51b815260040161030190612699565b61072633610230565b15156001146107475760405162461bcd60e51b81526004016103019061267c565b61077286866003878154811061075957fe5b9060005260206000209060020201600154600488611168565b6108196003858154811061078257fe5b600091825260208083206001600160a01b038b16845260029283020181526040928390208351608081018552815460ff16151581526001808301805487516101009382161593909302600019011695909504601f81018590048502820185019096528581529094919385840193919290918301828280156105925780601f1061056757610100808354040283529160200191610592565b151560011415610873577f3c139d46a211844e248647688545a37c07c505c999c1232d1247c707dc0a91e26002858154811061085157fe5b906000526020600020018760405161086a929190612573565b60405180910390a15b505050505050565b846108858161026d565b151560011461089357600080fd5b61089c33610230565b15156001146108bd5760405162461bcd60e51b81526004016103019061267c565b6001600160a01b03868116600090815260066020908152604080832093881683529281528282208883528152908290208251608081018452815460ff1615158152600180830180548651600261010094831615949094026000190190911692909204601f810186900486028301860190965285825288959294858101939083018282801561098c5780601f106109615761010080835404028352916020019161098c565b820191906000526020600020905b81548152906001019060200180831161096f57829003601f168201915b50505050508152602001600282018054806020026020016040519081016040528092919081815260200182805480156109ee57602002820191906000526020600020905b81546001600160a01b031681526001909101906020018083116109d0575b5050505050815260200160038201805480602002602001604051908101604052809291908181526020018280548015610a5057602002820191906000526020600020905b81546001600160a01b03168152600190910190602001808311610a32575b505050919092525050604051630eefab8b60e31b815273__Library_______________________________915063777d5c5890610a9390859085906004016124e2565b60006040518083038186803b158015610aab57600080fd5b505af4158015610abf573d6000803e3d6000fd5b5050604051635c6309fb60e11b815286925073__Library_______________________________915063b8c613f690610afe90849060049081016126fa565b60006040518083038186803b158015610b1657600080fd5b505af4158015610b2a573d6000803e3d6000fd5b5060009250829150610b399050565b876001811115610b4557fe5b1415610ba857506001600160a01b038981166000908152600660209081526040808320938b1683529281528282208b83528152918120600201805460018101825581835292822090920180546001600160a01b0319163317905589905254610c01565b506001600160a01b038981166000908152600660209081526040808320938b1683529281528282208b83528152918120600301805460018101825581835292822090920180546001600160a01b03191633179055899052545b610c0d816001546115ae565b15610de0576000610c1d8b6110f1565b604051602001610c2d919061243c565b60405160208183030381529060405280519060200120604051602001610c5290612458565b604051602081830303815290604052805190602001201415610c75575089610c78565b50895b6000886001811115610c8657fe5b1415610cf3576040516369767eab60e01b81526001600160a01b038216906369767eab90610cbc908d908d908c906004016124c3565b600060405180830381600087803b158015610cd657600080fd5b505af1158015610cea573d6000803e3d6000fd5b50505050610d56565b60405163039c2ae560e11b81526001600160a01b0382169063073855ca90610d23908d908d908c906004016124c3565b600060405180830381600087803b158015610d3d57600080fd5b505af1158015610d51573d6000803e3d6000fd5b505050505b6001600160a01b03808c166000908152600660209081526040808320938d1683529281528282208d83529052908120805460ff1916815590610d9b60018301826120f1565b610da9600283016000612138565b610db7600383016000612138565b50503360009081526004602090815260408083208a84529091529020805460ff19166001179055505b50505050505050505050565b60035460405163123bd07560e11b8152600091839173__Library_______________________________90632477a0ea90610e2d90859085906004016126fa565b60206040518083038186803b158015610e4557600080fd5b505af4158015610e59573d6000803e3d6000fd5b505050506040513d601f19601f82011682018060405250810190610e7d91906123a0565b1515600114610e9e5760405162461bcd60e51b815260040161030190612699565b61040660038581548110610eae57fe5b90600052602060002090600202016115ca565b60035460405163123bd07560e11b8152606091839173__Library_______________________________90632477a0ea90610f0290859085906004016126fa565b60206040518083038186803b158015610f1a57600080fd5b505af4158015610f2e573d6000803e3d6000fd5b505050506040513d601f19601f82011682018060405250810190610f5291906123a0565b1515600114610f735760405162461bcd60e51b815260040161030190612699565b6106648560038681548110610f8457fe5b90600052602060002090600202016115d1565b60035460405163123bd07560e11b815283919073__Library_______________________________90632477a0ea90610fd690859085906004016126fa565b60206040518083038186803b158015610fee57600080fd5b505af4158015611002573d6000803e3d6000fd5b505050506040513d601f19601f8201168201806040525081019061102691906123a0565b15156001146110475760405162461bcd60e51b815260040161030190612699565b8461105133610230565b1515600114806110695750336001600160a01b038216145b6110855760405162461bcd60e51b8152600401610301906126b6565b6110af866003878154811061109657fe5b9060005260206000209060020201600154600488611814565b6110bf6003868154811061078257fe5b610873577f1f62d535f971041db7bd8760bf0f1f9f476461558744a35c0d477b5ad6893e896002868154811061085157fe5b606061023e826001610ec1565b60608160010180548060200260200160405190810160405280929190818152602001828054801561115857602002820191906000526020600020905b81546001600160a01b0316815260019091019060200180831161113a575b50505050509050919050565b5190565b6001600160a01b0386166000908152602085815260408083208151608081018352815460ff1615158152600180830180548551600261010094831615949094026000190190911692909204601f810187900487028301870190955284825291949293858401939192918301828280156112225780601f106111f757610100808354040283529160200191611222565b820191906000526020600020905b81548152906001019060200180831161120557829003601f168201915b505050505081526020016002820180548060200260200160405190810160405280929190818152602001828054801561128457602002820191906000526020600020905b81546001600160a01b03168152600190910190602001808311611266575b50505050508152602001600382018054806020026020016040519081016040528092919081815260200182805480156112e657602002820191906000526020600020905b81546001600160a01b031681526001909101906020018083116112c8575b5050505050815250506112f98282611d14565b6001600160a01b0388166000908152602087815260408083208151608081018352815460ff1615158152600180830180548551600261010094831615949094026000190190911692909204601f810187900487028301870190955284825291949293858401939192918301828280156113b35780601f10611388576101008083540402835291602001916113b3565b820191906000526020600020905b81548152906001019060200180831161139657829003601f168201915b505050505081526020016002820180548060200260200160405190810160405280929190818152602001828054801561141557602002820191906000526020600020905b81546001600160a01b031681526001909101906020018083116113f7575b505050505081526020016003820180548060200260200160405190810160405280929190818152602001828054801561147757602002820191906000526020600020905b81546001600160a01b03168152600190910190602001808311611459575b50505050508152505061148a8282611d6e565b84866114968282611dd4565b6001600160a01b038c16600090815260208b905260409020600201546114e5576001600160a01b038c16600090815260208b815260409091208c516114e3926001909201918e0190612156565b505b6001600160a01b038c16600081815260208c8152604080832060020180546001818101835582865284862090910180546001600160a01b0319163390811790915585528d84528285208d86528452918420805460ff1916909217909155929091528b905254611554908a6115ae565b156115a0576001600160a01b038c16600081815260208c815260408220805460ff191660019081179091558d810180549182018155835291200180546001600160a01b03191690911790555b505050505050505050505050565b6000818310156115c0575060006115c4565b5060015b92915050565b6001015490565b6001600160a01b038216600090815260208281526040918290208251608081018452815460ff1615158152600182810180548651601f60026000198487161561010002019093169290920491820187900487028101870190975280875260609692959394938581019392919083018282801561168e5780601f106116635761010080835404028352916020019161168e565b820191906000526020600020905b81548152906001019060200180831161167157829003601f168201915b50505050508152602001600282018054806020026020016040519081016040528092919081815260200182805480156116f057602002820191906000526020600020905b81546001600160a01b031681526001909101906020018083116116d2575b505050505081526020016003820180548060200260200160405190810160405280929190818152602001828054801561175257602002820191906000526020600020905b81546001600160a01b03168152600190910190602001808311611734575b5050505050815250506117658282611d14565b6001600160a01b03851660009081526020858152604091829020600190810180548451600293821615610100026000190190911692909204601f8101849004840283018401909452838252909290918301828280156118055780601f106117da57610100808354040283529160200191611805565b820191906000526020600020905b8154815290600101906020018083116117e857829003601f168201915b50505050509250505092915050565b6001600160a01b038516600090815260208581526040918290208251608081018452815460ff1615158152600180830180548651600261010083861615026000190190921691909104601f81018790048702820187019097528681529195929485810193908301828280156118ca5780601f1061189f576101008083540402835291602001916118ca565b820191906000526020600020905b8154815290600101906020018083116118ad57829003601f168201915b505050505081526020016002820180548060200260200160405190810160405280929190818152602001828054801561192c57602002820191906000526020600020905b81546001600160a01b0316815260019091019060200180831161190e575b505050505081526020016003820180548060200260200160405190810160405280929190818152602001828054801561198e57602002820191906000526020600020905b81546001600160a01b03168152600190910190602001808311611970575b5050505050815250506119a18282611d14565b6001600160a01b038716600090815260208781526040918290208251608081018452815460ff1615158152600180830180548651600261010083861615026000190190921691909104601f8101879004870282018701909752868152919592948581019390830182828015611a575780601f10611a2c57610100808354040283529160200191611a57565b820191906000526020600020905b815481529060010190602001808311611a3a57829003601f168201915b5050505050815260200160028201805480602002602001604051908101604052809291908181526020018280548015611ab957602002820191906000526020600020905b81546001600160a01b03168152600190910190602001808311611a9b575b5050505050815260200160038201805480602002602001604051908101604052809291908181526020018280548015611b1b57602002820191906000526020600020905b81546001600160a01b03168152600190910190602001808311611afd575b505050505081525050611b2e8282611d6e565b8486611b3a8282611dd4565b6001600160a01b038b16600081815260208c815260408083206003018054600181810183559185528385200180546001600160a01b031916339081179091558085528d84528285208d86529093529220805460ff19169092179091551480611bc357506001600160a01b038b16600090815260208b90526040902060030154611bc3908a6115ae565b15611d0757611ca3611c9e611c348d8d600101805480602002602001604051908101604052809291908181526020018280548015611c2a57602002820191906000526020600020905b81546001600160a01b03168152600190910190602001808311611c0c575b5050505050611e0d565b611c998d600101805480602002602001604051908101604052809291908181526020018280548015611c8f57602002820191906000526020600020905b81546001600160a01b03168152600190910190602001808311611c71575b5050505050611e61565b611ef8565b611feb565b8051611cb99160018d01916020909101906121e2565b506001600160a01b038b16600090815260208b905260408120805460ff1916815590611ce860018301826120f1565b611cf6600283016000612138565b611d04600383016000612138565b50505b5050505050505050505050565b81611d4457611d2281611164565b15611d3f5760405162461bcd60e51b8152600401610301906126d4565b6102a6565b611d4d81611164565b15156001146102a65760405162461bcd60e51b815260040161030190612606565b816001811115611d7a57fe5b611da957611d8c338260400151612088565b15611d3f5760405162461bcd60e51b815260040161030190612641565b611db7338260600151612088565b156102a65760405162461bcd60e51b815260040161030190612641565b3360009081526020828152604080832085845290915290205460ff16156102a65760405162461bcd60e51b81526004016103019061265e565b6000805b8251811015611e5657828181518110611e2657fe5b60200260200101516001600160a01b0316846001600160a01b03161415611e4e5790506115c4565b600101611e11565b505051600101919050565b60606000825167ffffffffffffffff81118015611e7d57600080fd5b50604051908082528060200260200182016040528015611ea7578160200160208202803683370190505b50905060005b8351811015611ef157611ed2848281518110611ec557fe5b60200260200101516120de565b828281518110611ede57fe5b6020908102919091010152600101611ead565b5092915050565b6060828251611f0782826120ea565b1515600114611f285760405162461bcd60e51b815260040161030190612699565b6000600185510367ffffffffffffffff81118015611f4557600080fd5b50604051908082528060200260200182016040528015611f6f578160200160208202803683370190505b50905084600186510381518110611f8257fe5b6020026020010151858781518110611f9657fe5b60200260200101818152505060005b8151811015611fe157858181518110611fba57fe5b6020026020010151828281518110611fce57fe5b6020908102919091010152600101611fa5565b5095945050505050565b60606000825167ffffffffffffffff8111801561200757600080fd5b50604051908082528060200260200182016040528015612031578160200160208202803683370190505b50905060005b8351811015611ef15761205c84828151811061204f57fe5b60200260200101516120ee565b82828151811061206857fe5b6001600160a01b0390921660209283029190910190910152600101612037565b6000805b82518110156120d4578281815181106120a157fe5b60200260200101516001600160a01b0316846001600160a01b031614156120cc5760019150506115c4565b60010161208c565b5060009392505050565b6001600160a01b031690565b1190565b90565b50805460018160011615610100020316600290046000825580601f106121175750612135565b601f0160209004906000526020600020908101906121359190612237565b50565b50805460008255906000526020600020908101906121359190612237565b828054600181600116156101000203166002900490600052602060002090601f01602090048101928261218c57600085556121d2565b82601f106121a557805160ff19168380011785556121d2565b828001600101855582156121d2579182015b828111156121d25782518255916020019190600101906121b7565b506121de929150612237565b5090565b8280548282559060005260206000209081019282156121d2579160200282015b828111156121d257825182546001600160a01b0319166001600160a01b03909116178255602090920191600190910190612202565b5b808211156121de5760008155600101612238565b80356001600160a01b038116811461024157600080fd5b600060208284031215612274578081fd5b61227d8261224c565b9392505050565b60008060008060808587031215612299578283fd5b6122a28561224c565b9350602085013592506122b76040860161224c565b9396929550929360600135925050565b6000806000606084860312156122db578283fd5b6122e48461224c565b925060208085013567ffffffffffffffff80821115612301578485fd5b818701915087601f830112612314578485fd5b81358181111561232057fe5b604051601f8201601f191681018501838111828210171561233d57fe5b60405281815283820185018a1015612353578687fd5b81858501868301379081019093019490945250929592945050506040919091013590565b60008060408385031215612389578182fd5b6123928361224c565b946020939093013593505050565b6000602082840312156123b1578081fd5b8151801515811461227d578182fd5b6001600160a01b03169052565b6000815180845260208085019450808401835b838110156124055781516001600160a01b0316875295820195908201906001016123e0565b509495945050505050565b60008151808452612428816020860160208601612714565b601f01601f19169290920160200192915050565b6000825161244e818460208701612714565b9190910192915050565b665072697661746560c81b815260070190565b6020808252825182820181905260009190848201906040850190845b818110156124ac5783516001600160a01b031683529284019291840191600101612487565b50909695505050505050565b901515815260200190565b9283526001600160a01b03919091166020830152604082015260600190565b6000600284106124ee57fe5b8382526040602083015282511515604083015260208301516080606084015261251a60c0840182612410565b90506040840151603f198085840301608086015261253883836123cd565b925060608601519150808584030160a08601525061255682826123cd565b9695505050505050565b60006020825261227d6020830184612410565b6000604082016040835281855460018082166000811461259a57600181146125b8576125f1565b60028304607f16855260ff19831660608801526080870193506125f1565b600283048086526125c88a612708565b875b828110156125e75781548a820160600152908401906020016125ca565b8901606001955050505b505050809250505061227d60208301846123c0565b60208082526003908201526245433760e81b604082015260600190565b6020808252600490820152634543313960e01b604082015260600190565b60208082526003908201526245433560e81b604082015260600190565b6020808252600490820152630454332360e41b604082015260600190565b60208082526003908201526245433960e81b604082015260600190565b60208082526003908201526245433160e81b604082015260600190565b6020808252600490820152630454331360e41b604082015260600190565b60208082526003908201526222a19b60e91b604082015260600190565b90815260200190565b918252602082015260400190565b60009081526020902090565b60005b8381101561272f578181015183820152602001612717565b83811115610267575050600091015256fea2646970667358221220fc9e3bcc3e8c2738b91f130cad8c7c2d679c28ae2f7f1c8147e7e16415f45b6a64736f6c63430007060033",
  "immutableReferences": {},
  "source": "// SPDX-License-Identifier: GPL-3.0\r\n\r\npragma solidity >=0.7.0 <0.9.0;\r\npragma experimental ABIEncoderV2;\r\n\r\n/**\r\n * @title Storage\r\n * @dev Store & retrieve value in a variable\r\n */\r\n import \"./Libraries/Library.sol\";\r\n import \"./Interfaces/IProvider.sol\";\r\n import \"./Abstract/MultiSigContract.sol\";\r\n import \"./PrivateCertificatesPool.sol\";\r\n import \"./PublicCertificatesPool.sol\";\r\n\r\n\r\n contract Provider is IProvider, MultiSigContract {\r\n    using Library for *;\r\n\r\n    uint256 constant TotalEntities = 2;\r\n\r\n    // Owners\r\n    uint256 constant _ownerIdProviders = 0;\r\n    string constant _ownerLabel = \"Owner\";\r\n\r\n    // Pools\r\n    uint256 constant _poolId = 1;\r\n    string constant _poolLabel = \"Pool\";\r\n\r\n    string[] _Label = [_ownerLabel, _poolLabel];\r\n    \r\n    struct _CertificateStruct{\r\n        mapping(bytes32 => Library._entityIdentity) _cert;\r\n    }\r\n    \r\n    struct _CertificatesPerHolderStruct{\r\n        mapping(address => _CertificateStruct) _CertificatesPerHolder;\r\n    }\r\n   \r\n    mapping(address => _CertificatesPerHolderStruct) _CertificatesPerPool;\r\n\r\n    // modifiers\r\n    modifier isAPool(address pool){\r\n        require(true == isPool(pool));\r\n        _;\r\n    }\r\n    \r\n    modifier isEntityActivated(bool YesOrNo, Library._entityIdentity memory Entity){\r\n        Library.EntityActivated(YesOrNo, Entity);\r\n        _;\r\n    }\r\n    \r\n    modifier HasNotAlreadyVoted(Library.Actions action, Library._entityIdentity memory Entity){\r\n        Library.NotAlreadyVoted(action, Entity);\r\n        _;\r\n    }\r\n\r\n     // Constructor\r\n    constructor(address[] memory owners,  uint256 minOwners) \r\n        MultiSigContract(owners, minOwners, TotalEntities, _Label, _ownerIdProviders)\r\n    payable\r\n    {}\r\n\r\n    // POOL CRUD Operations\r\n    function addPool(address pool, string memory poolInfo, uint nonce) external override{\r\n        addEntity(pool, bytes(poolInfo), _poolId, nonce);\r\n    }\r\n\r\n    function removePool(address pool, uint nonce) external override{\r\n       removeEntity(pool, _poolId, nonce); \r\n    }\r\n    \r\n    function retrievePool(address pool) external override view returns (string memory){\r\n        return InternalRetrievePool(pool);\r\n    }\r\n    \r\n    function InternalRetrievePool(address pool) internal view returns (string memory){\r\n        return string(retrieveEntity(pool, _poolId));\r\n    }\r\n\r\n    function retrieveAllPools() external override view returns (address[] memory){\r\n        return(retrieveAllEntities(_poolId));\r\n    }\r\n    \r\n    function retrieveTotalPools() external override view returns (uint){\r\n        return (retrieveTotalEntities(_poolId));\r\n    }\r\n\r\n    function isPool(address pool) public view returns (bool){\r\n        return(isEntity(pool, _poolId));\r\n    }\r\n    \r\n    // Certificates management\r\n     function addCertificate(address pool, bytes32 CertificateHash, address holder, uint nonce) external override\r\n     {\r\n        manipulateCertificate(pool, CertificateHash, holder, Library.Actions.Add, nonce);\r\n     }\r\n     \r\n     function removeCertificate(address pool, bytes32 CertificateHash, address holder, uint nonce) external override\r\n     {\r\n         manipulateCertificate(pool, CertificateHash, holder, Library.Actions.Remove, nonce);\r\n     }\r\n\r\n    \r\n    function manipulateCertificate(address pool, bytes32 CertificateHash, address holder, Library.Actions act, uint nonce) \r\n        isAPool(pool)\r\n        isAnOwner\r\n        HasNotAlreadyVoted(act, _CertificatesPerPool[pool]._CertificatesPerHolder[holder]._cert[CertificateHash])\r\n        isNonceOK(nonce)\r\n    internal{\r\n        \r\n        uint validations;\r\n        \r\n        if(act == Library.Actions.Add){\r\n            _CertificatesPerPool[pool]._CertificatesPerHolder[holder]._cert[CertificateHash]._AddValidated.push(msg.sender);\r\n            validations = _CertificatesPerPool[pool]._CertificatesPerHolder[holder]._cert[CertificateHash]._AddValidated.length;\r\n        }\r\n        else{\r\n            _CertificatesPerPool[pool]._CertificatesPerHolder[holder]._cert[CertificateHash]._RemoveValidated.push(msg.sender);\r\n            validations = _CertificatesPerPool[pool]._CertificatesPerHolder[holder]._cert[CertificateHash]._RemoveValidated.length;\r\n        }\r\n\r\n        if(Library.CheckValidations(validations, _minOwners)){\r\n            MultiSigCertificatesPool poolToSend;\r\n            \r\n            if(keccak256(abi.encodePacked(\"Private\")) == keccak256(abi.encodePacked((InternalRetrievePool(pool))))){\r\n                poolToSend = PrivateCertificatesPool(pool);\r\n            }\r\n            else {\r\n                poolToSend = PublicCertificatesPool(pool);\r\n            }\r\n            \r\n            \r\n            if(act == Library.Actions.Add){\r\n                poolToSend.addCertificate(CertificateHash, holder, nonce);\r\n            }\r\n            else{\r\n               poolToSend.removeCertificate(CertificateHash, holder, nonce);\r\n            }\r\n            \r\n            delete(_CertificatesPerPool[pool]._CertificatesPerHolder[holder]._cert[CertificateHash]);\r\n\r\n            _Nonces._noncesPerAddress[msg.sender][nonce] = true;\r\n            \r\n        }\r\n    }\r\n    \r\n }",
  "sourcePath": "C:/Users/d-aam/GitHub/Certificates/contracts/Provider.sol",
  "compiler": {
    "name": "solc",
    "version": "0.7.6+commit.7338295f.Emscripten.clang"
  },
  "schemaVersion": "3.3.4",
  "updatedAt": "2021-07-13T07:50:29.548Z",
  "devdoc": {
    "kind": "dev",
    "methods": {},
    "version": 1
  },
  "userdoc": {
    "kind": "user",
    "methods": {},
    "version": 1
  }
}