{
  "contractName": "Provider",
  "abi": [
    {
      "inputs": [
        {
          "internalType": "address[]",
          "name": "owners",
          "type": "address[]"
        },
        {
          "internalType": "uint256",
          "name": "minOwners",
          "type": "uint256"
        }
      ],
      "stateMutability": "payable",
      "type": "constructor",
      "payable": true
    },
    {
      "anonymous": false,
      "inputs": [
        {
          "indexed": false,
          "internalType": "string",
          "name": "",
          "type": "string"
        },
        {
          "indexed": false,
          "internalType": "address",
          "name": "",
          "type": "address"
        }
      ],
      "name": "_AddEntityValidationIdEvent",
      "type": "event"
    },
    {
      "anonymous": false,
      "inputs": [
        {
          "indexed": false,
          "internalType": "string",
          "name": "",
          "type": "string"
        },
        {
          "indexed": false,
          "internalType": "address",
          "name": "",
          "type": "address"
        }
      ],
      "name": "_RemoveEntityValidationIdEvent",
      "type": "event"
    },
    {
      "inputs": [
        {
          "internalType": "address",
          "name": "owner",
          "type": "address"
        },
        {
          "internalType": "string",
          "name": "ownerInfo",
          "type": "string"
        },
        {
          "internalType": "uint256",
          "name": "nonce",
          "type": "uint256"
        }
      ],
      "name": "addOwner",
      "outputs": [],
      "stateMutability": "nonpayable",
      "type": "function"
    },
    {
      "inputs": [
        {
          "internalType": "address",
          "name": "owner",
          "type": "address"
        }
      ],
      "name": "isOwner",
      "outputs": [
        {
          "internalType": "bool",
          "name": "",
          "type": "bool"
        }
      ],
      "stateMutability": "view",
      "type": "function",
      "constant": true
    },
    {
      "inputs": [
        {
          "internalType": "address",
          "name": "owner",
          "type": "address"
        },
        {
          "internalType": "uint256",
          "name": "nonce",
          "type": "uint256"
        }
      ],
      "name": "removeOwner",
      "outputs": [],
      "stateMutability": "nonpayable",
      "type": "function"
    },
    {
      "inputs": [],
      "name": "retrieveAllOwners",
      "outputs": [
        {
          "internalType": "address[]",
          "name": "",
          "type": "address[]"
        }
      ],
      "stateMutability": "view",
      "type": "function",
      "constant": true
    },
    {
      "inputs": [
        {
          "internalType": "address",
          "name": "addr",
          "type": "address"
        }
      ],
      "name": "retrieveHighestNonceForAddress",
      "outputs": [
        {
          "internalType": "uint256",
          "name": "",
          "type": "uint256"
        }
      ],
      "stateMutability": "view",
      "type": "function",
      "constant": true
    },
    {
      "inputs": [],
      "name": "retrieveMinOwners",
      "outputs": [
        {
          "internalType": "uint256",
          "name": "",
          "type": "uint256"
        }
      ],
      "stateMutability": "view",
      "type": "function",
      "constant": true
    },
    {
      "inputs": [
        {
          "internalType": "address",
          "name": "owner",
          "type": "address"
        }
      ],
      "name": "retrieveOwner",
      "outputs": [
        {
          "internalType": "string",
          "name": "",
          "type": "string"
        },
        {
          "internalType": "bool",
          "name": "",
          "type": "bool"
        }
      ],
      "stateMutability": "view",
      "type": "function",
      "constant": true
    },
    {
      "inputs": [
        {
          "internalType": "bool",
          "name": "addedORremove",
          "type": "bool"
        }
      ],
      "name": "retrievePendingOwners",
      "outputs": [
        {
          "internalType": "address[]",
          "name": "",
          "type": "address[]"
        },
        {
          "internalType": "string[]",
          "name": "",
          "type": "string[]"
        }
      ],
      "stateMutability": "view",
      "type": "function",
      "constant": true
    },
    {
      "inputs": [],
      "name": "retrieveTotalOwners",
      "outputs": [
        {
          "internalType": "uint256",
          "name": "",
          "type": "uint256"
        }
      ],
      "stateMutability": "view",
      "type": "function",
      "constant": true
    },
    {
      "inputs": [
        {
          "internalType": "address",
          "name": "pool",
          "type": "address"
        },
        {
          "internalType": "string",
          "name": "poolInfo",
          "type": "string"
        },
        {
          "internalType": "uint256",
          "name": "nonce",
          "type": "uint256"
        }
      ],
      "name": "addPool",
      "outputs": [],
      "stateMutability": "nonpayable",
      "type": "function"
    },
    {
      "inputs": [
        {
          "internalType": "address",
          "name": "pool",
          "type": "address"
        },
        {
          "internalType": "uint256",
          "name": "nonce",
          "type": "uint256"
        }
      ],
      "name": "removePool",
      "outputs": [],
      "stateMutability": "nonpayable",
      "type": "function"
    },
    {
      "inputs": [
        {
          "internalType": "address",
          "name": "pool",
          "type": "address"
        }
      ],
      "name": "retrievePool",
      "outputs": [
        {
          "internalType": "string",
          "name": "",
          "type": "string"
        },
        {
          "internalType": "bool",
          "name": "",
          "type": "bool"
        }
      ],
      "stateMutability": "view",
      "type": "function",
      "constant": true
    },
    {
      "inputs": [],
      "name": "retrieveAllPools",
      "outputs": [
        {
          "internalType": "address[]",
          "name": "",
          "type": "address[]"
        }
      ],
      "stateMutability": "view",
      "type": "function",
      "constant": true
    },
    {
      "inputs": [],
      "name": "retrieveTotalPools",
      "outputs": [
        {
          "internalType": "uint256",
          "name": "",
          "type": "uint256"
        }
      ],
      "stateMutability": "view",
      "type": "function",
      "constant": true
    },
    {
      "inputs": [
        {
          "internalType": "address",
          "name": "pool",
          "type": "address"
        }
      ],
      "name": "isPool",
      "outputs": [
        {
          "internalType": "bool",
          "name": "",
          "type": "bool"
        }
      ],
      "stateMutability": "view",
      "type": "function",
      "constant": true
    },
    {
      "inputs": [
        {
          "internalType": "address",
          "name": "pool",
          "type": "address"
        },
        {
          "internalType": "bytes32",
          "name": "CertificateHash",
          "type": "bytes32"
        },
        {
          "internalType": "address",
          "name": "holder",
          "type": "address"
        },
        {
          "internalType": "uint256",
          "name": "nonce",
          "type": "uint256"
        }
      ],
      "name": "addCertificate",
      "outputs": [],
      "stateMutability": "nonpayable",
      "type": "function"
    },
    {
      "inputs": [
        {
          "internalType": "address",
          "name": "pool",
          "type": "address"
        },
        {
          "internalType": "bytes32",
          "name": "CertificateHash",
          "type": "bytes32"
        },
        {
          "internalType": "address",
          "name": "holder",
          "type": "address"
        },
        {
          "internalType": "uint256",
          "name": "nonce",
          "type": "uint256"
        }
      ],
      "name": "removeCertificate",
      "outputs": [],
      "stateMutability": "nonpayable",
      "type": "function"
    }
  ],
  "bytecode": "0x600560c09081526427bbb732b960d91b60e0526080908152610140604052600461010090815263141bdbdb60e21b6101205260a052620000449060069060026200032b565b50604051620031d2380380620031d28339810160408190526200006791620004c0565b818160026006805480602002602001604051908101604052809291908181526020016000905b828210156200013e5760008481526020908190208301805460408051601f6002600019610100600187161502019094169390930492830185900485028101850190915281815292830182828015620001295780601f10620000fd5761010080835404028352916020019162000129565b820191906000526020600020905b8154815290600101906020018083116200010b57829003601f168201915b5050505050815260200190600101906200008d565b5050505060008451841115620001715760405162461bcd60e51b8152600401620001689062000586565b60405180910390fd5b60008411620001945760405162461bcd60e51b81526004016200016890620005a4565b81518314620001b75760405162461bcd60e51b81526004016200016890620005c2565b60008181555b8381101562000222576003805460010181556000528251600290849083908110620001e457fe5b602090810291909101810151825460018101845560009384529282902081516200021894919091019291909101906200038f565b50600101620001bd565b50600184905560005b85518110156200031d5760016003600054815481106200024757fe5b906000526020600020906004020160000160008884815181106200026757fe5b60200260200101516001600160a01b03166001600160a01b0316815260200190815260200160002060000160006101000a81548160ff021916908315150217905550600360005481548110620002b957fe5b9060005260206000209060040201600101868281518110620002d757fe5b60209081029190910181015182546001808201855560009485529290932090920180546001600160a01b0319166001600160a01b0390931692909217909155016200022b565b5050505050505050620005e0565b8280548282559060005260206000209081019282156200037d579160200282015b828111156200037d57825180516200036c9184916020909101906200038f565b50916020019190600101906200034c565b506200038b92915062000420565b5090565b828054600181600116156101000203166002900490600052602060002090601f016020900481019282620003c7576000855562000412565b82601f10620003e257805160ff191683800117855562000412565b8280016001018555821562000412579182015b8281111562000412578251825591602001919060010190620003f5565b506200038b92915062000441565b808211156200038b57600062000437828262000458565b5060010162000420565b5b808211156200038b576000815560010162000442565b50805460018160011615610100020316600290046000825580601f10620004805750620004a0565b601f016020900490600052602060002090810190620004a0919062000441565b50565b80516001600160a01b0381168114620004bb57600080fd5b919050565b60008060408385031215620004d3578182fd5b82516001600160401b0380821115620004ea578384fd5b818501915085601f830112620004fe578384fd5b81516020828211156200050d57fe5b808202604051828282010181811086821117156200052757fe5b604052838152828101945085830182870184018b101562000546578889fd5b8896505b8487101562000573576200055e81620004a3565b8652600196909601959483019483016200054a565b5097909101519698969750505050505050565b60208082526004908201526322a1989b60e11b604082015260600190565b6020808252600490820152634543313760e01b604082015260600190565b60208082526004908201526308a8662760e31b604082015260600190565b612be280620005f06000396000f3fe608060405234801561001057600080fd5b50600436106100db5760003560e01c80632d99aaf2146100e05780632f54bf6e146100fe57806341929ea91461011e57806354f8d90d146101335780635b16ebb71461014657806365b973e5146101595780636b2996041461016e57806373bd22b81461018f57806377bc5a1f146101975780637d1f3226146101b85780638fc2d8ea146101cb578063a93d5ed6146101de578063ba001d16146101e6578063bba4d050146101f9578063bfd2b3a31461020c578063dd3ef4441461021f578063eefe768114610232575b600080fd5b6100e861023a565b6040516100f59190612882565b60405180910390f35b61011161010c366004612663565b61024b565b6040516100f59190612905565b61013161012c3660046126c7565b610261565b005b610131610141366004612684565b610274565b610111610154366004612663565b610288565b610161610295565b6040516100f59190612b4f565b61018161017c36600461279f565b61029b565b6040516100f5929190612895565b6101616102cd565b6101aa6101a5366004612663565b6102d9565b6040516100f59291906129ad565b6101316101c6366004612776565b6102e9565b6101aa6101d9366004612663565b6102f9565b6100e8610306565b6101616101f4366004612663565b610313565b610131610207366004612684565b61032e565b61013161021a366004612776565b61033c565b61013161022d3660046126c7565b610383565b610161610390565b6060610246600161039d565b905090565b60006102598260005461047a565b90505b919050565b61026f8383600054846106e0565b505050565b6102828484846001856108f5565b50505050565b600061025982600161047a565b60015490565b6060806102c46003600054815481106102b057fe5b906000526020600020906004020184610eb2565b91509150915091565b60006102466001611026565b606060006102c4836000546110fb565b6102f5826001836111e2565b5050565b606060006102c48361133c565b606061024660005461039d565b6001600160a01b031660009081526004602052604090205490565b6102828484846000856108f5565b600154600161034c600054611026565b03808211156103765760405162461bcd60e51b815260040161036d90612a81565b60405180910390fd5b61028284600054856111e2565b61026f83836001846106e0565b6000610246600054611026565b60035460405163123bd07560e11b8152606091839173__Library_______________________________90632477a0ea906103de9085908590600401612b58565b60206040518083038186803b1580156103f657600080fd5b505af415801561040a573d6000803e3d6000fd5b505050506040513d601f19601f8201168201806040525081019061042e91906127bb565b151560011461044f5760405162461bcd60e51b815260040161036d90612af7565b6104726003858154811061045f57fe5b906000526020600020906004020161134b565b949350505050565b60035460405163123bd07560e11b8152600091839173__Library_______________________________90632477a0ea906104bb9085908590600401612b58565b60206040518083038186803b1580156104d357600080fd5b505af41580156104e7573d6000803e3d6000fd5b505050506040513d601f19601f8201168201806040525081019061050b91906127bb565b151560011461052c5760405162461bcd60e51b815260040161036d90612af7565b6106d76003858154811061053c57fe5b600091825260208083206001600160a01b038a168452600490920290910181526040918290208251608081018452815460ff1615158152600180830180548651601f6002600019958416156101000295909501909216939093049081018690048602830186019096528582529194929385810193919291908301828280156106055780601f106105da57610100808354040283529160200191610605565b820191906000526020600020905b8154815290600101906020018083116105e857829003601f168201915b505050505081526020016002820180548060200260200160405190810160405280929190818152602001828054801561066757602002820191906000526020600020905b81546001600160a01b03168152600190910190602001808311610649575b50505050508152602001600382018054806020026020016040519081016040528092919081815260200182805480156106c957602002820191906000526020600020905b81546001600160a01b031681526001909101906020018083116106ab575b5050505050815250506113b1565b95945050505050565b60035460405163123bd07560e11b815283919073__Library_______________________________90632477a0ea9061071f9085908590600401612b58565b60206040518083038186803b15801561073757600080fd5b505af415801561074b573d6000803e3d6000fd5b505050506040513d601f19601f8201168201806040525081019061076f91906127bb565b15156001146107905760405162461bcd60e51b815260040161036d90612af7565b6107993361024b565b15156001146107ba5760405162461bcd60e51b815260040161036d90612ada565b6107e58686600387815481106107cc57fe5b90600052602060002090600402016001546004886113b5565b610893600385815481106107f557fe5b600091825260208083206001600160a01b038b168452600490920290910181526040918290208251608081018452815460ff1615158152600180830180548651601f6002600019958416156101000295909501909216939093049081018690048602830186019096528582529194929385810193919291908301828280156106055780601f106105da57610100808354040283529160200191610605565b1515600114156108ed577f3c139d46a211844e248647688545a37c07c505c999c1232d1247c707dc0a91e2600285815481106108cb57fe5b90600052602060002001876040516108e49291906129d1565b60405180910390a15b505050505050565b846108ff81610288565b151560011461090d57600080fd5b6109163361024b565b15156001146109375760405162461bcd60e51b815260040161036d90612ada565b6001600160a01b03868116600090815260076020908152604080832093881683529281528282208883528152908290208251608081018452815460ff1615158152600180830180548651600261010094831615949094026000190190911692909204601f8101869004860283018601909652858252889592948581019390830182828015610a065780601f106109db57610100808354040283529160200191610a06565b820191906000526020600020905b8154815290600101906020018083116109e957829003601f168201915b5050505050815260200160028201805480602002602001604051908101604052809291908181526020018280548015610a6857602002820191906000526020600020905b81546001600160a01b03168152600190910190602001808311610a4a575b5050505050815260200160038201805480602002602001604051908101604052809291908181526020018280548015610aca57602002820191906000526020600020905b81546001600160a01b03168152600190910190602001808311610aac575b505050919092525050604051630eefab8b60e31b815273__Library_______________________________915063777d5c5890610b0d908590859060040161292f565b60006040518083038186803b158015610b2557600080fd5b505af4158015610b39573d6000803e3d6000fd5b5050604051635c6309fb60e11b815286925073__Library_______________________________915063b8c613f690610b789084906004908101612b58565b60006040518083038186803b158015610b9057600080fd5b505af4158015610ba4573d6000803e3d6000fd5b5060009250829150610bb39050565b876001811115610bbf57fe5b1415610c2257506001600160a01b038981166000908152600760209081526040808320938b1683529281528282208b83528152918120600201805460018101825581835292822090920180546001600160a01b0319163317905589905254610c7b565b506001600160a01b038981166000908152600760209081526040808320938b1683529281528282208b83528152918120600301805460018101825581835292822090920180546001600160a01b03191633179055899052545b610c878160015461195f565b15610ea657600080610c988c61133c565b50905080604051602001610cac9190612853565b60405160208183030381529060405280519060200120604051602001610cd19061286f565b604051602081830303815290604052805190602001201415610cf5578b9150610cf9565b8b91505b6000896001811115610d0757fe5b1415610d74576040516369767eab60e01b81526001600160a01b038316906369767eab90610d3d908e908e908d90600401612910565b600060405180830381600087803b158015610d5757600080fd5b505af1158015610d6b573d6000803e3d6000fd5b50505050610dd7565b60405163039c2ae560e11b81526001600160a01b0383169063073855ca90610da4908e908e908d90600401612910565b600060405180830381600087803b158015610dbe57600080fd5b505af1158015610dd2573d6000803e3d6000fd5b505050505b6001600160a01b03808d166000908152600760209081526040808320938e1683529281528282208e83529052908120805460ff1916815590610e1c60018301826124f1565b610e2a600283016000612538565b610e38600383016000612538565b505060405163136ea6e160e21b815273__Library_______________________________90634dba9b8490610e73908b906004908101612b58565b60006040518083038186803b158015610e8b57600080fd5b505af4158015610e9f573d6000803e3d6000fd5b5050505050505b50505050505050505050565b60608060608315610f215784600201805480602002602001604051908101604052809291908181526020018280548015610f1557602002820191906000526020600020905b81546001600160a01b03168152600190910190602001808311610ef7575b50505050509050610f81565b84600301805480602002602001604051908101604052809291908181526020018280548015610f7957602002820191906000526020600020905b81546001600160a01b03168152600190910190602001808311610f5b575b505050505090505b600081516001600160401b0381118015610f9a57600080fd5b50604051908082528060200260200182016040528015610fce57816020015b6060815260200190600190039081610fb95790505b50905060005b825181101561101a57610ffa838281518110610fec57fe5b60200260200101518861197b565b5082828151811061100757fe5b6020908102919091010152600101610fd4565b50909590945092505050565b60035460405163123bd07560e11b8152600091839173__Library_______________________________90632477a0ea906110679085908590600401612b58565b60206040518083038186803b15801561107f57600080fd5b505af4158015611093573d6000803e3d6000fd5b505050506040513d601f19601f820116820180604052508101906110b791906127bb565b15156001146110d85760405162461bcd60e51b815260040161036d90612af7565b610472600385815481106110e857fe5b9060005260206000209060040201611aaa565b60035460405163123bd07560e11b815260609160009184919073__Library_______________________________90632477a0ea906111409085908590600401612b58565b60206040518083038186803b15801561115857600080fd5b505af415801561116c573d6000803e3d6000fd5b505050506040513d601f19601f8201168201806040525081019061119091906127bb565b15156001146111b15760405162461bcd60e51b815260040161036d90612af7565b6111d586600387815481106111c257fe5b906000526020600020906004020161197b565b9350935050509250929050565b60035460405163123bd07560e11b815283919073__Library_______________________________90632477a0ea906112219085908590600401612b58565b60206040518083038186803b15801561123957600080fd5b505af415801561124d573d6000803e3d6000fd5b505050506040513d601f19601f8201168201806040525081019061127191906127bb565b15156001146112925760405162461bcd60e51b815260040161036d90612af7565b8461129c3361024b565b1515600114806112b45750336001600160a01b038216145b6112d05760405162461bcd60e51b815260040161036d90612b14565b6112fa86600387815481106112e157fe5b9060005260206000209060040201600154600488611ab1565b61130a600386815481106107f557fe5b6108ed577f1f62d535f971041db7bd8760bf0f1f9f476461558744a35c0d477b5ad6893e89600286815481106108cb57fe5b606060006102c48360016110fb565b6060816001018054806020026020016040519081016040528092919081815260200182805480156113a557602002820191906000526020600020905b81546001600160a01b03168152600190910190602001808311611387575b50505050509050919050565b5190565b6001600160a01b0386166000908152602085815260408083208151608081018352815460ff1615158152600180830180548551600261010094831615949094026000190190911692909204601f8101879004870283018701909552848252919492938584019391929183018282801561146f5780601f106114445761010080835404028352916020019161146f565b820191906000526020600020905b81548152906001019060200180831161145257829003601f168201915b50505050508152602001600282018054806020026020016040519081016040528092919081815260200182805480156114d157602002820191906000526020600020905b81546001600160a01b031681526001909101906020018083116114b3575b505050505081526020016003820180548060200260200160405190810160405280929190818152602001828054801561153357602002820191906000526020600020905b81546001600160a01b03168152600190910190602001808311611515575b50505050508152505061154682826120c7565b6001600160a01b0388166000908152602087815260408083208151608081018352815460ff1615158152600180830180548551600261010094831615949094026000190190911692909204601f810187900487028301870190955284825291949293858401939192918301828280156116005780601f106115d557610100808354040283529160200191611600565b820191906000526020600020905b8154815290600101906020018083116115e357829003601f168201915b505050505081526020016002820180548060200260200160405190810160405280929190818152602001828054801561166257602002820191906000526020600020905b81546001600160a01b03168152600190910190602001808311611644575b50505050508152602001600382018054806020026020016040519081016040528092919081815260200182805480156116c457602002820191906000526020600020905b81546001600160a01b031681526001909101906020018083116116a6575b5050505050815250506116d78282612121565b84866116e38282612187565b6001600160a01b038c16600090815260208b90526040902060020154611762576001600160a01b038c16600090815260208b815260409091208c51611730926001909201918e0190612556565b5060028a018054600181018255600091825260209091200180546001600160a01b0319166001600160a01b038e161790555b6001600160a01b038c16600090815260208b815260408220600201805460018101825590835291200180546001600160a01b031916331790556117a587896121c4565b6001600160a01b038c16600090815260208b905260409020600201546117cb908a61195f565b156119515760018a60000160008e6001600160a01b03166001600160a01b0316815260200190815260200160002060000160006101000a81548160ff021916908315150217905550896001018c9080600181540180825580915050600190039060005260206000200160009091909190916101000a8154816001600160a01b0302191690836001600160a01b031602179055506119396119346118ca8e8d6002018054806020026020016040519081016040528092919081815260200182805480156118c057602002820191906000526020600020905b81546001600160a01b031681526001909101906020018083116118a2575b5050505050612210565b61192f8d60020180548060200260200160405190810160405280929190818152602001828054801561192557602002820191906000526020600020905b81546001600160a01b03168152600190910190602001808311611907575b5050505050612264565b6122fa565b6123ec565b805161194f9160028d01916020909101906125e2565b505b505050505050505050505050565b60008183101561197157506000611975565b5060015b92915050565b6001600160a01b0382166000908152602082815260408083208151608081018352815460ff1615158152600180830180548551600261010094831615949094026000190190911692909204601f8101879004870283018701909552848252606096959094611a12949284830192909187918301828280156106055780601f106105da57610100808354040283529160200191610605565b8154604080516020601f60026000196101006001881615020190951694909404938401819004810282018101909252828152918491830182828015611a985780601f10611a6d57610100808354040283529160200191611a98565b820191906000526020600020905b815481529060010190602001808311611a7b57829003601f168201915b50505050509150915091509250929050565b6001015490565b6001600160a01b038516600090815260208581526040918290208251608081018452815460ff1615158152600180830180548651600261010083861615026000190190921691909104601f8101879004870282018701909752868152919592948581019390830182828015611b675780601f10611b3c57610100808354040283529160200191611b67565b820191906000526020600020905b815481529060010190602001808311611b4a57829003601f168201915b5050505050815260200160028201805480602002602001604051908101604052809291908181526020018280548015611bc957602002820191906000526020600020905b81546001600160a01b03168152600190910190602001808311611bab575b5050505050815260200160038201805480602002602001604051908101604052809291908181526020018280548015611c2b57602002820191906000526020600020905b81546001600160a01b03168152600190910190602001808311611c0d575b505050505081525050611c3e82826120c7565b6001600160a01b038716600090815260208781526040918290208251608081018452815460ff1615158152600180830180548651600261010083861615026000190190921691909104601f8101879004870282018701909752868152919592948581019390830182828015611cf45780601f10611cc957610100808354040283529160200191611cf4565b820191906000526020600020905b815481529060010190602001808311611cd757829003601f168201915b5050505050815260200160028201805480602002602001604051908101604052809291908181526020018280548015611d5657602002820191906000526020600020905b81546001600160a01b03168152600190910190602001808311611d38575b5050505050815260200160038201805480602002602001604051908101604052809291908181526020018280548015611db857602002820191906000526020600020905b81546001600160a01b03168152600190910190602001808311611d9a575b505050505081525050611dcb8282612121565b8486611dd78282612187565b6001600160a01b038b16600090815260208b90526040902060030154611e285760038a018054600181018255600091825260209091200180546001600160a01b0319166001600160a01b038d161790555b6001600160a01b038b16600090815260208b815260408220600301805460018101825590835291200180546001600160a01b03191633179055611e6b87896121c4565b336001600160a01b038c161480611ea357506001600160a01b038b16600090815260208b90526040902060030154611ea3908a61195f565b156120ba57611f75611934611f128d8d6001018054806020026020016040519081016040528092919081815260200182805480156118c0576020028201919060005260206000209081546001600160a01b031681526001909101906020018083116118a2575050505050612210565b61192f8d600101805480602002602001604051908101604052809291908181526020018280548015611925576020028201919060005260206000209081546001600160a01b03168152600190910190602001808311611907575050505050612264565b8051611f8b9160018d01916020909101906125e2565b50612059611934611ff68d8d6003018054806020026020016040519081016040528092919081815260200182805480156118c0576020028201919060005260206000209081546001600160a01b031681526001909101906020018083116118a2575050505050612210565b61192f8d600301805480602002602001604051908101604052809291908181526020018280548015611925576020028201919060005260206000209081546001600160a01b03168152600190910190602001808311611907575050505050612264565b805161206f9160038d01916020909101906125e2565b506001600160a01b038b16600090815260208b905260408120805460ff191681559061209e60018301826124f1565b6120ac600283016000612538565b61194f600383016000612538565b5050505050505050505050565b816120f7576120d5816113b1565b156120f25760405162461bcd60e51b815260040161036d90612b32565b6102f5565b612100816113b1565b15156001146102f55760405162461bcd60e51b815260040161036d90612a64565b81600181111561212d57fe5b61215c5761213f338260400151612488565b156120f25760405162461bcd60e51b815260040161036d90612a9f565b61216a338260600151612488565b156102f55760405162461bcd60e51b815260040161036d90612a9f565b336000908152600182016020908152604080832085845290915290205460ff16156102f55760405162461bcd60e51b815260040161036d90612abc565b3360008181526001838101602090815260408084208785528252808420805460ff19169093179092559282529183905220548211156102f5573360009081526020919091526040902055565b6000805b82518110156122595782818151811061222957fe5b60200260200101516001600160a01b0316846001600160a01b03161415612251579050611975565b600101612214565b505051600101919050565b6060600082516001600160401b038111801561227f57600080fd5b506040519080825280602002602001820160405280156122a9578160200160208202803683370190505b50905060005b83518110156122f3576122d48482815181106122c757fe5b60200260200101516124de565b8282815181106122e057fe5b60209081029190910101526001016122af565b5092915050565b606082825161230982826124ea565b151560011461232a5760405162461bcd60e51b815260040161036d90612af7565b600060018551036001600160401b038111801561234657600080fd5b50604051908082528060200260200182016040528015612370578160200160208202803683370190505b5090508460018651038151811061238357fe5b602002602001015185878151811061239757fe5b60200260200101818152505060005b81518110156123e2578581815181106123bb57fe5b60200260200101518282815181106123cf57fe5b60209081029190910101526001016123a6565b5095945050505050565b6060600082516001600160401b038111801561240757600080fd5b50604051908082528060200260200182016040528015612431578160200160208202803683370190505b50905060005b83518110156122f35761245c84828151811061244f57fe5b60200260200101516124ee565b82828151811061246857fe5b6001600160a01b0390921660209283029190910190910152600101612437565b6000805b82518110156124d4578281815181106124a157fe5b60200260200101516001600160a01b0316846001600160a01b031614156124cc576001915050611975565b60010161248c565b5060009392505050565b6001600160a01b031690565b1190565b90565b50805460018160011615610100020316600290046000825580601f106125175750612535565b601f0160209004906000526020600020908101906125359190612637565b50565b50805460008255906000526020600020908101906125359190612637565b828054600181600116156101000203166002900490600052602060002090601f01602090048101928261258c57600085556125d2565b82601f106125a557805160ff19168380011785556125d2565b828001600101855582156125d2579182015b828111156125d25782518255916020019190600101906125b7565b506125de929150612637565b5090565b8280548282559060005260206000209081019282156125d2579160200282015b828111156125d257825182546001600160a01b0319166001600160a01b03909116178255602090920191600190910190612602565b5b808211156125de5760008155600101612638565b80356001600160a01b038116811461025c57600080fd5b600060208284031215612674578081fd5b61267d8261264c565b9392505050565b60008060008060808587031215612699578283fd5b6126a28561264c565b9350602085013592506126b76040860161264c565b9396929550929360600135925050565b6000806000606084860312156126db578283fd5b6126e48461264c565b92506020848101356001600160401b0380821115612700578485fd5b818701915087601f830112612713578485fd5b81358181111561271f57fe5b604051601f8201601f191681018501838111828210171561273c57fe5b60405281815283820185018a1015612752578687fd5b81858501868301379081019093019490945250929592945050506040919091013590565b60008060408385031215612788578182fd5b6127918361264c565b946020939093013593505050565b6000602082840312156127b0578081fd5b813561267d81612b9e565b6000602082840312156127cc578081fd5b815161267d81612b9e565b6001600160a01b03169052565b6000815180845260208085019450808401835b8381101561281c5781516001600160a01b0316875295820195908201906001016127f7565b509495945050505050565b6000815180845261283f816020860160208601612b72565b601f01601f19169290920160200192915050565b60008251612865818460208701612b72565b9190910192915050565b665072697661746560c81b815260070190565b60006020825261267d60208301846127e4565b6000604082526128a860408301856127e4565b602083820381850152818551808452828401915082838202850101838801865b838110156128f657601f198784030185526128e4838351612827565b948601949250908501906001016128c8565b50909998505050505050505050565b901515815260200190565b9283526001600160a01b03919091166020830152604082015260600190565b60006002841061293b57fe5b8382526040602083015282511515604083015260208301516080606084015261296760c0840182612827565b90506040840151603f198085840301608086015261298583836127e4565b925060608601519150808584030160a0860152506129a382826127e4565b9695505050505050565b6000604082526129c06040830185612827565b905082151560208301529392505050565b600060408201604083528185546001808216600081146129f85760018114612a1657612a4f565b60028304607f16855260ff1983166060880152608087019350612a4f565b60028304808652612a268a612b66565b875b82811015612a455781548a82016060015290840190602001612a28565b8901606001955050505b505050809250505061267d60208301846127d7565b60208082526003908201526245433760e81b604082015260600190565b6020808252600490820152634543313960e01b604082015260600190565b60208082526003908201526245433560e81b604082015260600190565b6020808252600490820152630454332360e41b604082015260600190565b60208082526003908201526245433960e81b604082015260600190565b60208082526003908201526245433160e81b604082015260600190565b6020808252600490820152630454331360e41b604082015260600190565b60208082526003908201526222a19b60e91b604082015260600190565b90815260200190565b918252602082015260400190565b60009081526020902090565b60005b83811015612b8d578181015183820152602001612b75565b838111156102825750506000910152565b801515811461253557600080fdfea2646970667358221220752a51fc216673a8b093260fb124b1d6660980a63f0d3178f01044d1fdc0c55064736f6c63430007060033",
  "immutableReferences": {},
  "source": "// SPDX-License-Identifier: GPL-3.0\r\n\r\npragma solidity >=0.7.0 <0.9.0;\r\npragma experimental ABIEncoderV2;\r\n\r\n/**\r\n * @title Storage\r\n * @dev Store & retrieve value in a variable\r\n */\r\n import \"./Libraries/Library.sol\";\r\n import \"./Interfaces/IProvider.sol\";\r\n import \"./Abstract/MultiSigContract.sol\";\r\n import \"./PrivateCertificatesPool.sol\";\r\n import \"./PublicCertificatesPool.sol\";\r\n\r\n\r\n contract Provider is IProvider, MultiSigContract {\r\n    using Library for *;\r\n\r\n    uint256 constant TotalEntities = 2;\r\n\r\n    // Owners\r\n    uint256 constant _ownerIdProviders = 0;\r\n    string constant _ownerLabel = \"Owner\";\r\n\r\n    // Pools\r\n    uint256 constant _poolId = 1;\r\n    string constant _poolLabel = \"Pool\";\r\n\r\n    string[] _Label = [_ownerLabel, _poolLabel];\r\n    \r\n    struct _CertificateStruct{\r\n        mapping(bytes32 => Library._entityIdentity) _cert;\r\n    }\r\n    \r\n    struct _CertificatesPerHolderStruct{\r\n        mapping(address => _CertificateStruct) _CertificatesPerHolder;\r\n    }\r\n   \r\n    mapping(address => _CertificatesPerHolderStruct) _CertificatesPerPool;\r\n\r\n    // modifiers\r\n    modifier isAPool(address pool){\r\n        require(true == isPool(pool));\r\n        _;\r\n    }\r\n    \r\n    modifier isEntityActivated(bool YesOrNo, Library._entityIdentity memory Entity){\r\n        Library.EntityActivated(YesOrNo, Entity);\r\n        _;\r\n    }\r\n    \r\n    modifier HasNotAlreadyVoted(Library.Actions action, Library._entityIdentity memory Entity){\r\n        Library.NotAlreadyVoted(action, Entity);\r\n        _;\r\n    }\r\n\r\n     // Constructor\r\n    constructor(address[] memory owners,  uint256 minOwners) \r\n        MultiSigContract(owners, minOwners, TotalEntities, _Label, _ownerIdProviders)\r\n    payable\r\n    {}\r\n\r\n    // POOL CRUD Operations\r\n    function addPool(address pool, string memory poolInfo, uint nonce) external override{\r\n        addEntity(pool, poolInfo, _poolId, nonce);\r\n    }\r\n\r\n    function removePool(address pool, uint nonce) external override{\r\n       removeEntity(pool, _poolId, nonce); \r\n    }\r\n    \r\n    function retrievePool(address pool) external override view returns (string memory, bool){\r\n        return InternalRetrievePool(pool);\r\n    }\r\n    \r\n    function InternalRetrievePool(address pool) internal view returns (string memory, bool){\r\n        return (retrieveEntity(pool, _poolId));\r\n    }\r\n\r\n    function retrieveAllPools() external override view returns (address[] memory){\r\n        return(retrieveAllEntities(_poolId));\r\n    }\r\n    \r\n    function retrieveTotalPools() external override view returns (uint){\r\n        return (retrieveTotalEntities(_poolId));\r\n    }\r\n\r\n    function isPool(address pool) public view returns (bool){\r\n        return(isEntity(pool, _poolId));\r\n    }\r\n    \r\n    // Certificates management\r\n     function addCertificate(address pool, bytes32 CertificateHash, address holder, uint nonce) external override\r\n     {\r\n        manipulateCertificate(pool, CertificateHash, holder, Library.Actions.Add, nonce);\r\n     }\r\n     \r\n     function removeCertificate(address pool, bytes32 CertificateHash, address holder, uint nonce) external override\r\n     {\r\n         manipulateCertificate(pool, CertificateHash, holder, Library.Actions.Remove, nonce);\r\n     }\r\n\r\n    \r\n    function manipulateCertificate(address pool, bytes32 CertificateHash, address holder, Library.Actions act, uint nonce) \r\n        isAPool(pool)\r\n        isAnOwner\r\n        HasNotAlreadyVoted(act, _CertificatesPerPool[pool]._CertificatesPerHolder[holder]._cert[CertificateHash])\r\n        isNonceOK(nonce)\r\n    internal{\r\n        \r\n        uint validations;\r\n        \r\n        if(act == Library.Actions.Add){\r\n            _CertificatesPerPool[pool]._CertificatesPerHolder[holder]._cert[CertificateHash]._AddValidated.push(msg.sender);\r\n            validations = _CertificatesPerPool[pool]._CertificatesPerHolder[holder]._cert[CertificateHash]._AddValidated.length;\r\n        }\r\n        else{\r\n            _CertificatesPerPool[pool]._CertificatesPerHolder[holder]._cert[CertificateHash]._RemoveValidated.push(msg.sender);\r\n            validations = _CertificatesPerPool[pool]._CertificatesPerHolder[holder]._cert[CertificateHash]._RemoveValidated.length;\r\n        }\r\n\r\n        if(Library.CheckValidations(validations, _minOwners)){\r\n            MultiSigCertificatesPool poolToSend;\r\n            (string memory p ,) = InternalRetrievePool(pool);\r\n            \r\n            if(keccak256(abi.encodePacked(\"Private\")) == keccak256(abi.encodePacked((p)))){\r\n                poolToSend = PrivateCertificatesPool(pool);\r\n            }\r\n            else {\r\n                poolToSend = PublicCertificatesPool(pool);\r\n            }\r\n            \r\n            \r\n            if(act == Library.Actions.Add){\r\n                poolToSend.addCertificate(CertificateHash, holder, nonce);\r\n            }\r\n            else{\r\n               poolToSend.removeCertificate(CertificateHash, holder, nonce);\r\n            }\r\n            \r\n            delete(_CertificatesPerPool[pool]._CertificatesPerHolder[holder]._cert[CertificateHash]);\r\n\r\n            Library.AddNonce(nonce, _Nonces);\r\n            \r\n        }\r\n    }\r\n    \r\n }",
  "sourcePath": "C:/Users/d-aam/GitHub/Certificates/contracts/Provider.sol",
  "compiler": {
    "name": "solc",
    "version": "0.7.6+commit.7338295f.Emscripten.clang"
  },
  "schemaVersion": "3.3.4",
  "updatedAt": "2021-07-14T12:41:28.202Z",
  "networkType": "ethereum",
  "devdoc": {
    "kind": "dev",
    "methods": {},
    "version": 1
  },
  "userdoc": {
    "kind": "user",
    "methods": {},
    "version": 1
  }
}