{
  "contractName": "PublicCertificatesPool",
  "abi": [
    {
      "inputs": [
        {
          "internalType": "address[]",
          "name": "owners",
          "type": "address[]"
        },
        {
          "internalType": "uint256",
          "name": "minOwners",
          "type": "uint256"
        }
      ],
      "stateMutability": "payable",
      "type": "constructor"
    },
    {
      "anonymous": false,
      "inputs": [
        {
          "indexed": false,
          "internalType": "address",
          "name": "",
          "type": "address"
        },
        {
          "indexed": false,
          "internalType": "address",
          "name": "",
          "type": "address"
        }
      ],
      "name": "_AddCertificateIdEvent",
      "type": "event"
    },
    {
      "anonymous": false,
      "inputs": [
        {
          "indexed": false,
          "internalType": "string",
          "name": "",
          "type": "string"
        },
        {
          "indexed": false,
          "internalType": "address",
          "name": "",
          "type": "address"
        }
      ],
      "name": "_AddEntityValidationIdEvent",
      "type": "event"
    },
    {
      "anonymous": false,
      "inputs": [
        {
          "indexed": false,
          "internalType": "address",
          "name": "",
          "type": "address"
        },
        {
          "indexed": false,
          "internalType": "address",
          "name": "",
          "type": "address"
        }
      ],
      "name": "_RemoveCertificateIdEvent",
      "type": "event"
    },
    {
      "anonymous": false,
      "inputs": [
        {
          "indexed": false,
          "internalType": "string",
          "name": "",
          "type": "string"
        },
        {
          "indexed": false,
          "internalType": "address",
          "name": "",
          "type": "address"
        }
      ],
      "name": "_RemoveEntityValidationIdEvent",
      "type": "event"
    },
    {
      "inputs": [
        {
          "internalType": "bytes32",
          "name": "CertificateHash",
          "type": "bytes32"
        },
        {
          "internalType": "address",
          "name": "holder",
          "type": "address"
        }
      ],
      "name": "addCertificate",
      "outputs": [],
      "stateMutability": "nonpayable",
      "type": "function"
    },
    {
      "inputs": [
        {
          "internalType": "address",
          "name": "owner",
          "type": "address"
        },
        {
          "internalType": "string",
          "name": "ownerInfo",
          "type": "string"
        }
      ],
      "name": "addOwner",
      "outputs": [],
      "stateMutability": "nonpayable",
      "type": "function"
    },
    {
      "inputs": [
        {
          "internalType": "address",
          "name": "owner",
          "type": "address"
        }
      ],
      "name": "isOwner",
      "outputs": [
        {
          "internalType": "bool",
          "name": "",
          "type": "bool"
        }
      ],
      "stateMutability": "view",
      "type": "function"
    },
    {
      "inputs": [
        {
          "internalType": "address",
          "name": "provider",
          "type": "address"
        }
      ],
      "name": "isProvider",
      "outputs": [
        {
          "internalType": "bool",
          "name": "",
          "type": "bool"
        }
      ],
      "stateMutability": "view",
      "type": "function"
    },
    {
      "inputs": [
        {
          "internalType": "bytes32",
          "name": "CertificateHash",
          "type": "bytes32"
        },
        {
          "internalType": "address",
          "name": "holder",
          "type": "address"
        }
      ],
      "name": "removeCertificate",
      "outputs": [],
      "stateMutability": "nonpayable",
      "type": "function"
    },
    {
      "inputs": [
        {
          "internalType": "address",
          "name": "owner",
          "type": "address"
        }
      ],
      "name": "removeOwner",
      "outputs": [],
      "stateMutability": "nonpayable",
      "type": "function"
    },
    {
      "inputs": [],
      "name": "retrieveAllOwners",
      "outputs": [
        {
          "internalType": "address[]",
          "name": "",
          "type": "address[]"
        }
      ],
      "stateMutability": "view",
      "type": "function"
    },
    {
      "inputs": [],
      "name": "retrieveAllProviders",
      "outputs": [
        {
          "internalType": "address[]",
          "name": "",
          "type": "address[]"
        }
      ],
      "stateMutability": "view",
      "type": "function"
    },
    {
      "inputs": [
        {
          "internalType": "bytes32",
          "name": "CertificateHash",
          "type": "bytes32"
        },
        {
          "internalType": "address",
          "name": "holder",
          "type": "address"
        }
      ],
      "name": "retrieveCertificateProvider",
      "outputs": [
        {
          "internalType": "address",
          "name": "",
          "type": "address"
        }
      ],
      "stateMutability": "view",
      "type": "function"
    },
    {
      "inputs": [
        {
          "internalType": "address",
          "name": "holder",
          "type": "address"
        },
        {
          "internalType": "uint256",
          "name": "skipFirst",
          "type": "uint256"
        },
        {
          "internalType": "uint256",
          "name": "max",
          "type": "uint256"
        }
      ],
      "name": "retrieveCertificatesByHolder",
      "outputs": [
        {
          "internalType": "bytes32[]",
          "name": "",
          "type": "bytes32[]"
        }
      ],
      "stateMutability": "view",
      "type": "function"
    },
    {
      "inputs": [],
      "name": "retrieveMinOwners",
      "outputs": [
        {
          "internalType": "uint256",
          "name": "",
          "type": "uint256"
        }
      ],
      "stateMutability": "view",
      "type": "function"
    },
    {
      "inputs": [
        {
          "internalType": "address",
          "name": "owner",
          "type": "address"
        }
      ],
      "name": "retrieveOwner",
      "outputs": [
        {
          "internalType": "string",
          "name": "",
          "type": "string"
        },
        {
          "internalType": "bool",
          "name": "",
          "type": "bool"
        }
      ],
      "stateMutability": "view",
      "type": "function"
    },
    {
      "inputs": [
        {
          "internalType": "bool",
          "name": "addedORremove",
          "type": "bool"
        }
      ],
      "name": "retrievePendingOwners",
      "outputs": [
        {
          "internalType": "address[]",
          "name": "",
          "type": "address[]"
        },
        {
          "internalType": "string[]",
          "name": "",
          "type": "string[]"
        }
      ],
      "stateMutability": "view",
      "type": "function"
    },
    {
      "inputs": [
        {
          "internalType": "bool",
          "name": "addedORremove",
          "type": "bool"
        }
      ],
      "name": "retrievePendingProviders",
      "outputs": [
        {
          "internalType": "address[]",
          "name": "",
          "type": "address[]"
        },
        {
          "internalType": "string[]",
          "name": "",
          "type": "string[]"
        }
      ],
      "stateMutability": "view",
      "type": "function"
    },
    {
      "inputs": [
        {
          "internalType": "address",
          "name": "provider",
          "type": "address"
        }
      ],
      "name": "retrieveProvider",
      "outputs": [
        {
          "internalType": "string",
          "name": "",
          "type": "string"
        },
        {
          "internalType": "bool",
          "name": "",
          "type": "bool"
        }
      ],
      "stateMutability": "view",
      "type": "function"
    },
    {
      "inputs": [
        {
          "internalType": "address",
          "name": "holder",
          "type": "address"
        }
      ],
      "name": "retrieveTotalCertificatesByHolder",
      "outputs": [
        {
          "internalType": "uint256",
          "name": "",
          "type": "uint256"
        }
      ],
      "stateMutability": "view",
      "type": "function"
    },
    {
      "inputs": [],
      "name": "retrieveTotalOwners",
      "outputs": [
        {
          "internalType": "uint256",
          "name": "",
          "type": "uint256"
        }
      ],
      "stateMutability": "view",
      "type": "function"
    },
    {
      "inputs": [],
      "name": "retrieveTotalProviders",
      "outputs": [
        {
          "internalType": "uint256",
          "name": "",
          "type": "uint256"
        }
      ],
      "stateMutability": "view",
      "type": "function"
    },
    {
      "inputs": [
        {
          "internalType": "address",
          "name": "provider",
          "type": "address"
        },
        {
          "internalType": "string",
          "name": "providerInfo",
          "type": "string"
        }
      ],
      "name": "addProvider",
      "outputs": [],
      "stateMutability": "nonpayable",
      "type": "function"
    },
    {
      "inputs": [
        {
          "internalType": "address",
          "name": "provider",
          "type": "address"
        }
      ],
      "name": "validateProvider",
      "outputs": [],
      "stateMutability": "nonpayable",
      "type": "function"
    },
    {
      "inputs": [
        {
          "internalType": "address",
          "name": "provider",
          "type": "address"
        }
      ],
      "name": "removeProvider",
      "outputs": [],
      "stateMutability": "nonpayable",
      "type": "function"
    },
    {
      "inputs": [
        {
          "internalType": "address",
          "name": "TreasuryAddress",
          "type": "address"
        }
      ],
      "name": "addTreasury",
      "outputs": [],
      "stateMutability": "nonpayable",
      "type": "function"
    }
  ],
  "bytecode": "0x600560c09081526427bbb732b960d91b60e0526080908152610140604052600861010090815267283937bb34b232b960c11b6101205260a0526200004890600490600262000346565b50604051620035cc380380620035cc8339810160408190526200006b91620004db565b8181818160026004805480602002602001604051908101604052809291908181526020016000905b82821015620001445760008481526020908190208301805460408051601f60026000196101006001871615020190941693909304928301859004850281018501909152818152928301828280156200012f5780601f1062000103576101008083540402835291602001916200012f565b820191906000526020600020905b8154815290600101906020018083116200011157829003601f168201915b50505050508152602001906001019062000093565b5050505060008451841115620001775760405162461bcd60e51b81526004016200016e90620005a1565b60405180910390fd5b600084116200019a5760405162461bcd60e51b81526004016200016e90620005bf565b81518314620001bd5760405162461bcd60e51b81526004016200016e90620005dd565b60008181555b8381101562000228576003805460010181556000528251600290849083908110620001ea57fe5b602090810291909101810151825460018101845560009384529282902081516200021e9491909101929190910190620003aa565b50600101620001c3565b50600184905560005b8551811015620003235760016003600054815481106200024d57fe5b906000526020600020906004020160000160008884815181106200026d57fe5b60200260200101516001600160a01b03166001600160a01b0316815260200190815260200160002060000160006101000a81548160ff021916908315150217905550600360005481548110620002bf57fe5b9060005260206000209060040201600101868281518110620002dd57fe5b60209081029190910181015182546001808201855560009485529290932090920180546001600160a01b0319166001600160a01b03909316929092179091550162000231565b5050600680546001600160a01b0319163317905550620005fb9650505050505050565b82805482825590600052602060002090810192821562000398579160200282015b8281111562000398578251805162000387918491602090910190620003aa565b509160200191906001019062000367565b50620003a69291506200043b565b5090565b828054600181600116156101000203166002900490600052602060002090601f016020900481019282620003e257600085556200042d565b82601f10620003fd57805160ff19168380011785556200042d565b828001600101855582156200042d579182015b828111156200042d57825182559160200191906001019062000410565b50620003a69291506200045c565b80821115620003a657600062000452828262000473565b506001016200043b565b5b80821115620003a657600081556001016200045d565b50805460018160011615610100020316600290046000825580601f106200049b5750620004bb565b601f016020900490600052602060002090810190620004bb91906200045c565b50565b80516001600160a01b0381168114620004d657600080fd5b919050565b60008060408385031215620004ee578182fd5b82516001600160401b038082111562000505578384fd5b818501915085601f83011262000519578384fd5b81516020828211156200052857fe5b808202604051828282010181811086821117156200054257fe5b604052838152828101945085830182870184018b101562000561578889fd5b8896505b848710156200058e576200057981620004be565b86526001969096019594830194830162000565565b5097909101519698969750505050505050565b60208082526004908201526322a1989b60e11b604082015260600190565b6020808252600490820152634543313760e01b604082015260600190565b60208082526004908201526308a8662760e31b604082015260600190565b612fc1806200060b6000396000f3fe608060405234801561001057600080fd5b50600436106101125760003560e01c8063173825d9146101175780631ab807f81461012c57806327a40b4b1461013f5780632f54bf6e146101525780633542758f1461017b578063375834991461018e57806358a1ba25146101af57806365b973e5146101cf5780636b074a07146101e45780636b299604146101f75780636b3a0fec146102185780636e4f91791461022b5780636e55d2d41461024057806377bc5a1f146102535780638a355a5714610266578063a73db28a14610279578063a93d5ed61461028c578063c8cb383414610294578063d0a4adfe146102a7578063d744d2f3146102c7578063eefe7681146102cf578063fc000500146102d7575b600080fd5b61012a610125366004612916565b6102ea565b005b61012a61013a366004612ad3565b610335565b61012a61014d366004612916565b610435565b610165610160366004612916565b61066b565b6040516101729190612ca7565b60405180910390f35b61012a610189366004612930565b610681565b6101a161019c366004612916565b610692565b604051610172929190612cb2565b6101c26101bd3660046129c9565b6106aa565b6040516101729190612c63565b6101d761081a565b6040516101729190612ee7565b6101656101f2366004612916565b610820565b61020a610205366004612a9b565b61082d565b604051610172929190612bf3565b61020a610226366004612a9b565b610856565b61023361086a565b6040516101729190612be0565b6101d761024e366004612916565b61087b565b6101a1610261366004612916565b610899565b61012a610274366004612916565b6108a9565b61012a610287366004612ad3565b610a88565b610233610d14565b61012a6102a2366004612916565b610d21565b6102ba6102b5366004612ad3565b610d6f565b6040516101729190612b99565b6101d7610d9c565b6101d7610da8565b61012a6102e5366004612930565b610db5565b60015460016102fa600054610e91565b03808211156103245760405162461bcd60e51b815260040161031b90612da3565b60405180910390fd5b61033083600054610f6e565b505050565b61033e33610820565b151560011461035f5760405162461bcd60e51b815260040161031b90612e37565b816001600160a01b0380831660009081526005602090815260408083208784529091529020548391859116156103a75760405162461bcd60e51b815260040161031b90612e19565b6001600160a01b038416600090815260056020818152604080842089855280835281852080546001600160a01b031916339081179091559383526001908101805491820181558552919093200187905590517f601cb9a073dbfa468ef12878ee6c720641a49b76af7c16099e8c0a1ac3ca79b591610426918790612bad565b60405180910390a15050505050565b6001816001600160a01b03811660009081526007602052604090205460ff1615156001146104755760405162461bcd60e51b815260040161031b90612d86565b61054083600360018154811061048757fe5b600091825260208083206001600160a01b03891684526004929092029091018152604091829020600190810180548451600293821615610100026000190190911692909204601f8101849004840283018401909452838252909290918301828280156105345780601f1061050957610100808354040283529160200191610534565b820191906000526020600020905b81548152906001019060200180831161051757829003601f168201915b5050505050600161117c565b61054983610820565b151560011415610330576000600360018154811061056357fe5b600091825260208083206001600160a01b038816845260049092029091019052604081206002015491505b8181101561066457600854600380546001600160a01b039092169163eb1e2a41919060019081106105bb57fe5b600091825260208083206001600160a01b038b16845260049092029091019052604090206002018054849081106105ee57fe5b6000918252602090912001546040516001600160e01b031960e084901b168152610626916001600160a01b0316908690600401612bc7565b600060405180830381600087803b15801561064057600080fd5b505af1158015610654573d6000803e3d6000fd5b50506001909201915061058e9050565b5050505050565b6000610679826000546112c6565b90505b919050565b61068e828260005461117c565b5050565b606060006106a1836001611391565b91509150915091565b6060826106b68561087b565b116106d05750604080516000815260208101909152610813565b8180846106dc8761087b565b0310156106f157836106ed8661087b565b0390505b6000816001600160401b038111801561070957600080fd5b50604051908082528060200260200182016040528015610733578160200160208202803683370190505b506001600160a01b03871660009081526005602090815260408083206001018054825181850281018501909352808352949550929390929183018282801561079a57602002820191906000526020600020905b815481526020019060010190808311610786575b5050505050905060008060005b835181101561080a578783106107bc5761080a565b818911156107cf57600182019150610802565b8381815181106107db57fe5b60200260200101518584815181106107ef57fe5b6020026020010181815250506001830192505b6001016107a7565b50929450505050505b9392505050565b60015490565b60006106798260016112c6565b6060806106a160036000548154811061084257fe5b906000526020600020906004020184611478565b6060806106a1600360018154811061084257fe5b606061087660016115ec565b905090565b6001600160a01b031660009081526005602052604090206001015490565b606060006106a183600054611391565b6108b4816001610f6e565b610a6060036001815481106108c557fe5b600091825260208083206001600160a01b0386168452600490920290910181526040918290208251608081018452815460ff1615158152600180830180548651601f60026000199584161561010002959095019092169390930490810186900486028301860190965285825291949293858101939192919083018282801561098e5780601f106109635761010080835404028352916020019161098e565b820191906000526020600020905b81548152906001019060200180831161097157829003601f168201915b50505050508152602001600282018054806020026020016040519081016040528092919081815260200182805480156109f057602002820191906000526020600020905b81546001600160a01b031681526001909101906020018083116109d2575b5050505050815260200160038201805480602002602001604051908101604052809291908181526020018280548015610a5257602002820191906000526020600020905b81546001600160a01b03168152600190910190602001808311610a34575b5050505050815250506116c1565b610a85576001600160a01b0381166000908152600760205260409020805460ff191690555b50565b610a9133610820565b1515600114610ab25760405162461bcd60e51b815260040161031b90612e37565b6001600160a01b0381811660009081526005602090815260408083208684529091529020548291849116331480610af15750336001600160a01b038316145b610b0d5760405162461bcd60e51b815260040161031b90612dde565b6001600160a01b0380841660008181526005602081815260408084208a855280835281852054958552928252600190920180548351818402810184019094528084529490951694929391929190830182828015610b8957602002820191906000526020600020905b815481526020019060010190808311610b75575b5050505050905060005b8151811015610ca057818181518110610ba857fe5b6020026020010151871415610c98576001600160a01b038616600090815260056020526040908190209051635b28cf6360e01b815273__Library_______________________________91635b28cf6391610c0d918591600190910190600401612ef0565b60006040518083038186803b158015610c2557600080fd5b505af4158015610c39573d6000803e3d6000fd5b505050506040513d6000823e601f3d908101601f19168201604052610c6191908101906129fb565b6001600160a01b03871660009081526005602090815260409091208251610c92936001909201929190910190612771565b50610ca0565b600101610b93565b506001600160a01b03851660009081526005602090815260408083208984529091529081902080546001600160a01b0319169055517fd12847594abf0621035046f61129f2a9dc5093eb516c6c517ece306362ef6f1790610d049084908890612bad565b60405180910390a1505050505050565b60606108766000546115ec565b6006546001600160a01b0316338114610d4c5760405162461bcd60e51b815260040161031b90612e8f565b50600880546001600160a01b0319166001600160a01b0392909216919091179055565b6001600160a01b038082166000908152600560209081526040808320868452909152902054165b92915050565b60006108766001610e91565b6000610876600054610e91565b6006546001600160a01b0316338114610de05760405162461bcd60e51b815260040161031b90612e8f565b6000836001600160a01b03811660009081526007602052604090205460ff1615610e1c5760405162461bcd60e51b815260040161031b90612dfc565b836003600181548110610e2b57fe5b600091825260208083206001600160a01b038a1684526004909202909101815260409091208251610e669360019092019291909101906127bc565b5050506001600160a01b039092166000908152600760205260409020805460ff191660011790555050565b60035460405163123bd07560e11b8152600091839173__Library_______________________________90632477a0ea90610ed29085908590600401612f40565b60206040518083038186803b158015610eea57600080fd5b505af4158015610efe573d6000803e3d6000fd5b505050506040513d601f19601f82011682018060405250810190610f229190612ab7565b1515600114610f435760405162461bcd60e51b815260040161031b90612e72565b610f6660038581548110610f5357fe5b90600052602060002090600402016116c5565b949350505050565b60035460405163123bd07560e11b815282919073__Library_______________________________90632477a0ea90610fad9085908590600401612f40565b60206040518083038186803b158015610fc557600080fd5b505af4158015610fd9573d6000803e3d6000fd5b505050506040513d601f19601f82011682018060405250810190610ffd9190612ab7565b151560011461101e5760405162461bcd60e51b815260040161031b90612e72565b836110283361066b565b1515600114806110405750336001600160a01b038216145b61105c5760405162461bcd60e51b815260040161031b90612eac565b611083856003868154811061106d57fe5b90600052602060002090600402016001546116cc565b6111316003858154811061109357fe5b600091825260208083206001600160a01b038a168452600490920290910181526040918290208251608081018452815460ff1615158152600180830180548651601f60026000199584161561010002959095019092169390930490810186900486028301860190965285825291949293858101939192919083018282801561098e5780601f106109635761010080835404028352916020019161098e565b610664577f1f62d535f971041db7bd8760bf0f1f9f476461558744a35c0d477b5ad6893e896002858154811061116357fe5b9060005260206000200186604051610426929190612cd6565b60035460405163123bd07560e11b815282919073__Library_______________________________90632477a0ea906111bb9085908590600401612f40565b60206040518083038186803b1580156111d357600080fd5b505af41580156111e7573d6000803e3d6000fd5b505050506040513d601f19601f8201168201806040525081019061120b9190612ab7565b151560011461122c5760405162461bcd60e51b815260040161031b90612e72565b6112353361066b565b15156001146112565760405162461bcd60e51b815260040161031b90612e55565b61127e85856003868154811061126857fe5b9060005260206000209060040201600154611cbb565b61128e6003848154811061109357fe5b151560011415610664577f3c139d46a211844e248647688545a37c07c505c999c1232d1247c707dc0a91e26002848154811061116357fe5b60035460405163123bd07560e11b8152600091839173__Library_______________________________90632477a0ea906113079085908590600401612f40565b60206040518083038186803b15801561131f57600080fd5b505af4158015611333573d6000803e3d6000fd5b505050506040513d601f19601f820116820180604052508101906113579190612ab7565b15156001146113785760405162461bcd60e51b815260040161031b90612e72565b6113886003858154811061109357fe5b95945050505050565b60035460405163123bd07560e11b815260609160009184919073__Library_______________________________90632477a0ea906113d69085908590600401612f40565b60206040518083038186803b1580156113ee57600080fd5b505af4158015611402573d6000803e3d6000fd5b505050506040513d601f19601f820116820180604052508101906114269190612ab7565b15156001146114475760405162461bcd60e51b815260040161031b90612e72565b61146b866003878154811061145857fe5b90600052602060002090600402016121db565b9350935050509250929050565b606080606083156114e757846002018054806020026020016040519081016040528092919081815260200182805480156114db57602002820191906000526020600020905b81546001600160a01b031681526001909101906020018083116114bd575b50505050509050611547565b8460030180548060200260200160405190810160405280929190818152602001828054801561153f57602002820191906000526020600020905b81546001600160a01b03168152600190910190602001808311611521575b505050505090505b600081516001600160401b038111801561156057600080fd5b5060405190808252806020026020018201604052801561159457816020015b606081526020019060019003908161157f5790505b50905060005b82518110156115e0576115c08382815181106115b257fe5b6020026020010151886121db565b508282815181106115cd57fe5b602090810291909101015260010161159a565b50909590945092505050565b60035460405163123bd07560e11b8152606091839173__Library_______________________________90632477a0ea9061162d9085908590600401612f40565b60206040518083038186803b15801561164557600080fd5b505af4158015611659573d6000803e3d6000fd5b505050506040513d601f19601f8201168201806040525081019061167d9190612ab7565b151560011461169e5760405162461bcd60e51b815260040161031b90612e72565b610f66600385815481106116ae57fe5b906000526020600020906004020161230a565b5190565b6001015490565b6001600160a01b038316600090815260208381526040918290208251608081018452815460ff1615158152600180830180548651600261010083861615026000190190921691909104601f81018790048702820187019097528681529195929485810193908301828280156117825780601f1061175757610100808354040283529160200191611782565b820191906000526020600020905b81548152906001019060200180831161176557829003601f168201915b50505050508152602001600282018054806020026020016040519081016040528092919081815260200182805480156117e457602002820191906000526020600020905b81546001600160a01b031681526001909101906020018083116117c6575b505050505081526020016003820180548060200260200160405190810160405280929190818152602001828054801561184657602002820191906000526020600020905b81546001600160a01b03168152600190910190602001808311611828575b5050505050815250506118598282612370565b6001600160a01b038516600090815260208581526040918290208251608081018452815460ff1615158152600180830180548651600261010083861615026000190190921691909104601f810187900487028201870190975286815291959294858101939083018282801561190f5780601f106118e45761010080835404028352916020019161190f565b820191906000526020600020905b8154815290600101906020018083116118f257829003601f168201915b505050505081526020016002820180548060200260200160405190810160405280929190818152602001828054801561197157602002820191906000526020600020905b81546001600160a01b03168152600190910190602001808311611953575b50505050508152602001600382018054806020026020016040519081016040528092919081815260200182805480156119d357602002820191906000526020600020905b81546001600160a01b031681526001909101906020018083116119b5575b5050505050815250506119e682826123ca565b6001600160a01b038716600090815260208790526040902060030154611a3757600386018054600181018255600091825260209091200180546001600160a01b0319166001600160a01b0389161790555b6001600160a01b0387166000818152602088815260408220600301805460018101825590835291200180546001600160a01b031916339081179091551480611aa057506001600160a01b038716600090815260208790526040902060030154611aa09086612430565b15611cb257611b70611b0e8888600101805480602002602001604051908101604052809291908181526020018280548015611b0457602002820191906000526020600020905b81546001600160a01b03168152600190910190602001808311611ae6575b505050505061244b565b87600101805480602002602001604051908101604052809291908181526020018280548015611b6657602002820191906000526020600020905b81546001600160a01b03168152600190910190602001808311611b48575b5050505050612468565b8051611b86916001890191602090910190612837565b50611c4e611bee8888600301805480602002602001604051908101604052809291908181526020018280548015611b04576020028201919060005260206000209081546001600160a01b03168152600190910190602001808311611ae657505050505061244b565b87600301805480602002602001604051908101604052809291908181526020018280548015611b66576020028201919060005260206000209081546001600160a01b03168152600190910190602001808311611b48575050505050612468565b8051611c64916003890191602090910190612837565b506001600160a01b0387166000908152602087905260408120805460ff1916815590611c93600183018261288c565b611ca16002830160006128d0565b611caf6003830160006128d0565b50505b50505050505050565b6001600160a01b0384166000908152602083815260408083208151608081018352815460ff1615158152600180830180548551600261010094831615949094026000190190911692909204601f81018790048702830187019095528482529194929385840193919291830182828015611d755780601f10611d4a57610100808354040283529160200191611d75565b820191906000526020600020905b815481529060010190602001808311611d5857829003601f168201915b5050505050815260200160028201805480602002602001604051908101604052809291908181526020018280548015611dd757602002820191906000526020600020905b81546001600160a01b03168152600190910190602001808311611db9575b5050505050815260200160038201805480602002602001604051908101604052809291908181526020018280548015611e3957602002820191906000526020600020905b81546001600160a01b03168152600190910190602001808311611e1b575b505050505081525050611e4c8282612370565b6001600160a01b0386166000908152602085815260408083208151608081018352815460ff1615158152600180830180548551600261010094831615949094026000190190911692909204601f81018790048702830187019095528482529194929385840193919291830182828015611f065780601f10611edb57610100808354040283529160200191611f06565b820191906000526020600020905b815481529060010190602001808311611ee957829003601f168201915b5050505050815260200160028201805480602002602001604051908101604052809291908181526020018280548015611f6857602002820191906000526020600020905b81546001600160a01b03168152600190910190602001808311611f4a575b5050505050815260200160038201805480602002602001604051908101604052809291908181526020018280548015611fca57602002820191906000526020600020905b81546001600160a01b03168152600190910190602001808311611fac575b505050505081525050611fdd82826123ca565b6001600160a01b03881660009081526020879052604090206002015461205c576001600160a01b038816600090815260208781526040909120885161202a926001909201918a01906127bc565b50600286018054600181018255600091825260209091200180546001600160a01b0319166001600160a01b038a161790555b6001600160a01b0388166000818152602088815260408220600201805460018101825581845291832090910180546001600160a01b03191633179055919052546120a69086612430565b156121d1576001600160a01b038816600081815260208881526040808320805460ff191660019081179091558a81018054918201815584529282902090920180546001600160a01b0319169093179092556002880180548251818502810185019093528083526121bb9361215b938d9390929091830182828015611b04576020028201919060005260206000209081546001600160a01b03168152600190910190602001808311611ae657505050505061244b565b87600201805480602002602001604051908101604052809291908181526020018280548015611b66576020028201919060005260206000209081546001600160a01b03168152600190910190602001808311611b48575050505050612468565b8051611caf916002890191602090910190612837565b5050505050505050565b6001600160a01b0382166000908152602082815260408083208151608081018352815460ff1615158152600180830180548551600261010094831615949094026000190190911692909204601f81018790048702830187019095528482526060969590946122729492848301929091879183018282801561098e5780601f106109635761010080835404028352916020019161098e565b8154604080516020601f600260001961010060018816150201909516949094049384018190048102820181019092528281529184918301828280156122f85780601f106122cd576101008083540402835291602001916122f8565b820191906000526020600020905b8154815290600101906020018083116122db57829003601f168201915b50505050509150915091509250929050565b60608160010180548060200260200160405190810160405280929190818152602001828054801561236457602002820191906000526020600020905b81546001600160a01b03168152600190910190602001808311612346575b50505050509050919050565b816123a05761237e816116c1565b1561239b5760405162461bcd60e51b815260040161031b90612eca565b61068e565b6123a9816116c1565b151560011461068e5760405162461bcd60e51b815260040161031b90612d69565b8160018111156123d657fe5b612405576123e83382604001516124b2565b1561239b5760405162461bcd60e51b815260040161031b90612dc1565b6124133382606001516124b2565b1561068e5760405162461bcd60e51b815260040161031b90612dc1565b60008183101561244257506000610d96565b50600192915050565b60006108136001600160a01b03841661246384612508565b6125a2565b606082825161247782826125e4565b15156001146124985760405162461bcd60e51b815260040161031b90612e72565b6113886124ad866124a887612508565b6125e8565b6126da565b6000805b82518110156124fe578281815181106124cb57fe5b60200260200101516001600160a01b0316846001600160a01b031614156124f6576001915050610d96565b6001016124b6565b5060009392505050565b6060600082516001600160401b038111801561252357600080fd5b5060405190808252806020026020018201604052801561254d578160200160208202803683370190505b50905060005b815181101561259b5783818151811061256857fe5b60200260200101516001600160a01b031660001b82828151811061258857fe5b6020908102919091010152600101612553565b5092915050565b6000805b82518110156125d9578281815181106125bb57fe5b60200260200101518414156125d1579050610d96565b6001016125a6565b505051600101919050565b1190565b60608282516125f782826125e4565b15156001146126185760405162461bcd60e51b815260040161031b90612e72565b600060018551036001600160401b038111801561263457600080fd5b5060405190808252806020026020018201604052801561265e578160200160208202803683370190505b5090508460018651038151811061267157fe5b602002602001015185878151811061268557fe5b60200260200101818152505060005b81518110156126d0578581815181106126a957fe5b60200260200101518282815181106126bd57fe5b6020908102919091010152600101612694565b5095945050505050565b6060600082516001600160401b03811180156126f557600080fd5b5060405190808252806020026020018201604052801561271f578160200160208202803683370190505b50905060005b815181101561259b5783818151811061273a57fe5b602002602001015160001c82828151811061275157fe5b6001600160a01b0390921660209283029190910190910152600101612725565b8280548282559060005260206000209081019282156127ac579160200282015b828111156127ac578251825591602001919060010190612791565b506127b89291506128ea565b5090565b828054600181600116156101000203166002900490600052602060002090601f0160209004810192826127f257600085556127ac565b82601f1061280b57805160ff19168380011785556127ac565b828001600101855582156127ac57918201828111156127ac578251825591602001919060010190612791565b8280548282559060005260206000209081019282156127ac579160200282015b828111156127ac57825182546001600160a01b0319166001600160a01b03909116178255602090920191600190910190612857565b50805460018160011615610100020316600290046000825580601f106128b25750610a85565b601f016020900490600052602060002090810190610a8591906128ea565b5080546000825590600052602060002090810190610a8591905b5b808211156127b857600081556001016128eb565b80356001600160a01b038116811461067c57600080fd5b600060208284031215612927578081fd5b610813826128ff565b60008060408385031215612942578081fd5b61294b836128ff565b91506020838101356001600160401b0380821115612967578384fd5b818601915086601f83011261297a578384fd5b81358181111561298657fe5b612998601f8201601f19168501612f4e565b915080825287848285010111156129ad578485fd5b8084840185840137810190920192909252919491935090915050565b6000806000606084860312156129dd578081fd5b6129e6846128ff565b95602085013595506040909401359392505050565b60006020808385031215612a0d578182fd5b82516001600160401b0380821115612a23578384fd5b818501915085601f830112612a36578384fd5b815181811115612a4257fe5b8381029150612a52848301612f4e565b8181528481019084860184860187018a1015612a6c578788fd5b8795505b83861015612a8e578051835260019590950194918601918601612a70565b5098975050505050505050565b600060208284031215612aac578081fd5b813561081381612f7d565b600060208284031215612ac8578081fd5b815161081381612f7d565b60008060408385031215612ae5578182fd5b82359150612af5602084016128ff565b90509250929050565b6001600160a01b03169052565b6000815180845260208085019450808401835b83811015612b435781516001600160a01b031687529582019590820190600101612b1e565b509495945050505050565b60008151808452815b81811015612b7357602081850181015186830182015201612b57565b81811115612b845782602083870101525b50601f01601f19169290920160200192915050565b6001600160a01b0391909116815260200190565b6001600160a01b0392831681529116602082015260400190565b6001600160a01b03929092168252602082015260400190565b6000602082526108136020830184612b0b565b600060408252612c066040830185612b0b565b602083820381850152818551808452828401915082838202850101838801865b83811015612c5457601f19878403018552612c42838351612b4e565b94860194925090850190600101612c26565b50909998505050505050505050565b6020808252825182820181905260009190848201906040850190845b81811015612c9b57835183529284019291840191600101612c7f565b50909695505050505050565b901515815260200190565b600060408252612cc56040830185612b4e565b905082151560208301529392505050565b60006040820160408352818554600180821660008114612cfd5760018114612d1b57612d54565b60028304607f16855260ff1983166060880152608087019350612d54565b60028304808652612d2b8a612f71565b875b82811015612d4a5781548a82016060015290840190602001612d2d565b8901606001955050505b50505080925050506108136020830184612afe565b60208082526003908201526245433760e81b604082015260600190565b6020808252600390820152621150cd60ea1b604082015260600190565b6020808252600490820152634543313960e01b604082015260600190565b60208082526003908201526245433560e81b604082015260600190565b6020808252600490820152631150cc4d60e21b604082015260600190565b60208082526003908201526245433360e81b604082015260600190565b6020808252600490820152634543313560e01b604082015260600190565b60208082526004908201526322a1989960e11b604082015260600190565b60208082526003908201526245433960e81b604082015260600190565b60208082526003908201526245433160e81b604082015260600190565b60208082526003908201526208a86760eb1b604082015260600190565b6020808252600490820152630454331360e41b604082015260600190565b60208082526003908201526222a19b60e91b604082015260600190565b90815260200190565b60006040820184835260206040818501528185548084526060860191508685528285209350845b81811015612f3357845483526001948501949284019201612f17565b5090979650505050505050565b918252602082015260400190565b6040518181016001600160401b0381118282101715612f6957fe5b604052919050565b60009081526020902090565b8015158114610a8557600080fdfea2646970667358221220b1255eb1920f7dfaed377a204da86419ee4960114f763f95c0f60bef1d2f69a764736f6c63430007060033",
  "immutableReferences": {},
  "source": "// SPDX-License-Identifier: GPL-3.0\r\n\r\npragma solidity >=0.7.0 <0.9.0;\r\npragma experimental ABIEncoderV2;\r\n\r\n/**\r\n * @title Storage\r\n * @dev Store & retrieve value in a variable\r\n */\r\n\r\n import \"./Abstract/MultiSigCertificatesPool.sol\";\r\n import \"./Interfaces/IPublicPool.sol\";\r\n import \"./Treasury.sol\";\r\n\r\n contract PublicCertificatesPool is MultiSigCertificatesPool, IPublicPool {\r\n\r\n     address _creator;\r\n     mapping(address => bool) _submitedByCreator;\r\n     Treasury _Treasury;\r\n\r\n     //modifiers\r\n    modifier hasBeenSubmitted(bool YesOrNo, address provider){\r\n        if(false == YesOrNo) require(false == _submitedByCreator[provider], \"EC3\");\r\n        else require(true == _submitedByCreator[provider], \"EC4\");\r\n        _;\r\n    }\r\n\r\n     // Constructor\r\n    constructor(address[] memory owners,  uint256 minOwners) MultiSigCertificatesPool(owners, minOwners) payable {\r\n        _creator = msg.sender;\r\n    }\r\n\r\n    function addProvider(address provider, string memory providerInfo) external \r\n        isSomeoneSpecific(_creator)\r\n        hasBeenSubmitted(false, provider)\r\n    override\r\n    {\r\n        _Entities[_providerId]._entities[provider]._Info = providerInfo;\r\n        _submitedByCreator[provider] = true;\r\n    }\r\n\r\n    function validateProvider(address provider) external \r\n        hasBeenSubmitted(true, provider)\r\n    override\r\n    {\r\n        addEntity(provider, _Entities[_providerId]._entities[provider]._Info, _providerId);\r\n\r\n        if(true == isProvider(provider)){\r\n            uint totalValidators = _Entities[_providerId]._entities[provider]._AddValidated.length;\r\n\r\n            for(uint i=0; i < totalValidators; i++){\r\n                _Treasury.getRefund(_Entities[_providerId]._entities[provider]._AddValidated[i], totalValidators);\r\n            }\r\n        }\r\n    }\r\n\r\n    function removeProvider(address provider) external override{\r\n       removeEntity(provider, _providerId); \r\n\r\n       if(false == Library.isEntity(_Entities[_providerId]._entities[provider])){\r\n            delete(_submitedByCreator[provider]);\r\n       }\r\n    }\r\n\r\n    function addTreasury(address TreasuryAddress) external\r\n        isSomeoneSpecific(_creator)\r\n    {\r\n        _Treasury = Treasury(TreasuryAddress);\r\n    }\r\n\r\n }",
  "sourcePath": "C:\\Users\\d-aam\\GitHub\\Certificates\\contracts\\PublicCertificatesPool.sol",
  "compiler": {
    "name": "solc",
    "version": "0.7.6+commit.7338295f.Emscripten.clang"
  },
  "schemaVersion": "3.3.4",
  "updatedAt": "2021-07-16T06:18:37.050Z",
  "devdoc": {
    "kind": "dev",
    "methods": {},
    "version": 1
  },
  "userdoc": {
    "kind": "user",
    "methods": {},
    "version": 1
  }
}