{
  "contractName": "PublicCertificatesPool",
  "abi": [
    {
      "anonymous": false,
      "inputs": [
        {
          "indexed": false,
          "internalType": "address",
          "name": "",
          "type": "address"
        },
        {
          "indexed": false,
          "internalType": "address",
          "name": "",
          "type": "address"
        }
      ],
      "name": "_AddCertificateIdEvent",
      "type": "event"
    },
    {
      "anonymous": false,
      "inputs": [
        {
          "indexed": true,
          "internalType": "string",
          "name": "",
          "type": "string"
        },
        {
          "indexed": true,
          "internalType": "address",
          "name": "",
          "type": "address"
        },
        {
          "indexed": true,
          "internalType": "string",
          "name": "",
          "type": "string"
        }
      ],
      "name": "_AddEntityRejectionIdEvent",
      "type": "event"
    },
    {
      "anonymous": false,
      "inputs": [
        {
          "indexed": true,
          "internalType": "string",
          "name": "",
          "type": "string"
        },
        {
          "indexed": true,
          "internalType": "address",
          "name": "",
          "type": "address"
        },
        {
          "indexed": true,
          "internalType": "string",
          "name": "",
          "type": "string"
        }
      ],
      "name": "_AddEntityValidationIdEvent",
      "type": "event"
    },
    {
      "anonymous": false,
      "inputs": [
        {
          "indexed": false,
          "internalType": "address",
          "name": "",
          "type": "address"
        },
        {
          "indexed": false,
          "internalType": "address",
          "name": "",
          "type": "address"
        }
      ],
      "name": "_RemoveCertificateIdEvent",
      "type": "event"
    },
    {
      "anonymous": false,
      "inputs": [
        {
          "indexed": true,
          "internalType": "string",
          "name": "",
          "type": "string"
        },
        {
          "indexed": true,
          "internalType": "address",
          "name": "",
          "type": "address"
        },
        {
          "indexed": true,
          "internalType": "string",
          "name": "",
          "type": "string"
        }
      ],
      "name": "_RemoveEntityRejectionIdEvent",
      "type": "event"
    },
    {
      "anonymous": false,
      "inputs": [
        {
          "indexed": true,
          "internalType": "string",
          "name": "",
          "type": "string"
        },
        {
          "indexed": true,
          "internalType": "address",
          "name": "",
          "type": "address"
        },
        {
          "indexed": true,
          "internalType": "string",
          "name": "",
          "type": "string"
        }
      ],
      "name": "_RemoveEntityValidationIdEvent",
      "type": "event"
    },
    {
      "anonymous": false,
      "inputs": [
        {
          "indexed": false,
          "internalType": "address",
          "name": "",
          "type": "address"
        },
        {
          "indexed": true,
          "internalType": "address",
          "name": "",
          "type": "address"
        },
        {
          "indexed": true,
          "internalType": "string",
          "name": "",
          "type": "string"
        }
      ],
      "name": "_SendProposalId",
      "type": "event"
    },
    {
      "inputs": [
        {
          "internalType": "address[]",
          "name": "owners",
          "type": "address[]"
        },
        {
          "internalType": "uint256",
          "name": "minOwners",
          "type": "uint256"
        }
      ],
      "name": "MultiSigCertPool_init",
      "outputs": [],
      "stateMutability": "nonpayable",
      "type": "function"
    },
    {
      "inputs": [
        {
          "internalType": "address[]",
          "name": "owners",
          "type": "address[]"
        },
        {
          "internalType": "uint256",
          "name": "minOwners",
          "type": "uint256"
        },
        {
          "internalType": "uint256",
          "name": "TotalEntities",
          "type": "uint256"
        },
        {
          "internalType": "string[]",
          "name": "labels",
          "type": "string[]"
        },
        {
          "internalType": "uint256",
          "name": "ownerId",
          "type": "uint256"
        }
      ],
      "name": "MultiSigContract_init",
      "outputs": [],
      "stateMutability": "nonpayable",
      "type": "function"
    },
    {
      "inputs": [
        {
          "internalType": "address",
          "name": "owner",
          "type": "address"
        },
        {
          "internalType": "string",
          "name": "ownerInfo",
          "type": "string"
        }
      ],
      "name": "addOwner",
      "outputs": [],
      "stateMutability": "nonpayable",
      "type": "function"
    },
    {
      "inputs": [
        {
          "internalType": "address",
          "name": "owner",
          "type": "address"
        }
      ],
      "name": "isOwner",
      "outputs": [
        {
          "internalType": "bool",
          "name": "",
          "type": "bool"
        }
      ],
      "stateMutability": "view",
      "type": "function"
    },
    {
      "inputs": [
        {
          "internalType": "address",
          "name": "provider",
          "type": "address"
        }
      ],
      "name": "isProvider",
      "outputs": [
        {
          "internalType": "bool",
          "name": "",
          "type": "bool"
        }
      ],
      "stateMutability": "view",
      "type": "function"
    },
    {
      "inputs": [
        {
          "internalType": "address",
          "name": "owner",
          "type": "address"
        }
      ],
      "name": "rejectOwner",
      "outputs": [],
      "stateMutability": "nonpayable",
      "type": "function"
    },
    {
      "inputs": [
        {
          "internalType": "address",
          "name": "provider",
          "type": "address"
        }
      ],
      "name": "rejectProvider",
      "outputs": [],
      "stateMutability": "nonpayable",
      "type": "function"
    },
    {
      "inputs": [
        {
          "internalType": "address",
          "name": "owner",
          "type": "address"
        }
      ],
      "name": "removeOwner",
      "outputs": [],
      "stateMutability": "nonpayable",
      "type": "function"
    },
    {
      "inputs": [
        {
          "internalType": "address",
          "name": "provider",
          "type": "address"
        }
      ],
      "name": "removeProvider",
      "outputs": [],
      "stateMutability": "nonpayable",
      "type": "function"
    },
    {
      "inputs": [],
      "name": "retrieveAllOwners",
      "outputs": [
        {
          "internalType": "address[]",
          "name": "",
          "type": "address[]"
        }
      ],
      "stateMutability": "view",
      "type": "function"
    },
    {
      "inputs": [],
      "name": "retrieveAllProviders",
      "outputs": [
        {
          "internalType": "address[]",
          "name": "",
          "type": "address[]"
        }
      ],
      "stateMutability": "view",
      "type": "function"
    },
    {
      "inputs": [
        {
          "internalType": "bytes32",
          "name": "CertificateHash",
          "type": "bytes32"
        },
        {
          "internalType": "address",
          "name": "holder",
          "type": "address"
        }
      ],
      "name": "retrieveCertificateProvider",
      "outputs": [
        {
          "internalType": "address",
          "name": "",
          "type": "address"
        }
      ],
      "stateMutability": "view",
      "type": "function"
    },
    {
      "inputs": [
        {
          "internalType": "address",
          "name": "holder",
          "type": "address"
        },
        {
          "internalType": "uint256",
          "name": "skipFirst",
          "type": "uint256"
        },
        {
          "internalType": "uint256",
          "name": "max",
          "type": "uint256"
        }
      ],
      "name": "retrieveCertificatesByHolder",
      "outputs": [
        {
          "internalType": "bytes32[]",
          "name": "",
          "type": "bytes32[]"
        }
      ],
      "stateMutability": "view",
      "type": "function"
    },
    {
      "inputs": [],
      "name": "retrieveMinOwners",
      "outputs": [
        {
          "internalType": "uint256",
          "name": "",
          "type": "uint256"
        }
      ],
      "stateMutability": "view",
      "type": "function"
    },
    {
      "inputs": [
        {
          "internalType": "address",
          "name": "owner",
          "type": "address"
        }
      ],
      "name": "retrieveOwner",
      "outputs": [
        {
          "internalType": "string",
          "name": "",
          "type": "string"
        },
        {
          "internalType": "bool",
          "name": "",
          "type": "bool"
        }
      ],
      "stateMutability": "view",
      "type": "function"
    },
    {
      "inputs": [
        {
          "internalType": "bool",
          "name": "addedORremove",
          "type": "bool"
        }
      ],
      "name": "retrievePendingOwners",
      "outputs": [
        {
          "internalType": "address[]",
          "name": "",
          "type": "address[]"
        },
        {
          "internalType": "string[]",
          "name": "",
          "type": "string[]"
        }
      ],
      "stateMutability": "view",
      "type": "function"
    },
    {
      "inputs": [
        {
          "internalType": "bool",
          "name": "addedORremove",
          "type": "bool"
        }
      ],
      "name": "retrievePendingProviders",
      "outputs": [
        {
          "internalType": "address[]",
          "name": "",
          "type": "address[]"
        },
        {
          "internalType": "string[]",
          "name": "",
          "type": "string[]"
        }
      ],
      "stateMutability": "view",
      "type": "function"
    },
    {
      "inputs": [
        {
          "internalType": "address",
          "name": "provider",
          "type": "address"
        }
      ],
      "name": "retrieveProvider",
      "outputs": [
        {
          "internalType": "string",
          "name": "",
          "type": "string"
        },
        {
          "internalType": "bool",
          "name": "",
          "type": "bool"
        }
      ],
      "stateMutability": "view",
      "type": "function"
    },
    {
      "inputs": [
        {
          "internalType": "address",
          "name": "holder",
          "type": "address"
        }
      ],
      "name": "retrieveTotalCertificatesByHolder",
      "outputs": [
        {
          "internalType": "uint256",
          "name": "",
          "type": "uint256"
        }
      ],
      "stateMutability": "view",
      "type": "function"
    },
    {
      "inputs": [
        {
          "internalType": "address",
          "name": "owner",
          "type": "address"
        }
      ],
      "name": "validateOwner",
      "outputs": [],
      "stateMutability": "nonpayable",
      "type": "function"
    },
    {
      "inputs": [
        {
          "internalType": "address",
          "name": "provider",
          "type": "address"
        }
      ],
      "name": "validateProvider",
      "outputs": [],
      "stateMutability": "nonpayable",
      "type": "function"
    },
    {
      "inputs": [
        {
          "internalType": "address[]",
          "name": "owners",
          "type": "address[]"
        },
        {
          "internalType": "uint256",
          "name": "minOwners",
          "type": "uint256"
        },
        {
          "internalType": "address",
          "name": "managerContractAddress",
          "type": "address"
        }
      ],
      "name": "PublicCertPool_init",
      "outputs": [],
      "stateMutability": "nonpayable",
      "type": "function"
    },
    {
      "inputs": [
        {
          "internalType": "address",
          "name": "TreasuryAddressProxy",
          "type": "address"
        }
      ],
      "name": "updateContracts",
      "outputs": [],
      "stateMutability": "nonpayable",
      "type": "function"
    },
    {
      "inputs": [
        {
          "internalType": "address",
          "name": "provider",
          "type": "address"
        },
        {
          "internalType": "string",
          "name": "providerInfo",
          "type": "string"
        }
      ],
      "name": "addProvider",
      "outputs": [],
      "stateMutability": "payable",
      "type": "function"
    },
    {
      "inputs": [
        {
          "internalType": "bytes32",
          "name": "CertificateHash",
          "type": "bytes32"
        },
        {
          "internalType": "address",
          "name": "holder",
          "type": "address"
        }
      ],
      "name": "addCertificate",
      "outputs": [],
      "stateMutability": "payable",
      "type": "function"
    },
    {
      "inputs": [
        {
          "internalType": "bytes32",
          "name": "item",
          "type": "bytes32"
        },
        {
          "internalType": "uint256[]",
          "name": "ids",
          "type": "uint256[]"
        },
        {
          "internalType": "bool",
          "name": "addOrRemove",
          "type": "bool"
        }
      ],
      "name": "onItemValidated",
      "outputs": [],
      "stateMutability": "nonpayable",
      "type": "function"
    },
    {
      "inputs": [
        {
          "internalType": "bytes32",
          "name": "item",
          "type": "bytes32"
        },
        {
          "internalType": "uint256[]",
          "name": "ids",
          "type": "uint256[]"
        },
        {
          "internalType": "bool",
          "name": "addOrRemove",
          "type": "bool"
        }
      ],
      "name": "onItemRejected",
      "outputs": [],
      "stateMutability": "nonpayable",
      "type": "function"
    }
  ],
  "bytecode": "0x600560c08181526427bbb732b960d91b60e0526080908152610140604052600861010090815267283937bb34b232b960c11b6101205260a05262000046919060026200005b565b503480156200005457600080fd5b5062000201565b828054828255906000526020600020908101928215620000ad579160200282015b82811115620000ad57825180516200009c918491602090910190620000bf565b50916020019190600101906200007c565b50620000bb9291506200014a565b5090565b828054620000cd90620001c4565b90600052602060002090601f016020900481019282620000f157600085556200013c565b82601f106200010c57805160ff19168380011785556200013c565b828001600101855582156200013c579182015b828111156200013c5782518255916020019190600101906200011f565b50620000bb9291506200016b565b80821115620000bb57600062000161828262000182565b506001016200014a565b5b80821115620000bb57600081556001016200016c565b5080546200019090620001c4565b6000825580601f10620001a1575050565b601f016020900490600052602060002090810190620001c191906200016b565b50565b600181811c90821680620001d957607f821691505b60208210811415620001fb57634e487b7160e01b600052602260045260246000fd5b50919050565b613d6780620002116000396000f3fe60806040526004361061013c5760003560e01c80630b4c72a914610141578063173825d9146101635780631ab807f814610183578063279958a91461019657806327a40b4b146101b65780632f54bf6e146101d65780633542758f1461020b578063375834991461022b5780633fd071811461025957806358a1ba251461027957806365b973e5146102a65780636b074a07146102c55780636b299604146102e55780636b3a0fec146103135780636e4f9179146103335780636e55d2d41461035557806376f8f90f1461037557806377bc5a1f146103955780637c8c2add146103b55780638a355a57146103d55780639580fc6c146103f5578063a93d5ed614610415578063c3ccb1911461042a578063ce33d58a1461044a578063cf2041d91461046a578063d0a4adfe1461048a578063fc000500146104dd575b600080fd5b34801561014d57600080fd5b5061016161015c366004613206565b6104f0565b005b34801561016f57600080fd5b5061016161017e366004613206565b6104fe565b6101616101913660046136bf565b610553565b3480156101a257600080fd5b506101616101b1366004613206565b6105c6565b3480156101c257600080fd5b506101616101d1366004613206565b61069b565b3480156101e257600080fd5b506101f66101f1366004613206565b6106a6565b60405190151581526020015b60405180910390f35b34801561021757600080fd5b50610161610226366004613223565b6106ba565b34801561023757600080fd5b5061024b610246366004613206565b6106c8565b604051610202929190613986565b34801561026557600080fd5b506101616102743660046136ef565b6106e0565b34801561028557600080fd5b506102996102943660046132f6565b610725565b604051610202919061390c565b3480156102b257600080fd5b506001545b604051908152602001610202565b3480156102d157600080fd5b506101f66102e0366004613206565b6108cb565b3480156102f157600080fd5b5061030561030036600461366c565b6108d8565b60405161020292919061389a565b34801561031f57600080fd5b5061030561032e36600461366c565b6108e7565b34801561033f57600080fd5b506103486108f5565b6040516102029190613887565b34801561036157600080fd5b506102b7610370366004613206565b610906565b34801561038157600080fd5b50610161610390366004613206565b610924565b3480156103a157600080fd5b5061024b6103b0366004613206565b61097f565b3480156103c157600080fd5b506101616103d03660046136ef565b61098f565b3480156103e157600080fd5b506101616103f0366004613206565b6109ce565b34801561040157600080fd5b5061016161041036600461340f565b6109d9565b34801561042157600080fd5b50610348610a5a565b34801561043657600080fd5b506101616104453660046133cb565b610a67565b34801561045657600080fd5b50610161610465366004613206565b610bb4565b34801561047657600080fd5b50610161610485366004613469565b610bc0565b34801561049657600080fd5b506104d06104a53660046136bf565b6001600160a01b03908116600090815260066020908152604080832094835293905291909120541690565b6040516102029190613852565b6101616104eb3660046132a7565b610e97565b6104fb8160016110cb565b50565b600154600161050e60005461159c565b516105199190613c33565b808211156105425760405162461bcd60e51b8152600401610539906139aa565b60405180910390fd5b61054e8360005461178d565b505050565b600854604051637864992f60e11b81526001600160a01b039091169063f0c9325e9034906105869060029060040161395e565b6000604051808303818588803b15801561059f57600080fd5b505af11580156105b3573d6000803e3d6000fd5b50505050506105c28282611af4565b5050565b600754604051630d1d719d60e41b815273__Library_______________________________9163d1d719d091610608916001600160a01b031690600401613852565b60206040518083038186803b15801561062057600080fd5b505af4158015610634573d6000803e3d6000fd5b505050506040513d601f19601f820116820180604052508101906106589190613689565b15156001146106795760405162461bcd60e51b815260040161053990613aa9565b600880546001600160a01b0319166001600160a01b0392909216919091179055565b6104fb816001611c27565b60006106b4826000546120b8565b92915050565b61054e8383836000546122a9565b606060006106d7836001612662565b91509150915091565b6106ec8484848461285f565b60018383600081811061070157610701613ce2565b90506020020135141561071f57801561071f5761071f846000612910565b50505050565b60608261073185610906565b1161074b57506040805160008152602081019091526108c4565b81808461075787610906565b6107619190613c33565b101561077e578361077186610906565b61077b9190613c33565b90505b6000816001600160401b0381111561079857610798613cf8565b6040519080825280602002602001820160405280156107c1578160200160208202803683370190505b506001600160a01b03871660009081526006602090815260408083206001018054825181850281018501909352808352949550929390929183018282801561082857602002820191906000526020600020905b815481526020019060010190808311610814575b5050505050905060008060005b83518110156108bb5787831061084a576108bb565b818911156108645761085d600183613c1b565b91506108a9565b83818151811061087657610876613ce2565b602002602001015185848151811061089057610890613ce2565b60209081029190910101526108a6600184613c1b565b92505b806108b381613cb1565b915050610835565b50929450505050505b9392505050565b60006106b48260016120b8565b6060806106d783600054612a91565b6060806106d7836001612a91565b6060610901600161159c565b905090565b6001600160a01b031660009081526006602052604090206001015490565b61093081600054612c9e565b15156001141561097357600161094760005461159c565b516109529190613c33565b60015411156109735760405162461bcd60e51b8152600401610539906139aa565b6104fb81600054611c27565b606060006106d783600054612662565b61099b8484848461285f565b6001838360008181106109b0576109b0613ce2565b90506020020135141561071f57801561071f5761071f846001612910565b6104fb81600161178d565b600454610100900460ff16806109f2575060045460ff16155b610a0e5760405162461bcd60e51b815260040161053990613a21565b600454610100900460ff16158015610a30576004805461ffff19166101011790555b610a3a8484610a67565b610a4382612e0a565b801561071f576004805461ff001916905550505050565b606061090160005461159c565b600454610100900460ff1680610a80575060045460ff16155b610a9c5760405162461bcd60e51b815260040161053990613a21565b600454610100900460ff16158015610abe576004805461ffff19166101011790555b610b9e838360026005805480602002602001604051908101604052809291908181526020016000905b82821015610b93578382906000526020600020018054610b0690613c76565b80601f0160208091040260200160405190810160405280929190818152602001828054610b3290613c76565b8015610b7f5780601f10610b5457610100808354040283529160200191610b7f565b820191906000526020600020905b815481529060010190602001808311610b6257829003601f168201915b505050505081526020019060010190610ae7565b505050506000610bc0565b801561054e576004805461ff0019169055505050565b6104fb816000546110cb565b600454610100900460ff1680610bd9575060045460ff16155b610bf55760405162461bcd60e51b815260040161053990613a21565b600454610100900460ff16158015610c17576004805461ffff19166101011790555b8551851115610c515760405162461bcd60e51b81526004016105399060208082526004908201526322a1989b60e11b604082015260600190565b60008511610c8a5760405162461bcd60e51b8152600401610539906020808252600490820152634543313760e01b604082015260600190565b82518414610cc35760405162461bcd60e51b81526004016105399060208082526004908201526308a8662760e31b604082015260600190565b60008281555b84811015610d39576002805460010181556000528351600390859083908110610cf457610cf4613ce2565b60209081029190910181015182546001810184556000938452928290208151610d269491909101929190910190612ffc565b5080610d3181613cb1565b915050610cc9565b50600185905560005b8651811015610e7c57600073__AddressLibrary________________________634d84c524898481518110610d7957610d79613ce2565b60200260200101516040518263ffffffff1660e01b8152600401610d9d9190613852565b60206040518083038186803b158015610db557600080fd5b505af4158015610dc9573d6000803e3d6000fd5b505050506040513d601f19601f82011682018060405250810190610ded91906136a6565b90506001600260005481548110610e0657610e06613ce2565b60009182526020808320858452600492909202909101905260408120805460ff19169215159290921790915554600280549091908110610e4857610e48613ce2565b6000918252602080832060016004909302018201805492830181558352909120015580610e7481613cb1565b915050610d42565b508015610e8f576004805461ff00191690555b505050505050565b6000826001610ea682826120b8565b15610ec35760405162461bcd60e51b815260040161053990613ac6565b6000856001610ed28282612e91565b15610eef5760405162461bcd60e51b8152600401610539906139c8565b600854604051637864992f60e11b81526001600160a01b039091169063f0c9325e903490610f229060009060040161395e565b6000604051808303818588803b158015610f3b57600080fd5b505af1158015610f4f573d6000803e3d6000fd5b5050604051631361314960e21b81526000935073__AddressLibrary________________________9250634d84c5249150610f8e908c90600401613852565b60206040518083038186803b158015610fa657600080fd5b505af4158015610fba573d6000803e3d6000fd5b505050506040513d601f19601f82011682018060405250810190610fde91906136a6565b9050876002600181548110610ff557610ff5613ce2565b90600052602060002090600402016000016000838152602001908152602001600020600101908051906020019061102d929190612ffc565b50600260018154811061104257611042613ce2565b600091825260208083206002600490930201919091018054600181018255908352912001819055604051611077908990613836565b6040518091039020896001600160a01b03167f854d1c61e7ad3ec86e783ff3bee2d6e972df20c27c0c0e5436cb8ad35dcdd311306040516110b89190613852565b60405180910390a3505050505050505050565b60025460405163123bd07560e11b815282919073__Library_______________________________90632477a0ea9061110a9085908590600401613950565b60206040518083038186803b15801561112257600080fd5b505af4158015611136573d6000803e3d6000fd5b505050506040513d601f19601f8201168201806040525081019061115a9190613689565b151560011461117b5760405162461bcd60e51b815260040161053990613a8c565b611187336000546120b8565b15156001146111a85760405162461bcd60e51b815260040161053990613a6f565b600184846111b68282612e91565b1515600114806111d157506111cb8282612c9e565b15156001145b6111ed5760405162461bcd60e51b815260040161053990613a03565b8686600073__AddressLibrary________________________634d84c524846040518263ffffffff1660e01b81526004016112289190613852565b60206040518083038186803b15801561124057600080fd5b505af4158015611254573d6000803e3d6000fd5b505050506040513d601f19601f8201168201806040525081019061127891906136a6565b905073__ItemsLibrary__________________________637b6d23de3383600286815481106112a9576112a9613ce2565b90600052602060002090600402016040518463ffffffff1660e01b81526004016112d593929190613866565b60206040518083038186803b1580156112ed57600080fd5b505af4158015611301573d6000803e3d6000fd5b505050506040513d601f19601f820116820180604052508101906113259190613689565b156113425760405162461bcd60e51b8152600401610539906139e6565b604051631361314960e21b815260009073__AddressLibrary________________________90634d84c5249061137c908e90600401613852565b60206040518083038186803b15801561139457600080fd5b505af41580156113a8573d6000803e3d6000fd5b505050506040513d601f19601f820116820180604052508101906113cc91906136a6565b60408051600180825281830190925291925060009190602080830190803683370190505090508a8160008151811061140657611406613ce2565b60200260200101818152505060006040518060c00160405280848152602001604051806020016040528060008152508152602001600154815260200160038e8154811061145557611455613ce2565b90600052602060002001805461146a90613c76565b80601f016020809104026020016040519081016040528092919081815260200182805461149690613c76565b80156114e35780601f106114b8576101008083540402835291602001916114e3565b820191906000526020600020905b8154815290600101906020018083116114c657829003601f168201915b50505050508152602001838152602001600115158152509050600060028d8154811061151157611511613ce2565b9060005260206000209060040201905073__ItemsLibrary__________________________635cb09bcf8383306040518463ffffffff1660e01b815260040161155c93929190613ae3565b60006040518083038186803b15801561157457600080fd5b505af4158015611588573d6000803e3d6000fd5b505050505050505050505050505050505050565b60025460405163123bd07560e11b8152606091839173__Library_______________________________90632477a0ea906115dd9085908590600401613950565b60206040518083038186803b1580156115f557600080fd5b505af4158015611609573d6000803e3d6000fd5b505050506040513d601f19601f8201168201806040525081019061162d9190613689565b151560011461164e5760405162461bcd60e51b815260040161053990613a8c565b73__AddressLibrary________________________635f2e8a5d73__ItemsLibrary__________________________6327724f4b6002888154811061169557611695613ce2565b90600052602060002090600402016040518263ffffffff1660e01b81526004016116c191815260200190565b60006040518083038186803b1580156116d957600080fd5b505af41580156116ed573d6000803e3d6000fd5b505050506040513d6000823e601f3d908101601f19168201604052611715919081019061355e565b6040518263ffffffff1660e01b8152600401611731919061390c565b60006040518083038186803b15801561174957600080fd5b505af415801561175d573d6000803e3d6000fd5b505050506040513d6000823e601f3d908101601f19168201604052611785919081019061332b565b949350505050565b60025460405163123bd07560e11b815282919073__Library_______________________________90632477a0ea906117cc9085908590600401613950565b60206040518083038186803b1580156117e457600080fd5b505af41580156117f8573d6000803e3d6000fd5b505050506040513d601f19601f8201168201806040525081019061181c9190613689565b151560011461183d5760405162461bcd60e51b815260040161053990613a8c565b611849336000546120b8565b151560011461186a5760405162461bcd60e51b815260040161053990613a6f565b6001848461187882826120b8565b15156001146118af5760405162461bcd60e51b815260206004820152600360248201526245433760e81b6044820152606401610539565b600087876118bd8282612c9e565b156118da5760405162461bcd60e51b8152600401610539906139c8565b604051631361314960e21b815260009073__AddressLibrary________________________90634d84c52490611914908e90600401613852565b60206040518083038186803b15801561192c57600080fd5b505af4158015611940573d6000803e3d6000fd5b505050506040513d601f19601f8201168201806040525081019061196491906136a6565b60408051600180825281830190925291925060009190602080830190803683370190505090508a8160008151811061199e5761199e613ce2565b60200260200101818152505060006040518060c00160405280848152602001604051806020016040528060008152508152602001600154815260200160038e815481106119ed576119ed613ce2565b906000526020600020018054611a0290613c76565b80601f0160208091040260200160405190810160405280929190818152602001828054611a2e90613c76565b8015611a7b5780601f10611a5057610100808354040283529160200191611a7b565b820191906000526020600020905b815481529060010190602001808311611a5e57829003601f168201915b50505050508152602001838152602001600115158152509050600060028d81548110611aa957611aa9613ce2565b9060005260206000209060040201905073__ItemsLibrary__________________________63e23fcdef8383306040518463ffffffff1660e01b815260040161155c93929190613ae3565b611afd336108cb565b1515600114611b375760405162461bcd60e51b81526004016105399060208082526004908201526322a1989960e11b604082015260600190565b816001600160a01b038083166000908152600660209081526040808320878452909152902054839185911615611b985760405162461bcd60e51b8152600401610539906020808252600490820152634543313560e01b604082015260600190565b6001600160a01b03841660008181526006602081815260408084208a855280835281852080546001600160a01b0319163390811790915593835260019081018054918201815585529382902090930189905582519182528101929092527f601cb9a073dbfa468ef12878ee6c720641a49b76af7c16099e8c0a1ac3ca79b5910160405180910390a15050505050565b60025460405163123bd07560e11b815282919073__Library_______________________________90632477a0ea90611c669085908590600401613950565b60206040518083038186803b158015611c7e57600080fd5b505af4158015611c92573d6000803e3d6000fd5b505050506040513d601f19601f82011682018060405250810190611cb69190613689565b1515600114611cd75760405162461bcd60e51b815260040161053990613a8c565b611ce3336000546120b8565b1515600114611d045760405162461bcd60e51b815260040161053990613a6f565b60018484611d128282612e91565b151560011480611d2d5750611d278282612c9e565b15156001145b611d495760405162461bcd60e51b815260040161053990613a03565b8686600073__AddressLibrary________________________634d84c524846040518263ffffffff1660e01b8152600401611d849190613852565b60206040518083038186803b158015611d9c57600080fd5b505af4158015611db0573d6000803e3d6000fd5b505050506040513d601f19601f82011682018060405250810190611dd491906136a6565b905073__ItemsLibrary__________________________637b6d23de338360028681548110611e0557611e05613ce2565b90600052602060002090600402016040518463ffffffff1660e01b8152600401611e3193929190613866565b60206040518083038186803b158015611e4957600080fd5b505af4158015611e5d573d6000803e3d6000fd5b505050506040513d601f19601f82011682018060405250810190611e819190613689565b15611e9e5760405162461bcd60e51b8152600401610539906139e6565b604051631361314960e21b815260009073__AddressLibrary________________________90634d84c52490611ed8908e90600401613852565b60206040518083038186803b158015611ef057600080fd5b505af4158015611f04573d6000803e3d6000fd5b505050506040513d601f19601f82011682018060405250810190611f2891906136a6565b60408051600180825281830190925291925060009190602080830190803683370190505090508a81600081518110611f6257611f62613ce2565b60200260200101818152505060006040518060c00160405280848152602001604051806020016040528060008152508152602001600154815260200160038e81548110611fb157611fb1613ce2565b906000526020600020018054611fc690613c76565b80601f0160208091040260200160405190810160405280929190818152602001828054611ff290613c76565b801561203f5780601f106120145761010080835404028352916020019161203f565b820191906000526020600020905b81548152906001019060200180831161202257829003601f168201915b50505050508152602001838152602001600115158152509050600060028d8154811061206d5761206d613ce2565b9060005260206000209060040201905073__ItemsLibrary__________________________637493a70b8383306040518463ffffffff1660e01b815260040161155c93929190613ae3565b60025460405163123bd07560e11b8152600091839173__Library_______________________________90632477a0ea906120f99085908590600401613950565b60206040518083038186803b15801561211157600080fd5b505af4158015612125573d6000803e3d6000fd5b505050506040513d601f19601f820116820180604052508101906121499190613689565b151560011461216a5760405162461bcd60e51b815260040161053990613a8c565b604051631361314960e21b815260009073__AddressLibrary________________________90634d84c524906121a4908990600401613852565b60206040518083038186803b1580156121bc57600080fd5b505af41580156121d0573d6000803e3d6000fd5b505050506040513d601f19601f820116820180604052508101906121f491906136a6565b905073__ItemsLibrary__________________________63dbdfbeec826002888154811061222457612224613ce2565b90600052602060002090600402016040518363ffffffff1660e01b815260040161224f929190613950565b60206040518083038186803b15801561226757600080fd5b505af415801561227b573d6000803e3d6000fd5b505050506040513d601f19601f8201168201806040525081019061229f9190613689565b9695505050505050565b60025460405163123bd07560e11b815282919073__Library_______________________________90632477a0ea906122e89085908590600401613950565b60206040518083038186803b15801561230057600080fd5b505af4158015612314573d6000803e3d6000fd5b505050506040513d601f19601f820116820180604052508101906123389190613689565b15156001146123595760405162461bcd60e51b815260040161053990613a8c565b612365336000546120b8565b15156001146123865760405162461bcd60e51b815260040161053990613a6f565b6000868461239482826120b8565b156123b15760405162461bcd60e51b815260040161053990613ac6565b600089876123bf8282612e91565b156123dc5760405162461bcd60e51b8152600401610539906139c8565b600073__AddressLibrary________________________634d84c5248e6040518263ffffffff1660e01b81526004016124159190613852565b60206040518083038186803b15801561242d57600080fd5b505af4158015612441573d6000803e3d6000fd5b505050506040513d601f19601f8201168201806040525081019061246591906136a6565b60408051600180825281830190925291925060009190602080830190803683370190505090508a8160008151811061249f5761249f613ce2565b60200260200101818152505060006040518060c001604052808481526020018f8f8080601f0160208091040260200160405190810160405280939291908181526020018383808284376000920191909152505050908252506001546020820152600380546040909201918f90811061251957612519613ce2565b90600052602060002001805461252e90613c76565b80601f016020809104026020016040519081016040528092919081815260200182805461255a90613c76565b80156125a75780601f1061257c576101008083540402835291602001916125a7565b820191906000526020600020905b81548152906001019060200180831161258a57829003601f168201915b50505050508152602001838152602001600115158152509050600060028d815481106125d5576125d5613ce2565b9060005260206000209060040201905073__ItemsLibrary__________________________630b985aaa8383306040518463ffffffff1660e01b815260040161262093929190613ae3565b60006040518083038186803b15801561263857600080fd5b505af415801561264c573d6000803e3d6000fd5b5050505050505050505050505050505050505050565b60025460405163123bd07560e11b815260609160009184919073__Library_______________________________90632477a0ea906126a79085908590600401613950565b60206040518083038186803b1580156126bf57600080fd5b505af41580156126d3573d6000803e3d6000fd5b505050506040513d601f19601f820116820180604052508101906126f79190613689565b15156001146127185760405162461bcd60e51b815260040161053990613a8c565b604051631361314960e21b815260009073__AddressLibrary________________________90634d84c52490612752908a90600401613852565b60206040518083038186803b15801561276a57600080fd5b505af415801561277e573d6000803e3d6000fd5b505050506040513d601f19601f820116820180604052508101906127a291906136a6565b905073__ItemsLibrary__________________________631aeccc6a82600289815481106127d2576127d2613ce2565b90600052602060002090600402016040518363ffffffff1660e01b81526004016127fd929190613950565b60006040518083038186803b15801561281557600080fd5b505af4158015612829573d6000803e3d6000fd5b505050506040513d6000823e601f3d908101601f191682016040526128519190810190613780565b945094505050509250929050565b604051630d1d719d60e41b8152309073__Library_______________________________9063d1d719d090612898908490600401613852565b60206040518083038186803b1580156128b057600080fd5b505af41580156128c4573d6000803e3d6000fd5b505050506040513d601f19601f820116820180604052508101906128e89190613689565b15156001146129095760405162461bcd60e51b815260040161053990613aa9565b5050505050565b60008161294e57600260018154811061292b5761292b613ce2565b600091825260208083208684526004909202909101905260409020600301612981565b600260018154811061296257612962613ce2565b6000918252602080832086845260049092029091019052604090206002015b8054806020026020016040519081016040528092919081815260200182805480156129d557602002820191906000526020600020905b81546001600160a01b031681526001909101906020018083116129b7575b5050505050905060005b815181101561071f5760085482516001600160a01b039091169063eb1e2a4190849084908110612a1157612a11613ce2565b602002602001015184516040518363ffffffff1660e01b8152600401612a4c9291906001600160a01b03929092168252602082015260400190565b600060405180830381600087803b158015612a6657600080fd5b505af1158015612a7a573d6000803e3d6000fd5b505050508080612a8990613cb1565b9150506129df565b60025460405163123bd07560e11b8152606091829184919073__Library_______________________________90632477a0ea90612ad59085908590600401613950565b60206040518083038186803b158015612aed57600080fd5b505af4158015612b01573d6000803e3d6000fd5b505050506040513d601f19601f82011682018060405250810190612b259190613689565b1515600114612b465760405162461bcd60e51b815260040161053990613a8c565b60608073__ItemsLibrary__________________________63e035e0068960028a81548110612b7757612b77613ce2565b90600052602060002090600402016040518363ffffffff1660e01b8152600401612bad9291909115158252602082015260400190565b60006040518083038186803b158015612bc557600080fd5b505af4158015612bd9573d6000803e3d6000fd5b505050506040513d6000823e601f3d908101601f19168201604052612c019190810190613592565b604051635f2e8a5d60e01b8152919350915073__AddressLibrary________________________90635f2e8a5d90612c3d90859060040161390c565b60006040518083038186803b158015612c5557600080fd5b505af4158015612c69573d6000803e3d6000fd5b505050506040513d6000823e601f3d908101601f19168201604052612c91919081019061332b565b9890975095505050505050565b60025460405163123bd07560e11b8152600091839173__Library_______________________________90632477a0ea90612cdf9085908590600401613950565b60206040518083038186803b158015612cf757600080fd5b505af4158015612d0b573d6000803e3d6000fd5b505050506040513d601f19601f82011682018060405250810190612d2f9190613689565b1515600114612d505760405162461bcd60e51b815260040161053990613a8c565b604051631361314960e21b815260009073__AddressLibrary________________________90634d84c52490612d8a908990600401613852565b60206040518083038186803b158015612da257600080fd5b505af4158015612db6573d6000803e3d6000fd5b505050506040513d601f19601f82011682018060405250810190612dda91906136a6565b905073__ItemsLibrary__________________________632854ed2e826002888154811061222457612224613ce2565b600454610100900460ff1680612e23575060045460ff16155b612e3f5760405162461bcd60e51b815260040161053990613a21565b600454610100900460ff16158015612e61576004805461ffff19166101011790555b600780546001600160a01b0319166001600160a01b03841617905580156105c2576004805461ff00191690555050565b60025460405163123bd07560e11b8152600091839173__Library_______________________________90632477a0ea90612ed29085908590600401613950565b60206040518083038186803b158015612eea57600080fd5b505af4158015612efe573d6000803e3d6000fd5b505050506040513d601f19601f82011682018060405250810190612f229190613689565b1515600114612f435760405162461bcd60e51b815260040161053990613a8c565b604051631361314960e21b815260009073__AddressLibrary________________________90634d84c52490612f7d908990600401613852565b60206040518083038186803b158015612f9557600080fd5b505af4158015612fa9573d6000803e3d6000fd5b505050506040513d601f19601f82011682018060405250810190612fcd91906136a6565b905073__ItemsLibrary__________________________6226d766826002888154811061222457612224613ce2565b82805461300890613c76565b90600052602060002090601f01602090048101928261302a5760008555613070565b82601f1061304357805160ff1916838001178555613070565b82800160010185558215613070579182015b82811115613070578251825591602001919060010190613055565b5061307c929150613080565b5090565b5b8082111561307c5760008155600101613081565b600082601f8301126130a657600080fd5b813560206130bb6130b683613bd1565b613ba1565b80838252828201915082860187848660051b89010111156130db57600080fd5b60005b858110156131035781356130f181613d0e565b845292840192908401906001016130de565b5090979650505050505050565b600082601f83011261312157600080fd5b815160206131316130b683613bd1565b80838252828201915082860187848660051b890101111561315157600080fd5b60005b8581101561310357815184529284019290840190600101613154565b600082601f83011261318157600080fd5b813561318f6130b682613bf4565b8181528460208386010111156131a457600080fd5b816020850160208301376000918101602001919091529392505050565b600082601f8301126131d257600080fd5b81516131e06130b682613bf4565b8181528460208386010111156131f557600080fd5b611785826020830160208701613c4a565b60006020828403121561321857600080fd5b81356108c481613d0e565b60008060006040848603121561323857600080fd5b833561324381613d0e565b925060208401356001600160401b038082111561325f57600080fd5b818601915086601f83011261327357600080fd5b81358181111561328257600080fd5b87602082850101111561329457600080fd5b6020830194508093505050509250925092565b600080604083850312156132ba57600080fd5b82356132c581613d0e565b915060208301356001600160401b038111156132e057600080fd5b6132ec85828601613170565b9150509250929050565b60008060006060848603121561330b57600080fd5b833561331681613d0e565b95602085013595506040909401359392505050565b6000602080838503121561333e57600080fd5b82516001600160401b0381111561335457600080fd5b8301601f8101851361336557600080fd5b80516133736130b682613bd1565b80828252848201915084840188868560051b870101111561339357600080fd5b600094505b838510156133bf5780516133ab81613d0e565b835260019490940193918501918501613398565b50979650505050505050565b600080604083850312156133de57600080fd5b82356001600160401b038111156133f457600080fd5b61340085828601613095565b95602094909401359450505050565b60008060006060848603121561342457600080fd5b83356001600160401b0381111561343a57600080fd5b61344686828701613095565b93505060208401359150604084013561345e81613d0e565b809150509250925092565b600080600080600060a0868803121561348157600080fd5b85356001600160401b038082111561349857600080fd5b6134a489838a01613095565b965060209150818801359550604088013594506060880135818111156134c957600080fd5b8801601f81018a136134da57600080fd5b80356134e86130b682613bd1565b8082825285820191508584018d878560051b870101111561350857600080fd5b60005b8481101561354257868235111561352157600080fd5b6135308f898435890101613170565b8452928701929087019060010161350b565b5050809750505050505050608086013590509295509295909350565b60006020828403121561357057600080fd5b81516001600160401b0381111561358657600080fd5b61178584828501613110565b600080604083850312156135a557600080fd5b82516001600160401b03808211156135bc57600080fd5b6135c886838701613110565b93506020915081850151818111156135df57600080fd5b8501601f810187136135f057600080fd5b80516135fe6130b682613bd1565b8082825285820191508584018a878560051b870101111561361e57600080fd5b6000805b8581101561365957825188811115613638578283fd5b6136468e8b838b01016131c1565b8652509388019391880191600101613622565b5050508096505050505050509250929050565b60006020828403121561367e57600080fd5b81356108c481613d23565b60006020828403121561369b57600080fd5b81516108c481613d23565b6000602082840312156136b857600080fd5b5051919050565b600080604083850312156136d257600080fd5b8235915060208301356136e481613d0e565b809150509250929050565b6000806000806060858703121561370557600080fd5b8435935060208501356001600160401b038082111561372357600080fd5b818701915087601f83011261373757600080fd5b81358181111561374657600080fd5b8860208260051b850101111561375b57600080fd5b602083019550809450505050604085013561377581613d23565b939692955090935050565b6000806040838503121561379357600080fd5b82516001600160401b038111156137a957600080fd5b6137b5858286016131c1565b92505060208301516136e481613d23565b600081518084526020808501945080840160005b838110156137ff5781516001600160a01b0316875295820195908201906001016137da565b509495945050505050565b60008151808452613822816020860160208601613c4a565b601f01601f19169290920160200192915050565b60008251613848818460208701613c4a565b9190910192915050565b6001600160a01b0391909116815260200190565b6001600160a01b039390931683526020830191909152604082015260600190565b6020815260006108c460208301846137c6565b6040815260006138ad60408301856137c6565b6020838203818501528185518084528284019150828160051b85010183880160005b838110156138fd57601f198784030185526138eb83835161380a565b948601949250908501906001016138cf565b50909998505050505050505050565b6020808252825182820181905260009190848201906040850190845b8181101561394457835183529284019291840191600101613928565b50909695505050505050565b918252602082015260400190565b602081016003831061398057634e487b7160e01b600052602160045260246000fd5b91905290565b604081526000613999604083018561380a565b905082151560208301529392505050565b6020808252600490820152634543313960e01b604082015260600190565b6020808252600490820152634543323760e01b604082015260600190565b60208082526003908201526245433560e81b604082015260600190565b60208082526004908201526308a8664760e31b604082015260600190565b6020808252602e908201527f496e697469616c697a61626c653a20636f6e747261637420697320616c72656160408201526d191e481a5b9a5d1a585b1a5e995960921b606082015260800190565b60208082526003908201526245433960e81b604082015260600190565b60208082526003908201526245433160e81b604082015260600190565b60208082526003908201526208a86760eb1b604082015260600190565b60208082526003908201526222a19b60e91b604082015260600190565b6060815283516060820152600060208086015160c06080850152613b0b61012085018261380a565b9050604087015160a08501526060870151605f19808684030160c0870152613b33838361380a565b60808a015187820390920160e088015281518082529185019350600092508401905b80831015613b755783518252928401926001929092019190840190613b55565b5060a0890151151561010087015292850187905250506001600160a01b03841660408401529050611785565b604051601f8201601f191681016001600160401b0381118282101715613bc957613bc9613cf8565b604052919050565b60006001600160401b03821115613bea57613bea613cf8565b5060051b60200190565b60006001600160401b03821115613c0d57613c0d613cf8565b50601f01601f191660200190565b60008219821115613c2e57613c2e613ccc565b500190565b600082821015613c4557613c45613ccc565b500390565b60005b83811015613c65578181015183820152602001613c4d565b8381111561071f5750506000910152565b600181811c90821680613c8a57607f821691505b60208210811415613cab57634e487b7160e01b600052602260045260246000fd5b50919050565b6000600019821415613cc557613cc5613ccc565b5060010190565b634e487b7160e01b600052601160045260246000fd5b634e487b7160e01b600052603260045260246000fd5b634e487b7160e01b600052604160045260246000fd5b6001600160a01b03811681146104fb57600080fd5b80151581146104fb57600080fdfea264697066735822122018d4a5fd370f9b2515e30c90a2d08f020918b3bdb99ff04113af7ba3ad1e808064736f6c63430008060033",
  "immutableReferences": {},
  "source": "// SPDX-License-Identifier: GPL-3.0\r\n\r\npragma solidity >=0.7.0 <0.9.0;\r\npragma experimental ABIEncoderV2;\r\n\r\n/**\r\n * @title Storage\r\n * @dev Store & retrieve value in a variable\r\n */\r\n\r\n import \"../Abstract/MultiSigCertificatesPool.sol\";\r\n import \"./Treasury.sol\";\r\n import \"../Libraries/Library.sol\";\r\n import \"../Base/ManagedBaseContract.sol\";\r\n import \"../Libraries/AddressLibrary.sol\";\r\n import \"@openzeppelin/contracts-upgradeable/proxy/utils/Initializable.sol\";\r\n\r\n contract PublicCertificatesPool is Initializable, MultiSigCertificatesPool, ManagedBaseContract {\r\n    using Library for *;\r\n    using AddressLibrary for *;\r\n\r\n    // EVENTS\r\n    event _SendProposalId(address, address indexed,  string indexed);\r\n\r\n    // DATA\r\n    // Treasury\r\n    Treasury _Treasury;\r\n\r\n    // CONSTRUCTOR\r\n    /*constructor(address[] memory owners,  uint256 minOwners, address managerContractAddress)\r\n    MultiSigCertificatesPool(owners, minOwners) \r\n    ManagedBaseContract(managerContractAddress) \r\n    {}*/\r\n\r\n    function PublicCertPool_init(address[] memory owners,  uint256 minOwners, address managerContractAddress) public initializer {\r\n        super.MultiSigCertPool_init(owners, minOwners); \r\n        super.ManagedBaseContract_init(managerContractAddress); \r\n    }\r\n\r\n    // FUNCTIONALITY\r\n    function updateContracts(address TreasuryAddressProxy) external\r\n        isFromManagerContract()\r\n    {\r\n        _Treasury = Treasury(TreasuryAddressProxy);\r\n    }\r\n\r\n    function addProvider(address provider, string memory providerInfo) external \r\n        isEntityActivated(false, provider, _providerId) \r\n        isEntityPendingToAdd(false, provider, _providerId)\r\n    override payable\r\n    {\r\n        _Treasury.pay{value:msg.value}(Library.Prices.NewProvider);\r\n        bytes32 providerInBytes = AddressLibrary.AddressToBytes(provider);\r\n        _Entities[_providerId]._items[providerInBytes]._Info = providerInfo;\r\n        _Entities[_providerId]._pendingItemsAdd.push(providerInBytes);\r\n\r\n        emit _SendProposalId(address(this), provider, providerInfo);\r\n    }\r\n\r\n    function payBack(bytes32 entityInBytes, bool validatedOrRejected) internal\r\n    {\r\n        address[] memory Voters = (validatedOrRejected) ? _Entities[_providerId]._items[entityInBytes]._Validations : _Entities[_providerId]._items[entityInBytes]._Rejections;\r\n\r\n        for(uint i=0; i < Voters.length; i++){\r\n            _Treasury.getRefund(Voters[i], Voters.length);\r\n        }\r\n    }\r\n\r\n    function addCertificate(bytes32 CertificateHash, address holder) external override payable\r\n    {\r\n        _Treasury.pay{value:msg.value}(Library.Prices.NewCertificate);\r\n        addCertificateInternal(CertificateHash, holder);\r\n    }\r\n\r\n    // Callback functions\r\n\r\n    function onItemValidated(bytes32 item, uint256[] calldata ids, bool addOrRemove) public override \r\n    {\r\n        super.onItemValidated(item, ids, addOrRemove);\r\n\r\n        if(ids[0] == _providerId){\r\n            if(addOrRemove)payBack(item, true);\r\n        }\r\n    }\r\n\r\n    function onItemRejected(bytes32 item, uint256[] calldata ids, bool addOrRemove) public override  \r\n    {\r\n        super.onItemRejected(item, ids, addOrRemove);\r\n\r\n        if(ids[0] == _providerId){\r\n            if(addOrRemove)payBack(item, false);\r\n        }\r\n    }\r\n\r\n }",
  "sourcePath": "C:\\Users\\d-aam\\GitHub\\Certificates\\contracts\\DeployedContracts\\PublicCertificatesPool.sol",
  "compiler": {
    "name": "solc",
    "version": "0.8.6+commit.11564f7e.Emscripten.clang"
  },
  "schemaVersion": "3.3.4",
  "updatedAt": "2021-08-03T08:49:08.123Z",
  "devdoc": {
    "kind": "dev",
    "methods": {},
    "version": 1
  },
  "userdoc": {
    "kind": "user",
    "methods": {},
    "version": 1
  }
}