{
  "contractName": "PublicCertificatesPool",
  "abi": [
    {
      "anonymous": false,
      "inputs": [
        {
          "indexed": true,
          "internalType": "address",
          "name": "",
          "type": "address"
        },
        {
          "indexed": true,
          "internalType": "address",
          "name": "",
          "type": "address"
        },
        {
          "indexed": false,
          "internalType": "bytes32",
          "name": "",
          "type": "bytes32"
        }
      ],
      "name": "_AddCertificate",
      "type": "event"
    },
    {
      "anonymous": false,
      "inputs": [
        {
          "indexed": true,
          "internalType": "address",
          "name": "",
          "type": "address"
        },
        {
          "indexed": true,
          "internalType": "string",
          "name": "",
          "type": "string"
        }
      ],
      "name": "_NewProposal",
      "type": "event"
    },
    {
      "inputs": [
        {
          "internalType": "address[]",
          "name": "owners",
          "type": "address[]"
        },
        {
          "internalType": "uint256",
          "name": "minOwners",
          "type": "uint256"
        }
      ],
      "name": "MultiSigCertPool_init",
      "outputs": [],
      "stateMutability": "nonpayable",
      "type": "function"
    },
    {
      "inputs": [
        {
          "internalType": "address[]",
          "name": "owners",
          "type": "address[]"
        },
        {
          "internalType": "uint256",
          "name": "minOwners",
          "type": "uint256"
        },
        {
          "internalType": "uint256",
          "name": "TotalEntities",
          "type": "uint256"
        },
        {
          "internalType": "string[]",
          "name": "labels",
          "type": "string[]"
        },
        {
          "internalType": "uint256",
          "name": "ownerId",
          "type": "uint256"
        }
      ],
      "name": "MultiSigContract_init",
      "outputs": [],
      "stateMutability": "nonpayable",
      "type": "function"
    },
    {
      "inputs": [
        {
          "internalType": "address",
          "name": "owner",
          "type": "address"
        },
        {
          "internalType": "string",
          "name": "ownerInfo",
          "type": "string"
        }
      ],
      "name": "addOwner",
      "outputs": [],
      "stateMutability": "nonpayable",
      "type": "function"
    },
    {
      "inputs": [
        {
          "internalType": "uint256",
          "name": "newMinOwners",
          "type": "uint256"
        }
      ],
      "name": "changeMinOwners",
      "outputs": [],
      "stateMutability": "nonpayable",
      "type": "function"
    },
    {
      "inputs": [],
      "name": "rejectMinOwners",
      "outputs": [],
      "stateMutability": "nonpayable",
      "type": "function"
    },
    {
      "inputs": [
        {
          "internalType": "address",
          "name": "owner",
          "type": "address"
        }
      ],
      "name": "rejectOwner",
      "outputs": [],
      "stateMutability": "nonpayable",
      "type": "function"
    },
    {
      "inputs": [
        {
          "internalType": "address",
          "name": "provider",
          "type": "address"
        }
      ],
      "name": "rejectProvider",
      "outputs": [],
      "stateMutability": "nonpayable",
      "type": "function"
    },
    {
      "inputs": [
        {
          "internalType": "address",
          "name": "owner",
          "type": "address"
        }
      ],
      "name": "removeOwner",
      "outputs": [],
      "stateMutability": "nonpayable",
      "type": "function"
    },
    {
      "inputs": [
        {
          "internalType": "address",
          "name": "provider",
          "type": "address"
        }
      ],
      "name": "removeProvider",
      "outputs": [],
      "stateMutability": "nonpayable",
      "type": "function"
    },
    {
      "inputs": [],
      "name": "retrieveAllOwners",
      "outputs": [
        {
          "internalType": "bytes32[]",
          "name": "",
          "type": "bytes32[]"
        }
      ],
      "stateMutability": "view",
      "type": "function"
    },
    {
      "inputs": [],
      "name": "retrieveAllProviders",
      "outputs": [
        {
          "internalType": "bytes32[]",
          "name": "",
          "type": "bytes32[]"
        }
      ],
      "stateMutability": "view",
      "type": "function"
    },
    {
      "inputs": [
        {
          "internalType": "bytes32",
          "name": "CertificateHash",
          "type": "bytes32"
        },
        {
          "internalType": "address",
          "name": "holder",
          "type": "address"
        }
      ],
      "name": "retrieveCertificateProvider",
      "outputs": [
        {
          "internalType": "address",
          "name": "",
          "type": "address"
        }
      ],
      "stateMutability": "view",
      "type": "function"
    },
    {
      "inputs": [
        {
          "internalType": "address",
          "name": "holder",
          "type": "address"
        },
        {
          "internalType": "uint256",
          "name": "skipFirst",
          "type": "uint256"
        },
        {
          "internalType": "uint256",
          "name": "max",
          "type": "uint256"
        }
      ],
      "name": "retrieveCertificatesByHolder",
      "outputs": [
        {
          "internalType": "bytes32[]",
          "name": "",
          "type": "bytes32[]"
        }
      ],
      "stateMutability": "view",
      "type": "function"
    },
    {
      "inputs": [],
      "name": "retrieveMinOwners",
      "outputs": [
        {
          "internalType": "uint256",
          "name": "",
          "type": "uint256"
        }
      ],
      "stateMutability": "view",
      "type": "function"
    },
    {
      "inputs": [
        {
          "internalType": "address",
          "name": "owner",
          "type": "address"
        }
      ],
      "name": "retrieveOwner",
      "outputs": [
        {
          "internalType": "string",
          "name": "",
          "type": "string"
        },
        {
          "internalType": "bool",
          "name": "",
          "type": "bool"
        }
      ],
      "stateMutability": "view",
      "type": "function"
    },
    {
      "inputs": [],
      "name": "retrievePendingMinOwners",
      "outputs": [
        {
          "internalType": "uint256",
          "name": "",
          "type": "uint256"
        }
      ],
      "stateMutability": "view",
      "type": "function"
    },
    {
      "inputs": [
        {
          "internalType": "bool",
          "name": "addedORremove",
          "type": "bool"
        }
      ],
      "name": "retrievePendingOwners",
      "outputs": [
        {
          "internalType": "bytes32[]",
          "name": "",
          "type": "bytes32[]"
        },
        {
          "internalType": "string[]",
          "name": "",
          "type": "string[]"
        }
      ],
      "stateMutability": "view",
      "type": "function"
    },
    {
      "inputs": [
        {
          "internalType": "bool",
          "name": "addedORremove",
          "type": "bool"
        }
      ],
      "name": "retrievePendingProviders",
      "outputs": [
        {
          "internalType": "bytes32[]",
          "name": "",
          "type": "bytes32[]"
        },
        {
          "internalType": "string[]",
          "name": "",
          "type": "string[]"
        }
      ],
      "stateMutability": "view",
      "type": "function"
    },
    {
      "inputs": [
        {
          "internalType": "address",
          "name": "provider",
          "type": "address"
        }
      ],
      "name": "retrieveProvider",
      "outputs": [
        {
          "internalType": "string",
          "name": "",
          "type": "string"
        },
        {
          "internalType": "bool",
          "name": "",
          "type": "bool"
        }
      ],
      "stateMutability": "view",
      "type": "function"
    },
    {
      "inputs": [
        {
          "internalType": "address",
          "name": "holder",
          "type": "address"
        }
      ],
      "name": "retrieveTotalCertificatesByHolder",
      "outputs": [
        {
          "internalType": "uint256",
          "name": "",
          "type": "uint256"
        }
      ],
      "stateMutability": "view",
      "type": "function"
    },
    {
      "inputs": [],
      "name": "validateMinOwners",
      "outputs": [],
      "stateMutability": "nonpayable",
      "type": "function"
    },
    {
      "inputs": [
        {
          "internalType": "address",
          "name": "owner",
          "type": "address"
        }
      ],
      "name": "validateOwner",
      "outputs": [],
      "stateMutability": "nonpayable",
      "type": "function"
    },
    {
      "inputs": [
        {
          "internalType": "address",
          "name": "provider",
          "type": "address"
        }
      ],
      "name": "validateProvider",
      "outputs": [],
      "stateMutability": "nonpayable",
      "type": "function"
    },
    {
      "inputs": [
        {
          "internalType": "address[]",
          "name": "owners",
          "type": "address[]"
        },
        {
          "internalType": "uint256",
          "name": "minOwners",
          "type": "uint256"
        },
        {
          "internalType": "address",
          "name": "managerContractAddress",
          "type": "address"
        }
      ],
      "name": "PublicCertPool_init",
      "outputs": [],
      "stateMutability": "nonpayable",
      "type": "function"
    },
    {
      "inputs": [
        {
          "internalType": "address",
          "name": "provider",
          "type": "address"
        },
        {
          "internalType": "string",
          "name": "providerInfo",
          "type": "string"
        }
      ],
      "name": "addProvider",
      "outputs": [],
      "stateMutability": "payable",
      "type": "function"
    },
    {
      "inputs": [
        {
          "internalType": "bytes32",
          "name": "CertificateHash",
          "type": "bytes32"
        },
        {
          "internalType": "address",
          "name": "holder",
          "type": "address"
        }
      ],
      "name": "addCertificate",
      "outputs": [],
      "stateMutability": "payable",
      "type": "function"
    },
    {
      "inputs": [
        {
          "internalType": "bytes32",
          "name": "item",
          "type": "bytes32"
        },
        {
          "internalType": "uint256[]",
          "name": "ids",
          "type": "uint256[]"
        },
        {
          "internalType": "bool",
          "name": "addOrRemove",
          "type": "bool"
        }
      ],
      "name": "onItemValidated",
      "outputs": [],
      "stateMutability": "nonpayable",
      "type": "function"
    },
    {
      "inputs": [
        {
          "internalType": "bytes32",
          "name": "item",
          "type": "bytes32"
        },
        {
          "internalType": "uint256[]",
          "name": "ids",
          "type": "uint256[]"
        },
        {
          "internalType": "bool",
          "name": "addOrRemove",
          "type": "bool"
        }
      ],
      "name": "onItemRejected",
      "outputs": [],
      "stateMutability": "nonpayable",
      "type": "function"
    }
  ],
  "bytecode": "0x608060405234801561001057600080fd5b5061435b806100206000396000f3fe6080604052600436106101475760003560e01c80630b4c72a91461014c578063173825d91461016e5780631ab807f81461018e57806327a40b4b146101a15780632edbe7fc146101c157806330ade922146101e55780633542758f146101fa578063375834991461021a5780633fd071811461024857806358a1ba251461026857806365b973e5146102955780636b299604146102aa5780636b3a0fec146102d85780636e4f9179146102f85780636e55d2d41461030d57806376f8f90f1461032d57806377bc5a1f1461034d5780637c8c2add1461036d5780638a355a571461038d5780639580fc6c146103ad578063a93d5ed6146103cd578063c3079ae7146103e2578063c3ccb191146103f7578063c66433ea14610417578063ce33d58a14610437578063cf2041d914610457578063d0a4adfe14610477578063fc000500146104ca575b600080fd5b34801561015857600080fd5b5061016c61016736600461382c565b6104dd565b005b34801561017a57600080fd5b5061016c61018936600461382c565b6104eb565b61016c61019c366004613c60565b610540565b3480156101ad57600080fd5b5061016c6101bc36600461382c565b610633565b3480156101cd57600080fd5b506005545b6040519081526020015b60405180910390f35b3480156101f157600080fd5b5061016c61063e565b34801561020657600080fd5b5061016c610215366004613866565b61073d565b34801561022657600080fd5b5061023a61023536600461382c565b61074b565b6040516101dc929190613f52565b34801561025457600080fd5b5061016c610263366004613c90565b610763565b34801561027457600080fd5b50610288610283366004613939565b6107a8565b6040516101dc9190613e97565b3480156102a157600080fd5b506001546101d2565b3480156102b657600080fd5b506102ca6102c5366004613c0d565b61094e565b6040516101dc929190613eaa565b3480156102e457600080fd5b506102ca6102f3366004613c0d565b61095d565b34801561030457600080fd5b5061028861096b565b34801561031957600080fd5b506101d261032836600461382c565b61097c565b34801561033957600080fd5b5061016c61034836600461382c565b61099a565b34801561035957600080fd5b5061023a61036836600461382c565b6109f5565b34801561037957600080fd5b5061016c610388366004613c90565b610a05565b34801561039957600080fd5b5061016c6103a836600461382c565b610a44565b3480156103b957600080fd5b5061016c6103c83660046139b2565b610a4f565b3480156103d957600080fd5b50610288610ad0565b3480156103ee57600080fd5b5061016c610add565b34801561040357600080fd5b5061016c61041236600461396e565b610bdc565b34801561042357600080fd5b5061016c610432366004613d67565b610e0b565b34801561044357600080fd5b5061016c61045236600461382c565b610ef6565b34801561046357600080fd5b5061016c610472366004613a0c565b610f02565b34801561048357600080fd5b506104bd610492366004613c60565b6001600160a01b039081166000908152600a6020908152604080832094835293905291909120541690565b6040516101dc9190613e03565b61016c6104d83660046138ea565b6111ad565b6104e88160016114bb565b50565b60015460016104fb60005461198c565b516105069190614227565b8082111561052f5760405162461bcd60e51b815260040161052690613fd2565b60405180910390fd5b61053b83600054611af3565b505050565b600b60009054906101000a90046001600160a01b03166001600160a01b0316635a3794e96040518163ffffffff1660e01b815260040160206040518083038186803b15801561058e57600080fd5b505afa1580156105a2573d6000803e3d6000fd5b505050506040513d601f19601f820116820180604052508101906105c69190613849565b6001600160a01b031663f0c9325e3460026040518363ffffffff1660e01b81526004016105f39190613f2a565b6000604051808303818588803b15801561060c57600080fd5b505af1158015610620573d6000803e3d6000fd5b505050505061062f8282611e5d565b5050565b6104e8816001611f8f565b61064a33600054612420565b151560011461066b5760405162461bcd60e51b81526004016105269061409b565b600160055461068c5760405162461bcd60e51b815260040161052690613ff1565b60405163f7cf62d760e01b815273__AddressLibrary________________________9063f7cf62d7906106c6903390600890600401613e17565b60206040518083038186803b1580156106de57600080fd5b505af41580156106f2573d6000803e3d6000fd5b505050506040513d601f19601f820116820180604052508101906107169190613c2a565b156107335760405162461bcd60e51b8152600401610526906140b9565b6104e86001612611565b61053b838383600054612698565b6060600061075a836001612a51565b91509150915091565b61076f84848484612c4e565b600183836000818110610784576107846142d6565b9050602002013514156107a25780156107a2576107a2846000612d18565b50505050565b6060826107b48561097c565b116107ce5750604080516000815260208101909152610947565b8180846107da8761097c565b6107e49190614227565b101561080157836107f48661097c565b6107fe9190614227565b90505b6000816001600160401b0381111561081b5761081b6142ec565b604051908082528060200260200182016040528015610844578160200160208202803683370190505b506001600160a01b0387166000908152600a60209081526040808320600101805482518185028101850190935280835294955092939092918301828280156108ab57602002820191906000526020600020905b815481526020019060010190808311610897575b5050505050905060008060005b835181101561093e578783106108cd5761093e565b818911156108e7576108e060018361420f565b915061092c565b8381815181106108f9576108f96142d6565b6020026020010151858481518110610913576109136142d6565b602090810291909101015261092960018461420f565b92505b80610936816142a5565b9150506108b8565b50929450505050505b9392505050565b60608061075a83600054612f13565b60608061075a836001612f13565b6060610977600161198c565b905090565b6001600160a01b03166000908152600a602052604090206001015490565b6109a681600054613092565b1515600114156109e95760016109bd60005461198c565b516109c89190614227565b60015411156109e95760405162461bcd60e51b815260040161052690613fd2565b6104e881600054611f8f565b6060600061075a83600054612a51565b610a1184848484612c4e565b600183836000818110610a2657610a266142d6565b9050602002013514156107a25780156107a2576107a2846001612d18565b6104e8816001611af3565b600454610100900460ff1680610a68575060045460ff16155b610a845760405162461bcd60e51b81526004016105269061404d565b600454610100900460ff16158015610aa6576004805461ffff19166101011790555b610ab08484610bdc565b610ab9826131fe565b80156107a2576004805461ff001916905550505050565b606061097760005461198c565b610ae933600054612420565b1515600114610b0a5760405162461bcd60e51b81526004016105269061409b565b6001600554610b2b5760405162461bcd60e51b815260040161052690613ff1565b60405163f7cf62d760e01b815273__AddressLibrary________________________9063f7cf62d790610b65903390600890600401613e17565b60206040518083038186803b158015610b7d57600080fd5b505af4158015610b91573d6000803e3d6000fd5b505050506040513d601f19601f82011682018060405250810190610bb59190613c2a565b15610bd25760405162461bcd60e51b8152600401610526906140b9565b6104e86000612611565b600454610100900460ff1680610bf5575060045460ff16155b610c115760405162461bcd60e51b81526004016105269061404d565b600454610100900460ff16158015610c33576004805461ffff19166101011790555b6040805160028082526060820190925290816020015b6060815260200190600190039081610c495750508051610c7191600991602090910190613554565b506040518060400160405280600581526020016427bbb732b960d91b8152506009600081548110610ca457610ca46142d6565b906000526020600020019080519060200190610cc19291906135b1565b5060405180604001604052806008815260200167283937bb34b232b960c11b8152506009600181548110610cf757610cf76142d6565b906000526020600020019080519060200190610d149291906135b1565b50610df5838360026009805480602002602001604051908101604052809291908181526020016000905b82821015610dea578382906000526020600020018054610d5d9061426a565b80601f0160208091040260200160405190810160405280929190818152602001828054610d899061426a565b8015610dd65780601f10610dab57610100808354040283529160200191610dd6565b820191906000526020600020905b815481529060010190602001808311610db957829003601f168201915b505050505081526020019060010190610d3e565b505050506000610f02565b801561053b576004805461ff0019169055505050565b610e1733600054612420565b1515600114610e385760405162461bcd60e51b81526004016105269061409b565b600060055415610e725760405162461bcd60e51b8152602060048201526005602482015264454333302d60d81b6044820152606401610526565b81600260005481548110610e8857610e886142d6565b90600052602060002090600402016001018054905080821115610ebd5760405162461bcd60e51b815260040161052690613fd2565b600084818111610edf5760405162461bcd60e51b81526004016105269061402e565b6005869055610eee6001612611565b505050505050565b6104e8816000546114bb565b600454610100900460ff1680610f1b575060045460ff16155b610f375760405162461bcd60e51b81526004016105269061404d565b600454610100900460ff16158015610f59576004805461ffff19166101011790555b84865180821115610f7c5760405162461bcd60e51b815260040161052690613fd2565b600087818111610f9e5760405162461bcd60e51b81526004016105269061402e565b86518814610fd65760405162461bcd60e51b8152602060048201526005602482015264454331382d60d81b6044820152606401610526565b60008681555b8881101561104c576002805460010181556000528751600390899083908110611007576110076142d6565b6020908102919091018101518254600181018455600093845292829020815161103994919091019291909101906135b1565b5080611044816142a5565b915050610fdc565b50600189905560005b8a5181101561118f57600073__AddressLibrary________________________63bc215e858d848151811061108c5761108c6142d6565b60200260200101516040518263ffffffff1660e01b81526004016110b09190613e03565b60206040518083038186803b1580156110c857600080fd5b505af41580156110dc573d6000803e3d6000fd5b505050506040513d601f19601f820116820180604052508101906111009190613c47565b90506001600260005481548110611119576111196142d6565b60009182526020808320858452600492909202909101905260408120805460ff1916921515929092179091555460028054909190811061115b5761115b6142d6565b6000918252602080832060016004909302018201805492830181558352909120015580611187816142a5565b915050611055565b50505050508015610eee576004805461ff0019169055505050505050565b60008260016111bc8282612420565b156111d95760405162461bcd60e51b815260040161052690614010565b60008560016111e88282613285565b156112055760405162461bcd60e51b815260040161052690613f94565b600b60009054906101000a90046001600160a01b03166001600160a01b0316635a3794e96040518163ffffffff1660e01b815260040160206040518083038186803b15801561125357600080fd5b505afa158015611267573d6000803e3d6000fd5b505050506040513d601f19601f8201168201806040525081019061128b9190613849565b6001600160a01b031663f0c9325e3460006040518363ffffffff1660e01b81526004016112b89190613f2a565b6000604051808303818588803b1580156112d157600080fd5b505af11580156112e5573d6000803e3d6000fd5b505060405163bc215e8560e01b81526000935073__AddressLibrary________________________925063bc215e859150611324908c90600401613e03565b60206040518083038186803b15801561133c57600080fd5b505af4158015611350573d6000803e3d6000fd5b505050506040513d601f19601f820116820180604052508101906113749190613c47565b905087600260018154811061138b5761138b6142d6565b9060005260206000209060040201600001600083815260200190815260200160002060010190805190602001906113c39291906135b1565b5060026001815481106113d8576113d86142d6565b60009182526020808320600260049093020182018054600181810183559185529190932001839055805482908110611412576114126142d6565b9060005260206000209060040201600201805490506114319190614227565b6002600181548110611445576114456142d6565b60009182526020808320858452600490920290910190526040908190206003019190915551611475908990613de7565b604051908190038120906001600160a01b038b16907f39cde7834e26555dd63843df8459d36dd67b5bab6f4ed52349cbb03f66f542b190600090a3505050505050505050565b60025460405163123bd07560e11b815282919073__Library_______________________________90632477a0ea906114fa9085908590600401613f1c565b60206040518083038186803b15801561151257600080fd5b505af4158015611526573d6000803e3d6000fd5b505050506040513d601f19601f8201168201806040525081019061154a9190613c2a565b151560011461156b5760405162461bcd60e51b815260040161052690613f76565b61157733600054612420565b15156001146115985760405162461bcd60e51b81526004016105269061409b565b600184846115a68282613285565b1515600114806115c157506115bb8282613092565b15156001145b6115dd5760405162461bcd60e51b815260040161052690613fb3565b8686600073__AddressLibrary________________________63bc215e85846040518263ffffffff1660e01b81526004016116189190613e03565b60206040518083038186803b15801561163057600080fd5b505af4158015611644573d6000803e3d6000fd5b505050506040513d601f19601f820116820180604052508101906116689190613c47565b905073__ItemsLibrary__________________________637b6d23de338360028681548110611699576116996142d6565b90600052602060002090600402016040518463ffffffff1660e01b81526004016116c593929190613e76565b60206040518083038186803b1580156116dd57600080fd5b505af41580156116f1573d6000803e3d6000fd5b505050506040513d601f19601f820116820180604052508101906117159190613c2a565b156117325760405162461bcd60e51b8152600401610526906140b9565b60405163bc215e8560e01b815260009073__AddressLibrary________________________9063bc215e859061176c908e90600401613e03565b60206040518083038186803b15801561178457600080fd5b505af4158015611798573d6000803e3d6000fd5b505050506040513d601f19601f820116820180604052508101906117bc9190613c47565b60408051600180825281830190925291925060009190602080830190803683370190505090508a816000815181106117f6576117f66142d6565b60200260200101818152505060006040518060c00160405280848152602001604051806020016040528060008152508152602001600154815260200160038e81548110611845576118456142d6565b90600052602060002001805461185a9061426a565b80601f01602080910402602001604051908101604052809291908181526020018280546118869061426a565b80156118d35780601f106118a8576101008083540402835291602001916118d3565b820191906000526020600020905b8154815290600101906020018083116118b657829003601f168201915b50505050508152602001838152602001600115158152509050600060028d81548110611901576119016142d6565b9060005260206000209060040201905073__ItemsLibrary__________________________635cb09bcf8383306040518463ffffffff1660e01b815260040161194c939291906140d7565b60006040518083038186803b15801561196457600080fd5b505af4158015611978573d6000803e3d6000fd5b505050505050505050505050505050505050565b60025460405163123bd07560e11b8152606091839173__Library_______________________________90632477a0ea906119cd9085908590600401613f1c565b60206040518083038186803b1580156119e557600080fd5b505af41580156119f9573d6000803e3d6000fd5b505050506040513d601f19601f82011682018060405250810190611a1d9190613c2a565b1515600114611a3e5760405162461bcd60e51b815260040161052690613f76565b73__ItemsLibrary__________________________6327724f4b60028681548110611a6b57611a6b6142d6565b90600052602060002090600402016040518263ffffffff1660e01b8152600401611a9791815260200190565b60006040518083038186803b158015611aaf57600080fd5b505af4158015611ac3573d6000803e3d6000fd5b505050506040513d6000823e601f3d908101601f19168201604052611aeb9190810190613aff565b949350505050565b60025460405163123bd07560e11b815282919073__Library_______________________________90632477a0ea90611b329085908590600401613f1c565b60206040518083038186803b158015611b4a57600080fd5b505af4158015611b5e573d6000803e3d6000fd5b505050506040513d601f19601f82011682018060405250810190611b829190613c2a565b1515600114611ba35760405162461bcd60e51b815260040161052690613f76565b611baf33600054612420565b1515600114611bd05760405162461bcd60e51b81526004016105269061409b565b60018484611bde8282612420565b1515600114611c185760405162461bcd60e51b8152600401610526906020808252600490820152634543372d60e01b604082015260600190565b60008787611c268282613092565b15611c435760405162461bcd60e51b815260040161052690613f94565b60405163bc215e8560e01b815260009073__AddressLibrary________________________9063bc215e8590611c7d908e90600401613e03565b60206040518083038186803b158015611c9557600080fd5b505af4158015611ca9573d6000803e3d6000fd5b505050506040513d601f19601f82011682018060405250810190611ccd9190613c47565b60408051600180825281830190925291925060009190602080830190803683370190505090508a81600081518110611d0757611d076142d6565b60200260200101818152505060006040518060c00160405280848152602001604051806020016040528060008152508152602001600154815260200160038e81548110611d5657611d566142d6565b906000526020600020018054611d6b9061426a565b80601f0160208091040260200160405190810160405280929190818152602001828054611d979061426a565b8015611de45780601f10611db957610100808354040283529160200191611de4565b820191906000526020600020905b815481529060010190602001808311611dc757829003601f168201915b50505050508152602001838152602001600115158152509050600060028d81548110611e1257611e126142d6565b9060005260206000209060040201905073__ItemsLibrary__________________________63e23fcdef8383306040518463ffffffff1660e01b815260040161194c939291906140d7565b611e66336133f0565b1515600114611e9f5760405162461bcd60e51b8152602060048201526005602482015264454331322d60d81b6044820152606401610526565b816001600160a01b038083166000908152600a60209081526040808320878452909152902054839185911615611eff5760405162461bcd60e51b8152602060048201526005602482015264454331352d60d81b6044820152606401610526565b6001600160a01b0384166000818152600a602081815260408084208a855280835281852080546001600160a01b031916339081179091559383526001908101805491820181558552919093200188905590517ff55a90628981610edc26894247bee72e1963d1c9faa4ea6533fd3df39fd36ed490611f809089815260200190565b60405180910390a35050505050565b60025460405163123bd07560e11b815282919073__Library_______________________________90632477a0ea90611fce9085908590600401613f1c565b60206040518083038186803b158015611fe657600080fd5b505af4158015611ffa573d6000803e3d6000fd5b505050506040513d601f19601f8201168201806040525081019061201e9190613c2a565b151560011461203f5760405162461bcd60e51b815260040161052690613f76565b61204b33600054612420565b151560011461206c5760405162461bcd60e51b81526004016105269061409b565b6001848461207a8282613285565b151560011480612095575061208f8282613092565b15156001145b6120b15760405162461bcd60e51b815260040161052690613fb3565b8686600073__AddressLibrary________________________63bc215e85846040518263ffffffff1660e01b81526004016120ec9190613e03565b60206040518083038186803b15801561210457600080fd5b505af4158015612118573d6000803e3d6000fd5b505050506040513d601f19601f8201168201806040525081019061213c9190613c47565b905073__ItemsLibrary__________________________637b6d23de33836002868154811061216d5761216d6142d6565b90600052602060002090600402016040518463ffffffff1660e01b815260040161219993929190613e76565b60206040518083038186803b1580156121b157600080fd5b505af41580156121c5573d6000803e3d6000fd5b505050506040513d601f19601f820116820180604052508101906121e99190613c2a565b156122065760405162461bcd60e51b8152600401610526906140b9565b60405163bc215e8560e01b815260009073__AddressLibrary________________________9063bc215e8590612240908e90600401613e03565b60206040518083038186803b15801561225857600080fd5b505af415801561226c573d6000803e3d6000fd5b505050506040513d601f19601f820116820180604052508101906122909190613c47565b60408051600180825281830190925291925060009190602080830190803683370190505090508a816000815181106122ca576122ca6142d6565b60200260200101818152505060006040518060c00160405280848152602001604051806020016040528060008152508152602001600154815260200160038e81548110612319576123196142d6565b90600052602060002001805461232e9061426a565b80601f016020809104026020016040519081016040528092919081815260200182805461235a9061426a565b80156123a75780601f1061237c576101008083540402835291602001916123a7565b820191906000526020600020905b81548152906001019060200180831161238a57829003601f168201915b50505050508152602001838152602001600115158152509050600060028d815481106123d5576123d56142d6565b9060005260206000209060040201905073__ItemsLibrary__________________________637493a70b8383306040518463ffffffff1660e01b815260040161194c939291906140d7565b60025460405163123bd07560e11b8152600091839173__Library_______________________________90632477a0ea906124619085908590600401613f1c565b60206040518083038186803b15801561247957600080fd5b505af415801561248d573d6000803e3d6000fd5b505050506040513d601f19601f820116820180604052508101906124b19190613c2a565b15156001146124d25760405162461bcd60e51b815260040161052690613f76565b60405163bc215e8560e01b815260009073__AddressLibrary________________________9063bc215e859061250c908990600401613e03565b60206040518083038186803b15801561252457600080fd5b505af4158015612538573d6000803e3d6000fd5b505050506040513d601f19601f8201168201806040525081019061255c9190613c47565b905073__ItemsLibrary__________________________63dbdfbeec826002888154811061258c5761258c6142d6565b90600052602060002090600402016040518363ffffffff1660e01b81526004016125b7929190613f1c565b60206040518083038186803b1580156125cf57600080fd5b505af41580156125e3573d6000803e3d6000fd5b505050506040513d601f19601f820116820180604052508101906126079190613c2a565b9695505050505050565b80156126355760016006600082825461262a919061420f565b9091555061264e9050565b600160076000828254612648919061420f565b90915550505b600880546001810182556000919091527ff3f7a9fe364faab93b216da50a3214154f22a0a2b415b23a84c8169e8b636ee30180546001600160a01b031916331790556104e8613403565b60025460405163123bd07560e11b815282919073__Library_______________________________90632477a0ea906126d79085908590600401613f1c565b60206040518083038186803b1580156126ef57600080fd5b505af4158015612703573d6000803e3d6000fd5b505050506040513d601f19601f820116820180604052508101906127279190613c2a565b15156001146127485760405162461bcd60e51b815260040161052690613f76565b61275433600054612420565b15156001146127755760405162461bcd60e51b81526004016105269061409b565b600086846127838282612420565b156127a05760405162461bcd60e51b815260040161052690614010565b600089876127ae8282613285565b156127cb5760405162461bcd60e51b815260040161052690613f94565b600073__AddressLibrary________________________63bc215e858e6040518263ffffffff1660e01b81526004016128049190613e03565b60206040518083038186803b15801561281c57600080fd5b505af4158015612830573d6000803e3d6000fd5b505050506040513d601f19601f820116820180604052508101906128549190613c47565b60408051600180825281830190925291925060009190602080830190803683370190505090508a8160008151811061288e5761288e6142d6565b60200260200101818152505060006040518060c001604052808481526020018f8f8080601f0160208091040260200160405190810160405280939291908181526020018383808284376000920191909152505050908252506001546020820152600380546040909201918f908110612908576129086142d6565b90600052602060002001805461291d9061426a565b80601f01602080910402602001604051908101604052809291908181526020018280546129499061426a565b80156129965780601f1061296b57610100808354040283529160200191612996565b820191906000526020600020905b81548152906001019060200180831161297957829003601f168201915b50505050508152602001838152602001600115158152509050600060028d815481106129c4576129c46142d6565b9060005260206000209060040201905073__ItemsLibrary__________________________630b985aaa8383306040518463ffffffff1660e01b8152600401612a0f939291906140d7565b60006040518083038186803b158015612a2757600080fd5b505af4158015612a3b573d6000803e3d6000fd5b5050505050505050505050505050505050505050565b60025460405163123bd07560e11b815260609160009184919073__Library_______________________________90632477a0ea90612a969085908590600401613f1c565b60206040518083038186803b158015612aae57600080fd5b505af4158015612ac2573d6000803e3d6000fd5b505050506040513d601f19601f82011682018060405250810190612ae69190613c2a565b1515600114612b075760405162461bcd60e51b815260040161052690613f76565b60405163bc215e8560e01b815260009073__AddressLibrary________________________9063bc215e8590612b41908a90600401613e03565b60206040518083038186803b158015612b5957600080fd5b505af4158015612b6d573d6000803e3d6000fd5b505050506040513d601f19601f82011682018060405250810190612b919190613c47565b905073__ItemsLibrary__________________________631aeccc6a8260028981548110612bc157612bc16142d6565b90600052602060002090600402016040518363ffffffff1660e01b8152600401612bec929190613f1c565b60006040518083038186803b158015612c0457600080fd5b505af4158015612c18573d6000803e3d6000fd5b505050506040513d6000823e601f3d908101601f19168201604052612c409190810190613d21565b945094505050509250929050565b604051630d1d719d60e41b8152309073__Library_______________________________9063d1d719d090612c87908490600401613e03565b60206040518083038186803b158015612c9f57600080fd5b505af4158015612cb3573d6000803e3d6000fd5b505050506040513d601f19601f82011682018060405250810190612cd79190613c2a565b1515600114612d115760405162461bcd60e51b8152600401610526906020808252600490820152634543382d60e01b604082015260600190565b5050505050565b600081612d56576002600181548110612d3357612d336142d6565b600091825260208083208684526004909202909101905260409020600501612d86565b6002600181548110612d6a57612d6a6142d6565b6000918252602080832086845260049283020190526040909120015b805480602002602001604051908101604052809291908181526020018280548015612dda57602002820191906000526020600020905b81546001600160a01b03168152600190910190602001808311612dbc575b5050505050905060005b81518110156107a257600b60009054906101000a90046001600160a01b03166001600160a01b0316635a3794e96040518163ffffffff1660e01b815260040160206040518083038186803b158015612e3b57600080fd5b505afa158015612e4f573d6000803e3d6000fd5b505050506040513d601f19601f82011682018060405250810190612e739190613849565b6001600160a01b031663eb1e2a41838381518110612e9357612e936142d6565b602002602001015184516040518363ffffffff1660e01b8152600401612ece9291906001600160a01b03929092168252602082015260400190565b600060405180830381600087803b158015612ee857600080fd5b505af1158015612efc573d6000803e3d6000fd5b505050508080612f0b906142a5565b915050612de4565b60025460405163123bd07560e11b8152606091829184919073__Library_______________________________90632477a0ea90612f579085908590600401613f1c565b60206040518083038186803b158015612f6f57600080fd5b505af4158015612f83573d6000803e3d6000fd5b505050506040513d601f19601f82011682018060405250810190612fa79190613c2a565b1515600114612fc85760405162461bcd60e51b815260040161052690613f76565b60608073__ItemsLibrary__________________________63e035e0068960028a81548110612ff957612ff96142d6565b90600052602060002090600402016040518363ffffffff1660e01b815260040161302f9291909115158252602082015260400190565b60006040518083038186803b15801561304757600080fd5b505af415801561305b573d6000803e3d6000fd5b505050506040513d6000823e601f3d908101601f191682016040526130839190810190613b33565b90999098509650505050505050565b60025460405163123bd07560e11b8152600091839173__Library_______________________________90632477a0ea906130d39085908590600401613f1c565b60206040518083038186803b1580156130eb57600080fd5b505af41580156130ff573d6000803e3d6000fd5b505050506040513d601f19601f820116820180604052508101906131239190613c2a565b15156001146131445760405162461bcd60e51b815260040161052690613f76565b60405163bc215e8560e01b815260009073__AddressLibrary________________________9063bc215e859061317e908990600401613e03565b60206040518083038186803b15801561319657600080fd5b505af41580156131aa573d6000803e3d6000fd5b505050506040513d601f19601f820116820180604052508101906131ce9190613c47565b905073__ItemsLibrary__________________________632854ed2e826002888154811061258c5761258c6142d6565b600454610100900460ff1680613217575060045460ff16155b6132335760405162461bcd60e51b81526004016105269061404d565b600454610100900460ff16158015613255576004805461ffff19166101011790555b600b80546001600160a01b0319166001600160a01b038416179055801561062f576004805461ff00191690555050565b60025460405163123bd07560e11b8152600091839173__Library_______________________________90632477a0ea906132c69085908590600401613f1c565b60206040518083038186803b1580156132de57600080fd5b505af41580156132f2573d6000803e3d6000fd5b505050506040513d601f19601f820116820180604052508101906133169190613c2a565b15156001146133375760405162461bcd60e51b815260040161052690613f76565b60405163bc215e8560e01b815260009073__AddressLibrary________________________9063bc215e8590613371908990600401613e03565b60206040518083038186803b15801561338957600080fd5b505af415801561339d573d6000803e3d6000fd5b505050506040513d601f19601f820116820180604052508101906133c19190613c47565b905073__ItemsLibrary__________________________6226d766826002888154811061258c5761258c6142d6565b60006133fd826001612420565b92915050565b60065460015460405163f6001d7d60e01b815273__ItemsLibrary__________________________9263f6001d7d9261343e92600401613f1c565b60206040518083038186803b15801561345657600080fd5b505af415801561346a573d6000803e3d6000fd5b505050506040513d601f19601f8201168201806040525081019061348e9190613c2a565b156134a3576005546001556134a1613537565b565b60075460015460405163f6001d7d60e01b815273__ItemsLibrary__________________________9263f6001d7d926134de92600401613f1c565b60206040518083038186803b1580156134f657600080fd5b505af415801561350a573d6000803e3d6000fd5b505050506040513d601f19601f8201168201806040525081019061352e9190613c2a565b156134a1576134a15b60006005819055600681905560078190556134a190600890613631565b8280548282559060005260206000209081019282156135a1579160200282015b828111156135a157825180516135919184916020909101906135b1565b5091602001919060010190613574565b506135ad92915061364f565b5090565b8280546135bd9061426a565b90600052602060002090601f0160209004810192826135df5760008555613625565b82601f106135f857805160ff1916838001178555613625565b82800160010185558215613625579182015b8281111561362557825182559160200191906001019061360a565b506135ad92915061366c565b50805460008255906000526020600020908101906104e8919061366c565b808211156135ad5760006136638282613681565b5060010161364f565b5b808211156135ad576000815560010161366d565b50805461368d9061426a565b6000825580601f1061369d575050565b601f0160209004906000526020600020908101906104e8919061366c565b600082601f8301126136cc57600080fd5b813560206136e16136dc836141c5565b614195565b80838252828201915082860187848660051b890101111561370157600080fd5b60005b8581101561372957813561371781614302565b84529284019290840190600101613704565b5090979650505050505050565b600082601f83011261374757600080fd5b815160206137576136dc836141c5565b80838252828201915082860187848660051b890101111561377757600080fd5b60005b858110156137295781518452928401929084019060010161377a565b600082601f8301126137a757600080fd5b81356137b56136dc826141e8565b8181528460208386010111156137ca57600080fd5b816020850160208301376000918101602001919091529392505050565b600082601f8301126137f857600080fd5b81516138066136dc826141e8565b81815284602083860101111561381b57600080fd5b611aeb82602083016020870161423e565b60006020828403121561383e57600080fd5b813561094781614302565b60006020828403121561385b57600080fd5b815161094781614302565b60008060006040848603121561387b57600080fd5b833561388681614302565b925060208401356001600160401b03808211156138a257600080fd5b818601915086601f8301126138b657600080fd5b8135818111156138c557600080fd5b8760208285010111156138d757600080fd5b6020830194508093505050509250925092565b600080604083850312156138fd57600080fd5b823561390881614302565b915060208301356001600160401b0381111561392357600080fd5b61392f85828601613796565b9150509250929050565b60008060006060848603121561394e57600080fd5b833561395981614302565b95602085013595506040909401359392505050565b6000806040838503121561398157600080fd5b82356001600160401b0381111561399757600080fd5b6139a3858286016136bb565b95602094909401359450505050565b6000806000606084860312156139c757600080fd5b83356001600160401b038111156139dd57600080fd5b6139e9868287016136bb565b935050602084013591506040840135613a0181614302565b809150509250925092565b600080600080600060a08688031215613a2457600080fd5b6001600160401b038635811015613a3a57600080fd5b613a4788883589016136bb565b9550602080880135955060408801359450606088013582811115613a6a57600080fd5b8801601f81018a13613a7b57600080fd5b8035613a896136dc826141c5565b8082825284820191508484018d868560051b8701011115613aa957600080fd5b60005b84811015613ae3578782351115613ac257600080fd5b613ad18f888435890101613796565b84529286019290860190600101613aac565b5050809750505050505050608086013590509295509295909350565b600060208284031215613b1157600080fd5b81516001600160401b03811115613b2757600080fd5b611aeb84828501613736565b60008060408385031215613b4657600080fd5b82516001600160401b0380821115613b5d57600080fd5b613b6986838701613736565b9350602091508185015181811115613b8057600080fd5b8501601f81018713613b9157600080fd5b8051613b9f6136dc826141c5565b8082825285820191508584018a878560051b8701011115613bbf57600080fd5b6000805b85811015613bfa57825188811115613bd9578283fd5b613be78e8b838b01016137e7565b8652509388019391880191600101613bc3565b5050508096505050505050509250929050565b600060208284031215613c1f57600080fd5b813561094781614317565b600060208284031215613c3c57600080fd5b815161094781614317565b600060208284031215613c5957600080fd5b5051919050565b60008060408385031215613c7357600080fd5b823591506020830135613c8581614302565b809150509250929050565b60008060008060608587031215613ca657600080fd5b8435935060208501356001600160401b0380821115613cc457600080fd5b818701915087601f830112613cd857600080fd5b813581811115613ce757600080fd5b8860208260051b8501011115613cfc57600080fd5b6020830195508094505050506040850135613d1681614317565b939692955090935050565b60008060408385031215613d3457600080fd5b82516001600160401b03811115613d4a57600080fd5b613d56858286016137e7565b9250506020830151613c8581614317565b600060208284031215613d7957600080fd5b5035919050565b600081518084526020808501945080840160005b83811015613db057815187529582019590820190600101613d94565b509495945050505050565b60008151808452613dd381602086016020860161423e565b601f01601f19169290920160200192915050565b60008251613df981846020870161423e565b9190910192915050565b6001600160a01b0391909116815260200190565b60006040820160018060a01b03808616845260206040818601528286548085526060870191508760005282600020945060005b81811015613e68578554851683526001958601959284019201613e4a565b509098975050505050505050565b6001600160a01b039390931683526020830191909152604082015260600190565b6020815260006109476020830184613d80565b604081526000613ebd6040830185613d80565b6020838203818501528185518084528284019150828160051b85010183880160005b83811015613f0d57601f19878403018552613efb838351613dbb565b94860194925090850190600101613edf565b50909998505050505050505050565b918252602082015260400190565b6020810160048310613f4c57634e487b7160e01b600052602160045260246000fd5b91905290565b604081526000613f656040830185613dbb565b905082151560208301529392505050565b6020808252600490820152634543312d60e01b604082015260600190565b602080825260059082015264454332372d60d81b604082015260600190565b602080825260059082015264454332382d60d81b604082015260600190565b602080825260059082015264454331392d60d81b604082015260600190565b602080825260059082015264454333312d60d81b604082015260600190565b6020808252600490820152634543362d60e01b604082015260600190565b602080825260059082015264454331372d60d81b604082015260600190565b6020808252602e908201527f496e697469616c697a61626c653a20636f6e747261637420697320616c72656160408201526d191e481a5b9a5d1a585b1a5e995960921b606082015260800190565b6020808252600490820152634543392d60e01b604082015260600190565b6020808252600490820152634543352d60e01b604082015260600190565b6060815283516060820152600060208086015160c060808501526140ff610120850182613dbb565b9050604087015160a08501526060870151605f19808684030160c08701526141278383613dbb565b60808a015187820390920160e088015281518082529185019350600092508401905b808310156141695783518252928401926001929092019190840190614149565b5060a0890151151561010087015292850187905250506001600160a01b03841660408401529050611aeb565b604051601f8201601f191681016001600160401b03811182821017156141bd576141bd6142ec565b604052919050565b60006001600160401b038211156141de576141de6142ec565b5060051b60200190565b60006001600160401b03821115614201576142016142ec565b50601f01601f191660200190565b60008219821115614222576142226142c0565b500190565b600082821015614239576142396142c0565b500390565b60005b83811015614259578181015183820152602001614241565b838111156107a25750506000910152565b600181811c9082168061427e57607f821691505b6020821081141561429f57634e487b7160e01b600052602260045260246000fd5b50919050565b60006000198214156142b9576142b96142c0565b5060010190565b634e487b7160e01b600052601160045260246000fd5b634e487b7160e01b600052603260045260246000fd5b634e487b7160e01b600052604160045260246000fd5b6001600160a01b03811681146104e857600080fd5b80151581146104e857600080fdfea264697066735822122040b187519b599d99b351e267482fd40fa77f004914e573ca5c96c48df6602c3364736f6c63430008070033",
  "immutableReferences": {},
  "source": "// SPDX-License-Identifier: GPL-3.0\r\n\r\npragma solidity >=0.7.0 <0.9.0;\r\n\r\n/**\r\n * @title Storage\r\n * @dev Store & retrieve value in a variable\r\n */\r\n\r\n import \"../Abstract/MultiSigCertificatesPool.sol\";\r\n import \"../Interfaces/ITreasury.sol\";\r\n import \"../Libraries/Library.sol\";\r\n import \"../Base/ManagedBaseContract.sol\";\r\n import \"../Libraries/AddressLibrary.sol\";\r\n import \"@openzeppelin/contracts-upgradeable/proxy/utils/Initializable.sol\";\r\n\r\n contract PublicCertificatesPool is Initializable, MultiSigCertificatesPool, ManagedBaseContract {\r\n    using Library for *;\r\n    using AddressLibrary for *;\r\n\r\n    // EVENTS /////////////////////////////////////////\r\n    event _NewProposal(address indexed,  string indexed);\r\n\r\n    // CONSTRUCTOR /////////////////////////////////////////\r\n    function PublicCertPool_init(address[] memory owners,  uint256 minOwners, address managerContractAddress) public initializer {\r\n        super.MultiSigCertPool_init(owners, minOwners); \r\n        super.ManagedBaseContract_init(managerContractAddress); \r\n    }\r\n\r\n    // FUNCTIONALITY /////////////////////////////////////////\r\n    function addProvider(address provider, string memory providerInfo) external \r\n        isEntityActivated(false, provider, _providerId) \r\n        isEntityPendingToAdd(false, provider, _providerId)\r\n    override payable\r\n    {\r\n        ITreasury(_managerContract.retrieveTreasuryProxy()).pay{value:msg.value}(Library.Prices.NewProvider);\r\n        bytes32 providerInBytes = AddressLibrary.AddressToBytes32(provider);\r\n        _Entities[_providerId]._items[providerInBytes]._Info = providerInfo;\r\n        _Entities[_providerId]._pendingItemsAdd.push(providerInBytes);\r\n        _Entities[_providerId]._items[providerInBytes]._pendingId = _Entities[_providerId]._pendingItemsAdd.length - 1;\r\n\r\n        emit _NewProposal(provider, providerInfo);\r\n    }\r\n\r\n    function payBack(bytes32 entityInBytes, bool validatedOrRejected) internal\r\n    {\r\n        address[] memory Voters = (validatedOrRejected) ? _Entities[_providerId]._items[entityInBytes]._Validations : _Entities[_providerId]._items[entityInBytes]._Rejections;\r\n\r\n        for(uint i=0; i < Voters.length; i++){\r\n            ITreasury(_managerContract.retrieveTreasuryProxy()).getRefund(Voters[i], Voters.length);\r\n        }\r\n    }\r\n\r\n    function addCertificate(bytes32 CertificateHash, address holder) external override payable\r\n    {\r\n        ITreasury(_managerContract.retrieveTreasuryProxy()).pay{value:msg.value}(Library.Prices.NewCertificate);\r\n        addCertificateInternal(CertificateHash, holder);\r\n    }\r\n\r\n    // Callback functions\r\n    function onItemValidated(bytes32 item, uint256[] calldata ids, bool addOrRemove) public override \r\n    {\r\n        super.onItemValidated(item, ids, addOrRemove);\r\n\r\n        if(ids[0] == _providerId){\r\n            if(addOrRemove)payBack(item, true);\r\n        }\r\n    }\r\n\r\n    function onItemRejected(bytes32 item, uint256[] calldata ids, bool addOrRemove) public override  \r\n    {\r\n        super.onItemRejected(item, ids, addOrRemove);\r\n\r\n        if(ids[0] == _providerId){\r\n            if(addOrRemove)payBack(item, false);\r\n        }\r\n    }\r\n\r\n }",
  "sourcePath": "C:/Users/d-aam/GitHub/Certificates/contracts/DeployedContracts/PublicCertificatesPool.sol",
  "compiler": {
    "name": "solc",
    "version": "0.8.7+commit.e28d00a7.Emscripten.clang"
  },
  "schemaVersion": "3.3.4",
  "updatedAt": "2021-08-31T11:52:34.453Z",
  "devdoc": {
    "kind": "dev",
    "methods": {},
    "version": 1
  },
  "userdoc": {
    "kind": "user",
    "methods": {},
    "version": 1
  }
}