{
  "contractName": "PublicCertificatesPool",
  "abi": [
    {
      "inputs": [
        {
          "internalType": "address[]",
          "name": "owners",
          "type": "address[]"
        },
        {
          "internalType": "uint256",
          "name": "minOwners",
          "type": "uint256"
        },
        {
          "internalType": "address",
          "name": "managerContractAddress",
          "type": "address"
        }
      ],
      "stateMutability": "nonpayable",
      "type": "constructor"
    },
    {
      "anonymous": false,
      "inputs": [
        {
          "indexed": false,
          "internalType": "address",
          "name": "",
          "type": "address"
        },
        {
          "indexed": false,
          "internalType": "address",
          "name": "",
          "type": "address"
        }
      ],
      "name": "_AddCertificateIdEvent",
      "type": "event"
    },
    {
      "anonymous": false,
      "inputs": [
        {
          "indexed": true,
          "internalType": "string",
          "name": "",
          "type": "string"
        },
        {
          "indexed": true,
          "internalType": "address",
          "name": "",
          "type": "address"
        },
        {
          "indexed": true,
          "internalType": "string",
          "name": "",
          "type": "string"
        }
      ],
      "name": "_AddEntityRejectionIdEvent",
      "type": "event"
    },
    {
      "anonymous": false,
      "inputs": [
        {
          "indexed": true,
          "internalType": "string",
          "name": "",
          "type": "string"
        },
        {
          "indexed": true,
          "internalType": "address",
          "name": "",
          "type": "address"
        },
        {
          "indexed": true,
          "internalType": "string",
          "name": "",
          "type": "string"
        }
      ],
      "name": "_AddEntityValidationIdEvent",
      "type": "event"
    },
    {
      "anonymous": false,
      "inputs": [
        {
          "indexed": false,
          "internalType": "address",
          "name": "",
          "type": "address"
        },
        {
          "indexed": false,
          "internalType": "address",
          "name": "",
          "type": "address"
        }
      ],
      "name": "_RemoveCertificateIdEvent",
      "type": "event"
    },
    {
      "anonymous": false,
      "inputs": [
        {
          "indexed": true,
          "internalType": "string",
          "name": "",
          "type": "string"
        },
        {
          "indexed": true,
          "internalType": "address",
          "name": "",
          "type": "address"
        },
        {
          "indexed": true,
          "internalType": "string",
          "name": "",
          "type": "string"
        }
      ],
      "name": "_RemoveEntityRejectionIdEvent",
      "type": "event"
    },
    {
      "anonymous": false,
      "inputs": [
        {
          "indexed": true,
          "internalType": "string",
          "name": "",
          "type": "string"
        },
        {
          "indexed": true,
          "internalType": "address",
          "name": "",
          "type": "address"
        },
        {
          "indexed": true,
          "internalType": "string",
          "name": "",
          "type": "string"
        }
      ],
      "name": "_RemoveEntityValidationIdEvent",
      "type": "event"
    },
    {
      "anonymous": false,
      "inputs": [
        {
          "indexed": true,
          "internalType": "address",
          "name": "",
          "type": "address"
        },
        {
          "indexed": true,
          "internalType": "string",
          "name": "",
          "type": "string"
        }
      ],
      "name": "_SendProposalId",
      "type": "event"
    },
    {
      "inputs": [
        {
          "internalType": "address",
          "name": "owner",
          "type": "address"
        },
        {
          "internalType": "string",
          "name": "ownerInfo",
          "type": "string"
        }
      ],
      "name": "addOwner",
      "outputs": [],
      "stateMutability": "nonpayable",
      "type": "function"
    },
    {
      "inputs": [
        {
          "internalType": "address",
          "name": "owner",
          "type": "address"
        }
      ],
      "name": "isOwner",
      "outputs": [
        {
          "internalType": "bool",
          "name": "",
          "type": "bool"
        }
      ],
      "stateMutability": "view",
      "type": "function"
    },
    {
      "inputs": [
        {
          "internalType": "address",
          "name": "provider",
          "type": "address"
        }
      ],
      "name": "isProvider",
      "outputs": [
        {
          "internalType": "bool",
          "name": "",
          "type": "bool"
        }
      ],
      "stateMutability": "view",
      "type": "function"
    },
    {
      "inputs": [
        {
          "internalType": "address",
          "name": "owner",
          "type": "address"
        }
      ],
      "name": "rejectOwner",
      "outputs": [],
      "stateMutability": "nonpayable",
      "type": "function"
    },
    {
      "inputs": [
        {
          "internalType": "address",
          "name": "provider",
          "type": "address"
        }
      ],
      "name": "rejectProvider",
      "outputs": [],
      "stateMutability": "nonpayable",
      "type": "function"
    },
    {
      "inputs": [
        {
          "internalType": "bytes32",
          "name": "CertificateHash",
          "type": "bytes32"
        },
        {
          "internalType": "address",
          "name": "holder",
          "type": "address"
        }
      ],
      "name": "removeCertificate",
      "outputs": [],
      "stateMutability": "nonpayable",
      "type": "function"
    },
    {
      "inputs": [
        {
          "internalType": "address",
          "name": "owner",
          "type": "address"
        }
      ],
      "name": "removeOwner",
      "outputs": [],
      "stateMutability": "nonpayable",
      "type": "function"
    },
    {
      "inputs": [
        {
          "internalType": "address",
          "name": "provider",
          "type": "address"
        }
      ],
      "name": "removeProvider",
      "outputs": [],
      "stateMutability": "nonpayable",
      "type": "function"
    },
    {
      "inputs": [],
      "name": "retrieveAllOwners",
      "outputs": [
        {
          "internalType": "address[]",
          "name": "",
          "type": "address[]"
        }
      ],
      "stateMutability": "view",
      "type": "function"
    },
    {
      "inputs": [],
      "name": "retrieveAllProviders",
      "outputs": [
        {
          "internalType": "address[]",
          "name": "",
          "type": "address[]"
        }
      ],
      "stateMutability": "view",
      "type": "function"
    },
    {
      "inputs": [
        {
          "internalType": "bytes32",
          "name": "CertificateHash",
          "type": "bytes32"
        },
        {
          "internalType": "address",
          "name": "holder",
          "type": "address"
        }
      ],
      "name": "retrieveCertificateProvider",
      "outputs": [
        {
          "internalType": "address",
          "name": "",
          "type": "address"
        }
      ],
      "stateMutability": "view",
      "type": "function"
    },
    {
      "inputs": [
        {
          "internalType": "address",
          "name": "holder",
          "type": "address"
        },
        {
          "internalType": "uint256",
          "name": "skipFirst",
          "type": "uint256"
        },
        {
          "internalType": "uint256",
          "name": "max",
          "type": "uint256"
        }
      ],
      "name": "retrieveCertificatesByHolder",
      "outputs": [
        {
          "internalType": "bytes32[]",
          "name": "",
          "type": "bytes32[]"
        }
      ],
      "stateMutability": "view",
      "type": "function"
    },
    {
      "inputs": [],
      "name": "retrieveMinOwners",
      "outputs": [
        {
          "internalType": "uint256",
          "name": "",
          "type": "uint256"
        }
      ],
      "stateMutability": "view",
      "type": "function"
    },
    {
      "inputs": [
        {
          "internalType": "address",
          "name": "owner",
          "type": "address"
        }
      ],
      "name": "retrieveOwner",
      "outputs": [
        {
          "internalType": "string",
          "name": "",
          "type": "string"
        },
        {
          "internalType": "bool",
          "name": "",
          "type": "bool"
        }
      ],
      "stateMutability": "view",
      "type": "function"
    },
    {
      "inputs": [
        {
          "internalType": "bool",
          "name": "addedORremove",
          "type": "bool"
        }
      ],
      "name": "retrievePendingOwners",
      "outputs": [
        {
          "internalType": "address[]",
          "name": "",
          "type": "address[]"
        },
        {
          "internalType": "string[]",
          "name": "",
          "type": "string[]"
        }
      ],
      "stateMutability": "view",
      "type": "function"
    },
    {
      "inputs": [
        {
          "internalType": "bool",
          "name": "addedORremove",
          "type": "bool"
        }
      ],
      "name": "retrievePendingProviders",
      "outputs": [
        {
          "internalType": "address[]",
          "name": "",
          "type": "address[]"
        },
        {
          "internalType": "string[]",
          "name": "",
          "type": "string[]"
        }
      ],
      "stateMutability": "view",
      "type": "function"
    },
    {
      "inputs": [
        {
          "internalType": "address",
          "name": "provider",
          "type": "address"
        }
      ],
      "name": "retrieveProvider",
      "outputs": [
        {
          "internalType": "string",
          "name": "",
          "type": "string"
        },
        {
          "internalType": "bool",
          "name": "",
          "type": "bool"
        }
      ],
      "stateMutability": "view",
      "type": "function"
    },
    {
      "inputs": [
        {
          "internalType": "address",
          "name": "holder",
          "type": "address"
        }
      ],
      "name": "retrieveTotalCertificatesByHolder",
      "outputs": [
        {
          "internalType": "uint256",
          "name": "",
          "type": "uint256"
        }
      ],
      "stateMutability": "view",
      "type": "function"
    },
    {
      "inputs": [
        {
          "internalType": "address",
          "name": "owner",
          "type": "address"
        }
      ],
      "name": "validateOwner",
      "outputs": [],
      "stateMutability": "nonpayable",
      "type": "function"
    },
    {
      "inputs": [
        {
          "internalType": "address",
          "name": "provider",
          "type": "address"
        }
      ],
      "name": "validateProvider",
      "outputs": [],
      "stateMutability": "nonpayable",
      "type": "function"
    },
    {
      "inputs": [
        {
          "internalType": "address",
          "name": "TreasuryAddress",
          "type": "address"
        }
      ],
      "name": "updateContracts",
      "outputs": [],
      "stateMutability": "nonpayable",
      "type": "function"
    },
    {
      "inputs": [
        {
          "internalType": "address",
          "name": "provider",
          "type": "address"
        },
        {
          "internalType": "string",
          "name": "providerInfo",
          "type": "string"
        }
      ],
      "name": "addProvider",
      "outputs": [],
      "stateMutability": "payable",
      "type": "function"
    },
    {
      "inputs": [
        {
          "internalType": "bytes32",
          "name": "CertificateHash",
          "type": "bytes32"
        },
        {
          "internalType": "address",
          "name": "holder",
          "type": "address"
        }
      ],
      "name": "addCertificate",
      "outputs": [],
      "stateMutability": "payable",
      "type": "function"
    }
  ],
  "bytecode": "0x600560c09081526427bbb732b960d91b60e0526080908152610140604052600861010090815267283937bb34b232b960c11b6101205260a05262000048906004906002620003f0565b503480156200005657600080fd5b506040516200413538038062004135833981016040819052620000799162000576565b808383818160026004805480602002602001604051908101604052809291908181526020016000905b8282101562000158578382906000526020600020018054620000c4906200066d565b80601f0160208091040260200160405190810160405280929190818152602001828054620000f2906200066d565b8015620001435780601f10620001175761010080835404028352916020019162000143565b820191906000526020600020905b8154815290600101906020018083116200012557829003601f168201915b505050505081526020019060010190620000a2565b5050505060008451841115620001a35760405162461bcd60e51b81526004016200019a9060208082526004908201526322a1989b60e11b604082015260600190565b60405180910390fd5b60008411620001de5760405162461bcd60e51b81526004016200019a906020808252600490820152634543313760e01b604082015260600190565b81518314620002195760405162461bcd60e51b81526004016200019a9060208082526004908201526308a8662760e31b604082015260600190565b60008181555b83811015620002985760028054600101815560005282516003908490839081106200024e576200024e620006d4565b6020908102919091018101518254600181018455600093845292829020815162000282949190910192919091019062000454565b50806200028f81620006aa565b9150506200021f565b50600184905560005b8551811015620003bd576001600260005481548110620002c557620002c5620006d4565b90600052602060002090600402016000016000888481518110620002ed57620002ed620006d4565b60200260200101516001600160a01b03166001600160a01b0316815260200190815260200160002060000160006101000a81548160ff021916908315150217905550600260005481548110620003475762000347620006d4565b90600052602060002090600402016001018682815181106200036d576200036d620006d4565b60209081029190910181015182546001810184556000938452919092200180546001600160a01b0319166001600160a01b0390921691909117905580620003b481620006aa565b915050620002a1565b5050600680546001600160a01b0319166001600160a01b0398909816979097179096555062000700975050505050505050565b82805482825590600052602060002090810192821562000442579160200282015b828111156200044257825180516200043191849160209091019062000454565b509160200191906001019062000411565b5062000450929150620004df565b5090565b82805462000462906200066d565b90600052602060002090601f016020900481019282620004865760008555620004d1565b82601f10620004a157805160ff1916838001178555620004d1565b82800160010185558215620004d1579182015b82811115620004d1578251825591602001919060010190620004b4565b506200045092915062000500565b8082111562000450576000620004f6828262000517565b50600101620004df565b5b8082111562000450576000815560010162000501565b50805462000525906200066d565b6000825580601f1062000536575050565b601f01602090049060005260206000209081019062000556919062000500565b50565b80516001600160a01b03811681146200057157600080fd5b919050565b6000806000606084860312156200058c57600080fd5b83516001600160401b0380821115620005a457600080fd5b818601915086601f830112620005b957600080fd5b8151602082821115620005d057620005d0620006ea565b8160051b604051601f19603f83011681018181108682111715620005f857620005f8620006ea565b604052838152828101945085830182870184018c10156200061857600080fd5b600096505b848710156200064657620006318162000559565b8652600196909601959483019483016200061d565b50809850505080880151955050505050620006646040850162000559565b90509250925092565b600181811c908216806200068257607f821691505b60208210811415620006a457634e487b7160e01b600052602260045260246000fd5b50919050565b6000600019821415620006cd57634e487b7160e01b600052601160045260246000fd5b5060010190565b634e487b7160e01b600052603260045260246000fd5b634e487b7160e01b600052604160045260246000fd5b613a2580620007106000396000f3fe6080604052600436106101105760003560e01c80630b4c72a914610115578063173825d9146101375780631ab807f814610157578063279958a91461016a57806327a40b4b1461018a5780632f54bf6e146101aa5780633542758f146101df57806337583499146101ff57806358a1ba251461022d57806365b973e51461025a5780636b074a07146102795780636b299604146102995780636b3a0fec146102c75780636e4f9179146102e75780636e55d2d41461030957806376f8f90f1461032957806377bc5a1f146103495780638a355a5714610369578063a73db28a14610389578063a93d5ed6146103a9578063ce33d58a146103be578063d0a4adfe146103de578063fc0005001461043c575b600080fd5b34801561012157600080fd5b5061013561013036600461326c565b61044f565b005b34801561014357600080fd5b5061013561015236600461326c565b61045d565b6101356101653660046134c7565b6104cb565b34801561017657600080fd5b5061013561018536600461326c565b61053e565b34801561019657600080fd5b506101356101a536600461326c565b6105ac565b3480156101b657600080fd5b506101ca6101c536600461326c565b6105b7565b60405190151581526020015b60405180910390f35b3480156101eb57600080fd5b506101356101fa366004613287565b6105cb565b34801561020b57600080fd5b5061021f61021a36600461326c565b6105d9565b6040516101d6929190613726565b34801561023957600080fd5b5061024d6102483660046133ae565b6105f1565b6040516101d691906136ba565b34801561026657600080fd5b506001545b6040519081526020016101d6565b34801561028557600080fd5b506101ca61029436600461326c565b610797565b3480156102a557600080fd5b506102b96102b436600461348d565b6107a4565b6040516101d6929190613648565b3480156102d357600080fd5b506102b96102e236600461348d565b6107b3565b3480156102f357600080fd5b506102fc6107c1565b6040516101d69190613635565b34801561031557600080fd5b5061026b61032436600461326c565b6107d2565b34801561033557600080fd5b5061013561034436600461326c565b6107f0565b34801561035557600080fd5b5061021f61036436600461326c565b6107fc565b34801561037557600080fd5b5061013561038436600461326c565b61080c565b34801561039557600080fd5b506101356103a43660046134c7565b610817565b3480156103b557600080fd5b506102fc610acc565b3480156103ca57600080fd5b506101356103d936600461326c565b610ad9565b3480156103ea57600080fd5b506104246103f93660046134c7565b6001600160a01b03908116600090815260056020908152604080832094835293905291909120541690565b6040516001600160a01b0390911681526020016101d6565b61013561044a366004613309565b610ae5565b61045a816001610c97565b50565b600154600161046d6000546114c0565b516104789190613902565b808211156104ba5760405162461bcd60e51b81526004016104b1906020808252600490820152634543313960e01b604082015260600190565b60405180910390fd5b6104c6836000546115f8565b505050565b600754604051637864992f60e11b81526001600160a01b039091169063f0c9325e9034906104fe906002906004016136fe565b6000604051808303818588803b15801561051757600080fd5b505af115801561052b573d6000803e3d6000fd5b505050505061053a828261177e565b5050565b600654610553906001600160a01b0316611897565b151560011461058a5760405162461bcd60e51b815260206004820152600360248201526208a86760eb1b60448201526064016104b1565b600780546001600160a01b0319166001600160a01b0392909216919091179055565b61045a8160016118ba565b60006105c5826000546120ff565b92915050565b6104c68383836000546121f7565b606060006105e88360016123bf565b91509150915091565b6060826105fd856107d2565b116106175750604080516000815260208101909152610790565b818084610623876107d2565b61062d9190613902565b101561064a578361063d866107d2565b6106479190613902565b90505b6000816001600160401b03811115610664576106646139cb565b60405190808252806020026020018201604052801561068d578160200160208202803683370190505b506001600160a01b0387166000908152600560209081526040808320600101805482518185028101850190935280835294955092939092918301828280156106f457602002820191906000526020600020905b8154815260200190600101908083116106e0575b5050505050905060008060005b83518110156107875787831061071657610787565b81891115610730576107296001836138ea565b9150610775565b838181518110610742576107426139b5565b602002602001015185848151811061075c5761075c6139b5565b60209081029190910101526107726001846138ea565b92505b8061077f81613984565b915050610701565b50929450505050505b9392505050565b60006105c58260016120ff565b6060806105e883600054612552565b6060806105e8836001612552565b60606107cd60016114c0565b905090565b6001600160a01b031660009081526005602052604090206001015490565b61045a816000546118ba565b606060006105e8836000546123bf565b61045a8160016115f8565b61082033610797565b15156001146108415760405162461bcd60e51b81526004016104b1906137a3565b6001600160a01b03818116600090815260056020908152604080832086845290915290205482918491163314806108805750336001600160a01b038316145b6108b55760405162461bcd60e51b81526004016104b1906020808252600490820152631150cc4d60e21b604082015260600190565b6001600160a01b0380841660008181526005602081815260408084208a85528083528185205495855292825260019092018054835181840281018401909452808452949095169492939192919083018282801561093157602002820191906000526020600020905b81548152602001906001019080831161091d575b5050505050905060005b8151811015610a5857818181518110610956576109566139b5565b6020026020010151871415610a46576001600160a01b038616600090815260056020526040908190209051635b28cf6360e01b815273__Library_______________________________91635b28cf63916109bb918591600190910190600401613866565b60006040518083038186803b1580156109d357600080fd5b505af41580156109e7573d6000803e3d6000fd5b505050506040513d6000823e601f3d908101601f19168201604052610a0f91908101906133e1565b6001600160a01b03871660009081526005602090815260409091208251610a4093600190920192919091019061305c565b50610a58565b80610a5081613984565b91505061093b565b506001600160a01b03851660009081526005602090815260408083208984529091529081902080546001600160a01b0319169055517fd12847594abf0621035046f61129f2a9dc5093eb516c6c517ece306362ef6f1790610abc908490889061361b565b60405180910390a1505050505050565b60606107cd6000546114c0565b61045a81600054610c97565b6000826001610af482826120ff565b15610b115760405162461bcd60e51b81526004016104b1906137fb565b6000856001610b2082826127d4565b15610b3d5760405162461bcd60e51b81526004016104b19061374a565b600754604051637864992f60e11b81526001600160a01b039091169063f0c9325e903490610b70906000906004016136fe565b6000604051808303818588803b158015610b8957600080fd5b505af1158015610b9d573d6000803e3d6000fd5b5050505050866002600181548110610bb757610bb76139b5565b600091825260208083206001600160a01b038d1684526004909202909101815260409091208251610bf29360019092019291909101906130a7565b506002600181548110610c0757610c076139b5565b60009182526020808320600492909202909101600201805460018101825590835291200180546001600160a01b0319166001600160a01b038a16179055604051610c52908890613563565b604051908190038120906001600160a01b038a16907f49d38f7a96844504617706e5724491e297d3433a03d157d1409259ae96fb1ee590600090a35050505050505050565b60025460405163123bd07560e11b815282919073__Library_______________________________90632477a0ea90610cd690859085906004016138ac565b60206040518083038186803b158015610cee57600080fd5b505af4158015610d02573d6000803e3d6000fd5b505050506040513d601f19601f82011682018060405250810190610d2691906134aa565b1515600114610d475760405162461bcd60e51b81526004016104b1906137de565b610d53336000546120ff565b1515600114610d745760405162461bcd60e51b81526004016104b1906137c1565b60018484610d8282826127d4565b151560011480610d9d5750610d978282612970565b15156001145b610db95760405162461bcd60e51b81526004016104b190613785565b60028681548110610dcc57610dcc6139b5565b600091825260208083206001600160a01b038b16845260049092029091018152604091829020825160808101909352805460ff16151583526001810180549192840191610e1890613949565b80601f0160208091040260200160405190810160405280929190818152602001828054610e4490613949565b8015610e915780601f10610e6657610100808354040283529160200191610e91565b820191906000526020600020905b815481529060010190602001808311610e7457829003601f168201915b5050505050815260200160028201805480602002602001604051908101604052809291908181526020018280548015610ef357602002820191906000526020600020905b81546001600160a01b03168152600190910190602001808311610ed5575b5050505050815260200160038201805480602002602001604051908101604052809291908181526020018280548015610f5557602002820191906000526020600020905b81546001600160a01b03168152600190910190602001808311610f37575b505050505081525050610f6c338260400151612aff565b158015610f845750610f82338260600151612aff565b155b610fa05760405162461bcd60e51b81526004016104b190613768565b60028781548110610fb357610fb36139b5565b600091825260208083206001600160a01b038c1684526004909202909101815260408220600301805460018101825590835291200180546001600160a01b0319163317905560028054611041919089908110611011576110116139b5565b600091825260208083206001600160a01b038d168452600490920290910190526040902060030154600154612b65565b156114b65761105088886127d4565b156112ad576111606110de8960028a8154811061106f5761106f6139b5565b90600052602060002090600402016002018054806020026020016040519081016040528092919081815260200182805480156110d457602002820191906000526020600020905b81546001600160a01b031681526001909101906020018083116110b6575b5050505050612b80565b600289815481106110f1576110f16139b5565b906000526020600020906004020160020180548060200260200160405190810160405280929190818152602001828054801561115657602002820191906000526020600020905b81546001600160a01b03168152600190910190602001808311611138575b5050505050612b9d565b60028881548110611173576111736139b5565b9060005260206000209060040201600201908051906020019061119792919061311a565b506111a488886001612c3c565b600287815481106111b7576111b76139b5565b600091825260208083206001600160a01b038c16845260049092029091019052604081206111ea9160019091019061316f565b6111f48888612c4e565b60028781548110611207576112076139b5565b600091825260208083206001600160a01b038c16845260049092029091019052604090819020905161123c916001019061357f565b6040518091039020886001600160a01b031660038981548110611261576112616139b5565b90600052602060002001604051611278919061357f565b604051908190038120907f685e6db2d3847649450b48fc97cb6a50c54b7327a96b01f9302d7da45eec2f2390600090a46114b6565b6113b46113348960028a815481106112c7576112c76139b5565b90600052602060002090600402016003018054806020026020016040519081016040528092919081815260200182805480156110d4576020028201919060005260206000209081546001600160a01b031681526001909101906020018083116110b6575050505050612b80565b60028981548110611347576113476139b5565b9060005260206000209060040201600301805480602002602001604051908101604052809291908181526020018280548015611156576020028201919060005260206000209081546001600160a01b03168152600190910190602001808311611138575050505050612b9d565b600288815481106113c7576113c76139b5565b906000526020600020906004020160030190805190602001906113eb92919061311a565b506113f888886000612c3c565b6114028888612c4e565b60028781548110611415576114156139b5565b600091825260208083206001600160a01b038c16845260049092029091019052604090819020905161144a916001019061357f565b6040518091039020886001600160a01b03166003898154811061146f5761146f6139b5565b90600052602060002001604051611486919061357f565b604051908190038120907e92c5dda54f9336a7649d49b86adbdc7725094433e5dcd54d69c4a8a3d7bed790600090a45b5050505050505050565b60025460405163123bd07560e11b8152606091839173__Library_______________________________90632477a0ea9061150190859085906004016138ac565b60206040518083038186803b15801561151957600080fd5b505af415801561152d573d6000803e3d6000fd5b505050506040513d601f19601f8201168201806040525081019061155191906134aa565b15156001146115725760405162461bcd60e51b81526004016104b1906137de565b60028481548110611585576115856139b5565b90600052602060002090600402016001018054806020026020016040519081016040528092919081815260200182805480156115ea57602002820191906000526020600020905b81546001600160a01b031681526001909101906020018083116115cc575b505050505092505050919050565b60025460405163123bd07560e11b815282919073__Library_______________________________90632477a0ea9061163790859085906004016138ac565b60206040518083038186803b15801561164f57600080fd5b505af4158015611663573d6000803e3d6000fd5b505050506040513d601f19601f8201168201806040525081019061168791906134aa565b15156001146116a85760405162461bcd60e51b81526004016104b1906137de565b600184846116b682826120ff565b15156001146116ed5760405162461bcd60e51b815260206004820152600360248201526245433760e81b60448201526064016104b1565b600087876116fb8282612970565b156117185760405162461bcd60e51b81526004016104b19061374a565b6002898154811061172b5761172b6139b5565b60009182526020808320600492909202909101600301805460018101825590835291200180546001600160a01b0319166001600160a01b038c161790556117728a8a6118ba565b50505050505050505050565b61178733610797565b15156001146117a85760405162461bcd60e51b81526004016104b1906137a3565b816001600160a01b0380831660009081526005602090815260408083208784529091529020548391859116156118095760405162461bcd60e51b81526004016104b1906020808252600490820152634543313560e01b604082015260600190565b6001600160a01b038416600090815260056020818152604080842089855280835281852080546001600160a01b031916339081179091559383526001908101805491820181558552919093200187905590517f601cb9a073dbfa468ef12878ee6c720641a49b76af7c16099e8c0a1ac3ca79b59161188891879061361b565b60405180910390a15050505050565b6000336001600160a01b03831614156118b257506001919050565b506000919050565b60025460405163123bd07560e11b815282919073__Library_______________________________90632477a0ea906118f990859085906004016138ac565b60206040518083038186803b15801561191157600080fd5b505af4158015611925573d6000803e3d6000fd5b505050506040513d601f19601f8201168201806040525081019061194991906134aa565b151560011461196a5760405162461bcd60e51b81526004016104b1906137de565b611976336000546120ff565b15156001146119975760405162461bcd60e51b81526004016104b1906137c1565b600184846119a582826127d4565b1515600114806119c057506119ba8282612970565b15156001145b6119dc5760405162461bcd60e51b81526004016104b190613785565b600286815481106119ef576119ef6139b5565b600091825260208083206001600160a01b038b16845260049092029091018152604091829020825160808101909352805460ff16151583526001810180549192840191611a3b90613949565b80601f0160208091040260200160405190810160405280929190818152602001828054611a6790613949565b8015611ab45780601f10611a8957610100808354040283529160200191611ab4565b820191906000526020600020905b815481529060010190602001808311611a9757829003601f168201915b5050505050815260200160028201805480602002602001604051908101604052809291908181526020018280548015611b1657602002820191906000526020600020905b81546001600160a01b03168152600190910190602001808311611af8575b5050505050815260200160038201805480602002602001604051908101604052809291908181526020018280548015611b7857602002820191906000526020600020905b81546001600160a01b03168152600190910190602001808311611b5a575b505050505081525050611b8f338260400151612aff565b158015611ba75750611ba5338260600151612aff565b155b611bc35760405162461bcd60e51b81526004016104b190613768565b60028781548110611bd657611bd66139b5565b600091825260208083206001600160a01b038c168452600490920290910181526040822060029081018054600181018255908452919092200180546001600160a01b031916331790558054611c66919089908110611c3657611c366139b5565b600091825260208083206001600160a01b038d168452600490920290910190526040902060020154600154612b65565b156114b657611c7588886127d4565b15611e3957600160028881548110611c8f57611c8f6139b5565b600091825260208083206001600160a01b038d168452600492909202909101905260409020805460ff19169115159190911790556002805488908110611cd757611cd76139b5565b60009182526020808320600160049093020182018054928301815583529091200180546001600160a01b038a166001600160a01b031990911617905560028054611d32916110de918b91908b90811061106f5761106f6139b5565b60028881548110611d4557611d456139b5565b90600052602060002090600402016002019080519060200190611d6992919061311a565b50611d7688886001612cda565b611d808888612c4e565b60028781548110611d9357611d936139b5565b600091825260208083206001600160a01b038c168452600490920290910190526040908190209051611dc8916001019061357f565b6040518091039020886001600160a01b031660038981548110611ded57611ded6139b5565b90600052602060002001604051611e04919061357f565b604051908190038120907ff778f27e2be3126cfd6682a3a8180c62d5ade2b397aee62ea41b5d914a64b83690600090a46114b6565b611f40611ec08960028a81548110611e5357611e536139b5565b90600052602060002090600402016001018054806020026020016040519081016040528092919081815260200182805480156110d4576020028201919060005260206000209081546001600160a01b031681526001909101906020018083116110b6575050505050612b80565b60028981548110611ed357611ed36139b5565b9060005260206000209060040201600101805480602002602001604051908101604052809291908181526020018280548015611156576020028201919060005260206000209081546001600160a01b03168152600190910190602001808311611138575050505050612b9d565b60028881548110611f5357611f536139b5565b90600052602060002090600402016001019080519060200190611f7792919061311a565b50611f926113348960028a815481106112c7576112c76139b5565b60028881548110611fa557611fa56139b5565b90600052602060002090600402016003019080519060200190611fc992919061311a565b50611fd688886000612cda565b60028781548110611fe957611fe96139b5565b600091825260208083206001600160a01b038c1684526004909202909101905260408120805460ff1916815590612023600183018261316f565b6120316002830160006131a9565b61203f6003830160006131a9565b505060028781548110612054576120546139b5565b600091825260208083206001600160a01b038c168452600490920290910190526040908190209051612089916001019061357f565b6040518091039020886001600160a01b0316600389815481106120ae576120ae6139b5565b906000526020600020016040516120c5919061357f565b604051908190038120907ff4d29cefc0aa6918a670a91a9871910128a6f3a91e110d99dd91eef92cdc2f4890600090a45050505050505050565b60025460405163123bd07560e11b8152600091839173__Library_______________________________90632477a0ea9061214090859085906004016138ac565b60206040518083038186803b15801561215857600080fd5b505af415801561216c573d6000803e3d6000fd5b505050506040513d601f19601f8201168201806040525081019061219091906134aa565b15156001146121b15760405162461bcd60e51b81526004016104b1906137de565b600284815481106121c4576121c46139b5565b600091825260208083206001600160a01b038916845260049092029091019052604090205460ff1692505b505092915050565b60025460405163123bd07560e11b815282919073__Library_______________________________90632477a0ea9061223690859085906004016138ac565b60206040518083038186803b15801561224e57600080fd5b505af4158015612262573d6000803e3d6000fd5b505050506040513d601f19601f8201168201806040525081019061228691906134aa565b15156001146122a75760405162461bcd60e51b81526004016104b1906137de565b600086846122b582826120ff565b156122d25760405162461bcd60e51b81526004016104b1906137fb565b600089876122e082826127d4565b156122fd5760405162461bcd60e51b81526004016104b19061374a565b8a8a60028b81548110612312576123126139b5565b906000526020600020906004020160000160008f6001600160a01b03166001600160a01b0316815260200190815260200160002060010191906123569291906131c7565b506002898154811061236a5761236a6139b5565b60009182526020808320600492909202909101600201805460018101825590835291200180546001600160a01b0319166001600160a01b038e161790556123b18c8a6118ba565b505050505050505050505050565b60025460405163123bd07560e11b815260609160009184919073__Library_______________________________90632477a0ea9061240490859085906004016138ac565b60206040518083038186803b15801561241c57600080fd5b505af4158015612430573d6000803e3d6000fd5b505050506040513d601f19601f8201168201806040525081019061245491906134aa565b15156001146124755760405162461bcd60e51b81526004016104b1906137de565b60028581548110612488576124886139b5565b600091825260208083206001600160a01b038a16845260049092029091019052604090206001016124b987876120ff565b8180546124c590613949565b80601f01602080910402602001604051908101604052809291908181526020018280546124f190613949565b801561253e5780601f106125135761010080835404028352916020019161253e565b820191906000526020600020905b81548152906001019060200180831161252157829003601f168201915b505050505091509350935050509250929050565b60025460405163123bd07560e11b8152606091829184919073__Library_______________________________90632477a0ea9061259690859085906004016138ac565b60206040518083038186803b1580156125ae57600080fd5b505af41580156125c2573d6000803e3d6000fd5b505050506040513d601f19601f820116820180604052508101906125e691906134aa565b15156001146126075760405162461bcd60e51b81526004016104b1906137de565b606086156126935760028681548110612622576126226139b5565b906000526020600020906004020160020180548060200260200160405190810160405280929190818152602001828054801561268757602002820191906000526020600020905b81546001600160a01b03168152600190910190602001808311612669575b50505050509050612713565b600286815481106126a6576126a66139b5565b906000526020600020906004020160030180548060200260200160405190810160405280929190818152602001828054801561270b57602002820191906000526020600020905b81546001600160a01b031681526001909101906020018083116126ed575b505050505090505b6002546000906001600160401b03811115612730576127306139cb565b60405190808252806020026020018201604052801561276357816020015b606081526020019060019003908161274e5790505b50905060005b82518110156127c657612795838281518110612787576127876139b5565b6020026020010151896123bf565b508282815181106127a8576127a86139b5565b602002602001018190525080806127be90613984565b915050612769565b509097909650945050505050565b60025460405163123bd07560e11b8152600091839173__Library_______________________________90632477a0ea9061281590859085906004016138ac565b60206040518083038186803b15801561282d57600080fd5b505af4158015612841573d6000803e3d6000fd5b505050506040513d601f19601f8201168201806040525081019061286591906134aa565b15156001146128865760405162461bcd60e51b81526004016104b1906137de565b60006002858154811061289b5761289b6139b5565b906000526020600020906004020160020180548060200260200160405190810160405280929190818152602001828054801561290057602002820191906000526020600020905b81546001600160a01b031681526001909101906020018083116128e2575b5050505050905060005b815181101561296357818181518110612925576129256139b5565b60200260200101516001600160a01b0316876001600160a01b03161415612951576001945050506121ef565b8061295b81613984565b91505061290a565b5060009695505050505050565b60025460405163123bd07560e11b8152600091839173__Library_______________________________90632477a0ea906129b190859085906004016138ac565b60206040518083038186803b1580156129c957600080fd5b505af41580156129dd573d6000803e3d6000fd5b505050506040513d601f19601f82011682018060405250810190612a0191906134aa565b1515600114612a225760405162461bcd60e51b81526004016104b1906137de565b600060028581548110612a3757612a376139b5565b9060005260206000209060040201600301805480602002602001604051908101604052809291908181526020018280548015612a9c57602002820191906000526020600020905b81546001600160a01b03168152600190910190602001808311612a7e575b5050505050905060005b815181101561296357818181518110612ac157612ac16139b5565b60200260200101516001600160a01b0316876001600160a01b03161415612aed576001945050506121ef565b80612af781613984565b915050612aa6565b6000805b8251811015612b5b57828181518110612b1e57612b1e6139b5565b60200260200101516001600160a01b0316846001600160a01b03161415612b495760019150506105c5565b80612b5381613984565b915050612b03565b5060009392505050565b600081831015612b77575060006105c5565b50600192915050565b60006107906001600160a01b038416612b9884612cec565b612da0565b606061079073__Library_______________________________635b28cf6385612bc686612cec565b6040518363ffffffff1660e01b8152600401612be3929190613818565b60006040518083038186803b158015612bfb57600080fd5b505af4158015612c0f573d6000803e3d6000fd5b505050506040513d6000823e601f3d908101601f19168201604052612c3791908101906133e1565b612df5565b80156104c6576104c683836000612ea6565b60028181548110612c6157612c616139b5565b600091825260208083206001600160a01b03861684526004909202909101905260408120612c94916003909101906131a9565b60028181548110612ca757612ca76139b5565b600091825260208083206001600160a01b0386168452600490920290910190526040812061053a916002909101906131a9565b80156104c6576104c683836001612ea6565b6060600082516001600160401b03811115612d0957612d096139cb565b604051908082528060200260200182016040528015612d32578160200160208202803683370190505b50905060005b8151811015612d9957612d6a848281518110612d5657612d566139b5565b60200260200101516001600160a01b031690565b828281518110612d7c57612d7c6139b5565b602090810291909101015280612d9181613984565b915050612d38565b5092915050565b6000805b8251811015612de757828181518110612dbf57612dbf6139b5565b6020026020010151841415612dd55790506105c5565b80612ddf81613984565b915050612da4565b5081516107909060016138ea565b6060600082516001600160401b03811115612e1257612e126139cb565b604051908082528060200260200182016040528015612e3b578160200160208202803683370190505b50905060005b8151811015612d9957612e6a848281518110612e5f57612e5f6139b5565b602002602001015190565b828281518110612e7c57612e7c6139b5565b6001600160a01b039092166020928302919091019091015280612e9e81613984565b915050612e41565b60018214156104c657612eb883610797565b1515600114156104c657600081612f09576002600181548110612edd57612edd6139b5565b600091825260208083206001600160a01b03881684526004909202909101905260409020600301612f45565b6002600181548110612f1d57612f1d6139b5565b600091825260208083206001600160a01b038816845260049092029091019052604090206002015b805480602002602001604051908101604052809291908181526020018280548015612f9957602002820191906000526020600020905b81546001600160a01b03168152600190910190602001808311612f7b575b5050505050905060005b81518110156130555760075482516001600160a01b039091169063eb1e2a4190849084908110612fd557612fd56139b5565b602002602001015184516040518363ffffffff1660e01b81526004016130109291906001600160a01b03929092168252602082015260400190565b600060405180830381600087803b15801561302a57600080fd5b505af115801561303e573d6000803e3d6000fd5b50505050808061304d90613984565b915050612fa3565b5050505050565b828054828255906000526020600020908101928215613097579160200282015b8281111561309757825182559160200191906001019061307c565b506130a392915061323b565b5090565b8280546130b390613949565b90600052602060002090601f0160209004810192826130d55760008555613097565b82601f106130ee57805160ff1916838001178555613097565b82800160010185558215613097579182018281111561309757825182559160200191906001019061307c565b828054828255906000526020600020908101928215613097579160200282015b8281111561309757825182546001600160a01b0319166001600160a01b0390911617825560209092019160019091019061313a565b50805461317b90613949565b6000825580601f1061318b575050565b601f01602090049060005260206000209081019061045a919061323b565b508054600082559060005260206000209081019061045a919061323b565b8280546131d390613949565b90600052602060002090601f0160209004810192826131f55760008555613097565b82601f1061320e5782800160ff19823516178555613097565b82800160010185558215613097579182015b82811115613097578235825591602001919060010190613220565b5b808211156130a3576000815560010161323c565b80356001600160a01b038116811461326757600080fd5b919050565b60006020828403121561327e57600080fd5b61079082613250565b60008060006040848603121561329c57600080fd5b6132a584613250565b925060208401356001600160401b03808211156132c157600080fd5b818601915086601f8301126132d557600080fd5b8135818111156132e457600080fd5b8760208285010111156132f657600080fd5b6020830194508093505050509250925092565b6000806040838503121561331c57600080fd5b61332583613250565b91506020838101356001600160401b038082111561334257600080fd5b818601915086601f83011261335657600080fd5b813581811115613368576133686139cb565b61337a601f8201601f191685016138ba565b9150808252878482850101111561339057600080fd5b80848401858401376000848284010152508093505050509250929050565b6000806000606084860312156133c357600080fd5b6133cc84613250565b95602085013595506040909401359392505050565b600060208083850312156133f457600080fd5b82516001600160401b038082111561340b57600080fd5b818501915085601f83011261341f57600080fd5b815181811115613431576134316139cb565b8060051b91506134428483016138ba565b8181528481019084860184860187018a101561345d57600080fd5b600095505b83861015613480578051835260019590950194918601918601613462565b5098975050505050505050565b60006020828403121561349f57600080fd5b8135610790816139e1565b6000602082840312156134bc57600080fd5b8151610790816139e1565b600080604083850312156134da57600080fd5b823591506134ea60208401613250565b90509250929050565b600081518084526020808501945080840160005b8381101561352c5781516001600160a01b031687529582019590820190600101613507565b509495945050505050565b6000815180845261354f816020860160208601613919565b601f01601f19169290920160200192915050565b60008251613575818460208701613919565b9190910192915050565b600080835481600182811c91508083168061359b57607f831692505b60208084108214156135bb57634e487b7160e01b86526022600452602486fd5b8180156135cf57600181146135e05761360d565b60ff1986168952848901965061360d565b60008a81526020902060005b868110156136055781548b8201529085019083016135ec565b505084890196505b509498975050505050505050565b6001600160a01b0392831681529116602082015260400190565b60208152600061079060208301846134f3565b60408152600061365b60408301856134f3565b6020838203818501528185518084528284019150828160051b85010183880160005b838110156136ab57601f19878403018552613699838351613537565b9486019492509085019060010161367d565b50909998505050505050505050565b6020808252825182820181905260009190848201906040850190845b818110156136f2578351835292840192918401916001016136d6565b50909695505050505050565b602081016003831061372057634e487b7160e01b600052602160045260246000fd5b91905290565b6040815260006137396040830185613537565b905082151560208301529392505050565b6020808252600490820152634543323760e01b604082015260600190565b60208082526003908201526245433560e81b604082015260600190565b60208082526004908201526308a8664760e31b604082015260600190565b60208082526004908201526322a1989960e11b604082015260600190565b60208082526003908201526245433960e81b604082015260600190565b60208082526003908201526245433160e81b604082015260600190565b60208082526003908201526222a19b60e91b604082015260600190565b6000604082018483526020604081850152818551808452606086019150828701935060005b818110156138595784518352938301939183019160010161383d565b5090979650505050505050565b60006040820184835260206040818501528185548084526060860191508660005282600020935060005b8181101561385957845483526001948501949284019201613890565b918252602082015260400190565b604051601f8201601f191681016001600160401b03811182821017156138e2576138e26139cb565b604052919050565b600082198211156138fd576138fd61399f565b500190565b6000828210156139145761391461399f565b500390565b60005b8381101561393457818101518382015260200161391c565b83811115613943576000848401525b50505050565b600181811c9082168061395d57607f821691505b6020821081141561397e57634e487b7160e01b600052602260045260246000fd5b50919050565b60006000198214156139985761399861399f565b5060010190565b634e487b7160e01b600052601160045260246000fd5b634e487b7160e01b600052603260045260246000fd5b634e487b7160e01b600052604160045260246000fd5b801515811461045a57600080fdfea26469706673582212206ecab9d7ac83b49d4c0cd81c16e38f4182a35d2eb88a32c8860284307b119ec964736f6c63430008060033",
  "immutableReferences": {},
  "source": "// SPDX-License-Identifier: GPL-3.0\r\n\r\npragma solidity >=0.7.0 <0.9.0;\r\npragma experimental ABIEncoderV2;\r\n\r\n/**\r\n * @title Storage\r\n * @dev Store & retrieve value in a variable\r\n */\r\n\r\n import \"./Abstract/MultiSigCertificatesPool.sol\";\r\n import \"./Treasury.sol\";\r\n import \"./Libraries/Library.sol\";\r\n import \"./Base/ManagedBaseContract.sol\";\r\n\r\n contract PublicCertificatesPool is MultiSigCertificatesPool, ManagedBaseContract {\r\n    using Library for *;\r\n\r\n    // events\r\n    event _SendProposalId(address indexed,  string indexed);\r\n\r\n    // Treasury\r\n    Treasury _Treasury;\r\n\r\n    // Constructor\r\n    constructor(address[] memory owners,  uint256 minOwners, address managerContractAddress)\r\n    MultiSigCertificatesPool(owners, minOwners) \r\n    ManagedBaseContract(managerContractAddress) \r\n    {}\r\n\r\n    // functionality\r\n    function updateContracts(address TreasuryAddress) external\r\n        isFromManagerContract()\r\n    {\r\n        _Treasury = Treasury(TreasuryAddress);\r\n    }\r\n\r\n    function addProvider(address provider, string memory providerInfo) external \r\n        isEntityActivated(false, provider, _providerId) \r\n        isEntityPendingToAdd(false, provider, _providerId)\r\n    override payable\r\n    {\r\n        _Treasury.pay{value:msg.value}(Library.Prices.NewProvider);\r\n        _Entities[_providerId]._entities[provider]._Info = providerInfo;\r\n        _Entities[_providerId]._pendingEntitiesAdd.push(provider);\r\n\r\n        emit _SendProposalId(provider, providerInfo);\r\n    }\r\n\r\n    function onEntityValidated(address entity, uint listId, bool addOrRemove) internal override\r\n    {\r\n        if(addOrRemove)payBack( entity, listId, true);\r\n    }\r\n\r\n    function onEntityRejected(address entity, uint listId, bool addOrRemove) internal override\r\n    {\r\n        if(addOrRemove)payBack( entity, listId, false);\r\n    }\r\n\r\n    function payBack(address entity, uint listId, bool validatedOrRejected) internal\r\n    {\r\n        if(listId == _providerId){\r\n            if(true == isProvider(entity)){\r\n                address[] memory Voters = (validatedOrRejected) ? _Entities[_providerId]._entities[entity]._Validations : _Entities[_providerId]._entities[entity]._Rejections;\r\n\r\n                for(uint i=0; i < Voters.length; i++){\r\n                    _Treasury.getRefund(Voters[i], Voters.length);\r\n                }\r\n            }\r\n        }\r\n    }\r\n\r\n    function addCertificate(bytes32 CertificateHash, address holder) external override payable\r\n    {\r\n        _Treasury.pay{value:msg.value}(Library.Prices.NewCertificate);\r\n        addCertificateInternal(CertificateHash, holder);\r\n    }\r\n\r\n }",
  "sourcePath": "C:\\Users\\d-aam\\GitHub\\Certificates\\contracts\\PublicCertificatesPool.sol",
  "compiler": {
    "name": "solc",
    "version": "0.8.6+commit.11564f7e.Emscripten.clang"
  },
  "schemaVersion": "3.3.4",
  "updatedAt": "2021-07-26T09:36:09.859Z",
  "devdoc": {
    "kind": "dev",
    "methods": {},
    "version": 1
  },
  "userdoc": {
    "kind": "user",
    "methods": {},
    "version": 1
  }
}