{
  "contractName": "PublicCertificatesPool",
  "abi": [
    {
      "inputs": [
        {
          "internalType": "address[]",
          "name": "owners",
          "type": "address[]"
        },
        {
          "internalType": "uint256",
          "name": "minOwners",
          "type": "uint256"
        }
      ],
      "stateMutability": "payable",
      "type": "constructor"
    },
    {
      "anonymous": false,
      "inputs": [
        {
          "indexed": false,
          "internalType": "address",
          "name": "",
          "type": "address"
        },
        {
          "indexed": false,
          "internalType": "address",
          "name": "",
          "type": "address"
        }
      ],
      "name": "_AddCertificateIdEvent",
      "type": "event"
    },
    {
      "anonymous": false,
      "inputs": [
        {
          "indexed": false,
          "internalType": "string",
          "name": "",
          "type": "string"
        },
        {
          "indexed": false,
          "internalType": "address",
          "name": "",
          "type": "address"
        }
      ],
      "name": "_AddEntityValidationIdEvent",
      "type": "event"
    },
    {
      "anonymous": false,
      "inputs": [
        {
          "indexed": false,
          "internalType": "address",
          "name": "",
          "type": "address"
        },
        {
          "indexed": false,
          "internalType": "address",
          "name": "",
          "type": "address"
        }
      ],
      "name": "_RemoveCertificateIdEvent",
      "type": "event"
    },
    {
      "anonymous": false,
      "inputs": [
        {
          "indexed": false,
          "internalType": "string",
          "name": "",
          "type": "string"
        },
        {
          "indexed": false,
          "internalType": "address",
          "name": "",
          "type": "address"
        }
      ],
      "name": "_RemoveEntityValidationIdEvent",
      "type": "event"
    },
    {
      "inputs": [
        {
          "internalType": "bytes32",
          "name": "CertificateHash",
          "type": "bytes32"
        },
        {
          "internalType": "address",
          "name": "holder",
          "type": "address"
        },
        {
          "internalType": "uint256",
          "name": "nonce",
          "type": "uint256"
        }
      ],
      "name": "addCertificate",
      "outputs": [],
      "stateMutability": "nonpayable",
      "type": "function"
    },
    {
      "inputs": [
        {
          "internalType": "address",
          "name": "owner",
          "type": "address"
        },
        {
          "internalType": "string",
          "name": "ownerInfo",
          "type": "string"
        },
        {
          "internalType": "uint256",
          "name": "nonce",
          "type": "uint256"
        }
      ],
      "name": "addOwner",
      "outputs": [],
      "stateMutability": "nonpayable",
      "type": "function"
    },
    {
      "inputs": [
        {
          "internalType": "address",
          "name": "owner",
          "type": "address"
        }
      ],
      "name": "isOwner",
      "outputs": [
        {
          "internalType": "bool",
          "name": "",
          "type": "bool"
        }
      ],
      "stateMutability": "view",
      "type": "function"
    },
    {
      "inputs": [
        {
          "internalType": "address",
          "name": "provider",
          "type": "address"
        }
      ],
      "name": "isProvider",
      "outputs": [
        {
          "internalType": "bool",
          "name": "",
          "type": "bool"
        }
      ],
      "stateMutability": "view",
      "type": "function"
    },
    {
      "inputs": [
        {
          "internalType": "bytes32",
          "name": "CertificateHash",
          "type": "bytes32"
        },
        {
          "internalType": "address",
          "name": "holder",
          "type": "address"
        },
        {
          "internalType": "uint256",
          "name": "nonce",
          "type": "uint256"
        }
      ],
      "name": "removeCertificate",
      "outputs": [],
      "stateMutability": "nonpayable",
      "type": "function"
    },
    {
      "inputs": [
        {
          "internalType": "address",
          "name": "owner",
          "type": "address"
        },
        {
          "internalType": "uint256",
          "name": "nonce",
          "type": "uint256"
        }
      ],
      "name": "removeOwner",
      "outputs": [],
      "stateMutability": "nonpayable",
      "type": "function"
    },
    {
      "inputs": [],
      "name": "retrieveAllOwners",
      "outputs": [
        {
          "internalType": "address[]",
          "name": "",
          "type": "address[]"
        }
      ],
      "stateMutability": "view",
      "type": "function"
    },
    {
      "inputs": [],
      "name": "retrieveAllProviders",
      "outputs": [
        {
          "internalType": "address[]",
          "name": "",
          "type": "address[]"
        }
      ],
      "stateMutability": "view",
      "type": "function"
    },
    {
      "inputs": [
        {
          "internalType": "bytes32",
          "name": "CertificateHash",
          "type": "bytes32"
        },
        {
          "internalType": "address",
          "name": "holder",
          "type": "address"
        }
      ],
      "name": "retrieveCertificateProvider",
      "outputs": [
        {
          "internalType": "address",
          "name": "",
          "type": "address"
        }
      ],
      "stateMutability": "view",
      "type": "function"
    },
    {
      "inputs": [
        {
          "internalType": "address",
          "name": "holder",
          "type": "address"
        },
        {
          "internalType": "uint256",
          "name": "skipFirst",
          "type": "uint256"
        },
        {
          "internalType": "uint256",
          "name": "max",
          "type": "uint256"
        }
      ],
      "name": "retrieveCertificatesByHolder",
      "outputs": [
        {
          "internalType": "bytes32[]",
          "name": "",
          "type": "bytes32[]"
        }
      ],
      "stateMutability": "view",
      "type": "function"
    },
    {
      "inputs": [],
      "name": "retrieveMinOwners",
      "outputs": [
        {
          "internalType": "uint256",
          "name": "",
          "type": "uint256"
        }
      ],
      "stateMutability": "view",
      "type": "function"
    },
    {
      "inputs": [
        {
          "internalType": "address",
          "name": "owner",
          "type": "address"
        }
      ],
      "name": "retrieveOwner",
      "outputs": [
        {
          "internalType": "string",
          "name": "",
          "type": "string"
        }
      ],
      "stateMutability": "view",
      "type": "function"
    },
    {
      "inputs": [
        {
          "internalType": "address",
          "name": "provider",
          "type": "address"
        }
      ],
      "name": "retrieveProvider",
      "outputs": [
        {
          "internalType": "string",
          "name": "",
          "type": "string"
        }
      ],
      "stateMutability": "view",
      "type": "function"
    },
    {
      "inputs": [
        {
          "internalType": "address",
          "name": "holder",
          "type": "address"
        }
      ],
      "name": "retrieveTotalCertificatesByHolder",
      "outputs": [
        {
          "internalType": "uint256",
          "name": "",
          "type": "uint256"
        }
      ],
      "stateMutability": "view",
      "type": "function"
    },
    {
      "inputs": [],
      "name": "retrieveTotalOwners",
      "outputs": [
        {
          "internalType": "uint256",
          "name": "",
          "type": "uint256"
        }
      ],
      "stateMutability": "view",
      "type": "function"
    },
    {
      "inputs": [],
      "name": "retrieveTotalProviders",
      "outputs": [
        {
          "internalType": "uint256",
          "name": "",
          "type": "uint256"
        }
      ],
      "stateMutability": "view",
      "type": "function"
    },
    {
      "inputs": [
        {
          "internalType": "address",
          "name": "provider",
          "type": "address"
        },
        {
          "internalType": "string",
          "name": "providerInfo",
          "type": "string"
        },
        {
          "internalType": "uint256",
          "name": "nonce",
          "type": "uint256"
        }
      ],
      "name": "addProvider",
      "outputs": [],
      "stateMutability": "nonpayable",
      "type": "function"
    },
    {
      "inputs": [
        {
          "internalType": "address",
          "name": "provider",
          "type": "address"
        },
        {
          "internalType": "uint256",
          "name": "nonce",
          "type": "uint256"
        }
      ],
      "name": "validateProvider",
      "outputs": [],
      "stateMutability": "nonpayable",
      "type": "function"
    },
    {
      "inputs": [
        {
          "internalType": "address",
          "name": "provider",
          "type": "address"
        },
        {
          "internalType": "uint256",
          "name": "nonce",
          "type": "uint256"
        }
      ],
      "name": "removeProvider",
      "outputs": [],
      "stateMutability": "nonpayable",
      "type": "function"
    }
  ],
  "bytecode": "0x600560c08181526427bbb732b960d91b60e0526080908152610140604052600861010090815267283937bb34b232b960c11b6101205260a052620000469190600262000344565b5060405162003247380380620032478339810160408190526200006991620004d9565b8181818160026005805480602002602001604051908101604052809291908181526020016000905b82821015620001425760008481526020908190208301805460408051601f60026000196101006001871615020190941693909304928301859004850281018501909152818152928301828280156200012d5780601f1062000101576101008083540402835291602001916200012d565b820191906000526020600020905b8154815290600101906020018083116200010f57829003601f168201915b50505050508152602001906001019062000091565b5050505060008451841115620001755760405162461bcd60e51b81526004016200016c906200059f565b60405180910390fd5b60008411620001985760405162461bcd60e51b81526004016200016c90620005bd565b81518314620001bb5760405162461bcd60e51b81526004016200016c90620005db565b60008181555b8381101562000226576003805460010181556000528251600290849083908110620001e857fe5b602090810291909101810151825460018101845560009384529282902081516200021c9491909101929190910190620003a8565b50600101620001c1565b50600184905560005b8551811015620003215760016003600054815481106200024b57fe5b906000526020600020906002020160000160008884815181106200026b57fe5b60200260200101516001600160a01b03166001600160a01b0316815260200190815260200160002060000160006101000a81548160ff021916908315150217905550600360005481548110620002bd57fe5b9060005260206000209060020201600101868281518110620002db57fe5b60209081029190910181015182546001808201855560009485529290932090920180546001600160a01b0319166001600160a01b0390931692909217909155016200022f565b5050600780546001600160a01b0319163317905550620005f99650505050505050565b82805482825590600052602060002090810192821562000396579160200282015b8281111562000396578251805162000385918491602090910190620003a8565b509160200191906001019062000365565b50620003a492915062000439565b5090565b828054600181600116156101000203166002900490600052602060002090601f016020900481019282620003e057600085556200042b565b82601f10620003fb57805160ff19168380011785556200042b565b828001600101855582156200042b579182015b828111156200042b5782518255916020019190600101906200040e565b50620003a49291506200045a565b80821115620003a457600062000450828262000471565b5060010162000439565b5b80821115620003a457600081556001016200045b565b50805460018160011615610100020316600290046000825580601f10620004995750620004b9565b601f016020900490600052602060002090810190620004b991906200045a565b50565b80516001600160a01b0381168114620004d457600080fd5b919050565b60008060408385031215620004ec578182fd5b82516001600160401b038082111562000503578384fd5b818501915085601f83011262000517578384fd5b81516020828211156200052657fe5b808202604051828282010181811086821117156200054057fe5b604052838152828101945085830182870184018b10156200055f578889fd5b8896505b848710156200058c576200057781620004bc565b86526001969096019594830194830162000563565b5097909101519698969750505050505050565b60208082526004908201526322a1989b60e11b604082015260600190565b6020808252600490820152634543313760e01b604082015260600190565b60208082526004908201526308a8662760e31b604082015260600190565b612c3e80620006096000396000f3fe608060405234801561001057600080fd5b50600436106101215760003560e01c80636e4f9179116100ad578063d0a4adfe11610071578063d0a4adfe1461025b578063d744d2f31461027b578063e466154714610283578063eefe768114610296578063f05d87031461029e57610121565b80636e4f9179146102055780636e55d2d41461021a57806377bc5a1f1461022d578063a93d5ed614610240578063bfd2b3a31461024857610121565b806341929ea9116100f457806341929ea91461019757806358a1ba25146101aa57806365b973e5146101ca57806369767eab146101df5780636b074a07146101f257610121565b8063073855ca146101265780630743c85e1461013b5780632f54bf6e1461014e5780633758349914610177575b600080fd5b610139610134366004612864565b6102b1565b005b6101396101493660046127be565b6105a6565b61016161015c3660046126f4565b6106af565b60405161016e9190612958565b60405180910390f35b61018a6101853660046126f4565b6106c5565b60405161016e9190612963565b6101396101a536600461270e565b6106d2565b6101bd6101b83660046127e7565b6106e5565b60405161016e9190612920565b6101d2610856565b60405161016e9190612be5565b6101396101ed366004612864565b61085c565b6101616102003660046126f4565b6109e7565b61020d6109f4565b60405161016e91906128d3565b6101d26102283660046126f4565b610a05565b61018a61023b3660046126f4565b610a23565b61020d610a31565b6101396102563660046127be565b610a3e565b61026e610269366004612839565b610a7c565b60405161016e91906128a5565b6101d2610aa9565b6101396102913660046127be565b610ab5565b6101d2610c8f565b6101396102ac36600461270e565b610c9c565b6102ba336109e7565b15156001146102e45760405162461bcd60e51b81526004016102db90612b17565b60405180910390fd5b6001600160a01b03828116600090815260066020908152604080832087845290915290205483918591163314806103235750336001600160a01b038316145b61033f5760405162461bcd60e51b81526004016102db90612abe565b604051635c6309fb60e11b8152839073__Library_______________________________9063b8c613f69061037a9084906004908101612bee565b60006040518083038186803b15801561039257600080fd5b505af41580156103a6573d6000803e3d6000fd5b5050506001600160a01b0380871660008181526006602081815260408084208d8552808352818520549585529282526001909201805483518184028101840190945280845294909516955091939092909183018282801561042657602002820191906000526020600020905b815481526020019060010190808311610412575b5050505050905060005b81518110156105135781818151811061044557fe5b602002602001015189141561050b576104d481600660008b6001600160a01b03166001600160a01b031681526020019081526020016000206001018054806020026020016040519081016040528092919081815260200182805480156104ca57602002820191906000526020600020905b8154815260200190600101908083116104b6575b5050505050610e08565b6001600160a01b0389166000908152600660209081526040909120825161050593600190920192919091019061254c565b50610513565b600101610430565b506001600160a01b03871660009081526006602090815260408083208b8452825280832080546001600160a01b03191690553383526004825280832089845290915290819020805460ff19166001179055517fd12847594abf0621035046f61129f2a9dc5093eb516c6c517ece306362ef6f17906105949084908a906128b9565b60405180910390a15050505050505050565b6001826001600160a01b03811660009081526008602052604090205460ff1615156001146105e65760405162461bcd60e51b81526004016102db90612a66565b6106a98460036001815481106105f857fe5b600091825260208083206001600160a01b038a16845260029283020181526040928390206001908101805485519281161561010002600019011693909304601f8101839004830282018301909452838152929083018282801561069c5780601f106106715761010080835404028352916020019161069c565b820191906000526020600020905b81548152906001019060200180831161067f57829003601f168201915b5050505050600186610efb565b50505050565b60006106bd82600054611109565b90505b919050565b60606106bd82600161126b565b6106e0838360005484610efb565b505050565b6060826106f185610a05565b1161070b575060408051600081526020810190915261084f565b81808461071787610a05565b03101561072c578361072886610a05565b0390505b60008167ffffffffffffffff8111801561074557600080fd5b5060405190808252806020026020018201604052801561076f578160200160208202803683370190505b506001600160a01b0387166000908152600660209081526040808320600101805482518185028101850190935280835294955092939092918301828280156107d657602002820191906000526020600020905b8154815260200190600101908083116107c2575b5050505050905060008060005b8351811015610846578783106107f857610846565b8189111561080b5760018201915061083e565b83818151811061081757fe5b602002602001015185848151811061082b57fe5b6020026020010181815250506001830192505b6001016107e3565b50929450505050505b9392505050565b60015490565b610865336109e7565b15156001146108865760405162461bcd60e51b81526004016102db90612b17565b826001600160a01b0380841660009081526006602090815260408083208884529091529020548491869116156108ce5760405162461bcd60e51b81526004016102db90612af9565b604051635c6309fb60e11b8152849073__Library_______________________________9063b8c613f6906109099084906004908101612bee565b60006040518083038186803b15801561092157600080fd5b505af4158015610935573d6000803e3d6000fd5b5050506001600160a01b03871660009081526006602090815260408083208b845280835281842080546001600160a01b03191633908117909155600191820180548084018255908652848620018d9055808552600484528285208b865290935292819020805460ff191690931790925590517f601cb9a073dbfa468ef12878ee6c720641a49b76af7c16099e8c0a1ac3ca79b592506109d6919089906128b9565b60405180910390a150505050505050565b60006106bd826001611109565b6060610a006001611341565b905090565b6001600160a01b031660009081526006602052604090206001015490565b60606106bd8260005461126b565b6060610a00600054611341565b6001546001610a4e60005461141e565b0380821115610a6f5760405162461bcd60e51b81526004016102db90612a83565b6106a984600054856114f3565b6001600160a01b038082166000908152600660209081526040808320868452909152902054165b92915050565b6000610a00600161141e565b610ac1826001836114f3565b610c666003600181548110610ad257fe5b600091825260208083206001600160a01b038716845260029283020181526040928390208351608081018552815460ff16151581526001808301805487516101009382161593909302600019011695909504601f8101859004850282018501909652858152909491938584019391929091830182828015610b945780601f10610b6957610100808354040283529160200191610b94565b820191906000526020600020905b815481529060010190602001808311610b7757829003601f168201915b5050505050815260200160028201805480602002602001604051908101604052809291908181526020018280548015610bf657602002820191906000526020600020905b81546001600160a01b03168152600190910190602001808311610bd8575b5050505050815260200160038201805480602002602001604051908101604052809291908181526020018280548015610c5857602002820191906000526020600020905b81546001600160a01b03168152600190910190602001808311610c3a575b50505050508152505061164d565b610c8b576001600160a01b0382166000908152600860205260409020805460ff191690555b5050565b6000610a0060005461141e565b6007546001600160a01b0316338114610cc75760405162461bcd60e51b81526004016102db90612b8d565b6000846001600160a01b03811660009081526008602052604090205460ff1615610d035760405162461bcd60e51b81526004016102db90612adc565b604051635c6309fb60e11b8152849073__Library_______________________________9063b8c613f690610d3e9084906004908101612bee565b60006040518083038186803b158015610d5657600080fd5b505af4158015610d6a573d6000803e3d6000fd5b50505050856003600181548110610d7d57fe5b600091825260208083206001600160a01b038c1684526002909202909101815260409091208251610db8936001909201929190910190612597565b505050506001600160a01b039390931660009081526008602090815260408083208054600160ff199182168117909255338552600484528285209585529490925290912080549092161790555050565b6060828251610e178282611651565b1515600114610e385760405162461bcd60e51b81526004016102db90612b70565b6000600185510367ffffffffffffffff81118015610e5557600080fd5b50604051908082528060200260200182016040528015610e7f578160200160208202803683370190505b50905084600186510381518110610e9257fe5b6020026020010151858781518110610ea657fe5b60200260200101818152505060005b8151811015610ef157858181518110610eca57fe5b6020026020010151828281518110610ede57fe5b6020908102919091010152600101610eb5565b5095945050505050565b60035460405163123bd07560e11b815283919073__Library_______________________________90632477a0ea90610f3a9085908590600401612bee565b60206040518083038186803b158015610f5257600080fd5b505af4158015610f66573d6000803e3d6000fd5b505050506040513d601f19601f82011682018060405250810190610f8a9190612819565b1515600114610fab5760405162461bcd60e51b81526004016102db90612b70565b610fb4336106af565b1515600114610fd55760405162461bcd60e51b81526004016102db90612b53565b611000868660038781548110610fe757fe5b9060005260206000209060020201600154600488611655565b6110a76003858154811061101057fe5b600091825260208083206001600160a01b038b16845260029283020181526040928390208351608081018552815460ff16151581526001808301805487516101009382161593909302600019011695909504601f8101859004850282018501909652858152909491938584019391929091830182828015610b945780601f10610b6957610100808354040283529160200191610b94565b151560011415611101577f3c139d46a211844e248647688545a37c07c505c999c1232d1247c707dc0a91e2600285815481106110df57fe5b90600052602060002001876040516110f89291906129b6565b60405180910390a15b505050505050565b60035460405163123bd07560e11b8152600091839173__Library_______________________________90632477a0ea9061114a9085908590600401612bee565b60206040518083038186803b15801561116257600080fd5b505af4158015611176573d6000803e3d6000fd5b505050506040513d601f19601f8201168201806040525081019061119a9190612819565b15156001146111bb5760405162461bcd60e51b81526004016102db90612b70565b611262600385815481106111cb57fe5b600091825260208083206001600160a01b038a16845260029283020181526040928390208351608081018552815460ff16151581526001808301805487516101009382161593909302600019011695909504601f8101859004850282018501909652858152909491938584019391929091830182828015610b945780601f10610b6957610100808354040283529160200191610b94565b95945050505050565b60035460405163123bd07560e11b8152606091839173__Library_______________________________90632477a0ea906112ac9085908590600401612bee565b60206040518083038186803b1580156112c457600080fd5b505af41580156112d8573d6000803e3d6000fd5b505050506040513d601f19601f820116820180604052508101906112fc9190612819565b151560011461131d5760405162461bcd60e51b81526004016102db90612b70565b611262856003868154811061132e57fe5b9060005260206000209060020201611a9b565b60035460405163123bd07560e11b8152606091839173__Library_______________________________90632477a0ea906113829085908590600401612bee565b60206040518083038186803b15801561139a57600080fd5b505af41580156113ae573d6000803e3d6000fd5b505050506040513d601f19601f820116820180604052508101906113d29190612819565b15156001146113f35760405162461bcd60e51b81526004016102db90612b70565b6114166003858154811061140357fe5b9060005260206000209060020201611cde565b949350505050565b60035460405163123bd07560e11b8152600091839173__Library_______________________________90632477a0ea9061145f9085908590600401612bee565b60206040518083038186803b15801561147757600080fd5b505af415801561148b573d6000803e3d6000fd5b505050506040513d601f19601f820116820180604052508101906114af9190612819565b15156001146114d05760405162461bcd60e51b81526004016102db90612b70565b611416600385815481106114e057fe5b9060005260206000209060020201611d44565b60035460405163123bd07560e11b815283919073__Library_______________________________90632477a0ea906115329085908590600401612bee565b60206040518083038186803b15801561154a57600080fd5b505af415801561155e573d6000803e3d6000fd5b505050506040513d601f19601f820116820180604052508101906115829190612819565b15156001146115a35760405162461bcd60e51b81526004016102db90612b70565b846115ad336106af565b1515600114806115c55750336001600160a01b038216145b6115e15760405162461bcd60e51b81526004016102db90612baa565b61160b86600387815481106115f257fe5b9060005260206000209060020201600154600488611d4b565b61161b6003868154811061101057fe5b611101577f1f62d535f971041db7bd8760bf0f1f9f476461558744a35c0d477b5ad6893e89600286815481106110df57fe5b5190565b1190565b6001600160a01b0386166000908152602085815260408083208151608081018352815460ff1615158152600180830180548551600261010094831615949094026000190190911692909204601f8101879004870283018701909552848252919492938584019391929183018282801561170f5780601f106116e45761010080835404028352916020019161170f565b820191906000526020600020905b8154815290600101906020018083116116f257829003601f168201915b505050505081526020016002820180548060200260200160405190810160405280929190818152602001828054801561177157602002820191906000526020600020905b81546001600160a01b03168152600190910190602001808311611753575b50505050508152602001600382018054806020026020016040519081016040528092919081815260200182805480156117d357602002820191906000526020600020905b81546001600160a01b031681526001909101906020018083116117b5575b5050505050815250506117e6828261224b565b6001600160a01b0388166000908152602087815260408083208151608081018352815460ff1615158152600180830180548551600261010094831615949094026000190190911692909204601f810187900487028301870190955284825291949293858401939192918301828280156118a05780601f10611875576101008083540402835291602001916118a0565b820191906000526020600020905b81548152906001019060200180831161188357829003601f168201915b505050505081526020016002820180548060200260200160405190810160405280929190818152602001828054801561190257602002820191906000526020600020905b81546001600160a01b031681526001909101906020018083116118e4575b505050505081526020016003820180548060200260200160405190810160405280929190818152602001828054801561196457602002820191906000526020600020905b81546001600160a01b03168152600190910190602001808311611946575b50505050508152505061197782826122a5565b8486611983828261230b565b6001600160a01b038c16600090815260208b905260409020600201546119d2576001600160a01b038c16600090815260208b815260409091208c516119d0926001909201918e0190612597565b505b6001600160a01b038c16600081815260208c8152604080832060020180546001818101835582865284862090910180546001600160a01b0319163390811790915585528d84528285208d86528452918420805460ff1916909217909155929091528b905254611a41908a612344565b15611a8d576001600160a01b038c16600081815260208c815260408220805460ff191660019081179091558d810180549182018155835291200180546001600160a01b03191690911790555b505050505050505050505050565b6001600160a01b038216600090815260208281526040918290208251608081018452815460ff1615158152600182810180548651601f600260001984871615610100020190931692909204918201879004870281018701909752808752606096929593949385810193929190830182828015611b585780601f10611b2d57610100808354040283529160200191611b58565b820191906000526020600020905b815481529060010190602001808311611b3b57829003601f168201915b5050505050815260200160028201805480602002602001604051908101604052809291908181526020018280548015611bba57602002820191906000526020600020905b81546001600160a01b03168152600190910190602001808311611b9c575b5050505050815260200160038201805480602002602001604051908101604052809291908181526020018280548015611c1c57602002820191906000526020600020905b81546001600160a01b03168152600190910190602001808311611bfe575b505050505081525050611c2f828261224b565b6001600160a01b03851660009081526020858152604091829020600190810180548451600293821615610100026000190190911692909204601f810184900484028301840190945283825290929091830182828015611ccf5780601f10611ca457610100808354040283529160200191611ccf565b820191906000526020600020905b815481529060010190602001808311611cb257829003601f168201915b50505050509250505092915050565b606081600101805480602002602001604051908101604052809291908181526020018280548015611d3857602002820191906000526020600020905b81546001600160a01b03168152600190910190602001808311611d1a575b50505050509050919050565b6001015490565b6001600160a01b038516600090815260208581526040918290208251608081018452815460ff1615158152600180830180548651600261010083861615026000190190921691909104601f8101879004870282018701909752868152919592948581019390830182828015611e015780601f10611dd657610100808354040283529160200191611e01565b820191906000526020600020905b815481529060010190602001808311611de457829003601f168201915b5050505050815260200160028201805480602002602001604051908101604052809291908181526020018280548015611e6357602002820191906000526020600020905b81546001600160a01b03168152600190910190602001808311611e45575b5050505050815260200160038201805480602002602001604051908101604052809291908181526020018280548015611ec557602002820191906000526020600020905b81546001600160a01b03168152600190910190602001808311611ea7575b505050505081525050611ed8828261224b565b6001600160a01b038716600090815260208781526040918290208251608081018452815460ff1615158152600180830180548651600261010083861615026000190190921691909104601f8101879004870282018701909752868152919592948581019390830182828015611f8e5780601f10611f6357610100808354040283529160200191611f8e565b820191906000526020600020905b815481529060010190602001808311611f7157829003601f168201915b5050505050815260200160028201805480602002602001604051908101604052809291908181526020018280548015611ff057602002820191906000526020600020905b81546001600160a01b03168152600190910190602001808311611fd2575b505050505081526020016003820180548060200260200160405190810160405280929190818152602001828054801561205257602002820191906000526020600020905b81546001600160a01b03168152600190910190602001808311612034575b50505050508152505061206582826122a5565b8486612071828261230b565b6001600160a01b038b16600081815260208c815260408083206003018054600181810183559185528385200180546001600160a01b031916339081179091558085528d84528285208d86529093529220805460ff191690921790915514806120fa57506001600160a01b038b16600090815260208b905260409020600301546120fa908a612344565b1561223e576121da6121d561216b8d8d60010180548060200260200160405190810160405280929190818152602001828054801561216157602002820191906000526020600020905b81546001600160a01b03168152600190910190602001808311612143575b505050505061235f565b6121d08d6001018054806020026020016040519081016040528092919081815260200182805480156121c657602002820191906000526020600020905b81546001600160a01b031681526001909101906020018083116121a8575b50505050506123b3565b610e08565b61244a565b80516121f09160018d0191602090910190612612565b506001600160a01b038b16600090815260208b905260408120805460ff191681559061221f6001830182612667565b61222d6002830160006126ae565b61223b6003830160006126ae565b50505b5050505050505050505050565b8161227b576122598161164d565b156122765760405162461bcd60e51b81526004016102db90612bc8565b610c8b565b6122848161164d565b1515600114610c8b5760405162461bcd60e51b81526004016102db90612a49565b8160018111156122b157fe5b6122e0576122c33382604001516124e7565b156122765760405162461bcd60e51b81526004016102db90612aa1565b6122ee3382606001516124e7565b15610c8b5760405162461bcd60e51b81526004016102db90612aa1565b3360009081526020828152604080832085845290915290205460ff1615610c8b5760405162461bcd60e51b81526004016102db90612b35565b60008183101561235657506000610aa3565b50600192915050565b6000805b82518110156123a85782818151811061237857fe5b60200260200101516001600160a01b0316846001600160a01b031614156123a0579050610aa3565b600101612363565b505051600101919050565b60606000825167ffffffffffffffff811180156123cf57600080fd5b506040519080825280602002602001820160405280156123f9578160200160208202803683370190505b50905060005b83518110156124435761242484828151811061241757fe5b602002602001015161253d565b82828151811061243057fe5b60209081029190910101526001016123ff565b5092915050565b60606000825167ffffffffffffffff8111801561246657600080fd5b50604051908082528060200260200182016040528015612490578160200160208202803683370190505b50905060005b8351811015612443576124bb8482815181106124ae57fe5b6020026020010151612549565b8282815181106124c757fe5b6001600160a01b0390921660209283029190910190910152600101612496565b6000805b82518110156125335782818151811061250057fe5b60200260200101516001600160a01b0316846001600160a01b0316141561252b576001915050610aa3565b6001016124eb565b5060009392505050565b6001600160a01b031690565b90565b828054828255906000526020600020908101928215612587579160200282015b8281111561258757825182559160200191906001019061256c565b506125939291506126c8565b5090565b828054600181600116156101000203166002900490600052602060002090601f0160209004810192826125cd5760008555612587565b82601f106125e657805160ff1916838001178555612587565b82800160010185558215612587579182018281111561258757825182559160200191906001019061256c565b828054828255906000526020600020908101928215612587579160200282015b8281111561258757825182546001600160a01b0319166001600160a01b03909116178255602090920191600190910190612632565b50805460018160011615610100020316600290046000825580601f1061268d57506126ab565b601f0160209004906000526020600020908101906126ab91906126c8565b50565b50805460008255906000526020600020908101906126ab91905b5b8082111561259357600081556001016126c9565b80356001600160a01b03811681146106c057600080fd5b600060208284031215612705578081fd5b61084f826126dd565b600080600060608486031215612722578182fd5b61272b846126dd565b925060208085013567ffffffffffffffff80821115612748578485fd5b818701915087601f83011261275b578485fd5b81358181111561276757fe5b604051601f8201601f191681018501838111828210171561278457fe5b60405281815283820185018a101561279a578687fd5b81858501868301379081019093019490945250929592945050506040919091013590565b600080604083850312156127d0578182fd5b6127d9836126dd565b946020939093013593505050565b6000806000606084860312156127fb578283fd5b612804846126dd565b95602085013595506040909401359392505050565b60006020828403121561282a578081fd5b8151801515811461084f578182fd5b6000806040838503121561284b578182fd5b8235915061285b602084016126dd565b90509250929050565b600080600060608486031215612878578283fd5b83359250612888602085016126dd565b9150604084013590509250925092565b6001600160a01b03169052565b6001600160a01b0391909116815260200190565b6001600160a01b0392831681529116602082015260400190565b6020808252825182820181905260009190848201906040850190845b818110156129145783516001600160a01b0316835292840192918401916001016128ef565b50909695505050505050565b6020808252825182820181905260009190848201906040850190845b818110156129145783518352928401929184019160010161293c565b901515815260200190565b6000602080835283518082850152825b8181101561298f57858101830151858201604001528201612973565b818111156129a05783604083870101525b50601f01601f1916929092016040019392505050565b600060408201604083528185546001808216600081146129dd57600181146129fb57612a34565b60028304607f16855260ff1983166060880152608087019350612a34565b60028304808652612a0b8a612bfc565b875b82811015612a2a5781548a82016060015290840190602001612a0d565b8901606001955050505b505050809250505061084f6020830184612898565b60208082526003908201526245433760e81b604082015260600190565b6020808252600390820152621150cd60ea1b604082015260600190565b6020808252600490820152634543313960e01b604082015260600190565b60208082526003908201526245433560e81b604082015260600190565b6020808252600490820152631150cc4d60e21b604082015260600190565b60208082526003908201526245433360e81b604082015260600190565b6020808252600490820152634543313560e01b604082015260600190565b60208082526004908201526322a1989960e11b604082015260600190565b6020808252600490820152630454332360e41b604082015260600190565b60208082526003908201526245433960e81b604082015260600190565b60208082526003908201526245433160e81b604082015260600190565b60208082526003908201526208a86760eb1b604082015260600190565b6020808252600490820152630454331360e41b604082015260600190565b60208082526003908201526222a19b60e91b604082015260600190565b90815260200190565b918252602082015260400190565b6000908152602090209056fea264697066735822122046e78fb98c9ad84480b7698ed4d60563cc649086ba917ae81dd3123ba7d1cb9e64736f6c63430007060033",
  "immutableReferences": {},
  "source": "// SPDX-License-Identifier: GPL-3.0\r\n\r\npragma solidity >=0.7.0 <0.9.0;\r\npragma experimental ABIEncoderV2;\r\n\r\n/**\r\n * @title Storage\r\n * @dev Store & retrieve value in a variable\r\n */\r\n\r\n import \"./Abstract/MultiSigCertificatesPool.sol\";\r\n\r\n contract PublicCertificatesPool is MultiSigCertificatesPool {\r\n\r\n     address _creator;\r\n     mapping(address => bool) _submitedByCreator;\r\n\r\n     //modifiers\r\n    modifier hasBeenSubmitted(bool YesOrNo, address provider){\r\n        if(false == YesOrNo) require(false == _submitedByCreator[provider], \"EC3\");\r\n        else require(true == _submitedByCreator[provider], \"EC4\");\r\n        _;\r\n    }\r\n\r\n     // Constructor\r\n    constructor(address[] memory owners,  uint256 minOwners) MultiSigCertificatesPool(owners, minOwners) payable {\r\n        _creator = msg.sender;\r\n    }\r\n\r\n    function addProvider(address provider, string memory providerInfo, uint nonce) external \r\n        isSomeoneSpecific(_creator)\r\n        hasBeenSubmitted(false, provider)\r\n        isNonceOK(nonce)\r\n    override\r\n    {\r\n        _Entities[_providerId]._entities[provider]._Info = bytes(providerInfo);\r\n        _submitedByCreator[provider] = true;\r\n        _Nonces._noncesPerAddress[msg.sender][nonce] = true;\r\n    }\r\n\r\n    function validateProvider(address provider, uint nonce) external \r\n        hasBeenSubmitted(true, provider)\r\n    {\r\n        addEntity(provider, _Entities[_providerId]._entities[provider]._Info, _providerId, nonce);\r\n    }\r\n\r\n    function removeProvider(address provider, uint nonce) external override{\r\n       removeEntity(provider, _providerId, nonce); \r\n\r\n       if(false == Library.isEntity(_Entities[_providerId]._entities[provider])){\r\n            delete(_submitedByCreator[provider]);\r\n       }\r\n    }\r\n\r\n }",
  "sourcePath": "C:\\Users\\d-aam\\GitHub\\Certificates\\contracts\\PublicCertificatesPool.sol",
  "compiler": {
    "name": "solc",
    "version": "0.7.6+commit.7338295f.Emscripten.clang"
  },
  "schemaVersion": "3.3.4",
  "updatedAt": "2021-07-13T07:50:29.559Z",
  "devdoc": {
    "kind": "dev",
    "methods": {},
    "version": 1
  },
  "userdoc": {
    "kind": "user",
    "methods": {},
    "version": 1
  }
}