{
  "contractName": "PublicCertificatesPool",
  "abi": [
    {
      "anonymous": false,
      "inputs": [
        {
          "indexed": true,
          "internalType": "address",
          "name": "Provider",
          "type": "address"
        },
        {
          "indexed": true,
          "internalType": "address",
          "name": "Holder",
          "type": "address"
        },
        {
          "indexed": false,
          "internalType": "bytes32",
          "name": "Certificate",
          "type": "bytes32"
        }
      ],
      "name": "_AddCertificate",
      "type": "event"
    },
    {
      "anonymous": false,
      "inputs": [
        {
          "indexed": false,
          "internalType": "string",
          "name": "ItemType",
          "type": "string"
        },
        {
          "indexed": true,
          "internalType": "bytes32",
          "name": "Item",
          "type": "bytes32"
        },
        {
          "indexed": false,
          "internalType": "string",
          "name": "Info",
          "type": "string"
        }
      ],
      "name": "_AddItemRejection",
      "type": "event"
    },
    {
      "anonymous": false,
      "inputs": [
        {
          "indexed": false,
          "internalType": "string",
          "name": "ItemType",
          "type": "string"
        },
        {
          "indexed": true,
          "internalType": "bytes32",
          "name": "Item",
          "type": "bytes32"
        },
        {
          "indexed": false,
          "internalType": "string",
          "name": "Info",
          "type": "string"
        }
      ],
      "name": "_AddItemValidation",
      "type": "event"
    },
    {
      "anonymous": false,
      "inputs": [
        {
          "indexed": true,
          "internalType": "address",
          "name": "Provider",
          "type": "address"
        },
        {
          "indexed": false,
          "internalType": "string",
          "name": "Info",
          "type": "string"
        }
      ],
      "name": "_NewProposal",
      "type": "event"
    },
    {
      "anonymous": false,
      "inputs": [
        {
          "indexed": false,
          "internalType": "string",
          "name": "ItemType",
          "type": "string"
        },
        {
          "indexed": true,
          "internalType": "bytes32",
          "name": "Item",
          "type": "bytes32"
        },
        {
          "indexed": false,
          "internalType": "string",
          "name": "Info",
          "type": "string"
        }
      ],
      "name": "_RemoveItemRejection",
      "type": "event"
    },
    {
      "anonymous": false,
      "inputs": [
        {
          "indexed": false,
          "internalType": "string",
          "name": "ItemType",
          "type": "string"
        },
        {
          "indexed": true,
          "internalType": "bytes32",
          "name": "Item",
          "type": "bytes32"
        },
        {
          "indexed": false,
          "internalType": "string",
          "name": "Info",
          "type": "string"
        }
      ],
      "name": "_RemoveItemValidation",
      "type": "event"
    },
    {
      "inputs": [
        {
          "internalType": "address[]",
          "name": "owners",
          "type": "address[]"
        },
        {
          "internalType": "uint256",
          "name": "minOwners",
          "type": "uint256"
        },
        {
          "internalType": "string",
          "name": "contractName",
          "type": "string"
        },
        {
          "internalType": "string",
          "name": "contractVersion",
          "type": "string"
        }
      ],
      "name": "MultiSigCertPool_init",
      "outputs": [],
      "stateMutability": "nonpayable",
      "type": "function"
    },
    {
      "inputs": [
        {
          "internalType": "address[]",
          "name": "owners",
          "type": "address[]"
        },
        {
          "internalType": "uint256",
          "name": "minOwners",
          "type": "uint256"
        },
        {
          "internalType": "uint256",
          "name": "TotalEntities",
          "type": "uint256"
        },
        {
          "internalType": "string[]",
          "name": "labels",
          "type": "string[]"
        },
        {
          "internalType": "uint256",
          "name": "ownerId",
          "type": "uint256"
        }
      ],
      "name": "MultiSigContract_init",
      "outputs": [],
      "stateMutability": "nonpayable",
      "type": "function"
    },
    {
      "inputs": [
        {
          "internalType": "bytes32",
          "name": "CertificateHash",
          "type": "bytes32"
        },
        {
          "internalType": "address",
          "name": "holder",
          "type": "address"
        }
      ],
      "name": "addCertificate",
      "outputs": [],
      "stateMutability": "payable",
      "type": "function",
      "payable": true
    },
    {
      "inputs": [
        {
          "internalType": "address",
          "name": "provider",
          "type": "address"
        },
        {
          "internalType": "bytes32",
          "name": "CertificateHash",
          "type": "bytes32"
        },
        {
          "internalType": "address",
          "name": "holder",
          "type": "address"
        },
        {
          "internalType": "uint256",
          "name": "nonce",
          "type": "uint256"
        },
        {
          "internalType": "uint256",
          "name": "deadline",
          "type": "uint256"
        },
        {
          "internalType": "bytes",
          "name": "signature",
          "type": "bytes"
        }
      ],
      "name": "addCertificateOnBehalfOf",
      "outputs": [],
      "stateMutability": "payable",
      "type": "function",
      "payable": true
    },
    {
      "inputs": [
        {
          "internalType": "address",
          "name": "owner",
          "type": "address"
        },
        {
          "internalType": "string",
          "name": "ownerInfo",
          "type": "string"
        }
      ],
      "name": "addOwner",
      "outputs": [],
      "stateMutability": "nonpayable",
      "type": "function"
    },
    {
      "inputs": [
        {
          "internalType": "uint256",
          "name": "newMinOwners",
          "type": "uint256"
        }
      ],
      "name": "changeMinOwners",
      "outputs": [],
      "stateMutability": "nonpayable",
      "type": "function"
    },
    {
      "inputs": [],
      "name": "rejectMinOwners",
      "outputs": [],
      "stateMutability": "nonpayable",
      "type": "function"
    },
    {
      "inputs": [
        {
          "internalType": "address",
          "name": "owner",
          "type": "address"
        }
      ],
      "name": "rejectOwner",
      "outputs": [],
      "stateMutability": "nonpayable",
      "type": "function"
    },
    {
      "inputs": [
        {
          "internalType": "address",
          "name": "provider",
          "type": "address"
        }
      ],
      "name": "rejectProvider",
      "outputs": [],
      "stateMutability": "nonpayable",
      "type": "function"
    },
    {
      "inputs": [
        {
          "internalType": "address",
          "name": "owner",
          "type": "address"
        }
      ],
      "name": "removeOwner",
      "outputs": [],
      "stateMutability": "nonpayable",
      "type": "function"
    },
    {
      "inputs": [
        {
          "internalType": "address",
          "name": "provider",
          "type": "address"
        }
      ],
      "name": "removeProvider",
      "outputs": [],
      "stateMutability": "nonpayable",
      "type": "function"
    },
    {
      "inputs": [],
      "name": "retrieveAllOwners",
      "outputs": [
        {
          "internalType": "bytes32[]",
          "name": "",
          "type": "bytes32[]"
        }
      ],
      "stateMutability": "view",
      "type": "function",
      "constant": true
    },
    {
      "inputs": [],
      "name": "retrieveAllProviders",
      "outputs": [
        {
          "internalType": "bytes32[]",
          "name": "",
          "type": "bytes32[]"
        }
      ],
      "stateMutability": "view",
      "type": "function",
      "constant": true
    },
    {
      "inputs": [
        {
          "internalType": "bytes32",
          "name": "CertificateHash",
          "type": "bytes32"
        },
        {
          "internalType": "address",
          "name": "holder",
          "type": "address"
        }
      ],
      "name": "retrieveCertificateProvider",
      "outputs": [
        {
          "internalType": "address",
          "name": "",
          "type": "address"
        }
      ],
      "stateMutability": "view",
      "type": "function",
      "constant": true
    },
    {
      "inputs": [
        {
          "internalType": "address",
          "name": "holder",
          "type": "address"
        },
        {
          "internalType": "uint256",
          "name": "skipFirst",
          "type": "uint256"
        },
        {
          "internalType": "uint256",
          "name": "max",
          "type": "uint256"
        }
      ],
      "name": "retrieveCertificatesByHolder",
      "outputs": [
        {
          "internalType": "bytes32[]",
          "name": "",
          "type": "bytes32[]"
        }
      ],
      "stateMutability": "view",
      "type": "function",
      "constant": true
    },
    {
      "inputs": [],
      "name": "retrieveContractConfig",
      "outputs": [
        {
          "internalType": "string",
          "name": "",
          "type": "string"
        },
        {
          "internalType": "string",
          "name": "",
          "type": "string"
        }
      ],
      "stateMutability": "view",
      "type": "function",
      "constant": true
    },
    {
      "inputs": [],
      "name": "retrieveManagerContract",
      "outputs": [
        {
          "internalType": "address",
          "name": "",
          "type": "address"
        }
      ],
      "stateMutability": "view",
      "type": "function",
      "constant": true
    },
    {
      "inputs": [],
      "name": "retrieveMinOwners",
      "outputs": [
        {
          "internalType": "uint256",
          "name": "",
          "type": "uint256"
        }
      ],
      "stateMutability": "view",
      "type": "function",
      "constant": true
    },
    {
      "inputs": [
        {
          "internalType": "address",
          "name": "addr",
          "type": "address"
        },
        {
          "internalType": "uint256",
          "name": "nonce",
          "type": "uint256"
        }
      ],
      "name": "retrieveNonce",
      "outputs": [
        {
          "internalType": "bool",
          "name": "",
          "type": "bool"
        }
      ],
      "stateMutability": "view",
      "type": "function",
      "constant": true
    },
    {
      "inputs": [
        {
          "internalType": "address",
          "name": "owner",
          "type": "address"
        }
      ],
      "name": "retrieveOwner",
      "outputs": [
        {
          "components": [
            {
              "internalType": "string",
              "name": "_Info",
              "type": "string"
            },
            {
              "internalType": "bool",
              "name": "_activated",
              "type": "bool"
            },
            {
              "internalType": "uint256",
              "name": "_id",
              "type": "uint256"
            },
            {
              "internalType": "uint256",
              "name": "_pendingId",
              "type": "uint256"
            },
            {
              "internalType": "address[]",
              "name": "_Validations",
              "type": "address[]"
            },
            {
              "internalType": "address[]",
              "name": "_Rejections",
              "type": "address[]"
            }
          ],
          "internalType": "struct ItemsLibrary._itemIdentity",
          "name": "",
          "type": "tuple"
        }
      ],
      "stateMutability": "view",
      "type": "function",
      "constant": true
    },
    {
      "inputs": [],
      "name": "retrievePendingMinOwners",
      "outputs": [
        {
          "internalType": "uint256",
          "name": "",
          "type": "uint256"
        }
      ],
      "stateMutability": "view",
      "type": "function",
      "constant": true
    },
    {
      "inputs": [],
      "name": "retrievePendingMinOwnersStatus",
      "outputs": [
        {
          "internalType": "uint256",
          "name": "",
          "type": "uint256"
        },
        {
          "internalType": "uint256",
          "name": "",
          "type": "uint256"
        },
        {
          "internalType": "address[]",
          "name": "",
          "type": "address[]"
        }
      ],
      "stateMutability": "view",
      "type": "function",
      "constant": true
    },
    {
      "inputs": [
        {
          "internalType": "bool",
          "name": "addedORremove",
          "type": "bool"
        }
      ],
      "name": "retrievePendingOwners",
      "outputs": [
        {
          "internalType": "bytes32[]",
          "name": "",
          "type": "bytes32[]"
        }
      ],
      "stateMutability": "view",
      "type": "function",
      "constant": true
    },
    {
      "inputs": [
        {
          "internalType": "bool",
          "name": "addedORremove",
          "type": "bool"
        }
      ],
      "name": "retrievePendingProviders",
      "outputs": [
        {
          "internalType": "bytes32[]",
          "name": "",
          "type": "bytes32[]"
        }
      ],
      "stateMutability": "view",
      "type": "function",
      "constant": true
    },
    {
      "inputs": [
        {
          "internalType": "address",
          "name": "provider",
          "type": "address"
        }
      ],
      "name": "retrieveProvider",
      "outputs": [
        {
          "components": [
            {
              "internalType": "string",
              "name": "_Info",
              "type": "string"
            },
            {
              "internalType": "bool",
              "name": "_activated",
              "type": "bool"
            },
            {
              "internalType": "uint256",
              "name": "_id",
              "type": "uint256"
            },
            {
              "internalType": "uint256",
              "name": "_pendingId",
              "type": "uint256"
            },
            {
              "internalType": "address[]",
              "name": "_Validations",
              "type": "address[]"
            },
            {
              "internalType": "address[]",
              "name": "_Rejections",
              "type": "address[]"
            }
          ],
          "internalType": "struct ItemsLibrary._itemIdentity",
          "name": "",
          "type": "tuple"
        }
      ],
      "stateMutability": "view",
      "type": "function",
      "constant": true
    },
    {
      "inputs": [
        {
          "internalType": "address",
          "name": "holder",
          "type": "address"
        }
      ],
      "name": "retrieveTotalCertificatesByHolder",
      "outputs": [
        {
          "internalType": "uint256",
          "name": "",
          "type": "uint256"
        }
      ],
      "stateMutability": "view",
      "type": "function",
      "constant": true
    },
    {
      "inputs": [],
      "name": "validateMinOwners",
      "outputs": [],
      "stateMutability": "nonpayable",
      "type": "function"
    },
    {
      "inputs": [
        {
          "internalType": "address",
          "name": "owner",
          "type": "address"
        }
      ],
      "name": "validateOwner",
      "outputs": [],
      "stateMutability": "nonpayable",
      "type": "function"
    },
    {
      "inputs": [
        {
          "internalType": "address",
          "name": "provider",
          "type": "address"
        }
      ],
      "name": "validateProvider",
      "outputs": [],
      "stateMutability": "nonpayable",
      "type": "function"
    },
    {
      "inputs": [
        {
          "internalType": "address[]",
          "name": "owners",
          "type": "address[]"
        },
        {
          "internalType": "uint256",
          "name": "minOwners",
          "type": "uint256"
        },
        {
          "internalType": "address",
          "name": "managerContractAddress",
          "type": "address"
        },
        {
          "internalType": "string",
          "name": "contractName",
          "type": "string"
        },
        {
          "internalType": "string",
          "name": "contractVersion",
          "type": "string"
        }
      ],
      "name": "PublicCertPool_init",
      "outputs": [],
      "stateMutability": "nonpayable",
      "type": "function"
    },
    {
      "inputs": [
        {
          "internalType": "address",
          "name": "provider",
          "type": "address"
        },
        {
          "internalType": "string",
          "name": "providerInfo",
          "type": "string"
        }
      ],
      "name": "addProvider",
      "outputs": [],
      "stateMutability": "payable",
      "type": "function",
      "payable": true
    },
    {
      "inputs": [],
      "name": "retrieveAddCertificatePriceWei",
      "outputs": [
        {
          "internalType": "uint256",
          "name": "",
          "type": "uint256"
        }
      ],
      "stateMutability": "view",
      "type": "function",
      "constant": true
    },
    {
      "inputs": [],
      "name": "retrieveSubscriptionPriceWei",
      "outputs": [
        {
          "internalType": "uint256",
          "name": "",
          "type": "uint256"
        }
      ],
      "stateMutability": "view",
      "type": "function",
      "constant": true
    },
    {
      "inputs": [
        {
          "internalType": "bytes32",
          "name": "item",
          "type": "bytes32"
        },
        {
          "internalType": "uint256[]",
          "name": "ids",
          "type": "uint256[]"
        },
        {
          "internalType": "bool",
          "name": "addOrRemove",
          "type": "bool"
        }
      ],
      "name": "onItemValidated",
      "outputs": [],
      "stateMutability": "nonpayable",
      "type": "function"
    },
    {
      "inputs": [
        {
          "internalType": "bytes32",
          "name": "item",
          "type": "bytes32"
        },
        {
          "internalType": "uint256[]",
          "name": "ids",
          "type": "uint256[]"
        },
        {
          "internalType": "bool",
          "name": "addOrRemove",
          "type": "bool"
        }
      ],
      "name": "onItemRejected",
      "outputs": [],
      "stateMutability": "nonpayable",
      "type": "function"
    }
  ],
  "bytecode": "0x608060405234801561001057600080fd5b5061460f806100206000396000f3fe6080604052600436106101945760003560e01c80630b4c72a914610199578063173825d9146101bb5780631ab807f8146101db57806327a40b4b146101ee5780632edbe7fc1461020e57806330ade922146102325780633542758f1461024757806337583499146102675780633fd07181146102945780633feca4ca146102b45780634774779d1461030a57806357e7ea2e1461031f5780635888ebb31461033457806358a1ba25146103585780635b362e841461038557806365b973e5146103ac5780636825b263146103c15780636b299604146103e15780636b3a0fec146104015780636e4f9179146104215780636e55d2d41461043657806376f8f90f1461045657806377bc5a1f146104765780637c8c2add146104965780638a355a57146104b65780638b9be256146104d6578063a93d5ed6146104e9578063c3079ae7146104fe578063c66433ea14610513578063ce33d58a14610533578063cf2041d914610553578063d0a4adfe14610573578063d2116a02146105b9578063dc865ca6146105dc578063fc000500146105fc575b600080fd5b3480156101a557600080fd5b506101b96101b4366004613817565b61060f565b005b3480156101c757600080fd5b506101b96101d6366004613817565b61061d565b6101b96101e9366004613d2a565b610672565b3480156101fa57600080fd5b506101b9610209366004613817565b610689565b34801561021a57600080fd5b506008545b6040519081526020015b60405180910390f35b34801561023e57600080fd5b506101b9610694565b34801561025357600080fd5b506101b96102623660046138e2565b610793565b34801561027357600080fd5b50610287610282366004613817565b6107a1565b60405161022991906142d9565b3480156102a057600080fd5b506101b96102af366004613d5a565b6107ba565b3480156102c057600080fd5b506102fa6102cf3660046139b5565b6001600160a01b03919091166000908152600260209081526040808320938352929052205460ff1690565b6040519015158152602001610229565b34801561031657600080fd5b5061021f6107ff565b34801561032b57600080fd5b5061021f6109fd565b34801561034057600080fd5b50610349610b3f565b60405161022993929190614402565b34801561036457600080fd5b506103786103733660046139e1565b610bb3565b6040516102299190614119565b34801561039157600080fd5b50600e546001600160a01b03165b604051610229919061402d565b3480156103b857600080fd5b5060045461021f565b3480156103cd57600080fd5b506101b96103dc366004613abc565b610d59565b3480156103ed57600080fd5b506103786103fc366004613cd7565b610f95565b34801561040d57600080fd5b5061037861041c366004613cd7565b610fa3565b34801561042d57600080fd5b50610378610fb0565b34801561044257600080fd5b5061021f610451366004613817565b610fc1565b34801561046257600080fd5b506101b9610471366004613817565b610fdf565b34801561048257600080fd5b50610287610491366004613817565b61103a565b3480156104a257600080fd5b506101b96104b1366004613d5a565b61104e565b3480156104c257600080fd5b506101b96104d1366004613817565b61108d565b6101b96104e4366004613851565b611098565b3480156104f557600080fd5b506103786110c1565b34801561050a57600080fd5b506101b96110ce565b34801561051f57600080fd5b506101b961052e366004613ec4565b6111cd565b34801561053f57600080fd5b506101b961054e366004613817565b6112b0565b34801561055f57600080fd5b506101b961056e366004613b4d565b6112bc565b34801561057f57600080fd5b5061039f61058e366004613d2a565b6001600160a01b039081166000908152600d6020908152604080832094835293905291909120541690565b3480156105c557600080fd5b506105ce61156d565b6040516102299291906141a6565b3480156105e857600080fd5b506101b96105f7366004613a16565b611694565b6101b961060a366004613966565b611719565b61061a816001611c24565b50565b600454600161062d600354611d96565b5161063891906144db565b808211156106615760405162461bcd60e51b8152600401610658906141f2565b60405180910390fd5b61066d83600354611efd565b505050565b61067a612037565b610685338383612117565b5050565b61061a81600161224f565b6106a033600354612389565b15156001146106c15760405162461bcd60e51b81526004016106589061429d565b60016008546106e25760405162461bcd60e51b815260040161065890614211565b60405163f7cf62d760e01b815273__AddressLibrary________________________9063f7cf62d79061071c903390600b90600401614041565b60206040518083038186803b15801561073457600080fd5b505af4158015610748573d6000803e3d6000fd5b505050506040513d601f19601f8201168201806040525081019061076c9190613cf4565b156107895760405162461bcd60e51b8152600401610658906142bb565b61061a600161257a565b61066d838383600354612601565b6107a96134e6565b6107b482600161279d565b92915050565b6107c68484848461298e565b6001838360008181106107db576107db61458a565b9050602002013514156107f95780156107f9576107f9846000612a51565b50505050565b600080600e60009054906101000a90046001600160a01b03166001600160a01b0316635a3794e96040518163ffffffff1660e01b815260040160206040518083038186803b15801561085057600080fd5b505afa158015610864573d6000803e3d6000fd5b505050506040513d601f19601f820116820180604052508101906108889190613834565b6001600160a01b03166325b4f3ca6040518163ffffffff1660e01b815260040160a06040518083038186803b1580156108c057600080fd5b505afa1580156108d4573d6000803e3d6000fd5b505050506040513d601f19601f820116820180604052508101906108f89190613edd565b50600e5460408051636025541560e01b815290519296506001600160a01b039091169450636025541593506004808201935060209291829003018186803b15801561094257600080fd5b505afa158015610956573d6000803e3d6000fd5b505050506040513d601f19601f8201168201806040525081019061097a9190613834565b6001600160a01b0316638d12420b826040518263ffffffff1660e01b81526004016109a791815260200190565b60206040518083038186803b1580156109bf57600080fd5b505afa1580156109d3573d6000803e3d6000fd5b505050506040513d601f19601f820116820180604052508101906109f79190613d11565b91505090565b600080600e60009054906101000a90046001600160a01b03166001600160a01b0316635a3794e96040518163ffffffff1660e01b815260040160206040518083038186803b158015610a4e57600080fd5b505afa158015610a62573d6000803e3d6000fd5b505050506040513d601f19601f82011682018060405250810190610a869190613834565b6001600160a01b03166325b4f3ca6040518163ffffffff1660e01b815260040160a06040518083038186803b158015610abe57600080fd5b505afa158015610ad2573d6000803e3d6000fd5b505050506040513d601f19601f82011682018060405250810190610af69190613edd565b5050600e5460408051636025541560e01b815290519495506001600160a01b03909116936360255415935060048083019350602092829003018186803b15801561094257600080fd5b6000806060600954600a54600b80805480602002602001604051908101604052809291908181526020018280548015610ba157602002820191906000526020600020905b81546001600160a01b03168152600190910190602001808311610b83575b50505050509050925092509250909192565b606082610bbf85610fc1565b11610bd95750604080516000815260208101909152610d52565b818084610be587610fc1565b610bef91906144db565b1015610c0c5783610bff86610fc1565b610c0991906144db565b90505b6000816001600160401b03811115610c2657610c266145a0565b604051908082528060200260200182016040528015610c4f578160200160208202803683370190505b506001600160a01b0387166000908152600d6020908152604080832060010180548251818502810185019093528083529495509293909291830182828015610cb657602002820191906000526020600020905b815481526020019060010190808311610ca2575b5050505050905060008060005b8351811015610d4957878310610cd857610d49565b81891115610cf257610ceb6001836144c3565b9150610d37565b838181518110610d0457610d0461458a565b6020026020010151858481518110610d1e57610d1e61458a565b6020908102919091010152610d346001846144c3565b92505b80610d4181614559565b915050610cc3565b50929450505050505b9392505050565b600754610100900460ff1680610d72575060075460ff16155b610d8e5760405162461bcd60e51b81526004016106589061424f565b600754610100900460ff16158015610db0576007805461ffff19166101011790555b6040805160028082526060820190925290816020015b6060815260200190600190039081610dc65750508051610dee91600c9160209091019061351e565b506040518060400160405280600581526020016427bbb732b960d91b815250600c600081548110610e2157610e2161458a565b906000526020600020019080519060200190610e3e92919061357b565b5060405180604001604052806008815260200167283937bb34b232b960c11b815250600c600181548110610e7457610e7461458a565b906000526020600020019080519060200190610e9192919061357b565b50610e9c8383612c4c565b610f7c85856002600c805480602002602001604051908101604052809291908181526020016000905b82821015610f71578382906000526020600020018054610ee49061451e565b80601f0160208091040260200160405190810160405280929190818152602001828054610f109061451e565b8015610f5d5780601f10610f3257610100808354040283529160200191610f5d565b820191906000526020600020905b815481529060010190602001808311610f4057829003601f168201915b505050505081526020019060010190610ec5565b5050505060006112bc565b8015610f8e576007805461ff00191690555b5050505050565b60606107b482600354612c73565b60606107b4826001612c73565b6060610fbc6001611d96565b905090565b6001600160a01b03166000908152600d602052604090206001015490565b610feb81600354612ddf565b15156001141561102e576001611002600354611d96565b5161100d91906144db565b600454111561102e5760405162461bcd60e51b8152600401610658906141f2565b61061a8160035461224f565b6110426134e6565b6107b48260035461279d565b61105a8484848461298e565b60018383600081811061106f5761106f61458a565b9050602002013514156107f95780156107f9576107f9846001612a51565b61061a816001611efd565b6110a0612037565b6110ae868686868686612f4b565b6110b9868686612117565b505050505050565b6060610fbc600354611d96565b6110da33600354612389565b15156001146110fb5760405162461bcd60e51b81526004016106589061429d565b600160085461111c5760405162461bcd60e51b815260040161065890614211565b60405163f7cf62d760e01b815273__AddressLibrary________________________9063f7cf62d790611156903390600b90600401614041565b60206040518083038186803b15801561116e57600080fd5b505af4158015611182573d6000803e3d6000fd5b505050506040513d601f19601f820116820180604052508101906111a69190613cf4565b156111c35760405162461bcd60e51b8152600401610658906142bb565b61061a600061257a565b6111d933600354612389565b15156001146111fa5760405162461bcd60e51b81526004016106589061429d565b6000600854156112345760405162461bcd60e51b8152602060048201526005602482015264454333302d60d81b6044820152606401610658565b8160056003548154811061124a5761124a61458a565b9060005260206000209060040201600101805490508082111561127f5760405162461bcd60e51b8152600401610658906141f2565b6000848181116112a15760405162461bcd60e51b815260040161065890614230565b60088690556110b9600161257a565b61061a81600354611c24565b600754610100900460ff16806112d5575060075460ff16155b6112f15760405162461bcd60e51b81526004016106589061424f565b600754610100900460ff16158015611313576007805461ffff19166101011790555b848651808211156113365760405162461bcd60e51b8152600401610658906141f2565b6000878181116113585760405162461bcd60e51b815260040161065890614230565b865188146113905760405162461bcd60e51b8152602060048201526005602482015264454331382d60d81b6044820152606401610658565b600386905560005b888110156114085760058054600101815560005287516006908990839081106113c3576113c361458a565b602090810291909101810151825460018101845560009384529282902081516113f5949190910192919091019061357b565b508061140081614559565b915050611398565b50600489905560005b8a5181101561154f57600073__AddressLibrary________________________63bc215e858d84815181106114485761144861458a565b60200260200101516040518263ffffffff1660e01b815260040161146c919061402d565b60206040518083038186803b15801561148457600080fd5b505af4158015611498573d6000803e3d6000fd5b505050506040513d601f19601f820116820180604052508101906114bc9190613d11565b905060016005600354815481106114d5576114d561458a565b60009182526020808320858452600492909202909101905260409020600101805460ff191691151591909117905560035460058054909190811061151b5761151b61458a565b600091825260208083206001600490930201820180549283018155835290912001558061154781614559565b915050611411565b505050505080156110b9576007805461ff0019169055505050505050565b606080600060018180546115809061451e565b80601f01602080910402602001604051908101604052809291908181526020018280546115ac9061451e565b80156115f95780601f106115ce576101008083540402835291602001916115f9565b820191906000526020600020905b8154815290600101906020018083116115dc57829003601f168201915b5050505050915080805461160c9061451e565b80601f01602080910402602001604051908101604052809291908181526020018280546116389061451e565b80156116855780601f1061165a57610100808354040283529160200191611685565b820191906000526020600020905b81548152906001019060200180831161166857829003601f168201915b50505050509050915091509091565b600754610100900460ff16806116ad575060075460ff16155b6116c95760405162461bcd60e51b81526004016106589061424f565b600754610100900460ff161580156116eb576007805461ffff19166101011790555b6116f786868585610d59565b611700846130f3565b80156110b9576007805461ff0019169055505050505050565b81611725816001612389565b1561175b5760405162461bcd60e51b8152600401610658906020808252600490820152634543362d60e01b604082015260600190565b82600073__AddressLibrary________________________63bc215e85836040518263ffffffff1660e01b8152600401611795919061402d565b60206040518083038186803b1580156117ad57600080fd5b505af41580156117c1573d6000803e3d6000fd5b505050506040513d601f19601f820116820180604052508101906117e59190613d11565b905073__ItemsLibrary__________________________6226d7668260056001815481106118155761181561458a565b90600052602060002090600402016040518363ffffffff1660e01b815260040161184092919061415d565b60206040518083038186803b15801561185857600080fd5b505af415801561186c573d6000803e3d6000fd5b505050506040513d601f19601f820116820180604052508101906118909190613cf4565b158015611944575073__ItemsLibrary__________________________632854ed2e8260056001815481106118c7576118c761458a565b90600052602060002090600402016040518363ffffffff1660e01b81526004016118f292919061415d565b60206040518083038186803b15801561190a57600080fd5b505af415801561191e573d6000803e3d6000fd5b505050506040513d601f19601f820116820180604052508101906119429190613cf4565b155b6119785760405162461bcd60e51b8152602060048201526005602482015264454332372d60d81b6044820152606401610658565b600e60009054906101000a90046001600160a01b03166001600160a01b0316635a3794e96040518163ffffffff1660e01b815260040160206040518083038186803b1580156119c657600080fd5b505afa1580156119da573d6000803e3d6000fd5b505050506040513d601f19601f820116820180604052508101906119fe9190613834565b6001600160a01b031663f0c9325e3460006040518363ffffffff1660e01b8152600401611a2b919061416b565b6000604051808303818588803b158015611a4457600080fd5b505af1158015611a58573d6000803e3d6000fd5b505060405163bc215e8560e01b81526000935073__AddressLibrary________________________925063bc215e859150611a9790899060040161402d565b60206040518083038186803b158015611aaf57600080fd5b505af4158015611ac3573d6000803e3d6000fd5b505050506040513d601f19601f82011682018060405250810190611ae79190613d11565b9050846005600181548110611afe57611afe61458a565b600091825260208083208584526004909202909101815260409091208251611b2c939192919091019061357b565b506005600181548110611b4157611b4161458a565b6000918252602080832060026004909302019190910180546001818101835591845291909220018290556005805482908110611b7f57611b7f61458a565b906000526020600020906004020160020180549050611b9e91906144db565b6005600181548110611bb257611bb261458a565b9060005260206000209060040201600001600083815260200190815260200160002060030181905550856001600160a01b03167f39cde7834e26555dd63843df8459d36dd67b5bab6f4ed52349cbb03f66f542b186604051611c149190614193565b60405180910390a2505050505050565b60055460405163123bd07560e11b815282919073__Library_______________________________90632477a0ea90611c63908590859060040161415d565b60206040518083038186803b158015611c7b57600080fd5b505af4158015611c8f573d6000803e3d6000fd5b505050506040513d601f19601f82011682018060405250810190611cb39190613cf4565b1515600114611cd45760405162461bcd60e51b8152600401610658906141d4565b611ce033600354612389565b1515600114611d015760405162461bcd60e51b81526004016106589061429d565b600080611d1e86604051806020016040528060008152508761317a565b604051635cb09bcf60e01b8152919350915073__ItemsLibrary__________________________90635cb09bcf90611d5e90859085903090600401614351565b60006040518083038186803b158015611d7657600080fd5b505af4158015611d8a573d6000803e3d6000fd5b50505050505050505050565b60055460405163123bd07560e11b8152606091839173__Library_______________________________90632477a0ea90611dd7908590859060040161415d565b60206040518083038186803b158015611def57600080fd5b505af4158015611e03573d6000803e3d6000fd5b505050506040513d601f19601f82011682018060405250810190611e279190613cf4565b1515600114611e485760405162461bcd60e51b8152600401610658906141d4565b73__ItemsLibrary__________________________6327724f4b60058681548110611e7557611e7561458a565b90600052602060002090600402016040518263ffffffff1660e01b8152600401611ea191815260200190565b60006040518083038186803b158015611eb957600080fd5b505af4158015611ecd573d6000803e3d6000fd5b505050506040513d6000823e601f3d908101601f19168201604052611ef59190810190613c40565b949350505050565b60055460405163123bd07560e11b815282919073__Library_______________________________90632477a0ea90611f3c908590859060040161415d565b60206040518083038186803b158015611f5457600080fd5b505af4158015611f68573d6000803e3d6000fd5b505050506040513d601f19601f82011682018060405250810190611f8c9190613cf4565b1515600114611fad5760405162461bcd60e51b8152600401610658906141d4565b611fb933600354612389565b1515600114611fda5760405162461bcd60e51b81526004016106589061429d565b600080611ff786604051806020016040528060008152508761317a565b60405163e23fcdef60e01b8152919350915073__ItemsLibrary__________________________9063e23fcdef90611d5e90859085903090600401614351565b600e60009054906101000a90046001600160a01b03166001600160a01b0316635a3794e96040518163ffffffff1660e01b815260040160206040518083038186803b15801561208557600080fd5b505afa158015612099573d6000803e3d6000fd5b505050506040513d601f19601f820116820180604052508101906120bd9190613834565b6001600160a01b031663f0c9325e3460026040518363ffffffff1660e01b81526004016120ea919061416b565b6000604051808303818588803b15801561210357600080fd5b505af1158015610f8e573d6000803e3d6000fd5b8261212181613386565b151560011461215a5760405162461bcd60e51b8152602060048201526005602482015264454331322d60d81b6044820152606401610658565b826001600160a01b038084166000908152600d602090815260408083208884529091529020548491869116156121ba5760405162461bcd60e51b8152602060048201526005602482015264454331352d60d81b6044820152606401610658565b6001600160a01b038086166000818152600d602081815260408084208c85528083528185208054978f166001600160a01b0319909816881790559282526001928301805493840181558452922001899055519091907ff55a90628981610edc26894247bee72e1963d1c9faa4ea6533fd3df39fd36ed49061223e908a815260200190565b60405180910390a350505050505050565b60055460405163123bd07560e11b815282919073__Library_______________________________90632477a0ea9061228e908590859060040161415d565b60206040518083038186803b1580156122a657600080fd5b505af41580156122ba573d6000803e3d6000fd5b505050506040513d601f19601f820116820180604052508101906122de9190613cf4565b15156001146122ff5760405162461bcd60e51b8152600401610658906141d4565b61230b33600354612389565b151560011461232c5760405162461bcd60e51b81526004016106589061429d565b60008061234986604051806020016040528060008152508761317a565b604051637493a70b60e01b8152919350915073__ItemsLibrary__________________________90637493a70b90611d5e90859085903090600401614351565b60055460405163123bd07560e11b8152600091839173__Library_______________________________90632477a0ea906123ca908590859060040161415d565b60206040518083038186803b1580156123e257600080fd5b505af41580156123f6573d6000803e3d6000fd5b505050506040513d601f19601f8201168201806040525081019061241a9190613cf4565b151560011461243b5760405162461bcd60e51b8152600401610658906141d4565b60405163bc215e8560e01b815260009073__AddressLibrary________________________9063bc215e859061247590899060040161402d565b60206040518083038186803b15801561248d57600080fd5b505af41580156124a1573d6000803e3d6000fd5b505050506040513d601f19601f820116820180604052508101906124c59190613d11565b905073__ItemsLibrary__________________________63dbdfbeec82600588815481106124f5576124f561458a565b90600052602060002090600402016040518363ffffffff1660e01b815260040161252092919061415d565b60206040518083038186803b15801561253857600080fd5b505af415801561254c573d6000803e3d6000fd5b505050506040513d601f19601f820116820180604052508101906125709190613cf4565b9695505050505050565b801561259e5760016009600082825461259391906144c3565b909155506125b79050565b6001600a60008282546125b191906144c3565b90915550505b600b80546001810182556000919091527f0175b7a638427703f0dbe7bb9bbf987a2551717b34e79f33b5b1008d1fa01db90180546001600160a01b0319163317905561061a613393565b60055460405163123bd07560e11b815282919073__Library_______________________________90632477a0ea90612640908590859060040161415d565b60206040518083038186803b15801561265857600080fd5b505af415801561266c573d6000803e3d6000fd5b505050506040513d601f19601f820116820180604052508101906126909190613cf4565b15156001146126b15760405162461bcd60e51b8152600401610658906141d4565b6126bd33600354612389565b15156001146126de5760405162461bcd60e51b81526004016106589061429d565b6000806127238888888080601f0160208091040260200160405190810160405280939291908181526020018383808284376000920191909152508a925061317a915050565b6040516305cc2d5560e11b8152919350915073__ItemsLibrary__________________________90630b985aaa9061276390859085903090600401614351565b60006040518083038186803b15801561277b57600080fd5b505af415801561278f573d6000803e3d6000fd5b505050505050505050505050565b6127a56134e6565b60055460405163123bd07560e11b815283919073__Library_______________________________90632477a0ea906127e4908590859060040161415d565b60206040518083038186803b1580156127fc57600080fd5b505af4158015612810573d6000803e3d6000fd5b505050506040513d601f19601f820116820180604052508101906128349190613cf4565b15156001146128555760405162461bcd60e51b8152600401610658906141d4565b60405163bc215e8560e01b815260009073__AddressLibrary________________________9063bc215e859061288f90899060040161402d565b60206040518083038186803b1580156128a757600080fd5b505af41580156128bb573d6000803e3d6000fd5b505050506040513d601f19601f820116820180604052508101906128df9190613d11565b905073__ItemsLibrary__________________________631aeccc6a826005888154811061290f5761290f61458a565b90600052602060002090600402016040518363ffffffff1660e01b815260040161293a92919061415d565b60006040518083038186803b15801561295257600080fd5b505af4158015612966573d6000803e3d6000fd5b505050506040513d6000823e601f3d908101601f191682016040526125709190810190613deb565b604051630d1d719d60e41b8152309073__Library_______________________________9063d1d719d0906129c790849060040161402d565b60206040518083038186803b1580156129df57600080fd5b505af41580156129f3573d6000803e3d6000fd5b505050506040513d601f19601f82011682018060405250810190612a179190613cf4565b1515600114610f8e5760405162461bcd60e51b8152600401610658906020808252600490820152634543382d60e01b604082015260600190565b600081612a8f576005600181548110612a6c57612a6c61458a565b600091825260208083208684526004909202909101905260409020600501612abf565b6005600181548110612aa357612aa361458a565b6000918252602080832086845260049283020190526040909120015b805480602002602001604051908101604052809291908181526020018280548015612b1357602002820191906000526020600020905b81546001600160a01b03168152600190910190602001808311612af5575b5050505050905060005b81518110156107f957600e60009054906101000a90046001600160a01b03166001600160a01b0316635a3794e96040518163ffffffff1660e01b815260040160206040518083038186803b158015612b7457600080fd5b505afa158015612b88573d6000803e3d6000fd5b505050506040513d601f19601f82011682018060405250810190612bac9190613834565b6001600160a01b031663eb1e2a41838381518110612bcc57612bcc61458a565b602002602001015184516040518363ffffffff1660e01b8152600401612c079291906001600160a01b03929092168252602082015260400190565b600060405180830381600087803b158015612c2157600080fd5b505af1158015612c35573d6000803e3d6000fd5b505050508080612c4490614559565b915050612b1d565b8151612c5f90600090602085019061357b565b50805161066d90600190602084019061357b565b60055460405163123bd07560e11b8152606091839173__Library_______________________________90632477a0ea90612cb4908590859060040161415d565b60206040518083038186803b158015612ccc57600080fd5b505af4158015612ce0573d6000803e3d6000fd5b505050506040513d601f19601f82011682018060405250810190612d049190613cf4565b1515600114612d255760405162461bcd60e51b8152600401610658906141d4565b606073__ItemsLibrary__________________________63e035e0068760058881548110612d5557612d5561458a565b90600052602060002090600402016040518363ffffffff1660e01b8152600401612d8b9291909115158252602082015260400190565b60006040518083038186803b158015612da357600080fd5b505af4158015612db7573d6000803e3d6000fd5b505050506040513d6000823e601f3d908101601f191682016040526125709190810190613c40565b60055460405163123bd07560e11b8152600091839173__Library_______________________________90632477a0ea90612e20908590859060040161415d565b60206040518083038186803b158015612e3857600080fd5b505af4158015612e4c573d6000803e3d6000fd5b505050506040513d601f19601f82011682018060405250810190612e709190613cf4565b1515600114612e915760405162461bcd60e51b8152600401610658906141d4565b60405163bc215e8560e01b815260009073__AddressLibrary________________________9063bc215e8590612ecb90899060040161402d565b60206040518083038186803b158015612ee357600080fd5b505af4158015612ef7573d6000803e3d6000fd5b505050506040513d601f19601f82011682018060405250810190612f1b9190613d11565b905073__ItemsLibrary__________________________632854ed2e82600588815481106124f5576124f561458a565b81804210612f835760405162461bcd60e51b8152602060048201526005602482015264454333332d60d81b6044820152606401610658565b6001600160a01b03871660009081526002602090815260408083208784529091529020548790859060ff1615612fe35760405162461bcd60e51b8152602060048201526005602482015264454333342d60d81b6044820152606401610658565b60405163c1bc5c3f60e01b815273__SignatureLibrary______________________9063c1bc5c3f9061302a908c908c908c908c908c908c906000906001906004016140a0565b60206040518083038186803b15801561304257600080fd5b505af4158015613056573d6000803e3d6000fd5b505050506040513d601f19601f8201168201806040525081019061307a9190613cf4565b15156001146130b35760405162461bcd60e51b8152602060048201526005602482015264454333322d60d81b6044820152606401610658565b6130e889876001600160a01b03909116600090815260026020908152604080832093835292905220805460ff19166001179055565b505050505050505050565b600754610100900460ff168061310c575060075460ff16155b6131285760405162461bcd60e51b81526004016106589061424f565b600754610100900460ff1615801561314a576007805461ffff19166101011790555b600e80546001600160a01b0319166001600160a01b0384161790558015610685576007805461ff00191690555050565b6131af6040518060a0016040528060008019168152602001606081526020016000815260200160608152602001606081525090565b60008073__AddressLibrary________________________63bc215e85876040518263ffffffff1660e01b81526004016131e9919061402d565b60206040518083038186803b15801561320157600080fd5b505af4158015613215573d6000803e3d6000fd5b505050506040513d601f19601f820116820180604052508101906132399190613d11565b604080516001808252818301909252919250600091906020808301908036833701905050905084816000815181106132735761327361458a565b60200260200101818152505060006040518060a001604052808481526020018881526020016004548152602001600688815481106132b3576132b361458a565b9060005260206000200180546132c89061451e565b80601f01602080910402602001604051908101604052809291908181526020018280546132f49061451e565b80156133415780601f1061331657610100808354040283529160200191613341565b820191906000526020600020905b81548152906001019060200180831161332457829003601f168201915b505050505081526020018381525090506000600587815481106133665761336661458a565b600091825260209091209296506004029091019350505050935093915050565b60006107b4826001612389565b6009546004805460405163f6001d7d60e01b815273__ItemsLibrary__________________________9363f6001d7d936133cf9391920161415d565b60206040518083038186803b1580156133e757600080fd5b505af41580156133fb573d6000803e3d6000fd5b505050506040513d601f19601f8201168201806040525081019061341f9190613cf4565b15613434576008546004556134326134c9565b565b600a546004805460405163f6001d7d60e01b815273__ItemsLibrary__________________________9363f6001d7d936134709391920161415d565b60206040518083038186803b15801561348857600080fd5b505af415801561349c573d6000803e3d6000fd5b505050506040513d601f19601f820116820180604052508101906134c09190613cf4565b15613432576134325b600060088190556009819055600a81905561343290600b906135fb565b6040518060c0016040528060608152602001600015158152602001600081526020016000815260200160608152602001606081525090565b82805482825590600052602060002090810192821561356b579160200282015b8281111561356b578251805161355b91849160209091019061357b565b509160200191906001019061353e565b50613577929150613619565b5090565b8280546135879061451e565b90600052602060002090601f0160209004810192826135a957600085556135ef565b82601f106135c257805160ff19168380011785556135ef565b828001600101855582156135ef579182015b828111156135ef5782518255916020019190600101906135d4565b50613577929150613636565b508054600082559060005260206000209081019061061a9190613636565b8082111561357757600061362d828261364b565b50600101613619565b5b808211156135775760008155600101613637565b5080546136579061451e565b6000825580601f10613667575050565b601f01602090049060005260206000209081019061061a9190613636565b60006136986136938461449c565b614449565b90508281528383830111156136ac57600080fd5b828260208301376000602084830101529392505050565b600082601f8301126136d457600080fd5b813560206136e461369383614479565b80838252828201915082860187848660051b890101111561370457600080fd5b60005b8581101561372c57813561371a816145b6565b84529284019290840190600101613707565b5090979650505050505050565b600082601f83011261374a57600080fd5b8151602061375a61369383614479565b80838252828201915082860187848660051b890101111561377a57600080fd5b60005b8581101561372c578151613790816145b6565b8452928401929084019060010161377d565b80516137ad816145cb565b919050565b600082601f8301126137c357600080fd5b610d5283833560208501613685565b600082601f8301126137e357600080fd5b81516137f16136938261449c565b81815284602083860101111561380657600080fd5b611ef58260208301602087016144f2565b60006020828403121561382957600080fd5b8135610d52816145b6565b60006020828403121561384657600080fd5b8151610d52816145b6565b60008060008060008060c0878903121561386a57600080fd5b8635613875816145b6565b955060208701359450604087013561388c816145b6565b9350606087013592506080870135915060a08701356001600160401b038111156138b557600080fd5b8701601f810189136138c657600080fd5b6138d589823560208401613685565b9150509295509295509295565b6000806000604084860312156138f757600080fd5b8335613902816145b6565b925060208401356001600160401b038082111561391e57600080fd5b818601915086601f83011261393257600080fd5b81358181111561394157600080fd5b87602082850101111561395357600080fd5b6020830194508093505050509250925092565b6000806040838503121561397957600080fd5b8235613984816145b6565b915060208301356001600160401b0381111561399f57600080fd5b6139ab858286016137b2565b9150509250929050565b600080604083850312156139c857600080fd5b82356139d3816145b6565b946020939093013593505050565b6000806000606084860312156139f657600080fd5b8335613a01816145b6565b95602085013595506040909401359392505050565b600080600080600060a08688031215613a2e57600080fd5b85356001600160401b0380821115613a4557600080fd5b613a5189838a016136c3565b96506020880135955060408801359150613a6a826145b6565b90935060608701359080821115613a8057600080fd5b613a8c89838a016137b2565b93506080880135915080821115613aa257600080fd5b50613aaf888289016137b2565b9150509295509295909350565b60008060008060808587031215613ad257600080fd5b84356001600160401b0380821115613ae957600080fd5b613af5888389016136c3565b9550602087013594506040870135915080821115613b1257600080fd5b613b1e888389016137b2565b93506060870135915080821115613b3457600080fd5b50613b41878288016137b2565b91505092959194509250565b600080600080600060a08688031215613b6557600080fd5b6001600160401b038635811015613b7b57600080fd5b613b8888883589016136c3565b9550602080880135955060408801359450606088013582811115613bab57600080fd5b8801601f81018a13613bbc57600080fd5b8035613bca61369382614479565b8082825284820191508484018d868560051b8701011115613bea57600080fd5b60005b84811015613c24578782351115613c0357600080fd5b613c128f8884358901016137b2565b84529286019290860190600101613bed565b5050809750505050505050608086013590509295509295909350565b60006020808385031215613c5357600080fd5b82516001600160401b03811115613c6957600080fd5b8301601f81018513613c7a57600080fd5b8051613c8861369382614479565b80828252848201915084840188868560051b8701011115613ca857600080fd5b600094505b83851015613ccb578051835260019490940193918501918501613cad565b50979650505050505050565b600060208284031215613ce957600080fd5b8135610d52816145cb565b600060208284031215613d0657600080fd5b8151610d52816145cb565b600060208284031215613d2357600080fd5b5051919050565b60008060408385031215613d3d57600080fd5b823591506020830135613d4f816145b6565b809150509250929050565b60008060008060608587031215613d7057600080fd5b8435935060208501356001600160401b0380821115613d8e57600080fd5b818701915087601f830112613da257600080fd5b813581811115613db157600080fd5b8860208260051b8501011115613dc657600080fd5b6020830195508094505050506040850135613de0816145cb565b939692955090935050565b600060208284031215613dfd57600080fd5b81516001600160401b0380821115613e1457600080fd5b9083019060c08286031215613e2857600080fd5b613e30614421565b825182811115613e3f57600080fd5b613e4b878286016137d2565b825250613e5a602084016137a2565b60208201526040830151604082015260608301516060820152608083015182811115613e8557600080fd5b613e9187828601613739565b60808301525060a083015182811115613ea957600080fd5b613eb587828601613739565b60a08301525095945050505050565b600060208284031215613ed657600080fd5b5035919050565b600080600080600060a08688031215613ef557600080fd5b5050835160208501516040860151606087015160809097015192989197509594509092509050565b600081518084526020808501945080840160005b83811015613f565781516001600160a01b031687529582019590820190600101613f31565b509495945050505050565b60008151808452613f798160208601602086016144f2565b601f01601f19169290920160200192915050565b8054600090600181811c9080831680613fa757607f831692505b6020808410821415613fc957634e487b7160e01b600052602260045260246000fd5b83885260208801828015613fe45760018114613ff557614020565b60ff19871682528282019750614020565b60008981526020902060005b8781101561401a57815484820152908601908401614001565b83019850505b5050505050505092915050565b6001600160a01b0391909116815260200190565b60006040820160018060a01b03808616845260206040818601528286548085526060870191508760005282600020945060005b81811015614092578554851683526001958601959284019201614074565b509098975050505050505050565b6001600160a01b0389811682526020820189905287166040820152606081018690526080810185905261010060a082018190526000906140e283820187613f61565b905082810360c08401526140f68186613f8d565b905082810360e084015261410a8185613f8d565b9b9a5050505050505050505050565b6020808252825182820181905260009190848201906040850190845b8181101561415157835183529284019291840191600101614135565b50909695505050505050565b918252602082015260400190565b602081016004831061418d57634e487b7160e01b600052602160045260246000fd5b91905290565b602081526000610d526020830184613f61565b6040815260006141b96040830185613f61565b82810360208401526141cb8185613f61565b95945050505050565b6020808252600490820152634543312d60e01b604082015260600190565b602080825260059082015264454331392d60d81b604082015260600190565b602080825260059082015264454333312d60d81b604082015260600190565b602080825260059082015264454331372d60d81b604082015260600190565b6020808252602e908201527f496e697469616c697a61626c653a20636f6e747261637420697320616c72656160408201526d191e481a5b9a5d1a585b1a5e995960921b606082015260800190565b6020808252600490820152634543392d60e01b604082015260600190565b6020808252600490820152634543352d60e01b604082015260600190565b602081526000825160c060208401526142f560e0840182613f61565b905060208401511515604084015260408401516060840152606084015160808401526080840151601f19808584030160a08601526143338383613f1d565b925060a08601519150808584030160c0860152506141cb8282613f1d565b6060815283516060820152600060208086015160a06080850152614379610100850182613f61565b9050604087015160a08501526060870151605f19808684030160c08701526143a18383613f61565b60808a015187820390920160e088015281518082529185019350600092508401905b808310156143e357835182529284019260019290920191908401906143c3565b5092850187905250506001600160a01b03841660408401529050611ef5565b8381528260208201526060604082015260006141cb6060830184613f1d565b60405160c081016001600160401b0381118282101715614443576144436145a0565b60405290565b604051601f8201601f191681016001600160401b0381118282101715614471576144716145a0565b604052919050565b60006001600160401b03821115614492576144926145a0565b5060051b60200190565b60006001600160401b038211156144b5576144b56145a0565b50601f01601f191660200190565b600082198211156144d6576144d6614574565b500190565b6000828210156144ed576144ed614574565b500390565b60005b8381101561450d5781810151838201526020016144f5565b838111156107f95750506000910152565b600181811c9082168061453257607f821691505b6020821081141561455357634e487b7160e01b600052602260045260246000fd5b50919050565b600060001982141561456d5761456d614574565b5060010190565b634e487b7160e01b600052601160045260246000fd5b634e487b7160e01b600052603260045260246000fd5b634e487b7160e01b600052604160045260246000fd5b6001600160a01b038116811461061a57600080fd5b801515811461061a57600080fdfea264697066735822122018a23d40e053ceb143d79fd309f85e74e8cc55d574fcd63801777ff9896b65c264736f6c63430008070033",
  "immutableReferences": {},
  "source": "// SPDX-License-Identifier: GPL-3.0\r\n\r\npragma solidity 0.8.7;\r\n\r\n/*\r\n  Public Certificate Pools offer the default MultiSig Certificate Pool functionality\r\n  except for Providers Creation and Certificate Issuing since payments must be made\r\n  Besides Public Certificate Pool is a managed contract\r\n */\r\n\r\n import \"../Abstract/MultiSigCertificatesPool.sol\";\r\n import \"../Interfaces/ITreasury.sol\";\r\n import \"../Base/ManagedBaseContract.sol\";\r\n import \"../Interfaces/IPriceConverter.sol\";\r\n\r\n contract PublicCertificatesPool is MultiSigCertificatesPool, ManagedBaseContract {\r\n\r\n    // EVENTS /////////////////////////////////////////\r\n    event _NewProposal(address indexed Provider, string Info);\r\n\r\n    // MODIFIERS /////////////////////////////////////////\r\n    modifier ProviderisNotActivated(address entity){\r\n        require(false == isEntity(entity, _providerId), \"EC6-\");\r\n        _;\r\n    }\r\n\r\n    modifier ProviderisNotPending(address entity){\r\n        bytes32 entityInBytes = AddressLibrary.AddressToBytes32(entity);\r\n        require(false == ItemsLibrary.isItemPendingToAdded(entityInBytes, _Entities[_providerId]) && \r\n                false == ItemsLibrary.isItemPendingToRemoved(entityInBytes, _Entities[_providerId]), \"EC27-\");\r\n        _;\r\n    }\r\n\r\n    // CONSTRUCTOR /////////////////////////////////////////\r\n    function PublicCertPool_init(address[] memory owners,  uint256 minOwners, address managerContractAddress, string memory contractName, string memory contractVersion) public initializer {\r\n        super.MultiSigCertPool_init(owners, minOwners, contractName, contractVersion); \r\n        super.ManagedBaseContract_init(managerContractAddress); \r\n    }\r\n\r\n    // FUNCTIONALITY /////////////////////////////////////////\r\n    function addProvider(address provider, string memory providerInfo) external \r\n        ProviderisNotActivated(provider) \r\n        ProviderisNotPending(provider)\r\n    override payable\r\n    {\r\n        ITreasury(_managerContract.retrieveTreasuryProxy()).pay{value:msg.value}(Library.Prices.NewProvider);\r\n        bytes32 providerInBytes = AddressLibrary.AddressToBytes32(provider);\r\n        _Entities[_providerId]._items[providerInBytes]._Info = providerInfo;\r\n        _Entities[_providerId]._pendingItemsAdd.push(providerInBytes);\r\n        _Entities[_providerId]._items[providerInBytes]._pendingId = _Entities[_providerId]._pendingItemsAdd.length - 1;\r\n\r\n        emit _NewProposal(provider, providerInfo);\r\n    }\r\n\r\n    function payBack(bytes32 entityInBytes, bool validatedOrRejected) internal\r\n    {\r\n        address[] memory Voters = (validatedOrRejected) ? _Entities[_providerId]._items[entityInBytes]._Validations : _Entities[_providerId]._items[entityInBytes]._Rejections;\r\n\r\n        for(uint i=0; i < Voters.length; i++){\r\n            ITreasury(_managerContract.retrieveTreasuryProxy()).getRefund(Voters[i], Voters.length);\r\n        }\r\n    }\r\n\r\n    function onBeforeAddCertificate() internal override \r\n    {\r\n        ITreasury(_managerContract.retrieveTreasuryProxy()).pay{value:msg.value}(Library.Prices.NewCertificate);\r\n    }\r\n\r\n    function retrieveAddCertificatePriceWei() external override view returns(uint256)\r\n    {\r\n        (, , , uint Price, ) = ITreasury(_managerContract.retrieveTreasuryProxy()).retrievePrices();\r\n        return IPriceConverter(_managerContract.retrievePriceConverterProxy()).fromUSDToETH(Price);\r\n    }\r\n\r\n    function retrieveSubscriptionPriceWei() external override virtual view returns(uint256)\r\n    {\r\n        (uint Price, , , , ) = ITreasury(_managerContract.retrieveTreasuryProxy()).retrievePrices();\r\n        return IPriceConverter(_managerContract.retrievePriceConverterProxy()).fromUSDToETH(Price);\r\n    }\r\n\r\n    // Callback functions\r\n    function onItemValidated(bytes32 item, uint256[] calldata ids, bool addOrRemove) public override \r\n    {\r\n        super.onItemValidated(item, ids, addOrRemove);\r\n\r\n        if(ids[0] == _providerId){\r\n            if(addOrRemove)payBack(item, true);\r\n        }\r\n    }\r\n\r\n    function onItemRejected(bytes32 item, uint256[] calldata ids, bool addOrRemove) public override  \r\n    {\r\n        super.onItemRejected(item, ids, addOrRemove);\r\n\r\n        if(ids[0] == _providerId){\r\n            if(addOrRemove)payBack(item, false);\r\n        }\r\n    }\r\n\r\n }",
  "sourcePath": "C:/Users/d-aam/GitHub/Certificates/contracts/DeployedContracts/PublicCertificatesPool.sol",
  "compiler": {
    "name": "solc",
    "version": "0.8.7+commit.e28d00a7.Emscripten.clang"
  },
  "schemaVersion": "3.3.4",
  "updatedAt": "2021-10-07T09:18:45.554Z",
  "networkType": "ethereum",
  "devdoc": {
    "kind": "dev",
    "methods": {},
    "version": 1
  },
  "userdoc": {
    "kind": "user",
    "methods": {},
    "version": 1
  }
}