{
  "contractName": "PublicCertificatesPool",
  "abi": [
    {
      "anonymous": false,
      "inputs": [
        {
          "indexed": true,
          "internalType": "address",
          "name": "",
          "type": "address"
        },
        {
          "indexed": true,
          "internalType": "address",
          "name": "",
          "type": "address"
        },
        {
          "indexed": false,
          "internalType": "bytes32",
          "name": "",
          "type": "bytes32"
        }
      ],
      "name": "_AddCertificate",
      "type": "event"
    },
    {
      "anonymous": false,
      "inputs": [
        {
          "indexed": true,
          "internalType": "address",
          "name": "",
          "type": "address"
        },
        {
          "indexed": true,
          "internalType": "string",
          "name": "",
          "type": "string"
        }
      ],
      "name": "_NewProposal",
      "type": "event"
    },
    {
      "inputs": [
        {
          "internalType": "address[]",
          "name": "owners",
          "type": "address[]"
        },
        {
          "internalType": "uint256",
          "name": "minOwners",
          "type": "uint256"
        }
      ],
      "name": "MultiSigCertPool_init",
      "outputs": [],
      "stateMutability": "nonpayable",
      "type": "function"
    },
    {
      "inputs": [
        {
          "internalType": "address[]",
          "name": "owners",
          "type": "address[]"
        },
        {
          "internalType": "uint256",
          "name": "minOwners",
          "type": "uint256"
        },
        {
          "internalType": "uint256",
          "name": "TotalEntities",
          "type": "uint256"
        },
        {
          "internalType": "string[]",
          "name": "labels",
          "type": "string[]"
        },
        {
          "internalType": "uint256",
          "name": "ownerId",
          "type": "uint256"
        }
      ],
      "name": "MultiSigContract_init",
      "outputs": [],
      "stateMutability": "nonpayable",
      "type": "function"
    },
    {
      "inputs": [
        {
          "internalType": "address",
          "name": "owner",
          "type": "address"
        },
        {
          "internalType": "string",
          "name": "ownerInfo",
          "type": "string"
        }
      ],
      "name": "addOwner",
      "outputs": [],
      "stateMutability": "nonpayable",
      "type": "function"
    },
    {
      "inputs": [
        {
          "internalType": "uint256",
          "name": "newMinOwners",
          "type": "uint256"
        }
      ],
      "name": "changeMinOwners",
      "outputs": [],
      "stateMutability": "nonpayable",
      "type": "function"
    },
    {
      "inputs": [],
      "name": "rejectMinOwners",
      "outputs": [],
      "stateMutability": "nonpayable",
      "type": "function"
    },
    {
      "inputs": [
        {
          "internalType": "address",
          "name": "owner",
          "type": "address"
        }
      ],
      "name": "rejectOwner",
      "outputs": [],
      "stateMutability": "nonpayable",
      "type": "function"
    },
    {
      "inputs": [
        {
          "internalType": "address",
          "name": "provider",
          "type": "address"
        }
      ],
      "name": "rejectProvider",
      "outputs": [],
      "stateMutability": "nonpayable",
      "type": "function"
    },
    {
      "inputs": [
        {
          "internalType": "address",
          "name": "owner",
          "type": "address"
        }
      ],
      "name": "removeOwner",
      "outputs": [],
      "stateMutability": "nonpayable",
      "type": "function"
    },
    {
      "inputs": [
        {
          "internalType": "address",
          "name": "provider",
          "type": "address"
        }
      ],
      "name": "removeProvider",
      "outputs": [],
      "stateMutability": "nonpayable",
      "type": "function"
    },
    {
      "inputs": [],
      "name": "retrieveAllOwners",
      "outputs": [
        {
          "internalType": "bytes32[]",
          "name": "",
          "type": "bytes32[]"
        }
      ],
      "stateMutability": "view",
      "type": "function"
    },
    {
      "inputs": [],
      "name": "retrieveAllProviders",
      "outputs": [
        {
          "internalType": "bytes32[]",
          "name": "",
          "type": "bytes32[]"
        }
      ],
      "stateMutability": "view",
      "type": "function"
    },
    {
      "inputs": [
        {
          "internalType": "bytes32",
          "name": "CertificateHash",
          "type": "bytes32"
        },
        {
          "internalType": "address",
          "name": "holder",
          "type": "address"
        }
      ],
      "name": "retrieveCertificateProvider",
      "outputs": [
        {
          "internalType": "address",
          "name": "",
          "type": "address"
        }
      ],
      "stateMutability": "view",
      "type": "function"
    },
    {
      "inputs": [
        {
          "internalType": "address",
          "name": "holder",
          "type": "address"
        },
        {
          "internalType": "uint256",
          "name": "skipFirst",
          "type": "uint256"
        },
        {
          "internalType": "uint256",
          "name": "max",
          "type": "uint256"
        }
      ],
      "name": "retrieveCertificatesByHolder",
      "outputs": [
        {
          "internalType": "bytes32[]",
          "name": "",
          "type": "bytes32[]"
        }
      ],
      "stateMutability": "view",
      "type": "function"
    },
    {
      "inputs": [],
      "name": "retrieveMinOwners",
      "outputs": [
        {
          "internalType": "uint256",
          "name": "",
          "type": "uint256"
        }
      ],
      "stateMutability": "view",
      "type": "function"
    },
    {
      "inputs": [
        {
          "internalType": "address",
          "name": "owner",
          "type": "address"
        }
      ],
      "name": "retrieveOwner",
      "outputs": [
        {
          "internalType": "string",
          "name": "",
          "type": "string"
        },
        {
          "internalType": "bool",
          "name": "",
          "type": "bool"
        }
      ],
      "stateMutability": "view",
      "type": "function"
    },
    {
      "inputs": [],
      "name": "retrievePendingMinOwners",
      "outputs": [
        {
          "internalType": "uint256",
          "name": "",
          "type": "uint256"
        }
      ],
      "stateMutability": "view",
      "type": "function"
    },
    {
      "inputs": [
        {
          "internalType": "bool",
          "name": "addedORremove",
          "type": "bool"
        }
      ],
      "name": "retrievePendingOwners",
      "outputs": [
        {
          "internalType": "bytes32[]",
          "name": "",
          "type": "bytes32[]"
        },
        {
          "internalType": "string[]",
          "name": "",
          "type": "string[]"
        }
      ],
      "stateMutability": "view",
      "type": "function"
    },
    {
      "inputs": [
        {
          "internalType": "bool",
          "name": "addedORremove",
          "type": "bool"
        }
      ],
      "name": "retrievePendingProviders",
      "outputs": [
        {
          "internalType": "bytes32[]",
          "name": "",
          "type": "bytes32[]"
        },
        {
          "internalType": "string[]",
          "name": "",
          "type": "string[]"
        }
      ],
      "stateMutability": "view",
      "type": "function"
    },
    {
      "inputs": [
        {
          "internalType": "address",
          "name": "provider",
          "type": "address"
        }
      ],
      "name": "retrieveProvider",
      "outputs": [
        {
          "internalType": "string",
          "name": "",
          "type": "string"
        },
        {
          "internalType": "bool",
          "name": "",
          "type": "bool"
        }
      ],
      "stateMutability": "view",
      "type": "function"
    },
    {
      "inputs": [
        {
          "internalType": "address",
          "name": "holder",
          "type": "address"
        }
      ],
      "name": "retrieveTotalCertificatesByHolder",
      "outputs": [
        {
          "internalType": "uint256",
          "name": "",
          "type": "uint256"
        }
      ],
      "stateMutability": "view",
      "type": "function"
    },
    {
      "inputs": [],
      "name": "retrievemANAGERcONTRACT",
      "outputs": [
        {
          "internalType": "address",
          "name": "",
          "type": "address"
        }
      ],
      "stateMutability": "view",
      "type": "function"
    },
    {
      "inputs": [],
      "name": "validateMinOwners",
      "outputs": [],
      "stateMutability": "nonpayable",
      "type": "function"
    },
    {
      "inputs": [
        {
          "internalType": "address",
          "name": "owner",
          "type": "address"
        }
      ],
      "name": "validateOwner",
      "outputs": [],
      "stateMutability": "nonpayable",
      "type": "function"
    },
    {
      "inputs": [
        {
          "internalType": "address",
          "name": "provider",
          "type": "address"
        }
      ],
      "name": "validateProvider",
      "outputs": [],
      "stateMutability": "nonpayable",
      "type": "function"
    },
    {
      "inputs": [
        {
          "internalType": "address[]",
          "name": "owners",
          "type": "address[]"
        },
        {
          "internalType": "uint256",
          "name": "minOwners",
          "type": "uint256"
        },
        {
          "internalType": "address",
          "name": "managerContractAddress",
          "type": "address"
        }
      ],
      "name": "PublicCertPool_init",
      "outputs": [],
      "stateMutability": "nonpayable",
      "type": "function"
    },
    {
      "inputs": [
        {
          "internalType": "address",
          "name": "provider",
          "type": "address"
        },
        {
          "internalType": "string",
          "name": "providerInfo",
          "type": "string"
        }
      ],
      "name": "addProvider",
      "outputs": [],
      "stateMutability": "payable",
      "type": "function"
    },
    {
      "inputs": [
        {
          "internalType": "bytes32",
          "name": "CertificateHash",
          "type": "bytes32"
        },
        {
          "internalType": "address",
          "name": "holder",
          "type": "address"
        }
      ],
      "name": "addCertificate",
      "outputs": [],
      "stateMutability": "payable",
      "type": "function"
    },
    {
      "inputs": [],
      "name": "retrieveAddCertificatePriceWei",
      "outputs": [
        {
          "internalType": "uint256",
          "name": "",
          "type": "uint256"
        }
      ],
      "stateMutability": "view",
      "type": "function"
    },
    {
      "inputs": [],
      "name": "retrieveSubscriptionPriceWei",
      "outputs": [
        {
          "internalType": "uint256",
          "name": "",
          "type": "uint256"
        }
      ],
      "stateMutability": "view",
      "type": "function"
    },
    {
      "inputs": [
        {
          "internalType": "bytes32",
          "name": "item",
          "type": "bytes32"
        },
        {
          "internalType": "uint256[]",
          "name": "ids",
          "type": "uint256[]"
        },
        {
          "internalType": "bool",
          "name": "addOrRemove",
          "type": "bool"
        }
      ],
      "name": "onItemValidated",
      "outputs": [],
      "stateMutability": "nonpayable",
      "type": "function"
    },
    {
      "inputs": [
        {
          "internalType": "bytes32",
          "name": "item",
          "type": "bytes32"
        },
        {
          "internalType": "uint256[]",
          "name": "ids",
          "type": "uint256[]"
        },
        {
          "internalType": "bool",
          "name": "addOrRemove",
          "type": "bool"
        }
      ],
      "name": "onItemRejected",
      "outputs": [],
      "stateMutability": "nonpayable",
      "type": "function"
    }
  ],
  "bytecode": "0x608060405234801561001057600080fd5b50613e5c806100206000396000f3fe6080604052600436106101685760003560e01c80630b4c72a91461016d5780630db311611461018f578063173825d9146101bf5780631ab807f8146101df57806327a40b4b146101f25780632edbe7fc1461021257806330ade922146102315780633542758f1461024657806337583499146102665780633fd07181146102945780634774779d146102b457806357e7ea2e146102c957806358a1ba25146102de57806365b973e51461030b5780636b299604146103205780636b3a0fec1461034e5780636e4f91791461036e5780636e55d2d41461038357806376f8f90f146103a357806377bc5a1f146103c35780637c8c2add146103e35780638a355a57146104035780639580fc6c14610423578063a93d5ed614610443578063c3079ae714610458578063c3ccb1911461046d578063c66433ea1461048d578063ce33d58a146104ad578063cf2041d9146104cd578063d0a4adfe146104ed578063fc00050014610533575b600080fd5b34801561017957600080fd5b5061018d610188366004613377565b610546565b005b34801561019b57600080fd5b50600b546001600160a01b03165b6040516101b6919061398e565b60405180910390f35b3480156101cb57600080fd5b5061018d6101da366004613377565b610554565b61018d6101ed3660046137ab565b6105a9565b3480156101fe57600080fd5b5061018d61020d366004613377565b61069c565b34801561021e57600080fd5b506005545b6040519081526020016101b6565b34801561023d57600080fd5b5061018d6106a7565b34801561025257600080fd5b5061018d6102613660046133b1565b6107a6565b34801561027257600080fd5b50610286610281366004613377565b6107b4565b6040516101b6929190613abc565b3480156102a057600080fd5b5061018d6102af3660046137db565b6107cc565b3480156102c057600080fd5b50610223610811565b3480156102d557600080fd5b50610223610a0f565b3480156102ea57600080fd5b506102fe6102f9366004613484565b610b51565b6040516101b69190613a01565b34801561031757600080fd5b50600154610223565b34801561032c57600080fd5b5061034061033b366004613758565b610cf7565b6040516101b6929190613a14565b34801561035a57600080fd5b50610340610369366004613758565b610d06565b34801561037a57600080fd5b506102fe610d14565b34801561038f57600080fd5b5061022361039e366004613377565b610d25565b3480156103af57600080fd5b5061018d6103be366004613377565b610d43565b3480156103cf57600080fd5b506102866103de366004613377565b610d9e565b3480156103ef57600080fd5b5061018d6103fe3660046137db565b610dae565b34801561040f57600080fd5b5061018d61041e366004613377565b610ded565b34801561042f57600080fd5b5061018d61043e3660046134fd565b610df8565b34801561044f57600080fd5b506102fe610e79565b34801561046457600080fd5b5061018d610e86565b34801561047957600080fd5b5061018d6104883660046134b9565b610f85565b34801561049957600080fd5b5061018d6104a83660046138b2565b6111b4565b3480156104b957600080fd5b5061018d6104c8366004613377565b61129f565b3480156104d957600080fd5b5061018d6104e8366004613557565b6112ab565b3480156104f957600080fd5b506101a96105083660046137ab565b6001600160a01b039081166000908152600a6020908152604080832094835293905291909120541690565b61018d610541366004613435565b611556565b610551816001611a68565b50565b6001546001610564600054611bda565b5161056f9190613d28565b808211156105985760405162461bcd60e51b815260040161058f90613afe565b60405180910390fd5b6105a483600054611d41565b505050565b600b60009054906101000a90046001600160a01b03166001600160a01b0316635a3794e96040518163ffffffff1660e01b815260040160206040518083038186803b1580156105f757600080fd5b505afa15801561060b573d6000803e3d6000fd5b505050506040513d601f19601f8201168201806040525081019061062f9190613394565b6001600160a01b031663f0c9325e3460026040518363ffffffff1660e01b815260040161065c9190613a94565b6000604051808303818588803b15801561067557600080fd5b505af1158015610689573d6000803e3d6000fd5b50505050506106988282611e7b565b5050565b610551816001611fad565b6106b3336000546120e7565b15156001146106d45760405162461bcd60e51b815260040161058f90613ba9565b60016005546106f55760405162461bcd60e51b815260040161058f90613b1d565b60405163f7cf62d760e01b815273__AddressLibrary________________________9063f7cf62d79061072f9033906008906004016139a2565b60206040518083038186803b15801561074757600080fd5b505af415801561075b573d6000803e3d6000fd5b505050506040513d601f19601f8201168201806040525081019061077f9190613775565b1561079c5760405162461bcd60e51b815260040161058f90613bc7565b61055160016122d8565b6105a483838360005461235f565b606060006107c38360016124fb565b91509150915091565b6107d8848484846126f8565b6001838360008181106107ed576107ed613dd7565b90506020020135141561080b57801561080b5761080b8460006127c2565b50505050565b600080600b60009054906101000a90046001600160a01b03166001600160a01b0316635a3794e96040518163ffffffff1660e01b815260040160206040518083038186803b15801561086257600080fd5b505afa158015610876573d6000803e3d6000fd5b505050506040513d601f19601f8201168201806040525081019061089a9190613394565b6001600160a01b03166325b4f3ca6040518163ffffffff1660e01b815260040160a06040518083038186803b1580156108d257600080fd5b505afa1580156108e6573d6000803e3d6000fd5b505050506040513d601f19601f8201168201806040525081019061090a91906138cb565b50600b5460408051636025541560e01b815290519296506001600160a01b039091169450636025541593506004808201935060209291829003018186803b15801561095457600080fd5b505afa158015610968573d6000803e3d6000fd5b505050506040513d601f19601f8201168201806040525081019061098c9190613394565b6001600160a01b0316638d12420b826040518263ffffffff1660e01b81526004016109b991815260200190565b60206040518083038186803b1580156109d157600080fd5b505afa1580156109e5573d6000803e3d6000fd5b505050506040513d601f19601f82011682018060405250810190610a099190613792565b91505090565b600080600b60009054906101000a90046001600160a01b03166001600160a01b0316635a3794e96040518163ffffffff1660e01b815260040160206040518083038186803b158015610a6057600080fd5b505afa158015610a74573d6000803e3d6000fd5b505050506040513d601f19601f82011682018060405250810190610a989190613394565b6001600160a01b03166325b4f3ca6040518163ffffffff1660e01b815260040160a06040518083038186803b158015610ad057600080fd5b505afa158015610ae4573d6000803e3d6000fd5b505050506040513d601f19601f82011682018060405250810190610b0891906138cb565b5050600b5460408051636025541560e01b815290519495506001600160a01b03909116936360255415935060048083019350602092829003018186803b15801561095457600080fd5b606082610b5d85610d25565b11610b775750604080516000815260208101909152610cf0565b818084610b8387610d25565b610b8d9190613d28565b1015610baa5783610b9d86610d25565b610ba79190613d28565b90505b6000816001600160401b03811115610bc457610bc4613ded565b604051908082528060200260200182016040528015610bed578160200160208202803683370190505b506001600160a01b0387166000908152600a6020908152604080832060010180548251818502810185019093528083529495509293909291830182828015610c5457602002820191906000526020600020905b815481526020019060010190808311610c40575b5050505050905060008060005b8351811015610ce757878310610c7657610ce7565b81891115610c9057610c89600183613d10565b9150610cd5565b838181518110610ca257610ca2613dd7565b6020026020010151858481518110610cbc57610cbc613dd7565b6020908102919091010152610cd2600184613d10565b92505b80610cdf81613da6565b915050610c61565b50929450505050505b9392505050565b6060806107c3836000546129bd565b6060806107c38360016129bd565b6060610d206001611bda565b905090565b6001600160a01b03166000908152600a602052604090206001015490565b610d4f81600054612b3c565b151560011415610d92576001610d66600054611bda565b51610d719190613d28565b6001541115610d925760405162461bcd60e51b815260040161058f90613afe565b61055181600054611fad565b606060006107c3836000546124fb565b610dba848484846126f8565b600183836000818110610dcf57610dcf613dd7565b90506020020135141561080b57801561080b5761080b8460016127c2565b610551816001611d41565b600454610100900460ff1680610e11575060045460ff16155b610e2d5760405162461bcd60e51b815260040161058f90613b5b565b600454610100900460ff16158015610e4f576004805461ffff19166101011790555b610e598484610f85565b610e6282612ca8565b801561080b576004805461ff001916905550505050565b6060610d20600054611bda565b610e92336000546120e7565b1515600114610eb35760405162461bcd60e51b815260040161058f90613ba9565b6001600554610ed45760405162461bcd60e51b815260040161058f90613b1d565b60405163f7cf62d760e01b815273__AddressLibrary________________________9063f7cf62d790610f0e9033906008906004016139a2565b60206040518083038186803b158015610f2657600080fd5b505af4158015610f3a573d6000803e3d6000fd5b505050506040513d601f19601f82011682018060405250810190610f5e9190613775565b15610f7b5760405162461bcd60e51b815260040161058f90613bc7565b61055160006122d8565b600454610100900460ff1680610f9e575060045460ff16155b610fba5760405162461bcd60e51b815260040161058f90613b5b565b600454610100900460ff16158015610fdc576004805461ffff19166101011790555b6040805160028082526060820190925290816020015b6060815260200190600190039081610ff2575050805161101a9160099160209091019061309f565b506040518060400160405280600581526020016427bbb732b960d91b815250600960008154811061104d5761104d613dd7565b90600052602060002001908051906020019061106a9291906130fc565b5060405180604001604052806008815260200167283937bb34b232b960c11b81525060096001815481106110a0576110a0613dd7565b9060005260206000200190805190602001906110bd9291906130fc565b5061119e838360026009805480602002602001604051908101604052809291908181526020016000905b8282101561119357838290600052602060002001805461110690613d6b565b80601f016020809104026020016040519081016040528092919081815260200182805461113290613d6b565b801561117f5780601f106111545761010080835404028352916020019161117f565b820191906000526020600020905b81548152906001019060200180831161116257829003601f168201915b5050505050815260200190600101906110e7565b5050505060006112ab565b80156105a4576004805461ff0019169055505050565b6111c0336000546120e7565b15156001146111e15760405162461bcd60e51b815260040161058f90613ba9565b60006005541561121b5760405162461bcd60e51b8152602060048201526005602482015264454333302d60d81b604482015260640161058f565b8160026000548154811061123157611231613dd7565b906000526020600020906004020160010180549050808211156112665760405162461bcd60e51b815260040161058f90613afe565b6000848181116112885760405162461bcd60e51b815260040161058f90613b3c565b600586905561129760016122d8565b505050505050565b61055181600054611a68565b600454610100900460ff16806112c4575060045460ff16155b6112e05760405162461bcd60e51b815260040161058f90613b5b565b600454610100900460ff16158015611302576004805461ffff19166101011790555b848651808211156113255760405162461bcd60e51b815260040161058f90613afe565b6000878181116113475760405162461bcd60e51b815260040161058f90613b3c565b8651881461137f5760405162461bcd60e51b8152602060048201526005602482015264454331382d60d81b604482015260640161058f565b60008681555b888110156113f55760028054600101815560005287516003908990839081106113b0576113b0613dd7565b602090810291909101810151825460018101845560009384529282902081516113e294919091019291909101906130fc565b50806113ed81613da6565b915050611385565b50600189905560005b8a5181101561153857600073__AddressLibrary________________________63bc215e858d848151811061143557611435613dd7565b60200260200101516040518263ffffffff1660e01b8152600401611459919061398e565b60206040518083038186803b15801561147157600080fd5b505af4158015611485573d6000803e3d6000fd5b505050506040513d601f19601f820116820180604052508101906114a99190613792565b905060016002600054815481106114c2576114c2613dd7565b60009182526020808320858452600492909202909101905260408120805460ff1916921515929092179091555460028054909190811061150457611504613dd7565b600091825260208083206001600490930201820180549283018155835290912001558061153081613da6565b9150506113fe565b50505050508015611297576004805461ff0019169055505050505050565b816115628160016120e7565b156115985760405162461bcd60e51b815260040161058f906020808252600490820152634543362d60e01b604082015260600190565b82600073__AddressLibrary________________________63bc215e85836040518263ffffffff1660e01b81526004016115d2919061398e565b60206040518083038186803b1580156115ea57600080fd5b505af41580156115fe573d6000803e3d6000fd5b505050506040513d601f19601f820116820180604052508101906116229190613792565b905073__ItemsLibrary__________________________6226d76682600260018154811061165257611652613dd7565b90600052602060002090600402016040518363ffffffff1660e01b815260040161167d929190613a86565b60206040518083038186803b15801561169557600080fd5b505af41580156116a9573d6000803e3d6000fd5b505050506040513d601f19601f820116820180604052508101906116cd9190613775565b158015611781575073__ItemsLibrary__________________________632854ed2e82600260018154811061170457611704613dd7565b90600052602060002090600402016040518363ffffffff1660e01b815260040161172f929190613a86565b60206040518083038186803b15801561174757600080fd5b505af415801561175b573d6000803e3d6000fd5b505050506040513d601f19601f8201168201806040525081019061177f9190613775565b155b6117b55760405162461bcd60e51b8152602060048201526005602482015264454332372d60d81b604482015260640161058f565b600b60009054906101000a90046001600160a01b03166001600160a01b0316635a3794e96040518163ffffffff1660e01b815260040160206040518083038186803b15801561180357600080fd5b505afa158015611817573d6000803e3d6000fd5b505050506040513d601f19601f8201168201806040525081019061183b9190613394565b6001600160a01b031663f0c9325e3460006040518363ffffffff1660e01b81526004016118689190613a94565b6000604051808303818588803b15801561188157600080fd5b505af1158015611895573d6000803e3d6000fd5b505060405163bc215e8560e01b81526000935073__AddressLibrary________________________925063bc215e8591506118d490899060040161398e565b60206040518083038186803b1580156118ec57600080fd5b505af4158015611900573d6000803e3d6000fd5b505050506040513d601f19601f820116820180604052508101906119249190613792565b905084600260018154811061193b5761193b613dd7565b9060005260206000209060040201600001600083815260200190815260200160002060010190805190602001906119739291906130fc565b50600260018154811061198857611988613dd7565b600091825260208083206002600490930201820180546001818101835591855291909320018390558054829081106119c2576119c2613dd7565b9060005260206000209060040201600201805490506119e19190613d28565b60026001815481106119f5576119f5613dd7565b60009182526020808320858452600490920290910190526040908190206003019190915551611a25908690613972565b604051908190038120906001600160a01b038816907f39cde7834e26555dd63843df8459d36dd67b5bab6f4ed52349cbb03f66f542b190600090a3505050505050565b60025460405163123bd07560e11b815282919073__Library_______________________________90632477a0ea90611aa79085908590600401613a86565b60206040518083038186803b158015611abf57600080fd5b505af4158015611ad3573d6000803e3d6000fd5b505050506040513d601f19601f82011682018060405250810190611af79190613775565b1515600114611b185760405162461bcd60e51b815260040161058f90613ae0565b611b24336000546120e7565b1515600114611b455760405162461bcd60e51b815260040161058f90613ba9565b600080611b62866040518060200160405280600081525087612d2f565b604051635cb09bcf60e01b8152919350915073__ItemsLibrary__________________________90635cb09bcf90611ba290859085903090600401613be5565b60006040518083038186803b158015611bba57600080fd5b505af4158015611bce573d6000803e3d6000fd5b50505050505050505050565b60025460405163123bd07560e11b8152606091839173__Library_______________________________90632477a0ea90611c1b9085908590600401613a86565b60206040518083038186803b158015611c3357600080fd5b505af4158015611c47573d6000803e3d6000fd5b505050506040513d601f19601f82011682018060405250810190611c6b9190613775565b1515600114611c8c5760405162461bcd60e51b815260040161058f90613ae0565b73__ItemsLibrary__________________________6327724f4b60028681548110611cb957611cb9613dd7565b90600052602060002090600402016040518263ffffffff1660e01b8152600401611ce591815260200190565b60006040518083038186803b158015611cfd57600080fd5b505af4158015611d11573d6000803e3d6000fd5b505050506040513d6000823e601f3d908101601f19168201604052611d39919081019061364a565b949350505050565b60025460405163123bd07560e11b815282919073__Library_______________________________90632477a0ea90611d809085908590600401613a86565b60206040518083038186803b158015611d9857600080fd5b505af4158015611dac573d6000803e3d6000fd5b505050506040513d601f19601f82011682018060405250810190611dd09190613775565b1515600114611df15760405162461bcd60e51b815260040161058f90613ae0565b611dfd336000546120e7565b1515600114611e1e5760405162461bcd60e51b815260040161058f90613ba9565b600080611e3b866040518060200160405280600081525087612d2f565b60405163e23fcdef60e01b8152919350915073__ItemsLibrary__________________________9063e23fcdef90611ba290859085903090600401613be5565b611e8433612f3b565b1515600114611ebd5760405162461bcd60e51b8152602060048201526005602482015264454331322d60d81b604482015260640161058f565b816001600160a01b038083166000908152600a60209081526040808320878452909152902054839185911615611f1d5760405162461bcd60e51b8152602060048201526005602482015264454331352d60d81b604482015260640161058f565b6001600160a01b0384166000818152600a602081815260408084208a855280835281852080546001600160a01b031916339081179091559383526001908101805491820181558552919093200188905590517ff55a90628981610edc26894247bee72e1963d1c9faa4ea6533fd3df39fd36ed490611f9e9089815260200190565b60405180910390a35050505050565b60025460405163123bd07560e11b815282919073__Library_______________________________90632477a0ea90611fec9085908590600401613a86565b60206040518083038186803b15801561200457600080fd5b505af4158015612018573d6000803e3d6000fd5b505050506040513d601f19601f8201168201806040525081019061203c9190613775565b151560011461205d5760405162461bcd60e51b815260040161058f90613ae0565b612069336000546120e7565b151560011461208a5760405162461bcd60e51b815260040161058f90613ba9565b6000806120a7866040518060200160405280600081525087612d2f565b604051637493a70b60e01b8152919350915073__ItemsLibrary__________________________90637493a70b90611ba290859085903090600401613be5565b60025460405163123bd07560e11b8152600091839173__Library_______________________________90632477a0ea906121289085908590600401613a86565b60206040518083038186803b15801561214057600080fd5b505af4158015612154573d6000803e3d6000fd5b505050506040513d601f19601f820116820180604052508101906121789190613775565b15156001146121995760405162461bcd60e51b815260040161058f90613ae0565b60405163bc215e8560e01b815260009073__AddressLibrary________________________9063bc215e85906121d390899060040161398e565b60206040518083038186803b1580156121eb57600080fd5b505af41580156121ff573d6000803e3d6000fd5b505050506040513d601f19601f820116820180604052508101906122239190613792565b905073__ItemsLibrary__________________________63dbdfbeec826002888154811061225357612253613dd7565b90600052602060002090600402016040518363ffffffff1660e01b815260040161227e929190613a86565b60206040518083038186803b15801561229657600080fd5b505af41580156122aa573d6000803e3d6000fd5b505050506040513d601f19601f820116820180604052508101906122ce9190613775565b9695505050505050565b80156122fc576001600660008282546122f19190613d10565b909155506123159050565b60016007600082825461230f9190613d10565b90915550505b600880546001810182556000919091527ff3f7a9fe364faab93b216da50a3214154f22a0a2b415b23a84c8169e8b636ee30180546001600160a01b03191633179055610551612f4e565b60025460405163123bd07560e11b815282919073__Library_______________________________90632477a0ea9061239e9085908590600401613a86565b60206040518083038186803b1580156123b657600080fd5b505af41580156123ca573d6000803e3d6000fd5b505050506040513d601f19601f820116820180604052508101906123ee9190613775565b151560011461240f5760405162461bcd60e51b815260040161058f90613ae0565b61241b336000546120e7565b151560011461243c5760405162461bcd60e51b815260040161058f90613ba9565b6000806124818888888080601f0160208091040260200160405190810160405280939291908181526020018383808284376000920191909152508a9250612d2f915050565b6040516305cc2d5560e11b8152919350915073__ItemsLibrary__________________________90630b985aaa906124c190859085903090600401613be5565b60006040518083038186803b1580156124d957600080fd5b505af41580156124ed573d6000803e3d6000fd5b505050505050505050505050565b60025460405163123bd07560e11b815260609160009184919073__Library_______________________________90632477a0ea906125409085908590600401613a86565b60206040518083038186803b15801561255857600080fd5b505af415801561256c573d6000803e3d6000fd5b505050506040513d601f19601f820116820180604052508101906125909190613775565b15156001146125b15760405162461bcd60e51b815260040161058f90613ae0565b60405163bc215e8560e01b815260009073__AddressLibrary________________________9063bc215e85906125eb908a9060040161398e565b60206040518083038186803b15801561260357600080fd5b505af4158015612617573d6000803e3d6000fd5b505050506040513d601f19601f8201168201806040525081019061263b9190613792565b905073__ItemsLibrary__________________________631aeccc6a826002898154811061266b5761266b613dd7565b90600052602060002090600402016040518363ffffffff1660e01b8152600401612696929190613a86565b60006040518083038186803b1580156126ae57600080fd5b505af41580156126c2573d6000803e3d6000fd5b505050506040513d6000823e601f3d908101601f191682016040526126ea919081019061386c565b945094505050509250929050565b604051630d1d719d60e41b8152309073__Library_______________________________9063d1d719d09061273190849060040161398e565b60206040518083038186803b15801561274957600080fd5b505af415801561275d573d6000803e3d6000fd5b505050506040513d601f19601f820116820180604052508101906127819190613775565b15156001146127bb5760405162461bcd60e51b815260040161058f906020808252600490820152634543382d60e01b604082015260600190565b5050505050565b6000816128005760026001815481106127dd576127dd613dd7565b600091825260208083208684526004909202909101905260409020600501612830565b600260018154811061281457612814613dd7565b6000918252602080832086845260049283020190526040909120015b80548060200260200160405190810160405280929190818152602001828054801561288457602002820191906000526020600020905b81546001600160a01b03168152600190910190602001808311612866575b5050505050905060005b815181101561080b57600b60009054906101000a90046001600160a01b03166001600160a01b0316635a3794e96040518163ffffffff1660e01b815260040160206040518083038186803b1580156128e557600080fd5b505afa1580156128f9573d6000803e3d6000fd5b505050506040513d601f19601f8201168201806040525081019061291d9190613394565b6001600160a01b031663eb1e2a4183838151811061293d5761293d613dd7565b602002602001015184516040518363ffffffff1660e01b81526004016129789291906001600160a01b03929092168252602082015260400190565b600060405180830381600087803b15801561299257600080fd5b505af11580156129a6573d6000803e3d6000fd5b5050505080806129b590613da6565b91505061288e565b60025460405163123bd07560e11b8152606091829184919073__Library_______________________________90632477a0ea90612a019085908590600401613a86565b60206040518083038186803b158015612a1957600080fd5b505af4158015612a2d573d6000803e3d6000fd5b505050506040513d601f19601f82011682018060405250810190612a519190613775565b1515600114612a725760405162461bcd60e51b815260040161058f90613ae0565b60608073__ItemsLibrary__________________________63e035e0068960028a81548110612aa357612aa3613dd7565b90600052602060002090600402016040518363ffffffff1660e01b8152600401612ad99291909115158252602082015260400190565b60006040518083038186803b158015612af157600080fd5b505af4158015612b05573d6000803e3d6000fd5b505050506040513d6000823e601f3d908101601f19168201604052612b2d919081019061367e565b90999098509650505050505050565b60025460405163123bd07560e11b8152600091839173__Library_______________________________90632477a0ea90612b7d9085908590600401613a86565b60206040518083038186803b158015612b9557600080fd5b505af4158015612ba9573d6000803e3d6000fd5b505050506040513d601f19601f82011682018060405250810190612bcd9190613775565b1515600114612bee5760405162461bcd60e51b815260040161058f90613ae0565b60405163bc215e8560e01b815260009073__AddressLibrary________________________9063bc215e8590612c2890899060040161398e565b60206040518083038186803b158015612c4057600080fd5b505af4158015612c54573d6000803e3d6000fd5b505050506040513d601f19601f82011682018060405250810190612c789190613792565b905073__ItemsLibrary__________________________632854ed2e826002888154811061225357612253613dd7565b600454610100900460ff1680612cc1575060045460ff16155b612cdd5760405162461bcd60e51b815260040161058f90613b5b565b600454610100900460ff16158015612cff576004805461ffff19166101011790555b600b80546001600160a01b0319166001600160a01b0384161790558015610698576004805461ff00191690555050565b612d646040518060a0016040528060008019168152602001606081526020016000815260200160608152602001606081525090565b60008073__AddressLibrary________________________63bc215e85876040518263ffffffff1660e01b8152600401612d9e919061398e565b60206040518083038186803b158015612db657600080fd5b505af4158015612dca573d6000803e3d6000fd5b505050506040513d601f19601f82011682018060405250810190612dee9190613792565b60408051600180825281830190925291925060009190602080830190803683370190505090508481600081518110612e2857612e28613dd7565b60200260200101818152505060006040518060a00160405280848152602001888152602001600154815260200160038881548110612e6857612e68613dd7565b906000526020600020018054612e7d90613d6b565b80601f0160208091040260200160405190810160405280929190818152602001828054612ea990613d6b565b8015612ef65780601f10612ecb57610100808354040283529160200191612ef6565b820191906000526020600020905b815481529060010190602001808311612ed957829003601f168201915b50505050508152602001838152509050600060028781548110612f1b57612f1b613dd7565b600091825260209091209296506004029091019350505050935093915050565b6000612f488260016120e7565b92915050565b60065460015460405163f6001d7d60e01b815273__ItemsLibrary__________________________9263f6001d7d92612f8992600401613a86565b60206040518083038186803b158015612fa157600080fd5b505af4158015612fb5573d6000803e3d6000fd5b505050506040513d601f19601f82011682018060405250810190612fd99190613775565b15612fee57600554600155612fec613082565b565b60075460015460405163f6001d7d60e01b815273__ItemsLibrary__________________________9263f6001d7d9261302992600401613a86565b60206040518083038186803b15801561304157600080fd5b505af4158015613055573d6000803e3d6000fd5b505050506040513d601f19601f820116820180604052508101906130799190613775565b15612fec57612fec5b6000600581905560068190556007819055612fec9060089061317c565b8280548282559060005260206000209081019282156130ec579160200282015b828111156130ec57825180516130dc9184916020909101906130fc565b50916020019190600101906130bf565b506130f892915061319a565b5090565b82805461310890613d6b565b90600052602060002090601f01602090048101928261312a5760008555613170565b82601f1061314357805160ff1916838001178555613170565b82800160010185558215613170579182015b82811115613170578251825591602001919060010190613155565b506130f89291506131b7565b508054600082559060005260206000209081019061055191906131b7565b808211156130f85760006131ae82826131cc565b5060010161319a565b5b808211156130f857600081556001016131b8565b5080546131d890613d6b565b6000825580601f106131e8575050565b601f01602090049060005260206000209081019061055191906131b7565b600082601f83011261321757600080fd5b8135602061322c61322783613cc6565b613c96565b80838252828201915082860187848660051b890101111561324c57600080fd5b60005b8581101561327457813561326281613e03565b8452928401929084019060010161324f565b5090979650505050505050565b600082601f83011261329257600080fd5b815160206132a261322783613cc6565b80838252828201915082860187848660051b89010111156132c257600080fd5b60005b85811015613274578151845292840192908401906001016132c5565b600082601f8301126132f257600080fd5b813561330061322782613ce9565b81815284602083860101111561331557600080fd5b816020850160208301376000918101602001919091529392505050565b600082601f83011261334357600080fd5b815161335161322782613ce9565b81815284602083860101111561336657600080fd5b611d39826020830160208701613d3f565b60006020828403121561338957600080fd5b8135610cf081613e03565b6000602082840312156133a657600080fd5b8151610cf081613e03565b6000806000604084860312156133c657600080fd5b83356133d181613e03565b925060208401356001600160401b03808211156133ed57600080fd5b818601915086601f83011261340157600080fd5b81358181111561341057600080fd5b87602082850101111561342257600080fd5b6020830194508093505050509250925092565b6000806040838503121561344857600080fd5b823561345381613e03565b915060208301356001600160401b0381111561346e57600080fd5b61347a858286016132e1565b9150509250929050565b60008060006060848603121561349957600080fd5b83356134a481613e03565b95602085013595506040909401359392505050565b600080604083850312156134cc57600080fd5b82356001600160401b038111156134e257600080fd5b6134ee85828601613206565b95602094909401359450505050565b60008060006060848603121561351257600080fd5b83356001600160401b0381111561352857600080fd5b61353486828701613206565b93505060208401359150604084013561354c81613e03565b809150509250925092565b600080600080600060a0868803121561356f57600080fd5b6001600160401b03863581101561358557600080fd5b6135928888358901613206565b95506020808801359550604088013594506060880135828111156135b557600080fd5b8801601f81018a136135c657600080fd5b80356135d461322782613cc6565b8082825284820191508484018d868560051b87010111156135f457600080fd5b60005b8481101561362e57878235111561360d57600080fd5b61361c8f8884358901016132e1565b845292860192908601906001016135f7565b5050809750505050505050608086013590509295509295909350565b60006020828403121561365c57600080fd5b81516001600160401b0381111561367257600080fd5b611d3984828501613281565b6000806040838503121561369157600080fd5b82516001600160401b03808211156136a857600080fd5b6136b486838701613281565b93506020915081850151818111156136cb57600080fd5b8501601f810187136136dc57600080fd5b80516136ea61322782613cc6565b8082825285820191508584018a878560051b870101111561370a57600080fd5b6000805b8581101561374557825188811115613724578283fd5b6137328e8b838b0101613332565b865250938801939188019160010161370e565b5050508096505050505050509250929050565b60006020828403121561376a57600080fd5b8135610cf081613e18565b60006020828403121561378757600080fd5b8151610cf081613e18565b6000602082840312156137a457600080fd5b5051919050565b600080604083850312156137be57600080fd5b8235915060208301356137d081613e03565b809150509250929050565b600080600080606085870312156137f157600080fd5b8435935060208501356001600160401b038082111561380f57600080fd5b818701915087601f83011261382357600080fd5b81358181111561383257600080fd5b8860208260051b850101111561384757600080fd5b602083019550809450505050604085013561386181613e18565b939692955090935050565b6000806040838503121561387f57600080fd5b82516001600160401b0381111561389557600080fd5b6138a185828601613332565b92505060208301516137d081613e18565b6000602082840312156138c457600080fd5b5035919050565b600080600080600060a086880312156138e357600080fd5b5050835160208501516040860151606087015160809097015192989197509594509092509050565b600081518084526020808501945080840160005b8381101561393b5781518752958201959082019060010161391f565b509495945050505050565b6000815180845261395e816020860160208601613d3f565b601f01601f19169290920160200192915050565b60008251613984818460208701613d3f565b9190910192915050565b6001600160a01b0391909116815260200190565b60006040820160018060a01b03808616845260206040818601528286548085526060870191508760005282600020945060005b818110156139f35785548516835260019586019592840192016139d5565b509098975050505050505050565b602081526000610cf0602083018461390b565b604081526000613a27604083018561390b565b6020838203818501528185518084528284019150828160051b85010183880160005b83811015613a7757601f19878403018552613a65838351613946565b94860194925090850190600101613a49565b50909998505050505050505050565b918252602082015260400190565b6020810160048310613ab657634e487b7160e01b600052602160045260246000fd5b91905290565b604081526000613acf6040830185613946565b905082151560208301529392505050565b6020808252600490820152634543312d60e01b604082015260600190565b602080825260059082015264454331392d60d81b604082015260600190565b602080825260059082015264454333312d60d81b604082015260600190565b602080825260059082015264454331372d60d81b604082015260600190565b6020808252602e908201527f496e697469616c697a61626c653a20636f6e747261637420697320616c72656160408201526d191e481a5b9a5d1a585b1a5e995960921b606082015260800190565b6020808252600490820152634543392d60e01b604082015260600190565b6020808252600490820152634543352d60e01b604082015260600190565b6060815283516060820152600060208086015160a06080850152613c0d610100850182613946565b9050604087015160a08501526060870151605f19808684030160c0870152613c358383613946565b60808a015187820390920160e088015281518082529185019350600092508401905b80831015613c775783518252928401926001929092019190840190613c57565b5092850187905250506001600160a01b03841660408401529050611d39565b604051601f8201601f191681016001600160401b0381118282101715613cbe57613cbe613ded565b604052919050565b60006001600160401b03821115613cdf57613cdf613ded565b5060051b60200190565b60006001600160401b03821115613d0257613d02613ded565b50601f01601f191660200190565b60008219821115613d2357613d23613dc1565b500190565b600082821015613d3a57613d3a613dc1565b500390565b60005b83811015613d5a578181015183820152602001613d42565b8381111561080b5750506000910152565b600181811c90821680613d7f57607f821691505b60208210811415613da057634e487b7160e01b600052602260045260246000fd5b50919050565b6000600019821415613dba57613dba613dc1565b5060010190565b634e487b7160e01b600052601160045260246000fd5b634e487b7160e01b600052603260045260246000fd5b634e487b7160e01b600052604160045260246000fd5b6001600160a01b038116811461055157600080fd5b801515811461055157600080fdfea26469706673582212208a2ad3950d7554bc6c5cc8c995ce6cdab0d2c622a297f34fb9a658388278a3bf64736f6c63430008070033",
  "immutableReferences": {},
  "source": "// SPDX-License-Identifier: GPL-3.0\r\n\r\npragma solidity 0.8.7;\r\n\r\n/*\r\n  Public Certificate Pools offer the default MultiSig Certificate Pool functionality\r\n  except for Providers Creation and Certificate Issuing since payments must be made\r\n  Besides Public Certificate Pool is a managed contract\r\n */\r\n\r\n import \"../Abstract/MultiSigCertificatesPool.sol\";\r\n import \"../Interfaces/ITreasury.sol\";\r\n import \"../Base/ManagedBaseContract.sol\";\r\n import \"../Interfaces/IPriceConverter.sol\";\r\n\r\n contract PublicCertificatesPool is MultiSigCertificatesPool, ManagedBaseContract {\r\n\r\n    // EVENTS /////////////////////////////////////////\r\n    event _NewProposal(address indexed,  string indexed);\r\n\r\n    // MODIFIERS /////////////////////////////////////////\r\n    modifier ProviderisNotActivated(address entity){\r\n        require(false == isEntity(entity, _providerId), \"EC6-\");\r\n        _;\r\n    }\r\n\r\n    modifier ProviderisNotPending(address entity){\r\n        bytes32 entityInBytes = AddressLibrary.AddressToBytes32(entity);\r\n        require(false == ItemsLibrary.isItemPendingToAdded(entityInBytes, _Entities[_providerId]) && \r\n                false == ItemsLibrary.isItemPendingToRemoved(entityInBytes, _Entities[_providerId]), \"EC27-\");\r\n        _;\r\n    }\r\n\r\n    // CONSTRUCTOR /////////////////////////////////////////\r\n    function PublicCertPool_init(address[] memory owners,  uint256 minOwners, address managerContractAddress) public initializer {\r\n        super.MultiSigCertPool_init(owners, minOwners); \r\n        super.ManagedBaseContract_init(managerContractAddress); \r\n    }\r\n\r\n    // FUNCTIONALITY /////////////////////////////////////////\r\n    function addProvider(address provider, string memory providerInfo) external \r\n        ProviderisNotActivated(provider) \r\n        ProviderisNotPending(provider)\r\n    override payable\r\n    {\r\n        ITreasury(_managerContract.retrieveTreasuryProxy()).pay{value:msg.value}(Library.Prices.NewProvider);\r\n        bytes32 providerInBytes = AddressLibrary.AddressToBytes32(provider);\r\n        _Entities[_providerId]._items[providerInBytes]._Info = providerInfo;\r\n        _Entities[_providerId]._pendingItemsAdd.push(providerInBytes);\r\n        _Entities[_providerId]._items[providerInBytes]._pendingId = _Entities[_providerId]._pendingItemsAdd.length - 1;\r\n\r\n        emit _NewProposal(provider, providerInfo);\r\n    }\r\n\r\n    function payBack(bytes32 entityInBytes, bool validatedOrRejected) internal\r\n    {\r\n        address[] memory Voters = (validatedOrRejected) ? _Entities[_providerId]._items[entityInBytes]._Validations : _Entities[_providerId]._items[entityInBytes]._Rejections;\r\n\r\n        for(uint i=0; i < Voters.length; i++){\r\n            ITreasury(_managerContract.retrieveTreasuryProxy()).getRefund(Voters[i], Voters.length);\r\n        }\r\n    }\r\n\r\n    function addCertificate(bytes32 CertificateHash, address holder) external override payable\r\n    {\r\n        ITreasury(_managerContract.retrieveTreasuryProxy()).pay{value:msg.value}(Library.Prices.NewCertificate);\r\n        addCertificateInternal(CertificateHash, holder);\r\n    }\r\n\r\n    function retrieveAddCertificatePriceWei() external override view returns(uint256)\r\n    {\r\n        (, , , uint Price, ) = ITreasury(_managerContract.retrieveTreasuryProxy()).retrievePrices();\r\n        return IPriceConverter(_managerContract.retrievePriceConverterProxy()).fromUSDToETH(Price);\r\n    }\r\n\r\n    function retrieveSubscriptionPriceWei() external override virtual view returns(uint256)\r\n    {\r\n        (uint Price, , , , ) = ITreasury(_managerContract.retrieveTreasuryProxy()).retrievePrices();\r\n        return IPriceConverter(_managerContract.retrievePriceConverterProxy()).fromUSDToETH(Price);\r\n    }\r\n\r\n    // Callback functions\r\n    function onItemValidated(bytes32 item, uint256[] calldata ids, bool addOrRemove) public override \r\n    {\r\n        super.onItemValidated(item, ids, addOrRemove);\r\n\r\n        if(ids[0] == _providerId){\r\n            if(addOrRemove)payBack(item, true);\r\n        }\r\n    }\r\n\r\n    function onItemRejected(bytes32 item, uint256[] calldata ids, bool addOrRemove) public override  \r\n    {\r\n        super.onItemRejected(item, ids, addOrRemove);\r\n\r\n        if(ids[0] == _providerId){\r\n            if(addOrRemove)payBack(item, false);\r\n        }\r\n    }\r\n\r\n }",
  "sourcePath": "C:/Users/d-aam/GitHub/Certificates/contracts/DeployedContracts/PublicCertificatesPool.sol",
  "compiler": {
    "name": "solc",
    "version": "0.8.7+commit.e28d00a7.Emscripten.clang"
  },
  "schemaVersion": "3.3.4",
  "updatedAt": "2021-09-14T06:26:56.977Z",
  "devdoc": {
    "kind": "dev",
    "methods": {},
    "version": 1
  },
  "userdoc": {
    "kind": "user",
    "methods": {},
    "version": 1
  }
}