{
  "contractName": "PublicCertificatesPool",
  "abi": [
    {
      "anonymous": false,
      "inputs": [
        {
          "indexed": true,
          "internalType": "address",
          "name": "",
          "type": "address"
        },
        {
          "indexed": true,
          "internalType": "address",
          "name": "",
          "type": "address"
        },
        {
          "indexed": false,
          "internalType": "bytes32",
          "name": "",
          "type": "bytes32"
        }
      ],
      "name": "_AddCertificate",
      "type": "event"
    },
    {
      "anonymous": false,
      "inputs": [
        {
          "indexed": true,
          "internalType": "address",
          "name": "",
          "type": "address"
        },
        {
          "indexed": true,
          "internalType": "string",
          "name": "",
          "type": "string"
        }
      ],
      "name": "_NewProposal",
      "type": "event"
    },
    {
      "inputs": [
        {
          "internalType": "address[]",
          "name": "owners",
          "type": "address[]"
        },
        {
          "internalType": "uint256",
          "name": "minOwners",
          "type": "uint256"
        }
      ],
      "name": "MultiSigCertPool_init",
      "outputs": [],
      "stateMutability": "nonpayable",
      "type": "function"
    },
    {
      "inputs": [
        {
          "internalType": "address[]",
          "name": "owners",
          "type": "address[]"
        },
        {
          "internalType": "uint256",
          "name": "minOwners",
          "type": "uint256"
        },
        {
          "internalType": "uint256",
          "name": "TotalEntities",
          "type": "uint256"
        },
        {
          "internalType": "string[]",
          "name": "labels",
          "type": "string[]"
        },
        {
          "internalType": "uint256",
          "name": "ownerId",
          "type": "uint256"
        }
      ],
      "name": "MultiSigContract_init",
      "outputs": [],
      "stateMutability": "nonpayable",
      "type": "function"
    },
    {
      "inputs": [
        {
          "internalType": "address",
          "name": "owner",
          "type": "address"
        },
        {
          "internalType": "string",
          "name": "ownerInfo",
          "type": "string"
        }
      ],
      "name": "addOwner",
      "outputs": [],
      "stateMutability": "nonpayable",
      "type": "function"
    },
    {
      "inputs": [
        {
          "internalType": "address",
          "name": "owner",
          "type": "address"
        }
      ],
      "name": "isOwner",
      "outputs": [
        {
          "internalType": "bool",
          "name": "",
          "type": "bool"
        }
      ],
      "stateMutability": "view",
      "type": "function"
    },
    {
      "inputs": [
        {
          "internalType": "address",
          "name": "provider",
          "type": "address"
        }
      ],
      "name": "isProvider",
      "outputs": [
        {
          "internalType": "bool",
          "name": "",
          "type": "bool"
        }
      ],
      "stateMutability": "view",
      "type": "function"
    },
    {
      "inputs": [
        {
          "internalType": "address",
          "name": "owner",
          "type": "address"
        }
      ],
      "name": "rejectOwner",
      "outputs": [],
      "stateMutability": "nonpayable",
      "type": "function"
    },
    {
      "inputs": [
        {
          "internalType": "address",
          "name": "provider",
          "type": "address"
        }
      ],
      "name": "rejectProvider",
      "outputs": [],
      "stateMutability": "nonpayable",
      "type": "function"
    },
    {
      "inputs": [
        {
          "internalType": "address",
          "name": "owner",
          "type": "address"
        }
      ],
      "name": "removeOwner",
      "outputs": [],
      "stateMutability": "nonpayable",
      "type": "function"
    },
    {
      "inputs": [
        {
          "internalType": "address",
          "name": "provider",
          "type": "address"
        }
      ],
      "name": "removeProvider",
      "outputs": [],
      "stateMutability": "nonpayable",
      "type": "function"
    },
    {
      "inputs": [],
      "name": "retrieveAllOwners",
      "outputs": [
        {
          "internalType": "address[]",
          "name": "",
          "type": "address[]"
        }
      ],
      "stateMutability": "view",
      "type": "function"
    },
    {
      "inputs": [],
      "name": "retrieveAllProviders",
      "outputs": [
        {
          "internalType": "address[]",
          "name": "",
          "type": "address[]"
        }
      ],
      "stateMutability": "view",
      "type": "function"
    },
    {
      "inputs": [
        {
          "internalType": "bytes32",
          "name": "CertificateHash",
          "type": "bytes32"
        },
        {
          "internalType": "address",
          "name": "holder",
          "type": "address"
        }
      ],
      "name": "retrieveCertificateProvider",
      "outputs": [
        {
          "internalType": "address",
          "name": "",
          "type": "address"
        }
      ],
      "stateMutability": "view",
      "type": "function"
    },
    {
      "inputs": [
        {
          "internalType": "address",
          "name": "holder",
          "type": "address"
        },
        {
          "internalType": "uint256",
          "name": "skipFirst",
          "type": "uint256"
        },
        {
          "internalType": "uint256",
          "name": "max",
          "type": "uint256"
        }
      ],
      "name": "retrieveCertificatesByHolder",
      "outputs": [
        {
          "internalType": "bytes32[]",
          "name": "",
          "type": "bytes32[]"
        }
      ],
      "stateMutability": "view",
      "type": "function"
    },
    {
      "inputs": [],
      "name": "retrieveMinOwners",
      "outputs": [
        {
          "internalType": "uint256",
          "name": "",
          "type": "uint256"
        }
      ],
      "stateMutability": "view",
      "type": "function"
    },
    {
      "inputs": [
        {
          "internalType": "address",
          "name": "owner",
          "type": "address"
        }
      ],
      "name": "retrieveOwner",
      "outputs": [
        {
          "internalType": "string",
          "name": "",
          "type": "string"
        },
        {
          "internalType": "bool",
          "name": "",
          "type": "bool"
        }
      ],
      "stateMutability": "view",
      "type": "function"
    },
    {
      "inputs": [
        {
          "internalType": "bool",
          "name": "addedORremove",
          "type": "bool"
        }
      ],
      "name": "retrievePendingOwners",
      "outputs": [
        {
          "internalType": "address[]",
          "name": "",
          "type": "address[]"
        },
        {
          "internalType": "string[]",
          "name": "",
          "type": "string[]"
        }
      ],
      "stateMutability": "view",
      "type": "function"
    },
    {
      "inputs": [
        {
          "internalType": "bool",
          "name": "addedORremove",
          "type": "bool"
        }
      ],
      "name": "retrievePendingProviders",
      "outputs": [
        {
          "internalType": "address[]",
          "name": "",
          "type": "address[]"
        },
        {
          "internalType": "string[]",
          "name": "",
          "type": "string[]"
        }
      ],
      "stateMutability": "view",
      "type": "function"
    },
    {
      "inputs": [
        {
          "internalType": "address",
          "name": "provider",
          "type": "address"
        }
      ],
      "name": "retrieveProvider",
      "outputs": [
        {
          "internalType": "string",
          "name": "",
          "type": "string"
        },
        {
          "internalType": "bool",
          "name": "",
          "type": "bool"
        }
      ],
      "stateMutability": "view",
      "type": "function"
    },
    {
      "inputs": [
        {
          "internalType": "address",
          "name": "holder",
          "type": "address"
        }
      ],
      "name": "retrieveTotalCertificatesByHolder",
      "outputs": [
        {
          "internalType": "uint256",
          "name": "",
          "type": "uint256"
        }
      ],
      "stateMutability": "view",
      "type": "function"
    },
    {
      "inputs": [
        {
          "internalType": "address",
          "name": "owner",
          "type": "address"
        }
      ],
      "name": "validateOwner",
      "outputs": [],
      "stateMutability": "nonpayable",
      "type": "function"
    },
    {
      "inputs": [
        {
          "internalType": "address",
          "name": "provider",
          "type": "address"
        }
      ],
      "name": "validateProvider",
      "outputs": [],
      "stateMutability": "nonpayable",
      "type": "function"
    },
    {
      "inputs": [
        {
          "internalType": "address[]",
          "name": "owners",
          "type": "address[]"
        },
        {
          "internalType": "uint256",
          "name": "minOwners",
          "type": "uint256"
        },
        {
          "internalType": "address",
          "name": "managerContractAddress",
          "type": "address"
        }
      ],
      "name": "PublicCertPool_init",
      "outputs": [],
      "stateMutability": "nonpayable",
      "type": "function"
    },
    {
      "inputs": [
        {
          "internalType": "address",
          "name": "provider",
          "type": "address"
        },
        {
          "internalType": "string",
          "name": "providerInfo",
          "type": "string"
        }
      ],
      "name": "addProvider",
      "outputs": [],
      "stateMutability": "payable",
      "type": "function"
    },
    {
      "inputs": [
        {
          "internalType": "bytes32",
          "name": "CertificateHash",
          "type": "bytes32"
        },
        {
          "internalType": "address",
          "name": "holder",
          "type": "address"
        }
      ],
      "name": "addCertificate",
      "outputs": [],
      "stateMutability": "payable",
      "type": "function"
    },
    {
      "inputs": [
        {
          "internalType": "bytes32",
          "name": "item",
          "type": "bytes32"
        },
        {
          "internalType": "uint256[]",
          "name": "ids",
          "type": "uint256[]"
        },
        {
          "internalType": "bool",
          "name": "addOrRemove",
          "type": "bool"
        }
      ],
      "name": "onItemValidated",
      "outputs": [],
      "stateMutability": "nonpayable",
      "type": "function"
    },
    {
      "inputs": [
        {
          "internalType": "bytes32",
          "name": "item",
          "type": "bytes32"
        },
        {
          "internalType": "uint256[]",
          "name": "ids",
          "type": "uint256[]"
        },
        {
          "internalType": "bool",
          "name": "addOrRemove",
          "type": "bool"
        }
      ],
      "name": "onItemRejected",
      "outputs": [],
      "stateMutability": "nonpayable",
      "type": "function"
    }
  ],
  "bytecode": "0x608060405234801561001057600080fd5b50613f6a806100206000396000f3fe6080604052600436106101315760003560e01c80630b4c72a914610136578063173825d9146101585780631ab807f81461017857806327a40b4b1461018b5780632f54bf6e146101ab5780633542758f146101e057806337583499146102005780633fd071811461022e57806358a1ba251461024e57806365b973e51461027b5780636b074a071461029a5780636b299604146102ba5780636b3a0fec146102e85780636e4f9179146103085780636e55d2d41461032a57806376f8f90f1461034a57806377bc5a1f1461036a5780637c8c2add1461038a5780638a355a57146103aa5780639580fc6c146103ca578063a93d5ed6146103ea578063c3ccb191146103ff578063ce33d58a1461041f578063cf2041d91461043f578063d0a4adfe1461045f578063fc000500146104b2575b600080fd5b34801561014257600080fd5b50610156610151366004613409565b6104c5565b005b34801561016457600080fd5b50610156610173366004613409565b6104d3565b6101566101863660046138df565b610528565b34801561019757600080fd5b506101566101a6366004613409565b61061b565b3480156101b757600080fd5b506101cb6101c6366004613409565b610626565b60405190151581526020015b60405180910390f35b3480156101ec57600080fd5b506101566101fb366004613443565b61063a565b34801561020c57600080fd5b5061022061021b366004613409565b610648565b6040516101d7929190613ba6565b34801561023a57600080fd5b5061015661024936600461390f565b610660565b34801561025a57600080fd5b5061026e610269366004613516565b6106a5565b6040516101d79190613b2c565b34801561028757600080fd5b506001545b6040519081526020016101d7565b3480156102a657600080fd5b506101cb6102b5366004613409565b61084b565b3480156102c657600080fd5b506102da6102d536600461388c565b610858565b6040516101d7929190613aba565b3480156102f457600080fd5b506102da61030336600461388c565b610867565b34801561031457600080fd5b5061031d610875565b6040516101d79190613aa7565b34801561033657600080fd5b5061028c610345366004613409565b610886565b34801561035657600080fd5b50610156610365366004613409565b6108a4565b34801561037657600080fd5b50610220610385366004613409565b6108ff565b34801561039657600080fd5b506101566103a536600461390f565b61090f565b3480156103b657600080fd5b506101566103c5366004613409565b61094e565b3480156103d657600080fd5b506101566103e536600461362f565b610959565b3480156103f657600080fd5b5061031d6109da565b34801561040b57600080fd5b5061015661041a3660046135eb565b6109e7565b34801561042b57600080fd5b5061015661043a366004613409565b610c16565b34801561044b57600080fd5b5061015661045a366004613689565b610c22565b34801561046b57600080fd5b506104a561047a3660046138df565b6001600160a01b03908116600090815260066020908152604080832094835293905291909120541690565b6040516101d79190613a72565b6101566104c03660046134c7565b610ee4565b6104d081600161118a565b50565b60015460016104e360005461165b565b516104ee9190613e36565b808211156105175760405162461bcd60e51b815260040161050e90613bca565b60405180910390fd5b6105238360005461184c565b505050565b600760009054906101000a90046001600160a01b03166001600160a01b0316635a3794e96040518163ffffffff1660e01b815260040160206040518083038186803b15801561057657600080fd5b505afa15801561058a573d6000803e3d6000fd5b505050506040513d601f19601f820116820180604052508101906105ae9190613426565b6001600160a01b031663f0c9325e3460026040518363ffffffff1660e01b81526004016105db9190613b7e565b6000604051808303818588803b1580156105f457600080fd5b505af1158015610608573d6000803e3d6000fd5b50505050506106178282611bb3565b5050565b6104d0816001611ce7565b600061063482600054612178565b92915050565b610523838383600054612369565b60606000610657836001612722565b91509150915091565b61066c8484848461291f565b60018383600081811061068157610681613ee5565b90506020020135141561069f57801561069f5761069f8460006129e6565b50505050565b6060826106b185610886565b116106cb5750604080516000815260208101909152610844565b8180846106d787610886565b6106e19190613e36565b10156106fe57836106f186610886565b6106fb9190613e36565b90505b6000816001600160401b0381111561071857610718613efb565b604051908082528060200260200182016040528015610741578160200160208202803683370190505b506001600160a01b0387166000908152600660209081526040808320600101805482518185028101850190935280835294955092939092918301828280156107a857602002820191906000526020600020905b815481526020019060010190808311610794575b5050505050905060008060005b835181101561083b578783106107ca5761083b565b818911156107e4576107dd600183613e1e565b9150610829565b8381815181106107f6576107f6613ee5565b602002602001015185848151811061081057610810613ee5565b6020908102919091010152610826600184613e1e565b92505b8061083381613eb4565b9150506107b5565b50929450505050505b9392505050565b6000610634826001612178565b60608061065783600054612be4565b606080610657836001612be4565b6060610881600161165b565b905090565b6001600160a01b031660009081526006602052604090206001015490565b6108b081600054612df1565b1515600114156108f35760016108c760005461165b565b516108d29190613e36565b60015411156108f35760405162461bcd60e51b815260040161050e90613bca565b6104d081600054611ce7565b6060600061065783600054612722565b61091b8484848461291f565b60018383600081811061093057610930613ee5565b90506020020135141561069f57801561069f5761069f8460016129e6565b6104d081600161184c565b600454610100900460ff1680610972575060045460ff16155b61098e5760405162461bcd60e51b815260040161050e90613c41565b600454610100900460ff161580156109b0576004805461ffff19166101011790555b6109ba84846109e7565b6109c382612f5d565b801561069f576004805461ff001916905550505050565b606061088160005461165b565b600454610100900460ff1680610a00575060045460ff16155b610a1c5760405162461bcd60e51b815260040161050e90613c41565b600454610100900460ff16158015610a3e576004805461ffff19166101011790555b6040805160028082526060820190925290816020015b6060815260200190600190039081610a545750508051610a7c9160059160209091019061314f565b506040518060400160405280600581526020016427bbb732b960d91b8152506005600081548110610aaf57610aaf613ee5565b906000526020600020019080519060200190610acc9291906131ac565b5060405180604001604052806008815260200167283937bb34b232b960c11b8152506005600181548110610b0257610b02613ee5565b906000526020600020019080519060200190610b1f9291906131ac565b50610c00838360026005805480602002602001604051908101604052809291908181526020016000905b82821015610bf5578382906000526020600020018054610b6890613e79565b80601f0160208091040260200160405190810160405280929190818152602001828054610b9490613e79565b8015610be15780601f10610bb657610100808354040283529160200191610be1565b820191906000526020600020905b815481529060010190602001808311610bc457829003601f168201915b505050505081526020019060010190610b49565b505050506000610c22565b8015610523576004805461ff0019169055505050565b6104d08160005461118a565b600454610100900460ff1680610c3b575060045460ff16155b610c575760405162461bcd60e51b815260040161050e90613c41565b600454610100900460ff16158015610c79576004805461ffff19166101011790555b84865180821115610c9c5760405162461bcd60e51b815260040161050e90613bca565b60008711610cd55760405162461bcd60e51b815260040161050e906020808252600490820152634543313760e01b604082015260600190565b84518614610d0e5760405162461bcd60e51b815260040161050e9060208082526004908201526308a8662760e31b604082015260600190565b60008481555b86811015610d84576002805460010181556000528551600390879083908110610d3f57610d3f613ee5565b60209081029190910181015182546001810184556000938452928290208151610d7194919091019291909101906131ac565b5080610d7c81613eb4565b915050610d14565b50600187905560005b8851811015610ec757600073__AddressLibrary________________________63bc215e858b8481518110610dc457610dc4613ee5565b60200260200101516040518263ffffffff1660e01b8152600401610de89190613a72565b60206040518083038186803b158015610e0057600080fd5b505af4158015610e14573d6000803e3d6000fd5b505050506040513d601f19601f82011682018060405250810190610e3891906138c6565b90506001600260005481548110610e5157610e51613ee5565b60009182526020808320858452600492909202909101905260408120805460ff19169215159290921790915554600280549091908110610e9357610e93613ee5565b6000918252602080832060016004909302018201805492830181558352909120015580610ebf81613eb4565b915050610d8d565b5050508015610edc576004805461ff00191690555b505050505050565b6000826001610ef38282612178565b15610f105760405162461bcd60e51b815260040161050e90613cc9565b6000856001610f1f8282612fe4565b15610f3c5760405162461bcd60e51b815260040161050e90613be8565b600760009054906101000a90046001600160a01b03166001600160a01b0316635a3794e96040518163ffffffff1660e01b815260040160206040518083038186803b158015610f8a57600080fd5b505afa158015610f9e573d6000803e3d6000fd5b505050506040513d601f19601f82011682018060405250810190610fc29190613426565b6001600160a01b031663f0c9325e3460006040518363ffffffff1660e01b8152600401610fef9190613b7e565b6000604051808303818588803b15801561100857600080fd5b505af115801561101c573d6000803e3d6000fd5b505060405163bc215e8560e01b81526000935073__AddressLibrary________________________925063bc215e85915061105b908c90600401613a72565b60206040518083038186803b15801561107357600080fd5b505af4158015611087573d6000803e3d6000fd5b505050506040513d601f19601f820116820180604052508101906110ab91906138c6565b90508760026001815481106110c2576110c2613ee5565b9060005260206000209060040201600001600083815260200190815260200160002060010190805190602001906110fa9291906131ac565b50600260018154811061110f5761110f613ee5565b600091825260208083206002600490930201919091018054600181018255908352912001819055604051611144908990613a56565b604051908190038120906001600160a01b038b16907f39cde7834e26555dd63843df8459d36dd67b5bab6f4ed52349cbb03f66f542b190600090a3505050505050505050565b60025460405163123bd07560e11b815282919073__Library_______________________________90632477a0ea906111c99085908590600401613b70565b60206040518083038186803b1580156111e157600080fd5b505af41580156111f5573d6000803e3d6000fd5b505050506040513d601f19601f8201168201806040525081019061121991906138a9565b151560011461123a5760405162461bcd60e51b815260040161050e90613cac565b61124633600054612178565b15156001146112675760405162461bcd60e51b815260040161050e90613c8f565b600184846112758282612fe4565b151560011480611290575061128a8282612df1565b15156001145b6112ac5760405162461bcd60e51b815260040161050e90613c23565b8686600073__AddressLibrary________________________63bc215e85846040518263ffffffff1660e01b81526004016112e79190613a72565b60206040518083038186803b1580156112ff57600080fd5b505af4158015611313573d6000803e3d6000fd5b505050506040513d601f19601f8201168201806040525081019061133791906138c6565b905073__ItemsLibrary__________________________637b6d23de33836002868154811061136857611368613ee5565b90600052602060002090600402016040518463ffffffff1660e01b815260040161139493929190613a86565b60206040518083038186803b1580156113ac57600080fd5b505af41580156113c0573d6000803e3d6000fd5b505050506040513d601f19601f820116820180604052508101906113e491906138a9565b156114015760405162461bcd60e51b815260040161050e90613c06565b60405163bc215e8560e01b815260009073__AddressLibrary________________________9063bc215e859061143b908e90600401613a72565b60206040518083038186803b15801561145357600080fd5b505af4158015611467573d6000803e3d6000fd5b505050506040513d601f19601f8201168201806040525081019061148b91906138c6565b60408051600180825281830190925291925060009190602080830190803683370190505090508a816000815181106114c5576114c5613ee5565b60200260200101818152505060006040518060c00160405280848152602001604051806020016040528060008152508152602001600154815260200160038e8154811061151457611514613ee5565b90600052602060002001805461152990613e79565b80601f016020809104026020016040519081016040528092919081815260200182805461155590613e79565b80156115a25780601f10611577576101008083540402835291602001916115a2565b820191906000526020600020905b81548152906001019060200180831161158557829003601f168201915b50505050508152602001838152602001600115158152509050600060028d815481106115d0576115d0613ee5565b9060005260206000209060040201905073__ItemsLibrary__________________________635cb09bcf8383306040518463ffffffff1660e01b815260040161161b93929190613ce6565b60006040518083038186803b15801561163357600080fd5b505af4158015611647573d6000803e3d6000fd5b505050505050505050505050505050505050565b60025460405163123bd07560e11b8152606091839173__Library_______________________________90632477a0ea9061169c9085908590600401613b70565b60206040518083038186803b1580156116b457600080fd5b505af41580156116c8573d6000803e3d6000fd5b505050506040513d601f19601f820116820180604052508101906116ec91906138a9565b151560011461170d5760405162461bcd60e51b815260040161050e90613cac565b73__AddressLibrary________________________6391421b1173__ItemsLibrary__________________________6327724f4b6002888154811061175457611754613ee5565b90600052602060002090600402016040518263ffffffff1660e01b815260040161178091815260200190565b60006040518083038186803b15801561179857600080fd5b505af41580156117ac573d6000803e3d6000fd5b505050506040513d6000823e601f3d908101601f191682016040526117d4919081019061377e565b6040518263ffffffff1660e01b81526004016117f09190613b2c565b60006040518083038186803b15801561180857600080fd5b505af415801561181c573d6000803e3d6000fd5b505050506040513d6000823e601f3d908101601f19168201604052611844919081019061354b565b949350505050565b60025460405163123bd07560e11b815282919073__Library_______________________________90632477a0ea9061188b9085908590600401613b70565b60206040518083038186803b1580156118a357600080fd5b505af41580156118b7573d6000803e3d6000fd5b505050506040513d601f19601f820116820180604052508101906118db91906138a9565b15156001146118fc5760405162461bcd60e51b815260040161050e90613cac565b61190833600054612178565b15156001146119295760405162461bcd60e51b815260040161050e90613c8f565b600184846119378282612178565b151560011461196e5760405162461bcd60e51b815260206004820152600360248201526245433760e81b604482015260640161050e565b6000878761197c8282612df1565b156119995760405162461bcd60e51b815260040161050e90613be8565b60405163bc215e8560e01b815260009073__AddressLibrary________________________9063bc215e85906119d3908e90600401613a72565b60206040518083038186803b1580156119eb57600080fd5b505af41580156119ff573d6000803e3d6000fd5b505050506040513d601f19601f82011682018060405250810190611a2391906138c6565b60408051600180825281830190925291925060009190602080830190803683370190505090508a81600081518110611a5d57611a5d613ee5565b60200260200101818152505060006040518060c00160405280848152602001604051806020016040528060008152508152602001600154815260200160038e81548110611aac57611aac613ee5565b906000526020600020018054611ac190613e79565b80601f0160208091040260200160405190810160405280929190818152602001828054611aed90613e79565b8015611b3a5780601f10611b0f57610100808354040283529160200191611b3a565b820191906000526020600020905b815481529060010190602001808311611b1d57829003601f168201915b50505050508152602001838152602001600115158152509050600060028d81548110611b6857611b68613ee5565b9060005260206000209060040201905073__ItemsLibrary__________________________63e23fcdef8383306040518463ffffffff1660e01b815260040161161b93929190613ce6565b611bbc3361084b565b1515600114611bf65760405162461bcd60e51b815260040161050e9060208082526004908201526322a1989960e11b604082015260600190565b816001600160a01b038083166000908152600660209081526040808320878452909152902054839185911615611c575760405162461bcd60e51b815260040161050e906020808252600490820152634543313560e01b604082015260600190565b6001600160a01b03841660008181526006602081815260408084208a855280835281852080546001600160a01b031916339081179091559383526001908101805491820181558552919093200188905590517ff55a90628981610edc26894247bee72e1963d1c9faa4ea6533fd3df39fd36ed490611cd89089815260200190565b60405180910390a35050505050565b60025460405163123bd07560e11b815282919073__Library_______________________________90632477a0ea90611d269085908590600401613b70565b60206040518083038186803b158015611d3e57600080fd5b505af4158015611d52573d6000803e3d6000fd5b505050506040513d601f19601f82011682018060405250810190611d7691906138a9565b1515600114611d975760405162461bcd60e51b815260040161050e90613cac565b611da333600054612178565b1515600114611dc45760405162461bcd60e51b815260040161050e90613c8f565b60018484611dd28282612fe4565b151560011480611ded5750611de78282612df1565b15156001145b611e095760405162461bcd60e51b815260040161050e90613c23565b8686600073__AddressLibrary________________________63bc215e85846040518263ffffffff1660e01b8152600401611e449190613a72565b60206040518083038186803b158015611e5c57600080fd5b505af4158015611e70573d6000803e3d6000fd5b505050506040513d601f19601f82011682018060405250810190611e9491906138c6565b905073__ItemsLibrary__________________________637b6d23de338360028681548110611ec557611ec5613ee5565b90600052602060002090600402016040518463ffffffff1660e01b8152600401611ef193929190613a86565b60206040518083038186803b158015611f0957600080fd5b505af4158015611f1d573d6000803e3d6000fd5b505050506040513d601f19601f82011682018060405250810190611f4191906138a9565b15611f5e5760405162461bcd60e51b815260040161050e90613c06565b60405163bc215e8560e01b815260009073__AddressLibrary________________________9063bc215e8590611f98908e90600401613a72565b60206040518083038186803b158015611fb057600080fd5b505af4158015611fc4573d6000803e3d6000fd5b505050506040513d601f19601f82011682018060405250810190611fe891906138c6565b60408051600180825281830190925291925060009190602080830190803683370190505090508a8160008151811061202257612022613ee5565b60200260200101818152505060006040518060c00160405280848152602001604051806020016040528060008152508152602001600154815260200160038e8154811061207157612071613ee5565b90600052602060002001805461208690613e79565b80601f01602080910402602001604051908101604052809291908181526020018280546120b290613e79565b80156120ff5780601f106120d4576101008083540402835291602001916120ff565b820191906000526020600020905b8154815290600101906020018083116120e257829003601f168201915b50505050508152602001838152602001600115158152509050600060028d8154811061212d5761212d613ee5565b9060005260206000209060040201905073__ItemsLibrary__________________________637493a70b8383306040518463ffffffff1660e01b815260040161161b93929190613ce6565b60025460405163123bd07560e11b8152600091839173__Library_______________________________90632477a0ea906121b99085908590600401613b70565b60206040518083038186803b1580156121d157600080fd5b505af41580156121e5573d6000803e3d6000fd5b505050506040513d601f19601f8201168201806040525081019061220991906138a9565b151560011461222a5760405162461bcd60e51b815260040161050e90613cac565b60405163bc215e8560e01b815260009073__AddressLibrary________________________9063bc215e8590612264908990600401613a72565b60206040518083038186803b15801561227c57600080fd5b505af4158015612290573d6000803e3d6000fd5b505050506040513d601f19601f820116820180604052508101906122b491906138c6565b905073__ItemsLibrary__________________________63dbdfbeec82600288815481106122e4576122e4613ee5565b90600052602060002090600402016040518363ffffffff1660e01b815260040161230f929190613b70565b60206040518083038186803b15801561232757600080fd5b505af415801561233b573d6000803e3d6000fd5b505050506040513d601f19601f8201168201806040525081019061235f91906138a9565b9695505050505050565b60025460405163123bd07560e11b815282919073__Library_______________________________90632477a0ea906123a89085908590600401613b70565b60206040518083038186803b1580156123c057600080fd5b505af41580156123d4573d6000803e3d6000fd5b505050506040513d601f19601f820116820180604052508101906123f891906138a9565b15156001146124195760405162461bcd60e51b815260040161050e90613cac565b61242533600054612178565b15156001146124465760405162461bcd60e51b815260040161050e90613c8f565b600086846124548282612178565b156124715760405162461bcd60e51b815260040161050e90613cc9565b6000898761247f8282612fe4565b1561249c5760405162461bcd60e51b815260040161050e90613be8565b600073__AddressLibrary________________________63bc215e858e6040518263ffffffff1660e01b81526004016124d59190613a72565b60206040518083038186803b1580156124ed57600080fd5b505af4158015612501573d6000803e3d6000fd5b505050506040513d601f19601f8201168201806040525081019061252591906138c6565b60408051600180825281830190925291925060009190602080830190803683370190505090508a8160008151811061255f5761255f613ee5565b60200260200101818152505060006040518060c001604052808481526020018f8f8080601f0160208091040260200160405190810160405280939291908181526020018383808284376000920191909152505050908252506001546020820152600380546040909201918f9081106125d9576125d9613ee5565b9060005260206000200180546125ee90613e79565b80601f016020809104026020016040519081016040528092919081815260200182805461261a90613e79565b80156126675780601f1061263c57610100808354040283529160200191612667565b820191906000526020600020905b81548152906001019060200180831161264a57829003601f168201915b50505050508152602001838152602001600115158152509050600060028d8154811061269557612695613ee5565b9060005260206000209060040201905073__ItemsLibrary__________________________630b985aaa8383306040518463ffffffff1660e01b81526004016126e093929190613ce6565b60006040518083038186803b1580156126f857600080fd5b505af415801561270c573d6000803e3d6000fd5b5050505050505050505050505050505050505050565b60025460405163123bd07560e11b815260609160009184919073__Library_______________________________90632477a0ea906127679085908590600401613b70565b60206040518083038186803b15801561277f57600080fd5b505af4158015612793573d6000803e3d6000fd5b505050506040513d601f19601f820116820180604052508101906127b791906138a9565b15156001146127d85760405162461bcd60e51b815260040161050e90613cac565b60405163bc215e8560e01b815260009073__AddressLibrary________________________9063bc215e8590612812908a90600401613a72565b60206040518083038186803b15801561282a57600080fd5b505af415801561283e573d6000803e3d6000fd5b505050506040513d601f19601f8201168201806040525081019061286291906138c6565b905073__ItemsLibrary__________________________631aeccc6a826002898154811061289257612892613ee5565b90600052602060002090600402016040518363ffffffff1660e01b81526004016128bd929190613b70565b60006040518083038186803b1580156128d557600080fd5b505af41580156128e9573d6000803e3d6000fd5b505050506040513d6000823e601f3d908101601f1916820160405261291191908101906139a0565b945094505050509250929050565b604051630d1d719d60e41b8152309073__Library_______________________________9063d1d719d090612958908490600401613a72565b60206040518083038186803b15801561297057600080fd5b505af4158015612984573d6000803e3d6000fd5b505050506040513d601f19601f820116820180604052508101906129a891906138a9565b15156001146129df5760405162461bcd60e51b815260206004820152600360248201526208a86760eb1b604482015260640161050e565b5050505050565b600081612a24576002600181548110612a0157612a01613ee5565b600091825260208083208684526004909202909101905260409020600301612a57565b6002600181548110612a3857612a38613ee5565b6000918252602080832086845260049092029091019052604090206002015b805480602002602001604051908101604052809291908181526020018280548015612aab57602002820191906000526020600020905b81546001600160a01b03168152600190910190602001808311612a8d575b5050505050905060005b815181101561069f57600760009054906101000a90046001600160a01b03166001600160a01b0316635a3794e96040518163ffffffff1660e01b815260040160206040518083038186803b158015612b0c57600080fd5b505afa158015612b20573d6000803e3d6000fd5b505050506040513d601f19601f82011682018060405250810190612b449190613426565b6001600160a01b031663eb1e2a41838381518110612b6457612b64613ee5565b602002602001015184516040518363ffffffff1660e01b8152600401612b9f9291906001600160a01b03929092168252602082015260400190565b600060405180830381600087803b158015612bb957600080fd5b505af1158015612bcd573d6000803e3d6000fd5b505050508080612bdc90613eb4565b915050612ab5565b60025460405163123bd07560e11b8152606091829184919073__Library_______________________________90632477a0ea90612c289085908590600401613b70565b60206040518083038186803b158015612c4057600080fd5b505af4158015612c54573d6000803e3d6000fd5b505050506040513d601f19601f82011682018060405250810190612c7891906138a9565b1515600114612c995760405162461bcd60e51b815260040161050e90613cac565b60608073__ItemsLibrary__________________________63e035e0068960028a81548110612cca57612cca613ee5565b90600052602060002090600402016040518363ffffffff1660e01b8152600401612d009291909115158252602082015260400190565b60006040518083038186803b158015612d1857600080fd5b505af4158015612d2c573d6000803e3d6000fd5b505050506040513d6000823e601f3d908101601f19168201604052612d5491908101906137b2565b6040516391421b1160e01b8152919350915073__AddressLibrary________________________906391421b1190612d90908590600401613b2c565b60006040518083038186803b158015612da857600080fd5b505af4158015612dbc573d6000803e3d6000fd5b505050506040513d6000823e601f3d908101601f19168201604052612de4919081019061354b565b9890975095505050505050565b60025460405163123bd07560e11b8152600091839173__Library_______________________________90632477a0ea90612e329085908590600401613b70565b60206040518083038186803b158015612e4a57600080fd5b505af4158015612e5e573d6000803e3d6000fd5b505050506040513d601f19601f82011682018060405250810190612e8291906138a9565b1515600114612ea35760405162461bcd60e51b815260040161050e90613cac565b60405163bc215e8560e01b815260009073__AddressLibrary________________________9063bc215e8590612edd908990600401613a72565b60206040518083038186803b158015612ef557600080fd5b505af4158015612f09573d6000803e3d6000fd5b505050506040513d601f19601f82011682018060405250810190612f2d91906138c6565b905073__ItemsLibrary__________________________632854ed2e82600288815481106122e4576122e4613ee5565b600454610100900460ff1680612f76575060045460ff16155b612f925760405162461bcd60e51b815260040161050e90613c41565b600454610100900460ff16158015612fb4576004805461ffff19166101011790555b600780546001600160a01b0319166001600160a01b0384161790558015610617576004805461ff00191690555050565b60025460405163123bd07560e11b8152600091839173__Library_______________________________90632477a0ea906130259085908590600401613b70565b60206040518083038186803b15801561303d57600080fd5b505af4158015613051573d6000803e3d6000fd5b505050506040513d601f19601f8201168201806040525081019061307591906138a9565b15156001146130965760405162461bcd60e51b815260040161050e90613cac565b60405163bc215e8560e01b815260009073__AddressLibrary________________________9063bc215e85906130d0908990600401613a72565b60206040518083038186803b1580156130e857600080fd5b505af41580156130fc573d6000803e3d6000fd5b505050506040513d601f19601f8201168201806040525081019061312091906138c6565b905073__ItemsLibrary__________________________6226d76682600288815481106122e4576122e4613ee5565b82805482825590600052602060002090810192821561319c579160200282015b8281111561319c578251805161318c9184916020909101906131ac565b509160200191906001019061316f565b506131a892915061322c565b5090565b8280546131b890613e79565b90600052602060002090601f0160209004810192826131da5760008555613220565b82601f106131f357805160ff1916838001178555613220565b82800160010185558215613220579182015b82811115613220578251825591602001919060010190613205565b506131a8929150613249565b808211156131a8576000613240828261325e565b5060010161322c565b5b808211156131a8576000815560010161324a565b50805461326a90613e79565b6000825580601f1061327a575050565b601f0160209004906000526020600020908101906104d09190613249565b600082601f8301126132a957600080fd5b813560206132be6132b983613dd4565b613da4565b80838252828201915082860187848660051b89010111156132de57600080fd5b60005b858110156133065781356132f481613f11565b845292840192908401906001016132e1565b5090979650505050505050565b600082601f83011261332457600080fd5b815160206133346132b983613dd4565b80838252828201915082860187848660051b890101111561335457600080fd5b60005b8581101561330657815184529284019290840190600101613357565b600082601f83011261338457600080fd5b81356133926132b982613df7565b8181528460208386010111156133a757600080fd5b816020850160208301376000918101602001919091529392505050565b600082601f8301126133d557600080fd5b81516133e36132b982613df7565b8181528460208386010111156133f857600080fd5b611844826020830160208701613e4d565b60006020828403121561341b57600080fd5b813561084481613f11565b60006020828403121561343857600080fd5b815161084481613f11565b60008060006040848603121561345857600080fd5b833561346381613f11565b925060208401356001600160401b038082111561347f57600080fd5b818601915086601f83011261349357600080fd5b8135818111156134a257600080fd5b8760208285010111156134b457600080fd5b6020830194508093505050509250925092565b600080604083850312156134da57600080fd5b82356134e581613f11565b915060208301356001600160401b0381111561350057600080fd5b61350c85828601613373565b9150509250929050565b60008060006060848603121561352b57600080fd5b833561353681613f11565b95602085013595506040909401359392505050565b6000602080838503121561355e57600080fd5b82516001600160401b0381111561357457600080fd5b8301601f8101851361358557600080fd5b80516135936132b982613dd4565b80828252848201915084840188868560051b87010111156135b357600080fd5b600094505b838510156135df5780516135cb81613f11565b8352600194909401939185019185016135b8565b50979650505050505050565b600080604083850312156135fe57600080fd5b82356001600160401b0381111561361457600080fd5b61362085828601613298565b95602094909401359450505050565b60008060006060848603121561364457600080fd5b83356001600160401b0381111561365a57600080fd5b61366686828701613298565b93505060208401359150604084013561367e81613f11565b809150509250925092565b600080600080600060a086880312156136a157600080fd5b85356001600160401b03808211156136b857600080fd5b6136c489838a01613298565b965060209150818801359550604088013594506060880135818111156136e957600080fd5b8801601f81018a136136fa57600080fd5b80356137086132b982613dd4565b8082825285820191508584018d878560051b870101111561372857600080fd5b60005b8481101561376257868235111561374157600080fd5b6137508f898435890101613373565b8452928701929087019060010161372b565b5050809750505050505050608086013590509295509295909350565b60006020828403121561379057600080fd5b81516001600160401b038111156137a657600080fd5b61184484828501613313565b600080604083850312156137c557600080fd5b82516001600160401b03808211156137dc57600080fd5b6137e886838701613313565b93506020915081850151818111156137ff57600080fd5b8501601f8101871361381057600080fd5b805161381e6132b982613dd4565b8082825285820191508584018a878560051b870101111561383e57600080fd5b6000805b8581101561387957825188811115613858578283fd5b6138668e8b838b01016133c4565b8652509388019391880191600101613842565b5050508096505050505050509250929050565b60006020828403121561389e57600080fd5b813561084481613f26565b6000602082840312156138bb57600080fd5b815161084481613f26565b6000602082840312156138d857600080fd5b5051919050565b600080604083850312156138f257600080fd5b82359150602083013561390481613f11565b809150509250929050565b6000806000806060858703121561392557600080fd5b8435935060208501356001600160401b038082111561394357600080fd5b818701915087601f83011261395757600080fd5b81358181111561396657600080fd5b8860208260051b850101111561397b57600080fd5b602083019550809450505050604085013561399581613f26565b939692955090935050565b600080604083850312156139b357600080fd5b82516001600160401b038111156139c957600080fd5b6139d5858286016133c4565b925050602083015161390481613f26565b600081518084526020808501945080840160005b83811015613a1f5781516001600160a01b0316875295820195908201906001016139fa565b509495945050505050565b60008151808452613a42816020860160208601613e4d565b601f01601f19169290920160200192915050565b60008251613a68818460208701613e4d565b9190910192915050565b6001600160a01b0391909116815260200190565b6001600160a01b039390931683526020830191909152604082015260600190565b60208152600061084460208301846139e6565b604081526000613acd60408301856139e6565b6020838203818501528185518084528284019150828160051b85010183880160005b83811015613b1d57601f19878403018552613b0b838351613a2a565b94860194925090850190600101613aef565b50909998505050505050505050565b6020808252825182820181905260009190848201906040850190845b81811015613b6457835183529284019291840191600101613b48565b50909695505050505050565b918252602082015260400190565b6020810160048310613ba057634e487b7160e01b600052602160045260246000fd5b91905290565b604081526000613bb96040830185613a2a565b905082151560208301529392505050565b6020808252600490820152634543313960e01b604082015260600190565b6020808252600490820152634543323760e01b604082015260600190565b60208082526003908201526245433560e81b604082015260600190565b60208082526004908201526308a8664760e31b604082015260600190565b6020808252602e908201527f496e697469616c697a61626c653a20636f6e747261637420697320616c72656160408201526d191e481a5b9a5d1a585b1a5e995960921b606082015260800190565b60208082526003908201526245433960e81b604082015260600190565b60208082526003908201526245433160e81b604082015260600190565b60208082526003908201526222a19b60e91b604082015260600190565b6060815283516060820152600060208086015160c06080850152613d0e610120850182613a2a565b9050604087015160a08501526060870151605f19808684030160c0870152613d368383613a2a565b60808a015187820390920160e088015281518082529185019350600092508401905b80831015613d785783518252928401926001929092019190840190613d58565b5060a0890151151561010087015292850187905250506001600160a01b03841660408401529050611844565b604051601f8201601f191681016001600160401b0381118282101715613dcc57613dcc613efb565b604052919050565b60006001600160401b03821115613ded57613ded613efb565b5060051b60200190565b60006001600160401b03821115613e1057613e10613efb565b50601f01601f191660200190565b60008219821115613e3157613e31613ecf565b500190565b600082821015613e4857613e48613ecf565b500390565b60005b83811015613e68578181015183820152602001613e50565b8381111561069f5750506000910152565b600181811c90821680613e8d57607f821691505b60208210811415613eae57634e487b7160e01b600052602260045260246000fd5b50919050565b6000600019821415613ec857613ec8613ecf565b5060010190565b634e487b7160e01b600052601160045260246000fd5b634e487b7160e01b600052603260045260246000fd5b634e487b7160e01b600052604160045260246000fd5b6001600160a01b03811681146104d057600080fd5b80151581146104d057600080fdfea264697066735822122093c0aa57d094980fb7a68585abbcbf13c0e6a28f31286af6cc0af5989931cccd64736f6c63430008060033",
  "immutableReferences": {},
  "source": "// SPDX-License-Identifier: GPL-3.0\r\n\r\npragma solidity >=0.7.0 <0.9.0;\r\n\r\n/**\r\n * @title Storage\r\n * @dev Store & retrieve value in a variable\r\n */\r\n\r\n import \"../Abstract/MultiSigCertificatesPool.sol\";\r\n import \"../Interfaces/ITreasury.sol\";\r\n import \"../Libraries/Library.sol\";\r\n import \"../Base/ManagedBaseContract.sol\";\r\n import \"../Libraries/AddressLibrary.sol\";\r\n import \"@openzeppelin/contracts-upgradeable/proxy/utils/Initializable.sol\";\r\n\r\n contract PublicCertificatesPool is Initializable, MultiSigCertificatesPool, ManagedBaseContract {\r\n    using Library for *;\r\n    using AddressLibrary for *;\r\n\r\n    // EVENTS /////////////////////////////////////////\r\n    event _NewProposal(address indexed,  string indexed);\r\n\r\n    // CONSTRUCTOR /////////////////////////////////////////\r\n    function PublicCertPool_init(address[] memory owners,  uint256 minOwners, address managerContractAddress) public initializer {\r\n        super.MultiSigCertPool_init(owners, minOwners); \r\n        super.ManagedBaseContract_init(managerContractAddress); \r\n    }\r\n\r\n    // FUNCTIONALITY /////////////////////////////////////////\r\n    function addProvider(address provider, string memory providerInfo) external \r\n        isEntityActivated(false, provider, _providerId) \r\n        isEntityPendingToAdd(false, provider, _providerId)\r\n    override payable\r\n    {\r\n        ITreasury(_managerContract.retrieveTreasuryProxy()).pay{value:msg.value}(Library.Prices.NewProvider);\r\n        bytes32 providerInBytes = AddressLibrary.AddressToBytes32(provider);\r\n        _Entities[_providerId]._items[providerInBytes]._Info = providerInfo;\r\n        _Entities[_providerId]._pendingItemsAdd.push(providerInBytes);\r\n\r\n        emit _NewProposal(provider, providerInfo);\r\n    }\r\n\r\n    function payBack(bytes32 entityInBytes, bool validatedOrRejected) internal\r\n    {\r\n        address[] memory Voters = (validatedOrRejected) ? _Entities[_providerId]._items[entityInBytes]._Validations : _Entities[_providerId]._items[entityInBytes]._Rejections;\r\n\r\n        for(uint i=0; i < Voters.length; i++){\r\n            ITreasury(_managerContract.retrieveTreasuryProxy()).getRefund(Voters[i], Voters.length);\r\n        }\r\n    }\r\n\r\n    function addCertificate(bytes32 CertificateHash, address holder) external override payable\r\n    {\r\n        ITreasury(_managerContract.retrieveTreasuryProxy()).pay{value:msg.value}(Library.Prices.NewCertificate);\r\n        addCertificateInternal(CertificateHash, holder);\r\n    }\r\n\r\n    // Callback functions\r\n    function onItemValidated(bytes32 item, uint256[] calldata ids, bool addOrRemove) public override \r\n    {\r\n        super.onItemValidated(item, ids, addOrRemove);\r\n\r\n        if(ids[0] == _providerId){\r\n            if(addOrRemove)payBack(item, true);\r\n        }\r\n    }\r\n\r\n    function onItemRejected(bytes32 item, uint256[] calldata ids, bool addOrRemove) public override  \r\n    {\r\n        super.onItemRejected(item, ids, addOrRemove);\r\n\r\n        if(ids[0] == _providerId){\r\n            if(addOrRemove)payBack(item, false);\r\n        }\r\n    }\r\n\r\n }",
  "sourcePath": "C:/Users/d-aam/GitHub/Certificates/contracts/DeployedContracts/PublicCertificatesPool.sol",
  "compiler": {
    "name": "solc",
    "version": "0.8.6+commit.11564f7e.Emscripten.clang"
  },
  "schemaVersion": "3.3.4",
  "updatedAt": "2021-08-10T13:56:20.617Z",
  "devdoc": {
    "kind": "dev",
    "methods": {},
    "version": 1
  },
  "userdoc": {
    "kind": "user",
    "methods": {},
    "version": 1
  }
}