{
  "contractName": "PublicCertificatesPool",
  "abi": [
    {
      "inputs": [
        {
          "internalType": "address[]",
          "name": "owners",
          "type": "address[]"
        },
        {
          "internalType": "uint256",
          "name": "minOwners",
          "type": "uint256"
        }
      ],
      "stateMutability": "payable",
      "type": "constructor"
    },
    {
      "anonymous": false,
      "inputs": [
        {
          "indexed": false,
          "internalType": "address",
          "name": "",
          "type": "address"
        },
        {
          "indexed": false,
          "internalType": "address",
          "name": "",
          "type": "address"
        }
      ],
      "name": "_AddCertificateIdEvent",
      "type": "event"
    },
    {
      "anonymous": false,
      "inputs": [
        {
          "indexed": false,
          "internalType": "string",
          "name": "",
          "type": "string"
        },
        {
          "indexed": false,
          "internalType": "address",
          "name": "",
          "type": "address"
        }
      ],
      "name": "_AddEntityValidationIdEvent",
      "type": "event"
    },
    {
      "anonymous": false,
      "inputs": [
        {
          "indexed": false,
          "internalType": "address",
          "name": "",
          "type": "address"
        },
        {
          "indexed": false,
          "internalType": "address",
          "name": "",
          "type": "address"
        }
      ],
      "name": "_RemoveCertificateIdEvent",
      "type": "event"
    },
    {
      "anonymous": false,
      "inputs": [
        {
          "indexed": false,
          "internalType": "string",
          "name": "",
          "type": "string"
        },
        {
          "indexed": false,
          "internalType": "address",
          "name": "",
          "type": "address"
        }
      ],
      "name": "_RemoveEntityValidationIdEvent",
      "type": "event"
    },
    {
      "anonymous": false,
      "inputs": [
        {
          "indexed": false,
          "internalType": "string",
          "name": "",
          "type": "string"
        },
        {
          "indexed": false,
          "internalType": "address",
          "name": "",
          "type": "address"
        }
      ],
      "name": "_UpdateEntityValidationIdEvent",
      "type": "event"
    },
    {
      "inputs": [
        {
          "internalType": "bytes32",
          "name": "CertificateHash",
          "type": "bytes32"
        },
        {
          "internalType": "address",
          "name": "holder",
          "type": "address"
        }
      ],
      "name": "addCertificate",
      "outputs": [],
      "stateMutability": "nonpayable",
      "type": "function"
    },
    {
      "inputs": [
        {
          "internalType": "address",
          "name": "owner",
          "type": "address"
        },
        {
          "internalType": "string",
          "name": "ownerInfo",
          "type": "string"
        }
      ],
      "name": "addOwner",
      "outputs": [],
      "stateMutability": "nonpayable",
      "type": "function"
    },
    {
      "inputs": [
        {
          "internalType": "address",
          "name": "owner",
          "type": "address"
        }
      ],
      "name": "isOwner",
      "outputs": [
        {
          "internalType": "bool",
          "name": "",
          "type": "bool"
        }
      ],
      "stateMutability": "view",
      "type": "function"
    },
    {
      "inputs": [
        {
          "internalType": "address",
          "name": "provider",
          "type": "address"
        }
      ],
      "name": "isProvider",
      "outputs": [
        {
          "internalType": "bool",
          "name": "",
          "type": "bool"
        }
      ],
      "stateMutability": "view",
      "type": "function"
    },
    {
      "inputs": [
        {
          "internalType": "bytes32",
          "name": "CertificateHash",
          "type": "bytes32"
        },
        {
          "internalType": "address",
          "name": "holder",
          "type": "address"
        }
      ],
      "name": "removeCertificate",
      "outputs": [],
      "stateMutability": "nonpayable",
      "type": "function"
    },
    {
      "inputs": [
        {
          "internalType": "address",
          "name": "owner",
          "type": "address"
        }
      ],
      "name": "removeOwner",
      "outputs": [],
      "stateMutability": "nonpayable",
      "type": "function"
    },
    {
      "inputs": [],
      "name": "retrieveAllOwners",
      "outputs": [
        {
          "internalType": "address[]",
          "name": "",
          "type": "address[]"
        }
      ],
      "stateMutability": "view",
      "type": "function"
    },
    {
      "inputs": [],
      "name": "retrieveAllProviders",
      "outputs": [
        {
          "internalType": "address[]",
          "name": "",
          "type": "address[]"
        }
      ],
      "stateMutability": "view",
      "type": "function"
    },
    {
      "inputs": [
        {
          "internalType": "bytes32",
          "name": "CertificateHash",
          "type": "bytes32"
        },
        {
          "internalType": "address",
          "name": "holder",
          "type": "address"
        }
      ],
      "name": "retrieveCertificateProvider",
      "outputs": [
        {
          "internalType": "address",
          "name": "",
          "type": "address"
        }
      ],
      "stateMutability": "view",
      "type": "function"
    },
    {
      "inputs": [
        {
          "internalType": "address",
          "name": "holder",
          "type": "address"
        },
        {
          "internalType": "uint256",
          "name": "skipFirst",
          "type": "uint256"
        },
        {
          "internalType": "uint256",
          "name": "max",
          "type": "uint256"
        }
      ],
      "name": "retrieveCertificatesByHolder",
      "outputs": [
        {
          "internalType": "bytes32[]",
          "name": "",
          "type": "bytes32[]"
        }
      ],
      "stateMutability": "view",
      "type": "function"
    },
    {
      "inputs": [
        {
          "internalType": "address",
          "name": "owner",
          "type": "address"
        }
      ],
      "name": "retrieveOwner",
      "outputs": [
        {
          "internalType": "string",
          "name": "",
          "type": "string"
        }
      ],
      "stateMutability": "view",
      "type": "function"
    },
    {
      "inputs": [
        {
          "internalType": "address",
          "name": "provider",
          "type": "address"
        }
      ],
      "name": "retrieveProvider",
      "outputs": [
        {
          "internalType": "string",
          "name": "",
          "type": "string"
        }
      ],
      "stateMutability": "view",
      "type": "function"
    },
    {
      "inputs": [
        {
          "internalType": "address",
          "name": "holder",
          "type": "address"
        }
      ],
      "name": "retrieveTotalCertificatesByHolder",
      "outputs": [
        {
          "internalType": "uint256",
          "name": "",
          "type": "uint256"
        }
      ],
      "stateMutability": "view",
      "type": "function"
    },
    {
      "inputs": [],
      "name": "retrieveTotalOwners",
      "outputs": [
        {
          "internalType": "uint256",
          "name": "",
          "type": "uint256"
        }
      ],
      "stateMutability": "view",
      "type": "function"
    },
    {
      "inputs": [],
      "name": "retrieveTotalProviders",
      "outputs": [
        {
          "internalType": "uint256",
          "name": "",
          "type": "uint256"
        }
      ],
      "stateMutability": "view",
      "type": "function"
    },
    {
      "inputs": [
        {
          "internalType": "address",
          "name": "owner",
          "type": "address"
        },
        {
          "internalType": "string",
          "name": "ownerInfo",
          "type": "string"
        }
      ],
      "name": "updateOwner",
      "outputs": [],
      "stateMutability": "nonpayable",
      "type": "function"
    },
    {
      "inputs": [
        {
          "internalType": "address",
          "name": "provider",
          "type": "address"
        },
        {
          "internalType": "string",
          "name": "providerInfo",
          "type": "string"
        }
      ],
      "name": "updateProvider",
      "outputs": [],
      "stateMutability": "nonpayable",
      "type": "function"
    },
    {
      "inputs": [
        {
          "internalType": "address",
          "name": "provider",
          "type": "address"
        },
        {
          "internalType": "string",
          "name": "providerInfo",
          "type": "string"
        }
      ],
      "name": "addProvider",
      "outputs": [],
      "stateMutability": "nonpayable",
      "type": "function"
    },
    {
      "inputs": [
        {
          "internalType": "address",
          "name": "provider",
          "type": "address"
        }
      ],
      "name": "validateProvider",
      "outputs": [],
      "stateMutability": "nonpayable",
      "type": "function"
    },
    {
      "inputs": [
        {
          "internalType": "address",
          "name": "provider",
          "type": "address"
        }
      ],
      "name": "removeProvider",
      "outputs": [],
      "stateMutability": "nonpayable",
      "type": "function"
    }
  ],
  "bytecode": "0x608060405260405180604001604052806040518060400160405280600581526020017f4f776e657200000000000000000000000000000000000000000000000000000081525081526020016040518060400160405280600881526020017f50726f7669646572000000000000000000000000000000000000000000000000815250815250600490600262000095929190620004a7565b50604051620067aa380380620067aa8339818101604052810190620000bb919062000708565b8181818160026004805480602002602001604051908101604052809291908181526020016000905b82821015620001a5578382906000526020600020018054600181600116156101000203166002900480601f016020809104026020016040519081016040528092919081815260200182805460018160011615610100020316600290048015620001905780601f10620001645761010080835404028352916020019162000190565b820191906000526020600020905b8154815290600101906020018083116200017257829003601f168201915b505050505081526020019060010190620000e3565b5050505060008451841115620001f2576040517f08c379a0000000000000000000000000000000000000000000000000000000008152600401620001e9906200084e565b60405180910390fd5b6000841162000238576040517f08c379a00000000000000000000000000000000000000000000000000000000081526004016200022f9062000892565b60405180910390fd5b815183146200027e576040517f08c379a0000000000000000000000000000000000000000000000000000000008152600401620002759062000870565b60405180910390fd5b8060008190555060005b838110156200030f576003600181600181540180825580915050039060005260206000209050506002838281518110620002be57fe5b6020026020010151908060018154018082558091505060019003906000526020600020016000909190919091509080519060200190620003009291906200050e565b50808060010191505062000288565b508360018190555060005b8551811015620004565760016003600054815481106200033657fe5b906000526020600020906002020160000160008884815181106200035657fe5b602002602001015173ffffffffffffffffffffffffffffffffffffffff1673ffffffffffffffffffffffffffffffffffffffff16815260200190815260200160002060000160006101000a81548160ff021916908315150217905550600360005481548110620003c257fe5b9060005260206000209060020201600101868281518110620003e057fe5b60200260200101519080600181540180825580915050600190039060005260206000200160009091909190916101000a81548173ffffffffffffffffffffffffffffffffffffffff021916908373ffffffffffffffffffffffffffffffffffffffff16021790555080806001019150506200031a565b505050505050505033600660006101000a81548173ffffffffffffffffffffffffffffffffffffffff021916908373ffffffffffffffffffffffffffffffffffffffff16021790555050506200099c565b828054828255906000526020600020908101928215620004fb579160200282015b82811115620004fa578251829080519060200190620004e99291906200050e565b5091602001919060010190620004c8565b5b5090506200050a9190620005a5565b5090565b828054600181600116156101000203166002900490600052602060002090601f01602090048101928262000546576000855562000592565b82601f106200056157805160ff191683800117855562000592565b8280016001018555821562000592579182015b828111156200059157825182559160200191906001019062000574565b5b509050620005a19190620005cd565b5090565b5b80821115620005c95760008181620005bf9190620005ec565b50600101620005a6565b5090565b5b80821115620005e8576000816000905550600101620005ce565b5090565b50805460018160011615610100020316600290046000825580601f1062000614575062000635565b601f016020900490600052602060002090810190620006349190620005cd565b5b50565b60006200064f6200064984620008e8565b620008b4565b905080838252602082019050828560208602820111156200066f57600080fd5b60005b85811015620006a35781620006888882620006ad565b84526020840193506020830192505060018101905062000672565b5050509392505050565b600081519050620006be8162000968565b92915050565b600082601f830112620006d657600080fd5b8151620006e884826020860162000638565b91505092915050565b600081519050620007028162000982565b92915050565b600080604083850312156200071c57600080fd5b600083015167ffffffffffffffff8111156200073757600080fd5b6200074585828601620006c4565b92505060206200075885828601620006f1565b9150509250929050565b600062000771603c8362000917565b91507f4e6f7420656e6f756768206f776e6572732070726f766964656420746f206d6560008301527f657420746865206d696e4f776e65727320726571756972656d656e74000000006020830152604082019050919050565b6000620007d9601d8362000917565b91507f4e6f7420656e6f756768206f7220746f6f206d616e79206c6162656c730000006000830152602082019050919050565b60006200081b60188362000917565b91507f4174206c656173742031206d696e696d756d206f776e657200000000000000006000830152602082019050919050565b60006020820190508181036000830152620008698162000762565b9050919050565b600060208201905081810360008301526200088b81620007ca565b9050919050565b60006020820190508181036000830152620008ad816200080c565b9050919050565b6000604051905081810181811067ffffffffffffffff82111715620008de57620008dd62000966565b5b8060405250919050565b600067ffffffffffffffff82111562000906576200090562000966565b5b602082029050602081019050919050565b600082825260208201905092915050565b600062000935826200093c565b9050919050565b600073ffffffffffffffffffffffffffffffffffffffff82169050919050565b6000819050919050565bfe5b620009738162000928565b81146200097f57600080fd5b50565b6200098d816200095c565b81146200099957600080fd5b50565b615dfe80620009ac6000396000f3fe608060405234801561001057600080fd5b506004361061012c5760003560e01c80636e55d2d4116100ad578063a93d5ed611610071578063a93d5ed61461034f578063d0a4adfe1461036d578063d744d2f31461039d578063eefe7681146103bb578063fc000500146103d95761012c565b80636e55d2d41461029b57806377bc5a1f146102cb5780638a355a57146102fb5780639fc1043614610317578063a73db28a146103335761012c565b80633542758f116100f45780633542758f146101d157806337583499146101ed57806358a1ba251461021d5780636b074a071461024d5780636e4f91791461027d5761012c565b80631660c22a14610131578063173825d91461014d5780631ab807f81461016957806327a40b4b146101855780632f54bf6e146101a1575b600080fd5b61014b60048036038101906101469190615224565b6103f5565b005b610167600480360381019061016291906151fb565b610405565b005b610183600480360381019061017e91906152f0565b610414565b005b61019f600480360381019061019a91906151fb565b6106ca565b005b6101bb60048036038101906101b691906151fb565b61090e565b6040516101c8919061593a565b60405180910390f35b6101eb60048036038101906101e69190615224565b610923565b005b610207600480360381019061020291906151fb565b610934565b6040516102149190615955565b60405180910390f35b61023760048036038101906102329190615278565b610948565b6040516102449190615918565b60405180910390f35b610267600480360381019061026291906151fb565b610bbf565b604051610274919061593a565b60405180910390f35b610285610bd3565b60405161029291906158f6565b60405180910390f35b6102b560048036038101906102b091906151fb565b610be4565b6040516102c29190615b47565b60405180910390f35b6102e560048036038101906102e091906151fb565b610c33565b6040516102f29190615955565b60405180910390f35b610315600480360381019061031091906151fb565b610c48565b005b610331600480360381019061032c9190615224565b610f92565b005b61034d600480360381019061034891906152f0565b610fa3565b005b6103576113f9565b60405161036491906158f6565b60405180910390f35b610387600480360381019061038291906152f0565b61140b565b6040516103949190615889565b60405180910390f35b6103a5611489565b6040516103b29190615b47565b60405180910390f35b6103c361149a565b6040516103d09190615b47565b60405180910390f35b6103f360048036038101906103ee9190615224565b6114ac565b005b6104018282600161174c565b5050565b61041181600054611947565b50565b61041d33610bbf565b15156001151514610463576040517f08c379a000000000000000000000000000000000000000000000000000000000815260040161045a90615a67565b60405180910390fd5b81602060ff166000106104ab576040517f08c379a00000000000000000000000000000000000000000000000000000000081526004016104a290615a87565b60405180910390fd5b8183600560008373ffffffffffffffffffffffffffffffffffffffff1673ffffffffffffffffffffffffffffffffffffffff168152602001908152602001600020600001600082815260200190815260200160002060009054906101000a900473ffffffffffffffffffffffffffffffffffffffff1673ffffffffffffffffffffffffffffffffffffffff16600073ffffffffffffffffffffffffffffffffffffffff161461058f576040517f08c379a000000000000000000000000000000000000000000000000000000000815260040161058690615a47565b60405180910390fd5b33600560008673ffffffffffffffffffffffffffffffffffffffff1673ffffffffffffffffffffffffffffffffffffffff168152602001908152602001600020600001600087815260200190815260200160002060006101000a81548173ffffffffffffffffffffffffffffffffffffffff021916908373ffffffffffffffffffffffffffffffffffffffff160217905550600560008573ffffffffffffffffffffffffffffffffffffffff1673ffffffffffffffffffffffffffffffffffffffff1681526020019081526020016000206001018590806001815401808255809150506001900390600052602060002001600090919091909150557f601cb9a073dbfa468ef12878ee6c720641a49b76af7c16099e8c0a1ac3ca79b533856040516106bb9291906158a4565b60405180910390a15050505050565b60018181151560001515141561077257600760008273ffffffffffffffffffffffffffffffffffffffff1673ffffffffffffffffffffffffffffffffffffffff16815260200190815260200160002060009054906101000a900460ff161515600015151461076d576040517f08c379a000000000000000000000000000000000000000000000000000000000815260040161076490615a27565b60405180910390fd5b610806565b600760008273ffffffffffffffffffffffffffffffffffffffff1673ffffffffffffffffffffffffffffffffffffffff16815260200190815260200160002060009054906101000a900460ff1615156001151514610805576040517f08c379a00000000000000000000000000000000000000000000000000000000081526004016107fc906159c7565b60405180910390fd5b5b61090983600360018154811061081857fe5b906000526020600020906002020160000160008673ffffffffffffffffffffffffffffffffffffffff1673ffffffffffffffffffffffffffffffffffffffff1681526020019081526020016000206001018054600181600116156101000203166002900480601f0160208091040260200160405190810160405280929190818152602001828054600181600116156101000203166002900480156108fd5780601f106108d2576101008083540402835291602001916108fd565b820191906000526020600020905b8154815290600101906020018083116108e057829003601f168201915b50505050506001611e0c565b505050565b600061091c8260005461229b565b9050919050565b6109308282600054611e0c565b5050565b606061094182600161265c565b9050919050565b606082600560008673ffffffffffffffffffffffffffffffffffffffff1673ffffffffffffffffffffffffffffffffffffffff1681526020019081526020016000206001018054905073__Library_______________________________632477a0ea83836040518363ffffffff1660e01b81526004016109ca929190615b62565b60206040518083038186803b1580156109e257600080fd5b505af41580156109f6573d6000803e3d6000fd5b505050506040513d601f19601f82011682018060405250810190610a1a91906152c7565b15156001151514610a60576040517f08c379a0000000000000000000000000000000000000000000000000000000008152600401610a5790615ac7565b60405180910390fd5b60008467ffffffffffffffff81118015610a7957600080fd5b50604051908082528060200260200182016040528015610aa85781602001602082028036833780820191505090505b5090506000600560008973ffffffffffffffffffffffffffffffffffffffff1673ffffffffffffffffffffffffffffffffffffffff168152602001908152602001600020600101805480602002602001604051908101604052809291908181526020018280548015610b3957602002820191906000526020600020905b815481526020019060010190808311610b25575b5050505050905060008060005b8351811015610bae57888310610b5b57610bae565b818a1115610b6e57600182019150610ba1565b838181518110610b7a57fe5b6020026020010151858481518110610b8e57fe5b6020026020010181815250506001830192505b8080600101915050610b46565b508396505050505050509392505050565b6000610bcc82600161229b565b9050919050565b6060610bdf6001612762565b905090565b6000600560008373ffffffffffffffffffffffffffffffffffffffff1673ffffffffffffffffffffffffffffffffffffffff168152602001908152602001600020600101805490509050919050565b6060610c418260005461265c565b9050919050565b610c53816001611947565b610f336003600181548110610c6457fe5b906000526020600020906002020160000160008373ffffffffffffffffffffffffffffffffffffffff1673ffffffffffffffffffffffffffffffffffffffff1681526020019081526020016000206040518060c00160405290816000820160009054906101000a900460ff16151515158152602001600182018054600181600116156101000203166002900480601f016020809104026020016040519081016040528092919081815260200182805460018160011615610100020316600290048015610d715780601f10610d4657610100808354040283529160200191610d71565b820191906000526020600020905b815481529060010190602001808311610d5457829003601f168201915b505050505081526020016002820154815260200160038201805480602002602001604051908101604052809291908181526020018280548015610e0957602002820191906000526020600020905b8160009054906101000a900473ffffffffffffffffffffffffffffffffffffffff1673ffffffffffffffffffffffffffffffffffffffff1681526020019060010190808311610dbf575b5050505050815260200160048201805480602002602001604051908101604052809291908181526020018280548015610e9757602002820191906000526020600020905b8160009054906101000a900473ffffffffffffffffffffffffffffffffffffffff1673ffffffffffffffffffffffffffffffffffffffff1681526020019060010190808311610e4d575b5050505050815260200160058201805480602002602001604051908101604052809291908181526020018280548015610f2557602002820191906000526020600020905b8160009054906101000a900473ffffffffffffffffffffffffffffffffffffffff1673ffffffffffffffffffffffffffffffffffffffff1681526020019060010190808311610edb575b505050505081525050612866565b1515600015151415610f8f57600760008273ffffffffffffffffffffffffffffffffffffffff1673ffffffffffffffffffffffffffffffffffffffff16815260200190815260200160002060006101000a81549060ff02191690555b50565b610f9f828260005461174c565b5050565b610fac33610bbf565b15156001151514610ff2576040517f08c379a0000000000000000000000000000000000000000000000000000000008152600401610fe990615a67565b60405180910390fd5b8082600560008373ffffffffffffffffffffffffffffffffffffffff1673ffffffffffffffffffffffffffffffffffffffff168152602001908152602001600020600001600082815260200190815260200160002060009054906101000a900473ffffffffffffffffffffffffffffffffffffffff1673ffffffffffffffffffffffffffffffffffffffff163373ffffffffffffffffffffffffffffffffffffffff1614806110cc57508173ffffffffffffffffffffffffffffffffffffffff163373ffffffffffffffffffffffffffffffffffffffff16145b61110b576040517f08c379a000000000000000000000000000000000000000000000000000000000815260040161110290615a07565b60405180910390fd5b6000600560008573ffffffffffffffffffffffffffffffffffffffff1673ffffffffffffffffffffffffffffffffffffffff168152602001908152602001600020600001600086815260200190815260200160002060009054906101000a900473ffffffffffffffffffffffffffffffffffffffff1690506000600560008673ffffffffffffffffffffffffffffffffffffffff1673ffffffffffffffffffffffffffffffffffffffff16815260200190815260200160002060010180548060200260200160405190810160405280929190818152602001828054801561121157602002820191906000526020600020905b8154815260200190600101908083116111fd575b5050505050905060005b81518110156113415781818151811061123057fe5b6020026020010151871415611334576112d981600560008973ffffffffffffffffffffffffffffffffffffffff1673ffffffffffffffffffffffffffffffffffffffff1681526020019081526020016000206001018054806020026020016040519081016040528092919081815260200182805480156112cf57602002820191906000526020600020905b8154815260200190600101908083116112bb575b5050505050612874565b600560008873ffffffffffffffffffffffffffffffffffffffff1673ffffffffffffffffffffffffffffffffffffffff168152602001908152602001600020600101908051906020019061132e929190614f37565b50611341565b808060010191505061121b565b50600560008673ffffffffffffffffffffffffffffffffffffffff1673ffffffffffffffffffffffffffffffffffffffff168152602001908152602001600020600001600087815260200190815260200160002060006101000a81549073ffffffffffffffffffffffffffffffffffffffff02191690557fd12847594abf0621035046f61129f2a9dc5093eb516c6c517ece306362ef6f1782866040516113e99291906158cd565b60405180910390a1505050505050565b6060611406600054612762565b905090565b6000600560008373ffffffffffffffffffffffffffffffffffffffff1673ffffffffffffffffffffffffffffffffffffffff168152602001908152602001600020600001600084815260200190815260200160002060009054906101000a900473ffffffffffffffffffffffffffffffffffffffff16905092915050565b60006114956001612942565b905090565b60006114a7600054612942565b905090565b600660009054906101000a900473ffffffffffffffffffffffffffffffffffffffff168073ffffffffffffffffffffffffffffffffffffffff163373ffffffffffffffffffffffffffffffffffffffff161461153d576040517f08c379a000000000000000000000000000000000000000000000000000000000815260040161153490615ae7565b60405180910390fd5b6000838115156000151514156115e557600760008273ffffffffffffffffffffffffffffffffffffffff1673ffffffffffffffffffffffffffffffffffffffff16815260200190815260200160002060009054906101000a900460ff16151560001515146115e0576040517f08c379a00000000000000000000000000000000000000000000000000000000081526004016115d790615a27565b60405180910390fd5b611679565b600760008273ffffffffffffffffffffffffffffffffffffffff1673ffffffffffffffffffffffffffffffffffffffff16815260200190815260200160002060009054906101000a900460ff1615156001151514611678576040517f08c379a000000000000000000000000000000000000000000000000000000000815260040161166f906159c7565b60405180910390fd5b5b83600360018154811061168857fe5b906000526020600020906002020160000160008773ffffffffffffffffffffffffffffffffffffffff1673ffffffffffffffffffffffffffffffffffffffff16815260200190815260200160002060010190805190602001906116ec929190614f84565b506001600760008773ffffffffffffffffffffffffffffffffffffffff1673ffffffffffffffffffffffffffffffffffffffff16815260200190815260200160002060006101000a81548160ff0219169083151502179055505050505050565b8060038054905073__Library_______________________________632477a0ea83836040518363ffffffff1660e01b815260040161178c929190615b62565b60206040518083038186803b1580156117a457600080fd5b505af41580156117b8573d6000803e3d6000fd5b505050506040513d601f19601f820116820180604052508101906117dc91906152c7565b15156001151514611822576040517f08c379a000000000000000000000000000000000000000000000000000000000815260040161181990615ac7565b60405180910390fd5b61182b3361090e565b15156001151514611871576040517f08c379a000000000000000000000000000000000000000000000000000000000815260040161186890615aa7565b60405180910390fd5b6000611897866003868154811061188457fe5b9060005260206000209060020201612a46565b90506118c18686600387815481106118ab57fe5b9060005260206000209060020201600154612d60565b600181016118e987600387815481106118d657fe5b9060005260206000209060020201612a46565b141561193f577fddf8a9c2d29b02b191b0a29b7a0f698bfd4655230a23853e2af123ab0b1188d76002858154811061191d57fe5b9060005260206000200187604051611936929190615977565b60405180910390a15b505050505050565b8060038054905073__Library_______________________________632477a0ea83836040518363ffffffff1660e01b8152600401611987929190615b62565b60206040518083038186803b15801561199f57600080fd5b505af41580156119b3573d6000803e3d6000fd5b505050506040513d601f19601f820116820180604052508101906119d791906152c7565b15156001151514611a1d576040517f08c379a0000000000000000000000000000000000000000000000000000000008152600401611a1490615ac7565b60405180910390fd5b83611a273361090e565b1515600115151480611a6457508073ffffffffffffffffffffffffffffffffffffffff163373ffffffffffffffffffffffffffffffffffffffff16145b611aa3576040517f08c379a0000000000000000000000000000000000000000000000000000000008152600401611a9a90615b07565b60405180910390fd5b611aca8560038681548110611ab457fe5b90600052602060002090600202016001546134f4565b611da960038581548110611ada57fe5b906000526020600020906002020160000160008773ffffffffffffffffffffffffffffffffffffffff1673ffffffffffffffffffffffffffffffffffffffff1681526020019081526020016000206040518060c00160405290816000820160009054906101000a900460ff16151515158152602001600182018054600181600116156101000203166002900480601f016020809104026020016040519081016040528092919081815260200182805460018160011615610100020316600290048015611be75780601f10611bbc57610100808354040283529160200191611be7565b820191906000526020600020905b815481529060010190602001808311611bca57829003601f168201915b505050505081526020016002820154815260200160038201805480602002602001604051908101604052809291908181526020018280548015611c7f57602002820191906000526020600020905b8160009054906101000a900473ffffffffffffffffffffffffffffffffffffffff1673ffffffffffffffffffffffffffffffffffffffff1681526020019060010190808311611c35575b5050505050815260200160048201805480602002602001604051908101604052809291908181526020018280548015611d0d57602002820191906000526020600020905b8160009054906101000a900473ffffffffffffffffffffffffffffffffffffffff1673ffffffffffffffffffffffffffffffffffffffff1681526020019060010190808311611cc3575b5050505050815260200160058201805480602002602001604051908101604052809291908181526020018280548015611d9b57602002820191906000526020600020905b8160009054906101000a900473ffffffffffffffffffffffffffffffffffffffff1673ffffffffffffffffffffffffffffffffffffffff1681526020019060010190808311611d51575b505050505081525050612866565b1515600015151415611e05577f1f62d535f971041db7bd8760bf0f1f9f476461558744a35c0d477b5ad6893e8960028581548110611de357fe5b9060005260206000200186604051611dfc929190615977565b60405180910390a15b5050505050565b8060038054905073__Library_______________________________632477a0ea83836040518363ffffffff1660e01b8152600401611e4c929190615b62565b60206040518083038186803b158015611e6457600080fd5b505af4158015611e78573d6000803e3d6000fd5b505050506040513d601f19601f82011682018060405250810190611e9c91906152c7565b15156001151514611ee2576040517f08c379a0000000000000000000000000000000000000000000000000000000008152600401611ed990615ac7565b60405180910390fd5b611eeb3361090e565b15156001151514611f31576040517f08c379a0000000000000000000000000000000000000000000000000000000008152600401611f2890615aa7565b60405180910390fd5b611f59858560038681548110611f4357fe5b9060005260206000209060020201600154613dac565b61223860038481548110611f6957fe5b906000526020600020906002020160000160008773ffffffffffffffffffffffffffffffffffffffff1673ffffffffffffffffffffffffffffffffffffffff1681526020019081526020016000206040518060c00160405290816000820160009054906101000a900460ff16151515158152602001600182018054600181600116156101000203166002900480601f0160208091040260200160405190810160405280929190818152602001828054600181600116156101000203166002900480156120765780601f1061204b57610100808354040283529160200191612076565b820191906000526020600020905b81548152906001019060200180831161205957829003601f168201915b50505050508152602001600282015481526020016003820180548060200260200160405190810160405280929190818152602001828054801561210e57602002820191906000526020600020905b8160009054906101000a900473ffffffffffffffffffffffffffffffffffffffff1673ffffffffffffffffffffffffffffffffffffffff16815260200190600101908083116120c4575b505050505081526020016004820180548060200260200160405190810160405280929190818152602001828054801561219c57602002820191906000526020600020905b8160009054906101000a900473ffffffffffffffffffffffffffffffffffffffff1673ffffffffffffffffffffffffffffffffffffffff1681526020019060010190808311612152575b505050505081526020016005820180548060200260200160405190810160405280929190818152602001828054801561222a57602002820191906000526020600020905b8160009054906101000a900473ffffffffffffffffffffffffffffffffffffffff1673ffffffffffffffffffffffffffffffffffffffff16815260200190600101908083116121e0575b505050505081525050612866565b1515600115151415612294577f3c139d46a211844e248647688545a37c07c505c999c1232d1247c707dc0a91e26002848154811061227257fe5b906000526020600020018660405161228b929190615977565b60405180910390a15b5050505050565b60008160038054905073__Library_______________________________632477a0ea83836040518363ffffffff1660e01b81526004016122dd929190615b62565b60206040518083038186803b1580156122f557600080fd5b505af4158015612309573d6000803e3d6000fd5b505050506040513d601f19601f8201168201806040525081019061232d91906152c7565b15156001151514612373576040517f08c379a000000000000000000000000000000000000000000000000000000000815260040161236a90615ac7565b60405180910390fd5b6126526003858154811061238357fe5b906000526020600020906002020160000160008773ffffffffffffffffffffffffffffffffffffffff1673ffffffffffffffffffffffffffffffffffffffff1681526020019081526020016000206040518060c00160405290816000820160009054906101000a900460ff16151515158152602001600182018054600181600116156101000203166002900480601f0160208091040260200160405190810160405280929190818152602001828054600181600116156101000203166002900480156124905780601f1061246557610100808354040283529160200191612490565b820191906000526020600020905b81548152906001019060200180831161247357829003601f168201915b50505050508152602001600282015481526020016003820180548060200260200160405190810160405280929190818152602001828054801561252857602002820191906000526020600020905b8160009054906101000a900473ffffffffffffffffffffffffffffffffffffffff1673ffffffffffffffffffffffffffffffffffffffff16815260200190600101908083116124de575b50505050508152602001600482018054806020026020016040519081016040528092919081815260200182805480156125b657602002820191906000526020600020905b8160009054906101000a900473ffffffffffffffffffffffffffffffffffffffff1673ffffffffffffffffffffffffffffffffffffffff168152602001906001019080831161256c575b505050505081526020016005820180548060200260200160405190810160405280929190818152602001828054801561264457602002820191906000526020600020905b8160009054906101000a900473ffffffffffffffffffffffffffffffffffffffff1673ffffffffffffffffffffffffffffffffffffffff16815260200190600101908083116125fa575b505050505081525050612866565b9250505092915050565b60608160038054905073__Library_______________________________632477a0ea83836040518363ffffffff1660e01b815260040161269e929190615b62565b60206040518083038186803b1580156126b657600080fd5b505af41580156126ca573d6000803e3d6000fd5b505050506040513d601f19601f820116820180604052508101906126ee91906152c7565b15156001151514612734576040517f08c379a000000000000000000000000000000000000000000000000000000000815260040161272b90615ac7565b60405180910390fd5b612758856003868154811061274557fe5b9060005260206000209060020201614614565b9250505092915050565b60608160038054905073__Library_______________________________632477a0ea83836040518363ffffffff1660e01b81526004016127a4929190615b62565b60206040518083038186803b1580156127bc57600080fd5b505af41580156127d0573d6000803e3d6000fd5b505050506040513d601f19601f820116820180604052508101906127f491906152c7565b1515600115151461283a576040517f08c379a000000000000000000000000000000000000000000000000000000000815260040161283190615ac7565b60405180910390fd5b61285d6003858154811061284a57fe5b90600052602060002090600202016149c6565b92505050919050565b600081600001519050919050565b60608282516128838282614a58565b151560011515146128c9576040517f08c379a00000000000000000000000000000000000000000000000000000000081526004016128c090615ac7565b60405180910390fd5b60008590505b6001855103811015612917578460018201815181106128ea57fe5b60200260200101518582815181106128fe57fe5b60200260200101818152505080806001019150506128cf565b508360018551038151811061292857fe5b602002602001016000801916815250839250505092915050565b60008160038054905073__Library_______________________________632477a0ea83836040518363ffffffff1660e01b8152600401612984929190615b62565b60206040518083038186803b15801561299c57600080fd5b505af41580156129b0573d6000803e3d6000fd5b505050506040513d601f19601f820116820180604052508101906129d491906152c7565b15156001151514612a1a576040517f08c379a0000000000000000000000000000000000000000000000000000000008152600401612a1190615ac7565b60405180910390fd5b612a3d60038581548110612a2a57fe5b9060005260206000209060020201614a65565b92505050919050565b600060018260000160008573ffffffffffffffffffffffffffffffffffffffff1673ffffffffffffffffffffffffffffffffffffffff1681526020019081526020016000206040518060c00160405290816000820160009054906101000a900460ff16151515158152602001600182018054600181600116156101000203166002900480601f016020809104026020016040519081016040528092919081815260200182805460018160011615610100020316600290048015612b4a5780601f10612b1f57610100808354040283529160200191612b4a565b820191906000526020600020905b815481529060010190602001808311612b2d57829003601f168201915b505050505081526020016002820154815260200160038201805480602002602001604051908101604052809291908181526020018280548015612be257602002820191906000526020600020905b8160009054906101000a900473ffffffffffffffffffffffffffffffffffffffff1673ffffffffffffffffffffffffffffffffffffffff1681526020019060010190808311612b98575b5050505050815260200160048201805480602002602001604051908101604052809291908181526020018280548015612c7057602002820191906000526020600020905b8160009054906101000a900473ffffffffffffffffffffffffffffffffffffffff1673ffffffffffffffffffffffffffffffffffffffff1681526020019060010190808311612c26575b5050505050815260200160058201805480602002602001604051908101604052809291908181526020018280548015612cfe57602002820191906000526020600020905b8160009054906101000a900473ffffffffffffffffffffffffffffffffffffffff1673ffffffffffffffffffffffffffffffffffffffff1681526020019060010190808311612cb4575b505050505081525050612d118282614a76565b8360000160008673ffffffffffffffffffffffffffffffffffffffff1673ffffffffffffffffffffffffffffffffffffffff168152602001908152602001600020600201549250505092915050565b60018260000160008673ffffffffffffffffffffffffffffffffffffffff1673ffffffffffffffffffffffffffffffffffffffff1681526020019081526020016000206040518060c00160405290816000820160009054906101000a900460ff16151515158152602001600182018054600181600116156101000203166002900480601f016020809104026020016040519081016040528092919081815260200182805460018160011615610100020316600290048015612e625780601f10612e3757610100808354040283529160200191612e62565b820191906000526020600020905b815481529060010190602001808311612e4557829003601f168201915b505050505081526020016002820154815260200160038201805480602002602001604051908101604052809291908181526020018280548015612efa57602002820191906000526020600020905b8160009054906101000a900473ffffffffffffffffffffffffffffffffffffffff1673ffffffffffffffffffffffffffffffffffffffff1681526020019060010190808311612eb0575b5050505050815260200160048201805480602002602001604051908101604052809291908181526020018280548015612f8857602002820191906000526020600020905b8160009054906101000a900473ffffffffffffffffffffffffffffffffffffffff1673ffffffffffffffffffffffffffffffffffffffff1681526020019060010190808311612f3e575b505050505081526020016005820180548060200260200160405190810160405280929190818152602001828054801561301657602002820191906000526020600020905b8160009054906101000a900473ffffffffffffffffffffffffffffffffffffffff1673ffffffffffffffffffffffffffffffffffffffff1681526020019060010190808311612fcc575b5050505050815250506130298282614a76565b60018460000160008873ffffffffffffffffffffffffffffffffffffffff1673ffffffffffffffffffffffffffffffffffffffff1681526020019081526020016000206040518060c00160405290816000820160009054906101000a900460ff16151515158152602001600182018054600181600116156101000203166002900480601f01602080910402602001604051908101604052809291908181526020018280546001816001161561010002031660029004801561312b5780601f106131005761010080835404028352916020019161312b565b820191906000526020600020905b81548152906001019060200180831161310e57829003601f168201915b5050505050815260200160028201548152602001600382018054806020026020016040519081016040528092919081815260200182805480156131c357602002820191906000526020600020905b8160009054906101000a900473ffffffffffffffffffffffffffffffffffffffff1673ffffffffffffffffffffffffffffffffffffffff1681526020019060010190808311613179575b505050505081526020016004820180548060200260200160405190810160405280929190818152602001828054801561325157602002820191906000526020600020905b8160009054906101000a900473ffffffffffffffffffffffffffffffffffffffff1673ffffffffffffffffffffffffffffffffffffffff1681526020019060010190808311613207575b50505050508152602001600582018054806020026020016040519081016040528092919081815260200182805480156132df57602002820191906000526020600020905b8160009054906101000a900473ffffffffffffffffffffffffffffffffffffffff1673ffffffffffffffffffffffffffffffffffffffff1681526020019060010190808311613295575b5050505050815250506132f28282614b2b565b8560000160008973ffffffffffffffffffffffffffffffffffffffff1673ffffffffffffffffffffffffffffffffffffffff168152602001908152602001600020600501339080600181540180825580915050600190039060005260206000200160009091909190916101000a81548173ffffffffffffffffffffffffffffffffffffffff021916908373ffffffffffffffffffffffffffffffffffffffff1602179055506133e88660000160008a73ffffffffffffffffffffffffffffffffffffffff1673ffffffffffffffffffffffffffffffffffffffff1681526020019081526020016000206005018054905086614c75565b156134ea57868660000160008a73ffffffffffffffffffffffffffffffffffffffff1673ffffffffffffffffffffffffffffffffffffffff1681526020019081526020016000206001019080519060200190613445929190614f84565b5060018660000160008a73ffffffffffffffffffffffffffffffffffffffff1673ffffffffffffffffffffffffffffffffffffffff168152602001908152602001600020600201600082825401925050819055508560000160008973ffffffffffffffffffffffffffffffffffffffff1673ffffffffffffffffffffffffffffffffffffffff16815260200190815260200160002060050160006134e99190615012565b5b5050505050505050565b60018260000160008573ffffffffffffffffffffffffffffffffffffffff1673ffffffffffffffffffffffffffffffffffffffff1681526020019081526020016000206040518060c00160405290816000820160009054906101000a900460ff16151515158152602001600182018054600181600116156101000203166002900480601f0160208091040260200160405190810160405280929190818152602001828054600181600116156101000203166002900480156135f65780601f106135cb576101008083540402835291602001916135f6565b820191906000526020600020905b8154815290600101906020018083116135d957829003601f168201915b50505050508152602001600282015481526020016003820180548060200260200160405190810160405280929190818152602001828054801561368e57602002820191906000526020600020905b8160009054906101000a900473ffffffffffffffffffffffffffffffffffffffff1673ffffffffffffffffffffffffffffffffffffffff1681526020019060010190808311613644575b505050505081526020016004820180548060200260200160405190810160405280929190818152602001828054801561371c57602002820191906000526020600020905b8160009054906101000a900473ffffffffffffffffffffffffffffffffffffffff1673ffffffffffffffffffffffffffffffffffffffff16815260200190600101908083116136d2575b50505050508152602001600582018054806020026020016040519081016040528092919081815260200182805480156137aa57602002820191906000526020600020905b8160009054906101000a900473ffffffffffffffffffffffffffffffffffffffff1673ffffffffffffffffffffffffffffffffffffffff1681526020019060010190808311613760575b5050505050815250506137bd8282614a76565b60028460000160008773ffffffffffffffffffffffffffffffffffffffff1673ffffffffffffffffffffffffffffffffffffffff1681526020019081526020016000206040518060c00160405290816000820160009054906101000a900460ff16151515158152602001600182018054600181600116156101000203166002900480601f0160208091040260200160405190810160405280929190818152602001828054600181600116156101000203166002900480156138bf5780601f10613894576101008083540402835291602001916138bf565b820191906000526020600020905b8154815290600101906020018083116138a257829003601f168201915b50505050508152602001600282015481526020016003820180548060200260200160405190810160405280929190818152602001828054801561395757602002820191906000526020600020905b8160009054906101000a900473ffffffffffffffffffffffffffffffffffffffff1673ffffffffffffffffffffffffffffffffffffffff168152602001906001019080831161390d575b50505050508152602001600482018054806020026020016040519081016040528092919081815260200182805480156139e557602002820191906000526020600020905b8160009054906101000a900473ffffffffffffffffffffffffffffffffffffffff1673ffffffffffffffffffffffffffffffffffffffff168152602001906001019080831161399b575b5050505050815260200160058201805480602002602001604051908101604052809291908181526020018280548015613a7357602002820191906000526020600020905b8160009054906101000a900473ffffffffffffffffffffffffffffffffffffffff1673ffffffffffffffffffffffffffffffffffffffff1681526020019060010190808311613a29575b505050505081525050613a868282614b2b565b8560000160008873ffffffffffffffffffffffffffffffffffffffff1673ffffffffffffffffffffffffffffffffffffffff168152602001908152602001600020600401339080600181540180825580915050600190039060005260206000200160009091909190916101000a81548173ffffffffffffffffffffffffffffffffffffffff021916908373ffffffffffffffffffffffffffffffffffffffff1602179055508673ffffffffffffffffffffffffffffffffffffffff163373ffffffffffffffffffffffffffffffffffffffff161480613bb25750613bb18660000160008973ffffffffffffffffffffffffffffffffffffffff1673ffffffffffffffffffffffffffffffffffffffff1681526020019081526020016000206004018054905086614c75565b5b15613da357613cea613ce5613c4f8989600101805480602002602001604051908101604052809291908181526020018280548015613c4557602002820191906000526020600020905b8160009054906101000a900473ffffffffffffffffffffffffffffffffffffffff1673ffffffffffffffffffffffffffffffffffffffff1681526020019060010190808311613bfb575b5050505050614c93565b613ce089600101805480602002602001604051908101604052809291908181526020018280548015613cd657602002820191906000526020600020905b8160009054906101000a900473ffffffffffffffffffffffffffffffffffffffff1673ffffffffffffffffffffffffffffffffffffffff1681526020019060010190808311613c8c575b5050505050614d10565b612874565b614db5565b866001019080519060200190613d01929190615033565b508560000160008873ffffffffffffffffffffffffffffffffffffffff1673ffffffffffffffffffffffffffffffffffffffff168152602001908152602001600020600080820160006101000a81549060ff0219169055600182016000613d6891906150bd565b6002820160009055600382016000613d809190615012565b600482016000613d909190615012565b600582016000613da09190615012565b50505b50505050505050565b60008260000160008673ffffffffffffffffffffffffffffffffffffffff1673ffffffffffffffffffffffffffffffffffffffff1681526020019081526020016000206040518060c00160405290816000820160009054906101000a900460ff16151515158152602001600182018054600181600116156101000203166002900480601f016020809104026020016040519081016040528092919081815260200182805460018160011615610100020316600290048015613eae5780601f10613e8357610100808354040283529160200191613eae565b820191906000526020600020905b815481529060010190602001808311613e9157829003601f168201915b505050505081526020016002820154815260200160038201805480602002602001604051908101604052809291908181526020018280548015613f4657602002820191906000526020600020905b8160009054906101000a900473ffffffffffffffffffffffffffffffffffffffff1673ffffffffffffffffffffffffffffffffffffffff1681526020019060010190808311613efc575b5050505050815260200160048201805480602002602001604051908101604052809291908181526020018280548015613fd457602002820191906000526020600020905b8160009054906101000a900473ffffffffffffffffffffffffffffffffffffffff1673ffffffffffffffffffffffffffffffffffffffff1681526020019060010190808311613f8a575b505050505081526020016005820180548060200260200160405190810160405280929190818152602001828054801561406257602002820191906000526020600020905b8160009054906101000a900473ffffffffffffffffffffffffffffffffffffffff1673ffffffffffffffffffffffffffffffffffffffff1681526020019060010190808311614018575b5050505050815250506140758282614a76565b60008460000160008873ffffffffffffffffffffffffffffffffffffffff1673ffffffffffffffffffffffffffffffffffffffff1681526020019081526020016000206040518060c00160405290816000820160009054906101000a900460ff16151515158152602001600182018054600181600116156101000203166002900480601f0160208091040260200160405190810160405280929190818152602001828054600181600116156101000203166002900480156141775780601f1061414c57610100808354040283529160200191614177565b820191906000526020600020905b81548152906001019060200180831161415a57829003601f168201915b50505050508152602001600282015481526020016003820180548060200260200160405190810160405280929190818152602001828054801561420f57602002820191906000526020600020905b8160009054906101000a900473ffffffffffffffffffffffffffffffffffffffff1673ffffffffffffffffffffffffffffffffffffffff16815260200190600101908083116141c5575b505050505081526020016004820180548060200260200160405190810160405280929190818152602001828054801561429d57602002820191906000526020600020905b8160009054906101000a900473ffffffffffffffffffffffffffffffffffffffff1673ffffffffffffffffffffffffffffffffffffffff1681526020019060010190808311614253575b505050505081526020016005820180548060200260200160405190810160405280929190818152602001828054801561432b57602002820191906000526020600020905b8160009054906101000a900473ffffffffffffffffffffffffffffffffffffffff1673ffffffffffffffffffffffffffffffffffffffff16815260200190600101908083116142e1575b50505050508152505061433e8282614b2b565b8560000160008973ffffffffffffffffffffffffffffffffffffffff1673ffffffffffffffffffffffffffffffffffffffff1681526020019081526020016000206003018054905060001480156143ed57508560000160008973ffffffffffffffffffffffffffffffffffffffff1673ffffffffffffffffffffffffffffffffffffffff1681526020019081526020016000206001018054600181600116156101000203166002900490506000145b1561444c57868660000160008a73ffffffffffffffffffffffffffffffffffffffff1673ffffffffffffffffffffffffffffffffffffffff168152602001908152602001600020600101908051906020019061444a929190614f84565b505b8560000160008973ffffffffffffffffffffffffffffffffffffffff1673ffffffffffffffffffffffffffffffffffffffff168152602001908152602001600020600301339080600181540180825580915050600190039060005260206000200160009091909190916101000a81548173ffffffffffffffffffffffffffffffffffffffff021916908373ffffffffffffffffffffffffffffffffffffffff1602179055506145428660000160008a73ffffffffffffffffffffffffffffffffffffffff1673ffffffffffffffffffffffffffffffffffffffff1681526020019081526020016000206003018054905086614c75565b1561460a5760018660000160008a73ffffffffffffffffffffffffffffffffffffffff1673ffffffffffffffffffffffffffffffffffffffff16815260200190815260200160002060000160006101000a81548160ff02191690831515021790555085600101889080600181540180825580915050600190039060005260206000200160009091909190916101000a81548173ffffffffffffffffffffffffffffffffffffffff021916908373ffffffffffffffffffffffffffffffffffffffff1602179055505b5050505050505050565b606060018260000160008573ffffffffffffffffffffffffffffffffffffffff1673ffffffffffffffffffffffffffffffffffffffff1681526020019081526020016000206040518060c00160405290816000820160009054906101000a900460ff16151515158152602001600182018054600181600116156101000203166002900480601f0160208091040260200160405190810160405280929190818152602001828054600181600116156101000203166002900480156147185780601f106146ed57610100808354040283529160200191614718565b820191906000526020600020905b8154815290600101906020018083116146fb57829003601f168201915b5050505050815260200160028201548152602001600382018054806020026020016040519081016040528092919081815260200182805480156147b057602002820191906000526020600020905b8160009054906101000a900473ffffffffffffffffffffffffffffffffffffffff1673ffffffffffffffffffffffffffffffffffffffff1681526020019060010190808311614766575b505050505081526020016004820180548060200260200160405190810160405280929190818152602001828054801561483e57602002820191906000526020600020905b8160009054906101000a900473ffffffffffffffffffffffffffffffffffffffff1673ffffffffffffffffffffffffffffffffffffffff16815260200190600101908083116147f4575b50505050508152602001600582018054806020026020016040519081016040528092919081815260200182805480156148cc57602002820191906000526020600020905b8160009054906101000a900473ffffffffffffffffffffffffffffffffffffffff1673ffffffffffffffffffffffffffffffffffffffff1681526020019060010190808311614882575b5050505050815250506148df8282614a76565b8360000160008673ffffffffffffffffffffffffffffffffffffffff1673ffffffffffffffffffffffffffffffffffffffff1681526020019081526020016000206001018054600181600116156101000203166002900480601f0160208091040260200160405190810160405280929190818152602001828054600181600116156101000203166002900480156149b75780601f1061498c576101008083540402835291602001916149b7565b820191906000526020600020905b81548152906001019060200180831161499a57829003601f168201915b50505050509250505092915050565b606081600101805480602002602001604051908101604052809291908181526020018280548015614a4c57602002820191906000526020600020905b8160009054906101000a900473ffffffffffffffffffffffffffffffffffffffff1673ffffffffffffffffffffffffffffffffffffffff1681526020019060010190808311614a02575b50505050509050919050565b6000828211905092915050565b600081600101805490509050919050565b811515600015151415614ad757614a8c81612866565b15156000151514614ad2576040517f08c379a0000000000000000000000000000000000000000000000000000000008152600401614ac990615b27565b60405180910390fd5b614b27565b614ae081612866565b15156001151514614b26576040517f08c379a0000000000000000000000000000000000000000000000000000000008152600401614b1d906159a7565b60405180910390fd5b5b5050565b816002811115614b3757fe5b60016002811115614b4457fe5b1415614ba357614b58338260a00151614e88565b15156000151514614b9e576040517f08c379a0000000000000000000000000000000000000000000000000000000008152600401614b95906159e7565b60405180910390fd5b614c71565b816002811115614baf57fe5b60006002811115614bbc57fe5b1415614c1b57614bd0338260600151614e88565b15156000151514614c16576040517f08c379a0000000000000000000000000000000000000000000000000000000008152600401614c0d906159e7565b60405180910390fd5b614c70565b614c29338260800151614e88565b15156000151514614c6f576040517f08c379a0000000000000000000000000000000000000000000000000000000008152600401614c66906159e7565b60405180910390fd5b5b5b5050565b600081831015614c885760009050614c8d565b600190505b92915050565b600080600090505b8251811015614d0157828181518110614cb057fe5b602002602001015173ffffffffffffffffffffffffffffffffffffffff168473ffffffffffffffffffffffffffffffffffffffff161415614cf45780915050614d0a565b8080600101915050614c9b565b50600182510190505b92915050565b60606000825167ffffffffffffffff81118015614d2c57600080fd5b50604051908082528060200260200182016040528015614d5b5781602001602082028036833780820191505090505b50905060005b8351811015614dab57614d86848281518110614d7957fe5b6020026020010151614f03565b828281518110614d9257fe5b6020026020010181815250508080600101915050614d61565b5080915050919050565b60606000825167ffffffffffffffff81118015614dd157600080fd5b50604051908082528060200260200182016040528015614e005781602001602082028036833780820191505090505b50905060005b8351811015614e7e57614e2b848281518110614e1e57fe5b6020026020010151614f2a565b828281518110614e3757fe5b602002602001019073ffffffffffffffffffffffffffffffffffffffff16908173ffffffffffffffffffffffffffffffffffffffff16815250508080600101915050614e06565b5080915050919050565b600080600090505b8251811015614ef757828181518110614ea557fe5b602002602001015173ffffffffffffffffffffffffffffffffffffffff168473ffffffffffffffffffffffffffffffffffffffff161415614eea576001915050614efd565b8080600101915050614e90565b50600090505b92915050565b600060608273ffffffffffffffffffffffffffffffffffffffff16901b60001b9050919050565b60008160001c9050919050565b828054828255906000526020600020908101928215614f73579160200282015b82811115614f72578251825591602001919060010190614f57565b5b509050614f809190615105565b5090565b828054600181600116156101000203166002900490600052602060002090601f016020900481019282614fba5760008555615001565b82601f10614fd357805160ff1916838001178555615001565b82800160010185558215615001579182015b82811115615000578251825591602001919060010190614fe5565b5b50905061500e9190615122565b5090565b50805460008255906000526020600020908101906150309190615122565b50565b8280548282559060005260206000209081019282156150ac579160200282015b828111156150ab5782518260006101000a81548173ffffffffffffffffffffffffffffffffffffffff021916908373ffffffffffffffffffffffffffffffffffffffff16021790555091602001919060010190615053565b5b5090506150b99190615122565b5090565b50805460018160011615610100020316600290046000825580601f106150e35750615102565b601f0160209004906000526020600020908101906151019190615122565b5b50565b5b8082111561511e576000816000905550600101615106565b5090565b5b8082111561513b576000816000905550600101615123565b5090565b600061515261514d84615bbc565b615b8b565b90508281526020810184848401111561516a57600080fd5b615175848285615d17565b509392505050565b60008135905061518c81615d6c565b92915050565b6000815190506151a181615d83565b92915050565b6000813590506151b681615d9a565b92915050565b600082601f8301126151cd57600080fd5b81356151dd84826020860161513f565b91505092915050565b6000813590506151f581615db1565b92915050565b60006020828403121561520d57600080fd5b600061521b8482850161517d565b91505092915050565b6000806040838503121561523757600080fd5b60006152458582860161517d565b925050602083013567ffffffffffffffff81111561526257600080fd5b61526e858286016151bc565b9150509250929050565b60008060006060848603121561528d57600080fd5b600061529b8682870161517d565b93505060206152ac868287016151e6565b92505060406152bd868287016151e6565b9150509250925092565b6000602082840312156152d957600080fd5b60006152e784828501615192565b91505092915050565b6000806040838503121561530357600080fd5b6000615311858286016151a7565b92505060206153228582860161517d565b9150509250929050565b6000615338838361536b565b60208301905092915050565b60006153508383615454565b60208301905092915050565b61536581615ce1565b82525050565b61537481615c8f565b82525050565b61538381615c8f565b82525050565b600061539482615c21565b61539e8185615c5c565b93506153a983615bec565b8060005b838110156153da5781516153c1888261532c565b97506153cc83615c42565b9250506001810190506153ad565b5085935050505092915050565b60006153f282615c2c565b6153fc8185615c6d565b935061540783615bfc565b8060005b8381101561543857815161541f8882615344565b975061542a83615c4f565b92505060018101905061540b565b5085935050505092915050565b61544e81615ca1565b82525050565b61545d81615cad565b82525050565b600061546e82615c37565b6154788185615c7e565b9350615488818560208601615d26565b61549181615d5b565b840191505092915050565b6000815460018116600081146154b957600181146154df57615523565b607f60028304166154ca8187615c7e565b955060ff198316865260208601935050615523565b600282046154ed8187615c7e565b95506154f885615c0c565b60005b8281101561551a578154818901526001820191506020810190506154fb565b80880195505050505b505092915050565b6000615538600383615c7e565b91507f45433700000000000000000000000000000000000000000000000000000000006000830152602082019050919050565b6000615578600383615c7e565b91507f45433400000000000000000000000000000000000000000000000000000000006000830152602082019050919050565b60006155b8600383615c7e565b91507f45433500000000000000000000000000000000000000000000000000000000006000830152602082019050919050565b60006155f8600483615c7e565b91507f45433134000000000000000000000000000000000000000000000000000000006000830152602082019050919050565b6000615638600383615c7e565b91507f45433300000000000000000000000000000000000000000000000000000000006000830152602082019050919050565b6000615678600483615c7e565b91507f45433135000000000000000000000000000000000000000000000000000000006000830152602082019050919050565b60006156b8600483615c7e565b91507f45433132000000000000000000000000000000000000000000000000000000006000830152602082019050919050565b60006156f8600483615c7e565b91507f45433131000000000000000000000000000000000000000000000000000000006000830152602082019050919050565b6000615738600383615c7e565b91507f45433900000000000000000000000000000000000000000000000000000000006000830152602082019050919050565b6000615778600383615c7e565b91507f45433100000000000000000000000000000000000000000000000000000000006000830152602082019050919050565b60006157b8600383615c7e565b91507f45433800000000000000000000000000000000000000000000000000000000006000830152602082019050919050565b60006157f8600483615c7e565b91507f45433130000000000000000000000000000000000000000000000000000000006000830152602082019050919050565b6000615838600383615c7e565b91507f45433600000000000000000000000000000000000000000000000000000000006000830152602082019050919050565b61587481615cd7565b82525050565b61588381615cd7565b82525050565b600060208201905061589e600083018461537a565b92915050565b60006040820190506158b9600083018561535c565b6158c6602083018461537a565b9392505050565b60006040820190506158e2600083018561537a565b6158ef602083018461537a565b9392505050565b600060208201905081810360008301526159108184615389565b905092915050565b6000602082019050818103600083015261593281846153e7565b905092915050565b600060208201905061594f6000830184615445565b92915050565b6000602082019050818103600083015261596f8184615463565b905092915050565b60006040820190508181036000830152615991818561549c565b90506159a0602083018461537a565b9392505050565b600060208201905081810360008301526159c08161552b565b9050919050565b600060208201905081810360008301526159e08161556b565b9050919050565b60006020820190508181036000830152615a00816155ab565b9050919050565b60006020820190508181036000830152615a20816155eb565b9050919050565b60006020820190508181036000830152615a408161562b565b9050919050565b60006020820190508181036000830152615a608161566b565b9050919050565b60006020820190508181036000830152615a80816156ab565b9050919050565b60006020820190508181036000830152615aa0816156eb565b9050919050565b60006020820190508181036000830152615ac08161572b565b9050919050565b60006020820190508181036000830152615ae08161576b565b9050919050565b60006020820190508181036000830152615b00816157ab565b9050919050565b60006020820190508181036000830152615b20816157eb565b9050919050565b60006020820190508181036000830152615b408161582b565b9050919050565b6000602082019050615b5c600083018461586b565b92915050565b6000604082019050615b77600083018561587a565b615b84602083018461587a565b9392505050565b6000604051905081810181811067ffffffffffffffff82111715615bb257615bb1615d59565b5b8060405250919050565b600067ffffffffffffffff821115615bd757615bd6615d59565b5b601f19601f8301169050602081019050919050565b6000819050602082019050919050565b6000819050602082019050919050565b60008190508160005260206000209050919050565b600081519050919050565b600081519050919050565b600081519050919050565b6000602082019050919050565b6000602082019050919050565b600082825260208201905092915050565b600082825260208201905092915050565b600082825260208201905092915050565b6000615c9a82615cb7565b9050919050565b60008115159050919050565b6000819050919050565b600073ffffffffffffffffffffffffffffffffffffffff82169050919050565b6000819050919050565b6000615cec82615cf3565b9050919050565b6000615cfe82615d05565b9050919050565b6000615d1082615cb7565b9050919050565b82818337600083830152505050565b60005b83811015615d44578082015181840152602081019050615d29565b83811115615d53576000848401525b50505050565bfe5b6000601f19601f8301169050919050565b615d7581615c8f565b8114615d8057600080fd5b50565b615d8c81615ca1565b8114615d9757600080fd5b50565b615da381615cad565b8114615dae57600080fd5b50565b615dba81615cd7565b8114615dc557600080fd5b5056fea26469706673582212204f8850ae80c9b1f16a01ae76a6971757af448e20c606d90fb4f0b770e46b066664736f6c63430007060033",
  "immutableReferences": {},
  "source": "// SPDX-License-Identifier: GPL-3.0\r\n\r\npragma solidity >=0.7.0 <0.9.0;\r\npragma experimental ABIEncoderV2;\r\n\r\n/**\r\n * @title Storage\r\n * @dev Store & retrieve value in a variable\r\n */\r\n\r\n import \"./Abstract/MultiSigCertificatesPool.sol\";\r\n\r\n contract PublicCertificatesPool is MultiSigCertificatesPool {\r\n\r\n     address _creator;\r\n     mapping(address => bool) _submitedByCreator;\r\n\r\n     //modifiers\r\n    modifier hasBeenSubmitted(bool YesOrNo, address provider){\r\n        if(false == YesOrNo) require(false == _submitedByCreator[provider], \"EC3\");\r\n        else require(true == _submitedByCreator[provider], \"EC4\");\r\n        _;\r\n    }\r\n\r\n     // Constructor\r\n    constructor(address[] memory owners,  uint256 minOwners) MultiSigCertificatesPool(owners, minOwners) payable {\r\n        _creator = msg.sender;\r\n    }\r\n\r\n    function addProvider(address provider, string memory providerInfo) external \r\n        isSomeoneSpecific(_creator)\r\n        hasBeenSubmitted(false, provider)\r\n    override\r\n    {\r\n        _Entities[_providerId]._entities[provider]._Info = bytes(providerInfo);\r\n        _submitedByCreator[provider] = true;\r\n    }\r\n\r\n    function validateProvider(address provider) external \r\n        hasBeenSubmitted(true, provider)\r\n    {\r\n        addEntity(provider, _Entities[_providerId]._entities[provider]._Info, _providerId);\r\n    }\r\n\r\n    function removeProvider(address provider) external override{\r\n       removeEntity(provider, _providerId); \r\n\r\n       if(false == Library.isEntity(_Entities[_providerId]._entities[provider])){\r\n            delete(_submitedByCreator[provider]);\r\n       }\r\n    }\r\n\r\n }",
  "sourcePath": "C:/Users/d-aam/GitHub/Certificates/contracts/PublicCertificatesPool.sol",
  "compiler": {
    "name": "solc",
    "version": "0.7.6+commit.7338295f.Emscripten.clang"
  },
  "schemaVersion": "3.3.4",
  "updatedAt": "2021-05-26T12:01:41.610Z",
  "devdoc": {
    "kind": "dev",
    "methods": {},
    "version": 1
  },
  "userdoc": {
    "kind": "user",
    "methods": {},
    "version": 1
  }
}