{
  "contractName": "PublicCertificatesPool",
  "abi": [
    {
      "anonymous": false,
      "inputs": [
        {
          "indexed": false,
          "internalType": "address",
          "name": "",
          "type": "address"
        },
        {
          "indexed": false,
          "internalType": "address",
          "name": "",
          "type": "address"
        }
      ],
      "name": "_AddCertificateIdEvent",
      "type": "event"
    },
    {
      "anonymous": false,
      "inputs": [
        {
          "indexed": true,
          "internalType": "string",
          "name": "",
          "type": "string"
        },
        {
          "indexed": true,
          "internalType": "address",
          "name": "",
          "type": "address"
        },
        {
          "indexed": true,
          "internalType": "string",
          "name": "",
          "type": "string"
        }
      ],
      "name": "_AddEntityRejectionIdEvent",
      "type": "event"
    },
    {
      "anonymous": false,
      "inputs": [
        {
          "indexed": true,
          "internalType": "string",
          "name": "",
          "type": "string"
        },
        {
          "indexed": true,
          "internalType": "address",
          "name": "",
          "type": "address"
        },
        {
          "indexed": true,
          "internalType": "string",
          "name": "",
          "type": "string"
        }
      ],
      "name": "_AddEntityValidationIdEvent",
      "type": "event"
    },
    {
      "anonymous": false,
      "inputs": [
        {
          "indexed": false,
          "internalType": "address",
          "name": "",
          "type": "address"
        },
        {
          "indexed": false,
          "internalType": "address",
          "name": "",
          "type": "address"
        }
      ],
      "name": "_RemoveCertificateIdEvent",
      "type": "event"
    },
    {
      "anonymous": false,
      "inputs": [
        {
          "indexed": true,
          "internalType": "string",
          "name": "",
          "type": "string"
        },
        {
          "indexed": true,
          "internalType": "address",
          "name": "",
          "type": "address"
        },
        {
          "indexed": true,
          "internalType": "string",
          "name": "",
          "type": "string"
        }
      ],
      "name": "_RemoveEntityRejectionIdEvent",
      "type": "event"
    },
    {
      "anonymous": false,
      "inputs": [
        {
          "indexed": true,
          "internalType": "string",
          "name": "",
          "type": "string"
        },
        {
          "indexed": true,
          "internalType": "address",
          "name": "",
          "type": "address"
        },
        {
          "indexed": true,
          "internalType": "string",
          "name": "",
          "type": "string"
        }
      ],
      "name": "_RemoveEntityValidationIdEvent",
      "type": "event"
    },
    {
      "anonymous": false,
      "inputs": [
        {
          "indexed": false,
          "internalType": "address",
          "name": "",
          "type": "address"
        },
        {
          "indexed": true,
          "internalType": "address",
          "name": "",
          "type": "address"
        },
        {
          "indexed": true,
          "internalType": "string",
          "name": "",
          "type": "string"
        }
      ],
      "name": "_SendProposalId",
      "type": "event"
    },
    {
      "inputs": [
        {
          "internalType": "address[]",
          "name": "owners",
          "type": "address[]"
        },
        {
          "internalType": "uint256",
          "name": "minOwners",
          "type": "uint256"
        }
      ],
      "name": "MultiSigCertPool_init",
      "outputs": [],
      "stateMutability": "nonpayable",
      "type": "function"
    },
    {
      "inputs": [
        {
          "internalType": "address[]",
          "name": "owners",
          "type": "address[]"
        },
        {
          "internalType": "uint256",
          "name": "minOwners",
          "type": "uint256"
        },
        {
          "internalType": "uint256",
          "name": "TotalEntities",
          "type": "uint256"
        },
        {
          "internalType": "string[]",
          "name": "labels",
          "type": "string[]"
        },
        {
          "internalType": "uint256",
          "name": "ownerId",
          "type": "uint256"
        }
      ],
      "name": "MultiSigContract_init",
      "outputs": [],
      "stateMutability": "nonpayable",
      "type": "function"
    },
    {
      "inputs": [
        {
          "internalType": "address",
          "name": "owner",
          "type": "address"
        },
        {
          "internalType": "string",
          "name": "ownerInfo",
          "type": "string"
        }
      ],
      "name": "addOwner",
      "outputs": [],
      "stateMutability": "nonpayable",
      "type": "function"
    },
    {
      "inputs": [
        {
          "internalType": "address",
          "name": "owner",
          "type": "address"
        }
      ],
      "name": "isOwner",
      "outputs": [
        {
          "internalType": "bool",
          "name": "",
          "type": "bool"
        }
      ],
      "stateMutability": "view",
      "type": "function"
    },
    {
      "inputs": [
        {
          "internalType": "address",
          "name": "provider",
          "type": "address"
        }
      ],
      "name": "isProvider",
      "outputs": [
        {
          "internalType": "bool",
          "name": "",
          "type": "bool"
        }
      ],
      "stateMutability": "view",
      "type": "function"
    },
    {
      "inputs": [
        {
          "internalType": "address",
          "name": "owner",
          "type": "address"
        }
      ],
      "name": "rejectOwner",
      "outputs": [],
      "stateMutability": "nonpayable",
      "type": "function"
    },
    {
      "inputs": [
        {
          "internalType": "address",
          "name": "provider",
          "type": "address"
        }
      ],
      "name": "rejectProvider",
      "outputs": [],
      "stateMutability": "nonpayable",
      "type": "function"
    },
    {
      "inputs": [
        {
          "internalType": "address",
          "name": "owner",
          "type": "address"
        }
      ],
      "name": "removeOwner",
      "outputs": [],
      "stateMutability": "nonpayable",
      "type": "function"
    },
    {
      "inputs": [
        {
          "internalType": "address",
          "name": "provider",
          "type": "address"
        }
      ],
      "name": "removeProvider",
      "outputs": [],
      "stateMutability": "nonpayable",
      "type": "function"
    },
    {
      "inputs": [],
      "name": "retrieveAllOwners",
      "outputs": [
        {
          "internalType": "address[]",
          "name": "",
          "type": "address[]"
        }
      ],
      "stateMutability": "view",
      "type": "function"
    },
    {
      "inputs": [],
      "name": "retrieveAllProviders",
      "outputs": [
        {
          "internalType": "address[]",
          "name": "",
          "type": "address[]"
        }
      ],
      "stateMutability": "view",
      "type": "function"
    },
    {
      "inputs": [
        {
          "internalType": "bytes32",
          "name": "CertificateHash",
          "type": "bytes32"
        },
        {
          "internalType": "address",
          "name": "holder",
          "type": "address"
        }
      ],
      "name": "retrieveCertificateProvider",
      "outputs": [
        {
          "internalType": "address",
          "name": "",
          "type": "address"
        }
      ],
      "stateMutability": "view",
      "type": "function"
    },
    {
      "inputs": [
        {
          "internalType": "address",
          "name": "holder",
          "type": "address"
        },
        {
          "internalType": "uint256",
          "name": "skipFirst",
          "type": "uint256"
        },
        {
          "internalType": "uint256",
          "name": "max",
          "type": "uint256"
        }
      ],
      "name": "retrieveCertificatesByHolder",
      "outputs": [
        {
          "internalType": "bytes32[]",
          "name": "",
          "type": "bytes32[]"
        }
      ],
      "stateMutability": "view",
      "type": "function"
    },
    {
      "inputs": [],
      "name": "retrieveMinOwners",
      "outputs": [
        {
          "internalType": "uint256",
          "name": "",
          "type": "uint256"
        }
      ],
      "stateMutability": "view",
      "type": "function"
    },
    {
      "inputs": [
        {
          "internalType": "address",
          "name": "owner",
          "type": "address"
        }
      ],
      "name": "retrieveOwner",
      "outputs": [
        {
          "internalType": "string",
          "name": "",
          "type": "string"
        },
        {
          "internalType": "bool",
          "name": "",
          "type": "bool"
        }
      ],
      "stateMutability": "view",
      "type": "function"
    },
    {
      "inputs": [
        {
          "internalType": "bool",
          "name": "addedORremove",
          "type": "bool"
        }
      ],
      "name": "retrievePendingOwners",
      "outputs": [
        {
          "internalType": "address[]",
          "name": "",
          "type": "address[]"
        },
        {
          "internalType": "string[]",
          "name": "",
          "type": "string[]"
        }
      ],
      "stateMutability": "view",
      "type": "function"
    },
    {
      "inputs": [
        {
          "internalType": "bool",
          "name": "addedORremove",
          "type": "bool"
        }
      ],
      "name": "retrievePendingProviders",
      "outputs": [
        {
          "internalType": "address[]",
          "name": "",
          "type": "address[]"
        },
        {
          "internalType": "string[]",
          "name": "",
          "type": "string[]"
        }
      ],
      "stateMutability": "view",
      "type": "function"
    },
    {
      "inputs": [
        {
          "internalType": "address",
          "name": "provider",
          "type": "address"
        }
      ],
      "name": "retrieveProvider",
      "outputs": [
        {
          "internalType": "string",
          "name": "",
          "type": "string"
        },
        {
          "internalType": "bool",
          "name": "",
          "type": "bool"
        }
      ],
      "stateMutability": "view",
      "type": "function"
    },
    {
      "inputs": [
        {
          "internalType": "address",
          "name": "holder",
          "type": "address"
        }
      ],
      "name": "retrieveTotalCertificatesByHolder",
      "outputs": [
        {
          "internalType": "uint256",
          "name": "",
          "type": "uint256"
        }
      ],
      "stateMutability": "view",
      "type": "function"
    },
    {
      "inputs": [
        {
          "internalType": "address",
          "name": "owner",
          "type": "address"
        }
      ],
      "name": "validateOwner",
      "outputs": [],
      "stateMutability": "nonpayable",
      "type": "function"
    },
    {
      "inputs": [
        {
          "internalType": "address",
          "name": "provider",
          "type": "address"
        }
      ],
      "name": "validateProvider",
      "outputs": [],
      "stateMutability": "nonpayable",
      "type": "function"
    },
    {
      "inputs": [
        {
          "internalType": "address[]",
          "name": "owners",
          "type": "address[]"
        },
        {
          "internalType": "uint256",
          "name": "minOwners",
          "type": "uint256"
        },
        {
          "internalType": "address",
          "name": "managerContractAddress",
          "type": "address"
        }
      ],
      "name": "PublicCertPool_init",
      "outputs": [],
      "stateMutability": "nonpayable",
      "type": "function"
    },
    {
      "inputs": [
        {
          "internalType": "address",
          "name": "provider",
          "type": "address"
        },
        {
          "internalType": "string",
          "name": "providerInfo",
          "type": "string"
        }
      ],
      "name": "addProvider",
      "outputs": [],
      "stateMutability": "payable",
      "type": "function"
    },
    {
      "inputs": [
        {
          "internalType": "bytes32",
          "name": "CertificateHash",
          "type": "bytes32"
        },
        {
          "internalType": "address",
          "name": "holder",
          "type": "address"
        }
      ],
      "name": "addCertificate",
      "outputs": [],
      "stateMutability": "payable",
      "type": "function"
    },
    {
      "inputs": [
        {
          "internalType": "bytes32",
          "name": "item",
          "type": "bytes32"
        },
        {
          "internalType": "uint256[]",
          "name": "ids",
          "type": "uint256[]"
        },
        {
          "internalType": "bool",
          "name": "addOrRemove",
          "type": "bool"
        }
      ],
      "name": "onItemValidated",
      "outputs": [],
      "stateMutability": "nonpayable",
      "type": "function"
    },
    {
      "inputs": [
        {
          "internalType": "bytes32",
          "name": "item",
          "type": "bytes32"
        },
        {
          "internalType": "uint256[]",
          "name": "ids",
          "type": "uint256[]"
        },
        {
          "internalType": "bool",
          "name": "addOrRemove",
          "type": "bool"
        }
      ],
      "name": "onItemRejected",
      "outputs": [],
      "stateMutability": "nonpayable",
      "type": "function"
    }
  ],
  "bytecode": "0x608060405234801561001057600080fd5b50613f8c806100206000396000f3fe6080604052600436106101315760003560e01c80630b4c72a914610136578063173825d9146101585780631ab807f81461017857806327a40b4b1461018b5780632f54bf6e146101ab5780633542758f146101e057806337583499146102005780633fd071811461022e57806358a1ba251461024e57806365b973e51461027b5780636b074a071461029a5780636b299604146102ba5780636b3a0fec146102e85780636e4f9179146103085780636e55d2d41461032a57806376f8f90f1461034a57806377bc5a1f1461036a5780637c8c2add1461038a5780638a355a57146103aa5780639580fc6c146103ca578063a93d5ed6146103ea578063c3ccb191146103ff578063ce33d58a1461041f578063cf2041d91461043f578063d0a4adfe1461045f578063fc000500146104b2575b600080fd5b34801561014257600080fd5b5061015661015136600461342b565b6104c5565b005b34801561016457600080fd5b5061015661017336600461342b565b6104d3565b610156610186366004613901565b610528565b34801561019757600080fd5b506101566101a636600461342b565b61061b565b3480156101b757600080fd5b506101cb6101c636600461342b565b610626565b60405190151581526020015b60405180910390f35b3480156101ec57600080fd5b506101566101fb366004613465565b61063a565b34801561020c57600080fd5b5061022061021b36600461342b565b610648565b6040516101d7929190613bc8565b34801561023a57600080fd5b50610156610249366004613931565b610660565b34801561025a57600080fd5b5061026e610269366004613538565b6106a5565b6040516101d79190613b4e565b34801561028757600080fd5b506001545b6040519081526020016101d7565b3480156102a657600080fd5b506101cb6102b536600461342b565b61084b565b3480156102c657600080fd5b506102da6102d53660046138ae565b610858565b6040516101d7929190613adc565b3480156102f457600080fd5b506102da6103033660046138ae565b610867565b34801561031457600080fd5b5061031d610875565b6040516101d79190613ac9565b34801561033657600080fd5b5061028c61034536600461342b565b610886565b34801561035657600080fd5b5061015661036536600461342b565b6108a4565b34801561037657600080fd5b5061022061038536600461342b565b6108ff565b34801561039657600080fd5b506101566103a5366004613931565b61090f565b3480156103b657600080fd5b506101566103c536600461342b565b61094e565b3480156103d657600080fd5b506101566103e5366004613651565b610959565b3480156103f657600080fd5b5061031d6109da565b34801561040b57600080fd5b5061015661041a36600461360d565b6109e7565b34801561042b57600080fd5b5061015661043a36600461342b565b610c16565b34801561044b57600080fd5b5061015661045a3660046136ab565b610c22565b34801561046b57600080fd5b506104a561047a366004613901565b6001600160a01b03908116600090815260066020908152604080832094835293905291909120541690565b6040516101d79190613a94565b6101566104c03660046134e9565b610ef9565b6104d08160016111ad565b50565b60015460016104e360005461167e565b516104ee9190613e58565b808211156105175760405162461bcd60e51b815260040161050e90613bec565b60405180910390fd5b6105238360005461186f565b505050565b600760009054906101000a90046001600160a01b03166001600160a01b0316635a3794e96040518163ffffffff1660e01b815260040160206040518083038186803b15801561057657600080fd5b505afa15801561058a573d6000803e3d6000fd5b505050506040513d601f19601f820116820180604052508101906105ae9190613448565b6001600160a01b031663f0c9325e3460026040518363ffffffff1660e01b81526004016105db9190613ba0565b6000604051808303818588803b1580156105f457600080fd5b505af1158015610608573d6000803e3d6000fd5b50505050506106178282611bd6565b5050565b6104d0816001611d09565b60006106348260005461219a565b92915050565b61052383838360005461238b565b60606000610657836001612744565b91509150915091565b61066c84848484612941565b60018383600081811061068157610681613f07565b90506020020135141561069f57801561069f5761069f846000612a08565b50505050565b6060826106b185610886565b116106cb5750604080516000815260208101909152610844565b8180846106d787610886565b6106e19190613e58565b10156106fe57836106f186610886565b6106fb9190613e58565b90505b6000816001600160401b0381111561071857610718613f1d565b604051908082528060200260200182016040528015610741578160200160208202803683370190505b506001600160a01b0387166000908152600660209081526040808320600101805482518185028101850190935280835294955092939092918301828280156107a857602002820191906000526020600020905b815481526020019060010190808311610794575b5050505050905060008060005b835181101561083b578783106107ca5761083b565b818911156107e4576107dd600183613e40565b9150610829565b8381815181106107f6576107f6613f07565b602002602001015185848151811061081057610810613f07565b6020908102919091010152610826600184613e40565b92505b8061083381613ed6565b9150506107b5565b50929450505050505b9392505050565b600061063482600161219a565b60608061065783600054612c06565b606080610657836001612c06565b6060610881600161167e565b905090565b6001600160a01b031660009081526006602052604090206001015490565b6108b081600054612e13565b1515600114156108f35760016108c760005461167e565b516108d29190613e58565b60015411156108f35760405162461bcd60e51b815260040161050e90613bec565b6104d081600054611d09565b6060600061065783600054612744565b61091b84848484612941565b60018383600081811061093057610930613f07565b90506020020135141561069f57801561069f5761069f846001612a08565b6104d081600161186f565b600454610100900460ff1680610972575060045460ff16155b61098e5760405162461bcd60e51b815260040161050e90613c63565b600454610100900460ff161580156109b0576004805461ffff19166101011790555b6109ba84846109e7565b6109c382612f7f565b801561069f576004805461ff001916905550505050565b606061088160005461167e565b600454610100900460ff1680610a00575060045460ff16155b610a1c5760405162461bcd60e51b815260040161050e90613c63565b600454610100900460ff16158015610a3e576004805461ffff19166101011790555b6040805160028082526060820190925290816020015b6060815260200190600190039081610a545750508051610a7c91600591602090910190613171565b506040518060400160405280600581526020016427bbb732b960d91b8152506005600081548110610aaf57610aaf613f07565b906000526020600020019080519060200190610acc9291906131ce565b5060405180604001604052806008815260200167283937bb34b232b960c11b8152506005600181548110610b0257610b02613f07565b906000526020600020019080519060200190610b1f9291906131ce565b50610c00838360026005805480602002602001604051908101604052809291908181526020016000905b82821015610bf5578382906000526020600020018054610b6890613e9b565b80601f0160208091040260200160405190810160405280929190818152602001828054610b9490613e9b565b8015610be15780601f10610bb657610100808354040283529160200191610be1565b820191906000526020600020905b815481529060010190602001808311610bc457829003601f168201915b505050505081526020019060010190610b49565b505050506000610c22565b8015610523576004805461ff0019169055505050565b6104d0816000546111ad565b600454610100900460ff1680610c3b575060045460ff16155b610c575760405162461bcd60e51b815260040161050e90613c63565b600454610100900460ff16158015610c79576004805461ffff19166101011790555b8551851115610cb35760405162461bcd60e51b815260040161050e9060208082526004908201526322a1989b60e11b604082015260600190565b60008511610cec5760405162461bcd60e51b815260040161050e906020808252600490820152634543313760e01b604082015260600190565b82518414610d255760405162461bcd60e51b815260040161050e9060208082526004908201526308a8662760e31b604082015260600190565b60008281555b84811015610d9b576002805460010181556000528351600390859083908110610d5657610d56613f07565b60209081029190910181015182546001810184556000938452928290208151610d8894919091019291909101906131ce565b5080610d9381613ed6565b915050610d2b565b50600185905560005b8651811015610ede57600073__AddressLibrary________________________634d84c524898481518110610ddb57610ddb613f07565b60200260200101516040518263ffffffff1660e01b8152600401610dff9190613a94565b60206040518083038186803b158015610e1757600080fd5b505af4158015610e2b573d6000803e3d6000fd5b505050506040513d601f19601f82011682018060405250810190610e4f91906138e8565b90506001600260005481548110610e6857610e68613f07565b60009182526020808320858452600492909202909101905260408120805460ff19169215159290921790915554600280549091908110610eaa57610eaa613f07565b6000918252602080832060016004909302018201805492830181558352909120015580610ed681613ed6565b915050610da4565b508015610ef1576004805461ff00191690555b505050505050565b6000826001610f08828261219a565b15610f255760405162461bcd60e51b815260040161050e90613ceb565b6000856001610f348282613006565b15610f515760405162461bcd60e51b815260040161050e90613c0a565b600760009054906101000a90046001600160a01b03166001600160a01b0316635a3794e96040518163ffffffff1660e01b815260040160206040518083038186803b158015610f9f57600080fd5b505afa158015610fb3573d6000803e3d6000fd5b505050506040513d601f19601f82011682018060405250810190610fd79190613448565b6001600160a01b031663f0c9325e3460006040518363ffffffff1660e01b81526004016110049190613ba0565b6000604051808303818588803b15801561101d57600080fd5b505af1158015611031573d6000803e3d6000fd5b5050604051631361314960e21b81526000935073__AddressLibrary________________________9250634d84c5249150611070908c90600401613a94565b60206040518083038186803b15801561108857600080fd5b505af415801561109c573d6000803e3d6000fd5b505050506040513d601f19601f820116820180604052508101906110c091906138e8565b90508760026001815481106110d7576110d7613f07565b90600052602060002090600402016000016000838152602001908152602001600020600101908051906020019061110f9291906131ce565b50600260018154811061112457611124613f07565b600091825260208083206002600490930201919091018054600181018255908352912001819055604051611159908990613a78565b6040518091039020896001600160a01b03167f854d1c61e7ad3ec86e783ff3bee2d6e972df20c27c0c0e5436cb8ad35dcdd3113060405161119a9190613a94565b60405180910390a3505050505050505050565b60025460405163123bd07560e11b815282919073__Library_______________________________90632477a0ea906111ec9085908590600401613b92565b60206040518083038186803b15801561120457600080fd5b505af4158015611218573d6000803e3d6000fd5b505050506040513d601f19601f8201168201806040525081019061123c91906138cb565b151560011461125d5760405162461bcd60e51b815260040161050e90613cce565b6112693360005461219a565b151560011461128a5760405162461bcd60e51b815260040161050e90613cb1565b600184846112988282613006565b1515600114806112b357506112ad8282612e13565b15156001145b6112cf5760405162461bcd60e51b815260040161050e90613c45565b8686600073__AddressLibrary________________________634d84c524846040518263ffffffff1660e01b815260040161130a9190613a94565b60206040518083038186803b15801561132257600080fd5b505af4158015611336573d6000803e3d6000fd5b505050506040513d601f19601f8201168201806040525081019061135a91906138e8565b905073__ItemsLibrary__________________________637b6d23de33836002868154811061138b5761138b613f07565b90600052602060002090600402016040518463ffffffff1660e01b81526004016113b793929190613aa8565b60206040518083038186803b1580156113cf57600080fd5b505af41580156113e3573d6000803e3d6000fd5b505050506040513d601f19601f8201168201806040525081019061140791906138cb565b156114245760405162461bcd60e51b815260040161050e90613c28565b604051631361314960e21b815260009073__AddressLibrary________________________90634d84c5249061145e908e90600401613a94565b60206040518083038186803b15801561147657600080fd5b505af415801561148a573d6000803e3d6000fd5b505050506040513d601f19601f820116820180604052508101906114ae91906138e8565b60408051600180825281830190925291925060009190602080830190803683370190505090508a816000815181106114e8576114e8613f07565b60200260200101818152505060006040518060c00160405280848152602001604051806020016040528060008152508152602001600154815260200160038e8154811061153757611537613f07565b90600052602060002001805461154c90613e9b565b80601f016020809104026020016040519081016040528092919081815260200182805461157890613e9b565b80156115c55780601f1061159a576101008083540402835291602001916115c5565b820191906000526020600020905b8154815290600101906020018083116115a857829003601f168201915b50505050508152602001838152602001600115158152509050600060028d815481106115f3576115f3613f07565b9060005260206000209060040201905073__ItemsLibrary__________________________635cb09bcf8383306040518463ffffffff1660e01b815260040161163e93929190613d08565b60006040518083038186803b15801561165657600080fd5b505af415801561166a573d6000803e3d6000fd5b505050505050505050505050505050505050565b60025460405163123bd07560e11b8152606091839173__Library_______________________________90632477a0ea906116bf9085908590600401613b92565b60206040518083038186803b1580156116d757600080fd5b505af41580156116eb573d6000803e3d6000fd5b505050506040513d601f19601f8201168201806040525081019061170f91906138cb565b15156001146117305760405162461bcd60e51b815260040161050e90613cce565b73__AddressLibrary________________________635f2e8a5d73__ItemsLibrary__________________________6327724f4b6002888154811061177757611777613f07565b90600052602060002090600402016040518263ffffffff1660e01b81526004016117a391815260200190565b60006040518083038186803b1580156117bb57600080fd5b505af41580156117cf573d6000803e3d6000fd5b505050506040513d6000823e601f3d908101601f191682016040526117f791908101906137a0565b6040518263ffffffff1660e01b81526004016118139190613b4e565b60006040518083038186803b15801561182b57600080fd5b505af415801561183f573d6000803e3d6000fd5b505050506040513d6000823e601f3d908101601f19168201604052611867919081019061356d565b949350505050565b60025460405163123bd07560e11b815282919073__Library_______________________________90632477a0ea906118ae9085908590600401613b92565b60206040518083038186803b1580156118c657600080fd5b505af41580156118da573d6000803e3d6000fd5b505050506040513d601f19601f820116820180604052508101906118fe91906138cb565b151560011461191f5760405162461bcd60e51b815260040161050e90613cce565b61192b3360005461219a565b151560011461194c5760405162461bcd60e51b815260040161050e90613cb1565b6001848461195a828261219a565b15156001146119915760405162461bcd60e51b815260206004820152600360248201526245433760e81b604482015260640161050e565b6000878761199f8282612e13565b156119bc5760405162461bcd60e51b815260040161050e90613c0a565b604051631361314960e21b815260009073__AddressLibrary________________________90634d84c524906119f6908e90600401613a94565b60206040518083038186803b158015611a0e57600080fd5b505af4158015611a22573d6000803e3d6000fd5b505050506040513d601f19601f82011682018060405250810190611a4691906138e8565b60408051600180825281830190925291925060009190602080830190803683370190505090508a81600081518110611a8057611a80613f07565b60200260200101818152505060006040518060c00160405280848152602001604051806020016040528060008152508152602001600154815260200160038e81548110611acf57611acf613f07565b906000526020600020018054611ae490613e9b565b80601f0160208091040260200160405190810160405280929190818152602001828054611b1090613e9b565b8015611b5d5780601f10611b3257610100808354040283529160200191611b5d565b820191906000526020600020905b815481529060010190602001808311611b4057829003601f168201915b50505050508152602001838152602001600115158152509050600060028d81548110611b8b57611b8b613f07565b9060005260206000209060040201905073__ItemsLibrary__________________________63e23fcdef8383306040518463ffffffff1660e01b815260040161163e93929190613d08565b611bdf3361084b565b1515600114611c195760405162461bcd60e51b815260040161050e9060208082526004908201526322a1989960e11b604082015260600190565b816001600160a01b038083166000908152600660209081526040808320878452909152902054839185911615611c7a5760405162461bcd60e51b815260040161050e906020808252600490820152634543313560e01b604082015260600190565b6001600160a01b03841660008181526006602081815260408084208a855280835281852080546001600160a01b0319163390811790915593835260019081018054918201815585529382902090930189905582519182528101929092527f601cb9a073dbfa468ef12878ee6c720641a49b76af7c16099e8c0a1ac3ca79b5910160405180910390a15050505050565b60025460405163123bd07560e11b815282919073__Library_______________________________90632477a0ea90611d489085908590600401613b92565b60206040518083038186803b158015611d6057600080fd5b505af4158015611d74573d6000803e3d6000fd5b505050506040513d601f19601f82011682018060405250810190611d9891906138cb565b1515600114611db95760405162461bcd60e51b815260040161050e90613cce565b611dc53360005461219a565b1515600114611de65760405162461bcd60e51b815260040161050e90613cb1565b60018484611df48282613006565b151560011480611e0f5750611e098282612e13565b15156001145b611e2b5760405162461bcd60e51b815260040161050e90613c45565b8686600073__AddressLibrary________________________634d84c524846040518263ffffffff1660e01b8152600401611e669190613a94565b60206040518083038186803b158015611e7e57600080fd5b505af4158015611e92573d6000803e3d6000fd5b505050506040513d601f19601f82011682018060405250810190611eb691906138e8565b905073__ItemsLibrary__________________________637b6d23de338360028681548110611ee757611ee7613f07565b90600052602060002090600402016040518463ffffffff1660e01b8152600401611f1393929190613aa8565b60206040518083038186803b158015611f2b57600080fd5b505af4158015611f3f573d6000803e3d6000fd5b505050506040513d601f19601f82011682018060405250810190611f6391906138cb565b15611f805760405162461bcd60e51b815260040161050e90613c28565b604051631361314960e21b815260009073__AddressLibrary________________________90634d84c52490611fba908e90600401613a94565b60206040518083038186803b158015611fd257600080fd5b505af4158015611fe6573d6000803e3d6000fd5b505050506040513d601f19601f8201168201806040525081019061200a91906138e8565b60408051600180825281830190925291925060009190602080830190803683370190505090508a8160008151811061204457612044613f07565b60200260200101818152505060006040518060c00160405280848152602001604051806020016040528060008152508152602001600154815260200160038e8154811061209357612093613f07565b9060005260206000200180546120a890613e9b565b80601f01602080910402602001604051908101604052809291908181526020018280546120d490613e9b565b80156121215780601f106120f657610100808354040283529160200191612121565b820191906000526020600020905b81548152906001019060200180831161210457829003601f168201915b50505050508152602001838152602001600115158152509050600060028d8154811061214f5761214f613f07565b9060005260206000209060040201905073__ItemsLibrary__________________________637493a70b8383306040518463ffffffff1660e01b815260040161163e93929190613d08565b60025460405163123bd07560e11b8152600091839173__Library_______________________________90632477a0ea906121db9085908590600401613b92565b60206040518083038186803b1580156121f357600080fd5b505af4158015612207573d6000803e3d6000fd5b505050506040513d601f19601f8201168201806040525081019061222b91906138cb565b151560011461224c5760405162461bcd60e51b815260040161050e90613cce565b604051631361314960e21b815260009073__AddressLibrary________________________90634d84c52490612286908990600401613a94565b60206040518083038186803b15801561229e57600080fd5b505af41580156122b2573d6000803e3d6000fd5b505050506040513d601f19601f820116820180604052508101906122d691906138e8565b905073__ItemsLibrary__________________________63dbdfbeec826002888154811061230657612306613f07565b90600052602060002090600402016040518363ffffffff1660e01b8152600401612331929190613b92565b60206040518083038186803b15801561234957600080fd5b505af415801561235d573d6000803e3d6000fd5b505050506040513d601f19601f8201168201806040525081019061238191906138cb565b9695505050505050565b60025460405163123bd07560e11b815282919073__Library_______________________________90632477a0ea906123ca9085908590600401613b92565b60206040518083038186803b1580156123e257600080fd5b505af41580156123f6573d6000803e3d6000fd5b505050506040513d601f19601f8201168201806040525081019061241a91906138cb565b151560011461243b5760405162461bcd60e51b815260040161050e90613cce565b6124473360005461219a565b15156001146124685760405162461bcd60e51b815260040161050e90613cb1565b60008684612476828261219a565b156124935760405162461bcd60e51b815260040161050e90613ceb565b600089876124a18282613006565b156124be5760405162461bcd60e51b815260040161050e90613c0a565b600073__AddressLibrary________________________634d84c5248e6040518263ffffffff1660e01b81526004016124f79190613a94565b60206040518083038186803b15801561250f57600080fd5b505af4158015612523573d6000803e3d6000fd5b505050506040513d601f19601f8201168201806040525081019061254791906138e8565b60408051600180825281830190925291925060009190602080830190803683370190505090508a8160008151811061258157612581613f07565b60200260200101818152505060006040518060c001604052808481526020018f8f8080601f0160208091040260200160405190810160405280939291908181526020018383808284376000920191909152505050908252506001546020820152600380546040909201918f9081106125fb576125fb613f07565b90600052602060002001805461261090613e9b565b80601f016020809104026020016040519081016040528092919081815260200182805461263c90613e9b565b80156126895780601f1061265e57610100808354040283529160200191612689565b820191906000526020600020905b81548152906001019060200180831161266c57829003601f168201915b50505050508152602001838152602001600115158152509050600060028d815481106126b7576126b7613f07565b9060005260206000209060040201905073__ItemsLibrary__________________________630b985aaa8383306040518463ffffffff1660e01b815260040161270293929190613d08565b60006040518083038186803b15801561271a57600080fd5b505af415801561272e573d6000803e3d6000fd5b5050505050505050505050505050505050505050565b60025460405163123bd07560e11b815260609160009184919073__Library_______________________________90632477a0ea906127899085908590600401613b92565b60206040518083038186803b1580156127a157600080fd5b505af41580156127b5573d6000803e3d6000fd5b505050506040513d601f19601f820116820180604052508101906127d991906138cb565b15156001146127fa5760405162461bcd60e51b815260040161050e90613cce565b604051631361314960e21b815260009073__AddressLibrary________________________90634d84c52490612834908a90600401613a94565b60206040518083038186803b15801561284c57600080fd5b505af4158015612860573d6000803e3d6000fd5b505050506040513d601f19601f8201168201806040525081019061288491906138e8565b905073__ItemsLibrary__________________________631aeccc6a82600289815481106128b4576128b4613f07565b90600052602060002090600402016040518363ffffffff1660e01b81526004016128df929190613b92565b60006040518083038186803b1580156128f757600080fd5b505af415801561290b573d6000803e3d6000fd5b505050506040513d6000823e601f3d908101601f1916820160405261293391908101906139c2565b945094505050509250929050565b604051630d1d719d60e41b8152309073__Library_______________________________9063d1d719d09061297a908490600401613a94565b60206040518083038186803b15801561299257600080fd5b505af41580156129a6573d6000803e3d6000fd5b505050506040513d601f19601f820116820180604052508101906129ca91906138cb565b1515600114612a015760405162461bcd60e51b815260206004820152600360248201526208a86760eb1b604482015260640161050e565b5050505050565b600081612a46576002600181548110612a2357612a23613f07565b600091825260208083208684526004909202909101905260409020600301612a79565b6002600181548110612a5a57612a5a613f07565b6000918252602080832086845260049092029091019052604090206002015b805480602002602001604051908101604052809291908181526020018280548015612acd57602002820191906000526020600020905b81546001600160a01b03168152600190910190602001808311612aaf575b5050505050905060005b815181101561069f57600760009054906101000a90046001600160a01b03166001600160a01b0316635a3794e96040518163ffffffff1660e01b815260040160206040518083038186803b158015612b2e57600080fd5b505afa158015612b42573d6000803e3d6000fd5b505050506040513d601f19601f82011682018060405250810190612b669190613448565b6001600160a01b031663eb1e2a41838381518110612b8657612b86613f07565b602002602001015184516040518363ffffffff1660e01b8152600401612bc19291906001600160a01b03929092168252602082015260400190565b600060405180830381600087803b158015612bdb57600080fd5b505af1158015612bef573d6000803e3d6000fd5b505050508080612bfe90613ed6565b915050612ad7565b60025460405163123bd07560e11b8152606091829184919073__Library_______________________________90632477a0ea90612c4a9085908590600401613b92565b60206040518083038186803b158015612c6257600080fd5b505af4158015612c76573d6000803e3d6000fd5b505050506040513d601f19601f82011682018060405250810190612c9a91906138cb565b1515600114612cbb5760405162461bcd60e51b815260040161050e90613cce565b60608073__ItemsLibrary__________________________63e035e0068960028a81548110612cec57612cec613f07565b90600052602060002090600402016040518363ffffffff1660e01b8152600401612d229291909115158252602082015260400190565b60006040518083038186803b158015612d3a57600080fd5b505af4158015612d4e573d6000803e3d6000fd5b505050506040513d6000823e601f3d908101601f19168201604052612d7691908101906137d4565b604051635f2e8a5d60e01b8152919350915073__AddressLibrary________________________90635f2e8a5d90612db2908590600401613b4e565b60006040518083038186803b158015612dca57600080fd5b505af4158015612dde573d6000803e3d6000fd5b505050506040513d6000823e601f3d908101601f19168201604052612e06919081019061356d565b9890975095505050505050565b60025460405163123bd07560e11b8152600091839173__Library_______________________________90632477a0ea90612e549085908590600401613b92565b60206040518083038186803b158015612e6c57600080fd5b505af4158015612e80573d6000803e3d6000fd5b505050506040513d601f19601f82011682018060405250810190612ea491906138cb565b1515600114612ec55760405162461bcd60e51b815260040161050e90613cce565b604051631361314960e21b815260009073__AddressLibrary________________________90634d84c52490612eff908990600401613a94565b60206040518083038186803b158015612f1757600080fd5b505af4158015612f2b573d6000803e3d6000fd5b505050506040513d601f19601f82011682018060405250810190612f4f91906138e8565b905073__ItemsLibrary__________________________632854ed2e826002888154811061230657612306613f07565b600454610100900460ff1680612f98575060045460ff16155b612fb45760405162461bcd60e51b815260040161050e90613c63565b600454610100900460ff16158015612fd6576004805461ffff19166101011790555b600780546001600160a01b0319166001600160a01b0384161790558015610617576004805461ff00191690555050565b60025460405163123bd07560e11b8152600091839173__Library_______________________________90632477a0ea906130479085908590600401613b92565b60206040518083038186803b15801561305f57600080fd5b505af4158015613073573d6000803e3d6000fd5b505050506040513d601f19601f8201168201806040525081019061309791906138cb565b15156001146130b85760405162461bcd60e51b815260040161050e90613cce565b604051631361314960e21b815260009073__AddressLibrary________________________90634d84c524906130f2908990600401613a94565b60206040518083038186803b15801561310a57600080fd5b505af415801561311e573d6000803e3d6000fd5b505050506040513d601f19601f8201168201806040525081019061314291906138e8565b905073__ItemsLibrary__________________________6226d766826002888154811061230657612306613f07565b8280548282559060005260206000209081019282156131be579160200282015b828111156131be57825180516131ae9184916020909101906131ce565b5091602001919060010190613191565b506131ca92915061324e565b5090565b8280546131da90613e9b565b90600052602060002090601f0160209004810192826131fc5760008555613242565b82601f1061321557805160ff1916838001178555613242565b82800160010185558215613242579182015b82811115613242578251825591602001919060010190613227565b506131ca92915061326b565b808211156131ca5760006132628282613280565b5060010161324e565b5b808211156131ca576000815560010161326c565b50805461328c90613e9b565b6000825580601f1061329c575050565b601f0160209004906000526020600020908101906104d0919061326b565b600082601f8301126132cb57600080fd5b813560206132e06132db83613df6565b613dc6565b80838252828201915082860187848660051b890101111561330057600080fd5b60005b8581101561332857813561331681613f33565b84529284019290840190600101613303565b5090979650505050505050565b600082601f83011261334657600080fd5b815160206133566132db83613df6565b80838252828201915082860187848660051b890101111561337657600080fd5b60005b8581101561332857815184529284019290840190600101613379565b600082601f8301126133a657600080fd5b81356133b46132db82613e19565b8181528460208386010111156133c957600080fd5b816020850160208301376000918101602001919091529392505050565b600082601f8301126133f757600080fd5b81516134056132db82613e19565b81815284602083860101111561341a57600080fd5b611867826020830160208701613e6f565b60006020828403121561343d57600080fd5b813561084481613f33565b60006020828403121561345a57600080fd5b815161084481613f33565b60008060006040848603121561347a57600080fd5b833561348581613f33565b925060208401356001600160401b03808211156134a157600080fd5b818601915086601f8301126134b557600080fd5b8135818111156134c457600080fd5b8760208285010111156134d657600080fd5b6020830194508093505050509250925092565b600080604083850312156134fc57600080fd5b823561350781613f33565b915060208301356001600160401b0381111561352257600080fd5b61352e85828601613395565b9150509250929050565b60008060006060848603121561354d57600080fd5b833561355881613f33565b95602085013595506040909401359392505050565b6000602080838503121561358057600080fd5b82516001600160401b0381111561359657600080fd5b8301601f810185136135a757600080fd5b80516135b56132db82613df6565b80828252848201915084840188868560051b87010111156135d557600080fd5b600094505b838510156136015780516135ed81613f33565b8352600194909401939185019185016135da565b50979650505050505050565b6000806040838503121561362057600080fd5b82356001600160401b0381111561363657600080fd5b613642858286016132ba565b95602094909401359450505050565b60008060006060848603121561366657600080fd5b83356001600160401b0381111561367c57600080fd5b613688868287016132ba565b9350506020840135915060408401356136a081613f33565b809150509250925092565b600080600080600060a086880312156136c357600080fd5b85356001600160401b03808211156136da57600080fd5b6136e689838a016132ba565b9650602091508188013595506040880135945060608801358181111561370b57600080fd5b8801601f81018a1361371c57600080fd5b803561372a6132db82613df6565b8082825285820191508584018d878560051b870101111561374a57600080fd5b60005b8481101561378457868235111561376357600080fd5b6137728f898435890101613395565b8452928701929087019060010161374d565b5050809750505050505050608086013590509295509295909350565b6000602082840312156137b257600080fd5b81516001600160401b038111156137c857600080fd5b61186784828501613335565b600080604083850312156137e757600080fd5b82516001600160401b03808211156137fe57600080fd5b61380a86838701613335565b935060209150818501518181111561382157600080fd5b8501601f8101871361383257600080fd5b80516138406132db82613df6565b8082825285820191508584018a878560051b870101111561386057600080fd5b6000805b8581101561389b5782518881111561387a578283fd5b6138888e8b838b01016133e6565b8652509388019391880191600101613864565b5050508096505050505050509250929050565b6000602082840312156138c057600080fd5b813561084481613f48565b6000602082840312156138dd57600080fd5b815161084481613f48565b6000602082840312156138fa57600080fd5b5051919050565b6000806040838503121561391457600080fd5b82359150602083013561392681613f33565b809150509250929050565b6000806000806060858703121561394757600080fd5b8435935060208501356001600160401b038082111561396557600080fd5b818701915087601f83011261397957600080fd5b81358181111561398857600080fd5b8860208260051b850101111561399d57600080fd5b60208301955080945050505060408501356139b781613f48565b939692955090935050565b600080604083850312156139d557600080fd5b82516001600160401b038111156139eb57600080fd5b6139f7858286016133e6565b925050602083015161392681613f48565b600081518084526020808501945080840160005b83811015613a415781516001600160a01b031687529582019590820190600101613a1c565b509495945050505050565b60008151808452613a64816020860160208601613e6f565b601f01601f19169290920160200192915050565b60008251613a8a818460208701613e6f565b9190910192915050565b6001600160a01b0391909116815260200190565b6001600160a01b039390931683526020830191909152604082015260600190565b6020815260006108446020830184613a08565b604081526000613aef6040830185613a08565b6020838203818501528185518084528284019150828160051b85010183880160005b83811015613b3f57601f19878403018552613b2d838351613a4c565b94860194925090850190600101613b11565b50909998505050505050505050565b6020808252825182820181905260009190848201906040850190845b81811015613b8657835183529284019291840191600101613b6a565b50909695505050505050565b918252602082015260400190565b6020810160048310613bc257634e487b7160e01b600052602160045260246000fd5b91905290565b604081526000613bdb6040830185613a4c565b905082151560208301529392505050565b6020808252600490820152634543313960e01b604082015260600190565b6020808252600490820152634543323760e01b604082015260600190565b60208082526003908201526245433560e81b604082015260600190565b60208082526004908201526308a8664760e31b604082015260600190565b6020808252602e908201527f496e697469616c697a61626c653a20636f6e747261637420697320616c72656160408201526d191e481a5b9a5d1a585b1a5e995960921b606082015260800190565b60208082526003908201526245433960e81b604082015260600190565b60208082526003908201526245433160e81b604082015260600190565b60208082526003908201526222a19b60e91b604082015260600190565b6060815283516060820152600060208086015160c06080850152613d30610120850182613a4c565b9050604087015160a08501526060870151605f19808684030160c0870152613d588383613a4c565b60808a015187820390920160e088015281518082529185019350600092508401905b80831015613d9a5783518252928401926001929092019190840190613d7a565b5060a0890151151561010087015292850187905250506001600160a01b03841660408401529050611867565b604051601f8201601f191681016001600160401b0381118282101715613dee57613dee613f1d565b604052919050565b60006001600160401b03821115613e0f57613e0f613f1d565b5060051b60200190565b60006001600160401b03821115613e3257613e32613f1d565b50601f01601f191660200190565b60008219821115613e5357613e53613ef1565b500190565b600082821015613e6a57613e6a613ef1565b500390565b60005b83811015613e8a578181015183820152602001613e72565b8381111561069f5750506000910152565b600181811c90821680613eaf57607f821691505b60208210811415613ed057634e487b7160e01b600052602260045260246000fd5b50919050565b6000600019821415613eea57613eea613ef1565b5060010190565b634e487b7160e01b600052601160045260246000fd5b634e487b7160e01b600052603260045260246000fd5b634e487b7160e01b600052604160045260246000fd5b6001600160a01b03811681146104d057600080fd5b80151581146104d057600080fdfea2646970667358221220f8230b6a84b674a14c838649c06574a123b8965937e91864e5e2bd380ff0a6f864736f6c63430008060033",
  "immutableReferences": {},
  "source": "// SPDX-License-Identifier: GPL-3.0\r\n\r\npragma solidity >=0.7.0 <0.9.0;\r\npragma experimental ABIEncoderV2;\r\n\r\n/**\r\n * @title Storage\r\n * @dev Store & retrieve value in a variable\r\n */\r\n\r\n import \"../Abstract/MultiSigCertificatesPool.sol\";\r\n import \"./Treasury.sol\";\r\n import \"../Libraries/Library.sol\";\r\n import \"../Base/ManagedBaseContract.sol\";\r\n import \"../Libraries/AddressLibrary.sol\";\r\n import \"@openzeppelin/contracts-upgradeable/proxy/utils/Initializable.sol\";\r\n\r\n contract PublicCertificatesPool is Initializable, MultiSigCertificatesPool, ManagedBaseContract {\r\n    using Library for *;\r\n    using AddressLibrary for *;\r\n\r\n    // EVENTS /////////////////////////////////////////\r\n    event _SendProposalId(address, address indexed,  string indexed);\r\n\r\n    // DATA /////////////////////////////////////////\r\n\r\n    // CONSTRUCTOR /////////////////////////////////////////\r\n    function PublicCertPool_init(address[] memory owners,  uint256 minOwners, address managerContractAddress) public initializer {\r\n        super.MultiSigCertPool_init(owners, minOwners); \r\n        super.ManagedBaseContract_init(managerContractAddress); \r\n    }\r\n\r\n    // FUNCTIONALITY /////////////////////////////////////////\r\n    function addProvider(address provider, string memory providerInfo) external \r\n        isEntityActivated(false, provider, _providerId) \r\n        isEntityPendingToAdd(false, provider, _providerId)\r\n    override payable\r\n    {\r\n        Treasury(_managerContract.retrieveTreasuryProxy()).pay{value:msg.value}(Library.Prices.NewProvider);\r\n        bytes32 providerInBytes = AddressLibrary.AddressToBytes(provider);\r\n        _Entities[_providerId]._items[providerInBytes]._Info = providerInfo;\r\n        _Entities[_providerId]._pendingItemsAdd.push(providerInBytes);\r\n\r\n        emit _SendProposalId(address(this), provider, providerInfo);\r\n    }\r\n\r\n    function payBack(bytes32 entityInBytes, bool validatedOrRejected) internal\r\n    {\r\n        address[] memory Voters = (validatedOrRejected) ? _Entities[_providerId]._items[entityInBytes]._Validations : _Entities[_providerId]._items[entityInBytes]._Rejections;\r\n\r\n        for(uint i=0; i < Voters.length; i++){\r\n            Treasury(_managerContract.retrieveTreasuryProxy()).getRefund(Voters[i], Voters.length);\r\n        }\r\n    }\r\n\r\n    function addCertificate(bytes32 CertificateHash, address holder) external override payable\r\n    {\r\n        Treasury(_managerContract.retrieveTreasuryProxy()).pay{value:msg.value}(Library.Prices.NewCertificate);\r\n        addCertificateInternal(CertificateHash, holder);\r\n    }\r\n\r\n    // Callback functions\r\n    function onItemValidated(bytes32 item, uint256[] calldata ids, bool addOrRemove) public override \r\n    {\r\n        super.onItemValidated(item, ids, addOrRemove);\r\n\r\n        if(ids[0] == _providerId){\r\n            if(addOrRemove)payBack(item, true);\r\n        }\r\n    }\r\n\r\n    function onItemRejected(bytes32 item, uint256[] calldata ids, bool addOrRemove) public override  \r\n    {\r\n        super.onItemRejected(item, ids, addOrRemove);\r\n\r\n        if(ids[0] == _providerId){\r\n            if(addOrRemove)payBack(item, false);\r\n        }\r\n    }\r\n\r\n }",
  "sourcePath": "C:\\Users\\d-aam\\GitHub\\Certificates\\contracts\\DeployedContracts\\PublicCertificatesPool.sol",
  "compiler": {
    "name": "solc",
    "version": "0.8.6+commit.11564f7e.Emscripten.clang"
  },
  "schemaVersion": "3.3.4",
  "updatedAt": "2021-08-05T07:23:02.606Z",
  "devdoc": {
    "kind": "dev",
    "methods": {},
    "version": 1
  },
  "userdoc": {
    "kind": "user",
    "methods": {},
    "version": 1
  }
}