{
  "contractName": "PublicCertificatesPool",
  "abi": [
    {
      "inputs": [
        {
          "internalType": "address[]",
          "name": "owners",
          "type": "address[]"
        },
        {
          "internalType": "uint256",
          "name": "minOwners",
          "type": "uint256"
        },
        {
          "internalType": "address",
          "name": "managerContractAddress",
          "type": "address"
        }
      ],
      "stateMutability": "payable",
      "type": "constructor"
    },
    {
      "anonymous": false,
      "inputs": [
        {
          "indexed": false,
          "internalType": "address",
          "name": "",
          "type": "address"
        },
        {
          "indexed": false,
          "internalType": "address",
          "name": "",
          "type": "address"
        }
      ],
      "name": "_AddCertificateIdEvent",
      "type": "event"
    },
    {
      "anonymous": false,
      "inputs": [
        {
          "indexed": false,
          "internalType": "string",
          "name": "",
          "type": "string"
        },
        {
          "indexed": false,
          "internalType": "address",
          "name": "",
          "type": "address"
        }
      ],
      "name": "_AddEntityValidationIdEvent",
      "type": "event"
    },
    {
      "anonymous": false,
      "inputs": [
        {
          "indexed": false,
          "internalType": "address",
          "name": "",
          "type": "address"
        },
        {
          "indexed": false,
          "internalType": "address",
          "name": "",
          "type": "address"
        }
      ],
      "name": "_RemoveCertificateIdEvent",
      "type": "event"
    },
    {
      "anonymous": false,
      "inputs": [
        {
          "indexed": false,
          "internalType": "string",
          "name": "",
          "type": "string"
        },
        {
          "indexed": false,
          "internalType": "address",
          "name": "",
          "type": "address"
        }
      ],
      "name": "_RemoveEntityValidationIdEvent",
      "type": "event"
    },
    {
      "anonymous": false,
      "inputs": [
        {
          "indexed": false,
          "internalType": "address",
          "name": "",
          "type": "address"
        }
      ],
      "name": "_SendProposalId",
      "type": "event"
    },
    {
      "inputs": [
        {
          "internalType": "address",
          "name": "owner",
          "type": "address"
        },
        {
          "internalType": "string",
          "name": "ownerInfo",
          "type": "string"
        }
      ],
      "name": "addOwner",
      "outputs": [],
      "stateMutability": "nonpayable",
      "type": "function"
    },
    {
      "inputs": [
        {
          "internalType": "address",
          "name": "owner",
          "type": "address"
        }
      ],
      "name": "isOwner",
      "outputs": [
        {
          "internalType": "bool",
          "name": "",
          "type": "bool"
        }
      ],
      "stateMutability": "view",
      "type": "function"
    },
    {
      "inputs": [
        {
          "internalType": "address",
          "name": "provider",
          "type": "address"
        }
      ],
      "name": "isProvider",
      "outputs": [
        {
          "internalType": "bool",
          "name": "",
          "type": "bool"
        }
      ],
      "stateMutability": "view",
      "type": "function"
    },
    {
      "inputs": [
        {
          "internalType": "bytes32",
          "name": "CertificateHash",
          "type": "bytes32"
        },
        {
          "internalType": "address",
          "name": "holder",
          "type": "address"
        }
      ],
      "name": "removeCertificate",
      "outputs": [],
      "stateMutability": "nonpayable",
      "type": "function"
    },
    {
      "inputs": [
        {
          "internalType": "address",
          "name": "owner",
          "type": "address"
        }
      ],
      "name": "removeOwner",
      "outputs": [],
      "stateMutability": "nonpayable",
      "type": "function"
    },
    {
      "inputs": [],
      "name": "retrieveAllOwners",
      "outputs": [
        {
          "internalType": "address[]",
          "name": "",
          "type": "address[]"
        }
      ],
      "stateMutability": "view",
      "type": "function"
    },
    {
      "inputs": [],
      "name": "retrieveAllProviders",
      "outputs": [
        {
          "internalType": "address[]",
          "name": "",
          "type": "address[]"
        }
      ],
      "stateMutability": "view",
      "type": "function"
    },
    {
      "inputs": [
        {
          "internalType": "bytes32",
          "name": "CertificateHash",
          "type": "bytes32"
        },
        {
          "internalType": "address",
          "name": "holder",
          "type": "address"
        }
      ],
      "name": "retrieveCertificateProvider",
      "outputs": [
        {
          "internalType": "address",
          "name": "",
          "type": "address"
        }
      ],
      "stateMutability": "view",
      "type": "function"
    },
    {
      "inputs": [
        {
          "internalType": "address",
          "name": "holder",
          "type": "address"
        },
        {
          "internalType": "uint256",
          "name": "skipFirst",
          "type": "uint256"
        },
        {
          "internalType": "uint256",
          "name": "max",
          "type": "uint256"
        }
      ],
      "name": "retrieveCertificatesByHolder",
      "outputs": [
        {
          "internalType": "bytes32[]",
          "name": "",
          "type": "bytes32[]"
        }
      ],
      "stateMutability": "view",
      "type": "function"
    },
    {
      "inputs": [],
      "name": "retrieveMinOwners",
      "outputs": [
        {
          "internalType": "uint256",
          "name": "",
          "type": "uint256"
        }
      ],
      "stateMutability": "view",
      "type": "function"
    },
    {
      "inputs": [
        {
          "internalType": "address",
          "name": "owner",
          "type": "address"
        }
      ],
      "name": "retrieveOwner",
      "outputs": [
        {
          "internalType": "string",
          "name": "",
          "type": "string"
        },
        {
          "internalType": "bool",
          "name": "",
          "type": "bool"
        }
      ],
      "stateMutability": "view",
      "type": "function"
    },
    {
      "inputs": [
        {
          "internalType": "bool",
          "name": "addedORremove",
          "type": "bool"
        }
      ],
      "name": "retrievePendingOwners",
      "outputs": [
        {
          "internalType": "address[]",
          "name": "",
          "type": "address[]"
        },
        {
          "internalType": "string[]",
          "name": "",
          "type": "string[]"
        }
      ],
      "stateMutability": "view",
      "type": "function"
    },
    {
      "inputs": [
        {
          "internalType": "bool",
          "name": "addedORremove",
          "type": "bool"
        }
      ],
      "name": "retrievePendingProviders",
      "outputs": [
        {
          "internalType": "address[]",
          "name": "",
          "type": "address[]"
        },
        {
          "internalType": "string[]",
          "name": "",
          "type": "string[]"
        }
      ],
      "stateMutability": "view",
      "type": "function"
    },
    {
      "inputs": [
        {
          "internalType": "address",
          "name": "provider",
          "type": "address"
        }
      ],
      "name": "retrieveProvider",
      "outputs": [
        {
          "internalType": "string",
          "name": "",
          "type": "string"
        },
        {
          "internalType": "bool",
          "name": "",
          "type": "bool"
        }
      ],
      "stateMutability": "view",
      "type": "function"
    },
    {
      "inputs": [
        {
          "internalType": "address",
          "name": "holder",
          "type": "address"
        }
      ],
      "name": "retrieveTotalCertificatesByHolder",
      "outputs": [
        {
          "internalType": "uint256",
          "name": "",
          "type": "uint256"
        }
      ],
      "stateMutability": "view",
      "type": "function"
    },
    {
      "inputs": [
        {
          "internalType": "address",
          "name": "TreasuryAddress",
          "type": "address"
        }
      ],
      "name": "updateContracts",
      "outputs": [],
      "stateMutability": "nonpayable",
      "type": "function"
    },
    {
      "inputs": [
        {
          "internalType": "address",
          "name": "provider",
          "type": "address"
        },
        {
          "internalType": "string",
          "name": "providerInfo",
          "type": "string"
        }
      ],
      "name": "addProvider",
      "outputs": [],
      "stateMutability": "payable",
      "type": "function"
    },
    {
      "inputs": [
        {
          "internalType": "address",
          "name": "provider",
          "type": "address"
        }
      ],
      "name": "validateProvider",
      "outputs": [],
      "stateMutability": "nonpayable",
      "type": "function"
    },
    {
      "inputs": [
        {
          "internalType": "address",
          "name": "provider",
          "type": "address"
        }
      ],
      "name": "removeProvider",
      "outputs": [],
      "stateMutability": "nonpayable",
      "type": "function"
    },
    {
      "inputs": [
        {
          "internalType": "bytes32",
          "name": "CertificateHash",
          "type": "bytes32"
        },
        {
          "internalType": "address",
          "name": "holder",
          "type": "address"
        }
      ],
      "name": "addCertificate",
      "outputs": [],
      "stateMutability": "payable",
      "type": "function"
    }
  ],
  "bytecode": "0x600560c09081526427bbb732b960d91b60e0526080908152610140604052600861010090815267283937bb34b232b960c11b6101205260a05262000048906004906002620003e2565b50604051620036f7380380620036f78339810160408190526200006b9162000568565b808383818160026004805480602002602001604051908101604052809291908181526020016000905b828210156200014a578382906000526020600020018054620000b6906200065f565b80601f0160208091040260200160405190810160405280929190818152602001828054620000e4906200065f565b8015620001355780601f10620001095761010080835404028352916020019162000135565b820191906000526020600020905b8154815290600101906020018083116200011757829003601f168201915b50505050508152602001906001019062000094565b5050505060008451841115620001955760405162461bcd60e51b81526004016200018c9060208082526004908201526322a1989b60e11b604082015260600190565b60405180910390fd5b60008411620001d05760405162461bcd60e51b81526004016200018c906020808252600490820152634543313760e01b604082015260600190565b815183146200020b5760405162461bcd60e51b81526004016200018c9060208082526004908201526308a8662760e31b604082015260600190565b60008181555b838110156200028a576002805460010181556000528251600390849083908110620002405762000240620006c6565b6020908102919091018101518254600181018455600093845292829020815162000274949190910192919091019062000446565b508062000281816200069c565b91505062000211565b50600184905560005b8551811015620003af576001600260005481548110620002b757620002b7620006c6565b90600052602060002090600402016000016000888481518110620002df57620002df620006c6565b60200260200101516001600160a01b03166001600160a01b0316815260200190815260200160002060000160006101000a81548160ff021916908315150217905550600260005481548110620003395762000339620006c6565b90600052602060002090600402016001018682815181106200035f576200035f620006c6565b60209081029190910181015182546001810184556000938452919092200180546001600160a01b0319166001600160a01b0390921691909117905580620003a6816200069c565b91505062000293565b5050600680546001600160a01b0319166001600160a01b03989098169790971790965550620006f2975050505050505050565b82805482825590600052602060002090810192821562000434579160200282015b828111156200043457825180516200042391849160209091019062000446565b509160200191906001019062000403565b5062000442929150620004d1565b5090565b82805462000454906200065f565b90600052602060002090601f016020900481019282620004785760008555620004c3565b82601f106200049357805160ff1916838001178555620004c3565b82800160010185558215620004c3579182015b82811115620004c3578251825591602001919060010190620004a6565b5062000442929150620004f2565b8082111562000442576000620004e8828262000509565b50600101620004d1565b5b80821115620004425760008155600101620004f3565b50805462000517906200065f565b6000825580601f1062000528575050565b601f016020900490600052602060002090810190620005489190620004f2565b50565b80516001600160a01b03811681146200056357600080fd5b919050565b6000806000606084860312156200057e57600080fd5b83516001600160401b03808211156200059657600080fd5b818601915086601f830112620005ab57600080fd5b8151602082821115620005c257620005c2620006dc565b8160051b604051601f19603f83011681018181108682111715620005ea57620005ea620006dc565b604052838152828101945085830182870184018c10156200060a57600080fd5b600096505b84871015620006385762000623816200054b565b8652600196909601959483019483016200060f565b5080985050508088015195505050505062000656604085016200054b565b90509250925092565b600181811c908216806200067457607f821691505b602082108114156200069657634e487b7160e01b600052602260045260246000fd5b50919050565b6000600019821415620006bf57634e487b7160e01b600052601160045260246000fd5b5060010190565b634e487b7160e01b600052603260045260246000fd5b634e487b7160e01b600052604160045260246000fd5b612ff580620007026000396000f3fe6080604052600436106100ef5760003560e01c8063173825d9146100f45780631ab807f814610116578063279958a91461012957806327a40b4b146101495780632f54bf6e146101695780633542758f1461019e57806337583499146101be57806358a1ba25146101ec57806365b973e5146102195780636b074a07146102385780636b299604146102585780636b3a0fec146102865780636e4f9179146102a65780636e55d2d4146102c857806377bc5a1f146102e85780638a355a5714610308578063a73db28a14610328578063a93d5ed614610348578063d0a4adfe1461035d578063fc000500146103b0575b600080fd5b34801561010057600080fd5b5061011461010f366004612910565b6103c3565b005b610114610124366004612ae9565b610431565b34801561013557600080fd5b50610114610144366004612910565b6104a4565b34801561015557600080fd5b50610114610164366004612910565b610512565b34801561017557600080fd5b50610189610184366004612910565b61077d565b60405190151581526020015b60405180910390f35b3480156101aa57600080fd5b506101146101b936600461292b565b610791565b3480156101ca57600080fd5b506101de6101d9366004612910565b61079e565b604051610195929190612cc5565b3480156101f857600080fd5b5061020c6102073660046129d0565b6107b6565b6040516101959190612c59565b34801561022557600080fd5b506001545b604051908152602001610195565b34801561024457600080fd5b50610189610253366004612910565b61095c565b34801561026457600080fd5b50610278610273366004612aaf565b610969565b604051610195929190612be7565b34801561029257600080fd5b506102786102a1366004612aaf565b610978565b3480156102b257600080fd5b506102bb610986565b6040516101959190612bd4565b3480156102d457600080fd5b5061022a6102e3366004612910565b610997565b3480156102f457600080fd5b506101de610303366004612910565b6109b5565b34801561031457600080fd5b50610114610323366004612910565b6109c5565b34801561033457600080fd5b50610114610343366004612ae9565b610a03565b34801561035457600080fd5b506102bb610cb8565b34801561036957600080fd5b506103a3610378366004612ae9565b6001600160a01b03908116600090815260056020908152604080832094835293905291909120541690565b6040516101959190612ba6565b6101146103be36600461292b565b610cc5565b60015460016103d3600054610e2e565b516103de9190612eec565b808211156104205760405162461bcd60e51b8152600401610417906020808252600490820152634543313960e01b604082015260600190565b60405180910390fd5b61042c83600054610f66565b505050565b600854604051637864992f60e11b81526001600160a01b039091169063f0c9325e90349061046490600290600401612c9d565b6000604051808303818588803b15801561047d57600080fd5b505af1158015610491573d6000803e3d6000fd5b50505050506104a0828261175a565b5050565b6006546104b9906001600160a01b0316611873565b15156001146104f05760405162461bcd60e51b815260206004820152600360248201526208a86760eb1b6044820152606401610417565b600880546001600160a01b0319166001600160a01b0392909216919091179055565b6001816001600160a01b03811660009081526007602052604090205460ff1615156001146105685760405162461bcd60e51b81526020600482015260036024820152621150cd60ea1b6044820152606401610417565b61063783600260018154811061058057610580612f85565b600091825260208083206001600160a01b0389168452600490920290910190526040902060010180546105b290612f03565b80601f01602080910402602001604051908101604052809291908181526020018280546105de90612f03565b801561062b5780601f106106005761010080835404028352916020019161062b565b820191906000526020600020905b81548152906001019060200180831161060e57829003601f168201915b50505050506001611896565b6106408361095c565b15156001141561042c576000600260018154811061066057610660612f85565b600091825260208083206001600160a01b038816845260049092029091019052604081206002015491505b8181101561077657600854600280546001600160a01b039092169163eb1e2a41919060019081106106be576106be612f85565b600091825260208083206001600160a01b038b16845260049092029091019052604090206002018054849081106106f7576106f7612f85565b60009182526020909120015460405160e083901b6001600160e01b03191681526001600160a01b03909116600482015260248101859052604401600060405180830381600087803b15801561074b57600080fd5b505af115801561075f573d6000803e3d6000fd5b50505050808061076e90612f3e565b91505061068b565b5050505050565b600061078b82600054611f7b565b92915050565b6104a08282600054611896565b606060006107ad836001612072565b91509150915091565b6060826107c285610997565b116107dc5750604080516000815260208101909152610955565b8180846107e887610997565b6107f29190612eec565b101561080f578361080286610997565b61080c9190612eec565b90505b6000816001600160401b0381111561082957610829612f9b565b604051908082528060200260200182016040528015610852578160200160208202803683370190505b506001600160a01b0387166000908152600560209081526040808320600101805482518185028101850190935280835294955092939092918301828280156108b957602002820191906000526020600020905b8154815260200190600101908083116108a5575b5050505050905060008060005b835181101561094c578783106108db5761094c565b818911156108f5576108ee600183612ed4565b915061093a565b83818151811061090757610907612f85565b602002602001015185848151811061092157610921612f85565b6020908102919091010152610937600184612ed4565b92505b8061094481612f3e565b9150506108c6565b50929450505050505b9392505050565b600061078b826001611f7b565b6060806107ad83600054612205565b6060806107ad836001612205565b60606109926001610e2e565b905090565b6001600160a01b031660009081526005602052604090206001015490565b606060006107ad83600054612072565b6109d0816001610f66565b6109db816001611f7b565b610a00576001600160a01b0381166000908152600760205260409020805460ff191690555b50565b610a0c3361095c565b1515600114610a2d5760405162461bcd60e51b815260040161041790612dc7565b6001600160a01b0381811660009081526005602090815260408083208684529091529020548291849116331480610a6c5750336001600160a01b038316145b610aa15760405162461bcd60e51b8152600401610417906020808252600490820152631150cc4d60e21b604082015260600190565b6001600160a01b0380841660008181526005602081815260408084208a855280835281852054958552928252600190920180548351818402810184019094528084529490951694929391929190830182828015610b1d57602002820191906000526020600020905b815481526020019060010190808311610b09575b5050505050905060005b8151811015610c4457818181518110610b4257610b42612f85565b6020026020010151871415610c32576001600160a01b038616600090815260056020526040908190209051635b28cf6360e01b815273__Library_______________________________91635b28cf6391610ba7918591600190910190600401612e50565b60006040518083038186803b158015610bbf57600080fd5b505af4158015610bd3573d6000803e3d6000fd5b505050506040513d6000823e601f3d908101601f19168201604052610bfb9190810190612a03565b6001600160a01b03871660009081526005602090815260409091208251610c2c936001909201929190910190612778565b50610c44565b80610c3c81612f3e565b915050610b27565b506001600160a01b03851660009081526005602090815260408083208984529091529081902080546001600160a01b0319169055517fd12847594abf0621035046f61129f2a9dc5093eb516c6c517ece306362ef6f1790610ca89084908890612bba565b60405180910390a1505050505050565b6060610992600054610e2e565b6000826001600160a01b03811660009081526007602052604090205460ff1615610d175760405162461bcd60e51b815260206004820152600360248201526245433360e81b6044820152606401610417565b600854604051637864992f60e11b81526001600160a01b039091169063f0c9325e903490610d4a90600090600401612c9d565b6000604051808303818588803b158015610d6357600080fd5b505af1158015610d77573d6000803e3d6000fd5b5050505050826002600181548110610d9157610d91612f85565b600091825260208083206001600160a01b03891684526004909202909101815260409091208251610dcc9360019092019291909101906127c3565b506001600160a01b03841660009081526007602052604090819020805460ff19166001179055517fbaf065d025fe427c7c36f893bdec1c49e6c164c4a6531f4216f64e6e876a9a4f90610e20908690612ba6565b60405180910390a150505050565b60025460405163123bd07560e11b8152606091839173__Library_______________________________90632477a0ea90610e6f9085908590600401612e96565b60206040518083038186803b158015610e8757600080fd5b505af4158015610e9b573d6000803e3d6000fd5b505050506040513d601f19601f82011682018060405250810190610ebf9190612acc565b1515600114610ee05760405162461bcd60e51b815260040161041790612de5565b60028481548110610ef357610ef3612f85565b9060005260206000209060040201600101805480602002602001604051908101604052809291908181526020018280548015610f5857602002820191906000526020600020905b81546001600160a01b03168152600190910190602001808311610f3a575b505050505092505050919050565b60025460405163123bd07560e11b815282919073__Library_______________________________90632477a0ea90610fa59085908590600401612e96565b60206040518083038186803b158015610fbd57600080fd5b505af4158015610fd1573d6000803e3d6000fd5b505050506040513d601f19601f82011682018060405250810190610ff59190612acc565b15156001146110165760405162461bcd60e51b815260040161041790612de5565b8361102333600054611f7b565b15156001148061103b5750336001600160a01b038216145b6110705760405162461bcd60e51b8152600401610417906020808252600490820152630454331360e41b604082015260600190565b6001858561107e8282611f7b565b15156001146110b55760405162461bcd60e51b815260206004820152600360248201526245433760e81b6044820152606401610417565b6001600288815481106110ca576110ca612f85565b600091825260208083206001600160a01b038d16845260049092029091018152604091829020825160808101909352805460ff1615158352600181018054919284019161111690612f03565b80601f016020809104026020016040519081016040528092919081815260200182805461114290612f03565b801561118f5780601f106111645761010080835404028352916020019161118f565b820191906000526020600020905b81548152906001019060200180831161117257829003601f168201915b50505050508152602001600282018054806020026020016040519081016040528092919081815260200182805480156111f157602002820191906000526020600020905b81546001600160a01b031681526001909101906020018083116111d3575b505050505081526020016003820180548060200260200160405190810160405280929190818152602001828054801561125357602002820191906000526020600020905b81546001600160a01b03168152600190910190602001808311611235575b50505050508152505081600181111561126e5761126e612f6f565b6112a257611280338260400151612487565b1561129d5760405162461bcd60e51b815260040161041790612daa565b6112cd565b6112b0338260600151612487565b156112cd5760405162461bcd60e51b815260040161041790612daa565b600289815481106112e0576112e0612f85565b600091825260208083206001600160a01b038e16845260049092029091019052604090206003015461135d576002898154811061131f5761131f612f85565b60009182526020808320600492909202909101600301805460018101825590835291200180546001600160a01b0319166001600160a01b038c161790555b6002898154811061137057611370612f85565b600091825260208083206001600160a01b038e168085526004909302018152604083206003018054600181018255908452922090910180546001600160a01b031916339081179091551480611406575061140660028a815481106113d6576113d6612f85565b600091825260208083206001600160a01b038f1684526004909202909101905260409020600301546001546124ed565b1561174e576115166114948b60028c8154811061142557611425612f85565b906000526020600020906004020160010180548060200260200160405190810160405280929190818152602001828054801561148a57602002820191906000526020600020905b81546001600160a01b0316815260019091019060200180831161146c575b5050505050612508565b60028b815481106114a7576114a7612f85565b906000526020600020906004020160010180548060200260200160405190810160405280929190818152602001828054801561150c57602002820191906000526020600020905b81546001600160a01b031681526001909101906020018083116114ee575b5050505050612525565b60028a8154811061152957611529612f85565b9060005260206000209060040201600101908051906020019061154d929190612836565b506116556115d58b60028c8154811061156857611568612f85565b906000526020600020906004020160030180548060200260200160405190810160405280929190818152602001828054801561148a576020028201919060005260206000209081546001600160a01b0316815260019091019060200180831161146c575050505050612508565b60028b815481106115e8576115e8612f85565b906000526020600020906004020160030180548060200260200160405190810160405280929190818152602001828054801561150c576020028201919060005260206000209081546001600160a01b031681526001909101906020018083116114ee575050505050612525565b60028a8154811061166857611668612f85565b9060005260206000209060040201600301908051906020019061168c929190612836565b50600289815481106116a0576116a0612f85565b600091825260208083206001600160a01b038e1684526004909202909101905260408120805460ff19168155906116da600183018261288b565b6116e86002830160006128c5565b6116f66003830160006128c5565b50507f1f62d535f971041db7bd8760bf0f1f9f476461558744a35c0d477b5ad6893e8960038a8154811061172c5761172c612f85565b906000526020600020018b604051611745929190612ce9565b60405180910390a15b50505050505050505050565b6117633361095c565b15156001146117845760405162461bcd60e51b815260040161041790612dc7565b816001600160a01b0380831660009081526005602090815260408083208784529091529020548391859116156117e55760405162461bcd60e51b8152600401610417906020808252600490820152634543313560e01b604082015260600190565b6001600160a01b038416600090815260056020818152604080842089855280835281852080546001600160a01b031916339081179091559383526001908101805491820181558552919093200187905590517f601cb9a073dbfa468ef12878ee6c720641a49b76af7c16099e8c0a1ac3ca79b591611864918790612bba565b60405180910390a15050505050565b6000336001600160a01b038316141561188e57506001919050565b506000919050565b60025460405163123bd07560e11b815282919073__Library_______________________________90632477a0ea906118d59085908590600401612e96565b60206040518083038186803b1580156118ed57600080fd5b505af4158015611901573d6000803e3d6000fd5b505050506040513d601f19601f820116820180604052508101906119259190612acc565b15156001146119465760405162461bcd60e51b815260040161041790612de5565b61195233600054611f7b565b15156001146119895760405162461bcd60e51b815260206004820152600360248201526245433960e81b6044820152606401610417565b600085846119978282611f7b565b156119ca5760405162461bcd60e51b815260206004820152600360248201526222a19b60e91b6044820152606401610417565b6000600287815481106119df576119df612f85565b600091825260208083206001600160a01b038d16845260049092029091018152604091829020825160808101909352805460ff16151583526001810180549192840191611a2b90612f03565b80601f0160208091040260200160405190810160405280929190818152602001828054611a5790612f03565b8015611aa45780601f10611a7957610100808354040283529160200191611aa4565b820191906000526020600020905b815481529060010190602001808311611a8757829003601f168201915b5050505050815260200160028201805480602002602001604051908101604052809291908181526020018280548015611b0657602002820191906000526020600020905b81546001600160a01b03168152600190910190602001808311611ae8575b5050505050815260200160038201805480602002602001604051908101604052809291908181526020018280548015611b6857602002820191906000526020600020905b81546001600160a01b03168152600190910190602001808311611b4a575b505050505081525050816001811115611b8357611b83612f6f565b611bb757611b95338260400151612487565b15611bb25760405162461bcd60e51b815260040161041790612daa565b611be2565b611bc5338260600151612487565b15611be25760405162461bcd60e51b815260040161041790612daa565b60028881548110611bf557611bf5612f85565b600091825260208083206001600160a01b038e168452600490920290910190526040902060020154611cc2578860028981548110611c3557611c35612f85565b600091825260208083206001600160a01b038f1684526004909202909101815260409091208251611c709360019092019291909101906127c3565b5060028881548110611c8457611c84612f85565b60009182526020808320600492909202909101600201805460018101825590835291200180546001600160a01b0319166001600160a01b038c161790555b60028881548110611cd557611cd5612f85565b600091825260208083206001600160a01b038e168452600490920290910181526040822060029081018054600181018255908452919092200180546001600160a01b031916331790558054611d6591908a908110611d3557611d35612f85565b600091825260208083206001600160a01b038f1684526004909202909101905260409020600201546001546124ed565b1561174e57600160028981548110611d7f57611d7f612f85565b600091825260208083206001600160a01b038f168452600492909202909101905260409020805460ff19169115159190911790556002805489908110611dc757611dc7612f85565b60009182526020808320600160049093020182018054928301815583529091200180546001600160a01b038c166001600160a01b031990911617905560028054611f0f91611e8f918d91908c908110611e2257611e22612f85565b906000526020600020906004020160020180548060200260200160405190810160405280929190818152602001828054801561148a576020028201919060005260206000209081546001600160a01b0316815260019091019060200180831161146c575050505050612508565b60028a81548110611ea257611ea2612f85565b906000526020600020906004020160020180548060200260200160405190810160405280929190818152602001828054801561150c576020028201919060005260206000209081546001600160a01b031681526001909101906020018083116114ee575050505050612525565b60028981548110611f2257611f22612f85565b90600052602060002090600402016002019080519060200190611f46929190612836565b507f3c139d46a211844e248647688545a37c07c505c999c1232d1247c707dc0a91e26003898154811061172c5761172c612f85565b60025460405163123bd07560e11b8152600091839173__Library_______________________________90632477a0ea90611fbc9085908590600401612e96565b60206040518083038186803b158015611fd457600080fd5b505af4158015611fe8573d6000803e3d6000fd5b505050506040513d601f19601f8201168201806040525081019061200c9190612acc565b151560011461202d5760405162461bcd60e51b815260040161041790612de5565b6002848154811061204057612040612f85565b600091825260208083206001600160a01b038916845260049092029091019052604090205460ff169250505092915050565b60025460405163123bd07560e11b815260609160009184919073__Library_______________________________90632477a0ea906120b79085908590600401612e96565b60206040518083038186803b1580156120cf57600080fd5b505af41580156120e3573d6000803e3d6000fd5b505050506040513d601f19601f820116820180604052508101906121079190612acc565b15156001146121285760405162461bcd60e51b815260040161041790612de5565b6002858154811061213b5761213b612f85565b600091825260208083206001600160a01b038a168452600490920290910190526040902060010161216c8787611f7b565b81805461217890612f03565b80601f01602080910402602001604051908101604052809291908181526020018280546121a490612f03565b80156121f15780601f106121c6576101008083540402835291602001916121f1565b820191906000526020600020905b8154815290600101906020018083116121d457829003601f168201915b505050505091509350935050509250929050565b60025460405163123bd07560e11b8152606091829184919073__Library_______________________________90632477a0ea906122499085908590600401612e96565b60206040518083038186803b15801561226157600080fd5b505af4158015612275573d6000803e3d6000fd5b505050506040513d601f19601f820116820180604052508101906122999190612acc565b15156001146122ba5760405162461bcd60e51b815260040161041790612de5565b6060861561234657600286815481106122d5576122d5612f85565b906000526020600020906004020160020180548060200260200160405190810160405280929190818152602001828054801561233a57602002820191906000526020600020905b81546001600160a01b0316815260019091019060200180831161231c575b505050505090506123c6565b6002868154811061235957612359612f85565b90600052602060002090600402016003018054806020026020016040519081016040528092919081815260200182805480156123be57602002820191906000526020600020905b81546001600160a01b031681526001909101906020018083116123a0575b505050505090505b6002546000906001600160401b038111156123e3576123e3612f9b565b60405190808252806020026020018201604052801561241657816020015b60608152602001906001900390816124015790505b50905060005b82518110156124795761244883828151811061243a5761243a612f85565b602002602001015189612072565b5082828151811061245b5761245b612f85565b6020026020010181905250808061247190612f3e565b91505061241c565b509097909650945050505050565b6000805b82518110156124e3578281815181106124a6576124a6612f85565b60200260200101516001600160a01b0316846001600160a01b031614156124d157600191505061078b565b806124db81612f3e565b91505061248b565b5060009392505050565b6000818310156124ff5750600061078b565b50600192915050565b60006109556001600160a01b038416612520846125c4565b612675565b606061095573__Library_______________________________635b28cf638561254e866125c4565b6040518363ffffffff1660e01b815260040161256b929190612e02565b60006040518083038186803b15801561258357600080fd5b505af4158015612597573d6000803e3d6000fd5b505050506040513d6000823e601f3d908101601f191682016040526125bf9190810190612a03565b6126ca565b6060600082516001600160401b038111156125e1576125e1612f9b565b60405190808252806020026020018201604052801561260a578160200160208202803683370190505b50905060005b815181101561266e5783818151811061262b5761262b612f85565b60200260200101516001600160a01b031660001b82828151811061265157612651612f85565b60209081029190910101528061266681612f3e565b915050612610565b5092915050565b6000805b82518110156126bc5782818151811061269457612694612f85565b60200260200101518414156126aa57905061078b565b806126b481612f3e565b915050612679565b508151610955906001612ed4565b6060600082516001600160401b038111156126e7576126e7612f9b565b604051908082528060200260200182016040528015612710578160200160208202803683370190505b50905060005b815181101561266e5783818151811061273157612731612f85565b602002602001015160001c82828151811061274e5761274e612f85565b6001600160a01b03909216602092830291909101909101528061277081612f3e565b915050612716565b8280548282559060005260206000209081019282156127b3579160200282015b828111156127b3578251825591602001919060010190612798565b506127bf9291506128df565b5090565b8280546127cf90612f03565b90600052602060002090601f0160209004810192826127f157600085556127b3565b82601f1061280a57805160ff19168380011785556127b3565b828001600101855582156127b357918201828111156127b3578251825591602001919060010190612798565b8280548282559060005260206000209081019282156127b3579160200282015b828111156127b357825182546001600160a01b0319166001600160a01b03909116178255602090920191600190910190612856565b50805461289790612f03565b6000825580601f106128a7575050565b601f016020900490600052602060002090810190610a0091906128df565b5080546000825590600052602060002090810190610a0091905b5b808211156127bf57600081556001016128e0565b80356001600160a01b038116811461290b57600080fd5b919050565b60006020828403121561292257600080fd5b610955826128f4565b6000806040838503121561293e57600080fd5b612947836128f4565b91506020838101356001600160401b038082111561296457600080fd5b818601915086601f83011261297857600080fd5b81358181111561298a5761298a612f9b565b61299c601f8201601f19168501612ea4565b915080825287848285010111156129b257600080fd5b80848401858401376000848284010152508093505050509250929050565b6000806000606084860312156129e557600080fd5b6129ee846128f4565b95602085013595506040909401359392505050565b60006020808385031215612a1657600080fd5b82516001600160401b0380821115612a2d57600080fd5b818501915085601f830112612a4157600080fd5b815181811115612a5357612a53612f9b565b8060051b9150612a64848301612ea4565b8181528481019084860184860187018a1015612a7f57600080fd5b600095505b83861015612aa2578051835260019590950194918601918601612a84565b5098975050505050505050565b600060208284031215612ac157600080fd5b813561095581612fb1565b600060208284031215612ade57600080fd5b815161095581612fb1565b60008060408385031215612afc57600080fd5b82359150612b0c602084016128f4565b90509250929050565b600081518084526020808501945080840160005b83811015612b4e5781516001600160a01b031687529582019590820190600101612b29565b509495945050505050565b6000815180845260005b81811015612b7f57602081850181015186830182015201612b63565b81811115612b91576000602083870101525b50601f01601f19169290920160200192915050565b6001600160a01b0391909116815260200190565b6001600160a01b0392831681529116602082015260400190565b6020815260006109556020830184612b15565b604081526000612bfa6040830185612b15565b6020838203818501528185518084528284019150828160051b85010183880160005b83811015612c4a57601f19878403018552612c38838351612b59565b94860194925090850190600101612c1c565b50909998505050505050505050565b6020808252825182820181905260009190848201906040850190845b81811015612c9157835183529284019291840191600101612c75565b50909695505050505050565b6020810160038310612cbf57634e487b7160e01b600052602160045260246000fd5b91905290565b604081526000612cd86040830185612b59565b905082151560208301529392505050565b60408152600080845481600182811c915080831680612d0957607f831692505b6020808410821415612d2957634e487b7160e01b86526022600452602486fd5b6040880184905260608801828015612d485760018114612d5957612d84565b60ff19871682528282019750612d84565b60008c81526020902060005b87811015612d7e57815484820152908601908401612d65565b83019850505b5050859650612d9d8189018a6001600160a01b03169052565b5050505050509392505050565b60208082526003908201526245433560e81b604082015260600190565b60208082526004908201526322a1989960e11b604082015260600190565b60208082526003908201526245433160e81b604082015260600190565b6000604082018483526020604081850152818551808452606086019150828701935060005b81811015612e4357845183529383019391830191600101612e27565b5090979650505050505050565b60006040820184835260206040818501528185548084526060860191508660005282600020935060005b81811015612e4357845483526001948501949284019201612e7a565b918252602082015260400190565b604051601f8201601f191681016001600160401b0381118282101715612ecc57612ecc612f9b565b604052919050565b60008219821115612ee757612ee7612f59565b500190565b600082821015612efe57612efe612f59565b500390565b600181811c90821680612f1757607f821691505b60208210811415612f3857634e487b7160e01b600052602260045260246000fd5b50919050565b6000600019821415612f5257612f52612f59565b5060010190565b634e487b7160e01b600052601160045260246000fd5b634e487b7160e01b600052602160045260246000fd5b634e487b7160e01b600052603260045260246000fd5b634e487b7160e01b600052604160045260246000fd5b8015158114610a0057600080fdfea2646970667358221220dc9edf0aab4095dfb52254c9132f1bb4dce4dd9936a59568a376194c2e87060964736f6c63430008060033",
  "immutableReferences": {},
  "source": "// SPDX-License-Identifier: GPL-3.0\r\n\r\npragma solidity >=0.7.0 <0.9.0;\r\npragma experimental ABIEncoderV2;\r\n\r\n/**\r\n * @title Storage\r\n * @dev Store & retrieve value in a variable\r\n */\r\n\r\n import \"./Abstract/MultiSigCertificatesPool.sol\";\r\n import \"./Interfaces/IPublicPool.sol\";\r\n import \"./Treasury.sol\";\r\n import \"./Libraries/Library.sol\";\r\n import \"./Base/ManagedBaseContract.sol\";\r\n\r\n contract PublicCertificatesPool is MultiSigCertificatesPool, IPublicPool, ManagedBaseContract {\r\n    using Library for *;\r\n\r\n    // events\r\n    event _SendProposalId(address);\r\n\r\n    //modifiers\r\n    modifier hasBeenSubmitted(bool YesOrNo, address provider){\r\n        if(false == YesOrNo) require(false == _submited[provider], \"EC3\");\r\n        else require(true == _submited[provider], \"EC4\");\r\n        _;\r\n    }\r\n\r\n    // submitted providers (in progress or already validated)\r\n    mapping(address => bool) _submited;\r\n\r\n    // Treasury\r\n    Treasury _Treasury;\r\n\r\n    // Constructor\r\n    constructor(address[] memory owners,  uint256 minOwners, address managerContractAddress)\r\n    MultiSigCertificatesPool(owners, minOwners) \r\n    ManagedBaseContract(managerContractAddress) payable \r\n    {}\r\n\r\n    // functionality\r\n    function updateContracts(address TreasuryAddress) external\r\n        isFromManagerContract()\r\n    {\r\n        _Treasury = Treasury(TreasuryAddress);\r\n    }\r\n\r\n    function addProvider(address provider, string memory providerInfo) external \r\n        hasBeenSubmitted(false, provider)\r\n    override payable\r\n    {\r\n        _Treasury.pay{value:msg.value}(Library.Prices.NewProvider);\r\n        _Entities[_providerId]._entities[provider]._Info = providerInfo;\r\n        _submited[provider] = true;\r\n\r\n        emit _SendProposalId(provider);\r\n    }\r\n\r\n    function validateProvider(address provider) external \r\n        hasBeenSubmitted(true, provider)\r\n    override\r\n    {\r\n        addEntity(provider, _Entities[_providerId]._entities[provider]._Info, _providerId);\r\n\r\n        if(true == isProvider(provider)){\r\n            uint totalValidators = _Entities[_providerId]._entities[provider]._AddValidated.length;\r\n\r\n            for(uint i=0; i < totalValidators; i++){\r\n                _Treasury.getRefund(_Entities[_providerId]._entities[provider]._AddValidated[i], totalValidators);\r\n            }\r\n        }\r\n    }\r\n\r\n    function removeProvider(address provider) external override{\r\n       removeEntity(provider, _providerId); \r\n\r\n       if(false == isEntity(provider, _providerId)){\r\n            delete(_submited[provider]);\r\n       }\r\n    }\r\n\r\n    function addCertificate(bytes32 CertificateHash, address holder) external override payable\r\n    {\r\n        _Treasury.pay{value:msg.value}(Library.Prices.NewCertificate);\r\n        addCertificateInternal(CertificateHash, holder);\r\n    }\r\n\r\n }",
  "sourcePath": "C:\\Users\\d-aam\\GitHub\\Certificates\\contracts\\PublicCertificatesPool.sol",
  "compiler": {
    "name": "solc",
    "version": "0.8.6+commit.11564f7e.Emscripten.clang"
  },
  "schemaVersion": "3.3.4",
  "updatedAt": "2021-07-23T08:25:14.221Z",
  "devdoc": {
    "kind": "dev",
    "methods": {},
    "version": 1
  },
  "userdoc": {
    "kind": "user",
    "methods": {},
    "version": 1
  }
}