{
  "contractName": "PublicCertificatesPool",
  "abi": [
    {
      "anonymous": false,
      "inputs": [
        {
          "indexed": true,
          "internalType": "address",
          "name": "Provider",
          "type": "address"
        },
        {
          "indexed": true,
          "internalType": "address",
          "name": "Holder",
          "type": "address"
        },
        {
          "indexed": false,
          "internalType": "bytes32",
          "name": "Certificate",
          "type": "bytes32"
        }
      ],
      "name": "_AddCertificate",
      "type": "event"
    },
    {
      "anonymous": false,
      "inputs": [
        {
          "indexed": false,
          "internalType": "string",
          "name": "ItemType",
          "type": "string"
        },
        {
          "indexed": true,
          "internalType": "bytes32",
          "name": "Item",
          "type": "bytes32"
        },
        {
          "indexed": false,
          "internalType": "string",
          "name": "Info",
          "type": "string"
        }
      ],
      "name": "_AddItemRejection",
      "type": "event"
    },
    {
      "anonymous": false,
      "inputs": [
        {
          "indexed": false,
          "internalType": "string",
          "name": "ItemType",
          "type": "string"
        },
        {
          "indexed": true,
          "internalType": "bytes32",
          "name": "Item",
          "type": "bytes32"
        },
        {
          "indexed": false,
          "internalType": "string",
          "name": "Info",
          "type": "string"
        }
      ],
      "name": "_AddItemValidation",
      "type": "event"
    },
    {
      "anonymous": false,
      "inputs": [
        {
          "indexed": true,
          "internalType": "address",
          "name": "Provider",
          "type": "address"
        },
        {
          "indexed": false,
          "internalType": "string",
          "name": "Info",
          "type": "string"
        }
      ],
      "name": "_NewProposal",
      "type": "event"
    },
    {
      "anonymous": false,
      "inputs": [
        {
          "indexed": false,
          "internalType": "string",
          "name": "ItemType",
          "type": "string"
        },
        {
          "indexed": true,
          "internalType": "bytes32",
          "name": "Item",
          "type": "bytes32"
        },
        {
          "indexed": false,
          "internalType": "string",
          "name": "Info",
          "type": "string"
        }
      ],
      "name": "_RemoveItemRejection",
      "type": "event"
    },
    {
      "anonymous": false,
      "inputs": [
        {
          "indexed": false,
          "internalType": "string",
          "name": "ItemType",
          "type": "string"
        },
        {
          "indexed": true,
          "internalType": "bytes32",
          "name": "Item",
          "type": "bytes32"
        },
        {
          "indexed": false,
          "internalType": "string",
          "name": "Info",
          "type": "string"
        }
      ],
      "name": "_RemoveItemValidation",
      "type": "event"
    },
    {
      "inputs": [
        {
          "internalType": "address[]",
          "name": "owners",
          "type": "address[]"
        },
        {
          "internalType": "uint256",
          "name": "minOwners",
          "type": "uint256"
        },
        {
          "internalType": "string",
          "name": "contractName",
          "type": "string"
        },
        {
          "internalType": "string",
          "name": "contractVersion",
          "type": "string"
        }
      ],
      "name": "MultiSigCertPool_init",
      "outputs": [],
      "stateMutability": "nonpayable",
      "type": "function"
    },
    {
      "inputs": [
        {
          "internalType": "address[]",
          "name": "owners",
          "type": "address[]"
        },
        {
          "internalType": "uint256",
          "name": "minOwners",
          "type": "uint256"
        },
        {
          "internalType": "uint256",
          "name": "TotalEntities",
          "type": "uint256"
        },
        {
          "internalType": "string[]",
          "name": "labels",
          "type": "string[]"
        },
        {
          "internalType": "uint256",
          "name": "ownerId",
          "type": "uint256"
        }
      ],
      "name": "MultiSigContract_init",
      "outputs": [],
      "stateMutability": "nonpayable",
      "type": "function"
    },
    {
      "inputs": [
        {
          "internalType": "bytes32",
          "name": "CertificateHash",
          "type": "bytes32"
        },
        {
          "internalType": "address",
          "name": "holder",
          "type": "address"
        }
      ],
      "name": "addCertificate",
      "outputs": [],
      "stateMutability": "payable",
      "type": "function",
      "payable": true
    },
    {
      "inputs": [
        {
          "internalType": "address",
          "name": "provider",
          "type": "address"
        },
        {
          "internalType": "bytes32",
          "name": "CertificateHash",
          "type": "bytes32"
        },
        {
          "internalType": "address",
          "name": "holder",
          "type": "address"
        },
        {
          "internalType": "uint256",
          "name": "nonce",
          "type": "uint256"
        },
        {
          "internalType": "uint256",
          "name": "deadline",
          "type": "uint256"
        },
        {
          "internalType": "bytes",
          "name": "signature",
          "type": "bytes"
        }
      ],
      "name": "addCertificateOnBehalfOf",
      "outputs": [],
      "stateMutability": "payable",
      "type": "function",
      "payable": true
    },
    {
      "inputs": [
        {
          "internalType": "address",
          "name": "owner",
          "type": "address"
        },
        {
          "internalType": "string",
          "name": "ownerInfo",
          "type": "string"
        }
      ],
      "name": "addOwner",
      "outputs": [],
      "stateMutability": "nonpayable",
      "type": "function"
    },
    {
      "inputs": [
        {
          "internalType": "uint256",
          "name": "newMinOwners",
          "type": "uint256"
        }
      ],
      "name": "changeMinOwners",
      "outputs": [],
      "stateMutability": "nonpayable",
      "type": "function"
    },
    {
      "inputs": [],
      "name": "rejectMinOwners",
      "outputs": [],
      "stateMutability": "nonpayable",
      "type": "function"
    },
    {
      "inputs": [
        {
          "internalType": "address",
          "name": "owner",
          "type": "address"
        }
      ],
      "name": "rejectOwner",
      "outputs": [],
      "stateMutability": "nonpayable",
      "type": "function"
    },
    {
      "inputs": [
        {
          "internalType": "address",
          "name": "provider",
          "type": "address"
        }
      ],
      "name": "rejectProvider",
      "outputs": [],
      "stateMutability": "nonpayable",
      "type": "function"
    },
    {
      "inputs": [
        {
          "internalType": "address",
          "name": "owner",
          "type": "address"
        }
      ],
      "name": "removeOwner",
      "outputs": [],
      "stateMutability": "nonpayable",
      "type": "function"
    },
    {
      "inputs": [
        {
          "internalType": "address",
          "name": "provider",
          "type": "address"
        }
      ],
      "name": "removeProvider",
      "outputs": [],
      "stateMutability": "nonpayable",
      "type": "function"
    },
    {
      "inputs": [],
      "name": "retrieveAllOwners",
      "outputs": [
        {
          "internalType": "bytes32[]",
          "name": "",
          "type": "bytes32[]"
        }
      ],
      "stateMutability": "view",
      "type": "function",
      "constant": true
    },
    {
      "inputs": [],
      "name": "retrieveAllProviders",
      "outputs": [
        {
          "internalType": "bytes32[]",
          "name": "",
          "type": "bytes32[]"
        }
      ],
      "stateMutability": "view",
      "type": "function",
      "constant": true
    },
    {
      "inputs": [
        {
          "internalType": "bytes32",
          "name": "CertificateHash",
          "type": "bytes32"
        },
        {
          "internalType": "address",
          "name": "holder",
          "type": "address"
        }
      ],
      "name": "retrieveCertificateProvider",
      "outputs": [
        {
          "internalType": "address",
          "name": "",
          "type": "address"
        }
      ],
      "stateMutability": "view",
      "type": "function",
      "constant": true
    },
    {
      "inputs": [
        {
          "internalType": "address",
          "name": "holder",
          "type": "address"
        },
        {
          "internalType": "uint256",
          "name": "skipFirst",
          "type": "uint256"
        },
        {
          "internalType": "uint256",
          "name": "max",
          "type": "uint256"
        }
      ],
      "name": "retrieveCertificatesByHolder",
      "outputs": [
        {
          "internalType": "bytes32[]",
          "name": "",
          "type": "bytes32[]"
        }
      ],
      "stateMutability": "view",
      "type": "function",
      "constant": true
    },
    {
      "inputs": [],
      "name": "retrieveContractConfig",
      "outputs": [
        {
          "internalType": "string",
          "name": "",
          "type": "string"
        },
        {
          "internalType": "string",
          "name": "",
          "type": "string"
        }
      ],
      "stateMutability": "view",
      "type": "function",
      "constant": true
    },
    {
      "inputs": [],
      "name": "retrieveManagerContract",
      "outputs": [
        {
          "internalType": "address",
          "name": "",
          "type": "address"
        }
      ],
      "stateMutability": "view",
      "type": "function",
      "constant": true
    },
    {
      "inputs": [],
      "name": "retrieveMinOwners",
      "outputs": [
        {
          "internalType": "uint256",
          "name": "",
          "type": "uint256"
        }
      ],
      "stateMutability": "view",
      "type": "function",
      "constant": true
    },
    {
      "inputs": [
        {
          "internalType": "address",
          "name": "provider",
          "type": "address"
        },
        {
          "internalType": "uint256",
          "name": "nonce",
          "type": "uint256"
        }
      ],
      "name": "retrieveNonce",
      "outputs": [
        {
          "internalType": "bool",
          "name": "",
          "type": "bool"
        }
      ],
      "stateMutability": "view",
      "type": "function",
      "constant": true
    },
    {
      "inputs": [
        {
          "internalType": "address",
          "name": "owner",
          "type": "address"
        }
      ],
      "name": "retrieveOwner",
      "outputs": [
        {
          "components": [
            {
              "internalType": "string",
              "name": "_Info",
              "type": "string"
            },
            {
              "internalType": "bool",
              "name": "_activated",
              "type": "bool"
            },
            {
              "internalType": "uint256",
              "name": "_id",
              "type": "uint256"
            },
            {
              "internalType": "uint256",
              "name": "_pendingId",
              "type": "uint256"
            },
            {
              "internalType": "address[]",
              "name": "_Validations",
              "type": "address[]"
            },
            {
              "internalType": "address[]",
              "name": "_Rejections",
              "type": "address[]"
            }
          ],
          "internalType": "struct ItemsLibrary._itemIdentity",
          "name": "",
          "type": "tuple"
        }
      ],
      "stateMutability": "view",
      "type": "function",
      "constant": true
    },
    {
      "inputs": [],
      "name": "retrievePendingMinOwners",
      "outputs": [
        {
          "internalType": "uint256",
          "name": "",
          "type": "uint256"
        }
      ],
      "stateMutability": "view",
      "type": "function",
      "constant": true
    },
    {
      "inputs": [],
      "name": "retrievePendingMinOwnersStatus",
      "outputs": [
        {
          "internalType": "uint256",
          "name": "",
          "type": "uint256"
        },
        {
          "internalType": "uint256",
          "name": "",
          "type": "uint256"
        },
        {
          "internalType": "address[]",
          "name": "",
          "type": "address[]"
        }
      ],
      "stateMutability": "view",
      "type": "function",
      "constant": true
    },
    {
      "inputs": [
        {
          "internalType": "bool",
          "name": "addedORremove",
          "type": "bool"
        }
      ],
      "name": "retrievePendingOwners",
      "outputs": [
        {
          "internalType": "bytes32[]",
          "name": "",
          "type": "bytes32[]"
        }
      ],
      "stateMutability": "view",
      "type": "function",
      "constant": true
    },
    {
      "inputs": [
        {
          "internalType": "bool",
          "name": "addedORremove",
          "type": "bool"
        }
      ],
      "name": "retrievePendingProviders",
      "outputs": [
        {
          "internalType": "bytes32[]",
          "name": "",
          "type": "bytes32[]"
        }
      ],
      "stateMutability": "view",
      "type": "function",
      "constant": true
    },
    {
      "inputs": [
        {
          "internalType": "address",
          "name": "provider",
          "type": "address"
        }
      ],
      "name": "retrieveProvider",
      "outputs": [
        {
          "components": [
            {
              "internalType": "string",
              "name": "_Info",
              "type": "string"
            },
            {
              "internalType": "bool",
              "name": "_activated",
              "type": "bool"
            },
            {
              "internalType": "uint256",
              "name": "_id",
              "type": "uint256"
            },
            {
              "internalType": "uint256",
              "name": "_pendingId",
              "type": "uint256"
            },
            {
              "internalType": "address[]",
              "name": "_Validations",
              "type": "address[]"
            },
            {
              "internalType": "address[]",
              "name": "_Rejections",
              "type": "address[]"
            }
          ],
          "internalType": "struct ItemsLibrary._itemIdentity",
          "name": "",
          "type": "tuple"
        }
      ],
      "stateMutability": "view",
      "type": "function",
      "constant": true
    },
    {
      "inputs": [
        {
          "internalType": "address",
          "name": "holder",
          "type": "address"
        }
      ],
      "name": "retrieveTotalCertificatesByHolder",
      "outputs": [
        {
          "internalType": "uint256",
          "name": "",
          "type": "uint256"
        }
      ],
      "stateMutability": "view",
      "type": "function",
      "constant": true
    },
    {
      "inputs": [],
      "name": "validateMinOwners",
      "outputs": [],
      "stateMutability": "nonpayable",
      "type": "function"
    },
    {
      "inputs": [
        {
          "internalType": "address",
          "name": "owner",
          "type": "address"
        }
      ],
      "name": "validateOwner",
      "outputs": [],
      "stateMutability": "nonpayable",
      "type": "function"
    },
    {
      "inputs": [
        {
          "internalType": "address",
          "name": "provider",
          "type": "address"
        }
      ],
      "name": "validateProvider",
      "outputs": [],
      "stateMutability": "nonpayable",
      "type": "function"
    },
    {
      "inputs": [
        {
          "internalType": "address[]",
          "name": "owners",
          "type": "address[]"
        },
        {
          "internalType": "uint256",
          "name": "minOwners",
          "type": "uint256"
        },
        {
          "internalType": "address",
          "name": "managerContractAddress",
          "type": "address"
        },
        {
          "internalType": "string",
          "name": "contractName",
          "type": "string"
        },
        {
          "internalType": "string",
          "name": "contractVersion",
          "type": "string"
        }
      ],
      "name": "PublicCertPool_init",
      "outputs": [],
      "stateMutability": "nonpayable",
      "type": "function"
    },
    {
      "inputs": [
        {
          "internalType": "address",
          "name": "provider",
          "type": "address"
        },
        {
          "internalType": "string",
          "name": "providerInfo",
          "type": "string"
        }
      ],
      "name": "addProvider",
      "outputs": [],
      "stateMutability": "payable",
      "type": "function",
      "payable": true
    },
    {
      "inputs": [],
      "name": "retrieveAddCertificatePriceWei",
      "outputs": [
        {
          "internalType": "uint256",
          "name": "",
          "type": "uint256"
        }
      ],
      "stateMutability": "view",
      "type": "function",
      "constant": true
    },
    {
      "inputs": [],
      "name": "retrieveSubscriptionPriceWei",
      "outputs": [
        {
          "internalType": "uint256",
          "name": "",
          "type": "uint256"
        }
      ],
      "stateMutability": "view",
      "type": "function",
      "constant": true
    },
    {
      "inputs": [
        {
          "internalType": "bytes32",
          "name": "item",
          "type": "bytes32"
        },
        {
          "internalType": "uint256[]",
          "name": "ids",
          "type": "uint256[]"
        },
        {
          "internalType": "bool",
          "name": "addOrRemove",
          "type": "bool"
        }
      ],
      "name": "onItemValidated",
      "outputs": [],
      "stateMutability": "nonpayable",
      "type": "function"
    },
    {
      "inputs": [
        {
          "internalType": "bytes32",
          "name": "item",
          "type": "bytes32"
        },
        {
          "internalType": "uint256[]",
          "name": "ids",
          "type": "uint256[]"
        },
        {
          "internalType": "bool",
          "name": "addOrRemove",
          "type": "bool"
        }
      ],
      "name": "onItemRejected",
      "outputs": [],
      "stateMutability": "nonpayable",
      "type": "function"
    }
  ],
  "bytecode": "0x608060405234801561001057600080fd5b506145ef806100206000396000f3fe6080604052600436106101945760003560e01c80630b4c72a914610199578063173825d9146101bb5780631ab807f8146101db57806327a40b4b146101ee5780632edbe7fc1461020e57806330ade922146102325780633542758f1461024757806337583499146102675780633fd07181146102945780633feca4ca146102b45780634774779d1461030a57806357e7ea2e1461031f5780635888ebb31461033457806358a1ba25146103585780635b362e841461038557806365b973e5146103ac5780636825b263146103c15780636b299604146103e15780636b3a0fec146104015780636e4f9179146104215780636e55d2d41461043657806376f8f90f1461045657806377bc5a1f146104765780637c8c2add146104965780638a355a57146104b65780638b9be256146104d6578063a93d5ed6146104e9578063c3079ae7146104fe578063c66433ea14610513578063ce33d58a14610533578063cf2041d914610553578063d0a4adfe14610573578063d2116a02146105b9578063dc865ca6146105dc578063fc000500146105fc575b600080fd5b3480156101a557600080fd5b506101b96101b43660046137f7565b61060f565b005b3480156101c757600080fd5b506101b96101d63660046137f7565b61061d565b6101b96101e9366004613d0a565b610672565b3480156101fa57600080fd5b506101b96102093660046137f7565b610689565b34801561021a57600080fd5b506005545b6040519081526020015b60405180910390f35b34801561023e57600080fd5b506101b9610694565b34801561025357600080fd5b506101b96102623660046138c2565b610793565b34801561027357600080fd5b506102876102823660046137f7565b6107a1565b60405161022991906142b9565b3480156102a057600080fd5b506101b96102af366004613d3a565b6107ba565b3480156102c057600080fd5b506102fa6102cf366004613995565b6001600160a01b03919091166000908152600c60209081526040808320938352929052205460ff1690565b6040519015158152602001610229565b34801561031657600080fd5b5061021f6107ff565b34801561032b57600080fd5b5061021f6109fd565b34801561034057600080fd5b50610349610b3f565b604051610229939291906143e2565b34801561036457600080fd5b506103786103733660046139c1565b610bb3565b60405161022991906140f9565b34801561039157600080fd5b50600e546001600160a01b03165b604051610229919061400d565b3480156103b857600080fd5b5060015461021f565b3480156103cd57600080fd5b506101b96103dc366004613a9c565b610d59565b3480156103ed57600080fd5b506103786103fc366004613cb7565b610fb3565b34801561040d57600080fd5b5061037861041c366004613cb7565b610fc1565b34801561042d57600080fd5b50610378610fce565b34801561044257600080fd5b5061021f6104513660046137f7565b610fdf565b34801561046257600080fd5b506101b96104713660046137f7565b610ffd565b34801561048257600080fd5b506102876104913660046137f7565b611058565b3480156104a257600080fd5b506101b96104b1366004613d3a565b61106c565b3480156104c257600080fd5b506101b96104d13660046137f7565b6110ab565b6101b96104e4366004613831565b6110b6565b3480156104f557600080fd5b506103786110df565b34801561050a57600080fd5b506101b96110ec565b34801561051f57600080fd5b506101b961052e366004613ea4565b6111eb565b34801561053f57600080fd5b506101b961054e3660046137f7565b6112ce565b34801561055f57600080fd5b506101b961056e366004613b2d565b6112da565b34801561057f57600080fd5b5061039f61058e366004613d0a565b6001600160a01b039081166000908152600d6020908152604080832094835293905291909120541690565b3480156105c557600080fd5b506105ce611588565b604051610229929190614186565b3480156105e857600080fd5b506101b96105f73660046139f6565b6116af565b6101b961060a366004613946565b611734565b61061a816001611c3b565b50565b600154600161062d600054611dad565b5161063891906144bb565b808211156106615760405162461bcd60e51b8152600401610658906141d2565b60405180910390fd5b61066d83600054611f14565b505050565b61067a61204e565b61068533838361212e565b5050565b61061a816001612266565b6106a0336000546123a0565b15156001146106c15760405162461bcd60e51b81526004016106589061427d565b60016005546106e25760405162461bcd60e51b8152600401610658906141f1565b60405163f7cf62d760e01b815273__AddressLibrary________________________9063f7cf62d79061071c903390600890600401614021565b60206040518083038186803b15801561073457600080fd5b505af4158015610748573d6000803e3d6000fd5b505050506040513d601f19601f8201168201806040525081019061076c9190613cd4565b156107895760405162461bcd60e51b81526004016106589061429b565b61061a6001612591565b61066d838383600054612618565b6107a96134c6565b6107b48260016127b4565b92915050565b6107c6848484846129a5565b6001838360008181106107db576107db61456a565b9050602002013514156107f95780156107f9576107f9846000612a68565b50505050565b600080600e60009054906101000a90046001600160a01b03166001600160a01b0316635a3794e96040518163ffffffff1660e01b815260040160206040518083038186803b15801561085057600080fd5b505afa158015610864573d6000803e3d6000fd5b505050506040513d601f19601f820116820180604052508101906108889190613814565b6001600160a01b03166325b4f3ca6040518163ffffffff1660e01b815260040160a06040518083038186803b1580156108c057600080fd5b505afa1580156108d4573d6000803e3d6000fd5b505050506040513d601f19601f820116820180604052508101906108f89190613ebd565b50600e5460408051636025541560e01b815290519296506001600160a01b039091169450636025541593506004808201935060209291829003018186803b15801561094257600080fd5b505afa158015610956573d6000803e3d6000fd5b505050506040513d601f19601f8201168201806040525081019061097a9190613814565b6001600160a01b0316638d12420b826040518263ffffffff1660e01b81526004016109a791815260200190565b60206040518083038186803b1580156109bf57600080fd5b505afa1580156109d3573d6000803e3d6000fd5b505050506040513d601f19601f820116820180604052508101906109f79190613cf1565b91505090565b600080600e60009054906101000a90046001600160a01b03166001600160a01b0316635a3794e96040518163ffffffff1660e01b815260040160206040518083038186803b158015610a4e57600080fd5b505afa158015610a62573d6000803e3d6000fd5b505050506040513d601f19601f82011682018060405250810190610a869190613814565b6001600160a01b03166325b4f3ca6040518163ffffffff1660e01b815260040160a06040518083038186803b158015610abe57600080fd5b505afa158015610ad2573d6000803e3d6000fd5b505050506040513d601f19601f82011682018060405250810190610af69190613ebd565b5050600e5460408051636025541560e01b815290519495506001600160a01b03909116936360255415935060048083019350602092829003018186803b15801561094257600080fd5b6000806060600654600754600880805480602002602001604051908101604052809291908181526020018280548015610ba157602002820191906000526020600020905b81546001600160a01b03168152600190910190602001808311610b83575b50505050509050925092509250909192565b606082610bbf85610fdf565b11610bd95750604080516000815260208101909152610d52565b818084610be587610fdf565b610bef91906144bb565b1015610c0c5783610bff86610fdf565b610c0991906144bb565b90505b6000816001600160401b03811115610c2657610c26614580565b604051908082528060200260200182016040528015610c4f578160200160208202803683370190505b506001600160a01b0387166000908152600d6020908152604080832060010180548251818502810185019093528083529495509293909291830182828015610cb657602002820191906000526020600020905b815481526020019060010190808311610ca2575b5050505050905060008060005b8351811015610d4957878310610cd857610d49565b81891115610cf257610ceb6001836144a3565b9150610d37565b838181518110610d0457610d0461456a565b6020026020010151858481518110610d1e57610d1e61456a565b6020908102919091010152610d346001846144a3565b92505b80610d4181614539565b915050610cc3565b50929450505050505b9392505050565b600454610100900460ff1680610d72575060045460ff16155b610d8e5760405162461bcd60e51b81526004016106589061422f565b600454610100900460ff16158015610db0576004805461ffff19166101011790555b6040805160028082526060820190925290816020015b6060815260200190600190039081610dc65750508051610dee91600b916020909101906134fe565b506040518060400160405280600581526020016427bbb732b960d91b815250600b600081548110610e2157610e2161456a565b906000526020600020019080519060200190610e3e92919061355b565b5060405180604001604052806008815260200167283937bb34b232b960c11b815250600b600181548110610e7457610e7461456a565b906000526020600020019080519060200190610e9192919061355b565b508251610ea590600990602086019061355b565b508151610eb990600a90602085019061355b565b50610f9a85856002600b805480602002602001604051908101604052809291908181526020016000905b82821015610f8f578382906000526020600020018054610f02906144fe565b80601f0160208091040260200160405190810160405280929190818152602001828054610f2e906144fe565b8015610f7b5780601f10610f5057610100808354040283529160200191610f7b565b820191906000526020600020905b815481529060010190602001808311610f5e57829003601f168201915b505050505081526020019060010190610ee3565b5050505060006112da565b8015610fac576004805461ff00191690555b5050505050565b60606107b482600054612c63565b60606107b4826001612c63565b6060610fda6001611dad565b905090565b6001600160a01b03166000908152600d602052604090206001015490565b61100981600054612dcf565b15156001141561104c576001611020600054611dad565b5161102b91906144bb565b600154111561104c5760405162461bcd60e51b8152600401610658906141d2565b61061a81600054612266565b6110606134c6565b6107b4826000546127b4565b611078848484846129a5565b60018383600081811061108d5761108d61456a565b9050602002013514156107f95780156107f9576107f9846001612a68565b61061a816001611f14565b6110be61204e565b6110cc868686868686612f3b565b6110d786868661212e565b505050505050565b6060610fda600054611dad565b6110f8336000546123a0565b15156001146111195760405162461bcd60e51b81526004016106589061427d565b600160055461113a5760405162461bcd60e51b8152600401610658906141f1565b60405163f7cf62d760e01b815273__AddressLibrary________________________9063f7cf62d790611174903390600890600401614021565b60206040518083038186803b15801561118c57600080fd5b505af41580156111a0573d6000803e3d6000fd5b505050506040513d601f19601f820116820180604052508101906111c49190613cd4565b156111e15760405162461bcd60e51b81526004016106589061429b565b61061a6000612591565b6111f7336000546123a0565b15156001146112185760405162461bcd60e51b81526004016106589061427d565b6000600554156112525760405162461bcd60e51b8152602060048201526005602482015264454333302d60d81b6044820152606401610658565b816002600054815481106112685761126861456a565b9060005260206000209060040201600101805490508082111561129d5760405162461bcd60e51b8152600401610658906141d2565b6000848181116112bf5760405162461bcd60e51b815260040161065890614210565b60058690556110d76001612591565b61061a81600054611c3b565b600454610100900460ff16806112f3575060045460ff16155b61130f5760405162461bcd60e51b81526004016106589061422f565b600454610100900460ff16158015611331576004805461ffff19166101011790555b848651808211156113545760405162461bcd60e51b8152600401610658906141d2565b6000878181116113765760405162461bcd60e51b815260040161065890614210565b865188146113ae5760405162461bcd60e51b8152602060048201526005602482015264454331382d60d81b6044820152606401610658565b60008681555b888110156114245760028054600101815560005287516003908990839081106113df576113df61456a565b60209081029190910181015182546001810184556000938452928290208151611411949190910192919091019061355b565b508061141c81614539565b9150506113b4565b50600189905560005b8a5181101561156a57600073__AddressLibrary________________________63bc215e858d84815181106114645761146461456a565b60200260200101516040518263ffffffff1660e01b8152600401611488919061400d565b60206040518083038186803b1580156114a057600080fd5b505af41580156114b4573d6000803e3d6000fd5b505050506040513d601f19601f820116820180604052508101906114d89190613cf1565b905060016002600054815481106114f1576114f161456a565b60009182526020808320858452600492909202909101905260408120600101805460ff191692151592909217909155546002805490919081106115365761153661456a565b600091825260208083206001600490930201820180549283018155835290912001558061156281614539565b91505061142d565b505050505080156110d7576004805461ff0019169055505050505050565b6060806009600a81805461159b906144fe565b80601f01602080910402602001604051908101604052809291908181526020018280546115c7906144fe565b80156116145780601f106115e957610100808354040283529160200191611614565b820191906000526020600020905b8154815290600101906020018083116115f757829003601f168201915b50505050509150808054611627906144fe565b80601f0160208091040260200160405190810160405280929190818152602001828054611653906144fe565b80156116a05780601f10611675576101008083540402835291602001916116a0565b820191906000526020600020905b81548152906001019060200180831161168357829003601f168201915b50505050509050915091509091565b600454610100900460ff16806116c8575060045460ff16155b6116e45760405162461bcd60e51b81526004016106589061422f565b600454610100900460ff16158015611706576004805461ffff19166101011790555b61171286868585610d59565b61171b846130d5565b80156110d7576004805461ff0019169055505050505050565b816117408160016123a0565b156117765760405162461bcd60e51b8152600401610658906020808252600490820152634543362d60e01b604082015260600190565b82600073__AddressLibrary________________________63bc215e85836040518263ffffffff1660e01b81526004016117b0919061400d565b60206040518083038186803b1580156117c857600080fd5b505af41580156117dc573d6000803e3d6000fd5b505050506040513d601f19601f820116820180604052508101906118009190613cf1565b905073__ItemsLibrary__________________________6226d7668260026001815481106118305761183061456a565b90600052602060002090600402016040518363ffffffff1660e01b815260040161185b92919061413d565b60206040518083038186803b15801561187357600080fd5b505af4158015611887573d6000803e3d6000fd5b505050506040513d601f19601f820116820180604052508101906118ab9190613cd4565b15801561195f575073__ItemsLibrary__________________________632854ed2e8260026001815481106118e2576118e261456a565b90600052602060002090600402016040518363ffffffff1660e01b815260040161190d92919061413d565b60206040518083038186803b15801561192557600080fd5b505af4158015611939573d6000803e3d6000fd5b505050506040513d601f19601f8201168201806040525081019061195d9190613cd4565b155b6119935760405162461bcd60e51b8152602060048201526005602482015264454332372d60d81b6044820152606401610658565b600e60009054906101000a90046001600160a01b03166001600160a01b0316635a3794e96040518163ffffffff1660e01b815260040160206040518083038186803b1580156119e157600080fd5b505afa1580156119f5573d6000803e3d6000fd5b505050506040513d601f19601f82011682018060405250810190611a199190613814565b6001600160a01b031663f0c9325e3460006040518363ffffffff1660e01b8152600401611a46919061414b565b6000604051808303818588803b158015611a5f57600080fd5b505af1158015611a73573d6000803e3d6000fd5b505060405163bc215e8560e01b81526000935073__AddressLibrary________________________925063bc215e859150611ab290899060040161400d565b60206040518083038186803b158015611aca57600080fd5b505af4158015611ade573d6000803e3d6000fd5b505050506040513d601f19601f82011682018060405250810190611b029190613cf1565b9050846002600181548110611b1957611b1961456a565b600091825260208083208584526004909202909101815260409091208251611b47939192919091019061355b565b506002600181548110611b5c57611b5c61456a565b60009182526020808320600260049093020182018054600181810183559185529190932001839055805482908110611b9657611b9661456a565b906000526020600020906004020160020180549050611bb591906144bb565b6002600181548110611bc957611bc961456a565b9060005260206000209060040201600001600083815260200190815260200160002060030181905550856001600160a01b03167f39cde7834e26555dd63843df8459d36dd67b5bab6f4ed52349cbb03f66f542b186604051611c2b9190614173565b60405180910390a2505050505050565b60025460405163123bd07560e11b815282919073__Library_______________________________90632477a0ea90611c7a908590859060040161413d565b60206040518083038186803b158015611c9257600080fd5b505af4158015611ca6573d6000803e3d6000fd5b505050506040513d601f19601f82011682018060405250810190611cca9190613cd4565b1515600114611ceb5760405162461bcd60e51b8152600401610658906141b4565b611cf7336000546123a0565b1515600114611d185760405162461bcd60e51b81526004016106589061427d565b600080611d3586604051806020016040528060008152508761315c565b604051635cb09bcf60e01b8152919350915073__ItemsLibrary__________________________90635cb09bcf90611d7590859085903090600401614331565b60006040518083038186803b158015611d8d57600080fd5b505af4158015611da1573d6000803e3d6000fd5b50505050505050505050565b60025460405163123bd07560e11b8152606091839173__Library_______________________________90632477a0ea90611dee908590859060040161413d565b60206040518083038186803b158015611e0657600080fd5b505af4158015611e1a573d6000803e3d6000fd5b505050506040513d601f19601f82011682018060405250810190611e3e9190613cd4565b1515600114611e5f5760405162461bcd60e51b8152600401610658906141b4565b73__ItemsLibrary__________________________6327724f4b60028681548110611e8c57611e8c61456a565b90600052602060002090600402016040518263ffffffff1660e01b8152600401611eb891815260200190565b60006040518083038186803b158015611ed057600080fd5b505af4158015611ee4573d6000803e3d6000fd5b505050506040513d6000823e601f3d908101601f19168201604052611f0c9190810190613c20565b949350505050565b60025460405163123bd07560e11b815282919073__Library_______________________________90632477a0ea90611f53908590859060040161413d565b60206040518083038186803b158015611f6b57600080fd5b505af4158015611f7f573d6000803e3d6000fd5b505050506040513d601f19601f82011682018060405250810190611fa39190613cd4565b1515600114611fc45760405162461bcd60e51b8152600401610658906141b4565b611fd0336000546123a0565b1515600114611ff15760405162461bcd60e51b81526004016106589061427d565b60008061200e86604051806020016040528060008152508761315c565b60405163e23fcdef60e01b8152919350915073__ItemsLibrary__________________________9063e23fcdef90611d7590859085903090600401614331565b600e60009054906101000a90046001600160a01b03166001600160a01b0316635a3794e96040518163ffffffff1660e01b815260040160206040518083038186803b15801561209c57600080fd5b505afa1580156120b0573d6000803e3d6000fd5b505050506040513d601f19601f820116820180604052508101906120d49190613814565b6001600160a01b031663f0c9325e3460026040518363ffffffff1660e01b8152600401612101919061414b565b6000604051808303818588803b15801561211a57600080fd5b505af1158015610fac573d6000803e3d6000fd5b8261213881613368565b15156001146121715760405162461bcd60e51b8152602060048201526005602482015264454331322d60d81b6044820152606401610658565b826001600160a01b038084166000908152600d602090815260408083208884529091529020548491869116156121d15760405162461bcd60e51b8152602060048201526005602482015264454331352d60d81b6044820152606401610658565b6001600160a01b038086166000818152600d602081815260408084208c85528083528185208054978f166001600160a01b0319909816881790559282526001928301805493840181558452922001899055519091907ff55a90628981610edc26894247bee72e1963d1c9faa4ea6533fd3df39fd36ed490612255908a815260200190565b60405180910390a350505050505050565b60025460405163123bd07560e11b815282919073__Library_______________________________90632477a0ea906122a5908590859060040161413d565b60206040518083038186803b1580156122bd57600080fd5b505af41580156122d1573d6000803e3d6000fd5b505050506040513d601f19601f820116820180604052508101906122f59190613cd4565b15156001146123165760405162461bcd60e51b8152600401610658906141b4565b612322336000546123a0565b15156001146123435760405162461bcd60e51b81526004016106589061427d565b60008061236086604051806020016040528060008152508761315c565b604051637493a70b60e01b8152919350915073__ItemsLibrary__________________________90637493a70b90611d7590859085903090600401614331565b60025460405163123bd07560e11b8152600091839173__Library_______________________________90632477a0ea906123e1908590859060040161413d565b60206040518083038186803b1580156123f957600080fd5b505af415801561240d573d6000803e3d6000fd5b505050506040513d601f19601f820116820180604052508101906124319190613cd4565b15156001146124525760405162461bcd60e51b8152600401610658906141b4565b60405163bc215e8560e01b815260009073__AddressLibrary________________________9063bc215e859061248c90899060040161400d565b60206040518083038186803b1580156124a457600080fd5b505af41580156124b8573d6000803e3d6000fd5b505050506040513d601f19601f820116820180604052508101906124dc9190613cf1565b905073__ItemsLibrary__________________________63dbdfbeec826002888154811061250c5761250c61456a565b90600052602060002090600402016040518363ffffffff1660e01b815260040161253792919061413d565b60206040518083038186803b15801561254f57600080fd5b505af4158015612563573d6000803e3d6000fd5b505050506040513d601f19601f820116820180604052508101906125879190613cd4565b9695505050505050565b80156125b5576001600660008282546125aa91906144a3565b909155506125ce9050565b6001600760008282546125c891906144a3565b90915550505b600880546001810182556000919091527ff3f7a9fe364faab93b216da50a3214154f22a0a2b415b23a84c8169e8b636ee30180546001600160a01b0319163317905561061a613375565b60025460405163123bd07560e11b815282919073__Library_______________________________90632477a0ea90612657908590859060040161413d565b60206040518083038186803b15801561266f57600080fd5b505af4158015612683573d6000803e3d6000fd5b505050506040513d601f19601f820116820180604052508101906126a79190613cd4565b15156001146126c85760405162461bcd60e51b8152600401610658906141b4565b6126d4336000546123a0565b15156001146126f55760405162461bcd60e51b81526004016106589061427d565b60008061273a8888888080601f0160208091040260200160405190810160405280939291908181526020018383808284376000920191909152508a925061315c915050565b6040516305cc2d5560e11b8152919350915073__ItemsLibrary__________________________90630b985aaa9061277a90859085903090600401614331565b60006040518083038186803b15801561279257600080fd5b505af41580156127a6573d6000803e3d6000fd5b505050505050505050505050565b6127bc6134c6565b60025460405163123bd07560e11b815283919073__Library_______________________________90632477a0ea906127fb908590859060040161413d565b60206040518083038186803b15801561281357600080fd5b505af4158015612827573d6000803e3d6000fd5b505050506040513d601f19601f8201168201806040525081019061284b9190613cd4565b151560011461286c5760405162461bcd60e51b8152600401610658906141b4565b60405163bc215e8560e01b815260009073__AddressLibrary________________________9063bc215e85906128a690899060040161400d565b60206040518083038186803b1580156128be57600080fd5b505af41580156128d2573d6000803e3d6000fd5b505050506040513d601f19601f820116820180604052508101906128f69190613cf1565b905073__ItemsLibrary__________________________631aeccc6a82600288815481106129265761292661456a565b90600052602060002090600402016040518363ffffffff1660e01b815260040161295192919061413d565b60006040518083038186803b15801561296957600080fd5b505af415801561297d573d6000803e3d6000fd5b505050506040513d6000823e601f3d908101601f191682016040526125879190810190613dcb565b604051630d1d719d60e41b8152309073__Library_______________________________9063d1d719d0906129de90849060040161400d565b60206040518083038186803b1580156129f657600080fd5b505af4158015612a0a573d6000803e3d6000fd5b505050506040513d601f19601f82011682018060405250810190612a2e9190613cd4565b1515600114610fac5760405162461bcd60e51b8152600401610658906020808252600490820152634543382d60e01b604082015260600190565b600081612aa6576002600181548110612a8357612a8361456a565b600091825260208083208684526004909202909101905260409020600501612ad6565b6002600181548110612aba57612aba61456a565b6000918252602080832086845260049283020190526040909120015b805480602002602001604051908101604052809291908181526020018280548015612b2a57602002820191906000526020600020905b81546001600160a01b03168152600190910190602001808311612b0c575b5050505050905060005b81518110156107f957600e60009054906101000a90046001600160a01b03166001600160a01b0316635a3794e96040518163ffffffff1660e01b815260040160206040518083038186803b158015612b8b57600080fd5b505afa158015612b9f573d6000803e3d6000fd5b505050506040513d601f19601f82011682018060405250810190612bc39190613814565b6001600160a01b031663eb1e2a41838381518110612be357612be361456a565b602002602001015184516040518363ffffffff1660e01b8152600401612c1e9291906001600160a01b03929092168252602082015260400190565b600060405180830381600087803b158015612c3857600080fd5b505af1158015612c4c573d6000803e3d6000fd5b505050508080612c5b90614539565b915050612b34565b60025460405163123bd07560e11b8152606091839173__Library_______________________________90632477a0ea90612ca4908590859060040161413d565b60206040518083038186803b158015612cbc57600080fd5b505af4158015612cd0573d6000803e3d6000fd5b505050506040513d601f19601f82011682018060405250810190612cf49190613cd4565b1515600114612d155760405162461bcd60e51b8152600401610658906141b4565b606073__ItemsLibrary__________________________63e035e0068760028881548110612d4557612d4561456a565b90600052602060002090600402016040518363ffffffff1660e01b8152600401612d7b9291909115158252602082015260400190565b60006040518083038186803b158015612d9357600080fd5b505af4158015612da7573d6000803e3d6000fd5b505050506040513d6000823e601f3d908101601f191682016040526125879190810190613c20565b60025460405163123bd07560e11b8152600091839173__Library_______________________________90632477a0ea90612e10908590859060040161413d565b60206040518083038186803b158015612e2857600080fd5b505af4158015612e3c573d6000803e3d6000fd5b505050506040513d601f19601f82011682018060405250810190612e609190613cd4565b1515600114612e815760405162461bcd60e51b8152600401610658906141b4565b60405163bc215e8560e01b815260009073__AddressLibrary________________________9063bc215e8590612ebb90899060040161400d565b60206040518083038186803b158015612ed357600080fd5b505af4158015612ee7573d6000803e3d6000fd5b505050506040513d601f19601f82011682018060405250810190612f0b9190613cf1565b905073__ItemsLibrary__________________________632854ed2e826002888154811061250c5761250c61456a565b814210612f725760405162461bcd60e51b8152602060048201526005602482015264454333332d60d81b6044820152606401610658565b6001600160a01b0386166000908152600c6020908152604080832086845290915290205460ff1615612fce5760405162461bcd60e51b8152602060048201526005602482015264454333342d60d81b6044820152606401610658565b60405163c1bc5c3f60e01b815273__SignatureLibrary______________________9063c1bc5c3f9061301590899089908990899089908990600990600a90600401614080565b60206040518083038186803b15801561302d57600080fd5b505af4158015613041573d6000803e3d6000fd5b505050506040513d601f19601f820116820180604052508101906130659190613cd4565b151560011461309e5760405162461bcd60e51b8152602060048201526005602482015264454333322d60d81b6044820152606401610658565b50506001600160a01b039093166000908152600c6020908152604080832095835294905292909220805460ff191660011790555050565b600454610100900460ff16806130ee575060045460ff16155b61310a5760405162461bcd60e51b81526004016106589061422f565b600454610100900460ff1615801561312c576004805461ffff19166101011790555b600e80546001600160a01b0319166001600160a01b0384161790558015610685576004805461ff00191690555050565b6131916040518060a0016040528060008019168152602001606081526020016000815260200160608152602001606081525090565b60008073__AddressLibrary________________________63bc215e85876040518263ffffffff1660e01b81526004016131cb919061400d565b60206040518083038186803b1580156131e357600080fd5b505af41580156131f7573d6000803e3d6000fd5b505050506040513d601f19601f8201168201806040525081019061321b9190613cf1565b604080516001808252818301909252919250600091906020808301908036833701905050905084816000815181106132555761325561456a565b60200260200101818152505060006040518060a001604052808481526020018881526020016001548152602001600388815481106132955761329561456a565b9060005260206000200180546132aa906144fe565b80601f01602080910402602001604051908101604052809291908181526020018280546132d6906144fe565b80156133235780601f106132f857610100808354040283529160200191613323565b820191906000526020600020905b81548152906001019060200180831161330657829003601f168201915b505050505081526020018381525090506000600287815481106133485761334861456a565b600091825260209091209296506004029091019350505050935093915050565b60006107b48260016123a0565b60065460015460405163f6001d7d60e01b815273__ItemsLibrary__________________________9263f6001d7d926133b09260040161413d565b60206040518083038186803b1580156133c857600080fd5b505af41580156133dc573d6000803e3d6000fd5b505050506040513d601f19601f820116820180604052508101906134009190613cd4565b15613415576005546001556134136134a9565b565b60075460015460405163f6001d7d60e01b815273__ItemsLibrary__________________________9263f6001d7d926134509260040161413d565b60206040518083038186803b15801561346857600080fd5b505af415801561347c573d6000803e3d6000fd5b505050506040513d601f19601f820116820180604052508101906134a09190613cd4565b15613413576134135b6000600581905560068190556007819055613413906008906135db565b6040518060c0016040528060608152602001600015158152602001600081526020016000815260200160608152602001606081525090565b82805482825590600052602060002090810192821561354b579160200282015b8281111561354b578251805161353b91849160209091019061355b565b509160200191906001019061351e565b506135579291506135f9565b5090565b828054613567906144fe565b90600052602060002090601f01602090048101928261358957600085556135cf565b82601f106135a257805160ff19168380011785556135cf565b828001600101855582156135cf579182015b828111156135cf5782518255916020019190600101906135b4565b50613557929150613616565b508054600082559060005260206000209081019061061a9190613616565b8082111561355757600061360d828261362b565b506001016135f9565b5b808211156135575760008155600101613617565b508054613637906144fe565b6000825580601f10613647575050565b601f01602090049060005260206000209081019061061a9190613616565b60006136786136738461447c565b614429565b905082815283838301111561368c57600080fd5b828260208301376000602084830101529392505050565b600082601f8301126136b457600080fd5b813560206136c461367383614459565b80838252828201915082860187848660051b89010111156136e457600080fd5b60005b8581101561370c5781356136fa81614596565b845292840192908401906001016136e7565b5090979650505050505050565b600082601f83011261372a57600080fd5b8151602061373a61367383614459565b80838252828201915082860187848660051b890101111561375a57600080fd5b60005b8581101561370c57815161377081614596565b8452928401929084019060010161375d565b805161378d816145ab565b919050565b600082601f8301126137a357600080fd5b610d5283833560208501613665565b600082601f8301126137c357600080fd5b81516137d16136738261447c565b8181528460208386010111156137e657600080fd5b611f0c8260208301602087016144d2565b60006020828403121561380957600080fd5b8135610d5281614596565b60006020828403121561382657600080fd5b8151610d5281614596565b60008060008060008060c0878903121561384a57600080fd5b863561385581614596565b955060208701359450604087013561386c81614596565b9350606087013592506080870135915060a08701356001600160401b0381111561389557600080fd5b8701601f810189136138a657600080fd5b6138b589823560208401613665565b9150509295509295509295565b6000806000604084860312156138d757600080fd5b83356138e281614596565b925060208401356001600160401b03808211156138fe57600080fd5b818601915086601f83011261391257600080fd5b81358181111561392157600080fd5b87602082850101111561393357600080fd5b6020830194508093505050509250925092565b6000806040838503121561395957600080fd5b823561396481614596565b915060208301356001600160401b0381111561397f57600080fd5b61398b85828601613792565b9150509250929050565b600080604083850312156139a857600080fd5b82356139b381614596565b946020939093013593505050565b6000806000606084860312156139d657600080fd5b83356139e181614596565b95602085013595506040909401359392505050565b600080600080600060a08688031215613a0e57600080fd5b85356001600160401b0380821115613a2557600080fd5b613a3189838a016136a3565b96506020880135955060408801359150613a4a82614596565b90935060608701359080821115613a6057600080fd5b613a6c89838a01613792565b93506080880135915080821115613a8257600080fd5b50613a8f88828901613792565b9150509295509295909350565b60008060008060808587031215613ab257600080fd5b84356001600160401b0380821115613ac957600080fd5b613ad5888389016136a3565b9550602087013594506040870135915080821115613af257600080fd5b613afe88838901613792565b93506060870135915080821115613b1457600080fd5b50613b2187828801613792565b91505092959194509250565b600080600080600060a08688031215613b4557600080fd5b6001600160401b038635811015613b5b57600080fd5b613b6888883589016136a3565b9550602080880135955060408801359450606088013582811115613b8b57600080fd5b8801601f81018a13613b9c57600080fd5b8035613baa61367382614459565b8082825284820191508484018d868560051b8701011115613bca57600080fd5b60005b84811015613c04578782351115613be357600080fd5b613bf28f888435890101613792565b84529286019290860190600101613bcd565b5050809750505050505050608086013590509295509295909350565b60006020808385031215613c3357600080fd5b82516001600160401b03811115613c4957600080fd5b8301601f81018513613c5a57600080fd5b8051613c6861367382614459565b80828252848201915084840188868560051b8701011115613c8857600080fd5b600094505b83851015613cab578051835260019490940193918501918501613c8d565b50979650505050505050565b600060208284031215613cc957600080fd5b8135610d52816145ab565b600060208284031215613ce657600080fd5b8151610d52816145ab565b600060208284031215613d0357600080fd5b5051919050565b60008060408385031215613d1d57600080fd5b823591506020830135613d2f81614596565b809150509250929050565b60008060008060608587031215613d5057600080fd5b8435935060208501356001600160401b0380821115613d6e57600080fd5b818701915087601f830112613d8257600080fd5b813581811115613d9157600080fd5b8860208260051b8501011115613da657600080fd5b6020830195508094505050506040850135613dc0816145ab565b939692955090935050565b600060208284031215613ddd57600080fd5b81516001600160401b0380821115613df457600080fd5b9083019060c08286031215613e0857600080fd5b613e10614401565b825182811115613e1f57600080fd5b613e2b878286016137b2565b825250613e3a60208401613782565b60208201526040830151604082015260608301516060820152608083015182811115613e6557600080fd5b613e7187828601613719565b60808301525060a083015182811115613e8957600080fd5b613e9587828601613719565b60a08301525095945050505050565b600060208284031215613eb657600080fd5b5035919050565b600080600080600060a08688031215613ed557600080fd5b5050835160208501516040860151606087015160809097015192989197509594509092509050565b600081518084526020808501945080840160005b83811015613f365781516001600160a01b031687529582019590820190600101613f11565b509495945050505050565b60008151808452613f598160208601602086016144d2565b601f01601f19169290920160200192915050565b8054600090600181811c9080831680613f8757607f831692505b6020808410821415613fa957634e487b7160e01b600052602260045260246000fd5b83885260208801828015613fc45760018114613fd557614000565b60ff19871682528282019750614000565b60008981526020902060005b87811015613ffa57815484820152908601908401613fe1565b83019850505b5050505050505092915050565b6001600160a01b0391909116815260200190565b60006040820160018060a01b03808616845260206040818601528286548085526060870191508760005282600020945060005b81811015614072578554851683526001958601959284019201614054565b509098975050505050505050565b6001600160a01b0389811682526020820189905287166040820152606081018690526080810185905261010060a082018190526000906140c283820187613f41565b905082810360c08401526140d68186613f6d565b905082810360e08401526140ea8185613f6d565b9b9a5050505050505050505050565b6020808252825182820181905260009190848201906040850190845b8181101561413157835183529284019291840191600101614115565b50909695505050505050565b918252602082015260400190565b602081016004831061416d57634e487b7160e01b600052602160045260246000fd5b91905290565b602081526000610d526020830184613f41565b6040815260006141996040830185613f41565b82810360208401526141ab8185613f41565b95945050505050565b6020808252600490820152634543312d60e01b604082015260600190565b602080825260059082015264454331392d60d81b604082015260600190565b602080825260059082015264454333312d60d81b604082015260600190565b602080825260059082015264454331372d60d81b604082015260600190565b6020808252602e908201527f496e697469616c697a61626c653a20636f6e747261637420697320616c72656160408201526d191e481a5b9a5d1a585b1a5e995960921b606082015260800190565b6020808252600490820152634543392d60e01b604082015260600190565b6020808252600490820152634543352d60e01b604082015260600190565b602081526000825160c060208401526142d560e0840182613f41565b905060208401511515604084015260408401516060840152606084015160808401526080840151601f19808584030160a08601526143138383613efd565b925060a08601519150808584030160c0860152506141ab8282613efd565b6060815283516060820152600060208086015160a06080850152614359610100850182613f41565b9050604087015160a08501526060870151605f19808684030160c08701526143818383613f41565b60808a015187820390920160e088015281518082529185019350600092508401905b808310156143c357835182529284019260019290920191908401906143a3565b5092850187905250506001600160a01b03841660408401529050611f0c565b8381528260208201526060604082015260006141ab6060830184613efd565b60405160c081016001600160401b038111828210171561442357614423614580565b60405290565b604051601f8201601f191681016001600160401b038111828210171561445157614451614580565b604052919050565b60006001600160401b0382111561447257614472614580565b5060051b60200190565b60006001600160401b0382111561449557614495614580565b50601f01601f191660200190565b600082198211156144b6576144b6614554565b500190565b6000828210156144cd576144cd614554565b500390565b60005b838110156144ed5781810151838201526020016144d5565b838111156107f95750506000910152565b600181811c9082168061451257607f821691505b6020821081141561453357634e487b7160e01b600052602260045260246000fd5b50919050565b600060001982141561454d5761454d614554565b5060010190565b634e487b7160e01b600052601160045260246000fd5b634e487b7160e01b600052603260045260246000fd5b634e487b7160e01b600052604160045260246000fd5b6001600160a01b038116811461061a57600080fd5b801515811461061a57600080fdfea26469706673582212206ef815344098f3bf32948b5e384c2759a55cd76dc06bedb8c1a0c95bbd8b613764736f6c63430008070033",
  "immutableReferences": {},
  "source": "// SPDX-License-Identifier: GPL-3.0\r\n\r\npragma solidity 0.8.7;\r\n\r\n/*\r\n  Public Certificate Pools offer the default MultiSig Certificate Pool functionality\r\n  except for Providers Creation and Certificate Issuing since payments must be made\r\n  Besides Public Certificate Pool is a managed contract\r\n */\r\n\r\n import \"../Abstract/MultiSigCertificatesPool.sol\";\r\n import \"../Interfaces/ITreasury.sol\";\r\n import \"../Base/ManagedBaseContract.sol\";\r\n import \"../Interfaces/IPriceConverter.sol\";\r\n\r\n contract PublicCertificatesPool is MultiSigCertificatesPool, ManagedBaseContract {\r\n\r\n    // EVENTS /////////////////////////////////////////\r\n    event _NewProposal(address indexed Provider, string Info);\r\n\r\n    // MODIFIERS /////////////////////////////////////////\r\n    modifier ProviderisNotActivated(address entity){\r\n        require(false == isEntity(entity, _providerId), \"EC6-\");\r\n        _;\r\n    }\r\n\r\n    modifier ProviderisNotPending(address entity){\r\n        bytes32 entityInBytes = AddressLibrary.AddressToBytes32(entity);\r\n        require(false == ItemsLibrary.isItemPendingToAdded(entityInBytes, _Entities[_providerId]) && \r\n                false == ItemsLibrary.isItemPendingToRemoved(entityInBytes, _Entities[_providerId]), \"EC27-\");\r\n        _;\r\n    }\r\n\r\n    // CONSTRUCTOR /////////////////////////////////////////\r\n    function PublicCertPool_init(address[] memory owners,  uint256 minOwners, address managerContractAddress, string memory contractName, string memory contractVersion) public initializer {\r\n        super.MultiSigCertPool_init(owners, minOwners, contractName, contractVersion); \r\n        super.ManagedBaseContract_init(managerContractAddress); \r\n    }\r\n\r\n    // FUNCTIONALITY /////////////////////////////////////////\r\n    function addProvider(address provider, string memory providerInfo) external \r\n        ProviderisNotActivated(provider) \r\n        ProviderisNotPending(provider)\r\n    override payable\r\n    {\r\n        ITreasury(_managerContract.retrieveTreasuryProxy()).pay{value:msg.value}(Library.Prices.NewProvider);\r\n        bytes32 providerInBytes = AddressLibrary.AddressToBytes32(provider);\r\n        _Entities[_providerId]._items[providerInBytes]._Info = providerInfo;\r\n        _Entities[_providerId]._pendingItemsAdd.push(providerInBytes);\r\n        _Entities[_providerId]._items[providerInBytes]._pendingId = _Entities[_providerId]._pendingItemsAdd.length - 1;\r\n\r\n        emit _NewProposal(provider, providerInfo);\r\n    }\r\n\r\n    function payBack(bytes32 entityInBytes, bool validatedOrRejected) internal\r\n    {\r\n        address[] memory Voters = (validatedOrRejected) ? _Entities[_providerId]._items[entityInBytes]._Validations : _Entities[_providerId]._items[entityInBytes]._Rejections;\r\n\r\n        for(uint i=0; i < Voters.length; i++){\r\n            ITreasury(_managerContract.retrieveTreasuryProxy()).getRefund(Voters[i], Voters.length);\r\n        }\r\n    }\r\n\r\n    function onBeforeAddCertificate() internal override \r\n    {\r\n        ITreasury(_managerContract.retrieveTreasuryProxy()).pay{value:msg.value}(Library.Prices.NewCertificate);\r\n    }\r\n\r\n    function retrieveAddCertificatePriceWei() external override view returns(uint256)\r\n    {\r\n        (, , , uint Price, ) = ITreasury(_managerContract.retrieveTreasuryProxy()).retrievePrices();\r\n        return IPriceConverter(_managerContract.retrievePriceConverterProxy()).fromUSDToETH(Price);\r\n    }\r\n\r\n    function retrieveSubscriptionPriceWei() external override virtual view returns(uint256)\r\n    {\r\n        (uint Price, , , , ) = ITreasury(_managerContract.retrieveTreasuryProxy()).retrievePrices();\r\n        return IPriceConverter(_managerContract.retrievePriceConverterProxy()).fromUSDToETH(Price);\r\n    }\r\n\r\n    // Callback functions\r\n    function onItemValidated(bytes32 item, uint256[] calldata ids, bool addOrRemove) public override \r\n    {\r\n        super.onItemValidated(item, ids, addOrRemove);\r\n\r\n        if(ids[0] == _providerId){\r\n            if(addOrRemove)payBack(item, true);\r\n        }\r\n    }\r\n\r\n    function onItemRejected(bytes32 item, uint256[] calldata ids, bool addOrRemove) public override  \r\n    {\r\n        super.onItemRejected(item, ids, addOrRemove);\r\n\r\n        if(ids[0] == _providerId){\r\n            if(addOrRemove)payBack(item, false);\r\n        }\r\n    }\r\n\r\n }",
  "sourcePath": "C:/Users/d-aam/GitHub/Certificates/contracts/DeployedContracts/PublicCertificatesPool.sol",
  "compiler": {
    "name": "solc",
    "version": "0.8.7+commit.e28d00a7.Emscripten.clang"
  },
  "schemaVersion": "3.3.4",
  "updatedAt": "2021-10-05T11:12:05.402Z",
  "networkType": "ethereum",
  "devdoc": {
    "kind": "dev",
    "methods": {},
    "version": 1
  },
  "userdoc": {
    "kind": "user",
    "methods": {},
    "version": 1
  }
}