{
  "contractName": "PublicCertificatesPool",
  "abi": [
    {
      "inputs": [
        {
          "internalType": "address[]",
          "name": "owners",
          "type": "address[]"
        },
        {
          "internalType": "uint256",
          "name": "minOwners",
          "type": "uint256"
        }
      ],
      "stateMutability": "payable",
      "type": "constructor"
    },
    {
      "anonymous": false,
      "inputs": [
        {
          "indexed": false,
          "internalType": "address",
          "name": "",
          "type": "address"
        },
        {
          "indexed": false,
          "internalType": "address",
          "name": "",
          "type": "address"
        }
      ],
      "name": "_AddCertificateIdEvent",
      "type": "event"
    },
    {
      "anonymous": false,
      "inputs": [
        {
          "indexed": false,
          "internalType": "string",
          "name": "",
          "type": "string"
        },
        {
          "indexed": false,
          "internalType": "address",
          "name": "",
          "type": "address"
        }
      ],
      "name": "_AddEntityValidationIdEvent",
      "type": "event"
    },
    {
      "anonymous": false,
      "inputs": [
        {
          "indexed": false,
          "internalType": "address",
          "name": "",
          "type": "address"
        },
        {
          "indexed": false,
          "internalType": "address",
          "name": "",
          "type": "address"
        }
      ],
      "name": "_RemoveCertificateIdEvent",
      "type": "event"
    },
    {
      "anonymous": false,
      "inputs": [
        {
          "indexed": false,
          "internalType": "string",
          "name": "",
          "type": "string"
        },
        {
          "indexed": false,
          "internalType": "address",
          "name": "",
          "type": "address"
        }
      ],
      "name": "_RemoveEntityValidationIdEvent",
      "type": "event"
    },
    {
      "inputs": [
        {
          "internalType": "bytes32",
          "name": "CertificateHash",
          "type": "bytes32"
        },
        {
          "internalType": "address",
          "name": "holder",
          "type": "address"
        },
        {
          "internalType": "uint256",
          "name": "nonce",
          "type": "uint256"
        }
      ],
      "name": "addCertificate",
      "outputs": [],
      "stateMutability": "nonpayable",
      "type": "function"
    },
    {
      "inputs": [
        {
          "internalType": "address",
          "name": "owner",
          "type": "address"
        },
        {
          "internalType": "string",
          "name": "ownerInfo",
          "type": "string"
        },
        {
          "internalType": "uint256",
          "name": "nonce",
          "type": "uint256"
        }
      ],
      "name": "addOwner",
      "outputs": [],
      "stateMutability": "nonpayable",
      "type": "function"
    },
    {
      "inputs": [
        {
          "internalType": "address",
          "name": "owner",
          "type": "address"
        }
      ],
      "name": "isOwner",
      "outputs": [
        {
          "internalType": "bool",
          "name": "",
          "type": "bool"
        }
      ],
      "stateMutability": "view",
      "type": "function"
    },
    {
      "inputs": [
        {
          "internalType": "address",
          "name": "provider",
          "type": "address"
        }
      ],
      "name": "isProvider",
      "outputs": [
        {
          "internalType": "bool",
          "name": "",
          "type": "bool"
        }
      ],
      "stateMutability": "view",
      "type": "function"
    },
    {
      "inputs": [
        {
          "internalType": "bytes32",
          "name": "CertificateHash",
          "type": "bytes32"
        },
        {
          "internalType": "address",
          "name": "holder",
          "type": "address"
        },
        {
          "internalType": "uint256",
          "name": "nonce",
          "type": "uint256"
        }
      ],
      "name": "removeCertificate",
      "outputs": [],
      "stateMutability": "nonpayable",
      "type": "function"
    },
    {
      "inputs": [
        {
          "internalType": "address",
          "name": "owner",
          "type": "address"
        },
        {
          "internalType": "uint256",
          "name": "nonce",
          "type": "uint256"
        }
      ],
      "name": "removeOwner",
      "outputs": [],
      "stateMutability": "nonpayable",
      "type": "function"
    },
    {
      "inputs": [],
      "name": "retrieveAllOwners",
      "outputs": [
        {
          "internalType": "address[]",
          "name": "",
          "type": "address[]"
        }
      ],
      "stateMutability": "view",
      "type": "function"
    },
    {
      "inputs": [],
      "name": "retrieveAllProviders",
      "outputs": [
        {
          "internalType": "address[]",
          "name": "",
          "type": "address[]"
        }
      ],
      "stateMutability": "view",
      "type": "function"
    },
    {
      "inputs": [
        {
          "internalType": "bytes32",
          "name": "CertificateHash",
          "type": "bytes32"
        },
        {
          "internalType": "address",
          "name": "holder",
          "type": "address"
        }
      ],
      "name": "retrieveCertificateProvider",
      "outputs": [
        {
          "internalType": "address",
          "name": "",
          "type": "address"
        }
      ],
      "stateMutability": "view",
      "type": "function"
    },
    {
      "inputs": [
        {
          "internalType": "address",
          "name": "holder",
          "type": "address"
        },
        {
          "internalType": "uint256",
          "name": "skipFirst",
          "type": "uint256"
        },
        {
          "internalType": "uint256",
          "name": "max",
          "type": "uint256"
        }
      ],
      "name": "retrieveCertificatesByHolder",
      "outputs": [
        {
          "internalType": "bytes32[]",
          "name": "",
          "type": "bytes32[]"
        }
      ],
      "stateMutability": "view",
      "type": "function"
    },
    {
      "inputs": [
        {
          "internalType": "address",
          "name": "addr",
          "type": "address"
        }
      ],
      "name": "retrieveHighestNonceForAddress",
      "outputs": [
        {
          "internalType": "uint256",
          "name": "",
          "type": "uint256"
        }
      ],
      "stateMutability": "view",
      "type": "function"
    },
    {
      "inputs": [],
      "name": "retrieveMinOwners",
      "outputs": [
        {
          "internalType": "uint256",
          "name": "",
          "type": "uint256"
        }
      ],
      "stateMutability": "view",
      "type": "function"
    },
    {
      "inputs": [
        {
          "internalType": "address",
          "name": "owner",
          "type": "address"
        }
      ],
      "name": "retrieveOwner",
      "outputs": [
        {
          "internalType": "string",
          "name": "",
          "type": "string"
        }
      ],
      "stateMutability": "view",
      "type": "function"
    },
    {
      "inputs": [
        {
          "internalType": "bool",
          "name": "addedORremove",
          "type": "bool"
        }
      ],
      "name": "retrievePendingOwners",
      "outputs": [
        {
          "internalType": "address[]",
          "name": "",
          "type": "address[]"
        }
      ],
      "stateMutability": "view",
      "type": "function"
    },
    {
      "inputs": [
        {
          "internalType": "bool",
          "name": "addedORremove",
          "type": "bool"
        }
      ],
      "name": "retrievePendingProviders",
      "outputs": [
        {
          "internalType": "address[]",
          "name": "",
          "type": "address[]"
        }
      ],
      "stateMutability": "view",
      "type": "function"
    },
    {
      "inputs": [
        {
          "internalType": "address",
          "name": "provider",
          "type": "address"
        }
      ],
      "name": "retrieveProvider",
      "outputs": [
        {
          "internalType": "string",
          "name": "",
          "type": "string"
        }
      ],
      "stateMutability": "view",
      "type": "function"
    },
    {
      "inputs": [
        {
          "internalType": "address",
          "name": "holder",
          "type": "address"
        }
      ],
      "name": "retrieveTotalCertificatesByHolder",
      "outputs": [
        {
          "internalType": "uint256",
          "name": "",
          "type": "uint256"
        }
      ],
      "stateMutability": "view",
      "type": "function"
    },
    {
      "inputs": [],
      "name": "retrieveTotalOwners",
      "outputs": [
        {
          "internalType": "uint256",
          "name": "",
          "type": "uint256"
        }
      ],
      "stateMutability": "view",
      "type": "function"
    },
    {
      "inputs": [],
      "name": "retrieveTotalProviders",
      "outputs": [
        {
          "internalType": "uint256",
          "name": "",
          "type": "uint256"
        }
      ],
      "stateMutability": "view",
      "type": "function"
    },
    {
      "inputs": [
        {
          "internalType": "address",
          "name": "provider",
          "type": "address"
        },
        {
          "internalType": "string",
          "name": "providerInfo",
          "type": "string"
        },
        {
          "internalType": "uint256",
          "name": "nonce",
          "type": "uint256"
        }
      ],
      "name": "addProvider",
      "outputs": [],
      "stateMutability": "nonpayable",
      "type": "function"
    },
    {
      "inputs": [
        {
          "internalType": "address",
          "name": "provider",
          "type": "address"
        },
        {
          "internalType": "uint256",
          "name": "nonce",
          "type": "uint256"
        }
      ],
      "name": "validateProvider",
      "outputs": [],
      "stateMutability": "nonpayable",
      "type": "function"
    },
    {
      "inputs": [
        {
          "internalType": "address",
          "name": "provider",
          "type": "address"
        },
        {
          "internalType": "uint256",
          "name": "nonce",
          "type": "uint256"
        }
      ],
      "name": "removeProvider",
      "outputs": [],
      "stateMutability": "nonpayable",
      "type": "function"
    }
  ],
  "bytecode": "0x600560c09081526427bbb732b960d91b60e0526080908152610140604052600861010090815267283937bb34b232b960c11b6101205260a0526200004890600690600262000346565b506040516200379f3803806200379f8339810160408190526200006b91620004db565b8181818160026006805480602002602001604051908101604052809291908181526020016000905b82821015620001445760008481526020908190208301805460408051601f60026000196101006001871615020190941693909304928301859004850281018501909152818152928301828280156200012f5780601f1062000103576101008083540402835291602001916200012f565b820191906000526020600020905b8154815290600101906020018083116200011157829003601f168201915b50505050508152602001906001019062000093565b5050505060008451841115620001775760405162461bcd60e51b81526004016200016e90620005a1565b60405180910390fd5b600084116200019a5760405162461bcd60e51b81526004016200016e90620005bf565b81518314620001bd5760405162461bcd60e51b81526004016200016e90620005dd565b60008181555b8381101562000228576003805460010181556000528251600290849083908110620001ea57fe5b602090810291909101810151825460018101845560009384529282902081516200021e9491909101929190910190620003aa565b50600101620001c3565b50600184905560005b8551811015620003235760016003600054815481106200024d57fe5b906000526020600020906004020160000160008884815181106200026d57fe5b60200260200101516001600160a01b03166001600160a01b0316815260200190815260200160002060000160006101000a81548160ff021916908315150217905550600360005481548110620002bf57fe5b9060005260206000209060040201600101868281518110620002dd57fe5b60209081029190910181015182546001808201855560009485529290932090920180546001600160a01b0319166001600160a01b03909316929092179091550162000231565b5050600880546001600160a01b0319163317905550620005fb9650505050505050565b82805482825590600052602060002090810192821562000398579160200282015b8281111562000398578251805162000387918491602090910190620003aa565b509160200191906001019062000367565b50620003a69291506200043b565b5090565b828054600181600116156101000203166002900490600052602060002090601f016020900481019282620003e257600085556200042d565b82601f10620003fd57805160ff19168380011785556200042d565b828001600101855582156200042d579182015b828111156200042d57825182559160200191906001019062000410565b50620003a69291506200045c565b80821115620003a657600062000452828262000473565b506001016200043b565b5b80821115620003a657600081556001016200045d565b50805460018160011615610100020316600290046000825580601f106200049b5750620004bb565b601f016020900490600052602060002090810190620004bb91906200045c565b50565b80516001600160a01b0381168114620004d657600080fd5b919050565b60008060408385031215620004ee578182fd5b82516001600160401b038082111562000505578384fd5b818501915085601f83011262000519578384fd5b81516020828211156200052857fe5b808202604051828282010181811086821117156200054257fe5b604052838152828101945085830182870184018b101562000561578889fd5b8896505b848710156200058e576200057981620004be565b86526001969096019594830194830162000565565b5097909101519698969750505050505050565b60208082526004908201526322a1989b60e11b604082015260600190565b6020808252600490820152634543313760e01b604082015260600190565b60208082526004908201526308a8662760e31b604082015260600190565b613194806200060b6000396000f3fe608060405234801561001057600080fd5b50600436106101425760003560e01c80636e4f9179116100b8578063bfd2b3a31161007c578063bfd2b3a3146102a2578063d0a4adfe146102b5578063d744d2f3146102d5578063e4661547146102dd578063eefe7681146102f0578063f05d8703146102f857610142565b80636e4f9179146102595780636e55d2d41461026157806377bc5a1f14610274578063a93d5ed614610287578063ba001d161461028f57610142565b806358a1ba251161010a57806358a1ba25146101cb57806365b973e5146101eb57806369767eab146102005780636b074a07146102135780636b299604146102265780636b3a0fec1461024657610142565b8063073855ca146101475780630743c85e1461015c5780632f54bf6e1461016f578063375834991461019857806341929ea9146101b8575b600080fd5b61015a610155366004612dac565b61030b565b005b61015a61016a366004612cee565b61064b565b61018261017d366004612c24565b61075d565b60405161018f9190612ea0565b60405180910390f35b6101ab6101a6366004612c24565b610773565b60405161018f9190612eab565b61015a6101c6366004612c3e565b610780565b6101de6101d9366004612d17565b610793565b60405161018f9190612e68565b6101f3610904565b60405161018f919061312d565b61015a61020e366004612dac565b61090a565b610182610221366004612c24565b610adb565b610239610234366004612d49565b610ae8565b60405161018f9190612e1b565b610239610254366004612d49565b610b10565b610239610b23565b6101f361026f366004612c24565b610b34565b6101ab610282366004612c24565b610b52565b610239610b60565b6101f361029d366004612c24565b610b6d565b61015a6102b0366004612cee565b610b88565b6102c86102c3366004612d81565b610bc6565b60405161018f9190612ded565b6101f3610bf3565b61015a6102eb366004612cee565b610bff565b6101f3610de0565b61015a610306366004612c3e565b610ded565b61031433610adb565b151560011461033e5760405162461bcd60e51b81526004016103359061305f565b60405180910390fd5b6001600160a01b038281166000908152600760209081526040808320878452909152902054839185911633148061037d5750336001600160a01b038316145b6103995760405162461bcd60e51b815260040161033590613006565b604051635c6309fb60e11b8152839073__Library_______________________________9063b8c613f6906103d49084906004908101613136565b60006040518083038186803b1580156103ec57600080fd5b505af4158015610400573d6000803e3d6000fd5b5050506001600160a01b0380871660008181526007602081815260408084208d8552808352818520549585529282526001909201805483518184028101840190945280845294909516955091939092909183018282801561048057602002820191906000526020600020905b81548152602001906001019080831161046c575b5050505050905060005b815181101561056d5781818151811061049f57fe5b60200260200101518914156105655761052e81600760008b6001600160a01b03166001600160a01b0316815260200190815260200160002060010180548060200260200160405190810160405280929190818152602001828054801561052457602002820191906000526020600020905b815481526020019060010190808311610510575b5050505050610f9f565b6001600160a01b0389166000908152600760209081526040909120825161055f936001909201929190910190612a7c565b5061056d565b60010161048a565b506001600160a01b03871660009081526007602090815260408083208b84529091529081902080546001600160a01b03191690555163136ea6e160e21b815273__Library_______________________________90634dba9b84906105d89089906004908101613136565b60006040518083038186803b1580156105f057600080fd5b505af4158015610604573d6000803e3d6000fd5b505050507fd12847594abf0621035046f61129f2a9dc5093eb516c6c517ece306362ef6f178288604051610639929190612e01565b60405180910390a15050505050505050565b6001826001600160a01b03811660009081526009602052604090205460ff16151560011461068b5760405162461bcd60e51b815260040161033590612fae565b61075784600360018154811061069d57fe5b600091825260208083206001600160a01b038a1684526004929092029091018152604091829020600190810180548451600293821615610100026000190190911692909204601f81018490048402830184019094528382529092909183018282801561074a5780601f1061071f5761010080835404028352916020019161074a565b820191906000526020600020905b81548152906001019060200180831161072d57829003601f168201915b5050505050600186611092565b50505050565b600061076b826000546112a7565b90505b919050565b606061076b826001611410565b61078e838360005484611092565b505050565b60608261079f85610b34565b116107b957506040805160008152602081019091526108fd565b8180846107c587610b34565b0310156107da57836107d686610b34565b0390505b60008167ffffffffffffffff811180156107f357600080fd5b5060405190808252806020026020018201604052801561081d578160200160208202803683370190505b506001600160a01b03871660009081526007602090815260408083206001018054825181850281018501909352808352949550929390929183018282801561088457602002820191906000526020600020905b815481526020019060010190808311610870575b5050505050905060008060005b83518110156108f4578783106108a6576108f4565b818911156108b9576001820191506108ec565b8381815181106108c557fe5b60200260200101518584815181106108d957fe5b6020026020010181815250506001830192505b600101610891565b50929450505050505b9392505050565b60015490565b61091333610adb565b15156001146109345760405162461bcd60e51b81526004016103359061305f565b826001600160a01b03808416600090815260076020908152604080832088845290915290205484918691161561097c5760405162461bcd60e51b815260040161033590613041565b604051635c6309fb60e11b8152849073__Library_______________________________9063b8c613f6906109b79084906004908101613136565b60006040518083038186803b1580156109cf57600080fd5b505af41580156109e3573d6000803e3d6000fd5b5050506001600160a01b03871660009081526007602081815260408084208c855280835281852080546001600160a01b0319163317905592825260019283018054938401815584529220018990555163136ea6e160e21b815273__Library_______________________________9150634dba9b8490610a699088906004908101613136565b60006040518083038186803b158015610a8157600080fd5b505af4158015610a95573d6000803e3d6000fd5b505050507f601cb9a073dbfa468ef12878ee6c720641a49b76af7c16099e8c0a1ac3ca79b53387604051610aca929190612e01565b60405180910390a150505050505050565b600061076b8260016112a7565b606061076b600360005481548110610afc57fe5b9060005260206000209060040201836114e6565b606061076b6003600181548110610afc57fe5b6060610b2f60016115b4565b905090565b6001600160a01b031660009081526007602052604090206001015490565b606061076b82600054611410565b6060610b2f6000546115b4565b6001600160a01b031660009081526004602052604090205490565b6001546001610b98600054611691565b0380821115610bb95760405162461bcd60e51b815260040161033590612fcb565b6107578460005485611766565b6001600160a01b038082166000908152600760209081526040808320868452909152902054165b92915050565b6000610b2f6001611691565b610c0b82600183611766565b610db76003600181548110610c1c57fe5b600091825260208083206001600160a01b0387168452600490920290910181526040918290208251608081018452815460ff1615158152600180830180548651601f600260001995841615610100029590950190921693909304908101869004860283018601909652858252919492938581019391929190830182828015610ce55780601f10610cba57610100808354040283529160200191610ce5565b820191906000526020600020905b815481529060010190602001808311610cc857829003601f168201915b5050505050815260200160028201805480602002602001604051908101604052809291908181526020018280548015610d4757602002820191906000526020600020905b81546001600160a01b03168152600190910190602001808311610d29575b5050505050815260200160038201805480602002602001604051908101604052809291908181526020018280548015610da957602002820191906000526020600020905b81546001600160a01b03168152600190910190602001808311610d8b575b5050505050815250506118c0565b610ddc576001600160a01b0382166000908152600960205260409020805460ff191690555b5050565b6000610b2f600054611691565b6008546001600160a01b0316338114610e185760405162461bcd60e51b8152600401610335906130d5565b6000846001600160a01b03811660009081526009602052604090205460ff1615610e545760405162461bcd60e51b815260040161033590613024565b604051635c6309fb60e11b8152849073__Library_______________________________9063b8c613f690610e8f9084906004908101613136565b60006040518083038186803b158015610ea757600080fd5b505af4158015610ebb573d6000803e3d6000fd5b50505050856003600181548110610ece57fe5b600091825260208083206001600160a01b038c1684526004909202909101815260409091208251610f09936001909201929190910190612ac7565b506001600160a01b03871660009081526009602052604090819020805460ff191660011790555163136ea6e160e21b815273__Library_______________________________90634dba9b8490610f669088906004908101613136565b60006040518083038186803b158015610f7e57600080fd5b505af4158015610f92573d6000803e3d6000fd5b5050505050505050505050565b6060828251610fae82826118c4565b1515600114610fcf5760405162461bcd60e51b8152600401610335906130b8565b6000600185510367ffffffffffffffff81118015610fec57600080fd5b50604051908082528060200260200182016040528015611016578160200160208202803683370190505b5090508460018651038151811061102957fe5b602002602001015185878151811061103d57fe5b60200260200101818152505060005b81518110156110885785818151811061106157fe5b602002602001015182828151811061107557fe5b602090810291909101015260010161104c565b5095945050505050565b60035460405163123bd07560e11b815283919073__Library_______________________________90632477a0ea906110d19085908590600401613136565b60206040518083038186803b1580156110e957600080fd5b505af41580156110fd573d6000803e3d6000fd5b505050506040513d601f19601f820116820180604052508101906111219190612d65565b15156001146111425760405162461bcd60e51b8152600401610335906130b8565b61114b3361075d565b151560011461116c5760405162461bcd60e51b81526004016103359061309b565b61119786866003878154811061117e57fe5b90600052602060002090600402016001546004886118c8565b611245600385815481106111a757fe5b600091825260208083206001600160a01b038b168452600490920290910181526040918290208251608081018452815460ff1615158152600180830180548651601f600260001995841615610100029590950190921693909304908101869004860283018601909652858252919492938581019391929190830182828015610ce55780601f10610cba57610100808354040283529160200191610ce5565b15156001141561129f577f3c139d46a211844e248647688545a37c07c505c999c1232d1247c707dc0a91e26002858154811061127d57fe5b9060005260206000200187604051611296929190612efe565b60405180910390a15b505050505050565b60035460405163123bd07560e11b8152600091839173__Library_______________________________90632477a0ea906112e89085908590600401613136565b60206040518083038186803b15801561130057600080fd5b505af4158015611314573d6000803e3d6000fd5b505050506040513d601f19601f820116820180604052508101906113389190612d65565b15156001146113595760405162461bcd60e51b8152600401610335906130b8565b6114076003858154811061136957fe5b600091825260208083206001600160a01b038a168452600490920290910181526040918290208251608081018452815460ff1615158152600180830180548651601f600260001995841615610100029590950190921693909304908101869004860283018601909652858252919492938581019391929190830182828015610ce55780601f10610cba57610100808354040283529160200191610ce5565b95945050505050565b60035460405163123bd07560e11b8152606091839173__Library_______________________________90632477a0ea906114519085908590600401613136565b60206040518083038186803b15801561146957600080fd5b505af415801561147d573d6000803e3d6000fd5b505050506040513d601f19601f820116820180604052508101906114a19190612d65565b15156001146114c25760405162461bcd60e51b8152600401610335906130b8565b61140785600386815481106114d357fe5b9060005260206000209060040201611e72565b60608115611552578260020180548060200260200160405190810160405280929190818152602001828054801561154657602002820191906000526020600020905b81546001600160a01b03168152600190910190602001808311611528575b50505050509050610bed565b82600301805480602002602001604051908101604052809291908181526020018280548015611546576020028201919060005260206000209081546001600160a01b031681526001909101906020018083116115285750505050509050610bed565b60035460405163123bd07560e11b8152606091839173__Library_______________________________90632477a0ea906115f59085908590600401613136565b60206040518083038186803b15801561160d57600080fd5b505af4158015611621573d6000803e3d6000fd5b505050506040513d601f19601f820116820180604052508101906116459190612d65565b15156001146116665760405162461bcd60e51b8152600401610335906130b8565b6116896003858154811061167657fe5b90600052602060002090600402016120b5565b949350505050565b60035460405163123bd07560e11b8152600091839173__Library_______________________________90632477a0ea906116d29085908590600401613136565b60206040518083038186803b1580156116ea57600080fd5b505af41580156116fe573d6000803e3d6000fd5b505050506040513d601f19601f820116820180604052508101906117229190612d65565b15156001146117435760405162461bcd60e51b8152600401610335906130b8565b6116896003858154811061175357fe5b906000526020600020906004020161211b565b60035460405163123bd07560e11b815283919073__Library_______________________________90632477a0ea906117a59085908590600401613136565b60206040518083038186803b1580156117bd57600080fd5b505af41580156117d1573d6000803e3d6000fd5b505050506040513d601f19601f820116820180604052508101906117f59190612d65565b15156001146118165760405162461bcd60e51b8152600401610335906130b8565b846118203361075d565b1515600114806118385750336001600160a01b038216145b6118545760405162461bcd60e51b8152600401610335906130f2565b61187e866003878154811061186557fe5b9060005260206000209060040201600154600488612122565b61188e600386815481106111a757fe5b61129f577f1f62d535f971041db7bd8760bf0f1f9f476461558744a35c0d477b5ad6893e896002868154811061127d57fe5b5190565b1190565b6001600160a01b0386166000908152602085815260408083208151608081018352815460ff1615158152600180830180548551600261010094831615949094026000190190911692909204601f810187900487028301870190955284825291949293858401939192918301828280156119825780601f1061195757610100808354040283529160200191611982565b820191906000526020600020905b81548152906001019060200180831161196557829003601f168201915b50505050508152602001600282018054806020026020016040519081016040528092919081815260200182805480156119e457602002820191906000526020600020905b81546001600160a01b031681526001909101906020018083116119c6575b5050505050815260200160038201805480602002602001604051908101604052809291908181526020018280548015611a4657602002820191906000526020600020905b81546001600160a01b03168152600190910190602001808311611a28575b505050505081525050611a59828261272b565b6001600160a01b0388166000908152602087815260408083208151608081018352815460ff1615158152600180830180548551600261010094831615949094026000190190911692909204601f81018790048702830187019095528482529194929385840193919291830182828015611b135780601f10611ae857610100808354040283529160200191611b13565b820191906000526020600020905b815481529060010190602001808311611af657829003601f168201915b5050505050815260200160028201805480602002602001604051908101604052809291908181526020018280548015611b7557602002820191906000526020600020905b81546001600160a01b03168152600190910190602001808311611b57575b5050505050815260200160038201805480602002602001604051908101604052809291908181526020018280548015611bd757602002820191906000526020600020905b81546001600160a01b03168152600190910190602001808311611bb9575b505050505081525050611bea8282612785565b8486611bf682826127eb565b6001600160a01b038c16600090815260208b90526040902060020154611c75576001600160a01b038c16600090815260208b815260409091208c51611c43926001909201918e0190612ac7565b5060028a018054600181018255600091825260209091200180546001600160a01b0319166001600160a01b038e161790555b6001600160a01b038c16600090815260208b815260408220600201805460018101825590835291200180546001600160a01b03191633179055611cb88789612828565b6001600160a01b038c16600090815260208b90526040902060020154611cde908a612874565b15611e645760018a60000160008e6001600160a01b03166001600160a01b0316815260200190815260200160002060000160006101000a81548160ff021916908315150217905550896001018c9080600181540180825580915050600190039060005260206000200160009091909190916101000a8154816001600160a01b0302191690836001600160a01b03160217905550611e4c611e47611ddd8e8d600201805480602002602001604051908101604052809291908181526020018280548015611dd357602002820191906000526020600020905b81546001600160a01b03168152600190910190602001808311611db5575b505050505061288f565b611e428d600201805480602002602001604051908101604052809291908181526020018280548015611e3857602002820191906000526020600020905b81546001600160a01b03168152600190910190602001808311611e1a575b50505050506128e3565b610f9f565b61297a565b8051611e629160028d0191602090910190612b42565b505b505050505050505050505050565b6001600160a01b038216600090815260208281526040918290208251608081018452815460ff1615158152600182810180548651601f600260001984871615610100020190931692909204918201879004870281018701909752808752606096929593949385810193929190830182828015611f2f5780601f10611f0457610100808354040283529160200191611f2f565b820191906000526020600020905b815481529060010190602001808311611f1257829003601f168201915b5050505050815260200160028201805480602002602001604051908101604052809291908181526020018280548015611f9157602002820191906000526020600020905b81546001600160a01b03168152600190910190602001808311611f73575b5050505050815260200160038201805480602002602001604051908101604052809291908181526020018280548015611ff357602002820191906000526020600020905b81546001600160a01b03168152600190910190602001808311611fd5575b505050505081525050612006828261272b565b6001600160a01b03851660009081526020858152604091829020600190810180548451600293821615610100026000190190911692909204601f8101849004840283018401909452838252909290918301828280156120a65780601f1061207b576101008083540402835291602001916120a6565b820191906000526020600020905b81548152906001019060200180831161208957829003601f168201915b50505050509250505092915050565b60608160010180548060200260200160405190810160405280929190818152602001828054801561210f57602002820191906000526020600020905b81546001600160a01b031681526001909101906020018083116120f1575b50505050509050919050565b6001015490565b6001600160a01b038516600090815260208581526040918290208251608081018452815460ff1615158152600180830180548651600261010083861615026000190190921691909104601f81018790048702820187019097528681529195929485810193908301828280156121d85780601f106121ad576101008083540402835291602001916121d8565b820191906000526020600020905b8154815290600101906020018083116121bb57829003601f168201915b505050505081526020016002820180548060200260200160405190810160405280929190818152602001828054801561223a57602002820191906000526020600020905b81546001600160a01b0316815260019091019060200180831161221c575b505050505081526020016003820180548060200260200160405190810160405280929190818152602001828054801561229c57602002820191906000526020600020905b81546001600160a01b0316815260019091019060200180831161227e575b5050505050815250506122af828261272b565b6001600160a01b038716600090815260208781526040918290208251608081018452815460ff1615158152600180830180548651600261010083861615026000190190921691909104601f81018790048702820187019097528681529195929485810193908301828280156123655780601f1061233a57610100808354040283529160200191612365565b820191906000526020600020905b81548152906001019060200180831161234857829003601f168201915b50505050508152602001600282018054806020026020016040519081016040528092919081815260200182805480156123c757602002820191906000526020600020905b81546001600160a01b031681526001909101906020018083116123a9575b505050505081526020016003820180548060200260200160405190810160405280929190818152602001828054801561242957602002820191906000526020600020905b81546001600160a01b0316815260019091019060200180831161240b575b50505050508152505061243c8282612785565b848661244882826127eb565b6001600160a01b038b16600090815260208b905260409020600301546124995760038a018054600181018255600091825260209091200180546001600160a01b0319166001600160a01b038d161790555b6001600160a01b038b16600090815260208b815260408220600301805460018101825590835291200180546001600160a01b031916331790556124dc8789612828565b336001600160a01b038c16148061251457506001600160a01b038b16600090815260208b90526040902060030154612514908a612874565b15610f92576125e6611e476125838d8d600101805480602002602001604051908101604052809291908181526020018280548015611dd3576020028201919060005260206000209081546001600160a01b03168152600190910190602001808311611db557505050505061288f565b611e428d600101805480602002602001604051908101604052809291908181526020018280548015611e38576020028201919060005260206000209081546001600160a01b03168152600190910190602001808311611e1a5750505050506128e3565b80516125fc9160018d0191602090910190612b42565b506126ca611e476126678d8d600301805480602002602001604051908101604052809291908181526020018280548015611dd3576020028201919060005260206000209081546001600160a01b03168152600190910190602001808311611db557505050505061288f565b611e428d600301805480602002602001604051908101604052809291908181526020018280548015611e38576020028201919060005260206000209081546001600160a01b03168152600190910190602001808311611e1a5750505050506128e3565b80516126e09160038d0191602090910190612b42565b506001600160a01b038b16600090815260208b905260408120805460ff191681559061270f6001830182612b97565b61271d600283016000612bde565b611e62600383016000612bde565b8161275b57612739816118c0565b156127565760405162461bcd60e51b815260040161033590613110565b610ddc565b612764816118c0565b1515600114610ddc5760405162461bcd60e51b815260040161033590612f91565b81600181111561279157fe5b6127c0576127a3338260400151612a17565b156127565760405162461bcd60e51b815260040161033590612fe9565b6127ce338260600151612a17565b15610ddc5760405162461bcd60e51b815260040161033590612fe9565b336000908152600182016020908152604080832085845290915290205460ff1615610ddc5760405162461bcd60e51b81526004016103359061307d565b3360008181526001838101602090815260408084208785528252808420805460ff1916909317909255928252918390522054821115610ddc573360009081526020919091526040902055565b60008183101561288657506000610bed565b50600192915050565b6000805b82518110156128d8578281815181106128a857fe5b60200260200101516001600160a01b0316846001600160a01b031614156128d0579050610bed565b600101612893565b505051600101919050565b60606000825167ffffffffffffffff811180156128ff57600080fd5b50604051908082528060200260200182016040528015612929578160200160208202803683370190505b50905060005b83518110156129735761295484828151811061294757fe5b6020026020010151612a6d565b82828151811061296057fe5b602090810291909101015260010161292f565b5092915050565b60606000825167ffffffffffffffff8111801561299657600080fd5b506040519080825280602002602001820160405280156129c0578160200160208202803683370190505b50905060005b8351811015612973576129eb8482815181106129de57fe5b6020026020010151612a79565b8282815181106129f757fe5b6001600160a01b03909216602092830291909101909101526001016129c6565b6000805b8251811015612a6357828181518110612a3057fe5b60200260200101516001600160a01b0316846001600160a01b03161415612a5b576001915050610bed565b600101612a1b565b5060009392505050565b6001600160a01b031690565b90565b828054828255906000526020600020908101928215612ab7579160200282015b82811115612ab7578251825591602001919060010190612a9c565b50612ac3929150612bf8565b5090565b828054600181600116156101000203166002900490600052602060002090601f016020900481019282612afd5760008555612ab7565b82601f10612b1657805160ff1916838001178555612ab7565b82800160010185558215612ab75791820182811115612ab7578251825591602001919060010190612a9c565b828054828255906000526020600020908101928215612ab7579160200282015b82811115612ab757825182546001600160a01b0319166001600160a01b03909116178255602090920191600190910190612b62565b50805460018160011615610100020316600290046000825580601f10612bbd5750612bdb565b601f016020900490600052602060002090810190612bdb9190612bf8565b50565b5080546000825590600052602060002090810190612bdb91905b5b80821115612ac35760008155600101612bf9565b80356001600160a01b038116811461076e57600080fd5b600060208284031215612c35578081fd5b6108fd82612c0d565b600080600060608486031215612c52578182fd5b612c5b84612c0d565b925060208085013567ffffffffffffffff80821115612c78578485fd5b818701915087601f830112612c8b578485fd5b813581811115612c9757fe5b604051601f8201601f1916810185018381118282101715612cb457fe5b60405281815283820185018a1015612cca578687fd5b81858501868301379081019093019490945250929592945050506040919091013590565b60008060408385031215612d00578182fd5b612d0983612c0d565b946020939093013593505050565b600080600060608486031215612d2b578283fd5b612d3484612c0d565b95602085013595506040909401359392505050565b600060208284031215612d5a578081fd5b81356108fd81613150565b600060208284031215612d76578081fd5b81516108fd81613150565b60008060408385031215612d93578182fd5b82359150612da360208401612c0d565b90509250929050565b600080600060608486031215612dc0578283fd5b83359250612dd060208501612c0d565b9150604084013590509250925092565b6001600160a01b03169052565b6001600160a01b0391909116815260200190565b6001600160a01b0392831681529116602082015260400190565b6020808252825182820181905260009190848201906040850190845b81811015612e5c5783516001600160a01b031683529284019291840191600101612e37565b50909695505050505050565b6020808252825182820181905260009190848201906040850190845b81811015612e5c57835183529284019291840191600101612e84565b901515815260200190565b6000602080835283518082850152825b81811015612ed757858101830151858201604001528201612ebb565b81811115612ee85783604083870101525b50601f01601f1916929092016040019392505050565b60006040820160408352818554600180821660008114612f255760018114612f4357612f7c565b60028304607f16855260ff1983166060880152608087019350612f7c565b60028304808652612f538a613144565b875b82811015612f725781548a82016060015290840190602001612f55565b8901606001955050505b50505080925050506108fd6020830184612de0565b60208082526003908201526245433760e81b604082015260600190565b6020808252600390820152621150cd60ea1b604082015260600190565b6020808252600490820152634543313960e01b604082015260600190565b60208082526003908201526245433560e81b604082015260600190565b6020808252600490820152631150cc4d60e21b604082015260600190565b60208082526003908201526245433360e81b604082015260600190565b6020808252600490820152634543313560e01b604082015260600190565b60208082526004908201526322a1989960e11b604082015260600190565b6020808252600490820152630454332360e41b604082015260600190565b60208082526003908201526245433960e81b604082015260600190565b60208082526003908201526245433160e81b604082015260600190565b60208082526003908201526208a86760eb1b604082015260600190565b6020808252600490820152630454331360e41b604082015260600190565b60208082526003908201526222a19b60e91b604082015260600190565b90815260200190565b918252602082015260400190565b60009081526020902090565b8015158114612bdb57600080fdfea2646970667358221220c53c984b9e47b26542b4e81e39dbe9663872ee3922406ace2e5fc7b9c209e49964736f6c63430007060033",
  "immutableReferences": {},
  "source": "// SPDX-License-Identifier: GPL-3.0\r\n\r\npragma solidity >=0.7.0 <0.9.0;\r\npragma experimental ABIEncoderV2;\r\n\r\n/**\r\n * @title Storage\r\n * @dev Store & retrieve value in a variable\r\n */\r\n\r\n import \"./Abstract/MultiSigCertificatesPool.sol\";\r\n\r\n contract PublicCertificatesPool is MultiSigCertificatesPool {\r\n\r\n     address _creator;\r\n     mapping(address => bool) _submitedByCreator;\r\n\r\n     //modifiers\r\n    modifier hasBeenSubmitted(bool YesOrNo, address provider){\r\n        if(false == YesOrNo) require(false == _submitedByCreator[provider], \"EC3\");\r\n        else require(true == _submitedByCreator[provider], \"EC4\");\r\n        _;\r\n    }\r\n\r\n     // Constructor\r\n    constructor(address[] memory owners,  uint256 minOwners) MultiSigCertificatesPool(owners, minOwners) payable {\r\n        _creator = msg.sender;\r\n    }\r\n\r\n    function addProvider(address provider, string memory providerInfo, uint nonce) external \r\n        isSomeoneSpecific(_creator)\r\n        hasBeenSubmitted(false, provider)\r\n        isNonceOK(nonce)\r\n    override\r\n    {\r\n        _Entities[_providerId]._entities[provider]._Info = bytes(providerInfo);\r\n        _submitedByCreator[provider] = true;\r\n        Library.AddNonce(nonce, _Nonces);\r\n    }\r\n\r\n    function validateProvider(address provider, uint nonce) external \r\n        hasBeenSubmitted(true, provider)\r\n    {\r\n        addEntity(provider, _Entities[_providerId]._entities[provider]._Info, _providerId, nonce);\r\n    }\r\n\r\n    function removeProvider(address provider, uint nonce) external override{\r\n       removeEntity(provider, _providerId, nonce); \r\n\r\n       if(false == Library.isEntity(_Entities[_providerId]._entities[provider])){\r\n            delete(_submitedByCreator[provider]);\r\n       }\r\n    }\r\n\r\n }",
  "sourcePath": "C:\\Users\\d-aam\\GitHub\\Certificates\\contracts\\PublicCertificatesPool.sol",
  "compiler": {
    "name": "solc",
    "version": "0.7.6+commit.7338295f.Emscripten.clang"
  },
  "schemaVersion": "3.3.4",
  "updatedAt": "2021-07-13T14:16:05.575Z",
  "devdoc": {
    "kind": "dev",
    "methods": {},
    "version": 1
  },
  "userdoc": {
    "kind": "user",
    "methods": {},
    "version": 1
  }
}