{
  "contractName": "PublicCertificatesPool",
  "abi": [
    {
      "inputs": [
        {
          "internalType": "address[]",
          "name": "owners",
          "type": "address[]"
        },
        {
          "internalType": "uint256",
          "name": "minOwners",
          "type": "uint256"
        },
        {
          "internalType": "address",
          "name": "managerContractAddress",
          "type": "address"
        }
      ],
      "stateMutability": "nonpayable",
      "type": "constructor"
    },
    {
      "anonymous": false,
      "inputs": [
        {
          "indexed": false,
          "internalType": "address",
          "name": "",
          "type": "address"
        },
        {
          "indexed": false,
          "internalType": "address",
          "name": "",
          "type": "address"
        }
      ],
      "name": "_AddCertificateIdEvent",
      "type": "event"
    },
    {
      "anonymous": false,
      "inputs": [
        {
          "indexed": false,
          "internalType": "string",
          "name": "",
          "type": "string"
        },
        {
          "indexed": false,
          "internalType": "address",
          "name": "",
          "type": "address"
        }
      ],
      "name": "_AddEntityValidationIdEvent",
      "type": "event"
    },
    {
      "anonymous": false,
      "inputs": [
        {
          "indexed": false,
          "internalType": "address",
          "name": "",
          "type": "address"
        },
        {
          "indexed": false,
          "internalType": "address",
          "name": "",
          "type": "address"
        }
      ],
      "name": "_RemoveCertificateIdEvent",
      "type": "event"
    },
    {
      "anonymous": false,
      "inputs": [
        {
          "indexed": false,
          "internalType": "string",
          "name": "",
          "type": "string"
        },
        {
          "indexed": false,
          "internalType": "address",
          "name": "",
          "type": "address"
        }
      ],
      "name": "_RemoveEntityValidationIdEvent",
      "type": "event"
    },
    {
      "anonymous": false,
      "inputs": [
        {
          "indexed": false,
          "internalType": "address",
          "name": "",
          "type": "address"
        }
      ],
      "name": "_SendProposalId",
      "type": "event"
    },
    {
      "inputs": [
        {
          "internalType": "address",
          "name": "owner",
          "type": "address"
        },
        {
          "internalType": "string",
          "name": "ownerInfo",
          "type": "string"
        }
      ],
      "name": "addOwner",
      "outputs": [],
      "stateMutability": "nonpayable",
      "type": "function"
    },
    {
      "inputs": [
        {
          "internalType": "address",
          "name": "owner",
          "type": "address"
        }
      ],
      "name": "isOwner",
      "outputs": [
        {
          "internalType": "bool",
          "name": "",
          "type": "bool"
        }
      ],
      "stateMutability": "view",
      "type": "function"
    },
    {
      "inputs": [
        {
          "internalType": "address",
          "name": "provider",
          "type": "address"
        }
      ],
      "name": "isProvider",
      "outputs": [
        {
          "internalType": "bool",
          "name": "",
          "type": "bool"
        }
      ],
      "stateMutability": "view",
      "type": "function"
    },
    {
      "inputs": [
        {
          "internalType": "bytes32",
          "name": "CertificateHash",
          "type": "bytes32"
        },
        {
          "internalType": "address",
          "name": "holder",
          "type": "address"
        }
      ],
      "name": "removeCertificate",
      "outputs": [],
      "stateMutability": "nonpayable",
      "type": "function"
    },
    {
      "inputs": [
        {
          "internalType": "address",
          "name": "owner",
          "type": "address"
        }
      ],
      "name": "removeOwner",
      "outputs": [],
      "stateMutability": "nonpayable",
      "type": "function"
    },
    {
      "inputs": [],
      "name": "retrieveAllOwners",
      "outputs": [
        {
          "internalType": "address[]",
          "name": "",
          "type": "address[]"
        }
      ],
      "stateMutability": "view",
      "type": "function"
    },
    {
      "inputs": [],
      "name": "retrieveAllProviders",
      "outputs": [
        {
          "internalType": "address[]",
          "name": "",
          "type": "address[]"
        }
      ],
      "stateMutability": "view",
      "type": "function"
    },
    {
      "inputs": [
        {
          "internalType": "bytes32",
          "name": "CertificateHash",
          "type": "bytes32"
        },
        {
          "internalType": "address",
          "name": "holder",
          "type": "address"
        }
      ],
      "name": "retrieveCertificateProvider",
      "outputs": [
        {
          "internalType": "address",
          "name": "",
          "type": "address"
        }
      ],
      "stateMutability": "view",
      "type": "function"
    },
    {
      "inputs": [
        {
          "internalType": "address",
          "name": "holder",
          "type": "address"
        },
        {
          "internalType": "uint256",
          "name": "skipFirst",
          "type": "uint256"
        },
        {
          "internalType": "uint256",
          "name": "max",
          "type": "uint256"
        }
      ],
      "name": "retrieveCertificatesByHolder",
      "outputs": [
        {
          "internalType": "bytes32[]",
          "name": "",
          "type": "bytes32[]"
        }
      ],
      "stateMutability": "view",
      "type": "function"
    },
    {
      "inputs": [],
      "name": "retrieveMinOwners",
      "outputs": [
        {
          "internalType": "uint256",
          "name": "",
          "type": "uint256"
        }
      ],
      "stateMutability": "view",
      "type": "function"
    },
    {
      "inputs": [
        {
          "internalType": "address",
          "name": "owner",
          "type": "address"
        }
      ],
      "name": "retrieveOwner",
      "outputs": [
        {
          "internalType": "string",
          "name": "",
          "type": "string"
        },
        {
          "internalType": "bool",
          "name": "",
          "type": "bool"
        }
      ],
      "stateMutability": "view",
      "type": "function"
    },
    {
      "inputs": [
        {
          "internalType": "bool",
          "name": "addedORremove",
          "type": "bool"
        }
      ],
      "name": "retrievePendingOwners",
      "outputs": [
        {
          "internalType": "address[]",
          "name": "",
          "type": "address[]"
        },
        {
          "internalType": "string[]",
          "name": "",
          "type": "string[]"
        }
      ],
      "stateMutability": "view",
      "type": "function"
    },
    {
      "inputs": [
        {
          "internalType": "bool",
          "name": "addedORremove",
          "type": "bool"
        }
      ],
      "name": "retrievePendingProviders",
      "outputs": [
        {
          "internalType": "address[]",
          "name": "",
          "type": "address[]"
        },
        {
          "internalType": "string[]",
          "name": "",
          "type": "string[]"
        }
      ],
      "stateMutability": "view",
      "type": "function"
    },
    {
      "inputs": [
        {
          "internalType": "address",
          "name": "provider",
          "type": "address"
        }
      ],
      "name": "retrieveProvider",
      "outputs": [
        {
          "internalType": "string",
          "name": "",
          "type": "string"
        },
        {
          "internalType": "bool",
          "name": "",
          "type": "bool"
        }
      ],
      "stateMutability": "view",
      "type": "function"
    },
    {
      "inputs": [
        {
          "internalType": "address",
          "name": "holder",
          "type": "address"
        }
      ],
      "name": "retrieveTotalCertificatesByHolder",
      "outputs": [
        {
          "internalType": "uint256",
          "name": "",
          "type": "uint256"
        }
      ],
      "stateMutability": "view",
      "type": "function"
    },
    {
      "inputs": [
        {
          "internalType": "address",
          "name": "TreasuryAddress",
          "type": "address"
        }
      ],
      "name": "updateContracts",
      "outputs": [],
      "stateMutability": "nonpayable",
      "type": "function"
    },
    {
      "inputs": [
        {
          "internalType": "address",
          "name": "provider",
          "type": "address"
        },
        {
          "internalType": "string",
          "name": "providerInfo",
          "type": "string"
        }
      ],
      "name": "addProvider",
      "outputs": [],
      "stateMutability": "payable",
      "type": "function"
    },
    {
      "inputs": [
        {
          "internalType": "address",
          "name": "provider",
          "type": "address"
        }
      ],
      "name": "validateProvider",
      "outputs": [],
      "stateMutability": "nonpayable",
      "type": "function"
    },
    {
      "inputs": [
        {
          "internalType": "address",
          "name": "provider",
          "type": "address"
        }
      ],
      "name": "removeProvider",
      "outputs": [],
      "stateMutability": "nonpayable",
      "type": "function"
    },
    {
      "inputs": [
        {
          "internalType": "bytes32",
          "name": "CertificateHash",
          "type": "bytes32"
        },
        {
          "internalType": "address",
          "name": "holder",
          "type": "address"
        }
      ],
      "name": "addCertificate",
      "outputs": [],
      "stateMutability": "payable",
      "type": "function"
    }
  ],
  "bytecode": "0x600560c09081526427bbb732b960d91b60e0526080908152610140604052600861010090815267283937bb34b232b960c11b6101205260a05262000048906004906002620003f0565b503480156200005657600080fd5b50604051620039f4380380620039f4833981016040819052620000799162000576565b808383818160026004805480602002602001604051908101604052809291908181526020016000905b8282101562000158578382906000526020600020018054620000c4906200066d565b80601f0160208091040260200160405190810160405280929190818152602001828054620000f2906200066d565b8015620001435780601f10620001175761010080835404028352916020019162000143565b820191906000526020600020905b8154815290600101906020018083116200012557829003601f168201915b505050505081526020019060010190620000a2565b5050505060008451841115620001a35760405162461bcd60e51b81526004016200019a9060208082526004908201526322a1989b60e11b604082015260600190565b60405180910390fd5b60008411620001de5760405162461bcd60e51b81526004016200019a906020808252600490820152634543313760e01b604082015260600190565b81518314620002195760405162461bcd60e51b81526004016200019a9060208082526004908201526308a8662760e31b604082015260600190565b60008181555b83811015620002985760028054600101815560005282516003908490839081106200024e576200024e620006d4565b6020908102919091018101518254600181018455600093845292829020815162000282949190910192919091019062000454565b50806200028f81620006aa565b9150506200021f565b50600184905560005b8551811015620003bd576001600260005481548110620002c557620002c5620006d4565b90600052602060002090600402016000016000888481518110620002ed57620002ed620006d4565b60200260200101516001600160a01b03166001600160a01b0316815260200190815260200160002060000160006101000a81548160ff021916908315150217905550600260005481548110620003475762000347620006d4565b90600052602060002090600402016001018682815181106200036d576200036d620006d4565b60209081029190910181015182546001810184556000938452919092200180546001600160a01b0319166001600160a01b0390921691909117905580620003b481620006aa565b915050620002a1565b5050600680546001600160a01b0319166001600160a01b0398909816979097179096555062000700975050505050505050565b82805482825590600052602060002090810192821562000442579160200282015b828111156200044257825180516200043191849160209091019062000454565b509160200191906001019062000411565b5062000450929150620004df565b5090565b82805462000462906200066d565b90600052602060002090601f016020900481019282620004865760008555620004d1565b82601f10620004a157805160ff1916838001178555620004d1565b82800160010185558215620004d1579182015b82811115620004d1578251825591602001919060010190620004b4565b506200045092915062000500565b8082111562000450576000620004f6828262000517565b50600101620004df565b5b8082111562000450576000815560010162000501565b50805462000525906200066d565b6000825580601f1062000536575050565b601f01602090049060005260206000209081019062000556919062000500565b50565b80516001600160a01b03811681146200057157600080fd5b919050565b6000806000606084860312156200058c57600080fd5b83516001600160401b0380821115620005a457600080fd5b818601915086601f830112620005b957600080fd5b8151602082821115620005d057620005d0620006ea565b8160051b604051601f19603f83011681018181108682111715620005f857620005f8620006ea565b604052838152828101945085830182870184018c10156200061857600080fd5b600096505b848710156200064657620006318162000559565b8652600196909601959483019483016200061d565b50809850505080880151955050505050620006646040850162000559565b90509250925092565b600181811c908216806200068257607f821691505b60208210811415620006a457634e487b7160e01b600052602260045260246000fd5b50919050565b6000600019821415620006cd57634e487b7160e01b600052601160045260246000fd5b5060010190565b634e487b7160e01b600052603260045260246000fd5b634e487b7160e01b600052604160045260246000fd5b6132e480620007106000396000f3fe6080604052600436106100ef5760003560e01c8063173825d9146100f45780631ab807f814610116578063279958a91461012957806327a40b4b146101495780632f54bf6e146101695780633542758f1461019e57806337583499146101be57806358a1ba25146101ec57806365b973e5146102195780636b074a07146102385780636b299604146102585780636b3a0fec146102865780636e4f9179146102a65780636e55d2d4146102c857806377bc5a1f146102e85780638a355a5714610308578063a73db28a14610328578063a93d5ed614610348578063d0a4adfe1461035d578063fc000500146103b0575b600080fd5b34801561010057600080fd5b5061011461010f366004612bd9565b6103c3565b005b610114610124366004612db2565b610431565b34801561013557600080fd5b50610114610144366004612bd9565b6104a4565b34801561015557600080fd5b50610114610164366004612bd9565b610512565b34801561017557600080fd5b50610189610184366004612bd9565b61077d565b60405190151581526020015b60405180910390f35b3480156101aa57600080fd5b506101146101b9366004612bf4565b610791565b3480156101ca57600080fd5b506101de6101d9366004612bd9565b61079e565b604051610195929190612f8e565b3480156101f857600080fd5b5061020c610207366004612c99565b6107b6565b6040516101959190612f22565b34801561022557600080fd5b506001545b604051908152602001610195565b34801561024457600080fd5b50610189610253366004612bd9565b61095c565b34801561026457600080fd5b50610278610273366004612d78565b610969565b604051610195929190612eb0565b34801561029257600080fd5b506102786102a1366004612d78565b610978565b3480156102b257600080fd5b506102bb610986565b6040516101959190612e9d565b3480156102d457600080fd5b5061022a6102e3366004612bd9565b610997565b3480156102f457600080fd5b506101de610303366004612bd9565b6109b5565b34801561031457600080fd5b50610114610323366004612bd9565b6109c5565b34801561033457600080fd5b50610114610343366004612db2565b610a03565b34801561035457600080fd5b506102bb610cb8565b34801561036957600080fd5b506103a3610378366004612db2565b6001600160a01b03908116600090815260056020908152604080832094835293905291909120541690565b6040516101959190612e6f565b6101146103be366004612bf4565b610cc5565b60015460016103d3600054610e2e565b516103de91906131f1565b808211156104205760405162461bcd60e51b8152600401610417906020808252600490820152634543313960e01b604082015260600190565b60405180910390fd5b61042c83600054610f66565b505050565b600854604051637864992f60e11b81526001600160a01b039091169063f0c9325e90349061046490600290600401612f66565b6000604051808303818588803b15801561047d57600080fd5b505af1158015610491573d6000803e3d6000fd5b50505050506104a0828261112c565b5050565b6006546104b9906001600160a01b0316611245565b15156001146104f05760405162461bcd60e51b815260206004820152600360248201526208a86760eb1b6044820152606401610417565b600880546001600160a01b0319166001600160a01b0392909216919091179055565b6001816001600160a01b03811660009081526007602052604090205460ff1615156001146105685760405162461bcd60e51b81526020600482015260036024820152621150cd60ea1b6044820152606401610417565b61063783600260018154811061058057610580613274565b600091825260208083206001600160a01b0389168452600490920290910190526040902060010180546105b290613208565b80601f01602080910402602001604051908101604052809291908181526020018280546105de90613208565b801561062b5780601f106106005761010080835404028352916020019161062b565b820191906000526020600020905b81548152906001019060200180831161060e57829003601f168201915b50505050506001611268565b6106408361095c565b15156001141561042c576000600260018154811061066057610660613274565b600091825260208083206001600160a01b038816845260049092029091019052604081206002015491505b8181101561077657600854600280546001600160a01b039092169163eb1e2a41919060019081106106be576106be613274565b600091825260208083206001600160a01b038b16845260049092029091019052604090206002018054849081106106f7576106f7613274565b60009182526020909120015460405160e083901b6001600160e01b03191681526001600160a01b03909116600482015260248101859052604401600060405180830381600087803b15801561074b57600080fd5b505af115801561075f573d6000803e3d6000fd5b50505050808061076e90613243565b91505061068b565b5050505050565b600061078b82600054611453565b92915050565b6104a08282600054611268565b606060006107ad83600161154b565b91509150915091565b6060826107c285610997565b116107dc5750604080516000815260208101909152610955565b8180846107e887610997565b6107f291906131f1565b101561080f578361080286610997565b61080c91906131f1565b90505b6000816001600160401b038111156108295761082961328a565b604051908082528060200260200182016040528015610852578160200160208202803683370190505b506001600160a01b0387166000908152600560209081526040808320600101805482518185028101850190935280835294955092939092918301828280156108b957602002820191906000526020600020905b8154815260200190600101908083116108a5575b5050505050905060008060005b835181101561094c578783106108db5761094c565b818911156108f5576108ee6001836131d9565b915061093a565b83818151811061090757610907613274565b602002602001015185848151811061092157610921613274565b60209081029190910101526109376001846131d9565b92505b8061094481613243565b9150506108c6565b50929450505050505b9392505050565b600061078b826001611453565b6060806107ad836000546116de565b6060806107ad8360016116de565b60606109926001610e2e565b905090565b6001600160a01b031660009081526005602052604090206001015490565b606060006107ad8360005461154b565b6109d0816001610f66565b6109db816001611453565b610a00576001600160a01b0381166000908152600760205260409020805460ff191690555b50565b610a0c3361095c565b1515600114610a2d5760405162461bcd60e51b8152600401610417906130cc565b6001600160a01b0381811660009081526005602090815260408083208684529091529020548291849116331480610a6c5750336001600160a01b038316145b610aa15760405162461bcd60e51b8152600401610417906020808252600490820152631150cc4d60e21b604082015260600190565b6001600160a01b0380841660008181526005602081815260408084208a855280835281852054958552928252600190920180548351818402810184019094528084529490951694929391929190830182828015610b1d57602002820191906000526020600020905b815481526020019060010190808311610b09575b5050505050905060005b8151811015610c4457818181518110610b4257610b42613274565b6020026020010151871415610c32576001600160a01b038616600090815260056020526040908190209051635b28cf6360e01b815273__Library_______________________________91635b28cf6391610ba7918591600190910190600401613155565b60006040518083038186803b158015610bbf57600080fd5b505af4158015610bd3573d6000803e3d6000fd5b505050506040513d6000823e601f3d908101601f19168201604052610bfb9190810190612ccc565b6001600160a01b03871660009081526005602090815260409091208251610c2c936001909201929190910190612a41565b50610c44565b80610c3c81613243565b915050610b27565b506001600160a01b03851660009081526005602090815260408083208984529091529081902080546001600160a01b0319169055517fd12847594abf0621035046f61129f2a9dc5093eb516c6c517ece306362ef6f1790610ca89084908890612e83565b60405180910390a1505050505050565b6060610992600054610e2e565b6000826001600160a01b03811660009081526007602052604090205460ff1615610d175760405162461bcd60e51b815260206004820152600360248201526245433360e81b6044820152606401610417565b600854604051637864992f60e11b81526001600160a01b039091169063f0c9325e903490610d4a90600090600401612f66565b6000604051808303818588803b158015610d6357600080fd5b505af1158015610d77573d6000803e3d6000fd5b5050505050826002600181548110610d9157610d91613274565b600091825260208083206001600160a01b03891684526004909202909101815260409091208251610dcc936001909201929190910190612a8c565b506001600160a01b03841660009081526007602052604090819020805460ff19166001179055517fbaf065d025fe427c7c36f893bdec1c49e6c164c4a6531f4216f64e6e876a9a4f90610e20908690612e6f565b60405180910390a150505050565b60025460405163123bd07560e11b8152606091839173__Library_______________________________90632477a0ea90610e6f908590859060040161319b565b60206040518083038186803b158015610e8757600080fd5b505af4158015610e9b573d6000803e3d6000fd5b505050506040513d601f19601f82011682018060405250810190610ebf9190612d95565b1515600114610ee05760405162461bcd60e51b8152600401610417906130ea565b60028481548110610ef357610ef3613274565b9060005260206000209060040201600101805480602002602001604051908101604052809291908181526020018280548015610f5857602002820191906000526020600020905b81546001600160a01b03168152600190910190602001808311610f3a575b505050505092505050919050565b60025460405163123bd07560e11b815282919073__Library_______________________________90632477a0ea90610fa5908590859060040161319b565b60206040518083038186803b158015610fbd57600080fd5b505af4158015610fd1573d6000803e3d6000fd5b505050506040513d601f19601f82011682018060405250810190610ff59190612d95565b15156001146110165760405162461bcd60e51b8152600401610417906130ea565b600184846110248282611453565b151560011461105b5760405162461bcd60e51b815260206004820152600360248201526245433760e81b6044820152606401610417565b6000878782611087565b156110825760405162461bcd60e51b815260040161041790613073565b6110c1565b83611096576110658383611afc565b6110a08383611afc565b15156001146110c15760405162461bcd60e51b8152600401610417906130ae565b60028a815481106110d4576110d4613274565b6000918252602080832060049290920290910160030180546001810182559083529082200180546001600160a01b0319166001600160a01b038e1617905561111f908c908c90611c8b565b5050505050505050505050565b6111353361095c565b15156001146111565760405162461bcd60e51b8152600401610417906130cc565b816001600160a01b0380831660009081526005602090815260408083208784529091529020548391859116156111b75760405162461bcd60e51b8152600401610417906020808252600490820152634543313560e01b604082015260600190565b6001600160a01b038416600090815260056020818152604080842089855280835281852080546001600160a01b031916339081179091559383526001908101805491820181558552919093200187905590517f601cb9a073dbfa468ef12878ee6c720641a49b76af7c16099e8c0a1ac3ca79b591611236918790612e83565b60405180910390a15050505050565b6000336001600160a01b038316141561126057506001919050565b506000919050565b60025460405163123bd07560e11b815282919073__Library_______________________________90632477a0ea906112a7908590859060040161319b565b60206040518083038186803b1580156112bf57600080fd5b505af41580156112d3573d6000803e3d6000fd5b505050506040513d601f19601f820116820180604052508101906112f79190612d95565b15156001146113185760405162461bcd60e51b8152600401610417906130ea565b600085846113268282611453565b156113595760405162461bcd60e51b815260206004820152600360248201526222a19b60e91b6044820152606401610417565b6000888760016113698383611960565b156113865760405162461bcd60e51b815260040161041790613073565b8a60028b8154811061139a5761139a613274565b906000526020600020906004020160000160008e6001600160a01b03166001600160a01b0316815260200190815260200160002060010190805190602001906113e4929190612a8c565b5060028a815481106113f8576113f8613274565b60009182526020808320600492909202909101600201805460018082018355918452919092200180546001600160a01b0319166001600160a01b038f16179055611445908d908c90611c8b565b505050505050505050505050565b60025460405163123bd07560e11b8152600091839173__Library_______________________________90632477a0ea90611494908590859060040161319b565b60206040518083038186803b1580156114ac57600080fd5b505af41580156114c0573d6000803e3d6000fd5b505050506040513d601f19601f820116820180604052508101906114e49190612d95565b15156001146115055760405162461bcd60e51b8152600401610417906130ea565b6002848154811061151857611518613274565b600091825260208083206001600160a01b038916845260049092029091019052604090205460ff1692505b505092915050565b60025460405163123bd07560e11b815260609160009184919073__Library_______________________________90632477a0ea90611590908590859060040161319b565b60206040518083038186803b1580156115a857600080fd5b505af41580156115bc573d6000803e3d6000fd5b505050506040513d601f19601f820116820180604052508101906115e09190612d95565b15156001146116015760405162461bcd60e51b8152600401610417906130ea565b6002858154811061161457611614613274565b600091825260208083206001600160a01b038a16845260049092029091019052604090206001016116458787611453565b81805461165190613208565b80601f016020809104026020016040519081016040528092919081815260200182805461167d90613208565b80156116ca5780601f1061169f576101008083540402835291602001916116ca565b820191906000526020600020905b8154815290600101906020018083116116ad57829003601f168201915b505050505091509350935050509250929050565b60025460405163123bd07560e11b8152606091829184919073__Library_______________________________90632477a0ea90611722908590859060040161319b565b60206040518083038186803b15801561173a57600080fd5b505af415801561174e573d6000803e3d6000fd5b505050506040513d601f19601f820116820180604052508101906117729190612d95565b15156001146117935760405162461bcd60e51b8152600401610417906130ea565b6060861561181f57600286815481106117ae576117ae613274565b906000526020600020906004020160020180548060200260200160405190810160405280929190818152602001828054801561181357602002820191906000526020600020905b81546001600160a01b031681526001909101906020018083116117f5575b5050505050905061189f565b6002868154811061183257611832613274565b906000526020600020906004020160030180548060200260200160405190810160405280929190818152602001828054801561189757602002820191906000526020600020905b81546001600160a01b03168152600190910190602001808311611879575b505050505090505b6002546000906001600160401b038111156118bc576118bc61328a565b6040519080825280602002602001820160405280156118ef57816020015b60608152602001906001900390816118da5790505b50905060005b82518110156119525761192183828151811061191357611913613274565b60200260200101518961154b565b5082828151811061193457611934613274565b6020026020010181905250808061194a90613243565b9150506118f5565b509097909650945050505050565b60025460405163123bd07560e11b8152600091839173__Library_______________________________90632477a0ea906119a1908590859060040161319b565b60206040518083038186803b1580156119b957600080fd5b505af41580156119cd573d6000803e3d6000fd5b505050506040513d601f19601f820116820180604052508101906119f19190612d95565b1515600114611a125760405162461bcd60e51b8152600401610417906130ea565b600060028581548110611a2757611a27613274565b9060005260206000209060040201600201805480602002602001604051908101604052809291908181526020018280548015611a8c57602002820191906000526020600020905b81546001600160a01b03168152600190910190602001808311611a6e575b5050505050905060005b8151811015611aef57818181518110611ab157611ab1613274565b60200260200101516001600160a01b0316876001600160a01b03161415611add57600194505050611543565b80611ae781613243565b915050611a96565b5060009695505050505050565b60025460405163123bd07560e11b8152600091839173__Library_______________________________90632477a0ea90611b3d908590859060040161319b565b60206040518083038186803b158015611b5557600080fd5b505af4158015611b69573d6000803e3d6000fd5b505050506040513d601f19601f82011682018060405250810190611b8d9190612d95565b1515600114611bae5760405162461bcd60e51b8152600401610417906130ea565b600060028581548110611bc357611bc3613274565b9060005260206000209060040201600301805480602002602001604051908101604052809291908181526020018280548015611c2857602002820191906000526020600020905b81546001600160a01b03168152600190910190602001808311611c0a575b5050505050905060005b8151811015611aef57818181518110611c4d57611c4d613274565b60200260200101516001600160a01b0316876001600160a01b03161415611c7957600194505050611543565b80611c8381613243565b915050611c32565b60025460405163123bd07560e11b815283919073__Library_______________________________90632477a0ea90611cca908590859060040161319b565b60206040518083038186803b158015611ce257600080fd5b505af4158015611cf6573d6000803e3d6000fd5b505050506040513d601f19601f82011682018060405250810190611d1a9190612d95565b1515600114611d3b5760405162461bcd60e51b8152600401610417906130ea565b611d4733600054611453565b1515600114611d7e5760405162461bcd60e51b815260206004820152600360248201526245433960e81b6044820152606401610417565b6001858585801515841415611de95783611dbe57611d9c8383611960565b15611db95760405162461bcd60e51b815260040161041790613073565b611e23565b611dc88383611960565b1515600114611db95760405162461bcd60e51b8152600401610417906130ae565b83611df857611d9c8383611afc565b611e028383611afc565b1515600114611e235760405162461bcd60e51b8152600401610417906130ae565b8660028981548110611e3757611e37613274565b600091825260208083206001600160a01b038e16845260049092029091018152604091829020825160808101909352805460ff16151583526001810180549192840191611e8390613208565b80601f0160208091040260200160405190810160405280929190818152602001828054611eaf90613208565b8015611efc5780601f10611ed157610100808354040283529160200191611efc565b820191906000526020600020905b815481529060010190602001808311611edf57829003601f168201915b5050505050815260200160028201805480602002602001604051908101604052809291908181526020018280548015611f5e57602002820191906000526020600020905b81546001600160a01b03168152600190910190602001808311611f40575b5050505050815260200160038201805480602002602001604051908101604052809291908181526020018280548015611fc057602002820191906000526020600020905b81546001600160a01b03168152600190910190602001808311611fa2575b505050919092525050506001821515141561200557611fe333826040015161274a565b156120005760405162461bcd60e51b815260040161041790613091565b612030565b61201333826060015161274a565b156120305760405162461bcd60e51b815260040161041790613091565b88156123465760028a8154811061204957612049613274565b600091825260208083206001600160a01b038f168452600490920290910181526040822060029081018054600181018255908452919092200180546001600160a01b0319163317905580546120ec91908c9081106120a9576120a9613274565b906000526020600020906004020160000160008d6001600160a01b03166001600160a01b03168152602001908152602001600020600201805490506001546127b0565b1561234157600160028b8154811061210657612106613274565b906000526020600020906004020160000160008d6001600160a01b03166001600160a01b0316815260200190815260200160002060000160006101000a81548160ff02191690831515021790555060028a8154811061216757612167613274565b60009182526020808320600160049093020182018054928301815583529091200180546001600160a01b038d166001600160a01b0319909116179055600280546122b391612231918e91908e9081106121c2576121c2613274565b906000526020600020906004020160020180548060200260200160405190810160405280929190818152602001828054801561222757602002820191906000526020600020905b81546001600160a01b03168152600190910190602001808311612209575b50505050506127cb565b60028c8154811061224457612244613274565b90600052602060002090600402016002018054806020026020016040519081016040528092919081815260200182805480156122a957602002820191906000526020600020905b81546001600160a01b0316815260019091019060200180831161228b575b50505050506127e8565b60028b815481106122c6576122c6613274565b906000526020600020906004020160020190805190602001906122ea929190612aff565b507f3c139d46a211844e248647688545a37c07c505c999c1232d1247c707dc0a91e260038b8154811061231f5761231f613274565b906000526020600020018c604051612338929190612fb2565b60405180910390a15b61111f565b60028a8154811061235957612359613274565b600091825260208083206001600160a01b038f1684526004909202909101815260408220600301805460018101825590835291200180546001600160a01b03191633179055600280546123fa91908c9081106123b7576123b7613274565b906000526020600020906004020160000160008d6001600160a01b03166001600160a01b03168152602001908152602001600020600301805490506001546127b0565b1561111f576125066124868c60028d8154811061241957612419613274565b9060005260206000209060040201600101805480602002602001604051908101604052809291908181526020018280548015612227576020028201919060005260206000209081546001600160a01b031681526001909101906020018083116122095750505050506127cb565b60028c8154811061249957612499613274565b90600052602060002090600402016001018054806020026020016040519081016040528092919081815260200182805480156122a9576020028201919060005260206000209081546001600160a01b0316815260019091019060200180831161228b5750505050506127e8565b60028b8154811061251957612519613274565b9060005260206000209060040201600101908051906020019061253d929190612aff565b506126456125c58c60028d8154811061255857612558613274565b9060005260206000209060040201600301805480602002602001604051908101604052809291908181526020018280548015612227576020028201919060005260206000209081546001600160a01b031681526001909101906020018083116122095750505050506127cb565b60028c815481106125d8576125d8613274565b90600052602060002090600402016003018054806020026020016040519081016040528092919081815260200182805480156122a9576020028201919060005260206000209081546001600160a01b0316815260019091019060200180831161228b5750505050506127e8565b60028b8154811061265857612658613274565b9060005260206000209060040201600301908051906020019061267c929190612aff565b5060028a8154811061269057612690613274565b600091825260208083206001600160a01b038f1684526004909202909101905260408120805460ff19168155906126ca6001830182612b54565b6126d8600283016000612b8e565b6126e6600383016000612b8e565b50507f1f62d535f971041db7bd8760bf0f1f9f476461558744a35c0d477b5ad6893e8960038b8154811061271c5761271c613274565b906000526020600020018c604051612735929190612fb2565b60405180910390a15050505050505050505050565b6000805b82518110156127a65782818151811061276957612769613274565b60200260200101516001600160a01b0316846001600160a01b0316141561279457600191505061078b565b8061279e81613243565b91505061274e565b5060009392505050565b6000818310156127c25750600061078b565b50600192915050565b60006109556001600160a01b0384166127e384612887565b61293b565b606061095573__Library_______________________________635b28cf638561281186612887565b6040518363ffffffff1660e01b815260040161282e929190613107565b60006040518083038186803b15801561284657600080fd5b505af415801561285a573d6000803e3d6000fd5b505050506040513d6000823e601f3d908101601f191682016040526128829190810190612ccc565b612990565b6060600082516001600160401b038111156128a4576128a461328a565b6040519080825280602002602001820160405280156128cd578160200160208202803683370190505b50905060005b8151811015612934576129058482815181106128f1576128f1613274565b60200260200101516001600160a01b031690565b82828151811061291757612917613274565b60209081029190910101528061292c81613243565b9150506128d3565b5092915050565b6000805b82518110156129825782818151811061295a5761295a613274565b602002602001015184141561297057905061078b565b8061297a81613243565b91505061293f565b5081516109559060016131d9565b6060600082516001600160401b038111156129ad576129ad61328a565b6040519080825280602002602001820160405280156129d6578160200160208202803683370190505b50905060005b815181101561293457612a058482815181106129fa576129fa613274565b602002602001015190565b828281518110612a1757612a17613274565b6001600160a01b039092166020928302919091019091015280612a3981613243565b9150506129dc565b828054828255906000526020600020908101928215612a7c579160200282015b82811115612a7c578251825591602001919060010190612a61565b50612a88929150612ba8565b5090565b828054612a9890613208565b90600052602060002090601f016020900481019282612aba5760008555612a7c565b82601f10612ad357805160ff1916838001178555612a7c565b82800160010185558215612a7c5791820182811115612a7c578251825591602001919060010190612a61565b828054828255906000526020600020908101928215612a7c579160200282015b82811115612a7c57825182546001600160a01b0319166001600160a01b03909116178255602090920191600190910190612b1f565b508054612b6090613208565b6000825580601f10612b70575050565b601f016020900490600052602060002090810190610a009190612ba8565b5080546000825590600052602060002090810190610a0091905b5b80821115612a885760008155600101612ba9565b80356001600160a01b0381168114612bd457600080fd5b919050565b600060208284031215612beb57600080fd5b61095582612bbd565b60008060408385031215612c0757600080fd5b612c1083612bbd565b91506020838101356001600160401b0380821115612c2d57600080fd5b818601915086601f830112612c4157600080fd5b813581811115612c5357612c5361328a565b612c65601f8201601f191685016131a9565b91508082528784828501011115612c7b57600080fd5b80848401858401376000848284010152508093505050509250929050565b600080600060608486031215612cae57600080fd5b612cb784612bbd565b95602085013595506040909401359392505050565b60006020808385031215612cdf57600080fd5b82516001600160401b0380821115612cf657600080fd5b818501915085601f830112612d0a57600080fd5b815181811115612d1c57612d1c61328a565b8060051b9150612d2d8483016131a9565b8181528481019084860184860187018a1015612d4857600080fd5b600095505b83861015612d6b578051835260019590950194918601918601612d4d565b5098975050505050505050565b600060208284031215612d8a57600080fd5b8135610955816132a0565b600060208284031215612da757600080fd5b8151610955816132a0565b60008060408385031215612dc557600080fd5b82359150612dd560208401612bbd565b90509250929050565b600081518084526020808501945080840160005b83811015612e175781516001600160a01b031687529582019590820190600101612df2565b509495945050505050565b6000815180845260005b81811015612e4857602081850181015186830182015201612e2c565b81811115612e5a576000602083870101525b50601f01601f19169290920160200192915050565b6001600160a01b0391909116815260200190565b6001600160a01b0392831681529116602082015260400190565b6020815260006109556020830184612dde565b604081526000612ec36040830185612dde565b6020838203818501528185518084528284019150828160051b85010183880160005b83811015612f1357601f19878403018552612f01838351612e22565b94860194925090850190600101612ee5565b50909998505050505050505050565b6020808252825182820181905260009190848201906040850190845b81811015612f5a57835183529284019291840191600101612f3e565b50909695505050505050565b6020810160038310612f8857634e487b7160e01b600052602160045260246000fd5b91905290565b604081526000612fa16040830185612e22565b905082151560208301529392505050565b60408152600080845481600182811c915080831680612fd257607f831692505b6020808410821415612ff257634e487b7160e01b86526022600452602486fd5b604088018490526060880182801561301157600181146130225761304d565b60ff1987168252828201975061304d565b60008c81526020902060005b878110156130475781548482015290860190840161302e565b83019850505b50508596506130668189018a6001600160a01b03169052565b5050505050509392505050565b6020808252600490820152634543323760e01b604082015260600190565b60208082526003908201526245433560e81b604082015260600190565b60208082526004908201526308a8664760e31b604082015260600190565b60208082526004908201526322a1989960e11b604082015260600190565b60208082526003908201526245433160e81b604082015260600190565b6000604082018483526020604081850152818551808452606086019150828701935060005b818110156131485784518352938301939183019160010161312c565b5090979650505050505050565b60006040820184835260206040818501528185548084526060860191508660005282600020935060005b818110156131485784548352600194850194928401920161317f565b918252602082015260400190565b604051601f8201601f191681016001600160401b03811182821017156131d1576131d161328a565b604052919050565b600082198211156131ec576131ec61325e565b500190565b6000828210156132035761320361325e565b500390565b600181811c9082168061321c57607f821691505b6020821081141561323d57634e487b7160e01b600052602260045260246000fd5b50919050565b60006000198214156132575761325761325e565b5060010190565b634e487b7160e01b600052601160045260246000fd5b634e487b7160e01b600052603260045260246000fd5b634e487b7160e01b600052604160045260246000fd5b8015158114610a0057600080fdfea26469706673582212202bac5033c5f0c98a2fa3ca56a53b259739ffc01cdc72b7200613d066c8c0e88c64736f6c63430008060033",
  "immutableReferences": {},
  "source": "// SPDX-License-Identifier: GPL-3.0\r\n\r\npragma solidity >=0.7.0 <0.9.0;\r\npragma experimental ABIEncoderV2;\r\n\r\n/**\r\n * @title Storage\r\n * @dev Store & retrieve value in a variable\r\n */\r\n\r\n import \"./Abstract/MultiSigCertificatesPool.sol\";\r\n import \"./Interfaces/IPublicPool.sol\";\r\n import \"./Treasury.sol\";\r\n import \"./Libraries/Library.sol\";\r\n import \"./Base/ManagedBaseContract.sol\";\r\n\r\n contract PublicCertificatesPool is MultiSigCertificatesPool, IPublicPool, ManagedBaseContract {\r\n    using Library for *;\r\n\r\n    // events\r\n    event _SendProposalId(address);\r\n\r\n    //modifiers\r\n    modifier hasBeenSubmitted(bool YesOrNo, address provider){\r\n        if(false == YesOrNo) require(false == _submited[provider], \"EC3\");\r\n        else require(true == _submited[provider], \"EC4\");\r\n        _;\r\n    }\r\n\r\n    // submitted providers (in progress or already validated)\r\n    mapping(address => bool) _submited;\r\n\r\n    // Treasury\r\n    Treasury _Treasury;\r\n\r\n    // Constructor\r\n    constructor(address[] memory owners,  uint256 minOwners, address managerContractAddress)\r\n    MultiSigCertificatesPool(owners, minOwners) \r\n    ManagedBaseContract(managerContractAddress) \r\n    {}\r\n\r\n    // functionality\r\n    function updateContracts(address TreasuryAddress) external\r\n        isFromManagerContract()\r\n    {\r\n        _Treasury = Treasury(TreasuryAddress);\r\n    }\r\n\r\n    function addProvider(address provider, string memory providerInfo) external \r\n        hasBeenSubmitted(false, provider)\r\n    override payable\r\n    {\r\n        _Treasury.pay{value:msg.value}(Library.Prices.NewProvider);\r\n        _Entities[_providerId]._entities[provider]._Info = providerInfo;\r\n        _submited[provider] = true;\r\n\r\n        emit _SendProposalId(provider);\r\n    }\r\n\r\n    function validateProvider(address provider) external \r\n        hasBeenSubmitted(true, provider)\r\n    override\r\n    {\r\n        addEntity(provider, _Entities[_providerId]._entities[provider]._Info, _providerId);\r\n\r\n        if(true == isProvider(provider)){\r\n            uint totalValidators = _Entities[_providerId]._entities[provider]._AddValidated.length;\r\n\r\n            for(uint i=0; i < totalValidators; i++){\r\n                _Treasury.getRefund(_Entities[_providerId]._entities[provider]._AddValidated[i], totalValidators);\r\n            }\r\n        }\r\n    }\r\n\r\n    function removeProvider(address provider) external override{\r\n       removeEntity(provider, _providerId); \r\n\r\n       if(false == isEntity(provider, _providerId)){\r\n            delete(_submited[provider]);\r\n       }\r\n    }\r\n\r\n    function addCertificate(bytes32 CertificateHash, address holder) external override payable\r\n    {\r\n        _Treasury.pay{value:msg.value}(Library.Prices.NewCertificate);\r\n        addCertificateInternal(CertificateHash, holder);\r\n    }\r\n\r\n }",
  "sourcePath": "C:\\Users\\d-aam\\GitHub\\Certificates\\contracts\\PublicCertificatesPool.sol",
  "compiler": {
    "name": "solc",
    "version": "0.8.6+commit.11564f7e.Emscripten.clang"
  },
  "schemaVersion": "3.3.4",
  "updatedAt": "2021-07-23T14:39:26.262Z",
  "devdoc": {
    "kind": "dev",
    "methods": {},
    "version": 1
  },
  "userdoc": {
    "kind": "user",
    "methods": {},
    "version": 1
  }
}