{
  "contractName": "PublicCertificatesPool",
  "abi": [
    {
      "inputs": [
        {
          "internalType": "address[]",
          "name": "owners",
          "type": "address[]"
        },
        {
          "internalType": "uint256",
          "name": "minOwners",
          "type": "uint256"
        }
      ],
      "stateMutability": "payable",
      "type": "constructor"
    },
    {
      "anonymous": false,
      "inputs": [
        {
          "indexed": false,
          "internalType": "address",
          "name": "",
          "type": "address"
        },
        {
          "indexed": false,
          "internalType": "address",
          "name": "",
          "type": "address"
        },
        {
          "indexed": false,
          "internalType": "uint256",
          "name": "",
          "type": "uint256"
        }
      ],
      "name": "_AddCertificateIdEvent",
      "type": "event"
    },
    {
      "anonymous": false,
      "inputs": [
        {
          "indexed": false,
          "internalType": "address",
          "name": "",
          "type": "address"
        }
      ],
      "name": "_AddOwnerValidationIdEvent",
      "type": "event"
    },
    {
      "anonymous": false,
      "inputs": [
        {
          "indexed": false,
          "internalType": "address",
          "name": "",
          "type": "address"
        }
      ],
      "name": "_AddProviderValidationIdEvent",
      "type": "event"
    },
    {
      "anonymous": false,
      "inputs": [
        {
          "indexed": false,
          "internalType": "address",
          "name": "",
          "type": "address"
        },
        {
          "indexed": false,
          "internalType": "address",
          "name": "",
          "type": "address"
        },
        {
          "indexed": false,
          "internalType": "uint256",
          "name": "",
          "type": "uint256"
        }
      ],
      "name": "_RemoveCertificateIdEvent",
      "type": "event"
    },
    {
      "anonymous": false,
      "inputs": [
        {
          "indexed": false,
          "internalType": "address",
          "name": "",
          "type": "address"
        }
      ],
      "name": "_RemoveOwnerValidationIdEvent",
      "type": "event"
    },
    {
      "anonymous": false,
      "inputs": [
        {
          "indexed": false,
          "internalType": "address",
          "name": "",
          "type": "address"
        }
      ],
      "name": "_RemoveProviderValidationIdEvent",
      "type": "event"
    },
    {
      "anonymous": false,
      "inputs": [
        {
          "indexed": false,
          "internalType": "address",
          "name": "",
          "type": "address"
        },
        {
          "indexed": false,
          "internalType": "address",
          "name": "",
          "type": "address"
        },
        {
          "indexed": false,
          "internalType": "uint256",
          "name": "",
          "type": "uint256"
        }
      ],
      "name": "_UpdateCertificateIdEvent",
      "type": "event"
    },
    {
      "inputs": [
        {
          "internalType": "string",
          "name": "CertificateContent",
          "type": "string"
        },
        {
          "internalType": "string",
          "name": "CertificateLocation",
          "type": "string"
        },
        {
          "internalType": "bytes",
          "name": "CertificateHash",
          "type": "bytes"
        },
        {
          "internalType": "address",
          "name": "holder",
          "type": "address"
        }
      ],
      "name": "addCertificate",
      "outputs": [],
      "stateMutability": "nonpayable",
      "type": "function"
    },
    {
      "inputs": [
        {
          "internalType": "address",
          "name": "owner",
          "type": "address"
        },
        {
          "internalType": "string",
          "name": "ownerInfo",
          "type": "string"
        }
      ],
      "name": "addOwner",
      "outputs": [],
      "stateMutability": "nonpayable",
      "type": "function"
    },
    {
      "inputs": [
        {
          "internalType": "address",
          "name": "owner",
          "type": "address"
        }
      ],
      "name": "isOwner",
      "outputs": [
        {
          "internalType": "bool",
          "name": "",
          "type": "bool"
        }
      ],
      "stateMutability": "view",
      "type": "function"
    },
    {
      "inputs": [
        {
          "internalType": "address",
          "name": "provider",
          "type": "address"
        }
      ],
      "name": "isProvider",
      "outputs": [
        {
          "internalType": "bool",
          "name": "",
          "type": "bool"
        }
      ],
      "stateMutability": "view",
      "type": "function"
    },
    {
      "inputs": [
        {
          "internalType": "uint256",
          "name": "CertificateId",
          "type": "uint256"
        },
        {
          "internalType": "address",
          "name": "holder",
          "type": "address"
        }
      ],
      "name": "removeCertificate",
      "outputs": [],
      "stateMutability": "nonpayable",
      "type": "function"
    },
    {
      "inputs": [
        {
          "internalType": "address",
          "name": "owner",
          "type": "address"
        }
      ],
      "name": "removeOwner",
      "outputs": [],
      "stateMutability": "nonpayable",
      "type": "function"
    },
    {
      "inputs": [
        {
          "internalType": "address",
          "name": "provider",
          "type": "address"
        }
      ],
      "name": "removeProvider",
      "outputs": [],
      "stateMutability": "nonpayable",
      "type": "function"
    },
    {
      "inputs": [],
      "name": "retrieveAllOwners",
      "outputs": [
        {
          "internalType": "address[]",
          "name": "",
          "type": "address[]"
        }
      ],
      "stateMutability": "view",
      "type": "function"
    },
    {
      "inputs": [],
      "name": "retrieveAllProviders",
      "outputs": [
        {
          "internalType": "address[]",
          "name": "",
          "type": "address[]"
        }
      ],
      "stateMutability": "view",
      "type": "function"
    },
    {
      "inputs": [
        {
          "internalType": "uint256",
          "name": "CertificateId",
          "type": "uint256"
        },
        {
          "internalType": "address",
          "name": "holder",
          "type": "address"
        }
      ],
      "name": "retrieveCertificate",
      "outputs": [
        {
          "internalType": "address",
          "name": "",
          "type": "address"
        },
        {
          "internalType": "string",
          "name": "",
          "type": "string"
        },
        {
          "internalType": "string",
          "name": "",
          "type": "string"
        },
        {
          "internalType": "bytes",
          "name": "",
          "type": "bytes"
        }
      ],
      "stateMutability": "view",
      "type": "function"
    },
    {
      "inputs": [
        {
          "internalType": "address",
          "name": "provider",
          "type": "address"
        },
        {
          "internalType": "address",
          "name": "holder",
          "type": "address"
        }
      ],
      "name": "retrieveCertificatesByProviderAndHolder",
      "outputs": [
        {
          "internalType": "uint256[]",
          "name": "",
          "type": "uint256[]"
        }
      ],
      "stateMutability": "view",
      "type": "function"
    },
    {
      "inputs": [
        {
          "internalType": "address",
          "name": "owner",
          "type": "address"
        }
      ],
      "name": "retrieveOwner",
      "outputs": [
        {
          "internalType": "string",
          "name": "",
          "type": "string"
        }
      ],
      "stateMutability": "view",
      "type": "function"
    },
    {
      "inputs": [
        {
          "internalType": "address",
          "name": "provider",
          "type": "address"
        }
      ],
      "name": "retrieveProvider",
      "outputs": [
        {
          "internalType": "string",
          "name": "",
          "type": "string"
        }
      ],
      "stateMutability": "view",
      "type": "function"
    },
    {
      "inputs": [
        {
          "internalType": "address",
          "name": "holder",
          "type": "address"
        }
      ],
      "name": "retrieveTotalCertificatesByHolder",
      "outputs": [
        {
          "internalType": "uint256",
          "name": "",
          "type": "uint256"
        }
      ],
      "stateMutability": "view",
      "type": "function"
    },
    {
      "inputs": [
        {
          "internalType": "address",
          "name": "provider",
          "type": "address"
        },
        {
          "internalType": "address",
          "name": "holder",
          "type": "address"
        }
      ],
      "name": "retrieveTotalCertificatesByProviderAndHolder",
      "outputs": [
        {
          "internalType": "uint256",
          "name": "",
          "type": "uint256"
        }
      ],
      "stateMutability": "view",
      "type": "function"
    },
    {
      "inputs": [],
      "name": "retrieveTotalOwners",
      "outputs": [
        {
          "internalType": "uint256",
          "name": "",
          "type": "uint256"
        }
      ],
      "stateMutability": "view",
      "type": "function"
    },
    {
      "inputs": [],
      "name": "retrieveTotalProviders",
      "outputs": [
        {
          "internalType": "uint256",
          "name": "",
          "type": "uint256"
        }
      ],
      "stateMutability": "view",
      "type": "function"
    },
    {
      "inputs": [
        {
          "internalType": "uint256",
          "name": "CertificateId",
          "type": "uint256"
        },
        {
          "internalType": "address",
          "name": "holder",
          "type": "address"
        },
        {
          "internalType": "string",
          "name": "CertificateContent",
          "type": "string"
        },
        {
          "internalType": "string",
          "name": "CertificateLocation",
          "type": "string"
        },
        {
          "internalType": "bytes",
          "name": "CertificateHash",
          "type": "bytes"
        }
      ],
      "name": "updateCertificate",
      "outputs": [],
      "stateMutability": "nonpayable",
      "type": "function"
    },
    {
      "inputs": [
        {
          "internalType": "address",
          "name": "owner",
          "type": "address"
        },
        {
          "internalType": "string",
          "name": "ownerInfo",
          "type": "string"
        }
      ],
      "name": "updateOwner",
      "outputs": [],
      "stateMutability": "nonpayable",
      "type": "function"
    },
    {
      "inputs": [
        {
          "internalType": "address",
          "name": "provider",
          "type": "address"
        },
        {
          "internalType": "string",
          "name": "providerInfo",
          "type": "string"
        }
      ],
      "name": "updateProvider",
      "outputs": [],
      "stateMutability": "nonpayable",
      "type": "function"
    },
    {
      "inputs": [
        {
          "internalType": "address",
          "name": "provider",
          "type": "address"
        },
        {
          "internalType": "string",
          "name": "providerInfo",
          "type": "string"
        }
      ],
      "name": "addProvider",
      "outputs": [],
      "stateMutability": "nonpayable",
      "type": "function"
    },
    {
      "inputs": [
        {
          "internalType": "address",
          "name": "provider",
          "type": "address"
        }
      ],
      "name": "validateProvider",
      "outputs": [],
      "stateMutability": "nonpayable",
      "type": "function"
    }
  ],
  "bytecode": "0x6080604052600267ffffffffffffffff811180156200001d57600080fd5b506040519080825280602002602001820160405280156200004d5781602001602082028036833780820191505090505b5060019080519060200190620000659291906200052e565b50600267ffffffffffffffff811180156200007f57600080fd5b50604051908082528060200260200182016040528015620000b557816020015b60608152602001906001900390816200009f5790505b5060029080519060200190620000cd92919062000580565b50604051620059f0380380620059f083398181016040526040811015620000f357600080fd5b81019080805160405193929190846401000000008211156200011457600080fd5b838201915060208201858111156200012b57600080fd5b82518660208202830111640100000000821117156200014957600080fd5b8083526020830192505050908051906020019060200280838360005b838110156200018257808201518184015260208101905062000165565b505050509050016040526020018051906020019092919050505081818151811115620001fa576040517f08c379a000000000000000000000000000000000000000000000000000000000815260040180806020018281038252603c815260200180620059b4603c913960400191505060405180910390fd5b6000811162000271576040517f08c379a00000000000000000000000000000000000000000000000000000000081526004018080602001828103825260188152602001807f4174206c656173742031206d696e696d756d206f776e6572000000000000000081525060200191505060405180910390fd5b6003600181600181540180825580915050039060005260206000209050506003600181600181540180825580915050039060005260206000209050506040518060400160405280600581526020017f4f776e65720000000000000000000000000000000000000000000000000000008152506002600081548110620002f257fe5b90600052602060002001908051906020019062000311929190620005e7565b506040518060400160405280600881526020017f50726f766964657200000000000000000000000000000000000000000000000081525060026001815481106200035757fe5b90600052602060002001908051906020019062000376929190620005e7565b508060008190555060005b8251811015620004e257600160036000815481106200039c57fe5b90600052602060002090600202016000016000858481518110620003bc57fe5b602002602001015173ffffffffffffffffffffffffffffffffffffffff1673ffffffffffffffffffffffffffffffffffffffff16815260200190815260200160002060010160006101000a81548160ff02191690831515021790555060036000815481106200042757fe5b90600052602060002090600202016001018382815181106200044557fe5b60200260200101519080600181540180825580915050600190039060005260206000200160009091909190916101000a81548173ffffffffffffffffffffffffffffffffffffffff021916908373ffffffffffffffffffffffffffffffffffffffff160217905550600180600081548110620004bd57fe5b9060005260206000200160008282540192505081905550808060010191505062000381565b50505033600560006101000a81548173ffffffffffffffffffffffffffffffffffffffff021916908373ffffffffffffffffffffffffffffffffffffffff160217905550505062000711565b8280548282559060005260206000209081019282156200056d579160200282015b828111156200056c5782518255916020019190600101906200054f565b5b5090506200057c91906200067e565b5090565b828054828255906000526020600020908101928215620005d4579160200282015b82811115620005d3578251829080519060200190620005c2929190620005e7565b5091602001919060010190620005a1565b5b509050620005e391906200069d565b5090565b828054600181600116156101000203166002900490600052602060002090601f0160209004810192826200061f57600085556200066b565b82601f106200063a57805160ff19168380011785556200066b565b828001600101855582156200066b579182015b828111156200066a5782518255916020019190600101906200064d565b5b5090506200067a91906200067e565b5090565b5b80821115620006995760008160009055506001016200067f565b5090565b5b80821115620006c15760008181620006b79190620006c5565b506001016200069e565b5090565b50805460018160011615610100020316600290046000825580601f10620006ed57506200070e565b601f0160209004906000526020600020908101906200070d91906200067e565b5b50565b61529380620007216000396000f3fe608060405234801561001057600080fd5b50600436106101425760003560e01c806377bc5a1f116100b85780639fc104361161007c5780639fc1043614610c49578063a93d5ed614610d24578063d744d2f314610d83578063eefe768114610da1578063fc00050014610dbf578063fd90ae7614610e9a57610142565b806377bc5a1f1461067357806382ff66a3146107305780638a355a57146109395780639a90be9e1461097d5780639df6652814610a3657610142565b80633542758f1161010a5780633542758f1461037c57806337583499146104575780633bc6fe0e146105145780636b074a07146105625780636e4f9179146105bc5780636e55d2d41461061b57610142565b80631270db7a146101475780631660c22a146101bf578063173825d91461029a57806327a40b4b146102de5780632f54bf6e14610322575b600080fd5b6101a96004803603604081101561015d57600080fd5b81019080803573ffffffffffffffffffffffffffffffffffffffff169060200190929190803573ffffffffffffffffffffffffffffffffffffffff169060200190929190505050611056565b6040518082815260200191505060405180910390f35b610298600480360360408110156101d557600080fd5b81019080803573ffffffffffffffffffffffffffffffffffffffff1690602001909291908035906020019064010000000081111561021257600080fd5b82018360208201111561022457600080fd5b8035906020019184600183028401116401000000008311171561024657600080fd5b91908080601f016020809104026020016040519081016040528093929190818152602001838380828437600081840152601f19601f820116905080830192505050505050509192919290505050611178565b005b6102dc600480360360208110156102b057600080fd5b81019080803573ffffffffffffffffffffffffffffffffffffffff169060200190929190505050611188565b005b610320600480360360208110156102f457600080fd5b81019080803573ffffffffffffffffffffffffffffffffffffffff169060200190929190505050611196565b005b6103646004803603602081101561033857600080fd5b81019080803573ffffffffffffffffffffffffffffffffffffffff169060200190929190505050611832565b60405180821515815260200191505060405180910390f35b6104556004803603604081101561039257600080fd5b81019080803573ffffffffffffffffffffffffffffffffffffffff169060200190929190803590602001906401000000008111156103cf57600080fd5b8201836020820111156103e157600080fd5b8035906020019184600183028401116401000000008311171561040357600080fd5b91908080601f016020809104026020016040519081016040528093929190818152602001838380828437600081840152601f19601f820116905080830192505050505050509192919290505050611846565b005b6104996004803603602081101561046d57600080fd5b81019080803573ffffffffffffffffffffffffffffffffffffffff169060200190929190505050611856565b6040518080602001828103825283818151815260200191508051906020019080838360005b838110156104d95780820151818401526020810190506104be565b50505050905090810190601f1680156105065780820380516001836020036101000a031916815260200191505b509250505060405180910390f35b6105606004803603604081101561052a57600080fd5b8101908080359060200190929190803573ffffffffffffffffffffffffffffffffffffffff16906020019092919050505061186a565b005b6105a46004803603602081101561057857600080fd5b81019080803573ffffffffffffffffffffffffffffffffffffffff169060200190929190505050611c6d565b60405180821515815260200191505060405180910390f35b6105c4611c81565b6040518080602001828103825283818151815260200191508051906020019060200280838360005b838110156106075780820151818401526020810190506105ec565b505050509050019250505060405180910390f35b61065d6004803603602081101561063157600080fd5b81019080803573ffffffffffffffffffffffffffffffffffffffff169060200190929190505050611c92565b6040518082815260200191505060405180910390f35b6106b56004803603602081101561068957600080fd5b81019080803573ffffffffffffffffffffffffffffffffffffffff169060200190929190505050611cde565b6040518080602001828103825283818151815260200191508051906020019080838360005b838110156106f55780820151818401526020810190506106da565b50505050905090810190601f1680156107225780820380516001836020036101000a031916815260200191505b509250505060405180910390f35b6109376004803603608081101561074657600080fd5b810190808035906020019064010000000081111561076357600080fd5b82018360208201111561077557600080fd5b8035906020019184600183028401116401000000008311171561079757600080fd5b91908080601f016020809104026020016040519081016040528093929190818152602001838380828437600081840152601f19601f820116905080830192505050505050509192919290803590602001906401000000008111156107fa57600080fd5b82018360208201111561080c57600080fd5b8035906020019184600183028401116401000000008311171561082e57600080fd5b91908080601f016020809104026020016040519081016040528093929190818152602001838380828437600081840152601f19601f8201169050808301925050505050505091929192908035906020019064010000000081111561089157600080fd5b8201836020820111156108a357600080fd5b803590602001918460018302840111640100000000831117156108c557600080fd5b91908080601f016020809104026020016040519081016040528093929190818152602001838380828437600081840152601f19601f820116905080830192505050505050509192919290803573ffffffffffffffffffffffffffffffffffffffff169060200190929190505050611cf2565b005b61097b6004803603602081101561094f57600080fd5b81019080803573ffffffffffffffffffffffffffffffffffffffff169060200190929190505050611fea565b005b6109df6004803603604081101561099357600080fd5b81019080803573ffffffffffffffffffffffffffffffffffffffff169060200190929190803573ffffffffffffffffffffffffffffffffffffffff169060200190929190505050611ff8565b6040518080602001828103825283818151815260200191508051906020019060200280838360005b83811015610a22578082015181840152602081019050610a07565b505050509050019250505060405180910390f35b610c47600480360360a0811015610a4c57600080fd5b8101908080359060200190929190803573ffffffffffffffffffffffffffffffffffffffff16906020019092919080359060200190640100000000811115610a9357600080fd5b820183602082011115610aa557600080fd5b80359060200191846001830284011164010000000083111715610ac757600080fd5b91908080601f016020809104026020016040519081016040528093929190818152602001838380828437600081840152601f19601f82011690508083019250505050505050919291929080359060200190640100000000811115610b2a57600080fd5b820183602082011115610b3c57600080fd5b80359060200191846001830284011164010000000083111715610b5e57600080fd5b91908080601f016020809104026020016040519081016040528093929190818152602001838380828437600081840152601f19601f82011690508083019250505050505050919291929080359060200190640100000000811115610bc157600080fd5b820183602082011115610bd357600080fd5b80359060200191846001830284011164010000000083111715610bf557600080fd5b91908080601f016020809104026020016040519081016040528093929190818152602001838380828437600081840152601f19601f820116905080830192505050505050509192919290505050612184565b005b610d2260048036036040811015610c5f57600080fd5b81019080803573ffffffffffffffffffffffffffffffffffffffff16906020019092919080359060200190640100000000811115610c9c57600080fd5b820183602082011115610cae57600080fd5b80359060200191846001830284011164010000000083111715610cd057600080fd5b91908080601f016020809104026020016040519081016040528093929190818152602001838380828437600081840152601f19601f82011690508083019250505050505050919291929050505061260d565b005b610d2c61261d565b6040518080602001828103825283818151815260200191508051906020019060200280838360005b83811015610d6f578082015181840152602081019050610d54565b505050509050019250505060405180910390f35b610d8b61262e565b6040518082815260200191505060405180910390f35b610da961263f565b6040518082815260200191505060405180910390f35b610e9860048036036040811015610dd557600080fd5b81019080803573ffffffffffffffffffffffffffffffffffffffff16906020019092919080359060200190640100000000811115610e1257600080fd5b820183602082011115610e2457600080fd5b80359060200191846001830284011164010000000083111715610e4657600080fd5b91908080601f016020809104026020016040519081016040528093929190818152602001838380828437600081840152601f19601f820116905080830192505050505050509192919290505050612650565b005b610ee660048036036040811015610eb057600080fd5b8101908080359060200190929190803573ffffffffffffffffffffffffffffffffffffffff16906020019092919050505061288c565b604051808573ffffffffffffffffffffffffffffffffffffffff168152602001806020018060200180602001848103845287818151815260200191508051906020019080838360005b83811015610f4a578082015181840152602081019050610f2f565b50505050905090810190601f168015610f775780820380516001836020036101000a031916815260200191505b50848103835286818151815260200191508051906020019080838360005b83811015610fb0578082015181840152602081019050610f95565b50505050905090810190601f168015610fdd5780820380516001836020036101000a031916815260200191505b50848103825285818151815260200191508051906020019080838360005b83811015611016578082015181840152602081019050610ffb565b50505050905090810190601f1680156110435780820380516001836020036101000a031916815260200191505b5097505050505050505060405180910390f35b6000806000905060005b600460008573ffffffffffffffffffffffffffffffffffffffff1673ffffffffffffffffffffffffffffffffffffffff1681526020019081526020016000208054905081101561116d578473ffffffffffffffffffffffffffffffffffffffff16600460008673ffffffffffffffffffffffffffffffffffffffff1673ffffffffffffffffffffffffffffffffffffffff168152602001908152602001600020828154811061110b57fe5b906000526020600020906004020160000160009054906101000a900473ffffffffffffffffffffffffffffffffffffffff1673ffffffffffffffffffffffffffffffffffffffff161415611160576001820191505b8080600101915050611060565b508091505092915050565b61118482826001612cc0565b5050565b6111938160006130c7565b50565b600660008273ffffffffffffffffffffffffffffffffffffffff1673ffffffffffffffffffffffffffffffffffffffff16815260200190815260200160002060009054906101000a900460ff161515600115151461123f576040517f08c379a00000000000000000000000000000000000000000000000000000000081526004018080602001828103825260248152602001806151916024913960400191505060405180910390fd5b61124833611832565b151560011515146112a4576040517f08c379a00000000000000000000000000000000000000000000000000000000081526004018080602001828103825260218152602001806151e36021913960400191505060405180910390fd5b60036001815481106112b257fe5b906000526020600020906002020160000160008273ffffffffffffffffffffffffffffffffffffffff1673ffffffffffffffffffffffffffffffffffffffff16815260200190815260200160002060010160009054906101000a900460ff161515600015151461138a576040517f08c379a000000000000000000000000000000000000000000000000000000000815260040180806020018281038252601a8152602001807f50726f766964657220616c72656164792061637469766174656400000000000081525060200191505060405180910390fd5b600360018154811061139857fe5b906000526020600020906002020160000160008273ffffffffffffffffffffffffffffffffffffffff1673ffffffffffffffffffffffffffffffffffffffff16815260200190815260200160002060040160003373ffffffffffffffffffffffffffffffffffffffff1673ffffffffffffffffffffffffffffffffffffffff16815260200190815260200160002060009054906101000a900460ff16151560001515146114ad576040517f08c379a00000000000000000000000000000000000000000000000000000000081526004018080602001828103825260178152602001807f4f776e65722068617320616c726561647920766f74656400000000000000000081525060200191505060405180910390fd5b600160036001815481106114bd57fe5b906000526020600020906002020160000160008373ffffffffffffffffffffffffffffffffffffffff1673ffffffffffffffffffffffffffffffffffffffff168152602001908152602001600020600301600082825401925050819055506001600360018154811061152b57fe5b906000526020600020906002020160000160008373ffffffffffffffffffffffffffffffffffffffff1673ffffffffffffffffffffffffffffffffffffffff16815260200190815260200160002060040160003373ffffffffffffffffffffffffffffffffffffffff1673ffffffffffffffffffffffffffffffffffffffff16815260200190815260200160002060006101000a81548160ff02191690831515021790555061163860036001815481106115e157fe5b906000526020600020906002020160000160008373ffffffffffffffffffffffffffffffffffffffff1673ffffffffffffffffffffffffffffffffffffffff16815260200190815260200160002060030154613c5e565b1561182f576001600360018154811061164d57fe5b906000526020600020906002020160000160008373ffffffffffffffffffffffffffffffffffffffff1673ffffffffffffffffffffffffffffffffffffffff16815260200190815260200160002060010160006101000a81548160ff02191690831515021790555060036001815481106116c357fe5b90600052602060002090600202016001018054905060036001815481106116e657fe5b906000526020600020906002020160000160008373ffffffffffffffffffffffffffffffffffffffff1673ffffffffffffffffffffffffffffffffffffffff16815260200190815260200160002060000181905550600360018154811061174957fe5b9060005260206000209060020201600101819080600181540180825580915050600190039060005260206000200160009091909190916101000a81548173ffffffffffffffffffffffffffffffffffffffff021916908373ffffffffffffffffffffffffffffffffffffffff1602179055506001806001815481106117ca57fe5b90600052602060002001600082825401925050819055507f4e682d2fe27aaaadc497c9446d76e9fad6e638e651d523202c138a0acc6ff52a81604051808273ffffffffffffffffffffffffffffffffffffffff16815260200191505060405180910390a15b50565b600061183f826000613c7c565b9050919050565b61185282826000613cf2565b5050565b6060611863826001614906565b9050919050565b61187333611c6d565b151560011515146118cf576040517f08c379a00000000000000000000000000000000000000000000000000000000081526004018080602001828103825260318152602001806151606031913960400191505060405180910390fd5b8181600460008273ffffffffffffffffffffffffffffffffffffffff1673ffffffffffffffffffffffffffffffffffffffff168152602001908152602001600020805490508210611988576040517f08c379a000000000000000000000000000000000000000000000000000000000815260040180806020018281038252601a8152602001807f436572746966696361746520646f6573206e6f7420657869737400000000000081525060200191505060405180910390fd5b8284600460008373ffffffffffffffffffffffffffffffffffffffff1673ffffffffffffffffffffffffffffffffffffffff16815260200190815260200160002081815481106119d457fe5b906000526020600020906004020160000160009054906101000a900473ffffffffffffffffffffffffffffffffffffffff1673ffffffffffffffffffffffffffffffffffffffff163373ffffffffffffffffffffffffffffffffffffffff161480611a6a57508173ffffffffffffffffffffffffffffffffffffffff163373ffffffffffffffffffffffffffffffffffffffff16145b611abf576040517f08c379a00000000000000000000000000000000000000000000000000000000081526004018080602001828103825260318152602001806152046031913960400191505060405180910390fd5b6000600460008773ffffffffffffffffffffffffffffffffffffffff1673ffffffffffffffffffffffffffffffffffffffff1681526020019081526020016000208781548110611b0b57fe5b906000526020600020906004020160000160009054906101000a900473ffffffffffffffffffffffffffffffffffffffff169050600460008773ffffffffffffffffffffffffffffffffffffffff1673ffffffffffffffffffffffffffffffffffffffff1681526020019081526020016000208781548110611b8957fe5b9060005260206000209060040201600080820160006101000a81549073ffffffffffffffffffffffffffffffffffffffff0219169055600182016000611bcf9190614f65565b600282016000611bdf9190614f65565b600382016000611bef9190614fad565b50507f709d6b1b4d6f0b57a9f43c17f08c02648af8d37929b58caa594a4b03b8424687818789604051808473ffffffffffffffffffffffffffffffffffffffff1681526020018373ffffffffffffffffffffffffffffffffffffffff168152602001828152602001935050505060405180910390a150505050505050565b6000611c7a826001613c7c565b9050919050565b6060611c8d6001614cf3565b905090565b6000600460008373ffffffffffffffffffffffffffffffffffffffff1673ffffffffffffffffffffffffffffffffffffffff168152602001908152602001600020805490509050919050565b6060611ceb826000614906565b9050919050565b611cfb33611c6d565b15156001151514611d57576040517f08c379a00000000000000000000000000000000000000000000000000000000081526004018080602001828103825260318152602001806151606031913960400191505060405180910390fd5b81516000108015611d755750825160001080611d74575083516000105b5b611de7576040517f08c379a00000000000000000000000000000000000000000000000000000000081526004018080602001828103825260148152602001807f436572746966696361746520697320656d70747900000000000000000000000081525060200191505060405180910390fd5b600460008273ffffffffffffffffffffffffffffffffffffffff1673ffffffffffffffffffffffffffffffffffffffff16815260200190815260200160002060405180608001604052803373ffffffffffffffffffffffffffffffffffffffff16815260200186815260200185815260200184815250908060018154018082558091505060019003906000526020600020906004020160009091909190915060008201518160000160006101000a81548173ffffffffffffffffffffffffffffffffffffffff021916908373ffffffffffffffffffffffffffffffffffffffff1602179055506020820151816001019080519060200190611ee9929190614ff5565b506040820151816002019080519060200190611f06929190614ff5565b506060820151816003019080519060200190611f23929190615083565b50505060006001600460008473ffffffffffffffffffffffffffffffffffffffff1673ffffffffffffffffffffffffffffffffffffffff168152602001908152602001600020805490500390507f76f4df91a34263fc533728c4689dd106f547d04117b44c2f5606efdbc184bdde338383604051808473ffffffffffffffffffffffffffffffffffffffff1681526020018373ffffffffffffffffffffffffffffffffffffffff168152602001828152602001935050505060405180910390a15050505050565b611ff58160016130c7565b50565b606060006120068484611056565b67ffffffffffffffff8111801561201c57600080fd5b5060405190808252806020026020018201604052801561204b5781602001602082028036833780820191505090505b5090506000805b600460008673ffffffffffffffffffffffffffffffffffffffff1673ffffffffffffffffffffffffffffffffffffffff16815260200190815260200160002080549050811015612178578573ffffffffffffffffffffffffffffffffffffffff16600460008773ffffffffffffffffffffffffffffffffffffffff1673ffffffffffffffffffffffffffffffffffffffff16815260200190815260200160002082815481106120fd57fe5b906000526020600020906004020160000160009054906101000a900473ffffffffffffffffffffffffffffffffffffffff1673ffffffffffffffffffffffffffffffffffffffff16141561216b578083838151811061215857fe5b6020026020010181815250506001820191505b8080600101915050612052565b50819250505092915050565b61218d33611c6d565b151560011515146121e9576040517f08c379a00000000000000000000000000000000000000000000000000000000081526004018080602001828103825260318152602001806151606031913960400191505060405180910390fd5b8484600460008273ffffffffffffffffffffffffffffffffffffffff1673ffffffffffffffffffffffffffffffffffffffff1681526020019081526020016000208054905082106122a2576040517f08c379a000000000000000000000000000000000000000000000000000000000815260040180806020018281038252601a8152602001807f436572746966696361746520646f6573206e6f7420657869737400000000000081525060200191505060405180910390fd5b8587600460008373ffffffffffffffffffffffffffffffffffffffff1673ffffffffffffffffffffffffffffffffffffffff16815260200190815260200160002081815481106122ee57fe5b906000526020600020906004020160000160009054906101000a900473ffffffffffffffffffffffffffffffffffffffff1673ffffffffffffffffffffffffffffffffffffffff163373ffffffffffffffffffffffffffffffffffffffff16146123a3576040517f08c379a000000000000000000000000000000000000000000000000000000000815260040180806020018281038252603181526020018061512f6031913960400191505060405180910390fd5b86516000101561241e5786600460008a73ffffffffffffffffffffffffffffffffffffffff1673ffffffffffffffffffffffffffffffffffffffff1681526020019081526020016000208a815481106123f857fe5b9060005260206000209060040201600101908051906020019061241c929190614ff5565b505b8551600010156124995785600460008a73ffffffffffffffffffffffffffffffffffffffff1673ffffffffffffffffffffffffffffffffffffffff1681526020019081526020016000208a8154811061247357fe5b90600052602060002090600402016002019080519060200190612497929190614ff5565b505b8451600010156125145784600460008a73ffffffffffffffffffffffffffffffffffffffff1673ffffffffffffffffffffffffffffffffffffffff1681526020019081526020016000208a815481106124ee57fe5b90600052602060002090600402016003019080519060200190612512929190615083565b505b7f736a6334743f8e5fff8d835332a115f2c34c1bbf6e2384459e1a24e0540bd47c600460008a73ffffffffffffffffffffffffffffffffffffffff1673ffffffffffffffffffffffffffffffffffffffff1681526020019081526020016000208a8154811061257f57fe5b906000526020600020906004020160000160009054906101000a900473ffffffffffffffffffffffffffffffffffffffff16898b604051808473ffffffffffffffffffffffffffffffffffffffff1681526020018373ffffffffffffffffffffffffffffffffffffffff168152602001828152602001935050505060405180910390a1505050505050505050565b61261982826000612cc0565b5050565b60606126296000614cf3565b905090565b600061263a6001614f44565b905090565b600061264b6000614f44565b905090565b600560009054906101000a900473ffffffffffffffffffffffffffffffffffffffff1673ffffffffffffffffffffffffffffffffffffffff163373ffffffffffffffffffffffffffffffffffffffff1614612713576040517f08c379a000000000000000000000000000000000000000000000000000000000815260040180806020018281038252601e8152602001807f4f6e6c792063726561746f722063616e206164642070726f766964657273000081525060200191505060405180910390fd5b600660008373ffffffffffffffffffffffffffffffffffffffff1673ffffffffffffffffffffffffffffffffffffffff16815260200190815260200160002060009054906101000a900460ff16151560001515146127bc576040517f08c379a00000000000000000000000000000000000000000000000000000000081526004018080602001828103825260298152602001806152356029913960400191505060405180910390fd5b8060036001815481106127cb57fe5b906000526020600020906002020160000160008473ffffffffffffffffffffffffffffffffffffffff1673ffffffffffffffffffffffffffffffffffffffff168152602001908152602001600020600201908051906020019061282f929190614ff5565b506001600660008473ffffffffffffffffffffffffffffffffffffffff1673ffffffffffffffffffffffffffffffffffffffff16815260200190815260200160002060006101000a81548160ff0219169083151502179055505050565b600060608060608585600460008273ffffffffffffffffffffffffffffffffffffffff1673ffffffffffffffffffffffffffffffffffffffff16815260200190815260200160002080549050821061294c576040517f08c379a000000000000000000000000000000000000000000000000000000000815260040180806020018281038252601a8152602001807f436572746966696361746520646f6573206e6f7420657869737400000000000081525060200191505060405180910390fd5b600460008873ffffffffffffffffffffffffffffffffffffffff1673ffffffffffffffffffffffffffffffffffffffff168152602001908152602001600020888154811061299657fe5b906000526020600020906004020160000160009054906101000a900473ffffffffffffffffffffffffffffffffffffffff16600460008973ffffffffffffffffffffffffffffffffffffffff1673ffffffffffffffffffffffffffffffffffffffff1681526020019081526020016000208981548110612a1257fe5b9060005260206000209060040201600101600460008a73ffffffffffffffffffffffffffffffffffffffff1673ffffffffffffffffffffffffffffffffffffffff1681526020019081526020016000208a81548110612a6d57fe5b9060005260206000209060040201600201600460008b73ffffffffffffffffffffffffffffffffffffffff1673ffffffffffffffffffffffffffffffffffffffff1681526020019081526020016000208b81548110612ac857fe5b9060005260206000209060040201600301828054600181600116156101000203166002900480601f016020809104026020016040519081016040528092919081815260200182805460018160011615610100020316600290048015612b6e5780601f10612b4357610100808354040283529160200191612b6e565b820191906000526020600020905b815481529060010190602001808311612b5157829003601f168201915b50505050509250818054600181600116156101000203166002900480601f016020809104026020016040519081016040528092919081815260200182805460018160011615610100020316600290048015612c0a5780601f10612bdf57610100808354040283529160200191612c0a565b820191906000526020600020905b815481529060010190602001808311612bed57829003601f168201915b50505050509150808054600181600116156101000203166002900480601f016020809104026020016040519081016040528092919081815260200182805460018160011615610100020316600290048015612ca65780601f10612c7b57610100808354040283529160200191612ca6565b820191906000526020600020905b815481529060010190602001808311612c8957829003601f168201915b505050505090509550955095509550505092959194509250565b828073ffffffffffffffffffffffffffffffffffffffff163373ffffffffffffffffffffffffffffffffffffffff1614612d62576040517f08c379a00000000000000000000000000000000000000000000000000000000081526004018080602001828103825260118152602001807f4974206973206e6f742068696d73656c6600000000000000000000000000000081525060200191505060405180910390fd5b60018483821515600015151415612ee157612d7d8282613c7c565b1515600015151460028281548110612d9157fe5b906000526020600020016040516020018082805460018160011615610100020316600290048015612df95780601f10612dd7576101008083540402835291820191612df9565b820191906000526020600020905b815481529060010190602001808311612de5575b5050807f20616c726561647920616374697661746564000000000000000000000000000081525060120191505060405160208183030381529060405290612edb576040517f08c379a00000000000000000000000000000000000000000000000000000000081526004018080602001828103825283818151815260200191508051906020019080838360005b83811015612ea0578082015181840152602081019050612e85565b50505050905090810190601f168015612ecd5780820380516001836020036101000a031916815260200191505b509250505060405180910390fd5b5061304b565b612eeb8282613c7c565b1515600115151460028281548110612eff57fe5b906000526020600020016040516020018082805460018160011615610100020316600290048015612f675780601f10612f45576101008083540402835291820191612f67565b820191906000526020600020905b815481529060010190602001808311612f53575b5050807f206d75737420626520616374697661746564000000000000000000000000000081525060120191505060405160208183030381529060405290613049576040517f08c379a00000000000000000000000000000000000000000000000000000000081526004018080602001828103825283818151815260200191508051906020019080838360005b8381101561300e578082015181840152602081019050612ff3565b50505050905090810190601f16801561303b5780820380516001836020036101000a031916815260200191505b509250505060405180910390fd5b505b856003868154811061305957fe5b906000526020600020906002020160000160008973ffffffffffffffffffffffffffffffffffffffff1673ffffffffffffffffffffffffffffffffffffffff16815260200190815260200160002060020190805190602001906130bd929190614ff5565b5050505050505050565b808060018054905011613142576040517f08c379a00000000000000000000000000000000000000000000000000000000081526004018080602001828103825260198152602001807f70726f7669646564206c6973742049642069732077726f6e670000000000000081525060200191505060405180910390fd5b8261314c33611832565b151560011515148061318957508073ffffffffffffffffffffffffffffffffffffffff163373ffffffffffffffffffffffffffffffffffffffff16145b6131fb576040517f08c379a000000000000000000000000000000000000000000000000000000000815260040180806020018281038252601c8152602001807f4e6f7420616c6c6f77656420746f2072656d6f766520656e746974790000000081525060200191505060405180910390fd5b6001848482151560001515141561337a576132168282613c7c565b151560001515146002828154811061322a57fe5b9060005260206000200160405160200180828054600181600116156101000203166002900480156132925780601f10613270576101008083540402835291820191613292565b820191906000526020600020905b81548152906001019060200180831161327e575b5050807f20616c726561647920616374697661746564000000000000000000000000000081525060120191505060405160208183030381529060405290613374576040517f08c379a00000000000000000000000000000000000000000000000000000000081526004018080602001828103825283818151815260200191508051906020019080838360005b8381101561333957808201518184015260208101905061331e565b50505050905090810190601f1680156133665780820380516001836020036101000a031916815260200191505b509250505060405180910390fd5b506134e4565b6133848282613c7c565b151560011515146002828154811061339857fe5b9060005260206000200160405160200180828054600181600116156101000203166002900480156134005780601f106133de576101008083540402835291820191613400565b820191906000526020600020905b8154815290600101906020018083116133ec575b5050807f206d757374206265206163746976617465640000000000000000000000000000815250601201915050604051602081830303815290604052906134e2576040517f08c379a00000000000000000000000000000000000000000000000000000000081526004018080602001828103825283818151815260200191508051906020019080838360005b838110156134a757808201518184015260208101905061348c565b50505050905090810190601f1680156134d45780820380516001836020036101000a031916815260200191505b509250505060405180910390fd5b505b600187876000600282815481106134f757fe5b90600052602060002001604051602001808280546001816001161561010002031660029004801561355f5780601f1061353d57610100808354040283529182019161355f565b820191906000526020600020905b81548152906001019060200180831161354b575b5050807f2068617320616c726561647920766f746564000000000000000000000000000081525060120191505060405160208183030381529060405290508360018111156135a957fe5b6001808111156135b557fe5b141561371857600382815481106135c857fe5b906000526020600020906002020160000160008473ffffffffffffffffffffffffffffffffffffffff1673ffffffffffffffffffffffffffffffffffffffff16815260200190815260200160002060060160003373ffffffffffffffffffffffffffffffffffffffff1673ffffffffffffffffffffffffffffffffffffffff16815260200190815260200160002060009054906101000a900460ff16151560001515148190613712576040517f08c379a00000000000000000000000000000000000000000000000000000000081526004018080602001828103825283818151815260200191508051906020019080838360005b838110156136d75780820151818401526020810190506136bc565b50505050905090810190601f1680156137045780820380516001836020036101000a031916815260200191505b509250505060405180910390fd5b50613871565b6003828154811061372557fe5b906000526020600020906002020160000160008473ffffffffffffffffffffffffffffffffffffffff1673ffffffffffffffffffffffffffffffffffffffff16815260200190815260200160002060040160003373ffffffffffffffffffffffffffffffffffffffff1673ffffffffffffffffffffffffffffffffffffffff16815260200190815260200160002060009054906101000a900460ff1615156000151514819061386f576040517f08c379a00000000000000000000000000000000000000000000000000000000081526004018080602001828103825283818151815260200191508051906020019080838360005b83811015613834578082015181840152602081019050613819565b50505050905090810190601f1680156138615780820380516001836020036101000a031916815260200191505b509250505060405180910390fd5b505b600160038b8154811061388057fe5b906000526020600020906002020160000160008d73ffffffffffffffffffffffffffffffffffffffff1673ffffffffffffffffffffffffffffffffffffffff16815260200190815260200160002060050160008282540192505081905550600160038b815481106138ed57fe5b906000526020600020906002020160000160008d73ffffffffffffffffffffffffffffffffffffffff1673ffffffffffffffffffffffffffffffffffffffff16815260200190815260200160002060060160003373ffffffffffffffffffffffffffffffffffffffff1673ffffffffffffffffffffffffffffffffffffffff16815260200190815260200160002060006101000a81548160ff0219169083151502179055508a73ffffffffffffffffffffffffffffffffffffffff163373ffffffffffffffffffffffffffffffffffffffff161480613a2f5750613a2e60038b815481106139d757fe5b906000526020600020906002020160000160008d73ffffffffffffffffffffffffffffffffffffffff1673ffffffffffffffffffffffffffffffffffffffff16815260200190815260200160002060050154613c5e565b5b15613c515760038a81548110613a4157fe5b906000526020600020906002020160010160038b81548110613a5f57fe5b906000526020600020906002020160000160008d73ffffffffffffffffffffffffffffffffffffffff1673ffffffffffffffffffffffffffffffffffffffff1681526020019081526020016000206000015481548110613abb57fe5b9060005260206000200160006101000a81549073ffffffffffffffffffffffffffffffffffffffff021916905560038a81548110613af557fe5b906000526020600020906002020160000160008c73ffffffffffffffffffffffffffffffffffffffff1673ffffffffffffffffffffffffffffffffffffffff1681526020019081526020016000206000808201600090556001820160006101000a81549060ff0219169055600282016000613b709190614f65565b6003820160009055600582016000905550506001808b81548110613b9057fe5b90600052602060002001600082825403925050819055508960001415613c02577fdeb2fd983f5ea76ad0475f0a39a88d8c773f60fda03f8048cf465814bde26af38b604051808273ffffffffffffffffffffffffffffffffffffffff16815260200191505060405180910390a1613c50565b7f7fe3d1469180155418d41d4da2042f53bf3d76fdc4aab220f5d272e0699e4b6e8b604051808273ffffffffffffffffffffffffffffffffffffffff16815260200191505060405180910390a15b5b5050505050505050505050565b60008054821015613c725760009050613c77565b600190505b919050565b600060038281548110613c8b57fe5b906000526020600020906002020160000160008473ffffffffffffffffffffffffffffffffffffffff1673ffffffffffffffffffffffffffffffffffffffff16815260200190815260200160002060010160009054906101000a900460ff16905092915050565b808060018054905011613d6d576040517f08c379a00000000000000000000000000000000000000000000000000000000081526004018080602001828103825260198152602001807f70726f7669646564206c6973742049642069732077726f6e670000000000000081525060200191505060405180910390fd5b613d7633611832565b15156001151514613dd2576040517f08c379a000000000000000000000000000000000000000000000000000000000815260040180806020018281038252602e8152602001806151b5602e913960400191505060405180910390fd5b60008483821515600015151415613f5157613ded8282613c7c565b1515600015151460028281548110613e0157fe5b906000526020600020016040516020018082805460018160011615610100020316600290048015613e695780601f10613e47576101008083540402835291820191613e69565b820191906000526020600020905b815481529060010190602001808311613e55575b5050807f20616c726561647920616374697661746564000000000000000000000000000081525060120191505060405160208183030381529060405290613f4b576040517f08c379a00000000000000000000000000000000000000000000000000000000081526004018080602001828103825283818151815260200191508051906020019080838360005b83811015613f10578082015181840152602081019050613ef5565b50505050905090810190601f168015613f3d5780820380516001836020036101000a031916815260200191505b509250505060405180910390fd5b506140bb565b613f5b8282613c7c565b1515600115151460028281548110613f6f57fe5b906000526020600020016040516020018082805460018160011615610100020316600290048015613fd75780601f10613fb5576101008083540402835291820191613fd7565b820191906000526020600020905b815481529060010190602001808311613fc3575b5050807f206d757374206265206163746976617465640000000000000000000000000000815250601201915050604051602081830303815290604052906140b9576040517f08c379a00000000000000000000000000000000000000000000000000000000081526004018080602001828103825283818151815260200191508051906020019080838360005b8381101561407e578082015181840152602081019050614063565b50505050905090810190601f1680156140ab5780820380516001836020036101000a031916815260200191505b509250505060405180910390fd5b505b600087866000600282815481106140ce57fe5b9060005260206000200160405160200180828054600181600116156101000203166002900480156141365780601f10614114576101008083540402835291820191614136565b820191906000526020600020905b815481529060010190602001808311614122575b5050807f2068617320616c726561647920766f7465640000000000000000000000000000815250601201915050604051602081830303815290604052905083600181111561418057fe5b60018081111561418c57fe5b14156142ef576003828154811061419f57fe5b906000526020600020906002020160000160008473ffffffffffffffffffffffffffffffffffffffff1673ffffffffffffffffffffffffffffffffffffffff16815260200190815260200160002060060160003373ffffffffffffffffffffffffffffffffffffffff1673ffffffffffffffffffffffffffffffffffffffff16815260200190815260200160002060009054906101000a900460ff161515600015151481906142e9576040517f08c379a00000000000000000000000000000000000000000000000000000000081526004018080602001828103825283818151815260200191508051906020019080838360005b838110156142ae578082015181840152602081019050614293565b50505050905090810190601f1680156142db5780820380516001836020036101000a031916815260200191505b509250505060405180910390fd5b50614448565b600382815481106142fc57fe5b906000526020600020906002020160000160008473ffffffffffffffffffffffffffffffffffffffff1673ffffffffffffffffffffffffffffffffffffffff16815260200190815260200160002060040160003373ffffffffffffffffffffffffffffffffffffffff1673ffffffffffffffffffffffffffffffffffffffff16815260200190815260200160002060009054906101000a900460ff16151560001515148190614446576040517f08c379a00000000000000000000000000000000000000000000000000000000081526004018080602001828103825283818151815260200191508051906020019080838360005b8381101561440b5780820151818401526020810190506143f0565b50505050905090810190601f1680156144385780820380516001836020036101000a031916815260200191505b509250505060405180910390fd5b505b6003898154811061445557fe5b906000526020600020906002020160000160008c73ffffffffffffffffffffffffffffffffffffffff1673ffffffffffffffffffffffffffffffffffffffff1681526020019081526020016000206003015460001415614523578960038a815481106144bd57fe5b906000526020600020906002020160000160008d73ffffffffffffffffffffffffffffffffffffffff1673ffffffffffffffffffffffffffffffffffffffff1681526020019081526020016000206002019080519060200190614521929190614ff5565b505b600160038a8154811061453257fe5b906000526020600020906002020160000160008d73ffffffffffffffffffffffffffffffffffffffff1673ffffffffffffffffffffffffffffffffffffffff16815260200190815260200160002060030160008282540192505081905550600160038a8154811061459f57fe5b906000526020600020906002020160000160008d73ffffffffffffffffffffffffffffffffffffffff1673ffffffffffffffffffffffffffffffffffffffff16815260200190815260200160002060040160003373ffffffffffffffffffffffffffffffffffffffff1673ffffffffffffffffffffffffffffffffffffffff16815260200190815260200160002060006101000a81548160ff0219169083151502179055506146ab60038a8154811061465457fe5b906000526020600020906002020160000160008d73ffffffffffffffffffffffffffffffffffffffff1673ffffffffffffffffffffffffffffffffffffffff16815260200190815260200160002060030154613c5e565b156148f957600160038a815481106146bf57fe5b906000526020600020906002020160000160008d73ffffffffffffffffffffffffffffffffffffffff1673ffffffffffffffffffffffffffffffffffffffff16815260200190815260200160002060010160006101000a81548160ff0219169083151502179055506003898154811061473457fe5b90600052602060002090600202016001018054905060038a8154811061475657fe5b906000526020600020906002020160000160008d73ffffffffffffffffffffffffffffffffffffffff1673ffffffffffffffffffffffffffffffffffffffff16815260200190815260200160002060000181905550600389815481106147b857fe5b90600052602060002090600202016001018b9080600181540180825580915050600190039060005260206000200160009091909190916101000a81548173ffffffffffffffffffffffffffffffffffffffff021916908373ffffffffffffffffffffffffffffffffffffffff1602179055506001808a8154811061483857fe5b906000526020600020016000828254019250508190555088600014156148aa577f68c1703cd1b1bd3a48da3e9a8712cf464730736862199903eac069e0b2e1ab2f8b604051808273ffffffffffffffffffffffffffffffffffffffff16815260200191505060405180910390a16148f8565b7f4e682d2fe27aaaadc497c9446d76e9fad6e638e651d523202c138a0acc6ff52a8b604051808273ffffffffffffffffffffffffffffffffffffffff16815260200191505060405180910390a15b5b5050505050505050505050565b606060018383821515600015151415614a87576149238282613c7c565b151560001515146002828154811061493757fe5b90600052602060002001604051602001808280546001816001161561010002031660029004801561499f5780601f1061497d57610100808354040283529182019161499f565b820191906000526020600020905b81548152906001019060200180831161498b575b5050807f20616c726561647920616374697661746564000000000000000000000000000081525060120191505060405160208183030381529060405290614a81576040517f08c379a00000000000000000000000000000000000000000000000000000000081526004018080602001828103825283818151815260200191508051906020019080838360005b83811015614a46578082015181840152602081019050614a2b565b50505050905090810190601f168015614a735780820380516001836020036101000a031916815260200191505b509250505060405180910390fd5b50614bf1565b614a918282613c7c565b1515600115151460028281548110614aa557fe5b906000526020600020016040516020018082805460018160011615610100020316600290048015614b0d5780601f10614aeb576101008083540402835291820191614b0d565b820191906000526020600020905b815481529060010190602001808311614af9575b5050807f206d75737420626520616374697661746564000000000000000000000000000081525060120191505060405160208183030381529060405290614bef576040517f08c379a00000000000000000000000000000000000000000000000000000000081526004018080602001828103825283818151815260200191508051906020019080838360005b83811015614bb4578082015181840152602081019050614b99565b50505050905090810190601f168015614be15780820380516001836020036101000a031916815260200191505b509250505060405180910390fd5b505b60038581548110614bfe57fe5b906000526020600020906002020160000160008773ffffffffffffffffffffffffffffffffffffffff1673ffffffffffffffffffffffffffffffffffffffff1681526020019081526020016000206002018054600181600116156101000203166002900480601f016020809104026020016040519081016040528092919081815260200182805460018160011615610100020316600290048015614ce35780601f10614cb857610100808354040283529160200191614ce3565b820191906000526020600020905b815481529060010190602001808311614cc657829003601f168201915b5050505050935050505092915050565b6060818060018054905011614d70576040517f08c379a00000000000000000000000000000000000000000000000000000000081526004018080602001828103825260198152602001807f70726f7669646564206c6973742049642069732077726f6e670000000000000081525060200191505060405180910390fd5b600060018481548110614d7f57fe5b906000526020600020015467ffffffffffffffff81118015614da057600080fd5b50604051908082528060200260200182016040528015614dcf5781602001602082028036833780820191505090505b509050600080600090505b60038681548110614de757fe5b906000526020600020906002020160010180549050811015614f385760038681548110614e1057fe5b90600052602060002090600202016001018181548110614e2c57fe5b9060005260206000200160009054906101000a900473ffffffffffffffffffffffffffffffffffffffff1673ffffffffffffffffffffffffffffffffffffffff16600073ffffffffffffffffffffffffffffffffffffffff1614614f2b5760038681548110614e9757fe5b90600052602060002090600202016001018181548110614eb357fe5b9060005260206000200160009054906101000a900473ffffffffffffffffffffffffffffffffffffffff16838381518110614eea57fe5b602002602001019073ffffffffffffffffffffffffffffffffffffffff16908173ffffffffffffffffffffffffffffffffffffffff16815250506001820191505b8080600101915050614dda565b50819350505050919050565b600060018281548110614f5357fe5b90600052602060002001549050919050565b50805460018160011615610100020316600290046000825580601f10614f8b5750614faa565b601f016020900490600052602060002090810190614fa99190615111565b5b50565b50805460018160011615610100020316600290046000825580601f10614fd35750614ff2565b601f016020900490600052602060002090810190614ff19190615111565b5b50565b828054600181600116156101000203166002900490600052602060002090601f01602090048101928261502b5760008555615072565b82601f1061504457805160ff1916838001178555615072565b82800160010185558215615072579182015b82811115615071578251825591602001919060010190615056565b5b50905061507f9190615111565b5090565b828054600181600116156101000203166002900490600052602060002090601f0160209004810192826150b95760008555615100565b82601f106150d257805160ff1916838001178555615100565b82800160010185558215615100579182015b828111156150ff5782518255916020019190600101906150e4565b5b50905061510d9190615111565b5090565b5b8082111561512a576000816000905550600101615112565b509056fe4e6f7420616c6c6f77656420746f20757064617465207468697320706172746963756c61722043657274696669636174654f6e6c792050726f7669646572732061726520616c6c6f77656420746f20706572666f726d207468697320616374696f6e50726f7669646572206e6f74207375626d697465642062792043726561746f72207965744f6e6c79204f776e6572732061726520616c6c6f77656420746f20706572666f726d207468697320616374696f6e4e6f7420616c6c6f77656420746f2076616c69646174652070726f7669646572734e6f7420616c6c6f77656420746f2072656d6f7665207468697320706172746963756c617220436572746966696361746550726f766964657220616c726561647920616374697661746564206f7220696e2070726f6772657373a2646970667358221220d98fa3da36b31139e86103ad5b241bdf29067604348469da7bb477fd5db1318864736f6c634300070600334e6f7420656e6f756768206f776e6572732070726f766964656420746f206d65657420746865206d696e4f776e65727320726571756972656d656e74",
  "immutableReferences": {},
  "source": "// SPDX-License-Identifier: GPL-3.0\r\n\r\npragma solidity >=0.7.0 <0.9.0;\r\n\r\n/**\r\n * @title Storage\r\n * @dev Store & retrieve value in a variable\r\n */\r\n\r\n import \"./CertificatesPool.sol\";\r\n\r\n /* \r\n Like Private Certificates except that Providers must be sent from \"Creator\" who is not an owner\r\n */\r\n\r\n contract PublicCertificatesPool is CertificatesPool {\r\n\r\n     address _creator;\r\n     mapping(address => bool) _submitedByCreator;\r\n\r\n     // Constructor\r\n    constructor(address[] memory owners,  uint256 minOwners) CertificatesPool(owners, minOwners) payable {\r\n        _creator = msg.sender;\r\n    }\r\n\r\n    function addProvider(address provider, string memory providerInfo) external override{\r\n        require(msg.sender == _creator, \"Only creator can add providers\");\r\n        require(false == _submitedByCreator[provider], \"Provider already activated or in progress\");\r\n\r\n        _certificateEntities[_providerId]._entities[provider]._Info = providerInfo;\r\n        _submitedByCreator[provider] = true;\r\n    }\r\n\r\n    function validateProvider(address provider) external {\r\n       require(true == _submitedByCreator[provider], \"Provider not submited by Creator yet\");\r\n       require(true == isOwner(msg.sender), \"Not allowed to validate providers\");\r\n       require(false == _certificateEntities[_providerId]._entities[provider]._activated, \"Provider already activated\");\r\n       require(false == _certificateEntities[_providerId]._entities[provider]._AddValidated[msg.sender], \"Owner has already voted\");\r\n\r\n        _certificateEntities[_providerId]._entities[provider]._addValidations += 1;\r\n        _certificateEntities[_providerId]._entities[provider]._AddValidated[msg.sender] = true;\r\n\r\n        if(CheckValidations(_certificateEntities[_providerId]._entities[provider]._addValidations)){\r\n            _certificateEntities[_providerId]._entities[provider]._activated = true;\r\n            _certificateEntities[_providerId]._entities[provider]._id = _certificateEntities[_providerId]._activatedEntities.length;\r\n            _certificateEntities[_providerId]._activatedEntities.push(provider);\r\n            _numberOfEntities[_providerId] += 1;\r\n            \r\n            _AddProviderValidationIdEvent(provider); \r\n        }\r\n\r\n    }\r\n\r\n }",
  "sourcePath": "C:/Users/d-aam/GitHub/Certificates/contracts/PublicCertificatesPool.sol",
  "compiler": {
    "name": "solc",
    "version": "0.7.6+commit.7338295f.Emscripten.clang"
  },
  "schemaVersion": "3.3.4",
  "updatedAt": "2021-05-07T09:49:19.346Z",
  "devdoc": {
    "kind": "dev",
    "methods": {},
    "version": 1
  },
  "userdoc": {
    "kind": "user",
    "methods": {},
    "version": 1
  }
}