{
  "contractName": "PublicCertificatesPool",
  "abi": [
    {
      "inputs": [
        {
          "internalType": "address[]",
          "name": "owners",
          "type": "address[]"
        },
        {
          "internalType": "uint256",
          "name": "minOwners",
          "type": "uint256"
        }
      ],
      "stateMutability": "payable",
      "type": "constructor"
    },
    {
      "anonymous": false,
      "inputs": [
        {
          "indexed": false,
          "internalType": "address",
          "name": "",
          "type": "address"
        },
        {
          "indexed": false,
          "internalType": "address",
          "name": "",
          "type": "address"
        }
      ],
      "name": "_AddCertificateIdEvent",
      "type": "event"
    },
    {
      "anonymous": false,
      "inputs": [
        {
          "indexed": false,
          "internalType": "string",
          "name": "",
          "type": "string"
        },
        {
          "indexed": false,
          "internalType": "address",
          "name": "",
          "type": "address"
        }
      ],
      "name": "_AddEntityValidationIdEvent",
      "type": "event"
    },
    {
      "anonymous": false,
      "inputs": [
        {
          "indexed": false,
          "internalType": "address",
          "name": "",
          "type": "address"
        },
        {
          "indexed": false,
          "internalType": "address",
          "name": "",
          "type": "address"
        }
      ],
      "name": "_RemoveCertificateIdEvent",
      "type": "event"
    },
    {
      "anonymous": false,
      "inputs": [
        {
          "indexed": false,
          "internalType": "string",
          "name": "",
          "type": "string"
        },
        {
          "indexed": false,
          "internalType": "address",
          "name": "",
          "type": "address"
        }
      ],
      "name": "_RemoveEntityValidationIdEvent",
      "type": "event"
    },
    {
      "inputs": [
        {
          "internalType": "bytes32",
          "name": "CertificateHash",
          "type": "bytes32"
        },
        {
          "internalType": "address",
          "name": "holder",
          "type": "address"
        }
      ],
      "name": "addCertificate",
      "outputs": [],
      "stateMutability": "nonpayable",
      "type": "function"
    },
    {
      "inputs": [
        {
          "internalType": "address",
          "name": "owner",
          "type": "address"
        },
        {
          "internalType": "string",
          "name": "ownerInfo",
          "type": "string"
        }
      ],
      "name": "addOwner",
      "outputs": [],
      "stateMutability": "nonpayable",
      "type": "function"
    },
    {
      "inputs": [
        {
          "internalType": "address",
          "name": "owner",
          "type": "address"
        }
      ],
      "name": "isOwner",
      "outputs": [
        {
          "internalType": "bool",
          "name": "",
          "type": "bool"
        }
      ],
      "stateMutability": "view",
      "type": "function"
    },
    {
      "inputs": [
        {
          "internalType": "address",
          "name": "provider",
          "type": "address"
        }
      ],
      "name": "isProvider",
      "outputs": [
        {
          "internalType": "bool",
          "name": "",
          "type": "bool"
        }
      ],
      "stateMutability": "view",
      "type": "function"
    },
    {
      "inputs": [
        {
          "internalType": "bytes32",
          "name": "CertificateHash",
          "type": "bytes32"
        },
        {
          "internalType": "address",
          "name": "holder",
          "type": "address"
        }
      ],
      "name": "removeCertificate",
      "outputs": [],
      "stateMutability": "nonpayable",
      "type": "function"
    },
    {
      "inputs": [
        {
          "internalType": "address",
          "name": "owner",
          "type": "address"
        }
      ],
      "name": "removeOwner",
      "outputs": [],
      "stateMutability": "nonpayable",
      "type": "function"
    },
    {
      "inputs": [],
      "name": "retrieveAllOwners",
      "outputs": [
        {
          "internalType": "address[]",
          "name": "",
          "type": "address[]"
        }
      ],
      "stateMutability": "view",
      "type": "function"
    },
    {
      "inputs": [],
      "name": "retrieveAllProviders",
      "outputs": [
        {
          "internalType": "address[]",
          "name": "",
          "type": "address[]"
        }
      ],
      "stateMutability": "view",
      "type": "function"
    },
    {
      "inputs": [
        {
          "internalType": "bytes32",
          "name": "CertificateHash",
          "type": "bytes32"
        },
        {
          "internalType": "address",
          "name": "holder",
          "type": "address"
        }
      ],
      "name": "retrieveCertificateProvider",
      "outputs": [
        {
          "internalType": "address",
          "name": "",
          "type": "address"
        }
      ],
      "stateMutability": "view",
      "type": "function"
    },
    {
      "inputs": [
        {
          "internalType": "address",
          "name": "holder",
          "type": "address"
        },
        {
          "internalType": "uint256",
          "name": "skipFirst",
          "type": "uint256"
        },
        {
          "internalType": "uint256",
          "name": "max",
          "type": "uint256"
        }
      ],
      "name": "retrieveCertificatesByHolder",
      "outputs": [
        {
          "internalType": "bytes32[]",
          "name": "",
          "type": "bytes32[]"
        }
      ],
      "stateMutability": "view",
      "type": "function"
    },
    {
      "inputs": [],
      "name": "retrieveMinOwners",
      "outputs": [
        {
          "internalType": "uint256",
          "name": "",
          "type": "uint256"
        }
      ],
      "stateMutability": "view",
      "type": "function"
    },
    {
      "inputs": [
        {
          "internalType": "address",
          "name": "owner",
          "type": "address"
        }
      ],
      "name": "retrieveOwner",
      "outputs": [
        {
          "internalType": "string",
          "name": "",
          "type": "string"
        }
      ],
      "stateMutability": "view",
      "type": "function"
    },
    {
      "inputs": [
        {
          "internalType": "address",
          "name": "provider",
          "type": "address"
        }
      ],
      "name": "retrieveProvider",
      "outputs": [
        {
          "internalType": "string",
          "name": "",
          "type": "string"
        }
      ],
      "stateMutability": "view",
      "type": "function"
    },
    {
      "inputs": [
        {
          "internalType": "address",
          "name": "holder",
          "type": "address"
        }
      ],
      "name": "retrieveTotalCertificatesByHolder",
      "outputs": [
        {
          "internalType": "uint256",
          "name": "",
          "type": "uint256"
        }
      ],
      "stateMutability": "view",
      "type": "function"
    },
    {
      "inputs": [],
      "name": "retrieveTotalOwners",
      "outputs": [
        {
          "internalType": "uint256",
          "name": "",
          "type": "uint256"
        }
      ],
      "stateMutability": "view",
      "type": "function"
    },
    {
      "inputs": [],
      "name": "retrieveTotalProviders",
      "outputs": [
        {
          "internalType": "uint256",
          "name": "",
          "type": "uint256"
        }
      ],
      "stateMutability": "view",
      "type": "function"
    },
    {
      "inputs": [
        {
          "internalType": "address",
          "name": "provider",
          "type": "address"
        },
        {
          "internalType": "string",
          "name": "providerInfo",
          "type": "string"
        }
      ],
      "name": "addProvider",
      "outputs": [],
      "stateMutability": "nonpayable",
      "type": "function"
    },
    {
      "inputs": [
        {
          "internalType": "address",
          "name": "provider",
          "type": "address"
        }
      ],
      "name": "validateProvider",
      "outputs": [],
      "stateMutability": "nonpayable",
      "type": "function"
    },
    {
      "inputs": [
        {
          "internalType": "address",
          "name": "provider",
          "type": "address"
        }
      ],
      "name": "removeProvider",
      "outputs": [],
      "stateMutability": "nonpayable",
      "type": "function"
    }
  ],
  "bytecode": "0x600560c09081526427bbb732b960d91b60e0526080908152610140604052600861010090815267283937bb34b232b960c11b6101205260a0526200004890600490600262000346565b5060405162002ed238038062002ed28339810160408190526200006b91620004db565b8181818160026004805480602002602001604051908101604052809291908181526020016000905b82821015620001445760008481526020908190208301805460408051601f60026000196101006001871615020190941693909304928301859004850281018501909152818152928301828280156200012f5780601f1062000103576101008083540402835291602001916200012f565b820191906000526020600020905b8154815290600101906020018083116200011157829003601f168201915b50505050508152602001906001019062000093565b5050505060008451841115620001775760405162461bcd60e51b81526004016200016e90620005a1565b60405180910390fd5b600084116200019a5760405162461bcd60e51b81526004016200016e90620005bf565b81518314620001bd5760405162461bcd60e51b81526004016200016e90620005dd565b60008181555b8381101562000228576003805460010181556000528251600290849083908110620001ea57fe5b602090810291909101810151825460018101845560009384529282902081516200021e9491909101929190910190620003aa565b50600101620001c3565b50600184905560005b8551811015620003235760016003600054815481106200024d57fe5b906000526020600020906002020160000160008884815181106200026d57fe5b60200260200101516001600160a01b03166001600160a01b0316815260200190815260200160002060000160006101000a81548160ff021916908315150217905550600360005481548110620002bf57fe5b9060005260206000209060020201600101868281518110620002dd57fe5b60209081029190910181015182546001808201855560009485529290932090920180546001600160a01b0319166001600160a01b03909316929092179091550162000231565b5050600680546001600160a01b0319163317905550620005fb9650505050505050565b82805482825590600052602060002090810192821562000398579160200282015b8281111562000398578251805162000387918491602090910190620003aa565b509160200191906001019062000367565b50620003a69291506200043b565b5090565b828054600181600116156101000203166002900490600052602060002090601f016020900481019282620003e257600085556200042d565b82601f10620003fd57805160ff19168380011785556200042d565b828001600101855582156200042d579182015b828111156200042d57825182559160200191906001019062000410565b50620003a69291506200045c565b80821115620003a657600062000452828262000473565b506001016200043b565b5b80821115620003a657600081556001016200045d565b50805460018160011615610100020316600290046000825580601f106200049b5750620004bb565b601f016020900490600052602060002090810190620004bb91906200045c565b50565b80516001600160a01b0381168114620004d657600080fd5b919050565b60008060408385031215620004ee578182fd5b82516001600160401b038082111562000505578384fd5b818501915085601f83011262000519578384fd5b81516020828211156200052857fe5b808202604051828282010181811086821117156200054257fe5b604052838152828101945085830182870184018b101562000561578889fd5b8896505b848710156200058e576200057981620004be565b86526001969096019594830194830162000565565b5097909101519698969750505050505050565b60208082526004908201526322a1989b60e11b604082015260600190565b6020808252600490820152634543313760e01b604082015260600190565b60208082526004908201526308a8662760e31b604082015260600190565b6128c7806200060b6000396000f3fe608060405234801561001057600080fd5b50600436106101215760003560e01c80636e4f9179116100ad578063a93d5ed611610071578063a93d5ed614610266578063d0a4adfe1461026e578063d744d2f31461028e578063eefe768114610296578063fc0005001461029e57610121565b80636e4f9179146102055780636e55d2d41461021a57806377bc5a1f1461022d5780638a355a5714610240578063a73db28a1461025357610121565b80633542758f116100f45780633542758f1461018a578063375834991461019d57806358a1ba25146101bd57806365b973e5146101dd5780636b074a07146101f257610121565b8063173825d9146101265780631ab807f81461013b57806327a40b4b1461014e5780632f54bf6e14610161575b600080fd5b610139610134366004612400565b6102b1565b005b610139610149366004612514565b6102fc565b61013961015c366004612400565b6103fc565b61017461016f366004612400565b6104fe565b60405161018191906125ff565b60405180910390f35b61013961019836600461241a565b610514565b6101b06101ab366004612400565b610525565b604051610181919061260a565b6101d06101cb3660046124c2565b610532565b60405161018191906125c7565b6101e56106a3565b604051610181919061286e565b610174610200366004612400565b6106a9565b61020d6106b6565b604051610181919061257a565b6101e5610228366004612400565b6106c7565b6101b061023b366004612400565b6106e5565b61013961024e366004612400565b6106f3565b610139610261366004612514565b6108cb565b61020d610b2d565b61028161027c366004612514565b610b3a565b604051610181919061254c565b6101e5610b67565b6101e5610b73565b6101396102ac36600461241a565b610b80565b60015460016102c1600054610c5c565b03808211156102eb5760405162461bcd60e51b81526004016102e29061272a565b60405180910390fd5b6102f783600054610d39565b505050565b610305336106a9565b15156001146103265760405162461bcd60e51b81526004016102e2906127be565b816001600160a01b03808316600090815260056020908152604080832087845290915290205483918591161561036e5760405162461bcd60e51b81526004016102e2906127a0565b6001600160a01b038416600090815260056020818152604080842089855280835281852080546001600160a01b031916339081179091559383526001908101805491820181558552919093200187905590517f601cb9a073dbfa468ef12878ee6c720641a49b76af7c16099e8c0a1ac3ca79b5916103ed918790612560565b60405180910390a15050505050565b6001816001600160a01b03811660009081526007602052604090205460ff16151560011461043c5760405162461bcd60e51b81526004016102e29061270d565b6102f783600360018154811061044e57fe5b600091825260208083206001600160a01b038916845260029283020181526040928390206001908101805485519281161561010002600019011693909304601f810183900483028201830190945283815292908301828280156104f25780601f106104c7576101008083540402835291602001916104f2565b820191906000526020600020905b8154815290600101906020018083116104d557829003601f168201915b50505050506001610f47565b600061050c82600054611091565b90505b919050565b6105218282600054610f47565b5050565b606061050c82600161115c565b60608261053e856106c7565b11610558575060408051600081526020810190915261069c565b818084610564876106c7565b0310156105795783610575866106c7565b0390505b60008167ffffffffffffffff8111801561059257600080fd5b506040519080825280602002602001820160405280156105bc578160200160208202803683370190505b506001600160a01b03871660009081526005602090815260408083206001018054825181850281018501909352808352949550929390929183018282801561062357602002820191906000526020600020905b81548152602001906001019080831161060f575b5050505050905060008060005b83518110156106935787831061064557610693565b818911156106585760018201915061068b565b83818151811061066457fe5b602002602001015185848151811061067857fe5b6020026020010181815250506001830192505b600101610630565b50929450505050505b9392505050565b60015490565b600061050c826001611091565b60606106c26001611232565b905090565b6001600160a01b031660009081526005602052604090206001015490565b606061050c8260005461115c565b6106fe816001610d39565b6108a3600360018154811061070f57fe5b600091825260208083206001600160a01b038616845260029283020181526040928390208351608081018552815460ff16151581526001808301805487516101009382161593909302600019011695909504601f81018590048502820185019096528581529094919385840193919290918301828280156107d15780601f106107a6576101008083540402835291602001916107d1565b820191906000526020600020905b8154815290600101906020018083116107b457829003601f168201915b505050505081526020016002820180548060200260200160405190810160405280929190818152602001828054801561083357602002820191906000526020600020905b81546001600160a01b03168152600190910190602001808311610815575b505050505081526020016003820180548060200260200160405190810160405280929190818152602001828054801561089557602002820191906000526020600020905b81546001600160a01b03168152600190910190602001808311610877575b505050505081525050611307565b6108c8576001600160a01b0381166000908152600760205260409020805460ff191690555b50565b6108d4336106a9565b15156001146108f55760405162461bcd60e51b81526004016102e2906127be565b6001600160a01b03818116600090815260056020908152604080832086845290915290205482918491163314806109345750336001600160a01b038316145b6109505760405162461bcd60e51b81526004016102e290612765565b6001600160a01b0380841660008181526005602081815260408084208a8552808352818520549585529282526001909201805483518184028101840190945280845294909516949293919291908301828280156109cc57602002820191906000526020600020905b8154815260200190600101908083116109b8575b5050505050905060005b8151811015610ab9578181815181106109eb57fe5b6020026020010151871415610ab157610a7a8160056000896001600160a01b03166001600160a01b03168152602001908152602001600020600101805480602002602001604051908101604052809291908181526020018280548015610a7057602002820191906000526020600020905b815481526020019060010190808311610a5c575b505050505061130b565b6001600160a01b03871660009081526005602090815260409091208251610aab93600190920192919091019061225b565b50610ab9565b6001016109d6565b506001600160a01b03851660009081526005602090815260408083208984529091529081902080546001600160a01b0319169055517fd12847594abf0621035046f61129f2a9dc5093eb516c6c517ece306362ef6f1790610b1d9084908890612560565b60405180910390a1505050505050565b60606106c2600054611232565b6001600160a01b038082166000908152600560209081526040808320868452909152902054165b92915050565b60006106c26001610c5c565b60006106c2600054610c5c565b6006546001600160a01b0316338114610bab5760405162461bcd60e51b81526004016102e290612816565b6000836001600160a01b03811660009081526007602052604090205460ff1615610be75760405162461bcd60e51b81526004016102e290612783565b836003600181548110610bf657fe5b600091825260208083206001600160a01b038a1684526002909202909101815260409091208251610c319360019092019291909101906122a6565b5050506001600160a01b039092166000908152600760205260409020805460ff191660011790555050565b60035460405163123bd07560e11b8152600091839173__Library_______________________________90632477a0ea90610c9d9085908590600401612877565b60206040518083038186803b158015610cb557600080fd5b505af4158015610cc9573d6000803e3d6000fd5b505050506040513d601f19601f82011682018060405250810190610ced91906124f4565b1515600114610d0e5760405162461bcd60e51b81526004016102e2906127f9565b610d3160038581548110610d1e57fe5b90600052602060002090600202016113fe565b949350505050565b60035460405163123bd07560e11b815282919073__Library_______________________________90632477a0ea90610d789085908590600401612877565b60206040518083038186803b158015610d9057600080fd5b505af4158015610da4573d6000803e3d6000fd5b505050506040513d601f19601f82011682018060405250810190610dc891906124f4565b1515600114610de95760405162461bcd60e51b81526004016102e2906127f9565b83610df3336104fe565b151560011480610e0b5750336001600160a01b038216145b610e275760405162461bcd60e51b81526004016102e290612833565b610e4e8560038681548110610e3857fe5b9060005260206000209060020201600154611405565b610ef560038581548110610e5e57fe5b600091825260208083206001600160a01b038a16845260029283020181526040928390208351608081018552815460ff16151581526001808301805487516101009382161593909302600019011695909504601f81018590048502820185019096528581529094919385840193919290918301828280156107d15780601f106107a6576101008083540402835291602001916107d1565b610f40577f1f62d535f971041db7bd8760bf0f1f9f476461558744a35c0d477b5ad6893e8960028581548110610f2757fe5b90600052602060002001866040516103ed92919061265d565b5050505050565b60035460405163123bd07560e11b815282919073__Library_______________________________90632477a0ea90610f869085908590600401612877565b60206040518083038186803b158015610f9e57600080fd5b505af4158015610fb2573d6000803e3d6000fd5b505050506040513d601f19601f82011682018060405250810190610fd691906124f4565b1515600114610ff75760405162461bcd60e51b81526004016102e2906127f9565b611000336104fe565b15156001146110215760405162461bcd60e51b81526004016102e2906127dc565b61104985856003868154811061103357fe5b90600052602060002090600202016001546118d5565b61105960038481548110610e5e57fe5b151560011415610f40577f3c139d46a211844e248647688545a37c07c505c999c1232d1247c707dc0a91e260028481548110610f2757fe5b60035460405163123bd07560e11b8152600091839173__Library_______________________________90632477a0ea906110d29085908590600401612877565b60206040518083038186803b1580156110ea57600080fd5b505af41580156110fe573d6000803e3d6000fd5b505050506040513d601f19601f8201168201806040525081019061112291906124f4565b15156001146111435760405162461bcd60e51b81526004016102e2906127f9565b61115360038581548110610e5e57fe5b95945050505050565b60035460405163123bd07560e11b8152606091839173__Library_______________________________90632477a0ea9061119d9085908590600401612877565b60206040518083038186803b1580156111b557600080fd5b505af41580156111c9573d6000803e3d6000fd5b505050506040513d601f19601f820116820180604052508101906111ed91906124f4565b151560011461120e5760405162461bcd60e51b81526004016102e2906127f9565b611153856003868154811061121f57fe5b9060005260206000209060020201611ce6565b60035460405163123bd07560e11b8152606091839173__Library_______________________________90632477a0ea906112739085908590600401612877565b60206040518083038186803b15801561128b57600080fd5b505af415801561129f573d6000803e3d6000fd5b505050506040513d601f19601f820116820180604052508101906112c391906124f4565b15156001146112e45760405162461bcd60e51b81526004016102e2906127f9565b610d31600385815481106112f457fe5b9060005260206000209060020201611f29565b5190565b606082825161131a8282611f8f565b151560011461133b5760405162461bcd60e51b81526004016102e2906127f9565b6000600185510367ffffffffffffffff8111801561135857600080fd5b50604051908082528060200260200182016040528015611382578160200160208202803683370190505b5090508460018651038151811061139557fe5b60200260200101518587815181106113a957fe5b60200260200101818152505060005b81518110156113f4578581815181106113cd57fe5b60200260200101518282815181106113e157fe5b60209081029190910101526001016113b8565b5095945050505050565b6001015490565b6001600160a01b038316600090815260208381526040918290208251608081018452815460ff1615158152600180830180548651600261010083861615026000190190921691909104601f81018790048702820187019097528681529195929485810193908301828280156114bb5780601f10611490576101008083540402835291602001916114bb565b820191906000526020600020905b81548152906001019060200180831161149e57829003601f168201915b505050505081526020016002820180548060200260200160405190810160405280929190818152602001828054801561151d57602002820191906000526020600020905b81546001600160a01b031681526001909101906020018083116114ff575b505050505081526020016003820180548060200260200160405190810160405280929190818152602001828054801561157f57602002820191906000526020600020905b81546001600160a01b03168152600190910190602001808311611561575b5050505050815250506115928282611f93565b6001600160a01b038516600090815260208581526040918290208251608081018452815460ff1615158152600180830180548651600261010083861615026000190190921691909104601f81018790048702820187019097528681529195929485810193908301828280156116485780601f1061161d57610100808354040283529160200191611648565b820191906000526020600020905b81548152906001019060200180831161162b57829003601f168201915b50505050508152602001600282018054806020026020016040519081016040528092919081815260200182805480156116aa57602002820191906000526020600020905b81546001600160a01b0316815260019091019060200180831161168c575b505050505081526020016003820180548060200260200160405190810160405280929190818152602001828054801561170c57602002820191906000526020600020905b81546001600160a01b031681526001909101906020018083116116ee575b50505050508152505061171f8282611fed565b6001600160a01b0387166000818152602088815260408220600301805460018101825590835291200180546001600160a01b03191633908117909155148061178857506001600160a01b0387166000908152602087905260409020600301546117889086612053565b156118cc576118686118636117f989896001018054806020026020016040519081016040528092919081815260200182805480156117ef57602002820191906000526020600020905b81546001600160a01b031681526001909101906020018083116117d1575b505050505061206e565b61185e8960010180548060200260200160405190810160405280929190818152602001828054801561185457602002820191906000526020600020905b81546001600160a01b03168152600190910190602001808311611836575b50505050506120c2565b61130b565b612159565b805161187e916001890191602090910190612321565b506001600160a01b0387166000908152602087905260408120805460ff19168155906118ad6001830182612376565b6118bb6002830160006123ba565b6118c96003830160006123ba565b50505b50505050505050565b6001600160a01b0384166000908152602083815260408083208151608081018352815460ff1615158152600180830180548551600261010094831615949094026000190190911692909204601f8101879004870283018701909552848252919492938584019391929183018282801561198f5780601f106119645761010080835404028352916020019161198f565b820191906000526020600020905b81548152906001019060200180831161197257829003601f168201915b50505050508152602001600282018054806020026020016040519081016040528092919081815260200182805480156119f157602002820191906000526020600020905b81546001600160a01b031681526001909101906020018083116119d3575b5050505050815260200160038201805480602002602001604051908101604052809291908181526020018280548015611a5357602002820191906000526020600020905b81546001600160a01b03168152600190910190602001808311611a35575b505050505081525050611a668282611f93565b6001600160a01b0386166000908152602085815260408083208151608081018352815460ff1615158152600180830180548551600261010094831615949094026000190190911692909204601f81018790048702830187019095528482529194929385840193919291830182828015611b205780601f10611af557610100808354040283529160200191611b20565b820191906000526020600020905b815481529060010190602001808311611b0357829003601f168201915b5050505050815260200160028201805480602002602001604051908101604052809291908181526020018280548015611b8257602002820191906000526020600020905b81546001600160a01b03168152600190910190602001808311611b64575b5050505050815260200160038201805480602002602001604051908101604052809291908181526020018280548015611be457602002820191906000526020600020905b81546001600160a01b03168152600190910190602001808311611bc6575b505050505081525050611bf78282611fed565b6001600160a01b038816600090815260208790526040902060020154611c46576001600160a01b0388166000908152602087815260409091208851611c44926001909201918a01906122a6565b505b6001600160a01b0388166000818152602088815260408220600201805460018101825581845291832090910180546001600160a01b0319163317905591905254611c909086612053565b15611cdc576001600160a01b0388166000818152602088815260408220805460ff1916600190811790915589810180549182018155835291200180546001600160a01b03191690911790555b5050505050505050565b6001600160a01b038216600090815260208281526040918290208251608081018452815460ff1615158152600182810180548651601f600260001984871615610100020190931692909204918201879004870281018701909752808752606096929593949385810193929190830182828015611da35780601f10611d7857610100808354040283529160200191611da3565b820191906000526020600020905b815481529060010190602001808311611d8657829003601f168201915b5050505050815260200160028201805480602002602001604051908101604052809291908181526020018280548015611e0557602002820191906000526020600020905b81546001600160a01b03168152600190910190602001808311611de7575b5050505050815260200160038201805480602002602001604051908101604052809291908181526020018280548015611e6757602002820191906000526020600020905b81546001600160a01b03168152600190910190602001808311611e49575b505050505081525050611e7a8282611f93565b6001600160a01b03851660009081526020858152604091829020600190810180548451600293821615610100026000190190911692909204601f810184900484028301840190945283825290929091830182828015611f1a5780601f10611eef57610100808354040283529160200191611f1a565b820191906000526020600020905b815481529060010190602001808311611efd57829003601f168201915b50505050509250505092915050565b606081600101805480602002602001604051908101604052809291908181526020018280548015611f8357602002820191906000526020600020905b81546001600160a01b03168152600190910190602001808311611f65575b50505050509050919050565b1190565b81611fc357611fa181611307565b15611fbe5760405162461bcd60e51b81526004016102e290612851565b610521565b611fcc81611307565b15156001146105215760405162461bcd60e51b81526004016102e2906126f0565b816001811115611ff957fe5b6120285761200b3382604001516121f6565b15611fbe5760405162461bcd60e51b81526004016102e290612748565b6120363382606001516121f6565b156105215760405162461bcd60e51b81526004016102e290612748565b60008183101561206557506000610b61565b50600192915050565b6000805b82518110156120b75782818151811061208757fe5b60200260200101516001600160a01b0316846001600160a01b031614156120af579050610b61565b600101612072565b505051600101919050565b60606000825167ffffffffffffffff811180156120de57600080fd5b50604051908082528060200260200182016040528015612108578160200160208202803683370190505b50905060005b83518110156121525761213384828151811061212657fe5b602002602001015161224c565b82828151811061213f57fe5b602090810291909101015260010161210e565b5092915050565b60606000825167ffffffffffffffff8111801561217557600080fd5b5060405190808252806020026020018201604052801561219f578160200160208202803683370190505b50905060005b8351811015612152576121ca8482815181106121bd57fe5b6020026020010151612258565b8282815181106121d657fe5b6001600160a01b03909216602092830291909101909101526001016121a5565b6000805b82518110156122425782818151811061220f57fe5b60200260200101516001600160a01b0316846001600160a01b0316141561223a576001915050610b61565b6001016121fa565b5060009392505050565b6001600160a01b031690565b90565b828054828255906000526020600020908101928215612296579160200282015b8281111561229657825182559160200191906001019061227b565b506122a29291506123d4565b5090565b828054600181600116156101000203166002900490600052602060002090601f0160209004810192826122dc5760008555612296565b82601f106122f557805160ff1916838001178555612296565b82800160010185558215612296579182018281111561229657825182559160200191906001019061227b565b828054828255906000526020600020908101928215612296579160200282015b8281111561229657825182546001600160a01b0319166001600160a01b03909116178255602090920191600190910190612341565b50805460018160011615610100020316600290046000825580601f1061239c57506108c8565b601f0160209004906000526020600020908101906108c891906123d4565b50805460008255906000526020600020908101906108c891905b5b808211156122a257600081556001016123d5565b80356001600160a01b038116811461050f57600080fd5b600060208284031215612411578081fd5b61069c826123e9565b6000806040838503121561242c578081fd5b612435836123e9565b915060208084013567ffffffffffffffff80821115612452578384fd5b818601915086601f830112612465578384fd5b81358181111561247157fe5b604051601f8201601f191681018501838111828210171561248e57fe5b60405281815283820185018910156124a4578586fd5b81858501868301378585838301015280955050505050509250929050565b6000806000606084860312156124d6578081fd5b6124df846123e9565b95602085013595506040909401359392505050565b600060208284031215612505578081fd5b8151801515811461069c578182fd5b60008060408385031215612526578182fd5b82359150612536602084016123e9565b90509250929050565b6001600160a01b03169052565b6001600160a01b0391909116815260200190565b6001600160a01b0392831681529116602082015260400190565b6020808252825182820181905260009190848201906040850190845b818110156125bb5783516001600160a01b031683529284019291840191600101612596565b50909695505050505050565b6020808252825182820181905260009190848201906040850190845b818110156125bb578351835292840192918401916001016125e3565b901515815260200190565b6000602080835283518082850152825b818110156126365785810183015185820160400152820161261a565b818111156126475783604083870101525b50601f01601f1916929092016040019392505050565b6000604082016040835281855460018082166000811461268457600181146126a2576126db565b60028304607f16855260ff19831660608801526080870193506126db565b600283048086526126b28a612885565b875b828110156126d15781548a820160600152908401906020016126b4565b8901606001955050505b505050809250505061069c602083018461253f565b60208082526003908201526245433760e81b604082015260600190565b6020808252600390820152621150cd60ea1b604082015260600190565b6020808252600490820152634543313960e01b604082015260600190565b60208082526003908201526245433560e81b604082015260600190565b6020808252600490820152631150cc4d60e21b604082015260600190565b60208082526003908201526245433360e81b604082015260600190565b6020808252600490820152634543313560e01b604082015260600190565b60208082526004908201526322a1989960e11b604082015260600190565b60208082526003908201526245433960e81b604082015260600190565b60208082526003908201526245433160e81b604082015260600190565b60208082526003908201526208a86760eb1b604082015260600190565b6020808252600490820152630454331360e41b604082015260600190565b60208082526003908201526222a19b60e91b604082015260600190565b90815260200190565b918252602082015260400190565b6000908152602090209056fea26469706673582212207f7c9e0757aaf21ba04dbc700092df21e72742058db24eab947bbafb7b34d28e64736f6c63430007060033",
  "immutableReferences": {},
  "source": "// SPDX-License-Identifier: GPL-3.0\r\n\r\npragma solidity >=0.7.0 <0.9.0;\r\npragma experimental ABIEncoderV2;\r\n\r\n/**\r\n * @title Storage\r\n * @dev Store & retrieve value in a variable\r\n */\r\n\r\n import \"./Abstract/MultiSigCertificatesPool.sol\";\r\n\r\n contract PublicCertificatesPool is MultiSigCertificatesPool {\r\n\r\n     address _creator;\r\n     mapping(address => bool) _submitedByCreator;\r\n\r\n     //modifiers\r\n    modifier hasBeenSubmitted(bool YesOrNo, address provider){\r\n        if(false == YesOrNo) require(false == _submitedByCreator[provider], \"EC3\");\r\n        else require(true == _submitedByCreator[provider], \"EC4\");\r\n        _;\r\n    }\r\n\r\n     // Constructor\r\n    constructor(address[] memory owners,  uint256 minOwners) MultiSigCertificatesPool(owners, minOwners) payable {\r\n        _creator = msg.sender;\r\n    }\r\n\r\n    function addProvider(address provider, string memory providerInfo) external \r\n        isSomeoneSpecific(_creator)\r\n        hasBeenSubmitted(false, provider)\r\n    override\r\n    {\r\n        _Entities[_providerId]._entities[provider]._Info = bytes(providerInfo);\r\n        _submitedByCreator[provider] = true;\r\n    }\r\n\r\n    function validateProvider(address provider) external \r\n        hasBeenSubmitted(true, provider)\r\n    {\r\n        addEntity(provider, _Entities[_providerId]._entities[provider]._Info, _providerId);\r\n    }\r\n\r\n    function removeProvider(address provider) external override{\r\n       removeEntity(provider, _providerId); \r\n\r\n       if(false == Library.isEntity(_Entities[_providerId]._entities[provider])){\r\n            delete(_submitedByCreator[provider]);\r\n       }\r\n    }\r\n\r\n }",
  "sourcePath": "C:/Users/d-aam/GitHub/Certificates/contracts/PublicCertificatesPool.sol",
  "compiler": {
    "name": "solc",
    "version": "0.7.6+commit.7338295f.Emscripten.clang"
  },
  "schemaVersion": "3.3.4",
  "updatedAt": "2021-07-07T14:09:25.040Z",
  "devdoc": {
    "kind": "dev",
    "methods": {},
    "version": 1
  },
  "userdoc": {
    "kind": "user",
    "methods": {},
    "version": 1
  }
}