{
  "contractName": "PublicCertificatesPool",
  "abi": [
    {
      "inputs": [
        {
          "internalType": "address[]",
          "name": "owners",
          "type": "address[]"
        },
        {
          "internalType": "uint256",
          "name": "minOwners",
          "type": "uint256"
        }
      ],
      "stateMutability": "payable",
      "type": "constructor"
    },
    {
      "anonymous": false,
      "inputs": [
        {
          "indexed": false,
          "internalType": "address",
          "name": "",
          "type": "address"
        },
        {
          "indexed": false,
          "internalType": "address",
          "name": "",
          "type": "address"
        }
      ],
      "name": "_AddCertificateIdEvent",
      "type": "event"
    },
    {
      "anonymous": false,
      "inputs": [
        {
          "indexed": false,
          "internalType": "string",
          "name": "",
          "type": "string"
        },
        {
          "indexed": false,
          "internalType": "address",
          "name": "",
          "type": "address"
        }
      ],
      "name": "_AddEntityValidationIdEvent",
      "type": "event"
    },
    {
      "anonymous": false,
      "inputs": [
        {
          "indexed": false,
          "internalType": "address",
          "name": "",
          "type": "address"
        },
        {
          "indexed": false,
          "internalType": "address",
          "name": "",
          "type": "address"
        }
      ],
      "name": "_RemoveCertificateIdEvent",
      "type": "event"
    },
    {
      "anonymous": false,
      "inputs": [
        {
          "indexed": false,
          "internalType": "string",
          "name": "",
          "type": "string"
        },
        {
          "indexed": false,
          "internalType": "address",
          "name": "",
          "type": "address"
        }
      ],
      "name": "_RemoveEntityValidationIdEvent",
      "type": "event"
    },
    {
      "inputs": [
        {
          "internalType": "bytes32",
          "name": "CertificateHash",
          "type": "bytes32"
        },
        {
          "internalType": "address",
          "name": "holder",
          "type": "address"
        },
        {
          "internalType": "uint256",
          "name": "nonce",
          "type": "uint256"
        }
      ],
      "name": "addCertificate",
      "outputs": [],
      "stateMutability": "nonpayable",
      "type": "function"
    },
    {
      "inputs": [
        {
          "internalType": "address",
          "name": "owner",
          "type": "address"
        },
        {
          "internalType": "string",
          "name": "ownerInfo",
          "type": "string"
        },
        {
          "internalType": "uint256",
          "name": "nonce",
          "type": "uint256"
        }
      ],
      "name": "addOwner",
      "outputs": [],
      "stateMutability": "nonpayable",
      "type": "function"
    },
    {
      "inputs": [
        {
          "internalType": "address",
          "name": "owner",
          "type": "address"
        }
      ],
      "name": "isOwner",
      "outputs": [
        {
          "internalType": "bool",
          "name": "",
          "type": "bool"
        }
      ],
      "stateMutability": "view",
      "type": "function"
    },
    {
      "inputs": [
        {
          "internalType": "address",
          "name": "provider",
          "type": "address"
        }
      ],
      "name": "isProvider",
      "outputs": [
        {
          "internalType": "bool",
          "name": "",
          "type": "bool"
        }
      ],
      "stateMutability": "view",
      "type": "function"
    },
    {
      "inputs": [
        {
          "internalType": "bytes32",
          "name": "CertificateHash",
          "type": "bytes32"
        },
        {
          "internalType": "address",
          "name": "holder",
          "type": "address"
        },
        {
          "internalType": "uint256",
          "name": "nonce",
          "type": "uint256"
        }
      ],
      "name": "removeCertificate",
      "outputs": [],
      "stateMutability": "nonpayable",
      "type": "function"
    },
    {
      "inputs": [
        {
          "internalType": "address",
          "name": "owner",
          "type": "address"
        },
        {
          "internalType": "uint256",
          "name": "nonce",
          "type": "uint256"
        }
      ],
      "name": "removeOwner",
      "outputs": [],
      "stateMutability": "nonpayable",
      "type": "function"
    },
    {
      "inputs": [],
      "name": "retrieveAllOwners",
      "outputs": [
        {
          "internalType": "address[]",
          "name": "",
          "type": "address[]"
        }
      ],
      "stateMutability": "view",
      "type": "function"
    },
    {
      "inputs": [],
      "name": "retrieveAllProviders",
      "outputs": [
        {
          "internalType": "address[]",
          "name": "",
          "type": "address[]"
        }
      ],
      "stateMutability": "view",
      "type": "function"
    },
    {
      "inputs": [
        {
          "internalType": "bytes32",
          "name": "CertificateHash",
          "type": "bytes32"
        },
        {
          "internalType": "address",
          "name": "holder",
          "type": "address"
        }
      ],
      "name": "retrieveCertificateProvider",
      "outputs": [
        {
          "internalType": "address",
          "name": "",
          "type": "address"
        }
      ],
      "stateMutability": "view",
      "type": "function"
    },
    {
      "inputs": [
        {
          "internalType": "address",
          "name": "holder",
          "type": "address"
        },
        {
          "internalType": "uint256",
          "name": "skipFirst",
          "type": "uint256"
        },
        {
          "internalType": "uint256",
          "name": "max",
          "type": "uint256"
        }
      ],
      "name": "retrieveCertificatesByHolder",
      "outputs": [
        {
          "internalType": "bytes32[]",
          "name": "",
          "type": "bytes32[]"
        }
      ],
      "stateMutability": "view",
      "type": "function"
    },
    {
      "inputs": [
        {
          "internalType": "address",
          "name": "addr",
          "type": "address"
        }
      ],
      "name": "retrieveHighestNonceForAddress",
      "outputs": [
        {
          "internalType": "uint256",
          "name": "",
          "type": "uint256"
        }
      ],
      "stateMutability": "view",
      "type": "function"
    },
    {
      "inputs": [],
      "name": "retrieveMinOwners",
      "outputs": [
        {
          "internalType": "uint256",
          "name": "",
          "type": "uint256"
        }
      ],
      "stateMutability": "view",
      "type": "function"
    },
    {
      "inputs": [
        {
          "internalType": "address",
          "name": "owner",
          "type": "address"
        }
      ],
      "name": "retrieveOwner",
      "outputs": [
        {
          "internalType": "string",
          "name": "",
          "type": "string"
        }
      ],
      "stateMutability": "view",
      "type": "function"
    },
    {
      "inputs": [
        {
          "internalType": "bool",
          "name": "addedORremove",
          "type": "bool"
        }
      ],
      "name": "retrievePendingOwners",
      "outputs": [
        {
          "internalType": "address[]",
          "name": "",
          "type": "address[]"
        },
        {
          "internalType": "string[]",
          "name": "",
          "type": "string[]"
        }
      ],
      "stateMutability": "view",
      "type": "function"
    },
    {
      "inputs": [
        {
          "internalType": "bool",
          "name": "addedORremove",
          "type": "bool"
        }
      ],
      "name": "retrievePendingProviders",
      "outputs": [
        {
          "internalType": "address[]",
          "name": "",
          "type": "address[]"
        },
        {
          "internalType": "string[]",
          "name": "",
          "type": "string[]"
        }
      ],
      "stateMutability": "view",
      "type": "function"
    },
    {
      "inputs": [
        {
          "internalType": "address",
          "name": "provider",
          "type": "address"
        }
      ],
      "name": "retrieveProvider",
      "outputs": [
        {
          "internalType": "string",
          "name": "",
          "type": "string"
        }
      ],
      "stateMutability": "view",
      "type": "function"
    },
    {
      "inputs": [
        {
          "internalType": "address",
          "name": "holder",
          "type": "address"
        }
      ],
      "name": "retrieveTotalCertificatesByHolder",
      "outputs": [
        {
          "internalType": "uint256",
          "name": "",
          "type": "uint256"
        }
      ],
      "stateMutability": "view",
      "type": "function"
    },
    {
      "inputs": [],
      "name": "retrieveTotalOwners",
      "outputs": [
        {
          "internalType": "uint256",
          "name": "",
          "type": "uint256"
        }
      ],
      "stateMutability": "view",
      "type": "function"
    },
    {
      "inputs": [],
      "name": "retrieveTotalProviders",
      "outputs": [
        {
          "internalType": "uint256",
          "name": "",
          "type": "uint256"
        }
      ],
      "stateMutability": "view",
      "type": "function"
    },
    {
      "inputs": [
        {
          "internalType": "address",
          "name": "provider",
          "type": "address"
        },
        {
          "internalType": "string",
          "name": "providerInfo",
          "type": "string"
        },
        {
          "internalType": "uint256",
          "name": "nonce",
          "type": "uint256"
        }
      ],
      "name": "addProvider",
      "outputs": [],
      "stateMutability": "nonpayable",
      "type": "function"
    },
    {
      "inputs": [
        {
          "internalType": "address",
          "name": "provider",
          "type": "address"
        },
        {
          "internalType": "uint256",
          "name": "nonce",
          "type": "uint256"
        }
      ],
      "name": "validateProvider",
      "outputs": [],
      "stateMutability": "nonpayable",
      "type": "function"
    },
    {
      "inputs": [
        {
          "internalType": "address",
          "name": "provider",
          "type": "address"
        },
        {
          "internalType": "uint256",
          "name": "nonce",
          "type": "uint256"
        }
      ],
      "name": "removeProvider",
      "outputs": [],
      "stateMutability": "nonpayable",
      "type": "function"
    }
  ],
  "bytecode": "0x600560c09081526427bbb732b960d91b60e0526080908152610140604052600861010090815267283937bb34b232b960c11b6101205260a0526200004890600690600262000346565b50604051620038b8380380620038b88339810160408190526200006b91620004db565b8181818160026006805480602002602001604051908101604052809291908181526020016000905b82821015620001445760008481526020908190208301805460408051601f60026000196101006001871615020190941693909304928301859004850281018501909152818152928301828280156200012f5780601f1062000103576101008083540402835291602001916200012f565b820191906000526020600020905b8154815290600101906020018083116200011157829003601f168201915b50505050508152602001906001019062000093565b5050505060008451841115620001775760405162461bcd60e51b81526004016200016e90620005a1565b60405180910390fd5b600084116200019a5760405162461bcd60e51b81526004016200016e90620005bf565b81518314620001bd5760405162461bcd60e51b81526004016200016e90620005dd565b60008181555b8381101562000228576003805460010181556000528251600290849083908110620001ea57fe5b602090810291909101810151825460018101845560009384529282902081516200021e9491909101929190910190620003aa565b50600101620001c3565b50600184905560005b8551811015620003235760016003600054815481106200024d57fe5b906000526020600020906004020160000160008884815181106200026d57fe5b60200260200101516001600160a01b03166001600160a01b0316815260200190815260200160002060000160006101000a81548160ff021916908315150217905550600360005481548110620002bf57fe5b9060005260206000209060040201600101868281518110620002dd57fe5b60209081029190910181015182546001808201855560009485529290932090920180546001600160a01b0319166001600160a01b03909316929092179091550162000231565b5050600880546001600160a01b0319163317905550620005fb9650505050505050565b82805482825590600052602060002090810192821562000398579160200282015b8281111562000398578251805162000387918491602090910190620003aa565b509160200191906001019062000367565b50620003a69291506200043b565b5090565b828054600181600116156101000203166002900490600052602060002090601f016020900481019282620003e257600085556200042d565b82601f10620003fd57805160ff19168380011785556200042d565b828001600101855582156200042d579182015b828111156200042d57825182559160200191906001019062000410565b50620003a69291506200045c565b80821115620003a657600062000452828262000473565b506001016200043b565b5b80821115620003a657600081556001016200045d565b50805460018160011615610100020316600290046000825580601f106200049b5750620004bb565b601f016020900490600052602060002090810190620004bb91906200045c565b50565b80516001600160a01b0381168114620004d657600080fd5b919050565b60008060408385031215620004ee578182fd5b82516001600160401b038082111562000505578384fd5b818501915085601f83011262000519578384fd5b81516020828211156200052857fe5b808202604051828282010181811086821117156200054257fe5b604052838152828101945085830182870184018b101562000561578889fd5b8896505b848710156200058e576200057981620004be565b86526001969096019594830194830162000565565b5097909101519698969750505050505050565b60208082526004908201526322a1989b60e11b604082015260600190565b6020808252600490820152634543313760e01b604082015260600190565b60208082526004908201526308a8662760e31b604082015260600190565b6132ad806200060b6000396000f3fe608060405234801561001057600080fd5b50600436106101125760003560e01c8063073855ca146101175780630743c85e1461012c5780632f54bf6e1461013f578063375834991461016857806341929ea91461018857806358a1ba251461019b57806365b973e5146101bb57806369767eab146101d05780636b074a07146101e35780636b299604146101f65780636b3a0fec146102175780636e4f91791461022a5780636e55d2d41461023f57806377bc5a1f14610252578063a93d5ed614610265578063ba001d161461026d578063bfd2b3a314610280578063d0a4adfe14610293578063d744d2f3146102b3578063e4661547146102bb578063eefe7681146102ce578063f05d8703146102d6575b600080fd5b61012a610125366004612e35565b6102e9565b005b61012a61013a366004612d77565b610629565b61015261014d366004612cae565b61073b565b60405161015f9190612ff9565b60405180910390f35b61017b610176366004612cae565b610751565b60405161015f9190613004565b61012a610196366004612cc8565b61075e565b6101ae6101a9366004612da0565b610771565b60405161015f9190612fb5565b6101c36108e1565b60405161015f9190613246565b61012a6101de366004612e35565b6108e7565b6101526101f1366004612cae565b610ab8565b610209610204366004612dd2565b610ac5565b60405161015f929190612f45565b610209610225366004612dd2565b610af7565b610232610b0b565b60405161015f9190612f32565b6101c361024d366004612cae565b610b1c565b61017b610260366004612cae565b610b3a565b610232610b48565b6101c361027b366004612cae565b610b55565b61012a61028e366004612d77565b610b70565b6102a66102a1366004612e0a565b610bae565b60405161015f9190612f04565b6101c3610bdb565b61012a6102c9366004612d77565b610be7565b6101c3610dc8565b61012a6102e4366004612cc8565b610dd5565b6102f233610ab8565b151560011461031c5760405162461bcd60e51b815260040161031390613178565b60405180910390fd5b6001600160a01b038281166000908152600760209081526040808320878452909152902054839185911633148061035b5750336001600160a01b038316145b6103775760405162461bcd60e51b81526004016103139061311f565b604051635c6309fb60e11b8152839073__Library_______________________________9063b8c613f6906103b2908490600490810161324f565b60006040518083038186803b1580156103ca57600080fd5b505af41580156103de573d6000803e3d6000fd5b5050506001600160a01b0380871660008181526007602081815260408084208d8552808352818520549585529282526001909201805483518184028101840190945280845294909516955091939092909183018282801561045e57602002820191906000526020600020905b81548152602001906001019080831161044a575b5050505050905060005b815181101561054b5781818151811061047d57fe5b60200260200101518914156105435761050c81600760008b6001600160a01b03166001600160a01b0316815260200190815260200160002060010180548060200260200160405190810160405280929190818152602001828054801561050257602002820191906000526020600020905b8154815260200190600101908083116104ee575b5050505050610f87565b6001600160a01b0389166000908152600760209081526040909120825161053d936001909201929190910190612b06565b5061054b565b600101610468565b506001600160a01b03871660009081526007602090815260408083208b84529091529081902080546001600160a01b03191690555163136ea6e160e21b815273__Library_______________________________90634dba9b84906105b6908990600490810161324f565b60006040518083038186803b1580156105ce57600080fd5b505af41580156105e2573d6000803e3d6000fd5b505050507fd12847594abf0621035046f61129f2a9dc5093eb516c6c517ece306362ef6f178288604051610617929190612f18565b60405180910390a15050505050505050565b6001826001600160a01b03811660009081526009602052604090205460ff1615156001146106695760405162461bcd60e51b8152600401610313906130c7565b61073584600360018154811061067b57fe5b600091825260208083206001600160a01b038a1684526004929092029091018152604091829020600190810180548451600293821615610100026000190190911692909204601f8101849004840283018401909452838252909290918301828280156107285780601f106106fd57610100808354040283529160200191610728565b820191906000526020600020905b81548152906001019060200180831161070b57829003601f168201915b5050505050600186611079565b50505050565b60006107498260005461128e565b90505b919050565b60606107498260016113f7565b61076c838360005484611079565b505050565b60608261077d85610b1c565b1161079757506040805160008152602081019091526108da565b8180846107a387610b1c565b0310156107b857836107b486610b1c565b0390505b6000816001600160401b03811180156107d057600080fd5b506040519080825280602002602001820160405280156107fa578160200160208202803683370190505b506001600160a01b03871660009081526007602090815260408083206001018054825181850281018501909352808352949550929390929183018282801561086157602002820191906000526020600020905b81548152602001906001019080831161084d575b5050505050905060008060005b83518110156108d157878310610883576108d1565b81891115610896576001820191506108c9565b8381815181106108a257fe5b60200260200101518584815181106108b657fe5b6020026020010181815250506001830192505b60010161086e565b50929450505050505b9392505050565b60015490565b6108f033610ab8565b15156001146109115760405162461bcd60e51b815260040161031390613178565b826001600160a01b0380841660009081526007602090815260408083208884529091529020548491869116156109595760405162461bcd60e51b81526004016103139061315a565b604051635c6309fb60e11b8152849073__Library_______________________________9063b8c613f690610994908490600490810161324f565b60006040518083038186803b1580156109ac57600080fd5b505af41580156109c0573d6000803e3d6000fd5b5050506001600160a01b03871660009081526007602081815260408084208c855280835281852080546001600160a01b0319163317905592825260019283018054938401815584529220018990555163136ea6e160e21b815273__Library_______________________________9150634dba9b8490610a46908890600490810161324f565b60006040518083038186803b158015610a5e57600080fd5b505af4158015610a72573d6000803e3d6000fd5b505050507f601cb9a073dbfa468ef12878ee6c720641a49b76af7c16099e8c0a1ac3ca79b53387604051610aa7929190612f18565b60405180910390a150505050505050565b600061074982600161128e565b606080610aee600360005481548110610ada57fe5b9060005260206000209060040201846114cd565b91509150915091565b606080610aee6003600181548110610ada57fe5b6060610b176001611640565b905090565b6001600160a01b031660009081526007602052604090206001015490565b6060610749826000546113f7565b6060610b17600054611640565b6001600160a01b031660009081526004602052604090205490565b6001546001610b8060005461171d565b0380821115610ba15760405162461bcd60e51b8152600401610313906130e4565b61073584600054856117f2565b6001600160a01b038082166000908152600760209081526040808320868452909152902054165b92915050565b6000610b17600161171d565b610bf3826001836117f2565b610d9f6003600181548110610c0457fe5b600091825260208083206001600160a01b0387168452600490920290910181526040918290208251608081018452815460ff1615158152600180830180548651601f600260001995841615610100029590950190921693909304908101869004860283018601909652858252919492938581019391929190830182828015610ccd5780601f10610ca257610100808354040283529160200191610ccd565b820191906000526020600020905b815481529060010190602001808311610cb057829003601f168201915b5050505050815260200160028201805480602002602001604051908101604052809291908181526020018280548015610d2f57602002820191906000526020600020905b81546001600160a01b03168152600190910190602001808311610d11575b5050505050815260200160038201805480602002602001604051908101604052809291908181526020018280548015610d9157602002820191906000526020600020905b81546001600160a01b03168152600190910190602001808311610d73575b50505050508152505061194c565b610dc4576001600160a01b0382166000908152600960205260409020805460ff191690555b5050565b6000610b1760005461171d565b6008546001600160a01b0316338114610e005760405162461bcd60e51b8152600401610313906131ee565b6000846001600160a01b03811660009081526009602052604090205460ff1615610e3c5760405162461bcd60e51b81526004016103139061313d565b604051635c6309fb60e11b8152849073__Library_______________________________9063b8c613f690610e77908490600490810161324f565b60006040518083038186803b158015610e8f57600080fd5b505af4158015610ea3573d6000803e3d6000fd5b50505050856003600181548110610eb657fe5b600091825260208083206001600160a01b038c1684526004909202909101815260409091208251610ef1936001909201929190910190612b51565b506001600160a01b03871660009081526009602052604090819020805460ff191660011790555163136ea6e160e21b815273__Library_______________________________90634dba9b8490610f4e908890600490810161324f565b60006040518083038186803b158015610f6657600080fd5b505af4158015610f7a573d6000803e3d6000fd5b5050505050505050505050565b6060828251610f968282611950565b1515600114610fb75760405162461bcd60e51b8152600401610313906131d1565b600060018551036001600160401b0381118015610fd357600080fd5b50604051908082528060200260200182016040528015610ffd578160200160208202803683370190505b5090508460018651038151811061101057fe5b602002602001015185878151811061102457fe5b60200260200101818152505060005b815181101561106f5785818151811061104857fe5b602002602001015182828151811061105c57fe5b6020908102919091010152600101611033565b5095945050505050565b60035460405163123bd07560e11b815283919073__Library_______________________________90632477a0ea906110b8908590859060040161324f565b60206040518083038186803b1580156110d057600080fd5b505af41580156110e4573d6000803e3d6000fd5b505050506040513d601f19601f820116820180604052508101906111089190612dee565b15156001146111295760405162461bcd60e51b8152600401610313906131d1565b6111323361073b565b15156001146111535760405162461bcd60e51b8152600401610313906131b4565b61117e86866003878154811061116557fe5b9060005260206000209060040201600154600488611954565b61122c6003858154811061118e57fe5b600091825260208083206001600160a01b038b168452600490920290910181526040918290208251608081018452815460ff1615158152600180830180548651601f600260001995841615610100029590950190921693909304908101869004860283018601909652858252919492938581019391929190830182828015610ccd5780601f10610ca257610100808354040283529160200191610ccd565b151560011415611286577f3c139d46a211844e248647688545a37c07c505c999c1232d1247c707dc0a91e26002858154811061126457fe5b906000526020600020018760405161127d929190613017565b60405180910390a15b505050505050565b60035460405163123bd07560e11b8152600091839173__Library_______________________________90632477a0ea906112cf908590859060040161324f565b60206040518083038186803b1580156112e757600080fd5b505af41580156112fb573d6000803e3d6000fd5b505050506040513d601f19601f8201168201806040525081019061131f9190612dee565b15156001146113405760405162461bcd60e51b8152600401610313906131d1565b6113ee6003858154811061135057fe5b600091825260208083206001600160a01b038a168452600490920290910181526040918290208251608081018452815460ff1615158152600180830180548651601f600260001995841615610100029590950190921693909304908101869004860283018601909652858252919492938581019391929190830182828015610ccd5780601f10610ca257610100808354040283529160200191610ccd565b95945050505050565b60035460405163123bd07560e11b8152606091839173__Library_______________________________90632477a0ea90611438908590859060040161324f565b60206040518083038186803b15801561145057600080fd5b505af4158015611464573d6000803e3d6000fd5b505050506040513d601f19601f820116820180604052508101906114889190612dee565b15156001146114a95760405162461bcd60e51b8152600401610313906131d1565b6113ee85600386815481106114ba57fe5b9060005260206000209060040201611efe565b6060806060831561153c578460020180548060200260200160405190810160405280929190818152602001828054801561153057602002820191906000526020600020905b81546001600160a01b03168152600190910190602001808311611512575b5050505050905061159c565b8460030180548060200260200160405190810160405280929190818152602001828054801561159457602002820191906000526020600020905b81546001600160a01b03168152600190910190602001808311611576575b505050505090505b600081516001600160401b03811180156115b557600080fd5b506040519080825280602002602001820160405280156115e957816020015b60608152602001906001900390816115d45790505b50905060005b82518110156116345761161583828151811061160757fe5b602002602001015188611efe565b82828151811061162157fe5b60209081029190910101526001016115ef565b50909590945092505050565b60035460405163123bd07560e11b8152606091839173__Library_______________________________90632477a0ea90611681908590859060040161324f565b60206040518083038186803b15801561169957600080fd5b505af41580156116ad573d6000803e3d6000fd5b505050506040513d601f19601f820116820180604052508101906116d19190612dee565b15156001146116f25760405162461bcd60e51b8152600401610313906131d1565b6117156003858154811061170257fe5b9060005260206000209060040201612141565b949350505050565b60035460405163123bd07560e11b8152600091839173__Library_______________________________90632477a0ea9061175e908590859060040161324f565b60206040518083038186803b15801561177657600080fd5b505af415801561178a573d6000803e3d6000fd5b505050506040513d601f19601f820116820180604052508101906117ae9190612dee565b15156001146117cf5760405162461bcd60e51b8152600401610313906131d1565b611715600385815481106117df57fe5b90600052602060002090600402016121a7565b60035460405163123bd07560e11b815283919073__Library_______________________________90632477a0ea90611831908590859060040161324f565b60206040518083038186803b15801561184957600080fd5b505af415801561185d573d6000803e3d6000fd5b505050506040513d601f19601f820116820180604052508101906118819190612dee565b15156001146118a25760405162461bcd60e51b8152600401610313906131d1565b846118ac3361073b565b1515600114806118c45750336001600160a01b038216145b6118e05760405162461bcd60e51b81526004016103139061320b565b61190a86600387815481106118f157fe5b90600052602060002090600402016001546004886121ae565b61191a6003868154811061118e57fe5b611286577f1f62d535f971041db7bd8760bf0f1f9f476461558744a35c0d477b5ad6893e896002868154811061126457fe5b5190565b1190565b6001600160a01b0386166000908152602085815260408083208151608081018352815460ff1615158152600180830180548551600261010094831615949094026000190190911692909204601f81018790048702830187019095528482529194929385840193919291830182828015611a0e5780601f106119e357610100808354040283529160200191611a0e565b820191906000526020600020905b8154815290600101906020018083116119f157829003601f168201915b5050505050815260200160028201805480602002602001604051908101604052809291908181526020018280548015611a7057602002820191906000526020600020905b81546001600160a01b03168152600190910190602001808311611a52575b5050505050815260200160038201805480602002602001604051908101604052809291908181526020018280548015611ad257602002820191906000526020600020905b81546001600160a01b03168152600190910190602001808311611ab4575b505050505081525050611ae582826127b7565b6001600160a01b0388166000908152602087815260408083208151608081018352815460ff1615158152600180830180548551600261010094831615949094026000190190911692909204601f81018790048702830187019095528482529194929385840193919291830182828015611b9f5780601f10611b7457610100808354040283529160200191611b9f565b820191906000526020600020905b815481529060010190602001808311611b8257829003601f168201915b5050505050815260200160028201805480602002602001604051908101604052809291908181526020018280548015611c0157602002820191906000526020600020905b81546001600160a01b03168152600190910190602001808311611be3575b5050505050815260200160038201805480602002602001604051908101604052809291908181526020018280548015611c6357602002820191906000526020600020905b81546001600160a01b03168152600190910190602001808311611c45575b505050505081525050611c768282612811565b8486611c828282612877565b6001600160a01b038c16600090815260208b90526040902060020154611d01576001600160a01b038c16600090815260208b815260409091208c51611ccf926001909201918e0190612b51565b5060028a018054600181018255600091825260209091200180546001600160a01b0319166001600160a01b038e161790555b6001600160a01b038c16600090815260208b815260408220600201805460018101825590835291200180546001600160a01b03191633179055611d4487896128b4565b6001600160a01b038c16600090815260208b90526040902060020154611d6a908a612900565b15611ef05760018a60000160008e6001600160a01b03166001600160a01b0316815260200190815260200160002060000160006101000a81548160ff021916908315150217905550896001018c9080600181540180825580915050600190039060005260206000200160009091909190916101000a8154816001600160a01b0302191690836001600160a01b03160217905550611ed8611ed3611e698e8d600201805480602002602001604051908101604052809291908181526020018280548015611e5f57602002820191906000526020600020905b81546001600160a01b03168152600190910190602001808311611e41575b505050505061291b565b611ece8d600201805480602002602001604051908101604052809291908181526020018280548015611ec457602002820191906000526020600020905b81546001600160a01b03168152600190910190602001808311611ea6575b505050505061296f565b610f87565b612a05565b8051611eee9160028d0191602090910190612bcc565b505b505050505050505050505050565b6001600160a01b038216600090815260208281526040918290208251608081018452815460ff1615158152600182810180548651601f600260001984871615610100020190931692909204918201879004870281018701909752808752606096929593949385810193929190830182828015611fbb5780601f10611f9057610100808354040283529160200191611fbb565b820191906000526020600020905b815481529060010190602001808311611f9e57829003601f168201915b505050505081526020016002820180548060200260200160405190810160405280929190818152602001828054801561201d57602002820191906000526020600020905b81546001600160a01b03168152600190910190602001808311611fff575b505050505081526020016003820180548060200260200160405190810160405280929190818152602001828054801561207f57602002820191906000526020600020905b81546001600160a01b03168152600190910190602001808311612061575b50505050508152505061209282826127b7565b6001600160a01b03851660009081526020858152604091829020600190810180548451600293821615610100026000190190911692909204601f8101849004840283018401909452838252909290918301828280156121325780601f1061210757610100808354040283529160200191612132565b820191906000526020600020905b81548152906001019060200180831161211557829003601f168201915b50505050509250505092915050565b60608160010180548060200260200160405190810160405280929190818152602001828054801561219b57602002820191906000526020600020905b81546001600160a01b0316815260019091019060200180831161217d575b50505050509050919050565b6001015490565b6001600160a01b038516600090815260208581526040918290208251608081018452815460ff1615158152600180830180548651600261010083861615026000190190921691909104601f81018790048702820187019097528681529195929485810193908301828280156122645780601f1061223957610100808354040283529160200191612264565b820191906000526020600020905b81548152906001019060200180831161224757829003601f168201915b50505050508152602001600282018054806020026020016040519081016040528092919081815260200182805480156122c657602002820191906000526020600020905b81546001600160a01b031681526001909101906020018083116122a8575b505050505081526020016003820180548060200260200160405190810160405280929190818152602001828054801561232857602002820191906000526020600020905b81546001600160a01b0316815260019091019060200180831161230a575b50505050508152505061233b82826127b7565b6001600160a01b038716600090815260208781526040918290208251608081018452815460ff1615158152600180830180548651600261010083861615026000190190921691909104601f81018790048702820187019097528681529195929485810193908301828280156123f15780601f106123c6576101008083540402835291602001916123f1565b820191906000526020600020905b8154815290600101906020018083116123d457829003601f168201915b505050505081526020016002820180548060200260200160405190810160405280929190818152602001828054801561245357602002820191906000526020600020905b81546001600160a01b03168152600190910190602001808311612435575b50505050508152602001600382018054806020026020016040519081016040528092919081815260200182805480156124b557602002820191906000526020600020905b81546001600160a01b03168152600190910190602001808311612497575b5050505050815250506124c88282612811565b84866124d48282612877565b6001600160a01b038b16600090815260208b905260409020600301546125255760038a018054600181018255600091825260209091200180546001600160a01b0319166001600160a01b038d161790555b6001600160a01b038b16600090815260208b815260408220600301805460018101825590835291200180546001600160a01b0319163317905561256887896128b4565b336001600160a01b038c1614806125a057506001600160a01b038b16600090815260208b905260409020600301546125a0908a612900565b15610f7a57612672611ed361260f8d8d600101805480602002602001604051908101604052809291908181526020018280548015611e5f576020028201919060005260206000209081546001600160a01b03168152600190910190602001808311611e4157505050505061291b565b611ece8d600101805480602002602001604051908101604052809291908181526020018280548015611ec4576020028201919060005260206000209081546001600160a01b03168152600190910190602001808311611ea657505050505061296f565b80516126889160018d0191602090910190612bcc565b50612756611ed36126f38d8d600301805480602002602001604051908101604052809291908181526020018280548015611e5f576020028201919060005260206000209081546001600160a01b03168152600190910190602001808311611e4157505050505061291b565b611ece8d600301805480602002602001604051908101604052809291908181526020018280548015611ec4576020028201919060005260206000209081546001600160a01b03168152600190910190602001808311611ea657505050505061296f565b805161276c9160038d0191602090910190612bcc565b506001600160a01b038b16600090815260208b905260408120805460ff191681559061279b6001830182612c21565b6127a9600283016000612c68565b611eee600383016000612c68565b816127e7576127c58161194c565b156127e25760405162461bcd60e51b815260040161031390613229565b610dc4565b6127f08161194c565b1515600114610dc45760405162461bcd60e51b8152600401610313906130aa565b81600181111561281d57fe5b61284c5761282f338260400151612aa1565b156127e25760405162461bcd60e51b815260040161031390613102565b61285a338260600151612aa1565b15610dc45760405162461bcd60e51b815260040161031390613102565b336000908152600182016020908152604080832085845290915290205460ff1615610dc45760405162461bcd60e51b815260040161031390613196565b3360008181526001838101602090815260408084208785528252808420805460ff1916909317909255928252918390522054821115610dc4573360009081526020919091526040902055565b60008183101561291257506000610bd5565b50600192915050565b6000805b82518110156129645782818151811061293457fe5b60200260200101516001600160a01b0316846001600160a01b0316141561295c579050610bd5565b60010161291f565b505051600101919050565b6060600082516001600160401b038111801561298a57600080fd5b506040519080825280602002602001820160405280156129b4578160200160208202803683370190505b50905060005b83518110156129fe576129df8482815181106129d257fe5b6020026020010151612af7565b8282815181106129eb57fe5b60209081029190910101526001016129ba565b5092915050565b6060600082516001600160401b0381118015612a2057600080fd5b50604051908082528060200260200182016040528015612a4a578160200160208202803683370190505b50905060005b83518110156129fe57612a75848281518110612a6857fe5b6020026020010151612b03565b828281518110612a8157fe5b6001600160a01b0390921660209283029190910190910152600101612a50565b6000805b8251811015612aed57828181518110612aba57fe5b60200260200101516001600160a01b0316846001600160a01b03161415612ae5576001915050610bd5565b600101612aa5565b5060009392505050565b6001600160a01b031690565b90565b828054828255906000526020600020908101928215612b41579160200282015b82811115612b41578251825591602001919060010190612b26565b50612b4d929150612c82565b5090565b828054600181600116156101000203166002900490600052602060002090601f016020900481019282612b875760008555612b41565b82601f10612ba057805160ff1916838001178555612b41565b82800160010185558215612b415791820182811115612b41578251825591602001919060010190612b26565b828054828255906000526020600020908101928215612b41579160200282015b82811115612b4157825182546001600160a01b0319166001600160a01b03909116178255602090920191600190910190612bec565b50805460018160011615610100020316600290046000825580601f10612c475750612c65565b601f016020900490600052602060002090810190612c659190612c82565b50565b5080546000825590600052602060002090810190612c6591905b5b80821115612b4d5760008155600101612c83565b80356001600160a01b038116811461074c57600080fd5b600060208284031215612cbf578081fd5b6108da82612c97565b600080600060608486031215612cdc578182fd5b612ce584612c97565b92506020848101356001600160401b0380821115612d01578485fd5b818701915087601f830112612d14578485fd5b813581811115612d2057fe5b604051601f8201601f1916810185018381118282101715612d3d57fe5b60405281815283820185018a1015612d53578687fd5b81858501868301379081019093019490945250929592945050506040919091013590565b60008060408385031215612d89578182fd5b612d9283612c97565b946020939093013593505050565b600080600060608486031215612db4578283fd5b612dbd84612c97565b95602085013595506040909401359392505050565b600060208284031215612de3578081fd5b81356108da81613269565b600060208284031215612dff578081fd5b81516108da81613269565b60008060408385031215612e1c578182fd5b82359150612e2c60208401612c97565b90509250929050565b600080600060608486031215612e49578283fd5b83359250612e5960208501612c97565b9150604084013590509250925092565b6001600160a01b03169052565b6000815180845260208085019450808401835b83811015612eae5781516001600160a01b031687529582019590820190600101612e89565b509495945050505050565b60008151808452815b81811015612ede57602081850181015186830182015201612ec2565b81811115612eef5782602083870101525b50601f01601f19169290920160200192915050565b6001600160a01b0391909116815260200190565b6001600160a01b0392831681529116602082015260400190565b6000602082526108da6020830184612e76565b600060408252612f586040830185612e76565b602083820381850152818551808452828401915082838202850101838801865b83811015612fa657601f19878403018552612f94838351612eb9565b94860194925090850190600101612f78565b50909998505050505050505050565b6020808252825182820181905260009190848201906040850190845b81811015612fed57835183529284019291840191600101612fd1565b50909695505050505050565b901515815260200190565b6000602082526108da6020830184612eb9565b6000604082016040835281855460018082166000811461303e576001811461305c57613095565b60028304607f16855260ff1983166060880152608087019350613095565b6002830480865261306c8a61325d565b875b8281101561308b5781548a8201606001529084019060200161306e565b8901606001955050505b50505080925050506108da6020830184612e69565b60208082526003908201526245433760e81b604082015260600190565b6020808252600390820152621150cd60ea1b604082015260600190565b6020808252600490820152634543313960e01b604082015260600190565b60208082526003908201526245433560e81b604082015260600190565b6020808252600490820152631150cc4d60e21b604082015260600190565b60208082526003908201526245433360e81b604082015260600190565b6020808252600490820152634543313560e01b604082015260600190565b60208082526004908201526322a1989960e11b604082015260600190565b6020808252600490820152630454332360e41b604082015260600190565b60208082526003908201526245433960e81b604082015260600190565b60208082526003908201526245433160e81b604082015260600190565b60208082526003908201526208a86760eb1b604082015260600190565b6020808252600490820152630454331360e41b604082015260600190565b60208082526003908201526222a19b60e91b604082015260600190565b90815260200190565b918252602082015260400190565b60009081526020902090565b8015158114612c6557600080fdfea2646970667358221220a9a176223fd129b364e0378173190e43cce33247d5bedbbe678a5b049fe9d46a64736f6c63430007060033",
  "immutableReferences": {},
  "source": "// SPDX-License-Identifier: GPL-3.0\r\n\r\npragma solidity >=0.7.0 <0.9.0;\r\npragma experimental ABIEncoderV2;\r\n\r\n/**\r\n * @title Storage\r\n * @dev Store & retrieve value in a variable\r\n */\r\n\r\n import \"./Abstract/MultiSigCertificatesPool.sol\";\r\n import \"./Interfaces/IPublicPool.sol\";\r\n\r\n contract PublicCertificatesPool is MultiSigCertificatesPool, IPublicPool {\r\n\r\n     address _creator;\r\n     mapping(address => bool) _submitedByCreator;\r\n\r\n     //modifiers\r\n    modifier hasBeenSubmitted(bool YesOrNo, address provider){\r\n        if(false == YesOrNo) require(false == _submitedByCreator[provider], \"EC3\");\r\n        else require(true == _submitedByCreator[provider], \"EC4\");\r\n        _;\r\n    }\r\n\r\n     // Constructor\r\n    constructor(address[] memory owners,  uint256 minOwners) MultiSigCertificatesPool(owners, minOwners) payable {\r\n        _creator = msg.sender;\r\n    }\r\n\r\n    function addProvider(address provider, string memory providerInfo, uint nonce) external \r\n        isSomeoneSpecific(_creator)\r\n        hasBeenSubmitted(false, provider)\r\n        isNonceOK(nonce)\r\n    override\r\n    {\r\n        _Entities[_providerId]._entities[provider]._Info = providerInfo;\r\n        _submitedByCreator[provider] = true;\r\n        Library.AddNonce(nonce, _Nonces);\r\n    }\r\n\r\n    function validateProvider(address provider, uint nonce) external \r\n        hasBeenSubmitted(true, provider)\r\n    override\r\n    {\r\n        addEntity(provider, _Entities[_providerId]._entities[provider]._Info, _providerId, nonce);\r\n    }\r\n\r\n    function removeProvider(address provider, uint nonce) external override{\r\n       removeEntity(provider, _providerId, nonce); \r\n\r\n       if(false == Library.isEntity(_Entities[_providerId]._entities[provider])){\r\n            delete(_submitedByCreator[provider]);\r\n       }\r\n    }\r\n\r\n }",
  "sourcePath": "C:\\Users\\d-aam\\GitHub\\Certificates\\contracts\\PublicCertificatesPool.sol",
  "compiler": {
    "name": "solc",
    "version": "0.7.6+commit.7338295f.Emscripten.clang"
  },
  "schemaVersion": "3.3.4",
  "updatedAt": "2021-07-14T11:52:35.454Z",
  "devdoc": {
    "kind": "dev",
    "methods": {},
    "version": 1
  },
  "userdoc": {
    "kind": "user",
    "methods": {},
    "version": 1
  }
}