{
  "contractName": "PublicCertificatesPool",
  "abi": [
    {
      "inputs": [
        {
          "internalType": "address[]",
          "name": "owners",
          "type": "address[]"
        },
        {
          "internalType": "uint256",
          "name": "minOwners",
          "type": "uint256"
        },
        {
          "internalType": "address",
          "name": "managerContractAddress",
          "type": "address"
        }
      ],
      "stateMutability": "payable",
      "type": "constructor"
    },
    {
      "anonymous": false,
      "inputs": [
        {
          "indexed": false,
          "internalType": "address",
          "name": "",
          "type": "address"
        },
        {
          "indexed": false,
          "internalType": "address",
          "name": "",
          "type": "address"
        }
      ],
      "name": "_AddCertificateIdEvent",
      "type": "event"
    },
    {
      "anonymous": false,
      "inputs": [
        {
          "indexed": false,
          "internalType": "string",
          "name": "",
          "type": "string"
        },
        {
          "indexed": false,
          "internalType": "address",
          "name": "",
          "type": "address"
        }
      ],
      "name": "_AddEntityValidationIdEvent",
      "type": "event"
    },
    {
      "anonymous": false,
      "inputs": [
        {
          "indexed": false,
          "internalType": "address",
          "name": "",
          "type": "address"
        },
        {
          "indexed": false,
          "internalType": "address",
          "name": "",
          "type": "address"
        }
      ],
      "name": "_RemoveCertificateIdEvent",
      "type": "event"
    },
    {
      "anonymous": false,
      "inputs": [
        {
          "indexed": false,
          "internalType": "string",
          "name": "",
          "type": "string"
        },
        {
          "indexed": false,
          "internalType": "address",
          "name": "",
          "type": "address"
        }
      ],
      "name": "_RemoveEntityValidationIdEvent",
      "type": "event"
    },
    {
      "anonymous": false,
      "inputs": [
        {
          "indexed": false,
          "internalType": "address",
          "name": "",
          "type": "address"
        }
      ],
      "name": "_SendProposalId",
      "type": "event"
    },
    {
      "inputs": [
        {
          "internalType": "address",
          "name": "owner",
          "type": "address"
        },
        {
          "internalType": "string",
          "name": "ownerInfo",
          "type": "string"
        }
      ],
      "name": "addOwner",
      "outputs": [],
      "stateMutability": "nonpayable",
      "type": "function"
    },
    {
      "inputs": [
        {
          "internalType": "address",
          "name": "owner",
          "type": "address"
        }
      ],
      "name": "isOwner",
      "outputs": [
        {
          "internalType": "bool",
          "name": "",
          "type": "bool"
        }
      ],
      "stateMutability": "view",
      "type": "function"
    },
    {
      "inputs": [
        {
          "internalType": "address",
          "name": "provider",
          "type": "address"
        }
      ],
      "name": "isProvider",
      "outputs": [
        {
          "internalType": "bool",
          "name": "",
          "type": "bool"
        }
      ],
      "stateMutability": "view",
      "type": "function"
    },
    {
      "inputs": [
        {
          "internalType": "bytes32",
          "name": "CertificateHash",
          "type": "bytes32"
        },
        {
          "internalType": "address",
          "name": "holder",
          "type": "address"
        }
      ],
      "name": "removeCertificate",
      "outputs": [],
      "stateMutability": "nonpayable",
      "type": "function"
    },
    {
      "inputs": [
        {
          "internalType": "address",
          "name": "owner",
          "type": "address"
        }
      ],
      "name": "removeOwner",
      "outputs": [],
      "stateMutability": "nonpayable",
      "type": "function"
    },
    {
      "inputs": [],
      "name": "retrieveAllOwners",
      "outputs": [
        {
          "internalType": "address[]",
          "name": "",
          "type": "address[]"
        }
      ],
      "stateMutability": "view",
      "type": "function"
    },
    {
      "inputs": [],
      "name": "retrieveAllProviders",
      "outputs": [
        {
          "internalType": "address[]",
          "name": "",
          "type": "address[]"
        }
      ],
      "stateMutability": "view",
      "type": "function"
    },
    {
      "inputs": [
        {
          "internalType": "bytes32",
          "name": "CertificateHash",
          "type": "bytes32"
        },
        {
          "internalType": "address",
          "name": "holder",
          "type": "address"
        }
      ],
      "name": "retrieveCertificateProvider",
      "outputs": [
        {
          "internalType": "address",
          "name": "",
          "type": "address"
        }
      ],
      "stateMutability": "view",
      "type": "function"
    },
    {
      "inputs": [
        {
          "internalType": "address",
          "name": "holder",
          "type": "address"
        },
        {
          "internalType": "uint256",
          "name": "skipFirst",
          "type": "uint256"
        },
        {
          "internalType": "uint256",
          "name": "max",
          "type": "uint256"
        }
      ],
      "name": "retrieveCertificatesByHolder",
      "outputs": [
        {
          "internalType": "bytes32[]",
          "name": "",
          "type": "bytes32[]"
        }
      ],
      "stateMutability": "view",
      "type": "function"
    },
    {
      "inputs": [],
      "name": "retrieveMinOwners",
      "outputs": [
        {
          "internalType": "uint256",
          "name": "",
          "type": "uint256"
        }
      ],
      "stateMutability": "view",
      "type": "function"
    },
    {
      "inputs": [
        {
          "internalType": "address",
          "name": "owner",
          "type": "address"
        }
      ],
      "name": "retrieveOwner",
      "outputs": [
        {
          "internalType": "string",
          "name": "",
          "type": "string"
        },
        {
          "internalType": "bool",
          "name": "",
          "type": "bool"
        }
      ],
      "stateMutability": "view",
      "type": "function"
    },
    {
      "inputs": [
        {
          "internalType": "bool",
          "name": "addedORremove",
          "type": "bool"
        }
      ],
      "name": "retrievePendingOwners",
      "outputs": [
        {
          "internalType": "address[]",
          "name": "",
          "type": "address[]"
        },
        {
          "internalType": "string[]",
          "name": "",
          "type": "string[]"
        }
      ],
      "stateMutability": "view",
      "type": "function"
    },
    {
      "inputs": [
        {
          "internalType": "bool",
          "name": "addedORremove",
          "type": "bool"
        }
      ],
      "name": "retrievePendingProviders",
      "outputs": [
        {
          "internalType": "address[]",
          "name": "",
          "type": "address[]"
        },
        {
          "internalType": "string[]",
          "name": "",
          "type": "string[]"
        }
      ],
      "stateMutability": "view",
      "type": "function"
    },
    {
      "inputs": [
        {
          "internalType": "address",
          "name": "provider",
          "type": "address"
        }
      ],
      "name": "retrieveProvider",
      "outputs": [
        {
          "internalType": "string",
          "name": "",
          "type": "string"
        },
        {
          "internalType": "bool",
          "name": "",
          "type": "bool"
        }
      ],
      "stateMutability": "view",
      "type": "function"
    },
    {
      "inputs": [
        {
          "internalType": "address",
          "name": "holder",
          "type": "address"
        }
      ],
      "name": "retrieveTotalCertificatesByHolder",
      "outputs": [
        {
          "internalType": "uint256",
          "name": "",
          "type": "uint256"
        }
      ],
      "stateMutability": "view",
      "type": "function"
    },
    {
      "inputs": [
        {
          "internalType": "address",
          "name": "provider",
          "type": "address"
        },
        {
          "internalType": "string",
          "name": "providerInfo",
          "type": "string"
        }
      ],
      "name": "addProvider",
      "outputs": [],
      "stateMutability": "payable",
      "type": "function"
    },
    {
      "inputs": [
        {
          "internalType": "address",
          "name": "provider",
          "type": "address"
        }
      ],
      "name": "validateProvider",
      "outputs": [],
      "stateMutability": "nonpayable",
      "type": "function"
    },
    {
      "inputs": [
        {
          "internalType": "address",
          "name": "provider",
          "type": "address"
        }
      ],
      "name": "removeProvider",
      "outputs": [],
      "stateMutability": "nonpayable",
      "type": "function"
    },
    {
      "inputs": [
        {
          "internalType": "address",
          "name": "TreasuryAddress",
          "type": "address"
        }
      ],
      "name": "addTreasury",
      "outputs": [],
      "stateMutability": "nonpayable",
      "type": "function"
    },
    {
      "inputs": [
        {
          "internalType": "bytes32",
          "name": "CertificateHash",
          "type": "bytes32"
        },
        {
          "internalType": "address",
          "name": "holder",
          "type": "address"
        }
      ],
      "name": "addCertificate",
      "outputs": [],
      "stateMutability": "payable",
      "type": "function"
    }
  ],
  "bytecode": "0x600560c09081526427bbb732b960d91b60e0526080908152610140604052600861010090815267283937bb34b232b960c11b6101205260a05262000048906004906002620003e0565b50604051620036f6380380620036f68339810160408190526200006b9162000566565b8282818160026004805480602002602001604051908101604052809291908181526020016000905b8282101562000149578382906000526020600020018054620000b5906200065d565b80601f0160208091040260200160405190810160405280929190818152602001828054620000e3906200065d565b8015620001345780601f10620001085761010080835404028352916020019162000134565b820191906000526020600020905b8154815290600101906020018083116200011657829003601f168201915b50505050508152602001906001019062000093565b5050505060008451841115620001945760405162461bcd60e51b81526004016200018b9060208082526004908201526322a1989b60e11b604082015260600190565b60405180910390fd5b60008411620001cf5760405162461bcd60e51b81526004016200018b906020808252600490820152634543313760e01b604082015260600190565b815183146200020a5760405162461bcd60e51b81526004016200018b9060208082526004908201526308a8662760e31b604082015260600190565b60008181555b83811015620002895760028054600101815560005282516003908490839081106200023f576200023f620006c4565b6020908102919091018101518254600181018455600093845292829020815162000273949190910192919091019062000444565b508062000280816200069a565b91505062000210565b50600184905560005b8551811015620003ae576001600260005481548110620002b657620002b6620006c4565b90600052602060002090600402016000016000888481518110620002de57620002de620006c4565b60200260200101516001600160a01b03166001600160a01b0316815260200190815260200160002060000160006101000a81548160ff021916908315150217905550600260005481548110620003385762000338620006c4565b90600052602060002090600402016001018682815181106200035e576200035e620006c4565b60209081029190910181015182546001810184556000938452919092200180546001600160a01b0319166001600160a01b0390921691909117905580620003a5816200069a565b91505062000292565b5050600680546001600160a01b0319166001600160a01b03989098169790971790965550620006f09650505050505050565b82805482825590600052602060002090810192821562000432579160200282015b828111156200043257825180516200042191849160209091019062000444565b509160200191906001019062000401565b5062000440929150620004cf565b5090565b82805462000452906200065d565b90600052602060002090601f016020900481019282620004765760008555620004c1565b82601f106200049157805160ff1916838001178555620004c1565b82800160010185558215620004c1579182015b82811115620004c1578251825591602001919060010190620004a4565b5062000440929150620004f0565b8082111562000440576000620004e6828262000507565b50600101620004cf565b5b80821115620004405760008155600101620004f1565b50805462000515906200065d565b6000825580601f1062000526575050565b601f016020900490600052602060002090810190620005469190620004f0565b50565b80516001600160a01b03811681146200056157600080fd5b919050565b6000806000606084860312156200057c57600080fd5b83516001600160401b03808211156200059457600080fd5b818601915086601f830112620005a957600080fd5b8151602082821115620005c057620005c0620006da565b8160051b604051601f19603f83011681018181108682111715620005e857620005e8620006da565b604052838152828101945085830182870184018c10156200060857600080fd5b600096505b848710156200063657620006218162000549565b8652600196909601959483019483016200060d565b50809850505080880151955050505050620006546040850162000549565b90509250925092565b600181811c908216806200067257607f821691505b602082108114156200069457634e487b7160e01b600052602260045260246000fd5b50919050565b6000600019821415620006bd57634e487b7160e01b600052601160045260246000fd5b5060010190565b634e487b7160e01b600052603260045260246000fd5b634e487b7160e01b600052604160045260246000fd5b612ff680620007006000396000f3fe6080604052600436106100ef5760003560e01c8063173825d9146100f45780631ab807f81461011657806327a40b4b146101295780632f54bf6e146101495780633542758f1461017e578063375834991461019e57806358a1ba25146101cc57806365b973e5146101f95780636b074a07146102185780636b299604146102385780636b3a0fec146102665780636e4f9179146102865780636e55d2d4146102a857806377bc5a1f146102c85780638a355a57146102e8578063a73db28a14610308578063a93d5ed614610328578063c8cb38341461033d578063d0a4adfe1461035d578063fc000500146103b0575b600080fd5b34801561010057600080fd5b5061011461010f366004612911565b6103c3565b005b610114610124366004612aea565b610431565b34801561013557600080fd5b50610114610144366004612911565b6104a4565b34801561015557600080fd5b50610169610164366004612911565b61070f565b60405190151581526020015b60405180910390f35b34801561018a57600080fd5b5061011461019936600461292c565b610723565b3480156101aa57600080fd5b506101be6101b9366004612911565b610730565b604051610175929190612cc6565b3480156101d857600080fd5b506101ec6101e73660046129d1565b610748565b6040516101759190612c5a565b34801561020557600080fd5b506001545b604051908152602001610175565b34801561022457600080fd5b50610169610233366004612911565b6108ee565b34801561024457600080fd5b50610258610253366004612ab0565b6108fb565b604051610175929190612be8565b34801561027257600080fd5b50610258610281366004612ab0565b61090a565b34801561029257600080fd5b5061029b610918565b6040516101759190612bd5565b3480156102b457600080fd5b5061020a6102c3366004612911565b610929565b3480156102d457600080fd5b506101be6102e3366004612911565b610947565b3480156102f457600080fd5b50610114610303366004612911565b610957565b34801561031457600080fd5b50610114610323366004612aea565b610995565b34801561033457600080fd5b5061029b610c4a565b34801561034957600080fd5b50610114610358366004612911565b610c57565b34801561036957600080fd5b506103a3610378366004612aea565b6001600160a01b03908116600090815260056020908152604080832094835293905291909120541690565b6040516101759190612ba7565b6101146103be36600461292c565b610cc6565b60015460016103d3600054610e2f565b516103de9190612eed565b808211156104205760405162461bcd60e51b8152600401610417906020808252600490820152634543313960e01b604082015260600190565b60405180910390fd5b61042c83600054610f67565b505050565b600854604051637864992f60e11b81526001600160a01b039091169063f0c9325e90349061046490600290600401612c9e565b6000604051808303818588803b15801561047d57600080fd5b505af1158015610491573d6000803e3d6000fd5b50505050506104a0828261175b565b5050565b6001816001600160a01b03811660009081526007602052604090205460ff1615156001146104fa5760405162461bcd60e51b81526020600482015260036024820152621150cd60ea1b6044820152606401610417565b6105c983600260018154811061051257610512612f86565b600091825260208083206001600160a01b03891684526004909202909101905260409020600101805461054490612f04565b80601f016020809104026020016040519081016040528092919081815260200182805461057090612f04565b80156105bd5780601f10610592576101008083540402835291602001916105bd565b820191906000526020600020905b8154815290600101906020018083116105a057829003601f168201915b50505050506001611874565b6105d2836108ee565b15156001141561042c57600060026001815481106105f2576105f2612f86565b600091825260208083206001600160a01b038816845260049092029091019052604081206002015491505b8181101561070857600854600280546001600160a01b039092169163eb1e2a419190600190811061065057610650612f86565b600091825260208083206001600160a01b038b168452600490920290910190526040902060020180548490811061068957610689612f86565b60009182526020909120015460405160e083901b6001600160e01b03191681526001600160a01b03909116600482015260248101859052604401600060405180830381600087803b1580156106dd57600080fd5b505af11580156106f1573d6000803e3d6000fd5b50505050808061070090612f3f565b91505061061d565b5050505050565b600061071d82600054611f59565b92915050565b6104a08282600054611874565b6060600061073f836001612050565b91509150915091565b60608261075485610929565b1161076e57506040805160008152602081019091526108e7565b81808461077a87610929565b6107849190612eed565b10156107a1578361079486610929565b61079e9190612eed565b90505b6000816001600160401b038111156107bb576107bb612f9c565b6040519080825280602002602001820160405280156107e4578160200160208202803683370190505b506001600160a01b03871660009081526005602090815260408083206001018054825181850281018501909352808352949550929390929183018282801561084b57602002820191906000526020600020905b815481526020019060010190808311610837575b5050505050905060008060005b83518110156108de5787831061086d576108de565b8189111561088757610880600183612ed5565b91506108cc565b83818151811061089957610899612f86565b60200260200101518584815181106108b3576108b3612f86565b60209081029190910101526108c9600184612ed5565b92505b806108d681612f3f565b915050610858565b50929450505050505b9392505050565b600061071d826001611f59565b60608061073f836000546121e3565b60608061073f8360016121e3565b60606109246001610e2f565b905090565b6001600160a01b031660009081526005602052604090206001015490565b6060600061073f83600054612050565b610962816001610f67565b61096d816001611f59565b610992576001600160a01b0381166000908152600760205260409020805460ff191690555b50565b61099e336108ee565b15156001146109bf5760405162461bcd60e51b815260040161041790612dc8565b6001600160a01b03818116600090815260056020908152604080832086845290915290205482918491163314806109fe5750336001600160a01b038316145b610a335760405162461bcd60e51b8152600401610417906020808252600490820152631150cc4d60e21b604082015260600190565b6001600160a01b0380841660008181526005602081815260408084208a855280835281852054958552928252600190920180548351818402810184019094528084529490951694929391929190830182828015610aaf57602002820191906000526020600020905b815481526020019060010190808311610a9b575b5050505050905060005b8151811015610bd657818181518110610ad457610ad4612f86565b6020026020010151871415610bc4576001600160a01b038616600090815260056020526040908190209051635b28cf6360e01b815273__Library_______________________________91635b28cf6391610b39918591600190910190600401612e51565b60006040518083038186803b158015610b5157600080fd5b505af4158015610b65573d6000803e3d6000fd5b505050506040513d6000823e601f3d908101601f19168201604052610b8d9190810190612a04565b6001600160a01b03871660009081526005602090815260409091208251610bbe936001909201929190910190612779565b50610bd6565b80610bce81612f3f565b915050610ab9565b506001600160a01b03851660009081526005602090815260408083208984529091529081902080546001600160a01b0319169055517fd12847594abf0621035046f61129f2a9dc5093eb516c6c517ece306362ef6f1790610c3a9084908890612bbb565b60405180910390a1505050505050565b6060610924600054610e2f565b6006546001600160a01b0316610c6c81612465565b1515600114610ca35760405162461bcd60e51b815260206004820152600360248201526208a86760eb1b6044820152606401610417565b50600880546001600160a01b0319166001600160a01b0392909216919091179055565b6000826001600160a01b03811660009081526007602052604090205460ff1615610d185760405162461bcd60e51b815260206004820152600360248201526245433360e81b6044820152606401610417565b600854604051637864992f60e11b81526001600160a01b039091169063f0c9325e903490610d4b90600090600401612c9e565b6000604051808303818588803b158015610d6457600080fd5b505af1158015610d78573d6000803e3d6000fd5b5050505050826002600181548110610d9257610d92612f86565b600091825260208083206001600160a01b03891684526004909202909101815260409091208251610dcd9360019092019291909101906127c4565b506001600160a01b03841660009081526007602052604090819020805460ff19166001179055517fbaf065d025fe427c7c36f893bdec1c49e6c164c4a6531f4216f64e6e876a9a4f90610e21908690612ba7565b60405180910390a150505050565b60025460405163123bd07560e11b8152606091839173__Library_______________________________90632477a0ea90610e709085908590600401612e97565b60206040518083038186803b158015610e8857600080fd5b505af4158015610e9c573d6000803e3d6000fd5b505050506040513d601f19601f82011682018060405250810190610ec09190612acd565b1515600114610ee15760405162461bcd60e51b815260040161041790612de6565b60028481548110610ef457610ef4612f86565b9060005260206000209060040201600101805480602002602001604051908101604052809291908181526020018280548015610f5957602002820191906000526020600020905b81546001600160a01b03168152600190910190602001808311610f3b575b505050505092505050919050565b60025460405163123bd07560e11b815282919073__Library_______________________________90632477a0ea90610fa69085908590600401612e97565b60206040518083038186803b158015610fbe57600080fd5b505af4158015610fd2573d6000803e3d6000fd5b505050506040513d601f19601f82011682018060405250810190610ff69190612acd565b15156001146110175760405162461bcd60e51b815260040161041790612de6565b8361102433600054611f59565b15156001148061103c5750336001600160a01b038216145b6110715760405162461bcd60e51b8152600401610417906020808252600490820152630454331360e41b604082015260600190565b6001858561107f8282611f59565b15156001146110b65760405162461bcd60e51b815260206004820152600360248201526245433760e81b6044820152606401610417565b6001600288815481106110cb576110cb612f86565b600091825260208083206001600160a01b038d16845260049092029091018152604091829020825160808101909352805460ff1615158352600181018054919284019161111790612f04565b80601f016020809104026020016040519081016040528092919081815260200182805461114390612f04565b80156111905780601f1061116557610100808354040283529160200191611190565b820191906000526020600020905b81548152906001019060200180831161117357829003601f168201915b50505050508152602001600282018054806020026020016040519081016040528092919081815260200182805480156111f257602002820191906000526020600020905b81546001600160a01b031681526001909101906020018083116111d4575b505050505081526020016003820180548060200260200160405190810160405280929190818152602001828054801561125457602002820191906000526020600020905b81546001600160a01b03168152600190910190602001808311611236575b50505050508152505081600181111561126f5761126f612f70565b6112a357611281338260400151612488565b1561129e5760405162461bcd60e51b815260040161041790612dab565b6112ce565b6112b1338260600151612488565b156112ce5760405162461bcd60e51b815260040161041790612dab565b600289815481106112e1576112e1612f86565b600091825260208083206001600160a01b038e16845260049092029091019052604090206003015461135e576002898154811061132057611320612f86565b60009182526020808320600492909202909101600301805460018101825590835291200180546001600160a01b0319166001600160a01b038c161790555b6002898154811061137157611371612f86565b600091825260208083206001600160a01b038e168085526004909302018152604083206003018054600181018255908452922090910180546001600160a01b031916339081179091551480611407575061140760028a815481106113d7576113d7612f86565b600091825260208083206001600160a01b038f1684526004909202909101905260409020600301546001546124ee565b1561174f576115176114958b60028c8154811061142657611426612f86565b906000526020600020906004020160010180548060200260200160405190810160405280929190818152602001828054801561148b57602002820191906000526020600020905b81546001600160a01b0316815260019091019060200180831161146d575b5050505050612509565b60028b815481106114a8576114a8612f86565b906000526020600020906004020160010180548060200260200160405190810160405280929190818152602001828054801561150d57602002820191906000526020600020905b81546001600160a01b031681526001909101906020018083116114ef575b5050505050612526565b60028a8154811061152a5761152a612f86565b9060005260206000209060040201600101908051906020019061154e929190612837565b506116566115d68b60028c8154811061156957611569612f86565b906000526020600020906004020160030180548060200260200160405190810160405280929190818152602001828054801561148b576020028201919060005260206000209081546001600160a01b0316815260019091019060200180831161146d575050505050612509565b60028b815481106115e9576115e9612f86565b906000526020600020906004020160030180548060200260200160405190810160405280929190818152602001828054801561150d576020028201919060005260206000209081546001600160a01b031681526001909101906020018083116114ef575050505050612526565b60028a8154811061166957611669612f86565b9060005260206000209060040201600301908051906020019061168d929190612837565b50600289815481106116a1576116a1612f86565b600091825260208083206001600160a01b038e1684526004909202909101905260408120805460ff19168155906116db600183018261288c565b6116e96002830160006128c6565b6116f76003830160006128c6565b50507f1f62d535f971041db7bd8760bf0f1f9f476461558744a35c0d477b5ad6893e8960038a8154811061172d5761172d612f86565b906000526020600020018b604051611746929190612cea565b60405180910390a15b50505050505050505050565b611764336108ee565b15156001146117855760405162461bcd60e51b815260040161041790612dc8565b816001600160a01b0380831660009081526005602090815260408083208784529091529020548391859116156117e65760405162461bcd60e51b8152600401610417906020808252600490820152634543313560e01b604082015260600190565b6001600160a01b038416600090815260056020818152604080842089855280835281852080546001600160a01b031916339081179091559383526001908101805491820181558552919093200187905590517f601cb9a073dbfa468ef12878ee6c720641a49b76af7c16099e8c0a1ac3ca79b591611865918790612bbb565b60405180910390a15050505050565b60025460405163123bd07560e11b815282919073__Library_______________________________90632477a0ea906118b39085908590600401612e97565b60206040518083038186803b1580156118cb57600080fd5b505af41580156118df573d6000803e3d6000fd5b505050506040513d601f19601f820116820180604052508101906119039190612acd565b15156001146119245760405162461bcd60e51b815260040161041790612de6565b61193033600054611f59565b15156001146119675760405162461bcd60e51b815260206004820152600360248201526245433960e81b6044820152606401610417565b600085846119758282611f59565b156119a85760405162461bcd60e51b815260206004820152600360248201526222a19b60e91b6044820152606401610417565b6000600287815481106119bd576119bd612f86565b600091825260208083206001600160a01b038d16845260049092029091018152604091829020825160808101909352805460ff16151583526001810180549192840191611a0990612f04565b80601f0160208091040260200160405190810160405280929190818152602001828054611a3590612f04565b8015611a825780601f10611a5757610100808354040283529160200191611a82565b820191906000526020600020905b815481529060010190602001808311611a6557829003601f168201915b5050505050815260200160028201805480602002602001604051908101604052809291908181526020018280548015611ae457602002820191906000526020600020905b81546001600160a01b03168152600190910190602001808311611ac6575b5050505050815260200160038201805480602002602001604051908101604052809291908181526020018280548015611b4657602002820191906000526020600020905b81546001600160a01b03168152600190910190602001808311611b28575b505050505081525050816001811115611b6157611b61612f70565b611b9557611b73338260400151612488565b15611b905760405162461bcd60e51b815260040161041790612dab565b611bc0565b611ba3338260600151612488565b15611bc05760405162461bcd60e51b815260040161041790612dab565b60028881548110611bd357611bd3612f86565b600091825260208083206001600160a01b038e168452600490920290910190526040902060020154611ca0578860028981548110611c1357611c13612f86565b600091825260208083206001600160a01b038f1684526004909202909101815260409091208251611c4e9360019092019291909101906127c4565b5060028881548110611c6257611c62612f86565b60009182526020808320600492909202909101600201805460018101825590835291200180546001600160a01b0319166001600160a01b038c161790555b60028881548110611cb357611cb3612f86565b600091825260208083206001600160a01b038e168452600490920290910181526040822060029081018054600181018255908452919092200180546001600160a01b031916331790558054611d4391908a908110611d1357611d13612f86565b600091825260208083206001600160a01b038f1684526004909202909101905260409020600201546001546124ee565b1561174f57600160028981548110611d5d57611d5d612f86565b600091825260208083206001600160a01b038f168452600492909202909101905260409020805460ff19169115159190911790556002805489908110611da557611da5612f86565b60009182526020808320600160049093020182018054928301815583529091200180546001600160a01b038c166001600160a01b031990911617905560028054611eed91611e6d918d91908c908110611e0057611e00612f86565b906000526020600020906004020160020180548060200260200160405190810160405280929190818152602001828054801561148b576020028201919060005260206000209081546001600160a01b0316815260019091019060200180831161146d575050505050612509565b60028a81548110611e8057611e80612f86565b906000526020600020906004020160020180548060200260200160405190810160405280929190818152602001828054801561150d576020028201919060005260206000209081546001600160a01b031681526001909101906020018083116114ef575050505050612526565b60028981548110611f0057611f00612f86565b90600052602060002090600402016002019080519060200190611f24929190612837565b507f3c139d46a211844e248647688545a37c07c505c999c1232d1247c707dc0a91e26003898154811061172d5761172d612f86565b60025460405163123bd07560e11b8152600091839173__Library_______________________________90632477a0ea90611f9a9085908590600401612e97565b60206040518083038186803b158015611fb257600080fd5b505af4158015611fc6573d6000803e3d6000fd5b505050506040513d601f19601f82011682018060405250810190611fea9190612acd565b151560011461200b5760405162461bcd60e51b815260040161041790612de6565b6002848154811061201e5761201e612f86565b600091825260208083206001600160a01b038916845260049092029091019052604090205460ff169250505092915050565b60025460405163123bd07560e11b815260609160009184919073__Library_______________________________90632477a0ea906120959085908590600401612e97565b60206040518083038186803b1580156120ad57600080fd5b505af41580156120c1573d6000803e3d6000fd5b505050506040513d601f19601f820116820180604052508101906120e59190612acd565b15156001146121065760405162461bcd60e51b815260040161041790612de6565b6002858154811061211957612119612f86565b600091825260208083206001600160a01b038a168452600490920290910190526040902060010161214a8787611f59565b81805461215690612f04565b80601f016020809104026020016040519081016040528092919081815260200182805461218290612f04565b80156121cf5780601f106121a4576101008083540402835291602001916121cf565b820191906000526020600020905b8154815290600101906020018083116121b257829003601f168201915b505050505091509350935050509250929050565b60025460405163123bd07560e11b8152606091829184919073__Library_______________________________90632477a0ea906122279085908590600401612e97565b60206040518083038186803b15801561223f57600080fd5b505af4158015612253573d6000803e3d6000fd5b505050506040513d601f19601f820116820180604052508101906122779190612acd565b15156001146122985760405162461bcd60e51b815260040161041790612de6565b6060861561232457600286815481106122b3576122b3612f86565b906000526020600020906004020160020180548060200260200160405190810160405280929190818152602001828054801561231857602002820191906000526020600020905b81546001600160a01b031681526001909101906020018083116122fa575b505050505090506123a4565b6002868154811061233757612337612f86565b906000526020600020906004020160030180548060200260200160405190810160405280929190818152602001828054801561239c57602002820191906000526020600020905b81546001600160a01b0316815260019091019060200180831161237e575b505050505090505b6002546000906001600160401b038111156123c1576123c1612f9c565b6040519080825280602002602001820160405280156123f457816020015b60608152602001906001900390816123df5790505b50905060005b82518110156124575761242683828151811061241857612418612f86565b602002602001015189612050565b5082828151811061243957612439612f86565b6020026020010181905250808061244f90612f3f565b9150506123fa565b509097909650945050505050565b6000336001600160a01b038316141561248057506001919050565b506000919050565b6000805b82518110156124e4578281815181106124a7576124a7612f86565b60200260200101516001600160a01b0316846001600160a01b031614156124d257600191505061071d565b806124dc81612f3f565b91505061248c565b5060009392505050565b6000818310156125005750600061071d565b50600192915050565b60006108e76001600160a01b038416612521846125c5565b612676565b60606108e773__Library_______________________________635b28cf638561254f866125c5565b6040518363ffffffff1660e01b815260040161256c929190612e03565b60006040518083038186803b15801561258457600080fd5b505af4158015612598573d6000803e3d6000fd5b505050506040513d6000823e601f3d908101601f191682016040526125c09190810190612a04565b6126cb565b6060600082516001600160401b038111156125e2576125e2612f9c565b60405190808252806020026020018201604052801561260b578160200160208202803683370190505b50905060005b815181101561266f5783818151811061262c5761262c612f86565b60200260200101516001600160a01b031660001b82828151811061265257612652612f86565b60209081029190910101528061266781612f3f565b915050612611565b5092915050565b6000805b82518110156126bd5782818151811061269557612695612f86565b60200260200101518414156126ab57905061071d565b806126b581612f3f565b91505061267a565b5081516108e7906001612ed5565b6060600082516001600160401b038111156126e8576126e8612f9c565b604051908082528060200260200182016040528015612711578160200160208202803683370190505b50905060005b815181101561266f5783818151811061273257612732612f86565b602002602001015160001c82828151811061274f5761274f612f86565b6001600160a01b03909216602092830291909101909101528061277181612f3f565b915050612717565b8280548282559060005260206000209081019282156127b4579160200282015b828111156127b4578251825591602001919060010190612799565b506127c09291506128e0565b5090565b8280546127d090612f04565b90600052602060002090601f0160209004810192826127f257600085556127b4565b82601f1061280b57805160ff19168380011785556127b4565b828001600101855582156127b457918201828111156127b4578251825591602001919060010190612799565b8280548282559060005260206000209081019282156127b4579160200282015b828111156127b457825182546001600160a01b0319166001600160a01b03909116178255602090920191600190910190612857565b50805461289890612f04565b6000825580601f106128a8575050565b601f01602090049060005260206000209081019061099291906128e0565b508054600082559060005260206000209081019061099291905b5b808211156127c057600081556001016128e1565b80356001600160a01b038116811461290c57600080fd5b919050565b60006020828403121561292357600080fd5b6108e7826128f5565b6000806040838503121561293f57600080fd5b612948836128f5565b91506020838101356001600160401b038082111561296557600080fd5b818601915086601f83011261297957600080fd5b81358181111561298b5761298b612f9c565b61299d601f8201601f19168501612ea5565b915080825287848285010111156129b357600080fd5b80848401858401376000848284010152508093505050509250929050565b6000806000606084860312156129e657600080fd5b6129ef846128f5565b95602085013595506040909401359392505050565b60006020808385031215612a1757600080fd5b82516001600160401b0380821115612a2e57600080fd5b818501915085601f830112612a4257600080fd5b815181811115612a5457612a54612f9c565b8060051b9150612a65848301612ea5565b8181528481019084860184860187018a1015612a8057600080fd5b600095505b83861015612aa3578051835260019590950194918601918601612a85565b5098975050505050505050565b600060208284031215612ac257600080fd5b81356108e781612fb2565b600060208284031215612adf57600080fd5b81516108e781612fb2565b60008060408385031215612afd57600080fd5b82359150612b0d602084016128f5565b90509250929050565b600081518084526020808501945080840160005b83811015612b4f5781516001600160a01b031687529582019590820190600101612b2a565b509495945050505050565b6000815180845260005b81811015612b8057602081850181015186830182015201612b64565b81811115612b92576000602083870101525b50601f01601f19169290920160200192915050565b6001600160a01b0391909116815260200190565b6001600160a01b0392831681529116602082015260400190565b6020815260006108e76020830184612b16565b604081526000612bfb6040830185612b16565b6020838203818501528185518084528284019150828160051b85010183880160005b83811015612c4b57601f19878403018552612c39838351612b5a565b94860194925090850190600101612c1d565b50909998505050505050505050565b6020808252825182820181905260009190848201906040850190845b81811015612c9257835183529284019291840191600101612c76565b50909695505050505050565b6020810160038310612cc057634e487b7160e01b600052602160045260246000fd5b91905290565b604081526000612cd96040830185612b5a565b905082151560208301529392505050565b60408152600080845481600182811c915080831680612d0a57607f831692505b6020808410821415612d2a57634e487b7160e01b86526022600452602486fd5b6040880184905260608801828015612d495760018114612d5a57612d85565b60ff19871682528282019750612d85565b60008c81526020902060005b87811015612d7f57815484820152908601908401612d66565b83019850505b5050859650612d9e8189018a6001600160a01b03169052565b5050505050509392505050565b60208082526003908201526245433560e81b604082015260600190565b60208082526004908201526322a1989960e11b604082015260600190565b60208082526003908201526245433160e81b604082015260600190565b6000604082018483526020604081850152818551808452606086019150828701935060005b81811015612e4457845183529383019391830191600101612e28565b5090979650505050505050565b60006040820184835260206040818501528185548084526060860191508660005282600020935060005b81811015612e4457845483526001948501949284019201612e7b565b918252602082015260400190565b604051601f8201601f191681016001600160401b0381118282101715612ecd57612ecd612f9c565b604052919050565b60008219821115612ee857612ee8612f5a565b500190565b600082821015612eff57612eff612f5a565b500390565b600181811c90821680612f1857607f821691505b60208210811415612f3957634e487b7160e01b600052602260045260246000fd5b50919050565b6000600019821415612f5357612f53612f5a565b5060010190565b634e487b7160e01b600052601160045260246000fd5b634e487b7160e01b600052602160045260246000fd5b634e487b7160e01b600052603260045260246000fd5b634e487b7160e01b600052604160045260246000fd5b801515811461099257600080fdfea2646970667358221220333fdfe953a3c0b54a14e5f96bc527d79aea517595eeaf0dc2f587e88e823e8664736f6c63430008060033",
  "immutableReferences": {},
  "source": "// SPDX-License-Identifier: GPL-3.0\r\n\r\npragma solidity >=0.7.0 <0.9.0;\r\npragma experimental ABIEncoderV2;\r\n\r\n/**\r\n * @title Storage\r\n * @dev Store & retrieve value in a variable\r\n */\r\n\r\n import \"./Abstract/MultiSigCertificatesPool.sol\";\r\n import \"./Interfaces/IPublicPool.sol\";\r\n import \"./Treasury.sol\";\r\n\r\n contract PublicCertificatesPool is MultiSigCertificatesPool, IPublicPool {\r\n\r\n     // events\r\n    event _SendProposalId(address);\r\n\r\n     address _creator;\r\n     mapping(address => bool) _submited;\r\n     Treasury _Treasury;\r\n\r\n     //modifiers\r\n    modifier hasBeenSubmitted(bool YesOrNo, address provider){\r\n        if(false == YesOrNo) require(false == _submited[provider], \"EC3\");\r\n        else require(true == _submited[provider], \"EC4\");\r\n        _;\r\n    }\r\n\r\n     // Constructor\r\n    constructor(address[] memory owners,  uint256 minOwners, address managerContractAddress) MultiSigCertificatesPool(owners, minOwners) payable {\r\n        _creator = managerContractAddress;\r\n    }\r\n\r\n    function addProvider(address provider, string memory providerInfo) external \r\n        hasBeenSubmitted(false, provider)\r\n    override payable\r\n    {\r\n        _Treasury.pay{value:msg.value}(Library.Prices.NewProvider);\r\n        _Entities[_providerId]._entities[provider]._Info = providerInfo;\r\n        _submited[provider] = true;\r\n\r\n        emit _SendProposalId(provider);\r\n    }\r\n\r\n    function validateProvider(address provider) external \r\n        hasBeenSubmitted(true, provider)\r\n    override\r\n    {\r\n        addEntity(provider, _Entities[_providerId]._entities[provider]._Info, _providerId);\r\n\r\n        if(true == isProvider(provider)){\r\n            uint totalValidators = _Entities[_providerId]._entities[provider]._AddValidated.length;\r\n\r\n            for(uint i=0; i < totalValidators; i++){\r\n                _Treasury.getRefund(_Entities[_providerId]._entities[provider]._AddValidated[i], totalValidators);\r\n            }\r\n        }\r\n    }\r\n\r\n    function removeProvider(address provider) external override{\r\n       removeEntity(provider, _providerId); \r\n\r\n       if(false == isEntity(provider, _providerId)){\r\n            delete(_submited[provider]);\r\n       }\r\n    }\r\n\r\n    function addTreasury(address TreasuryAddress) external\r\n        isSomeoneSpecific(_creator)\r\n    {\r\n        _Treasury = Treasury(TreasuryAddress);\r\n    }\r\n\r\n    function addCertificate(bytes32 CertificateHash, address holder) external override payable\r\n    {\r\n        _Treasury.pay{value:msg.value}(Library.Prices.NewCertificate);\r\n        addCertificateInternal(CertificateHash, holder);\r\n    }\r\n\r\n }",
  "sourcePath": "C:\\Users\\d-aam\\GitHub\\Certificates\\contracts\\PublicCertificatesPool.sol",
  "compiler": {
    "name": "solc",
    "version": "0.8.6+commit.11564f7e.Emscripten.clang"
  },
  "schemaVersion": "3.3.4",
  "updatedAt": "2021-07-20T09:35:34.118Z",
  "devdoc": {
    "kind": "dev",
    "methods": {},
    "version": 1
  },
  "userdoc": {
    "kind": "user",
    "methods": {},
    "version": 1
  }
}