{
  "contractName": "PublicCertificatesPool",
  "abi": [
    {
      "inputs": [
        {
          "internalType": "address[]",
          "name": "owners",
          "type": "address[]"
        },
        {
          "internalType": "uint256",
          "name": "minOwners",
          "type": "uint256"
        }
      ],
      "stateMutability": "payable",
      "type": "constructor"
    },
    {
      "anonymous": false,
      "inputs": [
        {
          "indexed": false,
          "internalType": "address",
          "name": "",
          "type": "address"
        },
        {
          "indexed": false,
          "internalType": "address",
          "name": "",
          "type": "address"
        }
      ],
      "name": "_AddCertificateIdEvent",
      "type": "event"
    },
    {
      "anonymous": false,
      "inputs": [
        {
          "indexed": false,
          "internalType": "string",
          "name": "",
          "type": "string"
        },
        {
          "indexed": false,
          "internalType": "address",
          "name": "",
          "type": "address"
        }
      ],
      "name": "_AddEntityValidationIdEvent",
      "type": "event"
    },
    {
      "anonymous": false,
      "inputs": [
        {
          "indexed": false,
          "internalType": "address",
          "name": "",
          "type": "address"
        },
        {
          "indexed": false,
          "internalType": "address",
          "name": "",
          "type": "address"
        }
      ],
      "name": "_RemoveCertificateIdEvent",
      "type": "event"
    },
    {
      "anonymous": false,
      "inputs": [
        {
          "indexed": false,
          "internalType": "string",
          "name": "",
          "type": "string"
        },
        {
          "indexed": false,
          "internalType": "address",
          "name": "",
          "type": "address"
        }
      ],
      "name": "_RemoveEntityValidationIdEvent",
      "type": "event"
    },
    {
      "anonymous": false,
      "inputs": [
        {
          "indexed": false,
          "internalType": "string",
          "name": "",
          "type": "string"
        },
        {
          "indexed": false,
          "internalType": "address",
          "name": "",
          "type": "address"
        }
      ],
      "name": "_UpdateEntityValidationIdEvent",
      "type": "event"
    },
    {
      "inputs": [
        {
          "internalType": "bytes32",
          "name": "CertificateHash",
          "type": "bytes32"
        },
        {
          "internalType": "address",
          "name": "holder",
          "type": "address"
        }
      ],
      "name": "addCertificate",
      "outputs": [],
      "stateMutability": "nonpayable",
      "type": "function"
    },
    {
      "inputs": [
        {
          "internalType": "address",
          "name": "owner",
          "type": "address"
        },
        {
          "internalType": "string",
          "name": "ownerInfo",
          "type": "string"
        }
      ],
      "name": "addOwner",
      "outputs": [],
      "stateMutability": "nonpayable",
      "type": "function"
    },
    {
      "inputs": [
        {
          "internalType": "address",
          "name": "owner",
          "type": "address"
        }
      ],
      "name": "isOwner",
      "outputs": [
        {
          "internalType": "bool",
          "name": "",
          "type": "bool"
        }
      ],
      "stateMutability": "view",
      "type": "function"
    },
    {
      "inputs": [
        {
          "internalType": "address",
          "name": "provider",
          "type": "address"
        }
      ],
      "name": "isProvider",
      "outputs": [
        {
          "internalType": "bool",
          "name": "",
          "type": "bool"
        }
      ],
      "stateMutability": "view",
      "type": "function"
    },
    {
      "inputs": [
        {
          "internalType": "bytes32",
          "name": "CertificateHash",
          "type": "bytes32"
        },
        {
          "internalType": "address",
          "name": "holder",
          "type": "address"
        }
      ],
      "name": "removeCertificate",
      "outputs": [],
      "stateMutability": "nonpayable",
      "type": "function"
    },
    {
      "inputs": [
        {
          "internalType": "address",
          "name": "owner",
          "type": "address"
        }
      ],
      "name": "removeOwner",
      "outputs": [],
      "stateMutability": "nonpayable",
      "type": "function"
    },
    {
      "inputs": [],
      "name": "retrieveAllOwners",
      "outputs": [
        {
          "internalType": "address[]",
          "name": "",
          "type": "address[]"
        }
      ],
      "stateMutability": "view",
      "type": "function"
    },
    {
      "inputs": [],
      "name": "retrieveAllProviders",
      "outputs": [
        {
          "internalType": "address[]",
          "name": "",
          "type": "address[]"
        }
      ],
      "stateMutability": "view",
      "type": "function"
    },
    {
      "inputs": [
        {
          "internalType": "bytes32",
          "name": "CertificateHash",
          "type": "bytes32"
        },
        {
          "internalType": "address",
          "name": "holder",
          "type": "address"
        }
      ],
      "name": "retrieveCertificateProvider",
      "outputs": [
        {
          "internalType": "address",
          "name": "",
          "type": "address"
        }
      ],
      "stateMutability": "view",
      "type": "function"
    },
    {
      "inputs": [
        {
          "internalType": "address",
          "name": "provider",
          "type": "address"
        },
        {
          "internalType": "address",
          "name": "holder",
          "type": "address"
        },
        {
          "internalType": "uint256",
          "name": "skipFirst",
          "type": "uint256"
        },
        {
          "internalType": "uint256",
          "name": "max",
          "type": "uint256"
        }
      ],
      "name": "retrieveCertificatesByProviderAndHolder",
      "outputs": [
        {
          "internalType": "bytes32[]",
          "name": "",
          "type": "bytes32[]"
        }
      ],
      "stateMutability": "view",
      "type": "function"
    },
    {
      "inputs": [
        {
          "internalType": "address",
          "name": "owner",
          "type": "address"
        }
      ],
      "name": "retrieveOwner",
      "outputs": [
        {
          "internalType": "string",
          "name": "",
          "type": "string"
        }
      ],
      "stateMutability": "view",
      "type": "function"
    },
    {
      "inputs": [
        {
          "internalType": "address",
          "name": "provider",
          "type": "address"
        }
      ],
      "name": "retrieveProvider",
      "outputs": [
        {
          "internalType": "string",
          "name": "",
          "type": "string"
        }
      ],
      "stateMutability": "view",
      "type": "function"
    },
    {
      "inputs": [
        {
          "internalType": "address",
          "name": "holder",
          "type": "address"
        }
      ],
      "name": "retrieveTotalCertificatesByHolder",
      "outputs": [
        {
          "internalType": "uint256",
          "name": "",
          "type": "uint256"
        }
      ],
      "stateMutability": "view",
      "type": "function"
    },
    {
      "inputs": [
        {
          "internalType": "address",
          "name": "provider",
          "type": "address"
        },
        {
          "internalType": "address",
          "name": "holder",
          "type": "address"
        }
      ],
      "name": "retrieveTotalCertificatesByProviderAndHolder",
      "outputs": [
        {
          "internalType": "uint256",
          "name": "",
          "type": "uint256"
        }
      ],
      "stateMutability": "view",
      "type": "function"
    },
    {
      "inputs": [],
      "name": "retrieveTotalOwners",
      "outputs": [
        {
          "internalType": "uint256",
          "name": "",
          "type": "uint256"
        }
      ],
      "stateMutability": "view",
      "type": "function"
    },
    {
      "inputs": [],
      "name": "retrieveTotalProviders",
      "outputs": [
        {
          "internalType": "uint256",
          "name": "",
          "type": "uint256"
        }
      ],
      "stateMutability": "view",
      "type": "function"
    },
    {
      "inputs": [
        {
          "internalType": "address",
          "name": "owner",
          "type": "address"
        },
        {
          "internalType": "string",
          "name": "ownerInfo",
          "type": "string"
        }
      ],
      "name": "updateOwner",
      "outputs": [],
      "stateMutability": "nonpayable",
      "type": "function"
    },
    {
      "inputs": [
        {
          "internalType": "address",
          "name": "provider",
          "type": "address"
        },
        {
          "internalType": "string",
          "name": "providerInfo",
          "type": "string"
        }
      ],
      "name": "updateProvider",
      "outputs": [],
      "stateMutability": "nonpayable",
      "type": "function"
    },
    {
      "inputs": [
        {
          "internalType": "address",
          "name": "provider",
          "type": "address"
        },
        {
          "internalType": "string",
          "name": "providerInfo",
          "type": "string"
        }
      ],
      "name": "addProvider",
      "outputs": [],
      "stateMutability": "nonpayable",
      "type": "function"
    },
    {
      "inputs": [
        {
          "internalType": "address",
          "name": "provider",
          "type": "address"
        }
      ],
      "name": "validateProvider",
      "outputs": [],
      "stateMutability": "nonpayable",
      "type": "function"
    },
    {
      "inputs": [
        {
          "internalType": "address",
          "name": "provider",
          "type": "address"
        }
      ],
      "name": "removeProvider",
      "outputs": [],
      "stateMutability": "nonpayable",
      "type": "function"
    }
  ],
  "bytecode": "0x608060405260405180604001604052806040518060400160405280600581526020017f4f776e657200000000000000000000000000000000000000000000000000000081525081526020016040518060400160405280600881526020017f50726f7669646572000000000000000000000000000000000000000000000000815250815250600490600262000095929190620004a7565b5060405162006a0538038062006a058339818101604052810190620000bb919062000708565b8181818160026004805480602002602001604051908101604052809291908181526020016000905b82821015620001a5578382906000526020600020018054600181600116156101000203166002900480601f016020809104026020016040519081016040528092919081815260200182805460018160011615610100020316600290048015620001905780601f10620001645761010080835404028352916020019162000190565b820191906000526020600020905b8154815290600101906020018083116200017257829003601f168201915b505050505081526020019060010190620000e3565b5050505060008451841115620001f2576040517f08c379a0000000000000000000000000000000000000000000000000000000008152600401620001e9906200084e565b60405180910390fd5b6000841162000238576040517f08c379a00000000000000000000000000000000000000000000000000000000081526004016200022f9062000892565b60405180910390fd5b815183146200027e576040517f08c379a0000000000000000000000000000000000000000000000000000000008152600401620002759062000870565b60405180910390fd5b8060008190555060005b838110156200030f576003600181600181540180825580915050039060005260206000209050506002838281518110620002be57fe5b6020026020010151908060018154018082558091505060019003906000526020600020016000909190919091509080519060200190620003009291906200050e565b50808060010191505062000288565b508360018190555060005b8551811015620004565760016003600054815481106200033657fe5b906000526020600020906002020160000160008884815181106200035657fe5b602002602001015173ffffffffffffffffffffffffffffffffffffffff1673ffffffffffffffffffffffffffffffffffffffff16815260200190815260200160002060010160006101000a81548160ff021916908315150217905550600360005481548110620003c257fe5b9060005260206000209060020201600101868281518110620003e057fe5b60200260200101519080600181540180825580915050600190039060005260206000200160009091909190916101000a81548173ffffffffffffffffffffffffffffffffffffffff021916908373ffffffffffffffffffffffffffffffffffffffff16021790555080806001019150506200031a565b505050505050505033600660006101000a81548173ffffffffffffffffffffffffffffffffffffffff021916908373ffffffffffffffffffffffffffffffffffffffff16021790555050506200099c565b828054828255906000526020600020908101928215620004fb579160200282015b82811115620004fa578251829080519060200190620004e99291906200050e565b5091602001919060010190620004c8565b5b5090506200050a9190620005a5565b5090565b828054600181600116156101000203166002900490600052602060002090601f01602090048101928262000546576000855562000592565b82601f106200056157805160ff191683800117855562000592565b8280016001018555821562000592579182015b828111156200059157825182559160200191906001019062000574565b5b509050620005a19190620005cd565b5090565b5b80821115620005c95760008181620005bf9190620005ec565b50600101620005a6565b5090565b5b80821115620005e8576000816000905550600101620005ce565b5090565b50805460018160011615610100020316600290046000825580601f1062000614575062000635565b601f016020900490600052602060002090810190620006349190620005cd565b5b50565b60006200064f6200064984620008e8565b620008b4565b905080838252602082019050828560208602820111156200066f57600080fd5b60005b85811015620006a35781620006888882620006ad565b84526020840193506020830192505060018101905062000672565b5050509392505050565b600081519050620006be8162000968565b92915050565b600082601f830112620006d657600080fd5b8151620006e884826020860162000638565b91505092915050565b600081519050620007028162000982565b92915050565b600080604083850312156200071c57600080fd5b600083015167ffffffffffffffff8111156200073757600080fd5b6200074585828601620006c4565b92505060206200075885828601620006f1565b9150509250929050565b600062000771603c8362000917565b91507f4e6f7420656e6f756768206f776e6572732070726f766964656420746f206d6560008301527f657420746865206d696e4f776e65727320726571756972656d656e74000000006020830152604082019050919050565b6000620007d9601d8362000917565b91507f4e6f7420656e6f756768206f7220746f6f206d616e79206c6162656c730000006000830152602082019050919050565b60006200081b60188362000917565b91507f4174206c656173742031206d696e696d756d206f776e657200000000000000006000830152602082019050919050565b60006020820190508181036000830152620008698162000762565b9050919050565b600060208201905081810360008301526200088b81620007ca565b9050919050565b60006020820190508181036000830152620008ad816200080c565b9050919050565b6000604051905081810181811067ffffffffffffffff82111715620008de57620008dd62000966565b5b8060405250919050565b600067ffffffffffffffff82111562000906576200090562000966565b5b602082029050602081019050919050565b600082825260208201905092915050565b600062000935826200093c565b9050919050565b600073ffffffffffffffffffffffffffffffffffffffff82169050919050565b6000819050919050565bfe5b620009738162000928565b81146200097f57600080fd5b50565b6200098d816200095c565b81146200099957600080fd5b50565b61605980620009ac6000396000f3fe608060405234801561001057600080fd5b50600436106101375760003560e01c80636e55d2d4116100b8578063a73db28a1161007c578063a73db28a1461036e578063a93d5ed61461038a578063d0a4adfe146103a8578063d744d2f3146103d8578063eefe7681146103f6578063fc0005001461041457610137565b80636e55d2d4146102a657806377bc5a1f146102d65780638a355a5714610306578063925979fd146103225780639fc104361461035257610137565b80632f54bf6e116100ff5780632f54bf6e146101dc5780633542758f1461020c57806337583499146102285780636b074a07146102585780636e4f91791461028857610137565b80631270db7a1461013c5780631660c22a1461016c578063173825d9146101885780631ab807f8146101a457806327a40b4b146101c0575b600080fd5b610156600480360381019061015191906153d1565b610430565b6040516101639190615da2565b60405180910390f35b61018660048036038101906101819190615470565b6105ad565b005b6101a2600480360381019061019d91906153a8565b6105bd565b005b6101be60048036038101906101b991906154ed565b6105cc565b005b6101da60048036038101906101d591906153a8565b610882565b005b6101f660048036038101906101f191906153a8565b610ac6565b6040516102039190615bb5565b60405180910390f35b61022660048036038101906102219190615470565b610adb565b005b610242600480360381019061023d91906153a8565b610aec565b60405161024f9190615bd0565b60405180910390f35b610272600480360381019061026d91906153a8565b610b00565b60405161027f9190615bb5565b60405180910390f35b610290610b14565b60405161029d9190615b71565b60405180910390f35b6102c060048036038101906102bb91906153a8565b610b25565b6040516102cd9190615da2565b60405180910390f35b6102f060048036038101906102eb91906153a8565b610b74565b6040516102fd9190615bd0565b60405180910390f35b610320600480360381019061031b91906153a8565b610b89565b005b61033c6004803603810190610337919061540d565b610edd565b6040516103499190615b93565b60405180910390f35b61036c60048036038101906103679190615470565b611210565b005b610388600480360381019061038391906154ed565b611221565b005b610392611622565b60405161039f9190615b71565b60405180910390f35b6103c260048036038101906103bd91906154ed565b611634565b6040516103cf9190615b04565b60405180910390f35b6103e06116b2565b6040516103ed9190615da2565b60405180910390f35b6103fe6116c3565b60405161040b9190615da2565b60405180910390f35b61042e60048036038101906104299190615470565b6116d5565b005b600080600560008473ffffffffffffffffffffffffffffffffffffffff1673ffffffffffffffffffffffffffffffffffffffff1681526020019081526020016000206001018054806020026020016040519081016040528092919081815260200182805480156104bf57602002820191906000526020600020905b8154815260200190600101908083116104ab575b505050505090506000805b82518110156105a1578573ffffffffffffffffffffffffffffffffffffffff16600560008773ffffffffffffffffffffffffffffffffffffffff1673ffffffffffffffffffffffffffffffffffffffff168152602001908152602001600020600001600085848151811061053a57fe5b6020026020010151815260200190815260200160002060009054906101000a900473ffffffffffffffffffffffffffffffffffffffff1673ffffffffffffffffffffffffffffffffffffffff161415610594576001820191505b80806001019150506104ca565b50809250505092915050565b6105b982826001611975565b5050565b6105c981600054611b70565b50565b6105d533610b00565b1515600115151461061b576040517f08c379a000000000000000000000000000000000000000000000000000000000815260040161061290615c22565b60405180910390fd5b81602060ff16600010610663576040517f08c379a000000000000000000000000000000000000000000000000000000000815260040161065a90615d42565b60405180910390fd5b8183600560008373ffffffffffffffffffffffffffffffffffffffff1673ffffffffffffffffffffffffffffffffffffffff168152602001908152602001600020600001600082815260200190815260200160002060009054906101000a900473ffffffffffffffffffffffffffffffffffffffff1673ffffffffffffffffffffffffffffffffffffffff16600073ffffffffffffffffffffffffffffffffffffffff1614610747576040517f08c379a000000000000000000000000000000000000000000000000000000000815260040161073e90615d82565b60405180910390fd5b33600560008673ffffffffffffffffffffffffffffffffffffffff1673ffffffffffffffffffffffffffffffffffffffff168152602001908152602001600020600001600087815260200190815260200160002060006101000a81548173ffffffffffffffffffffffffffffffffffffffff021916908373ffffffffffffffffffffffffffffffffffffffff160217905550600560008573ffffffffffffffffffffffffffffffffffffffff1673ffffffffffffffffffffffffffffffffffffffff1681526020019081526020016000206001018590806001815401808255809150506001900390600052602060002001600090919091909150557f601cb9a073dbfa468ef12878ee6c720641a49b76af7c16099e8c0a1ac3ca79b53385604051610873929190615b1f565b60405180910390a15050505050565b60018181151560001515141561092a57600760008273ffffffffffffffffffffffffffffffffffffffff1673ffffffffffffffffffffffffffffffffffffffff16815260200190815260200160002060009054906101000a900460ff1615156000151514610925576040517f08c379a000000000000000000000000000000000000000000000000000000000815260040161091c90615d62565b60405180910390fd5b6109be565b600760008273ffffffffffffffffffffffffffffffffffffffff1673ffffffffffffffffffffffffffffffffffffffff16815260200190815260200160002060009054906101000a900460ff16151560011515146109bd576040517f08c379a00000000000000000000000000000000000000000000000000000000081526004016109b490615c62565b60405180910390fd5b5b610ac18360036001815481106109d057fe5b906000526020600020906002020160000160008673ffffffffffffffffffffffffffffffffffffffff1673ffffffffffffffffffffffffffffffffffffffff1681526020019081526020016000206002018054600181600116156101000203166002900480601f016020809104026020016040519081016040528092919081815260200182805460018160011615610100020316600290048015610ab55780601f10610a8a57610100808354040283529160200191610ab5565b820191906000526020600020905b815481529060010190602001808311610a9857829003601f168201915b5050505050600161203f565b505050565b6000610ad4826000546124d8565b9050919050565b610ae8828260005461203f565b5050565b6060610af98260016128a3565b9050919050565b6000610b0d8260016124d8565b9050919050565b6060610b2060016129a9565b905090565b6000600560008373ffffffffffffffffffffffffffffffffffffffff1673ffffffffffffffffffffffffffffffffffffffff168152602001908152602001600020600101805490509050919050565b6060610b82826000546128a3565b9050919050565b610b94816001611b70565b610e7e6003600181548110610ba557fe5b906000526020600020906002020160000160008373ffffffffffffffffffffffffffffffffffffffff1673ffffffffffffffffffffffffffffffffffffffff1681526020019081526020016000206040518060e0016040529081600082015481526020016001820160009054906101000a900460ff16151515158152602001600282018054600181600116156101000203166002900480601f016020809104026020016040519081016040528092919081815260200182805460018160011615610100020316600290048015610cbc5780601f10610c9157610100808354040283529160200191610cbc565b820191906000526020600020905b815481529060010190602001808311610c9f57829003601f168201915b505050505081526020016003820154815260200160048201805480602002602001604051908101604052809291908181526020018280548015610d5457602002820191906000526020600020905b8160009054906101000a900473ffffffffffffffffffffffffffffffffffffffff1673ffffffffffffffffffffffffffffffffffffffff1681526020019060010190808311610d0a575b5050505050815260200160058201805480602002602001604051908101604052809291908181526020018280548015610de257602002820191906000526020600020905b8160009054906101000a900473ffffffffffffffffffffffffffffffffffffffff1673ffffffffffffffffffffffffffffffffffffffff1681526020019060010190808311610d98575b5050505050815260200160068201805480602002602001604051908101604052809291908181526020018280548015610e7057602002820191906000526020600020905b8160009054906101000a900473ffffffffffffffffffffffffffffffffffffffff1673ffffffffffffffffffffffffffffffffffffffff1681526020019060010190808311610e26575b505050505081525050612aad565b1515600015151415610eda57600760008273ffffffffffffffffffffffffffffffffffffffff1673ffffffffffffffffffffffffffffffffffffffff16815260200190815260200160002060006101000a81549060ff02191690555b50565b606082600560008673ffffffffffffffffffffffffffffffffffffffff1673ffffffffffffffffffffffffffffffffffffffff1681526020019081526020016000206001018054905073__Library_______________________________632477a0ea83836040518363ffffffff1660e01b8152600401610f5f929190615dbd565b60206040518083038186803b158015610f7757600080fd5b505af4158015610f8b573d6000803e3d6000fd5b505050506040513d601f19601f82011682018060405250810190610faf91906154c4565b15156001151514610ff5576040517f08c379a0000000000000000000000000000000000000000000000000000000008152600401610fec90615c42565b60405180910390fd5b60008467ffffffffffffffff8111801561100e57600080fd5b5060405190808252806020026020018201604052801561103d5781602001602082028036833780820191505090505b5090506000600560008973ffffffffffffffffffffffffffffffffffffffff1673ffffffffffffffffffffffffffffffffffffffff1681526020019081526020016000206001018054806020026020016040519081016040528092919081815260200182805480156110ce57602002820191906000526020600020905b8154815260200190600101908083116110ba575b5050505050905060008060005b83518110156111fe578883106110f0576111fe565b8b73ffffffffffffffffffffffffffffffffffffffff16600560008d73ffffffffffffffffffffffffffffffffffffffff1673ffffffffffffffffffffffffffffffffffffffff168152602001908152602001600020600001600086848151811061115757fe5b6020026020010151815260200190815260200160002060009054906101000a900473ffffffffffffffffffffffffffffffffffffffff1673ffffffffffffffffffffffffffffffffffffffff1614156111f157818a11156111bd576001820191506111f0565b8381815181106111c957fe5b60200260200101518584815181106111dd57fe5b6020026020010181815250506001830192505b5b80806001019150506110db565b50839650505050505050949350505050565b61121d8282600054611975565b5050565b61122a33610b00565b15156001151514611270576040517f08c379a000000000000000000000000000000000000000000000000000000000815260040161126790615c22565b60405180910390fd5b8082600560008373ffffffffffffffffffffffffffffffffffffffff1673ffffffffffffffffffffffffffffffffffffffff168152602001908152602001600020600001600082815260200190815260200160002060009054906101000a900473ffffffffffffffffffffffffffffffffffffffff1673ffffffffffffffffffffffffffffffffffffffff163373ffffffffffffffffffffffffffffffffffffffff16148061134a57508173ffffffffffffffffffffffffffffffffffffffff163373ffffffffffffffffffffffffffffffffffffffff16145b611389576040517f08c379a000000000000000000000000000000000000000000000000000000000815260040161138090615d22565b60405180910390fd5b6000600560008573ffffffffffffffffffffffffffffffffffffffff1673ffffffffffffffffffffffffffffffffffffffff168152602001908152602001600020600001600086815260200190815260200160002060009054906101000a900473ffffffffffffffffffffffffffffffffffffffff1690506000600560008673ffffffffffffffffffffffffffffffffffffffff1673ffffffffffffffffffffffffffffffffffffffff16815260200190815260200160002060010180548060200260200160405190810160405280929190818152602001828054801561148f57602002820191906000526020600020905b81548152602001906001019080831161147b575b5050505050905060005b815181101561156a578181815181106114ae57fe5b602002602001015187141561155d5761155781600560008973ffffffffffffffffffffffffffffffffffffffff1673ffffffffffffffffffffffffffffffffffffffff16815260200190815260200160002060010180548060200260200160405190810160405280929190818152602001828054801561154d57602002820191906000526020600020905b815481526020019060010190808311611539575b5050505050612abb565b5061156a565b8080600101915050611499565b50600560008673ffffffffffffffffffffffffffffffffffffffff1673ffffffffffffffffffffffffffffffffffffffff168152602001908152602001600020600001600087815260200190815260200160002060006101000a81549073ffffffffffffffffffffffffffffffffffffffff02191690557fd12847594abf0621035046f61129f2a9dc5093eb516c6c517ece306362ef6f178286604051611612929190615b48565b60405180910390a1505050505050565b606061162f6000546129a9565b905090565b6000600560008373ffffffffffffffffffffffffffffffffffffffff1673ffffffffffffffffffffffffffffffffffffffff168152602001908152602001600020600001600084815260200190815260200160002060009054906101000a900473ffffffffffffffffffffffffffffffffffffffff16905092915050565b60006116be6001612c08565b905090565b60006116d0600054612c08565b905090565b600660009054906101000a900473ffffffffffffffffffffffffffffffffffffffff168073ffffffffffffffffffffffffffffffffffffffff163373ffffffffffffffffffffffffffffffffffffffff1614611766576040517f08c379a000000000000000000000000000000000000000000000000000000000815260040161175d90615d02565b60405180910390fd5b60008381151560001515141561180e57600760008273ffffffffffffffffffffffffffffffffffffffff1673ffffffffffffffffffffffffffffffffffffffff16815260200190815260200160002060009054906101000a900460ff1615156000151514611809576040517f08c379a000000000000000000000000000000000000000000000000000000000815260040161180090615d62565b60405180910390fd5b6118a2565b600760008273ffffffffffffffffffffffffffffffffffffffff1673ffffffffffffffffffffffffffffffffffffffff16815260200190815260200160002060009054906101000a900460ff16151560011515146118a1576040517f08c379a000000000000000000000000000000000000000000000000000000000815260040161189890615c62565b60405180910390fd5b5b8360036001815481106118b157fe5b906000526020600020906002020160000160008773ffffffffffffffffffffffffffffffffffffffff1673ffffffffffffffffffffffffffffffffffffffff16815260200190815260200160002060020190805190602001906119159291906151d8565b506001600760008773ffffffffffffffffffffffffffffffffffffffff1673ffffffffffffffffffffffffffffffffffffffff16815260200190815260200160002060006101000a81548160ff0219169083151502179055505050505050565b8060038054905073__Library_______________________________632477a0ea83836040518363ffffffff1660e01b81526004016119b5929190615dbd565b60206040518083038186803b1580156119cd57600080fd5b505af41580156119e1573d6000803e3d6000fd5b505050506040513d601f19601f82011682018060405250810190611a0591906154c4565b15156001151514611a4b576040517f08c379a0000000000000000000000000000000000000000000000000000000008152600401611a4290615c42565b60405180910390fd5b611a5433610ac6565b15156001151514611a9a576040517f08c379a0000000000000000000000000000000000000000000000000000000008152600401611a9190615cc2565b60405180910390fd5b6000611ac08660038681548110611aad57fe5b9060005260206000209060020201612d0c565b9050611aea868660038781548110611ad457fe5b9060005260206000209060020201600154613030565b60018101611b128760038781548110611aff57fe5b9060005260206000209060020201612d0c565b1415611b68577fddf8a9c2d29b02b191b0a29b7a0f698bfd4655230a23853e2af123ab0b1188d760028581548110611b4657fe5b9060005260206000200187604051611b5f929190615bf2565b60405180910390a15b505050505050565b8060038054905073__Library_______________________________632477a0ea83836040518363ffffffff1660e01b8152600401611bb0929190615dbd565b60206040518083038186803b158015611bc857600080fd5b505af4158015611bdc573d6000803e3d6000fd5b505050506040513d601f19601f82011682018060405250810190611c0091906154c4565b15156001151514611c46576040517f08c379a0000000000000000000000000000000000000000000000000000000008152600401611c3d90615c42565b60405180910390fd5b83611c5033610ac6565b1515600115151480611c8d57508073ffffffffffffffffffffffffffffffffffffffff163373ffffffffffffffffffffffffffffffffffffffff16145b611ccc576040517f08c379a0000000000000000000000000000000000000000000000000000000008152600401611cc390615c82565b60405180910390fd5b611cf38560038681548110611cdd57fe5b90600052602060002090600202016001546137d8565b611fdc60038581548110611d0357fe5b906000526020600020906002020160000160008773ffffffffffffffffffffffffffffffffffffffff1673ffffffffffffffffffffffffffffffffffffffff1681526020019081526020016000206040518060e0016040529081600082015481526020016001820160009054906101000a900460ff16151515158152602001600282018054600181600116156101000203166002900480601f016020809104026020016040519081016040528092919081815260200182805460018160011615610100020316600290048015611e1a5780601f10611def57610100808354040283529160200191611e1a565b820191906000526020600020905b815481529060010190602001808311611dfd57829003601f168201915b505050505081526020016003820154815260200160048201805480602002602001604051908101604052809291908181526020018280548015611eb257602002820191906000526020600020905b8160009054906101000a900473ffffffffffffffffffffffffffffffffffffffff1673ffffffffffffffffffffffffffffffffffffffff1681526020019060010190808311611e68575b5050505050815260200160058201805480602002602001604051908101604052809291908181526020018280548015611f4057602002820191906000526020600020905b8160009054906101000a900473ffffffffffffffffffffffffffffffffffffffff1673ffffffffffffffffffffffffffffffffffffffff1681526020019060010190808311611ef6575b5050505050815260200160068201805480602002602001604051908101604052809291908181526020018280548015611fce57602002820191906000526020600020905b8160009054906101000a900473ffffffffffffffffffffffffffffffffffffffff1673ffffffffffffffffffffffffffffffffffffffff1681526020019060010190808311611f84575b505050505081525050612aad565b1515600015151415612038577f1f62d535f971041db7bd8760bf0f1f9f476461558744a35c0d477b5ad6893e896002858154811061201657fe5b906000526020600020018660405161202f929190615bf2565b60405180910390a15b5050505050565b8060038054905073__Library_______________________________632477a0ea83836040518363ffffffff1660e01b815260040161207f929190615dbd565b60206040518083038186803b15801561209757600080fd5b505af41580156120ab573d6000803e3d6000fd5b505050506040513d601f19601f820116820180604052508101906120cf91906154c4565b15156001151514612115576040517f08c379a000000000000000000000000000000000000000000000000000000000815260040161210c90615c42565b60405180910390fd5b61211e33610ac6565b15156001151514612164576040517f08c379a000000000000000000000000000000000000000000000000000000000815260040161215b90615cc2565b60405180910390fd5b61218c85856003868154811061217657fe5b9060005260206000209060020201600154613fe1565b6124756003848154811061219c57fe5b906000526020600020906002020160000160008773ffffffffffffffffffffffffffffffffffffffff1673ffffffffffffffffffffffffffffffffffffffff1681526020019081526020016000206040518060e0016040529081600082015481526020016001820160009054906101000a900460ff16151515158152602001600282018054600181600116156101000203166002900480601f0160208091040260200160405190810160405280929190818152602001828054600181600116156101000203166002900480156122b35780601f10612288576101008083540402835291602001916122b3565b820191906000526020600020905b81548152906001019060200180831161229657829003601f168201915b50505050508152602001600382015481526020016004820180548060200260200160405190810160405280929190818152602001828054801561234b57602002820191906000526020600020905b8160009054906101000a900473ffffffffffffffffffffffffffffffffffffffff1673ffffffffffffffffffffffffffffffffffffffff1681526020019060010190808311612301575b50505050508152602001600582018054806020026020016040519081016040528092919081815260200182805480156123d957602002820191906000526020600020905b8160009054906101000a900473ffffffffffffffffffffffffffffffffffffffff1673ffffffffffffffffffffffffffffffffffffffff168152602001906001019080831161238f575b505050505081526020016006820180548060200260200160405190810160405280929190818152602001828054801561246757602002820191906000526020600020905b8160009054906101000a900473ffffffffffffffffffffffffffffffffffffffff1673ffffffffffffffffffffffffffffffffffffffff168152602001906001019080831161241d575b505050505081525050612aad565b15156001151514156124d1577f3c139d46a211844e248647688545a37c07c505c999c1232d1247c707dc0a91e2600284815481106124af57fe5b90600052602060002001866040516124c8929190615bf2565b60405180910390a15b5050505050565b60008160038054905073__Library_______________________________632477a0ea83836040518363ffffffff1660e01b815260040161251a929190615dbd565b60206040518083038186803b15801561253257600080fd5b505af4158015612546573d6000803e3d6000fd5b505050506040513d601f19601f8201168201806040525081019061256a91906154c4565b151560011515146125b0576040517f08c379a00000000000000000000000000000000000000000000000000000000081526004016125a790615c42565b60405180910390fd5b612899600385815481106125c057fe5b906000526020600020906002020160000160008773ffffffffffffffffffffffffffffffffffffffff1673ffffffffffffffffffffffffffffffffffffffff1681526020019081526020016000206040518060e0016040529081600082015481526020016001820160009054906101000a900460ff16151515158152602001600282018054600181600116156101000203166002900480601f0160208091040260200160405190810160405280929190818152602001828054600181600116156101000203166002900480156126d75780601f106126ac576101008083540402835291602001916126d7565b820191906000526020600020905b8154815290600101906020018083116126ba57829003601f168201915b50505050508152602001600382015481526020016004820180548060200260200160405190810160405280929190818152602001828054801561276f57602002820191906000526020600020905b8160009054906101000a900473ffffffffffffffffffffffffffffffffffffffff1673ffffffffffffffffffffffffffffffffffffffff1681526020019060010190808311612725575b50505050508152602001600582018054806020026020016040519081016040528092919081815260200182805480156127fd57602002820191906000526020600020905b8160009054906101000a900473ffffffffffffffffffffffffffffffffffffffff1673ffffffffffffffffffffffffffffffffffffffff16815260200190600101908083116127b3575b505050505081526020016006820180548060200260200160405190810160405280929190818152602001828054801561288b57602002820191906000526020600020905b8160009054906101000a900473ffffffffffffffffffffffffffffffffffffffff1673ffffffffffffffffffffffffffffffffffffffff1681526020019060010190808311612841575b505050505081525050612aad565b9250505092915050565b60608160038054905073__Library_______________________________632477a0ea83836040518363ffffffff1660e01b81526004016128e5929190615dbd565b60206040518083038186803b1580156128fd57600080fd5b505af4158015612911573d6000803e3d6000fd5b505050506040513d601f19601f8201168201806040525081019061293591906154c4565b1515600115151461297b576040517f08c379a000000000000000000000000000000000000000000000000000000000815260040161297290615c42565b60405180910390fd5b61299f856003868154811061298c57fe5b90600052602060002090600202016148ad565b9250505092915050565b60608160038054905073__Library_______________________________632477a0ea83836040518363ffffffff1660e01b81526004016129eb929190615dbd565b60206040518083038186803b158015612a0357600080fd5b505af4158015612a17573d6000803e3d6000fd5b505050506040513d601f19601f82011682018060405250810190612a3b91906154c4565b15156001151514612a81576040517f08c379a0000000000000000000000000000000000000000000000000000000008152600401612a7890615c42565b60405180910390fd5b612aa460038581548110612a9157fe5b9060005260206000209060020201614c69565b92505050919050565b600081602001519050919050565b606082825173__Library_______________________________632477a0ea83836040518363ffffffff1660e01b8152600401612af9929190615dbd565b60206040518083038186803b158015612b1157600080fd5b505af4158015612b25573d6000803e3d6000fd5b505050506040513d601f19601f82011682018060405250810190612b4991906154c4565b15156001151514612b8f576040517f08c379a0000000000000000000000000000000000000000000000000000000008152600401612b8690615c42565b60405180910390fd5b60008590505b6001855103811015612bdd57846001820181518110612bb057fe5b6020026020010151858281518110612bc457fe5b6020026020010181815250508080600101915050612b95565b5083600185510381518110612bee57fe5b602002602001016000801916815250839250505092915050565b60008160038054905073__Library_______________________________632477a0ea83836040518363ffffffff1660e01b8152600401612c4a929190615dbd565b60206040518083038186803b158015612c6257600080fd5b505af4158015612c76573d6000803e3d6000fd5b505050506040513d601f19601f82011682018060405250810190612c9a91906154c4565b15156001151514612ce0576040517f08c379a0000000000000000000000000000000000000000000000000000000008152600401612cd790615c42565b60405180910390fd5b612d0360038581548110612cf057fe5b9060005260206000209060020201614de7565b92505050919050565b600060018260000160008573ffffffffffffffffffffffffffffffffffffffff1673ffffffffffffffffffffffffffffffffffffffff1681526020019081526020016000206040518060e0016040529081600082015481526020016001820160009054906101000a900460ff16151515158152602001600282018054600181600116156101000203166002900480601f016020809104026020016040519081016040528092919081815260200182805460018160011615610100020316600290048015612e1a5780601f10612def57610100808354040283529160200191612e1a565b820191906000526020600020905b815481529060010190602001808311612dfd57829003601f168201915b505050505081526020016003820154815260200160048201805480602002602001604051908101604052809291908181526020018280548015612eb257602002820191906000526020600020905b8160009054906101000a900473ffffffffffffffffffffffffffffffffffffffff1673ffffffffffffffffffffffffffffffffffffffff1681526020019060010190808311612e68575b5050505050815260200160058201805480602002602001604051908101604052809291908181526020018280548015612f4057602002820191906000526020600020905b8160009054906101000a900473ffffffffffffffffffffffffffffffffffffffff1673ffffffffffffffffffffffffffffffffffffffff1681526020019060010190808311612ef6575b5050505050815260200160068201805480602002602001604051908101604052809291908181526020018280548015612fce57602002820191906000526020600020905b8160009054906101000a900473ffffffffffffffffffffffffffffffffffffffff1673ffffffffffffffffffffffffffffffffffffffff1681526020019060010190808311612f84575b505050505081525050612fe18282614e81565b8360000160008673ffffffffffffffffffffffffffffffffffffffff1673ffffffffffffffffffffffffffffffffffffffff168152602001908152602001600020600301549250505092915050565b60018260000160008673ffffffffffffffffffffffffffffffffffffffff1673ffffffffffffffffffffffffffffffffffffffff1681526020019081526020016000206040518060e0016040529081600082015481526020016001820160009054906101000a900460ff16151515158152602001600282018054600181600116156101000203166002900480601f01602080910402602001604051908101604052809291908181526020018280546001816001161561010002031660029004801561313c5780601f106131115761010080835404028352916020019161313c565b820191906000526020600020905b81548152906001019060200180831161311f57829003601f168201915b5050505050815260200160038201548152602001600482018054806020026020016040519081016040528092919081815260200182805480156131d457602002820191906000526020600020905b8160009054906101000a900473ffffffffffffffffffffffffffffffffffffffff1673ffffffffffffffffffffffffffffffffffffffff168152602001906001019080831161318a575b505050505081526020016005820180548060200260200160405190810160405280929190818152602001828054801561326257602002820191906000526020600020905b8160009054906101000a900473ffffffffffffffffffffffffffffffffffffffff1673ffffffffffffffffffffffffffffffffffffffff1681526020019060010190808311613218575b50505050508152602001600682018054806020026020016040519081016040528092919081815260200182805480156132f057602002820191906000526020600020905b8160009054906101000a900473ffffffffffffffffffffffffffffffffffffffff1673ffffffffffffffffffffffffffffffffffffffff16815260200190600101908083116132a6575b5050505050815250506133038282614e81565b60018460000160008873ffffffffffffffffffffffffffffffffffffffff1673ffffffffffffffffffffffffffffffffffffffff1681526020019081526020016000206040518060e0016040529081600082015481526020016001820160009054906101000a900460ff16151515158152602001600282018054600181600116156101000203166002900480601f01602080910402602001604051908101604052809291908181526020018280546001816001161561010002031660029004801561340f5780601f106133e45761010080835404028352916020019161340f565b820191906000526020600020905b8154815290600101906020018083116133f257829003601f168201915b5050505050815260200160038201548152602001600482018054806020026020016040519081016040528092919081815260200182805480156134a757602002820191906000526020600020905b8160009054906101000a900473ffffffffffffffffffffffffffffffffffffffff1673ffffffffffffffffffffffffffffffffffffffff168152602001906001019080831161345d575b505050505081526020016005820180548060200260200160405190810160405280929190818152602001828054801561353557602002820191906000526020600020905b8160009054906101000a900473ffffffffffffffffffffffffffffffffffffffff1673ffffffffffffffffffffffffffffffffffffffff16815260200190600101908083116134eb575b50505050508152602001600682018054806020026020016040519081016040528092919081815260200182805480156135c357602002820191906000526020600020905b8160009054906101000a900473ffffffffffffffffffffffffffffffffffffffff1673ffffffffffffffffffffffffffffffffffffffff1681526020019060010190808311613579575b5050505050815250506135d68282614f36565b8560000160008973ffffffffffffffffffffffffffffffffffffffff1673ffffffffffffffffffffffffffffffffffffffff168152602001908152602001600020600601339080600181540180825580915050600190039060005260206000200160009091909190916101000a81548173ffffffffffffffffffffffffffffffffffffffff021916908373ffffffffffffffffffffffffffffffffffffffff1602179055506136cc8660000160008a73ffffffffffffffffffffffffffffffffffffffff1673ffffffffffffffffffffffffffffffffffffffff16815260200190815260200160002060060180549050866150c7565b156137ce57868660000160008a73ffffffffffffffffffffffffffffffffffffffff1673ffffffffffffffffffffffffffffffffffffffff16815260200190815260200160002060020190805190602001906137299291906151d8565b5060018660000160008a73ffffffffffffffffffffffffffffffffffffffff1673ffffffffffffffffffffffffffffffffffffffff168152602001908152602001600020600301600082825401925050819055508560000160008973ffffffffffffffffffffffffffffffffffffffff1673ffffffffffffffffffffffffffffffffffffffff16815260200190815260200160002060060160006137cd9190615266565b5b5050505050505050565b60018260000160008573ffffffffffffffffffffffffffffffffffffffff1673ffffffffffffffffffffffffffffffffffffffff1681526020019081526020016000206040518060e0016040529081600082015481526020016001820160009054906101000a900460ff16151515158152602001600282018054600181600116156101000203166002900480601f0160208091040260200160405190810160405280929190818152602001828054600181600116156101000203166002900480156138e45780601f106138b9576101008083540402835291602001916138e4565b820191906000526020600020905b8154815290600101906020018083116138c757829003601f168201915b50505050508152602001600382015481526020016004820180548060200260200160405190810160405280929190818152602001828054801561397c57602002820191906000526020600020905b8160009054906101000a900473ffffffffffffffffffffffffffffffffffffffff1673ffffffffffffffffffffffffffffffffffffffff1681526020019060010190808311613932575b5050505050815260200160058201805480602002602001604051908101604052809291908181526020018280548015613a0a57602002820191906000526020600020905b8160009054906101000a900473ffffffffffffffffffffffffffffffffffffffff1673ffffffffffffffffffffffffffffffffffffffff16815260200190600101908083116139c0575b5050505050815260200160068201805480602002602001604051908101604052809291908181526020018280548015613a9857602002820191906000526020600020905b8160009054906101000a900473ffffffffffffffffffffffffffffffffffffffff1673ffffffffffffffffffffffffffffffffffffffff1681526020019060010190808311613a4e575b505050505081525050613aab8282614e81565b60028460000160008773ffffffffffffffffffffffffffffffffffffffff1673ffffffffffffffffffffffffffffffffffffffff1681526020019081526020016000206040518060e0016040529081600082015481526020016001820160009054906101000a900460ff16151515158152602001600282018054600181600116156101000203166002900480601f016020809104026020016040519081016040528092919081815260200182805460018160011615610100020316600290048015613bb75780601f10613b8c57610100808354040283529160200191613bb7565b820191906000526020600020905b815481529060010190602001808311613b9a57829003601f168201915b505050505081526020016003820154815260200160048201805480602002602001604051908101604052809291908181526020018280548015613c4f57602002820191906000526020600020905b8160009054906101000a900473ffffffffffffffffffffffffffffffffffffffff1673ffffffffffffffffffffffffffffffffffffffff1681526020019060010190808311613c05575b5050505050815260200160058201805480602002602001604051908101604052809291908181526020018280548015613cdd57602002820191906000526020600020905b8160009054906101000a900473ffffffffffffffffffffffffffffffffffffffff1673ffffffffffffffffffffffffffffffffffffffff1681526020019060010190808311613c93575b5050505050815260200160068201805480602002602001604051908101604052809291908181526020018280548015613d6b57602002820191906000526020600020905b8160009054906101000a900473ffffffffffffffffffffffffffffffffffffffff1673ffffffffffffffffffffffffffffffffffffffff1681526020019060010190808311613d21575b505050505081525050613d7e8282614f36565b8560000160008873ffffffffffffffffffffffffffffffffffffffff1673ffffffffffffffffffffffffffffffffffffffff168152602001908152602001600020600501339080600181540180825580915050600190039060005260206000200160009091909190916101000a81548173ffffffffffffffffffffffffffffffffffffffff021916908373ffffffffffffffffffffffffffffffffffffffff1602179055508673ffffffffffffffffffffffffffffffffffffffff163373ffffffffffffffffffffffffffffffffffffffff161480613eaa5750613ea98660000160008973ffffffffffffffffffffffffffffffffffffffff1673ffffffffffffffffffffffffffffffffffffffff16815260200190815260200160002060050180549050866150c7565b5b15613fd857856001018660000160008973ffffffffffffffffffffffffffffffffffffffff1673ffffffffffffffffffffffffffffffffffffffff1681526020019081526020016000206000015481548110613f0257fe5b9060005260206000200160006101000a81549073ffffffffffffffffffffffffffffffffffffffff02191690558560000160008873ffffffffffffffffffffffffffffffffffffffff1673ffffffffffffffffffffffffffffffffffffffff1681526020019081526020016000206000808201600090556001820160006101000a81549060ff0219169055600282016000613f9d9190615287565b6003820160009055600482016000613fb59190615266565b600582016000613fc59190615266565b600682016000613fd59190615266565b50505b50505050505050565b60008260000160008673ffffffffffffffffffffffffffffffffffffffff1673ffffffffffffffffffffffffffffffffffffffff1681526020019081526020016000206040518060e0016040529081600082015481526020016001820160009054906101000a900460ff16151515158152602001600282018054600181600116156101000203166002900480601f0160208091040260200160405190810160405280929190818152602001828054600181600116156101000203166002900480156140ed5780601f106140c2576101008083540402835291602001916140ed565b820191906000526020600020905b8154815290600101906020018083116140d057829003601f168201915b50505050508152602001600382015481526020016004820180548060200260200160405190810160405280929190818152602001828054801561418557602002820191906000526020600020905b8160009054906101000a900473ffffffffffffffffffffffffffffffffffffffff1673ffffffffffffffffffffffffffffffffffffffff168152602001906001019080831161413b575b505050505081526020016005820180548060200260200160405190810160405280929190818152602001828054801561421357602002820191906000526020600020905b8160009054906101000a900473ffffffffffffffffffffffffffffffffffffffff1673ffffffffffffffffffffffffffffffffffffffff16815260200190600101908083116141c9575b50505050508152602001600682018054806020026020016040519081016040528092919081815260200182805480156142a157602002820191906000526020600020905b8160009054906101000a900473ffffffffffffffffffffffffffffffffffffffff1673ffffffffffffffffffffffffffffffffffffffff1681526020019060010190808311614257575b5050505050815250506142b48282614e81565b60008460000160008873ffffffffffffffffffffffffffffffffffffffff1673ffffffffffffffffffffffffffffffffffffffff1681526020019081526020016000206040518060e0016040529081600082015481526020016001820160009054906101000a900460ff16151515158152602001600282018054600181600116156101000203166002900480601f0160208091040260200160405190810160405280929190818152602001828054600181600116156101000203166002900480156143c05780601f10614395576101008083540402835291602001916143c0565b820191906000526020600020905b8154815290600101906020018083116143a357829003601f168201915b50505050508152602001600382015481526020016004820180548060200260200160405190810160405280929190818152602001828054801561445857602002820191906000526020600020905b8160009054906101000a900473ffffffffffffffffffffffffffffffffffffffff1673ffffffffffffffffffffffffffffffffffffffff168152602001906001019080831161440e575b50505050508152602001600582018054806020026020016040519081016040528092919081815260200182805480156144e657602002820191906000526020600020905b8160009054906101000a900473ffffffffffffffffffffffffffffffffffffffff1673ffffffffffffffffffffffffffffffffffffffff168152602001906001019080831161449c575b505050505081526020016006820180548060200260200160405190810160405280929190818152602001828054801561457457602002820191906000526020600020905b8160009054906101000a900473ffffffffffffffffffffffffffffffffffffffff1673ffffffffffffffffffffffffffffffffffffffff168152602001906001019080831161452a575b5050505050815250506145878282614f36565b8560000160008973ffffffffffffffffffffffffffffffffffffffff1673ffffffffffffffffffffffffffffffffffffffff16815260200190815260200160002060040180549050600014801561463657508560000160008973ffffffffffffffffffffffffffffffffffffffff1673ffffffffffffffffffffffffffffffffffffffff1681526020019081526020016000206002018054600181600116156101000203166002900490506000145b1561469557868660000160008a73ffffffffffffffffffffffffffffffffffffffff1673ffffffffffffffffffffffffffffffffffffffff16815260200190815260200160002060020190805190602001906146939291906151d8565b505b8560000160008973ffffffffffffffffffffffffffffffffffffffff1673ffffffffffffffffffffffffffffffffffffffff168152602001908152602001600020600401339080600181540180825580915050600190039060005260206000200160009091909190916101000a81548173ffffffffffffffffffffffffffffffffffffffff021916908373ffffffffffffffffffffffffffffffffffffffff16021790555061478b8660000160008a73ffffffffffffffffffffffffffffffffffffffff1673ffffffffffffffffffffffffffffffffffffffff16815260200190815260200160002060040180549050866150c7565b156148a35760018660000160008a73ffffffffffffffffffffffffffffffffffffffff1673ffffffffffffffffffffffffffffffffffffffff16815260200190815260200160002060010160006101000a81548160ff02191690831515021790555085600101805490508660000160008a73ffffffffffffffffffffffffffffffffffffffff1673ffffffffffffffffffffffffffffffffffffffff1681526020019081526020016000206000018190555085600101889080600181540180825580915050600190039060005260206000200160009091909190916101000a81548173ffffffffffffffffffffffffffffffffffffffff021916908373ffffffffffffffffffffffffffffffffffffffff1602179055505b5050505050505050565b606060018260000160008573ffffffffffffffffffffffffffffffffffffffff1673ffffffffffffffffffffffffffffffffffffffff1681526020019081526020016000206040518060e0016040529081600082015481526020016001820160009054906101000a900460ff16151515158152602001600282018054600181600116156101000203166002900480601f0160208091040260200160405190810160405280929190818152602001828054600181600116156101000203166002900480156149bb5780601f10614990576101008083540402835291602001916149bb565b820191906000526020600020905b81548152906001019060200180831161499e57829003601f168201915b505050505081526020016003820154815260200160048201805480602002602001604051908101604052809291908181526020018280548015614a5357602002820191906000526020600020905b8160009054906101000a900473ffffffffffffffffffffffffffffffffffffffff1673ffffffffffffffffffffffffffffffffffffffff1681526020019060010190808311614a09575b5050505050815260200160058201805480602002602001604051908101604052809291908181526020018280548015614ae157602002820191906000526020600020905b8160009054906101000a900473ffffffffffffffffffffffffffffffffffffffff1673ffffffffffffffffffffffffffffffffffffffff1681526020019060010190808311614a97575b5050505050815260200160068201805480602002602001604051908101604052809291908181526020018280548015614b6f57602002820191906000526020600020905b8160009054906101000a900473ffffffffffffffffffffffffffffffffffffffff1673ffffffffffffffffffffffffffffffffffffffff1681526020019060010190808311614b25575b505050505081525050614b828282614e81565b8360000160008673ffffffffffffffffffffffffffffffffffffffff1673ffffffffffffffffffffffffffffffffffffffff1681526020019081526020016000206002018054600181600116156101000203166002900480601f016020809104026020016040519081016040528092919081815260200182805460018160011615610100020316600290048015614c5a5780601f10614c2f57610100808354040283529160200191614c5a565b820191906000526020600020905b815481529060010190602001808311614c3d57829003601f168201915b50505050509250505092915050565b60606000614c7683614de7565b905060008167ffffffffffffffff81118015614c9157600080fd5b50604051908082528060200260200182016040528015614cc05781602001602082028036833780820191505090505b509050600080600090505b8560010180549050811015614ddb57856001018181548110614ce957fe5b9060005260206000200160009054906101000a900473ffffffffffffffffffffffffffffffffffffffff1673ffffffffffffffffffffffffffffffffffffffff16600073ffffffffffffffffffffffffffffffffffffffff1614614dce57856001018181548110614d5657fe5b9060005260206000200160009054906101000a900473ffffffffffffffffffffffffffffffffffffffff16838381518110614d8d57fe5b602002602001019073ffffffffffffffffffffffffffffffffffffffff16908173ffffffffffffffffffffffffffffffffffffffff16815250506001820191505b8080600101915050614ccb565b50819350505050919050565b6000614e7a82600101805480602002602001604051908101604052809291908181526020018280548015614e7057602002820191906000526020600020905b8160009054906101000a900473ffffffffffffffffffffffffffffffffffffffff1673ffffffffffffffffffffffffffffffffffffffff1681526020019060010190808311614e26575b50505050506150e5565b9050919050565b811515600015151415614ee257614e9781612aad565b15156000151514614edd576040517f08c379a0000000000000000000000000000000000000000000000000000000008152600401614ed490615ce2565b60405180910390fd5b614f32565b614eeb81612aad565b15156001151514614f31576040517f08c379a0000000000000000000000000000000000000000000000000000000008152600401614f2890615ca2565b60405180910390fd5b5b5050565b60006040518060400160405280601781526020017f4f776e65722068617320616c726561647920766f7465640000000000000000008152509050826002811115614f7c57fe5b60016002811115614f8957fe5b1415614fec57614f9d338360c0015161515d565b151560001515148190614fe6576040517f08c379a0000000000000000000000000000000000000000000000000000000008152600401614fdd9190615bd0565b60405180910390fd5b506150c2565b826002811115614ff857fe5b6000600281111561500557fe5b14156150685761501933836080015161515d565b151560001515148190615062576040517f08c379a00000000000000000000000000000000000000000000000000000000081526004016150599190615bd0565b60405180910390fd5b506150c1565b615076338360a0015161515d565b1515600015151481906150bf576040517f08c379a00000000000000000000000000000000000000000000000000000000081526004016150b69190615bd0565b60405180910390fd5b505b5b505050565b6000818310156150da57600090506150df565b600190505b92915050565b6000806000905060005b83518110156151535783818151811061510457fe5b602002602001015173ffffffffffffffffffffffffffffffffffffffff16600073ffffffffffffffffffffffffffffffffffffffff1614615146576001820191505b80806001019150506150ef565b5080915050919050565b600080600090505b82518110156151cc5782818151811061517a57fe5b602002602001015173ffffffffffffffffffffffffffffffffffffffff168473ffffffffffffffffffffffffffffffffffffffff1614156151bf5760019150506151d2565b8080600101915050615165565b50600090505b92915050565b828054600181600116156101000203166002900490600052602060002090601f01602090048101928261520e5760008555615255565b82601f1061522757805160ff1916838001178555615255565b82800160010185558215615255579182015b82811115615254578251825591602001919060010190615239565b5b50905061526291906152cf565b5090565b508054600082559060005260206000209081019061528491906152cf565b50565b50805460018160011615610100020316600290046000825580601f106152ad57506152cc565b601f0160209004906000526020600020908101906152cb91906152cf565b5b50565b5b808211156152e85760008160009055506001016152d0565b5090565b60006152ff6152fa84615e17565b615de6565b90508281526020810184848401111561531757600080fd5b615322848285615f72565b509392505050565b60008135905061533981615fc7565b92915050565b60008151905061534e81615fde565b92915050565b60008135905061536381615ff5565b92915050565b600082601f83011261537a57600080fd5b813561538a8482602086016152ec565b91505092915050565b6000813590506153a28161600c565b92915050565b6000602082840312156153ba57600080fd5b60006153c88482850161532a565b91505092915050565b600080604083850312156153e457600080fd5b60006153f28582860161532a565b92505060206154038582860161532a565b9150509250929050565b6000806000806080858703121561542357600080fd5b60006154318782880161532a565b94505060206154428782880161532a565b935050604061545387828801615393565b925050606061546487828801615393565b91505092959194509250565b6000806040838503121561548357600080fd5b60006154918582860161532a565b925050602083013567ffffffffffffffff8111156154ae57600080fd5b6154ba85828601615369565b9150509250929050565b6000602082840312156154d657600080fd5b60006154e48482850161533f565b91505092915050565b6000806040838503121561550057600080fd5b600061550e85828601615354565b925050602061551f8582860161532a565b9150509250929050565b60006155358383615568565b60208301905092915050565b600061554d8383615651565b60208301905092915050565b61556281615f3c565b82525050565b61557181615eea565b82525050565b61558081615eea565b82525050565b600061559182615e7c565b61559b8185615eb7565b93506155a683615e47565b8060005b838110156155d75781516155be8882615529565b97506155c983615e9d565b9250506001810190506155aa565b5085935050505092915050565b60006155ef82615e87565b6155f98185615ec8565b935061560483615e57565b8060005b8381101561563557815161561c8882615541565b975061562783615eaa565b925050600181019050615608565b5085935050505092915050565b61564b81615efc565b82525050565b61565a81615f08565b82525050565b600061566b82615e92565b6156758185615ed9565b9350615685818560208601615f81565b61568e81615fb6565b840191505092915050565b6000815460018116600081146156b657600181146156dc57615720565b607f60028304166156c78187615ed9565b955060ff198316865260208601935050615720565b600282046156ea8187615ed9565b95506156f585615e67565b60005b82811015615717578154818901526001820191506020810190506156f8565b80880195505050505b505092915050565b6000615735603183615ed9565b91507f4f6e6c792050726f7669646572732061726520616c6c6f77656420746f20706560008301527f72666f726d207468697320616374696f6e0000000000000000000000000000006020830152604082019050919050565b600061579b601483615ed9565b91507f70726f76696465642049642069732077726f6e670000000000000000000000006000830152602082019050919050565b60006157db602483615ed9565b91507f50726f7669646572206e6f74207375626d697465642062792043726561746f7260008301527f20796574000000000000000000000000000000000000000000000000000000006020830152604082019050919050565b6000615841601c83615ed9565b91507f4e6f7420616c6c6f77656420746f2072656d6f766520656e74697479000000006000830152602082019050919050565b6000615881601883615ed9565b91507f456e74697479206d7573742062652061637469766174656400000000000000006000830152602082019050919050565b60006158c1602e83615ed9565b91507f4f6e6c79204f776e6572732061726520616c6c6f77656420746f20706572666f60008301527f726d207468697320616374696f6e0000000000000000000000000000000000006020830152604082019050919050565b6000615927601883615ed9565b91507f456e7469747920616c72656164792061637469766174656400000000000000006000830152602082019050919050565b6000615967601683615ed9565b91507f49742069732077686f2069742073686f756c64206265000000000000000000006000830152602082019050919050565b60006159a7603183615ed9565b91507f4e6f7420616c6c6f77656420746f2072656d6f7665207468697320706172746960008301527f63756c61722043657274696669636174650000000000000000000000000000006020830152604082019050919050565b6000615a0d600583615ed9565b91507f456d7074790000000000000000000000000000000000000000000000000000006000830152602082019050919050565b6000615a4d602983615ed9565b91507f50726f766964657220616c726561647920616374697661746564206f7220696e60008301527f2070726f677265737300000000000000000000000000000000000000000000006020830152604082019050919050565b6000615ab3601983615ed9565b91507f436572746966696361746520616c7265616479206578697374000000000000006000830152602082019050919050565b615aef81615f32565b82525050565b615afe81615f32565b82525050565b6000602082019050615b196000830184615577565b92915050565b6000604082019050615b346000830185615559565b615b416020830184615577565b9392505050565b6000604082019050615b5d6000830185615577565b615b6a6020830184615577565b9392505050565b60006020820190508181036000830152615b8b8184615586565b905092915050565b60006020820190508181036000830152615bad81846155e4565b905092915050565b6000602082019050615bca6000830184615642565b92915050565b60006020820190508181036000830152615bea8184615660565b905092915050565b60006040820190508181036000830152615c0c8185615699565b9050615c1b6020830184615577565b9392505050565b60006020820190508181036000830152615c3b81615728565b9050919050565b60006020820190508181036000830152615c5b8161578e565b9050919050565b60006020820190508181036000830152615c7b816157ce565b9050919050565b60006020820190508181036000830152615c9b81615834565b9050919050565b60006020820190508181036000830152615cbb81615874565b9050919050565b60006020820190508181036000830152615cdb816158b4565b9050919050565b60006020820190508181036000830152615cfb8161591a565b9050919050565b60006020820190508181036000830152615d1b8161595a565b9050919050565b60006020820190508181036000830152615d3b8161599a565b9050919050565b60006020820190508181036000830152615d5b81615a00565b9050919050565b60006020820190508181036000830152615d7b81615a40565b9050919050565b60006020820190508181036000830152615d9b81615aa6565b9050919050565b6000602082019050615db76000830184615ae6565b92915050565b6000604082019050615dd26000830185615af5565b615ddf6020830184615af5565b9392505050565b6000604051905081810181811067ffffffffffffffff82111715615e0d57615e0c615fb4565b5b8060405250919050565b600067ffffffffffffffff821115615e3257615e31615fb4565b5b601f19601f8301169050602081019050919050565b6000819050602082019050919050565b6000819050602082019050919050565b60008190508160005260206000209050919050565b600081519050919050565b600081519050919050565b600081519050919050565b6000602082019050919050565b6000602082019050919050565b600082825260208201905092915050565b600082825260208201905092915050565b600082825260208201905092915050565b6000615ef582615f12565b9050919050565b60008115159050919050565b6000819050919050565b600073ffffffffffffffffffffffffffffffffffffffff82169050919050565b6000819050919050565b6000615f4782615f4e565b9050919050565b6000615f5982615f60565b9050919050565b6000615f6b82615f12565b9050919050565b82818337600083830152505050565b60005b83811015615f9f578082015181840152602081019050615f84565b83811115615fae576000848401525b50505050565bfe5b6000601f19601f8301169050919050565b615fd081615eea565b8114615fdb57600080fd5b50565b615fe781615efc565b8114615ff257600080fd5b50565b615ffe81615f08565b811461600957600080fd5b50565b61601581615f32565b811461602057600080fd5b5056fea2646970667358221220745f7956030485221e6077d76ce960236ddbc5f44191fdc9ff93df9d72d4651764736f6c63430007060033",
  "immutableReferences": {},
  "source": "// SPDX-License-Identifier: GPL-3.0\r\n\r\npragma solidity >=0.7.0 <0.9.0;\r\npragma experimental ABIEncoderV2;\r\n\r\n/**\r\n * @title Storage\r\n * @dev Store & retrieve value in a variable\r\n */\r\n\r\n import \"./MultiSigCertificatesPool.sol\";\r\n\r\n /* \r\n Like Private Certificates except that Providers must be sent from \"Creator\" who is not an owner\r\n */\r\n\r\n contract PublicCertificatesPool is MultiSigCertificatesPool {\r\n\r\n     address _creator;\r\n     mapping(address => bool) _submitedByCreator;\r\n\r\n     //modifiers\r\n    modifier hasBeenSubmitted(bool YesOrNo, address provider){\r\n        if(false == YesOrNo) require(false == _submitedByCreator[provider], \"Provider already activated or in progress\");\r\n        else require(true == _submitedByCreator[provider], \"Provider not submited by Creator yet\");\r\n        _;\r\n    }\r\n\r\n     // Constructor\r\n    constructor(address[] memory owners,  uint256 minOwners) MultiSigCertificatesPool(owners, minOwners) payable {\r\n        _creator = msg.sender;\r\n    }\r\n\r\n    function addProvider(address provider, string memory providerInfo) external \r\n        isSomeoneSpecific(_creator)\r\n        hasBeenSubmitted(false, provider)\r\n    override\r\n    {\r\n        _Entities[_providerId]._entities[provider]._Info = bytes(providerInfo);\r\n        _submitedByCreator[provider] = true;\r\n    }\r\n\r\n    function validateProvider(address provider) external \r\n        hasBeenSubmitted(true, provider)\r\n    {\r\n        addEntity(provider, _Entities[_providerId]._entities[provider]._Info, _providerId);\r\n    }\r\n\r\n    function removeProvider(address provider) external override{\r\n       removeEntity(provider, _providerId); \r\n\r\n       if(false == Library.isEntity(_Entities[_providerId]._entities[provider])){\r\n            delete(_submitedByCreator[provider]);\r\n       }\r\n    }\r\n\r\n }",
  "sourcePath": "C:\\Users\\d-aam\\GitHub\\Certificates\\contracts\\PublicCertificatesPool.sol",
  "compiler": {
    "name": "solc",
    "version": "0.7.6+commit.7338295f.Emscripten.clang"
  },
  "schemaVersion": "3.3.4",
  "updatedAt": "2021-05-20T14:15:40.136Z",
  "devdoc": {
    "kind": "dev",
    "methods": {},
    "version": 1
  },
  "userdoc": {
    "kind": "user",
    "methods": {},
    "version": 1
  }
}