{
  "contractName": "PublicCertificatesPool",
  "abi": [
    {
      "inputs": [
        {
          "internalType": "address[]",
          "name": "owners",
          "type": "address[]"
        },
        {
          "internalType": "uint256",
          "name": "minOwners",
          "type": "uint256"
        },
        {
          "internalType": "address",
          "name": "managerContractAddress",
          "type": "address"
        }
      ],
      "stateMutability": "payable",
      "type": "constructor"
    },
    {
      "anonymous": false,
      "inputs": [
        {
          "indexed": false,
          "internalType": "address",
          "name": "",
          "type": "address"
        },
        {
          "indexed": false,
          "internalType": "address",
          "name": "",
          "type": "address"
        }
      ],
      "name": "_AddCertificateIdEvent",
      "type": "event"
    },
    {
      "anonymous": false,
      "inputs": [
        {
          "indexed": false,
          "internalType": "string",
          "name": "",
          "type": "string"
        },
        {
          "indexed": false,
          "internalType": "address",
          "name": "",
          "type": "address"
        }
      ],
      "name": "_AddEntityValidationIdEvent",
      "type": "event"
    },
    {
      "anonymous": false,
      "inputs": [
        {
          "indexed": false,
          "internalType": "address",
          "name": "",
          "type": "address"
        },
        {
          "indexed": false,
          "internalType": "address",
          "name": "",
          "type": "address"
        }
      ],
      "name": "_RemoveCertificateIdEvent",
      "type": "event"
    },
    {
      "anonymous": false,
      "inputs": [
        {
          "indexed": false,
          "internalType": "string",
          "name": "",
          "type": "string"
        },
        {
          "indexed": false,
          "internalType": "address",
          "name": "",
          "type": "address"
        }
      ],
      "name": "_RemoveEntityValidationIdEvent",
      "type": "event"
    },
    {
      "inputs": [
        {
          "internalType": "bytes32",
          "name": "CertificateHash",
          "type": "bytes32"
        },
        {
          "internalType": "address",
          "name": "holder",
          "type": "address"
        }
      ],
      "name": "addCertificate",
      "outputs": [],
      "stateMutability": "nonpayable",
      "type": "function"
    },
    {
      "inputs": [
        {
          "internalType": "address",
          "name": "owner",
          "type": "address"
        },
        {
          "internalType": "string",
          "name": "ownerInfo",
          "type": "string"
        }
      ],
      "name": "addOwner",
      "outputs": [],
      "stateMutability": "nonpayable",
      "type": "function"
    },
    {
      "inputs": [
        {
          "internalType": "address",
          "name": "owner",
          "type": "address"
        }
      ],
      "name": "isOwner",
      "outputs": [
        {
          "internalType": "bool",
          "name": "",
          "type": "bool"
        }
      ],
      "stateMutability": "view",
      "type": "function"
    },
    {
      "inputs": [
        {
          "internalType": "address",
          "name": "provider",
          "type": "address"
        }
      ],
      "name": "isProvider",
      "outputs": [
        {
          "internalType": "bool",
          "name": "",
          "type": "bool"
        }
      ],
      "stateMutability": "view",
      "type": "function"
    },
    {
      "inputs": [
        {
          "internalType": "bytes32",
          "name": "CertificateHash",
          "type": "bytes32"
        },
        {
          "internalType": "address",
          "name": "holder",
          "type": "address"
        }
      ],
      "name": "removeCertificate",
      "outputs": [],
      "stateMutability": "nonpayable",
      "type": "function"
    },
    {
      "inputs": [
        {
          "internalType": "address",
          "name": "owner",
          "type": "address"
        }
      ],
      "name": "removeOwner",
      "outputs": [],
      "stateMutability": "nonpayable",
      "type": "function"
    },
    {
      "inputs": [],
      "name": "retrieveAllOwners",
      "outputs": [
        {
          "internalType": "address[]",
          "name": "",
          "type": "address[]"
        }
      ],
      "stateMutability": "view",
      "type": "function"
    },
    {
      "inputs": [],
      "name": "retrieveAllProviders",
      "outputs": [
        {
          "internalType": "address[]",
          "name": "",
          "type": "address[]"
        }
      ],
      "stateMutability": "view",
      "type": "function"
    },
    {
      "inputs": [
        {
          "internalType": "bytes32",
          "name": "CertificateHash",
          "type": "bytes32"
        },
        {
          "internalType": "address",
          "name": "holder",
          "type": "address"
        }
      ],
      "name": "retrieveCertificateProvider",
      "outputs": [
        {
          "internalType": "address",
          "name": "",
          "type": "address"
        }
      ],
      "stateMutability": "view",
      "type": "function"
    },
    {
      "inputs": [
        {
          "internalType": "address",
          "name": "holder",
          "type": "address"
        },
        {
          "internalType": "uint256",
          "name": "skipFirst",
          "type": "uint256"
        },
        {
          "internalType": "uint256",
          "name": "max",
          "type": "uint256"
        }
      ],
      "name": "retrieveCertificatesByHolder",
      "outputs": [
        {
          "internalType": "bytes32[]",
          "name": "",
          "type": "bytes32[]"
        }
      ],
      "stateMutability": "view",
      "type": "function"
    },
    {
      "inputs": [],
      "name": "retrieveMinOwners",
      "outputs": [
        {
          "internalType": "uint256",
          "name": "",
          "type": "uint256"
        }
      ],
      "stateMutability": "view",
      "type": "function"
    },
    {
      "inputs": [
        {
          "internalType": "address",
          "name": "owner",
          "type": "address"
        }
      ],
      "name": "retrieveOwner",
      "outputs": [
        {
          "internalType": "string",
          "name": "",
          "type": "string"
        },
        {
          "internalType": "bool",
          "name": "",
          "type": "bool"
        }
      ],
      "stateMutability": "view",
      "type": "function"
    },
    {
      "inputs": [
        {
          "internalType": "bool",
          "name": "addedORremove",
          "type": "bool"
        }
      ],
      "name": "retrievePendingOwners",
      "outputs": [
        {
          "internalType": "address[]",
          "name": "",
          "type": "address[]"
        },
        {
          "internalType": "string[]",
          "name": "",
          "type": "string[]"
        }
      ],
      "stateMutability": "view",
      "type": "function"
    },
    {
      "inputs": [
        {
          "internalType": "bool",
          "name": "addedORremove",
          "type": "bool"
        }
      ],
      "name": "retrievePendingProviders",
      "outputs": [
        {
          "internalType": "address[]",
          "name": "",
          "type": "address[]"
        },
        {
          "internalType": "string[]",
          "name": "",
          "type": "string[]"
        }
      ],
      "stateMutability": "view",
      "type": "function"
    },
    {
      "inputs": [
        {
          "internalType": "address",
          "name": "provider",
          "type": "address"
        }
      ],
      "name": "retrieveProvider",
      "outputs": [
        {
          "internalType": "string",
          "name": "",
          "type": "string"
        },
        {
          "internalType": "bool",
          "name": "",
          "type": "bool"
        }
      ],
      "stateMutability": "view",
      "type": "function"
    },
    {
      "inputs": [
        {
          "internalType": "address",
          "name": "holder",
          "type": "address"
        }
      ],
      "name": "retrieveTotalCertificatesByHolder",
      "outputs": [
        {
          "internalType": "uint256",
          "name": "",
          "type": "uint256"
        }
      ],
      "stateMutability": "view",
      "type": "function"
    },
    {
      "inputs": [
        {
          "internalType": "address",
          "name": "provider",
          "type": "address"
        },
        {
          "internalType": "string",
          "name": "providerInfo",
          "type": "string"
        }
      ],
      "name": "addProvider",
      "outputs": [],
      "stateMutability": "nonpayable",
      "type": "function"
    },
    {
      "inputs": [
        {
          "internalType": "address",
          "name": "provider",
          "type": "address"
        }
      ],
      "name": "validateProvider",
      "outputs": [],
      "stateMutability": "nonpayable",
      "type": "function"
    },
    {
      "inputs": [
        {
          "internalType": "address",
          "name": "provider",
          "type": "address"
        }
      ],
      "name": "removeProvider",
      "outputs": [],
      "stateMutability": "nonpayable",
      "type": "function"
    },
    {
      "inputs": [
        {
          "internalType": "address",
          "name": "TreasuryAddress",
          "type": "address"
        }
      ],
      "name": "addTreasury",
      "outputs": [],
      "stateMutability": "nonpayable",
      "type": "function"
    }
  ],
  "bytecode": "0x600560c09081526427bbb732b960d91b60e0526080908152610140604052600861010090815267283937bb34b232b960c11b6101205260a0526200004890600490600262000355565b506040516200321e3803806200321e8339810160408190526200006b91620004ea565b8282818160026004805480602002602001604051908101604052809291908181526020016000905b82821015620001445760008481526020908190208301805460408051601f60026000196101006001871615020190941693909304928301859004850281018501909152818152928301828280156200012f5780601f1062000103576101008083540402835291602001916200012f565b820191906000526020600020905b8154815290600101906020018083116200011157829003601f168201915b50505050508152602001906001019062000093565b5050505060008451841115620001775760405162461bcd60e51b81526004016200016e90620005c6565b60405180910390fd5b600084116200019a5760405162461bcd60e51b81526004016200016e90620005e4565b81518314620001bd5760405162461bcd60e51b81526004016200016e9062000602565b60008181555b8381101562000228576002805460010181556000528251600390849083908110620001ea57fe5b602090810291909101810151825460018101845560009384529282902081516200021e9491909101929190910190620003b9565b50600101620001c3565b50600184905560005b8551811015620003235760016002600054815481106200024d57fe5b906000526020600020906004020160000160008884815181106200026d57fe5b60200260200101516001600160a01b03166001600160a01b0316815260200190815260200160002060000160006101000a81548160ff021916908315150217905550600260005481548110620002bf57fe5b9060005260206000209060040201600101868281518110620002dd57fe5b60209081029190910181015182546001808201855560009485529290932090920180546001600160a01b0319166001600160a01b03909316929092179091550162000231565b5050600680546001600160a01b0319166001600160a01b03989098169790971790965550620006209650505050505050565b828054828255906000526020600020908101928215620003a7579160200282015b82811115620003a7578251805162000396918491602090910190620003b9565b509160200191906001019062000376565b50620003b59291506200044a565b5090565b828054600181600116156101000203166002900490600052602060002090601f016020900481019282620003f157600085556200043c565b82601f106200040c57805160ff19168380011785556200043c565b828001600101855582156200043c579182015b828111156200043c5782518255916020019190600101906200041f565b50620003b59291506200046b565b80821115620003b557600062000461828262000482565b506001016200044a565b5b80821115620003b557600081556001016200046c565b50805460018160011615610100020316600290046000825580601f10620004aa5750620004ca565b601f016020900490600052602060002090810190620004ca91906200046b565b50565b80516001600160a01b0381168114620004e557600080fd5b919050565b600080600060608486031215620004ff578283fd5b83516001600160401b038082111562000516578485fd5b818601915086601f8301126200052a578485fd5b81516020828211156200053957fe5b808202604051828282010181811086821117156200055357fe5b604052838152828101945085830182870184018c10156200057257898afd5b8996505b848710156200059f576200058a81620004cd565b86526001969096019594830194830162000576565b50809850505080880151955050505050620005bd60408501620004cd565b90509250925092565b60208082526004908201526322a1989b60e11b604082015260600190565b6020808252600490820152634543313760e01b604082015260600190565b60208082526004908201526308a8662760e31b604082015260600190565b612bee80620006306000396000f3fe608060405234801561001057600080fd5b50600436106100fc5760003560e01c8063173825d9146101015780631ab807f81461011657806327a40b4b146101295780632f54bf6e1461013c5780633542758f14610165578063375834991461017857806358a1ba251461019957806365b973e5146101b95780636b074a07146101ce5780636b299604146101e15780636b3a0fec146102025780636e4f9179146102155780636e55d2d41461022a57806377bc5a1f1461023d5780638a355a5714610250578063a73db28a14610263578063a93d5ed614610276578063c8cb38341461027e578063d0a4adfe14610291578063fc000500146102b1575b600080fd5b61011461010f366004612503565b6102c4565b005b6101146101243660046126c0565b610310565b610114610137366004612503565b610410565b61014f61014a366004612503565b610646565b60405161015c9190612894565b60405180910390f35b61011461017336600461251d565b61065c565b61018b610186366004612503565b61066d565b60405161015c92919061289f565b6101ac6101a73660046125b6565b610685565b60405161015c9190612850565b6101c16107f5565b60405161015c9190612ad4565b61014f6101dc366004612503565b6107fb565b6101f46101ef366004612688565b610808565b60405161015c9291906127e0565b6101f4610210366004612688565b610817565b61021d610825565b60405161015c91906127cd565b6101c1610238366004612503565b610836565b61018b61024b366004612503565b610854565b61011461025e366004612503565b610864565b6101146102713660046126c0565b6108a2565b61021d610b2e565b61011461028c366004612503565b610b3b565b6102a461029f3660046126c0565b610b94565b60405161015c9190612786565b6101146102bf36600461251d565b610bc1565b60015460016102d4600054610ca8565b5103808211156102ff5760405162461bcd60e51b81526004016102f690612990565b60405180910390fd5b61030b83600054610dda565b505050565b610319336107fb565b151560011461033a5760405162461bcd60e51b81526004016102f690612a24565b816001600160a01b0380831660009081526005602090815260408083208784529091529020548391859116156103825760405162461bcd60e51b81526004016102f690612a06565b6001600160a01b038416600090815260056020818152604080842089855280835281852080546001600160a01b031916339081179091559383526001908101805491820181558552919093200187905590517f601cb9a073dbfa468ef12878ee6c720641a49b76af7c16099e8c0a1ac3ca79b59161040191879061279a565b60405180910390a15050505050565b6001816001600160a01b03811660009081526007602052604090205460ff1615156001146104505760405162461bcd60e51b81526004016102f690612973565b61051b83600260018154811061046257fe5b600091825260208083206001600160a01b03891684526004929092029091018152604091829020600190810180548451600293821615610100026000190190911692909204601f81018490048402830184019094528382529092909183018282801561050f5780601f106104e45761010080835404028352916020019161050f565b820191906000526020600020905b8154815290600101906020018083116104f257829003601f168201915b5050505050600161154f565b610524836107fb565b15156001141561030b576000600260018154811061053e57fe5b600091825260208083206001600160a01b038816845260049092029091019052604081206002015491505b8181101561063f57600854600280546001600160a01b039092169163eb1e2a419190600190811061059657fe5b600091825260208083206001600160a01b038b16845260049092029091019052604090206002018054849081106105c957fe5b6000918252602090912001546040516001600160e01b031960e084901b168152610601916001600160a01b03169086906004016127b4565b600060405180830381600087803b15801561061b57600080fd5b505af115801561062f573d6000803e3d6000fd5b5050600190920191506105699050565b5050505050565b600061065482600054611bbe565b90505b919050565b610669828260005461154f565b5050565b6060600061067c836001611caf565b91509150915091565b60608261069185610836565b116106ab57506040805160008152602081019091526107ee565b8180846106b787610836565b0310156106cc57836106c886610836565b0390505b6000816001600160401b03811180156106e457600080fd5b5060405190808252806020026020018201604052801561070e578160200160208202803683370190505b506001600160a01b03871660009081526005602090815260408083206001018054825181850281018501909352808352949550929390929183018282801561077557602002820191906000526020600020905b815481526020019060010190808311610761575b5050505050905060008060005b83518110156107e557878310610797576107e5565b818911156107aa576001820191506107dd565b8381815181106107b657fe5b60200260200101518584815181106107ca57fe5b6020026020010181815250506001830192505b600101610782565b50929450505050505b9392505050565b60015490565b6000610654826001611bbe565b60608061067c83600054611e3d565b60608061067c836001611e3d565b60606108316001610ca8565b905090565b6001600160a01b031660009081526005602052604090206001015490565b6060600061067c83600054611caf565b61086f816001610dda565b61087a816001611bbe565b61089f576001600160a01b0381166000908152600760205260409020805460ff191690555b50565b6108ab336107fb565b15156001146108cc5760405162461bcd60e51b81526004016102f690612a24565b6001600160a01b038181166000908152600560209081526040808320868452909152902054829184911633148061090b5750336001600160a01b038316145b6109275760405162461bcd60e51b81526004016102f6906129cb565b6001600160a01b0380841660008181526005602081815260408084208a8552808352818520549585529282526001909201805483518184028101840190945280845294909516949293919291908301828280156109a357602002820191906000526020600020905b81548152602001906001019080831161098f575b5050505050905060005b8151811015610aba578181815181106109c257fe5b6020026020010151871415610ab2576001600160a01b038616600090815260056020526040908190209051635b28cf6360e01b815273__Library_______________________________91635b28cf6391610a27918591600190910190600401612b2a565b60006040518083038186803b158015610a3f57600080fd5b505af4158015610a53573d6000803e3d6000fd5b505050506040513d6000823e601f3d908101601f19168201604052610a7b91908101906125e8565b6001600160a01b03871660009081526005602090815260409091208251610aac93600190920192919091019061235e565b50610aba565b6001016109ad565b506001600160a01b03851660009081526005602090815260408083208984529091529081902080546001600160a01b0319169055517fd12847594abf0621035046f61129f2a9dc5093eb516c6c517ece306362ef6f1790610b1e908490889061279a565b60405180910390a1505050505050565b6060610831600054610ca8565b6006546001600160a01b0316610b508161209b565b1515600114610b715760405162461bcd60e51b81526004016102f690612a7c565b50600880546001600160a01b0319166001600160a01b0392909216919091179055565b6001600160a01b038082166000908152600560209081526040808320868452909152902054165b92915050565b6006546001600160a01b0316610bd68161209b565b1515600114610bf75760405162461bcd60e51b81526004016102f690612a7c565b6000836001600160a01b03811660009081526007602052604090205460ff1615610c335760405162461bcd60e51b81526004016102f6906129e9565b836002600181548110610c4257fe5b600091825260208083206001600160a01b038a1684526004909202909101815260409091208251610c7d9360019092019291909101906123a9565b5050506001600160a01b039092166000908152600760205260409020805460ff191660011790555050565b60025460405163123bd07560e11b8152606091839173__Library_______________________________90632477a0ea90610ce99085908590600401612b6d565b60206040518083038186803b158015610d0157600080fd5b505af4158015610d15573d6000803e3d6000fd5b505050506040513d601f19601f82011682018060405250810190610d3991906126a4565b1515600114610d5a5760405162461bcd60e51b81526004016102f690612a5f565b60028481548110610d6757fe5b9060005260206000209060040201600101805480602002602001604051908101604052809291908181526020018280548015610dcc57602002820191906000526020600020905b81546001600160a01b03168152600190910190602001808311610dae575b505050505092505050919050565b60025460405163123bd07560e11b815282919073__Library_______________________________90632477a0ea90610e199085908590600401612b6d565b60206040518083038186803b158015610e3157600080fd5b505af4158015610e45573d6000803e3d6000fd5b505050506040513d601f19601f82011682018060405250810190610e6991906126a4565b1515600114610e8a5760405162461bcd60e51b81526004016102f690612a5f565b83610e9733600054611bbe565b151560011480610eaf5750336001600160a01b038216145b610ecb5760405162461bcd60e51b81526004016102f690612a99565b60018585610ed98282611bbe565b1515600114610efa5760405162461bcd60e51b81526004016102f690612956565b600160028881548110610f0957fe5b600091825260208083206001600160a01b038d168452600490920290910181526040918290208251608081018452815460ff1615158152600180830180548651601f600260001995841615610100029590950190921693909304908101869004860283018601909652858252919492938581019391929190830182828015610fd25780601f10610fa757610100808354040283529160200191610fd2565b820191906000526020600020905b815481529060010190602001808311610fb557829003601f168201915b505050505081526020016002820180548060200260200160405190810160405280929190818152602001828054801561103457602002820191906000526020600020905b81546001600160a01b03168152600190910190602001808311611016575b505050505081526020016003820180548060200260200160405190810160405280929190818152602001828054801561109657602002820191906000526020600020905b81546001600160a01b03168152600190910190602001808311611078575b5050505050815250508160018111156110ab57fe5b6110df576110bd3382604001516120be565b156110da5760405162461bcd60e51b81526004016102f6906129ae565b61110a565b6110ed3382606001516120be565b1561110a5760405162461bcd60e51b81526004016102f6906129ae565b6002898154811061111757fe5b600091825260208083206001600160a01b038e16845260049092029091019052604090206003015461118e576002898154811061115057fe5b60009182526020808320600492909202909101600301805460018101825590835291200180546001600160a01b0319166001600160a01b038c161790555b6002898154811061119b57fe5b600091825260208083206001600160a01b038e168085526004909302018152604083206003018054600181018255908452922090910180546001600160a01b03191633908117909155148061122b575061122b60028a815481106111fb57fe5b600091825260208083206001600160a01b038f168452600490920290910190526040902060030154600154612114565b156115435761132f6112b38b60028c8154811061124457fe5b90600052602060002090600402016001018054806020026020016040519081016040528092919081815260200182805480156112a957602002820191906000526020600020905b81546001600160a01b0316815260019091019060200180831161128b575b505050505061212f565b60028b815481106112c057fe5b906000526020600020906004020160010180548060200260200160405190810160405280929190818152602001828054801561132557602002820191906000526020600020905b81546001600160a01b03168152600190910190602001808311611307575b505050505061214c565b60028a8154811061133c57fe5b90600052602060002090600402016001019080519060200190611360929190612424565b5061145c6113e28b60028c8154811061137557fe5b90600052602060002090600402016003018054806020026020016040519081016040528092919081815260200182805480156112a9576020028201919060005260206000209081546001600160a01b0316815260019091019060200180831161128b57505050505061212f565b60028b815481106113ef57fe5b9060005260206000209060040201600301805480602002602001604051908101604052809291908181526020018280548015611325576020028201919060005260206000209081546001600160a01b0316815260019091019060200180831161130757505050505061214c565b60028a8154811061146957fe5b9060005260206000209060040201600301908051906020019061148d929190612424565b506002898154811061149b57fe5b600091825260208083206001600160a01b038e1684526004909202909101905260408120805460ff19168155906114d56001830182612479565b6114e36002830160006124bd565b6114f16003830160006124bd565b50507f1f62d535f971041db7bd8760bf0f1f9f476461558744a35c0d477b5ad6893e8960038a8154811061152157fe5b906000526020600020018b60405161153a9291906128c3565b60405180910390a15b50505050505050505050565b60025460405163123bd07560e11b815282919073__Library_______________________________90632477a0ea9061158e9085908590600401612b6d565b60206040518083038186803b1580156115a657600080fd5b505af41580156115ba573d6000803e3d6000fd5b505050506040513d601f19601f820116820180604052508101906115de91906126a4565b15156001146115ff5760405162461bcd60e51b81526004016102f690612a5f565b61160b33600054611bbe565b151560011461162c5760405162461bcd60e51b81526004016102f690612a42565b6000858461163a8282611bbe565b156116575760405162461bcd60e51b81526004016102f690612ab7565b60006002878154811061166657fe5b600091825260208083206001600160a01b038d168452600490920290910181526040918290208251608081018452815460ff1615158152600180830180548651601f60026000199584161561010002959095019092169390930490810186900486028301860190965285825291949293858101939192919083018282801561172f5780601f106117045761010080835404028352916020019161172f565b820191906000526020600020905b81548152906001019060200180831161171257829003601f168201915b505050505081526020016002820180548060200260200160405190810160405280929190818152602001828054801561179157602002820191906000526020600020905b81546001600160a01b03168152600190910190602001808311611773575b50505050508152602001600382018054806020026020016040519081016040528092919081815260200182805480156117f357602002820191906000526020600020905b81546001600160a01b031681526001909101906020018083116117d5575b50505050508152505081600181111561180857fe5b61183c5761181a3382604001516120be565b156118375760405162461bcd60e51b81526004016102f6906129ae565b611867565b61184a3382606001516120be565b156118675760405162461bcd60e51b81526004016102f6906129ae565b6002888154811061187457fe5b600091825260208083206001600160a01b038e1684526004909202909101905260409020600201546119355788600289815481106118ae57fe5b600091825260208083206001600160a01b038f16845260049092029091018152604090912082516118e99360019092019291909101906123a9565b50600288815481106118f757fe5b60009182526020808320600492909202909101600201805460018101825590835291200180546001600160a01b0319166001600160a01b038c161790555b6002888154811061194257fe5b600091825260208083206001600160a01b038e168452600490920290910181526040822060029081018054600181018255908452919092200180546001600160a01b0319163317905580546119cc91908a90811061199c57fe5b600091825260208083206001600160a01b038f168452600490920290910190526040902060020154600154612114565b15611543576001600289815481106119e057fe5b600091825260208083206001600160a01b038f168452600492909202909101905260409020805460ff19169115159190911790556002805489908110611a2257fe5b60009182526020808320600160049093020182018054928301815583529091200180546001600160a01b038c166001600160a01b031990911617905560028054611b5e91611ae4918d91908c908110611a7757fe5b90600052602060002090600402016002018054806020026020016040519081016040528092919081815260200182805480156112a9576020028201919060005260206000209081546001600160a01b0316815260019091019060200180831161128b57505050505061212f565b60028a81548110611af157fe5b9060005260206000209060040201600201805480602002602001604051908101604052809291908181526020018280548015611325576020028201919060005260206000209081546001600160a01b0316815260019091019060200180831161130757505050505061214c565b60028981548110611b6b57fe5b90600052602060002090600402016002019080519060200190611b8f929190612424565b507f3c139d46a211844e248647688545a37c07c505c999c1232d1247c707dc0a91e26003898154811061152157fe5b60025460405163123bd07560e11b8152600091839173__Library_______________________________90632477a0ea90611bff9085908590600401612b6d565b60206040518083038186803b158015611c1757600080fd5b505af4158015611c2b573d6000803e3d6000fd5b505050506040513d601f19601f82011682018060405250810190611c4f91906126a4565b1515600114611c705760405162461bcd60e51b81526004016102f690612a5f565b60028481548110611c7d57fe5b600091825260208083206001600160a01b038916845260049092029091019052604090205460ff169250505092915050565b60025460405163123bd07560e11b815260609160009184919073__Library_______________________________90632477a0ea90611cf49085908590600401612b6d565b60206040518083038186803b158015611d0c57600080fd5b505af4158015611d20573d6000803e3d6000fd5b505050506040513d601f19601f82011682018060405250810190611d4491906126a4565b1515600114611d655760405162461bcd60e51b81526004016102f690612a5f565b60028581548110611d7257fe5b600091825260208083206001600160a01b038a1684526004909202909101905260409020600101611da38787611bbe565b8154604080516020601f60026000196101006001881615020190951694909404938401819004810282018101909252828152918491830182828015611e295780601f10611dfe57610100808354040283529160200191611e29565b820191906000526020600020905b815481529060010190602001808311611e0c57829003601f168201915b505050505091509350935050509250929050565b60025460405163123bd07560e11b8152606091829184919073__Library_______________________________90632477a0ea90611e819085908590600401612b6d565b60206040518083038186803b158015611e9957600080fd5b505af4158015611ead573d6000803e3d6000fd5b505050506040513d601f19601f82011682018060405250810190611ed191906126a4565b1515600114611ef25760405162461bcd60e51b81526004016102f690612a5f565b60608615611f785760028681548110611f0757fe5b9060005260206000209060040201600201805480602002602001604051908101604052809291908181526020018280548015611f6c57602002820191906000526020600020905b81546001600160a01b03168152600190910190602001808311611f4e575b50505050509050611ff2565b60028681548110611f8557fe5b9060005260206000209060040201600301805480602002602001604051908101604052809291908181526020018280548015611fea57602002820191906000526020600020905b81546001600160a01b03168152600190910190602001808311611fcc575b505050505090505b6002546000906001600160401b038111801561200d57600080fd5b5060405190808252806020026020018201604052801561204157816020015b606081526020019060019003908161202c5790505b50905060005b825181101561208d5761206d83828151811061205f57fe5b602002602001015189611caf565b5082828151811061207a57fe5b6020908102919091010152600101612047565b509097909650945050505050565b6000336001600160a01b03831614156120b657506001610657565b506000919050565b6000805b825181101561210a578281815181106120d757fe5b60200260200101516001600160a01b0316846001600160a01b03161415612102576001915050610bbb565b6001016120c2565b5060009392505050565b60008183101561212657506000610bbb565b50600192915050565b60006107ee6001600160a01b038416612147846121eb565b612285565b60606107ee73__Library_______________________________635b28cf6385612175866121eb565b6040518363ffffffff1660e01b8152600401612192929190612add565b60006040518083038186803b1580156121aa57600080fd5b505af41580156121be573d6000803e3d6000fd5b505050506040513d6000823e601f3d908101601f191682016040526121e691908101906125e8565b6122c7565b6060600082516001600160401b038111801561220657600080fd5b50604051908082528060200260200182016040528015612230578160200160208202803683370190505b50905060005b815181101561227e5783818151811061224b57fe5b60200260200101516001600160a01b031660001b82828151811061226b57fe5b6020908102919091010152600101612236565b5092915050565b6000805b82518110156122bc5782818151811061229e57fe5b60200260200101518414156122b4579050610bbb565b600101612289565b505051600101919050565b6060600082516001600160401b03811180156122e257600080fd5b5060405190808252806020026020018201604052801561230c578160200160208202803683370190505b50905060005b815181101561227e5783818151811061232757fe5b602002602001015160001c82828151811061233e57fe5b6001600160a01b0390921660209283029190910190910152600101612312565b828054828255906000526020600020908101928215612399579160200282015b8281111561239957825182559160200191906001019061237e565b506123a59291506124d7565b5090565b828054600181600116156101000203166002900490600052602060002090601f0160209004810192826123df5760008555612399565b82601f106123f857805160ff1916838001178555612399565b82800160010185558215612399579182018281111561239957825182559160200191906001019061237e565b828054828255906000526020600020908101928215612399579160200282015b8281111561239957825182546001600160a01b0319166001600160a01b03909116178255602090920191600190910190612444565b50805460018160011615610100020316600290046000825580601f1061249f575061089f565b601f01602090049060005260206000209081019061089f91906124d7565b508054600082559060005260206000209081019061089f91905b5b808211156123a557600081556001016124d8565b80356001600160a01b038116811461065757600080fd5b600060208284031215612514578081fd5b6107ee826124ec565b6000806040838503121561252f578081fd5b612538836124ec565b91506020838101356001600160401b0380821115612554578384fd5b818601915086601f830112612567578384fd5b81358181111561257357fe5b612585601f8201601f19168501612b7b565b9150808252878482850101111561259a578485fd5b8084840185840137810190920192909252919491935090915050565b6000806000606084860312156125ca578081fd5b6125d3846124ec565b95602085013595506040909401359392505050565b600060208083850312156125fa578182fd5b82516001600160401b0380821115612610578384fd5b818501915085601f830112612623578384fd5b81518181111561262f57fe5b838102915061263f848301612b7b565b8181528481019084860184860187018a1015612659578788fd5b8795505b8386101561267b57805183526001959095019491860191860161265d565b5098975050505050505050565b600060208284031215612699578081fd5b81356107ee81612baa565b6000602082840312156126b5578081fd5b81516107ee81612baa565b600080604083850312156126d2578182fd5b823591506126e2602084016124ec565b90509250929050565b6001600160a01b03169052565b6000815180845260208085019450808401835b838110156127305781516001600160a01b03168752958201959082019060010161270b565b509495945050505050565b60008151808452815b8181101561276057602081850181015186830182015201612744565b818111156127715782602083870101525b50601f01601f19169290920160200192915050565b6001600160a01b0391909116815260200190565b6001600160a01b0392831681529116602082015260400190565b6001600160a01b03929092168252602082015260400190565b6000602082526107ee60208301846126f8565b6000604082526127f360408301856126f8565b602083820381850152818551808452828401915082838202850101838801865b8381101561284157601f1987840301855261282f83835161273b565b94860194925090850190600101612813565b50909998505050505050505050565b6020808252825182820181905260009190848201906040850190845b818110156128885783518352928401929184019160010161286c565b50909695505050505050565b901515815260200190565b6000604082526128b2604083018561273b565b905082151560208301529392505050565b600060408201604083528185546001808216600081146128ea576001811461290857612941565b60028304607f16855260ff1983166060880152608087019350612941565b600283048086526129188a612b9e565b875b828110156129375781548a8201606001529084019060200161291a565b8901606001955050505b50505080925050506107ee60208301846126eb565b60208082526003908201526245433760e81b604082015260600190565b6020808252600390820152621150cd60ea1b604082015260600190565b6020808252600490820152634543313960e01b604082015260600190565b60208082526003908201526245433560e81b604082015260600190565b6020808252600490820152631150cc4d60e21b604082015260600190565b60208082526003908201526245433360e81b604082015260600190565b6020808252600490820152634543313560e01b604082015260600190565b60208082526004908201526322a1989960e11b604082015260600190565b60208082526003908201526245433960e81b604082015260600190565b60208082526003908201526245433160e81b604082015260600190565b60208082526003908201526208a86760eb1b604082015260600190565b6020808252600490820152630454331360e41b604082015260600190565b60208082526003908201526222a19b60e91b604082015260600190565b90815260200190565b60006040820184835260206040818501528185518084526060860191508287019350845b81811015612b1d57845183529383019391830191600101612b01565b5090979650505050505050565b60006040820184835260206040818501528185548084526060860191508685528285209350845b81811015612b1d57845483526001948501949284019201612b51565b918252602082015260400190565b6040518181016001600160401b0381118282101715612b9657fe5b604052919050565b60009081526020902090565b801515811461089f57600080fdfea26469706673582212208db8d099e7dc4c7ef969268c1c274a8cfcf31ab6e21d5edebcf972bf74cfcda164736f6c63430007060033",
  "immutableReferences": {},
  "source": "// SPDX-License-Identifier: GPL-3.0\r\n\r\npragma solidity >=0.7.0 <0.9.0;\r\npragma experimental ABIEncoderV2;\r\n\r\n/**\r\n * @title Storage\r\n * @dev Store & retrieve value in a variable\r\n */\r\n\r\n import \"./Abstract/MultiSigCertificatesPool.sol\";\r\n import \"./Interfaces/IPublicPool.sol\";\r\n import \"./Treasury.sol\";\r\n\r\n contract PublicCertificatesPool is MultiSigCertificatesPool, IPublicPool {\r\n\r\n     address _creator;\r\n     mapping(address => bool) _submitedByCreator;\r\n     Treasury _Treasury;\r\n\r\n     //modifiers\r\n    modifier hasBeenSubmitted(bool YesOrNo, address provider){\r\n        if(false == YesOrNo) require(false == _submitedByCreator[provider], \"EC3\");\r\n        else require(true == _submitedByCreator[provider], \"EC4\");\r\n        _;\r\n    }\r\n\r\n     // Constructor\r\n    constructor(address[] memory owners,  uint256 minOwners, address managerContractAddress) MultiSigCertificatesPool(owners, minOwners) payable {\r\n        _creator = managerContractAddress;\r\n    }\r\n\r\n    function addProvider(address provider, string memory providerInfo) external \r\n        isSomeoneSpecific(_creator)\r\n        hasBeenSubmitted(false, provider)\r\n    override\r\n    {\r\n        _Entities[_providerId]._entities[provider]._Info = providerInfo;\r\n        _submitedByCreator[provider] = true;\r\n    }\r\n\r\n    function validateProvider(address provider) external \r\n        hasBeenSubmitted(true, provider)\r\n    override\r\n    {\r\n        addEntity(provider, _Entities[_providerId]._entities[provider]._Info, _providerId);\r\n\r\n        if(true == isProvider(provider)){\r\n            uint totalValidators = _Entities[_providerId]._entities[provider]._AddValidated.length;\r\n\r\n            for(uint i=0; i < totalValidators; i++){\r\n                _Treasury.getRefund(_Entities[_providerId]._entities[provider]._AddValidated[i], totalValidators);\r\n            }\r\n        }\r\n    }\r\n\r\n    function removeProvider(address provider) external override{\r\n       removeEntity(provider, _providerId); \r\n\r\n       if(false == isEntity(provider, _providerId)){\r\n            delete(_submitedByCreator[provider]);\r\n       }\r\n    }\r\n\r\n    function addTreasury(address TreasuryAddress) external\r\n        isSomeoneSpecific(_creator)\r\n    {\r\n        _Treasury = Treasury(TreasuryAddress);\r\n    }\r\n\r\n }",
  "sourcePath": "C:\\Users\\d-aam\\GitHub\\Certificates\\contracts\\PublicCertificatesPool.sol",
  "compiler": {
    "name": "solc",
    "version": "0.7.6+commit.7338295f.Emscripten.clang"
  },
  "schemaVersion": "3.3.4",
  "updatedAt": "2021-07-16T11:54:46.187Z",
  "devdoc": {
    "kind": "dev",
    "methods": {},
    "version": 1
  },
  "userdoc": {
    "kind": "user",
    "methods": {},
    "version": 1
  }
}