{
  "contractName": "PublicCertificatesPool",
  "abi": [
    {
      "anonymous": false,
      "inputs": [
        {
          "indexed": true,
          "internalType": "address",
          "name": "Provider",
          "type": "address"
        },
        {
          "indexed": true,
          "internalType": "address",
          "name": "Holder",
          "type": "address"
        },
        {
          "indexed": false,
          "internalType": "bytes32",
          "name": "Certificate",
          "type": "bytes32"
        }
      ],
      "name": "_AddCertificate",
      "type": "event"
    },
    {
      "anonymous": false,
      "inputs": [
        {
          "indexed": false,
          "internalType": "string",
          "name": "ItemType",
          "type": "string"
        },
        {
          "indexed": true,
          "internalType": "bytes32",
          "name": "Item",
          "type": "bytes32"
        },
        {
          "indexed": false,
          "internalType": "string",
          "name": "Info",
          "type": "string"
        }
      ],
      "name": "_AddItemRejection",
      "type": "event"
    },
    {
      "anonymous": false,
      "inputs": [
        {
          "indexed": false,
          "internalType": "string",
          "name": "ItemType",
          "type": "string"
        },
        {
          "indexed": true,
          "internalType": "bytes32",
          "name": "Item",
          "type": "bytes32"
        },
        {
          "indexed": false,
          "internalType": "string",
          "name": "Info",
          "type": "string"
        }
      ],
      "name": "_AddItemValidation",
      "type": "event"
    },
    {
      "anonymous": false,
      "inputs": [
        {
          "indexed": true,
          "internalType": "address",
          "name": "Provider",
          "type": "address"
        },
        {
          "indexed": false,
          "internalType": "string",
          "name": "Info",
          "type": "string"
        }
      ],
      "name": "_NewProposal",
      "type": "event"
    },
    {
      "anonymous": false,
      "inputs": [
        {
          "indexed": false,
          "internalType": "string",
          "name": "ItemType",
          "type": "string"
        },
        {
          "indexed": true,
          "internalType": "bytes32",
          "name": "Item",
          "type": "bytes32"
        },
        {
          "indexed": false,
          "internalType": "string",
          "name": "Info",
          "type": "string"
        }
      ],
      "name": "_RemoveItemRejection",
      "type": "event"
    },
    {
      "anonymous": false,
      "inputs": [
        {
          "indexed": false,
          "internalType": "string",
          "name": "ItemType",
          "type": "string"
        },
        {
          "indexed": true,
          "internalType": "bytes32",
          "name": "Item",
          "type": "bytes32"
        },
        {
          "indexed": false,
          "internalType": "string",
          "name": "Info",
          "type": "string"
        }
      ],
      "name": "_RemoveItemValidation",
      "type": "event"
    },
    {
      "anonymous": false,
      "inputs": [
        {
          "indexed": true,
          "internalType": "address",
          "name": "oldHolder",
          "type": "address"
        },
        {
          "indexed": true,
          "internalType": "address",
          "name": "newHolder",
          "type": "address"
        },
        {
          "indexed": false,
          "internalType": "bytes32",
          "name": "Certificate",
          "type": "bytes32"
        }
      ],
      "name": "_TransferCertificate",
      "type": "event"
    },
    {
      "inputs": [
        {
          "internalType": "address[]",
          "name": "owners",
          "type": "address[]"
        },
        {
          "internalType": "uint256",
          "name": "minOwners",
          "type": "uint256"
        },
        {
          "internalType": "string",
          "name": "contractName",
          "type": "string"
        },
        {
          "internalType": "string",
          "name": "contractVersion",
          "type": "string"
        }
      ],
      "name": "MultiSigCertPool_init",
      "outputs": [],
      "stateMutability": "nonpayable",
      "type": "function"
    },
    {
      "inputs": [
        {
          "internalType": "address[]",
          "name": "owners",
          "type": "address[]"
        },
        {
          "internalType": "uint256",
          "name": "minOwners",
          "type": "uint256"
        },
        {
          "internalType": "uint256",
          "name": "TotalEntities",
          "type": "uint256"
        },
        {
          "internalType": "string[]",
          "name": "labels",
          "type": "string[]"
        },
        {
          "internalType": "uint256",
          "name": "ownerId",
          "type": "uint256"
        }
      ],
      "name": "MultiSigContract_init",
      "outputs": [],
      "stateMutability": "nonpayable",
      "type": "function"
    },
    {
      "inputs": [
        {
          "internalType": "bytes32",
          "name": "CertificateHash",
          "type": "bytes32"
        },
        {
          "internalType": "address",
          "name": "holder",
          "type": "address"
        }
      ],
      "name": "addCertificate",
      "outputs": [],
      "stateMutability": "payable",
      "type": "function"
    },
    {
      "inputs": [
        {
          "internalType": "address",
          "name": "provider",
          "type": "address"
        },
        {
          "internalType": "bytes32",
          "name": "CertificateHash",
          "type": "bytes32"
        },
        {
          "internalType": "address",
          "name": "holder",
          "type": "address"
        },
        {
          "internalType": "uint256",
          "name": "nonce",
          "type": "uint256"
        },
        {
          "internalType": "uint256",
          "name": "deadline",
          "type": "uint256"
        },
        {
          "internalType": "bytes",
          "name": "signature",
          "type": "bytes"
        }
      ],
      "name": "addCertificateOnBehalfOf",
      "outputs": [],
      "stateMutability": "payable",
      "type": "function"
    },
    {
      "inputs": [
        {
          "internalType": "address",
          "name": "owner",
          "type": "address"
        },
        {
          "internalType": "string",
          "name": "ownerInfo",
          "type": "string"
        }
      ],
      "name": "addOwner",
      "outputs": [],
      "stateMutability": "nonpayable",
      "type": "function"
    },
    {
      "inputs": [
        {
          "internalType": "uint256",
          "name": "newMinOwners",
          "type": "uint256"
        }
      ],
      "name": "changeMinOwners",
      "outputs": [],
      "stateMutability": "nonpayable",
      "type": "function"
    },
    {
      "inputs": [],
      "name": "rejectMinOwners",
      "outputs": [],
      "stateMutability": "nonpayable",
      "type": "function"
    },
    {
      "inputs": [
        {
          "internalType": "address",
          "name": "owner",
          "type": "address"
        }
      ],
      "name": "rejectOwner",
      "outputs": [],
      "stateMutability": "nonpayable",
      "type": "function"
    },
    {
      "inputs": [
        {
          "internalType": "address",
          "name": "provider",
          "type": "address"
        }
      ],
      "name": "rejectProvider",
      "outputs": [],
      "stateMutability": "nonpayable",
      "type": "function"
    },
    {
      "inputs": [
        {
          "internalType": "address",
          "name": "owner",
          "type": "address"
        }
      ],
      "name": "removeOwner",
      "outputs": [],
      "stateMutability": "nonpayable",
      "type": "function"
    },
    {
      "inputs": [
        {
          "internalType": "address",
          "name": "provider",
          "type": "address"
        }
      ],
      "name": "removeProvider",
      "outputs": [],
      "stateMutability": "nonpayable",
      "type": "function"
    },
    {
      "inputs": [],
      "name": "retrieveAllOwners",
      "outputs": [
        {
          "internalType": "bytes32[]",
          "name": "",
          "type": "bytes32[]"
        }
      ],
      "stateMutability": "view",
      "type": "function"
    },
    {
      "inputs": [],
      "name": "retrieveAllProviders",
      "outputs": [
        {
          "internalType": "bytes32[]",
          "name": "",
          "type": "bytes32[]"
        }
      ],
      "stateMutability": "view",
      "type": "function"
    },
    {
      "inputs": [
        {
          "internalType": "bytes32",
          "name": "CertificateHash",
          "type": "bytes32"
        },
        {
          "internalType": "address",
          "name": "holder",
          "type": "address"
        }
      ],
      "name": "retrieveCertificateProvider",
      "outputs": [
        {
          "internalType": "address",
          "name": "",
          "type": "address"
        }
      ],
      "stateMutability": "view",
      "type": "function"
    },
    {
      "inputs": [
        {
          "internalType": "address",
          "name": "holder",
          "type": "address"
        },
        {
          "internalType": "uint256",
          "name": "skipFirst",
          "type": "uint256"
        },
        {
          "internalType": "uint256",
          "name": "max",
          "type": "uint256"
        }
      ],
      "name": "retrieveCertificatesByHolder",
      "outputs": [
        {
          "internalType": "bytes32[]",
          "name": "",
          "type": "bytes32[]"
        }
      ],
      "stateMutability": "view",
      "type": "function"
    },
    {
      "inputs": [],
      "name": "retrieveContractConfig",
      "outputs": [
        {
          "internalType": "string",
          "name": "",
          "type": "string"
        },
        {
          "internalType": "string",
          "name": "",
          "type": "string"
        }
      ],
      "stateMutability": "view",
      "type": "function"
    },
    {
      "inputs": [],
      "name": "retrieveManagerContract",
      "outputs": [
        {
          "internalType": "address",
          "name": "",
          "type": "address"
        }
      ],
      "stateMutability": "view",
      "type": "function"
    },
    {
      "inputs": [],
      "name": "retrieveMinOwners",
      "outputs": [
        {
          "internalType": "uint256",
          "name": "",
          "type": "uint256"
        }
      ],
      "stateMutability": "view",
      "type": "function"
    },
    {
      "inputs": [
        {
          "internalType": "address",
          "name": "addr",
          "type": "address"
        },
        {
          "internalType": "uint256",
          "name": "nonce",
          "type": "uint256"
        }
      ],
      "name": "retrieveNonce",
      "outputs": [
        {
          "internalType": "bool",
          "name": "",
          "type": "bool"
        }
      ],
      "stateMutability": "view",
      "type": "function"
    },
    {
      "inputs": [
        {
          "internalType": "address",
          "name": "owner",
          "type": "address"
        }
      ],
      "name": "retrieveOwner",
      "outputs": [
        {
          "components": [
            {
              "internalType": "string",
              "name": "_Info",
              "type": "string"
            },
            {
              "internalType": "bool",
              "name": "_activated",
              "type": "bool"
            },
            {
              "internalType": "uint256",
              "name": "_id",
              "type": "uint256"
            },
            {
              "internalType": "uint256",
              "name": "_pendingId",
              "type": "uint256"
            },
            {
              "internalType": "address[]",
              "name": "_Validations",
              "type": "address[]"
            },
            {
              "internalType": "address[]",
              "name": "_Rejections",
              "type": "address[]"
            }
          ],
          "internalType": "struct ItemsLibrary._itemIdentity",
          "name": "",
          "type": "tuple"
        }
      ],
      "stateMutability": "view",
      "type": "function"
    },
    {
      "inputs": [],
      "name": "retrievePendingMinOwners",
      "outputs": [
        {
          "internalType": "uint256",
          "name": "",
          "type": "uint256"
        }
      ],
      "stateMutability": "view",
      "type": "function"
    },
    {
      "inputs": [],
      "name": "retrievePendingMinOwnersStatus",
      "outputs": [
        {
          "internalType": "uint256",
          "name": "",
          "type": "uint256"
        },
        {
          "internalType": "uint256",
          "name": "",
          "type": "uint256"
        },
        {
          "internalType": "address[]",
          "name": "",
          "type": "address[]"
        }
      ],
      "stateMutability": "view",
      "type": "function"
    },
    {
      "inputs": [
        {
          "internalType": "bool",
          "name": "addedORremove",
          "type": "bool"
        }
      ],
      "name": "retrievePendingOwners",
      "outputs": [
        {
          "internalType": "bytes32[]",
          "name": "",
          "type": "bytes32[]"
        }
      ],
      "stateMutability": "view",
      "type": "function"
    },
    {
      "inputs": [
        {
          "internalType": "bool",
          "name": "addedORremove",
          "type": "bool"
        }
      ],
      "name": "retrievePendingProviders",
      "outputs": [
        {
          "internalType": "bytes32[]",
          "name": "",
          "type": "bytes32[]"
        }
      ],
      "stateMutability": "view",
      "type": "function"
    },
    {
      "inputs": [
        {
          "internalType": "address",
          "name": "provider",
          "type": "address"
        }
      ],
      "name": "retrieveProvider",
      "outputs": [
        {
          "components": [
            {
              "internalType": "string",
              "name": "_Info",
              "type": "string"
            },
            {
              "internalType": "bool",
              "name": "_activated",
              "type": "bool"
            },
            {
              "internalType": "uint256",
              "name": "_id",
              "type": "uint256"
            },
            {
              "internalType": "uint256",
              "name": "_pendingId",
              "type": "uint256"
            },
            {
              "internalType": "address[]",
              "name": "_Validations",
              "type": "address[]"
            },
            {
              "internalType": "address[]",
              "name": "_Rejections",
              "type": "address[]"
            }
          ],
          "internalType": "struct ItemsLibrary._itemIdentity",
          "name": "",
          "type": "tuple"
        }
      ],
      "stateMutability": "view",
      "type": "function"
    },
    {
      "inputs": [
        {
          "internalType": "address",
          "name": "holder",
          "type": "address"
        }
      ],
      "name": "retrieveTotalCertificatesByHolder",
      "outputs": [
        {
          "internalType": "uint256",
          "name": "",
          "type": "uint256"
        }
      ],
      "stateMutability": "view",
      "type": "function"
    },
    {
      "inputs": [
        {
          "internalType": "bytes32",
          "name": "CertificateHash",
          "type": "bytes32"
        },
        {
          "internalType": "address",
          "name": "newHolder",
          "type": "address"
        }
      ],
      "name": "transferCertificate",
      "outputs": [],
      "stateMutability": "nonpayable",
      "type": "function"
    },
    {
      "inputs": [],
      "name": "validateMinOwners",
      "outputs": [],
      "stateMutability": "nonpayable",
      "type": "function"
    },
    {
      "inputs": [
        {
          "internalType": "address",
          "name": "owner",
          "type": "address"
        }
      ],
      "name": "validateOwner",
      "outputs": [],
      "stateMutability": "nonpayable",
      "type": "function"
    },
    {
      "inputs": [
        {
          "internalType": "address",
          "name": "provider",
          "type": "address"
        }
      ],
      "name": "validateProvider",
      "outputs": [],
      "stateMutability": "nonpayable",
      "type": "function"
    },
    {
      "inputs": [
        {
          "internalType": "address[]",
          "name": "owners",
          "type": "address[]"
        },
        {
          "internalType": "uint256",
          "name": "minOwners",
          "type": "uint256"
        },
        {
          "internalType": "address",
          "name": "managerContractAddress",
          "type": "address"
        },
        {
          "internalType": "string",
          "name": "contractName",
          "type": "string"
        },
        {
          "internalType": "string",
          "name": "contractVersion",
          "type": "string"
        }
      ],
      "name": "PublicCertPool_init",
      "outputs": [],
      "stateMutability": "nonpayable",
      "type": "function"
    },
    {
      "inputs": [
        {
          "internalType": "address",
          "name": "provider",
          "type": "address"
        },
        {
          "internalType": "string",
          "name": "providerInfo",
          "type": "string"
        }
      ],
      "name": "addProvider",
      "outputs": [],
      "stateMutability": "payable",
      "type": "function"
    },
    {
      "inputs": [],
      "name": "retrieveAddCertificatePriceWei",
      "outputs": [
        {
          "internalType": "uint256",
          "name": "",
          "type": "uint256"
        }
      ],
      "stateMutability": "view",
      "type": "function"
    },
    {
      "inputs": [],
      "name": "retrieveSubscriptionPriceWei",
      "outputs": [
        {
          "internalType": "uint256",
          "name": "",
          "type": "uint256"
        }
      ],
      "stateMutability": "view",
      "type": "function"
    },
    {
      "inputs": [
        {
          "internalType": "bytes32",
          "name": "item",
          "type": "bytes32"
        },
        {
          "internalType": "uint256[]",
          "name": "ids",
          "type": "uint256[]"
        },
        {
          "internalType": "bool",
          "name": "addOrRemove",
          "type": "bool"
        }
      ],
      "name": "onItemValidated",
      "outputs": [],
      "stateMutability": "nonpayable",
      "type": "function"
    },
    {
      "inputs": [
        {
          "internalType": "bytes32",
          "name": "item",
          "type": "bytes32"
        },
        {
          "internalType": "uint256[]",
          "name": "ids",
          "type": "uint256[]"
        },
        {
          "internalType": "bool",
          "name": "addOrRemove",
          "type": "bool"
        }
      ],
      "name": "onItemRejected",
      "outputs": [],
      "stateMutability": "nonpayable",
      "type": "function"
    }
  ],
  "bytecode": "0x608060405234801561001057600080fd5b50614538806100206000396000f3fe60806040526004361061019f5760003560e01c80630b4c72a9146101a4578063173825d9146101c65780631ab807f8146101e6578063253ad5ae146101f957806327a40b4b146102195780632edbe7fc1461023957806330ade9221461025d5780633542758f1461027257806337583499146102925780633fd07181146102bf5780633feca4ca146102df5780634774779d1461033557806357e7ea2e1461034a5780635888ebb31461035f57806358a1ba25146103835780635b362e84146103b057806365b973e5146103d75780636825b263146103ec5780636b2996041461040c5780636b3a0fec1461042c5780636e4f91791461044c5780636e55d2d41461046157806376f8f90f1461048157806377bc5a1f146104a15780637c8c2add146104c15780638a355a57146104e15780638b9be25614610501578063a93d5ed614610514578063c3079ae714610529578063c66433ea1461053e578063ce33d58a1461055e578063cf2041d91461057e578063d0a4adfe1461059e578063d2116a02146105e4578063dc865ca614610607578063fc00050014610627575b600080fd5b3480156101b057600080fd5b506101c46101bf3660046137c1565b61063a565b005b3480156101d257600080fd5b506101c46101e13660046137c1565b610648565b6101c46101f4366004613ceb565b61067e565b34801561020557600080fd5b506101c4610214366004613ceb565b610695565b34801561022557600080fd5b506101c46102343660046137c1565b6108e3565b34801561024557600080fd5b506008545b6040519081526020015b60405180910390f35b34801561026957600080fd5b506101c46108ee565b34801561027e57600080fd5b506101c461028d36600461386f565b610917565b34801561029e57600080fd5b506102b26102ad3660046137c1565b610925565b6040516102549190614202565b3480156102cb57600080fd5b506101c46102da366004613d1b565b61093e565b3480156102eb57600080fd5b506103256102fa366004613942565b6001600160a01b03919091166000908152600260209081526040808320938352929052205460ff1690565b6040519015158152602001610254565b34801561034157600080fd5b5061024a61097d565b34801561035657600080fd5b5061024a610bb7565b34801561036b57600080fd5b50610374610d17565b6040516102549392919061432b565b34801561038f57600080fd5b506103a361039e36600461396e565b610d8b565b60405161025491906140da565b3480156103bc57600080fd5b50600e546001600160a01b03165b6040516102549190613fee565b3480156103e357600080fd5b5060045461024a565b3480156103f857600080fd5b506101c4610407366004613a7d565b610f31565b34801561041857600080fd5b506103a3610427366004613c98565b61116d565b34801561043857600080fd5b506103a3610447366004613c98565b61117b565b34801561045857600080fd5b506103a3611188565b34801561046d57600080fd5b5061024a61047c3660046137c1565b611199565b34801561048d57600080fd5b506101c461049c3660046137c1565b6111b7565b3480156104ad57600080fd5b506102b26104bc3660046137c1565b611212565b3480156104cd57600080fd5b506101c46104dc366004613d1b565b611226565b3480156104ed57600080fd5b506101c46104fc3660046137c1565b611265565b6101c461050f3660046137de565b611270565b34801561052057600080fd5b506103a3611299565b34801561053557600080fd5b506101c46112a6565b34801561054a57600080fd5b506101c4610559366004613e85565b6112cf565b34801561056a57600080fd5b506101c46105793660046137c1565b61133e565b34801561058a57600080fd5b506101c4610599366004613b0e565b61134a565b3480156105aa57600080fd5b506103ca6105b9366004613ceb565b6001600160a01b039081166000908152600d6020908152604080832094835293905291909120541690565b3480156105f057600080fd5b506105f96115d0565b604051610254929190614167565b34801561061357600080fd5b506101c46106223660046139d7565b6116f7565b6101c46106353660046138f3565b61177c565b610645816001611ca5565b50565b6004546001610658600354611db4565b516106639190614404565b61066d8282611eda565b61067983600354611efa565b505050565b610686611fd0565b6106913383836120ce565b5050565b336000818152600d6020908152604080832086845290915290205483906001600160a01b03166106f45760405162461bcd60e51b8152602060048201526005602482015264454331362d60d81b60448201526064015b60405180910390fd5b6001600160a01b038084166000908152600d602090815260408083208884529091529020541661074d57336000908152600d6020908152604080832087845290915290205461074d906001600160a01b031685856121d2565b6001600160a01b038084166000908152600d60208181526040808420898552825280842054338552928252808420898552909152909120548216911614156108dd57336000818152600d602081815260408084208985528083528185206001808201805483546001600160a01b031916909355879055969095529290915251637277ce1960e11b8152919273__Library_______________________________9263e4ef9c329261080592869291019060040161411e565b60006040518083038186803b15801561081d57600080fd5b505af4158015610831573d6000803e3d6000fd5b5050336000908152600d6020526040902060010154831015915061089b905057336000908152600d60205260408120600181018054849391908490811061087a5761087a6144b3565b90600052602060002001548152602001908152602001600020600101819055505b6040518581526001600160a01b0385169033907f2f721f6467540d120069c1842568b578382bd1743fab48cb9893890ae1646a8b9060200160405180910390a3505b50505050565b610645816001612263565b336108f881612339565b60016109038161237f565b3361090d816123f4565b61067960016124b4565b61067983838360035461253b565b61092d613490565b610938826001612674565b92915050565b61094a8484848461282e565b60018383600081811061095f5761095f6144b3565b9050602002013514156108dd5780156108dd576108dd8460006128a4565b600080600e60009054906101000a90046001600160a01b03166001600160a01b031663e220ad956040518163ffffffff1660e01b815260040160006040518083038186803b1580156109ce57600080fd5b505afa1580156109e2573d6000803e3d6000fd5b505050506040513d6000823e601f3d908101601f19168201604052610a0a91908101906139a3565b600281518110610a1c57610a1c6144b3565b60200260200101516001600160a01b031663b049473f6040518163ffffffff1660e01b815260040160a06040518083038186803b158015610a5c57600080fd5b505afa158015610a70573d6000803e3d6000fd5b505050506040513d601f19601f82011682018060405250810190610a949190613e9e565b50600e546040805163e220ad9560e01b815290519296506001600160a01b03909116945063e220ad9593506004808201935060009291829003018186803b158015610ade57600080fd5b505afa158015610af2573d6000803e3d6000fd5b505050506040513d6000823e601f3d908101601f19168201604052610b1a91908101906139a3565b600681518110610b2c57610b2c6144b3565b60200260200101516001600160a01b0316638d12420b826040518263ffffffff1660e01b8152600401610b6191815260200190565b60206040518083038186803b158015610b7957600080fd5b505afa158015610b8d573d6000803e3d6000fd5b505050506040513d601f19601f82011682018060405250810190610bb19190613cd2565b91505090565b600080600e60009054906101000a90046001600160a01b03166001600160a01b031663e220ad956040518163ffffffff1660e01b815260040160006040518083038186803b158015610c0857600080fd5b505afa158015610c1c573d6000803e3d6000fd5b505050506040513d6000823e601f3d908101601f19168201604052610c4491908101906139a3565b600281518110610c5657610c566144b3565b60200260200101516001600160a01b031663b049473f6040518163ffffffff1660e01b815260040160a06040518083038186803b158015610c9657600080fd5b505afa158015610caa573d6000803e3d6000fd5b505050506040513d601f19601f82011682018060405250810190610cce9190613e9e565b5050600e546040805163e220ad9560e01b815290519495506001600160a01b039091169363e220ad95935060048083019350600092829003018186803b158015610ade57600080fd5b6000806060600954600a54600b80805480602002602001604051908101604052809291908181526020018280548015610d7957602002820191906000526020600020905b81546001600160a01b03168152600190910190602001808311610d5b575b50505050509050925092509250909192565b606082610d9785611199565b11610db15750604080516000815260208101909152610f2a565b818084610dbd87611199565b610dc79190614404565b1015610de45783610dd786611199565b610de19190614404565b90505b6000816001600160401b03811115610dfe57610dfe6144c9565b604051908082528060200260200182016040528015610e27578160200160208202803683370190505b506001600160a01b0387166000908152600d6020908152604080832060010180548251818502810185019093528083529495509293909291830182828015610e8e57602002820191906000526020600020905b815481526020019060010190808311610e7a575b5050505050905060008060005b8351811015610f2157878310610eb057610f21565b81891115610eca57610ec36001836143ec565b9150610f0f565b838181518110610edc57610edc6144b3565b6020026020010151858481518110610ef657610ef66144b3565b6020908102919091010152610f0c6001846143ec565b92505b80610f1981614482565b915050610e9b565b50929450505050505b9392505050565b600754610100900460ff1680610f4a575060075460ff16155b610f665760405162461bcd60e51b81526004016106eb906141b4565b600754610100900460ff16158015610f88576007805461ffff19166101011790555b6040805160028082526060820190925290816020015b6060815260200190600190039081610f9e5750508051610fc691600c916020909101906134c8565b506040518060400160405280600581526020016427bbb732b960d91b815250600c600081548110610ff957610ff96144b3565b906000526020600020019080519060200190611016929190613525565b5060405180604001604052806008815260200167283937bb34b232b960c11b815250600c60018154811061104c5761104c6144b3565b906000526020600020019080519060200190611069929190613525565b506110748383612abd565b61115485856002600c805480602002602001604051908101604052809291908181526020016000905b828210156111495783829060005260206000200180546110bc90614447565b80601f01602080910402602001604051908101604052809291908181526020018280546110e890614447565b80156111355780601f1061110a57610100808354040283529160200191611135565b820191906000526020600020905b81548152906001019060200180831161111857829003601f168201915b50505050508152602001906001019061109d565b50505050600061134a565b8015611166576007805461ff00191690555b5050505050565b606061093882600354612ae4565b6060610938826001612ae4565b60606111946001611db4565b905090565b6001600160a01b03166000908152600d602052604090206001015490565b6111c381600354612c0f565b1515600114156112065760016111da600354611db4565b516111e59190614404565b60045411156112065760405162461bcd60e51b81526004016106eb90614195565b61064581600354612263565b61121a613490565b61093882600354612674565b6112328484848461282e565b600183836000818110611247576112476144b3565b9050602002013514156108dd5780156108dd576108dd8460016128a4565b610645816001611efa565b611278611fd0565b611286868686868686612db5565b6112918686866120ce565b505050505050565b6060611194600354611db4565b336112b081612339565b60016112bb8161237f565b336112c5816123f4565b61067960006124b4565b336112d981612339565b60006112e48161237f565b826005600354815481106112fa576112fa6144b3565b9060005260206000209060040201600101805490506113198282611eda565b6001856113268282611eda565b600887905561133560016124b4565b50505050505050565b61064581600354611ca5565b600754610100900460ff1680611363575060075460ff16155b61137f5760405162461bcd60e51b81526004016106eb906141b4565b600754610100900460ff161580156113a1576007805461ffff19166101011790555b8486516113ae8282611eda565b6001876113bb8282611eda565b865188146113f35760405162461bcd60e51b8152602060048201526005602482015264454331382d60d81b60448201526064016106eb565b600386905560005b8881101561146b576005805460010181556000528751600690899083908110611426576114266144b3565b602090810291909101810151825460018101845560009384529282902081516114589491909101929190910190613525565b508061146381614482565b9150506113fb565b50600489905560005b8a518110156115b257600073__AddressLibrary________________________63bc215e858d84815181106114ab576114ab6144b3565b60200260200101516040518263ffffffff1660e01b81526004016114cf9190613fee565b60206040518083038186803b1580156114e757600080fd5b505af41580156114fb573d6000803e3d6000fd5b505050506040513d601f19601f8201168201806040525081019061151f9190613cd2565b90506001600560035481548110611538576115386144b3565b60009182526020808320858452600492909202909101905260409020600101805460ff191691151591909117905560035460058054909190811061157e5761157e6144b3565b60009182526020808320600160049093020182018054928301815583529091200155806115aa81614482565b915050611474565b50505050508015611291576007805461ff0019169055505050505050565b606080600060018180546115e390614447565b80601f016020809104026020016040519081016040528092919081815260200182805461160f90614447565b801561165c5780601f106116315761010080835404028352916020019161165c565b820191906000526020600020905b81548152906001019060200180831161163f57829003601f168201915b5050505050915080805461166f90614447565b80601f016020809104026020016040519081016040528092919081815260200182805461169b90614447565b80156116e85780601f106116bd576101008083540402835291602001916116e8565b820191906000526020600020905b8154815290600101906020018083116116cb57829003601f168201915b50505050509050915091509091565b600754610100900460ff1680611710575060075460ff16155b61172c5760405162461bcd60e51b81526004016106eb906141b4565b600754610100900460ff1615801561174e576007805461ffff19166101011790555b61175a86868585610f31565b61176384612edb565b8015611291576007805461ff0019169055505050505050565b81611788816001612f62565b156117be5760405162461bcd60e51b81526004016106eb906020808252600490820152634543362d60e01b604082015260600190565b82600073__AddressLibrary________________________63bc215e85836040518263ffffffff1660e01b81526004016117f89190613fee565b60206040518083038186803b15801561181057600080fd5b505af4158015611824573d6000803e3d6000fd5b505050506040513d601f19601f820116820180604052508101906118489190613cd2565b905073__ItemsLibrary__________________________6226d766826005600181548110611878576118786144b3565b90600052602060002090600402016040518363ffffffff1660e01b81526004016118a392919061411e565b60206040518083038186803b1580156118bb57600080fd5b505af41580156118cf573d6000803e3d6000fd5b505050506040513d601f19601f820116820180604052508101906118f39190613cb5565b1580156119a7575073__ItemsLibrary__________________________632854ed2e82600560018154811061192a5761192a6144b3565b90600052602060002090600402016040518363ffffffff1660e01b815260040161195592919061411e565b60206040518083038186803b15801561196d57600080fd5b505af4158015611981573d6000803e3d6000fd5b505050506040513d601f19601f820116820180604052508101906119a59190613cb5565b155b6119db5760405162461bcd60e51b8152602060048201526005602482015264454332372d60d81b60448201526064016106eb565b600e60009054906101000a90046001600160a01b03166001600160a01b031663e220ad956040518163ffffffff1660e01b815260040160006040518083038186803b158015611a2957600080fd5b505afa158015611a3d573d6000803e3d6000fd5b505050506040513d6000823e601f3d908101601f19168201604052611a6591908101906139a3565b600281518110611a7757611a776144b3565b60200260200101516001600160a01b031663f0c9325e3460006040518363ffffffff1660e01b8152600401611aac919061412c565b6000604051808303818588803b158015611ac557600080fd5b505af1158015611ad9573d6000803e3d6000fd5b505060405163bc215e8560e01b81526000935073__AddressLibrary________________________925063bc215e859150611b18908990600401613fee565b60206040518083038186803b158015611b3057600080fd5b505af4158015611b44573d6000803e3d6000fd5b505050506040513d601f19601f82011682018060405250810190611b689190613cd2565b9050846005600181548110611b7f57611b7f6144b3565b600091825260208083208584526004909202909101815260409091208251611bad9391929190910190613525565b506005600181548110611bc257611bc26144b3565b6000918252602080832060026004909302019190910180546001818101835591845291909220018290556005805482908110611c0057611c006144b3565b906000526020600020906004020160020180549050611c1f9190614404565b6005600181548110611c3357611c336144b3565b9060005260206000209060040201600001600083815260200190815260200160002060030181905550856001600160a01b03167f39cde7834e26555dd63843df8459d36dd67b5bab6f4ed52349cbb03f66f542b186604051611c959190614154565b60405180910390a2505050505050565b60055460405163123bd07560e11b815282919073__Library_______________________________90632477a0ea90611ce4908590859060040161411e565b60006040518083038186803b158015611cfc57600080fd5b505af4158015611d10573d6000803e3d6000fd5b5050505033611d1e81612339565b600080611d3b87604051806020016040528060008152508861308d565b604051635cb09bcf60e01b8152919350915073__ItemsLibrary__________________________90635cb09bcf90611d7b9085908590309060040161427a565b60006040518083038186803b158015611d9357600080fd5b505af4158015611da7573d6000803e3d6000fd5b5050505050505050505050565b60055460405163123bd07560e11b8152606091839173__Library_______________________________90632477a0ea90611df5908590859060040161411e565b60006040518083038186803b158015611e0d57600080fd5b505af4158015611e21573d6000803e3d6000fd5b5050505073__ItemsLibrary__________________________6327724f4b60058681548110611e5257611e526144b3565b90600052602060002090600402016040518263ffffffff1660e01b8152600401611e7e91815260200190565b60006040518083038186803b158015611e9657600080fd5b505af4158015611eaa573d6000803e3d6000fd5b505050506040513d6000823e601f3d908101601f19168201604052611ed29190810190613c01565b949350505050565b808211156106915760405162461bcd60e51b81526004016106eb90614195565b60055460405163123bd07560e11b815282919073__Library_______________________________90632477a0ea90611f39908590859060040161411e565b60006040518083038186803b158015611f5157600080fd5b505af4158015611f65573d6000803e3d6000fd5b5050505033611f7381612339565b600080611f9087604051806020016040528060008152508861308d565b60405163e23fcdef60e01b8152919350915073__ItemsLibrary__________________________9063e23fcdef90611d7b9085908590309060040161427a565b600e60009054906101000a90046001600160a01b03166001600160a01b031663e220ad956040518163ffffffff1660e01b815260040160006040518083038186803b15801561201e57600080fd5b505afa158015612032573d6000803e3d6000fd5b505050506040513d6000823e601f3d908101601f1916820160405261205a91908101906139a3565b60028151811061206c5761206c6144b3565b60200260200101516001600160a01b031663f0c9325e3460026040518363ffffffff1660e01b81526004016120a1919061412c565b6000604051808303818588803b1580156120ba57600080fd5b505af1158015611166573d6000803e3d6000fd5b826120d881613299565b15156001146121115760405162461bcd60e51b8152602060048201526005602482015264454331322d60d81b60448201526064016106eb565b826001600160a01b038084166000908152600d602090815260408083208884529091529020548491869116156121715760405162461bcd60e51b8152602060048201526005602482015264454331352d60d81b60448201526064016106eb565b61217c8787876121d2565b846001600160a01b0316876001600160a01b03167ff55a90628981610edc26894247bee72e1963d1c9faa4ea6533fd3df39fd36ed4886040516121c191815260200190565b60405180910390a350505050505050565b6001600160a01b038181166000818152600d6020818152604080842088855280835290842080546001600160a01b031916968a1696909617909555908152600193840180548086018255818452918320909101869055919052546122369190614404565b6001600160a01b039091166000908152600d60209081526040808320948352939052919091206001015550565b60055460405163123bd07560e11b815282919073__Library_______________________________90632477a0ea906122a2908590859060040161411e565b60006040518083038186803b1580156122ba57600080fd5b505af41580156122ce573d6000803e3d6000fd5b50505050336122dc81612339565b6000806122f987604051806020016040528060008152508861308d565b604051637493a70b60e01b8152919350915073__ItemsLibrary__________________________90637493a70b90611d7b9085908590309060040161427a565b61234581600354612f62565b15156001146106455760405162461bcd60e51b81526004016106eb906020808252600490820152634543392d60e01b604082015260600190565b80156123bc576008546106455760405162461bcd60e51b8152602060048201526005602482015264454333312d60d81b60448201526064016106eb565b600854156106455760405162461bcd60e51b8152602060048201526005602482015264454333302d60d81b60448201526064016106eb565b60405163f7cf62d760e01b815273__AddressLibrary________________________9063f7cf62d79061242e908490600b90600401614002565b60206040518083038186803b15801561244657600080fd5b505af415801561245a573d6000803e3d6000fd5b505050506040513d601f19601f8201168201806040525081019061247e9190613cb5565b156106455760405162461bcd60e51b81526004016106eb906020808252600490820152634543352d60e01b604082015260600190565b80156124d8576001600960008282546124cd91906143ec565b909155506124f19050565b6001600a60008282546124eb91906143ec565b90915550505b600b80546001810182556000919091527f0175b7a638427703f0dbe7bb9bbf987a2551717b34e79f33b5b1008d1fa01db90180546001600160a01b031916331790556106456132a6565b60055460405163123bd07560e11b815282919073__Library_______________________________90632477a0ea9061257a908590859060040161411e565b60006040518083038186803b15801561259257600080fd5b505af41580156125a6573d6000803e3d6000fd5b50505050336125b481612339565b6000806125f98989898080601f0160208091040260200160405190810160405280939291908181526020018383808284376000920191909152508b925061308d915050565b6040516305cc2d5560e11b8152919350915073__ItemsLibrary__________________________90630b985aaa906126399085908590309060040161427a565b60006040518083038186803b15801561265157600080fd5b505af4158015612665573d6000803e3d6000fd5b50505050505050505050505050565b61267c613490565b60055460405163123bd07560e11b815283919073__Library_______________________________90632477a0ea906126bb908590859060040161411e565b60006040518083038186803b1580156126d357600080fd5b505af41580156126e7573d6000803e3d6000fd5b505060405163bc215e8560e01b81526000925073__AddressLibrary________________________915063bc215e8590612725908990600401613fee565b60206040518083038186803b15801561273d57600080fd5b505af4158015612751573d6000803e3d6000fd5b505050506040513d601f19601f820116820180604052508101906127759190613cd2565b905073__ItemsLibrary__________________________631aeccc6a82600588815481106127a5576127a56144b3565b90600052602060002090600402016040518363ffffffff1660e01b81526004016127d092919061411e565b60006040518083038186803b1580156127e857600080fd5b505af41580156127fc573d6000803e3d6000fd5b505050506040513d6000823e601f3d908101601f191682016040526128249190810190613dac565b9695505050505050565b6040516337ea306360e01b815233600482018190523060248301819052909173__Library_______________________________906337ea30639060440160006040518083038186803b15801561288457600080fd5b505af4158015612898573d6000803e3d6000fd5b50505050505050505050565b6000816128e25760056001815481106128bf576128bf6144b3565b600091825260208083208684526004909202909101905260409020600501612912565b60056001815481106128f6576128f66144b3565b6000918252602080832086845260049283020190526040909120015b80548060200260200160405190810160405280929190818152602001828054801561296657602002820191906000526020600020905b81546001600160a01b03168152600190910190602001808311612948575b5050505050905060005b81518110156108dd57600e60009054906101000a90046001600160a01b03166001600160a01b031663e220ad956040518163ffffffff1660e01b815260040160006040518083038186803b1580156129c757600080fd5b505afa1580156129db573d6000803e3d6000fd5b505050506040513d6000823e601f3d908101601f19168201604052612a0391908101906139a3565b600281518110612a1557612a156144b3565b60200260200101516001600160a01b031663eb1e2a41838381518110612a3d57612a3d6144b3565b602002602001015184516040518363ffffffff1660e01b8152600401612a789291906001600160a01b03929092168252602082015260400190565b600060405180830381600087803b158015612a9257600080fd5b505af1158015612aa6573d6000803e3d6000fd5b505050508080612ab590614482565b915050612970565b8151612ad0906000906020850190613525565b508051610679906001906020840190613525565b60055460405163123bd07560e11b8152606091839173__Library_______________________________90632477a0ea90612b25908590859060040161411e565b60006040518083038186803b158015612b3d57600080fd5b505af4158015612b51573d6000803e3d6000fd5b50505050606073__ItemsLibrary__________________________63e035e0068760058881548110612b8557612b856144b3565b90600052602060002090600402016040518363ffffffff1660e01b8152600401612bbb9291909115158252602082015260400190565b60006040518083038186803b158015612bd357600080fd5b505af4158015612be7573d6000803e3d6000fd5b505050506040513d6000823e601f3d908101601f191682016040526128249190810190613c01565b60055460405163123bd07560e11b8152600091839173__Library_______________________________90632477a0ea90612c50908590859060040161411e565b60006040518083038186803b158015612c6857600080fd5b505af4158015612c7c573d6000803e3d6000fd5b505060405163bc215e8560e01b81526000925073__AddressLibrary________________________915063bc215e8590612cba908990600401613fee565b60206040518083038186803b158015612cd257600080fd5b505af4158015612ce6573d6000803e3d6000fd5b505050506040513d601f19601f82011682018060405250810190612d0a9190613cd2565b905073__ItemsLibrary__________________________632854ed2e8260058881548110612d3a57612d3a6144b3565b90600052602060002090600402016040518363ffffffff1660e01b8152600401612d6592919061411e565b60206040518083038186803b158015612d7d57600080fd5b505af4158015612d91573d6000803e3d6000fd5b505050506040513d601f19601f820116820180604052508101906128249190613cb5565b81612dbf816133e0565b8684612dcb8282613417565b60405163c1bc5c3f60e01b815273__SignatureLibrary______________________9063c1bc5c3f90612e12908c908c908c908c908c908c90600090600190600401614061565b60206040518083038186803b158015612e2a57600080fd5b505af4158015612e3e573d6000803e3d6000fd5b505050506040513d601f19601f82011682018060405250810190612e629190613cb5565b1515600114612e9b5760405162461bcd60e51b8152602060048201526005602482015264454333322d60d81b60448201526064016106eb565b612ed089876001600160a01b03909116600090815260026020908152604080832093835292905220805460ff19166001179055565b505050505050505050565b600754610100900460ff1680612ef4575060075460ff16155b612f105760405162461bcd60e51b81526004016106eb906141b4565b600754610100900460ff16158015612f32576007805461ffff19166101011790555b600e80546001600160a01b0319166001600160a01b0384161790558015610691576007805461ff00191690555050565b60055460405163123bd07560e11b8152600091839173__Library_______________________________90632477a0ea90612fa3908590859060040161411e565b60006040518083038186803b158015612fbb57600080fd5b505af4158015612fcf573d6000803e3d6000fd5b505060405163bc215e8560e01b81526000925073__AddressLibrary________________________915063bc215e859061300d908990600401613fee565b60206040518083038186803b15801561302557600080fd5b505af4158015613039573d6000803e3d6000fd5b505050506040513d601f19601f8201168201806040525081019061305d9190613cd2565b905073__ItemsLibrary__________________________63dbdfbeec8260058881548110612d3a57612d3a6144b3565b6130c26040518060a0016040528060008019168152602001606081526020016000815260200160608152602001606081525090565b60008073__AddressLibrary________________________63bc215e85876040518263ffffffff1660e01b81526004016130fc9190613fee565b60206040518083038186803b15801561311457600080fd5b505af4158015613128573d6000803e3d6000fd5b505050506040513d601f19601f8201168201806040525081019061314c9190613cd2565b60408051600180825281830190925291925060009190602080830190803683370190505090508481600081518110613186576131866144b3565b60200260200101818152505060006040518060a001604052808481526020018881526020016004548152602001600688815481106131c6576131c66144b3565b9060005260206000200180546131db90614447565b80601f016020809104026020016040519081016040528092919081815260200182805461320790614447565b80156132545780601f1061322957610100808354040283529160200191613254565b820191906000526020600020905b81548152906001019060200180831161323757829003601f168201915b50505050508152602001838152509050600060058781548110613279576132796144b3565b600091825260209091209296506004029091019350505050935093915050565b6000610938826001612f62565b6009546004805460405163f6001d7d60e01b815273__ItemsLibrary__________________________9363f6001d7d936132e29391920161411e565b60206040518083038186803b1580156132fa57600080fd5b505af415801561330e573d6000803e3d6000fd5b505050506040513d601f19601f820116820180604052508101906133329190613cb5565b1561334757600854600455613345613473565b565b600a546004805460405163f6001d7d60e01b815273__ItemsLibrary__________________________9363f6001d7d936133839391920161411e565b60206040518083038186803b15801561339b57600080fd5b505af41580156133af573d6000803e3d6000fd5b505050506040513d601f19601f820116820180604052508101906133d39190613cb5565b1561334557613345613473565b8042106106455760405162461bcd60e51b8152602060048201526005602482015264454333332d60d81b60448201526064016106eb565b6001600160a01b038216600090815260026020908152604080832084845290915290205460ff16156106915760405162461bcd60e51b8152602060048201526005602482015264454333342d60d81b60448201526064016106eb565b600060088190556009819055600a81905561334590600b906135a5565b6040518060c0016040528060608152602001600015158152602001600081526020016000815260200160608152602001606081525090565b828054828255906000526020600020908101928215613515579160200282015b828111156135155782518051613505918491602090910190613525565b50916020019190600101906134e8565b506135219291506135c3565b5090565b82805461353190614447565b90600052602060002090601f0160209004810192826135535760008555613599565b82601f1061356c57805160ff1916838001178555613599565b82800160010185558215613599579182015b8281111561359957825182559160200191906001019061357e565b506135219291506135e0565b508054600082559060005260206000209081019061064591906135e0565b808211156135215760006135d782826135f5565b506001016135c3565b5b8082111561352157600081556001016135e1565b50805461360190614447565b6000825580601f10613611575050565b601f01602090049060005260206000209081019061064591906135e0565b600061364261363d846143c5565b614372565b905082815283838301111561365657600080fd5b828260208301376000602084830101529392505050565b600082601f83011261367e57600080fd5b8135602061368e61363d836143a2565b80838252828201915082860187848660051b89010111156136ae57600080fd5b60005b858110156136d65781356136c4816144df565b845292840192908401906001016136b1565b5090979650505050505050565b600082601f8301126136f457600080fd5b8151602061370461363d836143a2565b80838252828201915082860187848660051b890101111561372457600080fd5b60005b858110156136d657815161373a816144df565b84529284019290840190600101613727565b8051613757816144f4565b919050565b600082601f83011261376d57600080fd5b610f2a8383356020850161362f565b600082601f83011261378d57600080fd5b815161379b61363d826143c5565b8181528460208386010111156137b057600080fd5b611ed282602083016020870161441b565b6000602082840312156137d357600080fd5b8135610f2a816144df565b60008060008060008060c087890312156137f757600080fd5b8635613802816144df565b9550602087013594506040870135613819816144df565b9350606087013592506080870135915060a08701356001600160401b0381111561384257600080fd5b8701601f8101891361385357600080fd5b6138628982356020840161362f565b9150509295509295509295565b60008060006040848603121561388457600080fd5b833561388f816144df565b925060208401356001600160401b03808211156138ab57600080fd5b818601915086601f8301126138bf57600080fd5b8135818111156138ce57600080fd5b8760208285010111156138e057600080fd5b6020830194508093505050509250925092565b6000806040838503121561390657600080fd5b8235613911816144df565b915060208301356001600160401b0381111561392c57600080fd5b6139388582860161375c565b9150509250929050565b6000806040838503121561395557600080fd5b8235613960816144df565b946020939093013593505050565b60008060006060848603121561398357600080fd5b833561398e816144df565b95602085013595506040909401359392505050565b6000602082840312156139b557600080fd5b81516001600160401b038111156139cb57600080fd5b611ed2848285016136e3565b600080600080600060a086880312156139ef57600080fd5b85356001600160401b0380821115613a0657600080fd5b613a1289838a0161366d565b96506020880135955060408801359150613a2b826144df565b90935060608701359080821115613a4157600080fd5b613a4d89838a0161375c565b93506080880135915080821115613a6357600080fd5b50613a708882890161375c565b9150509295509295909350565b60008060008060808587031215613a9357600080fd5b84356001600160401b0380821115613aaa57600080fd5b613ab68883890161366d565b9550602087013594506040870135915080821115613ad357600080fd5b613adf8883890161375c565b93506060870135915080821115613af557600080fd5b50613b028782880161375c565b91505092959194509250565b600080600080600060a08688031215613b2657600080fd5b6001600160401b038635811015613b3c57600080fd5b613b49888835890161366d565b9550602080880135955060408801359450606088013582811115613b6c57600080fd5b8801601f81018a13613b7d57600080fd5b8035613b8b61363d826143a2565b8082825284820191508484018d868560051b8701011115613bab57600080fd5b60005b84811015613be5578782351115613bc457600080fd5b613bd38f88843589010161375c565b84529286019290860190600101613bae565b5050809750505050505050608086013590509295509295909350565b60006020808385031215613c1457600080fd5b82516001600160401b03811115613c2a57600080fd5b8301601f81018513613c3b57600080fd5b8051613c4961363d826143a2565b80828252848201915084840188868560051b8701011115613c6957600080fd5b600094505b83851015613c8c578051835260019490940193918501918501613c6e565b50979650505050505050565b600060208284031215613caa57600080fd5b8135610f2a816144f4565b600060208284031215613cc757600080fd5b8151610f2a816144f4565b600060208284031215613ce457600080fd5b5051919050565b60008060408385031215613cfe57600080fd5b823591506020830135613d10816144df565b809150509250929050565b60008060008060608587031215613d3157600080fd5b8435935060208501356001600160401b0380821115613d4f57600080fd5b818701915087601f830112613d6357600080fd5b813581811115613d7257600080fd5b8860208260051b8501011115613d8757600080fd5b6020830195508094505050506040850135613da1816144f4565b939692955090935050565b600060208284031215613dbe57600080fd5b81516001600160401b0380821115613dd557600080fd5b9083019060c08286031215613de957600080fd5b613df161434a565b825182811115613e0057600080fd5b613e0c8782860161377c565b825250613e1b6020840161374c565b60208201526040830151604082015260608301516060820152608083015182811115613e4657600080fd5b613e52878286016136e3565b60808301525060a083015182811115613e6a57600080fd5b613e76878286016136e3565b60a08301525095945050505050565b600060208284031215613e9757600080fd5b5035919050565b600080600080600060a08688031215613eb657600080fd5b5050835160208501516040860151606087015160809097015192989197509594509092509050565b600081518084526020808501945080840160005b83811015613f175781516001600160a01b031687529582019590820190600101613ef2565b509495945050505050565b60008151808452613f3a81602086016020860161441b565b601f01601f19169290920160200192915050565b8054600090600181811c9080831680613f6857607f831692505b6020808410821415613f8a57634e487b7160e01b600052602260045260246000fd5b83885260208801828015613fa55760018114613fb657613fe1565b60ff19871682528282019750613fe1565b60008981526020902060005b87811015613fdb57815484820152908601908401613fc2565b83019850505b5050505050505092915050565b6001600160a01b0391909116815260200190565b60006040820160018060a01b03808616845260206040818601528286548085526060870191508760005282600020945060005b81811015614053578554851683526001958601959284019201614035565b509098975050505050505050565b6001600160a01b0389811682526020820189905287166040820152606081018690526080810185905261010060a082018190526000906140a383820187613f22565b905082810360c08401526140b78186613f4e565b905082810360e08401526140cb8185613f4e565b9b9a5050505050505050505050565b6020808252825182820181905260009190848201906040850190845b81811015614112578351835292840192918401916001016140f6565b50909695505050505050565b918252602082015260400190565b602081016004831061414e57634e487b7160e01b600052602160045260246000fd5b91905290565b602081526000610f2a6020830184613f22565b60408152600061417a6040830185613f22565b828103602084015261418c8185613f22565b95945050505050565b602080825260059082015264454331392d60d81b604082015260600190565b6020808252602e908201527f496e697469616c697a61626c653a20636f6e747261637420697320616c72656160408201526d191e481a5b9a5d1a585b1a5e995960921b606082015260800190565b602081526000825160c0602084015261421e60e0840182613f22565b905060208401511515604084015260408401516060840152606084015160808401526080840151601f19808584030160a086015261425c8383613ede565b925060a08601519150808584030160c08601525061418c8282613ede565b6060815283516060820152600060208086015160a060808501526142a2610100850182613f22565b9050604087015160a08501526060870151605f19808684030160c08701526142ca8383613f22565b60808a015187820390920160e088015281518082529185019350600092508401905b8083101561430c57835182529284019260019290920191908401906142ec565b5092850187905250506001600160a01b03841660408401529050611ed2565b83815282602082015260606040820152600061418c6060830184613ede565b60405160c081016001600160401b038111828210171561436c5761436c6144c9565b60405290565b604051601f8201601f191681016001600160401b038111828210171561439a5761439a6144c9565b604052919050565b60006001600160401b038211156143bb576143bb6144c9565b5060051b60200190565b60006001600160401b038211156143de576143de6144c9565b50601f01601f191660200190565b600082198211156143ff576143ff61449d565b500190565b6000828210156144165761441661449d565b500390565b60005b8381101561443657818101518382015260200161441e565b838111156108dd5750506000910152565b600181811c9082168061445b57607f821691505b6020821081141561447c57634e487b7160e01b600052602260045260246000fd5b50919050565b60006000198214156144965761449661449d565b5060010190565b634e487b7160e01b600052601160045260246000fd5b634e487b7160e01b600052603260045260246000fd5b634e487b7160e01b600052604160045260246000fd5b6001600160a01b038116811461064557600080fd5b801515811461064557600080fdfea2646970667358221220242ea30a31adf63fcdf88e6695a8b16cb7d0af7d58eec4f40ee86a46868bfd4b64736f6c63430008070033",
  "immutableReferences": {},
  "source": "// SPDX-License-Identifier: GPL-3.0\r\n\r\npragma solidity 0.8.7;\r\n\r\n/*\r\n  Public Certificate Pools offer the default MultiSig Certificate Pool functionality\r\n  except for Providers Creation and Certificate Issuing since payments must be made\r\n  Besides Public Certificate Pool is a managed contract\r\n */\r\n\r\n import \"../Abstract/MultiSigCertificatesPool.sol\";\r\n import \"../Interfaces/ITreasury.sol\";\r\n import \"../Base/ManagedBaseContract.sol\";\r\n import \"../Interfaces/IPriceConverter.sol\";\r\n\r\n contract PublicCertificatesPool is MultiSigCertificatesPool, ManagedBaseContract {\r\n\r\n    // EVENTS /////////////////////////////////////////\r\n    event _NewProposal(address indexed Provider, string Info);\r\n\r\n    // MODIFIERS /////////////////////////////////////////\r\n    modifier ProviderisNotActivated(address entity){\r\n        require(false == isEntity(entity, _providerId), \"EC6-\");\r\n        _;\r\n    }\r\n\r\n    modifier ProviderisNotPending(address entity){\r\n        bytes32 entityInBytes = AddressLibrary.AddressToBytes32(entity);\r\n        require(false == ItemsLibrary.isItemPendingToAdded(entityInBytes, _Entities[_providerId]) && \r\n                false == ItemsLibrary.isItemPendingToRemoved(entityInBytes, _Entities[_providerId]), \"EC27-\");\r\n        _;\r\n    }\r\n\r\n    // CONSTRUCTOR /////////////////////////////////////////\r\n    function PublicCertPool_init(address[] memory owners,  uint256 minOwners, address managerContractAddress, string memory contractName, string memory contractVersion) public initializer {\r\n        super.MultiSigCertPool_init(owners, minOwners, contractName, contractVersion); \r\n        super.ManagedBaseContract_init(managerContractAddress); \r\n    }\r\n\r\n    // FUNCTIONALITY /////////////////////////////////////////\r\n    function addProvider(address provider, string memory providerInfo) external \r\n        ProviderisNotActivated(provider) \r\n        ProviderisNotPending(provider)\r\n    override payable\r\n    {\r\n        ITreasury(_managerContract.retrieveTransparentProxies()[uint256(Library.TransparentProxies.Treasury)]).pay{value:msg.value}(Library.Prices.NewProvider);\r\n        bytes32 providerInBytes = AddressLibrary.AddressToBytes32(provider);\r\n        _Entities[_providerId]._items[providerInBytes]._Info = providerInfo;\r\n        _Entities[_providerId]._pendingItemsAdd.push(providerInBytes);\r\n        _Entities[_providerId]._items[providerInBytes]._pendingId = _Entities[_providerId]._pendingItemsAdd.length - 1;\r\n\r\n        emit _NewProposal(provider, providerInfo);\r\n    }\r\n\r\n    function payBack(bytes32 entityInBytes, bool validatedOrRejected) internal\r\n    {\r\n        address[] memory Voters = (validatedOrRejected) ? _Entities[_providerId]._items[entityInBytes]._Validations : _Entities[_providerId]._items[entityInBytes]._Rejections;\r\n\r\n        for(uint i=0; i < Voters.length; i++){\r\n            ITreasury(_managerContract.retrieveTransparentProxies()[uint256(Library.TransparentProxies.Treasury)]).getRefund(Voters[i], Voters.length);\r\n        }\r\n    }\r\n\r\n    function onBeforeAddCertificate() internal override \r\n    {\r\n        ITreasury(_managerContract.retrieveTransparentProxies()[uint256(Library.TransparentProxies.Treasury)]).pay{value:msg.value}(Library.Prices.NewCertificate);\r\n    }\r\n\r\n    function retrieveAddCertificatePriceWei() external override view returns(uint256)\r\n    {\r\n        (, , , uint Price, ) = ITreasury(_managerContract.retrieveTransparentProxies()[uint256(Library.TransparentProxies.Treasury)]).retrieveSettings();\r\n        return IPriceConverter(_managerContract.retrieveTransparentProxies()[uint256(Library.TransparentProxies.PriceConverter)]).fromUSDToETH(Price);\r\n    }\r\n\r\n    function retrieveSubscriptionPriceWei() external override virtual view returns(uint256)\r\n    {\r\n        (uint Price, , , , ) = ITreasury(_managerContract.retrieveTransparentProxies()[uint256(Library.TransparentProxies.Treasury)]).retrieveSettings();\r\n        return IPriceConverter(_managerContract.retrieveTransparentProxies()[uint256(Library.TransparentProxies.PriceConverter)]).fromUSDToETH(Price);\r\n    }\r\n\r\n    // Callback functions\r\n    function onItemValidated(bytes32 item, uint256[] calldata ids, bool addOrRemove) public override \r\n    {\r\n        super.onItemValidated(item, ids, addOrRemove);\r\n\r\n        if(ids[0] == _providerId){\r\n            if(addOrRemove)payBack(item, true);\r\n        }\r\n    }\r\n\r\n    function onItemRejected(bytes32 item, uint256[] calldata ids, bool addOrRemove) public override  \r\n    {\r\n        super.onItemRejected(item, ids, addOrRemove);\r\n\r\n        if(ids[0] == _providerId){\r\n            if(addOrRemove)payBack(item, false);\r\n        }\r\n    }\r\n\r\n }",
  "sourcePath": "C:\\Users\\d-aam\\GitHub\\Certificates\\contracts\\DeployedContracts\\PublicCertificatesPool.sol",
  "compiler": {
    "name": "solc",
    "version": "0.8.7+commit.e28d00a7.Emscripten.clang"
  },
  "schemaVersion": "3.4.3",
  "updatedAt": "2022-01-20T13:57:50.954Z",
  "devdoc": {
    "kind": "dev",
    "methods": {},
    "version": 1
  },
  "userdoc": {
    "kind": "user",
    "methods": {},
    "version": 1
  }
}