{
  "contractName": "PublicCertificatesPool",
  "abi": [
    {
      "inputs": [
        {
          "internalType": "address[]",
          "name": "owners",
          "type": "address[]"
        },
        {
          "internalType": "uint256",
          "name": "minOwners",
          "type": "uint256"
        }
      ],
      "stateMutability": "payable",
      "type": "constructor"
    },
    {
      "anonymous": false,
      "inputs": [
        {
          "indexed": false,
          "internalType": "address",
          "name": "",
          "type": "address"
        },
        {
          "indexed": false,
          "internalType": "address",
          "name": "",
          "type": "address"
        },
        {
          "indexed": false,
          "internalType": "uint256",
          "name": "",
          "type": "uint256"
        }
      ],
      "name": "_AddCertificateIdEvent",
      "type": "event"
    },
    {
      "anonymous": false,
      "inputs": [
        {
          "indexed": false,
          "internalType": "string",
          "name": "",
          "type": "string"
        },
        {
          "indexed": false,
          "internalType": "address",
          "name": "",
          "type": "address"
        }
      ],
      "name": "_AddEntityValidationIdEvent",
      "type": "event"
    },
    {
      "anonymous": false,
      "inputs": [
        {
          "indexed": false,
          "internalType": "address",
          "name": "",
          "type": "address"
        },
        {
          "indexed": false,
          "internalType": "address",
          "name": "",
          "type": "address"
        },
        {
          "indexed": false,
          "internalType": "uint256",
          "name": "",
          "type": "uint256"
        }
      ],
      "name": "_RemoveCertificateIdEvent",
      "type": "event"
    },
    {
      "anonymous": false,
      "inputs": [
        {
          "indexed": false,
          "internalType": "string",
          "name": "",
          "type": "string"
        },
        {
          "indexed": false,
          "internalType": "address",
          "name": "",
          "type": "address"
        }
      ],
      "name": "_RemoveEntityValidationIdEvent",
      "type": "event"
    },
    {
      "anonymous": false,
      "inputs": [
        {
          "indexed": false,
          "internalType": "address",
          "name": "",
          "type": "address"
        },
        {
          "indexed": false,
          "internalType": "address",
          "name": "",
          "type": "address"
        },
        {
          "indexed": false,
          "internalType": "uint256",
          "name": "",
          "type": "uint256"
        }
      ],
      "name": "_UpdateCertificateIdEvent",
      "type": "event"
    },
    {
      "inputs": [
        {
          "internalType": "string",
          "name": "CertificateContent",
          "type": "string"
        },
        {
          "internalType": "string",
          "name": "CertificateLocation",
          "type": "string"
        },
        {
          "internalType": "bytes",
          "name": "CertificateHash",
          "type": "bytes"
        },
        {
          "internalType": "address",
          "name": "holder",
          "type": "address"
        }
      ],
      "name": "addCertificate",
      "outputs": [],
      "stateMutability": "nonpayable",
      "type": "function"
    },
    {
      "inputs": [
        {
          "internalType": "address",
          "name": "owner",
          "type": "address"
        },
        {
          "internalType": "string",
          "name": "ownerInfo",
          "type": "string"
        }
      ],
      "name": "addOwner",
      "outputs": [],
      "stateMutability": "nonpayable",
      "type": "function"
    },
    {
      "inputs": [
        {
          "internalType": "address",
          "name": "owner",
          "type": "address"
        }
      ],
      "name": "isOwner",
      "outputs": [
        {
          "internalType": "bool",
          "name": "",
          "type": "bool"
        }
      ],
      "stateMutability": "view",
      "type": "function"
    },
    {
      "inputs": [
        {
          "internalType": "address",
          "name": "provider",
          "type": "address"
        }
      ],
      "name": "isProvider",
      "outputs": [
        {
          "internalType": "bool",
          "name": "",
          "type": "bool"
        }
      ],
      "stateMutability": "view",
      "type": "function"
    },
    {
      "inputs": [
        {
          "internalType": "uint256",
          "name": "CertificateId",
          "type": "uint256"
        },
        {
          "internalType": "address",
          "name": "holder",
          "type": "address"
        }
      ],
      "name": "removeCertificate",
      "outputs": [],
      "stateMutability": "nonpayable",
      "type": "function"
    },
    {
      "inputs": [
        {
          "internalType": "address",
          "name": "owner",
          "type": "address"
        }
      ],
      "name": "removeOwner",
      "outputs": [],
      "stateMutability": "nonpayable",
      "type": "function"
    },
    {
      "inputs": [
        {
          "internalType": "address",
          "name": "provider",
          "type": "address"
        }
      ],
      "name": "removeProvider",
      "outputs": [],
      "stateMutability": "nonpayable",
      "type": "function"
    },
    {
      "inputs": [],
      "name": "retrieveAllOwners",
      "outputs": [
        {
          "internalType": "address[]",
          "name": "",
          "type": "address[]"
        }
      ],
      "stateMutability": "view",
      "type": "function"
    },
    {
      "inputs": [],
      "name": "retrieveAllProviders",
      "outputs": [
        {
          "internalType": "address[]",
          "name": "",
          "type": "address[]"
        }
      ],
      "stateMutability": "view",
      "type": "function"
    },
    {
      "inputs": [
        {
          "internalType": "uint256",
          "name": "CertificateId",
          "type": "uint256"
        },
        {
          "internalType": "address",
          "name": "holder",
          "type": "address"
        }
      ],
      "name": "retrieveCertificate",
      "outputs": [
        {
          "internalType": "address",
          "name": "",
          "type": "address"
        },
        {
          "internalType": "string",
          "name": "",
          "type": "string"
        },
        {
          "internalType": "string",
          "name": "",
          "type": "string"
        },
        {
          "internalType": "bytes",
          "name": "",
          "type": "bytes"
        }
      ],
      "stateMutability": "view",
      "type": "function"
    },
    {
      "inputs": [
        {
          "internalType": "address",
          "name": "provider",
          "type": "address"
        },
        {
          "internalType": "address",
          "name": "holder",
          "type": "address"
        }
      ],
      "name": "retrieveCertificatesByProviderAndHolder",
      "outputs": [
        {
          "internalType": "uint256[]",
          "name": "",
          "type": "uint256[]"
        }
      ],
      "stateMutability": "view",
      "type": "function"
    },
    {
      "inputs": [
        {
          "internalType": "address",
          "name": "owner",
          "type": "address"
        }
      ],
      "name": "retrieveOwner",
      "outputs": [
        {
          "internalType": "string",
          "name": "",
          "type": "string"
        }
      ],
      "stateMutability": "view",
      "type": "function"
    },
    {
      "inputs": [
        {
          "internalType": "address",
          "name": "provider",
          "type": "address"
        }
      ],
      "name": "retrieveProvider",
      "outputs": [
        {
          "internalType": "string",
          "name": "",
          "type": "string"
        }
      ],
      "stateMutability": "view",
      "type": "function"
    },
    {
      "inputs": [
        {
          "internalType": "address",
          "name": "holder",
          "type": "address"
        }
      ],
      "name": "retrieveTotalCertificatesByHolder",
      "outputs": [
        {
          "internalType": "uint256",
          "name": "",
          "type": "uint256"
        }
      ],
      "stateMutability": "view",
      "type": "function"
    },
    {
      "inputs": [
        {
          "internalType": "address",
          "name": "provider",
          "type": "address"
        },
        {
          "internalType": "address",
          "name": "holder",
          "type": "address"
        }
      ],
      "name": "retrieveTotalCertificatesByProviderAndHolder",
      "outputs": [
        {
          "internalType": "uint256",
          "name": "",
          "type": "uint256"
        }
      ],
      "stateMutability": "view",
      "type": "function"
    },
    {
      "inputs": [],
      "name": "retrieveTotalOwners",
      "outputs": [
        {
          "internalType": "uint256",
          "name": "",
          "type": "uint256"
        }
      ],
      "stateMutability": "view",
      "type": "function"
    },
    {
      "inputs": [],
      "name": "retrieveTotalProviders",
      "outputs": [
        {
          "internalType": "uint256",
          "name": "",
          "type": "uint256"
        }
      ],
      "stateMutability": "view",
      "type": "function"
    },
    {
      "inputs": [
        {
          "internalType": "uint256",
          "name": "CertificateId",
          "type": "uint256"
        },
        {
          "internalType": "address",
          "name": "holder",
          "type": "address"
        },
        {
          "internalType": "string",
          "name": "CertificateContent",
          "type": "string"
        },
        {
          "internalType": "string",
          "name": "CertificateLocation",
          "type": "string"
        },
        {
          "internalType": "bytes",
          "name": "CertificateHash",
          "type": "bytes"
        }
      ],
      "name": "updateCertificate",
      "outputs": [],
      "stateMutability": "nonpayable",
      "type": "function"
    },
    {
      "inputs": [
        {
          "internalType": "address",
          "name": "owner",
          "type": "address"
        },
        {
          "internalType": "string",
          "name": "ownerInfo",
          "type": "string"
        }
      ],
      "name": "updateOwner",
      "outputs": [],
      "stateMutability": "nonpayable",
      "type": "function"
    },
    {
      "inputs": [
        {
          "internalType": "address",
          "name": "provider",
          "type": "address"
        },
        {
          "internalType": "string",
          "name": "providerInfo",
          "type": "string"
        }
      ],
      "name": "updateProvider",
      "outputs": [],
      "stateMutability": "nonpayable",
      "type": "function"
    },
    {
      "inputs": [
        {
          "internalType": "address",
          "name": "provider",
          "type": "address"
        },
        {
          "internalType": "string",
          "name": "providerInfo",
          "type": "string"
        }
      ],
      "name": "addProvider",
      "outputs": [],
      "stateMutability": "nonpayable",
      "type": "function"
    },
    {
      "inputs": [
        {
          "internalType": "address",
          "name": "provider",
          "type": "address"
        }
      ],
      "name": "validateProvider",
      "outputs": [],
      "stateMutability": "nonpayable",
      "type": "function"
    }
  ],
  "bytecode": "0x608060405260405180604001604052806040518060400160405280600581526020017f4f776e657200000000000000000000000000000000000000000000000000000081525081526020016040518060400160405280600881526020017f50726f76696465720000000000000000000000000000000000000000000000008152508152506005906002620000959291906200060d565b50604051620063a8380380620063a883398181016040526040811015620000bb57600080fd5b8101908080516040519392919084640100000000821115620000dc57600080fd5b83820191506020820185811115620000f357600080fd5b82518660208202830111640100000000821117156200011157600080fd5b8083526020830192505050908051906020019060200280838360005b838110156200014a5780820151818401526020810190506200012d565b50505050905001604052602001805190602001909291905050508181818160026005805480602002602001604051908101604052809291908181526020016000905b828210156200024e578382906000526020600020018054600181600116156101000203166002900480601f016020809104026020016040519081016040528092919081815260200182805460018160011615610100020316600290048015620002395780601f106200020d5761010080835404028352916020019162000239565b820191906000526020600020905b8154815290600101906020018083116200021b57829003601f168201915b5050505050815260200190600101906200018c565b5050505060008451841115620002b0576040517f08c379a000000000000000000000000000000000000000000000000000000000815260040180806020018281038252603c8152602001806200636c603c913960400191505060405180910390fd5b6000841162000327576040517f08c379a00000000000000000000000000000000000000000000000000000000081526004018080602001828103825260188152602001807f4174206c656173742031206d696e696d756d206f776e6572000000000000000081525060200191505060405180910390fd5b815183146200039e576040517f08c379a000000000000000000000000000000000000000000000000000000000815260040180806020018281038252601d8152602001807f4e6f7420656e6f756768206f7220746f6f206d616e79206c6162656c7300000081525060200191505060405180910390fd5b8060008190555060005b838110156200044c5760046001816001815401808255809150500390600052602060002090505060026001816001815401808255809150500390600052602060002050506003838281518110620003fb57fe5b60200260200101519080600181540180825580915050600190039060005260206000200160009091909190915090805190602001906200043d92919062000674565b508080600101915050620003a8565b508360018190555060005b8551811015620005bc5760016004600054815481106200047357fe5b906000526020600020906002020160000160008884815181106200049357fe5b602002602001015173ffffffffffffffffffffffffffffffffffffffff1673ffffffffffffffffffffffffffffffffffffffff16815260200190815260200160002060010160006101000a81548160ff021916908315150217905550600460005481548110620004ff57fe5b90600052602060002090600202016001018682815181106200051d57fe5b60200260200101519080600181540180825580915050600190039060005260206000200160009091909190916101000a81548173ffffffffffffffffffffffffffffffffffffffff021916908373ffffffffffffffffffffffffffffffffffffffff16021790555060016002600054815481106200059757fe5b9060005260206000200160008282540192505081905550808060010191505062000457565b505050505050505033600760006101000a81548173ffffffffffffffffffffffffffffffffffffffff021916908373ffffffffffffffffffffffffffffffffffffffff16021790555050506200079e565b82805482825590600052602060002090810192821562000661579160200282015b82811115620006605782518290805190602001906200064f92919062000674565b50916020019190600101906200062e565b5b5090506200067091906200070b565b5090565b828054600181600116156101000203166002900490600052602060002090601f016020900481019282620006ac5760008555620006f8565b82601f10620006c757805160ff1916838001178555620006f8565b82800160010185558215620006f8579182015b82811115620006f7578251825591602001919060010190620006da565b5b50905062000707919062000733565b5090565b5b808211156200072f576000818162000725919062000752565b506001016200070c565b5090565b5b808211156200074e57600081600090555060010162000734565b5090565b50805460018160011615610100020316600290046000825580601f106200077a57506200079b565b601f0160209004906000526020600020908101906200079a919062000733565b5b50565b615bbe80620007ae6000396000f3fe608060405234801561001057600080fd5b50600436106101425760003560e01c806377bc5a1f116100b85780639fc104361161007c5780639fc1043614610c49578063a93d5ed614610d24578063d744d2f314610d83578063eefe768114610da1578063fc00050014610dbf578063fd90ae7614610e9a57610142565b806377bc5a1f1461067357806382ff66a3146107305780638a355a57146109395780639a90be9e1461097d5780639df6652814610a3657610142565b80633542758f1161010a5780633542758f1461037c57806337583499146104575780633bc6fe0e146105145780636b074a07146105625780636e4f9179146105bc5780636e55d2d41461061b57610142565b80631270db7a146101475780631660c22a146101bf578063173825d91461029a57806327a40b4b146102de5780632f54bf6e14610322575b600080fd5b6101a96004803603604081101561015d57600080fd5b81019080803573ffffffffffffffffffffffffffffffffffffffff169060200190929190803573ffffffffffffffffffffffffffffffffffffffff169060200190929190505050611056565b6040518082815260200191505060405180910390f35b610298600480360360408110156101d557600080fd5b81019080803573ffffffffffffffffffffffffffffffffffffffff1690602001909291908035906020019064010000000081111561021257600080fd5b82018360208201111561022457600080fd5b8035906020019184600183028401116401000000008311171561024657600080fd5b91908080601f016020809104026020016040519081016040528093929190818152602001838380828437600081840152601f19601f820116905080830192505050505050509192919290505050611178565b005b6102dc600480360360208110156102b057600080fd5b81019080803573ffffffffffffffffffffffffffffffffffffffff169060200190929190505050611188565b005b610320600480360360208110156102f457600080fd5b81019080803573ffffffffffffffffffffffffffffffffffffffff169060200190929190505050611197565b005b6103646004803603602081101561033857600080fd5b81019080803573ffffffffffffffffffffffffffffffffffffffff169060200190929190505050611d92565b60405180821515815260200191505060405180910390f35b6104556004803603604081101561039257600080fd5b81019080803573ffffffffffffffffffffffffffffffffffffffff169060200190929190803590602001906401000000008111156103cf57600080fd5b8201836020820111156103e157600080fd5b8035906020019184600183028401116401000000008311171561040357600080fd5b91908080601f016020809104026020016040519081016040528093929190818152602001838380828437600081840152601f19601f820116905080830192505050505050509192919290505050611da7565b005b6104996004803603602081101561046d57600080fd5b81019080803573ffffffffffffffffffffffffffffffffffffffff169060200190929190505050611db8565b6040518080602001828103825283818151815260200191508051906020019080838360005b838110156104d95780820151818401526020810190506104be565b50505050905090810190601f1680156105065780820380516001836020036101000a031916815260200191505b509250505060405180910390f35b6105606004803603604081101561052a57600080fd5b8101908080359060200190929190803573ffffffffffffffffffffffffffffffffffffffff169060200190929190505050611dcc565b005b6105a46004803603602081101561057857600080fd5b81019080803573ffffffffffffffffffffffffffffffffffffffff169060200190929190505050612265565b60405180821515815260200191505060405180910390f35b6105c4612279565b6040518080602001828103825283818151815260200191508051906020019060200280838360005b838110156106075780820151818401526020810190506105ec565b505050509050019250505060405180910390f35b61065d6004803603602081101561063157600080fd5b81019080803573ffffffffffffffffffffffffffffffffffffffff16906020019092919050505061228a565b6040518082815260200191505060405180910390f35b6106b56004803603602081101561068957600080fd5b81019080803573ffffffffffffffffffffffffffffffffffffffff1690602001909291905050506122d6565b6040518080602001828103825283818151815260200191508051906020019080838360005b838110156106f55780820151818401526020810190506106da565b50505050905090810190601f1680156107225780820380516001836020036101000a031916815260200191505b509250505060405180910390f35b6109376004803603608081101561074657600080fd5b810190808035906020019064010000000081111561076357600080fd5b82018360208201111561077557600080fd5b8035906020019184600183028401116401000000008311171561079757600080fd5b91908080601f016020809104026020016040519081016040528093929190818152602001838380828437600081840152601f19601f820116905080830192505050505050509192919290803590602001906401000000008111156107fa57600080fd5b82018360208201111561080c57600080fd5b8035906020019184600183028401116401000000008311171561082e57600080fd5b91908080601f016020809104026020016040519081016040528093929190818152602001838380828437600081840152601f19601f8201169050808301925050505050505091929192908035906020019064010000000081111561089157600080fd5b8201836020820111156108a357600080fd5b803590602001918460018302840111640100000000831117156108c557600080fd5b91908080601f016020809104026020016040519081016040528093929190818152602001838380828437600081840152601f19601f820116905080830192505050505050509192919290803573ffffffffffffffffffffffffffffffffffffffff1690602001909291905050506122eb565b005b61097b6004803603602081101561094f57600080fd5b81019080803573ffffffffffffffffffffffffffffffffffffffff1690602001909291905050506125e3565b005b6109df6004803603604081101561099357600080fd5b81019080803573ffffffffffffffffffffffffffffffffffffffff169060200190929190803573ffffffffffffffffffffffffffffffffffffffff1690602001909291905050506125f1565b6040518080602001828103825283818151815260200191508051906020019060200280838360005b83811015610a22578082015181840152602081019050610a07565b505050509050019250505060405180910390f35b610c47600480360360a0811015610a4c57600080fd5b8101908080359060200190929190803573ffffffffffffffffffffffffffffffffffffffff16906020019092919080359060200190640100000000811115610a9357600080fd5b820183602082011115610aa557600080fd5b80359060200191846001830284011164010000000083111715610ac757600080fd5b91908080601f016020809104026020016040519081016040528093929190818152602001838380828437600081840152601f19601f82011690508083019250505050505050919291929080359060200190640100000000811115610b2a57600080fd5b820183602082011115610b3c57600080fd5b80359060200191846001830284011164010000000083111715610b5e57600080fd5b91908080601f016020809104026020016040519081016040528093929190818152602001838380828437600081840152601f19601f82011690508083019250505050505050919291929080359060200190640100000000811115610bc157600080fd5b820183602082011115610bd357600080fd5b80359060200191846001830284011164010000000083111715610bf557600080fd5b91908080601f016020809104026020016040519081016040528093929190818152602001838380828437600081840152601f19601f82011690508083019250505050505050919291929050505061277d565b005b610d2260048036036040811015610c5f57600080fd5b81019080803573ffffffffffffffffffffffffffffffffffffffff16906020019092919080359060200190640100000000811115610c9c57600080fd5b820183602082011115610cae57600080fd5b80359060200191846001830284011164010000000083111715610cd057600080fd5b91908080601f016020809104026020016040519081016040528093929190818152602001838380828437600081840152601f19601f820116905080830192505050505050509192919290505050612c9c565b005b610d2c612cad565b6040518080602001828103825283818151815260200191508051906020019060200280838360005b83811015610d6f578082015181840152602081019050610d54565b505050509050019250505060405180910390f35b610d8b612cbf565b6040518082815260200191505060405180910390f35b610da9612cd0565b6040518082815260200191505060405180910390f35b610e9860048036036040811015610dd557600080fd5b81019080803573ffffffffffffffffffffffffffffffffffffffff16906020019092919080359060200190640100000000811115610e1257600080fd5b820183602082011115610e2457600080fd5b80359060200191846001830284011164010000000083111715610e4657600080fd5b91908080601f016020809104026020016040519081016040528093929190818152602001838380828437600081840152601f19601f820116905080830192505050505050509192919290505050612ce2565b005b610ee660048036036040811015610eb057600080fd5b8101908080359060200190929190803573ffffffffffffffffffffffffffffffffffffffff169060200190929190505050612fe1565b604051808573ffffffffffffffffffffffffffffffffffffffff168152602001806020018060200180602001848103845287818151815260200191508051906020019080838360005b83811015610f4a578082015181840152602081019050610f2f565b50505050905090810190601f168015610f775780820380516001836020036101000a031916815260200191505b50848103835286818151815260200191508051906020019080838360005b83811015610fb0578082015181840152602081019050610f95565b50505050905090810190601f168015610fdd5780820380516001836020036101000a031916815260200191505b50848103825285818151815260200191508051906020019080838360005b83811015611016578082015181840152602081019050610ffb565b50505050905090810190601f1680156110435780820380516001836020036101000a031916815260200191505b5097505050505050505060405180910390f35b6000806000905060005b600660008573ffffffffffffffffffffffffffffffffffffffff1673ffffffffffffffffffffffffffffffffffffffff1681526020019081526020016000208054905081101561116d578473ffffffffffffffffffffffffffffffffffffffff16600660008673ffffffffffffffffffffffffffffffffffffffff1673ffffffffffffffffffffffffffffffffffffffff168152602001908152602001600020828154811061110b57fe5b906000526020600020906004020160000160009054906101000a900473ffffffffffffffffffffffffffffffffffffffff1673ffffffffffffffffffffffffffffffffffffffff161415611160576001820191505b8080600101915050611060565b508091505092915050565b611184828260016134ab565b5050565b611194816000546138b2565b50565b60018181151560001515141561125557600860008273ffffffffffffffffffffffffffffffffffffffff1673ffffffffffffffffffffffffffffffffffffffff16815260200190815260200160002060009054906101000a900460ff1615156000151514611250576040517f08c379a0000000000000000000000000000000000000000000000000000000008152600401808060200182810382526029815260200180615b606029913960400191505060405180910390fd5b6112ff565b600860008273ffffffffffffffffffffffffffffffffffffffff1673ffffffffffffffffffffffffffffffffffffffff16815260200190815260200160002060009054906101000a900460ff16151560011515146112fe576040517f08c379a0000000000000000000000000000000000000000000000000000000008152600401808060200182810382526024815260200180615add6024913960400191505060405180910390fd5b5b61130833611d92565b15156001151514611364576040517f08c379a000000000000000000000000000000000000000000000000000000000815260040180806020018281038252602e815260200180615b01602e913960400191505060405180910390fd5b60008360018215156000151514156114e45761138082826144ad565b151560001515146003828154811061139457fe5b9060005260206000200160405160200180828054600181600116156101000203166002900480156113fc5780601f106113da5761010080835404028352918201916113fc565b820191906000526020600020905b8154815290600101906020018083116113e8575b5050807f20616c7265616479206163746976617465640000000000000000000000000000815250601201915050604051602081830303815290604052906114de576040517f08c379a00000000000000000000000000000000000000000000000000000000081526004018080602001828103825283818151815260200191508051906020019080838360005b838110156114a3578082015181840152602081019050611488565b50505050905090810190601f1680156114d05780820380516001836020036101000a031916815260200191505b509250505060405180910390fd5b5061164e565b6114ee82826144ad565b151560011515146003828154811061150257fe5b90600052602060002001604051602001808280546001816001161561010002031660029004801561156a5780601f1061154857610100808354040283529182019161156a565b820191906000526020600020905b815481529060010190602001808311611556575b5050807f206d7573742062652061637469766174656400000000000000000000000000008152506012019150506040516020818303038152906040529061164c576040517f08c379a00000000000000000000000000000000000000000000000000000000081526004018080602001828103825283818151815260200191508051906020019080838360005b838110156116115780820151818401526020810190506115f6565b50505050905090810190601f16801561163e5780820380516001836020036101000a031916815260200191505b509250505060405180910390fd5b505b60008660006040518060400160405280601781526020017f4f776e65722068617320616c726561647920766f746564000000000000000000815250905082600181111561169757fe5b6001808111156116a357fe5b1415611808576004600054815481106116b857fe5b906000526020600020906002020160000160008373ffffffffffffffffffffffffffffffffffffffff1673ffffffffffffffffffffffffffffffffffffffff16815260200190815260200160002060060160003373ffffffffffffffffffffffffffffffffffffffff1673ffffffffffffffffffffffffffffffffffffffff16815260200190815260200160002060009054906101000a900460ff16151560001515148190611802576040517f08c379a00000000000000000000000000000000000000000000000000000000081526004018080602001828103825283818151815260200191508051906020019080838360005b838110156117c75780820151818401526020810190506117ac565b50505050905090810190601f1680156117f45780820380516001836020036101000a031916815260200191505b509250505060405180910390fd5b50611963565b60046000548154811061181757fe5b906000526020600020906002020160000160008373ffffffffffffffffffffffffffffffffffffffff1673ffffffffffffffffffffffffffffffffffffffff16815260200190815260200160002060040160003373ffffffffffffffffffffffffffffffffffffffff1673ffffffffffffffffffffffffffffffffffffffff16815260200190815260200160002060009054906101000a900460ff16151560001515148190611961576040517f08c379a00000000000000000000000000000000000000000000000000000000081526004018080602001828103825283818151815260200191508051906020019080838360005b8381101561192657808201518184015260208101905061190b565b50505050905090810190601f1680156119535780820380516001836020036101000a031916815260200191505b509250505060405180910390fd5b505b6001600460018154811061197357fe5b906000526020600020906002020160000160008b73ffffffffffffffffffffffffffffffffffffffff1673ffffffffffffffffffffffffffffffffffffffff16815260200190815260200160002060030160008282540192505081905550600160046001815481106119e157fe5b906000526020600020906002020160000160008b73ffffffffffffffffffffffffffffffffffffffff1673ffffffffffffffffffffffffffffffffffffffff16815260200190815260200160002060040160003373ffffffffffffffffffffffffffffffffffffffff1673ffffffffffffffffffffffffffffffffffffffff16815260200190815260200160002060006101000a81548160ff021916908315150217905550611aee6004600181548110611a9757fe5b906000526020600020906002020160000160008b73ffffffffffffffffffffffffffffffffffffffff1673ffffffffffffffffffffffffffffffffffffffff16815260200190815260200160002060030154614523565b15611d875760016004600181548110611b0357fe5b906000526020600020906002020160000160008b73ffffffffffffffffffffffffffffffffffffffff1673ffffffffffffffffffffffffffffffffffffffff16815260200190815260200160002060010160006101000a81548160ff0219169083151502179055506004600181548110611b7957fe5b9060005260206000209060020201600101805490506004600181548110611b9c57fe5b906000526020600020906002020160000160008b73ffffffffffffffffffffffffffffffffffffffff1673ffffffffffffffffffffffffffffffffffffffff168152602001908152602001600020600001819055506004600181548110611bff57fe5b9060005260206000209060020201600101899080600181540180825580915050600190039060005260206000200160009091909190916101000a81548173ffffffffffffffffffffffffffffffffffffffff021916908373ffffffffffffffffffffffffffffffffffffffff16021790555060016002600181548110611c8157fe5b90600052602060002001600082825401925050819055507f3c139d46a211844e248647688545a37c07c505c999c1232d1247c707dc0a91e26003600181548110611cc757fe5b906000526020600020018a60405180806020018373ffffffffffffffffffffffffffffffffffffffff168152602001828103825284818154600181600116156101000203166002900481526020019150805460018160011615610100020316600290048015611d775780601f10611d4c57610100808354040283529160200191611d77565b820191906000526020600020905b815481529060010190602001808311611d5a57829003601f168201915b5050935050505060405180910390a15b505050505050505050565b6000611da0826000546144ad565b9050919050565b611db48282600054614542565b5050565b6060611dc58260016151ba565b9050919050565b611dd533612265565b15156001151514611e31576040517f08c379a0000000000000000000000000000000000000000000000000000000008152600401808060200182810382526031815260200180615aac6031913960400191505060405180910390fd5b81600660008373ffffffffffffffffffffffffffffffffffffffff1673ffffffffffffffffffffffffffffffffffffffff1681526020019081526020016000208054905073__Library_______________________________632477a0ea83836040518363ffffffff1660e01b8152600401808381526020018281526020019250505060206040518083038186803b158015611ecc57600080fd5b505af4158015611ee0573d6000803e3d6000fd5b505050506040513d6020811015611ef657600080fd5b810190808051906020019092919050505015156001151514611f80576040517f08c379a00000000000000000000000000000000000000000000000000000000081526004018080602001828103825260148152602001807f70726f76696465642049642069732077726f6e6700000000000000000000000081525060200191505060405180910390fd5b8284600660008373ffffffffffffffffffffffffffffffffffffffff1673ffffffffffffffffffffffffffffffffffffffff1681526020019081526020016000208181548110611fcc57fe5b906000526020600020906004020160000160009054906101000a900473ffffffffffffffffffffffffffffffffffffffff1673ffffffffffffffffffffffffffffffffffffffff163373ffffffffffffffffffffffffffffffffffffffff16148061206257508173ffffffffffffffffffffffffffffffffffffffff163373ffffffffffffffffffffffffffffffffffffffff16145b6120b7576040517f08c379a0000000000000000000000000000000000000000000000000000000008152600401808060200182810382526031815260200180615b2f6031913960400191505060405180910390fd5b6000600660008773ffffffffffffffffffffffffffffffffffffffff1673ffffffffffffffffffffffffffffffffffffffff168152602001908152602001600020878154811061210357fe5b906000526020600020906004020160000160009054906101000a900473ffffffffffffffffffffffffffffffffffffffff169050600660008773ffffffffffffffffffffffffffffffffffffffff1673ffffffffffffffffffffffffffffffffffffffff168152602001908152602001600020878154811061218157fe5b9060005260206000209060040201600080820160006101000a81549073ffffffffffffffffffffffffffffffffffffffff02191690556001820160006121c791906158b1565b6002820160006121d791906158b1565b6003820160006121e791906158f9565b50507f709d6b1b4d6f0b57a9f43c17f08c02648af8d37929b58caa594a4b03b8424687818789604051808473ffffffffffffffffffffffffffffffffffffffff1681526020018373ffffffffffffffffffffffffffffffffffffffff168152602001828152602001935050505060405180910390a150505050505050565b60006122728260016144ad565b9050919050565b606061228560016155a7565b905090565b6000600660008373ffffffffffffffffffffffffffffffffffffffff1673ffffffffffffffffffffffffffffffffffffffff168152602001908152602001600020805490509050919050565b60606122e4826000546151ba565b9050919050565b6122f433612265565b15156001151514612350576040517f08c379a0000000000000000000000000000000000000000000000000000000008152600401808060200182810382526031815260200180615aac6031913960400191505060405180910390fd5b8151600010801561236e575082516000108061236d575083516000105b5b6123e0576040517f08c379a00000000000000000000000000000000000000000000000000000000081526004018080602001828103825260148152602001807f436572746966696361746520697320656d70747900000000000000000000000081525060200191505060405180910390fd5b600660008273ffffffffffffffffffffffffffffffffffffffff1673ffffffffffffffffffffffffffffffffffffffff16815260200190815260200160002060405180608001604052803373ffffffffffffffffffffffffffffffffffffffff16815260200186815260200185815260200184815250908060018154018082558091505060019003906000526020600020906004020160009091909190915060008201518160000160006101000a81548173ffffffffffffffffffffffffffffffffffffffff021916908373ffffffffffffffffffffffffffffffffffffffff16021790555060208201518160010190805190602001906124e2929190615941565b5060408201518160020190805190602001906124ff929190615941565b50606082015181600301908051906020019061251c9291906159cf565b50505060006001600660008473ffffffffffffffffffffffffffffffffffffffff1673ffffffffffffffffffffffffffffffffffffffff168152602001908152602001600020805490500390507f76f4df91a34263fc533728c4689dd106f547d04117b44c2f5606efdbc184bdde338383604051808473ffffffffffffffffffffffffffffffffffffffff1681526020018373ffffffffffffffffffffffffffffffffffffffff168152602001828152602001935050505060405180910390a15050505050565b6125ee8160016138b2565b50565b606060006125ff8484611056565b67ffffffffffffffff8111801561261557600080fd5b506040519080825280602002602001820160405280156126445781602001602082028036833780820191505090505b5090506000805b600660008673ffffffffffffffffffffffffffffffffffffffff1673ffffffffffffffffffffffffffffffffffffffff16815260200190815260200160002080549050811015612771578573ffffffffffffffffffffffffffffffffffffffff16600660008773ffffffffffffffffffffffffffffffffffffffff1673ffffffffffffffffffffffffffffffffffffffff16815260200190815260200160002082815481106126f657fe5b906000526020600020906004020160000160009054906101000a900473ffffffffffffffffffffffffffffffffffffffff1673ffffffffffffffffffffffffffffffffffffffff161415612764578083838151811061275157fe5b6020026020010181815250506001820191505b808060010191505061264b565b50819250505092915050565b61278633612265565b151560011515146127e2576040517f08c379a0000000000000000000000000000000000000000000000000000000008152600401808060200182810382526031815260200180615aac6031913960400191505060405180910390fd5b84600660008673ffffffffffffffffffffffffffffffffffffffff1673ffffffffffffffffffffffffffffffffffffffff1681526020019081526020016000208054905073__Library_______________________________632477a0ea83836040518363ffffffff1660e01b8152600401808381526020018281526020019250505060206040518083038186803b15801561287d57600080fd5b505af4158015612891573d6000803e3d6000fd5b505050506040513d60208110156128a757600080fd5b810190808051906020019092919050505015156001151514612931576040517f08c379a00000000000000000000000000000000000000000000000000000000081526004018080602001828103825260148152602001807f70726f76696465642049642069732077726f6e6700000000000000000000000081525060200191505060405180910390fd5b8587600660008373ffffffffffffffffffffffffffffffffffffffff1673ffffffffffffffffffffffffffffffffffffffff168152602001908152602001600020818154811061297d57fe5b906000526020600020906004020160000160009054906101000a900473ffffffffffffffffffffffffffffffffffffffff1673ffffffffffffffffffffffffffffffffffffffff163373ffffffffffffffffffffffffffffffffffffffff1614612a32576040517f08c379a0000000000000000000000000000000000000000000000000000000008152600401808060200182810382526031815260200180615a7b6031913960400191505060405180910390fd5b865160001015612aad5786600660008a73ffffffffffffffffffffffffffffffffffffffff1673ffffffffffffffffffffffffffffffffffffffff1681526020019081526020016000208a81548110612a8757fe5b90600052602060002090600402016001019080519060200190612aab929190615941565b505b855160001015612b285785600660008a73ffffffffffffffffffffffffffffffffffffffff1673ffffffffffffffffffffffffffffffffffffffff1681526020019081526020016000208a81548110612b0257fe5b90600052602060002090600402016002019080519060200190612b26929190615941565b505b845160001015612ba35784600660008a73ffffffffffffffffffffffffffffffffffffffff1673ffffffffffffffffffffffffffffffffffffffff1681526020019081526020016000208a81548110612b7d57fe5b90600052602060002090600402016003019080519060200190612ba19291906159cf565b505b7f736a6334743f8e5fff8d835332a115f2c34c1bbf6e2384459e1a24e0540bd47c600660008a73ffffffffffffffffffffffffffffffffffffffff1673ffffffffffffffffffffffffffffffffffffffff1681526020019081526020016000208a81548110612c0e57fe5b906000526020600020906004020160000160009054906101000a900473ffffffffffffffffffffffffffffffffffffffff16898b604051808473ffffffffffffffffffffffffffffffffffffffff1681526020018373ffffffffffffffffffffffffffffffffffffffff168152602001828152602001935050505060405180910390a1505050505050505050565b612ca982826000546134ab565b5050565b6060612cba6000546155a7565b905090565b6000612ccb6001615890565b905090565b6000612cdd600054615890565b905090565b600760009054906101000a900473ffffffffffffffffffffffffffffffffffffffff168073ffffffffffffffffffffffffffffffffffffffff163373ffffffffffffffffffffffffffffffffffffffff1614612da6576040517f08c379a00000000000000000000000000000000000000000000000000000000081526004018080602001828103825260168152602001807f49742069732077686f2069742073686f756c642062650000000000000000000081525060200191505060405180910390fd5b600083811515600015151415612e6457600860008273ffffffffffffffffffffffffffffffffffffffff1673ffffffffffffffffffffffffffffffffffffffff16815260200190815260200160002060009054906101000a900460ff1615156000151514612e5f576040517f08c379a0000000000000000000000000000000000000000000000000000000008152600401808060200182810382526029815260200180615b606029913960400191505060405180910390fd5b612f0e565b600860008273ffffffffffffffffffffffffffffffffffffffff1673ffffffffffffffffffffffffffffffffffffffff16815260200190815260200160002060009054906101000a900460ff1615156001151514612f0d576040517f08c379a0000000000000000000000000000000000000000000000000000000008152600401808060200182810382526024815260200180615add6024913960400191505060405180910390fd5b5b836004600181548110612f1d57fe5b906000526020600020906002020160000160008773ffffffffffffffffffffffffffffffffffffffff1673ffffffffffffffffffffffffffffffffffffffff1681526020019081526020016000206002019080519060200190612f81929190615941565b506001600860008773ffffffffffffffffffffffffffffffffffffffff1673ffffffffffffffffffffffffffffffffffffffff16815260200190815260200160002060006101000a81548160ff0219169083151502179055505050505050565b6000606080606085600660008773ffffffffffffffffffffffffffffffffffffffff1673ffffffffffffffffffffffffffffffffffffffff1681526020019081526020016000208054905073__Library_______________________________632477a0ea83836040518363ffffffff1660e01b8152600401808381526020018281526020019250505060206040518083038186803b15801561308357600080fd5b505af4158015613097573d6000803e3d6000fd5b505050506040513d60208110156130ad57600080fd5b810190808051906020019092919050505015156001151514613137576040517f08c379a00000000000000000000000000000000000000000000000000000000081526004018080602001828103825260148152602001807f70726f76696465642049642069732077726f6e6700000000000000000000000081525060200191505060405180910390fd5b600660008873ffffffffffffffffffffffffffffffffffffffff1673ffffffffffffffffffffffffffffffffffffffff168152602001908152602001600020888154811061318157fe5b906000526020600020906004020160000160009054906101000a900473ffffffffffffffffffffffffffffffffffffffff16600660008973ffffffffffffffffffffffffffffffffffffffff1673ffffffffffffffffffffffffffffffffffffffff16815260200190815260200160002089815481106131fd57fe5b9060005260206000209060040201600101600660008a73ffffffffffffffffffffffffffffffffffffffff1673ffffffffffffffffffffffffffffffffffffffff1681526020019081526020016000208a8154811061325857fe5b9060005260206000209060040201600201600660008b73ffffffffffffffffffffffffffffffffffffffff1673ffffffffffffffffffffffffffffffffffffffff1681526020019081526020016000208b815481106132b357fe5b9060005260206000209060040201600301828054600181600116156101000203166002900480601f0160208091040260200160405190810160405280929190818152602001828054600181600116156101000203166002900480156133595780601f1061332e57610100808354040283529160200191613359565b820191906000526020600020905b81548152906001019060200180831161333c57829003601f168201915b50505050509250818054600181600116156101000203166002900480601f0160208091040260200160405190810160405280929190818152602001828054600181600116156101000203166002900480156133f55780601f106133ca576101008083540402835291602001916133f5565b820191906000526020600020905b8154815290600101906020018083116133d857829003601f168201915b50505050509150808054600181600116156101000203166002900480601f0160208091040260200160405190810160405280929190818152602001828054600181600116156101000203166002900480156134915780601f1061346657610100808354040283529160200191613491565b820191906000526020600020905b81548152906001019060200180831161347457829003601f168201915b505050505090509550955095509550505092959194509250565b828073ffffffffffffffffffffffffffffffffffffffff163373ffffffffffffffffffffffffffffffffffffffff161461354d576040517f08c379a00000000000000000000000000000000000000000000000000000000081526004018080602001828103825260168152602001807f49742069732077686f2069742073686f756c642062650000000000000000000081525060200191505060405180910390fd5b600184838215156000151514156136cc5761356882826144ad565b151560001515146003828154811061357c57fe5b9060005260206000200160405160200180828054600181600116156101000203166002900480156135e45780601f106135c25761010080835404028352918201916135e4565b820191906000526020600020905b8154815290600101906020018083116135d0575b5050807f20616c7265616479206163746976617465640000000000000000000000000000815250601201915050604051602081830303815290604052906136c6576040517f08c379a00000000000000000000000000000000000000000000000000000000081526004018080602001828103825283818151815260200191508051906020019080838360005b8381101561368b578082015181840152602081019050613670565b50505050905090810190601f1680156136b85780820380516001836020036101000a031916815260200191505b509250505060405180910390fd5b50613836565b6136d682826144ad565b15156001151514600382815481106136ea57fe5b9060005260206000200160405160200180828054600181600116156101000203166002900480156137525780601f10613730576101008083540402835291820191613752565b820191906000526020600020905b81548152906001019060200180831161373e575b5050807f206d75737420626520616374697661746564000000000000000000000000000081525060120191505060405160208183030381529060405290613834576040517f08c379a00000000000000000000000000000000000000000000000000000000081526004018080602001828103825283818151815260200191508051906020019080838360005b838110156137f95780820151818401526020810190506137de565b50505050905090810190601f1680156138265780820380516001836020036101000a031916815260200191505b509250505060405180910390fd5b505b856004868154811061384457fe5b906000526020600020906002020160000160008973ffffffffffffffffffffffffffffffffffffffff1673ffffffffffffffffffffffffffffffffffffffff16815260200190815260200160002060020190805190602001906138a8929190615941565b5050505050505050565b8060028054905073__Library_______________________________632477a0ea83836040518363ffffffff1660e01b8152600401808381526020018281526020019250505060206040518083038186803b15801561391057600080fd5b505af4158015613924573d6000803e3d6000fd5b505050506040513d602081101561393a57600080fd5b8101908080519060200190929190505050151560011515146139c4576040517f08c379a00000000000000000000000000000000000000000000000000000000081526004018080602001828103825260148152602001807f70726f76696465642049642069732077726f6e6700000000000000000000000081525060200191505060405180910390fd5b836139ce33611d92565b1515600115151480613a0b57508073ffffffffffffffffffffffffffffffffffffffff163373ffffffffffffffffffffffffffffffffffffffff16145b613a7d576040517f08c379a000000000000000000000000000000000000000000000000000000000815260040180806020018281038252601c8152602001807f4e6f7420616c6c6f77656420746f2072656d6f766520656e746974790000000081525060200191505060405180910390fd5b60018585821515600015151415613bfc57613a9882826144ad565b1515600015151460038281548110613aac57fe5b906000526020600020016040516020018082805460018160011615610100020316600290048015613b145780601f10613af2576101008083540402835291820191613b14565b820191906000526020600020905b815481529060010190602001808311613b00575b5050807f20616c726561647920616374697661746564000000000000000000000000000081525060120191505060405160208183030381529060405290613bf6576040517f08c379a00000000000000000000000000000000000000000000000000000000081526004018080602001828103825283818151815260200191508051906020019080838360005b83811015613bbb578082015181840152602081019050613ba0565b50505050905090810190601f168015613be85780820380516001836020036101000a031916815260200191505b509250505060405180910390fd5b50613d66565b613c0682826144ad565b1515600115151460038281548110613c1a57fe5b906000526020600020016040516020018082805460018160011615610100020316600290048015613c825780601f10613c60576101008083540402835291820191613c82565b820191906000526020600020905b815481529060010190602001808311613c6e575b5050807f206d75737420626520616374697661746564000000000000000000000000000081525060120191505060405160208183030381529060405290613d64576040517f08c379a00000000000000000000000000000000000000000000000000000000081526004018080602001828103825283818151815260200191508051906020019080838360005b83811015613d29578082015181840152602081019050613d0e565b50505050905090810190601f168015613d565780820380516001836020036101000a031916815260200191505b509250505060405180910390fd5b505b60018860006040518060400160405280601781526020017f4f776e65722068617320616c726561647920766f7465640000000000000000008152509050826001811115613daf57fe5b600180811115613dbb57fe5b1415613f2057600460005481548110613dd057fe5b906000526020600020906002020160000160008373ffffffffffffffffffffffffffffffffffffffff1673ffffffffffffffffffffffffffffffffffffffff16815260200190815260200160002060060160003373ffffffffffffffffffffffffffffffffffffffff1673ffffffffffffffffffffffffffffffffffffffff16815260200190815260200160002060009054906101000a900460ff16151560001515148190613f1a576040517f08c379a00000000000000000000000000000000000000000000000000000000081526004018080602001828103825283818151815260200191508051906020019080838360005b83811015613edf578082015181840152602081019050613ec4565b50505050905090810190601f168015613f0c5780820380516001836020036101000a031916815260200191505b509250505060405180910390fd5b5061407b565b600460005481548110613f2f57fe5b906000526020600020906002020160000160008373ffffffffffffffffffffffffffffffffffffffff1673ffffffffffffffffffffffffffffffffffffffff16815260200190815260200160002060040160003373ffffffffffffffffffffffffffffffffffffffff1673ffffffffffffffffffffffffffffffffffffffff16815260200190815260200160002060009054906101000a900460ff16151560001515148190614079576040517f08c379a00000000000000000000000000000000000000000000000000000000081526004018080602001828103825283818151815260200191508051906020019080838360005b8381101561403e578082015181840152602081019050614023565b50505050905090810190601f16801561406b5780820380516001836020036101000a031916815260200191505b509250505060405180910390fd5b505b600160048b8154811061408a57fe5b906000526020600020906002020160000160008d73ffffffffffffffffffffffffffffffffffffffff1673ffffffffffffffffffffffffffffffffffffffff16815260200190815260200160002060050160008282540192505081905550600160048b815481106140f757fe5b906000526020600020906002020160000160008d73ffffffffffffffffffffffffffffffffffffffff1673ffffffffffffffffffffffffffffffffffffffff16815260200190815260200160002060060160003373ffffffffffffffffffffffffffffffffffffffff1673ffffffffffffffffffffffffffffffffffffffff16815260200190815260200160002060006101000a81548160ff0219169083151502179055508a73ffffffffffffffffffffffffffffffffffffffff163373ffffffffffffffffffffffffffffffffffffffff161480614239575061423860048b815481106141e157fe5b906000526020600020906002020160000160008d73ffffffffffffffffffffffffffffffffffffffff1673ffffffffffffffffffffffffffffffffffffffff16815260200190815260200160002060050154614523565b5b156144a05760048a8154811061424b57fe5b906000526020600020906002020160010160048b8154811061426957fe5b906000526020600020906002020160000160008d73ffffffffffffffffffffffffffffffffffffffff1673ffffffffffffffffffffffffffffffffffffffff16815260200190815260200160002060000154815481106142c557fe5b9060005260206000200160006101000a81549073ffffffffffffffffffffffffffffffffffffffff021916905560048a815481106142ff57fe5b906000526020600020906002020160000160008c73ffffffffffffffffffffffffffffffffffffffff1673ffffffffffffffffffffffffffffffffffffffff1681526020019081526020016000206000808201600090556001820160006101000a81549060ff021916905560028201600061437a91906158b1565b600382016000905560058201600090555050600160028b8154811061439b57fe5b90600052602060002001600082825403925050819055507f1f62d535f971041db7bd8760bf0f1f9f476461558744a35c0d477b5ad6893e8960038b815481106143e057fe5b906000526020600020018c60405180806020018373ffffffffffffffffffffffffffffffffffffffff1681526020018281038252848181546001816001161561010002031660029004815260200191508054600181600116156101000203166002900480156144905780601f1061446557610100808354040283529160200191614490565b820191906000526020600020905b81548152906001019060200180831161447357829003601f168201915b5050935050505060405180910390a15b5050505050505050505050565b6000600482815481106144bc57fe5b906000526020600020906002020160000160008473ffffffffffffffffffffffffffffffffffffffff1673ffffffffffffffffffffffffffffffffffffffff16815260200190815260200160002060010160009054906101000a900460ff16905092915050565b6000600154821015614538576000905061453d565b600190505b919050565b8060028054905073__Library_______________________________632477a0ea83836040518363ffffffff1660e01b8152600401808381526020018281526020019250505060206040518083038186803b1580156145a057600080fd5b505af41580156145b4573d6000803e3d6000fd5b505050506040513d60208110156145ca57600080fd5b810190808051906020019092919050505015156001151514614654576040517f08c379a00000000000000000000000000000000000000000000000000000000081526004018080602001828103825260148152602001807f70726f76696465642049642069732077726f6e6700000000000000000000000081525060200191505060405180910390fd5b61465d33611d92565b151560011515146146b9576040517f08c379a000000000000000000000000000000000000000000000000000000000815260040180806020018281038252602e815260200180615b01602e913960400191505060405180910390fd5b60008584821515600015151415614838576146d482826144ad565b15156000151514600382815481106146e857fe5b9060005260206000200160405160200180828054600181600116156101000203166002900480156147505780601f1061472e576101008083540402835291820191614750565b820191906000526020600020905b81548152906001019060200180831161473c575b5050807f20616c726561647920616374697661746564000000000000000000000000000081525060120191505060405160208183030381529060405290614832576040517f08c379a00000000000000000000000000000000000000000000000000000000081526004018080602001828103825283818151815260200191508051906020019080838360005b838110156147f75780820151818401526020810190506147dc565b50505050905090810190601f1680156148245780820380516001836020036101000a031916815260200191505b509250505060405180910390fd5b506149a2565b61484282826144ad565b151560011515146003828154811061485657fe5b9060005260206000200160405160200180828054600181600116156101000203166002900480156148be5780601f1061489c5761010080835404028352918201916148be565b820191906000526020600020905b8154815290600101906020018083116148aa575b5050807f206d757374206265206163746976617465640000000000000000000000000000815250601201915050604051602081830303815290604052906149a0576040517f08c379a00000000000000000000000000000000000000000000000000000000081526004018080602001828103825283818151815260200191508051906020019080838360005b8381101561496557808201518184015260208101905061494a565b50505050905090810190601f1680156149925780820380516001836020036101000a031916815260200191505b509250505060405180910390fd5b505b60008860006040518060400160405280601781526020017f4f776e65722068617320616c726561647920766f74656400000000000000000081525090508260018111156149eb57fe5b6001808111156149f757fe5b1415614b5c57600460005481548110614a0c57fe5b906000526020600020906002020160000160008373ffffffffffffffffffffffffffffffffffffffff1673ffffffffffffffffffffffffffffffffffffffff16815260200190815260200160002060060160003373ffffffffffffffffffffffffffffffffffffffff1673ffffffffffffffffffffffffffffffffffffffff16815260200190815260200160002060009054906101000a900460ff16151560001515148190614b56576040517f08c379a00000000000000000000000000000000000000000000000000000000081526004018080602001828103825283818151815260200191508051906020019080838360005b83811015614b1b578082015181840152602081019050614b00565b50505050905090810190601f168015614b485780820380516001836020036101000a031916815260200191505b509250505060405180910390fd5b50614cb7565b600460005481548110614b6b57fe5b906000526020600020906002020160000160008373ffffffffffffffffffffffffffffffffffffffff1673ffffffffffffffffffffffffffffffffffffffff16815260200190815260200160002060040160003373ffffffffffffffffffffffffffffffffffffffff1673ffffffffffffffffffffffffffffffffffffffff16815260200190815260200160002060009054906101000a900460ff16151560001515148190614cb5576040517f08c379a00000000000000000000000000000000000000000000000000000000081526004018080602001828103825283818151815260200191508051906020019080838360005b83811015614c7a578082015181840152602081019050614c5f565b50505050905090810190601f168015614ca75780820380516001836020036101000a031916815260200191505b509250505060405180910390fd5b505b60048981548110614cc457fe5b906000526020600020906002020160000160008c73ffffffffffffffffffffffffffffffffffffffff1673ffffffffffffffffffffffffffffffffffffffff1681526020019081526020016000206003015460001415614d92578960048a81548110614d2c57fe5b906000526020600020906002020160000160008d73ffffffffffffffffffffffffffffffffffffffff1673ffffffffffffffffffffffffffffffffffffffff1681526020019081526020016000206002019080519060200190614d90929190615941565b505b600160048a81548110614da157fe5b906000526020600020906002020160000160008d73ffffffffffffffffffffffffffffffffffffffff1673ffffffffffffffffffffffffffffffffffffffff16815260200190815260200160002060030160008282540192505081905550600160048a81548110614e0e57fe5b906000526020600020906002020160000160008d73ffffffffffffffffffffffffffffffffffffffff1673ffffffffffffffffffffffffffffffffffffffff16815260200190815260200160002060040160003373ffffffffffffffffffffffffffffffffffffffff1673ffffffffffffffffffffffffffffffffffffffff16815260200190815260200160002060006101000a81548160ff021916908315150217905550614f1a60048a81548110614ec357fe5b906000526020600020906002020160000160008d73ffffffffffffffffffffffffffffffffffffffff1673ffffffffffffffffffffffffffffffffffffffff16815260200190815260200160002060030154614523565b156151ad57600160048a81548110614f2e57fe5b906000526020600020906002020160000160008d73ffffffffffffffffffffffffffffffffffffffff1673ffffffffffffffffffffffffffffffffffffffff16815260200190815260200160002060010160006101000a81548160ff02191690831515021790555060048981548110614fa357fe5b90600052602060002090600202016001018054905060048a81548110614fc557fe5b906000526020600020906002020160000160008d73ffffffffffffffffffffffffffffffffffffffff1673ffffffffffffffffffffffffffffffffffffffff168152602001908152602001600020600001819055506004898154811061502757fe5b90600052602060002090600202016001018b9080600181540180825580915050600190039060005260206000200160009091909190916101000a81548173ffffffffffffffffffffffffffffffffffffffff021916908373ffffffffffffffffffffffffffffffffffffffff160217905550600160028a815481106150a857fe5b90600052602060002001600082825401925050819055507f3c139d46a211844e248647688545a37c07c505c999c1232d1247c707dc0a91e260038a815481106150ed57fe5b906000526020600020018c60405180806020018373ffffffffffffffffffffffffffffffffffffffff16815260200182810382528481815460018160011615610100020316600290048152602001915080546001816001161561010002031660029004801561519d5780601f106151725761010080835404028352916020019161519d565b820191906000526020600020905b81548152906001019060200180831161518057829003601f168201915b5050935050505060405180910390a15b5050505050505050505050565b60606001838382151560001515141561533b576151d782826144ad565b15156000151514600382815481106151eb57fe5b9060005260206000200160405160200180828054600181600116156101000203166002900480156152535780601f10615231576101008083540402835291820191615253565b820191906000526020600020905b81548152906001019060200180831161523f575b5050807f20616c726561647920616374697661746564000000000000000000000000000081525060120191505060405160208183030381529060405290615335576040517f08c379a00000000000000000000000000000000000000000000000000000000081526004018080602001828103825283818151815260200191508051906020019080838360005b838110156152fa5780820151818401526020810190506152df565b50505050905090810190601f1680156153275780820380516001836020036101000a031916815260200191505b509250505060405180910390fd5b506154a5565b61534582826144ad565b151560011515146003828154811061535957fe5b9060005260206000200160405160200180828054600181600116156101000203166002900480156153c15780601f1061539f5761010080835404028352918201916153c1565b820191906000526020600020905b8154815290600101906020018083116153ad575b5050807f206d757374206265206163746976617465640000000000000000000000000000815250601201915050604051602081830303815290604052906154a3576040517f08c379a00000000000000000000000000000000000000000000000000000000081526004018080602001828103825283818151815260200191508051906020019080838360005b8381101561546857808201518184015260208101905061544d565b50505050905090810190601f1680156154955780820380516001836020036101000a031916815260200191505b509250505060405180910390fd5b505b600485815481106154b257fe5b906000526020600020906002020160000160008773ffffffffffffffffffffffffffffffffffffffff1673ffffffffffffffffffffffffffffffffffffffff1681526020019081526020016000206002018054600181600116156101000203166002900480601f0160208091040260200160405190810160405280929190818152602001828054600181600116156101000203166002900480156155975780601f1061556c57610100808354040283529160200191615597565b820191906000526020600020905b81548152906001019060200180831161557a57829003601f168201915b5050505050935050505092915050565b60608160028054905073__Library_______________________________632477a0ea83836040518363ffffffff1660e01b8152600401808381526020018281526020019250505060206040518083038186803b15801561560757600080fd5b505af415801561561b573d6000803e3d6000fd5b505050506040513d602081101561563157600080fd5b8101908080519060200190929190505050151560011515146156bb576040517f08c379a00000000000000000000000000000000000000000000000000000000081526004018080602001828103825260148152602001807f70726f76696465642049642069732077726f6e6700000000000000000000000081525060200191505060405180910390fd5b6000600285815481106156ca57fe5b906000526020600020015467ffffffffffffffff811180156156eb57600080fd5b5060405190808252806020026020018201604052801561571a5781602001602082028036833780820191505090505b509050600080600090505b6004878154811061573257fe5b906000526020600020906002020160010180549050811015615883576004878154811061575b57fe5b9060005260206000209060020201600101818154811061577757fe5b9060005260206000200160009054906101000a900473ffffffffffffffffffffffffffffffffffffffff1673ffffffffffffffffffffffffffffffffffffffff16600073ffffffffffffffffffffffffffffffffffffffff161461587657600487815481106157e257fe5b906000526020600020906002020160010181815481106157fe57fe5b9060005260206000200160009054906101000a900473ffffffffffffffffffffffffffffffffffffffff1683838151811061583557fe5b602002602001019073ffffffffffffffffffffffffffffffffffffffff16908173ffffffffffffffffffffffffffffffffffffffff16815250506001820191505b8080600101915050615725565b5081945050505050919050565b60006002828154811061589f57fe5b90600052602060002001549050919050565b50805460018160011615610100020316600290046000825580601f106158d757506158f6565b601f0160209004906000526020600020908101906158f59190615a5d565b5b50565b50805460018160011615610100020316600290046000825580601f1061591f575061593e565b601f01602090049060005260206000209081019061593d9190615a5d565b5b50565b828054600181600116156101000203166002900490600052602060002090601f01602090048101928261597757600085556159be565b82601f1061599057805160ff19168380011785556159be565b828001600101855582156159be579182015b828111156159bd5782518255916020019190600101906159a2565b5b5090506159cb9190615a5d565b5090565b828054600181600116156101000203166002900490600052602060002090601f016020900481019282615a055760008555615a4c565b82601f10615a1e57805160ff1916838001178555615a4c565b82800160010185558215615a4c579182015b82811115615a4b578251825591602001919060010190615a30565b5b509050615a599190615a5d565b5090565b5b80821115615a76576000816000905550600101615a5e565b509056fe4e6f7420616c6c6f77656420746f20757064617465207468697320706172746963756c61722043657274696669636174654f6e6c792050726f7669646572732061726520616c6c6f77656420746f20706572666f726d207468697320616374696f6e50726f7669646572206e6f74207375626d697465642062792043726561746f72207965744f6e6c79204f776e6572732061726520616c6c6f77656420746f20706572666f726d207468697320616374696f6e4e6f7420616c6c6f77656420746f2072656d6f7665207468697320706172746963756c617220436572746966696361746550726f766964657220616c726561647920616374697661746564206f7220696e2070726f6772657373a26469706673582212202d4911b47444ba6bbe12872d304bd1223ced183b4e8b90de3b03a5206b96718264736f6c634300070600334e6f7420656e6f756768206f776e6572732070726f766964656420746f206d65657420746865206d696e4f776e65727320726571756972656d656e74",
  "immutableReferences": {},
  "source": "// SPDX-License-Identifier: GPL-3.0\r\n\r\npragma solidity >=0.7.0 <0.9.0;\r\n\r\n/**\r\n * @title Storage\r\n * @dev Store & retrieve value in a variable\r\n */\r\n\r\n import \"./CertificatesPool.sol\";\r\n\r\n /* \r\n Like Private Certificates except that Providers must be sent from \"Creator\" who is not an owner\r\n */\r\n\r\n contract PublicCertificatesPool is CertificatesPool {\r\n\r\n     address _creator;\r\n     mapping(address => bool) _submitedByCreator;\r\n\r\n     //modifiers\r\n    modifier hasBeenSubmitted(bool YesOrNo, address provider){\r\n        if(false == YesOrNo) require(false == _submitedByCreator[provider], \"Provider already activated or in progress\");\r\n        else require(true == _submitedByCreator[provider], \"Provider not submited by Creator yet\");\r\n        _;\r\n    }\r\n\r\n     // Constructor\r\n    constructor(address[] memory owners,  uint256 minOwners) CertificatesPool(owners, minOwners) payable {\r\n        _creator = msg.sender;\r\n    }\r\n\r\n    function addProvider(address provider, string memory providerInfo) external \r\n        isSomeoneSpecific(_creator)\r\n        hasBeenSubmitted(false, provider)\r\n    override\r\n    {\r\n        _certificateEntities[_providerId]._entities[provider]._Info = providerInfo;\r\n        _submitedByCreator[provider] = true;\r\n    }\r\n\r\n    function validateProvider(address provider) external \r\n        hasBeenSubmitted(true, provider)\r\n        isAnOwner \r\n        isEntityActivated(false, provider, _providerId) \r\n        OwnerhasNotAlreadyVoted(Actions.Add, provider)\r\n    {\r\n        _certificateEntities[_providerId]._entities[provider]._addValidations += 1;\r\n        _certificateEntities[_providerId]._entities[provider]._AddValidated[msg.sender] = true;\r\n\r\n        if(CheckValidations(_certificateEntities[_providerId]._entities[provider]._addValidations)){\r\n            _certificateEntities[_providerId]._entities[provider]._activated = true;\r\n            _certificateEntities[_providerId]._entities[provider]._id = _certificateEntities[_providerId]._activatedEntities.length;\r\n            _certificateEntities[_providerId]._activatedEntities.push(provider);\r\n            _numberOfEntities[_providerId] += 1;\r\n\r\n            emit _AddEntityValidationIdEvent(_entitiesLabel[_providerId] ,provider);\r\n        }\r\n\r\n    }\r\n\r\n }",
  "sourcePath": "C:\\Users\\d-aam\\GitHub\\Certificates\\contracts\\PublicCertificatesPool.sol",
  "compiler": {
    "name": "solc",
    "version": "0.7.6+commit.7338295f.Emscripten.clang"
  },
  "schemaVersion": "3.3.4",
  "updatedAt": "2021-05-07T13:30:13.209Z",
  "devdoc": {
    "kind": "dev",
    "methods": {},
    "version": 1
  },
  "userdoc": {
    "kind": "user",
    "methods": {},
    "version": 1
  }
}