{
  "contractName": "PublicCertificatesPool",
  "abi": [
    {
      "anonymous": false,
      "inputs": [
        {
          "indexed": true,
          "internalType": "address",
          "name": "",
          "type": "address"
        },
        {
          "indexed": true,
          "internalType": "address",
          "name": "",
          "type": "address"
        },
        {
          "indexed": false,
          "internalType": "bytes32",
          "name": "",
          "type": "bytes32"
        }
      ],
      "name": "_AddCertificate",
      "type": "event"
    },
    {
      "anonymous": false,
      "inputs": [
        {
          "indexed": true,
          "internalType": "address",
          "name": "",
          "type": "address"
        },
        {
          "indexed": true,
          "internalType": "string",
          "name": "",
          "type": "string"
        }
      ],
      "name": "_NewProposal",
      "type": "event"
    },
    {
      "inputs": [
        {
          "internalType": "address[]",
          "name": "owners",
          "type": "address[]"
        },
        {
          "internalType": "uint256",
          "name": "minOwners",
          "type": "uint256"
        }
      ],
      "name": "MultiSigCertPool_init",
      "outputs": [],
      "stateMutability": "nonpayable",
      "type": "function"
    },
    {
      "inputs": [
        {
          "internalType": "address[]",
          "name": "owners",
          "type": "address[]"
        },
        {
          "internalType": "uint256",
          "name": "minOwners",
          "type": "uint256"
        },
        {
          "internalType": "uint256",
          "name": "TotalEntities",
          "type": "uint256"
        },
        {
          "internalType": "string[]",
          "name": "labels",
          "type": "string[]"
        },
        {
          "internalType": "uint256",
          "name": "ownerId",
          "type": "uint256"
        }
      ],
      "name": "MultiSigContract_init",
      "outputs": [],
      "stateMutability": "nonpayable",
      "type": "function"
    },
    {
      "inputs": [
        {
          "internalType": "address",
          "name": "owner",
          "type": "address"
        },
        {
          "internalType": "string",
          "name": "ownerInfo",
          "type": "string"
        }
      ],
      "name": "addOwner",
      "outputs": [],
      "stateMutability": "nonpayable",
      "type": "function"
    },
    {
      "inputs": [
        {
          "internalType": "uint256",
          "name": "newMinOwners",
          "type": "uint256"
        }
      ],
      "name": "changeMinOwners",
      "outputs": [],
      "stateMutability": "nonpayable",
      "type": "function"
    },
    {
      "inputs": [],
      "name": "rejectMinOwners",
      "outputs": [],
      "stateMutability": "nonpayable",
      "type": "function"
    },
    {
      "inputs": [
        {
          "internalType": "address",
          "name": "owner",
          "type": "address"
        }
      ],
      "name": "rejectOwner",
      "outputs": [],
      "stateMutability": "nonpayable",
      "type": "function"
    },
    {
      "inputs": [
        {
          "internalType": "address",
          "name": "provider",
          "type": "address"
        }
      ],
      "name": "rejectProvider",
      "outputs": [],
      "stateMutability": "nonpayable",
      "type": "function"
    },
    {
      "inputs": [
        {
          "internalType": "address",
          "name": "owner",
          "type": "address"
        }
      ],
      "name": "removeOwner",
      "outputs": [],
      "stateMutability": "nonpayable",
      "type": "function"
    },
    {
      "inputs": [
        {
          "internalType": "address",
          "name": "provider",
          "type": "address"
        }
      ],
      "name": "removeProvider",
      "outputs": [],
      "stateMutability": "nonpayable",
      "type": "function"
    },
    {
      "inputs": [],
      "name": "retrieveAllOwners",
      "outputs": [
        {
          "internalType": "bytes32[]",
          "name": "",
          "type": "bytes32[]"
        }
      ],
      "stateMutability": "view",
      "type": "function",
      "constant": true
    },
    {
      "inputs": [],
      "name": "retrieveAllProviders",
      "outputs": [
        {
          "internalType": "bytes32[]",
          "name": "",
          "type": "bytes32[]"
        }
      ],
      "stateMutability": "view",
      "type": "function",
      "constant": true
    },
    {
      "inputs": [
        {
          "internalType": "bytes32",
          "name": "CertificateHash",
          "type": "bytes32"
        },
        {
          "internalType": "address",
          "name": "holder",
          "type": "address"
        }
      ],
      "name": "retrieveCertificateProvider",
      "outputs": [
        {
          "internalType": "address",
          "name": "",
          "type": "address"
        }
      ],
      "stateMutability": "view",
      "type": "function",
      "constant": true
    },
    {
      "inputs": [
        {
          "internalType": "address",
          "name": "holder",
          "type": "address"
        },
        {
          "internalType": "uint256",
          "name": "skipFirst",
          "type": "uint256"
        },
        {
          "internalType": "uint256",
          "name": "max",
          "type": "uint256"
        }
      ],
      "name": "retrieveCertificatesByHolder",
      "outputs": [
        {
          "internalType": "bytes32[]",
          "name": "",
          "type": "bytes32[]"
        }
      ],
      "stateMutability": "view",
      "type": "function",
      "constant": true
    },
    {
      "inputs": [],
      "name": "retrieveMinOwners",
      "outputs": [
        {
          "internalType": "uint256",
          "name": "",
          "type": "uint256"
        }
      ],
      "stateMutability": "view",
      "type": "function",
      "constant": true
    },
    {
      "inputs": [
        {
          "internalType": "address",
          "name": "owner",
          "type": "address"
        }
      ],
      "name": "retrieveOwner",
      "outputs": [
        {
          "internalType": "string",
          "name": "",
          "type": "string"
        },
        {
          "internalType": "bool",
          "name": "",
          "type": "bool"
        }
      ],
      "stateMutability": "view",
      "type": "function",
      "constant": true
    },
    {
      "inputs": [],
      "name": "retrievePendingMinOwners",
      "outputs": [
        {
          "internalType": "uint256",
          "name": "",
          "type": "uint256"
        }
      ],
      "stateMutability": "view",
      "type": "function",
      "constant": true
    },
    {
      "inputs": [
        {
          "internalType": "bool",
          "name": "addedORremove",
          "type": "bool"
        }
      ],
      "name": "retrievePendingOwners",
      "outputs": [
        {
          "internalType": "bytes32[]",
          "name": "",
          "type": "bytes32[]"
        },
        {
          "internalType": "string[]",
          "name": "",
          "type": "string[]"
        }
      ],
      "stateMutability": "view",
      "type": "function",
      "constant": true
    },
    {
      "inputs": [
        {
          "internalType": "bool",
          "name": "addedORremove",
          "type": "bool"
        }
      ],
      "name": "retrievePendingProviders",
      "outputs": [
        {
          "internalType": "bytes32[]",
          "name": "",
          "type": "bytes32[]"
        },
        {
          "internalType": "string[]",
          "name": "",
          "type": "string[]"
        }
      ],
      "stateMutability": "view",
      "type": "function",
      "constant": true
    },
    {
      "inputs": [
        {
          "internalType": "address",
          "name": "provider",
          "type": "address"
        }
      ],
      "name": "retrieveProvider",
      "outputs": [
        {
          "internalType": "string",
          "name": "",
          "type": "string"
        },
        {
          "internalType": "bool",
          "name": "",
          "type": "bool"
        }
      ],
      "stateMutability": "view",
      "type": "function",
      "constant": true
    },
    {
      "inputs": [
        {
          "internalType": "address",
          "name": "holder",
          "type": "address"
        }
      ],
      "name": "retrieveTotalCertificatesByHolder",
      "outputs": [
        {
          "internalType": "uint256",
          "name": "",
          "type": "uint256"
        }
      ],
      "stateMutability": "view",
      "type": "function",
      "constant": true
    },
    {
      "inputs": [],
      "name": "validateMinOwners",
      "outputs": [],
      "stateMutability": "nonpayable",
      "type": "function"
    },
    {
      "inputs": [
        {
          "internalType": "address",
          "name": "owner",
          "type": "address"
        }
      ],
      "name": "validateOwner",
      "outputs": [],
      "stateMutability": "nonpayable",
      "type": "function"
    },
    {
      "inputs": [
        {
          "internalType": "address",
          "name": "provider",
          "type": "address"
        }
      ],
      "name": "validateProvider",
      "outputs": [],
      "stateMutability": "nonpayable",
      "type": "function"
    },
    {
      "inputs": [
        {
          "internalType": "address[]",
          "name": "owners",
          "type": "address[]"
        },
        {
          "internalType": "uint256",
          "name": "minOwners",
          "type": "uint256"
        },
        {
          "internalType": "address",
          "name": "managerContractAddress",
          "type": "address"
        }
      ],
      "name": "PublicCertPool_init",
      "outputs": [],
      "stateMutability": "nonpayable",
      "type": "function"
    },
    {
      "inputs": [
        {
          "internalType": "address",
          "name": "provider",
          "type": "address"
        },
        {
          "internalType": "string",
          "name": "providerInfo",
          "type": "string"
        }
      ],
      "name": "addProvider",
      "outputs": [],
      "stateMutability": "payable",
      "type": "function",
      "payable": true
    },
    {
      "inputs": [
        {
          "internalType": "bytes32",
          "name": "CertificateHash",
          "type": "bytes32"
        },
        {
          "internalType": "address",
          "name": "holder",
          "type": "address"
        }
      ],
      "name": "addCertificate",
      "outputs": [],
      "stateMutability": "payable",
      "type": "function",
      "payable": true
    },
    {
      "inputs": [
        {
          "internalType": "bytes32",
          "name": "item",
          "type": "bytes32"
        },
        {
          "internalType": "uint256[]",
          "name": "ids",
          "type": "uint256[]"
        },
        {
          "internalType": "bool",
          "name": "addOrRemove",
          "type": "bool"
        }
      ],
      "name": "onItemValidated",
      "outputs": [],
      "stateMutability": "nonpayable",
      "type": "function"
    },
    {
      "inputs": [
        {
          "internalType": "bytes32",
          "name": "item",
          "type": "bytes32"
        },
        {
          "internalType": "uint256[]",
          "name": "ids",
          "type": "uint256[]"
        },
        {
          "internalType": "bool",
          "name": "addOrRemove",
          "type": "bool"
        }
      ],
      "name": "onItemRejected",
      "outputs": [],
      "stateMutability": "nonpayable",
      "type": "function"
    }
  ],
  "bytecode": "0x608060405234801561001057600080fd5b50614350806100206000396000f3fe6080604052600436106101475760003560e01c80630b4c72a91461014c578063173825d91461016e5780631ab807f81461018e57806327a40b4b146101a15780632edbe7fc146101c157806330ade922146101e55780633542758f146101fa578063375834991461021a5780633fd071811461024857806358a1ba251461026857806365b973e5146102955780636b299604146102aa5780636b3a0fec146102d85780636e4f9179146102f85780636e55d2d41461030d57806376f8f90f1461032d57806377bc5a1f1461034d5780637c8c2add1461036d5780638a355a571461038d5780639580fc6c146103ad578063a93d5ed6146103cd578063c3079ae7146103e2578063c3ccb191146103f7578063c66433ea14610417578063ce33d58a14610437578063cf2041d914610457578063d0a4adfe14610477578063fc000500146104ca575b600080fd5b34801561015857600080fd5b5061016c61016736600461382a565b6104dd565b005b34801561017a57600080fd5b5061016c61018936600461382a565b6104eb565b61016c61019c366004613c5e565b610540565b3480156101ad57600080fd5b5061016c6101bc36600461382a565b610633565b3480156101cd57600080fd5b506005545b6040519081526020015b60405180910390f35b3480156101f157600080fd5b5061016c61063e565b34801561020657600080fd5b5061016c610215366004613864565b61073d565b34801561022657600080fd5b5061023a61023536600461382a565b61074b565b6040516101dc929190613f50565b34801561025457600080fd5b5061016c610263366004613c8e565b610763565b34801561027457600080fd5b50610288610283366004613937565b6107a8565b6040516101dc9190613e95565b3480156102a157600080fd5b506001546101d2565b3480156102b657600080fd5b506102ca6102c5366004613c0b565b61094e565b6040516101dc929190613ea8565b3480156102e457600080fd5b506102ca6102f3366004613c0b565b61095d565b34801561030457600080fd5b5061028861096b565b34801561031957600080fd5b506101d261032836600461382a565b61097c565b34801561033957600080fd5b5061016c61034836600461382a565b61099a565b34801561035957600080fd5b5061023a61036836600461382a565b6109f5565b34801561037957600080fd5b5061016c610388366004613c8e565b610a05565b34801561039957600080fd5b5061016c6103a836600461382a565b610a44565b3480156103b957600080fd5b5061016c6103c83660046139b0565b610a4f565b3480156103d957600080fd5b50610288610ad0565b3480156103ee57600080fd5b5061016c610add565b34801561040357600080fd5b5061016c61041236600461396c565b610bdc565b34801561042357600080fd5b5061016c610432366004613d65565b610e0b565b34801561044357600080fd5b5061016c61045236600461382a565b610ef7565b34801561046357600080fd5b5061016c610472366004613a0a565b610f03565b34801561048357600080fd5b506104bd610492366004613c5e565b6001600160a01b039081166000908152600a6020908152604080832094835293905291909120541690565b6040516101dc9190613e01565b61016c6104d83660046138e8565b6111af565b6104e88160016114bd565b50565b60015460016104fb60005461198e565b51610506919061421c565b8082111561052f5760405162461bcd60e51b815260040161052690613f74565b60405180910390fd5b61053b83600054611af5565b505050565b600b60009054906101000a90046001600160a01b03166001600160a01b0316635a3794e96040518163ffffffff1660e01b815260040160206040518083038186803b15801561058e57600080fd5b505afa1580156105a2573d6000803e3d6000fd5b505050506040513d601f19601f820116820180604052508101906105c69190613847565b6001600160a01b031663f0c9325e3460026040518363ffffffff1660e01b81526004016105f39190613f28565b6000604051808303818588803b15801561060c57600080fd5b505af1158015610620573d6000803e3d6000fd5b505050505061062f8282611e5c565b5050565b6104e8816001611f90565b61064a33600054612421565b151560011461066b5760405162461bcd60e51b815260040161052690614075565b600160055461068c5760405162461bcd60e51b815260040161052690613f92565b60405163f7cf62d760e01b815273__AddressLibrary________________________9063f7cf62d7906106c6903390600890600401613e15565b60206040518083038186803b1580156106de57600080fd5b505af41580156106f2573d6000803e3d6000fd5b505050506040513d601f19601f820116820180604052508101906107169190613c28565b156107335760405162461bcd60e51b815260040161052690613fce565b6104e86001612612565b61053b838383600054612699565b6060600061075a836001612a52565b91509150915091565b61076f84848484612c4f565b600183836000818110610784576107846142cb565b9050602002013514156107a25780156107a2576107a2846000612d16565b50505050565b6060826107b48561097c565b116107ce5750604080516000815260208101909152610947565b8180846107da8761097c565b6107e4919061421c565b101561080157836107f48661097c565b6107fe919061421c565b90505b6000816001600160401b0381111561081b5761081b6142e1565b604051908082528060200260200182016040528015610844578160200160208202803683370190505b506001600160a01b0387166000908152600a60209081526040808320600101805482518185028101850190935280835294955092939092918301828280156108ab57602002820191906000526020600020905b815481526020019060010190808311610897575b5050505050905060008060005b835181101561093e578783106108cd5761093e565b818911156108e7576108e0600183614204565b915061092c565b8381815181106108f9576108f96142cb565b6020026020010151858481518110610913576109136142cb565b6020908102919091010152610929600184614204565b92505b806109368161429a565b9150506108b8565b50929450505050505b9392505050565b60608061075a83600054612f11565b60608061075a836001612f11565b6060610977600161198e565b905090565b6001600160a01b03166000908152600a602052604090206001015490565b6109a681600054613090565b1515600114156109e95760016109bd60005461198e565b516109c8919061421c565b60015411156109e95760405162461bcd60e51b815260040161052690613f74565b6104e881600054611f90565b6060600061075a83600054612a52565b610a1184848484612c4f565b600183836000818110610a2657610a266142cb565b9050602002013514156107a25780156107a2576107a2846001612d16565b6104e8816001611af5565b600454610100900460ff1680610a68575060045460ff16155b610a845760405162461bcd60e51b815260040161052690614009565b600454610100900460ff16158015610aa6576004805461ffff19166101011790555b610ab08484610bdc565b610ab9826131fc565b80156107a2576004805461ff001916905550505050565b606061097760005461198e565b610ae933600054612421565b1515600114610b0a5760405162461bcd60e51b815260040161052690614075565b6001600554610b2b5760405162461bcd60e51b815260040161052690613f92565b60405163f7cf62d760e01b815273__AddressLibrary________________________9063f7cf62d790610b65903390600890600401613e15565b60206040518083038186803b158015610b7d57600080fd5b505af4158015610b91573d6000803e3d6000fd5b505050506040513d601f19601f82011682018060405250810190610bb59190613c28565b15610bd25760405162461bcd60e51b815260040161052690613fce565b6104e86000612612565b600454610100900460ff1680610bf5575060045460ff16155b610c115760405162461bcd60e51b815260040161052690614009565b600454610100900460ff16158015610c33576004805461ffff19166101011790555b6040805160028082526060820190925290816020015b6060815260200190600190039081610c495750508051610c7191600991602090910190613552565b506040518060400160405280600581526020016427bbb732b960d91b8152506009600081548110610ca457610ca46142cb565b906000526020600020019080519060200190610cc19291906135af565b5060405180604001604052806008815260200167283937bb34b232b960c11b8152506009600181548110610cf757610cf76142cb565b906000526020600020019080519060200190610d149291906135af565b50610df5838360026009805480602002602001604051908101604052809291908181526020016000905b82821015610dea578382906000526020600020018054610d5d9061425f565b80601f0160208091040260200160405190810160405280929190818152602001828054610d899061425f565b8015610dd65780601f10610dab57610100808354040283529160200191610dd6565b820191906000526020600020905b815481529060010190602001808311610db957829003601f168201915b505050505081526020019060010190610d3e565b505050506000610f03565b801561053b576004805461ff0019169055505050565b610e1733600054612421565b1515600114610e385760405162461bcd60e51b815260040161052690614075565b600060055415610e735760405162461bcd60e51b8152600401610526906020808252600490820152630454333360e41b604082015260600190565b81600260005481548110610e8957610e896142cb565b90600052602060002090600402016001018054905080821115610ebe5760405162461bcd60e51b815260040161052690613f74565b600084818111610ee05760405162461bcd60e51b815260040161052690614057565b6005869055610eef6001612612565b505050505050565b6104e8816000546114bd565b600454610100900460ff1680610f1c575060045460ff16155b610f385760405162461bcd60e51b815260040161052690614009565b600454610100900460ff16158015610f5a576004805461ffff19166101011790555b84865180821115610f7d5760405162461bcd60e51b815260040161052690613f74565b600087818111610f9f5760405162461bcd60e51b815260040161052690614057565b86518814610fd85760405162461bcd60e51b81526004016105269060208082526004908201526308a8662760e31b604082015260600190565b60008681555b8881101561104e576002805460010181556000528751600390899083908110611009576110096142cb565b6020908102919091018101518254600181018455600093845292829020815161103b94919091019291909101906135af565b50806110468161429a565b915050610fde565b50600189905560005b8a5181101561119157600073__AddressLibrary________________________63bc215e858d848151811061108e5761108e6142cb565b60200260200101516040518263ffffffff1660e01b81526004016110b29190613e01565b60206040518083038186803b1580156110ca57600080fd5b505af41580156110de573d6000803e3d6000fd5b505050506040513d601f19601f820116820180604052508101906111029190613c45565b9050600160026000548154811061111b5761111b6142cb565b60009182526020808320858452600492909202909101905260408120805460ff1916921515929092179091555460028054909190811061115d5761115d6142cb565b60009182526020808320600160049093020182018054928301815583529091200155806111898161429a565b915050611057565b50505050508015610eef576004805461ff0019169055505050505050565b60008260016111be8282612421565b156111db5760405162461bcd60e51b8152600401610526906140af565b60008560016111ea8282613283565b156112075760405162461bcd60e51b815260040161052690613fb0565b600b60009054906101000a90046001600160a01b03166001600160a01b0316635a3794e96040518163ffffffff1660e01b815260040160206040518083038186803b15801561125557600080fd5b505afa158015611269573d6000803e3d6000fd5b505050506040513d601f19601f8201168201806040525081019061128d9190613847565b6001600160a01b031663f0c9325e3460006040518363ffffffff1660e01b81526004016112ba9190613f28565b6000604051808303818588803b1580156112d357600080fd5b505af11580156112e7573d6000803e3d6000fd5b505060405163bc215e8560e01b81526000935073__AddressLibrary________________________925063bc215e859150611326908c90600401613e01565b60206040518083038186803b15801561133e57600080fd5b505af4158015611352573d6000803e3d6000fd5b505050506040513d601f19601f820116820180604052508101906113769190613c45565b905087600260018154811061138d5761138d6142cb565b9060005260206000209060040201600001600083815260200190815260200160002060010190805190602001906113c59291906135af565b5060026001815481106113da576113da6142cb565b60009182526020808320600260049093020182018054600181810183559185529190932001839055805482908110611414576114146142cb565b906000526020600020906004020160020180549050611433919061421c565b6002600181548110611447576114476142cb565b60009182526020808320858452600490920290910190526040908190206003019190915551611477908990613de5565b604051908190038120906001600160a01b038b16907f39cde7834e26555dd63843df8459d36dd67b5bab6f4ed52349cbb03f66f542b190600090a3505050505050505050565b60025460405163123bd07560e11b815282919073__Library_______________________________90632477a0ea906114fc9085908590600401613f1a565b60206040518083038186803b15801561151457600080fd5b505af4158015611528573d6000803e3d6000fd5b505050506040513d601f19601f8201168201806040525081019061154c9190613c28565b151560011461156d5760405162461bcd60e51b815260040161052690614092565b61157933600054612421565b151560011461159a5760405162461bcd60e51b815260040161052690614075565b600184846115a88282613283565b1515600114806115c357506115bd8282613090565b15156001145b6115df5760405162461bcd60e51b815260040161052690613feb565b8686600073__AddressLibrary________________________63bc215e85846040518263ffffffff1660e01b815260040161161a9190613e01565b60206040518083038186803b15801561163257600080fd5b505af4158015611646573d6000803e3d6000fd5b505050506040513d601f19601f8201168201806040525081019061166a9190613c45565b905073__ItemsLibrary__________________________637b6d23de33836002868154811061169b5761169b6142cb565b90600052602060002090600402016040518463ffffffff1660e01b81526004016116c793929190613e74565b60206040518083038186803b1580156116df57600080fd5b505af41580156116f3573d6000803e3d6000fd5b505050506040513d601f19601f820116820180604052508101906117179190613c28565b156117345760405162461bcd60e51b815260040161052690613fce565b60405163bc215e8560e01b815260009073__AddressLibrary________________________9063bc215e859061176e908e90600401613e01565b60206040518083038186803b15801561178657600080fd5b505af415801561179a573d6000803e3d6000fd5b505050506040513d601f19601f820116820180604052508101906117be9190613c45565b60408051600180825281830190925291925060009190602080830190803683370190505090508a816000815181106117f8576117f86142cb565b60200260200101818152505060006040518060c00160405280848152602001604051806020016040528060008152508152602001600154815260200160038e81548110611847576118476142cb565b90600052602060002001805461185c9061425f565b80601f01602080910402602001604051908101604052809291908181526020018280546118889061425f565b80156118d55780601f106118aa576101008083540402835291602001916118d5565b820191906000526020600020905b8154815290600101906020018083116118b857829003601f168201915b50505050508152602001838152602001600115158152509050600060028d81548110611903576119036142cb565b9060005260206000209060040201905073__ItemsLibrary__________________________635cb09bcf8383306040518463ffffffff1660e01b815260040161194e939291906140cc565b60006040518083038186803b15801561196657600080fd5b505af415801561197a573d6000803e3d6000fd5b505050505050505050505050505050505050565b60025460405163123bd07560e11b8152606091839173__Library_______________________________90632477a0ea906119cf9085908590600401613f1a565b60206040518083038186803b1580156119e757600080fd5b505af41580156119fb573d6000803e3d6000fd5b505050506040513d601f19601f82011682018060405250810190611a1f9190613c28565b1515600114611a405760405162461bcd60e51b815260040161052690614092565b73__ItemsLibrary__________________________6327724f4b60028681548110611a6d57611a6d6142cb565b90600052602060002090600402016040518263ffffffff1660e01b8152600401611a9991815260200190565b60006040518083038186803b158015611ab157600080fd5b505af4158015611ac5573d6000803e3d6000fd5b505050506040513d6000823e601f3d908101601f19168201604052611aed9190810190613afd565b949350505050565b60025460405163123bd07560e11b815282919073__Library_______________________________90632477a0ea90611b349085908590600401613f1a565b60206040518083038186803b158015611b4c57600080fd5b505af4158015611b60573d6000803e3d6000fd5b505050506040513d601f19601f82011682018060405250810190611b849190613c28565b1515600114611ba55760405162461bcd60e51b815260040161052690614092565b611bb133600054612421565b1515600114611bd25760405162461bcd60e51b815260040161052690614075565b60018484611be08282612421565b1515600114611c175760405162461bcd60e51b815260206004820152600360248201526245433760e81b6044820152606401610526565b60008787611c258282613090565b15611c425760405162461bcd60e51b815260040161052690613fb0565b60405163bc215e8560e01b815260009073__AddressLibrary________________________9063bc215e8590611c7c908e90600401613e01565b60206040518083038186803b158015611c9457600080fd5b505af4158015611ca8573d6000803e3d6000fd5b505050506040513d601f19601f82011682018060405250810190611ccc9190613c45565b60408051600180825281830190925291925060009190602080830190803683370190505090508a81600081518110611d0657611d066142cb565b60200260200101818152505060006040518060c00160405280848152602001604051806020016040528060008152508152602001600154815260200160038e81548110611d5557611d556142cb565b906000526020600020018054611d6a9061425f565b80601f0160208091040260200160405190810160405280929190818152602001828054611d969061425f565b8015611de35780601f10611db857610100808354040283529160200191611de3565b820191906000526020600020905b815481529060010190602001808311611dc657829003601f168201915b50505050508152602001838152602001600115158152509050600060028d81548110611e1157611e116142cb565b9060005260206000209060040201905073__ItemsLibrary__________________________63e23fcdef8383306040518463ffffffff1660e01b815260040161194e939291906140cc565b611e65336133ee565b1515600114611e9f5760405162461bcd60e51b81526004016105269060208082526004908201526322a1989960e11b604082015260600190565b816001600160a01b038083166000908152600a60209081526040808320878452909152902054839185911615611f005760405162461bcd60e51b8152600401610526906020808252600490820152634543313560e01b604082015260600190565b6001600160a01b0384166000818152600a602081815260408084208a855280835281852080546001600160a01b031916339081179091559383526001908101805491820181558552919093200188905590517ff55a90628981610edc26894247bee72e1963d1c9faa4ea6533fd3df39fd36ed490611f819089815260200190565b60405180910390a35050505050565b60025460405163123bd07560e11b815282919073__Library_______________________________90632477a0ea90611fcf9085908590600401613f1a565b60206040518083038186803b158015611fe757600080fd5b505af4158015611ffb573d6000803e3d6000fd5b505050506040513d601f19601f8201168201806040525081019061201f9190613c28565b15156001146120405760405162461bcd60e51b815260040161052690614092565b61204c33600054612421565b151560011461206d5760405162461bcd60e51b815260040161052690614075565b6001848461207b8282613283565b15156001148061209657506120908282613090565b15156001145b6120b25760405162461bcd60e51b815260040161052690613feb565b8686600073__AddressLibrary________________________63bc215e85846040518263ffffffff1660e01b81526004016120ed9190613e01565b60206040518083038186803b15801561210557600080fd5b505af4158015612119573d6000803e3d6000fd5b505050506040513d601f19601f8201168201806040525081019061213d9190613c45565b905073__ItemsLibrary__________________________637b6d23de33836002868154811061216e5761216e6142cb565b90600052602060002090600402016040518463ffffffff1660e01b815260040161219a93929190613e74565b60206040518083038186803b1580156121b257600080fd5b505af41580156121c6573d6000803e3d6000fd5b505050506040513d601f19601f820116820180604052508101906121ea9190613c28565b156122075760405162461bcd60e51b815260040161052690613fce565b60405163bc215e8560e01b815260009073__AddressLibrary________________________9063bc215e8590612241908e90600401613e01565b60206040518083038186803b15801561225957600080fd5b505af415801561226d573d6000803e3d6000fd5b505050506040513d601f19601f820116820180604052508101906122919190613c45565b60408051600180825281830190925291925060009190602080830190803683370190505090508a816000815181106122cb576122cb6142cb565b60200260200101818152505060006040518060c00160405280848152602001604051806020016040528060008152508152602001600154815260200160038e8154811061231a5761231a6142cb565b90600052602060002001805461232f9061425f565b80601f016020809104026020016040519081016040528092919081815260200182805461235b9061425f565b80156123a85780601f1061237d576101008083540402835291602001916123a8565b820191906000526020600020905b81548152906001019060200180831161238b57829003601f168201915b50505050508152602001838152602001600115158152509050600060028d815481106123d6576123d66142cb565b9060005260206000209060040201905073__ItemsLibrary__________________________637493a70b8383306040518463ffffffff1660e01b815260040161194e939291906140cc565b60025460405163123bd07560e11b8152600091839173__Library_______________________________90632477a0ea906124629085908590600401613f1a565b60206040518083038186803b15801561247a57600080fd5b505af415801561248e573d6000803e3d6000fd5b505050506040513d601f19601f820116820180604052508101906124b29190613c28565b15156001146124d35760405162461bcd60e51b815260040161052690614092565b60405163bc215e8560e01b815260009073__AddressLibrary________________________9063bc215e859061250d908990600401613e01565b60206040518083038186803b15801561252557600080fd5b505af4158015612539573d6000803e3d6000fd5b505050506040513d601f19601f8201168201806040525081019061255d9190613c45565b905073__ItemsLibrary__________________________63dbdfbeec826002888154811061258d5761258d6142cb565b90600052602060002090600402016040518363ffffffff1660e01b81526004016125b8929190613f1a565b60206040518083038186803b1580156125d057600080fd5b505af41580156125e4573d6000803e3d6000fd5b505050506040513d601f19601f820116820180604052508101906126089190613c28565b9695505050505050565b80156126365760016006600082825461262b9190614204565b9091555061264f9050565b6001600760008282546126499190614204565b90915550505b600880546001810182556000919091527ff3f7a9fe364faab93b216da50a3214154f22a0a2b415b23a84c8169e8b636ee30180546001600160a01b031916331790556104e8613401565b60025460405163123bd07560e11b815282919073__Library_______________________________90632477a0ea906126d89085908590600401613f1a565b60206040518083038186803b1580156126f057600080fd5b505af4158015612704573d6000803e3d6000fd5b505050506040513d601f19601f820116820180604052508101906127289190613c28565b15156001146127495760405162461bcd60e51b815260040161052690614092565b61275533600054612421565b15156001146127765760405162461bcd60e51b815260040161052690614075565b600086846127848282612421565b156127a15760405162461bcd60e51b8152600401610526906140af565b600089876127af8282613283565b156127cc5760405162461bcd60e51b815260040161052690613fb0565b600073__AddressLibrary________________________63bc215e858e6040518263ffffffff1660e01b81526004016128059190613e01565b60206040518083038186803b15801561281d57600080fd5b505af4158015612831573d6000803e3d6000fd5b505050506040513d601f19601f820116820180604052508101906128559190613c45565b60408051600180825281830190925291925060009190602080830190803683370190505090508a8160008151811061288f5761288f6142cb565b60200260200101818152505060006040518060c001604052808481526020018f8f8080601f0160208091040260200160405190810160405280939291908181526020018383808284376000920191909152505050908252506001546020820152600380546040909201918f908110612909576129096142cb565b90600052602060002001805461291e9061425f565b80601f016020809104026020016040519081016040528092919081815260200182805461294a9061425f565b80156129975780601f1061296c57610100808354040283529160200191612997565b820191906000526020600020905b81548152906001019060200180831161297a57829003601f168201915b50505050508152602001838152602001600115158152509050600060028d815481106129c5576129c56142cb565b9060005260206000209060040201905073__ItemsLibrary__________________________630b985aaa8383306040518463ffffffff1660e01b8152600401612a10939291906140cc565b60006040518083038186803b158015612a2857600080fd5b505af4158015612a3c573d6000803e3d6000fd5b5050505050505050505050505050505050505050565b60025460405163123bd07560e11b815260609160009184919073__Library_______________________________90632477a0ea90612a979085908590600401613f1a565b60206040518083038186803b158015612aaf57600080fd5b505af4158015612ac3573d6000803e3d6000fd5b505050506040513d601f19601f82011682018060405250810190612ae79190613c28565b1515600114612b085760405162461bcd60e51b815260040161052690614092565b60405163bc215e8560e01b815260009073__AddressLibrary________________________9063bc215e8590612b42908a90600401613e01565b60206040518083038186803b158015612b5a57600080fd5b505af4158015612b6e573d6000803e3d6000fd5b505050506040513d601f19601f82011682018060405250810190612b929190613c45565b905073__ItemsLibrary__________________________631aeccc6a8260028981548110612bc257612bc26142cb565b90600052602060002090600402016040518363ffffffff1660e01b8152600401612bed929190613f1a565b60006040518083038186803b158015612c0557600080fd5b505af4158015612c19573d6000803e3d6000fd5b505050506040513d6000823e601f3d908101601f19168201604052612c419190810190613d1f565b945094505050509250929050565b604051630d1d719d60e41b8152309073__Library_______________________________9063d1d719d090612c88908490600401613e01565b60206040518083038186803b158015612ca057600080fd5b505af4158015612cb4573d6000803e3d6000fd5b505050506040513d601f19601f82011682018060405250810190612cd89190613c28565b1515600114612d0f5760405162461bcd60e51b815260206004820152600360248201526208a86760eb1b6044820152606401610526565b5050505050565b600081612d54576002600181548110612d3157612d316142cb565b600091825260208083208684526004909202909101905260409020600501612d84565b6002600181548110612d6857612d686142cb565b6000918252602080832086845260049283020190526040909120015b805480602002602001604051908101604052809291908181526020018280548015612dd857602002820191906000526020600020905b81546001600160a01b03168152600190910190602001808311612dba575b5050505050905060005b81518110156107a257600b60009054906101000a90046001600160a01b03166001600160a01b0316635a3794e96040518163ffffffff1660e01b815260040160206040518083038186803b158015612e3957600080fd5b505afa158015612e4d573d6000803e3d6000fd5b505050506040513d601f19601f82011682018060405250810190612e719190613847565b6001600160a01b031663eb1e2a41838381518110612e9157612e916142cb565b602002602001015184516040518363ffffffff1660e01b8152600401612ecc9291906001600160a01b03929092168252602082015260400190565b600060405180830381600087803b158015612ee657600080fd5b505af1158015612efa573d6000803e3d6000fd5b505050508080612f099061429a565b915050612de2565b60025460405163123bd07560e11b8152606091829184919073__Library_______________________________90632477a0ea90612f559085908590600401613f1a565b60206040518083038186803b158015612f6d57600080fd5b505af4158015612f81573d6000803e3d6000fd5b505050506040513d601f19601f82011682018060405250810190612fa59190613c28565b1515600114612fc65760405162461bcd60e51b815260040161052690614092565b60608073__ItemsLibrary__________________________63e035e0068960028a81548110612ff757612ff76142cb565b90600052602060002090600402016040518363ffffffff1660e01b815260040161302d9291909115158252602082015260400190565b60006040518083038186803b15801561304557600080fd5b505af4158015613059573d6000803e3d6000fd5b505050506040513d6000823e601f3d908101601f191682016040526130819190810190613b31565b90999098509650505050505050565b60025460405163123bd07560e11b8152600091839173__Library_______________________________90632477a0ea906130d19085908590600401613f1a565b60206040518083038186803b1580156130e957600080fd5b505af41580156130fd573d6000803e3d6000fd5b505050506040513d601f19601f820116820180604052508101906131219190613c28565b15156001146131425760405162461bcd60e51b815260040161052690614092565b60405163bc215e8560e01b815260009073__AddressLibrary________________________9063bc215e859061317c908990600401613e01565b60206040518083038186803b15801561319457600080fd5b505af41580156131a8573d6000803e3d6000fd5b505050506040513d601f19601f820116820180604052508101906131cc9190613c45565b905073__ItemsLibrary__________________________632854ed2e826002888154811061258d5761258d6142cb565b600454610100900460ff1680613215575060045460ff16155b6132315760405162461bcd60e51b815260040161052690614009565b600454610100900460ff16158015613253576004805461ffff19166101011790555b600b80546001600160a01b0319166001600160a01b038416179055801561062f576004805461ff00191690555050565b60025460405163123bd07560e11b8152600091839173__Library_______________________________90632477a0ea906132c49085908590600401613f1a565b60206040518083038186803b1580156132dc57600080fd5b505af41580156132f0573d6000803e3d6000fd5b505050506040513d601f19601f820116820180604052508101906133149190613c28565b15156001146133355760405162461bcd60e51b815260040161052690614092565b60405163bc215e8560e01b815260009073__AddressLibrary________________________9063bc215e859061336f908990600401613e01565b60206040518083038186803b15801561338757600080fd5b505af415801561339b573d6000803e3d6000fd5b505050506040513d601f19601f820116820180604052508101906133bf9190613c45565b905073__ItemsLibrary__________________________6226d766826002888154811061258d5761258d6142cb565b60006133fb826001612421565b92915050565b60065460015460405163f6001d7d60e01b815273__ItemsLibrary__________________________9263f6001d7d9261343c92600401613f1a565b60206040518083038186803b15801561345457600080fd5b505af4158015613468573d6000803e3d6000fd5b505050506040513d601f19601f8201168201806040525081019061348c9190613c28565b156134a15760055460015561349f613535565b565b60075460015460405163f6001d7d60e01b815273__ItemsLibrary__________________________9263f6001d7d926134dc92600401613f1a565b60206040518083038186803b1580156134f457600080fd5b505af4158015613508573d6000803e3d6000fd5b505050506040513d601f19601f8201168201806040525081019061352c9190613c28565b1561349f5761349f5b600060058190556006819055600781905561349f9060089061362f565b82805482825590600052602060002090810192821561359f579160200282015b8281111561359f578251805161358f9184916020909101906135af565b5091602001919060010190613572565b506135ab92915061364d565b5090565b8280546135bb9061425f565b90600052602060002090601f0160209004810192826135dd5760008555613623565b82601f106135f657805160ff1916838001178555613623565b82800160010185558215613623579182015b82811115613623578251825591602001919060010190613608565b506135ab92915061366a565b50805460008255906000526020600020908101906104e8919061366a565b808211156135ab576000613661828261367f565b5060010161364d565b5b808211156135ab576000815560010161366b565b50805461368b9061425f565b6000825580601f1061369b575050565b601f0160209004906000526020600020908101906104e8919061366a565b600082601f8301126136ca57600080fd5b813560206136df6136da836141ba565b61418a565b80838252828201915082860187848660051b89010111156136ff57600080fd5b60005b85811015613727578135613715816142f7565b84529284019290840190600101613702565b5090979650505050505050565b600082601f83011261374557600080fd5b815160206137556136da836141ba565b80838252828201915082860187848660051b890101111561377557600080fd5b60005b8581101561372757815184529284019290840190600101613778565b600082601f8301126137a557600080fd5b81356137b36136da826141dd565b8181528460208386010111156137c857600080fd5b816020850160208301376000918101602001919091529392505050565b600082601f8301126137f657600080fd5b81516138046136da826141dd565b81815284602083860101111561381957600080fd5b611aed826020830160208701614233565b60006020828403121561383c57600080fd5b8135610947816142f7565b60006020828403121561385957600080fd5b8151610947816142f7565b60008060006040848603121561387957600080fd5b8335613884816142f7565b925060208401356001600160401b03808211156138a057600080fd5b818601915086601f8301126138b457600080fd5b8135818111156138c357600080fd5b8760208285010111156138d557600080fd5b6020830194508093505050509250925092565b600080604083850312156138fb57600080fd5b8235613906816142f7565b915060208301356001600160401b0381111561392157600080fd5b61392d85828601613794565b9150509250929050565b60008060006060848603121561394c57600080fd5b8335613957816142f7565b95602085013595506040909401359392505050565b6000806040838503121561397f57600080fd5b82356001600160401b0381111561399557600080fd5b6139a1858286016136b9565b95602094909401359450505050565b6000806000606084860312156139c557600080fd5b83356001600160401b038111156139db57600080fd5b6139e7868287016136b9565b9350506020840135915060408401356139ff816142f7565b809150509250925092565b600080600080600060a08688031215613a2257600080fd5b6001600160401b038635811015613a3857600080fd5b613a4588883589016136b9565b9550602080880135955060408801359450606088013582811115613a6857600080fd5b8801601f81018a13613a7957600080fd5b8035613a876136da826141ba565b8082825284820191508484018d868560051b8701011115613aa757600080fd5b60005b84811015613ae1578782351115613ac057600080fd5b613acf8f888435890101613794565b84529286019290860190600101613aaa565b5050809750505050505050608086013590509295509295909350565b600060208284031215613b0f57600080fd5b81516001600160401b03811115613b2557600080fd5b611aed84828501613734565b60008060408385031215613b4457600080fd5b82516001600160401b0380821115613b5b57600080fd5b613b6786838701613734565b9350602091508185015181811115613b7e57600080fd5b8501601f81018713613b8f57600080fd5b8051613b9d6136da826141ba565b8082825285820191508584018a878560051b8701011115613bbd57600080fd5b6000805b85811015613bf857825188811115613bd7578283fd5b613be58e8b838b01016137e5565b8652509388019391880191600101613bc1565b5050508096505050505050509250929050565b600060208284031215613c1d57600080fd5b81356109478161430c565b600060208284031215613c3a57600080fd5b81516109478161430c565b600060208284031215613c5757600080fd5b5051919050565b60008060408385031215613c7157600080fd5b823591506020830135613c83816142f7565b809150509250929050565b60008060008060608587031215613ca457600080fd5b8435935060208501356001600160401b0380821115613cc257600080fd5b818701915087601f830112613cd657600080fd5b813581811115613ce557600080fd5b8860208260051b8501011115613cfa57600080fd5b6020830195508094505050506040850135613d148161430c565b939692955090935050565b60008060408385031215613d3257600080fd5b82516001600160401b03811115613d4857600080fd5b613d54858286016137e5565b9250506020830151613c838161430c565b600060208284031215613d7757600080fd5b5035919050565b600081518084526020808501945080840160005b83811015613dae57815187529582019590820190600101613d92565b509495945050505050565b60008151808452613dd1816020860160208601614233565b601f01601f19169290920160200192915050565b60008251613df7818460208701614233565b9190910192915050565b6001600160a01b0391909116815260200190565b60006040820160018060a01b03808616845260206040818601528286548085526060870191508760005282600020945060005b81811015613e66578554851683526001958601959284019201613e48565b509098975050505050505050565b6001600160a01b039390931683526020830191909152604082015260600190565b6020815260006109476020830184613d7e565b604081526000613ebb6040830185613d7e565b6020838203818501528185518084528284019150828160051b85010183880160005b83811015613f0b57601f19878403018552613ef9838351613db9565b94860194925090850190600101613edd565b50909998505050505050505050565b918252602082015260400190565b6020810160048310613f4a57634e487b7160e01b600052602160045260246000fd5b91905290565b604081526000613f636040830185613db9565b905082151560208301529392505050565b6020808252600490820152634543313960e01b604082015260600190565b6020808252600490820152634543333160e01b604082015260600190565b6020808252600490820152634543323760e01b604082015260600190565b60208082526003908201526245433560e81b604082015260600190565b60208082526004908201526308a8664760e31b604082015260600190565b6020808252602e908201527f496e697469616c697a61626c653a20636f6e747261637420697320616c72656160408201526d191e481a5b9a5d1a585b1a5e995960921b606082015260800190565b6020808252600490820152634543313760e01b604082015260600190565b60208082526003908201526245433960e81b604082015260600190565b60208082526003908201526245433160e81b604082015260600190565b60208082526003908201526222a19b60e91b604082015260600190565b6060815283516060820152600060208086015160c060808501526140f4610120850182613db9565b9050604087015160a08501526060870151605f19808684030160c087015261411c8383613db9565b60808a015187820390920160e088015281518082529185019350600092508401905b8083101561415e578351825292840192600192909201919084019061413e565b5060a0890151151561010087015292850187905250506001600160a01b03841660408401529050611aed565b604051601f8201601f191681016001600160401b03811182821017156141b2576141b26142e1565b604052919050565b60006001600160401b038211156141d3576141d36142e1565b5060051b60200190565b60006001600160401b038211156141f6576141f66142e1565b50601f01601f191660200190565b60008219821115614217576142176142b5565b500190565b60008282101561422e5761422e6142b5565b500390565b60005b8381101561424e578181015183820152602001614236565b838111156107a25750506000910152565b600181811c9082168061427357607f821691505b6020821081141561429457634e487b7160e01b600052602260045260246000fd5b50919050565b60006000198214156142ae576142ae6142b5565b5060010190565b634e487b7160e01b600052601160045260246000fd5b634e487b7160e01b600052603260045260246000fd5b634e487b7160e01b600052604160045260246000fd5b6001600160a01b03811681146104e857600080fd5b80151581146104e857600080fdfea2646970667358221220b4a6784fb80b417d520685197763dc49342c139245c7b97c6cf439e70b71271b64736f6c63430008070033",
  "immutableReferences": {},
  "source": "// SPDX-License-Identifier: GPL-3.0\r\n\r\npragma solidity >=0.7.0 <0.9.0;\r\n\r\n/**\r\n * @title Storage\r\n * @dev Store & retrieve value in a variable\r\n */\r\n\r\n import \"../Abstract/MultiSigCertificatesPool.sol\";\r\n import \"../Interfaces/ITreasury.sol\";\r\n import \"../Libraries/Library.sol\";\r\n import \"../Base/ManagedBaseContract.sol\";\r\n import \"../Libraries/AddressLibrary.sol\";\r\n import \"@openzeppelin/contracts-upgradeable/proxy/utils/Initializable.sol\";\r\n\r\n contract PublicCertificatesPool is Initializable, MultiSigCertificatesPool, ManagedBaseContract {\r\n    using Library for *;\r\n    using AddressLibrary for *;\r\n\r\n    // EVENTS /////////////////////////////////////////\r\n    event _NewProposal(address indexed,  string indexed);\r\n\r\n    // CONSTRUCTOR /////////////////////////////////////////\r\n    function PublicCertPool_init(address[] memory owners,  uint256 minOwners, address managerContractAddress) public initializer {\r\n        super.MultiSigCertPool_init(owners, minOwners); \r\n        super.ManagedBaseContract_init(managerContractAddress); \r\n    }\r\n\r\n    // FUNCTIONALITY /////////////////////////////////////////\r\n    function addProvider(address provider, string memory providerInfo) external \r\n        isEntityActivated(false, provider, _providerId) \r\n        isEntityPendingToAdd(false, provider, _providerId)\r\n    override payable\r\n    {\r\n        ITreasury(_managerContract.retrieveTreasuryProxy()).pay{value:msg.value}(Library.Prices.NewProvider);\r\n        bytes32 providerInBytes = AddressLibrary.AddressToBytes32(provider);\r\n        _Entities[_providerId]._items[providerInBytes]._Info = providerInfo;\r\n        _Entities[_providerId]._pendingItemsAdd.push(providerInBytes);\r\n        _Entities[_providerId]._items[providerInBytes]._pendingId = _Entities[_providerId]._pendingItemsAdd.length - 1;\r\n\r\n        emit _NewProposal(provider, providerInfo);\r\n    }\r\n\r\n    function payBack(bytes32 entityInBytes, bool validatedOrRejected) internal\r\n    {\r\n        address[] memory Voters = (validatedOrRejected) ? _Entities[_providerId]._items[entityInBytes]._Validations : _Entities[_providerId]._items[entityInBytes]._Rejections;\r\n\r\n        for(uint i=0; i < Voters.length; i++){\r\n            ITreasury(_managerContract.retrieveTreasuryProxy()).getRefund(Voters[i], Voters.length);\r\n        }\r\n    }\r\n\r\n    function addCertificate(bytes32 CertificateHash, address holder) external override payable\r\n    {\r\n        ITreasury(_managerContract.retrieveTreasuryProxy()).pay{value:msg.value}(Library.Prices.NewCertificate);\r\n        addCertificateInternal(CertificateHash, holder);\r\n    }\r\n\r\n    // Callback functions\r\n    function onItemValidated(bytes32 item, uint256[] calldata ids, bool addOrRemove) public override \r\n    {\r\n        super.onItemValidated(item, ids, addOrRemove);\r\n\r\n        if(ids[0] == _providerId){\r\n            if(addOrRemove)payBack(item, true);\r\n        }\r\n    }\r\n\r\n    function onItemRejected(bytes32 item, uint256[] calldata ids, bool addOrRemove) public override  \r\n    {\r\n        super.onItemRejected(item, ids, addOrRemove);\r\n\r\n        if(ids[0] == _providerId){\r\n            if(addOrRemove)payBack(item, false);\r\n        }\r\n    }\r\n\r\n }",
  "sourcePath": "C:/Users/d-aam/GitHub/Certificates/contracts/DeployedContracts/PublicCertificatesPool.sol",
  "compiler": {
    "name": "solc",
    "version": "0.8.7+commit.e28d00a7.Emscripten.clang"
  },
  "schemaVersion": "3.3.4",
  "updatedAt": "2021-08-24T06:28:03.888Z",
  "networkType": "ethereum",
  "devdoc": {
    "kind": "dev",
    "methods": {},
    "version": 1
  },
  "userdoc": {
    "kind": "user",
    "methods": {},
    "version": 1
  }
}