{
  "contractName": "PublicCertificatesPool",
  "abi": [
    {
      "anonymous": false,
      "inputs": [
        {
          "indexed": true,
          "internalType": "address",
          "name": "",
          "type": "address"
        },
        {
          "indexed": true,
          "internalType": "address",
          "name": "",
          "type": "address"
        },
        {
          "indexed": false,
          "internalType": "bytes32",
          "name": "",
          "type": "bytes32"
        }
      ],
      "name": "_AddCertificate",
      "type": "event"
    },
    {
      "anonymous": false,
      "inputs": [
        {
          "indexed": true,
          "internalType": "address",
          "name": "",
          "type": "address"
        },
        {
          "indexed": true,
          "internalType": "string",
          "name": "",
          "type": "string"
        }
      ],
      "name": "_NewProposal",
      "type": "event"
    },
    {
      "inputs": [
        {
          "internalType": "address[]",
          "name": "owners",
          "type": "address[]"
        },
        {
          "internalType": "uint256",
          "name": "minOwners",
          "type": "uint256"
        }
      ],
      "name": "MultiSigCertPool_init",
      "outputs": [],
      "stateMutability": "nonpayable",
      "type": "function"
    },
    {
      "inputs": [
        {
          "internalType": "address[]",
          "name": "owners",
          "type": "address[]"
        },
        {
          "internalType": "uint256",
          "name": "minOwners",
          "type": "uint256"
        },
        {
          "internalType": "uint256",
          "name": "TotalEntities",
          "type": "uint256"
        },
        {
          "internalType": "string[]",
          "name": "labels",
          "type": "string[]"
        },
        {
          "internalType": "uint256",
          "name": "ownerId",
          "type": "uint256"
        }
      ],
      "name": "MultiSigContract_init",
      "outputs": [],
      "stateMutability": "nonpayable",
      "type": "function"
    },
    {
      "inputs": [
        {
          "internalType": "address",
          "name": "owner",
          "type": "address"
        },
        {
          "internalType": "string",
          "name": "ownerInfo",
          "type": "string"
        }
      ],
      "name": "addOwner",
      "outputs": [],
      "stateMutability": "nonpayable",
      "type": "function"
    },
    {
      "inputs": [
        {
          "internalType": "uint256",
          "name": "newMinOwners",
          "type": "uint256"
        }
      ],
      "name": "changeMinOwners",
      "outputs": [],
      "stateMutability": "nonpayable",
      "type": "function"
    },
    {
      "inputs": [],
      "name": "rejectMinOwners",
      "outputs": [],
      "stateMutability": "nonpayable",
      "type": "function"
    },
    {
      "inputs": [
        {
          "internalType": "address",
          "name": "owner",
          "type": "address"
        }
      ],
      "name": "rejectOwner",
      "outputs": [],
      "stateMutability": "nonpayable",
      "type": "function"
    },
    {
      "inputs": [
        {
          "internalType": "address",
          "name": "provider",
          "type": "address"
        }
      ],
      "name": "rejectProvider",
      "outputs": [],
      "stateMutability": "nonpayable",
      "type": "function"
    },
    {
      "inputs": [
        {
          "internalType": "address",
          "name": "owner",
          "type": "address"
        }
      ],
      "name": "removeOwner",
      "outputs": [],
      "stateMutability": "nonpayable",
      "type": "function"
    },
    {
      "inputs": [
        {
          "internalType": "address",
          "name": "provider",
          "type": "address"
        }
      ],
      "name": "removeProvider",
      "outputs": [],
      "stateMutability": "nonpayable",
      "type": "function"
    },
    {
      "inputs": [],
      "name": "retrieveAllOwners",
      "outputs": [
        {
          "internalType": "bytes32[]",
          "name": "",
          "type": "bytes32[]"
        }
      ],
      "stateMutability": "view",
      "type": "function"
    },
    {
      "inputs": [],
      "name": "retrieveAllProviders",
      "outputs": [
        {
          "internalType": "bytes32[]",
          "name": "",
          "type": "bytes32[]"
        }
      ],
      "stateMutability": "view",
      "type": "function"
    },
    {
      "inputs": [
        {
          "internalType": "bytes32",
          "name": "CertificateHash",
          "type": "bytes32"
        },
        {
          "internalType": "address",
          "name": "holder",
          "type": "address"
        }
      ],
      "name": "retrieveCertificateProvider",
      "outputs": [
        {
          "internalType": "address",
          "name": "",
          "type": "address"
        }
      ],
      "stateMutability": "view",
      "type": "function"
    },
    {
      "inputs": [
        {
          "internalType": "address",
          "name": "holder",
          "type": "address"
        },
        {
          "internalType": "uint256",
          "name": "skipFirst",
          "type": "uint256"
        },
        {
          "internalType": "uint256",
          "name": "max",
          "type": "uint256"
        }
      ],
      "name": "retrieveCertificatesByHolder",
      "outputs": [
        {
          "internalType": "bytes32[]",
          "name": "",
          "type": "bytes32[]"
        }
      ],
      "stateMutability": "view",
      "type": "function"
    },
    {
      "inputs": [],
      "name": "retrieveManagerContract",
      "outputs": [
        {
          "internalType": "address",
          "name": "",
          "type": "address"
        }
      ],
      "stateMutability": "view",
      "type": "function"
    },
    {
      "inputs": [],
      "name": "retrieveMinOwners",
      "outputs": [
        {
          "internalType": "uint256",
          "name": "",
          "type": "uint256"
        }
      ],
      "stateMutability": "view",
      "type": "function"
    },
    {
      "inputs": [
        {
          "internalType": "address",
          "name": "owner",
          "type": "address"
        }
      ],
      "name": "retrieveOwner",
      "outputs": [
        {
          "components": [
            {
              "internalType": "bool",
              "name": "_activated",
              "type": "bool"
            },
            {
              "internalType": "string",
              "name": "_Info",
              "type": "string"
            },
            {
              "internalType": "uint256",
              "name": "_id",
              "type": "uint256"
            },
            {
              "internalType": "uint256",
              "name": "_pendingId",
              "type": "uint256"
            },
            {
              "internalType": "address[]",
              "name": "_Validations",
              "type": "address[]"
            },
            {
              "internalType": "address[]",
              "name": "_Rejections",
              "type": "address[]"
            }
          ],
          "internalType": "struct ItemsLibrary._itemIdentity",
          "name": "",
          "type": "tuple"
        }
      ],
      "stateMutability": "view",
      "type": "function"
    },
    {
      "inputs": [],
      "name": "retrievePendingMinOwners",
      "outputs": [
        {
          "internalType": "uint256",
          "name": "",
          "type": "uint256"
        }
      ],
      "stateMutability": "view",
      "type": "function"
    },
    {
      "inputs": [],
      "name": "retrievePendingMinOwnersStatus",
      "outputs": [
        {
          "internalType": "uint256",
          "name": "",
          "type": "uint256"
        },
        {
          "internalType": "uint256",
          "name": "",
          "type": "uint256"
        },
        {
          "internalType": "address[]",
          "name": "",
          "type": "address[]"
        }
      ],
      "stateMutability": "view",
      "type": "function"
    },
    {
      "inputs": [
        {
          "internalType": "bool",
          "name": "addedORremove",
          "type": "bool"
        }
      ],
      "name": "retrievePendingOwners",
      "outputs": [
        {
          "internalType": "bytes32[]",
          "name": "",
          "type": "bytes32[]"
        }
      ],
      "stateMutability": "view",
      "type": "function"
    },
    {
      "inputs": [
        {
          "internalType": "bool",
          "name": "addedORremove",
          "type": "bool"
        }
      ],
      "name": "retrievePendingProviders",
      "outputs": [
        {
          "internalType": "bytes32[]",
          "name": "",
          "type": "bytes32[]"
        }
      ],
      "stateMutability": "view",
      "type": "function"
    },
    {
      "inputs": [
        {
          "internalType": "address",
          "name": "provider",
          "type": "address"
        }
      ],
      "name": "retrieveProvider",
      "outputs": [
        {
          "components": [
            {
              "internalType": "bool",
              "name": "_activated",
              "type": "bool"
            },
            {
              "internalType": "string",
              "name": "_Info",
              "type": "string"
            },
            {
              "internalType": "uint256",
              "name": "_id",
              "type": "uint256"
            },
            {
              "internalType": "uint256",
              "name": "_pendingId",
              "type": "uint256"
            },
            {
              "internalType": "address[]",
              "name": "_Validations",
              "type": "address[]"
            },
            {
              "internalType": "address[]",
              "name": "_Rejections",
              "type": "address[]"
            }
          ],
          "internalType": "struct ItemsLibrary._itemIdentity",
          "name": "",
          "type": "tuple"
        }
      ],
      "stateMutability": "view",
      "type": "function"
    },
    {
      "inputs": [
        {
          "internalType": "address",
          "name": "holder",
          "type": "address"
        }
      ],
      "name": "retrieveTotalCertificatesByHolder",
      "outputs": [
        {
          "internalType": "uint256",
          "name": "",
          "type": "uint256"
        }
      ],
      "stateMutability": "view",
      "type": "function"
    },
    {
      "inputs": [],
      "name": "validateMinOwners",
      "outputs": [],
      "stateMutability": "nonpayable",
      "type": "function"
    },
    {
      "inputs": [
        {
          "internalType": "address",
          "name": "owner",
          "type": "address"
        }
      ],
      "name": "validateOwner",
      "outputs": [],
      "stateMutability": "nonpayable",
      "type": "function"
    },
    {
      "inputs": [
        {
          "internalType": "address",
          "name": "provider",
          "type": "address"
        }
      ],
      "name": "validateProvider",
      "outputs": [],
      "stateMutability": "nonpayable",
      "type": "function"
    },
    {
      "inputs": [
        {
          "internalType": "address[]",
          "name": "owners",
          "type": "address[]"
        },
        {
          "internalType": "uint256",
          "name": "minOwners",
          "type": "uint256"
        },
        {
          "internalType": "address",
          "name": "managerContractAddress",
          "type": "address"
        }
      ],
      "name": "PublicCertPool_init",
      "outputs": [],
      "stateMutability": "nonpayable",
      "type": "function"
    },
    {
      "inputs": [
        {
          "internalType": "address",
          "name": "provider",
          "type": "address"
        },
        {
          "internalType": "string",
          "name": "providerInfo",
          "type": "string"
        }
      ],
      "name": "addProvider",
      "outputs": [],
      "stateMutability": "payable",
      "type": "function"
    },
    {
      "inputs": [
        {
          "internalType": "bytes32",
          "name": "CertificateHash",
          "type": "bytes32"
        },
        {
          "internalType": "address",
          "name": "holder",
          "type": "address"
        }
      ],
      "name": "addCertificate",
      "outputs": [],
      "stateMutability": "payable",
      "type": "function"
    },
    {
      "inputs": [],
      "name": "retrieveAddCertificatePriceWei",
      "outputs": [
        {
          "internalType": "uint256",
          "name": "",
          "type": "uint256"
        }
      ],
      "stateMutability": "view",
      "type": "function"
    },
    {
      "inputs": [],
      "name": "retrieveSubscriptionPriceWei",
      "outputs": [
        {
          "internalType": "uint256",
          "name": "",
          "type": "uint256"
        }
      ],
      "stateMutability": "view",
      "type": "function"
    },
    {
      "inputs": [
        {
          "internalType": "bytes32",
          "name": "item",
          "type": "bytes32"
        },
        {
          "internalType": "uint256[]",
          "name": "ids",
          "type": "uint256[]"
        },
        {
          "internalType": "bool",
          "name": "addOrRemove",
          "type": "bool"
        }
      ],
      "name": "onItemValidated",
      "outputs": [],
      "stateMutability": "nonpayable",
      "type": "function"
    },
    {
      "inputs": [
        {
          "internalType": "bytes32",
          "name": "item",
          "type": "bytes32"
        },
        {
          "internalType": "uint256[]",
          "name": "ids",
          "type": "uint256[]"
        },
        {
          "internalType": "bool",
          "name": "addOrRemove",
          "type": "bool"
        }
      ],
      "name": "onItemRejected",
      "outputs": [],
      "stateMutability": "nonpayable",
      "type": "function"
    }
  ],
  "bytecode": "0x608060405234801561001057600080fd5b50613fa5806100206000396000f3fe6080604052600436106101735760003560e01c80630b4c72a914610178578063173825d91461019a5780631ab807f8146101ba57806327a40b4b146101cd5780632edbe7fc146101ed57806330ade922146102115780633542758f1461022657806337583499146102465780633fd07181146102735780634774779d1461029357806357e7ea2e146102a85780635888ebb3146102bd57806358a1ba25146102e15780635b362e841461030e57806365b973e5146103355780636b2996041461034a5780636b3a0fec1461036a5780636e4f91791461038a5780636e55d2d41461039f57806376f8f90f146103bf57806377bc5a1f146103df5780637c8c2add146103ff5780638a355a571461041f5780639580fc6c1461043f578063a93d5ed61461045f578063c3079ae714610474578063c3ccb19114610489578063c66433ea146104a9578063ce33d58a146104c9578063cf2041d9146104e9578063d0a4adfe14610509578063fc0005001461054f575b600080fd5b34801561018457600080fd5b50610198610193366004613436565b610562565b005b3480156101a657600080fd5b506101986101b5366004613436565b610570565b6101986101c83660046137f5565b6105c5565b3480156101d957600080fd5b506101986101e8366004613436565b6106b8565b3480156101f957600080fd5b506005545b6040519081526020015b60405180910390f35b34801561021d57600080fd5b506101986106c3565b34801561023257600080fd5b50610198610241366004613470565b6107c2565b34801561025257600080fd5b50610266610261366004613436565b6107d0565b6040516102089190613c66565b34801561027f57600080fd5b5061019861028e366004613825565b6107e9565b34801561029f57600080fd5b506101fe61082e565b3480156102b457600080fd5b506101fe610a2c565b3480156102c957600080fd5b506102d2610b6e565b60405161020893929190613d98565b3480156102ed57600080fd5b506103016102fc366004613543565b610be2565b6040516102089190613ae7565b34801561031a57600080fd5b50600b546001600160a01b03165b6040516102089190613a74565b34801561034157600080fd5b506001546101fe565b34801561035657600080fd5b506103016103653660046137a2565b610d88565b34801561037657600080fd5b506103016103853660046137a2565b610d96565b34801561039657600080fd5b50610301610da3565b3480156103ab57600080fd5b506101fe6103ba366004613436565b610db4565b3480156103cb57600080fd5b506101986103da366004613436565b610dd2565b3480156103eb57600080fd5b506102666103fa366004613436565b610e2d565b34801561040b57600080fd5b5061019861041a366004613825565b610e41565b34801561042b57600080fd5b5061019861043a366004613436565b610e80565b34801561044b57600080fd5b5061019861045a3660046135bc565b610e8b565b34801561046b57600080fd5b50610301610f0c565b34801561048057600080fd5b50610198610f19565b34801561049557600080fd5b506101986104a4366004613578565b611018565b3480156104b557600080fd5b506101986104c436600461398f565b611247565b3480156104d557600080fd5b506101986104e4366004613436565b611332565b3480156104f557600080fd5b50610198610504366004613616565b61133e565b34801561051557600080fd5b506103286105243660046137f5565b6001600160a01b039081166000908152600a6020908152604080832094835293905291909120541690565b61019861055d3660046134f4565b6115e9565b61056d816001611afb565b50565b6001546001610580600054611c6d565b5161058b9190613e71565b808211156105b45760405162461bcd60e51b81526004016105ab90613b7f565b60405180910390fd5b6105c083600054611dd4565b505050565b600b60009054906101000a90046001600160a01b03166001600160a01b0316635a3794e96040518163ffffffff1660e01b815260040160206040518083038186803b15801561061357600080fd5b505afa158015610627573d6000803e3d6000fd5b505050506040513d601f19601f8201168201806040525081019061064b9190613453565b6001600160a01b031663f0c9325e3460026040518363ffffffff1660e01b81526004016106789190613b39565b6000604051808303818588803b15801561069157600080fd5b505af11580156106a5573d6000803e3d6000fd5b50505050506106b48282611f0e565b5050565b61056d816001612040565b6106cf3360005461217a565b15156001146106f05760405162461bcd60e51b81526004016105ab90613c2a565b60016005546107115760405162461bcd60e51b81526004016105ab90613b9e565b60405163f7cf62d760e01b815273__AddressLibrary________________________9063f7cf62d79061074b903390600890600401613a88565b60206040518083038186803b15801561076357600080fd5b505af4158015610777573d6000803e3d6000fd5b505050506040513d601f19601f8201168201806040525081019061079b91906137bf565b156107b85760405162461bcd60e51b81526004016105ab90613c48565b61056d600161236b565b6105c08383836000546123f2565b6107d861310d565b6107e382600161258e565b92915050565b6107f58484848461277f565b60018383600081811061080a5761080a613f20565b90506020020135141561082857801561082857610828846000612849565b50505050565b600080600b60009054906101000a90046001600160a01b03166001600160a01b0316635a3794e96040518163ffffffff1660e01b815260040160206040518083038186803b15801561087f57600080fd5b505afa158015610893573d6000803e3d6000fd5b505050506040513d601f19601f820116820180604052508101906108b79190613453565b6001600160a01b03166325b4f3ca6040518163ffffffff1660e01b815260040160a06040518083038186803b1580156108ef57600080fd5b505afa158015610903573d6000803e3d6000fd5b505050506040513d601f19601f8201168201806040525081019061092791906139a8565b50600b5460408051636025541560e01b815290519296506001600160a01b039091169450636025541593506004808201935060209291829003018186803b15801561097157600080fd5b505afa158015610985573d6000803e3d6000fd5b505050506040513d601f19601f820116820180604052508101906109a99190613453565b6001600160a01b0316638d12420b826040518263ffffffff1660e01b81526004016109d691815260200190565b60206040518083038186803b1580156109ee57600080fd5b505afa158015610a02573d6000803e3d6000fd5b505050506040513d601f19601f82011682018060405250810190610a2691906137dc565b91505090565b600080600b60009054906101000a90046001600160a01b03166001600160a01b0316635a3794e96040518163ffffffff1660e01b815260040160206040518083038186803b158015610a7d57600080fd5b505afa158015610a91573d6000803e3d6000fd5b505050506040513d601f19601f82011682018060405250810190610ab59190613453565b6001600160a01b03166325b4f3ca6040518163ffffffff1660e01b815260040160a06040518083038186803b158015610aed57600080fd5b505afa158015610b01573d6000803e3d6000fd5b505050506040513d601f19601f82011682018060405250810190610b2591906139a8565b5050600b5460408051636025541560e01b815290519495506001600160a01b03909116936360255415935060048083019350602092829003018186803b15801561097157600080fd5b6000806060600654600754600880805480602002602001604051908101604052809291908181526020018280548015610bd057602002820191906000526020600020905b81546001600160a01b03168152600190910190602001808311610bb2575b50505050509050925092509250909192565b606082610bee85610db4565b11610c085750604080516000815260208101909152610d81565b818084610c1487610db4565b610c1e9190613e71565b1015610c3b5783610c2e86610db4565b610c389190613e71565b90505b6000816001600160401b03811115610c5557610c55613f36565b604051908082528060200260200182016040528015610c7e578160200160208202803683370190505b506001600160a01b0387166000908152600a6020908152604080832060010180548251818502810185019093528083529495509293909291830182828015610ce557602002820191906000526020600020905b815481526020019060010190808311610cd1575b5050505050905060008060005b8351811015610d7857878310610d0757610d78565b81891115610d2157610d1a600183613e59565b9150610d66565b838181518110610d3357610d33613f20565b6020026020010151858481518110610d4d57610d4d613f20565b6020908102919091010152610d63600184613e59565b92505b80610d7081613eef565b915050610cf2565b50929450505050505b9392505050565b60606107e382600054612a44565b60606107e3826001612a44565b6060610daf6001611c6d565b905090565b6001600160a01b03166000908152600a602052604090206001015490565b610dde81600054612bb0565b151560011415610e21576001610df5600054611c6d565b51610e009190613e71565b6001541115610e215760405162461bcd60e51b81526004016105ab90613b7f565b61056d81600054612040565b610e3561310d565b6107e38260005461258e565b610e4d8484848461277f565b600183836000818110610e6257610e62613f20565b90506020020135141561082857801561082857610828846001612849565b61056d816001611dd4565b600454610100900460ff1680610ea4575060045460ff16155b610ec05760405162461bcd60e51b81526004016105ab90613bdc565b600454610100900460ff16158015610ee2576004805461ffff19166101011790555b610eec8484611018565b610ef582612d1c565b8015610828576004805461ff001916905550505050565b6060610daf600054611c6d565b610f253360005461217a565b1515600114610f465760405162461bcd60e51b81526004016105ab90613c2a565b6001600554610f675760405162461bcd60e51b81526004016105ab90613b9e565b60405163f7cf62d760e01b815273__AddressLibrary________________________9063f7cf62d790610fa1903390600890600401613a88565b60206040518083038186803b158015610fb957600080fd5b505af4158015610fcd573d6000803e3d6000fd5b505050506040513d601f19601f82011682018060405250810190610ff191906137bf565b1561100e5760405162461bcd60e51b81526004016105ab90613c48565b61056d600061236b565b600454610100900460ff1680611031575060045460ff16155b61104d5760405162461bcd60e51b81526004016105ab90613bdc565b600454610100900460ff1615801561106f576004805461ffff19166101011790555b6040805160028082526060820190925290816020015b606081526020019060019003908161108557505080516110ad91600991602090910190613145565b506040518060400160405280600581526020016427bbb732b960d91b81525060096000815481106110e0576110e0613f20565b9060005260206000200190805190602001906110fd9291906131a2565b5060405180604001604052806008815260200167283937bb34b232b960c11b815250600960018154811061113357611133613f20565b9060005260206000200190805190602001906111509291906131a2565b50611231838360026009805480602002602001604051908101604052809291908181526020016000905b8282101561122657838290600052602060002001805461119990613eb4565b80601f01602080910402602001604051908101604052809291908181526020018280546111c590613eb4565b80156112125780601f106111e757610100808354040283529160200191611212565b820191906000526020600020905b8154815290600101906020018083116111f557829003601f168201915b50505050508152602001906001019061117a565b50505050600061133e565b80156105c0576004805461ff0019169055505050565b6112533360005461217a565b15156001146112745760405162461bcd60e51b81526004016105ab90613c2a565b6000600554156112ae5760405162461bcd60e51b8152602060048201526005602482015264454333302d60d81b60448201526064016105ab565b816002600054815481106112c4576112c4613f20565b906000526020600020906004020160010180549050808211156112f95760405162461bcd60e51b81526004016105ab90613b7f565b60008481811161131b5760405162461bcd60e51b81526004016105ab90613bbd565b600586905561132a600161236b565b505050505050565b61056d81600054611afb565b600454610100900460ff1680611357575060045460ff16155b6113735760405162461bcd60e51b81526004016105ab90613bdc565b600454610100900460ff16158015611395576004805461ffff19166101011790555b848651808211156113b85760405162461bcd60e51b81526004016105ab90613b7f565b6000878181116113da5760405162461bcd60e51b81526004016105ab90613bbd565b865188146114125760405162461bcd60e51b8152602060048201526005602482015264454331382d60d81b60448201526064016105ab565b60008681555b8881101561148857600280546001018155600052875160039089908390811061144357611443613f20565b6020908102919091018101518254600181018455600093845292829020815161147594919091019291909101906131a2565b508061148081613eef565b915050611418565b50600189905560005b8a518110156115cb57600073__AddressLibrary________________________63bc215e858d84815181106114c8576114c8613f20565b60200260200101516040518263ffffffff1660e01b81526004016114ec9190613a74565b60206040518083038186803b15801561150457600080fd5b505af4158015611518573d6000803e3d6000fd5b505050506040513d601f19601f8201168201806040525081019061153c91906137dc565b9050600160026000548154811061155557611555613f20565b60009182526020808320858452600492909202909101905260408120805460ff1916921515929092179091555460028054909190811061159757611597613f20565b60009182526020808320600160049093020182018054928301815583529091200155806115c381613eef565b915050611491565b5050505050801561132a576004805461ff0019169055505050505050565b816115f581600161217a565b1561162b5760405162461bcd60e51b81526004016105ab906020808252600490820152634543362d60e01b604082015260600190565b82600073__AddressLibrary________________________63bc215e85836040518263ffffffff1660e01b81526004016116659190613a74565b60206040518083038186803b15801561167d57600080fd5b505af4158015611691573d6000803e3d6000fd5b505050506040513d601f19601f820116820180604052508101906116b591906137dc565b905073__ItemsLibrary__________________________6226d7668260026001815481106116e5576116e5613f20565b90600052602060002090600402016040518363ffffffff1660e01b8152600401611710929190613b2b565b60206040518083038186803b15801561172857600080fd5b505af415801561173c573d6000803e3d6000fd5b505050506040513d601f19601f8201168201806040525081019061176091906137bf565b158015611814575073__ItemsLibrary__________________________632854ed2e82600260018154811061179757611797613f20565b90600052602060002090600402016040518363ffffffff1660e01b81526004016117c2929190613b2b565b60206040518083038186803b1580156117da57600080fd5b505af41580156117ee573d6000803e3d6000fd5b505050506040513d601f19601f8201168201806040525081019061181291906137bf565b155b6118485760405162461bcd60e51b8152602060048201526005602482015264454332372d60d81b60448201526064016105ab565b600b60009054906101000a90046001600160a01b03166001600160a01b0316635a3794e96040518163ffffffff1660e01b815260040160206040518083038186803b15801561189657600080fd5b505afa1580156118aa573d6000803e3d6000fd5b505050506040513d601f19601f820116820180604052508101906118ce9190613453565b6001600160a01b031663f0c9325e3460006040518363ffffffff1660e01b81526004016118fb9190613b39565b6000604051808303818588803b15801561191457600080fd5b505af1158015611928573d6000803e3d6000fd5b505060405163bc215e8560e01b81526000935073__AddressLibrary________________________925063bc215e859150611967908990600401613a74565b60206040518083038186803b15801561197f57600080fd5b505af4158015611993573d6000803e3d6000fd5b505050506040513d601f19601f820116820180604052508101906119b791906137dc565b90508460026001815481106119ce576119ce613f20565b906000526020600020906004020160000160008381526020019081526020016000206001019080519060200190611a069291906131a2565b506002600181548110611a1b57611a1b613f20565b60009182526020808320600260049093020182018054600181810183559185529190932001839055805482908110611a5557611a55613f20565b906000526020600020906004020160020180549050611a749190613e71565b6002600181548110611a8857611a88613f20565b60009182526020808320858452600490920290910190526040908190206003019190915551611ab8908690613a58565b604051908190038120906001600160a01b038816907f39cde7834e26555dd63843df8459d36dd67b5bab6f4ed52349cbb03f66f542b190600090a3505050505050565b60025460405163123bd07560e11b815282919073__Library_______________________________90632477a0ea90611b3a9085908590600401613b2b565b60206040518083038186803b158015611b5257600080fd5b505af4158015611b66573d6000803e3d6000fd5b505050506040513d601f19601f82011682018060405250810190611b8a91906137bf565b1515600114611bab5760405162461bcd60e51b81526004016105ab90613b61565b611bb73360005461217a565b1515600114611bd85760405162461bcd60e51b81526004016105ab90613c2a565b600080611bf5866040518060200160405280600081525087612da3565b604051635cb09bcf60e01b8152919350915073__ItemsLibrary__________________________90635cb09bcf90611c3590859085903090600401613ce7565b60006040518083038186803b158015611c4d57600080fd5b505af4158015611c61573d6000803e3d6000fd5b50505050505050505050565b60025460405163123bd07560e11b8152606091839173__Library_______________________________90632477a0ea90611cae9085908590600401613b2b565b60206040518083038186803b158015611cc657600080fd5b505af4158015611cda573d6000803e3d6000fd5b505050506040513d601f19601f82011682018060405250810190611cfe91906137bf565b1515600114611d1f5760405162461bcd60e51b81526004016105ab90613b61565b73__ItemsLibrary__________________________6327724f4b60028681548110611d4c57611d4c613f20565b90600052602060002090600402016040518263ffffffff1660e01b8152600401611d7891815260200190565b60006040518083038186803b158015611d9057600080fd5b505af4158015611da4573d6000803e3d6000fd5b505050506040513d6000823e601f3d908101601f19168201604052611dcc919081019061370b565b949350505050565b60025460405163123bd07560e11b815282919073__Library_______________________________90632477a0ea90611e139085908590600401613b2b565b60206040518083038186803b158015611e2b57600080fd5b505af4158015611e3f573d6000803e3d6000fd5b505050506040513d601f19601f82011682018060405250810190611e6391906137bf565b1515600114611e845760405162461bcd60e51b81526004016105ab90613b61565b611e903360005461217a565b1515600114611eb15760405162461bcd60e51b81526004016105ab90613c2a565b600080611ece866040518060200160405280600081525087612da3565b60405163e23fcdef60e01b8152919350915073__ItemsLibrary__________________________9063e23fcdef90611c3590859085903090600401613ce7565b611f1733612faf565b1515600114611f505760405162461bcd60e51b8152602060048201526005602482015264454331322d60d81b60448201526064016105ab565b816001600160a01b038083166000908152600a60209081526040808320878452909152902054839185911615611fb05760405162461bcd60e51b8152602060048201526005602482015264454331352d60d81b60448201526064016105ab565b6001600160a01b0384166000818152600a602081815260408084208a855280835281852080546001600160a01b031916339081179091559383526001908101805491820181558552919093200188905590517ff55a90628981610edc26894247bee72e1963d1c9faa4ea6533fd3df39fd36ed4906120319089815260200190565b60405180910390a35050505050565b60025460405163123bd07560e11b815282919073__Library_______________________________90632477a0ea9061207f9085908590600401613b2b565b60206040518083038186803b15801561209757600080fd5b505af41580156120ab573d6000803e3d6000fd5b505050506040513d601f19601f820116820180604052508101906120cf91906137bf565b15156001146120f05760405162461bcd60e51b81526004016105ab90613b61565b6120fc3360005461217a565b151560011461211d5760405162461bcd60e51b81526004016105ab90613c2a565b60008061213a866040518060200160405280600081525087612da3565b604051637493a70b60e01b8152919350915073__ItemsLibrary__________________________90637493a70b90611c3590859085903090600401613ce7565b60025460405163123bd07560e11b8152600091839173__Library_______________________________90632477a0ea906121bb9085908590600401613b2b565b60206040518083038186803b1580156121d357600080fd5b505af41580156121e7573d6000803e3d6000fd5b505050506040513d601f19601f8201168201806040525081019061220b91906137bf565b151560011461222c5760405162461bcd60e51b81526004016105ab90613b61565b60405163bc215e8560e01b815260009073__AddressLibrary________________________9063bc215e8590612266908990600401613a74565b60206040518083038186803b15801561227e57600080fd5b505af4158015612292573d6000803e3d6000fd5b505050506040513d601f19601f820116820180604052508101906122b691906137dc565b905073__ItemsLibrary__________________________63dbdfbeec82600288815481106122e6576122e6613f20565b90600052602060002090600402016040518363ffffffff1660e01b8152600401612311929190613b2b565b60206040518083038186803b15801561232957600080fd5b505af415801561233d573d6000803e3d6000fd5b505050506040513d601f19601f8201168201806040525081019061236191906137bf565b9695505050505050565b801561238f576001600660008282546123849190613e59565b909155506123a89050565b6001600760008282546123a29190613e59565b90915550505b600880546001810182556000919091527ff3f7a9fe364faab93b216da50a3214154f22a0a2b415b23a84c8169e8b636ee30180546001600160a01b0319163317905561056d612fbc565b60025460405163123bd07560e11b815282919073__Library_______________________________90632477a0ea906124319085908590600401613b2b565b60206040518083038186803b15801561244957600080fd5b505af415801561245d573d6000803e3d6000fd5b505050506040513d601f19601f8201168201806040525081019061248191906137bf565b15156001146124a25760405162461bcd60e51b81526004016105ab90613b61565b6124ae3360005461217a565b15156001146124cf5760405162461bcd60e51b81526004016105ab90613c2a565b6000806125148888888080601f0160208091040260200160405190810160405280939291908181526020018383808284376000920191909152508a9250612da3915050565b6040516305cc2d5560e11b8152919350915073__ItemsLibrary__________________________90630b985aaa9061255490859085903090600401613ce7565b60006040518083038186803b15801561256c57600080fd5b505af4158015612580573d6000803e3d6000fd5b505050505050505050505050565b61259661310d565b60025460405163123bd07560e11b815283919073__Library_______________________________90632477a0ea906125d59085908590600401613b2b565b60206040518083038186803b1580156125ed57600080fd5b505af4158015612601573d6000803e3d6000fd5b505050506040513d601f19601f8201168201806040525081019061262591906137bf565b15156001146126465760405162461bcd60e51b81526004016105ab90613b61565b60405163bc215e8560e01b815260009073__AddressLibrary________________________9063bc215e8590612680908990600401613a74565b60206040518083038186803b15801561269857600080fd5b505af41580156126ac573d6000803e3d6000fd5b505050506040513d601f19601f820116820180604052508101906126d091906137dc565b905073__ItemsLibrary__________________________631aeccc6a826002888154811061270057612700613f20565b90600052602060002090600402016040518363ffffffff1660e01b815260040161272b929190613b2b565b60006040518083038186803b15801561274357600080fd5b505af4158015612757573d6000803e3d6000fd5b505050506040513d6000823e601f3d908101601f1916820160405261236191908101906138b6565b604051630d1d719d60e41b8152309073__Library_______________________________9063d1d719d0906127b8908490600401613a74565b60206040518083038186803b1580156127d057600080fd5b505af41580156127e4573d6000803e3d6000fd5b505050506040513d601f19601f8201168201806040525081019061280891906137bf565b15156001146128425760405162461bcd60e51b81526004016105ab906020808252600490820152634543382d60e01b604082015260600190565b5050505050565b60008161288757600260018154811061286457612864613f20565b6000918252602080832086845260049092029091019052604090206005016128b7565b600260018154811061289b5761289b613f20565b6000918252602080832086845260049283020190526040909120015b80548060200260200160405190810160405280929190818152602001828054801561290b57602002820191906000526020600020905b81546001600160a01b031681526001909101906020018083116128ed575b5050505050905060005b815181101561082857600b60009054906101000a90046001600160a01b03166001600160a01b0316635a3794e96040518163ffffffff1660e01b815260040160206040518083038186803b15801561296c57600080fd5b505afa158015612980573d6000803e3d6000fd5b505050506040513d601f19601f820116820180604052508101906129a49190613453565b6001600160a01b031663eb1e2a418383815181106129c4576129c4613f20565b602002602001015184516040518363ffffffff1660e01b81526004016129ff9291906001600160a01b03929092168252602082015260400190565b600060405180830381600087803b158015612a1957600080fd5b505af1158015612a2d573d6000803e3d6000fd5b505050508080612a3c90613eef565b915050612915565b60025460405163123bd07560e11b8152606091839173__Library_______________________________90632477a0ea90612a859085908590600401613b2b565b60206040518083038186803b158015612a9d57600080fd5b505af4158015612ab1573d6000803e3d6000fd5b505050506040513d601f19601f82011682018060405250810190612ad591906137bf565b1515600114612af65760405162461bcd60e51b81526004016105ab90613b61565b606073__ItemsLibrary__________________________63e035e0068760028881548110612b2657612b26613f20565b90600052602060002090600402016040518363ffffffff1660e01b8152600401612b5c9291909115158252602082015260400190565b60006040518083038186803b158015612b7457600080fd5b505af4158015612b88573d6000803e3d6000fd5b505050506040513d6000823e601f3d908101601f19168201604052612361919081019061370b565b60025460405163123bd07560e11b8152600091839173__Library_______________________________90632477a0ea90612bf19085908590600401613b2b565b60206040518083038186803b158015612c0957600080fd5b505af4158015612c1d573d6000803e3d6000fd5b505050506040513d601f19601f82011682018060405250810190612c4191906137bf565b1515600114612c625760405162461bcd60e51b81526004016105ab90613b61565b60405163bc215e8560e01b815260009073__AddressLibrary________________________9063bc215e8590612c9c908990600401613a74565b60206040518083038186803b158015612cb457600080fd5b505af4158015612cc8573d6000803e3d6000fd5b505050506040513d601f19601f82011682018060405250810190612cec91906137dc565b905073__ItemsLibrary__________________________632854ed2e82600288815481106122e6576122e6613f20565b600454610100900460ff1680612d35575060045460ff16155b612d515760405162461bcd60e51b81526004016105ab90613bdc565b600454610100900460ff16158015612d73576004805461ffff19166101011790555b600b80546001600160a01b0319166001600160a01b03841617905580156106b4576004805461ff00191690555050565b612dd86040518060a0016040528060008019168152602001606081526020016000815260200160608152602001606081525090565b60008073__AddressLibrary________________________63bc215e85876040518263ffffffff1660e01b8152600401612e129190613a74565b60206040518083038186803b158015612e2a57600080fd5b505af4158015612e3e573d6000803e3d6000fd5b505050506040513d601f19601f82011682018060405250810190612e6291906137dc565b60408051600180825281830190925291925060009190602080830190803683370190505090508481600081518110612e9c57612e9c613f20565b60200260200101818152505060006040518060a00160405280848152602001888152602001600154815260200160038881548110612edc57612edc613f20565b906000526020600020018054612ef190613eb4565b80601f0160208091040260200160405190810160405280929190818152602001828054612f1d90613eb4565b8015612f6a5780601f10612f3f57610100808354040283529160200191612f6a565b820191906000526020600020905b815481529060010190602001808311612f4d57829003601f168201915b50505050508152602001838152509050600060028781548110612f8f57612f8f613f20565b600091825260209091209296506004029091019350505050935093915050565b60006107e382600161217a565b60065460015460405163f6001d7d60e01b815273__ItemsLibrary__________________________9263f6001d7d92612ff792600401613b2b565b60206040518083038186803b15801561300f57600080fd5b505af4158015613023573d6000803e3d6000fd5b505050506040513d601f19601f8201168201806040525081019061304791906137bf565b1561305c5760055460015561305a6130f0565b565b60075460015460405163f6001d7d60e01b815273__ItemsLibrary__________________________9263f6001d7d9261309792600401613b2b565b60206040518083038186803b1580156130af57600080fd5b505af41580156130c3573d6000803e3d6000fd5b505050506040513d601f19601f820116820180604052508101906130e791906137bf565b1561305a5761305a5b600060058190556006819055600781905561305a90600890613222565b6040518060c0016040528060001515815260200160608152602001600081526020016000815260200160608152602001606081525090565b828054828255906000526020600020908101928215613192579160200282015b8281111561319257825180516131829184916020909101906131a2565b5091602001919060010190613165565b5061319e929150613240565b5090565b8280546131ae90613eb4565b90600052602060002090601f0160209004810192826131d05760008555613216565b82601f106131e957805160ff1916838001178555613216565b82800160010185558215613216579182015b828111156132165782518255916020019190600101906131fb565b5061319e92915061325d565b508054600082559060005260206000209081019061056d919061325d565b8082111561319e5760006132548282613272565b50600101613240565b5b8082111561319e576000815560010161325e565b50805461327e90613eb4565b6000825580601f1061328e575050565b601f01602090049060005260206000209081019061056d919061325d565b600082601f8301126132bd57600080fd5b813560206132d26132cd83613e0f565b613ddf565b80838252828201915082860187848660051b89010111156132f257600080fd5b60005b8581101561331a57813561330881613f4c565b845292840192908401906001016132f5565b5090979650505050505050565b600082601f83011261333857600080fd5b815160206133486132cd83613e0f565b80838252828201915082860187848660051b890101111561336857600080fd5b60005b8581101561331a57815161337e81613f4c565b8452928401929084019060010161336b565b805161339b81613f61565b919050565b600082601f8301126133b157600080fd5b81356133bf6132cd82613e32565b8181528460208386010111156133d457600080fd5b816020850160208301376000918101602001919091529392505050565b600082601f83011261340257600080fd5b81516134106132cd82613e32565b81815284602083860101111561342557600080fd5b611dcc826020830160208701613e88565b60006020828403121561344857600080fd5b8135610d8181613f4c565b60006020828403121561346557600080fd5b8151610d8181613f4c565b60008060006040848603121561348557600080fd5b833561349081613f4c565b925060208401356001600160401b03808211156134ac57600080fd5b818601915086601f8301126134c057600080fd5b8135818111156134cf57600080fd5b8760208285010111156134e157600080fd5b6020830194508093505050509250925092565b6000806040838503121561350757600080fd5b823561351281613f4c565b915060208301356001600160401b0381111561352d57600080fd5b613539858286016133a0565b9150509250929050565b60008060006060848603121561355857600080fd5b833561356381613f4c565b95602085013595506040909401359392505050565b6000806040838503121561358b57600080fd5b82356001600160401b038111156135a157600080fd5b6135ad858286016132ac565b95602094909401359450505050565b6000806000606084860312156135d157600080fd5b83356001600160401b038111156135e757600080fd5b6135f3868287016132ac565b93505060208401359150604084013561360b81613f4c565b809150509250925092565b600080600080600060a0868803121561362e57600080fd5b85356001600160401b038082111561364557600080fd5b61365189838a016132ac565b9650602091508188013595506040880135945060608801358181111561367657600080fd5b8801601f81018a1361368757600080fd5b80356136956132cd82613e0f565b8082825285820191508584018d878560051b87010111156136b557600080fd5b60005b848110156136ef5786823511156136ce57600080fd5b6136dd8f8984358901016133a0565b845292870192908701906001016136b8565b5050809750505050505050608086013590509295509295909350565b6000602080838503121561371e57600080fd5b82516001600160401b0381111561373457600080fd5b8301601f8101851361374557600080fd5b80516137536132cd82613e0f565b80828252848201915084840188868560051b870101111561377357600080fd5b600094505b83851015613796578051835260019490940193918501918501613778565b50979650505050505050565b6000602082840312156137b457600080fd5b8135610d8181613f61565b6000602082840312156137d157600080fd5b8151610d8181613f61565b6000602082840312156137ee57600080fd5b5051919050565b6000806040838503121561380857600080fd5b82359150602083013561381a81613f4c565b809150509250929050565b6000806000806060858703121561383b57600080fd5b8435935060208501356001600160401b038082111561385957600080fd5b818701915087601f83011261386d57600080fd5b81358181111561387c57600080fd5b8860208260051b850101111561389157600080fd5b60208301955080945050505060408501356138ab81613f61565b939692955090935050565b6000602082840312156138c857600080fd5b81516001600160401b03808211156138df57600080fd5b9083019060c082860312156138f357600080fd5b6138fb613db7565b61390483613390565b815260208301518281111561391857600080fd5b613924878286016133f1565b602083015250604083015160408201526060830151606082015260808301518281111561395057600080fd5b61395c87828601613327565b60808301525060a08301518281111561397457600080fd5b61398087828601613327565b60a08301525095945050505050565b6000602082840312156139a157600080fd5b5035919050565b600080600080600060a086880312156139c057600080fd5b5050835160208501516040860151606087015160809097015192989197509594509092509050565b600081518084526020808501945080840160005b83811015613a215781516001600160a01b0316875295820195908201906001016139fc565b509495945050505050565b60008151808452613a44816020860160208601613e88565b601f01601f19169290920160200192915050565b60008251613a6a818460208701613e88565b9190910192915050565b6001600160a01b0391909116815260200190565b60006040820160018060a01b03808616845260206040818601528286548085526060870191508760005282600020945060005b81811015613ad9578554851683526001958601959284019201613abb565b509098975050505050505050565b6020808252825182820181905260009190848201906040850190845b81811015613b1f57835183529284019291840191600101613b03565b50909695505050505050565b918252602082015260400190565b6020810160048310613b5b57634e487b7160e01b600052602160045260246000fd5b91905290565b6020808252600490820152634543312d60e01b604082015260600190565b602080825260059082015264454331392d60d81b604082015260600190565b602080825260059082015264454333312d60d81b604082015260600190565b602080825260059082015264454331372d60d81b604082015260600190565b6020808252602e908201527f496e697469616c697a61626c653a20636f6e747261637420697320616c72656160408201526d191e481a5b9a5d1a585b1a5e995960921b606082015260800190565b6020808252600490820152634543392d60e01b604082015260600190565b6020808252600490820152634543352d60e01b604082015260600190565b602081528151151560208201526000602083015160c06040840152613c8e60e0840182613a2c565b905060408401516060840152606084015160808401526080840151601f19808584030160a0860152613cc083836139e8565b925060a08601519150808584030160c086015250613cde82826139e8565b95945050505050565b6060815283516060820152600060208086015160a06080850152613d0f610100850182613a2c565b9050604087015160a08501526060870151605f19808684030160c0870152613d378383613a2c565b60808a015187820390920160e088015281518082529185019350600092508401905b80831015613d795783518252928401926001929092019190840190613d59565b5092850187905250506001600160a01b03841660408401529050611dcc565b838152826020820152606060408201526000613cde60608301846139e8565b60405160c081016001600160401b0381118282101715613dd957613dd9613f36565b60405290565b604051601f8201601f191681016001600160401b0381118282101715613e0757613e07613f36565b604052919050565b60006001600160401b03821115613e2857613e28613f36565b5060051b60200190565b60006001600160401b03821115613e4b57613e4b613f36565b50601f01601f191660200190565b60008219821115613e6c57613e6c613f0a565b500190565b600082821015613e8357613e83613f0a565b500390565b60005b83811015613ea3578181015183820152602001613e8b565b838111156108285750506000910152565b600181811c90821680613ec857607f821691505b60208210811415613ee957634e487b7160e01b600052602260045260246000fd5b50919050565b6000600019821415613f0357613f03613f0a565b5060010190565b634e487b7160e01b600052601160045260246000fd5b634e487b7160e01b600052603260045260246000fd5b634e487b7160e01b600052604160045260246000fd5b6001600160a01b038116811461056d57600080fd5b801515811461056d57600080fdfea2646970667358221220c6edbd4f78e782269c03c37cb8de97224631d1afa5581f6f2f664143b022d84164736f6c63430008070033",
  "immutableReferences": {},
  "source": "// SPDX-License-Identifier: GPL-3.0\r\n\r\npragma solidity 0.8.7;\r\n\r\n/*\r\n  Public Certificate Pools offer the default MultiSig Certificate Pool functionality\r\n  except for Providers Creation and Certificate Issuing since payments must be made\r\n  Besides Public Certificate Pool is a managed contract\r\n */\r\n\r\n import \"../Abstract/MultiSigCertificatesPool.sol\";\r\n import \"../Interfaces/ITreasury.sol\";\r\n import \"../Base/ManagedBaseContract.sol\";\r\n import \"../Interfaces/IPriceConverter.sol\";\r\n\r\n contract PublicCertificatesPool is MultiSigCertificatesPool, ManagedBaseContract {\r\n\r\n    // EVENTS /////////////////////////////////////////\r\n    event _NewProposal(address indexed,  string indexed);\r\n\r\n    // MODIFIERS /////////////////////////////////////////\r\n    modifier ProviderisNotActivated(address entity){\r\n        require(false == isEntity(entity, _providerId), \"EC6-\");\r\n        _;\r\n    }\r\n\r\n    modifier ProviderisNotPending(address entity){\r\n        bytes32 entityInBytes = AddressLibrary.AddressToBytes32(entity);\r\n        require(false == ItemsLibrary.isItemPendingToAdded(entityInBytes, _Entities[_providerId]) && \r\n                false == ItemsLibrary.isItemPendingToRemoved(entityInBytes, _Entities[_providerId]), \"EC27-\");\r\n        _;\r\n    }\r\n\r\n    // CONSTRUCTOR /////////////////////////////////////////\r\n    function PublicCertPool_init(address[] memory owners,  uint256 minOwners, address managerContractAddress) public initializer {\r\n        super.MultiSigCertPool_init(owners, minOwners); \r\n        super.ManagedBaseContract_init(managerContractAddress); \r\n    }\r\n\r\n    // FUNCTIONALITY /////////////////////////////////////////\r\n    function addProvider(address provider, string memory providerInfo) external \r\n        ProviderisNotActivated(provider) \r\n        ProviderisNotPending(provider)\r\n    override payable\r\n    {\r\n        ITreasury(_managerContract.retrieveTreasuryProxy()).pay{value:msg.value}(Library.Prices.NewProvider);\r\n        bytes32 providerInBytes = AddressLibrary.AddressToBytes32(provider);\r\n        _Entities[_providerId]._items[providerInBytes]._Info = providerInfo;\r\n        _Entities[_providerId]._pendingItemsAdd.push(providerInBytes);\r\n        _Entities[_providerId]._items[providerInBytes]._pendingId = _Entities[_providerId]._pendingItemsAdd.length - 1;\r\n\r\n        emit _NewProposal(provider, providerInfo);\r\n    }\r\n\r\n    function payBack(bytes32 entityInBytes, bool validatedOrRejected) internal\r\n    {\r\n        address[] memory Voters = (validatedOrRejected) ? _Entities[_providerId]._items[entityInBytes]._Validations : _Entities[_providerId]._items[entityInBytes]._Rejections;\r\n\r\n        for(uint i=0; i < Voters.length; i++){\r\n            ITreasury(_managerContract.retrieveTreasuryProxy()).getRefund(Voters[i], Voters.length);\r\n        }\r\n    }\r\n\r\n    function addCertificate(bytes32 CertificateHash, address holder) external override payable\r\n    {\r\n        ITreasury(_managerContract.retrieveTreasuryProxy()).pay{value:msg.value}(Library.Prices.NewCertificate);\r\n        addCertificateInternal(CertificateHash, holder);\r\n    }\r\n\r\n    function retrieveAddCertificatePriceWei() external override view returns(uint256)\r\n    {\r\n        (, , , uint Price, ) = ITreasury(_managerContract.retrieveTreasuryProxy()).retrievePrices();\r\n        return IPriceConverter(_managerContract.retrievePriceConverterProxy()).fromUSDToETH(Price);\r\n    }\r\n\r\n    function retrieveSubscriptionPriceWei() external override virtual view returns(uint256)\r\n    {\r\n        (uint Price, , , , ) = ITreasury(_managerContract.retrieveTreasuryProxy()).retrievePrices();\r\n        return IPriceConverter(_managerContract.retrievePriceConverterProxy()).fromUSDToETH(Price);\r\n    }\r\n\r\n    // Callback functions\r\n    function onItemValidated(bytes32 item, uint256[] calldata ids, bool addOrRemove) public override \r\n    {\r\n        super.onItemValidated(item, ids, addOrRemove);\r\n\r\n        if(ids[0] == _providerId){\r\n            if(addOrRemove)payBack(item, true);\r\n        }\r\n    }\r\n\r\n    function onItemRejected(bytes32 item, uint256[] calldata ids, bool addOrRemove) public override  \r\n    {\r\n        super.onItemRejected(item, ids, addOrRemove);\r\n\r\n        if(ids[0] == _providerId){\r\n            if(addOrRemove)payBack(item, false);\r\n        }\r\n    }\r\n\r\n }",
  "sourcePath": "C:/Users/d-aam/GitHub/Certificates/contracts/DeployedContracts/PublicCertificatesPool.sol",
  "compiler": {
    "name": "solc",
    "version": "0.8.7+commit.e28d00a7.Emscripten.clang"
  },
  "schemaVersion": "3.3.4",
  "updatedAt": "2021-09-14T07:37:09.933Z",
  "devdoc": {
    "kind": "dev",
    "methods": {},
    "version": 1
  },
  "userdoc": {
    "kind": "user",
    "methods": {},
    "version": 1
  }
}