{
  "contractName": "PublicCertificatesPool",
  "abi": [
    {
      "anonymous": false,
      "inputs": [
        {
          "indexed": true,
          "internalType": "address",
          "name": "",
          "type": "address"
        },
        {
          "indexed": true,
          "internalType": "address",
          "name": "",
          "type": "address"
        },
        {
          "indexed": false,
          "internalType": "bytes32",
          "name": "",
          "type": "bytes32"
        }
      ],
      "name": "_AddCertificate",
      "type": "event"
    },
    {
      "anonymous": false,
      "inputs": [
        {
          "indexed": true,
          "internalType": "address",
          "name": "",
          "type": "address"
        },
        {
          "indexed": true,
          "internalType": "string",
          "name": "",
          "type": "string"
        }
      ],
      "name": "_NewProposal",
      "type": "event"
    },
    {
      "inputs": [
        {
          "internalType": "address[]",
          "name": "owners",
          "type": "address[]"
        },
        {
          "internalType": "uint256",
          "name": "minOwners",
          "type": "uint256"
        }
      ],
      "name": "MultiSigCertPool_init",
      "outputs": [],
      "stateMutability": "nonpayable",
      "type": "function"
    },
    {
      "inputs": [
        {
          "internalType": "address[]",
          "name": "owners",
          "type": "address[]"
        },
        {
          "internalType": "uint256",
          "name": "minOwners",
          "type": "uint256"
        },
        {
          "internalType": "uint256",
          "name": "TotalEntities",
          "type": "uint256"
        },
        {
          "internalType": "string[]",
          "name": "labels",
          "type": "string[]"
        },
        {
          "internalType": "uint256",
          "name": "ownerId",
          "type": "uint256"
        }
      ],
      "name": "MultiSigContract_init",
      "outputs": [],
      "stateMutability": "nonpayable",
      "type": "function"
    },
    {
      "inputs": [
        {
          "internalType": "address",
          "name": "owner",
          "type": "address"
        },
        {
          "internalType": "string",
          "name": "ownerInfo",
          "type": "string"
        }
      ],
      "name": "addOwner",
      "outputs": [],
      "stateMutability": "nonpayable",
      "type": "function"
    },
    {
      "inputs": [
        {
          "internalType": "uint256",
          "name": "newMinOwners",
          "type": "uint256"
        }
      ],
      "name": "changeMinOwners",
      "outputs": [],
      "stateMutability": "nonpayable",
      "type": "function"
    },
    {
      "inputs": [],
      "name": "rejectMinOwners",
      "outputs": [],
      "stateMutability": "nonpayable",
      "type": "function"
    },
    {
      "inputs": [
        {
          "internalType": "address",
          "name": "owner",
          "type": "address"
        }
      ],
      "name": "rejectOwner",
      "outputs": [],
      "stateMutability": "nonpayable",
      "type": "function"
    },
    {
      "inputs": [
        {
          "internalType": "address",
          "name": "provider",
          "type": "address"
        }
      ],
      "name": "rejectProvider",
      "outputs": [],
      "stateMutability": "nonpayable",
      "type": "function"
    },
    {
      "inputs": [
        {
          "internalType": "address",
          "name": "owner",
          "type": "address"
        }
      ],
      "name": "removeOwner",
      "outputs": [],
      "stateMutability": "nonpayable",
      "type": "function"
    },
    {
      "inputs": [
        {
          "internalType": "address",
          "name": "provider",
          "type": "address"
        }
      ],
      "name": "removeProvider",
      "outputs": [],
      "stateMutability": "nonpayable",
      "type": "function"
    },
    {
      "inputs": [],
      "name": "retrieveAllOwners",
      "outputs": [
        {
          "internalType": "bytes32[]",
          "name": "",
          "type": "bytes32[]"
        }
      ],
      "stateMutability": "view",
      "type": "function"
    },
    {
      "inputs": [],
      "name": "retrieveAllProviders",
      "outputs": [
        {
          "internalType": "bytes32[]",
          "name": "",
          "type": "bytes32[]"
        }
      ],
      "stateMutability": "view",
      "type": "function"
    },
    {
      "inputs": [
        {
          "internalType": "bytes32",
          "name": "CertificateHash",
          "type": "bytes32"
        },
        {
          "internalType": "address",
          "name": "holder",
          "type": "address"
        }
      ],
      "name": "retrieveCertificateProvider",
      "outputs": [
        {
          "internalType": "address",
          "name": "",
          "type": "address"
        }
      ],
      "stateMutability": "view",
      "type": "function"
    },
    {
      "inputs": [
        {
          "internalType": "address",
          "name": "holder",
          "type": "address"
        },
        {
          "internalType": "uint256",
          "name": "skipFirst",
          "type": "uint256"
        },
        {
          "internalType": "uint256",
          "name": "max",
          "type": "uint256"
        }
      ],
      "name": "retrieveCertificatesByHolder",
      "outputs": [
        {
          "internalType": "bytes32[]",
          "name": "",
          "type": "bytes32[]"
        }
      ],
      "stateMutability": "view",
      "type": "function"
    },
    {
      "inputs": [],
      "name": "retrieveManagerContract",
      "outputs": [
        {
          "internalType": "address",
          "name": "",
          "type": "address"
        }
      ],
      "stateMutability": "view",
      "type": "function"
    },
    {
      "inputs": [],
      "name": "retrieveMinOwners",
      "outputs": [
        {
          "internalType": "uint256",
          "name": "",
          "type": "uint256"
        }
      ],
      "stateMutability": "view",
      "type": "function"
    },
    {
      "inputs": [
        {
          "internalType": "address",
          "name": "owner",
          "type": "address"
        }
      ],
      "name": "retrieveOwner",
      "outputs": [
        {
          "components": [
            {
              "internalType": "string",
              "name": "_Info",
              "type": "string"
            },
            {
              "internalType": "bool",
              "name": "_activated",
              "type": "bool"
            },
            {
              "internalType": "uint256",
              "name": "_id",
              "type": "uint256"
            },
            {
              "internalType": "uint256",
              "name": "_pendingId",
              "type": "uint256"
            },
            {
              "internalType": "address[]",
              "name": "_Validations",
              "type": "address[]"
            },
            {
              "internalType": "address[]",
              "name": "_Rejections",
              "type": "address[]"
            }
          ],
          "internalType": "struct ItemsLibrary._itemIdentity",
          "name": "",
          "type": "tuple"
        }
      ],
      "stateMutability": "view",
      "type": "function"
    },
    {
      "inputs": [],
      "name": "retrievePendingMinOwners",
      "outputs": [
        {
          "internalType": "uint256",
          "name": "",
          "type": "uint256"
        }
      ],
      "stateMutability": "view",
      "type": "function"
    },
    {
      "inputs": [],
      "name": "retrievePendingMinOwnersStatus",
      "outputs": [
        {
          "internalType": "uint256",
          "name": "",
          "type": "uint256"
        },
        {
          "internalType": "uint256",
          "name": "",
          "type": "uint256"
        },
        {
          "internalType": "address[]",
          "name": "",
          "type": "address[]"
        }
      ],
      "stateMutability": "view",
      "type": "function"
    },
    {
      "inputs": [
        {
          "internalType": "bool",
          "name": "addedORremove",
          "type": "bool"
        }
      ],
      "name": "retrievePendingOwners",
      "outputs": [
        {
          "internalType": "bytes32[]",
          "name": "",
          "type": "bytes32[]"
        }
      ],
      "stateMutability": "view",
      "type": "function"
    },
    {
      "inputs": [
        {
          "internalType": "bool",
          "name": "addedORremove",
          "type": "bool"
        }
      ],
      "name": "retrievePendingProviders",
      "outputs": [
        {
          "internalType": "bytes32[]",
          "name": "",
          "type": "bytes32[]"
        }
      ],
      "stateMutability": "view",
      "type": "function"
    },
    {
      "inputs": [
        {
          "internalType": "address",
          "name": "provider",
          "type": "address"
        }
      ],
      "name": "retrieveProvider",
      "outputs": [
        {
          "components": [
            {
              "internalType": "string",
              "name": "_Info",
              "type": "string"
            },
            {
              "internalType": "bool",
              "name": "_activated",
              "type": "bool"
            },
            {
              "internalType": "uint256",
              "name": "_id",
              "type": "uint256"
            },
            {
              "internalType": "uint256",
              "name": "_pendingId",
              "type": "uint256"
            },
            {
              "internalType": "address[]",
              "name": "_Validations",
              "type": "address[]"
            },
            {
              "internalType": "address[]",
              "name": "_Rejections",
              "type": "address[]"
            }
          ],
          "internalType": "struct ItemsLibrary._itemIdentity",
          "name": "",
          "type": "tuple"
        }
      ],
      "stateMutability": "view",
      "type": "function"
    },
    {
      "inputs": [
        {
          "internalType": "address",
          "name": "holder",
          "type": "address"
        }
      ],
      "name": "retrieveTotalCertificatesByHolder",
      "outputs": [
        {
          "internalType": "uint256",
          "name": "",
          "type": "uint256"
        }
      ],
      "stateMutability": "view",
      "type": "function"
    },
    {
      "inputs": [],
      "name": "validateMinOwners",
      "outputs": [],
      "stateMutability": "nonpayable",
      "type": "function"
    },
    {
      "inputs": [
        {
          "internalType": "address",
          "name": "owner",
          "type": "address"
        }
      ],
      "name": "validateOwner",
      "outputs": [],
      "stateMutability": "nonpayable",
      "type": "function"
    },
    {
      "inputs": [
        {
          "internalType": "address",
          "name": "provider",
          "type": "address"
        }
      ],
      "name": "validateProvider",
      "outputs": [],
      "stateMutability": "nonpayable",
      "type": "function"
    },
    {
      "inputs": [
        {
          "internalType": "address[]",
          "name": "owners",
          "type": "address[]"
        },
        {
          "internalType": "uint256",
          "name": "minOwners",
          "type": "uint256"
        },
        {
          "internalType": "address",
          "name": "managerContractAddress",
          "type": "address"
        }
      ],
      "name": "PublicCertPool_init",
      "outputs": [],
      "stateMutability": "nonpayable",
      "type": "function"
    },
    {
      "inputs": [
        {
          "internalType": "address",
          "name": "provider",
          "type": "address"
        },
        {
          "internalType": "string",
          "name": "providerInfo",
          "type": "string"
        }
      ],
      "name": "addProvider",
      "outputs": [],
      "stateMutability": "payable",
      "type": "function"
    },
    {
      "inputs": [
        {
          "internalType": "bytes32",
          "name": "CertificateHash",
          "type": "bytes32"
        },
        {
          "internalType": "address",
          "name": "holder",
          "type": "address"
        }
      ],
      "name": "addCertificate",
      "outputs": [],
      "stateMutability": "payable",
      "type": "function"
    },
    {
      "inputs": [],
      "name": "retrieveAddCertificatePriceWei",
      "outputs": [
        {
          "internalType": "uint256",
          "name": "",
          "type": "uint256"
        }
      ],
      "stateMutability": "view",
      "type": "function"
    },
    {
      "inputs": [],
      "name": "retrieveSubscriptionPriceWei",
      "outputs": [
        {
          "internalType": "uint256",
          "name": "",
          "type": "uint256"
        }
      ],
      "stateMutability": "view",
      "type": "function"
    },
    {
      "inputs": [
        {
          "internalType": "bytes32",
          "name": "item",
          "type": "bytes32"
        },
        {
          "internalType": "uint256[]",
          "name": "ids",
          "type": "uint256[]"
        },
        {
          "internalType": "bool",
          "name": "addOrRemove",
          "type": "bool"
        }
      ],
      "name": "onItemValidated",
      "outputs": [],
      "stateMutability": "nonpayable",
      "type": "function"
    },
    {
      "inputs": [
        {
          "internalType": "bytes32",
          "name": "item",
          "type": "bytes32"
        },
        {
          "internalType": "uint256[]",
          "name": "ids",
          "type": "uint256[]"
        },
        {
          "internalType": "bool",
          "name": "addOrRemove",
          "type": "bool"
        }
      ],
      "name": "onItemRejected",
      "outputs": [],
      "stateMutability": "nonpayable",
      "type": "function"
    }
  ],
  "bytecode": "0x608060405234801561001057600080fd5b50613f9e806100206000396000f3fe6080604052600436106101735760003560e01c80630b4c72a914610178578063173825d91461019a5780631ab807f8146101ba57806327a40b4b146101cd5780632edbe7fc146101ed57806330ade922146102115780633542758f1461022657806337583499146102465780633fd07181146102735780634774779d1461029357806357e7ea2e146102a85780635888ebb3146102bd57806358a1ba25146102e15780635b362e841461030e57806365b973e5146103355780636b2996041461034a5780636b3a0fec1461036a5780636e4f91791461038a5780636e55d2d41461039f57806376f8f90f146103bf57806377bc5a1f146103df5780637c8c2add146103ff5780638a355a571461041f5780639580fc6c1461043f578063a93d5ed61461045f578063c3079ae714610474578063c3ccb19114610489578063c66433ea146104a9578063ce33d58a146104c9578063cf2041d9146104e9578063d0a4adfe14610509578063fc0005001461054f575b600080fd5b34801561018457600080fd5b5061019861019336600461342f565b610562565b005b3480156101a657600080fd5b506101986101b536600461342f565b610570565b6101986101c83660046137ee565b6105c5565b3480156101d957600080fd5b506101986101e836600461342f565b6106b8565b3480156101f957600080fd5b506005545b6040519081526020015b60405180910390f35b34801561021d57600080fd5b506101986106c3565b34801561023257600080fd5b50610198610241366004613469565b6107c2565b34801561025257600080fd5b5061026661026136600461342f565b6107d0565b6040516102089190613c5f565b34801561027f57600080fd5b5061019861028e36600461381e565b6107e9565b34801561029f57600080fd5b506101fe61082e565b3480156102b457600080fd5b506101fe610a2c565b3480156102c957600080fd5b506102d2610b6e565b60405161020893929190613d91565b3480156102ed57600080fd5b506103016102fc36600461353c565b610be2565b6040516102089190613ae0565b34801561031a57600080fd5b50600b546001600160a01b03165b6040516102089190613a6d565b34801561034157600080fd5b506001546101fe565b34801561035657600080fd5b5061030161036536600461379b565b610d88565b34801561037657600080fd5b5061030161038536600461379b565b610d96565b34801561039657600080fd5b50610301610da3565b3480156103ab57600080fd5b506101fe6103ba36600461342f565b610db4565b3480156103cb57600080fd5b506101986103da36600461342f565b610dd2565b3480156103eb57600080fd5b506102666103fa36600461342f565b610e2d565b34801561040b57600080fd5b5061019861041a36600461381e565b610e41565b34801561042b57600080fd5b5061019861043a36600461342f565b610e80565b34801561044b57600080fd5b5061019861045a3660046135b5565b610e8b565b34801561046b57600080fd5b50610301610f0c565b34801561048057600080fd5b50610198610f19565b34801561049557600080fd5b506101986104a4366004613571565b611018565b3480156104b557600080fd5b506101986104c4366004613988565b611247565b3480156104d557600080fd5b506101986104e436600461342f565b611332565b3480156104f557600080fd5b5061019861050436600461360f565b61133e565b34801561051557600080fd5b506103286105243660046137ee565b6001600160a01b039081166000908152600a6020908152604080832094835293905291909120541690565b61019861055d3660046134ed565b6115ec565b61056d816001611af4565b50565b6001546001610580600054611c66565b5161058b9190613e6a565b808211156105b45760405162461bcd60e51b81526004016105ab90613b78565b60405180910390fd5b6105c083600054611dcd565b505050565b600b60009054906101000a90046001600160a01b03166001600160a01b0316635a3794e96040518163ffffffff1660e01b815260040160206040518083038186803b15801561061357600080fd5b505afa158015610627573d6000803e3d6000fd5b505050506040513d601f19601f8201168201806040525081019061064b919061344c565b6001600160a01b031663f0c9325e3460026040518363ffffffff1660e01b81526004016106789190613b32565b6000604051808303818588803b15801561069157600080fd5b505af11580156106a5573d6000803e3d6000fd5b50505050506106b48282611f07565b5050565b61056d816001612039565b6106cf33600054612173565b15156001146106f05760405162461bcd60e51b81526004016105ab90613c23565b60016005546107115760405162461bcd60e51b81526004016105ab90613b97565b60405163f7cf62d760e01b815273__AddressLibrary________________________9063f7cf62d79061074b903390600890600401613a81565b60206040518083038186803b15801561076357600080fd5b505af4158015610777573d6000803e3d6000fd5b505050506040513d601f19601f8201168201806040525081019061079b91906137b8565b156107b85760405162461bcd60e51b81526004016105ab90613c41565b61056d6001612364565b6105c08383836000546123eb565b6107d8613106565b6107e3826001612587565b92915050565b6107f584848484612778565b60018383600081811061080a5761080a613f19565b90506020020135141561082857801561082857610828846000612842565b50505050565b600080600b60009054906101000a90046001600160a01b03166001600160a01b0316635a3794e96040518163ffffffff1660e01b815260040160206040518083038186803b15801561087f57600080fd5b505afa158015610893573d6000803e3d6000fd5b505050506040513d601f19601f820116820180604052508101906108b7919061344c565b6001600160a01b03166325b4f3ca6040518163ffffffff1660e01b815260040160a06040518083038186803b1580156108ef57600080fd5b505afa158015610903573d6000803e3d6000fd5b505050506040513d601f19601f8201168201806040525081019061092791906139a1565b50600b5460408051636025541560e01b815290519296506001600160a01b039091169450636025541593506004808201935060209291829003018186803b15801561097157600080fd5b505afa158015610985573d6000803e3d6000fd5b505050506040513d601f19601f820116820180604052508101906109a9919061344c565b6001600160a01b0316638d12420b826040518263ffffffff1660e01b81526004016109d691815260200190565b60206040518083038186803b1580156109ee57600080fd5b505afa158015610a02573d6000803e3d6000fd5b505050506040513d601f19601f82011682018060405250810190610a2691906137d5565b91505090565b600080600b60009054906101000a90046001600160a01b03166001600160a01b0316635a3794e96040518163ffffffff1660e01b815260040160206040518083038186803b158015610a7d57600080fd5b505afa158015610a91573d6000803e3d6000fd5b505050506040513d601f19601f82011682018060405250810190610ab5919061344c565b6001600160a01b03166325b4f3ca6040518163ffffffff1660e01b815260040160a06040518083038186803b158015610aed57600080fd5b505afa158015610b01573d6000803e3d6000fd5b505050506040513d601f19601f82011682018060405250810190610b2591906139a1565b5050600b5460408051636025541560e01b815290519495506001600160a01b03909116936360255415935060048083019350602092829003018186803b15801561097157600080fd5b6000806060600654600754600880805480602002602001604051908101604052809291908181526020018280548015610bd057602002820191906000526020600020905b81546001600160a01b03168152600190910190602001808311610bb2575b50505050509050925092509250909192565b606082610bee85610db4565b11610c085750604080516000815260208101909152610d81565b818084610c1487610db4565b610c1e9190613e6a565b1015610c3b5783610c2e86610db4565b610c389190613e6a565b90505b6000816001600160401b03811115610c5557610c55613f2f565b604051908082528060200260200182016040528015610c7e578160200160208202803683370190505b506001600160a01b0387166000908152600a6020908152604080832060010180548251818502810185019093528083529495509293909291830182828015610ce557602002820191906000526020600020905b815481526020019060010190808311610cd1575b5050505050905060008060005b8351811015610d7857878310610d0757610d78565b81891115610d2157610d1a600183613e52565b9150610d66565b838181518110610d3357610d33613f19565b6020026020010151858481518110610d4d57610d4d613f19565b6020908102919091010152610d63600184613e52565b92505b80610d7081613ee8565b915050610cf2565b50929450505050505b9392505050565b60606107e382600054612a3d565b60606107e3826001612a3d565b6060610daf6001611c66565b905090565b6001600160a01b03166000908152600a602052604090206001015490565b610dde81600054612ba9565b151560011415610e21576001610df5600054611c66565b51610e009190613e6a565b6001541115610e215760405162461bcd60e51b81526004016105ab90613b78565b61056d81600054612039565b610e35613106565b6107e382600054612587565b610e4d84848484612778565b600183836000818110610e6257610e62613f19565b90506020020135141561082857801561082857610828846001612842565b61056d816001611dcd565b600454610100900460ff1680610ea4575060045460ff16155b610ec05760405162461bcd60e51b81526004016105ab90613bd5565b600454610100900460ff16158015610ee2576004805461ffff19166101011790555b610eec8484611018565b610ef582612d15565b8015610828576004805461ff001916905550505050565b6060610daf600054611c66565b610f2533600054612173565b1515600114610f465760405162461bcd60e51b81526004016105ab90613c23565b6001600554610f675760405162461bcd60e51b81526004016105ab90613b97565b60405163f7cf62d760e01b815273__AddressLibrary________________________9063f7cf62d790610fa1903390600890600401613a81565b60206040518083038186803b158015610fb957600080fd5b505af4158015610fcd573d6000803e3d6000fd5b505050506040513d601f19601f82011682018060405250810190610ff191906137b8565b1561100e5760405162461bcd60e51b81526004016105ab90613c41565b61056d6000612364565b600454610100900460ff1680611031575060045460ff16155b61104d5760405162461bcd60e51b81526004016105ab90613bd5565b600454610100900460ff1615801561106f576004805461ffff19166101011790555b6040805160028082526060820190925290816020015b606081526020019060019003908161108557505080516110ad9160099160209091019061313e565b506040518060400160405280600581526020016427bbb732b960d91b81525060096000815481106110e0576110e0613f19565b9060005260206000200190805190602001906110fd92919061319b565b5060405180604001604052806008815260200167283937bb34b232b960c11b815250600960018154811061113357611133613f19565b90600052602060002001908051906020019061115092919061319b565b50611231838360026009805480602002602001604051908101604052809291908181526020016000905b8282101561122657838290600052602060002001805461119990613ead565b80601f01602080910402602001604051908101604052809291908181526020018280546111c590613ead565b80156112125780601f106111e757610100808354040283529160200191611212565b820191906000526020600020905b8154815290600101906020018083116111f557829003601f168201915b50505050508152602001906001019061117a565b50505050600061133e565b80156105c0576004805461ff0019169055505050565b61125333600054612173565b15156001146112745760405162461bcd60e51b81526004016105ab90613c23565b6000600554156112ae5760405162461bcd60e51b8152602060048201526005602482015264454333302d60d81b60448201526064016105ab565b816002600054815481106112c4576112c4613f19565b906000526020600020906004020160010180549050808211156112f95760405162461bcd60e51b81526004016105ab90613b78565b60008481811161131b5760405162461bcd60e51b81526004016105ab90613bb6565b600586905561132a6001612364565b505050505050565b61056d81600054611af4565b600454610100900460ff1680611357575060045460ff16155b6113735760405162461bcd60e51b81526004016105ab90613bd5565b600454610100900460ff16158015611395576004805461ffff19166101011790555b848651808211156113b85760405162461bcd60e51b81526004016105ab90613b78565b6000878181116113da5760405162461bcd60e51b81526004016105ab90613bb6565b865188146114125760405162461bcd60e51b8152602060048201526005602482015264454331382d60d81b60448201526064016105ab565b60008681555b8881101561148857600280546001018155600052875160039089908390811061144357611443613f19565b60209081029190910181015182546001810184556000938452928290208151611475949190910192919091019061319b565b508061148081613ee8565b915050611418565b50600189905560005b8a518110156115ce57600073__AddressLibrary________________________63bc215e858d84815181106114c8576114c8613f19565b60200260200101516040518263ffffffff1660e01b81526004016114ec9190613a6d565b60206040518083038186803b15801561150457600080fd5b505af4158015611518573d6000803e3d6000fd5b505050506040513d601f19601f8201168201806040525081019061153c91906137d5565b9050600160026000548154811061155557611555613f19565b60009182526020808320858452600492909202909101905260408120600101805460ff1916921515929092179091555460028054909190811061159a5761159a613f19565b60009182526020808320600160049093020182018054928301815583529091200155806115c681613ee8565b915050611491565b5050505050801561132a576004805461ff0019169055505050505050565b816115f8816001612173565b1561162e5760405162461bcd60e51b81526004016105ab906020808252600490820152634543362d60e01b604082015260600190565b82600073__AddressLibrary________________________63bc215e85836040518263ffffffff1660e01b81526004016116689190613a6d565b60206040518083038186803b15801561168057600080fd5b505af4158015611694573d6000803e3d6000fd5b505050506040513d601f19601f820116820180604052508101906116b891906137d5565b905073__ItemsLibrary__________________________6226d7668260026001815481106116e8576116e8613f19565b90600052602060002090600402016040518363ffffffff1660e01b8152600401611713929190613b24565b60206040518083038186803b15801561172b57600080fd5b505af415801561173f573d6000803e3d6000fd5b505050506040513d601f19601f8201168201806040525081019061176391906137b8565b158015611817575073__ItemsLibrary__________________________632854ed2e82600260018154811061179a5761179a613f19565b90600052602060002090600402016040518363ffffffff1660e01b81526004016117c5929190613b24565b60206040518083038186803b1580156117dd57600080fd5b505af41580156117f1573d6000803e3d6000fd5b505050506040513d601f19601f8201168201806040525081019061181591906137b8565b155b61184b5760405162461bcd60e51b8152602060048201526005602482015264454332372d60d81b60448201526064016105ab565b600b60009054906101000a90046001600160a01b03166001600160a01b0316635a3794e96040518163ffffffff1660e01b815260040160206040518083038186803b15801561189957600080fd5b505afa1580156118ad573d6000803e3d6000fd5b505050506040513d601f19601f820116820180604052508101906118d1919061344c565b6001600160a01b031663f0c9325e3460006040518363ffffffff1660e01b81526004016118fe9190613b32565b6000604051808303818588803b15801561191757600080fd5b505af115801561192b573d6000803e3d6000fd5b505060405163bc215e8560e01b81526000935073__AddressLibrary________________________925063bc215e85915061196a908990600401613a6d565b60206040518083038186803b15801561198257600080fd5b505af4158015611996573d6000803e3d6000fd5b505050506040513d601f19601f820116820180604052508101906119ba91906137d5565b90508460026001815481106119d1576119d1613f19565b6000918252602080832085845260049092029091018152604090912082516119ff939192919091019061319b565b506002600181548110611a1457611a14613f19565b60009182526020808320600260049093020182018054600181810183559185529190932001839055805482908110611a4e57611a4e613f19565b906000526020600020906004020160020180549050611a6d9190613e6a565b6002600181548110611a8157611a81613f19565b60009182526020808320858452600490920290910190526040908190206003019190915551611ab1908690613a51565b604051908190038120906001600160a01b038816907f39cde7834e26555dd63843df8459d36dd67b5bab6f4ed52349cbb03f66f542b190600090a3505050505050565b60025460405163123bd07560e11b815282919073__Library_______________________________90632477a0ea90611b339085908590600401613b24565b60206040518083038186803b158015611b4b57600080fd5b505af4158015611b5f573d6000803e3d6000fd5b505050506040513d601f19601f82011682018060405250810190611b8391906137b8565b1515600114611ba45760405162461bcd60e51b81526004016105ab90613b5a565b611bb033600054612173565b1515600114611bd15760405162461bcd60e51b81526004016105ab90613c23565b600080611bee866040518060200160405280600081525087612d9c565b604051635cb09bcf60e01b8152919350915073__ItemsLibrary__________________________90635cb09bcf90611c2e90859085903090600401613ce0565b60006040518083038186803b158015611c4657600080fd5b505af4158015611c5a573d6000803e3d6000fd5b50505050505050505050565b60025460405163123bd07560e11b8152606091839173__Library_______________________________90632477a0ea90611ca79085908590600401613b24565b60206040518083038186803b158015611cbf57600080fd5b505af4158015611cd3573d6000803e3d6000fd5b505050506040513d601f19601f82011682018060405250810190611cf791906137b8565b1515600114611d185760405162461bcd60e51b81526004016105ab90613b5a565b73__ItemsLibrary__________________________6327724f4b60028681548110611d4557611d45613f19565b90600052602060002090600402016040518263ffffffff1660e01b8152600401611d7191815260200190565b60006040518083038186803b158015611d8957600080fd5b505af4158015611d9d573d6000803e3d6000fd5b505050506040513d6000823e601f3d908101601f19168201604052611dc59190810190613704565b949350505050565b60025460405163123bd07560e11b815282919073__Library_______________________________90632477a0ea90611e0c9085908590600401613b24565b60206040518083038186803b158015611e2457600080fd5b505af4158015611e38573d6000803e3d6000fd5b505050506040513d601f19601f82011682018060405250810190611e5c91906137b8565b1515600114611e7d5760405162461bcd60e51b81526004016105ab90613b5a565b611e8933600054612173565b1515600114611eaa5760405162461bcd60e51b81526004016105ab90613c23565b600080611ec7866040518060200160405280600081525087612d9c565b60405163e23fcdef60e01b8152919350915073__ItemsLibrary__________________________9063e23fcdef90611c2e90859085903090600401613ce0565b611f1033612fa8565b1515600114611f495760405162461bcd60e51b8152602060048201526005602482015264454331322d60d81b60448201526064016105ab565b816001600160a01b038083166000908152600a60209081526040808320878452909152902054839185911615611fa95760405162461bcd60e51b8152602060048201526005602482015264454331352d60d81b60448201526064016105ab565b6001600160a01b0384166000818152600a602081815260408084208a855280835281852080546001600160a01b031916339081179091559383526001908101805491820181558552919093200188905590517ff55a90628981610edc26894247bee72e1963d1c9faa4ea6533fd3df39fd36ed49061202a9089815260200190565b60405180910390a35050505050565b60025460405163123bd07560e11b815282919073__Library_______________________________90632477a0ea906120789085908590600401613b24565b60206040518083038186803b15801561209057600080fd5b505af41580156120a4573d6000803e3d6000fd5b505050506040513d601f19601f820116820180604052508101906120c891906137b8565b15156001146120e95760405162461bcd60e51b81526004016105ab90613b5a565b6120f533600054612173565b15156001146121165760405162461bcd60e51b81526004016105ab90613c23565b600080612133866040518060200160405280600081525087612d9c565b604051637493a70b60e01b8152919350915073__ItemsLibrary__________________________90637493a70b90611c2e90859085903090600401613ce0565b60025460405163123bd07560e11b8152600091839173__Library_______________________________90632477a0ea906121b49085908590600401613b24565b60206040518083038186803b1580156121cc57600080fd5b505af41580156121e0573d6000803e3d6000fd5b505050506040513d601f19601f8201168201806040525081019061220491906137b8565b15156001146122255760405162461bcd60e51b81526004016105ab90613b5a565b60405163bc215e8560e01b815260009073__AddressLibrary________________________9063bc215e859061225f908990600401613a6d565b60206040518083038186803b15801561227757600080fd5b505af415801561228b573d6000803e3d6000fd5b505050506040513d601f19601f820116820180604052508101906122af91906137d5565b905073__ItemsLibrary__________________________63dbdfbeec82600288815481106122df576122df613f19565b90600052602060002090600402016040518363ffffffff1660e01b815260040161230a929190613b24565b60206040518083038186803b15801561232257600080fd5b505af4158015612336573d6000803e3d6000fd5b505050506040513d601f19601f8201168201806040525081019061235a91906137b8565b9695505050505050565b80156123885760016006600082825461237d9190613e52565b909155506123a19050565b60016007600082825461239b9190613e52565b90915550505b600880546001810182556000919091527ff3f7a9fe364faab93b216da50a3214154f22a0a2b415b23a84c8169e8b636ee30180546001600160a01b0319163317905561056d612fb5565b60025460405163123bd07560e11b815282919073__Library_______________________________90632477a0ea9061242a9085908590600401613b24565b60206040518083038186803b15801561244257600080fd5b505af4158015612456573d6000803e3d6000fd5b505050506040513d601f19601f8201168201806040525081019061247a91906137b8565b151560011461249b5760405162461bcd60e51b81526004016105ab90613b5a565b6124a733600054612173565b15156001146124c85760405162461bcd60e51b81526004016105ab90613c23565b60008061250d8888888080601f0160208091040260200160405190810160405280939291908181526020018383808284376000920191909152508a9250612d9c915050565b6040516305cc2d5560e11b8152919350915073__ItemsLibrary__________________________90630b985aaa9061254d90859085903090600401613ce0565b60006040518083038186803b15801561256557600080fd5b505af4158015612579573d6000803e3d6000fd5b505050505050505050505050565b61258f613106565b60025460405163123bd07560e11b815283919073__Library_______________________________90632477a0ea906125ce9085908590600401613b24565b60206040518083038186803b1580156125e657600080fd5b505af41580156125fa573d6000803e3d6000fd5b505050506040513d601f19601f8201168201806040525081019061261e91906137b8565b151560011461263f5760405162461bcd60e51b81526004016105ab90613b5a565b60405163bc215e8560e01b815260009073__AddressLibrary________________________9063bc215e8590612679908990600401613a6d565b60206040518083038186803b15801561269157600080fd5b505af41580156126a5573d6000803e3d6000fd5b505050506040513d601f19601f820116820180604052508101906126c991906137d5565b905073__ItemsLibrary__________________________631aeccc6a82600288815481106126f9576126f9613f19565b90600052602060002090600402016040518363ffffffff1660e01b8152600401612724929190613b24565b60006040518083038186803b15801561273c57600080fd5b505af4158015612750573d6000803e3d6000fd5b505050506040513d6000823e601f3d908101601f1916820160405261235a91908101906138af565b604051630d1d719d60e41b8152309073__Library_______________________________9063d1d719d0906127b1908490600401613a6d565b60206040518083038186803b1580156127c957600080fd5b505af41580156127dd573d6000803e3d6000fd5b505050506040513d601f19601f8201168201806040525081019061280191906137b8565b151560011461283b5760405162461bcd60e51b81526004016105ab906020808252600490820152634543382d60e01b604082015260600190565b5050505050565b60008161288057600260018154811061285d5761285d613f19565b6000918252602080832086845260049092029091019052604090206005016128b0565b600260018154811061289457612894613f19565b6000918252602080832086845260049283020190526040909120015b80548060200260200160405190810160405280929190818152602001828054801561290457602002820191906000526020600020905b81546001600160a01b031681526001909101906020018083116128e6575b5050505050905060005b815181101561082857600b60009054906101000a90046001600160a01b03166001600160a01b0316635a3794e96040518163ffffffff1660e01b815260040160206040518083038186803b15801561296557600080fd5b505afa158015612979573d6000803e3d6000fd5b505050506040513d601f19601f8201168201806040525081019061299d919061344c565b6001600160a01b031663eb1e2a418383815181106129bd576129bd613f19565b602002602001015184516040518363ffffffff1660e01b81526004016129f89291906001600160a01b03929092168252602082015260400190565b600060405180830381600087803b158015612a1257600080fd5b505af1158015612a26573d6000803e3d6000fd5b505050508080612a3590613ee8565b91505061290e565b60025460405163123bd07560e11b8152606091839173__Library_______________________________90632477a0ea90612a7e9085908590600401613b24565b60206040518083038186803b158015612a9657600080fd5b505af4158015612aaa573d6000803e3d6000fd5b505050506040513d601f19601f82011682018060405250810190612ace91906137b8565b1515600114612aef5760405162461bcd60e51b81526004016105ab90613b5a565b606073__ItemsLibrary__________________________63e035e0068760028881548110612b1f57612b1f613f19565b90600052602060002090600402016040518363ffffffff1660e01b8152600401612b559291909115158252602082015260400190565b60006040518083038186803b158015612b6d57600080fd5b505af4158015612b81573d6000803e3d6000fd5b505050506040513d6000823e601f3d908101601f1916820160405261235a9190810190613704565b60025460405163123bd07560e11b8152600091839173__Library_______________________________90632477a0ea90612bea9085908590600401613b24565b60206040518083038186803b158015612c0257600080fd5b505af4158015612c16573d6000803e3d6000fd5b505050506040513d601f19601f82011682018060405250810190612c3a91906137b8565b1515600114612c5b5760405162461bcd60e51b81526004016105ab90613b5a565b60405163bc215e8560e01b815260009073__AddressLibrary________________________9063bc215e8590612c95908990600401613a6d565b60206040518083038186803b158015612cad57600080fd5b505af4158015612cc1573d6000803e3d6000fd5b505050506040513d601f19601f82011682018060405250810190612ce591906137d5565b905073__ItemsLibrary__________________________632854ed2e82600288815481106122df576122df613f19565b600454610100900460ff1680612d2e575060045460ff16155b612d4a5760405162461bcd60e51b81526004016105ab90613bd5565b600454610100900460ff16158015612d6c576004805461ffff19166101011790555b600b80546001600160a01b0319166001600160a01b03841617905580156106b4576004805461ff00191690555050565b612dd16040518060a0016040528060008019168152602001606081526020016000815260200160608152602001606081525090565b60008073__AddressLibrary________________________63bc215e85876040518263ffffffff1660e01b8152600401612e0b9190613a6d565b60206040518083038186803b158015612e2357600080fd5b505af4158015612e37573d6000803e3d6000fd5b505050506040513d601f19601f82011682018060405250810190612e5b91906137d5565b60408051600180825281830190925291925060009190602080830190803683370190505090508481600081518110612e9557612e95613f19565b60200260200101818152505060006040518060a00160405280848152602001888152602001600154815260200160038881548110612ed557612ed5613f19565b906000526020600020018054612eea90613ead565b80601f0160208091040260200160405190810160405280929190818152602001828054612f1690613ead565b8015612f635780601f10612f3857610100808354040283529160200191612f63565b820191906000526020600020905b815481529060010190602001808311612f4657829003601f168201915b50505050508152602001838152509050600060028781548110612f8857612f88613f19565b600091825260209091209296506004029091019350505050935093915050565b60006107e3826001612173565b60065460015460405163f6001d7d60e01b815273__ItemsLibrary__________________________9263f6001d7d92612ff092600401613b24565b60206040518083038186803b15801561300857600080fd5b505af415801561301c573d6000803e3d6000fd5b505050506040513d601f19601f8201168201806040525081019061304091906137b8565b15613055576005546001556130536130e9565b565b60075460015460405163f6001d7d60e01b815273__ItemsLibrary__________________________9263f6001d7d9261309092600401613b24565b60206040518083038186803b1580156130a857600080fd5b505af41580156130bc573d6000803e3d6000fd5b505050506040513d601f19601f820116820180604052508101906130e091906137b8565b15613053576130535b60006005819055600681905560078190556130539060089061321b565b6040518060c0016040528060608152602001600015158152602001600081526020016000815260200160608152602001606081525090565b82805482825590600052602060002090810192821561318b579160200282015b8281111561318b578251805161317b91849160209091019061319b565b509160200191906001019061315e565b50613197929150613239565b5090565b8280546131a790613ead565b90600052602060002090601f0160209004810192826131c9576000855561320f565b82601f106131e257805160ff191683800117855561320f565b8280016001018555821561320f579182015b8281111561320f5782518255916020019190600101906131f4565b50613197929150613256565b508054600082559060005260206000209081019061056d9190613256565b8082111561319757600061324d828261326b565b50600101613239565b5b808211156131975760008155600101613257565b50805461327790613ead565b6000825580601f10613287575050565b601f01602090049060005260206000209081019061056d9190613256565b600082601f8301126132b657600080fd5b813560206132cb6132c683613e08565b613dd8565b80838252828201915082860187848660051b89010111156132eb57600080fd5b60005b8581101561331357813561330181613f45565b845292840192908401906001016132ee565b5090979650505050505050565b600082601f83011261333157600080fd5b815160206133416132c683613e08565b80838252828201915082860187848660051b890101111561336157600080fd5b60005b8581101561331357815161337781613f45565b84529284019290840190600101613364565b805161339481613f5a565b919050565b600082601f8301126133aa57600080fd5b81356133b86132c682613e2b565b8181528460208386010111156133cd57600080fd5b816020850160208301376000918101602001919091529392505050565b600082601f8301126133fb57600080fd5b81516134096132c682613e2b565b81815284602083860101111561341e57600080fd5b611dc5826020830160208701613e81565b60006020828403121561344157600080fd5b8135610d8181613f45565b60006020828403121561345e57600080fd5b8151610d8181613f45565b60008060006040848603121561347e57600080fd5b833561348981613f45565b925060208401356001600160401b03808211156134a557600080fd5b818601915086601f8301126134b957600080fd5b8135818111156134c857600080fd5b8760208285010111156134da57600080fd5b6020830194508093505050509250925092565b6000806040838503121561350057600080fd5b823561350b81613f45565b915060208301356001600160401b0381111561352657600080fd5b61353285828601613399565b9150509250929050565b60008060006060848603121561355157600080fd5b833561355c81613f45565b95602085013595506040909401359392505050565b6000806040838503121561358457600080fd5b82356001600160401b0381111561359a57600080fd5b6135a6858286016132a5565b95602094909401359450505050565b6000806000606084860312156135ca57600080fd5b83356001600160401b038111156135e057600080fd5b6135ec868287016132a5565b93505060208401359150604084013561360481613f45565b809150509250925092565b600080600080600060a0868803121561362757600080fd5b85356001600160401b038082111561363e57600080fd5b61364a89838a016132a5565b9650602091508188013595506040880135945060608801358181111561366f57600080fd5b8801601f81018a1361368057600080fd5b803561368e6132c682613e08565b8082825285820191508584018d878560051b87010111156136ae57600080fd5b60005b848110156136e85786823511156136c757600080fd5b6136d68f898435890101613399565b845292870192908701906001016136b1565b5050809750505050505050608086013590509295509295909350565b6000602080838503121561371757600080fd5b82516001600160401b0381111561372d57600080fd5b8301601f8101851361373e57600080fd5b805161374c6132c682613e08565b80828252848201915084840188868560051b870101111561376c57600080fd5b600094505b8385101561378f578051835260019490940193918501918501613771565b50979650505050505050565b6000602082840312156137ad57600080fd5b8135610d8181613f5a565b6000602082840312156137ca57600080fd5b8151610d8181613f5a565b6000602082840312156137e757600080fd5b5051919050565b6000806040838503121561380157600080fd5b82359150602083013561381381613f45565b809150509250929050565b6000806000806060858703121561383457600080fd5b8435935060208501356001600160401b038082111561385257600080fd5b818701915087601f83011261386657600080fd5b81358181111561387557600080fd5b8860208260051b850101111561388a57600080fd5b60208301955080945050505060408501356138a481613f5a565b939692955090935050565b6000602082840312156138c157600080fd5b81516001600160401b03808211156138d857600080fd5b9083019060c082860312156138ec57600080fd5b6138f4613db0565b82518281111561390357600080fd5b61390f878286016133ea565b82525061391e60208401613389565b6020820152604083015160408201526060830151606082015260808301518281111561394957600080fd5b61395587828601613320565b60808301525060a08301518281111561396d57600080fd5b61397987828601613320565b60a08301525095945050505050565b60006020828403121561399a57600080fd5b5035919050565b600080600080600060a086880312156139b957600080fd5b5050835160208501516040860151606087015160809097015192989197509594509092509050565b600081518084526020808501945080840160005b83811015613a1a5781516001600160a01b0316875295820195908201906001016139f5565b509495945050505050565b60008151808452613a3d816020860160208601613e81565b601f01601f19169290920160200192915050565b60008251613a63818460208701613e81565b9190910192915050565b6001600160a01b0391909116815260200190565b60006040820160018060a01b03808616845260206040818601528286548085526060870191508760005282600020945060005b81811015613ad2578554851683526001958601959284019201613ab4565b509098975050505050505050565b6020808252825182820181905260009190848201906040850190845b81811015613b1857835183529284019291840191600101613afc565b50909695505050505050565b918252602082015260400190565b6020810160048310613b5457634e487b7160e01b600052602160045260246000fd5b91905290565b6020808252600490820152634543312d60e01b604082015260600190565b602080825260059082015264454331392d60d81b604082015260600190565b602080825260059082015264454333312d60d81b604082015260600190565b602080825260059082015264454331372d60d81b604082015260600190565b6020808252602e908201527f496e697469616c697a61626c653a20636f6e747261637420697320616c72656160408201526d191e481a5b9a5d1a585b1a5e995960921b606082015260800190565b6020808252600490820152634543392d60e01b604082015260600190565b6020808252600490820152634543352d60e01b604082015260600190565b602081526000825160c06020840152613c7b60e0840182613a25565b905060208401511515604084015260408401516060840152606084015160808401526080840151601f19808584030160a0860152613cb983836139e1565b925060a08601519150808584030160c086015250613cd782826139e1565b95945050505050565b6060815283516060820152600060208086015160a06080850152613d08610100850182613a25565b9050604087015160a08501526060870151605f19808684030160c0870152613d308383613a25565b60808a015187820390920160e088015281518082529185019350600092508401905b80831015613d725783518252928401926001929092019190840190613d52565b5092850187905250506001600160a01b03841660408401529050611dc5565b838152826020820152606060408201526000613cd760608301846139e1565b60405160c081016001600160401b0381118282101715613dd257613dd2613f2f565b60405290565b604051601f8201601f191681016001600160401b0381118282101715613e0057613e00613f2f565b604052919050565b60006001600160401b03821115613e2157613e21613f2f565b5060051b60200190565b60006001600160401b03821115613e4457613e44613f2f565b50601f01601f191660200190565b60008219821115613e6557613e65613f03565b500190565b600082821015613e7c57613e7c613f03565b500390565b60005b83811015613e9c578181015183820152602001613e84565b838111156108285750506000910152565b600181811c90821680613ec157607f821691505b60208210811415613ee257634e487b7160e01b600052602260045260246000fd5b50919050565b6000600019821415613efc57613efc613f03565b5060010190565b634e487b7160e01b600052601160045260246000fd5b634e487b7160e01b600052603260045260246000fd5b634e487b7160e01b600052604160045260246000fd5b6001600160a01b038116811461056d57600080fd5b801515811461056d57600080fdfea2646970667358221220d9503c28ac9a292ba3612a3ff177dfafc46aff1fb2d8443b235a33254473c70864736f6c63430008070033",
  "immutableReferences": {},
  "source": "// SPDX-License-Identifier: GPL-3.0\r\n\r\npragma solidity 0.8.7;\r\n\r\n/*\r\n  Public Certificate Pools offer the default MultiSig Certificate Pool functionality\r\n  except for Providers Creation and Certificate Issuing since payments must be made\r\n  Besides Public Certificate Pool is a managed contract\r\n */\r\n\r\n import \"../Abstract/MultiSigCertificatesPool.sol\";\r\n import \"../Interfaces/ITreasury.sol\";\r\n import \"../Base/ManagedBaseContract.sol\";\r\n import \"../Interfaces/IPriceConverter.sol\";\r\n\r\n contract PublicCertificatesPool is MultiSigCertificatesPool, ManagedBaseContract {\r\n\r\n    // EVENTS /////////////////////////////////////////\r\n    event _NewProposal(address indexed,  string indexed);\r\n\r\n    // MODIFIERS /////////////////////////////////////////\r\n    modifier ProviderisNotActivated(address entity){\r\n        require(false == isEntity(entity, _providerId), \"EC6-\");\r\n        _;\r\n    }\r\n\r\n    modifier ProviderisNotPending(address entity){\r\n        bytes32 entityInBytes = AddressLibrary.AddressToBytes32(entity);\r\n        require(false == ItemsLibrary.isItemPendingToAdded(entityInBytes, _Entities[_providerId]) && \r\n                false == ItemsLibrary.isItemPendingToRemoved(entityInBytes, _Entities[_providerId]), \"EC27-\");\r\n        _;\r\n    }\r\n\r\n    // CONSTRUCTOR /////////////////////////////////////////\r\n    function PublicCertPool_init(address[] memory owners,  uint256 minOwners, address managerContractAddress) public initializer {\r\n        super.MultiSigCertPool_init(owners, minOwners); \r\n        super.ManagedBaseContract_init(managerContractAddress); \r\n    }\r\n\r\n    // FUNCTIONALITY /////////////////////////////////////////\r\n    function addProvider(address provider, string memory providerInfo) external \r\n        ProviderisNotActivated(provider) \r\n        ProviderisNotPending(provider)\r\n    override payable\r\n    {\r\n        ITreasury(_managerContract.retrieveTreasuryProxy()).pay{value:msg.value}(Library.Prices.NewProvider);\r\n        bytes32 providerInBytes = AddressLibrary.AddressToBytes32(provider);\r\n        _Entities[_providerId]._items[providerInBytes]._Info = providerInfo;\r\n        _Entities[_providerId]._pendingItemsAdd.push(providerInBytes);\r\n        _Entities[_providerId]._items[providerInBytes]._pendingId = _Entities[_providerId]._pendingItemsAdd.length - 1;\r\n\r\n        emit _NewProposal(provider, providerInfo);\r\n    }\r\n\r\n    function payBack(bytes32 entityInBytes, bool validatedOrRejected) internal\r\n    {\r\n        address[] memory Voters = (validatedOrRejected) ? _Entities[_providerId]._items[entityInBytes]._Validations : _Entities[_providerId]._items[entityInBytes]._Rejections;\r\n\r\n        for(uint i=0; i < Voters.length; i++){\r\n            ITreasury(_managerContract.retrieveTreasuryProxy()).getRefund(Voters[i], Voters.length);\r\n        }\r\n    }\r\n\r\n    function addCertificate(bytes32 CertificateHash, address holder) external override payable\r\n    {\r\n        ITreasury(_managerContract.retrieveTreasuryProxy()).pay{value:msg.value}(Library.Prices.NewCertificate);\r\n        addCertificateInternal(CertificateHash, holder);\r\n    }\r\n\r\n    function retrieveAddCertificatePriceWei() external override view returns(uint256)\r\n    {\r\n        (, , , uint Price, ) = ITreasury(_managerContract.retrieveTreasuryProxy()).retrievePrices();\r\n        return IPriceConverter(_managerContract.retrievePriceConverterProxy()).fromUSDToETH(Price);\r\n    }\r\n\r\n    function retrieveSubscriptionPriceWei() external override virtual view returns(uint256)\r\n    {\r\n        (uint Price, , , , ) = ITreasury(_managerContract.retrieveTreasuryProxy()).retrievePrices();\r\n        return IPriceConverter(_managerContract.retrievePriceConverterProxy()).fromUSDToETH(Price);\r\n    }\r\n\r\n    // Callback functions\r\n    function onItemValidated(bytes32 item, uint256[] calldata ids, bool addOrRemove) public override \r\n    {\r\n        super.onItemValidated(item, ids, addOrRemove);\r\n\r\n        if(ids[0] == _providerId){\r\n            if(addOrRemove)payBack(item, true);\r\n        }\r\n    }\r\n\r\n    function onItemRejected(bytes32 item, uint256[] calldata ids, bool addOrRemove) public override  \r\n    {\r\n        super.onItemRejected(item, ids, addOrRemove);\r\n\r\n        if(ids[0] == _providerId){\r\n            if(addOrRemove)payBack(item, false);\r\n        }\r\n    }\r\n\r\n }",
  "sourcePath": "C:/Users/d-aam/GitHub/Certificates/contracts/DeployedContracts/PublicCertificatesPool.sol",
  "compiler": {
    "name": "solc",
    "version": "0.8.7+commit.e28d00a7.Emscripten.clang"
  },
  "schemaVersion": "3.3.4",
  "updatedAt": "2021-09-14T07:52:55.745Z",
  "devdoc": {
    "kind": "dev",
    "methods": {},
    "version": 1
  },
  "userdoc": {
    "kind": "user",
    "methods": {},
    "version": 1
  }
}