{
  "contractName": "PublicCertificatesPool",
  "abi": [
    {
      "anonymous": false,
      "inputs": [
        {
          "indexed": true,
          "internalType": "address",
          "name": "Provider",
          "type": "address"
        },
        {
          "indexed": true,
          "internalType": "address",
          "name": "Holder",
          "type": "address"
        },
        {
          "indexed": false,
          "internalType": "bytes32",
          "name": "Certificate",
          "type": "bytes32"
        }
      ],
      "name": "_AddCertificate",
      "type": "event"
    },
    {
      "anonymous": false,
      "inputs": [
        {
          "indexed": false,
          "internalType": "string",
          "name": "ItemType",
          "type": "string"
        },
        {
          "indexed": true,
          "internalType": "bytes32",
          "name": "Item",
          "type": "bytes32"
        },
        {
          "indexed": false,
          "internalType": "string",
          "name": "Info",
          "type": "string"
        }
      ],
      "name": "_AddItemRejection",
      "type": "event"
    },
    {
      "anonymous": false,
      "inputs": [
        {
          "indexed": false,
          "internalType": "string",
          "name": "ItemType",
          "type": "string"
        },
        {
          "indexed": true,
          "internalType": "bytes32",
          "name": "Item",
          "type": "bytes32"
        },
        {
          "indexed": false,
          "internalType": "string",
          "name": "Info",
          "type": "string"
        }
      ],
      "name": "_AddItemValidation",
      "type": "event"
    },
    {
      "anonymous": false,
      "inputs": [
        {
          "indexed": true,
          "internalType": "address",
          "name": "Provider",
          "type": "address"
        },
        {
          "indexed": false,
          "internalType": "string",
          "name": "Info",
          "type": "string"
        }
      ],
      "name": "_NewProposal",
      "type": "event"
    },
    {
      "anonymous": false,
      "inputs": [
        {
          "indexed": false,
          "internalType": "string",
          "name": "ItemType",
          "type": "string"
        },
        {
          "indexed": true,
          "internalType": "bytes32",
          "name": "Item",
          "type": "bytes32"
        },
        {
          "indexed": false,
          "internalType": "string",
          "name": "Info",
          "type": "string"
        }
      ],
      "name": "_RemoveItemRejection",
      "type": "event"
    },
    {
      "anonymous": false,
      "inputs": [
        {
          "indexed": false,
          "internalType": "string",
          "name": "ItemType",
          "type": "string"
        },
        {
          "indexed": true,
          "internalType": "bytes32",
          "name": "Item",
          "type": "bytes32"
        },
        {
          "indexed": false,
          "internalType": "string",
          "name": "Info",
          "type": "string"
        }
      ],
      "name": "_RemoveItemValidation",
      "type": "event"
    },
    {
      "anonymous": false,
      "inputs": [
        {
          "indexed": true,
          "internalType": "address",
          "name": "oldHolder",
          "type": "address"
        },
        {
          "indexed": true,
          "internalType": "address",
          "name": "newHolder",
          "type": "address"
        },
        {
          "indexed": false,
          "internalType": "bytes32",
          "name": "Certificate",
          "type": "bytes32"
        }
      ],
      "name": "_TransferCertificate",
      "type": "event"
    },
    {
      "inputs": [
        {
          "internalType": "address[]",
          "name": "owners",
          "type": "address[]"
        },
        {
          "internalType": "uint256",
          "name": "minOwners",
          "type": "uint256"
        },
        {
          "internalType": "string",
          "name": "contractName",
          "type": "string"
        },
        {
          "internalType": "string",
          "name": "contractVersion",
          "type": "string"
        }
      ],
      "name": "MultiSigCertPool_init",
      "outputs": [],
      "stateMutability": "nonpayable",
      "type": "function"
    },
    {
      "inputs": [
        {
          "internalType": "address[]",
          "name": "owners",
          "type": "address[]"
        },
        {
          "internalType": "uint256",
          "name": "minOwners",
          "type": "uint256"
        },
        {
          "internalType": "uint256",
          "name": "TotalEntities",
          "type": "uint256"
        },
        {
          "internalType": "string[]",
          "name": "labels",
          "type": "string[]"
        },
        {
          "internalType": "uint256",
          "name": "ownerId",
          "type": "uint256"
        }
      ],
      "name": "MultiSigContract_init",
      "outputs": [],
      "stateMutability": "nonpayable",
      "type": "function"
    },
    {
      "inputs": [
        {
          "internalType": "bytes32",
          "name": "CertificateHash",
          "type": "bytes32"
        },
        {
          "internalType": "address",
          "name": "holder",
          "type": "address"
        }
      ],
      "name": "addCertificate",
      "outputs": [],
      "stateMutability": "payable",
      "type": "function",
      "payable": true
    },
    {
      "inputs": [
        {
          "internalType": "address",
          "name": "provider",
          "type": "address"
        },
        {
          "internalType": "bytes32",
          "name": "CertificateHash",
          "type": "bytes32"
        },
        {
          "internalType": "address",
          "name": "holder",
          "type": "address"
        },
        {
          "internalType": "uint256",
          "name": "nonce",
          "type": "uint256"
        },
        {
          "internalType": "uint256",
          "name": "deadline",
          "type": "uint256"
        },
        {
          "internalType": "bytes",
          "name": "signature",
          "type": "bytes"
        }
      ],
      "name": "addCertificateOnBehalfOf",
      "outputs": [],
      "stateMutability": "payable",
      "type": "function",
      "payable": true
    },
    {
      "inputs": [
        {
          "internalType": "address",
          "name": "owner",
          "type": "address"
        },
        {
          "internalType": "string",
          "name": "ownerInfo",
          "type": "string"
        }
      ],
      "name": "addOwner",
      "outputs": [],
      "stateMutability": "nonpayable",
      "type": "function"
    },
    {
      "inputs": [
        {
          "internalType": "uint256",
          "name": "newMinOwners",
          "type": "uint256"
        }
      ],
      "name": "changeMinOwners",
      "outputs": [],
      "stateMutability": "nonpayable",
      "type": "function"
    },
    {
      "inputs": [],
      "name": "rejectMinOwners",
      "outputs": [],
      "stateMutability": "nonpayable",
      "type": "function"
    },
    {
      "inputs": [
        {
          "internalType": "address",
          "name": "owner",
          "type": "address"
        }
      ],
      "name": "rejectOwner",
      "outputs": [],
      "stateMutability": "nonpayable",
      "type": "function"
    },
    {
      "inputs": [
        {
          "internalType": "address",
          "name": "provider",
          "type": "address"
        }
      ],
      "name": "rejectProvider",
      "outputs": [],
      "stateMutability": "nonpayable",
      "type": "function"
    },
    {
      "inputs": [
        {
          "internalType": "address",
          "name": "owner",
          "type": "address"
        }
      ],
      "name": "removeOwner",
      "outputs": [],
      "stateMutability": "nonpayable",
      "type": "function"
    },
    {
      "inputs": [
        {
          "internalType": "address",
          "name": "provider",
          "type": "address"
        }
      ],
      "name": "removeProvider",
      "outputs": [],
      "stateMutability": "nonpayable",
      "type": "function"
    },
    {
      "inputs": [],
      "name": "retrieveAllOwners",
      "outputs": [
        {
          "internalType": "bytes32[]",
          "name": "",
          "type": "bytes32[]"
        }
      ],
      "stateMutability": "view",
      "type": "function",
      "constant": true
    },
    {
      "inputs": [],
      "name": "retrieveAllProviders",
      "outputs": [
        {
          "internalType": "bytes32[]",
          "name": "",
          "type": "bytes32[]"
        }
      ],
      "stateMutability": "view",
      "type": "function",
      "constant": true
    },
    {
      "inputs": [
        {
          "internalType": "bytes32",
          "name": "CertificateHash",
          "type": "bytes32"
        },
        {
          "internalType": "address",
          "name": "holder",
          "type": "address"
        }
      ],
      "name": "retrieveCertificateProvider",
      "outputs": [
        {
          "internalType": "address",
          "name": "",
          "type": "address"
        }
      ],
      "stateMutability": "view",
      "type": "function",
      "constant": true
    },
    {
      "inputs": [
        {
          "internalType": "address",
          "name": "holder",
          "type": "address"
        },
        {
          "internalType": "uint256",
          "name": "skipFirst",
          "type": "uint256"
        },
        {
          "internalType": "uint256",
          "name": "max",
          "type": "uint256"
        }
      ],
      "name": "retrieveCertificatesByHolder",
      "outputs": [
        {
          "internalType": "bytes32[]",
          "name": "",
          "type": "bytes32[]"
        }
      ],
      "stateMutability": "view",
      "type": "function",
      "constant": true
    },
    {
      "inputs": [],
      "name": "retrieveContractConfig",
      "outputs": [
        {
          "internalType": "string",
          "name": "",
          "type": "string"
        },
        {
          "internalType": "string",
          "name": "",
          "type": "string"
        }
      ],
      "stateMutability": "view",
      "type": "function",
      "constant": true
    },
    {
      "inputs": [],
      "name": "retrieveManagerContract",
      "outputs": [
        {
          "internalType": "address",
          "name": "",
          "type": "address"
        }
      ],
      "stateMutability": "view",
      "type": "function",
      "constant": true
    },
    {
      "inputs": [],
      "name": "retrieveMinOwners",
      "outputs": [
        {
          "internalType": "uint256",
          "name": "",
          "type": "uint256"
        }
      ],
      "stateMutability": "view",
      "type": "function",
      "constant": true
    },
    {
      "inputs": [
        {
          "internalType": "address",
          "name": "addr",
          "type": "address"
        },
        {
          "internalType": "uint256",
          "name": "nonce",
          "type": "uint256"
        }
      ],
      "name": "retrieveNonce",
      "outputs": [
        {
          "internalType": "bool",
          "name": "",
          "type": "bool"
        }
      ],
      "stateMutability": "view",
      "type": "function",
      "constant": true
    },
    {
      "inputs": [
        {
          "internalType": "address",
          "name": "owner",
          "type": "address"
        }
      ],
      "name": "retrieveOwner",
      "outputs": [
        {
          "components": [
            {
              "internalType": "string",
              "name": "_Info",
              "type": "string"
            },
            {
              "internalType": "bool",
              "name": "_activated",
              "type": "bool"
            },
            {
              "internalType": "uint256",
              "name": "_id",
              "type": "uint256"
            },
            {
              "internalType": "uint256",
              "name": "_pendingId",
              "type": "uint256"
            },
            {
              "internalType": "address[]",
              "name": "_Validations",
              "type": "address[]"
            },
            {
              "internalType": "address[]",
              "name": "_Rejections",
              "type": "address[]"
            }
          ],
          "internalType": "struct ItemsLibrary._itemIdentity",
          "name": "",
          "type": "tuple"
        }
      ],
      "stateMutability": "view",
      "type": "function",
      "constant": true
    },
    {
      "inputs": [],
      "name": "retrievePendingMinOwners",
      "outputs": [
        {
          "internalType": "uint256",
          "name": "",
          "type": "uint256"
        }
      ],
      "stateMutability": "view",
      "type": "function",
      "constant": true
    },
    {
      "inputs": [],
      "name": "retrievePendingMinOwnersStatus",
      "outputs": [
        {
          "internalType": "uint256",
          "name": "",
          "type": "uint256"
        },
        {
          "internalType": "uint256",
          "name": "",
          "type": "uint256"
        },
        {
          "internalType": "address[]",
          "name": "",
          "type": "address[]"
        }
      ],
      "stateMutability": "view",
      "type": "function",
      "constant": true
    },
    {
      "inputs": [
        {
          "internalType": "bool",
          "name": "addedORremove",
          "type": "bool"
        }
      ],
      "name": "retrievePendingOwners",
      "outputs": [
        {
          "internalType": "bytes32[]",
          "name": "",
          "type": "bytes32[]"
        }
      ],
      "stateMutability": "view",
      "type": "function",
      "constant": true
    },
    {
      "inputs": [
        {
          "internalType": "bool",
          "name": "addedORremove",
          "type": "bool"
        }
      ],
      "name": "retrievePendingProviders",
      "outputs": [
        {
          "internalType": "bytes32[]",
          "name": "",
          "type": "bytes32[]"
        }
      ],
      "stateMutability": "view",
      "type": "function",
      "constant": true
    },
    {
      "inputs": [
        {
          "internalType": "address",
          "name": "provider",
          "type": "address"
        }
      ],
      "name": "retrieveProvider",
      "outputs": [
        {
          "components": [
            {
              "internalType": "string",
              "name": "_Info",
              "type": "string"
            },
            {
              "internalType": "bool",
              "name": "_activated",
              "type": "bool"
            },
            {
              "internalType": "uint256",
              "name": "_id",
              "type": "uint256"
            },
            {
              "internalType": "uint256",
              "name": "_pendingId",
              "type": "uint256"
            },
            {
              "internalType": "address[]",
              "name": "_Validations",
              "type": "address[]"
            },
            {
              "internalType": "address[]",
              "name": "_Rejections",
              "type": "address[]"
            }
          ],
          "internalType": "struct ItemsLibrary._itemIdentity",
          "name": "",
          "type": "tuple"
        }
      ],
      "stateMutability": "view",
      "type": "function",
      "constant": true
    },
    {
      "inputs": [
        {
          "internalType": "address",
          "name": "holder",
          "type": "address"
        }
      ],
      "name": "retrieveTotalCertificatesByHolder",
      "outputs": [
        {
          "internalType": "uint256",
          "name": "",
          "type": "uint256"
        }
      ],
      "stateMutability": "view",
      "type": "function",
      "constant": true
    },
    {
      "inputs": [
        {
          "internalType": "bytes32",
          "name": "CertificateHash",
          "type": "bytes32"
        },
        {
          "internalType": "address",
          "name": "newHolder",
          "type": "address"
        }
      ],
      "name": "transferCertificate",
      "outputs": [],
      "stateMutability": "nonpayable",
      "type": "function"
    },
    {
      "inputs": [],
      "name": "validateMinOwners",
      "outputs": [],
      "stateMutability": "nonpayable",
      "type": "function"
    },
    {
      "inputs": [
        {
          "internalType": "address",
          "name": "owner",
          "type": "address"
        }
      ],
      "name": "validateOwner",
      "outputs": [],
      "stateMutability": "nonpayable",
      "type": "function"
    },
    {
      "inputs": [
        {
          "internalType": "address",
          "name": "provider",
          "type": "address"
        }
      ],
      "name": "validateProvider",
      "outputs": [],
      "stateMutability": "nonpayable",
      "type": "function"
    },
    {
      "inputs": [
        {
          "internalType": "address[]",
          "name": "owners",
          "type": "address[]"
        },
        {
          "internalType": "uint256",
          "name": "minOwners",
          "type": "uint256"
        },
        {
          "internalType": "address",
          "name": "managerContractAddress",
          "type": "address"
        },
        {
          "internalType": "string",
          "name": "contractName",
          "type": "string"
        },
        {
          "internalType": "string",
          "name": "contractVersion",
          "type": "string"
        }
      ],
      "name": "PublicCertPool_init",
      "outputs": [],
      "stateMutability": "nonpayable",
      "type": "function"
    },
    {
      "inputs": [
        {
          "internalType": "address",
          "name": "provider",
          "type": "address"
        },
        {
          "internalType": "string",
          "name": "providerInfo",
          "type": "string"
        }
      ],
      "name": "addProvider",
      "outputs": [],
      "stateMutability": "payable",
      "type": "function",
      "payable": true
    },
    {
      "inputs": [],
      "name": "retrieveAddCertificatePriceWei",
      "outputs": [
        {
          "internalType": "uint256",
          "name": "",
          "type": "uint256"
        }
      ],
      "stateMutability": "view",
      "type": "function",
      "constant": true
    },
    {
      "inputs": [],
      "name": "retrieveSubscriptionPriceWei",
      "outputs": [
        {
          "internalType": "uint256",
          "name": "",
          "type": "uint256"
        }
      ],
      "stateMutability": "view",
      "type": "function",
      "constant": true
    },
    {
      "inputs": [
        {
          "internalType": "bytes32",
          "name": "item",
          "type": "bytes32"
        },
        {
          "internalType": "uint256[]",
          "name": "ids",
          "type": "uint256[]"
        },
        {
          "internalType": "bool",
          "name": "addOrRemove",
          "type": "bool"
        }
      ],
      "name": "onItemValidated",
      "outputs": [],
      "stateMutability": "nonpayable",
      "type": "function"
    },
    {
      "inputs": [
        {
          "internalType": "bytes32",
          "name": "item",
          "type": "bytes32"
        },
        {
          "internalType": "uint256[]",
          "name": "ids",
          "type": "uint256[]"
        },
        {
          "internalType": "bool",
          "name": "addOrRemove",
          "type": "bool"
        }
      ],
      "name": "onItemRejected",
      "outputs": [],
      "stateMutability": "nonpayable",
      "type": "function"
    }
  ],
  "bytecode": "0x608060405234801561001057600080fd5b5061456b806100206000396000f3fe60806040526004361061019f5760003560e01c80630b4c72a9146101a4578063173825d9146101c65780631ab807f8146101e6578063253ad5ae146101f957806327a40b4b146102195780632edbe7fc1461023957806330ade9221461025d5780633542758f1461027257806337583499146102925780633fd07181146102bf5780633feca4ca146102df5780634774779d1461033557806357e7ea2e1461034a5780635888ebb31461035f57806358a1ba25146103835780635b362e84146103b057806365b973e5146103d75780636825b263146103ec5780636b2996041461040c5780636b3a0fec1461042c5780636e4f91791461044c5780636e55d2d41461046157806376f8f90f1461048157806377bc5a1f146104a15780637c8c2add146104c15780638a355a57146104e15780638b9be25614610501578063a93d5ed614610514578063c3079ae714610529578063c66433ea1461053e578063ce33d58a1461055e578063cf2041d91461057e578063d0a4adfe1461059e578063d2116a02146105e4578063dc865ca614610607578063fc00050014610627575b600080fd5b3480156101b057600080fd5b506101c46101bf3660046137f4565b61063a565b005b3480156101d257600080fd5b506101c46101e13660046137f4565b610648565b6101c46101f4366004613d1e565b61067e565b34801561020557600080fd5b506101c4610214366004613d1e565b610695565b34801561022557600080fd5b506101c46102343660046137f4565b610929565b34801561024557600080fd5b506008545b6040519081526020015b60405180910390f35b34801561026957600080fd5b506101c4610934565b34801561027e57600080fd5b506101c461028d3660046138a2565b61095d565b34801561029e57600080fd5b506102b26102ad3660046137f4565b61096b565b6040516102549190614235565b3480156102cb57600080fd5b506101c46102da366004613d4e565b610984565b3480156102eb57600080fd5b506103256102fa366004613975565b6001600160a01b03919091166000908152600260209081526040808320938352929052205460ff1690565b6040519015158152602001610254565b34801561034157600080fd5b5061024a6109c9565b34801561035657600080fd5b5061024a610c03565b34801561036b57600080fd5b50610374610d63565b6040516102549392919061435e565b34801561038f57600080fd5b506103a361039e3660046139a1565b610dd7565b604051610254919061410d565b3480156103bc57600080fd5b50600e546001600160a01b03165b6040516102549190614021565b3480156103e357600080fd5b5060045461024a565b3480156103f857600080fd5b506101c4610407366004613ab0565b610f7d565b34801561041857600080fd5b506103a3610427366004613ccb565b6111b9565b34801561043857600080fd5b506103a3610447366004613ccb565b6111c7565b34801561045857600080fd5b506103a36111d4565b34801561046d57600080fd5b5061024a61047c3660046137f4565b6111e5565b34801561048d57600080fd5b506101c461049c3660046137f4565b611203565b3480156104ad57600080fd5b506102b26104bc3660046137f4565b61125e565b3480156104cd57600080fd5b506101c46104dc366004613d4e565b611272565b3480156104ed57600080fd5b506101c46104fc3660046137f4565b6112b1565b6101c461050f366004613811565b6112bc565b34801561052057600080fd5b506103a36112dd565b34801561053557600080fd5b506101c46112ea565b34801561054a57600080fd5b506101c4610559366004613eb8565b611313565b34801561056a57600080fd5b506101c46105793660046137f4565b611382565b34801561058a57600080fd5b506101c4610599366004613b41565b61138e565b3480156105aa57600080fd5b506103ca6105b9366004613d1e565b6001600160a01b039081166000908152600d6020908152604080832094835293905291909120541690565b3480156105f057600080fd5b506105f9611614565b60405161025492919061419a565b34801561061357600080fd5b506101c4610622366004613a0a565b61173b565b6101c4610635366004613926565b6117c0565b610645816001611ce9565b50565b6004546001610658600354611df8565b516106639190614437565b61066d8282611f1e565b61067983600354611f3e565b505050565b610686612014565b610691338383612112565b5050565b336000818152600d6020908152604080832086845290915290205483906001600160a01b03166106f45760405162461bcd60e51b8152602060048201526005602482015264454331362d60d81b60448201526064015b60405180910390fd5b33836001600160a01b0381168214156107375760405162461bcd60e51b8152602060048201526005602482015264454331372d60d81b60448201526064016106eb565b6001600160a01b038086166000908152600d602090815260408083208a84529091529020541661079057336000908152600d60209081526040808320898452909152902054610790906001600160a01b03168787612205565b6001600160a01b038086166000908152600d602081815260408084208b85528252808420543385529282528084208b85529091529091205482169116141561092157336000818152600d602081815260408084208b85528083528185206001808201805483546001600160a01b031916909355879055969095529290915251637277ce1960e11b8152919273__Library_______________________________9263e4ef9c3292610848928692910190600401614151565b60006040518083038186803b15801561086057600080fd5b505af4158015610874573d6000803e3d6000fd5b5050336000908152600d602052604090206001015483101591506108de905057336000908152600d6020526040812060018101805484939190849081106108bd576108bd6144e6565b90600052602060002001548152602001908152602001600020600101819055505b6040518781526001600160a01b0387169033907f2f721f6467540d120069c1842568b578382bd1743fab48cb9893890ae1646a8b906020015b60405180910390a3505b505050505050565b610645816001612296565b3361093e8161236c565b6001610949816123b2565b3361095381612427565b61067960016124e7565b61067983838360035461256e565b6109736134c3565b61097e8260016126a7565b92915050565b61099084848484612861565b6001838360008181106109a5576109a56144e6565b9050602002013514156109c35780156109c3576109c38460006128d7565b50505050565b600080600e60009054906101000a90046001600160a01b03166001600160a01b031663e220ad956040518163ffffffff1660e01b815260040160006040518083038186803b158015610a1a57600080fd5b505afa158015610a2e573d6000803e3d6000fd5b505050506040513d6000823e601f3d908101601f19168201604052610a5691908101906139d6565b600281518110610a6857610a686144e6565b60200260200101516001600160a01b031663b049473f6040518163ffffffff1660e01b815260040160a06040518083038186803b158015610aa857600080fd5b505afa158015610abc573d6000803e3d6000fd5b505050506040513d601f19601f82011682018060405250810190610ae09190613ed1565b50600e546040805163e220ad9560e01b815290519296506001600160a01b03909116945063e220ad9593506004808201935060009291829003018186803b158015610b2a57600080fd5b505afa158015610b3e573d6000803e3d6000fd5b505050506040513d6000823e601f3d908101601f19168201604052610b6691908101906139d6565b600681518110610b7857610b786144e6565b60200260200101516001600160a01b0316638d12420b826040518263ffffffff1660e01b8152600401610bad91815260200190565b60206040518083038186803b158015610bc557600080fd5b505afa158015610bd9573d6000803e3d6000fd5b505050506040513d601f19601f82011682018060405250810190610bfd9190613d05565b91505090565b600080600e60009054906101000a90046001600160a01b03166001600160a01b031663e220ad956040518163ffffffff1660e01b815260040160006040518083038186803b158015610c5457600080fd5b505afa158015610c68573d6000803e3d6000fd5b505050506040513d6000823e601f3d908101601f19168201604052610c9091908101906139d6565b600281518110610ca257610ca26144e6565b60200260200101516001600160a01b031663b049473f6040518163ffffffff1660e01b815260040160a06040518083038186803b158015610ce257600080fd5b505afa158015610cf6573d6000803e3d6000fd5b505050506040513d601f19601f82011682018060405250810190610d1a9190613ed1565b5050600e546040805163e220ad9560e01b815290519495506001600160a01b039091169363e220ad95935060048083019350600092829003018186803b158015610b2a57600080fd5b6000806060600954600a54600b80805480602002602001604051908101604052809291908181526020018280548015610dc557602002820191906000526020600020905b81546001600160a01b03168152600190910190602001808311610da7575b50505050509050925092509250909192565b606082610de3856111e5565b11610dfd5750604080516000815260208101909152610f76565b818084610e09876111e5565b610e139190614437565b1015610e305783610e23866111e5565b610e2d9190614437565b90505b6000816001600160401b03811115610e4a57610e4a6144fc565b604051908082528060200260200182016040528015610e73578160200160208202803683370190505b506001600160a01b0387166000908152600d6020908152604080832060010180548251818502810185019093528083529495509293909291830182828015610eda57602002820191906000526020600020905b815481526020019060010190808311610ec6575b5050505050905060008060005b8351811015610f6d57878310610efc57610f6d565b81891115610f1657610f0f60018361441f565b9150610f5b565b838181518110610f2857610f286144e6565b6020026020010151858481518110610f4257610f426144e6565b6020908102919091010152610f5860018461441f565b92505b80610f65816144b5565b915050610ee7565b50929450505050505b9392505050565b600754610100900460ff1680610f96575060075460ff16155b610fb25760405162461bcd60e51b81526004016106eb906141e7565b600754610100900460ff16158015610fd4576007805461ffff19166101011790555b6040805160028082526060820190925290816020015b6060815260200190600190039081610fea575050805161101291600c916020909101906134fb565b506040518060400160405280600581526020016427bbb732b960d91b815250600c600081548110611045576110456144e6565b906000526020600020019080519060200190611062929190613558565b5060405180604001604052806008815260200167283937bb34b232b960c11b815250600c600181548110611098576110986144e6565b9060005260206000200190805190602001906110b5929190613558565b506110c08383612af0565b6111a085856002600c805480602002602001604051908101604052809291908181526020016000905b828210156111955783829060005260206000200180546111089061447a565b80601f01602080910402602001604051908101604052809291908181526020018280546111349061447a565b80156111815780601f1061115657610100808354040283529160200191611181565b820191906000526020600020905b81548152906001019060200180831161116457829003601f168201915b5050505050815260200190600101906110e9565b50505050600061138e565b80156111b2576007805461ff00191690555b5050505050565b606061097e82600354612b17565b606061097e826001612b17565b60606111e06001611df8565b905090565b6001600160a01b03166000908152600d602052604090206001015490565b61120f81600354612c42565b151560011415611252576001611226600354611df8565b516112319190614437565b60045411156112525760405162461bcd60e51b81526004016106eb906141c8565b61064581600354612296565b6112666134c3565b61097e826003546126a7565b61127e84848484612861565b600183836000818110611293576112936144e6565b9050602002013514156109c35780156109c3576109c38460016128d7565b610645816001611f3e565b6112c4612014565b6112d2868686868686612de8565b610921868686612112565b60606111e0600354611df8565b336112f48161236c565b60016112ff816123b2565b3361130981612427565b61067960006124e7565b3361131d8161236c565b6000611328816123b2565b8260056003548154811061133e5761133e6144e6565b90600052602060002090600402016001018054905061135d8282611f1e565b60018561136a8282611f1e565b600887905561137960016124e7565b50505050505050565b61064581600354611ce9565b600754610100900460ff16806113a7575060075460ff16155b6113c35760405162461bcd60e51b81526004016106eb906141e7565b600754610100900460ff161580156113e5576007805461ffff19166101011790555b8486516113f28282611f1e565b6001876113ff8282611f1e565b865188146114375760405162461bcd60e51b8152602060048201526005602482015264454331382d60d81b60448201526064016106eb565b600386905560005b888110156114af57600580546001018155600052875160069089908390811061146a5761146a6144e6565b6020908102919091018101518254600181018455600093845292829020815161149c9491909101929190910190613558565b50806114a7816144b5565b91505061143f565b50600489905560005b8a518110156115f657600073__AddressLibrary________________________63bc215e858d84815181106114ef576114ef6144e6565b60200260200101516040518263ffffffff1660e01b81526004016115139190614021565b60206040518083038186803b15801561152b57600080fd5b505af415801561153f573d6000803e3d6000fd5b505050506040513d601f19601f820116820180604052508101906115639190613d05565b9050600160056003548154811061157c5761157c6144e6565b60009182526020808320858452600492909202909101905260409020600101805460ff19169115159190911790556003546005805490919081106115c2576115c26144e6565b60009182526020808320600160049093020182018054928301815583529091200155806115ee816144b5565b9150506114b8565b50505050508015610921576007805461ff0019169055505050505050565b606080600060018180546116279061447a565b80601f01602080910402602001604051908101604052809291908181526020018280546116539061447a565b80156116a05780601f10611675576101008083540402835291602001916116a0565b820191906000526020600020905b81548152906001019060200180831161168357829003601f168201915b505050505091508080546116b39061447a565b80601f01602080910402602001604051908101604052809291908181526020018280546116df9061447a565b801561172c5780601f106117015761010080835404028352916020019161172c565b820191906000526020600020905b81548152906001019060200180831161170f57829003601f168201915b50505050509050915091509091565b600754610100900460ff1680611754575060075460ff16155b6117705760405162461bcd60e51b81526004016106eb906141e7565b600754610100900460ff16158015611792576007805461ffff19166101011790555b61179e86868585610f7d565b6117a784612f0e565b8015610921576007805461ff0019169055505050505050565b816117cc816001612f95565b156118025760405162461bcd60e51b81526004016106eb906020808252600490820152634543362d60e01b604082015260600190565b82600073__AddressLibrary________________________63bc215e85836040518263ffffffff1660e01b815260040161183c9190614021565b60206040518083038186803b15801561185457600080fd5b505af4158015611868573d6000803e3d6000fd5b505050506040513d601f19601f8201168201806040525081019061188c9190613d05565b905073__ItemsLibrary__________________________6226d7668260056001815481106118bc576118bc6144e6565b90600052602060002090600402016040518363ffffffff1660e01b81526004016118e7929190614151565b60206040518083038186803b1580156118ff57600080fd5b505af4158015611913573d6000803e3d6000fd5b505050506040513d601f19601f820116820180604052508101906119379190613ce8565b1580156119eb575073__ItemsLibrary__________________________632854ed2e82600560018154811061196e5761196e6144e6565b90600052602060002090600402016040518363ffffffff1660e01b8152600401611999929190614151565b60206040518083038186803b1580156119b157600080fd5b505af41580156119c5573d6000803e3d6000fd5b505050506040513d601f19601f820116820180604052508101906119e99190613ce8565b155b611a1f5760405162461bcd60e51b8152602060048201526005602482015264454332372d60d81b60448201526064016106eb565b600e60009054906101000a90046001600160a01b03166001600160a01b031663e220ad956040518163ffffffff1660e01b815260040160006040518083038186803b158015611a6d57600080fd5b505afa158015611a81573d6000803e3d6000fd5b505050506040513d6000823e601f3d908101601f19168201604052611aa991908101906139d6565b600281518110611abb57611abb6144e6565b60200260200101516001600160a01b031663f0c9325e3460006040518363ffffffff1660e01b8152600401611af0919061415f565b6000604051808303818588803b158015611b0957600080fd5b505af1158015611b1d573d6000803e3d6000fd5b505060405163bc215e8560e01b81526000935073__AddressLibrary________________________925063bc215e859150611b5c908990600401614021565b60206040518083038186803b158015611b7457600080fd5b505af4158015611b88573d6000803e3d6000fd5b505050506040513d601f19601f82011682018060405250810190611bac9190613d05565b9050846005600181548110611bc357611bc36144e6565b600091825260208083208584526004909202909101815260409091208251611bf19391929190910190613558565b506005600181548110611c0657611c066144e6565b6000918252602080832060026004909302019190910180546001818101835591845291909220018290556005805482908110611c4457611c446144e6565b906000526020600020906004020160020180549050611c639190614437565b6005600181548110611c7757611c776144e6565b9060005260206000209060040201600001600083815260200190815260200160002060030181905550856001600160a01b03167f39cde7834e26555dd63843df8459d36dd67b5bab6f4ed52349cbb03f66f542b186604051611cd99190614187565b60405180910390a2505050505050565b60055460405163123bd07560e11b815282919073__Library_______________________________90632477a0ea90611d289085908590600401614151565b60006040518083038186803b158015611d4057600080fd5b505af4158015611d54573d6000803e3d6000fd5b5050505033611d628161236c565b600080611d7f8760405180602001604052806000815250886130c0565b604051635cb09bcf60e01b8152919350915073__ItemsLibrary__________________________90635cb09bcf90611dbf908590859030906004016142ad565b60006040518083038186803b158015611dd757600080fd5b505af4158015611deb573d6000803e3d6000fd5b5050505050505050505050565b60055460405163123bd07560e11b8152606091839173__Library_______________________________90632477a0ea90611e399085908590600401614151565b60006040518083038186803b158015611e5157600080fd5b505af4158015611e65573d6000803e3d6000fd5b5050505073__ItemsLibrary__________________________6327724f4b60058681548110611e9657611e966144e6565b90600052602060002090600402016040518263ffffffff1660e01b8152600401611ec291815260200190565b60006040518083038186803b158015611eda57600080fd5b505af4158015611eee573d6000803e3d6000fd5b505050506040513d6000823e601f3d908101601f19168201604052611f169190810190613c34565b949350505050565b808211156106915760405162461bcd60e51b81526004016106eb906141c8565b60055460405163123bd07560e11b815282919073__Library_______________________________90632477a0ea90611f7d9085908590600401614151565b60006040518083038186803b158015611f9557600080fd5b505af4158015611fa9573d6000803e3d6000fd5b5050505033611fb78161236c565b600080611fd48760405180602001604052806000815250886130c0565b60405163e23fcdef60e01b8152919350915073__ItemsLibrary__________________________9063e23fcdef90611dbf908590859030906004016142ad565b600e60009054906101000a90046001600160a01b03166001600160a01b031663e220ad956040518163ffffffff1660e01b815260040160006040518083038186803b15801561206257600080fd5b505afa158015612076573d6000803e3d6000fd5b505050506040513d6000823e601f3d908101601f1916820160405261209e91908101906139d6565b6002815181106120b0576120b06144e6565b60200260200101516001600160a01b031663f0c9325e3460026040518363ffffffff1660e01b81526004016120e5919061415f565b6000604051808303818588803b1580156120fe57600080fd5b505af11580156111b2573d6000803e3d6000fd5b8261211c816132cc565b15156001146121555760405162461bcd60e51b8152602060048201526005602482015264454331322d60d81b60448201526064016106eb565b826001600160a01b038084166000908152600d602090815260408083208884529091529020548491869116156121b55760405162461bcd60e51b8152602060048201526005602482015264454331352d60d81b60448201526064016106eb565b6121c0878787612205565b846001600160a01b0316876001600160a01b03167ff55a90628981610edc26894247bee72e1963d1c9faa4ea6533fd3df39fd36ed48860405161091791815260200190565b6001600160a01b038181166000818152600d6020818152604080842088855280835290842080546001600160a01b031916968a1696909617909555908152600193840180548086018255818452918320909101869055919052546122699190614437565b6001600160a01b039091166000908152600d60209081526040808320948352939052919091206001015550565b60055460405163123bd07560e11b815282919073__Library_______________________________90632477a0ea906122d59085908590600401614151565b60006040518083038186803b1580156122ed57600080fd5b505af4158015612301573d6000803e3d6000fd5b505050503361230f8161236c565b60008061232c8760405180602001604052806000815250886130c0565b604051637493a70b60e01b8152919350915073__ItemsLibrary__________________________90637493a70b90611dbf908590859030906004016142ad565b61237881600354612f95565b15156001146106455760405162461bcd60e51b81526004016106eb906020808252600490820152634543392d60e01b604082015260600190565b80156123ef576008546106455760405162461bcd60e51b8152602060048201526005602482015264454333312d60d81b60448201526064016106eb565b600854156106455760405162461bcd60e51b8152602060048201526005602482015264454333302d60d81b60448201526064016106eb565b60405163f7cf62d760e01b815273__AddressLibrary________________________9063f7cf62d790612461908490600b90600401614035565b60206040518083038186803b15801561247957600080fd5b505af415801561248d573d6000803e3d6000fd5b505050506040513d601f19601f820116820180604052508101906124b19190613ce8565b156106455760405162461bcd60e51b81526004016106eb906020808252600490820152634543352d60e01b604082015260600190565b801561250b57600160096000828254612500919061441f565b909155506125249050565b6001600a600082825461251e919061441f565b90915550505b600b80546001810182556000919091527f0175b7a638427703f0dbe7bb9bbf987a2551717b34e79f33b5b1008d1fa01db90180546001600160a01b031916331790556106456132d9565b60055460405163123bd07560e11b815282919073__Library_______________________________90632477a0ea906125ad9085908590600401614151565b60006040518083038186803b1580156125c557600080fd5b505af41580156125d9573d6000803e3d6000fd5b50505050336125e78161236c565b60008061262c8989898080601f0160208091040260200160405190810160405280939291908181526020018383808284376000920191909152508b92506130c0915050565b6040516305cc2d5560e11b8152919350915073__ItemsLibrary__________________________90630b985aaa9061266c908590859030906004016142ad565b60006040518083038186803b15801561268457600080fd5b505af4158015612698573d6000803e3d6000fd5b50505050505050505050505050565b6126af6134c3565b60055460405163123bd07560e11b815283919073__Library_______________________________90632477a0ea906126ee9085908590600401614151565b60006040518083038186803b15801561270657600080fd5b505af415801561271a573d6000803e3d6000fd5b505060405163bc215e8560e01b81526000925073__AddressLibrary________________________915063bc215e8590612758908990600401614021565b60206040518083038186803b15801561277057600080fd5b505af4158015612784573d6000803e3d6000fd5b505050506040513d601f19601f820116820180604052508101906127a89190613d05565b905073__ItemsLibrary__________________________631aeccc6a82600588815481106127d8576127d86144e6565b90600052602060002090600402016040518363ffffffff1660e01b8152600401612803929190614151565b60006040518083038186803b15801561281b57600080fd5b505af415801561282f573d6000803e3d6000fd5b505050506040513d6000823e601f3d908101601f191682016040526128579190810190613ddf565b9695505050505050565b6040516337ea306360e01b815233600482018190523060248301819052909173__Library_______________________________906337ea30639060440160006040518083038186803b1580156128b757600080fd5b505af41580156128cb573d6000803e3d6000fd5b50505050505050505050565b6000816129155760056001815481106128f2576128f26144e6565b600091825260208083208684526004909202909101905260409020600501612945565b6005600181548110612929576129296144e6565b6000918252602080832086845260049283020190526040909120015b80548060200260200160405190810160405280929190818152602001828054801561299957602002820191906000526020600020905b81546001600160a01b0316815260019091019060200180831161297b575b5050505050905060005b81518110156109c357600e60009054906101000a90046001600160a01b03166001600160a01b031663e220ad956040518163ffffffff1660e01b815260040160006040518083038186803b1580156129fa57600080fd5b505afa158015612a0e573d6000803e3d6000fd5b505050506040513d6000823e601f3d908101601f19168201604052612a3691908101906139d6565b600281518110612a4857612a486144e6565b60200260200101516001600160a01b031663eb1e2a41838381518110612a7057612a706144e6565b602002602001015184516040518363ffffffff1660e01b8152600401612aab9291906001600160a01b03929092168252602082015260400190565b600060405180830381600087803b158015612ac557600080fd5b505af1158015612ad9573d6000803e3d6000fd5b505050508080612ae8906144b5565b9150506129a3565b8151612b03906000906020850190613558565b508051610679906001906020840190613558565b60055460405163123bd07560e11b8152606091839173__Library_______________________________90632477a0ea90612b589085908590600401614151565b60006040518083038186803b158015612b7057600080fd5b505af4158015612b84573d6000803e3d6000fd5b50505050606073__ItemsLibrary__________________________63e035e0068760058881548110612bb857612bb86144e6565b90600052602060002090600402016040518363ffffffff1660e01b8152600401612bee9291909115158252602082015260400190565b60006040518083038186803b158015612c0657600080fd5b505af4158015612c1a573d6000803e3d6000fd5b505050506040513d6000823e601f3d908101601f191682016040526128579190810190613c34565b60055460405163123bd07560e11b8152600091839173__Library_______________________________90632477a0ea90612c839085908590600401614151565b60006040518083038186803b158015612c9b57600080fd5b505af4158015612caf573d6000803e3d6000fd5b505060405163bc215e8560e01b81526000925073__AddressLibrary________________________915063bc215e8590612ced908990600401614021565b60206040518083038186803b158015612d0557600080fd5b505af4158015612d19573d6000803e3d6000fd5b505050506040513d601f19601f82011682018060405250810190612d3d9190613d05565b905073__ItemsLibrary__________________________632854ed2e8260058881548110612d6d57612d6d6144e6565b90600052602060002090600402016040518363ffffffff1660e01b8152600401612d98929190614151565b60206040518083038186803b158015612db057600080fd5b505af4158015612dc4573d6000803e3d6000fd5b505050506040513d601f19601f820116820180604052508101906128579190613ce8565b81612df281613413565b8684612dfe828261344a565b60405163c1bc5c3f60e01b815273__SignatureLibrary______________________9063c1bc5c3f90612e45908c908c908c908c908c908c90600090600190600401614094565b60206040518083038186803b158015612e5d57600080fd5b505af4158015612e71573d6000803e3d6000fd5b505050506040513d601f19601f82011682018060405250810190612e959190613ce8565b1515600114612ece5760405162461bcd60e51b8152602060048201526005602482015264454333322d60d81b60448201526064016106eb565b612f0389876001600160a01b03909116600090815260026020908152604080832093835292905220805460ff19166001179055565b505050505050505050565b600754610100900460ff1680612f27575060075460ff16155b612f435760405162461bcd60e51b81526004016106eb906141e7565b600754610100900460ff16158015612f65576007805461ffff19166101011790555b600e80546001600160a01b0319166001600160a01b0384161790558015610691576007805461ff00191690555050565b60055460405163123bd07560e11b8152600091839173__Library_______________________________90632477a0ea90612fd69085908590600401614151565b60006040518083038186803b158015612fee57600080fd5b505af4158015613002573d6000803e3d6000fd5b505060405163bc215e8560e01b81526000925073__AddressLibrary________________________915063bc215e8590613040908990600401614021565b60206040518083038186803b15801561305857600080fd5b505af415801561306c573d6000803e3d6000fd5b505050506040513d601f19601f820116820180604052508101906130909190613d05565b905073__ItemsLibrary__________________________63dbdfbeec8260058881548110612d6d57612d6d6144e6565b6130f56040518060a0016040528060008019168152602001606081526020016000815260200160608152602001606081525090565b60008073__AddressLibrary________________________63bc215e85876040518263ffffffff1660e01b815260040161312f9190614021565b60206040518083038186803b15801561314757600080fd5b505af415801561315b573d6000803e3d6000fd5b505050506040513d601f19601f8201168201806040525081019061317f9190613d05565b604080516001808252818301909252919250600091906020808301908036833701905050905084816000815181106131b9576131b96144e6565b60200260200101818152505060006040518060a001604052808481526020018881526020016004548152602001600688815481106131f9576131f96144e6565b90600052602060002001805461320e9061447a565b80601f016020809104026020016040519081016040528092919081815260200182805461323a9061447a565b80156132875780601f1061325c57610100808354040283529160200191613287565b820191906000526020600020905b81548152906001019060200180831161326a57829003601f168201915b505050505081526020018381525090506000600587815481106132ac576132ac6144e6565b600091825260209091209296506004029091019350505050935093915050565b600061097e826001612f95565b6009546004805460405163f6001d7d60e01b815273__ItemsLibrary__________________________9363f6001d7d9361331593919201614151565b60206040518083038186803b15801561332d57600080fd5b505af4158015613341573d6000803e3d6000fd5b505050506040513d601f19601f820116820180604052508101906133659190613ce8565b1561337a576008546004556133786134a6565b565b600a546004805460405163f6001d7d60e01b815273__ItemsLibrary__________________________9363f6001d7d936133b693919201614151565b60206040518083038186803b1580156133ce57600080fd5b505af41580156133e2573d6000803e3d6000fd5b505050506040513d601f19601f820116820180604052508101906134069190613ce8565b15613378576133786134a6565b8042106106455760405162461bcd60e51b8152602060048201526005602482015264454333332d60d81b60448201526064016106eb565b6001600160a01b038216600090815260026020908152604080832084845290915290205460ff16156106915760405162461bcd60e51b8152602060048201526005602482015264454333342d60d81b60448201526064016106eb565b600060088190556009819055600a81905561337890600b906135d8565b6040518060c0016040528060608152602001600015158152602001600081526020016000815260200160608152602001606081525090565b828054828255906000526020600020908101928215613548579160200282015b828111156135485782518051613538918491602090910190613558565b509160200191906001019061351b565b506135549291506135f6565b5090565b8280546135649061447a565b90600052602060002090601f01602090048101928261358657600085556135cc565b82601f1061359f57805160ff19168380011785556135cc565b828001600101855582156135cc579182015b828111156135cc5782518255916020019190600101906135b1565b50613554929150613613565b50805460008255906000526020600020908101906106459190613613565b8082111561355457600061360a8282613628565b506001016135f6565b5b808211156135545760008155600101613614565b5080546136349061447a565b6000825580601f10613644575050565b601f0160209004906000526020600020908101906106459190613613565b6000613675613670846143f8565b6143a5565b905082815283838301111561368957600080fd5b828260208301376000602084830101529392505050565b600082601f8301126136b157600080fd5b813560206136c1613670836143d5565b80838252828201915082860187848660051b89010111156136e157600080fd5b60005b858110156137095781356136f781614512565b845292840192908401906001016136e4565b5090979650505050505050565b600082601f83011261372757600080fd5b81516020613737613670836143d5565b80838252828201915082860187848660051b890101111561375757600080fd5b60005b8581101561370957815161376d81614512565b8452928401929084019060010161375a565b805161378a81614527565b919050565b600082601f8301126137a057600080fd5b610f7683833560208501613662565b600082601f8301126137c057600080fd5b81516137ce613670826143f8565b8181528460208386010111156137e357600080fd5b611f1682602083016020870161444e565b60006020828403121561380657600080fd5b8135610f7681614512565b60008060008060008060c0878903121561382a57600080fd5b863561383581614512565b955060208701359450604087013561384c81614512565b9350606087013592506080870135915060a08701356001600160401b0381111561387557600080fd5b8701601f8101891361388657600080fd5b61389589823560208401613662565b9150509295509295509295565b6000806000604084860312156138b757600080fd5b83356138c281614512565b925060208401356001600160401b03808211156138de57600080fd5b818601915086601f8301126138f257600080fd5b81358181111561390157600080fd5b87602082850101111561391357600080fd5b6020830194508093505050509250925092565b6000806040838503121561393957600080fd5b823561394481614512565b915060208301356001600160401b0381111561395f57600080fd5b61396b8582860161378f565b9150509250929050565b6000806040838503121561398857600080fd5b823561399381614512565b946020939093013593505050565b6000806000606084860312156139b657600080fd5b83356139c181614512565b95602085013595506040909401359392505050565b6000602082840312156139e857600080fd5b81516001600160401b038111156139fe57600080fd5b611f1684828501613716565b600080600080600060a08688031215613a2257600080fd5b85356001600160401b0380821115613a3957600080fd5b613a4589838a016136a0565b96506020880135955060408801359150613a5e82614512565b90935060608701359080821115613a7457600080fd5b613a8089838a0161378f565b93506080880135915080821115613a9657600080fd5b50613aa38882890161378f565b9150509295509295909350565b60008060008060808587031215613ac657600080fd5b84356001600160401b0380821115613add57600080fd5b613ae9888389016136a0565b9550602087013594506040870135915080821115613b0657600080fd5b613b128883890161378f565b93506060870135915080821115613b2857600080fd5b50613b358782880161378f565b91505092959194509250565b600080600080600060a08688031215613b5957600080fd5b6001600160401b038635811015613b6f57600080fd5b613b7c88883589016136a0565b9550602080880135955060408801359450606088013582811115613b9f57600080fd5b8801601f81018a13613bb057600080fd5b8035613bbe613670826143d5565b8082825284820191508484018d868560051b8701011115613bde57600080fd5b60005b84811015613c18578782351115613bf757600080fd5b613c068f88843589010161378f565b84529286019290860190600101613be1565b5050809750505050505050608086013590509295509295909350565b60006020808385031215613c4757600080fd5b82516001600160401b03811115613c5d57600080fd5b8301601f81018513613c6e57600080fd5b8051613c7c613670826143d5565b80828252848201915084840188868560051b8701011115613c9c57600080fd5b600094505b83851015613cbf578051835260019490940193918501918501613ca1565b50979650505050505050565b600060208284031215613cdd57600080fd5b8135610f7681614527565b600060208284031215613cfa57600080fd5b8151610f7681614527565b600060208284031215613d1757600080fd5b5051919050565b60008060408385031215613d3157600080fd5b823591506020830135613d4381614512565b809150509250929050565b60008060008060608587031215613d6457600080fd5b8435935060208501356001600160401b0380821115613d8257600080fd5b818701915087601f830112613d9657600080fd5b813581811115613da557600080fd5b8860208260051b8501011115613dba57600080fd5b6020830195508094505050506040850135613dd481614527565b939692955090935050565b600060208284031215613df157600080fd5b81516001600160401b0380821115613e0857600080fd5b9083019060c08286031215613e1c57600080fd5b613e2461437d565b825182811115613e3357600080fd5b613e3f878286016137af565b825250613e4e6020840161377f565b60208201526040830151604082015260608301516060820152608083015182811115613e7957600080fd5b613e8587828601613716565b60808301525060a083015182811115613e9d57600080fd5b613ea987828601613716565b60a08301525095945050505050565b600060208284031215613eca57600080fd5b5035919050565b600080600080600060a08688031215613ee957600080fd5b5050835160208501516040860151606087015160809097015192989197509594509092509050565b600081518084526020808501945080840160005b83811015613f4a5781516001600160a01b031687529582019590820190600101613f25565b509495945050505050565b60008151808452613f6d81602086016020860161444e565b601f01601f19169290920160200192915050565b8054600090600181811c9080831680613f9b57607f831692505b6020808410821415613fbd57634e487b7160e01b600052602260045260246000fd5b83885260208801828015613fd85760018114613fe957614014565b60ff19871682528282019750614014565b60008981526020902060005b8781101561400e57815484820152908601908401613ff5565b83019850505b5050505050505092915050565b6001600160a01b0391909116815260200190565b60006040820160018060a01b03808616845260206040818601528286548085526060870191508760005282600020945060005b81811015614086578554851683526001958601959284019201614068565b509098975050505050505050565b6001600160a01b0389811682526020820189905287166040820152606081018690526080810185905261010060a082018190526000906140d683820187613f55565b905082810360c08401526140ea8186613f81565b905082810360e08401526140fe8185613f81565b9b9a5050505050505050505050565b6020808252825182820181905260009190848201906040850190845b8181101561414557835183529284019291840191600101614129565b50909695505050505050565b918252602082015260400190565b602081016004831061418157634e487b7160e01b600052602160045260246000fd5b91905290565b602081526000610f766020830184613f55565b6040815260006141ad6040830185613f55565b82810360208401526141bf8185613f55565b95945050505050565b602080825260059082015264454331392d60d81b604082015260600190565b6020808252602e908201527f496e697469616c697a61626c653a20636f6e747261637420697320616c72656160408201526d191e481a5b9a5d1a585b1a5e995960921b606082015260800190565b602081526000825160c0602084015261425160e0840182613f55565b905060208401511515604084015260408401516060840152606084015160808401526080840151601f19808584030160a086015261428f8383613f11565b925060a08601519150808584030160c0860152506141bf8282613f11565b6060815283516060820152600060208086015160a060808501526142d5610100850182613f55565b9050604087015160a08501526060870151605f19808684030160c08701526142fd8383613f55565b60808a015187820390920160e088015281518082529185019350600092508401905b8083101561433f578351825292840192600192909201919084019061431f565b5092850187905250506001600160a01b03841660408401529050611f16565b8381528260208201526060604082015260006141bf6060830184613f11565b60405160c081016001600160401b038111828210171561439f5761439f6144fc565b60405290565b604051601f8201601f191681016001600160401b03811182821017156143cd576143cd6144fc565b604052919050565b60006001600160401b038211156143ee576143ee6144fc565b5060051b60200190565b60006001600160401b03821115614411576144116144fc565b50601f01601f191660200190565b60008219821115614432576144326144d0565b500190565b600082821015614449576144496144d0565b500390565b60005b83811015614469578181015183820152602001614451565b838111156109c35750506000910152565b600181811c9082168061448e57607f821691505b602082108114156144af57634e487b7160e01b600052602260045260246000fd5b50919050565b60006000198214156144c9576144c96144d0565b5060010190565b634e487b7160e01b600052601160045260246000fd5b634e487b7160e01b600052603260045260246000fd5b634e487b7160e01b600052604160045260246000fd5b6001600160a01b038116811461064557600080fd5b801515811461064557600080fdfea26469706673582212207168b13f48da669a0800dd98fb88fabfa6c1b33feba1e16d9d0bc1466923d22c64736f6c63430008070033",
  "immutableReferences": {},
  "source": "// SPDX-License-Identifier: GPL-3.0\r\n\r\npragma solidity 0.8.7;\r\n\r\n/*\r\n  Public Certificate Pools offer the default MultiSig Certificate Pool functionality\r\n  except for Providers Creation and Certificate Issuing since payments must be made\r\n  Besides Public Certificate Pool is a managed contract\r\n */\r\n\r\n import \"../Abstract/MultiSigCertificatesPool.sol\";\r\n import \"../Interfaces/ITreasury.sol\";\r\n import \"../Base/ManagedBaseContract.sol\";\r\n import \"../Interfaces/IPriceConverter.sol\";\r\n\r\n contract PublicCertificatesPool is MultiSigCertificatesPool, ManagedBaseContract {\r\n\r\n    // EVENTS /////////////////////////////////////////\r\n    event _NewProposal(address indexed Provider, string Info);\r\n\r\n    // MODIFIERS /////////////////////////////////////////\r\n    modifier ProviderisNotActivated(address entity){\r\n        require(false == isEntity(entity, _providerId), \"EC6-\");\r\n        _;\r\n    }\r\n\r\n    modifier ProviderisNotPending(address entity){\r\n        bytes32 entityInBytes = AddressLibrary.AddressToBytes32(entity);\r\n        require(false == ItemsLibrary.isItemPendingToAdded(entityInBytes, _Entities[_providerId]) && \r\n                false == ItemsLibrary.isItemPendingToRemoved(entityInBytes, _Entities[_providerId]), \"EC27-\");\r\n        _;\r\n    }\r\n\r\n    // CONSTRUCTOR /////////////////////////////////////////\r\n    function PublicCertPool_init(address[] memory owners,  uint256 minOwners, address managerContractAddress, string memory contractName, string memory contractVersion) public initializer {\r\n        super.MultiSigCertPool_init(owners, minOwners, contractName, contractVersion); \r\n        super.ManagedBaseContract_init(managerContractAddress); \r\n    }\r\n\r\n    // FUNCTIONALITY /////////////////////////////////////////\r\n    function addProvider(address provider, string memory providerInfo) external \r\n        ProviderisNotActivated(provider) \r\n        ProviderisNotPending(provider)\r\n    override payable\r\n    {\r\n        ITreasury(_managerContract.retrieveTransparentProxies()[uint256(Library.TransparentProxies.Treasury)]).pay{value:msg.value}(Library.Prices.NewProvider);\r\n        bytes32 providerInBytes = AddressLibrary.AddressToBytes32(provider);\r\n        _Entities[_providerId]._items[providerInBytes]._Info = providerInfo;\r\n        _Entities[_providerId]._pendingItemsAdd.push(providerInBytes);\r\n        _Entities[_providerId]._items[providerInBytes]._pendingId = _Entities[_providerId]._pendingItemsAdd.length - 1;\r\n\r\n        emit _NewProposal(provider, providerInfo);\r\n    }\r\n\r\n    function payBack(bytes32 entityInBytes, bool validatedOrRejected) internal\r\n    {\r\n        address[] memory Voters = (validatedOrRejected) ? _Entities[_providerId]._items[entityInBytes]._Validations : _Entities[_providerId]._items[entityInBytes]._Rejections;\r\n\r\n        for(uint i=0; i < Voters.length; i++){\r\n            ITreasury(_managerContract.retrieveTransparentProxies()[uint256(Library.TransparentProxies.Treasury)]).getRefund(Voters[i], Voters.length);\r\n        }\r\n    }\r\n\r\n    function onBeforeAddCertificate() internal override \r\n    {\r\n        ITreasury(_managerContract.retrieveTransparentProxies()[uint256(Library.TransparentProxies.Treasury)]).pay{value:msg.value}(Library.Prices.NewCertificate);\r\n    }\r\n\r\n    function retrieveAddCertificatePriceWei() external override view returns(uint256)\r\n    {\r\n        (, , , uint Price, ) = ITreasury(_managerContract.retrieveTransparentProxies()[uint256(Library.TransparentProxies.Treasury)]).retrieveSettings();\r\n        return IPriceConverter(_managerContract.retrieveTransparentProxies()[uint256(Library.TransparentProxies.PriceConverter)]).fromUSDToETH(Price);\r\n    }\r\n\r\n    function retrieveSubscriptionPriceWei() external override virtual view returns(uint256)\r\n    {\r\n        (uint Price, , , , ) = ITreasury(_managerContract.retrieveTransparentProxies()[uint256(Library.TransparentProxies.Treasury)]).retrieveSettings();\r\n        return IPriceConverter(_managerContract.retrieveTransparentProxies()[uint256(Library.TransparentProxies.PriceConverter)]).fromUSDToETH(Price);\r\n    }\r\n\r\n    // Callback functions\r\n    function onItemValidated(bytes32 item, uint256[] calldata ids, bool addOrRemove) public override \r\n    {\r\n        super.onItemValidated(item, ids, addOrRemove);\r\n\r\n        if(ids[0] == _providerId){\r\n            if(addOrRemove)payBack(item, true);\r\n        }\r\n    }\r\n\r\n    function onItemRejected(bytes32 item, uint256[] calldata ids, bool addOrRemove) public override  \r\n    {\r\n        super.onItemRejected(item, ids, addOrRemove);\r\n\r\n        if(ids[0] == _providerId){\r\n            if(addOrRemove)payBack(item, false);\r\n        }\r\n    }\r\n\r\n }",
  "sourcePath": "C:\\Users\\d-aam\\GitHub\\Certificates\\contracts\\DeployedContracts\\PublicCertificatesPool.sol",
  "compiler": {
    "name": "solc",
    "version": "0.8.7+commit.e28d00a7.Emscripten.clang"
  },
  "schemaVersion": "3.4.3",
  "updatedAt": "2022-01-20T15:55:33.166Z",
  "networkType": "ethereum",
  "devdoc": {
    "kind": "dev",
    "methods": {},
    "version": 1
  },
  "userdoc": {
    "kind": "user",
    "methods": {},
    "version": 1
  }
}