{
  "contractName": "PublicCertificatesPool",
  "abi": [
    {
      "inputs": [
        {
          "internalType": "address[]",
          "name": "owners",
          "type": "address[]"
        },
        {
          "internalType": "uint256",
          "name": "minOwners",
          "type": "uint256"
        },
        {
          "internalType": "address",
          "name": "managerContractAddress",
          "type": "address"
        }
      ],
      "stateMutability": "nonpayable",
      "type": "constructor"
    },
    {
      "anonymous": false,
      "inputs": [
        {
          "indexed": false,
          "internalType": "address",
          "name": "",
          "type": "address"
        },
        {
          "indexed": false,
          "internalType": "address",
          "name": "",
          "type": "address"
        }
      ],
      "name": "_AddCertificateIdEvent",
      "type": "event"
    },
    {
      "anonymous": false,
      "inputs": [
        {
          "indexed": true,
          "internalType": "string",
          "name": "",
          "type": "string"
        },
        {
          "indexed": true,
          "internalType": "address",
          "name": "",
          "type": "address"
        },
        {
          "indexed": true,
          "internalType": "string",
          "name": "",
          "type": "string"
        }
      ],
      "name": "_AddEntityRejectionIdEvent",
      "type": "event"
    },
    {
      "anonymous": false,
      "inputs": [
        {
          "indexed": true,
          "internalType": "string",
          "name": "",
          "type": "string"
        },
        {
          "indexed": true,
          "internalType": "address",
          "name": "",
          "type": "address"
        },
        {
          "indexed": true,
          "internalType": "string",
          "name": "",
          "type": "string"
        }
      ],
      "name": "_AddEntityValidationIdEvent",
      "type": "event"
    },
    {
      "anonymous": false,
      "inputs": [
        {
          "indexed": false,
          "internalType": "address",
          "name": "",
          "type": "address"
        },
        {
          "indexed": false,
          "internalType": "address",
          "name": "",
          "type": "address"
        }
      ],
      "name": "_RemoveCertificateIdEvent",
      "type": "event"
    },
    {
      "anonymous": false,
      "inputs": [
        {
          "indexed": true,
          "internalType": "string",
          "name": "",
          "type": "string"
        },
        {
          "indexed": true,
          "internalType": "address",
          "name": "",
          "type": "address"
        },
        {
          "indexed": true,
          "internalType": "string",
          "name": "",
          "type": "string"
        }
      ],
      "name": "_RemoveEntityRejectionIdEvent",
      "type": "event"
    },
    {
      "anonymous": false,
      "inputs": [
        {
          "indexed": true,
          "internalType": "string",
          "name": "",
          "type": "string"
        },
        {
          "indexed": true,
          "internalType": "address",
          "name": "",
          "type": "address"
        },
        {
          "indexed": true,
          "internalType": "string",
          "name": "",
          "type": "string"
        }
      ],
      "name": "_RemoveEntityValidationIdEvent",
      "type": "event"
    },
    {
      "anonymous": false,
      "inputs": [
        {
          "indexed": false,
          "internalType": "address",
          "name": "",
          "type": "address"
        },
        {
          "indexed": true,
          "internalType": "address",
          "name": "",
          "type": "address"
        },
        {
          "indexed": true,
          "internalType": "string",
          "name": "",
          "type": "string"
        }
      ],
      "name": "_SendProposalId",
      "type": "event"
    },
    {
      "inputs": [
        {
          "internalType": "address",
          "name": "owner",
          "type": "address"
        },
        {
          "internalType": "string",
          "name": "ownerInfo",
          "type": "string"
        }
      ],
      "name": "addOwner",
      "outputs": [],
      "stateMutability": "nonpayable",
      "type": "function"
    },
    {
      "inputs": [
        {
          "internalType": "address",
          "name": "owner",
          "type": "address"
        }
      ],
      "name": "isOwner",
      "outputs": [
        {
          "internalType": "bool",
          "name": "",
          "type": "bool"
        }
      ],
      "stateMutability": "view",
      "type": "function"
    },
    {
      "inputs": [
        {
          "internalType": "address",
          "name": "provider",
          "type": "address"
        }
      ],
      "name": "isProvider",
      "outputs": [
        {
          "internalType": "bool",
          "name": "",
          "type": "bool"
        }
      ],
      "stateMutability": "view",
      "type": "function"
    },
    {
      "inputs": [
        {
          "internalType": "address",
          "name": "owner",
          "type": "address"
        }
      ],
      "name": "rejectOwner",
      "outputs": [],
      "stateMutability": "nonpayable",
      "type": "function"
    },
    {
      "inputs": [
        {
          "internalType": "address",
          "name": "provider",
          "type": "address"
        }
      ],
      "name": "rejectProvider",
      "outputs": [],
      "stateMutability": "nonpayable",
      "type": "function"
    },
    {
      "inputs": [
        {
          "internalType": "address",
          "name": "owner",
          "type": "address"
        }
      ],
      "name": "removeOwner",
      "outputs": [],
      "stateMutability": "nonpayable",
      "type": "function"
    },
    {
      "inputs": [
        {
          "internalType": "address",
          "name": "provider",
          "type": "address"
        }
      ],
      "name": "removeProvider",
      "outputs": [],
      "stateMutability": "nonpayable",
      "type": "function"
    },
    {
      "inputs": [],
      "name": "retrieveAllOwners",
      "outputs": [
        {
          "internalType": "address[]",
          "name": "",
          "type": "address[]"
        }
      ],
      "stateMutability": "view",
      "type": "function"
    },
    {
      "inputs": [],
      "name": "retrieveAllProviders",
      "outputs": [
        {
          "internalType": "address[]",
          "name": "",
          "type": "address[]"
        }
      ],
      "stateMutability": "view",
      "type": "function"
    },
    {
      "inputs": [
        {
          "internalType": "bytes32",
          "name": "CertificateHash",
          "type": "bytes32"
        },
        {
          "internalType": "address",
          "name": "holder",
          "type": "address"
        }
      ],
      "name": "retrieveCertificateProvider",
      "outputs": [
        {
          "internalType": "address",
          "name": "",
          "type": "address"
        }
      ],
      "stateMutability": "view",
      "type": "function"
    },
    {
      "inputs": [
        {
          "internalType": "address",
          "name": "holder",
          "type": "address"
        },
        {
          "internalType": "uint256",
          "name": "skipFirst",
          "type": "uint256"
        },
        {
          "internalType": "uint256",
          "name": "max",
          "type": "uint256"
        }
      ],
      "name": "retrieveCertificatesByHolder",
      "outputs": [
        {
          "internalType": "bytes32[]",
          "name": "",
          "type": "bytes32[]"
        }
      ],
      "stateMutability": "view",
      "type": "function"
    },
    {
      "inputs": [],
      "name": "retrieveMinOwners",
      "outputs": [
        {
          "internalType": "uint256",
          "name": "",
          "type": "uint256"
        }
      ],
      "stateMutability": "view",
      "type": "function"
    },
    {
      "inputs": [
        {
          "internalType": "address",
          "name": "owner",
          "type": "address"
        }
      ],
      "name": "retrieveOwner",
      "outputs": [
        {
          "internalType": "string",
          "name": "",
          "type": "string"
        },
        {
          "internalType": "bool",
          "name": "",
          "type": "bool"
        }
      ],
      "stateMutability": "view",
      "type": "function"
    },
    {
      "inputs": [
        {
          "internalType": "bool",
          "name": "addedORremove",
          "type": "bool"
        }
      ],
      "name": "retrievePendingOwners",
      "outputs": [
        {
          "internalType": "address[]",
          "name": "",
          "type": "address[]"
        },
        {
          "internalType": "string[]",
          "name": "",
          "type": "string[]"
        }
      ],
      "stateMutability": "view",
      "type": "function"
    },
    {
      "inputs": [
        {
          "internalType": "bool",
          "name": "addedORremove",
          "type": "bool"
        }
      ],
      "name": "retrievePendingProviders",
      "outputs": [
        {
          "internalType": "address[]",
          "name": "",
          "type": "address[]"
        },
        {
          "internalType": "string[]",
          "name": "",
          "type": "string[]"
        }
      ],
      "stateMutability": "view",
      "type": "function"
    },
    {
      "inputs": [
        {
          "internalType": "address",
          "name": "provider",
          "type": "address"
        }
      ],
      "name": "retrieveProvider",
      "outputs": [
        {
          "internalType": "string",
          "name": "",
          "type": "string"
        },
        {
          "internalType": "bool",
          "name": "",
          "type": "bool"
        }
      ],
      "stateMutability": "view",
      "type": "function"
    },
    {
      "inputs": [
        {
          "internalType": "address",
          "name": "holder",
          "type": "address"
        }
      ],
      "name": "retrieveTotalCertificatesByHolder",
      "outputs": [
        {
          "internalType": "uint256",
          "name": "",
          "type": "uint256"
        }
      ],
      "stateMutability": "view",
      "type": "function"
    },
    {
      "inputs": [
        {
          "internalType": "address",
          "name": "owner",
          "type": "address"
        }
      ],
      "name": "validateOwner",
      "outputs": [],
      "stateMutability": "nonpayable",
      "type": "function"
    },
    {
      "inputs": [
        {
          "internalType": "address",
          "name": "provider",
          "type": "address"
        }
      ],
      "name": "validateProvider",
      "outputs": [],
      "stateMutability": "nonpayable",
      "type": "function"
    },
    {
      "inputs": [
        {
          "internalType": "address",
          "name": "TreasuryAddress",
          "type": "address"
        }
      ],
      "name": "updateContracts",
      "outputs": [],
      "stateMutability": "nonpayable",
      "type": "function"
    },
    {
      "inputs": [
        {
          "internalType": "address",
          "name": "provider",
          "type": "address"
        },
        {
          "internalType": "string",
          "name": "providerInfo",
          "type": "string"
        }
      ],
      "name": "addProvider",
      "outputs": [],
      "stateMutability": "payable",
      "type": "function"
    },
    {
      "inputs": [
        {
          "internalType": "bytes32",
          "name": "CertificateHash",
          "type": "bytes32"
        },
        {
          "internalType": "address",
          "name": "holder",
          "type": "address"
        }
      ],
      "name": "addCertificate",
      "outputs": [],
      "stateMutability": "payable",
      "type": "function"
    },
    {
      "inputs": [
        {
          "internalType": "bytes32",
          "name": "item",
          "type": "bytes32"
        },
        {
          "internalType": "uint256[]",
          "name": "ids",
          "type": "uint256[]"
        },
        {
          "internalType": "bool",
          "name": "addOrRemove",
          "type": "bool"
        }
      ],
      "name": "onItemValidated",
      "outputs": [],
      "stateMutability": "nonpayable",
      "type": "function"
    },
    {
      "inputs": [
        {
          "internalType": "bytes32",
          "name": "item",
          "type": "bytes32"
        },
        {
          "internalType": "uint256[]",
          "name": "ids",
          "type": "uint256[]"
        },
        {
          "internalType": "bool",
          "name": "addOrRemove",
          "type": "bool"
        }
      ],
      "name": "onItemRejected",
      "outputs": [],
      "stateMutability": "nonpayable",
      "type": "function"
    }
  ],
  "bytecode": "0x600560c09081526427bbb732b960d91b60e0526080908152610140604052600861010090815267283937bb34b232b960c11b6101205260a052620000489060049060026200042f565b503480156200005657600080fd5b5060405162003cc638038062003cc68339810160408190526200007991620005b5565b808383818160026004805480602002602001604051908101604052809291908181526020016000905b8282101562000158578382906000526020600020018054620000c490620006c6565b80601f0160208091040260200160405190810160405280929190818152602001828054620000f290620006c6565b8015620001435780601f10620001175761010080835404028352916020019162000143565b820191906000526020600020905b8154815290600101906020018083116200012557829003601f168201915b505050505081526020019060010190620000a2565b5050505060008451841115620001a35760405162461bcd60e51b81526004016200019a9060208082526004908201526322a1989b60e11b604082015260600190565b60405180910390fd5b60008411620001de5760405162461bcd60e51b81526004016200019a906020808252600490820152634543313760e01b604082015260600190565b81518314620002195760405162461bcd60e51b81526004016200019a9060208082526004908201526308a8662760e31b604082015260600190565b60008181555b83811015620002985760028054600101815560005282516003908490839081106200024e576200024e6200072d565b6020908102919091018101518254600181018455600093845292829020815162000282949190910192919091019062000493565b50806200028f8162000703565b9150506200021f565b50600184905560005b8551811015620003fc57600073__AddressLibrary________________________634d84c524888481518110620002dc57620002dc6200072d565b60200260200101516040518263ffffffff1660e01b81526004016200031091906001600160a01b0391909116815260200190565b60206040518083038186803b1580156200032957600080fd5b505af41580156200033e573d6000803e3d6000fd5b505050506040513d601f19601f82011682018060405250810190620003649190620006ac565b905060016002600054815481106200038057620003806200072d565b60009182526020808320858452600492909202909101905260408120805460ff19169215159290921790915554600280549091908110620003c557620003c56200072d565b6000918252602080832060016004909302018201805492830181558352909120015580620003f38162000703565b915050620002a1565b5050600680546001600160a01b0319166001600160a01b0398909816979097179096555062000759975050505050505050565b82805482825590600052602060002090810192821562000481579160200282015b828111156200048157825180516200047091849160209091019062000493565b509160200191906001019062000450565b506200048f9291506200051e565b5090565b828054620004a190620006c6565b90600052602060002090601f016020900481019282620004c5576000855562000510565b82601f10620004e057805160ff191683800117855562000510565b8280016001018555821562000510579182015b8281111562000510578251825591602001919060010190620004f3565b506200048f9291506200053f565b808211156200048f57600062000535828262000556565b506001016200051e565b5b808211156200048f576000815560010162000540565b5080546200056490620006c6565b6000825580601f1062000575575050565b601f0160209004906000526020600020908101906200059591906200053f565b50565b80516001600160a01b0381168114620005b057600080fd5b919050565b600080600060608486031215620005cb57600080fd5b83516001600160401b0380821115620005e357600080fd5b818601915086601f830112620005f857600080fd5b81516020828211156200060f576200060f62000743565b8160051b604051601f19603f8301168101818110868211171562000637576200063762000743565b604052838152828101945085830182870184018c10156200065757600080fd5b600096505b848710156200068557620006708162000598565b8652600196909601959483019483016200065c565b50809850505080880151955050505050620006a36040850162000598565b90509250925092565b600060208284031215620006bf57600080fd5b5051919050565b600181811c90821680620006db57607f821691505b60208210811415620006fd57634e487b7160e01b600052602260045260246000fd5b50919050565b60006000198214156200072657634e487b7160e01b600052601160045260246000fd5b5060010190565b634e487b7160e01b600052603260045260246000fd5b634e487b7160e01b600052604160045260246000fd5b61355d80620007696000396000f3fe60806040526004361061011b5760003560e01c80630b4c72a914610120578063173825d9146101425780631ab807f814610162578063279958a91461017557806327a40b4b146101955780632f54bf6e146101b55780633542758f146101ea578063375834991461020a5780633fd071811461023857806358a1ba251461025857806365b973e5146102855780636b074a07146102a45780636b299604146102c45780636b3a0fec146102f25780636e4f9179146103125780636e55d2d41461033457806376f8f90f1461035457806377bc5a1f146103745780637c8c2add146103945780638a355a57146103b4578063a93d5ed6146103d4578063ce33d58a146103e9578063d0a4adfe14610409578063fc0005001461045c575b600080fd5b34801561012c57600080fd5b5061014061013b366004612b9f565b61046f565b005b34801561014e57600080fd5b5061014061015d366004612b9f565b61047d565b610140610170366004612f03565b6104d2565b34801561018157600080fd5b50610140610190366004612b9f565b610545565b3480156101a157600080fd5b506101406101b0366004612b9f565b61061a565b3480156101c157600080fd5b506101d56101d0366004612b9f565b610625565b60405190151581526020015b60405180910390f35b3480156101f657600080fd5b50610140610205366004612bbc565b610639565b34801561021657600080fd5b5061022a610225366004612b9f565b610647565b6040516101e19291906131ca565b34801561024457600080fd5b50610140610253366004612f33565b61065f565b34801561026457600080fd5b50610278610273366004612ccd565b6106a4565b6040516101e19190613150565b34801561029157600080fd5b506001545b6040519081526020016101e1565b3480156102b057600080fd5b506101d56102bf366004612b9f565b61084a565b3480156102d057600080fd5b506102e46102df366004612eb0565b610857565b6040516101e19291906130de565b3480156102fe57600080fd5b506102e461030d366004612eb0565b610866565b34801561031e57600080fd5b50610327610874565b6040516101e191906130cb565b34801561034057600080fd5b5061029661034f366004612b9f565b610885565b34801561036057600080fd5b5061014061036f366004612b9f565b6108a3565b34801561038057600080fd5b5061022a61038f366004612b9f565b6108fe565b3480156103a057600080fd5b506101406103af366004612f33565b61090e565b3480156103c057600080fd5b506101406103cf366004612b9f565b61094d565b3480156103e057600080fd5b50610327610958565b3480156103f557600080fd5b50610140610404366004612b9f565b610965565b34801561041557600080fd5b5061044f610424366004612f03565b6001600160a01b03908116600090815260056020908152604080832094835293905291909120541690565b6040516101e19190613096565b61014061046a366004612c40565b610971565b61047a816001610ba5565b50565b600154600161048d600054611076565b516104989190613429565b808211156104c15760405162461bcd60e51b81526004016104b8906131ee565b60405180910390fd5b6104cd83600054611267565b505050565b600754604051637864992f60e11b81526001600160a01b039091169063f0c9325e903490610505906002906004016131a2565b6000604051808303818588803b15801561051e57600080fd5b505af1158015610532573d6000803e3d6000fd5b505050505061054182826115ce565b5050565b600654604051630d1d719d60e41b815273__Library_______________________________9163d1d719d091610587916001600160a01b031690600401613096565b60206040518083038186803b15801561059f57600080fd5b505af41580156105b3573d6000803e3d6000fd5b505050506040513d601f19601f820116820180604052508101906105d79190612ecd565b15156001146105f85760405162461bcd60e51b81526004016104b89061329f565b600780546001600160a01b0319166001600160a01b0392909216919091179055565b61047a816001611701565b600061063382600054611b92565b92915050565b6104cd838383600054611d83565b6060600061065683600161213c565b91509150915091565b61066b84848484612339565b600183836000818110610680576106806134d8565b90506020020135141561069e57801561069e5761069e8460006123ea565b50505050565b6060826106b085610885565b116106ca5750604080516000815260208101909152610843565b8180846106d687610885565b6106e09190613429565b10156106fd57836106f086610885565b6106fa9190613429565b90505b6000816001600160401b03811115610717576107176134ee565b604051908082528060200260200182016040528015610740578160200160208202803683370190505b506001600160a01b0387166000908152600560209081526040808320600101805482518185028101850190935280835294955092939092918301828280156107a757602002820191906000526020600020905b815481526020019060010190808311610793575b5050505050905060008060005b835181101561083a578783106107c95761083a565b818911156107e3576107dc600183613411565b9150610828565b8381815181106107f5576107f56134d8565b602002602001015185848151811061080f5761080f6134d8565b6020908102919091010152610825600184613411565b92505b80610832816134a7565b9150506107b4565b50929450505050505b9392505050565b6000610633826001611b92565b6060806106568360005461256b565b60608061065683600161256b565b60606108806001611076565b905090565b6001600160a01b031660009081526005602052604090206001015490565b6108af81600054612778565b1515600114156108f25760016108c6600054611076565b516108d19190613429565b60015411156108f25760405162461bcd60e51b81526004016104b8906131ee565b61047a81600054611701565b606060006106568360005461213c565b61091a84848484612339565b60018383600081811061092f5761092f6134d8565b90506020020135141561069e57801561069e5761069e8460016123ea565b61047a816001611267565b6060610880600054611076565b61047a81600054610ba5565b60008260016109808282611b92565b1561099d5760405162461bcd60e51b81526004016104b8906132bc565b60008560016109ac82826128e4565b156109c95760405162461bcd60e51b81526004016104b89061320c565b600754604051637864992f60e11b81526001600160a01b039091169063f0c9325e9034906109fc906000906004016131a2565b6000604051808303818588803b158015610a1557600080fd5b505af1158015610a29573d6000803e3d6000fd5b5050604051631361314960e21b81526000935073__AddressLibrary________________________9250634d84c5249150610a68908c90600401613096565b60206040518083038186803b158015610a8057600080fd5b505af4158015610a94573d6000803e3d6000fd5b505050506040513d601f19601f82011682018060405250810190610ab89190612eea565b9050876002600181548110610acf57610acf6134d8565b906000526020600020906004020160000160008381526020019081526020016000206001019080519060200190610b07929190612a4f565b506002600181548110610b1c57610b1c6134d8565b600091825260208083206002600490930201919091018054600181018255908352912001819055604051610b5190899061307a565b6040518091039020896001600160a01b03167f854d1c61e7ad3ec86e783ff3bee2d6e972df20c27c0c0e5436cb8ad35dcdd31130604051610b929190613096565b60405180910390a3505050505050505050565b60025460405163123bd07560e11b815282919073__Library_______________________________90632477a0ea90610be49085908590600401613194565b60206040518083038186803b158015610bfc57600080fd5b505af4158015610c10573d6000803e3d6000fd5b505050506040513d601f19601f82011682018060405250810190610c349190612ecd565b1515600114610c555760405162461bcd60e51b81526004016104b890613282565b610c6133600054611b92565b1515600114610c825760405162461bcd60e51b81526004016104b890613265565b60018484610c9082826128e4565b151560011480610cab5750610ca58282612778565b15156001145b610cc75760405162461bcd60e51b81526004016104b890613247565b8686600073__AddressLibrary________________________634d84c524846040518263ffffffff1660e01b8152600401610d029190613096565b60206040518083038186803b158015610d1a57600080fd5b505af4158015610d2e573d6000803e3d6000fd5b505050506040513d601f19601f82011682018060405250810190610d529190612eea565b905073__ItemsLibrary__________________________637b6d23de338360028681548110610d8357610d836134d8565b90600052602060002090600402016040518463ffffffff1660e01b8152600401610daf939291906130aa565b60206040518083038186803b158015610dc757600080fd5b505af4158015610ddb573d6000803e3d6000fd5b505050506040513d601f19601f82011682018060405250810190610dff9190612ecd565b15610e1c5760405162461bcd60e51b81526004016104b89061322a565b604051631361314960e21b815260009073__AddressLibrary________________________90634d84c52490610e56908e90600401613096565b60206040518083038186803b158015610e6e57600080fd5b505af4158015610e82573d6000803e3d6000fd5b505050506040513d601f19601f82011682018060405250810190610ea69190612eea565b60408051600180825281830190925291925060009190602080830190803683370190505090508a81600081518110610ee057610ee06134d8565b60200260200101818152505060006040518060c00160405280848152602001604051806020016040528060008152508152602001600154815260200160038e81548110610f2f57610f2f6134d8565b906000526020600020018054610f449061346c565b80601f0160208091040260200160405190810160405280929190818152602001828054610f709061346c565b8015610fbd5780601f10610f9257610100808354040283529160200191610fbd565b820191906000526020600020905b815481529060010190602001808311610fa057829003601f168201915b50505050508152602001838152602001600115158152509050600060028d81548110610feb57610feb6134d8565b9060005260206000209060040201905073__ItemsLibrary__________________________635cb09bcf8383306040518463ffffffff1660e01b8152600401611036939291906132d9565b60006040518083038186803b15801561104e57600080fd5b505af4158015611062573d6000803e3d6000fd5b505050505050505050505050505050505050565b60025460405163123bd07560e11b8152606091839173__Library_______________________________90632477a0ea906110b79085908590600401613194565b60206040518083038186803b1580156110cf57600080fd5b505af41580156110e3573d6000803e3d6000fd5b505050506040513d601f19601f820116820180604052508101906111079190612ecd565b15156001146111285760405162461bcd60e51b81526004016104b890613282565b73__AddressLibrary________________________635f2e8a5d73__ItemsLibrary__________________________6327724f4b6002888154811061116f5761116f6134d8565b90600052602060002090600402016040518263ffffffff1660e01b815260040161119b91815260200190565b60006040518083038186803b1580156111b357600080fd5b505af41580156111c7573d6000803e3d6000fd5b505050506040513d6000823e601f3d908101601f191682016040526111ef9190810190612da2565b6040518263ffffffff1660e01b815260040161120b9190613150565b60006040518083038186803b15801561122357600080fd5b505af4158015611237573d6000803e3d6000fd5b505050506040513d6000823e601f3d908101601f1916820160405261125f9190810190612d02565b949350505050565b60025460405163123bd07560e11b815282919073__Library_______________________________90632477a0ea906112a69085908590600401613194565b60206040518083038186803b1580156112be57600080fd5b505af41580156112d2573d6000803e3d6000fd5b505050506040513d601f19601f820116820180604052508101906112f69190612ecd565b15156001146113175760405162461bcd60e51b81526004016104b890613282565b61132333600054611b92565b15156001146113445760405162461bcd60e51b81526004016104b890613265565b600184846113528282611b92565b15156001146113895760405162461bcd60e51b815260206004820152600360248201526245433760e81b60448201526064016104b8565b600087876113978282612778565b156113b45760405162461bcd60e51b81526004016104b89061320c565b604051631361314960e21b815260009073__AddressLibrary________________________90634d84c524906113ee908e90600401613096565b60206040518083038186803b15801561140657600080fd5b505af415801561141a573d6000803e3d6000fd5b505050506040513d601f19601f8201168201806040525081019061143e9190612eea565b60408051600180825281830190925291925060009190602080830190803683370190505090508a81600081518110611478576114786134d8565b60200260200101818152505060006040518060c00160405280848152602001604051806020016040528060008152508152602001600154815260200160038e815481106114c7576114c76134d8565b9060005260206000200180546114dc9061346c565b80601f01602080910402602001604051908101604052809291908181526020018280546115089061346c565b80156115555780601f1061152a57610100808354040283529160200191611555565b820191906000526020600020905b81548152906001019060200180831161153857829003601f168201915b50505050508152602001838152602001600115158152509050600060028d81548110611583576115836134d8565b9060005260206000209060040201905073__ItemsLibrary__________________________63e23fcdef8383306040518463ffffffff1660e01b8152600401611036939291906132d9565b6115d73361084a565b15156001146116115760405162461bcd60e51b81526004016104b89060208082526004908201526322a1989960e11b604082015260600190565b816001600160a01b0380831660009081526005602090815260408083208784529091529020548391859116156116725760405162461bcd60e51b81526004016104b8906020808252600490820152634543313560e01b604082015260600190565b6001600160a01b03841660008181526005602081815260408084208a855280835281852080546001600160a01b0319163390811790915593835260019081018054918201815585529382902090930189905582519182528101929092527f601cb9a073dbfa468ef12878ee6c720641a49b76af7c16099e8c0a1ac3ca79b5910160405180910390a15050505050565b60025460405163123bd07560e11b815282919073__Library_______________________________90632477a0ea906117409085908590600401613194565b60206040518083038186803b15801561175857600080fd5b505af415801561176c573d6000803e3d6000fd5b505050506040513d601f19601f820116820180604052508101906117909190612ecd565b15156001146117b15760405162461bcd60e51b81526004016104b890613282565b6117bd33600054611b92565b15156001146117de5760405162461bcd60e51b81526004016104b890613265565b600184846117ec82826128e4565b15156001148061180757506118018282612778565b15156001145b6118235760405162461bcd60e51b81526004016104b890613247565b8686600073__AddressLibrary________________________634d84c524846040518263ffffffff1660e01b815260040161185e9190613096565b60206040518083038186803b15801561187657600080fd5b505af415801561188a573d6000803e3d6000fd5b505050506040513d601f19601f820116820180604052508101906118ae9190612eea565b905073__ItemsLibrary__________________________637b6d23de3383600286815481106118df576118df6134d8565b90600052602060002090600402016040518463ffffffff1660e01b815260040161190b939291906130aa565b60206040518083038186803b15801561192357600080fd5b505af4158015611937573d6000803e3d6000fd5b505050506040513d601f19601f8201168201806040525081019061195b9190612ecd565b156119785760405162461bcd60e51b81526004016104b89061322a565b604051631361314960e21b815260009073__AddressLibrary________________________90634d84c524906119b2908e90600401613096565b60206040518083038186803b1580156119ca57600080fd5b505af41580156119de573d6000803e3d6000fd5b505050506040513d601f19601f82011682018060405250810190611a029190612eea565b60408051600180825281830190925291925060009190602080830190803683370190505090508a81600081518110611a3c57611a3c6134d8565b60200260200101818152505060006040518060c00160405280848152602001604051806020016040528060008152508152602001600154815260200160038e81548110611a8b57611a8b6134d8565b906000526020600020018054611aa09061346c565b80601f0160208091040260200160405190810160405280929190818152602001828054611acc9061346c565b8015611b195780601f10611aee57610100808354040283529160200191611b19565b820191906000526020600020905b815481529060010190602001808311611afc57829003601f168201915b50505050508152602001838152602001600115158152509050600060028d81548110611b4757611b476134d8565b9060005260206000209060040201905073__ItemsLibrary__________________________637493a70b8383306040518463ffffffff1660e01b8152600401611036939291906132d9565b60025460405163123bd07560e11b8152600091839173__Library_______________________________90632477a0ea90611bd39085908590600401613194565b60206040518083038186803b158015611beb57600080fd5b505af4158015611bff573d6000803e3d6000fd5b505050506040513d601f19601f82011682018060405250810190611c239190612ecd565b1515600114611c445760405162461bcd60e51b81526004016104b890613282565b604051631361314960e21b815260009073__AddressLibrary________________________90634d84c52490611c7e908990600401613096565b60206040518083038186803b158015611c9657600080fd5b505af4158015611caa573d6000803e3d6000fd5b505050506040513d601f19601f82011682018060405250810190611cce9190612eea565b905073__ItemsLibrary__________________________63dbdfbeec8260028881548110611cfe57611cfe6134d8565b90600052602060002090600402016040518363ffffffff1660e01b8152600401611d29929190613194565b60206040518083038186803b158015611d4157600080fd5b505af4158015611d55573d6000803e3d6000fd5b505050506040513d601f19601f82011682018060405250810190611d799190612ecd565b9695505050505050565b60025460405163123bd07560e11b815282919073__Library_______________________________90632477a0ea90611dc29085908590600401613194565b60206040518083038186803b158015611dda57600080fd5b505af4158015611dee573d6000803e3d6000fd5b505050506040513d601f19601f82011682018060405250810190611e129190612ecd565b1515600114611e335760405162461bcd60e51b81526004016104b890613282565b611e3f33600054611b92565b1515600114611e605760405162461bcd60e51b81526004016104b890613265565b60008684611e6e8282611b92565b15611e8b5760405162461bcd60e51b81526004016104b8906132bc565b60008987611e9982826128e4565b15611eb65760405162461bcd60e51b81526004016104b89061320c565b600073__AddressLibrary________________________634d84c5248e6040518263ffffffff1660e01b8152600401611eef9190613096565b60206040518083038186803b158015611f0757600080fd5b505af4158015611f1b573d6000803e3d6000fd5b505050506040513d601f19601f82011682018060405250810190611f3f9190612eea565b60408051600180825281830190925291925060009190602080830190803683370190505090508a81600081518110611f7957611f796134d8565b60200260200101818152505060006040518060c001604052808481526020018f8f8080601f0160208091040260200160405190810160405280939291908181526020018383808284376000920191909152505050908252506001546020820152600380546040909201918f908110611ff357611ff36134d8565b9060005260206000200180546120089061346c565b80601f01602080910402602001604051908101604052809291908181526020018280546120349061346c565b80156120815780601f1061205657610100808354040283529160200191612081565b820191906000526020600020905b81548152906001019060200180831161206457829003601f168201915b50505050508152602001838152602001600115158152509050600060028d815481106120af576120af6134d8565b9060005260206000209060040201905073__ItemsLibrary__________________________630b985aaa8383306040518463ffffffff1660e01b81526004016120fa939291906132d9565b60006040518083038186803b15801561211257600080fd5b505af4158015612126573d6000803e3d6000fd5b5050505050505050505050505050505050505050565b60025460405163123bd07560e11b815260609160009184919073__Library_______________________________90632477a0ea906121819085908590600401613194565b60206040518083038186803b15801561219957600080fd5b505af41580156121ad573d6000803e3d6000fd5b505050506040513d601f19601f820116820180604052508101906121d19190612ecd565b15156001146121f25760405162461bcd60e51b81526004016104b890613282565b604051631361314960e21b815260009073__AddressLibrary________________________90634d84c5249061222c908a90600401613096565b60206040518083038186803b15801561224457600080fd5b505af4158015612258573d6000803e3d6000fd5b505050506040513d601f19601f8201168201806040525081019061227c9190612eea565b905073__ItemsLibrary__________________________631aeccc6a82600289815481106122ac576122ac6134d8565b90600052602060002090600402016040518363ffffffff1660e01b81526004016122d7929190613194565b60006040518083038186803b1580156122ef57600080fd5b505af4158015612303573d6000803e3d6000fd5b505050506040513d6000823e601f3d908101601f1916820160405261232b9190810190612fc4565b945094505050509250929050565b604051630d1d719d60e41b8152309073__Library_______________________________9063d1d719d090612372908490600401613096565b60206040518083038186803b15801561238a57600080fd5b505af415801561239e573d6000803e3d6000fd5b505050506040513d601f19601f820116820180604052508101906123c29190612ecd565b15156001146123e35760405162461bcd60e51b81526004016104b89061329f565b5050505050565b600081612428576002600181548110612405576124056134d8565b60009182526020808320868452600490920290910190526040902060030161245b565b600260018154811061243c5761243c6134d8565b6000918252602080832086845260049092029091019052604090206002015b8054806020026020016040519081016040528092919081815260200182805480156124af57602002820191906000526020600020905b81546001600160a01b03168152600190910190602001808311612491575b5050505050905060005b815181101561069e5760075482516001600160a01b039091169063eb1e2a41908490849081106124eb576124eb6134d8565b602002602001015184516040518363ffffffff1660e01b81526004016125269291906001600160a01b03929092168252602082015260400190565b600060405180830381600087803b15801561254057600080fd5b505af1158015612554573d6000803e3d6000fd5b505050508080612563906134a7565b9150506124b9565b60025460405163123bd07560e11b8152606091829184919073__Library_______________________________90632477a0ea906125af9085908590600401613194565b60206040518083038186803b1580156125c757600080fd5b505af41580156125db573d6000803e3d6000fd5b505050506040513d601f19601f820116820180604052508101906125ff9190612ecd565b15156001146126205760405162461bcd60e51b81526004016104b890613282565b60608073__ItemsLibrary__________________________63e035e0068960028a81548110612651576126516134d8565b90600052602060002090600402016040518363ffffffff1660e01b81526004016126879291909115158252602082015260400190565b60006040518083038186803b15801561269f57600080fd5b505af41580156126b3573d6000803e3d6000fd5b505050506040513d6000823e601f3d908101601f191682016040526126db9190810190612dd6565b604051635f2e8a5d60e01b8152919350915073__AddressLibrary________________________90635f2e8a5d90612717908590600401613150565b60006040518083038186803b15801561272f57600080fd5b505af4158015612743573d6000803e3d6000fd5b505050506040513d6000823e601f3d908101601f1916820160405261276b9190810190612d02565b9890975095505050505050565b60025460405163123bd07560e11b8152600091839173__Library_______________________________90632477a0ea906127b99085908590600401613194565b60206040518083038186803b1580156127d157600080fd5b505af41580156127e5573d6000803e3d6000fd5b505050506040513d601f19601f820116820180604052508101906128099190612ecd565b151560011461282a5760405162461bcd60e51b81526004016104b890613282565b604051631361314960e21b815260009073__AddressLibrary________________________90634d84c52490612864908990600401613096565b60206040518083038186803b15801561287c57600080fd5b505af4158015612890573d6000803e3d6000fd5b505050506040513d601f19601f820116820180604052508101906128b49190612eea565b905073__ItemsLibrary__________________________632854ed2e8260028881548110611cfe57611cfe6134d8565b60025460405163123bd07560e11b8152600091839173__Library_______________________________90632477a0ea906129259085908590600401613194565b60206040518083038186803b15801561293d57600080fd5b505af4158015612951573d6000803e3d6000fd5b505050506040513d601f19601f820116820180604052508101906129759190612ecd565b15156001146129965760405162461bcd60e51b81526004016104b890613282565b604051631361314960e21b815260009073__AddressLibrary________________________90634d84c524906129d0908990600401613096565b60206040518083038186803b1580156129e857600080fd5b505af41580156129fc573d6000803e3d6000fd5b505050506040513d601f19601f82011682018060405250810190612a209190612eea565b905073__ItemsLibrary__________________________6226d7668260028881548110611cfe57611cfe6134d8565b828054612a5b9061346c565b90600052602060002090601f016020900481019282612a7d5760008555612ac3565b82601f10612a9657805160ff1916838001178555612ac3565b82800160010185558215612ac3579182015b82811115612ac3578251825591602001919060010190612aa8565b50612acf929150612ad3565b5090565b5b80821115612acf5760008155600101612ad4565b600082601f830112612af957600080fd5b81516020612b0e612b09836133c7565b613397565b80838252828201915082860187848660051b8901011115612b2e57600080fd5b60005b85811015612b4d57815184529284019290840190600101612b31565b5090979650505050505050565b600082601f830112612b6b57600080fd5b8151612b79612b09826133ea565b818152846020838601011115612b8e57600080fd5b61125f826020830160208701613440565b600060208284031215612bb157600080fd5b813561084381613504565b600080600060408486031215612bd157600080fd5b8335612bdc81613504565b925060208401356001600160401b0380821115612bf857600080fd5b818601915086601f830112612c0c57600080fd5b813581811115612c1b57600080fd5b876020828501011115612c2d57600080fd5b6020830194508093505050509250925092565b60008060408385031215612c5357600080fd5b8235612c5e81613504565b915060208301356001600160401b03811115612c7957600080fd5b8301601f81018513612c8a57600080fd5b8035612c98612b09826133ea565b818152866020838501011115612cad57600080fd5b816020840160208301376000602083830101528093505050509250929050565b600080600060608486031215612ce257600080fd5b8335612ced81613504565b95602085013595506040909401359392505050565b60006020808385031215612d1557600080fd5b82516001600160401b03811115612d2b57600080fd5b8301601f81018513612d3c57600080fd5b8051612d4a612b09826133c7565b80828252848201915084840188868560051b8701011115612d6a57600080fd5b600094505b83851015612d96578051612d8281613504565b835260019490940193918501918501612d6f565b50979650505050505050565b600060208284031215612db457600080fd5b81516001600160401b03811115612dca57600080fd5b61125f84828501612ae8565b60008060408385031215612de957600080fd5b82516001600160401b0380821115612e0057600080fd5b612e0c86838701612ae8565b9350602091508185015181811115612e2357600080fd5b8501601f81018713612e3457600080fd5b8051612e42612b09826133c7565b8082825285820191508584018a878560051b8701011115612e6257600080fd5b6000805b85811015612e9d57825188811115612e7c578283fd5b612e8a8e8b838b0101612b5a565b8652509388019391880191600101612e66565b5050508096505050505050509250929050565b600060208284031215612ec257600080fd5b813561084381613519565b600060208284031215612edf57600080fd5b815161084381613519565b600060208284031215612efc57600080fd5b5051919050565b60008060408385031215612f1657600080fd5b823591506020830135612f2881613504565b809150509250929050565b60008060008060608587031215612f4957600080fd5b8435935060208501356001600160401b0380821115612f6757600080fd5b818701915087601f830112612f7b57600080fd5b813581811115612f8a57600080fd5b8860208260051b8501011115612f9f57600080fd5b6020830195508094505050506040850135612fb981613519565b939692955090935050565b60008060408385031215612fd757600080fd5b82516001600160401b03811115612fed57600080fd5b612ff985828601612b5a565b9250506020830151612f2881613519565b600081518084526020808501945080840160005b838110156130435781516001600160a01b03168752958201959082019060010161301e565b509495945050505050565b60008151808452613066816020860160208601613440565b601f01601f19169290920160200192915050565b6000825161308c818460208701613440565b9190910192915050565b6001600160a01b0391909116815260200190565b6001600160a01b039390931683526020830191909152604082015260600190565b602081526000610843602083018461300a565b6040815260006130f1604083018561300a565b6020838203818501528185518084528284019150828160051b85010183880160005b8381101561314157601f1987840301855261312f83835161304e565b94860194925090850190600101613113565b50909998505050505050505050565b6020808252825182820181905260009190848201906040850190845b818110156131885783518352928401929184019160010161316c565b50909695505050505050565b918252602082015260400190565b60208101600383106131c457634e487b7160e01b600052602160045260246000fd5b91905290565b6040815260006131dd604083018561304e565b905082151560208301529392505050565b6020808252600490820152634543313960e01b604082015260600190565b6020808252600490820152634543323760e01b604082015260600190565b60208082526003908201526245433560e81b604082015260600190565b60208082526004908201526308a8664760e31b604082015260600190565b60208082526003908201526245433960e81b604082015260600190565b60208082526003908201526245433160e81b604082015260600190565b60208082526003908201526208a86760eb1b604082015260600190565b60208082526003908201526222a19b60e91b604082015260600190565b6060815283516060820152600060208086015160c0608085015261330161012085018261304e565b9050604087015160a08501526060870151605f19808684030160c0870152613329838361304e565b60808a015187820390920160e088015281518082529185019350600092508401905b8083101561336b578351825292840192600192909201919084019061334b565b5060a0890151151561010087015292850187905250506001600160a01b0384166040840152905061125f565b604051601f8201601f191681016001600160401b03811182821017156133bf576133bf6134ee565b604052919050565b60006001600160401b038211156133e0576133e06134ee565b5060051b60200190565b60006001600160401b03821115613403576134036134ee565b50601f01601f191660200190565b60008219821115613424576134246134c2565b500190565b60008282101561343b5761343b6134c2565b500390565b60005b8381101561345b578181015183820152602001613443565b8381111561069e5750506000910152565b600181811c9082168061348057607f821691505b602082108114156134a157634e487b7160e01b600052602260045260246000fd5b50919050565b60006000198214156134bb576134bb6134c2565b5060010190565b634e487b7160e01b600052601160045260246000fd5b634e487b7160e01b600052603260045260246000fd5b634e487b7160e01b600052604160045260246000fd5b6001600160a01b038116811461047a57600080fd5b801515811461047a57600080fdfea2646970667358221220f264a315b52a67f3f113b3f67e3ab82f9487c70fcd8f4facb26efb2c5b86cda064736f6c63430008060033",
  "immutableReferences": {},
  "source": "// SPDX-License-Identifier: GPL-3.0\r\n\r\npragma solidity >=0.7.0 <0.9.0;\r\npragma experimental ABIEncoderV2;\r\n\r\n/**\r\n * @title Storage\r\n * @dev Store & retrieve value in a variable\r\n */\r\n\r\n import \"../Abstract/MultiSigCertificatesPool.sol\";\r\n import \"./Treasury.sol\";\r\n import \"../Libraries/Library.sol\";\r\n import \"../Base/ManagedBaseContract.sol\";\r\n import \"../Libraries/AddressLibrary.sol\";\r\n\r\n contract PublicCertificatesPool is MultiSigCertificatesPool, ManagedBaseContract {\r\n    using Library for *;\r\n    using AddressLibrary for *;\r\n\r\n    // EVENTS\r\n    event _SendProposalId(address, address indexed,  string indexed);\r\n\r\n    // DATA\r\n    // Treasury\r\n    Treasury _Treasury;\r\n\r\n    // CONSTRUCTOR\r\n    constructor(address[] memory owners,  uint256 minOwners, address managerContractAddress)\r\n    MultiSigCertificatesPool(owners, minOwners) \r\n    ManagedBaseContract(managerContractAddress) \r\n    {}\r\n\r\n    // FUNCTIONALITY\r\n    function updateContracts(address TreasuryAddress) external\r\n        isFromManagerContract()\r\n    {\r\n        _Treasury = Treasury(TreasuryAddress);\r\n    }\r\n\r\n    function addProvider(address provider, string memory providerInfo) external \r\n        isEntityActivated(false, provider, _providerId) \r\n        isEntityPendingToAdd(false, provider, _providerId)\r\n    override payable\r\n    {\r\n        _Treasury.pay{value:msg.value}(Library.Prices.NewProvider);\r\n        bytes32 providerInBytes = AddressLibrary.AddressToBytes(provider);\r\n        _Entities[_providerId]._items[providerInBytes]._Info = providerInfo;\r\n        _Entities[_providerId]._pendingItemsAdd.push(providerInBytes);\r\n\r\n        emit _SendProposalId(address(this), provider, providerInfo);\r\n    }\r\n\r\n    function payBack(bytes32 entityInBytes, bool validatedOrRejected) internal\r\n    {\r\n        address[] memory Voters = (validatedOrRejected) ? _Entities[_providerId]._items[entityInBytes]._Validations : _Entities[_providerId]._items[entityInBytes]._Rejections;\r\n\r\n        for(uint i=0; i < Voters.length; i++){\r\n            _Treasury.getRefund(Voters[i], Voters.length);\r\n        }\r\n    }\r\n\r\n    function addCertificate(bytes32 CertificateHash, address holder) external override payable\r\n    {\r\n        _Treasury.pay{value:msg.value}(Library.Prices.NewCertificate);\r\n        addCertificateInternal(CertificateHash, holder);\r\n    }\r\n\r\n    // Callback functions\r\n\r\n    function onItemValidated(bytes32 item, uint256[] calldata ids, bool addOrRemove) public override \r\n    {\r\n        super.onItemValidated(item, ids, addOrRemove);\r\n\r\n        if(ids[0] == _providerId){\r\n            if(addOrRemove)payBack(item, true);\r\n        }\r\n    }\r\n\r\n    function onItemRejected(bytes32 item, uint256[] calldata ids, bool addOrRemove) public override  \r\n    {\r\n        super.onItemRejected(item, ids, addOrRemove);\r\n\r\n        if(ids[0] == _providerId){\r\n            if(addOrRemove)payBack(item, false);\r\n        }\r\n    }\r\n\r\n }",
  "sourcePath": "C:\\Users\\d-aam\\GitHub\\Certificates\\contracts\\DeployedContracts\\PublicCertificatesPool.sol",
  "compiler": {
    "name": "solc",
    "version": "0.8.6+commit.11564f7e.Emscripten.clang"
  },
  "schemaVersion": "3.3.4",
  "updatedAt": "2021-07-30T09:42:46.768Z",
  "devdoc": {
    "kind": "dev",
    "methods": {},
    "version": 1
  },
  "userdoc": {
    "kind": "user",
    "methods": {},
    "version": 1
  }
}