{
  "contractName": "SignatureLibrary",
  "abi": [
    {
      "inputs": [],
      "name": "addCertificateOnBehalfOfTypeHash",
      "outputs": [
        {
          "internalType": "bytes32",
          "name": "",
          "type": "bytes32"
        }
      ],
      "stateMutability": "view",
      "type": "function",
      "constant": true
    },
    {
      "inputs": [],
      "name": "domainTypeHash",
      "outputs": [
        {
          "internalType": "bytes32",
          "name": "",
          "type": "bytes32"
        }
      ],
      "stateMutability": "view",
      "type": "function",
      "constant": true
    },
    {
      "inputs": [],
      "name": "salt",
      "outputs": [
        {
          "internalType": "string",
          "name": "",
          "type": "string"
        }
      ],
      "stateMutability": "view",
      "type": "function",
      "constant": true
    },
    {
      "inputs": [],
      "name": "votingTypeHash",
      "outputs": [
        {
          "internalType": "bytes32",
          "name": "",
          "type": "bytes32"
        }
      ],
      "stateMutability": "view",
      "type": "function",
      "constant": true
    },
    {
      "inputs": [
        {
          "internalType": "address",
          "name": "provider",
          "type": "address"
        },
        {
          "internalType": "bytes32",
          "name": "certificateHash",
          "type": "bytes32"
        },
        {
          "internalType": "address",
          "name": "holder",
          "type": "address"
        },
        {
          "internalType": "uint256",
          "name": "nonce",
          "type": "uint256"
        },
        {
          "internalType": "uint256",
          "name": "deadline",
          "type": "uint256"
        },
        {
          "internalType": "bytes",
          "name": "signature",
          "type": "bytes"
        },
        {
          "internalType": "string",
          "name": "ContractName",
          "type": "string"
        },
        {
          "internalType": "string",
          "name": "ContractVersion",
          "type": "string"
        }
      ],
      "name": "verifyAddCertificate",
      "outputs": [
        {
          "internalType": "bool",
          "name": "",
          "type": "bool"
        }
      ],
      "stateMutability": "view",
      "type": "function",
      "constant": true
    },
    {
      "inputs": [
        {
          "internalType": "address",
          "name": "provider",
          "type": "address"
        },
        {
          "internalType": "bytes32",
          "name": "certificateHash",
          "type": "bytes32"
        },
        {
          "internalType": "address",
          "name": "holder",
          "type": "address"
        },
        {
          "internalType": "uint256",
          "name": "nonce",
          "type": "uint256"
        },
        {
          "internalType": "uint256",
          "name": "deadline",
          "type": "uint256"
        }
      ],
      "name": "getMessageHashAddCertificate",
      "outputs": [
        {
          "internalType": "bytes32",
          "name": "",
          "type": "bytes32"
        }
      ],
      "stateMutability": "pure",
      "type": "function",
      "constant": true
    },
    {
      "inputs": [
        {
          "internalType": "address",
          "name": "voter",
          "type": "address"
        },
        {
          "internalType": "uint256",
          "name": "propID",
          "type": "uint256"
        },
        {
          "internalType": "bool",
          "name": "vote",
          "type": "bool"
        },
        {
          "internalType": "uint256",
          "name": "nonce",
          "type": "uint256"
        },
        {
          "internalType": "uint256",
          "name": "deadline",
          "type": "uint256"
        },
        {
          "internalType": "bytes",
          "name": "signature",
          "type": "bytes"
        },
        {
          "internalType": "string",
          "name": "ContractName",
          "type": "string"
        },
        {
          "internalType": "string",
          "name": "ContractVersion",
          "type": "string"
        }
      ],
      "name": "verifyVoting",
      "outputs": [
        {
          "internalType": "bool",
          "name": "",
          "type": "bool"
        }
      ],
      "stateMutability": "view",
      "type": "function",
      "constant": true
    },
    {
      "inputs": [
        {
          "internalType": "address",
          "name": "voter",
          "type": "address"
        },
        {
          "internalType": "uint256",
          "name": "propID",
          "type": "uint256"
        },
        {
          "internalType": "bool",
          "name": "vote",
          "type": "bool"
        },
        {
          "internalType": "uint256",
          "name": "nonce",
          "type": "uint256"
        },
        {
          "internalType": "uint256",
          "name": "deadline",
          "type": "uint256"
        }
      ],
      "name": "getMessageHashVoting",
      "outputs": [
        {
          "internalType": "bytes32",
          "name": "",
          "type": "bytes32"
        }
      ],
      "stateMutability": "pure",
      "type": "function",
      "constant": true
    },
    {
      "inputs": [
        {
          "internalType": "string",
          "name": "ContractName",
          "type": "string"
        },
        {
          "internalType": "string",
          "name": "ContractVersion",
          "type": "string"
        }
      ],
      "name": "getDomainHash",
      "outputs": [
        {
          "internalType": "bytes32",
          "name": "",
          "type": "bytes32"
        }
      ],
      "stateMutability": "view",
      "type": "function",
      "constant": true
    },
    {
      "inputs": [
        {
          "internalType": "bytes32",
          "name": "_prefixedHash",
          "type": "bytes32"
        },
        {
          "internalType": "bytes",
          "name": "_signature",
          "type": "bytes"
        }
      ],
      "name": "recoverSigner",
      "outputs": [
        {
          "internalType": "address",
          "name": "",
          "type": "address"
        }
      ],
      "stateMutability": "pure",
      "type": "function",
      "constant": true
    },
    {
      "inputs": [
        {
          "internalType": "bytes",
          "name": "sig",
          "type": "bytes"
        }
      ],
      "name": "splitSignature",
      "outputs": [
        {
          "internalType": "bytes32",
          "name": "r",
          "type": "bytes32"
        },
        {
          "internalType": "bytes32",
          "name": "s",
          "type": "bytes32"
        },
        {
          "internalType": "uint8",
          "name": "v",
          "type": "uint8"
        }
      ],
      "stateMutability": "pure",
      "type": "function",
      "constant": true
    }
  ],
  "bytecode": "0x61091261003a600b82828239805160001a60731461002d57634e487b7160e01b600052600060045260246000fd5b30600052607381538281f3fe73000000000000000000000000000000000000000030146080604052600436106100a35760003560e01c806313844f78146100a857806319934d23146100ce5780633f0856fd146100e35780635612eed71461010657806396c8ff181461011957806397995ecb1461012e57806397aba7f914610143578063a7bb58031461016e578063bfa0b1331461019f578063c1bc5c3f146101cd578063f2562f7e146101e0575b600080fd5b6100bb6100b636600461057c565b6101f3565b6040519081526020015b60405180910390f35b6100bb60008051602061087d83398151915281565b6100f66100f13660046106c6565b610262565b60405190151581526020016100c5565b6100bb610114366004610690565b61028f565b6100bb60008051602061089d83398151915281565b6100bb6000805160206108bd83398151915281565b610156610151366004610701565b6102e0565b6040516001600160a01b0390911681526020016100c5565b61018161017c366004610747565b61035f565b60408051938452602084019290925260ff16908201526060016100c5565b6101c060405180604001604052806002815260200161190160f01b81525081565b6040516100c59190610803565b6100f66101db3660046105ca565b6103d2565b6100bb6101ee366004610783565b6103e2565b6040805160008051602061089d83398151915260208201526001600160a01b038088169282019290925260608101869052908416608082015260a0810183905260c0810182905260009060e0015b60405160208183030381529060405280519060200120905095945050505050565b6000806102728a8a8a8a8a61028f565b90506102818a82878787610442565b9a9950505050505050505050565b6040805160008051602061087d83398151915260208201526001600160a01b0387169181019190915260608101859052831515608082015260a0810183905260c0810182905260009060e001610241565b6000806000806102ef8561035f565b6040805160008152602081018083528b905260ff8316918101919091526060810184905260808101839052929550909350915060019060a0016020604051602081039080840390855afa15801561034a573d6000803e3d6000fd5b5050604051601f190151979650505050505050565b600080600083516041146103b45760405162461bcd60e51b81526020600482015260186024820152770d2dcecc2d8d2c840e6d2cedcc2e8eae4ca40d8cadccee8d60431b604482015260640160405180910390fd5b50505060208101516040820151606090920151909260009190911a90565b6000806102728a8a8a8a8a6101f3565b8151602092830120815191830191909120604080516000805160206108bd833981519152818601528082019390935260608301919091524660808301523060a0808401919091528151808403909101815260c09092019052805191012090565b60008061044f84846103e2565b9050600060405180604001604052806002815260200161190160f01b8152508288604051602001610482939291906107dc565b604051602081830303815290604052805190602001209050876001600160a01b03166104ae82886102e0565b6001600160a01b03161498975050505050505050565b80356001600160a01b03811681146104db57600080fd5b919050565b803580151581146104db57600080fd5b600082601f83011261050157600080fd5b81356001600160401b038082111561051b5761051b610866565b604051601f8301601f19908116603f0116810190828211818310171561054357610543610866565b8160405283815286602085880101111561055c57600080fd5b836020870160208301376000602085830101528094505050505092915050565b600080600080600060a0868803121561059457600080fd5b61059d866104c4565b9450602086013593506105b2604087016104c4565b94979396509394606081013594506080013592915050565b600080600080600080600080610100898b0312156105e757600080fd5b6105f0896104c4565b97506020890135965061060560408a016104c4565b9550606089013594506080890135935060a08901356001600160401b038082111561062f57600080fd5b61063b8c838d016104f0565b945060c08b013591508082111561065157600080fd5b61065d8c838d016104f0565b935060e08b013591508082111561067357600080fd5b506106808b828c016104f0565b9150509295985092959890939650565b600080600080600060a086880312156106a857600080fd5b6106b1866104c4565b9450602086013593506105b2604087016104e0565b600080600080600080600080610100898b0312156106e357600080fd5b6106ec896104c4565b97506020890135965061060560408a016104e0565b6000806040838503121561071457600080fd5b8235915060208301356001600160401b0381111561073157600080fd5b61073d858286016104f0565b9150509250929050565b60006020828403121561075957600080fd5b81356001600160401b0381111561076f57600080fd5b61077b848285016104f0565b949350505050565b6000806040838503121561079657600080fd5b82356001600160401b03808211156107ad57600080fd5b6107b9868387016104f0565b935060208501359150808211156107cf57600080fd5b5061073d858286016104f0565b600084516107ee818460208901610836565b91909101928352506020820152604001919050565b6020815260008251806020840152610822816040850160208701610836565b601f01601f19169190910160400192915050565b60005b83811015610851578181015183820152602001610839565b83811115610860576000848401525b50505050565b634e487b7160e01b600052604160045260246000fdfecbb4eaa15da5b869c7ba9adf394680aae50f5296cb3bb9395d7eb8fe8e37902f972e65b3d991ac0e9fb89faf6ec83fd88c06774cd803e13dfabd37e34f388c4c8b73c3c69bb8fe3d512ecc4cf759cc79239f7b179b0ffacaa9a75d522b39400fa2646970667358221220186287428ca504ea2d0bb48c4556757e32a7b4708eef5d5bb468fcbf4abc07bd64736f6c63430008070033",
  "immutableReferences": {},
  "source": "// SPDX-License-Identifier: GPL-3.0\r\n\r\npragma solidity 0.8.7;\r\n\r\n/**\r\n signature verification common functionality\r\n */\r\n\r\nlibrary SignatureLibrary{\r\n\r\n    // DATA /////////////////////////////////////////\r\n    bytes32 public constant domainTypeHash = keccak256(\"EIP712Domain(string name,string version,uint256 chainId,address verifyingContract)\");\r\n    bytes32 public constant addCertificateOnBehalfOfTypeHash = keccak256(\"addCertificateOnBehalfOf(address provider,bytes32 certificateHash,address holder,uint256 nonce,uint256 deadline)\");\r\n    bytes32 public constant votingTypeHash = keccak256(\"voting(address voter,uint256 propID,bool vote,uint256 nonce,uint256 deadline)\");\r\n    string public constant salt = '\\x19\\x01';\r\n\r\n\r\n    // ADD CERTIFICATES FUNCTIONALITY /////////////////////////////////////////////////////////////\r\n    function verifyAddCertificate(address provider, bytes32 certificateHash, address holder, uint nonce, uint256 deadline, bytes memory signature, string memory ContractName, string memory ContractVersion) public view returns (bool) \r\n    {\r\n        bytes32 functionHash = getMessageHashAddCertificate(provider, certificateHash, holder, nonce, deadline);\r\n        return verify(provider, functionHash, signature, ContractName, ContractVersion);\r\n    }\r\n\r\n    function getMessageHashAddCertificate(address provider, bytes32 certificateHash, address holder, uint nonce, uint256 deadline) public pure returns (bytes32) \r\n    {\r\n        return keccak256(\r\n                abi.encode(\r\n                    addCertificateOnBehalfOfTypeHash,\r\n                    provider,\r\n                    certificateHash,\r\n                    holder,\r\n                    nonce,\r\n                    deadline\r\n            ));\r\n    }\r\n\r\n    // VOTING FUNCTIONALITY /////////////////////////////////////////////////////////////\r\n    function verifyVoting(address voter, uint256 propID, bool vote, uint nonce, uint256 deadline, bytes memory signature, string memory ContractName, string memory ContractVersion) public view returns (bool) \r\n    {\r\n        bytes32 functionHash = getMessageHashVoting(voter, propID, vote, nonce, deadline);\r\n        return verify(voter, functionHash, signature, ContractName, ContractVersion);\r\n    }\r\n\r\n    function getMessageHashVoting(address voter, uint256 propID, bool vote, uint nonce, uint256 deadline) public pure returns (bytes32) \r\n    {\r\n        return keccak256(\r\n             abi.encode(\r\n                votingTypeHash,\r\n                voter,\r\n                propID,\r\n                vote,\r\n                nonce,\r\n                deadline\r\n            ));\r\n    }\r\n\r\n    // COMMON FUNCTIONALITY /////////////////////////////////////////////////////////////\r\n    function verify(address signer, bytes32 _functionHash, bytes memory signature, string memory ContractName, string memory ContractVersion) internal view returns (bool) \r\n    {\r\n        bytes32 domainHash = getDomainHash(ContractName, ContractVersion);\r\n        bytes32 prefixedHash = keccak256(abi.encodePacked(salt, domainHash, _functionHash));\r\n        return (recoverSigner(prefixedHash, signature) == signer);\r\n    }\r\n\r\n    function getDomainHash(string memory ContractName, string memory ContractVersion) public view returns(bytes32)\r\n    {\r\n        return keccak256(\r\n            abi.encode(\r\n                domainTypeHash,\r\n                keccak256(bytes(ContractName)),\r\n                keccak256(bytes(ContractVersion)),\r\n                block.chainid,\r\n                address(this)\r\n        ));\r\n      \r\n    }\r\n\r\n    function recoverSigner(bytes32 _prefixedHash, bytes memory _signature) public pure returns (address)\r\n    {\r\n        (bytes32 r, bytes32 s, uint8 v) = splitSignature(_signature);\r\n        return ecrecover(_prefixedHash, v, r, s);\r\n    }\r\n\r\n    function splitSignature(bytes memory sig) public pure returns (bytes32 r, bytes32 s, uint8 v)\r\n    {\r\n        require(sig.length == 65, \"invalid signature length\");\r\n        assembly {\r\n            // first 32 bytes, after the length prefix which are 32 bytes long too\r\n            r := mload(add(sig, 32))\r\n            // second 32 bytes\r\n            s := mload(add(sig, 64))\r\n            // final byte (first byte of the next 32 bytes)\r\n            v := byte(0, mload(add(sig, 96)))\r\n        }\r\n        // implicitly return (r, s, v)\r\n    }\r\n}",
  "sourcePath": "C:/Users/d-aam/GitHub/Certificates/contracts/Libraries/SignatureLibrary.sol",
  "compiler": {
    "name": "solc",
    "version": "0.8.7+commit.e28d00a7.Emscripten.clang"
  },
  "schemaVersion": "3.3.4",
  "updatedAt": "2021-10-14T12:39:50.771Z",
  "networkType": "ethereum",
  "devdoc": {
    "kind": "dev",
    "methods": {},
    "version": 1
  },
  "userdoc": {
    "kind": "user",
    "methods": {},
    "notice": "signature verification common functionality",
    "version": 1
  }
}