{
  "contractName": "SignatureBaseContract",
  "abi": [
    {
      "inputs": [],
      "name": "retrieveContractConfig",
      "outputs": [
        {
          "internalType": "string",
          "name": "",
          "type": "string"
        },
        {
          "internalType": "string",
          "name": "",
          "type": "string"
        }
      ],
      "stateMutability": "view",
      "type": "function"
    },
    {
      "inputs": [
        {
          "internalType": "address",
          "name": "addr",
          "type": "address"
        },
        {
          "internalType": "uint256",
          "name": "nonce",
          "type": "uint256"
        }
      ],
      "name": "retrieveNonce",
      "outputs": [
        {
          "internalType": "bool",
          "name": "",
          "type": "bool"
        }
      ],
      "stateMutability": "view",
      "type": "function"
    }
  ],
  "bytecode": "0x608060405234801561001057600080fd5b506102ea806100206000396000f3fe608060405234801561001057600080fd5b50600436106100365760003560e01c80633feca4ca1461003b578063d2116a0214610089575b600080fd5b6100746100493660046101c6565b6001600160a01b03919091166000908152600260209081526040808320938352929052205460ff1690565b60405190151581526020015b60405180910390f35b61009161009f565b60405161008092919061024b565b606080600060018180546100b290610279565b80601f01602080910402602001604051908101604052809291908181526020018280546100de90610279565b801561012b5780601f106101005761010080835404028352916020019161012b565b820191906000526020600020905b81548152906001019060200180831161010e57829003601f168201915b5050505050915080805461013e90610279565b80601f016020809104026020016040519081016040528092919081815260200182805461016a90610279565b80156101b75780601f1061018c576101008083540402835291602001916101b7565b820191906000526020600020905b81548152906001019060200180831161019a57829003601f168201915b50505050509050915091509091565b600080604083850312156101d957600080fd5b82356001600160a01b03811681146101f057600080fd5b946020939093013593505050565b6000815180845260005b8181101561022457602081850181015186830182015201610208565b81811115610236576000602083870101525b50601f01601f19169290920160200192915050565b60408152600061025e60408301856101fe565b828103602084015261027081856101fe565b95945050505050565b600181811c9082168061028d57607f821691505b602082108114156102ae57634e487b7160e01b600052602260045260246000fd5b5091905056fea2646970667358221220f0e46b5c5a0fac099fbf085d698f8e34d08eaa23d13d06f3fcfe599eb9c22a9964736f6c63430008070033",
  "immutableReferences": {},
  "source": "// SPDX-License-Identifier: GPL-3.0\r\n\r\npragma solidity 0.8.7;\r\n\r\n/*\r\n  Signature Base Contract contains the basic common functionality to contracts that accept EIP712 signature\r\n */\r\nimport \"../Interfaces/ISignatureBaseContract.sol\";\r\n\r\ncontract SignatureBaseContract is ISignatureBaseContract{\r\n\r\n    // DATA /////////////////////////////////////////\r\n    string internal _ContractName;\r\n    string internal _ContractVersion;\r\n\r\n    mapping(address => mapping(uint256 => bool)) internal nonces;\r\n\r\n    // MODIFIERS /////////////////////////////////////////\r\n    modifier isDeadlineOK(uint256 deadline){\r\n        isDeadlineOKFunc(deadline);\r\n        _;\r\n    }\r\n\r\n    function isDeadlineOKFunc(uint256 deadline) internal view {\r\n        require(block.timestamp < deadline, \"EC33-\");\r\n    }\r\n\r\n    modifier isNonceOK(address addr, uint256 nonce){\r\n        isNonceOKFunc(addr, nonce);\r\n        _;\r\n    }\r\n\r\n    function isNonceOKFunc(address addr, uint256 nonce) internal view {\r\n        require(false == nonces[addr][nonce], \"EC34-\");\r\n    }\r\n\r\n    // FUNCTIONALITY /////////////////////////////////////////\r\n    function validateNonce(address addr, uint256 nonce) internal \r\n    {\r\n        nonces[addr][nonce] = true;\r\n    }\r\n\r\n    function setContractConfig(string memory contractName, string memory contractVersion) internal\r\n    {\r\n        _ContractName = contractName;\r\n        _ContractVersion = contractVersion;\r\n    }\r\n\r\n    function retrieveContractConfig() external override view returns(string memory, string memory)\r\n    {\r\n        return(_ContractName, _ContractVersion);\r\n    }\r\n\r\n    function retrieveNonce(address addr, uint256 nonce) external override view returns(bool)\r\n    {\r\n        return nonces[addr][nonce];\r\n    } \r\n\r\n}",
  "sourcePath": "C:\\Users\\d-aam\\GitHub\\Certificates\\contracts\\Base\\SignatureBaseContract.sol",
  "compiler": {
    "name": "solc",
    "version": "0.8.7+commit.e28d00a7.Emscripten.clang"
  },
  "schemaVersion": "3.3.4",
  "updatedAt": "2021-10-28T12:31:27.914Z",
  "devdoc": {
    "kind": "dev",
    "methods": {},
    "version": 1
  },
  "userdoc": {
    "kind": "user",
    "methods": {},
    "version": 1
  }
}