{
  "contractName": "SignatureLibrary",
  "abi": [
    {
      "inputs": [],
      "name": "addCertificateOnBehalfOfTypeHash",
      "outputs": [
        {
          "internalType": "bytes32",
          "name": "",
          "type": "bytes32"
        }
      ],
      "stateMutability": "view",
      "type": "function",
      "constant": true
    },
    {
      "inputs": [],
      "name": "domainTypeHash",
      "outputs": [
        {
          "internalType": "bytes32",
          "name": "",
          "type": "bytes32"
        }
      ],
      "stateMutability": "view",
      "type": "function",
      "constant": true
    },
    {
      "inputs": [],
      "name": "votingTypeHash",
      "outputs": [
        {
          "internalType": "bytes32",
          "name": "",
          "type": "bytes32"
        }
      ],
      "stateMutability": "view",
      "type": "function",
      "constant": true
    },
    {
      "inputs": [
        {
          "internalType": "address",
          "name": "provider",
          "type": "address"
        },
        {
          "internalType": "bytes32",
          "name": "certificateHash",
          "type": "bytes32"
        },
        {
          "internalType": "address",
          "name": "holder",
          "type": "address"
        },
        {
          "internalType": "uint256",
          "name": "nonce",
          "type": "uint256"
        },
        {
          "internalType": "uint256",
          "name": "deadline",
          "type": "uint256"
        },
        {
          "internalType": "bytes",
          "name": "signature",
          "type": "bytes"
        },
        {
          "internalType": "string",
          "name": "ContractName",
          "type": "string"
        },
        {
          "internalType": "string",
          "name": "ContractVersion",
          "type": "string"
        }
      ],
      "name": "verifyAddCertificate",
      "outputs": [
        {
          "internalType": "bool",
          "name": "",
          "type": "bool"
        }
      ],
      "stateMutability": "view",
      "type": "function",
      "constant": true
    },
    {
      "inputs": [
        {
          "internalType": "address",
          "name": "provider",
          "type": "address"
        },
        {
          "internalType": "bytes32",
          "name": "certificateHash",
          "type": "bytes32"
        },
        {
          "internalType": "address",
          "name": "holder",
          "type": "address"
        },
        {
          "internalType": "uint256",
          "name": "nonce",
          "type": "uint256"
        },
        {
          "internalType": "uint256",
          "name": "deadline",
          "type": "uint256"
        }
      ],
      "name": "getMessageHashAddCertificate",
      "outputs": [
        {
          "internalType": "bytes32",
          "name": "",
          "type": "bytes32"
        }
      ],
      "stateMutability": "pure",
      "type": "function",
      "constant": true
    },
    {
      "inputs": [
        {
          "internalType": "string",
          "name": "ContractName",
          "type": "string"
        },
        {
          "internalType": "string",
          "name": "ContractVersion",
          "type": "string"
        }
      ],
      "name": "getDomainHash",
      "outputs": [
        {
          "internalType": "bytes32",
          "name": "",
          "type": "bytes32"
        }
      ],
      "stateMutability": "view",
      "type": "function",
      "constant": true
    },
    {
      "inputs": [
        {
          "internalType": "bytes32",
          "name": "_prefixedHash",
          "type": "bytes32"
        },
        {
          "internalType": "bytes",
          "name": "_signature",
          "type": "bytes"
        }
      ],
      "name": "recoverSigner",
      "outputs": [
        {
          "internalType": "address",
          "name": "",
          "type": "address"
        }
      ],
      "stateMutability": "pure",
      "type": "function",
      "constant": true
    },
    {
      "inputs": [
        {
          "internalType": "bytes",
          "name": "sig",
          "type": "bytes"
        }
      ],
      "name": "splitSignature",
      "outputs": [
        {
          "internalType": "bytes32",
          "name": "r",
          "type": "bytes32"
        },
        {
          "internalType": "bytes32",
          "name": "s",
          "type": "bytes32"
        },
        {
          "internalType": "uint8",
          "name": "v",
          "type": "uint8"
        }
      ],
      "stateMutability": "pure",
      "type": "function",
      "constant": true
    }
  ],
  "bytecode": "0x61070b61003a600b82828239805160001a60731461002d57634e487b7160e01b600052600060045260246000fd5b30600052607381538281f3fe73000000000000000000000000000000000000000030146080604052600436106100825760003560e01c806313844f781461008757806319934d23146100ad57806396c8ff18146100d457806397995ecb146100e957806397aba7f9146100fe578063a7bb580314610129578063c1bc5c3f1461015a578063f2562f7e1461017d575b600080fd5b61009a610095366004610490565b610190565b6040519081526020015b60405180910390f35b61009a7f43c3888d5f41914aa08de89ab7727b5719f5af9e10d7f39ca6a425c55d83a95a81565b61009a60008051602061069683398151915281565b61009a6000805160206106b683398151915281565b61011161010c3660046105a4565b6101f7565b6040516001600160a01b0390911681526020016100a4565b61013c6101373660046105ea565b610276565b60408051938452602084019290925260ff16908201526060016100a4565b61016d6101683660046104de565b6102e9565b60405190151581526020016100a4565b61009a61018b366004610626565b610324565b604080516000805160206106968339815191526020808301919091526001600160a01b0397881682840152606082019690965293909516608084015260a083019190915260c0808301919091528351808303909101815260e0909101909252815191012090565b60008060008061020685610276565b6040805160008152602081018083528b905260ff8316918101919091526060810184905260808101839052929550909350915060019060a0016020604051602081039080840390855afa158015610261573d6000803e3d6000fd5b5050604051601f190151979650505050505050565b600080600083516041146102cb5760405162461bcd60e51b81526020600482015260186024820152770d2dcecc2d8d2c840e6d2cedcc2e8eae4ca40d8cadccee8d60431b604482015260640160405180910390fd5b50505060208101516040820151606090920151909260009190911a90565b6000806102f68484610324565b905060006103078b8b8b8b8b610190565b90506103158b838389610384565b9b9a5050505050505050505050565b8151602092830120815191830191909120604080516000805160206106b6833981519152818601528082019390935260608301919091524660808301523060a0808401919091528151808403909101815260c09092019052805191012090565b60405161190160f01b602082015260228101849052604281018390526000908190606201604051602081830303815290604052805190602001209050856001600160a01b03166103d482856101f7565b6001600160a01b0316149695505050505050565b80356001600160a01b03811681146103ff57600080fd5b919050565b600082601f83011261041557600080fd5b81356001600160401b038082111561042f5761042f61067f565b604051601f8301601f19908116603f011681019082821181831017156104575761045761067f565b8160405283815286602085880101111561047057600080fd5b836020870160208301376000602085830101528094505050505092915050565b600080600080600060a086880312156104a857600080fd5b6104b1866103e8565b9450602086013593506104c6604087016103e8565b94979396509394606081013594506080013592915050565b600080600080600080600080610100898b0312156104fb57600080fd5b610504896103e8565b97506020890135965061051960408a016103e8565b9550606089013594506080890135935060a08901356001600160401b038082111561054357600080fd5b61054f8c838d01610404565b945060c08b013591508082111561056557600080fd5b6105718c838d01610404565b935060e08b013591508082111561058757600080fd5b506105948b828c01610404565b9150509295985092959890939650565b600080604083850312156105b757600080fd5b8235915060208301356001600160401b038111156105d457600080fd5b6105e085828601610404565b9150509250929050565b6000602082840312156105fc57600080fd5b81356001600160401b0381111561061257600080fd5b61061e84828501610404565b949350505050565b6000806040838503121561063957600080fd5b82356001600160401b038082111561065057600080fd5b61065c86838701610404565b9350602085013591508082111561067257600080fd5b506105e085828601610404565b634e487b7160e01b600052604160045260246000fdfe972e65b3d991ac0e9fb89faf6ec83fd88c06774cd803e13dfabd37e34f388c4c8b73c3c69bb8fe3d512ecc4cf759cc79239f7b179b0ffacaa9a75d522b39400fa26469706673582212202382b8889ff8297a18112a7fddf349f87493c37865c956c83f55e8e37503d73764736f6c63430008070033",
  "immutableReferences": {},
  "source": "// SPDX-License-Identifier: GPL-3.0\r\n\r\npragma solidity 0.8.7;\r\n\r\n/**\r\n signature verification common functionality\r\n */\r\n\r\nlibrary SignatureLibrary{\r\n\r\n    // DATA /////////////////////////////////////////\r\n    //string private constant domain = \"EIP712Domain(string name,string version,uint256 chainId,address verifyingContract)\";\r\n    bytes32 public constant domainTypeHash = keccak256(\"EIP712Domain(string name,string version,uint256 chainId,address verifyingContract)\");\r\n    //string private constant addCertificateOnBehalfOfType = \"addCertificateOnBehalfOf(address provider,bytes32 certificateHash,address holder,uint256 nonce,uint256 deadline)\";\r\n    bytes32 public constant addCertificateOnBehalfOfTypeHash = keccak256(\"addCertificateOnBehalfOf(address provider,bytes32 certificateHash,address holder,uint256 nonce,uint256 deadline)\");\r\n    //string private constant votingType = \"voting(address voter,uint256 nonce,uint256 deadline)\";\r\n    bytes32 public constant votingTypeHash = keccak256(\"voting(address voter,uint256 nonce,uint256 deadline)\");\r\n\r\n\r\n    // ADD CERTIFICATES FUNCTIONALITY /////////////////////////////////////////////////////////////\r\n    function verifyAddCertificate(address provider, bytes32 certificateHash, address holder, uint nonce, uint256 deadline, bytes memory signature, string memory ContractName, string memory ContractVersion) public view returns (bool) \r\n    {\r\n        bytes32 domainHash = getDomainHash(ContractName, ContractVersion);\r\n        bytes32 functionHash = getMessageHashAddCertificate(provider, certificateHash, holder, nonce, deadline);\r\n        return verify(provider, domainHash, functionHash, signature);\r\n    }\r\n\r\n    function getMessageHashAddCertificate(address provider, bytes32 certificateHash, address holder, uint nonce, uint256 deadline) public pure returns (bytes32) \r\n    {\r\n        // first we create the part of the hash related to the contract name, version, network (prod, test, ...) and address\r\n        //bytes32 eip712DomainHash = getDomainHash(ContractName, ContractVersion);\r\n\r\n        // then we create the part of the hash related to the function and parameters and we combine them both\r\n        return keccak256(\r\n                abi.encode(\r\n                    addCertificateOnBehalfOfTypeHash,\r\n                    provider,\r\n                    certificateHash,\r\n                    holder,\r\n                    nonce,\r\n                    deadline\r\n            ));\r\n\r\n        //return (hashStruct);\r\n    }\r\n\r\n    // VOTING FUNCTIONALITY /////////////////////////////////////////////////////////////\r\n    /*function verifyVoting(address voter, uint nonce, uint256 deadline, bytes memory signature, string memory ContractName, string memory ContractVersion) public view returns (bool) \r\n    {\r\n        bytes32 functionHash = getMessageHashVoting(voter, nonce, deadline, ContractName, ContractVersion);\r\n        return verify(voter, functionHash, signature);\r\n    }\r\n\r\n    function getMessageHashVoting(address voter, uint nonce, uint256 deadline, string memory ContractName, string memory ContractVersion) public view returns (bytes32) {\r\n        // first we create the part of the hash related to the contract name, version, network (prod, test, ...) and address\r\n        bytes32 eip712DomainHash = getDomainHash(ContractName, ContractVersion);\r\n\r\n        // then we create the part of the hash related to the function and parameters and we combine them both\r\n        bytes32 hashStruct = keccak256(\r\n             abi.encodePacked(\r\n                \"\\x19\\x01\",\r\n                eip712DomainHash,\r\n                keccak256(abi.encodePacked(\r\n                        votingTypeHash,\r\n                        voter,\r\n                        nonce,\r\n                        deadline\r\n                    ))\r\n            ));\r\n\r\n        return (hashStruct);\r\n    }*/\r\n\r\n    // COMMON FUNCTIONALITY /////////////////////////////////////////////////////////////\r\n    function verify(address signer, bytes32 _domainHash, bytes32 _functionHash, bytes memory signature) internal pure returns (bool) \r\n    {\r\n        bytes32 prefixedHash = keccak256(abi.encodePacked('\\x19\\x01', _domainHash, _functionHash));\r\n        return (recoverSigner(prefixedHash, signature) == signer);\r\n    }\r\n\r\n    function getDomainHash(string memory ContractName, string memory ContractVersion) public view returns(bytes32)\r\n    {\r\n        return keccak256(\r\n            abi.encode(\r\n                domainTypeHash,\r\n                keccak256(bytes(ContractName)),\r\n                keccak256(bytes(ContractVersion)),\r\n                block.chainid,\r\n                address(this)\r\n        ));\r\n      \r\n    }\r\n\r\n    function recoverSigner(bytes32 _prefixedHash, bytes memory _signature) public pure returns (address)\r\n    {\r\n        (bytes32 r, bytes32 s, uint8 v) = splitSignature(_signature);\r\n        //bytes memory prefix = \"\\x19Ethereum Signed Message:\\n32\";\r\n        //bytes32 prefixedHash = keccak256(abi.encodePacked('\\x19\\x01', _domainHash, _functionHash));\r\n        return ecrecover(_prefixedHash, v, r, s);\r\n    }\r\n\r\n    function splitSignature(bytes memory sig) public pure returns (bytes32 r, bytes32 s, uint8 v)\r\n    {\r\n        require(sig.length == 65, \"invalid signature length\");\r\n        assembly {\r\n            // first 32 bytes, after the length prefix which are 32 bytes long too\r\n            r := mload(add(sig, 32))\r\n            // second 32 bytes\r\n            s := mload(add(sig, 64))\r\n            // final byte (first byte of the next 32 bytes)\r\n            v := byte(0, mload(add(sig, 96)))\r\n        }\r\n        // implicitly return (r, s, v)\r\n    }\r\n}",
  "sourcePath": "C:/Users/d-aam/GitHub/Certificates/contracts/Libraries/SignatureLibrary.sol",
  "compiler": {
    "name": "solc",
    "version": "0.8.7+commit.e28d00a7.Emscripten.clang"
  },
  "schemaVersion": "3.3.4",
  "updatedAt": "2021-10-06T08:02:33.937Z",
  "networkType": "ethereum",
  "devdoc": {
    "kind": "dev",
    "methods": {},
    "version": 1
  },
  "userdoc": {
    "kind": "user",
    "methods": {},
    "notice": "signature verification common functionality",
    "version": 1
  }
}