{
  "contractName": "SignatureLibrary",
  "abi": [
    {
      "inputs": [],
      "name": "addCertificateOnBehalfOfTypeHash",
      "outputs": [
        {
          "internalType": "bytes32",
          "name": "",
          "type": "bytes32"
        }
      ],
      "stateMutability": "view",
      "type": "function"
    },
    {
      "inputs": [],
      "name": "domainTypeHash",
      "outputs": [
        {
          "internalType": "bytes32",
          "name": "",
          "type": "bytes32"
        }
      ],
      "stateMutability": "view",
      "type": "function"
    },
    {
      "inputs": [],
      "name": "votingTypeHash",
      "outputs": [
        {
          "internalType": "bytes32",
          "name": "",
          "type": "bytes32"
        }
      ],
      "stateMutability": "view",
      "type": "function"
    },
    {
      "inputs": [
        {
          "internalType": "address",
          "name": "provider",
          "type": "address"
        },
        {
          "internalType": "bytes32",
          "name": "certificateHash",
          "type": "bytes32"
        },
        {
          "internalType": "address",
          "name": "holder",
          "type": "address"
        },
        {
          "internalType": "uint256",
          "name": "nonce",
          "type": "uint256"
        },
        {
          "internalType": "uint256",
          "name": "deadline",
          "type": "uint256"
        },
        {
          "internalType": "bytes",
          "name": "signature",
          "type": "bytes"
        },
        {
          "internalType": "string",
          "name": "ContractName",
          "type": "string"
        },
        {
          "internalType": "string",
          "name": "ContractVersion",
          "type": "string"
        }
      ],
      "name": "verifyAddCertificate",
      "outputs": [
        {
          "internalType": "bool",
          "name": "",
          "type": "bool"
        }
      ],
      "stateMutability": "view",
      "type": "function"
    },
    {
      "inputs": [
        {
          "internalType": "address",
          "name": "provider",
          "type": "address"
        },
        {
          "internalType": "bytes32",
          "name": "certificateHash",
          "type": "bytes32"
        },
        {
          "internalType": "address",
          "name": "holder",
          "type": "address"
        },
        {
          "internalType": "uint256",
          "name": "nonce",
          "type": "uint256"
        },
        {
          "internalType": "uint256",
          "name": "deadline",
          "type": "uint256"
        },
        {
          "internalType": "string",
          "name": "ContractName",
          "type": "string"
        },
        {
          "internalType": "string",
          "name": "ContractVersion",
          "type": "string"
        }
      ],
      "name": "getMessageHashAddCertificate",
      "outputs": [
        {
          "internalType": "bytes32",
          "name": "",
          "type": "bytes32"
        }
      ],
      "stateMutability": "view",
      "type": "function"
    },
    {
      "inputs": [
        {
          "internalType": "address",
          "name": "voter",
          "type": "address"
        },
        {
          "internalType": "uint256",
          "name": "nonce",
          "type": "uint256"
        },
        {
          "internalType": "uint256",
          "name": "deadline",
          "type": "uint256"
        },
        {
          "internalType": "bytes",
          "name": "signature",
          "type": "bytes"
        },
        {
          "internalType": "string",
          "name": "ContractName",
          "type": "string"
        },
        {
          "internalType": "string",
          "name": "ContractVersion",
          "type": "string"
        }
      ],
      "name": "verifyVoting",
      "outputs": [
        {
          "internalType": "bool",
          "name": "",
          "type": "bool"
        }
      ],
      "stateMutability": "view",
      "type": "function"
    },
    {
      "inputs": [
        {
          "internalType": "address",
          "name": "voter",
          "type": "address"
        },
        {
          "internalType": "uint256",
          "name": "nonce",
          "type": "uint256"
        },
        {
          "internalType": "uint256",
          "name": "deadline",
          "type": "uint256"
        },
        {
          "internalType": "string",
          "name": "ContractName",
          "type": "string"
        },
        {
          "internalType": "string",
          "name": "ContractVersion",
          "type": "string"
        }
      ],
      "name": "getMessageHashVoting",
      "outputs": [
        {
          "internalType": "bytes32",
          "name": "",
          "type": "bytes32"
        }
      ],
      "stateMutability": "view",
      "type": "function"
    },
    {
      "inputs": [
        {
          "internalType": "string",
          "name": "ContractName",
          "type": "string"
        },
        {
          "internalType": "string",
          "name": "ContractVersion",
          "type": "string"
        }
      ],
      "name": "getDomainHash",
      "outputs": [
        {
          "internalType": "bytes32",
          "name": "",
          "type": "bytes32"
        }
      ],
      "stateMutability": "view",
      "type": "function"
    },
    {
      "inputs": [
        {
          "internalType": "bytes32",
          "name": "_ethSignedMessageHash",
          "type": "bytes32"
        },
        {
          "internalType": "bytes",
          "name": "_signature",
          "type": "bytes"
        }
      ],
      "name": "recoverSigner",
      "outputs": [
        {
          "internalType": "address",
          "name": "",
          "type": "address"
        }
      ],
      "stateMutability": "pure",
      "type": "function"
    },
    {
      "inputs": [
        {
          "internalType": "bytes",
          "name": "sig",
          "type": "bytes"
        }
      ],
      "name": "splitSignature",
      "outputs": [
        {
          "internalType": "bytes32",
          "name": "r",
          "type": "bytes32"
        },
        {
          "internalType": "bytes32",
          "name": "s",
          "type": "bytes32"
        },
        {
          "internalType": "uint8",
          "name": "v",
          "type": "uint8"
        }
      ],
      "stateMutability": "pure",
      "type": "function"
    }
  ],
  "bytecode": "0x610bac61003a600b82828239805160001a60731461002d57634e487b7160e01b600052600060045260246000fd5b30600052607381538281f3fe73000000000000000000000000000000000000000030146080604052600436106100985760003560e01c806319934d231461009d5780635d643307146100b85780636e2d59ef146100cb57806396c8ff18146100ee57806397995ecb146100f657806397aba7f9146100fe578063a7bb580314610129578063c1bc5c3f1461015a578063d3e2876b1461016d578063f2562f7e14610180575b600080fd5b6100a5610193565b6040519081526020015b60405180910390f35b6100a56100c6366004610767565b6101d5565b6100de6100d9366004610808565b6102a8565b60405190151581526020016100af565b6100a56102d1565b6100a56102fa565b61011161010c366004610939565b610323565b6040516001600160a01b0390911681526020016100af565b61013c61013736600461097f565b6103a2565b60408051938452602084019290925260ff16908201526060016100af565b6100de6101683660046106a1565b610415565b6100a561017b3660046108b2565b610442565b6100a561018e3660046109bb565b610502565b604051806060016040528060348152602001610a81603491396040516020016101bc9190610a14565b6040516020818303038152906040528051906020012081565b6000806101e28484610502565b90506000816040518060a0016040528060708152602001610b07607091396040516020016102109190610a14565b60408051601f198184030181528282528051602091820120818401526001600160601b031960608f811b821685850152605485018f90528d901b166074840152608883018b905260a88084018b90528251808503909101815260c884019092528151910120610282929160e801610a4f565b60408051808303601f1901815291905280516020909101209a9950505050505050505050565b6000806102b88888888787610442565b90506102c58882876105d1565b98975050505050505050565b6040518060a0016040528060708152602001610b07607091396040516020016101bc9190610a14565b604051806080016040528060528152602001610ab5605291396040516020016101bc9190610a14565b600080600080610332856103a2565b6040805160008152602081018083528b905260ff8316918101919091526060810184905260808101839052929550909350915060019060a0016020604051602081039080840390855afa15801561038d573d6000803e3d6000fd5b5050604051601f190151979650505050505050565b600080600083516041146103f75760405162461bcd60e51b81526020600482015260186024820152770d2dcecc2d8d2c840e6d2cedcc2e8eae4ca40d8cadccee8d60431b604482015260640160405180910390fd5b50505060208101516040820151606090920151909260009190911a90565b6000806104278a8a8a8a8a89896101d5565b90506104348a82876105d1565b9a9950505050505050505050565b60008061044f8484610502565b9050600081604051806060016040528060348152602001610a816034913960405160200161047d9190610a14565b60408051808303601f1901815282825280516020918201208184015260608c901b6001600160601b03191683830152605483018b905260748084018b9052825180850390910181526094840190925281519101206104de929160b401610a4f565b60408051808303601f19018152919052805160209091012098975050505050505050565b6000604051806080016040528060528152602001610ab56052913960405160200161052d9190610a14565b60408051808303601f190181528282528051602091820120908301527fbe9f897419deac280c46b47e78b8cc5525ed9430d7e7015a0049bdc370a9caae908201527fe6bbd6277e1bf288eed5e8d1780f9a50b239e86b153736bceebccf4ea79d90b360608083019190915246608083015230901b6001600160601b03191660a082015260b40160405160208183030381529060405280519060200120905092915050565b6000836001600160a01b03166105e78484610323565b6001600160a01b031614949350505050565b80356001600160a01b038116811461061057600080fd5b919050565b600082601f83011261062657600080fd5b81356001600160401b038082111561064057610640610a6a565b604051601f8301601f19908116603f0116810190828211818310171561066857610668610a6a565b8160405283815286602085880101111561068157600080fd5b836020870160208301376000602085830101528094505050505092915050565b600080600080600080600080610100898b0312156106be57600080fd5b6106c7896105f9565b9750602089013596506106dc60408a016105f9565b9550606089013594506080890135935060a08901356001600160401b038082111561070657600080fd5b6107128c838d01610615565b945060c08b013591508082111561072857600080fd5b6107348c838d01610615565b935060e08b013591508082111561074a57600080fd5b506107578b828c01610615565b9150509295985092959890939650565b600080600080600080600060e0888a03121561078257600080fd5b61078b886105f9565b9650602088013595506107a0604089016105f9565b9450606088013593506080880135925060a08801356001600160401b03808211156107ca57600080fd5b6107d68b838c01610615565b935060c08a01359150808211156107ec57600080fd5b506107f98a828b01610615565b91505092959891949750929550565b60008060008060008060c0878903121561082157600080fd5b61082a876105f9565b9550602087013594506040870135935060608701356001600160401b038082111561085457600080fd5b6108608a838b01610615565b9450608089013591508082111561087657600080fd5b6108828a838b01610615565b935060a089013591508082111561089857600080fd5b506108a589828a01610615565b9150509295509295509295565b600080600080600060a086880312156108ca57600080fd5b6108d3866105f9565b9450602086013593506040860135925060608601356001600160401b03808211156108fd57600080fd5b61090989838a01610615565b9350608088013591508082111561091f57600080fd5b5061092c88828901610615565b9150509295509295909350565b6000806040838503121561094c57600080fd5b8235915060208301356001600160401b0381111561096957600080fd5b61097585828601610615565b9150509250929050565b60006020828403121561099157600080fd5b81356001600160401b038111156109a757600080fd5b6109b384828501610615565b949350505050565b600080604083850312156109ce57600080fd5b82356001600160401b03808211156109e557600080fd5b6109f186838701610615565b93506020850135915080821115610a0757600080fd5b5061097585828601610615565b6000825160005b81811015610a355760208186018101518583015201610a1b565b81811115610a44576000828501525b509190910192915050565b61190160f01b81526002810192909252602282015260420190565b634e487b7160e01b600052604160045260246000fdfe766f74696e67286164647265737320766f7465722c75696e74323536206e6f6e63652c75696e7432353620646561646c696e6529454950373132446f6d61696e28737472696e67206e616d652c737472696e672076657273696f6e2c75696e7432353620636861696e49642c6164647265737320766572696679696e67436f6e74726163742961646443657274696669636174654f6e426568616c664f6628616464726573732070726f76696465722c62797465733332206365727469666963617465486173682c6164647265737320686f6c6465722c75696e74323536206e6f6e63652c75696e7432353620646561646c696e6529a2646970667358221220c661c5f144279cb595868aba512e884dc09782bcae89fd45917a9539492d297c64736f6c63430008070033",
  "immutableReferences": {},
  "source": "// SPDX-License-Identifier: GPL-3.0\r\n\r\npragma solidity 0.8.7;\r\n\r\n/**\r\n signature verification common functionality\r\n */\r\n\r\nlibrary SignatureLibrary{\r\n\r\n    // DATA /////////////////////////////////////////\r\n    /*struct EIP712DomainStruct{\r\n        string name;\r\n        string version;\r\n        uint256 chainId,\r\n        address verifyingContract\r\n    }\r\n\r\n    struct addCertificateOnBehalfOfStruct{\r\n        address provider,\r\n        bytes32 CertificateHash,\r\n        address holder,\r\n        uint256 nonce,\r\n        uint256 deadline\r\n    }\r\n\r\n    struct votingStruct{\r\n        address voter,\r\n        uint256 nonce,\r\n        uint256 deadline\r\n    }*/\r\n\r\n    string private constant domain = \"EIP712Domain(string name,string version,uint256 chainId,address verifyingContract)\";\r\n    bytes32 public constant domainTypeHash = keccak256(abi.encodePacked(domain));\r\n    string private constant addCertificateOnBehalfOfType = \"addCertificateOnBehalfOf(address provider,bytes32 certificateHash,address holder,uint256 nonce,uint256 deadline)\";\r\n    bytes32 public constant addCertificateOnBehalfOfTypeHash = keccak256(abi.encodePacked(addCertificateOnBehalfOfType));\r\n    string private constant votingType = \"voting(address voter,uint256 nonce,uint256 deadline)\";\r\n    bytes32 public constant votingTypeHash = keccak256(abi.encodePacked(votingType));\r\n\r\n\r\n    // ADD CERTIFICATES FUNCTIONALITY /////////////////////////////////////////////////////////////\r\n    function verifyAddCertificate(address provider, bytes32 certificateHash, address holder, uint nonce, uint256 deadline, bytes memory signature, string memory ContractName, string memory ContractVersion) public view returns (bool) \r\n    {\r\n        bytes32 functionHash = getMessageHashAddCertificate(provider, certificateHash, holder, nonce, deadline, ContractName, ContractVersion);\r\n        return verify(provider, functionHash, signature);\r\n    }\r\n\r\n    function getMessageHashAddCertificate(address provider, bytes32 certificateHash, address holder, uint nonce, uint256 deadline, string memory ContractName, string memory ContractVersion) public view returns (bytes32) \r\n    {\r\n        // first we create the part of the hash related to the contract name, version, network (prod, test, ...) and address\r\n        bytes32 eip712DomainHash = getDomainHash(ContractName, ContractVersion);\r\n\r\n        // then we create the part of the hash related to the function and parameters and we combine them both\r\n        bytes32 hashStruct = keccak256(\r\n             abi.encodePacked(\r\n                \"\\x19\\x01\",\r\n                eip712DomainHash,\r\n                keccak256(abi.encodePacked(\r\n                        addCertificateOnBehalfOfTypeHash,\r\n                        provider,\r\n                        certificateHash,\r\n                        holder,\r\n                        nonce,\r\n                        deadline\r\n                    ))\r\n            ));\r\n\r\n        return (hashStruct);\r\n    }\r\n\r\n    // VOTING FUNCTIONALITY /////////////////////////////////////////////////////////////\r\n    function verifyVoting(address voter, uint nonce, uint256 deadline, bytes memory signature, string memory ContractName, string memory ContractVersion) public view returns (bool) \r\n    {\r\n        bytes32 functionHash = getMessageHashVoting(voter, nonce, deadline, ContractName, ContractVersion);\r\n        return verify(voter, functionHash, signature);\r\n    }\r\n\r\n    function getMessageHashVoting(address voter, uint nonce, uint256 deadline, string memory ContractName, string memory ContractVersion) public view returns (bytes32) {\r\n        // first we create the part of the hash related to the contract name, version, network (prod, test, ...) and address\r\n        bytes32 eip712DomainHash = getDomainHash(ContractName, ContractVersion);\r\n\r\n        // then we create the part of the hash related to the function and parameters and we combine them both\r\n        bytes32 hashStruct = keccak256(\r\n             abi.encodePacked(\r\n                \"\\x19\\x01\",\r\n                eip712DomainHash,\r\n                keccak256(abi.encodePacked(\r\n                        votingTypeHash,\r\n                        voter,\r\n                        nonce,\r\n                        deadline\r\n                    ))\r\n            ));\r\n\r\n        return (hashStruct);\r\n    }\r\n\r\n    // COMMON FUNCTIONALITY /////////////////////////////////////////////////////////////\r\n    function verify(address signer, bytes32 functionHash, bytes memory signature) internal pure returns (bool) \r\n    {\r\n        return recoverSigner(functionHash, signature) == signer;\r\n    }\r\n\r\n    function getDomainHash(string memory ContractName, string memory ContractVersion) public view returns(bytes32)\r\n    {\r\n        return keccak256(\r\n            abi.encodePacked(\r\n                domainTypeHash,\r\n                //keccak256(bytes(ContractName)),\r\n                //keccak256(bytes(ContractVersion)), // version\r\n                keccak256('Public Certificate Pool'),\r\n                keccak256('1.0'), // version\r\n                block.chainid,\r\n                address(this)\r\n        ));\r\n      \r\n    }\r\n\r\n    function recoverSigner(bytes32 _ethSignedMessageHash, bytes memory _signature) public pure returns (address)\r\n    {\r\n        (bytes32 r, bytes32 s, uint8 v) = splitSignature(_signature);\r\n        return ecrecover(_ethSignedMessageHash, v, r, s);\r\n    }\r\n\r\n    function splitSignature(bytes memory sig) public pure returns (bytes32 r, bytes32 s, uint8 v)\r\n    {\r\n        require(sig.length == 65, \"invalid signature length\");\r\n        assembly {\r\n            // first 32 bytes, after the length prefix which are 32 bytes long too\r\n            r := mload(add(sig, 32))\r\n            // second 32 bytes\r\n            s := mload(add(sig, 64))\r\n            // final byte (first byte of the next 32 bytes)\r\n            v := byte(0, mload(add(sig, 96)))\r\n        }\r\n        // implicitly return (r, s, v)\r\n    }\r\n}",
  "sourcePath": "C:\\Users\\d-aam\\GitHub\\Certificates\\contracts\\Libraries\\SignatureLibrary.sol",
  "compiler": {
    "name": "solc",
    "version": "0.8.7+commit.e28d00a7.Emscripten.clang"
  },
  "schemaVersion": "3.3.4",
  "updatedAt": "2021-10-05T08:27:59.290Z",
  "devdoc": {
    "kind": "dev",
    "methods": {},
    "version": 1
  },
  "userdoc": {
    "kind": "user",
    "methods": {},
    "notice": "signature verification common functionality",
    "version": 1
  }
}