{
  "contractName": "TokenGovernanceBaseContract",
  "abi": [
    {
      "inputs": [
        {
          "internalType": "bool",
          "name": "vote",
          "type": "bool"
        }
      ],
      "name": "voteProposition",
      "outputs": [],
      "stateMutability": "nonpayable",
      "type": "function"
    }
  ],
  "bytecode": "0x608060405234801561001057600080fd5b506104a5806100206000396000f3fe608060405234801561001057600080fd5b506004361061002b5760003560e01c806391f9167114610030575b600080fd5b61004361003e3660046103d8565b610045565b005b600161004f61017d565b15156001146100925760405162461bcd60e51b8152600401610089906020808252600490820152634543323560e01b604082015260600190565b60405180910390fd5b60075461009e336101a6565b106100d45760405162461bcd60e51b8152600401610089906020808252600490820152634543323360e01b604082015260600190565b6003544210156101755781156101295760086100ef336101a6565b815481106100ff576100ff610443565b90600052602060002001546002600301600082825461011e91906103fa565b909155506101699050565b6008610134336101a6565b8154811061014457610144610443565b90600052602060002001546002600401600082825461016391906103fa565b90915550505b61017161020f565b5050565b610171610235565b6003546000904210156101905750600190565b600754156101a0576101a0610235565b50600090565b60078054604080516020808402820181019092528281526000936102099386938301828280156101ff57602002820191906000526020600020905b81546001600160a01b031681526001909101906020018083116101e1575b5050505050610274565b92915050565b600454600554111561022557610223610235565b565b6004546006541115610223576102235b600280546001600160a01b03191681556000600381905560048190556005819055600681905561026660078261039e565b61017160068301600061039e565b60006102916001600160a01b03841661028c84610298565b610349565b9392505050565b6060600082516001600160401b038111156102b5576102b5610459565b6040519080825280602002602001820160405280156102de578160200160208202803683370190505b50905060005b8151811015610342578381815181106102ff576102ff610443565b60200260200101516001600160a01b031660001b82828151811061032557610325610443565b60209081029190910101528061033a81610412565b9150506102e4565b5092915050565b6000805b82518110156103905782818151811061036857610368610443565b602002602001015184141561037e579050610209565b8061038881610412565b91505061034d565b5081516102919060016103fa565b50805460008255906000526020600020908101906103bc91906103bf565b50565b5b808211156103d457600081556001016103c0565b5090565b6000602082840312156103ea57600080fd5b8135801515811461029157600080fd5b6000821982111561040d5761040d61042d565b500190565b60006000198214156104265761042661042d565b5060010190565b634e487b7160e01b600052601160045260246000fd5b634e487b7160e01b600052603260045260246000fd5b634e487b7160e01b600052604160045260246000fdfea2646970667358221220c828a6b14a78cbba6bb1d8a8515dd0479a580304401408d706b238e11f2399ca64736f6c63430008060033",
  "immutableReferences": {},
  "source": "// SPDX-License-Identifier: GPL-3.0\r\n\r\npragma solidity >=0.7.0 <0.9.0;\r\n\r\n/**\r\n * @title Storage\r\n * @dev Store & retrieve value in a variable\r\n */\r\n\r\n import \"../CertisToken.sol\";\r\n import \"../Libraries/AddressLibrary.sol\";\r\n\r\ncontract TokenGovernanceBaseContract{\r\n\r\n    using AddressLibrary for *; \r\n\r\n    address _chairperson;\r\n\r\n    CertisToken _CertisToken;\r\n\r\n    struct PropositionStruct{\r\n        address Proposer;\r\n        uint256 DeadLine;\r\n        uint256 validationThreshold;\r\n        uint256 VotesFor;\r\n        uint256 VotesAgainst;\r\n        address[] listOfAdmins;\r\n        uint256[] AdminsWeight;\r\n    }\r\n\r\n    PropositionStruct Proposition;\r\n\r\n    uint8 _minWeightToProposePercentage;\r\n    \r\n    // modifiers\r\n\r\n    modifier isAuthorized(){\r\n        require((msg.sender == _chairperson) || \r\n            ((GetId(msg.sender) < Proposition.listOfAdmins.length) &&\r\n             (Proposition.AdminsWeight[GetId(msg.sender)] >= (_minWeightToProposePercentage * totalSupply() / 100))), \"EC22\");\r\n        _;\r\n    }\r\n\r\n    modifier canVote(){\r\n        require(GetId(msg.sender) < Proposition.listOfAdmins.length, \"EC23\");\r\n         _;\r\n    }\r\n\r\n    modifier PropositionInProgress(bool yesOrno){\r\n        if(yesOrno) require(true == CheckIfPropostiionActive(), \"EC25\");\r\n        else require(false == CheckIfPropostiionActive(), \"EC24\");\r\n        _;\r\n    }\r\n\r\n    // auxiliairy function\r\n\r\n    function GetId(address add) internal view returns(uint256)\r\n    {\r\n        return AddressLibrary.FindAddressPosition(add, Proposition.listOfAdmins);\r\n    }\r\n\r\n    function CheckIfPropostiionActive() internal returns(bool){\r\n        if(block.timestamp < Proposition.DeadLine)\r\n        {\r\n            return true;\r\n        }\r\n        else \r\n        {\r\n            if(0 < Proposition.listOfAdmins.length){\r\n                propositionExpired();\r\n                cancelProposition();\r\n            } \r\n            return false;\r\n        }\r\n    }\r\n\r\n    // functions\r\n\r\n    function totalSupply() internal view returns(uint256){\r\n        return _CertisToken.totalSupply();\r\n    }\r\n\r\n    function addProposition(uint256 _DeadLine, uint8 _validationThresholdPercentage) internal\r\n        PropositionInProgress(false)\r\n        isAuthorized()\r\n    {\r\n        Proposition.Proposer = msg.sender;\r\n        Proposition.DeadLine = _DeadLine;\r\n        Proposition.validationThreshold = totalSupply() * _validationThresholdPercentage / 100;\r\n        (Proposition.listOfAdmins, Proposition.AdminsWeight) = _CertisToken.TokenOwners();\r\n        require(0 < Proposition.listOfAdmins.length, \"Impossible to add proposition, there are no admins\");\r\n    }\r\n\r\n    function voteProposition(bool vote) external\r\n        PropositionInProgress(true)\r\n        canVote()\r\n    {\r\n        if(block.timestamp < Proposition.DeadLine)\r\n        {\r\n            if(vote){\r\n                Proposition.VotesFor += Proposition.AdminsWeight[GetId(msg.sender)];\r\n            }\r\n            else{\r\n                Proposition.VotesAgainst += Proposition.AdminsWeight[GetId(msg.sender)];\r\n            }\r\n\r\n            checkProposition();\r\n        }\r\n\r\n        else \r\n        {\r\n            propositionExpired();\r\n            cancelProposition();\r\n        }\r\n    }\r\n\r\n    function checkProposition() internal\r\n    {\r\n        if(Proposition.VotesFor > Proposition.validationThreshold) \r\n        {\r\n            propositionApproved();\r\n            cancelProposition();\r\n        }\r\n        else if(Proposition.VotesAgainst > Proposition.validationThreshold)\r\n        {\r\n            propositionRejected();\r\n            cancelProposition();\r\n        } \r\n    }\r\n\r\n    function cancelProposition() internal\r\n    {\r\n        delete(Proposition);\r\n    }\r\n\r\n    function propositionApproved() internal virtual{}\r\n\r\n    function propositionRejected() internal virtual{}\r\n\r\n    function propositionExpired() internal virtual{}\r\n\r\n}",
  "sourcePath": "C:\\Users\\d-aam\\GitHub\\Certificates\\contracts\\Base\\TokenGovernanceBaseContract.sol",
  "compiler": {
    "name": "solc",
    "version": "0.8.6+commit.11564f7e.Emscripten.clang"
  },
  "schemaVersion": "3.3.4",
  "updatedAt": "2021-07-21T12:30:49.279Z",
  "devdoc": {
    "kind": "dev",
    "methods": {},
    "version": 1
  },
  "userdoc": {
    "kind": "user",
    "methods": {},
    "version": 1
  }
}