{
  "contractName": "TokenGovernanceBaseContract",
  "abi": [
    {
      "inputs": [
        {
          "internalType": "uint256",
          "name": "PropositionLifeTime",
          "type": "uint256"
        },
        {
          "internalType": "uint8",
          "name": "PropositionThresholdPercentage",
          "type": "uint8"
        },
        {
          "internalType": "uint8",
          "name": "minWeightToProposePercentage",
          "type": "uint8"
        }
      ],
      "stateMutability": "nonpayable",
      "type": "constructor"
    },
    {
      "inputs": [
        {
          "internalType": "uint256",
          "name": "PropLifeTime",
          "type": "uint256"
        },
        {
          "internalType": "uint8",
          "name": "PropThresholdPerc",
          "type": "uint8"
        },
        {
          "internalType": "uint8",
          "name": "minWeightToPropPerc",
          "type": "uint8"
        }
      ],
      "name": "updateProp",
      "outputs": [],
      "stateMutability": "nonpayable",
      "type": "function"
    },
    {
      "inputs": [],
      "name": "retrievePropConfig",
      "outputs": [
        {
          "internalType": "uint256",
          "name": "",
          "type": "uint256"
        },
        {
          "internalType": "uint8",
          "name": "",
          "type": "uint8"
        },
        {
          "internalType": "uint8",
          "name": "",
          "type": "uint8"
        }
      ],
      "stateMutability": "view",
      "type": "function"
    },
    {
      "inputs": [],
      "name": "cancelProposition",
      "outputs": [],
      "stateMutability": "nonpayable",
      "type": "function"
    },
    {
      "inputs": [
        {
          "internalType": "bool",
          "name": "vote",
          "type": "bool"
        }
      ],
      "name": "voteProposition",
      "outputs": [],
      "stateMutability": "nonpayable",
      "type": "function"
    },
    {
      "inputs": [],
      "name": "retrievePropositionStatus",
      "outputs": [
        {
          "internalType": "address",
          "name": "",
          "type": "address"
        },
        {
          "internalType": "uint256",
          "name": "",
          "type": "uint256"
        },
        {
          "internalType": "uint256",
          "name": "",
          "type": "uint256"
        },
        {
          "internalType": "uint256",
          "name": "",
          "type": "uint256"
        },
        {
          "internalType": "uint256",
          "name": "",
          "type": "uint256"
        },
        {
          "internalType": "address[]",
          "name": "",
          "type": "address[]"
        },
        {
          "internalType": "uint256[]",
          "name": "",
          "type": "uint256[]"
        },
        {
          "internalType": "address[]",
          "name": "",
          "type": "address[]"
        }
      ],
      "stateMutability": "view",
      "type": "function"
    },
    {
      "inputs": [],
      "name": "retrieveProposition",
      "outputs": [
        {
          "internalType": "string[]",
          "name": "",
          "type": "string[]"
        }
      ],
      "stateMutability": "view",
      "type": "function"
    }
  ],
  "bytecode": "0x60806040523480156200001157600080fd5b5060405162001d5638038062001d568339810160408190526200003491620009a0565b600080546001600160a01b031916331790556200005583838360016200005e565b50505062000b18565b82828160ff1660641015620000905760405162461bcd60e51b81526004016200008790620009e1565b60405180910390fd5b8060ff1660641015620000b75760405162461bcd60e51b81526004016200008790620009e1565b8215620000e457600a869055600b805460ff8681166101000261ffff199092169088161717905562000131565b600c869055600d805460ff8681166101000261ffff1990921690881617179055600e805460ff19166001179055600a54620001319062000125904262000a58565b600b5460ff1662000139565b505050505050565b600062000145620002b9565b156200017d5760405162461bcd60e51b815260040162000087906020808252600490820152631150cc8d60e21b604082015260600190565b6200018833620002ef565b1515600114620001c45760405162461bcd60e51b8152600401620000879060208082526004908201526322a1991960e11b604082015260600190565b620001ce620003af565b8051620001e49160079160209091019062000734565b50600754620002515760405162461bcd60e51b815260206004820152603260248201527f496d706f737369626c6520746f206164642070726f706f736974696f6e2c20746044820152716865726520617265206e6f2061646d696e7360701b606482015260840162000087565b600280546001600160a01b031916331790556003839055606460ff83166200027862000448565b62000284919062000a96565b62000290919062000a73565b6004556200029d620004ce565b8051620002b3916008916020909101906200079e565b50505050565b600354600090421015620002cd5750600190565b6002546001600160a01b031615620002e957620002e962000567565b50600090565b600080546001600160a01b03163314156200030c57506001919050565b600062000318620003af565b9050600062000326620004ce565b90506000620003368584620005be565b905082518110156200039f5760646200034e62000448565b600b54620003659190610100900460ff1662000a96565b62000371919062000a73565b82828151811062000386576200038662000aec565b6020026020010151106200039f57506001949350505050565b506000949350505050565b919050565b60606000600160009054906101000a90046001600160a01b03166001600160a01b03166388d44ee06040518163ffffffff1660e01b815260040160006040518083038186803b1580156200040257600080fd5b505afa15801562000417573d6000803e3d6000fd5b505050506040513d6000823e601f3d908101601f19168201604052620004419190810190620008a2565b5092915050565b600154604080516318160ddd60e01b815290516000926001600160a01b0316916318160ddd916004808301926020929190829003018186803b1580156200048e57600080fd5b505afa158015620004a3573d6000803e3d6000fd5b505050506040513d601f19601f82011682018060405250810190620004c9919062000986565b905090565b60606000600160009054906101000a90046001600160a01b03166001600160a01b03166388d44ee06040518163ffffffff1660e01b815260040160006040518083038186803b1580156200052157600080fd5b505afa15801562000536573d6000803e3d6000fd5b505050506040513d6000823e601f3d908101601f19168201604052620005609190810190620008a2565b9392505050565b600280546001600160a01b0319168155600060038190556004819055600581905560068190556200059a600782620007dc565b620005aa600683016000620007dc565b620005ba600783016000620007dc565b5050565b6000620005d78383620005e060201b620005511760201c565b90505b92915050565b6000620005d76001600160a01b038416620005fb846200060c565b620006c860201b620005771760201c565b6060600082516001600160401b038111156200062c576200062c62000b02565b60405190808252806020026020018201604052801562000656578160200160208202803683370190505b50905060005b81518110156200044157620006938482815181106200067f576200067f62000aec565b60200260200101516200072860201b60201c565b828281518110620006a857620006a862000aec565b602090810291909101015280620006bf8162000ab8565b9150506200065c565b6000805b82518110156200071857828181518110620006eb57620006eb62000aec565b602002602001015184141562000703579050620005da565b806200070f8162000ab8565b915050620006cc565b508151620005d790600162000a58565b6001600160a01b031690565b8280548282559060005260206000209081019282156200078c579160200282015b828111156200078c57825182546001600160a01b0319166001600160a01b0390911617825560209092019160019091019062000755565b506200079a929150620007ff565b5090565b8280548282559060005260206000209081019282156200078c579160200282015b828111156200078c578251825591602001919060010190620007bf565b5080546000825590600052602060002090810190620007fc9190620007ff565b50565b5b808211156200079a576000815560010162000800565b600082601f8301126200082857600080fd5b81516020620008416200083b8362000a32565b620009ff565b80838252828201915082860187848660051b89010111156200086257600080fd5b60005b85811015620008835781518452928401929084019060010162000865565b5090979650505050505050565b805160ff81168114620003aa57600080fd5b60008060408385031215620008b657600080fd5b82516001600160401b0380821115620008ce57600080fd5b818501915085601f830112620008e357600080fd5b81516020620008f66200083b8362000a32565b8083825282820191508286018a848660051b89010111156200091757600080fd5b600096505b84871015620009525780516001600160a01b03811681146200093d57600080fd5b8352600196909601959183019183016200091c565b50918801519196509093505050808211156200096d57600080fd5b506200097c8582860162000816565b9150509250929050565b6000602082840312156200099957600080fd5b5051919050565b600080600060608486031215620009b657600080fd5b83519250620009c86020850162000890565b9150620009d86040850162000890565b90509250925092565b6020808252600490820152634543323160e01b604082015260600190565b604051601f8201601f191681016001600160401b038111828210171562000a2a5762000a2a62000b02565b604052919050565b60006001600160401b0382111562000a4e5762000a4e62000b02565b5060051b60200190565b6000821982111562000a6e5762000a6e62000ad6565b500190565b60008262000a9157634e487b7160e01b600052601260045260246000fd5b500490565b600081600019048311821515161562000ab35762000ab362000ad6565b500290565b600060001982141562000acf5762000acf62000ad6565b5060010190565b634e487b7160e01b600052601160045260246000fd5b634e487b7160e01b600052603260045260246000fd5b634e487b7160e01b600052604160045260246000fd5b61122e8062000b286000396000f3fe608060405234801561001057600080fd5b50600436106100625760003560e01c806355457ee914610067578063840f6d171461007157806391f9167114610096578063a93316f5146100a9578063ac2bb442146100b8578063d660ab34146100cb575b600080fd5b61006f6100f7565b005b610079610160565b60405161008d989796959493929190610f65565b60405180910390f35b61006f6100a4366004610eaa565b6102d0565b606060405161008d9190610ffa565b61006f6100c6366004610ee5565b61053f565b600a54600b546040805192835260ff80831660208501526101009092049091169082015260600161008d565b60016101016105cc565b151560011461012b5760405162461bcd60e51b8152600401610122906110b3565b60405180910390fd5b6002546001600160a01b031633146101555760405162461bcd60e51b815260040161012290611095565b61015d6105fe565b50565b60008060008060006060806060600260000160009054906101000a90046001600160a01b031660026001015460028001546002600301546002600401546002600501600260060160026007018280548060200260200160405190810160405280929190818152602001828054801561020157602002820191906000526020600020905b81546001600160a01b031681526001909101906020018083116101e3575b505050505092508180548060200260200160405190810160405280929190818152602001828054801561025357602002820191906000526020600020905b81548152602001906001019080831161023f575b50505050509150808054806020026020016040519081016040528092919081815260200182805480156102af57602002820191906000526020600020905b81546001600160a01b03168152600190910190602001808311610291575b50505050509050975097509750975097509750975097509091929394959697565b60016102da6105cc565b15156001146102fb5760405162461bcd60e51b8152600401610122906110b3565b61036233600260050180548060200260200160405190810160405280929190818152602001828054801561035857602002820191906000526020600020905b81546001600160a01b0316815260019091019060200180831161033a575b505050505061064b565b151560011461039c5760405162461bcd60e51b8152600401610122906020808252600490820152634543323360e01b604082015260600190565b6104033360026007018054806020026020016040519081016040528092919081815260200182805480156103f957602002820191906000526020600020905b81546001600160a01b031681526001909101906020018083116103db575b5050505050610661565b156104365760405162461bcd60e51b815260206004820152600360248201526245433560e81b6044820152606401610122565b60035442101561052457600980546001810182556000919091527f6e1540171b6c0c960b71a7020d9f60077f6af931a8bbf590da0223dacf75c7af0180546001600160a01b0319163317905581156104d557600861049b336104966106c7565b61075c565b815481106104ab576104ab6111cc565b9060005260206000200154600260030160008282546104ca9190611142565b909155506105189050565b60086104e3336104966106c7565b815481106104f3576104f36111cc565b9060005260206000200154600260040160008282546105129190611142565b90915550505b610520610768565b5050565b600e5460ff1615610537576105376107da565b6105206105fe565b61054c83838360006107f6565b505050565b600061056e6001600160a01b038416610569846108bc565b610577565b90505b92915050565b6000805b82518110156105be57828181518110610596576105966111cc565b60200260200101518414156105ac579050610571565b806105b68161119b565b91505061057b565b50815161056e906001611142565b6003546000904210156105df5750600190565b6002546001600160a01b0316156105f8576105f86105fe565b50600090565b600280546001600160a01b03191681556000600381905560048190556005819055600681905561062f600782610c7d565b61063d600683016000610c7d565b610520600783016000610c7d565b60008151610659848461075c565b109392505050565b6000805b82518110156106bd57828181518110610680576106806111cc565b60200260200101516001600160a01b0316846001600160a01b031614156106ab576001915050610571565b806106b58161119b565b915050610665565b5060009392505050565b60606000600160009054906101000a90046001600160a01b03166001600160a01b03166388d44ee06040518163ffffffff1660e01b815260040160006040518083038186803b15801561071957600080fd5b505afa15801561072d573d6000803e3d6000fd5b505050506040513d6000823e601f3d908101601f191682016040526107559190810190610dd3565b5092915050565b600061056e8383610551565b60045460055411156107bf57600e5460ff16156107b557600c54600a55600d54600b805461010080840460ff90811690910261ffff199092169316929092179190911790556107b56107da565b6107bd6105fe565b565b60045460065411156107bd57600e5460ff16156107b5576107b55b6000600c55600d805461ffff19169055600e805460ff19169055565b82828160ff166064101561081c5760405162461bcd60e51b8152600401610122906110d1565b8060ff16606410156108405760405162461bcd60e51b8152600401610122906110d1565b821561086b57600a869055600b805460ff8681166101000261ffff19909216908816171790556108b4565b600c869055600d805460ff8681166101000261ffff1990921690881617179055600e805460ff19166001179055600a546108b4906108a99042611142565b600b5460ff16610969565b505050505050565b6060600082516001600160401b038111156108d9576108d96111e2565b604051908082528060200260200182016040528015610902578160200160208202803683370190505b50905060005b81518110156107555761093a848281518110610926576109266111cc565b60200260200101516001600160a01b031690565b82828151811061094c5761094c6111cc565b6020908102919091010152806109618161119b565b915050610908565b60006109736105cc565b156109a95760405162461bcd60e51b8152600401610122906020808252600490820152631150cc8d60e21b604082015260600190565b6109b233610ab8565b15156001146109d35760405162461bcd60e51b815260040161012290611095565b6109db6106c7565b80516109ef91600791602090910190610c9b565b50600754610a5a5760405162461bcd60e51b815260206004820152603260248201527f496d706f737369626c6520746f206164642070726f706f736974696f6e2c20746044820152716865726520617265206e6f2061646d696e7360701b6064820152608401610122565b600280546001600160a01b031916331790556003839055606460ff8316610a7f610b66565b610a89919061117c565b610a93919061115a565b600455610a9e610be8565b8051610ab291600891602090910190610d00565b50505050565b600080546001600160a01b0316331415610ad457506001919050565b6000610ade6106c7565b90506000610aea610be8565b90506000610af8858461075c565b90508251811015610b56576064610b0d610b66565b600b54610b229190610100900460ff1661117c565b610b2c919061115a565b828281518110610b3e57610b3e6111cc565b602002602001015110610b5657506001949350505050565b506000949350505050565b919050565b600154604080516318160ddd60e01b815290516000926001600160a01b0316916318160ddd916004808301926020929190829003018186803b158015610bab57600080fd5b505afa158015610bbf573d6000803e3d6000fd5b505050506040513d601f19601f82011682018060405250810190610be39190610ecc565b905090565b60606000600160009054906101000a90046001600160a01b03166001600160a01b03166388d44ee06040518163ffffffff1660e01b815260040160006040518083038186803b158015610c3a57600080fd5b505afa158015610c4e573d6000803e3d6000fd5b505050506040513d6000823e601f3d908101601f19168201604052610c769190810190610dd3565b9392505050565b508054600082559060005260206000209081019061015d9190610d3b565b828054828255906000526020600020908101928215610cf0579160200282015b82811115610cf057825182546001600160a01b0319166001600160a01b03909116178255602090920191600190910190610cbb565b50610cfc929150610d3b565b5090565b828054828255906000526020600020908101928215610cf0579160200282015b82811115610cf0578251825591602001919060010190610d20565b5b80821115610cfc5760008155600101610d3c565b600082601f830112610d6157600080fd5b81516020610d76610d718361111f565b6110ef565b80838252828201915082860187848660051b8901011115610d9657600080fd5b60005b85811015610db557815184529284019290840190600101610d99565b5090979650505050505050565b803560ff81168114610b6157600080fd5b60008060408385031215610de657600080fd5b82516001600160401b0380821115610dfd57600080fd5b818501915085601f830112610e1157600080fd5b81516020610e21610d718361111f565b8083825282820191508286018a848660051b8901011115610e4157600080fd5b600096505b84871015610e795780516001600160a01b0381168114610e6557600080fd5b835260019690960195918301918301610e46565b5091880151919650909350505080821115610e9357600080fd5b50610ea085828601610d50565b9150509250929050565b600060208284031215610ebc57600080fd5b81358015158114610c7657600080fd5b600060208284031215610ede57600080fd5b5051919050565b600080600060608486031215610efa57600080fd5b83359250610f0a60208501610dc2565b9150610f1860408501610dc2565b90509250925092565b600081518084526020808501945080840160005b83811015610f5a5781516001600160a01b031687529582019590820190600101610f35565b509495945050505050565b600061010060018060a01b038b16835260208a818501528960408501528860608501528760808501528160a0850152610fa082850188610f21565b84810360c0860152865180825282880193509082019060005b81811015610fd557845183529383019391830191600101610fb9565b505084810360e0860152610fe98187610f21565b9d9c50505050505050505050505050565b6000602080830181845280855180835260408601915060408160051b87010192508387016000805b8381101561108757888603603f1901855282518051808852835b81811015611057578281018a01518982018b0152890161103c565b8181111561106757848a838b0101525b50601f01601f191696909601870195509386019391860191600101611022565b509398975050505050505050565b60208082526004908201526322a1991960e11b604082015260600190565b6020808252600490820152634543323560e01b604082015260600190565b6020808252600490820152634543323160e01b604082015260600190565b604051601f8201601f191681016001600160401b0381118282101715611117576111176111e2565b604052919050565b60006001600160401b03821115611138576111386111e2565b5060051b60200190565b60008219821115611155576111556111b6565b500190565b60008261117757634e487b7160e01b600052601260045260246000fd5b500490565b6000816000190483118215151615611196576111966111b6565b500290565b60006000198214156111af576111af6111b6565b5060010190565b634e487b7160e01b600052601160045260246000fd5b634e487b7160e01b600052603260045260246000fd5b634e487b7160e01b600052604160045260246000fdfea2646970667358221220d6f8ff41d798881553516577574cbf2fd158890b779b0a11314372e0503de28a64736f6c63430008060033",
  "immutableReferences": {},
  "source": "// SPDX-License-Identifier: GPL-3.0\r\n\r\npragma solidity >=0.7.0 <0.9.0;\r\n\r\n/**\r\n * @title Storage\r\n * @dev Store & retrieve value in a variable\r\n */\r\n\r\n import \"../CertisToken.sol\";\r\n import \"../Libraries/AddressLibrary.sol\";\r\n import \"../Libraries/Library.sol\";\r\n\r\ncontract TokenGovernanceBaseContract {\r\n    using Library for *;\r\n    using AddressLibrary for *; \r\n\r\n    address _chairperson;\r\n\r\n    CertisToken _CertisToken;\r\n\r\n    struct PropositionStruct{\r\n        address Proposer;\r\n        uint256 DeadLine;\r\n        uint256 validationThreshold;\r\n        uint256 VotesFor;\r\n        uint256 VotesAgainst;\r\n        address[] listOfAdmins;\r\n        uint256[] AdminsWeight;\r\n        address[] AlreadyVoted;\r\n    }\r\n\r\n    PropositionStruct Proposition;\r\n\r\n    uint _PropositionLifeTime;\r\n    uint8 _PropositionThresholdPercentage;\r\n    uint8 _minWeightToProposePercentage;\r\n\r\n    struct ProposedPropositionStruct{\r\n        uint256 NewPropositionLifeTime;\r\n        uint8 NewPropositionThresholdPercentage;\r\n        uint8 NewMinWeightToProposePercentage;\r\n    }\r\n\r\n    ProposedPropositionStruct _ProposedProposition;\r\n\r\n    bool _currentPropisProp;\r\n    \r\n    // modifiers\r\n\r\n    modifier isFromChairPerson(){\r\n        require(true == Library.ItIsSomeone(_chairperson), \"EC8\");\r\n        _;\r\n    }\r\n\r\n    modifier isAuthorizedToPropose(){\r\n        require(true == AuthorizedToPropose(msg.sender), \"EC22\");\r\n        _;\r\n    }\r\n\r\n    modifier isAuthorizedToCancel(){\r\n        require(msg.sender == Proposition.Proposer, \"EC22\");\r\n        _;\r\n    }\r\n\r\n    modifier canVote(){\r\n        require(true == AuthorizedToVote(msg.sender, Proposition.listOfAdmins), \"EC23\");\r\n         _;\r\n    }\r\n\r\n    modifier PropositionInProgress(bool yesOrno){\r\n        if(yesOrno) require(true == CheckIfPropostiionActive(), \"EC25\");\r\n        else require(false == CheckIfPropostiionActive(), \"EC24\");\r\n        _;\r\n    }\r\n\r\n    modifier HasNotAlreadyVoted(){\r\n        require(false == AddressLibrary.FindAddress(msg.sender, Proposition.AlreadyVoted), \"EC5\");\r\n        _;\r\n    }\r\n\r\n    modifier isPropOK(uint8 PropositionThresholdPercentage, uint8 minWeightToProposePercentage){\r\n        require(100 >= PropositionThresholdPercentage, \"EC21\");\r\n        require(100 >= minWeightToProposePercentage, \"EC21\");\r\n        _;\r\n    }\r\n\r\n    // auxiliairy function\r\n\r\n    function AuthorizedToPropose(address add) internal view returns(bool) {\r\n        if(msg.sender == _chairperson) return true;\r\n        else \r\n        {\r\n            address[] memory list = GetAdminList();\r\n            uint256[] memory weights = GetAdminWeights();\r\n            uint256 id = GetId(add, list);\r\n            if(id < list.length){\r\n                if(weights[id] >= (_minWeightToProposePercentage * totalSupply() / 100)) return true;\r\n            }\r\n            return false;\r\n        }\r\n    }\r\n\r\n    function AuthorizedToVote(address add, address[] memory list) internal pure returns(bool) {\r\n        return (GetId(add, list) < list.length);\r\n    }\r\n\r\n    function GetId(address add, address[] memory list) internal pure returns(uint256)\r\n    {\r\n        return AddressLibrary.FindAddressPosition(add, list);\r\n    }\r\n\r\n    function GetAdminList() internal view returns(address[] memory){\r\n        (address[] memory list, ) = _CertisToken.TokenOwners();\r\n        return list;\r\n    }\r\n\r\n    function GetAdminWeights() internal view returns(uint256[] memory){\r\n        (, uint256[] memory weights) = _CertisToken.TokenOwners();\r\n        return weights;\r\n    }\r\n\r\n    function totalSupply() internal view returns(uint256){\r\n        return _CertisToken.totalSupply();\r\n    }\r\n\r\n    function CheckIfPropostiionActive() internal returns(bool){\r\n        if(block.timestamp < Proposition.DeadLine)\r\n        {\r\n            return true;\r\n        }\r\n        else \r\n        {\r\n            if(address(0) != Proposition.Proposer){\r\n                propositionExpired();\r\n                InternalCancelProposition();\r\n            } \r\n            return false;\r\n        }\r\n    }\r\n\r\n    // constructor\r\n    constructor(uint256 PropositionLifeTime, uint8 PropositionThresholdPercentage, uint8 minWeightToProposePercentage){\r\n        _chairperson = msg.sender; \r\n        InternalupdateProp(PropositionLifeTime, PropositionThresholdPercentage, minWeightToProposePercentage, true);\r\n    }\r\n    \r\n    // updates prop values\r\n\r\n    function updateProp(uint256 PropLifeTime, uint8 PropThresholdPerc, uint8 minWeightToPropPerc) external\r\n    {\r\n        InternalupdateProp(PropLifeTime, PropThresholdPerc, minWeightToPropPerc, false);\r\n    }\r\n\r\n    function InternalupdateProp(uint256 PropLifeTime, uint8 PropThresholdPerc, uint8 minWeightToPropPerc, bool fromConstructor) internal\r\n        isPropOK(PropThresholdPerc, minWeightToPropPerc)\r\n    {\r\n        if(fromConstructor){\r\n            _PropositionLifeTime = PropLifeTime;\r\n            _PropositionThresholdPercentage = PropThresholdPerc;\r\n            _minWeightToProposePercentage = minWeightToPropPerc;\r\n        }\r\n        else{\r\n            _ProposedProposition.NewPropositionLifeTime = PropLifeTime;\r\n            _ProposedProposition.NewPropositionThresholdPercentage = PropThresholdPerc;\r\n            _ProposedProposition.NewMinWeightToProposePercentage = minWeightToPropPerc;\r\n            _currentPropisProp = true;\r\n            addProposition(block.timestamp + _PropositionLifeTime, _PropositionThresholdPercentage);\r\n        }   \r\n    }\r\n\r\n    function retrievePropConfig() external view returns(uint, uint8, uint8)\r\n    {\r\n        return(_PropositionLifeTime, _PropositionThresholdPercentage, _minWeightToProposePercentage);\r\n    }\r\n\r\n    // functions\r\n\r\n    function addProposition(uint256 _DeadLine, uint8 _validationThresholdPercentage) internal\r\n        PropositionInProgress(false)\r\n        isAuthorizedToPropose()\r\n    {\r\n        Proposition.listOfAdmins = GetAdminList();\r\n        require(0 < Proposition.listOfAdmins.length, \"Impossible to add proposition, there are no admins\");\r\n\r\n        Proposition.Proposer = msg.sender;\r\n        Proposition.DeadLine = _DeadLine;\r\n        Proposition.validationThreshold = totalSupply() * _validationThresholdPercentage / 100;\r\n        Proposition.AdminsWeight = GetAdminWeights();\r\n    }\r\n\r\n    function cancelProposition() external\r\n        PropositionInProgress(true)\r\n        isAuthorizedToCancel()\r\n    {\r\n        InternalCancelProposition();\r\n    }\r\n\r\n    function voteProposition(bool vote) external\r\n        PropositionInProgress(true)\r\n        canVote()\r\n        HasNotAlreadyVoted()\r\n    {\r\n        if(block.timestamp < Proposition.DeadLine)\r\n        {\r\n            Proposition.AlreadyVoted.push(msg.sender);\r\n\r\n            if(vote){\r\n                Proposition.VotesFor += Proposition.AdminsWeight[GetId(msg.sender, GetAdminList())];\r\n            }\r\n            else{\r\n                Proposition.VotesAgainst += Proposition.AdminsWeight[GetId(msg.sender, GetAdminList())];\r\n            }\r\n\r\n            checkProposition();\r\n        }\r\n\r\n        else \r\n        {\r\n            if(_currentPropisProp){\r\n                removePropositionProp();\r\n            }\r\n            else{\r\n                propositionExpired();\r\n            }\r\n            InternalCancelProposition();\r\n        }\r\n    }\r\n\r\n    function checkProposition() internal\r\n    {\r\n        if(Proposition.VotesFor > Proposition.validationThreshold) \r\n        {\r\n            if(_currentPropisProp){\r\n                _PropositionLifeTime = _ProposedProposition.NewPropositionLifeTime;\r\n                _PropositionThresholdPercentage = _ProposedProposition.NewPropositionThresholdPercentage;\r\n                _minWeightToProposePercentage = _ProposedProposition.NewMinWeightToProposePercentage;\r\n                removePropositionProp();\r\n            }\r\n            else{\r\n                propositionApproved();\r\n            }\r\n            InternalCancelProposition();\r\n        }\r\n        else if(Proposition.VotesAgainst > Proposition.validationThreshold)\r\n        {\r\n            if(_currentPropisProp){\r\n                removePropositionProp();\r\n            }\r\n            else{\r\n                propositionRejected();\r\n            }\r\n            InternalCancelProposition();\r\n        } \r\n    }\r\n\r\n    function removePropositionProp() internal\r\n    {\r\n        delete(_ProposedProposition);\r\n        _currentPropisProp = false;\r\n    }\r\n\r\n    function InternalCancelProposition() internal\r\n    {\r\n        delete(Proposition);\r\n    }\r\n\r\n    function retrievePropositionStatus() external view returns(address, uint256, uint256, uint256, uint256, address[] memory, uint256[] memory, address[] memory){\r\n        return (Proposition.Proposer,\r\n            Proposition.DeadLine,\r\n            Proposition.validationThreshold,\r\n            Proposition.VotesFor,\r\n            Proposition.VotesAgainst,\r\n            Proposition.listOfAdmins,\r\n            Proposition.AdminsWeight,\r\n            Proposition.AlreadyVoted\r\n        );\r\n    }\r\n\r\n    function retrieveProposition() external virtual view returns(string[] memory){}\r\n\r\n    function propositionApproved() internal virtual{}\r\n\r\n    function propositionRejected() internal virtual{}\r\n\r\n    function propositionExpired() internal virtual{}\r\n\r\n}",
  "sourcePath": "C:\\Users\\d-aam\\GitHub\\Certificates\\contracts\\Base\\TokenGovernanceBaseContract.sol",
  "compiler": {
    "name": "solc",
    "version": "0.8.6+commit.11564f7e.Emscripten.clang"
  },
  "schemaVersion": "3.3.4",
  "updatedAt": "2021-07-23T14:39:26.176Z",
  "devdoc": {
    "kind": "dev",
    "methods": {},
    "version": 1
  },
  "userdoc": {
    "kind": "user",
    "methods": {},
    "version": 1
  }
}