{
  "contractName": "TokenGovernanceBaseContract",
  "abi": [
    {
      "inputs": [
        {
          "internalType": "uint256",
          "name": "PropositionLifeTime",
          "type": "uint256"
        },
        {
          "internalType": "uint8",
          "name": "PropositionThresholdPercentage",
          "type": "uint8"
        },
        {
          "internalType": "uint8",
          "name": "minWeightToProposePercentage",
          "type": "uint8"
        }
      ],
      "stateMutability": "nonpayable",
      "type": "constructor"
    },
    {
      "inputs": [
        {
          "internalType": "uint256",
          "name": "PropLifeTime",
          "type": "uint256"
        },
        {
          "internalType": "uint8",
          "name": "PropThresholdPerc",
          "type": "uint8"
        },
        {
          "internalType": "uint8",
          "name": "minWeightToPropPerc",
          "type": "uint8"
        }
      ],
      "name": "updateProp",
      "outputs": [],
      "stateMutability": "nonpayable",
      "type": "function"
    },
    {
      "inputs": [],
      "name": "retrievePropConfig",
      "outputs": [
        {
          "internalType": "uint256",
          "name": "",
          "type": "uint256"
        },
        {
          "internalType": "uint8",
          "name": "",
          "type": "uint8"
        },
        {
          "internalType": "uint8",
          "name": "",
          "type": "uint8"
        }
      ],
      "stateMutability": "view",
      "type": "function"
    },
    {
      "inputs": [],
      "name": "cancelProposition",
      "outputs": [],
      "stateMutability": "nonpayable",
      "type": "function"
    },
    {
      "inputs": [
        {
          "internalType": "bool",
          "name": "vote",
          "type": "bool"
        }
      ],
      "name": "voteProposition",
      "outputs": [],
      "stateMutability": "nonpayable",
      "type": "function"
    },
    {
      "inputs": [],
      "name": "retrievePropositionStatus",
      "outputs": [
        {
          "internalType": "address",
          "name": "",
          "type": "address"
        },
        {
          "internalType": "uint256",
          "name": "",
          "type": "uint256"
        },
        {
          "internalType": "uint256",
          "name": "",
          "type": "uint256"
        },
        {
          "internalType": "uint256",
          "name": "",
          "type": "uint256"
        },
        {
          "internalType": "uint256",
          "name": "",
          "type": "uint256"
        },
        {
          "internalType": "address[]",
          "name": "",
          "type": "address[]"
        },
        {
          "internalType": "uint256[]",
          "name": "",
          "type": "uint256[]"
        },
        {
          "internalType": "address[]",
          "name": "",
          "type": "address[]"
        }
      ],
      "stateMutability": "view",
      "type": "function"
    },
    {
      "inputs": [],
      "name": "retrieveProposition",
      "outputs": [
        {
          "internalType": "string[]",
          "name": "",
          "type": "string[]"
        }
      ],
      "stateMutability": "view",
      "type": "function"
    }
  ],
  "bytecode": "0x60806040523480156200001157600080fd5b5060405162001c8538038062001c858339810160408190526200003491620008bf565b600080546001600160a01b031916331790556200005583838360016200005e565b50505062000a77565b82828160ff1660641015620000905760405162461bcd60e51b815260040162000087906200095e565b60405180910390fd5b8060ff1660641015620000b75760405162461bcd60e51b815260040162000087906200095e565b8215620000e457600a869055600b805460ff8681166101000261ffff199092169088161717905562000131565b600c869055600d805460ff8681166101000261ffff1990921690881617179055600e805460ff19166001179055600a546200013190620001259042620009d5565b600b5460ff1662000139565b505050505050565b600062000145620002b9565b156200017d5760405162461bcd60e51b815260040162000087906020808252600490820152631150cc8d60e21b604082015260600190565b6200018833620002ef565b1515600114620001c45760405162461bcd60e51b8152600401620000879060208082526004908201526322a1991960e11b604082015260600190565b620001ce620003af565b8051620001e49160079160209091019062000653565b50600754620002515760405162461bcd60e51b815260206004820152603260248201527f496d706f737369626c6520746f206164642070726f706f736974696f6e2c20746044820152716865726520617265206e6f2061646d696e7360701b606482015260840162000087565b600280546001600160a01b031916331790556003839055606460ff83166200027862000448565b62000284919062000a13565b620002909190620009f0565b6004556200029d620004ce565b8051620002b391600891602090910190620006bd565b50505050565b600354600090421015620002cd5750600190565b6002546001600160a01b031615620002e957620002e962000567565b50600090565b600080546001600160a01b03163314156200030c57506001919050565b600062000318620003af565b9050600062000326620004ce565b90506000620003368584620005be565b905082518110156200039f5760646200034e62000448565b600b54620003659190610100900460ff1662000a13565b620003719190620009f0565b82828151811062000386576200038662000a4b565b6020026020010151106200039f57506001949350505050565b506000949350505050565b919050565b60606000600160009054906101000a90046001600160a01b03166001600160a01b03166388d44ee06040518163ffffffff1660e01b815260040160006040518083038186803b1580156200040257600080fd5b505afa15801562000417573d6000803e3d6000fd5b505050506040513d6000823e601f3d908101601f19168201604052620004419190810190620007c1565b5092915050565b600154604080516318160ddd60e01b815290516000926001600160a01b0316916318160ddd916004808301926020929190829003018186803b1580156200048e57600080fd5b505afa158015620004a3573d6000803e3d6000fd5b505050506040513d601f19601f82011682018060405250810190620004c99190620008a5565b905090565b60606000600160009054906101000a90046001600160a01b03166001600160a01b03166388d44ee06040518163ffffffff1660e01b815260040160006040518083038186803b1580156200052157600080fd5b505afa15801562000536573d6000803e3d6000fd5b505050506040513d6000823e601f3d908101601f19168201604052620005609190810190620007c1565b9392505050565b600280546001600160a01b0319168155600060038190556004819055600581905560068190556200059a600782620006fb565b620005aa600683016000620006fb565b620005ba600783016000620006fb565b5050565b60405160016219125f60e01b0319815260009073__AddressLibrary________________________9063ffe6eda190620005ff908690869060040162000900565b60206040518083038186803b1580156200061857600080fd5b505af41580156200062d573d6000803e3d6000fd5b505050506040513d601f19601f82011682018060405250810190620005609190620008a5565b828054828255906000526020600020908101928215620006ab579160200282015b82811115620006ab57825182546001600160a01b0319166001600160a01b0390911617825560209092019160019091019062000674565b50620006b99291506200071e565b5090565b828054828255906000526020600020908101928215620006ab579160200282015b82811115620006ab578251825591602001919060010190620006de565b50805460008255906000526020600020908101906200071b91906200071e565b50565b5b80821115620006b957600081556001016200071f565b600082601f8301126200074757600080fd5b81516020620007606200075a83620009af565b6200097c565b80838252828201915082860187848660051b89010111156200078157600080fd5b60005b85811015620007a25781518452928401929084019060010162000784565b5090979650505050505050565b805160ff81168114620003aa57600080fd5b60008060408385031215620007d557600080fd5b82516001600160401b0380821115620007ed57600080fd5b818501915085601f8301126200080257600080fd5b81516020620008156200075a83620009af565b8083825282820191508286018a848660051b89010111156200083657600080fd5b600096505b84871015620008715780516001600160a01b03811681146200085c57600080fd5b8352600196909601959183019183016200083b565b50918801519196509093505050808211156200088c57600080fd5b506200089b8582860162000735565b9150509250929050565b600060208284031215620008b857600080fd5b5051919050565b600080600060608486031215620008d557600080fd5b83519250620008e760208501620007af565b9150620008f760408501620007af565b90509250925092565b6001600160a01b038381168252604060208084018290528451918401829052600092858201929091906060860190855b818110156200095057855185168352948301949183019160010162000930565b509098975050505050505050565b6020808252600490820152634543323160e01b604082015260600190565b604051601f8201601f191681016001600160401b0381118282101715620009a757620009a762000a61565b604052919050565b60006001600160401b03821115620009cb57620009cb62000a61565b5060051b60200190565b60008219821115620009eb57620009eb62000a35565b500190565b60008262000a0e57634e487b7160e01b600052601260045260246000fd5b500490565b600081600019048311821515161562000a305762000a3062000a35565b500290565b634e487b7160e01b600052601160045260246000fd5b634e487b7160e01b600052603260045260246000fd5b634e487b7160e01b600052604160045260246000fd5b6111fe8062000a876000396000f3fe608060405234801561001057600080fd5b50600436106100625760003560e01c806355457ee914610067578063840f6d171461007157806391f9167114610096578063a93316f5146100a9578063ac2bb442146100b8578063d660ab34146100cb575b600080fd5b61006f6100f7565b005b610079610160565b60405161008d989796959493929190610f42565b60405180910390f35b61006f6100a4366004610dc2565b6102d0565b606060405161008d9190610fd7565b61006f6100c6366004610e15565b610562565b600a54600b546040805192835260ff80831660208501526101009092049091169082015260600161008d565b6001610101610574565b151560011461012b5760405162461bcd60e51b815260040161012290611090565b60405180910390fd5b6002546001600160a01b031633146101555760405162461bcd60e51b815260040161012290611072565b61015d6105a6565b50565b60008060008060006060806060600260000160009054906101000a90046001600160a01b031660026001015460028001546002600301546002600401546002600501600260060160026007018280548060200260200160405190810160405280929190818152602001828054801561020157602002820191906000526020600020905b81546001600160a01b031681526001909101906020018083116101e3575b505050505092508180548060200260200160405190810160405280929190818152602001828054801561025357602002820191906000526020600020905b81548152602001906001019080831161023f575b50505050509150808054806020026020016040519081016040528092919081815260200182805480156102af57602002820191906000526020600020905b81546001600160a01b03168152600190910190602001808311610291575b50505050509050975097509750975097509750975097509091929394959697565b60016102da610574565b15156001146102fb5760405162461bcd60e51b815260040161012290611090565b61036233600260050180548060200260200160405190810160405280929190818152602001828054801561035857602002820191906000526020600020905b81546001600160a01b0316815260019091019060200180831161033a575b50505050506105f3565b151560011461039c5760405162461bcd60e51b8152600401610122906020808252600490820152634543323360e01b604082015260600190565b60405163f7cf62d760e01b815273__AddressLibrary________________________9063f7cf62d7906103d6903390600990600401610ef1565b60206040518083038186803b1580156103ee57600080fd5b505af4158015610402573d6000803e3d6000fd5b505050506040513d601f19601f820116820180604052508101906104269190610ddf565b156104595760405162461bcd60e51b815260206004820152600360248201526245433560e81b6044820152606401610122565b60035442101561054757600980546001810182556000919091527f6e1540171b6c0c960b71a7020d9f60077f6af931a8bbf590da0223dacf75c7af0180546001600160a01b0319163317905581156104f85760086104be336104b9610609565b61069e565b815481106104ce576104ce61118e565b9060005260206000200154600260030160008282546104ed919061111f565b9091555061053b9050565b6008610506336104b9610609565b815481106105165761051661118e565b906000526020600020015460026004016000828254610535919061111f565b90915550505b610543610734565b5050565b600e5460ff161561055a5761055a6107a6565b6105436105a6565b61056f83838360006107c2565b505050565b6003546000904210156105875750600190565b6002546001600160a01b0316156105a0576105a06105a6565b50600090565b600280546001600160a01b0319168155600060038190556004819055600581905560068190556105d7600782610b95565b6105e5600683016000610b95565b610543600783016000610b95565b60008151610601848461069e565b109392505050565b60606000600160009054906101000a90046001600160a01b03166001600160a01b03166388d44ee06040518163ffffffff1660e01b815260040160006040518083038186803b15801561065b57600080fd5b505afa15801561066f573d6000803e3d6000fd5b505050506040513d6000823e601f3d908101601f191682016040526106979190810190610ceb565b5092915050565b60405160016219125f60e01b0319815260009073__AddressLibrary________________________9063ffe6eda1906106dd9086908690600401610e95565b60206040518083038186803b1580156106f557600080fd5b505af4158015610709573d6000803e3d6000fd5b505050506040513d601f19601f8201168201806040525081019061072d9190610dfc565b9392505050565b600454600554111561078b57600e5460ff161561078157600c54600a55600d54600b805461010080840460ff90811690910261ffff199092169316929092179190911790556107816107a6565b6107896105a6565b565b600454600654111561078957600e5460ff1615610781576107815b6000600c55600d805461ffff19169055600e805460ff19169055565b82828160ff16606410156107e85760405162461bcd60e51b8152600401610122906110ae565b8060ff166064101561080c5760405162461bcd60e51b8152600401610122906110ae565b821561083757600a869055600b805460ff8681166101000261ffff1990921690881617179055610880565b600c869055600d805460ff8681166101000261ffff1990921690881617179055600e805460ff19166001179055600a5461088090610875904261111f565b600b5460ff16610888565b505050505050565b6000610892610574565b156108c85760405162461bcd60e51b8152600401610122906020808252600490820152631150cc8d60e21b604082015260600190565b6108d1336109d7565b15156001146108f25760405162461bcd60e51b815260040161012290611072565b6108fa610609565b805161090e91600791602090910190610bb3565b506007546109795760405162461bcd60e51b815260206004820152603260248201527f496d706f737369626c6520746f206164642070726f706f736974696f6e2c20746044820152716865726520617265206e6f2061646d696e7360701b6064820152608401610122565b600280546001600160a01b031916331790556003839055606460ff831661099e610a85565b6109a89190611159565b6109b29190611137565b6004556109bd610b07565b80516109d191600891602090910190610c18565b50505050565b600080546001600160a01b03163314156109f357506001919050565b60006109fd610609565b90506000610a09610b07565b90506000610a17858461069e565b90508251811015610a75576064610a2c610a85565b600b54610a419190610100900460ff16611159565b610a4b9190611137565b828281518110610a5d57610a5d61118e565b602002602001015110610a7557506001949350505050565b506000949350505050565b919050565b600154604080516318160ddd60e01b815290516000926001600160a01b0316916318160ddd916004808301926020929190829003018186803b158015610aca57600080fd5b505afa158015610ade573d6000803e3d6000fd5b505050506040513d601f19601f82011682018060405250810190610b029190610dfc565b905090565b60606000600160009054906101000a90046001600160a01b03166001600160a01b03166388d44ee06040518163ffffffff1660e01b815260040160006040518083038186803b158015610b5957600080fd5b505afa158015610b6d573d6000803e3d6000fd5b505050506040513d6000823e601f3d908101601f1916820160405261072d9190810190610ceb565b508054600082559060005260206000209081019061015d9190610c53565b828054828255906000526020600020908101928215610c08579160200282015b82811115610c0857825182546001600160a01b0319166001600160a01b03909116178255602090920191600190910190610bd3565b50610c14929150610c53565b5090565b828054828255906000526020600020908101928215610c08579160200282015b82811115610c08578251825591602001919060010190610c38565b5b80821115610c145760008155600101610c54565b600082601f830112610c7957600080fd5b81516020610c8e610c89836110fc565b6110cc565b80838252828201915082860187848660051b8901011115610cae57600080fd5b60005b85811015610ccd57815184529284019290840190600101610cb1565b5090979650505050505050565b803560ff81168114610a8057600080fd5b60008060408385031215610cfe57600080fd5b82516001600160401b0380821115610d1557600080fd5b818501915085601f830112610d2957600080fd5b81516020610d39610c89836110fc565b8083825282820191508286018a848660051b8901011115610d5957600080fd5b600096505b84871015610d915780516001600160a01b0381168114610d7d57600080fd5b835260019690960195918301918301610d5e565b5091880151919650909350505080821115610dab57600080fd5b50610db885828601610c68565b9150509250929050565b600060208284031215610dd457600080fd5b813561072d816111ba565b600060208284031215610df157600080fd5b815161072d816111ba565b600060208284031215610e0e57600080fd5b5051919050565b600080600060608486031215610e2a57600080fd5b83359250610e3a60208501610cda565b9150610e4860408501610cda565b90509250925092565b600081518084526020808501945080840160005b83811015610e8a5781516001600160a01b031687529582019590820190600101610e65565b509495945050505050565b6001600160a01b038381168252604060208084018290528451918401829052600092858201929091906060860190855b81811015610ee3578551851683529483019491830191600101610ec5565b509098975050505050505050565b60006040820160018060a01b03808616845260206040818601528286548085526060870191508760005282600020945060005b81811015610ee3578554851683526001958601959284019201610f24565b600061010060018060a01b038b16835260208a818501528960408501528860608501528760808501528160a0850152610f7d82850188610e51565b84810360c0860152865180825282880193509082019060005b81811015610fb257845183529383019391830191600101610f96565b505084810360e0860152610fc68187610e51565b9d9c50505050505050505050505050565b6000602080830181845280855180835260408601915060408160051b87010192508387016000805b8381101561106457888603603f1901855282518051808852835b81811015611034578281018a01518982018b01528901611019565b8181111561104457848a838b0101525b50601f01601f191696909601870195509386019391860191600101610fff565b509398975050505050505050565b60208082526004908201526322a1991960e11b604082015260600190565b6020808252600490820152634543323560e01b604082015260600190565b6020808252600490820152634543323160e01b604082015260600190565b604051601f8201601f191681016001600160401b03811182821017156110f4576110f46111a4565b604052919050565b60006001600160401b03821115611115576111156111a4565b5060051b60200190565b6000821982111561113257611132611178565b500190565b60008261115457634e487b7160e01b600052601260045260246000fd5b500490565b600081600019048311821515161561117357611173611178565b500290565b634e487b7160e01b600052601160045260246000fd5b634e487b7160e01b600052603260045260246000fd5b634e487b7160e01b600052604160045260246000fd5b801515811461015d57600080fdfea2646970667358221220de6c526a9c194677675fff2328bb506e842680e4c9e65654e83d490f4f507c3664736f6c63430008060033",
  "immutableReferences": {},
  "source": "// SPDX-License-Identifier: GPL-3.0\r\n\r\npragma solidity >=0.7.0 <0.9.0;\r\n\r\n/**\r\n * @title Storage\r\n * @dev Store & retrieve value in a variable\r\n */\r\n\r\n import \"../DeployedContracts/CertisToken.sol\";\r\n import \"../Libraries/AddressLibrary.sol\";\r\n import \"../Libraries/Library.sol\";\r\n\r\ncontract TokenGovernanceBaseContract {\r\n    using Library for *;\r\n    using AddressLibrary for *; \r\n\r\n    // DATA\r\n    // chair person\r\n    address _chairperson;\r\n\r\n    // Token contract\r\n    CertisToken _CertisToken;\r\n\r\n    // Proposition Structure\r\n    struct PropositionStruct{\r\n        address Proposer;\r\n        uint256 DeadLine;\r\n        uint256 validationThreshold;\r\n        uint256 VotesFor;\r\n        uint256 VotesAgainst;\r\n        address[] listOfAdmins;\r\n        uint256[] AdminsWeight;\r\n        address[] AlreadyVoted;\r\n    }\r\n\r\n    PropositionStruct _Proposition;\r\n\r\n    uint _PropositionLifeTime;\r\n    uint8 _PropositionThresholdPercentage;\r\n    uint8 _minWeightToProposePercentage;\r\n\r\n    // Proposition to change Prop parameters\r\n    struct ProposedPropositionStruct{\r\n        uint256 NewPropositionLifeTime;\r\n        uint8 NewPropositionThresholdPercentage;\r\n        uint8 NewMinWeightToProposePercentage;\r\n    }\r\n\r\n    ProposedPropositionStruct _ProposedProposition;\r\n\r\n    bool _currentPropisProp;\r\n    \r\n    // MODIFIERS\r\n    modifier isFromChairPerson(){\r\n        require(true == Library.ItIsSomeone(_chairperson), \"EC8\");\r\n        _;\r\n    }\r\n\r\n    modifier isAuthorizedToPropose(){\r\n        require(true == AuthorizedToPropose(msg.sender), \"EC22\");\r\n        _;\r\n    }\r\n\r\n    modifier isAuthorizedToCancel(){\r\n        require(msg.sender == _Proposition.Proposer, \"EC22\");\r\n        _;\r\n    }\r\n\r\n    modifier canVote(){\r\n        require(true == AuthorizedToVote(msg.sender, _Proposition.listOfAdmins), \"EC23\");\r\n         _;\r\n    }\r\n\r\n    modifier PropositionInProgress(bool yesOrno){\r\n        if(yesOrno) require(true == CheckIfPropostiionActive(), \"EC25\");\r\n        else require(false == CheckIfPropostiionActive(), \"EC24\");\r\n        _;\r\n    }\r\n\r\n    modifier HasNotAlreadyVoted(){\r\n        require(false == AddressLibrary.FindAddress(msg.sender, _Proposition.AlreadyVoted), \"EC5\");\r\n        _;\r\n    }\r\n\r\n    modifier isPropOK(uint8 PropositionThresholdPercentage, uint8 minWeightToProposePercentage){\r\n        require(100 >= PropositionThresholdPercentage, \"EC21\");\r\n        require(100 >= minWeightToProposePercentage, \"EC21\");\r\n        _;\r\n    }\r\n\r\n    // auxiliairy function\r\n    function AuthorizedToPropose(address add) internal view returns(bool) {\r\n        if(msg.sender == _chairperson) return true;\r\n        else \r\n        {\r\n            address[] memory list = GetAdminList();\r\n            uint256[] memory weights = GetAdminWeights();\r\n            uint256 id = GetId(add, list);\r\n            if(id < list.length){\r\n                if(weights[id] >= (_minWeightToProposePercentage * totalSupply() / 100)) return true;\r\n            }\r\n            return false;\r\n        }\r\n    }\r\n\r\n    function AuthorizedToVote(address add, address[] memory list) internal pure returns(bool) {\r\n        return (GetId(add, list) < list.length);\r\n    }\r\n\r\n    function GetId(address add, address[] memory list) internal pure returns(uint256)\r\n    {\r\n        return AddressLibrary.FindAddressPosition(add, list);\r\n    }\r\n\r\n    function GetAdminList() internal view returns(address[] memory){\r\n        (address[] memory list, ) = _CertisToken.TokenOwners();\r\n        return list;\r\n    }\r\n\r\n    function GetAdminWeights() internal view returns(uint256[] memory){\r\n        (, uint256[] memory weights) = _CertisToken.TokenOwners();\r\n        return weights;\r\n    }\r\n\r\n    function totalSupply() internal view returns(uint256){\r\n        return _CertisToken.totalSupply();\r\n    }\r\n\r\n    function CheckIfPropostiionActive() internal returns(bool){\r\n        if(block.timestamp < _Proposition.DeadLine)\r\n        {\r\n            return true;\r\n        }\r\n        else \r\n        {\r\n            if(address(0) != _Proposition.Proposer){\r\n                propositionExpired();\r\n                InternalCancelProposition();\r\n            } \r\n            return false;\r\n        }\r\n    }\r\n\r\n    // CONSTRUCTOR\r\n    constructor(uint256 PropositionLifeTime, uint8 PropositionThresholdPercentage, uint8 minWeightToProposePercentage){\r\n        _chairperson = msg.sender; \r\n        InternalupdateProp(PropositionLifeTime, PropositionThresholdPercentage, minWeightToProposePercentage, true);\r\n    }\r\n    \r\n    // Manage Prop Parameters\r\n    function updateProp(uint256 PropLifeTime, uint8 PropThresholdPerc, uint8 minWeightToPropPerc) external\r\n    {\r\n        InternalupdateProp(PropLifeTime, PropThresholdPerc, minWeightToPropPerc, false);\r\n    }\r\n\r\n    function InternalupdateProp(uint256 PropLifeTime, uint8 PropThresholdPerc, uint8 minWeightToPropPerc, bool fromConstructor) internal\r\n        isPropOK(PropThresholdPerc, minWeightToPropPerc)\r\n    {\r\n        if(fromConstructor){\r\n            _PropositionLifeTime = PropLifeTime;\r\n            _PropositionThresholdPercentage = PropThresholdPerc;\r\n            _minWeightToProposePercentage = minWeightToPropPerc;\r\n        }\r\n        else{\r\n            _ProposedProposition.NewPropositionLifeTime = PropLifeTime;\r\n            _ProposedProposition.NewPropositionThresholdPercentage = PropThresholdPerc;\r\n            _ProposedProposition.NewMinWeightToProposePercentage = minWeightToPropPerc;\r\n            _currentPropisProp = true;\r\n            addProposition(block.timestamp + _PropositionLifeTime, _PropositionThresholdPercentage);\r\n        }   \r\n    }\r\n\r\n    function retrievePropConfig() external view returns(uint, uint8, uint8)\r\n    {\r\n        return(_PropositionLifeTime, _PropositionThresholdPercentage, _minWeightToProposePercentage);\r\n    }\r\n\r\n    // FUNCTIONALITY\r\n    function addProposition(uint256 _DeadLine, uint8 _validationThresholdPercentage) internal\r\n        PropositionInProgress(false)\r\n        isAuthorizedToPropose()\r\n    {\r\n        _Proposition.listOfAdmins = GetAdminList();\r\n        require(0 < _Proposition.listOfAdmins.length, \"Impossible to add proposition, there are no admins\");\r\n\r\n        _Proposition.Proposer = msg.sender;\r\n        _Proposition.DeadLine = _DeadLine;\r\n        _Proposition.validationThreshold = totalSupply() * _validationThresholdPercentage / 100;\r\n        _Proposition.AdminsWeight = GetAdminWeights();\r\n    }\r\n\r\n    function cancelProposition() external\r\n        PropositionInProgress(true)\r\n        isAuthorizedToCancel()\r\n    {\r\n        InternalCancelProposition();\r\n    }\r\n\r\n    function voteProposition(bool vote) external\r\n        PropositionInProgress(true)\r\n        canVote()\r\n        HasNotAlreadyVoted()\r\n    {\r\n        if(block.timestamp < _Proposition.DeadLine)\r\n        {\r\n            _Proposition.AlreadyVoted.push(msg.sender);\r\n\r\n            if(vote){\r\n                _Proposition.VotesFor += _Proposition.AdminsWeight[GetId(msg.sender, GetAdminList())];\r\n            }\r\n            else{\r\n                _Proposition.VotesAgainst += _Proposition.AdminsWeight[GetId(msg.sender, GetAdminList())];\r\n            }\r\n\r\n            checkProposition();\r\n        }\r\n\r\n        else \r\n        {\r\n            if(_currentPropisProp){\r\n                removePropositionProp();\r\n            }\r\n            else{\r\n                propositionExpired();\r\n            }\r\n            InternalCancelProposition();\r\n        }\r\n    }\r\n\r\n    function checkProposition() internal\r\n    {\r\n        if(_Proposition.VotesFor > _Proposition.validationThreshold) \r\n        {\r\n            if(_currentPropisProp){\r\n                _PropositionLifeTime = _ProposedProposition.NewPropositionLifeTime;\r\n                _PropositionThresholdPercentage = _ProposedProposition.NewPropositionThresholdPercentage;\r\n                _minWeightToProposePercentage = _ProposedProposition.NewMinWeightToProposePercentage;\r\n                removePropositionProp();\r\n            }\r\n            else{\r\n                propositionApproved();\r\n            }\r\n            InternalCancelProposition();\r\n        }\r\n        else if(_Proposition.VotesAgainst > _Proposition.validationThreshold)\r\n        {\r\n            if(_currentPropisProp){\r\n                removePropositionProp();\r\n            }\r\n            else{\r\n                propositionRejected();\r\n            }\r\n            InternalCancelProposition();\r\n        } \r\n    }\r\n\r\n    function removePropositionProp() internal\r\n    {\r\n        delete(_ProposedProposition);\r\n        _currentPropisProp = false;\r\n    }\r\n\r\n    function InternalCancelProposition() internal\r\n    {\r\n        delete(_Proposition);\r\n    }\r\n\r\n    function retrievePropositionStatus() external view returns(address, uint256, uint256, uint256, uint256, address[] memory, uint256[] memory, address[] memory){\r\n        return (_Proposition.Proposer,\r\n            _Proposition.DeadLine,\r\n            _Proposition.validationThreshold,\r\n            _Proposition.VotesFor,\r\n            _Proposition.VotesAgainst,\r\n            _Proposition.listOfAdmins,\r\n            _Proposition.AdminsWeight,\r\n            _Proposition.AlreadyVoted\r\n        );\r\n    }\r\n\r\n    function retrieveProposition() external virtual view returns(string[] memory){}\r\n\r\n    function propositionApproved() internal virtual{}\r\n\r\n    function propositionRejected() internal virtual{}\r\n\r\n    function propositionExpired() internal virtual{}\r\n\r\n}",
  "sourcePath": "C:\\Users\\d-aam\\GitHub\\Certificates\\contracts\\Base\\TokenGovernanceBaseContract.sol",
  "compiler": {
    "name": "solc",
    "version": "0.8.6+commit.11564f7e.Emscripten.clang"
  },
  "schemaVersion": "3.3.4",
  "updatedAt": "2021-07-30T09:42:46.721Z",
  "devdoc": {
    "kind": "dev",
    "methods": {},
    "version": 1
  },
  "userdoc": {
    "kind": "user",
    "methods": {},
    "version": 1
  }
}