{
  "contractName": "Treasury",
  "abi": [
    {
      "anonymous": false,
      "inputs": [
        {
          "indexed": false,
          "internalType": "uint256",
          "name": "Id",
          "type": "uint256"
        },
        {
          "indexed": true,
          "internalType": "address",
          "name": "Proposer",
          "type": "address"
        },
        {
          "indexed": false,
          "internalType": "uint256",
          "name": "Deadline",
          "type": "uint256"
        },
        {
          "indexed": false,
          "internalType": "uint256",
          "name": "Threshold",
          "type": "uint256"
        }
      ],
      "name": "_AddedProposition",
      "type": "event"
    },
    {
      "anonymous": false,
      "inputs": [
        {
          "indexed": true,
          "internalType": "address",
          "name": "Recipient",
          "type": "address"
        },
        {
          "indexed": false,
          "internalType": "uint256",
          "name": "Amount",
          "type": "uint256"
        },
        {
          "indexed": false,
          "internalType": "uint256",
          "name": "TotalSupply",
          "type": "uint256"
        }
      ],
      "name": "_AssignDividend",
      "type": "event"
    },
    {
      "anonymous": false,
      "inputs": [
        {
          "indexed": false,
          "internalType": "uint256",
          "name": "Id",
          "type": "uint256"
        },
        {
          "indexed": true,
          "internalType": "address",
          "name": "Proposer",
          "type": "address"
        }
      ],
      "name": "_CancelledProposition",
      "type": "event"
    },
    {
      "anonymous": false,
      "inputs": [
        {
          "indexed": false,
          "internalType": "uint256",
          "name": "Public",
          "type": "uint256"
        },
        {
          "indexed": false,
          "internalType": "uint256",
          "name": "Private",
          "type": "uint256"
        },
        {
          "indexed": false,
          "internalType": "uint256",
          "name": "Provider",
          "type": "uint256"
        },
        {
          "indexed": false,
          "internalType": "uint256",
          "name": "Certificate",
          "type": "uint256"
        },
        {
          "indexed": false,
          "internalType": "uint256",
          "name": "OwnerRefund",
          "type": "uint256"
        }
      ],
      "name": "_NewPrices",
      "type": "event"
    },
    {
      "anonymous": false,
      "inputs": [
        {
          "indexed": true,
          "internalType": "address",
          "name": "Payer",
          "type": "address"
        },
        {
          "indexed": false,
          "internalType": "uint256",
          "name": "Amount",
          "type": "uint256"
        },
        {
          "indexed": false,
          "internalType": "uint256",
          "name": "AggregatedAmount",
          "type": "uint256"
        }
      ],
      "name": "_Pay",
      "type": "event"
    },
    {
      "anonymous": false,
      "inputs": [
        {
          "indexed": false,
          "internalType": "uint256",
          "name": "Id",
          "type": "uint256"
        },
        {
          "indexed": true,
          "internalType": "address",
          "name": "Proposer",
          "type": "address"
        },
        {
          "indexed": false,
          "internalType": "uint256",
          "name": "VotesFor",
          "type": "uint256"
        },
        {
          "indexed": false,
          "internalType": "uint256",
          "name": "VotesAgainst",
          "type": "uint256"
        }
      ],
      "name": "_PropositionApproved",
      "type": "event"
    },
    {
      "anonymous": false,
      "inputs": [
        {
          "indexed": false,
          "internalType": "uint256",
          "name": "Id",
          "type": "uint256"
        },
        {
          "indexed": true,
          "internalType": "address",
          "name": "Proposer",
          "type": "address"
        },
        {
          "indexed": false,
          "internalType": "uint256",
          "name": "VotesFor",
          "type": "uint256"
        },
        {
          "indexed": false,
          "internalType": "uint256",
          "name": "VotesAgainst",
          "type": "uint256"
        }
      ],
      "name": "_PropositionRejected",
      "type": "event"
    },
    {
      "anonymous": false,
      "inputs": [
        {
          "indexed": false,
          "internalType": "uint256",
          "name": "Id",
          "type": "uint256"
        },
        {
          "indexed": true,
          "internalType": "address",
          "name": "Voter",
          "type": "address"
        },
        {
          "indexed": false,
          "internalType": "bool",
          "name": "Vote",
          "type": "bool"
        },
        {
          "indexed": false,
          "internalType": "uint256",
          "name": "AmountTokens",
          "type": "uint256"
        }
      ],
      "name": "_PropositionVote",
      "type": "event"
    },
    {
      "anonymous": false,
      "inputs": [
        {
          "indexed": true,
          "internalType": "address",
          "name": "Owner",
          "type": "address"
        },
        {
          "indexed": false,
          "internalType": "uint256",
          "name": "Amount",
          "type": "uint256"
        },
        {
          "indexed": false,
          "internalType": "uint256",
          "name": "TotalOwners",
          "type": "uint256"
        }
      ],
      "name": "_Refund",
      "type": "event"
    },
    {
      "anonymous": false,
      "inputs": [
        {
          "indexed": true,
          "internalType": "uint256",
          "name": "Id",
          "type": "uint256"
        },
        {
          "indexed": false,
          "internalType": "address",
          "name": "From",
          "type": "address"
        },
        {
          "indexed": false,
          "internalType": "address",
          "name": "To",
          "type": "address"
        },
        {
          "indexed": false,
          "internalType": "uint256",
          "name": "Amount",
          "type": "uint256"
        }
      ],
      "name": "_UsedTokensTransfered",
      "type": "event"
    },
    {
      "anonymous": false,
      "inputs": [
        {
          "indexed": true,
          "internalType": "address",
          "name": "Recipient",
          "type": "address"
        },
        {
          "indexed": false,
          "internalType": "uint256",
          "name": "Amount",
          "type": "uint256"
        }
      ],
      "name": "_Withdraw",
      "type": "event"
    },
    {
      "inputs": [
        {
          "internalType": "address",
          "name": "chairPerson",
          "type": "address"
        },
        {
          "internalType": "address",
          "name": "managerContractAddress",
          "type": "address"
        },
        {
          "internalType": "string",
          "name": "contractName",
          "type": "string"
        },
        {
          "internalType": "string",
          "name": "contractVersion",
          "type": "string"
        }
      ],
      "name": "StdPropositionBaseContract_init",
      "outputs": [],
      "stateMutability": "nonpayable",
      "type": "function"
    },
    {
      "inputs": [],
      "name": "cancelProposition",
      "outputs": [],
      "stateMutability": "nonpayable",
      "type": "function"
    },
    {
      "inputs": [
        {
          "internalType": "address",
          "name": "from",
          "type": "address"
        },
        {
          "internalType": "address",
          "name": "to",
          "type": "address"
        },
        {
          "internalType": "uint256",
          "name": "amount",
          "type": "uint256"
        }
      ],
      "name": "onTokenBalanceChanged",
      "outputs": [],
      "stateMutability": "nonpayable",
      "type": "function"
    },
    {
      "inputs": [],
      "name": "retrieveChairPerson",
      "outputs": [
        {
          "internalType": "address",
          "name": "",
          "type": "address"
        }
      ],
      "stateMutability": "view",
      "type": "function"
    },
    {
      "inputs": [],
      "name": "retrieveContractConfig",
      "outputs": [
        {
          "internalType": "string",
          "name": "",
          "type": "string"
        },
        {
          "internalType": "string",
          "name": "",
          "type": "string"
        }
      ],
      "stateMutability": "view",
      "type": "function"
    },
    {
      "inputs": [],
      "name": "retrieveManagerContract",
      "outputs": [
        {
          "internalType": "address",
          "name": "",
          "type": "address"
        }
      ],
      "stateMutability": "view",
      "type": "function"
    },
    {
      "inputs": [],
      "name": "retrieveNextPropId",
      "outputs": [
        {
          "internalType": "uint256",
          "name": "",
          "type": "uint256"
        }
      ],
      "stateMutability": "view",
      "type": "function"
    },
    {
      "inputs": [
        {
          "internalType": "address",
          "name": "addr",
          "type": "address"
        },
        {
          "internalType": "uint256",
          "name": "nonce",
          "type": "uint256"
        }
      ],
      "name": "retrieveNonce",
      "outputs": [
        {
          "internalType": "bool",
          "name": "",
          "type": "bool"
        }
      ],
      "stateMutability": "view",
      "type": "function"
    },
    {
      "inputs": [],
      "name": "retrieveProposition",
      "outputs": [
        {
          "internalType": "bytes32[]",
          "name": "",
          "type": "bytes32[]"
        }
      ],
      "stateMutability": "view",
      "type": "function"
    },
    {
      "inputs": [],
      "name": "retrievePropositionStatus",
      "outputs": [
        {
          "internalType": "address",
          "name": "",
          "type": "address"
        },
        {
          "internalType": "uint256",
          "name": "",
          "type": "uint256"
        },
        {
          "internalType": "uint256",
          "name": "",
          "type": "uint256"
        },
        {
          "internalType": "uint256",
          "name": "",
          "type": "uint256"
        },
        {
          "internalType": "uint256",
          "name": "",
          "type": "uint256"
        }
      ],
      "stateMutability": "view",
      "type": "function"
    },
    {
      "inputs": [
        {
          "internalType": "uint256",
          "name": "PropId",
          "type": "uint256"
        },
        {
          "internalType": "address",
          "name": "voter",
          "type": "address"
        }
      ],
      "name": "retrieveVotesForVoter",
      "outputs": [
        {
          "internalType": "uint256",
          "name": "",
          "type": "uint256"
        }
      ],
      "stateMutability": "view",
      "type": "function"
    },
    {
      "inputs": [
        {
          "internalType": "bytes32[]",
          "name": "NewValues",
          "type": "bytes32[]"
        }
      ],
      "name": "sendProposition",
      "outputs": [],
      "stateMutability": "nonpayable",
      "type": "function"
    },
    {
      "inputs": [
        {
          "internalType": "bool",
          "name": "vote",
          "type": "bool"
        }
      ],
      "name": "voteProposition",
      "outputs": [],
      "stateMutability": "nonpayable",
      "type": "function"
    },
    {
      "inputs": [
        {
          "internalType": "address",
          "name": "voter",
          "type": "address"
        },
        {
          "internalType": "uint256",
          "name": "propID",
          "type": "uint256"
        },
        {
          "internalType": "bool",
          "name": "vote",
          "type": "bool"
        },
        {
          "internalType": "uint256",
          "name": "nonce",
          "type": "uint256"
        },
        {
          "internalType": "uint256",
          "name": "deadline",
          "type": "uint256"
        },
        {
          "internalType": "bytes",
          "name": "signature",
          "type": "bytes"
        }
      ],
      "name": "votePropositionOnBehalfOf",
      "outputs": [],
      "stateMutability": "nonpayable",
      "type": "function"
    },
    {
      "inputs": [
        {
          "internalType": "uint256",
          "name": "PublicPriceUSD",
          "type": "uint256"
        },
        {
          "internalType": "uint256",
          "name": "PrivatePriceUSD",
          "type": "uint256"
        },
        {
          "internalType": "uint256",
          "name": "ProviderPriceUSD",
          "type": "uint256"
        },
        {
          "internalType": "uint256",
          "name": "CertificatePriceUSD",
          "type": "uint256"
        },
        {
          "internalType": "uint256",
          "name": "OwnerRefundFeeUSD",
          "type": "uint256"
        },
        {
          "internalType": "address",
          "name": "managerContractAddress",
          "type": "address"
        },
        {
          "internalType": "address",
          "name": "chairPerson",
          "type": "address"
        },
        {
          "internalType": "string",
          "name": "contractName",
          "type": "string"
        },
        {
          "internalType": "string",
          "name": "contractVersion",
          "type": "string"
        }
      ],
      "name": "Treasury_init",
      "outputs": [],
      "stateMutability": "nonpayable",
      "type": "function"
    },
    {
      "inputs": [
        {
          "internalType": "enum Library.Prices",
          "name": "price",
          "type": "uint8"
        }
      ],
      "name": "pay",
      "outputs": [],
      "stateMutability": "payable",
      "type": "function"
    },
    {
      "inputs": [
        {
          "internalType": "address",
          "name": "addr",
          "type": "address"
        },
        {
          "internalType": "uint256",
          "name": "numberOfOwners",
          "type": "uint256"
        }
      ],
      "name": "getRefund",
      "outputs": [],
      "stateMutability": "nonpayable",
      "type": "function"
    },
    {
      "inputs": [
        {
          "internalType": "uint256",
          "name": "amount",
          "type": "uint256"
        }
      ],
      "name": "withdraw",
      "outputs": [],
      "stateMutability": "nonpayable",
      "type": "function"
    },
    {
      "inputs": [],
      "name": "withdrawAll",
      "outputs": [],
      "stateMutability": "nonpayable",
      "type": "function"
    },
    {
      "inputs": [
        {
          "internalType": "address",
          "name": "addr",
          "type": "address"
        }
      ],
      "name": "retrieveLastAssigned",
      "outputs": [
        {
          "internalType": "uint256",
          "name": "",
          "type": "uint256"
        }
      ],
      "stateMutability": "view",
      "type": "function"
    },
    {
      "inputs": [
        {
          "internalType": "address",
          "name": "addr",
          "type": "address"
        }
      ],
      "name": "retrieveFullBalance",
      "outputs": [
        {
          "internalType": "uint256",
          "name": "",
          "type": "uint256"
        }
      ],
      "stateMutability": "view",
      "type": "function"
    },
    {
      "inputs": [],
      "name": "retrieveSettings",
      "outputs": [
        {
          "internalType": "uint256",
          "name": "",
          "type": "uint256"
        },
        {
          "internalType": "uint256",
          "name": "",
          "type": "uint256"
        },
        {
          "internalType": "uint256",
          "name": "",
          "type": "uint256"
        },
        {
          "internalType": "uint256",
          "name": "",
          "type": "uint256"
        },
        {
          "internalType": "uint256",
          "name": "",
          "type": "uint256"
        }
      ],
      "stateMutability": "view",
      "type": "function"
    },
    {
      "inputs": [],
      "name": "retrieveAggregatedAmount",
      "outputs": [
        {
          "internalType": "uint256",
          "name": "",
          "type": "uint256"
        }
      ],
      "stateMutability": "view",
      "type": "function"
    }
  ],
  "bytecode": "0x608060405234801561001057600080fd5b5061340c806100206000396000f3fe6080604052600436106101105760003560e01c806304cc67a9146101155780630f13bbc9146101395780632e1a7d4d1461015b5780633c7df55d1461017b5780633feca4ca1461019b5780634044adb2146101f157806355457ee9146102345780635b362e841461024957806368fe2d49146102765780637faa3d6f14610296578063840f6d17146102b6578063853828b61461030457806391f9167114610319578063a93316f514610339578063b049473f1461035b578063d2116a0214610388578063d5920d49146103ab578063d6184d15146103c0578063db85bc4d146103f6578063e83988ff14610414578063ea1ff61714610434578063eb1e2a4114610454578063f0c9325e14610474575b600080fd5b34801561012157600080fd5b50600b545b6040519081526020015b60405180910390f35b34801561014557600080fd5b50610159610154366004612b28565b610487565b005b34801561016757600080fd5b50610159610176366004612db5565b61050c565b34801561018757600080fd5b50610159610196366004612bb0565b610518565b3480156101a757600080fd5b506101e16101b6366004612bf1565b6001600160a01b03919091166000908152600260209081526040808320938352929052205460ff1690565b6040519015158152602001610130565b3480156101fd57600080fd5b5061012661020c366004612de7565b6000918252600c602090815260408084206001600160a01b0393909316845291905290205490565b34801561024057600080fd5b50610159610618565b34801561025557600080fd5b506003546201000090046001600160a01b03165b604051610130919061302b565b34801561028257600080fd5b50610159610291366004612e17565b6106ea565b3480156102a257600080fd5b506101596102b1366004612c1d565b610786565b3480156102c257600080fd5b50600654600754600854600954600a54604080516001600160a01b0390961686526020860194909452928401919091526060830152608082015260a001610130565b34801561031057600080fd5b506101596107a6565b34801561032557600080fd5b50610159610334366004612d5a565b6107bc565b34801561034557600080fd5b5061034e6107c6565b60405161013091906130cc565b34801561036757600080fd5b50600e54601054601154600f54601254604051610130959493929190613216565b34801561039457600080fd5b5061039d61081e565b604051610130929190613123565b3480156103b757600080fd5b50601354610126565b3480156103cc57600080fd5b506101266103db366004612aee565b6001600160a01b031660009081526014602052604090205490565b34801561040257600080fd5b506004546001600160a01b0316610269565b34801561042057600080fd5b5061012661042f366004612aee565b610945565b34801561044057600080fd5b5061015961044f366004612cae565b610956565b34801561046057600080fd5b5061015961046f366004612bf1565b6109bc565b610159610482366004612d94565b610c08565b600354610100900460ff16806104a0575060035460ff16155b6104c55760405162461bcd60e51b81526004016104bc90613151565b60405180910390fd5b600354610100900460ff161580156104e7576003805461ffff19166101011790555b6104f385858585610f40565b8015610505576003805461ff00191690555b5050505050565b61051581610fca565b50565b3373__Library_______________________________6337ea306382600360029054906101000a90046001600160a01b03166001600160a01b031663da3dce266040518163ffffffff1660e01b815260040160206040518083038186803b15801561058257600080fd5b505afa158015610596573d6000803e3d6000fd5b505050506040513d601f19601f820116820180604052508101906105ba9190612b0b565b6040518363ffffffff1660e01b81526004016105d792919061303f565b60006040518083038186803b1580156105ef57600080fd5b505af4158015610603573d6000803e3d6000fd5b505050506106128484846111ac565b50505050565b6001610623816111ec565b6006546040516337ea306360e01b8152339173__Library_______________________________916337ea3063916106699185916001600160a01b03169060040161303f565b60006040518083038186803b15801561068157600080fd5b505af4158015610695573d6000803e3d6000fd5b505050506106a1611270565b6006546005546040519081526001600160a01b03909116907f1fe8aec10c0a50fa765076161e08c1f961ced69594ff45cf7d559f593afe14799060200160405180910390a25050565b600354610100900460ff1680610703575060035460ff16155b61071f5760405162461bcd60e51b81526004016104bc90613151565b600354610100900460ff16158015610741576003805461ffff19166101011790555b898661074d828261129b565b61075986888787610487565b6107668c8c8c8c8c6112d3565b5050801561077a576003805461ff00191690555b50505050505050505050565b6107948686868686866112ea565b61079e8685611449565b505050505050565b60006107b133611560565b905061051581610fca565b6105153382611449565b6060600d80548060200260200160405190810160405280929190818152602001828054801561081457602002820191906000526020600020905b815481526020019060010190808311610800575b5050505050905090565b6060806000600181805461083190613305565b80601f016020809104026020016040519081016040528092919081815260200182805461085d90613305565b80156108aa5780601f1061087f576101008083540402835291602001916108aa565b820191906000526020600020905b81548152906001019060200180831161088d57829003601f168201915b505050505091508080546108bd90613305565b80601f01602080910402602001604051908101604052809291908181526020018280546108e990613305565b80156109365780601f1061090b57610100808354040283529160200191610936565b820191906000526020600020905b81548152906001019060200180831161091957829003601f168201915b50505050509050915091509091565b600061095082611560565b92915050565b61095f81611585565b6109676116d5565b60005b81518110156109b857600d82828151811061098757610987613387565b60209081029190910181015182546001810184556000938452919092200155806109b081613340565b91505061096a565b5050565b3373__Library_______________________________6337ea306382600360029054906101000a90046001600160a01b03166001600160a01b031663aa33380a6040518163ffffffff1660e01b815260040160206040518083038186803b158015610a2657600080fd5b505afa158015610a3a573d6000803e3d6000fd5b505050506040513d601f19601f82011682018060405250810190610a5e9190612b0b565b6040518363ffffffff1660e01b8152600401610a7b92919061303f565b60006040518083038186803b158015610a9357600080fd5b505af4158015610aa7573d6000803e3d6000fd5b505050506000600360029054906101000a90046001600160a01b03166001600160a01b031663602554156040518163ffffffff1660e01b815260040160206040518083038186803b158015610afb57600080fd5b505afa158015610b0f573d6000803e3d6000fd5b505050506040513d601f19601f82011682018060405250810190610b339190612b0b565b6001600160a01b0316638d12420b6012546040518263ffffffff1660e01b8152600401610b6291815260200190565b60206040518083038186803b158015610b7a57600080fd5b505afa158015610b8e573d6000803e3d6000fd5b505050506040513d601f19601f82011682018060405250810190610bb29190612dce565b9050610bbf848285611a29565b836001600160a01b03167f885157c8ed39c012c67730d5e5d229068f71cac97d1658f5bf6593c8246dcc3c8285604051610bfa9291906131f2565b60405180910390a250505050565b3481600019816003811115610c1f57610c1f613371565b610c2c5750600e54610c77565b816003811115610c3e57610c3e613371565b60011415610c4f5750601054610c77565b816003811115610c6157610c61613371565b60021415610c725750600f54610c77565b506011545b6000600360029054906101000a90046001600160a01b03166001600160a01b031663602554156040518163ffffffff1660e01b815260040160206040518083038186803b158015610cc757600080fd5b505afa158015610cdb573d6000803e3d6000fd5b505050506040513d601f19601f82011682018060405250810190610cff9190612b0b565b6001600160a01b0316638d12420b836040518263ffffffff1660e01b8152600401610d2c91815260200190565b60206040518083038186803b158015610d4457600080fd5b505afa158015610d58573d6000803e3d6000fd5b505050506040513d601f19601f82011682018060405250810190610d7c9190612dce565b905080841015610db75760405162461bcd60e51b81526004016104bc906020808252600490820152634543322d60e01b604082015260600190565b346000866003811115610dcc57610dcc613371565b1415610ee457600360029054906101000a90046001600160a01b03166001600160a01b031663602554156040518163ffffffff1660e01b815260040160206040518083038186803b158015610e2057600080fd5b505afa158015610e34573d6000803e3d6000fd5b505050506040513d601f19601f82011682018060405250810190610e589190612b0b565b6001600160a01b0316638d12420b6012546040518263ffffffff1660e01b8152600401610e8791815260200190565b60206040518083038186803b158015610e9f57600080fd5b505afa158015610eb3573d6000803e3d6000fd5b505050506040513d601f19601f82011682018060405250810190610ed79190612dce565b610ee190826132c2565b90505b8060136000828254610ef69190613269565b909155505060135460405133917faef711f818f5d24f55a9c2d7da0afa5edd0420e1505ff8e60c344ce836e3e86e91610f309134916131f2565b60405180910390a2505050505050565b600354610100900460ff1680610f59575060035460ff16155b610f755760405162461bcd60e51b81526004016104bc90613151565b600354610100900460ff16158015610f97576003805461ffff19166101011790555b610fa084611ac3565b600480546001600160a01b0319166001600160a01b0387161790556000600b556104f38383611b51565b803381610fd682611560565b101561100c5760405162461bcd60e51b8152602060048201526005602482015264454332302d60d81b60448201526064016104bc565b61101533611b78565b600061102033611bfe565b905060008061102e33611c6d565b9092509050600061103f82886132a3565b61104990846132c2565b905060005b84518110156110d2576110c0336110a13388858151811061107157611071613387565b60200260200101516001600160a01b03919091166000908152601560209081526040808320938352929052205490565b8784815181106110b3576110b3613387565b6020026020010151611d83565b806110ca81613340565b91505061104e565b506110de338284611a29565b604051600090819033908a908381818185875af1925050503d8060008114611122576040519150601f19603f3d011682016040523d82523d6000602084013e611127565b606091505b5091509150818160405160200161113e9190612fd8565b6040516020818303038152906040529061116b5760405162461bcd60e51b81526004016104bc9190613110565b5060405189815233907f732ea8a38f70c2018ed8dfd6e97bf6381f60102061beae0ac4d9a5abd15a06029060200160405180910390a2505050505050505050565b6111b7838383611f79565b6001600160a01b038316156111cf576111cf83611b78565b6001600160a01b038216156111e7576111e782611b78565b505050565b8015611233576111fa611f96565b15156001146105155760405162461bcd60e51b8152602060048201526005602482015264454332352d60d81b60448201526064016104bc565b61123b611f96565b156105155760405162461bcd60e51b8152602060048201526005602482015264454332342d60d81b60448201526064016104bc565b60006005819055600680546001600160a01b0319169055600781905560088190556009819055600a55565b808210156109b85760405162461bcd60e51b8152602060048201526005602482015264454332312d60d81b60448201526064016104bc565b600e94909455601092909255601155600f55601255565b816112f481611fd0565b86846113008282612007565b60055488146113395760405162461bcd60e51b8152602060048201526005602482015264454333352d60d81b60448201526064016104bc565b60405163432f9a5560e01b815273__SignatureLibrary______________________9063432f9a5590611380908c908c908c908c908c908c90600090600190600401613059565b60206040518083038186803b15801561139857600080fd5b505af41580156113ac573d6000803e3d6000fd5b505050506040513d601f19601f820116820180604052508101906113d09190612d77565b15156001146114095760405162461bcd60e51b8152602060048201526005602482015264454333322d60d81b60448201526064016104bc565b61143e89876001600160a01b03909116600090815260026020908152604080832093835292905220805460ff19166001179055565b505050505050505050565b6001611454816111ec565b600554839060006114658383612063565b90506000811161149f5760405162461bcd60e51b8152602060048201526005602482015264454332332d60d81b60448201526064016104bc565b60006114b087600560000154612063565b905085156114d85780600560040160008282546114cd9190613269565b909155506114f29050565b806005800160008282546114ec9190613269565b90915550505b6005546115009088836120a0565b60055460408051918252871515602083015281018290526001600160a01b038816907f50f654d58981575c05e369cb129aeacb01e1b036af429380242cfc5d1a4b743f9060600160405180910390a26115576120d2565b50505050505050565b600080600061156e846121a8565b909250905061157d8183613281565b949350505050565b73__UintLibrary___________________________630bd4715e826000815181106115b2576115b2613387565b60200260200101516040518263ffffffff1660e01b81526004016115d891815260200190565b60206040518083038186803b1580156115f057600080fd5b505af4158015611604573d6000803e3d6000fd5b505050506040513d601f19601f820116820180604052508101906116289190612dce565b73__UintLibrary___________________________630bd4715e8360048151811061165557611655613387565b60200260200101516040518263ffffffff1660e01b815260040161167b91815260200190565b60206040518083038186803b15801561169357600080fd5b505af41580156116a7573d6000803e3d6000fd5b505050506040513d601f19601f820116820180604052508101906116cb9190612dce565b6111e7828261129b565b60006116e0816111ec565b60045433906000906001600160a01b031682141561170057506001611839565b600061170b8361220a565b90506000600360029054906101000a90046001600160a01b03166001600160a01b03166387552a0d6040518163ffffffff1660e01b815260040160206040518083038186803b15801561175d57600080fd5b505afa158015611771573d6000803e3d6000fd5b505050506040513d601f19601f820116820180604052508101906117959190612b0b565b6001600160a01b031663b049473f6040518163ffffffff1660e01b815260040160606040518083038186803b1580156117cd57600080fd5b505afa1580156117e1573d6000803e3d6000fd5b505050506040513d601f19601f820116820180604052508101906118059190612ed0565b92505050606461181361230d565b6118209060ff84166132a3565b61182a9190613281565b82111561183657600192505b50505b6001811515146118735760405162461bcd60e51b8152602060048201526005602482015264454332322d60d81b60448201526064016104bc565b600080600360029054906101000a90046001600160a01b03166001600160a01b03166387552a0d6040518163ffffffff1660e01b815260040160206040518083038186803b1580156118c457600080fd5b505afa1580156118d8573d6000803e3d6000fd5b505050506040513d601f19601f820116820180604052508101906118fc9190612b0b565b6001600160a01b031663b049473f6040518163ffffffff1660e01b815260040160606040518083038186803b15801561193457600080fd5b505afa158015611948573d6000803e3d6000fd5b505050506040513d601f19601f8201168201806040525081019061196c9190612ed0565b50600680546001600160a01b03191633179055909250905061198e8242613269565b600755606460ff821661199f61230d565b6119a991906132a3565b6119b39190613281565b600855600b805460058190559060006119cb83613340565b90915550506006546005546007546008546040516001600160a01b03909416937f472501d19bf75639b2e316cd36f8568b0c3ab943b82a87de3c086c98c1929df993611a1a9390929091613200565b60405180910390a25050505050565b81156111e7576001600160a01b0383166000908152601560209081526040808320848452909152902054611a86576001600160a01b0383166000908152601560209081526040822060019081018054918201815583529120018190555b6001600160a01b038316600090815260156020908152604080832084845290915281208054849290611ab9908490613269565b9091555050505050565b600354610100900460ff1680611adc575060035460ff16155b611af85760405162461bcd60e51b81526004016104bc90613151565b600354610100900460ff16158015611b1a576003805461ffff19166101011790555b6003805462010000600160b01b031916620100006001600160a01b0385160217905580156109b8576003805461ff00191690555050565b8151611b649060009060208501906129ae565b5080516111e79060019060208401906129ae565b600080611b848361240a565b909250905081156111e7576013546001600160a01b038416600090815260146020526040902055611bb6838383611a29565b826001600160a01b03167fe983a49d27e04c64952da756088988cab0349d02969d01e8fecd907888b2e1208383604051611bf19291906131f2565b60405180910390a2505050565b6001600160a01b038116600090815260156020908152604091829020600101805483518184028101840190945280845260609392830182828015611c6157602002820191906000526020600020905b815481526020019060010190808311611c4d575b50505050509050919050565b6000806000611c7b84611bfe565b9050600073__UintLibrary___________________________63f254becc836040518263ffffffff1660e01b8152600401611cb691906130cc565b60206040518083038186803b158015611cce57600080fd5b505af4158015611ce2573d6000803e3d6000fd5b505050506040513d601f19601f82011682018060405250810190611d069190612dce565b90506000805b8351811015611d7857838181518110611d2757611d27613387565b602002602001015183611d468987858151811061107157611071613387565b611d5091906132a3565b611d5a9190613281565b611d649083613269565b915080611d7081613340565b915050611d0c565b509590945092505050565b6001600160a01b0383166000908152601560209081526040808320848452909152902054821115611e015760405162461bcd60e51b815260206004820152602260248201527f4e6f7420656e6f7567682062616c616e636520666f722074686973206661637460448201526137b960f11b60648201526084016104bc565b6001600160a01b038316600090815260156020908152604080832084845290915281208054849290611e349084906132c2565b90915550506001600160a01b03831660009081526015602090815260408083208484529091529020546111e7576001600160a01b0383166000908152601560205260409081902090516362fe358160e11b815273__UintLibrary___________________________9163cffd93cd91839163c5fc6b0291611ebf91879160019091019060040161319f565b60206040518083038186803b158015611ed757600080fd5b505af4158015611eeb573d6000803e3d6000fd5b505050506040513d601f19601f82011682018060405250810190611f0f9190612dce565b6001600160a01b0386166000908152601560205260409081902090516001600160e01b031960e085901b168152611f4d9291600101906004016131f2565b60006040518083038186803b158015611f6557600080fd5b505af4158015611557573d6000803e3d6000fd5b611f81611f96565b1515600114156111e7576111e7838383612481565b600754600090421015611fa95750600190565b6006546001600160a01b031615611fca57611fc26125e8565b611fca611270565b50600090565b8042106105155760405162461bcd60e51b8152602060048201526005602482015264454333332d60d81b60448201526064016104bc565b6001600160a01b038216600090815260026020908152604080832084845290915290205460ff16156109b85760405162461bcd60e51b8152602060048201526005602482015264454333342d60d81b60448201526064016104bc565b6000818152600c602090815260408083206001600160a01b038616845290915281205461208f8461220a565b61209991906132c2565b9392505050565b6000838152600c602090815260408083206001600160a01b038616845290915281208054839290611ab9908490613269565b60085460095410612141576120e56125f0565b6120ed611270565b600654600554600954600a546040516001600160a01b03909416937f23ca0034cf5aad32571b4a492e9598ea8a490e1643a60970e3cdc6933b55e49f936121379390929091613200565b60405180910390a2565b600854600a54106121a6576121546125e8565b61215c611270565b600654600554600954600a546040516001600160a01b03909416937fa58eb6daa3c62c3f883973c4035e5bd3e81aa627c8379de068a7de42df122be2936121379390929091613200565b565b6000806000806121b785611c6d565b915091506000806121c78761240a565b909250905060006121d884846132a3565b6121e283876132a3565b6121ec9190613269565b905060006121fa83866132a3565b9199919850909650505050505050565b6000600360029054906101000a90046001600160a01b03166001600160a01b031663da3dce266040518163ffffffff1660e01b815260040160206040518083038186803b15801561225a57600080fd5b505afa15801561226e573d6000803e3d6000fd5b505050506040513d601f19601f820116820180604052508101906122929190612b0b565b6001600160a01b03166370a08231836040518263ffffffff1660e01b81526004016122bd919061302b565b60206040518083038186803b1580156122d557600080fd5b505afa1580156122e9573d6000803e3d6000fd5b505050506040513d601f19601f820116820180604052508101906109509190612dce565b6000600360029054906101000a90046001600160a01b03166001600160a01b031663da3dce266040518163ffffffff1660e01b815260040160206040518083038186803b15801561235d57600080fd5b505afa158015612371573d6000803e3d6000fd5b505050506040513d601f19601f820116820180604052508101906123959190612b0b565b6001600160a01b03166318160ddd6040518163ffffffff1660e01b815260040160206040518083038186803b1580156123cd57600080fd5b505afa1580156123e1573d6000803e3d6000fd5b505050506040513d601f19601f820116820180604052508101906124059190612dce565b905090565b6013546001600160a01b038216600090815260146020526040812054909182918291111561246e5761243b8461220a565b6001600160a01b03851660009081526014602052604090205460135461246191906132c2565b61246b91906132a3565b90505b8061247761230d565b9250925050915091565b6001600160a01b038316158015906124bd57506005546000908152600c602090815260408083206001600160a01b038716845290915290205415155b156111e7576005546000908152600c602090815260408083206001600160a01b0387168452909152902054819081111561251957506005546000908152600c602090815260408083206001600160a01b03871684529091529020545b6005546000908152600c602090815260408083206001600160a01b03881684529091528120805483929061254e9084906132c2565b90915550506001600160a01b0383161561259d576005546000908152600c602090815260408083206001600160a01b038716845290915281208054839290612597908490613269565b90915550505b600554604080516001600160a01b038088168252861660208201529081018390527f65fbd5e5dd32bea4aeca85bd0be0abf0e489d655dee888a7510d43b06dda2dba90606001610bfa565b6121a66125f8565b6125e8612604565b6121a6600d6000612a32565b600073__UintLibrary___________________________630bd4715e600d60008154811061263457612634613387565b90600052602060002001546040518263ffffffff1660e01b815260040161265d91815260200190565b60206040518083038186803b15801561267557600080fd5b505af4158015612689573d6000803e3d6000fd5b505050506040513d601f19601f820116820180604052508101906126ad9190612dce565b9050600073__UintLibrary___________________________630bd4715e600d6001815481106126df576126df613387565b90600052602060002001546040518263ffffffff1660e01b815260040161270891815260200190565b60206040518083038186803b15801561272057600080fd5b505af4158015612734573d6000803e3d6000fd5b505050506040513d601f19601f820116820180604052508101906127589190612dce565b9050600073__UintLibrary___________________________630bd4715e600d60028154811061278a5761278a613387565b90600052602060002001546040518263ffffffff1660e01b81526004016127b391815260200190565b60206040518083038186803b1580156127cb57600080fd5b505af41580156127df573d6000803e3d6000fd5b505050506040513d601f19601f820116820180604052508101906128039190612dce565b9050600073__UintLibrary___________________________630bd4715e600d60038154811061283557612835613387565b90600052602060002001546040518263ffffffff1660e01b815260040161285e91815260200190565b60206040518083038186803b15801561287657600080fd5b505af415801561288a573d6000803e3d6000fd5b505050506040513d601f19601f820116820180604052508101906128ae9190612dce565b9050600073__UintLibrary___________________________630bd4715e600d6004815481106128e0576128e0613387565b90600052602060002001546040518263ffffffff1660e01b815260040161290991815260200190565b60206040518083038186803b15801561292157600080fd5b505af4158015612935573d6000803e3d6000fd5b505050506040513d601f19601f820116820180604052508101906129599190612dce565b905061296885858585856112d3565b7fbe8847d52fb3c03e3414e96d164a23594063f5b6cf01428e61c38bfbbc34ef19858585858560405161299f959493929190613216565b60405180910390a15050505050565b8280546129ba90613305565b90600052602060002090601f0160209004810192826129dc5760008555612a22565b82601f106129f557805160ff1916838001178555612a22565b82800160010185558215612a22579182015b82811115612a22578251825591602001919060010190612a07565b50612a2e929150612a4c565b5090565b508054600082559060005260206000209081019061051591905b5b80821115612a2e5760008155600101612a4d565b60006001600160401b03831115612a7a57612a7a61339d565b612a8d601f8401601f1916602001613239565b9050828152838383011115612aa157600080fd5b828260208301376000602084830101529392505050565b600082601f830112612ac957600080fd5b61209983833560208501612a61565b805160ff81168114612ae957600080fd5b919050565b600060208284031215612b0057600080fd5b8135612099816133b3565b600060208284031215612b1d57600080fd5b8151612099816133b3565b60008060008060808587031215612b3e57600080fd5b8435612b49816133b3565b93506020850135612b59816133b3565b925060408501356001600160401b0380821115612b7557600080fd5b612b8188838901612ab8565b93506060870135915080821115612b9757600080fd5b50612ba487828801612ab8565b91505092959194509250565b600080600060608486031215612bc557600080fd5b8335612bd0816133b3565b92506020840135612be0816133b3565b929592945050506040919091013590565b60008060408385031215612c0457600080fd5b8235612c0f816133b3565b946020939093013593505050565b60008060008060008060c08789031215612c3657600080fd5b8635612c41816133b3565b9550602087013594506040870135612c58816133c8565b9350606087013592506080870135915060a08701356001600160401b03811115612c8157600080fd5b8701601f81018913612c9257600080fd5b612ca189823560208401612a61565b9150509295509295509295565b60006020808385031215612cc157600080fd5b82356001600160401b0380821115612cd857600080fd5b818501915085601f830112612cec57600080fd5b813581811115612cfe57612cfe61339d565b8060051b9150612d0f848301613239565b8181528481019084860184860187018a1015612d2a57600080fd5b600095505b83861015612d4d578035835260019590950194918601918601612d2f565b5098975050505050505050565b600060208284031215612d6c57600080fd5b8135612099816133c8565b600060208284031215612d8957600080fd5b8151612099816133c8565b600060208284031215612da657600080fd5b81356004811061209957600080fd5b600060208284031215612dc757600080fd5b5035919050565b600060208284031215612de057600080fd5b5051919050565b60008060408385031215612dfa57600080fd5b823591506020830135612e0c816133b3565b809150509250929050565b60008060008060008060008060006101208a8c031215612e3657600080fd5b8935985060208a0135975060408a0135965060608a0135955060808a0135945060a08a0135612e64816133b3565b935060c08a0135612e74816133b3565b925060e08a01356001600160401b0380821115612e9057600080fd5b612e9c8d838e01612ab8565b93506101008c0135915080821115612eb357600080fd5b50612ec08c828d01612ab8565b9150509295985092959850929598565b600080600060608486031215612ee557600080fd5b83519250612ef560208501612ad8565b9150612f0360408501612ad8565b90509250925092565b60008151808452612f248160208601602086016132d9565b601f01601f19169290920160200192915050565b8054600090600181811c9080831680612f5257607f831692505b6020808410821415612f7457634e487b7160e01b600052602260045260246000fd5b83885260208801828015612f8f5760018114612fa057612fcb565b60ff19871682528282019750612fcb565b60008981526020902060005b87811015612fc557815484820152908601908401612fac565b83019850505b5050505050505092915050565b7f4572726f72207472616e73666572696e672066756e647320746f206164647265815264039b9901d160dd1b60208201526000825161301e8160258501602087016132d9565b9190910160250192915050565b6001600160a01b0391909116815260200190565b6001600160a01b0392831681529116602082015260400190565b600061010060018060a01b038b16835289602084015288151560408401528760608401528660808401528060a084015261309581840187612f0c565b905082810360c08401526130a98186612f38565b905082810360e08401526130bd8185612f38565b9b9a5050505050505050505050565b6020808252825182820181905260009190848201906040850190845b81811015613104578351835292840192918401916001016130e8565b50909695505050505050565b6020815260006120996020830184612f0c565b6040815260006131366040830185612f0c565b82810360208401526131488185612f0c565b95945050505050565b6020808252602e908201527f496e697469616c697a61626c653a20636f6e747261637420697320616c72656160408201526d191e481a5b9a5d1a585b1a5e995960921b606082015260800190565b60006040820184835260206040818501528185548084526060860191508660005282600020935060005b818110156131e5578454835260019485019492840192016131c9565b5090979650505050505050565b918252602082015260400190565b9283526020830191909152604082015260600190565b948552602085019390935260408401919091526060830152608082015260a00190565b604051601f8201601f191681016001600160401b03811182821017156132615761326161339d565b604052919050565b6000821982111561327c5761327c61335b565b500190565b60008261329e57634e487b7160e01b600052601260045260246000fd5b500490565b60008160001904831182151516156132bd576132bd61335b565b500290565b6000828210156132d4576132d461335b565b500390565b60005b838110156132f45781810151838201526020016132dc565b838111156106125750506000910152565b600181811c9082168061331957607f821691505b6020821081141561333a57634e487b7160e01b600052602260045260246000fd5b50919050565b60006000198214156133545761335461335b565b5060010190565b634e487b7160e01b600052601160045260246000fd5b634e487b7160e01b600052602160045260246000fd5b634e487b7160e01b600052603260045260246000fd5b634e487b7160e01b600052604160045260246000fd5b6001600160a01b038116811461051557600080fd5b801515811461051557600080fdfea2646970667358221220e11614946712cac8ec284bb32eb18f84f0c2b32324f39fb6db62be9c50f6f90b64736f6c63430008070033",
  "immutableReferences": {},
  "source": "// SPDX-License-Identifier: GPL-3.0\r\n\r\npragma solidity 0.8.7;\r\n\r\n/**\r\n Treasury receives all the payments and assigns dividends to token holders.\r\n Public Certificate Pool contract can ask for its owners to eb refunded even if they do not own tokens.\r\n\r\n First dividends must be assigned to an account and then the account owner can withdraw the funds.\r\n Both actions must be triggered by the account owner.\r\n\r\n  Events : \r\n    - New Prices Added : list of prices\r\n    - Payment recieved : payer, amount, new total aggregated contract amount\r\n    - Refund : who, amount, among how many\r\n    - Assign Dividends : who, amount (number of tokens), among how many (total supply)\r\n    - Withdraw : who, how much\r\n */\r\n\r\nimport \"../Interfaces/ITreasury.sol\";\r\nimport \"../Interfaces/IPriceConverter.sol\";\r\nimport \"../Libraries/UintLibrary.sol\";\r\nimport \"../Libraries/Library.sol\";\r\nimport \"../Base/StdPropositionBaseContract.sol\";\r\nimport \"@openzeppelin/contracts-upgradeable/token/ERC20/IERC20Upgradeable.sol\";\r\n\r\n\r\ncontract Treasury is ITreasury, StdPropositionBaseContract{\r\n    using Library for *;\r\n    using UintLibrary for *;\r\n\r\n    // EVENTS /////////////////////////////////////////\r\n    event _NewPrices(uint Public, uint Private, uint Provider, uint Certificate, uint OwnerRefund);\r\n    event _Pay(address indexed Payer, uint Amount, uint AggregatedAmount);\r\n    event _Refund(address indexed Owner, uint Amount, uint TotalOwners);\r\n    event _AssignDividend(address indexed Recipient, uint Amount, uint TotalSupply);\r\n    event _Withdraw(address indexed Recipient, uint Amount);\r\n\r\n    // DATA /////////////////////////////////////////\r\n    // prices parameters usd\r\n    uint private _PublicPriceUSD;\r\n    uint private _CertificatePriceUSD;\r\n    uint private _PrivatePriceUSD;\r\n    uint private _ProviderPriceUSD;\r\n    uint private _OwnerRefundFeeUSD;\r\n\r\n    // last amount at which dividends where assigned for each token owner\r\n    uint private _AggregatedDividendAmount;\r\n    mapping(address => uint) private _lastAssigned;\r\n\r\n    // dividends per token owner\r\n    struct _BalanceStruct{\r\n        mapping(uint => uint) _balance;\r\n        uint[] _factors;\r\n    }\r\n    \r\n    mapping(address => _BalanceStruct) private _balances;\r\n\r\n    // MODIFIERS /////////////////////////////////////////\r\n    modifier areFundsEnough(uint256 value, Library.Prices price){\r\n        uint256 minPriceUSD = 2**256 - 1;\r\n\r\n        if(Library.Prices.NewProvider == price) minPriceUSD = _PublicPriceUSD;\r\n        else if(Library.Prices.NewPool == price) minPriceUSD = _PrivatePriceUSD;\r\n        else if(Library.Prices.NewCertificate == price) minPriceUSD = _CertificatePriceUSD;\r\n        else minPriceUSD = _ProviderPriceUSD;\r\n\r\n        uint256 minPriceETH = IPriceConverter(_managerContract.retrievePriceConverterProxy()).fromUSDToETH(minPriceUSD);\r\n\r\n        require(value >= minPriceETH, \"EC2-\");\r\n        _;\r\n    }\r\n\r\n    modifier isBalanceEnough(uint amount, address addr){\r\n        require(checkFullBalance(addr) >= amount, \"EC20-\");\r\n        _;\r\n    }\r\n\r\n    modifier isFromPublicPool(address addr){\r\n        Library.ItIsSomeone(addr, _managerContract.retrievePublicCertificatePoolProxy());\r\n        _;\r\n    }\r\n\r\n    modifier isPriceOK(uint256 PublicPriceUSD, uint256 OwnerRefundFeeUSD){\r\n        isPriceOKFunc(PublicPriceUSD, OwnerRefundFeeUSD);\r\n        _;\r\n    }\r\n\r\n    function isPriceOKFunc(uint256 PublicPriceUSD, uint256 OwnerRefundFeeUSD) internal pure{\r\n        require(PublicPriceUSD >= OwnerRefundFeeUSD, \"EC21-\");\r\n    }\r\n    \r\n    // CONSTRUCTOR /////////////////////////////////////////\r\n    function Treasury_init(uint256 PublicPriceUSD, uint256 PrivatePriceUSD, uint256 ProviderPriceUSD, uint256 CertificatePriceUSD, uint256 OwnerRefundFeeUSD, address managerContractAddress, address chairPerson, string memory contractName, string memory contractVersion) public initializer \r\n        isPriceOK(PublicPriceUSD, OwnerRefundFeeUSD)\r\n    {\r\n        super.StdPropositionBaseContract_init(chairPerson, managerContractAddress, contractName, contractVersion);\r\n        InternalupdatePrices(PublicPriceUSD, PrivatePriceUSD, ProviderPriceUSD, CertificatePriceUSD, OwnerRefundFeeUSD);\r\n    }\r\n\r\n    // GOVERNANCE /////////////////////////////////////////\r\n    function checkProposition(bytes32[] memory NewValues) internal override \r\n        isPriceOK(UintLibrary.Bytes32ToUint(NewValues[0]), UintLibrary.Bytes32ToUint(NewValues[4]))\r\n    {}\r\n\r\n    function UpdateAll() internal override\r\n    {\r\n        uint256 PublicPriceUSD = UintLibrary.Bytes32ToUint(_ProposedNewValues[0]);\r\n        uint256 PrivatePriceUSD = UintLibrary.Bytes32ToUint(_ProposedNewValues[1]);\r\n        uint256 ProviderPriceUSD = UintLibrary.Bytes32ToUint(_ProposedNewValues[2]);\r\n        uint256 CertificatePriceUSD = UintLibrary.Bytes32ToUint(_ProposedNewValues[3]);\r\n        uint256 OwnerRefundFeeUSD = UintLibrary.Bytes32ToUint(_ProposedNewValues[4]);\r\n\r\n        InternalupdatePrices(PublicPriceUSD, PrivatePriceUSD, ProviderPriceUSD, CertificatePriceUSD, OwnerRefundFeeUSD);\r\n\r\n        emit _NewPrices(PublicPriceUSD, PrivatePriceUSD, ProviderPriceUSD, CertificatePriceUSD, OwnerRefundFeeUSD);\r\n    }\r\n\r\n    function InternalupdatePrices(uint256 PublicPriceUSD, uint256 PrivatePriceUSD, uint256 ProviderPriceUSD, uint256 CertificatePriceUSD, uint256 OwnerRefundFeeUSD) internal\r\n    {\r\n        _PublicPriceUSD = PublicPriceUSD;\r\n        _PrivatePriceUSD = PrivatePriceUSD;\r\n        _ProviderPriceUSD = ProviderPriceUSD;\r\n        _CertificatePriceUSD = CertificatePriceUSD;\r\n        _OwnerRefundFeeUSD = OwnerRefundFeeUSD;\r\n    }\r\n\r\n    // FUNCTIONALITY /////////////////////////////////////////\r\n    function pay(Library.Prices price) external \r\n        areFundsEnough(msg.value, price)\r\n    override payable\r\n    {\r\n        uint256 amount = msg.value;\r\n        if(price == Library.Prices.NewProvider) amount -= IPriceConverter(_managerContract.retrievePriceConverterProxy()).fromUSDToETH(_OwnerRefundFeeUSD);\r\n        _AggregatedDividendAmount += amount;\r\n\r\n        emit _Pay(msg.sender, msg.value, _AggregatedDividendAmount);\r\n    }\r\n\r\n    function InternalonTokenBalanceChanged(address from, address to, uint256 amount) internal override\r\n    {\r\n        super.InternalonTokenBalanceChanged(from, to, amount);\r\n        if(address(0) != from) InternalAssignDividends(from);\r\n        if(address(0) != to) InternalAssignDividends(to);\r\n    }\r\n\r\n    function InternalAssignDividends(address recipient) internal\r\n    {\r\n        (uint totalOffBalance, uint DividendOffBalance) = sumUpTotalOffBalance(recipient);\r\n\r\n        if(totalOffBalance > 0){\r\n           _lastAssigned[recipient] = _AggregatedDividendAmount;\r\n           addBalance(recipient, totalOffBalance, DividendOffBalance);\r\n           \r\n           emit _AssignDividend(recipient, totalOffBalance, DividendOffBalance);\r\n        }\r\n    }\r\n\r\n    function getRefund(address addr, uint numberOfOwners) external \r\n        isFromPublicPool(msg.sender)\r\n    override\r\n    {\r\n        uint OwnerRefundFeeWei = IPriceConverter(_managerContract.retrievePriceConverterProxy()).fromUSDToETH(_OwnerRefundFeeUSD);\r\n        addBalance(addr, OwnerRefundFeeWei, numberOfOwners);\r\n\r\n        emit _Refund(addr, OwnerRefundFeeWei, numberOfOwners);\r\n    }\r\n\r\n    function withdraw(uint amount) external \r\n    override\r\n    {\r\n        InternalWithdraw(amount);\r\n    }\r\n\r\n    function withdrawAll() external override\r\n    {\r\n        uint All = checkFullBalance(msg.sender);\r\n        InternalWithdraw(All);\r\n    }\r\n\r\n    function InternalWithdraw(uint amount) internal \r\n        isBalanceEnough(amount, msg.sender)\r\n    {\r\n        InternalAssignDividends(msg.sender);\r\n        uint[] memory f = returnFactors(msg.sender);\r\n        (uint total, uint commonDividend) = sumUpTotalOnBalance(msg.sender);\r\n        uint remainder =  total - (amount * commonDividend);\r\n\r\n        for(uint i=0; i < f.length; i++){\r\n            substractBalance(msg.sender, returnBalanceForFactor(msg.sender, f[i]), f[i]);\r\n        }\r\n\r\n        addBalance(msg.sender, remainder, commonDividend);\r\n\r\n        (bool success, bytes memory data) = msg.sender.call{value: amount}(\"\");\r\n        require(success, string(abi.encodePacked(\"Error transfering funds to address : \", data)));\r\n\r\n        emit _Withdraw(msg.sender, amount);\r\n    }\r\n\r\n    function retrieveLastAssigned(address addr) external override view returns(uint)\r\n    {\r\n        return _lastAssigned[addr];\r\n    }\r\n\r\n    function retrieveFullBalance(address addr) external override view returns(uint)\r\n    {\r\n        return checkFullBalance(addr);\r\n    }\r\n\r\n    function retrieveSettings() external override view returns(uint, uint, uint, uint, uint)\r\n    {\r\n        return(_PublicPriceUSD, _PrivatePriceUSD, _ProviderPriceUSD, _CertificatePriceUSD, _OwnerRefundFeeUSD);\r\n    }\r\n\r\n    function retrieveAggregatedAmount() external override view returns(uint){\r\n        return _AggregatedDividendAmount;\r\n    }\r\n\r\n    function checkFullBalance(address addr) internal view returns(uint){\r\n        (uint total, uint commonDividend) = sumUpTotal(addr);\r\n\r\n        return total / commonDividend;\r\n    }\r\n\r\n    function sumUpTotal(address addr) internal view returns (uint, uint)\r\n    {\r\n        (uint totalOnBalance, uint commonDividendOnBalance) = sumUpTotalOnBalance(addr);\r\n        (uint totalOffBalance, uint DividendOffBalance) = sumUpTotalOffBalance(addr);\r\n\r\n        uint total = (totalOnBalance * DividendOffBalance) + (totalOffBalance * commonDividendOnBalance);\r\n        uint CommonDividend = commonDividendOnBalance * DividendOffBalance;\r\n\r\n        return (total, CommonDividend);\r\n    }\r\n\r\n    function sumUpTotalOnBalance(address addr) internal view returns (uint, uint)\r\n    {\r\n        uint[] memory f = returnFactors(addr);\r\n        uint CommonDividend = UintLibrary.ProductOfFactors(f);\r\n        uint total = 0;\r\n\r\n        for(uint i=0; i < f.length; i++){\r\n            total += returnBalanceForFactor(addr, f[i]) * CommonDividend / f[i];\r\n        }\r\n\r\n        return (total, CommonDividend);\r\n    }\r\n\r\n    function sumUpTotalOffBalance(address addr) internal view returns (uint, uint)\r\n    {\r\n        uint total = 0;\r\n\r\n        if(_lastAssigned[addr] < _AggregatedDividendAmount)\r\n        {\r\n            total = (_AggregatedDividendAmount - _lastAssigned[addr]) * GetTokensBalance(addr);           \r\n        }\r\n\r\n        return (total, totalSupply());\r\n    }\r\n\r\n    function returnFactors(address addr) internal view returns(uint[] memory){\r\n        return _balances[addr]._factors;\r\n    }\r\n\r\n    function returnBalanceForFactor(address addr, uint factor) internal view returns(uint){\r\n        return _balances[addr]._balance[factor];\r\n    }\r\n\r\n    function addBalance(address addr, uint amount, uint factor) internal\r\n    {\r\n        if(amount > 0){\r\n            if(0 == _balances[addr]._balance[factor])\r\n            {\r\n                _balances[addr]._factors.push(factor);\r\n            }\r\n            _balances[addr]._balance[factor] += amount;\r\n        }\r\n    }\r\n\r\n    function substractBalance(address addr, uint amount, uint factor) internal\r\n    {\r\n        require(_balances[addr]._balance[factor] >= amount, \"Not enough balance for this factor\");\r\n\r\n        _balances[addr]._balance[factor] -= amount;\r\n\r\n        if(0 == _balances[addr]._balance[factor])\r\n        {\r\n            UintLibrary.UintArrayRemoveResize(UintLibrary.FindUintPosition(factor, _balances[addr]._factors), _balances[addr]._factors);\r\n        }\r\n        \r\n    }\r\n\r\n}",
  "sourcePath": "C:/Users/d-aam/GitHub/Certificates/contracts/DeployedContracts/Treasury.sol",
  "compiler": {
    "name": "solc",
    "version": "0.8.7+commit.e28d00a7.Emscripten.clang"
  },
  "schemaVersion": "3.3.4",
  "updatedAt": "2021-10-29T10:53:49.417Z",
  "devdoc": {
    "kind": "dev",
    "methods": {},
    "version": 1
  },
  "userdoc": {
    "kind": "user",
    "methods": {},
    "version": 1
  }
}