{
  "contractName": "Treasury",
  "abi": [
    {
      "inputs": [
        {
          "internalType": "uint256",
          "name": "PublicPriceWei",
          "type": "uint256"
        },
        {
          "internalType": "uint256",
          "name": "PrivatePriceWei",
          "type": "uint256"
        },
        {
          "internalType": "uint256",
          "name": "OwnerRefundPriceWei",
          "type": "uint256"
        },
        {
          "internalType": "address",
          "name": "PublicPoolAddress",
          "type": "address"
        },
        {
          "internalType": "address",
          "name": "managerContractAddress",
          "type": "address"
        }
      ],
      "stateMutability": "nonpayable",
      "type": "constructor"
    },
    {
      "inputs": [],
      "name": "payForNewProposal",
      "outputs": [],
      "stateMutability": "payable",
      "type": "function"
    },
    {
      "inputs": [],
      "name": "payForNewPool",
      "outputs": [],
      "stateMutability": "payable",
      "type": "function"
    },
    {
      "inputs": [
        {
          "internalType": "address",
          "name": "addr",
          "type": "address"
        },
        {
          "internalType": "uint256",
          "name": "numberOfOwners",
          "type": "uint256"
        }
      ],
      "name": "getRefund",
      "outputs": [],
      "stateMutability": "nonpayable",
      "type": "function"
    },
    {
      "inputs": [
        {
          "internalType": "uint256",
          "name": "amount",
          "type": "uint256"
        }
      ],
      "name": "withdraw",
      "outputs": [],
      "stateMutability": "nonpayable",
      "type": "function"
    },
    {
      "inputs": [
        {
          "internalType": "address",
          "name": "addr",
          "type": "address"
        }
      ],
      "name": "retrieveBalance",
      "outputs": [
        {
          "internalType": "uint256",
          "name": "",
          "type": "uint256"
        }
      ],
      "stateMutability": "view",
      "type": "function"
    },
    {
      "inputs": [
        {
          "internalType": "address",
          "name": "addr",
          "type": "address"
        }
      ],
      "name": "returnFactors",
      "outputs": [
        {
          "internalType": "uint256[]",
          "name": "",
          "type": "uint256[]"
        }
      ],
      "stateMutability": "view",
      "type": "function"
    },
    {
      "inputs": [
        {
          "internalType": "address",
          "name": "addr",
          "type": "address"
        },
        {
          "internalType": "uint256",
          "name": "factor",
          "type": "uint256"
        }
      ],
      "name": "returnBalanceForFactor",
      "outputs": [
        {
          "internalType": "uint256",
          "name": "",
          "type": "uint256"
        }
      ],
      "stateMutability": "view",
      "type": "function"
    }
  ],
  "bytecode": "0x608060405234801561001057600080fd5b50604051610a06380380610a06833981810160405260a081101561003357600080fd5b508051602082015160408301516060840151608090940151600080546001600160a01b039283166001600160a01b03199182161790915560029490945560039290925560045560018054919093169116179055610971806100956000396000f3fe6080604052600436106100605760003560e01c80632e1a7d4d14610065578063435358f8146100915780637cc850fd14610099578063906816d7146100a1578063c56cb580146100ec578063e20f37ad1461016f578063eb1e2a41146101a2575b600080fd5b34801561007157600080fd5b5061008f6004803603602081101561008857600080fd5b50356101db565b005b61008f6102fc565b61008f61033d565b3480156100ad57600080fd5b506100da600480360360408110156100c457600080fd5b506001600160a01b03813516906020013561037b565b60408051918252519081900360200190f35b3480156100f857600080fd5b5061011f6004803603602081101561010f57600080fd5b50356001600160a01b03166103a3565b60408051602080825283518183015283519192839290830191858101910280838360005b8381101561015b578181015183820152602001610143565b505050509050019250505060405180910390f35b34801561017b57600080fd5b506100da6004803603602081101561019257600080fd5b50356001600160a01b0316610412565b3480156101ae57600080fd5b5061008f600480360360408110156101c557600080fd5b506001600160a01b038135169060200135610423565b80806101e63361047d565b1015610236576040805162461bcd60e51b815260206004820152601a602482015279646f6573206e6f74206861766520656e6f756768206d6f6e657960301b604482015290519081900360640190fd5b6000610241336103a3565b90506000805b848210156102c757600083828151811061025d57fe5b60200260200101516102823386858151811061027557fe5b602002602001015161037b565b8161028957fe5b04905082860381111561029b57508185035b80830192506102be33828685815181106102b157fe5b60200260200101516104d9565b50600101610247565b604051339086156108fc029087906000818181858888f193505050501580156102f4573d6000803e3d6000fd5b505050505050565b6002548034101561033a576040805162461bcd60e51b815260206004820152600360248201526222a19960e91b604482015290519081900360640190fd5b50565b6003548034101561033a576040805162461bcd60e51b815260206004820152600360248201526222a19960e91b604482015290519081900360640190fd5b6001600160a01b03919091166000908152600560209081526040808320938352929052205490565b6001600160a01b03811660009081526005602090815260409182902060010180548351818402810184019094528084526060939283018282801561040657602002820191906000526020600020905b8154815260200190600101908083116103f2575b50505050509050919050565b600061041d8261047d565b92915050565b6001546001600160a01b0316331461046c5760405162461bcd60e51b81526004018080602001828103825260218152602001806108f96021913960400191505060405180910390fd5b6104798260045483610812565b5050565b600080610489836103a3565b90506000805b82518110156104d1578281815181106104a457fe5b60200260200101516104bc8685848151811061027557fe5b816104c357fe5b04919091019060010161048f565b509392505050565b6001600160a01b038316600090815260056020908152604080832084845290915290205482111561053b5760405162461bcd60e51b815260040180806020018281038252602281526020018061091a6022913960400191505060405180910390fd5b6001600160a01b0383166000908152600560209081526040808320848452909152902080548390039081905561080d5773__UintLibrary___________________________6302fbee9e73__UintLibrary___________________________63c5fc6b028460056000896001600160a01b03166001600160a01b031681526020019081526020016000206001016040518363ffffffff1660e01b81526004018083815260200180602001828103825283818154815260200191508054801561062257602002820191906000526020600020905b81548152602001906001019080831161060e575b5050935050505060206040518083038186803b15801561064157600080fd5b505af4158015610655573d6000803e3d6000fd5b505050506040513d602081101561066b57600080fd5b50516001600160a01b0386166000908152600560205260409081902081516001600160e01b031960e086901b1681526004810184815260248201938452600190920180546044830181905290939160640190849080156106ea57602002820191906000526020600020905b8154815260200190600101908083116106d6575b5050935050505060006040518083038186803b15801561070957600080fd5b505af415801561071d573d6000803e3d6000fd5b505050506040513d6000823e601f3d908101601f19168201604052602081101561074657600080fd5b8101908080516040519392919084600160201b82111561076557600080fd5b90830190602082018581111561077a57600080fd5b82518660208202830111600160201b8211171561079657600080fd5b82525081516020918201928201910280838360005b838110156107c35781810151838201526020016107ab565b5050505090500160405250505060056000856001600160a01b03166001600160a01b03168152602001908152602001600020600101908051906020019061080b929190610898565b505b505050565b6001600160a01b0383166000908152600560209081526040808320848452909152902054610869576001600160a01b0383166000908152600560209081526040822060019081018054918201815583529120018190555b6001600160a01b0390921660009081526005602090815260408083209483529390529190912080549091019055565b8280548282559060005260206000209081019282156108d3579160200282015b828111156108d35782518255916020019190600101906108b8565b506108df9291506108e3565b5090565b5b808211156108df57600081556001016108e456fe6f6e6c7920696e766f636174696f6e732066726f6d207075626c696320706f6f6c4e6f7420656e6f7567682062616c616e636520666f72207468697320666163746f72a26469706673582212209654122fa61d684e735320e9077ee1843a080a3ffa24058746a6d9d5fce45a0464736f6c63430007060033",
  "immutableReferences": {},
  "source": "// SPDX-License-Identifier: GPL-3.0\r\n\r\npragma solidity >=0.7.0 <0.9.0;\r\n\r\n/**\r\n * @title Storage\r\n * @dev Store & retrieve value in a variable\r\n */\r\n\r\nimport \"./Interfaces/ITreasury.sol\";\r\nimport \"./PublicCertificatesPool.sol\";\r\nimport \"./Libraries/UintLibrary.sol\";\r\n\r\n\r\ncontract Treasury is ITreasury{\r\n    using UintLibrary for *;\r\n\r\n    // creator\r\n    address _creator;\r\n\r\n    // modifiers\r\n    modifier areFundsEnough(uint minPrice){\r\n        require(msg.value >= minPrice, \"EC2\");\r\n        _;\r\n    }\r\n\r\n    modifier isBalanceEnough(uint amount){\r\n        require(checkBalance(msg.sender) >= amount, \"does not have enough money\");\r\n        _;\r\n    }\r\n\r\n    modifier isFromPublicPool(){\r\n        require(msg.sender == address(_PublicCertificatesPool), \"only invocations from public pool\");\r\n        _;\r\n    }\r\n\r\n    modifier isFromCreator(){\r\n        require(msg.sender == _creator, \"only creator\");\r\n        _;\r\n    }\r\n\r\n    // constants\r\n    PublicCertificatesPool  _PublicCertificatesPool;\r\n    uint _PublicPriceWei;\r\n    uint _PrivatePriceWei;\r\n    uint _OwnerRefundPriceWei;\r\n\r\n    // data\r\n    struct _BalanceStruct{\r\n        mapping(uint => uint) _balance;\r\n        uint[] _factors;\r\n    }\r\n    \r\n    mapping(address => _BalanceStruct) _balances;\r\n\r\n    constructor(uint256 PublicPriceWei, uint256 PrivatePriceWei, uint256 OwnerRefundPriceWei, address PublicPoolAddress, address managerContractAddress) {\r\n        _creator = managerContractAddress; \r\n        _PublicPriceWei = PublicPriceWei;\r\n        _PrivatePriceWei = PrivatePriceWei;\r\n        _OwnerRefundPriceWei = OwnerRefundPriceWei;\r\n        _PublicCertificatesPool = PublicCertificatesPool(PublicPoolAddress);\r\n    }\r\n\r\n    function payForNewProposal() external \r\n        areFundsEnough(_PublicPriceWei)\r\n    override payable\r\n    {\r\n        // Assign dividends propotionaly (substracting the owners cut)\r\n    }\r\n\r\n    function payForNewPool() external \r\n        areFundsEnough(_PrivatePriceWei)\r\n    override payable\r\n    {\r\n        // Assign dividends propotionaly (substracting the owners cut)\r\n    }\r\n\r\n    function getRefund(address addr, uint numberOfOwners) external \r\n        isFromPublicPool()\r\n    override\r\n    {\r\n        addBalance( addr, _OwnerRefundPriceWei, numberOfOwners);\r\n    }\r\n\r\n    function withdraw(uint amount) external \r\n        isBalanceEnough(amount)\r\n    override\r\n    {\r\n        uint[] memory f = returnFactors(msg.sender);\r\n        uint total = 0;\r\n        uint i = 0;\r\n\r\n        while(total < amount){\r\n            uint amountForFactor = returnBalanceForFactor(msg.sender, f[i]) / f[i];\r\n            if(amountForFactor > (amount - total)) amountForFactor = amount - total;\r\n            total += amountForFactor;\r\n            substractBalance(msg.sender, amountForFactor, f[i]);\r\n            i++;\r\n        }\r\n\r\n        msg.sender.transfer(amount);\r\n    }\r\n\r\n    function retrieveBalance(address addr) external override view returns(uint)\r\n    {\r\n        return checkBalance(addr);\r\n    }\r\n\r\n    function checkBalance(address addr) internal view returns(uint){\r\n        uint[] memory f = returnFactors(addr);\r\n        uint total = 0;\r\n\r\n        for(uint i=0; i < f.length; i++){\r\n            total += returnBalanceForFactor(addr, f[i]) / f[i];\r\n        }\r\n\r\n        return total;\r\n    }\r\n\r\n    function returnFactors(address addr) public view returns(uint[] memory){\r\n        return _balances[addr]._factors;\r\n    }\r\n\r\n    function returnBalanceForFactor(address addr, uint factor) public view returns(uint){\r\n        return _balances[addr]._balance[factor];\r\n    }\r\n\r\n    function addBalance(address addr, uint amount, uint factor) private{\r\n        if(0 == _balances[addr]._balance[factor]){\r\n             _balances[addr]._factors.push(factor);\r\n        }\r\n\r\n       _balances[addr]._balance[factor] += amount;\r\n    }\r\n\r\n    function substractBalance(address addr, uint amount, uint factor) private{\r\n        require(_balances[addr]._balance[factor] >= amount, \"Not enough balance for this factor\");\r\n\r\n        _balances[addr]._balance[factor] -= amount;\r\n\r\n        if(0 == _balances[addr]._balance[factor]){\r\n            _balances[addr]._factors = UintLibrary.UintArrayRemoveResize(UintLibrary.FindUintPosition(factor, _balances[addr]._factors), _balances[addr]._factors);\r\n        }\r\n        \r\n    }\r\n\r\n}",
  "sourcePath": "C:\\Users\\d-aam\\GitHub\\Certificates\\contracts\\Treasury.sol",
  "compiler": {
    "name": "solc",
    "version": "0.7.6+commit.7338295f.Emscripten.clang"
  },
  "schemaVersion": "3.3.4",
  "updatedAt": "2021-07-16T09:13:44.678Z",
  "devdoc": {
    "kind": "dev",
    "methods": {},
    "version": 1
  },
  "userdoc": {
    "kind": "user",
    "methods": {},
    "version": 1
  }
}