{
  "contractName": "Treasury",
  "abi": [
    {
      "inputs": [
        {
          "internalType": "uint256",
          "name": "PublicPriceWei",
          "type": "uint256"
        },
        {
          "internalType": "uint256",
          "name": "PrivatePriceWei",
          "type": "uint256"
        },
        {
          "internalType": "uint256",
          "name": "CertificatePriceWei",
          "type": "uint256"
        },
        {
          "internalType": "uint256",
          "name": "OwnerRefundPriceWei",
          "type": "uint256"
        },
        {
          "internalType": "address",
          "name": "PublicPoolAddress",
          "type": "address"
        },
        {
          "internalType": "address",
          "name": "managerContractAddress",
          "type": "address"
        },
        {
          "internalType": "address",
          "name": "CertisTokenAddress",
          "type": "address"
        },
        {
          "internalType": "uint256",
          "name": "PropositionLifeTime",
          "type": "uint256"
        },
        {
          "internalType": "uint256",
          "name": "PropositionThresholdPercentage",
          "type": "uint256"
        }
      ],
      "stateMutability": "nonpayable",
      "type": "constructor"
    },
    {
      "inputs": [
        {
          "internalType": "bool",
          "name": "vote",
          "type": "bool"
        }
      ],
      "name": "voteProposition",
      "outputs": [],
      "stateMutability": "nonpayable",
      "type": "function"
    },
    {
      "inputs": [
        {
          "internalType": "enum Library.Prices",
          "name": "price",
          "type": "uint8"
        }
      ],
      "name": "pay",
      "outputs": [],
      "stateMutability": "payable",
      "type": "function"
    },
    {
      "inputs": [
        {
          "internalType": "uint256",
          "name": "PublicPriceWei",
          "type": "uint256"
        },
        {
          "internalType": "uint256",
          "name": "PrivatePriceWei",
          "type": "uint256"
        },
        {
          "internalType": "uint256",
          "name": "CertificatePriceWei",
          "type": "uint256"
        },
        {
          "internalType": "uint256",
          "name": "OwnerRefundPriceWei",
          "type": "uint256"
        },
        {
          "internalType": "address",
          "name": "PublicPoolAddress",
          "type": "address"
        },
        {
          "internalType": "address",
          "name": "CertisTokenAddress",
          "type": "address"
        },
        {
          "internalType": "uint256",
          "name": "PropositionLifeTime",
          "type": "uint256"
        },
        {
          "internalType": "uint256",
          "name": "PropositionThresholdPercentage",
          "type": "uint256"
        }
      ],
      "name": "updateConfig",
      "outputs": [],
      "stateMutability": "nonpayable",
      "type": "function"
    },
    {
      "inputs": [
        {
          "internalType": "address",
          "name": "addr",
          "type": "address"
        },
        {
          "internalType": "uint256",
          "name": "numberOfOwners",
          "type": "uint256"
        }
      ],
      "name": "getRefund",
      "outputs": [],
      "stateMutability": "nonpayable",
      "type": "function"
    },
    {
      "inputs": [
        {
          "internalType": "uint256",
          "name": "amount",
          "type": "uint256"
        }
      ],
      "name": "withdraw",
      "outputs": [],
      "stateMutability": "nonpayable",
      "type": "function"
    },
    {
      "inputs": [
        {
          "internalType": "address",
          "name": "addr",
          "type": "address"
        }
      ],
      "name": "retrieveBalance",
      "outputs": [
        {
          "internalType": "uint256",
          "name": "",
          "type": "uint256"
        }
      ],
      "stateMutability": "view",
      "type": "function"
    },
    {
      "inputs": [
        {
          "internalType": "address",
          "name": "addr",
          "type": "address"
        }
      ],
      "name": "returnFactors",
      "outputs": [
        {
          "internalType": "uint256[]",
          "name": "",
          "type": "uint256[]"
        }
      ],
      "stateMutability": "view",
      "type": "function"
    },
    {
      "inputs": [
        {
          "internalType": "address",
          "name": "addr",
          "type": "address"
        },
        {
          "internalType": "uint256",
          "name": "factor",
          "type": "uint256"
        }
      ],
      "name": "returnBalanceForFactor",
      "outputs": [
        {
          "internalType": "uint256",
          "name": "",
          "type": "uint256"
        }
      ],
      "stateMutability": "view",
      "type": "function"
    }
  ],
  "bytecode": "0x60806040523480156200001157600080fd5b506040516200229b3803806200229b833981016040819052620000349162000920565b600980546001600160a01b0319166001600160a01b038616179055620000638989898989888888600162000072565b50505050505050505062000adc565b888680821015620000b85760405162461bcd60e51b8152600401620000af906020808252600490820152634543323160e01b604082015260600190565b60405180910390fd5b8215620001135760138b905560158a905560148990556016889055601280546001600160a01b03808a166001600160a01b03199283161790925560008054928916929091169190911790556017859055601884905562000179565b6200012a62000123864262000a1c565b8562000186565b600a80546001600160a01b03808a166001600160a01b031992831617909255600b805492891692909116919091179055600c8b9055600d899055600e8a9055600f889055601085905560118490555b5050505050505050505050565b6000620001926200042c565b15620001ca5760405162461bcd60e51b8152600401620000af906020808252600490820152631150cc8d60e21b604082015260600190565b600754620001d83362000463565b10620001f85760405162461bcd60e51b8152600401620000af90620009a5565b6001546008620002083362000463565b815481106200021b576200021b62000ab0565b90600052602060002001541015620002475760405162461bcd60e51b8152600401620000af90620009a5565b600280546001600160a01b031916331790556003839055600054604080516318160ddd60e01b8152905160649285926001600160a01b0391909116916318160ddd91600480820192602092909190829003018186803b158015620002aa57600080fd5b505afa158015620002bf573d6000803e3d6000fd5b505050506040513d601f19601f82011682018060405250810190620002e5919062000906565b620002f1919062000a5a565b620002fd919062000a37565b60049081556000805460408051630446a27760e51b815290516001600160a01b03909216936388d44ee093828201939092909190829003018186803b1580156200034657600080fd5b505afa1580156200035b573d6000803e3d6000fd5b505050506040513d6000823e601f3d908101601f191682016040526200038591908101906200082f565b8051600790600090620003a0906008906020860190620006b6565b50508251620003b59190602085019062000706565b505060075415159050620004275760405162461bcd60e51b815260206004820152603260248201527f496d706f737369626c6520746f206164642070726f706f736974696f6e2c20746044820152716865726520617265206e6f2061646d696e7360701b6064820152608401620000af565b505050565b600354600090421015620004405750600190565b600754156200045d5762000453620004db565b6200045d6200051d565b50600090565b6007805460408051602080840282018101909252828152600093620004d5938693830182828015620004bf57602002820191906000526020600020905b81546001600160a01b03168152600190910190602001808311620004a0575b50505050506200056460201b6200068d1760201c565b92915050565b6200051b600a80546001600160a01b0319908116909155600b805490911690556000600c819055600d819055600e819055600f8190556010819055601155565b565b600280546001600160a01b031916815560006003819055600481905560058190556006819055620005506007826200075e565b620005606006830160006200075e565b5050565b6000620005906001600160a01b0384166200057f8462000597565b6200065660201b620006b11760201c565b9392505050565b6060600082516001600160401b03811115620005b757620005b762000ac6565b604051908082528060200260200182016040528015620005e1578160200160208202803683370190505b50905060005b81518110156200064f5783818151811062000606576200060662000ab0565b60200260200101516001600160a01b031660001b8282815181106200062f576200062f62000ab0565b602090810291909101015280620006468162000a7c565b915050620005e7565b5092915050565b6000805b8251811015620006a65782818151811062000679576200067962000ab0565b602002602001015184141562000691579050620004d5565b806200069d8162000a7c565b9150506200065a565b5081516200059090600162000a1c565b828054828255906000526020600020908101928215620006f4579160200282015b82811115620006f4578251825591602001919060010190620006d7565b506200070292915062000781565b5090565b828054828255906000526020600020908101928215620006f4579160200282015b82811115620006f457825182546001600160a01b0319166001600160a01b0390911617825560209092019160019091019062000727565b50805460008255906000526020600020908101906200077e919062000781565b50565b5b8082111562000702576000815560010162000782565b80516001600160a01b0381168114620007b057600080fd5b919050565b600082601f830112620007c757600080fd5b81516020620007e0620007da83620009f6565b620009c3565b80838252828201915082860187848660051b89010111156200080157600080fd5b60005b85811015620008225781518452928401929084019060010162000804565b5090979650505050505050565b600080604083850312156200084357600080fd5b82516001600160401b03808211156200085b57600080fd5b818501915085601f8301126200087057600080fd5b8151602062000883620007da83620009f6565b8083825282820191508286018a848660051b8901011115620008a457600080fd5b600096505b84871015620008d257620008bd8162000798565b835260019690960195918301918301620008a9565b5091880151919650909350505080821115620008ed57600080fd5b50620008fc85828601620007b5565b9150509250929050565b6000602082840312156200091957600080fd5b5051919050565b60008060008060008060008060006101208a8c0312156200094057600080fd5b8951985060208a0151975060408a0151965060608a015195506200096760808b0162000798565b94506200097760a08b0162000798565b93506200098760c08b0162000798565b925060e08a015191506101008a015190509295985092959850929598565b60208082526004908201526322a1991960e11b604082015260600190565b604051601f8201601f191681016001600160401b0381118282101715620009ee57620009ee62000ac6565b604052919050565b60006001600160401b0382111562000a125762000a1262000ac6565b5060051b60200190565b6000821982111562000a325762000a3262000a9a565b500190565b60008262000a5557634e487b7160e01b600052601260045260246000fd5b500490565b600081600019048311821515161562000a775762000a7762000a9a565b500290565b600060001982141562000a935762000a9362000a9a565b5060010190565b634e487b7160e01b600052601160045260246000fd5b634e487b7160e01b600052603260045260246000fd5b634e487b7160e01b600052604160045260246000fd5b6117af8062000aec6000396000f3fe60806040526004361061006b5760003560e01c80631e235d23146100705780632e1a7d4d14610092578063906816d7146100b257806391f91671146100e5578063c56cb58014610105578063e20f37ad14610132578063eb1e2a4114610152578063f0c9325e14610172575b600080fd5b34801561007c57600080fd5b5061009061008b366004611515565b610185565b005b34801561009e57600080fd5b506100906100ad3660046114e3565b6101a1565b3480156100be57600080fd5b506100d26100cd36600461136d565b610383565b6040519081526020015b60405180910390f35b3480156100f157600080fd5b506100906101003660046114a0565b6103ae565b34801561011157600080fd5b50610125610120366004611350565b6104e5565b6040516100dc9190611586565b34801561013e57600080fd5b506100d261014d366004611350565b610554565b34801561015e57600080fd5b5061009061016d36600461136d565b61055f565b6100906101803660046114c2565b6105b8565b61019788888888888888886000610706565b5050505050505050565b80806101ac33610809565b10156101ec5760405162461bcd60e51b81526004016101e3906020808252600490820152630454332360e41b604082015260600190565b60405180910390fd5b60006101f7336104e5565b90506000805b848210801561020c5750825181105b156102e157600083828151811061022557610225611738565b60200260200101516102503386858151811061024357610243611738565b6020026020010151610383565b61025a9190611699565b905061026683876116da565b81111561027a5761027783876116da565b90505b6102848184611681565b92506102ce3385848151811061029c5761029c611738565b6020026020010151836102af91906116bb565b8685815181106102c1576102c1611738565b6020026020010151610884565b816102d8816116f1565b925050506101fd565b84821461034e5760405162461bcd60e51b815260206004820152603560248201527f556e45787065637465642070726f626c656d2063616c63756c6174696e672074604482015274686520616d6f756e7420746f20776974686472617760581b60648201526084016101e3565b604051339083156108fc029084906000818181858888f1935050505015801561037b573d6000803e3d6000fd5b505050505050565b6001600160a01b03821660009081526019602090815260408083208484529091529020545b92915050565b60016103b8610ad8565b15156001146103f25760405162461bcd60e51b81526004016101e3906020808252600490820152634543323560e01b604082015260600190565b6007546103fe33610b09565b106104345760405162461bcd60e51b81526004016101e3906020808252600490820152634543323360e01b604082015260600190565b6003544210156104d557811561048957600861044f33610b09565b8154811061045f5761045f611738565b90600052602060002001546002600301600082825461047e9190611681565b909155506104c99050565b600861049433610b09565b815481106104a4576104a4611738565b9060005260206000200154600260040160008282546104c39190611681565b90915550505b6104d1610b6c565b5050565b6104dd610c2a565b6104d1610c69565b6001600160a01b03811660009081526019602090815260409182902060010180548351818402810184019094528084526060939283018282801561054857602002820191906000526020600020905b815481526020019060010190808311610534575b50505050509050919050565b60006103a882610809565b601254610574906001600160a01b0316610ca8565b15156001146105ab5760405162461bcd60e51b815260206004820152600360248201526208a86760eb1b60448201526064016101e3565b6104d18260165483610ccb565b806000198160028111156105ce576105ce611722565b6105db575060135461061d565b8160028111156105ed576105ed611722565b600114156105fe575060155461061d565b81600281111561061057610610611722565b6002141561061d57506014545b803410156106535760405162461bcd60e51b815260206004820152600360248201526222a19960e91b60448201526064016101e3565b34600084600281111561066857610668611722565b141561067e5760165461067b90826116da565b90505b61068781610d5f565b50505050565b60006106aa6001600160a01b0384166106a584610ed9565b6106b1565b9392505050565b6000805b82518110156106f8578281815181106106d0576106d0611738565b60200260200101518414156106e65790506103a8565b806106f0816116f1565b9150506106b5565b5081516106aa906001611681565b8886808210156107415760405162461bcd60e51b81526004016101e3906020808252600490820152634543323160e01b604082015260600190565b821561079a5760138b905560158a905560148990556016889055601280546001600160a01b03808a166001600160a01b0319928316179092556000805492891692909116919091179055601785905560188490556107fc565b6107ad6107a78642611681565b85610f8a565b600a80546001600160a01b03808a166001600160a01b031992831617909255600b805492891692909116919091179055600c8b9055600d899055600e8a9055600f889055601085905560118490555b5050505050505050505050565b600080610815836104e5565b90506000805b825181101561087c5782818151811061083657610836611738565b60200260200101516108548685848151811061024357610243611738565b61085e9190611699565b6108689083611681565b915080610874816116f1565b91505061081b565b509392505050565b6001600160a01b03831660009081526019602090815260408083208484529091529020548211156109025760405162461bcd60e51b815260206004820152602260248201527f4e6f7420656e6f7567682062616c616e636520666f722074686973206661637460448201526137b960f11b60648201526084016101e3565b6001600160a01b0383166000908152601960209081526040808320848452909152812080548492906109359084906116da565b90915550506001600160a01b0383166000908152601960209081526040808320848452909152902054610ad3576001600160a01b0383166000908152601960205260409081902090516362fe358160e11b815273__UintLibrary___________________________916302fbee9e91839163c5fc6b02916109c09187916001909101906004016115e8565b60206040518083038186803b1580156109d857600080fd5b505af41580156109ec573d6000803e3d6000fd5b505050506040513d601f19601f82011682018060405250810190610a1091906114fc565b6001600160a01b0386166000908152601960205260409081902090516001600160e01b031960e085901b168152610a4e9291600101906004016115e8565b60006040518083038186803b158015610a6657600080fd5b505af4158015610a7a573d6000803e3d6000fd5b505050506040513d6000823e601f3d908101601f19168201604052610aa29190810190611464565b6001600160a01b03841660009081526019602090815260409091208251610687936001909201929190910190611208565b505050565b600354600090421015610aeb5750600190565b60075415610b0357610afb610c2a565b610b03610c69565b50600090565b60078054604080516020808402820181019092528281526000936103a8938693830182828015610b6257602002820191906000526020600020905b81546001600160a01b03168152600190910190602001808311610b44575b505050505061068d565b6004546005541115610c1a57610c10600c54601355600e54601555600d54601455600f54601655600a54601280546001600160a01b039283166001600160a01b031991821617909155600b5460008054919093169116179055601054601755601154601855610c18600a80546001600160a01b0319908116909155600b805490911690556000600c819055600d819055600e819055600f8190556010819055601155565b610c18610c69565b565b6004546006541115610c1857610c105b610c18600a80546001600160a01b0319908116909155600b805490911690556000600c819055600d819055600e819055600f8190556010819055601155565b600280546001600160a01b031916815560006003819055600481905560058190556006819055610c9a600782611253565b6104d1600683016000611253565b6000336001600160a01b0383161415610cc357506001919050565b506000919050565b6001600160a01b0383166000908152601960209081526040808320848452909152902054610d22576001600160a01b0383166000908152601960209081526040822060019081018054918201815583529120018190555b6001600160a01b038316600090815260196020908152604080832084845290915281208054849290610d55908490611681565b9091555050505050565b6000805460408051630446a27760e51b8152905183926001600160a01b0316916388d44ee09160048083019286929190829003018186803b158015610da357600080fd5b505afa158015610db7573d6000803e3d6000fd5b505050506040513d6000823e601f3d908101601f19168201604052610ddf9190810190611399565b9150915060008060009054906101000a90046001600160a01b03166001600160a01b03166318160ddd6040518163ffffffff1660e01b815260040160206040518083038186803b158015610e3257600080fd5b505afa158015610e46573d6000803e3d6000fd5b505050506040513d601f19601f82011682018060405250810190610e6a91906114fc565b905060005b8351811015610ed257610ec0848281518110610e8d57610e8d611738565b602002602001015186858481518110610ea857610ea8611738565b6020026020010151610eba91906116bb565b84610ccb565b80610eca816116f1565b915050610e6f565b5050505050565b6060600082516001600160401b03811115610ef657610ef661174e565b604051908082528060200260200182016040528015610f1f578160200160208202803683370190505b50905060005b8151811015610f8357838181518110610f4057610f40611738565b60200260200101516001600160a01b031660001b828281518110610f6657610f66611738565b602090810291909101015280610f7b816116f1565b915050610f25565b5092915050565b6000610f94610ad8565b15610fca5760405162461bcd60e51b81526004016101e3906020808252600490820152631150cc8d60e21b604082015260600190565b600754610fd633610b09565b10610ff35760405162461bcd60e51b81526004016101e3906115ca565b600154600861100133610b09565b8154811061101157611011611738565b9060005260206000200154101561103a5760405162461bcd60e51b81526004016101e3906115ca565b600280546001600160a01b031916331790556003839055600054604080516318160ddd60e01b8152905160649285926001600160a01b0391909116916318160ddd91600480820192602092909190829003018186803b15801561109c57600080fd5b505afa1580156110b0573d6000803e3d6000fd5b505050506040513d601f19601f820116820180604052508101906110d491906114fc565b6110de91906116bb565b6110e89190611699565b60049081556000805460408051630446a27760e51b815290516001600160a01b03909216936388d44ee093828201939092909190829003018186803b15801561113057600080fd5b505afa158015611144573d6000803e3d6000fd5b505050506040513d6000823e601f3d908101601f1916820160405261116c9190810190611399565b8051600790600090611185906008906020860190611208565b5050825161119891906020850190611274565b505060075415159050610ad35760405162461bcd60e51b815260206004820152603260248201527f496d706f737369626c6520746f206164642070726f706f736974696f6e2c20746044820152716865726520617265206e6f2061646d696e7360701b60648201526084016101e3565b828054828255906000526020600020908101928215611243579160200282015b82811115611243578251825591602001919060010190611228565b5061124f9291506112c9565b5090565b508054600082559060005260206000209081019061127191906112c9565b50565b828054828255906000526020600020908101928215611243579160200282015b8281111561124357825182546001600160a01b0319166001600160a01b03909116178255602090920191600190910190611294565b5b8082111561124f57600081556001016112ca565b600082601f8301126112ef57600080fd5b815160206113046112ff8361165e565b61162e565b80838252828201915082860187848660051b890101111561132457600080fd5b60005b8581101561134357815184529284019290840190600101611327565b5090979650505050505050565b60006020828403121561136257600080fd5b81356106aa81611764565b6000806040838503121561138057600080fd5b823561138b81611764565b946020939093013593505050565b600080604083850312156113ac57600080fd5b82516001600160401b03808211156113c357600080fd5b818501915085601f8301126113d757600080fd5b815160206113e76112ff8361165e565b8083825282820191508286018a848660051b890101111561140757600080fd5b600096505b8487101561143357805161141f81611764565b83526001969096019591830191830161140c565b509188015191965090935050508082111561144d57600080fd5b5061145a858286016112de565b9150509250929050565b60006020828403121561147657600080fd5b81516001600160401b0381111561148c57600080fd5b611498848285016112de565b949350505050565b6000602082840312156114b257600080fd5b813580151581146106aa57600080fd5b6000602082840312156114d457600080fd5b8135600381106106aa57600080fd5b6000602082840312156114f557600080fd5b5035919050565b60006020828403121561150e57600080fd5b5051919050565b600080600080600080600080610100898b03121561153257600080fd5b88359750602089013596506040890135955060608901359450608089013561155981611764565b935060a089013561156981611764565b979a969950949793969295929450505060c08201359160e0013590565b6020808252825182820181905260009190848201906040850190845b818110156115be578351835292840192918401916001016115a2565b50909695505050505050565b60208082526004908201526322a1991960e11b604082015260600190565b60006040820184835260206040818501528185548084526060860191508660005282600020935060005b8181101561134357845483526001948501949284019201611612565b604051601f8201601f191681016001600160401b03811182821017156116565761165661174e565b604052919050565b60006001600160401b038211156116775761167761174e565b5060051b60200190565b600082198211156116945761169461170c565b500190565b6000826116b657634e487b7160e01b600052601260045260246000fd5b500490565b60008160001904831182151516156116d5576116d561170c565b500290565b6000828210156116ec576116ec61170c565b500390565b60006000198214156117055761170561170c565b5060010190565b634e487b7160e01b600052601160045260246000fd5b634e487b7160e01b600052602160045260246000fd5b634e487b7160e01b600052603260045260246000fd5b634e487b7160e01b600052604160045260246000fd5b6001600160a01b038116811461127157600080fdfea2646970667358221220bc0405ed7ad5a82ba49299d54ed64a13d9f22850c536addbb9f096254cac5aca64736f6c63430008060033",
  "immutableReferences": {},
  "source": "// SPDX-License-Identifier: GPL-3.0\r\n\r\npragma solidity >=0.7.0 <0.9.0;\r\n\r\n/**\r\n * @title Storage\r\n * @dev Store & retrieve value in a variable\r\n */\r\n\r\nimport \"./Interfaces/ITreasury.sol\";\r\nimport \"./PublicCertificatesPool.sol\";\r\nimport \"./Libraries/UintLibrary.sol\";\r\nimport \"./Libraries/Library.sol\";\r\nimport \"./CertisToken.sol\";\r\nimport \"./Base/TokenGovernanceBaseContract.sol\";\r\n\r\n\r\ncontract Treasury is ITreasury, TokenGovernanceBaseContract{\r\n    using Library for *;\r\n    using UintLibrary for *;\r\n\r\n    // creator\r\n    address _creator;\r\n\r\n    modifier areFundsEnough(Library.Prices price){\r\n        uint256 minPrice = 2**256 - 1;\r\n\r\n        if(Library.Prices.NewProvider == price) minPrice = _PublicPriceWei;\r\n        else if(Library.Prices.NewPool == price) minPrice = _PrivatePriceWei;\r\n        else if(Library.Prices.NewCertificate == price) minPrice = _CertificatePriceWei;\r\n\r\n        require(msg.value >= minPrice, \"EC2\");\r\n        _;\r\n    }\r\n\r\n    modifier isBalanceEnough(uint amount){\r\n        require(checkBalance(msg.sender) >= amount, \"EC20\");\r\n        _;\r\n    }\r\n\r\n    modifier isFromPublicPool(){\r\n        require(true == Library.ItIsSomeone(address(_PublicCertificatesPool)), \"EC8\");\r\n        _;\r\n    }\r\n\r\n    modifier isFromCreator(){\r\n        require(true == Library.ItIsSomeone(_creator), \"EC8\");\r\n        _;\r\n    }\r\n\r\n    modifier isConfigOK(uint256 PublicPriceWei, uint256 OwnerRefundPriceWei){\r\n        require(PublicPriceWei >= OwnerRefundPriceWei, \"EC21\");\r\n        _;\r\n    }\r\n\r\n    // proposition to change\r\n    struct ProposedConfigStruct{\r\n        address  NewPublicCertificatesPool;\r\n        address  NewCertisToken;\r\n        uint NewPublicPriceWei;\r\n        uint NewCertificatePriceWei;\r\n        uint NewPrivatePriceWei;\r\n        uint NewOwnerRefundPriceWei;\r\n        uint NewPropositionLifeTime;\r\n        uint NewPropositionThresholdPercentage;\r\n    }\r\n\r\n    ProposedConfigStruct ProposedConfig;\r\n\r\n    // constants\r\n    PublicCertificatesPool  _PublicCertificatesPool;\r\n    uint _PublicPriceWei;\r\n    uint _CertificatePriceWei;\r\n    uint _PrivatePriceWei;\r\n    uint _OwnerRefundPriceWei;\r\n    uint _PropositionLifeTime;\r\n    uint _PropositionThresholdPercentage;\r\n\r\n    // data\r\n    struct _BalanceStruct{\r\n        mapping(uint => uint) _balance;\r\n        uint[] _factors;\r\n    }\r\n    \r\n    mapping(address => _BalanceStruct) _balances;\r\n\r\n    constructor(uint256 PublicPriceWei, uint256 PrivatePriceWei, uint256 CertificatePriceWei, uint256 OwnerRefundPriceWei, address PublicPoolAddress, address managerContractAddress, address CertisTokenAddress, uint256 PropositionLifeTime, uint256 PropositionThresholdPercentage) {\r\n        _creator = managerContractAddress; \r\n        InternalupdateConfig(PublicPriceWei, PrivatePriceWei, CertificatePriceWei, OwnerRefundPriceWei, PublicPoolAddress, CertisTokenAddress, PropositionLifeTime, PropositionThresholdPercentage, true);\r\n    }\r\n\r\n\r\n    function pay(Library.Prices price) external \r\n        areFundsEnough(price)\r\n    override payable\r\n    {\r\n        uint256 amount = msg.value;\r\n        if(price == Library.Prices.NewProvider) amount -= _OwnerRefundPriceWei;\r\n        AssignDividends(amount);\r\n    }\r\n\r\n    function AssignDividends(uint256 amount) internal{\r\n        (address[] memory DividendsRecipients, uint256[] memory DividendsRecipientsTokens) = _CertisToken.TokenOwners();\r\n        uint256 TotalTokenSupply = _CertisToken.totalSupply();\r\n\r\n        for(uint i=0; i < DividendsRecipients.length; i++){\r\n            addBalance(DividendsRecipients[i], DividendsRecipientsTokens[i] * amount, TotalTokenSupply);\r\n        }\r\n\r\n    }\r\n\r\n    function updateConfig(uint256 PublicPriceWei, uint256 PrivatePriceWei, uint256 CertificatePriceWei, uint256 OwnerRefundPriceWei, address PublicPoolAddress, address CertisTokenAddress, uint256 PropositionLifeTime, uint256 PropositionThresholdPercentage) external override\r\n    {\r\n        InternalupdateConfig(PublicPriceWei, PrivatePriceWei, CertificatePriceWei, OwnerRefundPriceWei, PublicPoolAddress, CertisTokenAddress, PropositionLifeTime, PropositionThresholdPercentage, false);\r\n    }\r\n\r\n    function InternalupdateConfig(uint256 PublicPriceWei, uint256 PrivatePriceWei, uint256 CertificatePriceWei, uint256 OwnerRefundPriceWei, address PublicPoolAddress, address CertisTokenAddress, uint256 PropositionLifeTime, uint256 PropositionThresholdPercentage, bool fromConstructor) internal\r\n        isConfigOK(PublicPriceWei, OwnerRefundPriceWei)\r\n    {\r\n        if(fromConstructor){\r\n            _PublicPriceWei = PublicPriceWei;\r\n            _PrivatePriceWei = PrivatePriceWei;\r\n            _CertificatePriceWei = CertificatePriceWei;\r\n            _OwnerRefundPriceWei = OwnerRefundPriceWei;\r\n            _PublicCertificatesPool = PublicCertificatesPool(PublicPoolAddress);\r\n            _CertisToken = CertisToken(CertisTokenAddress);\r\n            _PropositionLifeTime = PropositionLifeTime;\r\n            _PropositionThresholdPercentage = PropositionThresholdPercentage;\r\n        }\r\n        else{\r\n            addProposition(block.timestamp + PropositionLifeTime, PropositionThresholdPercentage);\r\n            ProposedConfig.NewPublicCertificatesPool = PublicPoolAddress;\r\n            ProposedConfig.NewCertisToken = CertisTokenAddress;\r\n            ProposedConfig.NewPublicPriceWei = PublicPriceWei;\r\n            ProposedConfig.NewCertificatePriceWei = CertificatePriceWei;\r\n            ProposedConfig.NewPrivatePriceWei = PrivatePriceWei;\r\n            ProposedConfig.NewOwnerRefundPriceWei = OwnerRefundPriceWei;\r\n            ProposedConfig.NewPropositionLifeTime = PropositionLifeTime;\r\n            ProposedConfig.NewPropositionThresholdPercentage = PropositionThresholdPercentage;\r\n        }\r\n        \r\n    }\r\n\r\n    function propositionApproved() internal override\r\n    {\r\n        _PublicPriceWei = ProposedConfig.NewPublicPriceWei;\r\n        _PrivatePriceWei = ProposedConfig.NewPrivatePriceWei;\r\n        _CertificatePriceWei = ProposedConfig.NewCertificatePriceWei;\r\n        _OwnerRefundPriceWei = ProposedConfig.NewOwnerRefundPriceWei;\r\n        _PublicCertificatesPool = PublicCertificatesPool(ProposedConfig.NewPublicCertificatesPool);\r\n        _CertisToken = CertisToken(ProposedConfig.NewCertisToken);\r\n        _PropositionLifeTime = ProposedConfig.NewPropositionLifeTime;\r\n        _PropositionThresholdPercentage = ProposedConfig.NewPropositionThresholdPercentage;\r\n        removeProposition();\r\n    }\r\n\r\n    function propositionRejected() internal override\r\n    {\r\n        removeProposition();\r\n    }\r\n\r\n    function propositionExpired() internal override\r\n    {\r\n        removeProposition();\r\n    }\r\n\r\n    function removeProposition() internal{\r\n        delete(ProposedConfig);\r\n    }\r\n\r\n    function getRefund(address addr, uint numberOfOwners) external \r\n        isFromPublicPool()\r\n    override\r\n    {\r\n        addBalance(addr, _OwnerRefundPriceWei, numberOfOwners);\r\n    }\r\n\r\n    function withdraw(uint amount) external \r\n        isBalanceEnough(amount)\r\n    override\r\n    {\r\n        uint[] memory f = returnFactors(msg.sender);\r\n        uint total = 0;\r\n        uint i = 0;\r\n\r\n        while ((total < amount) && (i < f.length)){\r\n            uint amountForFactor = returnBalanceForFactor(msg.sender, f[i]) / f[i];\r\n            if(amountForFactor > (amount - total)) amountForFactor = amount - total;\r\n            total += amountForFactor;\r\n            substractBalance(msg.sender, amountForFactor * f[i], f[i]);\r\n            i++;\r\n        }\r\n\r\n        require(total == amount, \"UnExpected problem calculating the amount to withdraw\");\r\n\r\n        payable(msg.sender).transfer(total);\r\n    }\r\n\r\n    function retrieveBalance(address addr) external override view returns(uint)\r\n    {\r\n        return checkBalance(addr);\r\n    }\r\n\r\n    function checkBalance(address addr) internal view returns(uint){\r\n        uint[] memory f = returnFactors(addr);\r\n        uint total = 0;\r\n\r\n        for(uint i=0; i < f.length; i++){\r\n            total += returnBalanceForFactor(addr, f[i]) / f[i];\r\n        }\r\n\r\n        return total;\r\n    }\r\n\r\n    function returnFactors(address addr) public view returns(uint[] memory){\r\n        return _balances[addr]._factors;\r\n    }\r\n\r\n    function returnBalanceForFactor(address addr, uint factor) public view returns(uint){\r\n        return _balances[addr]._balance[factor];\r\n    }\r\n\r\n    function addBalance(address addr, uint amount, uint factor) private{\r\n        if(0 == _balances[addr]._balance[factor]){\r\n             _balances[addr]._factors.push(factor);\r\n        }\r\n\r\n       _balances[addr]._balance[factor] += amount;\r\n    }\r\n\r\n    function substractBalance(address addr, uint amount, uint factor) private{\r\n        require(_balances[addr]._balance[factor] >= amount, \"Not enough balance for this factor\");\r\n\r\n        _balances[addr]._balance[factor] -= amount;\r\n\r\n        if(0 == _balances[addr]._balance[factor]){\r\n            _balances[addr]._factors = UintLibrary.UintArrayRemoveResize(UintLibrary.FindUintPosition(factor, _balances[addr]._factors), _balances[addr]._factors);\r\n        }\r\n        \r\n    }\r\n\r\n}",
  "sourcePath": "C:\\Users\\d-aam\\GitHub\\Certificates\\contracts\\Treasury.sol",
  "compiler": {
    "name": "solc",
    "version": "0.8.6+commit.11564f7e.Emscripten.clang"
  },
  "schemaVersion": "3.3.4",
  "updatedAt": "2021-07-21T10:33:53.923Z",
  "devdoc": {
    "kind": "dev",
    "methods": {},
    "version": 1
  },
  "userdoc": {
    "kind": "user",
    "methods": {},
    "version": 1
  }
}