{
  "contractName": "Treasury",
  "abi": [
    {
      "anonymous": false,
      "inputs": [
        {
          "indexed": false,
          "internalType": "uint256",
          "name": "",
          "type": "uint256"
        },
        {
          "indexed": true,
          "internalType": "address",
          "name": "",
          "type": "address"
        },
        {
          "indexed": false,
          "internalType": "uint256",
          "name": "",
          "type": "uint256"
        },
        {
          "indexed": false,
          "internalType": "uint256",
          "name": "",
          "type": "uint256"
        }
      ],
      "name": "_AddedProposition",
      "type": "event"
    },
    {
      "anonymous": false,
      "inputs": [
        {
          "indexed": true,
          "internalType": "address",
          "name": "",
          "type": "address"
        },
        {
          "indexed": false,
          "internalType": "uint256",
          "name": "",
          "type": "uint256"
        },
        {
          "indexed": false,
          "internalType": "uint256",
          "name": "",
          "type": "uint256"
        }
      ],
      "name": "_AssignDividend",
      "type": "event"
    },
    {
      "anonymous": false,
      "inputs": [
        {
          "indexed": false,
          "internalType": "uint256",
          "name": "",
          "type": "uint256"
        },
        {
          "indexed": true,
          "internalType": "address",
          "name": "",
          "type": "address"
        }
      ],
      "name": "_CancelledProposition",
      "type": "event"
    },
    {
      "anonymous": false,
      "inputs": [
        {
          "indexed": false,
          "internalType": "uint256",
          "name": "",
          "type": "uint256"
        },
        {
          "indexed": false,
          "internalType": "uint256",
          "name": "",
          "type": "uint256"
        },
        {
          "indexed": false,
          "internalType": "uint256",
          "name": "",
          "type": "uint256"
        },
        {
          "indexed": false,
          "internalType": "uint256",
          "name": "",
          "type": "uint256"
        },
        {
          "indexed": false,
          "internalType": "uint256",
          "name": "",
          "type": "uint256"
        }
      ],
      "name": "_NewPrices",
      "type": "event"
    },
    {
      "anonymous": false,
      "inputs": [
        {
          "indexed": true,
          "internalType": "address",
          "name": "",
          "type": "address"
        },
        {
          "indexed": false,
          "internalType": "uint256",
          "name": "",
          "type": "uint256"
        },
        {
          "indexed": false,
          "internalType": "uint256",
          "name": "",
          "type": "uint256"
        }
      ],
      "name": "_Pay",
      "type": "event"
    },
    {
      "anonymous": false,
      "inputs": [
        {
          "indexed": false,
          "internalType": "uint256",
          "name": "",
          "type": "uint256"
        },
        {
          "indexed": true,
          "internalType": "address",
          "name": "",
          "type": "address"
        },
        {
          "indexed": false,
          "internalType": "uint256",
          "name": "",
          "type": "uint256"
        },
        {
          "indexed": false,
          "internalType": "uint256",
          "name": "",
          "type": "uint256"
        }
      ],
      "name": "_PropositionApproved",
      "type": "event"
    },
    {
      "anonymous": false,
      "inputs": [
        {
          "indexed": false,
          "internalType": "uint256",
          "name": "",
          "type": "uint256"
        },
        {
          "indexed": true,
          "internalType": "address",
          "name": "",
          "type": "address"
        },
        {
          "indexed": false,
          "internalType": "uint256",
          "name": "",
          "type": "uint256"
        },
        {
          "indexed": false,
          "internalType": "uint256",
          "name": "",
          "type": "uint256"
        }
      ],
      "name": "_PropositionRejected",
      "type": "event"
    },
    {
      "anonymous": false,
      "inputs": [
        {
          "indexed": false,
          "internalType": "uint256",
          "name": "",
          "type": "uint256"
        },
        {
          "indexed": true,
          "internalType": "address",
          "name": "",
          "type": "address"
        },
        {
          "indexed": false,
          "internalType": "bool",
          "name": "",
          "type": "bool"
        },
        {
          "indexed": false,
          "internalType": "uint256",
          "name": "",
          "type": "uint256"
        }
      ],
      "name": "_PropositionVote",
      "type": "event"
    },
    {
      "anonymous": false,
      "inputs": [
        {
          "indexed": true,
          "internalType": "address",
          "name": "",
          "type": "address"
        },
        {
          "indexed": false,
          "internalType": "uint256",
          "name": "",
          "type": "uint256"
        },
        {
          "indexed": false,
          "internalType": "uint256",
          "name": "",
          "type": "uint256"
        }
      ],
      "name": "_Refund",
      "type": "event"
    },
    {
      "anonymous": false,
      "inputs": [
        {
          "indexed": true,
          "internalType": "address",
          "name": "",
          "type": "address"
        },
        {
          "indexed": false,
          "internalType": "uint256",
          "name": "",
          "type": "uint256"
        }
      ],
      "name": "_Withdraw",
      "type": "event"
    },
    {
      "inputs": [],
      "name": "cancelProposition",
      "outputs": [],
      "stateMutability": "nonpayable",
      "type": "function"
    },
    {
      "inputs": [],
      "name": "retrievePropConfig",
      "outputs": [
        {
          "internalType": "uint256",
          "name": "",
          "type": "uint256"
        },
        {
          "internalType": "uint8",
          "name": "",
          "type": "uint8"
        },
        {
          "internalType": "uint8",
          "name": "",
          "type": "uint8"
        }
      ],
      "stateMutability": "view",
      "type": "function"
    },
    {
      "inputs": [],
      "name": "retrievePropositionStatus",
      "outputs": [
        {
          "internalType": "address",
          "name": "",
          "type": "address"
        },
        {
          "internalType": "uint256",
          "name": "",
          "type": "uint256"
        },
        {
          "internalType": "uint256",
          "name": "",
          "type": "uint256"
        },
        {
          "internalType": "uint256",
          "name": "",
          "type": "uint256"
        },
        {
          "internalType": "uint256",
          "name": "",
          "type": "uint256"
        }
      ],
      "stateMutability": "view",
      "type": "function"
    },
    {
      "inputs": [
        {
          "internalType": "uint256",
          "name": "PropLifeTime",
          "type": "uint256"
        },
        {
          "internalType": "uint8",
          "name": "PropThresholdPerc",
          "type": "uint8"
        },
        {
          "internalType": "uint8",
          "name": "minWeightToPropPerc",
          "type": "uint8"
        }
      ],
      "name": "updateProp",
      "outputs": [],
      "stateMutability": "nonpayable",
      "type": "function"
    },
    {
      "inputs": [
        {
          "internalType": "bool",
          "name": "vote",
          "type": "bool"
        }
      ],
      "name": "voteProposition",
      "outputs": [],
      "stateMutability": "nonpayable",
      "type": "function"
    },
    {
      "inputs": [
        {
          "internalType": "uint256",
          "name": "PublicPriceWei",
          "type": "uint256"
        },
        {
          "internalType": "uint256",
          "name": "PrivatePriceWei",
          "type": "uint256"
        },
        {
          "internalType": "uint256",
          "name": "ProviderPriceWei",
          "type": "uint256"
        },
        {
          "internalType": "uint256",
          "name": "CertificatePriceWei",
          "type": "uint256"
        },
        {
          "internalType": "uint256",
          "name": "OwnerRefundPriceWei",
          "type": "uint256"
        },
        {
          "internalType": "address",
          "name": "managerContractAddress",
          "type": "address"
        },
        {
          "internalType": "uint256",
          "name": "PropositionLifeTime",
          "type": "uint256"
        },
        {
          "internalType": "uint8",
          "name": "PropositionThresholdPercentage",
          "type": "uint8"
        },
        {
          "internalType": "uint8",
          "name": "minWeightToProposePercentage",
          "type": "uint8"
        }
      ],
      "name": "Treasury_init",
      "outputs": [],
      "stateMutability": "nonpayable",
      "type": "function"
    },
    {
      "inputs": [
        {
          "internalType": "uint256",
          "name": "PublicPriceWei",
          "type": "uint256"
        },
        {
          "internalType": "uint256",
          "name": "PrivatePriceWei",
          "type": "uint256"
        },
        {
          "internalType": "uint256",
          "name": "ProviderPriceWei",
          "type": "uint256"
        },
        {
          "internalType": "uint256",
          "name": "CertificatePriceWei",
          "type": "uint256"
        },
        {
          "internalType": "uint256",
          "name": "OwnerRefundPriceWei",
          "type": "uint256"
        }
      ],
      "name": "updatePrices",
      "outputs": [],
      "stateMutability": "nonpayable",
      "type": "function"
    },
    {
      "inputs": [],
      "name": "retrieveProposition",
      "outputs": [
        {
          "internalType": "bytes32[]",
          "name": "",
          "type": "bytes32[]"
        }
      ],
      "stateMutability": "view",
      "type": "function"
    },
    {
      "inputs": [
        {
          "internalType": "enum Library.Prices",
          "name": "price",
          "type": "uint8"
        }
      ],
      "name": "pay",
      "outputs": [],
      "stateMutability": "payable",
      "type": "function"
    },
    {
      "inputs": [
        {
          "internalType": "address",
          "name": "recipient",
          "type": "address"
        }
      ],
      "name": "AssignDividends",
      "outputs": [],
      "stateMutability": "nonpayable",
      "type": "function"
    },
    {
      "inputs": [],
      "name": "AssignDividends",
      "outputs": [],
      "stateMutability": "nonpayable",
      "type": "function"
    },
    {
      "inputs": [
        {
          "internalType": "address",
          "name": "addr",
          "type": "address"
        },
        {
          "internalType": "uint256",
          "name": "numberOfOwners",
          "type": "uint256"
        }
      ],
      "name": "getRefund",
      "outputs": [],
      "stateMutability": "nonpayable",
      "type": "function"
    },
    {
      "inputs": [
        {
          "internalType": "uint256",
          "name": "amount",
          "type": "uint256"
        }
      ],
      "name": "withdraw",
      "outputs": [],
      "stateMutability": "nonpayable",
      "type": "function"
    },
    {
      "inputs": [
        {
          "internalType": "address",
          "name": "addr",
          "type": "address"
        }
      ],
      "name": "retrieveBalance",
      "outputs": [
        {
          "internalType": "uint256",
          "name": "",
          "type": "uint256"
        }
      ],
      "stateMutability": "view",
      "type": "function"
    },
    {
      "inputs": [],
      "name": "retrievePrices",
      "outputs": [
        {
          "internalType": "uint256",
          "name": "",
          "type": "uint256"
        },
        {
          "internalType": "uint256",
          "name": "",
          "type": "uint256"
        },
        {
          "internalType": "uint256",
          "name": "",
          "type": "uint256"
        },
        {
          "internalType": "uint256",
          "name": "",
          "type": "uint256"
        },
        {
          "internalType": "uint256",
          "name": "",
          "type": "uint256"
        }
      ],
      "stateMutability": "view",
      "type": "function"
    },
    {
      "inputs": [
        {
          "internalType": "address",
          "name": "addr",
          "type": "address"
        }
      ],
      "name": "returnFactors",
      "outputs": [
        {
          "internalType": "uint256[]",
          "name": "",
          "type": "uint256[]"
        }
      ],
      "stateMutability": "view",
      "type": "function"
    },
    {
      "inputs": [
        {
          "internalType": "address",
          "name": "addr",
          "type": "address"
        },
        {
          "internalType": "uint256",
          "name": "factor",
          "type": "uint256"
        }
      ],
      "name": "returnBalanceForFactor",
      "outputs": [
        {
          "internalType": "uint256",
          "name": "",
          "type": "uint256"
        }
      ],
      "stateMutability": "view",
      "type": "function"
    }
  ],
  "bytecode": "0x608060405234801561001057600080fd5b50612663806100206000396000f3fe6080604052600436106100ce5760003560e01c806325b4f3ca146100d35780632e1a7d4d1461010957806355457ee91461012b578063840f6d1714610140578063906816d71461018e57806391f91671146101bc578063922ebecc146101dc57806396df6e79146101fc578063a93316f51461021c578063ac2bb4421461023e578063c56cb5801461025e578063c931c2b11461027e578063d40a52361461029e578063d660ab34146102b3578063e20f37ad146102ec578063eb1e2a411461030c578063f0c9325e1461032c575b600080fd5b3480156100df57600080fd5b50601154601354601454601254601554604051610100959493929190612504565b60405180910390f35b34801561011557600080fd5b5061012961012436600461226e565b61033f565b005b34801561013757600080fd5b50610129610556565b34801561014c57600080fd5b50600354600454600554600654600754604080516001600160a01b0390961686526020860194909452928401919091526060830152608082015260a001610100565b34801561019a57600080fd5b506101ae6101a936600461210a565b6105fb565b604051908152602001610100565b3480156101c857600080fd5b506101296101d73660046121fa565b610623565b3480156101e857600080fd5b506101296101f73660046122c2565b61087b565b34801561020857600080fd5b50610129610217366004612287565b61090c565b34801561022857600080fd5b50610231610922565b6040516101009190612392565b34801561024a57600080fd5b50610129610259366004612342565b610c87565b34801561026a57600080fd5b506102316102793660046120c9565b610c99565b34801561028a57600080fd5b506101296102993660046120c9565b610d08565b3480156102aa57600080fd5b50610129610e41565b3480156102bf57600080fd5b506008546009546040805192835260ff808316602085015261010090920490911690820152606001610100565b3480156102f857600080fd5b506101ae6103073660046120c9565b610e4c565b34801561031857600080fd5b5061012961032736600461210a565b610e5d565b61012961033a36600461224d565b610fe3565b808061034a33611113565b101561038a5760405162461bcd60e51b8152600401610381906020808252600490820152630454332360e41b604082015260600190565b60405180910390fd5b600061039533610c99565b90506000805b84821080156103aa5750825181105b1561047f5760008382815181106103c3576103c36125de565b60200260200101516103ee338685815181106103e1576103e16125de565b60200260200101516105fb565b6103f8919061253f565b90506104048387612580565b811115610418576104158387612580565b90505b6104228184612527565b925061046c3385848151811061043a5761043a6125de565b60200260200101518361044d9190612561565b86858151811061045f5761045f6125de565b602002602001015161118e565b8161047681612597565b9250505061039b565b8482146104ec5760405162461bcd60e51b815260206004820152603560248201527f556e45787065637465642070726f626c656d2063616c63756c6174696e672074604482015274686520616d6f756e7420746f20776974686472617760581b6064820152608401610381565b604051339083156108fc029084906000818181858888f19350505050158015610519573d6000803e3d6000fd5b5060405182815233907f732ea8a38f70c2018ed8dfd6e97bf6381f60102061beae0ac4d9a5abd15a06029060200160405180910390a25050505050565b60016105606113e3565b15156001146105815760405162461bcd60e51b815260040161038190612442565b6003546001600160a01b031633146105ab5760405162461bcd60e51b8152600401610381906123d6565b6105b361141d565b6003546002546040519081526001600160a01b03909116907f1fe8aec10c0a50fa765076161e08c1f961ced69594ff45cf7d559f593afe14799060200160405180910390a250565b6001600160a01b03919091166000908152601860209081526040808320938352929052205490565b600161062d6113e3565b151560011461064e5760405162461bcd60e51b815260040161038190612442565b61065733611526565b15156001146106915760405162461bcd60e51b8152600401610381906020808252600490820152634543323360e01b604082015260600190565b60045442101561084d5781156106c7576106aa3361153b565b600680546000906106bc908490612527565b909155506106e89050565b6106d03361153b565b600780546000906106e2908490612527565b90915550505b600060029054906101000a90046001600160a01b03166001600160a01b031663da3dce266040518163ffffffff1660e01b815260040160206040518083038186803b15801561073657600080fd5b505afa15801561074a573d6000803e3d6000fd5b505050506040513d601f19601f8201168201806040525081019061076e91906120ed565b6001600160a01b0316631abe610c6002600001543361078c3361153b565b6040516001600160e01b031960e086901b16815260048101939093526001600160a01b0390911660248301526044820152606401600060405180830381600087803b1580156107da57600080fd5b505af11580156107ee573d6000803e3d6000fd5b50506002543392507f50f654d58981575c05e369cb129aeacb01e1b036af429380242cfc5d1a4b743f9150846108238461153b565b6040805193845291151560208401529082015260600160405180910390a261084961163d565b5050565b60095462010000900460ff161561086b5761086661177d565b610873565b61087361179b565b61084961141d565b600054610100900460ff1680610894575060005460ff16155b6108b05760405162461bcd60e51b8152600401610381906123f4565b600054610100900460ff161580156108d2576000805461ffff19166101011790555b6108df84848433896117a3565b6108ee8a8a8a8a8a6001611847565b8015610900576000805461ff00191690555b50505050505050505050565b61091b85858585856000611847565b5050505050565b60408051600580825260c08201909252606091600091906020820160a0803683375050600c54604051631635719760e31b8152600481019190915291925073__UintLibrary___________________________9163b1ab8cb8915060240160206040518083038186803b15801561099857600080fd5b505af41580156109ac573d6000803e3d6000fd5b505050506040513d601f19601f820116820180604052508101906109d09190612234565b816000815181106109e3576109e36125de565b6020908102919091010152600e54604051631635719760e31b8152600481019190915273__UintLibrary___________________________9063b1ab8cb89060240160206040518083038186803b158015610a3d57600080fd5b505af4158015610a51573d6000803e3d6000fd5b505050506040513d601f19601f82011682018060405250810190610a759190612234565b81600181518110610a8857610a886125de565b6020908102919091010152600f54604051631635719760e31b8152600481019190915273__UintLibrary___________________________9063b1ab8cb89060240160206040518083038186803b158015610ae257600080fd5b505af4158015610af6573d6000803e3d6000fd5b505050506040513d601f19601f82011682018060405250810190610b1a9190612234565b81600281518110610b2d57610b2d6125de565b6020908102919091010152600d54604051631635719760e31b8152600481019190915273__UintLibrary___________________________9063b1ab8cb89060240160206040518083038186803b158015610b8757600080fd5b505af4158015610b9b573d6000803e3d6000fd5b505050506040513d601f19601f82011682018060405250810190610bbf9190612234565b81600381518110610bd257610bd26125de565b6020908102919091010152601054604051631635719760e31b8152600481019190915273__UintLibrary___________________________9063b1ab8cb89060240160206040518083038186803b158015610c2c57600080fd5b505af4158015610c40573d6000803e3d6000fd5b505050506040513d601f19601f82011682018060405250810190610c649190612234565b81600481518110610c7757610c776125de565b6020908102919091010152919050565b610c9483838360006118cd565b505050565b6001600160a01b038116600090815260186020908152604091829020600101805483518184028101840190945280845260609392830182828015610cfc57602002820191906000526020600020905b815481526020019060010190808311610ce8575b50505050509050919050565b73__Library_______________________________63d1d719d0600060029054906101000a90046001600160a01b03166001600160a01b031663da3dce266040518163ffffffff1660e01b815260040160206040518083038186803b158015610d7057600080fd5b505afa158015610d84573d6000803e3d6000fd5b505050506040513d601f19601f82011682018060405250810190610da891906120ed565b6040518263ffffffff1660e01b8152600401610dc4919061237e565b60206040518083038186803b158015610ddc57600080fd5b505af4158015610df0573d6000803e3d6000fd5b505050506040513d601f19601f82011682018060405250810190610e149190612217565b1515600114610e355760405162461bcd60e51b81526004016103819061247e565b610e3e81611984565b50565b610e4a33611984565b565b6000610e5782611113565b92915050565b73__Library_______________________________63d1d719d0600060029054906101000a90046001600160a01b03166001600160a01b031663aa33380a6040518163ffffffff1660e01b815260040160206040518083038186803b158015610ec557600080fd5b505afa158015610ed9573d6000803e3d6000fd5b505050506040513d601f19601f82011682018060405250810190610efd91906120ed565b6040518263ffffffff1660e01b8152600401610f19919061237e565b60206040518083038186803b158015610f3157600080fd5b505af4158015610f45573d6000803e3d6000fd5b505050506040513d601f19601f82011682018060405250810190610f699190612217565b1515600114610f8a5760405162461bcd60e51b81526004016103819061247e565b610f978260155483611a69565b60155460408051918252602082018390526001600160a01b038416917f885157c8ed39c012c67730d5e5d229068f71cac97d1658f5bf6593c8246dcc3c91015b60405180910390a25050565b80600019816003811115610ff957610ff96125c8565b6110065750601154611051565b816003811115611018576110186125c8565b600114156110295750601354611051565b81600381111561103b5761103b6125c8565b6002141561104c5750601254611051565b506014545b803410156110875760405162461bcd60e51b815260206004820152600360248201526222a19960e91b6044820152606401610381565b34600084600381111561109c5761109c6125c8565b14156110b2576015546110af9082612580565b90505b80601660008282546110c49190612527565b909155505060165460405133917faef711f818f5d24f55a9c2d7da0afa5edd0420e1505ff8e60c344ce836e3e86e9161110591348252602082015260400190565b60405180910390a250505050565b60008061111f83610c99565b90506000805b825181101561118657828181518110611140576111406125de565b602002602001015161115e868584815181106103e1576103e16125de565b611168919061253f565b6111729083612527565b91508061117e81612597565b915050611125565b509392505050565b6001600160a01b038316600090815260186020908152604080832084845290915290205482111561120c5760405162461bcd60e51b815260206004820152602260248201527f4e6f7420656e6f7567682062616c616e636520666f722074686973206661637460448201526137b960f11b6064820152608401610381565b6001600160a01b03831660009081526018602090815260408083208484529091528120805484929061123f908490612580565b90915550506001600160a01b0383166000908152601860209081526040808320848452909152902054610c94576001600160a01b0383166000908152601860205260409081902090516362fe358160e11b815273__UintLibrary___________________________916302fbee9e91839163c5fc6b02916112ca91879160019091019060040161249b565b60206040518083038186803b1580156112e257600080fd5b505af41580156112f6573d6000803e3d6000fd5b505050506040513d601f19601f8201168201806040525081019061131a9190612234565b6001600160a01b0386166000908152601860205260409081902090516001600160e01b031960e085901b16815261135892916001019060040161249b565b60006040518083038186803b15801561137057600080fd5b505af4158015611384573d6000803e3d6000fd5b505050506040513d6000823e601f3d908101601f191682016040526113ac9190810190612136565b6001600160a01b038416600090815260186020908152604090912082516113dd936001909201929190910190612058565b50505050565b6004546000904210156113f65750600190565b6003546001600160a01b0316156114175761140f61179b565b61141761141d565b50600090565b60006002819055600380546001600160a01b03191690556004818155600582905560068290556007829055905460408051636d1ee71360e11b81529051620100009092046001600160a01b03169263da3dce26928282019260209290829003018186803b15801561148d57600080fd5b505afa1580156114a1573d6000803e3d6000fd5b505050506040513d601f19601f820116820180604052508101906114c591906120ed565b600254604051633c7b7af360e01b81526001600160a01b039290921691633c7b7af3916114f89160040190815260200190565b600060405180830381600087803b15801561151257600080fd5b505af11580156113dd573d6000803e3d6000fd5b60008061153283611b03565b15159392505050565b60008060029054906101000a90046001600160a01b03166001600160a01b031663da3dce266040518163ffffffff1660e01b815260040160206040518083038186803b15801561158a57600080fd5b505afa15801561159e573d6000803e3d6000fd5b505050506040513d601f19601f820116820180604052508101906115c291906120ed565b6001600160a01b03166370a08231836040518263ffffffff1660e01b81526004016115ed919061237e565b60206040518083038186803b15801561160557600080fd5b505afa158015611619573d6000803e3d6000fd5b505050506040513d601f19601f82011682018060405250810190610e579190612234565b60055460065411156116f95760095462010000900460ff161561169557600a54600855600b546009805461010080840460ff90811690910261ffff1990921693169290921791909117905561169061177d565b61169d565b61169d611bc5565b6116a561141d565b6003546002546006546007546040516001600160a01b03909416937f23ca0034cf5aad32571b4a492e9598ea8a490e1643a60970e3cdc6933b55e49f936116ef93909290916124ee565b60405180910390a2565b6005546007541115610e4a5760095462010000900460ff16156117235761171e61177d565b61172b565b61172b61179b565b61173361141d565b6003546002546006546007546040516001600160a01b03909416937fa58eb6daa3c62c3f883973c4035e5bd3e81aa627c8379de068a7de42df122be2936116ef93909290916124ee565b6000600a55600b805461ffff191690556009805462ff000019169055565b610e4a611c36565b600054610100900460ff16806117bc575060005460ff16155b6117d85760405162461bcd60e51b8152600401610381906123f4565b600054610100900460ff161580156117fa576000805461ffff19166101011790555b61180382611c51565b600180546001600160a01b0319166001600160a01b03851617815561182d908790879087906118cd565b801561183f576000805461ff00191690555b505050505050565b8582808210156118695760405162461bcd60e51b815260040161038190612460565b821561188d57601188905560138790556014869055601285905560158490556118c3565b6118a96008544261189e9190612527565b60095460ff16611cdf565b600c889055600d859055600e879055600f86905560108490555b5050505050505050565b82828160ff16606410156118f35760405162461bcd60e51b815260040161038190612460565b8060ff16606410156119175760405162461bcd60e51b815260040161038190612460565b82156119425760088690556009805460ff8681166101000261ffff199092169088161717905561183f565b600a869055600b805460ff8681166101000261ffff19909216908816171790556009805462ff000019166201000017905560085461183f9061189e9042612527565b6016546001600160a01b0382166000908152601760205260409020541015610e3e576001600160a01b0381166000908152601760205260408120546016546119cc9190612580565b6016546001600160a01b0384166000908152601760205260409020559050611a0e826119f78161153b565b611a019084612561565b611a09611ee8565b611a69565b816001600160a01b03167fe983a49d27e04c64952da756088988cab0349d02969d01e8fecd907888b2e120611a428461153b565b611a4c9084612561565b611a54611ee8565b60408051928352602083019190915201610fd7565b8115610c94576001600160a01b0383166000908152601860209081526040808320848452909152902054611ac6576001600160a01b0383166000908152601860209081526040822060019081018054918201815583529120018190555b6001600160a01b038316600090815260186020908152604080832084845290915281208054849290611af9908490612527565b9091555050505050565b60008060029054906101000a90046001600160a01b03166001600160a01b031663da3dce266040518163ffffffff1660e01b815260040160206040518083038186803b158015611b5257600080fd5b505afa158015611b66573d6000803e3d6000fd5b505050506040513d601f19601f82011682018060405250810190611b8a91906120ed565b600254604051633bb3441d60e01b815260048101919091526001600160a01b0384811660248301529190911690633bb3441d906044016115ed565b600c54601155600e54601355600f54601455600d54601255601054601555611beb611c36565b7fbe8847d52fb3c03e3414e96d164a23594063f5b6cf01428e61c38bfbbc34ef19601154601354601454601254601554604051611c2c959493929190612504565b60405180910390a1565b6000600c819055600d819055600e819055600f819055601055565b600054610100900460ff1680611c6a575060005460ff16155b611c865760405162461bcd60e51b8152600401610381906123f4565b600054610100900460ff16158015611ca8576000805461ffff19166101011790555b6000805462010000600160b01b031916620100006001600160a01b038516021790558015610849576000805461ff00191690555050565b6000611ce96113e3565b15611d1f5760405162461bcd60e51b8152600401610381906020808252600490820152631150cc8d60e21b604082015260600190565b611d2833611fe4565b1515600114611d495760405162461bcd60e51b8152600401610381906123d6565b600380546001600160a01b031916331790556004839055606460ff8316611d6e611ee8565b611d789190612561565b611d82919061253f565b600260030181905550600060029054906101000a90046001600160a01b03166001600160a01b031663da3dce266040518163ffffffff1660e01b815260040160206040518083038186803b158015611dd957600080fd5b505afa158015611ded573d6000803e3d6000fd5b505050506040513d601f19601f82011682018060405250810190611e1191906120ed565b6001600160a01b031663a562ea07846040518263ffffffff1660e01b8152600401611e3e91815260200190565b602060405180830381600087803b158015611e5857600080fd5b505af1158015611e6c573d6000803e3d6000fd5b505050506040513d601f19601f82011682018060405250810190611e909190612234565b60028190556003546004546005546040516001600160a01b03909316937f472501d19bf75639b2e316cd36f8568b0c3ab943b82a87de3c086c98c1929df993611edb939192906124ee565b60405180910390a2505050565b60008060029054906101000a90046001600160a01b03166001600160a01b031663da3dce266040518163ffffffff1660e01b815260040160206040518083038186803b158015611f3757600080fd5b505afa158015611f4b573d6000803e3d6000fd5b505050506040513d601f19601f82011682018060405250810190611f6f91906120ed565b6001600160a01b03166318160ddd6040518163ffffffff1660e01b815260040160206040518083038186803b158015611fa757600080fd5b505afa158015611fbb573d6000803e3d6000fd5b505050506040513d601f19601f82011682018060405250810190611fdf9190612234565b905090565b6001546000906001600160a01b038381169116141561200557506001919050565b60006120108361153b565b9050606461201c611ee8565b6009546120319190610100900460ff16612561565b61203b919061253f565b811061204a5750600192915050565b50600092915050565b919050565b828054828255906000526020600020908101928215612093579160200282015b82811115612093578251825591602001919060010190612078565b5061209f9291506120a3565b5090565b5b8082111561209f57600081556001016120a4565b803560ff8116811461205357600080fd5b6000602082840312156120db57600080fd5b81356120e68161260a565b9392505050565b6000602082840312156120ff57600080fd5b81516120e68161260a565b6000806040838503121561211d57600080fd5b82356121288161260a565b946020939093013593505050565b6000602080838503121561214957600080fd5b82516001600160401b038082111561216057600080fd5b818501915085601f83011261217457600080fd5b815181811115612186576121866125f4565b8060051b604051601f19603f830116810181811085821117156121ab576121ab6125f4565b604052828152858101935084860182860187018a10156121ca57600080fd5b600095505b838610156121ed5780518552600195909501949386019386016121cf565b5098975050505050505050565b60006020828403121561220c57600080fd5b81356120e68161261f565b60006020828403121561222957600080fd5b81516120e68161261f565b60006020828403121561224657600080fd5b5051919050565b60006020828403121561225f57600080fd5b8135600481106120e657600080fd5b60006020828403121561228057600080fd5b5035919050565b600080600080600060a0868803121561229f57600080fd5b505083359560208501359550604085013594606081013594506080013592509050565b60008060008060008060008060006101208a8c0312156122e157600080fd5b8935985060208a0135975060408a0135965060608a0135955060808a0135945060a08a013561230f8161260a565b935060c08a0135925061232460e08b016120b8565b91506123336101008b016120b8565b90509295985092959850929598565b60008060006060848603121561235757600080fd5b83359250612367602085016120b8565b9150612375604085016120b8565b90509250925092565b6001600160a01b0391909116815260200190565b6020808252825182820181905260009190848201906040850190845b818110156123ca578351835292840192918401916001016123ae565b50909695505050505050565b60208082526004908201526322a1991960e11b604082015260600190565b6020808252602e908201527f496e697469616c697a61626c653a20636f6e747261637420697320616c72656160408201526d191e481a5b9a5d1a585b1a5e995960921b606082015260800190565b6020808252600490820152634543323560e01b604082015260600190565b6020808252600490820152634543323160e01b604082015260600190565b60208082526003908201526208a86760eb1b604082015260600190565b60006040820184835260206040818501528185548084526060860191508660005282600020935060005b818110156124e1578454835260019485019492840192016124c5565b5090979650505050505050565b9283526020830191909152604082015260600190565b948552602085019390935260408401919091526060830152608082015260a00190565b6000821982111561253a5761253a6125b2565b500190565b60008261255c57634e487b7160e01b600052601260045260246000fd5b500490565b600081600019048311821515161561257b5761257b6125b2565b500290565b600082821015612592576125926125b2565b500390565b60006000198214156125ab576125ab6125b2565b5060010190565b634e487b7160e01b600052601160045260246000fd5b634e487b7160e01b600052602160045260246000fd5b634e487b7160e01b600052603260045260246000fd5b634e487b7160e01b600052604160045260246000fd5b6001600160a01b0381168114610e3e57600080fd5b8015158114610e3e57600080fdfea26469706673582212206647162aa3f2569ab873c189a1b1509a06a48e9d61758f3c20ef0a69f85b407e64736f6c63430008070033",
  "immutableReferences": {},
  "source": "// SPDX-License-Identifier: GPL-3.0\r\n\r\npragma solidity >=0.8.0 <0.9.0;\r\n\r\n/**\r\n * @title Storage\r\n * @dev Store & retrieve value in a variable\r\n */\r\n\r\nimport \"../Interfaces/ITreasury.sol\";\r\nimport \"../Libraries/UintLibrary.sol\";\r\nimport \"../Libraries/Library.sol\";\r\nimport \"../Base/TokenGovernanceBaseContract.sol\";\r\nimport \"@openzeppelin/contracts-upgradeable/token/ERC20/IERC20Upgradeable.sol\";\r\n\r\n\r\ncontract Treasury is ITreasury, TokenGovernanceBaseContract{\r\n    using Library for *;\r\n    using UintLibrary for *;\r\n\r\n    // EVENTS /////////////////////////////////////////\r\n    event _NewPrices(uint, uint, uint, uint, uint);\r\n    event _Pay(address indexed, uint, uint);\r\n    event _Refund(address indexed, uint, uint);\r\n    event _AssignDividend(address indexed, uint, uint);\r\n    event _Withdraw(address indexed, uint);\r\n\r\n    // DATA /////////////////////////////////////////\r\n    // proposition to change prices\r\n    struct ProposedPricesStruct{\r\n        uint NewPublicPriceWei;\r\n        uint NewCertificatePriceWei;\r\n        uint NewPrivatePriceWei;\r\n        uint NewProviderPriceWei;\r\n        uint NewOwnerRefundPriceWei;\r\n    }\r\n\r\n    ProposedPricesStruct private _ProposedPrices;\r\n\r\n    // parameters\r\n    uint private _PublicPriceWei;\r\n    uint private _CertificatePriceWei;\r\n    uint private _PrivatePriceWei;\r\n    uint private _ProviderPriceWei;\r\n    uint private _OwnerRefundPriceWei;\r\n\r\n    // last amount at which dividends where assigned for each token owner\r\n    uint private _AggregatedDividendAmount;\r\n    mapping(address => uint) _lastAssigned;\r\n\r\n    // dividends per token owner\r\n    struct _BalanceStruct{\r\n        mapping(uint => uint) _balance;\r\n        uint[] _factors;\r\n    }\r\n    \r\n    mapping(address => _BalanceStruct) private _balances;\r\n\r\n    // MODIFIERS /////////////////////////////////////////\r\n    modifier areFundsEnough(Library.Prices price){\r\n        uint256 minPrice = 2**256 - 1;\r\n\r\n        if(Library.Prices.NewProvider == price) minPrice = _PublicPriceWei;\r\n        else if(Library.Prices.NewPool == price) minPrice = _PrivatePriceWei;\r\n        else if(Library.Prices.NewCertificate == price) minPrice = _CertificatePriceWei;\r\n        else minPrice = _ProviderPriceWei;\r\n\r\n        require(msg.value >= minPrice, \"EC2\");\r\n        _;\r\n    }\r\n\r\n    modifier isBalanceEnough(uint amount){\r\n        require(checkBalance(msg.sender) >= amount, \"EC20\");\r\n        _;\r\n    }\r\n\r\n    modifier isFromPublicPool(){\r\n        require(true == Library.ItIsSomeone(_managerContract.retrievePublicCertificatePoolProxy()), \"EC8\");\r\n        _;\r\n    }\r\n\r\n    modifier isFromTokenContract(){\r\n        require(true == Library.ItIsSomeone(_managerContract.retrieveCertisTokenProxy()), \"EC8\");\r\n        _;\r\n    }\r\n\r\n    modifier isPriceOK(uint256 PublicPriceWei, uint256 OwnerRefundPriceWei){\r\n        require(PublicPriceWei >= OwnerRefundPriceWei, \"EC21\");\r\n        _;\r\n    }\r\n    \r\n    // CONSTRUCTOR /////////////////////////////////////////\r\n    function Treasury_init(uint256 PublicPriceWei, uint256 PrivatePriceWei, uint256 ProviderPriceWei, uint256 CertificatePriceWei, uint256 OwnerRefundPriceWei, address managerContractAddress, uint256 PropositionLifeTime, uint8 PropositionThresholdPercentage, uint8 minWeightToProposePercentage) public initializer \r\n    {\r\n        super.TokenGovernanceContract_init(PropositionLifeTime, PropositionThresholdPercentage, minWeightToProposePercentage, msg.sender, managerContractAddress);\r\n        InternalupdatePrices(PublicPriceWei, PrivatePriceWei, ProviderPriceWei, CertificatePriceWei, OwnerRefundPriceWei, true);\r\n    }\r\n\r\n    // GOVERNANCE /////////////////////////////////////////\r\n    function updatePrices(uint256 PublicPriceWei, uint256 PrivatePriceWei, uint256 ProviderPriceWei, uint256 CertificatePriceWei, uint256 OwnerRefundPriceWei) external override\r\n    {\r\n        InternalupdatePrices(PublicPriceWei, PrivatePriceWei, ProviderPriceWei, CertificatePriceWei, OwnerRefundPriceWei, false);\r\n    }\r\n\r\n    function InternalupdatePrices(uint256 PublicPriceWei, uint256 PrivatePriceWei, uint256 ProviderPriceWei, uint256 CertificatePriceWei, uint256 OwnerRefundPriceWei, bool fromConstructor) internal\r\n        isPriceOK(PublicPriceWei, OwnerRefundPriceWei)\r\n    {\r\n        if(fromConstructor){\r\n            _PublicPriceWei = PublicPriceWei;\r\n            _PrivatePriceWei = PrivatePriceWei;\r\n            _ProviderPriceWei = ProviderPriceWei;\r\n            _CertificatePriceWei = CertificatePriceWei;\r\n            _OwnerRefundPriceWei = OwnerRefundPriceWei;\r\n        }\r\n        else{\r\n            addProposition(block.timestamp + _PropositionLifeTime, _PropositionThresholdPercentage);\r\n            _ProposedPrices.NewPublicPriceWei = PublicPriceWei;\r\n            _ProposedPrices.NewCertificatePriceWei = CertificatePriceWei;\r\n            _ProposedPrices.NewPrivatePriceWei = PrivatePriceWei;\r\n            _ProposedPrices.NewProviderPriceWei = ProviderPriceWei;\r\n            _ProposedPrices.NewOwnerRefundPriceWei = OwnerRefundPriceWei;\r\n        }\r\n        \r\n    }\r\n\r\n    function propositionApproved() internal override\r\n    {\r\n        _PublicPriceWei = _ProposedPrices.NewPublicPriceWei;\r\n        _PrivatePriceWei = _ProposedPrices.NewPrivatePriceWei;\r\n        _ProviderPriceWei = _ProposedPrices.NewProviderPriceWei;\r\n        _CertificatePriceWei = _ProposedPrices.NewCertificatePriceWei;\r\n        _OwnerRefundPriceWei = _ProposedPrices.NewOwnerRefundPriceWei;\r\n        \r\n        removeProposition();\r\n\r\n        emit _NewPrices(_PublicPriceWei, _PrivatePriceWei, _ProviderPriceWei, _CertificatePriceWei, _OwnerRefundPriceWei);\r\n    }\r\n\r\n    function propositionRejected() internal override\r\n    {\r\n        removeProposition();\r\n    }\r\n\r\n    function propositionExpired() internal override\r\n    {\r\n        removeProposition();\r\n    }\r\n\r\n    function removeProposition() internal\r\n    {\r\n         delete(_ProposedPrices);\r\n    }\r\n\r\n    function retrieveProposition() external override view returns(bytes32[] memory)\r\n    {\r\n        bytes32[] memory proposition = new bytes32[](5);\r\n        proposition[0] = UintLibrary.UintToBytes32(_ProposedPrices.NewPublicPriceWei);\r\n        proposition[1] = UintLibrary.UintToBytes32(_ProposedPrices.NewPrivatePriceWei);\r\n        proposition[2] = UintLibrary.UintToBytes32(_ProposedPrices.NewProviderPriceWei);\r\n        proposition[3] = UintLibrary.UintToBytes32(_ProposedPrices.NewCertificatePriceWei);\r\n        proposition[4] = UintLibrary.UintToBytes32(_ProposedPrices.NewOwnerRefundPriceWei);\r\n        return proposition;\r\n    }\r\n\r\n    // FUNCTIONALITY /////////////////////////////////////////\r\n    function pay(Library.Prices price) external \r\n        areFundsEnough(price)\r\n    override payable\r\n    {\r\n        uint256 amount = msg.value;\r\n        if(price == Library.Prices.NewProvider) amount -= _OwnerRefundPriceWei;\r\n        _AggregatedDividendAmount += amount;\r\n\r\n        emit _Pay(msg.sender, msg.value, _AggregatedDividendAmount);\r\n    }\r\n\r\n    function AssignDividends(address recipient) external\r\n        isFromTokenContract()\r\n    override\r\n    {\r\n       InternalAssignDividends(recipient);\r\n    }\r\n\r\n    function AssignDividends() external override\r\n    {\r\n       InternalAssignDividends(msg.sender);\r\n    }\r\n\r\n    function InternalAssignDividends(address recipient) internal\r\n    {\r\n        if(_lastAssigned[recipient] < _AggregatedDividendAmount){\r\n           uint amountToSplit = _AggregatedDividendAmount - _lastAssigned[recipient];\r\n           _lastAssigned[recipient] = _AggregatedDividendAmount;\r\n           addBalance(recipient, amountToSplit * GetTokensBalance(recipient), totalSupply());\r\n           \r\n           emit _AssignDividend(recipient, amountToSplit * GetTokensBalance(recipient), totalSupply());\r\n        }\r\n    }\r\n\r\n    function getRefund(address addr, uint numberOfOwners) external \r\n        isFromPublicPool()\r\n    override\r\n    {\r\n        addBalance(addr, _OwnerRefundPriceWei, numberOfOwners);\r\n\r\n        emit _Refund(addr, _OwnerRefundPriceWei, numberOfOwners);\r\n    }\r\n\r\n    function withdraw(uint amount) external \r\n        isBalanceEnough(amount)\r\n    override\r\n    {\r\n        uint[] memory f = returnFactors(msg.sender);\r\n        uint total = 0;\r\n        uint i = 0;\r\n\r\n        while ((total < amount) && (i < f.length)){\r\n            uint amountForFactor = returnBalanceForFactor(msg.sender, f[i]) / f[i];\r\n            if(amountForFactor > (amount - total)) amountForFactor = amount - total;\r\n            total += amountForFactor;\r\n            substractBalance(msg.sender, amountForFactor * f[i], f[i]);\r\n            i++;\r\n        }\r\n\r\n        require(total == amount, \"UnExpected problem calculating the amount to withdraw\");\r\n\r\n        payable(msg.sender).transfer(total);\r\n\r\n        emit _Withdraw(msg.sender, total);\r\n    }\r\n\r\n    function retrieveBalance(address addr) external override view returns(uint)\r\n    {\r\n        return checkBalance(addr);\r\n    }\r\n\r\n    function retrievePrices() external override view returns(uint, uint, uint, uint, uint)\r\n    {\r\n        return(_PublicPriceWei, _PrivatePriceWei, _ProviderPriceWei, _CertificatePriceWei, _OwnerRefundPriceWei);\r\n    }\r\n\r\n    function checkBalance(address addr) internal view returns(uint){\r\n        uint[] memory f = returnFactors(addr);\r\n        uint total = 0;\r\n\r\n        for(uint i=0; i < f.length; i++){\r\n            total += returnBalanceForFactor(addr, f[i]) / f[i];\r\n        }\r\n\r\n        return total;\r\n    }\r\n\r\n    function returnFactors(address addr) public view returns(uint[] memory){\r\n        return _balances[addr]._factors;\r\n    }\r\n\r\n    function returnBalanceForFactor(address addr, uint factor) public view returns(uint){\r\n        return _balances[addr]._balance[factor];\r\n    }\r\n\r\n    function addBalance(address addr, uint amount, uint factor) private\r\n    {\r\n        if(amount > 0){\r\n             if(0 == _balances[addr]._balance[factor]){\r\n                _balances[addr]._factors.push(factor);\r\n            }\r\n            _balances[addr]._balance[factor] += amount;\r\n        }\r\n    }\r\n\r\n    function substractBalance(address addr, uint amount, uint factor) private\r\n    {\r\n        require(_balances[addr]._balance[factor] >= amount, \"Not enough balance for this factor\");\r\n\r\n        _balances[addr]._balance[factor] -= amount;\r\n\r\n        if(0 == _balances[addr]._balance[factor]){\r\n            _balances[addr]._factors = UintLibrary.UintArrayRemoveResize(UintLibrary.FindUintPosition(factor, _balances[addr]._factors), _balances[addr]._factors);\r\n        }\r\n        \r\n    }\r\n\r\n}",
  "sourcePath": "C:/Users/d-aam/GitHub/Certificates/contracts/DeployedContracts/Treasury.sol",
  "compiler": {
    "name": "solc",
    "version": "0.8.7+commit.e28d00a7.Emscripten.clang"
  },
  "schemaVersion": "3.3.4",
  "updatedAt": "2021-08-12T15:19:19.454Z",
  "devdoc": {
    "kind": "dev",
    "methods": {},
    "version": 1
  },
  "userdoc": {
    "kind": "user",
    "methods": {},
    "version": 1
  }
}