{
  "contractName": "Treasury",
  "abi": [
    {
      "anonymous": false,
      "inputs": [
        {
          "indexed": false,
          "internalType": "uint256",
          "name": "",
          "type": "uint256"
        },
        {
          "indexed": true,
          "internalType": "address",
          "name": "",
          "type": "address"
        },
        {
          "indexed": false,
          "internalType": "uint256",
          "name": "",
          "type": "uint256"
        },
        {
          "indexed": false,
          "internalType": "uint256",
          "name": "",
          "type": "uint256"
        }
      ],
      "name": "_AddedProposition",
      "type": "event"
    },
    {
      "anonymous": false,
      "inputs": [
        {
          "indexed": true,
          "internalType": "address",
          "name": "",
          "type": "address"
        },
        {
          "indexed": false,
          "internalType": "uint256",
          "name": "",
          "type": "uint256"
        },
        {
          "indexed": false,
          "internalType": "uint256",
          "name": "",
          "type": "uint256"
        }
      ],
      "name": "_AssignDividend",
      "type": "event"
    },
    {
      "anonymous": false,
      "inputs": [
        {
          "indexed": false,
          "internalType": "uint256",
          "name": "",
          "type": "uint256"
        },
        {
          "indexed": true,
          "internalType": "address",
          "name": "",
          "type": "address"
        }
      ],
      "name": "_CancelledProposition",
      "type": "event"
    },
    {
      "anonymous": false,
      "inputs": [
        {
          "indexed": false,
          "internalType": "uint256",
          "name": "",
          "type": "uint256"
        },
        {
          "indexed": false,
          "internalType": "uint256",
          "name": "",
          "type": "uint256"
        },
        {
          "indexed": false,
          "internalType": "uint256",
          "name": "",
          "type": "uint256"
        },
        {
          "indexed": false,
          "internalType": "uint256",
          "name": "",
          "type": "uint256"
        },
        {
          "indexed": false,
          "internalType": "uint256",
          "name": "",
          "type": "uint256"
        }
      ],
      "name": "_NewPrices",
      "type": "event"
    },
    {
      "anonymous": false,
      "inputs": [
        {
          "indexed": true,
          "internalType": "address",
          "name": "",
          "type": "address"
        },
        {
          "indexed": false,
          "internalType": "uint256",
          "name": "",
          "type": "uint256"
        },
        {
          "indexed": false,
          "internalType": "uint256",
          "name": "",
          "type": "uint256"
        }
      ],
      "name": "_Pay",
      "type": "event"
    },
    {
      "anonymous": false,
      "inputs": [
        {
          "indexed": false,
          "internalType": "uint256",
          "name": "",
          "type": "uint256"
        },
        {
          "indexed": true,
          "internalType": "address",
          "name": "",
          "type": "address"
        },
        {
          "indexed": false,
          "internalType": "uint256",
          "name": "",
          "type": "uint256"
        },
        {
          "indexed": false,
          "internalType": "uint256",
          "name": "",
          "type": "uint256"
        }
      ],
      "name": "_PropositionApproved",
      "type": "event"
    },
    {
      "anonymous": false,
      "inputs": [
        {
          "indexed": false,
          "internalType": "uint256",
          "name": "",
          "type": "uint256"
        },
        {
          "indexed": true,
          "internalType": "address",
          "name": "",
          "type": "address"
        },
        {
          "indexed": false,
          "internalType": "uint256",
          "name": "",
          "type": "uint256"
        },
        {
          "indexed": false,
          "internalType": "uint256",
          "name": "",
          "type": "uint256"
        }
      ],
      "name": "_PropositionRejected",
      "type": "event"
    },
    {
      "anonymous": false,
      "inputs": [
        {
          "indexed": false,
          "internalType": "uint256",
          "name": "",
          "type": "uint256"
        },
        {
          "indexed": true,
          "internalType": "address",
          "name": "",
          "type": "address"
        },
        {
          "indexed": false,
          "internalType": "bool",
          "name": "",
          "type": "bool"
        },
        {
          "indexed": false,
          "internalType": "uint256",
          "name": "",
          "type": "uint256"
        }
      ],
      "name": "_PropositionVote",
      "type": "event"
    },
    {
      "anonymous": false,
      "inputs": [
        {
          "indexed": true,
          "internalType": "address",
          "name": "",
          "type": "address"
        },
        {
          "indexed": false,
          "internalType": "uint256",
          "name": "",
          "type": "uint256"
        },
        {
          "indexed": false,
          "internalType": "uint256",
          "name": "",
          "type": "uint256"
        }
      ],
      "name": "_Refund",
      "type": "event"
    },
    {
      "anonymous": false,
      "inputs": [
        {
          "indexed": true,
          "internalType": "uint256",
          "name": "",
          "type": "uint256"
        },
        {
          "indexed": false,
          "internalType": "address",
          "name": "",
          "type": "address"
        },
        {
          "indexed": false,
          "internalType": "address",
          "name": "",
          "type": "address"
        },
        {
          "indexed": false,
          "internalType": "uint256",
          "name": "",
          "type": "uint256"
        }
      ],
      "name": "_UsedTokensTransfered",
      "type": "event"
    },
    {
      "anonymous": false,
      "inputs": [
        {
          "indexed": true,
          "internalType": "address",
          "name": "",
          "type": "address"
        },
        {
          "indexed": false,
          "internalType": "uint256",
          "name": "",
          "type": "uint256"
        }
      ],
      "name": "_Withdraw",
      "type": "event"
    },
    {
      "inputs": [],
      "name": "cancelProposition",
      "outputs": [],
      "stateMutability": "nonpayable",
      "type": "function"
    },
    {
      "inputs": [
        {
          "internalType": "address",
          "name": "from",
          "type": "address"
        },
        {
          "internalType": "address",
          "name": "to",
          "type": "address"
        },
        {
          "internalType": "uint256",
          "name": "amount",
          "type": "uint256"
        }
      ],
      "name": "onTokenBalanceChanged",
      "outputs": [],
      "stateMutability": "nonpayable",
      "type": "function"
    },
    {
      "inputs": [],
      "name": "retrievePendingPropConfig",
      "outputs": [
        {
          "internalType": "uint256",
          "name": "",
          "type": "uint256"
        },
        {
          "internalType": "uint8",
          "name": "",
          "type": "uint8"
        },
        {
          "internalType": "uint8",
          "name": "",
          "type": "uint8"
        },
        {
          "internalType": "bool",
          "name": "",
          "type": "bool"
        }
      ],
      "stateMutability": "view",
      "type": "function"
    },
    {
      "inputs": [],
      "name": "retrievePropConfig",
      "outputs": [
        {
          "internalType": "uint256",
          "name": "",
          "type": "uint256"
        },
        {
          "internalType": "uint8",
          "name": "",
          "type": "uint8"
        },
        {
          "internalType": "uint8",
          "name": "",
          "type": "uint8"
        }
      ],
      "stateMutability": "view",
      "type": "function"
    },
    {
      "inputs": [],
      "name": "retrievePropositionStatus",
      "outputs": [
        {
          "internalType": "address",
          "name": "",
          "type": "address"
        },
        {
          "internalType": "uint256",
          "name": "",
          "type": "uint256"
        },
        {
          "internalType": "uint256",
          "name": "",
          "type": "uint256"
        },
        {
          "internalType": "uint256",
          "name": "",
          "type": "uint256"
        },
        {
          "internalType": "uint256",
          "name": "",
          "type": "uint256"
        }
      ],
      "stateMutability": "view",
      "type": "function"
    },
    {
      "inputs": [
        {
          "internalType": "uint256",
          "name": "PropLifeTime",
          "type": "uint256"
        },
        {
          "internalType": "uint8",
          "name": "PropThresholdPerc",
          "type": "uint8"
        },
        {
          "internalType": "uint8",
          "name": "minWeightToPropPerc",
          "type": "uint8"
        }
      ],
      "name": "updateProp",
      "outputs": [],
      "stateMutability": "nonpayable",
      "type": "function"
    },
    {
      "inputs": [
        {
          "internalType": "bool",
          "name": "vote",
          "type": "bool"
        }
      ],
      "name": "voteProposition",
      "outputs": [],
      "stateMutability": "nonpayable",
      "type": "function"
    },
    {
      "inputs": [
        {
          "internalType": "uint256",
          "name": "PublicPriceWei",
          "type": "uint256"
        },
        {
          "internalType": "uint256",
          "name": "PrivatePriceWei",
          "type": "uint256"
        },
        {
          "internalType": "uint256",
          "name": "ProviderPriceWei",
          "type": "uint256"
        },
        {
          "internalType": "uint256",
          "name": "CertificatePriceWei",
          "type": "uint256"
        },
        {
          "internalType": "uint256",
          "name": "OwnerRefundFeeWei",
          "type": "uint256"
        },
        {
          "internalType": "address",
          "name": "managerContractAddress",
          "type": "address"
        },
        {
          "internalType": "uint256",
          "name": "PropositionLifeTime",
          "type": "uint256"
        },
        {
          "internalType": "uint8",
          "name": "PropositionThresholdPercentage",
          "type": "uint8"
        },
        {
          "internalType": "uint8",
          "name": "minWeightToProposePercentage",
          "type": "uint8"
        }
      ],
      "name": "Treasury_init",
      "outputs": [],
      "stateMutability": "nonpayable",
      "type": "function"
    },
    {
      "inputs": [
        {
          "internalType": "uint256",
          "name": "PublicPriceWei",
          "type": "uint256"
        },
        {
          "internalType": "uint256",
          "name": "PrivatePriceWei",
          "type": "uint256"
        },
        {
          "internalType": "uint256",
          "name": "ProviderPriceWei",
          "type": "uint256"
        },
        {
          "internalType": "uint256",
          "name": "CertificatePriceWei",
          "type": "uint256"
        },
        {
          "internalType": "uint256",
          "name": "OwnerRefundFeeWei",
          "type": "uint256"
        }
      ],
      "name": "updatePrices",
      "outputs": [],
      "stateMutability": "nonpayable",
      "type": "function"
    },
    {
      "inputs": [],
      "name": "retrieveProposition",
      "outputs": [
        {
          "internalType": "bytes32[]",
          "name": "",
          "type": "bytes32[]"
        }
      ],
      "stateMutability": "view",
      "type": "function"
    },
    {
      "inputs": [
        {
          "internalType": "enum Library.Prices",
          "name": "price",
          "type": "uint8"
        }
      ],
      "name": "pay",
      "outputs": [],
      "stateMutability": "payable",
      "type": "function"
    },
    {
      "inputs": [],
      "name": "AssignDividends",
      "outputs": [],
      "stateMutability": "nonpayable",
      "type": "function"
    },
    {
      "inputs": [
        {
          "internalType": "address",
          "name": "addr",
          "type": "address"
        },
        {
          "internalType": "uint256",
          "name": "numberOfOwners",
          "type": "uint256"
        }
      ],
      "name": "getRefund",
      "outputs": [],
      "stateMutability": "nonpayable",
      "type": "function"
    },
    {
      "inputs": [
        {
          "internalType": "uint256",
          "name": "amount",
          "type": "uint256"
        }
      ],
      "name": "withdraw",
      "outputs": [],
      "stateMutability": "nonpayable",
      "type": "function"
    },
    {
      "inputs": [
        {
          "internalType": "address",
          "name": "addr",
          "type": "address"
        }
      ],
      "name": "retrieveBalance",
      "outputs": [
        {
          "internalType": "uint256",
          "name": "",
          "type": "uint256"
        }
      ],
      "stateMutability": "view",
      "type": "function"
    },
    {
      "inputs": [],
      "name": "retrievePrices",
      "outputs": [
        {
          "internalType": "uint256",
          "name": "",
          "type": "uint256"
        },
        {
          "internalType": "uint256",
          "name": "",
          "type": "uint256"
        },
        {
          "internalType": "uint256",
          "name": "",
          "type": "uint256"
        },
        {
          "internalType": "uint256",
          "name": "",
          "type": "uint256"
        },
        {
          "internalType": "uint256",
          "name": "",
          "type": "uint256"
        }
      ],
      "stateMutability": "view",
      "type": "function"
    },
    {
      "inputs": [],
      "name": "retrieveAggregatedAmount",
      "outputs": [
        {
          "internalType": "uint256",
          "name": "",
          "type": "uint256"
        }
      ],
      "stateMutability": "view",
      "type": "function"
    }
  ],
  "bytecode": "0x608060405234801561001057600080fd5b50612473806100206000396000f3fe6080604052600436106100ce5760003560e01c806325b4f3ca146100d35780632e1a7d4d146101095780633c7df55d1461012b57806355457ee91461014b578063840f6d171461016057806390d138ed146101ae57806391f91671146101ef578063922ebecc1461020f57806396df6e791461022f578063a93316f51461024f578063ac2bb44214610271578063d40a523614610291578063d5920d49146102a6578063d660ab34146102c5578063e20f37ad146102fe578063eb1e2a411461031e578063f0c9325e1461033e575b600080fd5b3480156100df57600080fd5b5060135460155460165460145460175460405161010095949392919061232a565b60405180910390f35b34801561011557600080fd5b50610129610124366004612086565b610351565b005b34801561013757600080fd5b50610129610146366004611fa5565b6104d0565b34801561015757600080fd5b5061012961060d565b34801561016c57600080fd5b50600354600454600554600654600754604080516001600160a01b0390961686526020860194909452928401919091526060830152608082015260a001610100565b3480156101ba57600080fd5b506101c361073b565b604051610100949392919093845260ff9283166020850152911660408301521515606082015260800190565b3480156101fb57600080fd5b5061012961020a366004612012565b610796565b34801561021b57600080fd5b5061012961022a3660046120da565b6108ba565b34801561023b57600080fd5b5061012961024a36600461209f565b61094b565b34801561025b57600080fd5b50610264610961565b60405161010091906121aa565b34801561027d57600080fd5b5061012961028c36600461215a565b610cc6565b34801561029d57600080fd5b50610129610cd3565b3480156102b257600080fd5b506018545b604051908152602001610100565b3480156102d157600080fd5b50600a54600b546040805192835260ff808316602085015261010090920490911690820152606001610100565b34801561030a57600080fd5b506102b7610319366004611f6b565b610cde565b34801561032a57600080fd5b50610129610339366004611fe6565b610cef565b61012961034c366004612065565b610e72565b808061035c33610f9b565b101561039c5760405162461bcd60e51b8152600401610393906020808252600490820152630454332360e41b604082015260600190565b60405180910390fd5b60006103a733610fc0565b90506000806103b53361102f565b909250905060006103c68287612387565b6103d090846123a6565b905060005b84518110156104595761044733610428338885815181106103f8576103f8612404565b60200260200101516001600160a01b03919091166000908152601a60209081526040808320938352929052205490565b87848151811061043a5761043a612404565b6020026020010151611145565b80610451816123bd565b9150506103d5565b50610465338284611344565b604051339087156108fc029088906000818181858888f19350505050158015610492573d6000803e3d6000fd5b5060405186815233907f732ea8a38f70c2018ed8dfd6e97bf6381f60102061beae0ac4d9a5abd15a06029060200160405180910390a2505050505050565b73__Library_______________________________63d1d719d0600060029054906101000a90046001600160a01b03166001600160a01b031663da3dce266040518163ffffffff1660e01b815260040160206040518083038186803b15801561053857600080fd5b505afa15801561054c573d6000803e3d6000fd5b505050506040513d601f19601f820116820180604052508101906105709190611f88565b6040518263ffffffff1660e01b815260040161058c9190612196565b60206040518083038186803b1580156105a457600080fd5b505af41580156105b8573d6000803e3d6000fd5b505050506040513d601f19601f820116820180604052508101906105dc919061202f565b15156001146105fd5760405162461bcd60e51b815260040161039390612296565b6106088383836113de565b505050565b6001610617611419565b15156001146106385760405162461bcd60e51b81526004016103939061225a565b600354604051630d1d719d60e41b815273__Library_______________________________9163d1d719d09161067a916001600160a01b031690600401612196565b60206040518083038186803b15801561069257600080fd5b505af41580156106a6573d6000803e3d6000fd5b505050506040513d601f19601f820116820180604052508101906106ca919061202f565b15156001146106eb5760405162461bcd60e51b8152600401610393906121ee565b6106f3611453565b6003546002546040519081526001600160a01b03909116907f1fe8aec10c0a50fa765076161e08c1f961ced69594ff45cf7d559f593afe14799060200160405180910390a250565b600080600080600b60029054906101000a900460ff16801561075e575060045442105b15610783575050600c54600d5490925060ff8082169250610100909104166001610790565b5060009250829150819050805b90919293565b60016107a0611419565b15156001146107c15760405162461bcd60e51b81526004016103939061225a565b6107d03360026000015461147e565b151560011461080a5760405162461bcd60e51b8152600401610393906020808252600490820152634543323360e01b604082015260600190565b600061081b33600260000154611495565b90508215610843578060026004016000828254610838919061234d565b9091555061085e9050565b8060026005016000828254610858919061234d565b90915550505b60025461086c9033836114d2565b600254604080519182528415156020830152810182905233907f50f654d58981575c05e369cb129aeacb01e1b036af429380242cfc5d1a4b743f9060600160405180910390a2610608611504565b600054610100900460ff16806108d3575060005460ff16155b6108ef5760405162461bcd60e51b81526004016103939061220c565b600054610100900460ff16158015610911576000805461ffff19166101011790555b61091e8484843389611644565b61092d8a8a8a8a8a60016116ed565b801561093f576000805461ff00191690555b50505050505050505050565b61095a858585858560006116ed565b5050505050565b60408051600580825260c08201909252606091600091906020820160a0803683375050600e54604051631635719760e31b8152600481019190915291925073__UintLibrary___________________________9163b1ab8cb8915060240160206040518083038186803b1580156109d757600080fd5b505af41580156109eb573d6000803e3d6000fd5b505050506040513d601f19601f82011682018060405250810190610a0f919061204c565b81600081518110610a2257610a22612404565b6020908102919091010152601054604051631635719760e31b8152600481019190915273__UintLibrary___________________________9063b1ab8cb89060240160206040518083038186803b158015610a7c57600080fd5b505af4158015610a90573d6000803e3d6000fd5b505050506040513d601f19601f82011682018060405250810190610ab4919061204c565b81600181518110610ac757610ac7612404565b6020908102919091010152601154604051631635719760e31b8152600481019190915273__UintLibrary___________________________9063b1ab8cb89060240160206040518083038186803b158015610b2157600080fd5b505af4158015610b35573d6000803e3d6000fd5b505050506040513d601f19601f82011682018060405250810190610b59919061204c565b81600281518110610b6c57610b6c612404565b6020908102919091010152600f54604051631635719760e31b8152600481019190915273__UintLibrary___________________________9063b1ab8cb89060240160206040518083038186803b158015610bc657600080fd5b505af4158015610bda573d6000803e3d6000fd5b505050506040513d601f19601f82011682018060405250810190610bfe919061204c565b81600381518110610c1157610c11612404565b6020908102919091010152601254604051631635719760e31b8152600481019190915273__UintLibrary___________________________9063b1ab8cb89060240160206040518083038186803b158015610c6b57600080fd5b505af4158015610c7f573d6000803e3d6000fd5b505050506040513d601f19601f82011682018060405250810190610ca3919061204c565b81600481518110610cb657610cb6612404565b6020908102919091010152919050565b6106088383836000611773565b610cdc3361182a565b565b6000610ce982610f9b565b92915050565b73__Library_______________________________63d1d719d0600060029054906101000a90046001600160a01b03166001600160a01b031663aa33380a6040518163ffffffff1660e01b815260040160206040518083038186803b158015610d5757600080fd5b505afa158015610d6b573d6000803e3d6000fd5b505050506040513d601f19601f82011682018060405250810190610d8f9190611f88565b6040518263ffffffff1660e01b8152600401610dab9190612196565b60206040518083038186803b158015610dc357600080fd5b505af4158015610dd7573d6000803e3d6000fd5b505050506040513d601f19601f82011682018060405250810190610dfb919061202f565b1515600114610e1c5760405162461bcd60e51b815260040161039390612296565b610e298260175483611344565b816001600160a01b03167f885157c8ed39c012c67730d5e5d229068f71cac97d1658f5bf6593c8246dcc3c60175483604051610e66929190612306565b60405180910390a25050565b80600019816003811115610e8857610e886123ee565b610e955750601354610ee0565b816003811115610ea757610ea76123ee565b60011415610eb85750601554610ee0565b816003811115610eca57610eca6123ee565b60021415610edb5750601454610ee0565b506016545b80341015610f165760405162461bcd60e51b815260206004820152600360248201526222a19960e91b6044820152606401610393565b346000846003811115610f2b57610f2b6123ee565b1415610f4157601754610f3e90826123a6565b90505b8060186000828254610f53919061234d565b909155505060185460405133917faef711f818f5d24f55a9c2d7da0afa5edd0420e1505ff8e60c344ce836e3e86e91610f8d913491612306565b60405180910390a250505050565b6000806000610fa98461102f565b9092509050610fb88183612365565b949350505050565b6001600160a01b0381166000908152601a602090815260409182902060010180548351818402810184019094528084526060939283018282801561102357602002820191906000526020600020905b81548152602001906001019080831161100f575b50505050509050919050565b600080600061103d84610fc0565b9050600073__UintLibrary___________________________63f254becc836040518263ffffffff1660e01b815260040161107891906121aa565b60206040518083038186803b15801561109057600080fd5b505af41580156110a4573d6000803e3d6000fd5b505050506040513d601f19601f820116820180604052508101906110c8919061204c565b90506000805b835181101561113a578381815181106110e9576110e9612404565b602002602001015183611108898785815181106103f8576103f8612404565b6111129190612387565b61111c9190612365565b611126908361234d565b915080611132816123bd565b9150506110ce565b509590945092505050565b6001600160a01b0383166000908152601a602090815260408083208484529091529020548211156111c35760405162461bcd60e51b815260206004820152602260248201527f4e6f7420656e6f7567682062616c616e636520666f722074686973206661637460448201526137b960f11b6064820152608401610393565b6001600160a01b0383166000908152601a60209081526040808320848452909152812080548492906111f69084906123a6565b90915550506001600160a01b0383166000908152601a60209081526040808320848452909152902054610608576001600160a01b0383166000908152601a60205260409081902090516362fe358160e11b815273__UintLibrary___________________________9163cffd93cd91839163c5fc6b02916112819187916001909101906004016122b3565b60206040518083038186803b15801561129957600080fd5b505af41580156112ad573d6000803e3d6000fd5b505050506040513d601f19601f820116820180604052508101906112d1919061204c565b6001600160a01b0386166000908152601a60205260409081902090516001600160e01b031960e085901b16815261130f929160010190600401612306565b60006040518083038186803b15801561132757600080fd5b505af415801561133b573d6000803e3d6000fd5b50505050505050565b8115610608576001600160a01b0383166000908152601a602090815260408083208484529091529020546113a1576001600160a01b0383166000908152601a60209081526040822060019081018054918201815583529120018190555b6001600160a01b0383166000908152601a60209081526040808320848452909152812080548492906113d490849061234d565b9091555050505050565b6113e983838361190b565b6001600160a01b03831615611401576114018361182a565b6001600160a01b03821615610608576106088261182a565b60045460009042101561142c5750600190565b6003546001600160a01b03161561144d57611445611928565b61144d611453565b50600090565b60006002819055600380546001600160a01b0319169055600481905560058190556006819055600755565b60008061148b8484611495565b1515949350505050565b60008181526009602090815260408083206001600160a01b03861684529091528120546114c184611930565b6114cb91906123a6565b9392505050565b60008381526009602090815260408083206001600160a01b0386168452909152812080548392906113d490849061234d565b60055460065411156115c057600b5462010000900460ff161561155c57600c54600a55600d54600b805461010080840460ff90811690910261ffff19909216931692909217919091179055611557611a32565b611564565b611564611a50565b61156c611453565b6003546002546006546007546040516001600160a01b03909416937f23ca0034cf5aad32571b4a492e9598ea8a490e1643a60970e3cdc6933b55e49f936115b69390929091612314565b60405180910390a2565b6005546007541115610cdc57600b5462010000900460ff16156115ea576115e5611a32565b6115f2565b6115f2611928565b6115fa611453565b6003546002546006546007546040516001600160a01b03909416937fa58eb6daa3c62c3f883973c4035e5bd3e81aa627c8379de068a7de42df122be2936115b69390929091612314565b600054610100900460ff168061165d575060005460ff16155b6116795760405162461bcd60e51b81526004016103939061220c565b600054610100900460ff1615801561169b576000805461ffff19166101011790555b6116a482611ac1565b600180546001600160a01b0319166001600160a01b03851617815560006008556116d390879087908790611773565b80156116e5576000805461ff00191690555b505050505050565b85828082101561170f5760405162461bcd60e51b815260040161039390612278565b82156117335760138890556015879055601686905560148590556017849055611769565b61174f600a5442611744919061234d565b600b5460ff16611b50565b600e889055600f8590556010879055601186905560128490555b5050505050505050565b82828160ff16606410156117995760405162461bcd60e51b815260040161039390612278565b8060ff16606410156117bd5760405162461bcd60e51b815260040161039390612278565b82156117e857600a869055600b805460ff8681166101000261ffff19909216908816171790556116e5565b600c869055600d805460ff8681166101000261ffff1990921690881617179055600b805462ff0000191662010000179055600a546116e590611744904261234d565b6018546001600160a01b0382166000908152601960205260409020541015611908576001600160a01b03811660009081526019602052604081205460185461187291906123a6565b6018546001600160a01b03841660009081526019602052604090205590506118b48261189d81611930565b6118a79084612387565b6118af611c67565b611344565b816001600160a01b03167fe983a49d27e04c64952da756088988cab0349d02969d01e8fecd907888b2e1206118e884611930565b6118f29084612387565b6118fa611c67565b604051610e66929190612306565b50565b611913611419565b15156001141561060857610608838383611d63565b610cdc611eca565b60008060029054906101000a90046001600160a01b03166001600160a01b031663da3dce266040518163ffffffff1660e01b815260040160206040518083038186803b15801561197f57600080fd5b505afa158015611993573d6000803e3d6000fd5b505050506040513d601f19601f820116820180604052508101906119b79190611f88565b6001600160a01b03166370a08231836040518263ffffffff1660e01b81526004016119e29190612196565b60206040518083038186803b1580156119fa57600080fd5b505afa158015611a0e573d6000803e3d6000fd5b505050506040513d601f19601f82011682018060405250810190610ce9919061204c565b6000600c55600d805461ffff19169055600b805462ff000019169055565b600e54601355601054601555601154601655600f54601455601254601755611a76611eca565b7fbe8847d52fb3c03e3414e96d164a23594063f5b6cf01428e61c38bfbbc34ef19601354601554601654601454601754604051611ab795949392919061232a565b60405180910390a1565b600054610100900460ff1680611ada575060005460ff16155b611af65760405162461bcd60e51b81526004016103939061220c565b600054610100900460ff16158015611b18576000805461ffff19166101011790555b6000805462010000600160b01b031916620100006001600160a01b038516021790558015611b4c576000805461ff00191690555b5050565b6000611b5a611419565b15611b905760405162461bcd60e51b8152600401610393906020808252600490820152631150cc8d60e21b604082015260600190565b611b9933611ee5565b1515600114611bba5760405162461bcd60e51b8152600401610393906121ee565b600380546001600160a01b031916331790556004839055606460ff8316611bdf611c67565b611be99190612387565b611bf39190612365565b600555600880546002819055906000611c0b836123bd565b90915550506003546002546004546005546040516001600160a01b03909416937f472501d19bf75639b2e316cd36f8568b0c3ab943b82a87de3c086c98c1929df993611c5a9390929091612314565b60405180910390a2505050565b60008060029054906101000a90046001600160a01b03166001600160a01b031663da3dce266040518163ffffffff1660e01b815260040160206040518083038186803b158015611cb657600080fd5b505afa158015611cca573d6000803e3d6000fd5b505050506040513d601f19601f82011682018060405250810190611cee9190611f88565b6001600160a01b03166318160ddd6040518163ffffffff1660e01b815260040160206040518083038186803b158015611d2657600080fd5b505afa158015611d3a573d6000803e3d6000fd5b505050506040513d601f19601f82011682018060405250810190611d5e919061204c565b905090565b6001600160a01b03831615801590611d9f575060025460009081526009602090815260408083206001600160a01b038716845290915290205415155b156106085760025460009081526009602090815260408083206001600160a01b03871684529091529020548190811115611dfb575060025460009081526009602090815260408083206001600160a01b03871684529091529020545b60025460009081526009602090815260408083206001600160a01b038816845290915281208054839290611e309084906123a6565b90915550506001600160a01b03831615611e7f5760025460009081526009602090815260408083206001600160a01b038716845290915281208054839290611e7990849061234d565b90915550505b600254604080516001600160a01b038088168252861660208201529081018390527f65fbd5e5dd32bea4aeca85bd0be0abf0e489d655dee888a7510d43b06dda2dba90606001610f8d565b6000600e819055600f81905560108190556011819055601255565b6001546000906001600160a01b0383811691161415611f0657506001919050565b6000611f1183611930565b90506064611f1d611c67565b600b54611f329190610100900460ff16612387565b611f3c9190612365565b811115611f4c5750600192915050565b50600092915050565b919050565b803560ff81168114611f5557600080fd5b600060208284031215611f7d57600080fd5b81356114cb8161241a565b600060208284031215611f9a57600080fd5b81516114cb8161241a565b600080600060608486031215611fba57600080fd5b8335611fc58161241a565b92506020840135611fd58161241a565b929592945050506040919091013590565b60008060408385031215611ff957600080fd5b82356120048161241a565b946020939093013593505050565b60006020828403121561202457600080fd5b81356114cb8161242f565b60006020828403121561204157600080fd5b81516114cb8161242f565b60006020828403121561205e57600080fd5b5051919050565b60006020828403121561207757600080fd5b8135600481106114cb57600080fd5b60006020828403121561209857600080fd5b5035919050565b600080600080600060a086880312156120b757600080fd5b505083359560208501359550604085013594606081013594506080013592509050565b60008060008060008060008060006101208a8c0312156120f957600080fd5b8935985060208a0135975060408a0135965060608a0135955060808a0135945060a08a01356121278161241a565b935060c08a0135925061213c60e08b01611f5a565b915061214b6101008b01611f5a565b90509295985092959850929598565b60008060006060848603121561216f57600080fd5b8335925061217f60208501611f5a565b915061218d60408501611f5a565b90509250925092565b6001600160a01b0391909116815260200190565b6020808252825182820181905260009190848201906040850190845b818110156121e2578351835292840192918401916001016121c6565b50909695505050505050565b60208082526004908201526322a1991960e11b604082015260600190565b6020808252602e908201527f496e697469616c697a61626c653a20636f6e747261637420697320616c72656160408201526d191e481a5b9a5d1a585b1a5e995960921b606082015260800190565b6020808252600490820152634543323560e01b604082015260600190565b6020808252600490820152634543323160e01b604082015260600190565b60208082526003908201526208a86760eb1b604082015260600190565b60006040820184835260206040818501528185548084526060860191508660005282600020935060005b818110156122f9578454835260019485019492840192016122dd565b5090979650505050505050565b918252602082015260400190565b9283526020830191909152604082015260600190565b948552602085019390935260408401919091526060830152608082015260a00190565b60008219821115612360576123606123d8565b500190565b60008261238257634e487b7160e01b600052601260045260246000fd5b500490565b60008160001904831182151516156123a1576123a16123d8565b500290565b6000828210156123b8576123b86123d8565b500390565b60006000198214156123d1576123d16123d8565b5060010190565b634e487b7160e01b600052601160045260246000fd5b634e487b7160e01b600052602160045260246000fd5b634e487b7160e01b600052603260045260246000fd5b6001600160a01b038116811461190857600080fd5b801515811461190857600080fdfea26469706673582212208f18ad64d4ee3f3227e10bcecfdd34fae7c7767c0a7f4591bece0aeb4de4a5f264736f6c63430008070033",
  "immutableReferences": {},
  "source": "// SPDX-License-Identifier: GPL-3.0\r\n\r\npragma solidity >=0.8.0 <0.9.0;\r\n\r\n/**\r\n * @title Storage\r\n * @dev Store & retrieve value in a variable\r\n */\r\n\r\nimport \"../Interfaces/ITreasury.sol\";\r\nimport \"../Libraries/UintLibrary.sol\";\r\nimport \"../Libraries/Library.sol\";\r\nimport \"../Base/TokenGovernanceBaseContract.sol\";\r\nimport \"@openzeppelin/contracts-upgradeable/token/ERC20/IERC20Upgradeable.sol\";\r\n\r\n\r\ncontract Treasury is ITreasury, TokenGovernanceBaseContract{\r\n    using Library for *;\r\n    using UintLibrary for *;\r\n\r\n    // EVENTS /////////////////////////////////////////\r\n    event _NewPrices(uint, uint, uint, uint, uint);\r\n    event _Pay(address indexed, uint, uint);\r\n    event _Refund(address indexed, uint, uint);\r\n    event _AssignDividend(address indexed, uint, uint);\r\n    event _Withdraw(address indexed, uint);\r\n\r\n    // DATA /////////////////////////////////////////\r\n    // proposition to change prices\r\n    struct ProposedPricesStruct{\r\n        uint NewPublicPriceWei;\r\n        uint NewCertificatePriceWei;\r\n        uint NewPrivatePriceWei;\r\n        uint NewProviderPriceWei;\r\n        uint NewOwnerRefundFeeWei;\r\n    }\r\n\r\n    ProposedPricesStruct private _ProposedPrices;\r\n\r\n    // parameters\r\n    uint private _PublicPriceWei;\r\n    uint private _CertificatePriceWei;\r\n    uint private _PrivatePriceWei;\r\n    uint private _ProviderPriceWei;\r\n    uint private _OwnerRefundFeeWei;\r\n\r\n    // last amount at which dividends where assigned for each token owner\r\n    uint private _AggregatedDividendAmount;\r\n    mapping(address => uint) private _lastAssigned;\r\n\r\n    // dividends per token owner\r\n    struct _BalanceStruct{\r\n        mapping(uint => uint) _balance;\r\n        uint[] _factors;\r\n    }\r\n    \r\n    mapping(address => _BalanceStruct) private _balances;\r\n\r\n    // MODIFIERS /////////////////////////////////////////\r\n    modifier areFundsEnough(Library.Prices price){\r\n        uint256 minPrice = 2**256 - 1;\r\n\r\n        if(Library.Prices.NewProvider == price) minPrice = _PublicPriceWei;\r\n        else if(Library.Prices.NewPool == price) minPrice = _PrivatePriceWei;\r\n        else if(Library.Prices.NewCertificate == price) minPrice = _CertificatePriceWei;\r\n        else minPrice = _ProviderPriceWei;\r\n\r\n        require(msg.value >= minPrice, \"EC2\");\r\n        _;\r\n    }\r\n\r\n    modifier isBalanceEnough(uint amount){\r\n        require(checkBalance(msg.sender) >= amount, \"EC20\");\r\n        _;\r\n    }\r\n\r\n    modifier isFromPublicPool(){\r\n        require(true == Library.ItIsSomeone(_managerContract.retrievePublicCertificatePoolProxy()), \"EC8\");\r\n        _;\r\n    }\r\n\r\n    modifier isPriceOK(uint256 PublicPriceWei, uint256 OwnerRefundFeeWei){\r\n        require(PublicPriceWei >= OwnerRefundFeeWei, \"EC21\");\r\n        _;\r\n    }\r\n    \r\n    // CONSTRUCTOR /////////////////////////////////////////\r\n    function Treasury_init(uint256 PublicPriceWei, uint256 PrivatePriceWei, uint256 ProviderPriceWei, uint256 CertificatePriceWei, uint256 OwnerRefundFeeWei, address managerContractAddress, uint256 PropositionLifeTime, uint8 PropositionThresholdPercentage, uint8 minWeightToProposePercentage) public initializer \r\n    {\r\n        super.TokenGovernanceContract_init(PropositionLifeTime, PropositionThresholdPercentage, minWeightToProposePercentage, msg.sender, managerContractAddress);\r\n        InternalupdatePrices(PublicPriceWei, PrivatePriceWei, ProviderPriceWei, CertificatePriceWei, OwnerRefundFeeWei, true);\r\n    }\r\n\r\n    // GOVERNANCE /////////////////////////////////////////\r\n    function updatePrices(uint256 PublicPriceWei, uint256 PrivatePriceWei, uint256 ProviderPriceWei, uint256 CertificatePriceWei, uint256 OwnerRefundFeeWei) external override\r\n    {\r\n        InternalupdatePrices(PublicPriceWei, PrivatePriceWei, ProviderPriceWei, CertificatePriceWei, OwnerRefundFeeWei, false);\r\n    }\r\n\r\n    function InternalupdatePrices(uint256 PublicPriceWei, uint256 PrivatePriceWei, uint256 ProviderPriceWei, uint256 CertificatePriceWei, uint256 OwnerRefundFeeWei, bool fromConstructor) internal\r\n        isPriceOK(PublicPriceWei, OwnerRefundFeeWei)\r\n    {\r\n        if(fromConstructor){\r\n            _PublicPriceWei = PublicPriceWei;\r\n            _PrivatePriceWei = PrivatePriceWei;\r\n            _ProviderPriceWei = ProviderPriceWei;\r\n            _CertificatePriceWei = CertificatePriceWei;\r\n            _OwnerRefundFeeWei = OwnerRefundFeeWei;\r\n        }\r\n        else{\r\n            addProposition(block.timestamp + _PropositionLifeTime, _PropositionThresholdPercentage);\r\n            _ProposedPrices.NewPublicPriceWei = PublicPriceWei;\r\n            _ProposedPrices.NewCertificatePriceWei = CertificatePriceWei;\r\n            _ProposedPrices.NewPrivatePriceWei = PrivatePriceWei;\r\n            _ProposedPrices.NewProviderPriceWei = ProviderPriceWei;\r\n            _ProposedPrices.NewOwnerRefundFeeWei = OwnerRefundFeeWei;\r\n        }\r\n        \r\n    }\r\n\r\n    function propositionApproved() internal override\r\n    {\r\n        _PublicPriceWei = _ProposedPrices.NewPublicPriceWei;\r\n        _PrivatePriceWei = _ProposedPrices.NewPrivatePriceWei;\r\n        _ProviderPriceWei = _ProposedPrices.NewProviderPriceWei;\r\n        _CertificatePriceWei = _ProposedPrices.NewCertificatePriceWei;\r\n        _OwnerRefundFeeWei = _ProposedPrices.NewOwnerRefundFeeWei;\r\n        \r\n        removeProposition();\r\n\r\n        emit _NewPrices(_PublicPriceWei, _PrivatePriceWei, _ProviderPriceWei, _CertificatePriceWei, _OwnerRefundFeeWei);\r\n    }\r\n\r\n    function propositionRejected() internal override\r\n    {\r\n        removeProposition();\r\n    }\r\n\r\n    function propositionExpired() internal override\r\n    {\r\n        removeProposition();\r\n    }\r\n\r\n    function removeProposition() internal\r\n    {\r\n         delete(_ProposedPrices);\r\n    }\r\n\r\n    function retrieveProposition() external override view returns(bytes32[] memory)\r\n    {\r\n        bytes32[] memory proposition = new bytes32[](5);\r\n        proposition[0] = UintLibrary.UintToBytes32(_ProposedPrices.NewPublicPriceWei);\r\n        proposition[1] = UintLibrary.UintToBytes32(_ProposedPrices.NewPrivatePriceWei);\r\n        proposition[2] = UintLibrary.UintToBytes32(_ProposedPrices.NewProviderPriceWei);\r\n        proposition[3] = UintLibrary.UintToBytes32(_ProposedPrices.NewCertificatePriceWei);\r\n        proposition[4] = UintLibrary.UintToBytes32(_ProposedPrices.NewOwnerRefundFeeWei);\r\n        return proposition;\r\n    }\r\n\r\n    // FUNCTIONALITY /////////////////////////////////////////\r\n    function pay(Library.Prices price) external \r\n        areFundsEnough(price)\r\n    override payable\r\n    {\r\n        uint256 amount = msg.value;\r\n        if(price == Library.Prices.NewProvider) amount -= _OwnerRefundFeeWei;\r\n        _AggregatedDividendAmount += amount;\r\n\r\n        emit _Pay(msg.sender, msg.value, _AggregatedDividendAmount);\r\n    }\r\n\r\n    function InternalonTokenBalanceChanged(address from, address to, uint256 amount) internal override\r\n    {\r\n        super.InternalonTokenBalanceChanged(from, to, amount);\r\n        if(address(0) != from) InternalAssignDividends(from);\r\n        if(address(0) != to) InternalAssignDividends(to);\r\n    }\r\n\r\n    function AssignDividends() external override\r\n    {\r\n       InternalAssignDividends(msg.sender);\r\n    }\r\n\r\n    function InternalAssignDividends(address recipient) internal\r\n    {\r\n        if(_lastAssigned[recipient] < _AggregatedDividendAmount){\r\n           uint amountToSplit = _AggregatedDividendAmount - _lastAssigned[recipient];\r\n           _lastAssigned[recipient] = _AggregatedDividendAmount;\r\n           addBalance(recipient, amountToSplit * GetTokensBalance(recipient), totalSupply());\r\n           \r\n           emit _AssignDividend(recipient, amountToSplit * GetTokensBalance(recipient), totalSupply());\r\n        }\r\n    }\r\n\r\n    function getRefund(address addr, uint numberOfOwners) external \r\n        isFromPublicPool()\r\n    override\r\n    {\r\n        addBalance(addr, _OwnerRefundFeeWei, numberOfOwners);\r\n\r\n        emit _Refund(addr, _OwnerRefundFeeWei, numberOfOwners);\r\n    }\r\n\r\n    function withdraw(uint amount) external \r\n        isBalanceEnough(amount)\r\n    override\r\n    {\r\n        uint[] memory f = returnFactors(msg.sender);\r\n        (uint total, uint commonDividend) = sumUpTotal(msg.sender);\r\n        uint remainder =  total - (amount * commonDividend);\r\n\r\n        for(uint i=0; i < f.length; i++){\r\n            substractBalance(msg.sender, returnBalanceForFactor(msg.sender, f[i]), f[i]);\r\n        }\r\n\r\n        addBalance(msg.sender, remainder, commonDividend);\r\n\r\n        payable(msg.sender).transfer(amount);\r\n\r\n        emit _Withdraw(msg.sender, amount);\r\n    }\r\n\r\n    function retrieveBalance(address addr) external override view returns(uint)\r\n    {\r\n        return checkBalance(addr);\r\n    }\r\n\r\n    function retrievePrices() external override view returns(uint, uint, uint, uint, uint)\r\n    {\r\n        return(_PublicPriceWei, _PrivatePriceWei, _ProviderPriceWei, _CertificatePriceWei, _OwnerRefundFeeWei);\r\n    }\r\n\r\n    function retrieveAggregatedAmount() external override view returns(uint){\r\n        return _AggregatedDividendAmount;\r\n    }\r\n\r\n    function checkBalance(address addr) internal view returns(uint){\r\n        (uint total, uint commonDividend) = sumUpTotal(addr);\r\n\r\n        return total / commonDividend;\r\n    }\r\n\r\n    function sumUpTotal(address addr) internal view returns (uint, uint)\r\n    {\r\n        uint[] memory f = returnFactors(addr);\r\n        uint CommonDividend = UintLibrary.ProductOfFactors(f);\r\n        uint total = 0;\r\n\r\n        for(uint i=0; i < f.length; i++){\r\n            total += returnBalanceForFactor(addr, f[i]) * CommonDividend / f[i];\r\n        }\r\n\r\n        return (total, CommonDividend);\r\n    }\r\n\r\n    function returnFactors(address addr) internal view returns(uint[] memory){\r\n        return _balances[addr]._factors;\r\n    }\r\n\r\n    function returnBalanceForFactor(address addr, uint factor) internal view returns(uint){\r\n        return _balances[addr]._balance[factor];\r\n    }\r\n\r\n    function addBalance(address addr, uint amount, uint factor) internal\r\n    {\r\n        if(amount > 0){\r\n            if(0 == _balances[addr]._balance[factor])\r\n            {\r\n                _balances[addr]._factors.push(factor);\r\n            }\r\n            _balances[addr]._balance[factor] += amount;\r\n        }\r\n    }\r\n\r\n    function substractBalance(address addr, uint amount, uint factor) internal\r\n    {\r\n        require(_balances[addr]._balance[factor] >= amount, \"Not enough balance for this factor\");\r\n\r\n        _balances[addr]._balance[factor] -= amount;\r\n\r\n        if(0 == _balances[addr]._balance[factor])\r\n        {\r\n            UintLibrary.UintArrayRemoveResize(UintLibrary.FindUintPosition(factor, _balances[addr]._factors), _balances[addr]._factors);\r\n        }\r\n        \r\n    }\r\n\r\n}",
  "sourcePath": "C:/Users/d-aam/GitHub/Certificates/contracts/DeployedContracts/Treasury.sol",
  "compiler": {
    "name": "solc",
    "version": "0.8.7+commit.e28d00a7.Emscripten.clang"
  },
  "schemaVersion": "3.3.4",
  "updatedAt": "2021-08-23T11:10:53.768Z",
  "devdoc": {
    "kind": "dev",
    "methods": {},
    "version": 1
  },
  "userdoc": {
    "kind": "user",
    "methods": {},
    "version": 1
  }
}