{
  "contractName": "Treasury",
  "abi": [
    {
      "anonymous": false,
      "inputs": [
        {
          "indexed": false,
          "internalType": "uint256",
          "name": "",
          "type": "uint256"
        },
        {
          "indexed": true,
          "internalType": "address",
          "name": "",
          "type": "address"
        },
        {
          "indexed": false,
          "internalType": "uint256",
          "name": "",
          "type": "uint256"
        },
        {
          "indexed": false,
          "internalType": "uint256",
          "name": "",
          "type": "uint256"
        }
      ],
      "name": "_AddedProposition",
      "type": "event"
    },
    {
      "anonymous": false,
      "inputs": [
        {
          "indexed": true,
          "internalType": "address",
          "name": "",
          "type": "address"
        },
        {
          "indexed": false,
          "internalType": "uint256",
          "name": "",
          "type": "uint256"
        },
        {
          "indexed": false,
          "internalType": "uint256",
          "name": "",
          "type": "uint256"
        }
      ],
      "name": "_AssignDividend",
      "type": "event"
    },
    {
      "anonymous": false,
      "inputs": [
        {
          "indexed": false,
          "internalType": "uint256",
          "name": "",
          "type": "uint256"
        },
        {
          "indexed": true,
          "internalType": "address",
          "name": "",
          "type": "address"
        }
      ],
      "name": "_CancelledProposition",
      "type": "event"
    },
    {
      "anonymous": false,
      "inputs": [
        {
          "indexed": false,
          "internalType": "uint256",
          "name": "",
          "type": "uint256"
        },
        {
          "indexed": false,
          "internalType": "uint256",
          "name": "",
          "type": "uint256"
        },
        {
          "indexed": false,
          "internalType": "uint256",
          "name": "",
          "type": "uint256"
        },
        {
          "indexed": false,
          "internalType": "uint256",
          "name": "",
          "type": "uint256"
        },
        {
          "indexed": false,
          "internalType": "uint256",
          "name": "",
          "type": "uint256"
        }
      ],
      "name": "_NewPrices",
      "type": "event"
    },
    {
      "anonymous": false,
      "inputs": [
        {
          "indexed": true,
          "internalType": "address",
          "name": "",
          "type": "address"
        },
        {
          "indexed": false,
          "internalType": "uint256",
          "name": "",
          "type": "uint256"
        },
        {
          "indexed": false,
          "internalType": "uint256",
          "name": "",
          "type": "uint256"
        }
      ],
      "name": "_Pay",
      "type": "event"
    },
    {
      "anonymous": false,
      "inputs": [
        {
          "indexed": false,
          "internalType": "uint256",
          "name": "",
          "type": "uint256"
        },
        {
          "indexed": true,
          "internalType": "address",
          "name": "",
          "type": "address"
        },
        {
          "indexed": false,
          "internalType": "uint256",
          "name": "",
          "type": "uint256"
        },
        {
          "indexed": false,
          "internalType": "uint256",
          "name": "",
          "type": "uint256"
        }
      ],
      "name": "_PropositionApproved",
      "type": "event"
    },
    {
      "anonymous": false,
      "inputs": [
        {
          "indexed": false,
          "internalType": "uint256",
          "name": "",
          "type": "uint256"
        },
        {
          "indexed": true,
          "internalType": "address",
          "name": "",
          "type": "address"
        },
        {
          "indexed": false,
          "internalType": "uint256",
          "name": "",
          "type": "uint256"
        },
        {
          "indexed": false,
          "internalType": "uint256",
          "name": "",
          "type": "uint256"
        }
      ],
      "name": "_PropositionRejected",
      "type": "event"
    },
    {
      "anonymous": false,
      "inputs": [
        {
          "indexed": false,
          "internalType": "uint256",
          "name": "",
          "type": "uint256"
        },
        {
          "indexed": true,
          "internalType": "address",
          "name": "",
          "type": "address"
        },
        {
          "indexed": false,
          "internalType": "bool",
          "name": "",
          "type": "bool"
        },
        {
          "indexed": false,
          "internalType": "uint256",
          "name": "",
          "type": "uint256"
        }
      ],
      "name": "_PropositionVote",
      "type": "event"
    },
    {
      "anonymous": false,
      "inputs": [
        {
          "indexed": true,
          "internalType": "address",
          "name": "",
          "type": "address"
        },
        {
          "indexed": false,
          "internalType": "uint256",
          "name": "",
          "type": "uint256"
        },
        {
          "indexed": false,
          "internalType": "uint256",
          "name": "",
          "type": "uint256"
        }
      ],
      "name": "_Refund",
      "type": "event"
    },
    {
      "anonymous": false,
      "inputs": [
        {
          "indexed": true,
          "internalType": "uint256",
          "name": "",
          "type": "uint256"
        },
        {
          "indexed": false,
          "internalType": "address",
          "name": "",
          "type": "address"
        },
        {
          "indexed": false,
          "internalType": "address",
          "name": "",
          "type": "address"
        },
        {
          "indexed": false,
          "internalType": "uint256",
          "name": "",
          "type": "uint256"
        }
      ],
      "name": "_UsedTokensTransfered",
      "type": "event"
    },
    {
      "anonymous": false,
      "inputs": [
        {
          "indexed": true,
          "internalType": "address",
          "name": "",
          "type": "address"
        },
        {
          "indexed": false,
          "internalType": "uint256",
          "name": "",
          "type": "uint256"
        }
      ],
      "name": "_Withdraw",
      "type": "event"
    },
    {
      "inputs": [],
      "name": "cancelProposition",
      "outputs": [],
      "stateMutability": "nonpayable",
      "type": "function"
    },
    {
      "inputs": [
        {
          "internalType": "address",
          "name": "from",
          "type": "address"
        },
        {
          "internalType": "address",
          "name": "to",
          "type": "address"
        },
        {
          "internalType": "uint256",
          "name": "amount",
          "type": "uint256"
        }
      ],
      "name": "onTokenBalanceChanged",
      "outputs": [],
      "stateMutability": "nonpayable",
      "type": "function"
    },
    {
      "inputs": [],
      "name": "retrievePendingPropConfig",
      "outputs": [
        {
          "internalType": "uint256",
          "name": "",
          "type": "uint256"
        },
        {
          "internalType": "uint8",
          "name": "",
          "type": "uint8"
        },
        {
          "internalType": "uint8",
          "name": "",
          "type": "uint8"
        },
        {
          "internalType": "bool",
          "name": "",
          "type": "bool"
        }
      ],
      "stateMutability": "view",
      "type": "function"
    },
    {
      "inputs": [],
      "name": "retrievePropConfig",
      "outputs": [
        {
          "internalType": "uint256",
          "name": "",
          "type": "uint256"
        },
        {
          "internalType": "uint8",
          "name": "",
          "type": "uint8"
        },
        {
          "internalType": "uint8",
          "name": "",
          "type": "uint8"
        }
      ],
      "stateMutability": "view",
      "type": "function"
    },
    {
      "inputs": [],
      "name": "retrievePropositionStatus",
      "outputs": [
        {
          "internalType": "address",
          "name": "",
          "type": "address"
        },
        {
          "internalType": "uint256",
          "name": "",
          "type": "uint256"
        },
        {
          "internalType": "uint256",
          "name": "",
          "type": "uint256"
        },
        {
          "internalType": "uint256",
          "name": "",
          "type": "uint256"
        },
        {
          "internalType": "uint256",
          "name": "",
          "type": "uint256"
        }
      ],
      "stateMutability": "view",
      "type": "function"
    },
    {
      "inputs": [
        {
          "internalType": "uint256",
          "name": "PropLifeTime",
          "type": "uint256"
        },
        {
          "internalType": "uint8",
          "name": "PropThresholdPerc",
          "type": "uint8"
        },
        {
          "internalType": "uint8",
          "name": "minWeightToPropPerc",
          "type": "uint8"
        }
      ],
      "name": "updateProp",
      "outputs": [],
      "stateMutability": "nonpayable",
      "type": "function"
    },
    {
      "inputs": [
        {
          "internalType": "bool",
          "name": "vote",
          "type": "bool"
        }
      ],
      "name": "voteProposition",
      "outputs": [],
      "stateMutability": "nonpayable",
      "type": "function"
    },
    {
      "inputs": [
        {
          "internalType": "uint256",
          "name": "PublicPriceWei",
          "type": "uint256"
        },
        {
          "internalType": "uint256",
          "name": "PrivatePriceWei",
          "type": "uint256"
        },
        {
          "internalType": "uint256",
          "name": "ProviderPriceWei",
          "type": "uint256"
        },
        {
          "internalType": "uint256",
          "name": "CertificatePriceWei",
          "type": "uint256"
        },
        {
          "internalType": "uint256",
          "name": "OwnerRefundFeeWei",
          "type": "uint256"
        },
        {
          "internalType": "address",
          "name": "managerContractAddress",
          "type": "address"
        },
        {
          "internalType": "address",
          "name": "chairPerson",
          "type": "address"
        },
        {
          "internalType": "uint256",
          "name": "PropositionLifeTime",
          "type": "uint256"
        },
        {
          "internalType": "uint8",
          "name": "PropositionThresholdPercentage",
          "type": "uint8"
        },
        {
          "internalType": "uint8",
          "name": "minWeightToProposePercentage",
          "type": "uint8"
        }
      ],
      "name": "Treasury_init",
      "outputs": [],
      "stateMutability": "nonpayable",
      "type": "function"
    },
    {
      "inputs": [
        {
          "internalType": "uint256",
          "name": "PublicPriceWei",
          "type": "uint256"
        },
        {
          "internalType": "uint256",
          "name": "PrivatePriceWei",
          "type": "uint256"
        },
        {
          "internalType": "uint256",
          "name": "ProviderPriceWei",
          "type": "uint256"
        },
        {
          "internalType": "uint256",
          "name": "CertificatePriceWei",
          "type": "uint256"
        },
        {
          "internalType": "uint256",
          "name": "OwnerRefundFeeWei",
          "type": "uint256"
        }
      ],
      "name": "updatePrices",
      "outputs": [],
      "stateMutability": "nonpayable",
      "type": "function"
    },
    {
      "inputs": [],
      "name": "retrieveProposition",
      "outputs": [
        {
          "internalType": "bytes32[]",
          "name": "",
          "type": "bytes32[]"
        }
      ],
      "stateMutability": "view",
      "type": "function"
    },
    {
      "inputs": [
        {
          "internalType": "enum Library.Prices",
          "name": "price",
          "type": "uint8"
        }
      ],
      "name": "pay",
      "outputs": [],
      "stateMutability": "payable",
      "type": "function"
    },
    {
      "inputs": [],
      "name": "AssignDividends",
      "outputs": [],
      "stateMutability": "nonpayable",
      "type": "function"
    },
    {
      "inputs": [
        {
          "internalType": "address",
          "name": "addr",
          "type": "address"
        },
        {
          "internalType": "uint256",
          "name": "numberOfOwners",
          "type": "uint256"
        }
      ],
      "name": "getRefund",
      "outputs": [],
      "stateMutability": "nonpayable",
      "type": "function"
    },
    {
      "inputs": [
        {
          "internalType": "uint256",
          "name": "amount",
          "type": "uint256"
        }
      ],
      "name": "withdraw",
      "outputs": [],
      "stateMutability": "nonpayable",
      "type": "function"
    },
    {
      "inputs": [
        {
          "internalType": "address",
          "name": "addr",
          "type": "address"
        }
      ],
      "name": "retrieveBalance",
      "outputs": [
        {
          "internalType": "uint256",
          "name": "",
          "type": "uint256"
        }
      ],
      "stateMutability": "view",
      "type": "function"
    },
    {
      "inputs": [],
      "name": "retrievePrices",
      "outputs": [
        {
          "internalType": "uint256",
          "name": "",
          "type": "uint256"
        },
        {
          "internalType": "uint256",
          "name": "",
          "type": "uint256"
        },
        {
          "internalType": "uint256",
          "name": "",
          "type": "uint256"
        },
        {
          "internalType": "uint256",
          "name": "",
          "type": "uint256"
        },
        {
          "internalType": "uint256",
          "name": "",
          "type": "uint256"
        }
      ],
      "stateMutability": "view",
      "type": "function"
    },
    {
      "inputs": [],
      "name": "retrieveAggregatedAmount",
      "outputs": [
        {
          "internalType": "uint256",
          "name": "",
          "type": "uint256"
        }
      ],
      "stateMutability": "view",
      "type": "function"
    }
  ],
  "bytecode": "0x608060405234801561001057600080fd5b506125a4806100206000396000f3fe6080604052600436106100ce5760003560e01c8063056f90ba146100d357806325b4f3ca146100f55780632e1a7d4d1461012b5780633c7df55d1461014b57806355457ee91461016b578063840f6d171461018057806390d138ed146101ce57806391f916711461020f57806396df6e791461022f578063a93316f51461024f578063ac2bb44214610271578063d40a523614610291578063d5920d49146102a6578063d660ab34146102c5578063e20f37ad146102fe578063eb1e2a411461031e578063f0c9325e1461033e575b600080fd5b3480156100df57600080fd5b506100f36100ee36600461213d565b610351565b005b34801561010157600080fd5b5060135460155460165460145460175460405161012295949392919061242b565b60405180910390f35b34801561013757600080fd5b506100f36101463660046120e9565b6103ec565b34801561015757600080fd5b506100f3610166366004612008565b6105c3565b34801561017757600080fd5b506100f3610700565b34801561018c57600080fd5b50600354600454600554600654600754604080516001600160a01b0390961686526020860194909452928401919091526060830152608082015260a001610122565b3480156101da57600080fd5b506101e361082e565b604051610122949392919093845260ff9283166020850152911660408301521515606082015260800190565b34801561021b57600080fd5b506100f361022a366004612075565b610889565b34801561023b57600080fd5b506100f361024a366004612102565b6109ac565b34801561025b57600080fd5b506102646109c2565b6040516101229190612274565b34801561027d57600080fd5b506100f361028c3660046121d1565b610d27565b34801561029d57600080fd5b506100f3610d34565b3480156102b257600080fd5b506018545b604051908152602001610122565b3480156102d157600080fd5b50600a54600b546040805192835260ff808316602085015261010090920490911690820152606001610122565b34801561030a57600080fd5b506102b7610319366004611fce565b610d3f565b34801561032a57600080fd5b506100f3610339366004612049565b610d50565b6100f361034c3660046120c8565b610ed3565b600054610100900460ff168061036a575060005460ff16155b61038f5760405162461bcd60e51b815260040161038690612328565b60405180910390fd5b600054610100900460ff161580156103b1576000805461ffff19166101011790555b6103be848484888a610fff565b6103cd8b8b8b8b8b60016110a8565b80156103df576000805461ff00191690555b5050505050505050505050565b80806103f73361112e565b101561042d5760405162461bcd60e51b8152602060048201526005602482015264454332302d60d81b6044820152606401610386565b600061043833611153565b9050600080610446336111c2565b909250905060006104578287612488565b61046190846124a7565b905060005b84518110156104ea576104d8336104b93388858151811061048957610489612535565b60200260200101516001600160a01b03919091166000908152601a60209081526040808320938352929052205490565b8784815181106104cb576104cb612535565b60200260200101516112d8565b806104e2816124ee565b915050610466565b506104f63382846114d7565b6040516000908190339089908381818185875af1925050503d806000811461053a576040519150601f19603f3d011682016040523d82523d6000602084013e61053f565b606091505b50915091508181604051602001610556919061220d565b604051602081830303815290604052906105835760405162461bcd60e51b815260040161038691906122b8565b5060405188815233907f732ea8a38f70c2018ed8dfd6e97bf6381f60102061beae0ac4d9a5abd15a06029060200160405180910390a25050505050505050565b73__Library_______________________________63d1d719d0600060029054906101000a90046001600160a01b03166001600160a01b031663da3dce266040518163ffffffff1660e01b815260040160206040518083038186803b15801561062b57600080fd5b505afa15801561063f573d6000803e3d6000fd5b505050506040513d601f19601f820116820180604052508101906106639190611feb565b6040518263ffffffff1660e01b815260040161067f9190612260565b60206040518083038186803b15801561069757600080fd5b505af41580156106ab573d6000803e3d6000fd5b505050506040513d601f19601f820116820180604052508101906106cf9190612092565b15156001146106f05760405162461bcd60e51b8152600401610386906122eb565b6106fb838383611571565b505050565b600161070a6115ac565b151560011461072b5760405162461bcd60e51b815260040161038690612376565b600354604051630d1d719d60e41b815273__Library_______________________________9163d1d719d09161076d916001600160a01b031690600401612260565b60206040518083038186803b15801561078557600080fd5b505af4158015610799573d6000803e3d6000fd5b505050506040513d601f19601f820116820180604052508101906107bd9190612092565b15156001146107de5760405162461bcd60e51b815260040161038690612395565b6107e66115e6565b6003546002546040519081526001600160a01b03909116907f1fe8aec10c0a50fa765076161e08c1f961ced69594ff45cf7d559f593afe14799060200160405180910390a250565b600080600080600b60029054906101000a900460ff168015610851575060045442105b15610876575050600c54600d5490925060ff8082169250610100909104166001610883565b5060009250829150819050805b90919293565b60016108936115ac565b15156001146108b45760405162461bcd60e51b815260040161038690612376565b6108c333600260000154611611565b15156001146108fc5760405162461bcd60e51b8152602060048201526005602482015264454332332d60d81b6044820152606401610386565b600061090d33600260000154611628565b9050821561093557806002600401600082825461092a919061244e565b909155506109509050565b806002600501600082825461094a919061244e565b90915550505b60025461095e903383611665565b600254604080519182528415156020830152810182905233907f50f654d58981575c05e369cb129aeacb01e1b036af429380242cfc5d1a4b743f9060600160405180910390a26106fb611697565b6109bb858585858560006110a8565b5050505050565b60408051600580825260c08201909252606091600091906020820160a0803683375050600e54604051631635719760e31b8152600481019190915291925073__UintLibrary___________________________9163b1ab8cb8915060240160206040518083038186803b158015610a3857600080fd5b505af4158015610a4c573d6000803e3d6000fd5b505050506040513d601f19601f82011682018060405250810190610a7091906120af565b81600081518110610a8357610a83612535565b6020908102919091010152601054604051631635719760e31b8152600481019190915273__UintLibrary___________________________9063b1ab8cb89060240160206040518083038186803b158015610add57600080fd5b505af4158015610af1573d6000803e3d6000fd5b505050506040513d601f19601f82011682018060405250810190610b1591906120af565b81600181518110610b2857610b28612535565b6020908102919091010152601154604051631635719760e31b8152600481019190915273__UintLibrary___________________________9063b1ab8cb89060240160206040518083038186803b158015610b8257600080fd5b505af4158015610b96573d6000803e3d6000fd5b505050506040513d601f19601f82011682018060405250810190610bba91906120af565b81600281518110610bcd57610bcd612535565b6020908102919091010152600f54604051631635719760e31b8152600481019190915273__UintLibrary___________________________9063b1ab8cb89060240160206040518083038186803b158015610c2757600080fd5b505af4158015610c3b573d6000803e3d6000fd5b505050506040513d601f19601f82011682018060405250810190610c5f91906120af565b81600381518110610c7257610c72612535565b6020908102919091010152601254604051631635719760e31b8152600481019190915273__UintLibrary___________________________9063b1ab8cb89060240160206040518083038186803b158015610ccc57600080fd5b505af4158015610ce0573d6000803e3d6000fd5b505050506040513d601f19601f82011682018060405250810190610d0491906120af565b81600481518110610d1757610d17612535565b6020908102919091010152919050565b6106fb83838360006117d7565b610d3d3361188e565b565b6000610d4a8261112e565b92915050565b73__Library_______________________________63d1d719d0600060029054906101000a90046001600160a01b03166001600160a01b031663aa33380a6040518163ffffffff1660e01b815260040160206040518083038186803b158015610db857600080fd5b505afa158015610dcc573d6000803e3d6000fd5b505050506040513d601f19601f82011682018060405250810190610df09190611feb565b6040518263ffffffff1660e01b8152600401610e0c9190612260565b60206040518083038186803b158015610e2457600080fd5b505af4158015610e38573d6000803e3d6000fd5b505050506040513d601f19601f82011682018060405250810190610e5c9190612092565b1515600114610e7d5760405162461bcd60e51b8152600401610386906122eb565b610e8a82601754836114d7565b816001600160a01b03167f885157c8ed39c012c67730d5e5d229068f71cac97d1658f5bf6593c8246dcc3c60175483604051610ec7929190612407565b60405180910390a25050565b80600019816003811115610ee957610ee961251f565b610ef65750601354610f41565b816003811115610f0857610f0861251f565b60011415610f195750601554610f41565b816003811115610f2b57610f2b61251f565b60021415610f3c5750601454610f41565b506016545b80341015610f7a5760405162461bcd60e51b8152600401610386906020808252600490820152634543322d60e01b604082015260600190565b346000846003811115610f8f57610f8f61251f565b1415610fa557601754610fa290826124a7565b90505b8060186000828254610fb7919061244e565b909155505060185460405133917faef711f818f5d24f55a9c2d7da0afa5edd0420e1505ff8e60c344ce836e3e86e91610ff1913491612407565b60405180910390a250505050565b600054610100900460ff1680611018575060005460ff16155b6110345760405162461bcd60e51b815260040161038690612328565b600054610100900460ff16158015611056576000805461ffff19166101011790555b61105f8261196f565b600180546001600160a01b0319166001600160a01b038516178155600060085561108e908790879087906117d7565b80156110a0576000805461ff00191690555b505050505050565b8582808210156110ca5760405162461bcd60e51b815260040161038690612309565b82156110ee5760138890556015879055601686905560148590556017849055611124565b61110a600a54426110ff919061244e565b600b5460ff166119fe565b600e889055600f8590556010879055601186905560128490555b5050505050505050565b600080600061113c846111c2565b909250905061114b8183612466565b949350505050565b6001600160a01b0381166000908152601a60209081526040918290206001018054835181840281018401909452808452606093928301828280156111b657602002820191906000526020600020905b8154815260200190600101908083116111a2575b50505050509050919050565b60008060006111d084611153565b9050600073__UintLibrary___________________________63f254becc836040518263ffffffff1660e01b815260040161120b9190612274565b60206040518083038186803b15801561122357600080fd5b505af4158015611237573d6000803e3d6000fd5b505050506040513d601f19601f8201168201806040525081019061125b91906120af565b90506000805b83518110156112cd5783818151811061127c5761127c612535565b60200260200101518361129b8987858151811061048957610489612535565b6112a59190612488565b6112af9190612466565b6112b9908361244e565b9150806112c5816124ee565b915050611261565b509590945092505050565b6001600160a01b0383166000908152601a602090815260408083208484529091529020548211156113565760405162461bcd60e51b815260206004820152602260248201527f4e6f7420656e6f7567682062616c616e636520666f722074686973206661637460448201526137b960f11b6064820152608401610386565b6001600160a01b0383166000908152601a60209081526040808320848452909152812080548492906113899084906124a7565b90915550506001600160a01b0383166000908152601a602090815260408083208484529091529020546106fb576001600160a01b0383166000908152601a60205260409081902090516362fe358160e11b815273__UintLibrary___________________________9163cffd93cd91839163c5fc6b02916114149187916001909101906004016123b4565b60206040518083038186803b15801561142c57600080fd5b505af4158015611440573d6000803e3d6000fd5b505050506040513d601f19601f8201168201806040525081019061146491906120af565b6001600160a01b0386166000908152601a60205260409081902090516001600160e01b031960e085901b1681526114a2929160010190600401612407565b60006040518083038186803b1580156114ba57600080fd5b505af41580156114ce573d6000803e3d6000fd5b50505050505050565b81156106fb576001600160a01b0383166000908152601a60209081526040808320848452909152902054611534576001600160a01b0383166000908152601a60209081526040822060019081018054918201815583529120018190555b6001600160a01b0383166000908152601a602090815260408083208484529091528120805484929061156790849061244e565b9091555050505050565b61157c838383611b14565b6001600160a01b03831615611594576115948361188e565b6001600160a01b038216156106fb576106fb8261188e565b6004546000904210156115bf5750600190565b6003546001600160a01b0316156115e0576115d8611b31565b6115e06115e6565b50600090565b60006002819055600380546001600160a01b0319169055600481905560058190556006819055600755565b60008061161e8484611628565b1515949350505050565b60008181526009602090815260408083206001600160a01b038616845290915281205461165484611b39565b61165e91906124a7565b9392505050565b60008381526009602090815260408083206001600160a01b03861684529091528120805483929061156790849061244e565b600554600654111561175357600b5462010000900460ff16156116ef57600c54600a55600d54600b805461010080840460ff90811690910261ffff199092169316929092179190911790556116ea611c3b565b6116f7565b6116f7611c59565b6116ff6115e6565b6003546002546006546007546040516001600160a01b03909416937f23ca0034cf5aad32571b4a492e9598ea8a490e1643a60970e3cdc6933b55e49f936117499390929091612415565b60405180910390a2565b6005546007541115610d3d57600b5462010000900460ff161561177d57611778611c3b565b611785565b611785611b31565b61178d6115e6565b6003546002546006546007546040516001600160a01b03909416937fa58eb6daa3c62c3f883973c4035e5bd3e81aa627c8379de068a7de42df122be2936117499390929091612415565b82828160ff16606410156117fd5760405162461bcd60e51b815260040161038690612309565b8060ff16606410156118215760405162461bcd60e51b815260040161038690612309565b821561184c57600a869055600b805460ff8681166101000261ffff19909216908816171790556110a0565b600c869055600d805460ff8681166101000261ffff1990921690881617179055600b805462ff0000191662010000179055600a546110a0906110ff904261244e565b6018546001600160a01b038216600090815260196020526040902054101561196c576001600160a01b0381166000908152601960205260408120546018546118d691906124a7565b6018546001600160a01b03841660009081526019602052604090205590506119188261190181611b39565b61190b9084612488565b611913611cca565b6114d7565b816001600160a01b03167fe983a49d27e04c64952da756088988cab0349d02969d01e8fecd907888b2e12061194c84611b39565b6119569084612488565b61195e611cca565b604051610ec7929190612407565b50565b600054610100900460ff1680611988575060005460ff16155b6119a45760405162461bcd60e51b815260040161038690612328565b600054610100900460ff161580156119c6576000805461ffff19166101011790555b6000805462010000600160b01b031916620100006001600160a01b0385160217905580156119fa576000805461ff00191690555b5050565b6000611a086115ac565b15611a3d5760405162461bcd60e51b8152602060048201526005602482015264454332342d60d81b6044820152606401610386565b611a4633611dc6565b1515600114611a675760405162461bcd60e51b815260040161038690612395565b600380546001600160a01b031916331790556004839055606460ff8316611a8c611cca565b611a969190612488565b611aa09190612466565b600555600880546002819055906000611ab8836124ee565b90915550506003546002546004546005546040516001600160a01b03909416937f472501d19bf75639b2e316cd36f8568b0c3ab943b82a87de3c086c98c1929df993611b079390929091612415565b60405180910390a2505050565b611b1c6115ac565b1515600114156106fb576106fb838383611e3b565b610d3d611fa2565b60008060029054906101000a90046001600160a01b03166001600160a01b031663da3dce266040518163ffffffff1660e01b815260040160206040518083038186803b158015611b8857600080fd5b505afa158015611b9c573d6000803e3d6000fd5b505050506040513d601f19601f82011682018060405250810190611bc09190611feb565b6001600160a01b03166370a08231836040518263ffffffff1660e01b8152600401611beb9190612260565b60206040518083038186803b158015611c0357600080fd5b505afa158015611c17573d6000803e3d6000fd5b505050506040513d601f19601f82011682018060405250810190610d4a91906120af565b6000600c55600d805461ffff19169055600b805462ff000019169055565b600e54601355601054601555601154601655600f54601455601254601755611c7f611fa2565b7fbe8847d52fb3c03e3414e96d164a23594063f5b6cf01428e61c38bfbbc34ef19601354601554601654601454601754604051611cc095949392919061242b565b60405180910390a1565b60008060029054906101000a90046001600160a01b03166001600160a01b031663da3dce266040518163ffffffff1660e01b815260040160206040518083038186803b158015611d1957600080fd5b505afa158015611d2d573d6000803e3d6000fd5b505050506040513d601f19601f82011682018060405250810190611d519190611feb565b6001600160a01b03166318160ddd6040518163ffffffff1660e01b815260040160206040518083038186803b158015611d8957600080fd5b505afa158015611d9d573d6000803e3d6000fd5b505050506040513d601f19601f82011682018060405250810190611dc191906120af565b905090565b6001546000906001600160a01b0383811691161415611de757506001919050565b6000611df283611b39565b90506064611dfe611cca565b600b54611e139190610100900460ff16612488565b611e1d9190612466565b811115611e2d5750600192915050565b50600092915050565b919050565b6001600160a01b03831615801590611e77575060025460009081526009602090815260408083206001600160a01b038716845290915290205415155b156106fb5760025460009081526009602090815260408083206001600160a01b03871684529091529020548190811115611ed3575060025460009081526009602090815260408083206001600160a01b03871684529091529020545b60025460009081526009602090815260408083206001600160a01b038816845290915281208054839290611f089084906124a7565b90915550506001600160a01b03831615611f575760025460009081526009602090815260408083206001600160a01b038716845290915281208054839290611f5190849061244e565b90915550505b600254604080516001600160a01b038088168252861660208201529081018390527f65fbd5e5dd32bea4aeca85bd0be0abf0e489d655dee888a7510d43b06dda2dba90606001610ff1565b6000600e819055600f81905560108190556011819055601255565b803560ff81168114611e3657600080fd5b600060208284031215611fe057600080fd5b813561165e8161254b565b600060208284031215611ffd57600080fd5b815161165e8161254b565b60008060006060848603121561201d57600080fd5b83356120288161254b565b925060208401356120388161254b565b929592945050506040919091013590565b6000806040838503121561205c57600080fd5b82356120678161254b565b946020939093013593505050565b60006020828403121561208757600080fd5b813561165e81612560565b6000602082840312156120a457600080fd5b815161165e81612560565b6000602082840312156120c157600080fd5b5051919050565b6000602082840312156120da57600080fd5b81356004811061165e57600080fd5b6000602082840312156120fb57600080fd5b5035919050565b600080600080600060a0868803121561211a57600080fd5b505083359560208501359550604085013594606081013594506080013592509050565b6000806000806000806000806000806101408b8d03121561215d57600080fd5b8a35995060208b0135985060408b0135975060608b0135965060808b0135955060a08b013561218b8161254b565b945060c08b013561219b8161254b565b935060e08b013592506121b16101008c01611fbd565b91506121c06101208c01611fbd565b90509295989b9194979a5092959850565b6000806000606084860312156121e657600080fd5b833592506121f660208501611fbd565b915061220460408501611fbd565b90509250925092565b7f4572726f72207472616e73666572696e672066756e647320746f206164647265815264039b9901d160dd1b6020820152600082516122538160258501602087016124be565b9190910160250192915050565b6001600160a01b0391909116815260200190565b6020808252825182820181905260009190848201906040850190845b818110156122ac57835183529284019291840191600101612290565b50909695505050505050565b60208152600082518060208401526122d78160408501602087016124be565b601f01601f19169190910160400192915050565b6020808252600490820152634543382d60e01b604082015260600190565b602080825260059082015264454332312d60d81b604082015260600190565b6020808252602e908201527f496e697469616c697a61626c653a20636f6e747261637420697320616c72656160408201526d191e481a5b9a5d1a585b1a5e995960921b606082015260800190565b602080825260059082015264454332352d60d81b604082015260600190565b602080825260059082015264454332322d60d81b604082015260600190565b60006040820184835260206040818501528185548084526060860191508660005282600020935060005b818110156123fa578454835260019485019492840192016123de565b5090979650505050505050565b918252602082015260400190565b9283526020830191909152604082015260600190565b948552602085019390935260408401919091526060830152608082015260a00190565b6000821982111561246157612461612509565b500190565b60008261248357634e487b7160e01b600052601260045260246000fd5b500490565b60008160001904831182151516156124a2576124a2612509565b500290565b6000828210156124b9576124b9612509565b500390565b60005b838110156124d95781810151838201526020016124c1565b838111156124e8576000848401525b50505050565b600060001982141561250257612502612509565b5060010190565b634e487b7160e01b600052601160045260246000fd5b634e487b7160e01b600052602160045260246000fd5b634e487b7160e01b600052603260045260246000fd5b6001600160a01b038116811461196c57600080fd5b801515811461196c57600080fdfea2646970667358221220b8c84e265c95aca1f5bce12f662f344005dd602ecf16001ee096c59eee97fe2264736f6c63430008070033",
  "immutableReferences": {},
  "source": "// SPDX-License-Identifier: GPL-3.0\r\n\r\npragma solidity >=0.8.0 <0.9.0;\r\n\r\n/**\r\n * @title Storage\r\n * @dev Store & retrieve value in a variable\r\n */\r\n\r\nimport \"../Interfaces/ITreasury.sol\";\r\nimport \"../Libraries/UintLibrary.sol\";\r\nimport \"../Libraries/Library.sol\";\r\nimport \"../Base/TokenGovernanceBaseContract.sol\";\r\nimport \"@openzeppelin/contracts-upgradeable/token/ERC20/IERC20Upgradeable.sol\";\r\n\r\n\r\ncontract Treasury is ITreasury, TokenGovernanceBaseContract{\r\n    using Library for *;\r\n    using UintLibrary for *;\r\n\r\n    // EVENTS /////////////////////////////////////////\r\n    event _NewPrices(uint, uint, uint, uint, uint);\r\n    event _Pay(address indexed, uint, uint);\r\n    event _Refund(address indexed, uint, uint);\r\n    event _AssignDividend(address indexed, uint, uint);\r\n    event _Withdraw(address indexed, uint);\r\n\r\n    // DATA /////////////////////////////////////////\r\n    // proposition to change prices\r\n    struct ProposedPricesStruct{\r\n        uint NewPublicPriceWei;\r\n        uint NewCertificatePriceWei;\r\n        uint NewPrivatePriceWei;\r\n        uint NewProviderPriceWei;\r\n        uint NewOwnerRefundFeeWei;\r\n    }\r\n\r\n    ProposedPricesStruct private _ProposedPrices;\r\n\r\n    // parameters\r\n    uint private _PublicPriceWei;\r\n    uint private _CertificatePriceWei;\r\n    uint private _PrivatePriceWei;\r\n    uint private _ProviderPriceWei;\r\n    uint private _OwnerRefundFeeWei;\r\n\r\n    // last amount at which dividends where assigned for each token owner\r\n    uint private _AggregatedDividendAmount;\r\n    mapping(address => uint) private _lastAssigned;\r\n\r\n    // dividends per token owner\r\n    struct _BalanceStruct{\r\n        mapping(uint => uint) _balance;\r\n        uint[] _factors;\r\n    }\r\n    \r\n    mapping(address => _BalanceStruct) private _balances;\r\n\r\n    // MODIFIERS /////////////////////////////////////////\r\n    modifier areFundsEnough(Library.Prices price){\r\n        uint256 minPrice = 2**256 - 1;\r\n\r\n        if(Library.Prices.NewProvider == price) minPrice = _PublicPriceWei;\r\n        else if(Library.Prices.NewPool == price) minPrice = _PrivatePriceWei;\r\n        else if(Library.Prices.NewCertificate == price) minPrice = _CertificatePriceWei;\r\n        else minPrice = _ProviderPriceWei;\r\n\r\n        require(msg.value >= minPrice, \"EC2-\");\r\n        _;\r\n    }\r\n\r\n    modifier isBalanceEnough(uint amount){\r\n        require(checkBalance(msg.sender) >= amount, \"EC20-\");\r\n        _;\r\n    }\r\n\r\n    modifier isFromPublicPool(){\r\n        require(true == Library.ItIsSomeone(_managerContract.retrievePublicCertificatePoolProxy()), \"EC8-\");\r\n        _;\r\n    }\r\n\r\n    modifier isPriceOK(uint256 PublicPriceWei, uint256 OwnerRefundFeeWei){\r\n        require(PublicPriceWei >= OwnerRefundFeeWei, \"EC21-\");\r\n        _;\r\n    }\r\n    \r\n    // CONSTRUCTOR /////////////////////////////////////////\r\n    function Treasury_init(uint256 PublicPriceWei, uint256 PrivatePriceWei, uint256 ProviderPriceWei, uint256 CertificatePriceWei, uint256 OwnerRefundFeeWei, address managerContractAddress, address chairPerson, uint256 PropositionLifeTime, uint8 PropositionThresholdPercentage, uint8 minWeightToProposePercentage) public initializer \r\n    {\r\n        super.TokenGovernanceContract_init(PropositionLifeTime, PropositionThresholdPercentage, minWeightToProposePercentage, chairPerson, managerContractAddress);\r\n        InternalupdatePrices(PublicPriceWei, PrivatePriceWei, ProviderPriceWei, CertificatePriceWei, OwnerRefundFeeWei, true);\r\n    }\r\n\r\n    // GOVERNANCE /////////////////////////////////////////\r\n    function updatePrices(uint256 PublicPriceWei, uint256 PrivatePriceWei, uint256 ProviderPriceWei, uint256 CertificatePriceWei, uint256 OwnerRefundFeeWei) external override\r\n    {\r\n        InternalupdatePrices(PublicPriceWei, PrivatePriceWei, ProviderPriceWei, CertificatePriceWei, OwnerRefundFeeWei, false);\r\n    }\r\n\r\n    function InternalupdatePrices(uint256 PublicPriceWei, uint256 PrivatePriceWei, uint256 ProviderPriceWei, uint256 CertificatePriceWei, uint256 OwnerRefundFeeWei, bool fromConstructor) internal\r\n        isPriceOK(PublicPriceWei, OwnerRefundFeeWei)\r\n    {\r\n        if(fromConstructor){\r\n            _PublicPriceWei = PublicPriceWei;\r\n            _PrivatePriceWei = PrivatePriceWei;\r\n            _ProviderPriceWei = ProviderPriceWei;\r\n            _CertificatePriceWei = CertificatePriceWei;\r\n            _OwnerRefundFeeWei = OwnerRefundFeeWei;\r\n        }\r\n        else{\r\n            addProposition(block.timestamp + _PropositionLifeTime, _PropositionThresholdPercentage);\r\n            _ProposedPrices.NewPublicPriceWei = PublicPriceWei;\r\n            _ProposedPrices.NewCertificatePriceWei = CertificatePriceWei;\r\n            _ProposedPrices.NewPrivatePriceWei = PrivatePriceWei;\r\n            _ProposedPrices.NewProviderPriceWei = ProviderPriceWei;\r\n            _ProposedPrices.NewOwnerRefundFeeWei = OwnerRefundFeeWei;\r\n        }\r\n        \r\n    }\r\n\r\n    function propositionApproved() internal override\r\n    {\r\n        _PublicPriceWei = _ProposedPrices.NewPublicPriceWei;\r\n        _PrivatePriceWei = _ProposedPrices.NewPrivatePriceWei;\r\n        _ProviderPriceWei = _ProposedPrices.NewProviderPriceWei;\r\n        _CertificatePriceWei = _ProposedPrices.NewCertificatePriceWei;\r\n        _OwnerRefundFeeWei = _ProposedPrices.NewOwnerRefundFeeWei;\r\n        \r\n        removeProposition();\r\n\r\n        emit _NewPrices(_PublicPriceWei, _PrivatePriceWei, _ProviderPriceWei, _CertificatePriceWei, _OwnerRefundFeeWei);\r\n    }\r\n\r\n    function propositionRejected() internal override\r\n    {\r\n        removeProposition();\r\n    }\r\n\r\n    function propositionExpired() internal override\r\n    {\r\n        removeProposition();\r\n    }\r\n\r\n    function removeProposition() internal\r\n    {\r\n         delete(_ProposedPrices);\r\n    }\r\n\r\n    function retrieveProposition() external override view returns(bytes32[] memory)\r\n    {\r\n        bytes32[] memory proposition = new bytes32[](5);\r\n        proposition[0] = UintLibrary.UintToBytes32(_ProposedPrices.NewPublicPriceWei);\r\n        proposition[1] = UintLibrary.UintToBytes32(_ProposedPrices.NewPrivatePriceWei);\r\n        proposition[2] = UintLibrary.UintToBytes32(_ProposedPrices.NewProviderPriceWei);\r\n        proposition[3] = UintLibrary.UintToBytes32(_ProposedPrices.NewCertificatePriceWei);\r\n        proposition[4] = UintLibrary.UintToBytes32(_ProposedPrices.NewOwnerRefundFeeWei);\r\n        return proposition;\r\n    }\r\n\r\n    // FUNCTIONALITY /////////////////////////////////////////\r\n    function pay(Library.Prices price) external \r\n        areFundsEnough(price)\r\n    override payable\r\n    {\r\n        uint256 amount = msg.value;\r\n        if(price == Library.Prices.NewProvider) amount -= _OwnerRefundFeeWei;\r\n        _AggregatedDividendAmount += amount;\r\n\r\n        emit _Pay(msg.sender, msg.value, _AggregatedDividendAmount);\r\n    }\r\n\r\n    function InternalonTokenBalanceChanged(address from, address to, uint256 amount) internal override\r\n    {\r\n        super.InternalonTokenBalanceChanged(from, to, amount);\r\n        if(address(0) != from) InternalAssignDividends(from);\r\n        if(address(0) != to) InternalAssignDividends(to);\r\n    }\r\n\r\n    function AssignDividends() external override\r\n    {\r\n       InternalAssignDividends(msg.sender);\r\n    }\r\n\r\n    function InternalAssignDividends(address recipient) internal\r\n    {\r\n        if(_lastAssigned[recipient] < _AggregatedDividendAmount){\r\n           uint amountToSplit = _AggregatedDividendAmount - _lastAssigned[recipient];\r\n           _lastAssigned[recipient] = _AggregatedDividendAmount;\r\n           addBalance(recipient, amountToSplit * GetTokensBalance(recipient), totalSupply());\r\n           \r\n           emit _AssignDividend(recipient, amountToSplit * GetTokensBalance(recipient), totalSupply());\r\n        }\r\n    }\r\n\r\n    function getRefund(address addr, uint numberOfOwners) external \r\n        isFromPublicPool()\r\n    override\r\n    {\r\n        addBalance(addr, _OwnerRefundFeeWei, numberOfOwners);\r\n\r\n        emit _Refund(addr, _OwnerRefundFeeWei, numberOfOwners);\r\n    }\r\n\r\n    function withdraw(uint amount) external \r\n        isBalanceEnough(amount)\r\n    override\r\n    {\r\n        uint[] memory f = returnFactors(msg.sender);\r\n        (uint total, uint commonDividend) = sumUpTotal(msg.sender);\r\n        uint remainder =  total - (amount * commonDividend);\r\n\r\n        for(uint i=0; i < f.length; i++){\r\n            substractBalance(msg.sender, returnBalanceForFactor(msg.sender, f[i]), f[i]);\r\n        }\r\n\r\n        addBalance(msg.sender, remainder, commonDividend);\r\n\r\n        (bool success, bytes memory data) = msg.sender.call{value: amount}(\"\");\r\n        require(success, string(abi.encodePacked(\"Error transfering funds to address : \", data)));\r\n\r\n        emit _Withdraw(msg.sender, amount);\r\n    }\r\n\r\n    function retrieveBalance(address addr) external override view returns(uint)\r\n    {\r\n        return checkBalance(addr);\r\n    }\r\n\r\n    function retrievePrices() external override view returns(uint, uint, uint, uint, uint)\r\n    {\r\n        return(_PublicPriceWei, _PrivatePriceWei, _ProviderPriceWei, _CertificatePriceWei, _OwnerRefundFeeWei);\r\n    }\r\n\r\n    function retrieveAggregatedAmount() external override view returns(uint){\r\n        return _AggregatedDividendAmount;\r\n    }\r\n\r\n    function checkBalance(address addr) internal view returns(uint){\r\n        (uint total, uint commonDividend) = sumUpTotal(addr);\r\n\r\n        return total / commonDividend;\r\n    }\r\n\r\n    function sumUpTotal(address addr) internal view returns (uint, uint)\r\n    {\r\n        uint[] memory f = returnFactors(addr);\r\n        uint CommonDividend = UintLibrary.ProductOfFactors(f);\r\n        uint total = 0;\r\n\r\n        for(uint i=0; i < f.length; i++){\r\n            total += returnBalanceForFactor(addr, f[i]) * CommonDividend / f[i];\r\n        }\r\n\r\n        return (total, CommonDividend);\r\n    }\r\n\r\n    function returnFactors(address addr) internal view returns(uint[] memory){\r\n        return _balances[addr]._factors;\r\n    }\r\n\r\n    function returnBalanceForFactor(address addr, uint factor) internal view returns(uint){\r\n        return _balances[addr]._balance[factor];\r\n    }\r\n\r\n    function addBalance(address addr, uint amount, uint factor) internal\r\n    {\r\n        if(amount > 0){\r\n            if(0 == _balances[addr]._balance[factor])\r\n            {\r\n                _balances[addr]._factors.push(factor);\r\n            }\r\n            _balances[addr]._balance[factor] += amount;\r\n        }\r\n    }\r\n\r\n    function substractBalance(address addr, uint amount, uint factor) internal\r\n    {\r\n        require(_balances[addr]._balance[factor] >= amount, \"Not enough balance for this factor\");\r\n\r\n        _balances[addr]._balance[factor] -= amount;\r\n\r\n        if(0 == _balances[addr]._balance[factor])\r\n        {\r\n            UintLibrary.UintArrayRemoveResize(UintLibrary.FindUintPosition(factor, _balances[addr]._factors), _balances[addr]._factors);\r\n        }\r\n        \r\n    }\r\n\r\n}",
  "sourcePath": "C:/Users/d-aam/GitHub/Certificates/contracts/DeployedContracts/Treasury.sol",
  "compiler": {
    "name": "solc",
    "version": "0.8.7+commit.e28d00a7.Emscripten.clang"
  },
  "schemaVersion": "3.3.4",
  "updatedAt": "2021-08-26T07:25:56.653Z",
  "devdoc": {
    "kind": "dev",
    "methods": {},
    "version": 1
  },
  "userdoc": {
    "kind": "user",
    "methods": {},
    "version": 1
  }
}