{
  "contractName": "Treasury",
  "abi": [
    {
      "anonymous": false,
      "inputs": [
        {
          "indexed": false,
          "internalType": "uint256",
          "name": "Id",
          "type": "uint256"
        },
        {
          "indexed": true,
          "internalType": "address",
          "name": "Proposer",
          "type": "address"
        },
        {
          "indexed": false,
          "internalType": "uint256",
          "name": "Deadline",
          "type": "uint256"
        },
        {
          "indexed": false,
          "internalType": "uint256",
          "name": "Threshold",
          "type": "uint256"
        }
      ],
      "name": "_AddedProposition",
      "type": "event"
    },
    {
      "anonymous": false,
      "inputs": [
        {
          "indexed": true,
          "internalType": "address",
          "name": "Recipient",
          "type": "address"
        },
        {
          "indexed": false,
          "internalType": "uint256",
          "name": "Amount",
          "type": "uint256"
        },
        {
          "indexed": false,
          "internalType": "uint256",
          "name": "TotalSupply",
          "type": "uint256"
        }
      ],
      "name": "_AssignDividend",
      "type": "event"
    },
    {
      "anonymous": false,
      "inputs": [
        {
          "indexed": false,
          "internalType": "uint256",
          "name": "Id",
          "type": "uint256"
        },
        {
          "indexed": true,
          "internalType": "address",
          "name": "Proposer",
          "type": "address"
        }
      ],
      "name": "_CancelledProposition",
      "type": "event"
    },
    {
      "anonymous": false,
      "inputs": [
        {
          "indexed": false,
          "internalType": "uint256",
          "name": "Public",
          "type": "uint256"
        },
        {
          "indexed": false,
          "internalType": "uint256",
          "name": "Private",
          "type": "uint256"
        },
        {
          "indexed": false,
          "internalType": "uint256",
          "name": "Provider",
          "type": "uint256"
        },
        {
          "indexed": false,
          "internalType": "uint256",
          "name": "Certificate",
          "type": "uint256"
        },
        {
          "indexed": false,
          "internalType": "uint256",
          "name": "OwnerRefund",
          "type": "uint256"
        }
      ],
      "name": "_NewPrices",
      "type": "event"
    },
    {
      "anonymous": false,
      "inputs": [
        {
          "indexed": true,
          "internalType": "address",
          "name": "Payer",
          "type": "address"
        },
        {
          "indexed": false,
          "internalType": "uint256",
          "name": "Amount",
          "type": "uint256"
        },
        {
          "indexed": false,
          "internalType": "uint256",
          "name": "AggregatedAmount",
          "type": "uint256"
        }
      ],
      "name": "_Pay",
      "type": "event"
    },
    {
      "anonymous": false,
      "inputs": [
        {
          "indexed": false,
          "internalType": "uint256",
          "name": "Id",
          "type": "uint256"
        },
        {
          "indexed": true,
          "internalType": "address",
          "name": "Proposer",
          "type": "address"
        },
        {
          "indexed": false,
          "internalType": "uint256",
          "name": "VotesFor",
          "type": "uint256"
        },
        {
          "indexed": false,
          "internalType": "uint256",
          "name": "VotesAgainst",
          "type": "uint256"
        }
      ],
      "name": "_PropositionApproved",
      "type": "event"
    },
    {
      "anonymous": false,
      "inputs": [
        {
          "indexed": false,
          "internalType": "uint256",
          "name": "Id",
          "type": "uint256"
        },
        {
          "indexed": true,
          "internalType": "address",
          "name": "Proposer",
          "type": "address"
        },
        {
          "indexed": false,
          "internalType": "uint256",
          "name": "VotesFor",
          "type": "uint256"
        },
        {
          "indexed": false,
          "internalType": "uint256",
          "name": "VotesAgainst",
          "type": "uint256"
        }
      ],
      "name": "_PropositionRejected",
      "type": "event"
    },
    {
      "anonymous": false,
      "inputs": [
        {
          "indexed": false,
          "internalType": "uint256",
          "name": "Id",
          "type": "uint256"
        },
        {
          "indexed": true,
          "internalType": "address",
          "name": "Voter",
          "type": "address"
        },
        {
          "indexed": false,
          "internalType": "bool",
          "name": "Vote",
          "type": "bool"
        },
        {
          "indexed": false,
          "internalType": "uint256",
          "name": "AmountTokens",
          "type": "uint256"
        }
      ],
      "name": "_PropositionVote",
      "type": "event"
    },
    {
      "anonymous": false,
      "inputs": [
        {
          "indexed": true,
          "internalType": "address",
          "name": "Owner",
          "type": "address"
        },
        {
          "indexed": false,
          "internalType": "uint256",
          "name": "Amount",
          "type": "uint256"
        },
        {
          "indexed": false,
          "internalType": "uint256",
          "name": "TotalOwners",
          "type": "uint256"
        }
      ],
      "name": "_Refund",
      "type": "event"
    },
    {
      "anonymous": false,
      "inputs": [
        {
          "indexed": true,
          "internalType": "uint256",
          "name": "Id",
          "type": "uint256"
        },
        {
          "indexed": false,
          "internalType": "address",
          "name": "From",
          "type": "address"
        },
        {
          "indexed": false,
          "internalType": "address",
          "name": "To",
          "type": "address"
        },
        {
          "indexed": false,
          "internalType": "uint256",
          "name": "Amount",
          "type": "uint256"
        }
      ],
      "name": "_UsedTokensTransfered",
      "type": "event"
    },
    {
      "anonymous": false,
      "inputs": [
        {
          "indexed": true,
          "internalType": "address",
          "name": "Recipient",
          "type": "address"
        },
        {
          "indexed": false,
          "internalType": "uint256",
          "name": "Amount",
          "type": "uint256"
        }
      ],
      "name": "_Withdraw",
      "type": "event"
    },
    {
      "inputs": [
        {
          "internalType": "address",
          "name": "chairPerson",
          "type": "address"
        },
        {
          "internalType": "address",
          "name": "managerContractAddress",
          "type": "address"
        },
        {
          "internalType": "string",
          "name": "contractName",
          "type": "string"
        },
        {
          "internalType": "string",
          "name": "contractVersion",
          "type": "string"
        }
      ],
      "name": "StdPropositionBaseContract_init",
      "outputs": [],
      "stateMutability": "nonpayable",
      "type": "function"
    },
    {
      "inputs": [],
      "name": "cancelProposition",
      "outputs": [],
      "stateMutability": "nonpayable",
      "type": "function"
    },
    {
      "inputs": [
        {
          "internalType": "address",
          "name": "from",
          "type": "address"
        },
        {
          "internalType": "address",
          "name": "to",
          "type": "address"
        },
        {
          "internalType": "uint256",
          "name": "amount",
          "type": "uint256"
        }
      ],
      "name": "onTokenBalanceChanged",
      "outputs": [],
      "stateMutability": "nonpayable",
      "type": "function"
    },
    {
      "inputs": [],
      "name": "retrieveChairPerson",
      "outputs": [
        {
          "internalType": "address",
          "name": "",
          "type": "address"
        }
      ],
      "stateMutability": "view",
      "type": "function"
    },
    {
      "inputs": [],
      "name": "retrieveContractConfig",
      "outputs": [
        {
          "internalType": "string",
          "name": "",
          "type": "string"
        },
        {
          "internalType": "string",
          "name": "",
          "type": "string"
        }
      ],
      "stateMutability": "view",
      "type": "function"
    },
    {
      "inputs": [],
      "name": "retrieveManagerContract",
      "outputs": [
        {
          "internalType": "address",
          "name": "",
          "type": "address"
        }
      ],
      "stateMutability": "view",
      "type": "function"
    },
    {
      "inputs": [],
      "name": "retrieveNextPropId",
      "outputs": [
        {
          "internalType": "uint256",
          "name": "",
          "type": "uint256"
        }
      ],
      "stateMutability": "view",
      "type": "function"
    },
    {
      "inputs": [
        {
          "internalType": "address",
          "name": "addr",
          "type": "address"
        },
        {
          "internalType": "uint256",
          "name": "nonce",
          "type": "uint256"
        }
      ],
      "name": "retrieveNonce",
      "outputs": [
        {
          "internalType": "bool",
          "name": "",
          "type": "bool"
        }
      ],
      "stateMutability": "view",
      "type": "function"
    },
    {
      "inputs": [],
      "name": "retrieveProposition",
      "outputs": [
        {
          "internalType": "bytes[]",
          "name": "",
          "type": "bytes[]"
        }
      ],
      "stateMutability": "view",
      "type": "function"
    },
    {
      "inputs": [],
      "name": "retrievePropositionStatus",
      "outputs": [
        {
          "internalType": "address",
          "name": "",
          "type": "address"
        },
        {
          "internalType": "uint256",
          "name": "",
          "type": "uint256"
        },
        {
          "internalType": "uint256",
          "name": "",
          "type": "uint256"
        },
        {
          "internalType": "uint256",
          "name": "",
          "type": "uint256"
        },
        {
          "internalType": "uint256",
          "name": "",
          "type": "uint256"
        }
      ],
      "stateMutability": "view",
      "type": "function"
    },
    {
      "inputs": [
        {
          "internalType": "uint256",
          "name": "PropId",
          "type": "uint256"
        },
        {
          "internalType": "address",
          "name": "voter",
          "type": "address"
        }
      ],
      "name": "retrieveVotesForVoter",
      "outputs": [
        {
          "internalType": "uint256",
          "name": "",
          "type": "uint256"
        }
      ],
      "stateMutability": "view",
      "type": "function"
    },
    {
      "inputs": [
        {
          "internalType": "bytes[]",
          "name": "NewValues",
          "type": "bytes[]"
        }
      ],
      "name": "sendProposition",
      "outputs": [],
      "stateMutability": "nonpayable",
      "type": "function"
    },
    {
      "inputs": [
        {
          "internalType": "bool",
          "name": "vote",
          "type": "bool"
        }
      ],
      "name": "voteProposition",
      "outputs": [],
      "stateMutability": "nonpayable",
      "type": "function"
    },
    {
      "inputs": [
        {
          "internalType": "address",
          "name": "voter",
          "type": "address"
        },
        {
          "internalType": "uint256",
          "name": "propID",
          "type": "uint256"
        },
        {
          "internalType": "bool",
          "name": "vote",
          "type": "bool"
        },
        {
          "internalType": "uint256",
          "name": "nonce",
          "type": "uint256"
        },
        {
          "internalType": "uint256",
          "name": "deadline",
          "type": "uint256"
        },
        {
          "internalType": "bytes",
          "name": "signature",
          "type": "bytes"
        }
      ],
      "name": "votePropositionOnBehalfOf",
      "outputs": [],
      "stateMutability": "nonpayable",
      "type": "function"
    },
    {
      "inputs": [
        {
          "internalType": "uint256",
          "name": "PublicPriceUSD",
          "type": "uint256"
        },
        {
          "internalType": "uint256",
          "name": "PrivatePriceUSD",
          "type": "uint256"
        },
        {
          "internalType": "uint256",
          "name": "ProviderPriceUSD",
          "type": "uint256"
        },
        {
          "internalType": "uint256",
          "name": "CertificatePriceUSD",
          "type": "uint256"
        },
        {
          "internalType": "uint256",
          "name": "OwnerRefundFeeUSD",
          "type": "uint256"
        },
        {
          "internalType": "address",
          "name": "managerContractAddress",
          "type": "address"
        },
        {
          "internalType": "address",
          "name": "chairPerson",
          "type": "address"
        },
        {
          "internalType": "string",
          "name": "contractName",
          "type": "string"
        },
        {
          "internalType": "string",
          "name": "contractVersion",
          "type": "string"
        }
      ],
      "name": "Treasury_init",
      "outputs": [],
      "stateMutability": "nonpayable",
      "type": "function"
    },
    {
      "inputs": [
        {
          "internalType": "enum Library.Prices",
          "name": "price",
          "type": "uint8"
        }
      ],
      "name": "pay",
      "outputs": [],
      "stateMutability": "payable",
      "type": "function"
    },
    {
      "inputs": [
        {
          "internalType": "address",
          "name": "addr",
          "type": "address"
        },
        {
          "internalType": "uint256",
          "name": "numberOfOwners",
          "type": "uint256"
        }
      ],
      "name": "getRefund",
      "outputs": [],
      "stateMutability": "nonpayable",
      "type": "function"
    },
    {
      "inputs": [
        {
          "internalType": "uint256",
          "name": "amount",
          "type": "uint256"
        }
      ],
      "name": "withdraw",
      "outputs": [],
      "stateMutability": "nonpayable",
      "type": "function"
    },
    {
      "inputs": [],
      "name": "withdrawAll",
      "outputs": [],
      "stateMutability": "nonpayable",
      "type": "function"
    },
    {
      "inputs": [
        {
          "internalType": "address",
          "name": "addr",
          "type": "address"
        }
      ],
      "name": "retrieveLastAssigned",
      "outputs": [
        {
          "internalType": "uint256",
          "name": "",
          "type": "uint256"
        }
      ],
      "stateMutability": "view",
      "type": "function"
    },
    {
      "inputs": [
        {
          "internalType": "address",
          "name": "addr",
          "type": "address"
        }
      ],
      "name": "retrieveFullBalance",
      "outputs": [
        {
          "internalType": "uint256",
          "name": "",
          "type": "uint256"
        }
      ],
      "stateMutability": "view",
      "type": "function"
    },
    {
      "inputs": [],
      "name": "retrieveSettings",
      "outputs": [
        {
          "internalType": "uint256",
          "name": "",
          "type": "uint256"
        },
        {
          "internalType": "uint256",
          "name": "",
          "type": "uint256"
        },
        {
          "internalType": "uint256",
          "name": "",
          "type": "uint256"
        },
        {
          "internalType": "uint256",
          "name": "",
          "type": "uint256"
        },
        {
          "internalType": "uint256",
          "name": "",
          "type": "uint256"
        }
      ],
      "stateMutability": "view",
      "type": "function"
    },
    {
      "inputs": [],
      "name": "retrieveAggregatedAmount",
      "outputs": [
        {
          "internalType": "uint256",
          "name": "",
          "type": "uint256"
        }
      ],
      "stateMutability": "view",
      "type": "function"
    }
  ],
  "bytecode": "0x608060405234801561001057600080fd5b50613a2f806100206000396000f3fe6080604052600436106101105760003560e01c806304cc67a9146101155780630f13bbc9146101395780632e1a7d4d1461015b5780633c7df55d1461017b5780633feca4ca1461019b5780634044adb2146101f157806355457ee9146102345780635b362e841461024957806368fe2d49146102765780637faa3d6f14610296578063840f6d17146102b6578063853828b61461030457806391f9167114610319578063a93316f514610339578063b049473f1461035b578063d2116a0214610388578063d5920d49146103ab578063d6184d15146103c0578063db85bc4d146103f6578063e15aa3a614610414578063e83988ff14610434578063eb1e2a4114610454578063f0c9325e14610474575b600080fd5b34801561012157600080fd5b50600b545b6040519081526020015b60405180910390f35b34801561014557600080fd5b50610159610154366004612f91565b610487565b005b34801561016757600080fd5b50610159610176366004613345565b61050c565b34801561018757600080fd5b50610159610196366004613019565b610518565b3480156101a757600080fd5b506101e16101b636600461305a565b6001600160a01b03919091166000908152600260209081526040808320938352929052205460ff1690565b6040519015158152602001610130565b3480156101fd57600080fd5b5061012661020c366004613377565b6000918252600c602090815260408084206001600160a01b0393909316845291905290205490565b34801561024057600080fd5b50610159610636565b34801561025557600080fd5b506003546201000090046001600160a01b03165b60405161013091906135bc565b34801561028257600080fd5b506101596102913660046133a7565b610708565b3480156102a257600080fd5b506101596102b1366004613086565b6107a4565b3480156102c257600080fd5b50600654600754600854600954600a54604080516001600160a01b0390961686526020860194909452928401919091526060830152608082015260a001610130565b34801561031057600080fd5b506101596107c4565b34801561032557600080fd5b506101596103343660046132ea565b6107da565b34801561034557600080fd5b5061034e6107e4565b604051610130919061365d565b34801561036757600080fd5b50600e54601054601154600f5460125460405161013095949392919061381c565b34801561039457600080fd5b5061039d6108bd565b604051610130929190613729565b3480156103b757600080fd5b50601354610126565b3480156103cc57600080fd5b506101266103db366004612f74565b6001600160a01b031660009081526014602052604090205490565b34801561040257600080fd5b506004546001600160a01b0316610269565b34801561042057600080fd5b5061015961042f366004613233565b6109e4565b34801561044057600080fd5b5061012661044f366004612f74565b610a5e565b34801561046057600080fd5b5061015961046f36600461305a565b610a6f565b610159610482366004613324565b610cf7565b600354610100900460ff16806104a0575060035460ff16155b6104c55760405162461bcd60e51b81526004016104bc90613757565b60405180910390fd5b600354610100900460ff161580156104e7576003805461ffff19166101011790555b6104f38585858561106b565b8015610505576003805461ff00191690555b5050505050565b610515816110f5565b50565b3373__Library_______________________________6337ea306382600360029054906101000a90046001600160a01b03166001600160a01b031663e220ad956040518163ffffffff1660e01b815260040160006040518083038186803b15801561058257600080fd5b505afa158015610596573d6000803e3d6000fd5b505050506040513d6000823e601f3d908101601f191682016040526105be9190810190613103565b6002815181106105d0576105d06139aa565b60200260200101516040518363ffffffff1660e01b81526004016105f59291906135d0565b60006040518083038186803b15801561060d57600080fd5b505af4158015610621573d6000803e3d6000fd5b505050506106308484846112d7565b50505050565b600161064181611317565b6006546040516337ea306360e01b8152339173__Library_______________________________916337ea3063916106879185916001600160a01b0316906004016135d0565b60006040518083038186803b15801561069f57600080fd5b505af41580156106b3573d6000803e3d6000fd5b505050506106bf61139b565b6006546005546040519081526001600160a01b03909116907f1fe8aec10c0a50fa765076161e08c1f961ced69594ff45cf7d559f593afe14799060200160405180910390a25050565b600354610100900460ff1680610721575060035460ff16155b61073d5760405162461bcd60e51b81526004016104bc90613757565b600354610100900460ff1615801561075f576003805461ffff19166101011790555b898661076b82826113c6565b61077786888787610487565b6107848c8c8c8c8c6113fe565b50508015610798576003805461ff00191690555b50505050505050505050565b6107b2868686868686611415565b6107bc8685611574565b505050505050565b60006107cf3361168b565b9050610515816110f5565b6105153382611574565b6060600d805480602002602001604051908101604052809291908181526020016000905b828210156108b45783829060005260206000200180546108279061392e565b80601f01602080910402602001604051908101604052809291908181526020018280546108539061392e565b80156108a05780601f10610875576101008083540402835291602001916108a0565b820191906000526020600020905b81548152906001019060200180831161088357829003601f168201915b505050505081526020019060010190610808565b50505050905090565b606080600060018180546108d09061392e565b80601f01602080910402602001604051908101604052809291908181526020018280546108fc9061392e565b80156109495780601f1061091e57610100808354040283529160200191610949565b820191906000526020600020905b81548152906001019060200180831161092c57829003601f168201915b5050505050915080805461095c9061392e565b80601f01602080910402602001604051908101604052809291908181526020018280546109889061392e565b80156109d55780601f106109aa576101008083540402835291602001916109d5565b820191906000526020600020905b8154815290600101906020018083116109b857829003601f168201915b50505050509050915091509091565b6109ed816116b0565b6109f5611948565b60005b8151811015610a5a57600d828281518110610a1557610a156139aa565b60209081029190910181015182546001810184556000938452928290208151610a479491909101929190910190612de1565b5080610a5281613963565b9150506109f8565b5050565b6000610a698261168b565b92915050565b3373__Library_______________________________6337ea306382600360029054906101000a90046001600160a01b03166001600160a01b031663e220ad956040518163ffffffff1660e01b815260040160006040518083038186803b158015610ad957600080fd5b505afa158015610aed573d6000803e3d6000fd5b505050506040513d6000823e601f3d908101601f19168201604052610b159190810190613103565b600081518110610b2757610b276139aa565b60200260200101516040518363ffffffff1660e01b8152600401610b4c9291906135d0565b60006040518083038186803b158015610b6457600080fd5b505af4158015610b78573d6000803e3d6000fd5b505050506000600360029054906101000a90046001600160a01b03166001600160a01b031663e220ad956040518163ffffffff1660e01b815260040160006040518083038186803b158015610bcc57600080fd5b505afa158015610be0573d6000803e3d6000fd5b505050506040513d6000823e601f3d908101601f19168201604052610c089190810190613103565b600581518110610c1a57610c1a6139aa565b60200260200101516001600160a01b0316638d12420b6012546040518263ffffffff1660e01b8152600401610c5191815260200190565b60206040518083038186803b158015610c6957600080fd5b505afa158015610c7d573d6000803e3d6000fd5b505050506040513d601f19601f82011682018060405250810190610ca1919061335e565b9050610cae848285611cd8565b836001600160a01b03167f885157c8ed39c012c67730d5e5d229068f71cac97d1658f5bf6593c8246dcc3c8285604051610ce99291906137f8565b60405180910390a250505050565b3481600019816003811115610d0e57610d0e613994565b610d1b5750600e54610d66565b816003811115610d2d57610d2d613994565b60011415610d3e5750601054610d66565b816003811115610d5057610d50613994565b60021415610d615750600f54610d66565b506011545b6000600360029054906101000a90046001600160a01b03166001600160a01b031663e220ad956040518163ffffffff1660e01b815260040160006040518083038186803b158015610db657600080fd5b505afa158015610dca573d6000803e3d6000fd5b505050506040513d6000823e601f3d908101601f19168201604052610df29190810190613103565b600581518110610e0457610e046139aa565b60200260200101516001600160a01b0316638d12420b836040518263ffffffff1660e01b8152600401610e3991815260200190565b60206040518083038186803b158015610e5157600080fd5b505afa158015610e65573d6000803e3d6000fd5b505050506040513d601f19601f82011682018060405250810190610e89919061335e565b905080841015610ec45760405162461bcd60e51b81526004016104bc906020808252600490820152634543322d60e01b604082015260600190565b346000866003811115610ed957610ed9613994565b141561100f57600360029054906101000a90046001600160a01b03166001600160a01b031663e220ad956040518163ffffffff1660e01b815260040160006040518083038186803b158015610f2d57600080fd5b505afa158015610f41573d6000803e3d6000fd5b505050506040513d6000823e601f3d908101601f19168201604052610f699190810190613103565b600581518110610f7b57610f7b6139aa565b60200260200101516001600160a01b0316638d12420b6012546040518263ffffffff1660e01b8152600401610fb291815260200190565b60206040518083038186803b158015610fca57600080fd5b505afa158015610fde573d6000803e3d6000fd5b505050506040513d601f19601f82011682018060405250810190611002919061335e565b61100c90826138eb565b90505b80601360008282546110219190613892565b909155505060135460405133917faef711f818f5d24f55a9c2d7da0afa5edd0420e1505ff8e60c344ce836e3e86e9161105b9134916137f8565b60405180910390a2505050505050565b600354610100900460ff1680611084575060035460ff16155b6110a05760405162461bcd60e51b81526004016104bc90613757565b600354610100900460ff161580156110c2576003805461ffff19166101011790555b6110cb84611d72565b600480546001600160a01b0319166001600160a01b0387161790556000600b556104f38383611e00565b8033816111018261168b565b10156111375760405162461bcd60e51b8152602060048201526005602482015264454332302d60d81b60448201526064016104bc565b61114033611e27565b600061114b33611ead565b905060008061115933611f1c565b9092509050600061116a82886138cc565b61117490846138eb565b905060005b84518110156111fd576111eb336111cc3388858151811061119c5761119c6139aa565b60200260200101516001600160a01b03919091166000908152601560209081526040808320938352929052205490565b8784815181106111de576111de6139aa565b6020026020010151612032565b806111f581613963565b915050611179565b50611209338284611cd8565b604051600090819033908a908381818185875af1925050503d806000811461124d576040519150601f19603f3d011682016040523d82523d6000602084013e611252565b606091505b509150915081816040516020016112699190613569565b604051602081830303815290604052906112965760405162461bcd60e51b81526004016104bc9190613703565b5060405189815233907f732ea8a38f70c2018ed8dfd6e97bf6381f60102061beae0ac4d9a5abd15a06029060200160405180910390a2505050505050505050565b6112e2838383612228565b6001600160a01b038316156112fa576112fa83611e27565b6001600160a01b038216156113125761131282611e27565b505050565b801561135e57611325612245565b15156001146105155760405162461bcd60e51b8152602060048201526005602482015264454332352d60d81b60448201526064016104bc565b611366612245565b156105155760405162461bcd60e51b8152602060048201526005602482015264454332342d60d81b60448201526064016104bc565b60006005819055600680546001600160a01b0319169055600781905560088190556009819055600a55565b80821015610a5a5760405162461bcd60e51b8152602060048201526005602482015264454332312d60d81b60448201526064016104bc565b600e94909455601092909255601155600f55601255565b8161141f8161227f565b868461142b82826122b6565b60055488146114645760405162461bcd60e51b8152602060048201526005602482015264454333352d60d81b60448201526064016104bc565b60405163432f9a5560e01b815273__SignatureLibrary______________________9063432f9a55906114ab908c908c908c908c908c908c906000906001906004016135ea565b60206040518083038186803b1580156114c357600080fd5b505af41580156114d7573d6000803e3d6000fd5b505050506040513d601f19601f820116820180604052508101906114fb9190613307565b15156001146115345760405162461bcd60e51b8152602060048201526005602482015264454333322d60d81b60448201526064016104bc565b61156989876001600160a01b03909116600090815260026020908152604080832093835292905220805460ff19166001179055565b505050505050505050565b600161157f81611317565b600554839060006115908383612312565b9050600081116115ca5760405162461bcd60e51b8152602060048201526005602482015264454332332d60d81b60448201526064016104bc565b60006115db87600560000154612312565b905085156116035780600560040160008282546115f89190613892565b9091555061161d9050565b806005800160008282546116179190613892565b90915550505b60055461162b90888361234f565b60055460408051918252871515602083015281018290526001600160a01b038816907f50f654d58981575c05e369cb129aeacb01e1b036af429380242cfc5d1a4b743f9060600160405180910390a2611682612381565b50505050505050565b600080600061169984612457565b90925090506116a881836138aa565b949350505050565b73__UintLibrary___________________________630bd4715e73__Library_______________________________63caa8f589846000815181106116f7576116f76139aa565b60200260200101516040518263ffffffff1660e01b815260040161171b9190613703565b60006040518083038186803b15801561173357600080fd5b505af4158015611747573d6000803e3d6000fd5b505050506040513d6000823e601f3d908101601f1916820160405261176f91908101906131a8565b600081518110611781576117816139aa565b60200260200101516040518263ffffffff1660e01b81526004016117a791815260200190565b60206040518083038186803b1580156117bf57600080fd5b505af41580156117d3573d6000803e3d6000fd5b505050506040513d601f19601f820116820180604052508101906117f7919061335e565b73__UintLibrary___________________________630bd4715e73__Library_______________________________63caa8f5898560048151811061183e5761183e6139aa565b60200260200101516040518263ffffffff1660e01b81526004016118629190613703565b60006040518083038186803b15801561187a57600080fd5b505af415801561188e573d6000803e3d6000fd5b505050506040513d6000823e601f3d908101601f191682016040526118b691908101906131a8565b6000815181106118c8576118c86139aa565b60200260200101516040518263ffffffff1660e01b81526004016118ee91815260200190565b60206040518083038186803b15801561190657600080fd5b505af415801561191a573d6000803e3d6000fd5b505050506040513d601f19601f8201168201806040525081019061193e919061335e565b61131282826113c6565b600061195381611317565b60045433906000906001600160a01b031682141561197357506001611aca565b600061197e836124b9565b90506000600360029054906101000a90046001600160a01b03166001600160a01b031663e220ad956040518163ffffffff1660e01b815260040160006040518083038186803b1580156119d057600080fd5b505afa1580156119e4573d6000803e3d6000fd5b505050506040513d6000823e601f3d908101601f19168201604052611a0c9190810190613103565b600681518110611a1e57611a1e6139aa565b60200260200101516001600160a01b031663b049473f6040518163ffffffff1660e01b815260040160606040518083038186803b158015611a5e57600080fd5b505afa158015611a72573d6000803e3d6000fd5b505050506040513d601f19601f82011682018060405250810190611a969190613460565b925050506064611aa46125da565b611ab19060ff84166138cc565b611abb91906138aa565b821115611ac757600192505b50505b600181151514611b045760405162461bcd60e51b8152602060048201526005602482015264454332322d60d81b60448201526064016104bc565b600080600360029054906101000a90046001600160a01b03166001600160a01b031663e220ad956040518163ffffffff1660e01b815260040160006040518083038186803b158015611b5557600080fd5b505afa158015611b69573d6000803e3d6000fd5b505050506040513d6000823e601f3d908101601f19168201604052611b919190810190613103565b600681518110611ba357611ba36139aa565b60200260200101516001600160a01b031663b049473f6040518163ffffffff1660e01b815260040160606040518083038186803b158015611be357600080fd5b505afa158015611bf7573d6000803e3d6000fd5b505050506040513d601f19601f82011682018060405250810190611c1b9190613460565b50600680546001600160a01b031916331790559092509050611c3d8242613892565b600755606460ff8216611c4e6125da565b611c5891906138cc565b611c6291906138aa565b600855600b80546005819055906000611c7a83613963565b90915550506006546005546007546008546040516001600160a01b03909416937f472501d19bf75639b2e316cd36f8568b0c3ab943b82a87de3c086c98c1929df993611cc99390929091613806565b60405180910390a25050505050565b8115611312576001600160a01b0383166000908152601560209081526040808320848452909152902054611d35576001600160a01b0383166000908152601560209081526040822060019081018054918201815583529120018190555b6001600160a01b038316600090815260156020908152604080832084845290915281208054849290611d68908490613892565b9091555050505050565b600354610100900460ff1680611d8b575060035460ff16155b611da75760405162461bcd60e51b81526004016104bc90613757565b600354610100900460ff16158015611dc9576003805461ffff19166101011790555b6003805462010000600160b01b031916620100006001600160a01b038516021790558015610a5a576003805461ff00191690555050565b8151611e13906000906020850190612de1565b508051611312906001906020840190612de1565b600080611e33836126f5565b6013546001600160a01b0386166000908152601460205260409020559092509050811561131257611e65838383611cd8565b826001600160a01b03167fe983a49d27e04c64952da756088988cab0349d02969d01e8fecd907888b2e1208383604051611ea09291906137f8565b60405180910390a2505050565b6001600160a01b038116600090815260156020908152604091829020600101805483518184028101840190945280845260609392830182828015611f1057602002820191906000526020600020905b815481526020019060010190808311611efc575b50505050509050919050565b6000806000611f2a84611ead565b9050600073__UintLibrary___________________________63f254becc836040518263ffffffff1660e01b8152600401611f6591906136bf565b60206040518083038186803b158015611f7d57600080fd5b505af4158015611f91573d6000803e3d6000fd5b505050506040513d601f19601f82011682018060405250810190611fb5919061335e565b90506000805b835181101561202757838181518110611fd657611fd66139aa565b602002602001015183611ff58987858151811061119c5761119c6139aa565b611fff91906138cc565b61200991906138aa565b6120139083613892565b91508061201f81613963565b915050611fbb565b509590945092505050565b6001600160a01b03831660009081526015602090815260408083208484529091529020548211156120b05760405162461bcd60e51b815260206004820152602260248201527f4e6f7420656e6f7567682062616c616e636520666f722074686973206661637460448201526137b960f11b60648201526084016104bc565b6001600160a01b0383166000908152601560209081526040808320848452909152812080548492906120e39084906138eb565b90915550506001600160a01b0383166000908152601560209081526040808320848452909152902054611312576001600160a01b0383166000908152601560205260409081902090516362fe358160e11b815273__UintLibrary___________________________9163cffd93cd91839163c5fc6b029161216e9187916001909101906004016137a5565b60206040518083038186803b15801561218657600080fd5b505af415801561219a573d6000803e3d6000fd5b505050506040513d601f19601f820116820180604052508101906121be919061335e565b6001600160a01b0386166000908152601560205260409081902090516001600160e01b031960e085901b1681526121fc9291600101906004016137f8565b60006040518083038186803b15801561221457600080fd5b505af4158015611682573d6000803e3d6000fd5b612230612245565b1515600114156113125761131283838361276c565b6007546000904210156122585750600190565b6006546001600160a01b031615612279576122716128d3565b61227961139b565b50600090565b8042106105155760405162461bcd60e51b8152602060048201526005602482015264454333332d60d81b60448201526064016104bc565b6001600160a01b038216600090815260026020908152604080832084845290915290205460ff1615610a5a5760405162461bcd60e51b8152602060048201526005602482015264454333342d60d81b60448201526064016104bc565b6000818152600c602090815260408083206001600160a01b038616845290915281205461233e846124b9565b61234891906138eb565b9392505050565b6000838152600c602090815260408083206001600160a01b038616845290915281208054839290611d68908490613892565b600854600954106123f0576123946128db565b61239c61139b565b600654600554600954600a546040516001600160a01b03909416937f23ca0034cf5aad32571b4a492e9598ea8a490e1643a60970e3cdc6933b55e49f936123e69390929091613806565b60405180910390a2565b600854600a5410612455576124036128d3565b61240b61139b565b600654600554600954600a546040516001600160a01b03909416937fa58eb6daa3c62c3f883973c4035e5bd3e81aa627c8379de068a7de42df122be2936123e69390929091613806565b565b60008060008061246685611f1c565b91509150600080612476876126f5565b9092509050600061248784846138cc565b61249183876138cc565b61249b9190613892565b905060006124a983866138cc565b9199919850909650505050505050565b6000600360029054906101000a90046001600160a01b03166001600160a01b031663e220ad956040518163ffffffff1660e01b815260040160006040518083038186803b15801561250957600080fd5b505afa15801561251d573d6000803e3d6000fd5b505050506040513d6000823e601f3d908101601f191682016040526125459190810190613103565b600281518110612557576125576139aa565b60200260200101516001600160a01b03166370a08231836040518263ffffffff1660e01b815260040161258a91906135bc565b60206040518083038186803b1580156125a257600080fd5b505afa1580156125b6573d6000803e3d6000fd5b505050506040513d601f19601f82011682018060405250810190610a69919061335e565b6000600360029054906101000a90046001600160a01b03166001600160a01b031663e220ad956040518163ffffffff1660e01b815260040160006040518083038186803b15801561262a57600080fd5b505afa15801561263e573d6000803e3d6000fd5b505050506040513d6000823e601f3d908101601f191682016040526126669190810190613103565b600281518110612678576126786139aa565b60200260200101516001600160a01b03166318160ddd6040518163ffffffff1660e01b815260040160206040518083038186803b1580156126b857600080fd5b505afa1580156126cc573d6000803e3d6000fd5b505050506040513d601f19601f820116820180604052508101906126f0919061335e565b905090565b6013546001600160a01b038216600090815260146020526040812054909182918291111561275957612726846124b9565b6001600160a01b03851660009081526014602052604090205460135461274c91906138eb565b61275691906138cc565b90505b806127626125da565b9250925050915091565b6001600160a01b038316158015906127a857506005546000908152600c602090815260408083206001600160a01b038716845290915290205415155b15611312576005546000908152600c602090815260408083206001600160a01b0387168452909152902054819081111561280457506005546000908152600c602090815260408083206001600160a01b03871684529091529020545b6005546000908152600c602090815260408083206001600160a01b0388168452909152812080548392906128399084906138eb565b90915550506001600160a01b03831615612888576005546000908152600c602090815260408083206001600160a01b038716845290915281208054839290612882908490613892565b90915550505b600554604080516001600160a01b038088168252861660208201529081018390527f65fbd5e5dd32bea4aeca85bd0be0abf0e489d655dee888a7510d43b06dda2dba90606001610ce9565b6124556128e3565b6128d36128ef565b612455600d6000612e65565b60006128f9612c92565b9050600073__UintLibrary___________________________630bd4715e8360008151811061292a5761292a6139aa565b60200260200101516040518263ffffffff1660e01b815260040161295091815260200190565b60206040518083038186803b15801561296857600080fd5b505af415801561297c573d6000803e3d6000fd5b505050506040513d601f19601f820116820180604052508101906129a0919061335e565b9050600073__UintLibrary___________________________630bd4715e846001815181106129d1576129d16139aa565b60200260200101516040518263ffffffff1660e01b81526004016129f791815260200190565b60206040518083038186803b158015612a0f57600080fd5b505af4158015612a23573d6000803e3d6000fd5b505050506040513d601f19601f82011682018060405250810190612a47919061335e565b9050600073__UintLibrary___________________________630bd4715e85600281518110612a7857612a786139aa565b60200260200101516040518263ffffffff1660e01b8152600401612a9e91815260200190565b60206040518083038186803b158015612ab657600080fd5b505af4158015612aca573d6000803e3d6000fd5b505050506040513d601f19601f82011682018060405250810190612aee919061335e565b9050600073__UintLibrary___________________________630bd4715e86600381518110612b1f57612b1f6139aa565b60200260200101516040518263ffffffff1660e01b8152600401612b4591815260200190565b60206040518083038186803b158015612b5d57600080fd5b505af4158015612b71573d6000803e3d6000fd5b505050506040513d601f19601f82011682018060405250810190612b95919061335e565b9050600073__UintLibrary___________________________630bd4715e87600481518110612bc657612bc66139aa565b60200260200101516040518263ffffffff1660e01b8152600401612bec91815260200190565b60206040518083038186803b158015612c0457600080fd5b505af4158015612c18573d6000803e3d6000fd5b505050506040513d601f19601f82011682018060405250810190612c3c919061335e565b9050612c4b85858585856113fe565b7fbe8847d52fb3c03e3414e96d164a23594063f5b6cf01428e61c38bfbbc34ef198585858585604051612c8295949392919061381c565b60405180910390a1505050505050565b600d546060906000906001600160401b03811115612cb257612cb26139c0565b604051908082528060200260200182016040528015612cdb578160200160208202803683370190505b50905060005b600d54811015612ddb5773__Library_______________________________63caa8f589600d8381548110612d1857612d186139aa565b906000526020600020016040518263ffffffff1660e01b8152600401612d3e9190613716565b60006040518083038186803b158015612d5657600080fd5b505af4158015612d6a573d6000803e3d6000fd5b505050506040513d6000823e601f3d908101601f19168201604052612d9291908101906131a8565b600081518110612da457612da46139aa565b6020026020010151828281518110612dbe57612dbe6139aa565b602090810291909101015280612dd381613963565b915050612ce1565b50919050565b828054612ded9061392e565b90600052602060002090601f016020900481019282612e0f5760008555612e55565b82601f10612e2857805160ff1916838001178555612e55565b82800160010185558215612e55579182015b82811115612e55578251825591602001919060010190612e3a565b50612e61929150612e83565b5090565b50805460008255906000526020600020908101906105159190612e98565b5b80821115612e615760008155600101612e84565b80821115612e61576000612eac8282612eb5565b50600101612e98565b508054612ec19061392e565b6000825580601f10612ed1575050565b601f0160209004906000526020600020908101906105159190612e83565b600082601f830112612f0057600080fd5b81356001600160401b03811115612f1957612f196139c0565b612f2c601f8201601f191660200161383f565b818152846020838601011115612f4157600080fd5b816020850160208301376000918101602001919091529392505050565b805160ff81168114612f6f57600080fd5b919050565b600060208284031215612f8657600080fd5b8135612348816139d6565b60008060008060808587031215612fa757600080fd5b8435612fb2816139d6565b93506020850135612fc2816139d6565b925060408501356001600160401b0380821115612fde57600080fd5b612fea88838901612eef565b9350606087013591508082111561300057600080fd5b5061300d87828801612eef565b91505092959194509250565b60008060006060848603121561302e57600080fd5b8335613039816139d6565b92506020840135613049816139d6565b929592945050506040919091013590565b6000806040838503121561306d57600080fd5b8235613078816139d6565b946020939093013593505050565b60008060008060008060c0878903121561309f57600080fd5b86356130aa816139d6565b95506020870135945060408701356130c1816139eb565b9350606087013592506080870135915060a08701356001600160401b038111156130ea57600080fd5b6130f689828a01612eef565b9150509295509295509295565b6000602080838503121561311657600080fd5b82516001600160401b0381111561312c57600080fd5b8301601f8101851361313d57600080fd5b805161315061314b8261386f565b61383f565b80828252848201915084840188868560051b870101111561317057600080fd5b600094505b8385101561319c578051613188816139d6565b835260019490940193918501918501613175565b50979650505050505050565b600060208083850312156131bb57600080fd5b82516001600160401b038111156131d157600080fd5b8301601f810185136131e257600080fd5b80516131f061314b8261386f565b80828252848201915084840188868560051b870101111561321057600080fd5b600094505b8385101561319c578051835260019490940193918501918501613215565b6000602080838503121561324657600080fd5b82356001600160401b038082111561325d57600080fd5b818501915085601f83011261327157600080fd5b813561327f61314b8261386f565b80828252858201915085850189878560051b880101111561329f57600080fd5b6000805b858110156132da578235878111156132b9578283fd5b6132c78d8b838c0101612eef565b86525093880193918801916001016132a3565b50919a9950505050505050505050565b6000602082840312156132fc57600080fd5b8135612348816139eb565b60006020828403121561331957600080fd5b8151612348816139eb565b60006020828403121561333657600080fd5b81356004811061234857600080fd5b60006020828403121561335757600080fd5b5035919050565b60006020828403121561337057600080fd5b5051919050565b6000806040838503121561338a57600080fd5b82359150602083013561339c816139d6565b809150509250929050565b60008060008060008060008060006101208a8c0312156133c657600080fd5b8935985060208a0135975060408a0135965060608a0135955060808a0135945060a08a01356133f4816139d6565b935060c08a0135613404816139d6565b925060e08a01356001600160401b038082111561342057600080fd5b61342c8d838e01612eef565b93506101008c013591508082111561344357600080fd5b506134508c828d01612eef565b9150509295985092959850929598565b60008060006060848603121561347557600080fd5b8351925061348560208501612f5e565b915061349360408501612f5e565b90509250925092565b600081518084526134b4816020860160208601613902565b601f01601f19169290920160200192915050565b8054600090600181811c90808316806134e257607f831692505b602080841082141561350457634e487b7160e01b600052602260045260246000fd5b83885281801561351b576001811461352f5761355d565b60ff1986168983015260408901965061355d565b876000528160002060005b868110156135555781548b820185015290850190830161353a565b8a0183019750505b50505050505092915050565b7f4572726f72207472616e73666572696e672066756e647320746f206164647265815264039b9901d160dd1b6020820152600082516135af816025850160208701613902565b9190910160250192915050565b6001600160a01b0391909116815260200190565b6001600160a01b0392831681529116602082015260400190565b600061010060018060a01b038b16835289602084015288151560408401528760608401528660808401528060a08401526136268184018761349c565b905082810360c084015261363a81866134c8565b905082810360e084015261364e81856134c8565b9b9a5050505050505050505050565b6000602080830181845280855180835260408601915060408160051b870101925083870160005b828110156136b257603f198886030184526136a085835161349c565b94509285019290850190600101613684565b5092979650505050505050565b6020808252825182820181905260009190848201906040850190845b818110156136f7578351835292840192918401916001016136db565b50909695505050505050565b602081526000612348602083018461349c565b60208152600061234860208301846134c8565b60408152600061373c604083018561349c565b828103602084015261374e818561349c565b95945050505050565b6020808252602e908201527f496e697469616c697a61626c653a20636f6e747261637420697320616c72656160408201526d191e481a5b9a5d1a585b1a5e995960921b606082015260800190565b60006040820184835260206040818501528185548084526060860191508660005282600020935060005b818110156137eb578454835260019485019492840192016137cf565b5090979650505050505050565b918252602082015260400190565b9283526020830191909152604082015260600190565b948552602085019390935260408401919091526060830152608082015260a00190565b604051601f8201601f191681016001600160401b0381118282101715613867576138676139c0565b604052919050565b60006001600160401b03821115613888576138886139c0565b5060051b60200190565b600082198211156138a5576138a561397e565b500190565b6000826138c757634e487b7160e01b600052601260045260246000fd5b500490565b60008160001904831182151516156138e6576138e661397e565b500290565b6000828210156138fd576138fd61397e565b500390565b60005b8381101561391d578181015183820152602001613905565b838111156106305750506000910152565b600181811c9082168061394257607f821691505b60208210811415612ddb57634e487b7160e01b600052602260045260246000fd5b60006000198214156139775761397761397e565b5060010190565b634e487b7160e01b600052601160045260246000fd5b634e487b7160e01b600052602160045260246000fd5b634e487b7160e01b600052603260045260246000fd5b634e487b7160e01b600052604160045260246000fd5b6001600160a01b038116811461051557600080fd5b801515811461051557600080fdfea2646970667358221220b977b6c65dbf637cede12a222b13df762dd97ff7fbf425366332871c1bbfb8b864736f6c63430008070033",
  "immutableReferences": {},
  "source": "// SPDX-License-Identifier: GPL-3.0\r\n\r\npragma solidity 0.8.7;\r\n\r\n/**\r\n Treasury receives all the payments and assigns dividends to token holders.\r\n Public Certificate Pool contract can ask for its owners to eb refunded even if they do not own tokens.\r\n\r\n First dividends must be assigned to an account and then the account owner can withdraw the funds.\r\n Both actions must be triggered by the account owner.\r\n\r\n  Events : \r\n    - New Prices Added : list of prices\r\n    - Payment recieved : payer, amount, new total aggregated contract amount\r\n    - Refund : who, amount, among how many\r\n    - Assign Dividends : who, amount (number of tokens), among how many (total supply)\r\n    - Withdraw : who, how much\r\n */\r\n\r\nimport \"../Interfaces/ITreasury.sol\";\r\nimport \"../Interfaces/IPriceConverter.sol\";\r\nimport \"../Libraries/UintLibrary.sol\";\r\nimport \"../Libraries/Library.sol\";\r\nimport \"../Base/StdPropositionBaseContract.sol\";\r\nimport \"@openzeppelin/contracts-upgradeable/token/ERC20/IERC20Upgradeable.sol\";\r\n\r\n\r\ncontract Treasury is ITreasury, StdPropositionBaseContract{\r\n    using Library for *;\r\n    using UintLibrary for *;\r\n\r\n    // EVENTS /////////////////////////////////////////\r\n    event _NewPrices(uint Public, uint Private, uint Provider, uint Certificate, uint OwnerRefund);\r\n    event _Pay(address indexed Payer, uint Amount, uint AggregatedAmount);\r\n    event _Refund(address indexed Owner, uint Amount, uint TotalOwners);\r\n    event _AssignDividend(address indexed Recipient, uint Amount, uint TotalSupply);\r\n    event _Withdraw(address indexed Recipient, uint Amount);\r\n\r\n    // DATA /////////////////////////////////////////\r\n    // prices parameters usd\r\n    uint private _PublicPriceUSD;\r\n    uint private _CertificatePriceUSD;\r\n    uint private _PrivatePriceUSD;\r\n    uint private _ProviderPriceUSD;\r\n    uint private _OwnerRefundFeeUSD;\r\n\r\n    // last amount at which dividends where assigned for each token owner\r\n    uint private _AggregatedDividendAmount;\r\n    mapping(address => uint) private _lastAssigned;\r\n\r\n    // dividends per token owner\r\n    struct _BalanceStruct{\r\n        mapping(uint => uint) _balance;\r\n        uint[] _factors;\r\n    }\r\n    \r\n    mapping(address => _BalanceStruct) private _balances;\r\n\r\n    // MODIFIERS /////////////////////////////////////////\r\n    modifier areFundsEnough(uint256 value, Library.Prices price){\r\n        uint256 minPriceUSD = 2**256 - 1;\r\n\r\n        if(Library.Prices.NewProvider == price) minPriceUSD = _PublicPriceUSD;\r\n        else if(Library.Prices.NewPool == price) minPriceUSD = _PrivatePriceUSD;\r\n        else if(Library.Prices.NewCertificate == price) minPriceUSD = _CertificatePriceUSD;\r\n        else minPriceUSD = _ProviderPriceUSD;\r\n\r\n        uint256 minPriceETH = IPriceConverter(_managerContract.retrieveTransparentProxies()[uint256(Library.TransparentProxies.PriceConverter)]).fromUSDToETH(minPriceUSD);\r\n\r\n        require(value >= minPriceETH, \"EC2-\");\r\n        _;\r\n    }\r\n\r\n    modifier isBalanceEnough(uint amount, address addr){\r\n        require(checkFullBalance(addr) >= amount, \"EC20-\");\r\n        _;\r\n    }\r\n\r\n    modifier isFromPublicPool(address addr){\r\n        Library.ItIsSomeone(addr, _managerContract.retrieveTransparentProxies()[uint256(Library.TransparentProxies.PublicPool)]);\r\n        _;\r\n    }\r\n\r\n    modifier isPriceOK(uint256 PublicPriceUSD, uint256 OwnerRefundFeeUSD){\r\n        isPriceOKFunc(PublicPriceUSD, OwnerRefundFeeUSD);\r\n        _;\r\n    }\r\n\r\n    function isPriceOKFunc(uint256 PublicPriceUSD, uint256 OwnerRefundFeeUSD) internal pure{\r\n        require(PublicPriceUSD >= OwnerRefundFeeUSD, \"EC21-\");\r\n    }\r\n    \r\n    // CONSTRUCTOR /////////////////////////////////////////\r\n    function Treasury_init(uint256 PublicPriceUSD, uint256 PrivatePriceUSD, uint256 ProviderPriceUSD, uint256 CertificatePriceUSD, uint256 OwnerRefundFeeUSD, address managerContractAddress, address chairPerson, string memory contractName, string memory contractVersion) public initializer \r\n        isPriceOK(PublicPriceUSD, OwnerRefundFeeUSD)\r\n    {\r\n        super.StdPropositionBaseContract_init(chairPerson, managerContractAddress, contractName, contractVersion);\r\n        InternalupdatePrices(PublicPriceUSD, PrivatePriceUSD, ProviderPriceUSD, CertificatePriceUSD, OwnerRefundFeeUSD);\r\n    }\r\n\r\n    // GOVERNANCE /////////////////////////////////////////\r\n    function checkProposition(bytes[] memory NewValues) internal override \r\n        isPriceOK(UintLibrary.Bytes32ToUint(Library.BytestoBytes32(NewValues[0])[0]), UintLibrary.Bytes32ToUint(Library.BytestoBytes32(NewValues[4])[0]))\r\n    {}\r\n\r\n    function UpdateAll() internal override\r\n    {\r\n        bytes32[] memory ProposedNewValues = PropositionsToBytes32();\r\n\r\n        uint256 PublicPriceUSD = UintLibrary.Bytes32ToUint(ProposedNewValues[0]);\r\n        uint256 PrivatePriceUSD = UintLibrary.Bytes32ToUint(ProposedNewValues[1]);\r\n        uint256 ProviderPriceUSD = UintLibrary.Bytes32ToUint(ProposedNewValues[2]);\r\n        uint256 CertificatePriceUSD = UintLibrary.Bytes32ToUint(ProposedNewValues[3]);\r\n        uint256 OwnerRefundFeeUSD = UintLibrary.Bytes32ToUint(ProposedNewValues[4]);\r\n\r\n        InternalupdatePrices(PublicPriceUSD, PrivatePriceUSD, ProviderPriceUSD, CertificatePriceUSD, OwnerRefundFeeUSD);\r\n\r\n        emit _NewPrices(PublicPriceUSD, PrivatePriceUSD, ProviderPriceUSD, CertificatePriceUSD, OwnerRefundFeeUSD);\r\n    }\r\n\r\n    function InternalupdatePrices(uint256 PublicPriceUSD, uint256 PrivatePriceUSD, uint256 ProviderPriceUSD, uint256 CertificatePriceUSD, uint256 OwnerRefundFeeUSD) internal\r\n    {\r\n        _PublicPriceUSD = PublicPriceUSD;\r\n        _PrivatePriceUSD = PrivatePriceUSD;\r\n        _ProviderPriceUSD = ProviderPriceUSD;\r\n        _CertificatePriceUSD = CertificatePriceUSD;\r\n        _OwnerRefundFeeUSD = OwnerRefundFeeUSD;\r\n    }\r\n\r\n    // FUNCTIONALITY /////////////////////////////////////////\r\n    function pay(Library.Prices price) external \r\n        areFundsEnough(msg.value, price)\r\n    override payable\r\n    {\r\n        uint256 amount = msg.value;\r\n        if(price == Library.Prices.NewProvider) amount -= IPriceConverter(_managerContract.retrieveTransparentProxies()[uint256(Library.TransparentProxies.PriceConverter)]).fromUSDToETH(_OwnerRefundFeeUSD);\r\n        _AggregatedDividendAmount += amount;\r\n\r\n        emit _Pay(msg.sender, msg.value, _AggregatedDividendAmount);\r\n    }\r\n\r\n    function InternalonTokenBalanceChanged(address from, address to, uint256 amount) internal override\r\n    {\r\n        super.InternalonTokenBalanceChanged(from, to, amount);\r\n        if(address(0) != from) InternalAssignDividends(from);\r\n        if(address(0) != to) InternalAssignDividends(to);\r\n    }\r\n\r\n    function InternalAssignDividends(address recipient) internal\r\n    {\r\n        (uint totalOffBalance, uint DividendOffBalance) = sumUpTotalOffBalance(recipient);\r\n        _lastAssigned[recipient] = _AggregatedDividendAmount;\r\n        \r\n        if(totalOffBalance > 0){   \r\n           addBalance(recipient, totalOffBalance, DividendOffBalance);\r\n           emit _AssignDividend(recipient, totalOffBalance, DividendOffBalance);\r\n        }\r\n    }\r\n\r\n    function getRefund(address addr, uint numberOfOwners) external \r\n        isFromPublicPool(msg.sender)\r\n    override\r\n    {\r\n        uint OwnerRefundFeeWei = IPriceConverter(_managerContract.retrieveTransparentProxies()[uint256(Library.TransparentProxies.PriceConverter)]).fromUSDToETH(_OwnerRefundFeeUSD);\r\n        addBalance(addr, OwnerRefundFeeWei, numberOfOwners);\r\n\r\n        emit _Refund(addr, OwnerRefundFeeWei, numberOfOwners);\r\n    }\r\n\r\n    function withdraw(uint amount) external \r\n    override\r\n    {\r\n        InternalWithdraw(amount);\r\n    }\r\n\r\n    function withdrawAll() external override\r\n    {\r\n        uint All = checkFullBalance(msg.sender);\r\n        InternalWithdraw(All);\r\n    }\r\n\r\n    function InternalWithdraw(uint amount) internal \r\n        isBalanceEnough(amount, msg.sender)\r\n    {\r\n        InternalAssignDividends(msg.sender);\r\n        uint[] memory f = returnFactors(msg.sender);\r\n        (uint total, uint commonDividend) = sumUpTotalOnBalance(msg.sender);\r\n        uint remainder =  total - (amount * commonDividend);\r\n\r\n        for(uint i=0; i < f.length; i++){\r\n            substractBalance(msg.sender, returnBalanceForFactor(msg.sender, f[i]), f[i]);\r\n        }\r\n\r\n        addBalance(msg.sender, remainder, commonDividend);\r\n\r\n        (bool success, bytes memory data) = msg.sender.call{value: amount}(\"\");\r\n        require(success, string(abi.encodePacked(\"Error transfering funds to address : \", data)));\r\n\r\n        emit _Withdraw(msg.sender, amount);\r\n    }\r\n\r\n    function retrieveLastAssigned(address addr) external override view returns(uint)\r\n    {\r\n        return _lastAssigned[addr];\r\n    }\r\n\r\n    function retrieveFullBalance(address addr) external override view returns(uint)\r\n    {\r\n        return checkFullBalance(addr);\r\n    }\r\n\r\n    function retrieveSettings() external override view returns(uint, uint, uint, uint, uint)\r\n    {\r\n        return(_PublicPriceUSD, _PrivatePriceUSD, _ProviderPriceUSD, _CertificatePriceUSD, _OwnerRefundFeeUSD);\r\n    }\r\n\r\n    function retrieveAggregatedAmount() external override view returns(uint){\r\n        return _AggregatedDividendAmount;\r\n    }\r\n\r\n    function checkFullBalance(address addr) internal view returns(uint){\r\n        (uint total, uint commonDividend) = sumUpTotal(addr);\r\n\r\n        return total / commonDividend;\r\n    }\r\n\r\n    function sumUpTotal(address addr) internal view returns (uint, uint)\r\n    {\r\n        (uint totalOnBalance, uint commonDividendOnBalance) = sumUpTotalOnBalance(addr);\r\n        (uint totalOffBalance, uint DividendOffBalance) = sumUpTotalOffBalance(addr);\r\n\r\n        uint total = (totalOnBalance * DividendOffBalance) + (totalOffBalance * commonDividendOnBalance);\r\n        uint CommonDividend = commonDividendOnBalance * DividendOffBalance;\r\n\r\n        return (total, CommonDividend);\r\n    }\r\n\r\n    function sumUpTotalOnBalance(address addr) internal view returns (uint, uint)\r\n    {\r\n        uint[] memory f = returnFactors(addr);\r\n        uint CommonDividend = UintLibrary.ProductOfFactors(f);\r\n        uint total = 0;\r\n\r\n        for(uint i=0; i < f.length; i++){\r\n            total += returnBalanceForFactor(addr, f[i]) * CommonDividend / f[i];\r\n        }\r\n\r\n        return (total, CommonDividend);\r\n    }\r\n\r\n    function sumUpTotalOffBalance(address addr) internal view returns (uint, uint)\r\n    {\r\n        uint total = 0;\r\n\r\n        if(_lastAssigned[addr] < _AggregatedDividendAmount)\r\n        {\r\n            total = (_AggregatedDividendAmount - _lastAssigned[addr]) * GetTokensBalance(addr);           \r\n        }\r\n\r\n        return (total, totalSupply());\r\n    }\r\n\r\n    function returnFactors(address addr) internal view returns(uint[] memory){\r\n        return _balances[addr]._factors;\r\n    }\r\n\r\n    function returnBalanceForFactor(address addr, uint factor) internal view returns(uint){\r\n        return _balances[addr]._balance[factor];\r\n    }\r\n\r\n    function addBalance(address addr, uint amount, uint factor) internal\r\n    {\r\n        if(amount > 0){\r\n            if(0 == _balances[addr]._balance[factor])\r\n            {\r\n                _balances[addr]._factors.push(factor);\r\n            }\r\n            _balances[addr]._balance[factor] += amount;\r\n        }\r\n    }\r\n\r\n    function substractBalance(address addr, uint amount, uint factor) internal\r\n    {\r\n        require(_balances[addr]._balance[factor] >= amount, \"Not enough balance for this factor\");\r\n\r\n        _balances[addr]._balance[factor] -= amount;\r\n\r\n        if(0 == _balances[addr]._balance[factor])\r\n        {\r\n            UintLibrary.UintArrayRemoveResize(UintLibrary.FindUintPosition(factor, _balances[addr]._factors), _balances[addr]._factors);\r\n        }\r\n        \r\n    }\r\n\r\n}",
  "sourcePath": "C:\\Users\\d-aam\\GitHub\\Certificates\\contracts\\DeployedContracts\\Treasury.sol",
  "compiler": {
    "name": "solc",
    "version": "0.8.7+commit.e28d00a7.Emscripten.clang"
  },
  "schemaVersion": "3.4.3",
  "updatedAt": "2021-12-08T13:13:28.791Z",
  "devdoc": {
    "kind": "dev",
    "methods": {},
    "version": 1
  },
  "userdoc": {
    "kind": "user",
    "methods": {},
    "version": 1
  }
}