{
  "contractName": "Treasury",
  "abi": [
    {
      "inputs": [
        {
          "internalType": "uint256",
          "name": "PublicPriceWei",
          "type": "uint256"
        },
        {
          "internalType": "uint256",
          "name": "PrivatePriceWei",
          "type": "uint256"
        },
        {
          "internalType": "uint256",
          "name": "CertificatePriceWei",
          "type": "uint256"
        },
        {
          "internalType": "uint256",
          "name": "OwnerRefundPriceWei",
          "type": "uint256"
        },
        {
          "internalType": "address",
          "name": "PublicPoolAddress",
          "type": "address"
        },
        {
          "internalType": "address",
          "name": "managerContractAddress",
          "type": "address"
        }
      ],
      "stateMutability": "nonpayable",
      "type": "constructor"
    },
    {
      "inputs": [],
      "name": "payForNewProposal",
      "outputs": [],
      "stateMutability": "payable",
      "type": "function"
    },
    {
      "inputs": [],
      "name": "payForNewPool",
      "outputs": [],
      "stateMutability": "payable",
      "type": "function"
    },
    {
      "inputs": [],
      "name": "payForNewCertificate",
      "outputs": [],
      "stateMutability": "payable",
      "type": "function"
    },
    {
      "inputs": [
        {
          "internalType": "uint256",
          "name": "PublicPriceWei",
          "type": "uint256"
        },
        {
          "internalType": "uint256",
          "name": "PrivatePriceWei",
          "type": "uint256"
        },
        {
          "internalType": "uint256",
          "name": "CertificatePriceWei",
          "type": "uint256"
        },
        {
          "internalType": "uint256",
          "name": "OwnerRefundPriceWei",
          "type": "uint256"
        },
        {
          "internalType": "address",
          "name": "PublicPoolAddress",
          "type": "address"
        }
      ],
      "name": "updateConfig",
      "outputs": [],
      "stateMutability": "nonpayable",
      "type": "function"
    },
    {
      "inputs": [
        {
          "internalType": "address",
          "name": "addr",
          "type": "address"
        },
        {
          "internalType": "uint256",
          "name": "numberOfOwners",
          "type": "uint256"
        }
      ],
      "name": "getRefund",
      "outputs": [],
      "stateMutability": "nonpayable",
      "type": "function"
    },
    {
      "inputs": [
        {
          "internalType": "uint256",
          "name": "amount",
          "type": "uint256"
        }
      ],
      "name": "withdraw",
      "outputs": [],
      "stateMutability": "nonpayable",
      "type": "function"
    },
    {
      "inputs": [
        {
          "internalType": "address",
          "name": "addr",
          "type": "address"
        }
      ],
      "name": "retrieveBalance",
      "outputs": [
        {
          "internalType": "uint256",
          "name": "",
          "type": "uint256"
        }
      ],
      "stateMutability": "view",
      "type": "function"
    },
    {
      "inputs": [
        {
          "internalType": "address",
          "name": "addr",
          "type": "address"
        }
      ],
      "name": "returnFactors",
      "outputs": [
        {
          "internalType": "uint256[]",
          "name": "",
          "type": "uint256[]"
        }
      ],
      "stateMutability": "view",
      "type": "function"
    },
    {
      "inputs": [
        {
          "internalType": "address",
          "name": "addr",
          "type": "address"
        },
        {
          "internalType": "uint256",
          "name": "factor",
          "type": "uint256"
        }
      ],
      "name": "returnBalanceForFactor",
      "outputs": [
        {
          "internalType": "uint256",
          "name": "",
          "type": "uint256"
        }
      ],
      "stateMutability": "view",
      "type": "function"
    }
  ],
  "bytecode": "0x608060405234801561001057600080fd5b50604051610c08380380610c08833981810160405260c081101561003357600080fd5b508051602082015160408301516060840151608085015160a090950151600080546001600160a01b0319166001600160a01b0383161790559394929391929091610080868686868661008b565b5050505050506100be565b600294909455600492909255600355600555600180546001600160a01b0319166001600160a01b03909216919091179055565b610b3b806100cd6000396000f3fe6080604052600436106100765760003560e01c806323a850da1461007b5780632e1a7d4d146100c8578063342aa198146100f2578063435358f8146100fa5780637cc850fd14610102578063906816d71461010a578063c56cb58014610155578063e20f37ad146101d8578063eb1e2a411461020b575b600080fd5b34801561008757600080fd5b506100c6600480360360a081101561009e57600080fd5b50803590602081013590604081013590606081013590608001356001600160a01b0316610244565b005b3480156100d457600080fd5b506100c6600480360360208110156100eb57600080fd5b50356102a9565b6100c6610415565b6100c6610456565b6100c6610494565b34801561011657600080fd5b506101436004803603604081101561012d57600080fd5b506001600160a01b0381351690602001356104d2565b60408051918252519081900360200190f35b34801561016157600080fd5b506101886004803603602081101561017857600080fd5b50356001600160a01b03166104fa565b60408051602080825283518183015283519192839290830191858101910280838360005b838110156101c45781810151838201526020016101ac565b505050509050019250505060405180910390f35b3480156101e457600080fd5b50610143600480360360208110156101fb57600080fd5b50356001600160a01b031661056a565b34801561021757600080fd5b506100c66004803603604081101561022e57600080fd5b506001600160a01b03813516906020013561057b565b600054610259906001600160a01b03166105dd565b1515600114610295576040805162461bcd60e51b815260206004820152600360248201526208a86760eb1b604482015290519081900360640190fd5b6102a28585858585610600565b5050505050565b80806102b433610633565b10156102f0576040805162461bcd60e51b815260206004808301919091526024820152630454332360e41b604482015290519081900360640190fd5b60006102fb336104fa565b90506000805b84821080156103105750825181105b156103a257600083828151811061032357fe5b60200260200101516103483386858151811061033b57fe5b60200260200101516104d2565b8161034f57fe5b04905082860381111561036157508185035b80830192506103993385848151811061037657fe5b6020026020010151830286858151811061038c57fe5b602002602001015161068f565b50600101610301565b8482146103e05760405162461bcd60e51b8152600401808060200182810382526035815260200180610aaf6035913960400191505060405180910390fd5b604051339083156108fc029084906000818181858888f1935050505015801561040d573d6000803e3d6000fd5b505050505050565b60035480341015610453576040805162461bcd60e51b815260206004820152600360248201526222a19960e91b604482015290519081900360640190fd5b50565b60025480341015610453576040805162461bcd60e51b815260206004820152600360248201526222a19960e91b604482015290519081900360640190fd5b60045480341015610453576040805162461bcd60e51b815260206004820152600360248201526222a19960e91b604482015290519081900360640190fd5b6001600160a01b03919091166000908152600660209081526040808320938352929052205490565b6001600160a01b03811660009081526006602090815260409182902060010180548351818402810184019094528084526060939283018282801561055d57602002820191906000526020600020905b815481526020019060010190808311610549575b505050505090505b919050565b600061057582610633565b92915050565b600154610590906001600160a01b03166105dd565b15156001146105cc576040805162461bcd60e51b815260206004820152600360248201526208a86760eb1b604482015290519081900360640190fd5b6105d982600554836109c8565b5050565b6000336001600160a01b03831614156105f857506001610565565b506000919050565b600294909455600492909255600355600555600180546001600160a01b0319166001600160a01b03909216919091179055565b60008061063f836104fa565b90506000805b82518110156106875782818151811061065a57fe5b60200260200101516106728685848151811061033b57fe5b8161067957fe5b049190910190600101610645565b509392505050565b6001600160a01b03831660009081526006602090815260408083208484529091529020548211156106f15760405162461bcd60e51b8152600401808060200182810382526022815260200180610ae46022913960400191505060405180910390fd5b6001600160a01b038316600090815260066020908152604080832084845290915290208054839003908190556109c35773__UintLibrary___________________________6302fbee9e73__UintLibrary___________________________63c5fc6b028460066000896001600160a01b03166001600160a01b031681526020019081526020016000206001016040518363ffffffff1660e01b8152600401808381526020018060200182810382528381815481526020019150805480156107d857602002820191906000526020600020905b8154815260200190600101908083116107c4575b5050935050505060206040518083038186803b1580156107f757600080fd5b505af415801561080b573d6000803e3d6000fd5b505050506040513d602081101561082157600080fd5b50516001600160a01b0386166000908152600660205260409081902081516001600160e01b031960e086901b1681526004810184815260248201938452600190920180546044830181905290939160640190849080156108a057602002820191906000526020600020905b81548152602001906001019080831161088c575b5050935050505060006040518083038186803b1580156108bf57600080fd5b505af41580156108d3573d6000803e3d6000fd5b505050506040513d6000823e601f3d908101601f1916820160405260208110156108fc57600080fd5b8101908080516040519392919084600160201b82111561091b57600080fd5b90830190602082018581111561093057600080fd5b82518660208202830111600160201b8211171561094c57600080fd5b82525081516020918201928201910280838360005b83811015610979578181015183820152602001610961565b5050505090500160405250505060066000856001600160a01b03166001600160a01b0316815260200190815260200160002060010190805190602001906109c1929190610a4e565b505b505050565b6001600160a01b0383166000908152600660209081526040808320848452909152902054610a1f576001600160a01b0383166000908152600660209081526040822060019081018054918201815583529120018190555b6001600160a01b0390921660009081526006602090815260408083209483529390529190912080549091019055565b828054828255906000526020600020908101928215610a89579160200282015b82811115610a89578251825591602001919060010190610a6e565b50610a95929150610a99565b5090565b5b80821115610a955760008155600101610a9a56fe556e45787065637465642070726f626c656d2063616c63756c6174696e672074686520616d6f756e7420746f2077697468647261774e6f7420656e6f7567682062616c616e636520666f72207468697320666163746f72a26469706673582212209a97485a5d20e6a7fb33520be90aa40f40c4481e9192d9f0eed5bdee40a891c564736f6c63430007060033",
  "immutableReferences": {},
  "source": "// SPDX-License-Identifier: GPL-3.0\r\n\r\npragma solidity >=0.7.0 <0.9.0;\r\n\r\n/**\r\n * @title Storage\r\n * @dev Store & retrieve value in a variable\r\n */\r\n\r\nimport \"./Interfaces/ITreasury.sol\";\r\nimport \"./PublicCertificatesPool.sol\";\r\nimport \"./Libraries/UintLibrary.sol\";\r\nimport \"./Libraries/Library.sol\";\r\n\r\n\r\ncontract Treasury is ITreasury{\r\n    using Library for *;\r\n    using UintLibrary for *;\r\n\r\n    // creator\r\n    address _creator;\r\n\r\n    // modifiers\r\n    modifier areFundsEnough(uint minPrice){\r\n        require(msg.value >= minPrice, \"EC2\");\r\n        _;\r\n    }\r\n\r\n    modifier isBalanceEnough(uint amount){\r\n        require(checkBalance(msg.sender) >= amount, \"EC20\");\r\n        _;\r\n    }\r\n\r\n    modifier isFromPublicPool(){\r\n        require(true == Library.ItIsSomeone(address(_PublicCertificatesPool)), \"EC8\");\r\n        _;\r\n    }\r\n\r\n    modifier isFromCreator(){\r\n        require(true == Library.ItIsSomeone(_creator), \"EC8\");\r\n        _;\r\n    }\r\n\r\n    // constants\r\n    PublicCertificatesPool  _PublicCertificatesPool;\r\n    uint _PublicPriceWei;\r\n    uint _CertificatePriceWei;\r\n    uint _PrivatePriceWei;\r\n    uint _OwnerRefundPriceWei;\r\n\r\n    // data\r\n    struct _BalanceStruct{\r\n        mapping(uint => uint) _balance;\r\n        uint[] _factors;\r\n    }\r\n    \r\n    mapping(address => _BalanceStruct) _balances;\r\n\r\n    constructor(uint256 PublicPriceWei, uint256 PrivatePriceWei, uint256 CertificatePriceWei, uint256 OwnerRefundPriceWei, address PublicPoolAddress, address managerContractAddress) {\r\n        _creator = managerContractAddress; \r\n        InternalupdateConfig(PublicPriceWei, PrivatePriceWei, CertificatePriceWei, OwnerRefundPriceWei, PublicPoolAddress);\r\n    }\r\n\r\n    function payForNewProposal() external \r\n        areFundsEnough(_PublicPriceWei)\r\n    override payable\r\n    {\r\n        // Assign dividends propotionaly (substracting the owners cut)\r\n    }\r\n\r\n    function payForNewPool() external \r\n        areFundsEnough(_PrivatePriceWei)\r\n    override payable\r\n    {\r\n        // Assign dividends propotionaly (substracting the owners cut)\r\n    }\r\n\r\n    function payForNewCertificate() external \r\n        areFundsEnough(_CertificatePriceWei)\r\n    override payable\r\n    {\r\n        // Assign dividends propotionaly (substracting the owners cut)\r\n    }\r\n\r\n    function updateConfig(uint256 PublicPriceWei, uint256 PrivatePriceWei, uint256 CertificatePriceWei, uint256 OwnerRefundPriceWei, address PublicPoolAddress) external\r\n        isFromCreator()\r\n    override{\r\n        InternalupdateConfig(PublicPriceWei, PrivatePriceWei, CertificatePriceWei, OwnerRefundPriceWei, PublicPoolAddress);\r\n    }\r\n\r\n    function InternalupdateConfig(uint256 PublicPriceWei, uint256 PrivatePriceWei, uint256 CertificatePriceWei, uint256 OwnerRefundPriceWei, address PublicPoolAddress) internal\r\n    {\r\n        _PublicPriceWei = PublicPriceWei;\r\n        _PrivatePriceWei = PrivatePriceWei;\r\n        _CertificatePriceWei = CertificatePriceWei;\r\n        _OwnerRefundPriceWei = OwnerRefundPriceWei;\r\n        _PublicCertificatesPool = PublicCertificatesPool(PublicPoolAddress);\r\n    }\r\n\r\n    function getRefund(address addr, uint numberOfOwners) external \r\n        isFromPublicPool()\r\n    override\r\n    {\r\n        addBalance(addr, _OwnerRefundPriceWei, numberOfOwners);\r\n    }\r\n\r\n    function withdraw(uint amount) external \r\n        isBalanceEnough(amount)\r\n    override\r\n    {\r\n        uint[] memory f = returnFactors(msg.sender);\r\n        uint total = 0;\r\n        uint i = 0;\r\n\r\n        while ((total < amount) && (i < f.length)){\r\n            uint amountForFactor = returnBalanceForFactor(msg.sender, f[i]) / f[i];\r\n            if(amountForFactor > (amount - total)) amountForFactor = amount - total;\r\n            total += amountForFactor;\r\n            substractBalance(msg.sender, amountForFactor * f[i], f[i]);\r\n            i++;\r\n        }\r\n\r\n        require(total == amount, \"UnExpected problem calculating the amount to withdraw\");\r\n\r\n        msg.sender.transfer(total);\r\n    }\r\n\r\n    function retrieveBalance(address addr) external override view returns(uint)\r\n    {\r\n        return checkBalance(addr);\r\n    }\r\n\r\n    function checkBalance(address addr) internal view returns(uint){\r\n        uint[] memory f = returnFactors(addr);\r\n        uint total = 0;\r\n\r\n        for(uint i=0; i < f.length; i++){\r\n            total += returnBalanceForFactor(addr, f[i]) / f[i];\r\n        }\r\n\r\n        return total;\r\n    }\r\n\r\n    function returnFactors(address addr) public view returns(uint[] memory){\r\n        return _balances[addr]._factors;\r\n    }\r\n\r\n    function returnBalanceForFactor(address addr, uint factor) public view returns(uint){\r\n        return _balances[addr]._balance[factor];\r\n    }\r\n\r\n    function addBalance(address addr, uint amount, uint factor) private{\r\n        if(0 == _balances[addr]._balance[factor]){\r\n             _balances[addr]._factors.push(factor);\r\n        }\r\n\r\n       _balances[addr]._balance[factor] += amount;\r\n    }\r\n\r\n    function substractBalance(address addr, uint amount, uint factor) private{\r\n        require(_balances[addr]._balance[factor] >= amount, \"Not enough balance for this factor\");\r\n\r\n        _balances[addr]._balance[factor] -= amount;\r\n\r\n        if(0 == _balances[addr]._balance[factor]){\r\n            _balances[addr]._factors = UintLibrary.UintArrayRemoveResize(UintLibrary.FindUintPosition(factor, _balances[addr]._factors), _balances[addr]._factors);\r\n        }\r\n        \r\n    }\r\n\r\n}",
  "sourcePath": "C:\\Users\\d-aam\\GitHub\\Certificates\\contracts\\Treasury.sol",
  "compiler": {
    "name": "solc",
    "version": "0.7.6+commit.7338295f.Emscripten.clang"
  },
  "schemaVersion": "3.3.4",
  "updatedAt": "2021-07-19T14:29:41.595Z",
  "devdoc": {
    "kind": "dev",
    "methods": {},
    "version": 1
  },
  "userdoc": {
    "kind": "user",
    "methods": {},
    "version": 1
  }
}