{
  "contractName": "Treasury",
  "abi": [
    {
      "anonymous": false,
      "inputs": [
        {
          "indexed": false,
          "internalType": "uint256",
          "name": "",
          "type": "uint256"
        },
        {
          "indexed": true,
          "internalType": "address",
          "name": "",
          "type": "address"
        },
        {
          "indexed": false,
          "internalType": "uint256",
          "name": "",
          "type": "uint256"
        },
        {
          "indexed": false,
          "internalType": "uint256",
          "name": "",
          "type": "uint256"
        }
      ],
      "name": "_AddedProposition",
      "type": "event"
    },
    {
      "anonymous": false,
      "inputs": [
        {
          "indexed": true,
          "internalType": "address",
          "name": "",
          "type": "address"
        },
        {
          "indexed": false,
          "internalType": "uint256",
          "name": "",
          "type": "uint256"
        },
        {
          "indexed": false,
          "internalType": "uint256",
          "name": "",
          "type": "uint256"
        }
      ],
      "name": "_AssignDividend",
      "type": "event"
    },
    {
      "anonymous": false,
      "inputs": [
        {
          "indexed": false,
          "internalType": "uint256",
          "name": "",
          "type": "uint256"
        },
        {
          "indexed": true,
          "internalType": "address",
          "name": "",
          "type": "address"
        }
      ],
      "name": "_CancelledProposition",
      "type": "event"
    },
    {
      "anonymous": false,
      "inputs": [
        {
          "indexed": false,
          "internalType": "uint256",
          "name": "",
          "type": "uint256"
        },
        {
          "indexed": false,
          "internalType": "uint256",
          "name": "",
          "type": "uint256"
        },
        {
          "indexed": false,
          "internalType": "uint256",
          "name": "",
          "type": "uint256"
        },
        {
          "indexed": false,
          "internalType": "uint256",
          "name": "",
          "type": "uint256"
        },
        {
          "indexed": false,
          "internalType": "uint256",
          "name": "",
          "type": "uint256"
        }
      ],
      "name": "_NewPrices",
      "type": "event"
    },
    {
      "anonymous": false,
      "inputs": [
        {
          "indexed": true,
          "internalType": "address",
          "name": "",
          "type": "address"
        },
        {
          "indexed": false,
          "internalType": "uint256",
          "name": "",
          "type": "uint256"
        },
        {
          "indexed": false,
          "internalType": "uint256",
          "name": "",
          "type": "uint256"
        }
      ],
      "name": "_Pay",
      "type": "event"
    },
    {
      "anonymous": false,
      "inputs": [
        {
          "indexed": false,
          "internalType": "uint256",
          "name": "",
          "type": "uint256"
        },
        {
          "indexed": true,
          "internalType": "address",
          "name": "",
          "type": "address"
        },
        {
          "indexed": false,
          "internalType": "uint256",
          "name": "",
          "type": "uint256"
        },
        {
          "indexed": false,
          "internalType": "uint256",
          "name": "",
          "type": "uint256"
        }
      ],
      "name": "_PropositionApproved",
      "type": "event"
    },
    {
      "anonymous": false,
      "inputs": [
        {
          "indexed": false,
          "internalType": "uint256",
          "name": "",
          "type": "uint256"
        },
        {
          "indexed": true,
          "internalType": "address",
          "name": "",
          "type": "address"
        },
        {
          "indexed": false,
          "internalType": "uint256",
          "name": "",
          "type": "uint256"
        },
        {
          "indexed": false,
          "internalType": "uint256",
          "name": "",
          "type": "uint256"
        }
      ],
      "name": "_PropositionRejected",
      "type": "event"
    },
    {
      "anonymous": false,
      "inputs": [
        {
          "indexed": false,
          "internalType": "uint256",
          "name": "",
          "type": "uint256"
        },
        {
          "indexed": true,
          "internalType": "address",
          "name": "",
          "type": "address"
        },
        {
          "indexed": false,
          "internalType": "bool",
          "name": "",
          "type": "bool"
        },
        {
          "indexed": false,
          "internalType": "uint256",
          "name": "",
          "type": "uint256"
        }
      ],
      "name": "_PropositionVote",
      "type": "event"
    },
    {
      "anonymous": false,
      "inputs": [
        {
          "indexed": true,
          "internalType": "address",
          "name": "",
          "type": "address"
        },
        {
          "indexed": false,
          "internalType": "uint256",
          "name": "",
          "type": "uint256"
        },
        {
          "indexed": false,
          "internalType": "uint256",
          "name": "",
          "type": "uint256"
        }
      ],
      "name": "_Refund",
      "type": "event"
    },
    {
      "anonymous": false,
      "inputs": [
        {
          "indexed": true,
          "internalType": "uint256",
          "name": "",
          "type": "uint256"
        },
        {
          "indexed": false,
          "internalType": "address",
          "name": "",
          "type": "address"
        },
        {
          "indexed": false,
          "internalType": "address",
          "name": "",
          "type": "address"
        },
        {
          "indexed": false,
          "internalType": "uint256",
          "name": "",
          "type": "uint256"
        }
      ],
      "name": "_UsedTokensTransfered",
      "type": "event"
    },
    {
      "anonymous": false,
      "inputs": [
        {
          "indexed": true,
          "internalType": "address",
          "name": "",
          "type": "address"
        },
        {
          "indexed": false,
          "internalType": "uint256",
          "name": "",
          "type": "uint256"
        }
      ],
      "name": "_Withdraw",
      "type": "event"
    },
    {
      "inputs": [],
      "name": "cancelProposition",
      "outputs": [],
      "stateMutability": "nonpayable",
      "type": "function"
    },
    {
      "inputs": [
        {
          "internalType": "address",
          "name": "from",
          "type": "address"
        },
        {
          "internalType": "address",
          "name": "to",
          "type": "address"
        },
        {
          "internalType": "uint256",
          "name": "amount",
          "type": "uint256"
        }
      ],
      "name": "onTokenBalanceChanged",
      "outputs": [],
      "stateMutability": "nonpayable",
      "type": "function"
    },
    {
      "inputs": [],
      "name": "retrievePropConfig",
      "outputs": [
        {
          "internalType": "uint256",
          "name": "",
          "type": "uint256"
        },
        {
          "internalType": "uint8",
          "name": "",
          "type": "uint8"
        },
        {
          "internalType": "uint8",
          "name": "",
          "type": "uint8"
        }
      ],
      "stateMutability": "view",
      "type": "function"
    },
    {
      "inputs": [],
      "name": "retrievePropositionStatus",
      "outputs": [
        {
          "internalType": "address",
          "name": "",
          "type": "address"
        },
        {
          "internalType": "uint256",
          "name": "",
          "type": "uint256"
        },
        {
          "internalType": "uint256",
          "name": "",
          "type": "uint256"
        },
        {
          "internalType": "uint256",
          "name": "",
          "type": "uint256"
        },
        {
          "internalType": "uint256",
          "name": "",
          "type": "uint256"
        }
      ],
      "stateMutability": "view",
      "type": "function"
    },
    {
      "inputs": [
        {
          "internalType": "uint256",
          "name": "PropLifeTime",
          "type": "uint256"
        },
        {
          "internalType": "uint8",
          "name": "PropThresholdPerc",
          "type": "uint8"
        },
        {
          "internalType": "uint8",
          "name": "minWeightToPropPerc",
          "type": "uint8"
        }
      ],
      "name": "updateProp",
      "outputs": [],
      "stateMutability": "nonpayable",
      "type": "function"
    },
    {
      "inputs": [
        {
          "internalType": "bool",
          "name": "vote",
          "type": "bool"
        }
      ],
      "name": "voteProposition",
      "outputs": [],
      "stateMutability": "nonpayable",
      "type": "function"
    },
    {
      "inputs": [
        {
          "internalType": "uint256",
          "name": "PublicPriceWei",
          "type": "uint256"
        },
        {
          "internalType": "uint256",
          "name": "PrivatePriceWei",
          "type": "uint256"
        },
        {
          "internalType": "uint256",
          "name": "ProviderPriceWei",
          "type": "uint256"
        },
        {
          "internalType": "uint256",
          "name": "CertificatePriceWei",
          "type": "uint256"
        },
        {
          "internalType": "uint256",
          "name": "OwnerRefundPriceWei",
          "type": "uint256"
        },
        {
          "internalType": "address",
          "name": "managerContractAddress",
          "type": "address"
        },
        {
          "internalType": "uint256",
          "name": "PropositionLifeTime",
          "type": "uint256"
        },
        {
          "internalType": "uint8",
          "name": "PropositionThresholdPercentage",
          "type": "uint8"
        },
        {
          "internalType": "uint8",
          "name": "minWeightToProposePercentage",
          "type": "uint8"
        }
      ],
      "name": "Treasury_init",
      "outputs": [],
      "stateMutability": "nonpayable",
      "type": "function"
    },
    {
      "inputs": [
        {
          "internalType": "uint256",
          "name": "PublicPriceWei",
          "type": "uint256"
        },
        {
          "internalType": "uint256",
          "name": "PrivatePriceWei",
          "type": "uint256"
        },
        {
          "internalType": "uint256",
          "name": "ProviderPriceWei",
          "type": "uint256"
        },
        {
          "internalType": "uint256",
          "name": "CertificatePriceWei",
          "type": "uint256"
        },
        {
          "internalType": "uint256",
          "name": "OwnerRefundPriceWei",
          "type": "uint256"
        }
      ],
      "name": "updatePrices",
      "outputs": [],
      "stateMutability": "nonpayable",
      "type": "function"
    },
    {
      "inputs": [],
      "name": "retrieveProposition",
      "outputs": [
        {
          "internalType": "bytes32[]",
          "name": "",
          "type": "bytes32[]"
        }
      ],
      "stateMutability": "view",
      "type": "function"
    },
    {
      "inputs": [
        {
          "internalType": "enum Library.Prices",
          "name": "price",
          "type": "uint8"
        }
      ],
      "name": "pay",
      "outputs": [],
      "stateMutability": "payable",
      "type": "function"
    },
    {
      "inputs": [],
      "name": "AssignDividends",
      "outputs": [],
      "stateMutability": "nonpayable",
      "type": "function"
    },
    {
      "inputs": [
        {
          "internalType": "address",
          "name": "addr",
          "type": "address"
        },
        {
          "internalType": "uint256",
          "name": "numberOfOwners",
          "type": "uint256"
        }
      ],
      "name": "getRefund",
      "outputs": [],
      "stateMutability": "nonpayable",
      "type": "function"
    },
    {
      "inputs": [
        {
          "internalType": "uint256",
          "name": "amount",
          "type": "uint256"
        }
      ],
      "name": "withdraw",
      "outputs": [],
      "stateMutability": "nonpayable",
      "type": "function"
    },
    {
      "inputs": [
        {
          "internalType": "address",
          "name": "addr",
          "type": "address"
        }
      ],
      "name": "retrieveBalance",
      "outputs": [
        {
          "internalType": "uint256",
          "name": "",
          "type": "uint256"
        }
      ],
      "stateMutability": "view",
      "type": "function"
    },
    {
      "inputs": [],
      "name": "retrievePrices",
      "outputs": [
        {
          "internalType": "uint256",
          "name": "",
          "type": "uint256"
        },
        {
          "internalType": "uint256",
          "name": "",
          "type": "uint256"
        },
        {
          "internalType": "uint256",
          "name": "",
          "type": "uint256"
        },
        {
          "internalType": "uint256",
          "name": "",
          "type": "uint256"
        },
        {
          "internalType": "uint256",
          "name": "",
          "type": "uint256"
        }
      ],
      "stateMutability": "view",
      "type": "function"
    },
    {
      "inputs": [
        {
          "internalType": "address",
          "name": "addr",
          "type": "address"
        }
      ],
      "name": "returnFactors",
      "outputs": [
        {
          "internalType": "uint256[]",
          "name": "",
          "type": "uint256[]"
        }
      ],
      "stateMutability": "view",
      "type": "function"
    },
    {
      "inputs": [
        {
          "internalType": "address",
          "name": "addr",
          "type": "address"
        },
        {
          "internalType": "uint256",
          "name": "factor",
          "type": "uint256"
        }
      ],
      "name": "returnBalanceForFactor",
      "outputs": [
        {
          "internalType": "uint256",
          "name": "",
          "type": "uint256"
        }
      ],
      "stateMutability": "view",
      "type": "function"
    }
  ],
  "bytecode": "0x608060405234801561001057600080fd5b50612598806100206000396000f3fe6080604052600436106100ce5760003560e01c806325b4f3ca146100d35780632e1a7d4d146101095780633c7df55d1461012b57806355457ee91461014b578063840f6d1714610160578063906816d7146101ae57806391f91671146101dc578063922ebecc146101fc57806396df6e791461021c578063a93316f51461023c578063ac2bb4421461025e578063c56cb5801461027e578063d40a52361461029e578063d660ab34146102b3578063e20f37ad146102ec578063eb1e2a411461030c578063f0c9325e1461032c575b600080fd5b3480156100df57600080fd5b50601354601554601654601454601754604051610100959493929190612439565b60405180910390f35b34801561011557600080fd5b506101296101243660046121a3565b61033f565b005b34801561013757600080fd5b50610129610146366004611ffe565b610556565b34801561015757600080fd5b50610129610693565b34801561016c57600080fd5b50600354600454600554600654600754604080516001600160a01b0390961686526020860194909452928401919091526060830152608082015260a001610100565b3480156101ba57600080fd5b506101ce6101c936600461203f565b6107c1565b604051908152602001610100565b3480156101e857600080fd5b506101296101f736600461212f565b6107e9565b34801561020857600080fd5b506101296102173660046121f7565b61090d565b34801561022857600080fd5b506101296102373660046121bc565b61099e565b34801561024857600080fd5b506102516109b4565b60405161010091906122c7565b34801561026a57600080fd5b50610129610279366004612277565b610d19565b34801561028a57600080fd5b50610251610299366004611fc4565b610d26565b3480156102aa57600080fd5b50610129610d95565b3480156102bf57600080fd5b50600a54600b546040805192835260ff808316602085015261010090920490911690820152606001610100565b3480156102f857600080fd5b506101ce610307366004611fc4565b610da0565b34801561031857600080fd5b5061012961032736600461203f565b610db1565b61012961033a366004612182565b610f37565b808061034a33611067565b101561038a5760405162461bcd60e51b8152600401610381906020808252600490820152630454332360e41b604082015260600190565b60405180910390fd5b600061039533610d26565b90506000805b84821080156103aa5750825181105b1561047f5760008382815181106103c3576103c3612513565b60200260200101516103ee338685815181106103e1576103e1612513565b60200260200101516107c1565b6103f89190612474565b905061040483876124b5565b8111156104185761041583876124b5565b90505b610422818461245c565b925061046c3385848151811061043a5761043a612513565b60200260200101518361044d9190612496565b86858151811061045f5761045f612513565b60200260200101516110e2565b81610476816124cc565b9250505061039b565b8482146104ec5760405162461bcd60e51b815260206004820152603560248201527f556e45787065637465642070726f626c656d2063616c63756c6174696e672074604482015274686520616d6f756e7420746f20776974686472617760581b6064820152608401610381565b604051339083156108fc029084906000818181858888f19350505050158015610519573d6000803e3d6000fd5b5060405182815233907f732ea8a38f70c2018ed8dfd6e97bf6381f60102061beae0ac4d9a5abd15a06029060200160405180910390a25050505050565b73__Library_______________________________63d1d719d0600060029054906101000a90046001600160a01b03166001600160a01b031663da3dce266040518163ffffffff1660e01b815260040160206040518083038186803b1580156105be57600080fd5b505afa1580156105d2573d6000803e3d6000fd5b505050506040513d601f19601f820116820180604052508101906105f69190611fe1565b6040518263ffffffff1660e01b815260040161061291906122b3565b60206040518083038186803b15801561062a57600080fd5b505af415801561063e573d6000803e3d6000fd5b505050506040513d601f19601f82011682018060405250810190610662919061214c565b15156001146106835760405162461bcd60e51b8152600401610381906123b3565b61068e838383611337565b505050565b600161069d611372565b15156001146106be5760405162461bcd60e51b815260040161038190612377565b600354604051630d1d719d60e41b815273__Library_______________________________9163d1d719d091610700916001600160a01b0316906004016122b3565b60206040518083038186803b15801561071857600080fd5b505af415801561072c573d6000803e3d6000fd5b505050506040513d601f19601f82011682018060405250810190610750919061214c565b15156001146107715760405162461bcd60e51b81526004016103819061230b565b6107796113ac565b6003546002546040519081526001600160a01b03909116907f1fe8aec10c0a50fa765076161e08c1f961ced69594ff45cf7d559f593afe14799060200160405180910390a250565b6001600160a01b03919091166000908152601a60209081526040808320938352929052205490565b60016107f3611372565b15156001146108145760405162461bcd60e51b815260040161038190612377565b610823336002600001546113d7565b151560011461085d5760405162461bcd60e51b8152600401610381906020808252600490820152634543323360e01b604082015260600190565b600061086e336002600001546113ee565b9050821561089657806002600401600082825461088b919061245c565b909155506108b19050565b80600260050160008282546108ab919061245c565b90915550505b6002546108bf90338361142b565b600254604080519182528415156020830152810182905233907f50f654d58981575c05e369cb129aeacb01e1b036af429380242cfc5d1a4b743f9060600160405180910390a261068e611467565b600054610100900460ff1680610926575060005460ff16155b6109425760405162461bcd60e51b815260040161038190612329565b600054610100900460ff16158015610964576000805461ffff19166101011790555b61097184848433896115a7565b6109808a8a8a8a8a6001611650565b8015610992576000805461ff00191690555b50505050505050505050565b6109ad85858585856000611650565b5050505050565b60408051600580825260c08201909252606091600091906020820160a0803683375050600e54604051631635719760e31b8152600481019190915291925073__UintLibrary___________________________9163b1ab8cb8915060240160206040518083038186803b158015610a2a57600080fd5b505af4158015610a3e573d6000803e3d6000fd5b505050506040513d601f19601f82011682018060405250810190610a629190612169565b81600081518110610a7557610a75612513565b6020908102919091010152601054604051631635719760e31b8152600481019190915273__UintLibrary___________________________9063b1ab8cb89060240160206040518083038186803b158015610acf57600080fd5b505af4158015610ae3573d6000803e3d6000fd5b505050506040513d601f19601f82011682018060405250810190610b079190612169565b81600181518110610b1a57610b1a612513565b6020908102919091010152601154604051631635719760e31b8152600481019190915273__UintLibrary___________________________9063b1ab8cb89060240160206040518083038186803b158015610b7457600080fd5b505af4158015610b88573d6000803e3d6000fd5b505050506040513d601f19601f82011682018060405250810190610bac9190612169565b81600281518110610bbf57610bbf612513565b6020908102919091010152600f54604051631635719760e31b8152600481019190915273__UintLibrary___________________________9063b1ab8cb89060240160206040518083038186803b158015610c1957600080fd5b505af4158015610c2d573d6000803e3d6000fd5b505050506040513d601f19601f82011682018060405250810190610c519190612169565b81600381518110610c6457610c64612513565b6020908102919091010152601254604051631635719760e31b8152600481019190915273__UintLibrary___________________________9063b1ab8cb89060240160206040518083038186803b158015610cbe57600080fd5b505af4158015610cd2573d6000803e3d6000fd5b505050506040513d601f19601f82011682018060405250810190610cf69190612169565b81600481518110610d0957610d09612513565b6020908102919091010152919050565b61068e83838360006116d6565b6001600160a01b0381166000908152601a6020908152604091829020600101805483518184028101840190945280845260609392830182828015610d8957602002820191906000526020600020905b815481526020019060010190808311610d75575b50505050509050919050565b610d9e3361178d565b565b6000610dab82611067565b92915050565b73__Library_______________________________63d1d719d0600060029054906101000a90046001600160a01b03166001600160a01b031663aa33380a6040518163ffffffff1660e01b815260040160206040518083038186803b158015610e1957600080fd5b505afa158015610e2d573d6000803e3d6000fd5b505050506040513d601f19601f82011682018060405250810190610e519190611fe1565b6040518263ffffffff1660e01b8152600401610e6d91906122b3565b60206040518083038186803b158015610e8557600080fd5b505af4158015610e99573d6000803e3d6000fd5b505050506040513d601f19601f82011682018060405250810190610ebd919061214c565b1515600114610ede5760405162461bcd60e51b8152600401610381906123b3565b610eeb8260175483611875565b60175460408051918252602082018390526001600160a01b038416917f885157c8ed39c012c67730d5e5d229068f71cac97d1658f5bf6593c8246dcc3c91015b60405180910390a25050565b80600019816003811115610f4d57610f4d6124fd565b610f5a5750601354610fa5565b816003811115610f6c57610f6c6124fd565b60011415610f7d5750601554610fa5565b816003811115610f8f57610f8f6124fd565b60021415610fa05750601454610fa5565b506016545b80341015610fdb5760405162461bcd60e51b815260206004820152600360248201526222a19960e91b6044820152606401610381565b346000846003811115610ff057610ff06124fd565b14156110065760175461100390826124b5565b90505b8060186000828254611018919061245c565b909155505060185460405133917faef711f818f5d24f55a9c2d7da0afa5edd0420e1505ff8e60c344ce836e3e86e9161105991348252602082015260400190565b60405180910390a250505050565b60008061107383610d26565b90506000805b82518110156110da5782818151811061109457611094612513565b60200260200101516110b2868584815181106103e1576103e1612513565b6110bc9190612474565b6110c6908361245c565b9150806110d2816124cc565b915050611079565b509392505050565b6001600160a01b0383166000908152601a602090815260408083208484529091529020548211156111605760405162461bcd60e51b815260206004820152602260248201527f4e6f7420656e6f7567682062616c616e636520666f722074686973206661637460448201526137b960f11b6064820152608401610381565b6001600160a01b0383166000908152601a60209081526040808320848452909152812080548492906111939084906124b5565b90915550506001600160a01b0383166000908152601a6020908152604080832084845290915290205461068e576001600160a01b0383166000908152601a60205260409081902090516362fe358160e11b815273__UintLibrary___________________________916302fbee9e91839163c5fc6b029161121e9187916001909101906004016123d0565b60206040518083038186803b15801561123657600080fd5b505af415801561124a573d6000803e3d6000fd5b505050506040513d601f19601f8201168201806040525081019061126e9190612169565b6001600160a01b0386166000908152601a60205260409081902090516001600160e01b031960e085901b1681526112ac9291600101906004016123d0565b60006040518083038186803b1580156112c457600080fd5b505af41580156112d8573d6000803e3d6000fd5b505050506040513d6000823e601f3d908101601f19168201604052611300919081019061206b565b6001600160a01b0384166000908152601a602090815260409091208251611331936001909201929190910190611f53565b50505050565b611342838383611905565b6001600160a01b0383161561135a5761135a8361178d565b6001600160a01b0382161561068e5761068e8261178d565b6004546000904210156113855750600190565b6003546001600160a01b0316156113a65761139e611922565b6113a66113ac565b50600090565b60006002819055600380546001600160a01b0319169055600481905560058190556006819055600755565b6000806113e484846113ee565b1515949350505050565b60008181526009602090815260408083206001600160a01b038616845290915281205461141a8461192a565b61142491906124b5565b9392505050565b60008381526009602090815260408083206001600160a01b03861684529091528120805483929061145d90849061245c565b9091555050505050565b600554600654111561152357600b5462010000900460ff16156114bf57600c54600a55600d54600b805461010080840460ff90811690910261ffff199092169316929092179190911790556114ba611a2c565b6114c7565b6114c7611a4a565b6114cf6113ac565b6003546002546006546007546040516001600160a01b03909416937f23ca0034cf5aad32571b4a492e9598ea8a490e1643a60970e3cdc6933b55e49f936115199390929091612423565b60405180910390a2565b6005546007541115610d9e57600b5462010000900460ff161561154d57611548611a2c565b611555565b611555611922565b61155d6113ac565b6003546002546006546007546040516001600160a01b03909416937fa58eb6daa3c62c3f883973c4035e5bd3e81aa627c8379de068a7de42df122be2936115199390929091612423565b600054610100900460ff16806115c0575060005460ff16155b6115dc5760405162461bcd60e51b815260040161038190612329565b600054610100900460ff161580156115fe576000805461ffff19166101011790555b61160782611abb565b600180546001600160a01b0319166001600160a01b0385161781556000600855611636908790879087906116d6565b8015611648576000805461ff00191690555b505050505050565b8582808210156116725760405162461bcd60e51b815260040161038190612395565b821561169657601388905560158790556016869055601485905560178490556116cc565b6116b2600a54426116a7919061245c565b600b5460ff16611b4a565b600e889055600f8590556010879055601186905560128490555b5050505050505050565b82828160ff16606410156116fc5760405162461bcd60e51b815260040161038190612395565b8060ff16606410156117205760405162461bcd60e51b815260040161038190612395565b821561174b57600a869055600b805460ff8681166101000261ffff1990921690881617179055611648565b600c869055600d805460ff8681166101000261ffff1990921690881617179055600b805462ff0000191662010000179055600a54611648906116a7904261245c565b6018546001600160a01b0382166000908152601960205260409020541015611872576001600160a01b0381166000908152601960205260408120546018546117d591906124b5565b6018546001600160a01b0384166000908152601960205260409020559050611817826118008161192a565b61180a9084612496565b611812611c61565b611875565b816001600160a01b03167fe983a49d27e04c64952da756088988cab0349d02969d01e8fecd907888b2e12061184b8461192a565b6118559084612496565b61185d611c61565b60408051928352602083019190915201610f2b565b50565b811561068e576001600160a01b0383166000908152601a602090815260408083208484529091529020546118d2576001600160a01b0383166000908152601a60209081526040822060019081018054918201815583529120018190555b6001600160a01b0383166000908152601a602090815260408083208484529091528120805484929061145d90849061245c565b61190d611372565b15156001141561068e5761068e838383611d5d565b610d9e611ec4565b60008060029054906101000a90046001600160a01b03166001600160a01b031663da3dce266040518163ffffffff1660e01b815260040160206040518083038186803b15801561197957600080fd5b505afa15801561198d573d6000803e3d6000fd5b505050506040513d601f19601f820116820180604052508101906119b19190611fe1565b6001600160a01b03166370a08231836040518263ffffffff1660e01b81526004016119dc91906122b3565b60206040518083038186803b1580156119f457600080fd5b505afa158015611a08573d6000803e3d6000fd5b505050506040513d601f19601f82011682018060405250810190610dab9190612169565b6000600c55600d805461ffff19169055600b805462ff000019169055565b600e54601355601054601555601154601655600f54601455601254601755611a70611ec4565b7fbe8847d52fb3c03e3414e96d164a23594063f5b6cf01428e61c38bfbbc34ef19601354601554601654601454601754604051611ab1959493929190612439565b60405180910390a1565b600054610100900460ff1680611ad4575060005460ff16155b611af05760405162461bcd60e51b815260040161038190612329565b600054610100900460ff16158015611b12576000805461ffff19166101011790555b6000805462010000600160b01b031916620100006001600160a01b038516021790558015611b46576000805461ff00191690555b5050565b6000611b54611372565b15611b8a5760405162461bcd60e51b8152600401610381906020808252600490820152631150cc8d60e21b604082015260600190565b611b9333611edf565b1515600114611bb45760405162461bcd60e51b81526004016103819061230b565b600380546001600160a01b031916331790556004839055606460ff8316611bd9611c61565b611be39190612496565b611bed9190612474565b600555600880546002819055906000611c05836124cc565b90915550506003546002546004546005546040516001600160a01b03909416937f472501d19bf75639b2e316cd36f8568b0c3ab943b82a87de3c086c98c1929df993611c549390929091612423565b60405180910390a2505050565b60008060029054906101000a90046001600160a01b03166001600160a01b031663da3dce266040518163ffffffff1660e01b815260040160206040518083038186803b158015611cb057600080fd5b505afa158015611cc4573d6000803e3d6000fd5b505050506040513d601f19601f82011682018060405250810190611ce89190611fe1565b6001600160a01b03166318160ddd6040518163ffffffff1660e01b815260040160206040518083038186803b158015611d2057600080fd5b505afa158015611d34573d6000803e3d6000fd5b505050506040513d601f19601f82011682018060405250810190611d589190612169565b905090565b6001600160a01b03831615801590611d99575060025460009081526009602090815260408083206001600160a01b038716845290915290205415155b1561068e5760025460009081526009602090815260408083206001600160a01b03871684529091529020548190811115611df5575060025460009081526009602090815260408083206001600160a01b03871684529091529020545b60025460009081526009602090815260408083206001600160a01b038816845290915281208054839290611e2a9084906124b5565b90915550506001600160a01b03831615611e795760025460009081526009602090815260408083206001600160a01b038716845290915281208054839290611e7390849061245c565b90915550505b600254604080516001600160a01b038088168252861660208201529081018390527f65fbd5e5dd32bea4aeca85bd0be0abf0e489d655dee888a7510d43b06dda2dba90606001611059565b6000600e819055600f81905560108190556011819055601255565b6001546000906001600160a01b0383811691161415611f0057506001919050565b6000611f0b8361192a565b90506064611f17611c61565b600b54611f2c9190610100900460ff16612496565b611f369190612474565b8110611f455750600192915050565b50600092915050565b919050565b828054828255906000526020600020908101928215611f8e579160200282015b82811115611f8e578251825591602001919060010190611f73565b50611f9a929150611f9e565b5090565b5b80821115611f9a5760008155600101611f9f565b803560ff81168114611f4e57600080fd5b600060208284031215611fd657600080fd5b81356114248161253f565b600060208284031215611ff357600080fd5b81516114248161253f565b60008060006060848603121561201357600080fd5b833561201e8161253f565b9250602084013561202e8161253f565b929592945050506040919091013590565b6000806040838503121561205257600080fd5b823561205d8161253f565b946020939093013593505050565b6000602080838503121561207e57600080fd5b82516001600160401b038082111561209557600080fd5b818501915085601f8301126120a957600080fd5b8151818111156120bb576120bb612529565b8060051b604051601f19603f830116810181811085821117156120e0576120e0612529565b604052828152858101935084860182860187018a10156120ff57600080fd5b600095505b83861015612122578051855260019590950194938601938601612104565b5098975050505050505050565b60006020828403121561214157600080fd5b813561142481612554565b60006020828403121561215e57600080fd5b815161142481612554565b60006020828403121561217b57600080fd5b5051919050565b60006020828403121561219457600080fd5b81356004811061142457600080fd5b6000602082840312156121b557600080fd5b5035919050565b600080600080600060a086880312156121d457600080fd5b505083359560208501359550604085013594606081013594506080013592509050565b60008060008060008060008060006101208a8c03121561221657600080fd5b8935985060208a0135975060408a0135965060608a0135955060808a0135945060a08a01356122448161253f565b935060c08a0135925061225960e08b01611fb3565b91506122686101008b01611fb3565b90509295985092959850929598565b60008060006060848603121561228c57600080fd5b8335925061229c60208501611fb3565b91506122aa60408501611fb3565b90509250925092565b6001600160a01b0391909116815260200190565b6020808252825182820181905260009190848201906040850190845b818110156122ff578351835292840192918401916001016122e3565b50909695505050505050565b60208082526004908201526322a1991960e11b604082015260600190565b6020808252602e908201527f496e697469616c697a61626c653a20636f6e747261637420697320616c72656160408201526d191e481a5b9a5d1a585b1a5e995960921b606082015260800190565b6020808252600490820152634543323560e01b604082015260600190565b6020808252600490820152634543323160e01b604082015260600190565b60208082526003908201526208a86760eb1b604082015260600190565b60006040820184835260206040818501528185548084526060860191508660005282600020935060005b81811015612416578454835260019485019492840192016123fa565b5090979650505050505050565b9283526020830191909152604082015260600190565b948552602085019390935260408401919091526060830152608082015260a00190565b6000821982111561246f5761246f6124e7565b500190565b60008261249157634e487b7160e01b600052601260045260246000fd5b500490565b60008160001904831182151516156124b0576124b06124e7565b500290565b6000828210156124c7576124c76124e7565b500390565b60006000198214156124e0576124e06124e7565b5060010190565b634e487b7160e01b600052601160045260246000fd5b634e487b7160e01b600052602160045260246000fd5b634e487b7160e01b600052603260045260246000fd5b634e487b7160e01b600052604160045260246000fd5b6001600160a01b038116811461187257600080fd5b801515811461187257600080fdfea2646970667358221220904197395e8f74b81bf1a32a0b8a2e508cc625fdbd06dd65a01d9d5139524b9364736f6c63430008070033",
  "immutableReferences": {},
  "source": "// SPDX-License-Identifier: GPL-3.0\r\n\r\npragma solidity >=0.8.0 <0.9.0;\r\n\r\n/**\r\n * @title Storage\r\n * @dev Store & retrieve value in a variable\r\n */\r\n\r\nimport \"../Interfaces/ITreasury.sol\";\r\nimport \"../Libraries/UintLibrary.sol\";\r\nimport \"../Libraries/Library.sol\";\r\nimport \"../Base/TokenGovernanceBaseContract.sol\";\r\nimport \"@openzeppelin/contracts-upgradeable/token/ERC20/IERC20Upgradeable.sol\";\r\n\r\n\r\ncontract Treasury is ITreasury, TokenGovernanceBaseContract{\r\n    using Library for *;\r\n    using UintLibrary for *;\r\n\r\n    // EVENTS /////////////////////////////////////////\r\n    event _NewPrices(uint, uint, uint, uint, uint);\r\n    event _Pay(address indexed, uint, uint);\r\n    event _Refund(address indexed, uint, uint);\r\n    event _AssignDividend(address indexed, uint, uint);\r\n    event _Withdraw(address indexed, uint);\r\n\r\n    // DATA /////////////////////////////////////////\r\n    // proposition to change prices\r\n    struct ProposedPricesStruct{\r\n        uint NewPublicPriceWei;\r\n        uint NewCertificatePriceWei;\r\n        uint NewPrivatePriceWei;\r\n        uint NewProviderPriceWei;\r\n        uint NewOwnerRefundPriceWei;\r\n    }\r\n\r\n    ProposedPricesStruct private _ProposedPrices;\r\n\r\n    // parameters\r\n    uint private _PublicPriceWei;\r\n    uint private _CertificatePriceWei;\r\n    uint private _PrivatePriceWei;\r\n    uint private _ProviderPriceWei;\r\n    uint private _OwnerRefundPriceWei;\r\n\r\n    // last amount at which dividends where assigned for each token owner\r\n    uint private _AggregatedDividendAmount;\r\n    mapping(address => uint) _lastAssigned;\r\n\r\n    // dividends per token owner\r\n    struct _BalanceStruct{\r\n        mapping(uint => uint) _balance;\r\n        uint[] _factors;\r\n    }\r\n    \r\n    mapping(address => _BalanceStruct) private _balances;\r\n\r\n    // MODIFIERS /////////////////////////////////////////\r\n    modifier areFundsEnough(Library.Prices price){\r\n        uint256 minPrice = 2**256 - 1;\r\n\r\n        if(Library.Prices.NewProvider == price) minPrice = _PublicPriceWei;\r\n        else if(Library.Prices.NewPool == price) minPrice = _PrivatePriceWei;\r\n        else if(Library.Prices.NewCertificate == price) minPrice = _CertificatePriceWei;\r\n        else minPrice = _ProviderPriceWei;\r\n\r\n        require(msg.value >= minPrice, \"EC2\");\r\n        _;\r\n    }\r\n\r\n    modifier isBalanceEnough(uint amount){\r\n        require(checkBalance(msg.sender) >= amount, \"EC20\");\r\n        _;\r\n    }\r\n\r\n    modifier isFromPublicPool(){\r\n        require(true == Library.ItIsSomeone(_managerContract.retrievePublicCertificatePoolProxy()), \"EC8\");\r\n        _;\r\n    }\r\n\r\n    modifier isPriceOK(uint256 PublicPriceWei, uint256 OwnerRefundPriceWei){\r\n        require(PublicPriceWei >= OwnerRefundPriceWei, \"EC21\");\r\n        _;\r\n    }\r\n    \r\n    // CONSTRUCTOR /////////////////////////////////////////\r\n    function Treasury_init(uint256 PublicPriceWei, uint256 PrivatePriceWei, uint256 ProviderPriceWei, uint256 CertificatePriceWei, uint256 OwnerRefundPriceWei, address managerContractAddress, uint256 PropositionLifeTime, uint8 PropositionThresholdPercentage, uint8 minWeightToProposePercentage) public initializer \r\n    {\r\n        super.TokenGovernanceContract_init(PropositionLifeTime, PropositionThresholdPercentage, minWeightToProposePercentage, msg.sender, managerContractAddress);\r\n        InternalupdatePrices(PublicPriceWei, PrivatePriceWei, ProviderPriceWei, CertificatePriceWei, OwnerRefundPriceWei, true);\r\n    }\r\n\r\n    // GOVERNANCE /////////////////////////////////////////\r\n    function updatePrices(uint256 PublicPriceWei, uint256 PrivatePriceWei, uint256 ProviderPriceWei, uint256 CertificatePriceWei, uint256 OwnerRefundPriceWei) external override\r\n    {\r\n        InternalupdatePrices(PublicPriceWei, PrivatePriceWei, ProviderPriceWei, CertificatePriceWei, OwnerRefundPriceWei, false);\r\n    }\r\n\r\n    function InternalupdatePrices(uint256 PublicPriceWei, uint256 PrivatePriceWei, uint256 ProviderPriceWei, uint256 CertificatePriceWei, uint256 OwnerRefundPriceWei, bool fromConstructor) internal\r\n        isPriceOK(PublicPriceWei, OwnerRefundPriceWei)\r\n    {\r\n        if(fromConstructor){\r\n            _PublicPriceWei = PublicPriceWei;\r\n            _PrivatePriceWei = PrivatePriceWei;\r\n            _ProviderPriceWei = ProviderPriceWei;\r\n            _CertificatePriceWei = CertificatePriceWei;\r\n            _OwnerRefundPriceWei = OwnerRefundPriceWei;\r\n        }\r\n        else{\r\n            addProposition(block.timestamp + _PropositionLifeTime, _PropositionThresholdPercentage);\r\n            _ProposedPrices.NewPublicPriceWei = PublicPriceWei;\r\n            _ProposedPrices.NewCertificatePriceWei = CertificatePriceWei;\r\n            _ProposedPrices.NewPrivatePriceWei = PrivatePriceWei;\r\n            _ProposedPrices.NewProviderPriceWei = ProviderPriceWei;\r\n            _ProposedPrices.NewOwnerRefundPriceWei = OwnerRefundPriceWei;\r\n        }\r\n        \r\n    }\r\n\r\n    function propositionApproved() internal override\r\n    {\r\n        _PublicPriceWei = _ProposedPrices.NewPublicPriceWei;\r\n        _PrivatePriceWei = _ProposedPrices.NewPrivatePriceWei;\r\n        _ProviderPriceWei = _ProposedPrices.NewProviderPriceWei;\r\n        _CertificatePriceWei = _ProposedPrices.NewCertificatePriceWei;\r\n        _OwnerRefundPriceWei = _ProposedPrices.NewOwnerRefundPriceWei;\r\n        \r\n        removeProposition();\r\n\r\n        emit _NewPrices(_PublicPriceWei, _PrivatePriceWei, _ProviderPriceWei, _CertificatePriceWei, _OwnerRefundPriceWei);\r\n    }\r\n\r\n    function propositionRejected() internal override\r\n    {\r\n        removeProposition();\r\n    }\r\n\r\n    function propositionExpired() internal override\r\n    {\r\n        removeProposition();\r\n    }\r\n\r\n    function removeProposition() internal\r\n    {\r\n         delete(_ProposedPrices);\r\n    }\r\n\r\n    function retrieveProposition() external override view returns(bytes32[] memory)\r\n    {\r\n        bytes32[] memory proposition = new bytes32[](5);\r\n        proposition[0] = UintLibrary.UintToBytes32(_ProposedPrices.NewPublicPriceWei);\r\n        proposition[1] = UintLibrary.UintToBytes32(_ProposedPrices.NewPrivatePriceWei);\r\n        proposition[2] = UintLibrary.UintToBytes32(_ProposedPrices.NewProviderPriceWei);\r\n        proposition[3] = UintLibrary.UintToBytes32(_ProposedPrices.NewCertificatePriceWei);\r\n        proposition[4] = UintLibrary.UintToBytes32(_ProposedPrices.NewOwnerRefundPriceWei);\r\n        return proposition;\r\n    }\r\n\r\n    // FUNCTIONALITY /////////////////////////////////////////\r\n    function pay(Library.Prices price) external \r\n        areFundsEnough(price)\r\n    override payable\r\n    {\r\n        uint256 amount = msg.value;\r\n        if(price == Library.Prices.NewProvider) amount -= _OwnerRefundPriceWei;\r\n        _AggregatedDividendAmount += amount;\r\n\r\n        emit _Pay(msg.sender, msg.value, _AggregatedDividendAmount);\r\n    }\r\n\r\n    function InternalonTokenBalanceChanged(address from, address to, uint256 amount) internal override\r\n    {\r\n        super.InternalonTokenBalanceChanged(from, to, amount);\r\n        if(address(0) != from) InternalAssignDividends(from);\r\n        if(address(0) != to) InternalAssignDividends(to);\r\n    }\r\n\r\n    function AssignDividends() external override\r\n    {\r\n       InternalAssignDividends(msg.sender);\r\n    }\r\n\r\n    function InternalAssignDividends(address recipient) internal\r\n    {\r\n        if(_lastAssigned[recipient] < _AggregatedDividendAmount){\r\n           uint amountToSplit = _AggregatedDividendAmount - _lastAssigned[recipient];\r\n           _lastAssigned[recipient] = _AggregatedDividendAmount;\r\n           addBalance(recipient, amountToSplit * GetTokensBalance(recipient), totalSupply());\r\n           \r\n           emit _AssignDividend(recipient, amountToSplit * GetTokensBalance(recipient), totalSupply());\r\n        }\r\n    }\r\n\r\n    function getRefund(address addr, uint numberOfOwners) external \r\n        isFromPublicPool()\r\n    override\r\n    {\r\n        addBalance(addr, _OwnerRefundPriceWei, numberOfOwners);\r\n\r\n        emit _Refund(addr, _OwnerRefundPriceWei, numberOfOwners);\r\n    }\r\n\r\n    function withdraw(uint amount) external \r\n        isBalanceEnough(amount)\r\n    override\r\n    {\r\n        uint[] memory f = returnFactors(msg.sender);\r\n        uint total = 0;\r\n        uint i = 0;\r\n\r\n        while ((total < amount) && (i < f.length)){\r\n            uint amountForFactor = returnBalanceForFactor(msg.sender, f[i]) / f[i];\r\n            if(amountForFactor > (amount - total)) amountForFactor = amount - total;\r\n            total += amountForFactor;\r\n            substractBalance(msg.sender, amountForFactor * f[i], f[i]);\r\n            i++;\r\n        }\r\n\r\n        require(total == amount, \"UnExpected problem calculating the amount to withdraw\");\r\n\r\n        payable(msg.sender).transfer(total);\r\n\r\n        emit _Withdraw(msg.sender, total);\r\n    }\r\n\r\n    function retrieveBalance(address addr) external override view returns(uint)\r\n    {\r\n        return checkBalance(addr);\r\n    }\r\n\r\n    function retrievePrices() external override view returns(uint, uint, uint, uint, uint)\r\n    {\r\n        return(_PublicPriceWei, _PrivatePriceWei, _ProviderPriceWei, _CertificatePriceWei, _OwnerRefundPriceWei);\r\n    }\r\n\r\n    function checkBalance(address addr) internal view returns(uint){\r\n        uint[] memory f = returnFactors(addr);\r\n        uint total = 0;\r\n\r\n        for(uint i=0; i < f.length; i++){\r\n            total += returnBalanceForFactor(addr, f[i]) / f[i];\r\n        }\r\n\r\n        return total;\r\n    }\r\n\r\n    function returnFactors(address addr) public view returns(uint[] memory){\r\n        return _balances[addr]._factors;\r\n    }\r\n\r\n    function returnBalanceForFactor(address addr, uint factor) public view returns(uint){\r\n        return _balances[addr]._balance[factor];\r\n    }\r\n\r\n    function addBalance(address addr, uint amount, uint factor) private\r\n    {\r\n        if(amount > 0){\r\n             if(0 == _balances[addr]._balance[factor]){\r\n                _balances[addr]._factors.push(factor);\r\n            }\r\n            _balances[addr]._balance[factor] += amount;\r\n        }\r\n    }\r\n\r\n    function substractBalance(address addr, uint amount, uint factor) private\r\n    {\r\n        require(_balances[addr]._balance[factor] >= amount, \"Not enough balance for this factor\");\r\n\r\n        _balances[addr]._balance[factor] -= amount;\r\n\r\n        if(0 == _balances[addr]._balance[factor]){\r\n            _balances[addr]._factors = UintLibrary.UintArrayRemoveResize(UintLibrary.FindUintPosition(factor, _balances[addr]._factors), _balances[addr]._factors);\r\n        }\r\n        \r\n    }\r\n\r\n}",
  "sourcePath": "C:/Users/d-aam/GitHub/Certificates/contracts/DeployedContracts/Treasury.sol",
  "compiler": {
    "name": "solc",
    "version": "0.8.7+commit.e28d00a7.Emscripten.clang"
  },
  "schemaVersion": "3.3.4",
  "updatedAt": "2021-08-13T08:48:22.438Z",
  "devdoc": {
    "kind": "dev",
    "methods": {},
    "version": 1
  },
  "userdoc": {
    "kind": "user",
    "methods": {},
    "version": 1
  }
}