{
  "contractName": "Treasury",
  "abi": [
    {
      "inputs": [
        {
          "internalType": "uint256",
          "name": "PublicPriceWei",
          "type": "uint256"
        },
        {
          "internalType": "uint256",
          "name": "PrivatePriceWei",
          "type": "uint256"
        },
        {
          "internalType": "uint256",
          "name": "OwnerRefundPriceWei",
          "type": "uint256"
        },
        {
          "internalType": "address",
          "name": "PublicPoolAddress",
          "type": "address"
        }
      ],
      "stateMutability": "nonpayable",
      "type": "constructor"
    },
    {
      "inputs": [
        {
          "internalType": "uint256",
          "name": "PublicPriceWei",
          "type": "uint256"
        },
        {
          "internalType": "uint256",
          "name": "PrivatePriceWei",
          "type": "uint256"
        },
        {
          "internalType": "uint256",
          "name": "OwnerRefundPriceWei",
          "type": "uint256"
        },
        {
          "internalType": "address",
          "name": "PublicPoolAddress",
          "type": "address"
        }
      ],
      "name": "updateConfiguration",
      "outputs": [],
      "stateMutability": "nonpayable",
      "type": "function"
    },
    {
      "inputs": [],
      "name": "payForNewProposal",
      "outputs": [],
      "stateMutability": "payable",
      "type": "function"
    },
    {
      "inputs": [],
      "name": "payForNewPool",
      "outputs": [],
      "stateMutability": "payable",
      "type": "function"
    },
    {
      "inputs": [
        {
          "internalType": "address",
          "name": "addr",
          "type": "address"
        },
        {
          "internalType": "uint256",
          "name": "numberOfOwners",
          "type": "uint256"
        }
      ],
      "name": "getRefund",
      "outputs": [],
      "stateMutability": "nonpayable",
      "type": "function"
    },
    {
      "inputs": [
        {
          "internalType": "uint256",
          "name": "amount",
          "type": "uint256"
        }
      ],
      "name": "withdraw",
      "outputs": [],
      "stateMutability": "nonpayable",
      "type": "function"
    },
    {
      "inputs": [
        {
          "internalType": "address",
          "name": "addr",
          "type": "address"
        }
      ],
      "name": "retrieveBalance",
      "outputs": [
        {
          "internalType": "uint256",
          "name": "",
          "type": "uint256"
        }
      ],
      "stateMutability": "view",
      "type": "function"
    },
    {
      "inputs": [
        {
          "internalType": "address",
          "name": "addr",
          "type": "address"
        }
      ],
      "name": "returnFactors",
      "outputs": [
        {
          "internalType": "uint256[]",
          "name": "",
          "type": "uint256[]"
        }
      ],
      "stateMutability": "view",
      "type": "function"
    },
    {
      "inputs": [
        {
          "internalType": "address",
          "name": "addr",
          "type": "address"
        },
        {
          "internalType": "uint256",
          "name": "factor",
          "type": "uint256"
        }
      ],
      "name": "returnBalanceForFactor",
      "outputs": [
        {
          "internalType": "uint256",
          "name": "",
          "type": "uint256"
        }
      ],
      "stateMutability": "view",
      "type": "function"
    }
  ],
  "bytecode": "0x608060405234801561001057600080fd5b50604051610ad4380380610ad48339818101604052608081101561003357600080fd5b50805160208201516040830151606090930151600080546001600160a01b03199081163317909155600293909355600391909155600492909255600180546001600160a01b0390931692909116919091179055610a3f806100956000396000f3fe60806040526004361061006b5760003560e01c80632e1a7d4d14610070578063435358f81461009c5780637a0fb088146100a45780637cc850fd146100e9578063906816d7146100f1578063c56cb5801461013c578063e20f37ad146101bf578063eb1e2a41146101f2575b600080fd5b34801561007c57600080fd5b5061009a6004803603602081101561009357600080fd5b503561022b565b005b61009a61034c565b3480156100b057600080fd5b5061009a600480360360808110156100c757600080fd5b50803590602081013590604081013590606001356001600160a01b031661038d565b61009a61040b565b3480156100fd57600080fd5b5061012a6004803603604081101561011457600080fd5b506001600160a01b038135169060200135610449565b60408051918252519081900360200190f35b34801561014857600080fd5b5061016f6004803603602081101561015f57600080fd5b50356001600160a01b0316610471565b60408051602080825283518183015283519192839290830191858101910280838360005b838110156101ab578181015183820152602001610193565b505050509050019250505060405180910390f35b3480156101cb57600080fd5b5061012a600480360360208110156101e257600080fd5b50356001600160a01b03166104e0565b3480156101fe57600080fd5b5061009a6004803603604081101561021557600080fd5b506001600160a01b0381351690602001356104f1565b80806102363361054b565b1015610286576040805162461bcd60e51b815260206004820152601a602482015279646f6573206e6f74206861766520656e6f756768206d6f6e657960301b604482015290519081900360640190fd5b600061029133610471565b90506000805b848210156103175760008382815181106102ad57fe5b60200260200101516102d2338685815181106102c557fe5b6020026020010151610449565b816102d957fe5b0490508286038111156102eb57508185035b808301925061030e338286858151811061030157fe5b60200260200101516105a7565b50600101610297565b604051339086156108fc029087906000818181858888f19350505050158015610344573d6000803e3d6000fd5b505050505050565b6002548034101561038a576040805162461bcd60e51b815260206004820152600360248201526222a19960e91b604482015290519081900360640190fd5b50565b6000546001600160a01b031633146103db576040805162461bcd60e51b815260206004820152600c60248201526b37b7363c9031b932b0ba37b960a11b604482015290519081900360640190fd5b600293909355600391909155600455600180546001600160a01b0319166001600160a01b03909216919091179055565b6003548034101561038a576040805162461bcd60e51b815260206004820152600360248201526222a19960e91b604482015290519081900360640190fd5b6001600160a01b03919091166000908152600560209081526040808320938352929052205490565b6001600160a01b0381166000908152600560209081526040918290206001018054835181840281018401909452808452606093928301828280156104d457602002820191906000526020600020905b8154815260200190600101908083116104c0575b50505050509050919050565b60006104eb8261054b565b92915050565b6001546001600160a01b0316331461053a5760405162461bcd60e51b81526004018080602001828103825260218152602001806109c76021913960400191505060405180910390fd5b61054782600454836108e0565b5050565b60008061055783610471565b90506000805b825181101561059f5782818151811061057257fe5b602002602001015161058a868584815181106102c557fe5b8161059157fe5b04919091019060010161055d565b509392505050565b6001600160a01b03831660009081526005602090815260408083208484529091529020548211156106095760405162461bcd60e51b81526004018080602001828103825260228152602001806109e86022913960400191505060405180910390fd5b6001600160a01b038316600090815260056020908152604080832084845290915290208054839003908190556108db5773__Library_______________________________6302fbee9e73__Library_______________________________63c5fc6b028460056000896001600160a01b03166001600160a01b031681526020019081526020016000206001016040518363ffffffff1660e01b8152600401808381526020018060200182810382528381815481526020019150805480156106f057602002820191906000526020600020905b8154815260200190600101908083116106dc575b5050935050505060206040518083038186803b15801561070f57600080fd5b505af4158015610723573d6000803e3d6000fd5b505050506040513d602081101561073957600080fd5b50516001600160a01b0386166000908152600560205260409081902081516001600160e01b031960e086901b1681526004810184815260248201938452600190920180546044830181905290939160640190849080156107b857602002820191906000526020600020905b8154815260200190600101908083116107a4575b5050935050505060006040518083038186803b1580156107d757600080fd5b505af41580156107eb573d6000803e3d6000fd5b505050506040513d6000823e601f3d908101601f19168201604052602081101561081457600080fd5b8101908080516040519392919084600160201b82111561083357600080fd5b90830190602082018581111561084857600080fd5b82518660208202830111600160201b8211171561086457600080fd5b82525081516020918201928201910280838360005b83811015610891578181015183820152602001610879565b5050505090500160405250505060056000856001600160a01b03166001600160a01b0316815260200190815260200160002060010190805190602001906108d9929190610966565b505b505050565b6001600160a01b0383166000908152600560209081526040808320848452909152902054610937576001600160a01b0383166000908152600560209081526040822060019081018054918201815583529120018190555b6001600160a01b0390921660009081526005602090815260408083209483529390529190912080549091019055565b8280548282559060005260206000209081019282156109a1579160200282015b828111156109a1578251825591602001919060010190610986565b506109ad9291506109b1565b5090565b5b808211156109ad57600081556001016109b256fe6f6e6c7920696e766f636174696f6e732066726f6d207075626c696320706f6f6c4e6f7420656e6f7567682062616c616e636520666f72207468697320666163746f72a264697066735822122005fcd7968b98fbdb91c94ce3a28ef13e2fcc7d113fb8308c9fbad1efd6f05a8764736f6c63430007060033",
  "immutableReferences": {},
  "source": "// SPDX-License-Identifier: GPL-3.0\r\n\r\npragma solidity >=0.7.0 <0.9.0;\r\n\r\n/**\r\n * @title Storage\r\n * @dev Store & retrieve value in a variable\r\n */\r\n\r\nimport \"./Interfaces/ITreasury.sol\";\r\nimport \"./PublicCertificatesPool.sol\";\r\nimport \"./Libraries/Library.sol\";\r\n\r\n\r\ncontract Treasury is ITreasury{\r\n\r\n    // creator\r\n    address _creator;\r\n\r\n    // modifiers\r\n    modifier areFundsEnough(uint minPrice){\r\n        require(msg.value >= minPrice, \"EC2\");\r\n        _;\r\n    }\r\n\r\n    modifier isBalanceEnough(uint amount){\r\n        require(checkBalance(msg.sender) >= amount, \"does not have enough money\");\r\n        _;\r\n    }\r\n\r\n    modifier isFromPublicPool(){\r\n        require(msg.sender == address(_PublicCertificatesPool), \"only invocations from public pool\");\r\n        _;\r\n    }\r\n\r\n    modifier isFromCreator(){\r\n        require(msg.sender == _creator, \"only creator\");\r\n        _;\r\n    }\r\n\r\n    // constants\r\n    PublicCertificatesPool  _PublicCertificatesPool;\r\n    uint _PublicPriceWei;\r\n    uint _PrivatePriceWei;\r\n    uint _OwnerRefundPriceWei;\r\n\r\n    // data\r\n    struct _BalanceStruct{\r\n        mapping(uint => uint) _balance;\r\n        uint[] _factors;\r\n    }\r\n    \r\n    mapping(address => _BalanceStruct) _balances;\r\n\r\n    constructor(uint256 PublicPriceWei, uint256 PrivatePriceWei, uint256 OwnerRefundPriceWei, address PublicPoolAddress) {\r\n        _creator = msg.sender; \r\n        _PublicPriceWei = PublicPriceWei;\r\n        _PrivatePriceWei = PrivatePriceWei;\r\n        _OwnerRefundPriceWei = OwnerRefundPriceWei;\r\n        _PublicCertificatesPool = PublicCertificatesPool(PublicPoolAddress);\r\n    }\r\n\r\n    function updateConfiguration(uint256 PublicPriceWei, uint256 PrivatePriceWei, uint256 OwnerRefundPriceWei, address PublicPoolAddress) \r\n        isFromCreator()\r\n    external{\r\n        _PublicPriceWei = PublicPriceWei;\r\n        _PrivatePriceWei = PrivatePriceWei;\r\n        _OwnerRefundPriceWei = OwnerRefundPriceWei;\r\n        _PublicCertificatesPool = PublicCertificatesPool(PublicPoolAddress);\r\n    }\r\n\r\n    function payForNewProposal() external \r\n        areFundsEnough(_PublicPriceWei)\r\n    override payable\r\n    {\r\n        // Assign dividends propotionaly (substracting the owners cut)\r\n    }\r\n\r\n    function payForNewPool() external \r\n        areFundsEnough(_PrivatePriceWei)\r\n    override payable\r\n    {\r\n        // Assign dividends propotionaly (substracting the owners cut)\r\n    }\r\n\r\n    function getRefund(address addr, uint numberOfOwners) external \r\n        isFromPublicPool()\r\n    override\r\n    {\r\n        addBalance( addr, _OwnerRefundPriceWei, numberOfOwners);\r\n    }\r\n\r\n    function withdraw(uint amount) external \r\n        isBalanceEnough(amount)\r\n    override\r\n    {\r\n        uint[] memory f = returnFactors(msg.sender);\r\n        uint total = 0;\r\n        uint i = 0;\r\n\r\n        while(total < amount){\r\n            uint amountForFactor = returnBalanceForFactor(msg.sender, f[i]) / f[i];\r\n            if(amountForFactor > (amount - total)) amountForFactor = amount - total;\r\n            total += amountForFactor;\r\n            substractBalance(msg.sender, amountForFactor, f[i]);\r\n            i++;\r\n        }\r\n\r\n        msg.sender.transfer(amount);\r\n    }\r\n\r\n    function retrieveBalance(address addr) external override view returns(uint)\r\n    {\r\n        return checkBalance(addr);\r\n    }\r\n\r\n    function checkBalance(address addr) internal view returns(uint){\r\n        uint[] memory f = returnFactors(addr);\r\n        uint total = 0;\r\n\r\n        for(uint i=0; i < f.length; i++){\r\n            total += returnBalanceForFactor(addr, f[i]) / f[i];\r\n        }\r\n\r\n        return total;\r\n    }\r\n\r\n    function returnFactors(address addr) public view returns(uint[] memory){\r\n        return _balances[addr]._factors;\r\n    }\r\n\r\n    function returnBalanceForFactor(address addr, uint factor) public view returns(uint){\r\n        return _balances[addr]._balance[factor];\r\n    }\r\n\r\n    function addBalance(address addr, uint amount, uint factor) private{\r\n        if(0 == _balances[addr]._balance[factor]){\r\n             _balances[addr]._factors.push(factor);\r\n        }\r\n\r\n       _balances[addr]._balance[factor] += amount;\r\n    }\r\n\r\n    function substractBalance(address addr, uint amount, uint factor) private{\r\n        require(_balances[addr]._balance[factor] >= amount, \"Not enough balance for this factor\");\r\n\r\n        _balances[addr]._balance[factor] -= amount;\r\n\r\n        if(0 == _balances[addr]._balance[factor]){\r\n            _balances[addr]._factors = Library.UintArrayRemoveResize(Library.FindUintPosition(factor, _balances[addr]._factors), _balances[addr]._factors);\r\n        }\r\n        \r\n    }\r\n\r\n}",
  "sourcePath": "C:\\Users\\d-aam\\GitHub\\Certificates\\contracts\\Treasury.sol",
  "compiler": {
    "name": "solc",
    "version": "0.7.6+commit.7338295f.Emscripten.clang"
  },
  "schemaVersion": "3.3.4",
  "updatedAt": "2021-07-16T06:18:37.058Z",
  "devdoc": {
    "kind": "dev",
    "methods": {},
    "version": 1
  },
  "userdoc": {
    "kind": "user",
    "methods": {},
    "version": 1
  }
}