{
  "contractName": "Treasury",
  "abi": [
    {
      "inputs": [
        {
          "internalType": "uint256",
          "name": "PublicPriceWei",
          "type": "uint256"
        },
        {
          "internalType": "uint256",
          "name": "PrivatePriceWei",
          "type": "uint256"
        },
        {
          "internalType": "uint256",
          "name": "CertificatePriceWei",
          "type": "uint256"
        },
        {
          "internalType": "uint256",
          "name": "OwnerRefundPriceWei",
          "type": "uint256"
        },
        {
          "internalType": "address",
          "name": "managerContractAddress",
          "type": "address"
        },
        {
          "internalType": "uint256",
          "name": "PropositionLifeTime",
          "type": "uint256"
        },
        {
          "internalType": "uint8",
          "name": "PropositionThresholdPercentage",
          "type": "uint8"
        },
        {
          "internalType": "uint8",
          "name": "minWeightToProposePercentage",
          "type": "uint8"
        }
      ],
      "stateMutability": "nonpayable",
      "type": "constructor"
    },
    {
      "inputs": [],
      "name": "retrievePropConfig",
      "outputs": [
        {
          "internalType": "uint256",
          "name": "",
          "type": "uint256"
        },
        {
          "internalType": "uint8",
          "name": "",
          "type": "uint8"
        },
        {
          "internalType": "uint8",
          "name": "",
          "type": "uint8"
        }
      ],
      "stateMutability": "view",
      "type": "function"
    },
    {
      "inputs": [],
      "name": "retrievePropositionStatus",
      "outputs": [
        {
          "internalType": "address",
          "name": "",
          "type": "address"
        },
        {
          "internalType": "uint256",
          "name": "",
          "type": "uint256"
        },
        {
          "internalType": "uint256",
          "name": "",
          "type": "uint256"
        },
        {
          "internalType": "uint256",
          "name": "",
          "type": "uint256"
        },
        {
          "internalType": "uint256",
          "name": "",
          "type": "uint256"
        },
        {
          "internalType": "address[]",
          "name": "",
          "type": "address[]"
        },
        {
          "internalType": "uint256[]",
          "name": "",
          "type": "uint256[]"
        },
        {
          "internalType": "address[]",
          "name": "",
          "type": "address[]"
        }
      ],
      "stateMutability": "view",
      "type": "function"
    },
    {
      "inputs": [
        {
          "internalType": "uint256",
          "name": "PropLifeTime",
          "type": "uint256"
        },
        {
          "internalType": "uint8",
          "name": "PropThresholdPerc",
          "type": "uint8"
        },
        {
          "internalType": "uint8",
          "name": "minWeightToPropPerc",
          "type": "uint8"
        }
      ],
      "name": "updateProp",
      "outputs": [],
      "stateMutability": "nonpayable",
      "type": "function"
    },
    {
      "inputs": [
        {
          "internalType": "bool",
          "name": "vote",
          "type": "bool"
        }
      ],
      "name": "voteProposition",
      "outputs": [],
      "stateMutability": "nonpayable",
      "type": "function"
    },
    {
      "inputs": [
        {
          "internalType": "uint256",
          "name": "PublicPriceWei",
          "type": "uint256"
        },
        {
          "internalType": "uint256",
          "name": "PrivatePriceWei",
          "type": "uint256"
        },
        {
          "internalType": "uint256",
          "name": "CertificatePriceWei",
          "type": "uint256"
        },
        {
          "internalType": "uint256",
          "name": "OwnerRefundPriceWei",
          "type": "uint256"
        }
      ],
      "name": "updatePrices",
      "outputs": [],
      "stateMutability": "nonpayable",
      "type": "function"
    },
    {
      "inputs": [
        {
          "internalType": "address",
          "name": "PublicPoolAddress",
          "type": "address"
        },
        {
          "internalType": "address",
          "name": "CertisTokenAddress",
          "type": "address"
        }
      ],
      "name": "updateContracts",
      "outputs": [],
      "stateMutability": "nonpayable",
      "type": "function"
    },
    {
      "inputs": [
        {
          "internalType": "enum Library.Prices",
          "name": "price",
          "type": "uint8"
        }
      ],
      "name": "pay",
      "outputs": [],
      "stateMutability": "payable",
      "type": "function"
    },
    {
      "inputs": [
        {
          "internalType": "address",
          "name": "addr",
          "type": "address"
        },
        {
          "internalType": "uint256",
          "name": "numberOfOwners",
          "type": "uint256"
        }
      ],
      "name": "getRefund",
      "outputs": [],
      "stateMutability": "nonpayable",
      "type": "function"
    },
    {
      "inputs": [
        {
          "internalType": "uint256",
          "name": "amount",
          "type": "uint256"
        }
      ],
      "name": "withdraw",
      "outputs": [],
      "stateMutability": "nonpayable",
      "type": "function"
    },
    {
      "inputs": [
        {
          "internalType": "address",
          "name": "addr",
          "type": "address"
        }
      ],
      "name": "retrieveBalance",
      "outputs": [
        {
          "internalType": "uint256",
          "name": "",
          "type": "uint256"
        }
      ],
      "stateMutability": "view",
      "type": "function"
    },
    {
      "inputs": [],
      "name": "retrievePrices",
      "outputs": [
        {
          "internalType": "uint256",
          "name": "",
          "type": "uint256"
        },
        {
          "internalType": "uint256",
          "name": "",
          "type": "uint256"
        },
        {
          "internalType": "uint256",
          "name": "",
          "type": "uint256"
        },
        {
          "internalType": "uint256",
          "name": "",
          "type": "uint256"
        }
      ],
      "stateMutability": "view",
      "type": "function"
    },
    {
      "inputs": [
        {
          "internalType": "address",
          "name": "addr",
          "type": "address"
        }
      ],
      "name": "returnFactors",
      "outputs": [
        {
          "internalType": "uint256[]",
          "name": "",
          "type": "uint256[]"
        }
      ],
      "stateMutability": "view",
      "type": "function"
    },
    {
      "inputs": [
        {
          "internalType": "address",
          "name": "addr",
          "type": "address"
        },
        {
          "internalType": "uint256",
          "name": "factor",
          "type": "uint256"
        }
      ],
      "name": "returnBalanceForFactor",
      "outputs": [
        {
          "internalType": "uint256",
          "name": "",
          "type": "uint256"
        }
      ],
      "stateMutability": "view",
      "type": "function"
    }
  ],
  "bytecode": "0x60806040523480156200001157600080fd5b506040516200300138038062003001833981016040819052620000349162000f30565b600080546001600160a01b0319163317905583838383620000598383836001620000a1565b5050600e80546001600160a01b0390931661010002610100600160a81b03199093169290921790915550620000938888888860016200017d565b5050505050505050620010e2565b82828160ff1660641015620000d35760405162461bcd60e51b8152600401620000ca9062000fab565b60405180910390fd5b8060ff1660641015620000fa5760405162461bcd60e51b8152600401620000ca9062000fab565b82156200012757600a869055600b805460ff8681166101000261ffff199092169088161717905562000175565b62000147600a54426200013b919062001022565b600b5460ff16620001f5565b600c869055600d805460ff8681166101000261ffff1990921690881617179055600e805460ff191660011790555b505050505050565b848280821015620001a25760405162461bcd60e51b8152600401620000ca9062000fab565b8215620001c3576014879055601686905560158590556017849055620001ec565b620001d7600a54426200013b919062001022565b600f8790556010859055601186905560128490555b50505050505050565b600062000201620003f8565b15620002395760405162461bcd60e51b8152600401620000ca906020808252600490820152631150cc8d60e21b604082015260600190565b620002443362000438565b1515600114620002805760405162461bcd60e51b8152600401620000ca9060208082526004908201526322a1991960e11b604082015260600190565b6200028a620004f8565b8051620002a09160079160209091019062000cb9565b506007546200030d5760405162461bcd60e51b815260206004820152603260248201527f496d706f737369626c6520746f206164642070726f706f736974696f6e2c20746044820152716865726520617265206e6f2061646d696e7360701b6064820152608401620000ca565b600280546001600160a01b031916331790556003839055606460ff83166200033462000591565b62000340919062001060565b6200034c91906200103d565b6004556200035962000617565b80516200036f9160089160209091019062000d23565b50620003dc336002600501805480602002602001604051908101604052809291908181526020018280548015620003d057602002820191906000526020600020905b81546001600160a01b03168152600190910190602001808311620003b1575b5050620006b092505050565b151560011415620003f357620003f36001620006cb565b505050565b6003546000904210156200040c5750600190565b6002546001600160a01b03161562000432576200042862000998565b62000432620009b4565b50600090565b600080546001600160a01b03163314156200045557506001919050565b600062000461620004f8565b905060006200046f62000617565b905060006200047f858462000a07565b90508251811015620004e85760646200049762000591565b600b54620004ae9190610100900460ff1662001060565b620004ba91906200103d565b828281518110620004cf57620004cf620010b6565b602002602001015110620004e857506001949350505050565b506000949350505050565b919050565b60606000600160009054906101000a90046001600160a01b03166001600160a01b03166388d44ee06040518163ffffffff1660e01b815260040160006040518083038186803b1580156200054b57600080fd5b505afa15801562000560573d6000803e3d6000fd5b505050506040513d6000823e601f3d908101601f191682016040526200058a919081019062000e3f565b5092915050565b600154604080516318160ddd60e01b815290516000926001600160a01b0316916318160ddd916004808301926020929190829003018186803b158015620005d757600080fd5b505afa158015620005ec573d6000803e3d6000fd5b505050506040513d601f19601f8201168201806040525081019062000612919062000f16565b905090565b60606000600160009054906101000a90046001600160a01b03166001600160a01b03166388d44ee06040518163ffffffff1660e01b815260040160006040518083038186803b1580156200066a57600080fd5b505afa1580156200067f573d6000803e3d6000fd5b505050506040513d6000823e601f3d908101601f19168201604052620006a9919081019062000e3f565b9392505050565b8051600090620006c1848462000a07565b1090505b92915050565b6001620006d7620003f8565b1515600114620007135760405162461bcd60e51b8152600401620000ca906020808252600490820152634543323560e01b604082015260600190565b6200077d336002600501805480602002602001604051908101604052809291908181526020018280548015620003d0576020028201919060005260206000209081546001600160a01b03168152600190910190602001808311620003b1575050620006b092505050565b1515600114620007b95760405162461bcd60e51b8152600401620000ca906020808252600490820152634543323360e01b604082015260600190565b6200082f3360026007018054806020026020016040519081016040528092919081815260200182805480156200081957602002820191906000526020600020905b81546001600160a01b03168152600190910190602001808311620007fa575b505050505062000a2060201b62000ac41760201c565b15620008645760405162461bcd60e51b815260206004820152600360248201526245433560e81b6044820152606401620000ca565b6003544210156200096857600980546001810182556000919091527f6e1540171b6c0c960b71a7020d9f60077f6af931a8bbf590da0223dacf75c7af0180546001600160a01b0319163317905581156200090f576008620008cf33620008c9620004f8565b62000a07565b81548110620008e257620008e2620010b6565b90600052602060002001546002600301600082825462000903919062001022565b909155506200095a9050565b60086200092033620008c9620004f8565b81548110620009335762000933620010b6565b90600052602060002001546002600401600082825462000954919062001022565b90915550505b6200096462000a8f565b5050565b600e5460ff161562000984576200097e62000b27565b6200098e565b6200098e62000998565b62000964620009b4565b620009b26000600f81905560108190556011819055601255565b565b600280546001600160a01b031916815560006003819055600481905560058190556006819055620009e760078262000d61565b620009f760068301600062000d61565b6200096460078301600062000d61565b6000620006a9838362000b4360201b62000b2a1760201c565b6000805b825181101562000a855782818151811062000a435762000a43620010b6565b60200260200101516001600160a01b0316846001600160a01b0316141562000a70576001915050620006c5565b8062000a7c8162001082565b91505062000a24565b5060009392505050565b600454600554111562000afa57600e5460ff161562000ae657600c54600a55600d54600b805461010080840460ff90811690910261ffff1990921693169290921791909117905562000ae062000b27565b62000af0565b62000af062000b6f565b620009b2620009b4565b6004546006541115620009b257600e5460ff161562000b1d5762000ae062000b27565b62000af062000998565b6000600c55600d805461ffff19169055600e805460ff19169055565b6000620006a96001600160a01b03841662000b5e8462000ba1565b62000c5960201b62000b4e1760201c565b600f54601455601154601655601054601555601254601755620009b26000600f81905560108190556011819055601255565b6060600082516001600160401b0381111562000bc15762000bc1620010cc565b60405190808252806020026020018201604052801562000beb578160200160208202803683370190505b50905060005b81518110156200058a5783818151811062000c105762000c10620010b6565b60200260200101516001600160a01b031660001b82828151811062000c395762000c39620010b6565b60209081029190910101528062000c508162001082565b91505062000bf1565b6000805b825181101562000ca95782818151811062000c7c5762000c7c620010b6565b602002602001015184141562000c94579050620006c5565b8062000ca08162001082565b91505062000c5d565b508151620006a990600162001022565b82805482825590600052602060002090810192821562000d11579160200282015b8281111562000d1157825182546001600160a01b0319166001600160a01b0390911617825560209092019160019091019062000cda565b5062000d1f92915062000d84565b5090565b82805482825590600052602060002090810192821562000d11579160200282015b8281111562000d1157825182559160200191906001019062000d44565b508054600082559060005260206000209081019062000d81919062000d84565b50565b5b8082111562000d1f576000815560010162000d85565b80516001600160a01b0381168114620004f357600080fd5b600082601f83011262000dc557600080fd5b8151602062000dde62000dd88362000ffc565b62000fc9565b80838252828201915082860187848660051b890101111562000dff57600080fd5b60005b8581101562000e205781518452928401929084019060010162000e02565b5090979650505050505050565b805160ff81168114620004f357600080fd5b6000806040838503121562000e5357600080fd5b82516001600160401b038082111562000e6b57600080fd5b818501915085601f83011262000e8057600080fd5b8151602062000e9362000dd88362000ffc565b8083825282820191508286018a848660051b890101111562000eb457600080fd5b600096505b8487101562000ee25762000ecd8162000d9b565b83526001969096019591830191830162000eb9565b509188015191965090935050508082111562000efd57600080fd5b5062000f0c8582860162000db3565b9150509250929050565b60006020828403121562000f2957600080fd5b5051919050565b600080600080600080600080610100898b03121562000f4e57600080fd5b8851975060208901519650604089015195506060890151945062000f7560808a0162000d9b565b935060a0890151925062000f8c60c08a0162000e2d565b915062000f9c60e08a0162000e2d565b90509295985092959890939650565b6020808252600490820152634543323160e01b604082015260600190565b604051601f8201601f191681016001600160401b038111828210171562000ff45762000ff4620010cc565b604052919050565b60006001600160401b03821115620010185762001018620010cc565b5060051b60200190565b60008219821115620010385762001038620010a0565b500190565b6000826200105b57634e487b7160e01b600052601260045260246000fd5b500490565b60008160001904831182151516156200107d576200107d620010a0565b500290565b6000600019821415620010995762001099620010a0565b5060010190565b634e487b7160e01b600052601160045260246000fd5b634e487b7160e01b600052603260045260246000fd5b634e487b7160e01b600052604160045260246000fd5b611f0f80620010f26000396000f3fe6080604052600436106100a25760003560e01c806325b4f3ca146100a75780632e1a7d4d146100e557806351f69d0614610107578063840f6d1714610127578063906816d71461015057806391f916711461017e578063ac2bb4421461019e578063c56cb580146101be578063d660ab34146101eb578063e20f37ad14610224578063e692c49f14610244578063eb1e2a4114610264578063f0c9325e14610284575b600080fd5b3480156100b357600080fd5b506014546016546015546017546040805194855260208501939093529183015260608201526080015b60405180910390f35b3480156100f157600080fd5b50610105610100366004611b75565b610297565b005b34801561011357600080fd5b50610105610122366004611ba7565b610479565b34801561013357600080fd5b5061013c61048d565b6040516100dc989796959493929190611c89565b34801561015c57600080fd5b5061017061016b3660046119ff565b6105fd565b6040519081526020016100dc565b34801561018a57600080fd5b50610105610199366004611b32565b610628565b3480156101aa57600080fd5b506101056101b9366004611bd9565b6108bd565b3480156101ca57600080fd5b506101de6101d93660046119a9565b6108cf565b6040516100dc9190611cfa565b3480156101f757600080fd5b50600a54600b546040805192835260ff8083166020850152610100909204909116908201526060016100dc565b34801561023057600080fd5b5061017061023f3660046119a9565b61093e565b34801561025057600080fd5b5061010561025f3660046119c6565b610949565b34801561027057600080fd5b5061010561027f3660046119ff565b6109b2565b610105610292366004611b54565b6109f5565b80806102a233610ba3565b10156102e25760405162461bcd60e51b81526004016102d9906020808252600490820152630454332360e41b604082015260600190565b60405180910390fd5b60006102ed336108cf565b90506000805b84821080156103025750825181105b156103d757600083828151811061031b5761031b611e98565b60200260200101516103463386858151811061033957610339611e98565b60200260200101516105fd565b6103509190611df9565b905061035c8387611e3a565b8111156103705761036d8387611e3a565b90505b61037a8184611de1565b92506103c43385848151811061039257610392611e98565b6020026020010151836103a59190611e1b565b8685815181106103b7576103b7611e98565b6020026020010151610c1e565b816103ce81611e51565b925050506102f3565b8482146104445760405162461bcd60e51b815260206004820152603560248201527f556e45787065637465642070726f626c656d2063616c63756c6174696e672074604482015274686520616d6f756e7420746f20776974686472617760581b60648201526084016102d9565b604051339083156108fc029084906000818181858888f19350505050158015610471573d6000803e3d6000fd5b505050505050565b610487848484846000610e6d565b50505050565b60008060008060006060806060600260000160009054906101000a90046001600160a01b031660026001015460028001546002600301546002600401546002600501600260060160026007018280548060200260200160405190810160405280929190818152602001828054801561052e57602002820191906000526020600020905b81546001600160a01b03168152600190910190602001808311610510575b505050505092508180548060200260200160405190810160405280929190818152602001828054801561058057602002820191906000526020600020905b81548152602001906001019080831161056c575b50505050509150808054806020026020016040519081016040528092919081815260200182805480156105dc57602002820191906000526020600020905b81546001600160a01b031681526001909101906020018083116105be575b50505050509050975097509750975097509750975097509091929394959697565b6001600160a01b03821660009081526018602090815260408083208484529091529020545b92915050565b6001610632610ee8565b151560011461066c5760405162461bcd60e51b81526004016102d9906020808252600490820152634543323560e01b604082015260600190565b6106d33360026005018054806020026020016040519081016040528092919081815260200182805480156106c957602002820191906000526020600020905b81546001600160a01b031681526001909101906020018083116106ab575b5050505050610f22565b151560011461070d5760405162461bcd60e51b81526004016102d9906020808252600490820152634543323360e01b604082015260600190565b61077433600260070180548060200260200160405190810160405280929190818152602001828054801561076a57602002820191906000526020600020905b81546001600160a01b0316815260019091019060200180831161074c575b5050505050610ac4565b156107a75760405162461bcd60e51b815260206004820152600360248201526245433560e81b60448201526064016102d9565b60035442101561089557600980546001810182556000919091527f6e1540171b6c0c960b71a7020d9f60077f6af931a8bbf590da0223dacf75c7af0180546001600160a01b03191633179055811561084657600861080c33610807610f38565b610fcd565b8154811061081c5761081c611e98565b90600052602060002001546002600301600082825461083b9190611de1565b909155506108899050565b600861085433610807610f38565b8154811061086457610864611e98565b9060005260206000200154600260040160008282546108839190611de1565b90915550505b610891610fd9565b5050565b600e5460ff16156108ad576108a8611090565b6108b5565b6108b56110ac565b6108916110c5565b6108ca8383836000611112565b505050565b6001600160a01b03811660009081526018602090815260409182902060010180548351818402810184019094528084526060939283018282801561093257602002820191906000526020600020905b81548152602001906001019080831161091e575b50505050509050919050565b600061062282610ba3565b600e546109639061010090046001600160a01b03166111cd565b15156001146109845760405162461bcd60e51b81526004016102d990611d2b565b601380546001600160a01b039384166001600160a01b03199182161790915560018054929093169116179055565b6013546109c7906001600160a01b03166111cd565b15156001146109e85760405162461bcd60e51b81526004016102d990611d2b565b61089182601754836111f0565b80600019816002811115610a0b57610a0b611e82565b610a185750601454610a5a565b816002811115610a2a57610a2a611e82565b60011415610a3b5750601654610a5a565b816002811115610a4d57610a4d611e82565b60021415610a5a57506015545b80341015610a905760405162461bcd60e51b815260206004820152600360248201526222a19960e91b60448201526064016102d9565b346000846002811115610aa557610aa5611e82565b1415610abb57601754610ab89082611e3a565b90505b61048781611284565b6000805b8251811015610b2057828181518110610ae357610ae3611e98565b60200260200101516001600160a01b0316846001600160a01b03161415610b0e576001915050610622565b80610b1881611e51565b915050610ac8565b5060009392505050565b6000610b476001600160a01b038416610b428461140c565b610b4e565b9392505050565b6000805b8251811015610b9557828181518110610b6d57610b6d611e98565b6020026020010151841415610b83579050610622565b80610b8d81611e51565b915050610b52565b508151610b47906001611de1565b600080610baf836108cf565b90506000805b8251811015610c1657828181518110610bd057610bd0611e98565b6020026020010151610bee8685848151811061033957610339611e98565b610bf89190611df9565b610c029083611de1565b915080610c0e81611e51565b915050610bb5565b509392505050565b6001600160a01b0383166000908152601860209081526040808320848452909152902054821115610c9c5760405162461bcd60e51b815260206004820152602260248201527f4e6f7420656e6f7567682062616c616e636520666f722074686973206661637460448201526137b960f11b60648201526084016102d9565b6001600160a01b038316600090815260186020908152604080832084845290915281208054849290610ccf908490611e3a565b90915550506001600160a01b03831660009081526018602090815260408083208484529091529020546108ca576001600160a01b0383166000908152601860205260409081902090516362fe358160e11b815273__UintLibrary___________________________916302fbee9e91839163c5fc6b0291610d5a918791600190910190600401611d48565b60206040518083038186803b158015610d7257600080fd5b505af4158015610d86573d6000803e3d6000fd5b505050506040513d601f19601f82011682018060405250810190610daa9190611b8e565b6001600160a01b0386166000908152601860205260409081902090516001600160e01b031960e085901b168152610de8929160010190600401611d48565b60006040518083038186803b158015610e0057600080fd5b505af4158015610e14573d6000803e3d6000fd5b505050506040513d6000823e601f3d908101601f19168201604052610e3c9190810190611af6565b6001600160a01b03841660009081526018602090815260409091208251610487936001909201929190910190611850565b848280821015610e8f5760405162461bcd60e51b81526004016102d990611d0d565b8215610eae576014879055601686905560158590556017849055610edf565b610eca600a5442610ebf9190611de1565b600b5460ff166114b6565b600f8790556010859055601186905560128490555b50505050505050565b600354600090421015610efb5750600190565b6002546001600160a01b031615610f1c57610f146110ac565b610f1c6110c5565b50600090565b60008151610f308484610fcd565b109392505050565b60606000600160009054906101000a90046001600160a01b03166001600160a01b03166388d44ee06040518163ffffffff1660e01b815260040160006040518083038186803b158015610f8a57600080fd5b505afa158015610f9e573d6000803e3d6000fd5b505050506040513d6000823e601f3d908101601f19168201604052610fc69190810190611a2b565b5092915050565b6000610b478383610b2a565b600454600554111561106957600e5460ff161561102b57600c54600a55600d54600b805461010080840460ff90811690910261ffff19909216931692909217919091179055611026611090565b61105f565b61105f600f546014556011546016556010546015556012546017556110676000600f81905560108190556011819055601255565b6110676110c5565b565b600454600654111561106757600e5460ff161561108857611026611090565b61105f6110ac565b6000600c55600d805461ffff19169055600e805460ff19169055565b6110676000600f81905560108190556011819055601255565b600280546001600160a01b0319168155600060038190556004819055600581905560068190556110f660078261189b565b61110460068301600061189b565b61089160078301600061189b565b82828160ff16606410156111385760405162461bcd60e51b81526004016102d990611d0d565b8060ff166064101561115c5760405162461bcd60e51b81526004016102d990611d0d565b821561118757600a869055600b805460ff8681166101000261ffff1990921690881617179055610471565b611198600a5442610ebf9190611de1565b600c869055600d805460ff8681166101000261ffff1990921690881617179055600e805460ff19166001179055505050505050565b6000336001600160a01b03831614156111e857506001919050565b506000919050565b6001600160a01b0383166000908152601860209081526040808320848452909152902054611247576001600160a01b0383166000908152601860209081526040822060019081018054918201815583529120018190555b6001600160a01b03831660009081526018602090815260408083208484529091528120805484929061127a908490611de1565b9091555050505050565b600080600160009054906101000a90046001600160a01b03166001600160a01b03166388d44ee06040518163ffffffff1660e01b815260040160006040518083038186803b1580156112d557600080fd5b505afa1580156112e9573d6000803e3d6000fd5b505050506040513d6000823e601f3d908101601f191682016040526113119190810190611a2b565b915091506000600160009054906101000a90046001600160a01b03166001600160a01b03166318160ddd6040518163ffffffff1660e01b815260040160206040518083038186803b15801561136557600080fd5b505afa158015611379573d6000803e3d6000fd5b505050506040513d601f19601f8201168201806040525081019061139d9190611b8e565b905060005b8351811015611405576113f38482815181106113c0576113c0611e98565b6020026020010151868584815181106113db576113db611e98565b60200260200101516113ed9190611e1b565b846111f0565b806113fd81611e51565b9150506113a2565b5050505050565b6060600082516001600160401b0381111561142957611429611eae565b604051908082528060200260200182016040528015611452578160200160208202803683370190505b50905060005b8151811015610fc65783818151811061147357611473611e98565b60200260200101516001600160a01b031660001b82828151811061149957611499611e98565b6020908102919091010152806114ae81611e51565b915050611458565b60006114c0610ee8565b156114f65760405162461bcd60e51b81526004016102d9906020808252600490820152631150cc8d60e21b604082015260600190565b6114ff33611692565b15156001146115395760405162461bcd60e51b81526004016102d99060208082526004908201526322a1991960e11b604082015260600190565b611541610f38565b8051611555916007916020909101906118bc565b506007546115c05760405162461bcd60e51b815260206004820152603260248201527f496d706f737369626c6520746f206164642070726f706f736974696f6e2c20746044820152716865726520617265206e6f2061646d696e7360701b60648201526084016102d9565b600280546001600160a01b031916331790556003839055606460ff83166115e5611740565b6115ef9190611e1b565b6115f99190611df9565b6004556116046117c2565b805161161891600891602090910190611850565b5061167e3360026005018054806020026020016040519081016040528092919081815260200182805480156106c9576020028201919060005260206000209081546001600160a01b031681526001909101906020018083116106ab575050505050610f22565b1515600114156108ca576108ca6001610628565b600080546001600160a01b03163314156116ae57506001919050565b60006116b8610f38565b905060006116c46117c2565b905060006116d28584610fcd565b905082518110156117305760646116e7611740565b600b546116fc9190610100900460ff16611e1b565b6117069190611df9565b82828151811061171857611718611e98565b60200260200101511061173057506001949350505050565b506000949350505050565b919050565b600154604080516318160ddd60e01b815290516000926001600160a01b0316916318160ddd916004808301926020929190829003018186803b15801561178557600080fd5b505afa158015611799573d6000803e3d6000fd5b505050506040513d601f19601f820116820180604052508101906117bd9190611b8e565b905090565b60606000600160009054906101000a90046001600160a01b03166001600160a01b03166388d44ee06040518163ffffffff1660e01b815260040160006040518083038186803b15801561181457600080fd5b505afa158015611828573d6000803e3d6000fd5b505050506040513d6000823e601f3d908101601f19168201604052610b479190810190611a2b565b82805482825590600052602060002090810192821561188b579160200282015b8281111561188b578251825591602001919060010190611870565b50611897929150611911565b5090565b50805460008255906000526020600020908101906118b99190611911565b50565b82805482825590600052602060002090810192821561188b579160200282015b8281111561188b57825182546001600160a01b0319166001600160a01b039091161782556020909201916001909101906118dc565b5b808211156118975760008155600101611912565b600082601f83011261193757600080fd5b8151602061194c61194783611dbe565b611d8e565b80838252828201915082860187848660051b890101111561196c57600080fd5b60005b8581101561198b5781518452928401929084019060010161196f565b5090979650505050505050565b803560ff8116811461173b57600080fd5b6000602082840312156119bb57600080fd5b8135610b4781611ec4565b600080604083850312156119d957600080fd5b82356119e481611ec4565b915060208301356119f481611ec4565b809150509250929050565b60008060408385031215611a1257600080fd5b8235611a1d81611ec4565b946020939093013593505050565b60008060408385031215611a3e57600080fd5b82516001600160401b0380821115611a5557600080fd5b818501915085601f830112611a6957600080fd5b81516020611a7961194783611dbe565b8083825282820191508286018a848660051b8901011115611a9957600080fd5b600096505b84871015611ac5578051611ab181611ec4565b835260019690960195918301918301611a9e565b5091880151919650909350505080821115611adf57600080fd5b50611aec85828601611926565b9150509250929050565b600060208284031215611b0857600080fd5b81516001600160401b03811115611b1e57600080fd5b611b2a84828501611926565b949350505050565b600060208284031215611b4457600080fd5b81358015158114610b4757600080fd5b600060208284031215611b6657600080fd5b813560038110610b4757600080fd5b600060208284031215611b8757600080fd5b5035919050565b600060208284031215611ba057600080fd5b5051919050565b60008060008060808587031215611bbd57600080fd5b5050823594602084013594506040840135936060013592509050565b600080600060608486031215611bee57600080fd5b83359250611bfe60208501611998565b9150611c0c60408501611998565b90509250925092565b600081518084526020808501945080840160005b83811015611c4e5781516001600160a01b031687529582019590820190600101611c29565b509495945050505050565b600081518084526020808501945080840160005b83811015611c4e57815187529582019590820190600101611c6d565b600061010060018060a01b038b1683528960208401528860408401528760608401528660808401528060a0840152611cc381840187611c15565b905082810360c0840152611cd78186611c59565b905082810360e0840152611ceb8185611c15565b9b9a5050505050505050505050565b602081526000610b476020830184611c59565b6020808252600490820152634543323160e01b604082015260600190565b60208082526003908201526208a86760eb1b604082015260600190565b60006040820184835260206040818501528185548084526060860191508660005282600020935060005b8181101561198b57845483526001948501949284019201611d72565b604051601f8201601f191681016001600160401b0381118282101715611db657611db6611eae565b604052919050565b60006001600160401b03821115611dd757611dd7611eae565b5060051b60200190565b60008219821115611df457611df4611e6c565b500190565b600082611e1657634e487b7160e01b600052601260045260246000fd5b500490565b6000816000190483118215151615611e3557611e35611e6c565b500290565b600082821015611e4c57611e4c611e6c565b500390565b6000600019821415611e6557611e65611e6c565b5060010190565b634e487b7160e01b600052601160045260246000fd5b634e487b7160e01b600052602160045260246000fd5b634e487b7160e01b600052603260045260246000fd5b634e487b7160e01b600052604160045260246000fd5b6001600160a01b03811681146118b957600080fdfea264697066735822122087aa63a8fca20d2ab9c9d44dd4fb65f9d3e5bff2c369f981705562ce241501c064736f6c63430008060033",
  "immutableReferences": {},
  "source": "// SPDX-License-Identifier: GPL-3.0\r\n\r\npragma solidity >=0.7.0 <0.9.0;\r\n\r\n/**\r\n * @title Storage\r\n * @dev Store & retrieve value in a variable\r\n */\r\n\r\nimport \"./Interfaces/ITreasury.sol\";\r\nimport \"./PublicCertificatesPool.sol\";\r\nimport \"./Libraries/UintLibrary.sol\";\r\nimport \"./Libraries/Library.sol\";\r\nimport \"./CertisToken.sol\";\r\nimport \"./Base/TokenGovernanceBaseContract.sol\";\r\nimport \"./Base/ManagedBaseContract.sol\";\r\n\r\n\r\ncontract Treasury is ITreasury, TokenGovernanceBaseContract, ManagedBaseContract{\r\n    using Library for *;\r\n    using UintLibrary for *;\r\n\r\n    // modifiers\r\n    modifier areFundsEnough(Library.Prices price){\r\n        uint256 minPrice = 2**256 - 1;\r\n\r\n        if(Library.Prices.NewProvider == price) minPrice = _PublicPriceWei;\r\n        else if(Library.Prices.NewPool == price) minPrice = _PrivatePriceWei;\r\n        else if(Library.Prices.NewCertificate == price) minPrice = _CertificatePriceWei;\r\n\r\n        require(msg.value >= minPrice, \"EC2\");\r\n        _;\r\n    }\r\n\r\n    modifier isBalanceEnough(uint amount){\r\n        require(checkBalance(msg.sender) >= amount, \"EC20\");\r\n        _;\r\n    }\r\n\r\n    modifier isFromPublicPool(){\r\n        require(true == Library.ItIsSomeone(address(_PublicCertificatesPool)), \"EC8\");\r\n        _;\r\n    }\r\n\r\n    modifier isPriceOK(uint256 PublicPriceWei, uint256 OwnerRefundPriceWei){\r\n        require(PublicPriceWei >= OwnerRefundPriceWei, \"EC21\");\r\n        _;\r\n    }\r\n\r\n    // proposition to change\r\n    struct ProposedPricesStruct{\r\n        uint NewPublicPriceWei;\r\n        uint NewCertificatePriceWei;\r\n        uint NewPrivatePriceWei;\r\n        uint NewOwnerRefundPriceWei;\r\n    }\r\n\r\n    ProposedPricesStruct _ProposedPrices;\r\n\r\n    // constants\r\n    PublicCertificatesPool  _PublicCertificatesPool;\r\n    uint _PublicPriceWei;\r\n    uint _CertificatePriceWei;\r\n    uint _PrivatePriceWei;\r\n    uint _OwnerRefundPriceWei;\r\n\r\n    // data\r\n    struct _BalanceStruct{\r\n        mapping(uint => uint) _balance;\r\n        uint[] _factors;\r\n    }\r\n    \r\n    mapping(address => _BalanceStruct) _balances;\r\n\r\n    constructor(uint256 PublicPriceWei, uint256 PrivatePriceWei, uint256 CertificatePriceWei, uint256 OwnerRefundPriceWei, address managerContractAddress, uint256 PropositionLifeTime, uint8 PropositionThresholdPercentage, uint8 minWeightToProposePercentage) \r\n    TokenGovernanceBaseContract(PropositionLifeTime, PropositionThresholdPercentage, minWeightToProposePercentage)\r\n    ManagedBaseContract(managerContractAddress)\r\n    {\r\n        InternalupdatePrices(PublicPriceWei, PrivatePriceWei, CertificatePriceWei, OwnerRefundPriceWei, true);\r\n    }\r\n\r\n\r\n    // governance \r\n    function updatePrices(uint256 PublicPriceWei, uint256 PrivatePriceWei, uint256 CertificatePriceWei, uint256 OwnerRefundPriceWei) external override\r\n    {\r\n        InternalupdatePrices(PublicPriceWei, PrivatePriceWei, CertificatePriceWei, OwnerRefundPriceWei, false);\r\n    }\r\n\r\n    function InternalupdatePrices(uint256 PublicPriceWei, uint256 PrivatePriceWei, uint256 CertificatePriceWei, uint256 OwnerRefundPriceWei, bool fromConstructor) internal\r\n        isPriceOK(PublicPriceWei, OwnerRefundPriceWei)\r\n    {\r\n        if(fromConstructor){\r\n            _PublicPriceWei = PublicPriceWei;\r\n            _PrivatePriceWei = PrivatePriceWei;\r\n            _CertificatePriceWei = CertificatePriceWei;\r\n            _OwnerRefundPriceWei = OwnerRefundPriceWei;\r\n        }\r\n        else{\r\n            addProposition(block.timestamp + _PropositionLifeTime, _PropositionThresholdPercentage);\r\n            _ProposedPrices.NewPublicPriceWei = PublicPriceWei;\r\n            _ProposedPrices.NewCertificatePriceWei = CertificatePriceWei;\r\n            _ProposedPrices.NewPrivatePriceWei = PrivatePriceWei;\r\n            _ProposedPrices.NewOwnerRefundPriceWei = OwnerRefundPriceWei;\r\n        }\r\n        \r\n    }\r\n\r\n    function propositionApproved() internal override\r\n    {\r\n        _PublicPriceWei = _ProposedPrices.NewPublicPriceWei;\r\n        _PrivatePriceWei = _ProposedPrices.NewPrivatePriceWei;\r\n        _CertificatePriceWei = _ProposedPrices.NewCertificatePriceWei;\r\n        _OwnerRefundPriceWei = _ProposedPrices.NewOwnerRefundPriceWei;\r\n        \r\n        removeProposition();\r\n    }\r\n\r\n    function propositionRejected() internal override\r\n    {\r\n        removeProposition();\r\n    }\r\n\r\n    function propositionExpired() internal override\r\n    {\r\n        removeProposition();\r\n    }\r\n\r\n    function removeProposition() internal\r\n    {\r\n         delete(_ProposedPrices);\r\n    }\r\n\r\n    // functionality\r\n    function updateContracts(address PublicPoolAddress, address CertisTokenAddress) external \r\n        isFromManagerContract()\r\n    override\r\n    {\r\n        _PublicCertificatesPool = PublicCertificatesPool(PublicPoolAddress);\r\n        _CertisToken = CertisToken(CertisTokenAddress); \r\n    }\r\n\r\n    function pay(Library.Prices price) external \r\n        areFundsEnough(price)\r\n    override payable\r\n    {\r\n        uint256 amount = msg.value;\r\n        if(price == Library.Prices.NewProvider) amount -= _OwnerRefundPriceWei;\r\n        AssignDividends(amount);\r\n    }\r\n\r\n    function AssignDividends(uint256 amount) internal{\r\n        (address[] memory DividendsRecipients, uint256[] memory DividendsRecipientsTokens) = _CertisToken.TokenOwners();\r\n        uint256 TotalTokenSupply = _CertisToken.totalSupply();\r\n\r\n        for(uint i=0; i < DividendsRecipients.length; i++){\r\n            addBalance(DividendsRecipients[i], DividendsRecipientsTokens[i] * amount, TotalTokenSupply);\r\n        }\r\n\r\n    }\r\n\r\n\r\n    function getRefund(address addr, uint numberOfOwners) external \r\n        isFromPublicPool()\r\n    override\r\n    {\r\n        addBalance(addr, _OwnerRefundPriceWei, numberOfOwners);\r\n    }\r\n\r\n    function withdraw(uint amount) external \r\n        isBalanceEnough(amount)\r\n    override\r\n    {\r\n        uint[] memory f = returnFactors(msg.sender);\r\n        uint total = 0;\r\n        uint i = 0;\r\n\r\n        while ((total < amount) && (i < f.length)){\r\n            uint amountForFactor = returnBalanceForFactor(msg.sender, f[i]) / f[i];\r\n            if(amountForFactor > (amount - total)) amountForFactor = amount - total;\r\n            total += amountForFactor;\r\n            substractBalance(msg.sender, amountForFactor * f[i], f[i]);\r\n            i++;\r\n        }\r\n\r\n        require(total == amount, \"UnExpected problem calculating the amount to withdraw\");\r\n\r\n        payable(msg.sender).transfer(total);\r\n    }\r\n\r\n    function retrieveBalance(address addr) external override view returns(uint)\r\n    {\r\n        return checkBalance(addr);\r\n    }\r\n\r\n    function retrievePrices() external override view returns(uint, uint, uint, uint)\r\n    {\r\n        return(_PublicPriceWei, _PrivatePriceWei, _CertificatePriceWei, _OwnerRefundPriceWei);\r\n    }\r\n\r\n    function checkBalance(address addr) internal view returns(uint){\r\n        uint[] memory f = returnFactors(addr);\r\n        uint total = 0;\r\n\r\n        for(uint i=0; i < f.length; i++){\r\n            total += returnBalanceForFactor(addr, f[i]) / f[i];\r\n        }\r\n\r\n        return total;\r\n    }\r\n\r\n    function returnFactors(address addr) public view returns(uint[] memory){\r\n        return _balances[addr]._factors;\r\n    }\r\n\r\n    function returnBalanceForFactor(address addr, uint factor) public view returns(uint){\r\n        return _balances[addr]._balance[factor];\r\n    }\r\n\r\n    function addBalance(address addr, uint amount, uint factor) private{\r\n        if(0 == _balances[addr]._balance[factor]){\r\n             _balances[addr]._factors.push(factor);\r\n        }\r\n\r\n       _balances[addr]._balance[factor] += amount;\r\n    }\r\n\r\n    function substractBalance(address addr, uint amount, uint factor) private{\r\n        require(_balances[addr]._balance[factor] >= amount, \"Not enough balance for this factor\");\r\n\r\n        _balances[addr]._balance[factor] -= amount;\r\n\r\n        if(0 == _balances[addr]._balance[factor]){\r\n            _balances[addr]._factors = UintLibrary.UintArrayRemoveResize(UintLibrary.FindUintPosition(factor, _balances[addr]._factors), _balances[addr]._factors);\r\n        }\r\n        \r\n    }\r\n\r\n}",
  "sourcePath": "C:\\Users\\d-aam\\GitHub\\Certificates\\contracts\\Treasury.sol",
  "compiler": {
    "name": "solc",
    "version": "0.8.6+commit.11564f7e.Emscripten.clang"
  },
  "schemaVersion": "3.3.4",
  "updatedAt": "2021-07-23T08:25:14.234Z",
  "devdoc": {
    "kind": "dev",
    "methods": {},
    "version": 1
  },
  "userdoc": {
    "kind": "user",
    "methods": {},
    "version": 1
  }
}