{
  "contractName": "Treasury",
  "abi": [
    {
      "inputs": [
        {
          "internalType": "uint256",
          "name": "PublicPriceWei",
          "type": "uint256"
        },
        {
          "internalType": "uint256",
          "name": "PrivatePriceWei",
          "type": "uint256"
        },
        {
          "internalType": "uint256",
          "name": "CertificatePriceWei",
          "type": "uint256"
        },
        {
          "internalType": "uint256",
          "name": "OwnerRefundPriceWei",
          "type": "uint256"
        },
        {
          "internalType": "address",
          "name": "PublicPoolAddress",
          "type": "address"
        },
        {
          "internalType": "address",
          "name": "managerContractAddress",
          "type": "address"
        },
        {
          "internalType": "address",
          "name": "CertisTokenAddress",
          "type": "address"
        }
      ],
      "stateMutability": "nonpayable",
      "type": "constructor"
    },
    {
      "inputs": [
        {
          "internalType": "enum Library.Prices",
          "name": "price",
          "type": "uint8"
        }
      ],
      "name": "pay",
      "outputs": [],
      "stateMutability": "payable",
      "type": "function"
    },
    {
      "inputs": [
        {
          "internalType": "uint256",
          "name": "PublicPriceWei",
          "type": "uint256"
        },
        {
          "internalType": "uint256",
          "name": "PrivatePriceWei",
          "type": "uint256"
        },
        {
          "internalType": "uint256",
          "name": "CertificatePriceWei",
          "type": "uint256"
        },
        {
          "internalType": "uint256",
          "name": "OwnerRefundPriceWei",
          "type": "uint256"
        },
        {
          "internalType": "address",
          "name": "PublicPoolAddress",
          "type": "address"
        },
        {
          "internalType": "address",
          "name": "CertisTokenAddress",
          "type": "address"
        }
      ],
      "name": "updateConfig",
      "outputs": [],
      "stateMutability": "nonpayable",
      "type": "function"
    },
    {
      "inputs": [
        {
          "internalType": "address",
          "name": "addr",
          "type": "address"
        },
        {
          "internalType": "uint256",
          "name": "numberOfOwners",
          "type": "uint256"
        }
      ],
      "name": "getRefund",
      "outputs": [],
      "stateMutability": "nonpayable",
      "type": "function"
    },
    {
      "inputs": [
        {
          "internalType": "uint256",
          "name": "amount",
          "type": "uint256"
        }
      ],
      "name": "withdraw",
      "outputs": [],
      "stateMutability": "nonpayable",
      "type": "function"
    },
    {
      "inputs": [
        {
          "internalType": "address",
          "name": "addr",
          "type": "address"
        }
      ],
      "name": "retrieveBalance",
      "outputs": [
        {
          "internalType": "uint256",
          "name": "",
          "type": "uint256"
        }
      ],
      "stateMutability": "view",
      "type": "function"
    },
    {
      "inputs": [
        {
          "internalType": "address",
          "name": "addr",
          "type": "address"
        }
      ],
      "name": "returnFactors",
      "outputs": [
        {
          "internalType": "uint256[]",
          "name": "",
          "type": "uint256[]"
        }
      ],
      "stateMutability": "view",
      "type": "function"
    },
    {
      "inputs": [
        {
          "internalType": "address",
          "name": "addr",
          "type": "address"
        },
        {
          "internalType": "uint256",
          "name": "factor",
          "type": "uint256"
        }
      ],
      "name": "returnBalanceForFactor",
      "outputs": [
        {
          "internalType": "uint256",
          "name": "",
          "type": "uint256"
        }
      ],
      "stateMutability": "view",
      "type": "function"
    }
  ],
  "bytecode": "0x60806040523480156200001157600080fd5b506040516200116c3803806200116c833981016040819052620000349162000114565b600080546001600160a01b0319166001600160a01b0384161790556200005f8787878787866200006c565b5050505050505062000185565b858380821015620000b25760405162461bcd60e51b8152600401620000a9906020808252600490820152634543323160e01b604082015260600190565b60405180910390fd5b5050600395909555600593909355600491909155600655600180546001600160a01b039283166001600160a01b03199182161790915560028054929093169116179055565b80516001600160a01b03811681146200010f57600080fd5b919050565b600080600080600080600060e0888a0312156200013057600080fd5b875196506020880151955060408801519450606088015193506200015760808901620000f7565b92506200016760a08901620000f7565b91506200017760c08901620000f7565b905092959891949750929550565b610fd780620001956000396000f3fe6080604052600436106100605760003560e01c806304b29cd5146100655780632e1a7d4d14610087578063906816d7146100a7578063c56cb580146100da578063e20f37ad14610107578063eb1e2a4114610127578063f0c9325e14610147575b600080fd5b34801561007157600080fd5b50610085610080366004610d4e565b61015a565b005b34801561009357600080fd5b506100856100a2366004610d1c565b6101af565b3480156100b357600080fd5b506100c76100c2366004610bc8565b610380565b6040519081526020015b60405180910390f35b3480156100e657600080fd5b506100fa6100f5366004610ba4565b6103a8565b6040516100d19190610dac565b34801561011357600080fd5b506100c7610122366004610ba4565b610417565b34801561013357600080fd5b50610085610142366004610bc8565b610428565b610085610155366004610cfb565b61046f565b60005461016f906001600160a01b0316610544565b15156001146101995760405162461bcd60e51b815260040161019090610df0565b60405180910390fd5b6101a7868686868686610567565b505050505050565b80806101ba336105e7565b10156101f15760405162461bcd60e51b8152600401610190906020808252600490820152630454332360e41b604082015260600190565b60006101fc336103a8565b90506000805b84821080156102115750825181105b156102e657600083828151811061022a5761022a610f5d565b60200260200101516102553386858151811061024857610248610f5d565b6020026020010151610380565b61025f9190610ebe565b905061026b8387610eff565b81111561027f5761027c8387610eff565b90505b6102898184610ea6565b92506102d3338584815181106102a1576102a1610f5d565b6020026020010151836102b49190610ee0565b8685815181106102c6576102c6610f5d565b6020026020010151610662565b816102dd81610f16565b92505050610202565b8482146103535760405162461bcd60e51b815260206004820152603560248201527f556e45787065637465642070726f626c656d2063616c63756c6174696e672074604482015274686520616d6f756e7420746f20776974686472617760581b6064820152608401610190565b604051339083156108fc029084906000818181858888f193505050501580156101a7573d6000803e3d6000fd5b6001600160a01b03919091166000908152600760209081526040808320938352929052205490565b6001600160a01b03811660009081526007602090815260409182902060010180548351818402810184019094528084526060939283018282801561040b57602002820191906000526020600020905b8154815260200190600101908083116103f7575b50505050509050919050565b6000610422826105e7565b92915050565b60015461043d906001600160a01b0316610544565b151560011461045e5760405162461bcd60e51b815260040161019090610df0565b61046b82600654836108b6565b5050565b8060001981600281111561048557610485610f47565b61049257506003546104d4565b8160028111156104a4576104a4610f47565b600114156104b557506005546104d4565b8160028111156104c7576104c7610f47565b600214156104d457506004545b8034101561050a5760405162461bcd60e51b815260206004820152600360248201526222a19960e91b6044820152606401610190565b34600084600281111561051f5761051f610f47565b1415610535576006546105329082610eff565b90505b61053e8161094a565b50505050565b6000336001600160a01b038316141561055f57506001919050565b506000919050565b8583808210156105a25760405162461bcd60e51b8152600401610190906020808252600490820152634543323160e01b604082015260600190565b5050600395909555600593909355600491909155600655600180546001600160a01b039283166001600160a01b03199182161790915560028054929093169116179055565b6000806105f3836103a8565b90506000805b825181101561065a5782818151811061061457610614610f5d565b60200260200101516106328685848151811061024857610248610f5d565b61063c9190610ebe565b6106469083610ea6565b91508061065281610f16565b9150506105f9565b509392505050565b6001600160a01b03831660009081526007602090815260408083208484529091529020548211156106e05760405162461bcd60e51b815260206004820152602260248201527f4e6f7420656e6f7567682062616c616e636520666f722074686973206661637460448201526137b960f11b6064820152608401610190565b6001600160a01b038316600090815260076020908152604080832084845290915281208054849290610713908490610eff565b90915550506001600160a01b03831660009081526007602090815260408083208484529091529020546108b1576001600160a01b0383166000908152600760205260409081902090516362fe358160e11b815273__UintLibrary___________________________916302fbee9e91839163c5fc6b029161079e918791600190910190600401610e0d565b60206040518083038186803b1580156107b657600080fd5b505af41580156107ca573d6000803e3d6000fd5b505050506040513d601f19601f820116820180604052508101906107ee9190610d35565b6001600160a01b0386166000908152600760205260409081902090516001600160e01b031960e085901b16815261082c929160010190600401610e0d565b60006040518083038186803b15801561084457600080fd5b505af4158015610858573d6000803e3d6000fd5b505050506040513d6000823e601f3d908101601f191682016040526108809190810190610cbf565b6001600160a01b0384166000908152600760209081526040909120825161053e936001909201929190910190610ad2565b505050565b6001600160a01b038316600090815260076020908152604080832084845290915290205461090d576001600160a01b0383166000908152600760209081526040822060019081018054918201815583529120018190555b6001600160a01b038316600090815260076020908152604080832084845290915281208054849290610940908490610ea6565b9091555050505050565b600080600260009054906101000a90046001600160a01b03166001600160a01b03166388d44ee06040518163ffffffff1660e01b815260040160006040518083038186803b15801561099b57600080fd5b505afa1580156109af573d6000803e3d6000fd5b505050506040513d6000823e601f3d908101601f191682016040526109d79190810190610bf4565b915091506000600260009054906101000a90046001600160a01b03166001600160a01b03166318160ddd6040518163ffffffff1660e01b815260040160206040518083038186803b158015610a2b57600080fd5b505afa158015610a3f573d6000803e3d6000fd5b505050506040513d601f19601f82011682018060405250810190610a639190610d35565b905060005b8351811015610acb57610ab9848281518110610a8657610a86610f5d565b602002602001015186858481518110610aa157610aa1610f5d565b6020026020010151610ab39190610ee0565b846108b6565b80610ac381610f16565b915050610a68565b5050505050565b828054828255906000526020600020908101928215610b0d579160200282015b82811115610b0d578251825591602001919060010190610af2565b50610b19929150610b1d565b5090565b5b80821115610b195760008155600101610b1e565b600082601f830112610b4357600080fd5b81516020610b58610b5383610e83565b610e53565b80838252828201915082860187848660051b8901011115610b7857600080fd5b60005b85811015610b9757815184529284019290840190600101610b7b565b5090979650505050505050565b600060208284031215610bb657600080fd5b8135610bc181610f89565b9392505050565b60008060408385031215610bdb57600080fd5b8235610be681610f89565b946020939093013593505050565b60008060408385031215610c0757600080fd5b82516001600160401b0380821115610c1e57600080fd5b818501915085601f830112610c3257600080fd5b81516020610c42610b5383610e83565b8083825282820191508286018a848660051b8901011115610c6257600080fd5b600096505b84871015610c8e578051610c7a81610f89565b835260019690960195918301918301610c67565b5091880151919650909350505080821115610ca857600080fd5b50610cb585828601610b32565b9150509250929050565b600060208284031215610cd157600080fd5b81516001600160401b03811115610ce757600080fd5b610cf384828501610b32565b949350505050565b600060208284031215610d0d57600080fd5b813560038110610bc157600080fd5b600060208284031215610d2e57600080fd5b5035919050565b600060208284031215610d4757600080fd5b5051919050565b60008060008060008060c08789031215610d6757600080fd5b863595506020870135945060408701359350606087013592506080870135610d8e81610f89565b915060a0870135610d9e81610f89565b809150509295509295509295565b6020808252825182820181905260009190848201906040850190845b81811015610de457835183529284019291840191600101610dc8565b50909695505050505050565b60208082526003908201526208a86760eb1b604082015260600190565b60006040820184835260206040818501528185548084526060860191508660005282600020935060005b81811015610b9757845483526001948501949284019201610e37565b604051601f8201601f191681016001600160401b0381118282101715610e7b57610e7b610f73565b604052919050565b60006001600160401b03821115610e9c57610e9c610f73565b5060051b60200190565b60008219821115610eb957610eb9610f31565b500190565b600082610edb57634e487b7160e01b600052601260045260246000fd5b500490565b6000816000190483118215151615610efa57610efa610f31565b500290565b600082821015610f1157610f11610f31565b500390565b6000600019821415610f2a57610f2a610f31565b5060010190565b634e487b7160e01b600052601160045260246000fd5b634e487b7160e01b600052602160045260246000fd5b634e487b7160e01b600052603260045260246000fd5b634e487b7160e01b600052604160045260246000fd5b6001600160a01b0381168114610f9e57600080fd5b5056fea2646970667358221220c36218fd3d271b8afd424799abf8978acf189df1a227e9e4fbfb450ad484e70e64736f6c63430008060033",
  "immutableReferences": {},
  "source": "// SPDX-License-Identifier: GPL-3.0\r\n\r\npragma solidity >=0.7.0 <0.9.0;\r\n\r\n/**\r\n * @title Storage\r\n * @dev Store & retrieve value in a variable\r\n */\r\n\r\nimport \"./Interfaces/ITreasury.sol\";\r\nimport \"./PublicCertificatesPool.sol\";\r\nimport \"./Libraries/UintLibrary.sol\";\r\nimport \"./Libraries/Library.sol\";\r\nimport \"./CertisToken.sol\";\r\n\r\n\r\ncontract Treasury is ITreasury{\r\n    using Library for *;\r\n    using UintLibrary for *;\r\n\r\n    // creator\r\n    address _creator;\r\n\r\n    modifier areFundsEnough(Library.Prices price){\r\n        uint256 minPrice = 2**256 - 1;\r\n\r\n        if(Library.Prices.NewProvider == price) minPrice = _PublicPriceWei;\r\n        else if(Library.Prices.NewPool == price) minPrice = _PrivatePriceWei;\r\n        else if(Library.Prices.NewCertificate == price) minPrice = _CertificatePriceWei;\r\n\r\n        require(msg.value >= minPrice, \"EC2\");\r\n        _;\r\n    }\r\n\r\n    modifier isBalanceEnough(uint amount){\r\n        require(checkBalance(msg.sender) >= amount, \"EC20\");\r\n        _;\r\n    }\r\n\r\n    modifier isFromPublicPool(){\r\n        require(true == Library.ItIsSomeone(address(_PublicCertificatesPool)), \"EC8\");\r\n        _;\r\n    }\r\n\r\n    modifier isFromCreator(){\r\n        require(true == Library.ItIsSomeone(_creator), \"EC8\");\r\n        _;\r\n    }\r\n\r\n    modifier isConfigOK(uint256 PublicPriceWei, uint256 OwnerRefundPriceWei){\r\n        require(PublicPriceWei >= OwnerRefundPriceWei, \"EC21\");\r\n        _;\r\n    }\r\n\r\n    // constants\r\n    PublicCertificatesPool  _PublicCertificatesPool;\r\n    CertisToken _CertisToken;\r\n    uint _PublicPriceWei;\r\n    uint _CertificatePriceWei;\r\n    uint _PrivatePriceWei;\r\n    uint _OwnerRefundPriceWei;\r\n\r\n    // data\r\n    struct _BalanceStruct{\r\n        mapping(uint => uint) _balance;\r\n        uint[] _factors;\r\n    }\r\n    \r\n    mapping(address => _BalanceStruct) _balances;\r\n\r\n    constructor(uint256 PublicPriceWei, uint256 PrivatePriceWei, uint256 CertificatePriceWei, uint256 OwnerRefundPriceWei, address PublicPoolAddress, address managerContractAddress, address CertisTokenAddress) {\r\n        _creator = managerContractAddress; \r\n        InternalupdateConfig(PublicPriceWei, PrivatePriceWei, CertificatePriceWei, OwnerRefundPriceWei, PublicPoolAddress, CertisTokenAddress);\r\n    }\r\n\r\n\r\n    function pay(Library.Prices price) external \r\n        areFundsEnough(price)\r\n    override payable\r\n    {\r\n        uint256 amount = msg.value;\r\n        if(price == Library.Prices.NewProvider) amount -= _OwnerRefundPriceWei;\r\n        AssignDividends(amount);\r\n    }\r\n\r\n    function AssignDividends(uint256 amount) internal{\r\n        (address[] memory DividendsRecipients, uint256[] memory DividendsRecipientsTokens) = _CertisToken.TokenOwners();\r\n        uint256 TotalTokenSupply = _CertisToken.totalSupply();\r\n\r\n        for(uint i=0; i < DividendsRecipients.length; i++){\r\n            addBalance(DividendsRecipients[i], DividendsRecipientsTokens[i] * amount, TotalTokenSupply);\r\n        }\r\n\r\n    }\r\n\r\n    function updateConfig(uint256 PublicPriceWei, uint256 PrivatePriceWei, uint256 CertificatePriceWei, uint256 OwnerRefundPriceWei, address PublicPoolAddress, address CertisTokenAddress) external\r\n        isFromCreator()\r\n    override{\r\n        InternalupdateConfig(PublicPriceWei, PrivatePriceWei, CertificatePriceWei, OwnerRefundPriceWei, PublicPoolAddress, CertisTokenAddress);\r\n    }\r\n\r\n    function InternalupdateConfig(uint256 PublicPriceWei, uint256 PrivatePriceWei, uint256 CertificatePriceWei, uint256 OwnerRefundPriceWei, address PublicPoolAddress, address CertisTokenAddress) internal\r\n        isConfigOK( PublicPriceWei, OwnerRefundPriceWei)\r\n    {\r\n        _PublicPriceWei = PublicPriceWei;\r\n        _PrivatePriceWei = PrivatePriceWei;\r\n        _CertificatePriceWei = CertificatePriceWei;\r\n        _OwnerRefundPriceWei = OwnerRefundPriceWei;\r\n        _PublicCertificatesPool = PublicCertificatesPool(PublicPoolAddress);\r\n        _CertisToken = CertisToken(CertisTokenAddress);\r\n    }\r\n\r\n    function getRefund(address addr, uint numberOfOwners) external \r\n        isFromPublicPool()\r\n    override\r\n    {\r\n        addBalance(addr, _OwnerRefundPriceWei, numberOfOwners);\r\n    }\r\n\r\n    function withdraw(uint amount) external \r\n        isBalanceEnough(amount)\r\n    override\r\n    {\r\n        uint[] memory f = returnFactors(msg.sender);\r\n        uint total = 0;\r\n        uint i = 0;\r\n\r\n        while ((total < amount) && (i < f.length)){\r\n            uint amountForFactor = returnBalanceForFactor(msg.sender, f[i]) / f[i];\r\n            if(amountForFactor > (amount - total)) amountForFactor = amount - total;\r\n            total += amountForFactor;\r\n            substractBalance(msg.sender, amountForFactor * f[i], f[i]);\r\n            i++;\r\n        }\r\n\r\n        require(total == amount, \"UnExpected problem calculating the amount to withdraw\");\r\n\r\n        payable(msg.sender).transfer(total);\r\n    }\r\n\r\n    function retrieveBalance(address addr) external override view returns(uint)\r\n    {\r\n        return checkBalance(addr);\r\n    }\r\n\r\n    function checkBalance(address addr) internal view returns(uint){\r\n        uint[] memory f = returnFactors(addr);\r\n        uint total = 0;\r\n\r\n        for(uint i=0; i < f.length; i++){\r\n            total += returnBalanceForFactor(addr, f[i]) / f[i];\r\n        }\r\n\r\n        return total;\r\n    }\r\n\r\n    function returnFactors(address addr) public view returns(uint[] memory){\r\n        return _balances[addr]._factors;\r\n    }\r\n\r\n    function returnBalanceForFactor(address addr, uint factor) public view returns(uint){\r\n        return _balances[addr]._balance[factor];\r\n    }\r\n\r\n    function addBalance(address addr, uint amount, uint factor) private{\r\n        if(0 == _balances[addr]._balance[factor]){\r\n             _balances[addr]._factors.push(factor);\r\n        }\r\n\r\n       _balances[addr]._balance[factor] += amount;\r\n    }\r\n\r\n    function substractBalance(address addr, uint amount, uint factor) private{\r\n        require(_balances[addr]._balance[factor] >= amount, \"Not enough balance for this factor\");\r\n\r\n        _balances[addr]._balance[factor] -= amount;\r\n\r\n        if(0 == _balances[addr]._balance[factor]){\r\n            _balances[addr]._factors = UintLibrary.UintArrayRemoveResize(UintLibrary.FindUintPosition(factor, _balances[addr]._factors), _balances[addr]._factors);\r\n        }\r\n        \r\n    }\r\n\r\n}",
  "sourcePath": "C:\\Users\\d-aam\\GitHub\\Certificates\\contracts\\Treasury.sol",
  "compiler": {
    "name": "solc",
    "version": "0.8.6+commit.11564f7e.Emscripten.clang"
  },
  "schemaVersion": "3.3.4",
  "updatedAt": "2021-07-20T09:48:46.828Z",
  "devdoc": {
    "kind": "dev",
    "methods": {},
    "version": 1
  },
  "userdoc": {
    "kind": "user",
    "methods": {},
    "version": 1
  }
}