{
  "contractName": "Treasury",
  "abi": [
    {
      "inputs": [],
      "name": "cancelProposition",
      "outputs": [],
      "stateMutability": "nonpayable",
      "type": "function"
    },
    {
      "inputs": [],
      "name": "retrievePropConfig",
      "outputs": [
        {
          "internalType": "uint256",
          "name": "",
          "type": "uint256"
        },
        {
          "internalType": "uint8",
          "name": "",
          "type": "uint8"
        },
        {
          "internalType": "uint8",
          "name": "",
          "type": "uint8"
        }
      ],
      "stateMutability": "view",
      "type": "function"
    },
    {
      "inputs": [],
      "name": "retrievePropositionStatus",
      "outputs": [
        {
          "internalType": "address",
          "name": "",
          "type": "address"
        },
        {
          "internalType": "uint256",
          "name": "",
          "type": "uint256"
        },
        {
          "internalType": "uint256",
          "name": "",
          "type": "uint256"
        },
        {
          "internalType": "uint256",
          "name": "",
          "type": "uint256"
        },
        {
          "internalType": "uint256",
          "name": "",
          "type": "uint256"
        },
        {
          "internalType": "address[]",
          "name": "",
          "type": "address[]"
        },
        {
          "internalType": "uint256[]",
          "name": "",
          "type": "uint256[]"
        },
        {
          "internalType": "address[]",
          "name": "",
          "type": "address[]"
        }
      ],
      "stateMutability": "view",
      "type": "function"
    },
    {
      "inputs": [
        {
          "internalType": "uint256",
          "name": "PropLifeTime",
          "type": "uint256"
        },
        {
          "internalType": "uint8",
          "name": "PropThresholdPerc",
          "type": "uint8"
        },
        {
          "internalType": "uint8",
          "name": "minWeightToPropPerc",
          "type": "uint8"
        }
      ],
      "name": "updateProp",
      "outputs": [],
      "stateMutability": "nonpayable",
      "type": "function"
    },
    {
      "inputs": [
        {
          "internalType": "bool",
          "name": "vote",
          "type": "bool"
        }
      ],
      "name": "voteProposition",
      "outputs": [],
      "stateMutability": "nonpayable",
      "type": "function"
    },
    {
      "inputs": [
        {
          "internalType": "uint256",
          "name": "PublicPriceWei",
          "type": "uint256"
        },
        {
          "internalType": "uint256",
          "name": "PrivatePriceWei",
          "type": "uint256"
        },
        {
          "internalType": "uint256",
          "name": "ProviderPriceWei",
          "type": "uint256"
        },
        {
          "internalType": "uint256",
          "name": "CertificatePriceWei",
          "type": "uint256"
        },
        {
          "internalType": "uint256",
          "name": "OwnerRefundPriceWei",
          "type": "uint256"
        },
        {
          "internalType": "address",
          "name": "managerContractAddress",
          "type": "address"
        },
        {
          "internalType": "uint256",
          "name": "PropositionLifeTime",
          "type": "uint256"
        },
        {
          "internalType": "uint8",
          "name": "PropositionThresholdPercentage",
          "type": "uint8"
        },
        {
          "internalType": "uint8",
          "name": "minWeightToProposePercentage",
          "type": "uint8"
        }
      ],
      "name": "Treasury_init",
      "outputs": [],
      "stateMutability": "nonpayable",
      "type": "function"
    },
    {
      "inputs": [
        {
          "internalType": "uint256",
          "name": "PublicPriceWei",
          "type": "uint256"
        },
        {
          "internalType": "uint256",
          "name": "PrivatePriceWei",
          "type": "uint256"
        },
        {
          "internalType": "uint256",
          "name": "ProviderPriceWei",
          "type": "uint256"
        },
        {
          "internalType": "uint256",
          "name": "CertificatePriceWei",
          "type": "uint256"
        },
        {
          "internalType": "uint256",
          "name": "OwnerRefundPriceWei",
          "type": "uint256"
        }
      ],
      "name": "updatePrices",
      "outputs": [],
      "stateMutability": "nonpayable",
      "type": "function"
    },
    {
      "inputs": [],
      "name": "retrieveProposition",
      "outputs": [
        {
          "internalType": "bytes32[]",
          "name": "",
          "type": "bytes32[]"
        }
      ],
      "stateMutability": "view",
      "type": "function"
    },
    {
      "inputs": [
        {
          "internalType": "enum Library.Prices",
          "name": "price",
          "type": "uint8"
        }
      ],
      "name": "pay",
      "outputs": [],
      "stateMutability": "payable",
      "type": "function"
    },
    {
      "inputs": [
        {
          "internalType": "address",
          "name": "addr",
          "type": "address"
        },
        {
          "internalType": "uint256",
          "name": "numberOfOwners",
          "type": "uint256"
        }
      ],
      "name": "getRefund",
      "outputs": [],
      "stateMutability": "nonpayable",
      "type": "function"
    },
    {
      "inputs": [
        {
          "internalType": "uint256",
          "name": "amount",
          "type": "uint256"
        }
      ],
      "name": "withdraw",
      "outputs": [],
      "stateMutability": "nonpayable",
      "type": "function"
    },
    {
      "inputs": [
        {
          "internalType": "address",
          "name": "addr",
          "type": "address"
        }
      ],
      "name": "retrieveBalance",
      "outputs": [
        {
          "internalType": "uint256",
          "name": "",
          "type": "uint256"
        }
      ],
      "stateMutability": "view",
      "type": "function"
    },
    {
      "inputs": [],
      "name": "retrievePrices",
      "outputs": [
        {
          "internalType": "uint256",
          "name": "",
          "type": "uint256"
        },
        {
          "internalType": "uint256",
          "name": "",
          "type": "uint256"
        },
        {
          "internalType": "uint256",
          "name": "",
          "type": "uint256"
        },
        {
          "internalType": "uint256",
          "name": "",
          "type": "uint256"
        },
        {
          "internalType": "uint256",
          "name": "",
          "type": "uint256"
        }
      ],
      "stateMutability": "view",
      "type": "function"
    },
    {
      "inputs": [
        {
          "internalType": "address",
          "name": "addr",
          "type": "address"
        }
      ],
      "name": "returnFactors",
      "outputs": [
        {
          "internalType": "uint256[]",
          "name": "",
          "type": "uint256[]"
        }
      ],
      "stateMutability": "view",
      "type": "function"
    },
    {
      "inputs": [
        {
          "internalType": "address",
          "name": "addr",
          "type": "address"
        },
        {
          "internalType": "uint256",
          "name": "factor",
          "type": "uint256"
        }
      ],
      "name": "returnBalanceForFactor",
      "outputs": [
        {
          "internalType": "uint256",
          "name": "",
          "type": "uint256"
        }
      ],
      "stateMutability": "view",
      "type": "function"
    }
  ],
  "bytecode": "0x608060405234801561001057600080fd5b5061275f806100206000396000f3fe6080604052600436106100b85760003560e01c806325b4f3ca146100bd5780632e1a7d4d1461010657806355457ee914610128578063840f6d171461013d578063906816d71461016657806391f9167114610194578063922ebecc146101b457806396df6e79146101d4578063a93316f5146101f4578063ac2bb44214610216578063c56cb58014610236578063d660ab3414610263578063e20f37ad1461029c578063eb1e2a41146102bc578063f0c9325e146102dc575b600080fd5b3480156100c957600080fd5b50601454601654601754601554601854604080519586526020860194909452928401919091526060830152608082015260a0015b60405180910390f35b34801561011257600080fd5b506101266101213660046121e9565b6102ef565b005b34801561013457600080fd5b506101266104d1565b34801561014957600080fd5b50610152610531565b6040516100fd98979695949392919061241a565b34801561017257600080fd5b50610186610181366004612042565b6106a1565b6040519081526020016100fd565b3480156101a057600080fd5b506101266101af366004612175565b6106c9565b3480156101c057600080fd5b506101266101cf36600461223d565b610968565b3480156101e057600080fd5b506101266101ef366004612202565b6109f9565b34801561020057600080fd5b50610209610a0f565b6040516100fd919061248b565b34801561022257600080fd5b506101266102313660046122bd565b610d74565b34801561024257600080fd5b50610256610251366004612008565b610d86565b6040516100fd91906124cf565b34801561026f57600080fd5b50600a54600b546040805192835260ff8083166020850152610100909204909116908201526060016100fd565b3480156102a857600080fd5b506101866102b7366004612008565b610df5565b3480156102c857600080fd5b506101266102d7366004612042565b610e06565b6101266102ea3660046121c8565b610f61565b80806102fa3361103f565b101561033a5760405162461bcd60e51b8152600401610331906020808252600490820152630454332360e41b604082015260600190565b60405180910390fd5b600061034533610d86565b90506000805b848210801561035a5750825181105b1561042f576000838281518110610373576103736126da565b602002602001015161039e33868581518110610391576103916126da565b60200260200101516106a1565b6103a8919061263b565b90506103b4838761267c565b8111156103c8576103c5838761267c565b90505b6103d28184612623565b925061041c338584815181106103ea576103ea6126da565b6020026020010151836103fd919061265d565b86858151811061040f5761040f6126da565b60200260200101516110ba565b8161042681612693565b9250505061034b565b84821461049c5760405162461bcd60e51b815260206004820152603560248201527f556e45787065637465642070726f626c656d2063616c63756c6174696e672074604482015274686520616d6f756e7420746f20776974686472617760581b6064820152608401610331565b604051339083156108fc029084906000818181858888f193505050501580156104c9573d6000803e3d6000fd5b505050505050565b60016104db611309565b15156001146104fc5760405162461bcd60e51b81526004016103319061254e565b6002546001600160a01b031633146105265760405162461bcd60e51b8152600401610331906124e2565b61052e611343565b50565b60008060008060006060806060600260000160009054906101000a90046001600160a01b03166002600101546002800154600260030154600260040154600260050160026006016002600701828054806020026020016040519081016040528092919081815260200182805480156105d257602002820191906000526020600020905b81546001600160a01b031681526001909101906020018083116105b4575b505050505092508180548060200260200160405190810160405280929190818152602001828054801561062457602002820191906000526020600020905b815481526020019060010190808311610610575b505050505091508080548060200260200160405190810160405280929190818152602001828054801561068057602002820191906000526020600020905b81546001600160a01b03168152600190910190602001808311610662575b50505050509050975097509750975097509750975097509091929394959697565b6001600160a01b03919091166000908152601960209081526040808320938352929052205490565b60016106d3611309565b15156001146106f45760405162461bcd60e51b81526004016103319061254e565b61075b33600260050180548060200260200160405190810160405280929190818152602001828054801561075157602002820191906000526020600020905b81546001600160a01b03168152600190910190602001808311610733575b5050505050611390565b15156001146107955760405162461bcd60e51b8152600401610331906020808252600490820152634543323360e01b604082015260600190565b60405163f7cf62d760e01b815273__AddressLibrary________________________9063f7cf62d7906107cf9033906009906004016123c9565b60206040518083038186803b1580156107e757600080fd5b505af41580156107fb573d6000803e3d6000fd5b505050506040513d601f19601f8201168201806040525081019061081f9190612192565b156108525760405162461bcd60e51b815260206004820152600360248201526245433560e81b6044820152606401610331565b60035442101561094057600980546001810182556000919091527f6e1540171b6c0c960b71a7020d9f60077f6af931a8bbf590da0223dacf75c7af0180546001600160a01b0319163317905581156108f15760086108b7336108b26113a6565b6114aa565b815481106108c7576108c76126da565b9060005260206000200154600260030160008282546108e69190612623565b909155506109349050565b60086108ff336108b26113a6565b8154811061090f5761090f6126da565b90600052602060002001546002600401600082825461092e9190612623565b90915550505b61093c611540565b5050565b600e5460ff161561095857610953611602565b610960565b61096061161e565b61093c611343565b600054610100900460ff1680610981575060005460ff16155b61099d5760405162461bcd60e51b815260040161033190612500565b600054610100900460ff161580156109bf576000805461ffff19166101011790555b6109cc848484338961163c565b6109db8a8a8a8a8a60016116df565b80156109ed576000805461ff00191690555b50505050505050505050565b610a08858585858560006116df565b5050505050565b60408051600580825260c08201909252606091600091906020820160a0803683375050600f54604051631635719760e31b8152600481019190915291925073__UintLibrary___________________________9163b1ab8cb8915060240160206040518083038186803b158015610a8557600080fd5b505af4158015610a99573d6000803e3d6000fd5b505050506040513d601f19601f82011682018060405250810190610abd91906121af565b81600081518110610ad057610ad06126da565b6020908102919091010152601154604051631635719760e31b8152600481019190915273__UintLibrary___________________________9063b1ab8cb89060240160206040518083038186803b158015610b2a57600080fd5b505af4158015610b3e573d6000803e3d6000fd5b505050506040513d601f19601f82011682018060405250810190610b6291906121af565b81600181518110610b7557610b756126da565b6020908102919091010152601254604051631635719760e31b8152600481019190915273__UintLibrary___________________________9063b1ab8cb89060240160206040518083038186803b158015610bcf57600080fd5b505af4158015610be3573d6000803e3d6000fd5b505050506040513d601f19601f82011682018060405250810190610c0791906121af565b81600281518110610c1a57610c1a6126da565b6020908102919091010152601054604051631635719760e31b8152600481019190915273__UintLibrary___________________________9063b1ab8cb89060240160206040518083038186803b158015610c7457600080fd5b505af4158015610c88573d6000803e3d6000fd5b505050506040513d601f19601f82011682018060405250810190610cac91906121af565b81600381518110610cbf57610cbf6126da565b6020908102919091010152601354604051631635719760e31b8152600481019190915273__UintLibrary___________________________9063b1ab8cb89060240160206040518083038186803b158015610d1957600080fd5b505af4158015610d2d573d6000803e3d6000fd5b505050506040513d601f19601f82011682018060405250810190610d5191906121af565b81600481518110610d6457610d646126da565b6020908102919091010152919050565b610d818383836000611765565b505050565b6001600160a01b038116600090815260196020908152604091829020600101805483518184028101840190945280845260609392830182828015610de957602002820191906000526020600020905b815481526020019060010190808311610dd5575b50505050509050919050565b6000610e008261103f565b92915050565b73__Library_______________________________63d1d719d0600060029054906101000a90046001600160a01b03166001600160a01b031663aa33380a6040518163ffffffff1660e01b815260040160206040518083038186803b158015610e6e57600080fd5b505afa158015610e82573d6000803e3d6000fd5b505050506040513d601f19601f82011682018060405250810190610ea69190612025565b6040516001600160e01b031960e084901b1681526001600160a01b03909116600482015260240160206040518083038186803b158015610ee557600080fd5b505af4158015610ef9573d6000803e3d6000fd5b505050506040513d601f19601f82011682018060405250810190610f1d9190612192565b1515600114610f545760405162461bcd60e51b815260206004820152600360248201526208a86760eb1b6044820152606401610331565b61093c8260185483611818565b80600019816003811115610f7757610f776126c4565b610f845750601454610fcf565b816003811115610f9657610f966126c4565b60011415610fa75750601654610fcf565b816003811115610fb957610fb96126c4565b60021415610fca5750601554610fcf565b506017545b803410156110055760405162461bcd60e51b815260206004820152600360248201526222a19960e91b6044820152606401610331565b34600084600381111561101a5761101a6126c4565b14156110305760185461102d908261267c565b90505b611039816118ac565b50505050565b60008061104b83610d86565b90506000805b82518110156110b25782818151811061106c5761106c6126da565b602002602001015161108a86858481518110610391576103916126da565b611094919061263b565b61109e9083612623565b9150806110aa81612693565b915050611051565b509392505050565b6001600160a01b03831660009081526019602090815260408083208484529091529020548211156111385760405162461bcd60e51b815260206004820152602260248201527f4e6f7420656e6f7567682062616c616e636520666f722074686973206661637460448201526137b960f11b6064820152608401610331565b6001600160a01b03831660009081526019602090815260408083208484529091528120805484929061116b90849061267c565b90915550506001600160a01b0383166000908152601960209081526040808320848452909152902054610d81576001600160a01b0383166000908152601960205260409081902090516362fe358160e11b815273__UintLibrary___________________________916302fbee9e91839163c5fc6b02916111f691879160019091019060040161258a565b60206040518083038186803b15801561120e57600080fd5b505af4158015611222573d6000803e3d6000fd5b505050506040513d601f19601f8201168201806040525081019061124691906121af565b6001600160a01b0386166000908152601960205260409081902090516001600160e01b031960e085901b16815261128492916001019060040161258a565b60006040518083038186803b15801561129c57600080fd5b505af41580156112b0573d6000803e3d6000fd5b505050506040513d6000823e601f3d908101601f191682016040526112d89190810190612139565b6001600160a01b03841660009081526019602090815260409091208251611039936001909201929190910190611eb2565b60035460009042101561131c5750600190565b6002546001600160a01b03161561133d5761133561161e565b61133d611343565b50600090565b600280546001600160a01b031916815560006003819055600481905560058190556006819055611374600782611efd565b611382600683016000611efd565b61093c600783016000611efd565b6000815161139e84846114aa565b109392505050565b606060008060029054906101000a90046001600160a01b03166001600160a01b031663da3dce266040518163ffffffff1660e01b815260040160206040518083038186803b1580156113f757600080fd5b505afa15801561140b573d6000803e3d6000fd5b505050506040513d601f19601f8201168201806040525081019061142f9190612025565b6001600160a01b03166388d44ee06040518163ffffffff1660e01b815260040160006040518083038186803b15801561146757600080fd5b505afa15801561147b573d6000803e3d6000fd5b505050506040513d6000823e601f3d908101601f191682016040526114a3919081019061206e565b5092915050565b60405160016219125f60e01b0319815260009073__AddressLibrary________________________9063ffe6eda1906114e9908690869060040161236d565b60206040518083038186803b15801561150157600080fd5b505af4158015611515573d6000803e3d6000fd5b505050506040513d601f19601f8201168201806040525081019061153991906121af565b9392505050565b60045460055411156115db57600e5460ff161561159257600c54600a55600d54600b805461010080840460ff90811690910261ffff1990921693169290921791909117905561158d611602565b6115d1565b6115d1600f546014556011546016556012546017556010546015556013546018556115d96000600f819055601081905560118190556012819055601355565b6115d9611343565b565b60045460065411156115d957600e5460ff16156115fa5761158d611602565b6115d161161e565b6000600c55600d805461ffff19169055600e805460ff19169055565b6115d96000600f819055601081905560118190556012819055601355565b600054610100900460ff1680611655575060005460ff16155b6116715760405162461bcd60e51b815260040161033190612500565b600054610100900460ff16158015611693576000805461ffff19166101011790555b61169c8261192d565b600180546001600160a01b0319166001600160a01b0385161781556116c690879087908790611765565b80156104c9576000805461ff0019169055505050505050565b8582808210156117015760405162461bcd60e51b81526004016103319061256c565b8215611725576014889055601687905560178690556015859055601884905561175b565b611741600a54426117369190612623565b600b5460ff166119bb565b600f88905560108590556011879055601286905560138490555b5050505050505050565b82828160ff166064101561178b5760405162461bcd60e51b81526004016103319061256c565b8060ff16606410156117af5760405162461bcd60e51b81526004016103319061256c565b82156117da57600a869055600b805460ff8681166101000261ffff19909216908816171790556104c9565b600c869055600d805460ff8681166101000261ffff1990921690881617179055600e805460ff19166001179055600a546104c9906117369042612623565b6001600160a01b038316600090815260196020908152604080832084845290915290205461186f576001600160a01b0383166000908152601960209081526040822060019081018054918201815583529120018190555b6001600160a01b0383166000908152601960209081526040808320848452909152812080548492906118a2908490612623565b9091555050505050565b6000806118b7611b04565b9150915060006118c5611c09565b905060005b8351811015610a085761191b8482815181106118e8576118e86126da565b602002602001015186858481518110611903576119036126da565b6020026020010151611915919061265d565b84611818565b8061192581612693565b9150506118ca565b600054610100900460ff1680611946575060005460ff16155b6119625760405162461bcd60e51b815260040161033190612500565b600054610100900460ff16158015611984576000805461ffff19166101011790555b6000805462010000600160b01b031916620100006001600160a01b03851602179055801561093c576000805461ff00191690555050565b60006119c5611309565b156119fb5760405162461bcd60e51b8152600401610331906020808252600490820152631150cc8d60e21b604082015260600190565b611a0433611d05565b1515600114611a255760405162461bcd60e51b8152600401610331906124e2565b611a2d6113a6565b8051611a4191600791602090910190611f1b565b50600754611aac5760405162461bcd60e51b815260206004820152603260248201527f496d706f737369626c6520746f206164642070726f706f736974696f6e2c20746044820152716865726520617265206e6f2061646d696e7360701b6064820152608401610331565b600280546001600160a01b031916331790556003839055606460ff8316611ad1611c09565b611adb919061265d565b611ae5919061263b565b600455611af0611db5565b805161103991600891602090910190611eb2565b606080600060029054906101000a90046001600160a01b03166001600160a01b031663da3dce266040518163ffffffff1660e01b815260040160206040518083038186803b158015611b5557600080fd5b505afa158015611b69573d6000803e3d6000fd5b505050506040513d601f19601f82011682018060405250810190611b8d9190612025565b6001600160a01b03166388d44ee06040518163ffffffff1660e01b815260040160006040518083038186803b158015611bc557600080fd5b505afa158015611bd9573d6000803e3d6000fd5b505050506040513d6000823e601f3d908101601f19168201604052611c01919081019061206e565b915091509091565b60008060029054906101000a90046001600160a01b03166001600160a01b031663da3dce266040518163ffffffff1660e01b815260040160206040518083038186803b158015611c5857600080fd5b505afa158015611c6c573d6000803e3d6000fd5b505050506040513d601f19601f82011682018060405250810190611c909190612025565b6001600160a01b03166318160ddd6040518163ffffffff1660e01b815260040160206040518083038186803b158015611cc857600080fd5b505afa158015611cdc573d6000803e3d6000fd5b505050506040513d601f19601f82011682018060405250810190611d0091906121af565b905090565b6001546000906001600160a01b0316331415611d2357506001919050565b6000611d2d6113a6565b90506000611d39611db5565b90506000611d4785846114aa565b90508251811015611da5576064611d5c611c09565b600b54611d719190610100900460ff1661265d565b611d7b919061263b565b828281518110611d8d57611d8d6126da565b602002602001015110611da557506001949350505050565b506000949350505050565b919050565b606060008060029054906101000a90046001600160a01b03166001600160a01b031663da3dce266040518163ffffffff1660e01b815260040160206040518083038186803b158015611e0657600080fd5b505afa158015611e1a573d6000803e3d6000fd5b505050506040513d601f19601f82011682018060405250810190611e3e9190612025565b6001600160a01b03166388d44ee06040518163ffffffff1660e01b815260040160006040518083038186803b158015611e7657600080fd5b505afa158015611e8a573d6000803e3d6000fd5b505050506040513d6000823e601f3d908101601f19168201604052611539919081019061206e565b828054828255906000526020600020908101928215611eed579160200282015b82811115611eed578251825591602001919060010190611ed2565b50611ef9929150611f70565b5090565b508054600082559060005260206000209081019061052e9190611f70565b828054828255906000526020600020908101928215611eed579160200282015b82811115611eed57825182546001600160a01b0319166001600160a01b03909116178255602090920191600190910190611f3b565b5b80821115611ef95760008155600101611f71565b600082601f830112611f9657600080fd5b81516020611fab611fa683612600565b6125d0565b80838252828201915082860187848660051b8901011115611fcb57600080fd5b60005b85811015611fea57815184529284019290840190600101611fce565b5090979650505050505050565b803560ff81168114611db057600080fd5b60006020828403121561201a57600080fd5b813561153981612706565b60006020828403121561203757600080fd5b815161153981612706565b6000806040838503121561205557600080fd5b823561206081612706565b946020939093013593505050565b6000806040838503121561208157600080fd5b82516001600160401b038082111561209857600080fd5b818501915085601f8301126120ac57600080fd5b815160206120bc611fa683612600565b8083825282820191508286018a848660051b89010111156120dc57600080fd5b600096505b848710156121085780516120f481612706565b8352600196909601959183019183016120e1565b509188015191965090935050508082111561212257600080fd5b5061212f85828601611f85565b9150509250929050565b60006020828403121561214b57600080fd5b81516001600160401b0381111561216157600080fd5b61216d84828501611f85565b949350505050565b60006020828403121561218757600080fd5b81356115398161271b565b6000602082840312156121a457600080fd5b81516115398161271b565b6000602082840312156121c157600080fd5b5051919050565b6000602082840312156121da57600080fd5b81356004811061153957600080fd5b6000602082840312156121fb57600080fd5b5035919050565b600080600080600060a0868803121561221a57600080fd5b505083359560208501359550604085013594606081013594506080013592509050565b60008060008060008060008060006101208a8c03121561225c57600080fd5b8935985060208a0135975060408a0135965060608a0135955060808a0135945060a08a013561228a81612706565b935060c08a0135925061229f60e08b01611ff7565b91506122ae6101008b01611ff7565b90509295985092959850929598565b6000806000606084860312156122d257600080fd5b833592506122e260208501611ff7565b91506122f060408501611ff7565b90509250925092565b600081518084526020808501945080840160005b838110156123325781516001600160a01b03168752958201959082019060010161230d565b509495945050505050565b600081518084526020808501945080840160005b8381101561233257815187529582019590820190600101612351565b6001600160a01b038381168252604060208084018290528451918401829052600092858201929091906060860190855b818110156123bb57855185168352948301949183019160010161239d565b509098975050505050505050565b60006040820160018060a01b03808616845260206040818601528286548085526060870191508760005282600020945060005b818110156123bb5785548516835260019586019592840192016123fc565b600061010060018060a01b038b1683528960208401528860408401528760608401528660808401528060a0840152612454818401876122f9565b905082810360c0840152612468818661233d565b905082810360e084015261247c81856122f9565b9b9a5050505050505050505050565b6020808252825182820181905260009190848201906040850190845b818110156124c3578351835292840192918401916001016124a7565b50909695505050505050565b602081526000611539602083018461233d565b60208082526004908201526322a1991960e11b604082015260600190565b6020808252602e908201527f496e697469616c697a61626c653a20636f6e747261637420697320616c72656160408201526d191e481a5b9a5d1a585b1a5e995960921b606082015260800190565b6020808252600490820152634543323560e01b604082015260600190565b6020808252600490820152634543323160e01b604082015260600190565b60006040820184835260206040818501528185548084526060860191508660005282600020935060005b81811015611fea578454835260019485019492840192016125b4565b604051601f8201601f191681016001600160401b03811182821017156125f8576125f86126f0565b604052919050565b60006001600160401b03821115612619576126196126f0565b5060051b60200190565b60008219821115612636576126366126ae565b500190565b60008261265857634e487b7160e01b600052601260045260246000fd5b500490565b6000816000190483118215151615612677576126776126ae565b500290565b60008282101561268e5761268e6126ae565b500390565b60006000198214156126a7576126a76126ae565b5060010190565b634e487b7160e01b600052601160045260246000fd5b634e487b7160e01b600052602160045260246000fd5b634e487b7160e01b600052603260045260246000fd5b634e487b7160e01b600052604160045260246000fd5b6001600160a01b038116811461052e57600080fd5b801515811461052e57600080fdfea26469706673582212204e65cb68a89721a85f73ed2c74349f6da7c1a653e8d9f21c791c7b43612e926764736f6c63430008060033",
  "immutableReferences": {},
  "source": "// SPDX-License-Identifier: GPL-3.0\r\n\r\npragma solidity >=0.7.0 <0.9.0;\r\n\r\n/**\r\n * @title Storage\r\n * @dev Store & retrieve value in a variable\r\n */\r\n\r\nimport \"../Interfaces/ITreasury.sol\";\r\nimport \"./PublicCertificatesPool.sol\";\r\nimport \"../Libraries/UintLibrary.sol\";\r\nimport \"../Libraries/Library.sol\";\r\nimport \"./CertisToken.sol\";\r\nimport \"../Base/TokenGovernanceBaseContract.sol\";\r\n\r\n\r\ncontract Treasury is ITreasury, TokenGovernanceBaseContract{\r\n    using Library for *;\r\n    using UintLibrary for *;\r\n\r\n    // DATA /////////////////////////////////////////\r\n    // proposition to change prices\r\n    struct ProposedPricesStruct{\r\n        uint NewPublicPriceWei;\r\n        uint NewCertificatePriceWei;\r\n        uint NewPrivatePriceWei;\r\n        uint NewProviderPriceWei;\r\n        uint NewOwnerRefundPriceWei;\r\n    }\r\n\r\n    ProposedPricesStruct _ProposedPrices;\r\n\r\n    // parameters\r\n    //PublicCertificatesPool  _PublicCertificatesPool;\r\n    uint _PublicPriceWei;\r\n    uint _CertificatePriceWei;\r\n    uint _PrivatePriceWei;\r\n    uint _ProviderPriceWei;\r\n    uint _OwnerRefundPriceWei;\r\n\r\n    // dividends per token owner\r\n    struct _BalanceStruct{\r\n        mapping(uint => uint) _balance;\r\n        uint[] _factors;\r\n    }\r\n    \r\n    mapping(address => _BalanceStruct) _balances;\r\n\r\n    // MODIFIERS /////////////////////////////////////////\r\n    modifier areFundsEnough(Library.Prices price){\r\n        uint256 minPrice = 2**256 - 1;\r\n\r\n        if(Library.Prices.NewProvider == price) minPrice = _PublicPriceWei;\r\n        else if(Library.Prices.NewPool == price) minPrice = _PrivatePriceWei;\r\n        else if(Library.Prices.NewCertificate == price) minPrice = _CertificatePriceWei;\r\n        else minPrice = _ProviderPriceWei;\r\n\r\n        require(msg.value >= minPrice, \"EC2\");\r\n        _;\r\n    }\r\n\r\n    modifier isBalanceEnough(uint amount){\r\n        require(checkBalance(msg.sender) >= amount, \"EC20\");\r\n        _;\r\n    }\r\n\r\n    modifier isFromPublicPool(){\r\n        require(true == Library.ItIsSomeone(_managerContract.retrievePublicCertificatePoolProxy()), \"EC8\");\r\n        _;\r\n    }\r\n\r\n    modifier isPriceOK(uint256 PublicPriceWei, uint256 OwnerRefundPriceWei){\r\n        require(PublicPriceWei >= OwnerRefundPriceWei, \"EC21\");\r\n        _;\r\n    }\r\n\r\n    \r\n    // CONSTRUCTOR /////////////////////////////////////////\r\n    function Treasury_init(uint256 PublicPriceWei, uint256 PrivatePriceWei, uint256 ProviderPriceWei, uint256 CertificatePriceWei, uint256 OwnerRefundPriceWei, address managerContractAddress, uint256 PropositionLifeTime, uint8 PropositionThresholdPercentage, uint8 minWeightToProposePercentage) public initializer \r\n    {\r\n        super.TokenGovernanceContract_init(PropositionLifeTime, PropositionThresholdPercentage, minWeightToProposePercentage, msg.sender, managerContractAddress);\r\n        InternalupdatePrices(PublicPriceWei, PrivatePriceWei, ProviderPriceWei, CertificatePriceWei, OwnerRefundPriceWei, true);\r\n    }\r\n\r\n\r\n    // GOVERNANCE /////////////////////////////////////////\r\n    function updatePrices(uint256 PublicPriceWei, uint256 PrivatePriceWei, uint256 ProviderPriceWei, uint256 CertificatePriceWei, uint256 OwnerRefundPriceWei) external override\r\n    {\r\n        InternalupdatePrices(PublicPriceWei, PrivatePriceWei, ProviderPriceWei, CertificatePriceWei, OwnerRefundPriceWei, false);\r\n    }\r\n\r\n    function InternalupdatePrices(uint256 PublicPriceWei, uint256 PrivatePriceWei, uint256 ProviderPriceWei, uint256 CertificatePriceWei, uint256 OwnerRefundPriceWei, bool fromConstructor) internal\r\n        isPriceOK(PublicPriceWei, OwnerRefundPriceWei)\r\n    {\r\n        if(fromConstructor){\r\n            _PublicPriceWei = PublicPriceWei;\r\n            _PrivatePriceWei = PrivatePriceWei;\r\n             _ProviderPriceWei = ProviderPriceWei;\r\n            _CertificatePriceWei = CertificatePriceWei;\r\n            _OwnerRefundPriceWei = OwnerRefundPriceWei;\r\n        }\r\n        else{\r\n            addProposition(block.timestamp + _PropositionLifeTime, _PropositionThresholdPercentage);\r\n            _ProposedPrices.NewPublicPriceWei = PublicPriceWei;\r\n            _ProposedPrices.NewCertificatePriceWei = CertificatePriceWei;\r\n            _ProposedPrices.NewPrivatePriceWei = PrivatePriceWei;\r\n             _ProposedPrices.NewProviderPriceWei = ProviderPriceWei;\r\n            _ProposedPrices.NewOwnerRefundPriceWei = OwnerRefundPriceWei;\r\n        }\r\n        \r\n    }\r\n\r\n    function propositionApproved() internal override\r\n    {\r\n        _PublicPriceWei = _ProposedPrices.NewPublicPriceWei;\r\n        _PrivatePriceWei = _ProposedPrices.NewPrivatePriceWei;\r\n        _ProviderPriceWei = _ProposedPrices.NewProviderPriceWei;\r\n        _CertificatePriceWei = _ProposedPrices.NewCertificatePriceWei;\r\n        _OwnerRefundPriceWei = _ProposedPrices.NewOwnerRefundPriceWei;\r\n        \r\n        removeProposition();\r\n    }\r\n\r\n    function propositionRejected() internal override\r\n    {\r\n        removeProposition();\r\n    }\r\n\r\n    function propositionExpired() internal override\r\n    {\r\n        removeProposition();\r\n    }\r\n\r\n    function removeProposition() internal\r\n    {\r\n         delete(_ProposedPrices);\r\n    }\r\n\r\n    function retrieveProposition() external override view returns(bytes32[] memory)\r\n    {\r\n        bytes32[] memory proposition = new bytes32[](5);\r\n        proposition[0] = UintLibrary.UintToBytes32(_ProposedPrices.NewPublicPriceWei);\r\n        proposition[1] = UintLibrary.UintToBytes32(_ProposedPrices.NewPrivatePriceWei);\r\n        proposition[2] = UintLibrary.UintToBytes32(_ProposedPrices.NewProviderPriceWei);\r\n        proposition[3] = UintLibrary.UintToBytes32(_ProposedPrices.NewCertificatePriceWei);\r\n        proposition[4] = UintLibrary.UintToBytes32(_ProposedPrices.NewOwnerRefundPriceWei);\r\n        return proposition;\r\n    }\r\n\r\n    // FUNCTIONALITY /////////////////////////////////////////\r\n    function pay(Library.Prices price) external \r\n        areFundsEnough(price)\r\n    override payable\r\n    {\r\n        uint256 amount = msg.value;\r\n        if(price == Library.Prices.NewProvider) amount -= _OwnerRefundPriceWei;\r\n        AssignDividends(amount);\r\n    }\r\n\r\n    function AssignDividends(uint256 amount) internal\r\n    {\r\n        (address[] memory DividendsRecipients, uint256[] memory DividendsRecipientsTokens) = GetTokenOwners();\r\n        uint256 TotalTokenSupply = totalSupply();\r\n\r\n        for(uint i=0; i < DividendsRecipients.length; i++){\r\n            addBalance(DividendsRecipients[i], DividendsRecipientsTokens[i] * amount, TotalTokenSupply);\r\n        }\r\n\r\n    }\r\n\r\n    function getRefund(address addr, uint numberOfOwners) external \r\n        isFromPublicPool()\r\n    override\r\n    {\r\n        addBalance(addr, _OwnerRefundPriceWei, numberOfOwners);\r\n    }\r\n\r\n    function withdraw(uint amount) external \r\n        isBalanceEnough(amount)\r\n    override\r\n    {\r\n        uint[] memory f = returnFactors(msg.sender);\r\n        uint total = 0;\r\n        uint i = 0;\r\n\r\n        while ((total < amount) && (i < f.length)){\r\n            uint amountForFactor = returnBalanceForFactor(msg.sender, f[i]) / f[i];\r\n            if(amountForFactor > (amount - total)) amountForFactor = amount - total;\r\n            total += amountForFactor;\r\n            substractBalance(msg.sender, amountForFactor * f[i], f[i]);\r\n            i++;\r\n        }\r\n\r\n        require(total == amount, \"UnExpected problem calculating the amount to withdraw\");\r\n\r\n        payable(msg.sender).transfer(total);\r\n    }\r\n\r\n    function retrieveBalance(address addr) external override view returns(uint)\r\n    {\r\n        return checkBalance(addr);\r\n    }\r\n\r\n    function retrievePrices() external override view returns(uint, uint, uint, uint, uint)\r\n    {\r\n        return(_PublicPriceWei, _PrivatePriceWei, _ProviderPriceWei, _CertificatePriceWei, _OwnerRefundPriceWei);\r\n    }\r\n\r\n    function checkBalance(address addr) internal view returns(uint){\r\n        uint[] memory f = returnFactors(addr);\r\n        uint total = 0;\r\n\r\n        for(uint i=0; i < f.length; i++){\r\n            total += returnBalanceForFactor(addr, f[i]) / f[i];\r\n        }\r\n\r\n        return total;\r\n    }\r\n\r\n    function returnFactors(address addr) public view returns(uint[] memory){\r\n        return _balances[addr]._factors;\r\n    }\r\n\r\n    function returnBalanceForFactor(address addr, uint factor) public view returns(uint){\r\n        return _balances[addr]._balance[factor];\r\n    }\r\n\r\n    function addBalance(address addr, uint amount, uint factor) private\r\n    {\r\n        if(0 == _balances[addr]._balance[factor]){\r\n             _balances[addr]._factors.push(factor);\r\n        }\r\n\r\n       _balances[addr]._balance[factor] += amount;\r\n    }\r\n\r\n    function substractBalance(address addr, uint amount, uint factor) private\r\n    {\r\n        require(_balances[addr]._balance[factor] >= amount, \"Not enough balance for this factor\");\r\n\r\n        _balances[addr]._balance[factor] -= amount;\r\n\r\n        if(0 == _balances[addr]._balance[factor]){\r\n            _balances[addr]._factors = UintLibrary.UintArrayRemoveResize(UintLibrary.FindUintPosition(factor, _balances[addr]._factors), _balances[addr]._factors);\r\n        }\r\n        \r\n    }\r\n\r\n}",
  "sourcePath": "C:\\Users\\d-aam\\GitHub\\Certificates\\contracts\\DeployedContracts\\Treasury.sol",
  "compiler": {
    "name": "solc",
    "version": "0.8.6+commit.11564f7e.Emscripten.clang"
  },
  "schemaVersion": "3.3.4",
  "updatedAt": "2021-08-06T11:43:03.414Z",
  "devdoc": {
    "kind": "dev",
    "methods": {},
    "version": 1
  },
  "userdoc": {
    "kind": "user",
    "methods": {},
    "version": 1
  }
}