{
  "contractName": "Treasury",
  "abi": [
    {
      "inputs": [],
      "name": "cancelProposition",
      "outputs": [],
      "stateMutability": "nonpayable",
      "type": "function"
    },
    {
      "inputs": [],
      "name": "retrievePropConfig",
      "outputs": [
        {
          "internalType": "uint256",
          "name": "",
          "type": "uint256"
        },
        {
          "internalType": "uint8",
          "name": "",
          "type": "uint8"
        },
        {
          "internalType": "uint8",
          "name": "",
          "type": "uint8"
        }
      ],
      "stateMutability": "view",
      "type": "function"
    },
    {
      "inputs": [],
      "name": "retrievePropositionStatus",
      "outputs": [
        {
          "internalType": "address",
          "name": "",
          "type": "address"
        },
        {
          "internalType": "uint256",
          "name": "",
          "type": "uint256"
        },
        {
          "internalType": "uint256",
          "name": "",
          "type": "uint256"
        },
        {
          "internalType": "uint256",
          "name": "",
          "type": "uint256"
        },
        {
          "internalType": "uint256",
          "name": "",
          "type": "uint256"
        },
        {
          "internalType": "address[]",
          "name": "",
          "type": "address[]"
        },
        {
          "internalType": "uint256[]",
          "name": "",
          "type": "uint256[]"
        },
        {
          "internalType": "address[]",
          "name": "",
          "type": "address[]"
        }
      ],
      "stateMutability": "view",
      "type": "function"
    },
    {
      "inputs": [
        {
          "internalType": "uint256",
          "name": "PropLifeTime",
          "type": "uint256"
        },
        {
          "internalType": "uint8",
          "name": "PropThresholdPerc",
          "type": "uint8"
        },
        {
          "internalType": "uint8",
          "name": "minWeightToPropPerc",
          "type": "uint8"
        }
      ],
      "name": "updateProp",
      "outputs": [],
      "stateMutability": "nonpayable",
      "type": "function"
    },
    {
      "inputs": [
        {
          "internalType": "bool",
          "name": "vote",
          "type": "bool"
        }
      ],
      "name": "voteProposition",
      "outputs": [],
      "stateMutability": "nonpayable",
      "type": "function"
    },
    {
      "inputs": [
        {
          "internalType": "uint256",
          "name": "PublicPriceWei",
          "type": "uint256"
        },
        {
          "internalType": "uint256",
          "name": "PrivatePriceWei",
          "type": "uint256"
        },
        {
          "internalType": "uint256",
          "name": "CertificatePriceWei",
          "type": "uint256"
        },
        {
          "internalType": "uint256",
          "name": "OwnerRefundPriceWei",
          "type": "uint256"
        },
        {
          "internalType": "address",
          "name": "managerContractAddress",
          "type": "address"
        },
        {
          "internalType": "uint256",
          "name": "PropositionLifeTime",
          "type": "uint256"
        },
        {
          "internalType": "uint8",
          "name": "PropositionThresholdPercentage",
          "type": "uint8"
        },
        {
          "internalType": "uint8",
          "name": "minWeightToProposePercentage",
          "type": "uint8"
        }
      ],
      "name": "Treasury_init",
      "outputs": [],
      "stateMutability": "nonpayable",
      "type": "function"
    },
    {
      "inputs": [
        {
          "internalType": "uint256",
          "name": "PublicPriceWei",
          "type": "uint256"
        },
        {
          "internalType": "uint256",
          "name": "PrivatePriceWei",
          "type": "uint256"
        },
        {
          "internalType": "uint256",
          "name": "CertificatePriceWei",
          "type": "uint256"
        },
        {
          "internalType": "uint256",
          "name": "OwnerRefundPriceWei",
          "type": "uint256"
        }
      ],
      "name": "updatePrices",
      "outputs": [],
      "stateMutability": "nonpayable",
      "type": "function"
    },
    {
      "inputs": [],
      "name": "retrieveProposition",
      "outputs": [
        {
          "internalType": "string[]",
          "name": "",
          "type": "string[]"
        }
      ],
      "stateMutability": "view",
      "type": "function"
    },
    {
      "inputs": [
        {
          "internalType": "address",
          "name": "PublicPoolAddressProxy",
          "type": "address"
        },
        {
          "internalType": "address",
          "name": "CertisTokenAddressProxy",
          "type": "address"
        }
      ],
      "name": "updateContracts",
      "outputs": [],
      "stateMutability": "nonpayable",
      "type": "function"
    },
    {
      "inputs": [
        {
          "internalType": "enum Library.Prices",
          "name": "price",
          "type": "uint8"
        }
      ],
      "name": "pay",
      "outputs": [],
      "stateMutability": "payable",
      "type": "function"
    },
    {
      "inputs": [
        {
          "internalType": "address",
          "name": "addr",
          "type": "address"
        },
        {
          "internalType": "uint256",
          "name": "numberOfOwners",
          "type": "uint256"
        }
      ],
      "name": "getRefund",
      "outputs": [],
      "stateMutability": "nonpayable",
      "type": "function"
    },
    {
      "inputs": [
        {
          "internalType": "uint256",
          "name": "amount",
          "type": "uint256"
        }
      ],
      "name": "withdraw",
      "outputs": [],
      "stateMutability": "nonpayable",
      "type": "function"
    },
    {
      "inputs": [
        {
          "internalType": "address",
          "name": "addr",
          "type": "address"
        }
      ],
      "name": "retrieveBalance",
      "outputs": [
        {
          "internalType": "uint256",
          "name": "",
          "type": "uint256"
        }
      ],
      "stateMutability": "view",
      "type": "function"
    },
    {
      "inputs": [],
      "name": "retrievePrices",
      "outputs": [
        {
          "internalType": "uint256",
          "name": "",
          "type": "uint256"
        },
        {
          "internalType": "uint256",
          "name": "",
          "type": "uint256"
        },
        {
          "internalType": "uint256",
          "name": "",
          "type": "uint256"
        },
        {
          "internalType": "uint256",
          "name": "",
          "type": "uint256"
        }
      ],
      "stateMutability": "view",
      "type": "function"
    },
    {
      "inputs": [
        {
          "internalType": "address",
          "name": "addr",
          "type": "address"
        }
      ],
      "name": "returnFactors",
      "outputs": [
        {
          "internalType": "uint256[]",
          "name": "",
          "type": "uint256[]"
        }
      ],
      "stateMutability": "view",
      "type": "function"
    },
    {
      "inputs": [
        {
          "internalType": "address",
          "name": "addr",
          "type": "address"
        },
        {
          "internalType": "uint256",
          "name": "factor",
          "type": "uint256"
        }
      ],
      "name": "returnBalanceForFactor",
      "outputs": [
        {
          "internalType": "uint256",
          "name": "",
          "type": "uint256"
        }
      ],
      "stateMutability": "view",
      "type": "function"
    }
  ],
  "bytecode": "0x608060405234801561001057600080fd5b506126eb806100206000396000f3fe6080604052600436106100c35760003560e01c806325b4f3ca146100c85780632e1a7d4d1461010657806351f69d061461012857806355457ee914610148578063840f6d171461015d578063906816d7146101865780639094929f146101b457806391f91671146101d4578063a93316f5146101f4578063ac2bb44214610216578063c56cb58014610236578063d660ab3414610263578063e20f37ad1461029c578063e692c49f146102bc578063eb1e2a41146102dc578063f0c9325e146102fc575b600080fd5b3480156100d457600080fd5b506014546016546015546017546040805194855260208501939093529183015260608201526080015b60405180910390f35b34801561011257600080fd5b506101266101213660046120dc565b61030f565b005b34801561013457600080fd5b5061012661014336600461210e565b6104f1565b34801561015457600080fd5b50610126610505565b34801561016957600080fd5b50610172610565565b6040516100fd989796959493929190612327565b34801561019257600080fd5b506101a66101a1366004611ebb565b6106d5565b6040519081526020016100fd565b3480156101c057600080fd5b506101266101cf366004612140565b6106fd565b3480156101e057600080fd5b506101266101ef366004611fee565b610794565b34801561020057600080fd5b50610209610a33565b6040516100fd9190612398565b34801561022257600080fd5b506101266102313660046121b6565b610d0f565b34801561024257600080fd5b50610256610251366004611e65565b610d21565b6040516100fd9190612412565b34801561026f57600080fd5b50600a54600b546040805192835260ff8083166020850152610100909204909116908201526060016100fd565b3480156102a857600080fd5b506101a66102b7366004611e65565b610d90565b3480156102c857600080fd5b506101266102d7366004611e82565b610da1565b3480156102e857600080fd5b506101266102f7366004611ebb565b610e87565b61012661030a366004612028565b610f47565b808061031a33611016565b101561035a5760405162461bcd60e51b8152600401610351906020808252600490820152630454332360e41b604082015260600190565b60405180910390fd5b600061036533610d21565b90506000805b848210801561037a5750825181105b1561044f57600083828151811061039357610393612666565b60200260200101516103be338685815181106103b1576103b1612666565b60200260200101516106d5565b6103c8919061259b565b90506103d483876125dc565b8111156103e8576103e583876125dc565b90505b6103f28184612583565b925061043c3385848151811061040a5761040a612666565b60200260200101518361041d91906125bd565b86858151811061042f5761042f612666565b6020026020010151611091565b816104468161261f565b9250505061036b565b8482146104bc5760405162461bcd60e51b815260206004820152603560248201527f556e45787065637465642070726f626c656d2063616c63756c6174696e672074604482015274686520616d6f756e7420746f20776974686472617760581b6064820152608401610351565b604051339083156108fc029084906000818181858888f193505050501580156104e9573d6000803e3d6000fd5b505050505050565b6104ff8484848460006112e0565b50505050565b600161050f61135b565b15156001146105305760405162461bcd60e51b815260040161035190612491565b6002546001600160a01b0316331461055a5760405162461bcd60e51b815260040161035190612425565b610562611395565b50565b60008060008060006060806060600260000160009054906101000a90046001600160a01b031660026001015460028001546002600301546002600401546002600501600260060160026007018280548060200260200160405190810160405280929190818152602001828054801561060657602002820191906000526020600020905b81546001600160a01b031681526001909101906020018083116105e8575b505050505092508180548060200260200160405190810160405280929190818152602001828054801561065857602002820191906000526020600020905b815481526020019060010190808311610644575b50505050509150808054806020026020016040519081016040528092919081815260200182805480156106b457602002820191906000526020600020905b81546001600160a01b03168152600190910190602001808311610696575b50505050509050975097509750975097509750975097509091929394959697565b6001600160a01b03919091166000908152601860209081526040808320938352929052205490565b600054610100900460ff1680610716575060005460ff16155b6107325760405162461bcd60e51b815260040161035190612443565b600054610100900460ff16158015610754576000805461ffff19166101011790555b610760848484336113e2565b61076985611481565b6107778989898960016112e0565b8015610789576000805461ff00191690555b505050505050505050565b600161079e61135b565b15156001146107bf5760405162461bcd60e51b815260040161035190612491565b61082633600260050180548060200260200160405190810160405280929190818152602001828054801561081c57602002820191906000526020600020905b81546001600160a01b031681526001909101906020018083116107fe575b505050505061150d565b15156001146108605760405162461bcd60e51b8152600401610351906020808252600490820152634543323360e01b604082015260600190565b60405163f7cf62d760e01b815273__AddressLibrary________________________9063f7cf62d79061089a9033906009906004016122d6565b60206040518083038186803b1580156108b257600080fd5b505af41580156108c6573d6000803e3d6000fd5b505050506040513d601f19601f820116820180604052508101906108ea919061200b565b1561091d5760405162461bcd60e51b815260206004820152600360248201526245433560e81b6044820152606401610351565b600354421015610a0b57600980546001810182556000919091527f6e1540171b6c0c960b71a7020d9f60077f6af931a8bbf590da0223dacf75c7af0180546001600160a01b0319163317905581156109bc5760086109823361097d611523565b6115b8565b8154811061099257610992612666565b9060005260206000200154600260030160008282546109b19190612583565b909155506109ff9050565b60086109ca3361097d611523565b815481106109da576109da612666565b9060005260206000200154600260040160008282546109f99190612583565b90915550505b610a0761164e565b5050565b600e5460ff1615610a2357610a1e611705565b610a2b565b610a2b611721565b610a07611395565b60408051600480825260a0820190925260609160009190816020015b6060815260200190600190039081610a4f575050600f5460405163a76d54ff60e01b8152600481019190915290915073__UintLibrary___________________________9063a76d54ff9060240160006040518083038186803b158015610ab557600080fd5b505af4158015610ac9573d6000803e3d6000fd5b505050506040513d6000823e601f3d908101601f19168201604052610af19190810190612049565b81600081518110610b0457610b04612666565b602090810291909101015260115460405163a76d54ff60e01b8152600481019190915273__UintLibrary___________________________9063a76d54ff9060240160006040518083038186803b158015610b5e57600080fd5b505af4158015610b72573d6000803e3d6000fd5b505050506040513d6000823e601f3d908101601f19168201604052610b9a9190810190612049565b81600181518110610bad57610bad612666565b602090810291909101015260105460405163a76d54ff60e01b8152600481019190915273__UintLibrary___________________________9063a76d54ff9060240160006040518083038186803b158015610c0757600080fd5b505af4158015610c1b573d6000803e3d6000fd5b505050506040513d6000823e601f3d908101601f19168201604052610c439190810190612049565b81600281518110610c5657610c56612666565b602090810291909101015260125460405163a76d54ff60e01b8152600481019190915273__UintLibrary___________________________9063a76d54ff9060240160006040518083038186803b158015610cb057600080fd5b505af4158015610cc4573d6000803e3d6000fd5b505050506040513d6000823e601f3d908101601f19168201604052610cec9190810190612049565b81600381518110610cff57610cff612666565b6020908102919091010152919050565b610d1c838383600061173a565b505050565b6001600160a01b038116600090815260186020908152604091829020600101805483518184028101840190945280845260609392830182828015610d8457602002820191906000526020600020905b815481526020019060010190808311610d70575b50505050509050919050565b6000610d9b82611016565b92915050565b600e54604051630d1d719d60e41b815273__Library_______________________________9163d1d719d091610de89161010090046001600160a01b031690600401612266565b60206040518083038186803b158015610e0057600080fd5b505af4158015610e14573d6000803e3d6000fd5b505050506040513d601f19601f82011682018060405250810190610e38919061200b565b1515600114610e595760405162461bcd60e51b8152600401610351906124cd565b601380546001600160a01b039384166001600160a01b03199182161790915560018054929093169116179055565b601354604051630d1d719d60e41b815273__Library_______________________________9163d1d719d091610ec9916001600160a01b031690600401612266565b60206040518083038186803b158015610ee157600080fd5b505af4158015610ef5573d6000803e3d6000fd5b505050506040513d601f19601f82011682018060405250810190610f19919061200b565b1515600114610f3a5760405162461bcd60e51b8152600401610351906124cd565b610a0782601754836117ed565b80600019816002811115610f5d57610f5d612650565b610f6a5750601454610fac565b816002811115610f7c57610f7c612650565b60011415610f8d5750601654610fac565b816002811115610f9f57610f9f612650565b60021415610fac57506015545b80341015610fe25760405162461bcd60e51b815260206004820152600360248201526222a19960e91b6044820152606401610351565b346000846002811115610ff757610ff7612650565b141561100d5760175461100a90826125dc565b90505b6104ff81611881565b60008061102283610d21565b90506000805b82518110156110895782818151811061104357611043612666565b6020026020010151611061868584815181106103b1576103b1612666565b61106b919061259b565b6110759083612583565b9150806110818161261f565b915050611028565b509392505050565b6001600160a01b038316600090815260186020908152604080832084845290915290205482111561110f5760405162461bcd60e51b815260206004820152602260248201527f4e6f7420656e6f7567682062616c616e636520666f722074686973206661637460448201526137b960f11b6064820152608401610351565b6001600160a01b0383166000908152601860209081526040808320848452909152812080548492906111429084906125dc565b90915550506001600160a01b0383166000908152601860209081526040808320848452909152902054610d1c576001600160a01b0383166000908152601860205260409081902090516362fe358160e11b815273__UintLibrary___________________________916302fbee9e91839163c5fc6b02916111cd9187916001909101906004016124ea565b60206040518083038186803b1580156111e557600080fd5b505af41580156111f9573d6000803e3d6000fd5b505050506040513d601f19601f8201168201806040525081019061121d91906120f5565b6001600160a01b0386166000908152601860205260409081902090516001600160e01b031960e085901b16815261125b9291600101906004016124ea565b60006040518083038186803b15801561127357600080fd5b505af4158015611287573d6000803e3d6000fd5b505050506040513d6000823e601f3d908101601f191682016040526112af9190810190611fb2565b6001600160a01b038416600090815260186020908152604090912082516104ff936001909201929190910190611d0f565b8482808210156113025760405162461bcd60e51b8152600401610351906124af565b8215611321576014879055601686905560158590556017849055611352565b61133d600a54426113329190612583565b600b5460ff16611a02565b600f8790556010859055601186905560128490555b50505050505050565b60035460009042101561136e5750600190565b6002546001600160a01b03161561138f57611387611721565b61138f611395565b50600090565b600280546001600160a01b0319168155600060038190556004819055600581905560068190556113c6600782611d5a565b6113d4600683016000611d5a565b610a07600783016000611d5a565b600054610100900460ff16806113fb575060005460ff16155b6114175760405162461bcd60e51b815260040161035190612443565b600054610100900460ff16158015611439576000805461ffff19166101011790555b6000805462010000600160b01b031916620100006001600160a01b03851602179055611468858585600161173a565b801561147a576000805461ff00191690555b5050505050565b600054610100900460ff168061149a575060005460ff16155b6114b65760405162461bcd60e51b815260040161035190612443565b600054610100900460ff161580156114d8576000805461ffff19166101011790555b600e8054610100600160a81b0319166101006001600160a01b038516021790558015610a07576000805461ff00191690555050565b6000815161151b84846115b8565b109392505050565b60606000600160009054906101000a90046001600160a01b03166001600160a01b03166388d44ee06040518163ffffffff1660e01b815260040160006040518083038186803b15801561157557600080fd5b505afa158015611589573d6000803e3d6000fd5b505050506040513d6000823e601f3d908101601f191682016040526115b19190810190611ee7565b5092915050565b60405160016219125f60e01b0319815260009073__AddressLibrary________________________9063ffe6eda1906115f7908690869060040161227a565b60206040518083038186803b15801561160f57600080fd5b505af4158015611623573d6000803e3d6000fd5b505050506040513d601f19601f8201168201806040525081019061164791906120f5565b9392505050565b60045460055411156116de57600e5460ff16156116a057600c54600a55600d54600b805461010080840460ff90811690910261ffff1990921693169290921791909117905561169b611705565b6116d4565b6116d4600f546014556011546016556010546015556012546017556116dc6000600f81905560108190556011819055601255565b6116dc611395565b565b60045460065411156116dc57600e5460ff16156116fd5761169b611705565b6116d4611721565b6000600c55600d805461ffff19169055600e805460ff19169055565b6116dc6000600f81905560108190556011819055601255565b82828160ff16606410156117605760405162461bcd60e51b8152600401610351906124af565b8060ff16606410156117845760405162461bcd60e51b8152600401610351906124af565b82156117af57600a869055600b805460ff8681166101000261ffff19909216908816171790556104e9565b600c869055600d805460ff8681166101000261ffff1990921690881617179055600e805460ff19166001179055600a546104e9906113329042612583565b6001600160a01b0383166000908152601860209081526040808320848452909152902054611844576001600160a01b0383166000908152601860209081526040822060019081018054918201815583529120018190555b6001600160a01b038316600090815260186020908152604080832084845290915281208054849290611877908490612583565b9091555050505050565b600080600160009054906101000a90046001600160a01b03166001600160a01b03166388d44ee06040518163ffffffff1660e01b815260040160006040518083038186803b1580156118d257600080fd5b505afa1580156118e6573d6000803e3d6000fd5b505050506040513d6000823e601f3d908101601f1916820160405261190e9190810190611ee7565b915091506000600160009054906101000a90046001600160a01b03166001600160a01b03166318160ddd6040518163ffffffff1660e01b815260040160206040518083038186803b15801561196257600080fd5b505afa158015611976573d6000803e3d6000fd5b505050506040513d601f19601f8201168201806040525081019061199a91906120f5565b905060005b835181101561147a576119f08482815181106119bd576119bd612666565b6020026020010151868584815181106119d8576119d8612666565b60200260200101516119ea91906125bd565b846117ed565b806119fa8161261f565b91505061199f565b6000611a0c61135b565b15611a425760405162461bcd60e51b8152600401610351906020808252600490820152631150cc8d60e21b604082015260600190565b611a4b33611b4b565b1515600114611a6c5760405162461bcd60e51b815260040161035190612425565b611a74611523565b8051611a8891600791602090910190611d78565b50600754611af35760405162461bcd60e51b815260206004820152603260248201527f496d706f737369626c6520746f206164642070726f706f736974696f6e2c20746044820152716865726520617265206e6f2061646d696e7360701b6064820152608401610351565b600280546001600160a01b031916331790556003839055606460ff8316611b18611bff565b611b2291906125bd565b611b2c919061259b565b600455611b37611c81565b80516104ff91600891602090910190611d0f565b600080546201000090046001600160a01b0316331415611b6d57506001919050565b6000611b77611523565b90506000611b83611c81565b90506000611b9185846115b8565b90508251811015611bef576064611ba6611bff565b600b54611bbb9190610100900460ff166125bd565b611bc5919061259b565b828281518110611bd757611bd7612666565b602002602001015110611bef57506001949350505050565b506000949350505050565b919050565b600154604080516318160ddd60e01b815290516000926001600160a01b0316916318160ddd916004808301926020929190829003018186803b158015611c4457600080fd5b505afa158015611c58573d6000803e3d6000fd5b505050506040513d601f19601f82011682018060405250810190611c7c91906120f5565b905090565b60606000600160009054906101000a90046001600160a01b03166001600160a01b03166388d44ee06040518163ffffffff1660e01b815260040160006040518083038186803b158015611cd357600080fd5b505afa158015611ce7573d6000803e3d6000fd5b505050506040513d6000823e601f3d908101601f191682016040526116479190810190611ee7565b828054828255906000526020600020908101928215611d4a579160200282015b82811115611d4a578251825591602001919060010190611d2f565b50611d56929150611dcd565b5090565b50805460008255906000526020600020908101906105629190611dcd565b828054828255906000526020600020908101928215611d4a579160200282015b82811115611d4a57825182546001600160a01b0319166001600160a01b03909116178255602090920191600190910190611d98565b5b80821115611d565760008155600101611dce565b600082601f830112611df357600080fd5b81516020611e08611e0383612560565b612530565b80838252828201915082860187848660051b8901011115611e2857600080fd5b60005b85811015611e4757815184529284019290840190600101611e2b565b5090979650505050505050565b803560ff81168114611bfa57600080fd5b600060208284031215611e7757600080fd5b813561164781612692565b60008060408385031215611e9557600080fd5b8235611ea081612692565b91506020830135611eb081612692565b809150509250929050565b60008060408385031215611ece57600080fd5b8235611ed981612692565b946020939093013593505050565b60008060408385031215611efa57600080fd5b82516001600160401b0380821115611f1157600080fd5b818501915085601f830112611f2557600080fd5b81516020611f35611e0383612560565b8083825282820191508286018a848660051b8901011115611f5557600080fd5b600096505b84871015611f81578051611f6d81612692565b835260019690960195918301918301611f5a565b5091880151919650909350505080821115611f9b57600080fd5b50611fa885828601611de2565b9150509250929050565b600060208284031215611fc457600080fd5b81516001600160401b03811115611fda57600080fd5b611fe684828501611de2565b949350505050565b60006020828403121561200057600080fd5b8135611647816126a7565b60006020828403121561201d57600080fd5b8151611647816126a7565b60006020828403121561203a57600080fd5b81356003811061164757600080fd5b60006020828403121561205b57600080fd5b81516001600160401b038082111561207257600080fd5b818401915084601f83011261208657600080fd5b8151818111156120985761209861267c565b6120ab601f8201601f1916602001612530565b91508082528560208285010111156120c257600080fd5b6120d38160208401602086016125f3565b50949350505050565b6000602082840312156120ee57600080fd5b5035919050565b60006020828403121561210757600080fd5b5051919050565b6000806000806080858703121561212457600080fd5b5050823594602084013594506040840135936060013592509050565b600080600080600080600080610100898b03121561215d57600080fd5b88359750602089013596506040890135955060608901359450608089013561218481612692565b935060a0890135925061219960c08a01611e54565b91506121a760e08a01611e54565b90509295985092959890939650565b6000806000606084860312156121cb57600080fd5b833592506121db60208501611e54565b91506121e960408501611e54565b90509250925092565b600081518084526020808501945080840160005b8381101561222b5781516001600160a01b031687529582019590820190600101612206565b509495945050505050565b600081518084526020808501945080840160005b8381101561222b5781518752958201959082019060010161224a565b6001600160a01b0391909116815260200190565b6001600160a01b038381168252604060208084018290528451918401829052600092858201929091906060860190855b818110156122c85785518516835294830194918301916001016122aa565b509098975050505050505050565b60006040820160018060a01b03808616845260206040818601528286548085526060870191508760005282600020945060005b818110156122c8578554851683526001958601959284019201612309565b600061010060018060a01b038b1683528960208401528860408401528760608401528660808401528060a0840152612361818401876121f2565b905082810360c08401526123758186612236565b905082810360e084015261238981856121f2565b9b9a5050505050505050505050565b6000602080830181845280855180835260408601915060408160051b870101925083870160005b8281101561240557878503603f19018452815180518087526123e6818989018a85016125f3565b601f01601f1916959095018601945092850192908501906001016123bf565b5092979650505050505050565b6020815260006116476020830184612236565b60208082526004908201526322a1991960e11b604082015260600190565b6020808252602e908201527f496e697469616c697a61626c653a20636f6e747261637420697320616c72656160408201526d191e481a5b9a5d1a585b1a5e995960921b606082015260800190565b6020808252600490820152634543323560e01b604082015260600190565b6020808252600490820152634543323160e01b604082015260600190565b60208082526003908201526208a86760eb1b604082015260600190565b60006040820184835260206040818501528185548084526060860191508660005282600020935060005b81811015611e4757845483526001948501949284019201612514565b604051601f8201601f191681016001600160401b03811182821017156125585761255861267c565b604052919050565b60006001600160401b038211156125795761257961267c565b5060051b60200190565b600082198211156125965761259661263a565b500190565b6000826125b857634e487b7160e01b600052601260045260246000fd5b500490565b60008160001904831182151516156125d7576125d761263a565b500290565b6000828210156125ee576125ee61263a565b500390565b60005b8381101561260e5781810151838201526020016125f6565b838111156104ff5750506000910152565b60006000198214156126335761263361263a565b5060010190565b634e487b7160e01b600052601160045260246000fd5b634e487b7160e01b600052602160045260246000fd5b634e487b7160e01b600052603260045260246000fd5b634e487b7160e01b600052604160045260246000fd5b6001600160a01b038116811461056257600080fd5b801515811461056257600080fdfea2646970667358221220c54935b2d7c86d84e7be7937e00a9951d8aa6160da77e127a612a8b54ba1e55464736f6c63430008060033",
  "immutableReferences": {},
  "source": "// SPDX-License-Identifier: GPL-3.0\r\n\r\npragma solidity >=0.7.0 <0.9.0;\r\n\r\n/**\r\n * @title Storage\r\n * @dev Store & retrieve value in a variable\r\n */\r\n\r\nimport \"../Interfaces/ITreasury.sol\";\r\nimport \"./PublicCertificatesPool.sol\";\r\nimport \"../Libraries/UintLibrary.sol\";\r\nimport \"../Libraries/Library.sol\";\r\nimport \"./CertisToken.sol\";\r\nimport \"../Base/TokenGovernanceBaseContract.sol\";\r\nimport \"../Base/ManagedBaseContract.sol\";\r\n\r\n\r\ncontract Treasury is ITreasury, TokenGovernanceBaseContract, ManagedBaseContract{\r\n    using Library for *;\r\n    using UintLibrary for *;\r\n\r\n    // DATA\r\n    // proposition to change prices\r\n    struct ProposedPricesStruct{\r\n        uint NewPublicPriceWei;\r\n        uint NewCertificatePriceWei;\r\n        uint NewPrivatePriceWei;\r\n        uint NewOwnerRefundPriceWei;\r\n    }\r\n\r\n    ProposedPricesStruct _ProposedPrices;\r\n\r\n    // parameters\r\n    PublicCertificatesPool  _PublicCertificatesPool;\r\n    uint _PublicPriceWei;\r\n    uint _CertificatePriceWei;\r\n    uint _PrivatePriceWei;\r\n    uint _OwnerRefundPriceWei;\r\n\r\n    // dividends per token owner\r\n    struct _BalanceStruct{\r\n        mapping(uint => uint) _balance;\r\n        uint[] _factors;\r\n    }\r\n    \r\n    mapping(address => _BalanceStruct) _balances;\r\n\r\n    // MODIFIERS\r\n    modifier areFundsEnough(Library.Prices price){\r\n        uint256 minPrice = 2**256 - 1;\r\n\r\n        if(Library.Prices.NewProvider == price) minPrice = _PublicPriceWei;\r\n        else if(Library.Prices.NewPool == price) minPrice = _PrivatePriceWei;\r\n        else if(Library.Prices.NewCertificate == price) minPrice = _CertificatePriceWei;\r\n\r\n        require(msg.value >= minPrice, \"EC2\");\r\n        _;\r\n    }\r\n\r\n    modifier isBalanceEnough(uint amount){\r\n        require(checkBalance(msg.sender) >= amount, \"EC20\");\r\n        _;\r\n    }\r\n\r\n    modifier isFromPublicPool(){\r\n        require(true == Library.ItIsSomeone(address(_PublicCertificatesPool)), \"EC8\");\r\n        _;\r\n    }\r\n\r\n    modifier isPriceOK(uint256 PublicPriceWei, uint256 OwnerRefundPriceWei){\r\n        require(PublicPriceWei >= OwnerRefundPriceWei, \"EC21\");\r\n        _;\r\n    }\r\n\r\n    \r\n    // CONSTRUCTOR\r\n    /*constructor(uint256 PublicPriceWei, uint256 PrivatePriceWei, uint256 CertificatePriceWei, uint256 OwnerRefundPriceWei, address managerContractAddress, uint256 PropositionLifeTime, uint8 PropositionThresholdPercentage, uint8 minWeightToProposePercentage) \r\n    TokenGovernanceBaseContract(PropositionLifeTime, PropositionThresholdPercentage, minWeightToProposePercentage)\r\n    ManagedBaseContract(managerContractAddress)\r\n    {\r\n        InternalupdatePrices(PublicPriceWei, PrivatePriceWei, CertificatePriceWei, OwnerRefundPriceWei, true);\r\n    }*/\r\n\r\n    function Treasury_init(uint256 PublicPriceWei, uint256 PrivatePriceWei, uint256 CertificatePriceWei, uint256 OwnerRefundPriceWei, address managerContractAddress, uint256 PropositionLifeTime, uint8 PropositionThresholdPercentage, uint8 minWeightToProposePercentage) public initializer \r\n    {\r\n        super.TokenGovernanceContract_init(PropositionLifeTime, PropositionThresholdPercentage, minWeightToProposePercentage, msg.sender);\r\n        super.ManagedBaseContract_init(managerContractAddress);\r\n        InternalupdatePrices(PublicPriceWei, PrivatePriceWei, CertificatePriceWei, OwnerRefundPriceWei, true);\r\n    }\r\n\r\n\r\n    // GOVERNANCE \r\n    function updatePrices(uint256 PublicPriceWei, uint256 PrivatePriceWei, uint256 CertificatePriceWei, uint256 OwnerRefundPriceWei) external override\r\n    {\r\n        InternalupdatePrices(PublicPriceWei, PrivatePriceWei, CertificatePriceWei, OwnerRefundPriceWei, false);\r\n    }\r\n\r\n    function InternalupdatePrices(uint256 PublicPriceWei, uint256 PrivatePriceWei, uint256 CertificatePriceWei, uint256 OwnerRefundPriceWei, bool fromConstructor) internal\r\n        isPriceOK(PublicPriceWei, OwnerRefundPriceWei)\r\n    {\r\n        if(fromConstructor){\r\n            _PublicPriceWei = PublicPriceWei;\r\n            _PrivatePriceWei = PrivatePriceWei;\r\n            _CertificatePriceWei = CertificatePriceWei;\r\n            _OwnerRefundPriceWei = OwnerRefundPriceWei;\r\n        }\r\n        else{\r\n            addProposition(block.timestamp + _PropositionLifeTime, _PropositionThresholdPercentage);\r\n            _ProposedPrices.NewPublicPriceWei = PublicPriceWei;\r\n            _ProposedPrices.NewCertificatePriceWei = CertificatePriceWei;\r\n            _ProposedPrices.NewPrivatePriceWei = PrivatePriceWei;\r\n            _ProposedPrices.NewOwnerRefundPriceWei = OwnerRefundPriceWei;\r\n        }\r\n        \r\n    }\r\n\r\n    function propositionApproved() internal override\r\n    {\r\n        _PublicPriceWei = _ProposedPrices.NewPublicPriceWei;\r\n        _PrivatePriceWei = _ProposedPrices.NewPrivatePriceWei;\r\n        _CertificatePriceWei = _ProposedPrices.NewCertificatePriceWei;\r\n        _OwnerRefundPriceWei = _ProposedPrices.NewOwnerRefundPriceWei;\r\n        \r\n        removeProposition();\r\n    }\r\n\r\n    function propositionRejected() internal override\r\n    {\r\n        removeProposition();\r\n    }\r\n\r\n    function propositionExpired() internal override\r\n    {\r\n        removeProposition();\r\n    }\r\n\r\n    function removeProposition() internal\r\n    {\r\n         delete(_ProposedPrices);\r\n    }\r\n\r\n    function retrieveProposition() external override view returns(string[] memory)\r\n    {\r\n        string[] memory proposition = new string[](4);\r\n        proposition[0] = UintLibrary.UintToString(_ProposedPrices.NewPublicPriceWei);\r\n        proposition[1] = UintLibrary.UintToString(_ProposedPrices.NewPrivatePriceWei);\r\n        proposition[2] = UintLibrary.UintToString(_ProposedPrices.NewCertificatePriceWei);\r\n        proposition[3] = UintLibrary.UintToString(_ProposedPrices.NewOwnerRefundPriceWei);\r\n        return proposition;\r\n    }\r\n\r\n    // FUNCTIONALITY\r\n    function updateContracts(address PublicPoolAddressProxy, address CertisTokenAddressProxy) external \r\n        isFromManagerContract()\r\n    override\r\n    {\r\n        _PublicCertificatesPool = PublicCertificatesPool(PublicPoolAddressProxy);\r\n        _CertisToken = CertisToken(CertisTokenAddressProxy); \r\n    }\r\n\r\n    function pay(Library.Prices price) external \r\n        areFundsEnough(price)\r\n    override payable\r\n    {\r\n        uint256 amount = msg.value;\r\n        if(price == Library.Prices.NewProvider) amount -= _OwnerRefundPriceWei;\r\n        AssignDividends(amount);\r\n    }\r\n\r\n    function AssignDividends(uint256 amount) internal\r\n    {\r\n        (address[] memory DividendsRecipients, uint256[] memory DividendsRecipientsTokens) = _CertisToken.TokenOwners();\r\n        uint256 TotalTokenSupply = _CertisToken.totalSupply();\r\n\r\n        for(uint i=0; i < DividendsRecipients.length; i++){\r\n            addBalance(DividendsRecipients[i], DividendsRecipientsTokens[i] * amount, TotalTokenSupply);\r\n        }\r\n\r\n    }\r\n\r\n    function getRefund(address addr, uint numberOfOwners) external \r\n        isFromPublicPool()\r\n    override\r\n    {\r\n        addBalance(addr, _OwnerRefundPriceWei, numberOfOwners);\r\n    }\r\n\r\n    function withdraw(uint amount) external \r\n        isBalanceEnough(amount)\r\n    override\r\n    {\r\n        uint[] memory f = returnFactors(msg.sender);\r\n        uint total = 0;\r\n        uint i = 0;\r\n\r\n        while ((total < amount) && (i < f.length)){\r\n            uint amountForFactor = returnBalanceForFactor(msg.sender, f[i]) / f[i];\r\n            if(amountForFactor > (amount - total)) amountForFactor = amount - total;\r\n            total += amountForFactor;\r\n            substractBalance(msg.sender, amountForFactor * f[i], f[i]);\r\n            i++;\r\n        }\r\n\r\n        require(total == amount, \"UnExpected problem calculating the amount to withdraw\");\r\n\r\n        payable(msg.sender).transfer(total);\r\n    }\r\n\r\n    function retrieveBalance(address addr) external override view returns(uint)\r\n    {\r\n        return checkBalance(addr);\r\n    }\r\n\r\n    function retrievePrices() external override view returns(uint, uint, uint, uint)\r\n    {\r\n        return(_PublicPriceWei, _PrivatePriceWei, _CertificatePriceWei, _OwnerRefundPriceWei);\r\n    }\r\n\r\n    function checkBalance(address addr) internal view returns(uint){\r\n        uint[] memory f = returnFactors(addr);\r\n        uint total = 0;\r\n\r\n        for(uint i=0; i < f.length; i++){\r\n            total += returnBalanceForFactor(addr, f[i]) / f[i];\r\n        }\r\n\r\n        return total;\r\n    }\r\n\r\n    function returnFactors(address addr) public view returns(uint[] memory){\r\n        return _balances[addr]._factors;\r\n    }\r\n\r\n    function returnBalanceForFactor(address addr, uint factor) public view returns(uint){\r\n        return _balances[addr]._balance[factor];\r\n    }\r\n\r\n    function addBalance(address addr, uint amount, uint factor) private\r\n    {\r\n        if(0 == _balances[addr]._balance[factor]){\r\n             _balances[addr]._factors.push(factor);\r\n        }\r\n\r\n       _balances[addr]._balance[factor] += amount;\r\n    }\r\n\r\n    function substractBalance(address addr, uint amount, uint factor) private\r\n    {\r\n        require(_balances[addr]._balance[factor] >= amount, \"Not enough balance for this factor\");\r\n\r\n        _balances[addr]._balance[factor] -= amount;\r\n\r\n        if(0 == _balances[addr]._balance[factor]){\r\n            _balances[addr]._factors = UintLibrary.UintArrayRemoveResize(UintLibrary.FindUintPosition(factor, _balances[addr]._factors), _balances[addr]._factors);\r\n        }\r\n        \r\n    }\r\n\r\n}",
  "sourcePath": "C:\\Users\\d-aam\\GitHub\\Certificates\\contracts\\DeployedContracts\\Treasury.sol",
  "compiler": {
    "name": "solc",
    "version": "0.8.6+commit.11564f7e.Emscripten.clang"
  },
  "schemaVersion": "3.3.4",
  "updatedAt": "2021-08-03T09:08:30.795Z",
  "devdoc": {
    "kind": "dev",
    "methods": {},
    "version": 1
  },
  "userdoc": {
    "kind": "user",
    "methods": {},
    "version": 1
  }
}