{
  "contractName": "Treasury",
  "abi": [
    {
      "anonymous": false,
      "inputs": [
        {
          "indexed": false,
          "internalType": "uint256",
          "name": "",
          "type": "uint256"
        },
        {
          "indexed": true,
          "internalType": "address",
          "name": "",
          "type": "address"
        },
        {
          "indexed": false,
          "internalType": "uint256",
          "name": "",
          "type": "uint256"
        },
        {
          "indexed": false,
          "internalType": "uint256",
          "name": "",
          "type": "uint256"
        }
      ],
      "name": "_AddedProposition",
      "type": "event"
    },
    {
      "anonymous": false,
      "inputs": [
        {
          "indexed": true,
          "internalType": "address",
          "name": "",
          "type": "address"
        },
        {
          "indexed": false,
          "internalType": "uint256",
          "name": "",
          "type": "uint256"
        },
        {
          "indexed": false,
          "internalType": "uint256",
          "name": "",
          "type": "uint256"
        }
      ],
      "name": "_AssignDividend",
      "type": "event"
    },
    {
      "anonymous": false,
      "inputs": [
        {
          "indexed": false,
          "internalType": "uint256",
          "name": "",
          "type": "uint256"
        },
        {
          "indexed": true,
          "internalType": "address",
          "name": "",
          "type": "address"
        }
      ],
      "name": "_CancelledProposition",
      "type": "event"
    },
    {
      "anonymous": false,
      "inputs": [
        {
          "indexed": false,
          "internalType": "uint256",
          "name": "",
          "type": "uint256"
        },
        {
          "indexed": false,
          "internalType": "uint256",
          "name": "",
          "type": "uint256"
        },
        {
          "indexed": false,
          "internalType": "uint256",
          "name": "",
          "type": "uint256"
        },
        {
          "indexed": false,
          "internalType": "uint256",
          "name": "",
          "type": "uint256"
        },
        {
          "indexed": false,
          "internalType": "uint256",
          "name": "",
          "type": "uint256"
        }
      ],
      "name": "_NewPrices",
      "type": "event"
    },
    {
      "anonymous": false,
      "inputs": [
        {
          "indexed": true,
          "internalType": "address",
          "name": "",
          "type": "address"
        },
        {
          "indexed": false,
          "internalType": "uint256",
          "name": "",
          "type": "uint256"
        },
        {
          "indexed": false,
          "internalType": "uint256",
          "name": "",
          "type": "uint256"
        }
      ],
      "name": "_Pay",
      "type": "event"
    },
    {
      "anonymous": false,
      "inputs": [
        {
          "indexed": false,
          "internalType": "uint256",
          "name": "",
          "type": "uint256"
        },
        {
          "indexed": true,
          "internalType": "address",
          "name": "",
          "type": "address"
        },
        {
          "indexed": false,
          "internalType": "uint256",
          "name": "",
          "type": "uint256"
        },
        {
          "indexed": false,
          "internalType": "uint256",
          "name": "",
          "type": "uint256"
        }
      ],
      "name": "_PropositionApproved",
      "type": "event"
    },
    {
      "anonymous": false,
      "inputs": [
        {
          "indexed": false,
          "internalType": "uint256",
          "name": "",
          "type": "uint256"
        },
        {
          "indexed": true,
          "internalType": "address",
          "name": "",
          "type": "address"
        },
        {
          "indexed": false,
          "internalType": "uint256",
          "name": "",
          "type": "uint256"
        },
        {
          "indexed": false,
          "internalType": "uint256",
          "name": "",
          "type": "uint256"
        }
      ],
      "name": "_PropositionRejected",
      "type": "event"
    },
    {
      "anonymous": false,
      "inputs": [
        {
          "indexed": false,
          "internalType": "uint256",
          "name": "",
          "type": "uint256"
        },
        {
          "indexed": true,
          "internalType": "address",
          "name": "",
          "type": "address"
        },
        {
          "indexed": false,
          "internalType": "bool",
          "name": "",
          "type": "bool"
        },
        {
          "indexed": false,
          "internalType": "uint256",
          "name": "",
          "type": "uint256"
        }
      ],
      "name": "_PropositionVote",
      "type": "event"
    },
    {
      "anonymous": false,
      "inputs": [
        {
          "indexed": true,
          "internalType": "address",
          "name": "",
          "type": "address"
        },
        {
          "indexed": false,
          "internalType": "uint256",
          "name": "",
          "type": "uint256"
        },
        {
          "indexed": false,
          "internalType": "uint256",
          "name": "",
          "type": "uint256"
        }
      ],
      "name": "_Refund",
      "type": "event"
    },
    {
      "anonymous": false,
      "inputs": [
        {
          "indexed": true,
          "internalType": "uint256",
          "name": "",
          "type": "uint256"
        },
        {
          "indexed": false,
          "internalType": "address",
          "name": "",
          "type": "address"
        },
        {
          "indexed": false,
          "internalType": "address",
          "name": "",
          "type": "address"
        },
        {
          "indexed": false,
          "internalType": "uint256",
          "name": "",
          "type": "uint256"
        }
      ],
      "name": "_UsedTokensTransfered",
      "type": "event"
    },
    {
      "anonymous": false,
      "inputs": [
        {
          "indexed": true,
          "internalType": "address",
          "name": "",
          "type": "address"
        },
        {
          "indexed": false,
          "internalType": "uint256",
          "name": "",
          "type": "uint256"
        }
      ],
      "name": "_Withdraw",
      "type": "event"
    },
    {
      "inputs": [],
      "name": "cancelProposition",
      "outputs": [],
      "stateMutability": "nonpayable",
      "type": "function"
    },
    {
      "inputs": [
        {
          "internalType": "address",
          "name": "from",
          "type": "address"
        },
        {
          "internalType": "address",
          "name": "to",
          "type": "address"
        },
        {
          "internalType": "uint256",
          "name": "amount",
          "type": "uint256"
        }
      ],
      "name": "onTokenBalanceChanged",
      "outputs": [],
      "stateMutability": "nonpayable",
      "type": "function"
    },
    {
      "inputs": [],
      "name": "retrievePropConfig",
      "outputs": [
        {
          "internalType": "uint256",
          "name": "",
          "type": "uint256"
        },
        {
          "internalType": "uint8",
          "name": "",
          "type": "uint8"
        },
        {
          "internalType": "uint8",
          "name": "",
          "type": "uint8"
        }
      ],
      "stateMutability": "view",
      "type": "function"
    },
    {
      "inputs": [],
      "name": "retrievePropositionStatus",
      "outputs": [
        {
          "internalType": "address",
          "name": "",
          "type": "address"
        },
        {
          "internalType": "uint256",
          "name": "",
          "type": "uint256"
        },
        {
          "internalType": "uint256",
          "name": "",
          "type": "uint256"
        },
        {
          "internalType": "uint256",
          "name": "",
          "type": "uint256"
        },
        {
          "internalType": "uint256",
          "name": "",
          "type": "uint256"
        }
      ],
      "stateMutability": "view",
      "type": "function"
    },
    {
      "inputs": [
        {
          "internalType": "uint256",
          "name": "PropLifeTime",
          "type": "uint256"
        },
        {
          "internalType": "uint8",
          "name": "PropThresholdPerc",
          "type": "uint8"
        },
        {
          "internalType": "uint8",
          "name": "minWeightToPropPerc",
          "type": "uint8"
        }
      ],
      "name": "updateProp",
      "outputs": [],
      "stateMutability": "nonpayable",
      "type": "function"
    },
    {
      "inputs": [
        {
          "internalType": "bool",
          "name": "vote",
          "type": "bool"
        }
      ],
      "name": "voteProposition",
      "outputs": [],
      "stateMutability": "nonpayable",
      "type": "function"
    },
    {
      "inputs": [
        {
          "internalType": "uint256",
          "name": "PublicPriceWei",
          "type": "uint256"
        },
        {
          "internalType": "uint256",
          "name": "PrivatePriceWei",
          "type": "uint256"
        },
        {
          "internalType": "uint256",
          "name": "ProviderPriceWei",
          "type": "uint256"
        },
        {
          "internalType": "uint256",
          "name": "CertificatePriceWei",
          "type": "uint256"
        },
        {
          "internalType": "uint256",
          "name": "OwnerRefundFeeWei",
          "type": "uint256"
        },
        {
          "internalType": "address",
          "name": "managerContractAddress",
          "type": "address"
        },
        {
          "internalType": "uint256",
          "name": "PropositionLifeTime",
          "type": "uint256"
        },
        {
          "internalType": "uint8",
          "name": "PropositionThresholdPercentage",
          "type": "uint8"
        },
        {
          "internalType": "uint8",
          "name": "minWeightToProposePercentage",
          "type": "uint8"
        }
      ],
      "name": "Treasury_init",
      "outputs": [],
      "stateMutability": "nonpayable",
      "type": "function"
    },
    {
      "inputs": [
        {
          "internalType": "uint256",
          "name": "PublicPriceWei",
          "type": "uint256"
        },
        {
          "internalType": "uint256",
          "name": "PrivatePriceWei",
          "type": "uint256"
        },
        {
          "internalType": "uint256",
          "name": "ProviderPriceWei",
          "type": "uint256"
        },
        {
          "internalType": "uint256",
          "name": "CertificatePriceWei",
          "type": "uint256"
        },
        {
          "internalType": "uint256",
          "name": "OwnerRefundFeeWei",
          "type": "uint256"
        }
      ],
      "name": "updatePrices",
      "outputs": [],
      "stateMutability": "nonpayable",
      "type": "function"
    },
    {
      "inputs": [],
      "name": "retrieveProposition",
      "outputs": [
        {
          "internalType": "bytes32[]",
          "name": "",
          "type": "bytes32[]"
        }
      ],
      "stateMutability": "view",
      "type": "function"
    },
    {
      "inputs": [
        {
          "internalType": "enum Library.Prices",
          "name": "price",
          "type": "uint8"
        }
      ],
      "name": "pay",
      "outputs": [],
      "stateMutability": "payable",
      "type": "function"
    },
    {
      "inputs": [],
      "name": "AssignDividends",
      "outputs": [],
      "stateMutability": "nonpayable",
      "type": "function"
    },
    {
      "inputs": [
        {
          "internalType": "address",
          "name": "addr",
          "type": "address"
        },
        {
          "internalType": "uint256",
          "name": "numberOfOwners",
          "type": "uint256"
        }
      ],
      "name": "getRefund",
      "outputs": [],
      "stateMutability": "nonpayable",
      "type": "function"
    },
    {
      "inputs": [
        {
          "internalType": "uint256",
          "name": "amount",
          "type": "uint256"
        }
      ],
      "name": "withdraw",
      "outputs": [],
      "stateMutability": "nonpayable",
      "type": "function"
    },
    {
      "inputs": [
        {
          "internalType": "address",
          "name": "addr",
          "type": "address"
        }
      ],
      "name": "retrieveBalance",
      "outputs": [
        {
          "internalType": "uint256",
          "name": "",
          "type": "uint256"
        }
      ],
      "stateMutability": "view",
      "type": "function"
    },
    {
      "inputs": [],
      "name": "retrievePrices",
      "outputs": [
        {
          "internalType": "uint256",
          "name": "",
          "type": "uint256"
        },
        {
          "internalType": "uint256",
          "name": "",
          "type": "uint256"
        },
        {
          "internalType": "uint256",
          "name": "",
          "type": "uint256"
        },
        {
          "internalType": "uint256",
          "name": "",
          "type": "uint256"
        },
        {
          "internalType": "uint256",
          "name": "",
          "type": "uint256"
        }
      ],
      "stateMutability": "view",
      "type": "function"
    },
    {
      "inputs": [],
      "name": "retrieveAggregatedAmount",
      "outputs": [
        {
          "internalType": "uint256",
          "name": "",
          "type": "uint256"
        }
      ],
      "stateMutability": "view",
      "type": "function"
    }
  ],
  "bytecode": "0x608060405234801561001057600080fd5b506123cc806100206000396000f3fe6080604052600436106100c35760003560e01c806325b4f3ca146100c85780632e1a7d4d146100fe5780633c7df55d1461012057806355457ee914610140578063840f6d171461015557806391f91671146101a3578063922ebecc146101c357806396df6e79146101e3578063a93316f514610203578063ac2bb44214610225578063d40a523614610245578063d5920d491461025a578063d660ab3414610279578063e20f37ad146102b2578063eb1e2a41146102d2578063f0c9325e146102f2575b600080fd5b3480156100d457600080fd5b506013546015546016546014546017546040516100f5959493929190612283565b60405180910390f35b34801561010a57600080fd5b5061011e610119366004611fdf565b610305565b005b34801561012c57600080fd5b5061011e61013b366004611efe565b610484565b34801561014c57600080fd5b5061011e6105c1565b34801561016157600080fd5b50600354600454600554600654600754604080516001600160a01b0390961686526020860194909452928401919091526060830152608082015260a0016100f5565b3480156101af57600080fd5b5061011e6101be366004611f6b565b6106ef565b3480156101cf57600080fd5b5061011e6101de366004612033565b610813565b3480156101ef57600080fd5b5061011e6101fe366004611ff8565b6108a4565b34801561020f57600080fd5b506102186108ba565b6040516100f59190612103565b34801561023157600080fd5b5061011e6102403660046120b3565b610c1f565b34801561025157600080fd5b5061011e610c2c565b34801561026657600080fd5b506018545b6040519081526020016100f5565b34801561028557600080fd5b50600a54600b546040805192835260ff8083166020850152610100909204909116908201526060016100f5565b3480156102be57600080fd5b5061026b6102cd366004611ec4565b610c37565b3480156102de57600080fd5b5061011e6102ed366004611f3f565b610c48565b61011e610300366004611fbe565b610dcb565b808061031033610ef4565b10156103505760405162461bcd60e51b8152600401610347906020808252600490820152630454332360e41b604082015260600190565b60405180910390fd5b600061035b33610f19565b905060008061036933610f88565b9092509050600061037a82876122e0565b61038490846122ff565b905060005b845181101561040d576103fb336103dc338885815181106103ac576103ac61235d565b60200260200101516001600160a01b03919091166000908152601a60209081526040808320938352929052205490565b8784815181106103ee576103ee61235d565b602002602001015161109e565b8061040581612316565b915050610389565b5061041933828461129d565b604051339087156108fc029088906000818181858888f19350505050158015610446573d6000803e3d6000fd5b5060405186815233907f732ea8a38f70c2018ed8dfd6e97bf6381f60102061beae0ac4d9a5abd15a06029060200160405180910390a2505050505050565b73__Library_______________________________63d1d719d0600060029054906101000a90046001600160a01b03166001600160a01b031663da3dce266040518163ffffffff1660e01b815260040160206040518083038186803b1580156104ec57600080fd5b505afa158015610500573d6000803e3d6000fd5b505050506040513d601f19601f820116820180604052508101906105249190611ee1565b6040518263ffffffff1660e01b815260040161054091906120ef565b60206040518083038186803b15801561055857600080fd5b505af415801561056c573d6000803e3d6000fd5b505050506040513d601f19601f820116820180604052508101906105909190611f88565b15156001146105b15760405162461bcd60e51b8152600401610347906121ef565b6105bc838383611337565b505050565b60016105cb611372565b15156001146105ec5760405162461bcd60e51b8152600401610347906121b3565b600354604051630d1d719d60e41b815273__Library_______________________________9163d1d719d09161062e916001600160a01b0316906004016120ef565b60206040518083038186803b15801561064657600080fd5b505af415801561065a573d6000803e3d6000fd5b505050506040513d601f19601f8201168201806040525081019061067e9190611f88565b151560011461069f5760405162461bcd60e51b815260040161034790612147565b6106a76113ac565b6003546002546040519081526001600160a01b03909116907f1fe8aec10c0a50fa765076161e08c1f961ced69594ff45cf7d559f593afe14799060200160405180910390a250565b60016106f9611372565b151560011461071a5760405162461bcd60e51b8152600401610347906121b3565b610729336002600001546113d7565b15156001146107635760405162461bcd60e51b8152600401610347906020808252600490820152634543323360e01b604082015260600190565b6000610774336002600001546113ee565b9050821561079c57806002600401600082825461079191906122a6565b909155506107b79050565b80600260050160008282546107b191906122a6565b90915550505b6002546107c590338361142b565b600254604080519182528415156020830152810182905233907f50f654d58981575c05e369cb129aeacb01e1b036af429380242cfc5d1a4b743f9060600160405180910390a26105bc61145d565b600054610100900460ff168061082c575060005460ff16155b6108485760405162461bcd60e51b815260040161034790612165565b600054610100900460ff1615801561086a576000805461ffff19166101011790555b610877848484338961159d565b6108868a8a8a8a8a6001611646565b8015610898576000805461ff00191690555b50505050505050505050565b6108b385858585856000611646565b5050505050565b60408051600580825260c08201909252606091600091906020820160a0803683375050600e54604051631635719760e31b8152600481019190915291925073__UintLibrary___________________________9163b1ab8cb8915060240160206040518083038186803b15801561093057600080fd5b505af4158015610944573d6000803e3d6000fd5b505050506040513d601f19601f820116820180604052508101906109689190611fa5565b8160008151811061097b5761097b61235d565b6020908102919091010152601054604051631635719760e31b8152600481019190915273__UintLibrary___________________________9063b1ab8cb89060240160206040518083038186803b1580156109d557600080fd5b505af41580156109e9573d6000803e3d6000fd5b505050506040513d601f19601f82011682018060405250810190610a0d9190611fa5565b81600181518110610a2057610a2061235d565b6020908102919091010152601154604051631635719760e31b8152600481019190915273__UintLibrary___________________________9063b1ab8cb89060240160206040518083038186803b158015610a7a57600080fd5b505af4158015610a8e573d6000803e3d6000fd5b505050506040513d601f19601f82011682018060405250810190610ab29190611fa5565b81600281518110610ac557610ac561235d565b6020908102919091010152600f54604051631635719760e31b8152600481019190915273__UintLibrary___________________________9063b1ab8cb89060240160206040518083038186803b158015610b1f57600080fd5b505af4158015610b33573d6000803e3d6000fd5b505050506040513d601f19601f82011682018060405250810190610b579190611fa5565b81600381518110610b6a57610b6a61235d565b6020908102919091010152601254604051631635719760e31b8152600481019190915273__UintLibrary___________________________9063b1ab8cb89060240160206040518083038186803b158015610bc457600080fd5b505af4158015610bd8573d6000803e3d6000fd5b505050506040513d601f19601f82011682018060405250810190610bfc9190611fa5565b81600481518110610c0f57610c0f61235d565b6020908102919091010152919050565b6105bc83838360006116cc565b610c3533611783565b565b6000610c4282610ef4565b92915050565b73__Library_______________________________63d1d719d0600060029054906101000a90046001600160a01b03166001600160a01b031663aa33380a6040518163ffffffff1660e01b815260040160206040518083038186803b158015610cb057600080fd5b505afa158015610cc4573d6000803e3d6000fd5b505050506040513d601f19601f82011682018060405250810190610ce89190611ee1565b6040518263ffffffff1660e01b8152600401610d0491906120ef565b60206040518083038186803b158015610d1c57600080fd5b505af4158015610d30573d6000803e3d6000fd5b505050506040513d601f19601f82011682018060405250810190610d549190611f88565b1515600114610d755760405162461bcd60e51b8152600401610347906121ef565b610d82826017548361129d565b816001600160a01b03167f885157c8ed39c012c67730d5e5d229068f71cac97d1658f5bf6593c8246dcc3c60175483604051610dbf92919061225f565b60405180910390a25050565b80600019816003811115610de157610de1612347565b610dee5750601354610e39565b816003811115610e0057610e00612347565b60011415610e115750601554610e39565b816003811115610e2357610e23612347565b60021415610e345750601454610e39565b506016545b80341015610e6f5760405162461bcd60e51b815260206004820152600360248201526222a19960e91b6044820152606401610347565b346000846003811115610e8457610e84612347565b1415610e9a57601754610e9790826122ff565b90505b8060186000828254610eac91906122a6565b909155505060185460405133917faef711f818f5d24f55a9c2d7da0afa5edd0420e1505ff8e60c344ce836e3e86e91610ee691349161225f565b60405180910390a250505050565b6000806000610f0284610f88565b9092509050610f1181836122be565b949350505050565b6001600160a01b0381166000908152601a6020908152604091829020600101805483518184028101840190945280845260609392830182828015610f7c57602002820191906000526020600020905b815481526020019060010190808311610f68575b50505050509050919050565b6000806000610f9684610f19565b9050600073__UintLibrary___________________________63f254becc836040518263ffffffff1660e01b8152600401610fd19190612103565b60206040518083038186803b158015610fe957600080fd5b505af4158015610ffd573d6000803e3d6000fd5b505050506040513d601f19601f820116820180604052508101906110219190611fa5565b90506000805b8351811015611093578381815181106110425761104261235d565b602002602001015183611061898785815181106103ac576103ac61235d565b61106b91906122e0565b61107591906122be565b61107f90836122a6565b91508061108b81612316565b915050611027565b509590945092505050565b6001600160a01b0383166000908152601a6020908152604080832084845290915290205482111561111c5760405162461bcd60e51b815260206004820152602260248201527f4e6f7420656e6f7567682062616c616e636520666f722074686973206661637460448201526137b960f11b6064820152608401610347565b6001600160a01b0383166000908152601a602090815260408083208484529091528120805484929061114f9084906122ff565b90915550506001600160a01b0383166000908152601a602090815260408083208484529091529020546105bc576001600160a01b0383166000908152601a60205260409081902090516362fe358160e11b815273__UintLibrary___________________________9163cffd93cd91839163c5fc6b02916111da91879160019091019060040161220c565b60206040518083038186803b1580156111f257600080fd5b505af4158015611206573d6000803e3d6000fd5b505050506040513d601f19601f8201168201806040525081019061122a9190611fa5565b6001600160a01b0386166000908152601a60205260409081902090516001600160e01b031960e085901b16815261126892916001019060040161225f565b60006040518083038186803b15801561128057600080fd5b505af4158015611294573d6000803e3d6000fd5b50505050505050565b81156105bc576001600160a01b0383166000908152601a602090815260408083208484529091529020546112fa576001600160a01b0383166000908152601a60209081526040822060019081018054918201815583529120018190555b6001600160a01b0383166000908152601a602090815260408083208484529091528120805484929061132d9084906122a6565b9091555050505050565b611342838383611864565b6001600160a01b0383161561135a5761135a83611783565b6001600160a01b038216156105bc576105bc82611783565b6004546000904210156113855750600190565b6003546001600160a01b0316156113a65761139e611881565b6113a66113ac565b50600090565b60006002819055600380546001600160a01b0319169055600481905560058190556006819055600755565b6000806113e484846113ee565b1515949350505050565b60008181526009602090815260408083206001600160a01b038616845290915281205461141a84611889565b61142491906122ff565b9392505050565b60008381526009602090815260408083206001600160a01b03861684529091528120805483929061132d9084906122a6565b600554600654111561151957600b5462010000900460ff16156114b557600c54600a55600d54600b805461010080840460ff90811690910261ffff199092169316929092179190911790556114b061198b565b6114bd565b6114bd6119a9565b6114c56113ac565b6003546002546006546007546040516001600160a01b03909416937f23ca0034cf5aad32571b4a492e9598ea8a490e1643a60970e3cdc6933b55e49f9361150f939092909161226d565b60405180910390a2565b6005546007541115610c3557600b5462010000900460ff16156115435761153e61198b565b61154b565b61154b611881565b6115536113ac565b6003546002546006546007546040516001600160a01b03909416937fa58eb6daa3c62c3f883973c4035e5bd3e81aa627c8379de068a7de42df122be29361150f939092909161226d565b600054610100900460ff16806115b6575060005460ff16155b6115d25760405162461bcd60e51b815260040161034790612165565b600054610100900460ff161580156115f4576000805461ffff19166101011790555b6115fd82611a1a565b600180546001600160a01b0319166001600160a01b038516178155600060085561162c908790879087906116cc565b801561163e576000805461ff00191690555b505050505050565b8582808210156116685760405162461bcd60e51b8152600401610347906121d1565b821561168c57601388905560158790556016869055601485905560178490556116c2565b6116a8600a544261169d91906122a6565b600b5460ff16611aa9565b600e889055600f8590556010879055601186905560128490555b5050505050505050565b82828160ff16606410156116f25760405162461bcd60e51b8152600401610347906121d1565b8060ff16606410156117165760405162461bcd60e51b8152600401610347906121d1565b821561174157600a869055600b805460ff8681166101000261ffff199092169088161717905561163e565b600c869055600d805460ff8681166101000261ffff1990921690881617179055600b805462ff0000191662010000179055600a5461163e9061169d90426122a6565b6018546001600160a01b0382166000908152601960205260409020541015611861576001600160a01b0381166000908152601960205260408120546018546117cb91906122ff565b6018546001600160a01b038416600090815260196020526040902055905061180d826117f681611889565b61180090846122e0565b611808611bc0565b61129d565b816001600160a01b03167fe983a49d27e04c64952da756088988cab0349d02969d01e8fecd907888b2e12061184184611889565b61184b90846122e0565b611853611bc0565b604051610dbf92919061225f565b50565b61186c611372565b1515600114156105bc576105bc838383611cbc565b610c35611e23565b60008060029054906101000a90046001600160a01b03166001600160a01b031663da3dce266040518163ffffffff1660e01b815260040160206040518083038186803b1580156118d857600080fd5b505afa1580156118ec573d6000803e3d6000fd5b505050506040513d601f19601f820116820180604052508101906119109190611ee1565b6001600160a01b03166370a08231836040518263ffffffff1660e01b815260040161193b91906120ef565b60206040518083038186803b15801561195357600080fd5b505afa158015611967573d6000803e3d6000fd5b505050506040513d601f19601f82011682018060405250810190610c429190611fa5565b6000600c55600d805461ffff19169055600b805462ff000019169055565b600e54601355601054601555601154601655600f546014556012546017556119cf611e23565b7fbe8847d52fb3c03e3414e96d164a23594063f5b6cf01428e61c38bfbbc34ef19601354601554601654601454601754604051611a10959493929190612283565b60405180910390a1565b600054610100900460ff1680611a33575060005460ff16155b611a4f5760405162461bcd60e51b815260040161034790612165565b600054610100900460ff16158015611a71576000805461ffff19166101011790555b6000805462010000600160b01b031916620100006001600160a01b038516021790558015611aa5576000805461ff00191690555b5050565b6000611ab3611372565b15611ae95760405162461bcd60e51b8152600401610347906020808252600490820152631150cc8d60e21b604082015260600190565b611af233611e3e565b1515600114611b135760405162461bcd60e51b815260040161034790612147565b600380546001600160a01b031916331790556004839055606460ff8316611b38611bc0565b611b4291906122e0565b611b4c91906122be565b600555600880546002819055906000611b6483612316565b90915550506003546002546004546005546040516001600160a01b03909416937f472501d19bf75639b2e316cd36f8568b0c3ab943b82a87de3c086c98c1929df993611bb3939092909161226d565b60405180910390a2505050565b60008060029054906101000a90046001600160a01b03166001600160a01b031663da3dce266040518163ffffffff1660e01b815260040160206040518083038186803b158015611c0f57600080fd5b505afa158015611c23573d6000803e3d6000fd5b505050506040513d601f19601f82011682018060405250810190611c479190611ee1565b6001600160a01b03166318160ddd6040518163ffffffff1660e01b815260040160206040518083038186803b158015611c7f57600080fd5b505afa158015611c93573d6000803e3d6000fd5b505050506040513d601f19601f82011682018060405250810190611cb79190611fa5565b905090565b6001600160a01b03831615801590611cf8575060025460009081526009602090815260408083206001600160a01b038716845290915290205415155b156105bc5760025460009081526009602090815260408083206001600160a01b03871684529091529020548190811115611d54575060025460009081526009602090815260408083206001600160a01b03871684529091529020545b60025460009081526009602090815260408083206001600160a01b038816845290915281208054839290611d899084906122ff565b90915550506001600160a01b03831615611dd85760025460009081526009602090815260408083206001600160a01b038716845290915281208054839290611dd29084906122a6565b90915550505b600254604080516001600160a01b038088168252861660208201529081018390527f65fbd5e5dd32bea4aeca85bd0be0abf0e489d655dee888a7510d43b06dda2dba90606001610ee6565b6000600e819055600f81905560108190556011819055601255565b6001546000906001600160a01b0383811691161415611e5f57506001919050565b6000611e6a83611889565b90506064611e76611bc0565b600b54611e8b9190610100900460ff166122e0565b611e9591906122be565b811115611ea55750600192915050565b50600092915050565b919050565b803560ff81168114611eae57600080fd5b600060208284031215611ed657600080fd5b813561142481612373565b600060208284031215611ef357600080fd5b815161142481612373565b600080600060608486031215611f1357600080fd5b8335611f1e81612373565b92506020840135611f2e81612373565b929592945050506040919091013590565b60008060408385031215611f5257600080fd5b8235611f5d81612373565b946020939093013593505050565b600060208284031215611f7d57600080fd5b813561142481612388565b600060208284031215611f9a57600080fd5b815161142481612388565b600060208284031215611fb757600080fd5b5051919050565b600060208284031215611fd057600080fd5b81356004811061142457600080fd5b600060208284031215611ff157600080fd5b5035919050565b600080600080600060a0868803121561201057600080fd5b505083359560208501359550604085013594606081013594506080013592509050565b60008060008060008060008060006101208a8c03121561205257600080fd5b8935985060208a0135975060408a0135965060608a0135955060808a0135945060a08a013561208081612373565b935060c08a0135925061209560e08b01611eb3565b91506120a46101008b01611eb3565b90509295985092959850929598565b6000806000606084860312156120c857600080fd5b833592506120d860208501611eb3565b91506120e660408501611eb3565b90509250925092565b6001600160a01b0391909116815260200190565b6020808252825182820181905260009190848201906040850190845b8181101561213b5783518352928401929184019160010161211f565b50909695505050505050565b60208082526004908201526322a1991960e11b604082015260600190565b6020808252602e908201527f496e697469616c697a61626c653a20636f6e747261637420697320616c72656160408201526d191e481a5b9a5d1a585b1a5e995960921b606082015260800190565b6020808252600490820152634543323560e01b604082015260600190565b6020808252600490820152634543323160e01b604082015260600190565b60208082526003908201526208a86760eb1b604082015260600190565b60006040820184835260206040818501528185548084526060860191508660005282600020935060005b8181101561225257845483526001948501949284019201612236565b5090979650505050505050565b918252602082015260400190565b9283526020830191909152604082015260600190565b948552602085019390935260408401919091526060830152608082015260a00190565b600082198211156122b9576122b9612331565b500190565b6000826122db57634e487b7160e01b600052601260045260246000fd5b500490565b60008160001904831182151516156122fa576122fa612331565b500290565b60008282101561231157612311612331565b500390565b600060001982141561232a5761232a612331565b5060010190565b634e487b7160e01b600052601160045260246000fd5b634e487b7160e01b600052602160045260246000fd5b634e487b7160e01b600052603260045260246000fd5b6001600160a01b038116811461186157600080fd5b801515811461186157600080fdfea26469706673582212201b36237fab95b7281d4b97f6b04fab92c80700e39a5a0b04ff74176a958da97d64736f6c63430008070033",
  "immutableReferences": {},
  "source": "// SPDX-License-Identifier: GPL-3.0\r\n\r\npragma solidity >=0.8.0 <0.9.0;\r\n\r\n/**\r\n * @title Storage\r\n * @dev Store & retrieve value in a variable\r\n */\r\n\r\nimport \"../Interfaces/ITreasury.sol\";\r\nimport \"../Libraries/UintLibrary.sol\";\r\nimport \"../Libraries/Library.sol\";\r\nimport \"../Base/TokenGovernanceBaseContract.sol\";\r\nimport \"@openzeppelin/contracts-upgradeable/token/ERC20/IERC20Upgradeable.sol\";\r\n\r\n\r\ncontract Treasury is ITreasury, TokenGovernanceBaseContract{\r\n    using Library for *;\r\n    using UintLibrary for *;\r\n\r\n    // EVENTS /////////////////////////////////////////\r\n    event _NewPrices(uint, uint, uint, uint, uint);\r\n    event _Pay(address indexed, uint, uint);\r\n    event _Refund(address indexed, uint, uint);\r\n    event _AssignDividend(address indexed, uint, uint);\r\n    event _Withdraw(address indexed, uint);\r\n\r\n    // DATA /////////////////////////////////////////\r\n    // proposition to change prices\r\n    struct ProposedPricesStruct{\r\n        uint NewPublicPriceWei;\r\n        uint NewCertificatePriceWei;\r\n        uint NewPrivatePriceWei;\r\n        uint NewProviderPriceWei;\r\n        uint NewOwnerRefundFeeWei;\r\n    }\r\n\r\n    ProposedPricesStruct private _ProposedPrices;\r\n\r\n    // parameters\r\n    uint private _PublicPriceWei;\r\n    uint private _CertificatePriceWei;\r\n    uint private _PrivatePriceWei;\r\n    uint private _ProviderPriceWei;\r\n    uint private _OwnerRefundFeeWei;\r\n\r\n    // last amount at which dividends where assigned for each token owner\r\n    uint private _AggregatedDividendAmount;\r\n    mapping(address => uint) private _lastAssigned;\r\n\r\n    // dividends per token owner\r\n    struct _BalanceStruct{\r\n        mapping(uint => uint) _balance;\r\n        uint[] _factors;\r\n    }\r\n    \r\n    mapping(address => _BalanceStruct) private _balances;\r\n\r\n    // MODIFIERS /////////////////////////////////////////\r\n    modifier areFundsEnough(Library.Prices price){\r\n        uint256 minPrice = 2**256 - 1;\r\n\r\n        if(Library.Prices.NewProvider == price) minPrice = _PublicPriceWei;\r\n        else if(Library.Prices.NewPool == price) minPrice = _PrivatePriceWei;\r\n        else if(Library.Prices.NewCertificate == price) minPrice = _CertificatePriceWei;\r\n        else minPrice = _ProviderPriceWei;\r\n\r\n        require(msg.value >= minPrice, \"EC2\");\r\n        _;\r\n    }\r\n\r\n    modifier isBalanceEnough(uint amount){\r\n        require(checkBalance(msg.sender) >= amount, \"EC20\");\r\n        _;\r\n    }\r\n\r\n    modifier isFromPublicPool(){\r\n        require(true == Library.ItIsSomeone(_managerContract.retrievePublicCertificatePoolProxy()), \"EC8\");\r\n        _;\r\n    }\r\n\r\n    modifier isPriceOK(uint256 PublicPriceWei, uint256 OwnerRefundFeeWei){\r\n        require(PublicPriceWei >= OwnerRefundFeeWei, \"EC21\");\r\n        _;\r\n    }\r\n    \r\n    // CONSTRUCTOR /////////////////////////////////////////\r\n    function Treasury_init(uint256 PublicPriceWei, uint256 PrivatePriceWei, uint256 ProviderPriceWei, uint256 CertificatePriceWei, uint256 OwnerRefundFeeWei, address managerContractAddress, uint256 PropositionLifeTime, uint8 PropositionThresholdPercentage, uint8 minWeightToProposePercentage) public initializer \r\n    {\r\n        super.TokenGovernanceContract_init(PropositionLifeTime, PropositionThresholdPercentage, minWeightToProposePercentage, msg.sender, managerContractAddress);\r\n        InternalupdatePrices(PublicPriceWei, PrivatePriceWei, ProviderPriceWei, CertificatePriceWei, OwnerRefundFeeWei, true);\r\n    }\r\n\r\n    // GOVERNANCE /////////////////////////////////////////\r\n    function updatePrices(uint256 PublicPriceWei, uint256 PrivatePriceWei, uint256 ProviderPriceWei, uint256 CertificatePriceWei, uint256 OwnerRefundFeeWei) external override\r\n    {\r\n        InternalupdatePrices(PublicPriceWei, PrivatePriceWei, ProviderPriceWei, CertificatePriceWei, OwnerRefundFeeWei, false);\r\n    }\r\n\r\n    function InternalupdatePrices(uint256 PublicPriceWei, uint256 PrivatePriceWei, uint256 ProviderPriceWei, uint256 CertificatePriceWei, uint256 OwnerRefundFeeWei, bool fromConstructor) internal\r\n        isPriceOK(PublicPriceWei, OwnerRefundFeeWei)\r\n    {\r\n        if(fromConstructor){\r\n            _PublicPriceWei = PublicPriceWei;\r\n            _PrivatePriceWei = PrivatePriceWei;\r\n            _ProviderPriceWei = ProviderPriceWei;\r\n            _CertificatePriceWei = CertificatePriceWei;\r\n            _OwnerRefundFeeWei = OwnerRefundFeeWei;\r\n        }\r\n        else{\r\n            addProposition(block.timestamp + _PropositionLifeTime, _PropositionThresholdPercentage);\r\n            _ProposedPrices.NewPublicPriceWei = PublicPriceWei;\r\n            _ProposedPrices.NewCertificatePriceWei = CertificatePriceWei;\r\n            _ProposedPrices.NewPrivatePriceWei = PrivatePriceWei;\r\n            _ProposedPrices.NewProviderPriceWei = ProviderPriceWei;\r\n            _ProposedPrices.NewOwnerRefundFeeWei = OwnerRefundFeeWei;\r\n        }\r\n        \r\n    }\r\n\r\n    function propositionApproved() internal override\r\n    {\r\n        _PublicPriceWei = _ProposedPrices.NewPublicPriceWei;\r\n        _PrivatePriceWei = _ProposedPrices.NewPrivatePriceWei;\r\n        _ProviderPriceWei = _ProposedPrices.NewProviderPriceWei;\r\n        _CertificatePriceWei = _ProposedPrices.NewCertificatePriceWei;\r\n        _OwnerRefundFeeWei = _ProposedPrices.NewOwnerRefundFeeWei;\r\n        \r\n        removeProposition();\r\n\r\n        emit _NewPrices(_PublicPriceWei, _PrivatePriceWei, _ProviderPriceWei, _CertificatePriceWei, _OwnerRefundFeeWei);\r\n    }\r\n\r\n    function propositionRejected() internal override\r\n    {\r\n        removeProposition();\r\n    }\r\n\r\n    function propositionExpired() internal override\r\n    {\r\n        removeProposition();\r\n    }\r\n\r\n    function removeProposition() internal\r\n    {\r\n         delete(_ProposedPrices);\r\n    }\r\n\r\n    function retrieveProposition() external override view returns(bytes32[] memory)\r\n    {\r\n        bytes32[] memory proposition = new bytes32[](5);\r\n        proposition[0] = UintLibrary.UintToBytes32(_ProposedPrices.NewPublicPriceWei);\r\n        proposition[1] = UintLibrary.UintToBytes32(_ProposedPrices.NewPrivatePriceWei);\r\n        proposition[2] = UintLibrary.UintToBytes32(_ProposedPrices.NewProviderPriceWei);\r\n        proposition[3] = UintLibrary.UintToBytes32(_ProposedPrices.NewCertificatePriceWei);\r\n        proposition[4] = UintLibrary.UintToBytes32(_ProposedPrices.NewOwnerRefundFeeWei);\r\n        return proposition;\r\n    }\r\n\r\n    // FUNCTIONALITY /////////////////////////////////////////\r\n    function pay(Library.Prices price) external \r\n        areFundsEnough(price)\r\n    override payable\r\n    {\r\n        uint256 amount = msg.value;\r\n        if(price == Library.Prices.NewProvider) amount -= _OwnerRefundFeeWei;\r\n        _AggregatedDividendAmount += amount;\r\n\r\n        emit _Pay(msg.sender, msg.value, _AggregatedDividendAmount);\r\n    }\r\n\r\n    function InternalonTokenBalanceChanged(address from, address to, uint256 amount) internal override\r\n    {\r\n        super.InternalonTokenBalanceChanged(from, to, amount);\r\n        if(address(0) != from) InternalAssignDividends(from);\r\n        if(address(0) != to) InternalAssignDividends(to);\r\n    }\r\n\r\n    function AssignDividends() external override\r\n    {\r\n       InternalAssignDividends(msg.sender);\r\n    }\r\n\r\n    function InternalAssignDividends(address recipient) internal\r\n    {\r\n        if(_lastAssigned[recipient] < _AggregatedDividendAmount){\r\n           uint amountToSplit = _AggregatedDividendAmount - _lastAssigned[recipient];\r\n           _lastAssigned[recipient] = _AggregatedDividendAmount;\r\n           addBalance(recipient, amountToSplit * GetTokensBalance(recipient), totalSupply());\r\n           \r\n           emit _AssignDividend(recipient, amountToSplit * GetTokensBalance(recipient), totalSupply());\r\n        }\r\n    }\r\n\r\n    function getRefund(address addr, uint numberOfOwners) external \r\n        isFromPublicPool()\r\n    override\r\n    {\r\n        addBalance(addr, _OwnerRefundFeeWei, numberOfOwners);\r\n\r\n        emit _Refund(addr, _OwnerRefundFeeWei, numberOfOwners);\r\n    }\r\n\r\n    function withdraw(uint amount) external \r\n        isBalanceEnough(amount)\r\n    override\r\n    {\r\n        uint[] memory f = returnFactors(msg.sender);\r\n        (uint total, uint commonDividend) = sumUpTotal(msg.sender);\r\n        uint remainder =  total - (amount * commonDividend);\r\n\r\n        for(uint i=0; i < f.length; i++){\r\n            substractBalance(msg.sender, returnBalanceForFactor(msg.sender, f[i]), f[i]);\r\n        }\r\n\r\n        addBalance(msg.sender, remainder, commonDividend);\r\n\r\n        payable(msg.sender).transfer(amount);\r\n\r\n        emit _Withdraw(msg.sender, amount);\r\n    }\r\n\r\n    function retrieveBalance(address addr) external override view returns(uint)\r\n    {\r\n        return checkBalance(addr);\r\n    }\r\n\r\n    function retrievePrices() external override view returns(uint, uint, uint, uint, uint)\r\n    {\r\n        return(_PublicPriceWei, _PrivatePriceWei, _ProviderPriceWei, _CertificatePriceWei, _OwnerRefundFeeWei);\r\n    }\r\n\r\n    function retrieveAggregatedAmount() external override view returns(uint){\r\n        return _AggregatedDividendAmount;\r\n    }\r\n\r\n    function checkBalance(address addr) internal view returns(uint){\r\n        (uint total, uint commonDividend) = sumUpTotal(addr);\r\n\r\n        return total / commonDividend;\r\n    }\r\n\r\n    function sumUpTotal(address addr) internal view returns (uint, uint)\r\n    {\r\n        uint[] memory f = returnFactors(addr);\r\n        uint CommonDividend = UintLibrary.ProductOfFactors(f);\r\n        uint total = 0;\r\n\r\n        for(uint i=0; i < f.length; i++){\r\n            total += returnBalanceForFactor(addr, f[i]) * CommonDividend / f[i];\r\n        }\r\n\r\n        return (total, CommonDividend);\r\n    }\r\n\r\n    function returnFactors(address addr) internal view returns(uint[] memory){\r\n        return _balances[addr]._factors;\r\n    }\r\n\r\n    function returnBalanceForFactor(address addr, uint factor) internal view returns(uint){\r\n        return _balances[addr]._balance[factor];\r\n    }\r\n\r\n    function addBalance(address addr, uint amount, uint factor) internal\r\n    {\r\n        if(amount > 0){\r\n            if(0 == _balances[addr]._balance[factor])\r\n            {\r\n                _balances[addr]._factors.push(factor);\r\n            }\r\n            _balances[addr]._balance[factor] += amount;\r\n        }\r\n    }\r\n\r\n    function substractBalance(address addr, uint amount, uint factor) internal\r\n    {\r\n        require(_balances[addr]._balance[factor] >= amount, \"Not enough balance for this factor\");\r\n\r\n        _balances[addr]._balance[factor] -= amount;\r\n\r\n        if(0 == _balances[addr]._balance[factor])\r\n        {\r\n            UintLibrary.UintArrayRemoveResize(UintLibrary.FindUintPosition(factor, _balances[addr]._factors), _balances[addr]._factors);\r\n        }\r\n        \r\n    }\r\n\r\n}",
  "sourcePath": "C:/Users/d-aam/GitHub/Certificates/contracts/DeployedContracts/Treasury.sol",
  "compiler": {
    "name": "solc",
    "version": "0.8.7+commit.e28d00a7.Emscripten.clang"
  },
  "schemaVersion": "3.3.4",
  "updatedAt": "2021-08-19T06:39:00.958Z",
  "devdoc": {
    "kind": "dev",
    "methods": {},
    "version": 1
  },
  "userdoc": {
    "kind": "user",
    "methods": {},
    "version": 1
  }
}