{
  "contractName": "Treasury",
  "abi": [
    {
      "anonymous": false,
      "inputs": [
        {
          "indexed": false,
          "internalType": "uint256",
          "name": "Id",
          "type": "uint256"
        },
        {
          "indexed": true,
          "internalType": "address",
          "name": "Proposer",
          "type": "address"
        },
        {
          "indexed": false,
          "internalType": "uint256",
          "name": "Deadline",
          "type": "uint256"
        },
        {
          "indexed": false,
          "internalType": "uint256",
          "name": "Threshold",
          "type": "uint256"
        }
      ],
      "name": "_AddedProposition",
      "type": "event"
    },
    {
      "anonymous": false,
      "inputs": [
        {
          "indexed": true,
          "internalType": "address",
          "name": "Recipient",
          "type": "address"
        },
        {
          "indexed": false,
          "internalType": "uint256",
          "name": "Amount",
          "type": "uint256"
        },
        {
          "indexed": false,
          "internalType": "uint256",
          "name": "TotalSupply",
          "type": "uint256"
        }
      ],
      "name": "_AssignDividend",
      "type": "event"
    },
    {
      "anonymous": false,
      "inputs": [
        {
          "indexed": false,
          "internalType": "uint256",
          "name": "Id",
          "type": "uint256"
        },
        {
          "indexed": true,
          "internalType": "address",
          "name": "Proposer",
          "type": "address"
        }
      ],
      "name": "_CancelledProposition",
      "type": "event"
    },
    {
      "anonymous": false,
      "inputs": [
        {
          "indexed": false,
          "internalType": "uint256",
          "name": "Public",
          "type": "uint256"
        },
        {
          "indexed": false,
          "internalType": "uint256",
          "name": "Private",
          "type": "uint256"
        },
        {
          "indexed": false,
          "internalType": "uint256",
          "name": "Provider",
          "type": "uint256"
        },
        {
          "indexed": false,
          "internalType": "uint256",
          "name": "Certificate",
          "type": "uint256"
        },
        {
          "indexed": false,
          "internalType": "uint256",
          "name": "OwnerRefund",
          "type": "uint256"
        }
      ],
      "name": "_NewPrices",
      "type": "event"
    },
    {
      "anonymous": false,
      "inputs": [
        {
          "indexed": true,
          "internalType": "address",
          "name": "Payer",
          "type": "address"
        },
        {
          "indexed": false,
          "internalType": "uint256",
          "name": "Amount",
          "type": "uint256"
        },
        {
          "indexed": false,
          "internalType": "uint256",
          "name": "AggregatedAmount",
          "type": "uint256"
        }
      ],
      "name": "_Pay",
      "type": "event"
    },
    {
      "anonymous": false,
      "inputs": [
        {
          "indexed": false,
          "internalType": "uint256",
          "name": "Id",
          "type": "uint256"
        },
        {
          "indexed": true,
          "internalType": "address",
          "name": "Proposer",
          "type": "address"
        },
        {
          "indexed": false,
          "internalType": "uint256",
          "name": "VotesFor",
          "type": "uint256"
        },
        {
          "indexed": false,
          "internalType": "uint256",
          "name": "VotesAgainst",
          "type": "uint256"
        }
      ],
      "name": "_PropositionApproved",
      "type": "event"
    },
    {
      "anonymous": false,
      "inputs": [
        {
          "indexed": false,
          "internalType": "uint256",
          "name": "Id",
          "type": "uint256"
        },
        {
          "indexed": true,
          "internalType": "address",
          "name": "Proposer",
          "type": "address"
        },
        {
          "indexed": false,
          "internalType": "uint256",
          "name": "VotesFor",
          "type": "uint256"
        },
        {
          "indexed": false,
          "internalType": "uint256",
          "name": "VotesAgainst",
          "type": "uint256"
        }
      ],
      "name": "_PropositionRejected",
      "type": "event"
    },
    {
      "anonymous": false,
      "inputs": [
        {
          "indexed": false,
          "internalType": "uint256",
          "name": "Id",
          "type": "uint256"
        },
        {
          "indexed": true,
          "internalType": "address",
          "name": "Voter",
          "type": "address"
        },
        {
          "indexed": false,
          "internalType": "bool",
          "name": "Vote",
          "type": "bool"
        },
        {
          "indexed": false,
          "internalType": "uint256",
          "name": "AmountTokens",
          "type": "uint256"
        }
      ],
      "name": "_PropositionVote",
      "type": "event"
    },
    {
      "anonymous": false,
      "inputs": [
        {
          "indexed": true,
          "internalType": "address",
          "name": "Owner",
          "type": "address"
        },
        {
          "indexed": false,
          "internalType": "uint256",
          "name": "Amount",
          "type": "uint256"
        },
        {
          "indexed": false,
          "internalType": "uint256",
          "name": "TotalOwners",
          "type": "uint256"
        }
      ],
      "name": "_Refund",
      "type": "event"
    },
    {
      "anonymous": false,
      "inputs": [
        {
          "indexed": true,
          "internalType": "uint256",
          "name": "Id",
          "type": "uint256"
        },
        {
          "indexed": false,
          "internalType": "address",
          "name": "From",
          "type": "address"
        },
        {
          "indexed": false,
          "internalType": "address",
          "name": "To",
          "type": "address"
        },
        {
          "indexed": false,
          "internalType": "uint256",
          "name": "Amount",
          "type": "uint256"
        }
      ],
      "name": "_UsedTokensTransfered",
      "type": "event"
    },
    {
      "anonymous": false,
      "inputs": [
        {
          "indexed": true,
          "internalType": "address",
          "name": "Recipient",
          "type": "address"
        },
        {
          "indexed": false,
          "internalType": "uint256",
          "name": "Amount",
          "type": "uint256"
        }
      ],
      "name": "_Withdraw",
      "type": "event"
    },
    {
      "inputs": [],
      "name": "cancelProposition",
      "outputs": [],
      "stateMutability": "nonpayable",
      "type": "function"
    },
    {
      "inputs": [],
      "name": "isCurrentPropositionProp",
      "outputs": [
        {
          "internalType": "bool",
          "name": "",
          "type": "bool"
        }
      ],
      "stateMutability": "view",
      "type": "function",
      "constant": true
    },
    {
      "inputs": [
        {
          "internalType": "address",
          "name": "from",
          "type": "address"
        },
        {
          "internalType": "address",
          "name": "to",
          "type": "address"
        },
        {
          "internalType": "uint256",
          "name": "amount",
          "type": "uint256"
        }
      ],
      "name": "onTokenBalanceChanged",
      "outputs": [],
      "stateMutability": "nonpayable",
      "type": "function"
    },
    {
      "inputs": [],
      "name": "retrieveChairPerson",
      "outputs": [
        {
          "internalType": "address",
          "name": "",
          "type": "address"
        }
      ],
      "stateMutability": "view",
      "type": "function",
      "constant": true
    },
    {
      "inputs": [],
      "name": "retrieveManagerContract",
      "outputs": [
        {
          "internalType": "address",
          "name": "",
          "type": "address"
        }
      ],
      "stateMutability": "view",
      "type": "function",
      "constant": true
    },
    {
      "inputs": [],
      "name": "retrieveNextPropId",
      "outputs": [
        {
          "internalType": "uint256",
          "name": "",
          "type": "uint256"
        }
      ],
      "stateMutability": "view",
      "type": "function",
      "constant": true
    },
    {
      "inputs": [],
      "name": "retrievePendingPropConfig",
      "outputs": [
        {
          "internalType": "uint256",
          "name": "",
          "type": "uint256"
        },
        {
          "internalType": "uint8",
          "name": "",
          "type": "uint8"
        },
        {
          "internalType": "uint8",
          "name": "",
          "type": "uint8"
        },
        {
          "internalType": "bool",
          "name": "",
          "type": "bool"
        }
      ],
      "stateMutability": "view",
      "type": "function",
      "constant": true
    },
    {
      "inputs": [],
      "name": "retrievePropConfig",
      "outputs": [
        {
          "internalType": "uint256",
          "name": "",
          "type": "uint256"
        },
        {
          "internalType": "uint8",
          "name": "",
          "type": "uint8"
        },
        {
          "internalType": "uint8",
          "name": "",
          "type": "uint8"
        }
      ],
      "stateMutability": "view",
      "type": "function",
      "constant": true
    },
    {
      "inputs": [],
      "name": "retrievePropositionStatus",
      "outputs": [
        {
          "internalType": "address",
          "name": "",
          "type": "address"
        },
        {
          "internalType": "uint256",
          "name": "",
          "type": "uint256"
        },
        {
          "internalType": "uint256",
          "name": "",
          "type": "uint256"
        },
        {
          "internalType": "uint256",
          "name": "",
          "type": "uint256"
        },
        {
          "internalType": "uint256",
          "name": "",
          "type": "uint256"
        }
      ],
      "stateMutability": "view",
      "type": "function",
      "constant": true
    },
    {
      "inputs": [
        {
          "internalType": "uint256",
          "name": "PropId",
          "type": "uint256"
        },
        {
          "internalType": "address",
          "name": "voter",
          "type": "address"
        }
      ],
      "name": "retrieveVotesForVoter",
      "outputs": [
        {
          "internalType": "uint256",
          "name": "",
          "type": "uint256"
        }
      ],
      "stateMutability": "view",
      "type": "function",
      "constant": true
    },
    {
      "inputs": [
        {
          "internalType": "uint256",
          "name": "PropLifeTime",
          "type": "uint256"
        },
        {
          "internalType": "uint8",
          "name": "PropThresholdPerc",
          "type": "uint8"
        },
        {
          "internalType": "uint8",
          "name": "minWeightToPropPerc",
          "type": "uint8"
        }
      ],
      "name": "updateProp",
      "outputs": [],
      "stateMutability": "nonpayable",
      "type": "function"
    },
    {
      "inputs": [
        {
          "internalType": "bool",
          "name": "vote",
          "type": "bool"
        }
      ],
      "name": "voteProposition",
      "outputs": [],
      "stateMutability": "nonpayable",
      "type": "function"
    },
    {
      "inputs": [
        {
          "internalType": "uint256",
          "name": "PublicPriceUSD",
          "type": "uint256"
        },
        {
          "internalType": "uint256",
          "name": "PrivatePriceUSD",
          "type": "uint256"
        },
        {
          "internalType": "uint256",
          "name": "ProviderPriceUSD",
          "type": "uint256"
        },
        {
          "internalType": "uint256",
          "name": "CertificatePriceUSD",
          "type": "uint256"
        },
        {
          "internalType": "uint256",
          "name": "OwnerRefundFeeUSD",
          "type": "uint256"
        },
        {
          "internalType": "address",
          "name": "managerContractAddress",
          "type": "address"
        },
        {
          "internalType": "address",
          "name": "chairPerson",
          "type": "address"
        },
        {
          "internalType": "uint256",
          "name": "PropositionLifeTime",
          "type": "uint256"
        },
        {
          "internalType": "uint8",
          "name": "PropositionThresholdPercentage",
          "type": "uint8"
        },
        {
          "internalType": "uint8",
          "name": "minWeightToProposePercentage",
          "type": "uint8"
        }
      ],
      "name": "Treasury_init",
      "outputs": [],
      "stateMutability": "nonpayable",
      "type": "function"
    },
    {
      "inputs": [
        {
          "internalType": "uint256",
          "name": "PublicPriceUSD",
          "type": "uint256"
        },
        {
          "internalType": "uint256",
          "name": "PrivatePriceUSD",
          "type": "uint256"
        },
        {
          "internalType": "uint256",
          "name": "ProviderPriceUSD",
          "type": "uint256"
        },
        {
          "internalType": "uint256",
          "name": "CertificatePriceUSD",
          "type": "uint256"
        },
        {
          "internalType": "uint256",
          "name": "OwnerRefundFeeUSD",
          "type": "uint256"
        }
      ],
      "name": "updatePrices",
      "outputs": [],
      "stateMutability": "nonpayable",
      "type": "function"
    },
    {
      "inputs": [],
      "name": "retrieveProposition",
      "outputs": [
        {
          "internalType": "bytes32[]",
          "name": "",
          "type": "bytes32[]"
        }
      ],
      "stateMutability": "view",
      "type": "function",
      "constant": true
    },
    {
      "inputs": [
        {
          "internalType": "enum Library.Prices",
          "name": "price",
          "type": "uint8"
        }
      ],
      "name": "pay",
      "outputs": [],
      "stateMutability": "payable",
      "type": "function",
      "payable": true
    },
    {
      "inputs": [],
      "name": "AssignDividends",
      "outputs": [],
      "stateMutability": "nonpayable",
      "type": "function"
    },
    {
      "inputs": [
        {
          "internalType": "address",
          "name": "addr",
          "type": "address"
        },
        {
          "internalType": "uint256",
          "name": "numberOfOwners",
          "type": "uint256"
        }
      ],
      "name": "getRefund",
      "outputs": [],
      "stateMutability": "nonpayable",
      "type": "function"
    },
    {
      "inputs": [
        {
          "internalType": "uint256",
          "name": "amount",
          "type": "uint256"
        }
      ],
      "name": "withdraw",
      "outputs": [],
      "stateMutability": "nonpayable",
      "type": "function"
    },
    {
      "inputs": [
        {
          "internalType": "address",
          "name": "addr",
          "type": "address"
        }
      ],
      "name": "retrieveLastAssigned",
      "outputs": [
        {
          "internalType": "uint256",
          "name": "",
          "type": "uint256"
        }
      ],
      "stateMutability": "view",
      "type": "function",
      "constant": true
    },
    {
      "inputs": [
        {
          "internalType": "address",
          "name": "addr",
          "type": "address"
        }
      ],
      "name": "retrieveBalance",
      "outputs": [
        {
          "internalType": "uint256",
          "name": "",
          "type": "uint256"
        }
      ],
      "stateMutability": "view",
      "type": "function",
      "constant": true
    },
    {
      "inputs": [],
      "name": "retrievePrices",
      "outputs": [
        {
          "internalType": "uint256",
          "name": "",
          "type": "uint256"
        },
        {
          "internalType": "uint256",
          "name": "",
          "type": "uint256"
        },
        {
          "internalType": "uint256",
          "name": "",
          "type": "uint256"
        },
        {
          "internalType": "uint256",
          "name": "",
          "type": "uint256"
        },
        {
          "internalType": "uint256",
          "name": "",
          "type": "uint256"
        }
      ],
      "stateMutability": "view",
      "type": "function",
      "constant": true
    },
    {
      "inputs": [],
      "name": "retrieveAggregatedAmount",
      "outputs": [
        {
          "internalType": "uint256",
          "name": "",
          "type": "uint256"
        }
      ],
      "stateMutability": "view",
      "type": "function",
      "constant": true
    }
  ],
  "bytecode": "0x608060405234801561001057600080fd5b50612a18806100206000396000f3fe6080604052600436106101105760003560e01c806304cc67a914610115578063056f90ba1461013957806325b4f3ca1461015b5780632e1a7d4d146101885780633c7df55d146101a85780634044adb2146101c857806355457ee91461020b5780635b362e8414610220578063840f6d171461024d57806390d138ed1461029b57806391f91671146102dc57806396df6e79146102fc578063a93316f51461031c578063ac2bb4421461033e578063bc3be0961461035e578063d40a523614610387578063d5920d491461039c578063d6184d15146103b1578063d660ab34146103e7578063db85bc4d14610420578063e20f37ad1461043e578063eb1e2a411461045e578063f0c9325e1461047e575b600080fd5b34801561012157600080fd5b506008545b6040519081526020015b60405180910390f35b34801561014557600080fd5b506101596101543660046125b1565b610491565b005b34801561016757600080fd5b5060135460155460165460145460175460405161013095949392919061289f565b34801561019457600080fd5b506101596101a336600461252d565b61052c565b3480156101b457600080fd5b506101596101c336600461244c565b610703565b3480156101d457600080fd5b506101266101e3366004612546565b60009182526009602090815260408084206001600160a01b0393909316845291905290205490565b34801561021757600080fd5b50610159610840565b34801561022c57600080fd5b506000546201000090046001600160a01b03165b60405161013091906126d4565b34801561025957600080fd5b50600354600454600554600654600754604080516001600160a01b0390961686526020860194909452928401919091526060830152608082015260a001610130565b3480156102a757600080fd5b506102b061096f565b604051610130949392919093845260ff9283166020850152911660408301521515606082015260800190565b3480156102e857600080fd5b506101596102f73660046124b9565b6109ca565b34801561030857600080fd5b50610159610317366004612576565b610aed565b34801561032857600080fd5b50610331610b03565b60405161013091906126e8565b34801561034a57600080fd5b50610159610359366004612645565b610e68565b34801561036a57600080fd5b50600b5462010000900460ff166040519015158152602001610130565b34801561039357600080fd5b50610159610e75565b3480156103a857600080fd5b50601854610126565b3480156103bd57600080fd5b506101266103cc366004612412565b6001600160a01b031660009081526019602052604090205490565b3480156103f357600080fd5b50600a54600b546040805192835260ff808316602085015261010090920490911690820152606001610130565b34801561042c57600080fd5b506001546001600160a01b0316610240565b34801561044a57600080fd5b50610126610459366004612412565b610e80565b34801561046a57600080fd5b5061015961047936600461248d565b610e91565b61015961048c36600461250c565b611119565b600054610100900460ff16806104aa575060005460ff16155b6104cf5760405162461bcd60e51b81526004016104c69061279c565b60405180910390fd5b600054610100900460ff161580156104f1576000805461ffff19166101011790555b6104fe848484888a61144e565b61050d8b8b8b8b8b60016114f7565b801561051f576000805461ff00191690555b5050505050505050505050565b808061053733611569565b101561056d5760405162461bcd60e51b8152602060048201526005602482015264454332302d60d81b60448201526064016104c6565b60006105783361158e565b9050600080610586336115fd565b9092509050600061059782876128fc565b6105a1908461291b565b905060005b845181101561062a57610618336105f9338885815181106105c9576105c96129a9565b60200260200101516001600160a01b03919091166000908152601a60209081526040808320938352929052205490565b87848151811061060b5761060b6129a9565b6020026020010151611713565b8061062281612962565b9150506105a6565b50610636338284611912565b6040516000908190339089908381818185875af1925050503d806000811461067a576040519150601f19603f3d011682016040523d82523d6000602084013e61067f565b606091505b509150915081816040516020016106969190612681565b604051602081830303815290604052906106c35760405162461bcd60e51b81526004016104c6919061272c565b5060405188815233907f732ea8a38f70c2018ed8dfd6e97bf6381f60102061beae0ac4d9a5abd15a06029060200160405180910390a25050505050505050565b73__Library_______________________________63d1d719d0600060029054906101000a90046001600160a01b03166001600160a01b031663da3dce266040518163ffffffff1660e01b815260040160206040518083038186803b15801561076b57600080fd5b505afa15801561077f573d6000803e3d6000fd5b505050506040513d601f19601f820116820180604052508101906107a3919061242f565b6040518263ffffffff1660e01b81526004016107bf91906126d4565b60206040518083038186803b1580156107d757600080fd5b505af41580156107eb573d6000803e3d6000fd5b505050506040513d601f19601f8201168201806040525081019061080f91906124d6565b15156001146108305760405162461bcd60e51b81526004016104c69061275f565b61083b8383836119ac565b505050565b600161084a6119e7565b151560011461086b5760405162461bcd60e51b81526004016104c6906127ea565b600354604051630d1d719d60e41b815273__Library_______________________________9163d1d719d0916108ad916001600160a01b0316906004016126d4565b60206040518083038186803b1580156108c557600080fd5b505af41580156108d9573d6000803e3d6000fd5b505050506040513d601f19601f820116820180604052508101906108fd91906124d6565b151560011461091e5760405162461bcd60e51b81526004016104c690612809565b610926611a21565b6003546002546040519081526001600160a01b03909116907f1fe8aec10c0a50fa765076161e08c1f961ced69594ff45cf7d559f593afe1479906020015b60405180910390a250565b600080600080600b60029054906101000a900460ff168015610992575060045442105b156109b7575050600c54600d5490925060ff80821692506101009091041660016109c4565b5060009250829150819050805b90919293565b60016109d46119e7565b15156001146109f55760405162461bcd60e51b81526004016104c6906127ea565b610a0433600260000154611a4c565b1515600114610a3d5760405162461bcd60e51b8152602060048201526005602482015264454332332d60d81b60448201526064016104c6565b6000610a4e33600260000154611a63565b90508215610a76578060026004016000828254610a6b91906128c2565b90915550610a919050565b8060026005016000828254610a8b91906128c2565b90915550505b600254610a9f903383611aa0565b600254604080519182528415156020830152810182905233907f50f654d58981575c05e369cb129aeacb01e1b036af429380242cfc5d1a4b743f9060600160405180910390a261083b611ad2565b610afc858585858560006114f7565b5050505050565b60408051600580825260c08201909252606091600091906020820160a0803683375050600e54604051631635719760e31b8152600481019190915291925073__UintLibrary___________________________9163b1ab8cb8915060240160206040518083038186803b158015610b7957600080fd5b505af4158015610b8d573d6000803e3d6000fd5b505050506040513d601f19601f82011682018060405250810190610bb191906124f3565b81600081518110610bc457610bc46129a9565b6020908102919091010152601054604051631635719760e31b8152600481019190915273__UintLibrary___________________________9063b1ab8cb89060240160206040518083038186803b158015610c1e57600080fd5b505af4158015610c32573d6000803e3d6000fd5b505050506040513d601f19601f82011682018060405250810190610c5691906124f3565b81600181518110610c6957610c696129a9565b6020908102919091010152601154604051631635719760e31b8152600481019190915273__UintLibrary___________________________9063b1ab8cb89060240160206040518083038186803b158015610cc357600080fd5b505af4158015610cd7573d6000803e3d6000fd5b505050506040513d601f19601f82011682018060405250810190610cfb91906124f3565b81600281518110610d0e57610d0e6129a9565b6020908102919091010152600f54604051631635719760e31b8152600481019190915273__UintLibrary___________________________9063b1ab8cb89060240160206040518083038186803b158015610d6857600080fd5b505af4158015610d7c573d6000803e3d6000fd5b505050506040513d601f19601f82011682018060405250810190610da091906124f3565b81600381518110610db357610db36129a9565b6020908102919091010152601254604051631635719760e31b8152600481019190915273__UintLibrary___________________________9063b1ab8cb89060240160206040518083038186803b158015610e0d57600080fd5b505af4158015610e21573d6000803e3d6000fd5b505050506040513d601f19601f82011682018060405250810190610e4591906124f3565b81600481518110610e5857610e586129a9565b6020908102919091010152919050565b61083b8383836000611c10565b610e7e33611cbe565b565b6000610e8b82611569565b92915050565b73__Library_______________________________63d1d719d0600060029054906101000a90046001600160a01b03166001600160a01b031663aa33380a6040518163ffffffff1660e01b815260040160206040518083038186803b158015610ef957600080fd5b505afa158015610f0d573d6000803e3d6000fd5b505050506040513d601f19601f82011682018060405250810190610f31919061242f565b6040518263ffffffff1660e01b8152600401610f4d91906126d4565b60206040518083038186803b158015610f6557600080fd5b505af4158015610f79573d6000803e3d6000fd5b505050506040513d601f19601f82011682018060405250810190610f9d91906124d6565b1515600114610fbe5760405162461bcd60e51b81526004016104c69061275f565b60008060029054906101000a90046001600160a01b03166001600160a01b031663602554156040518163ffffffff1660e01b815260040160206040518083038186803b15801561100d57600080fd5b505afa158015611021573d6000803e3d6000fd5b505050506040513d601f19601f82011682018060405250810190611045919061242f565b6001600160a01b0316638d12420b6017546040518263ffffffff1660e01b815260040161107491815260200190565b60206040518083038186803b15801561108c57600080fd5b505afa1580156110a0573d6000803e3d6000fd5b505050506040513d601f19601f820116820180604052508101906110c491906124f3565b90506110d1838284611912565b826001600160a01b03167f885157c8ed39c012c67730d5e5d229068f71cac97d1658f5bf6593c8246dcc3c828460405161110c92919061287b565b60405180910390a2505050565b8060001981600381111561112f5761112f612993565b61113c5750601354611187565b81600381111561114e5761114e612993565b6001141561115f5750601554611187565b81600381111561117157611171612993565b600214156111825750601454611187565b506016545b60008060029054906101000a90046001600160a01b03166001600160a01b031663602554156040518163ffffffff1660e01b815260040160206040518083038186803b1580156111d657600080fd5b505afa1580156111ea573d6000803e3d6000fd5b505050506040513d601f19601f8201168201806040525081019061120e919061242f565b6001600160a01b0316638d12420b836040518263ffffffff1660e01b815260040161123b91815260200190565b60206040518083038186803b15801561125357600080fd5b505afa158015611267573d6000803e3d6000fd5b505050506040513d601f19601f8201168201806040525081019061128b91906124f3565b9050803410156112c65760405162461bcd60e51b81526004016104c6906020808252600490820152634543322d60e01b604082015260600190565b3460008560038111156112db576112db612993565b14156113f357600060029054906101000a90046001600160a01b03166001600160a01b031663602554156040518163ffffffff1660e01b815260040160206040518083038186803b15801561132f57600080fd5b505afa158015611343573d6000803e3d6000fd5b505050506040513d601f19601f82011682018060405250810190611367919061242f565b6001600160a01b0316638d12420b6017546040518263ffffffff1660e01b815260040161139691815260200190565b60206040518083038186803b1580156113ae57600080fd5b505afa1580156113c2573d6000803e3d6000fd5b505050506040513d601f19601f820116820180604052508101906113e691906124f3565b6113f0908261291b565b90505b806018600082825461140591906128c2565b909155505060185460405133917faef711f818f5d24f55a9c2d7da0afa5edd0420e1505ff8e60c344ce836e3e86e9161143f91349161287b565b60405180910390a25050505050565b600054610100900460ff1680611467575060005460ff16155b6114835760405162461bcd60e51b81526004016104c69061279c565b600054610100900460ff161580156114a5576000805461ffff19166101011790555b6114ae82611da9565b600180546001600160a01b0319166001600160a01b03851617815560006008556114dd90879087908790611c10565b80156114ef576000805461ff00191690555b505050505050565b8582808210156115195760405162461bcd60e51b81526004016104c69061277d565b821561153d576013889055601587905560168690556014859055601784905561155f565b611545611e38565b600e889055600f8590556010879055601186905560128490555b5050505050505050565b6000806000611577846115fd565b909250905061158681836128da565b949350505050565b6001600160a01b0381166000908152601a60209081526040918290206001018054835181840281018401909452808452606093928301828280156115f157602002820191906000526020600020905b8154815260200190600101908083116115dd575b50505050509050919050565b600080600061160b8461158e565b9050600073__UintLibrary___________________________63f254becc836040518263ffffffff1660e01b815260040161164691906126e8565b60206040518083038186803b15801561165e57600080fd5b505af4158015611672573d6000803e3d6000fd5b505050506040513d601f19601f8201168201806040525081019061169691906124f3565b90506000805b8351811015611708578381815181106116b7576116b76129a9565b6020026020010151836116d6898785815181106105c9576105c96129a9565b6116e091906128fc565b6116ea91906128da565b6116f490836128c2565b91508061170081612962565b91505061169c565b509590945092505050565b6001600160a01b0383166000908152601a602090815260408083208484529091529020548211156117915760405162461bcd60e51b815260206004820152602260248201527f4e6f7420656e6f7567682062616c616e636520666f722074686973206661637460448201526137b960f11b60648201526084016104c6565b6001600160a01b0383166000908152601a60209081526040808320848452909152812080548492906117c490849061291b565b90915550506001600160a01b0383166000908152601a6020908152604080832084845290915290205461083b576001600160a01b0383166000908152601a60205260409081902090516362fe358160e11b815273__UintLibrary___________________________9163cffd93cd91839163c5fc6b029161184f918791600190910190600401612828565b60206040518083038186803b15801561186757600080fd5b505af415801561187b573d6000803e3d6000fd5b505050506040513d601f19601f8201168201806040525081019061189f91906124f3565b6001600160a01b0386166000908152601a60205260409081902090516001600160e01b031960e085901b1681526118dd92916001019060040161287b565b60006040518083038186803b1580156118f557600080fd5b505af4158015611909573d6000803e3d6000fd5b50505050505050565b811561083b576001600160a01b0383166000908152601a6020908152604080832084845290915290205461196f576001600160a01b0383166000908152601a60209081526040822060019081018054918201815583529120018190555b6001600160a01b0383166000908152601a60209081526040808320848452909152812080548492906119a29084906128c2565b9091555050505050565b6119b7838383611f4f565b6001600160a01b038316156119cf576119cf83611cbe565b6001600160a01b0382161561083b5761083b82611cbe565b6004546000904210156119fa5750600190565b6003546001600160a01b031615611a1b57611a13611f6c565b611a1b611a21565b50600090565b60006002819055600380546001600160a01b0319169055600481905560058190556006819055600755565b600080611a598484611a63565b1515949350505050565b60008181526009602090815260408083206001600160a01b0386168452909152812054611a8f84611f74565b611a99919061291b565b9392505050565b60008381526009602090815260408083206001600160a01b0386168452909152812080548392906119a29084906128c2565b60055460065410611b8d57600b5462010000900460ff1615611b2957600c54600a55600d54600b805461010080840460ff90811690910261ffff19909216931692909217919091179055611b24612076565b611b31565b611b31612094565b611b39611a21565b6003546002546006546007546040516001600160a01b03909416937f23ca0034cf5aad32571b4a492e9598ea8a490e1643a60970e3cdc6933b55e49f93611b839390929091612889565b60405180910390a2565b60055460075410610e7e57600b5462010000900460ff1615611bb657611bb1612076565b611bbe565b611bbe611f6c565b611bc6611a21565b6003546002546006546007546040516001600160a01b03909416937fa58eb6daa3c62c3f883973c4035e5bd3e81aa627c8379de068a7de42df122be293611b839390929091612889565b82828160ff1660641015611c365760405162461bcd60e51b81526004016104c69061277d565b8060ff1660641015611c5a5760405162461bcd60e51b81526004016104c69061277d565b8215611c8557600a869055600b805460ff8681166101000261ffff19909216908816171790556114ef565b600c869055600d805460ff8681166101000261ffff1990921690881617179055600b805462ff00001916620100001790556114ef611e38565b6018546001600160a01b0382166000908152601960205260409020541015611da6576001600160a01b038116600090815260196020526040812054601854611d06919061291b565b6018546001600160a01b0384166000908152601960205260409020559050611d4882611d3181611f74565b611d3b90846128fc565b611d43612105565b611912565b816001600160a01b03167fe983a49d27e04c64952da756088988cab0349d02969d01e8fecd907888b2e120611d7c84611f74565b611d8690846128fc565b611d8e612105565b604051611d9c92919061287b565b60405180910390a2505b50565b600054610100900460ff1680611dc2575060005460ff16155b611dde5760405162461bcd60e51b81526004016104c69061279c565b600054610100900460ff16158015611e00576000805461ffff19166101011790555b6000805462010000600160b01b031916620100006001600160a01b038516021790558015611e34576000805461ff00191690555b5050565b6000611e426119e7565b15611e775760405162461bcd60e51b8152602060048201526005602482015264454332342d60d81b60448201526064016104c6565b611e8033612201565b1515600114611ea15760405162461bcd60e51b81526004016104c690612809565b600380546001600160a01b03191633179055600a54611ec090426128c2565b600455600b5460649060ff16611ed4612105565b611ede91906128fc565b611ee891906128da565b600555600880546002819055906000611f0083612962565b90915550506003546002546004546005546040516001600160a01b03909416937f472501d19bf75639b2e316cd36f8568b0c3ab943b82a87de3c086c98c1929df9936109649390929091612889565b611f576119e7565b15156001141561083b5761083b838383612276565b610e7e6123e6565b60008060029054906101000a90046001600160a01b03166001600160a01b031663da3dce266040518163ffffffff1660e01b815260040160206040518083038186803b158015611fc357600080fd5b505afa158015611fd7573d6000803e3d6000fd5b505050506040513d601f19601f82011682018060405250810190611ffb919061242f565b6001600160a01b03166370a08231836040518263ffffffff1660e01b815260040161202691906126d4565b60206040518083038186803b15801561203e57600080fd5b505afa158015612052573d6000803e3d6000fd5b505050506040513d601f19601f82011682018060405250810190610e8b91906124f3565b6000600c55600d805461ffff19169055600b805462ff000019169055565b600e54601355601054601555601154601655600f546014556012546017556120ba6123e6565b7fbe8847d52fb3c03e3414e96d164a23594063f5b6cf01428e61c38bfbbc34ef196013546015546016546014546017546040516120fb95949392919061289f565b60405180910390a1565b60008060029054906101000a90046001600160a01b03166001600160a01b031663da3dce266040518163ffffffff1660e01b815260040160206040518083038186803b15801561215457600080fd5b505afa158015612168573d6000803e3d6000fd5b505050506040513d601f19601f8201168201806040525081019061218c919061242f565b6001600160a01b03166318160ddd6040518163ffffffff1660e01b815260040160206040518083038186803b1580156121c457600080fd5b505afa1580156121d8573d6000803e3d6000fd5b505050506040513d601f19601f820116820180604052508101906121fc91906124f3565b905090565b6001546000906001600160a01b038381169116141561222257506001919050565b600061222d83611f74565b90506064612239612105565b600b5461224e9190610100900460ff166128fc565b61225891906128da565b8111156122685750600192915050565b50600092915050565b919050565b6001600160a01b038316158015906122b2575060025460009081526009602090815260408083206001600160a01b038716845290915290205415155b1561083b5760025460009081526009602090815260408083206001600160a01b0387168452909152902054819081111561230e575060025460009081526009602090815260408083206001600160a01b03871684529091529020545b60025460009081526009602090815260408083206001600160a01b03881684529091528120805483929061234390849061291b565b90915550506001600160a01b038316156123925760025460009081526009602090815260408083206001600160a01b03871684529091528120805483929061238c9084906128c2565b90915550505b600254604080516001600160a01b038088168252861660208201529081018390527f65fbd5e5dd32bea4aeca85bd0be0abf0e489d655dee888a7510d43b06dda2dba9060600160405180910390a250505050565b6000600e819055600f81905560108190556011819055601255565b803560ff8116811461227157600080fd5b60006020828403121561242457600080fd5b8135611a99816129bf565b60006020828403121561244157600080fd5b8151611a99816129bf565b60008060006060848603121561246157600080fd5b833561246c816129bf565b9250602084013561247c816129bf565b929592945050506040919091013590565b600080604083850312156124a057600080fd5b82356124ab816129bf565b946020939093013593505050565b6000602082840312156124cb57600080fd5b8135611a99816129d4565b6000602082840312156124e857600080fd5b8151611a99816129d4565b60006020828403121561250557600080fd5b5051919050565b60006020828403121561251e57600080fd5b813560048110611a9957600080fd5b60006020828403121561253f57600080fd5b5035919050565b6000806040838503121561255957600080fd5b82359150602083013561256b816129bf565b809150509250929050565b600080600080600060a0868803121561258e57600080fd5b505083359560208501359550604085013594606081013594506080013592509050565b6000806000806000806000806000806101408b8d0312156125d157600080fd5b8a35995060208b0135985060408b0135975060608b0135965060808b0135955060a08b01356125ff816129bf565b945060c08b013561260f816129bf565b935060e08b013592506126256101008c01612401565b91506126346101208c01612401565b90509295989b9194979a5092959850565b60008060006060848603121561265a57600080fd5b8335925061266a60208501612401565b915061267860408501612401565b90509250925092565b7f4572726f72207472616e73666572696e672066756e647320746f206164647265815264039b9901d160dd1b6020820152600082516126c7816025850160208701612932565b9190910160250192915050565b6001600160a01b0391909116815260200190565b6020808252825182820181905260009190848201906040850190845b8181101561272057835183529284019291840191600101612704565b50909695505050505050565b602081526000825180602084015261274b816040850160208701612932565b601f01601f19169190910160400192915050565b6020808252600490820152634543382d60e01b604082015260600190565b602080825260059082015264454332312d60d81b604082015260600190565b6020808252602e908201527f496e697469616c697a61626c653a20636f6e747261637420697320616c72656160408201526d191e481a5b9a5d1a585b1a5e995960921b606082015260800190565b602080825260059082015264454332352d60d81b604082015260600190565b602080825260059082015264454332322d60d81b604082015260600190565b60006040820184835260206040818501528185548084526060860191508660005282600020935060005b8181101561286e57845483526001948501949284019201612852565b5090979650505050505050565b918252602082015260400190565b9283526020830191909152604082015260600190565b948552602085019390935260408401919091526060830152608082015260a00190565b600082198211156128d5576128d561297d565b500190565b6000826128f757634e487b7160e01b600052601260045260246000fd5b500490565b60008160001904831182151516156129165761291661297d565b500290565b60008282101561292d5761292d61297d565b500390565b60005b8381101561294d578181015183820152602001612935565b8381111561295c576000848401525b50505050565b60006000198214156129765761297661297d565b5060010190565b634e487b7160e01b600052601160045260246000fd5b634e487b7160e01b600052602160045260246000fd5b634e487b7160e01b600052603260045260246000fd5b6001600160a01b0381168114611da657600080fd5b8015158114611da657600080fdfea2646970667358221220c016b9dbd3262152020a6aea0896882ea745934f61cf0f9335afb453ed89135364736f6c63430008070033",
  "immutableReferences": {},
  "source": "// SPDX-License-Identifier: GPL-3.0\r\n\r\npragma solidity 0.8.7;\r\n\r\n/**\r\n Treasury receives all the payments and assigns dividends to token holders.\r\n Public Certificate Pool contract can ask for its owners to eb refunded even if they do not own tokens.\r\n\r\n First dividends must be assigned to an account and then the account owner can withdraw the funds.\r\n Both actions must be triggered by the account owner.\r\n\r\n  Events : \r\n    - New Prices Added : list of prices\r\n    - Payment recieved : payer, amount, new total aggregated contract amount\r\n    - Refund : who, amount, among how many\r\n    - Assign Dividends : who, amount (number of tokens), among how many (total supply)\r\n    - Withdraw : who, how much\r\n */\r\n\r\nimport \"../Interfaces/ITreasury.sol\";\r\nimport \"../Interfaces/IPriceConverter.sol\";\r\nimport \"../Libraries/UintLibrary.sol\";\r\nimport \"../Libraries/Library.sol\";\r\nimport \"../Base/TokenGovernanceBaseContract.sol\";\r\nimport \"@openzeppelin/contracts-upgradeable/token/ERC20/IERC20Upgradeable.sol\";\r\n\r\n\r\ncontract Treasury is ITreasury, TokenGovernanceBaseContract{\r\n    using Library for *;\r\n    using UintLibrary for *;\r\n\r\n    // EVENTS /////////////////////////////////////////\r\n    event _NewPrices(uint Public, uint Private, uint Provider, uint Certificate, uint OwnerRefund);\r\n    event _Pay(address indexed Payer, uint Amount, uint AggregatedAmount);\r\n    event _Refund(address indexed Owner, uint Amount, uint TotalOwners);\r\n    event _AssignDividend(address indexed Recipient, uint Amount, uint TotalSupply);\r\n    event _Withdraw(address indexed Recipient, uint Amount);\r\n\r\n    // DATA /////////////////////////////////////////\r\n    // proposition to change prices\r\n    struct ProposedPricesStruct{\r\n        uint NewPublicPriceUSD;\r\n        uint NewCertificatePriceUSD;\r\n        uint NewPrivatePriceUSD;\r\n        uint NewProviderPriceUSD;\r\n        uint NewOwnerRefundFeeUSD;\r\n    }\r\n\r\n    ProposedPricesStruct private _ProposedPrices;\r\n\r\n    // prices parameters usd\r\n    uint private _PublicPriceUSD;\r\n    uint private _CertificatePriceUSD;\r\n    uint private _PrivatePriceUSD;\r\n    uint private _ProviderPriceUSD;\r\n    uint private _OwnerRefundFeeUSD;\r\n\r\n    // last amount at which dividends where assigned for each token owner\r\n    uint private _AggregatedDividendAmount;\r\n    mapping(address => uint) private _lastAssigned;\r\n\r\n    // dividends per token owner\r\n    struct _BalanceStruct{\r\n        mapping(uint => uint) _balance;\r\n        uint[] _factors;\r\n    }\r\n    \r\n    mapping(address => _BalanceStruct) private _balances;\r\n\r\n    // MODIFIERS /////////////////////////////////////////\r\n    modifier areFundsEnough(Library.Prices price){\r\n        uint256 minPriceUSD = 2**256 - 1;\r\n\r\n        if(Library.Prices.NewProvider == price) minPriceUSD = _PublicPriceUSD;\r\n        else if(Library.Prices.NewPool == price) minPriceUSD = _PrivatePriceUSD;\r\n        else if(Library.Prices.NewCertificate == price) minPriceUSD = _CertificatePriceUSD;\r\n        else minPriceUSD = _ProviderPriceUSD;\r\n\r\n        uint256 minPriceETH = IPriceConverter(_managerContract.retrievePriceConverterProxy()).fromUSDToETH(minPriceUSD);\r\n\r\n        require(msg.value >= minPriceETH, \"EC2-\");\r\n        _;\r\n    }\r\n\r\n    modifier isBalanceEnough(uint amount){\r\n        require(checkBalance(msg.sender) >= amount, \"EC20-\");\r\n        _;\r\n    }\r\n\r\n    modifier isFromPublicPool(){\r\n        require(true == Library.ItIsSomeone(_managerContract.retrievePublicCertificatePoolProxy()), \"EC8-\");\r\n        _;\r\n    }\r\n\r\n    modifier isPriceOK(uint256 PublicPriceUSD, uint256 OwnerRefundFeeUSD){\r\n        require(PublicPriceUSD >= OwnerRefundFeeUSD, \"EC21-\");\r\n        _;\r\n    }\r\n    \r\n    // CONSTRUCTOR /////////////////////////////////////////\r\n    function Treasury_init(uint256 PublicPriceUSD, uint256 PrivatePriceUSD, uint256 ProviderPriceUSD, uint256 CertificatePriceUSD, uint256 OwnerRefundFeeUSD, address managerContractAddress, address chairPerson, uint256 PropositionLifeTime, uint8 PropositionThresholdPercentage, uint8 minWeightToProposePercentage) public initializer \r\n    {\r\n        super.TokenGovernanceContract_init(PropositionLifeTime, PropositionThresholdPercentage, minWeightToProposePercentage, chairPerson, managerContractAddress);\r\n        InternalupdatePrices(PublicPriceUSD, PrivatePriceUSD, ProviderPriceUSD, CertificatePriceUSD, OwnerRefundFeeUSD, true);\r\n    }\r\n\r\n    // GOVERNANCE /////////////////////////////////////////\r\n    function updatePrices(uint256 PublicPriceUSD, uint256 PrivatePriceUSD, uint256 ProviderPriceUSD, uint256 CertificatePriceUSD, uint256 OwnerRefundFeeUSD) external override\r\n    {\r\n        InternalupdatePrices(PublicPriceUSD, PrivatePriceUSD, ProviderPriceUSD, CertificatePriceUSD, OwnerRefundFeeUSD, false);\r\n    }\r\n\r\n    function InternalupdatePrices(uint256 PublicPriceUSD, uint256 PrivatePriceUSD, uint256 ProviderPriceUSD, uint256 CertificatePriceUSD, uint256 OwnerRefundFeeUSD, bool fromConstructor) internal\r\n        isPriceOK(PublicPriceUSD, OwnerRefundFeeUSD)\r\n    {\r\n        if(fromConstructor){\r\n            _PublicPriceUSD = PublicPriceUSD;\r\n            _PrivatePriceUSD = PrivatePriceUSD;\r\n            _ProviderPriceUSD = ProviderPriceUSD;\r\n            _CertificatePriceUSD = CertificatePriceUSD;\r\n            _OwnerRefundFeeUSD = OwnerRefundFeeUSD;\r\n        }\r\n        else{\r\n            addProposition();\r\n            _ProposedPrices.NewPublicPriceUSD = PublicPriceUSD;\r\n            _ProposedPrices.NewCertificatePriceUSD = CertificatePriceUSD;\r\n            _ProposedPrices.NewPrivatePriceUSD = PrivatePriceUSD;\r\n            _ProposedPrices.NewProviderPriceUSD = ProviderPriceUSD;\r\n            _ProposedPrices.NewOwnerRefundFeeUSD = OwnerRefundFeeUSD;\r\n        }\r\n        \r\n    }\r\n\r\n    function propositionApproved() internal override\r\n    {\r\n        _PublicPriceUSD = _ProposedPrices.NewPublicPriceUSD;\r\n        _PrivatePriceUSD = _ProposedPrices.NewPrivatePriceUSD;\r\n        _ProviderPriceUSD = _ProposedPrices.NewProviderPriceUSD;\r\n        _CertificatePriceUSD = _ProposedPrices.NewCertificatePriceUSD;\r\n        _OwnerRefundFeeUSD = _ProposedPrices.NewOwnerRefundFeeUSD;\r\n        \r\n        removeProposition();\r\n\r\n        emit _NewPrices(_PublicPriceUSD, _PrivatePriceUSD, _ProviderPriceUSD, _CertificatePriceUSD, _OwnerRefundFeeUSD);\r\n    }\r\n\r\n    function propositionRejected() internal override\r\n    {\r\n        removeProposition();\r\n    }\r\n\r\n    function propositionExpired() internal override\r\n    {\r\n        removeProposition();\r\n    }\r\n\r\n    function removeProposition() internal\r\n    {\r\n         delete(_ProposedPrices);\r\n    }\r\n\r\n    function retrieveProposition() external override view returns(bytes32[] memory)\r\n    {\r\n        bytes32[] memory proposition = new bytes32[](5);\r\n        proposition[0] = UintLibrary.UintToBytes32(_ProposedPrices.NewPublicPriceUSD);\r\n        proposition[1] = UintLibrary.UintToBytes32(_ProposedPrices.NewPrivatePriceUSD);\r\n        proposition[2] = UintLibrary.UintToBytes32(_ProposedPrices.NewProviderPriceUSD);\r\n        proposition[3] = UintLibrary.UintToBytes32(_ProposedPrices.NewCertificatePriceUSD);\r\n        proposition[4] = UintLibrary.UintToBytes32(_ProposedPrices.NewOwnerRefundFeeUSD);\r\n        return proposition;\r\n    }\r\n\r\n    // FUNCTIONALITY /////////////////////////////////////////\r\n    function pay(Library.Prices price) external \r\n        areFundsEnough(price)\r\n    override payable\r\n    {\r\n        uint256 amount = msg.value;\r\n        if(price == Library.Prices.NewProvider) amount -= IPriceConverter(_managerContract.retrievePriceConverterProxy()).fromUSDToETH(_OwnerRefundFeeUSD);\r\n        _AggregatedDividendAmount += amount;\r\n\r\n        emit _Pay(msg.sender, msg.value, _AggregatedDividendAmount);\r\n    }\r\n\r\n    function InternalonTokenBalanceChanged(address from, address to, uint256 amount) internal override\r\n    {\r\n        super.InternalonTokenBalanceChanged(from, to, amount);\r\n        if(address(0) != from) InternalAssignDividends(from);\r\n        if(address(0) != to) InternalAssignDividends(to);\r\n    }\r\n\r\n    function AssignDividends() external override\r\n    {\r\n       InternalAssignDividends(msg.sender);\r\n    }\r\n\r\n    function InternalAssignDividends(address recipient) internal\r\n    {\r\n        if(_lastAssigned[recipient] < _AggregatedDividendAmount){\r\n           uint amountToSplit = _AggregatedDividendAmount - _lastAssigned[recipient];\r\n           _lastAssigned[recipient] = _AggregatedDividendAmount;\r\n           addBalance(recipient, amountToSplit * GetTokensBalance(recipient), totalSupply());\r\n           \r\n           emit _AssignDividend(recipient, amountToSplit * GetTokensBalance(recipient), totalSupply());\r\n        }\r\n    }\r\n\r\n    function getRefund(address addr, uint numberOfOwners) external \r\n        isFromPublicPool()\r\n    override\r\n    {\r\n        uint OwnerRefundFeeWei = IPriceConverter(_managerContract.retrievePriceConverterProxy()).fromUSDToETH(_OwnerRefundFeeUSD);\r\n        addBalance(addr, OwnerRefundFeeWei, numberOfOwners);\r\n\r\n        emit _Refund(addr, OwnerRefundFeeWei, numberOfOwners);\r\n    }\r\n\r\n    function withdraw(uint amount) external \r\n        isBalanceEnough(amount)\r\n    override\r\n    {\r\n        uint[] memory f = returnFactors(msg.sender);\r\n        (uint total, uint commonDividend) = sumUpTotal(msg.sender);\r\n        uint remainder =  total - (amount * commonDividend);\r\n\r\n        for(uint i=0; i < f.length; i++){\r\n            substractBalance(msg.sender, returnBalanceForFactor(msg.sender, f[i]), f[i]);\r\n        }\r\n\r\n        addBalance(msg.sender, remainder, commonDividend);\r\n\r\n        (bool success, bytes memory data) = msg.sender.call{value: amount}(\"\");\r\n        require(success, string(abi.encodePacked(\"Error transfering funds to address : \", data)));\r\n\r\n        emit _Withdraw(msg.sender, amount);\r\n    }\r\n\r\n    function retrieveLastAssigned(address addr) external override view returns(uint)\r\n    {\r\n        return _lastAssigned[addr];\r\n    }\r\n\r\n    function retrieveBalance(address addr) external override view returns(uint)\r\n    {\r\n        return checkBalance(addr);\r\n    }\r\n\r\n    function retrievePrices() external override view returns(uint, uint, uint, uint, uint)\r\n    {\r\n        return(_PublicPriceUSD, _PrivatePriceUSD, _ProviderPriceUSD, _CertificatePriceUSD, _OwnerRefundFeeUSD);\r\n    }\r\n\r\n    function retrieveAggregatedAmount() external override view returns(uint){\r\n        return _AggregatedDividendAmount;\r\n    }\r\n\r\n    function checkBalance(address addr) internal view returns(uint){\r\n        (uint total, uint commonDividend) = sumUpTotal(addr);\r\n\r\n        return total / commonDividend;\r\n    }\r\n\r\n    function sumUpTotal(address addr) internal view returns (uint, uint)\r\n    {\r\n        uint[] memory f = returnFactors(addr);\r\n        uint CommonDividend = UintLibrary.ProductOfFactors(f);\r\n        uint total = 0;\r\n\r\n        for(uint i=0; i < f.length; i++){\r\n            total += returnBalanceForFactor(addr, f[i]) * CommonDividend / f[i];\r\n        }\r\n\r\n        return (total, CommonDividend);\r\n    }\r\n\r\n    function returnFactors(address addr) internal view returns(uint[] memory){\r\n        return _balances[addr]._factors;\r\n    }\r\n\r\n    function returnBalanceForFactor(address addr, uint factor) internal view returns(uint){\r\n        return _balances[addr]._balance[factor];\r\n    }\r\n\r\n    function addBalance(address addr, uint amount, uint factor) internal\r\n    {\r\n        if(amount > 0){\r\n            if(0 == _balances[addr]._balance[factor])\r\n            {\r\n                _balances[addr]._factors.push(factor);\r\n            }\r\n            _balances[addr]._balance[factor] += amount;\r\n        }\r\n    }\r\n\r\n    function substractBalance(address addr, uint amount, uint factor) internal\r\n    {\r\n        require(_balances[addr]._balance[factor] >= amount, \"Not enough balance for this factor\");\r\n\r\n        _balances[addr]._balance[factor] -= amount;\r\n\r\n        if(0 == _balances[addr]._balance[factor])\r\n        {\r\n            UintLibrary.UintArrayRemoveResize(UintLibrary.FindUintPosition(factor, _balances[addr]._factors), _balances[addr]._factors);\r\n        }\r\n        \r\n    }\r\n\r\n}",
  "sourcePath": "C:/Users/d-aam/GitHub/Certificates/contracts/DeployedContracts/Treasury.sol",
  "compiler": {
    "name": "solc",
    "version": "0.8.7+commit.e28d00a7.Emscripten.clang"
  },
  "schemaVersion": "3.3.4",
  "updatedAt": "2021-09-23T10:20:30.475Z",
  "networkType": "ethereum",
  "devdoc": {
    "kind": "dev",
    "methods": {},
    "version": 1
  },
  "userdoc": {
    "kind": "user",
    "methods": {},
    "version": 1
  }
}