{
  "contractName": "Treasury",
  "abi": [
    {
      "inputs": [
        {
          "internalType": "uint256",
          "name": "PublicPriceWei",
          "type": "uint256"
        },
        {
          "internalType": "uint256",
          "name": "PrivatePriceWei",
          "type": "uint256"
        },
        {
          "internalType": "uint256",
          "name": "CertificatePriceWei",
          "type": "uint256"
        },
        {
          "internalType": "uint256",
          "name": "OwnerRefundPriceWei",
          "type": "uint256"
        },
        {
          "internalType": "address",
          "name": "PublicPoolAddress",
          "type": "address"
        },
        {
          "internalType": "address",
          "name": "managerContractAddress",
          "type": "address"
        },
        {
          "internalType": "address",
          "name": "CertisTokenAddress",
          "type": "address"
        },
        {
          "internalType": "uint256",
          "name": "PropositionLifeTime",
          "type": "uint256"
        },
        {
          "internalType": "uint8",
          "name": "PropositionThresholdPercentage",
          "type": "uint8"
        },
        {
          "internalType": "uint8",
          "name": "minWeightToProposePercentage",
          "type": "uint8"
        }
      ],
      "stateMutability": "nonpayable",
      "type": "constructor"
    },
    {
      "inputs": [],
      "name": "retrievePropConfig",
      "outputs": [
        {
          "internalType": "uint256",
          "name": "",
          "type": "uint256"
        },
        {
          "internalType": "uint8",
          "name": "",
          "type": "uint8"
        },
        {
          "internalType": "uint8",
          "name": "",
          "type": "uint8"
        }
      ],
      "stateMutability": "view",
      "type": "function"
    },
    {
      "inputs": [],
      "name": "retrievePropositionStatus",
      "outputs": [
        {
          "internalType": "address",
          "name": "",
          "type": "address"
        },
        {
          "internalType": "uint256",
          "name": "",
          "type": "uint256"
        },
        {
          "internalType": "uint256",
          "name": "",
          "type": "uint256"
        },
        {
          "internalType": "uint256",
          "name": "",
          "type": "uint256"
        },
        {
          "internalType": "uint256",
          "name": "",
          "type": "uint256"
        },
        {
          "internalType": "address[]",
          "name": "",
          "type": "address[]"
        },
        {
          "internalType": "uint256[]",
          "name": "",
          "type": "uint256[]"
        },
        {
          "internalType": "address[]",
          "name": "",
          "type": "address[]"
        }
      ],
      "stateMutability": "view",
      "type": "function"
    },
    {
      "inputs": [
        {
          "internalType": "uint256",
          "name": "PropLifeTime",
          "type": "uint256"
        },
        {
          "internalType": "uint8",
          "name": "PropThresholdPerc",
          "type": "uint8"
        },
        {
          "internalType": "uint8",
          "name": "minWeightToPropPerc",
          "type": "uint8"
        }
      ],
      "name": "updateProp",
      "outputs": [],
      "stateMutability": "nonpayable",
      "type": "function"
    },
    {
      "inputs": [
        {
          "internalType": "bool",
          "name": "vote",
          "type": "bool"
        }
      ],
      "name": "voteProposition",
      "outputs": [],
      "stateMutability": "nonpayable",
      "type": "function"
    },
    {
      "inputs": [
        {
          "internalType": "uint256",
          "name": "PublicPriceWei",
          "type": "uint256"
        },
        {
          "internalType": "uint256",
          "name": "PrivatePriceWei",
          "type": "uint256"
        },
        {
          "internalType": "uint256",
          "name": "CertificatePriceWei",
          "type": "uint256"
        },
        {
          "internalType": "uint256",
          "name": "OwnerRefundPriceWei",
          "type": "uint256"
        }
      ],
      "name": "updatePrices",
      "outputs": [],
      "stateMutability": "nonpayable",
      "type": "function"
    },
    {
      "inputs": [
        {
          "internalType": "address",
          "name": "PublicPoolAddress",
          "type": "address"
        },
        {
          "internalType": "address",
          "name": "CertisTokenAddress",
          "type": "address"
        }
      ],
      "name": "updateContracts",
      "outputs": [],
      "stateMutability": "nonpayable",
      "type": "function"
    },
    {
      "inputs": [
        {
          "internalType": "enum Library.Prices",
          "name": "price",
          "type": "uint8"
        }
      ],
      "name": "pay",
      "outputs": [],
      "stateMutability": "payable",
      "type": "function"
    },
    {
      "inputs": [
        {
          "internalType": "address",
          "name": "addr",
          "type": "address"
        },
        {
          "internalType": "uint256",
          "name": "numberOfOwners",
          "type": "uint256"
        }
      ],
      "name": "getRefund",
      "outputs": [],
      "stateMutability": "nonpayable",
      "type": "function"
    },
    {
      "inputs": [
        {
          "internalType": "uint256",
          "name": "amount",
          "type": "uint256"
        }
      ],
      "name": "withdraw",
      "outputs": [],
      "stateMutability": "nonpayable",
      "type": "function"
    },
    {
      "inputs": [
        {
          "internalType": "address",
          "name": "addr",
          "type": "address"
        }
      ],
      "name": "retrieveBalance",
      "outputs": [
        {
          "internalType": "uint256",
          "name": "",
          "type": "uint256"
        }
      ],
      "stateMutability": "view",
      "type": "function"
    },
    {
      "inputs": [],
      "name": "retrievePrices",
      "outputs": [
        {
          "internalType": "uint256",
          "name": "",
          "type": "uint256"
        },
        {
          "internalType": "uint256",
          "name": "",
          "type": "uint256"
        },
        {
          "internalType": "uint256",
          "name": "",
          "type": "uint256"
        },
        {
          "internalType": "uint256",
          "name": "",
          "type": "uint256"
        }
      ],
      "stateMutability": "view",
      "type": "function"
    },
    {
      "inputs": [
        {
          "internalType": "address",
          "name": "addr",
          "type": "address"
        }
      ],
      "name": "returnFactors",
      "outputs": [
        {
          "internalType": "uint256[]",
          "name": "",
          "type": "uint256[]"
        }
      ],
      "stateMutability": "view",
      "type": "function"
    },
    {
      "inputs": [
        {
          "internalType": "address",
          "name": "addr",
          "type": "address"
        },
        {
          "internalType": "uint256",
          "name": "factor",
          "type": "uint256"
        }
      ],
      "name": "returnBalanceForFactor",
      "outputs": [
        {
          "internalType": "uint256",
          "name": "",
          "type": "uint256"
        }
      ],
      "stateMutability": "view",
      "type": "function"
    }
  ],
  "bytecode": "0x60806040523480156200001157600080fd5b506040516200305d3803806200305d833981016040819052620000349162000f60565b828282620000468383836001620000d1565b5050600080546001600160a01b0319163317905550600e80546001600160a01b03871661010002610100600160a81b03199091161790556200008d8a8a8a8a6001620001ad565b620000c18685601380546001600160a01b039384166001600160a01b03199182161790915560018054929093169116179055565b5050505050505050505062001139565b82828160ff1660641015620001035760405162461bcd60e51b8152600401620000fa9062001002565b60405180910390fd5b8060ff16606410156200012a5760405162461bcd60e51b8152600401620000fa9062001002565b82156200015757600a869055600b805460ff8681166101000261ffff1990921690881617179055620001a5565b62000177600a54426200016b919062001079565b600b5460ff1662000225565b600c869055600d805460ff8681166101000261ffff1990921690881617179055600e805460ff191660011790555b505050505050565b848280821015620001d25760405162461bcd60e51b8152600401620000fa9062001002565b8215620001f35760148790556016869055601585905560178490556200021c565b62000207600a54426200016b919062001079565b600f8790556010859055601186905560128490555b50505050505050565b60006200023162000428565b15620002695760405162461bcd60e51b8152600401620000fa906020808252600490820152631150cc8d60e21b604082015260600190565b620002743362000468565b1515600114620002b05760405162461bcd60e51b8152600401620000fa9060208082526004908201526322a1991960e11b604082015260600190565b620002ba62000528565b8051620002d09160079160209091019062000ce9565b506007546200033d5760405162461bcd60e51b815260206004820152603260248201527f496d706f737369626c6520746f206164642070726f706f736974696f6e2c20746044820152716865726520617265206e6f2061646d696e7360701b6064820152608401620000fa565b600280546001600160a01b031916331790556003839055606460ff831662000364620005c1565b620003709190620010b7565b6200037c919062001094565b6004556200038962000647565b80516200039f9160089160209091019062000d53565b506200040c3360026005018054806020026020016040519081016040528092919081815260200182805480156200040057602002820191906000526020600020905b81546001600160a01b03168152600190910190602001808311620003e1575b5050620006e092505050565b1515600114156200042357620004236001620006fb565b505050565b6003546000904210156200043c5750600190565b6002546001600160a01b031615620004625762000458620009c8565b62000462620009e4565b50600090565b600080546001600160a01b03163314156200048557506001919050565b60006200049162000528565b905060006200049f62000647565b90506000620004af858462000a37565b9050825181101562000518576064620004c7620005c1565b600b54620004de9190610100900460ff16620010b7565b620004ea919062001094565b828281518110620004ff57620004ff6200110d565b6020026020010151106200051857506001949350505050565b506000949350505050565b919050565b60606000600160009054906101000a90046001600160a01b03166001600160a01b03166388d44ee06040518163ffffffff1660e01b815260040160006040518083038186803b1580156200057b57600080fd5b505afa15801562000590573d6000803e3d6000fd5b505050506040513d6000823e601f3d908101601f19168201604052620005ba919081019062000e6f565b5092915050565b600154604080516318160ddd60e01b815290516000926001600160a01b0316916318160ddd916004808301926020929190829003018186803b1580156200060757600080fd5b505afa1580156200061c573d6000803e3d6000fd5b505050506040513d601f19601f8201168201806040525081019062000642919062000f46565b905090565b60606000600160009054906101000a90046001600160a01b03166001600160a01b03166388d44ee06040518163ffffffff1660e01b815260040160006040518083038186803b1580156200069a57600080fd5b505afa158015620006af573d6000803e3d6000fd5b505050506040513d6000823e601f3d908101601f19168201604052620006d9919081019062000e6f565b9392505050565b8051600090620006f1848462000a37565b1090505b92915050565b60016200070762000428565b1515600114620007435760405162461bcd60e51b8152600401620000fa906020808252600490820152634543323560e01b604082015260600190565b620007ad33600260050180548060200260200160405190810160405280929190818152602001828054801562000400576020028201919060005260206000209081546001600160a01b03168152600190910190602001808311620003e1575050620006e092505050565b1515600114620007e95760405162461bcd60e51b8152600401620000fa906020808252600490820152634543323360e01b604082015260600190565b6200085f3360026007018054806020026020016040519081016040528092919081815260200182805480156200084957602002820191906000526020600020905b81546001600160a01b031681526001909101906020018083116200082a575b505050505062000a5060201b62000ac91760201c565b15620008945760405162461bcd60e51b815260206004820152600360248201526245433560e81b6044820152606401620000fa565b6003544210156200099857600980546001810182556000919091527f6e1540171b6c0c960b71a7020d9f60077f6af931a8bbf590da0223dacf75c7af0180546001600160a01b0319163317905581156200093f576008620008ff33620008f962000528565b62000a37565b815481106200091257620009126200110d565b90600052602060002001546002600301600082825462000933919062001079565b909155506200098a9050565b60086200095033620008f962000528565b815481106200096357620009636200110d565b90600052602060002001546002600401600082825462000984919062001079565b90915550505b6200099462000abf565b5050565b600e5460ff1615620009b457620009ae62000b57565b620009be565b620009be620009c8565b62000994620009e4565b620009e26000600f81905560108190556011819055601255565b565b600280546001600160a01b03191681556000600381905560048190556005819055600681905562000a1760078262000d91565b62000a2760068301600062000d91565b6200099460078301600062000d91565b6000620006d9838362000b7360201b62000b2f1760201c565b6000805b825181101562000ab55782818151811062000a735762000a736200110d565b60200260200101516001600160a01b0316846001600160a01b0316141562000aa0576001915050620006f5565b8062000aac81620010d9565b91505062000a54565b5060009392505050565b600454600554111562000b2a57600e5460ff161562000b1657600c54600a55600d54600b805461010080840460ff90811690910261ffff1990921693169290921791909117905562000b1062000b57565b62000b20565b62000b2062000b9f565b620009e2620009e4565b6004546006541115620009e257600e5460ff161562000b4d5762000b1062000b57565b62000b20620009c8565b6000600c55600d805461ffff19169055600e805460ff19169055565b6000620006d96001600160a01b03841662000b8e8462000bd1565b62000c8960201b62000b531760201c565b600f54601455601154601655601054601555601254601755620009e26000600f81905560108190556011819055601255565b6060600082516001600160401b0381111562000bf15762000bf162001123565b60405190808252806020026020018201604052801562000c1b578160200160208202803683370190505b50905060005b8151811015620005ba5783818151811062000c405762000c406200110d565b60200260200101516001600160a01b031660001b82828151811062000c695762000c696200110d565b60209081029190910101528062000c8081620010d9565b91505062000c21565b6000805b825181101562000cd95782818151811062000cac5762000cac6200110d565b602002602001015184141562000cc4579050620006f5565b8062000cd081620010d9565b91505062000c8d565b508151620006d990600162001079565b82805482825590600052602060002090810192821562000d41579160200282015b8281111562000d4157825182546001600160a01b0319166001600160a01b0390911617825560209092019160019091019062000d0a565b5062000d4f92915062000db4565b5090565b82805482825590600052602060002090810192821562000d41579160200282015b8281111562000d4157825182559160200191906001019062000d74565b508054600082559060005260206000209081019062000db1919062000db4565b50565b5b8082111562000d4f576000815560010162000db5565b80516001600160a01b03811681146200052357600080fd5b600082601f83011262000df557600080fd5b8151602062000e0e62000e088362001053565b62001020565b80838252828201915082860187848660051b890101111562000e2f57600080fd5b60005b8581101562000e505781518452928401929084019060010162000e32565b5090979650505050505050565b805160ff811681146200052357600080fd5b6000806040838503121562000e8357600080fd5b82516001600160401b038082111562000e9b57600080fd5b818501915085601f83011262000eb057600080fd5b8151602062000ec362000e088362001053565b8083825282820191508286018a848660051b890101111562000ee457600080fd5b600096505b8487101562000f125762000efd8162000dcb565b83526001969096019591830191830162000ee9565b509188015191965090935050508082111562000f2d57600080fd5b5062000f3c8582860162000de3565b9150509250929050565b60006020828403121562000f5957600080fd5b5051919050565b6000806000806000806000806000806101408b8d03121562000f8157600080fd5b8a51995060208b0151985060408b0151975060608b0151965062000fa860808c0162000dcb565b955062000fb860a08c0162000dcb565b945062000fc860c08c0162000dcb565b935060e08b0151925062000fe06101008c0162000e5d565b915062000ff16101208c0162000e5d565b90509295989b9194979a5092959850565b6020808252600490820152634543323160e01b604082015260600190565b604051601f8201601f191681016001600160401b03811182821017156200104b576200104b62001123565b604052919050565b60006001600160401b038211156200106f576200106f62001123565b5060051b60200190565b600082198211156200108f576200108f620010f7565b500190565b600082620010b257634e487b7160e01b600052601260045260246000fd5b500490565b6000816000190483118215151615620010d457620010d4620010f7565b500290565b6000600019821415620010f057620010f0620010f7565b5060010190565b634e487b7160e01b600052601160045260246000fd5b634e487b7160e01b600052603260045260246000fd5b634e487b7160e01b600052604160045260246000fd5b611f1480620011496000396000f3fe6080604052600436106100a25760003560e01c806325b4f3ca146100a75780632e1a7d4d146100e557806351f69d0614610107578063840f6d1714610127578063906816d71461015057806391f916711461017e578063ac2bb4421461019e578063c56cb580146101be578063d660ab34146101eb578063e20f37ad14610224578063e692c49f14610244578063eb1e2a4114610264578063f0c9325e14610284575b600080fd5b3480156100b357600080fd5b506014546016546015546017546040805194855260208501939093529183015260608201526080015b60405180910390f35b3480156100f157600080fd5b50610105610100366004611b7a565b610297565b005b34801561011357600080fd5b50610105610122366004611bac565b610479565b34801561013357600080fd5b5061013c61048d565b6040516100dc989796959493929190611c8e565b34801561015c57600080fd5b5061017061016b366004611a04565b6105fd565b6040519081526020016100dc565b34801561018a57600080fd5b50610105610199366004611b37565b610628565b3480156101aa57600080fd5b506101056101b9366004611bde565b6108bd565b3480156101ca57600080fd5b506101de6101d93660046119ae565b6108cf565b6040516100dc9190611cff565b3480156101f757600080fd5b50600a54600b546040805192835260ff8083166020850152610100909204909116908201526060016100dc565b34801561023057600080fd5b5061017061023f3660046119ae565b61093e565b34801561025057600080fd5b5061010561025f3660046119cb565b610949565b34801561027057600080fd5b5061010561027f366004611a04565b6109b7565b610105610292366004611b59565b6109fa565b80806102a233610ba8565b10156102e25760405162461bcd60e51b81526004016102d9906020808252600490820152630454332360e41b604082015260600190565b60405180910390fd5b60006102ed336108cf565b90506000805b84821080156103025750825181105b156103d757600083828151811061031b5761031b611e9d565b60200260200101516103463386858151811061033957610339611e9d565b60200260200101516105fd565b6103509190611dfe565b905061035c8387611e3f565b8111156103705761036d8387611e3f565b90505b61037a8184611de6565b92506103c43385848151811061039257610392611e9d565b6020026020010151836103a59190611e20565b8685815181106103b7576103b7611e9d565b6020026020010151610c23565b816103ce81611e56565b925050506102f3565b8482146104445760405162461bcd60e51b815260206004820152603560248201527f556e45787065637465642070726f626c656d2063616c63756c6174696e672074604482015274686520616d6f756e7420746f20776974686472617760581b60648201526084016102d9565b604051339083156108fc029084906000818181858888f19350505050158015610471573d6000803e3d6000fd5b505050505050565b610487848484846000610e72565b50505050565b60008060008060006060806060600260000160009054906101000a90046001600160a01b031660026001015460028001546002600301546002600401546002600501600260060160026007018280548060200260200160405190810160405280929190818152602001828054801561052e57602002820191906000526020600020905b81546001600160a01b03168152600190910190602001808311610510575b505050505092508180548060200260200160405190810160405280929190818152602001828054801561058057602002820191906000526020600020905b81548152602001906001019080831161056c575b50505050509150808054806020026020016040519081016040528092919081815260200182805480156105dc57602002820191906000526020600020905b81546001600160a01b031681526001909101906020018083116105be575b50505050509050975097509750975097509750975097509091929394959697565b6001600160a01b03821660009081526018602090815260408083208484529091529020545b92915050565b6001610632610eed565b151560011461066c5760405162461bcd60e51b81526004016102d9906020808252600490820152634543323560e01b604082015260600190565b6106d33360026005018054806020026020016040519081016040528092919081815260200182805480156106c957602002820191906000526020600020905b81546001600160a01b031681526001909101906020018083116106ab575b5050505050610f27565b151560011461070d5760405162461bcd60e51b81526004016102d9906020808252600490820152634543323360e01b604082015260600190565b61077433600260070180548060200260200160405190810160405280929190818152602001828054801561076a57602002820191906000526020600020905b81546001600160a01b0316815260019091019060200180831161074c575b5050505050610ac9565b156107a75760405162461bcd60e51b815260206004820152600360248201526245433560e81b60448201526064016102d9565b60035442101561089557600980546001810182556000919091527f6e1540171b6c0c960b71a7020d9f60077f6af931a8bbf590da0223dacf75c7af0180546001600160a01b03191633179055811561084657600861080c33610807610f3d565b610fd2565b8154811061081c5761081c611e9d565b90600052602060002001546002600301600082825461083b9190611de6565b909155506108899050565b600861085433610807610f3d565b8154811061086457610864611e9d565b9060005260206000200154600260040160008282546108839190611de6565b90915550505b610891610fde565b5050565b600e5460ff16156108ad576108a8611095565b6108b5565b6108b56110b1565b6108916110ca565b6108ca8383836000611117565b505050565b6001600160a01b03811660009081526018602090815260409182902060010180548351818402810184019094528084526060939283018282801561093257602002820191906000526020600020905b81548152602001906001019080831161091e575b50505050509050919050565b600061062282610ba8565b600e546109639061010090046001600160a01b03166111d2565b15156001146109845760405162461bcd60e51b81526004016102d990611d30565b6108918282601380546001600160a01b039384166001600160a01b03199182161790915560018054929093169116179055565b6013546109cc906001600160a01b03166111d2565b15156001146109ed5760405162461bcd60e51b81526004016102d990611d30565b61089182601754836111f5565b80600019816002811115610a1057610a10611e87565b610a1d5750601454610a5f565b816002811115610a2f57610a2f611e87565b60011415610a405750601654610a5f565b816002811115610a5257610a52611e87565b60021415610a5f57506015545b80341015610a955760405162461bcd60e51b815260206004820152600360248201526222a19960e91b60448201526064016102d9565b346000846002811115610aaa57610aaa611e87565b1415610ac057601754610abd9082611e3f565b90505b61048781611289565b6000805b8251811015610b2557828181518110610ae857610ae8611e9d565b60200260200101516001600160a01b0316846001600160a01b03161415610b13576001915050610622565b80610b1d81611e56565b915050610acd565b5060009392505050565b6000610b4c6001600160a01b038416610b4784611411565b610b53565b9392505050565b6000805b8251811015610b9a57828181518110610b7257610b72611e9d565b6020026020010151841415610b88579050610622565b80610b9281611e56565b915050610b57565b508151610b4c906001611de6565b600080610bb4836108cf565b90506000805b8251811015610c1b57828181518110610bd557610bd5611e9d565b6020026020010151610bf38685848151811061033957610339611e9d565b610bfd9190611dfe565b610c079083611de6565b915080610c1381611e56565b915050610bba565b509392505050565b6001600160a01b0383166000908152601860209081526040808320848452909152902054821115610ca15760405162461bcd60e51b815260206004820152602260248201527f4e6f7420656e6f7567682062616c616e636520666f722074686973206661637460448201526137b960f11b60648201526084016102d9565b6001600160a01b038316600090815260186020908152604080832084845290915281208054849290610cd4908490611e3f565b90915550506001600160a01b03831660009081526018602090815260408083208484529091529020546108ca576001600160a01b0383166000908152601860205260409081902090516362fe358160e11b815273__UintLibrary___________________________916302fbee9e91839163c5fc6b0291610d5f918791600190910190600401611d4d565b60206040518083038186803b158015610d7757600080fd5b505af4158015610d8b573d6000803e3d6000fd5b505050506040513d601f19601f82011682018060405250810190610daf9190611b93565b6001600160a01b0386166000908152601860205260409081902090516001600160e01b031960e085901b168152610ded929160010190600401611d4d565b60006040518083038186803b158015610e0557600080fd5b505af4158015610e19573d6000803e3d6000fd5b505050506040513d6000823e601f3d908101601f19168201604052610e419190810190611afb565b6001600160a01b03841660009081526018602090815260409091208251610487936001909201929190910190611855565b848280821015610e945760405162461bcd60e51b81526004016102d990611d12565b8215610eb3576014879055601686905560158590556017849055610ee4565b610ecf600a5442610ec49190611de6565b600b5460ff166114bb565b600f8790556010859055601186905560128490555b50505050505050565b600354600090421015610f005750600190565b6002546001600160a01b031615610f2157610f196110b1565b610f216110ca565b50600090565b60008151610f358484610fd2565b109392505050565b60606000600160009054906101000a90046001600160a01b03166001600160a01b03166388d44ee06040518163ffffffff1660e01b815260040160006040518083038186803b158015610f8f57600080fd5b505afa158015610fa3573d6000803e3d6000fd5b505050506040513d6000823e601f3d908101601f19168201604052610fcb9190810190611a30565b5092915050565b6000610b4c8383610b2f565b600454600554111561106e57600e5460ff161561103057600c54600a55600d54600b805461010080840460ff90811690910261ffff1990921693169290921791909117905561102b611095565b611064565b611064600f5460145560115460165560105460155560125460175561106c6000600f81905560108190556011819055601255565b61106c6110ca565b565b600454600654111561106c57600e5460ff161561108d5761102b611095565b6110646110b1565b6000600c55600d805461ffff19169055600e805460ff19169055565b61106c6000600f81905560108190556011819055601255565b600280546001600160a01b0319168155600060038190556004819055600581905560068190556110fb6007826118a0565b6111096006830160006118a0565b6108916007830160006118a0565b82828160ff166064101561113d5760405162461bcd60e51b81526004016102d990611d12565b8060ff16606410156111615760405162461bcd60e51b81526004016102d990611d12565b821561118c57600a869055600b805460ff8681166101000261ffff1990921690881617179055610471565b61119d600a5442610ec49190611de6565b600c869055600d805460ff8681166101000261ffff1990921690881617179055600e805460ff19166001179055505050505050565b6000336001600160a01b03831614156111ed57506001919050565b506000919050565b6001600160a01b038316600090815260186020908152604080832084845290915290205461124c576001600160a01b0383166000908152601860209081526040822060019081018054918201815583529120018190555b6001600160a01b03831660009081526018602090815260408083208484529091528120805484929061127f908490611de6565b9091555050505050565b600080600160009054906101000a90046001600160a01b03166001600160a01b03166388d44ee06040518163ffffffff1660e01b815260040160006040518083038186803b1580156112da57600080fd5b505afa1580156112ee573d6000803e3d6000fd5b505050506040513d6000823e601f3d908101601f191682016040526113169190810190611a30565b915091506000600160009054906101000a90046001600160a01b03166001600160a01b03166318160ddd6040518163ffffffff1660e01b815260040160206040518083038186803b15801561136a57600080fd5b505afa15801561137e573d6000803e3d6000fd5b505050506040513d601f19601f820116820180604052508101906113a29190611b93565b905060005b835181101561140a576113f88482815181106113c5576113c5611e9d565b6020026020010151868584815181106113e0576113e0611e9d565b60200260200101516113f29190611e20565b846111f5565b8061140281611e56565b9150506113a7565b5050505050565b6060600082516001600160401b0381111561142e5761142e611eb3565b604051908082528060200260200182016040528015611457578160200160208202803683370190505b50905060005b8151811015610fcb5783818151811061147857611478611e9d565b60200260200101516001600160a01b031660001b82828151811061149e5761149e611e9d565b6020908102919091010152806114b381611e56565b91505061145d565b60006114c5610eed565b156114fb5760405162461bcd60e51b81526004016102d9906020808252600490820152631150cc8d60e21b604082015260600190565b61150433611697565b151560011461153e5760405162461bcd60e51b81526004016102d99060208082526004908201526322a1991960e11b604082015260600190565b611546610f3d565b805161155a916007916020909101906118c1565b506007546115c55760405162461bcd60e51b815260206004820152603260248201527f496d706f737369626c6520746f206164642070726f706f736974696f6e2c20746044820152716865726520617265206e6f2061646d696e7360701b60648201526084016102d9565b600280546001600160a01b031916331790556003839055606460ff83166115ea611745565b6115f49190611e20565b6115fe9190611dfe565b6004556116096117c7565b805161161d91600891602090910190611855565b506116833360026005018054806020026020016040519081016040528092919081815260200182805480156106c9576020028201919060005260206000209081546001600160a01b031681526001909101906020018083116106ab575050505050610f27565b1515600114156108ca576108ca6001610628565b600080546001600160a01b03163314156116b357506001919050565b60006116bd610f3d565b905060006116c96117c7565b905060006116d78584610fd2565b905082518110156117355760646116ec611745565b600b546117019190610100900460ff16611e20565b61170b9190611dfe565b82828151811061171d5761171d611e9d565b60200260200101511061173557506001949350505050565b506000949350505050565b919050565b600154604080516318160ddd60e01b815290516000926001600160a01b0316916318160ddd916004808301926020929190829003018186803b15801561178a57600080fd5b505afa15801561179e573d6000803e3d6000fd5b505050506040513d601f19601f820116820180604052508101906117c29190611b93565b905090565b60606000600160009054906101000a90046001600160a01b03166001600160a01b03166388d44ee06040518163ffffffff1660e01b815260040160006040518083038186803b15801561181957600080fd5b505afa15801561182d573d6000803e3d6000fd5b505050506040513d6000823e601f3d908101601f19168201604052610b4c9190810190611a30565b828054828255906000526020600020908101928215611890579160200282015b82811115611890578251825591602001919060010190611875565b5061189c929150611916565b5090565b50805460008255906000526020600020908101906118be9190611916565b50565b828054828255906000526020600020908101928215611890579160200282015b8281111561189057825182546001600160a01b0319166001600160a01b039091161782556020909201916001909101906118e1565b5b8082111561189c5760008155600101611917565b600082601f83011261193c57600080fd5b8151602061195161194c83611dc3565b611d93565b80838252828201915082860187848660051b890101111561197157600080fd5b60005b8581101561199057815184529284019290840190600101611974565b5090979650505050505050565b803560ff8116811461174057600080fd5b6000602082840312156119c057600080fd5b8135610b4c81611ec9565b600080604083850312156119de57600080fd5b82356119e981611ec9565b915060208301356119f981611ec9565b809150509250929050565b60008060408385031215611a1757600080fd5b8235611a2281611ec9565b946020939093013593505050565b60008060408385031215611a4357600080fd5b82516001600160401b0380821115611a5a57600080fd5b818501915085601f830112611a6e57600080fd5b81516020611a7e61194c83611dc3565b8083825282820191508286018a848660051b8901011115611a9e57600080fd5b600096505b84871015611aca578051611ab681611ec9565b835260019690960195918301918301611aa3565b5091880151919650909350505080821115611ae457600080fd5b50611af18582860161192b565b9150509250929050565b600060208284031215611b0d57600080fd5b81516001600160401b03811115611b2357600080fd5b611b2f8482850161192b565b949350505050565b600060208284031215611b4957600080fd5b81358015158114610b4c57600080fd5b600060208284031215611b6b57600080fd5b813560038110610b4c57600080fd5b600060208284031215611b8c57600080fd5b5035919050565b600060208284031215611ba557600080fd5b5051919050565b60008060008060808587031215611bc257600080fd5b5050823594602084013594506040840135936060013592509050565b600080600060608486031215611bf357600080fd5b83359250611c036020850161199d565b9150611c116040850161199d565b90509250925092565b600081518084526020808501945080840160005b83811015611c535781516001600160a01b031687529582019590820190600101611c2e565b509495945050505050565b600081518084526020808501945080840160005b83811015611c5357815187529582019590820190600101611c72565b600061010060018060a01b038b1683528960208401528860408401528760608401528660808401528060a0840152611cc881840187611c1a565b905082810360c0840152611cdc8186611c5e565b905082810360e0840152611cf08185611c1a565b9b9a5050505050505050505050565b602081526000610b4c6020830184611c5e565b6020808252600490820152634543323160e01b604082015260600190565b60208082526003908201526208a86760eb1b604082015260600190565b60006040820184835260206040818501528185548084526060860191508660005282600020935060005b8181101561199057845483526001948501949284019201611d77565b604051601f8201601f191681016001600160401b0381118282101715611dbb57611dbb611eb3565b604052919050565b60006001600160401b03821115611ddc57611ddc611eb3565b5060051b60200190565b60008219821115611df957611df9611e71565b500190565b600082611e1b57634e487b7160e01b600052601260045260246000fd5b500490565b6000816000190483118215151615611e3a57611e3a611e71565b500290565b600082821015611e5157611e51611e71565b500390565b6000600019821415611e6a57611e6a611e71565b5060010190565b634e487b7160e01b600052601160045260246000fd5b634e487b7160e01b600052602160045260246000fd5b634e487b7160e01b600052603260045260246000fd5b634e487b7160e01b600052604160045260246000fd5b6001600160a01b03811681146118be57600080fdfea2646970667358221220a7cdb4adb2c9c1d1cc279b4169834c7376e81334f64065ab75c5b62cccec18f864736f6c63430008060033",
  "immutableReferences": {},
  "source": "// SPDX-License-Identifier: GPL-3.0\r\n\r\npragma solidity >=0.7.0 <0.9.0;\r\n\r\n/**\r\n * @title Storage\r\n * @dev Store & retrieve value in a variable\r\n */\r\n\r\nimport \"./Interfaces/ITreasury.sol\";\r\nimport \"./PublicCertificatesPool.sol\";\r\nimport \"./Libraries/UintLibrary.sol\";\r\nimport \"./Libraries/Library.sol\";\r\nimport \"./CertisToken.sol\";\r\nimport \"./Base/TokenGovernanceBaseContract.sol\";\r\n\r\n\r\ncontract Treasury is ITreasury, TokenGovernanceBaseContract{\r\n    using Library for *;\r\n    using UintLibrary for *;\r\n\r\n    // manager contract\r\n    address _managerContract;\r\n\r\n    // modifiers\r\n    modifier areFundsEnough(Library.Prices price){\r\n        uint256 minPrice = 2**256 - 1;\r\n\r\n        if(Library.Prices.NewProvider == price) minPrice = _PublicPriceWei;\r\n        else if(Library.Prices.NewPool == price) minPrice = _PrivatePriceWei;\r\n        else if(Library.Prices.NewCertificate == price) minPrice = _CertificatePriceWei;\r\n\r\n        require(msg.value >= minPrice, \"EC2\");\r\n        _;\r\n    }\r\n\r\n    modifier isBalanceEnough(uint amount){\r\n        require(checkBalance(msg.sender) >= amount, \"EC20\");\r\n        _;\r\n    }\r\n\r\n    modifier isFromPublicPool(){\r\n        require(true == Library.ItIsSomeone(address(_PublicCertificatesPool)), \"EC8\");\r\n        _;\r\n    }\r\n\r\n    modifier isFromManagerContract(){\r\n        require(true == Library.ItIsSomeone(_managerContract), \"EC8\");\r\n        _;\r\n    }\r\n\r\n    modifier isPriceOK(uint256 PublicPriceWei, uint256 OwnerRefundPriceWei){\r\n        require(PublicPriceWei >= OwnerRefundPriceWei, \"EC21\");\r\n        _;\r\n    }\r\n\r\n    // proposition to change\r\n    struct ProposedPricesStruct{\r\n        uint NewPublicPriceWei;\r\n        uint NewCertificatePriceWei;\r\n        uint NewPrivatePriceWei;\r\n        uint NewOwnerRefundPriceWei;\r\n    }\r\n\r\n    ProposedPricesStruct _ProposedPrices;\r\n\r\n    // constants\r\n    PublicCertificatesPool  _PublicCertificatesPool;\r\n    uint _PublicPriceWei;\r\n    uint _CertificatePriceWei;\r\n    uint _PrivatePriceWei;\r\n    uint _OwnerRefundPriceWei;\r\n\r\n    // data\r\n    struct _BalanceStruct{\r\n        mapping(uint => uint) _balance;\r\n        uint[] _factors;\r\n    }\r\n    \r\n    mapping(address => _BalanceStruct) _balances;\r\n\r\n    constructor(uint256 PublicPriceWei, uint256 PrivatePriceWei, uint256 CertificatePriceWei, uint256 OwnerRefundPriceWei, address PublicPoolAddress, address managerContractAddress, address CertisTokenAddress, uint256 PropositionLifeTime, uint8 PropositionThresholdPercentage, uint8 minWeightToProposePercentage) \r\n    TokenGovernanceBaseContract(PropositionLifeTime, PropositionThresholdPercentage, minWeightToProposePercentage)\r\n    {\r\n        _chairperson = msg.sender;\r\n        _managerContract = managerContractAddress; \r\n        \r\n        InternalupdatePrices(PublicPriceWei, PrivatePriceWei, CertificatePriceWei, OwnerRefundPriceWei, true);\r\n        InternalupdateContracts(PublicPoolAddress, CertisTokenAddress);\r\n    }\r\n\r\n\r\n    // governance \r\n\r\n    function updatePrices(uint256 PublicPriceWei, uint256 PrivatePriceWei, uint256 CertificatePriceWei, uint256 OwnerRefundPriceWei) external override\r\n    {\r\n        InternalupdatePrices(PublicPriceWei, PrivatePriceWei, CertificatePriceWei, OwnerRefundPriceWei, false);\r\n    }\r\n\r\n    function updateContracts(address PublicPoolAddress, address CertisTokenAddress) external \r\n        isFromManagerContract()\r\n    override\r\n    {\r\n        InternalupdateContracts(PublicPoolAddress, CertisTokenAddress);\r\n    }\r\n\r\n    function InternalupdatePrices(uint256 PublicPriceWei, uint256 PrivatePriceWei, uint256 CertificatePriceWei, uint256 OwnerRefundPriceWei, bool fromConstructor) internal\r\n        isPriceOK(PublicPriceWei, OwnerRefundPriceWei)\r\n    {\r\n        if(fromConstructor){\r\n            _PublicPriceWei = PublicPriceWei;\r\n            _PrivatePriceWei = PrivatePriceWei;\r\n            _CertificatePriceWei = CertificatePriceWei;\r\n            _OwnerRefundPriceWei = OwnerRefundPriceWei;\r\n        }\r\n        else{\r\n            addProposition(block.timestamp + _PropositionLifeTime, _PropositionThresholdPercentage);\r\n            _ProposedPrices.NewPublicPriceWei = PublicPriceWei;\r\n            _ProposedPrices.NewCertificatePriceWei = CertificatePriceWei;\r\n            _ProposedPrices.NewPrivatePriceWei = PrivatePriceWei;\r\n            _ProposedPrices.NewOwnerRefundPriceWei = OwnerRefundPriceWei;\r\n        }\r\n        \r\n    }\r\n\r\n    function InternalupdateContracts(address PublicPoolAddress, address CertisTokenAddress) internal\r\n    {\r\n        _PublicCertificatesPool = PublicCertificatesPool(PublicPoolAddress);\r\n        _CertisToken = CertisToken(CertisTokenAddress); \r\n    }\r\n\r\n    function propositionApproved() internal override\r\n    {\r\n        _PublicPriceWei = _ProposedPrices.NewPublicPriceWei;\r\n        _PrivatePriceWei = _ProposedPrices.NewPrivatePriceWei;\r\n        _CertificatePriceWei = _ProposedPrices.NewCertificatePriceWei;\r\n        _OwnerRefundPriceWei = _ProposedPrices.NewOwnerRefundPriceWei;\r\n        \r\n        removeProposition();\r\n    }\r\n\r\n    function propositionRejected() internal override\r\n    {\r\n        removeProposition();\r\n    }\r\n\r\n    function propositionExpired() internal override\r\n    {\r\n        removeProposition();\r\n    }\r\n\r\n    function removeProposition() internal\r\n    {\r\n         delete(_ProposedPrices);\r\n    }\r\n\r\n    // functionality\r\n\r\n    function pay(Library.Prices price) external \r\n        areFundsEnough(price)\r\n    override payable\r\n    {\r\n        uint256 amount = msg.value;\r\n        if(price == Library.Prices.NewProvider) amount -= _OwnerRefundPriceWei;\r\n        AssignDividends(amount);\r\n    }\r\n\r\n    function AssignDividends(uint256 amount) internal{\r\n        (address[] memory DividendsRecipients, uint256[] memory DividendsRecipientsTokens) = _CertisToken.TokenOwners();\r\n        uint256 TotalTokenSupply = _CertisToken.totalSupply();\r\n\r\n        for(uint i=0; i < DividendsRecipients.length; i++){\r\n            addBalance(DividendsRecipients[i], DividendsRecipientsTokens[i] * amount, TotalTokenSupply);\r\n        }\r\n\r\n    }\r\n\r\n\r\n    function getRefund(address addr, uint numberOfOwners) external \r\n        isFromPublicPool()\r\n    override\r\n    {\r\n        addBalance(addr, _OwnerRefundPriceWei, numberOfOwners);\r\n    }\r\n\r\n    function withdraw(uint amount) external \r\n        isBalanceEnough(amount)\r\n    override\r\n    {\r\n        uint[] memory f = returnFactors(msg.sender);\r\n        uint total = 0;\r\n        uint i = 0;\r\n\r\n        while ((total < amount) && (i < f.length)){\r\n            uint amountForFactor = returnBalanceForFactor(msg.sender, f[i]) / f[i];\r\n            if(amountForFactor > (amount - total)) amountForFactor = amount - total;\r\n            total += amountForFactor;\r\n            substractBalance(msg.sender, amountForFactor * f[i], f[i]);\r\n            i++;\r\n        }\r\n\r\n        require(total == amount, \"UnExpected problem calculating the amount to withdraw\");\r\n\r\n        payable(msg.sender).transfer(total);\r\n    }\r\n\r\n    function retrieveBalance(address addr) external override view returns(uint)\r\n    {\r\n        return checkBalance(addr);\r\n    }\r\n\r\n    function retrievePrices() external override view returns(uint, uint, uint, uint)\r\n    {\r\n        return(_PublicPriceWei, _PrivatePriceWei, _CertificatePriceWei, _OwnerRefundPriceWei);\r\n    }\r\n\r\n    function checkBalance(address addr) internal view returns(uint){\r\n        uint[] memory f = returnFactors(addr);\r\n        uint total = 0;\r\n\r\n        for(uint i=0; i < f.length; i++){\r\n            total += returnBalanceForFactor(addr, f[i]) / f[i];\r\n        }\r\n\r\n        return total;\r\n    }\r\n\r\n    function returnFactors(address addr) public view returns(uint[] memory){\r\n        return _balances[addr]._factors;\r\n    }\r\n\r\n    function returnBalanceForFactor(address addr, uint factor) public view returns(uint){\r\n        return _balances[addr]._balance[factor];\r\n    }\r\n\r\n    function addBalance(address addr, uint amount, uint factor) private{\r\n        if(0 == _balances[addr]._balance[factor]){\r\n             _balances[addr]._factors.push(factor);\r\n        }\r\n\r\n       _balances[addr]._balance[factor] += amount;\r\n    }\r\n\r\n    function substractBalance(address addr, uint amount, uint factor) private{\r\n        require(_balances[addr]._balance[factor] >= amount, \"Not enough balance for this factor\");\r\n\r\n        _balances[addr]._balance[factor] -= amount;\r\n\r\n        if(0 == _balances[addr]._balance[factor]){\r\n            _balances[addr]._factors = UintLibrary.UintArrayRemoveResize(UintLibrary.FindUintPosition(factor, _balances[addr]._factors), _balances[addr]._factors);\r\n        }\r\n        \r\n    }\r\n\r\n}",
  "sourcePath": "C:\\Users\\d-aam\\GitHub\\Certificates\\contracts\\Treasury.sol",
  "compiler": {
    "name": "solc",
    "version": "0.8.6+commit.11564f7e.Emscripten.clang"
  },
  "schemaVersion": "3.3.4",
  "updatedAt": "2021-07-22T15:01:10.233Z",
  "devdoc": {
    "kind": "dev",
    "methods": {},
    "version": 1
  },
  "userdoc": {
    "kind": "user",
    "methods": {},
    "version": 1
  }
}