{
  "contractName": "Treasury",
  "abi": [
    {
      "inputs": [
        {
          "internalType": "uint256",
          "name": "PublicPriceWei",
          "type": "uint256"
        },
        {
          "internalType": "uint256",
          "name": "PrivatePriceWei",
          "type": "uint256"
        },
        {
          "internalType": "uint256",
          "name": "OwnerRefundPriceWei",
          "type": "uint256"
        },
        {
          "internalType": "address",
          "name": "PublicPoolAddress",
          "type": "address"
        },
        {
          "internalType": "address",
          "name": "managerContractAddress",
          "type": "address"
        }
      ],
      "stateMutability": "nonpayable",
      "type": "constructor"
    },
    {
      "inputs": [],
      "name": "payForNewProposal",
      "outputs": [],
      "stateMutability": "payable",
      "type": "function"
    },
    {
      "inputs": [],
      "name": "payForNewPool",
      "outputs": [],
      "stateMutability": "payable",
      "type": "function"
    },
    {
      "inputs": [
        {
          "internalType": "address",
          "name": "addr",
          "type": "address"
        },
        {
          "internalType": "uint256",
          "name": "numberOfOwners",
          "type": "uint256"
        }
      ],
      "name": "getRefund",
      "outputs": [],
      "stateMutability": "nonpayable",
      "type": "function"
    },
    {
      "inputs": [
        {
          "internalType": "uint256",
          "name": "amount",
          "type": "uint256"
        }
      ],
      "name": "withdraw",
      "outputs": [],
      "stateMutability": "nonpayable",
      "type": "function"
    },
    {
      "inputs": [
        {
          "internalType": "address",
          "name": "addr",
          "type": "address"
        }
      ],
      "name": "retrieveBalance",
      "outputs": [
        {
          "internalType": "uint256",
          "name": "",
          "type": "uint256"
        }
      ],
      "stateMutability": "view",
      "type": "function"
    },
    {
      "inputs": [
        {
          "internalType": "address",
          "name": "addr",
          "type": "address"
        }
      ],
      "name": "returnFactors",
      "outputs": [
        {
          "internalType": "uint256[]",
          "name": "",
          "type": "uint256[]"
        }
      ],
      "stateMutability": "view",
      "type": "function"
    },
    {
      "inputs": [
        {
          "internalType": "address",
          "name": "addr",
          "type": "address"
        },
        {
          "internalType": "uint256",
          "name": "factor",
          "type": "uint256"
        }
      ],
      "name": "returnBalanceForFactor",
      "outputs": [
        {
          "internalType": "uint256",
          "name": "",
          "type": "uint256"
        }
      ],
      "stateMutability": "view",
      "type": "function"
    }
  ],
  "bytecode": "0x608060405234801561001057600080fd5b50604051610a91380380610a91833981810160405260a081101561003357600080fd5b508051602082015160408301516060840151608090940151600080546001600160a01b039283166001600160a01b031991821617909155600294909455600392909255600455600180549190931691161790556109fc806100956000396000f3fe6080604052600436106100605760003560e01c80632e1a7d4d14610065578063435358f8146100915780637cc850fd14610099578063906816d7146100a1578063c56cb580146100ec578063e20f37ad1461016f578063eb1e2a41146101a2575b600080fd5b34801561007157600080fd5b5061008f6004803603602081101561008857600080fd5b50356101db565b005b61008f610347565b61008f610388565b3480156100ad57600080fd5b506100da600480360360408110156100c457600080fd5b506001600160a01b0381351690602001356103c6565b60408051918252519081900360200190f35b3480156100f857600080fd5b5061011f6004803603602081101561010f57600080fd5b50356001600160a01b03166103ee565b60408051602080825283518183015283519192839290830191858101910280838360005b8381101561015b578181015183820152602001610143565b505050509050019250505060405180910390f35b34801561017b57600080fd5b506100da6004803603602081101561019257600080fd5b50356001600160a01b031661045e565b3480156101ae57600080fd5b5061008f600480360360408110156101c557600080fd5b506001600160a01b03813516906020013561046f565b80806101e6336104d1565b1015610222576040805162461bcd60e51b815260206004808301919091526024820152630454332360e41b604482015290519081900360640190fd5b600061022d336103ee565b90506000805b84821080156102425750825181105b156102d457600083828151811061025557fe5b602002602001015161027a3386858151811061026d57fe5b60200260200101516103c6565b8161028157fe5b04905082860381111561029357508185035b80830192506102cb338584815181106102a857fe5b602002602001015183028685815181106102be57fe5b602002602001015161052d565b50600101610233565b8482146103125760405162461bcd60e51b81526004018080602001828103825260358152602001806109706035913960400191505060405180910390fd5b604051339083156108fc029084906000818181858888f1935050505015801561033f573d6000803e3d6000fd5b505050505050565b60025480341015610385576040805162461bcd60e51b815260206004820152600360248201526222a19960e91b604482015290519081900360640190fd5b50565b60035480341015610385576040805162461bcd60e51b815260206004820152600360248201526222a19960e91b604482015290519081900360640190fd5b6001600160a01b03919091166000908152600560209081526040808320938352929052205490565b6001600160a01b03811660009081526005602090815260409182902060010180548351818402810184019094528084526060939283018282801561045157602002820191906000526020600020905b81548152602001906001019080831161043d575b505050505090505b919050565b6000610469826104d1565b92915050565b600154610484906001600160a01b0316610866565b15156001146104c0576040805162461bcd60e51b815260206004820152600360248201526208a86760eb1b604482015290519081900360640190fd5b6104cd8260045483610889565b5050565b6000806104dd836103ee565b90506000805b8251811015610525578281815181106104f857fe5b60200260200101516105108685848151811061026d57fe5b8161051757fe5b0491909101906001016104e3565b509392505050565b6001600160a01b038316600090815260056020908152604080832084845290915290205482111561058f5760405162461bcd60e51b81526004018080602001828103825260228152602001806109a56022913960400191505060405180910390fd5b6001600160a01b038316600090815260056020908152604080832084845290915290208054839003908190556108615773__UintLibrary___________________________6302fbee9e73__UintLibrary___________________________63c5fc6b028460056000896001600160a01b03166001600160a01b031681526020019081526020016000206001016040518363ffffffff1660e01b81526004018083815260200180602001828103825283818154815260200191508054801561067657602002820191906000526020600020905b815481526020019060010190808311610662575b5050935050505060206040518083038186803b15801561069557600080fd5b505af41580156106a9573d6000803e3d6000fd5b505050506040513d60208110156106bf57600080fd5b50516001600160a01b0386166000908152600560205260409081902081516001600160e01b031960e086901b16815260048101848152602482019384526001909201805460448301819052909391606401908490801561073e57602002820191906000526020600020905b81548152602001906001019080831161072a575b5050935050505060006040518083038186803b15801561075d57600080fd5b505af4158015610771573d6000803e3d6000fd5b505050506040513d6000823e601f3d908101601f19168201604052602081101561079a57600080fd5b8101908080516040519392919084600160201b8211156107b957600080fd5b9083019060208201858111156107ce57600080fd5b82518660208202830111600160201b821117156107ea57600080fd5b82525081516020918201928201910280838360005b838110156108175781810151838201526020016107ff565b5050505090500160405250505060056000856001600160a01b03166001600160a01b03168152602001908152602001600020600101908051906020019061085f92919061090f565b505b505050565b6000336001600160a01b038316141561088157506001610459565b506000919050565b6001600160a01b03831660009081526005602090815260408083208484529091529020546108e0576001600160a01b0383166000908152600560209081526040822060019081018054918201815583529120018190555b6001600160a01b0390921660009081526005602090815260408083209483529390529190912080549091019055565b82805482825590600052602060002090810192821561094a579160200282015b8281111561094a57825182559160200191906001019061092f565b5061095692915061095a565b5090565b5b80821115610956576000815560010161095b56fe556e45787065637465642070726f626c656d2063616c63756c6174696e672074686520616d6f756e7420746f2077697468647261774e6f7420656e6f7567682062616c616e636520666f72207468697320666163746f72a2646970667358221220dc6273133c8a2e8936324c73ba73d3b722d6a03d44ae3993e140e99184f20b6064736f6c63430007060033",
  "immutableReferences": {},
  "source": "// SPDX-License-Identifier: GPL-3.0\r\n\r\npragma solidity >=0.7.0 <0.9.0;\r\n\r\n/**\r\n * @title Storage\r\n * @dev Store & retrieve value in a variable\r\n */\r\n\r\nimport \"./Interfaces/ITreasury.sol\";\r\nimport \"./PublicCertificatesPool.sol\";\r\nimport \"./Libraries/UintLibrary.sol\";\r\nimport \"./Libraries/Library.sol\";\r\n\r\n\r\ncontract Treasury is ITreasury{\r\n    using Library for *;\r\n    using UintLibrary for *;\r\n\r\n    // creator\r\n    address _creator;\r\n\r\n    // modifiers\r\n    modifier areFundsEnough(uint minPrice){\r\n        require(msg.value >= minPrice, \"EC2\");\r\n        _;\r\n    }\r\n\r\n    modifier isBalanceEnough(uint amount){\r\n        require(checkBalance(msg.sender) >= amount, \"EC20\");\r\n        _;\r\n    }\r\n\r\n    modifier isFromPublicPool(){\r\n        require(true == Library.ItIsSomeone(address(_PublicCertificatesPool)), \"EC8\");\r\n        _;\r\n    }\r\n\r\n    modifier isFromCreator(){\r\n        require(true == Library.ItIsSomeone(_creator), \"EC8\");\r\n        _;\r\n    }\r\n\r\n    // constants\r\n    PublicCertificatesPool  _PublicCertificatesPool;\r\n    uint _PublicPriceWei;\r\n    uint _PrivatePriceWei;\r\n    uint _OwnerRefundPriceWei;\r\n\r\n    // data\r\n    struct _BalanceStruct{\r\n        mapping(uint => uint) _balance;\r\n        uint[] _factors;\r\n    }\r\n    \r\n    mapping(address => _BalanceStruct) _balances;\r\n\r\n    constructor(uint256 PublicPriceWei, uint256 PrivatePriceWei, uint256 OwnerRefundPriceWei, address PublicPoolAddress, address managerContractAddress) {\r\n        _creator = managerContractAddress; \r\n        _PublicPriceWei = PublicPriceWei;\r\n        _PrivatePriceWei = PrivatePriceWei;\r\n        _OwnerRefundPriceWei = OwnerRefundPriceWei;\r\n        _PublicCertificatesPool = PublicCertificatesPool(PublicPoolAddress);\r\n    }\r\n\r\n    function payForNewProposal() external \r\n        areFundsEnough(_PublicPriceWei)\r\n    override payable\r\n    {\r\n        // Assign dividends propotionaly (substracting the owners cut)\r\n    }\r\n\r\n    function payForNewPool() external \r\n        areFundsEnough(_PrivatePriceWei)\r\n    override payable\r\n    {\r\n        // Assign dividends propotionaly (substracting the owners cut)\r\n    }\r\n\r\n    function getRefund(address addr, uint numberOfOwners) external \r\n        isFromPublicPool()\r\n    override\r\n    {\r\n        addBalance(addr, _OwnerRefundPriceWei, numberOfOwners);\r\n    }\r\n\r\n    function withdraw(uint amount) external \r\n        isBalanceEnough(amount)\r\n    override\r\n    {\r\n        uint[] memory f = returnFactors(msg.sender);\r\n        uint total = 0;\r\n        uint i = 0;\r\n\r\n        while ((total < amount) && (i < f.length)){\r\n            uint amountForFactor = returnBalanceForFactor(msg.sender, f[i]) / f[i];\r\n            if(amountForFactor > (amount - total)) amountForFactor = amount - total;\r\n            total += amountForFactor;\r\n            substractBalance(msg.sender, amountForFactor * f[i], f[i]);\r\n            i++;\r\n        }\r\n\r\n        require(total == amount, \"UnExpected problem calculating the amount to withdraw\");\r\n\r\n        msg.sender.transfer(total);\r\n    }\r\n\r\n    function retrieveBalance(address addr) external override view returns(uint)\r\n    {\r\n        return checkBalance(addr);\r\n    }\r\n\r\n    function checkBalance(address addr) internal view returns(uint){\r\n        uint[] memory f = returnFactors(addr);\r\n        uint total = 0;\r\n\r\n        for(uint i=0; i < f.length; i++){\r\n            total += returnBalanceForFactor(addr, f[i]) / f[i];\r\n        }\r\n\r\n        return total;\r\n    }\r\n\r\n    function returnFactors(address addr) public view returns(uint[] memory){\r\n        return _balances[addr]._factors;\r\n    }\r\n\r\n    function returnBalanceForFactor(address addr, uint factor) public view returns(uint){\r\n        return _balances[addr]._balance[factor];\r\n    }\r\n\r\n    function addBalance(address addr, uint amount, uint factor) private{\r\n        if(0 == _balances[addr]._balance[factor]){\r\n             _balances[addr]._factors.push(factor);\r\n        }\r\n\r\n       _balances[addr]._balance[factor] += amount;\r\n    }\r\n\r\n    function substractBalance(address addr, uint amount, uint factor) private{\r\n        require(_balances[addr]._balance[factor] >= amount, \"Not enough balance for this factor\");\r\n\r\n        _balances[addr]._balance[factor] -= amount;\r\n\r\n        if(0 == _balances[addr]._balance[factor]){\r\n            _balances[addr]._factors = UintLibrary.UintArrayRemoveResize(UintLibrary.FindUintPosition(factor, _balances[addr]._factors), _balances[addr]._factors);\r\n        }\r\n        \r\n    }\r\n\r\n}",
  "sourcePath": "C:\\Users\\d-aam\\GitHub\\Certificates\\contracts\\Treasury.sol",
  "compiler": {
    "name": "solc",
    "version": "0.7.6+commit.7338295f.Emscripten.clang"
  },
  "schemaVersion": "3.3.4",
  "updatedAt": "2021-07-19T08:31:18.645Z",
  "devdoc": {
    "kind": "dev",
    "methods": {},
    "version": 1
  },
  "userdoc": {
    "kind": "user",
    "methods": {},
    "version": 1
  }
}