{
  "contractName": "Treasury",
  "abi": [
    {
      "inputs": [
        {
          "internalType": "uint256",
          "name": "PublicPriceWei",
          "type": "uint256"
        },
        {
          "internalType": "uint256",
          "name": "PrivatePriceWei",
          "type": "uint256"
        },
        {
          "internalType": "uint256",
          "name": "CertificatePriceWei",
          "type": "uint256"
        },
        {
          "internalType": "uint256",
          "name": "OwnerRefundPriceWei",
          "type": "uint256"
        },
        {
          "internalType": "address",
          "name": "PublicPoolAddress",
          "type": "address"
        },
        {
          "internalType": "address",
          "name": "managerContractAddress",
          "type": "address"
        },
        {
          "internalType": "address",
          "name": "CertisTokenAddress",
          "type": "address"
        },
        {
          "internalType": "uint256",
          "name": "PropositionLifeTime",
          "type": "uint256"
        },
        {
          "internalType": "uint8",
          "name": "PropositionThresholdPercentage",
          "type": "uint8"
        },
        {
          "internalType": "uint8",
          "name": "minWeightToProposePercentage",
          "type": "uint8"
        }
      ],
      "stateMutability": "nonpayable",
      "type": "constructor"
    },
    {
      "inputs": [
        {
          "internalType": "bool",
          "name": "vote",
          "type": "bool"
        }
      ],
      "name": "voteProposition",
      "outputs": [],
      "stateMutability": "nonpayable",
      "type": "function"
    },
    {
      "inputs": [
        {
          "internalType": "enum Library.Prices",
          "name": "price",
          "type": "uint8"
        }
      ],
      "name": "pay",
      "outputs": [],
      "stateMutability": "payable",
      "type": "function"
    },
    {
      "inputs": [
        {
          "internalType": "uint256",
          "name": "PublicPriceWei",
          "type": "uint256"
        },
        {
          "internalType": "uint256",
          "name": "PrivatePriceWei",
          "type": "uint256"
        },
        {
          "internalType": "uint256",
          "name": "CertificatePriceWei",
          "type": "uint256"
        },
        {
          "internalType": "uint256",
          "name": "OwnerRefundPriceWei",
          "type": "uint256"
        },
        {
          "internalType": "uint256",
          "name": "PropositionLifeTime",
          "type": "uint256"
        },
        {
          "internalType": "uint8",
          "name": "PropositionThresholdPercentage",
          "type": "uint8"
        },
        {
          "internalType": "uint8",
          "name": "minWeightToProposePercentage",
          "type": "uint8"
        }
      ],
      "name": "updateConfig",
      "outputs": [],
      "stateMutability": "nonpayable",
      "type": "function"
    },
    {
      "inputs": [
        {
          "internalType": "address",
          "name": "PublicPoolAddress",
          "type": "address"
        },
        {
          "internalType": "address",
          "name": "CertisTokenAddress",
          "type": "address"
        }
      ],
      "name": "updateContracts",
      "outputs": [],
      "stateMutability": "nonpayable",
      "type": "function"
    },
    {
      "inputs": [
        {
          "internalType": "address",
          "name": "addr",
          "type": "address"
        },
        {
          "internalType": "uint256",
          "name": "numberOfOwners",
          "type": "uint256"
        }
      ],
      "name": "getRefund",
      "outputs": [],
      "stateMutability": "nonpayable",
      "type": "function"
    },
    {
      "inputs": [
        {
          "internalType": "uint256",
          "name": "amount",
          "type": "uint256"
        }
      ],
      "name": "withdraw",
      "outputs": [],
      "stateMutability": "nonpayable",
      "type": "function"
    },
    {
      "inputs": [
        {
          "internalType": "address",
          "name": "addr",
          "type": "address"
        }
      ],
      "name": "retrieveBalance",
      "outputs": [
        {
          "internalType": "uint256",
          "name": "",
          "type": "uint256"
        }
      ],
      "stateMutability": "view",
      "type": "function"
    },
    {
      "inputs": [
        {
          "internalType": "address",
          "name": "addr",
          "type": "address"
        }
      ],
      "name": "returnFactors",
      "outputs": [
        {
          "internalType": "uint256[]",
          "name": "",
          "type": "uint256[]"
        }
      ],
      "stateMutability": "view",
      "type": "function"
    },
    {
      "inputs": [
        {
          "internalType": "address",
          "name": "addr",
          "type": "address"
        },
        {
          "internalType": "uint256",
          "name": "factor",
          "type": "uint256"
        }
      ],
      "name": "returnBalanceForFactor",
      "outputs": [
        {
          "internalType": "uint256",
          "name": "",
          "type": "uint256"
        }
      ],
      "stateMutability": "view",
      "type": "function"
    }
  ],
  "bytecode": "0x60806040523480156200001157600080fd5b506040516200259e3803806200259e833981016040819052620000349162000a64565b600080546001600160a01b03191633179055600980546001600160a01b03871661010002610100600160a81b03199091161790556200007b8a8a8a8a8787876001620000bf565b620000af8685601080546001600160a01b039384166001600160a01b03199182161790915560018054929093169116179055565b5050505050505050505062000c3d565b8785848482841015620000ef5760405162461bcd60e51b8152600401620000e69062000b06565b60405180910390fd5b8160ff1660641015620001165760405162461bcd60e51b8152600401620000e69062000b06565b8060ff16606410156200013d5760405162461bcd60e51b8152600401620000e69062000b06565b8415620001875760118c905560138b905560128a9055601489905560158890556016805460ff808a1660ff19928316179092556009805492891692909116919091179055620001d3565b6200019e62000197894262000b7d565b88620001e1565b600a8c9055600b8a9055600c8b9055600d899055600e889055600f805460ff8881166101000261ffff19909216908a16171790555b505050505050505050505050565b6000620001ed62000361565b15620002255760405162461bcd60e51b8152600401620000e6906020808252600490820152631150cc8d60e21b604082015260600190565b6200023033620003a1565b15156001146200026c5760405162461bcd60e51b8152600401620000e69060208082526004908201526322a1991960e11b604082015260600190565b600280546001600160a01b031916331790556003839055606460ff8316620002936200045c565b6200029f919062000bbb565b620002ab919062000b98565b600455620002b8620004e2565b8051620002ce91600791602090910190620007ed565b50620002d96200057b565b8051620002ef9160089160209091019062000857565b506007546200035c5760405162461bcd60e51b815260206004820152603260248201527f496d706f737369626c6520746f206164642070726f706f736974696f6e2c20746044820152716865726520617265206e6f2061646d696e7360701b6064820152608401620000e6565b505050565b600354600090421015620003755750600190565b6002546001600160a01b0316156200039b576200039162000614565b6200039b62000640565b50600090565b600080546001600160a01b0316331415620003be57506001919050565b6000620003ca620004e2565b90506000620003d86200057b565b90506000620003e8858462000687565b905082518110156200044c576064620004006200045c565b60095462000412919060ff1662000bbb565b6200041e919062000b98565b82828151811062000433576200043362000c11565b6020026020010151106200044c57506001949350505050565b506000949350505050565b919050565b600154604080516318160ddd60e01b815290516000926001600160a01b0316916318160ddd916004808301926020929190829003018186803b158015620004a257600080fd5b505afa158015620004b7573d6000803e3d6000fd5b505050506040513d601f19601f82011682018060405250810190620004dd919062000a4a565b905090565b60606000600160009054906101000a90046001600160a01b03166001600160a01b03166388d44ee06040518163ffffffff1660e01b815260040160006040518083038186803b1580156200053557600080fd5b505afa1580156200054a573d6000803e3d6000fd5b505050506040513d6000823e601f3d908101601f1916820160405262000574919081019062000973565b5092915050565b60606000600160009054906101000a90046001600160a01b03166001600160a01b03166388d44ee06040518163ffffffff1660e01b815260040160006040518083038186803b158015620005ce57600080fd5b505afa158015620005e3573d6000803e3d6000fd5b505050506040513d6000823e601f3d908101601f191682016040526200060d919081019062000973565b9392505050565b6200063e6000600a819055600b819055600c819055600d819055600e55600f805461ffff19169055565b565b600280546001600160a01b0319168155600060038190556004819055600581905560068190556200067360078262000895565b6200068360068301600062000895565b5050565b6000620006a08383620006a960201b6200071c1760201c565b90505b92915050565b6000620006a06001600160a01b038416620006c484620006d5565b6200078d60201b620007401760201c565b6060600082516001600160401b03811115620006f557620006f562000c27565b6040519080825280602002602001820160405280156200071f578160200160208202803683370190505b50905060005b8151811015620005745783818151811062000744576200074462000c11565b60200260200101516001600160a01b031660001b8282815181106200076d576200076d62000c11565b602090810291909101015280620007848162000bdd565b91505062000725565b6000805b8251811015620007dd57828181518110620007b057620007b062000c11565b6020026020010151841415620007c8579050620006a3565b80620007d48162000bdd565b91505062000791565b508151620006a090600162000b7d565b82805482825590600052602060002090810192821562000845579160200282015b828111156200084557825182546001600160a01b0319166001600160a01b039091161782556020909201916001909101906200080e565b5062000853929150620008b8565b5090565b82805482825590600052602060002090810192821562000845579160200282015b828111156200084557825182559160200191906001019062000878565b5080546000825590600052602060002090810190620008b59190620008b8565b50565b5b80821115620008535760008155600101620008b9565b80516001600160a01b03811681146200045757600080fd5b600082601f830112620008f957600080fd5b81516020620009126200090c8362000b57565b62000b24565b80838252828201915082860187848660051b89010111156200093357600080fd5b60005b85811015620009545781518452928401929084019060010162000936565b5090979650505050505050565b805160ff811681146200045757600080fd5b600080604083850312156200098757600080fd5b82516001600160401b03808211156200099f57600080fd5b818501915085601f830112620009b457600080fd5b81516020620009c76200090c8362000b57565b8083825282820191508286018a848660051b8901011115620009e857600080fd5b600096505b8487101562000a165762000a0181620008cf565b835260019690960195918301918301620009ed565b509188015191965090935050508082111562000a3157600080fd5b5062000a4085828601620008e7565b9150509250929050565b60006020828403121562000a5d57600080fd5b5051919050565b6000806000806000806000806000806101408b8d03121562000a8557600080fd5b8a51995060208b0151985060408b0151975060608b0151965062000aac60808c01620008cf565b955062000abc60a08c01620008cf565b945062000acc60c08c01620008cf565b935060e08b0151925062000ae46101008c0162000961565b915062000af56101208c0162000961565b90509295989b9194979a5092959850565b6020808252600490820152634543323160e01b604082015260600190565b604051601f8201601f191681016001600160401b038111828210171562000b4f5762000b4f62000c27565b604052919050565b60006001600160401b0382111562000b735762000b7362000c27565b5060051b60200190565b6000821982111562000b935762000b9362000bfb565b500190565b60008262000bb657634e487b7160e01b600052601260045260246000fd5b500490565b600081600019048311821515161562000bd85762000bd862000bfb565b500290565b600060001982141562000bf45762000bf462000bfb565b5060010190565b634e487b7160e01b600052601160045260246000fd5b634e487b7160e01b600052603260045260246000fd5b634e487b7160e01b600052604160045260246000fd5b6119518062000c4d6000396000f3fe6080604052600436106100765760003560e01c80632d2a3b951461007b5780632e1a7d4d1461009d578063906816d7146100bd57806391f91671146100f0578063c56cb58014610110578063e20f37ad1461013d578063e692c49f1461015d578063eb1e2a411461017d578063f0c9325e1461019d575b600080fd5b34801561008757600080fd5b5061009b6100963660046116a8565b6101b0565b005b3480156100a957600080fd5b5061009b6100b8366004611676565b6101ca565b3480156100c957600080fd5b506100dd6100d8366004611500565b6103ac565b6040519081526020015b60405180910390f35b3480156100fc57600080fd5b5061009b61010b366004611633565b6103d7565b34801561011c57600080fd5b5061013061012b3660046114aa565b61051c565b6040516100e7919061170b565b34801561014957600080fd5b506100dd6101583660046114aa565b61058b565b34801561016957600080fd5b5061009b6101783660046114c7565b610596565b34801561018957600080fd5b5061009b610198366004611500565b610604565b61009b6101ab366004611655565b610647565b6101c1878787878787876000610795565b50505050505050565b80806101d53361089f565b10156102155760405162461bcd60e51b815260040161020c906020808252600490820152630454332360e41b604082015260600190565b60405180910390fd5b60006102203361051c565b90506000805b84821080156102355750825181105b1561030a57600083828151811061024e5761024e6118da565b60200260200101516102793386858151811061026c5761026c6118da565b60200260200101516103ac565b610283919061183b565b905061028f838761187c565b8111156102a3576102a0838761187c565b90505b6102ad8184611823565b92506102f7338584815181106102c5576102c56118da565b6020026020010151836102d8919061185d565b8685815181106102ea576102ea6118da565b602002602001015161091a565b8161030181611893565b92505050610226565b8482146103775760405162461bcd60e51b815260206004820152603560248201527f556e45787065637465642070726f626c656d2063616c63756c6174696e672074604482015274686520616d6f756e7420746f20776974686472617760581b606482015260840161020c565b604051339083156108fc029084906000818181858888f193505050501580156103a4573d6000803e3d6000fd5b505050505050565b6001600160a01b03821660009081526017602090815260408083208484529091529020545b92915050565b60016103e1610b6e565b151560011461041b5760405162461bcd60e51b815260040161020c906020808252600490820152634543323560e01b604082015260600190565b60075461042f3361042a610ba8565b610c3d565b106104655760405162461bcd60e51b815260040161020c906020808252600490820152634543323360e01b604082015260600190565b60035442101561050c5781156104bd5760086104833361042a610ba8565b81548110610493576104936118da565b9060005260206000200154600260030160008282546104b29190611823565b909155506105009050565b60086104cb3361042a610ba8565b815481106104db576104db6118da565b9060005260206000200154600260040160008282546104fa9190611823565b90915550505b610508610c49565b5050565b610514610ce4565b610508610d0d565b6001600160a01b03811660009081526017602090815260409182902060010180548351818402810184019094528084526060939283018282801561057f57602002820191906000526020600020905b81548152602001906001019080831161056b575b50505050509050919050565b60006103d18261089f565b6009546105b09061010090046001600160a01b0316610d4c565b15156001146105d15760405162461bcd60e51b815260040161020c9061176d565b6105088282601080546001600160a01b039384166001600160a01b03199182161790915560018054929093169116179055565b601054610619906001600160a01b0316610d4c565b151560011461063a5760405162461bcd60e51b815260040161020c9061176d565b6105088260145483610d6f565b8060001981600281111561065d5761065d6118c4565b61066a57506011546106ac565b81600281111561067c5761067c6118c4565b6001141561068d57506013546106ac565b81600281111561069f5761069f6118c4565b600214156106ac57506012545b803410156106e25760405162461bcd60e51b815260206004820152600360248201526222a19960e91b604482015260640161020c565b3460008460028111156106f7576106f76118c4565b141561070d5760145461070a908261187c565b90505b61071681610e03565b50505050565b60006107396001600160a01b03841661073484610f8b565b610740565b9392505050565b6000805b82518110156107875782818151811061075f5761075f6118da565b60200260200101518414156107755790506103d1565b8061077f81611893565b915050610744565b508151610739906001611823565b87858484828410156107b95760405162461bcd60e51b815260040161020c9061174f565b8160ff16606410156107dd5760405162461bcd60e51b815260040161020c9061174f565b8060ff16606410156108015760405162461bcd60e51b815260040161020c9061174f565b84156108495760118c905560138b905560128a9055601489905560158890556016805460ff808a1660ff19928316179092556009805492891692909116919091179055610891565b61085c6108568942611823565b88611035565b600a8c9055600b8a9055600c8b9055600d899055600e889055600f805460ff8881166101000261ffff19909216908a16171790555b505050505050505050505050565b6000806108ab8361051c565b90506000805b8251811015610912578281815181106108cc576108cc6118da565b60200260200101516108ea8685848151811061026c5761026c6118da565b6108f4919061183b565b6108fe9083611823565b91508061090a81611893565b9150506108b1565b509392505050565b6001600160a01b03831660009081526017602090815260408083208484529091529020548211156109985760405162461bcd60e51b815260206004820152602260248201527f4e6f7420656e6f7567682062616c616e636520666f722074686973206661637460448201526137b960f11b606482015260840161020c565b6001600160a01b0383166000908152601760209081526040808320848452909152812080548492906109cb90849061187c565b90915550506001600160a01b0383166000908152601760209081526040808320848452909152902054610b69576001600160a01b0383166000908152601760205260409081902090516362fe358160e11b815273__UintLibrary___________________________916302fbee9e91839163c5fc6b0291610a5691879160019091019060040161178a565b60206040518083038186803b158015610a6e57600080fd5b505af4158015610a82573d6000803e3d6000fd5b505050506040513d601f19601f82011682018060405250810190610aa6919061168f565b6001600160a01b0386166000908152601760205260409081902090516001600160e01b031960e085901b168152610ae492916001019060040161178a565b60006040518083038186803b158015610afc57600080fd5b505af4158015610b10573d6000803e3d6000fd5b505050506040513d6000823e601f3d908101601f19168201604052610b3891908101906115f7565b6001600160a01b03841660009081526017602090815260409091208251610716936001909201929190910190611351565b505050565b600354600090421015610b815750600190565b6002546001600160a01b031615610ba257610b9a610ce4565b610ba2610d0d565b50600090565b60606000600160009054906101000a90046001600160a01b03166001600160a01b03166388d44ee06040518163ffffffff1660e01b815260040160006040518083038186803b158015610bfa57600080fd5b505afa158015610c0e573d6000803e3d6000fd5b505050506040513d6000823e601f3d908101601f19168201604052610c36919081019061152c565b5092915050565b6000610739838361071c565b6004546005541115610cd457610cca600a54601155600c54601355600b54601255600d54601455600e54601555600f546016805460ff80841660ff1992831617909255600980546101009094049092169216919091179055610cd26000600a819055600b819055600c819055600d819055600e55600f805461ffff19169055565b610cd2610d0d565b565b6004546006541115610cd257610cca5b610cd26000600a819055600b819055600c819055600d819055600e55600f805461ffff19169055565b600280546001600160a01b031916815560006003819055600481905560058190556006819055610d3e60078261139c565b61050860068301600061139c565b6000336001600160a01b0383161415610d6757506001919050565b506000919050565b6001600160a01b0383166000908152601760209081526040808320848452909152902054610dc6576001600160a01b0383166000908152601760209081526040822060019081018054918201815583529120018190555b6001600160a01b038316600090815260176020908152604080832084845290915281208054849290610df9908490611823565b9091555050505050565b600080600160009054906101000a90046001600160a01b03166001600160a01b03166388d44ee06040518163ffffffff1660e01b815260040160006040518083038186803b158015610e5457600080fd5b505afa158015610e68573d6000803e3d6000fd5b505050506040513d6000823e601f3d908101601f19168201604052610e90919081019061152c565b915091506000600160009054906101000a90046001600160a01b03166001600160a01b03166318160ddd6040518163ffffffff1660e01b815260040160206040518083038186803b158015610ee457600080fd5b505afa158015610ef8573d6000803e3d6000fd5b505050506040513d601f19601f82011682018060405250810190610f1c919061168f565b905060005b8351811015610f8457610f72848281518110610f3f57610f3f6118da565b602002602001015186858481518110610f5a57610f5a6118da565b6020026020010151610f6c919061185d565b84610d6f565b80610f7c81611893565b915050610f21565b5050505050565b6060600082516001600160401b03811115610fa857610fa86118f0565b604051908082528060200260200182016040528015610fd1578160200160208202803683370190505b50905060005b8151811015610c3657838181518110610ff257610ff26118da565b60200260200101516001600160a01b031660001b828281518110611018576110186118da565b60209081029190910101528061102d81611893565b915050610fd7565b600061103f610b6e565b156110755760405162461bcd60e51b815260040161020c906020808252600490820152631150cc8d60e21b604082015260600190565b61107e33611198565b15156001146110b85760405162461bcd60e51b815260040161020c9060208082526004908201526322a1991960e11b604082015260600190565b600280546001600160a01b031916331790556003839055606460ff83166110dd611241565b6110e7919061185d565b6110f1919061183b565b6004556110fc610ba8565b8051611110916007916020909101906113bd565b506111196112c3565b805161112d91600891602090910190611351565b50600754610b695760405162461bcd60e51b815260206004820152603260248201527f496d706f737369626c6520746f206164642070726f706f736974696f6e2c20746044820152716865726520617265206e6f2061646d696e7360701b606482015260840161020c565b600080546001600160a01b03163314156111b457506001919050565b60006111be610ba8565b905060006111ca6112c3565b905060006111d88584610c3d565b905082518110156112315760646111ed611241565b6009546111fd919060ff1661185d565b611207919061183b565b828281518110611219576112196118da565b60200260200101511061123157506001949350505050565b506000949350505050565b919050565b600154604080516318160ddd60e01b815290516000926001600160a01b0316916318160ddd916004808301926020929190829003018186803b15801561128657600080fd5b505afa15801561129a573d6000803e3d6000fd5b505050506040513d601f19601f820116820180604052508101906112be919061168f565b905090565b60606000600160009054906101000a90046001600160a01b03166001600160a01b03166388d44ee06040518163ffffffff1660e01b815260040160006040518083038186803b15801561131557600080fd5b505afa158015611329573d6000803e3d6000fd5b505050506040513d6000823e601f3d908101601f19168201604052610739919081019061152c565b82805482825590600052602060002090810192821561138c579160200282015b8281111561138c578251825591602001919060010190611371565b50611398929150611412565b5090565b50805460008255906000526020600020908101906113ba9190611412565b50565b82805482825590600052602060002090810192821561138c579160200282015b8281111561138c57825182546001600160a01b0319166001600160a01b039091161782556020909201916001909101906113dd565b5b808211156113985760008155600101611413565b600082601f83011261143857600080fd5b8151602061144d61144883611800565b6117d0565b80838252828201915082860187848660051b890101111561146d57600080fd5b60005b8581101561148c57815184529284019290840190600101611470565b5090979650505050505050565b803560ff8116811461123c57600080fd5b6000602082840312156114bc57600080fd5b813561073981611906565b600080604083850312156114da57600080fd5b82356114e581611906565b915060208301356114f581611906565b809150509250929050565b6000806040838503121561151357600080fd5b823561151e81611906565b946020939093013593505050565b6000806040838503121561153f57600080fd5b82516001600160401b038082111561155657600080fd5b818501915085601f83011261156a57600080fd5b8151602061157a61144883611800565b8083825282820191508286018a848660051b890101111561159a57600080fd5b600096505b848710156115c65780516115b281611906565b83526001969096019591830191830161159f565b50918801519196509093505050808211156115e057600080fd5b506115ed85828601611427565b9150509250929050565b60006020828403121561160957600080fd5b81516001600160401b0381111561161f57600080fd5b61162b84828501611427565b949350505050565b60006020828403121561164557600080fd5b8135801515811461073957600080fd5b60006020828403121561166757600080fd5b81356003811061073957600080fd5b60006020828403121561168857600080fd5b5035919050565b6000602082840312156116a157600080fd5b5051919050565b600080600080600080600060e0888a0312156116c357600080fd5b87359650602088013595506040880135945060608801359350608088013592506116ef60a08901611499565b91506116fd60c08901611499565b905092959891949750929550565b6020808252825182820181905260009190848201906040850190845b8181101561174357835183529284019291840191600101611727565b50909695505050505050565b6020808252600490820152634543323160e01b604082015260600190565b60208082526003908201526208a86760eb1b604082015260600190565b60006040820184835260206040818501528185548084526060860191508660005282600020935060005b8181101561148c578454835260019485019492840192016117b4565b604051601f8201601f191681016001600160401b03811182821017156117f8576117f86118f0565b604052919050565b60006001600160401b03821115611819576118196118f0565b5060051b60200190565b60008219821115611836576118366118ae565b500190565b60008261185857634e487b7160e01b600052601260045260246000fd5b500490565b6000816000190483118215151615611877576118776118ae565b500290565b60008282101561188e5761188e6118ae565b500390565b60006000198214156118a7576118a76118ae565b5060010190565b634e487b7160e01b600052601160045260246000fd5b634e487b7160e01b600052602160045260246000fd5b634e487b7160e01b600052603260045260246000fd5b634e487b7160e01b600052604160045260246000fd5b6001600160a01b03811681146113ba57600080fdfea2646970667358221220ba1de3d183231725e107ed141f9de2af6c06ca2d06bcd275f750534ef781858564736f6c63430008060033",
  "immutableReferences": {},
  "source": "// SPDX-License-Identifier: GPL-3.0\r\n\r\npragma solidity >=0.7.0 <0.9.0;\r\n\r\n/**\r\n * @title Storage\r\n * @dev Store & retrieve value in a variable\r\n */\r\n\r\nimport \"./Interfaces/ITreasury.sol\";\r\nimport \"./PublicCertificatesPool.sol\";\r\nimport \"./Libraries/UintLibrary.sol\";\r\nimport \"./Libraries/Library.sol\";\r\nimport \"./CertisToken.sol\";\r\nimport \"./Base/TokenGovernanceBaseContract.sol\";\r\n\r\n\r\ncontract Treasury is ITreasury, TokenGovernanceBaseContract{\r\n    using Library for *;\r\n    using UintLibrary for *;\r\n\r\n    // manager contract\r\n    address _managerContract;\r\n\r\n    // modifiers\r\n    modifier areFundsEnough(Library.Prices price){\r\n        uint256 minPrice = 2**256 - 1;\r\n\r\n        if(Library.Prices.NewProvider == price) minPrice = _PublicPriceWei;\r\n        else if(Library.Prices.NewPool == price) minPrice = _PrivatePriceWei;\r\n        else if(Library.Prices.NewCertificate == price) minPrice = _CertificatePriceWei;\r\n\r\n        require(msg.value >= minPrice, \"EC2\");\r\n        _;\r\n    }\r\n\r\n    modifier isBalanceEnough(uint amount){\r\n        require(checkBalance(msg.sender) >= amount, \"EC20\");\r\n        _;\r\n    }\r\n\r\n    modifier isFromPublicPool(){\r\n        require(true == Library.ItIsSomeone(address(_PublicCertificatesPool)), \"EC8\");\r\n        _;\r\n    }\r\n\r\n    modifier isFromManagerContract(){\r\n        require(true == Library.ItIsSomeone(_managerContract), \"EC8\");\r\n        _;\r\n    }\r\n\r\n    modifier isConfigOK(uint256 PublicPriceWei, uint256 OwnerRefundPriceWei, uint8 PropositionThresholdPercentage, uint8 minWeightToProposePercentage){\r\n        require(PublicPriceWei >= OwnerRefundPriceWei, \"EC21\");\r\n        require(100 >= PropositionThresholdPercentage, \"EC21\");\r\n        require(100 >= minWeightToProposePercentage, \"EC21\");\r\n        _;\r\n    }\r\n\r\n    // proposition to change\r\n    struct ProposedConfigStruct{\r\n        uint NewPublicPriceWei;\r\n        uint NewCertificatePriceWei;\r\n        uint NewPrivatePriceWei;\r\n        uint NewOwnerRefundPriceWei;\r\n        uint NewPropositionLifeTime;\r\n        uint8 NewPropositionThresholdPercentage;\r\n        uint8 NewMinWeightToProposePercentage;\r\n    }\r\n\r\n    ProposedConfigStruct ProposedConfig;\r\n\r\n    // constants\r\n    PublicCertificatesPool  _PublicCertificatesPool;\r\n    uint _PublicPriceWei;\r\n    uint _CertificatePriceWei;\r\n    uint _PrivatePriceWei;\r\n    uint _OwnerRefundPriceWei;\r\n    uint _PropositionLifeTime;\r\n    uint8 _PropositionThresholdPercentage;\r\n\r\n    // data\r\n    struct _BalanceStruct{\r\n        mapping(uint => uint) _balance;\r\n        uint[] _factors;\r\n    }\r\n    \r\n    mapping(address => _BalanceStruct) _balances;\r\n\r\n    constructor(uint256 PublicPriceWei, uint256 PrivatePriceWei, uint256 CertificatePriceWei, uint256 OwnerRefundPriceWei, address PublicPoolAddress, address managerContractAddress, address CertisTokenAddress, uint256 PropositionLifeTime, uint8 PropositionThresholdPercentage, uint8 minWeightToProposePercentage) {\r\n        _chairperson = msg.sender;\r\n        _managerContract = managerContractAddress; \r\n        \r\n        InternalupdateConfig(PublicPriceWei, PrivatePriceWei, CertificatePriceWei, OwnerRefundPriceWei, PropositionLifeTime, PropositionThresholdPercentage, minWeightToProposePercentage, true);\r\n        InternalupdateContracts(PublicPoolAddress, CertisTokenAddress);\r\n    }\r\n\r\n\r\n    function pay(Library.Prices price) external \r\n        areFundsEnough(price)\r\n    override payable\r\n    {\r\n        uint256 amount = msg.value;\r\n        if(price == Library.Prices.NewProvider) amount -= _OwnerRefundPriceWei;\r\n        AssignDividends(amount);\r\n    }\r\n\r\n    function AssignDividends(uint256 amount) internal{\r\n        (address[] memory DividendsRecipients, uint256[] memory DividendsRecipientsTokens) = _CertisToken.TokenOwners();\r\n        uint256 TotalTokenSupply = _CertisToken.totalSupply();\r\n\r\n        for(uint i=0; i < DividendsRecipients.length; i++){\r\n            addBalance(DividendsRecipients[i], DividendsRecipientsTokens[i] * amount, TotalTokenSupply);\r\n        }\r\n\r\n    }\r\n\r\n    function updateConfig(uint256 PublicPriceWei, uint256 PrivatePriceWei, uint256 CertificatePriceWei, uint256 OwnerRefundPriceWei, uint256 PropositionLifeTime, uint8 PropositionThresholdPercentage, uint8 minWeightToProposePercentage) external override\r\n    {\r\n        InternalupdateConfig(PublicPriceWei, PrivatePriceWei, CertificatePriceWei, OwnerRefundPriceWei, PropositionLifeTime, PropositionThresholdPercentage, minWeightToProposePercentage, false);\r\n    }\r\n\r\n    function updateContracts(address PublicPoolAddress, address CertisTokenAddress) external \r\n        isFromManagerContract()\r\n    override\r\n    {\r\n        InternalupdateContracts(PublicPoolAddress, CertisTokenAddress);\r\n    }\r\n\r\n    function InternalupdateConfig(uint256 PublicPriceWei, uint256 PrivatePriceWei, uint256 CertificatePriceWei, uint256 OwnerRefundPriceWei, uint256 PropositionLifeTime, uint8 PropositionThresholdPercentage, uint8 minWeightToProposePercentage, bool fromConstructor) internal\r\n        isConfigOK(PublicPriceWei, OwnerRefundPriceWei, PropositionThresholdPercentage, minWeightToProposePercentage)\r\n    {\r\n        if(fromConstructor){\r\n            _PublicPriceWei = PublicPriceWei;\r\n            _PrivatePriceWei = PrivatePriceWei;\r\n            _CertificatePriceWei = CertificatePriceWei;\r\n            _OwnerRefundPriceWei = OwnerRefundPriceWei;\r\n            _PropositionLifeTime = PropositionLifeTime;\r\n            _PropositionThresholdPercentage = PropositionThresholdPercentage;\r\n            _minWeightToProposePercentage = minWeightToProposePercentage;\r\n        }\r\n        else{\r\n            addProposition(block.timestamp + PropositionLifeTime, PropositionThresholdPercentage);\r\n            ProposedConfig.NewPublicPriceWei = PublicPriceWei;\r\n            ProposedConfig.NewCertificatePriceWei = CertificatePriceWei;\r\n            ProposedConfig.NewPrivatePriceWei = PrivatePriceWei;\r\n            ProposedConfig.NewOwnerRefundPriceWei = OwnerRefundPriceWei;\r\n            ProposedConfig.NewPropositionLifeTime = PropositionLifeTime;\r\n            ProposedConfig.NewPropositionThresholdPercentage = PropositionThresholdPercentage;\r\n            ProposedConfig.NewMinWeightToProposePercentage = minWeightToProposePercentage;\r\n        }\r\n        \r\n    }\r\n\r\n    function InternalupdateContracts(address PublicPoolAddress, address CertisTokenAddress) internal\r\n    {\r\n        _PublicCertificatesPool = PublicCertificatesPool(PublicPoolAddress);\r\n        _CertisToken = CertisToken(CertisTokenAddress); \r\n    }\r\n\r\n    function propositionApproved() internal override\r\n    {\r\n        _PublicPriceWei = ProposedConfig.NewPublicPriceWei;\r\n        _PrivatePriceWei = ProposedConfig.NewPrivatePriceWei;\r\n        _CertificatePriceWei = ProposedConfig.NewCertificatePriceWei;\r\n        _OwnerRefundPriceWei = ProposedConfig.NewOwnerRefundPriceWei;\r\n        _PropositionLifeTime = ProposedConfig.NewPropositionLifeTime;\r\n        _PropositionThresholdPercentage = ProposedConfig.NewPropositionThresholdPercentage;\r\n        _minWeightToProposePercentage = ProposedConfig.NewMinWeightToProposePercentage;\r\n        removeProposition();\r\n    }\r\n\r\n    function propositionRejected() internal override\r\n    {\r\n        removeProposition();\r\n    }\r\n\r\n    function propositionExpired() internal override\r\n    {\r\n        removeProposition();\r\n    }\r\n\r\n    function removeProposition() internal{\r\n        delete(ProposedConfig);\r\n    }\r\n\r\n    function getRefund(address addr, uint numberOfOwners) external \r\n        isFromPublicPool()\r\n    override\r\n    {\r\n        addBalance(addr, _OwnerRefundPriceWei, numberOfOwners);\r\n    }\r\n\r\n    function withdraw(uint amount) external \r\n        isBalanceEnough(amount)\r\n    override\r\n    {\r\n        uint[] memory f = returnFactors(msg.sender);\r\n        uint total = 0;\r\n        uint i = 0;\r\n\r\n        while ((total < amount) && (i < f.length)){\r\n            uint amountForFactor = returnBalanceForFactor(msg.sender, f[i]) / f[i];\r\n            if(amountForFactor > (amount - total)) amountForFactor = amount - total;\r\n            total += amountForFactor;\r\n            substractBalance(msg.sender, amountForFactor * f[i], f[i]);\r\n            i++;\r\n        }\r\n\r\n        require(total == amount, \"UnExpected problem calculating the amount to withdraw\");\r\n\r\n        payable(msg.sender).transfer(total);\r\n    }\r\n\r\n    function retrieveBalance(address addr) external override view returns(uint)\r\n    {\r\n        return checkBalance(addr);\r\n    }\r\n\r\n    function checkBalance(address addr) internal view returns(uint){\r\n        uint[] memory f = returnFactors(addr);\r\n        uint total = 0;\r\n\r\n        for(uint i=0; i < f.length; i++){\r\n            total += returnBalanceForFactor(addr, f[i]) / f[i];\r\n        }\r\n\r\n        return total;\r\n    }\r\n\r\n    function returnFactors(address addr) public view returns(uint[] memory){\r\n        return _balances[addr]._factors;\r\n    }\r\n\r\n    function returnBalanceForFactor(address addr, uint factor) public view returns(uint){\r\n        return _balances[addr]._balance[factor];\r\n    }\r\n\r\n    function addBalance(address addr, uint amount, uint factor) private{\r\n        if(0 == _balances[addr]._balance[factor]){\r\n             _balances[addr]._factors.push(factor);\r\n        }\r\n\r\n       _balances[addr]._balance[factor] += amount;\r\n    }\r\n\r\n    function substractBalance(address addr, uint amount, uint factor) private{\r\n        require(_balances[addr]._balance[factor] >= amount, \"Not enough balance for this factor\");\r\n\r\n        _balances[addr]._balance[factor] -= amount;\r\n\r\n        if(0 == _balances[addr]._balance[factor]){\r\n            _balances[addr]._factors = UintLibrary.UintArrayRemoveResize(UintLibrary.FindUintPosition(factor, _balances[addr]._factors), _balances[addr]._factors);\r\n        }\r\n        \r\n    }\r\n\r\n}",
  "sourcePath": "C:\\Users\\d-aam\\GitHub\\Certificates\\contracts\\Treasury.sol",
  "compiler": {
    "name": "solc",
    "version": "0.8.6+commit.11564f7e.Emscripten.clang"
  },
  "schemaVersion": "3.3.4",
  "updatedAt": "2021-07-21T13:34:32.425Z",
  "devdoc": {
    "kind": "dev",
    "methods": {},
    "version": 1
  },
  "userdoc": {
    "kind": "user",
    "methods": {},
    "version": 1
  }
}