{
  "contractName": "Treasury",
  "abi": [
    {
      "anonymous": false,
      "inputs": [
        {
          "indexed": false,
          "internalType": "uint256",
          "name": "Id",
          "type": "uint256"
        },
        {
          "indexed": true,
          "internalType": "address",
          "name": "Proposer",
          "type": "address"
        },
        {
          "indexed": false,
          "internalType": "uint256",
          "name": "Deadline",
          "type": "uint256"
        },
        {
          "indexed": false,
          "internalType": "uint256",
          "name": "Threshold",
          "type": "uint256"
        }
      ],
      "name": "_AddedProposition",
      "type": "event"
    },
    {
      "anonymous": false,
      "inputs": [
        {
          "indexed": true,
          "internalType": "address",
          "name": "Recipient",
          "type": "address"
        },
        {
          "indexed": false,
          "internalType": "uint256",
          "name": "Amount",
          "type": "uint256"
        },
        {
          "indexed": false,
          "internalType": "uint256",
          "name": "TotalSupply",
          "type": "uint256"
        }
      ],
      "name": "_AssignDividend",
      "type": "event"
    },
    {
      "anonymous": false,
      "inputs": [
        {
          "indexed": false,
          "internalType": "uint256",
          "name": "Id",
          "type": "uint256"
        },
        {
          "indexed": true,
          "internalType": "address",
          "name": "Proposer",
          "type": "address"
        }
      ],
      "name": "_CancelledProposition",
      "type": "event"
    },
    {
      "anonymous": false,
      "inputs": [
        {
          "indexed": false,
          "internalType": "uint256",
          "name": "Public",
          "type": "uint256"
        },
        {
          "indexed": false,
          "internalType": "uint256",
          "name": "Private",
          "type": "uint256"
        },
        {
          "indexed": false,
          "internalType": "uint256",
          "name": "Provider",
          "type": "uint256"
        },
        {
          "indexed": false,
          "internalType": "uint256",
          "name": "Certificate",
          "type": "uint256"
        },
        {
          "indexed": false,
          "internalType": "uint256",
          "name": "OwnerRefund",
          "type": "uint256"
        }
      ],
      "name": "_NewPrices",
      "type": "event"
    },
    {
      "anonymous": false,
      "inputs": [
        {
          "indexed": true,
          "internalType": "address",
          "name": "Payer",
          "type": "address"
        },
        {
          "indexed": false,
          "internalType": "uint256",
          "name": "Amount",
          "type": "uint256"
        },
        {
          "indexed": false,
          "internalType": "uint256",
          "name": "AggregatedAmount",
          "type": "uint256"
        }
      ],
      "name": "_Pay",
      "type": "event"
    },
    {
      "anonymous": false,
      "inputs": [
        {
          "indexed": false,
          "internalType": "uint256",
          "name": "Id",
          "type": "uint256"
        },
        {
          "indexed": true,
          "internalType": "address",
          "name": "Proposer",
          "type": "address"
        },
        {
          "indexed": false,
          "internalType": "uint256",
          "name": "VotesFor",
          "type": "uint256"
        },
        {
          "indexed": false,
          "internalType": "uint256",
          "name": "VotesAgainst",
          "type": "uint256"
        }
      ],
      "name": "_PropositionApproved",
      "type": "event"
    },
    {
      "anonymous": false,
      "inputs": [
        {
          "indexed": false,
          "internalType": "uint256",
          "name": "Id",
          "type": "uint256"
        },
        {
          "indexed": true,
          "internalType": "address",
          "name": "Proposer",
          "type": "address"
        },
        {
          "indexed": false,
          "internalType": "uint256",
          "name": "VotesFor",
          "type": "uint256"
        },
        {
          "indexed": false,
          "internalType": "uint256",
          "name": "VotesAgainst",
          "type": "uint256"
        }
      ],
      "name": "_PropositionRejected",
      "type": "event"
    },
    {
      "anonymous": false,
      "inputs": [
        {
          "indexed": false,
          "internalType": "uint256",
          "name": "Id",
          "type": "uint256"
        },
        {
          "indexed": true,
          "internalType": "address",
          "name": "Voter",
          "type": "address"
        },
        {
          "indexed": false,
          "internalType": "bool",
          "name": "Vote",
          "type": "bool"
        },
        {
          "indexed": false,
          "internalType": "uint256",
          "name": "AmountTokens",
          "type": "uint256"
        }
      ],
      "name": "_PropositionVote",
      "type": "event"
    },
    {
      "anonymous": false,
      "inputs": [
        {
          "indexed": true,
          "internalType": "address",
          "name": "Owner",
          "type": "address"
        },
        {
          "indexed": false,
          "internalType": "uint256",
          "name": "Amount",
          "type": "uint256"
        },
        {
          "indexed": false,
          "internalType": "uint256",
          "name": "TotalOwners",
          "type": "uint256"
        }
      ],
      "name": "_Refund",
      "type": "event"
    },
    {
      "anonymous": false,
      "inputs": [
        {
          "indexed": true,
          "internalType": "uint256",
          "name": "Id",
          "type": "uint256"
        },
        {
          "indexed": false,
          "internalType": "address",
          "name": "From",
          "type": "address"
        },
        {
          "indexed": false,
          "internalType": "address",
          "name": "To",
          "type": "address"
        },
        {
          "indexed": false,
          "internalType": "uint256",
          "name": "Amount",
          "type": "uint256"
        }
      ],
      "name": "_UsedTokensTransfered",
      "type": "event"
    },
    {
      "anonymous": false,
      "inputs": [
        {
          "indexed": true,
          "internalType": "address",
          "name": "Recipient",
          "type": "address"
        },
        {
          "indexed": false,
          "internalType": "uint256",
          "name": "Amount",
          "type": "uint256"
        }
      ],
      "name": "_Withdraw",
      "type": "event"
    },
    {
      "inputs": [
        {
          "internalType": "address",
          "name": "chairPerson",
          "type": "address"
        },
        {
          "internalType": "address",
          "name": "managerContractAddress",
          "type": "address"
        },
        {
          "internalType": "string",
          "name": "contractName",
          "type": "string"
        },
        {
          "internalType": "string",
          "name": "contractVersion",
          "type": "string"
        }
      ],
      "name": "StdPropositionBaseContract_init",
      "outputs": [],
      "stateMutability": "nonpayable",
      "type": "function"
    },
    {
      "inputs": [],
      "name": "cancelProposition",
      "outputs": [],
      "stateMutability": "nonpayable",
      "type": "function"
    },
    {
      "inputs": [
        {
          "internalType": "address",
          "name": "from",
          "type": "address"
        },
        {
          "internalType": "address",
          "name": "to",
          "type": "address"
        },
        {
          "internalType": "uint256",
          "name": "amount",
          "type": "uint256"
        }
      ],
      "name": "onTokenBalanceChanged",
      "outputs": [],
      "stateMutability": "nonpayable",
      "type": "function"
    },
    {
      "inputs": [],
      "name": "retrieveChairPerson",
      "outputs": [
        {
          "internalType": "address",
          "name": "",
          "type": "address"
        }
      ],
      "stateMutability": "view",
      "type": "function",
      "constant": true
    },
    {
      "inputs": [],
      "name": "retrieveContractConfig",
      "outputs": [
        {
          "internalType": "string",
          "name": "",
          "type": "string"
        },
        {
          "internalType": "string",
          "name": "",
          "type": "string"
        }
      ],
      "stateMutability": "view",
      "type": "function",
      "constant": true
    },
    {
      "inputs": [],
      "name": "retrieveManagerContract",
      "outputs": [
        {
          "internalType": "address",
          "name": "",
          "type": "address"
        }
      ],
      "stateMutability": "view",
      "type": "function",
      "constant": true
    },
    {
      "inputs": [],
      "name": "retrieveNextPropId",
      "outputs": [
        {
          "internalType": "uint256",
          "name": "",
          "type": "uint256"
        }
      ],
      "stateMutability": "view",
      "type": "function",
      "constant": true
    },
    {
      "inputs": [
        {
          "internalType": "address",
          "name": "addr",
          "type": "address"
        },
        {
          "internalType": "uint256",
          "name": "nonce",
          "type": "uint256"
        }
      ],
      "name": "retrieveNonce",
      "outputs": [
        {
          "internalType": "bool",
          "name": "",
          "type": "bool"
        }
      ],
      "stateMutability": "view",
      "type": "function",
      "constant": true
    },
    {
      "inputs": [],
      "name": "retrieveProposition",
      "outputs": [
        {
          "internalType": "bytes32[]",
          "name": "",
          "type": "bytes32[]"
        }
      ],
      "stateMutability": "view",
      "type": "function",
      "constant": true
    },
    {
      "inputs": [],
      "name": "retrievePropositionStatus",
      "outputs": [
        {
          "internalType": "address",
          "name": "",
          "type": "address"
        },
        {
          "internalType": "uint256",
          "name": "",
          "type": "uint256"
        },
        {
          "internalType": "uint256",
          "name": "",
          "type": "uint256"
        },
        {
          "internalType": "uint256",
          "name": "",
          "type": "uint256"
        },
        {
          "internalType": "uint256",
          "name": "",
          "type": "uint256"
        }
      ],
      "stateMutability": "view",
      "type": "function",
      "constant": true
    },
    {
      "inputs": [
        {
          "internalType": "uint256",
          "name": "PropId",
          "type": "uint256"
        },
        {
          "internalType": "address",
          "name": "voter",
          "type": "address"
        }
      ],
      "name": "retrieveVotesForVoter",
      "outputs": [
        {
          "internalType": "uint256",
          "name": "",
          "type": "uint256"
        }
      ],
      "stateMutability": "view",
      "type": "function",
      "constant": true
    },
    {
      "inputs": [
        {
          "internalType": "bytes32[]",
          "name": "NewValues",
          "type": "bytes32[]"
        }
      ],
      "name": "sendProposition",
      "outputs": [],
      "stateMutability": "nonpayable",
      "type": "function"
    },
    {
      "inputs": [
        {
          "internalType": "bool",
          "name": "vote",
          "type": "bool"
        }
      ],
      "name": "voteProposition",
      "outputs": [],
      "stateMutability": "nonpayable",
      "type": "function"
    },
    {
      "inputs": [
        {
          "internalType": "address",
          "name": "voter",
          "type": "address"
        },
        {
          "internalType": "uint256",
          "name": "propID",
          "type": "uint256"
        },
        {
          "internalType": "bool",
          "name": "vote",
          "type": "bool"
        },
        {
          "internalType": "uint256",
          "name": "nonce",
          "type": "uint256"
        },
        {
          "internalType": "uint256",
          "name": "deadline",
          "type": "uint256"
        },
        {
          "internalType": "bytes",
          "name": "signature",
          "type": "bytes"
        }
      ],
      "name": "votePropositionOnBehalfOf",
      "outputs": [],
      "stateMutability": "nonpayable",
      "type": "function"
    },
    {
      "inputs": [
        {
          "internalType": "uint256",
          "name": "PublicPriceUSD",
          "type": "uint256"
        },
        {
          "internalType": "uint256",
          "name": "PrivatePriceUSD",
          "type": "uint256"
        },
        {
          "internalType": "uint256",
          "name": "ProviderPriceUSD",
          "type": "uint256"
        },
        {
          "internalType": "uint256",
          "name": "CertificatePriceUSD",
          "type": "uint256"
        },
        {
          "internalType": "uint256",
          "name": "OwnerRefundFeeUSD",
          "type": "uint256"
        },
        {
          "internalType": "address",
          "name": "managerContractAddress",
          "type": "address"
        },
        {
          "internalType": "address",
          "name": "chairPerson",
          "type": "address"
        },
        {
          "internalType": "string",
          "name": "contractName",
          "type": "string"
        },
        {
          "internalType": "string",
          "name": "contractVersion",
          "type": "string"
        }
      ],
      "name": "Treasury_init",
      "outputs": [],
      "stateMutability": "nonpayable",
      "type": "function"
    },
    {
      "inputs": [
        {
          "internalType": "enum Library.Prices",
          "name": "price",
          "type": "uint8"
        }
      ],
      "name": "pay",
      "outputs": [],
      "stateMutability": "payable",
      "type": "function",
      "payable": true
    },
    {
      "inputs": [
        {
          "internalType": "address",
          "name": "addr",
          "type": "address"
        },
        {
          "internalType": "uint256",
          "name": "numberOfOwners",
          "type": "uint256"
        }
      ],
      "name": "getRefund",
      "outputs": [],
      "stateMutability": "nonpayable",
      "type": "function"
    },
    {
      "inputs": [
        {
          "internalType": "uint256",
          "name": "amount",
          "type": "uint256"
        }
      ],
      "name": "withdraw",
      "outputs": [],
      "stateMutability": "nonpayable",
      "type": "function"
    },
    {
      "inputs": [],
      "name": "withdrawAll",
      "outputs": [],
      "stateMutability": "nonpayable",
      "type": "function"
    },
    {
      "inputs": [
        {
          "internalType": "address",
          "name": "addr",
          "type": "address"
        }
      ],
      "name": "retrieveLastAssigned",
      "outputs": [
        {
          "internalType": "uint256",
          "name": "",
          "type": "uint256"
        }
      ],
      "stateMutability": "view",
      "type": "function",
      "constant": true
    },
    {
      "inputs": [
        {
          "internalType": "address",
          "name": "addr",
          "type": "address"
        }
      ],
      "name": "retrieveFullBalance",
      "outputs": [
        {
          "internalType": "uint256",
          "name": "",
          "type": "uint256"
        }
      ],
      "stateMutability": "view",
      "type": "function",
      "constant": true
    },
    {
      "inputs": [],
      "name": "retrieveSettings",
      "outputs": [
        {
          "internalType": "uint256",
          "name": "",
          "type": "uint256"
        },
        {
          "internalType": "uint256",
          "name": "",
          "type": "uint256"
        },
        {
          "internalType": "uint256",
          "name": "",
          "type": "uint256"
        },
        {
          "internalType": "uint256",
          "name": "",
          "type": "uint256"
        },
        {
          "internalType": "uint256",
          "name": "",
          "type": "uint256"
        }
      ],
      "stateMutability": "view",
      "type": "function",
      "constant": true
    },
    {
      "inputs": [],
      "name": "retrieveAggregatedAmount",
      "outputs": [
        {
          "internalType": "uint256",
          "name": "",
          "type": "uint256"
        }
      ],
      "stateMutability": "view",
      "type": "function",
      "constant": true
    }
  ],
  "bytecode": "0x608060405234801561001057600080fd5b506132a9806100206000396000f3fe6080604052600436106101105760003560e01c806304cc67a9146101155780630f13bbc9146101395780632e1a7d4d1461015b5780633c7df55d1461017b5780633feca4ca1461019b5780634044adb2146101f157806355457ee9146102345780635b362e841461024957806368fe2d49146102765780637faa3d6f14610296578063840f6d17146102b6578063853828b61461030457806391f9167114610319578063a93316f514610339578063b049473f1461035b578063d2116a0214610388578063d5920d49146103ab578063d6184d15146103c0578063db85bc4d146103f6578063e83988ff14610414578063ea1ff61714610434578063eb1e2a4114610454578063f0c9325e14610474575b600080fd5b34801561012157600080fd5b50600b545b6040519081526020015b60405180910390f35b34801561014557600080fd5b506101596101543660046129c5565b610487565b005b34801561016757600080fd5b50610159610176366004612c52565b61050c565b34801561018757600080fd5b50610159610196366004612a4d565b610518565b3480156101a757600080fd5b506101e16101b6366004612a8e565b6001600160a01b03919091166000908152600260209081526040808320938352929052205460ff1690565b6040519015158152602001610130565b3480156101fd57600080fd5b5061012661020c366004612c84565b6000918252600c602090815260408084206001600160a01b0393909316845291905290205490565b34801561024057600080fd5b50610159610618565b34801561025557600080fd5b506003546201000090046001600160a01b03165b6040516101309190612ec8565b34801561028257600080fd5b50610159610291366004612cb4565b6106ea565b3480156102a257600080fd5b506101596102b1366004612aba565b610778565b3480156102c257600080fd5b50600654600754600854600954600a54604080516001600160a01b0390961686526020860194909452928401919091526060830152608082015260a001610130565b34801561031057600080fd5b50610159610798565b34801561032557600080fd5b50610159610334366004612bf7565b6107ae565b34801561034557600080fd5b5061034e6107b8565b6040516101309190612f69565b34801561036757600080fd5b50600e54601054601154600f546012546040516101309594939291906130b3565b34801561039457600080fd5b5061039d610810565b604051610130929190612fc0565b3480156103b757600080fd5b50601354610126565b3480156103cc57600080fd5b506101266103db36600461298b565b6001600160a01b031660009081526014602052604090205490565b34801561040257600080fd5b506004546001600160a01b0316610269565b34801561042057600080fd5b5061012661042f36600461298b565b610937565b34801561044057600080fd5b5061015961044f366004612b4b565b610948565b34801561046057600080fd5b5061015961046f366004612a8e565b6109a5565b610159610482366004612c31565b610bf1565b600354610100900460ff16806104a0575060035460ff16155b6104c55760405162461bcd60e51b81526004016104bc90612fee565b60405180910390fd5b600354610100900460ff161580156104e7576003805461ffff19166101011790555b6104f385858585610f29565b8015610505576003805461ff00191690555b5050505050565b61051581610fb3565b50565b3373__Library_______________________________6337ea306382600360029054906101000a90046001600160a01b03166001600160a01b031663da3dce266040518163ffffffff1660e01b815260040160206040518083038186803b15801561058257600080fd5b505afa158015610596573d6000803e3d6000fd5b505050506040513d601f19601f820116820180604052508101906105ba91906129a8565b6040518363ffffffff1660e01b81526004016105d7929190612edc565b60006040518083038186803b1580156105ef57600080fd5b505af4158015610603573d6000803e3d6000fd5b50505050610612848484611195565b50505050565b6001610623816111d5565b6006546040516337ea306360e01b8152339173__Library_______________________________916337ea3063916106699185916001600160a01b031690600401612edc565b60006040518083038186803b15801561068157600080fd5b505af4158015610695573d6000803e3d6000fd5b505050506106a1611259565b6006546005546040519081526001600160a01b03909116907f1fe8aec10c0a50fa765076161e08c1f961ced69594ff45cf7d559f593afe14799060200160405180910390a25050565b600354610100900460ff1680610703575060035460ff16155b61071f5760405162461bcd60e51b81526004016104bc90612fee565b600354610100900460ff16158015610741576003805461ffff19166101011790555b61074d84868585610487565b61075a8a8a8a8a8a611284565b801561076c576003805461ff00191690555b50505050505050505050565b6107868686868686866112d7565b6107908685611436565b505050505050565b60006107a33361154d565b905061051581610fb3565b6105153382611436565b6060600d80548060200260200160405190810160405280929190818152602001828054801561080657602002820191906000526020600020905b8154815260200190600101908083116107f2575b5050505050905090565b60608060006001818054610823906131a2565b80601f016020809104026020016040519081016040528092919081815260200182805461084f906131a2565b801561089c5780601f106108715761010080835404028352916020019161089c565b820191906000526020600020905b81548152906001019060200180831161087f57829003601f168201915b505050505091508080546108af906131a2565b80601f01602080910402602001604051908101604052809291908181526020018280546108db906131a2565b80156109285780601f106108fd57610100808354040283529160200191610928565b820191906000526020600020905b81548152906001019060200180831161090b57829003601f168201915b50505050509050915091509091565b60006109428261154d565b92915050565b610950611572565b60005b81518110156109a157600d82828151811061097057610970613224565b6020908102919091018101518254600181018455600093845291909220015580610999816131dd565b915050610953565b5050565b3373__Library_______________________________6337ea306382600360029054906101000a90046001600160a01b03166001600160a01b031663aa33380a6040518163ffffffff1660e01b815260040160206040518083038186803b158015610a0f57600080fd5b505afa158015610a23573d6000803e3d6000fd5b505050506040513d601f19601f82011682018060405250810190610a4791906129a8565b6040518363ffffffff1660e01b8152600401610a64929190612edc565b60006040518083038186803b158015610a7c57600080fd5b505af4158015610a90573d6000803e3d6000fd5b505050506000600360029054906101000a90046001600160a01b03166001600160a01b031663602554156040518163ffffffff1660e01b815260040160206040518083038186803b158015610ae457600080fd5b505afa158015610af8573d6000803e3d6000fd5b505050506040513d601f19601f82011682018060405250810190610b1c91906129a8565b6001600160a01b0316638d12420b6012546040518263ffffffff1660e01b8152600401610b4b91815260200190565b60206040518083038186803b158015610b6357600080fd5b505afa158015610b77573d6000803e3d6000fd5b505050506040513d601f19601f82011682018060405250810190610b9b9190612c6b565b9050610ba88482856118c6565b836001600160a01b03167f885157c8ed39c012c67730d5e5d229068f71cac97d1658f5bf6593c8246dcc3c8285604051610be392919061308f565b60405180910390a250505050565b3481600019816003811115610c0857610c0861320e565b610c155750600e54610c60565b816003811115610c2757610c2761320e565b60011415610c385750601054610c60565b816003811115610c4a57610c4a61320e565b60021415610c5b5750600f54610c60565b506011545b6000600360029054906101000a90046001600160a01b03166001600160a01b031663602554156040518163ffffffff1660e01b815260040160206040518083038186803b158015610cb057600080fd5b505afa158015610cc4573d6000803e3d6000fd5b505050506040513d601f19601f82011682018060405250810190610ce891906129a8565b6001600160a01b0316638d12420b836040518263ffffffff1660e01b8152600401610d1591815260200190565b60206040518083038186803b158015610d2d57600080fd5b505afa158015610d41573d6000803e3d6000fd5b505050506040513d601f19601f82011682018060405250810190610d659190612c6b565b905080841015610da05760405162461bcd60e51b81526004016104bc906020808252600490820152634543322d60e01b604082015260600190565b346000866003811115610db557610db561320e565b1415610ecd57600360029054906101000a90046001600160a01b03166001600160a01b031663602554156040518163ffffffff1660e01b815260040160206040518083038186803b158015610e0957600080fd5b505afa158015610e1d573d6000803e3d6000fd5b505050506040513d601f19601f82011682018060405250810190610e4191906129a8565b6001600160a01b0316638d12420b6012546040518263ffffffff1660e01b8152600401610e7091815260200190565b60206040518083038186803b158015610e8857600080fd5b505afa158015610e9c573d6000803e3d6000fd5b505050506040513d601f19601f82011682018060405250810190610ec09190612c6b565b610eca908261315f565b90505b8060136000828254610edf9190613106565b909155505060135460405133917faef711f818f5d24f55a9c2d7da0afa5edd0420e1505ff8e60c344ce836e3e86e91610f1991349161308f565b60405180910390a2505050505050565b600354610100900460ff1680610f42575060035460ff16155b610f5e5760405162461bcd60e51b81526004016104bc90612fee565b600354610100900460ff16158015610f80576003805461ffff19166101011790555b610f8984611960565b600480546001600160a01b0319166001600160a01b0387161790556000600b556104f383836119ee565b803381610fbf8261154d565b1015610ff55760405162461bcd60e51b8152602060048201526005602482015264454332302d60d81b60448201526064016104bc565b610ffe33611a15565b600061100933611a9b565b905060008061101733611b0a565b909250905060006110288288613140565b611032908461315f565b905060005b84518110156110bb576110a93361108a3388858151811061105a5761105a613224565b60200260200101516001600160a01b03919091166000908152601560209081526040808320938352929052205490565b87848151811061109c5761109c613224565b6020026020010151611c20565b806110b3816131dd565b915050611037565b506110c73382846118c6565b604051600090819033908a908381818185875af1925050503d806000811461110b576040519150601f19603f3d011682016040523d82523d6000602084013e611110565b606091505b509150915081816040516020016111279190612e75565b604051602081830303815290604052906111545760405162461bcd60e51b81526004016104bc9190612fad565b5060405189815233907f732ea8a38f70c2018ed8dfd6e97bf6381f60102061beae0ac4d9a5abd15a06029060200160405180910390a2505050505050505050565b6111a0838383611e16565b6001600160a01b038316156111b8576111b883611a15565b6001600160a01b038216156111d0576111d082611a15565b505050565b801561121c576111e3611e33565b15156001146105155760405162461bcd60e51b8152602060048201526005602482015264454332352d60d81b60448201526064016104bc565b611224611e33565b156105155760405162461bcd60e51b8152602060048201526005602482015264454332342d60d81b60448201526064016104bc565b60006005819055600680546001600160a01b0319169055600781905560088190556009819055600a55565b8481808210156112be5760405162461bcd60e51b8152602060048201526005602482015264454332312d60d81b60448201526064016104bc565b5050600e94909455601092909255601155600f55601255565b816112e181611e6d565b86846112ed8282611ea4565b60055488146113265760405162461bcd60e51b8152602060048201526005602482015264454333352d60d81b60448201526064016104bc565b60405163432f9a5560e01b815273__SignatureLibrary______________________9063432f9a559061136d908c908c908c908c908c908c90600090600190600401612ef6565b60206040518083038186803b15801561138557600080fd5b505af4158015611399573d6000803e3d6000fd5b505050506040513d601f19601f820116820180604052508101906113bd9190612c14565b15156001146113f65760405162461bcd60e51b8152602060048201526005602482015264454333322d60d81b60448201526064016104bc565b61142b89876001600160a01b03909116600090815260026020908152604080832093835292905220805460ff19166001179055565b505050505050505050565b6001611441816111d5565b600554839060006114528383611f00565b90506000811161148c5760405162461bcd60e51b8152602060048201526005602482015264454332332d60d81b60448201526064016104bc565b600061149d87600560000154611f00565b905085156114c55780600560040160008282546114ba9190613106565b909155506114df9050565b806005800160008282546114d99190613106565b90915550505b6005546114ed908883611f3d565b60055460408051918252871515602083015281018290526001600160a01b038816907f50f654d58981575c05e369cb129aeacb01e1b036af429380242cfc5d1a4b743f9060600160405180910390a2611544611f6f565b50505050505050565b600080600061155b84612045565b909250905061156a818361311e565b949350505050565b600061157d816111d5565b60045433906000906001600160a01b031682141561159d575060016116d6565b60006115a8836120a7565b90506000600360029054906101000a90046001600160a01b03166001600160a01b03166387552a0d6040518163ffffffff1660e01b815260040160206040518083038186803b1580156115fa57600080fd5b505afa15801561160e573d6000803e3d6000fd5b505050506040513d601f19601f8201168201806040525081019061163291906129a8565b6001600160a01b031663b049473f6040518163ffffffff1660e01b815260040160606040518083038186803b15801561166a57600080fd5b505afa15801561167e573d6000803e3d6000fd5b505050506040513d601f19601f820116820180604052508101906116a29190612d6d565b9250505060646116b06121aa565b6116bd9060ff8416613140565b6116c7919061311e565b8211156116d357600192505b50505b6001811515146117105760405162461bcd60e51b8152602060048201526005602482015264454332322d60d81b60448201526064016104bc565b600080600360029054906101000a90046001600160a01b03166001600160a01b03166387552a0d6040518163ffffffff1660e01b815260040160206040518083038186803b15801561176157600080fd5b505afa158015611775573d6000803e3d6000fd5b505050506040513d601f19601f8201168201806040525081019061179991906129a8565b6001600160a01b031663b049473f6040518163ffffffff1660e01b815260040160606040518083038186803b1580156117d157600080fd5b505afa1580156117e5573d6000803e3d6000fd5b505050506040513d601f19601f820116820180604052508101906118099190612d6d565b50600680546001600160a01b03191633179055909250905061182b8242613106565b600755606460ff821661183c6121aa565b6118469190613140565b611850919061311e565b600855600b80546005819055906000611868836131dd565b90915550506006546005546007546008546040516001600160a01b03909416937f472501d19bf75639b2e316cd36f8568b0c3ab943b82a87de3c086c98c1929df9936118b7939092909161309d565b60405180910390a25050505050565b81156111d0576001600160a01b0383166000908152601560209081526040808320848452909152902054611923576001600160a01b0383166000908152601560209081526040822060019081018054918201815583529120018190555b6001600160a01b038316600090815260156020908152604080832084845290915281208054849290611956908490613106565b9091555050505050565b600354610100900460ff1680611979575060035460ff16155b6119955760405162461bcd60e51b81526004016104bc90612fee565b600354610100900460ff161580156119b7576003805461ffff19166101011790555b6003805462010000600160b01b031916620100006001600160a01b0385160217905580156109a1576003805461ff00191690555050565b8151611a0190600090602085019061284b565b5080516111d090600190602084019061284b565b600080611a21836122a7565b909250905081156111d0576013546001600160a01b038416600090815260146020526040902055611a538383836118c6565b826001600160a01b03167fe983a49d27e04c64952da756088988cab0349d02969d01e8fecd907888b2e1208383604051611a8e92919061308f565b60405180910390a2505050565b6001600160a01b038116600090815260156020908152604091829020600101805483518184028101840190945280845260609392830182828015611afe57602002820191906000526020600020905b815481526020019060010190808311611aea575b50505050509050919050565b6000806000611b1884611a9b565b9050600073__UintLibrary___________________________63f254becc836040518263ffffffff1660e01b8152600401611b539190612f69565b60206040518083038186803b158015611b6b57600080fd5b505af4158015611b7f573d6000803e3d6000fd5b505050506040513d601f19601f82011682018060405250810190611ba39190612c6b565b90506000805b8351811015611c1557838181518110611bc457611bc4613224565b602002602001015183611be38987858151811061105a5761105a613224565b611bed9190613140565b611bf7919061311e565b611c019083613106565b915080611c0d816131dd565b915050611ba9565b509590945092505050565b6001600160a01b0383166000908152601560209081526040808320848452909152902054821115611c9e5760405162461bcd60e51b815260206004820152602260248201527f4e6f7420656e6f7567682062616c616e636520666f722074686973206661637460448201526137b960f11b60648201526084016104bc565b6001600160a01b038316600090815260156020908152604080832084845290915281208054849290611cd190849061315f565b90915550506001600160a01b03831660009081526015602090815260408083208484529091529020546111d0576001600160a01b0383166000908152601560205260409081902090516362fe358160e11b815273__UintLibrary___________________________9163cffd93cd91839163c5fc6b0291611d5c91879160019091019060040161303c565b60206040518083038186803b158015611d7457600080fd5b505af4158015611d88573d6000803e3d6000fd5b505050506040513d601f19601f82011682018060405250810190611dac9190612c6b565b6001600160a01b0386166000908152601560205260409081902090516001600160e01b031960e085901b168152611dea92916001019060040161308f565b60006040518083038186803b158015611e0257600080fd5b505af4158015611544573d6000803e3d6000fd5b611e1e611e33565b1515600114156111d0576111d083838361231e565b600754600090421015611e465750600190565b6006546001600160a01b031615611e6757611e5f612485565b611e67611259565b50600090565b8042106105155760405162461bcd60e51b8152602060048201526005602482015264454333332d60d81b60448201526064016104bc565b6001600160a01b038216600090815260026020908152604080832084845290915290205460ff16156109a15760405162461bcd60e51b8152602060048201526005602482015264454333342d60d81b60448201526064016104bc565b6000818152600c602090815260408083206001600160a01b0386168452909152812054611f2c846120a7565b611f36919061315f565b9392505050565b6000838152600c602090815260408083206001600160a01b038616845290915281208054839290611956908490613106565b60085460095410611fde57611f8261248d565b611f8a611259565b600654600554600954600a546040516001600160a01b03909416937f23ca0034cf5aad32571b4a492e9598ea8a490e1643a60970e3cdc6933b55e49f93611fd4939092909161309d565b60405180910390a2565b600854600a541061204357611ff1612485565b611ff9611259565b600654600554600954600a546040516001600160a01b03909416937fa58eb6daa3c62c3f883973c4035e5bd3e81aa627c8379de068a7de42df122be293611fd4939092909161309d565b565b60008060008061205485611b0a565b91509150600080612064876122a7565b909250905060006120758484613140565b61207f8387613140565b6120899190613106565b905060006120978386613140565b9199919850909650505050505050565b6000600360029054906101000a90046001600160a01b03166001600160a01b031663da3dce266040518163ffffffff1660e01b815260040160206040518083038186803b1580156120f757600080fd5b505afa15801561210b573d6000803e3d6000fd5b505050506040513d601f19601f8201168201806040525081019061212f91906129a8565b6001600160a01b03166370a08231836040518263ffffffff1660e01b815260040161215a9190612ec8565b60206040518083038186803b15801561217257600080fd5b505afa158015612186573d6000803e3d6000fd5b505050506040513d601f19601f820116820180604052508101906109429190612c6b565b6000600360029054906101000a90046001600160a01b03166001600160a01b031663da3dce266040518163ffffffff1660e01b815260040160206040518083038186803b1580156121fa57600080fd5b505afa15801561220e573d6000803e3d6000fd5b505050506040513d601f19601f8201168201806040525081019061223291906129a8565b6001600160a01b03166318160ddd6040518163ffffffff1660e01b815260040160206040518083038186803b15801561226a57600080fd5b505afa15801561227e573d6000803e3d6000fd5b505050506040513d601f19601f820116820180604052508101906122a29190612c6b565b905090565b6013546001600160a01b038216600090815260146020526040812054909182918291111561230b576122d8846120a7565b6001600160a01b0385166000908152601460205260409020546013546122fe919061315f565b6123089190613140565b90505b806123146121aa565b9250925050915091565b6001600160a01b0383161580159061235a57506005546000908152600c602090815260408083206001600160a01b038716845290915290205415155b156111d0576005546000908152600c602090815260408083206001600160a01b038716845290915290205481908111156123b657506005546000908152600c602090815260408083206001600160a01b03871684529091529020545b6005546000908152600c602090815260408083206001600160a01b0388168452909152812080548392906123eb90849061315f565b90915550506001600160a01b0383161561243a576005546000908152600c602090815260408083206001600160a01b038716845290915281208054839290612434908490613106565b90915550505b600554604080516001600160a01b038088168252861660208201529081018390527f65fbd5e5dd32bea4aeca85bd0be0abf0e489d655dee888a7510d43b06dda2dba90606001610be3565b612043612495565b6124856124a1565b612043600d60006128cf565b600073__UintLibrary___________________________630bd4715e600d6000815481106124d1576124d1613224565b90600052602060002001546040518263ffffffff1660e01b81526004016124fa91815260200190565b60206040518083038186803b15801561251257600080fd5b505af4158015612526573d6000803e3d6000fd5b505050506040513d601f19601f8201168201806040525081019061254a9190612c6b565b9050600073__UintLibrary___________________________630bd4715e600d60018154811061257c5761257c613224565b90600052602060002001546040518263ffffffff1660e01b81526004016125a591815260200190565b60206040518083038186803b1580156125bd57600080fd5b505af41580156125d1573d6000803e3d6000fd5b505050506040513d601f19601f820116820180604052508101906125f59190612c6b565b9050600073__UintLibrary___________________________630bd4715e600d60028154811061262757612627613224565b90600052602060002001546040518263ffffffff1660e01b815260040161265091815260200190565b60206040518083038186803b15801561266857600080fd5b505af415801561267c573d6000803e3d6000fd5b505050506040513d601f19601f820116820180604052508101906126a09190612c6b565b9050600073__UintLibrary___________________________630bd4715e600d6003815481106126d2576126d2613224565b90600052602060002001546040518263ffffffff1660e01b81526004016126fb91815260200190565b60206040518083038186803b15801561271357600080fd5b505af4158015612727573d6000803e3d6000fd5b505050506040513d601f19601f8201168201806040525081019061274b9190612c6b565b9050600073__UintLibrary___________________________630bd4715e600d60048154811061277d5761277d613224565b90600052602060002001546040518263ffffffff1660e01b81526004016127a691815260200190565b60206040518083038186803b1580156127be57600080fd5b505af41580156127d2573d6000803e3d6000fd5b505050506040513d601f19601f820116820180604052508101906127f69190612c6b565b90506128058585858585611284565b7fbe8847d52fb3c03e3414e96d164a23594063f5b6cf01428e61c38bfbbc34ef19858585858560405161283c9594939291906130b3565b60405180910390a15050505050565b828054612857906131a2565b90600052602060002090601f01602090048101928261287957600085556128bf565b82601f1061289257805160ff19168380011785556128bf565b828001600101855582156128bf579182015b828111156128bf5782518255916020019190600101906128a4565b506128cb9291506128e9565b5090565b508054600082559060005260206000209081019061051591905b5b808211156128cb57600081556001016128ea565b60006001600160401b038311156129175761291761323a565b61292a601f8401601f19166020016130d6565b905082815283838301111561293e57600080fd5b828260208301376000602084830101529392505050565b600082601f83011261296657600080fd5b611f36838335602085016128fe565b805160ff8116811461298657600080fd5b919050565b60006020828403121561299d57600080fd5b8135611f3681613250565b6000602082840312156129ba57600080fd5b8151611f3681613250565b600080600080608085870312156129db57600080fd5b84356129e681613250565b935060208501356129f681613250565b925060408501356001600160401b0380821115612a1257600080fd5b612a1e88838901612955565b93506060870135915080821115612a3457600080fd5b50612a4187828801612955565b91505092959194509250565b600080600060608486031215612a6257600080fd5b8335612a6d81613250565b92506020840135612a7d81613250565b929592945050506040919091013590565b60008060408385031215612aa157600080fd5b8235612aac81613250565b946020939093013593505050565b60008060008060008060c08789031215612ad357600080fd5b8635612ade81613250565b9550602087013594506040870135612af581613265565b9350606087013592506080870135915060a08701356001600160401b03811115612b1e57600080fd5b8701601f81018913612b2f57600080fd5b612b3e898235602084016128fe565b9150509295509295509295565b60006020808385031215612b5e57600080fd5b82356001600160401b0380821115612b7557600080fd5b818501915085601f830112612b8957600080fd5b813581811115612b9b57612b9b61323a565b8060051b9150612bac8483016130d6565b8181528481019084860184860187018a1015612bc757600080fd5b600095505b83861015612bea578035835260019590950194918601918601612bcc565b5098975050505050505050565b600060208284031215612c0957600080fd5b8135611f3681613265565b600060208284031215612c2657600080fd5b8151611f3681613265565b600060208284031215612c4357600080fd5b813560048110611f3657600080fd5b600060208284031215612c6457600080fd5b5035919050565b600060208284031215612c7d57600080fd5b5051919050565b60008060408385031215612c9757600080fd5b823591506020830135612ca981613250565b809150509250929050565b60008060008060008060008060006101208a8c031215612cd357600080fd5b8935985060208a0135975060408a0135965060608a0135955060808a0135945060a08a0135612d0181613250565b935060c08a0135612d1181613250565b925060e08a01356001600160401b0380821115612d2d57600080fd5b612d398d838e01612955565b93506101008c0135915080821115612d5057600080fd5b50612d5d8c828d01612955565b9150509295985092959850929598565b600080600060608486031215612d8257600080fd5b83519250612d9260208501612975565b9150612da060408501612975565b90509250925092565b60008151808452612dc1816020860160208601613176565b601f01601f19169290920160200192915050565b8054600090600181811c9080831680612def57607f831692505b6020808410821415612e1157634e487b7160e01b600052602260045260246000fd5b83885260208801828015612e2c5760018114612e3d57612e68565b60ff19871682528282019750612e68565b60008981526020902060005b87811015612e6257815484820152908601908401612e49565b83019850505b5050505050505092915050565b7f4572726f72207472616e73666572696e672066756e647320746f206164647265815264039b9901d160dd1b602082015260008251612ebb816025850160208701613176565b9190910160250192915050565b6001600160a01b0391909116815260200190565b6001600160a01b0392831681529116602082015260400190565b600061010060018060a01b038b16835289602084015288151560408401528760608401528660808401528060a0840152612f3281840187612da9565b905082810360c0840152612f468186612dd5565b905082810360e0840152612f5a8185612dd5565b9b9a5050505050505050505050565b6020808252825182820181905260009190848201906040850190845b81811015612fa157835183529284019291840191600101612f85565b50909695505050505050565b602081526000611f366020830184612da9565b604081526000612fd36040830185612da9565b8281036020840152612fe58185612da9565b95945050505050565b6020808252602e908201527f496e697469616c697a61626c653a20636f6e747261637420697320616c72656160408201526d191e481a5b9a5d1a585b1a5e995960921b606082015260800190565b60006040820184835260206040818501528185548084526060860191508660005282600020935060005b8181101561308257845483526001948501949284019201613066565b5090979650505050505050565b918252602082015260400190565b9283526020830191909152604082015260600190565b948552602085019390935260408401919091526060830152608082015260a00190565b604051601f8201601f191681016001600160401b03811182821017156130fe576130fe61323a565b604052919050565b60008219821115613119576131196131f8565b500190565b60008261313b57634e487b7160e01b600052601260045260246000fd5b500490565b600081600019048311821515161561315a5761315a6131f8565b500290565b600082821015613171576131716131f8565b500390565b60005b83811015613191578181015183820152602001613179565b838111156106125750506000910152565b600181811c908216806131b657607f821691505b602082108114156131d757634e487b7160e01b600052602260045260246000fd5b50919050565b60006000198214156131f1576131f16131f8565b5060010190565b634e487b7160e01b600052601160045260246000fd5b634e487b7160e01b600052602160045260246000fd5b634e487b7160e01b600052603260045260246000fd5b634e487b7160e01b600052604160045260246000fd5b6001600160a01b038116811461051557600080fd5b801515811461051557600080fdfea2646970667358221220530baff6ce269f57013e08795748d593cf94218e0bb6f82dd2724bcb76e6cb7464736f6c63430008070033",
  "immutableReferences": {},
  "source": "// SPDX-License-Identifier: GPL-3.0\r\n\r\npragma solidity 0.8.7;\r\n\r\n/**\r\n Treasury receives all the payments and assigns dividends to token holders.\r\n Public Certificate Pool contract can ask for its owners to eb refunded even if they do not own tokens.\r\n\r\n First dividends must be assigned to an account and then the account owner can withdraw the funds.\r\n Both actions must be triggered by the account owner.\r\n\r\n  Events : \r\n    - New Prices Added : list of prices\r\n    - Payment recieved : payer, amount, new total aggregated contract amount\r\n    - Refund : who, amount, among how many\r\n    - Assign Dividends : who, amount (number of tokens), among how many (total supply)\r\n    - Withdraw : who, how much\r\n */\r\n\r\nimport \"../Interfaces/ITreasury.sol\";\r\nimport \"../Interfaces/IPriceConverter.sol\";\r\nimport \"../Libraries/UintLibrary.sol\";\r\nimport \"../Libraries/Library.sol\";\r\nimport \"../Base/StdPropositionBaseContract.sol\";\r\nimport \"@openzeppelin/contracts-upgradeable/token/ERC20/IERC20Upgradeable.sol\";\r\n\r\n\r\ncontract Treasury is ITreasury, StdPropositionBaseContract{\r\n    using Library for *;\r\n    using UintLibrary for *;\r\n\r\n    // EVENTS /////////////////////////////////////////\r\n    event _NewPrices(uint Public, uint Private, uint Provider, uint Certificate, uint OwnerRefund);\r\n    event _Pay(address indexed Payer, uint Amount, uint AggregatedAmount);\r\n    event _Refund(address indexed Owner, uint Amount, uint TotalOwners);\r\n    event _AssignDividend(address indexed Recipient, uint Amount, uint TotalSupply);\r\n    event _Withdraw(address indexed Recipient, uint Amount);\r\n\r\n    // DATA /////////////////////////////////////////\r\n    // prices parameters usd\r\n    uint private _PublicPriceUSD;\r\n    uint private _CertificatePriceUSD;\r\n    uint private _PrivatePriceUSD;\r\n    uint private _ProviderPriceUSD;\r\n    uint private _OwnerRefundFeeUSD;\r\n\r\n    // last amount at which dividends where assigned for each token owner\r\n    uint private _AggregatedDividendAmount;\r\n    mapping(address => uint) private _lastAssigned;\r\n\r\n    // dividends per token owner\r\n    struct _BalanceStruct{\r\n        mapping(uint => uint) _balance;\r\n        uint[] _factors;\r\n    }\r\n    \r\n    mapping(address => _BalanceStruct) private _balances;\r\n\r\n    // MODIFIERS /////////////////////////////////////////\r\n    modifier areFundsEnough(uint256 value, Library.Prices price){\r\n        uint256 minPriceUSD = 2**256 - 1;\r\n\r\n        if(Library.Prices.NewProvider == price) minPriceUSD = _PublicPriceUSD;\r\n        else if(Library.Prices.NewPool == price) minPriceUSD = _PrivatePriceUSD;\r\n        else if(Library.Prices.NewCertificate == price) minPriceUSD = _CertificatePriceUSD;\r\n        else minPriceUSD = _ProviderPriceUSD;\r\n\r\n        uint256 minPriceETH = IPriceConverter(_managerContract.retrievePriceConverterProxy()).fromUSDToETH(minPriceUSD);\r\n\r\n        require(value >= minPriceETH, \"EC2-\");\r\n        _;\r\n    }\r\n\r\n    modifier isBalanceEnough(uint amount, address addr){\r\n        require(checkFullBalance(addr) >= amount, \"EC20-\");\r\n        _;\r\n    }\r\n\r\n    modifier isFromPublicPool(address addr){\r\n        Library.ItIsSomeone(addr, _managerContract.retrievePublicCertificatePoolProxy());\r\n        _;\r\n    }\r\n\r\n    modifier isPriceOK(uint256 PublicPriceUSD, uint256 OwnerRefundFeeUSD){\r\n        require(PublicPriceUSD >= OwnerRefundFeeUSD, \"EC21-\");\r\n        _;\r\n    }\r\n    \r\n    // CONSTRUCTOR /////////////////////////////////////////\r\n    function Treasury_init(uint256 PublicPriceUSD, uint256 PrivatePriceUSD, uint256 ProviderPriceUSD, uint256 CertificatePriceUSD, uint256 OwnerRefundFeeUSD, address managerContractAddress, address chairPerson, string memory contractName, string memory contractVersion) public initializer \r\n    {\r\n        super.StdPropositionBaseContract_init(chairPerson, managerContractAddress, contractName, contractVersion);\r\n        InternalupdatePrices(PublicPriceUSD, PrivatePriceUSD, ProviderPriceUSD, CertificatePriceUSD, OwnerRefundFeeUSD);\r\n    }\r\n\r\n    // GOVERNANCE /////////////////////////////////////////\r\n    function UpdateAll() internal override\r\n    {\r\n        uint256 PublicPriceUSD = UintLibrary.Bytes32ToUint(_ProposedNewValues[0]);\r\n        uint256 PrivatePriceUSD = UintLibrary.Bytes32ToUint(_ProposedNewValues[1]);\r\n        uint256 ProviderPriceUSD = UintLibrary.Bytes32ToUint(_ProposedNewValues[2]);\r\n        uint256 CertificatePriceUSD = UintLibrary.Bytes32ToUint(_ProposedNewValues[3]);\r\n        uint256 OwnerRefundFeeUSD = UintLibrary.Bytes32ToUint(_ProposedNewValues[4]);\r\n\r\n        InternalupdatePrices(PublicPriceUSD, PrivatePriceUSD, ProviderPriceUSD, CertificatePriceUSD, OwnerRefundFeeUSD);\r\n\r\n        emit _NewPrices(PublicPriceUSD, PrivatePriceUSD, ProviderPriceUSD, CertificatePriceUSD, OwnerRefundFeeUSD);\r\n    }\r\n\r\n    function InternalupdatePrices(uint256 PublicPriceUSD, uint256 PrivatePriceUSD, uint256 ProviderPriceUSD, uint256 CertificatePriceUSD, uint256 OwnerRefundFeeUSD) internal\r\n        isPriceOK(PublicPriceUSD, OwnerRefundFeeUSD)\r\n    {\r\n        _PublicPriceUSD = PublicPriceUSD;\r\n        _PrivatePriceUSD = PrivatePriceUSD;\r\n        _ProviderPriceUSD = ProviderPriceUSD;\r\n        _CertificatePriceUSD = CertificatePriceUSD;\r\n        _OwnerRefundFeeUSD = OwnerRefundFeeUSD;\r\n    }\r\n\r\n    // FUNCTIONALITY /////////////////////////////////////////\r\n    function pay(Library.Prices price) external \r\n        areFundsEnough(msg.value, price)\r\n    override payable\r\n    {\r\n        uint256 amount = msg.value;\r\n        if(price == Library.Prices.NewProvider) amount -= IPriceConverter(_managerContract.retrievePriceConverterProxy()).fromUSDToETH(_OwnerRefundFeeUSD);\r\n        _AggregatedDividendAmount += amount;\r\n\r\n        emit _Pay(msg.sender, msg.value, _AggregatedDividendAmount);\r\n    }\r\n\r\n    function InternalonTokenBalanceChanged(address from, address to, uint256 amount) internal override\r\n    {\r\n        super.InternalonTokenBalanceChanged(from, to, amount);\r\n        if(address(0) != from) InternalAssignDividends(from);\r\n        if(address(0) != to) InternalAssignDividends(to);\r\n    }\r\n\r\n    function InternalAssignDividends(address recipient) internal\r\n    {\r\n        (uint totalOffBalance, uint DividendOffBalance) = sumUpTotalOffBalance(recipient);\r\n\r\n        if(totalOffBalance > 0){\r\n           _lastAssigned[recipient] = _AggregatedDividendAmount;\r\n           addBalance(recipient, totalOffBalance, DividendOffBalance);\r\n           \r\n           emit _AssignDividend(recipient, totalOffBalance, DividendOffBalance);\r\n        }\r\n    }\r\n\r\n    function getRefund(address addr, uint numberOfOwners) external \r\n        isFromPublicPool(msg.sender)\r\n    override\r\n    {\r\n        uint OwnerRefundFeeWei = IPriceConverter(_managerContract.retrievePriceConverterProxy()).fromUSDToETH(_OwnerRefundFeeUSD);\r\n        addBalance(addr, OwnerRefundFeeWei, numberOfOwners);\r\n\r\n        emit _Refund(addr, OwnerRefundFeeWei, numberOfOwners);\r\n    }\r\n\r\n    function withdraw(uint amount) external \r\n    override\r\n    {\r\n        InternalWithdraw(amount);\r\n    }\r\n\r\n    function withdrawAll() external override\r\n    {\r\n        uint All = checkFullBalance(msg.sender);\r\n        InternalWithdraw(All);\r\n    }\r\n\r\n    function InternalWithdraw(uint amount) internal \r\n        isBalanceEnough(amount, msg.sender)\r\n    {\r\n        InternalAssignDividends(msg.sender);\r\n        uint[] memory f = returnFactors(msg.sender);\r\n        (uint total, uint commonDividend) = sumUpTotalOnBalance(msg.sender);\r\n        uint remainder =  total - (amount * commonDividend);\r\n\r\n        for(uint i=0; i < f.length; i++){\r\n            substractBalance(msg.sender, returnBalanceForFactor(msg.sender, f[i]), f[i]);\r\n        }\r\n\r\n        addBalance(msg.sender, remainder, commonDividend);\r\n\r\n        (bool success, bytes memory data) = msg.sender.call{value: amount}(\"\");\r\n        require(success, string(abi.encodePacked(\"Error transfering funds to address : \", data)));\r\n\r\n        emit _Withdraw(msg.sender, amount);\r\n    }\r\n\r\n    function retrieveLastAssigned(address addr) external override view returns(uint)\r\n    {\r\n        return _lastAssigned[addr];\r\n    }\r\n\r\n    function retrieveFullBalance(address addr) external override view returns(uint)\r\n    {\r\n        return checkFullBalance(addr);\r\n    }\r\n\r\n    function retrieveSettings() external override view returns(uint, uint, uint, uint, uint)\r\n    {\r\n        return(_PublicPriceUSD, _PrivatePriceUSD, _ProviderPriceUSD, _CertificatePriceUSD, _OwnerRefundFeeUSD);\r\n    }\r\n\r\n    function retrieveAggregatedAmount() external override view returns(uint){\r\n        return _AggregatedDividendAmount;\r\n    }\r\n\r\n    function checkFullBalance(address addr) internal view returns(uint){\r\n        (uint total, uint commonDividend) = sumUpTotal(addr);\r\n\r\n        return total / commonDividend;\r\n    }\r\n\r\n    function sumUpTotal(address addr) internal view returns (uint, uint)\r\n    {\r\n        (uint totalOnBalance, uint commonDividendOnBalance) = sumUpTotalOnBalance(addr);\r\n        (uint totalOffBalance, uint DividendOffBalance) = sumUpTotalOffBalance(addr);\r\n\r\n        uint total = (totalOnBalance * DividendOffBalance) + (totalOffBalance * commonDividendOnBalance);\r\n        uint CommonDividend = commonDividendOnBalance * DividendOffBalance;\r\n\r\n        return (total, CommonDividend);\r\n    }\r\n\r\n    function sumUpTotalOnBalance(address addr) internal view returns (uint, uint)\r\n    {\r\n        uint[] memory f = returnFactors(addr);\r\n        uint CommonDividend = UintLibrary.ProductOfFactors(f);\r\n        uint total = 0;\r\n\r\n        for(uint i=0; i < f.length; i++){\r\n            total += returnBalanceForFactor(addr, f[i]) * CommonDividend / f[i];\r\n        }\r\n\r\n        return (total, CommonDividend);\r\n    }\r\n\r\n    function sumUpTotalOffBalance(address addr) internal view returns (uint, uint)\r\n    {\r\n        uint total = 0;\r\n\r\n        if(_lastAssigned[addr] < _AggregatedDividendAmount)\r\n        {\r\n            total = (_AggregatedDividendAmount - _lastAssigned[addr]) * GetTokensBalance(addr);           \r\n        }\r\n\r\n        return (total, totalSupply());\r\n    }\r\n\r\n    function returnFactors(address addr) internal view returns(uint[] memory){\r\n        return _balances[addr]._factors;\r\n    }\r\n\r\n    function returnBalanceForFactor(address addr, uint factor) internal view returns(uint){\r\n        return _balances[addr]._balance[factor];\r\n    }\r\n\r\n    function addBalance(address addr, uint amount, uint factor) internal\r\n    {\r\n        if(amount > 0){\r\n            if(0 == _balances[addr]._balance[factor])\r\n            {\r\n                _balances[addr]._factors.push(factor);\r\n            }\r\n            _balances[addr]._balance[factor] += amount;\r\n        }\r\n    }\r\n\r\n    function substractBalance(address addr, uint amount, uint factor) internal\r\n    {\r\n        require(_balances[addr]._balance[factor] >= amount, \"Not enough balance for this factor\");\r\n\r\n        _balances[addr]._balance[factor] -= amount;\r\n\r\n        if(0 == _balances[addr]._balance[factor])\r\n        {\r\n            UintLibrary.UintArrayRemoveResize(UintLibrary.FindUintPosition(factor, _balances[addr]._factors), _balances[addr]._factors);\r\n        }\r\n        \r\n    }\r\n\r\n}",
  "sourcePath": "C:/Users/d-aam/GitHub/Certificates/contracts/DeployedContracts/Treasury.sol",
  "compiler": {
    "name": "solc",
    "version": "0.8.7+commit.e28d00a7.Emscripten.clang"
  },
  "schemaVersion": "3.3.4",
  "updatedAt": "2021-10-29T09:25:44.121Z",
  "networkType": "ethereum",
  "devdoc": {
    "kind": "dev",
    "methods": {},
    "version": 1
  },
  "userdoc": {
    "kind": "user",
    "methods": {},
    "version": 1
  }
}