{
  "contractName": "Treasury",
  "abi": [
    {
      "anonymous": false,
      "inputs": [
        {
          "indexed": false,
          "internalType": "uint256",
          "name": "",
          "type": "uint256"
        },
        {
          "indexed": true,
          "internalType": "address",
          "name": "",
          "type": "address"
        },
        {
          "indexed": false,
          "internalType": "uint256",
          "name": "",
          "type": "uint256"
        },
        {
          "indexed": false,
          "internalType": "uint256",
          "name": "",
          "type": "uint256"
        }
      ],
      "name": "_AddedProposition",
      "type": "event"
    },
    {
      "anonymous": false,
      "inputs": [
        {
          "indexed": true,
          "internalType": "address",
          "name": "",
          "type": "address"
        },
        {
          "indexed": false,
          "internalType": "uint256",
          "name": "",
          "type": "uint256"
        },
        {
          "indexed": false,
          "internalType": "uint256",
          "name": "",
          "type": "uint256"
        }
      ],
      "name": "_AssignDividend",
      "type": "event"
    },
    {
      "anonymous": false,
      "inputs": [
        {
          "indexed": false,
          "internalType": "uint256",
          "name": "",
          "type": "uint256"
        },
        {
          "indexed": true,
          "internalType": "address",
          "name": "",
          "type": "address"
        }
      ],
      "name": "_CancelledProposition",
      "type": "event"
    },
    {
      "anonymous": false,
      "inputs": [
        {
          "indexed": false,
          "internalType": "uint256",
          "name": "",
          "type": "uint256"
        },
        {
          "indexed": false,
          "internalType": "uint256",
          "name": "",
          "type": "uint256"
        },
        {
          "indexed": false,
          "internalType": "uint256",
          "name": "",
          "type": "uint256"
        },
        {
          "indexed": false,
          "internalType": "uint256",
          "name": "",
          "type": "uint256"
        },
        {
          "indexed": false,
          "internalType": "uint256",
          "name": "",
          "type": "uint256"
        }
      ],
      "name": "_NewPrices",
      "type": "event"
    },
    {
      "anonymous": false,
      "inputs": [
        {
          "indexed": true,
          "internalType": "address",
          "name": "",
          "type": "address"
        },
        {
          "indexed": false,
          "internalType": "uint256",
          "name": "",
          "type": "uint256"
        },
        {
          "indexed": false,
          "internalType": "uint256",
          "name": "",
          "type": "uint256"
        }
      ],
      "name": "_Pay",
      "type": "event"
    },
    {
      "anonymous": false,
      "inputs": [
        {
          "indexed": false,
          "internalType": "uint256",
          "name": "",
          "type": "uint256"
        },
        {
          "indexed": true,
          "internalType": "address",
          "name": "",
          "type": "address"
        },
        {
          "indexed": false,
          "internalType": "uint256",
          "name": "",
          "type": "uint256"
        },
        {
          "indexed": false,
          "internalType": "uint256",
          "name": "",
          "type": "uint256"
        }
      ],
      "name": "_PropositionApproved",
      "type": "event"
    },
    {
      "anonymous": false,
      "inputs": [
        {
          "indexed": false,
          "internalType": "uint256",
          "name": "",
          "type": "uint256"
        },
        {
          "indexed": true,
          "internalType": "address",
          "name": "",
          "type": "address"
        },
        {
          "indexed": false,
          "internalType": "uint256",
          "name": "",
          "type": "uint256"
        },
        {
          "indexed": false,
          "internalType": "uint256",
          "name": "",
          "type": "uint256"
        }
      ],
      "name": "_PropositionRejected",
      "type": "event"
    },
    {
      "anonymous": false,
      "inputs": [
        {
          "indexed": false,
          "internalType": "uint256",
          "name": "",
          "type": "uint256"
        },
        {
          "indexed": true,
          "internalType": "address",
          "name": "",
          "type": "address"
        },
        {
          "indexed": false,
          "internalType": "bool",
          "name": "",
          "type": "bool"
        },
        {
          "indexed": false,
          "internalType": "uint256",
          "name": "",
          "type": "uint256"
        }
      ],
      "name": "_PropositionVote",
      "type": "event"
    },
    {
      "anonymous": false,
      "inputs": [
        {
          "indexed": true,
          "internalType": "address",
          "name": "",
          "type": "address"
        },
        {
          "indexed": false,
          "internalType": "uint256",
          "name": "",
          "type": "uint256"
        },
        {
          "indexed": false,
          "internalType": "uint256",
          "name": "",
          "type": "uint256"
        }
      ],
      "name": "_Refund",
      "type": "event"
    },
    {
      "anonymous": false,
      "inputs": [
        {
          "indexed": true,
          "internalType": "uint256",
          "name": "",
          "type": "uint256"
        },
        {
          "indexed": false,
          "internalType": "address",
          "name": "",
          "type": "address"
        },
        {
          "indexed": false,
          "internalType": "address",
          "name": "",
          "type": "address"
        },
        {
          "indexed": false,
          "internalType": "uint256",
          "name": "",
          "type": "uint256"
        }
      ],
      "name": "_UsedTokensTransfered",
      "type": "event"
    },
    {
      "anonymous": false,
      "inputs": [
        {
          "indexed": true,
          "internalType": "address",
          "name": "",
          "type": "address"
        },
        {
          "indexed": false,
          "internalType": "uint256",
          "name": "",
          "type": "uint256"
        }
      ],
      "name": "_Withdraw",
      "type": "event"
    },
    {
      "inputs": [],
      "name": "cancelProposition",
      "outputs": [],
      "stateMutability": "nonpayable",
      "type": "function"
    },
    {
      "inputs": [
        {
          "internalType": "address",
          "name": "from",
          "type": "address"
        },
        {
          "internalType": "address",
          "name": "to",
          "type": "address"
        },
        {
          "internalType": "uint256",
          "name": "amount",
          "type": "uint256"
        }
      ],
      "name": "onTokenBalanceChanged",
      "outputs": [],
      "stateMutability": "nonpayable",
      "type": "function"
    },
    {
      "inputs": [],
      "name": "retrievePropConfig",
      "outputs": [
        {
          "internalType": "uint256",
          "name": "",
          "type": "uint256"
        },
        {
          "internalType": "uint8",
          "name": "",
          "type": "uint8"
        },
        {
          "internalType": "uint8",
          "name": "",
          "type": "uint8"
        }
      ],
      "stateMutability": "view",
      "type": "function"
    },
    {
      "inputs": [],
      "name": "retrievePropositionStatus",
      "outputs": [
        {
          "internalType": "address",
          "name": "",
          "type": "address"
        },
        {
          "internalType": "uint256",
          "name": "",
          "type": "uint256"
        },
        {
          "internalType": "uint256",
          "name": "",
          "type": "uint256"
        },
        {
          "internalType": "uint256",
          "name": "",
          "type": "uint256"
        },
        {
          "internalType": "uint256",
          "name": "",
          "type": "uint256"
        }
      ],
      "stateMutability": "view",
      "type": "function"
    },
    {
      "inputs": [
        {
          "internalType": "uint256",
          "name": "PropLifeTime",
          "type": "uint256"
        },
        {
          "internalType": "uint8",
          "name": "PropThresholdPerc",
          "type": "uint8"
        },
        {
          "internalType": "uint8",
          "name": "minWeightToPropPerc",
          "type": "uint8"
        }
      ],
      "name": "updateProp",
      "outputs": [],
      "stateMutability": "nonpayable",
      "type": "function"
    },
    {
      "inputs": [
        {
          "internalType": "bool",
          "name": "vote",
          "type": "bool"
        }
      ],
      "name": "voteProposition",
      "outputs": [],
      "stateMutability": "nonpayable",
      "type": "function"
    },
    {
      "inputs": [
        {
          "internalType": "uint256",
          "name": "PublicPriceWei",
          "type": "uint256"
        },
        {
          "internalType": "uint256",
          "name": "PrivatePriceWei",
          "type": "uint256"
        },
        {
          "internalType": "uint256",
          "name": "ProviderPriceWei",
          "type": "uint256"
        },
        {
          "internalType": "uint256",
          "name": "CertificatePriceWei",
          "type": "uint256"
        },
        {
          "internalType": "uint256",
          "name": "OwnerRefundPriceWei",
          "type": "uint256"
        },
        {
          "internalType": "address",
          "name": "managerContractAddress",
          "type": "address"
        },
        {
          "internalType": "uint256",
          "name": "PropositionLifeTime",
          "type": "uint256"
        },
        {
          "internalType": "uint8",
          "name": "PropositionThresholdPercentage",
          "type": "uint8"
        },
        {
          "internalType": "uint8",
          "name": "minWeightToProposePercentage",
          "type": "uint8"
        }
      ],
      "name": "Treasury_init",
      "outputs": [],
      "stateMutability": "nonpayable",
      "type": "function"
    },
    {
      "inputs": [
        {
          "internalType": "uint256",
          "name": "PublicPriceWei",
          "type": "uint256"
        },
        {
          "internalType": "uint256",
          "name": "PrivatePriceWei",
          "type": "uint256"
        },
        {
          "internalType": "uint256",
          "name": "ProviderPriceWei",
          "type": "uint256"
        },
        {
          "internalType": "uint256",
          "name": "CertificatePriceWei",
          "type": "uint256"
        },
        {
          "internalType": "uint256",
          "name": "OwnerRefundPriceWei",
          "type": "uint256"
        }
      ],
      "name": "updatePrices",
      "outputs": [],
      "stateMutability": "nonpayable",
      "type": "function"
    },
    {
      "inputs": [],
      "name": "retrieveProposition",
      "outputs": [
        {
          "internalType": "bytes32[]",
          "name": "",
          "type": "bytes32[]"
        }
      ],
      "stateMutability": "view",
      "type": "function"
    },
    {
      "inputs": [
        {
          "internalType": "enum Library.Prices",
          "name": "price",
          "type": "uint8"
        }
      ],
      "name": "pay",
      "outputs": [],
      "stateMutability": "payable",
      "type": "function"
    },
    {
      "inputs": [],
      "name": "AssignDividends",
      "outputs": [],
      "stateMutability": "nonpayable",
      "type": "function"
    },
    {
      "inputs": [
        {
          "internalType": "address",
          "name": "addr",
          "type": "address"
        },
        {
          "internalType": "uint256",
          "name": "numberOfOwners",
          "type": "uint256"
        }
      ],
      "name": "getRefund",
      "outputs": [],
      "stateMutability": "nonpayable",
      "type": "function"
    },
    {
      "inputs": [
        {
          "internalType": "uint256",
          "name": "amount",
          "type": "uint256"
        }
      ],
      "name": "withdraw",
      "outputs": [],
      "stateMutability": "nonpayable",
      "type": "function"
    },
    {
      "inputs": [
        {
          "internalType": "address",
          "name": "addr",
          "type": "address"
        }
      ],
      "name": "retrieveBalance",
      "outputs": [
        {
          "internalType": "uint256",
          "name": "",
          "type": "uint256"
        }
      ],
      "stateMutability": "view",
      "type": "function"
    },
    {
      "inputs": [],
      "name": "retrievePrices",
      "outputs": [
        {
          "internalType": "uint256",
          "name": "",
          "type": "uint256"
        },
        {
          "internalType": "uint256",
          "name": "",
          "type": "uint256"
        },
        {
          "internalType": "uint256",
          "name": "",
          "type": "uint256"
        },
        {
          "internalType": "uint256",
          "name": "",
          "type": "uint256"
        },
        {
          "internalType": "uint256",
          "name": "",
          "type": "uint256"
        }
      ],
      "stateMutability": "view",
      "type": "function"
    },
    {
      "inputs": [],
      "name": "retrieveAggregatedAmount",
      "outputs": [
        {
          "internalType": "uint256",
          "name": "",
          "type": "uint256"
        }
      ],
      "stateMutability": "view",
      "type": "function"
    }
  ],
  "bytecode": "0x608060405234801561001057600080fd5b506123c6806100206000396000f3fe6080604052600436106100c35760003560e01c806325b4f3ca146100c85780632e1a7d4d146100fe5780633c7df55d1461012057806355457ee914610140578063840f6d171461015557806391f91671146101a3578063922ebecc146101c357806396df6e79146101e3578063a93316f514610203578063ac2bb44214610225578063d40a523614610245578063d5920d491461025a578063d660ab3414610279578063e20f37ad146102b2578063eb1e2a41146102d2578063f0c9325e146102f2575b600080fd5b3480156100d457600080fd5b506013546015546016546014546017546040516100f595949392919061227d565b60405180910390f35b34801561010a57600080fd5b5061011e610119366004611fd9565b610305565b005b34801561012c57600080fd5b5061011e61013b366004611ef8565b61053f565b34801561014c57600080fd5b5061011e61067c565b34801561016157600080fd5b50600354600454600554600654600754604080516001600160a01b0390961686526020860194909452928401919091526060830152608082015260a0016100f5565b3480156101af57600080fd5b5061011e6101be366004611f65565b6107aa565b3480156101cf57600080fd5b5061011e6101de36600461202d565b6108ce565b3480156101ef57600080fd5b5061011e6101fe366004611ff2565b61095f565b34801561020f57600080fd5b50610218610975565b6040516100f591906120fd565b34801561023157600080fd5b5061011e6102403660046120ad565b610cda565b34801561025157600080fd5b5061011e610ce7565b34801561026657600080fd5b506018545b6040519081526020016100f5565b34801561028557600080fd5b50600a54600b546040805192835260ff8083166020850152610100909204909116908201526060016100f5565b3480156102be57600080fd5b5061026b6102cd366004611ebe565b610cf2565b3480156102de57600080fd5b5061011e6102ed366004611f39565b610d03565b61011e610300366004611fb8565b610e86565b808061031033610faf565b10156103505760405162461bcd60e51b8152600401610347906020808252600490820152630454332360e41b604082015260600190565b60405180910390fd5b600061035b3361102a565b90506000805b84821080156103705750825181105b1561046857600083828151811061038957610389612357565b60200260200101516103d7338685815181106103a7576103a7612357565b60200260200101516001600160a01b03919091166000908152601a60209081526040808320938352929052205490565b6103e191906122b8565b90506103ed83876122f9565b811115610401576103fe83876122f9565b90505b61040b81846122a0565b92506104553385848151811061042357610423612357565b60200260200101518361043691906122da565b86858151811061044857610448612357565b6020026020010151611099565b8161045f81612310565b92505050610361565b8482146104d55760405162461bcd60e51b815260206004820152603560248201527f556e45787065637465642070726f626c656d2063616c63756c6174696e672074604482015274686520616d6f756e7420746f20776974686472617760581b6064820152608401610347565b604051339083156108fc029084906000818181858888f19350505050158015610502573d6000803e3d6000fd5b5060405182815233907f732ea8a38f70c2018ed8dfd6e97bf6381f60102061beae0ac4d9a5abd15a06029060200160405180910390a25050505050565b73__Library_______________________________63d1d719d0600060029054906101000a90046001600160a01b03166001600160a01b031663da3dce266040518163ffffffff1660e01b815260040160206040518083038186803b1580156105a757600080fd5b505afa1580156105bb573d6000803e3d6000fd5b505050506040513d601f19601f820116820180604052508101906105df9190611edb565b6040518263ffffffff1660e01b81526004016105fb91906120e9565b60206040518083038186803b15801561061357600080fd5b505af4158015610627573d6000803e3d6000fd5b505050506040513d601f19601f8201168201806040525081019061064b9190611f82565b151560011461066c5760405162461bcd60e51b8152600401610347906121e9565b610677838383611298565b505050565b60016106866112d3565b15156001146106a75760405162461bcd60e51b8152600401610347906121ad565b600354604051630d1d719d60e41b815273__Library_______________________________9163d1d719d0916106e9916001600160a01b0316906004016120e9565b60206040518083038186803b15801561070157600080fd5b505af4158015610715573d6000803e3d6000fd5b505050506040513d601f19601f820116820180604052508101906107399190611f82565b151560011461075a5760405162461bcd60e51b815260040161034790612141565b61076261130d565b6003546002546040519081526001600160a01b03909116907f1fe8aec10c0a50fa765076161e08c1f961ced69594ff45cf7d559f593afe14799060200160405180910390a250565b60016107b46112d3565b15156001146107d55760405162461bcd60e51b8152600401610347906121ad565b6107e433600260000154611338565b151560011461081e5760405162461bcd60e51b8152600401610347906020808252600490820152634543323360e01b604082015260600190565b600061082f3360026000015461134f565b9050821561085757806002600401600082825461084c91906122a0565b909155506108729050565b806002600501600082825461086c91906122a0565b90915550505b60025461088090338361138c565b600254604080519182528415156020830152810182905233907f50f654d58981575c05e369cb129aeacb01e1b036af429380242cfc5d1a4b743f9060600160405180910390a26106776113c8565b600054610100900460ff16806108e7575060005460ff16155b6109035760405162461bcd60e51b81526004016103479061215f565b600054610100900460ff16158015610925576000805461ffff19166101011790555b6109328484843389611508565b6109418a8a8a8a8a60016115b1565b8015610953576000805461ff00191690555b50505050505050505050565b61096e858585858560006115b1565b5050505050565b60408051600580825260c08201909252606091600091906020820160a0803683375050600e54604051631635719760e31b8152600481019190915291925073__UintLibrary___________________________9163b1ab8cb8915060240160206040518083038186803b1580156109eb57600080fd5b505af41580156109ff573d6000803e3d6000fd5b505050506040513d601f19601f82011682018060405250810190610a239190611f9f565b81600081518110610a3657610a36612357565b6020908102919091010152601054604051631635719760e31b8152600481019190915273__UintLibrary___________________________9063b1ab8cb89060240160206040518083038186803b158015610a9057600080fd5b505af4158015610aa4573d6000803e3d6000fd5b505050506040513d601f19601f82011682018060405250810190610ac89190611f9f565b81600181518110610adb57610adb612357565b6020908102919091010152601154604051631635719760e31b8152600481019190915273__UintLibrary___________________________9063b1ab8cb89060240160206040518083038186803b158015610b3557600080fd5b505af4158015610b49573d6000803e3d6000fd5b505050506040513d601f19601f82011682018060405250810190610b6d9190611f9f565b81600281518110610b8057610b80612357565b6020908102919091010152600f54604051631635719760e31b8152600481019190915273__UintLibrary___________________________9063b1ab8cb89060240160206040518083038186803b158015610bda57600080fd5b505af4158015610bee573d6000803e3d6000fd5b505050506040513d601f19601f82011682018060405250810190610c129190611f9f565b81600381518110610c2557610c25612357565b6020908102919091010152601254604051631635719760e31b8152600481019190915273__UintLibrary___________________________9063b1ab8cb89060240160206040518083038186803b158015610c7f57600080fd5b505af4158015610c93573d6000803e3d6000fd5b505050506040513d601f19601f82011682018060405250810190610cb79190611f9f565b81600481518110610cca57610cca612357565b6020908102919091010152919050565b6106778383836000611637565b610cf0336116ee565b565b6000610cfd82610faf565b92915050565b73__Library_______________________________63d1d719d0600060029054906101000a90046001600160a01b03166001600160a01b031663aa33380a6040518163ffffffff1660e01b815260040160206040518083038186803b158015610d6b57600080fd5b505afa158015610d7f573d6000803e3d6000fd5b505050506040513d601f19601f82011682018060405250810190610da39190611edb565b6040518263ffffffff1660e01b8152600401610dbf91906120e9565b60206040518083038186803b158015610dd757600080fd5b505af4158015610deb573d6000803e3d6000fd5b505050506040513d601f19601f82011682018060405250810190610e0f9190611f82565b1515600114610e305760405162461bcd60e51b8152600401610347906121e9565b610e3d82601754836117cf565b816001600160a01b03167f885157c8ed39c012c67730d5e5d229068f71cac97d1658f5bf6593c8246dcc3c60175483604051610e7a929190612259565b60405180910390a25050565b80600019816003811115610e9c57610e9c612341565b610ea95750601354610ef4565b816003811115610ebb57610ebb612341565b60011415610ecc5750601554610ef4565b816003811115610ede57610ede612341565b60021415610eef5750601454610ef4565b506016545b80341015610f2a5760405162461bcd60e51b815260206004820152600360248201526222a19960e91b6044820152606401610347565b346000846003811115610f3f57610f3f612341565b1415610f5557601754610f5290826122f9565b90505b8060186000828254610f6791906122a0565b909155505060185460405133917faef711f818f5d24f55a9c2d7da0afa5edd0420e1505ff8e60c344ce836e3e86e91610fa1913491612259565b60405180910390a250505050565b600080610fbb8361102a565b90506000805b825181101561102257828181518110610fdc57610fdc612357565b6020026020010151610ffa868584815181106103a7576103a7612357565b61100491906122b8565b61100e90836122a0565b91508061101a81612310565b915050610fc1565b509392505050565b6001600160a01b0381166000908152601a602090815260409182902060010180548351818402810184019094528084526060939283018282801561108d57602002820191906000526020600020905b815481526020019060010190808311611079575b50505050509050919050565b6001600160a01b0383166000908152601a602090815260408083208484529091529020548211156111175760405162461bcd60e51b815260206004820152602260248201527f4e6f7420656e6f7567682062616c616e636520666f722074686973206661637460448201526137b960f11b6064820152608401610347565b6001600160a01b0383166000908152601a602090815260408083208484529091528120805484929061114a9084906122f9565b90915550506001600160a01b0383166000908152601a60209081526040808320848452909152902054610677576001600160a01b0383166000908152601a60205260409081902090516362fe358160e11b815273__UintLibrary___________________________9163cffd93cd91839163c5fc6b02916111d5918791600190910190600401612206565b60206040518083038186803b1580156111ed57600080fd5b505af4158015611201573d6000803e3d6000fd5b505050506040513d601f19601f820116820180604052508101906112259190611f9f565b6001600160a01b0386166000908152601a60205260409081902090516001600160e01b031960e085901b168152611263929160010190600401612259565b60006040518083038186803b15801561127b57600080fd5b505af415801561128f573d6000803e3d6000fd5b50505050505050565b6112a383838361185f565b6001600160a01b038316156112bb576112bb836116ee565b6001600160a01b0382161561067757610677826116ee565b6004546000904210156112e65750600190565b6003546001600160a01b031615611307576112ff61187c565b61130761130d565b50600090565b60006002819055600380546001600160a01b0319169055600481905560058190556006819055600755565b600080611345848461134f565b1515949350505050565b60008181526009602090815260408083206001600160a01b038616845290915281205461137b84611884565b61138591906122f9565b9392505050565b60008381526009602090815260408083206001600160a01b0386168452909152812080548392906113be9084906122a0565b9091555050505050565b600554600654111561148457600b5462010000900460ff161561142057600c54600a55600d54600b805461010080840460ff90811690910261ffff1990921693169290921791909117905561141b611986565b611428565b6114286119a4565b61143061130d565b6003546002546006546007546040516001600160a01b03909416937f23ca0034cf5aad32571b4a492e9598ea8a490e1643a60970e3cdc6933b55e49f9361147a9390929091612267565b60405180910390a2565b6005546007541115610cf057600b5462010000900460ff16156114ae576114a9611986565b6114b6565b6114b661187c565b6114be61130d565b6003546002546006546007546040516001600160a01b03909416937fa58eb6daa3c62c3f883973c4035e5bd3e81aa627c8379de068a7de42df122be29361147a9390929091612267565b600054610100900460ff1680611521575060005460ff16155b61153d5760405162461bcd60e51b81526004016103479061215f565b600054610100900460ff1615801561155f576000805461ffff19166101011790555b61156882611a15565b600180546001600160a01b0319166001600160a01b038516178155600060085561159790879087908790611637565b80156115a9576000805461ff00191690555b505050505050565b8582808210156115d35760405162461bcd60e51b8152600401610347906121cb565b82156115f7576013889055601587905560168690556014859055601784905561162d565b611613600a544261160891906122a0565b600b5460ff16611aa4565b600e889055600f8590556010879055601186905560128490555b5050505050505050565b82828160ff166064101561165d5760405162461bcd60e51b8152600401610347906121cb565b8060ff16606410156116815760405162461bcd60e51b8152600401610347906121cb565b82156116ac57600a869055600b805460ff8681166101000261ffff19909216908816171790556115a9565b600c869055600d805460ff8681166101000261ffff1990921690881617179055600b805462ff0000191662010000179055600a546115a99061160890426122a0565b6018546001600160a01b03821660009081526019602052604090205410156117cc576001600160a01b03811660009081526019602052604081205460185461173691906122f9565b6018546001600160a01b03841660009081526019602052604090205590506117788261176181611884565b61176b90846122da565b611773611bbb565b6117cf565b816001600160a01b03167fe983a49d27e04c64952da756088988cab0349d02969d01e8fecd907888b2e1206117ac84611884565b6117b690846122da565b6117be611bbb565b604051610e7a929190612259565b50565b8115610677576001600160a01b0383166000908152601a6020908152604080832084845290915290205461182c576001600160a01b0383166000908152601a60209081526040822060019081018054918201815583529120018190555b6001600160a01b0383166000908152601a60209081526040808320848452909152812080548492906113be9084906122a0565b6118676112d3565b15156001141561067757610677838383611cb7565b610cf0611e1e565b60008060029054906101000a90046001600160a01b03166001600160a01b031663da3dce266040518163ffffffff1660e01b815260040160206040518083038186803b1580156118d357600080fd5b505afa1580156118e7573d6000803e3d6000fd5b505050506040513d601f19601f8201168201806040525081019061190b9190611edb565b6001600160a01b03166370a08231836040518263ffffffff1660e01b815260040161193691906120e9565b60206040518083038186803b15801561194e57600080fd5b505afa158015611962573d6000803e3d6000fd5b505050506040513d601f19601f82011682018060405250810190610cfd9190611f9f565b6000600c55600d805461ffff19169055600b805462ff000019169055565b600e54601355601054601555601154601655600f546014556012546017556119ca611e1e565b7fbe8847d52fb3c03e3414e96d164a23594063f5b6cf01428e61c38bfbbc34ef19601354601554601654601454601754604051611a0b95949392919061227d565b60405180910390a1565b600054610100900460ff1680611a2e575060005460ff16155b611a4a5760405162461bcd60e51b81526004016103479061215f565b600054610100900460ff16158015611a6c576000805461ffff19166101011790555b6000805462010000600160b01b031916620100006001600160a01b038516021790558015611aa0576000805461ff00191690555b5050565b6000611aae6112d3565b15611ae45760405162461bcd60e51b8152600401610347906020808252600490820152631150cc8d60e21b604082015260600190565b611aed33611e39565b1515600114611b0e5760405162461bcd60e51b815260040161034790612141565b600380546001600160a01b031916331790556004839055606460ff8316611b33611bbb565b611b3d91906122da565b611b4791906122b8565b600555600880546002819055906000611b5f83612310565b90915550506003546002546004546005546040516001600160a01b03909416937f472501d19bf75639b2e316cd36f8568b0c3ab943b82a87de3c086c98c1929df993611bae9390929091612267565b60405180910390a2505050565b60008060029054906101000a90046001600160a01b03166001600160a01b031663da3dce266040518163ffffffff1660e01b815260040160206040518083038186803b158015611c0a57600080fd5b505afa158015611c1e573d6000803e3d6000fd5b505050506040513d601f19601f82011682018060405250810190611c429190611edb565b6001600160a01b03166318160ddd6040518163ffffffff1660e01b815260040160206040518083038186803b158015611c7a57600080fd5b505afa158015611c8e573d6000803e3d6000fd5b505050506040513d601f19601f82011682018060405250810190611cb29190611f9f565b905090565b6001600160a01b03831615801590611cf3575060025460009081526009602090815260408083206001600160a01b038716845290915290205415155b156106775760025460009081526009602090815260408083206001600160a01b03871684529091529020548190811115611d4f575060025460009081526009602090815260408083206001600160a01b03871684529091529020545b60025460009081526009602090815260408083206001600160a01b038816845290915281208054839290611d849084906122f9565b90915550506001600160a01b03831615611dd35760025460009081526009602090815260408083206001600160a01b038716845290915281208054839290611dcd9084906122a0565b90915550505b600254604080516001600160a01b038088168252861660208201529081018390527f65fbd5e5dd32bea4aeca85bd0be0abf0e489d655dee888a7510d43b06dda2dba90606001610fa1565b6000600e819055600f81905560108190556011819055601255565b6001546000906001600160a01b0383811691161415611e5a57506001919050565b6000611e6583611884565b90506064611e71611bbb565b600b54611e869190610100900460ff166122da565b611e9091906122b8565b8110611e9f5750600192915050565b50600092915050565b919050565b803560ff81168114611ea857600080fd5b600060208284031215611ed057600080fd5b81356113858161236d565b600060208284031215611eed57600080fd5b81516113858161236d565b600080600060608486031215611f0d57600080fd5b8335611f188161236d565b92506020840135611f288161236d565b929592945050506040919091013590565b60008060408385031215611f4c57600080fd5b8235611f578161236d565b946020939093013593505050565b600060208284031215611f7757600080fd5b813561138581612382565b600060208284031215611f9457600080fd5b815161138581612382565b600060208284031215611fb157600080fd5b5051919050565b600060208284031215611fca57600080fd5b81356004811061138557600080fd5b600060208284031215611feb57600080fd5b5035919050565b600080600080600060a0868803121561200a57600080fd5b505083359560208501359550604085013594606081013594506080013592509050565b60008060008060008060008060006101208a8c03121561204c57600080fd5b8935985060208a0135975060408a0135965060608a0135955060808a0135945060a08a013561207a8161236d565b935060c08a0135925061208f60e08b01611ead565b915061209e6101008b01611ead565b90509295985092959850929598565b6000806000606084860312156120c257600080fd5b833592506120d260208501611ead565b91506120e060408501611ead565b90509250925092565b6001600160a01b0391909116815260200190565b6020808252825182820181905260009190848201906040850190845b8181101561213557835183529284019291840191600101612119565b50909695505050505050565b60208082526004908201526322a1991960e11b604082015260600190565b6020808252602e908201527f496e697469616c697a61626c653a20636f6e747261637420697320616c72656160408201526d191e481a5b9a5d1a585b1a5e995960921b606082015260800190565b6020808252600490820152634543323560e01b604082015260600190565b6020808252600490820152634543323160e01b604082015260600190565b60208082526003908201526208a86760eb1b604082015260600190565b60006040820184835260206040818501528185548084526060860191508660005282600020935060005b8181101561224c57845483526001948501949284019201612230565b5090979650505050505050565b918252602082015260400190565b9283526020830191909152604082015260600190565b948552602085019390935260408401919091526060830152608082015260a00190565b600082198211156122b3576122b361232b565b500190565b6000826122d557634e487b7160e01b600052601260045260246000fd5b500490565b60008160001904831182151516156122f4576122f461232b565b500290565b60008282101561230b5761230b61232b565b500390565b60006000198214156123245761232461232b565b5060010190565b634e487b7160e01b600052601160045260246000fd5b634e487b7160e01b600052602160045260246000fd5b634e487b7160e01b600052603260045260246000fd5b6001600160a01b03811681146117cc57600080fd5b80151581146117cc57600080fdfea26469706673582212208466c3e152f3a08e4efa17950ac944348da6439cf1504f87f72488c65495534564736f6c63430008070033",
  "immutableReferences": {},
  "source": "// SPDX-License-Identifier: GPL-3.0\r\n\r\npragma solidity >=0.8.0 <0.9.0;\r\n\r\n/**\r\n * @title Storage\r\n * @dev Store & retrieve value in a variable\r\n */\r\n\r\nimport \"../Interfaces/ITreasury.sol\";\r\nimport \"../Libraries/UintLibrary.sol\";\r\nimport \"../Libraries/Library.sol\";\r\nimport \"../Base/TokenGovernanceBaseContract.sol\";\r\nimport \"@openzeppelin/contracts-upgradeable/token/ERC20/IERC20Upgradeable.sol\";\r\n\r\n\r\ncontract Treasury is ITreasury, TokenGovernanceBaseContract{\r\n    using Library for *;\r\n    using UintLibrary for *;\r\n\r\n    // EVENTS /////////////////////////////////////////\r\n    event _NewPrices(uint, uint, uint, uint, uint);\r\n    event _Pay(address indexed, uint, uint);\r\n    event _Refund(address indexed, uint, uint);\r\n    event _AssignDividend(address indexed, uint, uint);\r\n    event _Withdraw(address indexed, uint);\r\n\r\n    // DATA /////////////////////////////////////////\r\n    // proposition to change prices\r\n    struct ProposedPricesStruct{\r\n        uint NewPublicPriceWei;\r\n        uint NewCertificatePriceWei;\r\n        uint NewPrivatePriceWei;\r\n        uint NewProviderPriceWei;\r\n        uint NewOwnerRefundPriceWei;\r\n    }\r\n\r\n    ProposedPricesStruct private _ProposedPrices;\r\n\r\n    // parameters\r\n    uint private _PublicPriceWei;\r\n    uint private _CertificatePriceWei;\r\n    uint private _PrivatePriceWei;\r\n    uint private _ProviderPriceWei;\r\n    uint private _OwnerRefundPriceWei;\r\n\r\n    // last amount at which dividends where assigned for each token owner\r\n    uint private _AggregatedDividendAmount;\r\n    mapping(address => uint) _lastAssigned;\r\n\r\n    // dividends per token owner\r\n    struct _BalanceStruct{\r\n        mapping(uint => uint) _balance;\r\n        uint[] _factors;\r\n    }\r\n    \r\n    mapping(address => _BalanceStruct) private _balances;\r\n\r\n    // MODIFIERS /////////////////////////////////////////\r\n    modifier areFundsEnough(Library.Prices price){\r\n        uint256 minPrice = 2**256 - 1;\r\n\r\n        if(Library.Prices.NewProvider == price) minPrice = _PublicPriceWei;\r\n        else if(Library.Prices.NewPool == price) minPrice = _PrivatePriceWei;\r\n        else if(Library.Prices.NewCertificate == price) minPrice = _CertificatePriceWei;\r\n        else minPrice = _ProviderPriceWei;\r\n\r\n        require(msg.value >= minPrice, \"EC2\");\r\n        _;\r\n    }\r\n\r\n    modifier isBalanceEnough(uint amount){\r\n        require(checkBalance(msg.sender) >= amount, \"EC20\");\r\n        _;\r\n    }\r\n\r\n    modifier isFromPublicPool(){\r\n        require(true == Library.ItIsSomeone(_managerContract.retrievePublicCertificatePoolProxy()), \"EC8\");\r\n        _;\r\n    }\r\n\r\n    modifier isPriceOK(uint256 PublicPriceWei, uint256 OwnerRefundPriceWei){\r\n        require(PublicPriceWei >= OwnerRefundPriceWei, \"EC21\");\r\n        _;\r\n    }\r\n    \r\n    // CONSTRUCTOR /////////////////////////////////////////\r\n    function Treasury_init(uint256 PublicPriceWei, uint256 PrivatePriceWei, uint256 ProviderPriceWei, uint256 CertificatePriceWei, uint256 OwnerRefundPriceWei, address managerContractAddress, uint256 PropositionLifeTime, uint8 PropositionThresholdPercentage, uint8 minWeightToProposePercentage) public initializer \r\n    {\r\n        super.TokenGovernanceContract_init(PropositionLifeTime, PropositionThresholdPercentage, minWeightToProposePercentage, msg.sender, managerContractAddress);\r\n        InternalupdatePrices(PublicPriceWei, PrivatePriceWei, ProviderPriceWei, CertificatePriceWei, OwnerRefundPriceWei, true);\r\n    }\r\n\r\n    // GOVERNANCE /////////////////////////////////////////\r\n    function updatePrices(uint256 PublicPriceWei, uint256 PrivatePriceWei, uint256 ProviderPriceWei, uint256 CertificatePriceWei, uint256 OwnerRefundPriceWei) external override\r\n    {\r\n        InternalupdatePrices(PublicPriceWei, PrivatePriceWei, ProviderPriceWei, CertificatePriceWei, OwnerRefundPriceWei, false);\r\n    }\r\n\r\n    function InternalupdatePrices(uint256 PublicPriceWei, uint256 PrivatePriceWei, uint256 ProviderPriceWei, uint256 CertificatePriceWei, uint256 OwnerRefundPriceWei, bool fromConstructor) internal\r\n        isPriceOK(PublicPriceWei, OwnerRefundPriceWei)\r\n    {\r\n        if(fromConstructor){\r\n            _PublicPriceWei = PublicPriceWei;\r\n            _PrivatePriceWei = PrivatePriceWei;\r\n            _ProviderPriceWei = ProviderPriceWei;\r\n            _CertificatePriceWei = CertificatePriceWei;\r\n            _OwnerRefundPriceWei = OwnerRefundPriceWei;\r\n        }\r\n        else{\r\n            addProposition(block.timestamp + _PropositionLifeTime, _PropositionThresholdPercentage);\r\n            _ProposedPrices.NewPublicPriceWei = PublicPriceWei;\r\n            _ProposedPrices.NewCertificatePriceWei = CertificatePriceWei;\r\n            _ProposedPrices.NewPrivatePriceWei = PrivatePriceWei;\r\n            _ProposedPrices.NewProviderPriceWei = ProviderPriceWei;\r\n            _ProposedPrices.NewOwnerRefundPriceWei = OwnerRefundPriceWei;\r\n        }\r\n        \r\n    }\r\n\r\n    function propositionApproved() internal override\r\n    {\r\n        _PublicPriceWei = _ProposedPrices.NewPublicPriceWei;\r\n        _PrivatePriceWei = _ProposedPrices.NewPrivatePriceWei;\r\n        _ProviderPriceWei = _ProposedPrices.NewProviderPriceWei;\r\n        _CertificatePriceWei = _ProposedPrices.NewCertificatePriceWei;\r\n        _OwnerRefundPriceWei = _ProposedPrices.NewOwnerRefundPriceWei;\r\n        \r\n        removeProposition();\r\n\r\n        emit _NewPrices(_PublicPriceWei, _PrivatePriceWei, _ProviderPriceWei, _CertificatePriceWei, _OwnerRefundPriceWei);\r\n    }\r\n\r\n    function propositionRejected() internal override\r\n    {\r\n        removeProposition();\r\n    }\r\n\r\n    function propositionExpired() internal override\r\n    {\r\n        removeProposition();\r\n    }\r\n\r\n    function removeProposition() internal\r\n    {\r\n         delete(_ProposedPrices);\r\n    }\r\n\r\n    function retrieveProposition() external override view returns(bytes32[] memory)\r\n    {\r\n        bytes32[] memory proposition = new bytes32[](5);\r\n        proposition[0] = UintLibrary.UintToBytes32(_ProposedPrices.NewPublicPriceWei);\r\n        proposition[1] = UintLibrary.UintToBytes32(_ProposedPrices.NewPrivatePriceWei);\r\n        proposition[2] = UintLibrary.UintToBytes32(_ProposedPrices.NewProviderPriceWei);\r\n        proposition[3] = UintLibrary.UintToBytes32(_ProposedPrices.NewCertificatePriceWei);\r\n        proposition[4] = UintLibrary.UintToBytes32(_ProposedPrices.NewOwnerRefundPriceWei);\r\n        return proposition;\r\n    }\r\n\r\n    // FUNCTIONALITY /////////////////////////////////////////\r\n    function pay(Library.Prices price) external \r\n        areFundsEnough(price)\r\n    override payable\r\n    {\r\n        uint256 amount = msg.value;\r\n        if(price == Library.Prices.NewProvider) amount -= _OwnerRefundPriceWei;\r\n        _AggregatedDividendAmount += amount;\r\n\r\n        emit _Pay(msg.sender, msg.value, _AggregatedDividendAmount);\r\n    }\r\n\r\n    function InternalonTokenBalanceChanged(address from, address to, uint256 amount) internal override\r\n    {\r\n        super.InternalonTokenBalanceChanged(from, to, amount);\r\n        if(address(0) != from) InternalAssignDividends(from);\r\n        if(address(0) != to) InternalAssignDividends(to);\r\n    }\r\n\r\n    function AssignDividends() external override\r\n    {\r\n       InternalAssignDividends(msg.sender);\r\n    }\r\n\r\n    function InternalAssignDividends(address recipient) internal\r\n    {\r\n        if(_lastAssigned[recipient] < _AggregatedDividendAmount){\r\n           uint amountToSplit = _AggregatedDividendAmount - _lastAssigned[recipient];\r\n           _lastAssigned[recipient] = _AggregatedDividendAmount;\r\n           addBalance(recipient, amountToSplit * GetTokensBalance(recipient), totalSupply());\r\n           \r\n           emit _AssignDividend(recipient, amountToSplit * GetTokensBalance(recipient), totalSupply());\r\n        }\r\n    }\r\n\r\n    function getRefund(address addr, uint numberOfOwners) external \r\n        isFromPublicPool()\r\n    override\r\n    {\r\n        addBalance(addr, _OwnerRefundPriceWei, numberOfOwners);\r\n\r\n        emit _Refund(addr, _OwnerRefundPriceWei, numberOfOwners);\r\n    }\r\n\r\n    function withdraw(uint amount) external \r\n        isBalanceEnough(amount)\r\n    override\r\n    {\r\n        uint[] memory f = returnFactors(msg.sender);\r\n        uint total = 0;\r\n        uint i = 0;\r\n\r\n        while ((total < amount) && (i < f.length)){\r\n            uint amountForFactor = returnBalanceForFactor(msg.sender, f[i]) / f[i];\r\n            if(amountForFactor > (amount - total)) amountForFactor = amount - total;\r\n            total += amountForFactor;\r\n            substractBalance(msg.sender, amountForFactor * f[i], f[i]);\r\n            i++;\r\n        }\r\n\r\n        require(total == amount, \"UnExpected problem calculating the amount to withdraw\");\r\n\r\n        payable(msg.sender).transfer(total);\r\n\r\n        emit _Withdraw(msg.sender, total);\r\n    }\r\n\r\n    function retrieveBalance(address addr) external override view returns(uint)\r\n    {\r\n        return checkBalance(addr);\r\n    }\r\n\r\n    function retrievePrices() external override view returns(uint, uint, uint, uint, uint)\r\n    {\r\n        return(_PublicPriceWei, _PrivatePriceWei, _ProviderPriceWei, _CertificatePriceWei, _OwnerRefundPriceWei);\r\n    }\r\n\r\n    function retrieveAggregatedAmount() external override view returns(uint){\r\n        return _AggregatedDividendAmount;\r\n    }\r\n\r\n    function checkBalance(address addr) internal view returns(uint){\r\n        uint[] memory f = returnFactors(addr);\r\n        uint total = 0;\r\n\r\n        for(uint i=0; i < f.length; i++){\r\n            total += returnBalanceForFactor(addr, f[i]) / f[i];\r\n        }\r\n\r\n        return total;\r\n    }\r\n\r\n    function returnFactors(address addr) internal view returns(uint[] memory){\r\n        return _balances[addr]._factors;\r\n    }\r\n\r\n    function returnBalanceForFactor(address addr, uint factor) internal view returns(uint){\r\n        return _balances[addr]._balance[factor];\r\n    }\r\n\r\n    function addBalance(address addr, uint amount, uint factor) private\r\n    {\r\n        if(amount > 0){\r\n             if(0 == _balances[addr]._balance[factor]){\r\n                _balances[addr]._factors.push(factor);\r\n            }\r\n            _balances[addr]._balance[factor] += amount;\r\n        }\r\n    }\r\n\r\n    function substractBalance(address addr, uint amount, uint factor) private\r\n    {\r\n        require(_balances[addr]._balance[factor] >= amount, \"Not enough balance for this factor\");\r\n\r\n        _balances[addr]._balance[factor] -= amount;\r\n\r\n        if(0 == _balances[addr]._balance[factor]){\r\n            //_balances[addr]._factors = UintLibrary.UintArrayRemoveResize(UintLibrary.FindUintPosition(factor, _balances[addr]._factors), _balances[addr]._factors);\r\n            UintLibrary.UintArrayRemoveResize(UintLibrary.FindUintPosition(factor, _balances[addr]._factors), _balances[addr]._factors);\r\n        }\r\n        \r\n    }\r\n\r\n}",
  "sourcePath": "C:/Users/d-aam/GitHub/Certificates/contracts/DeployedContracts/Treasury.sol",
  "compiler": {
    "name": "solc",
    "version": "0.8.7+commit.e28d00a7.Emscripten.clang"
  },
  "schemaVersion": "3.3.4",
  "updatedAt": "2021-08-17T09:26:52.135Z",
  "devdoc": {
    "kind": "dev",
    "methods": {},
    "version": 1
  },
  "userdoc": {
    "kind": "user",
    "methods": {},
    "version": 1
  }
}