{
  "contractName": "Treasury",
  "abi": [
    {
      "anonymous": false,
      "inputs": [
        {
          "indexed": false,
          "internalType": "uint256",
          "name": "Id",
          "type": "uint256"
        },
        {
          "indexed": true,
          "internalType": "address",
          "name": "Proposer",
          "type": "address"
        },
        {
          "indexed": false,
          "internalType": "uint256",
          "name": "Deadline",
          "type": "uint256"
        },
        {
          "indexed": false,
          "internalType": "uint256",
          "name": "Threshold",
          "type": "uint256"
        }
      ],
      "name": "_AddedProposition",
      "type": "event"
    },
    {
      "anonymous": false,
      "inputs": [
        {
          "indexed": true,
          "internalType": "address",
          "name": "Recipient",
          "type": "address"
        },
        {
          "indexed": false,
          "internalType": "uint256",
          "name": "Amount",
          "type": "uint256"
        },
        {
          "indexed": false,
          "internalType": "uint256",
          "name": "TotalSupply",
          "type": "uint256"
        }
      ],
      "name": "_AssignDividend",
      "type": "event"
    },
    {
      "anonymous": false,
      "inputs": [
        {
          "indexed": false,
          "internalType": "uint256",
          "name": "Id",
          "type": "uint256"
        },
        {
          "indexed": true,
          "internalType": "address",
          "name": "Proposer",
          "type": "address"
        }
      ],
      "name": "_CancelledProposition",
      "type": "event"
    },
    {
      "anonymous": false,
      "inputs": [
        {
          "indexed": false,
          "internalType": "uint256",
          "name": "Public",
          "type": "uint256"
        },
        {
          "indexed": false,
          "internalType": "uint256",
          "name": "Private",
          "type": "uint256"
        },
        {
          "indexed": false,
          "internalType": "uint256",
          "name": "Provider",
          "type": "uint256"
        },
        {
          "indexed": false,
          "internalType": "uint256",
          "name": "Certificate",
          "type": "uint256"
        },
        {
          "indexed": false,
          "internalType": "uint256",
          "name": "OwnerRefund",
          "type": "uint256"
        }
      ],
      "name": "_NewPrices",
      "type": "event"
    },
    {
      "anonymous": false,
      "inputs": [
        {
          "indexed": true,
          "internalType": "address",
          "name": "Payer",
          "type": "address"
        },
        {
          "indexed": false,
          "internalType": "uint256",
          "name": "Amount",
          "type": "uint256"
        },
        {
          "indexed": false,
          "internalType": "uint256",
          "name": "AggregatedAmount",
          "type": "uint256"
        }
      ],
      "name": "_Pay",
      "type": "event"
    },
    {
      "anonymous": false,
      "inputs": [
        {
          "indexed": false,
          "internalType": "uint256",
          "name": "Id",
          "type": "uint256"
        },
        {
          "indexed": true,
          "internalType": "address",
          "name": "Proposer",
          "type": "address"
        },
        {
          "indexed": false,
          "internalType": "uint256",
          "name": "VotesFor",
          "type": "uint256"
        },
        {
          "indexed": false,
          "internalType": "uint256",
          "name": "VotesAgainst",
          "type": "uint256"
        }
      ],
      "name": "_PropositionApproved",
      "type": "event"
    },
    {
      "anonymous": false,
      "inputs": [
        {
          "indexed": false,
          "internalType": "uint256",
          "name": "Id",
          "type": "uint256"
        },
        {
          "indexed": true,
          "internalType": "address",
          "name": "Proposer",
          "type": "address"
        },
        {
          "indexed": false,
          "internalType": "uint256",
          "name": "VotesFor",
          "type": "uint256"
        },
        {
          "indexed": false,
          "internalType": "uint256",
          "name": "VotesAgainst",
          "type": "uint256"
        }
      ],
      "name": "_PropositionRejected",
      "type": "event"
    },
    {
      "anonymous": false,
      "inputs": [
        {
          "indexed": false,
          "internalType": "uint256",
          "name": "Id",
          "type": "uint256"
        },
        {
          "indexed": true,
          "internalType": "address",
          "name": "Voter",
          "type": "address"
        },
        {
          "indexed": false,
          "internalType": "bool",
          "name": "Vote",
          "type": "bool"
        },
        {
          "indexed": false,
          "internalType": "uint256",
          "name": "AmountTokens",
          "type": "uint256"
        }
      ],
      "name": "_PropositionVote",
      "type": "event"
    },
    {
      "anonymous": false,
      "inputs": [
        {
          "indexed": true,
          "internalType": "address",
          "name": "Owner",
          "type": "address"
        },
        {
          "indexed": false,
          "internalType": "uint256",
          "name": "Amount",
          "type": "uint256"
        },
        {
          "indexed": false,
          "internalType": "uint256",
          "name": "TotalOwners",
          "type": "uint256"
        }
      ],
      "name": "_Refund",
      "type": "event"
    },
    {
      "anonymous": false,
      "inputs": [
        {
          "indexed": true,
          "internalType": "uint256",
          "name": "Id",
          "type": "uint256"
        },
        {
          "indexed": false,
          "internalType": "address",
          "name": "From",
          "type": "address"
        },
        {
          "indexed": false,
          "internalType": "address",
          "name": "To",
          "type": "address"
        },
        {
          "indexed": false,
          "internalType": "uint256",
          "name": "Amount",
          "type": "uint256"
        }
      ],
      "name": "_UsedTokensTransfered",
      "type": "event"
    },
    {
      "anonymous": false,
      "inputs": [
        {
          "indexed": true,
          "internalType": "address",
          "name": "Recipient",
          "type": "address"
        },
        {
          "indexed": false,
          "internalType": "uint256",
          "name": "Amount",
          "type": "uint256"
        }
      ],
      "name": "_Withdraw",
      "type": "event"
    },
    {
      "inputs": [],
      "name": "cancelProposition",
      "outputs": [],
      "stateMutability": "nonpayable",
      "type": "function"
    },
    {
      "inputs": [],
      "name": "isCurrentPropositionProp",
      "outputs": [
        {
          "internalType": "bool",
          "name": "",
          "type": "bool"
        }
      ],
      "stateMutability": "view",
      "type": "function"
    },
    {
      "inputs": [
        {
          "internalType": "address",
          "name": "from",
          "type": "address"
        },
        {
          "internalType": "address",
          "name": "to",
          "type": "address"
        },
        {
          "internalType": "uint256",
          "name": "amount",
          "type": "uint256"
        }
      ],
      "name": "onTokenBalanceChanged",
      "outputs": [],
      "stateMutability": "nonpayable",
      "type": "function"
    },
    {
      "inputs": [],
      "name": "retrieveChairPerson",
      "outputs": [
        {
          "internalType": "address",
          "name": "",
          "type": "address"
        }
      ],
      "stateMutability": "view",
      "type": "function"
    },
    {
      "inputs": [],
      "name": "retrieveContractConfig",
      "outputs": [
        {
          "internalType": "string",
          "name": "",
          "type": "string"
        },
        {
          "internalType": "string",
          "name": "",
          "type": "string"
        }
      ],
      "stateMutability": "view",
      "type": "function"
    },
    {
      "inputs": [],
      "name": "retrieveManagerContract",
      "outputs": [
        {
          "internalType": "address",
          "name": "",
          "type": "address"
        }
      ],
      "stateMutability": "view",
      "type": "function"
    },
    {
      "inputs": [],
      "name": "retrieveNextPropId",
      "outputs": [
        {
          "internalType": "uint256",
          "name": "",
          "type": "uint256"
        }
      ],
      "stateMutability": "view",
      "type": "function"
    },
    {
      "inputs": [
        {
          "internalType": "address",
          "name": "addr",
          "type": "address"
        },
        {
          "internalType": "uint256",
          "name": "nonce",
          "type": "uint256"
        }
      ],
      "name": "retrieveNonce",
      "outputs": [
        {
          "internalType": "bool",
          "name": "",
          "type": "bool"
        }
      ],
      "stateMutability": "view",
      "type": "function"
    },
    {
      "inputs": [],
      "name": "retrievePendingPropConfig",
      "outputs": [
        {
          "internalType": "uint256",
          "name": "",
          "type": "uint256"
        },
        {
          "internalType": "uint8",
          "name": "",
          "type": "uint8"
        },
        {
          "internalType": "uint8",
          "name": "",
          "type": "uint8"
        },
        {
          "internalType": "bool",
          "name": "",
          "type": "bool"
        }
      ],
      "stateMutability": "view",
      "type": "function"
    },
    {
      "inputs": [],
      "name": "retrievePropConfig",
      "outputs": [
        {
          "internalType": "uint256",
          "name": "",
          "type": "uint256"
        },
        {
          "internalType": "uint8",
          "name": "",
          "type": "uint8"
        },
        {
          "internalType": "uint8",
          "name": "",
          "type": "uint8"
        }
      ],
      "stateMutability": "view",
      "type": "function"
    },
    {
      "inputs": [],
      "name": "retrievePropositionStatus",
      "outputs": [
        {
          "internalType": "address",
          "name": "",
          "type": "address"
        },
        {
          "internalType": "uint256",
          "name": "",
          "type": "uint256"
        },
        {
          "internalType": "uint256",
          "name": "",
          "type": "uint256"
        },
        {
          "internalType": "uint256",
          "name": "",
          "type": "uint256"
        },
        {
          "internalType": "uint256",
          "name": "",
          "type": "uint256"
        }
      ],
      "stateMutability": "view",
      "type": "function"
    },
    {
      "inputs": [
        {
          "internalType": "uint256",
          "name": "PropId",
          "type": "uint256"
        },
        {
          "internalType": "address",
          "name": "voter",
          "type": "address"
        }
      ],
      "name": "retrieveVotesForVoter",
      "outputs": [
        {
          "internalType": "uint256",
          "name": "",
          "type": "uint256"
        }
      ],
      "stateMutability": "view",
      "type": "function"
    },
    {
      "inputs": [
        {
          "internalType": "uint256",
          "name": "PropLifeTime",
          "type": "uint256"
        },
        {
          "internalType": "uint8",
          "name": "PropThresholdPerc",
          "type": "uint8"
        },
        {
          "internalType": "uint8",
          "name": "minWeightToPropPerc",
          "type": "uint8"
        }
      ],
      "name": "updateProp",
      "outputs": [],
      "stateMutability": "nonpayable",
      "type": "function"
    },
    {
      "inputs": [
        {
          "internalType": "bool",
          "name": "vote",
          "type": "bool"
        }
      ],
      "name": "voteProposition",
      "outputs": [],
      "stateMutability": "nonpayable",
      "type": "function"
    },
    {
      "inputs": [
        {
          "internalType": "address",
          "name": "voter",
          "type": "address"
        },
        {
          "internalType": "uint256",
          "name": "propID",
          "type": "uint256"
        },
        {
          "internalType": "bool",
          "name": "vote",
          "type": "bool"
        },
        {
          "internalType": "uint256",
          "name": "nonce",
          "type": "uint256"
        },
        {
          "internalType": "uint256",
          "name": "deadline",
          "type": "uint256"
        },
        {
          "internalType": "bytes",
          "name": "signature",
          "type": "bytes"
        }
      ],
      "name": "votePropositionOnBehalfOf",
      "outputs": [],
      "stateMutability": "nonpayable",
      "type": "function"
    },
    {
      "inputs": [
        {
          "internalType": "uint256",
          "name": "PublicPriceUSD",
          "type": "uint256"
        },
        {
          "internalType": "uint256",
          "name": "PrivatePriceUSD",
          "type": "uint256"
        },
        {
          "internalType": "uint256",
          "name": "ProviderPriceUSD",
          "type": "uint256"
        },
        {
          "internalType": "uint256",
          "name": "CertificatePriceUSD",
          "type": "uint256"
        },
        {
          "internalType": "uint256",
          "name": "OwnerRefundFeeUSD",
          "type": "uint256"
        },
        {
          "internalType": "address",
          "name": "managerContractAddress",
          "type": "address"
        },
        {
          "internalType": "address",
          "name": "chairPerson",
          "type": "address"
        },
        {
          "internalType": "uint256",
          "name": "PropositionLifeTime",
          "type": "uint256"
        },
        {
          "internalType": "uint8",
          "name": "PropositionThresholdPercentage",
          "type": "uint8"
        },
        {
          "internalType": "uint8",
          "name": "minWeightToProposePercentage",
          "type": "uint8"
        },
        {
          "internalType": "string",
          "name": "contractName",
          "type": "string"
        },
        {
          "internalType": "string",
          "name": "contractVersion",
          "type": "string"
        }
      ],
      "name": "Treasury_init",
      "outputs": [],
      "stateMutability": "nonpayable",
      "type": "function"
    },
    {
      "inputs": [
        {
          "internalType": "uint256",
          "name": "PublicPriceUSD",
          "type": "uint256"
        },
        {
          "internalType": "uint256",
          "name": "PrivatePriceUSD",
          "type": "uint256"
        },
        {
          "internalType": "uint256",
          "name": "ProviderPriceUSD",
          "type": "uint256"
        },
        {
          "internalType": "uint256",
          "name": "CertificatePriceUSD",
          "type": "uint256"
        },
        {
          "internalType": "uint256",
          "name": "OwnerRefundFeeUSD",
          "type": "uint256"
        }
      ],
      "name": "updatePrices",
      "outputs": [],
      "stateMutability": "nonpayable",
      "type": "function"
    },
    {
      "inputs": [],
      "name": "retrieveProposition",
      "outputs": [
        {
          "internalType": "bytes32[]",
          "name": "",
          "type": "bytes32[]"
        }
      ],
      "stateMutability": "view",
      "type": "function"
    },
    {
      "inputs": [
        {
          "internalType": "enum Library.Prices",
          "name": "price",
          "type": "uint8"
        }
      ],
      "name": "pay",
      "outputs": [],
      "stateMutability": "payable",
      "type": "function"
    },
    {
      "inputs": [
        {
          "internalType": "address",
          "name": "addr",
          "type": "address"
        },
        {
          "internalType": "uint256",
          "name": "numberOfOwners",
          "type": "uint256"
        }
      ],
      "name": "getRefund",
      "outputs": [],
      "stateMutability": "nonpayable",
      "type": "function"
    },
    {
      "inputs": [
        {
          "internalType": "uint256",
          "name": "amount",
          "type": "uint256"
        }
      ],
      "name": "withdraw",
      "outputs": [],
      "stateMutability": "nonpayable",
      "type": "function"
    },
    {
      "inputs": [],
      "name": "withdrawAll",
      "outputs": [],
      "stateMutability": "nonpayable",
      "type": "function"
    },
    {
      "inputs": [
        {
          "internalType": "address",
          "name": "addr",
          "type": "address"
        }
      ],
      "name": "retrieveLastAssigned",
      "outputs": [
        {
          "internalType": "uint256",
          "name": "",
          "type": "uint256"
        }
      ],
      "stateMutability": "view",
      "type": "function"
    },
    {
      "inputs": [
        {
          "internalType": "address",
          "name": "addr",
          "type": "address"
        }
      ],
      "name": "retrieveFullBalance",
      "outputs": [
        {
          "internalType": "uint256",
          "name": "",
          "type": "uint256"
        }
      ],
      "stateMutability": "view",
      "type": "function"
    },
    {
      "inputs": [],
      "name": "retrievePrices",
      "outputs": [
        {
          "internalType": "uint256",
          "name": "",
          "type": "uint256"
        },
        {
          "internalType": "uint256",
          "name": "",
          "type": "uint256"
        },
        {
          "internalType": "uint256",
          "name": "",
          "type": "uint256"
        },
        {
          "internalType": "uint256",
          "name": "",
          "type": "uint256"
        },
        {
          "internalType": "uint256",
          "name": "",
          "type": "uint256"
        }
      ],
      "stateMutability": "view",
      "type": "function"
    },
    {
      "inputs": [],
      "name": "retrieveAggregatedAmount",
      "outputs": [
        {
          "internalType": "uint256",
          "name": "",
          "type": "uint256"
        }
      ],
      "stateMutability": "view",
      "type": "function"
    }
  ],
  "bytecode": "0x608060405234801561001057600080fd5b5061319a806100206000396000f3fe6080604052600436106101315760003560e01c806304cc67a9146101365780631bbba1df1461015a57806325b4f3ca1461017c5780632e1a7d4d146101a95780633c7df55d146101c95780633feca4ca146101e95780634044adb21461023f57806355457ee9146102825780635b362e84146102975780637faa3d6f146102c4578063840f6d17146102e4578063853828b61461033257806390d138ed1461034757806391f916711461038857806396df6e79146103a8578063a93316f5146103c8578063ac2bb442146103ea578063bc3be0961461040a578063d2116a0214610428578063d5920d491461044b578063d6184d1514610460578063d660ab3414610496578063db85bc4d146104cf578063e83988ff146104ed578063eb1e2a411461050d578063f0c9325e1461052d575b600080fd5b34801561014257600080fd5b50600b545b6040519081526020015b60405180910390f35b34801561016657600080fd5b5061017a610175366004612b83565b610540565b005b34801561018857600080fd5b50601654601854601954601754601a54604051610151959493929190612fd4565b3480156101b557600080fd5b5061017a6101c4366004612aff565b6105df565b3480156101d557600080fd5b5061017a6101e436600461298d565b6105eb565b3480156101f557600080fd5b5061022f6102043660046129ce565b6001600160a01b03919091166000908152600260209081526040808320938352929052205460ff1690565b6040519015158152602001610151565b34801561024b57600080fd5b5061014761025a366004612b18565b6000918252600c602090815260408084206001600160a01b0393909316845291905290205490565b34801561028e57600080fd5b5061017a6106eb565b3480156102a357600080fd5b506003546201000090046001600160a01b03165b6040516101519190612dca565b3480156102d057600080fd5b5061017a6102df3660046129fa565b6107bd565b3480156102f057600080fd5b50600654600754600854600954600a54604080516001600160a01b0390961686526020860194909452928401919091526060830152608082015260a001610151565b34801561033e57600080fd5b5061017a6107dd565b34801561035357600080fd5b5061035c6107f3565b604051610151949392919093845260ff9283166020850152911660408301521515606082015260800190565b34801561039457600080fd5b5061017a6103a3366004612a8b565b61084e565b3480156103b457600080fd5b5061017a6103c3366004612b48565b610858565b3480156103d457600080fd5b506103dd61086e565b6040516101519190612e6b565b3480156103f657600080fd5b5061017a610405366004612c6f565b610bd3565b34801561041657600080fd5b50600e5462010000900460ff1661022f565b34801561043457600080fd5b5061043d610be5565b604051610151929190612ec2565b34801561045757600080fd5b50601b54610147565b34801561046c57600080fd5b5061014761047b366004612953565b6001600160a01b03166000908152601c602052604090205490565b3480156104a257600080fd5b50600d54600e546040805192835260ff808316602085015261010090920490911690820152606001610151565b3480156104db57600080fd5b506004546001600160a01b03166102b7565b3480156104f957600080fd5b50610147610508366004612953565b610d0c565b34801561051957600080fd5b5061017a6105283660046129ce565b610d1d565b61017a61053b366004612ade565b610f69565b600354610100900460ff1680610559575060035460ff16155b61057e5760405162461bcd60e51b815260040161057590612f0f565b60405180910390fd5b600354610100900460ff161580156105a0576003805461ffff19166101011790555b6105af8686868a8c88886112a1565b6105be8d8d8d8d8d6001611354565b80156105d0576003805461ff00191690555b50505050505050505050505050565b6105e8816113bc565b50565b3373__Library_______________________________6337ea306382600360029054906101000a90046001600160a01b03166001600160a01b031663da3dce266040518163ffffffff1660e01b815260040160206040518083038186803b15801561065557600080fd5b505afa158015610669573d6000803e3d6000fd5b505050506040513d601f19601f8201168201806040525081019061068d9190612970565b6040518363ffffffff1660e01b81526004016106aa929190612dde565b60006040518083038186803b1580156106c257600080fd5b505af41580156106d6573d6000803e3d6000fd5b505050506106e584848461159e565b50505050565b60016106f6816115d9565b6006546040516337ea306360e01b8152339173__Library_______________________________916337ea30639161073c9185916001600160a01b031690600401612dde565b60006040518083038186803b15801561075457600080fd5b505af4158015610768573d6000803e3d6000fd5b5050505061077461165d565b6006546005546040519081526001600160a01b03909116907f1fe8aec10c0a50fa765076161e08c1f961ced69594ff45cf7d559f593afe14799060200160405180910390a25050565b6107cb868686868686611688565b6107d586856117e7565b505050505050565b60006107e8336118fe565b90506105e8816113bc565b600080600080600e60029054906101000a900460ff168015610816575060075442105b1561083b575050600f5460105490925060ff8082169250610100909104166001610848565b5060009250829150819050805b90919293565b6105e833826117e7565b61086785858585856000611354565b5050505050565b60408051600580825260c08201909252606091600091906020820160a0803683375050601154604051631635719760e31b8152600481019190915291925073__UintLibrary___________________________9163b1ab8cb8915060240160206040518083038186803b1580156108e457600080fd5b505af41580156108f8573d6000803e3d6000fd5b505050506040513d601f19601f8201168201806040525081019061091c9190612ac5565b8160008151811061092f5761092f613115565b6020908102919091010152601354604051631635719760e31b8152600481019190915273__UintLibrary___________________________9063b1ab8cb89060240160206040518083038186803b15801561098957600080fd5b505af415801561099d573d6000803e3d6000fd5b505050506040513d601f19601f820116820180604052508101906109c19190612ac5565b816001815181106109d4576109d4613115565b6020908102919091010152601454604051631635719760e31b8152600481019190915273__UintLibrary___________________________9063b1ab8cb89060240160206040518083038186803b158015610a2e57600080fd5b505af4158015610a42573d6000803e3d6000fd5b505050506040513d601f19601f82011682018060405250810190610a669190612ac5565b81600281518110610a7957610a79613115565b6020908102919091010152601254604051631635719760e31b8152600481019190915273__UintLibrary___________________________9063b1ab8cb89060240160206040518083038186803b158015610ad357600080fd5b505af4158015610ae7573d6000803e3d6000fd5b505050506040513d601f19601f82011682018060405250810190610b0b9190612ac5565b81600381518110610b1e57610b1e613115565b6020908102919091010152601554604051631635719760e31b8152600481019190915273__UintLibrary___________________________9063b1ab8cb89060240160206040518083038186803b158015610b7857600080fd5b505af4158015610b8c573d6000803e3d6000fd5b505050506040513d601f19601f82011682018060405250810190610bb09190612ac5565b81600481518110610bc357610bc3613115565b6020908102919091010152919050565b610be08383836000611923565b505050565b60608060006001818054610bf890613093565b80601f0160208091040260200160405190810160405280929190818152602001828054610c2490613093565b8015610c715780601f10610c4657610100808354040283529160200191610c71565b820191906000526020600020905b815481529060010190602001808311610c5457829003601f168201915b50505050509150808054610c8490613093565b80601f0160208091040260200160405190810160405280929190818152602001828054610cb090613093565b8015610cfd5780601f10610cd257610100808354040283529160200191610cfd565b820191906000526020600020905b815481529060010190602001808311610ce057829003601f168201915b50505050509050915091509091565b6000610d17826118fe565b92915050565b3373__Library_______________________________6337ea306382600360029054906101000a90046001600160a01b03166001600160a01b031663aa33380a6040518163ffffffff1660e01b815260040160206040518083038186803b158015610d8757600080fd5b505afa158015610d9b573d6000803e3d6000fd5b505050506040513d601f19601f82011682018060405250810190610dbf9190612970565b6040518363ffffffff1660e01b8152600401610ddc929190612dde565b60006040518083038186803b158015610df457600080fd5b505af4158015610e08573d6000803e3d6000fd5b505050506000600360029054906101000a90046001600160a01b03166001600160a01b031663602554156040518163ffffffff1660e01b815260040160206040518083038186803b158015610e5c57600080fd5b505afa158015610e70573d6000803e3d6000fd5b505050506040513d601f19601f82011682018060405250810190610e949190612970565b6001600160a01b0316638d12420b601a546040518263ffffffff1660e01b8152600401610ec391815260200190565b60206040518083038186803b158015610edb57600080fd5b505afa158015610eef573d6000803e3d6000fd5b505050506040513d601f19601f82011682018060405250810190610f139190612ac5565b9050610f208482856119d1565b836001600160a01b03167f885157c8ed39c012c67730d5e5d229068f71cac97d1658f5bf6593c8246dcc3c8285604051610f5b929190612fb0565b60405180910390a250505050565b3481600019816003811115610f8057610f806130ff565b610f8d5750601654610fd8565b816003811115610f9f57610f9f6130ff565b60011415610fb05750601854610fd8565b816003811115610fc257610fc26130ff565b60021415610fd35750601754610fd8565b506019545b6000600360029054906101000a90046001600160a01b03166001600160a01b031663602554156040518163ffffffff1660e01b815260040160206040518083038186803b15801561102857600080fd5b505afa15801561103c573d6000803e3d6000fd5b505050506040513d601f19601f820116820180604052508101906110609190612970565b6001600160a01b0316638d12420b836040518263ffffffff1660e01b815260040161108d91815260200190565b60206040518083038186803b1580156110a557600080fd5b505afa1580156110b9573d6000803e3d6000fd5b505050506040513d601f19601f820116820180604052508101906110dd9190612ac5565b9050808410156111185760405162461bcd60e51b8152600401610575906020808252600490820152634543322d60e01b604082015260600190565b34600086600381111561112d5761112d6130ff565b141561124557600360029054906101000a90046001600160a01b03166001600160a01b031663602554156040518163ffffffff1660e01b815260040160206040518083038186803b15801561118157600080fd5b505afa158015611195573d6000803e3d6000fd5b505050506040513d601f19601f820116820180604052508101906111b99190612970565b6001600160a01b0316638d12420b601a546040518263ffffffff1660e01b81526004016111e891815260200190565b60206040518083038186803b15801561120057600080fd5b505afa158015611214573d6000803e3d6000fd5b505050506040513d601f19601f820116820180604052508101906112389190612ac5565b6112429082613050565b90505b80601b60008282546112579190612ff7565b9091555050601b5460405133917faef711f818f5d24f55a9c2d7da0afa5edd0420e1505ff8e60c344ce836e3e86e91611291913491612fb0565b60405180910390a2505050505050565b600354610100900460ff16806112ba575060035460ff16155b6112d65760405162461bcd60e51b815260040161057590612f0f565b600354610100900460ff161580156112f8576003805461ffff19166101011790555b61130184611a6b565b600480546001600160a01b0319166001600160a01b0387161790556000600b5561132b8383611afa565b6113388888886001611923565b801561134a576003805461ff00191690555b5050505050505050565b8582808210156113765760405162461bcd60e51b815260040161057590612ef0565b821561139a576016889055601887905560198690556017859055601a84905561134a565b6113a2611b21565b505050601194909455601255601391909155601455601555565b8033816113c8826118fe565b10156113fe5760405162461bcd60e51b8152602060048201526005602482015264454332302d60d81b6044820152606401610575565b61140733611c85565b600061141233611cfe565b905060008061142033611d6d565b909250905060006114318288613031565b61143b9084613050565b905060005b84518110156114c4576114b2336114933388858151811061146357611463613115565b60200260200101516001600160a01b03919091166000908152601d60209081526040808320938352929052205490565b8784815181106114a5576114a5613115565b6020026020010151611e83565b806114bc816130ce565b915050611440565b506114d03382846119d1565b604051600090819033908a908381818185875af1925050503d8060008114611514576040519150601f19603f3d011682016040523d82523d6000602084013e611519565b606091505b509150915081816040516020016115309190612d77565b6040516020818303038152906040529061155d5760405162461bcd60e51b81526004016105759190612eaf565b5060405189815233907f732ea8a38f70c2018ed8dfd6e97bf6381f60102061beae0ac4d9a5abd15a06029060200160405180910390a2505050505050505050565b6115a9838383612079565b6001600160a01b038316156115c1576115c183611c85565b6001600160a01b03821615610be057610be082611c85565b8015611620576115e7612096565b15156001146105e85760405162461bcd60e51b8152602060048201526005602482015264454332352d60d81b6044820152606401610575565b611628612096565b156105e85760405162461bcd60e51b8152602060048201526005602482015264454332342d60d81b6044820152606401610575565b60006005819055600680546001600160a01b0319169055600781905560088190556009819055600a55565b81611692816120d0565b868461169e8282612107565b60055488146116d75760405162461bcd60e51b8152602060048201526005602482015264454333352d60d81b6044820152606401610575565b60405163432f9a5560e01b815273__SignatureLibrary______________________9063432f9a559061171e908c908c908c908c908c908c90600090600190600401612df8565b60206040518083038186803b15801561173657600080fd5b505af415801561174a573d6000803e3d6000fd5b505050506040513d601f19601f8201168201806040525081019061176e9190612aa8565b15156001146117a75760405162461bcd60e51b8152602060048201526005602482015264454333322d60d81b6044820152606401610575565b6117dc89876001600160a01b03909116600090815260026020908152604080832093835292905220805460ff19166001179055565b505050505050505050565b60016117f2816115d9565b600554839060006118038383612163565b90506000811161183d5760405162461bcd60e51b8152602060048201526005602482015264454332332d60d81b6044820152606401610575565b600061184e87600560000154612163565b9050851561187657806005600401600082825461186b9190612ff7565b909155506118909050565b8060058001600082825461188a9190612ff7565b90915550505b60055461189e9088836121a0565b60055460408051918252871515602083015281018290526001600160a01b038816907f50f654d58981575c05e369cb129aeacb01e1b036af429380242cfc5d1a4b743f9060600160405180910390a26118f56121d2565b50505050505050565b600080600061190c84612312565b909250905061191b818361300f565b949350505050565b82828160ff16606410156119495760405162461bcd60e51b815260040161057590612ef0565b8060ff166064101561196d5760405162461bcd60e51b815260040161057590612ef0565b821561199857600d869055600e805460ff8681166101000261ffff19909216908816171790556107d5565b600f8690556010805460ff8681166101000261ffff1990921690881617179055600e805462ff00001916620100001790556107d5611b21565b8115610be0576001600160a01b0383166000908152601d60209081526040808320848452909152902054611a2e576001600160a01b0383166000908152601d60209081526040822060019081018054918201815583529120018190555b6001600160a01b0383166000908152601d6020908152604080832084845290915281208054849290611a61908490612ff7565b9091555050505050565b600354610100900460ff1680611a84575060035460ff16155b611aa05760405162461bcd60e51b815260040161057590612f0f565b600354610100900460ff16158015611ac2576003805461ffff19166101011790555b6003805462010000600160b01b031916620100006001600160a01b038516021790558015611af6576003805461ff00191690555b5050565b8151611b0d906000906020850190612804565b508051610be0906001906020840190612804565b6000611b2c816115d9565b60045433906000906001600160a01b0316821415611b4c57506001611b90565b6000611b5783612374565b90506064611b63612477565b600e54611b789190610100900460ff16613031565b611b82919061300f565b811115611b8e57600191505b505b600181151514611bca5760405162461bcd60e51b8152602060048201526005602482015264454332322d60d81b6044820152606401610575565b600680546001600160a01b03191633179055600d54611be99042612ff7565b600755600e5460649060ff16611bfd612477565b611c079190613031565b611c11919061300f565b600855600b80546005819055906000611c29836130ce565b90915550506006546005546007546008546040516001600160a01b03909416937f472501d19bf75639b2e316cd36f8568b0c3ab943b82a87de3c086c98c1929df993611c789390929091612fbe565b60405180910390a2505050565b600080611c9183612574565b90925090508115610be057601b546001600160a01b0384166000908152601c6020526040902055611cc38383836119d1565b826001600160a01b03167fe983a49d27e04c64952da756088988cab0349d02969d01e8fecd907888b2e1208383604051611c78929190612fb0565b6001600160a01b0381166000908152601d6020908152604091829020600101805483518184028101840190945280845260609392830182828015611d6157602002820191906000526020600020905b815481526020019060010190808311611d4d575b50505050509050919050565b6000806000611d7b84611cfe565b9050600073__UintLibrary___________________________63f254becc836040518263ffffffff1660e01b8152600401611db69190612e6b565b60206040518083038186803b158015611dce57600080fd5b505af4158015611de2573d6000803e3d6000fd5b505050506040513d601f19601f82011682018060405250810190611e069190612ac5565b90506000805b8351811015611e7857838181518110611e2757611e27613115565b602002602001015183611e468987858151811061146357611463613115565b611e509190613031565b611e5a919061300f565b611e649083612ff7565b915080611e70816130ce565b915050611e0c565b509590945092505050565b6001600160a01b0383166000908152601d60209081526040808320848452909152902054821115611f015760405162461bcd60e51b815260206004820152602260248201527f4e6f7420656e6f7567682062616c616e636520666f722074686973206661637460448201526137b960f11b6064820152608401610575565b6001600160a01b0383166000908152601d6020908152604080832084845290915281208054849290611f34908490613050565b90915550506001600160a01b0383166000908152601d60209081526040808320848452909152902054610be0576001600160a01b0383166000908152601d60205260409081902090516362fe358160e11b815273__UintLibrary___________________________9163cffd93cd91839163c5fc6b0291611fbf918791600190910190600401612f5d565b60206040518083038186803b158015611fd757600080fd5b505af4158015611feb573d6000803e3d6000fd5b505050506040513d601f19601f8201168201806040525081019061200f9190612ac5565b6001600160a01b0386166000908152601d60205260409081902090516001600160e01b031960e085901b16815261204d929160010190600401612fb0565b60006040518083038186803b15801561206557600080fd5b505af41580156118f5573d6000803e3d6000fd5b612081612096565b151560011415610be057610be08383836125eb565b6007546000904210156120a95750600190565b6006546001600160a01b0316156120ca576120c2612752565b6120ca61165d565b50600090565b8042106105e85760405162461bcd60e51b8152602060048201526005602482015264454333332d60d81b6044820152606401610575565b6001600160a01b038216600090815260026020908152604080832084845290915290205460ff1615611af65760405162461bcd60e51b8152602060048201526005602482015264454333342d60d81b6044820152606401610575565b6000818152600c602090815260408083206001600160a01b038616845290915281205461218f84612374565b6121999190613050565b9392505050565b6000838152600c602090815260408083206001600160a01b038616845290915281208054839290611a61908490612ff7565b6008546009541061228d57600e5462010000900460ff161561222957600f54600d55601054600e805461010080840460ff90811690910261ffff1990921693169290921791909117905561222461275a565b612231565b612231612778565b61223961165d565b600654600554600954600a546040516001600160a01b03909416937f23ca0034cf5aad32571b4a492e9598ea8a490e1643a60970e3cdc6933b55e49f936122839390929091612fbe565b60405180910390a2565b600854600a541061231057600e5462010000900460ff16156122b6576122b161275a565b6122be565b6122be612752565b6122c661165d565b600654600554600954600a546040516001600160a01b03909416937fa58eb6daa3c62c3f883973c4035e5bd3e81aa627c8379de068a7de42df122be2936122839390929091612fbe565b565b60008060008061232185611d6d565b9150915060008061233187612574565b909250905060006123428484613031565b61234c8387613031565b6123569190612ff7565b905060006123648386613031565b9199919850909650505050505050565b6000600360029054906101000a90046001600160a01b03166001600160a01b031663da3dce266040518163ffffffff1660e01b815260040160206040518083038186803b1580156123c457600080fd5b505afa1580156123d8573d6000803e3d6000fd5b505050506040513d601f19601f820116820180604052508101906123fc9190612970565b6001600160a01b03166370a08231836040518263ffffffff1660e01b81526004016124279190612dca565b60206040518083038186803b15801561243f57600080fd5b505afa158015612453573d6000803e3d6000fd5b505050506040513d601f19601f82011682018060405250810190610d179190612ac5565b6000600360029054906101000a90046001600160a01b03166001600160a01b031663da3dce266040518163ffffffff1660e01b815260040160206040518083038186803b1580156124c757600080fd5b505afa1580156124db573d6000803e3d6000fd5b505050506040513d601f19601f820116820180604052508101906124ff9190612970565b6001600160a01b03166318160ddd6040518163ffffffff1660e01b815260040160206040518083038186803b15801561253757600080fd5b505afa15801561254b573d6000803e3d6000fd5b505050506040513d601f19601f8201168201806040525081019061256f9190612ac5565b905090565b601b546001600160a01b0382166000908152601c602052604081205490918291829111156125d8576125a584612374565b6001600160a01b0385166000908152601c6020526040902054601b546125cb9190613050565b6125d59190613031565b90505b806125e1612477565b9250925050915091565b6001600160a01b0383161580159061262757506005546000908152600c602090815260408083206001600160a01b038716845290915290205415155b15610be0576005546000908152600c602090815260408083206001600160a01b0387168452909152902054819081111561268357506005546000908152600c602090815260408083206001600160a01b03871684529091529020545b6005546000908152600c602090815260408083206001600160a01b0388168452909152812080548392906126b8908490613050565b90915550506001600160a01b03831615612707576005546000908152600c602090815260408083206001600160a01b038716845290915281208054839290612701908490612ff7565b90915550505b600554604080516001600160a01b038088168252861660208201529081018390527f65fbd5e5dd32bea4aeca85bd0be0abf0e489d655dee888a7510d43b06dda2dba90606001610f5b565b6123106127e9565b6000600f556010805461ffff19169055600e805462ff000019169055565b601154601655601354601855601454601955601254601755601554601a5561279e6127e9565b7fbe8847d52fb3c03e3414e96d164a23594063f5b6cf01428e61c38bfbbc34ef19601654601854601954601754601a546040516127df959493929190612fd4565b60405180910390a1565b60006011819055601281905560138190556014819055601555565b82805461281090613093565b90600052602060002090601f0160209004810192826128325760008555612878565b82601f1061284b57805160ff1916838001178555612878565b82800160010185558215612878579182015b8281111561287857825182559160200191906001019061285d565b50612884929150612888565b5090565b5b808211156128845760008155600101612889565b60006001600160401b03808411156128b7576128b761312b565b604051601f8501601f19908116603f011681019082821181831017156128df576128df61312b565b816040528093508581528686860111156128f857600080fd5b858560208301376000602087830101525050509392505050565b803561291d81613141565b919050565b600082601f83011261293357600080fd5b6121998383356020850161289d565b803560ff8116811461291d57600080fd5b60006020828403121561296557600080fd5b813561219981613141565b60006020828403121561298257600080fd5b815161219981613141565b6000806000606084860312156129a257600080fd5b83356129ad81613141565b925060208401356129bd81613141565b929592945050506040919091013590565b600080604083850312156129e157600080fd5b82356129ec81613141565b946020939093013593505050565b60008060008060008060c08789031215612a1357600080fd5b8635612a1e81613141565b9550602087013594506040870135612a3581613156565b9350606087013592506080870135915060a08701356001600160401b03811115612a5e57600080fd5b8701601f81018913612a6f57600080fd5b612a7e8982356020840161289d565b9150509295509295509295565b600060208284031215612a9d57600080fd5b813561219981613156565b600060208284031215612aba57600080fd5b815161219981613156565b600060208284031215612ad757600080fd5b5051919050565b600060208284031215612af057600080fd5b81356004811061219957600080fd5b600060208284031215612b1157600080fd5b5035919050565b60008060408385031215612b2b57600080fd5b823591506020830135612b3d81613141565b809150509250929050565b600080600080600060a08688031215612b6057600080fd5b505083359560208501359550604085013594606081013594506080013592509050565b6000806000806000806000806000806000806101808d8f031215612ba657600080fd5b8c359b5060208d01359a5060408d0135995060608d0135985060808d01359750612bd260a08e01612912565b9650612be060c08e01612912565b955060e08d01359450612bf66101008e01612942565b9350612c056101208e01612942565b92506001600160401b036101408e01351115612c2057600080fd5b612c318e6101408f01358f01612922565b91506001600160401b036101608e01351115612c4c57600080fd5b612c5d8e6101608f01358f01612922565b90509295989b509295989b509295989b565b600080600060608486031215612c8457600080fd5b83359250612c9460208501612942565b9150612ca260408501612942565b90509250925092565b60008151808452612cc3816020860160208601613067565b601f01601f19169290920160200192915050565b8054600090600181811c9080831680612cf157607f831692505b6020808410821415612d1357634e487b7160e01b600052602260045260246000fd5b83885260208801828015612d2e5760018114612d3f57612d6a565b60ff19871682528282019750612d6a565b60008981526020902060005b87811015612d6457815484820152908601908401612d4b565b83019850505b5050505050505092915050565b7f4572726f72207472616e73666572696e672066756e647320746f206164647265815264039b9901d160dd1b602082015260008251612dbd816025850160208701613067565b9190910160250192915050565b6001600160a01b0391909116815260200190565b6001600160a01b0392831681529116602082015260400190565b600061010060018060a01b038b16835289602084015288151560408401528760608401528660808401528060a0840152612e3481840187612cab565b905082810360c0840152612e488186612cd7565b905082810360e0840152612e5c8185612cd7565b9b9a5050505050505050505050565b6020808252825182820181905260009190848201906040850190845b81811015612ea357835183529284019291840191600101612e87565b50909695505050505050565b6020815260006121996020830184612cab565b604081526000612ed56040830185612cab565b8281036020840152612ee78185612cab565b95945050505050565b602080825260059082015264454332312d60d81b604082015260600190565b6020808252602e908201527f496e697469616c697a61626c653a20636f6e747261637420697320616c72656160408201526d191e481a5b9a5d1a585b1a5e995960921b606082015260800190565b60006040820184835260206040818501528185548084526060860191508660005282600020935060005b81811015612fa357845483526001948501949284019201612f87565b5090979650505050505050565b918252602082015260400190565b9283526020830191909152604082015260600190565b948552602085019390935260408401919091526060830152608082015260a00190565b6000821982111561300a5761300a6130e9565b500190565b60008261302c57634e487b7160e01b600052601260045260246000fd5b500490565b600081600019048311821515161561304b5761304b6130e9565b500290565b600082821015613062576130626130e9565b500390565b60005b8381101561308257818101518382015260200161306a565b838111156106e55750506000910152565b600181811c908216806130a757607f821691505b602082108114156130c857634e487b7160e01b600052602260045260246000fd5b50919050565b60006000198214156130e2576130e26130e9565b5060010190565b634e487b7160e01b600052601160045260246000fd5b634e487b7160e01b600052602160045260246000fd5b634e487b7160e01b600052603260045260246000fd5b634e487b7160e01b600052604160045260246000fd5b6001600160a01b03811681146105e857600080fd5b80151581146105e857600080fdfea2646970667358221220415a075ae3aed0350757a0614069cae1055e5d70ea7c96d1eef29eda16090ae364736f6c63430008070033",
  "immutableReferences": {},
  "source": "// SPDX-License-Identifier: GPL-3.0\r\n\r\npragma solidity 0.8.7;\r\n\r\n/**\r\n Treasury receives all the payments and assigns dividends to token holders.\r\n Public Certificate Pool contract can ask for its owners to eb refunded even if they do not own tokens.\r\n\r\n First dividends must be assigned to an account and then the account owner can withdraw the funds.\r\n Both actions must be triggered by the account owner.\r\n\r\n  Events : \r\n    - New Prices Added : list of prices\r\n    - Payment recieved : payer, amount, new total aggregated contract amount\r\n    - Refund : who, amount, among how many\r\n    - Assign Dividends : who, amount (number of tokens), among how many (total supply)\r\n    - Withdraw : who, how much\r\n */\r\n\r\nimport \"../Interfaces/ITreasury.sol\";\r\nimport \"../Interfaces/IPriceConverter.sol\";\r\nimport \"../Libraries/UintLibrary.sol\";\r\nimport \"../Libraries/Library.sol\";\r\nimport \"../Base/TokenGovernanceBaseContract.sol\";\r\nimport \"@openzeppelin/contracts-upgradeable/token/ERC20/IERC20Upgradeable.sol\";\r\n\r\n\r\ncontract Treasury is ITreasury, TokenGovernanceBaseContract{\r\n    using Library for *;\r\n    using UintLibrary for *;\r\n\r\n    // EVENTS /////////////////////////////////////////\r\n    event _NewPrices(uint Public, uint Private, uint Provider, uint Certificate, uint OwnerRefund);\r\n    event _Pay(address indexed Payer, uint Amount, uint AggregatedAmount);\r\n    event _Refund(address indexed Owner, uint Amount, uint TotalOwners);\r\n    event _AssignDividend(address indexed Recipient, uint Amount, uint TotalSupply);\r\n    event _Withdraw(address indexed Recipient, uint Amount);\r\n\r\n    // DATA /////////////////////////////////////////\r\n    // proposition to change prices\r\n    struct ProposedPricesStruct{\r\n        uint NewPublicPriceUSD;\r\n        uint NewCertificatePriceUSD;\r\n        uint NewPrivatePriceUSD;\r\n        uint NewProviderPriceUSD;\r\n        uint NewOwnerRefundFeeUSD;\r\n    }\r\n\r\n    ProposedPricesStruct private _ProposedPrices;\r\n\r\n    // prices parameters usd\r\n    uint private _PublicPriceUSD;\r\n    uint private _CertificatePriceUSD;\r\n    uint private _PrivatePriceUSD;\r\n    uint private _ProviderPriceUSD;\r\n    uint private _OwnerRefundFeeUSD;\r\n\r\n    // last amount at which dividends where assigned for each token owner\r\n    uint private _AggregatedDividendAmount;\r\n    mapping(address => uint) private _lastAssigned;\r\n\r\n    // dividends per token owner\r\n    struct _BalanceStruct{\r\n        mapping(uint => uint) _balance;\r\n        uint[] _factors;\r\n    }\r\n    \r\n    mapping(address => _BalanceStruct) private _balances;\r\n\r\n    // MODIFIERS /////////////////////////////////////////\r\n    modifier areFundsEnough(uint256 value, Library.Prices price){\r\n        uint256 minPriceUSD = 2**256 - 1;\r\n\r\n        if(Library.Prices.NewProvider == price) minPriceUSD = _PublicPriceUSD;\r\n        else if(Library.Prices.NewPool == price) minPriceUSD = _PrivatePriceUSD;\r\n        else if(Library.Prices.NewCertificate == price) minPriceUSD = _CertificatePriceUSD;\r\n        else minPriceUSD = _ProviderPriceUSD;\r\n\r\n        uint256 minPriceETH = IPriceConverter(_managerContract.retrievePriceConverterProxy()).fromUSDToETH(minPriceUSD);\r\n\r\n        require(value >= minPriceETH, \"EC2-\");\r\n        _;\r\n    }\r\n\r\n    modifier isBalanceEnough(uint amount, address addr){\r\n        require(checkFullBalance(addr) >= amount, \"EC20-\");\r\n        _;\r\n    }\r\n\r\n    modifier isFromPublicPool(address addr){\r\n        Library.ItIsSomeone(addr, _managerContract.retrievePublicCertificatePoolProxy());\r\n        _;\r\n    }\r\n\r\n    modifier isPriceOK(uint256 PublicPriceUSD, uint256 OwnerRefundFeeUSD){\r\n        require(PublicPriceUSD >= OwnerRefundFeeUSD, \"EC21-\");\r\n        _;\r\n    }\r\n    \r\n    // CONSTRUCTOR /////////////////////////////////////////\r\n    function Treasury_init(uint256 PublicPriceUSD, uint256 PrivatePriceUSD, uint256 ProviderPriceUSD, uint256 CertificatePriceUSD, uint256 OwnerRefundFeeUSD, address managerContractAddress, address chairPerson, uint256 PropositionLifeTime, uint8 PropositionThresholdPercentage, uint8 minWeightToProposePercentage, string memory contractName, string memory contractVersion) public initializer \r\n    {\r\n        super.TokenGovernanceContract_init(PropositionLifeTime, PropositionThresholdPercentage, minWeightToProposePercentage, chairPerson, managerContractAddress, contractName, contractVersion);\r\n        InternalupdatePrices(PublicPriceUSD, PrivatePriceUSD, ProviderPriceUSD, CertificatePriceUSD, OwnerRefundFeeUSD, true);\r\n    }\r\n\r\n    // GOVERNANCE /////////////////////////////////////////\r\n    function updatePrices(uint256 PublicPriceUSD, uint256 PrivatePriceUSD, uint256 ProviderPriceUSD, uint256 CertificatePriceUSD, uint256 OwnerRefundFeeUSD) external override\r\n    {\r\n        InternalupdatePrices(PublicPriceUSD, PrivatePriceUSD, ProviderPriceUSD, CertificatePriceUSD, OwnerRefundFeeUSD, false);\r\n    }\r\n\r\n    function InternalupdatePrices(uint256 PublicPriceUSD, uint256 PrivatePriceUSD, uint256 ProviderPriceUSD, uint256 CertificatePriceUSD, uint256 OwnerRefundFeeUSD, bool fromConstructor) internal\r\n        isPriceOK(PublicPriceUSD, OwnerRefundFeeUSD)\r\n    {\r\n        if(fromConstructor){\r\n            _PublicPriceUSD = PublicPriceUSD;\r\n            _PrivatePriceUSD = PrivatePriceUSD;\r\n            _ProviderPriceUSD = ProviderPriceUSD;\r\n            _CertificatePriceUSD = CertificatePriceUSD;\r\n            _OwnerRefundFeeUSD = OwnerRefundFeeUSD;\r\n        }\r\n        else{\r\n            addProposition();\r\n            _ProposedPrices.NewPublicPriceUSD = PublicPriceUSD;\r\n            _ProposedPrices.NewCertificatePriceUSD = CertificatePriceUSD;\r\n            _ProposedPrices.NewPrivatePriceUSD = PrivatePriceUSD;\r\n            _ProposedPrices.NewProviderPriceUSD = ProviderPriceUSD;\r\n            _ProposedPrices.NewOwnerRefundFeeUSD = OwnerRefundFeeUSD;\r\n        }\r\n        \r\n    }\r\n\r\n    function propositionApproved() internal override\r\n    {\r\n        _PublicPriceUSD = _ProposedPrices.NewPublicPriceUSD;\r\n        _PrivatePriceUSD = _ProposedPrices.NewPrivatePriceUSD;\r\n        _ProviderPriceUSD = _ProposedPrices.NewProviderPriceUSD;\r\n        _CertificatePriceUSD = _ProposedPrices.NewCertificatePriceUSD;\r\n        _OwnerRefundFeeUSD = _ProposedPrices.NewOwnerRefundFeeUSD;\r\n        \r\n        removeProposition();\r\n\r\n        emit _NewPrices(_PublicPriceUSD, _PrivatePriceUSD, _ProviderPriceUSD, _CertificatePriceUSD, _OwnerRefundFeeUSD);\r\n    }\r\n\r\n    function propositionRejected() internal override\r\n    {\r\n        removeProposition();\r\n    }\r\n\r\n    function propositionExpired() internal override\r\n    {\r\n        removeProposition();\r\n    }\r\n\r\n    function removeProposition() internal\r\n    {\r\n         delete(_ProposedPrices);\r\n    }\r\n\r\n    function retrieveProposition() external override view returns(bytes32[] memory)\r\n    {\r\n        bytes32[] memory proposition = new bytes32[](5);\r\n        proposition[0] = UintLibrary.UintToBytes32(_ProposedPrices.NewPublicPriceUSD);\r\n        proposition[1] = UintLibrary.UintToBytes32(_ProposedPrices.NewPrivatePriceUSD);\r\n        proposition[2] = UintLibrary.UintToBytes32(_ProposedPrices.NewProviderPriceUSD);\r\n        proposition[3] = UintLibrary.UintToBytes32(_ProposedPrices.NewCertificatePriceUSD);\r\n        proposition[4] = UintLibrary.UintToBytes32(_ProposedPrices.NewOwnerRefundFeeUSD);\r\n        return proposition;\r\n    }\r\n\r\n    // FUNCTIONALITY /////////////////////////////////////////\r\n    function pay(Library.Prices price) external \r\n        areFundsEnough(msg.value, price)\r\n    override payable\r\n    {\r\n        uint256 amount = msg.value;\r\n        if(price == Library.Prices.NewProvider) amount -= IPriceConverter(_managerContract.retrievePriceConverterProxy()).fromUSDToETH(_OwnerRefundFeeUSD);\r\n        _AggregatedDividendAmount += amount;\r\n\r\n        emit _Pay(msg.sender, msg.value, _AggregatedDividendAmount);\r\n    }\r\n\r\n    function InternalonTokenBalanceChanged(address from, address to, uint256 amount) internal override\r\n    {\r\n        super.InternalonTokenBalanceChanged(from, to, amount);\r\n        if(address(0) != from) InternalAssignDividends(from);\r\n        if(address(0) != to) InternalAssignDividends(to);\r\n    }\r\n\r\n    function InternalAssignDividends(address recipient) internal\r\n    {\r\n        (uint totalOffBalance, uint DividendOffBalance) = sumUpTotalOffBalance(recipient);\r\n\r\n        if(totalOffBalance > 0){\r\n           _lastAssigned[recipient] = _AggregatedDividendAmount;\r\n           addBalance(recipient, totalOffBalance, DividendOffBalance);\r\n           \r\n           emit _AssignDividend(recipient, totalOffBalance, DividendOffBalance);\r\n        }\r\n    }\r\n\r\n    function getRefund(address addr, uint numberOfOwners) external \r\n        isFromPublicPool(msg.sender)\r\n    override\r\n    {\r\n        uint OwnerRefundFeeWei = IPriceConverter(_managerContract.retrievePriceConverterProxy()).fromUSDToETH(_OwnerRefundFeeUSD);\r\n        addBalance(addr, OwnerRefundFeeWei, numberOfOwners);\r\n\r\n        emit _Refund(addr, OwnerRefundFeeWei, numberOfOwners);\r\n    }\r\n\r\n    function withdraw(uint amount) external \r\n    override\r\n    {\r\n        InternalWithdraw(amount);\r\n    }\r\n\r\n    function withdrawAll() external override\r\n    {\r\n        uint All = checkFullBalance(msg.sender);\r\n        InternalWithdraw(All);\r\n    }\r\n\r\n    function InternalWithdraw(uint amount) internal \r\n        isBalanceEnough(amount, msg.sender)\r\n    {\r\n        InternalAssignDividends(msg.sender);\r\n        uint[] memory f = returnFactors(msg.sender);\r\n        (uint total, uint commonDividend) = sumUpTotalOnBalance(msg.sender);\r\n        uint remainder =  total - (amount * commonDividend);\r\n\r\n        for(uint i=0; i < f.length; i++){\r\n            substractBalance(msg.sender, returnBalanceForFactor(msg.sender, f[i]), f[i]);\r\n        }\r\n\r\n        addBalance(msg.sender, remainder, commonDividend);\r\n\r\n        (bool success, bytes memory data) = msg.sender.call{value: amount}(\"\");\r\n        require(success, string(abi.encodePacked(\"Error transfering funds to address : \", data)));\r\n\r\n        emit _Withdraw(msg.sender, amount);\r\n    }\r\n\r\n    function retrieveLastAssigned(address addr) external override view returns(uint)\r\n    {\r\n        return _lastAssigned[addr];\r\n    }\r\n\r\n    function retrieveFullBalance(address addr) external override view returns(uint)\r\n    {\r\n        return checkFullBalance(addr);\r\n    }\r\n\r\n    function retrievePrices() external override view returns(uint, uint, uint, uint, uint)\r\n    {\r\n        return(_PublicPriceUSD, _PrivatePriceUSD, _ProviderPriceUSD, _CertificatePriceUSD, _OwnerRefundFeeUSD);\r\n    }\r\n\r\n    function retrieveAggregatedAmount() external override view returns(uint){\r\n        return _AggregatedDividendAmount;\r\n    }\r\n\r\n    function checkFullBalance(address addr) internal view returns(uint){\r\n        (uint total, uint commonDividend) = sumUpTotal(addr);\r\n\r\n        return total / commonDividend;\r\n    }\r\n\r\n    function sumUpTotal(address addr) internal view returns (uint, uint)\r\n    {\r\n        (uint totalOnBalance, uint commonDividendOnBalance) = sumUpTotalOnBalance(addr);\r\n        (uint totalOffBalance, uint DividendOffBalance) = sumUpTotalOffBalance(addr);\r\n\r\n        uint total = (totalOnBalance * DividendOffBalance) + (totalOffBalance * commonDividendOnBalance);\r\n        uint CommonDividend = commonDividendOnBalance * DividendOffBalance;\r\n\r\n        return (total, CommonDividend);\r\n    }\r\n\r\n    function sumUpTotalOnBalance(address addr) internal view returns (uint, uint)\r\n    {\r\n        uint[] memory f = returnFactors(addr);\r\n        uint CommonDividend = UintLibrary.ProductOfFactors(f);\r\n        uint total = 0;\r\n\r\n        for(uint i=0; i < f.length; i++){\r\n            total += returnBalanceForFactor(addr, f[i]) * CommonDividend / f[i];\r\n        }\r\n\r\n        return (total, CommonDividend);\r\n    }\r\n\r\n    function sumUpTotalOffBalance(address addr) internal view returns (uint, uint)\r\n    {\r\n        uint total = 0;\r\n\r\n        if(_lastAssigned[addr] < _AggregatedDividendAmount)\r\n        {\r\n            total = (_AggregatedDividendAmount - _lastAssigned[addr]) * GetTokensBalance(addr);           \r\n        }\r\n\r\n        return (total, totalSupply());\r\n    }\r\n\r\n    function returnFactors(address addr) internal view returns(uint[] memory){\r\n        return _balances[addr]._factors;\r\n    }\r\n\r\n    function returnBalanceForFactor(address addr, uint factor) internal view returns(uint){\r\n        return _balances[addr]._balance[factor];\r\n    }\r\n\r\n    function addBalance(address addr, uint amount, uint factor) internal\r\n    {\r\n        if(amount > 0){\r\n            if(0 == _balances[addr]._balance[factor])\r\n            {\r\n                _balances[addr]._factors.push(factor);\r\n            }\r\n            _balances[addr]._balance[factor] += amount;\r\n        }\r\n    }\r\n\r\n    function substractBalance(address addr, uint amount, uint factor) internal\r\n    {\r\n        require(_balances[addr]._balance[factor] >= amount, \"Not enough balance for this factor\");\r\n\r\n        _balances[addr]._balance[factor] -= amount;\r\n\r\n        if(0 == _balances[addr]._balance[factor])\r\n        {\r\n            UintLibrary.UintArrayRemoveResize(UintLibrary.FindUintPosition(factor, _balances[addr]._factors), _balances[addr]._factors);\r\n        }\r\n        \r\n    }\r\n\r\n}",
  "sourcePath": "C:/Users/d-aam/GitHub/Certificates/contracts/DeployedContracts/Treasury.sol",
  "compiler": {
    "name": "solc",
    "version": "0.8.7+commit.e28d00a7.Emscripten.clang"
  },
  "schemaVersion": "3.3.4",
  "updatedAt": "2021-10-27T10:34:25.434Z",
  "devdoc": {
    "kind": "dev",
    "methods": {},
    "version": 1
  },
  "userdoc": {
    "kind": "user",
    "methods": {},
    "version": 1
  }
}