{
  "contractName": "Treasury",
  "abi": [
    {
      "inputs": [
        {
          "internalType": "uint256",
          "name": "PublicPriceWei",
          "type": "uint256"
        },
        {
          "internalType": "uint256",
          "name": "PrivatePriceWei",
          "type": "uint256"
        },
        {
          "internalType": "uint256",
          "name": "CertificatePriceWei",
          "type": "uint256"
        },
        {
          "internalType": "uint256",
          "name": "OwnerRefundPriceWei",
          "type": "uint256"
        },
        {
          "internalType": "address",
          "name": "PublicPoolAddress",
          "type": "address"
        },
        {
          "internalType": "address",
          "name": "managerContractAddress",
          "type": "address"
        }
      ],
      "stateMutability": "nonpayable",
      "type": "constructor"
    },
    {
      "inputs": [],
      "name": "payForNewProposal",
      "outputs": [],
      "stateMutability": "payable",
      "type": "function"
    },
    {
      "inputs": [],
      "name": "payForNewPool",
      "outputs": [],
      "stateMutability": "payable",
      "type": "function"
    },
    {
      "inputs": [],
      "name": "payForNewCertificate",
      "outputs": [],
      "stateMutability": "payable",
      "type": "function"
    },
    {
      "inputs": [
        {
          "internalType": "address",
          "name": "addr",
          "type": "address"
        },
        {
          "internalType": "uint256",
          "name": "numberOfOwners",
          "type": "uint256"
        }
      ],
      "name": "getRefund",
      "outputs": [],
      "stateMutability": "nonpayable",
      "type": "function"
    },
    {
      "inputs": [
        {
          "internalType": "uint256",
          "name": "amount",
          "type": "uint256"
        }
      ],
      "name": "withdraw",
      "outputs": [],
      "stateMutability": "nonpayable",
      "type": "function"
    },
    {
      "inputs": [
        {
          "internalType": "address",
          "name": "addr",
          "type": "address"
        }
      ],
      "name": "retrieveBalance",
      "outputs": [
        {
          "internalType": "uint256",
          "name": "",
          "type": "uint256"
        }
      ],
      "stateMutability": "view",
      "type": "function"
    },
    {
      "inputs": [
        {
          "internalType": "address",
          "name": "addr",
          "type": "address"
        }
      ],
      "name": "returnFactors",
      "outputs": [
        {
          "internalType": "uint256[]",
          "name": "",
          "type": "uint256[]"
        }
      ],
      "stateMutability": "view",
      "type": "function"
    },
    {
      "inputs": [
        {
          "internalType": "address",
          "name": "addr",
          "type": "address"
        },
        {
          "internalType": "uint256",
          "name": "factor",
          "type": "uint256"
        }
      ],
      "name": "returnBalanceForFactor",
      "outputs": [
        {
          "internalType": "uint256",
          "name": "",
          "type": "uint256"
        }
      ],
      "stateMutability": "view",
      "type": "function"
    }
  ],
  "bytecode": "0x608060405234801561001057600080fd5b50604051610aed380380610aed833981810160405260c081101561003357600080fd5b508051602082015160408301516060840151608085015160a090950151600080546001600160a01b039283166001600160a01b03199182161790915560029590955560049390935560039190915560055560018054919093169116179055610a4d806100a06000396000f3fe60806040526004361061006b5760003560e01c80632e1a7d4d14610070578063342aa1981461009c578063435358f8146100a45780637cc850fd146100ac578063906816d7146100b4578063c56cb580146100ff578063e20f37ad14610182578063eb1e2a41146101b5575b600080fd5b34801561007c57600080fd5b5061009a6004803603602081101561009357600080fd5b50356101ee565b005b61009a61035a565b61009a61039b565b61009a6103d9565b3480156100c057600080fd5b506100ed600480360360408110156100d757600080fd5b506001600160a01b038135169060200135610417565b60408051918252519081900360200190f35b34801561010b57600080fd5b506101326004803603602081101561012257600080fd5b50356001600160a01b031661043f565b60408051602080825283518183015283519192839290830191858101910280838360005b8381101561016e578181015183820152602001610156565b505050509050019250505060405180910390f35b34801561018e57600080fd5b506100ed600480360360208110156101a557600080fd5b50356001600160a01b03166104af565b3480156101c157600080fd5b5061009a600480360360408110156101d857600080fd5b506001600160a01b0381351690602001356104c0565b80806101f933610522565b1015610235576040805162461bcd60e51b815260206004808301919091526024820152630454332360e41b604482015290519081900360640190fd5b60006102403361043f565b90506000805b84821080156102555750825181105b156102e757600083828151811061026857fe5b602002602001015161028d3386858151811061028057fe5b6020026020010151610417565b8161029457fe5b0490508286038111156102a657508185035b80830192506102de338584815181106102bb57fe5b602002602001015183028685815181106102d157fe5b602002602001015161057e565b50600101610246565b8482146103255760405162461bcd60e51b81526004018080602001828103825260358152602001806109c16035913960400191505060405180910390fd5b604051339083156108fc029084906000818181858888f19350505050158015610352573d6000803e3d6000fd5b505050505050565b60035480341015610398576040805162461bcd60e51b815260206004820152600360248201526222a19960e91b604482015290519081900360640190fd5b50565b60025480341015610398576040805162461bcd60e51b815260206004820152600360248201526222a19960e91b604482015290519081900360640190fd5b60045480341015610398576040805162461bcd60e51b815260206004820152600360248201526222a19960e91b604482015290519081900360640190fd5b6001600160a01b03919091166000908152600660209081526040808320938352929052205490565b6001600160a01b0381166000908152600660209081526040918290206001018054835181840281018401909452808452606093928301828280156104a257602002820191906000526020600020905b81548152602001906001019080831161048e575b505050505090505b919050565b60006104ba82610522565b92915050565b6001546104d5906001600160a01b03166108b7565b1515600114610511576040805162461bcd60e51b815260206004820152600360248201526208a86760eb1b604482015290519081900360640190fd5b61051e82600554836108da565b5050565b60008061052e8361043f565b90506000805b82518110156105765782818151811061054957fe5b60200260200101516105618685848151811061028057fe5b8161056857fe5b049190910190600101610534565b509392505050565b6001600160a01b03831660009081526006602090815260408083208484529091529020548211156105e05760405162461bcd60e51b81526004018080602001828103825260228152602001806109f66022913960400191505060405180910390fd5b6001600160a01b038316600090815260066020908152604080832084845290915290208054839003908190556108b25773__UintLibrary___________________________6302fbee9e73__UintLibrary___________________________63c5fc6b028460066000896001600160a01b03166001600160a01b031681526020019081526020016000206001016040518363ffffffff1660e01b8152600401808381526020018060200182810382528381815481526020019150805480156106c757602002820191906000526020600020905b8154815260200190600101908083116106b3575b5050935050505060206040518083038186803b1580156106e657600080fd5b505af41580156106fa573d6000803e3d6000fd5b505050506040513d602081101561071057600080fd5b50516001600160a01b0386166000908152600660205260409081902081516001600160e01b031960e086901b16815260048101848152602482019384526001909201805460448301819052909391606401908490801561078f57602002820191906000526020600020905b81548152602001906001019080831161077b575b5050935050505060006040518083038186803b1580156107ae57600080fd5b505af41580156107c2573d6000803e3d6000fd5b505050506040513d6000823e601f3d908101601f1916820160405260208110156107eb57600080fd5b8101908080516040519392919084600160201b82111561080a57600080fd5b90830190602082018581111561081f57600080fd5b82518660208202830111600160201b8211171561083b57600080fd5b82525081516020918201928201910280838360005b83811015610868578181015183820152602001610850565b5050505090500160405250505060066000856001600160a01b03166001600160a01b0316815260200190815260200160002060010190805190602001906108b0929190610960565b505b505050565b6000336001600160a01b03831614156108d2575060016104aa565b506000919050565b6001600160a01b0383166000908152600660209081526040808320848452909152902054610931576001600160a01b0383166000908152600660209081526040822060019081018054918201815583529120018190555b6001600160a01b0390921660009081526006602090815260408083209483529390529190912080549091019055565b82805482825590600052602060002090810192821561099b579160200282015b8281111561099b578251825591602001919060010190610980565b506109a79291506109ab565b5090565b5b808211156109a757600081556001016109ac56fe556e45787065637465642070726f626c656d2063616c63756c6174696e672074686520616d6f756e7420746f2077697468647261774e6f7420656e6f7567682062616c616e636520666f72207468697320666163746f72a2646970667358221220f4b6057560fbcbe59f181aa188551da50dda9bfd8ef5bb8725a424a3350d23b064736f6c63430007060033",
  "immutableReferences": {},
  "source": "// SPDX-License-Identifier: GPL-3.0\r\n\r\npragma solidity >=0.7.0 <0.9.0;\r\n\r\n/**\r\n * @title Storage\r\n * @dev Store & retrieve value in a variable\r\n */\r\n\r\nimport \"./Interfaces/ITreasury.sol\";\r\nimport \"./PublicCertificatesPool.sol\";\r\nimport \"./Libraries/UintLibrary.sol\";\r\nimport \"./Libraries/Library.sol\";\r\n\r\n\r\ncontract Treasury is ITreasury{\r\n    using Library for *;\r\n    using UintLibrary for *;\r\n\r\n    // creator\r\n    address _creator;\r\n\r\n    // modifiers\r\n    modifier areFundsEnough(uint minPrice){\r\n        require(msg.value >= minPrice, \"EC2\");\r\n        _;\r\n    }\r\n\r\n    modifier isBalanceEnough(uint amount){\r\n        require(checkBalance(msg.sender) >= amount, \"EC20\");\r\n        _;\r\n    }\r\n\r\n    modifier isFromPublicPool(){\r\n        require(true == Library.ItIsSomeone(address(_PublicCertificatesPool)), \"EC8\");\r\n        _;\r\n    }\r\n\r\n    modifier isFromCreator(){\r\n        require(true == Library.ItIsSomeone(_creator), \"EC8\");\r\n        _;\r\n    }\r\n\r\n    // constants\r\n    PublicCertificatesPool  _PublicCertificatesPool;\r\n    uint _PublicPriceWei;\r\n    uint _CertificatePriceWei;\r\n    uint _PrivatePriceWei;\r\n    uint _OwnerRefundPriceWei;\r\n\r\n    // data\r\n    struct _BalanceStruct{\r\n        mapping(uint => uint) _balance;\r\n        uint[] _factors;\r\n    }\r\n    \r\n    mapping(address => _BalanceStruct) _balances;\r\n\r\n    constructor(uint256 PublicPriceWei, uint256 PrivatePriceWei, uint256 CertificatePriceWei, uint256 OwnerRefundPriceWei, address PublicPoolAddress, address managerContractAddress) {\r\n        _creator = managerContractAddress; \r\n        _PublicPriceWei = PublicPriceWei;\r\n        _PrivatePriceWei = PrivatePriceWei;\r\n        _CertificatePriceWei = CertificatePriceWei;\r\n        _OwnerRefundPriceWei = OwnerRefundPriceWei;\r\n        _PublicCertificatesPool = PublicCertificatesPool(PublicPoolAddress);\r\n    }\r\n\r\n    function payForNewProposal() external \r\n        areFundsEnough(_PublicPriceWei)\r\n    override payable\r\n    {\r\n        // Assign dividends propotionaly (substracting the owners cut)\r\n    }\r\n\r\n    function payForNewPool() external \r\n        areFundsEnough(_PrivatePriceWei)\r\n    override payable\r\n    {\r\n        // Assign dividends propotionaly (substracting the owners cut)\r\n    }\r\n\r\n    function payForNewCertificate() external \r\n        areFundsEnough(_CertificatePriceWei)\r\n    override payable\r\n    {\r\n        // Assign dividends propotionaly (substracting the owners cut)\r\n    }\r\n\r\n    function getRefund(address addr, uint numberOfOwners) external \r\n        isFromPublicPool()\r\n    override\r\n    {\r\n        addBalance(addr, _OwnerRefundPriceWei, numberOfOwners);\r\n    }\r\n\r\n    function withdraw(uint amount) external \r\n        isBalanceEnough(amount)\r\n    override\r\n    {\r\n        uint[] memory f = returnFactors(msg.sender);\r\n        uint total = 0;\r\n        uint i = 0;\r\n\r\n        while ((total < amount) && (i < f.length)){\r\n            uint amountForFactor = returnBalanceForFactor(msg.sender, f[i]) / f[i];\r\n            if(amountForFactor > (amount - total)) amountForFactor = amount - total;\r\n            total += amountForFactor;\r\n            substractBalance(msg.sender, amountForFactor * f[i], f[i]);\r\n            i++;\r\n        }\r\n\r\n        require(total == amount, \"UnExpected problem calculating the amount to withdraw\");\r\n\r\n        msg.sender.transfer(total);\r\n    }\r\n\r\n    function retrieveBalance(address addr) external override view returns(uint)\r\n    {\r\n        return checkBalance(addr);\r\n    }\r\n\r\n    function checkBalance(address addr) internal view returns(uint){\r\n        uint[] memory f = returnFactors(addr);\r\n        uint total = 0;\r\n\r\n        for(uint i=0; i < f.length; i++){\r\n            total += returnBalanceForFactor(addr, f[i]) / f[i];\r\n        }\r\n\r\n        return total;\r\n    }\r\n\r\n    function returnFactors(address addr) public view returns(uint[] memory){\r\n        return _balances[addr]._factors;\r\n    }\r\n\r\n    function returnBalanceForFactor(address addr, uint factor) public view returns(uint){\r\n        return _balances[addr]._balance[factor];\r\n    }\r\n\r\n    function addBalance(address addr, uint amount, uint factor) private{\r\n        if(0 == _balances[addr]._balance[factor]){\r\n             _balances[addr]._factors.push(factor);\r\n        }\r\n\r\n       _balances[addr]._balance[factor] += amount;\r\n    }\r\n\r\n    function substractBalance(address addr, uint amount, uint factor) private{\r\n        require(_balances[addr]._balance[factor] >= amount, \"Not enough balance for this factor\");\r\n\r\n        _balances[addr]._balance[factor] -= amount;\r\n\r\n        if(0 == _balances[addr]._balance[factor]){\r\n            _balances[addr]._factors = UintLibrary.UintArrayRemoveResize(UintLibrary.FindUintPosition(factor, _balances[addr]._factors), _balances[addr]._factors);\r\n        }\r\n        \r\n    }\r\n\r\n}",
  "sourcePath": "C:\\Users\\d-aam\\GitHub\\Certificates\\contracts\\Treasury.sol",
  "compiler": {
    "name": "solc",
    "version": "0.7.6+commit.7338295f.Emscripten.clang"
  },
  "schemaVersion": "3.3.4",
  "updatedAt": "2021-07-19T13:24:53.619Z",
  "devdoc": {
    "kind": "dev",
    "methods": {},
    "version": 1
  },
  "userdoc": {
    "kind": "user",
    "methods": {},
    "version": 1
  }
}