{
  "contractName": "Treasury",
  "abi": [
    {
      "anonymous": false,
      "inputs": [
        {
          "indexed": false,
          "internalType": "uint256",
          "name": "Id",
          "type": "uint256"
        },
        {
          "indexed": true,
          "internalType": "address",
          "name": "Proposer",
          "type": "address"
        },
        {
          "indexed": false,
          "internalType": "uint256",
          "name": "Deadline",
          "type": "uint256"
        },
        {
          "indexed": false,
          "internalType": "uint256",
          "name": "Threshold",
          "type": "uint256"
        }
      ],
      "name": "_AddedProposition",
      "type": "event"
    },
    {
      "anonymous": false,
      "inputs": [
        {
          "indexed": true,
          "internalType": "address",
          "name": "Recipient",
          "type": "address"
        },
        {
          "indexed": false,
          "internalType": "uint256",
          "name": "Amount",
          "type": "uint256"
        },
        {
          "indexed": false,
          "internalType": "uint256",
          "name": "TotalSupply",
          "type": "uint256"
        }
      ],
      "name": "_AssignDividend",
      "type": "event"
    },
    {
      "anonymous": false,
      "inputs": [
        {
          "indexed": false,
          "internalType": "uint256",
          "name": "Id",
          "type": "uint256"
        },
        {
          "indexed": true,
          "internalType": "address",
          "name": "Proposer",
          "type": "address"
        }
      ],
      "name": "_CancelledProposition",
      "type": "event"
    },
    {
      "anonymous": false,
      "inputs": [
        {
          "indexed": false,
          "internalType": "uint256",
          "name": "Public",
          "type": "uint256"
        },
        {
          "indexed": false,
          "internalType": "uint256",
          "name": "Private",
          "type": "uint256"
        },
        {
          "indexed": false,
          "internalType": "uint256",
          "name": "Provider",
          "type": "uint256"
        },
        {
          "indexed": false,
          "internalType": "uint256",
          "name": "Certificate",
          "type": "uint256"
        },
        {
          "indexed": false,
          "internalType": "uint256",
          "name": "OwnerRefund",
          "type": "uint256"
        }
      ],
      "name": "_NewPrices",
      "type": "event"
    },
    {
      "anonymous": false,
      "inputs": [
        {
          "indexed": true,
          "internalType": "address",
          "name": "Payer",
          "type": "address"
        },
        {
          "indexed": false,
          "internalType": "uint256",
          "name": "Amount",
          "type": "uint256"
        },
        {
          "indexed": false,
          "internalType": "uint256",
          "name": "AggregatedAmount",
          "type": "uint256"
        }
      ],
      "name": "_Pay",
      "type": "event"
    },
    {
      "anonymous": false,
      "inputs": [
        {
          "indexed": false,
          "internalType": "uint256",
          "name": "Id",
          "type": "uint256"
        },
        {
          "indexed": true,
          "internalType": "address",
          "name": "Proposer",
          "type": "address"
        },
        {
          "indexed": false,
          "internalType": "uint256",
          "name": "VotesFor",
          "type": "uint256"
        },
        {
          "indexed": false,
          "internalType": "uint256",
          "name": "VotesAgainst",
          "type": "uint256"
        }
      ],
      "name": "_PropositionApproved",
      "type": "event"
    },
    {
      "anonymous": false,
      "inputs": [
        {
          "indexed": false,
          "internalType": "uint256",
          "name": "Id",
          "type": "uint256"
        },
        {
          "indexed": true,
          "internalType": "address",
          "name": "Proposer",
          "type": "address"
        },
        {
          "indexed": false,
          "internalType": "uint256",
          "name": "VotesFor",
          "type": "uint256"
        },
        {
          "indexed": false,
          "internalType": "uint256",
          "name": "VotesAgainst",
          "type": "uint256"
        }
      ],
      "name": "_PropositionRejected",
      "type": "event"
    },
    {
      "anonymous": false,
      "inputs": [
        {
          "indexed": false,
          "internalType": "uint256",
          "name": "Id",
          "type": "uint256"
        },
        {
          "indexed": true,
          "internalType": "address",
          "name": "Voter",
          "type": "address"
        },
        {
          "indexed": false,
          "internalType": "bool",
          "name": "Vote",
          "type": "bool"
        },
        {
          "indexed": false,
          "internalType": "uint256",
          "name": "AmountTokens",
          "type": "uint256"
        }
      ],
      "name": "_PropositionVote",
      "type": "event"
    },
    {
      "anonymous": false,
      "inputs": [
        {
          "indexed": true,
          "internalType": "address",
          "name": "Owner",
          "type": "address"
        },
        {
          "indexed": false,
          "internalType": "uint256",
          "name": "Amount",
          "type": "uint256"
        },
        {
          "indexed": false,
          "internalType": "uint256",
          "name": "TotalOwners",
          "type": "uint256"
        }
      ],
      "name": "_Refund",
      "type": "event"
    },
    {
      "anonymous": false,
      "inputs": [
        {
          "indexed": true,
          "internalType": "uint256",
          "name": "Id",
          "type": "uint256"
        },
        {
          "indexed": false,
          "internalType": "address",
          "name": "From",
          "type": "address"
        },
        {
          "indexed": false,
          "internalType": "address",
          "name": "To",
          "type": "address"
        },
        {
          "indexed": false,
          "internalType": "uint256",
          "name": "Amount",
          "type": "uint256"
        }
      ],
      "name": "_UsedTokensTransfered",
      "type": "event"
    },
    {
      "anonymous": false,
      "inputs": [
        {
          "indexed": true,
          "internalType": "address",
          "name": "Recipient",
          "type": "address"
        },
        {
          "indexed": false,
          "internalType": "uint256",
          "name": "Amount",
          "type": "uint256"
        }
      ],
      "name": "_Withdraw",
      "type": "event"
    },
    {
      "inputs": [],
      "name": "cancelProposition",
      "outputs": [],
      "stateMutability": "nonpayable",
      "type": "function"
    },
    {
      "inputs": [
        {
          "internalType": "address",
          "name": "from",
          "type": "address"
        },
        {
          "internalType": "address",
          "name": "to",
          "type": "address"
        },
        {
          "internalType": "uint256",
          "name": "amount",
          "type": "uint256"
        }
      ],
      "name": "onTokenBalanceChanged",
      "outputs": [],
      "stateMutability": "nonpayable",
      "type": "function"
    },
    {
      "inputs": [],
      "name": "retrieveChairPerson",
      "outputs": [
        {
          "internalType": "address",
          "name": "",
          "type": "address"
        }
      ],
      "stateMutability": "view",
      "type": "function"
    },
    {
      "inputs": [],
      "name": "retrieveContractConfig",
      "outputs": [
        {
          "internalType": "string",
          "name": "",
          "type": "string"
        },
        {
          "internalType": "string",
          "name": "",
          "type": "string"
        }
      ],
      "stateMutability": "view",
      "type": "function"
    },
    {
      "inputs": [],
      "name": "retrieveManagerContract",
      "outputs": [
        {
          "internalType": "address",
          "name": "",
          "type": "address"
        }
      ],
      "stateMutability": "view",
      "type": "function"
    },
    {
      "inputs": [],
      "name": "retrieveNextPropId",
      "outputs": [
        {
          "internalType": "uint256",
          "name": "",
          "type": "uint256"
        }
      ],
      "stateMutability": "view",
      "type": "function"
    },
    {
      "inputs": [
        {
          "internalType": "address",
          "name": "addr",
          "type": "address"
        },
        {
          "internalType": "uint256",
          "name": "nonce",
          "type": "uint256"
        }
      ],
      "name": "retrieveNonce",
      "outputs": [
        {
          "internalType": "bool",
          "name": "",
          "type": "bool"
        }
      ],
      "stateMutability": "view",
      "type": "function"
    },
    {
      "inputs": [],
      "name": "retrievePropositionStatus",
      "outputs": [
        {
          "internalType": "address",
          "name": "",
          "type": "address"
        },
        {
          "internalType": "uint256",
          "name": "",
          "type": "uint256"
        },
        {
          "internalType": "uint256",
          "name": "",
          "type": "uint256"
        },
        {
          "internalType": "uint256",
          "name": "",
          "type": "uint256"
        },
        {
          "internalType": "uint256",
          "name": "",
          "type": "uint256"
        }
      ],
      "stateMutability": "view",
      "type": "function"
    },
    {
      "inputs": [
        {
          "internalType": "uint256",
          "name": "PropId",
          "type": "uint256"
        },
        {
          "internalType": "address",
          "name": "voter",
          "type": "address"
        }
      ],
      "name": "retrieveVotesForVoter",
      "outputs": [
        {
          "internalType": "uint256",
          "name": "",
          "type": "uint256"
        }
      ],
      "stateMutability": "view",
      "type": "function"
    },
    {
      "inputs": [
        {
          "internalType": "bool",
          "name": "vote",
          "type": "bool"
        }
      ],
      "name": "voteProposition",
      "outputs": [],
      "stateMutability": "nonpayable",
      "type": "function"
    },
    {
      "inputs": [
        {
          "internalType": "address",
          "name": "voter",
          "type": "address"
        },
        {
          "internalType": "uint256",
          "name": "propID",
          "type": "uint256"
        },
        {
          "internalType": "bool",
          "name": "vote",
          "type": "bool"
        },
        {
          "internalType": "uint256",
          "name": "nonce",
          "type": "uint256"
        },
        {
          "internalType": "uint256",
          "name": "deadline",
          "type": "uint256"
        },
        {
          "internalType": "bytes",
          "name": "signature",
          "type": "bytes"
        }
      ],
      "name": "votePropositionOnBehalfOf",
      "outputs": [],
      "stateMutability": "nonpayable",
      "type": "function"
    },
    {
      "inputs": [
        {
          "internalType": "uint256",
          "name": "PublicPriceUSD",
          "type": "uint256"
        },
        {
          "internalType": "uint256",
          "name": "PrivatePriceUSD",
          "type": "uint256"
        },
        {
          "internalType": "uint256",
          "name": "ProviderPriceUSD",
          "type": "uint256"
        },
        {
          "internalType": "uint256",
          "name": "CertificatePriceUSD",
          "type": "uint256"
        },
        {
          "internalType": "uint256",
          "name": "OwnerRefundFeeUSD",
          "type": "uint256"
        },
        {
          "internalType": "address",
          "name": "managerContractAddress",
          "type": "address"
        },
        {
          "internalType": "address",
          "name": "chairPerson",
          "type": "address"
        },
        {
          "internalType": "string",
          "name": "contractName",
          "type": "string"
        },
        {
          "internalType": "string",
          "name": "contractVersion",
          "type": "string"
        }
      ],
      "name": "Treasury_init",
      "outputs": [],
      "stateMutability": "nonpayable",
      "type": "function"
    },
    {
      "inputs": [
        {
          "internalType": "uint256",
          "name": "PublicPriceUSD",
          "type": "uint256"
        },
        {
          "internalType": "uint256",
          "name": "PrivatePriceUSD",
          "type": "uint256"
        },
        {
          "internalType": "uint256",
          "name": "ProviderPriceUSD",
          "type": "uint256"
        },
        {
          "internalType": "uint256",
          "name": "CertificatePriceUSD",
          "type": "uint256"
        },
        {
          "internalType": "uint256",
          "name": "OwnerRefundFeeUSD",
          "type": "uint256"
        }
      ],
      "name": "updatePrices",
      "outputs": [],
      "stateMutability": "nonpayable",
      "type": "function"
    },
    {
      "inputs": [],
      "name": "retrieveProposition",
      "outputs": [
        {
          "internalType": "bytes32[]",
          "name": "",
          "type": "bytes32[]"
        }
      ],
      "stateMutability": "view",
      "type": "function"
    },
    {
      "inputs": [
        {
          "internalType": "enum Library.Prices",
          "name": "price",
          "type": "uint8"
        }
      ],
      "name": "pay",
      "outputs": [],
      "stateMutability": "payable",
      "type": "function"
    },
    {
      "inputs": [
        {
          "internalType": "address",
          "name": "addr",
          "type": "address"
        },
        {
          "internalType": "uint256",
          "name": "numberOfOwners",
          "type": "uint256"
        }
      ],
      "name": "getRefund",
      "outputs": [],
      "stateMutability": "nonpayable",
      "type": "function"
    },
    {
      "inputs": [
        {
          "internalType": "uint256",
          "name": "amount",
          "type": "uint256"
        }
      ],
      "name": "withdraw",
      "outputs": [],
      "stateMutability": "nonpayable",
      "type": "function"
    },
    {
      "inputs": [],
      "name": "withdrawAll",
      "outputs": [],
      "stateMutability": "nonpayable",
      "type": "function"
    },
    {
      "inputs": [
        {
          "internalType": "address",
          "name": "addr",
          "type": "address"
        }
      ],
      "name": "retrieveLastAssigned",
      "outputs": [
        {
          "internalType": "uint256",
          "name": "",
          "type": "uint256"
        }
      ],
      "stateMutability": "view",
      "type": "function"
    },
    {
      "inputs": [
        {
          "internalType": "address",
          "name": "addr",
          "type": "address"
        }
      ],
      "name": "retrieveFullBalance",
      "outputs": [
        {
          "internalType": "uint256",
          "name": "",
          "type": "uint256"
        }
      ],
      "stateMutability": "view",
      "type": "function"
    },
    {
      "inputs": [],
      "name": "retrievePrices",
      "outputs": [
        {
          "internalType": "uint256",
          "name": "",
          "type": "uint256"
        },
        {
          "internalType": "uint256",
          "name": "",
          "type": "uint256"
        },
        {
          "internalType": "uint256",
          "name": "",
          "type": "uint256"
        },
        {
          "internalType": "uint256",
          "name": "",
          "type": "uint256"
        },
        {
          "internalType": "uint256",
          "name": "",
          "type": "uint256"
        }
      ],
      "stateMutability": "view",
      "type": "function"
    },
    {
      "inputs": [],
      "name": "retrieveAggregatedAmount",
      "outputs": [
        {
          "internalType": "uint256",
          "name": "",
          "type": "uint256"
        }
      ],
      "stateMutability": "view",
      "type": "function"
    }
  ],
  "bytecode": "0x608060405234801561001057600080fd5b506130c3806100206000396000f3fe6080604052600436106101055760003560e01c806304cc67a91461010a57806325b4f3ca1461012e5780632e1a7d4d1461015b5780633c7df55d1461017d5780633feca4ca1461019d5780634044adb2146101f357806355457ee9146102365780635b362e841461024b57806368fe2d49146102785780637faa3d6f14610298578063840f6d17146102b8578063853828b61461030657806391f916711461031b57806396df6e791461033b578063a93316f51461035b578063d2116a021461037d578063d5920d49146103a0578063d6184d15146103b5578063db85bc4d146103eb578063e83988ff14610409578063eb1e2a4114610429578063f0c9325e14610449575b600080fd5b34801561011657600080fd5b50600b545b6040519081526020015b60405180910390f35b34801561013a57600080fd5b50601254601454601554601354601654604051610125959493929190612efd565b34801561016757600080fd5b5061017b610176366004612a7a565b61045c565b005b34801561018957600080fd5b5061017b610198366004612908565b610468565b3480156101a957600080fd5b506101e36101b8366004612949565b6001600160a01b03919091166000908152600260209081526040808320938352929052205460ff1690565b6040519015158152602001610125565b3480156101ff57600080fd5b5061011b61020e366004612a93565b6000918252600c602090815260408084206001600160a01b0393909316845291905290205490565b34801561024257600080fd5b5061017b610568565b34801561025757600080fd5b506003546201000090046001600160a01b03165b6040516101259190612d12565b34801561028457600080fd5b5061017b610293366004612afe565b61063a565b3480156102a457600080fd5b5061017b6102b3366004612975565b6106d3565b3480156102c457600080fd5b50600654600754600854600954600a54604080516001600160a01b0390961686526020860194909452928401919091526060830152608082015260a001610125565b34801561031257600080fd5b5061017b6106f3565b34801561032757600080fd5b5061017b610336366004612a06565b610709565b34801561034757600080fd5b5061017b610356366004612ac3565b610713565b34801561036757600080fd5b50610370610729565b6040516101259190612db3565b34801561038957600080fd5b50610392610a8e565b604051610125929190612e0a565b3480156103ac57600080fd5b5060175461011b565b3480156103c157600080fd5b5061011b6103d03660046128ce565b6001600160a01b031660009081526018602052604090205490565b3480156103f757600080fd5b506004546001600160a01b031661026b565b34801561041557600080fd5b5061011b6104243660046128ce565b610bb5565b34801561043557600080fd5b5061017b610444366004612949565b610bc6565b61017b610457366004612a59565b610e12565b6104658161114a565b50565b3373__Library_______________________________6337ea306382600360029054906101000a90046001600160a01b03166001600160a01b031663da3dce266040518163ffffffff1660e01b815260040160206040518083038186803b1580156104d257600080fd5b505afa1580156104e6573d6000803e3d6000fd5b505050506040513d601f19601f8201168201806040525081019061050a91906128eb565b6040518363ffffffff1660e01b8152600401610527929190612d26565b60006040518083038186803b15801561053f57600080fd5b505af4158015610553573d6000803e3d6000fd5b5050505061056284848461132c565b50505050565b60016105738161136c565b6006546040516337ea306360e01b8152339173__Library_______________________________916337ea3063916105b99185916001600160a01b031690600401612d26565b60006040518083038186803b1580156105d157600080fd5b505af41580156105e5573d6000803e3d6000fd5b505050506105f16113f0565b6006546005546040519081526001600160a01b03909116907f1fe8aec10c0a50fa765076161e08c1f961ced69594ff45cf7d559f593afe14799060200160405180910390a25050565b600354610100900460ff1680610653575060035460ff16155b6106785760405162461bcd60e51b815260040161066f90612e38565b60405180910390fd5b600354610100900460ff1615801561069a576003805461ffff19166101011790555b6106a68486858561141b565b6106b58a8a8a8a8a60016114bd565b80156106c7576003805461ff00191690555b50505050505050505050565b6106e1868686868686611547565b6106eb86856116a6565b505050505050565b60006106fe336117bd565b90506104658161114a565b61046533826116a6565b610722858585858560006114bd565b5050505050565b60408051600580825260c08201909252606091600091906020820160a0803683375050600d54604051631635719760e31b8152600481019190915291925073__UintLibrary___________________________9163b1ab8cb8915060240160206040518083038186803b15801561079f57600080fd5b505af41580156107b3573d6000803e3d6000fd5b505050506040513d601f19601f820116820180604052508101906107d79190612a40565b816000815181106107ea576107ea61303e565b6020908102919091010152600f54604051631635719760e31b8152600481019190915273__UintLibrary___________________________9063b1ab8cb89060240160206040518083038186803b15801561084457600080fd5b505af4158015610858573d6000803e3d6000fd5b505050506040513d601f19601f8201168201806040525081019061087c9190612a40565b8160018151811061088f5761088f61303e565b6020908102919091010152601054604051631635719760e31b8152600481019190915273__UintLibrary___________________________9063b1ab8cb89060240160206040518083038186803b1580156108e957600080fd5b505af41580156108fd573d6000803e3d6000fd5b505050506040513d601f19601f820116820180604052508101906109219190612a40565b816002815181106109345761093461303e565b6020908102919091010152600e54604051631635719760e31b8152600481019190915273__UintLibrary___________________________9063b1ab8cb89060240160206040518083038186803b15801561098e57600080fd5b505af41580156109a2573d6000803e3d6000fd5b505050506040513d601f19601f820116820180604052508101906109c69190612a40565b816003815181106109d9576109d961303e565b6020908102919091010152601154604051631635719760e31b8152600481019190915273__UintLibrary___________________________9063b1ab8cb89060240160206040518083038186803b158015610a3357600080fd5b505af4158015610a47573d6000803e3d6000fd5b505050506040513d601f19601f82011682018060405250810190610a6b9190612a40565b81600481518110610a7e57610a7e61303e565b6020908102919091010152919050565b60608060006001818054610aa190612fbc565b80601f0160208091040260200160405190810160405280929190818152602001828054610acd90612fbc565b8015610b1a5780601f10610aef57610100808354040283529160200191610b1a565b820191906000526020600020905b815481529060010190602001808311610afd57829003601f168201915b50505050509150808054610b2d90612fbc565b80601f0160208091040260200160405190810160405280929190818152602001828054610b5990612fbc565b8015610ba65780601f10610b7b57610100808354040283529160200191610ba6565b820191906000526020600020905b815481529060010190602001808311610b8957829003601f168201915b50505050509050915091509091565b6000610bc0826117bd565b92915050565b3373__Library_______________________________6337ea306382600360029054906101000a90046001600160a01b03166001600160a01b031663aa33380a6040518163ffffffff1660e01b815260040160206040518083038186803b158015610c3057600080fd5b505afa158015610c44573d6000803e3d6000fd5b505050506040513d601f19601f82011682018060405250810190610c6891906128eb565b6040518363ffffffff1660e01b8152600401610c85929190612d26565b60006040518083038186803b158015610c9d57600080fd5b505af4158015610cb1573d6000803e3d6000fd5b505050506000600360029054906101000a90046001600160a01b03166001600160a01b031663602554156040518163ffffffff1660e01b815260040160206040518083038186803b158015610d0557600080fd5b505afa158015610d19573d6000803e3d6000fd5b505050506040513d601f19601f82011682018060405250810190610d3d91906128eb565b6001600160a01b0316638d12420b6016546040518263ffffffff1660e01b8152600401610d6c91815260200190565b60206040518083038186803b158015610d8457600080fd5b505afa158015610d98573d6000803e3d6000fd5b505050506040513d601f19601f82011682018060405250810190610dbc9190612a40565b9050610dc98482856117e2565b836001600160a01b03167f885157c8ed39c012c67730d5e5d229068f71cac97d1658f5bf6593c8246dcc3c8285604051610e04929190612ed9565b60405180910390a250505050565b3481600019816003811115610e2957610e29613028565b610e365750601254610e81565b816003811115610e4857610e48613028565b60011415610e595750601454610e81565b816003811115610e6b57610e6b613028565b60021415610e7c5750601354610e81565b506015545b6000600360029054906101000a90046001600160a01b03166001600160a01b031663602554156040518163ffffffff1660e01b815260040160206040518083038186803b158015610ed157600080fd5b505afa158015610ee5573d6000803e3d6000fd5b505050506040513d601f19601f82011682018060405250810190610f0991906128eb565b6001600160a01b0316638d12420b836040518263ffffffff1660e01b8152600401610f3691815260200190565b60206040518083038186803b158015610f4e57600080fd5b505afa158015610f62573d6000803e3d6000fd5b505050506040513d601f19601f82011682018060405250810190610f869190612a40565b905080841015610fc15760405162461bcd60e51b815260040161066f906020808252600490820152634543322d60e01b604082015260600190565b346000866003811115610fd657610fd6613028565b14156110ee57600360029054906101000a90046001600160a01b03166001600160a01b031663602554156040518163ffffffff1660e01b815260040160206040518083038186803b15801561102a57600080fd5b505afa15801561103e573d6000803e3d6000fd5b505050506040513d601f19601f8201168201806040525081019061106291906128eb565b6001600160a01b0316638d12420b6016546040518263ffffffff1660e01b815260040161109191815260200190565b60206040518083038186803b1580156110a957600080fd5b505afa1580156110bd573d6000803e3d6000fd5b505050506040513d601f19601f820116820180604052508101906110e19190612a40565b6110eb9082612f79565b90505b80601760008282546111009190612f20565b909155505060175460405133917faef711f818f5d24f55a9c2d7da0afa5edd0420e1505ff8e60c344ce836e3e86e9161113a913491612ed9565b60405180910390a2505050505050565b803381611156826117bd565b101561118c5760405162461bcd60e51b8152602060048201526005602482015264454332302d60d81b604482015260640161066f565b6111953361187c565b60006111a033611902565b90506000806111ae33611971565b909250905060006111bf8288612f5a565b6111c99084612f79565b905060005b84518110156112525761124033611221338885815181106111f1576111f161303e565b60200260200101516001600160a01b03919091166000908152601960209081526040808320938352929052205490565b8784815181106112335761123361303e565b6020026020010151611a87565b8061124a81612ff7565b9150506111ce565b5061125e3382846117e2565b604051600090819033908a908381818185875af1925050503d80600081146112a2576040519150601f19603f3d011682016040523d82523d6000602084013e6112a7565b606091505b509150915081816040516020016112be9190612cbf565b604051602081830303815290604052906112eb5760405162461bcd60e51b815260040161066f9190612df7565b5060405189815233907f732ea8a38f70c2018ed8dfd6e97bf6381f60102061beae0ac4d9a5abd15a06029060200160405180910390a2505050505050505050565b611337838383611c7d565b6001600160a01b0383161561134f5761134f8361187c565b6001600160a01b03821615611367576113678261187c565b505050565b80156113b35761137a611c9a565b15156001146104655760405162461bcd60e51b8152602060048201526005602482015264454332352d60d81b604482015260640161066f565b6113bb611c9a565b156104655760405162461bcd60e51b8152602060048201526005602482015264454332342d60d81b604482015260640161066f565b60006005819055600680546001600160a01b0319169055600781905560088190556009819055600a55565b600354610100900460ff1680611434575060035460ff16155b6114505760405162461bcd60e51b815260040161066f90612e38565b600354610100900460ff16158015611472576003805461ffff19166101011790555b61147b84611cd4565b600480546001600160a01b0319166001600160a01b0387161790556000600b556114a58383611d63565b8015610722576003805461ff00191690555050505050565b8582808210156114f75760405162461bcd60e51b8152602060048201526005602482015264454332312d60d81b604482015260640161066f565b821561151b576012889055601487905560158690556013859055601684905561153d565b611523611d8a565b600d889055600e859055600f879055601086905560118490555b5050505050505050565b81611551816120de565b868461155d8282612115565b60055488146115965760405162461bcd60e51b8152602060048201526005602482015264454333352d60d81b604482015260640161066f565b60405163432f9a5560e01b815273__SignatureLibrary______________________9063432f9a55906115dd908c908c908c908c908c908c90600090600190600401612d40565b60206040518083038186803b1580156115f557600080fd5b505af4158015611609573d6000803e3d6000fd5b505050506040513d601f19601f8201168201806040525081019061162d9190612a23565b15156001146116665760405162461bcd60e51b8152602060048201526005602482015264454333322d60d81b604482015260640161066f565b61169b89876001600160a01b03909116600090815260026020908152604080832093835292905220805460ff19166001179055565b505050505050505050565b60016116b18161136c565b600554839060006116c28383612171565b9050600081116116fc5760405162461bcd60e51b8152602060048201526005602482015264454332332d60d81b604482015260640161066f565b600061170d87600560000154612171565b9050851561173557806005600401600082825461172a9190612f20565b9091555061174f9050565b806005800160008282546117499190612f20565b90915550505b60055461175d9088836121ae565b60055460408051918252871515602083015281018290526001600160a01b038816907f50f654d58981575c05e369cb129aeacb01e1b036af429380242cfc5d1a4b743f9060600160405180910390a26117b46121e0565b50505050505050565b60008060006117cb846122b6565b90925090506117da8183612f38565b949350505050565b8115611367576001600160a01b038316600090815260196020908152604080832084845290915290205461183f576001600160a01b0383166000908152601960209081526040822060019081018054918201815583529120018190555b6001600160a01b038316600090815260196020908152604080832084845290915281208054849290611872908490612f20565b9091555050505050565b60008061188883612318565b90925090508115611367576017546001600160a01b0384166000908152601860205260409020556118ba8383836117e2565b826001600160a01b03167fe983a49d27e04c64952da756088988cab0349d02969d01e8fecd907888b2e12083836040516118f5929190612ed9565b60405180910390a2505050565b6001600160a01b03811660009081526019602090815260409182902060010180548351818402810184019094528084526060939283018282801561196557602002820191906000526020600020905b815481526020019060010190808311611951575b50505050509050919050565b600080600061197f84611902565b9050600073__UintLibrary___________________________63f254becc836040518263ffffffff1660e01b81526004016119ba9190612db3565b60206040518083038186803b1580156119d257600080fd5b505af41580156119e6573d6000803e3d6000fd5b505050506040513d601f19601f82011682018060405250810190611a0a9190612a40565b90506000805b8351811015611a7c57838181518110611a2b57611a2b61303e565b602002602001015183611a4a898785815181106111f1576111f161303e565b611a549190612f5a565b611a5e9190612f38565b611a689083612f20565b915080611a7481612ff7565b915050611a10565b509590945092505050565b6001600160a01b0383166000908152601960209081526040808320848452909152902054821115611b055760405162461bcd60e51b815260206004820152602260248201527f4e6f7420656e6f7567682062616c616e636520666f722074686973206661637460448201526137b960f11b606482015260840161066f565b6001600160a01b038316600090815260196020908152604080832084845290915281208054849290611b38908490612f79565b90915550506001600160a01b0383166000908152601960209081526040808320848452909152902054611367576001600160a01b0383166000908152601960205260409081902090516362fe358160e11b815273__UintLibrary___________________________9163cffd93cd91839163c5fc6b0291611bc3918791600190910190600401612e86565b60206040518083038186803b158015611bdb57600080fd5b505af4158015611bef573d6000803e3d6000fd5b505050506040513d601f19601f82011682018060405250810190611c139190612a40565b6001600160a01b0386166000908152601960205260409081902090516001600160e01b031960e085901b168152611c51929160010190600401612ed9565b60006040518083038186803b158015611c6957600080fd5b505af41580156117b4573d6000803e3d6000fd5b611c85611c9a565b1515600114156113675761136783838361238f565b600754600090421015611cad5750600190565b6006546001600160a01b031615611cce57611cc66124f6565b611cce6113f0565b50600090565b600354610100900460ff1680611ced575060035460ff16155b611d095760405162461bcd60e51b815260040161066f90612e38565b600354610100900460ff16158015611d2b576003805461ffff19166101011790555b6003805462010000600160b01b031916620100006001600160a01b038516021790558015611d5f576003805461ff00191690555b5050565b8151611d7690600090602085019061278a565b50805161136790600190602084019061278a565b6000611d958161136c565b60045433906000906001600160a01b0316821415611db557506001611eee565b6000611dc0836124fe565b90506000600360029054906101000a90046001600160a01b03166001600160a01b03166387552a0d6040518163ffffffff1660e01b815260040160206040518083038186803b158015611e1257600080fd5b505afa158015611e26573d6000803e3d6000fd5b505050506040513d601f19601f82011682018060405250810190611e4a91906128eb565b6001600160a01b031663b049473f6040518163ffffffff1660e01b815260040160606040518083038186803b158015611e8257600080fd5b505afa158015611e96573d6000803e3d6000fd5b505050506040513d601f19601f82011682018060405250810190611eba9190612bb7565b925050506064611ec8612601565b611ed59060ff8416612f5a565b611edf9190612f38565b821115611eeb57600192505b50505b600181151514611f285760405162461bcd60e51b8152602060048201526005602482015264454332322d60d81b604482015260640161066f565b600080600360029054906101000a90046001600160a01b03166001600160a01b03166387552a0d6040518163ffffffff1660e01b815260040160206040518083038186803b158015611f7957600080fd5b505afa158015611f8d573d6000803e3d6000fd5b505050506040513d601f19601f82011682018060405250810190611fb191906128eb565b6001600160a01b031663b049473f6040518163ffffffff1660e01b815260040160606040518083038186803b158015611fe957600080fd5b505afa158015611ffd573d6000803e3d6000fd5b505050506040513d601f19601f820116820180604052508101906120219190612bb7565b50600680546001600160a01b0319163317905590925090506120438242612f20565b600755606460ff8216612054612601565b61205e9190612f5a565b6120689190612f38565b600855600b8054600581905590600061208083612ff7565b90915550506006546005546007546008546040516001600160a01b03909416937f472501d19bf75639b2e316cd36f8568b0c3ab943b82a87de3c086c98c1929df9936120cf9390929091612ee7565b60405180910390a25050505050565b8042106104655760405162461bcd60e51b8152602060048201526005602482015264454333332d60d81b604482015260640161066f565b6001600160a01b038216600090815260026020908152604080832084845290915290205460ff1615611d5f5760405162461bcd60e51b8152602060048201526005602482015264454333342d60d81b604482015260640161066f565b6000818152600c602090815260408083206001600160a01b038616845290915281205461219d846124fe565b6121a79190612f79565b9392505050565b6000838152600c602090815260408083206001600160a01b038616845290915281208054839290611872908490612f20565b6008546009541061224f576121f36126fe565b6121fb6113f0565b600654600554600954600a546040516001600160a01b03909416937f23ca0034cf5aad32571b4a492e9598ea8a490e1643a60970e3cdc6933b55e49f936122459390929091612ee7565b60405180910390a2565b600854600a54106122b4576122626124f6565b61226a6113f0565b600654600554600954600a546040516001600160a01b03909416937fa58eb6daa3c62c3f883973c4035e5bd3e81aa627c8379de068a7de42df122be2936122459390929091612ee7565b565b6000806000806122c585611971565b915091506000806122d587612318565b909250905060006122e68484612f5a565b6122f08387612f5a565b6122fa9190612f20565b905060006123088386612f5a565b9199919850909650505050505050565b6017546001600160a01b038216600090815260186020526040812054909182918291111561237c57612349846124fe565b6001600160a01b03851660009081526018602052604090205460175461236f9190612f79565b6123799190612f5a565b90505b80612385612601565b9250925050915091565b6001600160a01b038316158015906123cb57506005546000908152600c602090815260408083206001600160a01b038716845290915290205415155b15611367576005546000908152600c602090815260408083206001600160a01b0387168452909152902054819081111561242757506005546000908152600c602090815260408083206001600160a01b03871684529091529020545b6005546000908152600c602090815260408083206001600160a01b03881684529091528120805483929061245c908490612f79565b90915550506001600160a01b038316156124ab576005546000908152600c602090815260408083206001600160a01b0387168452909152812080548392906124a5908490612f20565b90915550505b600554604080516001600160a01b038088168252861660208201529081018390527f65fbd5e5dd32bea4aeca85bd0be0abf0e489d655dee888a7510d43b06dda2dba90606001610e04565b6122b461276f565b6000600360029054906101000a90046001600160a01b03166001600160a01b031663da3dce266040518163ffffffff1660e01b815260040160206040518083038186803b15801561254e57600080fd5b505afa158015612562573d6000803e3d6000fd5b505050506040513d601f19601f8201168201806040525081019061258691906128eb565b6001600160a01b03166370a08231836040518263ffffffff1660e01b81526004016125b19190612d12565b60206040518083038186803b1580156125c957600080fd5b505afa1580156125dd573d6000803e3d6000fd5b505050506040513d601f19601f82011682018060405250810190610bc09190612a40565b6000600360029054906101000a90046001600160a01b03166001600160a01b031663da3dce266040518163ffffffff1660e01b815260040160206040518083038186803b15801561265157600080fd5b505afa158015612665573d6000803e3d6000fd5b505050506040513d601f19601f8201168201806040525081019061268991906128eb565b6001600160a01b03166318160ddd6040518163ffffffff1660e01b815260040160206040518083038186803b1580156126c157600080fd5b505afa1580156126d5573d6000803e3d6000fd5b505050506040513d601f19601f820116820180604052508101906126f99190612a40565b905090565b600d54601255600f54601455601054601555600e5460135560115460165561272461276f565b7fbe8847d52fb3c03e3414e96d164a23594063f5b6cf01428e61c38bfbbc34ef19601254601454601554601354601654604051612765959493929190612efd565b60405180910390a1565b6000600d819055600e819055600f8190556010819055601155565b82805461279690612fbc565b90600052602060002090601f0160209004810192826127b857600085556127fe565b82601f106127d157805160ff19168380011785556127fe565b828001600101855582156127fe579182015b828111156127fe5782518255916020019190600101906127e3565b5061280a92915061280e565b5090565b5b8082111561280a576000815560010161280f565b60006001600160401b038084111561283d5761283d613054565b604051601f8501601f19908116603f0116810190828211818310171561286557612865613054565b8160405280935085815286868601111561287e57600080fd5b858560208301376000602087830101525050509392505050565b600082601f8301126128a957600080fd5b6121a783833560208501612823565b805160ff811681146128c957600080fd5b919050565b6000602082840312156128e057600080fd5b81356121a78161306a565b6000602082840312156128fd57600080fd5b81516121a78161306a565b60008060006060848603121561291d57600080fd5b83356129288161306a565b925060208401356129388161306a565b929592945050506040919091013590565b6000806040838503121561295c57600080fd5b82356129678161306a565b946020939093013593505050565b60008060008060008060c0878903121561298e57600080fd5b86356129998161306a565b95506020870135945060408701356129b08161307f565b9350606087013592506080870135915060a08701356001600160401b038111156129d957600080fd5b8701601f810189136129ea57600080fd5b6129f989823560208401612823565b9150509295509295509295565b600060208284031215612a1857600080fd5b81356121a78161307f565b600060208284031215612a3557600080fd5b81516121a78161307f565b600060208284031215612a5257600080fd5b5051919050565b600060208284031215612a6b57600080fd5b8135600481106121a757600080fd5b600060208284031215612a8c57600080fd5b5035919050565b60008060408385031215612aa657600080fd5b823591506020830135612ab88161306a565b809150509250929050565b600080600080600060a08688031215612adb57600080fd5b505083359560208501359550604085013594606081013594506080013592509050565b60008060008060008060008060006101208a8c031215612b1d57600080fd5b8935985060208a0135975060408a0135965060608a0135955060808a0135945060a08a0135612b4b8161306a565b935060c08a0135612b5b8161306a565b925060e08a01356001600160401b0380821115612b7757600080fd5b612b838d838e01612898565b93506101008c0135915080821115612b9a57600080fd5b50612ba78c828d01612898565b9150509295985092959850929598565b600080600060608486031215612bcc57600080fd5b83519250612bdc602085016128b8565b9150612bea604085016128b8565b90509250925092565b60008151808452612c0b816020860160208601612f90565b601f01601f19169290920160200192915050565b8054600090600181811c9080831680612c3957607f831692505b6020808410821415612c5b57634e487b7160e01b600052602260045260246000fd5b83885260208801828015612c765760018114612c8757612cb2565b60ff19871682528282019750612cb2565b60008981526020902060005b87811015612cac57815484820152908601908401612c93565b83019850505b5050505050505092915050565b7f4572726f72207472616e73666572696e672066756e647320746f206164647265815264039b9901d160dd1b602082015260008251612d05816025850160208701612f90565b9190910160250192915050565b6001600160a01b0391909116815260200190565b6001600160a01b0392831681529116602082015260400190565b600061010060018060a01b038b16835289602084015288151560408401528760608401528660808401528060a0840152612d7c81840187612bf3565b905082810360c0840152612d908186612c1f565b905082810360e0840152612da48185612c1f565b9b9a5050505050505050505050565b6020808252825182820181905260009190848201906040850190845b81811015612deb57835183529284019291840191600101612dcf565b50909695505050505050565b6020815260006121a76020830184612bf3565b604081526000612e1d6040830185612bf3565b8281036020840152612e2f8185612bf3565b95945050505050565b6020808252602e908201527f496e697469616c697a61626c653a20636f6e747261637420697320616c72656160408201526d191e481a5b9a5d1a585b1a5e995960921b606082015260800190565b60006040820184835260206040818501528185548084526060860191508660005282600020935060005b81811015612ecc57845483526001948501949284019201612eb0565b5090979650505050505050565b918252602082015260400190565b9283526020830191909152604082015260600190565b948552602085019390935260408401919091526060830152608082015260a00190565b60008219821115612f3357612f33613012565b500190565b600082612f5557634e487b7160e01b600052601260045260246000fd5b500490565b6000816000190483118215151615612f7457612f74613012565b500290565b600082821015612f8b57612f8b613012565b500390565b60005b83811015612fab578181015183820152602001612f93565b838111156105625750506000910152565b600181811c90821680612fd057607f821691505b60208210811415612ff157634e487b7160e01b600052602260045260246000fd5b50919050565b600060001982141561300b5761300b613012565b5060010190565b634e487b7160e01b600052601160045260246000fd5b634e487b7160e01b600052602160045260246000fd5b634e487b7160e01b600052603260045260246000fd5b634e487b7160e01b600052604160045260246000fd5b6001600160a01b038116811461046557600080fd5b801515811461046557600080fdfea264697066735822122009ffbc03ac4beb9ab8f88e23420abc64fe8845671ba7beb051ea007ac799e9dd64736f6c63430008070033",
  "immutableReferences": {},
  "source": "// SPDX-License-Identifier: GPL-3.0\r\n\r\npragma solidity 0.8.7;\r\n\r\n/**\r\n Treasury receives all the payments and assigns dividends to token holders.\r\n Public Certificate Pool contract can ask for its owners to eb refunded even if they do not own tokens.\r\n\r\n First dividends must be assigned to an account and then the account owner can withdraw the funds.\r\n Both actions must be triggered by the account owner.\r\n\r\n  Events : \r\n    - New Prices Added : list of prices\r\n    - Payment recieved : payer, amount, new total aggregated contract amount\r\n    - Refund : who, amount, among how many\r\n    - Assign Dividends : who, amount (number of tokens), among how many (total supply)\r\n    - Withdraw : who, how much\r\n */\r\n\r\nimport \"../Interfaces/ITreasury.sol\";\r\nimport \"../Interfaces/IPriceConverter.sol\";\r\nimport \"../Libraries/UintLibrary.sol\";\r\nimport \"../Libraries/Library.sol\";\r\nimport \"../Base/TokenGovernanceBaseContract.sol\";\r\nimport \"@openzeppelin/contracts-upgradeable/token/ERC20/IERC20Upgradeable.sol\";\r\n\r\n\r\ncontract Treasury is ITreasury, TokenGovernanceBaseContract{\r\n    using Library for *;\r\n    using UintLibrary for *;\r\n\r\n    // EVENTS /////////////////////////////////////////\r\n    event _NewPrices(uint Public, uint Private, uint Provider, uint Certificate, uint OwnerRefund);\r\n    event _Pay(address indexed Payer, uint Amount, uint AggregatedAmount);\r\n    event _Refund(address indexed Owner, uint Amount, uint TotalOwners);\r\n    event _AssignDividend(address indexed Recipient, uint Amount, uint TotalSupply);\r\n    event _Withdraw(address indexed Recipient, uint Amount);\r\n\r\n    // DATA /////////////////////////////////////////\r\n    // proposition to change prices\r\n    struct ProposedPricesStruct{\r\n        uint NewPublicPriceUSD;\r\n        uint NewCertificatePriceUSD;\r\n        uint NewPrivatePriceUSD;\r\n        uint NewProviderPriceUSD;\r\n        uint NewOwnerRefundFeeUSD;\r\n    }\r\n\r\n    ProposedPricesStruct private _ProposedPrices;\r\n\r\n    // prices parameters usd\r\n    uint private _PublicPriceUSD;\r\n    uint private _CertificatePriceUSD;\r\n    uint private _PrivatePriceUSD;\r\n    uint private _ProviderPriceUSD;\r\n    uint private _OwnerRefundFeeUSD;\r\n\r\n    // last amount at which dividends where assigned for each token owner\r\n    uint private _AggregatedDividendAmount;\r\n    mapping(address => uint) private _lastAssigned;\r\n\r\n    // dividends per token owner\r\n    struct _BalanceStruct{\r\n        mapping(uint => uint) _balance;\r\n        uint[] _factors;\r\n    }\r\n    \r\n    mapping(address => _BalanceStruct) private _balances;\r\n\r\n    // MODIFIERS /////////////////////////////////////////\r\n    modifier areFundsEnough(uint256 value, Library.Prices price){\r\n        uint256 minPriceUSD = 2**256 - 1;\r\n\r\n        if(Library.Prices.NewProvider == price) minPriceUSD = _PublicPriceUSD;\r\n        else if(Library.Prices.NewPool == price) minPriceUSD = _PrivatePriceUSD;\r\n        else if(Library.Prices.NewCertificate == price) minPriceUSD = _CertificatePriceUSD;\r\n        else minPriceUSD = _ProviderPriceUSD;\r\n\r\n        uint256 minPriceETH = IPriceConverter(_managerContract.retrievePriceConverterProxy()).fromUSDToETH(minPriceUSD);\r\n\r\n        require(value >= minPriceETH, \"EC2-\");\r\n        _;\r\n    }\r\n\r\n    modifier isBalanceEnough(uint amount, address addr){\r\n        require(checkFullBalance(addr) >= amount, \"EC20-\");\r\n        _;\r\n    }\r\n\r\n    modifier isFromPublicPool(address addr){\r\n        Library.ItIsSomeone(addr, _managerContract.retrievePublicCertificatePoolProxy());\r\n        _;\r\n    }\r\n\r\n    modifier isPriceOK(uint256 PublicPriceUSD, uint256 OwnerRefundFeeUSD){\r\n        require(PublicPriceUSD >= OwnerRefundFeeUSD, \"EC21-\");\r\n        _;\r\n    }\r\n    \r\n    // CONSTRUCTOR /////////////////////////////////////////\r\n    function Treasury_init(uint256 PublicPriceUSD, uint256 PrivatePriceUSD, uint256 ProviderPriceUSD, uint256 CertificatePriceUSD, uint256 OwnerRefundFeeUSD, address managerContractAddress, address chairPerson, string memory contractName, string memory contractVersion) public initializer \r\n    {\r\n        super.TokenGovernanceContract_init(chairPerson, managerContractAddress, contractName, contractVersion);\r\n        InternalupdatePrices(PublicPriceUSD, PrivatePriceUSD, ProviderPriceUSD, CertificatePriceUSD, OwnerRefundFeeUSD, true);\r\n    }\r\n\r\n    // GOVERNANCE /////////////////////////////////////////\r\n    function updatePrices(uint256 PublicPriceUSD, uint256 PrivatePriceUSD, uint256 ProviderPriceUSD, uint256 CertificatePriceUSD, uint256 OwnerRefundFeeUSD) external override\r\n    {\r\n        InternalupdatePrices(PublicPriceUSD, PrivatePriceUSD, ProviderPriceUSD, CertificatePriceUSD, OwnerRefundFeeUSD, false);\r\n    }\r\n\r\n    function InternalupdatePrices(uint256 PublicPriceUSD, uint256 PrivatePriceUSD, uint256 ProviderPriceUSD, uint256 CertificatePriceUSD, uint256 OwnerRefundFeeUSD, bool fromConstructor) internal\r\n        isPriceOK(PublicPriceUSD, OwnerRefundFeeUSD)\r\n    {\r\n        if(fromConstructor){\r\n            _PublicPriceUSD = PublicPriceUSD;\r\n            _PrivatePriceUSD = PrivatePriceUSD;\r\n            _ProviderPriceUSD = ProviderPriceUSD;\r\n            _CertificatePriceUSD = CertificatePriceUSD;\r\n            _OwnerRefundFeeUSD = OwnerRefundFeeUSD;\r\n        }\r\n        else{\r\n            addProposition();\r\n            _ProposedPrices.NewPublicPriceUSD = PublicPriceUSD;\r\n            _ProposedPrices.NewCertificatePriceUSD = CertificatePriceUSD;\r\n            _ProposedPrices.NewPrivatePriceUSD = PrivatePriceUSD;\r\n            _ProposedPrices.NewProviderPriceUSD = ProviderPriceUSD;\r\n            _ProposedPrices.NewOwnerRefundFeeUSD = OwnerRefundFeeUSD;\r\n        }\r\n        \r\n    }\r\n\r\n    function propositionApproved() internal override\r\n    {\r\n        _PublicPriceUSD = _ProposedPrices.NewPublicPriceUSD;\r\n        _PrivatePriceUSD = _ProposedPrices.NewPrivatePriceUSD;\r\n        _ProviderPriceUSD = _ProposedPrices.NewProviderPriceUSD;\r\n        _CertificatePriceUSD = _ProposedPrices.NewCertificatePriceUSD;\r\n        _OwnerRefundFeeUSD = _ProposedPrices.NewOwnerRefundFeeUSD;\r\n        \r\n        removeProposition();\r\n\r\n        emit _NewPrices(_PublicPriceUSD, _PrivatePriceUSD, _ProviderPriceUSD, _CertificatePriceUSD, _OwnerRefundFeeUSD);\r\n    }\r\n\r\n    function propositionRejected() internal override\r\n    {\r\n        removeProposition();\r\n    }\r\n\r\n    function propositionExpired() internal override\r\n    {\r\n        removeProposition();\r\n    }\r\n\r\n    function removeProposition() internal\r\n    {\r\n         delete(_ProposedPrices);\r\n    }\r\n\r\n    function retrieveProposition() external override view returns(bytes32[] memory)\r\n    {\r\n        bytes32[] memory proposition = new bytes32[](5);\r\n        proposition[0] = UintLibrary.UintToBytes32(_ProposedPrices.NewPublicPriceUSD);\r\n        proposition[1] = UintLibrary.UintToBytes32(_ProposedPrices.NewPrivatePriceUSD);\r\n        proposition[2] = UintLibrary.UintToBytes32(_ProposedPrices.NewProviderPriceUSD);\r\n        proposition[3] = UintLibrary.UintToBytes32(_ProposedPrices.NewCertificatePriceUSD);\r\n        proposition[4] = UintLibrary.UintToBytes32(_ProposedPrices.NewOwnerRefundFeeUSD);\r\n        return proposition;\r\n    }\r\n\r\n    // FUNCTIONALITY /////////////////////////////////////////\r\n    function pay(Library.Prices price) external \r\n        areFundsEnough(msg.value, price)\r\n    override payable\r\n    {\r\n        uint256 amount = msg.value;\r\n        if(price == Library.Prices.NewProvider) amount -= IPriceConverter(_managerContract.retrievePriceConverterProxy()).fromUSDToETH(_OwnerRefundFeeUSD);\r\n        _AggregatedDividendAmount += amount;\r\n\r\n        emit _Pay(msg.sender, msg.value, _AggregatedDividendAmount);\r\n    }\r\n\r\n    function InternalonTokenBalanceChanged(address from, address to, uint256 amount) internal override\r\n    {\r\n        super.InternalonTokenBalanceChanged(from, to, amount);\r\n        if(address(0) != from) InternalAssignDividends(from);\r\n        if(address(0) != to) InternalAssignDividends(to);\r\n    }\r\n\r\n    function InternalAssignDividends(address recipient) internal\r\n    {\r\n        (uint totalOffBalance, uint DividendOffBalance) = sumUpTotalOffBalance(recipient);\r\n\r\n        if(totalOffBalance > 0){\r\n           _lastAssigned[recipient] = _AggregatedDividendAmount;\r\n           addBalance(recipient, totalOffBalance, DividendOffBalance);\r\n           \r\n           emit _AssignDividend(recipient, totalOffBalance, DividendOffBalance);\r\n        }\r\n    }\r\n\r\n    function getRefund(address addr, uint numberOfOwners) external \r\n        isFromPublicPool(msg.sender)\r\n    override\r\n    {\r\n        uint OwnerRefundFeeWei = IPriceConverter(_managerContract.retrievePriceConverterProxy()).fromUSDToETH(_OwnerRefundFeeUSD);\r\n        addBalance(addr, OwnerRefundFeeWei, numberOfOwners);\r\n\r\n        emit _Refund(addr, OwnerRefundFeeWei, numberOfOwners);\r\n    }\r\n\r\n    function withdraw(uint amount) external \r\n    override\r\n    {\r\n        InternalWithdraw(amount);\r\n    }\r\n\r\n    function withdrawAll() external override\r\n    {\r\n        uint All = checkFullBalance(msg.sender);\r\n        InternalWithdraw(All);\r\n    }\r\n\r\n    function InternalWithdraw(uint amount) internal \r\n        isBalanceEnough(amount, msg.sender)\r\n    {\r\n        InternalAssignDividends(msg.sender);\r\n        uint[] memory f = returnFactors(msg.sender);\r\n        (uint total, uint commonDividend) = sumUpTotalOnBalance(msg.sender);\r\n        uint remainder =  total - (amount * commonDividend);\r\n\r\n        for(uint i=0; i < f.length; i++){\r\n            substractBalance(msg.sender, returnBalanceForFactor(msg.sender, f[i]), f[i]);\r\n        }\r\n\r\n        addBalance(msg.sender, remainder, commonDividend);\r\n\r\n        (bool success, bytes memory data) = msg.sender.call{value: amount}(\"\");\r\n        require(success, string(abi.encodePacked(\"Error transfering funds to address : \", data)));\r\n\r\n        emit _Withdraw(msg.sender, amount);\r\n    }\r\n\r\n    function retrieveLastAssigned(address addr) external override view returns(uint)\r\n    {\r\n        return _lastAssigned[addr];\r\n    }\r\n\r\n    function retrieveFullBalance(address addr) external override view returns(uint)\r\n    {\r\n        return checkFullBalance(addr);\r\n    }\r\n\r\n    function retrievePrices() external override view returns(uint, uint, uint, uint, uint)\r\n    {\r\n        return(_PublicPriceUSD, _PrivatePriceUSD, _ProviderPriceUSD, _CertificatePriceUSD, _OwnerRefundFeeUSD);\r\n    }\r\n\r\n    function retrieveAggregatedAmount() external override view returns(uint){\r\n        return _AggregatedDividendAmount;\r\n    }\r\n\r\n    function checkFullBalance(address addr) internal view returns(uint){\r\n        (uint total, uint commonDividend) = sumUpTotal(addr);\r\n\r\n        return total / commonDividend;\r\n    }\r\n\r\n    function sumUpTotal(address addr) internal view returns (uint, uint)\r\n    {\r\n        (uint totalOnBalance, uint commonDividendOnBalance) = sumUpTotalOnBalance(addr);\r\n        (uint totalOffBalance, uint DividendOffBalance) = sumUpTotalOffBalance(addr);\r\n\r\n        uint total = (totalOnBalance * DividendOffBalance) + (totalOffBalance * commonDividendOnBalance);\r\n        uint CommonDividend = commonDividendOnBalance * DividendOffBalance;\r\n\r\n        return (total, CommonDividend);\r\n    }\r\n\r\n    function sumUpTotalOnBalance(address addr) internal view returns (uint, uint)\r\n    {\r\n        uint[] memory f = returnFactors(addr);\r\n        uint CommonDividend = UintLibrary.ProductOfFactors(f);\r\n        uint total = 0;\r\n\r\n        for(uint i=0; i < f.length; i++){\r\n            total += returnBalanceForFactor(addr, f[i]) * CommonDividend / f[i];\r\n        }\r\n\r\n        return (total, CommonDividend);\r\n    }\r\n\r\n    function sumUpTotalOffBalance(address addr) internal view returns (uint, uint)\r\n    {\r\n        uint total = 0;\r\n\r\n        if(_lastAssigned[addr] < _AggregatedDividendAmount)\r\n        {\r\n            total = (_AggregatedDividendAmount - _lastAssigned[addr]) * GetTokensBalance(addr);           \r\n        }\r\n\r\n        return (total, totalSupply());\r\n    }\r\n\r\n    function returnFactors(address addr) internal view returns(uint[] memory){\r\n        return _balances[addr]._factors;\r\n    }\r\n\r\n    function returnBalanceForFactor(address addr, uint factor) internal view returns(uint){\r\n        return _balances[addr]._balance[factor];\r\n    }\r\n\r\n    function addBalance(address addr, uint amount, uint factor) internal\r\n    {\r\n        if(amount > 0){\r\n            if(0 == _balances[addr]._balance[factor])\r\n            {\r\n                _balances[addr]._factors.push(factor);\r\n            }\r\n            _balances[addr]._balance[factor] += amount;\r\n        }\r\n    }\r\n\r\n    function substractBalance(address addr, uint amount, uint factor) internal\r\n    {\r\n        require(_balances[addr]._balance[factor] >= amount, \"Not enough balance for this factor\");\r\n\r\n        _balances[addr]._balance[factor] -= amount;\r\n\r\n        if(0 == _balances[addr]._balance[factor])\r\n        {\r\n            UintLibrary.UintArrayRemoveResize(UintLibrary.FindUintPosition(factor, _balances[addr]._factors), _balances[addr]._factors);\r\n        }\r\n        \r\n    }\r\n\r\n}",
  "sourcePath": "C:/Users/d-aam/GitHub/Certificates/contracts/DeployedContracts/Treasury.sol",
  "compiler": {
    "name": "solc",
    "version": "0.8.7+commit.e28d00a7.Emscripten.clang"
  },
  "schemaVersion": "3.3.4",
  "updatedAt": "2021-10-27T11:53:43.722Z",
  "devdoc": {
    "kind": "dev",
    "methods": {},
    "version": 1
  },
  "userdoc": {
    "kind": "user",
    "methods": {},
    "version": 1
  }
}