{
  "contractName": "Treasury",
  "abi": [
    {
      "anonymous": false,
      "inputs": [
        {
          "indexed": true,
          "internalType": "address",
          "name": "",
          "type": "address"
        },
        {
          "indexed": false,
          "internalType": "uint256",
          "name": "",
          "type": "uint256"
        },
        {
          "indexed": false,
          "internalType": "uint256",
          "name": "",
          "type": "uint256"
        },
        {
          "indexed": false,
          "internalType": "address[]",
          "name": "",
          "type": "address[]"
        },
        {
          "indexed": false,
          "internalType": "uint256[]",
          "name": "",
          "type": "uint256[]"
        }
      ],
      "name": "_AddedProposition",
      "type": "event"
    },
    {
      "anonymous": false,
      "inputs": [
        {
          "indexed": true,
          "internalType": "address",
          "name": "",
          "type": "address"
        }
      ],
      "name": "_CancelledProposition",
      "type": "event"
    },
    {
      "anonymous": false,
      "inputs": [
        {
          "indexed": false,
          "internalType": "uint256",
          "name": "",
          "type": "uint256"
        },
        {
          "indexed": false,
          "internalType": "uint256",
          "name": "",
          "type": "uint256"
        },
        {
          "indexed": false,
          "internalType": "uint256",
          "name": "",
          "type": "uint256"
        },
        {
          "indexed": false,
          "internalType": "uint256",
          "name": "",
          "type": "uint256"
        },
        {
          "indexed": false,
          "internalType": "uint256",
          "name": "",
          "type": "uint256"
        }
      ],
      "name": "_NewPrices",
      "type": "event"
    },
    {
      "anonymous": false,
      "inputs": [
        {
          "indexed": true,
          "internalType": "address",
          "name": "",
          "type": "address"
        },
        {
          "indexed": false,
          "internalType": "uint256",
          "name": "",
          "type": "uint256"
        }
      ],
      "name": "_Pay",
      "type": "event"
    },
    {
      "anonymous": false,
      "inputs": [
        {
          "indexed": true,
          "internalType": "address",
          "name": "",
          "type": "address"
        },
        {
          "indexed": false,
          "internalType": "uint256",
          "name": "",
          "type": "uint256"
        },
        {
          "indexed": false,
          "internalType": "uint256",
          "name": "",
          "type": "uint256"
        },
        {
          "indexed": false,
          "internalType": "address[]",
          "name": "",
          "type": "address[]"
        }
      ],
      "name": "_PropositionApproved",
      "type": "event"
    },
    {
      "anonymous": false,
      "inputs": [
        {
          "indexed": true,
          "internalType": "address",
          "name": "",
          "type": "address"
        },
        {
          "indexed": false,
          "internalType": "uint256",
          "name": "",
          "type": "uint256"
        },
        {
          "indexed": false,
          "internalType": "uint256",
          "name": "",
          "type": "uint256"
        },
        {
          "indexed": false,
          "internalType": "address[]",
          "name": "",
          "type": "address[]"
        }
      ],
      "name": "_PropositionRejected",
      "type": "event"
    },
    {
      "anonymous": false,
      "inputs": [
        {
          "indexed": true,
          "internalType": "address",
          "name": "",
          "type": "address"
        },
        {
          "indexed": false,
          "internalType": "uint256",
          "name": "",
          "type": "uint256"
        }
      ],
      "name": "_Refund",
      "type": "event"
    },
    {
      "anonymous": false,
      "inputs": [
        {
          "indexed": true,
          "internalType": "address",
          "name": "",
          "type": "address"
        },
        {
          "indexed": false,
          "internalType": "uint256",
          "name": "",
          "type": "uint256"
        }
      ],
      "name": "_Withdraw",
      "type": "event"
    },
    {
      "inputs": [],
      "name": "cancelProposition",
      "outputs": [],
      "stateMutability": "nonpayable",
      "type": "function"
    },
    {
      "inputs": [],
      "name": "retrievePropConfig",
      "outputs": [
        {
          "internalType": "uint256",
          "name": "",
          "type": "uint256"
        },
        {
          "internalType": "uint8",
          "name": "",
          "type": "uint8"
        },
        {
          "internalType": "uint8",
          "name": "",
          "type": "uint8"
        }
      ],
      "stateMutability": "view",
      "type": "function"
    },
    {
      "inputs": [],
      "name": "retrievePropositionStatus",
      "outputs": [
        {
          "internalType": "address",
          "name": "",
          "type": "address"
        },
        {
          "internalType": "uint256",
          "name": "",
          "type": "uint256"
        },
        {
          "internalType": "uint256",
          "name": "",
          "type": "uint256"
        },
        {
          "internalType": "uint256",
          "name": "",
          "type": "uint256"
        },
        {
          "internalType": "uint256",
          "name": "",
          "type": "uint256"
        },
        {
          "internalType": "address[]",
          "name": "",
          "type": "address[]"
        },
        {
          "internalType": "uint256[]",
          "name": "",
          "type": "uint256[]"
        },
        {
          "internalType": "address[]",
          "name": "",
          "type": "address[]"
        }
      ],
      "stateMutability": "view",
      "type": "function"
    },
    {
      "inputs": [
        {
          "internalType": "uint256",
          "name": "PropLifeTime",
          "type": "uint256"
        },
        {
          "internalType": "uint8",
          "name": "PropThresholdPerc",
          "type": "uint8"
        },
        {
          "internalType": "uint8",
          "name": "minWeightToPropPerc",
          "type": "uint8"
        }
      ],
      "name": "updateProp",
      "outputs": [],
      "stateMutability": "nonpayable",
      "type": "function"
    },
    {
      "inputs": [
        {
          "internalType": "bool",
          "name": "vote",
          "type": "bool"
        }
      ],
      "name": "voteProposition",
      "outputs": [],
      "stateMutability": "nonpayable",
      "type": "function"
    },
    {
      "inputs": [
        {
          "internalType": "uint256",
          "name": "PublicPriceWei",
          "type": "uint256"
        },
        {
          "internalType": "uint256",
          "name": "PrivatePriceWei",
          "type": "uint256"
        },
        {
          "internalType": "uint256",
          "name": "ProviderPriceWei",
          "type": "uint256"
        },
        {
          "internalType": "uint256",
          "name": "CertificatePriceWei",
          "type": "uint256"
        },
        {
          "internalType": "uint256",
          "name": "OwnerRefundPriceWei",
          "type": "uint256"
        },
        {
          "internalType": "address",
          "name": "managerContractAddress",
          "type": "address"
        },
        {
          "internalType": "uint256",
          "name": "PropositionLifeTime",
          "type": "uint256"
        },
        {
          "internalType": "uint8",
          "name": "PropositionThresholdPercentage",
          "type": "uint8"
        },
        {
          "internalType": "uint8",
          "name": "minWeightToProposePercentage",
          "type": "uint8"
        }
      ],
      "name": "Treasury_init",
      "outputs": [],
      "stateMutability": "nonpayable",
      "type": "function"
    },
    {
      "inputs": [
        {
          "internalType": "uint256",
          "name": "PublicPriceWei",
          "type": "uint256"
        },
        {
          "internalType": "uint256",
          "name": "PrivatePriceWei",
          "type": "uint256"
        },
        {
          "internalType": "uint256",
          "name": "ProviderPriceWei",
          "type": "uint256"
        },
        {
          "internalType": "uint256",
          "name": "CertificatePriceWei",
          "type": "uint256"
        },
        {
          "internalType": "uint256",
          "name": "OwnerRefundPriceWei",
          "type": "uint256"
        }
      ],
      "name": "updatePrices",
      "outputs": [],
      "stateMutability": "nonpayable",
      "type": "function"
    },
    {
      "inputs": [],
      "name": "retrieveProposition",
      "outputs": [
        {
          "internalType": "bytes32[]",
          "name": "",
          "type": "bytes32[]"
        }
      ],
      "stateMutability": "view",
      "type": "function"
    },
    {
      "inputs": [
        {
          "internalType": "enum Library.Prices",
          "name": "price",
          "type": "uint8"
        }
      ],
      "name": "pay",
      "outputs": [],
      "stateMutability": "payable",
      "type": "function"
    },
    {
      "inputs": [
        {
          "internalType": "address",
          "name": "recipient",
          "type": "address"
        }
      ],
      "name": "AssignDividends",
      "outputs": [],
      "stateMutability": "nonpayable",
      "type": "function"
    },
    {
      "inputs": [],
      "name": "AssignDividends",
      "outputs": [],
      "stateMutability": "nonpayable",
      "type": "function"
    },
    {
      "inputs": [
        {
          "internalType": "address",
          "name": "addr",
          "type": "address"
        },
        {
          "internalType": "uint256",
          "name": "numberOfOwners",
          "type": "uint256"
        }
      ],
      "name": "getRefund",
      "outputs": [],
      "stateMutability": "nonpayable",
      "type": "function"
    },
    {
      "inputs": [
        {
          "internalType": "uint256",
          "name": "amount",
          "type": "uint256"
        }
      ],
      "name": "withdraw",
      "outputs": [],
      "stateMutability": "nonpayable",
      "type": "function"
    },
    {
      "inputs": [
        {
          "internalType": "address",
          "name": "addr",
          "type": "address"
        }
      ],
      "name": "retrieveBalance",
      "outputs": [
        {
          "internalType": "uint256",
          "name": "",
          "type": "uint256"
        }
      ],
      "stateMutability": "view",
      "type": "function"
    },
    {
      "inputs": [],
      "name": "retrievePrices",
      "outputs": [
        {
          "internalType": "uint256",
          "name": "",
          "type": "uint256"
        },
        {
          "internalType": "uint256",
          "name": "",
          "type": "uint256"
        },
        {
          "internalType": "uint256",
          "name": "",
          "type": "uint256"
        },
        {
          "internalType": "uint256",
          "name": "",
          "type": "uint256"
        },
        {
          "internalType": "uint256",
          "name": "",
          "type": "uint256"
        }
      ],
      "stateMutability": "view",
      "type": "function"
    },
    {
      "inputs": [
        {
          "internalType": "address",
          "name": "addr",
          "type": "address"
        }
      ],
      "name": "returnFactors",
      "outputs": [
        {
          "internalType": "uint256[]",
          "name": "",
          "type": "uint256[]"
        }
      ],
      "stateMutability": "view",
      "type": "function"
    },
    {
      "inputs": [
        {
          "internalType": "address",
          "name": "addr",
          "type": "address"
        },
        {
          "internalType": "uint256",
          "name": "factor",
          "type": "uint256"
        }
      ],
      "name": "returnBalanceForFactor",
      "outputs": [
        {
          "internalType": "uint256",
          "name": "",
          "type": "uint256"
        }
      ],
      "stateMutability": "view",
      "type": "function"
    }
  ],
  "bytecode": "0x608060405234801561001057600080fd5b50612c03806100206000396000f3fe6080604052600436106100ce5760003560e01c806325b4f3ca146100d35780632e1a7d4d1461010957806355457ee91461012b578063840f6d1714610140578063906816d71461016957806391f9167114610197578063922ebecc146101b757806396df6e79146101d7578063a93316f5146101f7578063ac2bb44214610219578063c56cb58014610239578063c931c2b114610266578063d40a523614610286578063d660ab341461029b578063e20f37ad146102d4578063eb1e2a41146102f4578063f0c9325e14610314575b600080fd5b3480156100df57600080fd5b50601354601554601654601454601754604051610100959493929190612a51565b60405180910390f35b34801561011557600080fd5b5061012961012436600461256d565b610327565b005b34801561013757600080fd5b50610129610539565b34801561014c57600080fd5b506101556105d1565b6040516101009897969594939291906127f0565b34801561017557600080fd5b506101896101843660046123c6565b610741565b604051908152602001610100565b3480156101a357600080fd5b506101296101b23660046124f9565b610769565b3480156101c357600080fd5b506101296101d23660046125c1565b610a0e565b3480156101e357600080fd5b506101296101f2366004612586565b610a9f565b34801561020357600080fd5b5061020c610ab5565b6040516101009190612861565b34801561022557600080fd5b50610129610234366004612641565b610e1a565b34801561024557600080fd5b5061025961025436600461238c565b610e2c565b60405161010091906128a5565b34801561027257600080fd5b5061012961028136600461238c565b610e9b565b34801561029257600080fd5b50610129610fd4565b3480156102a757600080fd5b50600a54600b546040805192835260ff808316602085015261010090920490911690820152606001610100565b3480156102e057600080fd5b506101896102ef36600461238c565b610fdf565b34801561030057600080fd5b5061012961030f3660046123c6565b610ff0565b61012961032236600461254c565b611171565b808061033233611289565b10156103725760405162461bcd60e51b8152600401610369906020808252600490820152630454332360e41b604082015260600190565b60405180910390fd5b600061037d33610e2c565b90506000805b84821080156103925750825181105b156104625760006103de6103bf338685815181106103b2576103b2612b7e565b6020026020010151610741565b8584815181106103d1576103d1612b7e565b60200260200101516112e2565b90506103ea86846112f5565b8111156103fe576103fb86846112f5565b90505b6104088382611301565b5061044f336104308387868151811061042357610423612b7e565b602002602001015161130d565b86858151811061044257610442612b7e565b6020026020010151611319565b8161045981612b37565b92505050610383565b8482146104cf5760405162461bcd60e51b815260206004820152603560248201527f556e45787065637465642070726f626c656d2063616c63756c6174696e672074604482015274686520616d6f756e7420746f20776974686472617760581b6064820152608401610369565b604051339083156108fc029084906000818181858888f193505050501580156104fc573d6000803e3d6000fd5b5060405182815233907f732ea8a38f70c2018ed8dfd6e97bf6381f60102061beae0ac4d9a5abd15a06029060200160405180910390a25050505050565b6001610543611565565b15156001146105645760405162461bcd60e51b815260040161036990612924565b6002546001600160a01b0316331461058e5760405162461bcd60e51b8152600401610369906128b8565b61059661159f565b6002546040516001600160a01b03909116907fd02d53732621ad6e6d3d9370823f4968cd23613cf89dd88e10a74c7f88ebd54e90600090a250565b60008060008060006060806060600260000160009054906101000a90046001600160a01b031660026001015460028001546002600301546002600401546002600501600260060160026007018280548060200260200160405190810160405280929190818152602001828054801561067257602002820191906000526020600020905b81546001600160a01b03168152600190910190602001808311610654575b50505050509250818054806020026020016040519081016040528092919081815260200182805480156106c457602002820191906000526020600020905b8154815260200190600101908083116106b0575b505050505091508080548060200260200160405190810160405280929190818152602001828054801561072057602002820191906000526020600020905b81546001600160a01b03168152600190910190602001808311610702575b50505050509050975097509750975097509750975097509091929394959697565b6001600160a01b03919091166000908152601a60209081526040808320938352929052205490565b6001610773611565565b15156001146107945760405162461bcd60e51b815260040161036990612924565b6107fb3360026005018054806020026020016040519081016040528092919081815260200182805480156107f157602002820191906000526020600020905b81546001600160a01b031681526001909101906020018083116107d3575b50505050506115ec565b15156001146108355760405162461bcd60e51b8152600401610369906020808252600490820152634543323360e01b604082015260600190565b60405163f7cf62d760e01b815273__AddressLibrary________________________9063f7cf62d79061086f90339060099060040161279f565b60206040518083038186803b15801561088757600080fd5b505af415801561089b573d6000803e3d6000fd5b505050506040513d601f19601f820116820180604052508101906108bf9190612516565b156108f25760405162461bcd60e51b815260206004820152600360248201526245433560e81b6044820152606401610369565b6003544210156109e057600980546001810182556000919091527f6e1540171b6c0c960b71a7020d9f60077f6af931a8bbf590da0223dacf75c7af0180546001600160a01b03191633179055811561099157600861095733610952611602565b611706565b8154811061096757610967612b7e565b9060005260206000200154600260030160008282546109869190612ac7565b909155506109d49050565b600861099f33610952611602565b815481106109af576109af612b7e565b9060005260206000200154600260040160008282546109ce9190612ac7565b90915550505b6109dc611795565b5050565b600b5462010000900460ff16156109fe576109f96118d1565b610a06565b610a066118ef565b6109dc61159f565b600054610100900460ff1680610a27575060005460ff16155b610a435760405162461bcd60e51b8152600401610369906128d6565b600054610100900460ff16158015610a65576000805461ffff19166101011790555b610a7284848433896118f7565b610a818a8a8a8a8a600161199b565b8015610a93576000805461ff00191690555b50505050505050505050565b610aae8585858585600061199b565b5050505050565b60408051600580825260c08201909252606091600091906020820160a0803683375050600e54604051631635719760e31b8152600481019190915291925073__UintLibrary___________________________9163b1ab8cb8915060240160206040518083038186803b158015610b2b57600080fd5b505af4158015610b3f573d6000803e3d6000fd5b505050506040513d601f19601f82011682018060405250810190610b639190612533565b81600081518110610b7657610b76612b7e565b6020908102919091010152601054604051631635719760e31b8152600481019190915273__UintLibrary___________________________9063b1ab8cb89060240160206040518083038186803b158015610bd057600080fd5b505af4158015610be4573d6000803e3d6000fd5b505050506040513d601f19601f82011682018060405250810190610c089190612533565b81600181518110610c1b57610c1b612b7e565b6020908102919091010152601154604051631635719760e31b8152600481019190915273__UintLibrary___________________________9063b1ab8cb89060240160206040518083038186803b158015610c7557600080fd5b505af4158015610c89573d6000803e3d6000fd5b505050506040513d601f19601f82011682018060405250810190610cad9190612533565b81600281518110610cc057610cc0612b7e565b6020908102919091010152600f54604051631635719760e31b8152600481019190915273__UintLibrary___________________________9063b1ab8cb89060240160206040518083038186803b158015610d1a57600080fd5b505af4158015610d2e573d6000803e3d6000fd5b505050506040513d601f19601f82011682018060405250810190610d529190612533565b81600381518110610d6557610d65612b7e565b6020908102919091010152601254604051631635719760e31b8152600481019190915273__UintLibrary___________________________9063b1ab8cb89060240160206040518083038186803b158015610dbf57600080fd5b505af4158015610dd3573d6000803e3d6000fd5b505050506040513d601f19601f82011682018060405250810190610df79190612533565b81600481518110610e0a57610e0a612b7e565b6020908102919091010152919050565b610e278383836000611a28565b505050565b6001600160a01b0381166000908152601a6020908152604091829020600101805483518184028101840190945280845260609392830182828015610e8f57602002820191906000526020600020905b815481526020019060010190808311610e7b575b50505050509050919050565b73__Library_______________________________63d1d719d0600060029054906101000a90046001600160a01b03166001600160a01b031663da3dce266040518163ffffffff1660e01b815260040160206040518083038186803b158015610f0357600080fd5b505afa158015610f17573d6000803e3d6000fd5b505050506040513d601f19601f82011682018060405250810190610f3b91906123a9565b6040518263ffffffff1660e01b8152600401610f57919061272f565b60206040518083038186803b158015610f6f57600080fd5b505af4158015610f83573d6000803e3d6000fd5b505050506040513d601f19601f82011682018060405250810190610fa79190612516565b1515600114610fc85760405162461bcd60e51b815260040161036990612960565b610fd181611adf565b50565b610fdd33611adf565b565b6000610fea82611289565b92915050565b73__Library_______________________________63d1d719d0600060029054906101000a90046001600160a01b03166001600160a01b031663aa33380a6040518163ffffffff1660e01b815260040160206040518083038186803b15801561105857600080fd5b505afa15801561106c573d6000803e3d6000fd5b505050506040513d601f19601f8201168201806040525081019061109091906123a9565b6040518263ffffffff1660e01b81526004016110ac919061272f565b60206040518083038186803b1580156110c457600080fd5b505af41580156110d8573d6000803e3d6000fd5b505050506040513d601f19601f820116820180604052508101906110fc9190612516565b151560011461111d5760405162461bcd60e51b815260040161036990612960565b61112a8260175483611b4a565b816001600160a01b03167f5a8b23b6708800de8ffd6d2398cde024a6031d67c18648c347636e31d0fec4598260405161116591815260200190565b60405180910390a25050565b8060001981600381111561118757611187612b68565b61119457506013546111df565b8160038111156111a6576111a6612b68565b600114156111b757506015546111df565b8160038111156111c9576111c9612b68565b600214156111da57506014546111df565b506016545b803410156112155760405162461bcd60e51b815260206004820152600360248201526222a19960e91b6044820152606401610369565b34600084600381111561122a5761122a612b68565b14156112405760175461123e9082906112f5565b505b60185461124d9082611301565b5060405134815233907fa1a75f56738f80584efa96074fcf81008d3e7456d405f2811bc39295c151c1089060200160405180910390a250505050565b60008061129583610e2c565b90506000805b82518110156112da576112c76112c06103bf878685815181106103b2576103b2612b7e565b8390611301565b50806112d281612b37565b91505061129b565b509392505050565b60006112ee8284612adf565b9392505050565b60006112ee8284612b20565b60006112ee8284612ac7565b60006112ee8284612b01565b6001600160a01b0383166000908152601a602090815260408083208484529091529020548211156113975760405162461bcd60e51b815260206004820152602260248201527f4e6f7420656e6f7567682062616c616e636520666f722074686973206661637460448201526137b960f11b6064820152608401610369565b6001600160a01b0383166000908152601a602090815260408083208484529091529020546113c590836112f5565b506001600160a01b0383166000908152601a60209081526040808320848452909152902054610e27576001600160a01b0383166000908152601a60205260409081902090516362fe358160e11b815273__UintLibrary___________________________916302fbee9e91839163c5fc6b029161144c91879160019091019060040161297d565b60206040518083038186803b15801561146457600080fd5b505af4158015611478573d6000803e3d6000fd5b505050506040513d601f19601f8201168201806040525081019061149c9190612533565b6001600160a01b0386166000908152601a60205260409081902090516001600160e01b031960e085901b1681526114da92916001019060040161297d565b60006040518083038186803b1580156114f257600080fd5b505af4158015611506573d6000803e3d6000fd5b505050506040513d6000823e601f3d908101601f1916820160405261152e91908101906124bd565b6001600160a01b0384166000908152601a60209081526040909120825161155f936001909201929190910190612236565b50505050565b6003546000904210156115785750600190565b6002546001600160a01b031615611599576115916118ef565b61159961159f565b50600090565b600280546001600160a01b0319168155600060038190556004819055600581905560068190556115d0600782612281565b6115de600683016000612281565b6109dc600783016000612281565b600081516115fa8484611706565b109392505050565b606060008060029054906101000a90046001600160a01b03166001600160a01b031663da3dce266040518163ffffffff1660e01b815260040160206040518083038186803b15801561165357600080fd5b505afa158015611667573d6000803e3d6000fd5b505050506040513d601f19601f8201168201806040525081019061168b91906123a9565b6001600160a01b03166388d44ee06040518163ffffffff1660e01b815260040160006040518083038186803b1580156116c357600080fd5b505afa1580156116d7573d6000803e3d6000fd5b505050506040513d6000823e601f3d908101601f191682016040526116ff91908101906123f2565b5092915050565b60405160016219125f60e01b0319815260009073__AddressLibrary________________________9063ffe6eda1906117459086908690600401612743565b60206040518083038186803b15801561175d57600080fd5b505af4158015611771573d6000803e3d6000fd5b505050506040513d601f19601f820116820180604052508101906112ee9190612533565b600454600554111561184f57600b5462010000900460ff16156117ed57600c54600a55600d54600b805461010080840460ff90811690910261ffff199092169316929092179190911790556117e86118d1565b6117f5565b6117f5611bcf565b6117fd61159f565b6002546005546006546040516001600160a01b03909316927fbb4a143bf102bd92f1fc843143d4bc606c5dd8a33007056e8cb04be789a501d1926118459290916009906129c3565b60405180910390a2565b6004546006541115610fdd57600b5462010000900460ff1615611879576118746118d1565b611881565b6118816118ef565b61188961159f565b6002546005546006546040516001600160a01b03909316927fb4adfa35dce9431d6091df92c3aef5aae35d508e2f071cc0d5cdc8480b741a51926118459290916009906129c3565b6000600c55600d805461ffff19169055600b805462ff000019169055565b610fdd611c40565b600054610100900460ff1680611910575060005460ff16155b61192c5760405162461bcd60e51b8152600401610369906128d6565b600054610100900460ff1615801561194e576000805461ffff19166101011790555b61195782611c5b565b600180546001600160a01b0319166001600160a01b03851617815561198190879087908790611a28565b8015611993576000805461ff00191690555b505050505050565b8582808210156119bd5760405162461bcd60e51b815260040161036990612942565b82156119e15760138890556015879055601686905560148590556017849055611a1e565b611a046119f9600a544261130190919063ffffffff16565b600b5460ff16611ce9565b600e889055600f8590556010879055601186905560128490555b5050505050505050565b82828160ff1660641015611a4e5760405162461bcd60e51b815260040161036990612942565b8060ff1660641015611a725760405162461bcd60e51b815260040161036990612942565b8215611a9d57600a869055600b805460ff8681166101000261ffff1990921690881617179055611993565b600c869055600d805460ff8681166101000261ffff1990921690881617179055600b805462ff0000191662010000179055600a54611993906119f99042612ac7565b6018546001600160a01b0382166000908152601960205260409020541015610fd1576018546001600160a01b038216600090815260196020526040812082905590611b2a90806112f5565b90506109dc82611b4283611b3d86611e8b565b61130d565b611b4a611f8d565b6001600160a01b0383166000908152601a60209081526040808320848452909152902054611ba1576001600160a01b0383166000908152601a60209081526040822060019081018054918201815583529120018190555b6001600160a01b0383166000908152601a6020908152604080832084845290915290205461155f9083611301565b600e54601355601054601555601154601655600f54601455601254601755611bf5611c40565b7fbe8847d52fb3c03e3414e96d164a23594063f5b6cf01428e61c38bfbbc34ef19601354601554601654601454601754604051611c36959493929190612a51565b60405180910390a1565b6000600e819055600f81905560108190556011819055601255565b600054610100900460ff1680611c74575060005460ff16155b611c905760405162461bcd60e51b8152600401610369906128d6565b600054610100900460ff16158015611cb2576000805461ffff19166101011790555b6000805462010000600160b01b031916620100006001600160a01b0385160217905580156109dc576000805461ff00191690555050565b6000611cf3611565565b15611d295760405162461bcd60e51b8152600401610369906020808252600490820152631150cc8d60e21b604082015260600190565b611d3233612089565b1515600114611d535760405162461bcd60e51b8152600401610369906128b8565b611d5b611602565b8051611d6f9160079160209091019061229f565b50600754611dda5760405162461bcd60e51b815260206004820152603260248201527f496d706f737369626c6520746f206164642070726f706f736974696f6e2c20746044820152716865726520617265206e6f2061646d696e7360701b6064820152608401610369565b600280546001600160a01b031916331790556003839055606460ff8316611dff611f8d565b611e099190612b01565b611e139190612adf565b600455611e1e612139565b8051611e3291600891602090910190612236565b506002546003546004546040516001600160a01b03909316927f7ec97bdcf80d0b85a7cccd3b92c27116caaa95fa630cb01fac8243b7cdbd9c1692611e7e9290916007906008906129eb565b60405180910390a2505050565b60008060029054906101000a90046001600160a01b03166001600160a01b031663da3dce266040518163ffffffff1660e01b815260040160206040518083038186803b158015611eda57600080fd5b505afa158015611eee573d6000803e3d6000fd5b505050506040513d601f19601f82011682018060405250810190611f1291906123a9565b6001600160a01b03166370a08231836040518263ffffffff1660e01b8152600401611f3d919061272f565b60206040518083038186803b158015611f5557600080fd5b505afa158015611f69573d6000803e3d6000fd5b505050506040513d601f19601f82011682018060405250810190610fea9190612533565b60008060029054906101000a90046001600160a01b03166001600160a01b031663da3dce266040518163ffffffff1660e01b815260040160206040518083038186803b158015611fdc57600080fd5b505afa158015611ff0573d6000803e3d6000fd5b505050506040513d601f19601f8201168201806040525081019061201491906123a9565b6001600160a01b03166318160ddd6040518163ffffffff1660e01b815260040160206040518083038186803b15801561204c57600080fd5b505afa158015612060573d6000803e3d6000fd5b505050506040513d601f19601f820116820180604052508101906120849190612533565b905090565b6001546000906001600160a01b03163314156120a757506001919050565b60006120b1611602565b905060006120bd612139565b905060006120cb8584611706565b905082518110156121295760646120e0611f8d565b600b546120f59190610100900460ff16612b01565b6120ff9190612adf565b82828151811061211157612111612b7e565b60200260200101511061212957506001949350505050565b506000949350505050565b919050565b606060008060029054906101000a90046001600160a01b03166001600160a01b031663da3dce266040518163ffffffff1660e01b815260040160206040518083038186803b15801561218a57600080fd5b505afa15801561219e573d6000803e3d6000fd5b505050506040513d601f19601f820116820180604052508101906121c291906123a9565b6001600160a01b03166388d44ee06040518163ffffffff1660e01b815260040160006040518083038186803b1580156121fa57600080fd5b505afa15801561220e573d6000803e3d6000fd5b505050506040513d6000823e601f3d908101601f191682016040526112ee91908101906123f2565b828054828255906000526020600020908101928215612271579160200282015b82811115612271578251825591602001919060010190612256565b5061227d9291506122f4565b5090565b5080546000825590600052602060002090810190610fd191906122f4565b828054828255906000526020600020908101928215612271579160200282015b8281111561227157825182546001600160a01b0319166001600160a01b039091161782556020909201916001909101906122bf565b5b8082111561227d57600081556001016122f5565b600082601f83011261231a57600080fd5b8151602061232f61232a83612aa4565b612a74565b80838252828201915082860187848660051b890101111561234f57600080fd5b60005b8581101561236e57815184529284019290840190600101612352565b5090979650505050505050565b803560ff8116811461213457600080fd5b60006020828403121561239e57600080fd5b81356112ee81612baa565b6000602082840312156123bb57600080fd5b81516112ee81612baa565b600080604083850312156123d957600080fd5b82356123e481612baa565b946020939093013593505050565b6000806040838503121561240557600080fd5b82516001600160401b038082111561241c57600080fd5b818501915085601f83011261243057600080fd5b8151602061244061232a83612aa4565b8083825282820191508286018a848660051b890101111561246057600080fd5b600096505b8487101561248c57805161247881612baa565b835260019690960195918301918301612465565b50918801519196509093505050808211156124a657600080fd5b506124b385828601612309565b9150509250929050565b6000602082840312156124cf57600080fd5b81516001600160401b038111156124e557600080fd5b6124f184828501612309565b949350505050565b60006020828403121561250b57600080fd5b81356112ee81612bbf565b60006020828403121561252857600080fd5b81516112ee81612bbf565b60006020828403121561254557600080fd5b5051919050565b60006020828403121561255e57600080fd5b8135600481106112ee57600080fd5b60006020828403121561257f57600080fd5b5035919050565b600080600080600060a0868803121561259e57600080fd5b505083359560208501359550604085013594606081013594506080013592509050565b60008060008060008060008060006101208a8c0312156125e057600080fd5b8935985060208a0135975060408a0135965060608a0135955060808a0135945060a08a013561260e81612baa565b935060c08a0135925061262360e08b0161237b565b91506126326101008b0161237b565b90509295985092959850929598565b60008060006060848603121561265657600080fd5b833592506126666020850161237b565b91506126746040850161237b565b90509250925092565b600081518084526020808501945080840160005b838110156126b65781516001600160a01b031687529582019590820190600101612691565b509495945050505050565b6000815480845260208085019450836000528060002060005b838110156126b65781546001600160a01b0316875295820195600191820191016126da565b600081518084526020808501945080840160005b838110156126b657815187529582019590820190600101612713565b6001600160a01b0391909116815260200190565b6001600160a01b038381168252604060208084018290528451918401829052600092858201929091906060860190855b81811015612791578551851683529483019491830191600101612773565b509098975050505050505050565b60006040820160018060a01b03808616845260206040818601528286548085526060870191508760005282600020945060005b818110156127915785548516835260019586019592840192016127d2565b600061010060018060a01b038b1683528960208401528860408401528760608401528660808401528060a084015261282a8184018761267d565b905082810360c084015261283e81866126ff565b905082810360e0840152612852818561267d565b9b9a5050505050505050505050565b6020808252825182820181905260009190848201906040850190845b818110156128995783518352928401929184019160010161287d565b50909695505050505050565b6020815260006112ee60208301846126ff565b60208082526004908201526322a1991960e11b604082015260600190565b6020808252602e908201527f496e697469616c697a61626c653a20636f6e747261637420697320616c72656160408201526d191e481a5b9a5d1a585b1a5e995960921b606082015260800190565b6020808252600490820152634543323560e01b604082015260600190565b6020808252600490820152634543323160e01b604082015260600190565b60208082526003908201526208a86760eb1b604082015260600190565b60006040820184835260206040818501528185548084526060860191508660005282600020935060005b8181101561236e578454835260019485019492840192016129a7565b8381528260208201526060604082015260006129e260608301846126c1565b95945050505050565b84815260006020858184015260806040840152612a0b60808401866126c1565b83810360608501528454808252600086815283812092840191905b81811015612a4257835483526001938401939285019201612a26565b50909998505050505050505050565b948552602085019390935260408401919091526060830152608082015260a00190565b604051601f8201601f191681016001600160401b0381118282101715612a9c57612a9c612b94565b604052919050565b60006001600160401b03821115612abd57612abd612b94565b5060051b60200190565b60008219821115612ada57612ada612b52565b500190565b600082612afc57634e487b7160e01b600052601260045260246000fd5b500490565b6000816000190483118215151615612b1b57612b1b612b52565b500290565b600082821015612b3257612b32612b52565b500390565b6000600019821415612b4b57612b4b612b52565b5060010190565b634e487b7160e01b600052601160045260246000fd5b634e487b7160e01b600052602160045260246000fd5b634e487b7160e01b600052603260045260246000fd5b634e487b7160e01b600052604160045260246000fd5b6001600160a01b0381168114610fd157600080fd5b8015158114610fd157600080fdfea264697066735822122070bc4287d715e97e87804d6149d107d058f8c94a3c15e248005a4a2402d8057d64736f6c63430008070033",
  "immutableReferences": {},
  "source": "// SPDX-License-Identifier: GPL-3.0\r\n\r\npragma solidity >=0.8.0 <0.9.0;\r\n\r\n/**\r\n * @title Storage\r\n * @dev Store & retrieve value in a variable\r\n */\r\n\r\nimport \"../Interfaces/ITreasury.sol\";\r\nimport \"../Libraries/UintLibrary.sol\";\r\nimport \"../Libraries/Library.sol\";\r\nimport \"../Base/TokenGovernanceBaseContract.sol\";\r\nimport \"@openzeppelin/contracts/utils/math/SafeMath.sol\";\r\nimport \"@openzeppelin/contracts-upgradeable/token/ERC20/IERC20Upgradeable.sol\";\r\n\r\n\r\ncontract Treasury is ITreasury, TokenGovernanceBaseContract{\r\n    using Library for *;\r\n    using UintLibrary for *;\r\n    using SafeMath for uint;\r\n\r\n    // EVENTS /////////////////////////////////////////\r\n    event _NewPrices(uint, uint, uint, uint, uint);\r\n    event _Pay(address indexed, uint);\r\n    event _Refund(address indexed, uint);\r\n    event _Withdraw(address indexed, uint);\r\n\r\n    // DATA /////////////////////////////////////////\r\n    // proposition to change prices\r\n    struct ProposedPricesStruct{\r\n        uint NewPublicPriceWei;\r\n        uint NewCertificatePriceWei;\r\n        uint NewPrivatePriceWei;\r\n        uint NewProviderPriceWei;\r\n        uint NewOwnerRefundPriceWei;\r\n    }\r\n\r\n    ProposedPricesStruct private _ProposedPrices;\r\n\r\n    // parameters\r\n    uint private _PublicPriceWei;\r\n    uint private _CertificatePriceWei;\r\n    uint private _PrivatePriceWei;\r\n    uint private _ProviderPriceWei;\r\n    uint private _OwnerRefundPriceWei;\r\n\r\n    // last amount at which dividends where assigned for each token owner\r\n    uint private _AggregatedDividendAmount;\r\n    mapping(address => uint) _lastAssigned;\r\n\r\n    // dividends per token owner\r\n    struct _BalanceStruct{\r\n        mapping(uint => uint) _balance;\r\n        uint[] _factors;\r\n    }\r\n    \r\n    mapping(address => _BalanceStruct) private _balances;\r\n\r\n    // MODIFIERS /////////////////////////////////////////\r\n    modifier areFundsEnough(Library.Prices price){\r\n        uint256 minPrice = 2**256 - 1;\r\n\r\n        if(Library.Prices.NewProvider == price) minPrice = _PublicPriceWei;\r\n        else if(Library.Prices.NewPool == price) minPrice = _PrivatePriceWei;\r\n        else if(Library.Prices.NewCertificate == price) minPrice = _CertificatePriceWei;\r\n        else minPrice = _ProviderPriceWei;\r\n\r\n        require(msg.value >= minPrice, \"EC2\");\r\n        _;\r\n    }\r\n\r\n    modifier isBalanceEnough(uint amount){\r\n        require(checkBalance(msg.sender) >= amount, \"EC20\");\r\n        _;\r\n    }\r\n\r\n    modifier isFromPublicPool(){\r\n        require(true == Library.ItIsSomeone(_managerContract.retrievePublicCertificatePoolProxy()), \"EC8\");\r\n        _;\r\n    }\r\n\r\n    modifier isFromTokenContract(){\r\n        require(true == Library.ItIsSomeone(_managerContract.retrieveCertisTokenProxy()), \"EC8\");\r\n        _;\r\n    }\r\n\r\n    modifier isPriceOK(uint256 PublicPriceWei, uint256 OwnerRefundPriceWei){\r\n        require(PublicPriceWei >= OwnerRefundPriceWei, \"EC21\");\r\n        _;\r\n    }\r\n    \r\n    // CONSTRUCTOR /////////////////////////////////////////\r\n    function Treasury_init(uint256 PublicPriceWei, uint256 PrivatePriceWei, uint256 ProviderPriceWei, uint256 CertificatePriceWei, uint256 OwnerRefundPriceWei, address managerContractAddress, uint256 PropositionLifeTime, uint8 PropositionThresholdPercentage, uint8 minWeightToProposePercentage) public initializer \r\n    {\r\n        super.TokenGovernanceContract_init(PropositionLifeTime, PropositionThresholdPercentage, minWeightToProposePercentage, msg.sender, managerContractAddress);\r\n        InternalupdatePrices(PublicPriceWei, PrivatePriceWei, ProviderPriceWei, CertificatePriceWei, OwnerRefundPriceWei, true);\r\n    }\r\n\r\n    // GOVERNANCE /////////////////////////////////////////\r\n    function updatePrices(uint256 PublicPriceWei, uint256 PrivatePriceWei, uint256 ProviderPriceWei, uint256 CertificatePriceWei, uint256 OwnerRefundPriceWei) external override\r\n    {\r\n        InternalupdatePrices(PublicPriceWei, PrivatePriceWei, ProviderPriceWei, CertificatePriceWei, OwnerRefundPriceWei, false);\r\n    }\r\n\r\n    function InternalupdatePrices(uint256 PublicPriceWei, uint256 PrivatePriceWei, uint256 ProviderPriceWei, uint256 CertificatePriceWei, uint256 OwnerRefundPriceWei, bool fromConstructor) internal\r\n        isPriceOK(PublicPriceWei, OwnerRefundPriceWei)\r\n    {\r\n        if(fromConstructor){\r\n            _PublicPriceWei = PublicPriceWei;\r\n            _PrivatePriceWei = PrivatePriceWei;\r\n            _ProviderPriceWei = ProviderPriceWei;\r\n            _CertificatePriceWei = CertificatePriceWei;\r\n            _OwnerRefundPriceWei = OwnerRefundPriceWei;\r\n        }\r\n        else{\r\n            addProposition(block.timestamp.add(_PropositionLifeTime), _PropositionThresholdPercentage);\r\n            _ProposedPrices.NewPublicPriceWei = PublicPriceWei;\r\n            _ProposedPrices.NewCertificatePriceWei = CertificatePriceWei;\r\n            _ProposedPrices.NewPrivatePriceWei = PrivatePriceWei;\r\n            _ProposedPrices.NewProviderPriceWei = ProviderPriceWei;\r\n            _ProposedPrices.NewOwnerRefundPriceWei = OwnerRefundPriceWei;\r\n        }\r\n        \r\n    }\r\n\r\n    function propositionApproved() internal override\r\n    {\r\n        _PublicPriceWei = _ProposedPrices.NewPublicPriceWei;\r\n        _PrivatePriceWei = _ProposedPrices.NewPrivatePriceWei;\r\n        _ProviderPriceWei = _ProposedPrices.NewProviderPriceWei;\r\n        _CertificatePriceWei = _ProposedPrices.NewCertificatePriceWei;\r\n        _OwnerRefundPriceWei = _ProposedPrices.NewOwnerRefundPriceWei;\r\n        \r\n        removeProposition();\r\n\r\n        emit _NewPrices(_PublicPriceWei, _PrivatePriceWei, _ProviderPriceWei, _CertificatePriceWei, _OwnerRefundPriceWei);\r\n    }\r\n\r\n    function propositionRejected() internal override\r\n    {\r\n        removeProposition();\r\n    }\r\n\r\n    function propositionExpired() internal override\r\n    {\r\n        removeProposition();\r\n    }\r\n\r\n    function removeProposition() internal\r\n    {\r\n         delete(_ProposedPrices);\r\n    }\r\n\r\n    function retrieveProposition() external override view returns(bytes32[] memory)\r\n    {\r\n        bytes32[] memory proposition = new bytes32[](5);\r\n        proposition[0] = UintLibrary.UintToBytes32(_ProposedPrices.NewPublicPriceWei);\r\n        proposition[1] = UintLibrary.UintToBytes32(_ProposedPrices.NewPrivatePriceWei);\r\n        proposition[2] = UintLibrary.UintToBytes32(_ProposedPrices.NewProviderPriceWei);\r\n        proposition[3] = UintLibrary.UintToBytes32(_ProposedPrices.NewCertificatePriceWei);\r\n        proposition[4] = UintLibrary.UintToBytes32(_ProposedPrices.NewOwnerRefundPriceWei);\r\n        return proposition;\r\n    }\r\n\r\n    // FUNCTIONALITY /////////////////////////////////////////\r\n    function pay(Library.Prices price) external \r\n        areFundsEnough(price)\r\n    override payable\r\n    {\r\n        uint256 amount = msg.value;\r\n        if(price == Library.Prices.NewProvider) amount.sub(_OwnerRefundPriceWei);\r\n        _AggregatedDividendAmount.add(amount);\r\n\r\n        emit _Pay(msg.sender, msg.value);\r\n    }\r\n\r\n    function AssignDividends(address recipient) external\r\n        isFromTokenContract()\r\n    override\r\n    {\r\n       InternalAssignDividends(recipient);\r\n    }\r\n\r\n    function AssignDividends() external override\r\n    {\r\n       InternalAssignDividends(msg.sender);\r\n    }\r\n\r\n    function InternalAssignDividends(address recipient) internal\r\n    {\r\n        if(_lastAssigned[recipient] < _AggregatedDividendAmount){\r\n           _lastAssigned[recipient] = _AggregatedDividendAmount;\r\n           uint amountToSplit = SafeMath.sub(_AggregatedDividendAmount, _lastAssigned[recipient]);\r\n           addBalance(recipient, SafeMath.mul(amountToSplit, GetTokensBalance(recipient)), totalSupply());\r\n        }\r\n    }\r\n\r\n    function getRefund(address addr, uint numberOfOwners) external \r\n        isFromPublicPool()\r\n    override\r\n    {\r\n        addBalance(addr, _OwnerRefundPriceWei, numberOfOwners);\r\n\r\n        emit _Refund(addr, numberOfOwners);\r\n    }\r\n\r\n    function withdraw(uint amount) external \r\n        isBalanceEnough(amount)\r\n    override\r\n    {\r\n        uint[] memory f = returnFactors(msg.sender);\r\n        uint total = 0;\r\n        uint i = 0;\r\n\r\n        while ((total < amount) && (i < f.length)){\r\n            uint amountForFactor = SafeMath.div(returnBalanceForFactor(msg.sender, f[i]), f[i]);\r\n            if(amountForFactor > SafeMath.sub(amount, total)) amountForFactor = SafeMath.sub(amount, total);\r\n            total.add(amountForFactor);\r\n            substractBalance(msg.sender, SafeMath.mul(amountForFactor, f[i]), f[i]);\r\n            i++;\r\n        }\r\n\r\n        require(total == amount, \"UnExpected problem calculating the amount to withdraw\");\r\n\r\n        payable(msg.sender).transfer(total);\r\n\r\n        emit _Withdraw(msg.sender, total);\r\n    }\r\n\r\n    function retrieveBalance(address addr) external override view returns(uint)\r\n    {\r\n        return checkBalance(addr);\r\n    }\r\n\r\n    function retrievePrices() external override view returns(uint, uint, uint, uint, uint)\r\n    {\r\n        return(_PublicPriceWei, _PrivatePriceWei, _ProviderPriceWei, _CertificatePriceWei, _OwnerRefundPriceWei);\r\n    }\r\n\r\n    function checkBalance(address addr) internal view returns(uint){\r\n        uint[] memory f = returnFactors(addr);\r\n        uint total = 0;\r\n\r\n        for(uint i=0; i < f.length; i++){\r\n            total.add(SafeMath.div(returnBalanceForFactor(addr, f[i]), f[i]));\r\n        }\r\n\r\n        return total;\r\n    }\r\n\r\n    function returnFactors(address addr) public view returns(uint[] memory){\r\n        return _balances[addr]._factors;\r\n    }\r\n\r\n    function returnBalanceForFactor(address addr, uint factor) public view returns(uint){\r\n        return _balances[addr]._balance[factor];\r\n    }\r\n\r\n    function addBalance(address addr, uint amount, uint factor) private\r\n    {\r\n        if(0 == _balances[addr]._balance[factor]){\r\n             _balances[addr]._factors.push(factor);\r\n        }\r\n\r\n       _balances[addr]._balance[factor].add(amount);\r\n    }\r\n\r\n    function substractBalance(address addr, uint amount, uint factor) private\r\n    {\r\n        require(_balances[addr]._balance[factor] >= amount, \"Not enough balance for this factor\");\r\n\r\n        _balances[addr]._balance[factor].sub(amount);\r\n\r\n        if(0 == _balances[addr]._balance[factor]){\r\n            _balances[addr]._factors = UintLibrary.UintArrayRemoveResize(UintLibrary.FindUintPosition(factor, _balances[addr]._factors), _balances[addr]._factors);\r\n        }\r\n        \r\n    }\r\n\r\n}",
  "sourcePath": "C:/Users/d-aam/GitHub/Certificates/contracts/DeployedContracts/Treasury.sol",
  "compiler": {
    "name": "solc",
    "version": "0.8.7+commit.e28d00a7.Emscripten.clang"
  },
  "schemaVersion": "3.3.4",
  "updatedAt": "2021-08-12T11:48:38.972Z",
  "devdoc": {
    "kind": "dev",
    "methods": {},
    "version": 1
  },
  "userdoc": {
    "kind": "user",
    "methods": {},
    "version": 1
  }
}