{
  "contractName": "Treasury",
  "abi": [
    {
      "anonymous": false,
      "inputs": [
        {
          "indexed": false,
          "internalType": "uint256",
          "name": "",
          "type": "uint256"
        },
        {
          "indexed": true,
          "internalType": "address",
          "name": "",
          "type": "address"
        },
        {
          "indexed": false,
          "internalType": "uint256",
          "name": "",
          "type": "uint256"
        },
        {
          "indexed": false,
          "internalType": "uint256",
          "name": "",
          "type": "uint256"
        }
      ],
      "name": "_AddedProposition",
      "type": "event"
    },
    {
      "anonymous": false,
      "inputs": [
        {
          "indexed": true,
          "internalType": "address",
          "name": "",
          "type": "address"
        },
        {
          "indexed": false,
          "internalType": "uint256",
          "name": "",
          "type": "uint256"
        },
        {
          "indexed": false,
          "internalType": "uint256",
          "name": "",
          "type": "uint256"
        }
      ],
      "name": "_AssignDividend",
      "type": "event"
    },
    {
      "anonymous": false,
      "inputs": [
        {
          "indexed": false,
          "internalType": "uint256",
          "name": "",
          "type": "uint256"
        },
        {
          "indexed": true,
          "internalType": "address",
          "name": "",
          "type": "address"
        }
      ],
      "name": "_CancelledProposition",
      "type": "event"
    },
    {
      "anonymous": false,
      "inputs": [
        {
          "indexed": false,
          "internalType": "uint256",
          "name": "",
          "type": "uint256"
        },
        {
          "indexed": false,
          "internalType": "uint256",
          "name": "",
          "type": "uint256"
        },
        {
          "indexed": false,
          "internalType": "uint256",
          "name": "",
          "type": "uint256"
        },
        {
          "indexed": false,
          "internalType": "uint256",
          "name": "",
          "type": "uint256"
        },
        {
          "indexed": false,
          "internalType": "uint256",
          "name": "",
          "type": "uint256"
        }
      ],
      "name": "_NewPrices",
      "type": "event"
    },
    {
      "anonymous": false,
      "inputs": [
        {
          "indexed": true,
          "internalType": "address",
          "name": "",
          "type": "address"
        },
        {
          "indexed": false,
          "internalType": "uint256",
          "name": "",
          "type": "uint256"
        },
        {
          "indexed": false,
          "internalType": "uint256",
          "name": "",
          "type": "uint256"
        }
      ],
      "name": "_Pay",
      "type": "event"
    },
    {
      "anonymous": false,
      "inputs": [
        {
          "indexed": false,
          "internalType": "uint256",
          "name": "",
          "type": "uint256"
        },
        {
          "indexed": true,
          "internalType": "address",
          "name": "",
          "type": "address"
        },
        {
          "indexed": false,
          "internalType": "uint256",
          "name": "",
          "type": "uint256"
        },
        {
          "indexed": false,
          "internalType": "uint256",
          "name": "",
          "type": "uint256"
        }
      ],
      "name": "_PropositionApproved",
      "type": "event"
    },
    {
      "anonymous": false,
      "inputs": [
        {
          "indexed": false,
          "internalType": "uint256",
          "name": "",
          "type": "uint256"
        },
        {
          "indexed": true,
          "internalType": "address",
          "name": "",
          "type": "address"
        },
        {
          "indexed": false,
          "internalType": "uint256",
          "name": "",
          "type": "uint256"
        },
        {
          "indexed": false,
          "internalType": "uint256",
          "name": "",
          "type": "uint256"
        }
      ],
      "name": "_PropositionRejected",
      "type": "event"
    },
    {
      "anonymous": false,
      "inputs": [
        {
          "indexed": false,
          "internalType": "uint256",
          "name": "",
          "type": "uint256"
        },
        {
          "indexed": true,
          "internalType": "address",
          "name": "",
          "type": "address"
        },
        {
          "indexed": false,
          "internalType": "bool",
          "name": "",
          "type": "bool"
        },
        {
          "indexed": false,
          "internalType": "uint256",
          "name": "",
          "type": "uint256"
        }
      ],
      "name": "_PropositionVote",
      "type": "event"
    },
    {
      "anonymous": false,
      "inputs": [
        {
          "indexed": true,
          "internalType": "address",
          "name": "",
          "type": "address"
        },
        {
          "indexed": false,
          "internalType": "uint256",
          "name": "",
          "type": "uint256"
        },
        {
          "indexed": false,
          "internalType": "uint256",
          "name": "",
          "type": "uint256"
        }
      ],
      "name": "_Refund",
      "type": "event"
    },
    {
      "anonymous": false,
      "inputs": [
        {
          "indexed": true,
          "internalType": "uint256",
          "name": "",
          "type": "uint256"
        },
        {
          "indexed": false,
          "internalType": "address",
          "name": "",
          "type": "address"
        },
        {
          "indexed": false,
          "internalType": "address",
          "name": "",
          "type": "address"
        },
        {
          "indexed": false,
          "internalType": "uint256",
          "name": "",
          "type": "uint256"
        }
      ],
      "name": "_UsedTokensTransfered",
      "type": "event"
    },
    {
      "anonymous": false,
      "inputs": [
        {
          "indexed": true,
          "internalType": "address",
          "name": "",
          "type": "address"
        },
        {
          "indexed": false,
          "internalType": "uint256",
          "name": "",
          "type": "uint256"
        }
      ],
      "name": "_Withdraw",
      "type": "event"
    },
    {
      "inputs": [],
      "name": "cancelProposition",
      "outputs": [],
      "stateMutability": "nonpayable",
      "type": "function"
    },
    {
      "inputs": [
        {
          "internalType": "address",
          "name": "from",
          "type": "address"
        },
        {
          "internalType": "address",
          "name": "to",
          "type": "address"
        },
        {
          "internalType": "uint256",
          "name": "amount",
          "type": "uint256"
        }
      ],
      "name": "onTokenBalanceChanged",
      "outputs": [],
      "stateMutability": "nonpayable",
      "type": "function"
    },
    {
      "inputs": [],
      "name": "retrievePendingPropConfig",
      "outputs": [
        {
          "internalType": "uint256",
          "name": "",
          "type": "uint256"
        },
        {
          "internalType": "uint8",
          "name": "",
          "type": "uint8"
        },
        {
          "internalType": "uint8",
          "name": "",
          "type": "uint8"
        },
        {
          "internalType": "bool",
          "name": "",
          "type": "bool"
        }
      ],
      "stateMutability": "view",
      "type": "function"
    },
    {
      "inputs": [],
      "name": "retrievePropConfig",
      "outputs": [
        {
          "internalType": "uint256",
          "name": "",
          "type": "uint256"
        },
        {
          "internalType": "uint8",
          "name": "",
          "type": "uint8"
        },
        {
          "internalType": "uint8",
          "name": "",
          "type": "uint8"
        }
      ],
      "stateMutability": "view",
      "type": "function"
    },
    {
      "inputs": [],
      "name": "retrievePropositionStatus",
      "outputs": [
        {
          "internalType": "address",
          "name": "",
          "type": "address"
        },
        {
          "internalType": "uint256",
          "name": "",
          "type": "uint256"
        },
        {
          "internalType": "uint256",
          "name": "",
          "type": "uint256"
        },
        {
          "internalType": "uint256",
          "name": "",
          "type": "uint256"
        },
        {
          "internalType": "uint256",
          "name": "",
          "type": "uint256"
        }
      ],
      "stateMutability": "view",
      "type": "function"
    },
    {
      "inputs": [
        {
          "internalType": "uint256",
          "name": "PropId",
          "type": "uint256"
        },
        {
          "internalType": "address",
          "name": "voter",
          "type": "address"
        }
      ],
      "name": "retrieveVotesForVoter",
      "outputs": [
        {
          "internalType": "uint256",
          "name": "",
          "type": "uint256"
        }
      ],
      "stateMutability": "view",
      "type": "function"
    },
    {
      "inputs": [
        {
          "internalType": "uint256",
          "name": "PropLifeTime",
          "type": "uint256"
        },
        {
          "internalType": "uint8",
          "name": "PropThresholdPerc",
          "type": "uint8"
        },
        {
          "internalType": "uint8",
          "name": "minWeightToPropPerc",
          "type": "uint8"
        }
      ],
      "name": "updateProp",
      "outputs": [],
      "stateMutability": "nonpayable",
      "type": "function"
    },
    {
      "inputs": [
        {
          "internalType": "bool",
          "name": "vote",
          "type": "bool"
        }
      ],
      "name": "voteProposition",
      "outputs": [],
      "stateMutability": "nonpayable",
      "type": "function"
    },
    {
      "inputs": [
        {
          "internalType": "uint256",
          "name": "PublicPriceUSD",
          "type": "uint256"
        },
        {
          "internalType": "uint256",
          "name": "PrivatePriceUSD",
          "type": "uint256"
        },
        {
          "internalType": "uint256",
          "name": "ProviderPriceUSD",
          "type": "uint256"
        },
        {
          "internalType": "uint256",
          "name": "CertificatePriceUSD",
          "type": "uint256"
        },
        {
          "internalType": "uint256",
          "name": "OwnerRefundFeeUSD",
          "type": "uint256"
        },
        {
          "internalType": "address",
          "name": "managerContractAddress",
          "type": "address"
        },
        {
          "internalType": "address",
          "name": "chairPerson",
          "type": "address"
        },
        {
          "internalType": "uint256",
          "name": "PropositionLifeTime",
          "type": "uint256"
        },
        {
          "internalType": "uint8",
          "name": "PropositionThresholdPercentage",
          "type": "uint8"
        },
        {
          "internalType": "uint8",
          "name": "minWeightToProposePercentage",
          "type": "uint8"
        }
      ],
      "name": "Treasury_init",
      "outputs": [],
      "stateMutability": "nonpayable",
      "type": "function"
    },
    {
      "inputs": [
        {
          "internalType": "uint256",
          "name": "PublicPriceUSD",
          "type": "uint256"
        },
        {
          "internalType": "uint256",
          "name": "PrivatePriceUSD",
          "type": "uint256"
        },
        {
          "internalType": "uint256",
          "name": "ProviderPriceUSD",
          "type": "uint256"
        },
        {
          "internalType": "uint256",
          "name": "CertificatePriceUSD",
          "type": "uint256"
        },
        {
          "internalType": "uint256",
          "name": "OwnerRefundFeeUSD",
          "type": "uint256"
        }
      ],
      "name": "updatePrices",
      "outputs": [],
      "stateMutability": "nonpayable",
      "type": "function"
    },
    {
      "inputs": [],
      "name": "retrieveProposition",
      "outputs": [
        {
          "internalType": "bytes32[]",
          "name": "",
          "type": "bytes32[]"
        }
      ],
      "stateMutability": "view",
      "type": "function"
    },
    {
      "inputs": [
        {
          "internalType": "enum Library.Prices",
          "name": "price",
          "type": "uint8"
        }
      ],
      "name": "pay",
      "outputs": [],
      "stateMutability": "payable",
      "type": "function"
    },
    {
      "inputs": [],
      "name": "AssignDividends",
      "outputs": [],
      "stateMutability": "nonpayable",
      "type": "function"
    },
    {
      "inputs": [
        {
          "internalType": "address",
          "name": "addr",
          "type": "address"
        },
        {
          "internalType": "uint256",
          "name": "numberOfOwners",
          "type": "uint256"
        }
      ],
      "name": "getRefund",
      "outputs": [],
      "stateMutability": "nonpayable",
      "type": "function"
    },
    {
      "inputs": [
        {
          "internalType": "uint256",
          "name": "amount",
          "type": "uint256"
        }
      ],
      "name": "withdraw",
      "outputs": [],
      "stateMutability": "nonpayable",
      "type": "function"
    },
    {
      "inputs": [
        {
          "internalType": "address",
          "name": "addr",
          "type": "address"
        }
      ],
      "name": "retrieveLastAssigned",
      "outputs": [
        {
          "internalType": "uint256",
          "name": "",
          "type": "uint256"
        }
      ],
      "stateMutability": "view",
      "type": "function"
    },
    {
      "inputs": [
        {
          "internalType": "address",
          "name": "addr",
          "type": "address"
        }
      ],
      "name": "retrieveBalance",
      "outputs": [
        {
          "internalType": "uint256",
          "name": "",
          "type": "uint256"
        }
      ],
      "stateMutability": "view",
      "type": "function"
    },
    {
      "inputs": [],
      "name": "retrievePrices",
      "outputs": [
        {
          "internalType": "uint256",
          "name": "",
          "type": "uint256"
        },
        {
          "internalType": "uint256",
          "name": "",
          "type": "uint256"
        },
        {
          "internalType": "uint256",
          "name": "",
          "type": "uint256"
        },
        {
          "internalType": "uint256",
          "name": "",
          "type": "uint256"
        },
        {
          "internalType": "uint256",
          "name": "",
          "type": "uint256"
        }
      ],
      "stateMutability": "view",
      "type": "function"
    },
    {
      "inputs": [],
      "name": "retrieveAggregatedAmount",
      "outputs": [
        {
          "internalType": "uint256",
          "name": "",
          "type": "uint256"
        }
      ],
      "stateMutability": "view",
      "type": "function"
    }
  ],
  "bytecode": "0x608060405234801561001057600080fd5b5061296b806100206000396000f3fe6080604052600436106100e45760003560e01c8063056f90ba146100e957806325b4f3ca1461010b5780632e1a7d4d146101415780633c7df55d146101615780634044adb21461018157806355457ee9146101d2578063840f6d17146101e757806390d138ed1461023557806391f916711461027657806396df6e7914610296578063a93316f5146102b6578063ac2bb442146102d8578063d40a5236146102f8578063d5920d491461030d578063d6184d1514610322578063d660ab3414610358578063e20f37ad14610391578063eb1e2a41146103b1578063f0c9325e146103d1575b600080fd5b3480156100f557600080fd5b50610109610104366004612504565b6103e4565b005b34801561011757600080fd5b506013546015546016546014546017546040516101389594939291906127f2565b60405180910390f35b34801561014d57600080fd5b5061010961015c366004612480565b61047f565b34801561016d57600080fd5b5061010961017c36600461239f565b610656565b34801561018d57600080fd5b506101c461019c366004612499565b60009182526009602090815260408084206001600160a01b0393909316845291905290205490565b604051908152602001610138565b3480156101de57600080fd5b50610109610793565b3480156101f357600080fd5b50600354600454600554600654600754604080516001600160a01b0390961686526020860194909452928401919091526060830152608082015260a001610138565b34801561024157600080fd5b5061024a6108c2565b604051610138949392919093845260ff9283166020850152911660408301521515606082015260800190565b34801561028257600080fd5b5061010961029136600461240c565b61091d565b3480156102a257600080fd5b506101096102b13660046124c9565b610a40565b3480156102c257600080fd5b506102cb610a56565b604051610138919061263b565b3480156102e457600080fd5b506101096102f3366004612598565b610dbb565b34801561030457600080fd5b50610109610dc8565b34801561031957600080fd5b506018546101c4565b34801561032e57600080fd5b506101c461033d366004612365565b6001600160a01b031660009081526019602052604090205490565b34801561036457600080fd5b50600a54600b546040805192835260ff808316602085015261010090920490911690820152606001610138565b34801561039d57600080fd5b506101c46103ac366004612365565b610dd3565b3480156103bd57600080fd5b506101096103cc3660046123e0565b610de4565b6101096103df36600461245f565b61106c565b600054610100900460ff16806103fd575060005460ff16155b6104225760405162461bcd60e51b8152600401610419906126ef565b60405180910390fd5b600054610100900460ff16158015610444576000805461ffff19166101011790555b610451848484888a6113a1565b6104608b8b8b8b8b600161144a565b8015610472576000805461ff00191690555b5050505050505050505050565b808061048a336114bc565b10156104c05760405162461bcd60e51b8152602060048201526005602482015264454332302d60d81b6044820152606401610419565b60006104cb336114e1565b90506000806104d933611550565b909250905060006104ea828761284f565b6104f4908461286e565b905060005b845181101561057d5761056b3361054c3388858151811061051c5761051c6128fc565b60200260200101516001600160a01b03919091166000908152601a60209081526040808320938352929052205490565b87848151811061055e5761055e6128fc565b6020026020010151611666565b80610575816128b5565b9150506104f9565b50610589338284611865565b6040516000908190339089908381818185875af1925050503d80600081146105cd576040519150601f19603f3d011682016040523d82523d6000602084013e6105d2565b606091505b509150915081816040516020016105e991906125d4565b604051602081830303815290604052906106165760405162461bcd60e51b8152600401610419919061267f565b5060405188815233907f732ea8a38f70c2018ed8dfd6e97bf6381f60102061beae0ac4d9a5abd15a06029060200160405180910390a25050505050505050565b73__Library_______________________________63d1d719d0600060029054906101000a90046001600160a01b03166001600160a01b031663da3dce266040518163ffffffff1660e01b815260040160206040518083038186803b1580156106be57600080fd5b505afa1580156106d2573d6000803e3d6000fd5b505050506040513d601f19601f820116820180604052508101906106f69190612382565b6040518263ffffffff1660e01b81526004016107129190612627565b60206040518083038186803b15801561072a57600080fd5b505af415801561073e573d6000803e3d6000fd5b505050506040513d601f19601f820116820180604052508101906107629190612429565b15156001146107835760405162461bcd60e51b8152600401610419906126b2565b61078e8383836118ff565b505050565b600161079d61193a565b15156001146107be5760405162461bcd60e51b81526004016104199061273d565b600354604051630d1d719d60e41b815273__Library_______________________________9163d1d719d091610800916001600160a01b031690600401612627565b60206040518083038186803b15801561081857600080fd5b505af415801561082c573d6000803e3d6000fd5b505050506040513d601f19601f820116820180604052508101906108509190612429565b15156001146108715760405162461bcd60e51b81526004016104199061275c565b610879611974565b6003546002546040519081526001600160a01b03909116907f1fe8aec10c0a50fa765076161e08c1f961ced69594ff45cf7d559f593afe1479906020015b60405180910390a250565b600080600080600b60029054906101000a900460ff1680156108e5575060045442105b1561090a575050600c54600d5490925060ff8082169250610100909104166001610917565b5060009250829150819050805b90919293565b600161092761193a565b15156001146109485760405162461bcd60e51b81526004016104199061273d565b6109573360026000015461199f565b15156001146109905760405162461bcd60e51b8152602060048201526005602482015264454332332d60d81b6044820152606401610419565b60006109a1336002600001546119b6565b905082156109c95780600260040160008282546109be9190612815565b909155506109e49050565b80600260050160008282546109de9190612815565b90915550505b6002546109f29033836119f3565b600254604080519182528415156020830152810182905233907f50f654d58981575c05e369cb129aeacb01e1b036af429380242cfc5d1a4b743f9060600160405180910390a261078e611a25565b610a4f8585858585600061144a565b5050505050565b60408051600580825260c08201909252606091600091906020820160a0803683375050600e54604051631635719760e31b8152600481019190915291925073__UintLibrary___________________________9163b1ab8cb8915060240160206040518083038186803b158015610acc57600080fd5b505af4158015610ae0573d6000803e3d6000fd5b505050506040513d601f19601f82011682018060405250810190610b049190612446565b81600081518110610b1757610b176128fc565b6020908102919091010152601054604051631635719760e31b8152600481019190915273__UintLibrary___________________________9063b1ab8cb89060240160206040518083038186803b158015610b7157600080fd5b505af4158015610b85573d6000803e3d6000fd5b505050506040513d601f19601f82011682018060405250810190610ba99190612446565b81600181518110610bbc57610bbc6128fc565b6020908102919091010152601154604051631635719760e31b8152600481019190915273__UintLibrary___________________________9063b1ab8cb89060240160206040518083038186803b158015610c1657600080fd5b505af4158015610c2a573d6000803e3d6000fd5b505050506040513d601f19601f82011682018060405250810190610c4e9190612446565b81600281518110610c6157610c616128fc565b6020908102919091010152600f54604051631635719760e31b8152600481019190915273__UintLibrary___________________________9063b1ab8cb89060240160206040518083038186803b158015610cbb57600080fd5b505af4158015610ccf573d6000803e3d6000fd5b505050506040513d601f19601f82011682018060405250810190610cf39190612446565b81600381518110610d0657610d066128fc565b6020908102919091010152601254604051631635719760e31b8152600481019190915273__UintLibrary___________________________9063b1ab8cb89060240160206040518083038186803b158015610d6057600080fd5b505af4158015610d74573d6000803e3d6000fd5b505050506040513d601f19601f82011682018060405250810190610d989190612446565b81600481518110610dab57610dab6128fc565b6020908102919091010152919050565b61078e8383836000611b63565b610dd133611c11565b565b6000610dde826114bc565b92915050565b73__Library_______________________________63d1d719d0600060029054906101000a90046001600160a01b03166001600160a01b031663aa33380a6040518163ffffffff1660e01b815260040160206040518083038186803b158015610e4c57600080fd5b505afa158015610e60573d6000803e3d6000fd5b505050506040513d601f19601f82011682018060405250810190610e849190612382565b6040518263ffffffff1660e01b8152600401610ea09190612627565b60206040518083038186803b158015610eb857600080fd5b505af4158015610ecc573d6000803e3d6000fd5b505050506040513d601f19601f82011682018060405250810190610ef09190612429565b1515600114610f115760405162461bcd60e51b8152600401610419906126b2565b60008060029054906101000a90046001600160a01b03166001600160a01b031663602554156040518163ffffffff1660e01b815260040160206040518083038186803b158015610f6057600080fd5b505afa158015610f74573d6000803e3d6000fd5b505050506040513d601f19601f82011682018060405250810190610f989190612382565b6001600160a01b0316638d12420b6017546040518263ffffffff1660e01b8152600401610fc791815260200190565b60206040518083038186803b158015610fdf57600080fd5b505afa158015610ff3573d6000803e3d6000fd5b505050506040513d601f19601f820116820180604052508101906110179190612446565b9050611024838284611865565b826001600160a01b03167f885157c8ed39c012c67730d5e5d229068f71cac97d1658f5bf6593c8246dcc3c828460405161105f9291906127ce565b60405180910390a2505050565b80600019816003811115611082576110826128e6565b61108f57506013546110da565b8160038111156110a1576110a16128e6565b600114156110b257506015546110da565b8160038111156110c4576110c46128e6565b600214156110d557506014546110da565b506016545b60008060029054906101000a90046001600160a01b03166001600160a01b031663602554156040518163ffffffff1660e01b815260040160206040518083038186803b15801561112957600080fd5b505afa15801561113d573d6000803e3d6000fd5b505050506040513d601f19601f820116820180604052508101906111619190612382565b6001600160a01b0316638d12420b836040518263ffffffff1660e01b815260040161118e91815260200190565b60206040518083038186803b1580156111a657600080fd5b505afa1580156111ba573d6000803e3d6000fd5b505050506040513d601f19601f820116820180604052508101906111de9190612446565b9050803410156112195760405162461bcd60e51b8152600401610419906020808252600490820152634543322d60e01b604082015260600190565b34600085600381111561122e5761122e6128e6565b141561134657600060029054906101000a90046001600160a01b03166001600160a01b031663602554156040518163ffffffff1660e01b815260040160206040518083038186803b15801561128257600080fd5b505afa158015611296573d6000803e3d6000fd5b505050506040513d601f19601f820116820180604052508101906112ba9190612382565b6001600160a01b0316638d12420b6017546040518263ffffffff1660e01b81526004016112e991815260200190565b60206040518083038186803b15801561130157600080fd5b505afa158015611315573d6000803e3d6000fd5b505050506040513d601f19601f820116820180604052508101906113399190612446565b611343908261286e565b90505b80601860008282546113589190612815565b909155505060185460405133917faef711f818f5d24f55a9c2d7da0afa5edd0420e1505ff8e60c344ce836e3e86e916113929134916127ce565b60405180910390a25050505050565b600054610100900460ff16806113ba575060005460ff16155b6113d65760405162461bcd60e51b8152600401610419906126ef565b600054610100900460ff161580156113f8576000805461ffff19166101011790555b61140182611cfc565b600180546001600160a01b0319166001600160a01b038516178155600060085561143090879087908790611b63565b8015611442576000805461ff00191690555b505050505050565b85828082101561146c5760405162461bcd60e51b8152600401610419906126d0565b821561149057601388905560158790556016869055601485905560178490556114b2565b611498611d8b565b600e889055600f8590556010879055601186905560128490555b5050505050505050565b60008060006114ca84611550565b90925090506114d9818361282d565b949350505050565b6001600160a01b0381166000908152601a602090815260409182902060010180548351818402810184019094528084526060939283018282801561154457602002820191906000526020600020905b815481526020019060010190808311611530575b50505050509050919050565b600080600061155e846114e1565b9050600073__UintLibrary___________________________63f254becc836040518263ffffffff1660e01b8152600401611599919061263b565b60206040518083038186803b1580156115b157600080fd5b505af41580156115c5573d6000803e3d6000fd5b505050506040513d601f19601f820116820180604052508101906115e99190612446565b90506000805b835181101561165b5783818151811061160a5761160a6128fc565b6020026020010151836116298987858151811061051c5761051c6128fc565b611633919061284f565b61163d919061282d565b6116479083612815565b915080611653816128b5565b9150506115ef565b509590945092505050565b6001600160a01b0383166000908152601a602090815260408083208484529091529020548211156116e45760405162461bcd60e51b815260206004820152602260248201527f4e6f7420656e6f7567682062616c616e636520666f722074686973206661637460448201526137b960f11b6064820152608401610419565b6001600160a01b0383166000908152601a602090815260408083208484529091528120805484929061171790849061286e565b90915550506001600160a01b0383166000908152601a6020908152604080832084845290915290205461078e576001600160a01b0383166000908152601a60205260409081902090516362fe358160e11b815273__UintLibrary___________________________9163cffd93cd91839163c5fc6b02916117a291879160019091019060040161277b565b60206040518083038186803b1580156117ba57600080fd5b505af41580156117ce573d6000803e3d6000fd5b505050506040513d601f19601f820116820180604052508101906117f29190612446565b6001600160a01b0386166000908152601a60205260409081902090516001600160e01b031960e085901b1681526118309291600101906004016127ce565b60006040518083038186803b15801561184857600080fd5b505af415801561185c573d6000803e3d6000fd5b50505050505050565b811561078e576001600160a01b0383166000908152601a602090815260408083208484529091529020546118c2576001600160a01b0383166000908152601a60209081526040822060019081018054918201815583529120018190555b6001600160a01b0383166000908152601a60209081526040808320848452909152812080548492906118f5908490612815565b9091555050505050565b61190a838383611ea2565b6001600160a01b038316156119225761192283611c11565b6001600160a01b0382161561078e5761078e82611c11565b60045460009042101561194d5750600190565b6003546001600160a01b03161561196e57611966611ebf565b61196e611974565b50600090565b60006002819055600380546001600160a01b0319169055600481905560058190556006819055600755565b6000806119ac84846119b6565b1515949350505050565b60008181526009602090815260408083206001600160a01b03861684529091528120546119e284611ec7565b6119ec919061286e565b9392505050565b60008381526009602090815260408083206001600160a01b0386168452909152812080548392906118f5908490612815565b60055460065410611ae057600b5462010000900460ff1615611a7c57600c54600a55600d54600b805461010080840460ff90811690910261ffff19909216931692909217919091179055611a77611fc9565b611a84565b611a84611fe7565b611a8c611974565b6003546002546006546007546040516001600160a01b03909416937f23ca0034cf5aad32571b4a492e9598ea8a490e1643a60970e3cdc6933b55e49f93611ad693909290916127dc565b60405180910390a2565b60055460075410610dd157600b5462010000900460ff1615611b0957611b04611fc9565b611b11565b611b11611ebf565b611b19611974565b6003546002546006546007546040516001600160a01b03909416937fa58eb6daa3c62c3f883973c4035e5bd3e81aa627c8379de068a7de42df122be293611ad693909290916127dc565b82828160ff1660641015611b895760405162461bcd60e51b8152600401610419906126d0565b8060ff1660641015611bad5760405162461bcd60e51b8152600401610419906126d0565b8215611bd857600a869055600b805460ff8681166101000261ffff1990921690881617179055611442565b600c869055600d805460ff8681166101000261ffff1990921690881617179055600b805462ff0000191662010000179055611442611d8b565b6018546001600160a01b0382166000908152601960205260409020541015611cf9576001600160a01b038116600090815260196020526040812054601854611c59919061286e565b6018546001600160a01b0384166000908152601960205260409020559050611c9b82611c8481611ec7565b611c8e908461284f565b611c96612058565b611865565b816001600160a01b03167fe983a49d27e04c64952da756088988cab0349d02969d01e8fecd907888b2e120611ccf84611ec7565b611cd9908461284f565b611ce1612058565b604051611cef9291906127ce565b60405180910390a2505b50565b600054610100900460ff1680611d15575060005460ff16155b611d315760405162461bcd60e51b8152600401610419906126ef565b600054610100900460ff16158015611d53576000805461ffff19166101011790555b6000805462010000600160b01b031916620100006001600160a01b038516021790558015611d87576000805461ff00191690555b5050565b6000611d9561193a565b15611dca5760405162461bcd60e51b8152602060048201526005602482015264454332342d60d81b6044820152606401610419565b611dd333612154565b1515600114611df45760405162461bcd60e51b81526004016104199061275c565b600380546001600160a01b03191633179055600a54611e139042612815565b600455600b5460649060ff16611e27612058565b611e31919061284f565b611e3b919061282d565b600555600880546002819055906000611e53836128b5565b90915550506003546002546004546005546040516001600160a01b03909416937f472501d19bf75639b2e316cd36f8568b0c3ab943b82a87de3c086c98c1929df9936108b793909290916127dc565b611eaa61193a565b15156001141561078e5761078e8383836121c9565b610dd1612339565b60008060029054906101000a90046001600160a01b03166001600160a01b031663da3dce266040518163ffffffff1660e01b815260040160206040518083038186803b158015611f1657600080fd5b505afa158015611f2a573d6000803e3d6000fd5b505050506040513d601f19601f82011682018060405250810190611f4e9190612382565b6001600160a01b03166370a08231836040518263ffffffff1660e01b8152600401611f799190612627565b60206040518083038186803b158015611f9157600080fd5b505afa158015611fa5573d6000803e3d6000fd5b505050506040513d601f19601f82011682018060405250810190610dde9190612446565b6000600c55600d805461ffff19169055600b805462ff000019169055565b600e54601355601054601555601154601655600f5460145560125460175561200d612339565b7fbe8847d52fb3c03e3414e96d164a23594063f5b6cf01428e61c38bfbbc34ef1960135460155460165460145460175460405161204e9594939291906127f2565b60405180910390a1565b60008060029054906101000a90046001600160a01b03166001600160a01b031663da3dce266040518163ffffffff1660e01b815260040160206040518083038186803b1580156120a757600080fd5b505afa1580156120bb573d6000803e3d6000fd5b505050506040513d601f19601f820116820180604052508101906120df9190612382565b6001600160a01b03166318160ddd6040518163ffffffff1660e01b815260040160206040518083038186803b15801561211757600080fd5b505afa15801561212b573d6000803e3d6000fd5b505050506040513d601f19601f8201168201806040525081019061214f9190612446565b905090565b6001546000906001600160a01b038381169116141561217557506001919050565b600061218083611ec7565b9050606461218c612058565b600b546121a19190610100900460ff1661284f565b6121ab919061282d565b8111156121bb5750600192915050565b50600092915050565b919050565b6001600160a01b03831615801590612205575060025460009081526009602090815260408083206001600160a01b038716845290915290205415155b1561078e5760025460009081526009602090815260408083206001600160a01b03871684529091529020548190811115612261575060025460009081526009602090815260408083206001600160a01b03871684529091529020545b60025460009081526009602090815260408083206001600160a01b03881684529091528120805483929061229690849061286e565b90915550506001600160a01b038316156122e55760025460009081526009602090815260408083206001600160a01b0387168452909152812080548392906122df908490612815565b90915550505b600254604080516001600160a01b038088168252861660208201529081018390527f65fbd5e5dd32bea4aeca85bd0be0abf0e489d655dee888a7510d43b06dda2dba9060600160405180910390a250505050565b6000600e819055600f81905560108190556011819055601255565b803560ff811681146121c457600080fd5b60006020828403121561237757600080fd5b81356119ec81612912565b60006020828403121561239457600080fd5b81516119ec81612912565b6000806000606084860312156123b457600080fd5b83356123bf81612912565b925060208401356123cf81612912565b929592945050506040919091013590565b600080604083850312156123f357600080fd5b82356123fe81612912565b946020939093013593505050565b60006020828403121561241e57600080fd5b81356119ec81612927565b60006020828403121561243b57600080fd5b81516119ec81612927565b60006020828403121561245857600080fd5b5051919050565b60006020828403121561247157600080fd5b8135600481106119ec57600080fd5b60006020828403121561249257600080fd5b5035919050565b600080604083850312156124ac57600080fd5b8235915060208301356124be81612912565b809150509250929050565b600080600080600060a086880312156124e157600080fd5b505083359560208501359550604085013594606081013594506080013592509050565b6000806000806000806000806000806101408b8d03121561252457600080fd5b8a35995060208b0135985060408b0135975060608b0135965060808b0135955060a08b013561255281612912565b945060c08b013561256281612912565b935060e08b013592506125786101008c01612354565b91506125876101208c01612354565b90509295989b9194979a5092959850565b6000806000606084860312156125ad57600080fd5b833592506125bd60208501612354565b91506125cb60408501612354565b90509250925092565b7f4572726f72207472616e73666572696e672066756e647320746f206164647265815264039b9901d160dd1b60208201526000825161261a816025850160208701612885565b9190910160250192915050565b6001600160a01b0391909116815260200190565b6020808252825182820181905260009190848201906040850190845b8181101561267357835183529284019291840191600101612657565b50909695505050505050565b602081526000825180602084015261269e816040850160208701612885565b601f01601f19169190910160400192915050565b6020808252600490820152634543382d60e01b604082015260600190565b602080825260059082015264454332312d60d81b604082015260600190565b6020808252602e908201527f496e697469616c697a61626c653a20636f6e747261637420697320616c72656160408201526d191e481a5b9a5d1a585b1a5e995960921b606082015260800190565b602080825260059082015264454332352d60d81b604082015260600190565b602080825260059082015264454332322d60d81b604082015260600190565b60006040820184835260206040818501528185548084526060860191508660005282600020935060005b818110156127c1578454835260019485019492840192016127a5565b5090979650505050505050565b918252602082015260400190565b9283526020830191909152604082015260600190565b948552602085019390935260408401919091526060830152608082015260a00190565b60008219821115612828576128286128d0565b500190565b60008261284a57634e487b7160e01b600052601260045260246000fd5b500490565b6000816000190483118215151615612869576128696128d0565b500290565b600082821015612880576128806128d0565b500390565b60005b838110156128a0578181015183820152602001612888565b838111156128af576000848401525b50505050565b60006000198214156128c9576128c96128d0565b5060010190565b634e487b7160e01b600052601160045260246000fd5b634e487b7160e01b600052602160045260246000fd5b634e487b7160e01b600052603260045260246000fd5b6001600160a01b0381168114611cf957600080fd5b8015158114611cf957600080fdfea2646970667358221220f22aca45bbe6b04a2437182bb794dfe920c31fc607bc13a8d574cd634681f37164736f6c63430008070033",
  "immutableReferences": {},
  "source": "// SPDX-License-Identifier: GPL-3.0\r\n\r\npragma solidity 0.8.7;\r\n\r\n/**\r\n Treasury receives all the payments and assigns dividends to token holders.\r\n Public Certificate Pool contract can ask for its owners to eb refunded even if they do not own tokens.\r\n\r\n First dividends must be assigned to an account and then the account owner can withdraw the funds.\r\n Both actions must be triggered by the account owner.\r\n\r\n  Events : \r\n    - New Prices Added : list pf prices\r\n    - Payment recieved : payer, amount, new total aggregated contract amount\r\n    - Refund : who, amount, among how many\r\n    - Assign Dividends : who, amount (number of tokens), among how many (total supply)\r\n    - Withdraw : who, how much\r\n */\r\n\r\nimport \"../Interfaces/ITreasury.sol\";\r\nimport \"../Interfaces/IPriceConverter.sol\";\r\nimport \"../Libraries/UintLibrary.sol\";\r\nimport \"../Libraries/Library.sol\";\r\nimport \"../Base/TokenGovernanceBaseContract.sol\";\r\nimport \"@openzeppelin/contracts-upgradeable/token/ERC20/IERC20Upgradeable.sol\";\r\n\r\n\r\ncontract Treasury is ITreasury, TokenGovernanceBaseContract{\r\n    using Library for *;\r\n    using UintLibrary for *;\r\n\r\n    // EVENTS /////////////////////////////////////////\r\n    event _NewPrices(uint, uint, uint, uint, uint);\r\n    event _Pay(address indexed, uint, uint);\r\n    event _Refund(address indexed, uint, uint);\r\n    event _AssignDividend(address indexed, uint, uint);\r\n    event _Withdraw(address indexed, uint);\r\n\r\n    // DATA /////////////////////////////////////////\r\n    // proposition to change prices\r\n    struct ProposedPricesStruct{\r\n        uint NewPublicPriceUSD;\r\n        uint NewCertificatePriceUSD;\r\n        uint NewPrivatePriceUSD;\r\n        uint NewProviderPriceUSD;\r\n        uint NewOwnerRefundFeeUSD;\r\n    }\r\n\r\n    ProposedPricesStruct private _ProposedPrices;\r\n\r\n    // prices parameters usd\r\n    uint private _PublicPriceUSD;\r\n    uint private _CertificatePriceUSD;\r\n    uint private _PrivatePriceUSD;\r\n    uint private _ProviderPriceUSD;\r\n    uint private _OwnerRefundFeeUSD;\r\n\r\n    // last amount at which dividends where assigned for each token owner\r\n    uint private _AggregatedDividendAmount;\r\n    mapping(address => uint) private _lastAssigned;\r\n\r\n    // dividends per token owner\r\n    struct _BalanceStruct{\r\n        mapping(uint => uint) _balance;\r\n        uint[] _factors;\r\n    }\r\n    \r\n    mapping(address => _BalanceStruct) private _balances;\r\n\r\n    // MODIFIERS /////////////////////////////////////////\r\n    modifier areFundsEnough(Library.Prices price){\r\n        uint256 minPriceUSD = 2**256 - 1;\r\n\r\n        if(Library.Prices.NewProvider == price) minPriceUSD = _PublicPriceUSD;\r\n        else if(Library.Prices.NewPool == price) minPriceUSD = _PrivatePriceUSD;\r\n        else if(Library.Prices.NewCertificate == price) minPriceUSD = _CertificatePriceUSD;\r\n        else minPriceUSD = _ProviderPriceUSD;\r\n\r\n        uint256 minPriceETH = IPriceConverter(_managerContract.retrievePriceConverterProxy()).fromUSDToETH(minPriceUSD);\r\n\r\n        require(msg.value >= minPriceETH, \"EC2-\");\r\n        _;\r\n    }\r\n\r\n    modifier isBalanceEnough(uint amount){\r\n        require(checkBalance(msg.sender) >= amount, \"EC20-\");\r\n        _;\r\n    }\r\n\r\n    modifier isFromPublicPool(){\r\n        require(true == Library.ItIsSomeone(_managerContract.retrievePublicCertificatePoolProxy()), \"EC8-\");\r\n        _;\r\n    }\r\n\r\n    modifier isPriceOK(uint256 PublicPriceUSD, uint256 OwnerRefundFeeUSD){\r\n        require(PublicPriceUSD >= OwnerRefundFeeUSD, \"EC21-\");\r\n        _;\r\n    }\r\n    \r\n    // CONSTRUCTOR /////////////////////////////////////////\r\n    function Treasury_init(uint256 PublicPriceUSD, uint256 PrivatePriceUSD, uint256 ProviderPriceUSD, uint256 CertificatePriceUSD, uint256 OwnerRefundFeeUSD, address managerContractAddress, address chairPerson, uint256 PropositionLifeTime, uint8 PropositionThresholdPercentage, uint8 minWeightToProposePercentage) public initializer \r\n    {\r\n        super.TokenGovernanceContract_init(PropositionLifeTime, PropositionThresholdPercentage, minWeightToProposePercentage, chairPerson, managerContractAddress);\r\n        InternalupdatePrices(PublicPriceUSD, PrivatePriceUSD, ProviderPriceUSD, CertificatePriceUSD, OwnerRefundFeeUSD, true);\r\n    }\r\n\r\n    // GOVERNANCE /////////////////////////////////////////\r\n    function updatePrices(uint256 PublicPriceUSD, uint256 PrivatePriceUSD, uint256 ProviderPriceUSD, uint256 CertificatePriceUSD, uint256 OwnerRefundFeeUSD) external override\r\n    {\r\n        InternalupdatePrices(PublicPriceUSD, PrivatePriceUSD, ProviderPriceUSD, CertificatePriceUSD, OwnerRefundFeeUSD, false);\r\n    }\r\n\r\n    function InternalupdatePrices(uint256 PublicPriceUSD, uint256 PrivatePriceUSD, uint256 ProviderPriceUSD, uint256 CertificatePriceUSD, uint256 OwnerRefundFeeUSD, bool fromConstructor) internal\r\n        isPriceOK(PublicPriceUSD, OwnerRefundFeeUSD)\r\n    {\r\n        if(fromConstructor){\r\n            _PublicPriceUSD = PublicPriceUSD;\r\n            _PrivatePriceUSD = PrivatePriceUSD;\r\n            _ProviderPriceUSD = ProviderPriceUSD;\r\n            _CertificatePriceUSD = CertificatePriceUSD;\r\n            _OwnerRefundFeeUSD = OwnerRefundFeeUSD;\r\n        }\r\n        else{\r\n            addProposition();\r\n            _ProposedPrices.NewPublicPriceUSD = PublicPriceUSD;\r\n            _ProposedPrices.NewCertificatePriceUSD = CertificatePriceUSD;\r\n            _ProposedPrices.NewPrivatePriceUSD = PrivatePriceUSD;\r\n            _ProposedPrices.NewProviderPriceUSD = ProviderPriceUSD;\r\n            _ProposedPrices.NewOwnerRefundFeeUSD = OwnerRefundFeeUSD;\r\n        }\r\n        \r\n    }\r\n\r\n    function propositionApproved() internal override\r\n    {\r\n        _PublicPriceUSD = _ProposedPrices.NewPublicPriceUSD;\r\n        _PrivatePriceUSD = _ProposedPrices.NewPrivatePriceUSD;\r\n        _ProviderPriceUSD = _ProposedPrices.NewProviderPriceUSD;\r\n        _CertificatePriceUSD = _ProposedPrices.NewCertificatePriceUSD;\r\n        _OwnerRefundFeeUSD = _ProposedPrices.NewOwnerRefundFeeUSD;\r\n        \r\n        removeProposition();\r\n\r\n        emit _NewPrices(_PublicPriceUSD, _PrivatePriceUSD, _ProviderPriceUSD, _CertificatePriceUSD, _OwnerRefundFeeUSD);\r\n    }\r\n\r\n    function propositionRejected() internal override\r\n    {\r\n        removeProposition();\r\n    }\r\n\r\n    function propositionExpired() internal override\r\n    {\r\n        removeProposition();\r\n    }\r\n\r\n    function removeProposition() internal\r\n    {\r\n         delete(_ProposedPrices);\r\n    }\r\n\r\n    function retrieveProposition() external override view returns(bytes32[] memory)\r\n    {\r\n        bytes32[] memory proposition = new bytes32[](5);\r\n        proposition[0] = UintLibrary.UintToBytes32(_ProposedPrices.NewPublicPriceUSD);\r\n        proposition[1] = UintLibrary.UintToBytes32(_ProposedPrices.NewPrivatePriceUSD);\r\n        proposition[2] = UintLibrary.UintToBytes32(_ProposedPrices.NewProviderPriceUSD);\r\n        proposition[3] = UintLibrary.UintToBytes32(_ProposedPrices.NewCertificatePriceUSD);\r\n        proposition[4] = UintLibrary.UintToBytes32(_ProposedPrices.NewOwnerRefundFeeUSD);\r\n        return proposition;\r\n    }\r\n\r\n    // FUNCTIONALITY /////////////////////////////////////////\r\n    function pay(Library.Prices price) external \r\n        areFundsEnough(price)\r\n    override payable\r\n    {\r\n        uint256 amount = msg.value;\r\n        if(price == Library.Prices.NewProvider) amount -= IPriceConverter(_managerContract.retrievePriceConverterProxy()).fromUSDToETH(_OwnerRefundFeeUSD);\r\n        _AggregatedDividendAmount += amount;\r\n\r\n        emit _Pay(msg.sender, msg.value, _AggregatedDividendAmount);\r\n    }\r\n\r\n    function InternalonTokenBalanceChanged(address from, address to, uint256 amount) internal override\r\n    {\r\n        super.InternalonTokenBalanceChanged(from, to, amount);\r\n        if(address(0) != from) InternalAssignDividends(from);\r\n        if(address(0) != to) InternalAssignDividends(to);\r\n    }\r\n\r\n    function AssignDividends() external override\r\n    {\r\n       InternalAssignDividends(msg.sender);\r\n    }\r\n\r\n    function InternalAssignDividends(address recipient) internal\r\n    {\r\n        if(_lastAssigned[recipient] < _AggregatedDividendAmount){\r\n           uint amountToSplit = _AggregatedDividendAmount - _lastAssigned[recipient];\r\n           _lastAssigned[recipient] = _AggregatedDividendAmount;\r\n           addBalance(recipient, amountToSplit * GetTokensBalance(recipient), totalSupply());\r\n           \r\n           emit _AssignDividend(recipient, amountToSplit * GetTokensBalance(recipient), totalSupply());\r\n        }\r\n    }\r\n\r\n    function getRefund(address addr, uint numberOfOwners) external \r\n        isFromPublicPool()\r\n    override\r\n    {\r\n        uint OwnerRefundFeeWei = IPriceConverter(_managerContract.retrievePriceConverterProxy()).fromUSDToETH(_OwnerRefundFeeUSD);\r\n        addBalance(addr, OwnerRefundFeeWei, numberOfOwners);\r\n\r\n        emit _Refund(addr, OwnerRefundFeeWei, numberOfOwners);\r\n    }\r\n\r\n    function withdraw(uint amount) external \r\n        isBalanceEnough(amount)\r\n    override\r\n    {\r\n        uint[] memory f = returnFactors(msg.sender);\r\n        (uint total, uint commonDividend) = sumUpTotal(msg.sender);\r\n        uint remainder =  total - (amount * commonDividend);\r\n\r\n        for(uint i=0; i < f.length; i++){\r\n            substractBalance(msg.sender, returnBalanceForFactor(msg.sender, f[i]), f[i]);\r\n        }\r\n\r\n        addBalance(msg.sender, remainder, commonDividend);\r\n\r\n        (bool success, bytes memory data) = msg.sender.call{value: amount}(\"\");\r\n        require(success, string(abi.encodePacked(\"Error transfering funds to address : \", data)));\r\n\r\n        emit _Withdraw(msg.sender, amount);\r\n    }\r\n\r\n    function retrieveLastAssigned(address addr) external override view returns(uint)\r\n    {\r\n        return _lastAssigned[addr];\r\n    }\r\n\r\n    function retrieveBalance(address addr) external override view returns(uint)\r\n    {\r\n        return checkBalance(addr);\r\n    }\r\n\r\n    function retrievePrices() external override view returns(uint, uint, uint, uint, uint)\r\n    {\r\n        return(_PublicPriceUSD, _PrivatePriceUSD, _ProviderPriceUSD, _CertificatePriceUSD, _OwnerRefundFeeUSD);\r\n    }\r\n\r\n    function retrieveAggregatedAmount() external override view returns(uint){\r\n        return _AggregatedDividendAmount;\r\n    }\r\n\r\n    function checkBalance(address addr) internal view returns(uint){\r\n        (uint total, uint commonDividend) = sumUpTotal(addr);\r\n\r\n        return total / commonDividend;\r\n    }\r\n\r\n    function sumUpTotal(address addr) internal view returns (uint, uint)\r\n    {\r\n        uint[] memory f = returnFactors(addr);\r\n        uint CommonDividend = UintLibrary.ProductOfFactors(f);\r\n        uint total = 0;\r\n\r\n        for(uint i=0; i < f.length; i++){\r\n            total += returnBalanceForFactor(addr, f[i]) * CommonDividend / f[i];\r\n        }\r\n\r\n        return (total, CommonDividend);\r\n    }\r\n\r\n    function returnFactors(address addr) internal view returns(uint[] memory){\r\n        return _balances[addr]._factors;\r\n    }\r\n\r\n    function returnBalanceForFactor(address addr, uint factor) internal view returns(uint){\r\n        return _balances[addr]._balance[factor];\r\n    }\r\n\r\n    function addBalance(address addr, uint amount, uint factor) internal\r\n    {\r\n        if(amount > 0){\r\n            if(0 == _balances[addr]._balance[factor])\r\n            {\r\n                _balances[addr]._factors.push(factor);\r\n            }\r\n            _balances[addr]._balance[factor] += amount;\r\n        }\r\n    }\r\n\r\n    function substractBalance(address addr, uint amount, uint factor) internal\r\n    {\r\n        require(_balances[addr]._balance[factor] >= amount, \"Not enough balance for this factor\");\r\n\r\n        _balances[addr]._balance[factor] -= amount;\r\n\r\n        if(0 == _balances[addr]._balance[factor])\r\n        {\r\n            UintLibrary.UintArrayRemoveResize(UintLibrary.FindUintPosition(factor, _balances[addr]._factors), _balances[addr]._factors);\r\n        }\r\n        \r\n    }\r\n\r\n}",
  "sourcePath": "C:/Users/d-aam/GitHub/Certificates/contracts/DeployedContracts/Treasury.sol",
  "compiler": {
    "name": "solc",
    "version": "0.8.7+commit.e28d00a7.Emscripten.clang"
  },
  "schemaVersion": "3.3.4",
  "updatedAt": "2021-09-14T06:18:58.465Z",
  "devdoc": {
    "kind": "dev",
    "methods": {},
    "version": 1
  },
  "userdoc": {
    "kind": "user",
    "methods": {},
    "version": 1
  }
}