{
  "contractName": "Treasury",
  "abi": [
    {
      "anonymous": false,
      "inputs": [
        {
          "indexed": false,
          "internalType": "uint256",
          "name": "",
          "type": "uint256"
        },
        {
          "indexed": true,
          "internalType": "address",
          "name": "",
          "type": "address"
        },
        {
          "indexed": false,
          "internalType": "uint256",
          "name": "",
          "type": "uint256"
        },
        {
          "indexed": false,
          "internalType": "uint256",
          "name": "",
          "type": "uint256"
        }
      ],
      "name": "_AddedProposition",
      "type": "event"
    },
    {
      "anonymous": false,
      "inputs": [
        {
          "indexed": true,
          "internalType": "address",
          "name": "",
          "type": "address"
        },
        {
          "indexed": false,
          "internalType": "uint256",
          "name": "",
          "type": "uint256"
        },
        {
          "indexed": false,
          "internalType": "uint256",
          "name": "",
          "type": "uint256"
        }
      ],
      "name": "_AssignDividend",
      "type": "event"
    },
    {
      "anonymous": false,
      "inputs": [
        {
          "indexed": false,
          "internalType": "uint256",
          "name": "",
          "type": "uint256"
        },
        {
          "indexed": true,
          "internalType": "address",
          "name": "",
          "type": "address"
        }
      ],
      "name": "_CancelledProposition",
      "type": "event"
    },
    {
      "anonymous": false,
      "inputs": [
        {
          "indexed": false,
          "internalType": "uint256",
          "name": "",
          "type": "uint256"
        },
        {
          "indexed": false,
          "internalType": "uint256",
          "name": "",
          "type": "uint256"
        },
        {
          "indexed": false,
          "internalType": "uint256",
          "name": "",
          "type": "uint256"
        },
        {
          "indexed": false,
          "internalType": "uint256",
          "name": "",
          "type": "uint256"
        },
        {
          "indexed": false,
          "internalType": "uint256",
          "name": "",
          "type": "uint256"
        }
      ],
      "name": "_NewPrices",
      "type": "event"
    },
    {
      "anonymous": false,
      "inputs": [
        {
          "indexed": true,
          "internalType": "address",
          "name": "",
          "type": "address"
        },
        {
          "indexed": false,
          "internalType": "uint256",
          "name": "",
          "type": "uint256"
        },
        {
          "indexed": false,
          "internalType": "uint256",
          "name": "",
          "type": "uint256"
        }
      ],
      "name": "_Pay",
      "type": "event"
    },
    {
      "anonymous": false,
      "inputs": [
        {
          "indexed": false,
          "internalType": "uint256",
          "name": "",
          "type": "uint256"
        },
        {
          "indexed": true,
          "internalType": "address",
          "name": "",
          "type": "address"
        },
        {
          "indexed": false,
          "internalType": "uint256",
          "name": "",
          "type": "uint256"
        },
        {
          "indexed": false,
          "internalType": "uint256",
          "name": "",
          "type": "uint256"
        }
      ],
      "name": "_PropositionApproved",
      "type": "event"
    },
    {
      "anonymous": false,
      "inputs": [
        {
          "indexed": false,
          "internalType": "uint256",
          "name": "",
          "type": "uint256"
        },
        {
          "indexed": true,
          "internalType": "address",
          "name": "",
          "type": "address"
        },
        {
          "indexed": false,
          "internalType": "uint256",
          "name": "",
          "type": "uint256"
        },
        {
          "indexed": false,
          "internalType": "uint256",
          "name": "",
          "type": "uint256"
        }
      ],
      "name": "_PropositionRejected",
      "type": "event"
    },
    {
      "anonymous": false,
      "inputs": [
        {
          "indexed": false,
          "internalType": "uint256",
          "name": "",
          "type": "uint256"
        },
        {
          "indexed": true,
          "internalType": "address",
          "name": "",
          "type": "address"
        },
        {
          "indexed": false,
          "internalType": "bool",
          "name": "",
          "type": "bool"
        },
        {
          "indexed": false,
          "internalType": "uint256",
          "name": "",
          "type": "uint256"
        }
      ],
      "name": "_PropositionVote",
      "type": "event"
    },
    {
      "anonymous": false,
      "inputs": [
        {
          "indexed": true,
          "internalType": "address",
          "name": "",
          "type": "address"
        },
        {
          "indexed": false,
          "internalType": "uint256",
          "name": "",
          "type": "uint256"
        },
        {
          "indexed": false,
          "internalType": "uint256",
          "name": "",
          "type": "uint256"
        }
      ],
      "name": "_Refund",
      "type": "event"
    },
    {
      "anonymous": false,
      "inputs": [
        {
          "indexed": true,
          "internalType": "uint256",
          "name": "",
          "type": "uint256"
        },
        {
          "indexed": false,
          "internalType": "address",
          "name": "",
          "type": "address"
        },
        {
          "indexed": false,
          "internalType": "address",
          "name": "",
          "type": "address"
        },
        {
          "indexed": false,
          "internalType": "uint256",
          "name": "",
          "type": "uint256"
        }
      ],
      "name": "_UsedTokensTransfered",
      "type": "event"
    },
    {
      "anonymous": false,
      "inputs": [
        {
          "indexed": true,
          "internalType": "address",
          "name": "",
          "type": "address"
        },
        {
          "indexed": false,
          "internalType": "uint256",
          "name": "",
          "type": "uint256"
        }
      ],
      "name": "_Withdraw",
      "type": "event"
    },
    {
      "inputs": [],
      "name": "cancelProposition",
      "outputs": [],
      "stateMutability": "nonpayable",
      "type": "function"
    },
    {
      "inputs": [
        {
          "internalType": "address",
          "name": "from",
          "type": "address"
        },
        {
          "internalType": "address",
          "name": "to",
          "type": "address"
        },
        {
          "internalType": "uint256",
          "name": "amount",
          "type": "uint256"
        }
      ],
      "name": "onTokenBalanceChanged",
      "outputs": [],
      "stateMutability": "nonpayable",
      "type": "function"
    },
    {
      "inputs": [],
      "name": "retrievePendingPropConfig",
      "outputs": [
        {
          "internalType": "uint256",
          "name": "",
          "type": "uint256"
        },
        {
          "internalType": "uint8",
          "name": "",
          "type": "uint8"
        },
        {
          "internalType": "uint8",
          "name": "",
          "type": "uint8"
        },
        {
          "internalType": "bool",
          "name": "",
          "type": "bool"
        }
      ],
      "stateMutability": "view",
      "type": "function"
    },
    {
      "inputs": [],
      "name": "retrievePropConfig",
      "outputs": [
        {
          "internalType": "uint256",
          "name": "",
          "type": "uint256"
        },
        {
          "internalType": "uint8",
          "name": "",
          "type": "uint8"
        },
        {
          "internalType": "uint8",
          "name": "",
          "type": "uint8"
        }
      ],
      "stateMutability": "view",
      "type": "function"
    },
    {
      "inputs": [],
      "name": "retrievePropositionStatus",
      "outputs": [
        {
          "internalType": "address",
          "name": "",
          "type": "address"
        },
        {
          "internalType": "uint256",
          "name": "",
          "type": "uint256"
        },
        {
          "internalType": "uint256",
          "name": "",
          "type": "uint256"
        },
        {
          "internalType": "uint256",
          "name": "",
          "type": "uint256"
        },
        {
          "internalType": "uint256",
          "name": "",
          "type": "uint256"
        }
      ],
      "stateMutability": "view",
      "type": "function"
    },
    {
      "inputs": [
        {
          "internalType": "uint256",
          "name": "PropLifeTime",
          "type": "uint256"
        },
        {
          "internalType": "uint8",
          "name": "PropThresholdPerc",
          "type": "uint8"
        },
        {
          "internalType": "uint8",
          "name": "minWeightToPropPerc",
          "type": "uint8"
        }
      ],
      "name": "updateProp",
      "outputs": [],
      "stateMutability": "nonpayable",
      "type": "function"
    },
    {
      "inputs": [
        {
          "internalType": "bool",
          "name": "vote",
          "type": "bool"
        }
      ],
      "name": "voteProposition",
      "outputs": [],
      "stateMutability": "nonpayable",
      "type": "function"
    },
    {
      "inputs": [
        {
          "internalType": "uint256",
          "name": "PublicPriceUSD",
          "type": "uint256"
        },
        {
          "internalType": "uint256",
          "name": "PrivatePriceUSD",
          "type": "uint256"
        },
        {
          "internalType": "uint256",
          "name": "ProviderPriceUSD",
          "type": "uint256"
        },
        {
          "internalType": "uint256",
          "name": "CertificatePriceUSD",
          "type": "uint256"
        },
        {
          "internalType": "uint256",
          "name": "OwnerRefundFeeUSD",
          "type": "uint256"
        },
        {
          "internalType": "address",
          "name": "managerContractAddress",
          "type": "address"
        },
        {
          "internalType": "address",
          "name": "chairPerson",
          "type": "address"
        },
        {
          "internalType": "uint256",
          "name": "PropositionLifeTime",
          "type": "uint256"
        },
        {
          "internalType": "uint8",
          "name": "PropositionThresholdPercentage",
          "type": "uint8"
        },
        {
          "internalType": "uint8",
          "name": "minWeightToProposePercentage",
          "type": "uint8"
        }
      ],
      "name": "Treasury_init",
      "outputs": [],
      "stateMutability": "nonpayable",
      "type": "function"
    },
    {
      "inputs": [
        {
          "internalType": "uint256",
          "name": "PublicPriceUSD",
          "type": "uint256"
        },
        {
          "internalType": "uint256",
          "name": "PrivatePriceUSD",
          "type": "uint256"
        },
        {
          "internalType": "uint256",
          "name": "ProviderPriceUSD",
          "type": "uint256"
        },
        {
          "internalType": "uint256",
          "name": "CertificatePriceUSD",
          "type": "uint256"
        },
        {
          "internalType": "uint256",
          "name": "OwnerRefundFeeUSD",
          "type": "uint256"
        }
      ],
      "name": "updatePrices",
      "outputs": [],
      "stateMutability": "nonpayable",
      "type": "function"
    },
    {
      "inputs": [],
      "name": "retrieveProposition",
      "outputs": [
        {
          "internalType": "bytes32[]",
          "name": "",
          "type": "bytes32[]"
        }
      ],
      "stateMutability": "view",
      "type": "function"
    },
    {
      "inputs": [
        {
          "internalType": "enum Library.Prices",
          "name": "price",
          "type": "uint8"
        }
      ],
      "name": "pay",
      "outputs": [],
      "stateMutability": "payable",
      "type": "function"
    },
    {
      "inputs": [],
      "name": "AssignDividends",
      "outputs": [],
      "stateMutability": "nonpayable",
      "type": "function"
    },
    {
      "inputs": [
        {
          "internalType": "address",
          "name": "addr",
          "type": "address"
        },
        {
          "internalType": "uint256",
          "name": "numberOfOwners",
          "type": "uint256"
        }
      ],
      "name": "getRefund",
      "outputs": [],
      "stateMutability": "nonpayable",
      "type": "function"
    },
    {
      "inputs": [
        {
          "internalType": "uint256",
          "name": "amount",
          "type": "uint256"
        }
      ],
      "name": "withdraw",
      "outputs": [],
      "stateMutability": "nonpayable",
      "type": "function"
    },
    {
      "inputs": [
        {
          "internalType": "address",
          "name": "addr",
          "type": "address"
        }
      ],
      "name": "retrieveBalance",
      "outputs": [
        {
          "internalType": "uint256",
          "name": "",
          "type": "uint256"
        }
      ],
      "stateMutability": "view",
      "type": "function"
    },
    {
      "inputs": [],
      "name": "retrievePrices",
      "outputs": [
        {
          "internalType": "uint256",
          "name": "",
          "type": "uint256"
        },
        {
          "internalType": "uint256",
          "name": "",
          "type": "uint256"
        },
        {
          "internalType": "uint256",
          "name": "",
          "type": "uint256"
        },
        {
          "internalType": "uint256",
          "name": "",
          "type": "uint256"
        },
        {
          "internalType": "uint256",
          "name": "",
          "type": "uint256"
        }
      ],
      "stateMutability": "view",
      "type": "function"
    },
    {
      "inputs": [],
      "name": "retrieveAggregatedAmount",
      "outputs": [
        {
          "internalType": "uint256",
          "name": "",
          "type": "uint256"
        }
      ],
      "stateMutability": "view",
      "type": "function"
    }
  ],
  "bytecode": "0x608060405234801561001057600080fd5b506128b8806100206000396000f3fe6080604052600436106100ce5760003560e01c8063056f90ba146100d357806325b4f3ca146100f55780632e1a7d4d1461012b5780633c7df55d1461014b57806355457ee91461016b578063840f6d171461018057806390d138ed146101ce57806391f916711461020f57806396df6e791461022f578063a93316f51461024f578063ac2bb44214610271578063d40a523614610291578063d5920d49146102a6578063d660ab34146102c5578063e20f37ad146102fe578063eb1e2a411461031e578063f0c9325e1461033e575b600080fd5b3480156100df57600080fd5b506100f36100ee366004612451565b610351565b005b34801561010157600080fd5b5060135460155460165460145460175460405161012295949392919061273f565b60405180910390f35b34801561013757600080fd5b506100f36101463660046123fd565b6103ec565b34801561015757600080fd5b506100f361016636600461231c565b6105c3565b34801561017757600080fd5b506100f3610700565b34801561018c57600080fd5b50600354600454600554600654600754604080516001600160a01b0390961686526020860194909452928401919091526060830152608082015260a001610122565b3480156101da57600080fd5b506101e361082e565b604051610122949392919093845260ff9283166020850152911660408301521515606082015260800190565b34801561021b57600080fd5b506100f361022a366004612389565b610889565b34801561023b57600080fd5b506100f361024a366004612416565b6109ac565b34801561025b57600080fd5b506102646109c2565b6040516101229190612588565b34801561027d57600080fd5b506100f361028c3660046124e5565b610d27565b34801561029d57600080fd5b506100f3610d34565b3480156102b257600080fd5b506018545b604051908152602001610122565b3480156102d157600080fd5b50600a54600b546040805192835260ff808316602085015261010090920490911690820152606001610122565b34801561030a57600080fd5b506102b76103193660046122e2565b610d3f565b34801561032a57600080fd5b506100f361033936600461235d565b610d50565b6100f361034c3660046123dc565b610fd8565b600054610100900460ff168061036a575060005460ff16155b61038f5760405162461bcd60e51b81526004016103869061263c565b60405180910390fd5b600054610100900460ff161580156103b1576000805461ffff19166101011790555b6103be848484888a61130d565b6103cd8b8b8b8b8b60016113b6565b80156103df576000805461ff00191690555b5050505050505050505050565b80806103f73361143c565b101561042d5760405162461bcd60e51b8152602060048201526005602482015264454332302d60d81b6044820152606401610386565b600061043833611461565b9050600080610446336114d0565b90925090506000610457828761279c565b61046190846127bb565b905060005b84518110156104ea576104d8336104b93388858151811061048957610489612849565b60200260200101516001600160a01b03919091166000908152601a60209081526040808320938352929052205490565b8784815181106104cb576104cb612849565b60200260200101516115e6565b806104e281612802565b915050610466565b506104f63382846117e5565b6040516000908190339089908381818185875af1925050503d806000811461053a576040519150601f19603f3d011682016040523d82523d6000602084013e61053f565b606091505b509150915081816040516020016105569190612521565b604051602081830303815290604052906105835760405162461bcd60e51b815260040161038691906125cc565b5060405188815233907f732ea8a38f70c2018ed8dfd6e97bf6381f60102061beae0ac4d9a5abd15a06029060200160405180910390a25050505050505050565b73__Library_______________________________63d1d719d0600060029054906101000a90046001600160a01b03166001600160a01b031663da3dce266040518163ffffffff1660e01b815260040160206040518083038186803b15801561062b57600080fd5b505afa15801561063f573d6000803e3d6000fd5b505050506040513d601f19601f8201168201806040525081019061066391906122ff565b6040518263ffffffff1660e01b815260040161067f9190612574565b60206040518083038186803b15801561069757600080fd5b505af41580156106ab573d6000803e3d6000fd5b505050506040513d601f19601f820116820180604052508101906106cf91906123a6565b15156001146106f05760405162461bcd60e51b8152600401610386906125ff565b6106fb83838361187f565b505050565b600161070a6118ba565b151560011461072b5760405162461bcd60e51b81526004016103869061268a565b600354604051630d1d719d60e41b815273__Library_______________________________9163d1d719d09161076d916001600160a01b031690600401612574565b60206040518083038186803b15801561078557600080fd5b505af4158015610799573d6000803e3d6000fd5b505050506040513d601f19601f820116820180604052508101906107bd91906123a6565b15156001146107de5760405162461bcd60e51b8152600401610386906126a9565b6107e66118f4565b6003546002546040519081526001600160a01b03909116907f1fe8aec10c0a50fa765076161e08c1f961ced69594ff45cf7d559f593afe14799060200160405180910390a250565b600080600080600b60029054906101000a900460ff168015610851575060045442105b15610876575050600c54600d5490925060ff8082169250610100909104166001610883565b5060009250829150819050805b90919293565b60016108936118ba565b15156001146108b45760405162461bcd60e51b81526004016103869061268a565b6108c33360026000015461191f565b15156001146108fc5760405162461bcd60e51b8152602060048201526005602482015264454332332d60d81b6044820152606401610386565b600061090d33600260000154611936565b9050821561093557806002600401600082825461092a9190612762565b909155506109509050565b806002600501600082825461094a9190612762565b90915550505b60025461095e903383611973565b600254604080519182528415156020830152810182905233907f50f654d58981575c05e369cb129aeacb01e1b036af429380242cfc5d1a4b743f9060600160405180910390a26106fb6119a5565b6109bb858585858560006113b6565b5050505050565b60408051600580825260c08201909252606091600091906020820160a0803683375050600e54604051631635719760e31b8152600481019190915291925073__UintLibrary___________________________9163b1ab8cb8915060240160206040518083038186803b158015610a3857600080fd5b505af4158015610a4c573d6000803e3d6000fd5b505050506040513d601f19601f82011682018060405250810190610a7091906123c3565b81600081518110610a8357610a83612849565b6020908102919091010152601054604051631635719760e31b8152600481019190915273__UintLibrary___________________________9063b1ab8cb89060240160206040518083038186803b158015610add57600080fd5b505af4158015610af1573d6000803e3d6000fd5b505050506040513d601f19601f82011682018060405250810190610b1591906123c3565b81600181518110610b2857610b28612849565b6020908102919091010152601154604051631635719760e31b8152600481019190915273__UintLibrary___________________________9063b1ab8cb89060240160206040518083038186803b158015610b8257600080fd5b505af4158015610b96573d6000803e3d6000fd5b505050506040513d601f19601f82011682018060405250810190610bba91906123c3565b81600281518110610bcd57610bcd612849565b6020908102919091010152600f54604051631635719760e31b8152600481019190915273__UintLibrary___________________________9063b1ab8cb89060240160206040518083038186803b158015610c2757600080fd5b505af4158015610c3b573d6000803e3d6000fd5b505050506040513d601f19601f82011682018060405250810190610c5f91906123c3565b81600381518110610c7257610c72612849565b6020908102919091010152601254604051631635719760e31b8152600481019190915273__UintLibrary___________________________9063b1ab8cb89060240160206040518083038186803b158015610ccc57600080fd5b505af4158015610ce0573d6000803e3d6000fd5b505050506040513d601f19601f82011682018060405250810190610d0491906123c3565b81600481518110610d1757610d17612849565b6020908102919091010152919050565b6106fb8383836000611ae5565b610d3d33611b9c565b565b6000610d4a8261143c565b92915050565b73__Library_______________________________63d1d719d0600060029054906101000a90046001600160a01b03166001600160a01b031663aa33380a6040518163ffffffff1660e01b815260040160206040518083038186803b158015610db857600080fd5b505afa158015610dcc573d6000803e3d6000fd5b505050506040513d601f19601f82011682018060405250810190610df091906122ff565b6040518263ffffffff1660e01b8152600401610e0c9190612574565b60206040518083038186803b158015610e2457600080fd5b505af4158015610e38573d6000803e3d6000fd5b505050506040513d601f19601f82011682018060405250810190610e5c91906123a6565b1515600114610e7d5760405162461bcd60e51b8152600401610386906125ff565b60008060029054906101000a90046001600160a01b03166001600160a01b031663602554156040518163ffffffff1660e01b815260040160206040518083038186803b158015610ecc57600080fd5b505afa158015610ee0573d6000803e3d6000fd5b505050506040513d601f19601f82011682018060405250810190610f0491906122ff565b6001600160a01b0316638d12420b6017546040518263ffffffff1660e01b8152600401610f3391815260200190565b60206040518083038186803b158015610f4b57600080fd5b505afa158015610f5f573d6000803e3d6000fd5b505050506040513d601f19601f82011682018060405250810190610f8391906123c3565b9050610f908382846117e5565b826001600160a01b03167f885157c8ed39c012c67730d5e5d229068f71cac97d1658f5bf6593c8246dcc3c8284604051610fcb92919061271b565b60405180910390a2505050565b80600019816003811115610fee57610fee612833565b610ffb5750601354611046565b81600381111561100d5761100d612833565b6001141561101e5750601554611046565b81600381111561103057611030612833565b600214156110415750601454611046565b506016545b60008060029054906101000a90046001600160a01b03166001600160a01b031663602554156040518163ffffffff1660e01b815260040160206040518083038186803b15801561109557600080fd5b505afa1580156110a9573d6000803e3d6000fd5b505050506040513d601f19601f820116820180604052508101906110cd91906122ff565b6001600160a01b0316638d12420b836040518263ffffffff1660e01b81526004016110fa91815260200190565b60206040518083038186803b15801561111257600080fd5b505afa158015611126573d6000803e3d6000fd5b505050506040513d601f19601f8201168201806040525081019061114a91906123c3565b9050803410156111855760405162461bcd60e51b8152600401610386906020808252600490820152634543322d60e01b604082015260600190565b34600085600381111561119a5761119a612833565b14156112b257600060029054906101000a90046001600160a01b03166001600160a01b031663602554156040518163ffffffff1660e01b815260040160206040518083038186803b1580156111ee57600080fd5b505afa158015611202573d6000803e3d6000fd5b505050506040513d601f19601f8201168201806040525081019061122691906122ff565b6001600160a01b0316638d12420b6017546040518263ffffffff1660e01b815260040161125591815260200190565b60206040518083038186803b15801561126d57600080fd5b505afa158015611281573d6000803e3d6000fd5b505050506040513d601f19601f820116820180604052508101906112a591906123c3565b6112af90826127bb565b90505b80601860008282546112c49190612762565b909155505060185460405133917faef711f818f5d24f55a9c2d7da0afa5edd0420e1505ff8e60c344ce836e3e86e916112fe91349161271b565b60405180910390a25050505050565b600054610100900460ff1680611326575060005460ff16155b6113425760405162461bcd60e51b81526004016103869061263c565b600054610100900460ff16158015611364576000805461ffff19166101011790555b61136d82611c87565b600180546001600160a01b0319166001600160a01b038516178155600060085561139c90879087908790611ae5565b80156113ae576000805461ff00191690555b505050505050565b8582808210156113d85760405162461bcd60e51b81526004016103869061261d565b82156113fc5760138890556015879055601686905560148590556017849055611432565b611418600a544261140d9190612762565b600b5460ff16611d16565b600e889055600f8590556010879055601186905560128490555b5050505050505050565b600080600061144a846114d0565b9092509050611459818361277a565b949350505050565b6001600160a01b0381166000908152601a60209081526040918290206001018054835181840281018401909452808452606093928301828280156114c457602002820191906000526020600020905b8154815260200190600101908083116114b0575b50505050509050919050565b60008060006114de84611461565b9050600073__UintLibrary___________________________63f254becc836040518263ffffffff1660e01b81526004016115199190612588565b60206040518083038186803b15801561153157600080fd5b505af4158015611545573d6000803e3d6000fd5b505050506040513d601f19601f8201168201806040525081019061156991906123c3565b90506000805b83518110156115db5783818151811061158a5761158a612849565b6020026020010151836115a98987858151811061048957610489612849565b6115b3919061279c565b6115bd919061277a565b6115c79083612762565b9150806115d381612802565b91505061156f565b509590945092505050565b6001600160a01b0383166000908152601a602090815260408083208484529091529020548211156116645760405162461bcd60e51b815260206004820152602260248201527f4e6f7420656e6f7567682062616c616e636520666f722074686973206661637460448201526137b960f11b6064820152608401610386565b6001600160a01b0383166000908152601a60209081526040808320848452909152812080548492906116979084906127bb565b90915550506001600160a01b0383166000908152601a602090815260408083208484529091529020546106fb576001600160a01b0383166000908152601a60205260409081902090516362fe358160e11b815273__UintLibrary___________________________9163cffd93cd91839163c5fc6b02916117229187916001909101906004016126c8565b60206040518083038186803b15801561173a57600080fd5b505af415801561174e573d6000803e3d6000fd5b505050506040513d601f19601f8201168201806040525081019061177291906123c3565b6001600160a01b0386166000908152601a60205260409081902090516001600160e01b031960e085901b1681526117b092916001019060040161271b565b60006040518083038186803b1580156117c857600080fd5b505af41580156117dc573d6000803e3d6000fd5b50505050505050565b81156106fb576001600160a01b0383166000908152601a60209081526040808320848452909152902054611842576001600160a01b0383166000908152601a60209081526040822060019081018054918201815583529120018190555b6001600160a01b0383166000908152601a6020908152604080832084845290915281208054849290611875908490612762565b9091555050505050565b61188a838383611e1f565b6001600160a01b038316156118a2576118a283611b9c565b6001600160a01b038216156106fb576106fb82611b9c565b6004546000904210156118cd5750600190565b6003546001600160a01b0316156118ee576118e6611e3c565b6118ee6118f4565b50600090565b60006002819055600380546001600160a01b0319169055600481905560058190556006819055600755565b60008061192c8484611936565b1515949350505050565b60008181526009602090815260408083206001600160a01b038616845290915281205461196284611e44565b61196c91906127bb565b9392505050565b60008381526009602090815260408083206001600160a01b038616845290915281208054839290611875908490612762565b6005546006541115611a6157600b5462010000900460ff16156119fd57600c54600a55600d54600b805461010080840460ff90811690910261ffff199092169316929092179190911790556119f8611f46565b611a05565b611a05611f64565b611a0d6118f4565b6003546002546006546007546040516001600160a01b03909416937f23ca0034cf5aad32571b4a492e9598ea8a490e1643a60970e3cdc6933b55e49f93611a579390929091612729565b60405180910390a2565b6005546007541115610d3d57600b5462010000900460ff1615611a8b57611a86611f46565b611a93565b611a93611e3c565b611a9b6118f4565b6003546002546006546007546040516001600160a01b03909416937fa58eb6daa3c62c3f883973c4035e5bd3e81aa627c8379de068a7de42df122be293611a579390929091612729565b82828160ff1660641015611b0b5760405162461bcd60e51b81526004016103869061261d565b8060ff1660641015611b2f5760405162461bcd60e51b81526004016103869061261d565b8215611b5a57600a869055600b805460ff8681166101000261ffff19909216908816171790556113ae565b600c869055600d805460ff8681166101000261ffff1990921690881617179055600b805462ff0000191662010000179055600a546113ae9061140d9042612762565b6018546001600160a01b0382166000908152601960205260409020541015611c84576001600160a01b038116600090815260196020526040812054601854611be491906127bb565b6018546001600160a01b0384166000908152601960205260409020559050611c2682611c0f81611e44565b611c19908461279c565b611c21611fd5565b6117e5565b816001600160a01b03167fe983a49d27e04c64952da756088988cab0349d02969d01e8fecd907888b2e120611c5a84611e44565b611c64908461279c565b611c6c611fd5565b604051611c7a92919061271b565b60405180910390a2505b50565b600054610100900460ff1680611ca0575060005460ff16155b611cbc5760405162461bcd60e51b81526004016103869061263c565b600054610100900460ff16158015611cde576000805461ffff19166101011790555b6000805462010000600160b01b031916620100006001600160a01b038516021790558015611d12576000805461ff00191690555b5050565b6000611d206118ba565b15611d555760405162461bcd60e51b8152602060048201526005602482015264454332342d60d81b6044820152606401610386565b611d5e336120d1565b1515600114611d7f5760405162461bcd60e51b8152600401610386906126a9565b600380546001600160a01b031916331790556004839055606460ff8316611da4611fd5565b611dae919061279c565b611db8919061277a565b600555600880546002819055906000611dd083612802565b90915550506003546002546004546005546040516001600160a01b03909416937f472501d19bf75639b2e316cd36f8568b0c3ab943b82a87de3c086c98c1929df993610fcb9390929091612729565b611e276118ba565b1515600114156106fb576106fb838383612146565b610d3d6122b6565b60008060029054906101000a90046001600160a01b03166001600160a01b031663da3dce266040518163ffffffff1660e01b815260040160206040518083038186803b158015611e9357600080fd5b505afa158015611ea7573d6000803e3d6000fd5b505050506040513d601f19601f82011682018060405250810190611ecb91906122ff565b6001600160a01b03166370a08231836040518263ffffffff1660e01b8152600401611ef69190612574565b60206040518083038186803b158015611f0e57600080fd5b505afa158015611f22573d6000803e3d6000fd5b505050506040513d601f19601f82011682018060405250810190610d4a91906123c3565b6000600c55600d805461ffff19169055600b805462ff000019169055565b600e54601355601054601555601154601655600f54601455601254601755611f8a6122b6565b7fbe8847d52fb3c03e3414e96d164a23594063f5b6cf01428e61c38bfbbc34ef19601354601554601654601454601754604051611fcb95949392919061273f565b60405180910390a1565b60008060029054906101000a90046001600160a01b03166001600160a01b031663da3dce266040518163ffffffff1660e01b815260040160206040518083038186803b15801561202457600080fd5b505afa158015612038573d6000803e3d6000fd5b505050506040513d601f19601f8201168201806040525081019061205c91906122ff565b6001600160a01b03166318160ddd6040518163ffffffff1660e01b815260040160206040518083038186803b15801561209457600080fd5b505afa1580156120a8573d6000803e3d6000fd5b505050506040513d601f19601f820116820180604052508101906120cc91906123c3565b905090565b6001546000906001600160a01b03838116911614156120f257506001919050565b60006120fd83611e44565b90506064612109611fd5565b600b5461211e9190610100900460ff1661279c565b612128919061277a565b8111156121385750600192915050565b50600092915050565b919050565b6001600160a01b03831615801590612182575060025460009081526009602090815260408083206001600160a01b038716845290915290205415155b156106fb5760025460009081526009602090815260408083206001600160a01b038716845290915290205481908111156121de575060025460009081526009602090815260408083206001600160a01b03871684529091529020545b60025460009081526009602090815260408083206001600160a01b0388168452909152812080548392906122139084906127bb565b90915550506001600160a01b038316156122625760025460009081526009602090815260408083206001600160a01b03871684529091528120805483929061225c908490612762565b90915550505b600254604080516001600160a01b038088168252861660208201529081018390527f65fbd5e5dd32bea4aeca85bd0be0abf0e489d655dee888a7510d43b06dda2dba9060600160405180910390a250505050565b6000600e819055600f81905560108190556011819055601255565b803560ff8116811461214157600080fd5b6000602082840312156122f457600080fd5b813561196c8161285f565b60006020828403121561231157600080fd5b815161196c8161285f565b60008060006060848603121561233157600080fd5b833561233c8161285f565b9250602084013561234c8161285f565b929592945050506040919091013590565b6000806040838503121561237057600080fd5b823561237b8161285f565b946020939093013593505050565b60006020828403121561239b57600080fd5b813561196c81612874565b6000602082840312156123b857600080fd5b815161196c81612874565b6000602082840312156123d557600080fd5b5051919050565b6000602082840312156123ee57600080fd5b81356004811061196c57600080fd5b60006020828403121561240f57600080fd5b5035919050565b600080600080600060a0868803121561242e57600080fd5b505083359560208501359550604085013594606081013594506080013592509050565b6000806000806000806000806000806101408b8d03121561247157600080fd5b8a35995060208b0135985060408b0135975060608b0135965060808b0135955060a08b013561249f8161285f565b945060c08b01356124af8161285f565b935060e08b013592506124c56101008c016122d1565b91506124d46101208c016122d1565b90509295989b9194979a5092959850565b6000806000606084860312156124fa57600080fd5b8335925061250a602085016122d1565b9150612518604085016122d1565b90509250925092565b7f4572726f72207472616e73666572696e672066756e647320746f206164647265815264039b9901d160dd1b6020820152600082516125678160258501602087016127d2565b9190910160250192915050565b6001600160a01b0391909116815260200190565b6020808252825182820181905260009190848201906040850190845b818110156125c0578351835292840192918401916001016125a4565b50909695505050505050565b60208152600082518060208401526125eb8160408501602087016127d2565b601f01601f19169190910160400192915050565b6020808252600490820152634543382d60e01b604082015260600190565b602080825260059082015264454332312d60d81b604082015260600190565b6020808252602e908201527f496e697469616c697a61626c653a20636f6e747261637420697320616c72656160408201526d191e481a5b9a5d1a585b1a5e995960921b606082015260800190565b602080825260059082015264454332352d60d81b604082015260600190565b602080825260059082015264454332322d60d81b604082015260600190565b60006040820184835260206040818501528185548084526060860191508660005282600020935060005b8181101561270e578454835260019485019492840192016126f2565b5090979650505050505050565b918252602082015260400190565b9283526020830191909152604082015260600190565b948552602085019390935260408401919091526060830152608082015260a00190565b600082198211156127755761277561281d565b500190565b60008261279757634e487b7160e01b600052601260045260246000fd5b500490565b60008160001904831182151516156127b6576127b661281d565b500290565b6000828210156127cd576127cd61281d565b500390565b60005b838110156127ed5781810151838201526020016127d5565b838111156127fc576000848401525b50505050565b60006000198214156128165761281661281d565b5060010190565b634e487b7160e01b600052601160045260246000fd5b634e487b7160e01b600052602160045260246000fd5b634e487b7160e01b600052603260045260246000fd5b6001600160a01b0381168114611c8457600080fd5b8015158114611c8457600080fdfea264697066735822122033a9e7c09d12747f29336049ae29d19fe98a16f98a1cc235df0ed1a32145f5d664736f6c63430008070033",
  "immutableReferences": {},
  "source": "// SPDX-License-Identifier: GPL-3.0\r\n\r\npragma solidity >=0.8.0 <0.9.0;\r\n\r\n/**\r\n * @title Storage\r\n * @dev Store & retrieve value in a variable\r\n */\r\n\r\nimport \"../Interfaces/ITreasury.sol\";\r\nimport \"../Interfaces/IPriceConverter.sol\";\r\nimport \"../Libraries/UintLibrary.sol\";\r\nimport \"../Libraries/Library.sol\";\r\nimport \"../Base/TokenGovernanceBaseContract.sol\";\r\nimport \"@openzeppelin/contracts-upgradeable/token/ERC20/IERC20Upgradeable.sol\";\r\n\r\n\r\ncontract Treasury is ITreasury, TokenGovernanceBaseContract{\r\n    using Library for *;\r\n    using UintLibrary for *;\r\n\r\n    // EVENTS /////////////////////////////////////////\r\n    event _NewPrices(uint, uint, uint, uint, uint);\r\n    event _Pay(address indexed, uint, uint);\r\n    event _Refund(address indexed, uint, uint);\r\n    event _AssignDividend(address indexed, uint, uint);\r\n    event _Withdraw(address indexed, uint);\r\n\r\n    // DATA /////////////////////////////////////////\r\n    // proposition to change prices\r\n    struct ProposedPricesStruct{\r\n        uint NewPublicPriceUSD;\r\n        uint NewCertificatePriceUSD;\r\n        uint NewPrivatePriceUSD;\r\n        uint NewProviderPriceUSD;\r\n        uint NewOwnerRefundFeeUSD;\r\n    }\r\n\r\n    ProposedPricesStruct private _ProposedPrices;\r\n\r\n    // prices parameters usd\r\n    uint private _PublicPriceUSD;\r\n    uint private _CertificatePriceUSD;\r\n    uint private _PrivatePriceUSD;\r\n    uint private _ProviderPriceUSD;\r\n    uint private _OwnerRefundFeeUSD;\r\n\r\n    // last amount at which dividends where assigned for each token owner\r\n    uint private _AggregatedDividendAmount;\r\n    mapping(address => uint) private _lastAssigned;\r\n\r\n    // dividends per token owner\r\n    struct _BalanceStruct{\r\n        mapping(uint => uint) _balance;\r\n        uint[] _factors;\r\n    }\r\n    \r\n    mapping(address => _BalanceStruct) private _balances;\r\n\r\n    // MODIFIERS /////////////////////////////////////////\r\n    modifier areFundsEnough(Library.Prices price){\r\n        uint256 minPriceUSD = 2**256 - 1;\r\n\r\n        if(Library.Prices.NewProvider == price) minPriceUSD = _PublicPriceUSD;\r\n        else if(Library.Prices.NewPool == price) minPriceUSD = _PrivatePriceUSD;\r\n        else if(Library.Prices.NewCertificate == price) minPriceUSD = _CertificatePriceUSD;\r\n        else minPriceUSD = _ProviderPriceUSD;\r\n\r\n        uint256 minPriceETH = IPriceConverter(_managerContract.retrievePriceConverterProxy()).fromUSDToETH(minPriceUSD);\r\n\r\n        require(msg.value >= minPriceETH, \"EC2-\");\r\n        _;\r\n    }\r\n\r\n    modifier isBalanceEnough(uint amount){\r\n        require(checkBalance(msg.sender) >= amount, \"EC20-\");\r\n        _;\r\n    }\r\n\r\n    modifier isFromPublicPool(){\r\n        require(true == Library.ItIsSomeone(_managerContract.retrievePublicCertificatePoolProxy()), \"EC8-\");\r\n        _;\r\n    }\r\n\r\n    modifier isPriceOK(uint256 PublicPriceUSD, uint256 OwnerRefundFeeUSD){\r\n        require(PublicPriceUSD >= OwnerRefundFeeUSD, \"EC21-\");\r\n        _;\r\n    }\r\n    \r\n    // CONSTRUCTOR /////////////////////////////////////////\r\n    function Treasury_init(uint256 PublicPriceUSD, uint256 PrivatePriceUSD, uint256 ProviderPriceUSD, uint256 CertificatePriceUSD, uint256 OwnerRefundFeeUSD, address managerContractAddress, address chairPerson, uint256 PropositionLifeTime, uint8 PropositionThresholdPercentage, uint8 minWeightToProposePercentage) public initializer \r\n    {\r\n        super.TokenGovernanceContract_init(PropositionLifeTime, PropositionThresholdPercentage, minWeightToProposePercentage, chairPerson, managerContractAddress);\r\n        InternalupdatePrices(PublicPriceUSD, PrivatePriceUSD, ProviderPriceUSD, CertificatePriceUSD, OwnerRefundFeeUSD, true);\r\n    }\r\n\r\n    // GOVERNANCE /////////////////////////////////////////\r\n    function updatePrices(uint256 PublicPriceUSD, uint256 PrivatePriceUSD, uint256 ProviderPriceUSD, uint256 CertificatePriceUSD, uint256 OwnerRefundFeeUSD) external override\r\n    {\r\n        InternalupdatePrices(PublicPriceUSD, PrivatePriceUSD, ProviderPriceUSD, CertificatePriceUSD, OwnerRefundFeeUSD, false);\r\n    }\r\n\r\n    function InternalupdatePrices(uint256 PublicPriceUSD, uint256 PrivatePriceUSD, uint256 ProviderPriceUSD, uint256 CertificatePriceUSD, uint256 OwnerRefundFeeUSD, bool fromConstructor) internal\r\n        isPriceOK(PublicPriceUSD, OwnerRefundFeeUSD)\r\n    {\r\n        if(fromConstructor){\r\n            _PublicPriceUSD = PublicPriceUSD;\r\n            _PrivatePriceUSD = PrivatePriceUSD;\r\n            _ProviderPriceUSD = ProviderPriceUSD;\r\n            _CertificatePriceUSD = CertificatePriceUSD;\r\n            _OwnerRefundFeeUSD = OwnerRefundFeeUSD;\r\n        }\r\n        else{\r\n            addProposition(block.timestamp + _PropositionLifeTime, _PropositionThresholdPercentage);\r\n            _ProposedPrices.NewPublicPriceUSD = PublicPriceUSD;\r\n            _ProposedPrices.NewCertificatePriceUSD = CertificatePriceUSD;\r\n            _ProposedPrices.NewPrivatePriceUSD = PrivatePriceUSD;\r\n            _ProposedPrices.NewProviderPriceUSD = ProviderPriceUSD;\r\n            _ProposedPrices.NewOwnerRefundFeeUSD = OwnerRefundFeeUSD;\r\n        }\r\n        \r\n    }\r\n\r\n    function propositionApproved() internal override\r\n    {\r\n        _PublicPriceUSD = _ProposedPrices.NewPublicPriceUSD;\r\n        _PrivatePriceUSD = _ProposedPrices.NewPrivatePriceUSD;\r\n        _ProviderPriceUSD = _ProposedPrices.NewProviderPriceUSD;\r\n        _CertificatePriceUSD = _ProposedPrices.NewCertificatePriceUSD;\r\n        _OwnerRefundFeeUSD = _ProposedPrices.NewOwnerRefundFeeUSD;\r\n        \r\n        removeProposition();\r\n\r\n        emit _NewPrices(_PublicPriceUSD, _PrivatePriceUSD, _ProviderPriceUSD, _CertificatePriceUSD, _OwnerRefundFeeUSD);\r\n    }\r\n\r\n    function propositionRejected() internal override\r\n    {\r\n        removeProposition();\r\n    }\r\n\r\n    function propositionExpired() internal override\r\n    {\r\n        removeProposition();\r\n    }\r\n\r\n    function removeProposition() internal\r\n    {\r\n         delete(_ProposedPrices);\r\n    }\r\n\r\n    function retrieveProposition() external override view returns(bytes32[] memory)\r\n    {\r\n        bytes32[] memory proposition = new bytes32[](5);\r\n        proposition[0] = UintLibrary.UintToBytes32(_ProposedPrices.NewPublicPriceUSD);\r\n        proposition[1] = UintLibrary.UintToBytes32(_ProposedPrices.NewPrivatePriceUSD);\r\n        proposition[2] = UintLibrary.UintToBytes32(_ProposedPrices.NewProviderPriceUSD);\r\n        proposition[3] = UintLibrary.UintToBytes32(_ProposedPrices.NewCertificatePriceUSD);\r\n        proposition[4] = UintLibrary.UintToBytes32(_ProposedPrices.NewOwnerRefundFeeUSD);\r\n        return proposition;\r\n    }\r\n\r\n    // FUNCTIONALITY /////////////////////////////////////////\r\n    function pay(Library.Prices price) external \r\n        areFundsEnough(price)\r\n    override payable\r\n    {\r\n        uint256 amount = msg.value;\r\n        if(price == Library.Prices.NewProvider) amount -= IPriceConverter(_managerContract.retrievePriceConverterProxy()).fromUSDToETH(_OwnerRefundFeeUSD);\r\n        _AggregatedDividendAmount += amount;\r\n\r\n        emit _Pay(msg.sender, msg.value, _AggregatedDividendAmount);\r\n    }\r\n\r\n    function InternalonTokenBalanceChanged(address from, address to, uint256 amount) internal override\r\n    {\r\n        super.InternalonTokenBalanceChanged(from, to, amount);\r\n        if(address(0) != from) InternalAssignDividends(from);\r\n        if(address(0) != to) InternalAssignDividends(to);\r\n    }\r\n\r\n    function AssignDividends() external override\r\n    {\r\n       InternalAssignDividends(msg.sender);\r\n    }\r\n\r\n    function InternalAssignDividends(address recipient) internal\r\n    {\r\n        if(_lastAssigned[recipient] < _AggregatedDividendAmount){\r\n           uint amountToSplit = _AggregatedDividendAmount - _lastAssigned[recipient];\r\n           _lastAssigned[recipient] = _AggregatedDividendAmount;\r\n           addBalance(recipient, amountToSplit * GetTokensBalance(recipient), totalSupply());\r\n           \r\n           emit _AssignDividend(recipient, amountToSplit * GetTokensBalance(recipient), totalSupply());\r\n        }\r\n    }\r\n\r\n    function getRefund(address addr, uint numberOfOwners) external \r\n        isFromPublicPool()\r\n    override\r\n    {\r\n        uint OwnerRefundFeeWei = IPriceConverter(_managerContract.retrievePriceConverterProxy()).fromUSDToETH(_OwnerRefundFeeUSD);\r\n        addBalance(addr, OwnerRefundFeeWei, numberOfOwners);\r\n\r\n        emit _Refund(addr, OwnerRefundFeeWei, numberOfOwners);\r\n    }\r\n\r\n    function withdraw(uint amount) external \r\n        isBalanceEnough(amount)\r\n    override\r\n    {\r\n        uint[] memory f = returnFactors(msg.sender);\r\n        (uint total, uint commonDividend) = sumUpTotal(msg.sender);\r\n        uint remainder =  total - (amount * commonDividend);\r\n\r\n        for(uint i=0; i < f.length; i++){\r\n            substractBalance(msg.sender, returnBalanceForFactor(msg.sender, f[i]), f[i]);\r\n        }\r\n\r\n        addBalance(msg.sender, remainder, commonDividend);\r\n\r\n        (bool success, bytes memory data) = msg.sender.call{value: amount}(\"\");\r\n        require(success, string(abi.encodePacked(\"Error transfering funds to address : \", data)));\r\n\r\n        emit _Withdraw(msg.sender, amount);\r\n    }\r\n\r\n    function retrieveBalance(address addr) external override view returns(uint)\r\n    {\r\n        return checkBalance(addr);\r\n    }\r\n\r\n    function retrievePrices() external override view returns(uint, uint, uint, uint, uint)\r\n    {\r\n        return(_PublicPriceUSD, _PrivatePriceUSD, _ProviderPriceUSD, _CertificatePriceUSD, _OwnerRefundFeeUSD);\r\n    }\r\n\r\n    function retrieveAggregatedAmount() external override view returns(uint){\r\n        return _AggregatedDividendAmount;\r\n    }\r\n\r\n    function checkBalance(address addr) internal view returns(uint){\r\n        (uint total, uint commonDividend) = sumUpTotal(addr);\r\n\r\n        return total / commonDividend;\r\n    }\r\n\r\n    function sumUpTotal(address addr) internal view returns (uint, uint)\r\n    {\r\n        uint[] memory f = returnFactors(addr);\r\n        uint CommonDividend = UintLibrary.ProductOfFactors(f);\r\n        uint total = 0;\r\n\r\n        for(uint i=0; i < f.length; i++){\r\n            total += returnBalanceForFactor(addr, f[i]) * CommonDividend / f[i];\r\n        }\r\n\r\n        return (total, CommonDividend);\r\n    }\r\n\r\n    function returnFactors(address addr) internal view returns(uint[] memory){\r\n        return _balances[addr]._factors;\r\n    }\r\n\r\n    function returnBalanceForFactor(address addr, uint factor) internal view returns(uint){\r\n        return _balances[addr]._balance[factor];\r\n    }\r\n\r\n    function addBalance(address addr, uint amount, uint factor) internal\r\n    {\r\n        if(amount > 0){\r\n            if(0 == _balances[addr]._balance[factor])\r\n            {\r\n                _balances[addr]._factors.push(factor);\r\n            }\r\n            _balances[addr]._balance[factor] += amount;\r\n        }\r\n    }\r\n\r\n    function substractBalance(address addr, uint amount, uint factor) internal\r\n    {\r\n        require(_balances[addr]._balance[factor] >= amount, \"Not enough balance for this factor\");\r\n\r\n        _balances[addr]._balance[factor] -= amount;\r\n\r\n        if(0 == _balances[addr]._balance[factor])\r\n        {\r\n            UintLibrary.UintArrayRemoveResize(UintLibrary.FindUintPosition(factor, _balances[addr]._factors), _balances[addr]._factors);\r\n        }\r\n        \r\n    }\r\n\r\n}",
  "sourcePath": "C:/Users/d-aam/GitHub/Certificates/contracts/DeployedContracts/Treasury.sol",
  "compiler": {
    "name": "solc",
    "version": "0.8.7+commit.e28d00a7.Emscripten.clang"
  },
  "schemaVersion": "3.3.4",
  "updatedAt": "2021-09-03T09:26:24.783Z",
  "devdoc": {
    "kind": "dev",
    "methods": {},
    "version": 1
  },
  "userdoc": {
    "kind": "user",
    "methods": {},
    "version": 1
  }
}