{
  "contractName": "Treasury",
  "abi": [
    {
      "inputs": [
        {
          "internalType": "uint256",
          "name": "PublicPriceWei",
          "type": "uint256"
        },
        {
          "internalType": "uint256",
          "name": "PrivatePriceWei",
          "type": "uint256"
        },
        {
          "internalType": "uint256",
          "name": "CertificatePriceWei",
          "type": "uint256"
        },
        {
          "internalType": "uint256",
          "name": "OwnerRefundPriceWei",
          "type": "uint256"
        },
        {
          "internalType": "address",
          "name": "managerContractAddress",
          "type": "address"
        },
        {
          "internalType": "uint256",
          "name": "PropositionLifeTime",
          "type": "uint256"
        },
        {
          "internalType": "uint8",
          "name": "PropositionThresholdPercentage",
          "type": "uint8"
        },
        {
          "internalType": "uint8",
          "name": "minWeightToProposePercentage",
          "type": "uint8"
        }
      ],
      "stateMutability": "nonpayable",
      "type": "constructor"
    },
    {
      "inputs": [],
      "name": "cancelProposition",
      "outputs": [],
      "stateMutability": "nonpayable",
      "type": "function"
    },
    {
      "inputs": [],
      "name": "retrievePropConfig",
      "outputs": [
        {
          "internalType": "uint256",
          "name": "",
          "type": "uint256"
        },
        {
          "internalType": "uint8",
          "name": "",
          "type": "uint8"
        },
        {
          "internalType": "uint8",
          "name": "",
          "type": "uint8"
        }
      ],
      "stateMutability": "view",
      "type": "function"
    },
    {
      "inputs": [],
      "name": "retrievePropositionStatus",
      "outputs": [
        {
          "internalType": "address",
          "name": "",
          "type": "address"
        },
        {
          "internalType": "uint256",
          "name": "",
          "type": "uint256"
        },
        {
          "internalType": "uint256",
          "name": "",
          "type": "uint256"
        },
        {
          "internalType": "uint256",
          "name": "",
          "type": "uint256"
        },
        {
          "internalType": "uint256",
          "name": "",
          "type": "uint256"
        },
        {
          "internalType": "address[]",
          "name": "",
          "type": "address[]"
        },
        {
          "internalType": "uint256[]",
          "name": "",
          "type": "uint256[]"
        },
        {
          "internalType": "address[]",
          "name": "",
          "type": "address[]"
        }
      ],
      "stateMutability": "view",
      "type": "function"
    },
    {
      "inputs": [
        {
          "internalType": "uint256",
          "name": "PropLifeTime",
          "type": "uint256"
        },
        {
          "internalType": "uint8",
          "name": "PropThresholdPerc",
          "type": "uint8"
        },
        {
          "internalType": "uint8",
          "name": "minWeightToPropPerc",
          "type": "uint8"
        }
      ],
      "name": "updateProp",
      "outputs": [],
      "stateMutability": "nonpayable",
      "type": "function"
    },
    {
      "inputs": [
        {
          "internalType": "bool",
          "name": "vote",
          "type": "bool"
        }
      ],
      "name": "voteProposition",
      "outputs": [],
      "stateMutability": "nonpayable",
      "type": "function"
    },
    {
      "inputs": [
        {
          "internalType": "uint256",
          "name": "PublicPriceWei",
          "type": "uint256"
        },
        {
          "internalType": "uint256",
          "name": "PrivatePriceWei",
          "type": "uint256"
        },
        {
          "internalType": "uint256",
          "name": "CertificatePriceWei",
          "type": "uint256"
        },
        {
          "internalType": "uint256",
          "name": "OwnerRefundPriceWei",
          "type": "uint256"
        }
      ],
      "name": "updatePrices",
      "outputs": [],
      "stateMutability": "nonpayable",
      "type": "function"
    },
    {
      "inputs": [],
      "name": "retrieveProposition",
      "outputs": [
        {
          "internalType": "string[]",
          "name": "",
          "type": "string[]"
        }
      ],
      "stateMutability": "view",
      "type": "function"
    },
    {
      "inputs": [
        {
          "internalType": "address",
          "name": "PublicPoolAddress",
          "type": "address"
        },
        {
          "internalType": "address",
          "name": "CertisTokenAddress",
          "type": "address"
        }
      ],
      "name": "updateContracts",
      "outputs": [],
      "stateMutability": "nonpayable",
      "type": "function"
    },
    {
      "inputs": [
        {
          "internalType": "enum Library.Prices",
          "name": "price",
          "type": "uint8"
        }
      ],
      "name": "pay",
      "outputs": [],
      "stateMutability": "payable",
      "type": "function"
    },
    {
      "inputs": [
        {
          "internalType": "address",
          "name": "addr",
          "type": "address"
        },
        {
          "internalType": "uint256",
          "name": "numberOfOwners",
          "type": "uint256"
        }
      ],
      "name": "getRefund",
      "outputs": [],
      "stateMutability": "nonpayable",
      "type": "function"
    },
    {
      "inputs": [
        {
          "internalType": "uint256",
          "name": "amount",
          "type": "uint256"
        }
      ],
      "name": "withdraw",
      "outputs": [],
      "stateMutability": "nonpayable",
      "type": "function"
    },
    {
      "inputs": [
        {
          "internalType": "address",
          "name": "addr",
          "type": "address"
        }
      ],
      "name": "retrieveBalance",
      "outputs": [
        {
          "internalType": "uint256",
          "name": "",
          "type": "uint256"
        }
      ],
      "stateMutability": "view",
      "type": "function"
    },
    {
      "inputs": [],
      "name": "retrievePrices",
      "outputs": [
        {
          "internalType": "uint256",
          "name": "",
          "type": "uint256"
        },
        {
          "internalType": "uint256",
          "name": "",
          "type": "uint256"
        },
        {
          "internalType": "uint256",
          "name": "",
          "type": "uint256"
        },
        {
          "internalType": "uint256",
          "name": "",
          "type": "uint256"
        }
      ],
      "stateMutability": "view",
      "type": "function"
    },
    {
      "inputs": [
        {
          "internalType": "address",
          "name": "addr",
          "type": "address"
        }
      ],
      "name": "returnFactors",
      "outputs": [
        {
          "internalType": "uint256[]",
          "name": "",
          "type": "uint256[]"
        }
      ],
      "stateMutability": "view",
      "type": "function"
    },
    {
      "inputs": [
        {
          "internalType": "address",
          "name": "addr",
          "type": "address"
        },
        {
          "internalType": "uint256",
          "name": "factor",
          "type": "uint256"
        }
      ],
      "name": "returnBalanceForFactor",
      "outputs": [
        {
          "internalType": "uint256",
          "name": "",
          "type": "uint256"
        }
      ],
      "stateMutability": "view",
      "type": "function"
    }
  ],
  "bytecode": "0x60806040523480156200001157600080fd5b5060405162002fe838038062002fe88339810160408190526200003491620009ab565b600080546001600160a01b0319163317905583838383620000598383836001620000a1565b5050600e80546001600160a01b0390931661010002610100600160a81b03199093169290921790915550620000938888888860016200017c565b505050505050505062000b9d565b82828160ff1660641015620000d35760405162461bcd60e51b8152600401620000ca9062000a84565b60405180910390fd5b8060ff1660641015620000fa5760405162461bcd60e51b8152600401620000ca9062000a84565b82156200012757600a869055600b805460ff8681166101000261ffff199092169088161717905562000174565b600c869055600d805460ff8681166101000261ffff1990921690881617179055600e805460ff19166001179055600a54620001749062000168904262000afb565b600b5460ff16620001f4565b505050505050565b848280821015620001a15760405162461bcd60e51b8152600401620000ca9062000a84565b8215620001c2576014879055601686905560158590556017849055620001eb565b620001d6600a544262000168919062000afb565b600f8790556010859055601186905560128490555b50505050505050565b60006200020062000374565b15620002385760405162461bcd60e51b8152600401620000ca906020808252600490820152631150cc8d60e21b604082015260600190565b6200024333620003b4565b15156001146200027f5760405162461bcd60e51b8152600401620000ca9060208082526004908201526322a1991960e11b604082015260600190565b6200028962000474565b80516200029f9160079160209091019062000734565b506007546200030c5760405162461bcd60e51b815260206004820152603260248201527f496d706f737369626c6520746f206164642070726f706f736974696f6e2c20746044820152716865726520617265206e6f2061646d696e7360701b6064820152608401620000ca565b600280546001600160a01b031916331790556003839055606460ff8316620003336200050d565b6200033f919062000b39565b6200034b919062000b16565b6004556200035862000593565b80516200036e916008916020909101906200079e565b50505050565b600354600090421015620003885750600190565b6002546001600160a01b031615620003ae57620003a46200062c565b620003ae62000648565b50600090565b600080546001600160a01b0316331415620003d157506001919050565b6000620003dd62000474565b90506000620003eb62000593565b90506000620003fb85846200069f565b9050825181101562000464576064620004136200050d565b600b546200042a9190610100900460ff1662000b39565b62000436919062000b16565b8282815181106200044b576200044b62000b71565b6020026020010151106200046457506001949350505050565b506000949350505050565b919050565b60606000600160009054906101000a90046001600160a01b03166001600160a01b03166388d44ee06040518163ffffffff1660e01b815260040160006040518083038186803b158015620004c757600080fd5b505afa158015620004dc573d6000803e3d6000fd5b505050506040513d6000823e601f3d908101601f19168201604052620005069190810190620008ba565b5092915050565b600154604080516318160ddd60e01b815290516000926001600160a01b0316916318160ddd916004808301926020929190829003018186803b1580156200055357600080fd5b505afa15801562000568573d6000803e3d6000fd5b505050506040513d601f19601f820116820180604052508101906200058e919062000991565b905090565b60606000600160009054906101000a90046001600160a01b03166001600160a01b03166388d44ee06040518163ffffffff1660e01b815260040160006040518083038186803b158015620005e657600080fd5b505afa158015620005fb573d6000803e3d6000fd5b505050506040513d6000823e601f3d908101601f19168201604052620006259190810190620008ba565b9392505050565b620006466000600f81905560108190556011819055601255565b565b600280546001600160a01b0319168155600060038190556004819055600581905560068190556200067b600782620007dc565b6200068b600683016000620007dc565b6200069b600783016000620007dc565b5050565b60405160016219125f60e01b0319815260009073__AddressLibrary________________________9063ffe6eda190620006e0908690869060040162000a26565b60206040518083038186803b158015620006f957600080fd5b505af41580156200070e573d6000803e3d6000fd5b505050506040513d601f19601f8201168201806040525081019062000625919062000991565b8280548282559060005260206000209081019282156200078c579160200282015b828111156200078c57825182546001600160a01b0319166001600160a01b0390911617825560209092019160019091019062000755565b506200079a929150620007ff565b5090565b8280548282559060005260206000209081019282156200078c579160200282015b828111156200078c578251825591602001919060010190620007bf565b5080546000825590600052602060002090810190620007fc9190620007ff565b50565b5b808211156200079a576000815560010162000800565b80516001600160a01b03811681146200046f57600080fd5b600082601f8301126200084057600080fd5b8151602062000859620008538362000ad5565b62000aa2565b80838252828201915082860187848660051b89010111156200087a57600080fd5b60005b858110156200089b578151845292840192908401906001016200087d565b5090979650505050505050565b805160ff811681146200046f57600080fd5b60008060408385031215620008ce57600080fd5b82516001600160401b0380821115620008e657600080fd5b818501915085601f830112620008fb57600080fd5b815160206200090e620008538362000ad5565b8083825282820191508286018a848660051b89010111156200092f57600080fd5b600096505b848710156200095d57620009488162000816565b83526001969096019591830191830162000934565b50918801519196509093505050808211156200097857600080fd5b5062000987858286016200082e565b9150509250929050565b600060208284031215620009a457600080fd5b5051919050565b600080600080600080600080610100898b031215620009c957600080fd5b88519750602089015196506040890151955060608901519450620009f060808a0162000816565b935060a0890151925062000a0760c08a01620008a8565b915062000a1760e08a01620008a8565b90509295985092959890939650565b6001600160a01b038381168252604060208084018290528451918401829052600092858201929091906060860190855b8181101562000a7657855185168352948301949183019160010162000a56565b509098975050505050505050565b6020808252600490820152634543323160e01b604082015260600190565b604051601f8201601f191681016001600160401b038111828210171562000acd5762000acd62000b87565b604052919050565b60006001600160401b0382111562000af15762000af162000b87565b5060051b60200190565b6000821982111562000b115762000b1162000b5b565b500190565b60008262000b3457634e487b7160e01b600052601260045260246000fd5b500490565b600081600019048311821515161562000b565762000b5662000b5b565b500290565b634e487b7160e01b600052601160045260246000fd5b634e487b7160e01b600052603260045260246000fd5b634e487b7160e01b600052604160045260246000fd5b61243b8062000bad6000396000f3fe6080604052600436106100b85760003560e01c806325b4f3ca146100bd5780632e1a7d4d146100fb57806351f69d061461011d57806355457ee91461013d578063840f6d1714610152578063906816d71461017b57806391f91671146101a9578063a93316f5146101c9578063ac2bb442146101eb578063c56cb5801461020b578063d660ab3414610238578063e20f37ad14610271578063e692c49f14610291578063eb1e2a41146102b1578063f0c9325e146102d1575b600080fd5b3480156100c957600080fd5b506014546016546015546017546040805194855260208501939093529183015260608201526080015b60405180910390f35b34801561010757600080fd5b5061011b610116366004611ef0565b6102e4565b005b34801561012957600080fd5b5061011b610138366004611f22565b6104c6565b34801561014957600080fd5b5061011b6104da565b34801561015e57600080fd5b5061016761053a565b6040516100f29897969594939291906120c5565b34801561018757600080fd5b5061019b610196366004611ccf565b6106aa565b6040519081526020016100f2565b3480156101b557600080fd5b5061011b6101c4366004611e02565b6106d2565b3480156101d557600080fd5b506101de610971565b6040516100f29190612136565b3480156101f757600080fd5b5061011b610206366004611f54565b610c4d565b34801561021757600080fd5b5061022b610226366004611c79565b610c5f565b6040516100f291906121b0565b34801561024457600080fd5b50600a54600b546040805192835260ff8083166020850152610100909204909116908201526060016100f2565b34801561027d57600080fd5b5061019b61028c366004611c79565b610cce565b34801561029d57600080fd5b5061011b6102ac366004611c96565b610cdf565b3480156102bd57600080fd5b5061011b6102cc366004611ccf565b610dc5565b61011b6102df366004611e3c565b610e85565b80806102ef33610f54565b101561032f5760405162461bcd60e51b8152600401610326906020808252600490820152630454332360e41b604082015260600190565b60405180910390fd5b600061033a33610c5f565b90506000805b848210801561034f5750825181105b15610424576000838281518110610368576103686123b6565b602002602001015161039333868581518110610386576103866123b6565b60200260200101516106aa565b61039d91906122eb565b90506103a9838761232c565b8111156103bd576103ba838761232c565b90505b6103c781846122d3565b9250610411338584815181106103df576103df6123b6565b6020026020010151836103f2919061230d565b868581518110610404576104046123b6565b6020026020010151610fcf565b8161041b8161236f565b92505050610340565b8482146104915760405162461bcd60e51b815260206004820152603560248201527f556e45787065637465642070726f626c656d2063616c63756c6174696e672074604482015274686520616d6f756e7420746f20776974686472617760581b6064820152608401610326565b604051339083156108fc029084906000818181858888f193505050501580156104be573d6000803e3d6000fd5b505050505050565b6104d484848484600061121e565b50505050565b60016104e4611299565b15156001146105055760405162461bcd60e51b8152600401610326906121e1565b6002546001600160a01b0316331461052f5760405162461bcd60e51b8152600401610326906121c3565b6105376112d3565b50565b60008060008060006060806060600260000160009054906101000a90046001600160a01b03166002600101546002800154600260030154600260040154600260050160026006016002600701828054806020026020016040519081016040528092919081815260200182805480156105db57602002820191906000526020600020905b81546001600160a01b031681526001909101906020018083116105bd575b505050505092508180548060200260200160405190810160405280929190818152602001828054801561062d57602002820191906000526020600020905b815481526020019060010190808311610619575b505050505091508080548060200260200160405190810160405280929190818152602001828054801561068957602002820191906000526020600020905b81546001600160a01b0316815260019091019060200180831161066b575b50505050509050975097509750975097509750975097509091929394959697565b6001600160a01b03919091166000908152601860209081526040808320938352929052205490565b60016106dc611299565b15156001146106fd5760405162461bcd60e51b8152600401610326906121e1565b61076433600260050180548060200260200160405190810160405280929190818152602001828054801561075a57602002820191906000526020600020905b81546001600160a01b0316815260019091019060200180831161073c575b5050505050611320565b151560011461079e5760405162461bcd60e51b8152600401610326906020808252600490820152634543323360e01b604082015260600190565b60405163f7cf62d760e01b815273__AddressLibrary________________________9063f7cf62d7906107d8903390600990600401612074565b60206040518083038186803b1580156107f057600080fd5b505af4158015610804573d6000803e3d6000fd5b505050506040513d601f19601f820116820180604052508101906108289190611e1f565b1561085b5760405162461bcd60e51b815260206004820152600360248201526245433560e81b6044820152606401610326565b60035442101561094957600980546001810182556000919091527f6e1540171b6c0c960b71a7020d9f60077f6af931a8bbf590da0223dacf75c7af0180546001600160a01b0319163317905581156108fa5760086108c0336108bb611336565b6113cb565b815481106108d0576108d06123b6565b9060005260206000200154600260030160008282546108ef91906122d3565b9091555061093d9050565b6008610908336108bb611336565b81548110610918576109186123b6565b90600052602060002001546002600401600082825461093791906122d3565b90915550505b610945611461565b5050565b600e5460ff16156109615761095c611518565b610969565b610969611534565b6109456112d3565b60408051600480825260a0820190925260609160009190816020015b606081526020019060019003908161098d575050600f5460405163a76d54ff60e01b8152600481019190915290915073__UintLibrary___________________________9063a76d54ff9060240160006040518083038186803b1580156109f357600080fd5b505af4158015610a07573d6000803e3d6000fd5b505050506040513d6000823e601f3d908101601f19168201604052610a2f9190810190611e5d565b81600081518110610a4257610a426123b6565b602090810291909101015260115460405163a76d54ff60e01b8152600481019190915273__UintLibrary___________________________9063a76d54ff9060240160006040518083038186803b158015610a9c57600080fd5b505af4158015610ab0573d6000803e3d6000fd5b505050506040513d6000823e601f3d908101601f19168201604052610ad89190810190611e5d565b81600181518110610aeb57610aeb6123b6565b602090810291909101015260105460405163a76d54ff60e01b8152600481019190915273__UintLibrary___________________________9063a76d54ff9060240160006040518083038186803b158015610b4557600080fd5b505af4158015610b59573d6000803e3d6000fd5b505050506040513d6000823e601f3d908101601f19168201604052610b819190810190611e5d565b81600281518110610b9457610b946123b6565b602090810291909101015260125460405163a76d54ff60e01b8152600481019190915273__UintLibrary___________________________9063a76d54ff9060240160006040518083038186803b158015610bee57600080fd5b505af4158015610c02573d6000803e3d6000fd5b505050506040513d6000823e601f3d908101601f19168201604052610c2a9190810190611e5d565b81600381518110610c3d57610c3d6123b6565b6020908102919091010152919050565b610c5a838383600061154d565b505050565b6001600160a01b038116600090815260186020908152604091829020600101805483518184028101840190945280845260609392830182828015610cc257602002820191906000526020600020905b815481526020019060010190808311610cae575b50505050509050919050565b6000610cd982610f54565b92915050565b600e54604051630d1d719d60e41b815273__Library_______________________________9163d1d719d091610d269161010090046001600160a01b031690600401612004565b60206040518083038186803b158015610d3e57600080fd5b505af4158015610d52573d6000803e3d6000fd5b505050506040513d601f19601f82011682018060405250810190610d769190611e1f565b1515600114610d975760405162461bcd60e51b81526004016103269061221d565b601380546001600160a01b039384166001600160a01b03199182161790915560018054929093169116179055565b601354604051630d1d719d60e41b815273__Library_______________________________9163d1d719d091610e07916001600160a01b031690600401612004565b60206040518083038186803b158015610e1f57600080fd5b505af4158015610e33573d6000803e3d6000fd5b505050506040513d601f19601f82011682018060405250810190610e579190611e1f565b1515600114610e785760405162461bcd60e51b81526004016103269061221d565b6109458260175483611600565b80600019816002811115610e9b57610e9b6123a0565b610ea85750601454610eea565b816002811115610eba57610eba6123a0565b60011415610ecb5750601654610eea565b816002811115610edd57610edd6123a0565b60021415610eea57506015545b80341015610f205760405162461bcd60e51b815260206004820152600360248201526222a19960e91b6044820152606401610326565b346000846002811115610f3557610f356123a0565b1415610f4b57601754610f48908261232c565b90505b6104d481611694565b600080610f6083610c5f565b90506000805b8251811015610fc757828181518110610f8157610f816123b6565b6020026020010151610f9f86858481518110610386576103866123b6565b610fa991906122eb565b610fb390836122d3565b915080610fbf8161236f565b915050610f66565b509392505050565b6001600160a01b038316600090815260186020908152604080832084845290915290205482111561104d5760405162461bcd60e51b815260206004820152602260248201527f4e6f7420656e6f7567682062616c616e636520666f722074686973206661637460448201526137b960f11b6064820152608401610326565b6001600160a01b03831660009081526018602090815260408083208484529091528120805484929061108090849061232c565b90915550506001600160a01b0383166000908152601860209081526040808320848452909152902054610c5a576001600160a01b0383166000908152601860205260409081902090516362fe358160e11b815273__UintLibrary___________________________916302fbee9e91839163c5fc6b029161110b91879160019091019060040161223a565b60206040518083038186803b15801561112357600080fd5b505af4158015611137573d6000803e3d6000fd5b505050506040513d601f19601f8201168201806040525081019061115b9190611f09565b6001600160a01b0386166000908152601860205260409081902090516001600160e01b031960e085901b16815261119992916001019060040161223a565b60006040518083038186803b1580156111b157600080fd5b505af41580156111c5573d6000803e3d6000fd5b505050506040513d6000823e601f3d908101601f191682016040526111ed9190810190611dc6565b6001600160a01b038416600090815260186020908152604090912082516104d4936001909201929190910190611b23565b8482808210156112405760405162461bcd60e51b8152600401610326906121ff565b821561125f576014879055601686905560158590556017849055611290565b61127b600a544261127091906122d3565b600b5460ff1661181c565b600f8790556010859055601186905560128490555b50505050505050565b6003546000904210156112ac5750600190565b6002546001600160a01b0316156112cd576112c5611534565b6112cd6112d3565b50600090565b600280546001600160a01b031916815560006003819055600481905560058190556006819055611304600782611b6e565b611312600683016000611b6e565b610945600783016000611b6e565b6000815161132e84846113cb565b109392505050565b60606000600160009054906101000a90046001600160a01b03166001600160a01b03166388d44ee06040518163ffffffff1660e01b815260040160006040518083038186803b15801561138857600080fd5b505afa15801561139c573d6000803e3d6000fd5b505050506040513d6000823e601f3d908101601f191682016040526113c49190810190611cfb565b5092915050565b60405160016219125f60e01b0319815260009073__AddressLibrary________________________9063ffe6eda19061140a9086908690600401612018565b60206040518083038186803b15801561142257600080fd5b505af4158015611436573d6000803e3d6000fd5b505050506040513d601f19601f8201168201806040525081019061145a9190611f09565b9392505050565b60045460055411156114f157600e5460ff16156114b357600c54600a55600d54600b805461010080840460ff90811690910261ffff199092169316929092179190911790556114ae611518565b6114e7565b6114e7600f546014556011546016556010546015556012546017556114ef6000600f81905560108190556011819055601255565b6114ef6112d3565b565b60045460065411156114ef57600e5460ff1615611510576114ae611518565b6114e7611534565b6000600c55600d805461ffff19169055600e805460ff19169055565b6114ef6000600f81905560108190556011819055601255565b82828160ff16606410156115735760405162461bcd60e51b8152600401610326906121ff565b8060ff16606410156115975760405162461bcd60e51b8152600401610326906121ff565b82156115c257600a869055600b805460ff8681166101000261ffff19909216908816171790556104be565b600c869055600d805460ff8681166101000261ffff1990921690881617179055600e805460ff19166001179055600a546104be9061127090426122d3565b6001600160a01b0383166000908152601860209081526040808320848452909152902054611657576001600160a01b0383166000908152601860209081526040822060019081018054918201815583529120018190555b6001600160a01b03831660009081526018602090815260408083208484529091528120805484929061168a9084906122d3565b9091555050505050565b600080600160009054906101000a90046001600160a01b03166001600160a01b03166388d44ee06040518163ffffffff1660e01b815260040160006040518083038186803b1580156116e557600080fd5b505afa1580156116f9573d6000803e3d6000fd5b505050506040513d6000823e601f3d908101601f191682016040526117219190810190611cfb565b915091506000600160009054906101000a90046001600160a01b03166001600160a01b03166318160ddd6040518163ffffffff1660e01b815260040160206040518083038186803b15801561177557600080fd5b505afa158015611789573d6000803e3d6000fd5b505050506040513d601f19601f820116820180604052508101906117ad9190611f09565b905060005b8351811015611815576118038482815181106117d0576117d06123b6565b6020026020010151868584815181106117eb576117eb6123b6565b60200260200101516117fd919061230d565b84611600565b8061180d8161236f565b9150506117b2565b5050505050565b6000611826611299565b1561185c5760405162461bcd60e51b8152600401610326906020808252600490820152631150cc8d60e21b604082015260600190565b61186533611965565b15156001146118865760405162461bcd60e51b8152600401610326906121c3565b61188e611336565b80516118a291600791602090910190611b8c565b5060075461190d5760405162461bcd60e51b815260206004820152603260248201527f496d706f737369626c6520746f206164642070726f706f736974696f6e2c20746044820152716865726520617265206e6f2061646d696e7360701b6064820152608401610326565b600280546001600160a01b031916331790556003839055606460ff8316611932611a13565b61193c919061230d565b61194691906122eb565b600455611951611a95565b80516104d491600891602090910190611b23565b600080546001600160a01b031633141561198157506001919050565b600061198b611336565b90506000611997611a95565b905060006119a585846113cb565b90508251811015611a035760646119ba611a13565b600b546119cf9190610100900460ff1661230d565b6119d991906122eb565b8282815181106119eb576119eb6123b6565b602002602001015110611a0357506001949350505050565b506000949350505050565b919050565b600154604080516318160ddd60e01b815290516000926001600160a01b0316916318160ddd916004808301926020929190829003018186803b158015611a5857600080fd5b505afa158015611a6c573d6000803e3d6000fd5b505050506040513d601f19601f82011682018060405250810190611a909190611f09565b905090565b60606000600160009054906101000a90046001600160a01b03166001600160a01b03166388d44ee06040518163ffffffff1660e01b815260040160006040518083038186803b158015611ae757600080fd5b505afa158015611afb573d6000803e3d6000fd5b505050506040513d6000823e601f3d908101601f1916820160405261145a9190810190611cfb565b828054828255906000526020600020908101928215611b5e579160200282015b82811115611b5e578251825591602001919060010190611b43565b50611b6a929150611be1565b5090565b50805460008255906000526020600020908101906105379190611be1565b828054828255906000526020600020908101928215611b5e579160200282015b82811115611b5e57825182546001600160a01b0319166001600160a01b03909116178255602090920191600190910190611bac565b5b80821115611b6a5760008155600101611be2565b600082601f830112611c0757600080fd5b81516020611c1c611c17836122b0565b612280565b80838252828201915082860187848660051b8901011115611c3c57600080fd5b60005b85811015611c5b57815184529284019290840190600101611c3f565b5090979650505050505050565b803560ff81168114611a0e57600080fd5b600060208284031215611c8b57600080fd5b813561145a816123e2565b60008060408385031215611ca957600080fd5b8235611cb4816123e2565b91506020830135611cc4816123e2565b809150509250929050565b60008060408385031215611ce257600080fd5b8235611ced816123e2565b946020939093013593505050565b60008060408385031215611d0e57600080fd5b82516001600160401b0380821115611d2557600080fd5b818501915085601f830112611d3957600080fd5b81516020611d49611c17836122b0565b8083825282820191508286018a848660051b8901011115611d6957600080fd5b600096505b84871015611d95578051611d81816123e2565b835260019690960195918301918301611d6e565b5091880151919650909350505080821115611daf57600080fd5b50611dbc85828601611bf6565b9150509250929050565b600060208284031215611dd857600080fd5b81516001600160401b03811115611dee57600080fd5b611dfa84828501611bf6565b949350505050565b600060208284031215611e1457600080fd5b813561145a816123f7565b600060208284031215611e3157600080fd5b815161145a816123f7565b600060208284031215611e4e57600080fd5b81356003811061145a57600080fd5b600060208284031215611e6f57600080fd5b81516001600160401b0380821115611e8657600080fd5b818401915084601f830112611e9a57600080fd5b815181811115611eac57611eac6123cc565b611ebf601f8201601f1916602001612280565b9150808252856020828501011115611ed657600080fd5b611ee7816020840160208601612343565b50949350505050565b600060208284031215611f0257600080fd5b5035919050565b600060208284031215611f1b57600080fd5b5051919050565b60008060008060808587031215611f3857600080fd5b5050823594602084013594506040840135936060013592509050565b600080600060608486031215611f6957600080fd5b83359250611f7960208501611c68565b9150611f8760408501611c68565b90509250925092565b600081518084526020808501945080840160005b83811015611fc95781516001600160a01b031687529582019590820190600101611fa4565b509495945050505050565b600081518084526020808501945080840160005b83811015611fc957815187529582019590820190600101611fe8565b6001600160a01b0391909116815260200190565b6001600160a01b038381168252604060208084018290528451918401829052600092858201929091906060860190855b81811015612066578551851683529483019491830191600101612048565b509098975050505050505050565b60006040820160018060a01b03808616845260206040818601528286548085526060870191508760005282600020945060005b818110156120665785548516835260019586019592840192016120a7565b600061010060018060a01b038b1683528960208401528860408401528760608401528660808401528060a08401526120ff81840187611f90565b905082810360c08401526121138186611fd4565b905082810360e08401526121278185611f90565b9b9a5050505050505050505050565b6000602080830181845280855180835260408601915060408160051b870101925083870160005b828110156121a357878503603f1901845281518051808752612184818989018a8501612343565b601f01601f19169590950186019450928501929085019060010161215d565b5092979650505050505050565b60208152600061145a6020830184611fd4565b60208082526004908201526322a1991960e11b604082015260600190565b6020808252600490820152634543323560e01b604082015260600190565b6020808252600490820152634543323160e01b604082015260600190565b60208082526003908201526208a86760eb1b604082015260600190565b60006040820184835260206040818501528185548084526060860191508660005282600020935060005b81811015611c5b57845483526001948501949284019201612264565b604051601f8201601f191681016001600160401b03811182821017156122a8576122a86123cc565b604052919050565b60006001600160401b038211156122c9576122c96123cc565b5060051b60200190565b600082198211156122e6576122e661238a565b500190565b60008261230857634e487b7160e01b600052601260045260246000fd5b500490565b60008160001904831182151516156123275761232761238a565b500290565b60008282101561233e5761233e61238a565b500390565b60005b8381101561235e578181015183820152602001612346565b838111156104d45750506000910152565b60006000198214156123835761238361238a565b5060010190565b634e487b7160e01b600052601160045260246000fd5b634e487b7160e01b600052602160045260246000fd5b634e487b7160e01b600052603260045260246000fd5b634e487b7160e01b600052604160045260246000fd5b6001600160a01b038116811461053757600080fd5b801515811461053757600080fdfea264697066735822122065c0308c9238d848fed453f6776791c33b5201642614b25444fdafa23615fafd64736f6c63430008060033",
  "immutableReferences": {},
  "source": "// SPDX-License-Identifier: GPL-3.0\r\n\r\npragma solidity >=0.7.0 <0.9.0;\r\n\r\n/**\r\n * @title Storage\r\n * @dev Store & retrieve value in a variable\r\n */\r\n\r\nimport \"../Interfaces/ITreasury.sol\";\r\nimport \"./PublicCertificatesPool.sol\";\r\nimport \"../Libraries/UintLibrary.sol\";\r\nimport \"../Libraries/Library.sol\";\r\nimport \"./CertisToken.sol\";\r\nimport \"../Base/TokenGovernanceBaseContract.sol\";\r\nimport \"../Base/ManagedBaseContract.sol\";\r\n\r\n\r\ncontract Treasury is ITreasury, TokenGovernanceBaseContract, ManagedBaseContract{\r\n    using Library for *;\r\n    using UintLibrary for *;\r\n\r\n    // DATA\r\n    // proposition to change prices\r\n    struct ProposedPricesStruct{\r\n        uint NewPublicPriceWei;\r\n        uint NewCertificatePriceWei;\r\n        uint NewPrivatePriceWei;\r\n        uint NewOwnerRefundPriceWei;\r\n    }\r\n\r\n    ProposedPricesStruct _ProposedPrices;\r\n\r\n    // parameters\r\n    PublicCertificatesPool  _PublicCertificatesPool;\r\n    uint _PublicPriceWei;\r\n    uint _CertificatePriceWei;\r\n    uint _PrivatePriceWei;\r\n    uint _OwnerRefundPriceWei;\r\n\r\n    // dividends per token owner\r\n    struct _BalanceStruct{\r\n        mapping(uint => uint) _balance;\r\n        uint[] _factors;\r\n    }\r\n    \r\n    mapping(address => _BalanceStruct) _balances;\r\n\r\n    // MODIFIERS\r\n    modifier areFundsEnough(Library.Prices price){\r\n        uint256 minPrice = 2**256 - 1;\r\n\r\n        if(Library.Prices.NewProvider == price) minPrice = _PublicPriceWei;\r\n        else if(Library.Prices.NewPool == price) minPrice = _PrivatePriceWei;\r\n        else if(Library.Prices.NewCertificate == price) minPrice = _CertificatePriceWei;\r\n\r\n        require(msg.value >= minPrice, \"EC2\");\r\n        _;\r\n    }\r\n\r\n    modifier isBalanceEnough(uint amount){\r\n        require(checkBalance(msg.sender) >= amount, \"EC20\");\r\n        _;\r\n    }\r\n\r\n    modifier isFromPublicPool(){\r\n        require(true == Library.ItIsSomeone(address(_PublicCertificatesPool)), \"EC8\");\r\n        _;\r\n    }\r\n\r\n    modifier isPriceOK(uint256 PublicPriceWei, uint256 OwnerRefundPriceWei){\r\n        require(PublicPriceWei >= OwnerRefundPriceWei, \"EC21\");\r\n        _;\r\n    }\r\n\r\n    \r\n    // CONSTRUCTOR\r\n    constructor(uint256 PublicPriceWei, uint256 PrivatePriceWei, uint256 CertificatePriceWei, uint256 OwnerRefundPriceWei, address managerContractAddress, uint256 PropositionLifeTime, uint8 PropositionThresholdPercentage, uint8 minWeightToProposePercentage) \r\n    TokenGovernanceBaseContract(PropositionLifeTime, PropositionThresholdPercentage, minWeightToProposePercentage)\r\n    ManagedBaseContract(managerContractAddress)\r\n    {\r\n        InternalupdatePrices(PublicPriceWei, PrivatePriceWei, CertificatePriceWei, OwnerRefundPriceWei, true);\r\n    }\r\n\r\n\r\n    // GOVERNANCE \r\n    function updatePrices(uint256 PublicPriceWei, uint256 PrivatePriceWei, uint256 CertificatePriceWei, uint256 OwnerRefundPriceWei) external override\r\n    {\r\n        InternalupdatePrices(PublicPriceWei, PrivatePriceWei, CertificatePriceWei, OwnerRefundPriceWei, false);\r\n    }\r\n\r\n    function InternalupdatePrices(uint256 PublicPriceWei, uint256 PrivatePriceWei, uint256 CertificatePriceWei, uint256 OwnerRefundPriceWei, bool fromConstructor) internal\r\n        isPriceOK(PublicPriceWei, OwnerRefundPriceWei)\r\n    {\r\n        if(fromConstructor){\r\n            _PublicPriceWei = PublicPriceWei;\r\n            _PrivatePriceWei = PrivatePriceWei;\r\n            _CertificatePriceWei = CertificatePriceWei;\r\n            _OwnerRefundPriceWei = OwnerRefundPriceWei;\r\n        }\r\n        else{\r\n            addProposition(block.timestamp + _PropositionLifeTime, _PropositionThresholdPercentage);\r\n            _ProposedPrices.NewPublicPriceWei = PublicPriceWei;\r\n            _ProposedPrices.NewCertificatePriceWei = CertificatePriceWei;\r\n            _ProposedPrices.NewPrivatePriceWei = PrivatePriceWei;\r\n            _ProposedPrices.NewOwnerRefundPriceWei = OwnerRefundPriceWei;\r\n        }\r\n        \r\n    }\r\n\r\n    function propositionApproved() internal override\r\n    {\r\n        _PublicPriceWei = _ProposedPrices.NewPublicPriceWei;\r\n        _PrivatePriceWei = _ProposedPrices.NewPrivatePriceWei;\r\n        _CertificatePriceWei = _ProposedPrices.NewCertificatePriceWei;\r\n        _OwnerRefundPriceWei = _ProposedPrices.NewOwnerRefundPriceWei;\r\n        \r\n        removeProposition();\r\n    }\r\n\r\n    function propositionRejected() internal override\r\n    {\r\n        removeProposition();\r\n    }\r\n\r\n    function propositionExpired() internal override\r\n    {\r\n        removeProposition();\r\n    }\r\n\r\n    function removeProposition() internal\r\n    {\r\n         delete(_ProposedPrices);\r\n    }\r\n\r\n    function retrieveProposition() external override view returns(string[] memory)\r\n    {\r\n        string[] memory proposition = new string[](4);\r\n        proposition[0] = UintLibrary.UintToString(_ProposedPrices.NewPublicPriceWei);\r\n        proposition[1] = UintLibrary.UintToString(_ProposedPrices.NewPrivatePriceWei);\r\n        proposition[2] = UintLibrary.UintToString(_ProposedPrices.NewCertificatePriceWei);\r\n        proposition[3] = UintLibrary.UintToString(_ProposedPrices.NewOwnerRefundPriceWei);\r\n        return proposition;\r\n    }\r\n\r\n    // FUNCTIONALITY\r\n    function updateContracts(address PublicPoolAddress, address CertisTokenAddress) external \r\n        isFromManagerContract()\r\n    override\r\n    {\r\n        _PublicCertificatesPool = PublicCertificatesPool(PublicPoolAddress);\r\n        _CertisToken = CertisToken(CertisTokenAddress); \r\n    }\r\n\r\n    function pay(Library.Prices price) external \r\n        areFundsEnough(price)\r\n    override payable\r\n    {\r\n        uint256 amount = msg.value;\r\n        if(price == Library.Prices.NewProvider) amount -= _OwnerRefundPriceWei;\r\n        AssignDividends(amount);\r\n    }\r\n\r\n    function AssignDividends(uint256 amount) internal\r\n    {\r\n        (address[] memory DividendsRecipients, uint256[] memory DividendsRecipientsTokens) = _CertisToken.TokenOwners();\r\n        uint256 TotalTokenSupply = _CertisToken.totalSupply();\r\n\r\n        for(uint i=0; i < DividendsRecipients.length; i++){\r\n            addBalance(DividendsRecipients[i], DividendsRecipientsTokens[i] * amount, TotalTokenSupply);\r\n        }\r\n\r\n    }\r\n\r\n    function getRefund(address addr, uint numberOfOwners) external \r\n        isFromPublicPool()\r\n    override\r\n    {\r\n        addBalance(addr, _OwnerRefundPriceWei, numberOfOwners);\r\n    }\r\n\r\n    function withdraw(uint amount) external \r\n        isBalanceEnough(amount)\r\n    override\r\n    {\r\n        uint[] memory f = returnFactors(msg.sender);\r\n        uint total = 0;\r\n        uint i = 0;\r\n\r\n        while ((total < amount) && (i < f.length)){\r\n            uint amountForFactor = returnBalanceForFactor(msg.sender, f[i]) / f[i];\r\n            if(amountForFactor > (amount - total)) amountForFactor = amount - total;\r\n            total += amountForFactor;\r\n            substractBalance(msg.sender, amountForFactor * f[i], f[i]);\r\n            i++;\r\n        }\r\n\r\n        require(total == amount, \"UnExpected problem calculating the amount to withdraw\");\r\n\r\n        payable(msg.sender).transfer(total);\r\n    }\r\n\r\n    function retrieveBalance(address addr) external override view returns(uint)\r\n    {\r\n        return checkBalance(addr);\r\n    }\r\n\r\n    function retrievePrices() external override view returns(uint, uint, uint, uint)\r\n    {\r\n        return(_PublicPriceWei, _PrivatePriceWei, _CertificatePriceWei, _OwnerRefundPriceWei);\r\n    }\r\n\r\n    function checkBalance(address addr) internal view returns(uint){\r\n        uint[] memory f = returnFactors(addr);\r\n        uint total = 0;\r\n\r\n        for(uint i=0; i < f.length; i++){\r\n            total += returnBalanceForFactor(addr, f[i]) / f[i];\r\n        }\r\n\r\n        return total;\r\n    }\r\n\r\n    function returnFactors(address addr) public view returns(uint[] memory){\r\n        return _balances[addr]._factors;\r\n    }\r\n\r\n    function returnBalanceForFactor(address addr, uint factor) public view returns(uint){\r\n        return _balances[addr]._balance[factor];\r\n    }\r\n\r\n    function addBalance(address addr, uint amount, uint factor) private\r\n    {\r\n        if(0 == _balances[addr]._balance[factor]){\r\n             _balances[addr]._factors.push(factor);\r\n        }\r\n\r\n       _balances[addr]._balance[factor] += amount;\r\n    }\r\n\r\n    function substractBalance(address addr, uint amount, uint factor) private\r\n    {\r\n        require(_balances[addr]._balance[factor] >= amount, \"Not enough balance for this factor\");\r\n\r\n        _balances[addr]._balance[factor] -= amount;\r\n\r\n        if(0 == _balances[addr]._balance[factor]){\r\n            _balances[addr]._factors = UintLibrary.UintArrayRemoveResize(UintLibrary.FindUintPosition(factor, _balances[addr]._factors), _balances[addr]._factors);\r\n        }\r\n        \r\n    }\r\n\r\n}",
  "sourcePath": "C:\\Users\\d-aam\\GitHub\\Certificates\\contracts\\DeployedContracts\\Treasury.sol",
  "compiler": {
    "name": "solc",
    "version": "0.8.6+commit.11564f7e.Emscripten.clang"
  },
  "schemaVersion": "3.3.4",
  "updatedAt": "2021-07-30T09:42:46.784Z",
  "devdoc": {
    "kind": "dev",
    "methods": {},
    "version": 1
  },
  "userdoc": {
    "kind": "user",
    "methods": {},
    "version": 1
  }
}