{
  "contractName": "Treasury",
  "abi": [
    {
      "inputs": [],
      "name": "cancelProposition",
      "outputs": [],
      "stateMutability": "nonpayable",
      "type": "function"
    },
    {
      "inputs": [],
      "name": "retrievePropConfig",
      "outputs": [
        {
          "internalType": "uint256",
          "name": "",
          "type": "uint256"
        },
        {
          "internalType": "uint8",
          "name": "",
          "type": "uint8"
        },
        {
          "internalType": "uint8",
          "name": "",
          "type": "uint8"
        }
      ],
      "stateMutability": "view",
      "type": "function"
    },
    {
      "inputs": [],
      "name": "retrievePropositionStatus",
      "outputs": [
        {
          "internalType": "address",
          "name": "",
          "type": "address"
        },
        {
          "internalType": "uint256",
          "name": "",
          "type": "uint256"
        },
        {
          "internalType": "uint256",
          "name": "",
          "type": "uint256"
        },
        {
          "internalType": "uint256",
          "name": "",
          "type": "uint256"
        },
        {
          "internalType": "uint256",
          "name": "",
          "type": "uint256"
        },
        {
          "internalType": "address[]",
          "name": "",
          "type": "address[]"
        },
        {
          "internalType": "uint256[]",
          "name": "",
          "type": "uint256[]"
        },
        {
          "internalType": "address[]",
          "name": "",
          "type": "address[]"
        }
      ],
      "stateMutability": "view",
      "type": "function"
    },
    {
      "inputs": [
        {
          "internalType": "uint256",
          "name": "PropLifeTime",
          "type": "uint256"
        },
        {
          "internalType": "uint8",
          "name": "PropThresholdPerc",
          "type": "uint8"
        },
        {
          "internalType": "uint8",
          "name": "minWeightToPropPerc",
          "type": "uint8"
        }
      ],
      "name": "updateProp",
      "outputs": [],
      "stateMutability": "nonpayable",
      "type": "function"
    },
    {
      "inputs": [
        {
          "internalType": "bool",
          "name": "vote",
          "type": "bool"
        }
      ],
      "name": "voteProposition",
      "outputs": [],
      "stateMutability": "nonpayable",
      "type": "function"
    },
    {
      "inputs": [
        {
          "internalType": "uint256",
          "name": "PublicPriceWei",
          "type": "uint256"
        },
        {
          "internalType": "uint256",
          "name": "PrivatePriceWei",
          "type": "uint256"
        },
        {
          "internalType": "uint256",
          "name": "CertificatePriceWei",
          "type": "uint256"
        },
        {
          "internalType": "uint256",
          "name": "OwnerRefundPriceWei",
          "type": "uint256"
        },
        {
          "internalType": "address",
          "name": "managerContractAddress",
          "type": "address"
        },
        {
          "internalType": "uint256",
          "name": "PropositionLifeTime",
          "type": "uint256"
        },
        {
          "internalType": "uint8",
          "name": "PropositionThresholdPercentage",
          "type": "uint8"
        },
        {
          "internalType": "uint8",
          "name": "minWeightToProposePercentage",
          "type": "uint8"
        }
      ],
      "name": "Treasury_init",
      "outputs": [],
      "stateMutability": "nonpayable",
      "type": "function"
    },
    {
      "inputs": [
        {
          "internalType": "uint256",
          "name": "PublicPriceWei",
          "type": "uint256"
        },
        {
          "internalType": "uint256",
          "name": "PrivatePriceWei",
          "type": "uint256"
        },
        {
          "internalType": "uint256",
          "name": "CertificatePriceWei",
          "type": "uint256"
        },
        {
          "internalType": "uint256",
          "name": "OwnerRefundPriceWei",
          "type": "uint256"
        }
      ],
      "name": "updatePrices",
      "outputs": [],
      "stateMutability": "nonpayable",
      "type": "function"
    },
    {
      "inputs": [],
      "name": "retrieveProposition",
      "outputs": [
        {
          "internalType": "string[]",
          "name": "",
          "type": "string[]"
        }
      ],
      "stateMutability": "view",
      "type": "function"
    },
    {
      "inputs": [
        {
          "internalType": "enum Library.Prices",
          "name": "price",
          "type": "uint8"
        }
      ],
      "name": "pay",
      "outputs": [],
      "stateMutability": "payable",
      "type": "function"
    },
    {
      "inputs": [
        {
          "internalType": "address",
          "name": "addr",
          "type": "address"
        },
        {
          "internalType": "uint256",
          "name": "numberOfOwners",
          "type": "uint256"
        }
      ],
      "name": "getRefund",
      "outputs": [],
      "stateMutability": "nonpayable",
      "type": "function"
    },
    {
      "inputs": [
        {
          "internalType": "uint256",
          "name": "amount",
          "type": "uint256"
        }
      ],
      "name": "withdraw",
      "outputs": [],
      "stateMutability": "nonpayable",
      "type": "function"
    },
    {
      "inputs": [
        {
          "internalType": "address",
          "name": "addr",
          "type": "address"
        }
      ],
      "name": "retrieveBalance",
      "outputs": [
        {
          "internalType": "uint256",
          "name": "",
          "type": "uint256"
        }
      ],
      "stateMutability": "view",
      "type": "function"
    },
    {
      "inputs": [],
      "name": "retrievePrices",
      "outputs": [
        {
          "internalType": "uint256",
          "name": "",
          "type": "uint256"
        },
        {
          "internalType": "uint256",
          "name": "",
          "type": "uint256"
        },
        {
          "internalType": "uint256",
          "name": "",
          "type": "uint256"
        },
        {
          "internalType": "uint256",
          "name": "",
          "type": "uint256"
        }
      ],
      "stateMutability": "view",
      "type": "function"
    },
    {
      "inputs": [
        {
          "internalType": "address",
          "name": "addr",
          "type": "address"
        }
      ],
      "name": "returnFactors",
      "outputs": [
        {
          "internalType": "uint256[]",
          "name": "",
          "type": "uint256[]"
        }
      ],
      "stateMutability": "view",
      "type": "function"
    },
    {
      "inputs": [
        {
          "internalType": "address",
          "name": "addr",
          "type": "address"
        },
        {
          "internalType": "uint256",
          "name": "factor",
          "type": "uint256"
        }
      ],
      "name": "returnBalanceForFactor",
      "outputs": [
        {
          "internalType": "uint256",
          "name": "",
          "type": "uint256"
        }
      ],
      "stateMutability": "view",
      "type": "function"
    }
  ],
  "bytecode": "0x608060405234801561001057600080fd5b50612786806100206000396000f3fe6080604052600436106100b85760003560e01c806325b4f3ca146100bd5780632e1a7d4d146100fb57806351f69d061461011d57806355457ee91461013d578063840f6d1714610152578063906816d71461017b5780639094929f146101a957806391f91671146101c9578063a93316f5146101e9578063ac2bb4421461020b578063c56cb5801461022b578063d660ab3414610258578063e20f37ad14610291578063eb1e2a41146102b1578063f0c9325e146102d1575b600080fd5b3480156100c957600080fd5b506013546015546014546016546040805194855260208501939093529183015260608201526080015b60405180910390f35b34801561010757600080fd5b5061011b6101163660046121a8565b6102e4565b005b34801561012957600080fd5b5061011b6101383660046121da565b6104c6565b34801561014957600080fd5b5061011b6104da565b34801561015e57600080fd5b5061016761053a565b6040516100f29897969594939291906123df565b34801561018757600080fd5b5061019b610196366004611f87565b6106aa565b6040519081526020016100f2565b3480156101b557600080fd5b5061011b6101c436600461220c565b6106d2565b3480156101d557600080fd5b5061011b6101e43660046120ba565b610761565b3480156101f557600080fd5b506101fe610a00565b6040516100f29190612450565b34801561021757600080fd5b5061011b610226366004612282565b610cdc565b34801561023757600080fd5b5061024b610246366004611f4d565b610cee565b6040516100f291906124ca565b34801561026457600080fd5b50600a54600b546040805192835260ff8083166020850152610100909204909116908201526060016100f2565b34801561029d57600080fd5b5061019b6102ac366004611f4d565b610d5d565b3480156102bd57600080fd5b5061011b6102cc366004611f87565b610d6e565b61011b6102df3660046120f4565b610ec9565b80806102ef33610f98565b101561032f5760405162461bcd60e51b8152600401610326906020808252600490820152630454332360e41b604082015260600190565b60405180910390fd5b600061033a33610cee565b90506000805b848210801561034f5750825181105b1561042457600083828151811061036857610368612701565b60200260200101516103933386858151811061038657610386612701565b60200260200101516106aa565b61039d9190612636565b90506103a98387612677565b8111156103bd576103ba8387612677565b90505b6103c7818461261e565b9250610411338584815181106103df576103df612701565b6020026020010151836103f29190612658565b86858151811061040457610404612701565b6020026020010151611013565b8161041b816126ba565b92505050610340565b8482146104915760405162461bcd60e51b815260206004820152603560248201527f556e45787065637465642070726f626c656d2063616c63756c6174696e672074604482015274686520616d6f756e7420746f20776974686472617760581b6064820152608401610326565b604051339083156108fc029084906000818181858888f193505050501580156104be573d6000803e3d6000fd5b505050505050565b6104d4848484846000611262565b50505050565b60016104e46112dd565b15156001146105055760405162461bcd60e51b815260040161032690612549565b6002546001600160a01b0316331461052f5760405162461bcd60e51b8152600401610326906124dd565b610537611317565b50565b60008060008060006060806060600260000160009054906101000a90046001600160a01b03166002600101546002800154600260030154600260040154600260050160026006016002600701828054806020026020016040519081016040528092919081815260200182805480156105db57602002820191906000526020600020905b81546001600160a01b031681526001909101906020018083116105bd575b505050505092508180548060200260200160405190810160405280929190818152602001828054801561062d57602002820191906000526020600020905b815481526020019060010190808311610619575b505050505091508080548060200260200160405190810160405280929190818152602001828054801561068957602002820191906000526020600020905b81546001600160a01b0316815260019091019060200180831161066b575b50505050509050975097509750975097509750975097509091929394959697565b6001600160a01b03919091166000908152601760209081526040808320938352929052205490565b600054610100900460ff16806106eb575060005460ff16155b6107075760405162461bcd60e51b8152600401610326906124fb565b600054610100900460ff16158015610729576000805461ffff19166101011790555b6107368484843389611364565b610744898989896001611262565b8015610756576000805461ff00191690555b505050505050505050565b600161076b6112dd565b151560011461078c5760405162461bcd60e51b815260040161032690612549565b6107f33360026005018054806020026020016040519081016040528092919081815260200182805480156107e957602002820191906000526020600020905b81546001600160a01b031681526001909101906020018083116107cb575b5050505050611407565b151560011461082d5760405162461bcd60e51b8152600401610326906020808252600490820152634543323360e01b604082015260600190565b60405163f7cf62d760e01b815273__AddressLibrary________________________9063f7cf62d79061086790339060099060040161238e565b60206040518083038186803b15801561087f57600080fd5b505af4158015610893573d6000803e3d6000fd5b505050506040513d601f19601f820116820180604052508101906108b791906120d7565b156108ea5760405162461bcd60e51b815260206004820152600360248201526245433560e81b6044820152606401610326565b6003544210156109d857600980546001810182556000919091527f6e1540171b6c0c960b71a7020d9f60077f6af931a8bbf590da0223dacf75c7af0180546001600160a01b03191633179055811561098957600861094f3361094a61141d565b611521565b8154811061095f5761095f612701565b90600052602060002001546002600301600082825461097e919061261e565b909155506109cc9050565b60086109973361094a61141d565b815481106109a7576109a7612701565b9060005260206000200154600260040160008282546109c6919061261e565b90915550505b6109d46115b7565b5050565b600e5460ff16156109f0576109eb61166e565b6109f8565b6109f861168a565b6109d4611317565b60408051600480825260a0820190925260609160009190816020015b6060815260200190600190039081610a1c575050600f5460405163a76d54ff60e01b8152600481019190915290915073__UintLibrary___________________________9063a76d54ff9060240160006040518083038186803b158015610a8257600080fd5b505af4158015610a96573d6000803e3d6000fd5b505050506040513d6000823e601f3d908101601f19168201604052610abe9190810190612115565b81600081518110610ad157610ad1612701565b602090810291909101015260115460405163a76d54ff60e01b8152600481019190915273__UintLibrary___________________________9063a76d54ff9060240160006040518083038186803b158015610b2b57600080fd5b505af4158015610b3f573d6000803e3d6000fd5b505050506040513d6000823e601f3d908101601f19168201604052610b679190810190612115565b81600181518110610b7a57610b7a612701565b602090810291909101015260105460405163a76d54ff60e01b8152600481019190915273__UintLibrary___________________________9063a76d54ff9060240160006040518083038186803b158015610bd457600080fd5b505af4158015610be8573d6000803e3d6000fd5b505050506040513d6000823e601f3d908101601f19168201604052610c109190810190612115565b81600281518110610c2357610c23612701565b602090810291909101015260125460405163a76d54ff60e01b8152600481019190915273__UintLibrary___________________________9063a76d54ff9060240160006040518083038186803b158015610c7d57600080fd5b505af4158015610c91573d6000803e3d6000fd5b505050506040513d6000823e601f3d908101601f19168201604052610cb99190810190612115565b81600381518110610ccc57610ccc612701565b6020908102919091010152919050565b610ce983838360006116a3565b505050565b6001600160a01b038116600090815260176020908152604091829020600101805483518184028101840190945280845260609392830182828015610d5157602002820191906000526020600020905b815481526020019060010190808311610d3d575b50505050509050919050565b6000610d6882610f98565b92915050565b73__Library_______________________________63d1d719d0600060029054906101000a90046001600160a01b03166001600160a01b031663aa33380a6040518163ffffffff1660e01b815260040160206040518083038186803b158015610dd657600080fd5b505afa158015610dea573d6000803e3d6000fd5b505050506040513d601f19601f82011682018060405250810190610e0e9190611f6a565b6040516001600160e01b031960e084901b1681526001600160a01b03909116600482015260240160206040518083038186803b158015610e4d57600080fd5b505af4158015610e61573d6000803e3d6000fd5b505050506040513d601f19601f82011682018060405250810190610e8591906120d7565b1515600114610ebc5760405162461bcd60e51b815260206004820152600360248201526208a86760eb1b6044820152606401610326565b6109d48260165483611756565b80600019816002811115610edf57610edf6126eb565b610eec5750601354610f2e565b816002811115610efe57610efe6126eb565b60011415610f0f5750601554610f2e565b816002811115610f2157610f216126eb565b60021415610f2e57506014545b80341015610f645760405162461bcd60e51b815260206004820152600360248201526222a19960e91b6044820152606401610326565b346000846002811115610f7957610f796126eb565b1415610f8f57601654610f8c9082612677565b90505b6104d4816117ea565b600080610fa483610cee565b90506000805b825181101561100b57828181518110610fc557610fc5612701565b6020026020010151610fe38685848151811061038657610386612701565b610fed9190612636565b610ff7908361261e565b915080611003816126ba565b915050610faa565b509392505050565b6001600160a01b03831660009081526017602090815260408083208484529091529020548211156110915760405162461bcd60e51b815260206004820152602260248201527f4e6f7420656e6f7567682062616c616e636520666f722074686973206661637460448201526137b960f11b6064820152608401610326565b6001600160a01b0383166000908152601760209081526040808320848452909152812080548492906110c4908490612677565b90915550506001600160a01b0383166000908152601760209081526040808320848452909152902054610ce9576001600160a01b0383166000908152601760205260409081902090516362fe358160e11b815273__UintLibrary___________________________916302fbee9e91839163c5fc6b029161114f918791600190910190600401612585565b60206040518083038186803b15801561116757600080fd5b505af415801561117b573d6000803e3d6000fd5b505050506040513d601f19601f8201168201806040525081019061119f91906121c1565b6001600160a01b0386166000908152601760205260409081902090516001600160e01b031960e085901b1681526111dd929160010190600401612585565b60006040518083038186803b1580156111f557600080fd5b505af4158015611209573d6000803e3d6000fd5b505050506040513d6000823e601f3d908101601f19168201604052611231919081019061207e565b6001600160a01b038416600090815260176020908152604090912082516104d4936001909201929190910190611df7565b8482808210156112845760405162461bcd60e51b815260040161032690612567565b82156112a35760138790556015869055601485905560168490556112d4565b6112bf600a54426112b4919061261e565b600b5460ff16611872565b600f8790556010859055601186905560128490555b50505050505050565b6003546000904210156112f05750600190565b6002546001600160a01b0316156113115761130961168a565b611311611317565b50600090565b600280546001600160a01b031916815560006003819055600481905560058190556006819055611348600782611e42565b611356600683016000611e42565b6109d4600783016000611e42565b600054610100900460ff168061137d575060005460ff16155b6113995760405162461bcd60e51b8152600401610326906124fb565b600054610100900460ff161580156113bb576000805461ffff19166101011790555b6113c4826119bb565b600180546001600160a01b0319166001600160a01b0385161781556113ee908790879087906116a3565b80156104be576000805461ff0019169055505050505050565b600081516114158484611521565b109392505050565b606060008060029054906101000a90046001600160a01b03166001600160a01b031663da3dce266040518163ffffffff1660e01b815260040160206040518083038186803b15801561146e57600080fd5b505afa158015611482573d6000803e3d6000fd5b505050506040513d601f19601f820116820180604052508101906114a69190611f6a565b6001600160a01b03166388d44ee06040518163ffffffff1660e01b815260040160006040518083038186803b1580156114de57600080fd5b505afa1580156114f2573d6000803e3d6000fd5b505050506040513d6000823e601f3d908101601f1916820160405261151a9190810190611fb3565b5092915050565b60405160016219125f60e01b0319815260009073__AddressLibrary________________________9063ffe6eda1906115609086908690600401612332565b60206040518083038186803b15801561157857600080fd5b505af415801561158c573d6000803e3d6000fd5b505050506040513d601f19601f820116820180604052508101906115b091906121c1565b9392505050565b600454600554111561164757600e5460ff161561160957600c54600a55600d54600b805461010080840460ff90811690910261ffff1990921693169290921791909117905561160461166e565b61163d565b61163d600f546013556011546015556010546014556012546016556116456000600f81905560108190556011819055601255565b611645611317565b565b600454600654111561164557600e5460ff16156116665761160461166e565b61163d61168a565b6000600c55600d805461ffff19169055600e805460ff19169055565b6116456000600f81905560108190556011819055601255565b82828160ff16606410156116c95760405162461bcd60e51b815260040161032690612567565b8060ff16606410156116ed5760405162461bcd60e51b815260040161032690612567565b821561171857600a869055600b805460ff8681166101000261ffff19909216908816171790556104be565b600c869055600d805460ff8681166101000261ffff1990921690881617179055600e805460ff19166001179055600a546104be906112b4904261261e565b6001600160a01b03831660009081526017602090815260408083208484529091529020546117ad576001600160a01b0383166000908152601760209081526040822060019081018054918201815583529120018190555b6001600160a01b0383166000908152601760209081526040808320848452909152812080548492906117e090849061261e565b9091555050505050565b6000806117f5611a49565b915091506000611803611b4e565b905060005b835181101561186b5761185984828151811061182657611826612701565b60200260200101518685848151811061184157611841612701565b60200260200101516118539190612658565b84611756565b80611863816126ba565b915050611808565b5050505050565b600061187c6112dd565b156118b25760405162461bcd60e51b8152600401610326906020808252600490820152631150cc8d60e21b604082015260600190565b6118bb33611c4a565b15156001146118dc5760405162461bcd60e51b8152600401610326906124dd565b6118e461141d565b80516118f891600791602090910190611e60565b506007546119635760405162461bcd60e51b815260206004820152603260248201527f496d706f737369626c6520746f206164642070726f706f736974696f6e2c20746044820152716865726520617265206e6f2061646d696e7360701b6064820152608401610326565b600280546001600160a01b031916331790556003839055606460ff8316611988611b4e565b6119929190612658565b61199c9190612636565b6004556119a7611cfa565b80516104d491600891602090910190611df7565b600054610100900460ff16806119d4575060005460ff16155b6119f05760405162461bcd60e51b8152600401610326906124fb565b600054610100900460ff16158015611a12576000805461ffff19166101011790555b6000805462010000600160b01b031916620100006001600160a01b0385160217905580156109d4576000805461ff00191690555050565b606080600060029054906101000a90046001600160a01b03166001600160a01b031663da3dce266040518163ffffffff1660e01b815260040160206040518083038186803b158015611a9a57600080fd5b505afa158015611aae573d6000803e3d6000fd5b505050506040513d601f19601f82011682018060405250810190611ad29190611f6a565b6001600160a01b03166388d44ee06040518163ffffffff1660e01b815260040160006040518083038186803b158015611b0a57600080fd5b505afa158015611b1e573d6000803e3d6000fd5b505050506040513d6000823e601f3d908101601f19168201604052611b469190810190611fb3565b915091509091565b60008060029054906101000a90046001600160a01b03166001600160a01b031663da3dce266040518163ffffffff1660e01b815260040160206040518083038186803b158015611b9d57600080fd5b505afa158015611bb1573d6000803e3d6000fd5b505050506040513d601f19601f82011682018060405250810190611bd59190611f6a565b6001600160a01b03166318160ddd6040518163ffffffff1660e01b815260040160206040518083038186803b158015611c0d57600080fd5b505afa158015611c21573d6000803e3d6000fd5b505050506040513d601f19601f82011682018060405250810190611c4591906121c1565b905090565b6001546000906001600160a01b0316331415611c6857506001919050565b6000611c7261141d565b90506000611c7e611cfa565b90506000611c8c8584611521565b90508251811015611cea576064611ca1611b4e565b600b54611cb69190610100900460ff16612658565b611cc09190612636565b828281518110611cd257611cd2612701565b602002602001015110611cea57506001949350505050565b506000949350505050565b919050565b606060008060029054906101000a90046001600160a01b03166001600160a01b031663da3dce266040518163ffffffff1660e01b815260040160206040518083038186803b158015611d4b57600080fd5b505afa158015611d5f573d6000803e3d6000fd5b505050506040513d601f19601f82011682018060405250810190611d839190611f6a565b6001600160a01b03166388d44ee06040518163ffffffff1660e01b815260040160006040518083038186803b158015611dbb57600080fd5b505afa158015611dcf573d6000803e3d6000fd5b505050506040513d6000823e601f3d908101601f191682016040526115b09190810190611fb3565b828054828255906000526020600020908101928215611e32579160200282015b82811115611e32578251825591602001919060010190611e17565b50611e3e929150611eb5565b5090565b50805460008255906000526020600020908101906105379190611eb5565b828054828255906000526020600020908101928215611e32579160200282015b82811115611e3257825182546001600160a01b0319166001600160a01b03909116178255602090920191600190910190611e80565b5b80821115611e3e5760008155600101611eb6565b600082601f830112611edb57600080fd5b81516020611ef0611eeb836125fb565b6125cb565b80838252828201915082860187848660051b8901011115611f1057600080fd5b60005b85811015611f2f57815184529284019290840190600101611f13565b5090979650505050505050565b803560ff81168114611cf557600080fd5b600060208284031215611f5f57600080fd5b81356115b08161272d565b600060208284031215611f7c57600080fd5b81516115b08161272d565b60008060408385031215611f9a57600080fd5b8235611fa58161272d565b946020939093013593505050565b60008060408385031215611fc657600080fd5b82516001600160401b0380821115611fdd57600080fd5b818501915085601f830112611ff157600080fd5b81516020612001611eeb836125fb565b8083825282820191508286018a848660051b890101111561202157600080fd5b600096505b8487101561204d5780516120398161272d565b835260019690960195918301918301612026565b509188015191965090935050508082111561206757600080fd5b5061207485828601611eca565b9150509250929050565b60006020828403121561209057600080fd5b81516001600160401b038111156120a657600080fd5b6120b284828501611eca565b949350505050565b6000602082840312156120cc57600080fd5b81356115b081612742565b6000602082840312156120e957600080fd5b81516115b081612742565b60006020828403121561210657600080fd5b8135600381106115b057600080fd5b60006020828403121561212757600080fd5b81516001600160401b038082111561213e57600080fd5b818401915084601f83011261215257600080fd5b81518181111561216457612164612717565b612177601f8201601f19166020016125cb565b915080825285602082850101111561218e57600080fd5b61219f81602084016020860161268e565b50949350505050565b6000602082840312156121ba57600080fd5b5035919050565b6000602082840312156121d357600080fd5b5051919050565b600080600080608085870312156121f057600080fd5b5050823594602084013594506040840135936060013592509050565b600080600080600080600080610100898b03121561222957600080fd5b8835975060208901359650604089013595506060890135945060808901356122508161272d565b935060a0890135925061226560c08a01611f3c565b915061227360e08a01611f3c565b90509295985092959890939650565b60008060006060848603121561229757600080fd5b833592506122a760208501611f3c565b91506122b560408501611f3c565b90509250925092565b600081518084526020808501945080840160005b838110156122f75781516001600160a01b0316875295820195908201906001016122d2565b509495945050505050565b600081518084526020808501945080840160005b838110156122f757815187529582019590820190600101612316565b6001600160a01b038381168252604060208084018290528451918401829052600092858201929091906060860190855b81811015612380578551851683529483019491830191600101612362565b509098975050505050505050565b60006040820160018060a01b03808616845260206040818601528286548085526060870191508760005282600020945060005b818110156123805785548516835260019586019592840192016123c1565b600061010060018060a01b038b1683528960208401528860408401528760608401528660808401528060a0840152612419818401876122be565b905082810360c084015261242d8186612302565b905082810360e084015261244181856122be565b9b9a5050505050505050505050565b6000602080830181845280855180835260408601915060408160051b870101925083870160005b828110156124bd57878503603f190184528151805180875261249e818989018a850161268e565b601f01601f191695909501860194509285019290850190600101612477565b5092979650505050505050565b6020815260006115b06020830184612302565b60208082526004908201526322a1991960e11b604082015260600190565b6020808252602e908201527f496e697469616c697a61626c653a20636f6e747261637420697320616c72656160408201526d191e481a5b9a5d1a585b1a5e995960921b606082015260800190565b6020808252600490820152634543323560e01b604082015260600190565b6020808252600490820152634543323160e01b604082015260600190565b60006040820184835260206040818501528185548084526060860191508660005282600020935060005b81811015611f2f578454835260019485019492840192016125af565b604051601f8201601f191681016001600160401b03811182821017156125f3576125f3612717565b604052919050565b60006001600160401b0382111561261457612614612717565b5060051b60200190565b60008219821115612631576126316126d5565b500190565b60008261265357634e487b7160e01b600052601260045260246000fd5b500490565b6000816000190483118215151615612672576126726126d5565b500290565b600082821015612689576126896126d5565b500390565b60005b838110156126a9578181015183820152602001612691565b838111156104d45750506000910152565b60006000198214156126ce576126ce6126d5565b5060010190565b634e487b7160e01b600052601160045260246000fd5b634e487b7160e01b600052602160045260246000fd5b634e487b7160e01b600052603260045260246000fd5b634e487b7160e01b600052604160045260246000fd5b6001600160a01b038116811461053757600080fd5b801515811461053757600080fdfea264697066735822122067f49d0fb0ca072f8714f1cb93adfb430081632ab1ed431d449b9defae5ec7b564736f6c63430008060033",
  "immutableReferences": {},
  "source": "// SPDX-License-Identifier: GPL-3.0\r\n\r\npragma solidity >=0.7.0 <0.9.0;\r\n\r\n/**\r\n * @title Storage\r\n * @dev Store & retrieve value in a variable\r\n */\r\n\r\nimport \"../Interfaces/ITreasury.sol\";\r\nimport \"./PublicCertificatesPool.sol\";\r\nimport \"../Libraries/UintLibrary.sol\";\r\nimport \"../Libraries/Library.sol\";\r\nimport \"./CertisToken.sol\";\r\nimport \"../Base/TokenGovernanceBaseContract.sol\";\r\n\r\n\r\ncontract Treasury is ITreasury, TokenGovernanceBaseContract{\r\n    using Library for *;\r\n    using UintLibrary for *;\r\n\r\n    // DATA\r\n    // proposition to change prices\r\n    struct ProposedPricesStruct{\r\n        uint NewPublicPriceWei;\r\n        uint NewCertificatePriceWei;\r\n        uint NewPrivatePriceWei;\r\n        uint NewOwnerRefundPriceWei;\r\n    }\r\n\r\n    ProposedPricesStruct _ProposedPrices;\r\n\r\n    // parameters\r\n    //PublicCertificatesPool  _PublicCertificatesPool;\r\n    uint _PublicPriceWei;\r\n    uint _CertificatePriceWei;\r\n    uint _PrivatePriceWei;\r\n    uint _OwnerRefundPriceWei;\r\n\r\n    // dividends per token owner\r\n    struct _BalanceStruct{\r\n        mapping(uint => uint) _balance;\r\n        uint[] _factors;\r\n    }\r\n    \r\n    mapping(address => _BalanceStruct) _balances;\r\n\r\n    // MODIFIERS\r\n    modifier areFundsEnough(Library.Prices price){\r\n        uint256 minPrice = 2**256 - 1;\r\n\r\n        if(Library.Prices.NewProvider == price) minPrice = _PublicPriceWei;\r\n        else if(Library.Prices.NewPool == price) minPrice = _PrivatePriceWei;\r\n        else if(Library.Prices.NewCertificate == price) minPrice = _CertificatePriceWei;\r\n\r\n        require(msg.value >= minPrice, \"EC2\");\r\n        _;\r\n    }\r\n\r\n    modifier isBalanceEnough(uint amount){\r\n        require(checkBalance(msg.sender) >= amount, \"EC20\");\r\n        _;\r\n    }\r\n\r\n    modifier isFromPublicPool(){\r\n        require(true == Library.ItIsSomeone(_managerContract.retrievePublicCertificatePoolProxy()), \"EC8\");\r\n        _;\r\n    }\r\n\r\n    modifier isPriceOK(uint256 PublicPriceWei, uint256 OwnerRefundPriceWei){\r\n        require(PublicPriceWei >= OwnerRefundPriceWei, \"EC21\");\r\n        _;\r\n    }\r\n\r\n    \r\n    // CONSTRUCTOR\r\n    /*constructor(uint256 PublicPriceWei, uint256 PrivatePriceWei, uint256 CertificatePriceWei, uint256 OwnerRefundPriceWei, address managerContractAddress, uint256 PropositionLifeTime, uint8 PropositionThresholdPercentage, uint8 minWeightToProposePercentage) \r\n    TokenGovernanceBaseContract(PropositionLifeTime, PropositionThresholdPercentage, minWeightToProposePercentage)\r\n    ManagedBaseContract(managerContractAddress)\r\n    {\r\n        InternalupdatePrices(PublicPriceWei, PrivatePriceWei, CertificatePriceWei, OwnerRefundPriceWei, true);\r\n    }*/\r\n\r\n    function Treasury_init(uint256 PublicPriceWei, uint256 PrivatePriceWei, uint256 CertificatePriceWei, uint256 OwnerRefundPriceWei, address managerContractAddress, uint256 PropositionLifeTime, uint8 PropositionThresholdPercentage, uint8 minWeightToProposePercentage) public initializer \r\n    {\r\n        super.TokenGovernanceContract_init(PropositionLifeTime, PropositionThresholdPercentage, minWeightToProposePercentage, msg.sender, managerContractAddress);\r\n        //super.ManagedBaseContract_init(managerContractAddress);\r\n        InternalupdatePrices(PublicPriceWei, PrivatePriceWei, CertificatePriceWei, OwnerRefundPriceWei, true);\r\n    }\r\n\r\n\r\n    // GOVERNANCE \r\n    function updatePrices(uint256 PublicPriceWei, uint256 PrivatePriceWei, uint256 CertificatePriceWei, uint256 OwnerRefundPriceWei) external override\r\n    {\r\n        InternalupdatePrices(PublicPriceWei, PrivatePriceWei, CertificatePriceWei, OwnerRefundPriceWei, false);\r\n    }\r\n\r\n    function InternalupdatePrices(uint256 PublicPriceWei, uint256 PrivatePriceWei, uint256 CertificatePriceWei, uint256 OwnerRefundPriceWei, bool fromConstructor) internal\r\n        isPriceOK(PublicPriceWei, OwnerRefundPriceWei)\r\n    {\r\n        if(fromConstructor){\r\n            _PublicPriceWei = PublicPriceWei;\r\n            _PrivatePriceWei = PrivatePriceWei;\r\n            _CertificatePriceWei = CertificatePriceWei;\r\n            _OwnerRefundPriceWei = OwnerRefundPriceWei;\r\n        }\r\n        else{\r\n            addProposition(block.timestamp + _PropositionLifeTime, _PropositionThresholdPercentage);\r\n            _ProposedPrices.NewPublicPriceWei = PublicPriceWei;\r\n            _ProposedPrices.NewCertificatePriceWei = CertificatePriceWei;\r\n            _ProposedPrices.NewPrivatePriceWei = PrivatePriceWei;\r\n            _ProposedPrices.NewOwnerRefundPriceWei = OwnerRefundPriceWei;\r\n        }\r\n        \r\n    }\r\n\r\n    function propositionApproved() internal override\r\n    {\r\n        _PublicPriceWei = _ProposedPrices.NewPublicPriceWei;\r\n        _PrivatePriceWei = _ProposedPrices.NewPrivatePriceWei;\r\n        _CertificatePriceWei = _ProposedPrices.NewCertificatePriceWei;\r\n        _OwnerRefundPriceWei = _ProposedPrices.NewOwnerRefundPriceWei;\r\n        \r\n        removeProposition();\r\n    }\r\n\r\n    function propositionRejected() internal override\r\n    {\r\n        removeProposition();\r\n    }\r\n\r\n    function propositionExpired() internal override\r\n    {\r\n        removeProposition();\r\n    }\r\n\r\n    function removeProposition() internal\r\n    {\r\n         delete(_ProposedPrices);\r\n    }\r\n\r\n    function retrieveProposition() external override view returns(string[] memory)\r\n    {\r\n        string[] memory proposition = new string[](4);\r\n        proposition[0] = UintLibrary.UintToString(_ProposedPrices.NewPublicPriceWei);\r\n        proposition[1] = UintLibrary.UintToString(_ProposedPrices.NewPrivatePriceWei);\r\n        proposition[2] = UintLibrary.UintToString(_ProposedPrices.NewCertificatePriceWei);\r\n        proposition[3] = UintLibrary.UintToString(_ProposedPrices.NewOwnerRefundPriceWei);\r\n        return proposition;\r\n    }\r\n\r\n    // FUNCTIONALITY\r\n    /*function updateContracts(address PublicPoolAddressProxy, address CertisTokenAddressProxy) external \r\n        isFromManagerContract()\r\n    override\r\n    {\r\n        _PublicCertificatesPool = PublicCertificatesPool(PublicPoolAddressProxy);\r\n        _CertisToken = CertisToken(CertisTokenAddressProxy); \r\n    }*/\r\n\r\n    function pay(Library.Prices price) external \r\n        areFundsEnough(price)\r\n    override payable\r\n    {\r\n        uint256 amount = msg.value;\r\n        if(price == Library.Prices.NewProvider) amount -= _OwnerRefundPriceWei;\r\n        AssignDividends(amount);\r\n    }\r\n\r\n    function AssignDividends(uint256 amount) internal\r\n    {\r\n        (address[] memory DividendsRecipients, uint256[] memory DividendsRecipientsTokens) = GetTokenOwners();\r\n        uint256 TotalTokenSupply = totalSupply();\r\n\r\n        for(uint i=0; i < DividendsRecipients.length; i++){\r\n            addBalance(DividendsRecipients[i], DividendsRecipientsTokens[i] * amount, TotalTokenSupply);\r\n        }\r\n\r\n    }\r\n\r\n    function getRefund(address addr, uint numberOfOwners) external \r\n        isFromPublicPool()\r\n    override\r\n    {\r\n        addBalance(addr, _OwnerRefundPriceWei, numberOfOwners);\r\n    }\r\n\r\n    function withdraw(uint amount) external \r\n        isBalanceEnough(amount)\r\n    override\r\n    {\r\n        uint[] memory f = returnFactors(msg.sender);\r\n        uint total = 0;\r\n        uint i = 0;\r\n\r\n        while ((total < amount) && (i < f.length)){\r\n            uint amountForFactor = returnBalanceForFactor(msg.sender, f[i]) / f[i];\r\n            if(amountForFactor > (amount - total)) amountForFactor = amount - total;\r\n            total += amountForFactor;\r\n            substractBalance(msg.sender, amountForFactor * f[i], f[i]);\r\n            i++;\r\n        }\r\n\r\n        require(total == amount, \"UnExpected problem calculating the amount to withdraw\");\r\n\r\n        payable(msg.sender).transfer(total);\r\n    }\r\n\r\n    function retrieveBalance(address addr) external override view returns(uint)\r\n    {\r\n        return checkBalance(addr);\r\n    }\r\n\r\n    function retrievePrices() external override view returns(uint, uint, uint, uint)\r\n    {\r\n        return(_PublicPriceWei, _PrivatePriceWei, _CertificatePriceWei, _OwnerRefundPriceWei);\r\n    }\r\n\r\n    function checkBalance(address addr) internal view returns(uint){\r\n        uint[] memory f = returnFactors(addr);\r\n        uint total = 0;\r\n\r\n        for(uint i=0; i < f.length; i++){\r\n            total += returnBalanceForFactor(addr, f[i]) / f[i];\r\n        }\r\n\r\n        return total;\r\n    }\r\n\r\n    function returnFactors(address addr) public view returns(uint[] memory){\r\n        return _balances[addr]._factors;\r\n    }\r\n\r\n    function returnBalanceForFactor(address addr, uint factor) public view returns(uint){\r\n        return _balances[addr]._balance[factor];\r\n    }\r\n\r\n    function addBalance(address addr, uint amount, uint factor) private\r\n    {\r\n        if(0 == _balances[addr]._balance[factor]){\r\n             _balances[addr]._factors.push(factor);\r\n        }\r\n\r\n       _balances[addr]._balance[factor] += amount;\r\n    }\r\n\r\n    function substractBalance(address addr, uint amount, uint factor) private\r\n    {\r\n        require(_balances[addr]._balance[factor] >= amount, \"Not enough balance for this factor\");\r\n\r\n        _balances[addr]._balance[factor] -= amount;\r\n\r\n        if(0 == _balances[addr]._balance[factor]){\r\n            _balances[addr]._factors = UintLibrary.UintArrayRemoveResize(UintLibrary.FindUintPosition(factor, _balances[addr]._factors), _balances[addr]._factors);\r\n        }\r\n        \r\n    }\r\n\r\n}",
  "sourcePath": "C:\\Users\\d-aam\\GitHub\\Certificates\\contracts\\DeployedContracts\\Treasury.sol",
  "compiler": {
    "name": "solc",
    "version": "0.8.6+commit.11564f7e.Emscripten.clang"
  },
  "schemaVersion": "3.3.4",
  "updatedAt": "2021-08-04T12:39:15.715Z",
  "devdoc": {
    "kind": "dev",
    "methods": {},
    "version": 1
  },
  "userdoc": {
    "kind": "user",
    "methods": {},
    "version": 1
  }
}