{
  "contractName": "Treasury",
  "abi": [
    {
      "anonymous": false,
      "inputs": [
        {
          "indexed": true,
          "internalType": "address",
          "name": "",
          "type": "address"
        },
        {
          "indexed": false,
          "internalType": "uint256",
          "name": "",
          "type": "uint256"
        },
        {
          "indexed": false,
          "internalType": "uint256",
          "name": "",
          "type": "uint256"
        },
        {
          "indexed": false,
          "internalType": "address[]",
          "name": "",
          "type": "address[]"
        },
        {
          "indexed": false,
          "internalType": "uint256[]",
          "name": "",
          "type": "uint256[]"
        }
      ],
      "name": "_AddedProposition",
      "type": "event"
    },
    {
      "anonymous": false,
      "inputs": [
        {
          "indexed": true,
          "internalType": "address",
          "name": "",
          "type": "address"
        }
      ],
      "name": "_CancelledProposition",
      "type": "event"
    },
    {
      "anonymous": false,
      "inputs": [
        {
          "indexed": false,
          "internalType": "uint256",
          "name": "",
          "type": "uint256"
        },
        {
          "indexed": false,
          "internalType": "uint256",
          "name": "",
          "type": "uint256"
        },
        {
          "indexed": false,
          "internalType": "uint256",
          "name": "",
          "type": "uint256"
        },
        {
          "indexed": false,
          "internalType": "uint256",
          "name": "",
          "type": "uint256"
        },
        {
          "indexed": false,
          "internalType": "uint256",
          "name": "",
          "type": "uint256"
        }
      ],
      "name": "_NewPrices",
      "type": "event"
    },
    {
      "anonymous": false,
      "inputs": [
        {
          "indexed": true,
          "internalType": "address",
          "name": "",
          "type": "address"
        },
        {
          "indexed": false,
          "internalType": "uint256",
          "name": "",
          "type": "uint256"
        }
      ],
      "name": "_Pay",
      "type": "event"
    },
    {
      "anonymous": false,
      "inputs": [
        {
          "indexed": true,
          "internalType": "address",
          "name": "",
          "type": "address"
        },
        {
          "indexed": false,
          "internalType": "uint256",
          "name": "",
          "type": "uint256"
        },
        {
          "indexed": false,
          "internalType": "uint256",
          "name": "",
          "type": "uint256"
        },
        {
          "indexed": false,
          "internalType": "address[]",
          "name": "",
          "type": "address[]"
        }
      ],
      "name": "_PropositionApproved",
      "type": "event"
    },
    {
      "anonymous": false,
      "inputs": [
        {
          "indexed": true,
          "internalType": "address",
          "name": "",
          "type": "address"
        },
        {
          "indexed": false,
          "internalType": "uint256",
          "name": "",
          "type": "uint256"
        },
        {
          "indexed": false,
          "internalType": "uint256",
          "name": "",
          "type": "uint256"
        },
        {
          "indexed": false,
          "internalType": "address[]",
          "name": "",
          "type": "address[]"
        }
      ],
      "name": "_PropositionRejected",
      "type": "event"
    },
    {
      "anonymous": false,
      "inputs": [
        {
          "indexed": true,
          "internalType": "address",
          "name": "",
          "type": "address"
        },
        {
          "indexed": false,
          "internalType": "uint256",
          "name": "",
          "type": "uint256"
        }
      ],
      "name": "_Refund",
      "type": "event"
    },
    {
      "anonymous": false,
      "inputs": [
        {
          "indexed": true,
          "internalType": "address",
          "name": "",
          "type": "address"
        },
        {
          "indexed": false,
          "internalType": "uint256",
          "name": "",
          "type": "uint256"
        }
      ],
      "name": "_Withdraw",
      "type": "event"
    },
    {
      "inputs": [],
      "name": "cancelProposition",
      "outputs": [],
      "stateMutability": "nonpayable",
      "type": "function"
    },
    {
      "inputs": [],
      "name": "retrievePropConfig",
      "outputs": [
        {
          "internalType": "uint256",
          "name": "",
          "type": "uint256"
        },
        {
          "internalType": "uint8",
          "name": "",
          "type": "uint8"
        },
        {
          "internalType": "uint8",
          "name": "",
          "type": "uint8"
        }
      ],
      "stateMutability": "view",
      "type": "function"
    },
    {
      "inputs": [],
      "name": "retrievePropositionStatus",
      "outputs": [
        {
          "internalType": "address",
          "name": "",
          "type": "address"
        },
        {
          "internalType": "uint256",
          "name": "",
          "type": "uint256"
        },
        {
          "internalType": "uint256",
          "name": "",
          "type": "uint256"
        },
        {
          "internalType": "uint256",
          "name": "",
          "type": "uint256"
        },
        {
          "internalType": "uint256",
          "name": "",
          "type": "uint256"
        },
        {
          "internalType": "address[]",
          "name": "",
          "type": "address[]"
        },
        {
          "internalType": "uint256[]",
          "name": "",
          "type": "uint256[]"
        },
        {
          "internalType": "address[]",
          "name": "",
          "type": "address[]"
        }
      ],
      "stateMutability": "view",
      "type": "function"
    },
    {
      "inputs": [
        {
          "internalType": "uint256",
          "name": "PropLifeTime",
          "type": "uint256"
        },
        {
          "internalType": "uint8",
          "name": "PropThresholdPerc",
          "type": "uint8"
        },
        {
          "internalType": "uint8",
          "name": "minWeightToPropPerc",
          "type": "uint8"
        }
      ],
      "name": "updateProp",
      "outputs": [],
      "stateMutability": "nonpayable",
      "type": "function"
    },
    {
      "inputs": [
        {
          "internalType": "bool",
          "name": "vote",
          "type": "bool"
        }
      ],
      "name": "voteProposition",
      "outputs": [],
      "stateMutability": "nonpayable",
      "type": "function"
    },
    {
      "inputs": [
        {
          "internalType": "uint256",
          "name": "PublicPriceWei",
          "type": "uint256"
        },
        {
          "internalType": "uint256",
          "name": "PrivatePriceWei",
          "type": "uint256"
        },
        {
          "internalType": "uint256",
          "name": "ProviderPriceWei",
          "type": "uint256"
        },
        {
          "internalType": "uint256",
          "name": "CertificatePriceWei",
          "type": "uint256"
        },
        {
          "internalType": "uint256",
          "name": "OwnerRefundPriceWei",
          "type": "uint256"
        },
        {
          "internalType": "address",
          "name": "managerContractAddress",
          "type": "address"
        },
        {
          "internalType": "uint256",
          "name": "PropositionLifeTime",
          "type": "uint256"
        },
        {
          "internalType": "uint8",
          "name": "PropositionThresholdPercentage",
          "type": "uint8"
        },
        {
          "internalType": "uint8",
          "name": "minWeightToProposePercentage",
          "type": "uint8"
        }
      ],
      "name": "Treasury_init",
      "outputs": [],
      "stateMutability": "nonpayable",
      "type": "function"
    },
    {
      "inputs": [
        {
          "internalType": "uint256",
          "name": "PublicPriceWei",
          "type": "uint256"
        },
        {
          "internalType": "uint256",
          "name": "PrivatePriceWei",
          "type": "uint256"
        },
        {
          "internalType": "uint256",
          "name": "ProviderPriceWei",
          "type": "uint256"
        },
        {
          "internalType": "uint256",
          "name": "CertificatePriceWei",
          "type": "uint256"
        },
        {
          "internalType": "uint256",
          "name": "OwnerRefundPriceWei",
          "type": "uint256"
        }
      ],
      "name": "updatePrices",
      "outputs": [],
      "stateMutability": "nonpayable",
      "type": "function"
    },
    {
      "inputs": [],
      "name": "retrieveProposition",
      "outputs": [
        {
          "internalType": "bytes32[]",
          "name": "",
          "type": "bytes32[]"
        }
      ],
      "stateMutability": "view",
      "type": "function"
    },
    {
      "inputs": [
        {
          "internalType": "enum Library.Prices",
          "name": "price",
          "type": "uint8"
        }
      ],
      "name": "pay",
      "outputs": [],
      "stateMutability": "payable",
      "type": "function"
    },
    {
      "inputs": [
        {
          "internalType": "address",
          "name": "addr",
          "type": "address"
        },
        {
          "internalType": "uint256",
          "name": "numberOfOwners",
          "type": "uint256"
        }
      ],
      "name": "getRefund",
      "outputs": [],
      "stateMutability": "nonpayable",
      "type": "function"
    },
    {
      "inputs": [
        {
          "internalType": "uint256",
          "name": "amount",
          "type": "uint256"
        }
      ],
      "name": "withdraw",
      "outputs": [],
      "stateMutability": "nonpayable",
      "type": "function"
    },
    {
      "inputs": [
        {
          "internalType": "address",
          "name": "addr",
          "type": "address"
        }
      ],
      "name": "retrieveBalance",
      "outputs": [
        {
          "internalType": "uint256",
          "name": "",
          "type": "uint256"
        }
      ],
      "stateMutability": "view",
      "type": "function"
    },
    {
      "inputs": [],
      "name": "retrievePrices",
      "outputs": [
        {
          "internalType": "uint256",
          "name": "",
          "type": "uint256"
        },
        {
          "internalType": "uint256",
          "name": "",
          "type": "uint256"
        },
        {
          "internalType": "uint256",
          "name": "",
          "type": "uint256"
        },
        {
          "internalType": "uint256",
          "name": "",
          "type": "uint256"
        },
        {
          "internalType": "uint256",
          "name": "",
          "type": "uint256"
        }
      ],
      "stateMutability": "view",
      "type": "function"
    },
    {
      "inputs": [
        {
          "internalType": "address",
          "name": "addr",
          "type": "address"
        }
      ],
      "name": "returnFactors",
      "outputs": [
        {
          "internalType": "uint256[]",
          "name": "",
          "type": "uint256[]"
        }
      ],
      "stateMutability": "view",
      "type": "function"
    },
    {
      "inputs": [
        {
          "internalType": "address",
          "name": "addr",
          "type": "address"
        },
        {
          "internalType": "uint256",
          "name": "factor",
          "type": "uint256"
        }
      ],
      "name": "returnBalanceForFactor",
      "outputs": [
        {
          "internalType": "uint256",
          "name": "",
          "type": "uint256"
        }
      ],
      "stateMutability": "view",
      "type": "function"
    }
  ],
  "bytecode": "0x608060405234801561001057600080fd5b50612a6d806100206000396000f3fe6080604052600436106100b85760003560e01c806325b4f3ca146100bd5780632e1a7d4d146100f357806355457ee914610115578063840f6d171461012a578063906816d71461015357806391f9167114610181578063922ebecc146101a157806396df6e79146101c1578063a93316f5146101e1578063ac2bb44214610203578063c56cb58014610223578063d660ab3414610250578063e20f37ad14610289578063eb1e2a41146102a9578063f0c9325e146102c9575b600080fd5b3480156100c957600080fd5b506014546016546017546015546018546040516100ea9594939291906128bb565b60405180910390f35b3480156100ff57600080fd5b5061011361010e366004612408565b6102dc565b005b34801561012157600080fd5b506101136104f3565b34801561013657600080fd5b5061013f61058b565b6040516100ea989796959493929190612677565b34801561015f57600080fd5b5061017361016e366004612261565b6106fb565b6040519081526020016100ea565b34801561018d57600080fd5b5061011361019c366004612394565b610723565b3480156101ad57600080fd5b506101136101bc36600461245c565b6109c2565b3480156101cd57600080fd5b506101136101dc366004612421565b610a53565b3480156101ed57600080fd5b506101f6610a69565b6040516100ea91906126e8565b34801561020f57600080fd5b5061011361021e3660046124dc565b610dce565b34801561022f57600080fd5b5061024361023e366004612227565b610de0565b6040516100ea919061272c565b34801561025c57600080fd5b50600a54600b546040805192835260ff8083166020850152610100909204909116908201526060016100ea565b34801561029557600080fd5b506101736102a4366004612227565b610e4f565b3480156102b557600080fd5b506101136102c4366004612261565b610e60565b6101136102d73660046123e7565b611002565b80806102e733611115565b10156103275760405162461bcd60e51b815260040161031e906020808252600490820152630454332360e41b604082015260600190565b60405180910390fd5b600061033233610de0565b90506000805b84821080156103475750825181105b1561041c576000838281518110610360576103606129e8565b602002602001015161038b3386858151811061037e5761037e6129e8565b60200260200101516106fb565b6103959190612949565b90506103a1838761298a565b8111156103b5576103b2838761298a565b90505b6103bf8184612931565b9250610409338584815181106103d7576103d76129e8565b6020026020010151836103ea919061296b565b8685815181106103fc576103fc6129e8565b6020026020010151611190565b81610413816129a1565b92505050610338565b8482146104895760405162461bcd60e51b815260206004820152603560248201527f556e45787065637465642070726f626c656d2063616c63756c6174696e672074604482015274686520616d6f756e7420746f20776974686472617760581b606482015260840161031e565b604051339083156108fc029084906000818181858888f193505050501580156104b6573d6000803e3d6000fd5b5060405182815233907f732ea8a38f70c2018ed8dfd6e97bf6381f60102061beae0ac4d9a5abd15a06029060200160405180910390a25050505050565b60016104fd6113e5565b151560011461051e5760405162461bcd60e51b815260040161031e906127ab565b6002546001600160a01b031633146105485760405162461bcd60e51b815260040161031e9061273f565b61055061141f565b6002546040516001600160a01b03909116907fd02d53732621ad6e6d3d9370823f4968cd23613cf89dd88e10a74c7f88ebd54e90600090a250565b60008060008060006060806060600260000160009054906101000a90046001600160a01b031660026001015460028001546002600301546002600401546002600501600260060160026007018280548060200260200160405190810160405280929190818152602001828054801561062c57602002820191906000526020600020905b81546001600160a01b0316815260019091019060200180831161060e575b505050505092508180548060200260200160405190810160405280929190818152602001828054801561067e57602002820191906000526020600020905b81548152602001906001019080831161066a575b50505050509150808054806020026020016040519081016040528092919081815260200182805480156106da57602002820191906000526020600020905b81546001600160a01b031681526001909101906020018083116106bc575b50505050509050975097509750975097509750975097509091929394959697565b6001600160a01b03919091166000908152601960209081526040808320938352929052205490565b600161072d6113e5565b151560011461074e5760405162461bcd60e51b815260040161031e906127ab565b6107b53360026005018054806020026020016040519081016040528092919081815260200182805480156107ab57602002820191906000526020600020905b81546001600160a01b0316815260019091019060200180831161078d575b505050505061146c565b15156001146107ef5760405162461bcd60e51b815260040161031e906020808252600490820152634543323360e01b604082015260600190565b60405163f7cf62d760e01b815273__AddressLibrary________________________9063f7cf62d790610829903390600990600401612626565b60206040518083038186803b15801561084157600080fd5b505af4158015610855573d6000803e3d6000fd5b505050506040513d601f19601f8201168201806040525081019061087991906123b1565b156108ac5760405162461bcd60e51b815260206004820152600360248201526245433560e81b604482015260640161031e565b60035442101561099a57600980546001810182556000919091527f6e1540171b6c0c960b71a7020d9f60077f6af931a8bbf590da0223dacf75c7af0180546001600160a01b03191633179055811561094b5760086109113361090c611482565b611586565b81548110610921576109216129e8565b9060005260206000200154600260030160008282546109409190612931565b9091555061098e9050565b60086109593361090c611482565b81548110610969576109696129e8565b9060005260206000200154600260040160008282546109889190612931565b90915550505b61099661161c565b5050565b600e5460ff16156109b2576109ad61174e565b6109ba565b6109ba61176a565b61099661141f565b600054610100900460ff16806109db575060005460ff16155b6109f75760405162461bcd60e51b815260040161031e9061275d565b600054610100900460ff16158015610a19576000805461ffff19166101011790555b610a268484843389611772565b610a358a8a8a8a8a6001611816565b8015610a47576000805461ff00191690555b50505050505050505050565b610a6285858585856000611816565b5050505050565b60408051600580825260c08201909252606091600091906020820160a0803683375050600f54604051631635719760e31b8152600481019190915291925073__UintLibrary___________________________9163b1ab8cb8915060240160206040518083038186803b158015610adf57600080fd5b505af4158015610af3573d6000803e3d6000fd5b505050506040513d601f19601f82011682018060405250810190610b1791906123ce565b81600081518110610b2a57610b2a6129e8565b6020908102919091010152601154604051631635719760e31b8152600481019190915273__UintLibrary___________________________9063b1ab8cb89060240160206040518083038186803b158015610b8457600080fd5b505af4158015610b98573d6000803e3d6000fd5b505050506040513d601f19601f82011682018060405250810190610bbc91906123ce565b81600181518110610bcf57610bcf6129e8565b6020908102919091010152601254604051631635719760e31b8152600481019190915273__UintLibrary___________________________9063b1ab8cb89060240160206040518083038186803b158015610c2957600080fd5b505af4158015610c3d573d6000803e3d6000fd5b505050506040513d601f19601f82011682018060405250810190610c6191906123ce565b81600281518110610c7457610c746129e8565b6020908102919091010152601054604051631635719760e31b8152600481019190915273__UintLibrary___________________________9063b1ab8cb89060240160206040518083038186803b158015610cce57600080fd5b505af4158015610ce2573d6000803e3d6000fd5b505050506040513d601f19601f82011682018060405250810190610d0691906123ce565b81600381518110610d1957610d196129e8565b6020908102919091010152601354604051631635719760e31b8152600481019190915273__UintLibrary___________________________9063b1ab8cb89060240160206040518083038186803b158015610d7357600080fd5b505af4158015610d87573d6000803e3d6000fd5b505050506040513d601f19601f82011682018060405250810190610dab91906123ce565b81600481518110610dbe57610dbe6129e8565b6020908102919091010152919050565b610ddb838383600061189c565b505050565b6001600160a01b038116600090815260196020908152604091829020600101805483518184028101840190945280845260609392830182828015610e4357602002820191906000526020600020905b815481526020019060010190808311610e2f575b50505050509050919050565b6000610e5a82611115565b92915050565b73__Library_______________________________63d1d719d0600060029054906101000a90046001600160a01b03166001600160a01b031663aa33380a6040518163ffffffff1660e01b815260040160206040518083038186803b158015610ec857600080fd5b505afa158015610edc573d6000803e3d6000fd5b505050506040513d601f19601f82011682018060405250810190610f009190612244565b6040516001600160e01b031960e084901b1681526001600160a01b03909116600482015260240160206040518083038186803b158015610f3f57600080fd5b505af4158015610f53573d6000803e3d6000fd5b505050506040513d601f19601f82011682018060405250810190610f7791906123b1565b1515600114610fae5760405162461bcd60e51b815260206004820152600360248201526208a86760eb1b604482015260640161031e565b610fbb826018548361194f565b816001600160a01b03167f5a8b23b6708800de8ffd6d2398cde024a6031d67c18648c347636e31d0fec45982604051610ff691815260200190565b60405180910390a25050565b80600019816003811115611018576110186129d2565b6110255750601454611070565b816003811115611037576110376129d2565b600114156110485750601654611070565b81600381111561105a5761105a6129d2565b6002141561106b5750601554611070565b506017545b803410156110a65760405162461bcd60e51b815260206004820152600360248201526222a19960e91b604482015260640161031e565b3460008460038111156110bb576110bb6129d2565b14156110d1576018546110ce908261298a565b90505b6110da816119e3565b60405134815233907fa1a75f56738f80584efa96074fcf81008d3e7456d405f2811bc39295c151c1089060200160405180910390a250505050565b60008061112183610de0565b90506000805b825181101561118857828181518110611142576111426129e8565b60200260200101516111608685848151811061037e5761037e6129e8565b61116a9190612949565b6111749083612931565b915080611180816129a1565b915050611127565b509392505050565b6001600160a01b038316600090815260196020908152604080832084845290915290205482111561120e5760405162461bcd60e51b815260206004820152602260248201527f4e6f7420656e6f7567682062616c616e636520666f722074686973206661637460448201526137b960f11b606482015260840161031e565b6001600160a01b03831660009081526019602090815260408083208484529091528120805484929061124190849061298a565b90915550506001600160a01b0383166000908152601960209081526040808320848452909152902054610ddb576001600160a01b0383166000908152601960205260409081902090516362fe358160e11b815273__UintLibrary___________________________916302fbee9e91839163c5fc6b02916112cc9187916001909101906004016127e7565b60206040518083038186803b1580156112e457600080fd5b505af41580156112f8573d6000803e3d6000fd5b505050506040513d601f19601f8201168201806040525081019061131c91906123ce565b6001600160a01b0386166000908152601960205260409081902090516001600160e01b031960e085901b16815261135a9291600101906004016127e7565b60006040518083038186803b15801561137257600080fd5b505af4158015611386573d6000803e3d6000fd5b505050506040513d6000823e601f3d908101601f191682016040526113ae9190810190612358565b6001600160a01b038416600090815260196020908152604090912082516113df9360019092019291909101906120ce565b50505050565b6003546000904210156113f85750600190565b6002546001600160a01b0316156114195761141161176a565b61141961141f565b50600090565b600280546001600160a01b031916815560006003819055600481905560058190556006819055611450600782612119565b61145e600683016000612119565b610996600783016000612119565b6000815161147a8484611586565b109392505050565b606060008060029054906101000a90046001600160a01b03166001600160a01b031663da3dce266040518163ffffffff1660e01b815260040160206040518083038186803b1580156114d357600080fd5b505afa1580156114e7573d6000803e3d6000fd5b505050506040513d601f19601f8201168201806040525081019061150b9190612244565b6001600160a01b03166388d44ee06040518163ffffffff1660e01b815260040160006040518083038186803b15801561154357600080fd5b505afa158015611557573d6000803e3d6000fd5b505050506040513d6000823e601f3d908101601f1916820160405261157f919081019061228d565b5092915050565b60405160016219125f60e01b0319815260009073__AddressLibrary________________________9063ffe6eda1906115c590869086906004016125ca565b60206040518083038186803b1580156115dd57600080fd5b505af41580156115f1573d6000803e3d6000fd5b505050506040513d601f19601f8201168201806040525081019061161591906123ce565b9392505050565b60045460055411156116d057600e5460ff161561166e57600c54600a55600d54600b805461010080840460ff90811690910261ffff1990921693169290921791909117905561166961174e565b611676565b611676611a64565b61167e61141f565b6002546005546006546040516001600160a01b03909316927fbb4a143bf102bd92f1fc843143d4bc606c5dd8a33007056e8cb04be789a501d1926116c692909160099061282d565b60405180910390a2565b600454600654111561174c57600e5460ff16156116f4576116ef61174e565b6116fc565b6116fc61176a565b61170461141f565b6002546005546006546040516001600160a01b03909316927fb4adfa35dce9431d6091df92c3aef5aae35d508e2f071cc0d5cdc8480b741a51926116c692909160099061282d565b565b6000600c55600d805461ffff19169055600e805460ff19169055565b61174c611ad5565b600054610100900460ff168061178b575060005460ff16155b6117a75760405162461bcd60e51b815260040161031e9061275d565b600054610100900460ff161580156117c9576000805461ffff19166101011790555b6117d282611af0565b600180546001600160a01b0319166001600160a01b0385161781556117fc9087908790879061189c565b801561180e576000805461ff00191690555b505050505050565b8582808210156118385760405162461bcd60e51b815260040161031e906127c9565b821561185c5760148890556016879055601786905560158590556018849055611892565b611878600a544261186d9190612931565b600b5460ff16611b7e565b600f88905560108590556011879055601286905560138490555b5050505050505050565b82828160ff16606410156118c25760405162461bcd60e51b815260040161031e906127c9565b8060ff16606410156118e65760405162461bcd60e51b815260040161031e906127c9565b821561191157600a869055600b805460ff8681166101000261ffff199092169088161717905561180e565b600c869055600d805460ff8681166101000261ffff1990921690881617179055600e805460ff19166001179055600a5461180e9061186d9042612931565b6001600160a01b03831660009081526019602090815260408083208484529091529020546119a6576001600160a01b0383166000908152601960209081526040822060019081018054918201815583529120018190555b6001600160a01b0383166000908152601960209081526040808320848452909152812080548492906119d9908490612931565b9091555050505050565b6000806119ee611d20565b9150915060006119fc611e25565b905060005b8351811015610a6257611a52848281518110611a1f57611a1f6129e8565b602002602001015186858481518110611a3a57611a3a6129e8565b6020026020010151611a4c919061296b565b8461194f565b80611a5c816129a1565b915050611a01565b600f54601455601154601655601254601755601054601555601354601855611a8a611ad5565b7fbe8847d52fb3c03e3414e96d164a23594063f5b6cf01428e61c38bfbbc34ef19601454601654601754601554601854604051611acb9594939291906128bb565b60405180910390a1565b6000600f819055601081905560118190556012819055601355565b600054610100900460ff1680611b09575060005460ff16155b611b255760405162461bcd60e51b815260040161031e9061275d565b600054610100900460ff16158015611b47576000805461ffff19166101011790555b6000805462010000600160b01b031916620100006001600160a01b038516021790558015610996576000805461ff00191690555050565b6000611b886113e5565b15611bbe5760405162461bcd60e51b815260040161031e906020808252600490820152631150cc8d60e21b604082015260600190565b611bc733611f21565b1515600114611be85760405162461bcd60e51b815260040161031e9061273f565b611bf0611482565b8051611c049160079160209091019061213a565b50600754611c6f5760405162461bcd60e51b815260206004820152603260248201527f496d706f737369626c6520746f206164642070726f706f736974696f6e2c20746044820152716865726520617265206e6f2061646d696e7360701b606482015260840161031e565b600280546001600160a01b031916331790556003839055606460ff8316611c94611e25565b611c9e919061296b565b611ca89190612949565b600455611cb3611fd1565b8051611cc7916008916020909101906120ce565b506002546003546004546040516001600160a01b03909316927f7ec97bdcf80d0b85a7cccd3b92c27116caaa95fa630cb01fac8243b7cdbd9c1692611d13929091600790600890612855565b60405180910390a2505050565b606080600060029054906101000a90046001600160a01b03166001600160a01b031663da3dce266040518163ffffffff1660e01b815260040160206040518083038186803b158015611d7157600080fd5b505afa158015611d85573d6000803e3d6000fd5b505050506040513d601f19601f82011682018060405250810190611da99190612244565b6001600160a01b03166388d44ee06040518163ffffffff1660e01b815260040160006040518083038186803b158015611de157600080fd5b505afa158015611df5573d6000803e3d6000fd5b505050506040513d6000823e601f3d908101601f19168201604052611e1d919081019061228d565b915091509091565b60008060029054906101000a90046001600160a01b03166001600160a01b031663da3dce266040518163ffffffff1660e01b815260040160206040518083038186803b158015611e7457600080fd5b505afa158015611e88573d6000803e3d6000fd5b505050506040513d601f19601f82011682018060405250810190611eac9190612244565b6001600160a01b03166318160ddd6040518163ffffffff1660e01b815260040160206040518083038186803b158015611ee457600080fd5b505afa158015611ef8573d6000803e3d6000fd5b505050506040513d601f19601f82011682018060405250810190611f1c91906123ce565b905090565b6001546000906001600160a01b0316331415611f3f57506001919050565b6000611f49611482565b90506000611f55611fd1565b90506000611f638584611586565b90508251811015611fc1576064611f78611e25565b600b54611f8d9190610100900460ff1661296b565b611f979190612949565b828281518110611fa957611fa96129e8565b602002602001015110611fc157506001949350505050565b506000949350505050565b919050565b606060008060029054906101000a90046001600160a01b03166001600160a01b031663da3dce266040518163ffffffff1660e01b815260040160206040518083038186803b15801561202257600080fd5b505afa158015612036573d6000803e3d6000fd5b505050506040513d601f19601f8201168201806040525081019061205a9190612244565b6001600160a01b03166388d44ee06040518163ffffffff1660e01b815260040160006040518083038186803b15801561209257600080fd5b505afa1580156120a6573d6000803e3d6000fd5b505050506040513d6000823e601f3d908101601f19168201604052611615919081019061228d565b828054828255906000526020600020908101928215612109579160200282015b828111156121095782518255916020019190600101906120ee565b5061211592915061218f565b5090565b5080546000825590600052602060002090810190612137919061218f565b50565b828054828255906000526020600020908101928215612109579160200282015b8281111561210957825182546001600160a01b0319166001600160a01b0390911617825560209092019160019091019061215a565b5b808211156121155760008155600101612190565b600082601f8301126121b557600080fd5b815160206121ca6121c58361290e565b6128de565b80838252828201915082860187848660051b89010111156121ea57600080fd5b60005b85811015612209578151845292840192908401906001016121ed565b5090979650505050505050565b803560ff81168114611fcc57600080fd5b60006020828403121561223957600080fd5b813561161581612a14565b60006020828403121561225657600080fd5b815161161581612a14565b6000806040838503121561227457600080fd5b823561227f81612a14565b946020939093013593505050565b600080604083850312156122a057600080fd5b82516001600160401b03808211156122b757600080fd5b818501915085601f8301126122cb57600080fd5b815160206122db6121c58361290e565b8083825282820191508286018a848660051b89010111156122fb57600080fd5b600096505b8487101561232757805161231381612a14565b835260019690960195918301918301612300565b509188015191965090935050508082111561234157600080fd5b5061234e858286016121a4565b9150509250929050565b60006020828403121561236a57600080fd5b81516001600160401b0381111561238057600080fd5b61238c848285016121a4565b949350505050565b6000602082840312156123a657600080fd5b813561161581612a29565b6000602082840312156123c357600080fd5b815161161581612a29565b6000602082840312156123e057600080fd5b5051919050565b6000602082840312156123f957600080fd5b81356004811061161557600080fd5b60006020828403121561241a57600080fd5b5035919050565b600080600080600060a0868803121561243957600080fd5b505083359560208501359550604085013594606081013594506080013592509050565b60008060008060008060008060006101208a8c03121561247b57600080fd5b8935985060208a0135975060408a0135965060608a0135955060808a0135945060a08a01356124a981612a14565b935060c08a013592506124be60e08b01612216565b91506124cd6101008b01612216565b90509295985092959850929598565b6000806000606084860312156124f157600080fd5b8335925061250160208501612216565b915061250f60408501612216565b90509250925092565b600081518084526020808501945080840160005b838110156125515781516001600160a01b03168752958201959082019060010161252c565b509495945050505050565b6000815480845260208085019450836000528060002060005b838110156125515781546001600160a01b031687529582019560019182019101612575565b600081518084526020808501945080840160005b83811015612551578151875295820195908201906001016125ae565b6001600160a01b038381168252604060208084018290528451918401829052600092858201929091906060860190855b818110156126185785518516835294830194918301916001016125fa565b509098975050505050505050565b60006040820160018060a01b03808616845260206040818601528286548085526060870191508760005282600020945060005b81811015612618578554851683526001958601959284019201612659565b600061010060018060a01b038b1683528960208401528860408401528760608401528660808401528060a08401526126b181840187612518565b905082810360c08401526126c5818661259a565b905082810360e08401526126d98185612518565b9b9a5050505050505050505050565b6020808252825182820181905260009190848201906040850190845b8181101561272057835183529284019291840191600101612704565b50909695505050505050565b602081526000611615602083018461259a565b60208082526004908201526322a1991960e11b604082015260600190565b6020808252602e908201527f496e697469616c697a61626c653a20636f6e747261637420697320616c72656160408201526d191e481a5b9a5d1a585b1a5e995960921b606082015260800190565b6020808252600490820152634543323560e01b604082015260600190565b6020808252600490820152634543323160e01b604082015260600190565b60006040820184835260206040818501528185548084526060860191508660005282600020935060005b8181101561220957845483526001948501949284019201612811565b83815282602082015260606040820152600061284c606083018461255c565b95945050505050565b84815260006020858184015260806040840152612875608084018661255c565b83810360608501528454808252600086815283812092840191905b818110156128ac57835483526001938401939285019201612890565b50909998505050505050505050565b948552602085019390935260408401919091526060830152608082015260a00190565b604051601f8201601f191681016001600160401b0381118282101715612906576129066129fe565b604052919050565b60006001600160401b03821115612927576129276129fe565b5060051b60200190565b60008219821115612944576129446129bc565b500190565b60008261296657634e487b7160e01b600052601260045260246000fd5b500490565b6000816000190483118215151615612985576129856129bc565b500290565b60008282101561299c5761299c6129bc565b500390565b60006000198214156129b5576129b56129bc565b5060010190565b634e487b7160e01b600052601160045260246000fd5b634e487b7160e01b600052602160045260246000fd5b634e487b7160e01b600052603260045260246000fd5b634e487b7160e01b600052604160045260246000fd5b6001600160a01b038116811461213757600080fd5b801515811461213757600080fdfea2646970667358221220e22b89d0d3f9033856e5d2de99aaf4203bae351d47d0344d9ffb08fb458f8fc664736f6c63430008060033",
  "immutableReferences": {},
  "source": "// SPDX-License-Identifier: GPL-3.0\r\n\r\npragma solidity >=0.7.0 <0.9.0;\r\n\r\n/**\r\n * @title Storage\r\n * @dev Store & retrieve value in a variable\r\n */\r\n\r\nimport \"../Interfaces/ITreasury.sol\";\r\nimport \"../Libraries/UintLibrary.sol\";\r\nimport \"../Libraries/Library.sol\";\r\nimport \"../Base/TokenGovernanceBaseContract.sol\";\r\n\r\n\r\ncontract Treasury is ITreasury, TokenGovernanceBaseContract{\r\n    using Library for *;\r\n    using UintLibrary for *;\r\n\r\n    // EVENTS /////////////////////////////////////////\r\n    event _NewPrices(uint, uint, uint, uint, uint);\r\n    event _Pay(address indexed, uint);\r\n    event _Refund(address indexed, uint);\r\n    event _Withdraw(address indexed, uint);\r\n\r\n    // DATA /////////////////////////////////////////\r\n    // proposition to change prices\r\n    struct ProposedPricesStruct{\r\n        uint NewPublicPriceWei;\r\n        uint NewCertificatePriceWei;\r\n        uint NewPrivatePriceWei;\r\n        uint NewProviderPriceWei;\r\n        uint NewOwnerRefundPriceWei;\r\n    }\r\n\r\n    ProposedPricesStruct _ProposedPrices;\r\n\r\n    // parameters\r\n    uint _PublicPriceWei;\r\n    uint _CertificatePriceWei;\r\n    uint _PrivatePriceWei;\r\n    uint _ProviderPriceWei;\r\n    uint _OwnerRefundPriceWei;\r\n\r\n    // dividends per token owner\r\n    struct _BalanceStruct{\r\n        mapping(uint => uint) _balance;\r\n        uint[] _factors;\r\n    }\r\n    \r\n    mapping(address => _BalanceStruct) _balances;\r\n\r\n    // MODIFIERS /////////////////////////////////////////\r\n    modifier areFundsEnough(Library.Prices price){\r\n        uint256 minPrice = 2**256 - 1;\r\n\r\n        if(Library.Prices.NewProvider == price) minPrice = _PublicPriceWei;\r\n        else if(Library.Prices.NewPool == price) minPrice = _PrivatePriceWei;\r\n        else if(Library.Prices.NewCertificate == price) minPrice = _CertificatePriceWei;\r\n        else minPrice = _ProviderPriceWei;\r\n\r\n        require(msg.value >= minPrice, \"EC2\");\r\n        _;\r\n    }\r\n\r\n    modifier isBalanceEnough(uint amount){\r\n        require(checkBalance(msg.sender) >= amount, \"EC20\");\r\n        _;\r\n    }\r\n\r\n    modifier isFromPublicPool(){\r\n        require(true == Library.ItIsSomeone(_managerContract.retrievePublicCertificatePoolProxy()), \"EC8\");\r\n        _;\r\n    }\r\n\r\n    modifier isPriceOK(uint256 PublicPriceWei, uint256 OwnerRefundPriceWei){\r\n        require(PublicPriceWei >= OwnerRefundPriceWei, \"EC21\");\r\n        _;\r\n    }\r\n\r\n    \r\n    // CONSTRUCTOR /////////////////////////////////////////\r\n    function Treasury_init(uint256 PublicPriceWei, uint256 PrivatePriceWei, uint256 ProviderPriceWei, uint256 CertificatePriceWei, uint256 OwnerRefundPriceWei, address managerContractAddress, uint256 PropositionLifeTime, uint8 PropositionThresholdPercentage, uint8 minWeightToProposePercentage) public initializer \r\n    {\r\n        super.TokenGovernanceContract_init(PropositionLifeTime, PropositionThresholdPercentage, minWeightToProposePercentage, msg.sender, managerContractAddress);\r\n        InternalupdatePrices(PublicPriceWei, PrivatePriceWei, ProviderPriceWei, CertificatePriceWei, OwnerRefundPriceWei, true);\r\n    }\r\n\r\n\r\n    // GOVERNANCE /////////////////////////////////////////\r\n    function updatePrices(uint256 PublicPriceWei, uint256 PrivatePriceWei, uint256 ProviderPriceWei, uint256 CertificatePriceWei, uint256 OwnerRefundPriceWei) external override\r\n    {\r\n        InternalupdatePrices(PublicPriceWei, PrivatePriceWei, ProviderPriceWei, CertificatePriceWei, OwnerRefundPriceWei, false);\r\n    }\r\n\r\n    function InternalupdatePrices(uint256 PublicPriceWei, uint256 PrivatePriceWei, uint256 ProviderPriceWei, uint256 CertificatePriceWei, uint256 OwnerRefundPriceWei, bool fromConstructor) internal\r\n        isPriceOK(PublicPriceWei, OwnerRefundPriceWei)\r\n    {\r\n        if(fromConstructor){\r\n            _PublicPriceWei = PublicPriceWei;\r\n            _PrivatePriceWei = PrivatePriceWei;\r\n            _ProviderPriceWei = ProviderPriceWei;\r\n            _CertificatePriceWei = CertificatePriceWei;\r\n            _OwnerRefundPriceWei = OwnerRefundPriceWei;\r\n        }\r\n        else{\r\n            addProposition(block.timestamp + _PropositionLifeTime, _PropositionThresholdPercentage);\r\n            _ProposedPrices.NewPublicPriceWei = PublicPriceWei;\r\n            _ProposedPrices.NewCertificatePriceWei = CertificatePriceWei;\r\n            _ProposedPrices.NewPrivatePriceWei = PrivatePriceWei;\r\n            _ProposedPrices.NewProviderPriceWei = ProviderPriceWei;\r\n            _ProposedPrices.NewOwnerRefundPriceWei = OwnerRefundPriceWei;\r\n        }\r\n        \r\n    }\r\n\r\n    function propositionApproved() internal override\r\n    {\r\n        _PublicPriceWei = _ProposedPrices.NewPublicPriceWei;\r\n        _PrivatePriceWei = _ProposedPrices.NewPrivatePriceWei;\r\n        _ProviderPriceWei = _ProposedPrices.NewProviderPriceWei;\r\n        _CertificatePriceWei = _ProposedPrices.NewCertificatePriceWei;\r\n        _OwnerRefundPriceWei = _ProposedPrices.NewOwnerRefundPriceWei;\r\n        \r\n        removeProposition();\r\n\r\n        emit _NewPrices(_PublicPriceWei, _PrivatePriceWei, _ProviderPriceWei, _CertificatePriceWei, _OwnerRefundPriceWei);\r\n    }\r\n\r\n    function propositionRejected() internal override\r\n    {\r\n        removeProposition();\r\n    }\r\n\r\n    function propositionExpired() internal override\r\n    {\r\n        removeProposition();\r\n    }\r\n\r\n    function removeProposition() internal\r\n    {\r\n         delete(_ProposedPrices);\r\n    }\r\n\r\n    function retrieveProposition() external override view returns(bytes32[] memory)\r\n    {\r\n        bytes32[] memory proposition = new bytes32[](5);\r\n        proposition[0] = UintLibrary.UintToBytes32(_ProposedPrices.NewPublicPriceWei);\r\n        proposition[1] = UintLibrary.UintToBytes32(_ProposedPrices.NewPrivatePriceWei);\r\n        proposition[2] = UintLibrary.UintToBytes32(_ProposedPrices.NewProviderPriceWei);\r\n        proposition[3] = UintLibrary.UintToBytes32(_ProposedPrices.NewCertificatePriceWei);\r\n        proposition[4] = UintLibrary.UintToBytes32(_ProposedPrices.NewOwnerRefundPriceWei);\r\n        return proposition;\r\n    }\r\n\r\n    // FUNCTIONALITY /////////////////////////////////////////\r\n    function pay(Library.Prices price) external \r\n        areFundsEnough(price)\r\n    override payable\r\n    {\r\n        uint256 amount = msg.value;\r\n        if(price == Library.Prices.NewProvider) amount -= _OwnerRefundPriceWei;\r\n        AssignDividends(amount);\r\n\r\n        emit _Pay(msg.sender, msg.value);\r\n    }\r\n\r\n    function AssignDividends(uint256 amount) internal\r\n    {\r\n        (address[] memory DividendsRecipients, uint256[] memory DividendsRecipientsTokens) = GetTokenOwners();\r\n        uint256 TotalTokenSupply = totalSupply();\r\n\r\n        for(uint i=0; i < DividendsRecipients.length; i++){\r\n            addBalance(DividendsRecipients[i], DividendsRecipientsTokens[i] * amount, TotalTokenSupply);\r\n        }\r\n\r\n    }\r\n\r\n    function getRefund(address addr, uint numberOfOwners) external \r\n        isFromPublicPool()\r\n    override\r\n    {\r\n        addBalance(addr, _OwnerRefundPriceWei, numberOfOwners);\r\n\r\n        emit _Refund(addr, numberOfOwners);\r\n    }\r\n\r\n    function withdraw(uint amount) external \r\n        isBalanceEnough(amount)\r\n    override\r\n    {\r\n        uint[] memory f = returnFactors(msg.sender);\r\n        uint total = 0;\r\n        uint i = 0;\r\n\r\n        while ((total < amount) && (i < f.length)){\r\n            uint amountForFactor = returnBalanceForFactor(msg.sender, f[i]) / f[i];\r\n            if(amountForFactor > (amount - total)) amountForFactor = amount - total;\r\n            total += amountForFactor;\r\n            substractBalance(msg.sender, amountForFactor * f[i], f[i]);\r\n            i++;\r\n        }\r\n\r\n        require(total == amount, \"UnExpected problem calculating the amount to withdraw\");\r\n\r\n        payable(msg.sender).transfer(total);\r\n\r\n        emit _Withdraw(msg.sender, total);\r\n    }\r\n\r\n    function retrieveBalance(address addr) external override view returns(uint)\r\n    {\r\n        return checkBalance(addr);\r\n    }\r\n\r\n    function retrievePrices() external override view returns(uint, uint, uint, uint, uint)\r\n    {\r\n        return(_PublicPriceWei, _PrivatePriceWei, _ProviderPriceWei, _CertificatePriceWei, _OwnerRefundPriceWei);\r\n    }\r\n\r\n    function checkBalance(address addr) internal view returns(uint){\r\n        uint[] memory f = returnFactors(addr);\r\n        uint total = 0;\r\n\r\n        for(uint i=0; i < f.length; i++){\r\n            total += returnBalanceForFactor(addr, f[i]) / f[i];\r\n        }\r\n\r\n        return total;\r\n    }\r\n\r\n    function returnFactors(address addr) public view returns(uint[] memory){\r\n        return _balances[addr]._factors;\r\n    }\r\n\r\n    function returnBalanceForFactor(address addr, uint factor) public view returns(uint){\r\n        return _balances[addr]._balance[factor];\r\n    }\r\n\r\n    function addBalance(address addr, uint amount, uint factor) private\r\n    {\r\n        if(0 == _balances[addr]._balance[factor]){\r\n             _balances[addr]._factors.push(factor);\r\n        }\r\n\r\n       _balances[addr]._balance[factor] += amount;\r\n    }\r\n\r\n    function substractBalance(address addr, uint amount, uint factor) private\r\n    {\r\n        require(_balances[addr]._balance[factor] >= amount, \"Not enough balance for this factor\");\r\n\r\n        _balances[addr]._balance[factor] -= amount;\r\n\r\n        if(0 == _balances[addr]._balance[factor]){\r\n            _balances[addr]._factors = UintLibrary.UintArrayRemoveResize(UintLibrary.FindUintPosition(factor, _balances[addr]._factors), _balances[addr]._factors);\r\n        }\r\n        \r\n    }\r\n\r\n}",
  "sourcePath": "C:/Users/d-aam/GitHub/Certificates/contracts/DeployedContracts/Treasury.sol",
  "compiler": {
    "name": "solc",
    "version": "0.8.6+commit.11564f7e.Emscripten.clang"
  },
  "schemaVersion": "3.3.4",
  "updatedAt": "2021-08-10T11:52:15.005Z",
  "devdoc": {
    "kind": "dev",
    "methods": {},
    "version": 1
  },
  "userdoc": {
    "kind": "user",
    "methods": {},
    "version": 1
  }
}