{
  "contractName": "UintLibrary",
  "abi": [
    {
      "inputs": [
        {
          "internalType": "uint256",
          "name": "value",
          "type": "uint256"
        },
        {
          "internalType": "uint256[]",
          "name": "list",
          "type": "uint256[]"
        }
      ],
      "name": "FindUintPosition",
      "outputs": [
        {
          "internalType": "uint256",
          "name": "",
          "type": "uint256"
        }
      ],
      "stateMutability": "pure",
      "type": "function"
    },
    {
      "inputs": [
        {
          "internalType": "uint256",
          "name": "index",
          "type": "uint256"
        },
        {
          "internalType": "uint256[]",
          "name": "array",
          "type": "uint256[]"
        }
      ],
      "name": "UintArrayRemoveResize",
      "outputs": [
        {
          "internalType": "uint256[]",
          "name": "",
          "type": "uint256[]"
        }
      ],
      "stateMutability": "pure",
      "type": "function"
    }
  ],
  "bytecode": "0x6105b361003a600b82828239805160001a60731461002d57634e487b7160e01b600052600060045260246000fd5b30600052607381538281f3fe73000000000000000000000000000000000000000030146080604052600436106100405760003560e01c806302fbee9e14610045578063c5fc6b021461006e575b600080fd5b610058610053366004610380565b61008f565b6040516100659190610423565b60405180910390f35b61008161007c366004610380565b610137565b604051908152602001610065565b606061012e73__Library_______________________________635b28cf63856100b88661014b565b6040518363ffffffff1660e01b81526004016100d5929190610467565b60006040518083038186803b1580156100ed57600080fd5b505af4158015610101573d6000803e3d6000fd5b505050506040513d6000823e601f3d908101601f1916820160405261012991908101906102e4565b6101f6565b90505b92915050565b600061012e836101468461014b565b61028f565b6060600082516001600160401b0381111561016857610168610567565b604051908082528060200260200182016040528015610191578160200160208202803683370190505b50905060005b81518110156101ef576101c08482815181106101b5576101b5610551565b602002602001015190565b8282815181106101d2576101d2610551565b6020908102919091010152806101e781610520565b915050610197565b5092915050565b6060600082516001600160401b0381111561021357610213610567565b60405190808252806020026020018201604052801561023c578160200160208202803683370190505b50905060005b81518110156101ef576102608482815181106101b5576101b5610551565b82828151811061027257610272610551565b60209081029190910101528061028781610520565b915050610242565b6000805b82518110156102d6578281815181106102ae576102ae610551565b60200260200101518414156102c4579050610131565b806102ce81610520565b915050610293565b50815161012e906001610508565b600060208083850312156102f757600080fd5b82516001600160401b0381111561030d57600080fd5b8301601f8101851361031e57600080fd5b805161033161032c826104e5565b6104b5565b80828252848201915084840188868560051b870101111561035157600080fd5b600094505b83851015610374578051835260019490940193918501918501610356565b50979650505050505050565b6000806040838503121561039357600080fd5b823591506020808401356001600160401b038111156103b157600080fd5b8401601f810186136103c257600080fd5b80356103d061032c826104e5565b80828252848201915084840189868560051b87010111156103f057600080fd5b600094505b838510156104135780358352600194909401939185019185016103f5565b5080955050505050509250929050565b6020808252825182820181905260009190848201906040850190845b8181101561045b5783518352928401929184019160010161043f565b50909695505050505050565b6000604082018483526020604081850152818551808452606086019150828701935060005b818110156104a85784518352938301939183019160010161048c565b5090979650505050505050565b604051601f8201601f191681016001600160401b03811182821017156104dd576104dd610567565b604052919050565b60006001600160401b038211156104fe576104fe610567565b5060051b60200190565b6000821982111561051b5761051b61053b565b500190565b60006000198214156105345761053461053b565b5060010190565b634e487b7160e01b600052601160045260246000fd5b634e487b7160e01b600052603260045260246000fd5b634e487b7160e01b600052604160045260246000fdfea2646970667358221220baaa1effe859c1e48f52685f180b66adbac5f25bd451263ea0ca6e5c4573a3c164736f6c63430008060033",
  "immutableReferences": {},
  "source": "// SPDX-License-Identifier: GPL-3.0\r\n\r\npragma solidity >=0.7.0 <0.9.0;\r\npragma experimental ABIEncoderV2;\r\n\r\n/**\r\n * @title Storage\r\n * @dev Store & retrieve value in a variable\r\n */\r\n\r\nimport \"./Library.sol\";\r\n\r\nlibrary UintLibrary{\r\n    using Library for *;\r\n\r\n    // auxiliary functions\r\n\r\n    function FindUintPosition(uint value, uint[] memory list) public pure returns (uint){\r\n        return Library.FindPosition(bytes32(value), UintArrayToBytes(list));\r\n    }\r\n\r\n    function UintArrayRemoveResize(uint index, uint[] memory array) public \r\n    pure returns(uint[] memory) \r\n    {\r\n        return BytesArrayToUint(Library.ArrayRemoveResize(index, UintArrayToBytes(array)));\r\n    }\r\n\r\n    function UintArrayToBytes(uint[] memory array) internal pure returns(bytes32[] memory){\r\n        bytes32[] memory arrayInBytes = new bytes32[](array.length);\r\n\r\n        for(uint i=0; i < arrayInBytes.length; i++){\r\n            arrayInBytes[i] = UintToBytes(array[i]);\r\n        }\r\n\r\n        return arrayInBytes;\r\n    }\r\n\r\n    function UintToBytes(uint element) internal pure returns(bytes32){\r\n        return bytes32(element);\r\n    }\r\n\r\n    function BytesArrayToUint(bytes32[] memory array) internal pure returns(uint[] memory){\r\n        uint[] memory arrayInUint = new uint[](array.length);\r\n\r\n        for(uint i=0; i < arrayInUint.length; i++){\r\n            arrayInUint[i] = BytesToUint(array[i]);\r\n        }\r\n\r\n        return arrayInUint;\r\n    }\r\n\r\n    function BytesToUint(bytes32 element) internal pure returns(uint){\r\n        return uint256(element);\r\n    }\r\n\r\n    function UintToString(uint element) internal pure returns(string memory){\r\n        return Library.BytesToString(UintToBytes(element));\r\n    }\r\n\r\n}",
  "sourcePath": "C:\\Users\\d-aam\\GitHub\\Certificates\\contracts\\Libraries\\UintLibrary.sol",
  "compiler": {
    "name": "solc",
    "version": "0.8.6+commit.11564f7e.Emscripten.clang"
  },
  "schemaVersion": "3.3.4",
  "updatedAt": "2021-07-26T09:36:09.817Z",
  "devdoc": {
    "kind": "dev",
    "methods": {},
    "version": 1
  },
  "userdoc": {
    "kind": "user",
    "methods": {},
    "version": 1
  }
}