{
  "contractName": "UintLibrary",
  "abi": [
    {
      "inputs": [
        {
          "internalType": "uint256",
          "name": "value",
          "type": "uint256"
        },
        {
          "internalType": "uint256[]",
          "name": "list",
          "type": "uint256[]"
        }
      ],
      "name": "FindUintPosition",
      "outputs": [
        {
          "internalType": "uint256",
          "name": "",
          "type": "uint256"
        }
      ],
      "stateMutability": "pure",
      "type": "function"
    },
    {
      "inputs": [
        {
          "internalType": "uint256",
          "name": "index",
          "type": "uint256"
        },
        {
          "internalType": "uint256[]",
          "name": "array",
          "type": "uint256[]"
        }
      ],
      "name": "UintArrayRemoveResize",
      "outputs": [
        {
          "internalType": "uint256[]",
          "name": "",
          "type": "uint256[]"
        }
      ],
      "stateMutability": "pure",
      "type": "function"
    },
    {
      "inputs": [
        {
          "internalType": "uint256[]",
          "name": "array",
          "type": "uint256[]"
        }
      ],
      "name": "UintArrayToBytes32Array",
      "outputs": [
        {
          "internalType": "bytes32[]",
          "name": "",
          "type": "bytes32[]"
        }
      ],
      "stateMutability": "pure",
      "type": "function"
    },
    {
      "inputs": [
        {
          "internalType": "uint256",
          "name": "element",
          "type": "uint256"
        }
      ],
      "name": "UintToBytes32",
      "outputs": [
        {
          "internalType": "bytes32",
          "name": "",
          "type": "bytes32"
        }
      ],
      "stateMutability": "pure",
      "type": "function"
    },
    {
      "inputs": [
        {
          "internalType": "bytes32[]",
          "name": "array",
          "type": "bytes32[]"
        }
      ],
      "name": "Bytes32ArrayToUintArray",
      "outputs": [
        {
          "internalType": "uint256[]",
          "name": "",
          "type": "uint256[]"
        }
      ],
      "stateMutability": "pure",
      "type": "function"
    },
    {
      "inputs": [
        {
          "internalType": "bytes32",
          "name": "element",
          "type": "bytes32"
        }
      ],
      "name": "Bytes32ToUint",
      "outputs": [
        {
          "internalType": "uint256",
          "name": "",
          "type": "uint256"
        }
      ],
      "stateMutability": "pure",
      "type": "function"
    }
  ],
  "bytecode": "0x61074861003a600b82828239805160001a60731461002d57634e487b7160e01b600052600060045260246000fd5b30600052607381538281f3fe730000000000000000000000000000000000000000301460806040526004361061006c5760003560e01c806302fbee9e146100715780630bd4715e1461009a578063758b1ada146100b9578063b1ab8cb81461009a578063c5fc6b02146100d9578063d86b7a60146100ec575b600080fd5b61008461007f366004610579565b6100ff565b604051610091919061060d565b60405180910390f35b6100ab6100a8366004610547565b90565b604051908152602001610091565b6100cc6100c736600461050b565b6101a0565b60405161009191906105fa565b6100ab6100e7366004610579565b61024b565b6100846100fa3660046103e9565b6102de565b606061019973__Library_______________________________635b28cf6385610128866101a0565b6040518363ffffffff1660e01b8152600401610145929190610651565b60006040518083038186803b15801561015d57600080fd5b505af4158015610171573d6000803e3d6000fd5b505050506040513d6000823e601f3d908101601f191682016040526100fa9190810190610480565b9392505050565b6060600082516001600160401b038111156101bd576101bd6106fc565b6040519080825280602002602001820160405280156101e6578160200160208202803683370190505b50905060005b81518110156102445761021584828151811061020a5761020a6106e6565b602002602001015190565b828281518110610227576102276106e6565b60209081029190910101528061023c816106bd565b9150506101ec565b5092915050565b600073__Library_______________________________632b01313e84610271856101a0565b6040518363ffffffff1660e01b815260040161028e929190610651565b60206040518083038186803b1580156102a657600080fd5b505af41580156102ba573d6000803e3d6000fd5b505050506040513d601f19601f820116820180604052508101906101999190610560565b6060600082516001600160401b038111156102fb576102fb6106fc565b604051908082528060200260200182016040528015610324578160200160208202803683370190505b50905060005b81518110156102445761034884828151811061020a5761020a6106e6565b82828151811061035a5761035a6106e6565b60209081029190910101528061036f816106bd565b91505061032a565b600082601f83011261038857600080fd5b8135602061039d6103988361069a565b61066a565b80838252828201915082860187848660051b89010111156103bd57600080fd5b60005b858110156103dc578135845292840192908401906001016103c0565b5090979650505050505050565b600060208083850312156103fc57600080fd5b82356001600160401b0381111561041257600080fd5b8301601f8101851361042357600080fd5b80356104316103988261069a565b80828252848201915084840188868560051b870101111561045157600080fd5b600094505b83851015610474578035835260019490940193918501918501610456565b50979650505050505050565b6000602080838503121561049357600080fd5b82516001600160401b038111156104a957600080fd5b8301601f810185136104ba57600080fd5b80516104c86103988261069a565b80828252848201915084840188868560051b87010111156104e857600080fd5b600094505b838510156104745780518352600194909401939185019185016104ed565b60006020828403121561051d57600080fd5b81356001600160401b0381111561053357600080fd5b61053f84828501610377565b949350505050565b60006020828403121561055957600080fd5b5035919050565b60006020828403121561057257600080fd5b5051919050565b6000806040838503121561058c57600080fd5b8235915060208301356001600160401b038111156105a957600080fd5b6105b585828601610377565b9150509250929050565b600081518084526020808501945080840160005b838110156105ef578151875295820195908201906001016105d3565b509495945050505050565b60208152600061019960208301846105bf565b6020808252825182820181905260009190848201906040850190845b8181101561064557835183529284019291840191600101610629565b50909695505050505050565b82815260406020820152600061053f60408301846105bf565b604051601f8201601f191681016001600160401b0381118282101715610692576106926106fc565b604052919050565b60006001600160401b038211156106b3576106b36106fc565b5060051b60200190565b60006000198214156106df57634e487b7160e01b600052601160045260246000fd5b5060010190565b634e487b7160e01b600052603260045260246000fd5b634e487b7160e01b600052604160045260246000fdfea2646970667358221220ea667799a22e1d235388cc2f3da3ce0e79a0acb1893969cb8295d468555be74a64736f6c63430008060033",
  "immutableReferences": {},
  "source": "// SPDX-License-Identifier: GPL-3.0\r\n\r\npragma solidity >=0.7.0 <0.9.0;\r\npragma experimental ABIEncoderV2;\r\n\r\n/**\r\n * @title Storage\r\n * @dev Store & retrieve value in a variable\r\n */\r\n\r\nimport \"./Library.sol\";\r\n\r\nlibrary UintLibrary{\r\n    using Library for *;\r\n\r\n    // auxiliary functions\r\n\r\n    function FindUintPosition(uint value, uint[] memory list) public pure returns (uint){\r\n        return Library.FindPosition(bytes32(value), UintArrayToBytes32Array(list));\r\n    }\r\n\r\n    function UintArrayRemoveResize(uint index, uint[] memory array) public \r\n    pure returns(uint[] memory) \r\n    {\r\n        return Bytes32ArrayToUintArray(Library.ArrayRemoveResize(index, UintArrayToBytes32Array(array)));\r\n    }\r\n\r\n    function UintArrayToBytes32Array(uint[] memory array) public pure returns(bytes32[] memory){\r\n        bytes32[] memory arrayInBytes = new bytes32[](array.length);\r\n\r\n        for(uint i=0; i < arrayInBytes.length; i++){\r\n            arrayInBytes[i] = UintToBytes32(array[i]);\r\n        }\r\n\r\n        return arrayInBytes;\r\n    }\r\n\r\n    function UintToBytes32(uint element) public pure returns(bytes32){\r\n        return bytes32(element);\r\n    }\r\n\r\n    function Bytes32ArrayToUintArray(bytes32[] memory array) public pure returns(uint[] memory){\r\n        uint[] memory arrayInUint = new uint[](array.length);\r\n\r\n        for(uint i=0; i < arrayInUint.length; i++){\r\n            arrayInUint[i] = Bytes32ToUint(array[i]);\r\n        }\r\n\r\n        return arrayInUint;\r\n    }\r\n\r\n    function Bytes32ToUint(bytes32 element) public pure returns(uint){\r\n        return uint256(element);\r\n    }\r\n\r\n}",
  "sourcePath": "C:\\Users\\d-aam\\GitHub\\Certificates\\contracts\\Libraries\\UintLibrary.sol",
  "compiler": {
    "name": "solc",
    "version": "0.8.6+commit.11564f7e.Emscripten.clang"
  },
  "schemaVersion": "3.3.4",
  "updatedAt": "2021-08-06T11:43:03.453Z",
  "devdoc": {
    "kind": "dev",
    "methods": {},
    "version": 1
  },
  "userdoc": {
    "kind": "user",
    "methods": {},
    "version": 1
  }
}