{
  "contractName": "UintLibrary",
  "abi": [
    {
      "inputs": [
        {
          "internalType": "uint256",
          "name": "value",
          "type": "uint256"
        },
        {
          "internalType": "uint256[]",
          "name": "list",
          "type": "uint256[]"
        }
      ],
      "name": "FindUintPosition",
      "outputs": [
        {
          "internalType": "uint256",
          "name": "",
          "type": "uint256"
        }
      ],
      "stateMutability": "pure",
      "type": "function"
    },
    {
      "inputs": [
        {
          "internalType": "uint256",
          "name": "index",
          "type": "uint256"
        },
        {
          "internalType": "uint256[]",
          "name": "array",
          "type": "uint256[]"
        }
      ],
      "name": "UintArrayRemoveResize",
      "outputs": [
        {
          "internalType": "uint256[]",
          "name": "",
          "type": "uint256[]"
        }
      ],
      "stateMutability": "pure",
      "type": "function"
    }
  ],
  "bytecode": "0x6105b861003a600b82828239805160001a60731461002d57634e487b7160e01b600052600060045260246000fd5b30600052607381538281f3fe73000000000000000000000000000000000000000030146080604052600436106100405760003560e01c806302fbee9e14610045578063c5fc6b021461006e575b600080fd5b610058610053366004610385565b61008f565b6040516100659190610428565b60405180910390f35b61008161007c366004610385565b610137565b604051908152602001610065565b606061012e73__Library_______________________________635b28cf63856100b88661014b565b6040518363ffffffff1660e01b81526004016100d592919061046c565b60006040518083038186803b1580156100ed57600080fd5b505af4158015610101573d6000803e3d6000fd5b505050506040513d6000823e601f3d908101601f1916820160405261012991908101906102e9565b6101f3565b90505b92915050565b600061012e836101468461014b565b610294565b6060600082516001600160401b038111156101685761016861056c565b604051908082528060200260200182016040528015610191578160200160208202803683370190505b50905060005b81518110156101ec578381815181106101b2576101b2610556565b602002602001015160001b8282815181106101cf576101cf610556565b6020908102919091010152806101e481610525565b915050610197565b5092915050565b6060600082516001600160401b038111156102105761021061056c565b604051908082528060200260200182016040528015610239578160200160208202803683370190505b50905060005b81518110156101ec5783818151811061025a5761025a610556565b602002602001015160001c82828151811061027757610277610556565b60209081029190910101528061028c81610525565b91505061023f565b6000805b82518110156102db578281815181106102b3576102b3610556565b60200260200101518414156102c9579050610131565b806102d381610525565b915050610298565b50815161012e90600161050d565b600060208083850312156102fc57600080fd5b82516001600160401b0381111561031257600080fd5b8301601f8101851361032357600080fd5b8051610336610331826104ea565b6104ba565b80828252848201915084840188868560051b870101111561035657600080fd5b600094505b8385101561037957805183526001949094019391850191850161035b565b50979650505050505050565b6000806040838503121561039857600080fd5b823591506020808401356001600160401b038111156103b657600080fd5b8401601f810186136103c757600080fd5b80356103d5610331826104ea565b80828252848201915084840189868560051b87010111156103f557600080fd5b600094505b838510156104185780358352600194909401939185019185016103fa565b5080955050505050509250929050565b6020808252825182820181905260009190848201906040850190845b8181101561046057835183529284019291840191600101610444565b50909695505050505050565b6000604082018483526020604081850152818551808452606086019150828701935060005b818110156104ad57845183529383019391830191600101610491565b5090979650505050505050565b604051601f8201601f191681016001600160401b03811182821017156104e2576104e261056c565b604052919050565b60006001600160401b038211156105035761050361056c565b5060051b60200190565b6000821982111561052057610520610540565b500190565b600060001982141561053957610539610540565b5060010190565b634e487b7160e01b600052601160045260246000fd5b634e487b7160e01b600052603260045260246000fd5b634e487b7160e01b600052604160045260246000fdfea2646970667358221220c6260749332158e29a7029d72beba95815797e3bafd29acf8ab1ef52b272145764736f6c63430008060033",
  "immutableReferences": {},
  "source": "// SPDX-License-Identifier: GPL-3.0\r\n\r\npragma solidity >=0.7.0 <0.9.0;\r\npragma experimental ABIEncoderV2;\r\n\r\n/**\r\n * @title Storage\r\n * @dev Store & retrieve value in a variable\r\n */\r\n\r\nimport \"./Library.sol\";\r\n\r\nlibrary UintLibrary{\r\n    using Library for *;\r\n\r\n    // auxiliary functions\r\n\r\n    function FindUintPosition(uint value, uint[] memory list) public pure returns (uint){\r\n        return Library.FindPosition(bytes32(value), UintArrayToBytes(list));\r\n    }\r\n\r\n    function UintArrayRemoveResize(uint index, uint[] memory array) public \r\n    pure returns(uint[] memory) \r\n    {\r\n        return BytesArrayToUint(Library.ArrayRemoveResize(index, UintArrayToBytes(array)));\r\n    }\r\n\r\n    function UintArrayToBytes(uint[] memory array) internal pure returns(bytes32[] memory){\r\n        bytes32[] memory arrayInBytes = new bytes32[](array.length);\r\n\r\n        for(uint i=0; i < arrayInBytes.length; i++){\r\n            arrayInBytes[i] = bytes32(array[i]);\r\n        }\r\n\r\n        return arrayInBytes;\r\n    }\r\n\r\n    function BytesArrayToUint(bytes32[] memory array) internal pure returns(uint[] memory){\r\n        uint[] memory arrayInUint = new uint[](array.length);\r\n\r\n        for(uint i=0; i < arrayInUint.length; i++){\r\n            arrayInUint[i] = uint256(array[i]);\r\n        }\r\n\r\n        return arrayInUint;\r\n    }\r\n\r\n}",
  "sourcePath": "C:\\Users\\d-aam\\GitHub\\Certificates\\contracts\\Libraries\\UintLibrary.sol",
  "compiler": {
    "name": "solc",
    "version": "0.8.6+commit.11564f7e.Emscripten.clang"
  },
  "schemaVersion": "3.3.4",
  "updatedAt": "2021-07-23T08:25:14.199Z",
  "devdoc": {
    "kind": "dev",
    "methods": {},
    "version": 1
  },
  "userdoc": {
    "kind": "user",
    "methods": {},
    "version": 1
  }
}