{
  "contractName": "UintLibrary",
  "abi": [
    {
      "inputs": [
        {
          "internalType": "uint256",
          "name": "value",
          "type": "uint256"
        },
        {
          "internalType": "uint256[]",
          "name": "list",
          "type": "uint256[]"
        }
      ],
      "name": "FindUintPosition",
      "outputs": [
        {
          "internalType": "uint256",
          "name": "",
          "type": "uint256"
        }
      ],
      "stateMutability": "pure",
      "type": "function"
    },
    {
      "inputs": [
        {
          "internalType": "uint256[]",
          "name": "factors",
          "type": "uint256[]"
        }
      ],
      "name": "ProductOfFactors",
      "outputs": [
        {
          "internalType": "uint256",
          "name": "",
          "type": "uint256"
        }
      ],
      "stateMutability": "pure",
      "type": "function"
    },
    {
      "inputs": [
        {
          "internalType": "uint256",
          "name": "element",
          "type": "uint256"
        }
      ],
      "name": "UintToBytes32",
      "outputs": [
        {
          "internalType": "bytes32",
          "name": "",
          "type": "bytes32"
        }
      ],
      "stateMutability": "pure",
      "type": "function"
    },
    {
      "inputs": [
        {
          "internalType": "bytes32",
          "name": "element",
          "type": "bytes32"
        }
      ],
      "name": "Bytes32ToUint",
      "outputs": [
        {
          "internalType": "uint256",
          "name": "",
          "type": "uint256"
        }
      ],
      "stateMutability": "pure",
      "type": "function"
    }
  ],
  "bytecode": "0x61044761003a600b82828239805160001a60731461002d57634e487b7160e01b600052600060045260246000fd5b30600052607381538281f3fe73000000000000000000000000000000000000000030146080604052600436106100615760003560e01c80630bd4715e14610066578063b1ab8cb814610066578063c5fc6b0214610089578063cffd93cd1461009c578063f254becc146100be575b600080fd5b6100776100743660046102cf565b90565b60405190815260200160405180910390f35b6100776100973660046102e8565b6100d1565b8180156100a857600080fd5b506100bc6100b736600461032e565b61012f565b005b6100776100cc366004610293565b6101a4565b6000805b8251811015610118578281815181106100f0576100f06103e5565b6020026020010151841415610106579050610129565b806101108161039e565b9150506100d5565b508151610126906001610350565b90505b92915050565b8054819061013f90600190610387565b8154811061014f5761014f6103e5565b906000526020600020015481838154811061016c5761016c6103e5565b90600052602060002001819055508080548061018a5761018a6103cf565b600190038181906000526020600020016000905590555050565b60006001815b83518110156101ec578381815181106101c5576101c56103e5565b6020026020010151826101d89190610368565b9150806101e48161039e565b9150506101aa565b5092915050565b600082601f83011261020457600080fd5b813560206001600160401b0380831115610220576102206103fb565b8260051b604051601f19603f83011681018181108482111715610245576102456103fb565b6040528481528381019250868401828801850189101561026457600080fd5b600092505b85831015610287578035845292840192600192909201918401610269565b50979650505050505050565b6000602082840312156102a557600080fd5b81356001600160401b038111156102bb57600080fd5b6102c7848285016101f3565b949350505050565b6000602082840312156102e157600080fd5b5035919050565b600080604083850312156102fb57600080fd5b8235915060208301356001600160401b0381111561031857600080fd5b610324858286016101f3565b9150509250929050565b6000806040838503121561034157600080fd5b50508035926020909101359150565b60008219821115610363576103636103b9565b500190565b6000816000190483118215151615610382576103826103b9565b500290565b600082821015610399576103996103b9565b500390565b60006000198214156103b2576103b26103b9565b5060010190565b634e487b7160e01b600052601160045260246000fd5b634e487b7160e01b600052603160045260246000fd5b634e487b7160e01b600052603260045260246000fd5b634e487b7160e01b600052604160045260246000fdfea2646970667358221220f3973b3c2a4b0ce37191d9d3f1efc4da25c87b7f01308d6324da7aa7cb5469b964736f6c63430008070033",
  "immutableReferences": {},
  "source": "// SPDX-License-Identifier: GPL-3.0\r\n\r\npragma solidity 0.8.7;\r\n\r\n/**\r\n Uint data type common functionality\r\n */\r\n\r\nimport \"./Library.sol\";\r\n\r\nlibrary UintLibrary{\r\n    using Library for *;\r\n\r\n    // AUX FUNCTIONALITY /////////////////////////////////////////\r\n    function FindUintPosition(uint value, uint[] memory list) public pure returns (uint)\r\n    {\r\n        for(uint i=0; i < list.length; i++){\r\n            if(value == list[i]) return i;\r\n        }\r\n\r\n        return list.length + 1;\r\n    }\r\n\r\n    function ProductOfFactors(uint[] memory factors) public pure returns (uint)\r\n    {\r\n        uint result = 1;\r\n         for(uint i=0; i < factors.length; i++){\r\n            result = result * factors[i];\r\n        }\r\n\r\n        return result;\r\n    }\r\n\r\n    function UintArrayRemoveResize(uint index, uint[] storage array) public \r\n    {\r\n        array[index] = array[array.length - 1];\r\n        array.pop();\r\n    }\r\n\r\n    function UintToBytes32(uint element) public pure returns(bytes32)\r\n    {\r\n        return bytes32(element);\r\n    }\r\n\r\n    function Bytes32ToUint(bytes32 element) public pure returns(uint)\r\n    {\r\n        return uint256(element);\r\n    }\r\n\r\n}",
  "sourcePath": "C:\\Users\\d-aam\\GitHub\\Certificates\\contracts\\Libraries\\UintLibrary.sol",
  "compiler": {
    "name": "solc",
    "version": "0.8.7+commit.e28d00a7.Emscripten.clang"
  },
  "schemaVersion": "3.4.3",
  "updatedAt": "2022-01-17T12:39:36.751Z",
  "devdoc": {
    "kind": "dev",
    "methods": {},
    "version": 1
  },
  "userdoc": {
    "kind": "user",
    "methods": {},
    "version": 1
  }
}