{
  "contractName": "UintLibrary",
  "abi": [
    {
      "inputs": [
        {
          "internalType": "uint256",
          "name": "value",
          "type": "uint256"
        },
        {
          "internalType": "uint256[]",
          "name": "list",
          "type": "uint256[]"
        }
      ],
      "name": "FindUintPosition",
      "outputs": [
        {
          "internalType": "uint256",
          "name": "",
          "type": "uint256"
        }
      ],
      "stateMutability": "pure",
      "type": "function"
    },
    {
      "inputs": [
        {
          "internalType": "uint256[]",
          "name": "factors",
          "type": "uint256[]"
        }
      ],
      "name": "ProductOfFactors",
      "outputs": [
        {
          "internalType": "uint256",
          "name": "",
          "type": "uint256"
        }
      ],
      "stateMutability": "pure",
      "type": "function"
    },
    {
      "inputs": [
        {
          "internalType": "uint256",
          "name": "element",
          "type": "uint256"
        }
      ],
      "name": "UintToBytes32",
      "outputs": [
        {
          "internalType": "bytes32",
          "name": "",
          "type": "bytes32"
        }
      ],
      "stateMutability": "pure",
      "type": "function"
    },
    {
      "inputs": [
        {
          "internalType": "bytes32",
          "name": "element",
          "type": "bytes32"
        }
      ],
      "name": "Bytes32ToUint",
      "outputs": [
        {
          "internalType": "uint256",
          "name": "",
          "type": "uint256"
        }
      ],
      "stateMutability": "pure",
      "type": "function"
    },
    {
      "inputs": [
        {
          "internalType": "bytes32",
          "name": "element",
          "type": "bytes32"
        }
      ],
      "name": "Bytes32ToUint8",
      "outputs": [
        {
          "internalType": "uint8",
          "name": "",
          "type": "uint8"
        }
      ],
      "stateMutability": "pure",
      "type": "function"
    }
  ],
  "bytecode": "0x61047361003a600b82828239805160001a60731461002d57634e487b7160e01b600052600060045260246000fd5b30600052607381538281f3fe730000000000000000000000000000000000000000301460806040526004361061006c5760003560e01c80630bd4715e146100715780634d6550ed14610095578063b1ab8cb814610071578063c5fc6b02146100b5578063cffd93cd146100c8578063f254becc146100ea575b600080fd5b61008261007f3660046102fb565b90565b6040519081526020015b60405180910390f35b6100a361007f3660046102fb565b60405160ff909116815260200161008c565b6100826100c3366004610314565b6100fd565b8180156100d457600080fd5b506100e86100e336600461035a565b61015b565b005b6100826100f83660046102bf565b6101d0565b6000805b82518110156101445782818151811061011c5761011c610411565b6020026020010151841415610132579050610155565b8061013c816103ca565b915050610101565b50815161015290600161037c565b90505b92915050565b8054819061016b906001906103b3565b8154811061017b5761017b610411565b906000526020600020015481838154811061019857610198610411565b9060005260206000200181905550808054806101b6576101b66103fb565b600190038181906000526020600020016000905590555050565b60006001815b8351811015610218578381815181106101f1576101f1610411565b6020026020010151826102049190610394565b915080610210816103ca565b9150506101d6565b5092915050565b600082601f83011261023057600080fd5b813560206001600160401b038083111561024c5761024c610427565b8260051b604051601f19603f8301168101818110848211171561027157610271610427565b6040528481528381019250868401828801850189101561029057600080fd5b600092505b858310156102b3578035845292840192600192909201918401610295565b50979650505050505050565b6000602082840312156102d157600080fd5b81356001600160401b038111156102e757600080fd5b6102f38482850161021f565b949350505050565b60006020828403121561030d57600080fd5b5035919050565b6000806040838503121561032757600080fd5b8235915060208301356001600160401b0381111561034457600080fd5b6103508582860161021f565b9150509250929050565b6000806040838503121561036d57600080fd5b50508035926020909101359150565b6000821982111561038f5761038f6103e5565b500190565b60008160001904831182151516156103ae576103ae6103e5565b500290565b6000828210156103c5576103c56103e5565b500390565b60006000198214156103de576103de6103e5565b5060010190565b634e487b7160e01b600052601160045260246000fd5b634e487b7160e01b600052603160045260246000fd5b634e487b7160e01b600052603260045260246000fd5b634e487b7160e01b600052604160045260246000fdfea2646970667358221220d98dce2510b820a7a3c48c55360b25326713ba0845ead2c79c135a19d35521dd64736f6c63430008070033",
  "immutableReferences": {},
  "source": "// SPDX-License-Identifier: GPL-3.0\r\n\r\npragma solidity 0.8.7;\r\n\r\n/**\r\n Uint data type common functionality\r\n */\r\n\r\nimport \"./Library.sol\";\r\n\r\nlibrary UintLibrary{\r\n    using Library for *;\r\n\r\n    // AUX FUNCTIONALITY /////////////////////////////////////////\r\n    function FindUintPosition(uint value, uint[] memory list) public pure returns (uint)\r\n    {\r\n        for(uint i=0; i < list.length; i++){\r\n            if(value == list[i]) return i;\r\n        }\r\n\r\n        return list.length + 1;\r\n    }\r\n\r\n    function ProductOfFactors(uint[] memory factors) public pure returns (uint)\r\n    {\r\n        uint result = 1;\r\n         for(uint i=0; i < factors.length; i++){\r\n            result = result * factors[i];\r\n        }\r\n\r\n        return result;\r\n    }\r\n\r\n    function UintArrayRemoveResize(uint index, uint[] storage array) public \r\n    {\r\n        array[index] = array[array.length - 1];\r\n        array.pop();\r\n    }\r\n\r\n    function UintToBytes32(uint element) public pure returns(bytes32)\r\n    {\r\n        return bytes32(element);\r\n    }\r\n\r\n    function Bytes32ToUint(bytes32 element) public pure returns(uint)\r\n    {\r\n        return uint256(element);\r\n    }\r\n\r\n    function Bytes32ToUint8(bytes32 element) public pure returns(uint8)\r\n    {\r\n        return uint8(uint256(element));\r\n    }\r\n\r\n}",
  "sourcePath": "C:\\Users\\d-aam\\GitHub\\Certificates\\contracts\\Libraries\\UintLibrary.sol",
  "compiler": {
    "name": "solc",
    "version": "0.8.7+commit.e28d00a7.Emscripten.clang"
  },
  "schemaVersion": "3.4.3",
  "updatedAt": "2021-12-10T13:05:44.450Z",
  "devdoc": {
    "kind": "dev",
    "methods": {},
    "version": 1
  },
  "userdoc": {
    "kind": "user",
    "methods": {},
    "version": 1
  }
}