{
  "contractName": "UintLibrary",
  "abi": [
    {
      "inputs": [
        {
          "internalType": "uint256",
          "name": "value",
          "type": "uint256"
        },
        {
          "internalType": "uint256[]",
          "name": "list",
          "type": "uint256[]"
        }
      ],
      "name": "FindUintPosition",
      "outputs": [
        {
          "internalType": "uint256",
          "name": "",
          "type": "uint256"
        }
      ],
      "stateMutability": "pure",
      "type": "function"
    },
    {
      "inputs": [
        {
          "internalType": "uint256",
          "name": "index",
          "type": "uint256"
        },
        {
          "internalType": "uint256[]",
          "name": "array",
          "type": "uint256[]"
        }
      ],
      "name": "UintArrayRemoveResize",
      "outputs": [
        {
          "internalType": "uint256[]",
          "name": "",
          "type": "uint256[]"
        }
      ],
      "stateMutability": "pure",
      "type": "function"
    },
    {
      "inputs": [
        {
          "internalType": "uint256[]",
          "name": "array",
          "type": "uint256[]"
        }
      ],
      "name": "UintArrayToBytes",
      "outputs": [
        {
          "internalType": "bytes32[]",
          "name": "",
          "type": "bytes32[]"
        }
      ],
      "stateMutability": "pure",
      "type": "function"
    },
    {
      "inputs": [
        {
          "internalType": "uint256",
          "name": "element",
          "type": "uint256"
        }
      ],
      "name": "UintToBytes",
      "outputs": [
        {
          "internalType": "bytes32",
          "name": "",
          "type": "bytes32"
        }
      ],
      "stateMutability": "pure",
      "type": "function"
    },
    {
      "inputs": [
        {
          "internalType": "bytes32[]",
          "name": "array",
          "type": "bytes32[]"
        }
      ],
      "name": "BytesArrayToUint",
      "outputs": [
        {
          "internalType": "uint256[]",
          "name": "",
          "type": "uint256[]"
        }
      ],
      "stateMutability": "pure",
      "type": "function"
    },
    {
      "inputs": [
        {
          "internalType": "bytes32",
          "name": "element",
          "type": "bytes32"
        }
      ],
      "name": "BytesToUint",
      "outputs": [
        {
          "internalType": "uint256",
          "name": "",
          "type": "uint256"
        }
      ],
      "stateMutability": "pure",
      "type": "function"
    },
    {
      "inputs": [
        {
          "internalType": "uint256",
          "name": "element",
          "type": "uint256"
        }
      ],
      "name": "UintToString",
      "outputs": [
        {
          "internalType": "string",
          "name": "",
          "type": "string"
        }
      ],
      "stateMutability": "pure",
      "type": "function"
    }
  ],
  "bytecode": "0x6108f961003a600b82828239805160001a60731461002d57634e487b7160e01b600052600060045260246000fd5b30600052607381538281f3fe73000000000000000000000000000000000000000030146080604052600436106100775760003560e01c806302fbee9e1461007c5780631ca1eb7b146100a55780633e824f49146100b8578063439f31e4146100d8578063a76d54ff146100f7578063c5fc6b0214610117578063d3311e84146100d8575b600080fd5b61008f61008a3660046106c7565b61012a565b60405161009c919061075b565b60405180910390f35b61008f6100b33660046104a4565b6101cb565b6100cb6100c63660046105c6565b610276565b60405161009c9190610748565b6100e96100e6366004610602565b90565b60405190815260200161009c565b61010a610105366004610602565b61030f565b60405161009c91906107b8565b6100e96101253660046106c7565b61039f565b60606101c473__Library_______________________________635b28cf638561015386610276565b6040518363ffffffff1660e01b815260040161017092919061079f565b60006040518083038186803b15801561018857600080fd5b505af415801561019c573d6000803e3d6000fd5b505050506040513d6000823e601f3d908101601f191682016040526100b3919081019061053b565b9392505050565b6060600082516001600160401b038111156101e8576101e86108ad565b604051908082528060200260200182016040528015610211578160200160208202803683370190505b50905060005b815181101561026f5761024084828151811061023557610235610897565b602002602001015190565b82828151811061025257610252610897565b6020908102919091010152806102678161086e565b915050610217565b5092915050565b6060600082516001600160401b03811115610293576102936108ad565b6040519080825280602002602001820160405280156102bc578160200160208202803683370190505b50905060005b815181101561026f576102e084828151811061023557610235610897565b8282815181106102f2576102f2610897565b6020908102919091010152806103078161086e565b9150506102c2565b60405163587eda6560e01b81526004810182905260609073__Library_______________________________9063587eda659060240160006040518083038186803b15801561035d57600080fd5b505af4158015610371573d6000803e3d6000fd5b505050506040513d6000823e601f3d908101601f19168201604052610399919081019061061b565b92915050565b600073__Library_______________________________632b01313e846103c585610276565b6040518363ffffffff1660e01b81526004016103e292919061079f565b60206040518083038186803b1580156103fa57600080fd5b505af415801561040e573d6000803e3d6000fd5b505050506040513d601f19601f820116820180604052508101906101c491906106ae565b600082601f83011261044357600080fd5b813560206104586104538361081b565b6107eb565b80838252828201915082860187848660051b890101111561047857600080fd5b60005b858110156104975781358452928401929084019060010161047b565b5090979650505050505050565b600060208083850312156104b757600080fd5b82356001600160401b038111156104cd57600080fd5b8301601f810185136104de57600080fd5b80356104ec6104538261081b565b80828252848201915084840188868560051b870101111561050c57600080fd5b600094505b8385101561052f578035835260019490940193918501918501610511565b50979650505050505050565b6000602080838503121561054e57600080fd5b82516001600160401b0381111561056457600080fd5b8301601f8101851361057557600080fd5b80516105836104538261081b565b80828252848201915084840188868560051b87010111156105a357600080fd5b600094505b8385101561052f5780518352600194909401939185019185016105a8565b6000602082840312156105d857600080fd5b81356001600160401b038111156105ee57600080fd5b6105fa84828501610432565b949350505050565b60006020828403121561061457600080fd5b5035919050565b60006020828403121561062d57600080fd5b81516001600160401b038082111561064457600080fd5b818401915084601f83011261065857600080fd5b81518181111561066a5761066a6108ad565b61067d601f8201601f19166020016107eb565b915080825285602082850101111561069457600080fd5b6106a581602084016020860161083e565b50949350505050565b6000602082840312156106c057600080fd5b5051919050565b600080604083850312156106da57600080fd5b8235915060208301356001600160401b038111156106f757600080fd5b61070385828601610432565b9150509250929050565b600081518084526020808501945080840160005b8381101561073d57815187529582019590820190600101610721565b509495945050505050565b6020815260006101c4602083018461070d565b6020808252825182820181905260009190848201906040850190845b8181101561079357835183529284019291840191600101610777565b50909695505050505050565b8281526040602082015260006105fa604083018461070d565b60208152600082518060208401526107d781604085016020870161083e565b601f01601f19169190910160400192915050565b604051601f8201601f191681016001600160401b0381118282101715610813576108136108ad565b604052919050565b60006001600160401b03821115610834576108346108ad565b5060051b60200190565b60005b83811015610859578181015183820152602001610841565b83811115610868576000848401525b50505050565b600060001982141561089057634e487b7160e01b600052601160045260246000fd5b5060010190565b634e487b7160e01b600052603260045260246000fd5b634e487b7160e01b600052604160045260246000fdfea2646970667358221220ab442df820256ddc05a2a6a4a5d009dbd1f3d8a9dabeae4c1990f87f72f89d0364736f6c63430008060033",
  "immutableReferences": {},
  "source": "// SPDX-License-Identifier: GPL-3.0\r\n\r\npragma solidity >=0.7.0 <0.9.0;\r\npragma experimental ABIEncoderV2;\r\n\r\n/**\r\n * @title Storage\r\n * @dev Store & retrieve value in a variable\r\n */\r\n\r\nimport \"./Library.sol\";\r\n\r\nlibrary UintLibrary{\r\n    using Library for *;\r\n\r\n    // auxiliary functions\r\n\r\n    function FindUintPosition(uint value, uint[] memory list) public pure returns (uint){\r\n        return Library.FindPosition(bytes32(value), UintArrayToBytes(list));\r\n    }\r\n\r\n    function UintArrayRemoveResize(uint index, uint[] memory array) public \r\n    pure returns(uint[] memory) \r\n    {\r\n        return BytesArrayToUint(Library.ArrayRemoveResize(index, UintArrayToBytes(array)));\r\n    }\r\n\r\n    function UintArrayToBytes(uint[] memory array) public pure returns(bytes32[] memory){\r\n        bytes32[] memory arrayInBytes = new bytes32[](array.length);\r\n\r\n        for(uint i=0; i < arrayInBytes.length; i++){\r\n            arrayInBytes[i] = UintToBytes(array[i]);\r\n        }\r\n\r\n        return arrayInBytes;\r\n    }\r\n\r\n    function UintToBytes(uint element) public pure returns(bytes32){\r\n        return bytes32(element);\r\n    }\r\n\r\n    function BytesArrayToUint(bytes32[] memory array) public pure returns(uint[] memory){\r\n        uint[] memory arrayInUint = new uint[](array.length);\r\n\r\n        for(uint i=0; i < arrayInUint.length; i++){\r\n            arrayInUint[i] = BytesToUint(array[i]);\r\n        }\r\n\r\n        return arrayInUint;\r\n    }\r\n\r\n    function BytesToUint(bytes32 element) public pure returns(uint){\r\n        return uint256(element);\r\n    }\r\n\r\n    function UintToString(uint element) public pure returns(string memory){\r\n        return Library.BytesToString(UintToBytes(element));\r\n    }\r\n\r\n}",
  "sourcePath": "C:\\Users\\d-aam\\GitHub\\Certificates\\contracts\\Libraries\\UintLibrary.sol",
  "compiler": {
    "name": "solc",
    "version": "0.8.6+commit.11564f7e.Emscripten.clang"
  },
  "schemaVersion": "3.3.4",
  "updatedAt": "2021-08-04T12:39:15.764Z",
  "devdoc": {
    "kind": "dev",
    "methods": {},
    "version": 1
  },
  "userdoc": {
    "kind": "user",
    "methods": {},
    "version": 1
  }
}