{
  "contractName": "UpgradeableBeacon",
  "abi": [
    {
      "inputs": [
        {
          "internalType": "address",
          "name": "implementation_",
          "type": "address"
        }
      ],
      "stateMutability": "nonpayable",
      "type": "constructor"
    },
    {
      "anonymous": false,
      "inputs": [
        {
          "indexed": true,
          "internalType": "address",
          "name": "previousOwner",
          "type": "address"
        },
        {
          "indexed": true,
          "internalType": "address",
          "name": "newOwner",
          "type": "address"
        }
      ],
      "name": "OwnershipTransferred",
      "type": "event"
    },
    {
      "anonymous": false,
      "inputs": [
        {
          "indexed": true,
          "internalType": "address",
          "name": "implementation",
          "type": "address"
        }
      ],
      "name": "Upgraded",
      "type": "event"
    },
    {
      "inputs": [],
      "name": "owner",
      "outputs": [
        {
          "internalType": "address",
          "name": "",
          "type": "address"
        }
      ],
      "stateMutability": "view",
      "type": "function"
    },
    {
      "inputs": [],
      "name": "renounceOwnership",
      "outputs": [],
      "stateMutability": "nonpayable",
      "type": "function"
    },
    {
      "inputs": [
        {
          "internalType": "address",
          "name": "newOwner",
          "type": "address"
        }
      ],
      "name": "transferOwnership",
      "outputs": [],
      "stateMutability": "nonpayable",
      "type": "function"
    },
    {
      "inputs": [],
      "name": "implementation",
      "outputs": [
        {
          "internalType": "address",
          "name": "",
          "type": "address"
        }
      ],
      "stateMutability": "view",
      "type": "function"
    },
    {
      "inputs": [
        {
          "internalType": "address",
          "name": "newImplementation",
          "type": "address"
        }
      ],
      "name": "upgradeTo",
      "outputs": [],
      "stateMutability": "nonpayable",
      "type": "function"
    }
  ],
  "bytecode": "0x608060405234801561001057600080fd5b5060405161052338038061052383398101604081905261002f91610148565b61003833610047565b61004181610097565b50610178565b600080546001600160a01b038381166001600160a01b0319831681178455604051919092169283917f8be0079c531659141344cd1fd0a4f28419497f9722a3daafe3b4186f6b6457e09190a35050565b6100aa8161014260201b61021f1760201c565b6101205760405162461bcd60e51b815260206004820152603360248201527f5570677261646561626c65426561636f6e3a20696d706c656d656e746174696f60448201527f6e206973206e6f74206120636f6e747261637400000000000000000000000000606482015260840160405180910390fd5b600180546001600160a01b0319166001600160a01b0392909216919091179055565b3b151590565b60006020828403121561015a57600080fd5b81516001600160a01b038116811461017157600080fd5b9392505050565b61039c806101876000396000f3fe608060405234801561001057600080fd5b50600436106100575760003560e01c80633659cfe61461005c5780635c60da1b14610071578063715018a61461009a5780638da5cb5b146100a2578063f2fde38b146100aa575b600080fd5b61006f61006a366004610301565b6100bd565b005b6001546001600160a01b03165b6040516001600160a01b03909116815260200160405180910390f35b61006f610135565b61007e610170565b61006f6100b8366004610301565b61017f565b336100c6610170565b6001600160a01b0316146100f55760405162461bcd60e51b81526004016100ec90610331565b60405180910390fd5b6100fe81610225565b6040516001600160a01b038216907fbc7cd75a20ee27fd9adebab32041f755214dbc6bffa90cc0225b39da2e5c2d3b90600090a250565b3361013e610170565b6001600160a01b0316146101645760405162461bcd60e51b81526004016100ec90610331565b61016e60006102b1565b565b6000546001600160a01b031690565b33610188610170565b6001600160a01b0316146101ae5760405162461bcd60e51b81526004016100ec90610331565b6001600160a01b0381166102135760405162461bcd60e51b815260206004820152602660248201527f4f776e61626c653a206e6577206f776e657220697320746865207a65726f206160448201526564647265737360d01b60648201526084016100ec565b61021c816102b1565b50565b3b151590565b803b61028f5760405162461bcd60e51b815260206004820152603360248201527f5570677261646561626c65426561636f6e3a20696d706c656d656e746174696f6044820152721b881a5cc81b9bdd08184818dbdb9d1c9858dd606a1b60648201526084016100ec565b600180546001600160a01b0319166001600160a01b0392909216919091179055565b600080546001600160a01b038381166001600160a01b0319831681178455604051919092169283917f8be0079c531659141344cd1fd0a4f28419497f9722a3daafe3b4186f6b6457e09190a35050565b60006020828403121561031357600080fd5b81356001600160a01b038116811461032a57600080fd5b9392505050565b6020808252818101527f4f776e61626c653a2063616c6c6572206973206e6f7420746865206f776e657260408201526060019056fea2646970667358221220b1e86d9e5a9827481ff081a46fc0ff448af58190927b3eac96f691d6bcdce0a964736f6c63430008070033",
  "immutableReferences": {},
  "source": "// SPDX-License-Identifier: MIT\r\n\r\npragma solidity ^0.8.0;\r\n\r\nimport \"./IBeacon.sol\";\r\nimport \"../../access/Ownable.sol\";\r\nimport \"../../utils/Address.sol\";\r\n\r\n/**\r\n * @dev This contract is used in conjunction with one or more instances of {BeaconProxy} to determine their\r\n * implementation contract, which is where they will delegate all function calls.\r\n *\r\n * An owner is able to change the implementation the beacon points to, thus upgrading the proxies that use this beacon.\r\n */\r\ncontract UpgradeableBeacon is IBeacon, Ownable {\r\n    address private _implementation;\r\n\r\n    /**\r\n     * @dev Emitted when the implementation returned by the beacon is changed.\r\n     */\r\n    event Upgraded(address indexed implementation);\r\n\r\n    /**\r\n     * @dev Sets the address of the initial implementation, and the deployer account as the owner who can upgrade the\r\n     * beacon.\r\n     */\r\n    constructor(address implementation_) {\r\n        _setImplementation(implementation_);\r\n    }\r\n\r\n    /**\r\n     * @dev Returns the current implementation address.\r\n     */\r\n    function implementation() public view virtual override returns (address) {\r\n        return _implementation;\r\n    }\r\n\r\n    /**\r\n     * @dev Upgrades the beacon to a new implementation.\r\n     *\r\n     * Emits an {Upgraded} event.\r\n     *\r\n     * Requirements:\r\n     *\r\n     * - msg.sender must be the owner of the contract.\r\n     * - `newImplementation` must be a contract.\r\n     */\r\n    function upgradeTo(address newImplementation) public virtual onlyOwner {\r\n        _setImplementation(newImplementation);\r\n        emit Upgraded(newImplementation);\r\n    }\r\n\r\n    /**\r\n     * @dev Sets the implementation contract address for this beacon\r\n     *\r\n     * Requirements:\r\n     *\r\n     * - `newImplementation` must be a contract.\r\n     */\r\n    function _setImplementation(address newImplementation) private {\r\n        require(Address.isContract(newImplementation), \"UpgradeableBeacon: implementation is not a contract\");\r\n        _implementation = newImplementation;\r\n    }\r\n}\r\n",
  "sourcePath": "@openzeppelin/contracts/proxy/beacon/UpgradeableBeacon.sol",
  "compiler": {
    "name": "solc",
    "version": "0.8.7+commit.e28d00a7.Emscripten.clang"
  },
  "schemaVersion": "3.3.4",
  "updatedAt": "2021-10-12T10:13:16.029Z",
  "devdoc": {
    "details": "This contract is used in conjunction with one or more instances of {BeaconProxy} to determine their implementation contract, which is where they will delegate all function calls. An owner is able to change the implementation the beacon points to, thus upgrading the proxies that use this beacon.",
    "events": {
      "Upgraded(address)": {
        "details": "Emitted when the implementation returned by the beacon is changed."
      }
    },
    "kind": "dev",
    "methods": {
      "constructor": {
        "details": "Sets the address of the initial implementation, and the deployer account as the owner who can upgrade the beacon."
      },
      "implementation()": {
        "details": "Returns the current implementation address."
      },
      "owner()": {
        "details": "Returns the address of the current owner."
      },
      "renounceOwnership()": {
        "details": "Leaves the contract without owner. It will not be possible to call `onlyOwner` functions anymore. Can only be called by the current owner. NOTE: Renouncing ownership will leave the contract without an owner, thereby removing any functionality that is only available to the owner."
      },
      "transferOwnership(address)": {
        "details": "Transfers ownership of the contract to a new account (`newOwner`). Can only be called by the current owner."
      },
      "upgradeTo(address)": {
        "details": "Upgrades the beacon to a new implementation. Emits an {Upgraded} event. Requirements: - msg.sender must be the owner of the contract. - `newImplementation` must be a contract."
      }
    },
    "version": 1
  },
  "userdoc": {
    "kind": "user",
    "methods": {},
    "version": 1
  }
}